{
  "address": "0xe22b595b3e5fF130EcF7056Ef6A4ac351AeA8a58",
  "abi": [
    {
      "inputs": [
        {
          "internalType": "uint256",
          "name": "_blockNumber",
          "type": "uint256"
        }
      ],
      "name": "blockHash",
      "outputs": [
        {
          "internalType": "bytes32",
          "name": "",
          "type": "bytes32"
        }
      ],
      "stateMutability": "view",
      "type": "function"
    },
    {
      "inputs": [],
      "name": "blockNumber",
      "outputs": [
        {
          "internalType": "uint256",
          "name": "",
          "type": "uint256"
        }
      ],
      "stateMutability": "view",
      "type": "function"
    }
  ],
  "transactionHash": "0x2061164d89b23cad0d018202026356fb9297975f16301db9c34d50ded95cbdbf",
  "args": [],
  "numDeployments": 3,
  "solcInputHash": "58467acb37cb6244b0fc4a8975b32b13",
  "bytecode": "0x6080604052348015600f57600080fd5b5060a88061001e6000396000f3fe6080604052348015600f57600080fd5b506004361060325760003560e01c806357e871e714603757806385df51fd14604b575b600080fd5b435b60405190815260200160405180910390f35b60396056366004605a565b4090565b600060208284031215606b57600080fd5b503591905056fea2646970667358221220a152dec2619957a1fa1d1c3feade116d510b488d7cd8acbef8c7b253f238128364736f6c63430008090033",
  "devdoc": {
    "kind": "dev",
    "methods": {},
    "version": 1
  },
  "userdoc": {
    "kind": "user",
    "methods": {},
    "version": 1
  },
  "storageLayout": {
    "storage": [],
    "types": null
  }
}