{
  "address": "0xf08273e2B35E78509B027f6FAa32485844EA7cCA",
  "abi": [
    {
      "inputs": [
        {
          "internalType": "address",
          "name": "_governor",
          "type": "address"
        },
        {
          "internalType": "contract KlerosCore",
          "name": "_core",
          "type": "address"
        },
        {
          "internalType": "contract RNG",
          "name": "_rng",
          "type": "address"
        }
      ],
      "stateMutability": "nonpayable",
      "type": "constructor"
    },
    {
      "anonymous": false,
      "inputs": [
        {
          "indexed": true,
          "internalType": "uint256",
          "name": "_disputeID",
          "type": "uint256"
        },
        {
          "indexed": true,
          "internalType": "uint256",
          "name": "_round",
          "type": "uint256"
        },
        {
          "indexed": true,
          "internalType": "uint256",
          "name": "_choice",
          "type": "uint256"
        }
      ],
      "name": "ChoiceFunded",
      "type": "event"
    },
    {
      "anonymous": false,
      "inputs": [
        {
          "indexed": true,
          "internalType": "uint256",
          "name": "_disputeID",
          "type": "uint256"
        },
        {
          "indexed": true,
          "internalType": "uint256",
          "name": "_round",
          "type": "uint256"
        },
        {
          "indexed": false,
          "internalType": "uint256",
          "name": "_choice",
          "type": "uint256"
        },
        {
          "indexed": true,
          "internalType": "address",
          "name": "_contributor",
          "type": "address"
        },
        {
          "indexed": false,
          "internalType": "uint256",
          "name": "_amount",
          "type": "uint256"
        }
      ],
      "name": "Contribution",
      "type": "event"
    },
    {
      "anonymous": false,
      "inputs": [
        {
          "indexed": true,
          "internalType": "uint256",
          "name": "_disputeID",
          "type": "uint256"
        },
        {
          "indexed": true,
          "internalType": "uint256",
          "name": "_round",
          "type": "uint256"
        },
        {
          "indexed": false,
          "internalType": "uint256",
          "name": "_choice",
          "type": "uint256"
        },
        {
          "indexed": true,
          "internalType": "address",
          "name": "_contributor",
          "type": "address"
        },
        {
          "indexed": false,
          "internalType": "uint256",
          "name": "_amount",
          "type": "uint256"
        }
      ],
      "name": "Withdrawal",
      "type": "event"
    },
    {
      "inputs": [],
      "name": "LOSER_APPEAL_PERIOD_MULTIPLIER",
      "outputs": [
        {
          "internalType": "uint256",
          "name": "",
          "type": "uint256"
        }
      ],
      "stateMutability": "view",
      "type": "function"
    },
    {
      "inputs": [],
      "name": "LOSER_STAKE_MULTIPLIER",
      "outputs": [
        {
          "internalType": "uint256",
          "name": "",
          "type": "uint256"
        }
      ],
      "stateMutability": "view",
      "type": "function"
    },
    {
      "inputs": [],
      "name": "ONE_BASIS_POINT",
      "outputs": [
        {
          "internalType": "uint256",
          "name": "",
          "type": "uint256"
        }
      ],
      "stateMutability": "view",
      "type": "function"
    },
    {
      "inputs": [],
      "name": "WINNER_STAKE_MULTIPLIER",
      "outputs": [
        {
          "internalType": "uint256",
          "name": "",
          "type": "uint256"
        }
      ],
      "stateMutability": "view",
      "type": "function"
    },
    {
      "inputs": [
        {
          "internalType": "uint256",
          "name": "_disputeID",
          "type": "uint256"
        },
        {
          "internalType": "uint256[]",
          "name": "_voteIDs",
          "type": "uint256[]"
        },
        {
          "internalType": "bytes32",
          "name": "_commit",
          "type": "bytes32"
        }
      ],
      "name": "castCommit",
      "outputs": [],
      "stateMutability": "nonpayable",
      "type": "function"
    },
    {
      "inputs": [
        {
          "internalType": "uint256",
          "name": "_disputeID",
          "type": "uint256"
        },
        {
          "internalType": "uint256[]",
          "name": "_voteIDs",
          "type": "uint256[]"
        },
        {
          "internalType": "uint256",
          "name": "_choice",
          "type": "uint256"
        },
        {
          "internalType": "uint256",
          "name": "_salt",
          "type": "uint256"
        }
      ],
      "name": "castVote",
      "outputs": [],
      "stateMutability": "nonpayable",
      "type": "function"
    },
    {
      "inputs": [
        {
          "internalType": "address payable",
          "name": "_core",
          "type": "address"
        }
      ],
      "name": "changeCore",
      "outputs": [],
      "stateMutability": "nonpayable",
      "type": "function"
    },
    {
      "inputs": [
        {
          "internalType": "address payable",
          "name": "_governor",
          "type": "address"
        }
      ],
      "name": "changeGovernor",
      "outputs": [],
      "stateMutability": "nonpayable",
      "type": "function"
    },
    {
      "inputs": [
        {
          "internalType": "contract RNG",
          "name": "_rng",
          "type": "address"
        }
      ],
      "name": "changeRandomNumberGenerator",
      "outputs": [],
      "stateMutability": "nonpayable",
      "type": "function"
    },
    {
      "inputs": [],
      "name": "core",
      "outputs": [
        {
          "internalType": "contract KlerosCore",
          "name": "",
          "type": "address"
        }
      ],
      "stateMutability": "view",
      "type": "function"
    },
    {
      "inputs": [
        {
          "internalType": "uint256",
          "name": "",
          "type": "uint256"
        }
      ],
      "name": "coreDisputeIDToLocal",
      "outputs": [
        {
          "internalType": "uint256",
          "name": "",
          "type": "uint256"
        }
      ],
      "stateMutability": "view",
      "type": "function"
    },
    {
      "inputs": [
        {
          "internalType": "uint256",
          "name": "_disputeID",
          "type": "uint256"
        },
        {
          "internalType": "uint256",
          "name": "_numberOfChoices",
          "type": "uint256"
        },
        {
          "internalType": "bytes",
          "name": "_extraData",
          "type": "bytes"
        }
      ],
      "name": "createDispute",
      "outputs": [],
      "stateMutability": "nonpayable",
      "type": "function"
    },
    {
      "inputs": [
        {
          "internalType": "uint256",
          "name": "_disputeID",
          "type": "uint256"
        }
      ],
      "name": "currentRuling",
      "outputs": [
        {
          "internalType": "uint256",
          "name": "ruling",
          "type": "uint256"
        }
      ],
      "stateMutability": "view",
      "type": "function"
    },
    {
      "inputs": [
        {
          "internalType": "uint256",
          "name": "",
          "type": "uint256"
        }
      ],
      "name": "disputes",
      "outputs": [
        {
          "internalType": "uint256",
          "name": "numberOfChoices",
          "type": "uint256"
        }
      ],
      "stateMutability": "view",
      "type": "function"
    },
    {
      "inputs": [
        {
          "internalType": "uint256",
          "name": "_disputeID",
          "type": "uint256"
        }
      ],
      "name": "draw",
      "outputs": [
        {
          "internalType": "address",
          "name": "drawnAddress",
          "type": "address"
        }
      ],
      "stateMutability": "nonpayable",
      "type": "function"
    },
    {
      "inputs": [
        {
          "internalType": "address",
          "name": "_destination",
          "type": "address"
        },
        {
          "internalType": "uint256",
          "name": "_amount",
          "type": "uint256"
        },
        {
          "internalType": "bytes",
          "name": "_data",
          "type": "bytes"
        }
      ],
      "name": "executeGovernorProposal",
      "outputs": [],
      "stateMutability": "nonpayable",
      "type": "function"
    },
    {
      "inputs": [
        {
          "internalType": "uint256",
          "name": "_disputeID",
          "type": "uint256"
        },
        {
          "internalType": "uint256",
          "name": "_choice",
          "type": "uint256"
        }
      ],
      "name": "fundAppeal",
      "outputs": [],
      "stateMutability": "payable",
      "type": "function"
    },
    {
      "inputs": [
        {
          "internalType": "uint256",
          "name": "_disputeID",
          "type": "uint256"
        },
        {
          "internalType": "uint256",
          "name": "_round",
          "type": "uint256"
        }
      ],
      "name": "getCoherentCount",
      "outputs": [
        {
          "internalType": "uint256",
          "name": "",
          "type": "uint256"
        }
      ],
      "stateMutability": "view",
      "type": "function"
    },
    {
      "inputs": [
        {
          "internalType": "uint256",
          "name": "_disputeID",
          "type": "uint256"
        },
        {
          "internalType": "uint256",
          "name": "_round",
          "type": "uint256"
        },
        {
          "internalType": "uint256",
          "name": "_voteID",
          "type": "uint256"
        }
      ],
      "name": "getDegreeOfCoherence",
      "outputs": [
        {
          "internalType": "uint256",
          "name": "",
          "type": "uint256"
        }
      ],
      "stateMutability": "view",
      "type": "function"
    },
    {
      "inputs": [
        {
          "internalType": "uint256",
          "name": "_disputeID",
          "type": "uint256"
        },
        {
          "internalType": "uint256",
          "name": "_round",
          "type": "uint256"
        },
        {
          "internalType": "uint256",
          "name": "_choice",
          "type": "uint256"
        }
      ],
      "name": "getRoundInfo",
      "outputs": [
        {
          "internalType": "uint256",
          "name": "winningChoice",
          "type": "uint256"
        },
        {
          "internalType": "bool",
          "name": "tied",
          "type": "bool"
        },
        {
          "internalType": "uint256",
          "name": "totalVoted",
          "type": "uint256"
        },
        {
          "internalType": "uint256",
          "name": "totalCommited",
          "type": "uint256"
        },
        {
          "internalType": "uint256",
          "name": "nbVoters",
          "type": "uint256"
        },
        {
          "internalType": "uint256",
          "name": "choiceCount",
          "type": "uint256"
        }
      ],
      "stateMutability": "view",
      "type": "function"
    },
    {
      "inputs": [
        {
          "internalType": "uint256",
          "name": "_disputeID",
          "type": "uint256"
        },
        {
          "internalType": "uint256",
          "name": "_round",
          "type": "uint256"
        },
        {
          "internalType": "uint256",
          "name": "_voteID",
          "type": "uint256"
        }
      ],
      "name": "getVoteInfo",
      "outputs": [
        {
          "internalType": "address",
          "name": "account",
          "type": "address"
        },
        {
          "internalType": "bytes32",
          "name": "commit",
          "type": "bytes32"
        },
        {
          "internalType": "uint256",
          "name": "choice",
          "type": "uint256"
        },
        {
          "internalType": "bool",
          "name": "voted",
          "type": "bool"
        }
      ],
      "stateMutability": "view",
      "type": "function"
    },
    {
      "inputs": [],
      "name": "governor",
      "outputs": [
        {
          "internalType": "address",
          "name": "",
          "type": "address"
        }
      ],
      "stateMutability": "view",
      "type": "function"
    },
    {
      "inputs": [
        {
          "internalType": "uint256",
          "name": "_disputeID",
          "type": "uint256"
        },
        {
          "internalType": "uint256",
          "name": "_round",
          "type": "uint256"
        },
        {
          "internalType": "uint256",
          "name": "_voteID",
          "type": "uint256"
        }
      ],
      "name": "isVoteActive",
      "outputs": [
        {
          "internalType": "bool",
          "name": "",
          "type": "bool"
        }
      ],
      "stateMutability": "view",
      "type": "function"
    },
    {
      "inputs": [],
      "name": "rng",
      "outputs": [
        {
          "internalType": "contract RNG",
          "name": "",
          "type": "address"
        }
      ],
      "stateMutability": "view",
      "type": "function"
    },
    {
      "inputs": [
        {
          "internalType": "uint256",
          "name": "_disputeID",
          "type": "uint256"
        },
        {
          "internalType": "address payable",
          "name": "_beneficiary",
          "type": "address"
        },
        {
          "internalType": "uint256",
          "name": "_round",
          "type": "uint256"
        },
        {
          "internalType": "uint256",
          "name": "_choice",
          "type": "uint256"
        }
      ],
      "name": "withdrawFeesAndRewards",
      "outputs": [
        {
          "internalType": "uint256",
          "name": "amount",
          "type": "uint256"
        }
      ],
      "stateMutability": "nonpayable",
      "type": "function"
    }
  ],
  "transactionHash": "0x20ebf657d9789a86e41232084be65d3b2f8ca057121ff0c14be713f7cd0797bf",
  "args": [
    "0xF50E77f2A2B6138D16c6c7511562E5C33c4B15A3",
    "0x0000000000000000000000000000000000000000",
    "0x87142b7E9C7D026776499120D902AF8896C07894"
  ],
  "numDeployments": 1,
  "solcInputHash": "9627b78546d73cee66a2022d221ca6c9",
  "bytecode": "0x60806040523480156200001157600080fd5b5060405162002b7a38038062002b7a833981016040819052620000349162000090565b600080546001600160a01b039485166001600160a01b031991821617909155600180549385169382169390931790925560028054919093169116179055620000e4565b6001600160a01b03811681146200008d57600080fd5b50565b600080600060608486031215620000a657600080fd5b8351620000b38162000077565b6020850151909350620000c68162000077565b6040850151909250620000d98162000077565b809150509250925092565b612a8680620000f46000396000f3fe6080604052600436106101665760003560e01c8063796490f9116100d1578063be4676041161008a578063da3beb8c11610064578063da3beb8c14610483578063e349ad3014610345578063e4c0aaf4146104a3578063f2f4eb26146104c357600080fd5b8063be4676041461042d578063c41bda6114610443578063d605787b1461046357600080fd5b8063796490f9146103455780638d31de6d1461035b5780638e4264601461037b578063a7cc08fe1461039b578063b34bfaa8146103e7578063ba66fde7146103fd57600080fd5b80634b2f0ea0116101235780634b2f0ea0146102655780634fe264fb14610278578063564a565d146102985780635c92e2f6146102b857806369f3f041146102d8578063751accd01461032557600080fd5b80630c340a241461016b5780631200aabc146101a85780631c3db16d146101e3578063362c3479146102035780633850f804146102235780633b30414714610245575b600080fd5b34801561017757600080fd5b5060005461018b906001600160a01b031681565b6040516001600160a01b0390911681526020015b60405180910390f35b3480156101b457600080fd5b506101d56101c33660046123eb565b60046020526000908152604090205481565b60405190815260200161019f565b3480156101ef57600080fd5b506101d56101fe3660046123eb565b6104e3565b34801561020f57600080fd5b506101d561021e36600461241c565b61056d565b34801561022f57600080fd5b5061024361023e3660046124a5565b61091c565b005b34801561025157600080fd5b5061018b6102603660046123eb565b610fc5565b610243610273366004612503565b611321565b34801561028457600080fd5b506101d5610293366004612525565b611928565b3480156102a457600080fd5b506101d56102b33660046123eb565b611a24565b3480156102c457600080fd5b506102436102d3366004612551565b611a4d565b3480156102e457600080fd5b506102f86102f3366004612525565b611dd1565b604080519687529415156020870152938501929092526060840152608083015260a082015260c00161019f565b34801561033157600080fd5b506102436103403660046125eb565b611e7c565b34801561035157600080fd5b506101d561271081565b34801561036757600080fd5b5061024361037636600461269c565b611f4e565b34801561038757600080fd5b5061024361039636600461271c565b61200a565b3480156103a757600080fd5b506103bb6103b6366004612525565b612056565b604080516001600160a01b0390951685526020850193909352918301521515606082015260800161019f565b3480156103f357600080fd5b506101d5614e2081565b34801561040957600080fd5b5061041d610418366004612525565b61210f565b604051901515815260200161019f565b34801561043957600080fd5b506101d561138881565b34801561044f57600080fd5b5061024361045e36600461271c565b61219d565b34801561046f57600080fd5b5060025461018b906001600160a01b031681565b34801561048f57600080fd5b506101d561049e366004612503565b6121e9565b3480156104af57600080fd5b506102436104be36600461271c565b612300565b3480156104cf57600080fd5b5060015461018b906001600160a01b031681565b60008181526004602052604081205460038054839290811061050757610507612739565b6000918252602082206002909102018054909250829061052990600190612765565b8154811061053957610539612739565b60009182526020909120600b90910201600381015490915060ff16610562578060010154610565565b60005b949350505050565b6001546040516325bfe6d160e11b8152600481018690526000916001600160a01b031690634b7fcda290602401602060405180830381865afa1580156105b7573d6000803e3d6000fd5b505050506040513d601f19601f820116820180604052508101906105db919061277c565b61062c5760405162461bcd60e51b815260206004820152601b60248201527f446973707574652073686f756c64206265207265736f6c7665642e000000000060448201526064015b60405180910390fd5b60008581526004602052604081205460038054909190811061065057610650612739565b90600052602060002090600202019050600081600001858154811061067757610677612739565b600091825260208220604051631c3db16d60e01b8152600481018b9052600b929092020192503090631c3db16d90602401602060405180830381865afa1580156106c5573d6000803e3d6000fd5b505050506040513d601f19601f820116820180604052508101906106e9919061279e565b600086815260078401602052604090205490915060ff16610731576001600160a01b038716600090815260088301602090815260408083208884529091529020549350610877565b808514156107a75760008581526006830160205260409020546107555760006107a0565b600085815260068301602090815260408083205460098601546001600160a01b038c1685526008870184528285208a865290935292205461079691906127b7565b6107a091906127ec565b9350610877565b600081815260078301602052604090205460ff166108775781600601600083600a016001815481106107db576107db612739565b906000526020600020015481526020019081526020016000205482600601600084600a0160008154811061081157610811612739565b90600052602060002001548152602001908152602001600020546108359190612800565b60098301546001600160a01b038916600090815260088501602090815260408083208a845290915290205461086a91906127b7565b61087491906127ec565b93505b6001600160a01b038716600090815260088301602090815260408083208884529091528120558315610911576040516001600160a01b0388169085156108fc029086906000818181858888f1505060408051898152602081018990526001600160a01b038c1694508a93508c92507f54b3cab3cb5c4aca3209db1151caff092e878011202e43a36782d4ebe0b963ae910160405180910390a45b505050949350505050565b60015460405163022684db60e41b8152600481018790526002916001600160a01b0316906322684db090602401602060405180830381865afa158015610966573d6000803e3d6000fd5b505050506040513d601f19601f8201168201806040525081019061098a919061282e565b600481111561099b5761099b612818565b146109f65760405162461bcd60e51b815260206004820152602560248201527f54686520646973707574652073686f756c6420626520696e20566f74652070656044820152643934b7b21760d91b6064820152608401610623565b82610a385760405162461bcd60e51b8152602060048201526012602482015271139bc81d9bdd195251081c1c9bdd9a59195960721b6044820152606401610623565b600085815260046020526040812054600380549091908110610a5c57610a5c612739565b906000526020600020906002020190508060010154831115610ab75760405162461bcd60e51b815260206004820152601460248201527343686f696365206f7574206f6620626f756e647360601b6044820152606401610623565b80546000908290610aca90600190612765565b81548110610ada57610ada612739565b600091825260208220600154604051637b5377bd60e11b8152600481018c9052600b9390930290910193506001600160a01b03169063d578cbac90829063f6a6ef7a90602401602060405180830381865afa158015610b3d573d6000803e3d6000fd5b505050506040513d601f19601f82011682018060405250810190610b61919061279e565b6040518263ffffffff1660e01b8152600401610b7f91815260200190565b602060405180830381865afa158015610b9c573d6000803e3d6000fd5b505050506040513d601f19601f82011682018060405250810190610bc0919061277c565b905060005b86811015610e68573383898984818110610be157610be1612739565b9050602002013581548110610bf857610bf8612739565b60009182526020909120600490910201546001600160a01b031614610c5f5760405162461bcd60e51b815260206004820152601f60248201527f5468652063616c6c65722068617320746f206f776e2074686520766f74652e006044820152606401610623565b811580610cd2575060408051602081018890529081018690526060016040516020818303038152906040528051906020012083600001898984818110610ca757610ca7612739565b9050602002013581548110610cbe57610cbe612739565b906000526020600020906004020160010154145b610d46576040805162461bcd60e51b81526020600482015260248101919091527f54686520636f6d6d6974206d757374206d61746368207468652063686f69636560448201527f20696e20737562636f7572747320776974682068696464656e20766f7465732e6064820152608401610623565b82888883818110610d5957610d59612739565b9050602002013581548110610d7057610d70612739565b600091825260209091206003600490920201015460ff1615610dc95760405162461bcd60e51b81526020600482015260126024820152712b37ba329030b63932b0b23c9031b0b9ba1760711b6044820152606401610623565b8583898984818110610ddd57610ddd612739565b9050602002013581548110610df457610df4612739565b6000918252602090912060026004909202010155600183898984818110610e1d57610e1d612739565b9050602002013581548110610e3457610e34612739565b60009182526020909120600490910201600301805460ff191691151591909117905580610e608161284f565b915050610bc5565b5086869050826004016000828254610e809190612800565b9091555050600085815260028301602052604081208054889290610ea5908490612800565b90915550506001820154851415610ed557600382015460ff1615610ed05760038201805460ff191690555b610f4f565b60018201546000908152600283016020526040808220548783529120541415610f1857600382015460ff16610ed05760038201805460ff19166001179055610f4f565b60018201546000908152600283016020526040808220548783529120541115610f4f576001820185905560038201805460ff191690555b815460048301541415610fbb576001546040516308aea9bb60e11b8152600481018a90526001600160a01b039091169063115d537690602401600060405180830381600087803b158015610fa257600080fd5b505af1158015610fb6573d6000803e3d6000fd5b505050505b5050505050505050565b6001546000906001600160a01b03163314610ff25760405162461bcd60e51b81526004016106239061286a565b600154604051637b5377bd60e11b8152600481018490526000916001600160a01b03169063f6a6ef7a90602401602060405180830381865afa15801561103c573d6000803e3d6000fd5b505050506040513d601f19601f82011682018060405250810190611060919061279e565b9050600061106c61234c565b600154604051630696a8a760e51b81526004810185905291925060009182916001600160a01b03169063d2d514e090602401600060405180830381865afa1580156110bb573d6000803e3d6000fd5b505050506040513d6000823e601f3d908101601f191682016040526110e3919081019061292e565b9250509150600080826000815181106110fe576110fe612739565b602002602001015185611111919061299b565b600089815260046020526040812054600380549394509192811061113757611137612739565b6000918252602082206002909102018054909250829061115990600190612765565b8154811061116957611169612739565b90600052602060002090600b020190505b845161118685886127b7565b611191906001612800565b10156112135760015b86811161120d576000816111ae878a6127b7565b6111b89190612800565b905060008782815181106111ce576111ce612739565b602002602001015190508086106111f0576111e98187612765565b95506111f8565b50945061120d565b505080806112059061284f565b91505061119a565b5061117a565b60015460405163de1a1e5960e01b8152600481018a9052602481018690526000916001600160a01b03169063de1a1e5990604401602060405180830381865afa158015611264573d6000803e3d6000fd5b505050506040513d601f19601f82011682018060405250810190611288919061279e565b9050611293816123c0565b604080516080810182526001600160a01b0383811682526000602080840182815294840182815260608501838152895460018082018c559a8552929093209451600490920290940180546001600160a01b03191691909316178255925195810195909555516002850155516003909301805460ff191693151593909317909255509998505050505050505050565b60008281526004602052604081205460038054909190811061134557611345612739565b9060005260206000209060020201905080600101548211156113a95760405162461bcd60e51b815260206004820181905260248201527f5468657265206973206e6f20737563682072756c696e6720746f2066756e642e6044820152606401610623565b60015460405163afe15cfb60e01b81526004810185905260009182916001600160a01b039091169063afe15cfb906024016040805180830381865afa1580156113f6573d6000803e3d6000fd5b505050506040513d601f19601f8201168201806040525081019061141a91906129af565b9150915081421015801561142d57508042105b6114725760405162461bcd60e51b815260206004820152601660248201527520b83832b0b6103832b934b7b21034b99037bb32b91760511b6044820152606401610623565b604051631c3db16d60e01b81526004810186905260009085903090631c3db16d90602401602060405180830381865afa1580156114b3573d6000803e3d6000fd5b505050506040513d601f19601f820116820180604052508101906114d7919061279e565b14156114e65750612710611566565b6127106113886114f68585612765565b61150091906127b7565b61150a91906127ec565b6115148442612765565b106115615760405162461bcd60e51b815260206004820152601f60248201527f41707065616c20706572696f64206973206f76657220666f72206c6f736572006044820152606401610623565b50614e205b8354600090859061157990600190612765565b8154811061158957611589612739565b600091825260208083208984526007600b90930201918201905260409091205490915060ff16156115fc5760405162461bcd60e51b815260206004820152601b60248201527f41707065616c2066656520697320616c726561647920706169642e00000000006044820152606401610623565b600154604051632cf6413f60e11b8152600481018990526000916001600160a01b0316906359ec827e90602401602060405180830381865afa158015611646573d6000803e3d6000fd5b505050506040513d601f19601f8201168201806040525081019061166a919061279e565b9050600061271061167b85846127b7565b61168591906127ec565b61168f9083612800565b60008981526006850160205260408120549192509082111561173e57600089815260068501602052604090205434906116c89084612765565b116116ed5760008981526006850160205260409020546116e89083612765565b6116ef565b345b8854909150339061170290600190612765565b604080518c8152602081018590528d917fcae597f39a3ad75c2e10d46b031f023c5c2babcd58ca0491b122acda3968d4c0910160405180910390a45b33600090815260088501602090815260408083208c84529091528120805483929061176a908490612800565b909155505060008981526006850160205260408120805483929061178f908490612800565b909155505060008981526006850160205260409020548211611845576000898152600685016020526040812054600986018054919290916117d1908490612800565b9091555050600a8401805460018181018355600092835260208084209092018c90558b8352600787019091526040909120805460ff19168217905588548a9161181991612765565b6040518c907fed764996238e4c1c873ae3af7ae2f00f1f6f4f10b9ac7d4bbea4a764c5dea00990600090a45b600a840154600110156118ee578284600901546118629190612765565b6009850155875460018082018a5560008a8152602090206003600b90930201918201805460ff191682179055546040516307e69b7b60e41b8152600481018d90526001600160a01b0390911690637e69b7b09086906024016000604051808303818588803b1580156118d357600080fd5b505af11580156118e7573d6000803e3d6000fd5b5050505050505b8034111561191c57336108fc6119048334612765565b6040518115909202916000818181858888f150505050505b50505050505050505050565b60008381526004602052604081205460038054839290811061194c5761194c612739565b6000918252602082206002909102018054909250829061196e90600190612765565b8154811061197e5761197e612739565b90600052602060002090600b0201905060008260000186815481106119a5576119a5612739565b90600052602060002090600b020160000185815481106119c7576119c7612739565b60009182526020909120600490910201600381015490915060ff168015611a035750816001015481600201541480611a035750600382015460ff165b15611a15576127109350505050611a1d565b600093505050505b9392505050565b60038181548110611a3457600080fd5b6000918252602090912060016002909202010154905081565b6001805460405163022684db60e41b8152600481018790526001600160a01b03909116906322684db090602401602060405180830381865afa158015611a97573d6000803e3d6000fd5b505050506040513d601f19601f82011682018060405250810190611abb919061282e565b6004811115611acc57611acc612818565b14611b295760405162461bcd60e51b815260206004820152602760248201527f54686520646973707574652073686f756c6420626520696e20436f6d6d6974206044820152663832b934b7b21760c91b6064820152608401610623565b80611b665760405162461bcd60e51b815260206004820152600d60248201526c22b6b83a3c9031b7b6b6b4ba1760991b6044820152606401610623565b600084815260046020526040812054600380549091908110611b8a57611b8a612739565b60009182526020822060029091020180549092508290611bac90600190612765565b81548110611bbc57611bbc612739565b90600052602060002090600b0201905060005b84811015611d45573382878784818110611beb57611beb612739565b9050602002013581548110611c0257611c02612739565b60009182526020909120600490910201546001600160a01b031614611c695760405162461bcd60e51b815260206004820152601f60248201527f5468652063616c6c65722068617320746f206f776e2074686520766f74652e006044820152606401610623565b600082878784818110611c7e57611c7e612739565b9050602002013581548110611c9557611c95612739565b90600052602060002090600402016001015414611cf45760405162461bcd60e51b815260206004820152601c60248201527f416c726561647920636f6d6d6974746564207468697320766f74652e000000006044820152606401610623565b8382878784818110611d0857611d08612739565b9050602002013581548110611d1f57611d1f612739565b600091825260209091206001600490920201015580611d3d8161284f565b915050611bcf565b5084849050816005016000828254611d5d9190612800565b9091555050805460058201541415611dc9576001546040516308aea9bb60e11b8152600481018890526001600160a01b039091169063115d537690602401600060405180830381600087803b158015611db557600080fd5b505af115801561191c573d6000803e3d6000fd5b505050505050565b60008060008060008060006003600460008c81526020019081526020016000205481548110611e0257611e02612739565b906000526020600020906002020190506000816000018a81548110611e2957611e29612739565b600091825260208083206001600b909302019182015460038301546004840154600585015485549f87526002909501909352604090942054909f60ff9094169e50909c50909a9950975095505050505050565b6000546001600160a01b03163314611ea65760405162461bcd60e51b8152600401610623906129d3565b6000836001600160a01b03168383604051611ec19190612a15565b60006040518083038185875af1925050503d8060008114611efe576040519150601f19603f3d011682016040523d82523d6000602084013e611f03565b606091505b5050905080611f485760405162461bcd60e51b8152602060048201526011602482015270155b9cdd58d8d95cdcd99d5b0818d85b1b607a1b6044820152606401610623565b50505050565b6001546001600160a01b03163314611f785760405162461bcd60e51b81526004016106239061286a565b50506003805460018082018355600282027fc2575a0e9e593c00f959f8c92f12db2869c3395a3b0502d05e2516446f71f85c8101949094557fc2575a0e9e593c00f959f8c92f12db2869c3395a3b0502d05e2516446f71f85b9093018054808501825560009182526020808320600b909202909101909301805460ff1916909417909355928252600490526040902055565b6000546001600160a01b031633146120345760405162461bcd60e51b8152600401610623906129d3565b600180546001600160a01b0319166001600160a01b0392909216919091179055565b60008060008060006003600460008a8152602001908152602001600020548154811061208457612084612739565b9060005260206000209060020201905060008160000188815481106120ab576120ab612739565b90600052602060002090600b020160000187815481106120cd576120cd612739565b600091825260209091206004909102018054600182015460028301546003909301546001600160a01b039092169c909b5091995060ff16975095505050505050565b60008381526004602052604081205460038054839290811061213357612133612739565b90600052602060002090600202019050600081600001858154811061215a5761215a612739565b90600052602060002090600b0201600001848154811061217c5761217c612739565b600091825260209091206004909102016003015460ff169695505050505050565b6000546001600160a01b031633146121c75760405162461bcd60e51b8152600401610623906129d3565b600280546001600160a01b0319166001600160a01b0392909216919091179055565b60008281526004602052604081205460038054839290811061220d5761220d612739565b6000918252602082206002909102018054909250829061222f90600190612765565b8154811061223f5761223f612739565b90600052602060002090600b02019050600082600001858154811061226657612266612739565b90600052602060002090600b020190506000826001015490508160040154600014806122b05750600383015460ff161580156122b057506000818152600283016020526040902054155b156122c25760009450505050506122fa565b600383015460ff16156122de57506004015492506122fa915050565b60009081526002909101602052604090205492506122fa915050565b92915050565b6000546001600160a01b0316331461232a5760405162461bcd60e51b8152600401610623906129d3565b600080546001600160a01b0319166001600160a01b0392909216919091179055565b600254604051630e39b00f60e11b81524360048201526000916001600160a01b031690631c73601e906024016020604051808303816000875af1158015612397573d6000803e3d6000fd5b505050506040513d601f19601f820116820180604052508101906123bb919061279e565b905090565b600060405160005b60148110156123e35783811a81600c840101536001016123c8565b505192915050565b6000602082840312156123fd57600080fd5b5035919050565b6001600160a01b038116811461241957600080fd5b50565b6000806000806080858703121561243257600080fd5b84359350602085013561244481612404565b93969395505050506040820135916060013590565b60008083601f84011261246b57600080fd5b50813567ffffffffffffffff81111561248357600080fd5b6020830191508360208260051b850101111561249e57600080fd5b9250929050565b6000806000806000608086880312156124bd57600080fd5b85359450602086013567ffffffffffffffff8111156124db57600080fd5b6124e788828901612459565b9699909850959660408101359660609091013595509350505050565b6000806040838503121561251657600080fd5b50508035926020909101359150565b60008060006060848603121561253a57600080fd5b505081359360208301359350604090920135919050565b6000806000806060858703121561256757600080fd5b84359350602085013567ffffffffffffffff81111561258557600080fd5b61259187828801612459565b9598909750949560400135949350505050565b634e487b7160e01b600052604160045260246000fd5b604051601f8201601f1916810167ffffffffffffffff811182821017156125e3576125e36125a4565b604052919050565b60008060006060848603121561260057600080fd5b833561260b81612404565b92506020848101359250604085013567ffffffffffffffff8082111561263057600080fd5b818701915087601f83011261264457600080fd5b813581811115612656576126566125a4565b612668601f8201601f191685016125ba565b9150808252888482850101111561267e57600080fd5b80848401858401376000848284010152508093505050509250925092565b600080600080606085870312156126b257600080fd5b8435935060208501359250604085013567ffffffffffffffff808211156126d857600080fd5b818701915087601f8301126126ec57600080fd5b8135818111156126fb57600080fd5b88602082850101111561270d57600080fd5b95989497505060200194505050565b60006020828403121561272e57600080fd5b8135611a1d81612404565b634e487b7160e01b600052603260045260246000fd5b634e487b7160e01b600052601160045260246000fd5b6000828210156127775761277761274f565b500390565b60006020828403121561278e57600080fd5b81518015158114611a1d57600080fd5b6000602082840312156127b057600080fd5b5051919050565b60008160001904831182151516156127d1576127d161274f565b500290565b634e487b7160e01b600052601260045260246000fd5b6000826127fb576127fb6127d6565b500490565b600082198211156128135761281361274f565b500190565b634e487b7160e01b600052602160045260246000fd5b60006020828403121561284057600080fd5b815160058110611a1d57600080fd5b60006000198214156128635761286361274f565b5060010190565b60208082526024908201527f416363657373206e6f7420616c6c6f7765643a204b6c65726f73436f7265206f60408201526337363c9760e11b606082015260800190565b600082601f8301126128bf57600080fd5b8151602067ffffffffffffffff8211156128db576128db6125a4565b8160051b6128ea8282016125ba565b928352848101820192828101908785111561290457600080fd5b83870192505b848310156129235782518252918301919083019061290a565b979650505050505050565b60008060006060848603121561294357600080fd5b83519250602084015167ffffffffffffffff8082111561296257600080fd5b61296e878388016128ae565b9350604086015191508082111561298457600080fd5b50612991868287016128ae565b9150509250925092565b6000826129aa576129aa6127d6565b500690565b600080604083850312156129c257600080fd5b505080516020909101519092909150565b60208082526022908201527f416363657373206e6f7420616c6c6f7765643a20476f7665726e6f72206f6e6c6040820152613c9760f11b606082015260800190565b6000825160005b81811015612a365760208186018101518583015201612a1c565b81811115612a45576000828501525b50919091019291505056fea2646970667358221220cadd48586bf74e6d7354c701bac3b4beacf7fea9e66e7923bd24cee0b55af07c64736f6c634300080a0033",
  "devdoc": {
    "kind": "dev",
    "methods": {
      "castCommit(uint256,uint256[],bytes32)": {
        "details": "Sets the caller's commit for the specified votes.  `O(n)` where  `n` is the number of votes.",
        "params": {
          "_commit": "The commit.",
          "_disputeID": "The ID of the dispute.",
          "_voteIDs": "The IDs of the votes."
        }
      },
      "castVote(uint256,uint256[],uint256,uint256)": {
        "details": "Sets the caller's choices for the specified votes.  `O(n)` where  `n` is the number of votes.",
        "params": {
          "_choice": "The choice.",
          "_disputeID": "The ID of the dispute.",
          "_salt": "The salt for the commit if the votes were hidden.",
          "_voteIDs": "The IDs of the votes."
        }
      },
      "changeCore(address)": {
        "details": "Changes the `core` storage variable.",
        "params": {
          "_core": "The new value for the `core` storage variable."
        }
      },
      "changeGovernor(address)": {
        "details": "Changes the `governor` storage variable.",
        "params": {
          "_governor": "The new value for the `governor` storage variable."
        }
      },
      "changeRandomNumberGenerator(address)": {
        "details": "Changes the `_rng` storage variable.",
        "params": {
          "_rng": "The new value for the `RNGenerator` storage variable."
        }
      },
      "constructor": {
        "details": "Constructor.",
        "params": {
          "_core": "The KlerosCore arbitrator.",
          "_governor": "The governor's address.",
          "_rng": "The random number generator."
        }
      },
      "createDispute(uint256,uint256,bytes)": {
        "details": "Creates a local dispute and maps it to the dispute ID in the Core contract.  Note: Access restricted to Kleros Core only.",
        "params": {
          "_disputeID": "The ID of the dispute in Kleros Core.",
          "_extraData": "Additional info about the dispute, for possible use in future dispute kits.",
          "_numberOfChoices": "Number of choices of the dispute"
        }
      },
      "currentRuling(uint256)": {
        "details": "Gets the current ruling of a specified dispute.",
        "params": {
          "_disputeID": "The ID of the dispute in Kleros Core."
        },
        "returns": {
          "ruling": "The current ruling."
        }
      },
      "draw(uint256)": {
        "details": "Draws the juror from the sortition tree. The drawn address is picked up by Kleros Core.  Note: Access restricted to Kleros Core only.",
        "params": {
          "_disputeID": "The ID of the dispute in Kleros Core."
        },
        "returns": {
          "drawnAddress": "The drawn address."
        }
      },
      "executeGovernorProposal(address,uint256,bytes)": {
        "details": "Allows the governor to call anything on behalf of the contract.",
        "params": {
          "_amount": "The value sent with the call.",
          "_data": "The data sent with the call.",
          "_destination": "The destination of the call."
        }
      },
      "fundAppeal(uint256,uint256)": {
        "details": "Manages contributions, and appeals a dispute if at least two choices are fully funded.  Note that the surplus deposit will be reimbursed.",
        "params": {
          "_choice": "A choice that receives funding.",
          "_disputeID": "Index of the dispute in Kleros Core contract."
        }
      },
      "getCoherentCount(uint256,uint256)": {
        "details": "Gets the number of jurors who are eligible to a reward in this round.",
        "params": {
          "_disputeID": "The ID of the dispute in Kleros Core.",
          "_round": "The ID of the round."
        },
        "returns": {
          "_0": "The number of coherent jurors."
        }
      },
      "getDegreeOfCoherence(uint256,uint256,uint256)": {
        "details": "Gets the degree of coherence of a particular voter. This function is called by Kleros Core in order to determine the amount of the reward.",
        "params": {
          "_disputeID": "The ID of the dispute in Kleros Core.",
          "_round": "The ID of the round.",
          "_voteID": "The ID of the vote."
        },
        "returns": {
          "_0": "The degree of coherence in basis points."
        }
      },
      "isVoteActive(uint256,uint256,uint256)": {
        "details": "Returns true if the specified voter was active in this round.",
        "params": {
          "_disputeID": "The ID of the dispute in Kleros Core.",
          "_round": "The ID of the round.",
          "_voteID": "The ID of the voter."
        },
        "returns": {
          "_0": "Whether the voter was active or not."
        }
      },
      "withdrawFeesAndRewards(uint256,address,uint256,uint256)": {
        "details": "Allows those contributors who attempted to fund an appeal round to withdraw any reimbursable fees or rewards after the dispute gets resolved.",
        "params": {
          "_beneficiary": "The address whose rewards to withdraw.",
          "_choice": "The ruling option that the caller wants to withdraw from.",
          "_disputeID": "Index of the dispute in Kleros Core contract.",
          "_round": "The round the caller wants to withdraw from."
        },
        "returns": {
          "amount": "The withdrawn amount."
        }
      }
    },
    "title": "DisputeKitClassic  Dispute kit implementation of the Kleros v1 features including:  - a drawing system: proportional to staked PNK,  - a vote aggreation system: plurality,  - an incentive system: equal split between coherent votes,  - an appeal system: fund 2 choices only, vote on any choice.  TODO:  - phase management: Generating->Drawing->Resolving->Generating in coordination with KlerosCore to freeze staking.",
    "version": 1
  },
  "userdoc": {
    "kind": "user",
    "methods": {},
    "version": 1
  },
  "storageLayout": {
    "storage": [
      {
        "astId": 4022,
        "contract": "src/arbitration/dispute-kits/DisputeKitClassic.sol:DisputeKitClassic",
        "label": "governor",
        "offset": 0,
        "slot": "0",
        "type": "t_address"
      },
      {
        "astId": 4025,
        "contract": "src/arbitration/dispute-kits/DisputeKitClassic.sol:DisputeKitClassic",
        "label": "core",
        "offset": 0,
        "slot": "1",
        "type": "t_contract(KlerosCore)4013"
      },
      {
        "astId": 4172,
        "contract": "src/arbitration/dispute-kits/DisputeKitClassic.sol:DisputeKitClassic",
        "label": "rng",
        "offset": 0,
        "slot": "2",
        "type": "t_contract(RNG)11674"
      },
      {
        "astId": 4176,
        "contract": "src/arbitration/dispute-kits/DisputeKitClassic.sol:DisputeKitClassic",
        "label": "disputes",
        "offset": 0,
        "slot": "3",
        "type": "t_array(t_struct(Dispute)4112_storage)dyn_storage"
      },
      {
        "astId": 4180,
        "contract": "src/arbitration/dispute-kits/DisputeKitClassic.sol:DisputeKitClassic",
        "label": "coreDisputeIDToLocal",
        "offset": 0,
        "slot": "4",
        "type": "t_mapping(t_uint256,t_uint256)"
      }
    ],
    "types": {
      "t_address": {
        "encoding": "inplace",
        "label": "address",
        "numberOfBytes": "20"
      },
      "t_array(t_struct(Dispute)4112_storage)dyn_storage": {
        "base": "t_struct(Dispute)4112_storage",
        "encoding": "dynamic_array",
        "label": "struct DisputeKitClassic.Dispute[]",
        "numberOfBytes": "32"
      },
      "t_array(t_struct(Round)4148_storage)dyn_storage": {
        "base": "t_struct(Round)4148_storage",
        "encoding": "dynamic_array",
        "label": "struct DisputeKitClassic.Round[]",
        "numberOfBytes": "32"
      },
      "t_array(t_struct(Vote)4157_storage)dyn_storage": {
        "base": "t_struct(Vote)4157_storage",
        "encoding": "dynamic_array",
        "label": "struct DisputeKitClassic.Vote[]",
        "numberOfBytes": "32"
      },
      "t_array(t_uint256)dyn_storage": {
        "base": "t_uint256",
        "encoding": "dynamic_array",
        "label": "uint256[]",
        "numberOfBytes": "32"
      },
      "t_bool": {
        "encoding": "inplace",
        "label": "bool",
        "numberOfBytes": "1"
      },
      "t_bytes32": {
        "encoding": "inplace",
        "label": "bytes32",
        "numberOfBytes": "32"
      },
      "t_contract(KlerosCore)4013": {
        "encoding": "inplace",
        "label": "contract KlerosCore",
        "numberOfBytes": "20"
      },
      "t_contract(RNG)11674": {
        "encoding": "inplace",
        "label": "contract RNG",
        "numberOfBytes": "20"
      },
      "t_mapping(t_address,t_mapping(t_uint256,t_uint256))": {
        "encoding": "mapping",
        "key": "t_address",
        "label": "mapping(address => mapping(uint256 => uint256))",
        "numberOfBytes": "32",
        "value": "t_mapping(t_uint256,t_uint256)"
      },
      "t_mapping(t_uint256,t_bool)": {
        "encoding": "mapping",
        "key": "t_uint256",
        "label": "mapping(uint256 => bool)",
        "numberOfBytes": "32",
        "value": "t_bool"
      },
      "t_mapping(t_uint256,t_uint256)": {
        "encoding": "mapping",
        "key": "t_uint256",
        "label": "mapping(uint256 => uint256)",
        "numberOfBytes": "32",
        "value": "t_uint256"
      },
      "t_struct(Dispute)4112_storage": {
        "encoding": "inplace",
        "label": "struct DisputeKitClassic.Dispute",
        "members": [
          {
            "astId": 4109,
            "contract": "src/arbitration/dispute-kits/DisputeKitClassic.sol:DisputeKitClassic",
            "label": "rounds",
            "offset": 0,
            "slot": "0",
            "type": "t_array(t_struct(Round)4148_storage)dyn_storage"
          },
          {
            "astId": 4111,
            "contract": "src/arbitration/dispute-kits/DisputeKitClassic.sol:DisputeKitClassic",
            "label": "numberOfChoices",
            "offset": 0,
            "slot": "1",
            "type": "t_uint256"
          }
        ],
        "numberOfBytes": "64"
      },
      "t_struct(Round)4148_storage": {
        "encoding": "inplace",
        "label": "struct DisputeKitClassic.Round",
        "members": [
          {
            "astId": 4116,
            "contract": "src/arbitration/dispute-kits/DisputeKitClassic.sol:DisputeKitClassic",
            "label": "votes",
            "offset": 0,
            "slot": "0",
            "type": "t_array(t_struct(Vote)4157_storage)dyn_storage"
          },
          {
            "astId": 4118,
            "contract": "src/arbitration/dispute-kits/DisputeKitClassic.sol:DisputeKitClassic",
            "label": "winningChoice",
            "offset": 0,
            "slot": "1",
            "type": "t_uint256"
          },
          {
            "astId": 4122,
            "contract": "src/arbitration/dispute-kits/DisputeKitClassic.sol:DisputeKitClassic",
            "label": "counts",
            "offset": 0,
            "slot": "2",
            "type": "t_mapping(t_uint256,t_uint256)"
          },
          {
            "astId": 4124,
            "contract": "src/arbitration/dispute-kits/DisputeKitClassic.sol:DisputeKitClassic",
            "label": "tied",
            "offset": 0,
            "slot": "3",
            "type": "t_bool"
          },
          {
            "astId": 4126,
            "contract": "src/arbitration/dispute-kits/DisputeKitClassic.sol:DisputeKitClassic",
            "label": "totalVoted",
            "offset": 0,
            "slot": "4",
            "type": "t_uint256"
          },
          {
            "astId": 4128,
            "contract": "src/arbitration/dispute-kits/DisputeKitClassic.sol:DisputeKitClassic",
            "label": "totalCommitted",
            "offset": 0,
            "slot": "5",
            "type": "t_uint256"
          },
          {
            "astId": 4132,
            "contract": "src/arbitration/dispute-kits/DisputeKitClassic.sol:DisputeKitClassic",
            "label": "paidFees",
            "offset": 0,
            "slot": "6",
            "type": "t_mapping(t_uint256,t_uint256)"
          },
          {
            "astId": 4136,
            "contract": "src/arbitration/dispute-kits/DisputeKitClassic.sol:DisputeKitClassic",
            "label": "hasPaid",
            "offset": 0,
            "slot": "7",
            "type": "t_mapping(t_uint256,t_bool)"
          },
          {
            "astId": 4142,
            "contract": "src/arbitration/dispute-kits/DisputeKitClassic.sol:DisputeKitClassic",
            "label": "contributions",
            "offset": 0,
            "slot": "8",
            "type": "t_mapping(t_address,t_mapping(t_uint256,t_uint256))"
          },
          {
            "astId": 4144,
            "contract": "src/arbitration/dispute-kits/DisputeKitClassic.sol:DisputeKitClassic",
            "label": "feeRewards",
            "offset": 0,
            "slot": "9",
            "type": "t_uint256"
          },
          {
            "astId": 4147,
            "contract": "src/arbitration/dispute-kits/DisputeKitClassic.sol:DisputeKitClassic",
            "label": "fundedChoices",
            "offset": 0,
            "slot": "10",
            "type": "t_array(t_uint256)dyn_storage"
          }
        ],
        "numberOfBytes": "352"
      },
      "t_struct(Vote)4157_storage": {
        "encoding": "inplace",
        "label": "struct DisputeKitClassic.Vote",
        "members": [
          {
            "astId": 4150,
            "contract": "src/arbitration/dispute-kits/DisputeKitClassic.sol:DisputeKitClassic",
            "label": "account",
            "offset": 0,
            "slot": "0",
            "type": "t_address"
          },
          {
            "astId": 4152,
            "contract": "src/arbitration/dispute-kits/DisputeKitClassic.sol:DisputeKitClassic",
            "label": "commit",
            "offset": 0,
            "slot": "1",
            "type": "t_bytes32"
          },
          {
            "astId": 4154,
            "contract": "src/arbitration/dispute-kits/DisputeKitClassic.sol:DisputeKitClassic",
            "label": "choice",
            "offset": 0,
            "slot": "2",
            "type": "t_uint256"
          },
          {
            "astId": 4156,
            "contract": "src/arbitration/dispute-kits/DisputeKitClassic.sol:DisputeKitClassic",
            "label": "voted",
            "offset": 0,
            "slot": "3",
            "type": "t_bool"
          }
        ],
        "numberOfBytes": "128"
      },
      "t_uint256": {
        "encoding": "inplace",
        "label": "uint256",
        "numberOfBytes": "32"
      }
    }
  }
}