{
  "address": "0xed12799915180a257985631fbD2ead261eD838cf",
  "abi": [
    {
      "inputs": [
        {
          "internalType": "address",
          "name": "_governor",
          "type": "address"
        },
        {
          "internalType": "contract KlerosCore",
          "name": "_core",
          "type": "address"
        },
        {
          "internalType": "contract RNG",
          "name": "_rng",
          "type": "address"
        }
      ],
      "stateMutability": "nonpayable",
      "type": "constructor"
    },
    {
      "anonymous": false,
      "inputs": [
        {
          "indexed": true,
          "internalType": "uint256",
          "name": "_disputeID",
          "type": "uint256"
        },
        {
          "indexed": true,
          "internalType": "uint256",
          "name": "_round",
          "type": "uint256"
        },
        {
          "indexed": true,
          "internalType": "uint256",
          "name": "_choice",
          "type": "uint256"
        }
      ],
      "name": "ChoiceFunded",
      "type": "event"
    },
    {
      "anonymous": false,
      "inputs": [
        {
          "indexed": true,
          "internalType": "uint256",
          "name": "_disputeID",
          "type": "uint256"
        },
        {
          "indexed": true,
          "internalType": "uint256",
          "name": "_round",
          "type": "uint256"
        },
        {
          "indexed": false,
          "internalType": "uint256",
          "name": "_choice",
          "type": "uint256"
        },
        {
          "indexed": true,
          "internalType": "address",
          "name": "_contributor",
          "type": "address"
        },
        {
          "indexed": false,
          "internalType": "uint256",
          "name": "_amount",
          "type": "uint256"
        }
      ],
      "name": "Contribution",
      "type": "event"
    },
    {
      "anonymous": false,
      "inputs": [
        {
          "indexed": true,
          "internalType": "contract IArbitrator",
          "name": "_arbitrator",
          "type": "address"
        },
        {
          "indexed": true,
          "internalType": "uint256",
          "name": "_evidenceGroupID",
          "type": "uint256"
        },
        {
          "indexed": true,
          "internalType": "address",
          "name": "_party",
          "type": "address"
        },
        {
          "indexed": false,
          "internalType": "string",
          "name": "_evidence",
          "type": "string"
        }
      ],
      "name": "Evidence",
      "type": "event"
    },
    {
      "anonymous": false,
      "inputs": [
        {
          "indexed": true,
          "internalType": "uint256",
          "name": "_disputeID",
          "type": "uint256"
        },
        {
          "indexed": true,
          "internalType": "uint256",
          "name": "_round",
          "type": "uint256"
        },
        {
          "indexed": false,
          "internalType": "uint256",
          "name": "_choice",
          "type": "uint256"
        },
        {
          "indexed": true,
          "internalType": "address",
          "name": "_contributor",
          "type": "address"
        },
        {
          "indexed": false,
          "internalType": "uint256",
          "name": "_amount",
          "type": "uint256"
        }
      ],
      "name": "Withdrawal",
      "type": "event"
    },
    {
      "inputs": [],
      "name": "LOSER_APPEAL_PERIOD_MULTIPLIER",
      "outputs": [
        {
          "internalType": "uint256",
          "name": "",
          "type": "uint256"
        }
      ],
      "stateMutability": "view",
      "type": "function"
    },
    {
      "inputs": [],
      "name": "LOSER_STAKE_MULTIPLIER",
      "outputs": [
        {
          "internalType": "uint256",
          "name": "",
          "type": "uint256"
        }
      ],
      "stateMutability": "view",
      "type": "function"
    },
    {
      "inputs": [],
      "name": "ONE_BASIS_POINT",
      "outputs": [
        {
          "internalType": "uint256",
          "name": "",
          "type": "uint256"
        }
      ],
      "stateMutability": "view",
      "type": "function"
    },
    {
      "inputs": [],
      "name": "WINNER_STAKE_MULTIPLIER",
      "outputs": [
        {
          "internalType": "uint256",
          "name": "",
          "type": "uint256"
        }
      ],
      "stateMutability": "view",
      "type": "function"
    },
    {
      "inputs": [
        {
          "internalType": "uint256",
          "name": "_disputeID",
          "type": "uint256"
        },
        {
          "internalType": "uint256[]",
          "name": "_voteIDs",
          "type": "uint256[]"
        },
        {
          "internalType": "bytes32",
          "name": "_commit",
          "type": "bytes32"
        }
      ],
      "name": "castCommit",
      "outputs": [],
      "stateMutability": "nonpayable",
      "type": "function"
    },
    {
      "inputs": [
        {
          "internalType": "uint256",
          "name": "_disputeID",
          "type": "uint256"
        },
        {
          "internalType": "uint256[]",
          "name": "_voteIDs",
          "type": "uint256[]"
        },
        {
          "internalType": "uint256",
          "name": "_choice",
          "type": "uint256"
        },
        {
          "internalType": "uint256",
          "name": "_salt",
          "type": "uint256"
        }
      ],
      "name": "castVote",
      "outputs": [],
      "stateMutability": "nonpayable",
      "type": "function"
    },
    {
      "inputs": [
        {
          "internalType": "address payable",
          "name": "_core",
          "type": "address"
        }
      ],
      "name": "changeCore",
      "outputs": [],
      "stateMutability": "nonpayable",
      "type": "function"
    },
    {
      "inputs": [
        {
          "internalType": "address payable",
          "name": "_governor",
          "type": "address"
        }
      ],
      "name": "changeGovernor",
      "outputs": [],
      "stateMutability": "nonpayable",
      "type": "function"
    },
    {
      "inputs": [
        {
          "internalType": "contract RNG",
          "name": "_rng",
          "type": "address"
        }
      ],
      "name": "changeRandomNumberGenerator",
      "outputs": [],
      "stateMutability": "nonpayable",
      "type": "function"
    },
    {
      "inputs": [],
      "name": "core",
      "outputs": [
        {
          "internalType": "contract KlerosCore",
          "name": "",
          "type": "address"
        }
      ],
      "stateMutability": "view",
      "type": "function"
    },
    {
      "inputs": [
        {
          "internalType": "uint256",
          "name": "",
          "type": "uint256"
        }
      ],
      "name": "coreDisputeIDToLocal",
      "outputs": [
        {
          "internalType": "uint256",
          "name": "",
          "type": "uint256"
        }
      ],
      "stateMutability": "view",
      "type": "function"
    },
    {
      "inputs": [
        {
          "internalType": "uint256",
          "name": "_disputeID",
          "type": "uint256"
        },
        {
          "internalType": "uint256",
          "name": "_numberOfChoices",
          "type": "uint256"
        },
        {
          "internalType": "bytes",
          "name": "_extraData",
          "type": "bytes"
        }
      ],
      "name": "createDispute",
      "outputs": [],
      "stateMutability": "nonpayable",
      "type": "function"
    },
    {
      "inputs": [
        {
          "internalType": "uint256",
          "name": "_disputeID",
          "type": "uint256"
        }
      ],
      "name": "currentRuling",
      "outputs": [
        {
          "internalType": "uint256",
          "name": "ruling",
          "type": "uint256"
        }
      ],
      "stateMutability": "view",
      "type": "function"
    },
    {
      "inputs": [
        {
          "internalType": "uint256",
          "name": "",
          "type": "uint256"
        }
      ],
      "name": "disputes",
      "outputs": [
        {
          "internalType": "uint256",
          "name": "numberOfChoices",
          "type": "uint256"
        }
      ],
      "stateMutability": "view",
      "type": "function"
    },
    {
      "inputs": [
        {
          "internalType": "uint256",
          "name": "_disputeID",
          "type": "uint256"
        }
      ],
      "name": "draw",
      "outputs": [
        {
          "internalType": "address",
          "name": "drawnAddress",
          "type": "address"
        }
      ],
      "stateMutability": "nonpayable",
      "type": "function"
    },
    {
      "inputs": [
        {
          "internalType": "address",
          "name": "_destination",
          "type": "address"
        },
        {
          "internalType": "uint256",
          "name": "_amount",
          "type": "uint256"
        },
        {
          "internalType": "bytes",
          "name": "_data",
          "type": "bytes"
        }
      ],
      "name": "executeGovernorProposal",
      "outputs": [],
      "stateMutability": "nonpayable",
      "type": "function"
    },
    {
      "inputs": [
        {
          "internalType": "uint256",
          "name": "_disputeID",
          "type": "uint256"
        },
        {
          "internalType": "uint256",
          "name": "_choice",
          "type": "uint256"
        }
      ],
      "name": "fundAppeal",
      "outputs": [],
      "stateMutability": "payable",
      "type": "function"
    },
    {
      "inputs": [
        {
          "internalType": "uint256",
          "name": "_disputeID",
          "type": "uint256"
        },
        {
          "internalType": "uint256",
          "name": "_round",
          "type": "uint256"
        }
      ],
      "name": "getCoherentCount",
      "outputs": [
        {
          "internalType": "uint256",
          "name": "",
          "type": "uint256"
        }
      ],
      "stateMutability": "view",
      "type": "function"
    },
    {
      "inputs": [
        {
          "internalType": "uint256",
          "name": "_disputeID",
          "type": "uint256"
        },
        {
          "internalType": "uint256",
          "name": "_round",
          "type": "uint256"
        },
        {
          "internalType": "uint256",
          "name": "_voteID",
          "type": "uint256"
        }
      ],
      "name": "getDegreeOfCoherence",
      "outputs": [
        {
          "internalType": "uint256",
          "name": "",
          "type": "uint256"
        }
      ],
      "stateMutability": "view",
      "type": "function"
    },
    {
      "inputs": [
        {
          "internalType": "uint256",
          "name": "_disputeID",
          "type": "uint256"
        },
        {
          "internalType": "uint256",
          "name": "_round",
          "type": "uint256"
        },
        {
          "internalType": "uint256",
          "name": "_choice",
          "type": "uint256"
        }
      ],
      "name": "getRoundInfo",
      "outputs": [
        {
          "internalType": "uint256",
          "name": "winningChoice",
          "type": "uint256"
        },
        {
          "internalType": "bool",
          "name": "tied",
          "type": "bool"
        },
        {
          "internalType": "uint256",
          "name": "totalVoted",
          "type": "uint256"
        },
        {
          "internalType": "uint256",
          "name": "totalCommited",
          "type": "uint256"
        },
        {
          "internalType": "uint256",
          "name": "nbVoters",
          "type": "uint256"
        },
        {
          "internalType": "uint256",
          "name": "choiceCount",
          "type": "uint256"
        }
      ],
      "stateMutability": "view",
      "type": "function"
    },
    {
      "inputs": [
        {
          "internalType": "uint256",
          "name": "_disputeID",
          "type": "uint256"
        },
        {
          "internalType": "uint256",
          "name": "_round",
          "type": "uint256"
        },
        {
          "internalType": "uint256",
          "name": "_voteID",
          "type": "uint256"
        }
      ],
      "name": "getVoteInfo",
      "outputs": [
        {
          "internalType": "address",
          "name": "account",
          "type": "address"
        },
        {
          "internalType": "bytes32",
          "name": "commit",
          "type": "bytes32"
        },
        {
          "internalType": "uint256",
          "name": "choice",
          "type": "uint256"
        },
        {
          "internalType": "bool",
          "name": "voted",
          "type": "bool"
        }
      ],
      "stateMutability": "view",
      "type": "function"
    },
    {
      "inputs": [],
      "name": "governor",
      "outputs": [
        {
          "internalType": "address",
          "name": "",
          "type": "address"
        }
      ],
      "stateMutability": "view",
      "type": "function"
    },
    {
      "inputs": [
        {
          "internalType": "uint256",
          "name": "_disputeID",
          "type": "uint256"
        },
        {
          "internalType": "uint256",
          "name": "_round",
          "type": "uint256"
        },
        {
          "internalType": "uint256",
          "name": "_voteID",
          "type": "uint256"
        }
      ],
      "name": "isVoteActive",
      "outputs": [
        {
          "internalType": "bool",
          "name": "",
          "type": "bool"
        }
      ],
      "stateMutability": "view",
      "type": "function"
    },
    {
      "inputs": [],
      "name": "rng",
      "outputs": [
        {
          "internalType": "contract RNG",
          "name": "",
          "type": "address"
        }
      ],
      "stateMutability": "view",
      "type": "function"
    },
    {
      "inputs": [
        {
          "internalType": "uint256",
          "name": "_evidenceGroupID",
          "type": "uint256"
        },
        {
          "internalType": "string",
          "name": "_evidence",
          "type": "string"
        }
      ],
      "name": "submitEvidence",
      "outputs": [],
      "stateMutability": "nonpayable",
      "type": "function"
    },
    {
      "inputs": [
        {
          "internalType": "uint256",
          "name": "_disputeID",
          "type": "uint256"
        },
        {
          "internalType": "address payable",
          "name": "_beneficiary",
          "type": "address"
        },
        {
          "internalType": "uint256",
          "name": "_round",
          "type": "uint256"
        },
        {
          "internalType": "uint256",
          "name": "_choice",
          "type": "uint256"
        }
      ],
      "name": "withdrawFeesAndRewards",
      "outputs": [
        {
          "internalType": "uint256",
          "name": "amount",
          "type": "uint256"
        }
      ],
      "stateMutability": "nonpayable",
      "type": "function"
    }
  ],
  "transactionHash": "0x443a399fe9afd0e02929611b8eb447e8f8a03ac6758cfb2b69adf6a619035340",
  "args": [
    "0xF50E77f2A2B6138D16c6c7511562E5C33c4B15A3",
    "0x0000000000000000000000000000000000000000",
    "0x4401A368dea8D5761AEEFfd3c4a674086dea0666"
  ],
  "numDeployments": 1,
  "solcInputHash": "0a1ec2a631b00a23a4a92b2eaceb36a5",
  "bytecode": "0x60806040523480156200001157600080fd5b5060405162002c9738038062002c97833981016040819052620000349162000090565b600080546001600160a01b039485166001600160a01b031991821617909155600180549385169382169390931790925560028054919093169116179055620000e4565b6001600160a01b03811681146200008d57600080fd5b50565b600080600060608486031215620000a657600080fd5b8351620000b38162000077565b6020850151909350620000c68162000077565b6040850151909250620000d98162000077565b809150509250925092565b612ba380620000f46000396000f3fe6080604052600436106101815760003560e01c80638d31de6d116100d1578063be4676041161008a578063da3beb8c11610064578063da3beb8c146104be578063e349ad3014610360578063e4c0aaf4146104de578063f2f4eb26146104fe57600080fd5b8063be46760414610468578063c41bda611461047e578063d605787b1461049e57600080fd5b80638d31de6d146103765780638e42646014610396578063a6a7f0eb146103b6578063a7cc08fe146103d6578063b34bfaa814610422578063ba66fde71461043857600080fd5b80634b2f0ea01161013e5780635c92e2f6116101185780635c92e2f6146102d357806369f3f041146102f3578063751accd014610340578063796490f91461036057600080fd5b80634b2f0ea0146102805780634fe264fb14610293578063564a565d146102b357600080fd5b80630c340a24146101865780631200aabc146101c35780631c3db16d146101fe578063362c34791461021e5780633850f8041461023e5780633b30414714610260575b600080fd5b34801561019257600080fd5b506000546101a6906001600160a01b031681565b6040516001600160a01b0390911681526020015b60405180910390f35b3480156101cf57600080fd5b506101f06101de366004612478565b60046020526000908152604090205481565b6040519081526020016101ba565b34801561020a57600080fd5b506101f0610219366004612478565b61051e565b34801561022a57600080fd5b506101f06102393660046124a9565b6105a8565b34801561024a57600080fd5b5061025e610259366004612532565b610957565b005b34801561026c57600080fd5b506101a661027b366004612478565b611000565b61025e61028e366004612590565b61135c565b34801561029f57600080fd5b506101f06102ae3660046125b2565b611963565b3480156102bf57600080fd5b506101f06102ce366004612478565b611a5f565b3480156102df57600080fd5b5061025e6102ee3660046125de565b611a88565b3480156102ff57600080fd5b5061031361030e3660046125b2565b611e0c565b604080519687529415156020870152938501929092526060840152608083015260a082015260c0016101ba565b34801561034c57600080fd5b5061025e61035b366004612678565b611eb7565b34801561036c57600080fd5b506101f061271081565b34801561038257600080fd5b5061025e61039136600461276b565b611f89565b3480156103a257600080fd5b5061025e6103b13660046127be565b612045565b3480156103c257600080fd5b5061025e6103d13660046127db565b612091565b3480156103e257600080fd5b506103f66103f13660046125b2565b6120e3565b604080516001600160a01b039095168552602085019390935291830152151560608201526080016101ba565b34801561042e57600080fd5b506101f0614e2081565b34801561044457600080fd5b506104586104533660046125b2565b61219c565b60405190151581526020016101ba565b34801561047457600080fd5b506101f061138881565b34801561048a57600080fd5b5061025e6104993660046127be565b61222a565b3480156104aa57600080fd5b506002546101a6906001600160a01b031681565b3480156104ca57600080fd5b506101f06104d9366004612590565b612276565b3480156104ea57600080fd5b5061025e6104f93660046127be565b61238d565b34801561050a57600080fd5b506001546101a6906001600160a01b031681565b60008181526004602052604081205460038054839290811061054257610542612827565b6000918252602082206002909102018054909250829061056490600190612853565b8154811061057457610574612827565b60009182526020909120600b90910201600381015490915060ff1661059d5780600101546105a0565b60005b949350505050565b6001546040516325bfe6d160e11b8152600481018690526000916001600160a01b031690634b7fcda290602401602060405180830381865afa1580156105f2573d6000803e3d6000fd5b505050506040513d601f19601f82011682018060405250810190610616919061286a565b6106675760405162461bcd60e51b815260206004820152601b60248201527f446973707574652073686f756c64206265207265736f6c7665642e000000000060448201526064015b60405180910390fd5b60008581526004602052604081205460038054909190811061068b5761068b612827565b9060005260206000209060020201905060008160000185815481106106b2576106b2612827565b600091825260208220604051631c3db16d60e01b8152600481018b9052600b929092020192503090631c3db16d90602401602060405180830381865afa158015610700573d6000803e3d6000fd5b505050506040513d601f19601f82011682018060405250810190610724919061288c565b600086815260078401602052604090205490915060ff1661076c576001600160a01b0387166000908152600883016020908152604080832088845290915290205493506108b2565b808514156107e25760008581526006830160205260409020546107905760006107db565b600085815260068301602090815260408083205460098601546001600160a01b038c1685526008870184528285208a86529093529220546107d191906128a5565b6107db91906128da565b93506108b2565b600081815260078301602052604090205460ff166108b25781600601600083600a0160018154811061081657610816612827565b906000526020600020015481526020019081526020016000205482600601600084600a0160008154811061084c5761084c612827565b906000526020600020015481526020019081526020016000205461087091906128ee565b60098301546001600160a01b038916600090815260088501602090815260408083208a84529091529020546108a591906128a5565b6108af91906128da565b93505b6001600160a01b03871660009081526008830160209081526040808320888452909152812055831561094c576040516001600160a01b0388169085156108fc029086906000818181858888f1505060408051898152602081018990526001600160a01b038c1694508a93508c92507f54b3cab3cb5c4aca3209db1151caff092e878011202e43a36782d4ebe0b963ae910160405180910390a45b505050949350505050565b60015460405163022684db60e41b8152600481018790526002916001600160a01b0316906322684db090602401602060405180830381865afa1580156109a1573d6000803e3d6000fd5b505050506040513d601f19601f820116820180604052508101906109c5919061291c565b60048111156109d6576109d6612906565b14610a315760405162461bcd60e51b815260206004820152602560248201527f54686520646973707574652073686f756c6420626520696e20566f74652070656044820152643934b7b21760d91b606482015260840161065e565b82610a735760405162461bcd60e51b8152602060048201526012602482015271139bc81d9bdd195251081c1c9bdd9a59195960721b604482015260640161065e565b600085815260046020526040812054600380549091908110610a9757610a97612827565b906000526020600020906002020190508060010154831115610af25760405162461bcd60e51b815260206004820152601460248201527343686f696365206f7574206f6620626f756e647360601b604482015260640161065e565b80546000908290610b0590600190612853565b81548110610b1557610b15612827565b600091825260208220600154604051637b5377bd60e11b8152600481018c9052600b9390930290910193506001600160a01b03169063d578cbac90829063f6a6ef7a90602401602060405180830381865afa158015610b78573d6000803e3d6000fd5b505050506040513d601f19601f82011682018060405250810190610b9c919061288c565b6040518263ffffffff1660e01b8152600401610bba91815260200190565b602060405180830381865afa158015610bd7573d6000803e3d6000fd5b505050506040513d601f19601f82011682018060405250810190610bfb919061286a565b905060005b86811015610ea3573383898984818110610c1c57610c1c612827565b9050602002013581548110610c3357610c33612827565b60009182526020909120600490910201546001600160a01b031614610c9a5760405162461bcd60e51b815260206004820152601f60248201527f5468652063616c6c65722068617320746f206f776e2074686520766f74652e00604482015260640161065e565b811580610d0d575060408051602081018890529081018690526060016040516020818303038152906040528051906020012083600001898984818110610ce257610ce2612827565b9050602002013581548110610cf957610cf9612827565b906000526020600020906004020160010154145b610d81576040805162461bcd60e51b81526020600482015260248101919091527f54686520636f6d6d6974206d757374206d61746368207468652063686f69636560448201527f20696e20737562636f7572747320776974682068696464656e20766f7465732e606482015260840161065e565b82888883818110610d9457610d94612827565b9050602002013581548110610dab57610dab612827565b600091825260209091206003600490920201015460ff1615610e045760405162461bcd60e51b81526020600482015260126024820152712b37ba329030b63932b0b23c9031b0b9ba1760711b604482015260640161065e565b8583898984818110610e1857610e18612827565b9050602002013581548110610e2f57610e2f612827565b6000918252602090912060026004909202010155600183898984818110610e5857610e58612827565b9050602002013581548110610e6f57610e6f612827565b60009182526020909120600490910201600301805460ff191691151591909117905580610e9b8161293d565b915050610c00565b5086869050826004016000828254610ebb91906128ee565b9091555050600085815260028301602052604081208054889290610ee09084906128ee565b90915550506001820154851415610f1057600382015460ff1615610f0b5760038201805460ff191690555b610f8a565b60018201546000908152600283016020526040808220548783529120541415610f5357600382015460ff16610f0b5760038201805460ff19166001179055610f8a565b60018201546000908152600283016020526040808220548783529120541115610f8a576001820185905560038201805460ff191690555b815460048301541415610ff6576001546040516308aea9bb60e11b8152600481018a90526001600160a01b039091169063115d537690602401600060405180830381600087803b158015610fdd57600080fd5b505af1158015610ff1573d6000803e3d6000fd5b505050505b5050505050505050565b6001546000906001600160a01b0316331461102d5760405162461bcd60e51b815260040161065e90612958565b600154604051637b5377bd60e11b8152600481018490526000916001600160a01b03169063f6a6ef7a90602401602060405180830381865afa158015611077573d6000803e3d6000fd5b505050506040513d601f19601f8201168201806040525081019061109b919061288c565b905060006110a76123d9565b600154604051630696a8a760e51b81526004810185905291925060009182916001600160a01b03169063d2d514e090602401600060405180830381865afa1580156110f6573d6000803e3d6000fd5b505050506040513d6000823e601f3d908101601f1916820160405261111e9190810190612a1c565b92505091506000808260008151811061113957611139612827565b60200260200101518561114c9190612a89565b600089815260046020526040812054600380549394509192811061117257611172612827565b6000918252602082206002909102018054909250829061119490600190612853565b815481106111a4576111a4612827565b90600052602060002090600b020190505b84516111c185886128a5565b6111cc9060016128ee565b101561124e5760015b868111611248576000816111e9878a6128a5565b6111f391906128ee565b9050600087828151811061120957611209612827565b6020026020010151905080861061122b576112248187612853565b9550611233565b509450611248565b505080806112409061293d565b9150506111d5565b506111b5565b60015460405163de1a1e5960e01b8152600481018a9052602481018690526000916001600160a01b03169063de1a1e5990604401602060405180830381865afa15801561129f573d6000803e3d6000fd5b505050506040513d601f19601f820116820180604052508101906112c3919061288c565b90506112ce8161244d565b604080516080810182526001600160a01b0383811682526000602080840182815294840182815260608501838152895460018082018c559a8552929093209451600490920290940180546001600160a01b03191691909316178255925195810195909555516002850155516003909301805460ff191693151593909317909255509998505050505050505050565b60008281526004602052604081205460038054909190811061138057611380612827565b9060005260206000209060020201905080600101548211156113e45760405162461bcd60e51b815260206004820181905260248201527f5468657265206973206e6f20737563682072756c696e6720746f2066756e642e604482015260640161065e565b60015460405163afe15cfb60e01b81526004810185905260009182916001600160a01b039091169063afe15cfb906024016040805180830381865afa158015611431573d6000803e3d6000fd5b505050506040513d601f19601f820116820180604052508101906114559190612a9d565b9150915081421015801561146857508042105b6114ad5760405162461bcd60e51b815260206004820152601660248201527520b83832b0b6103832b934b7b21034b99037bb32b91760511b604482015260640161065e565b604051631c3db16d60e01b81526004810186905260009085903090631c3db16d90602401602060405180830381865afa1580156114ee573d6000803e3d6000fd5b505050506040513d601f19601f82011682018060405250810190611512919061288c565b141561152157506127106115a1565b6127106113886115318585612853565b61153b91906128a5565b61154591906128da565b61154f8442612853565b1061159c5760405162461bcd60e51b815260206004820152601f60248201527f41707065616c20706572696f64206973206f76657220666f72206c6f73657200604482015260640161065e565b50614e205b835460009085906115b490600190612853565b815481106115c4576115c4612827565b600091825260208083208984526007600b90930201918201905260409091205490915060ff16156116375760405162461bcd60e51b815260206004820152601b60248201527f41707065616c2066656520697320616c726561647920706169642e0000000000604482015260640161065e565b600154604051632cf6413f60e11b8152600481018990526000916001600160a01b0316906359ec827e90602401602060405180830381865afa158015611681573d6000803e3d6000fd5b505050506040513d601f19601f820116820180604052508101906116a5919061288c565b905060006127106116b685846128a5565b6116c091906128da565b6116ca90836128ee565b60008981526006850160205260408120549192509082111561177957600089815260068501602052604090205434906117039084612853565b116117285760008981526006850160205260409020546117239083612853565b61172a565b345b8854909150339061173d90600190612853565b604080518c8152602081018590528d917fcae597f39a3ad75c2e10d46b031f023c5c2babcd58ca0491b122acda3968d4c0910160405180910390a45b33600090815260088501602090815260408083208c8452909152812080548392906117a59084906128ee565b90915550506000898152600685016020526040812080548392906117ca9084906128ee565b9091555050600089815260068501602052604090205482116118805760008981526006850160205260408120546009860180549192909161180c9084906128ee565b9091555050600a8401805460018181018355600092835260208084209092018c90558b8352600787019091526040909120805460ff19168217905588548a9161185491612853565b6040518c907fed764996238e4c1c873ae3af7ae2f00f1f6f4f10b9ac7d4bbea4a764c5dea00990600090a45b600a840154600110156119295782846009015461189d9190612853565b6009850155875460018082018a5560008a8152602090206003600b90930201918201805460ff191682179055546040516307e69b7b60e41b8152600481018d90526001600160a01b0390911690637e69b7b09086906024016000604051808303818588803b15801561190e57600080fd5b505af1158015611922573d6000803e3d6000fd5b5050505050505b8034111561195757336108fc61193f8334612853565b6040518115909202916000818181858888f150505050505b50505050505050505050565b60008381526004602052604081205460038054839290811061198757611987612827565b600091825260208220600290910201805490925082906119a990600190612853565b815481106119b9576119b9612827565b90600052602060002090600b0201905060008260000186815481106119e0576119e0612827565b90600052602060002090600b02016000018581548110611a0257611a02612827565b60009182526020909120600490910201600381015490915060ff168015611a3e5750816001015481600201541480611a3e5750600382015460ff165b15611a50576127109350505050611a58565b600093505050505b9392505050565b60038181548110611a6f57600080fd5b6000918252602090912060016002909202010154905081565b6001805460405163022684db60e41b8152600481018790526001600160a01b03909116906322684db090602401602060405180830381865afa158015611ad2573d6000803e3d6000fd5b505050506040513d601f19601f82011682018060405250810190611af6919061291c565b6004811115611b0757611b07612906565b14611b645760405162461bcd60e51b815260206004820152602760248201527f54686520646973707574652073686f756c6420626520696e20436f6d6d6974206044820152663832b934b7b21760c91b606482015260840161065e565b80611ba15760405162461bcd60e51b815260206004820152600d60248201526c22b6b83a3c9031b7b6b6b4ba1760991b604482015260640161065e565b600084815260046020526040812054600380549091908110611bc557611bc5612827565b60009182526020822060029091020180549092508290611be790600190612853565b81548110611bf757611bf7612827565b90600052602060002090600b0201905060005b84811015611d80573382878784818110611c2657611c26612827565b9050602002013581548110611c3d57611c3d612827565b60009182526020909120600490910201546001600160a01b031614611ca45760405162461bcd60e51b815260206004820152601f60248201527f5468652063616c6c65722068617320746f206f776e2074686520766f74652e00604482015260640161065e565b600082878784818110611cb957611cb9612827565b9050602002013581548110611cd057611cd0612827565b90600052602060002090600402016001015414611d2f5760405162461bcd60e51b815260206004820152601c60248201527f416c726561647920636f6d6d6974746564207468697320766f74652e00000000604482015260640161065e565b8382878784818110611d4357611d43612827565b9050602002013581548110611d5a57611d5a612827565b600091825260209091206001600490920201015580611d788161293d565b915050611c0a565b5084849050816005016000828254611d9891906128ee565b9091555050805460058201541415611e04576001546040516308aea9bb60e11b8152600481018890526001600160a01b039091169063115d537690602401600060405180830381600087803b158015611df057600080fd5b505af1158015611957573d6000803e3d6000fd5b505050505050565b60008060008060008060006003600460008c81526020019081526020016000205481548110611e3d57611e3d612827565b906000526020600020906002020190506000816000018a81548110611e6457611e64612827565b600091825260208083206001600b909302019182015460038301546004840154600585015485549f87526002909501909352604090942054909f60ff9094169e50909c50909a9950975095505050505050565b6000546001600160a01b03163314611ee15760405162461bcd60e51b815260040161065e90612ac1565b6000836001600160a01b03168383604051611efc9190612b03565b60006040518083038185875af1925050503d8060008114611f39576040519150601f19603f3d011682016040523d82523d6000602084013e611f3e565b606091505b5050905080611f835760405162461bcd60e51b8152602060048201526011602482015270155b9cdd58d8d95cdcd99d5b0818d85b1b607a1b604482015260640161065e565b50505050565b6001546001600160a01b03163314611fb35760405162461bcd60e51b815260040161065e90612958565b50506003805460018082018355600282027fc2575a0e9e593c00f959f8c92f12db2869c3395a3b0502d05e2516446f71f85c8101949094557fc2575a0e9e593c00f959f8c92f12db2869c3395a3b0502d05e2516446f71f85b9093018054808501825560009182526020808320600b909202909101909301805460ff1916909417909355928252600490526040902055565b6000546001600160a01b0316331461206f5760405162461bcd60e51b815260040161065e90612ac1565b600180546001600160a01b0319166001600160a01b0392909216919091179055565b600154604051339185916001600160a01b03909116907fdccf2f8b2cc26eafcd61905cba744cff4b81d14740725f6376390dc6298a6a3c906120d69087908790612b3e565b60405180910390a4505050565b60008060008060006003600460008a8152602001908152602001600020548154811061211157612111612827565b90600052602060002090600202019050600081600001888154811061213857612138612827565b90600052602060002090600b0201600001878154811061215a5761215a612827565b600091825260209091206004909102018054600182015460028301546003909301546001600160a01b039092169c909b5091995060ff16975095505050505050565b6000838152600460205260408120546003805483929081106121c0576121c0612827565b9060005260206000209060020201905060008160000185815481106121e7576121e7612827565b90600052602060002090600b0201600001848154811061220957612209612827565b600091825260209091206004909102016003015460ff169695505050505050565b6000546001600160a01b031633146122545760405162461bcd60e51b815260040161065e90612ac1565b600280546001600160a01b0319166001600160a01b0392909216919091179055565b60008281526004602052604081205460038054839290811061229a5761229a612827565b600091825260208220600290910201805490925082906122bc90600190612853565b815481106122cc576122cc612827565b90600052602060002090600b0201905060008260000185815481106122f3576122f3612827565b90600052602060002090600b0201905060008260010154905081600401546000148061233d5750600383015460ff1615801561233d57506000818152600283016020526040902054155b1561234f576000945050505050612387565b600383015460ff161561236b5750600401549250612387915050565b6000908152600290910160205260409020549250612387915050565b92915050565b6000546001600160a01b031633146123b75760405162461bcd60e51b815260040161065e90612ac1565b600080546001600160a01b0319166001600160a01b0392909216919091179055565b600254604051630e39b00f60e11b81524360048201526000916001600160a01b031690631c73601e906024016020604051808303816000875af1158015612424573d6000803e3d6000fd5b505050506040513d601f19601f82011682018060405250810190612448919061288c565b905090565b600060405160005b60148110156124705783811a81600c84010153600101612455565b505192915050565b60006020828403121561248a57600080fd5b5035919050565b6001600160a01b03811681146124a657600080fd5b50565b600080600080608085870312156124bf57600080fd5b8435935060208501356124d181612491565b93969395505050506040820135916060013590565b60008083601f8401126124f857600080fd5b50813567ffffffffffffffff81111561251057600080fd5b6020830191508360208260051b850101111561252b57600080fd5b9250929050565b60008060008060006080868803121561254a57600080fd5b85359450602086013567ffffffffffffffff81111561256857600080fd5b612574888289016124e6565b9699909850959660408101359660609091013595509350505050565b600080604083850312156125a357600080fd5b50508035926020909101359150565b6000806000606084860312156125c757600080fd5b505081359360208301359350604090920135919050565b600080600080606085870312156125f457600080fd5b84359350602085013567ffffffffffffffff81111561261257600080fd5b61261e878288016124e6565b9598909750949560400135949350505050565b634e487b7160e01b600052604160045260246000fd5b604051601f8201601f1916810167ffffffffffffffff8111828210171561267057612670612631565b604052919050565b60008060006060848603121561268d57600080fd5b833561269881612491565b92506020848101359250604085013567ffffffffffffffff808211156126bd57600080fd5b818701915087601f8301126126d157600080fd5b8135818111156126e3576126e3612631565b6126f5601f8201601f19168501612647565b9150808252888482850101111561270b57600080fd5b80848401858401376000848284010152508093505050509250925092565b60008083601f84011261273b57600080fd5b50813567ffffffffffffffff81111561275357600080fd5b60208301915083602082850101111561252b57600080fd5b6000806000806060858703121561278157600080fd5b8435935060208501359250604085013567ffffffffffffffff8111156127a657600080fd5b6127b287828801612729565b95989497509550505050565b6000602082840312156127d057600080fd5b8135611a5881612491565b6000806000604084860312156127f057600080fd5b83359250602084013567ffffffffffffffff81111561280e57600080fd5b61281a86828701612729565b9497909650939450505050565b634e487b7160e01b600052603260045260246000fd5b634e487b7160e01b600052601160045260246000fd5b6000828210156128655761286561283d565b500390565b60006020828403121561287c57600080fd5b81518015158114611a5857600080fd5b60006020828403121561289e57600080fd5b5051919050565b60008160001904831182151516156128bf576128bf61283d565b500290565b634e487b7160e01b600052601260045260246000fd5b6000826128e9576128e96128c4565b500490565b600082198211156129015761290161283d565b500190565b634e487b7160e01b600052602160045260246000fd5b60006020828403121561292e57600080fd5b815160058110611a5857600080fd5b60006000198214156129515761295161283d565b5060010190565b60208082526024908201527f416363657373206e6f7420616c6c6f7765643a204b6c65726f73436f7265206f60408201526337363c9760e11b606082015260800190565b600082601f8301126129ad57600080fd5b8151602067ffffffffffffffff8211156129c9576129c9612631565b8160051b6129d8828201612647565b92835284810182019282810190878511156129f257600080fd5b83870192505b84831015612a11578251825291830191908301906129f8565b979650505050505050565b600080600060608486031215612a3157600080fd5b83519250602084015167ffffffffffffffff80821115612a5057600080fd5b612a5c8783880161299c565b93506040860151915080821115612a7257600080fd5b50612a7f8682870161299c565b9150509250925092565b600082612a9857612a986128c4565b500690565b60008060408385031215612ab057600080fd5b505080516020909101519092909150565b60208082526022908201527f416363657373206e6f7420616c6c6f7765643a20476f7665726e6f72206f6e6c6040820152613c9760f11b606082015260800190565b6000825160005b81811015612b245760208186018101518583015201612b0a565b81811115612b33576000828501525b509190910192915050565b60208152816020820152818360408301376000818301604090810191909152601f909201601f1916010191905056fea26469706673582212207551bf29f13c51981e72c747ae1295cb56e3b16976c137c5d15a933b3f5913c764736f6c634300080a0033",
  "devdoc": {
    "kind": "dev",
    "methods": {
      "castCommit(uint256,uint256[],bytes32)": {
        "details": "Sets the caller's commit for the specified votes.  `O(n)` where  `n` is the number of votes.",
        "params": {
          "_commit": "The commit.",
          "_disputeID": "The ID of the dispute.",
          "_voteIDs": "The IDs of the votes."
        }
      },
      "castVote(uint256,uint256[],uint256,uint256)": {
        "details": "Sets the caller's choices for the specified votes.  `O(n)` where  `n` is the number of votes.",
        "params": {
          "_choice": "The choice.",
          "_disputeID": "The ID of the dispute.",
          "_salt": "The salt for the commit if the votes were hidden.",
          "_voteIDs": "The IDs of the votes."
        }
      },
      "changeCore(address)": {
        "details": "Changes the `core` storage variable.",
        "params": {
          "_core": "The new value for the `core` storage variable."
        }
      },
      "changeGovernor(address)": {
        "details": "Changes the `governor` storage variable.",
        "params": {
          "_governor": "The new value for the `governor` storage variable."
        }
      },
      "changeRandomNumberGenerator(address)": {
        "details": "Changes the `_rng` storage variable.",
        "params": {
          "_rng": "The new value for the `RNGenerator` storage variable."
        }
      },
      "constructor": {
        "details": "Constructor.",
        "params": {
          "_core": "The KlerosCore arbitrator.",
          "_governor": "The governor's address.",
          "_rng": "The random number generator."
        }
      },
      "createDispute(uint256,uint256,bytes)": {
        "details": "Creates a local dispute and maps it to the dispute ID in the Core contract.  Note: Access restricted to Kleros Core only.",
        "params": {
          "_disputeID": "The ID of the dispute in Kleros Core.",
          "_extraData": "Additional info about the dispute, for possible use in future dispute kits.",
          "_numberOfChoices": "Number of choices of the dispute"
        }
      },
      "currentRuling(uint256)": {
        "details": "Gets the current ruling of a specified dispute.",
        "params": {
          "_disputeID": "The ID of the dispute in Kleros Core."
        },
        "returns": {
          "ruling": "The current ruling."
        }
      },
      "draw(uint256)": {
        "details": "Draws the juror from the sortition tree. The drawn address is picked up by Kleros Core.  Note: Access restricted to Kleros Core only.",
        "params": {
          "_disputeID": "The ID of the dispute in Kleros Core."
        },
        "returns": {
          "drawnAddress": "The drawn address."
        }
      },
      "executeGovernorProposal(address,uint256,bytes)": {
        "details": "Allows the governor to call anything on behalf of the contract.",
        "params": {
          "_amount": "The value sent with the call.",
          "_data": "The data sent with the call.",
          "_destination": "The destination of the call."
        }
      },
      "fundAppeal(uint256,uint256)": {
        "details": "Manages contributions, and appeals a dispute if at least two choices are fully funded.  Note that the surplus deposit will be reimbursed.",
        "params": {
          "_choice": "A choice that receives funding.",
          "_disputeID": "Index of the dispute in Kleros Core contract."
        }
      },
      "getCoherentCount(uint256,uint256)": {
        "details": "Gets the number of jurors who are eligible to a reward in this round.",
        "params": {
          "_disputeID": "The ID of the dispute in Kleros Core.",
          "_round": "The ID of the round."
        },
        "returns": {
          "_0": "The number of coherent jurors."
        }
      },
      "getDegreeOfCoherence(uint256,uint256,uint256)": {
        "details": "Gets the degree of coherence of a particular voter. This function is called by Kleros Core in order to determine the amount of the reward.",
        "params": {
          "_disputeID": "The ID of the dispute in Kleros Core.",
          "_round": "The ID of the round.",
          "_voteID": "The ID of the vote."
        },
        "returns": {
          "_0": "The degree of coherence in basis points."
        }
      },
      "isVoteActive(uint256,uint256,uint256)": {
        "details": "Returns true if the specified voter was active in this round.",
        "params": {
          "_disputeID": "The ID of the dispute in Kleros Core.",
          "_round": "The ID of the round.",
          "_voteID": "The ID of the voter."
        },
        "returns": {
          "_0": "Whether the voter was active or not."
        }
      },
      "submitEvidence(uint256,string)": {
        "details": "Submits evidence.",
        "params": {
          "_evidence": "IPFS path to evidence, example: '/ipfs/Qmarwkf7C9RuzDEJNnarT3WZ7kem5bk8DZAzx78acJjMFH/evidence.json'.",
          "_evidenceGroupID": "Unique identifier of the evidence group the evidence belongs to. It's the submitter responsability to submit the right evidence group ID."
        }
      },
      "withdrawFeesAndRewards(uint256,address,uint256,uint256)": {
        "details": "Allows those contributors who attempted to fund an appeal round to withdraw any reimbursable fees or rewards after the dispute gets resolved.",
        "params": {
          "_beneficiary": "The address whose rewards to withdraw.",
          "_choice": "The ruling option that the caller wants to withdraw from.",
          "_disputeID": "Index of the dispute in Kleros Core contract.",
          "_round": "The round the caller wants to withdraw from."
        },
        "returns": {
          "amount": "The withdrawn amount."
        }
      }
    },
    "title": "DisputeKitClassic  Dispute kit implementation of the Kleros v1 features including:  - a drawing system: proportional to staked PNK,  - a vote aggreation system: plurality,  - an incentive system: equal split between coherent votes,  - an appeal system: fund 2 choices only, vote on any choice.  TODO:  - phase management: Generating->Drawing->Resolving->Generating in coordination with KlerosCore to freeze staking.",
    "version": 1
  },
  "userdoc": {
    "kind": "user",
    "methods": {},
    "version": 1
  },
  "storageLayout": {
    "storage": [
      {
        "astId": 4674,
        "contract": "src/arbitration/dispute-kits/DisputeKitClassic.sol:DisputeKitClassic",
        "label": "governor",
        "offset": 0,
        "slot": "0",
        "type": "t_address"
      },
      {
        "astId": 4677,
        "contract": "src/arbitration/dispute-kits/DisputeKitClassic.sol:DisputeKitClassic",
        "label": "core",
        "offset": 0,
        "slot": "1",
        "type": "t_contract(KlerosCore)4651"
      },
      {
        "astId": 4827,
        "contract": "src/arbitration/dispute-kits/DisputeKitClassic.sol:DisputeKitClassic",
        "label": "rng",
        "offset": 0,
        "slot": "2",
        "type": "t_contract(RNG)12375"
      },
      {
        "astId": 4831,
        "contract": "src/arbitration/dispute-kits/DisputeKitClassic.sol:DisputeKitClassic",
        "label": "disputes",
        "offset": 0,
        "slot": "3",
        "type": "t_array(t_struct(Dispute)4767_storage)dyn_storage"
      },
      {
        "astId": 4835,
        "contract": "src/arbitration/dispute-kits/DisputeKitClassic.sol:DisputeKitClassic",
        "label": "coreDisputeIDToLocal",
        "offset": 0,
        "slot": "4",
        "type": "t_mapping(t_uint256,t_uint256)"
      }
    ],
    "types": {
      "t_address": {
        "encoding": "inplace",
        "label": "address",
        "numberOfBytes": "20"
      },
      "t_array(t_struct(Dispute)4767_storage)dyn_storage": {
        "base": "t_struct(Dispute)4767_storage",
        "encoding": "dynamic_array",
        "label": "struct DisputeKitClassic.Dispute[]",
        "numberOfBytes": "32"
      },
      "t_array(t_struct(Round)4803_storage)dyn_storage": {
        "base": "t_struct(Round)4803_storage",
        "encoding": "dynamic_array",
        "label": "struct DisputeKitClassic.Round[]",
        "numberOfBytes": "32"
      },
      "t_array(t_struct(Vote)4812_storage)dyn_storage": {
        "base": "t_struct(Vote)4812_storage",
        "encoding": "dynamic_array",
        "label": "struct DisputeKitClassic.Vote[]",
        "numberOfBytes": "32"
      },
      "t_array(t_uint256)dyn_storage": {
        "base": "t_uint256",
        "encoding": "dynamic_array",
        "label": "uint256[]",
        "numberOfBytes": "32"
      },
      "t_bool": {
        "encoding": "inplace",
        "label": "bool",
        "numberOfBytes": "1"
      },
      "t_bytes32": {
        "encoding": "inplace",
        "label": "bytes32",
        "numberOfBytes": "32"
      },
      "t_contract(KlerosCore)4651": {
        "encoding": "inplace",
        "label": "contract KlerosCore",
        "numberOfBytes": "20"
      },
      "t_contract(RNG)12375": {
        "encoding": "inplace",
        "label": "contract RNG",
        "numberOfBytes": "20"
      },
      "t_mapping(t_address,t_mapping(t_uint256,t_uint256))": {
        "encoding": "mapping",
        "key": "t_address",
        "label": "mapping(address => mapping(uint256 => uint256))",
        "numberOfBytes": "32",
        "value": "t_mapping(t_uint256,t_uint256)"
      },
      "t_mapping(t_uint256,t_bool)": {
        "encoding": "mapping",
        "key": "t_uint256",
        "label": "mapping(uint256 => bool)",
        "numberOfBytes": "32",
        "value": "t_bool"
      },
      "t_mapping(t_uint256,t_uint256)": {
        "encoding": "mapping",
        "key": "t_uint256",
        "label": "mapping(uint256 => uint256)",
        "numberOfBytes": "32",
        "value": "t_uint256"
      },
      "t_struct(Dispute)4767_storage": {
        "encoding": "inplace",
        "label": "struct DisputeKitClassic.Dispute",
        "members": [
          {
            "astId": 4764,
            "contract": "src/arbitration/dispute-kits/DisputeKitClassic.sol:DisputeKitClassic",
            "label": "rounds",
            "offset": 0,
            "slot": "0",
            "type": "t_array(t_struct(Round)4803_storage)dyn_storage"
          },
          {
            "astId": 4766,
            "contract": "src/arbitration/dispute-kits/DisputeKitClassic.sol:DisputeKitClassic",
            "label": "numberOfChoices",
            "offset": 0,
            "slot": "1",
            "type": "t_uint256"
          }
        ],
        "numberOfBytes": "64"
      },
      "t_struct(Round)4803_storage": {
        "encoding": "inplace",
        "label": "struct DisputeKitClassic.Round",
        "members": [
          {
            "astId": 4771,
            "contract": "src/arbitration/dispute-kits/DisputeKitClassic.sol:DisputeKitClassic",
            "label": "votes",
            "offset": 0,
            "slot": "0",
            "type": "t_array(t_struct(Vote)4812_storage)dyn_storage"
          },
          {
            "astId": 4773,
            "contract": "src/arbitration/dispute-kits/DisputeKitClassic.sol:DisputeKitClassic",
            "label": "winningChoice",
            "offset": 0,
            "slot": "1",
            "type": "t_uint256"
          },
          {
            "astId": 4777,
            "contract": "src/arbitration/dispute-kits/DisputeKitClassic.sol:DisputeKitClassic",
            "label": "counts",
            "offset": 0,
            "slot": "2",
            "type": "t_mapping(t_uint256,t_uint256)"
          },
          {
            "astId": 4779,
            "contract": "src/arbitration/dispute-kits/DisputeKitClassic.sol:DisputeKitClassic",
            "label": "tied",
            "offset": 0,
            "slot": "3",
            "type": "t_bool"
          },
          {
            "astId": 4781,
            "contract": "src/arbitration/dispute-kits/DisputeKitClassic.sol:DisputeKitClassic",
            "label": "totalVoted",
            "offset": 0,
            "slot": "4",
            "type": "t_uint256"
          },
          {
            "astId": 4783,
            "contract": "src/arbitration/dispute-kits/DisputeKitClassic.sol:DisputeKitClassic",
            "label": "totalCommitted",
            "offset": 0,
            "slot": "5",
            "type": "t_uint256"
          },
          {
            "astId": 4787,
            "contract": "src/arbitration/dispute-kits/DisputeKitClassic.sol:DisputeKitClassic",
            "label": "paidFees",
            "offset": 0,
            "slot": "6",
            "type": "t_mapping(t_uint256,t_uint256)"
          },
          {
            "astId": 4791,
            "contract": "src/arbitration/dispute-kits/DisputeKitClassic.sol:DisputeKitClassic",
            "label": "hasPaid",
            "offset": 0,
            "slot": "7",
            "type": "t_mapping(t_uint256,t_bool)"
          },
          {
            "astId": 4797,
            "contract": "src/arbitration/dispute-kits/DisputeKitClassic.sol:DisputeKitClassic",
            "label": "contributions",
            "offset": 0,
            "slot": "8",
            "type": "t_mapping(t_address,t_mapping(t_uint256,t_uint256))"
          },
          {
            "astId": 4799,
            "contract": "src/arbitration/dispute-kits/DisputeKitClassic.sol:DisputeKitClassic",
            "label": "feeRewards",
            "offset": 0,
            "slot": "9",
            "type": "t_uint256"
          },
          {
            "astId": 4802,
            "contract": "src/arbitration/dispute-kits/DisputeKitClassic.sol:DisputeKitClassic",
            "label": "fundedChoices",
            "offset": 0,
            "slot": "10",
            "type": "t_array(t_uint256)dyn_storage"
          }
        ],
        "numberOfBytes": "352"
      },
      "t_struct(Vote)4812_storage": {
        "encoding": "inplace",
        "label": "struct DisputeKitClassic.Vote",
        "members": [
          {
            "astId": 4805,
            "contract": "src/arbitration/dispute-kits/DisputeKitClassic.sol:DisputeKitClassic",
            "label": "account",
            "offset": 0,
            "slot": "0",
            "type": "t_address"
          },
          {
            "astId": 4807,
            "contract": "src/arbitration/dispute-kits/DisputeKitClassic.sol:DisputeKitClassic",
            "label": "commit",
            "offset": 0,
            "slot": "1",
            "type": "t_bytes32"
          },
          {
            "astId": 4809,
            "contract": "src/arbitration/dispute-kits/DisputeKitClassic.sol:DisputeKitClassic",
            "label": "choice",
            "offset": 0,
            "slot": "2",
            "type": "t_uint256"
          },
          {
            "astId": 4811,
            "contract": "src/arbitration/dispute-kits/DisputeKitClassic.sol:DisputeKitClassic",
            "label": "voted",
            "offset": 0,
            "slot": "3",
            "type": "t_bool"
          }
        ],
        "numberOfBytes": "128"
      },
      "t_uint256": {
        "encoding": "inplace",
        "label": "uint256",
        "numberOfBytes": "32"
      }
    }
  }
}