{
  "address": "0xB56A23b396E0eae85414Ce5815da448ba529Cb4A",
  "abi": [
    {
      "inputs": [
        {
          "internalType": "address",
          "name": "_governor",
          "type": "address"
        },
        {
          "internalType": "contract KlerosCore",
          "name": "_core",
          "type": "address"
        },
        {
          "internalType": "contract RNG",
          "name": "_rng",
          "type": "address"
        }
      ],
      "stateMutability": "nonpayable",
      "type": "constructor"
    },
    {
      "anonymous": false,
      "inputs": [
        {
          "indexed": true,
          "internalType": "uint256",
          "name": "_disputeID",
          "type": "uint256"
        },
        {
          "indexed": true,
          "internalType": "uint256",
          "name": "_round",
          "type": "uint256"
        },
        {
          "indexed": true,
          "internalType": "uint256",
          "name": "_choice",
          "type": "uint256"
        }
      ],
      "name": "ChoiceFunded",
      "type": "event"
    },
    {
      "anonymous": false,
      "inputs": [
        {
          "indexed": true,
          "internalType": "uint256",
          "name": "_disputeID",
          "type": "uint256"
        },
        {
          "indexed": true,
          "internalType": "uint256",
          "name": "_round",
          "type": "uint256"
        },
        {
          "indexed": false,
          "internalType": "uint256",
          "name": "_choice",
          "type": "uint256"
        },
        {
          "indexed": true,
          "internalType": "address",
          "name": "_contributor",
          "type": "address"
        },
        {
          "indexed": false,
          "internalType": "uint256",
          "name": "_amount",
          "type": "uint256"
        }
      ],
      "name": "Contribution",
      "type": "event"
    },
    {
      "anonymous": false,
      "inputs": [
        {
          "indexed": true,
          "internalType": "contract IArbitrator",
          "name": "_arbitrator",
          "type": "address"
        },
        {
          "indexed": true,
          "internalType": "uint256",
          "name": "_evidenceGroupID",
          "type": "uint256"
        },
        {
          "indexed": true,
          "internalType": "address",
          "name": "_party",
          "type": "address"
        },
        {
          "indexed": false,
          "internalType": "string",
          "name": "_evidence",
          "type": "string"
        }
      ],
      "name": "Evidence",
      "type": "event"
    },
    {
      "anonymous": false,
      "inputs": [
        {
          "indexed": false,
          "internalType": "enum DisputeKitClassic.Phase",
          "name": "_phase",
          "type": "uint8"
        }
      ],
      "name": "NewPhaseDisputeKit",
      "type": "event"
    },
    {
      "anonymous": false,
      "inputs": [
        {
          "indexed": true,
          "internalType": "uint256",
          "name": "_disputeID",
          "type": "uint256"
        },
        {
          "indexed": true,
          "internalType": "uint256",
          "name": "_round",
          "type": "uint256"
        },
        {
          "indexed": false,
          "internalType": "uint256",
          "name": "_choice",
          "type": "uint256"
        },
        {
          "indexed": true,
          "internalType": "address",
          "name": "_contributor",
          "type": "address"
        },
        {
          "indexed": false,
          "internalType": "uint256",
          "name": "_amount",
          "type": "uint256"
        }
      ],
      "name": "Withdrawal",
      "type": "event"
    },
    {
      "inputs": [],
      "name": "LOSER_APPEAL_PERIOD_MULTIPLIER",
      "outputs": [
        {
          "internalType": "uint256",
          "name": "",
          "type": "uint256"
        }
      ],
      "stateMutability": "view",
      "type": "function"
    },
    {
      "inputs": [],
      "name": "LOSER_STAKE_MULTIPLIER",
      "outputs": [
        {
          "internalType": "uint256",
          "name": "",
          "type": "uint256"
        }
      ],
      "stateMutability": "view",
      "type": "function"
    },
    {
      "inputs": [],
      "name": "ONE_BASIS_POINT",
      "outputs": [
        {
          "internalType": "uint256",
          "name": "",
          "type": "uint256"
        }
      ],
      "stateMutability": "view",
      "type": "function"
    },
    {
      "inputs": [],
      "name": "RN",
      "outputs": [
        {
          "internalType": "uint256",
          "name": "",
          "type": "uint256"
        }
      ],
      "stateMutability": "view",
      "type": "function"
    },
    {
      "inputs": [],
      "name": "RNBlock",
      "outputs": [
        {
          "internalType": "uint256",
          "name": "",
          "type": "uint256"
        }
      ],
      "stateMutability": "view",
      "type": "function"
    },
    {
      "inputs": [],
      "name": "WINNER_STAKE_MULTIPLIER",
      "outputs": [
        {
          "internalType": "uint256",
          "name": "",
          "type": "uint256"
        }
      ],
      "stateMutability": "view",
      "type": "function"
    },
    {
      "inputs": [
        {
          "internalType": "uint256",
          "name": "_coreDisputeID",
          "type": "uint256"
        }
      ],
      "name": "areCommitsAllCast",
      "outputs": [
        {
          "internalType": "bool",
          "name": "",
          "type": "bool"
        }
      ],
      "stateMutability": "view",
      "type": "function"
    },
    {
      "inputs": [
        {
          "internalType": "uint256",
          "name": "_coreDisputeID",
          "type": "uint256"
        }
      ],
      "name": "areVotesAllCast",
      "outputs": [
        {
          "internalType": "bool",
          "name": "",
          "type": "bool"
        }
      ],
      "stateMutability": "view",
      "type": "function"
    },
    {
      "inputs": [
        {
          "internalType": "uint256",
          "name": "_coreDisputeID",
          "type": "uint256"
        },
        {
          "internalType": "uint256[]",
          "name": "_voteIDs",
          "type": "uint256[]"
        },
        {
          "internalType": "bytes32",
          "name": "_commit",
          "type": "bytes32"
        }
      ],
      "name": "castCommit",
      "outputs": [],
      "stateMutability": "nonpayable",
      "type": "function"
    },
    {
      "inputs": [
        {
          "internalType": "uint256",
          "name": "_coreDisputeID",
          "type": "uint256"
        },
        {
          "internalType": "uint256[]",
          "name": "_voteIDs",
          "type": "uint256[]"
        },
        {
          "internalType": "uint256",
          "name": "_choice",
          "type": "uint256"
        },
        {
          "internalType": "uint256",
          "name": "_salt",
          "type": "uint256"
        }
      ],
      "name": "castVote",
      "outputs": [],
      "stateMutability": "nonpayable",
      "type": "function"
    },
    {
      "inputs": [
        {
          "internalType": "address",
          "name": "_core",
          "type": "address"
        }
      ],
      "name": "changeCore",
      "outputs": [],
      "stateMutability": "nonpayable",
      "type": "function"
    },
    {
      "inputs": [
        {
          "internalType": "address payable",
          "name": "_governor",
          "type": "address"
        }
      ],
      "name": "changeGovernor",
      "outputs": [],
      "stateMutability": "nonpayable",
      "type": "function"
    },
    {
      "inputs": [
        {
          "internalType": "contract RNG",
          "name": "_rng",
          "type": "address"
        }
      ],
      "name": "changeRandomNumberGenerator",
      "outputs": [],
      "stateMutability": "nonpayable",
      "type": "function"
    },
    {
      "inputs": [],
      "name": "core",
      "outputs": [
        {
          "internalType": "contract KlerosCore",
          "name": "",
          "type": "address"
        }
      ],
      "stateMutability": "view",
      "type": "function"
    },
    {
      "inputs": [
        {
          "internalType": "uint256",
          "name": "",
          "type": "uint256"
        }
      ],
      "name": "coreDisputeIDToLocal",
      "outputs": [
        {
          "internalType": "uint256",
          "name": "",
          "type": "uint256"
        }
      ],
      "stateMutability": "view",
      "type": "function"
    },
    {
      "inputs": [
        {
          "internalType": "uint256",
          "name": "_coreDisputeID",
          "type": "uint256"
        },
        {
          "internalType": "uint256",
          "name": "_numberOfChoices",
          "type": "uint256"
        },
        {
          "internalType": "bytes",
          "name": "_extraData",
          "type": "bytes"
        },
        {
          "internalType": "uint256",
          "name": "_nbVotes",
          "type": "uint256"
        }
      ],
      "name": "createDispute",
      "outputs": [],
      "stateMutability": "nonpayable",
      "type": "function"
    },
    {
      "inputs": [
        {
          "internalType": "uint256",
          "name": "_coreDisputeID",
          "type": "uint256"
        }
      ],
      "name": "currentRuling",
      "outputs": [
        {
          "internalType": "uint256",
          "name": "ruling",
          "type": "uint256"
        }
      ],
      "stateMutability": "view",
      "type": "function"
    },
    {
      "inputs": [
        {
          "internalType": "uint256",
          "name": "",
          "type": "uint256"
        }
      ],
      "name": "disputes",
      "outputs": [
        {
          "internalType": "uint256",
          "name": "numberOfChoices",
          "type": "uint256"
        },
        {
          "internalType": "bool",
          "name": "jumped",
          "type": "bool"
        },
        {
          "internalType": "bytes",
          "name": "extraData",
          "type": "bytes"
        }
      ],
      "stateMutability": "view",
      "type": "function"
    },
    {
      "inputs": [],
      "name": "disputesWithoutJurors",
      "outputs": [
        {
          "internalType": "uint256",
          "name": "",
          "type": "uint256"
        }
      ],
      "stateMutability": "view",
      "type": "function"
    },
    {
      "inputs": [
        {
          "internalType": "uint256",
          "name": "_coreDisputeID",
          "type": "uint256"
        }
      ],
      "name": "draw",
      "outputs": [
        {
          "internalType": "address",
          "name": "drawnAddress",
          "type": "address"
        }
      ],
      "stateMutability": "nonpayable",
      "type": "function"
    },
    {
      "inputs": [
        {
          "internalType": "address",
          "name": "_destination",
          "type": "address"
        },
        {
          "internalType": "uint256",
          "name": "_amount",
          "type": "uint256"
        },
        {
          "internalType": "bytes",
          "name": "_data",
          "type": "bytes"
        }
      ],
      "name": "executeGovernorProposal",
      "outputs": [],
      "stateMutability": "nonpayable",
      "type": "function"
    },
    {
      "inputs": [
        {
          "internalType": "uint256",
          "name": "_coreDisputeID",
          "type": "uint256"
        },
        {
          "internalType": "uint256",
          "name": "_choice",
          "type": "uint256"
        }
      ],
      "name": "fundAppeal",
      "outputs": [],
      "stateMutability": "payable",
      "type": "function"
    },
    {
      "inputs": [
        {
          "internalType": "uint256",
          "name": "_coreDisputeID",
          "type": "uint256"
        },
        {
          "internalType": "uint256",
          "name": "_coreRoundID",
          "type": "uint256"
        }
      ],
      "name": "getCoherentCount",
      "outputs": [
        {
          "internalType": "uint256",
          "name": "",
          "type": "uint256"
        }
      ],
      "stateMutability": "view",
      "type": "function"
    },
    {
      "inputs": [
        {
          "internalType": "uint256",
          "name": "_coreDisputeID",
          "type": "uint256"
        },
        {
          "internalType": "uint256",
          "name": "_coreRoundID",
          "type": "uint256"
        },
        {
          "internalType": "uint256",
          "name": "_voteID",
          "type": "uint256"
        }
      ],
      "name": "getDegreeOfCoherence",
      "outputs": [
        {
          "internalType": "uint256",
          "name": "",
          "type": "uint256"
        }
      ],
      "stateMutability": "view",
      "type": "function"
    },
    {
      "inputs": [
        {
          "internalType": "uint256",
          "name": "_coreDisputeID",
          "type": "uint256"
        }
      ],
      "name": "getLastRoundResult",
      "outputs": [
        {
          "internalType": "uint256",
          "name": "winningChoiece",
          "type": "uint256"
        },
        {
          "internalType": "bool",
          "name": "tied",
          "type": "bool"
        }
      ],
      "stateMutability": "view",
      "type": "function"
    },
    {
      "inputs": [
        {
          "internalType": "uint256",
          "name": "_coreDisputeID",
          "type": "uint256"
        },
        {
          "internalType": "uint256",
          "name": "_coreRoundID",
          "type": "uint256"
        },
        {
          "internalType": "uint256",
          "name": "_choice",
          "type": "uint256"
        }
      ],
      "name": "getRoundInfo",
      "outputs": [
        {
          "internalType": "uint256",
          "name": "winningChoice",
          "type": "uint256"
        },
        {
          "internalType": "bool",
          "name": "tied",
          "type": "bool"
        },
        {
          "internalType": "uint256",
          "name": "totalVoted",
          "type": "uint256"
        },
        {
          "internalType": "uint256",
          "name": "totalCommited",
          "type": "uint256"
        },
        {
          "internalType": "uint256",
          "name": "nbVoters",
          "type": "uint256"
        },
        {
          "internalType": "uint256",
          "name": "choiceCount",
          "type": "uint256"
        }
      ],
      "stateMutability": "view",
      "type": "function"
    },
    {
      "inputs": [
        {
          "internalType": "uint256",
          "name": "_coreDisputeID",
          "type": "uint256"
        },
        {
          "internalType": "uint256",
          "name": "_coreRoundID",
          "type": "uint256"
        },
        {
          "internalType": "uint256",
          "name": "_voteID",
          "type": "uint256"
        }
      ],
      "name": "getVoteInfo",
      "outputs": [
        {
          "internalType": "address",
          "name": "account",
          "type": "address"
        },
        {
          "internalType": "bytes32",
          "name": "commit",
          "type": "bytes32"
        },
        {
          "internalType": "uint256",
          "name": "choice",
          "type": "uint256"
        },
        {
          "internalType": "bool",
          "name": "voted",
          "type": "bool"
        }
      ],
      "stateMutability": "view",
      "type": "function"
    },
    {
      "inputs": [],
      "name": "governor",
      "outputs": [
        {
          "internalType": "address",
          "name": "",
          "type": "address"
        }
      ],
      "stateMutability": "view",
      "type": "function"
    },
    {
      "inputs": [],
      "name": "isResolving",
      "outputs": [
        {
          "internalType": "bool",
          "name": "",
          "type": "bool"
        }
      ],
      "stateMutability": "view",
      "type": "function"
    },
    {
      "inputs": [
        {
          "internalType": "uint256",
          "name": "_coreDisputeID",
          "type": "uint256"
        },
        {
          "internalType": "uint256",
          "name": "_coreRoundID",
          "type": "uint256"
        },
        {
          "internalType": "uint256",
          "name": "_voteID",
          "type": "uint256"
        }
      ],
      "name": "isVoteActive",
      "outputs": [
        {
          "internalType": "bool",
          "name": "",
          "type": "bool"
        }
      ],
      "stateMutability": "view",
      "type": "function"
    },
    {
      "inputs": [],
      "name": "passPhase",
      "outputs": [],
      "stateMutability": "nonpayable",
      "type": "function"
    },
    {
      "inputs": [],
      "name": "phase",
      "outputs": [
        {
          "internalType": "enum DisputeKitClassic.Phase",
          "name": "",
          "type": "uint8"
        }
      ],
      "stateMutability": "view",
      "type": "function"
    },
    {
      "inputs": [],
      "name": "rng",
      "outputs": [
        {
          "internalType": "contract RNG",
          "name": "",
          "type": "address"
        }
      ],
      "stateMutability": "view",
      "type": "function"
    },
    {
      "inputs": [
        {
          "internalType": "uint256",
          "name": "_evidenceGroupID",
          "type": "uint256"
        },
        {
          "internalType": "string",
          "name": "_evidence",
          "type": "string"
        }
      ],
      "name": "submitEvidence",
      "outputs": [],
      "stateMutability": "nonpayable",
      "type": "function"
    },
    {
      "inputs": [
        {
          "internalType": "uint256",
          "name": "_coreDisputeID",
          "type": "uint256"
        },
        {
          "internalType": "address payable",
          "name": "_beneficiary",
          "type": "address"
        },
        {
          "internalType": "uint256",
          "name": "_round",
          "type": "uint256"
        },
        {
          "internalType": "uint256",
          "name": "_choice",
          "type": "uint256"
        }
      ],
      "name": "withdrawFeesAndRewards",
      "outputs": [
        {
          "internalType": "uint256",
          "name": "amount",
          "type": "uint256"
        }
      ],
      "stateMutability": "nonpayable",
      "type": "function"
    }
  ],
  "transactionHash": "0x7399541f0f2db9d1b60fae18cf8c56e7312d0b426cb94945d6a538566d378e3d",
  "args": [
    "0xF50E77f2A2B6138D16c6c7511562E5C33c4B15A3",
    "0x0000000000000000000000000000000000000000",
    "0xa43507d678aa1ee2915Af9d42B02cc92C3C1431B"
  ],
  "numDeployments": 2,
  "solcInputHash": "616289cb330588ad7bb3701a8ab48290",
  "bytecode": "0x60806040523480156200001157600080fd5b50604051620041ba380380620041ba833981016040819052620000349162000090565b600080546001600160a01b039485166001600160a01b031991821617909155600180549385169382169390931790925560028054919093169116179055620000e4565b6001600160a01b03811681146200008d57600080fd5b50565b600080600060608486031215620000a657600080fd5b8351620000b38162000077565b6020850151909350620000c68162000077565b6040850151909250620000d98162000077565b809150509250925092565b6140c680620000f46000396000f3fe6080604052600436106102045760003560e01c8063751accd011610118578063ba66fde7116100a0578063d605787b1161006f578063d605787b14610638578063da3beb8c14610658578063e349ad3014610499578063e4c0aaf414610678578063f2f4eb261461069857600080fd5b8063ba66fde7146105cd578063be467604146105ed578063c41bda6114610603578063c86ed8921461062357600080fd5b8063a6a7f0eb116100e7578063a6a7f0eb14610504578063a7cc08fe14610524578063b1c9fe6e14610570578063b34bfaa814610597578063b6ede540146105ad57600080fd5b8063751accd014610479578063796490f9146104995780638e426460146104af5780639b05c261146104cf57600080fd5b80633850f8041161019b578063564a565d1161016a578063564a565d146103a75780635c92e2f6146103d65780635e4a627d146103f657806369f3f0411461040c5780636d4cd8ea1461045957600080fd5b80633850f804146103345780633b304147146103545780634b2f0ea0146103745780634fe264fb1461038757600080fd5b80630c340a24116101d75780630c340a241461028f5780631200aabc146102c75780631c3db16d146102f4578063362c34791461031457600080fd5b8063023d44df1461020957806303432744146102325780630b274f2e146102485780630baa64d11461025f575b600080fd5b34801561021557600080fd5b5061021f60035481565b6040519081526020015b60405180910390f35b34801561023e57600080fd5b5061021f60065481565b34801561025457600080fd5b5061025d6106b8565b005b34801561026b57600080fd5b5061027f61027a3660046136a5565b610c8a565b6040519015158152602001610229565b34801561029b57600080fd5b506000546102af906001600160a01b031681565b6040516001600160a01b039091168152602001610229565b3480156102d357600080fd5b5061021f6102e23660046136a5565b60086020526000908152604090205481565b34801561030057600080fd5b5061021f61030f3660046136a5565b610d01565b34801561032057600080fd5b5061021f61032f3660046136d6565b610d8b565b34801561034057600080fd5b5061025d61034f36600461375f565b611160565b34801561036057600080fd5b506102af61036f3660046136a5565b611823565b61025d6103823660046137bd565b611cac565b34801561039357600080fd5b5061021f6103a23660046137df565b612524565b3480156103b357600080fd5b506103c76103c23660046136a5565b612674565b60405161022993929190613837565b3480156103e257600080fd5b5061025d6103f136600461387a565b61273a565b34801561040257600080fd5b5061021f60045481565b34801561041857600080fd5b5061042c6104273660046137df565b612abf565b604080519687529415156020870152938501929092526060840152608083015260a082015260c001610229565b34801561046557600080fd5b5061027f6104743660046136a5565b612b77565b34801561048557600080fd5b5061025d610494366004613914565b612bee565b3480156104a557600080fd5b5061021f61271081565b3480156104bb57600080fd5b5061025d6104ca3660046139c5565b612cc0565b3480156104db57600080fd5b506104ef6104ea3660046136a5565b612d0c565b60408051928352901515602083015201610229565b34801561051057600080fd5b5061025d61051f366004613a24565b612d8f565b34801561053057600080fd5b5061054461053f3660046137df565b612de1565b604080516001600160a01b03909516855260208501939093529183015215156060820152608001610229565b34801561057c57600080fd5b5060055461058a9060ff1681565b6040516102299190613a86565b3480156105a357600080fd5b5061021f614e2081565b3480156105b957600080fd5b5061025d6105c8366004613aae565b612ea7565b3480156105d957600080fd5b5061027f6105e83660046137df565b613060565b3480156105f957600080fd5b5061021f61138881565b34801561060f57600080fd5b5061025d61061e3660046139c5565b6130fb565b34801561062f57600080fd5b5061027f613147565b34801561064457600080fd5b506002546102af906001600160a01b031681565b34801561066457600080fd5b5061021f6106733660046137bd565b613167565b34801561068457600080fd5b5061025d6106933660046139c5565b6132c7565b3480156106a457600080fd5b506001546102af906001600160a01b031681565b600154604080516358e4ff3760e11b815290516000926001600160a01b03169163b1c9fe6e916004808301926020929190829003018186803b1580156106fd57600080fd5b505afa158015610711573d6000803e3d6000fd5b505050506040513d601f19601f820116820180604052508101906107359190613b09565b600181111561074657610746613a70565b14806107d35750600160009054906101000a90046001600160a01b03166001600160a01b031663b70c4e946040518163ffffffff1660e01b815260040160206040518083038186803b15801561079b57600080fd5b505afa1580156107af573d6000803e3d6000fd5b505050506040513d601f19601f820116820180604052508101906107d39190613b3f565b1561085e57600060055460ff1660028111156107f1576107f1613a70565b14156108445760405162461bcd60e51b815260206004820152601a60248201527f416c726561647920696e205265736f6c76696e6720706861736500000000000060448201526064015b60405180910390fd5b600580546000919060ff19166001835b0217905550610c49565b60018060009054906101000a90046001600160a01b03166001600160a01b031663b1c9fe6e6040518163ffffffff1660e01b815260040160206040518083038186803b1580156108ad57600080fd5b505afa1580156108c1573d6000803e3d6000fd5b505050506040513d601f19601f820116820180604052508101906108e59190613b09565b60018111156108f6576108f6613a70565b1415610c4957600060055460ff16600281111561091557610915613a70565b1415610ac45760006006541161096d5760405162461bcd60e51b815260206004820152601c60248201527f416c6c207468652064697370757465732068617665206a75726f727300000000604482015260640161083b565b600160009054906101000a90046001600160a01b03166001600160a01b031663fa4148806040518163ffffffff1660e01b815260040160206040518083038186803b1580156109bb57600080fd5b505afa1580156109cf573d6000803e3d6000fd5b505050506040513d601f19601f820116820180604052508101906109f39190613b5a565b6109fe906014613b89565b431015610a4d5760405162461bcd60e51b815260206004820152601e60248201527f546f6f20736f6f6e3a204c312066696e616c6974792072657175697265640000604482015260640161083b565b4360038190556002546040516303dce1a760e51b815260048101929092526001600160a01b031690637b9c34e090602401600060405180830381600087803b158015610a9857600080fd5b505af1158015610aac573d6000803e3d6000fd5b5050600580546001935090915060ff19168280610854565b600160055460ff166002811115610add57610add613a70565b1415610bcf5760025460035460405163ca4742f160e01b81526001600160a01b039092169163ca4742f191610b189160040190815260200190565b602060405180830381600087803b158015610b3257600080fd5b505af1158015610b46573d6000803e3d6000fd5b505050506040513d601f19601f82011682018060405250810190610b6a9190613b5a565b6004819055610bbb5760405162461bcd60e51b815260206004820152601e60248201527f52616e646f6d206e756d626572206973206e6f74207265616479207965740000604482015260640161083b565b600580546002919060ff1916600183610854565b600260055460ff166002811115610be857610be8613a70565b1415610c495760065415610c3e5760405162461bcd60e51b815260206004820152601d60248201527f4e6f7420726561647920666f72205265736f6c76696e67207068617365000000604482015260640161083b565b6005805460ff191690555b6005546040517fdeeacb313775e12b099f27fe481aa82204a1806233e7125cc8a9f719e5ddfdc591610c809160ff90911690613a86565b60405180910390a1565b600081815260086020526040812054600780548392908110610cae57610cae613ba1565b60009182526020822060059091020180549092508290610cd090600190613bb7565b81548110610ce057610ce0613ba1565b60009182526020909120600c90910201805460059091015414949350505050565b600081815260086020526040812054600780548392908110610d2557610d25613ba1565b60009182526020822060059091020180549092508290610d4790600190613bb7565b81548110610d5757610d57613ba1565b60009182526020909120600c90910201600381015490915060ff16610d80578060010154610d83565b60005b949350505050565b6001546040516325bfe6d160e11b8152600481018690526000916001600160a01b031690634b7fcda29060240160206040518083038186803b158015610dd057600080fd5b505afa158015610de4573d6000803e3d6000fd5b505050506040513d601f19601f82011682018060405250810190610e089190613b3f565b610e545760405162461bcd60e51b815260206004820152601b60248201527f446973707574652073686f756c64206265207265736f6c7665642e0000000000604482015260640161083b565b600085815260086020526040812054600780549091908110610e7857610e78613ba1565b906000526020600020906005020190506000816000018581548110610e9f57610e9f613ba1565b600091825260208220600154604051631c3db16d60e01b8152600481018c9052600c9390930290910193506001600160a01b031690631c3db16d9060240160206040518083038186803b158015610ef557600080fd5b505afa158015610f09573d6000803e3d6000fd5b505050506040513d601f19601f82011682018060405250810190610f2d9190613b5a565b600086815260078401602052604090205490915060ff16610f75576001600160a01b0387166000908152600883016020908152604080832088845290915290205493506110bb565b80851415610feb576000858152600683016020526040902054610f99576000610fe4565b600085815260068301602090815260408083205460098601546001600160a01b038c1685526008870184528285208a8652909352922054610fda9190613bce565b610fe49190613c03565b93506110bb565b600081815260078301602052604090205460ff166110bb5781600601600083600a0160018154811061101f5761101f613ba1565b906000526020600020015481526020019081526020016000205482600601600084600a0160008154811061105557611055613ba1565b90600052602060002001548152602001908152602001600020546110799190613b89565b60098301546001600160a01b038916600090815260088501602090815260408083208a84529091529020546110ae9190613bce565b6110b89190613c03565b93505b6001600160a01b038716600090815260088301602090815260408083208884529091528120558315611155576040516001600160a01b0388169085156108fc029086906000818181858888f1505060408051898152602081018990526001600160a01b038c1694508a93508c92507f54b3cab3cb5c4aca3209db1151caff092e878011202e43a36782d4ebe0b963ae910160405180910390a45b505050949350505050565b60008581526008602052604090205460078054879290811061118457611184613ba1565b600091825260209091206002600590920201015460ff16156111b85760405162461bcd60e51b815260040161083b90613c17565b60015460405163022684db60e41b8152600481018890526002916001600160a01b0316906322684db09060240160206040518083038186803b1580156111fd57600080fd5b505afa158015611211573d6000803e3d6000fd5b505050506040513d601f19601f820116820180604052508101906112359190613c4e565b600481111561124657611246613a70565b146112a15760405162461bcd60e51b815260206004820152602560248201527f54686520646973707574652073686f756c6420626520696e20566f74652070656044820152643934b7b21760d91b606482015260840161083b565b836112e35760405162461bcd60e51b8152602060048201526012602482015271139bc81d9bdd195251081c1c9bdd9a59195960721b604482015260640161083b565b60008681526008602052604081205460078054909190811061130757611307613ba1565b9060005260206000209060050201905080600101548411156113625760405162461bcd60e51b815260206004820152601460248201527343686f696365206f7574206f6620626f756e647360601b604482015260640161083b565b8054600090829061137590600190613bb7565b8154811061138557611385613ba1565b600091825260208220600154604051637b5377bd60e11b8152600481018d9052600c9390930290910193506001600160a01b03169063d578cbac90829063f6a6ef7a9060240160206040518083038186803b1580156113e357600080fd5b505afa1580156113f7573d6000803e3d6000fd5b505050506040513d601f19601f8201168201806040525081019061141b9190613b5a565b6040518263ffffffff1660e01b815260040161143991815260200190565b60206040518083038186803b15801561145157600080fd5b505afa158015611465573d6000803e3d6000fd5b505050506040513d601f19601f820116820180604052508101906114899190613b3f565b905060005b878110156117315733838a8a848181106114aa576114aa613ba1565b90506020020135815481106114c1576114c1613ba1565b60009182526020909120600490910201546001600160a01b0316146115285760405162461bcd60e51b815260206004820152601f60248201527f5468652063616c6c65722068617320746f206f776e2074686520766f74652e00604482015260640161083b565b81158061159b5750604080516020810189905290810187905260600160405160208183030381529060405280519060200120836000018a8a8481811061157057611570613ba1565b905060200201358154811061158757611587613ba1565b906000526020600020906004020160010154145b61160f576040805162461bcd60e51b81526020600482015260248101919091527f54686520636f6d6d6974206d757374206d61746368207468652063686f69636560448201527f20696e20737562636f7572747320776974682068696464656e20766f7465732e606482015260840161083b565b8289898381811061162257611622613ba1565b905060200201358154811061163957611639613ba1565b600091825260209091206003600490920201015460ff16156116925760405162461bcd60e51b81526020600482015260126024820152712b37ba329030b63932b0b23c9031b0b9ba1760711b604482015260640161083b565b86838a8a848181106116a6576116a6613ba1565b90506020020135815481106116bd576116bd613ba1565b60009182526020909120600260049092020101556001838a8a848181106116e6576116e6613ba1565b90506020020135815481106116fd576116fd613ba1565b60009182526020909120600490910201600301805460ff19169115159190911790558061172981613c6f565b91505061148e565b50878790508260040160008282546117499190613b89565b909155505060008681526002830160205260408120805489929061176e908490613b89565b9091555050600182015486141561179e57600382015460ff16156117995760038201805460ff191690555b611818565b600182015460009081526002830160205260408082205488835291205414156117e157600382015460ff166117995760038201805460ff19166001179055611818565b60018201546000908152600283016020526040808220548883529120541115611818576001820186905560038201805460ff191690555b505050505050505050565b6001546000906001600160a01b031633146118505760405162461bcd60e51b815260040161083b90613c8a565b60008281526008602052604090205460078054849290811061187457611874613ba1565b600091825260209091206002600590920201015460ff16156118a85760405162461bcd60e51b815260040161083b90613c17565b600260055460ff1660028111156118c1576118c1613a70565b1461190e5760405162461bcd60e51b815260206004820152601a60248201527f53686f756c6420626520696e2064726177696e67207068617365000000000000604482015260640161083b565b600154604051637b5377bd60e11b8152600481018590526000916001600160a01b03169063f6a6ef7a9060240160206040518083038186803b15801561195357600080fd5b505afa158015611967573d6000803e3d6000fd5b505050506040513d601f19601f8201168201806040525081019061198b9190613b5a565b90506000611997613313565b600154604051630696a8a760e51b81526004810185905291925060009182916001600160a01b03169063d2d514e09060240160006040518083038186803b1580156119e157600080fd5b505afa1580156119f5573d6000803e3d6000fd5b505050506040513d6000823e601f3d908101601f19168201604052611a1d9190810190613d5d565b925050915060008082600081518110611a3857611a38613ba1565b602002602001015185611a4b9190613dca565b60008a8152600860205260408120546007805493945091928110611a7157611a71613ba1565b60009182526020822060059091020180549092508290611a9390600190613bb7565b81548110611aa357611aa3613ba1565b90600052602060002090600c020190505b8451611ac08588613bce565b611acb906001613b89565b1015611b4d5760015b868111611b4757600081611ae8878a613bce565b611af29190613b89565b90506000878281518110611b0857611b08613ba1565b60200260200101519050808610611b2a57611b238187613bb7565b9550611b32565b509450611b47565b50508080611b3f90613c6f565b915050611ad4565b50611ab4565b60015460405163de1a1e5960e01b8152600481018a9052602481018690526000916001600160a01b03169063de1a1e599060440160206040518083038186803b158015611b9957600080fd5b505afa158015611bad573d6000803e3d6000fd5b505050506040513d601f19601f82011682018060405250810190611bd19190613b5a565b9050611bdc81613396565b9a50611be88c8c6133c1565b15611c9857604080516080810182526001600160a01b038d811682526000602080840182815294840182815260608501838152885460018082018b558a8652939094209551600490940290950180546001600160a01b0319169390941692909217835593519382019390935591516002830155516003909101805460ff1916911515919091179055600b82015482541415611c935760068054906000611c8d83613dde565b91905055505b611c9d565b60009a505b50505050505050505050919050565b600082815260086020526040902054600780548492908110611cd057611cd0613ba1565b600091825260209091206002600590920201015460ff1615611d045760405162461bcd60e51b815260040161083b90613c17565b600083815260086020526040812054600780549091908110611d2857611d28613ba1565b906000526020600020906005020190508060010154831115611d8c5760405162461bcd60e51b815260206004820181905260248201527f5468657265206973206e6f20737563682072756c696e6720746f2066756e642e604482015260640161083b565b60015460405163afe15cfb60e01b81526004810186905260009182916001600160a01b039091169063afe15cfb90602401604080518083038186803b158015611dd457600080fd5b505afa158015611de8573d6000803e3d6000fd5b505050506040513d601f19601f82011682018060405250810190611e0c9190613df5565b91509150814210158015611e1f57508042105b611e645760405162461bcd60e51b815260206004820152601660248201527520b83832b0b6103832b934b7b21034b99037bb32b91760511b604482015260640161083b565b604051631c3db16d60e01b81526004810187905260009086903090631c3db16d9060240160206040518083038186803b158015611ea057600080fd5b505afa158015611eb4573d6000803e3d6000fd5b505050506040513d601f19601f82011682018060405250810190611ed89190613b5a565b1415611ee75750612710611f67565b612710611388611ef78585613bb7565b611f019190613bce565b611f0b9190613c03565b611f158442613bb7565b10611f625760405162461bcd60e51b815260206004820152601f60248201527f41707065616c20706572696f64206973206f76657220666f72206c6f73657200604482015260640161083b565b50614e205b83546000908590611f7a90600190613bb7565b81548110611f8a57611f8a613ba1565b600091825260208083208a84526007600c90930201918201905260409091205490915060ff1615611ffd5760405162461bcd60e51b815260206004820152601b60248201527f41707065616c2066656520697320616c726561647920706169642e0000000000604482015260640161083b565b600154604051632cf6413f60e11b8152600481018a90526000916001600160a01b0316906359ec827e9060240160206040518083038186803b15801561204257600080fd5b505afa158015612056573d6000803e3d6000fd5b505050506040513d601f19601f8201168201806040525081019061207a9190613b5a565b9050600061271061208b8584613bce565b6120959190613c03565b61209f9083613b89565b60008a81526006850160205260408120549192509082111561214e5760008a815260068501602052604090205434906120d89084613bb7565b116120fd5760008a81526006850160205260409020546120f89083613bb7565b6120ff565b345b8854909150339061211290600190613bb7565b604080518d8152602081018590528e917fcae597f39a3ad75c2e10d46b031f023c5c2babcd58ca0491b122acda3968d4c0910160405180910390a45b33600090815260088501602090815260408083208d84529091528120805483929061217a908490613b89565b909155505060008a81526006850160205260408120805483929061219f908490613b89565b909155505060008a815260068501602052604090205482116122555760008a8152600685016020526040812054600986018054919290916121e1908490613b89565b9091555050600a8401805460018181018355600092835260208084209092018d90558c8352600787019091526040909120805460ff19168217905588548b9161222991613bb7565b6040518d907fed764996238e4c1c873ae3af7ae2f00f1f6f4f10b9ac7d4bbea4a764c5dea00990600090a45b600a840154600110156124e9578284600901546122729190613bb7565b60098501556001546040516319b8152960e01b8152600481018d90526001600160a01b03909116906319b815299060240160206040518083038186803b1580156122bb57600080fd5b505afa1580156122cf573d6000803e3d6000fd5b505050506040513d601f19601f820116820180604052508101906122f39190613b3f565b1561230c5760028801805460ff19166001179055612469565b8754600154604051637e37c78b60e11b8152600481018e905260038b01916000916001600160a01b039091169063fc6f8f169060240160206040518083038186803b15801561235a57600080fd5b505afa15801561236e573d6000803e3d6000fd5b505050506040513d601f19601f820116820180604052508101906123929190613b5a565b815260208082019290925260409081016000908120939093558a5460018082018d558c8552929093209154905163c71f425360e01b8152600481018f9052600c909302909101916001600160a01b039091169063c71f42539060240160206040518083038186803b15801561240657600080fd5b505afa15801561241a573d6000803e3d6000fd5b505050506040513d601f19601f8201168201806040525081019061243e9190613b5a565b600b82015560038101805460ff191660011790556006805490600061246283613c6f565b9190505550505b600160009054906101000a90046001600160a01b03166001600160a01b031663c3569902848d8b600101548c6004016040518563ffffffff1660e01b81526004016124b693929190613e54565b6000604051808303818588803b1580156124cf57600080fd5b505af11580156124e3573d6000803e3d6000fd5b50505050505b8034111561251757336108fc6124ff8334613bb7565b6040518115909202916000818181858888f150505050505b5050505050505050505050565b60008381526008602052604081205460078054839290811061254857612548613ba1565b6000918252602080832087845260036005909302019182019052604082205481549193508391811061257c5761257c613ba1565b90600052602060002090600c0201600001848154811061259e5761259e613ba1565b600091825260208220600154604051639b05c26160e01b815260048082018c905293909302909101935082916001600160a01b0390911690639b05c26190602401604080518083038186803b1580156125f657600080fd5b505afa15801561260a573d6000803e3d6000fd5b505050506040513d601f19601f8201168201806040525081019061262e9190613f0c565b6003850154919350915060ff168015612651575081836002015414806126515750805b156126645761271094505050505061266d565b60009450505050505b9392505050565b6007818154811061268457600080fd5b600091825260209091206005909102016001810154600282015460048301805492945060ff90911692916126b790613e19565b80601f01602080910402602001604051908101604052809291908181526020018280546126e390613e19565b80156127305780601f1061270557610100808354040283529160200191612730565b820191906000526020600020905b81548152906001019060200180831161271357829003601f168201915b5050505050905083565b60008481526008602052604090205460078054869290811061275e5761275e613ba1565b600091825260209091206002600590920201015460ff16156127925760405162461bcd60e51b815260040161083b90613c17565b6001805460405163022684db60e41b8152600481018890526001600160a01b03909116906322684db09060240160206040518083038186803b1580156127d757600080fd5b505afa1580156127eb573d6000803e3d6000fd5b505050506040513d601f19601f8201168201806040525081019061280f9190613c4e565b600481111561282057612820613a70565b1461287d5760405162461bcd60e51b815260206004820152602760248201527f54686520646973707574652073686f756c6420626520696e20436f6d6d6974206044820152663832b934b7b21760c91b606482015260840161083b565b816128ba5760405162461bcd60e51b815260206004820152600d60248201526c22b6b83a3c9031b7b6b6b4ba1760991b604482015260640161083b565b6000858152600860205260408120546007805490919081106128de576128de613ba1565b6000918252602082206005909102018054909250829061290090600190613bb7565b8154811061291057612910613ba1565b90600052602060002090600c0201905060005b85811015612a9957338288888481811061293f5761293f613ba1565b905060200201358154811061295657612956613ba1565b60009182526020909120600490910201546001600160a01b0316146129bd5760405162461bcd60e51b815260206004820152601f60248201527f5468652063616c6c65722068617320746f206f776e2074686520766f74652e00604482015260640161083b565b6000828888848181106129d2576129d2613ba1565b90506020020135815481106129e9576129e9613ba1565b90600052602060002090600402016001015414612a485760405162461bcd60e51b815260206004820152601c60248201527f416c726561647920636f6d6d6974746564207468697320766f74652e00000000604482015260640161083b565b8482888884818110612a5c57612a5c613ba1565b9050602002013581548110612a7357612a73613ba1565b600091825260209091206001600490920201015580612a9181613c6f565b915050612923565b5085859050816005016000828254612ab19190613b89565b909155505050505050505050565b60008060008060008060006007600860008c81526020019081526020016000205481548110612af057612af0613ba1565b600091825260208083208c8452600360059093020191820190526040822054815491935083918110612b2457612b24613ba1565b600091825260208083206001600c909302019182015460038301546004840154600585015485549f87526002909501909352604090942054909f60ff9094169e50909c50909a9950975095505050505050565b600081815260086020526040812054600780548392908110612b9b57612b9b613ba1565b60009182526020822060059091020180549092508290612bbd90600190613bb7565b81548110612bcd57612bcd613ba1565b60009182526020909120600c90910201805460049091015414949350505050565b6000546001600160a01b03163314612c185760405162461bcd60e51b815260040161083b90613f38565b6000836001600160a01b03168383604051612c339190613f7a565b60006040518083038185875af1925050503d8060008114612c70576040519150601f19603f3d011682016040523d82523d6000602084013e612c75565b606091505b5050905080612cba5760405162461bcd60e51b8152602060048201526011602482015270155b9cdd58d8d95cdcd99d5b0818d85b1b607a1b604482015260640161083b565b50505050565b6000546001600160a01b03163314612cea5760405162461bcd60e51b815260040161083b90613f38565b600180546001600160a01b0319166001600160a01b0392909216919091179055565b6000818152600860205260408120546007805483928392918110612d3257612d32613ba1565b60009182526020822060059091020180549092508290612d5490600190613bb7565b81548110612d6457612d64613ba1565b60009182526020909120600c909102016001810154600390910154909660ff90911695509350505050565b600154604051339185916001600160a01b03909116907fdccf2f8b2cc26eafcd61905cba744cff4b81d14740725f6376390dc6298a6a3c90612dd49087908790613f96565b60405180910390a4505050565b60008060008060006007600860008a81526020019081526020016000205481548110612e0f57612e0f613ba1565b600091825260208083208a8452600360059093020191820190526040822054815491935083918110612e4357612e43613ba1565b90600052602060002090600c02016000018781548110612e6557612e65613ba1565b600091825260209091206004909102018054600182015460028301546003909301546001600160a01b039092169c909b5091995060ff16975095505050505050565b6001546001600160a01b03163314612ed15760405162461bcd60e51b815260040161083b90613c8a565b60078054600181018255600091909152600581027fa66cc928b5edb82af9bd49922954155ab7b0942694bea4ce44661d9a8736c68981018690557fa66cc928b5edb82af9bd49922954155ab7b0942694bea4ce44661d9a8736c688810190612f5c907fa66cc928b5edb82af9bd49922954155ab7b0942694bea4ce44661d9a8736c68c01868661360c565b50805460018054604051637e37c78b60e11b8152600481018b9052600385019260009290916001600160a01b039091169063fc6f8f169060240160206040518083038186803b158015612fae57600080fd5b505afa158015612fc2573d6000803e3d6000fd5b505050506040513d601f19601f82011682018060405250810190612fe69190613b5a565b612ff09190613bb7565b81526020808201929092526040908101600090812093909355835460018181018655858552838520600b600c9093020191820188905560038201805460ff191690911790558a84526008909252822084905560068054919261305183613c6f565b91905055505050505050505050565b60008381526008602052604081205460078054839290811061308457613084613ba1565b600091825260208083208784526003600590930201918201905260408220548154919350839181106130b8576130b8613ba1565b90600052602060002090600c020160000184815481106130da576130da613ba1565b600091825260209091206004909102016003015460ff169695505050505050565b6000546001600160a01b031633146131255760405162461bcd60e51b815260040161083b90613f38565b600280546001600160a01b0319166001600160a01b0392909216919091179055565b60008060055460ff16600281111561316157613161613a70565b14905090565b60008281526008602052604081205460078054839290811061318b5761318b613ba1565b600091825260208083208684526003600590930201918201905260408220548154919350839181106131bf576131bf613ba1565b600091825260208220600154604051639b05c26160e01b8152600481018a9052600c93909302909101935082916001600160a01b0390911690639b05c26190602401604080518083038186803b15801561321857600080fd5b505afa15801561322c573d6000803e3d6000fd5b505050506040513d601f19601f820116820180604052508101906132509190613f0c565b9150915082600401546000148061327e57508015801561327e57506000828152600284016020526040902054155b156132905760009450505050506132c1565b80156132a55750506004015491506132c19050565b5060009081526002909101602052604090205491506132c19050565b92915050565b6000546001600160a01b031633146132f15760405162461bcd60e51b815260040161083b90613f38565b600080546001600160a01b0319166001600160a01b0392909216919091179055565b600254604051630e39b00f60e11b81524360048201526000916001600160a01b031690631c73601e90602401602060405180830381600087803b15801561335957600080fd5b505af115801561336d573d6000803e3d6000fd5b505050506040513d601f19601f820116820180604052508101906133919190613b5a565b905090565b600060405160005b60148110156133b95783811a81600c8401015360010161339e565b505192915050565b600154604051637b5377bd60e11b81526004810184905260009182916001600160a01b039091169063f6a6ef7a9060240160206040518083038186803b15801561340a57600080fd5b505afa15801561341e573d6000803e3d6000fd5b505050506040513d601f19601f820116820180604052508101906134429190613b5a565b60018054604051637e37c78b60e11b8152600481018890529293506000926001600160a01b0390911691638a9bb02a91889190849063fc6f8f169060240160206040518083038186803b15801561349857600080fd5b505afa1580156134ac573d6000803e3d6000fd5b505050506040513d601f19601f820116820180604052508101906134d09190613b5a565b6134da9190613bb7565b6040516001600160e01b031960e085901b1681526004810192909252602482015260440160006040518083038186803b15801561351657600080fd5b505afa15801561352a573d6000803e3d6000fd5b505050506040513d6000823e601f3d908101601f191682016040526135529190810190613fc5565b5050600154604051631a383be960e31b81526001600160a01b038a811660048301526bffffffffffffffffffffffff89166024830152959650600095869550909116925063d1c1df489150604401604080518083038186803b1580156135b757600080fd5b505afa1580156135cb573d6000803e3d6000fd5b505050506040513d601f19601f820116820180604052508101906135ef9190613df5565b90925090506135fe8382613b89565b909110159695505050505050565b82805461361890613e19565b90600052602060002090601f01602090048101928261363a5760008555613680565b82601f106136535782800160ff19823516178555613680565b82800160010185558215613680579182015b82811115613680578235825591602001919060010190613665565b5061368c929150613690565b5090565b5b8082111561368c5760008155600101613691565b6000602082840312156136b757600080fd5b5035919050565b6001600160a01b03811681146136d357600080fd5b50565b600080600080608085870312156136ec57600080fd5b8435935060208501356136fe816136be565b93969395505050506040820135916060013590565b60008083601f84011261372557600080fd5b50813567ffffffffffffffff81111561373d57600080fd5b6020830191508360208260051b850101111561375857600080fd5b9250929050565b60008060008060006080868803121561377757600080fd5b85359450602086013567ffffffffffffffff81111561379557600080fd5b6137a188828901613713565b9699909850959660408101359660609091013595509350505050565b600080604083850312156137d057600080fd5b50508035926020909101359150565b6000806000606084860312156137f457600080fd5b505081359360208301359350604090920135919050565b60005b8381101561382657818101518382015260200161380e565b83811115612cba5750506000910152565b8381528215156020820152606060408201526000825180606084015261386481608085016020870161380b565b601f01601f191691909101608001949350505050565b6000806000806060858703121561389057600080fd5b84359350602085013567ffffffffffffffff8111156138ae57600080fd5b6138ba87828801613713565b9598909750949560400135949350505050565b634e487b7160e01b600052604160045260246000fd5b604051601f8201601f1916810167ffffffffffffffff8111828210171561390c5761390c6138cd565b604052919050565b60008060006060848603121561392957600080fd5b8335613934816136be565b92506020848101359250604085013567ffffffffffffffff8082111561395957600080fd5b818701915087601f83011261396d57600080fd5b81358181111561397f5761397f6138cd565b613991601f8201601f191685016138e3565b915080825288848285010111156139a757600080fd5b80848401858401376000848284010152508093505050509250925092565b6000602082840312156139d757600080fd5b813561266d816136be565b60008083601f8401126139f457600080fd5b50813567ffffffffffffffff811115613a0c57600080fd5b60208301915083602082850101111561375857600080fd5b600080600060408486031215613a3957600080fd5b83359250602084013567ffffffffffffffff811115613a5757600080fd5b613a63868287016139e2565b9497909650939450505050565b634e487b7160e01b600052602160045260246000fd5b6020810160038310613aa857634e487b7160e01b600052602160045260246000fd5b91905290565b600080600080600060808688031215613ac657600080fd5b8535945060208601359350604086013567ffffffffffffffff811115613aeb57600080fd5b613af7888289016139e2565b96999598509660600135949350505050565b600060208284031215613b1b57600080fd5b81516002811061266d57600080fd5b80518015158114613b3a57600080fd5b919050565b600060208284031215613b5157600080fd5b61266d82613b2a565b600060208284031215613b6c57600080fd5b5051919050565b634e487b7160e01b600052601160045260246000fd5b60008219821115613b9c57613b9c613b73565b500190565b634e487b7160e01b600052603260045260246000fd5b600082821015613bc957613bc9613b73565b500390565b6000816000190483118215151615613be857613be8613b73565b500290565b634e487b7160e01b600052601260045260246000fd5b600082613c1257613c12613bed565b500490565b6020808252601e908201527f44697370757465206a756d70656420746f206120706172656e7420444b210000604082015260600190565b600060208284031215613c6057600080fd5b81516005811061266d57600080fd5b6000600019821415613c8357613c83613b73565b5060010190565b60208082526024908201527f416363657373206e6f7420616c6c6f7765643a204b6c65726f73436f7265206f60408201526337363c9760e11b606082015260800190565b600067ffffffffffffffff821115613ce857613ce86138cd565b5060051b60200190565b600082601f830112613d0357600080fd5b81516020613d18613d1383613cce565b6138e3565b82815260059290921b84018101918181019086841115613d3757600080fd5b8286015b84811015613d525780518352918301918301613d3b565b509695505050505050565b600080600060608486031215613d7257600080fd5b83519250602084015167ffffffffffffffff80821115613d9157600080fd5b613d9d87838801613cf2565b93506040860151915080821115613db357600080fd5b50613dc086828701613cf2565b9150509250925092565b600082613dd957613dd9613bed565b500690565b600081613ded57613ded613b73565b506000190190565b60008060408385031215613e0857600080fd5b505080516020909101519092909150565b600181811c90821680613e2d57607f821691505b60208210811415613e4e57634e487b7160e01b600052602260045260246000fd5b50919050565b838152600060208481840152606060408401526000845481600182811c915080831680613e8257607f831692505b858310811415613ea057634e487b7160e01b85526022600452602485fd5b6060880183905260808801818015613ebf5760018114613ed057613efb565b60ff19861682528782019650613efb565b60008b81526020902060005b86811015613ef557815484820152908501908901613edc565b83019750505b50949b9a5050505050505050505050565b60008060408385031215613f1f57600080fd5b82519150613f2f60208401613b2a565b90509250929050565b60208082526022908201527f416363657373206e6f7420616c6c6f7765643a20476f7665726e6f72206f6e6c6040820152613c9760f11b606082015260800190565b60008251613f8c81846020870161380b565b9190910192915050565b60208152816020820152818360408301376000818301604090810191909152601f909201601f19160101919050565b60008060008060008060c08789031215613fde57600080fd5b8651955060208088015195506040880151945060608801519350608088015167ffffffffffffffff81111561401257600080fd5b8801601f81018a1361402357600080fd5b8051614031613d1382613cce565b81815260059190911b8201830190838101908c83111561405057600080fd5b928401925b82841015614077578351614068816136be565b82529284019290840190614055565b809650505050505060a08701519050929550929550929556fea2646970667358221220af6cdb0618447ae93150c03ca39d152f87da137b4ff454179d6a5013eb99220664736f6c63430008090033",
  "devdoc": {
    "kind": "dev",
    "methods": {
      "areCommitsAllCast(uint256)": {
        "details": "Returns true if all of the jurors have cast their commits for the last round.",
        "params": {
          "_coreDisputeID": "The ID of the dispute in Kleros Core."
        },
        "returns": {
          "_0": "Whether all of the jurors have cast their commits for the last round."
        }
      },
      "areVotesAllCast(uint256)": {
        "details": "Returns true if all of the jurors have cast their votes for the last round.",
        "params": {
          "_coreDisputeID": "The ID of the dispute in Kleros Core."
        },
        "returns": {
          "_0": "Whether all of the jurors have cast their votes for the last round."
        }
      },
      "castCommit(uint256,uint256[],bytes32)": {
        "details": "Sets the caller's commit for the specified votes.  `O(n)` where  `n` is the number of votes.",
        "params": {
          "_commit": "The commit.",
          "_coreDisputeID": "The ID of the dispute in Kleros Core.",
          "_voteIDs": "The IDs of the votes."
        }
      },
      "castVote(uint256,uint256[],uint256,uint256)": {
        "details": "Sets the caller's choices for the specified votes.  `O(n)` where  `n` is the number of votes.",
        "params": {
          "_choice": "The choice.",
          "_coreDisputeID": "The ID of the dispute in Kleros Core.",
          "_salt": "The salt for the commit if the votes were hidden.",
          "_voteIDs": "The IDs of the votes."
        }
      },
      "changeCore(address)": {
        "details": "Changes the `core` storage variable.",
        "params": {
          "_core": "The new value for the `core` storage variable."
        }
      },
      "changeGovernor(address)": {
        "details": "Changes the `governor` storage variable.",
        "params": {
          "_governor": "The new value for the `governor` storage variable."
        }
      },
      "changeRandomNumberGenerator(address)": {
        "details": "Changes the `_rng` storage variable.",
        "params": {
          "_rng": "The new value for the `RNGenerator` storage variable."
        }
      },
      "constructor": {
        "details": "Constructor.",
        "params": {
          "_core": "The KlerosCore arbitrator.",
          "_governor": "The governor's address.",
          "_rng": "The random number generator."
        }
      },
      "createDispute(uint256,uint256,bytes,uint256)": {
        "details": "Creates a local dispute and maps it to the dispute ID in the Core contract.  Note: Access restricted to Kleros Core only.",
        "params": {
          "_coreDisputeID": "The ID of the dispute in Kleros Core.",
          "_extraData": "Additional info about the dispute, for possible use in future dispute kits.",
          "_nbVotes": "Number of votes for this dispute.",
          "_numberOfChoices": "Number of choices of the dispute"
        }
      },
      "currentRuling(uint256)": {
        "details": "Gets the current ruling of a specified dispute.",
        "params": {
          "_coreDisputeID": "The ID of the dispute in Kleros Core."
        },
        "returns": {
          "ruling": "The current ruling."
        }
      },
      "draw(uint256)": {
        "details": "Draws the juror from the sortition tree. The drawn address is picked up by Kleros Core.  Note: Access restricted to Kleros Core only.",
        "params": {
          "_coreDisputeID": "The ID of the dispute in Kleros Core."
        },
        "returns": {
          "drawnAddress": "The drawn address."
        }
      },
      "executeGovernorProposal(address,uint256,bytes)": {
        "details": "Allows the governor to call anything on behalf of the contract.",
        "params": {
          "_amount": "The value sent with the call.",
          "_data": "The data sent with the call.",
          "_destination": "The destination of the call."
        }
      },
      "fundAppeal(uint256,uint256)": {
        "details": "Manages contributions, and appeals a dispute if at least two choices are fully funded.  Note that the surplus deposit will be reimbursed.",
        "params": {
          "_choice": "A choice that receives funding.",
          "_coreDisputeID": "Index of the dispute in Kleros Core."
        }
      },
      "getCoherentCount(uint256,uint256)": {
        "details": "Gets the number of jurors who are eligible to a reward in this round.",
        "params": {
          "_coreDisputeID": "The ID of the dispute in Kleros Core, not in the Dispute Kit.",
          "_coreRoundID": "The ID of the round in Kleros Core, not in the Dispute Kit."
        },
        "returns": {
          "_0": "The number of coherent jurors."
        }
      },
      "getDegreeOfCoherence(uint256,uint256,uint256)": {
        "details": "Gets the degree of coherence of a particular voter. This function is called by Kleros Core in order to determine the amount of the reward.",
        "params": {
          "_coreDisputeID": "The ID of the dispute in Kleros Core, not in the Dispute Kit.",
          "_coreRoundID": "The ID of the round in Kleros Core, not in the Dispute Kit.",
          "_voteID": "The ID of the vote."
        },
        "returns": {
          "_0": "The degree of coherence in basis points."
        }
      },
      "getLastRoundResult(uint256)": {
        "details": "Returns the voting data from the most relevant round.",
        "params": {
          "_coreDisputeID": "The ID of the dispute in Kleros Core, not in the Dispute Kit."
        },
        "returns": {
          "tied": "Whether it's a tie or not.",
          "winningChoiece": "The winning choice of this round."
        }
      },
      "isResolving()": {
        "details": "Returns true if the dispute kit is ready to Resolve, regardless of the number of disputes without jurors.",
        "returns": {
          "_0": "Whether the dispute kit is ready to resolve, regardless of the number of disputes without jurors."
        }
      },
      "isVoteActive(uint256,uint256,uint256)": {
        "details": "Returns true if the specified voter was active in this round.",
        "params": {
          "_coreDisputeID": "The ID of the dispute in Kleros Core, not in the Dispute Kit.",
          "_coreRoundID": "The ID of the round in Kleros Core, not in the Dispute Kit.",
          "_voteID": "The ID of the voter."
        },
        "returns": {
          "_0": "Whether the voter was active or not."
        }
      },
      "passPhase()": {
        "details": "Passes the phase."
      },
      "submitEvidence(uint256,string)": {
        "details": "Submits evidence.",
        "params": {
          "_evidence": "IPFS path to evidence, example: '/ipfs/Qmarwkf7C9RuzDEJNnarT3WZ7kem5bk8DZAzx78acJjMFH/evidence.json'.",
          "_evidenceGroupID": "Unique identifier of the evidence group the evidence belongs to. It's the submitter responsability to submit the right evidence group ID."
        }
      },
      "withdrawFeesAndRewards(uint256,address,uint256,uint256)": {
        "details": "Allows those contributors who attempted to fund an appeal round to withdraw any reimbursable fees or rewards after the dispute gets resolved.",
        "params": {
          "_beneficiary": "The address whose rewards to withdraw.",
          "_choice": "The ruling option that the caller wants to withdraw from.",
          "_coreDisputeID": "Index of the dispute in Kleros Core contract.",
          "_round": "The round the caller wants to withdraw from."
        },
        "returns": {
          "amount": "The withdrawn amount."
        }
      }
    },
    "stateVariables": {
      "disputesWithoutJurors": {
        "details": "Returns the number of disputes without jurors in the dispute kit.",
        "return": "The number of disputes without jurors in the dispute kit.",
        "returns": {
          "_0": "The number of disputes without jurors in the dispute kit."
        }
      }
    },
    "title": "DisputeKitClassic  Dispute kit implementation of the Kleros v1 features including:  - a drawing system: proportional to staked PNK,  - a vote aggreation system: plurality,  - an incentive system: equal split between coherent votes,  - an appeal system: fund 2 choices only, vote on any choice.",
    "version": 1
  },
  "userdoc": {
    "kind": "user",
    "methods": {},
    "version": 1
  },
  "storageLayout": {
    "storage": [
      {
        "astId": 6005,
        "contract": "src/arbitration/dispute-kits/DisputeKitClassic.sol:DisputeKitClassic",
        "label": "governor",
        "offset": 0,
        "slot": "0",
        "type": "t_address"
      },
      {
        "astId": 6008,
        "contract": "src/arbitration/dispute-kits/DisputeKitClassic.sol:DisputeKitClassic",
        "label": "core",
        "offset": 0,
        "slot": "1",
        "type": "t_contract(KlerosCore)5800"
      },
      {
        "astId": 6182,
        "contract": "src/arbitration/dispute-kits/DisputeKitClassic.sol:DisputeKitClassic",
        "label": "rng",
        "offset": 0,
        "slot": "2",
        "type": "t_contract(RNG)16413"
      },
      {
        "astId": 6184,
        "contract": "src/arbitration/dispute-kits/DisputeKitClassic.sol:DisputeKitClassic",
        "label": "RNBlock",
        "offset": 0,
        "slot": "3",
        "type": "t_uint256"
      },
      {
        "astId": 6186,
        "contract": "src/arbitration/dispute-kits/DisputeKitClassic.sol:DisputeKitClassic",
        "label": "RN",
        "offset": 0,
        "slot": "4",
        "type": "t_uint256"
      },
      {
        "astId": 6189,
        "contract": "src/arbitration/dispute-kits/DisputeKitClassic.sol:DisputeKitClassic",
        "label": "phase",
        "offset": 0,
        "slot": "5",
        "type": "t_enum(Phase)6105"
      },
      {
        "astId": 6191,
        "contract": "src/arbitration/dispute-kits/DisputeKitClassic.sol:DisputeKitClassic",
        "label": "disputesWithoutJurors",
        "offset": 0,
        "slot": "6",
        "type": "t_uint256"
      },
      {
        "astId": 6195,
        "contract": "src/arbitration/dispute-kits/DisputeKitClassic.sol:DisputeKitClassic",
        "label": "disputes",
        "offset": 0,
        "slot": "7",
        "type": "t_array(t_struct(Dispute)6120_storage)dyn_storage"
      },
      {
        "astId": 6199,
        "contract": "src/arbitration/dispute-kits/DisputeKitClassic.sol:DisputeKitClassic",
        "label": "coreDisputeIDToLocal",
        "offset": 0,
        "slot": "8",
        "type": "t_mapping(t_uint256,t_uint256)"
      }
    ],
    "types": {
      "t_address": {
        "encoding": "inplace",
        "label": "address",
        "numberOfBytes": "20"
      },
      "t_array(t_struct(Dispute)6120_storage)dyn_storage": {
        "base": "t_struct(Dispute)6120_storage",
        "encoding": "dynamic_array",
        "label": "struct DisputeKitClassic.Dispute[]",
        "numberOfBytes": "32"
      },
      "t_array(t_struct(Round)6158_storage)dyn_storage": {
        "base": "t_struct(Round)6158_storage",
        "encoding": "dynamic_array",
        "label": "struct DisputeKitClassic.Round[]",
        "numberOfBytes": "32"
      },
      "t_array(t_struct(Vote)6167_storage)dyn_storage": {
        "base": "t_struct(Vote)6167_storage",
        "encoding": "dynamic_array",
        "label": "struct DisputeKitClassic.Vote[]",
        "numberOfBytes": "32"
      },
      "t_array(t_uint256)dyn_storage": {
        "base": "t_uint256",
        "encoding": "dynamic_array",
        "label": "uint256[]",
        "numberOfBytes": "32"
      },
      "t_bool": {
        "encoding": "inplace",
        "label": "bool",
        "numberOfBytes": "1"
      },
      "t_bytes32": {
        "encoding": "inplace",
        "label": "bytes32",
        "numberOfBytes": "32"
      },
      "t_bytes_storage": {
        "encoding": "bytes",
        "label": "bytes",
        "numberOfBytes": "32"
      },
      "t_contract(KlerosCore)5800": {
        "encoding": "inplace",
        "label": "contract KlerosCore",
        "numberOfBytes": "20"
      },
      "t_contract(RNG)16413": {
        "encoding": "inplace",
        "label": "contract RNG",
        "numberOfBytes": "20"
      },
      "t_enum(Phase)6105": {
        "encoding": "inplace",
        "label": "enum DisputeKitClassic.Phase",
        "numberOfBytes": "1"
      },
      "t_mapping(t_address,t_mapping(t_uint256,t_uint256))": {
        "encoding": "mapping",
        "key": "t_address",
        "label": "mapping(address => mapping(uint256 => uint256))",
        "numberOfBytes": "32",
        "value": "t_mapping(t_uint256,t_uint256)"
      },
      "t_mapping(t_uint256,t_bool)": {
        "encoding": "mapping",
        "key": "t_uint256",
        "label": "mapping(uint256 => bool)",
        "numberOfBytes": "32",
        "value": "t_bool"
      },
      "t_mapping(t_uint256,t_uint256)": {
        "encoding": "mapping",
        "key": "t_uint256",
        "label": "mapping(uint256 => uint256)",
        "numberOfBytes": "32",
        "value": "t_uint256"
      },
      "t_struct(Dispute)6120_storage": {
        "encoding": "inplace",
        "label": "struct DisputeKitClassic.Dispute",
        "members": [
          {
            "astId": 6109,
            "contract": "src/arbitration/dispute-kits/DisputeKitClassic.sol:DisputeKitClassic",
            "label": "rounds",
            "offset": 0,
            "slot": "0",
            "type": "t_array(t_struct(Round)6158_storage)dyn_storage"
          },
          {
            "astId": 6111,
            "contract": "src/arbitration/dispute-kits/DisputeKitClassic.sol:DisputeKitClassic",
            "label": "numberOfChoices",
            "offset": 0,
            "slot": "1",
            "type": "t_uint256"
          },
          {
            "astId": 6113,
            "contract": "src/arbitration/dispute-kits/DisputeKitClassic.sol:DisputeKitClassic",
            "label": "jumped",
            "offset": 0,
            "slot": "2",
            "type": "t_bool"
          },
          {
            "astId": 6117,
            "contract": "src/arbitration/dispute-kits/DisputeKitClassic.sol:DisputeKitClassic",
            "label": "coreRoundIDToLocal",
            "offset": 0,
            "slot": "3",
            "type": "t_mapping(t_uint256,t_uint256)"
          },
          {
            "astId": 6119,
            "contract": "src/arbitration/dispute-kits/DisputeKitClassic.sol:DisputeKitClassic",
            "label": "extraData",
            "offset": 0,
            "slot": "4",
            "type": "t_bytes_storage"
          }
        ],
        "numberOfBytes": "160"
      },
      "t_struct(Round)6158_storage": {
        "encoding": "inplace",
        "label": "struct DisputeKitClassic.Round",
        "members": [
          {
            "astId": 6124,
            "contract": "src/arbitration/dispute-kits/DisputeKitClassic.sol:DisputeKitClassic",
            "label": "votes",
            "offset": 0,
            "slot": "0",
            "type": "t_array(t_struct(Vote)6167_storage)dyn_storage"
          },
          {
            "astId": 6126,
            "contract": "src/arbitration/dispute-kits/DisputeKitClassic.sol:DisputeKitClassic",
            "label": "winningChoice",
            "offset": 0,
            "slot": "1",
            "type": "t_uint256"
          },
          {
            "astId": 6130,
            "contract": "src/arbitration/dispute-kits/DisputeKitClassic.sol:DisputeKitClassic",
            "label": "counts",
            "offset": 0,
            "slot": "2",
            "type": "t_mapping(t_uint256,t_uint256)"
          },
          {
            "astId": 6132,
            "contract": "src/arbitration/dispute-kits/DisputeKitClassic.sol:DisputeKitClassic",
            "label": "tied",
            "offset": 0,
            "slot": "3",
            "type": "t_bool"
          },
          {
            "astId": 6134,
            "contract": "src/arbitration/dispute-kits/DisputeKitClassic.sol:DisputeKitClassic",
            "label": "totalVoted",
            "offset": 0,
            "slot": "4",
            "type": "t_uint256"
          },
          {
            "astId": 6136,
            "contract": "src/arbitration/dispute-kits/DisputeKitClassic.sol:DisputeKitClassic",
            "label": "totalCommitted",
            "offset": 0,
            "slot": "5",
            "type": "t_uint256"
          },
          {
            "astId": 6140,
            "contract": "src/arbitration/dispute-kits/DisputeKitClassic.sol:DisputeKitClassic",
            "label": "paidFees",
            "offset": 0,
            "slot": "6",
            "type": "t_mapping(t_uint256,t_uint256)"
          },
          {
            "astId": 6144,
            "contract": "src/arbitration/dispute-kits/DisputeKitClassic.sol:DisputeKitClassic",
            "label": "hasPaid",
            "offset": 0,
            "slot": "7",
            "type": "t_mapping(t_uint256,t_bool)"
          },
          {
            "astId": 6150,
            "contract": "src/arbitration/dispute-kits/DisputeKitClassic.sol:DisputeKitClassic",
            "label": "contributions",
            "offset": 0,
            "slot": "8",
            "type": "t_mapping(t_address,t_mapping(t_uint256,t_uint256))"
          },
          {
            "astId": 6152,
            "contract": "src/arbitration/dispute-kits/DisputeKitClassic.sol:DisputeKitClassic",
            "label": "feeRewards",
            "offset": 0,
            "slot": "9",
            "type": "t_uint256"
          },
          {
            "astId": 6155,
            "contract": "src/arbitration/dispute-kits/DisputeKitClassic.sol:DisputeKitClassic",
            "label": "fundedChoices",
            "offset": 0,
            "slot": "10",
            "type": "t_array(t_uint256)dyn_storage"
          },
          {
            "astId": 6157,
            "contract": "src/arbitration/dispute-kits/DisputeKitClassic.sol:DisputeKitClassic",
            "label": "nbVotes",
            "offset": 0,
            "slot": "11",
            "type": "t_uint256"
          }
        ],
        "numberOfBytes": "384"
      },
      "t_struct(Vote)6167_storage": {
        "encoding": "inplace",
        "label": "struct DisputeKitClassic.Vote",
        "members": [
          {
            "astId": 6160,
            "contract": "src/arbitration/dispute-kits/DisputeKitClassic.sol:DisputeKitClassic",
            "label": "account",
            "offset": 0,
            "slot": "0",
            "type": "t_address"
          },
          {
            "astId": 6162,
            "contract": "src/arbitration/dispute-kits/DisputeKitClassic.sol:DisputeKitClassic",
            "label": "commit",
            "offset": 0,
            "slot": "1",
            "type": "t_bytes32"
          },
          {
            "astId": 6164,
            "contract": "src/arbitration/dispute-kits/DisputeKitClassic.sol:DisputeKitClassic",
            "label": "choice",
            "offset": 0,
            "slot": "2",
            "type": "t_uint256"
          },
          {
            "astId": 6166,
            "contract": "src/arbitration/dispute-kits/DisputeKitClassic.sol:DisputeKitClassic",
            "label": "voted",
            "offset": 0,
            "slot": "3",
            "type": "t_bool"
          }
        ],
        "numberOfBytes": "128"
      },
      "t_uint256": {
        "encoding": "inplace",
        "label": "uint256",
        "numberOfBytes": "32"
      }
    }
  }
}