{
  "address": "0xA2c538AA05BBCc44c213441f6f3777223D2BF9e5",
  "abi": [
    {
      "inputs": [
        {
          "internalType": "address",
          "name": "_governor",
          "type": "address"
        },
        {
          "internalType": "contract KlerosCore",
          "name": "_core",
          "type": "address"
        },
        {
          "internalType": "contract RNG",
          "name": "_rng",
          "type": "address"
        }
      ],
      "stateMutability": "nonpayable",
      "type": "constructor"
    },
    {
      "anonymous": false,
      "inputs": [
        {
          "indexed": true,
          "internalType": "uint256",
          "name": "_coreDisputeID",
          "type": "uint256"
        },
        {
          "indexed": true,
          "internalType": "uint256",
          "name": "_coreRoundID",
          "type": "uint256"
        },
        {
          "indexed": true,
          "internalType": "uint256",
          "name": "_choice",
          "type": "uint256"
        }
      ],
      "name": "ChoiceFunded",
      "type": "event"
    },
    {
      "anonymous": false,
      "inputs": [
        {
          "indexed": true,
          "internalType": "uint256",
          "name": "_coreDisputeID",
          "type": "uint256"
        },
        {
          "indexed": true,
          "internalType": "uint256",
          "name": "_coreRoundID",
          "type": "uint256"
        },
        {
          "indexed": false,
          "internalType": "uint256",
          "name": "_choice",
          "type": "uint256"
        },
        {
          "indexed": true,
          "internalType": "address",
          "name": "_contributor",
          "type": "address"
        },
        {
          "indexed": false,
          "internalType": "uint256",
          "name": "_amount",
          "type": "uint256"
        }
      ],
      "name": "Contribution",
      "type": "event"
    },
    {
      "anonymous": false,
      "inputs": [
        {
          "indexed": true,
          "internalType": "contract IArbitrator",
          "name": "_arbitrator",
          "type": "address"
        },
        {
          "indexed": true,
          "internalType": "uint256",
          "name": "_evidenceGroupID",
          "type": "uint256"
        },
        {
          "indexed": true,
          "internalType": "address",
          "name": "_party",
          "type": "address"
        },
        {
          "indexed": false,
          "internalType": "string",
          "name": "_evidence",
          "type": "string"
        }
      ],
      "name": "Evidence",
      "type": "event"
    },
    {
      "anonymous": false,
      "inputs": [
        {
          "indexed": true,
          "internalType": "uint256",
          "name": "_coreDisputeID",
          "type": "uint256"
        },
        {
          "indexed": true,
          "internalType": "address",
          "name": "_juror",
          "type": "address"
        },
        {
          "indexed": true,
          "internalType": "uint256",
          "name": "_choice",
          "type": "uint256"
        },
        {
          "indexed": false,
          "internalType": "string",
          "name": "_justification",
          "type": "string"
        }
      ],
      "name": "Justification",
      "type": "event"
    },
    {
      "anonymous": false,
      "inputs": [
        {
          "indexed": false,
          "internalType": "enum DisputeKitClassic.Phase",
          "name": "_phase",
          "type": "uint8"
        }
      ],
      "name": "NewPhaseDisputeKit",
      "type": "event"
    },
    {
      "anonymous": false,
      "inputs": [
        {
          "indexed": true,
          "internalType": "uint256",
          "name": "_coreDisputeID",
          "type": "uint256"
        },
        {
          "indexed": true,
          "internalType": "uint256",
          "name": "_coreRoundID",
          "type": "uint256"
        },
        {
          "indexed": false,
          "internalType": "uint256",
          "name": "_choice",
          "type": "uint256"
        },
        {
          "indexed": true,
          "internalType": "address",
          "name": "_contributor",
          "type": "address"
        },
        {
          "indexed": false,
          "internalType": "uint256",
          "name": "_amount",
          "type": "uint256"
        }
      ],
      "name": "Withdrawal",
      "type": "event"
    },
    {
      "inputs": [],
      "name": "LOSER_APPEAL_PERIOD_MULTIPLIER",
      "outputs": [
        {
          "internalType": "uint256",
          "name": "",
          "type": "uint256"
        }
      ],
      "stateMutability": "view",
      "type": "function"
    },
    {
      "inputs": [],
      "name": "LOSER_STAKE_MULTIPLIER",
      "outputs": [
        {
          "internalType": "uint256",
          "name": "",
          "type": "uint256"
        }
      ],
      "stateMutability": "view",
      "type": "function"
    },
    {
      "inputs": [],
      "name": "ONE_BASIS_POINT",
      "outputs": [
        {
          "internalType": "uint256",
          "name": "",
          "type": "uint256"
        }
      ],
      "stateMutability": "view",
      "type": "function"
    },
    {
      "inputs": [],
      "name": "RN",
      "outputs": [
        {
          "internalType": "uint256",
          "name": "",
          "type": "uint256"
        }
      ],
      "stateMutability": "view",
      "type": "function"
    },
    {
      "inputs": [],
      "name": "RNBlock",
      "outputs": [
        {
          "internalType": "uint256",
          "name": "",
          "type": "uint256"
        }
      ],
      "stateMutability": "view",
      "type": "function"
    },
    {
      "inputs": [],
      "name": "WINNER_STAKE_MULTIPLIER",
      "outputs": [
        {
          "internalType": "uint256",
          "name": "",
          "type": "uint256"
        }
      ],
      "stateMutability": "view",
      "type": "function"
    },
    {
      "inputs": [
        {
          "internalType": "uint256",
          "name": "_coreDisputeID",
          "type": "uint256"
        }
      ],
      "name": "areCommitsAllCast",
      "outputs": [
        {
          "internalType": "bool",
          "name": "",
          "type": "bool"
        }
      ],
      "stateMutability": "view",
      "type": "function"
    },
    {
      "inputs": [
        {
          "internalType": "uint256",
          "name": "_coreDisputeID",
          "type": "uint256"
        }
      ],
      "name": "areVotesAllCast",
      "outputs": [
        {
          "internalType": "bool",
          "name": "",
          "type": "bool"
        }
      ],
      "stateMutability": "view",
      "type": "function"
    },
    {
      "inputs": [
        {
          "internalType": "uint256",
          "name": "_coreDisputeID",
          "type": "uint256"
        },
        {
          "internalType": "uint256[]",
          "name": "_voteIDs",
          "type": "uint256[]"
        },
        {
          "internalType": "bytes32",
          "name": "_commit",
          "type": "bytes32"
        }
      ],
      "name": "castCommit",
      "outputs": [],
      "stateMutability": "nonpayable",
      "type": "function"
    },
    {
      "inputs": [
        {
          "internalType": "uint256",
          "name": "_coreDisputeID",
          "type": "uint256"
        },
        {
          "internalType": "uint256[]",
          "name": "_voteIDs",
          "type": "uint256[]"
        },
        {
          "internalType": "uint256",
          "name": "_choice",
          "type": "uint256"
        },
        {
          "internalType": "uint256",
          "name": "_salt",
          "type": "uint256"
        },
        {
          "internalType": "string",
          "name": "_justification",
          "type": "string"
        }
      ],
      "name": "castVote",
      "outputs": [],
      "stateMutability": "nonpayable",
      "type": "function"
    },
    {
      "inputs": [
        {
          "internalType": "address",
          "name": "_core",
          "type": "address"
        }
      ],
      "name": "changeCore",
      "outputs": [],
      "stateMutability": "nonpayable",
      "type": "function"
    },
    {
      "inputs": [
        {
          "internalType": "address payable",
          "name": "_governor",
          "type": "address"
        }
      ],
      "name": "changeGovernor",
      "outputs": [],
      "stateMutability": "nonpayable",
      "type": "function"
    },
    {
      "inputs": [
        {
          "internalType": "contract RNG",
          "name": "_rng",
          "type": "address"
        }
      ],
      "name": "changeRandomNumberGenerator",
      "outputs": [],
      "stateMutability": "nonpayable",
      "type": "function"
    },
    {
      "inputs": [],
      "name": "core",
      "outputs": [
        {
          "internalType": "contract KlerosCore",
          "name": "",
          "type": "address"
        }
      ],
      "stateMutability": "view",
      "type": "function"
    },
    {
      "inputs": [
        {
          "internalType": "uint256",
          "name": "",
          "type": "uint256"
        }
      ],
      "name": "coreDisputeIDToLocal",
      "outputs": [
        {
          "internalType": "uint256",
          "name": "",
          "type": "uint256"
        }
      ],
      "stateMutability": "view",
      "type": "function"
    },
    {
      "inputs": [
        {
          "internalType": "uint256",
          "name": "_coreDisputeID",
          "type": "uint256"
        },
        {
          "internalType": "uint256",
          "name": "_numberOfChoices",
          "type": "uint256"
        },
        {
          "internalType": "bytes",
          "name": "_extraData",
          "type": "bytes"
        },
        {
          "internalType": "uint256",
          "name": "_nbVotes",
          "type": "uint256"
        }
      ],
      "name": "createDispute",
      "outputs": [],
      "stateMutability": "nonpayable",
      "type": "function"
    },
    {
      "inputs": [
        {
          "internalType": "uint256",
          "name": "_coreDisputeID",
          "type": "uint256"
        }
      ],
      "name": "currentRuling",
      "outputs": [
        {
          "internalType": "uint256",
          "name": "ruling",
          "type": "uint256"
        }
      ],
      "stateMutability": "view",
      "type": "function"
    },
    {
      "inputs": [
        {
          "internalType": "uint256",
          "name": "",
          "type": "uint256"
        }
      ],
      "name": "disputes",
      "outputs": [
        {
          "internalType": "uint256",
          "name": "numberOfChoices",
          "type": "uint256"
        },
        {
          "internalType": "bool",
          "name": "jumped",
          "type": "bool"
        },
        {
          "internalType": "bytes",
          "name": "extraData",
          "type": "bytes"
        }
      ],
      "stateMutability": "view",
      "type": "function"
    },
    {
      "inputs": [],
      "name": "disputesWithoutJurors",
      "outputs": [
        {
          "internalType": "uint256",
          "name": "",
          "type": "uint256"
        }
      ],
      "stateMutability": "view",
      "type": "function"
    },
    {
      "inputs": [
        {
          "internalType": "uint256",
          "name": "_coreDisputeID",
          "type": "uint256"
        }
      ],
      "name": "draw",
      "outputs": [
        {
          "internalType": "address",
          "name": "drawnAddress",
          "type": "address"
        }
      ],
      "stateMutability": "nonpayable",
      "type": "function"
    },
    {
      "inputs": [
        {
          "internalType": "address",
          "name": "_destination",
          "type": "address"
        },
        {
          "internalType": "uint256",
          "name": "_amount",
          "type": "uint256"
        },
        {
          "internalType": "bytes",
          "name": "_data",
          "type": "bytes"
        }
      ],
      "name": "executeGovernorProposal",
      "outputs": [],
      "stateMutability": "nonpayable",
      "type": "function"
    },
    {
      "inputs": [
        {
          "internalType": "uint256",
          "name": "_coreDisputeID",
          "type": "uint256"
        },
        {
          "internalType": "uint256",
          "name": "_choice",
          "type": "uint256"
        }
      ],
      "name": "fundAppeal",
      "outputs": [],
      "stateMutability": "payable",
      "type": "function"
    },
    {
      "inputs": [
        {
          "internalType": "uint256",
          "name": "_coreDisputeID",
          "type": "uint256"
        },
        {
          "internalType": "uint256",
          "name": "_coreRoundID",
          "type": "uint256"
        }
      ],
      "name": "getCoherentCount",
      "outputs": [
        {
          "internalType": "uint256",
          "name": "",
          "type": "uint256"
        }
      ],
      "stateMutability": "view",
      "type": "function"
    },
    {
      "inputs": [
        {
          "internalType": "uint256",
          "name": "_coreDisputeID",
          "type": "uint256"
        },
        {
          "internalType": "uint256",
          "name": "_coreRoundID",
          "type": "uint256"
        },
        {
          "internalType": "uint256",
          "name": "_voteID",
          "type": "uint256"
        }
      ],
      "name": "getDegreeOfCoherence",
      "outputs": [
        {
          "internalType": "uint256",
          "name": "",
          "type": "uint256"
        }
      ],
      "stateMutability": "view",
      "type": "function"
    },
    {
      "inputs": [
        {
          "internalType": "uint256",
          "name": "_coreDisputeID",
          "type": "uint256"
        }
      ],
      "name": "getLastRoundResult",
      "outputs": [
        {
          "internalType": "uint256",
          "name": "winningChoice",
          "type": "uint256"
        },
        {
          "internalType": "bool",
          "name": "tied",
          "type": "bool"
        }
      ],
      "stateMutability": "view",
      "type": "function"
    },
    {
      "inputs": [
        {
          "internalType": "uint256",
          "name": "_coreDisputeID",
          "type": "uint256"
        },
        {
          "internalType": "uint256",
          "name": "_coreRoundID",
          "type": "uint256"
        },
        {
          "internalType": "uint256",
          "name": "_choice",
          "type": "uint256"
        }
      ],
      "name": "getRoundInfo",
      "outputs": [
        {
          "internalType": "uint256",
          "name": "winningChoice",
          "type": "uint256"
        },
        {
          "internalType": "bool",
          "name": "tied",
          "type": "bool"
        },
        {
          "internalType": "uint256",
          "name": "totalVoted",
          "type": "uint256"
        },
        {
          "internalType": "uint256",
          "name": "totalCommited",
          "type": "uint256"
        },
        {
          "internalType": "uint256",
          "name": "nbVoters",
          "type": "uint256"
        },
        {
          "internalType": "uint256",
          "name": "choiceCount",
          "type": "uint256"
        }
      ],
      "stateMutability": "view",
      "type": "function"
    },
    {
      "inputs": [
        {
          "internalType": "uint256",
          "name": "_coreDisputeID",
          "type": "uint256"
        },
        {
          "internalType": "uint256",
          "name": "_coreRoundID",
          "type": "uint256"
        },
        {
          "internalType": "uint256",
          "name": "_voteID",
          "type": "uint256"
        }
      ],
      "name": "getVoteInfo",
      "outputs": [
        {
          "internalType": "address",
          "name": "account",
          "type": "address"
        },
        {
          "internalType": "bytes32",
          "name": "commit",
          "type": "bytes32"
        },
        {
          "internalType": "uint256",
          "name": "choice",
          "type": "uint256"
        },
        {
          "internalType": "bool",
          "name": "voted",
          "type": "bool"
        }
      ],
      "stateMutability": "view",
      "type": "function"
    },
    {
      "inputs": [],
      "name": "governor",
      "outputs": [
        {
          "internalType": "address",
          "name": "",
          "type": "address"
        }
      ],
      "stateMutability": "view",
      "type": "function"
    },
    {
      "inputs": [],
      "name": "isResolving",
      "outputs": [
        {
          "internalType": "bool",
          "name": "",
          "type": "bool"
        }
      ],
      "stateMutability": "view",
      "type": "function"
    },
    {
      "inputs": [
        {
          "internalType": "uint256",
          "name": "_coreDisputeID",
          "type": "uint256"
        },
        {
          "internalType": "uint256",
          "name": "_coreRoundID",
          "type": "uint256"
        },
        {
          "internalType": "uint256",
          "name": "_voteID",
          "type": "uint256"
        }
      ],
      "name": "isVoteActive",
      "outputs": [
        {
          "internalType": "bool",
          "name": "",
          "type": "bool"
        }
      ],
      "stateMutability": "view",
      "type": "function"
    },
    {
      "inputs": [],
      "name": "passPhase",
      "outputs": [],
      "stateMutability": "nonpayable",
      "type": "function"
    },
    {
      "inputs": [],
      "name": "phase",
      "outputs": [
        {
          "internalType": "enum DisputeKitClassic.Phase",
          "name": "",
          "type": "uint8"
        }
      ],
      "stateMutability": "view",
      "type": "function"
    },
    {
      "inputs": [],
      "name": "rng",
      "outputs": [
        {
          "internalType": "contract RNG",
          "name": "",
          "type": "address"
        }
      ],
      "stateMutability": "view",
      "type": "function"
    },
    {
      "inputs": [
        {
          "internalType": "uint256",
          "name": "_evidenceGroupID",
          "type": "uint256"
        },
        {
          "internalType": "string",
          "name": "_evidence",
          "type": "string"
        }
      ],
      "name": "submitEvidence",
      "outputs": [],
      "stateMutability": "nonpayable",
      "type": "function"
    },
    {
      "inputs": [
        {
          "internalType": "uint256",
          "name": "_coreDisputeID",
          "type": "uint256"
        },
        {
          "internalType": "address payable",
          "name": "_beneficiary",
          "type": "address"
        },
        {
          "internalType": "uint256",
          "name": "_coreRoundID",
          "type": "uint256"
        },
        {
          "internalType": "uint256",
          "name": "_choice",
          "type": "uint256"
        }
      ],
      "name": "withdrawFeesAndRewards",
      "outputs": [
        {
          "internalType": "uint256",
          "name": "amount",
          "type": "uint256"
        }
      ],
      "stateMutability": "nonpayable",
      "type": "function"
    }
  ],
  "transactionHash": "0x4b45304bb73451188e13c640f8469233418c330fbc60347b56b467d18268389e",
  "args": [
    "0xF50E77f2A2B6138D16c6c7511562E5C33c4B15A3",
    "0x0000000000000000000000000000000000000000",
    "0x078dAd05373d19d7fd6829735b765F12242a4300"
  ],
  "numDeployments": 4,
  "solcInputHash": "344957ae5857246fac5b346f78fc8116",
  "bytecode": "0x60806040523480156200001157600080fd5b50604051620043c0380380620043c0833981016040819052620000349162000090565b600080546001600160a01b039485166001600160a01b031991821617909155600180549385169382169390931790925560028054919093169116179055620000e4565b6001600160a01b03811681146200008d57600080fd5b50565b600080600060608486031215620000a657600080fd5b8351620000b38162000077565b6020850151909350620000c68162000077565b6040850151909250620000d98162000077565b809150509250925092565b6142cc80620000f46000396000f3fe6080604052600436106102045760003560e01c8063796490f911610118578063ba66fde7116100a0578063d605787b1161006f578063d605787b14610638578063da3beb8c14610658578063e349ad3014610479578063e4c0aaf414610678578063f2f4eb261461069857600080fd5b8063ba66fde7146105cd578063be467604146105ed578063c41bda6114610603578063c86ed8921461062357600080fd5b8063a6a7f0eb116100e7578063a6a7f0eb14610504578063a7cc08fe14610524578063b1c9fe6e14610570578063b34bfaa814610597578063b6ede540146105ad57600080fd5b8063796490f9146104795780637c04034e1461048f5780638e426460146104af5780639b05c261146104cf57600080fd5b80633b3041471161019b5780635c92e2f61161016a5780635c92e2f6146103b65780635e4a627d146103d657806369f3f041146103ec5780636d4cd8ea14610439578063751accd01461045957600080fd5b80633b304147146103345780634b2f0ea0146103545780634fe264fb14610367578063564a565d1461038757600080fd5b80630c340a24116101d75780630c340a241461028f5780631200aabc146102c75780631c3db16d146102f4578063362c34791461031457600080fd5b8063023d44df1461020957806303432744146102325780630b274f2e146102485780630baa64d11461025f575b600080fd5b34801561021557600080fd5b5061021f60035481565b6040519081526020015b60405180910390f35b34801561023e57600080fd5b5061021f60065481565b34801561025457600080fd5b5061025d6106b8565b005b34801561026b57600080fd5b5061027f61027a36600461380a565b610c8a565b6040519015158152602001610229565b34801561029b57600080fd5b506000546102af906001600160a01b031681565b6040516001600160a01b039091168152602001610229565b3480156102d357600080fd5b5061021f6102e236600461380a565b60086020526000908152604090205481565b34801561030057600080fd5b5061021f61030f36600461380a565b610d01565b34801561032057600080fd5b5061021f61032f36600461383b565b610d8b565b34801561034057600080fd5b506102af61034f36600461380a565b611179565b61025d610362366004613878565b611731565b34801561037357600080fd5b5061021f61038236600461389a565b611fcb565b34801561039357600080fd5b506103a76103a236600461380a565b61211b565b6040516102299392919061391e565b3480156103c257600080fd5b5061025d6103d1366004613994565b6121e1565b3480156103e257600080fd5b5061021f60045481565b3480156103f857600080fd5b5061040c61040736600461389a565b6124ed565b604080519687529415156020870152938501929092526060840152608083015260a082015260c001610229565b34801561044557600080fd5b5061027f61045436600461380a565b6125a5565b34801561046557600080fd5b5061025d610474366004613a86565b61261c565b34801561048557600080fd5b5061021f61271081565b34801561049b57600080fd5b5061025d6104aa366004613af3565b6126ee565b3480156104bb57600080fd5b5061025d6104ca366004613b8c565b612e26565b3480156104db57600080fd5b506104ef6104ea36600461380a565b612e72565b60408051928352901515602083015201610229565b34801561051057600080fd5b5061025d61051f366004613beb565b612ef5565b34801561053057600080fd5b5061054461053f36600461389a565b612f47565b604080516001600160a01b03909516855260208501939093529183015215156060820152608001610229565b34801561057c57600080fd5b5060055461058a9060ff1681565b6040516102299190613c4d565b3480156105a357600080fd5b5061021f614e2081565b3480156105b957600080fd5b5061025d6105c8366004613c75565b61300d565b3480156105d957600080fd5b5061027f6105e836600461389a565b6131c6565b3480156105f957600080fd5b5061021f61138881565b34801561060f57600080fd5b5061025d61061e366004613b8c565b613261565b34801561062f57600080fd5b5061027f6132ad565b34801561064457600080fd5b506002546102af906001600160a01b031681565b34801561066457600080fd5b5061021f610673366004613878565b6132cd565b34801561068457600080fd5b5061025d610693366004613b8c565b61342d565b3480156106a457600080fd5b506001546102af906001600160a01b031681565b600154604080516358e4ff3760e11b815290516000926001600160a01b03169163b1c9fe6e916004808301926020929190829003018186803b1580156106fd57600080fd5b505afa158015610711573d6000803e3d6000fd5b505050506040513d601f19601f820116820180604052508101906107359190613cd0565b600181111561074657610746613c37565b14806107d35750600160009054906101000a90046001600160a01b03166001600160a01b031663b70c4e946040518163ffffffff1660e01b815260040160206040518083038186803b15801561079b57600080fd5b505afa1580156107af573d6000803e3d6000fd5b505050506040513d601f19601f820116820180604052508101906107d39190613d06565b1561085e57600060055460ff1660028111156107f1576107f1613c37565b14156108445760405162461bcd60e51b815260206004820152601a60248201527f416c726561647920696e205265736f6c76696e6720706861736500000000000060448201526064015b60405180910390fd5b600580546000919060ff19166001835b0217905550610c49565b60018060009054906101000a90046001600160a01b03166001600160a01b031663b1c9fe6e6040518163ffffffff1660e01b815260040160206040518083038186803b1580156108ad57600080fd5b505afa1580156108c1573d6000803e3d6000fd5b505050506040513d601f19601f820116820180604052508101906108e59190613cd0565b60018111156108f6576108f6613c37565b1415610c4957600060055460ff16600281111561091557610915613c37565b1415610ac45760006006541161096d5760405162461bcd60e51b815260206004820152601c60248201527f416c6c207468652064697370757465732068617665206a75726f727300000000604482015260640161083b565b600160009054906101000a90046001600160a01b03166001600160a01b0316633a1578606040518163ffffffff1660e01b815260040160206040518083038186803b1580156109bb57600080fd5b505afa1580156109cf573d6000803e3d6000fd5b505050506040513d601f19601f820116820180604052508101906109f39190613d21565b6109fe906014613d50565b431015610a4d5760405162461bcd60e51b815260206004820152601e60248201527f546f6f20736f6f6e3a204c312066696e616c6974792072657175697265640000604482015260640161083b565b4360038190556002546040516303dce1a760e51b815260048101929092526001600160a01b031690637b9c34e090602401600060405180830381600087803b158015610a9857600080fd5b505af1158015610aac573d6000803e3d6000fd5b5050600580546001935090915060ff19168280610854565b600160055460ff166002811115610add57610add613c37565b1415610bcf5760025460035460405163ca4742f160e01b81526001600160a01b039092169163ca4742f191610b189160040190815260200190565b602060405180830381600087803b158015610b3257600080fd5b505af1158015610b46573d6000803e3d6000fd5b505050506040513d601f19601f82011682018060405250810190610b6a9190613d21565b6004819055610bbb5760405162461bcd60e51b815260206004820152601e60248201527f52616e646f6d206e756d626572206973206e6f74207265616479207965740000604482015260640161083b565b600580546002919060ff1916600183610854565b600260055460ff166002811115610be857610be8613c37565b1415610c495760065415610c3e5760405162461bcd60e51b815260206004820152601d60248201527f4e6f7420726561647920666f72205265736f6c76696e67207068617365000000604482015260640161083b565b6005805460ff191690555b6005546040517fdeeacb313775e12b099f27fe481aa82204a1806233e7125cc8a9f719e5ddfdc591610c809160ff90911690613c4d565b60405180910390a1565b600081815260086020526040812054600780548392908110610cae57610cae613d68565b60009182526020822060059091020180549092508290610cd090600190613d7e565b81548110610ce057610ce0613d68565b60009182526020909120600c90910201805460059091015414949350505050565b600081815260086020526040812054600780548392908110610d2557610d25613d68565b60009182526020822060059091020180549092508290610d4790600190613d7e565b81548110610d5757610d57613d68565b60009182526020909120600c90910201600381015490915060ff16610d80578060010154610d83565b60005b949350505050565b60015460405163564a565d60e01b81526004810186905260009182916001600160a01b039091169063564a565d9060240160a06040518083038186803b158015610dd457600080fd5b505afa158015610de8573d6000803e3d6000fd5b505050506040513d601f19601f82011682018060405250810190610e0c9190613dac565b50935050505080610e5f5760405162461bcd60e51b815260206004820152601b60248201527f446973707574652073686f756c64206265207265736f6c7665642e0000000000604482015260640161083b565b600086815260086020526040812054600780549091908110610e8357610e83613d68565b60009182526020808320888452600360059093020191820190526040822054815491935083918110610eb757610eb7613d68565b600091825260208220600154604051631c3db16d60e01b8152600481018d9052600c9390930290910193506001600160a01b031690631c3db16d9060240160206040518083038186803b158015610f0d57600080fd5b505afa158015610f21573d6000803e3d6000fd5b505050506040513d601f19601f82011682018060405250810190610f459190613d21565b600087815260078401602052604090205490915060ff16610f8d576001600160a01b0388166000908152600883016020908152604080832089845290915290205494506110d3565b80861415611003576000868152600683016020526040902054610fb1576000610ffc565b600086815260068301602090815260408083205460098601546001600160a01b038d1685526008870184528285208b8652909352922054610ff29190613e13565b610ffc9190613e48565b94506110d3565b600081815260078301602052604090205460ff166110d35781600601600083600a0160018154811061103757611037613d68565b906000526020600020015481526020019081526020016000205482600601600084600a0160008154811061106d5761106d613d68565b90600052602060002001548152602001908152602001600020546110919190613d50565b60098301546001600160a01b038a16600090815260088501602090815260408083208b84529091529020546110c69190613e13565b6110d09190613e48565b94505b6001600160a01b03881660009081526008830160209081526040808320898452909152812055841561116d576040516001600160a01b0389169086156108fc029087906000818181858888f15050604080518a8152602081018a90526001600160a01b038d1694508b93508d92507f54b3cab3cb5c4aca3209db1151caff092e878011202e43a36782d4ebe0b963ae910160405180910390a45b50505050949350505050565b6001546000906001600160a01b031633146111a65760405162461bcd60e51b815260040161083b90613e5c565b6000828152600860205260409020546007805484929081106111ca576111ca613d68565b600091825260209091206002600590920201015460ff16156111fe5760405162461bcd60e51b815260040161083b90613ea0565b600260055460ff16600281111561121757611217613c37565b146112645760405162461bcd60e51b815260206004820152601a60248201527f53686f756c6420626520696e2064726177696e67207068617365000000000000604482015260640161083b565b60008381526008602052604081205460078054909190811061128857611288613d68565b600091825260208220600590910201805490925082906112aa90600190613d7e565b815481106112ba576112ba613d68565b60009182526020822060015460405163564a565d60e01b8152600481018a9052600c9390930290910193506001600160a01b03169063564a565d9060240160a06040518083038186803b15801561131057600080fd5b505afa158015611324573d6000803e3d6000fd5b505050506040513d601f19601f820116820180604052508101906113489190613dac565b50929350506001600160601b038316915060009050611365613479565b60015460405163bfabfe8f60e01b81526004810185905260006024820181905292935082916001600160a01b03169063bfabfe8f9060440160606040518083038186803b1580156113b557600080fd5b505afa1580156113c9573d6000803e3d6000fd5b505050506040513d601f19601f820116820180604052508101906113ed9190613ed7565b50600154604051630a48b58160e21b81526004810188905260006024820181905293955091935082916001600160a01b0390911690632922d6049060440160206040518083038186803b15801561144357600080fd5b505afa158015611457573d6000803e3d6000fd5b505050506040513d601f19601f8201168201806040525081019061147b9190613d21565b6114859086613f05565b90505b826114938386613e13565b61149e906001613d50565b101561158b5760015b848111611585576000816114bb8588613e13565b6114c59190613d50565b600154604051630a48b58160e21b8152600481018b9052602481018390529192506000916001600160a01b0390911690632922d6049060440160206040518083038186803b15801561151657600080fd5b505afa15801561152a573d6000803e3d6000fd5b505050506040513d601f19601f8201168201806040525081019061154e9190613d21565b9050808410611568576115618185613d7e565b9350611570565b509250611585565b5050808061157d90613f19565b9150506114a7565b50611488565b60015460405163bfabfe8f60e01b815260048101889052602481018490526000916001600160a01b03169063bfabfe8f9060440160606040518083038186803b1580156115d757600080fd5b505afa1580156115eb573d6000803e3d6000fd5b505050506040513d601f19601f8201168201806040525081019061160f9190613ed7565b9250505061161c816134fc565b9b506116288d8d613527565b1561171c578860000160405180608001604052808e6001600160a01b031681526020016000801b81526020016000815260200160001515815250908060018154018082558091505060019003906000526020600020906004020160009091909190915060008201518160000160006101000a8154816001600160a01b0302191690836001600160a01b03160217905550602082015181600101556040820151816002015560608201518160030160006101000a81548160ff021916908315150217905550505088600b015489600001805490501415611717576006805490600061171183613f34565b91905055505b611721565b60009b505b5050505050505050505050919050565b60008281526008602052604090205460078054849290811061175557611755613d68565b600091825260209091206002600590920201015460ff16156117895760405162461bcd60e51b815260040161083b90613ea0565b6000838152600860205260408120546007805490919081106117ad576117ad613d68565b9060005260206000209060050201905080600101548311156118115760405162461bcd60e51b815260206004820181905260248201527f5468657265206973206e6f20737563682072756c696e6720746f2066756e642e604482015260640161083b565b60015460405163afe15cfb60e01b81526004810186905260009182916001600160a01b039091169063afe15cfb90602401604080518083038186803b15801561185957600080fd5b505afa15801561186d573d6000803e3d6000fd5b505050506040513d601f19601f820116820180604052508101906118919190613f4b565b915091508142101580156118a457508042105b6118e95760405162461bcd60e51b815260206004820152601660248201527520b83832b0b6103832b934b7b21034b99037bb32b91760511b604482015260640161083b565b604051631c3db16d60e01b81526004810187905260009086903090631c3db16d9060240160206040518083038186803b15801561192557600080fd5b505afa158015611939573d6000803e3d6000fd5b505050506040513d601f19601f8201168201806040525081019061195d9190613d21565b141561196c57506127106119ec565b61271061138861197c8585613d7e565b6119869190613e13565b6119909190613e48565b61199a8442613d7e565b106119e75760405162461bcd60e51b815260206004820152601f60248201527f41707065616c20706572696f64206973206f76657220666f72206c6f73657200604482015260640161083b565b50614e205b835460009085906119ff90600190613d7e565b81548110611a0f57611a0f613d68565b60009182526020822060018054604051637e37c78b60e11b8152600481018e9052600c949094029092019450916001600160a01b039091169063fc6f8f169060240160206040518083038186803b158015611a6957600080fd5b505afa158015611a7d573d6000803e3d6000fd5b505050506040513d601f19601f82011682018060405250810190611aa19190613d21565b611aab9190613d7e565b600089815260078401602052604090205490915060ff1615611b0f5760405162461bcd60e51b815260206004820152601b60248201527f41707065616c2066656520697320616c726561647920706169642e0000000000604482015260640161083b565b600154604051632cf6413f60e11b8152600481018b90526000916001600160a01b0316906359ec827e9060240160206040518083038186803b158015611b5457600080fd5b505afa158015611b68573d6000803e3d6000fd5b505050506040513d601f19601f82011682018060405250810190611b8c9190613d21565b90506000612710611b9d8684613e13565b611ba79190613e48565b611bb19083613d50565b60008b815260068601602052604081205491925090821115611c545760008b81526006860160205260409020543490611bea9084613d7e565b11611c0f5760008b8152600686016020526040902054611c0a9083613d7e565b611c11565b345b604080518d815260208101839052919250339186918f917fcae597f39a3ad75c2e10d46b031f023c5c2babcd58ca0491b122acda3968d4c0910160405180910390a45b33600090815260088601602090815260408083208e845290915281208054839290611c80908490613d50565b909155505060008b815260068601602052604081208054839290611ca5908490613d50565b909155505060008b81526006860160205260409020548211611d4f5760008b815260068601602052604081205460098701805491929091611ce7908490613d50565b9091555050600a8501805460018181018355600092835260208084209092018e90558d8352600788019091526040808320805460ff1916909217909155518c9186918f917fed764996238e4c1c873ae3af7ae2f00f1f6f4f10b9ac7d4bbea4a764c5dea00991a45b600a85015460011015611f8f57828560090154611d6c9190613d7e565b60098601556001546040516319b8152960e01b8152600481018e90526001600160a01b03909116906319b815299060240160206040518083038186803b158015611db557600080fd5b505afa158015611dc9573d6000803e3d6000fd5b505050506040513d601f19601f82011682018060405250810190611ded9190613d06565b15611e065760028901805460ff19166001179055611f0f565b885460038a016000611e19876001613d50565b8152602001908152602001600020819055506000896000016001816001815401808255809150500390600052602060002090600c02019050600160009054906101000a90046001600160a01b03166001600160a01b031663c71f42538e6040518263ffffffff1660e01b8152600401611e9491815260200190565b60206040518083038186803b158015611eac57600080fd5b505afa158015611ec0573d6000803e3d6000fd5b505050506040513d601f19601f82011682018060405250810190611ee49190613d21565b600b82015560038101805460ff1916600117905560068054906000611f0883613f19565b9190505550505b600160009054906101000a90046001600160a01b03166001600160a01b031663c3569902848e8c600101548d6004016040518563ffffffff1660e01b8152600401611f5c93929190613faa565b6000604051808303818588803b158015611f7557600080fd5b505af1158015611f89573d6000803e3d6000fd5b50505050505b80341115611fbd57336108fc611fa58334613d7e565b6040518115909202916000818181858888f150505050505b505050505050505050505050565b600083815260086020526040812054600780548392908110611fef57611fef613d68565b6000918252602080832087845260036005909302019182019052604082205481549193508391811061202357612023613d68565b90600052602060002090600c0201600001848154811061204557612045613d68565b600091825260208220600154604051639b05c26160e01b815260048082018c905293909302909101935082916001600160a01b0390911690639b05c26190602401604080518083038186803b15801561209d57600080fd5b505afa1580156120b1573d6000803e3d6000fd5b505050506040513d601f19601f820116820180604052508101906120d59190614062565b6003850154919350915060ff1680156120f8575081836002015414806120f85750805b1561210b57612710945050505050612114565b60009450505050505b9392505050565b6007818154811061212b57600080fd5b600091825260209091206005909102016001810154600282015460048301805492945060ff909116929161215e90613f6f565b80601f016020809104026020016040519081016040528092919081815260200182805461218a90613f6f565b80156121d75780601f106121ac576101008083540402835291602001916121d7565b820191906000526020600020905b8154815290600101906020018083116121ba57829003601f168201915b5050505050905083565b60008481526008602052604090205460078054869290811061220557612205613d68565b600091825260209091206002600590920201015460ff16156122395760405162461bcd60e51b815260040161083b90613ea0565b60015460405163564a565d60e01b8152600481018790526000916001600160a01b03169063564a565d9060240160a06040518083038186803b15801561227e57600080fd5b505afa158015612292573d6000803e3d6000fd5b505050506040513d601f19601f820116820180604052508101906122b69190613dac565b50909350600192506122c6915050565b8160048111156122d8576122d8613c37565b146123355760405162461bcd60e51b815260206004820152602760248201527f54686520646973707574652073686f756c6420626520696e20436f6d6d6974206044820152663832b934b7b21760c91b606482015260840161083b565b826123725760405162461bcd60e51b815260206004820152600d60248201526c22b6b83a3c9031b7b6b6b4ba1760991b604482015260640161083b565b60008681526008602052604081205460078054909190811061239657612396613d68565b600091825260208220600590910201805490925082906123b890600190613d7e565b815481106123c8576123c8613d68565b90600052602060002090600c0201905060005b868110156124c65733828989848181106123f7576123f7613d68565b905060200201358154811061240e5761240e613d68565b60009182526020909120600490910201546001600160a01b0316146124755760405162461bcd60e51b815260206004820152601f60248201527f5468652063616c6c65722068617320746f206f776e2074686520766f74652e00604482015260640161083b565b858289898481811061248957612489613d68565b90506020020135815481106124a0576124a0613d68565b6000918252602090912060016004909202010155806124be81613f19565b9150506123db565b50868690508160050160008282546124de9190613d50565b90915550505050505050505050565b60008060008060008060006007600860008c8152602001908152602001600020548154811061251e5761251e613d68565b600091825260208083208c845260036005909302019182019052604082205481549193508391811061255257612552613d68565b600091825260208083206001600c909302019182015460038301546004840154600585015485549f87526002909501909352604090942054909f60ff9094169e50909c50909a9950975095505050505050565b6000818152600860205260408120546007805483929081106125c9576125c9613d68565b600091825260208220600590910201805490925082906125eb90600190613d7e565b815481106125fb576125fb613d68565b60009182526020909120600c90910201805460049091015414949350505050565b6000546001600160a01b031633146126465760405162461bcd60e51b815260040161083b9061408e565b6000836001600160a01b0316838360405161266191906140d0565b60006040518083038185875af1925050503d806000811461269e576040519150601f19603f3d011682016040523d82523d6000602084013e6126a3565b606091505b50509050806126e85760405162461bcd60e51b8152602060048201526011602482015270155b9cdd58d8d95cdcd99d5b0818d85b1b607a1b604482015260640161083b565b50505050565b60008681526008602052604090205460078054889290811061271257612712613d68565b600091825260209091206002600590920201015460ff16156127465760405162461bcd60e51b815260040161083b90613ea0565b60015460405163564a565d60e01b8152600481018990526000916001600160a01b03169063564a565d9060240160a06040518083038186803b15801561278b57600080fd5b505afa15801561279f573d6000803e3d6000fd5b505050506040513d601f19601f820116820180604052508101906127c39190613dac565b50909350600292506127d3915050565b8160048111156127e5576127e5613c37565b146128405760405162461bcd60e51b815260206004820152602560248201527f54686520646973707574652073686f756c6420626520696e20566f74652070656044820152643934b7b21760d91b606482015260840161083b565b856128825760405162461bcd60e51b8152602060048201526012602482015271139bc81d9bdd195251081c1c9bdd9a59195960721b604482015260640161083b565b6000888152600860205260408120546007805490919081106128a6576128a6613d68565b9060005260206000209060050201905080600101548611156129015760405162461bcd60e51b815260206004820152601460248201527343686f696365206f7574206f6620626f756e647360601b604482015260640161083b565b8054600090829061291490600190613d7e565b8154811061292457612924613d68565b60009182526020822060015460405163564a565d60e01b8152600481018f9052600c9390930290910193506001600160a01b03169063564a565d9060240160a06040518083038186803b15801561297a57600080fd5b505afa15801561298e573d6000803e3d6000fd5b505050506040513d601f19601f820116820180604052508101906129b29190613dac565b5050600154604051630fad06e960e11b81526001600160601b03851660048201529394506000936001600160a01b039091169250631f5a0dd2915060240160c06040518083038186803b158015612a0857600080fd5b505afa158015612a1c573d6000803e3d6000fd5b505050506040513d601f19601f82011682018060405250810190612a4091906140ec565b5050505091505060005b8a811015612cee5733848d8d84818110612a6657612a66613d68565b9050602002013581548110612a7d57612a7d613d68565b60009182526020909120600490910201546001600160a01b031614612ae45760405162461bcd60e51b815260206004820152601f60248201527f5468652063616c6c65722068617320746f206f776e2074686520766f74652e00604482015260640161083b565b811580612b58575089888a604051602001612b0193929190614144565b60405160208183030381529060405280519060200120846000018d8d84818110612b2d57612b2d613d68565b9050602002013581548110612b4457612b44613d68565b906000526020600020906004020160010154145b612bcc576040805162461bcd60e51b81526020600482015260248101919091527f54686520636f6d6d6974206d757374206d61746368207468652063686f69636560448201527f20696e20737562636f7572747320776974682068696464656e20766f7465732e606482015260840161083b565b838c8c83818110612bdf57612bdf613d68565b9050602002013581548110612bf657612bf6613d68565b600091825260209091206003600490920201015460ff1615612c4f5760405162461bcd60e51b81526020600482015260126024820152712b37ba329030b63932b0b23c9031b0b9ba1760711b604482015260640161083b565b89848d8d84818110612c6357612c63613d68565b9050602002013581548110612c7a57612c7a613d68565b60009182526020909120600260049092020101556001848d8d84818110612ca357612ca3613d68565b9050602002013581548110612cba57612cba613d68565b60009182526020909120600490910201600301805460ff191691151591909117905580612ce681613f19565b915050612a4a565b508a8a9050836004016000828254612d069190613d50565b90915550506000898152600284016020526040812080548c9290612d2b908490613d50565b90915550506001830154891415612d5b57600383015460ff1615612d565760038301805460ff191690555b612dd5565b60018301546000908152600284016020526040808220548b83529120541415612d9e57600383015460ff16612d565760038301805460ff19166001179055612dd5565b60018301546000908152600284016020526040808220548b83529120541115612dd5576001830189905560038301805460ff191690555b88336001600160a01b03168d7fbf654140f91f2e524d875f097947702b44380492730dd1653f5482c0b33e49cd8a604051612e109190614171565b60405180910390a4505050505050505050505050565b6000546001600160a01b03163314612e505760405162461bcd60e51b815260040161083b9061408e565b600180546001600160a01b0319166001600160a01b0392909216919091179055565b6000818152600860205260408120546007805483928392918110612e9857612e98613d68565b60009182526020822060059091020180549092508290612eba90600190613d7e565b81548110612eca57612eca613d68565b60009182526020909120600c909102016001810154600390910154909660ff90911695509350505050565b600154604051339185916001600160a01b03909116907fdccf2f8b2cc26eafcd61905cba744cff4b81d14740725f6376390dc6298a6a3c90612f3a9087908790614184565b60405180910390a4505050565b60008060008060006007600860008a81526020019081526020016000205481548110612f7557612f75613d68565b600091825260208083208a8452600360059093020191820190526040822054815491935083918110612fa957612fa9613d68565b90600052602060002090600c02016000018781548110612fcb57612fcb613d68565b600091825260209091206004909102018054600182015460028301546003909301546001600160a01b039092169c909b5091995060ff16975095505050505050565b6001546001600160a01b031633146130375760405162461bcd60e51b815260040161083b90613e5c565b60078054600181018255600091909152600581027fa66cc928b5edb82af9bd49922954155ab7b0942694bea4ce44661d9a8736c68981018690557fa66cc928b5edb82af9bd49922954155ab7b0942694bea4ce44661d9a8736c6888101906130c2907fa66cc928b5edb82af9bd49922954155ab7b0942694bea4ce44661d9a8736c68c018686613771565b50805460018054604051637e37c78b60e11b8152600481018b9052600385019260009290916001600160a01b039091169063fc6f8f169060240160206040518083038186803b15801561311457600080fd5b505afa158015613128573d6000803e3d6000fd5b505050506040513d601f19601f8201168201806040525081019061314c9190613d21565b6131569190613d7e565b81526020808201929092526040908101600090812093909355835460018181018655858552838520600b600c9093020191820188905560038201805460ff191690911790558a8452600890925282208490556006805491926131b783613f19565b91905055505050505050505050565b6000838152600860205260408120546007805483929081106131ea576131ea613d68565b6000918252602080832087845260036005909302019182019052604082205481549193508391811061321e5761321e613d68565b90600052602060002090600c0201600001848154811061324057613240613d68565b600091825260209091206004909102016003015460ff169695505050505050565b6000546001600160a01b0316331461328b5760405162461bcd60e51b815260040161083b9061408e565b600280546001600160a01b0319166001600160a01b0392909216919091179055565b60008060055460ff1660028111156132c7576132c7613c37565b14905090565b6000828152600860205260408120546007805483929081106132f1576132f1613d68565b6000918252602080832086845260036005909302019182019052604082205481549193508391811061332557613325613d68565b600091825260208220600154604051639b05c26160e01b8152600481018a9052600c93909302909101935082916001600160a01b0390911690639b05c26190602401604080518083038186803b15801561337e57600080fd5b505afa158015613392573d6000803e3d6000fd5b505050506040513d601f19601f820116820180604052508101906133b69190614062565b915091508260040154600014806133e45750801580156133e457506000828152600284016020526040902054155b156133f6576000945050505050613427565b801561340b5750506004015491506134279050565b5060009081526002909101602052604090205491506134279050565b92915050565b6000546001600160a01b031633146134575760405162461bcd60e51b815260040161083b9061408e565b600080546001600160a01b0319166001600160a01b0392909216919091179055565b600254604051630e39b00f60e11b81524360048201526000916001600160a01b031690631c73601e90602401602060405180830381600087803b1580156134bf57600080fd5b505af11580156134d3573d6000803e3d6000fd5b505050506040513d601f19601f820116820180604052508101906134f79190613d21565b905090565b600060405160005b601481101561351f5783811a81600c84010153600101613504565b505192915050565b60015460405163564a565d60e01b81526004810184905260009182916001600160a01b039091169063564a565d9060240160a06040518083038186803b15801561357057600080fd5b505afa158015613584573d6000803e3d6000fd5b505050506040513d601f19601f820116820180604052508101906135a89190613dac565b505060018054604051637e37c78b60e11b8152600481018a90529495506000946001600160a01b039091169350638a9bb02a9250889190849063fc6f8f169060240160206040518083038186803b15801561360257600080fd5b505afa158015613616573d6000803e3d6000fd5b505050506040513d601f19601f8201168201806040525081019061363a9190613d21565b6136449190613d7e565b6040516001600160e01b031960e085901b1681526004810192909252602482015260440160006040518083038186803b15801561368057600080fd5b505afa158015613694573d6000803e3d6000fd5b505050506040513d6000823e601f3d908101601f191682016040526136bc91908101906141b3565b5050600154604051631a383be960e31b81526001600160a01b038a811660048301526001600160601b0389166024830152959650600095869550909116925063d1c1df489150604401604080518083038186803b15801561371c57600080fd5b505afa158015613730573d6000803e3d6000fd5b505050506040513d601f19601f820116820180604052508101906137549190613f4b565b90925090506137638382613d50565b909110159695505050505050565b82805461377d90613f6f565b90600052602060002090601f01602090048101928261379f57600085556137e5565b82601f106137b85782800160ff198235161785556137e5565b828001600101855582156137e5579182015b828111156137e55782358255916020019190600101906137ca565b506137f19291506137f5565b5090565b5b808211156137f157600081556001016137f6565b60006020828403121561381c57600080fd5b5035919050565b6001600160a01b038116811461383857600080fd5b50565b6000806000806080858703121561385157600080fd5b84359350602085013561386381613823565b93969395505050506040820135916060013590565b6000806040838503121561388b57600080fd5b50508035926020909101359150565b6000806000606084860312156138af57600080fd5b505081359360208301359350604090920135919050565b60005b838110156138e15781810151838201526020016138c9565b838111156126e85750506000910152565b6000815180845261390a8160208601602086016138c6565b601f01601f19169290920160200192915050565b838152821515602082015260606040820152600061393f60608301846138f2565b95945050505050565b60008083601f84011261395a57600080fd5b50813567ffffffffffffffff81111561397257600080fd5b6020830191508360208260051b850101111561398d57600080fd5b9250929050565b600080600080606085870312156139aa57600080fd5b84359350602085013567ffffffffffffffff8111156139c857600080fd5b6139d487828801613948565b9598909750949560400135949350505050565b634e487b7160e01b600052604160045260246000fd5b604051601f8201601f1916810167ffffffffffffffff81118282101715613a2657613a266139e7565b604052919050565b600067ffffffffffffffff831115613a4857613a486139e7565b613a5b601f8401601f19166020016139fd565b9050828152838383011115613a6f57600080fd5b828260208301376000602084830101529392505050565b600080600060608486031215613a9b57600080fd5b8335613aa681613823565b925060208401359150604084013567ffffffffffffffff811115613ac957600080fd5b8401601f81018613613ada57600080fd5b613ae986823560208401613a2e565b9150509250925092565b60008060008060008060a08789031215613b0c57600080fd5b86359550602087013567ffffffffffffffff80821115613b2b57600080fd5b613b378a838b01613948565b909750955060408901359450606089013593506080890135915080821115613b5e57600080fd5b508701601f81018913613b7057600080fd5b613b7f89823560208401613a2e565b9150509295509295509295565b600060208284031215613b9e57600080fd5b813561211481613823565b60008083601f840112613bbb57600080fd5b50813567ffffffffffffffff811115613bd357600080fd5b60208301915083602082850101111561398d57600080fd5b600080600060408486031215613c0057600080fd5b83359250602084013567ffffffffffffffff811115613c1e57600080fd5b613c2a86828701613ba9565b9497909650939450505050565b634e487b7160e01b600052602160045260246000fd5b6020810160038310613c6f57634e487b7160e01b600052602160045260246000fd5b91905290565b600080600080600060808688031215613c8d57600080fd5b8535945060208601359350604086013567ffffffffffffffff811115613cb257600080fd5b613cbe88828901613ba9565b96999598509660600135949350505050565b600060208284031215613ce257600080fd5b81516002811061211457600080fd5b80518015158114613d0157600080fd5b919050565b600060208284031215613d1857600080fd5b61211482613cf1565b600060208284031215613d3357600080fd5b5051919050565b634e487b7160e01b600052601160045260246000fd5b60008219821115613d6357613d63613d3a565b500190565b634e487b7160e01b600052603260045260246000fd5b600082821015613d9057613d90613d3a565b500390565b80516001600160601b0381168114613d0157600080fd5b600080600080600060a08688031215613dc457600080fd5b613dcd86613d95565b94506020860151613ddd81613823565b604087015190945060058110613df257600080fd5b9250613e0060608701613cf1565b9150608086015190509295509295909350565b6000816000190483118215151615613e2d57613e2d613d3a565b500290565b634e487b7160e01b600052601260045260246000fd5b600082613e5757613e57613e32565b500490565b60208082526024908201527f416363657373206e6f7420616c6c6f7765643a204b6c65726f73436f7265206f60408201526337363c9760e11b606082015260800190565b6020808252601e908201527f44697370757465206a756d70656420746f206120706172656e7420444b210000604082015260600190565b600080600060608486031215613eec57600080fd5b8351925060208401519150604084015190509250925092565b600082613f1457613f14613e32565b500690565b6000600019821415613f2d57613f2d613d3a565b5060010190565b600081613f4357613f43613d3a565b506000190190565b60008060408385031215613f5e57600080fd5b505080516020909101519092909150565b600181811c90821680613f8357607f821691505b60208210811415613fa457634e487b7160e01b600052602260045260246000fd5b50919050565b838152600060208481840152606060408401526000845481600182811c915080831680613fd857607f831692505b858310811415613ff657634e487b7160e01b85526022600452602485fd5b6060880183905260808801818015614015576001811461402657614051565b60ff19861682528782019650614051565b60008b81526020902060005b8681101561404b57815484820152908501908901614032565b83019750505b50949b9a5050505050505050505050565b6000806040838503121561407557600080fd5b8251915061408560208401613cf1565b90509250929050565b60208082526022908201527f416363657373206e6f7420616c6c6f7765643a20476f7665726e6f72206f6e6c6040820152613c9760f11b606082015260800190565b600082516140e28184602087016138c6565b9190910192915050565b60008060008060008060c0878903121561410557600080fd5b61410e87613d95565b955061411c60208801613cf1565b945060408701519350606087015192506080870151915060a087015190509295509295509295565b8381526000835161415c8160208501602088016138c6565b60209201918201929092526040019392505050565b60208152600061211460208301846138f2565b60208152816020820152818360408301376000818301604090810191909152601f909201601f19160101919050565b60008060008060008060c087890312156141cc57600080fd5b8651955060208088015195506040880151945060608801519350608088015167ffffffffffffffff8082111561420157600080fd5b818a0191508a601f83011261421557600080fd5b815181811115614227576142276139e7565b8060051b91506142388483016139fd565b818152918301840191848101908d84111561425257600080fd5b938501935b8385101561427c578451925061426c83613823565b8282529385019390850190614257565b80975050505050505060a08701519050929550929550929556fea264697066735822122093e1025e8596baad92b8acbc1dfd801832f0c4845d9b926d2b306bac5cf1c9ee64736f6c63430008090033",
  "devdoc": {
    "kind": "dev",
    "methods": {
      "areCommitsAllCast(uint256)": {
        "details": "Returns true if all of the jurors have cast their commits for the last round.",
        "params": {
          "_coreDisputeID": "The ID of the dispute in Kleros Core."
        },
        "returns": {
          "_0": "Whether all of the jurors have cast their commits for the last round."
        }
      },
      "areVotesAllCast(uint256)": {
        "details": "Returns true if all of the jurors have cast their votes for the last round.",
        "params": {
          "_coreDisputeID": "The ID of the dispute in Kleros Core."
        },
        "returns": {
          "_0": "Whether all of the jurors have cast their votes for the last round."
        }
      },
      "castCommit(uint256,uint256[],bytes32)": {
        "details": "Sets the caller's commit for the specified votes. It can be called multiple times during the  commit period, each call overrides the commits of the previous one.  `O(n)` where  `n` is the number of votes.",
        "params": {
          "_commit": "The commit. Note that justification string is a part of the commit.",
          "_coreDisputeID": "The ID of the dispute in Kleros Core.",
          "_voteIDs": "The IDs of the votes."
        }
      },
      "castVote(uint256,uint256[],uint256,uint256,string)": {
        "details": "Sets the caller's choices for the specified votes.  `O(n)` where  `n` is the number of votes.",
        "params": {
          "_choice": "The choice.",
          "_coreDisputeID": "The ID of the dispute in Kleros Core.",
          "_justification": "Justification of the choice.",
          "_salt": "The salt for the commit if the votes were hidden.",
          "_voteIDs": "The IDs of the votes."
        }
      },
      "changeCore(address)": {
        "details": "Changes the `core` storage variable.",
        "params": {
          "_core": "The new value for the `core` storage variable."
        }
      },
      "changeGovernor(address)": {
        "details": "Changes the `governor` storage variable.",
        "params": {
          "_governor": "The new value for the `governor` storage variable."
        }
      },
      "changeRandomNumberGenerator(address)": {
        "details": "Changes the `_rng` storage variable.",
        "params": {
          "_rng": "The new value for the `RNGenerator` storage variable."
        }
      },
      "constructor": {
        "details": "Constructor.",
        "params": {
          "_core": "The KlerosCore arbitrator.",
          "_governor": "The governor's address.",
          "_rng": "The random number generator."
        }
      },
      "createDispute(uint256,uint256,bytes,uint256)": {
        "details": "Creates a local dispute and maps it to the dispute ID in the Core contract.  Note: Access restricted to Kleros Core only.",
        "params": {
          "_coreDisputeID": "The ID of the dispute in Kleros Core.",
          "_extraData": "Additional info about the dispute, for possible use in future dispute kits.",
          "_nbVotes": "Number of votes for this dispute.",
          "_numberOfChoices": "Number of choices of the dispute"
        }
      },
      "currentRuling(uint256)": {
        "details": "Gets the current ruling of a specified dispute.",
        "params": {
          "_coreDisputeID": "The ID of the dispute in Kleros Core."
        },
        "returns": {
          "ruling": "The current ruling."
        }
      },
      "draw(uint256)": {
        "details": "Draws the juror from the sortition tree. The drawn address is picked up by Kleros Core.  Note: Access restricted to Kleros Core only.",
        "params": {
          "_coreDisputeID": "The ID of the dispute in Kleros Core."
        },
        "returns": {
          "drawnAddress": "The drawn address."
        }
      },
      "executeGovernorProposal(address,uint256,bytes)": {
        "details": "Allows the governor to call anything on behalf of the contract.",
        "params": {
          "_amount": "The value sent with the call.",
          "_data": "The data sent with the call.",
          "_destination": "The destination of the call."
        }
      },
      "fundAppeal(uint256,uint256)": {
        "details": "Manages contributions, and appeals a dispute if at least two choices are fully funded.  Note that the surplus deposit will be reimbursed.",
        "params": {
          "_choice": "A choice that receives funding.",
          "_coreDisputeID": "Index of the dispute in Kleros Core."
        }
      },
      "getCoherentCount(uint256,uint256)": {
        "details": "Gets the number of jurors who are eligible to a reward in this round.",
        "params": {
          "_coreDisputeID": "The ID of the dispute in Kleros Core, not in the Dispute Kit.",
          "_coreRoundID": "The ID of the round in Kleros Core, not in the Dispute Kit."
        },
        "returns": {
          "_0": "The number of coherent jurors."
        }
      },
      "getDegreeOfCoherence(uint256,uint256,uint256)": {
        "details": "Gets the degree of coherence of a particular voter. This function is called by Kleros Core in order to determine the amount of the reward.",
        "params": {
          "_coreDisputeID": "The ID of the dispute in Kleros Core, not in the Dispute Kit.",
          "_coreRoundID": "The ID of the round in Kleros Core, not in the Dispute Kit.",
          "_voteID": "The ID of the vote."
        },
        "returns": {
          "_0": "The degree of coherence in basis points."
        }
      },
      "getLastRoundResult(uint256)": {
        "details": "Returns the voting data from the most relevant round.",
        "params": {
          "_coreDisputeID": "The ID of the dispute in Kleros Core, not in the Dispute Kit."
        },
        "returns": {
          "tied": "Whether it's a tie or not.",
          "winningChoice": "The winning choice of this round."
        }
      },
      "isResolving()": {
        "details": "Returns true if the dispute kit is ready to Resolve, regardless of the number of disputes without jurors.",
        "returns": {
          "_0": "Whether the dispute kit is ready to resolve, regardless of the number of disputes without jurors."
        }
      },
      "isVoteActive(uint256,uint256,uint256)": {
        "details": "Returns true if the specified voter was active in this round.",
        "params": {
          "_coreDisputeID": "The ID of the dispute in Kleros Core, not in the Dispute Kit.",
          "_coreRoundID": "The ID of the round in Kleros Core, not in the Dispute Kit.",
          "_voteID": "The ID of the voter."
        },
        "returns": {
          "_0": "Whether the voter was active or not."
        }
      },
      "passPhase()": {
        "details": "Passes the phase."
      },
      "submitEvidence(uint256,string)": {
        "details": "Submits evidence.",
        "params": {
          "_evidence": "IPFS path to evidence, example: '/ipfs/Qmarwkf7C9RuzDEJNnarT3WZ7kem5bk8DZAzx78acJjMFH/evidence.json'.",
          "_evidenceGroupID": "Unique identifier of the evidence group the evidence belongs to. It's the submitter responsability to submit the right evidence group ID."
        }
      },
      "withdrawFeesAndRewards(uint256,address,uint256,uint256)": {
        "details": "Allows those contributors who attempted to fund an appeal round to withdraw any reimbursable fees or rewards after the dispute gets resolved.",
        "params": {
          "_beneficiary": "The address whose rewards to withdraw.",
          "_choice": "The ruling option that the caller wants to withdraw from.",
          "_coreDisputeID": "Index of the dispute in Kleros Core contract.",
          "_coreRoundID": "The round in the Kleros Core contract the caller wants to withdraw from."
        },
        "returns": {
          "amount": "The withdrawn amount."
        }
      }
    },
    "stateVariables": {
      "disputesWithoutJurors": {
        "details": "Returns the number of disputes without jurors in the dispute kit.",
        "return": "The number of disputes without jurors in the dispute kit.",
        "returns": {
          "_0": "The number of disputes without jurors in the dispute kit."
        }
      }
    },
    "title": "DisputeKitClassic  Dispute kit implementation of the Kleros v1 features including:  - a drawing system: proportional to staked PNK,  - a vote aggreation system: plurality,  - an incentive system: equal split between coherent votes,  - an appeal system: fund 2 choices only, vote on any choice.",
    "version": 1
  },
  "userdoc": {
    "kind": "user",
    "methods": {},
    "version": 1
  },
  "storageLayout": {
    "storage": [
      {
        "astId": 6201,
        "contract": "src/arbitration/dispute-kits/DisputeKitClassic.sol:DisputeKitClassic",
        "label": "governor",
        "offset": 0,
        "slot": "0",
        "type": "t_address"
      },
      {
        "astId": 6204,
        "contract": "src/arbitration/dispute-kits/DisputeKitClassic.sol:DisputeKitClassic",
        "label": "core",
        "offset": 0,
        "slot": "1",
        "type": "t_contract(KlerosCore)5813"
      },
      {
        "astId": 6378,
        "contract": "src/arbitration/dispute-kits/DisputeKitClassic.sol:DisputeKitClassic",
        "label": "rng",
        "offset": 0,
        "slot": "2",
        "type": "t_contract(RNG)24354"
      },
      {
        "astId": 6380,
        "contract": "src/arbitration/dispute-kits/DisputeKitClassic.sol:DisputeKitClassic",
        "label": "RNBlock",
        "offset": 0,
        "slot": "3",
        "type": "t_uint256"
      },
      {
        "astId": 6382,
        "contract": "src/arbitration/dispute-kits/DisputeKitClassic.sol:DisputeKitClassic",
        "label": "RN",
        "offset": 0,
        "slot": "4",
        "type": "t_uint256"
      },
      {
        "astId": 6385,
        "contract": "src/arbitration/dispute-kits/DisputeKitClassic.sol:DisputeKitClassic",
        "label": "phase",
        "offset": 0,
        "slot": "5",
        "type": "t_enum(Phase)6301"
      },
      {
        "astId": 6387,
        "contract": "src/arbitration/dispute-kits/DisputeKitClassic.sol:DisputeKitClassic",
        "label": "disputesWithoutJurors",
        "offset": 0,
        "slot": "6",
        "type": "t_uint256"
      },
      {
        "astId": 6391,
        "contract": "src/arbitration/dispute-kits/DisputeKitClassic.sol:DisputeKitClassic",
        "label": "disputes",
        "offset": 0,
        "slot": "7",
        "type": "t_array(t_struct(Dispute)6316_storage)dyn_storage"
      },
      {
        "astId": 6395,
        "contract": "src/arbitration/dispute-kits/DisputeKitClassic.sol:DisputeKitClassic",
        "label": "coreDisputeIDToLocal",
        "offset": 0,
        "slot": "8",
        "type": "t_mapping(t_uint256,t_uint256)"
      }
    ],
    "types": {
      "t_address": {
        "encoding": "inplace",
        "label": "address",
        "numberOfBytes": "20"
      },
      "t_array(t_struct(Dispute)6316_storage)dyn_storage": {
        "base": "t_struct(Dispute)6316_storage",
        "encoding": "dynamic_array",
        "label": "struct DisputeKitClassic.Dispute[]",
        "numberOfBytes": "32"
      },
      "t_array(t_struct(Round)6354_storage)dyn_storage": {
        "base": "t_struct(Round)6354_storage",
        "encoding": "dynamic_array",
        "label": "struct DisputeKitClassic.Round[]",
        "numberOfBytes": "32"
      },
      "t_array(t_struct(Vote)6363_storage)dyn_storage": {
        "base": "t_struct(Vote)6363_storage",
        "encoding": "dynamic_array",
        "label": "struct DisputeKitClassic.Vote[]",
        "numberOfBytes": "32"
      },
      "t_array(t_uint256)dyn_storage": {
        "base": "t_uint256",
        "encoding": "dynamic_array",
        "label": "uint256[]",
        "numberOfBytes": "32"
      },
      "t_bool": {
        "encoding": "inplace",
        "label": "bool",
        "numberOfBytes": "1"
      },
      "t_bytes32": {
        "encoding": "inplace",
        "label": "bytes32",
        "numberOfBytes": "32"
      },
      "t_bytes_storage": {
        "encoding": "bytes",
        "label": "bytes",
        "numberOfBytes": "32"
      },
      "t_contract(KlerosCore)5813": {
        "encoding": "inplace",
        "label": "contract KlerosCore",
        "numberOfBytes": "20"
      },
      "t_contract(RNG)24354": {
        "encoding": "inplace",
        "label": "contract RNG",
        "numberOfBytes": "20"
      },
      "t_enum(Phase)6301": {
        "encoding": "inplace",
        "label": "enum DisputeKitClassic.Phase",
        "numberOfBytes": "1"
      },
      "t_mapping(t_address,t_mapping(t_uint256,t_uint256))": {
        "encoding": "mapping",
        "key": "t_address",
        "label": "mapping(address => mapping(uint256 => uint256))",
        "numberOfBytes": "32",
        "value": "t_mapping(t_uint256,t_uint256)"
      },
      "t_mapping(t_uint256,t_bool)": {
        "encoding": "mapping",
        "key": "t_uint256",
        "label": "mapping(uint256 => bool)",
        "numberOfBytes": "32",
        "value": "t_bool"
      },
      "t_mapping(t_uint256,t_uint256)": {
        "encoding": "mapping",
        "key": "t_uint256",
        "label": "mapping(uint256 => uint256)",
        "numberOfBytes": "32",
        "value": "t_uint256"
      },
      "t_struct(Dispute)6316_storage": {
        "encoding": "inplace",
        "label": "struct DisputeKitClassic.Dispute",
        "members": [
          {
            "astId": 6305,
            "contract": "src/arbitration/dispute-kits/DisputeKitClassic.sol:DisputeKitClassic",
            "label": "rounds",
            "offset": 0,
            "slot": "0",
            "type": "t_array(t_struct(Round)6354_storage)dyn_storage"
          },
          {
            "astId": 6307,
            "contract": "src/arbitration/dispute-kits/DisputeKitClassic.sol:DisputeKitClassic",
            "label": "numberOfChoices",
            "offset": 0,
            "slot": "1",
            "type": "t_uint256"
          },
          {
            "astId": 6309,
            "contract": "src/arbitration/dispute-kits/DisputeKitClassic.sol:DisputeKitClassic",
            "label": "jumped",
            "offset": 0,
            "slot": "2",
            "type": "t_bool"
          },
          {
            "astId": 6313,
            "contract": "src/arbitration/dispute-kits/DisputeKitClassic.sol:DisputeKitClassic",
            "label": "coreRoundIDToLocal",
            "offset": 0,
            "slot": "3",
            "type": "t_mapping(t_uint256,t_uint256)"
          },
          {
            "astId": 6315,
            "contract": "src/arbitration/dispute-kits/DisputeKitClassic.sol:DisputeKitClassic",
            "label": "extraData",
            "offset": 0,
            "slot": "4",
            "type": "t_bytes_storage"
          }
        ],
        "numberOfBytes": "160"
      },
      "t_struct(Round)6354_storage": {
        "encoding": "inplace",
        "label": "struct DisputeKitClassic.Round",
        "members": [
          {
            "astId": 6320,
            "contract": "src/arbitration/dispute-kits/DisputeKitClassic.sol:DisputeKitClassic",
            "label": "votes",
            "offset": 0,
            "slot": "0",
            "type": "t_array(t_struct(Vote)6363_storage)dyn_storage"
          },
          {
            "astId": 6322,
            "contract": "src/arbitration/dispute-kits/DisputeKitClassic.sol:DisputeKitClassic",
            "label": "winningChoice",
            "offset": 0,
            "slot": "1",
            "type": "t_uint256"
          },
          {
            "astId": 6326,
            "contract": "src/arbitration/dispute-kits/DisputeKitClassic.sol:DisputeKitClassic",
            "label": "counts",
            "offset": 0,
            "slot": "2",
            "type": "t_mapping(t_uint256,t_uint256)"
          },
          {
            "astId": 6328,
            "contract": "src/arbitration/dispute-kits/DisputeKitClassic.sol:DisputeKitClassic",
            "label": "tied",
            "offset": 0,
            "slot": "3",
            "type": "t_bool"
          },
          {
            "astId": 6330,
            "contract": "src/arbitration/dispute-kits/DisputeKitClassic.sol:DisputeKitClassic",
            "label": "totalVoted",
            "offset": 0,
            "slot": "4",
            "type": "t_uint256"
          },
          {
            "astId": 6332,
            "contract": "src/arbitration/dispute-kits/DisputeKitClassic.sol:DisputeKitClassic",
            "label": "totalCommitted",
            "offset": 0,
            "slot": "5",
            "type": "t_uint256"
          },
          {
            "astId": 6336,
            "contract": "src/arbitration/dispute-kits/DisputeKitClassic.sol:DisputeKitClassic",
            "label": "paidFees",
            "offset": 0,
            "slot": "6",
            "type": "t_mapping(t_uint256,t_uint256)"
          },
          {
            "astId": 6340,
            "contract": "src/arbitration/dispute-kits/DisputeKitClassic.sol:DisputeKitClassic",
            "label": "hasPaid",
            "offset": 0,
            "slot": "7",
            "type": "t_mapping(t_uint256,t_bool)"
          },
          {
            "astId": 6346,
            "contract": "src/arbitration/dispute-kits/DisputeKitClassic.sol:DisputeKitClassic",
            "label": "contributions",
            "offset": 0,
            "slot": "8",
            "type": "t_mapping(t_address,t_mapping(t_uint256,t_uint256))"
          },
          {
            "astId": 6348,
            "contract": "src/arbitration/dispute-kits/DisputeKitClassic.sol:DisputeKitClassic",
            "label": "feeRewards",
            "offset": 0,
            "slot": "9",
            "type": "t_uint256"
          },
          {
            "astId": 6351,
            "contract": "src/arbitration/dispute-kits/DisputeKitClassic.sol:DisputeKitClassic",
            "label": "fundedChoices",
            "offset": 0,
            "slot": "10",
            "type": "t_array(t_uint256)dyn_storage"
          },
          {
            "astId": 6353,
            "contract": "src/arbitration/dispute-kits/DisputeKitClassic.sol:DisputeKitClassic",
            "label": "nbVotes",
            "offset": 0,
            "slot": "11",
            "type": "t_uint256"
          }
        ],
        "numberOfBytes": "384"
      },
      "t_struct(Vote)6363_storage": {
        "encoding": "inplace",
        "label": "struct DisputeKitClassic.Vote",
        "members": [
          {
            "astId": 6356,
            "contract": "src/arbitration/dispute-kits/DisputeKitClassic.sol:DisputeKitClassic",
            "label": "account",
            "offset": 0,
            "slot": "0",
            "type": "t_address"
          },
          {
            "astId": 6358,
            "contract": "src/arbitration/dispute-kits/DisputeKitClassic.sol:DisputeKitClassic",
            "label": "commit",
            "offset": 0,
            "slot": "1",
            "type": "t_bytes32"
          },
          {
            "astId": 6360,
            "contract": "src/arbitration/dispute-kits/DisputeKitClassic.sol:DisputeKitClassic",
            "label": "choice",
            "offset": 0,
            "slot": "2",
            "type": "t_uint256"
          },
          {
            "astId": 6362,
            "contract": "src/arbitration/dispute-kits/DisputeKitClassic.sol:DisputeKitClassic",
            "label": "voted",
            "offset": 0,
            "slot": "3",
            "type": "t_bool"
          }
        ],
        "numberOfBytes": "128"
      },
      "t_uint256": {
        "encoding": "inplace",
        "label": "uint256",
        "numberOfBytes": "32"
      }
    }
  }
}