{
  "address": "0xf8A4a85e7153374A1b9BDA763a84252eC286843b",
  "abi": [
    {
      "inputs": [
        {
          "internalType": "uint256",
          "name": "_epochPeriod",
          "type": "uint256"
        },
        {
          "internalType": "address",
          "name": "_safeBridgeReceiver",
          "type": "address"
        }
      ],
      "stateMutability": "nonpayable",
      "type": "constructor"
    },
    {
      "anonymous": false,
      "inputs": [
        {
          "indexed": true,
          "internalType": "uint256",
          "name": "batchID",
          "type": "uint256"
        },
        {
          "indexed": false,
          "internalType": "uint256",
          "name": "batchSize",
          "type": "uint256"
        },
        {
          "indexed": false,
          "internalType": "uint256",
          "name": "epoch",
          "type": "uint256"
        },
        {
          "indexed": false,
          "internalType": "bytes32",
          "name": "batchMerkleRoot",
          "type": "bytes32"
        }
      ],
      "name": "BatchOutgoing",
      "type": "event"
    },
    {
      "anonymous": false,
      "inputs": [
        {
          "indexed": false,
          "internalType": "bytes",
          "name": "fastMessage",
          "type": "bytes"
        },
        {
          "indexed": false,
          "internalType": "bytes32",
          "name": "fastMessageHash",
          "type": "bytes32"
        }
      ],
      "name": "MessageReceived",
      "type": "event"
    },
    {
      "anonymous": false,
      "inputs": [
        {
          "indexed": true,
          "internalType": "uint256",
          "name": "epoch",
          "type": "uint256"
        },
        {
          "indexed": false,
          "internalType": "bytes32",
          "name": "canonicalBridgeMessageID",
          "type": "bytes32"
        }
      ],
      "name": "SentSafe",
      "type": "event"
    },
    {
      "inputs": [],
      "name": "ARB_SYS",
      "outputs": [
        {
          "internalType": "contract IArbSys",
          "name": "",
          "type": "address"
        }
      ],
      "stateMutability": "view",
      "type": "function"
    },
    {
      "inputs": [
        {
          "internalType": "uint256",
          "name": "",
          "type": "uint256"
        }
      ],
      "name": "batch",
      "outputs": [
        {
          "internalType": "bytes32",
          "name": "",
          "type": "bytes32"
        }
      ],
      "stateMutability": "view",
      "type": "function"
    },
    {
      "inputs": [],
      "name": "batchSize",
      "outputs": [
        {
          "internalType": "uint256",
          "name": "",
          "type": "uint256"
        }
      ],
      "stateMutability": "view",
      "type": "function"
    },
    {
      "inputs": [],
      "name": "currentBatchID",
      "outputs": [
        {
          "internalType": "uint256",
          "name": "",
          "type": "uint256"
        }
      ],
      "stateMutability": "view",
      "type": "function"
    },
    {
      "inputs": [],
      "name": "epochPeriod",
      "outputs": [
        {
          "internalType": "uint256",
          "name": "",
          "type": "uint256"
        }
      ],
      "stateMutability": "view",
      "type": "function"
    },
    {
      "inputs": [
        {
          "internalType": "uint256",
          "name": "",
          "type": "uint256"
        }
      ],
      "name": "fastOutbox",
      "outputs": [
        {
          "internalType": "bytes32",
          "name": "",
          "type": "bytes32"
        }
      ],
      "stateMutability": "view",
      "type": "function"
    },
    {
      "inputs": [],
      "name": "safeBridgeReceiver",
      "outputs": [
        {
          "internalType": "address",
          "name": "",
          "type": "address"
        }
      ],
      "stateMutability": "view",
      "type": "function"
    },
    {
      "inputs": [],
      "name": "sendBatch",
      "outputs": [],
      "stateMutability": "nonpayable",
      "type": "function"
    },
    {
      "inputs": [
        {
          "internalType": "address",
          "name": "_receiver",
          "type": "address"
        },
        {
          "internalType": "bytes",
          "name": "_calldata",
          "type": "bytes"
        }
      ],
      "name": "sendFast",
      "outputs": [],
      "stateMutability": "nonpayable",
      "type": "function"
    },
    {
      "inputs": [
        {
          "internalType": "uint256",
          "name": "_epoch",
          "type": "uint256"
        }
      ],
      "name": "sendSafeFallback",
      "outputs": [],
      "stateMutability": "payable",
      "type": "function"
    }
  ],
  "transactionHash": "0x59f583b49d1c78f4e92fddb037bc1328daaa2cc42592ab433c0b8cc0fbb402ee",
  "args": [
    86400,
    "0x545C731e84c0034d58e57E476A3b7C3929d070CC"
  ],
  "numDeployments": 1,
  "solcInputHash": "344957ae5857246fac5b346f78fc8116",
  "bytecode": "0x60c060405234801561001057600080fd5b50604051610a97380380610a9783398101604081905261002f9161005f565b60808290526001600160a01b03811660a05260018242816100525761005261009c565b0403600055506100b29050565b6000806040838503121561007257600080fd5b825160208401519092506001600160a01b038116811461009157600080fd5b809150509250929050565b634e487b7160e01b600052601260045260246000fd5b60805160a0516109b36100e46000396000818160db015261046701526000818161018b015261027801526109b36000f3fe6080604052600436106100915760003560e01c8063b5b7a18411610059578063b5b7a18414610179578063bd0805eb146101ad578063bd8e62d6146101c3578063d8c05a3a146101d8578063f4daaba1146101eb57600080fd5b80630eaa75fe1461009657806364fccb52146100c95780637834f14e1461011557806398ec20ec14610142578063a093961b14610164575b600080fd5b3480156100a257600080fd5b506100b66100b1366004610773565b610201565b6040519081526020015b60405180910390f35b3480156100d557600080fd5b506100fd7f000000000000000000000000000000000000000000000000000000000000000081565b6040516001600160a01b0390911681526020016100c0565b34801561012157600080fd5b506100b6610130366004610773565b60016020526000908152604090205481565b34801561014e57600080fd5b5061016261015d3660046107a2565b610218565b005b34801561017057600080fd5b50610162610271565b34801561018557600080fd5b506100b67f000000000000000000000000000000000000000000000000000000000000000081565b3480156101b957600080fd5b506100b660005481565b3480156101cf57600080fd5b506100fd606481565b6101626101e6366004610773565b6103cc565b3480156101f757600080fd5b506100b660425481565b6002816040811061021157600080fd5b0154905081565b60008061022584846104cf565b915091507f184cd819d58dedfbb6e4281fbfc51de811c74320929a718c5e27f367f55dd892818360405161025a9291906108ca565b60405180910390a161026b826105be565b50505050565b600061029d7f0000000000000000000000000000000000000000000000000000000000000000426108ec565b600081815260016020526040902054909150156103135760405162461bcd60e51b815260206004820152602960248201527f426174636820616c72656164792073656e7420666f7220746865206375727265604482015268373a1032b837b1b41760b91b60648201526084015b60405180910390fd5b60006042541161035c5760405162461bcd60e51b815260206004820152601460248201527327379036b2b9b9b0b3b2b9903a379039b2b7321760611b604482015260640161030a565b6000610366610649565b600083815260016020908152604080832084905591546042548351908152918201869052918101839052919250907ff67fa0a4947381c1657490b7a5e74d1da3cd790f5ee5a6fd0020306eff024fee9060600160405180910390a2506000604281905555565b60005481111561040f5760405162461bcd60e51b815260206004820152600e60248201526d24b73b30b634b21032b837b1b41760911b604482015260640161030a565b600081815260016020908152604080832054815160248101869052604480820183905283518083039091018152606490910190925291810180516001600160e01b0316632dff2f8d60e11b908117909152919261048c7f0000000000000000000000000000000000000000000000000000000000000000836106ee565b9050847f98f86a6cdb328955823a542be2edbbc788c9cc7052e74f9f20d0ab3988a6ade7826040516104c091815260200190565b60405180910390a25050505050565b604254604051825160a0808201835260208084018590526bffffffffffffffffffffffff19606088811b8216604c87018190528187018290528386016080880152928801516001600160e01b031916938601939093523390921b90911660b08401819052600094909260c4850160248801875b8381101561055c5781810151835260209283019201610542565b505060408190526002915061057290869061090e565b602060405180830381855afa15801561058f573d6000803e3d6000fd5b5050506040513d601f19601f820116820180604052508101906105b2919061092a565b94505050509250929050565b6042805460018101918290558118811660005b6001821661062d576000600282604081106105ee576105ee610943565b015490508481111561060e5784600052806020526040600020945061061e565b8060005284602052604060002094505b600283049250506001016105d1565b836002826040811061064157610641610943565b015550505050565b60425460009081908160015b82156106e55782600116600114156106d457801561068d576002826040811061068057610680610943565b01549350600090506106d4565b6000600283604081106106a2576106a2610943565b01549050848111156106c2578460005280602052604060002094506106d2565b8060005284602052604060002094505b505b600283049250600190910190610655565b50919392505050565b6040516349460b4d60e11b8152600090819060649063928c169a906107199087908790600401610959565b602060405180830381600087803b15801561073357600080fd5b505af1158015610747573d6000803e3d6000fd5b505050506040513d601f19601f8201168201806040525081019061076b919061092a565b949350505050565b60006020828403121561078557600080fd5b5035919050565b634e487b7160e01b600052604160045260246000fd5b600080604083850312156107b557600080fd5b82356001600160a01b03811681146107cc57600080fd5b9150602083013567ffffffffffffffff808211156107e957600080fd5b818501915085601f8301126107fd57600080fd5b81358181111561080f5761080f61078c565b604051601f8201601f19908116603f011681019083821181831017156108375761083761078c565b8160405282815288602084870101111561085057600080fd5b8260208601602083013760006020848301015280955050505050509250929050565b60005b8381101561088d578181015183820152602001610875565b8381111561026b5750506000910152565b600081518084526108b6816020860160208601610872565b601f01601f19169290920160200192915050565b6040815260006108dd604083018561089e565b90508260208301529392505050565b60008261090957634e487b7160e01b600052601260045260246000fd5b500490565b60008251610920818460208701610872565b9190910192915050565b60006020828403121561093c57600080fd5b5051919050565b634e487b7160e01b600052603260045260246000fd5b6001600160a01b038316815260406020820181905260009061076b9083018461089e56fea2646970667358221220a064a367a3509d6f4e9973c64002d2bc4aea35cdd742e6560be6c6b5bdf75cc464736f6c63430008090033",
  "devdoc": {
    "kind": "dev",
    "methods": {
      "constructor": {
        "details": "Constructor.",
        "params": {
          "_epochPeriod": "The duration between epochs.",
          "_safeBridgeReceiver": "The the Safe Bridge Router on Ethereum to the receiving chain."
        }
      },
      "sendFast(address,bytes)": {
        "details": "Sends an arbitrary message to Ethereum using the Fast Bridge.",
        "params": {
          "_calldata": "The receiving domain encoded message data / function arguments.",
          "_receiver": "The address of the contract on Ethereum which receives the calldata."
        }
      },
      "sendSafeFallback(uint256)": {
        "details": "Sends the merkle root state for _epoch to Ethereum using the Safe Bridge, which relies on Arbitrum's canonical bridge. It is unnecessary during normal operations but essential only in case of challenge.",
        "params": {
          "_epoch": "The blocknumber of the batch"
        }
      }
    },
    "version": 1
  },
  "userdoc": {
    "events": {
      "BatchOutgoing(uint256,uint256,uint256,bytes32)": {
        "notice": "The bridgers need to watch for these events and relay the batchMerkleRoot on the FastBridgeReceiver."
      }
    },
    "kind": "user",
    "methods": {
      "sendBatch()": {
        "notice": "Sends a batch of arbitrary message from one domain to another via the fast bridge mechanism."
      }
    },
    "notice": "Fast Bridge Sender Counterpart of `FastBridgeReceiver`",
    "version": 1
  },
  "storageLayout": {
    "storage": [
      {
        "astId": 13144,
        "contract": "src/bridge/FastBridgeSender.sol:FastBridgeSender",
        "label": "currentBatchID",
        "offset": 0,
        "slot": "0",
        "type": "t_uint256"
      },
      {
        "astId": 13148,
        "contract": "src/bridge/FastBridgeSender.sol:FastBridgeSender",
        "label": "fastOutbox",
        "offset": 0,
        "slot": "1",
        "type": "t_mapping(t_uint256,t_bytes32)"
      },
      {
        "astId": 13154,
        "contract": "src/bridge/FastBridgeSender.sol:FastBridgeSender",
        "label": "batch",
        "offset": 0,
        "slot": "2",
        "type": "t_array(t_bytes32)64_storage"
      },
      {
        "astId": 13156,
        "contract": "src/bridge/FastBridgeSender.sol:FastBridgeSender",
        "label": "batchSize",
        "offset": 0,
        "slot": "66",
        "type": "t_uint256"
      }
    ],
    "types": {
      "t_array(t_bytes32)64_storage": {
        "base": "t_bytes32",
        "encoding": "inplace",
        "label": "bytes32[64]",
        "numberOfBytes": "2048"
      },
      "t_bytes32": {
        "encoding": "inplace",
        "label": "bytes32",
        "numberOfBytes": "32"
      },
      "t_mapping(t_uint256,t_bytes32)": {
        "encoding": "mapping",
        "key": "t_uint256",
        "label": "mapping(uint256 => bytes32)",
        "numberOfBytes": "32",
        "value": "t_bytes32"
      },
      "t_uint256": {
        "encoding": "inplace",
        "label": "uint256",
        "numberOfBytes": "32"
      }
    }
  }
}