{
  "address": "0xefA86cB132B608a959621A657f50173370791634",
  "abi": [
    {
      "inputs": [
        {
          "internalType": "contract ISafeBridge",
          "name": "_safebridge",
          "type": "address"
        },
        {
          "internalType": "contract IFastBridgeReceiver",
          "name": "_fastBridgeReceiver",
          "type": "address"
        }
      ],
      "stateMutability": "nonpayable",
      "type": "constructor"
    },
    {
      "anonymous": false,
      "inputs": [
        {
          "indexed": false,
          "internalType": "address",
          "name": "target",
          "type": "address"
        },
        {
          "indexed": false,
          "internalType": "bytes32",
          "name": "messageHash",
          "type": "bytes32"
        },
        {
          "indexed": false,
          "internalType": "bytes",
          "name": "messagePreImage",
          "type": "bytes"
        }
      ],
      "name": "OutboxMessage",
      "type": "event"
    },
    {
      "inputs": [
        {
          "internalType": "address",
          "name": "_receiver",
          "type": "address"
        },
        {
          "internalType": "bytes",
          "name": "_calldata",
          "type": "bytes"
        }
      ],
      "name": "sendFast",
      "outputs": [],
      "stateMutability": "nonpayable",
      "type": "function"
    }
  ],
  "transactionHash": "0xba45e898056c0f6c1398ed4c41ebd7cbff83b9a9bd2cff11326980d05a8b2d94",
  "args": [
    "0xa4bdf6D5c291e6c5f3b9b75764cFcaF0EF7e7AB9",
    "0xB520c1bA7e27723Cb9b96b5ab759269De243a69B"
  ],
  "numDeployments": 1,
  "solcInputHash": "404f378731df3b59bdbdc6b6946fcc1d",
  "bytecode": "0x608060405234801561001057600080fd5b506040516103cb3803806103cb83398101604081905261002f91610078565b600080546001600160a01b039384166001600160a01b031991821617909155600180549290931691161790556100b2565b6001600160a01b038116811461007557600080fd5b50565b6000806040838503121561008b57600080fd5b825161009681610060565b60208401519092506100a781610060565b809150509250929050565b61030a806100c16000396000f3fe608060405234801561001057600080fd5b506004361061002b5760003560e01c806398ec20ec14610030575b600080fd5b61004361003e366004610142565b610045565b005b6000828260405160200161005a92919061025f565b60405160208183030381529060405290507f3e699139e0a8115e8de390569fc57ce0b665e5523f19a6d74007da1eb8681e31838280519060200120836040516100a59392919061028b565b60405180910390a160005460015460405163c249b6c160e01b81526001600160a01b039283169263c249b6c1926100e392911690859060040161025f565b6020604051808303816000875af1158015610102573d6000803e3d6000fd5b505050506040513d601f19601f8201168201806040525081019061012691906102bb565b50505050565b634e487b7160e01b600052604160045260246000fd5b6000806040838503121561015557600080fd5b82356001600160a01b038116811461016c57600080fd5b9150602083013567ffffffffffffffff8082111561018957600080fd5b818501915085601f83011261019d57600080fd5b8135818111156101af576101af61012c565b604051601f8201601f19908116603f011681019083821181831017156101d7576101d761012c565b816040528281528860208487010111156101f057600080fd5b8260208601602083013760006020848301015280955050505050509250929050565b6000815180845260005b818110156102385760208185018101518683018201520161021c565b8181111561024a576000602083870101525b50601f01601f19169290920160200192915050565b6001600160a01b038316815260406020820181905260009061028390830184610212565b949350505050565b60018060a01b03841681528260208201526060604082015260006102b26060830184610212565b95945050505050565b6000602082840312156102cd57600080fd5b505191905056fea2646970667358221220f36cb7b79fa35133f53c12e670af146d0fe08da199d1101ed29baa56342edace64736f6c634300080a0033",
  "devdoc": {
    "kind": "dev",
    "methods": {
      "sendFast(address,bytes)": {
        "params": {
          "_calldata": "The receiving domain encoded message data.",
          "_receiver": "The L1 contract address who will receive the calldata"
        }
      }
    },
    "version": 1
  },
  "userdoc": {
    "events": {
      "OutboxMessage(address,bytes32,bytes)": {
        "notice": "The bridgers need to watch for these events and relay the messageHash on the FastBridgeReceiver."
      }
    },
    "kind": "user",
    "methods": {
      "sendFast(address,bytes)": {
        "notice": "Sends an arbitrary message from one domain to another via the fast bridge mechanism TODO: probably needs some access control either on the sender side or the receiver side"
      }
    },
    "version": 1
  },
  "storageLayout": {
    "storage": [
      {
        "astId": 7557,
        "contract": "src/bridge/FastBridgeSender.sol:FastBridgeSender",
        "label": "safebridge",
        "offset": 0,
        "slot": "0",
        "type": "t_contract(ISafeBridge)7766"
      },
      {
        "astId": 7560,
        "contract": "src/bridge/FastBridgeSender.sol:FastBridgeSender",
        "label": "fastBridgeReceiver",
        "offset": 0,
        "slot": "1",
        "type": "t_contract(IFastBridgeReceiver)7742"
      }
    ],
    "types": {
      "t_contract(IFastBridgeReceiver)7742": {
        "encoding": "inplace",
        "label": "contract IFastBridgeReceiver",
        "numberOfBytes": "20"
      },
      "t_contract(ISafeBridge)7766": {
        "encoding": "inplace",
        "label": "contract ISafeBridge",
        "numberOfBytes": "20"
      }
    }
  }
}