{
  "address": "0x4e894c2B60214beC53B60D09F39544518296C07B",
  "abi": [
    {
      "inputs": [
        {
          "internalType": "address",
          "name": "_governor",
          "type": "address"
        },
        {
          "internalType": "contract IArbitrator",
          "name": "_arbitrator",
          "type": "address"
        },
        {
          "internalType": "contract IFastBridgeSender",
          "name": "_fastBridgeSender",
          "type": "address"
        },
        {
          "internalType": "address",
          "name": "_receiverGateway",
          "type": "address"
        },
        {
          "internalType": "uint256",
          "name": "_receiverChainID",
          "type": "uint256"
        }
      ],
      "stateMutability": "nonpayable",
      "type": "constructor"
    },
    {
      "anonymous": false,
      "inputs": [
        {
          "indexed": true,
          "internalType": "contract IArbitrator",
          "name": "_arbitrator",
          "type": "address"
        },
        {
          "indexed": true,
          "internalType": "uint256",
          "name": "_disputeID",
          "type": "uint256"
        },
        {
          "indexed": false,
          "internalType": "uint256",
          "name": "_metaEvidenceID",
          "type": "uint256"
        },
        {
          "indexed": false,
          "internalType": "uint256",
          "name": "_evidenceGroupID",
          "type": "uint256"
        }
      ],
      "name": "Dispute",
      "type": "event"
    },
    {
      "anonymous": false,
      "inputs": [
        {
          "indexed": true,
          "internalType": "contract IArbitrator",
          "name": "_arbitrator",
          "type": "address"
        },
        {
          "indexed": true,
          "internalType": "uint256",
          "name": "_evidenceGroupID",
          "type": "uint256"
        },
        {
          "indexed": true,
          "internalType": "address",
          "name": "_party",
          "type": "address"
        },
        {
          "indexed": false,
          "internalType": "string",
          "name": "_evidence",
          "type": "string"
        }
      ],
      "name": "Evidence",
      "type": "event"
    },
    {
      "anonymous": false,
      "inputs": [
        {
          "indexed": true,
          "internalType": "uint256",
          "name": "_metaEvidenceID",
          "type": "uint256"
        },
        {
          "indexed": false,
          "internalType": "string",
          "name": "_evidence",
          "type": "string"
        }
      ],
      "name": "MetaEvidence",
      "type": "event"
    },
    {
      "anonymous": false,
      "inputs": [
        {
          "indexed": true,
          "internalType": "contract IArbitrator",
          "name": "_arbitrator",
          "type": "address"
        },
        {
          "indexed": true,
          "internalType": "uint256",
          "name": "_disputeID",
          "type": "uint256"
        },
        {
          "indexed": false,
          "internalType": "uint256",
          "name": "_ruling",
          "type": "uint256"
        }
      ],
      "name": "Ruling",
      "type": "event"
    },
    {
      "inputs": [],
      "name": "arbitrator",
      "outputs": [
        {
          "internalType": "contract IArbitrator",
          "name": "",
          "type": "address"
        }
      ],
      "stateMutability": "view",
      "type": "function"
    },
    {
      "inputs": [
        {
          "internalType": "contract IFastBridgeSender",
          "name": "_fastBridgeSender",
          "type": "address"
        }
      ],
      "name": "changeFastbridge",
      "outputs": [],
      "stateMutability": "nonpayable",
      "type": "function"
    },
    {
      "inputs": [
        {
          "internalType": "bytes32",
          "name": "_disputeHash",
          "type": "bytes32"
        }
      ],
      "name": "disputeHashToHomeID",
      "outputs": [
        {
          "internalType": "uint256",
          "name": "",
          "type": "uint256"
        }
      ],
      "stateMutability": "view",
      "type": "function"
    },
    {
      "inputs": [
        {
          "internalType": "bytes32",
          "name": "",
          "type": "bytes32"
        }
      ],
      "name": "disputeHashtoID",
      "outputs": [
        {
          "internalType": "uint256",
          "name": "",
          "type": "uint256"
        }
      ],
      "stateMutability": "view",
      "type": "function"
    },
    {
      "inputs": [
        {
          "internalType": "bytes32",
          "name": "",
          "type": "bytes32"
        }
      ],
      "name": "disputeHashtoRelayedData",
      "outputs": [
        {
          "internalType": "uint256",
          "name": "arbitrationCost",
          "type": "uint256"
        },
        {
          "internalType": "address",
          "name": "relayer",
          "type": "address"
        }
      ],
      "stateMutability": "view",
      "type": "function"
    },
    {
      "inputs": [
        {
          "internalType": "uint256",
          "name": "",
          "type": "uint256"
        }
      ],
      "name": "disputeIDtoHash",
      "outputs": [
        {
          "internalType": "bytes32",
          "name": "",
          "type": "bytes32"
        }
      ],
      "stateMutability": "view",
      "type": "function"
    },
    {
      "inputs": [],
      "name": "fastBridgeSender",
      "outputs": [
        {
          "internalType": "contract IFastBridgeSender",
          "name": "",
          "type": "address"
        }
      ],
      "stateMutability": "view",
      "type": "function"
    },
    {
      "inputs": [],
      "name": "governor",
      "outputs": [
        {
          "internalType": "address",
          "name": "",
          "type": "address"
        }
      ],
      "stateMutability": "view",
      "type": "function"
    },
    {
      "inputs": [],
      "name": "receiverChainID",
      "outputs": [
        {
          "internalType": "uint256",
          "name": "",
          "type": "uint256"
        }
      ],
      "stateMutability": "view",
      "type": "function"
    },
    {
      "inputs": [],
      "name": "receiverGateway",
      "outputs": [
        {
          "internalType": "address",
          "name": "",
          "type": "address"
        }
      ],
      "stateMutability": "view",
      "type": "function"
    },
    {
      "inputs": [
        {
          "internalType": "uint256",
          "name": "_originalChainID",
          "type": "uint256"
        },
        {
          "internalType": "bytes32",
          "name": "_originalBlockHash",
          "type": "bytes32"
        },
        {
          "internalType": "uint256",
          "name": "_originalDisputeID",
          "type": "uint256"
        },
        {
          "internalType": "uint256",
          "name": "_choices",
          "type": "uint256"
        },
        {
          "internalType": "bytes",
          "name": "_extraData",
          "type": "bytes"
        },
        {
          "internalType": "address",
          "name": "_arbitrable",
          "type": "address"
        }
      ],
      "name": "relayCreateDispute",
      "outputs": [],
      "stateMutability": "payable",
      "type": "function"
    },
    {
      "inputs": [
        {
          "internalType": "uint256",
          "name": "_disputeID",
          "type": "uint256"
        },
        {
          "internalType": "uint256",
          "name": "_ruling",
          "type": "uint256"
        }
      ],
      "name": "rule",
      "outputs": [],
      "stateMutability": "nonpayable",
      "type": "function"
    }
  ],
  "transactionHash": "0xe42584ddaf841bc1b142945510b67b42b6174fc638a7a0148251003bad12fec7",
  "args": [
    "0xF50E77f2A2B6138D16c6c7511562E5C33c4B15A3",
    "0x815d709EFCF5E69e2e9E2F8d3815d762496a2f0F",
    "0xf8A4a85e7153374A1b9BDA763a84252eC286843b",
    "0x8681CE0CA5706Cf4732d9060e8eC9f865F7d546a",
    4
  ],
  "numDeployments": 1,
  "solcInputHash": "344957ae5857246fac5b346f78fc8116",
  "bytecode": "0x60c060405234801561001057600080fd5b50604051610bd5380380610bd583398101604081905261002f916100e6565b600080546001600160a01b038088166001600160a01b031992831617835586811660805260018054878316908416179055600280549186169190921617905560a08290526040517f61606860eb6c87306811e2695215385101daab53bd6ab4e9f9049aead9363c7d906100bc9060208082526006908201526542524944474560d01b604082015260600190565b60405180910390a25050505050610151565b6001600160a01b03811681146100e357600080fd5b50565b600080600080600060a086880312156100fe57600080fd5b8551610109816100ce565b602087015190955061011a816100ce565b604087015190945061012b816100ce565b606087015190935061013c816100ce565b80925050608086015190509295509295909350565b60805160a051610a436101926000396000610286015260008181610130015281816102e0015281816104e9015281816105c601526106af0152610a436000f3fe6080604052600436106100a75760003560e01c8063c5ffcf7011610064578063c5ffcf70146101ad578063c95c0951146101cd578063cddbfa14146101fa578063e7fe313914610254578063ea4f97d314610274578063fc4ba3a2146102a857600080fd5b80630c340a24146100ac578063311a6c56146100e95780633b103f531461010b5780636cc6cde11461011e5780638ed87e0014610152578063ba4bc76314610172575b600080fd5b3480156100b857600080fd5b506000546100cc906001600160a01b031681565b6040516001600160a01b0390911681526020015b60405180910390f35b3480156100f557600080fd5b50610109610104366004610796565b6102d5565b005b6101096101193660046107e0565b610430565b34801561012a57600080fd5b506100cc7f000000000000000000000000000000000000000000000000000000000000000081565b34801561015e57600080fd5b5061010961016d36600461088a565b61070f565b34801561017e57600080fd5b5061019f61018d3660046108ae565b60036020526000908152604090205481565b6040519081526020016100e0565b3480156101b957600080fd5b506002546100cc906001600160a01b031681565b3480156101d957600080fd5b5061019f6101e83660046108ae565b60046020526000908152604090205481565b34801561020657600080fd5b506102376102153660046108ae565b600560205260009081526040902080546001909101546001600160a01b031682565b604080519283526001600160a01b039091166020830152016100e0565b34801561026057600080fd5b506001546100cc906001600160a01b031681565b34801561028057600080fd5b5061019f7f000000000000000000000000000000000000000000000000000000000000000081565b3480156102b457600080fd5b5061019f6102c33660046108ae565b60009081526004602052604090205490565b336001600160a01b037f000000000000000000000000000000000000000000000000000000000000000016146103445760405162461bcd60e51b815260206004820152600f60248201526e27b7363c9020b93134ba3930ba37b960891b60448201526064015b60405180910390fd5b600082815260036020908152604080832054808452600583529281902081518083018352815481526001918201546001600160a01b039081168286018190528451602481018890526044810189905260648082019290925285518082039092018252608401855294850180516001600160e01b031663a60a4db560e01b9081179091529254600254945163263b083b60e21b815292959394908216926398ec20ec926103f692169085906004016108c7565b600060405180830381600087803b15801561041057600080fd5b505af1158015610424573d6000803e3d6000fd5b50505050505050505050565b60008787878787878760405160200161044f979695949392919061092c565b60408051601f1981840301815291815281516020928301206000818152600590935291206001810154919250906001600160a01b0316156104d25760405162461bcd60e51b815260206004820152601760248201527f4469737075746520616c72656164792072656c61796564000000000000000000604482015260640161033b565b60405163f7434ea960e01b81526001600160a01b037f0000000000000000000000000000000000000000000000000000000000000000169063f7434ea99061052090889088906004016109b5565b60206040518083038186803b15801561053857600080fd5b505afa15801561054c573d6000803e3d6000fd5b505050506040513d601f19601f8201168201806040525081019061057091906109d1565b8082553410156105c25760405162461bcd60e51b815260206004820181905260248201527f4e6f7420656e6f756768206172626974726174696f6e20636f73742070616964604482015260640161033b565b60007f00000000000000000000000000000000000000000000000000000000000000006001600160a01b031663c13517e1348989896040518563ffffffff1660e01b8152600401610615939291906109ea565b6020604051808303818588803b15801561062e57600080fd5b505af1158015610642573d6000803e3d6000fd5b50505050506040513d601f19601f8201168201806040525081019061066791906109d1565b6000818152600360209081526040808320879055868352600482528083208490556001860180546001600160a01b0319163317905580518381529182019290925291925082917f00000000000000000000000000000000000000000000000000000000000000006001600160a01b0316917f74baab670a4015ab2f1b467c5252a96141a2573f2908e58a92081e80d3cfde3d910160405180910390a350505050505050505050565b6000546001600160a01b031633146107745760405162461bcd60e51b815260206004820152602260248201527f416363657373206e6f7420616c6c6f7765643a20476f7665726e6f72206f6e6c6044820152613c9760f11b606482015260840161033b565b600180546001600160a01b0319166001600160a01b0392909216919091179055565b600080604083850312156107a957600080fd5b50508035926020909101359150565b6001600160a01b03811681146107cd57600080fd5b50565b80356107db816107b8565b919050565b600080600080600080600060c0888a0312156107fb57600080fd5b87359650602088013595506040880135945060608801359350608088013567ffffffffffffffff8082111561082f57600080fd5b818a0191508a601f83011261084357600080fd5b81358181111561085257600080fd5b8b602082850101111561086457600080fd5b60208301955080945050505061087c60a089016107d0565b905092959891949750929550565b60006020828403121561089c57600080fd5b81356108a7816107b8565b9392505050565b6000602082840312156108c057600080fd5b5035919050565b60018060a01b038316815260006020604081840152835180604085015260005b81811015610903578581018301518582016060015282016108e7565b81811115610915576000606083870101525b50601f01601f191692909201606001949350505050565b8781528660208201526c6372656174654469737075746560981b604082015285604d82015284606d8201528284608d83013760609190911b6bffffffffffffffffffffffff1916608d919092019081019190915260a10195945050505050565b81835281816020850137506000828201602090810191909152601f909101601f19169091010190565b6020815260006109c960208301848661098c565b949350505050565b6000602082840312156109e357600080fd5b5051919050565b838152604060208201526000610a0460408301848661098c565b9594505050505056fea2646970667358221220e7dca6bd4df7f5f6dafa874c8f411cd92054731fefd5309ddf74a2854e21243064736f6c63430008090033",
  "devdoc": {
    "kind": "dev",
    "methods": {
      "changeFastbridge(address)": {
        "details": "Changes the fastBridge, useful to increase the claim deposit.",
        "params": {
          "_fastBridgeSender": "The address of the new fastBridge."
        }
      },
      "relayCreateDispute(uint256,bytes32,uint256,uint256,bytes,address)": {
        "details": "Provide the same parameters as on the originalChain while creating a dispute. Providing incorrect parameters will create a different hash than on the originalChain and will not affect the actual dispute/arbitrable's ruling.",
        "params": {
          "_arbitrable": "arbitrable",
          "_choices": "number of ruling choices",
          "_extraData": "extraData",
          "_originalBlockHash": "originalBlockHash",
          "_originalChainID": "originalChainId",
          "_originalDisputeID": "originalDisputeID"
        }
      },
      "rule(uint256,uint256)": {
        "details": "Give a ruling for a dispute. Must be called by the arbitrator. The purpose of this function is to ensure that the address calling it has the right to rule on the contract.",
        "params": {
          "_disputeID": "ID of the dispute in the Arbitrator contract.",
          "_ruling": "Ruling given by the arbitrator. Note that 0 is reserved for \"Not able/wanting to make a decision\"."
        }
      }
    },
    "version": 1
  },
  "userdoc": {
    "kind": "user",
    "methods": {},
    "notice": "Home Gateway Counterpart of `ForeignGateway`",
    "version": 1
  },
  "storageLayout": {
    "storage": [
      {
        "astId": 22235,
        "contract": "src/gateway/HomeGateway.sol:HomeGateway",
        "label": "governor",
        "offset": 0,
        "slot": "0",
        "type": "t_address"
      },
      {
        "astId": 22241,
        "contract": "src/gateway/HomeGateway.sol:HomeGateway",
        "label": "fastBridgeSender",
        "offset": 0,
        "slot": "1",
        "type": "t_contract(IFastBridgeSender)16804"
      },
      {
        "astId": 22244,
        "contract": "src/gateway/HomeGateway.sol:HomeGateway",
        "label": "receiverGateway",
        "offset": 0,
        "slot": "2",
        "type": "t_address"
      },
      {
        "astId": 22251,
        "contract": "src/gateway/HomeGateway.sol:HomeGateway",
        "label": "disputeIDtoHash",
        "offset": 0,
        "slot": "3",
        "type": "t_mapping(t_uint256,t_bytes32)"
      },
      {
        "astId": 22255,
        "contract": "src/gateway/HomeGateway.sol:HomeGateway",
        "label": "disputeHashtoID",
        "offset": 0,
        "slot": "4",
        "type": "t_mapping(t_bytes32,t_uint256)"
      },
      {
        "astId": 22260,
        "contract": "src/gateway/HomeGateway.sol:HomeGateway",
        "label": "disputeHashtoRelayedData",
        "offset": 0,
        "slot": "5",
        "type": "t_mapping(t_bytes32,t_struct(RelayedData)22233_storage)"
      }
    ],
    "types": {
      "t_address": {
        "encoding": "inplace",
        "label": "address",
        "numberOfBytes": "20"
      },
      "t_bytes32": {
        "encoding": "inplace",
        "label": "bytes32",
        "numberOfBytes": "32"
      },
      "t_contract(IFastBridgeSender)16804": {
        "encoding": "inplace",
        "label": "contract IFastBridgeSender",
        "numberOfBytes": "20"
      },
      "t_mapping(t_bytes32,t_struct(RelayedData)22233_storage)": {
        "encoding": "mapping",
        "key": "t_bytes32",
        "label": "mapping(bytes32 => struct HomeGateway.RelayedData)",
        "numberOfBytes": "32",
        "value": "t_struct(RelayedData)22233_storage"
      },
      "t_mapping(t_bytes32,t_uint256)": {
        "encoding": "mapping",
        "key": "t_bytes32",
        "label": "mapping(bytes32 => uint256)",
        "numberOfBytes": "32",
        "value": "t_uint256"
      },
      "t_mapping(t_uint256,t_bytes32)": {
        "encoding": "mapping",
        "key": "t_uint256",
        "label": "mapping(uint256 => bytes32)",
        "numberOfBytes": "32",
        "value": "t_bytes32"
      },
      "t_struct(RelayedData)22233_storage": {
        "encoding": "inplace",
        "label": "struct HomeGateway.RelayedData",
        "members": [
          {
            "astId": 22230,
            "contract": "src/gateway/HomeGateway.sol:HomeGateway",
            "label": "arbitrationCost",
            "offset": 0,
            "slot": "0",
            "type": "t_uint256"
          },
          {
            "astId": 22232,
            "contract": "src/gateway/HomeGateway.sol:HomeGateway",
            "label": "relayer",
            "offset": 0,
            "slot": "1",
            "type": "t_address"
          }
        ],
        "numberOfBytes": "64"
      },
      "t_uint256": {
        "encoding": "inplace",
        "label": "uint256",
        "numberOfBytes": "32"
      }
    }
  }
}