{
  "address": "0x2Aa1f82d363f79c1E7a4CcF955Fb7E4306b9B260",
  "abi": [
    {
      "inputs": [
        {
          "internalType": "contract IArbitrator",
          "name": "_arbitrator",
          "type": "address"
        },
        {
          "internalType": "contract IFastBridgeSender",
          "name": "_fastbridge",
          "type": "address"
        },
        {
          "internalType": "address",
          "name": "_foreignGateway",
          "type": "address"
        },
        {
          "internalType": "uint256",
          "name": "_foreignChainID",
          "type": "uint256"
        }
      ],
      "stateMutability": "nonpayable",
      "type": "constructor"
    },
    {
      "anonymous": false,
      "inputs": [
        {
          "indexed": true,
          "internalType": "contract IArbitrator",
          "name": "_arbitrator",
          "type": "address"
        },
        {
          "indexed": true,
          "internalType": "uint256",
          "name": "_disputeID",
          "type": "uint256"
        },
        {
          "indexed": false,
          "internalType": "uint256",
          "name": "_metaEvidenceID",
          "type": "uint256"
        },
        {
          "indexed": false,
          "internalType": "uint256",
          "name": "_evidenceGroupID",
          "type": "uint256"
        }
      ],
      "name": "Dispute",
      "type": "event"
    },
    {
      "anonymous": false,
      "inputs": [
        {
          "indexed": true,
          "internalType": "contract IArbitrator",
          "name": "_arbitrator",
          "type": "address"
        },
        {
          "indexed": true,
          "internalType": "uint256",
          "name": "_evidenceGroupID",
          "type": "uint256"
        },
        {
          "indexed": true,
          "internalType": "address",
          "name": "_party",
          "type": "address"
        },
        {
          "indexed": false,
          "internalType": "string",
          "name": "_evidence",
          "type": "string"
        }
      ],
      "name": "Evidence",
      "type": "event"
    },
    {
      "anonymous": false,
      "inputs": [
        {
          "indexed": true,
          "internalType": "uint256",
          "name": "_metaEvidenceID",
          "type": "uint256"
        },
        {
          "indexed": false,
          "internalType": "string",
          "name": "_evidence",
          "type": "string"
        }
      ],
      "name": "MetaEvidence",
      "type": "event"
    },
    {
      "anonymous": false,
      "inputs": [
        {
          "indexed": true,
          "internalType": "contract IArbitrator",
          "name": "_arbitrator",
          "type": "address"
        },
        {
          "indexed": true,
          "internalType": "uint256",
          "name": "_disputeID",
          "type": "uint256"
        },
        {
          "indexed": false,
          "internalType": "uint256",
          "name": "_ruling",
          "type": "uint256"
        }
      ],
      "name": "Ruling",
      "type": "event"
    },
    {
      "inputs": [],
      "name": "arbitrator",
      "outputs": [
        {
          "internalType": "contract IArbitrator",
          "name": "",
          "type": "address"
        }
      ],
      "stateMutability": "view",
      "type": "function"
    },
    {
      "inputs": [],
      "name": "chainID",
      "outputs": [
        {
          "internalType": "uint256",
          "name": "",
          "type": "uint256"
        }
      ],
      "stateMutability": "view",
      "type": "function"
    },
    {
      "inputs": [
        {
          "internalType": "bytes32",
          "name": "_disputeHash",
          "type": "bytes32"
        }
      ],
      "name": "disputeHashToHomeID",
      "outputs": [
        {
          "internalType": "uint256",
          "name": "",
          "type": "uint256"
        }
      ],
      "stateMutability": "view",
      "type": "function"
    },
    {
      "inputs": [
        {
          "internalType": "bytes32",
          "name": "",
          "type": "bytes32"
        }
      ],
      "name": "disputeHashtoID",
      "outputs": [
        {
          "internalType": "uint256",
          "name": "",
          "type": "uint256"
        }
      ],
      "stateMutability": "view",
      "type": "function"
    },
    {
      "inputs": [
        {
          "internalType": "bytes32",
          "name": "",
          "type": "bytes32"
        }
      ],
      "name": "disputeHashtoRelayedData",
      "outputs": [
        {
          "internalType": "uint256",
          "name": "arbitrationCost",
          "type": "uint256"
        },
        {
          "internalType": "address",
          "name": "relayer",
          "type": "address"
        }
      ],
      "stateMutability": "view",
      "type": "function"
    },
    {
      "inputs": [
        {
          "internalType": "uint256",
          "name": "",
          "type": "uint256"
        }
      ],
      "name": "disputeIDtoHash",
      "outputs": [
        {
          "internalType": "bytes32",
          "name": "",
          "type": "bytes32"
        }
      ],
      "stateMutability": "view",
      "type": "function"
    },
    {
      "inputs": [],
      "name": "fastbridge",
      "outputs": [
        {
          "internalType": "contract IFastBridgeSender",
          "name": "",
          "type": "address"
        }
      ],
      "stateMutability": "view",
      "type": "function"
    },
    {
      "inputs": [],
      "name": "foreignChainID",
      "outputs": [
        {
          "internalType": "uint256",
          "name": "",
          "type": "uint256"
        }
      ],
      "stateMutability": "view",
      "type": "function"
    },
    {
      "inputs": [],
      "name": "foreignGateway",
      "outputs": [
        {
          "internalType": "address",
          "name": "",
          "type": "address"
        }
      ],
      "stateMutability": "view",
      "type": "function"
    },
    {
      "inputs": [
        {
          "internalType": "uint256",
          "name": "_originalChainID",
          "type": "uint256"
        },
        {
          "internalType": "bytes32",
          "name": "_originalBlockHash",
          "type": "bytes32"
        },
        {
          "internalType": "uint256",
          "name": "_originalDisputeID",
          "type": "uint256"
        },
        {
          "internalType": "uint256",
          "name": "_choices",
          "type": "uint256"
        },
        {
          "internalType": "bytes",
          "name": "_extraData",
          "type": "bytes"
        },
        {
          "internalType": "address",
          "name": "_arbitrable",
          "type": "address"
        }
      ],
      "name": "relayCreateDispute",
      "outputs": [],
      "stateMutability": "payable",
      "type": "function"
    },
    {
      "inputs": [
        {
          "internalType": "uint256",
          "name": "_disputeID",
          "type": "uint256"
        },
        {
          "internalType": "uint256",
          "name": "_ruling",
          "type": "uint256"
        }
      ],
      "name": "rule",
      "outputs": [],
      "stateMutability": "nonpayable",
      "type": "function"
    }
  ],
  "transactionHash": "0x232a8e30be09383002c2ff5e333dd848156b2ab9aa32769e8a1954ab9dbe060d",
  "args": [
    "0xd08452AEE7ab5bE3BF6733BA0d3F0CFdaf060Aa2",
    "0x0b9e03455Fed83f209Fa7ce596c93ba6aBAd1f46",
    "0xf02733d9e5CbfE67B54F165b0277E1995106D526",
    4
  ],
  "numDeployments": 1,
  "solcInputHash": "0a1ec2a631b00a23a4a92b2eaceb36a5",
  "bytecode": "0x608060405234801561001057600080fd5b506040516109df3803806109df83398101604081905261002f916100ea565b600280546001600160a01b038087166001600160a01b0319928316179092556003805486841690831617905560048054928516929091169190911790556006819055466005556040516000907f61606860eb6c87306811e2695215385101daab53bd6ab4e9f9049aead9363c7d906100c19060208082526006908201526542524944474560d01b604082015260600190565b60405180910390a25050505061013d565b6001600160a01b03811681146100e757600080fd5b50565b6000806000806080858703121561010057600080fd5b845161010b816100d2565b602086015190945061011c816100d2565b604086015190935061012d816100d2565b6060959095015193969295505050565b6108938061014c6000396000f3fe60806040526004361061009c5760003560e01c8063adc879e911610064578063adc879e914610157578063ba4bc7631461016d578063c95c09511461019a578063cddbfa14146101c7578063d1d559c514610221578063fc4ba3a21461024157600080fd5b8063311a6c56146100a15780633b103f53146100c35780636cc6cde1146100d65780638d7c7daa146101135780639688240314610133575b600080fd5b3480156100ad57600080fd5b506100c16100bc366004610616565b61026e565b005b6100c16100d1366004610654565b6103ac565b3480156100e257600080fd5b506002546100f6906001600160a01b031681565b6040516001600160a01b0390911681526020015b60405180910390f35b34801561011f57600080fd5b506004546100f6906001600160a01b031681565b34801561013f57600080fd5b5061014960065481565b60405190815260200161010a565b34801561016357600080fd5b5061014960055481565b34801561017957600080fd5b506101496101883660046106fe565b60006020819052908152604090205481565b3480156101a657600080fd5b506101496101b53660046106fe565b60016020526000908152604090205481565b3480156101d357600080fd5b506102046101e23660046106fe565b600760205260009081526040902080546001909101546001600160a01b031682565b604080519283526001600160a01b0390911660208301520161010a565b34801561022d57600080fd5b506003546100f6906001600160a01b031681565b34801561024d57600080fd5b5061014961025c3660046106fe565b60009081526001602052604090205490565b6002546001600160a01b031633146102bf5760405162461bcd60e51b815260206004820152600f60248201526e27b7363c9020b93134ba3930ba37b960891b60448201526064015b60405180910390fd5b60008281526020818152604080832054808452600783529281902081518083018352815481526001909101546001600160a01b039081168285018190528351602481018790526044810188905260648082019290925284518082039092018252608401845293840180516001600160e01b0316633496987960e01b90811790915260035460048054955163263b083b60e21b8152949692959294918416936398ec20ec9361037293911691869101610717565b600060405180830381600087803b15801561038c57600080fd5b505af11580156103a0573d6000803e3d6000fd5b50505050505050505050565b6000878787878787876040516020016103cb979695949392919061077c565b60408051601f1981840301815291815281516020928301206000818152600790935291206001810154919250906001600160a01b03161561044e5760405162461bcd60e51b815260206004820152601760248201527f4469737075746520616c72656164792072656c6179656400000000000000000060448201526064016102b6565b60025460405163f7434ea960e01b81526001600160a01b039091169063f7434ea9906104809088908890600401610805565b602060405180830381865afa15801561049d573d6000803e3d6000fd5b505050506040513d601f19601f820116820180604052508101906104c19190610821565b8082553410156105135760405162461bcd60e51b815260206004820181905260248201527f4e6f7420656e6f756768206172626974726174696f6e20636f7374207061696460448201526064016102b6565b60025460405163c13517e160e01b81526000916001600160a01b03169063c13517e190349061054a908b908b908b9060040161083a565b60206040518083038185885af1158015610568573d6000803e3d6000fd5b50505050506040513d601f19601f8201168201806040525081019061058d9190610821565b6000818152602081815260408083208790558683526001808352818420859055860180546001600160a01b0319163317905560025481518481529283019390935292935083926001600160a01b03909216917f74baab670a4015ab2f1b467c5252a96141a2573f2908e58a92081e80d3cfde3d910160405180910390a350505050505050505050565b6000806040838503121561062957600080fd5b50508035926020909101359150565b80356001600160a01b038116811461064f57600080fd5b919050565b600080600080600080600060c0888a03121561066f57600080fd5b87359650602088013595506040880135945060608801359350608088013567ffffffffffffffff808211156106a357600080fd5b818a0191508a601f8301126106b757600080fd5b8135818111156106c657600080fd5b8b60208285010111156106d857600080fd5b6020830195508094505050506106f060a08901610638565b905092959891949750929550565b60006020828403121561071057600080fd5b5035919050565b60018060a01b038316815260006020604081840152835180604085015260005b8181101561075357858101830151858201606001528201610737565b81811115610765576000606083870101525b50601f01601f191692909201606001949350505050565b8781528660208201526c6372656174654469737075746560981b604082015285604d82015284606d8201528284608d83013760609190911b6bffffffffffffffffffffffff1916608d919092019081019190915260a10195945050505050565b81835281816020850137506000828201602090810191909152601f909101601f19169091010190565b6020815260006108196020830184866107dc565b949350505050565b60006020828403121561083357600080fd5b5051919050565b8381526040602082015260006108546040830184866107dc565b9594505050505056fea26469706673582212209b353cefef6d96cad6be13b5e743211703f8a1ea1168c9a258240cf76493f69964736f6c634300080a0033",
  "devdoc": {
    "kind": "dev",
    "methods": {
      "relayCreateDispute(uint256,bytes32,uint256,uint256,bytes,address)": {
        "details": "Provide the same parameters as on the originalChain while creating a      dispute. Providing incorrect parameters will create a different hash      than on the originalChain and will not affect the actual dispute/arbitrable's      ruling.",
        "params": {
          "_arbitrable": "arbitrable",
          "_choices": "number of ruling choices",
          "_extraData": "extraData",
          "_originalBlockHash": "originalBlockHash",
          "_originalChainID": "originalChainId",
          "_originalDisputeID": "originalDisputeID"
        }
      },
      "rule(uint256,uint256)": {
        "details": "Give a ruling for a dispute. Must be called by the arbitrator. The purpose of this function is to ensure that the address calling it has the right to rule on the contract.",
        "params": {
          "_disputeID": "ID of the dispute in the Arbitrator contract.",
          "_ruling": "Ruling given by the arbitrator. Note that 0 is reserved for \"Not able/wanting to make a decision\"."
        }
      }
    },
    "version": 1
  },
  "userdoc": {
    "kind": "user",
    "methods": {},
    "version": 1
  },
  "storageLayout": {
    "storage": [
      {
        "astId": 11052,
        "contract": "src/gateway/HomeGateway.sol:HomeGateway",
        "label": "disputeIDtoHash",
        "offset": 0,
        "slot": "0",
        "type": "t_mapping(t_uint256,t_bytes32)"
      },
      {
        "astId": 11056,
        "contract": "src/gateway/HomeGateway.sol:HomeGateway",
        "label": "disputeHashtoID",
        "offset": 0,
        "slot": "1",
        "type": "t_mapping(t_bytes32,t_uint256)"
      },
      {
        "astId": 11059,
        "contract": "src/gateway/HomeGateway.sol:HomeGateway",
        "label": "arbitrator",
        "offset": 0,
        "slot": "2",
        "type": "t_contract(IArbitrator)1911"
      },
      {
        "astId": 11062,
        "contract": "src/gateway/HomeGateway.sol:HomeGateway",
        "label": "fastbridge",
        "offset": 0,
        "slot": "3",
        "type": "t_contract(IFastBridgeSender)8494"
      },
      {
        "astId": 11064,
        "contract": "src/gateway/HomeGateway.sol:HomeGateway",
        "label": "foreignGateway",
        "offset": 0,
        "slot": "4",
        "type": "t_address"
      },
      {
        "astId": 11066,
        "contract": "src/gateway/HomeGateway.sol:HomeGateway",
        "label": "chainID",
        "offset": 0,
        "slot": "5",
        "type": "t_uint256"
      },
      {
        "astId": 11068,
        "contract": "src/gateway/HomeGateway.sol:HomeGateway",
        "label": "foreignChainID",
        "offset": 0,
        "slot": "6",
        "type": "t_uint256"
      },
      {
        "astId": 11078,
        "contract": "src/gateway/HomeGateway.sol:HomeGateway",
        "label": "disputeHashtoRelayedData",
        "offset": 0,
        "slot": "7",
        "type": "t_mapping(t_bytes32,t_struct(RelayedData)11073_storage)"
      }
    ],
    "types": {
      "t_address": {
        "encoding": "inplace",
        "label": "address",
        "numberOfBytes": "20"
      },
      "t_bytes32": {
        "encoding": "inplace",
        "label": "bytes32",
        "numberOfBytes": "32"
      },
      "t_contract(IArbitrator)1911": {
        "encoding": "inplace",
        "label": "contract IArbitrator",
        "numberOfBytes": "20"
      },
      "t_contract(IFastBridgeSender)8494": {
        "encoding": "inplace",
        "label": "contract IFastBridgeSender",
        "numberOfBytes": "20"
      },
      "t_mapping(t_bytes32,t_struct(RelayedData)11073_storage)": {
        "encoding": "mapping",
        "key": "t_bytes32",
        "label": "mapping(bytes32 => struct HomeGateway.RelayedData)",
        "numberOfBytes": "32",
        "value": "t_struct(RelayedData)11073_storage"
      },
      "t_mapping(t_bytes32,t_uint256)": {
        "encoding": "mapping",
        "key": "t_bytes32",
        "label": "mapping(bytes32 => uint256)",
        "numberOfBytes": "32",
        "value": "t_uint256"
      },
      "t_mapping(t_uint256,t_bytes32)": {
        "encoding": "mapping",
        "key": "t_uint256",
        "label": "mapping(uint256 => bytes32)",
        "numberOfBytes": "32",
        "value": "t_bytes32"
      },
      "t_struct(RelayedData)11073_storage": {
        "encoding": "inplace",
        "label": "struct HomeGateway.RelayedData",
        "members": [
          {
            "astId": 11070,
            "contract": "src/gateway/HomeGateway.sol:HomeGateway",
            "label": "arbitrationCost",
            "offset": 0,
            "slot": "0",
            "type": "t_uint256"
          },
          {
            "astId": 11072,
            "contract": "src/gateway/HomeGateway.sol:HomeGateway",
            "label": "relayer",
            "offset": 0,
            "slot": "1",
            "type": "t_address"
          }
        ],
        "numberOfBytes": "64"
      },
      "t_uint256": {
        "encoding": "inplace",
        "label": "uint256",
        "numberOfBytes": "32"
      }
    }
  }
}