{
  "address": "0x078dAd05373d19d7fd6829735b765F12242a4300",
  "abi": [
    {
      "inputs": [
        {
          "internalType": "uint256",
          "name": "_start",
          "type": "uint256"
        }
      ],
      "stateMutability": "nonpayable",
      "type": "constructor"
    },
    {
      "inputs": [
        {
          "internalType": "uint256",
          "name": "_block",
          "type": "uint256"
        }
      ],
      "name": "contribute",
      "outputs": [],
      "stateMutability": "payable",
      "type": "function"
    },
    {
      "inputs": [
        {
          "internalType": "uint256",
          "name": "_block",
          "type": "uint256"
        }
      ],
      "name": "getRN",
      "outputs": [
        {
          "internalType": "uint256",
          "name": "RN",
          "type": "uint256"
        }
      ],
      "stateMutability": "nonpayable",
      "type": "function"
    },
    {
      "inputs": [
        {
          "internalType": "uint256",
          "name": "_block",
          "type": "uint256"
        }
      ],
      "name": "getUncorrelatedRN",
      "outputs": [
        {
          "internalType": "uint256",
          "name": "RN",
          "type": "uint256"
        }
      ],
      "stateMutability": "nonpayable",
      "type": "function"
    },
    {
      "inputs": [],
      "name": "number",
      "outputs": [
        {
          "internalType": "uint256",
          "name": "",
          "type": "uint256"
        }
      ],
      "stateMutability": "view",
      "type": "function"
    },
    {
      "inputs": [
        {
          "internalType": "uint256",
          "name": "_block",
          "type": "uint256"
        }
      ],
      "name": "requestRN",
      "outputs": [],
      "stateMutability": "payable",
      "type": "function"
    }
  ],
  "transactionHash": "0x42386abdbdb4150c99d3a9e6278294a9168e7464d0b42cd6d4a5f814a1fa60c6",
  "args": [
    67193503189
  ],
  "numDeployments": 2,
  "solcInputHash": "d464953816050410147003aa7264a227",
  "bytecode": "0x608060405234801561001057600080fd5b506040516101df3803806101df83398101604081905261002f91610037565b600055610050565b60006020828403121561004957600080fd5b5051919050565b6101808061005f6000396000f3fe60806040526004361061004a5760003560e01c80631c73601e1461004f5780637b9c34e0146100815780638381f58a14610096578063c1cbbca7146100ac578063ca4742f1146100bd575b600080fd5b34801561005b57600080fd5b5061006f61006a366004610131565b6100e7565b60405190815260200160405180910390f35b61009461008f366004610131565b6100ba565b005b3480156100a257600080fd5b5061006f60005481565b6100946100ba366004610131565b50565b3480156100c957600080fd5b5061006f6100d8366004610131565b50600080546001810190915590565b60008054600181018255806100ff5750600092915050565b6040805133602082015290810182905260600160408051601f1981840301815291905280516020909101209392505050565b60006020828403121561014357600080fd5b503591905056fea264697066735822122022ad28fe2b2684e8b3818ef53b92c7942e24f5b3746f478b031e2fa17fd10ae864736f6c63430008090033",
  "devdoc": {
    "kind": "dev",
    "methods": {
      "contribute(uint256)": {
        "details": "Contribute to the reward of a random number. All the ETH will be lost forever.",
        "params": {
          "_block": "Block the random number is linked to."
        }
      },
      "getRN(uint256)": {
        "details": "Get the \"random number\", which is predictable.",
        "params": {
          "_block": "Block the random number is linked to."
        },
        "returns": {
          "RN": "Random Number. If the number is not ready or has not been required 0 instead."
        }
      },
      "getUncorrelatedRN(uint256)": {
        "details": "Get a uncorrelated random number. Act like getRN but give a different number for each sender.      This is to prevent users from getting correlated numbers.",
        "params": {
          "_block": "Block the random number is linked to."
        },
        "returns": {
          "RN": "Random Number. If the number is not ready or has not been required 0 instead."
        }
      },
      "requestRN(uint256)": {
        "details": "Request a random number.",
        "params": {
          "_block": "Block linked to the request."
        }
      }
    },
    "version": 1
  },
  "userdoc": {
    "kind": "user",
    "methods": {},
    "version": 1
  },
  "storageLayout": {
    "storage": [
      {
        "astId": 16789,
        "contract": "src/rng/IncrementalNG.sol:IncrementalNG",
        "label": "number",
        "offset": 0,
        "slot": "0",
        "type": "t_uint256"
      }
    ],
    "types": {
      "t_uint256": {
        "encoding": "inplace",
        "label": "uint256",
        "numberOfBytes": "32"
      }
    }
  }
}