{
  "address": "0x95Ad12eF4B5baF332aa46d1EaE9922066Fd6fE4A",
  "abi": [
    {
      "inputs": [
        {
          "internalType": "uint256",
          "name": "_block",
          "type": "uint256"
        }
      ],
      "name": "contribute",
      "outputs": [],
      "stateMutability": "payable",
      "type": "function"
    },
    {
      "inputs": [
        {
          "internalType": "uint256",
          "name": "_block",
          "type": "uint256"
        }
      ],
      "name": "getRN",
      "outputs": [
        {
          "internalType": "uint256",
          "name": "RN",
          "type": "uint256"
        }
      ],
      "stateMutability": "nonpayable",
      "type": "function"
    },
    {
      "inputs": [
        {
          "internalType": "uint256",
          "name": "_block",
          "type": "uint256"
        }
      ],
      "name": "getUncorrelatedRN",
      "outputs": [
        {
          "internalType": "uint256",
          "name": "RN",
          "type": "uint256"
        }
      ],
      "stateMutability": "nonpayable",
      "type": "function"
    },
    {
      "inputs": [],
      "name": "number",
      "outputs": [
        {
          "internalType": "uint256",
          "name": "",
          "type": "uint256"
        }
      ],
      "stateMutability": "view",
      "type": "function"
    },
    {
      "inputs": [
        {
          "internalType": "uint256",
          "name": "_block",
          "type": "uint256"
        }
      ],
      "name": "requestRN",
      "outputs": [],
      "stateMutability": "payable",
      "type": "function"
    }
  ],
  "transactionHash": "0xcf2ea069599299746c3004249e4df3427d6d07282936d9d419c09bb49759025d",
  "args": [],
  "numDeployments": 1,
  "solcInputHash": "9249c28a089f3327d86418ba2b8f467a",
  "bytecode": "0x608060405234801561001057600080fd5b50610180806100206000396000f3fe60806040526004361061004a5760003560e01c80631c73601e1461004f5780637b9c34e0146100815780638381f58a14610096578063c1cbbca7146100ac578063ca4742f1146100bd575b600080fd5b34801561005b57600080fd5b5061006f61006a366004610131565b6100e7565b60405190815260200160405180910390f35b61009461008f366004610131565b6100ba565b005b3480156100a257600080fd5b5061006f60005481565b6100946100ba366004610131565b50565b3480156100c957600080fd5b5061006f6100d8366004610131565b50600080546001810190915590565b60008054600181018255806100ff5750600092915050565b6040805133602082015290810182905260600160408051601f1981840301815291905280516020909101209392505050565b60006020828403121561014357600080fd5b503591905056fea2646970667358221220b348cf20df1f01d0d9fe9b9f09611253075c46fae4e277d5eed332e7c1e31bc864736f6c634300080a0033",
  "devdoc": {
    "kind": "dev",
    "methods": {
      "contribute(uint256)": {
        "details": "Contribute to the reward of a random number. All the ETH will be lost forever.",
        "params": {
          "_block": "Block the random number is linked to."
        }
      },
      "getRN(uint256)": {
        "details": "Get the \"random number\", which is predictable.",
        "params": {
          "_block": "Block the random number is linked to."
        },
        "returns": {
          "RN": "Random Number. If the number is not ready or has not been required 0 instead."
        }
      },
      "getUncorrelatedRN(uint256)": {
        "details": "Get a uncorrelated random number. Act like getRN but give a different number for each sender.      This is to prevent users from getting correlated numbers.",
        "params": {
          "_block": "Block the random number is linked to."
        },
        "returns": {
          "RN": "Random Number. If the number is not ready or has not been required 0 instead."
        }
      },
      "requestRN(uint256)": {
        "details": "Request a random number.",
        "params": {
          "_block": "Block linked to the request."
        }
      }
    },
    "version": 1
  },
  "userdoc": {
    "kind": "user",
    "methods": {},
    "version": 1
  },
  "storageLayout": {
    "storage": [
      {
        "astId": 12338,
        "contract": "src/rng/IncrementalNG.sol:IncrementalNG",
        "label": "number",
        "offset": 0,
        "slot": "0",
        "type": "t_uint256"
      }
    ],
    "types": {
      "t_uint256": {
        "encoding": "inplace",
        "label": "uint256",
        "numberOfBytes": "32"
      }
    }
  }
}