{
  "address": "0x5A407DcbD0F83ECbc1894C4B4f8Fc5b699D4822F",
  "abi": [
    {
      "inputs": [
        {
          "internalType": "address",
          "name": "_governor",
          "type": "address"
        },
        {
          "internalType": "contract IERC20",
          "name": "_pinakion",
          "type": "address"
        },
        {
          "internalType": "address",
          "name": "_jurorProsecutionModule",
          "type": "address"
        },
        {
          "internalType": "contract IDisputeKit",
          "name": "_disputeKit",
          "type": "address"
        },
        {
          "internalType": "bool",
          "name": "_hiddenVotes",
          "type": "bool"
        },
        {
          "internalType": "uint256",
          "name": "_minStake",
          "type": "uint256"
        },
        {
          "internalType": "uint256",
          "name": "_alpha",
          "type": "uint256"
        },
        {
          "internalType": "uint256",
          "name": "_feeForJuror",
          "type": "uint256"
        },
        {
          "internalType": "uint256",
          "name": "_jurorsForCourtJump",
          "type": "uint256"
        },
        {
          "internalType": "uint256[4]",
          "name": "_timesPerPeriod",
          "type": "uint256[4]"
        },
        {
          "internalType": "uint256",
          "name": "_sortitionSumTreeK",
          "type": "uint256"
        }
      ],
      "stateMutability": "nonpayable",
      "type": "constructor"
    },
    {
      "anonymous": false,
      "inputs": [
        {
          "indexed": true,
          "internalType": "uint256",
          "name": "_disputeID",
          "type": "uint256"
        },
        {
          "indexed": true,
          "internalType": "contract IArbitrable",
          "name": "_arbitrable",
          "type": "address"
        }
      ],
      "name": "AppealDecision",
      "type": "event"
    },
    {
      "anonymous": false,
      "inputs": [
        {
          "indexed": true,
          "internalType": "uint256",
          "name": "_disputeID",
          "type": "uint256"
        },
        {
          "indexed": true,
          "internalType": "contract IArbitrable",
          "name": "_arbitrable",
          "type": "address"
        }
      ],
      "name": "AppealPossible",
      "type": "event"
    },
    {
      "anonymous": false,
      "inputs": [
        {
          "indexed": true,
          "internalType": "uint256",
          "name": "_disputeID",
          "type": "uint256"
        },
        {
          "indexed": true,
          "internalType": "contract IArbitrable",
          "name": "_arbitrable",
          "type": "address"
        }
      ],
      "name": "DisputeCreation",
      "type": "event"
    },
    {
      "anonymous": false,
      "inputs": [
        {
          "indexed": true,
          "internalType": "address",
          "name": "_address",
          "type": "address"
        },
        {
          "indexed": true,
          "internalType": "uint256",
          "name": "_disputeID",
          "type": "uint256"
        },
        {
          "indexed": false,
          "internalType": "uint256",
          "name": "_appeal",
          "type": "uint256"
        },
        {
          "indexed": false,
          "internalType": "uint256",
          "name": "_voteID",
          "type": "uint256"
        }
      ],
      "name": "Draw",
      "type": "event"
    },
    {
      "anonymous": false,
      "inputs": [
        {
          "indexed": true,
          "internalType": "uint256",
          "name": "_disputeID",
          "type": "uint256"
        },
        {
          "indexed": false,
          "internalType": "enum KlerosCore.Period",
          "name": "_period",
          "type": "uint8"
        }
      ],
      "name": "NewPeriod",
      "type": "event"
    },
    {
      "anonymous": false,
      "inputs": [
        {
          "indexed": true,
          "internalType": "address",
          "name": "_address",
          "type": "address"
        },
        {
          "indexed": false,
          "internalType": "uint256",
          "name": "_subcourtID",
          "type": "uint256"
        },
        {
          "indexed": false,
          "internalType": "uint256",
          "name": "_amount",
          "type": "uint256"
        },
        {
          "indexed": false,
          "internalType": "uint256",
          "name": "_newTotalStake",
          "type": "uint256"
        }
      ],
      "name": "StakeSet",
      "type": "event"
    },
    {
      "anonymous": false,
      "inputs": [
        {
          "indexed": true,
          "internalType": "address",
          "name": "_account",
          "type": "address"
        },
        {
          "indexed": true,
          "internalType": "uint256",
          "name": "_disputeID",
          "type": "uint256"
        },
        {
          "indexed": false,
          "internalType": "int256",
          "name": "_tokenAmount",
          "type": "int256"
        },
        {
          "indexed": false,
          "internalType": "int256",
          "name": "_ETHAmount",
          "type": "int256"
        }
      ],
      "name": "TokenAndETHShift",
      "type": "event"
    },
    {
      "inputs": [],
      "name": "ALPHA_DIVISOR",
      "outputs": [
        {
          "internalType": "uint256",
          "name": "",
          "type": "uint256"
        }
      ],
      "stateMutability": "view",
      "type": "function"
    },
    {
      "inputs": [],
      "name": "MAX_STAKE_PATHS",
      "outputs": [
        {
          "internalType": "uint256",
          "name": "",
          "type": "uint256"
        }
      ],
      "stateMutability": "view",
      "type": "function"
    },
    {
      "inputs": [],
      "name": "MIN_JURORS",
      "outputs": [
        {
          "internalType": "uint256",
          "name": "",
          "type": "uint256"
        }
      ],
      "stateMutability": "view",
      "type": "function"
    },
    {
      "inputs": [],
      "name": "NON_PAYABLE_AMOUNT",
      "outputs": [
        {
          "internalType": "uint256",
          "name": "",
          "type": "uint256"
        }
      ],
      "stateMutability": "view",
      "type": "function"
    },
    {
      "inputs": [
        {
          "internalType": "contract IDisputeKit",
          "name": "_disputeKitAddress",
          "type": "address"
        },
        {
          "internalType": "uint8",
          "name": "_disputeKitID",
          "type": "uint8"
        }
      ],
      "name": "addNewDisputeKit",
      "outputs": [],
      "stateMutability": "nonpayable",
      "type": "function"
    },
    {
      "inputs": [
        {
          "internalType": "uint256",
          "name": "_disputeID",
          "type": "uint256"
        }
      ],
      "name": "appeal",
      "outputs": [],
      "stateMutability": "payable",
      "type": "function"
    },
    {
      "inputs": [
        {
          "internalType": "uint256",
          "name": "_disputeID",
          "type": "uint256"
        }
      ],
      "name": "appealCost",
      "outputs": [
        {
          "internalType": "uint256",
          "name": "cost",
          "type": "uint256"
        }
      ],
      "stateMutability": "view",
      "type": "function"
    },
    {
      "inputs": [
        {
          "internalType": "uint256",
          "name": "_disputeID",
          "type": "uint256"
        }
      ],
      "name": "appealPeriod",
      "outputs": [
        {
          "internalType": "uint256",
          "name": "start",
          "type": "uint256"
        },
        {
          "internalType": "uint256",
          "name": "end",
          "type": "uint256"
        }
      ],
      "stateMutability": "view",
      "type": "function"
    },
    {
      "inputs": [
        {
          "internalType": "bytes",
          "name": "_extraData",
          "type": "bytes"
        }
      ],
      "name": "arbitrationCost",
      "outputs": [
        {
          "internalType": "uint256",
          "name": "cost",
          "type": "uint256"
        }
      ],
      "stateMutability": "view",
      "type": "function"
    },
    {
      "inputs": [
        {
          "internalType": "uint256",
          "name": "_subcourtID",
          "type": "uint256"
        }
      ],
      "name": "areVotesHidden",
      "outputs": [
        {
          "internalType": "bool",
          "name": "hiddenVotes",
          "type": "bool"
        }
      ],
      "stateMutability": "view",
      "type": "function"
    },
    {
      "inputs": [
        {
          "internalType": "address payable",
          "name": "_governor",
          "type": "address"
        }
      ],
      "name": "changeGovernor",
      "outputs": [],
      "stateMutability": "nonpayable",
      "type": "function"
    },
    {
      "inputs": [
        {
          "internalType": "address",
          "name": "_jurorProsecutionModule",
          "type": "address"
        }
      ],
      "name": "changeJurorProsecutionModule",
      "outputs": [],
      "stateMutability": "nonpayable",
      "type": "function"
    },
    {
      "inputs": [
        {
          "internalType": "contract IERC20",
          "name": "_pinakion",
          "type": "address"
        }
      ],
      "name": "changePinakion",
      "outputs": [],
      "stateMutability": "nonpayable",
      "type": "function"
    },
    {
      "inputs": [
        {
          "internalType": "uint96",
          "name": "_subcourtID",
          "type": "uint96"
        },
        {
          "internalType": "uint256",
          "name": "_alpha",
          "type": "uint256"
        }
      ],
      "name": "changeSubcourtAlpha",
      "outputs": [],
      "stateMutability": "nonpayable",
      "type": "function"
    },
    {
      "inputs": [
        {
          "internalType": "uint96",
          "name": "_subcourtID",
          "type": "uint96"
        },
        {
          "internalType": "uint256",
          "name": "_feeForJuror",
          "type": "uint256"
        }
      ],
      "name": "changeSubcourtJurorFee",
      "outputs": [],
      "stateMutability": "nonpayable",
      "type": "function"
    },
    {
      "inputs": [
        {
          "internalType": "uint96",
          "name": "_subcourtID",
          "type": "uint96"
        },
        {
          "internalType": "uint256",
          "name": "_jurorsForCourtJump",
          "type": "uint256"
        }
      ],
      "name": "changeSubcourtJurorsForJump",
      "outputs": [],
      "stateMutability": "nonpayable",
      "type": "function"
    },
    {
      "inputs": [
        {
          "internalType": "uint96",
          "name": "_subcourtID",
          "type": "uint96"
        },
        {
          "internalType": "uint256",
          "name": "_minStake",
          "type": "uint256"
        }
      ],
      "name": "changeSubcourtMinStake",
      "outputs": [],
      "stateMutability": "nonpayable",
      "type": "function"
    },
    {
      "inputs": [
        {
          "internalType": "uint96",
          "name": "_subcourtID",
          "type": "uint96"
        },
        {
          "internalType": "uint256[4]",
          "name": "_timesPerPeriod",
          "type": "uint256[4]"
        }
      ],
      "name": "changeSubcourtTimesPerPeriod",
      "outputs": [],
      "stateMutability": "nonpayable",
      "type": "function"
    },
    {
      "inputs": [
        {
          "internalType": "uint256",
          "name": "",
          "type": "uint256"
        }
      ],
      "name": "courts",
      "outputs": [
        {
          "internalType": "uint96",
          "name": "parent",
          "type": "uint96"
        },
        {
          "internalType": "bool",
          "name": "hiddenVotes",
          "type": "bool"
        },
        {
          "internalType": "uint256",
          "name": "minStake",
          "type": "uint256"
        },
        {
          "internalType": "uint256",
          "name": "alpha",
          "type": "uint256"
        },
        {
          "internalType": "uint256",
          "name": "feeForJuror",
          "type": "uint256"
        },
        {
          "internalType": "uint256",
          "name": "jurorsForCourtJump",
          "type": "uint256"
        },
        {
          "internalType": "uint256",
          "name": "supportedDisputeKits",
          "type": "uint256"
        }
      ],
      "stateMutability": "view",
      "type": "function"
    },
    {
      "inputs": [
        {
          "internalType": "uint256",
          "name": "_numberOfChoices",
          "type": "uint256"
        },
        {
          "internalType": "bytes",
          "name": "_extraData",
          "type": "bytes"
        }
      ],
      "name": "createDispute",
      "outputs": [
        {
          "internalType": "uint256",
          "name": "disputeID",
          "type": "uint256"
        }
      ],
      "stateMutability": "payable",
      "type": "function"
    },
    {
      "inputs": [
        {
          "internalType": "uint96",
          "name": "_parent",
          "type": "uint96"
        },
        {
          "internalType": "bool",
          "name": "_hiddenVotes",
          "type": "bool"
        },
        {
          "internalType": "uint256",
          "name": "_minStake",
          "type": "uint256"
        },
        {
          "internalType": "uint256",
          "name": "_alpha",
          "type": "uint256"
        },
        {
          "internalType": "uint256",
          "name": "_feeForJuror",
          "type": "uint256"
        },
        {
          "internalType": "uint256",
          "name": "_jurorsForCourtJump",
          "type": "uint256"
        },
        {
          "internalType": "uint256[4]",
          "name": "_timesPerPeriod",
          "type": "uint256[4]"
        },
        {
          "internalType": "uint256",
          "name": "_sortitionSumTreeK",
          "type": "uint256"
        },
        {
          "internalType": "uint256",
          "name": "_supportedDisputeKits",
          "type": "uint256"
        }
      ],
      "name": "createSubcourt",
      "outputs": [],
      "stateMutability": "nonpayable",
      "type": "function"
    },
    {
      "inputs": [
        {
          "internalType": "uint256",
          "name": "_disputeID",
          "type": "uint256"
        }
      ],
      "name": "currentRuling",
      "outputs": [
        {
          "internalType": "uint256",
          "name": "ruling",
          "type": "uint256"
        }
      ],
      "stateMutability": "view",
      "type": "function"
    },
    {
      "inputs": [
        {
          "internalType": "uint256",
          "name": "",
          "type": "uint256"
        }
      ],
      "name": "disputeKits",
      "outputs": [
        {
          "internalType": "contract IDisputeKit",
          "name": "",
          "type": "address"
        }
      ],
      "stateMutability": "view",
      "type": "function"
    },
    {
      "inputs": [
        {
          "internalType": "uint256",
          "name": "",
          "type": "uint256"
        }
      ],
      "name": "disputes",
      "outputs": [
        {
          "internalType": "uint96",
          "name": "subcourtID",
          "type": "uint96"
        },
        {
          "internalType": "contract IArbitrable",
          "name": "arbitrated",
          "type": "address"
        },
        {
          "internalType": "contract IDisputeKit",
          "name": "disputeKit",
          "type": "address"
        },
        {
          "internalType": "enum KlerosCore.Period",
          "name": "period",
          "type": "uint8"
        },
        {
          "internalType": "bool",
          "name": "ruled",
          "type": "bool"
        },
        {
          "internalType": "uint256",
          "name": "lastPeriodChange",
          "type": "uint256"
        },
        {
          "internalType": "uint256",
          "name": "nbVotes",
          "type": "uint256"
        }
      ],
      "stateMutability": "view",
      "type": "function"
    },
    {
      "inputs": [
        {
          "internalType": "uint256",
          "name": "_disputeID",
          "type": "uint256"
        },
        {
          "internalType": "uint256",
          "name": "_iterations",
          "type": "uint256"
        }
      ],
      "name": "draw",
      "outputs": [],
      "stateMutability": "nonpayable",
      "type": "function"
    },
    {
      "inputs": [
        {
          "internalType": "uint256",
          "name": "_disputeID",
          "type": "uint256"
        },
        {
          "internalType": "uint256",
          "name": "_appeal",
          "type": "uint256"
        },
        {
          "internalType": "uint256",
          "name": "_iterations",
          "type": "uint256"
        }
      ],
      "name": "execute",
      "outputs": [],
      "stateMutability": "nonpayable",
      "type": "function"
    },
    {
      "inputs": [
        {
          "internalType": "address",
          "name": "_destination",
          "type": "address"
        },
        {
          "internalType": "uint256",
          "name": "_amount",
          "type": "uint256"
        },
        {
          "internalType": "bytes",
          "name": "_data",
          "type": "bytes"
        }
      ],
      "name": "executeGovernorProposal",
      "outputs": [],
      "stateMutability": "nonpayable",
      "type": "function"
    },
    {
      "inputs": [
        {
          "internalType": "uint256",
          "name": "_disputeID",
          "type": "uint256"
        }
      ],
      "name": "executeRuling",
      "outputs": [],
      "stateMutability": "nonpayable",
      "type": "function"
    },
    {
      "inputs": [
        {
          "internalType": "uint256",
          "name": "_disputeID",
          "type": "uint256"
        }
      ],
      "name": "getCurrentPeriod",
      "outputs": [
        {
          "internalType": "enum KlerosCore.Period",
          "name": "period",
          "type": "uint8"
        }
      ],
      "stateMutability": "view",
      "type": "function"
    },
    {
      "inputs": [
        {
          "internalType": "address",
          "name": "_juror",
          "type": "address"
        },
        {
          "internalType": "uint96",
          "name": "_subcourtID",
          "type": "uint96"
        }
      ],
      "name": "getJurorBalance",
      "outputs": [
        {
          "internalType": "uint256",
          "name": "staked",
          "type": "uint256"
        },
        {
          "internalType": "uint256",
          "name": "locked",
          "type": "uint256"
        }
      ],
      "stateMutability": "view",
      "type": "function"
    },
    {
      "inputs": [
        {
          "internalType": "uint256",
          "name": "_disputeID",
          "type": "uint256"
        }
      ],
      "name": "getNumberOfRounds",
      "outputs": [
        {
          "internalType": "uint256",
          "name": "",
          "type": "uint256"
        }
      ],
      "stateMutability": "view",
      "type": "function"
    },
    {
      "inputs": [
        {
          "internalType": "uint256",
          "name": "_disputeID",
          "type": "uint256"
        },
        {
          "internalType": "uint256",
          "name": "_round",
          "type": "uint256"
        }
      ],
      "name": "getRoundInfo",
      "outputs": [
        {
          "internalType": "uint256",
          "name": "tokensAtStakePerJuror",
          "type": "uint256"
        },
        {
          "internalType": "uint256",
          "name": "totalFeesForJurors",
          "type": "uint256"
        },
        {
          "internalType": "uint256",
          "name": "repartitions",
          "type": "uint256"
        },
        {
          "internalType": "uint256",
          "name": "penalties",
          "type": "uint256"
        },
        {
          "internalType": "address[]",
          "name": "drawnJurors",
          "type": "address[]"
        }
      ],
      "stateMutability": "view",
      "type": "function"
    },
    {
      "inputs": [
        {
          "internalType": "bytes32",
          "name": "_key",
          "type": "bytes32"
        }
      ],
      "name": "getSortitionSumTree",
      "outputs": [
        {
          "internalType": "uint256",
          "name": "K",
          "type": "uint256"
        },
        {
          "internalType": "uint256[]",
          "name": "stack",
          "type": "uint256[]"
        },
        {
          "internalType": "uint256[]",
          "name": "nodes",
          "type": "uint256[]"
        }
      ],
      "stateMutability": "view",
      "type": "function"
    },
    {
      "inputs": [
        {
          "internalType": "bytes32",
          "name": "_key",
          "type": "bytes32"
        },
        {
          "internalType": "uint256",
          "name": "_nodeIndex",
          "type": "uint256"
        }
      ],
      "name": "getSortitionSumTreeID",
      "outputs": [
        {
          "internalType": "bytes32",
          "name": "ID",
          "type": "bytes32"
        }
      ],
      "stateMutability": "view",
      "type": "function"
    },
    {
      "inputs": [
        {
          "internalType": "uint256",
          "name": "_disputeID",
          "type": "uint256"
        }
      ],
      "name": "getSubcourtID",
      "outputs": [
        {
          "internalType": "uint256",
          "name": "subcourtID",
          "type": "uint256"
        }
      ],
      "stateMutability": "view",
      "type": "function"
    },
    {
      "inputs": [],
      "name": "governor",
      "outputs": [
        {
          "internalType": "address",
          "name": "",
          "type": "address"
        }
      ],
      "stateMutability": "view",
      "type": "function"
    },
    {
      "inputs": [
        {
          "internalType": "uint256",
          "name": "_disputeID",
          "type": "uint256"
        }
      ],
      "name": "isRuled",
      "outputs": [
        {
          "internalType": "bool",
          "name": "",
          "type": "bool"
        }
      ],
      "stateMutability": "view",
      "type": "function"
    },
    {
      "inputs": [],
      "name": "jurorProsecutionModule",
      "outputs": [
        {
          "internalType": "address",
          "name": "",
          "type": "address"
        }
      ],
      "stateMutability": "view",
      "type": "function"
    },
    {
      "inputs": [
        {
          "internalType": "uint256",
          "name": "_disputeID",
          "type": "uint256"
        }
      ],
      "name": "passPeriod",
      "outputs": [],
      "stateMutability": "nonpayable",
      "type": "function"
    },
    {
      "inputs": [],
      "name": "pinakion",
      "outputs": [
        {
          "internalType": "contract IERC20",
          "name": "",
          "type": "address"
        }
      ],
      "stateMutability": "view",
      "type": "function"
    },
    {
      "inputs": [
        {
          "internalType": "uint96",
          "name": "_subcourtID",
          "type": "uint96"
        },
        {
          "internalType": "uint8[]",
          "name": "_disputeKitIDs",
          "type": "uint8[]"
        },
        {
          "internalType": "bool",
          "name": "_enable",
          "type": "bool"
        }
      ],
      "name": "setDisputeKits",
      "outputs": [],
      "stateMutability": "nonpayable",
      "type": "function"
    },
    {
      "inputs": [
        {
          "internalType": "uint96",
          "name": "_subcourtID",
          "type": "uint96"
        },
        {
          "internalType": "uint256",
          "name": "_stake",
          "type": "uint256"
        }
      ],
      "name": "setStake",
      "outputs": [],
      "stateMutability": "nonpayable",
      "type": "function"
    }
  ],
  "transactionHash": "0x410cdb405cd569666020b07d678fab6448bbf4016af3f4ab1b879f1452bda74a",
  "args": [
    "0xF50E77f2A2B6138D16c6c7511562E5C33c4B15A3",
    "0x364530164a2338cdba211f72c1438eb811b5c639",
    "0x0000000000000000000000000000000000000000",
    "0xD78DCddE2C5a2Bd4BB246Bc7dB6994b95f7c442C",
    false,
    200,
    10000,
    100,
    3,
    [
      0,
      0,
      0,
      0
    ],
    3
  ],
  "numDeployments": 2,
  "solcInputHash": "cb9cc63f5df7c380e26ec11990659306",
  "bytecode": "0x60806040523480156200001157600080fd5b5060405162004bf638038062004bf68339810160408190526200003491620003a2565b600080546001600160a01b03199081166001600160a01b038e81169190911783556001805483168e83161781556002805484168e8416179055600460209081527f17ef568e3e12ab5b9c7254a8d58478811de00f9e6eb34345acd53bf8fd09d3ec8054909416928d169290921790925560408051610120810182528481528b151581840190815282518681528085018452928201928352606082018c9052608082018b905260a082018a905260c0820189905260e08201889052610100820185905260038054958601815590955280517fc2575a0e9e593c00f959f8c92f12db2869c3395a3b0502d05e2516446f71f85b600b9095029485018054965115156c01000000000000000000000000026001600160681b03199097166001600160601b0390921691909117959095178555905180519194936200019d937fc2575a0e9e593c00f959f8c92f12db2869c3395a3b0502d05e2516446f71f85c9091019291019062000272565b50606082015181600201556080820151816003015560a0820151816004015560c0820151816005015560e082015181600601906004620001df929190620002c2565b506101009190910151600a9091015560405163483abc4f60e11b815260076004820152600060248201526044810182905273f02733d9e5CbfE67B54F165b0277E1995106D52690639075789e9060640160006040518083038186803b1580156200024857600080fd5b505af41580156200025d573d6000803e3d6000fd5b5050505050505050505050505050506200046d565b828054828255906000526020600020908101928215620002b0579160200282015b82811115620002b057825182559160200191906001019062000293565b50620002be929150620002f2565b5090565b8260048101928215620002b05791602002820182811115620002b057825182559160200191906001019062000293565b5b80821115620002be5760008155600101620002f3565b6001600160a01b03811681146200031f57600080fd5b50565b600082601f8301126200033457600080fd5b604051608081016001600160401b03811182821017156200036557634e487b7160e01b600052604160045260246000fd5b6040528060808401858111156200037b57600080fd5b845b81811015620003975780518352602092830192016200037d565b509195945050505050565b60008060008060008060008060008060006101c08c8e031215620003c557600080fd5b8b51620003d28162000309565b60208d0151909b50620003e58162000309565b60408d0151909a50620003f88162000309565b60608d01519099506200040b8162000309565b60808d015190985080151581146200042257600080fd5b8097505060a08c0151955060c08c0151945060e08c015193506101008c01519250620004538d6101208e0162000322565b91506101a08c015190509295989b509295989b9093969950565b614779806200047d6000396000f3fe6080604052600436106102505760003560e01c80638a9bb02a11610139578063d2b8035a116100b6578063eaff425a1161007a578063eaff425a146107e1578063f441d9b3146107f6578063f6a6ef7a14610816578063f7434ea914610836578063fbf405b014610856578063fc6f8f161461087657600080fd5b8063d2b8035a14610716578063d2d514e014610736578063d578cbac14610765578063de1a1e5914610785578063e4c0aaf4146107c157600080fd5b8063b4a61608116100fd578063b4a6160814610651578063c13517e114610666578063c258bb1914610679578063cf0c38f814610699578063d1c1df48146106b957600080fd5b80638a9bb02a146105755780638bb04875146105a6578063a57366e7146105c6578063acdbf51d146105e6578063afe15cfb1461061c57600080fd5b80635468f919116101d257806359ec827e1161019657806359ec827e146104c75780635bc24dd3146104e7578063751accd0146105075780637717a6e8146105275780637e69b7b014610547578063840bc19c1461055a57600080fd5b80635468f91914610414578063564a565d1461043457806357260364146104675780635788795d1461048757806359354c77146104a757600080fd5b806322684db01161021957806322684db0146103615780632d29a47b1461038e5780632ea7b4d0146103ae5780633e1d09be146103c45780634b7fcda2146103e457600080fd5b8062f5822c146102555780630c340a2414610277578063115d5376146102b45780631c3db16d146102d45780631f5a0dd214610302575b600080fd5b34801561026157600080fd5b50610275610270366004613ed9565b610896565b005b34801561028357600080fd5b50600054610297906001600160a01b031681565b6040516001600160a01b0390911681526020015b60405180910390f35b3480156102c057600080fd5b506102756102cf366004613ef6565b6108eb565b3480156102e057600080fd5b506102f46102ef366004613ef6565b610fe4565b6040519081526020016102ab565b34801561030e57600080fd5b5061032261031d366004613ef6565b611082565b604080516001600160601b0390981688529515156020880152948601939093526060850191909152608084015260a083015260c082015260e0016102ab565b34801561036d57600080fd5b5061038161037c366004613ef6565b6110df565b6040516102ab9190613f47565b34801561039a57600080fd5b506102756103a9366004613f5b565b611118565b3480156103ba57600080fd5b506102f461271081565b3480156103d057600080fd5b506102756103df366004613fa3565b611c9c565b3480156103f057600080fd5b506104046103ff366004613ef6565b611eb7565b60405190151581526020016102ab565b34801561042057600080fd5b5061027561042f36600461403e565b611ef0565b34801561044057600080fd5b5061045461044f366004613ef6565b612053565b6040516102ab979695949392919061410e565b34801561047357600080fd5b506102756104823660046141ce565b6120c0565b34801561049357600080fd5b506102756104a2366004614202565b61212b565b3480156104b357600080fd5b506102756104c2366004613fa3565b6123ff565b3480156104d357600080fd5b506102f46104e2366004613ef6565b61245f565b3480156104f357600080fd5b50610275610502366004613fa3565b6125cf565b34801561051357600080fd5b506102756105223660046142f4565b61262f565b34801561053357600080fd5b50610275610542366004613fa3565b612701565b610275610555366004613ef6565b61274f565b34801561056657600080fd5b506102f46001600160ff1b0381565b34801561058157600080fd5b5061059561059036600461434d565b612abd565b6040516102ab95949392919061436f565b3480156105b257600080fd5b506102756105c1366004613ef6565b612b9b565b3480156105d257600080fd5b506102756105e1366004613fa3565b612d1f565b3480156105f257600080fd5b50610297610601366004613ef6565b6004602052600090815260409020546001600160a01b031681565b34801561062857600080fd5b5061063c610637366004613ef6565b612d7f565b604080519283526020830191909152016102ab565b34801561065d57600080fd5b506102f4600481565b6102f46106743660046143db565b612e33565b34801561068557600080fd5b50610275610694366004613ed9565b61319c565b3480156106a557600080fd5b50600254610297906001600160a01b031681565b3480156106c557600080fd5b5061063c6106d4366004614422565b6001600160a01b0390911660009081526006602090815260408083206001600160601b0390941683526001840182528083205460029094019091529020549091565b34801561072257600080fd5b5061027561073136600461434d565b6131e8565b34801561074257600080fd5b50610756610751366004613ef6565b6134fd565b6040516102ab93929190614489565b34801561077157600080fd5b50610404610780366004613ef6565b6135c5565b34801561079157600080fd5b506102f46107a036600461434d565b60009182526007602090815260408084209284526004909201905290205490565b3480156107cd57600080fd5b506102756107dc366004613ed9565b6135fb565b3480156107ed57600080fd5b506102f4600381565b34801561080257600080fd5b506102756108113660046144be565b613647565b34801561082257600080fd5b506102f4610831366004613ef6565b6136a2565b34801561084257600080fd5b506102f46108513660046144ea565b6136d7565b34801561086257600080fd5b50600154610297906001600160a01b031681565b34801561088257600080fd5b506102f4610891366004613ef6565b61372b565b6000546001600160a01b031633146108c95760405162461bcd60e51b81526004016108c09061451f565b60405180910390fd5b600180546001600160a01b0319166001600160a01b0392909216919091179055565b60006005828154811061090057610900614561565b90600052602060002090600502019050600060018260040180549050610926919061458d565b9050600082600401828154811061093f5761093f614561565b60009182526020822060059091020191506001840154600160a01b900460ff16600481111561097057610970613f0f565b1415610b585760008211806109f8575082546003805490916001600160601b03169081106109a0576109a0614561565b90600052602060002090600b02016006018360010160149054906101000a900460ff1660048111156109d4576109d4613f0f565b600481106109e4576109e4614561565b015460028401546109f5904261458d565b10155b610a785760405162461bcd60e51b8152602060048201526044602482018190527f5468652065766964656e636520706572696f642074696d6520686173206e6f74908201527f207061737365642079657420616e64206974206973206e6f7420616e2061707060648201526332b0b61760e11b608482015260a4016108c0565b6003830154600482015414610ae15760405162461bcd60e51b815260206004820152602960248201527f546865206469737075746520686173206e6f742066696e6973686564206472616044820152683bb4b733903cb2ba1760b91b60648201526084016108c0565b82546003805490916001600160601b0316908110610b0157610b01614561565b60009182526020909120600b9091020154600160601b900460ff16610b27576002610b2a565b60015b60018401805460ff60a01b1916600160a01b836004811115610b4e57610b4e613f0f565b0217905550610f90565b600180840154600160a01b900460ff166004811115610b7957610b79613f0f565b1415610c885782546003805490916001600160601b0316908110610b9f57610b9f614561565b90600052602060002090600b02016006018360010160149054906101000a900460ff166004811115610bd357610bd3613f0f565b60048110610be357610be3614561565b01546002840154610bf4904261458d565b101580610c0d575060018301546001600160a01b031633145b610c6c5760405162461bcd60e51b815260206004820152602a60248201527f54686520636f6d6d697420706572696f642074696d6520686173206e6f74207060448201526930b9b9b2b2103cb2ba1760b11b60648201526084016108c0565b6001830180546002919060ff60a01b1916600160a01b83610b4e565b60026001840154600160a01b900460ff166004811115610caa57610caa613f0f565b1415610df35782546003805490916001600160601b0316908110610cd057610cd0614561565b90600052602060002090600b02016006018360010160149054906101000a900460ff166004811115610d0457610d04613f0f565b60048110610d1457610d14614561565b01546002840154610d25904261458d565b101580610d3e575060018301546001600160a01b031633145b610d9a5760405162461bcd60e51b815260206004820152602760248201527f54686520766f746520706572696f642074696d6520686173206e6f74207061736044820152661cd959081e595d60ca1b60648201526084016108c0565b60018301805460ff60a01b1916600360a01b1790558254604051600160601b9091046001600160a01b03169085907fa5d41b970d849372be1da1481ffd78d162bfe57a7aa2fe4e5fb73481fa5ac24f90600090a3610f90565b60036001840154600160a01b900460ff166004811115610e1557610e15613f0f565b1415610f0d5782546003805490916001600160601b0316908110610e3b57610e3b614561565b90600052602060002090600b02016006018360010160149054906101000a900460ff166004811115610e6f57610e6f613f0f565b60048110610e7f57610e7f614561565b01546002840154610e90904261458d565b1015610ef15760405162461bcd60e51b815260206004820152602a60248201527f5468652061707065616c20706572696f642074696d6520686173206e6f74207060448201526930b9b9b2b2103cb2ba1760b11b60648201526084016108c0565b6001830180546004919060ff60a01b1916600160a01b83610b4e565b60046001840154600160a01b900460ff166004811115610f2f57610f2f613f0f565b1415610f905760405162461bcd60e51b815260206004820152602a60248201527f546865206469737075746520697320616c726561647920696e20746865206c6160448201526939ba103832b934b7b21760b11b60648201526084016108c0565b426002840155600183015460405185917f4e6f5cf43b95303e86aee81683df63992061723a829ee012db21dad388756b9191610fd691600160a01b900460ff1690613f47565b60405180910390a250505050565b60008060058381548110610ffa57610ffa614561565b6000918252602090912060059091020160010154604051631c3db16d60e01b8152600481018590526001600160a01b0390911691508190631c3db16d90602401602060405180830381865afa158015611057573d6000803e3d6000fd5b505050506040513d601f19601f8201168201806040525081019061107b91906145a4565b9392505050565b6003818154811061109257600080fd5b60009182526020909120600b9091020180546002820154600383015460048401546005850154600a909501546001600160601b0385169650600160601b90940460ff169492939192909187565b6000600582815481106110f4576110f4614561565b6000918252602090912060059091020160010154600160a01b900460ff1692915050565b60006005848154811061112d5761112d614561565b60009182526020909120600590910201905060046001820154600160a01b900460ff16600481111561116157611161613f0f565b146111ae5760405162461bcd60e51b815260206004820152601b60248201527f53686f756c6420626520657865637574696f6e20706572696f642e000000000060448201526064016108c0565b6000828260040185815481106111c6576111c6614561565b9060005260206000209060050201600201546111e291906145bd565b905060008260040185815481106111fb576111fb614561565b9060005260206000209060050201600301549050600083600401868154811061122657611226614561565b6000918252602082206004600590920201810154600187015460405163368efae360e21b81529194506001600160a01b03169163da3beb8c91611276918c918c9101918252602082015260400190565b602060405180830381865afa158015611293573d6000803e3d6000fd5b505050506040513d601f19601f820116820180604052508101906112b791906145a4565b9050600080826112d257838611156112cd578395505b6112f2565b6112dd8460026145d5565b8611156112f2576112ef8460026145d5565b95505b6000876004018a8154811061130957611309614561565b90600052602060002090600502016002015490505b86811015611c0b5784811015611809576001880154604051634fe264fb60e01b8152600481018d9052602481018c9052604481018390526001600160a01b0390911690634fe264fb90606401602060405180830381865afa158015611387573d6000803e3d6000fd5b505050506040513d601f19601f820116820180604052508101906113ab91906145a4565b91506127108211156113bd5761271091505b60006127106113cc848261458d565b8a6004018d815481106113e1576113e1614561565b9060005260206000209060050201600001546113fd91906145d5565b611407919061460a565b905061141381886145bd565b9650886004018b8154811061142a5761142a614561565b9060005260206000209060050201600401828154811061144c5761144c614561565b60009182526020808320909101546001600160a01b03168083526006825260408084208d546001600160601b0316855260020190925290822080549196508392909161149990849061458d565b909155505088546003805483926001600160601b03169081106114be576114be614561565b90600052602060002090600b0201600201546114da91906145bd565b6001600160a01b03851660009081526006602090815260408083208d546001600160601b03168452600101909152902054106115635788546001600160a01b03851660009081526006602090815260408083206001600160601b03909416808452600190940190915290205461155d91869161155790859061458d565b8461375c565b506115b4565b6001600160a01b03841660009081526006602090815260408083208c546001600160601b03168452600101909152902054156115b45788546115b29085906001600160601b031660008461375c565b505b600189015460405163ba66fde760e01b8152600481018e9052602481018d9052604481018490526001600160a01b039091169063ba66fde790606401602060405180830381865afa15801561160d573d6000803e3d6000fd5b505050506040513d601f19601f82011682018060405250810190611631919061461e565b6116ce5760005b6001600160a01b0385166000908152600660205260409020548110156116cc576001600160a01b038516600090815260066020526040902080546116b99187918490811061168857611688614561565b9060005260206000209060029182820401919006600c029054906101000a90046001600160601b031660008061375c565b50806116c48161463b565b915050611638565b505b8b6001600160a01b0385167f24f45c2b08bbde8c837d70b67991ccb7660537cf749de21a940ae4858b681e1961170384614656565b60408051918252600060208301520160405180910390a361172560018761458d565b82141561180357846118035760005460048a0180546001600160a01b03909216916108fc91908e90811061175b5761175b614561565b9060005260206000209060050201600101549081150290604051600060405180830381858888f1505060015460005460405163a9059cbb60e01b81526001600160a01b039182166004820152602481018d90529116935063a9059cbb925060440190506020604051808303816000875af11580156117dd573d6000803e3d6000fd5b505050506040513d601f19601f82011682018060405250810190611801919061461e565b505b50611bf9565b60018801546001600160a01b0316634fe264fb8c8c6118288986614673565b6040516001600160e01b031960e086901b168152600481019390935260248301919091526044820152606401602060405180830381865afa158015611871573d6000803e3d6000fd5b505050506040513d601f19601f8201168201806040525081019061189591906145a4565b91506127108211156118a75761271091505b876004018a815481106118bc576118bc614561565b906000526020600020906005020160040185826118d99190614673565b815481106118e9576118e9614561565b9060005260206000200160009054906101000a90046001600160a01b0316925061271082896004018c8154811061192257611922614561565b90600052602060002090600502016000015461193e91906145d5565b611948919061460a565b6001600160a01b03841660009081526006602090815260408083208c546001600160601b031684526002019091528120805490919061198890849061458d565b90915550506001600160a01b03831660009081526006602090815260408083208b546001600160601b03168452600101909152902054611a9757600160009054906101000a90046001600160a01b03166001600160a01b031663a9059cbb84612710858c6004018f81548110611a0057611a00614561565b906000526020600020906005020160000154611a1c91906145d5565b611a26919061460a565b6040516001600160e01b031960e085901b1681526001600160a01b03909216600483015260248201526044016020604051808303816000875af1158015611a71573d6000803e3d6000fd5b505050506040513d601f19601f82011682018060405250810190611a95919061461e565b505b600061271083611aa7878a61460a565b611ab191906145d5565b611abb919061460a565b9050600061271084878c6004018f81548110611ad957611ad9614561565b906000526020600020906005020160010154611af5919061460a565b611aff91906145d5565b611b09919061460a565b60015460405163a9059cbb60e01b81526001600160a01b0388811660048301526024820186905292935091169063a9059cbb906044016020604051808303816000875af1158015611b5e573d6000803e3d6000fd5b505050506040513d601f19601f82011682018060405250810190611b82919061461e565b506040516001600160a01b0386169082156108fc029083906000818181858888f19350505050508c856001600160a01b03167f24f45c2b08bbde8c837d70b67991ccb7660537cf749de21a940ae4858b681e198484604051611bee929190918252602082015260400190565b60405180910390a350505b80611c038161463b565b91505061131e565b5084876004018a81548110611c2257611c22614561565b90600052602060002090600502016003015414611c655784876004018a81548110611c4f57611c4f614561565b9060005260206000209060050201600301819055505b85876004018a81548110611c7b57611c7b614561565b90600052602060002090600502016002018190555050505050505050505050565b6000546001600160a01b03163314611cc65760405162461bcd60e51b81526004016108c09061451f565b6001600160601b0382161580611d37575080600380846001600160601b031681548110611cf557611cf5614561565b60009182526020909120600b909102015481546001600160601b03909116908110611d2257611d22614561565b90600052602060002090600b02016002015411155b611d4057600080fd5b60005b6003836001600160601b031681548110611d5f57611d5f614561565b90600052602060002090600b020160010180549050811015611e805781600380856001600160601b031681548110611d9957611d99614561565b90600052602060002090600b02016001018381548110611dbb57611dbb614561565b906000526020600020015481548110611dd657611dd6614561565b90600052602060002090600b0201600201541015611e6e5760405162461bcd60e51b815260206004820152604960248201527f4120737562636f7572742063616e6e6f742062652074686520706172656e742060448201527f6f66206120737562636f75727420776974682061206c6f776572206d696e696d6064820152683ab69039ba30b5b29760b91b608482015260a4016108c0565b80611e788161463b565b915050611d43565b50806003836001600160601b031681548110611e9e57611e9e614561565b90600052602060002090600b0201600201819055505050565b600060058281548110611ecc57611ecc614561565b6000918252602090912060059091020160010154600160a81b900460ff1692915050565b6000546001600160a01b03163314611f1a5760405162461bcd60e51b81526004016108c09061451f565b60006003846001600160601b031681548110611f3857611f38614561565b90600052602060002090600b0201905060005b835181101561204c576000848281518110611f6857611f68614561565b602002602001015160ff166001901b90508315611fda578083600a015419821614611fd55760405162461bcd60e51b815260206004820152601d60248201527f44697370757465206b697420616c726561647920737570706f7274656400000060448201526064016108c0565b61202f565b8083600a015482161461202f5760405162461bcd60e51b815260206004820152601c60248201527f44697370757465206b6974206973206e6f7420737570706f727465640000000060448201526064016108c0565b600a830180549091189055806120448161463b565b915050611f4b565b5050505050565b6005818154811061206357600080fd5b600091825260209091206005909102018054600182015460028301546003909301546001600160601b03831694506001600160a01b03600160601b9093048316939282169260ff600160a01b8404811693600160a81b9004169187565b6000546001600160a01b031633146120ea5760405162461bcd60e51b81526004016108c09061451f565b806003836001600160601b03168154811061210757612107614561565b90600052602060002090600b0201600601906004612126929190613e34565b505050565b6000546001600160a01b031633146121555760405162461bcd60e51b81526004016108c09061451f565b8660038a6001600160601b03168154811061217257612172614561565b90600052602060002090600b02016002015411156122085760405162461bcd60e51b815260206004820152604760248201527f4120737562636f7572742063616e6e6f742062652061206368696c64206f662060448201527f6120737562636f7572742077697468206120686967686572206d696e696d756d6064820152661039ba30b5b29760c91b608482015260a4016108c0565b6003805460408051610120810182526001600160601b038d1681528b15156020820152919291908101600060405190808252806020026020018201604052801561225c578160200160208202803683370190505b50815260208082018c905260408083018c9052606083018b9052608083018a905260a0830189905260c09092018690528354600181810186556000958652948290208451600b909202018054858401511515600160601b026cffffffffffffffffffffffffff199091166001600160601b0390931692909217919091178155918301518051939492936122f6938501929190910190613e72565b50606082015181600201556080820151816003015560a0820151816004015560c0820151816005015560e082015181600601906004612336929190613e34565b506101009190910151600a9091015560405163483abc4f60e11b815260076004820152602481018290526044810184905273f02733d9e5CbfE67B54F165b0277E1995106D52690639075789e9060640160006040518083038186803b15801561239e57600080fd5b505af41580156123b2573d6000803e3d6000fd5b5050505060038a6001600160601b0316815481106123d2576123d2614561565b600091825260208083206001600b9093020182018054928301815583529091200155505050505050505050565b6000546001600160a01b031633146124295760405162461bcd60e51b81526004016108c09061451f565b806003836001600160601b03168154811061244657612446614561565b90600052602060002090600b0201600401819055505050565b6000806005838154811061247557612475614561565b60009182526020909120600590910201805460038054929350916001600160601b039091169081106124a9576124a9614561565b90600052602060002090600b0201600501548160030154106125725780546001600160601b03166124e3576001600160ff1b0391506125c9565b60038101546124f39060026145d5565b6124fe9060016145bd565b815460038054909182916001600160601b0390911690811061252257612522614561565b60009182526020909120600b909102015481546001600160601b0390911690811061254f5761254f614561565b90600052602060002090600b02016004015461256b91906145d5565b91506125c9565b60038101546125829060026145d5565b61258d9060016145bd565b81546003805490916001600160601b03169081106125ad576125ad614561565b90600052602060002090600b02016004015461107b91906145d5565b50919050565b6000546001600160a01b031633146125f95760405162461bcd60e51b81526004016108c09061451f565b806003836001600160601b03168154811061261657612616614561565b90600052602060002090600b0201600301819055505050565b6000546001600160a01b031633146126595760405162461bcd60e51b81526004016108c09061451f565b6000836001600160a01b0316838360405161267491906146b3565b60006040518083038185875af1925050503d80600081146126b1576040519150601f19603f3d011682016040523d82523d6000602084013e6126b6565b606091505b50509050806126fb5760405162461bcd60e51b8152602060048201526011602482015270155b9cdd58d8d95cdcd99d5b0818d85b1b607a1b60448201526064016108c0565b50505050565b61270e338383600061375c565b61274b5760405162461bcd60e51b815260206004820152600e60248201526d14dd185ada5b99c819985a5b195960921b60448201526064016108c0565b5050565b6127588161245f565b3410156127b35760405162461bcd60e51b8152602060048201526024808201527f4e6f7420656e6f7567682045544820746f20636f7665722061707065616c206360448201526337b9ba1760e11b60648201526084016108c0565b6000600582815481106127c8576127c8614561565b60009182526020909120600590910201905060036001820154600160a01b900460ff1660048111156127fc576127fc613f0f565b146128495760405162461bcd60e51b815260206004820152601a60248201527f44697370757465206973206e6f742061707065616c61626c652e00000000000060448201526064016108c0565b60018101546001600160a01b031633146128b35760405162461bcd60e51b815260206004820152602560248201527f416363657373206e6f7420616c6c6f7765643a2044697370757465204b69742060448201526437b7363c9760d91b60648201526084016108c0565b80546003805490916001600160601b03169081106128d3576128d3614561565b90600052602060002090600b0201600501548160030154106129405780546003805490916001600160601b031690811061290f5761290f614561565b60009182526020909120600b909102015481546bffffffffffffffffffffffff19166001600160601b039091161781555b60018101805460ff60a01b1916905542600282015580546003805490916001600160601b031690811061297557612975614561565b90600052602060002090600b02016004015434612992919061460a565b60038083019190915560048201805460018101825560009182526020909120835483546005909302909101926127109290916001600160601b03169081106129dc576129dc614561565b600091825260209091206003600b90920201810154845482549192916001600160601b03909116908110612a1257612a12614561565b90600052602060002090600b020160020154612a2e91906145d5565b612a38919061460a565b81553460018201558154604051600160601b9091046001600160a01b03169084907f9c9b64db9e130f48381bf697abf638e73117dbfbfd7a4484f2da3ba188f4187d90600090a3827f4e6f5cf43b95303e86aee81683df63992061723a829ee012db21dad388756b916000604051612ab09190613f47565b60405180910390a2505050565b6000806000806060600060058881548110612ada57612ada614561565b906000526020600020906005020190506000816004018881548110612b0157612b01614561565b9060005260206000209060050201905080600001548160010154826002015483600301548460040180805480602002602001604051908101604052809291908181526020018280548015612b7e57602002820191906000526020600020905b81546001600160a01b03168152600190910190602001808311612b60575b505050505090509650965096509650965050509295509295909350565b600060058281548110612bb057612bb0614561565b60009182526020909120600590910201905060046001820154600160a01b900460ff166004811115612be457612be4613f0f565b14612c315760405162461bcd60e51b815260206004820152601b60248201527f53686f756c6420626520657865637574696f6e20706572696f642e000000000060448201526064016108c0565b6001810154600160a81b900460ff1615612c8d5760405162461bcd60e51b815260206004820152601860248201527f52756c696e6720616c72656164792065786563757465642e000000000000000060448201526064016108c0565b6000612c9883610fe4565b60018301805460ff60a81b1916600160a81b179055825460405163188d362b60e11b815260048101869052602481018390529192506001600160a01b03600160601b909104169063311a6c5690604401600060405180830381600087803b158015612d0257600080fd5b505af1158015612d16573d6000803e3d6000fd5b50505050505050565b6000546001600160a01b03163314612d495760405162461bcd60e51b81526004016108c09061451f565b806003836001600160601b031681548110612d6657612d66614561565b90600052602060002090600b0201600501819055505050565b600080600060058481548110612d9757612d97614561565b60009182526020909120600590910201905060036001820154600160a01b900460ff166004811115612dcb57612dcb613f0f565b1415612e24576002810154815460038054929550916001600160601b03909116908110612dfa57612dfa614561565b600091825260209091206009600b9092020101546002820154612e1d91906145bd565b9150612e2d565b60009250600091505b50915091565b6000612e3e826136d7565b341015612e9f5760405162461bcd60e51b815260206004820152602960248201527f4e6f7420656e6f7567682045544820746f20636f76657220617262697472617460448201526834b7b71031b7b9ba1760b91b60648201526084016108c0565b600080612eab84613d70565b925050915060008160ff166001901b9050806003846001600160601b031681548110612ed957612ed9614561565b90600052602060002090600b0201600a0154821614612f545760405162461bcd60e51b815260206004820152603160248201527f5468652064697370757465206b6974206973206e6f7420737570706f7274656460448201527008189e481d1a1a5cc81cdd5898dbdd5c9d607a1b60648201526084016108c0565b60058054600181018255600160601b33026001600160601b038087168281179484027f036b6384b5eca791c62761152d0c79bb0604c104a5fb6f4eb0703f3154bb3db0810195865560ff88166000908152600460205260409020547f036b6384b5eca791c62761152d0c79bb0604c104a5fb6f4eb0703f3154bb3db1820180546001600160a01b0319166001600160a01b03929092169182179055427f036b6384b5eca791c62761152d0c79bb0604c104a5fb6f4eb0703f3154bb3db29092019190915560038054959a50909490939092161790811061303657613036614561565b90600052602060002090600b02016004015434613053919061460a565b60038084019190915560048301805460018101825560009182526020909120845483546005909302909101926127109290916001600160601b031690811061309d5761309d614561565b600091825260209091206003600b90920201810154855482549192916001600160601b039091169081106130d3576130d3614561565b90600052602060002090600b0201600201546130ef91906145d5565b6130f9919061460a565b8155346001820155604051638d31de6d60e01b81526001600160a01b03831690638d31de6d90613131908a908d908d906004016146cf565b600060405180830381600087803b15801561314b57600080fd5b505af115801561315f573d6000803e3d6000fd5b50506040513392508991507f141dfc18aa6a56fc816f44f0e9e2f1ebc92b15ab167770e17db5b084c10ed99590600090a350505050505092915050565b6000546001600160a01b031633146131c65760405162461bcd60e51b81526004016108c09061451f565b600280546001600160a01b0319166001600160a01b0392909216919091179055565b6000600583815481106131fd576131fd614561565b90600052602060002090600502019050600060018260040180549050613223919061458d565b9050600082600401828154811061323c5761323c614561565b60009182526020822060059091020191506001840154600160a01b900460ff16600481111561326d5761326d613f0f565b146132ba5760405162461bcd60e51b815260206004820152601a60248201527f53686f756c642062652065766964656e636520706572696f642e00000000000060448201526064016108c0565b6001830154600482015460038501546001600160a01b03909216916000906132e288846145bd565b11156132f25785600301546132fc565b6132fc87836145bd565b9050815b818110156134f257604051633b30414760e01b8152600481018a90526000906001600160a01b03861690633b304147906024016020604051808303816000875af1158015613352573d6000803e3d6000fd5b505050506040513d601f19601f820116820180604052508101906133769190614710565b90506001600160a01b038116156134df5785546001600160a01b03821660009081526006602090815260408083208c546001600160601b03168452600201909152812080549091906133c99084906145bd565b90915550506001600160a01b03811660009081526006602090815260408083208b546001600160601b031684526002810183528184205460019091019092529091205410156134705760405162461bcd60e51b815260206004820152602d60248201527f4c6f636b656420616d6f756e742073686f756c646e277420657863656564207360448201526c3a30b5b2b21030b6b7bab73a1760991b60648201526084016108c0565b60048601805460018101825560009182526020918290200180546001600160a01b0319166001600160a01b038416908117909155604080518a81529283018590528c927f6119cf536152c11e0a9a6c22f3953ce4ecc93ee54fa72ffa326ffabded21509b910160405180910390a35b50806134ea8161463b565b915050613300565b505050505050505050565b600081815260076020908152604091829020805460018201805485518186028101860190965280865291946060948594939192919083018282801561356157602002820191906000526020600020905b81548152602001906001019080831161354d575b50505050509250806002018054806020026020016040519081016040528092919081815260200182805480156135b657602002820191906000526020600020905b8154815260200190600101908083116135a2575b50505050509150509193909250565b6000600382815481106135da576135da614561565b60009182526020909120600b9091020154600160601b900460ff1692915050565b6000546001600160a01b031633146136255760405162461bcd60e51b81526004016108c09061451f565b600080546001600160a01b0319166001600160a01b0392909216919091179055565b6000546001600160a01b031633146136715760405162461bcd60e51b81526004016108c09061451f565b60ff16600090815260046020526040902080546001600160a01b0319166001600160a01b0392909216919091179055565b6000600582815481106136b7576136b7614561565b60009182526020909120600590910201546001600160601b031692915050565b60008060006136e584613d70565b5091509150806003836001600160601b03168154811061370757613707614561565b90600052602060002090600b02016004015461372391906145d5565b949350505050565b6000806005838154811061374157613741614561565b60009182526020909120600460059092020101549392505050565b6001600160a01b03841660009081526006602052604081208161377f8787613dec565b604051637521ccb160e01b8152600760048201526001600160601b03881660248201526044810182905290915060009073f02733d9e5CbfE67B54F165b0277E1995106D52690637521ccb190606401602060405180830381865af41580156137eb573d6000803e3d6000fd5b505050506040513d601f19601f8201168201806040525081019061380f91906145a4565b905085156138d6576003876001600160601b03168154811061383357613833614561565b90600052602060002090600b02016002015486108061386b57506001600160601b038716600090815260028401602052604090205486105b1561387c5760009350505050613723565b806138d15782546004116138965760009350505050613723565b8254600180820185556000858152602090206002830401805491909216600c026101000a6001600160601b0381810219909216918a16021790555b613a22565b60005b8354811015613a2057876001600160601b031684600001828154811061390157613901614561565b600091825260209091206002820401546001909116600c026101000a90046001600160601b03161415613a0e578354849061393e9060019061458d565b8154811061394e5761394e614561565b9060005260206000209060029182820401919006600c029054906101000a90046001600160601b031684600001828154811061398c5761398c614561565b9060005260206000209060029182820401919006600c026101000a8154816001600160601b0302191690836001600160601b03160217905550836000018054806139d8576139d861472d565b60008281526020902060026000199092019182040180546001600160601b03600c60018516026101000a02191690559055613a20565b80613a188161463b565b9150506138d9565b505b6001600160601b03871660009081526001840160205260408120548790613a4a90849061458d565b613a5491906145bd565b6001600160601b038916600081815260018701602052604081208390559192505b81613b3857604051631712e1c560e11b81526007600482015260248101829052604481018a90526064810186905273f02733d9e5CbfE67B54F165b0277E1995106D52690632e25c38a9060840160006040518083038186803b158015613ada57600080fd5b505af4158015613aee573d6000803e3d6000fd5b505050508060001415613b045760019150613a75565b60038181548110613b1757613b17614561565b60009182526020909120600b90910201546001600160601b03169050613a75565b604080516001600160601b038c168152602081018b90529081018490526001600160a01b038c16907f70ca4ec64687bf265f39041896f3dbf10b9f650503cb38f2b3569fdce7489c369060600160405180910390a26000848a10613c3f57613ba0858b61458d565b90508015613c3a576001546040516323b872dd60e01b81526001600160a01b038e8116600483015230602483015260448201849052909116906323b872dd906064015b6020604051808303816000875af1158015613c02573d6000803e3d6000fd5b505050506040513d601f19601f82011682018060405250810190613c26919061461e565b613c3a576000975050505050505050613723565b613d5e565b89613cb6576001600160601b038b1660009081526002880160205260409020548990613c6b908761458d565b613c75919061458d565b90508015613c3a5760015460405163a9059cbb60e01b81526001600160a01b038e81166004830152602482018490529091169063a9059cbb90604401613be3565b88613cc18b8761458d565b613ccb919061458d565b90508015613d5e5760015460405163a9059cbb60e01b81526001600160a01b038e81166004830152602482018490529091169063a9059cbb906044016020604051808303816000875af1158015613d26573d6000803e3d6000fd5b505050506040513d601f19601f82011682018060405250810190613d4a919061461e565b613d5e576000975050505050505050613723565b5060019b9a5050505050505050505050565b60008060006040845110613dda575050506020810151604082015160608301516003546001600160601b03841610613da757600092505b81613db157600391505b60ff81166000908152600460205260409020546001600160a01b0316613dd5575060005b613de5565b506000915060039050815b9193909250565b600060405160005b6014811015613e0f578481600c011a81830153600101613df4565b5060145b6020811015613e2b5783811a81830153600101613e13565b50519392505050565b8260048101928215613e62579160200282015b82811115613e62578251825591602001919060010190613e47565b50613e6e929150613eac565b5090565b828054828255906000526020600020908101928215613e625791602002820182811115613e62578251825591602001919060010190613e47565b5b80821115613e6e5760008155600101613ead565b6001600160a01b0381168114613ed657600080fd5b50565b600060208284031215613eeb57600080fd5b813561107b81613ec1565b600060208284031215613f0857600080fd5b5035919050565b634e487b7160e01b600052602160045260246000fd5b60058110613f4357634e487b7160e01b600052602160045260246000fd5b9052565b60208101613f558284613f25565b92915050565b600080600060608486031215613f7057600080fd5b505081359360208301359350604090920135919050565b80356001600160601b0381168114613f9e57600080fd5b919050565b60008060408385031215613fb657600080fd5b613fbf83613f87565b946020939093013593505050565b634e487b7160e01b600052604160045260246000fd5b604051601f8201601f1916810167ffffffffffffffff8111828210171561400c5761400c613fcd565b604052919050565b803560ff81168114613f9e57600080fd5b8015158114613ed657600080fd5b8035613f9e81614025565b60008060006060848603121561405357600080fd5b61405c84613f87565b925060208085013567ffffffffffffffff8082111561407a57600080fd5b818701915087601f83011261408e57600080fd5b8135818111156140a0576140a0613fcd565b8060051b91506140b1848301613fe3565b818152918301840191848101908a8411156140cb57600080fd5b938501935b838510156140f0576140e185614014565b825293850193908501906140d0565b80975050505050505061410560408501614033565b90509250925092565b6001600160601b03881681526001600160a01b0387811660208301528616604082015260e081016141426060830187613f25565b931515608082015260a081019290925260c090910152949350505050565b600082601f83011261417157600080fd5b6040516080810181811067ffffffffffffffff8211171561419457614194613fcd565b6040528060808401858111156141a957600080fd5b845b818110156141c35780358352602092830192016141ab565b509195945050505050565b60008060a083850312156141e157600080fd5b6141ea83613f87565b91506141f98460208501614160565b90509250929050565b60008060008060008060008060006101808a8c03121561422157600080fd5b61422a8a613f87565b985060208a013561423a81614025565b975060408a0135965060608a0135955060808a0135945060a08a013593506142658b60c08c01614160565b92506101408a013591506101608a013590509295985092959850929598565b600082601f83011261429557600080fd5b813567ffffffffffffffff8111156142af576142af613fcd565b6142c2601f8201601f1916602001613fe3565b8181528460208386010111156142d757600080fd5b816020850160208301376000918101602001919091529392505050565b60008060006060848603121561430957600080fd5b833561431481613ec1565b925060208401359150604084013567ffffffffffffffff81111561433757600080fd5b61434386828701614284565b9150509250925092565b6000806040838503121561436057600080fd5b50508035926020909101359150565b600060a082018783526020878185015286604085015285606085015260a0608085015281855180845260c086019150828701935060005b818110156143cb5784516001600160a01b0316835293830193918301916001016143a6565b50909a9950505050505050505050565b600080604083850312156143ee57600080fd5b82359150602083013567ffffffffffffffff81111561440c57600080fd5b61441885828601614284565b9150509250929050565b6000806040838503121561443557600080fd5b823561444081613ec1565b91506141f960208401613f87565b600081518084526020808501945080840160005b8381101561447e57815187529582019590820190600101614462565b509495945050505050565b8381526060602082015260006144a2606083018561444e565b82810360408401526144b4818561444e565b9695505050505050565b600080604083850312156144d157600080fd5b82356144dc81613ec1565b91506141f960208401614014565b6000602082840312156144fc57600080fd5b813567ffffffffffffffff81111561451357600080fd5b61372384828501614284565b60208082526022908201527f416363657373206e6f7420616c6c6f7765643a20476f7665726e6f72206f6e6c6040820152613c9760f11b606082015260800190565b634e487b7160e01b600052603260045260246000fd5b634e487b7160e01b600052601160045260246000fd5b60008282101561459f5761459f614577565b500390565b6000602082840312156145b657600080fd5b5051919050565b600082198211156145d0576145d0614577565b500190565b60008160001904831182151516156145ef576145ef614577565b500290565b634e487b7160e01b600052601260045260246000fd5b600082614619576146196145f4565b500490565b60006020828403121561463057600080fd5b815161107b81614025565b600060001982141561464f5761464f614577565b5060010190565b6000600160ff1b82141561466c5761466c614577565b5060000390565b600082614682576146826145f4565b500690565b60005b838110156146a257818101518382015260200161468a565b838111156126fb5750506000910152565b600082516146c5818460208701614687565b9190910192915050565b83815282602082015260606040820152600082518060608401526146fa816080850160208701614687565b601f01601f191691909101608001949350505050565b60006020828403121561472257600080fd5b815161107b81613ec1565b634e487b7160e01b600052603160045260246000fdfea2646970667358221220bd91fce7201899d75d819f63f7e467358cfc4d44030583d012667271506fcec564736f6c634300080a0033",
  "deployedBytecode": "0x6080604052600436106102505760003560e01c80638a9bb02a11610139578063d2b8035a116100b6578063eaff425a1161007a578063eaff425a146107e1578063f441d9b3146107f6578063f6a6ef7a14610816578063f7434ea914610836578063fbf405b014610856578063fc6f8f161461087657600080fd5b8063d2b8035a14610716578063d2d514e014610736578063d578cbac14610765578063de1a1e5914610785578063e4c0aaf4146107c157600080fd5b8063b4a61608116100fd578063b4a6160814610651578063c13517e114610666578063c258bb1914610679578063cf0c38f814610699578063d1c1df48146106b957600080fd5b80638a9bb02a146105755780638bb04875146105a6578063a57366e7146105c6578063acdbf51d146105e6578063afe15cfb1461061c57600080fd5b80635468f919116101d257806359ec827e1161019657806359ec827e146104c75780635bc24dd3146104e7578063751accd0146105075780637717a6e8146105275780637e69b7b014610547578063840bc19c1461055a57600080fd5b80635468f91914610414578063564a565d1461043457806357260364146104675780635788795d1461048757806359354c77146104a757600080fd5b806322684db01161021957806322684db0146103615780632d29a47b1461038e5780632ea7b4d0146103ae5780633e1d09be146103c45780634b7fcda2146103e457600080fd5b8062f5822c146102555780630c340a2414610277578063115d5376146102b45780631c3db16d146102d45780631f5a0dd214610302575b600080fd5b34801561026157600080fd5b50610275610270366004613ed9565b610896565b005b34801561028357600080fd5b50600054610297906001600160a01b031681565b6040516001600160a01b0390911681526020015b60405180910390f35b3480156102c057600080fd5b506102756102cf366004613ef6565b6108eb565b3480156102e057600080fd5b506102f46102ef366004613ef6565b610fe4565b6040519081526020016102ab565b34801561030e57600080fd5b5061032261031d366004613ef6565b611082565b604080516001600160601b0390981688529515156020880152948601939093526060850191909152608084015260a083015260c082015260e0016102ab565b34801561036d57600080fd5b5061038161037c366004613ef6565b6110df565b6040516102ab9190613f47565b34801561039a57600080fd5b506102756103a9366004613f5b565b611118565b3480156103ba57600080fd5b506102f461271081565b3480156103d057600080fd5b506102756103df366004613fa3565b611c9c565b3480156103f057600080fd5b506104046103ff366004613ef6565b611eb7565b60405190151581526020016102ab565b34801561042057600080fd5b5061027561042f36600461403e565b611ef0565b34801561044057600080fd5b5061045461044f366004613ef6565b612053565b6040516102ab979695949392919061410e565b34801561047357600080fd5b506102756104823660046141ce565b6120c0565b34801561049357600080fd5b506102756104a2366004614202565b61212b565b3480156104b357600080fd5b506102756104c2366004613fa3565b6123ff565b3480156104d357600080fd5b506102f46104e2366004613ef6565b61245f565b3480156104f357600080fd5b50610275610502366004613fa3565b6125cf565b34801561051357600080fd5b506102756105223660046142f4565b61262f565b34801561053357600080fd5b50610275610542366004613fa3565b612701565b610275610555366004613ef6565b61274f565b34801561056657600080fd5b506102f46001600160ff1b0381565b34801561058157600080fd5b5061059561059036600461434d565b612abd565b6040516102ab95949392919061436f565b3480156105b257600080fd5b506102756105c1366004613ef6565b612b9b565b3480156105d257600080fd5b506102756105e1366004613fa3565b612d1f565b3480156105f257600080fd5b50610297610601366004613ef6565b6004602052600090815260409020546001600160a01b031681565b34801561062857600080fd5b5061063c610637366004613ef6565b612d7f565b604080519283526020830191909152016102ab565b34801561065d57600080fd5b506102f4600481565b6102f46106743660046143db565b612e33565b34801561068557600080fd5b50610275610694366004613ed9565b61319c565b3480156106a557600080fd5b50600254610297906001600160a01b031681565b3480156106c557600080fd5b5061063c6106d4366004614422565b6001600160a01b0390911660009081526006602090815260408083206001600160601b0390941683526001840182528083205460029094019091529020549091565b34801561072257600080fd5b5061027561073136600461434d565b6131e8565b34801561074257600080fd5b50610756610751366004613ef6565b6134fd565b6040516102ab93929190614489565b34801561077157600080fd5b50610404610780366004613ef6565b6135c5565b34801561079157600080fd5b506102f46107a036600461434d565b60009182526007602090815260408084209284526004909201905290205490565b3480156107cd57600080fd5b506102756107dc366004613ed9565b6135fb565b3480156107ed57600080fd5b506102f4600381565b34801561080257600080fd5b506102756108113660046144be565b613647565b34801561082257600080fd5b506102f4610831366004613ef6565b6136a2565b34801561084257600080fd5b506102f46108513660046144ea565b6136d7565b34801561086257600080fd5b50600154610297906001600160a01b031681565b34801561088257600080fd5b506102f4610891366004613ef6565b61372b565b6000546001600160a01b031633146108c95760405162461bcd60e51b81526004016108c09061451f565b60405180910390fd5b600180546001600160a01b0319166001600160a01b0392909216919091179055565b60006005828154811061090057610900614561565b90600052602060002090600502019050600060018260040180549050610926919061458d565b9050600082600401828154811061093f5761093f614561565b60009182526020822060059091020191506001840154600160a01b900460ff16600481111561097057610970613f0f565b1415610b585760008211806109f8575082546003805490916001600160601b03169081106109a0576109a0614561565b90600052602060002090600b02016006018360010160149054906101000a900460ff1660048111156109d4576109d4613f0f565b600481106109e4576109e4614561565b015460028401546109f5904261458d565b10155b610a785760405162461bcd60e51b8152602060048201526044602482018190527f5468652065766964656e636520706572696f642074696d6520686173206e6f74908201527f207061737365642079657420616e64206974206973206e6f7420616e2061707060648201526332b0b61760e11b608482015260a4016108c0565b6003830154600482015414610ae15760405162461bcd60e51b815260206004820152602960248201527f546865206469737075746520686173206e6f742066696e6973686564206472616044820152683bb4b733903cb2ba1760b91b60648201526084016108c0565b82546003805490916001600160601b0316908110610b0157610b01614561565b60009182526020909120600b9091020154600160601b900460ff16610b27576002610b2a565b60015b60018401805460ff60a01b1916600160a01b836004811115610b4e57610b4e613f0f565b0217905550610f90565b600180840154600160a01b900460ff166004811115610b7957610b79613f0f565b1415610c885782546003805490916001600160601b0316908110610b9f57610b9f614561565b90600052602060002090600b02016006018360010160149054906101000a900460ff166004811115610bd357610bd3613f0f565b60048110610be357610be3614561565b01546002840154610bf4904261458d565b101580610c0d575060018301546001600160a01b031633145b610c6c5760405162461bcd60e51b815260206004820152602a60248201527f54686520636f6d6d697420706572696f642074696d6520686173206e6f74207060448201526930b9b9b2b2103cb2ba1760b11b60648201526084016108c0565b6001830180546002919060ff60a01b1916600160a01b83610b4e565b60026001840154600160a01b900460ff166004811115610caa57610caa613f0f565b1415610df35782546003805490916001600160601b0316908110610cd057610cd0614561565b90600052602060002090600b02016006018360010160149054906101000a900460ff166004811115610d0457610d04613f0f565b60048110610d1457610d14614561565b01546002840154610d25904261458d565b101580610d3e575060018301546001600160a01b031633145b610d9a5760405162461bcd60e51b815260206004820152602760248201527f54686520766f746520706572696f642074696d6520686173206e6f74207061736044820152661cd959081e595d60ca1b60648201526084016108c0565b60018301805460ff60a01b1916600360a01b1790558254604051600160601b9091046001600160a01b03169085907fa5d41b970d849372be1da1481ffd78d162bfe57a7aa2fe4e5fb73481fa5ac24f90600090a3610f90565b60036001840154600160a01b900460ff166004811115610e1557610e15613f0f565b1415610f0d5782546003805490916001600160601b0316908110610e3b57610e3b614561565b90600052602060002090600b02016006018360010160149054906101000a900460ff166004811115610e6f57610e6f613f0f565b60048110610e7f57610e7f614561565b01546002840154610e90904261458d565b1015610ef15760405162461bcd60e51b815260206004820152602a60248201527f5468652061707065616c20706572696f642074696d6520686173206e6f74207060448201526930b9b9b2b2103cb2ba1760b11b60648201526084016108c0565b6001830180546004919060ff60a01b1916600160a01b83610b4e565b60046001840154600160a01b900460ff166004811115610f2f57610f2f613f0f565b1415610f905760405162461bcd60e51b815260206004820152602a60248201527f546865206469737075746520697320616c726561647920696e20746865206c6160448201526939ba103832b934b7b21760b11b60648201526084016108c0565b426002840155600183015460405185917f4e6f5cf43b95303e86aee81683df63992061723a829ee012db21dad388756b9191610fd691600160a01b900460ff1690613f47565b60405180910390a250505050565b60008060058381548110610ffa57610ffa614561565b6000918252602090912060059091020160010154604051631c3db16d60e01b8152600481018590526001600160a01b0390911691508190631c3db16d90602401602060405180830381865afa158015611057573d6000803e3d6000fd5b505050506040513d601f19601f8201168201806040525081019061107b91906145a4565b9392505050565b6003818154811061109257600080fd5b60009182526020909120600b9091020180546002820154600383015460048401546005850154600a909501546001600160601b0385169650600160601b90940460ff169492939192909187565b6000600582815481106110f4576110f4614561565b6000918252602090912060059091020160010154600160a01b900460ff1692915050565b60006005848154811061112d5761112d614561565b60009182526020909120600590910201905060046001820154600160a01b900460ff16600481111561116157611161613f0f565b146111ae5760405162461bcd60e51b815260206004820152601b60248201527f53686f756c6420626520657865637574696f6e20706572696f642e000000000060448201526064016108c0565b6000828260040185815481106111c6576111c6614561565b9060005260206000209060050201600201546111e291906145bd565b905060008260040185815481106111fb576111fb614561565b9060005260206000209060050201600301549050600083600401868154811061122657611226614561565b6000918252602082206004600590920201810154600187015460405163368efae360e21b81529194506001600160a01b03169163da3beb8c91611276918c918c9101918252602082015260400190565b602060405180830381865afa158015611293573d6000803e3d6000fd5b505050506040513d601f19601f820116820180604052508101906112b791906145a4565b9050600080826112d257838611156112cd578395505b6112f2565b6112dd8460026145d5565b8611156112f2576112ef8460026145d5565b95505b6000876004018a8154811061130957611309614561565b90600052602060002090600502016002015490505b86811015611c0b5784811015611809576001880154604051634fe264fb60e01b8152600481018d9052602481018c9052604481018390526001600160a01b0390911690634fe264fb90606401602060405180830381865afa158015611387573d6000803e3d6000fd5b505050506040513d601f19601f820116820180604052508101906113ab91906145a4565b91506127108211156113bd5761271091505b60006127106113cc848261458d565b8a6004018d815481106113e1576113e1614561565b9060005260206000209060050201600001546113fd91906145d5565b611407919061460a565b905061141381886145bd565b9650886004018b8154811061142a5761142a614561565b9060005260206000209060050201600401828154811061144c5761144c614561565b60009182526020808320909101546001600160a01b03168083526006825260408084208d546001600160601b0316855260020190925290822080549196508392909161149990849061458d565b909155505088546003805483926001600160601b03169081106114be576114be614561565b90600052602060002090600b0201600201546114da91906145bd565b6001600160a01b03851660009081526006602090815260408083208d546001600160601b03168452600101909152902054106115635788546001600160a01b03851660009081526006602090815260408083206001600160601b03909416808452600190940190915290205461155d91869161155790859061458d565b8461375c565b506115b4565b6001600160a01b03841660009081526006602090815260408083208c546001600160601b03168452600101909152902054156115b45788546115b29085906001600160601b031660008461375c565b505b600189015460405163ba66fde760e01b8152600481018e9052602481018d9052604481018490526001600160a01b039091169063ba66fde790606401602060405180830381865afa15801561160d573d6000803e3d6000fd5b505050506040513d601f19601f82011682018060405250810190611631919061461e565b6116ce5760005b6001600160a01b0385166000908152600660205260409020548110156116cc576001600160a01b038516600090815260066020526040902080546116b99187918490811061168857611688614561565b9060005260206000209060029182820401919006600c029054906101000a90046001600160601b031660008061375c565b50806116c48161463b565b915050611638565b505b8b6001600160a01b0385167f24f45c2b08bbde8c837d70b67991ccb7660537cf749de21a940ae4858b681e1961170384614656565b60408051918252600060208301520160405180910390a361172560018761458d565b82141561180357846118035760005460048a0180546001600160a01b03909216916108fc91908e90811061175b5761175b614561565b9060005260206000209060050201600101549081150290604051600060405180830381858888f1505060015460005460405163a9059cbb60e01b81526001600160a01b039182166004820152602481018d90529116935063a9059cbb925060440190506020604051808303816000875af11580156117dd573d6000803e3d6000fd5b505050506040513d601f19601f82011682018060405250810190611801919061461e565b505b50611bf9565b60018801546001600160a01b0316634fe264fb8c8c6118288986614673565b6040516001600160e01b031960e086901b168152600481019390935260248301919091526044820152606401602060405180830381865afa158015611871573d6000803e3d6000fd5b505050506040513d601f19601f8201168201806040525081019061189591906145a4565b91506127108211156118a75761271091505b876004018a815481106118bc576118bc614561565b906000526020600020906005020160040185826118d99190614673565b815481106118e9576118e9614561565b9060005260206000200160009054906101000a90046001600160a01b0316925061271082896004018c8154811061192257611922614561565b90600052602060002090600502016000015461193e91906145d5565b611948919061460a565b6001600160a01b03841660009081526006602090815260408083208c546001600160601b031684526002019091528120805490919061198890849061458d565b90915550506001600160a01b03831660009081526006602090815260408083208b546001600160601b03168452600101909152902054611a9757600160009054906101000a90046001600160a01b03166001600160a01b031663a9059cbb84612710858c6004018f81548110611a0057611a00614561565b906000526020600020906005020160000154611a1c91906145d5565b611a26919061460a565b6040516001600160e01b031960e085901b1681526001600160a01b03909216600483015260248201526044016020604051808303816000875af1158015611a71573d6000803e3d6000fd5b505050506040513d601f19601f82011682018060405250810190611a95919061461e565b505b600061271083611aa7878a61460a565b611ab191906145d5565b611abb919061460a565b9050600061271084878c6004018f81548110611ad957611ad9614561565b906000526020600020906005020160010154611af5919061460a565b611aff91906145d5565b611b09919061460a565b60015460405163a9059cbb60e01b81526001600160a01b0388811660048301526024820186905292935091169063a9059cbb906044016020604051808303816000875af1158015611b5e573d6000803e3d6000fd5b505050506040513d601f19601f82011682018060405250810190611b82919061461e565b506040516001600160a01b0386169082156108fc029083906000818181858888f19350505050508c856001600160a01b03167f24f45c2b08bbde8c837d70b67991ccb7660537cf749de21a940ae4858b681e198484604051611bee929190918252602082015260400190565b60405180910390a350505b80611c038161463b565b91505061131e565b5084876004018a81548110611c2257611c22614561565b90600052602060002090600502016003015414611c655784876004018a81548110611c4f57611c4f614561565b9060005260206000209060050201600301819055505b85876004018a81548110611c7b57611c7b614561565b90600052602060002090600502016002018190555050505050505050505050565b6000546001600160a01b03163314611cc65760405162461bcd60e51b81526004016108c09061451f565b6001600160601b0382161580611d37575080600380846001600160601b031681548110611cf557611cf5614561565b60009182526020909120600b909102015481546001600160601b03909116908110611d2257611d22614561565b90600052602060002090600b02016002015411155b611d4057600080fd5b60005b6003836001600160601b031681548110611d5f57611d5f614561565b90600052602060002090600b020160010180549050811015611e805781600380856001600160601b031681548110611d9957611d99614561565b90600052602060002090600b02016001018381548110611dbb57611dbb614561565b906000526020600020015481548110611dd657611dd6614561565b90600052602060002090600b0201600201541015611e6e5760405162461bcd60e51b815260206004820152604960248201527f4120737562636f7572742063616e6e6f742062652074686520706172656e742060448201527f6f66206120737562636f75727420776974682061206c6f776572206d696e696d6064820152683ab69039ba30b5b29760b91b608482015260a4016108c0565b80611e788161463b565b915050611d43565b50806003836001600160601b031681548110611e9e57611e9e614561565b90600052602060002090600b0201600201819055505050565b600060058281548110611ecc57611ecc614561565b6000918252602090912060059091020160010154600160a81b900460ff1692915050565b6000546001600160a01b03163314611f1a5760405162461bcd60e51b81526004016108c09061451f565b60006003846001600160601b031681548110611f3857611f38614561565b90600052602060002090600b0201905060005b835181101561204c576000848281518110611f6857611f68614561565b602002602001015160ff166001901b90508315611fda578083600a015419821614611fd55760405162461bcd60e51b815260206004820152601d60248201527f44697370757465206b697420616c726561647920737570706f7274656400000060448201526064016108c0565b61202f565b8083600a015482161461202f5760405162461bcd60e51b815260206004820152601c60248201527f44697370757465206b6974206973206e6f7420737570706f727465640000000060448201526064016108c0565b600a830180549091189055806120448161463b565b915050611f4b565b5050505050565b6005818154811061206357600080fd5b600091825260209091206005909102018054600182015460028301546003909301546001600160601b03831694506001600160a01b03600160601b9093048316939282169260ff600160a01b8404811693600160a81b9004169187565b6000546001600160a01b031633146120ea5760405162461bcd60e51b81526004016108c09061451f565b806003836001600160601b03168154811061210757612107614561565b90600052602060002090600b0201600601906004612126929190613e34565b505050565b6000546001600160a01b031633146121555760405162461bcd60e51b81526004016108c09061451f565b8660038a6001600160601b03168154811061217257612172614561565b90600052602060002090600b02016002015411156122085760405162461bcd60e51b815260206004820152604760248201527f4120737562636f7572742063616e6e6f742062652061206368696c64206f662060448201527f6120737562636f7572742077697468206120686967686572206d696e696d756d6064820152661039ba30b5b29760c91b608482015260a4016108c0565b6003805460408051610120810182526001600160601b038d1681528b15156020820152919291908101600060405190808252806020026020018201604052801561225c578160200160208202803683370190505b50815260208082018c905260408083018c9052606083018b9052608083018a905260a0830189905260c09092018690528354600181810186556000958652948290208451600b909202018054858401511515600160601b026cffffffffffffffffffffffffff199091166001600160601b0390931692909217919091178155918301518051939492936122f6938501929190910190613e72565b50606082015181600201556080820151816003015560a0820151816004015560c0820151816005015560e082015181600601906004612336929190613e34565b506101009190910151600a9091015560405163483abc4f60e11b815260076004820152602481018290526044810184905273__$52cf47af9c3c0d67e54ac2a3225447effa$__90639075789e9060640160006040518083038186803b15801561239e57600080fd5b505af41580156123b2573d6000803e3d6000fd5b5050505060038a6001600160601b0316815481106123d2576123d2614561565b600091825260208083206001600b9093020182018054928301815583529091200155505050505050505050565b6000546001600160a01b031633146124295760405162461bcd60e51b81526004016108c09061451f565b806003836001600160601b03168154811061244657612446614561565b90600052602060002090600b0201600401819055505050565b6000806005838154811061247557612475614561565b60009182526020909120600590910201805460038054929350916001600160601b039091169081106124a9576124a9614561565b90600052602060002090600b0201600501548160030154106125725780546001600160601b03166124e3576001600160ff1b0391506125c9565b60038101546124f39060026145d5565b6124fe9060016145bd565b815460038054909182916001600160601b0390911690811061252257612522614561565b60009182526020909120600b909102015481546001600160601b0390911690811061254f5761254f614561565b90600052602060002090600b02016004015461256b91906145d5565b91506125c9565b60038101546125829060026145d5565b61258d9060016145bd565b81546003805490916001600160601b03169081106125ad576125ad614561565b90600052602060002090600b02016004015461107b91906145d5565b50919050565b6000546001600160a01b031633146125f95760405162461bcd60e51b81526004016108c09061451f565b806003836001600160601b03168154811061261657612616614561565b90600052602060002090600b0201600301819055505050565b6000546001600160a01b031633146126595760405162461bcd60e51b81526004016108c09061451f565b6000836001600160a01b0316838360405161267491906146b3565b60006040518083038185875af1925050503d80600081146126b1576040519150601f19603f3d011682016040523d82523d6000602084013e6126b6565b606091505b50509050806126fb5760405162461bcd60e51b8152602060048201526011602482015270155b9cdd58d8d95cdcd99d5b0818d85b1b607a1b60448201526064016108c0565b50505050565b61270e338383600061375c565b61274b5760405162461bcd60e51b815260206004820152600e60248201526d14dd185ada5b99c819985a5b195960921b60448201526064016108c0565b5050565b6127588161245f565b3410156127b35760405162461bcd60e51b8152602060048201526024808201527f4e6f7420656e6f7567682045544820746f20636f7665722061707065616c206360448201526337b9ba1760e11b60648201526084016108c0565b6000600582815481106127c8576127c8614561565b60009182526020909120600590910201905060036001820154600160a01b900460ff1660048111156127fc576127fc613f0f565b146128495760405162461bcd60e51b815260206004820152601a60248201527f44697370757465206973206e6f742061707065616c61626c652e00000000000060448201526064016108c0565b60018101546001600160a01b031633146128b35760405162461bcd60e51b815260206004820152602560248201527f416363657373206e6f7420616c6c6f7765643a2044697370757465204b69742060448201526437b7363c9760d91b60648201526084016108c0565b80546003805490916001600160601b03169081106128d3576128d3614561565b90600052602060002090600b0201600501548160030154106129405780546003805490916001600160601b031690811061290f5761290f614561565b60009182526020909120600b909102015481546bffffffffffffffffffffffff19166001600160601b039091161781555b60018101805460ff60a01b1916905542600282015580546003805490916001600160601b031690811061297557612975614561565b90600052602060002090600b02016004015434612992919061460a565b60038083019190915560048201805460018101825560009182526020909120835483546005909302909101926127109290916001600160601b03169081106129dc576129dc614561565b600091825260209091206003600b90920201810154845482549192916001600160601b03909116908110612a1257612a12614561565b90600052602060002090600b020160020154612a2e91906145d5565b612a38919061460a565b81553460018201558154604051600160601b9091046001600160a01b03169084907f9c9b64db9e130f48381bf697abf638e73117dbfbfd7a4484f2da3ba188f4187d90600090a3827f4e6f5cf43b95303e86aee81683df63992061723a829ee012db21dad388756b916000604051612ab09190613f47565b60405180910390a2505050565b6000806000806060600060058881548110612ada57612ada614561565b906000526020600020906005020190506000816004018881548110612b0157612b01614561565b9060005260206000209060050201905080600001548160010154826002015483600301548460040180805480602002602001604051908101604052809291908181526020018280548015612b7e57602002820191906000526020600020905b81546001600160a01b03168152600190910190602001808311612b60575b505050505090509650965096509650965050509295509295909350565b600060058281548110612bb057612bb0614561565b60009182526020909120600590910201905060046001820154600160a01b900460ff166004811115612be457612be4613f0f565b14612c315760405162461bcd60e51b815260206004820152601b60248201527f53686f756c6420626520657865637574696f6e20706572696f642e000000000060448201526064016108c0565b6001810154600160a81b900460ff1615612c8d5760405162461bcd60e51b815260206004820152601860248201527f52756c696e6720616c72656164792065786563757465642e000000000000000060448201526064016108c0565b6000612c9883610fe4565b60018301805460ff60a81b1916600160a81b179055825460405163188d362b60e11b815260048101869052602481018390529192506001600160a01b03600160601b909104169063311a6c5690604401600060405180830381600087803b158015612d0257600080fd5b505af1158015612d16573d6000803e3d6000fd5b50505050505050565b6000546001600160a01b03163314612d495760405162461bcd60e51b81526004016108c09061451f565b806003836001600160601b031681548110612d6657612d66614561565b90600052602060002090600b0201600501819055505050565b600080600060058481548110612d9757612d97614561565b60009182526020909120600590910201905060036001820154600160a01b900460ff166004811115612dcb57612dcb613f0f565b1415612e24576002810154815460038054929550916001600160601b03909116908110612dfa57612dfa614561565b600091825260209091206009600b9092020101546002820154612e1d91906145bd565b9150612e2d565b60009250600091505b50915091565b6000612e3e826136d7565b341015612e9f5760405162461bcd60e51b815260206004820152602960248201527f4e6f7420656e6f7567682045544820746f20636f76657220617262697472617460448201526834b7b71031b7b9ba1760b91b60648201526084016108c0565b600080612eab84613d70565b925050915060008160ff166001901b9050806003846001600160601b031681548110612ed957612ed9614561565b90600052602060002090600b0201600a0154821614612f545760405162461bcd60e51b815260206004820152603160248201527f5468652064697370757465206b6974206973206e6f7420737570706f7274656460448201527008189e481d1a1a5cc81cdd5898dbdd5c9d607a1b60648201526084016108c0565b60058054600181018255600160601b33026001600160601b038087168281179484027f036b6384b5eca791c62761152d0c79bb0604c104a5fb6f4eb0703f3154bb3db0810195865560ff88166000908152600460205260409020547f036b6384b5eca791c62761152d0c79bb0604c104a5fb6f4eb0703f3154bb3db1820180546001600160a01b0319166001600160a01b03929092169182179055427f036b6384b5eca791c62761152d0c79bb0604c104a5fb6f4eb0703f3154bb3db29092019190915560038054959a50909490939092161790811061303657613036614561565b90600052602060002090600b02016004015434613053919061460a565b60038084019190915560048301805460018101825560009182526020909120845483546005909302909101926127109290916001600160601b031690811061309d5761309d614561565b600091825260209091206003600b90920201810154855482549192916001600160601b039091169081106130d3576130d3614561565b90600052602060002090600b0201600201546130ef91906145d5565b6130f9919061460a565b8155346001820155604051638d31de6d60e01b81526001600160a01b03831690638d31de6d90613131908a908d908d906004016146cf565b600060405180830381600087803b15801561314b57600080fd5b505af115801561315f573d6000803e3d6000fd5b50506040513392508991507f141dfc18aa6a56fc816f44f0e9e2f1ebc92b15ab167770e17db5b084c10ed99590600090a350505050505092915050565b6000546001600160a01b031633146131c65760405162461bcd60e51b81526004016108c09061451f565b600280546001600160a01b0319166001600160a01b0392909216919091179055565b6000600583815481106131fd576131fd614561565b90600052602060002090600502019050600060018260040180549050613223919061458d565b9050600082600401828154811061323c5761323c614561565b60009182526020822060059091020191506001840154600160a01b900460ff16600481111561326d5761326d613f0f565b146132ba5760405162461bcd60e51b815260206004820152601a60248201527f53686f756c642062652065766964656e636520706572696f642e00000000000060448201526064016108c0565b6001830154600482015460038501546001600160a01b03909216916000906132e288846145bd565b11156132f25785600301546132fc565b6132fc87836145bd565b9050815b818110156134f257604051633b30414760e01b8152600481018a90526000906001600160a01b03861690633b304147906024016020604051808303816000875af1158015613352573d6000803e3d6000fd5b505050506040513d601f19601f820116820180604052508101906133769190614710565b90506001600160a01b038116156134df5785546001600160a01b03821660009081526006602090815260408083208c546001600160601b03168452600201909152812080549091906133c99084906145bd565b90915550506001600160a01b03811660009081526006602090815260408083208b546001600160601b031684526002810183528184205460019091019092529091205410156134705760405162461bcd60e51b815260206004820152602d60248201527f4c6f636b656420616d6f756e742073686f756c646e277420657863656564207360448201526c3a30b5b2b21030b6b7bab73a1760991b60648201526084016108c0565b60048601805460018101825560009182526020918290200180546001600160a01b0319166001600160a01b038416908117909155604080518a81529283018590528c927f6119cf536152c11e0a9a6c22f3953ce4ecc93ee54fa72ffa326ffabded21509b910160405180910390a35b50806134ea8161463b565b915050613300565b505050505050505050565b600081815260076020908152604091829020805460018201805485518186028101860190965280865291946060948594939192919083018282801561356157602002820191906000526020600020905b81548152602001906001019080831161354d575b50505050509250806002018054806020026020016040519081016040528092919081815260200182805480156135b657602002820191906000526020600020905b8154815260200190600101908083116135a2575b50505050509150509193909250565b6000600382815481106135da576135da614561565b60009182526020909120600b9091020154600160601b900460ff1692915050565b6000546001600160a01b031633146136255760405162461bcd60e51b81526004016108c09061451f565b600080546001600160a01b0319166001600160a01b0392909216919091179055565b6000546001600160a01b031633146136715760405162461bcd60e51b81526004016108c09061451f565b60ff16600090815260046020526040902080546001600160a01b0319166001600160a01b0392909216919091179055565b6000600582815481106136b7576136b7614561565b60009182526020909120600590910201546001600160601b031692915050565b60008060006136e584613d70565b5091509150806003836001600160601b03168154811061370757613707614561565b90600052602060002090600b02016004015461372391906145d5565b949350505050565b6000806005838154811061374157613741614561565b60009182526020909120600460059092020101549392505050565b6001600160a01b03841660009081526006602052604081208161377f8787613dec565b604051637521ccb160e01b8152600760048201526001600160601b03881660248201526044810182905290915060009073__$52cf47af9c3c0d67e54ac2a3225447effa$__90637521ccb190606401602060405180830381865af41580156137eb573d6000803e3d6000fd5b505050506040513d601f19601f8201168201806040525081019061380f91906145a4565b905085156138d6576003876001600160601b03168154811061383357613833614561565b90600052602060002090600b02016002015486108061386b57506001600160601b038716600090815260028401602052604090205486105b1561387c5760009350505050613723565b806138d15782546004116138965760009350505050613723565b8254600180820185556000858152602090206002830401805491909216600c026101000a6001600160601b0381810219909216918a16021790555b613a22565b60005b8354811015613a2057876001600160601b031684600001828154811061390157613901614561565b600091825260209091206002820401546001909116600c026101000a90046001600160601b03161415613a0e578354849061393e9060019061458d565b8154811061394e5761394e614561565b9060005260206000209060029182820401919006600c029054906101000a90046001600160601b031684600001828154811061398c5761398c614561565b9060005260206000209060029182820401919006600c026101000a8154816001600160601b0302191690836001600160601b03160217905550836000018054806139d8576139d861472d565b60008281526020902060026000199092019182040180546001600160601b03600c60018516026101000a02191690559055613a20565b80613a188161463b565b9150506138d9565b505b6001600160601b03871660009081526001840160205260408120548790613a4a90849061458d565b613a5491906145bd565b6001600160601b038916600081815260018701602052604081208390559192505b81613b3857604051631712e1c560e11b81526007600482015260248101829052604481018a90526064810186905273__$52cf47af9c3c0d67e54ac2a3225447effa$__90632e25c38a9060840160006040518083038186803b158015613ada57600080fd5b505af4158015613aee573d6000803e3d6000fd5b505050508060001415613b045760019150613a75565b60038181548110613b1757613b17614561565b60009182526020909120600b90910201546001600160601b03169050613a75565b604080516001600160601b038c168152602081018b90529081018490526001600160a01b038c16907f70ca4ec64687bf265f39041896f3dbf10b9f650503cb38f2b3569fdce7489c369060600160405180910390a26000848a10613c3f57613ba0858b61458d565b90508015613c3a576001546040516323b872dd60e01b81526001600160a01b038e8116600483015230602483015260448201849052909116906323b872dd906064015b6020604051808303816000875af1158015613c02573d6000803e3d6000fd5b505050506040513d601f19601f82011682018060405250810190613c26919061461e565b613c3a576000975050505050505050613723565b613d5e565b89613cb6576001600160601b038b1660009081526002880160205260409020548990613c6b908761458d565b613c75919061458d565b90508015613c3a5760015460405163a9059cbb60e01b81526001600160a01b038e81166004830152602482018490529091169063a9059cbb90604401613be3565b88613cc18b8761458d565b613ccb919061458d565b90508015613d5e5760015460405163a9059cbb60e01b81526001600160a01b038e81166004830152602482018490529091169063a9059cbb906044016020604051808303816000875af1158015613d26573d6000803e3d6000fd5b505050506040513d601f19601f82011682018060405250810190613d4a919061461e565b613d5e576000975050505050505050613723565b5060019b9a5050505050505050505050565b60008060006040845110613dda575050506020810151604082015160608301516003546001600160601b03841610613da757600092505b81613db157600391505b60ff81166000908152600460205260409020546001600160a01b0316613dd5575060005b613de5565b506000915060039050815b9193909250565b600060405160005b6014811015613e0f578481600c011a81830153600101613df4565b5060145b6020811015613e2b5783811a81830153600101613e13565b50519392505050565b8260048101928215613e62579160200282015b82811115613e62578251825591602001919060010190613e47565b50613e6e929150613eac565b5090565b828054828255906000526020600020908101928215613e625791602002820182811115613e62578251825591602001919060010190613e47565b5b80821115613e6e5760008155600101613ead565b6001600160a01b0381168114613ed657600080fd5b50565b600060208284031215613eeb57600080fd5b813561107b81613ec1565b600060208284031215613f0857600080fd5b5035919050565b634e487b7160e01b600052602160045260246000fd5b60058110613f4357634e487b7160e01b600052602160045260246000fd5b9052565b60208101613f558284613f25565b92915050565b600080600060608486031215613f7057600080fd5b505081359360208301359350604090920135919050565b80356001600160601b0381168114613f9e57600080fd5b919050565b60008060408385031215613fb657600080fd5b613fbf83613f87565b946020939093013593505050565b634e487b7160e01b600052604160045260246000fd5b604051601f8201601f1916810167ffffffffffffffff8111828210171561400c5761400c613fcd565b604052919050565b803560ff81168114613f9e57600080fd5b8015158114613ed657600080fd5b8035613f9e81614025565b60008060006060848603121561405357600080fd5b61405c84613f87565b925060208085013567ffffffffffffffff8082111561407a57600080fd5b818701915087601f83011261408e57600080fd5b8135818111156140a0576140a0613fcd565b8060051b91506140b1848301613fe3565b818152918301840191848101908a8411156140cb57600080fd5b938501935b838510156140f0576140e185614014565b825293850193908501906140d0565b80975050505050505061410560408501614033565b90509250925092565b6001600160601b03881681526001600160a01b0387811660208301528616604082015260e081016141426060830187613f25565b931515608082015260a081019290925260c090910152949350505050565b600082601f83011261417157600080fd5b6040516080810181811067ffffffffffffffff8211171561419457614194613fcd565b6040528060808401858111156141a957600080fd5b845b818110156141c35780358352602092830192016141ab565b509195945050505050565b60008060a083850312156141e157600080fd5b6141ea83613f87565b91506141f98460208501614160565b90509250929050565b60008060008060008060008060006101808a8c03121561422157600080fd5b61422a8a613f87565b985060208a013561423a81614025565b975060408a0135965060608a0135955060808a0135945060a08a013593506142658b60c08c01614160565b92506101408a013591506101608a013590509295985092959850929598565b600082601f83011261429557600080fd5b813567ffffffffffffffff8111156142af576142af613fcd565b6142c2601f8201601f1916602001613fe3565b8181528460208386010111156142d757600080fd5b816020850160208301376000918101602001919091529392505050565b60008060006060848603121561430957600080fd5b833561431481613ec1565b925060208401359150604084013567ffffffffffffffff81111561433757600080fd5b61434386828701614284565b9150509250925092565b6000806040838503121561436057600080fd5b50508035926020909101359150565b600060a082018783526020878185015286604085015285606085015260a0608085015281855180845260c086019150828701935060005b818110156143cb5784516001600160a01b0316835293830193918301916001016143a6565b50909a9950505050505050505050565b600080604083850312156143ee57600080fd5b82359150602083013567ffffffffffffffff81111561440c57600080fd5b61441885828601614284565b9150509250929050565b6000806040838503121561443557600080fd5b823561444081613ec1565b91506141f960208401613f87565b600081518084526020808501945080840160005b8381101561447e57815187529582019590820190600101614462565b509495945050505050565b8381526060602082015260006144a2606083018561444e565b82810360408401526144b4818561444e565b9695505050505050565b600080604083850312156144d157600080fd5b82356144dc81613ec1565b91506141f960208401614014565b6000602082840312156144fc57600080fd5b813567ffffffffffffffff81111561451357600080fd5b61372384828501614284565b60208082526022908201527f416363657373206e6f7420616c6c6f7765643a20476f7665726e6f72206f6e6c6040820152613c9760f11b606082015260800190565b634e487b7160e01b600052603260045260246000fd5b634e487b7160e01b600052601160045260246000fd5b60008282101561459f5761459f614577565b500390565b6000602082840312156145b657600080fd5b5051919050565b600082198211156145d0576145d0614577565b500190565b60008160001904831182151516156145ef576145ef614577565b500290565b634e487b7160e01b600052601260045260246000fd5b600082614619576146196145f4565b500490565b60006020828403121561463057600080fd5b815161107b81614025565b600060001982141561464f5761464f614577565b5060010190565b6000600160ff1b82141561466c5761466c614577565b5060000390565b600082614682576146826145f4565b500690565b60005b838110156146a257818101518382015260200161468a565b838111156126fb5750506000910152565b600082516146c5818460208701614687565b9190910192915050565b83815282602082015260606040820152600082518060608401526146fa816080850160208701614687565b601f01601f191691909101608001949350505050565b60006020828403121561472257600080fd5b815161107b81613ec1565b634e487b7160e01b600052603160045260246000fdfea2646970667358221220bd91fce7201899d75d819f63f7e467358cfc4d44030583d012667271506fcec564736f6c634300080a0033",
  "libraries": {
    "SortitionSumTreeFactory": "0xf02733d9e5CbfE67B54F165b0277E1995106D526"
  },
  "devdoc": {
    "kind": "dev",
    "methods": {
      "addNewDisputeKit(address,uint8)": {
        "details": "Add a new supported dispute kit module to the court.",
        "params": {
          "_disputeKitAddress": "The address of the dispute kit contract.",
          "_disputeKitID": "The ID assigned to the added dispute kit."
        }
      },
      "appeal(uint256)": {
        "details": "Appeals the ruling of a specified dispute.  Note: Access restricted to the Dispute Kit for this `disputeID`.",
        "params": {
          "_disputeID": "The ID of the dispute."
        }
      },
      "appealCost(uint256)": {
        "details": "Gets the cost of appealing a specified dispute.",
        "params": {
          "_disputeID": "The ID of the dispute."
        },
        "returns": {
          "cost": "The appeal cost."
        }
      },
      "appealPeriod(uint256)": {
        "details": "Gets the start and the end of a specified dispute's current appeal period.",
        "params": {
          "_disputeID": "The ID of the dispute."
        },
        "returns": {
          "end": "The end of the appeal period.",
          "start": "The start of the appeal period."
        }
      },
      "arbitrationCost(bytes)": {
        "details": "Gets the cost of arbitration in a specified subcourt.",
        "params": {
          "_extraData": "Additional info about the dispute. We use it to pass the ID of the subcourt to create the dispute in (first 32 bytes)  and the minimum number of jurors required (next 32 bytes)."
        },
        "returns": {
          "cost": "The arbitration cost."
        }
      },
      "changeGovernor(address)": {
        "details": "Changes the `governor` storage variable.",
        "params": {
          "_governor": "The new value for the `governor` storage variable."
        }
      },
      "changeJurorProsecutionModule(address)": {
        "details": "Changes the `jurorProsecutionModule` storage variable.",
        "params": {
          "_jurorProsecutionModule": "The new value for the `jurorProsecutionModule` storage variable."
        }
      },
      "changePinakion(address)": {
        "details": "Changes the `pinakion` storage variable.",
        "params": {
          "_pinakion": "The new value for the `pinakion` storage variable."
        }
      },
      "changeSubcourtAlpha(uint96,uint256)": {
        "details": "Changes the `alpha` property value of a specified subcourt.",
        "params": {
          "_alpha": "The new value for the `alpha` property value.",
          "_subcourtID": "The ID of the subcourt."
        }
      },
      "changeSubcourtJurorFee(uint96,uint256)": {
        "details": "Changes the `feeForJuror` property value of a specified subcourt.",
        "params": {
          "_feeForJuror": "The new value for the `feeForJuror` property value.",
          "_subcourtID": "The ID of the subcourt."
        }
      },
      "changeSubcourtJurorsForJump(uint96,uint256)": {
        "details": "Changes the `jurorsForCourtJump` property value of a specified subcourt.",
        "params": {
          "_jurorsForCourtJump": "The new value for the `jurorsForCourtJump` property value.",
          "_subcourtID": "The ID of the subcourt."
        }
      },
      "changeSubcourtMinStake(uint96,uint256)": {
        "details": "Changes the `minStake` property value of a specified subcourt. Don't set to a value lower than its parent's `minStake` property value.",
        "params": {
          "_minStake": "The new value for the `minStake` property value.",
          "_subcourtID": "The ID of the subcourt."
        }
      },
      "changeSubcourtTimesPerPeriod(uint96,uint256[4])": {
        "details": "Changes the `timesPerPeriod` property value of a specified subcourt.",
        "params": {
          "_subcourtID": "The ID of the subcourt.",
          "_timesPerPeriod": "The new value for the `timesPerPeriod` property value."
        }
      },
      "constructor": {
        "details": "Constructor.",
        "params": {
          "_alpha": "The `alpha` property value of the forking court.",
          "_disputeKit": "The address of the default dispute kit.",
          "_feeForJuror": "The `feeForJuror` property value of the forking court.",
          "_governor": "The governor's address.",
          "_hiddenVotes": "The `hiddenVotes` property value of the forking court.",
          "_jurorProsecutionModule": "The address of the juror prosecution module.",
          "_jurorsForCourtJump": "The `jurorsForCourtJump` property value of the forking court.",
          "_minStake": "The `minStake` property value of the forking court.",
          "_pinakion": "The address of the token contract.",
          "_sortitionSumTreeK": "The number of children per node of the forking court's sortition sum tree.",
          "_timesPerPeriod": "The `timesPerPeriod` property value of the forking court."
        }
      },
      "createDispute(uint256,bytes)": {
        "details": "Creates a dispute. Must be called by the arbitrable contract.",
        "params": {
          "_extraData": "Additional info about the dispute. We use it to pass the ID of the dispute's subcourt (first 32 bytes),  the minimum number of jurors required (next 32 bytes) and the ID of the specific dispute kit (last 32 bytes).",
          "_numberOfChoices": "Number of choices for the jurors to choose from."
        },
        "returns": {
          "disputeID": "The ID of the created dispute."
        }
      },
      "createSubcourt(uint96,bool,uint256,uint256,uint256,uint256,uint256[4],uint256,uint256)": {
        "details": "Creates a subcourt under a specified parent court.",
        "params": {
          "_alpha": "The `alpha` property value of the subcourt.",
          "_feeForJuror": "The `feeForJuror` property value of the subcourt.",
          "_hiddenVotes": "The `hiddenVotes` property value of the subcourt.",
          "_jurorsForCourtJump": "The `jurorsForCourtJump` property value of the subcourt.",
          "_minStake": "The `minStake` property value of the subcourt.",
          "_parent": "The `parent` property value of the subcourt.",
          "_sortitionSumTreeK": "The number of children per node of the subcourt's sortition sum tree.",
          "_supportedDisputeKits": "Bitfield that contains the IDs of the dispute kits that this court will support.",
          "_timesPerPeriod": "The `timesPerPeriod` property value of the subcourt."
        }
      },
      "currentRuling(uint256)": {
        "details": "Gets the current ruling of a specified dispute.",
        "params": {
          "_disputeID": "The ID of the dispute."
        },
        "returns": {
          "ruling": "The current ruling."
        }
      },
      "draw(uint256,uint256)": {
        "details": "Draws jurors for the dispute. Can be called in parts.",
        "params": {
          "_disputeID": "The ID of the dispute.",
          "_iterations": "The number of iterations to run."
        }
      },
      "execute(uint256,uint256,uint256)": {
        "details": "Distribute tokens and ETH for the specific round of the dispute. Can be called in parts.",
        "params": {
          "_appeal": "The appeal round.",
          "_disputeID": "The ID of the dispute.",
          "_iterations": "The number of iterations to run."
        }
      },
      "executeGovernorProposal(address,uint256,bytes)": {
        "details": "Allows the governor to call anything on behalf of the contract.",
        "params": {
          "_amount": "The value sent with the call.",
          "_data": "The data sent with the call.",
          "_destination": "The destination of the call."
        }
      },
      "executeRuling(uint256)": {
        "details": "Executes a specified dispute's ruling. UNTRUSTED.",
        "params": {
          "_disputeID": "The ID of the dispute."
        }
      },
      "passPeriod(uint256)": {
        "details": "Passes the period of a specified dispute.",
        "params": {
          "_disputeID": "The ID of the dispute."
        }
      },
      "setDisputeKits(uint96,uint8[],bool)": {
        "details": "Adds/removes particular dispute kits to a subcourt's bitfield of supported dispute kits.",
        "params": {
          "_disputeKitIDs": "IDs of dispute kits which support should be added/removed.",
          "_enable": "Whether add or remove the dispute kits from the subcourt.",
          "_subcourtID": "The ID of the subcourt."
        }
      },
      "setStake(uint96,uint256)": {
        "details": "Sets the caller's stake in a subcourt.",
        "params": {
          "_stake": "The new stake.",
          "_subcourtID": "The ID of the subcourt."
        }
      }
    },
    "title": "KlerosCore  Core arbitrator contract for Kleros v2.",
    "version": 1
  },
  "userdoc": {
    "kind": "user",
    "methods": {},
    "version": 1
  },
  "storageLayout": {
    "storage": [
      {
        "astId": 2101,
        "contract": "src/arbitration/KlerosCore.sol:KlerosCore",
        "label": "governor",
        "offset": 0,
        "slot": "0",
        "type": "t_address"
      },
      {
        "astId": 2104,
        "contract": "src/arbitration/KlerosCore.sol:KlerosCore",
        "label": "pinakion",
        "offset": 0,
        "slot": "1",
        "type": "t_contract(IERC20)623"
      },
      {
        "astId": 2106,
        "contract": "src/arbitration/KlerosCore.sol:KlerosCore",
        "label": "jurorProsecutionModule",
        "offset": 0,
        "slot": "2",
        "type": "t_address"
      },
      {
        "astId": 2110,
        "contract": "src/arbitration/KlerosCore.sol:KlerosCore",
        "label": "courts",
        "offset": 0,
        "slot": "3",
        "type": "t_array(t_struct(Court)2034_storage)dyn_storage"
      },
      {
        "astId": 2115,
        "contract": "src/arbitration/KlerosCore.sol:KlerosCore",
        "label": "disputeKits",
        "offset": 0,
        "slot": "4",
        "type": "t_mapping(t_uint256,t_contract(IDisputeKit)1992)"
      },
      {
        "astId": 2119,
        "contract": "src/arbitration/KlerosCore.sol:KlerosCore",
        "label": "disputes",
        "offset": 0,
        "slot": "5",
        "type": "t_array(t_struct(Dispute)2056_storage)dyn_storage"
      },
      {
        "astId": 2124,
        "contract": "src/arbitration/KlerosCore.sol:KlerosCore",
        "label": "jurors",
        "offset": 0,
        "slot": "6",
        "type": "t_mapping(t_address,t_struct(Juror)2080_storage)"
      },
      {
        "astId": 2127,
        "contract": "src/arbitration/KlerosCore.sol:KlerosCore",
        "label": "sortitionSumTrees",
        "offset": 0,
        "slot": "7",
        "type": "t_struct(SortitionSumTrees)8619_storage"
      }
    ],
    "types": {
      "t_address": {
        "encoding": "inplace",
        "label": "address",
        "numberOfBytes": "20"
      },
      "t_array(t_address)dyn_storage": {
        "base": "t_address",
        "encoding": "dynamic_array",
        "label": "address[]",
        "numberOfBytes": "32"
      },
      "t_array(t_struct(Court)2034_storage)dyn_storage": {
        "base": "t_struct(Court)2034_storage",
        "encoding": "dynamic_array",
        "label": "struct KlerosCore.Court[]",
        "numberOfBytes": "32"
      },
      "t_array(t_struct(Dispute)2056_storage)dyn_storage": {
        "base": "t_struct(Dispute)2056_storage",
        "encoding": "dynamic_array",
        "label": "struct KlerosCore.Dispute[]",
        "numberOfBytes": "32"
      },
      "t_array(t_struct(Round)2068_storage)dyn_storage": {
        "base": "t_struct(Round)2068_storage",
        "encoding": "dynamic_array",
        "label": "struct KlerosCore.Round[]",
        "numberOfBytes": "32"
      },
      "t_array(t_uint256)4_storage": {
        "base": "t_uint256",
        "encoding": "inplace",
        "label": "uint256[4]",
        "numberOfBytes": "128"
      },
      "t_array(t_uint256)dyn_storage": {
        "base": "t_uint256",
        "encoding": "dynamic_array",
        "label": "uint256[]",
        "numberOfBytes": "32"
      },
      "t_array(t_uint96)dyn_storage": {
        "base": "t_uint96",
        "encoding": "dynamic_array",
        "label": "uint96[]",
        "numberOfBytes": "32"
      },
      "t_bool": {
        "encoding": "inplace",
        "label": "bool",
        "numberOfBytes": "1"
      },
      "t_bytes32": {
        "encoding": "inplace",
        "label": "bytes32",
        "numberOfBytes": "32"
      },
      "t_contract(IArbitrable)1858": {
        "encoding": "inplace",
        "label": "contract IArbitrable",
        "numberOfBytes": "20"
      },
      "t_contract(IDisputeKit)1992": {
        "encoding": "inplace",
        "label": "contract IDisputeKit",
        "numberOfBytes": "20"
      },
      "t_contract(IERC20)623": {
        "encoding": "inplace",
        "label": "contract IERC20",
        "numberOfBytes": "20"
      },
      "t_enum(Period)2012": {
        "encoding": "inplace",
        "label": "enum KlerosCore.Period",
        "numberOfBytes": "1"
      },
      "t_mapping(t_address,t_struct(Juror)2080_storage)": {
        "encoding": "mapping",
        "key": "t_address",
        "label": "mapping(address => struct KlerosCore.Juror)",
        "numberOfBytes": "32",
        "value": "t_struct(Juror)2080_storage"
      },
      "t_mapping(t_bytes32,t_struct(SortitionSumTree)8613_storage)": {
        "encoding": "mapping",
        "key": "t_bytes32",
        "label": "mapping(bytes32 => struct SortitionSumTreeFactory.SortitionSumTree)",
        "numberOfBytes": "32",
        "value": "t_struct(SortitionSumTree)8613_storage"
      },
      "t_mapping(t_bytes32,t_uint256)": {
        "encoding": "mapping",
        "key": "t_bytes32",
        "label": "mapping(bytes32 => uint256)",
        "numberOfBytes": "32",
        "value": "t_uint256"
      },
      "t_mapping(t_uint256,t_bytes32)": {
        "encoding": "mapping",
        "key": "t_uint256",
        "label": "mapping(uint256 => bytes32)",
        "numberOfBytes": "32",
        "value": "t_bytes32"
      },
      "t_mapping(t_uint256,t_contract(IDisputeKit)1992)": {
        "encoding": "mapping",
        "key": "t_uint256",
        "label": "mapping(uint256 => contract IDisputeKit)",
        "numberOfBytes": "32",
        "value": "t_contract(IDisputeKit)1992"
      },
      "t_mapping(t_uint96,t_uint256)": {
        "encoding": "mapping",
        "key": "t_uint96",
        "label": "mapping(uint96 => uint256)",
        "numberOfBytes": "32",
        "value": "t_uint256"
      },
      "t_struct(Court)2034_storage": {
        "encoding": "inplace",
        "label": "struct KlerosCore.Court",
        "members": [
          {
            "astId": 2014,
            "contract": "src/arbitration/KlerosCore.sol:KlerosCore",
            "label": "parent",
            "offset": 0,
            "slot": "0",
            "type": "t_uint96"
          },
          {
            "astId": 2016,
            "contract": "src/arbitration/KlerosCore.sol:KlerosCore",
            "label": "hiddenVotes",
            "offset": 12,
            "slot": "0",
            "type": "t_bool"
          },
          {
            "astId": 2019,
            "contract": "src/arbitration/KlerosCore.sol:KlerosCore",
            "label": "children",
            "offset": 0,
            "slot": "1",
            "type": "t_array(t_uint256)dyn_storage"
          },
          {
            "astId": 2021,
            "contract": "src/arbitration/KlerosCore.sol:KlerosCore",
            "label": "minStake",
            "offset": 0,
            "slot": "2",
            "type": "t_uint256"
          },
          {
            "astId": 2023,
            "contract": "src/arbitration/KlerosCore.sol:KlerosCore",
            "label": "alpha",
            "offset": 0,
            "slot": "3",
            "type": "t_uint256"
          },
          {
            "astId": 2025,
            "contract": "src/arbitration/KlerosCore.sol:KlerosCore",
            "label": "feeForJuror",
            "offset": 0,
            "slot": "4",
            "type": "t_uint256"
          },
          {
            "astId": 2027,
            "contract": "src/arbitration/KlerosCore.sol:KlerosCore",
            "label": "jurorsForCourtJump",
            "offset": 0,
            "slot": "5",
            "type": "t_uint256"
          },
          {
            "astId": 2031,
            "contract": "src/arbitration/KlerosCore.sol:KlerosCore",
            "label": "timesPerPeriod",
            "offset": 0,
            "slot": "6",
            "type": "t_array(t_uint256)4_storage"
          },
          {
            "astId": 2033,
            "contract": "src/arbitration/KlerosCore.sol:KlerosCore",
            "label": "supportedDisputeKits",
            "offset": 0,
            "slot": "10",
            "type": "t_uint256"
          }
        ],
        "numberOfBytes": "352"
      },
      "t_struct(Dispute)2056_storage": {
        "encoding": "inplace",
        "label": "struct KlerosCore.Dispute",
        "members": [
          {
            "astId": 2036,
            "contract": "src/arbitration/KlerosCore.sol:KlerosCore",
            "label": "subcourtID",
            "offset": 0,
            "slot": "0",
            "type": "t_uint96"
          },
          {
            "astId": 2039,
            "contract": "src/arbitration/KlerosCore.sol:KlerosCore",
            "label": "arbitrated",
            "offset": 12,
            "slot": "0",
            "type": "t_contract(IArbitrable)1858"
          },
          {
            "astId": 2042,
            "contract": "src/arbitration/KlerosCore.sol:KlerosCore",
            "label": "disputeKit",
            "offset": 0,
            "slot": "1",
            "type": "t_contract(IDisputeKit)1992"
          },
          {
            "astId": 2045,
            "contract": "src/arbitration/KlerosCore.sol:KlerosCore",
            "label": "period",
            "offset": 20,
            "slot": "1",
            "type": "t_enum(Period)2012"
          },
          {
            "astId": 2047,
            "contract": "src/arbitration/KlerosCore.sol:KlerosCore",
            "label": "ruled",
            "offset": 21,
            "slot": "1",
            "type": "t_bool"
          },
          {
            "astId": 2049,
            "contract": "src/arbitration/KlerosCore.sol:KlerosCore",
            "label": "lastPeriodChange",
            "offset": 0,
            "slot": "2",
            "type": "t_uint256"
          },
          {
            "astId": 2051,
            "contract": "src/arbitration/KlerosCore.sol:KlerosCore",
            "label": "nbVotes",
            "offset": 0,
            "slot": "3",
            "type": "t_uint256"
          },
          {
            "astId": 2055,
            "contract": "src/arbitration/KlerosCore.sol:KlerosCore",
            "label": "rounds",
            "offset": 0,
            "slot": "4",
            "type": "t_array(t_struct(Round)2068_storage)dyn_storage"
          }
        ],
        "numberOfBytes": "160"
      },
      "t_struct(Juror)2080_storage": {
        "encoding": "inplace",
        "label": "struct KlerosCore.Juror",
        "members": [
          {
            "astId": 2071,
            "contract": "src/arbitration/KlerosCore.sol:KlerosCore",
            "label": "subcourtIDs",
            "offset": 0,
            "slot": "0",
            "type": "t_array(t_uint96)dyn_storage"
          },
          {
            "astId": 2075,
            "contract": "src/arbitration/KlerosCore.sol:KlerosCore",
            "label": "stakedTokens",
            "offset": 0,
            "slot": "1",
            "type": "t_mapping(t_uint96,t_uint256)"
          },
          {
            "astId": 2079,
            "contract": "src/arbitration/KlerosCore.sol:KlerosCore",
            "label": "lockedTokens",
            "offset": 0,
            "slot": "2",
            "type": "t_mapping(t_uint96,t_uint256)"
          }
        ],
        "numberOfBytes": "96"
      },
      "t_struct(Round)2068_storage": {
        "encoding": "inplace",
        "label": "struct KlerosCore.Round",
        "members": [
          {
            "astId": 2058,
            "contract": "src/arbitration/KlerosCore.sol:KlerosCore",
            "label": "tokensAtStakePerJuror",
            "offset": 0,
            "slot": "0",
            "type": "t_uint256"
          },
          {
            "astId": 2060,
            "contract": "src/arbitration/KlerosCore.sol:KlerosCore",
            "label": "totalFeesForJurors",
            "offset": 0,
            "slot": "1",
            "type": "t_uint256"
          },
          {
            "astId": 2062,
            "contract": "src/arbitration/KlerosCore.sol:KlerosCore",
            "label": "repartitions",
            "offset": 0,
            "slot": "2",
            "type": "t_uint256"
          },
          {
            "astId": 2064,
            "contract": "src/arbitration/KlerosCore.sol:KlerosCore",
            "label": "penalties",
            "offset": 0,
            "slot": "3",
            "type": "t_uint256"
          },
          {
            "astId": 2067,
            "contract": "src/arbitration/KlerosCore.sol:KlerosCore",
            "label": "drawnJurors",
            "offset": 0,
            "slot": "4",
            "type": "t_array(t_address)dyn_storage"
          }
        ],
        "numberOfBytes": "160"
      },
      "t_struct(SortitionSumTree)8613_storage": {
        "encoding": "inplace",
        "label": "struct SortitionSumTreeFactory.SortitionSumTree",
        "members": [
          {
            "astId": 8598,
            "contract": "src/arbitration/KlerosCore.sol:KlerosCore",
            "label": "K",
            "offset": 0,
            "slot": "0",
            "type": "t_uint256"
          },
          {
            "astId": 8601,
            "contract": "src/arbitration/KlerosCore.sol:KlerosCore",
            "label": "stack",
            "offset": 0,
            "slot": "1",
            "type": "t_array(t_uint256)dyn_storage"
          },
          {
            "astId": 8604,
            "contract": "src/arbitration/KlerosCore.sol:KlerosCore",
            "label": "nodes",
            "offset": 0,
            "slot": "2",
            "type": "t_array(t_uint256)dyn_storage"
          },
          {
            "astId": 8608,
            "contract": "src/arbitration/KlerosCore.sol:KlerosCore",
            "label": "IDsToNodeIndexes",
            "offset": 0,
            "slot": "3",
            "type": "t_mapping(t_bytes32,t_uint256)"
          },
          {
            "astId": 8612,
            "contract": "src/arbitration/KlerosCore.sol:KlerosCore",
            "label": "nodeIndexesToIDs",
            "offset": 0,
            "slot": "4",
            "type": "t_mapping(t_uint256,t_bytes32)"
          }
        ],
        "numberOfBytes": "160"
      },
      "t_struct(SortitionSumTrees)8619_storage": {
        "encoding": "inplace",
        "label": "struct SortitionSumTreeFactory.SortitionSumTrees",
        "members": [
          {
            "astId": 8618,
            "contract": "src/arbitration/KlerosCore.sol:KlerosCore",
            "label": "sortitionSumTrees",
            "offset": 0,
            "slot": "0",
            "type": "t_mapping(t_bytes32,t_struct(SortitionSumTree)8613_storage)"
          }
        ],
        "numberOfBytes": "32"
      },
      "t_uint256": {
        "encoding": "inplace",
        "label": "uint256",
        "numberOfBytes": "32"
      },
      "t_uint96": {
        "encoding": "inplace",
        "label": "uint96",
        "numberOfBytes": "12"
      }
    }
  }
}