{
  "address": "0x2284AF183a7EF0C71CbFcEdAFA42Db4C7dfa0982",
  "abi": [
    {
      "inputs": [
        {
          "internalType": "address",
          "name": "_governor",
          "type": "address"
        },
        {
          "internalType": "contract IERC20",
          "name": "_pinakion",
          "type": "address"
        },
        {
          "internalType": "address",
          "name": "_jurorProsecutionModule",
          "type": "address"
        },
        {
          "internalType": "contract IDisputeKit",
          "name": "_disputeKit",
          "type": "address"
        },
        {
          "internalType": "uint256[2]",
          "name": "_phaseTimeouts",
          "type": "uint256[2]"
        },
        {
          "internalType": "bool",
          "name": "_hiddenVotes",
          "type": "bool"
        },
        {
          "internalType": "uint256[4]",
          "name": "_courtParameters",
          "type": "uint256[4]"
        },
        {
          "internalType": "uint256[4]",
          "name": "_timesPerPeriod",
          "type": "uint256[4]"
        },
        {
          "internalType": "uint256",
          "name": "_sortitionSumTreeK",
          "type": "uint256"
        }
      ],
      "stateMutability": "nonpayable",
      "type": "constructor"
    },
    {
      "anonymous": false,
      "inputs": [
        {
          "indexed": true,
          "internalType": "uint256",
          "name": "_disputeID",
          "type": "uint256"
        },
        {
          "indexed": true,
          "internalType": "contract IArbitrable",
          "name": "_arbitrable",
          "type": "address"
        }
      ],
      "name": "AppealDecision",
      "type": "event"
    },
    {
      "anonymous": false,
      "inputs": [
        {
          "indexed": true,
          "internalType": "uint256",
          "name": "_disputeID",
          "type": "uint256"
        },
        {
          "indexed": true,
          "internalType": "contract IArbitrable",
          "name": "_arbitrable",
          "type": "address"
        }
      ],
      "name": "AppealPossible",
      "type": "event"
    },
    {
      "anonymous": false,
      "inputs": [
        {
          "indexed": true,
          "internalType": "uint256",
          "name": "_disputeID",
          "type": "uint256"
        },
        {
          "indexed": true,
          "internalType": "uint256",
          "name": "_roundID",
          "type": "uint256"
        },
        {
          "indexed": true,
          "internalType": "uint96",
          "name": "_fromSubcourtID",
          "type": "uint96"
        },
        {
          "indexed": false,
          "internalType": "uint96",
          "name": "_toSubcourtID",
          "type": "uint96"
        }
      ],
      "name": "CourtJump",
      "type": "event"
    },
    {
      "anonymous": false,
      "inputs": [
        {
          "indexed": true,
          "internalType": "uint256",
          "name": "_disputeID",
          "type": "uint256"
        },
        {
          "indexed": true,
          "internalType": "contract IArbitrable",
          "name": "_arbitrable",
          "type": "address"
        }
      ],
      "name": "DisputeCreation",
      "type": "event"
    },
    {
      "anonymous": false,
      "inputs": [
        {
          "indexed": true,
          "internalType": "uint256",
          "name": "_disputeID",
          "type": "uint256"
        },
        {
          "indexed": true,
          "internalType": "uint256",
          "name": "_roundID",
          "type": "uint256"
        },
        {
          "indexed": true,
          "internalType": "uint256",
          "name": "_fromDisputeKitID",
          "type": "uint256"
        },
        {
          "indexed": false,
          "internalType": "uint256",
          "name": "_toDisputeKitID",
          "type": "uint256"
        }
      ],
      "name": "DisputeKitJump",
      "type": "event"
    },
    {
      "anonymous": false,
      "inputs": [
        {
          "indexed": true,
          "internalType": "address",
          "name": "_address",
          "type": "address"
        },
        {
          "indexed": true,
          "internalType": "uint256",
          "name": "_disputeID",
          "type": "uint256"
        },
        {
          "indexed": false,
          "internalType": "uint256",
          "name": "_roundID",
          "type": "uint256"
        },
        {
          "indexed": false,
          "internalType": "uint256",
          "name": "_voteID",
          "type": "uint256"
        }
      ],
      "name": "Draw",
      "type": "event"
    },
    {
      "anonymous": false,
      "inputs": [
        {
          "indexed": true,
          "internalType": "uint256",
          "name": "_disputeID",
          "type": "uint256"
        },
        {
          "indexed": false,
          "internalType": "enum KlerosCore.Period",
          "name": "_period",
          "type": "uint8"
        }
      ],
      "name": "NewPeriod",
      "type": "event"
    },
    {
      "anonymous": false,
      "inputs": [
        {
          "indexed": false,
          "internalType": "enum KlerosCore.Phase",
          "name": "_phase",
          "type": "uint8"
        }
      ],
      "name": "NewPhase",
      "type": "event"
    },
    {
      "anonymous": false,
      "inputs": [
        {
          "indexed": true,
          "internalType": "address",
          "name": "_address",
          "type": "address"
        },
        {
          "indexed": false,
          "internalType": "uint256",
          "name": "_subcourtID",
          "type": "uint256"
        },
        {
          "indexed": false,
          "internalType": "uint256",
          "name": "_amount",
          "type": "uint256"
        },
        {
          "indexed": false,
          "internalType": "uint256",
          "name": "_newTotalStake",
          "type": "uint256"
        }
      ],
      "name": "StakeSet",
      "type": "event"
    },
    {
      "anonymous": false,
      "inputs": [
        {
          "indexed": true,
          "internalType": "address",
          "name": "_account",
          "type": "address"
        },
        {
          "indexed": true,
          "internalType": "uint256",
          "name": "_disputeID",
          "type": "uint256"
        },
        {
          "indexed": false,
          "internalType": "int256",
          "name": "_tokenAmount",
          "type": "int256"
        },
        {
          "indexed": false,
          "internalType": "int256",
          "name": "_ethAmount",
          "type": "int256"
        }
      ],
      "name": "TokenAndETHShift",
      "type": "event"
    },
    {
      "inputs": [],
      "name": "ALPHA_DIVISOR",
      "outputs": [
        {
          "internalType": "uint256",
          "name": "",
          "type": "uint256"
        }
      ],
      "stateMutability": "view",
      "type": "function"
    },
    {
      "inputs": [],
      "name": "DISPUTE_KIT_CLASSIC_INDEX",
      "outputs": [
        {
          "internalType": "uint256",
          "name": "",
          "type": "uint256"
        }
      ],
      "stateMutability": "view",
      "type": "function"
    },
    {
      "inputs": [],
      "name": "FORKING_COURT",
      "outputs": [
        {
          "internalType": "uint256",
          "name": "",
          "type": "uint256"
        }
      ],
      "stateMutability": "view",
      "type": "function"
    },
    {
      "inputs": [],
      "name": "MAX_STAKE_PATHS",
      "outputs": [
        {
          "internalType": "uint256",
          "name": "",
          "type": "uint256"
        }
      ],
      "stateMutability": "view",
      "type": "function"
    },
    {
      "inputs": [],
      "name": "MIN_JURORS",
      "outputs": [
        {
          "internalType": "uint256",
          "name": "",
          "type": "uint256"
        }
      ],
      "stateMutability": "view",
      "type": "function"
    },
    {
      "inputs": [],
      "name": "NON_PAYABLE_AMOUNT",
      "outputs": [
        {
          "internalType": "uint256",
          "name": "",
          "type": "uint256"
        }
      ],
      "stateMutability": "view",
      "type": "function"
    },
    {
      "inputs": [],
      "name": "NULL_DISPUTE_KIT",
      "outputs": [
        {
          "internalType": "uint256",
          "name": "",
          "type": "uint256"
        }
      ],
      "stateMutability": "view",
      "type": "function"
    },
    {
      "inputs": [],
      "name": "SEARCH_ITERATIONS",
      "outputs": [
        {
          "internalType": "uint256",
          "name": "",
          "type": "uint256"
        }
      ],
      "stateMutability": "view",
      "type": "function"
    },
    {
      "inputs": [
        {
          "internalType": "contract IDisputeKit",
          "name": "_disputeKitAddress",
          "type": "address"
        },
        {
          "internalType": "uint256",
          "name": "_parent",
          "type": "uint256"
        }
      ],
      "name": "addNewDisputeKit",
      "outputs": [],
      "stateMutability": "nonpayable",
      "type": "function"
    },
    {
      "inputs": [
        {
          "internalType": "uint256",
          "name": "_disputeID",
          "type": "uint256"
        },
        {
          "internalType": "uint256",
          "name": "_numberOfChoices",
          "type": "uint256"
        },
        {
          "internalType": "bytes",
          "name": "_extraData",
          "type": "bytes"
        }
      ],
      "name": "appeal",
      "outputs": [],
      "stateMutability": "payable",
      "type": "function"
    },
    {
      "inputs": [
        {
          "internalType": "uint256",
          "name": "_disputeID",
          "type": "uint256"
        }
      ],
      "name": "appealCost",
      "outputs": [
        {
          "internalType": "uint256",
          "name": "cost",
          "type": "uint256"
        }
      ],
      "stateMutability": "view",
      "type": "function"
    },
    {
      "inputs": [
        {
          "internalType": "uint256",
          "name": "_disputeID",
          "type": "uint256"
        }
      ],
      "name": "appealPeriod",
      "outputs": [
        {
          "internalType": "uint256",
          "name": "start",
          "type": "uint256"
        },
        {
          "internalType": "uint256",
          "name": "end",
          "type": "uint256"
        }
      ],
      "stateMutability": "view",
      "type": "function"
    },
    {
      "inputs": [
        {
          "internalType": "bytes",
          "name": "_extraData",
          "type": "bytes"
        }
      ],
      "name": "arbitrationCost",
      "outputs": [
        {
          "internalType": "uint256",
          "name": "cost",
          "type": "uint256"
        }
      ],
      "stateMutability": "view",
      "type": "function"
    },
    {
      "inputs": [
        {
          "internalType": "uint256",
          "name": "_subcourtID",
          "type": "uint256"
        }
      ],
      "name": "areVotesHidden",
      "outputs": [
        {
          "internalType": "bool",
          "name": "hiddenVotes",
          "type": "bool"
        }
      ],
      "stateMutability": "view",
      "type": "function"
    },
    {
      "inputs": [
        {
          "internalType": "address payable",
          "name": "_governor",
          "type": "address"
        }
      ],
      "name": "changeGovernor",
      "outputs": [],
      "stateMutability": "nonpayable",
      "type": "function"
    },
    {
      "inputs": [
        {
          "internalType": "uint96",
          "name": "_subcourtID",
          "type": "uint96"
        },
        {
          "internalType": "bool",
          "name": "_hiddenVotes",
          "type": "bool"
        }
      ],
      "name": "changeHiddenVotes",
      "outputs": [],
      "stateMutability": "nonpayable",
      "type": "function"
    },
    {
      "inputs": [
        {
          "internalType": "address",
          "name": "_jurorProsecutionModule",
          "type": "address"
        }
      ],
      "name": "changeJurorProsecutionModule",
      "outputs": [],
      "stateMutability": "nonpayable",
      "type": "function"
    },
    {
      "inputs": [
        {
          "internalType": "uint256",
          "name": "_maxFreezingTime",
          "type": "uint256"
        }
      ],
      "name": "changeMaxFreezingTime",
      "outputs": [],
      "stateMutability": "nonpayable",
      "type": "function"
    },
    {
      "inputs": [
        {
          "internalType": "uint256",
          "name": "_minStakingTime",
          "type": "uint256"
        }
      ],
      "name": "changeMinStakingTime",
      "outputs": [],
      "stateMutability": "nonpayable",
      "type": "function"
    },
    {
      "inputs": [
        {
          "internalType": "contract IERC20",
          "name": "_pinakion",
          "type": "address"
        }
      ],
      "name": "changePinakion",
      "outputs": [],
      "stateMutability": "nonpayable",
      "type": "function"
    },
    {
      "inputs": [
        {
          "internalType": "uint96",
          "name": "_subcourtID",
          "type": "uint96"
        },
        {
          "internalType": "uint256",
          "name": "_alpha",
          "type": "uint256"
        }
      ],
      "name": "changeSubcourtAlpha",
      "outputs": [],
      "stateMutability": "nonpayable",
      "type": "function"
    },
    {
      "inputs": [
        {
          "internalType": "uint96",
          "name": "_subcourtID",
          "type": "uint96"
        },
        {
          "internalType": "uint256",
          "name": "_feeForJuror",
          "type": "uint256"
        }
      ],
      "name": "changeSubcourtJurorFee",
      "outputs": [],
      "stateMutability": "nonpayable",
      "type": "function"
    },
    {
      "inputs": [
        {
          "internalType": "uint96",
          "name": "_subcourtID",
          "type": "uint96"
        },
        {
          "internalType": "uint256",
          "name": "_jurorsForCourtJump",
          "type": "uint256"
        }
      ],
      "name": "changeSubcourtJurorsForJump",
      "outputs": [],
      "stateMutability": "nonpayable",
      "type": "function"
    },
    {
      "inputs": [
        {
          "internalType": "uint96",
          "name": "_subcourtID",
          "type": "uint96"
        },
        {
          "internalType": "uint256",
          "name": "_minStake",
          "type": "uint256"
        }
      ],
      "name": "changeSubcourtMinStake",
      "outputs": [],
      "stateMutability": "nonpayable",
      "type": "function"
    },
    {
      "inputs": [
        {
          "internalType": "uint96",
          "name": "_subcourtID",
          "type": "uint96"
        },
        {
          "internalType": "uint256[4]",
          "name": "_timesPerPeriod",
          "type": "uint256[4]"
        }
      ],
      "name": "changeSubcourtTimesPerPeriod",
      "outputs": [],
      "stateMutability": "nonpayable",
      "type": "function"
    },
    {
      "inputs": [
        {
          "internalType": "uint256",
          "name": "",
          "type": "uint256"
        }
      ],
      "name": "courts",
      "outputs": [
        {
          "internalType": "uint96",
          "name": "parent",
          "type": "uint96"
        },
        {
          "internalType": "bool",
          "name": "hiddenVotes",
          "type": "bool"
        },
        {
          "internalType": "uint256",
          "name": "minStake",
          "type": "uint256"
        },
        {
          "internalType": "uint256",
          "name": "alpha",
          "type": "uint256"
        },
        {
          "internalType": "uint256",
          "name": "feeForJuror",
          "type": "uint256"
        },
        {
          "internalType": "uint256",
          "name": "jurorsForCourtJump",
          "type": "uint256"
        }
      ],
      "stateMutability": "view",
      "type": "function"
    },
    {
      "inputs": [
        {
          "internalType": "uint256",
          "name": "_numberOfChoices",
          "type": "uint256"
        },
        {
          "internalType": "bytes",
          "name": "_extraData",
          "type": "bytes"
        }
      ],
      "name": "createDispute",
      "outputs": [
        {
          "internalType": "uint256",
          "name": "disputeID",
          "type": "uint256"
        }
      ],
      "stateMutability": "payable",
      "type": "function"
    },
    {
      "inputs": [
        {
          "internalType": "uint96",
          "name": "_parent",
          "type": "uint96"
        },
        {
          "internalType": "bool",
          "name": "_hiddenVotes",
          "type": "bool"
        },
        {
          "internalType": "uint256",
          "name": "_minStake",
          "type": "uint256"
        },
        {
          "internalType": "uint256",
          "name": "_alpha",
          "type": "uint256"
        },
        {
          "internalType": "uint256",
          "name": "_feeForJuror",
          "type": "uint256"
        },
        {
          "internalType": "uint256",
          "name": "_jurorsForCourtJump",
          "type": "uint256"
        },
        {
          "internalType": "uint256[4]",
          "name": "_timesPerPeriod",
          "type": "uint256[4]"
        },
        {
          "internalType": "uint256",
          "name": "_sortitionSumTreeK",
          "type": "uint256"
        },
        {
          "internalType": "uint256[]",
          "name": "_supportedDisputeKits",
          "type": "uint256[]"
        }
      ],
      "name": "createSubcourt",
      "outputs": [],
      "stateMutability": "nonpayable",
      "type": "function"
    },
    {
      "inputs": [
        {
          "internalType": "uint256",
          "name": "_disputeID",
          "type": "uint256"
        }
      ],
      "name": "currentRuling",
      "outputs": [
        {
          "internalType": "uint256",
          "name": "ruling",
          "type": "uint256"
        }
      ],
      "stateMutability": "view",
      "type": "function"
    },
    {
      "inputs": [],
      "name": "delayedStakeReadIndex",
      "outputs": [
        {
          "internalType": "uint256",
          "name": "",
          "type": "uint256"
        }
      ],
      "stateMutability": "view",
      "type": "function"
    },
    {
      "inputs": [],
      "name": "delayedStakeWriteIndex",
      "outputs": [
        {
          "internalType": "uint256",
          "name": "",
          "type": "uint256"
        }
      ],
      "stateMutability": "view",
      "type": "function"
    },
    {
      "inputs": [
        {
          "internalType": "uint256",
          "name": "",
          "type": "uint256"
        }
      ],
      "name": "delayedStakes",
      "outputs": [
        {
          "internalType": "address",
          "name": "account",
          "type": "address"
        },
        {
          "internalType": "uint96",
          "name": "subcourtID",
          "type": "uint96"
        },
        {
          "internalType": "uint256",
          "name": "stake",
          "type": "uint256"
        },
        {
          "internalType": "uint256",
          "name": "penalty",
          "type": "uint256"
        }
      ],
      "stateMutability": "view",
      "type": "function"
    },
    {
      "inputs": [
        {
          "internalType": "uint256",
          "name": "",
          "type": "uint256"
        }
      ],
      "name": "disputeKitNodes",
      "outputs": [
        {
          "internalType": "uint256",
          "name": "parent",
          "type": "uint256"
        },
        {
          "internalType": "contract IDisputeKit",
          "name": "disputeKit",
          "type": "address"
        },
        {
          "internalType": "bool",
          "name": "needsFreezing",
          "type": "bool"
        },
        {
          "internalType": "uint256",
          "name": "depthLevel",
          "type": "uint256"
        }
      ],
      "stateMutability": "view",
      "type": "function"
    },
    {
      "inputs": [
        {
          "internalType": "uint256",
          "name": "",
          "type": "uint256"
        }
      ],
      "name": "disputes",
      "outputs": [
        {
          "internalType": "uint96",
          "name": "subcourtID",
          "type": "uint96"
        },
        {
          "internalType": "contract IArbitrable",
          "name": "arbitrated",
          "type": "address"
        },
        {
          "internalType": "enum KlerosCore.Period",
          "name": "period",
          "type": "uint8"
        },
        {
          "internalType": "bool",
          "name": "ruled",
          "type": "bool"
        },
        {
          "internalType": "uint256",
          "name": "lastPeriodChange",
          "type": "uint256"
        }
      ],
      "stateMutability": "view",
      "type": "function"
    },
    {
      "inputs": [
        {
          "internalType": "uint256",
          "name": "",
          "type": "uint256"
        }
      ],
      "name": "disputesKitIDsThatNeedFreezing",
      "outputs": [
        {
          "internalType": "uint256",
          "name": "",
          "type": "uint256"
        }
      ],
      "stateMutability": "view",
      "type": "function"
    },
    {
      "inputs": [
        {
          "internalType": "uint256",
          "name": "_disputeID",
          "type": "uint256"
        },
        {
          "internalType": "uint256",
          "name": "_iterations",
          "type": "uint256"
        }
      ],
      "name": "draw",
      "outputs": [],
      "stateMutability": "nonpayable",
      "type": "function"
    },
    {
      "inputs": [
        {
          "internalType": "uint96",
          "name": "_subcourtID",
          "type": "uint96"
        },
        {
          "internalType": "uint256[]",
          "name": "_disputeKitIDs",
          "type": "uint256[]"
        },
        {
          "internalType": "bool",
          "name": "_enable",
          "type": "bool"
        }
      ],
      "name": "enableDisputeKits",
      "outputs": [],
      "stateMutability": "nonpayable",
      "type": "function"
    },
    {
      "inputs": [
        {
          "internalType": "uint256",
          "name": "_disputeID",
          "type": "uint256"
        },
        {
          "internalType": "uint256",
          "name": "_round",
          "type": "uint256"
        },
        {
          "internalType": "uint256",
          "name": "_iterations",
          "type": "uint256"
        }
      ],
      "name": "execute",
      "outputs": [],
      "stateMutability": "nonpayable",
      "type": "function"
    },
    {
      "inputs": [
        {
          "internalType": "uint256",
          "name": "_iterations",
          "type": "uint256"
        }
      ],
      "name": "executeDelayedStakes",
      "outputs": [],
      "stateMutability": "nonpayable",
      "type": "function"
    },
    {
      "inputs": [
        {
          "internalType": "address",
          "name": "_destination",
          "type": "address"
        },
        {
          "internalType": "uint256",
          "name": "_amount",
          "type": "uint256"
        },
        {
          "internalType": "bytes",
          "name": "_data",
          "type": "bytes"
        }
      ],
      "name": "executeGovernorProposal",
      "outputs": [],
      "stateMutability": "nonpayable",
      "type": "function"
    },
    {
      "inputs": [
        {
          "internalType": "uint256",
          "name": "_disputeID",
          "type": "uint256"
        }
      ],
      "name": "executeRuling",
      "outputs": [],
      "stateMutability": "nonpayable",
      "type": "function"
    },
    {
      "inputs": [],
      "name": "freezeBlock",
      "outputs": [
        {
          "internalType": "uint256",
          "name": "",
          "type": "uint256"
        }
      ],
      "stateMutability": "view",
      "type": "function"
    },
    {
      "inputs": [],
      "name": "freezingPhaseTimeout",
      "outputs": [
        {
          "internalType": "bool",
          "name": "",
          "type": "bool"
        }
      ],
      "stateMutability": "view",
      "type": "function"
    },
    {
      "inputs": [
        {
          "internalType": "uint256",
          "name": "_disputeID",
          "type": "uint256"
        }
      ],
      "name": "getCurrentPeriod",
      "outputs": [
        {
          "internalType": "enum KlerosCore.Period",
          "name": "period",
          "type": "uint8"
        }
      ],
      "stateMutability": "view",
      "type": "function"
    },
    {
      "inputs": [
        {
          "internalType": "uint256",
          "name": "_disputeKitID",
          "type": "uint256"
        }
      ],
      "name": "getDisputeKitChildren",
      "outputs": [
        {
          "internalType": "uint256[]",
          "name": "",
          "type": "uint256[]"
        }
      ],
      "stateMutability": "view",
      "type": "function"
    },
    {
      "inputs": [],
      "name": "getDisputeKitNodesLength",
      "outputs": [
        {
          "internalType": "uint256",
          "name": "",
          "type": "uint256"
        }
      ],
      "stateMutability": "view",
      "type": "function"
    },
    {
      "inputs": [],
      "name": "getDisputesKitIDsThatNeedFreezing",
      "outputs": [
        {
          "internalType": "uint256[]",
          "name": "",
          "type": "uint256[]"
        }
      ],
      "stateMutability": "view",
      "type": "function"
    },
    {
      "inputs": [],
      "name": "getFreezeBlock",
      "outputs": [
        {
          "internalType": "uint256",
          "name": "",
          "type": "uint256"
        }
      ],
      "stateMutability": "view",
      "type": "function"
    },
    {
      "inputs": [
        {
          "internalType": "address",
          "name": "_juror",
          "type": "address"
        },
        {
          "internalType": "uint96",
          "name": "_subcourtID",
          "type": "uint96"
        }
      ],
      "name": "getJurorBalance",
      "outputs": [
        {
          "internalType": "uint256",
          "name": "staked",
          "type": "uint256"
        },
        {
          "internalType": "uint256",
          "name": "locked",
          "type": "uint256"
        }
      ],
      "stateMutability": "view",
      "type": "function"
    },
    {
      "inputs": [
        {
          "internalType": "uint256",
          "name": "_disputeID",
          "type": "uint256"
        }
      ],
      "name": "getLastRoundResult",
      "outputs": [
        {
          "internalType": "uint256",
          "name": "winningChoice",
          "type": "uint256"
        },
        {
          "internalType": "bool",
          "name": "tied",
          "type": "bool"
        }
      ],
      "stateMutability": "view",
      "type": "function"
    },
    {
      "inputs": [
        {
          "internalType": "uint256",
          "name": "_disputeID",
          "type": "uint256"
        }
      ],
      "name": "getNumberOfRounds",
      "outputs": [
        {
          "internalType": "uint256",
          "name": "",
          "type": "uint256"
        }
      ],
      "stateMutability": "view",
      "type": "function"
    },
    {
      "inputs": [
        {
          "internalType": "uint256",
          "name": "_disputeID",
          "type": "uint256"
        }
      ],
      "name": "getNumberOfVotes",
      "outputs": [
        {
          "internalType": "uint256",
          "name": "",
          "type": "uint256"
        }
      ],
      "stateMutability": "view",
      "type": "function"
    },
    {
      "inputs": [
        {
          "internalType": "uint256",
          "name": "_disputeID",
          "type": "uint256"
        },
        {
          "internalType": "uint256",
          "name": "_round",
          "type": "uint256"
        }
      ],
      "name": "getRoundInfo",
      "outputs": [
        {
          "internalType": "uint256",
          "name": "tokensAtStakePerJuror",
          "type": "uint256"
        },
        {
          "internalType": "uint256",
          "name": "totalFeesForJurors",
          "type": "uint256"
        },
        {
          "internalType": "uint256",
          "name": "repartitions",
          "type": "uint256"
        },
        {
          "internalType": "uint256",
          "name": "penalties",
          "type": "uint256"
        },
        {
          "internalType": "address[]",
          "name": "drawnJurors",
          "type": "address[]"
        },
        {
          "internalType": "uint256",
          "name": "disputeKitID",
          "type": "uint256"
        }
      ],
      "stateMutability": "view",
      "type": "function"
    },
    {
      "inputs": [
        {
          "internalType": "bytes32",
          "name": "_key",
          "type": "bytes32"
        }
      ],
      "name": "getSortitionSumTree",
      "outputs": [
        {
          "internalType": "uint256",
          "name": "K",
          "type": "uint256"
        },
        {
          "internalType": "uint256[]",
          "name": "stack",
          "type": "uint256[]"
        },
        {
          "internalType": "uint256[]",
          "name": "nodes",
          "type": "uint256[]"
        }
      ],
      "stateMutability": "view",
      "type": "function"
    },
    {
      "inputs": [
        {
          "internalType": "bytes32",
          "name": "_key",
          "type": "bytes32"
        },
        {
          "internalType": "uint256",
          "name": "_nodeIndex",
          "type": "uint256"
        }
      ],
      "name": "getSortitionSumTreeID",
      "outputs": [
        {
          "internalType": "bytes32",
          "name": "ID",
          "type": "bytes32"
        }
      ],
      "stateMutability": "view",
      "type": "function"
    },
    {
      "inputs": [
        {
          "internalType": "uint256",
          "name": "_disputeID",
          "type": "uint256"
        }
      ],
      "name": "getSubcourtID",
      "outputs": [
        {
          "internalType": "uint256",
          "name": "subcourtID",
          "type": "uint256"
        }
      ],
      "stateMutability": "view",
      "type": "function"
    },
    {
      "inputs": [
        {
          "internalType": "uint96",
          "name": "_subcourtID",
          "type": "uint96"
        }
      ],
      "name": "getTimesPerPeriod",
      "outputs": [
        {
          "internalType": "uint256[4]",
          "name": "timesPerPeriod",
          "type": "uint256[4]"
        }
      ],
      "stateMutability": "view",
      "type": "function"
    },
    {
      "inputs": [],
      "name": "governor",
      "outputs": [
        {
          "internalType": "address",
          "name": "",
          "type": "address"
        }
      ],
      "stateMutability": "view",
      "type": "function"
    },
    {
      "inputs": [
        {
          "internalType": "uint256",
          "name": "_disputeID",
          "type": "uint256"
        }
      ],
      "name": "isDisputeKitJumping",
      "outputs": [
        {
          "internalType": "bool",
          "name": "",
          "type": "bool"
        }
      ],
      "stateMutability": "view",
      "type": "function"
    },
    {
      "inputs": [
        {
          "internalType": "uint256",
          "name": "_disputeID",
          "type": "uint256"
        }
      ],
      "name": "isRuled",
      "outputs": [
        {
          "internalType": "bool",
          "name": "",
          "type": "bool"
        }
      ],
      "stateMutability": "view",
      "type": "function"
    },
    {
      "inputs": [
        {
          "internalType": "uint96",
          "name": "_subcourtID",
          "type": "uint96"
        },
        {
          "internalType": "uint256",
          "name": "_disputeKitID",
          "type": "uint256"
        }
      ],
      "name": "isSupported",
      "outputs": [
        {
          "internalType": "bool",
          "name": "",
          "type": "bool"
        }
      ],
      "stateMutability": "view",
      "type": "function"
    },
    {
      "inputs": [],
      "name": "jurorProsecutionModule",
      "outputs": [
        {
          "internalType": "address",
          "name": "",
          "type": "address"
        }
      ],
      "stateMutability": "view",
      "type": "function"
    },
    {
      "inputs": [],
      "name": "lastPhaseChange",
      "outputs": [
        {
          "internalType": "uint256",
          "name": "",
          "type": "uint256"
        }
      ],
      "stateMutability": "view",
      "type": "function"
    },
    {
      "inputs": [],
      "name": "maxFreezingTime",
      "outputs": [
        {
          "internalType": "uint256",
          "name": "",
          "type": "uint256"
        }
      ],
      "stateMutability": "view",
      "type": "function"
    },
    {
      "inputs": [],
      "name": "minStakingTime",
      "outputs": [
        {
          "internalType": "uint256",
          "name": "",
          "type": "uint256"
        }
      ],
      "stateMutability": "view",
      "type": "function"
    },
    {
      "inputs": [
        {
          "internalType": "uint256",
          "name": "_disputeID",
          "type": "uint256"
        }
      ],
      "name": "passPeriod",
      "outputs": [],
      "stateMutability": "nonpayable",
      "type": "function"
    },
    {
      "inputs": [],
      "name": "passPhase",
      "outputs": [],
      "stateMutability": "nonpayable",
      "type": "function"
    },
    {
      "inputs": [],
      "name": "phase",
      "outputs": [
        {
          "internalType": "enum KlerosCore.Phase",
          "name": "",
          "type": "uint8"
        }
      ],
      "stateMutability": "view",
      "type": "function"
    },
    {
      "inputs": [],
      "name": "pinakion",
      "outputs": [
        {
          "internalType": "contract IERC20",
          "name": "",
          "type": "address"
        }
      ],
      "stateMutability": "view",
      "type": "function"
    },
    {
      "inputs": [
        {
          "internalType": "uint96",
          "name": "_subcourtID",
          "type": "uint96"
        },
        {
          "internalType": "uint256",
          "name": "_stake",
          "type": "uint256"
        }
      ],
      "name": "setStake",
      "outputs": [],
      "stateMutability": "nonpayable",
      "type": "function"
    }
  ],
  "transactionHash": "0x57aed93a8d9fbec89bc05126a284b9233a438ae6e58394b8352cc7bcd72b38a4",
  "args": [
    "0xF50E77f2A2B6138D16c6c7511562E5C33c4B15A3",
    "0x364530164a2338cdba211f72c1438eb811b5c639",
    "0x0000000000000000000000000000000000000000",
    "0xB56A23b396E0eae85414Ce5815da448ba529Cb4A",
    [
      120,
      120
    ],
    false,
    [
      "200000000000000000000",
      10000,
      "100000000000000000",
      3
    ],
    [
      0,
      0,
      0,
      0
    ],
    3
  ],
  "numDeployments": 2,
  "solcInputHash": "616289cb330588ad7bb3701a8ab48290",
  "bytecode": "0x60806040526001600f553480156200001657600080fd5b506040516200678238038062006782833981016040819052620000399162000459565b600080546001600160a01b038b81166001600160a01b0319928316178355600180548c8316908416178155600280548c84169416939093178355600880546040805160a081018252878152815188815260208082018452808301918252968f1692820192909252606081018890526080810188905295820183559190955283517ff3f7a9fe364faab93b216da50a3214154f22a0a2b415b23a84c8169e8b636ee3959092016004029485019182555180519394919362000123937ff3f7a9fe364faab93b216da50a3214154f22a0a2b415b23a84c8169e8b636ee4909301929190910190620002de565b5060408281015160028301805460608601511515600160a01b026001600160a81b03199091166001600160a01b03909316929092179190911790556080909201516003918201558651905560208087015160045542600555600780546001810182556000918252600b027fa66cc928b5edb82af9bd49922954155ab7b0942694bea4ce44661d9a8736c6880180546001600160601b03191681558351828152928301909352508051620001e1916001840191602090910190620002de565b50805460ff60601b19166c010000000000000000000000008615150217815583516002820155602084015160038201556040840151600480830191909155606085015160058301556200023b90600683019085906200032e565b5060016000818152600a83016020526040808220805460ff1916909317909255905163483abc4f60e11b8152600c60048201526024810191909152604481018390527316f20604a51Ac1e68c9aAd1C0E53e951B62CC1Cb90639075789e9060640160006040518083038186803b158015620002b557600080fd5b505af4158015620002ca573d6000803e3d6000fd5b50505050505050505050505050506200055b565b8280548282559060005260206000209081019282156200031c579160200282015b828111156200031c578251825591602001919060010190620002ff565b506200032a9291506200035e565b5090565b82600481019282156200031c57916020028201828111156200031c578251825591602001919060010190620002ff565b5b808211156200032a57600081556001016200035f565b6001600160a01b03811681146200038b57600080fd5b50565b634e487b7160e01b600052604160045260246000fd5b604080519081016001600160401b0381118282101715620003c957620003c96200038e565b60405290565b80518015158114620003e057600080fd5b919050565b600082601f830112620003f757600080fd5b604051608081016001600160401b03811182821017156200041c576200041c6200038e565b6040528060808401858111156200043257600080fd5b845b818110156200044e57805183526020928301920162000434565b509195945050505050565b60008060008060008060008060006102008a8c0312156200047957600080fd5b8951620004868162000375565b809950506020808b01516200049b8162000375565b60408c0151909950620004ae8162000375565b60608c0151909850620004c18162000375565b9650609f8b018c13620004d357600080fd5b620004dd620003a4565b8060c08d018e811115620004f057600080fd5b60808e015b818110156200050e5780518452928401928401620004f5565b508198506200051d81620003cf565b975050505050620005328b60e08c01620003e5565b9250620005448b6101608c01620003e5565b91506101e08a015190509295985092959850929598565b616217806200056b6000396000f3fe6080604052600436106104045760003560e01c80638a9bb02a11610213578063cf0c38f811610123578063f12ada8b116100ab578063f8bdb57b1161007a578063f8bdb57b14610d36578063fa41488014610d56578063fbf405b014610d6b578063fc6f8f1614610d8b578063fe524c3914610dab57600080fd5b8063f12ada8b14610c4d578063f6a6ef7a14610c6d578063f6b4d82d14610c8d578063f7434ea914610d1657600080fd5b8063d578cbac116100f2578063d578cbac14610ba7578063d8b03fd814610bc7578063de1a1e5914610bdc578063e4c0aaf414610c18578063eaff425a14610c3857600080fd5b8063cf0c38f814610adb578063d1c1df4814610afb578063d2b8035a14610b58578063d2d514e014610b7857600080fd5b8063b31b4540116101a6578063c057eca711610175578063c057eca714610a5f578063c13517e114610a75578063c258bb1914610a88578063c356990214610aa8578063c71f425314610abb57600080fd5b8063b31b454014610a09578063b4a6160814610a1f578063b70c4e9414610a34578063b888adfa14610a4957600080fd5b8063a57366e7116101e2578063a57366e714610966578063afe15cfb14610986578063b1c9fe6e146109bb578063b2866af7146109e957600080fd5b80638a9bb02a146108bf5780638bb04875146108f15780638edf4741146109115780639b05c2611461093157600080fd5b80633a1578601161031957806359ec827e116102a15780636c1eb1b9116102705780636c1eb1b91461082f578063751accd0146108445780637717a6e814610864578063823cfd7014610884578063840bc19c146108a457600080fd5b806359ec827e146107da5780635bc24dd3146107fa5780635ea5c0381461081a5780636235593f1461061857600080fd5b80634b7fcda2116102e85780634b7fcda214610733578063564a565d1461075357806356acb05014610784578063572603641461079a57806359354c77146107ba57600080fd5b80633a157860146106a35780633cfd1184146106b95780633e1d09be146106e657806343d4137f1461070657600080fd5b80631c3db16d1161039c57806327e6ec8a1161036b57806327e6ec8a146106185780632b6a63f11461062d5780632d29a47b1461064d5780632ea7b4d01461066d57806335975f4a1461068357600080fd5b80631c3db16d1461055f5780631f5a0dd21461057f5780632256aaf3146105d657806322684db0146105eb57600080fd5b80630d1b9d1a116103d85780630d1b9d1a1461049d5780630e083ec9146104eb578063115d53761461050f57806319b815291461052f57600080fd5b8062f5822c146104095780630b274f2e1461042b5780630b7414bc146104405780630c340a2414610460575b600080fd5b34801561041557600080fd5b506104296104243660046157c1565b610dcb565b005b34801561043757600080fd5b50610429610e20565b34801561044c57600080fd5b5061042961045b3660046158d6565b6113de565b34801561046c57600080fd5b50600054610480906001600160a01b031681565b6040516001600160a01b0390911681526020015b60405180910390f35b3480156104a957600080fd5b506104bd6104b8366004615938565b611634565b604080519485526001600160a01b039093166020850152901515918301919091526060820152608001610494565b3480156104f757600080fd5b50610501600e5481565b604051908152602001610494565b34801561051b57600080fd5b5061042961052a366004615938565b61167d565b34801561053b57600080fd5b5061054f61054a366004615938565b611d85565b6040519015158152602001610494565b34801561056b57600080fd5b5061050161057a366004615938565b611e7c565b34801561058b57600080fd5b5061059f61059a366004615938565b611f87565b604080516001600160601b0390971687529415156020870152938501929092526060840152608083015260a082015260c001610494565b3480156105e257600080fd5b50610501600181565b3480156105f757600080fd5b5061060b610606366004615938565b611fde565b604051610494919061597b565b34801561062457600080fd5b50610501600081565b34801561063957600080fd5b506104296106483660046159f7565b612010565b34801561065957600080fd5b50610429610668366004615a9b565b61239b565b34801561067957600080fd5b5061050161271081565b34801561068f57600080fd5b5061042961069e366004615938565b612dbb565b3480156106af57600080fd5b5061050160065481565b3480156106c557600080fd5b506106d96106d4366004615ac7565b612f06565b6040516104949190615ae2565b3480156106f257600080fd5b50610429610701366004615b13565b612f77565b34801561071257600080fd5b50610726610721366004615938565b613192565b6040516104949190615b78565b34801561073f57600080fd5b5061054f61074e366004615938565b61320e565b34801561075f57600080fd5b5061077361076e366004615938565b613245565b604051610494959493929190615b8b565b34801561079057600080fd5b50610501600f5481565b3480156107a657600080fd5b506104296107b5366004615bca565b6132a1565b3480156107c657600080fd5b506104296107d5366004615b13565b61330c565b3480156107e657600080fd5b506105016107f5366004615938565b61336c565b34801561080657600080fd5b50610429610815366004615b13565b6134b8565b34801561082657600080fd5b50600854610501565b34801561083b57600080fd5b50610501600a81565b34801561085057600080fd5b5061042961085f366004615c6e565b613518565b34801561087057600080fd5b5061042961087f366004615b13565b6135ea565b34801561089057600080fd5b5061042961089f366004615938565b613638565b3480156108b057600080fd5b506105016001600160ff1b0381565b3480156108cb57600080fd5b506108df6108da366004615cc7565b613667565b60405161049496959493929190615ce9565b3480156108fd57600080fd5b5061042961090c366004615938565b61374d565b34801561091d57600080fd5b5061050161092c366004615938565b6138c2565b34801561093d57600080fd5b5061095161094c366004615938565b6138e3565b60408051928352901515602083015201610494565b34801561097257600080fd5b50610429610981366004615b13565b6139ed565b34801561099257600080fd5b506109a66109a1366004615938565b613a4d565b60408051928352602083019190915201610494565b3480156109c757600080fd5b506002546109dc90600160a01b900460ff1681565b6040516104949190615d5e565b3480156109f557600080fd5b50610429610a04366004615938565b613afa565b348015610a1557600080fd5b5061050160045481565b348015610a2b57600080fd5b50610501600481565b348015610a4057600080fd5b5061054f613b29565b348015610a5557600080fd5b5061050160055481565b348015610a6b57600080fd5b5061050160035481565b610501610a83366004615d78565b613b6b565b348015610a9457600080fd5b50610429610aa33660046157c1565b613f19565b610429610ab6366004615dbf565b613f65565b348015610ac757600080fd5b50610501610ad6366004615938565b614616565b348015610ae757600080fd5b50600254610480906001600160a01b031681565b348015610b0757600080fd5b506109a6610b16366004615df9565b6001600160a01b039091166000908152600b602090815260408083206001600160601b0390941683526001840182528083205460029094019091529020549091565b348015610b6457600080fd5b50610429610b73366004615cc7565b61467e565b348015610b8457600080fd5b50610b98610b93366004615938565b61497f565b60405161049493929190615e25565b348015610bb357600080fd5b5061054f610bc2366004615938565b614a47565b348015610bd357600080fd5b50610726614a7d565b348015610be857600080fd5b50610501610bf7366004615cc7565b6000918252600c602090815260408084209284526004909201905290205490565b348015610c2457600080fd5b50610429610c333660046157c1565b614ad5565b348015610c4457600080fd5b50610501600381565b348015610c5957600080fd5b50610429610c68366004615e5a565b614b21565b348015610c7957600080fd5b50610501610c88366004615938565b614d95565b348015610c9957600080fd5b50610ce4610ca8366004615938565b600d602052600090815260409020805460018201546002909201546001600160a01b03821692600160a01b9092046001600160601b0316919084565b604080516001600160a01b0390951685526001600160601b039093166020850152918301526060820152608001610494565b348015610d2257600080fd5b50610501610d31366004615e78565b614dca565b348015610d4257600080fd5b50610429610d51366004615ead565b614e1e565b348015610d6257600080fd5b50600654610501565b348015610d7757600080fd5b50600154610480906001600160a01b031681565b348015610d9757600080fd5b50610501610da6366004615938565b614e93565b348015610db757600080fd5b5061054f610dc6366004615b13565b614ec4565b6000546001600160a01b03163314610dfe5760405162461bcd60e51b8152600401610df590615ee4565b60405180910390fd5b600180546001600160a01b0319166001600160a01b0392909216919091179055565b6000600254600160a01b900460ff166001811115610e4057610e40615951565b1415610f3857600354600554610e569042615f3c565b1015610eb85760405162461bcd60e51b815260206004820152602b60248201527f546865206d696e696d616c207374616b696e672074696d6520686173206e6f7460448201526a081c185cdcd959081e595d60aa1b6064820152608401610df5565b600954610f1c5760405162461bcd60e51b815260206004820152602c60248201527f546865726520617265206e6f2064697370757465206b6974207768696368206e60448201526b65656420667265657a696e6760a01b6064820152608401610df5565b6002805460ff60a01b1916600160a01b17905543600655611393565b6000306001600160a01b031663b70c4e946040518163ffffffff1660e01b815260040160206040518083038186803b158015610f7357600080fd5b505afa158015610f87573d6000803e3d6000fd5b505050506040513d601f19601f82011682018060405250810190610fab9190615f53565b600954909150600090610fc090600190615f70565b90505b6000811261138357600060098281548110610fe057610fe0615faf565b90600052602060002001549050600060086009848154811061100457611004615faf565b90600052602060002001548154811061101f5761101f615faf565b60009182526020909120600260049092020101546001600160a01b031690508380156110b95750806001600160a01b031663c86ed8926040518163ffffffff1660e01b815260040160206040518083038186803b15801561107f57600080fd5b505afa158015611093573d6000803e3d6000fd5b505050506040513d601f19601f820116820180604052508101906110b79190615f53565b155b156111a357806001600160a01b0316630b274f2e6040518163ffffffff1660e01b8152600401600060405180830381600087803b1580156110f957600080fd5b505af115801561110d573d6000803e3d6000fd5b50505050806001600160a01b031663c86ed8926040518163ffffffff1660e01b815260040160206040518083038186803b15801561114a57600080fd5b505afa15801561115e573d6000803e3d6000fd5b505050506040513d601f19601f820116820180604052508101906111829190615f53565b61119e5760405162461bcd60e51b8152600401610df590615fc5565b611370565b806001600160a01b031663c86ed8926040518163ffffffff1660e01b815260040160206040518083038186803b1580156111dc57600080fd5b505afa1580156111f0573d6000803e3d6000fd5b505050506040513d601f19601f820116820180604052508101906112149190615f53565b6112305760405162461bcd60e51b8152600401610df590615fc5565b806001600160a01b031663034327446040518163ffffffff1660e01b815260040160206040518083038186803b15801561126957600080fd5b505afa15801561127d573d6000803e3d6000fd5b505050506040513d601f19601f820116820180604052508101906112a19190616014565b611370576000600883815481106112ba576112ba615faf565b600091825260209091206002600490920201018054911515600160a01b0260ff60a01b199092169190911790556009546112f690600190615f70565b831215611348576009805461130d90600190615f3c565b8154811061131d5761131d615faf565b90600052602060002001546009848154811061133b5761133b615faf565b6000918252602090912001555b60098054806113595761135961602d565b600190038181906000526020600020016000905590555b50508061137c90616043565b9050610fc3565b50506002805460ff60a01b191690555b426005556002546040517f31f72b44f546d9e7eaec13f65636997665e15f134a81c82924f568f5c0d07b93916113d491600160a01b90910460ff1690615d5e565b60405180910390a1565b6000546001600160a01b031633146114085760405162461bcd60e51b8152600401610df590615ee4565b60006007846001600160601b03168154811061142657611426615faf565b90600052602060002090600b0201905060005b835181101561162d57821561151657600084828151811061145c5761145c615faf565b602002602001015111801561148d5750600854845185908390811061148357611483615faf565b6020026020010151105b6114ca5760405162461bcd60e51b815260206004820152600e60248201526d0aee4dedcce40889640d2dcc8caf60931b6044820152606401610df5565b600182600a0160008684815181106114e4576114e4615faf565b6020026020010151815260200190815260200160002060006101000a81548160ff02191690831515021790555061161b565b6001600160601b03851615801561156a57506000600885838151811061153e5761153e615faf565b60200260200101518154811061155657611556615faf565b906000526020600020906004020160000154145b156115d35760405162461bcd60e51b815260206004820152603360248201527f43616e27742072656d6f766520726f6f7420444b20737570706f72742066726f6044820152721b481d1a1948199bdc9ada5b99c818dbdd5c9d606a1b6064820152608401610df5565b600082600a0160008684815181106115ed576115ed615faf565b6020026020010151815260200190815260200160002060006101000a81548160ff0219169083151502179055505b8061162581616061565b915050611439565b5050505050565b6008818154811061164457600080fd5b60009182526020909120600490910201805460028201546003909201549092506001600160a01b03821691600160a01b900460ff169084565b6000600a828154811061169257611692615faf565b600091825260208220600490910201805460078054929450916001600160601b039091169081106116c5576116c5615faf565b6000918252602082206003850154600b9092020192506116e790600190615f3c565b9050600083600301828154811061170057611700615faf565b6000918252602082206007909102019150600185015460ff16600481111561172a5761172a615951565b14156118ab57600082118061177c57506001840154600684019060ff16600481111561175857611758615951565b6004811061176857611768615faf565b015460028501546117799042615f3c565b10155b6117fc5760405162461bcd60e51b8152602060048201526044602482018190527f5468652065766964656e636520706572696f642074696d6520686173206e6f74908201527f207061737365642079657420616e64206974206973206e6f7420616e2061707060648201526332b0b61760e11b608482015260a401610df5565b60038101546006820154146118655760405162461bcd60e51b815260206004820152602960248201527f546865206469737075746520686173206e6f742066696e6973686564206472616044820152683bb4b733903cb2ba1760b91b6064820152608401610df5565b8254600160601b900460ff1661187c57600261187f565b60015b60018086018054909160ff19909116908360048111156118a1576118a1615951565b0217905550611d37565b60018085015460ff1660048111156118c5576118c5615951565b1415611a29576001840154600684019060ff1660048111156118e9576118e9615951565b600481106118f9576118f9615faf565b0154600285015461190a9042615f3c565b1015806119b35750600881600001548154811061192957611929615faf565b6000918252602090912060049182020160020154604051630baa64d160e01b81529182018790526001600160a01b031690630baa64d19060240160206040518083038186803b15801561197b57600080fd5b505afa15801561198f573d6000803e3d6000fd5b505050506040513d601f19601f820116820180604052508101906119b39190615f53565b611a125760405162461bcd60e51b815260206004820152602a60248201527f54686520636f6d6d697420706572696f642074696d6520686173206e6f74207060448201526930b9b9b2b2103cb2ba1760b11b6064820152608401610df5565b6001808501805460029260ff1990911690836118a1565b6002600185015460ff166004811115611a4457611a44615951565b1415611be3576001840154600684019060ff166004811115611a6857611a68615951565b60048110611a7857611a78615faf565b01546002850154611a899042615f3c565b101580611b3257506008816000015481548110611aa857611aa8615faf565b60009182526020909120600491820201600201546040516336a66c7560e11b81529182018790526001600160a01b031690636d4cd8ea9060240160206040518083038186803b158015611afa57600080fd5b505afa158015611b0e573d6000803e3d6000fd5b505050506040513d601f19601f82011682018060405250810190611b329190615f53565b611b8e5760405162461bcd60e51b815260206004820152602760248201527f54686520766f746520706572696f642074696d6520686173206e6f74207061736044820152661cd959081e595d60ca1b6064820152608401610df5565b600184018054600360ff199091161790558354604051600160601b9091046001600160a01b03169086907fa5d41b970d849372be1da1481ffd78d162bfe57a7aa2fe4e5fb73481fa5ac24f90600090a3611d37565b6003600185015460ff166004811115611bfe57611bfe615951565b1415611cbb576001840154600684019060ff166004811115611c2257611c22615951565b60048110611c3257611c32615faf565b01546002850154611c439042615f3c565b1015611ca45760405162461bcd60e51b815260206004820152602a60248201527f5468652061707065616c20706572696f642074696d6520686173206e6f74207060448201526930b9b9b2b2103cb2ba1760b11b6064820152608401610df5565b6001808501805460049260ff1990911690836118a1565b6004600185015460ff166004811115611cd657611cd6615951565b1415611d375760405162461bcd60e51b815260206004820152602a60248201527f546865206469737075746520697320616c726561647920696e20746865206c6160448201526939ba103832b934b7b21760b11b6064820152608401610df5565b426002850155600184015460405186917f4e6f5cf43b95303e86aee81683df63992061723a829ee012db21dad388756b9191611d769160ff169061597b565b60405180910390a25050505050565b600080600a8381548110611d9b57611d9b615faf565b6000918252602082206003600490920201908101805491935090611dc190600190615f3c565b81548110611dd157611dd1615faf565b600091825260208220845460078054938102909201945090916001600160601b03909116908110611e0457611e04615faf565b90600052602060002090600b02019050806005015482600301541015611e2f57506000949350505050565b80546007805490916001600160601b0316908110611e4f57611e4f615faf565b6000918252602080832094548352600a600b9092029094010190925250604090205460ff16159392505050565b600080600a8381548110611e9257611e92615faf565b6000918252602082206003600490920201908101805491935090611eb890600190615f3c565b81548110611ec857611ec8615faf565b9060005260206000209060070201905060006008826000015481548110611ef157611ef1615faf565b6000918252602090912060049182020160020154604051631c3db16d60e01b81529182018790526001600160a01b031691508190631c3db16d9060240160206040518083038186803b158015611f4657600080fd5b505afa158015611f5a573d6000803e3d6000fd5b505050506040513d601f19601f82011682018060405250810190611f7e9190616014565b95945050505050565b60078181548110611f9757600080fd5b60009182526020909120600b9091020180546002820154600383015460048401546005909401546001600160601b0384169550600160601b90930460ff1693919290919086565b6000600a8281548110611ff357611ff3615faf565b600091825260209091206001600490920201015460ff1692915050565b6000546001600160a01b0316331461203a5760405162461bcd60e51b8152600401610df590615ee4565b8660078a6001600160601b03168154811061205757612057615faf565b90600052602060002090600b02016002015411156120ed5760405162461bcd60e51b815260206004820152604760248201527f4120737562636f7572742063616e6e6f742062652061206368696c64206f662060448201527f6120737562636f7572742077697468206120686967686572206d696e696d756d6064820152661039ba30b5b29760c91b608482015260a401610df5565b600081511161213e5760405162461bcd60e51b815260206004820152601c60248201527f4d75737420737570706f7274206174206c65617374206f6e6520444b000000006044820152606401610df5565b60078054600181018255600091825290600b82027fa66cc928b5edb82af9bd49922954155ab7b0942694bea4ce44661d9a8736c68801905b835181101561225b57600084828151811061219357612193615faf565b60200260200101511180156121c4575060085484518590839081106121ba576121ba615faf565b6020026020010151105b6122015760405162461bcd60e51b815260206004820152600e60248201526d0aee4dedcce40889640d2dcc8caf60931b6044820152606401610df5565b600182600a01600086848151811061221b5761221b615faf565b6020026020010151815260200190815260200160002060006101000a81548160ff021916908315150217905550808061225390616061565b915050612176565b5080546bffffffffffffffffffffffff19166001600160601b038c1617815560408051600081526020810191829052516122999160018401916156fe565b50805460ff60601b1916600160601b8b15150217815560028101899055600381018890556004808201889055600582018790556122dc9060068301908790615749565b5060405163483abc4f60e11b8152600c600482015260248101839052604481018590527316f20604a51Ac1e68c9aAd1C0E53e951B62CC1Cb90639075789e9060640160006040518083038186803b15801561233657600080fd5b505af415801561234a573d6000803e3d6000fd5b5050505060078b6001600160601b03168154811061236a5761236a615faf565b600091825260208083206001600b909302018201805492830181558352909120019190915550505050505050505050565b6000600a84815481106123b0576123b0615faf565b600091825260209091206004918202019150600182015460ff1660048111156123db576123db615951565b146124285760405162461bcd60e51b815260206004820152601b60248201527f53686f756c6420626520657865637574696f6e20706572696f642e00000000006044820152606401610df5565b600081600301848154811061243f5761243f615faf565b906000526020600020906007020190506000600882600001548154811061246857612468615faf565b60009182526020822060049182020160020154908401546001600160a01b03909116925061249790869061607c565b6005840154600685015460405163368efae360e21b8152600481018b9052602481018a905292935090916000906001600160a01b0386169063da3beb8c9060440160206040518083038186803b1580156124f057600080fd5b505afa158015612504573d6000803e3d6000fd5b505050506040513d601f19601f820116820180604052508101906125289190616014565b905060008082612543578386111561253e578395505b612563565b61254e846002616094565b86111561256357612560846002616094565b95505b60048801545b86811015612d955784811015612a1257604051634fe264fb60e01b8152600481018e9052602481018d9052604481018290526001600160a01b03891690634fe264fb9060640160206040518083038186803b1580156125c757600080fd5b505afa1580156125db573d6000803e3d6000fd5b505050506040513d601f19601f820116820180604052508101906125ff9190616014565b91506127108211156126115761271091505b60006127106126208482615f3c565b8b6001015461262f9190616094565b61263991906160c9565b9050612645818861607c565b965089600601828154811061265c5761265c615faf565b60009182526020808320909101546001600160a01b0316808352600b825260408084208f546001600160601b031685526002019092529082208054919650839290916126a9908490615f3c565b90915550508a546007805483926001600160601b03169081106126ce576126ce615faf565b90600052602060002090600b0201600201546126ea919061607c565b6001600160a01b0385166000908152600b602090815260408083208f546001600160601b031684526001019091529020541061277e576001600160a01b0384166000908152600b602090815260408083208e546001600160601b0316845260010190915281205461275c908390615f3c565b8c549091506127779086906001600160601b03168385614f0e565b50506127cf565b6001600160a01b0384166000908152600b602090815260408083208e546001600160601b03168452600101909152902054156127cf578a546127cd9085906001600160601b0316600084614f0e565b505b60405163ba66fde760e01b8152600481018f9052602481018e9052604481018390526001600160a01b038a169063ba66fde79060640160206040518083038186803b15801561281d57600080fd5b505afa158015612831573d6000803e3d6000fd5b505050506040513d601f19601f820116820180604052508101906128559190615f53565b6128f25760005b6001600160a01b0385166000908152600b60205260409020548110156128f0576001600160a01b0385166000908152600b6020526040902080546128dd918791849081106128ac576128ac615faf565b9060005260206000209060029182820401919006600c029054906101000a90046001600160601b0316600080614f0e565b50806128e881616061565b91505061285c565b505b8d6001600160a01b0385167f24f45c2b08bbde8c837d70b67991ccb7660537cf749de21a940ae4858b681e19612927846160dd565b60408051918252600060208301520160405180910390a3612949600187615f3c565b821415612a0c5784612a0c576000805460028c01546040516001600160a01b039092169281156108fc029290818181858888f1505060015460005460405163a9059cbb60e01b81526001600160a01b039182166004820152602481018d90529116935063a9059cbb92506044019050602060405180830381600087803b1580156129d257600080fd5b505af11580156129e6573d6000803e3d6000fd5b505050506040513d601f19601f82011682018060405250810190612a0a9190615f53565b505b50612d83565b6001600160a01b038816634fe264fb8e8e612a2d89866160fa565b6040516001600160e01b031960e086901b16815260048101939093526024830191909152604482015260640160206040518083038186803b158015612a7157600080fd5b505afa158015612a85573d6000803e3d6000fd5b505050506040513d601f19601f82011682018060405250810190612aa99190616014565b9150612710821115612abb5761271091505b60068901612ac986836160fa565b81548110612ad957612ad9615faf565b60009182526020909120015460018a01546001600160a01b03909116935061271090612b06908490616094565b612b1091906160c9565b6001600160a01b0384166000908152600b602090815260408083208e546001600160601b0316845260020190915281208054909190612b50908490615f3c565b90915550506001600160a01b0383166000908152600b602090815260408083208d546001600160601b03168452600101909152902054612c34576000612710838b60010154612b9f9190616094565b612ba991906160c9565b60015460405163a9059cbb60e01b81526001600160a01b0387811660048301526024820184905292935091169063a9059cbb90604401602060405180830381600087803b158015612bf957600080fd5b505af1158015612c0d573d6000803e3d6000fd5b505050506040513d601f19601f82011682018060405250810190612c319190615f53565b50505b600061271083612c44878a6160c9565b612c4e9190616094565b612c5891906160c9565b9050600061271084878d60020154612c7091906160c9565b612c7a9190616094565b612c8491906160c9565b60015460405163a9059cbb60e01b81526001600160a01b0388811660048301526024820186905292935091169063a9059cbb90604401602060405180830381600087803b158015612cd457600080fd5b505af1158015612ce8573d6000803e3d6000fd5b505050506040513d601f19601f82011682018060405250810190612d0c9190615f53565b506040516001600160a01b0386169082156108fc029083906000818181858888f19350505050508e856001600160a01b03167f24f45c2b08bbde8c837d70b67991ccb7660537cf749de21a940ae4858b681e198484604051612d78929190918252602082015260400190565b60405180910390a350505b80612d8d81616061565b915050612569565b5084886005015414612da957600588018590555b50505050600490930155505050505050565b6000600254600160a01b900460ff166001811115612ddb57612ddb615951565b14612e285760405162461bcd60e51b815260206004820152601b60248201527f53686f756c6420626520696e205374616b696e672070686173652e00000000006044820152606401610df5565b6000600e54600183600f54612e3d919061607c565b612e479190615f3c565b11612e525781612e6d565b600f54600e54612e629190615f3c565b612e6d90600161607c565b9050600081600f54612e7f919061607c565b600f549091505b81811015612efe576000818152600d60205260409020805460018201546002830154612ece926001600160a01b03811692600160a01b9091046001600160601b031691614f0e565b50506000818152600d60205260408120818155600181018290556002015580612ef681616061565b915050612e86565b50600f555050565b612f0e615776565b60006007836001600160601b031681548110612f2c57612f2c615faf565b60009182526020909120604080516080810191829052600b9093029091019250600683019060049082845b815481526020019060010190808311612f57575050505050915050919050565b6000546001600160a01b03163314612fa15760405162461bcd60e51b8152600401610df590615ee4565b6001600160601b0382161580613012575080600780846001600160601b031681548110612fd057612fd0615faf565b60009182526020909120600b909102015481546001600160601b03909116908110612ffd57612ffd615faf565b90600052602060002090600b02016002015411155b61301b57600080fd5b60005b6007836001600160601b03168154811061303a5761303a615faf565b90600052602060002090600b02016001018054905081101561315b5781600780856001600160601b03168154811061307457613074615faf565b90600052602060002090600b0201600101838154811061309657613096615faf565b9060005260206000200154815481106130b1576130b1615faf565b90600052602060002090600b02016002015410156131495760405162461bcd60e51b815260206004820152604960248201527f4120737562636f7572742063616e6e6f742062652074686520706172656e742060448201527f6f66206120737562636f75727420776974682061206c6f776572206d696e696d6064820152683ab69039ba30b5b29760b91b608482015260a401610df5565b8061315381616061565b91505061301e565b50806007836001600160601b03168154811061317957613179615faf565b90600052602060002090600b0201600201819055505050565b6060600882815481106131a7576131a7615faf565b906000526020600020906004020160010180548060200260200160405190810160405280929190818152602001828054801561320257602002820191906000526020600020905b8154815260200190600101908083116131ee575b50505050509050919050565b6000600a828154811061322357613223615faf565b6000918252602090912060049091020160010154610100900460ff1692915050565b600a818154811061325557600080fd5b60009182526020909120600490910201805460018201546002909201546001600160601b0382169350600160601b9091046001600160a01b03169160ff80821692610100909204169085565b6000546001600160a01b031633146132cb5760405162461bcd60e51b8152600401610df590615ee4565b806007836001600160601b0316815481106132e8576132e8615faf565b90600052602060002090600b0201600601906004613307929190615749565b505050565b6000546001600160a01b031633146133365760405162461bcd60e51b8152600401610df590615ee4565b806007836001600160601b03168154811061335357613353615faf565b90600052602060002090600b0201600401819055505050565b600080600a838154811061338257613382615faf565b60009182526020822060036004909202019081018054919350906133a890600190615f3c565b815481106133b8576133b8615faf565b600091825260208220845460078054938102909201945090916001600160601b039091169081106133eb576133eb615faf565b90600052602060002090600b0201905080600501548260030154106134865782546001600160601b0316613428576001600160ff1b0393506134b0565b6003820154613438906002616094565b61344390600161607c565b81546007805490916001600160601b031690811061346357613463615faf565b90600052602060002090600b02016004015461347f9190616094565b93506134b0565b6003820154613496906002616094565b6134a190600161607c565b8160040154611f7e9190616094565b505050919050565b6000546001600160a01b031633146134e25760405162461bcd60e51b8152600401610df590615ee4565b806007836001600160601b0316815481106134ff576134ff615faf565b90600052602060002090600b0201600301819055505050565b6000546001600160a01b031633146135425760405162461bcd60e51b8152600401610df590615ee4565b6000836001600160a01b0316838360405161355d919061613a565b60006040518083038185875af1925050503d806000811461359a576040519150601f19603f3d011682016040523d82523d6000602084013e61359f565b606091505b50509050806135e45760405162461bcd60e51b8152602060048201526011602482015270155b9cdd58d8d95cdcd99d5b0818d85b1b607a1b6044820152606401610df5565b50505050565b6135f73383836000614f0e565b6136345760405162461bcd60e51b815260206004820152600e60248201526d14dd185ada5b99c819985a5b195960921b6044820152606401610df5565b5050565b6000546001600160a01b031633146136625760405162461bcd60e51b8152600401610df590615ee4565b600355565b6000806000806060600080600a898154811061368557613685615faf565b9060005260206000209060040201905060008160030189815481106136ac576136ac615faf565b9060005260206000209060070201905080600101548160020154826004015483600501548460060185600001548180548060200260200160405190810160405280929190818152602001828054801561372e57602002820191906000526020600020905b81546001600160a01b03168152600190910190602001808311613710575b5050505050915097509750975097509750975050509295509295509295565b6000600a828154811061376257613762615faf565b600091825260209091206004918202019150600182015460ff16600481111561378d5761378d615951565b146137da5760405162461bcd60e51b815260206004820152601b60248201527f53686f756c6420626520657865637574696f6e20706572696f642e00000000006044820152606401610df5565b6001810154610100900460ff16156138345760405162461bcd60e51b815260206004820152601860248201527f52756c696e6720616c72656164792065786563757465642e00000000000000006044820152606401610df5565b600061383f83611e7c565b60018301805461ff001916610100179055825460405163188d362b60e11b815260048101869052602481018390529192506001600160a01b03600160601b909104169063311a6c5690604401600060405180830381600087803b1580156138a557600080fd5b505af11580156138b9573d6000803e3d6000fd5b50505050505050565b600981815481106138d257600080fd5b600091825260209091200154905081565b6000806000600a84815481106138fb576138fb615faf565b600091825260208220600360049092020190810180549193509061392190600190615f3c565b8154811061393157613931615faf565b90600052602060002090600702019050600881600001548154811061395857613958615faf565b6000918252602090912060049182020160020154604051639b05c26160e01b81529182018790526001600160a01b031690639b05c26190602401604080518083038186803b1580156139a957600080fd5b505afa1580156139bd573d6000803e3d6000fd5b505050506040513d601f19601f820116820180604052508101906139e19190616156565b90969095509350505050565b6000546001600160a01b03163314613a175760405162461bcd60e51b8152600401610df590615ee4565b806007836001600160601b031681548110613a3457613a34615faf565b90600052602060002090600b0201600501819055505050565b6000806000600a8481548110613a6557613a65615faf565b6000918252602090912060049091020190506003600182015460ff166004811115613a9257613a92615951565b1415613aeb576002810154815460078054929550916001600160601b03909116908110613ac157613ac1615faf565b600091825260209091206009600b9092020101546002820154613ae4919061607c565b9150613af4565b60009250600091505b50915091565b6000546001600160a01b03163314613b245760405162461bcd60e51b8152600401610df590615ee4565b600455565b60006001600254600160a01b900460ff166001811115613b4b57613b4b615951565b148015613b665750600454600554613b639042615f3c565b10155b905090565b6000613b7682614dca565b341015613bd75760405162461bcd60e51b815260206004820152602960248201527f4e6f7420656e6f7567682045544820746f20636f76657220617262697472617460448201526834b7b71031b7b9ba1760b91b6064820152608401610df5565b600080613be384615645565b92505091506007826001600160601b031681548110613c0457613c04615faf565b60009182526020808320848452600a600b90930201919091019052604090205460ff16613c8d5760405162461bcd60e51b815260206004820152603160248201527f5468652064697370757465206b6974206973206e6f7420737570706f7274656460448201527008189e481d1a1a5cc81cdd5898dbdd5c9d607a1b6064820152608401610df5565b600a80546001810182556000918252600160601b33026001600160601b03851617600482027fc65a7bb8d6351c1cf70c95a316cc6a92839c986682d98bc35f958f4883f9d2a88101918255427fc65a7bb8d6351c1cf70c95a316cc6a92839c986682d98bc35f958f4883f9d2aa909101556008805492965090929184908110613d1857613d18615faf565b600091825260208220600260049092020101548354600780546001600160a01b039093169450916001600160601b03909116908110613d5957613d59615faf565b60009182526020808320600387018054600181018255908552919093206004600b9093029093019182015491935060070290910190613d9890346160c9565b600380830191909155858255820154600283015461271091613db991616094565b613dc391906160c9565b60018201553460028201556008805486908110613de257613de2615faf565b906000526020600020906004020160020160149054906101000a900460ff16613e7957600160088681548110613e1a57613e1a615faf565b6000918252602082206002600490920201018054921515600160a01b0260ff60a01b19909316929092179091556009805460018101825591527f6e1540171b6c0c960b71a7020d9f60077f6af931a8bbf590da0223dacf75c7af018590555b60038101546040516302dbb79560e61b81526001600160a01b0385169163b6ede54091613eae918b918e918e9160040161617b565b600060405180830381600087803b158015613ec857600080fd5b505af1158015613edc573d6000803e3d6000fd5b50506040513392508991507f141dfc18aa6a56fc816f44f0e9e2f1ebc92b15ab167770e17db5b084c10ed99590600090a350505050505092915050565b6000546001600160a01b03163314613f435760405162461bcd60e51b8152600401610df590615ee4565b600280546001600160a01b0319166001600160a01b0392909216919091179055565b613f6e8361336c565b341015613fc95760405162461bcd60e51b8152602060048201526024808201527f4e6f7420656e6f7567682045544820746f20636f7665722061707065616c206360448201526337b9ba1760e11b6064820152608401610df5565b6000600a8481548110613fde57613fde615faf565b6000918252602090912060049091020190506003600182015460ff16600481111561400b5761400b615951565b146140585760405162461bcd60e51b815260206004820152601a60248201527f44697370757465206973206e6f742061707065616c61626c652e0000000000006044820152606401610df5565b6003810180546000919061406e90600190615f3c565b8154811061407e5761407e615faf565b9060005260206000209060070201905060088160000154815481106140a5576140a5615faf565b60009182526020909120600490910201600201546001600160a01b0316331461411e5760405162461bcd60e51b815260206004820152602560248201527f416363657373206e6f7420616c6c6f7765643a2044697370757465204b69742060448201526437b7363c9760d91b6064820152608401610df5565b8154815460038401805460018101825560009182526020909120600780546001600160601b0390951694928102909101918390811061415f5761415f615faf565b90600052602060002090600b020160050154846003015410614363576007836001600160601b03168154811061419757614197615faf565b600091825260208220600b90910201546001600160601b031693505b600a8110156142a8576007846001600160601b0316815481106141d8576141d8615faf565b60009182526020808320868452600a600b90930201919091019052604090205460ff1615614205576142a8565b60006008848154811061421a5761421a615faf565b9060005260206000209060040201600001541461425d576008838154811061424457614244615faf565b9060005260206000209060040201600001549250614296565b6007846001600160601b03168154811061427957614279615faf565b60009182526020909120600b90910201546001600160601b031693505b806142a081616061565b9150506141b3565b506007836001600160601b0316815481106142c5576142c5615faf565b60009182526020808320858452600a600b90930201919091019052604090205460ff166142f157600092505b84546001600160601b0384811691161461436357845460038601546001600160601b039091169061432490600190615f3c565b6040516001600160601b03861681528a907f736e3f52761298c8c0823e1ebf482ed3c5ecb304f743d2d91a7c006e8e8d7a1f9060200160405180910390a45b84546bffffffffffffffffffffffff19166001600160601b038416908117865560018601805460ff19169055426002870155600780546000929081106143ab576143ab615faf565b90600052602060002090600b020190508060040154346143cb91906160c9565b8260030181905550612710816003015482600201546143ea9190616094565b6143f491906160c9565b6001830155346002830155828255600880548490811061441657614416615faf565b906000526020600020906004020160020160149054906101000a900460ff166144ad5760016008848154811061444e5761444e615faf565b6000918252602082206002600490920201018054921515600160a01b0260ff60a01b19909316929092179091556009805460018101825591527f6e1540171b6c0c960b71a7020d9f60077f6af931a8bbf590da0223dacf75c7af018390555b845482541461459357845460038701546144c990600190615f3c565b83546040519081528b907fcbe7939a71f0b369c7471d760a0a99b60b7bb010ee0406cba8a46679d1ea77569060200160405180910390a4600882600001548154811061451757614517615faf565b600091825260209091206004918202016002015460038401546040516302dbb79560e61b81526001600160a01b039092169263b6ede54092614560928e928e928e92910161617b565b600060405180830381600087803b15801561457a57600080fd5b505af115801561458e573d6000803e3d6000fd5b505050505b8554604051600160601b9091046001600160a01b0316908a907f9c9b64db9e130f48381bf697abf638e73117dbfbfd7a4484f2da3ba188f4187d90600090a3887f4e6f5cf43b95303e86aee81683df63992061723a829ee012db21dad388756b916000604051614603919061597b565b60405180910390a2505050505050505050565b600080600a838154811061462c5761462c615faf565b9060005260206000209060040201905080600301600182600301805490506146549190615f3c565b8154811061466457614664615faf565b906000526020600020906007020160030154915050919050565b6001600254600160a01b900460ff16600181111561469e5761469e615951565b146146da5760405162461bcd60e51b815260206004820152600c60248201526b2bb937b73390383430b9b29760a11b6044820152606401610df5565b6000600a83815481106146ef576146ef615faf565b906000526020600020906004020190506000600182600301805490506147159190615f3c565b9050600082600301828154811061472e5761472e615faf565b6000918252602082206007909102019150600184015460ff16600481111561475857614758615951565b146147a55760405162461bcd60e51b815260206004820152601a60248201527f53686f756c642062652065766964656e636520706572696f642e0000000000006044820152606401610df5565b600060088260000154815481106147be576147be615faf565b60009182526020822060026004909202010154600684015460038501546001600160a01b03909216935091906147f4888461607c565b111561480457836003015461480e565b61480e878361607c565b9050815b8181101561497457604051633b30414760e01b8152600481018a90526000906001600160a01b03861690633b30414790602401602060405180830381600087803b15801561485f57600080fd5b505af1158015614873573d6000803e3d6000fd5b505050506040513d601f19601f8201168201806040525081019061489791906161c4565b90506001600160a01b038116156149615760018601546001600160a01b0382166000908152600b602090815260408083208c546001600160601b03168452600201909152812080549091906148ed90849061607c565b909155505060068601805460018101825560009182526020918290200180546001600160a01b0319166001600160a01b038416908117909155604080518a81529283018590528c927f6119cf536152c11e0a9a6c22f3953ce4ecc93ee54fa72ffa326ffabded21509b910160405180910390a35b508061496c81616061565b915050614812565b505050505050505050565b6000818152600c602090815260409182902080546001820180548551818602810186019096528086529194606094859493919291908301828280156149e357602002820191906000526020600020905b8154815260200190600101908083116149cf575b5050505050925080600201805480602002602001604051908101604052809291908181526020018280548015614a3857602002820191906000526020600020905b815481526020019060010190808311614a24575b50505050509150509193909250565b600060078281548110614a5c57614a5c615faf565b60009182526020909120600b9091020154600160601b900460ff1692915050565b60606009805480602002602001604051908101604052809291908181526020018280548015614acb57602002820191906000526020600020905b815481526020019060010190808311614ab7575b5050505050905090565b6000546001600160a01b03163314614aff5760405162461bcd60e51b8152600401610df590615ee4565b600080546001600160a01b0319166001600160a01b0392909216919091179055565b6000546001600160a01b03163314614b4b5760405162461bcd60e51b8152600401610df590615ee4565b600854808210614b945760405162461bcd60e51b815260206004820152601460248201527314185c995b9d08191bd95cdb89dd08195e1a5cdd60621b6044820152606401610df5565b600082614be45760016007600081548110614bb157614bb1615faf565b60009182526020808320868452600b92909202909101600a01905260409020805460ff1916911515919091179055614c5f565b60088381548110614bf757614bf7615faf565b9060005260206000209060040201600301546001614c15919061607c565b9050600a8110614c5f5760405162461bcd60e51b8152602060048201526015602482015274088cae0e8d040d8caeccad840d2e640c2e840dac2f605b1b6044820152606401610df5565b6040805160a08101825284815281516000808252602080830185528084019283526001600160a01b038916948401949094526060830181905260808301859052600880546001810182559152825160049091027ff3f7a9fe364faab93b216da50a3214154f22a0a2b415b23a84c8169e8b636ee381019182559151805193949193614d11937ff3f7a9fe364faab93b216da50a3214154f22a0a2b415b23a84c8169e8b636ee4019291909101906156fe565b50604082015160028201805460608501511515600160a01b026001600160a81b03199091166001600160a01b03909316929092179190911790556080909101516003909101556008805484908110614d6b57614d6b615faf565b60009182526020808320600160049093020182018054928301815583529091200191909155505050565b6000600a8281548110614daa57614daa615faf565b60009182526020909120600490910201546001600160601b031692915050565b6000806000614dd884615645565b5091509150806007836001600160601b031681548110614dfa57614dfa615faf565b90600052602060002090600b020160040154614e169190616094565b949350505050565b6000546001600160a01b03163314614e485760405162461bcd60e51b8152600401610df590615ee4565b806007836001600160601b031681548110614e6557614e65615faf565b60009182526020909120600b909102018054911515600160601b0260ff60601b199092169190911790555050565b600080600a8381548110614ea957614ea9615faf565b60009182526020909120600360049092020101549392505050565b60006007836001600160601b031681548110614ee257614ee2615faf565b60009182526020808320858452600a600b90930201919091019052604090205460ff1690505b92915050565b6007546000906001600160601b0385161115614f2c57506000614e16565b6001600160a01b0385166000908152600b6020526040812090614f4f87876156b6565b604051637521ccb160e01b8152600c60048201526001600160601b0388166024820152604481018290529091506000907316f20604a51Ac1e68c9aAd1C0E53e951B62CC1Cb90637521ccb19060640160206040518083038186803b158015614fb657600080fd5b505af4158015614fca573d6000803e3d6000fd5b505050506040513d601f19601f82011682018060405250810190614fee9190616014565b9050851561507c576007876001600160601b03168154811061501257615012615faf565b90600052602060002090600b02016002015486108061504a57506001600160601b038716600090815260028401602052604090205486105b1561505b5760009350505050614e16565b8015801561506b57508254600411155b1561507c5760009350505050614e16565b6000600254600160a01b900460ff16600181111561509c5761509c615951565b14615148576040518060800160405280896001600160a01b03168152602001886001600160601b0316815260200187815260200186815250600d6000600e600081546150e790616061565b9182905550815260208082019290925260409081016000208351928401516001600160601b0316600160a01b026001600160a01b039093169290921782558201516001808301919091556060909201516002909101559350614e1692505050565b60008187106152065761515b8288615f3c565b90508015615201576001546040516323b872dd60e01b81526001600160a01b038b8116600483015230602483015260448201849052909116906323b872dd906064015b602060405180830381600087803b1580156151b857600080fd5b505af11580156151cc573d6000803e3d6000fd5b505050506040513d601f19601f820116820180604052508101906151f09190615f53565b615201576000945050505050614e16565b615331565b8661527d576001600160601b038816600090815260028501602052604090205486906152329084615f3c565b61523c9190615f3c565b905080156152015760015460405163a9059cbb60e01b81526001600160a01b038b81166004830152602482018490529091169063a9059cbb9060440161519e565b856152888884615f3c565b6152929190615f3c565b905080156153315760015460405163a9059cbb60e01b81526001600160a01b038b81166004830152602482018490529091169063a9059cbb90604401602060405180830381600087803b1580156152e857600080fd5b505af11580156152fc573d6000803e3d6000fd5b505050506040513d601f19601f820116820180604052508101906153209190615f53565b615331576000945050505050614e16565b861561537c5781615377578354600180820186556000868152602090206002830401805491909216600c026101000a6001600160601b0381810219909216918b16021790555b6154c8565b60005b84548110156154c657886001600160601b03168560000182815481106153a7576153a7615faf565b600091825260209091206002820401546001909116600c026101000a90046001600160601b031614156154b457845485906153e490600190615f3c565b815481106153f4576153f4615faf565b9060005260206000209060029182820401919006600c029054906101000a90046001600160601b031685600001828154811061543257615432615faf565b9060005260206000209060029182820401919006600c026101000a8154816001600160601b0302191690836001600160601b031602179055508460000180548061547e5761547e61602d565b60008281526020902060026000199092019182040180546001600160601b03600c60018516026101000a021916905590556154c6565b806154be81616061565b91505061537f565b505b6001600160601b038816600090815260018501602052604081205488906154f0908590615f3c565b6154fa919061607c565b6001600160601b038a16600081815260018801602052604081208390559192505b816155de57604051631712e1c560e11b8152600c600482015260248101829052604481018b9052606481018790527316f20604a51Ac1e68c9aAd1C0E53e951B62CC1Cb90632e25c38a9060840160006040518083038186803b15801561558057600080fd5b505af4158015615594573d6000803e3d6000fd5b5050505060008114156155aa576001915061551b565b600781815481106155bd576155bd615faf565b60009182526020909120600b90910201546001600160601b0316905061551b565b604080516001600160601b038d168152602081018c90529081018490526001600160a01b038d16907f70ca4ec64687bf265f39041896f3dbf10b9f650503cb38f2b3569fdce7489c369060600160405180910390a25060019b9a5050505050505050505050565b600080600060408451106156a3575050506020810151604082015160608301516007546001600160601b0384161061567c57600092505b8161568657600391505b80158061569557506008548110155b1561569e575060015b6156af565b50600091506003905060015b9193909250565b600060405160005b60148110156156d9578481600c011a818301536001016156be565b5060145b60208110156156f55783811a818301536001016156dd565b50519392505050565b828054828255906000526020600020908101928215615739579160200282015b8281111561573957825182559160200191906001019061571e565b50615745929150615794565b5090565b8260048101928215615739579160200282018281111561573957825182559160200191906001019061571e565b60405180608001604052806004906020820280368337509192915050565b5b808211156157455760008155600101615795565b6001600160a01b03811681146157be57600080fd5b50565b6000602082840312156157d357600080fd5b81356157de816157a9565b9392505050565b80356001600160601b03811681146157fc57600080fd5b919050565b634e487b7160e01b600052604160045260246000fd5b604051601f8201601f1916810167ffffffffffffffff8111828210171561584057615840615801565b604052919050565b600082601f83011261585957600080fd5b8135602067ffffffffffffffff82111561587557615875615801565b8160051b615884828201615817565b928352848101820192828101908785111561589e57600080fd5b83870192505b848310156158bd578235825291830191908301906158a4565b979650505050505050565b80151581146157be57600080fd5b6000806000606084860312156158eb57600080fd5b6158f4846157e5565b9250602084013567ffffffffffffffff81111561591057600080fd5b61591c86828701615848565b925050604084013561592d816158c8565b809150509250925092565b60006020828403121561594a57600080fd5b5035919050565b634e487b7160e01b600052602160045260246000fd5b6005811061597757615977615951565b9052565b60208101614f088284615967565b600082601f83011261599a57600080fd5b6040516080810181811067ffffffffffffffff821117156159bd576159bd615801565b6040528060808401858111156159d257600080fd5b845b818110156159ec5780358352602092830192016159d4565b509195945050505050565b60008060008060008060008060006101808a8c031215615a1657600080fd5b615a1f8a6157e5565b985060208a0135615a2f816158c8565b975060408a0135965060608a0135955060808a0135945060a08a01359350615a5a8b60c08c01615989565b92506101408a013591506101608a013567ffffffffffffffff811115615a7f57600080fd5b615a8b8c828d01615848565b9150509295985092959850929598565b600080600060608486031215615ab057600080fd5b505081359360208301359350604090920135919050565b600060208284031215615ad957600080fd5b6157de826157e5565b60808101818360005b6004811015615b0a578151835260209283019290910190600101615aeb565b50505092915050565b60008060408385031215615b2657600080fd5b615b2f836157e5565b946020939093013593505050565b600081518084526020808501945080840160005b83811015615b6d57815187529582019590820190600101615b51565b509495945050505050565b6020815260006157de6020830184615b3d565b6001600160601b03861681526001600160a01b038516602082015260a08101615bb76040830186615967565b9215156060820152608001529392505050565b60008060a08385031215615bdd57600080fd5b615be6836157e5565b9150615bf58460208501615989565b90509250929050565b600082601f830112615c0f57600080fd5b813567ffffffffffffffff811115615c2957615c29615801565b615c3c601f8201601f1916602001615817565b818152846020838601011115615c5157600080fd5b816020850160208301376000918101602001919091529392505050565b600080600060608486031215615c8357600080fd5b8335615c8e816157a9565b925060208401359150604084013567ffffffffffffffff811115615cb157600080fd5b615cbd86828701615bfe565b9150509250925092565b60008060408385031215615cda57600080fd5b50508035926020909101359150565b600060c082018883526020888185015287604085015286606085015260c0608085015281865180845260e086019150828801935060005b81811015615d455784516001600160a01b031683529383019391830191600101615d20565b50508093505050508260a0830152979650505050505050565b6020810160028310615d7257615d72615951565b91905290565b60008060408385031215615d8b57600080fd5b82359150602083013567ffffffffffffffff811115615da957600080fd5b615db585828601615bfe565b9150509250929050565b600080600060608486031215615dd457600080fd5b8335925060208401359150604084013567ffffffffffffffff811115615cb157600080fd5b60008060408385031215615e0c57600080fd5b8235615e17816157a9565b9150615bf5602084016157e5565b838152606060208201526000615e3e6060830185615b3d565b8281036040840152615e508185615b3d565b9695505050505050565b60008060408385031215615e6d57600080fd5b8235615b2f816157a9565b600060208284031215615e8a57600080fd5b813567ffffffffffffffff811115615ea157600080fd5b614e1684828501615bfe565b60008060408385031215615ec057600080fd5b615ec9836157e5565b91506020830135615ed9816158c8565b809150509250929050565b60208082526022908201527f416363657373206e6f7420616c6c6f7765643a20476f7665726e6f72206f6e6c6040820152613c9760f11b606082015260800190565b634e487b7160e01b600052601160045260246000fd5b600082821015615f4e57615f4e615f26565b500390565b600060208284031215615f6557600080fd5b81516157de816158c8565b60008083128015600160ff1b850184121615615f8e57615f8e615f26565b6001600160ff1b0384018313811615615fa957615fa9615f26565b50500390565b634e487b7160e01b600052603260045260246000fd5b6020808252602f908201527f412064697370757465206b697420686173206e6f742070617373656420746f2060408201526e5265736f6c76696e6720706861736560881b606082015260800190565b60006020828403121561602657600080fd5b5051919050565b634e487b7160e01b600052603160045260246000fd5b6000600160ff1b82141561605957616059615f26565b506000190190565b600060001982141561607557616075615f26565b5060010190565b6000821982111561608f5761608f615f26565b500190565b60008160001904831182151516156160ae576160ae615f26565b500290565b634e487b7160e01b600052601260045260246000fd5b6000826160d8576160d86160b3565b500490565b6000600160ff1b8214156160f3576160f3615f26565b5060000390565b600082616109576161096160b3565b500690565b60005b83811015616129578181015183820152602001616111565b838111156135e45750506000910152565b6000825161614c81846020870161610e565b9190910192915050565b6000806040838503121561616957600080fd5b825191506020830151615ed9816158c8565b84815283602082015260806040820152600083518060808401526161a68160a085016020880161610e565b606083019390935250601f91909101601f19160160a0019392505050565b6000602082840312156161d657600080fd5b81516157de816157a956fea2646970667358221220b53fcbd02ac3d85e0d3134259a340913e0dd007de7acfda4ab957a9b6c3c0d8764736f6c63430008090033",
  "deployedBytecode": "0x6080604052600436106104045760003560e01c80638a9bb02a11610213578063cf0c38f811610123578063f12ada8b116100ab578063f8bdb57b1161007a578063f8bdb57b14610d36578063fa41488014610d56578063fbf405b014610d6b578063fc6f8f1614610d8b578063fe524c3914610dab57600080fd5b8063f12ada8b14610c4d578063f6a6ef7a14610c6d578063f6b4d82d14610c8d578063f7434ea914610d1657600080fd5b8063d578cbac116100f2578063d578cbac14610ba7578063d8b03fd814610bc7578063de1a1e5914610bdc578063e4c0aaf414610c18578063eaff425a14610c3857600080fd5b8063cf0c38f814610adb578063d1c1df4814610afb578063d2b8035a14610b58578063d2d514e014610b7857600080fd5b8063b31b4540116101a6578063c057eca711610175578063c057eca714610a5f578063c13517e114610a75578063c258bb1914610a88578063c356990214610aa8578063c71f425314610abb57600080fd5b8063b31b454014610a09578063b4a6160814610a1f578063b70c4e9414610a34578063b888adfa14610a4957600080fd5b8063a57366e7116101e2578063a57366e714610966578063afe15cfb14610986578063b1c9fe6e146109bb578063b2866af7146109e957600080fd5b80638a9bb02a146108bf5780638bb04875146108f15780638edf4741146109115780639b05c2611461093157600080fd5b80633a1578601161031957806359ec827e116102a15780636c1eb1b9116102705780636c1eb1b91461082f578063751accd0146108445780637717a6e814610864578063823cfd7014610884578063840bc19c146108a457600080fd5b806359ec827e146107da5780635bc24dd3146107fa5780635ea5c0381461081a5780636235593f1461061857600080fd5b80634b7fcda2116102e85780634b7fcda214610733578063564a565d1461075357806356acb05014610784578063572603641461079a57806359354c77146107ba57600080fd5b80633a157860146106a35780633cfd1184146106b95780633e1d09be146106e657806343d4137f1461070657600080fd5b80631c3db16d1161039c57806327e6ec8a1161036b57806327e6ec8a146106185780632b6a63f11461062d5780632d29a47b1461064d5780632ea7b4d01461066d57806335975f4a1461068357600080fd5b80631c3db16d1461055f5780631f5a0dd21461057f5780632256aaf3146105d657806322684db0146105eb57600080fd5b80630d1b9d1a116103d85780630d1b9d1a1461049d5780630e083ec9146104eb578063115d53761461050f57806319b815291461052f57600080fd5b8062f5822c146104095780630b274f2e1461042b5780630b7414bc146104405780630c340a2414610460575b600080fd5b34801561041557600080fd5b506104296104243660046157c1565b610dcb565b005b34801561043757600080fd5b50610429610e20565b34801561044c57600080fd5b5061042961045b3660046158d6565b6113de565b34801561046c57600080fd5b50600054610480906001600160a01b031681565b6040516001600160a01b0390911681526020015b60405180910390f35b3480156104a957600080fd5b506104bd6104b8366004615938565b611634565b604080519485526001600160a01b039093166020850152901515918301919091526060820152608001610494565b3480156104f757600080fd5b50610501600e5481565b604051908152602001610494565b34801561051b57600080fd5b5061042961052a366004615938565b61167d565b34801561053b57600080fd5b5061054f61054a366004615938565b611d85565b6040519015158152602001610494565b34801561056b57600080fd5b5061050161057a366004615938565b611e7c565b34801561058b57600080fd5b5061059f61059a366004615938565b611f87565b604080516001600160601b0390971687529415156020870152938501929092526060840152608083015260a082015260c001610494565b3480156105e257600080fd5b50610501600181565b3480156105f757600080fd5b5061060b610606366004615938565b611fde565b604051610494919061597b565b34801561062457600080fd5b50610501600081565b34801561063957600080fd5b506104296106483660046159f7565b612010565b34801561065957600080fd5b50610429610668366004615a9b565b61239b565b34801561067957600080fd5b5061050161271081565b34801561068f57600080fd5b5061042961069e366004615938565b612dbb565b3480156106af57600080fd5b5061050160065481565b3480156106c557600080fd5b506106d96106d4366004615ac7565b612f06565b6040516104949190615ae2565b3480156106f257600080fd5b50610429610701366004615b13565b612f77565b34801561071257600080fd5b50610726610721366004615938565b613192565b6040516104949190615b78565b34801561073f57600080fd5b5061054f61074e366004615938565b61320e565b34801561075f57600080fd5b5061077361076e366004615938565b613245565b604051610494959493929190615b8b565b34801561079057600080fd5b50610501600f5481565b3480156107a657600080fd5b506104296107b5366004615bca565b6132a1565b3480156107c657600080fd5b506104296107d5366004615b13565b61330c565b3480156107e657600080fd5b506105016107f5366004615938565b61336c565b34801561080657600080fd5b50610429610815366004615b13565b6134b8565b34801561082657600080fd5b50600854610501565b34801561083b57600080fd5b50610501600a81565b34801561085057600080fd5b5061042961085f366004615c6e565b613518565b34801561087057600080fd5b5061042961087f366004615b13565b6135ea565b34801561089057600080fd5b5061042961089f366004615938565b613638565b3480156108b057600080fd5b506105016001600160ff1b0381565b3480156108cb57600080fd5b506108df6108da366004615cc7565b613667565b60405161049496959493929190615ce9565b3480156108fd57600080fd5b5061042961090c366004615938565b61374d565b34801561091d57600080fd5b5061050161092c366004615938565b6138c2565b34801561093d57600080fd5b5061095161094c366004615938565b6138e3565b60408051928352901515602083015201610494565b34801561097257600080fd5b50610429610981366004615b13565b6139ed565b34801561099257600080fd5b506109a66109a1366004615938565b613a4d565b60408051928352602083019190915201610494565b3480156109c757600080fd5b506002546109dc90600160a01b900460ff1681565b6040516104949190615d5e565b3480156109f557600080fd5b50610429610a04366004615938565b613afa565b348015610a1557600080fd5b5061050160045481565b348015610a2b57600080fd5b50610501600481565b348015610a4057600080fd5b5061054f613b29565b348015610a5557600080fd5b5061050160055481565b348015610a6b57600080fd5b5061050160035481565b610501610a83366004615d78565b613b6b565b348015610a9457600080fd5b50610429610aa33660046157c1565b613f19565b610429610ab6366004615dbf565b613f65565b348015610ac757600080fd5b50610501610ad6366004615938565b614616565b348015610ae757600080fd5b50600254610480906001600160a01b031681565b348015610b0757600080fd5b506109a6610b16366004615df9565b6001600160a01b039091166000908152600b602090815260408083206001600160601b0390941683526001840182528083205460029094019091529020549091565b348015610b6457600080fd5b50610429610b73366004615cc7565b61467e565b348015610b8457600080fd5b50610b98610b93366004615938565b61497f565b60405161049493929190615e25565b348015610bb357600080fd5b5061054f610bc2366004615938565b614a47565b348015610bd357600080fd5b50610726614a7d565b348015610be857600080fd5b50610501610bf7366004615cc7565b6000918252600c602090815260408084209284526004909201905290205490565b348015610c2457600080fd5b50610429610c333660046157c1565b614ad5565b348015610c4457600080fd5b50610501600381565b348015610c5957600080fd5b50610429610c68366004615e5a565b614b21565b348015610c7957600080fd5b50610501610c88366004615938565b614d95565b348015610c9957600080fd5b50610ce4610ca8366004615938565b600d602052600090815260409020805460018201546002909201546001600160a01b03821692600160a01b9092046001600160601b0316919084565b604080516001600160a01b0390951685526001600160601b039093166020850152918301526060820152608001610494565b348015610d2257600080fd5b50610501610d31366004615e78565b614dca565b348015610d4257600080fd5b50610429610d51366004615ead565b614e1e565b348015610d6257600080fd5b50600654610501565b348015610d7757600080fd5b50600154610480906001600160a01b031681565b348015610d9757600080fd5b50610501610da6366004615938565b614e93565b348015610db757600080fd5b5061054f610dc6366004615b13565b614ec4565b6000546001600160a01b03163314610dfe5760405162461bcd60e51b8152600401610df590615ee4565b60405180910390fd5b600180546001600160a01b0319166001600160a01b0392909216919091179055565b6000600254600160a01b900460ff166001811115610e4057610e40615951565b1415610f3857600354600554610e569042615f3c565b1015610eb85760405162461bcd60e51b815260206004820152602b60248201527f546865206d696e696d616c207374616b696e672074696d6520686173206e6f7460448201526a081c185cdcd959081e595d60aa1b6064820152608401610df5565b600954610f1c5760405162461bcd60e51b815260206004820152602c60248201527f546865726520617265206e6f2064697370757465206b6974207768696368206e60448201526b65656420667265657a696e6760a01b6064820152608401610df5565b6002805460ff60a01b1916600160a01b17905543600655611393565b6000306001600160a01b031663b70c4e946040518163ffffffff1660e01b815260040160206040518083038186803b158015610f7357600080fd5b505afa158015610f87573d6000803e3d6000fd5b505050506040513d601f19601f82011682018060405250810190610fab9190615f53565b600954909150600090610fc090600190615f70565b90505b6000811261138357600060098281548110610fe057610fe0615faf565b90600052602060002001549050600060086009848154811061100457611004615faf565b90600052602060002001548154811061101f5761101f615faf565b60009182526020909120600260049092020101546001600160a01b031690508380156110b95750806001600160a01b031663c86ed8926040518163ffffffff1660e01b815260040160206040518083038186803b15801561107f57600080fd5b505afa158015611093573d6000803e3d6000fd5b505050506040513d601f19601f820116820180604052508101906110b79190615f53565b155b156111a357806001600160a01b0316630b274f2e6040518163ffffffff1660e01b8152600401600060405180830381600087803b1580156110f957600080fd5b505af115801561110d573d6000803e3d6000fd5b50505050806001600160a01b031663c86ed8926040518163ffffffff1660e01b815260040160206040518083038186803b15801561114a57600080fd5b505afa15801561115e573d6000803e3d6000fd5b505050506040513d601f19601f820116820180604052508101906111829190615f53565b61119e5760405162461bcd60e51b8152600401610df590615fc5565b611370565b806001600160a01b031663c86ed8926040518163ffffffff1660e01b815260040160206040518083038186803b1580156111dc57600080fd5b505afa1580156111f0573d6000803e3d6000fd5b505050506040513d601f19601f820116820180604052508101906112149190615f53565b6112305760405162461bcd60e51b8152600401610df590615fc5565b806001600160a01b031663034327446040518163ffffffff1660e01b815260040160206040518083038186803b15801561126957600080fd5b505afa15801561127d573d6000803e3d6000fd5b505050506040513d601f19601f820116820180604052508101906112a19190616014565b611370576000600883815481106112ba576112ba615faf565b600091825260209091206002600490920201018054911515600160a01b0260ff60a01b199092169190911790556009546112f690600190615f70565b831215611348576009805461130d90600190615f3c565b8154811061131d5761131d615faf565b90600052602060002001546009848154811061133b5761133b615faf565b6000918252602090912001555b60098054806113595761135961602d565b600190038181906000526020600020016000905590555b50508061137c90616043565b9050610fc3565b50506002805460ff60a01b191690555b426005556002546040517f31f72b44f546d9e7eaec13f65636997665e15f134a81c82924f568f5c0d07b93916113d491600160a01b90910460ff1690615d5e565b60405180910390a1565b6000546001600160a01b031633146114085760405162461bcd60e51b8152600401610df590615ee4565b60006007846001600160601b03168154811061142657611426615faf565b90600052602060002090600b0201905060005b835181101561162d57821561151657600084828151811061145c5761145c615faf565b602002602001015111801561148d5750600854845185908390811061148357611483615faf565b6020026020010151105b6114ca5760405162461bcd60e51b815260206004820152600e60248201526d0aee4dedcce40889640d2dcc8caf60931b6044820152606401610df5565b600182600a0160008684815181106114e4576114e4615faf565b6020026020010151815260200190815260200160002060006101000a81548160ff02191690831515021790555061161b565b6001600160601b03851615801561156a57506000600885838151811061153e5761153e615faf565b60200260200101518154811061155657611556615faf565b906000526020600020906004020160000154145b156115d35760405162461bcd60e51b815260206004820152603360248201527f43616e27742072656d6f766520726f6f7420444b20737570706f72742066726f6044820152721b481d1a1948199bdc9ada5b99c818dbdd5c9d606a1b6064820152608401610df5565b600082600a0160008684815181106115ed576115ed615faf565b6020026020010151815260200190815260200160002060006101000a81548160ff0219169083151502179055505b8061162581616061565b915050611439565b5050505050565b6008818154811061164457600080fd5b60009182526020909120600490910201805460028201546003909201549092506001600160a01b03821691600160a01b900460ff169084565b6000600a828154811061169257611692615faf565b600091825260208220600490910201805460078054929450916001600160601b039091169081106116c5576116c5615faf565b6000918252602082206003850154600b9092020192506116e790600190615f3c565b9050600083600301828154811061170057611700615faf565b6000918252602082206007909102019150600185015460ff16600481111561172a5761172a615951565b14156118ab57600082118061177c57506001840154600684019060ff16600481111561175857611758615951565b6004811061176857611768615faf565b015460028501546117799042615f3c565b10155b6117fc5760405162461bcd60e51b8152602060048201526044602482018190527f5468652065766964656e636520706572696f642074696d6520686173206e6f74908201527f207061737365642079657420616e64206974206973206e6f7420616e2061707060648201526332b0b61760e11b608482015260a401610df5565b60038101546006820154146118655760405162461bcd60e51b815260206004820152602960248201527f546865206469737075746520686173206e6f742066696e6973686564206472616044820152683bb4b733903cb2ba1760b91b6064820152608401610df5565b8254600160601b900460ff1661187c57600261187f565b60015b60018086018054909160ff19909116908360048111156118a1576118a1615951565b0217905550611d37565b60018085015460ff1660048111156118c5576118c5615951565b1415611a29576001840154600684019060ff1660048111156118e9576118e9615951565b600481106118f9576118f9615faf565b0154600285015461190a9042615f3c565b1015806119b35750600881600001548154811061192957611929615faf565b6000918252602090912060049182020160020154604051630baa64d160e01b81529182018790526001600160a01b031690630baa64d19060240160206040518083038186803b15801561197b57600080fd5b505afa15801561198f573d6000803e3d6000fd5b505050506040513d601f19601f820116820180604052508101906119b39190615f53565b611a125760405162461bcd60e51b815260206004820152602a60248201527f54686520636f6d6d697420706572696f642074696d6520686173206e6f74207060448201526930b9b9b2b2103cb2ba1760b11b6064820152608401610df5565b6001808501805460029260ff1990911690836118a1565b6002600185015460ff166004811115611a4457611a44615951565b1415611be3576001840154600684019060ff166004811115611a6857611a68615951565b60048110611a7857611a78615faf565b01546002850154611a899042615f3c565b101580611b3257506008816000015481548110611aa857611aa8615faf565b60009182526020909120600491820201600201546040516336a66c7560e11b81529182018790526001600160a01b031690636d4cd8ea9060240160206040518083038186803b158015611afa57600080fd5b505afa158015611b0e573d6000803e3d6000fd5b505050506040513d601f19601f82011682018060405250810190611b329190615f53565b611b8e5760405162461bcd60e51b815260206004820152602760248201527f54686520766f746520706572696f642074696d6520686173206e6f74207061736044820152661cd959081e595d60ca1b6064820152608401610df5565b600184018054600360ff199091161790558354604051600160601b9091046001600160a01b03169086907fa5d41b970d849372be1da1481ffd78d162bfe57a7aa2fe4e5fb73481fa5ac24f90600090a3611d37565b6003600185015460ff166004811115611bfe57611bfe615951565b1415611cbb576001840154600684019060ff166004811115611c2257611c22615951565b60048110611c3257611c32615faf565b01546002850154611c439042615f3c565b1015611ca45760405162461bcd60e51b815260206004820152602a60248201527f5468652061707065616c20706572696f642074696d6520686173206e6f74207060448201526930b9b9b2b2103cb2ba1760b11b6064820152608401610df5565b6001808501805460049260ff1990911690836118a1565b6004600185015460ff166004811115611cd657611cd6615951565b1415611d375760405162461bcd60e51b815260206004820152602a60248201527f546865206469737075746520697320616c726561647920696e20746865206c6160448201526939ba103832b934b7b21760b11b6064820152608401610df5565b426002850155600184015460405186917f4e6f5cf43b95303e86aee81683df63992061723a829ee012db21dad388756b9191611d769160ff169061597b565b60405180910390a25050505050565b600080600a8381548110611d9b57611d9b615faf565b6000918252602082206003600490920201908101805491935090611dc190600190615f3c565b81548110611dd157611dd1615faf565b600091825260208220845460078054938102909201945090916001600160601b03909116908110611e0457611e04615faf565b90600052602060002090600b02019050806005015482600301541015611e2f57506000949350505050565b80546007805490916001600160601b0316908110611e4f57611e4f615faf565b6000918252602080832094548352600a600b9092029094010190925250604090205460ff16159392505050565b600080600a8381548110611e9257611e92615faf565b6000918252602082206003600490920201908101805491935090611eb890600190615f3c565b81548110611ec857611ec8615faf565b9060005260206000209060070201905060006008826000015481548110611ef157611ef1615faf565b6000918252602090912060049182020160020154604051631c3db16d60e01b81529182018790526001600160a01b031691508190631c3db16d9060240160206040518083038186803b158015611f4657600080fd5b505afa158015611f5a573d6000803e3d6000fd5b505050506040513d601f19601f82011682018060405250810190611f7e9190616014565b95945050505050565b60078181548110611f9757600080fd5b60009182526020909120600b9091020180546002820154600383015460048401546005909401546001600160601b0384169550600160601b90930460ff1693919290919086565b6000600a8281548110611ff357611ff3615faf565b600091825260209091206001600490920201015460ff1692915050565b6000546001600160a01b0316331461203a5760405162461bcd60e51b8152600401610df590615ee4565b8660078a6001600160601b03168154811061205757612057615faf565b90600052602060002090600b02016002015411156120ed5760405162461bcd60e51b815260206004820152604760248201527f4120737562636f7572742063616e6e6f742062652061206368696c64206f662060448201527f6120737562636f7572742077697468206120686967686572206d696e696d756d6064820152661039ba30b5b29760c91b608482015260a401610df5565b600081511161213e5760405162461bcd60e51b815260206004820152601c60248201527f4d75737420737570706f7274206174206c65617374206f6e6520444b000000006044820152606401610df5565b60078054600181018255600091825290600b82027fa66cc928b5edb82af9bd49922954155ab7b0942694bea4ce44661d9a8736c68801905b835181101561225b57600084828151811061219357612193615faf565b60200260200101511180156121c4575060085484518590839081106121ba576121ba615faf565b6020026020010151105b6122015760405162461bcd60e51b815260206004820152600e60248201526d0aee4dedcce40889640d2dcc8caf60931b6044820152606401610df5565b600182600a01600086848151811061221b5761221b615faf565b6020026020010151815260200190815260200160002060006101000a81548160ff021916908315150217905550808061225390616061565b915050612176565b5080546bffffffffffffffffffffffff19166001600160601b038c1617815560408051600081526020810191829052516122999160018401916156fe565b50805460ff60601b1916600160601b8b15150217815560028101899055600381018890556004808201889055600582018790556122dc9060068301908790615749565b5060405163483abc4f60e11b8152600c6004820152602481018390526044810185905273__$52cf47af9c3c0d67e54ac2a3225447effa$__90639075789e9060640160006040518083038186803b15801561233657600080fd5b505af415801561234a573d6000803e3d6000fd5b5050505060078b6001600160601b03168154811061236a5761236a615faf565b600091825260208083206001600b909302018201805492830181558352909120019190915550505050505050505050565b6000600a84815481106123b0576123b0615faf565b600091825260209091206004918202019150600182015460ff1660048111156123db576123db615951565b146124285760405162461bcd60e51b815260206004820152601b60248201527f53686f756c6420626520657865637574696f6e20706572696f642e00000000006044820152606401610df5565b600081600301848154811061243f5761243f615faf565b906000526020600020906007020190506000600882600001548154811061246857612468615faf565b60009182526020822060049182020160020154908401546001600160a01b03909116925061249790869061607c565b6005840154600685015460405163368efae360e21b8152600481018b9052602481018a905292935090916000906001600160a01b0386169063da3beb8c9060440160206040518083038186803b1580156124f057600080fd5b505afa158015612504573d6000803e3d6000fd5b505050506040513d601f19601f820116820180604052508101906125289190616014565b905060008082612543578386111561253e578395505b612563565b61254e846002616094565b86111561256357612560846002616094565b95505b60048801545b86811015612d955784811015612a1257604051634fe264fb60e01b8152600481018e9052602481018d9052604481018290526001600160a01b03891690634fe264fb9060640160206040518083038186803b1580156125c757600080fd5b505afa1580156125db573d6000803e3d6000fd5b505050506040513d601f19601f820116820180604052508101906125ff9190616014565b91506127108211156126115761271091505b60006127106126208482615f3c565b8b6001015461262f9190616094565b61263991906160c9565b9050612645818861607c565b965089600601828154811061265c5761265c615faf565b60009182526020808320909101546001600160a01b0316808352600b825260408084208f546001600160601b031685526002019092529082208054919650839290916126a9908490615f3c565b90915550508a546007805483926001600160601b03169081106126ce576126ce615faf565b90600052602060002090600b0201600201546126ea919061607c565b6001600160a01b0385166000908152600b602090815260408083208f546001600160601b031684526001019091529020541061277e576001600160a01b0384166000908152600b602090815260408083208e546001600160601b0316845260010190915281205461275c908390615f3c565b8c549091506127779086906001600160601b03168385614f0e565b50506127cf565b6001600160a01b0384166000908152600b602090815260408083208e546001600160601b03168452600101909152902054156127cf578a546127cd9085906001600160601b0316600084614f0e565b505b60405163ba66fde760e01b8152600481018f9052602481018e9052604481018390526001600160a01b038a169063ba66fde79060640160206040518083038186803b15801561281d57600080fd5b505afa158015612831573d6000803e3d6000fd5b505050506040513d601f19601f820116820180604052508101906128559190615f53565b6128f25760005b6001600160a01b0385166000908152600b60205260409020548110156128f0576001600160a01b0385166000908152600b6020526040902080546128dd918791849081106128ac576128ac615faf565b9060005260206000209060029182820401919006600c029054906101000a90046001600160601b0316600080614f0e565b50806128e881616061565b91505061285c565b505b8d6001600160a01b0385167f24f45c2b08bbde8c837d70b67991ccb7660537cf749de21a940ae4858b681e19612927846160dd565b60408051918252600060208301520160405180910390a3612949600187615f3c565b821415612a0c5784612a0c576000805460028c01546040516001600160a01b039092169281156108fc029290818181858888f1505060015460005460405163a9059cbb60e01b81526001600160a01b039182166004820152602481018d90529116935063a9059cbb92506044019050602060405180830381600087803b1580156129d257600080fd5b505af11580156129e6573d6000803e3d6000fd5b505050506040513d601f19601f82011682018060405250810190612a0a9190615f53565b505b50612d83565b6001600160a01b038816634fe264fb8e8e612a2d89866160fa565b6040516001600160e01b031960e086901b16815260048101939093526024830191909152604482015260640160206040518083038186803b158015612a7157600080fd5b505afa158015612a85573d6000803e3d6000fd5b505050506040513d601f19601f82011682018060405250810190612aa99190616014565b9150612710821115612abb5761271091505b60068901612ac986836160fa565b81548110612ad957612ad9615faf565b60009182526020909120015460018a01546001600160a01b03909116935061271090612b06908490616094565b612b1091906160c9565b6001600160a01b0384166000908152600b602090815260408083208e546001600160601b0316845260020190915281208054909190612b50908490615f3c565b90915550506001600160a01b0383166000908152600b602090815260408083208d546001600160601b03168452600101909152902054612c34576000612710838b60010154612b9f9190616094565b612ba991906160c9565b60015460405163a9059cbb60e01b81526001600160a01b0387811660048301526024820184905292935091169063a9059cbb90604401602060405180830381600087803b158015612bf957600080fd5b505af1158015612c0d573d6000803e3d6000fd5b505050506040513d601f19601f82011682018060405250810190612c319190615f53565b50505b600061271083612c44878a6160c9565b612c4e9190616094565b612c5891906160c9565b9050600061271084878d60020154612c7091906160c9565b612c7a9190616094565b612c8491906160c9565b60015460405163a9059cbb60e01b81526001600160a01b0388811660048301526024820186905292935091169063a9059cbb90604401602060405180830381600087803b158015612cd457600080fd5b505af1158015612ce8573d6000803e3d6000fd5b505050506040513d601f19601f82011682018060405250810190612d0c9190615f53565b506040516001600160a01b0386169082156108fc029083906000818181858888f19350505050508e856001600160a01b03167f24f45c2b08bbde8c837d70b67991ccb7660537cf749de21a940ae4858b681e198484604051612d78929190918252602082015260400190565b60405180910390a350505b80612d8d81616061565b915050612569565b5084886005015414612da957600588018590555b50505050600490930155505050505050565b6000600254600160a01b900460ff166001811115612ddb57612ddb615951565b14612e285760405162461bcd60e51b815260206004820152601b60248201527f53686f756c6420626520696e205374616b696e672070686173652e00000000006044820152606401610df5565b6000600e54600183600f54612e3d919061607c565b612e479190615f3c565b11612e525781612e6d565b600f54600e54612e629190615f3c565b612e6d90600161607c565b9050600081600f54612e7f919061607c565b600f549091505b81811015612efe576000818152600d60205260409020805460018201546002830154612ece926001600160a01b03811692600160a01b9091046001600160601b031691614f0e565b50506000818152600d60205260408120818155600181018290556002015580612ef681616061565b915050612e86565b50600f555050565b612f0e615776565b60006007836001600160601b031681548110612f2c57612f2c615faf565b60009182526020909120604080516080810191829052600b9093029091019250600683019060049082845b815481526020019060010190808311612f57575050505050915050919050565b6000546001600160a01b03163314612fa15760405162461bcd60e51b8152600401610df590615ee4565b6001600160601b0382161580613012575080600780846001600160601b031681548110612fd057612fd0615faf565b60009182526020909120600b909102015481546001600160601b03909116908110612ffd57612ffd615faf565b90600052602060002090600b02016002015411155b61301b57600080fd5b60005b6007836001600160601b03168154811061303a5761303a615faf565b90600052602060002090600b02016001018054905081101561315b5781600780856001600160601b03168154811061307457613074615faf565b90600052602060002090600b0201600101838154811061309657613096615faf565b9060005260206000200154815481106130b1576130b1615faf565b90600052602060002090600b02016002015410156131495760405162461bcd60e51b815260206004820152604960248201527f4120737562636f7572742063616e6e6f742062652074686520706172656e742060448201527f6f66206120737562636f75727420776974682061206c6f776572206d696e696d6064820152683ab69039ba30b5b29760b91b608482015260a401610df5565b8061315381616061565b91505061301e565b50806007836001600160601b03168154811061317957613179615faf565b90600052602060002090600b0201600201819055505050565b6060600882815481106131a7576131a7615faf565b906000526020600020906004020160010180548060200260200160405190810160405280929190818152602001828054801561320257602002820191906000526020600020905b8154815260200190600101908083116131ee575b50505050509050919050565b6000600a828154811061322357613223615faf565b6000918252602090912060049091020160010154610100900460ff1692915050565b600a818154811061325557600080fd5b60009182526020909120600490910201805460018201546002909201546001600160601b0382169350600160601b9091046001600160a01b03169160ff80821692610100909204169085565b6000546001600160a01b031633146132cb5760405162461bcd60e51b8152600401610df590615ee4565b806007836001600160601b0316815481106132e8576132e8615faf565b90600052602060002090600b0201600601906004613307929190615749565b505050565b6000546001600160a01b031633146133365760405162461bcd60e51b8152600401610df590615ee4565b806007836001600160601b03168154811061335357613353615faf565b90600052602060002090600b0201600401819055505050565b600080600a838154811061338257613382615faf565b60009182526020822060036004909202019081018054919350906133a890600190615f3c565b815481106133b8576133b8615faf565b600091825260208220845460078054938102909201945090916001600160601b039091169081106133eb576133eb615faf565b90600052602060002090600b0201905080600501548260030154106134865782546001600160601b0316613428576001600160ff1b0393506134b0565b6003820154613438906002616094565b61344390600161607c565b81546007805490916001600160601b031690811061346357613463615faf565b90600052602060002090600b02016004015461347f9190616094565b93506134b0565b6003820154613496906002616094565b6134a190600161607c565b8160040154611f7e9190616094565b505050919050565b6000546001600160a01b031633146134e25760405162461bcd60e51b8152600401610df590615ee4565b806007836001600160601b0316815481106134ff576134ff615faf565b90600052602060002090600b0201600301819055505050565b6000546001600160a01b031633146135425760405162461bcd60e51b8152600401610df590615ee4565b6000836001600160a01b0316838360405161355d919061613a565b60006040518083038185875af1925050503d806000811461359a576040519150601f19603f3d011682016040523d82523d6000602084013e61359f565b606091505b50509050806135e45760405162461bcd60e51b8152602060048201526011602482015270155b9cdd58d8d95cdcd99d5b0818d85b1b607a1b6044820152606401610df5565b50505050565b6135f73383836000614f0e565b6136345760405162461bcd60e51b815260206004820152600e60248201526d14dd185ada5b99c819985a5b195960921b6044820152606401610df5565b5050565b6000546001600160a01b031633146136625760405162461bcd60e51b8152600401610df590615ee4565b600355565b6000806000806060600080600a898154811061368557613685615faf565b9060005260206000209060040201905060008160030189815481106136ac576136ac615faf565b9060005260206000209060070201905080600101548160020154826004015483600501548460060185600001548180548060200260200160405190810160405280929190818152602001828054801561372e57602002820191906000526020600020905b81546001600160a01b03168152600190910190602001808311613710575b5050505050915097509750975097509750975050509295509295509295565b6000600a828154811061376257613762615faf565b600091825260209091206004918202019150600182015460ff16600481111561378d5761378d615951565b146137da5760405162461bcd60e51b815260206004820152601b60248201527f53686f756c6420626520657865637574696f6e20706572696f642e00000000006044820152606401610df5565b6001810154610100900460ff16156138345760405162461bcd60e51b815260206004820152601860248201527f52756c696e6720616c72656164792065786563757465642e00000000000000006044820152606401610df5565b600061383f83611e7c565b60018301805461ff001916610100179055825460405163188d362b60e11b815260048101869052602481018390529192506001600160a01b03600160601b909104169063311a6c5690604401600060405180830381600087803b1580156138a557600080fd5b505af11580156138b9573d6000803e3d6000fd5b50505050505050565b600981815481106138d257600080fd5b600091825260209091200154905081565b6000806000600a84815481106138fb576138fb615faf565b600091825260208220600360049092020190810180549193509061392190600190615f3c565b8154811061393157613931615faf565b90600052602060002090600702019050600881600001548154811061395857613958615faf565b6000918252602090912060049182020160020154604051639b05c26160e01b81529182018790526001600160a01b031690639b05c26190602401604080518083038186803b1580156139a957600080fd5b505afa1580156139bd573d6000803e3d6000fd5b505050506040513d601f19601f820116820180604052508101906139e19190616156565b90969095509350505050565b6000546001600160a01b03163314613a175760405162461bcd60e51b8152600401610df590615ee4565b806007836001600160601b031681548110613a3457613a34615faf565b90600052602060002090600b0201600501819055505050565b6000806000600a8481548110613a6557613a65615faf565b6000918252602090912060049091020190506003600182015460ff166004811115613a9257613a92615951565b1415613aeb576002810154815460078054929550916001600160601b03909116908110613ac157613ac1615faf565b600091825260209091206009600b9092020101546002820154613ae4919061607c565b9150613af4565b60009250600091505b50915091565b6000546001600160a01b03163314613b245760405162461bcd60e51b8152600401610df590615ee4565b600455565b60006001600254600160a01b900460ff166001811115613b4b57613b4b615951565b148015613b665750600454600554613b639042615f3c565b10155b905090565b6000613b7682614dca565b341015613bd75760405162461bcd60e51b815260206004820152602960248201527f4e6f7420656e6f7567682045544820746f20636f76657220617262697472617460448201526834b7b71031b7b9ba1760b91b6064820152608401610df5565b600080613be384615645565b92505091506007826001600160601b031681548110613c0457613c04615faf565b60009182526020808320848452600a600b90930201919091019052604090205460ff16613c8d5760405162461bcd60e51b815260206004820152603160248201527f5468652064697370757465206b6974206973206e6f7420737570706f7274656460448201527008189e481d1a1a5cc81cdd5898dbdd5c9d607a1b6064820152608401610df5565b600a80546001810182556000918252600160601b33026001600160601b03851617600482027fc65a7bb8d6351c1cf70c95a316cc6a92839c986682d98bc35f958f4883f9d2a88101918255427fc65a7bb8d6351c1cf70c95a316cc6a92839c986682d98bc35f958f4883f9d2aa909101556008805492965090929184908110613d1857613d18615faf565b600091825260208220600260049092020101548354600780546001600160a01b039093169450916001600160601b03909116908110613d5957613d59615faf565b60009182526020808320600387018054600181018255908552919093206004600b9093029093019182015491935060070290910190613d9890346160c9565b600380830191909155858255820154600283015461271091613db991616094565b613dc391906160c9565b60018201553460028201556008805486908110613de257613de2615faf565b906000526020600020906004020160020160149054906101000a900460ff16613e7957600160088681548110613e1a57613e1a615faf565b6000918252602082206002600490920201018054921515600160a01b0260ff60a01b19909316929092179091556009805460018101825591527f6e1540171b6c0c960b71a7020d9f60077f6af931a8bbf590da0223dacf75c7af018590555b60038101546040516302dbb79560e61b81526001600160a01b0385169163b6ede54091613eae918b918e918e9160040161617b565b600060405180830381600087803b158015613ec857600080fd5b505af1158015613edc573d6000803e3d6000fd5b50506040513392508991507f141dfc18aa6a56fc816f44f0e9e2f1ebc92b15ab167770e17db5b084c10ed99590600090a350505050505092915050565b6000546001600160a01b03163314613f435760405162461bcd60e51b8152600401610df590615ee4565b600280546001600160a01b0319166001600160a01b0392909216919091179055565b613f6e8361336c565b341015613fc95760405162461bcd60e51b8152602060048201526024808201527f4e6f7420656e6f7567682045544820746f20636f7665722061707065616c206360448201526337b9ba1760e11b6064820152608401610df5565b6000600a8481548110613fde57613fde615faf565b6000918252602090912060049091020190506003600182015460ff16600481111561400b5761400b615951565b146140585760405162461bcd60e51b815260206004820152601a60248201527f44697370757465206973206e6f742061707065616c61626c652e0000000000006044820152606401610df5565b6003810180546000919061406e90600190615f3c565b8154811061407e5761407e615faf565b9060005260206000209060070201905060088160000154815481106140a5576140a5615faf565b60009182526020909120600490910201600201546001600160a01b0316331461411e5760405162461bcd60e51b815260206004820152602560248201527f416363657373206e6f7420616c6c6f7765643a2044697370757465204b69742060448201526437b7363c9760d91b6064820152608401610df5565b8154815460038401805460018101825560009182526020909120600780546001600160601b0390951694928102909101918390811061415f5761415f615faf565b90600052602060002090600b020160050154846003015410614363576007836001600160601b03168154811061419757614197615faf565b600091825260208220600b90910201546001600160601b031693505b600a8110156142a8576007846001600160601b0316815481106141d8576141d8615faf565b60009182526020808320868452600a600b90930201919091019052604090205460ff1615614205576142a8565b60006008848154811061421a5761421a615faf565b9060005260206000209060040201600001541461425d576008838154811061424457614244615faf565b9060005260206000209060040201600001549250614296565b6007846001600160601b03168154811061427957614279615faf565b60009182526020909120600b90910201546001600160601b031693505b806142a081616061565b9150506141b3565b506007836001600160601b0316815481106142c5576142c5615faf565b60009182526020808320858452600a600b90930201919091019052604090205460ff166142f157600092505b84546001600160601b0384811691161461436357845460038601546001600160601b039091169061432490600190615f3c565b6040516001600160601b03861681528a907f736e3f52761298c8c0823e1ebf482ed3c5ecb304f743d2d91a7c006e8e8d7a1f9060200160405180910390a45b84546bffffffffffffffffffffffff19166001600160601b038416908117865560018601805460ff19169055426002870155600780546000929081106143ab576143ab615faf565b90600052602060002090600b020190508060040154346143cb91906160c9565b8260030181905550612710816003015482600201546143ea9190616094565b6143f491906160c9565b6001830155346002830155828255600880548490811061441657614416615faf565b906000526020600020906004020160020160149054906101000a900460ff166144ad5760016008848154811061444e5761444e615faf565b6000918252602082206002600490920201018054921515600160a01b0260ff60a01b19909316929092179091556009805460018101825591527f6e1540171b6c0c960b71a7020d9f60077f6af931a8bbf590da0223dacf75c7af018390555b845482541461459357845460038701546144c990600190615f3c565b83546040519081528b907fcbe7939a71f0b369c7471d760a0a99b60b7bb010ee0406cba8a46679d1ea77569060200160405180910390a4600882600001548154811061451757614517615faf565b600091825260209091206004918202016002015460038401546040516302dbb79560e61b81526001600160a01b039092169263b6ede54092614560928e928e928e92910161617b565b600060405180830381600087803b15801561457a57600080fd5b505af115801561458e573d6000803e3d6000fd5b505050505b8554604051600160601b9091046001600160a01b0316908a907f9c9b64db9e130f48381bf697abf638e73117dbfbfd7a4484f2da3ba188f4187d90600090a3887f4e6f5cf43b95303e86aee81683df63992061723a829ee012db21dad388756b916000604051614603919061597b565b60405180910390a2505050505050505050565b600080600a838154811061462c5761462c615faf565b9060005260206000209060040201905080600301600182600301805490506146549190615f3c565b8154811061466457614664615faf565b906000526020600020906007020160030154915050919050565b6001600254600160a01b900460ff16600181111561469e5761469e615951565b146146da5760405162461bcd60e51b815260206004820152600c60248201526b2bb937b73390383430b9b29760a11b6044820152606401610df5565b6000600a83815481106146ef576146ef615faf565b906000526020600020906004020190506000600182600301805490506147159190615f3c565b9050600082600301828154811061472e5761472e615faf565b6000918252602082206007909102019150600184015460ff16600481111561475857614758615951565b146147a55760405162461bcd60e51b815260206004820152601a60248201527f53686f756c642062652065766964656e636520706572696f642e0000000000006044820152606401610df5565b600060088260000154815481106147be576147be615faf565b60009182526020822060026004909202010154600684015460038501546001600160a01b03909216935091906147f4888461607c565b111561480457836003015461480e565b61480e878361607c565b9050815b8181101561497457604051633b30414760e01b8152600481018a90526000906001600160a01b03861690633b30414790602401602060405180830381600087803b15801561485f57600080fd5b505af1158015614873573d6000803e3d6000fd5b505050506040513d601f19601f8201168201806040525081019061489791906161c4565b90506001600160a01b038116156149615760018601546001600160a01b0382166000908152600b602090815260408083208c546001600160601b03168452600201909152812080549091906148ed90849061607c565b909155505060068601805460018101825560009182526020918290200180546001600160a01b0319166001600160a01b038416908117909155604080518a81529283018590528c927f6119cf536152c11e0a9a6c22f3953ce4ecc93ee54fa72ffa326ffabded21509b910160405180910390a35b508061496c81616061565b915050614812565b505050505050505050565b6000818152600c602090815260409182902080546001820180548551818602810186019096528086529194606094859493919291908301828280156149e357602002820191906000526020600020905b8154815260200190600101908083116149cf575b5050505050925080600201805480602002602001604051908101604052809291908181526020018280548015614a3857602002820191906000526020600020905b815481526020019060010190808311614a24575b50505050509150509193909250565b600060078281548110614a5c57614a5c615faf565b60009182526020909120600b9091020154600160601b900460ff1692915050565b60606009805480602002602001604051908101604052809291908181526020018280548015614acb57602002820191906000526020600020905b815481526020019060010190808311614ab7575b5050505050905090565b6000546001600160a01b03163314614aff5760405162461bcd60e51b8152600401610df590615ee4565b600080546001600160a01b0319166001600160a01b0392909216919091179055565b6000546001600160a01b03163314614b4b5760405162461bcd60e51b8152600401610df590615ee4565b600854808210614b945760405162461bcd60e51b815260206004820152601460248201527314185c995b9d08191bd95cdb89dd08195e1a5cdd60621b6044820152606401610df5565b600082614be45760016007600081548110614bb157614bb1615faf565b60009182526020808320868452600b92909202909101600a01905260409020805460ff1916911515919091179055614c5f565b60088381548110614bf757614bf7615faf565b9060005260206000209060040201600301546001614c15919061607c565b9050600a8110614c5f5760405162461bcd60e51b8152602060048201526015602482015274088cae0e8d040d8caeccad840d2e640c2e840dac2f605b1b6044820152606401610df5565b6040805160a08101825284815281516000808252602080830185528084019283526001600160a01b038916948401949094526060830181905260808301859052600880546001810182559152825160049091027ff3f7a9fe364faab93b216da50a3214154f22a0a2b415b23a84c8169e8b636ee381019182559151805193949193614d11937ff3f7a9fe364faab93b216da50a3214154f22a0a2b415b23a84c8169e8b636ee4019291909101906156fe565b50604082015160028201805460608501511515600160a01b026001600160a81b03199091166001600160a01b03909316929092179190911790556080909101516003909101556008805484908110614d6b57614d6b615faf565b60009182526020808320600160049093020182018054928301815583529091200191909155505050565b6000600a8281548110614daa57614daa615faf565b60009182526020909120600490910201546001600160601b031692915050565b6000806000614dd884615645565b5091509150806007836001600160601b031681548110614dfa57614dfa615faf565b90600052602060002090600b020160040154614e169190616094565b949350505050565b6000546001600160a01b03163314614e485760405162461bcd60e51b8152600401610df590615ee4565b806007836001600160601b031681548110614e6557614e65615faf565b60009182526020909120600b909102018054911515600160601b0260ff60601b199092169190911790555050565b600080600a8381548110614ea957614ea9615faf565b60009182526020909120600360049092020101549392505050565b60006007836001600160601b031681548110614ee257614ee2615faf565b60009182526020808320858452600a600b90930201919091019052604090205460ff1690505b92915050565b6007546000906001600160601b0385161115614f2c57506000614e16565b6001600160a01b0385166000908152600b6020526040812090614f4f87876156b6565b604051637521ccb160e01b8152600c60048201526001600160601b03881660248201526044810182905290915060009073__$52cf47af9c3c0d67e54ac2a3225447effa$__90637521ccb19060640160206040518083038186803b158015614fb657600080fd5b505af4158015614fca573d6000803e3d6000fd5b505050506040513d601f19601f82011682018060405250810190614fee9190616014565b9050851561507c576007876001600160601b03168154811061501257615012615faf565b90600052602060002090600b02016002015486108061504a57506001600160601b038716600090815260028401602052604090205486105b1561505b5760009350505050614e16565b8015801561506b57508254600411155b1561507c5760009350505050614e16565b6000600254600160a01b900460ff16600181111561509c5761509c615951565b14615148576040518060800160405280896001600160a01b03168152602001886001600160601b0316815260200187815260200186815250600d6000600e600081546150e790616061565b9182905550815260208082019290925260409081016000208351928401516001600160601b0316600160a01b026001600160a01b039093169290921782558201516001808301919091556060909201516002909101559350614e1692505050565b60008187106152065761515b8288615f3c565b90508015615201576001546040516323b872dd60e01b81526001600160a01b038b8116600483015230602483015260448201849052909116906323b872dd906064015b602060405180830381600087803b1580156151b857600080fd5b505af11580156151cc573d6000803e3d6000fd5b505050506040513d601f19601f820116820180604052508101906151f09190615f53565b615201576000945050505050614e16565b615331565b8661527d576001600160601b038816600090815260028501602052604090205486906152329084615f3c565b61523c9190615f3c565b905080156152015760015460405163a9059cbb60e01b81526001600160a01b038b81166004830152602482018490529091169063a9059cbb9060440161519e565b856152888884615f3c565b6152929190615f3c565b905080156153315760015460405163a9059cbb60e01b81526001600160a01b038b81166004830152602482018490529091169063a9059cbb90604401602060405180830381600087803b1580156152e857600080fd5b505af11580156152fc573d6000803e3d6000fd5b505050506040513d601f19601f820116820180604052508101906153209190615f53565b615331576000945050505050614e16565b861561537c5781615377578354600180820186556000868152602090206002830401805491909216600c026101000a6001600160601b0381810219909216918b16021790555b6154c8565b60005b84548110156154c657886001600160601b03168560000182815481106153a7576153a7615faf565b600091825260209091206002820401546001909116600c026101000a90046001600160601b031614156154b457845485906153e490600190615f3c565b815481106153f4576153f4615faf565b9060005260206000209060029182820401919006600c029054906101000a90046001600160601b031685600001828154811061543257615432615faf565b9060005260206000209060029182820401919006600c026101000a8154816001600160601b0302191690836001600160601b031602179055508460000180548061547e5761547e61602d565b60008281526020902060026000199092019182040180546001600160601b03600c60018516026101000a021916905590556154c6565b806154be81616061565b91505061537f565b505b6001600160601b038816600090815260018501602052604081205488906154f0908590615f3c565b6154fa919061607c565b6001600160601b038a16600081815260018801602052604081208390559192505b816155de57604051631712e1c560e11b8152600c600482015260248101829052604481018b90526064810187905273__$52cf47af9c3c0d67e54ac2a3225447effa$__90632e25c38a9060840160006040518083038186803b15801561558057600080fd5b505af4158015615594573d6000803e3d6000fd5b5050505060008114156155aa576001915061551b565b600781815481106155bd576155bd615faf565b60009182526020909120600b90910201546001600160601b0316905061551b565b604080516001600160601b038d168152602081018c90529081018490526001600160a01b038d16907f70ca4ec64687bf265f39041896f3dbf10b9f650503cb38f2b3569fdce7489c369060600160405180910390a25060019b9a5050505050505050505050565b600080600060408451106156a3575050506020810151604082015160608301516007546001600160601b0384161061567c57600092505b8161568657600391505b80158061569557506008548110155b1561569e575060015b6156af565b50600091506003905060015b9193909250565b600060405160005b60148110156156d9578481600c011a818301536001016156be565b5060145b60208110156156f55783811a818301536001016156dd565b50519392505050565b828054828255906000526020600020908101928215615739579160200282015b8281111561573957825182559160200191906001019061571e565b50615745929150615794565b5090565b8260048101928215615739579160200282018281111561573957825182559160200191906001019061571e565b60405180608001604052806004906020820280368337509192915050565b5b808211156157455760008155600101615795565b6001600160a01b03811681146157be57600080fd5b50565b6000602082840312156157d357600080fd5b81356157de816157a9565b9392505050565b80356001600160601b03811681146157fc57600080fd5b919050565b634e487b7160e01b600052604160045260246000fd5b604051601f8201601f1916810167ffffffffffffffff8111828210171561584057615840615801565b604052919050565b600082601f83011261585957600080fd5b8135602067ffffffffffffffff82111561587557615875615801565b8160051b615884828201615817565b928352848101820192828101908785111561589e57600080fd5b83870192505b848310156158bd578235825291830191908301906158a4565b979650505050505050565b80151581146157be57600080fd5b6000806000606084860312156158eb57600080fd5b6158f4846157e5565b9250602084013567ffffffffffffffff81111561591057600080fd5b61591c86828701615848565b925050604084013561592d816158c8565b809150509250925092565b60006020828403121561594a57600080fd5b5035919050565b634e487b7160e01b600052602160045260246000fd5b6005811061597757615977615951565b9052565b60208101614f088284615967565b600082601f83011261599a57600080fd5b6040516080810181811067ffffffffffffffff821117156159bd576159bd615801565b6040528060808401858111156159d257600080fd5b845b818110156159ec5780358352602092830192016159d4565b509195945050505050565b60008060008060008060008060006101808a8c031215615a1657600080fd5b615a1f8a6157e5565b985060208a0135615a2f816158c8565b975060408a0135965060608a0135955060808a0135945060a08a01359350615a5a8b60c08c01615989565b92506101408a013591506101608a013567ffffffffffffffff811115615a7f57600080fd5b615a8b8c828d01615848565b9150509295985092959850929598565b600080600060608486031215615ab057600080fd5b505081359360208301359350604090920135919050565b600060208284031215615ad957600080fd5b6157de826157e5565b60808101818360005b6004811015615b0a578151835260209283019290910190600101615aeb565b50505092915050565b60008060408385031215615b2657600080fd5b615b2f836157e5565b946020939093013593505050565b600081518084526020808501945080840160005b83811015615b6d57815187529582019590820190600101615b51565b509495945050505050565b6020815260006157de6020830184615b3d565b6001600160601b03861681526001600160a01b038516602082015260a08101615bb76040830186615967565b9215156060820152608001529392505050565b60008060a08385031215615bdd57600080fd5b615be6836157e5565b9150615bf58460208501615989565b90509250929050565b600082601f830112615c0f57600080fd5b813567ffffffffffffffff811115615c2957615c29615801565b615c3c601f8201601f1916602001615817565b818152846020838601011115615c5157600080fd5b816020850160208301376000918101602001919091529392505050565b600080600060608486031215615c8357600080fd5b8335615c8e816157a9565b925060208401359150604084013567ffffffffffffffff811115615cb157600080fd5b615cbd86828701615bfe565b9150509250925092565b60008060408385031215615cda57600080fd5b50508035926020909101359150565b600060c082018883526020888185015287604085015286606085015260c0608085015281865180845260e086019150828801935060005b81811015615d455784516001600160a01b031683529383019391830191600101615d20565b50508093505050508260a0830152979650505050505050565b6020810160028310615d7257615d72615951565b91905290565b60008060408385031215615d8b57600080fd5b82359150602083013567ffffffffffffffff811115615da957600080fd5b615db585828601615bfe565b9150509250929050565b600080600060608486031215615dd457600080fd5b8335925060208401359150604084013567ffffffffffffffff811115615cb157600080fd5b60008060408385031215615e0c57600080fd5b8235615e17816157a9565b9150615bf5602084016157e5565b838152606060208201526000615e3e6060830185615b3d565b8281036040840152615e508185615b3d565b9695505050505050565b60008060408385031215615e6d57600080fd5b8235615b2f816157a9565b600060208284031215615e8a57600080fd5b813567ffffffffffffffff811115615ea157600080fd5b614e1684828501615bfe565b60008060408385031215615ec057600080fd5b615ec9836157e5565b91506020830135615ed9816158c8565b809150509250929050565b60208082526022908201527f416363657373206e6f7420616c6c6f7765643a20476f7665726e6f72206f6e6c6040820152613c9760f11b606082015260800190565b634e487b7160e01b600052601160045260246000fd5b600082821015615f4e57615f4e615f26565b500390565b600060208284031215615f6557600080fd5b81516157de816158c8565b60008083128015600160ff1b850184121615615f8e57615f8e615f26565b6001600160ff1b0384018313811615615fa957615fa9615f26565b50500390565b634e487b7160e01b600052603260045260246000fd5b6020808252602f908201527f412064697370757465206b697420686173206e6f742070617373656420746f2060408201526e5265736f6c76696e6720706861736560881b606082015260800190565b60006020828403121561602657600080fd5b5051919050565b634e487b7160e01b600052603160045260246000fd5b6000600160ff1b82141561605957616059615f26565b506000190190565b600060001982141561607557616075615f26565b5060010190565b6000821982111561608f5761608f615f26565b500190565b60008160001904831182151516156160ae576160ae615f26565b500290565b634e487b7160e01b600052601260045260246000fd5b6000826160d8576160d86160b3565b500490565b6000600160ff1b8214156160f3576160f3615f26565b5060000390565b600082616109576161096160b3565b500690565b60005b83811015616129578181015183820152602001616111565b838111156135e45750506000910152565b6000825161614c81846020870161610e565b9190910192915050565b6000806040838503121561616957600080fd5b825191506020830151615ed9816158c8565b84815283602082015260806040820152600083518060808401526161a68160a085016020880161610e565b606083019390935250601f91909101601f19160160a0019392505050565b6000602082840312156161d657600080fd5b81516157de816157a956fea2646970667358221220b53fcbd02ac3d85e0d3134259a340913e0dd007de7acfda4ab957a9b6c3c0d8764736f6c63430008090033",
  "libraries": {
    "SortitionSumTreeFactory": "0x16f20604a51Ac1e68c9aAd1C0E53e951B62CC1Cb"
  },
  "devdoc": {
    "kind": "dev",
    "methods": {
      "addNewDisputeKit(address,uint256)": {
        "details": "Add a new supported dispute kit module to the court.",
        "params": {
          "_disputeKitAddress": "The address of the dispute kit contract.",
          "_parent": "The ID of the parent dispute kit. It is left empty when root DK is created.  Note that the root DK must be supported by the forking court."
        }
      },
      "appeal(uint256,uint256,bytes)": {
        "details": "Appeals the ruling of a specified dispute.  Note: Access restricted to the Dispute Kit for this `disputeID`.",
        "params": {
          "_disputeID": "The ID of the dispute.",
          "_extraData": "Extradata for the dispute. Can be required during court jump.",
          "_numberOfChoices": "Number of choices for the dispute. Can be required during court jump."
        }
      },
      "appealCost(uint256)": {
        "details": "Gets the cost of appealing a specified dispute.",
        "params": {
          "_disputeID": "The ID of the dispute."
        },
        "returns": {
          "cost": "The appeal cost."
        }
      },
      "appealPeriod(uint256)": {
        "details": "Gets the start and the end of a specified dispute's current appeal period.",
        "params": {
          "_disputeID": "The ID of the dispute."
        },
        "returns": {
          "end": "The end of the appeal period.",
          "start": "The start of the appeal period."
        }
      },
      "arbitrationCost(bytes)": {
        "details": "Gets the cost of arbitration in a specified subcourt.",
        "params": {
          "_extraData": "Additional info about the dispute. We use it to pass the ID of the subcourt to create the dispute in (first 32 bytes)  and the minimum number of jurors required (next 32 bytes)."
        },
        "returns": {
          "cost": "The arbitration cost."
        }
      },
      "changeGovernor(address)": {
        "details": "Changes the `governor` storage variable.",
        "params": {
          "_governor": "The new value for the `governor` storage variable."
        }
      },
      "changeHiddenVotes(uint96,bool)": {
        "details": "Changes the `hiddenVotes` property value of a specified subcourt.",
        "params": {
          "_hiddenVotes": "The new value for the `hiddenVotes` property value.",
          "_subcourtID": "The ID of the subcourt."
        }
      },
      "changeJurorProsecutionModule(address)": {
        "details": "Changes the `jurorProsecutionModule` storage variable.",
        "params": {
          "_jurorProsecutionModule": "The new value for the `jurorProsecutionModule` storage variable."
        }
      },
      "changeMaxFreezingTime(uint256)": {
        "details": "Changes the `maxFreezingTime` storage variable.",
        "params": {
          "_maxFreezingTime": "The new value for the `maxFreezingTime` storage variable."
        }
      },
      "changeMinStakingTime(uint256)": {
        "details": "Changes the `minStakingTime` storage variable.",
        "params": {
          "_minStakingTime": "The new value for the `minStakingTime` storage variable."
        }
      },
      "changePinakion(address)": {
        "details": "Changes the `pinakion` storage variable.",
        "params": {
          "_pinakion": "The new value for the `pinakion` storage variable."
        }
      },
      "changeSubcourtAlpha(uint96,uint256)": {
        "details": "Changes the `alpha` property value of a specified subcourt.",
        "params": {
          "_alpha": "The new value for the `alpha` property value.",
          "_subcourtID": "The ID of the subcourt."
        }
      },
      "changeSubcourtJurorFee(uint96,uint256)": {
        "details": "Changes the `feeForJuror` property value of a specified subcourt.",
        "params": {
          "_feeForJuror": "The new value for the `feeForJuror` property value.",
          "_subcourtID": "The ID of the subcourt."
        }
      },
      "changeSubcourtJurorsForJump(uint96,uint256)": {
        "details": "Changes the `jurorsForCourtJump` property value of a specified subcourt.",
        "params": {
          "_jurorsForCourtJump": "The new value for the `jurorsForCourtJump` property value.",
          "_subcourtID": "The ID of the subcourt."
        }
      },
      "changeSubcourtMinStake(uint96,uint256)": {
        "details": "Changes the `minStake` property value of a specified subcourt. Don't set to a value lower than its parent's `minStake` property value.",
        "params": {
          "_minStake": "The new value for the `minStake` property value.",
          "_subcourtID": "The ID of the subcourt."
        }
      },
      "changeSubcourtTimesPerPeriod(uint96,uint256[4])": {
        "details": "Changes the `timesPerPeriod` property value of a specified subcourt.",
        "params": {
          "_subcourtID": "The ID of the subcourt.",
          "_timesPerPeriod": "The new value for the `timesPerPeriod` property value."
        }
      },
      "constructor": {
        "details": "Constructor.",
        "params": {
          "_courtParameters": "Numeric parameters of Forking court (minStake, alpha, feeForJuror and jurorsForCourtJump respectively).",
          "_disputeKit": "The address of the default dispute kit.",
          "_governor": "The governor's address.",
          "_hiddenVotes": "The `hiddenVotes` property value of the forking court.",
          "_jurorProsecutionModule": "The address of the juror prosecution module.",
          "_phaseTimeouts": "minStakingTime and maxFreezingTime respectively",
          "_pinakion": "The address of the token contract.",
          "_sortitionSumTreeK": "The number of children per node of the forking court's sortition sum tree.",
          "_timesPerPeriod": "The `timesPerPeriod` property value of the forking court."
        }
      },
      "createDispute(uint256,bytes)": {
        "details": "Creates a dispute. Must be called by the arbitrable contract.",
        "params": {
          "_extraData": "Additional info about the dispute. We use it to pass the ID of the dispute's subcourt (first 32 bytes),  the minimum number of jurors required (next 32 bytes) and the ID of the specific dispute kit (last 32 bytes).",
          "_numberOfChoices": "Number of choices for the jurors to choose from."
        },
        "returns": {
          "disputeID": "The ID of the created dispute."
        }
      },
      "createSubcourt(uint96,bool,uint256,uint256,uint256,uint256,uint256[4],uint256,uint256[])": {
        "details": "Creates a subcourt under a specified parent court.",
        "params": {
          "_alpha": "The `alpha` property value of the subcourt.",
          "_feeForJuror": "The `feeForJuror` property value of the subcourt.",
          "_hiddenVotes": "The `hiddenVotes` property value of the subcourt.",
          "_jurorsForCourtJump": "The `jurorsForCourtJump` property value of the subcourt.",
          "_minStake": "The `minStake` property value of the subcourt.",
          "_parent": "The `parent` property value of the subcourt.",
          "_sortitionSumTreeK": "The number of children per node of the subcourt's sortition sum tree.",
          "_supportedDisputeKits": "Indexes of dispute kits that this subcourt will support.",
          "_timesPerPeriod": "The `timesPerPeriod` property value of the subcourt."
        }
      },
      "currentRuling(uint256)": {
        "details": "Gets the current ruling of a specified dispute.",
        "params": {
          "_disputeID": "The ID of the dispute."
        },
        "returns": {
          "ruling": "The current ruling."
        }
      },
      "draw(uint256,uint256)": {
        "details": "Draws jurors for the dispute. Can be called in parts.",
        "params": {
          "_disputeID": "The ID of the dispute.",
          "_iterations": "The number of iterations to run."
        }
      },
      "enableDisputeKits(uint96,uint256[],bool)": {
        "details": "Adds/removes court's support for specified dispute kits..",
        "params": {
          "_disputeKitIDs": "The IDs of dispute kits which support should be added/removed.",
          "_enable": "Whether add or remove the dispute kits from the subcourt.",
          "_subcourtID": "The ID of the subcourt."
        }
      },
      "execute(uint256,uint256,uint256)": {
        "details": "Distribute tokens and ETH for the specific round of the dispute. Can be called in parts.",
        "params": {
          "_disputeID": "The ID of the dispute.",
          "_iterations": "The number of iterations to run.",
          "_round": "The appeal round."
        }
      },
      "executeDelayedStakes(uint256)": {
        "details": "Executes the next delayed stakes.",
        "params": {
          "_iterations": "The number of delayed stakes to execute."
        }
      },
      "executeGovernorProposal(address,uint256,bytes)": {
        "details": "Allows the governor to call anything on behalf of the contract.",
        "params": {
          "_amount": "The value sent with the call.",
          "_data": "The data sent with the call.",
          "_destination": "The destination of the call."
        }
      },
      "executeRuling(uint256)": {
        "details": "Executes a specified dispute's ruling. UNTRUSTED.",
        "params": {
          "_disputeID": "The ID of the dispute."
        }
      },
      "getDisputeKitChildren(uint256)": {
        "details": "Gets non-primitive properties of a specified dispute kit node.",
        "params": {
          "_disputeKitID": "The ID of the dispute kit."
        },
        "returns": {
          "_0": "children Indexes of children of this DK."
        }
      },
      "getTimesPerPeriod(uint96)": {
        "details": "Gets the timesPerPeriod array for a given court.",
        "params": {
          "_subcourtID": "The ID of the court to get the times from."
        },
        "returns": {
          "timesPerPeriod": "The timesPerPeriod array for the given court."
        }
      },
      "isDisputeKitJumping(uint256)": {
        "details": "Returns true if the dispute kit will be switched to a parent DK.",
        "params": {
          "_disputeID": "The ID of the dispute."
        },
        "returns": {
          "_0": "Whether DK will be switched or not."
        }
      },
      "passPeriod(uint256)": {
        "details": "Passes the period of a specified dispute.",
        "params": {
          "_disputeID": "The ID of the dispute."
        }
      },
      "passPhase()": {
        "details": "Switches the phases between Staking and Freezing, also signal the switch to the dispute kits."
      },
      "setStake(uint96,uint256)": {
        "details": "Sets the caller's stake in a subcourt.",
        "params": {
          "_stake": "The new stake.",
          "_subcourtID": "The ID of the subcourt."
        }
      }
    },
    "title": "KlerosCore  Core arbitrator contract for Kleros v2.",
    "version": 1
  },
  "userdoc": {
    "kind": "user",
    "methods": {},
    "version": 1
  },
  "storageLayout": {
    "storage": [
      {
        "astId": 2245,
        "contract": "src/arbitration/KlerosCore.sol:KlerosCore",
        "label": "governor",
        "offset": 0,
        "slot": "0",
        "type": "t_address"
      },
      {
        "astId": 2248,
        "contract": "src/arbitration/KlerosCore.sol:KlerosCore",
        "label": "pinakion",
        "offset": 0,
        "slot": "1",
        "type": "t_contract(IERC20)663"
      },
      {
        "astId": 2250,
        "contract": "src/arbitration/KlerosCore.sol:KlerosCore",
        "label": "jurorProsecutionModule",
        "offset": 0,
        "slot": "2",
        "type": "t_address"
      },
      {
        "astId": 2253,
        "contract": "src/arbitration/KlerosCore.sol:KlerosCore",
        "label": "phase",
        "offset": 20,
        "slot": "2",
        "type": "t_enum(Phase)2115"
      },
      {
        "astId": 2255,
        "contract": "src/arbitration/KlerosCore.sol:KlerosCore",
        "label": "minStakingTime",
        "offset": 0,
        "slot": "3",
        "type": "t_uint256"
      },
      {
        "astId": 2257,
        "contract": "src/arbitration/KlerosCore.sol:KlerosCore",
        "label": "maxFreezingTime",
        "offset": 0,
        "slot": "4",
        "type": "t_uint256"
      },
      {
        "astId": 2259,
        "contract": "src/arbitration/KlerosCore.sol:KlerosCore",
        "label": "lastPhaseChange",
        "offset": 0,
        "slot": "5",
        "type": "t_uint256"
      },
      {
        "astId": 2261,
        "contract": "src/arbitration/KlerosCore.sol:KlerosCore",
        "label": "freezeBlock",
        "offset": 0,
        "slot": "6",
        "type": "t_uint256"
      },
      {
        "astId": 2265,
        "contract": "src/arbitration/KlerosCore.sol:KlerosCore",
        "label": "courts",
        "offset": 0,
        "slot": "7",
        "type": "t_array(t_struct(Court)2145_storage)dyn_storage"
      },
      {
        "astId": 2269,
        "contract": "src/arbitration/KlerosCore.sol:KlerosCore",
        "label": "disputeKitNodes",
        "offset": 0,
        "slot": "8",
        "type": "t_array(t_struct(DisputeKitNode)2203_storage)dyn_storage"
      },
      {
        "astId": 2272,
        "contract": "src/arbitration/KlerosCore.sol:KlerosCore",
        "label": "disputesKitIDsThatNeedFreezing",
        "offset": 0,
        "slot": "9",
        "type": "t_array(t_uint256)dyn_storage"
      },
      {
        "astId": 2276,
        "contract": "src/arbitration/KlerosCore.sol:KlerosCore",
        "label": "disputes",
        "offset": 0,
        "slot": "10",
        "type": "t_array(t_struct(Dispute)2162_storage)dyn_storage"
      },
      {
        "astId": 2281,
        "contract": "src/arbitration/KlerosCore.sol:KlerosCore",
        "label": "jurors",
        "offset": 0,
        "slot": "11",
        "type": "t_mapping(t_address,t_struct(Juror)2190_storage)"
      },
      {
        "astId": 2284,
        "contract": "src/arbitration/KlerosCore.sol:KlerosCore",
        "label": "sortitionSumTrees",
        "offset": 0,
        "slot": "12",
        "type": "t_struct(SortitionSumTrees)12683_storage"
      },
      {
        "astId": 2289,
        "contract": "src/arbitration/KlerosCore.sol:KlerosCore",
        "label": "delayedStakes",
        "offset": 0,
        "slot": "13",
        "type": "t_mapping(t_uint256,t_struct(DelayedStake)2212_storage)"
      },
      {
        "astId": 2291,
        "contract": "src/arbitration/KlerosCore.sol:KlerosCore",
        "label": "delayedStakeWriteIndex",
        "offset": 0,
        "slot": "14",
        "type": "t_uint256"
      },
      {
        "astId": 2294,
        "contract": "src/arbitration/KlerosCore.sol:KlerosCore",
        "label": "delayedStakeReadIndex",
        "offset": 0,
        "slot": "15",
        "type": "t_uint256"
      }
    ],
    "types": {
      "t_address": {
        "encoding": "inplace",
        "label": "address",
        "numberOfBytes": "20"
      },
      "t_array(t_address)dyn_storage": {
        "base": "t_address",
        "encoding": "dynamic_array",
        "label": "address[]",
        "numberOfBytes": "32"
      },
      "t_array(t_struct(Court)2145_storage)dyn_storage": {
        "base": "t_struct(Court)2145_storage",
        "encoding": "dynamic_array",
        "label": "struct KlerosCore.Court[]",
        "numberOfBytes": "32"
      },
      "t_array(t_struct(Dispute)2162_storage)dyn_storage": {
        "base": "t_struct(Dispute)2162_storage",
        "encoding": "dynamic_array",
        "label": "struct KlerosCore.Dispute[]",
        "numberOfBytes": "32"
      },
      "t_array(t_struct(DisputeKitNode)2203_storage)dyn_storage": {
        "base": "t_struct(DisputeKitNode)2203_storage",
        "encoding": "dynamic_array",
        "label": "struct KlerosCore.DisputeKitNode[]",
        "numberOfBytes": "32"
      },
      "t_array(t_struct(Round)2178_storage)dyn_storage": {
        "base": "t_struct(Round)2178_storage",
        "encoding": "dynamic_array",
        "label": "struct KlerosCore.Round[]",
        "numberOfBytes": "32"
      },
      "t_array(t_uint256)4_storage": {
        "base": "t_uint256",
        "encoding": "inplace",
        "label": "uint256[4]",
        "numberOfBytes": "128"
      },
      "t_array(t_uint256)dyn_storage": {
        "base": "t_uint256",
        "encoding": "dynamic_array",
        "label": "uint256[]",
        "numberOfBytes": "32"
      },
      "t_array(t_uint96)dyn_storage": {
        "base": "t_uint96",
        "encoding": "dynamic_array",
        "label": "uint96[]",
        "numberOfBytes": "32"
      },
      "t_bool": {
        "encoding": "inplace",
        "label": "bool",
        "numberOfBytes": "1"
      },
      "t_bytes32": {
        "encoding": "inplace",
        "label": "bytes32",
        "numberOfBytes": "32"
      },
      "t_contract(IArbitrable)1920": {
        "encoding": "inplace",
        "label": "contract IArbitrable",
        "numberOfBytes": "20"
      },
      "t_contract(IDisputeKit)2098": {
        "encoding": "inplace",
        "label": "contract IDisputeKit",
        "numberOfBytes": "20"
      },
      "t_contract(IERC20)663": {
        "encoding": "inplace",
        "label": "contract IERC20",
        "numberOfBytes": "20"
      },
      "t_enum(Period)2121": {
        "encoding": "inplace",
        "label": "enum KlerosCore.Period",
        "numberOfBytes": "1"
      },
      "t_enum(Phase)2115": {
        "encoding": "inplace",
        "label": "enum KlerosCore.Phase",
        "numberOfBytes": "1"
      },
      "t_mapping(t_address,t_struct(Juror)2190_storage)": {
        "encoding": "mapping",
        "key": "t_address",
        "label": "mapping(address => struct KlerosCore.Juror)",
        "numberOfBytes": "32",
        "value": "t_struct(Juror)2190_storage"
      },
      "t_mapping(t_bytes32,t_struct(SortitionSumTree)12677_storage)": {
        "encoding": "mapping",
        "key": "t_bytes32",
        "label": "mapping(bytes32 => struct SortitionSumTreeFactory.SortitionSumTree)",
        "numberOfBytes": "32",
        "value": "t_struct(SortitionSumTree)12677_storage"
      },
      "t_mapping(t_bytes32,t_uint256)": {
        "encoding": "mapping",
        "key": "t_bytes32",
        "label": "mapping(bytes32 => uint256)",
        "numberOfBytes": "32",
        "value": "t_uint256"
      },
      "t_mapping(t_uint256,t_bool)": {
        "encoding": "mapping",
        "key": "t_uint256",
        "label": "mapping(uint256 => bool)",
        "numberOfBytes": "32",
        "value": "t_bool"
      },
      "t_mapping(t_uint256,t_bytes32)": {
        "encoding": "mapping",
        "key": "t_uint256",
        "label": "mapping(uint256 => bytes32)",
        "numberOfBytes": "32",
        "value": "t_bytes32"
      },
      "t_mapping(t_uint256,t_struct(DelayedStake)2212_storage)": {
        "encoding": "mapping",
        "key": "t_uint256",
        "label": "mapping(uint256 => struct KlerosCore.DelayedStake)",
        "numberOfBytes": "32",
        "value": "t_struct(DelayedStake)2212_storage"
      },
      "t_mapping(t_uint96,t_uint256)": {
        "encoding": "mapping",
        "key": "t_uint96",
        "label": "mapping(uint96 => uint256)",
        "numberOfBytes": "32",
        "value": "t_uint256"
      },
      "t_struct(Court)2145_storage": {
        "encoding": "inplace",
        "label": "struct KlerosCore.Court",
        "members": [
          {
            "astId": 2123,
            "contract": "src/arbitration/KlerosCore.sol:KlerosCore",
            "label": "parent",
            "offset": 0,
            "slot": "0",
            "type": "t_uint96"
          },
          {
            "astId": 2125,
            "contract": "src/arbitration/KlerosCore.sol:KlerosCore",
            "label": "hiddenVotes",
            "offset": 12,
            "slot": "0",
            "type": "t_bool"
          },
          {
            "astId": 2128,
            "contract": "src/arbitration/KlerosCore.sol:KlerosCore",
            "label": "children",
            "offset": 0,
            "slot": "1",
            "type": "t_array(t_uint256)dyn_storage"
          },
          {
            "astId": 2130,
            "contract": "src/arbitration/KlerosCore.sol:KlerosCore",
            "label": "minStake",
            "offset": 0,
            "slot": "2",
            "type": "t_uint256"
          },
          {
            "astId": 2132,
            "contract": "src/arbitration/KlerosCore.sol:KlerosCore",
            "label": "alpha",
            "offset": 0,
            "slot": "3",
            "type": "t_uint256"
          },
          {
            "astId": 2134,
            "contract": "src/arbitration/KlerosCore.sol:KlerosCore",
            "label": "feeForJuror",
            "offset": 0,
            "slot": "4",
            "type": "t_uint256"
          },
          {
            "astId": 2136,
            "contract": "src/arbitration/KlerosCore.sol:KlerosCore",
            "label": "jurorsForCourtJump",
            "offset": 0,
            "slot": "5",
            "type": "t_uint256"
          },
          {
            "astId": 2140,
            "contract": "src/arbitration/KlerosCore.sol:KlerosCore",
            "label": "timesPerPeriod",
            "offset": 0,
            "slot": "6",
            "type": "t_array(t_uint256)4_storage"
          },
          {
            "astId": 2144,
            "contract": "src/arbitration/KlerosCore.sol:KlerosCore",
            "label": "supportedDisputeKits",
            "offset": 0,
            "slot": "10",
            "type": "t_mapping(t_uint256,t_bool)"
          }
        ],
        "numberOfBytes": "352"
      },
      "t_struct(DelayedStake)2212_storage": {
        "encoding": "inplace",
        "label": "struct KlerosCore.DelayedStake",
        "members": [
          {
            "astId": 2205,
            "contract": "src/arbitration/KlerosCore.sol:KlerosCore",
            "label": "account",
            "offset": 0,
            "slot": "0",
            "type": "t_address"
          },
          {
            "astId": 2207,
            "contract": "src/arbitration/KlerosCore.sol:KlerosCore",
            "label": "subcourtID",
            "offset": 20,
            "slot": "0",
            "type": "t_uint96"
          },
          {
            "astId": 2209,
            "contract": "src/arbitration/KlerosCore.sol:KlerosCore",
            "label": "stake",
            "offset": 0,
            "slot": "1",
            "type": "t_uint256"
          },
          {
            "astId": 2211,
            "contract": "src/arbitration/KlerosCore.sol:KlerosCore",
            "label": "penalty",
            "offset": 0,
            "slot": "2",
            "type": "t_uint256"
          }
        ],
        "numberOfBytes": "96"
      },
      "t_struct(Dispute)2162_storage": {
        "encoding": "inplace",
        "label": "struct KlerosCore.Dispute",
        "members": [
          {
            "astId": 2147,
            "contract": "src/arbitration/KlerosCore.sol:KlerosCore",
            "label": "subcourtID",
            "offset": 0,
            "slot": "0",
            "type": "t_uint96"
          },
          {
            "astId": 2150,
            "contract": "src/arbitration/KlerosCore.sol:KlerosCore",
            "label": "arbitrated",
            "offset": 12,
            "slot": "0",
            "type": "t_contract(IArbitrable)1920"
          },
          {
            "astId": 2153,
            "contract": "src/arbitration/KlerosCore.sol:KlerosCore",
            "label": "period",
            "offset": 0,
            "slot": "1",
            "type": "t_enum(Period)2121"
          },
          {
            "astId": 2155,
            "contract": "src/arbitration/KlerosCore.sol:KlerosCore",
            "label": "ruled",
            "offset": 1,
            "slot": "1",
            "type": "t_bool"
          },
          {
            "astId": 2157,
            "contract": "src/arbitration/KlerosCore.sol:KlerosCore",
            "label": "lastPeriodChange",
            "offset": 0,
            "slot": "2",
            "type": "t_uint256"
          },
          {
            "astId": 2161,
            "contract": "src/arbitration/KlerosCore.sol:KlerosCore",
            "label": "rounds",
            "offset": 0,
            "slot": "3",
            "type": "t_array(t_struct(Round)2178_storage)dyn_storage"
          }
        ],
        "numberOfBytes": "128"
      },
      "t_struct(DisputeKitNode)2203_storage": {
        "encoding": "inplace",
        "label": "struct KlerosCore.DisputeKitNode",
        "members": [
          {
            "astId": 2192,
            "contract": "src/arbitration/KlerosCore.sol:KlerosCore",
            "label": "parent",
            "offset": 0,
            "slot": "0",
            "type": "t_uint256"
          },
          {
            "astId": 2195,
            "contract": "src/arbitration/KlerosCore.sol:KlerosCore",
            "label": "children",
            "offset": 0,
            "slot": "1",
            "type": "t_array(t_uint256)dyn_storage"
          },
          {
            "astId": 2198,
            "contract": "src/arbitration/KlerosCore.sol:KlerosCore",
            "label": "disputeKit",
            "offset": 0,
            "slot": "2",
            "type": "t_contract(IDisputeKit)2098"
          },
          {
            "astId": 2200,
            "contract": "src/arbitration/KlerosCore.sol:KlerosCore",
            "label": "needsFreezing",
            "offset": 20,
            "slot": "2",
            "type": "t_bool"
          },
          {
            "astId": 2202,
            "contract": "src/arbitration/KlerosCore.sol:KlerosCore",
            "label": "depthLevel",
            "offset": 0,
            "slot": "3",
            "type": "t_uint256"
          }
        ],
        "numberOfBytes": "128"
      },
      "t_struct(Juror)2190_storage": {
        "encoding": "inplace",
        "label": "struct KlerosCore.Juror",
        "members": [
          {
            "astId": 2181,
            "contract": "src/arbitration/KlerosCore.sol:KlerosCore",
            "label": "subcourtIDs",
            "offset": 0,
            "slot": "0",
            "type": "t_array(t_uint96)dyn_storage"
          },
          {
            "astId": 2185,
            "contract": "src/arbitration/KlerosCore.sol:KlerosCore",
            "label": "stakedTokens",
            "offset": 0,
            "slot": "1",
            "type": "t_mapping(t_uint96,t_uint256)"
          },
          {
            "astId": 2189,
            "contract": "src/arbitration/KlerosCore.sol:KlerosCore",
            "label": "lockedTokens",
            "offset": 0,
            "slot": "2",
            "type": "t_mapping(t_uint96,t_uint256)"
          }
        ],
        "numberOfBytes": "96"
      },
      "t_struct(Round)2178_storage": {
        "encoding": "inplace",
        "label": "struct KlerosCore.Round",
        "members": [
          {
            "astId": 2164,
            "contract": "src/arbitration/KlerosCore.sol:KlerosCore",
            "label": "disputeKitID",
            "offset": 0,
            "slot": "0",
            "type": "t_uint256"
          },
          {
            "astId": 2166,
            "contract": "src/arbitration/KlerosCore.sol:KlerosCore",
            "label": "tokensAtStakePerJuror",
            "offset": 0,
            "slot": "1",
            "type": "t_uint256"
          },
          {
            "astId": 2168,
            "contract": "src/arbitration/KlerosCore.sol:KlerosCore",
            "label": "totalFeesForJurors",
            "offset": 0,
            "slot": "2",
            "type": "t_uint256"
          },
          {
            "astId": 2170,
            "contract": "src/arbitration/KlerosCore.sol:KlerosCore",
            "label": "nbVotes",
            "offset": 0,
            "slot": "3",
            "type": "t_uint256"
          },
          {
            "astId": 2172,
            "contract": "src/arbitration/KlerosCore.sol:KlerosCore",
            "label": "repartitions",
            "offset": 0,
            "slot": "4",
            "type": "t_uint256"
          },
          {
            "astId": 2174,
            "contract": "src/arbitration/KlerosCore.sol:KlerosCore",
            "label": "penalties",
            "offset": 0,
            "slot": "5",
            "type": "t_uint256"
          },
          {
            "astId": 2177,
            "contract": "src/arbitration/KlerosCore.sol:KlerosCore",
            "label": "drawnJurors",
            "offset": 0,
            "slot": "6",
            "type": "t_array(t_address)dyn_storage"
          }
        ],
        "numberOfBytes": "224"
      },
      "t_struct(SortitionSumTree)12677_storage": {
        "encoding": "inplace",
        "label": "struct SortitionSumTreeFactory.SortitionSumTree",
        "members": [
          {
            "astId": 12662,
            "contract": "src/arbitration/KlerosCore.sol:KlerosCore",
            "label": "K",
            "offset": 0,
            "slot": "0",
            "type": "t_uint256"
          },
          {
            "astId": 12665,
            "contract": "src/arbitration/KlerosCore.sol:KlerosCore",
            "label": "stack",
            "offset": 0,
            "slot": "1",
            "type": "t_array(t_uint256)dyn_storage"
          },
          {
            "astId": 12668,
            "contract": "src/arbitration/KlerosCore.sol:KlerosCore",
            "label": "nodes",
            "offset": 0,
            "slot": "2",
            "type": "t_array(t_uint256)dyn_storage"
          },
          {
            "astId": 12672,
            "contract": "src/arbitration/KlerosCore.sol:KlerosCore",
            "label": "IDsToNodeIndexes",
            "offset": 0,
            "slot": "3",
            "type": "t_mapping(t_bytes32,t_uint256)"
          },
          {
            "astId": 12676,
            "contract": "src/arbitration/KlerosCore.sol:KlerosCore",
            "label": "nodeIndexesToIDs",
            "offset": 0,
            "slot": "4",
            "type": "t_mapping(t_uint256,t_bytes32)"
          }
        ],
        "numberOfBytes": "160"
      },
      "t_struct(SortitionSumTrees)12683_storage": {
        "encoding": "inplace",
        "label": "struct SortitionSumTreeFactory.SortitionSumTrees",
        "members": [
          {
            "astId": 12682,
            "contract": "src/arbitration/KlerosCore.sol:KlerosCore",
            "label": "sortitionSumTrees",
            "offset": 0,
            "slot": "0",
            "type": "t_mapping(t_bytes32,t_struct(SortitionSumTree)12677_storage)"
          }
        ],
        "numberOfBytes": "32"
      },
      "t_uint256": {
        "encoding": "inplace",
        "label": "uint256",
        "numberOfBytes": "32"
      },
      "t_uint96": {
        "encoding": "inplace",
        "label": "uint96",
        "numberOfBytes": "12"
      }
    }
  }
}