{
  "address": "0xd08452AEE7ab5bE3BF6733BA0d3F0CFdaf060Aa2",
  "abi": [
    {
      "inputs": [
        {
          "internalType": "address",
          "name": "_governor",
          "type": "address"
        },
        {
          "internalType": "contract IERC20",
          "name": "_pinakion",
          "type": "address"
        },
        {
          "internalType": "address",
          "name": "_jurorProsecutionModule",
          "type": "address"
        },
        {
          "internalType": "contract IDisputeKit",
          "name": "_disputeKit",
          "type": "address"
        },
        {
          "internalType": "bool",
          "name": "_hiddenVotes",
          "type": "bool"
        },
        {
          "internalType": "uint256",
          "name": "_minStake",
          "type": "uint256"
        },
        {
          "internalType": "uint256",
          "name": "_alpha",
          "type": "uint256"
        },
        {
          "internalType": "uint256",
          "name": "_feeForJuror",
          "type": "uint256"
        },
        {
          "internalType": "uint256",
          "name": "_jurorsForCourtJump",
          "type": "uint256"
        },
        {
          "internalType": "uint256[4]",
          "name": "_timesPerPeriod",
          "type": "uint256[4]"
        },
        {
          "internalType": "uint256",
          "name": "_sortitionSumTreeK",
          "type": "uint256"
        }
      ],
      "stateMutability": "nonpayable",
      "type": "constructor"
    },
    {
      "anonymous": false,
      "inputs": [
        {
          "indexed": true,
          "internalType": "uint256",
          "name": "_disputeID",
          "type": "uint256"
        },
        {
          "indexed": true,
          "internalType": "contract IArbitrable",
          "name": "_arbitrable",
          "type": "address"
        }
      ],
      "name": "AppealDecision",
      "type": "event"
    },
    {
      "anonymous": false,
      "inputs": [
        {
          "indexed": true,
          "internalType": "uint256",
          "name": "_disputeID",
          "type": "uint256"
        },
        {
          "indexed": true,
          "internalType": "contract IArbitrable",
          "name": "_arbitrable",
          "type": "address"
        }
      ],
      "name": "AppealPossible",
      "type": "event"
    },
    {
      "anonymous": false,
      "inputs": [
        {
          "indexed": true,
          "internalType": "uint256",
          "name": "_disputeID",
          "type": "uint256"
        },
        {
          "indexed": true,
          "internalType": "contract IArbitrable",
          "name": "_arbitrable",
          "type": "address"
        }
      ],
      "name": "DisputeCreation",
      "type": "event"
    },
    {
      "anonymous": false,
      "inputs": [
        {
          "indexed": true,
          "internalType": "address",
          "name": "_address",
          "type": "address"
        },
        {
          "indexed": true,
          "internalType": "uint256",
          "name": "_disputeID",
          "type": "uint256"
        },
        {
          "indexed": false,
          "internalType": "uint256",
          "name": "_appeal",
          "type": "uint256"
        },
        {
          "indexed": false,
          "internalType": "uint256",
          "name": "_voteID",
          "type": "uint256"
        }
      ],
      "name": "Draw",
      "type": "event"
    },
    {
      "anonymous": false,
      "inputs": [
        {
          "indexed": true,
          "internalType": "uint256",
          "name": "_disputeID",
          "type": "uint256"
        },
        {
          "indexed": false,
          "internalType": "enum KlerosCore.Period",
          "name": "_period",
          "type": "uint8"
        }
      ],
      "name": "NewPeriod",
      "type": "event"
    },
    {
      "anonymous": false,
      "inputs": [
        {
          "indexed": true,
          "internalType": "address",
          "name": "_address",
          "type": "address"
        },
        {
          "indexed": false,
          "internalType": "uint256",
          "name": "_subcourtID",
          "type": "uint256"
        },
        {
          "indexed": false,
          "internalType": "uint256",
          "name": "_amount",
          "type": "uint256"
        },
        {
          "indexed": false,
          "internalType": "uint256",
          "name": "_newTotalStake",
          "type": "uint256"
        }
      ],
      "name": "StakeSet",
      "type": "event"
    },
    {
      "anonymous": false,
      "inputs": [
        {
          "indexed": true,
          "internalType": "address",
          "name": "_account",
          "type": "address"
        },
        {
          "indexed": true,
          "internalType": "uint256",
          "name": "_disputeID",
          "type": "uint256"
        },
        {
          "indexed": false,
          "internalType": "int256",
          "name": "_tokenAmount",
          "type": "int256"
        },
        {
          "indexed": false,
          "internalType": "int256",
          "name": "_ETHAmount",
          "type": "int256"
        }
      ],
      "name": "TokenAndETHShift",
      "type": "event"
    },
    {
      "inputs": [],
      "name": "ALPHA_DIVISOR",
      "outputs": [
        {
          "internalType": "uint256",
          "name": "",
          "type": "uint256"
        }
      ],
      "stateMutability": "view",
      "type": "function"
    },
    {
      "inputs": [],
      "name": "MAX_STAKE_PATHS",
      "outputs": [
        {
          "internalType": "uint256",
          "name": "",
          "type": "uint256"
        }
      ],
      "stateMutability": "view",
      "type": "function"
    },
    {
      "inputs": [],
      "name": "MIN_JURORS",
      "outputs": [
        {
          "internalType": "uint256",
          "name": "",
          "type": "uint256"
        }
      ],
      "stateMutability": "view",
      "type": "function"
    },
    {
      "inputs": [],
      "name": "NON_PAYABLE_AMOUNT",
      "outputs": [
        {
          "internalType": "uint256",
          "name": "",
          "type": "uint256"
        }
      ],
      "stateMutability": "view",
      "type": "function"
    },
    {
      "inputs": [
        {
          "internalType": "contract IDisputeKit",
          "name": "_disputeKitAddress",
          "type": "address"
        },
        {
          "internalType": "uint8",
          "name": "_disputeKitID",
          "type": "uint8"
        }
      ],
      "name": "addNewDisputeKit",
      "outputs": [],
      "stateMutability": "nonpayable",
      "type": "function"
    },
    {
      "inputs": [
        {
          "internalType": "uint256",
          "name": "_disputeID",
          "type": "uint256"
        }
      ],
      "name": "appeal",
      "outputs": [],
      "stateMutability": "payable",
      "type": "function"
    },
    {
      "inputs": [
        {
          "internalType": "uint256",
          "name": "_disputeID",
          "type": "uint256"
        }
      ],
      "name": "appealCost",
      "outputs": [
        {
          "internalType": "uint256",
          "name": "cost",
          "type": "uint256"
        }
      ],
      "stateMutability": "view",
      "type": "function"
    },
    {
      "inputs": [
        {
          "internalType": "uint256",
          "name": "_disputeID",
          "type": "uint256"
        }
      ],
      "name": "appealPeriod",
      "outputs": [
        {
          "internalType": "uint256",
          "name": "start",
          "type": "uint256"
        },
        {
          "internalType": "uint256",
          "name": "end",
          "type": "uint256"
        }
      ],
      "stateMutability": "view",
      "type": "function"
    },
    {
      "inputs": [
        {
          "internalType": "bytes",
          "name": "_extraData",
          "type": "bytes"
        }
      ],
      "name": "arbitrationCost",
      "outputs": [
        {
          "internalType": "uint256",
          "name": "cost",
          "type": "uint256"
        }
      ],
      "stateMutability": "view",
      "type": "function"
    },
    {
      "inputs": [
        {
          "internalType": "uint256",
          "name": "_subcourtID",
          "type": "uint256"
        }
      ],
      "name": "areVotesHidden",
      "outputs": [
        {
          "internalType": "bool",
          "name": "hiddenVotes",
          "type": "bool"
        }
      ],
      "stateMutability": "view",
      "type": "function"
    },
    {
      "inputs": [
        {
          "internalType": "address payable",
          "name": "_governor",
          "type": "address"
        }
      ],
      "name": "changeGovernor",
      "outputs": [],
      "stateMutability": "nonpayable",
      "type": "function"
    },
    {
      "inputs": [
        {
          "internalType": "address",
          "name": "_jurorProsecutionModule",
          "type": "address"
        }
      ],
      "name": "changeJurorProsecutionModule",
      "outputs": [],
      "stateMutability": "nonpayable",
      "type": "function"
    },
    {
      "inputs": [
        {
          "internalType": "contract IERC20",
          "name": "_pinakion",
          "type": "address"
        }
      ],
      "name": "changePinakion",
      "outputs": [],
      "stateMutability": "nonpayable",
      "type": "function"
    },
    {
      "inputs": [
        {
          "internalType": "uint96",
          "name": "_subcourtID",
          "type": "uint96"
        },
        {
          "internalType": "uint256",
          "name": "_alpha",
          "type": "uint256"
        }
      ],
      "name": "changeSubcourtAlpha",
      "outputs": [],
      "stateMutability": "nonpayable",
      "type": "function"
    },
    {
      "inputs": [
        {
          "internalType": "uint96",
          "name": "_subcourtID",
          "type": "uint96"
        },
        {
          "internalType": "uint256",
          "name": "_feeForJuror",
          "type": "uint256"
        }
      ],
      "name": "changeSubcourtJurorFee",
      "outputs": [],
      "stateMutability": "nonpayable",
      "type": "function"
    },
    {
      "inputs": [
        {
          "internalType": "uint96",
          "name": "_subcourtID",
          "type": "uint96"
        },
        {
          "internalType": "uint256",
          "name": "_jurorsForCourtJump",
          "type": "uint256"
        }
      ],
      "name": "changeSubcourtJurorsForJump",
      "outputs": [],
      "stateMutability": "nonpayable",
      "type": "function"
    },
    {
      "inputs": [
        {
          "internalType": "uint96",
          "name": "_subcourtID",
          "type": "uint96"
        },
        {
          "internalType": "uint256",
          "name": "_minStake",
          "type": "uint256"
        }
      ],
      "name": "changeSubcourtMinStake",
      "outputs": [],
      "stateMutability": "nonpayable",
      "type": "function"
    },
    {
      "inputs": [
        {
          "internalType": "uint96",
          "name": "_subcourtID",
          "type": "uint96"
        },
        {
          "internalType": "uint256[4]",
          "name": "_timesPerPeriod",
          "type": "uint256[4]"
        }
      ],
      "name": "changeSubcourtTimesPerPeriod",
      "outputs": [],
      "stateMutability": "nonpayable",
      "type": "function"
    },
    {
      "inputs": [
        {
          "internalType": "uint256",
          "name": "",
          "type": "uint256"
        }
      ],
      "name": "courts",
      "outputs": [
        {
          "internalType": "uint96",
          "name": "parent",
          "type": "uint96"
        },
        {
          "internalType": "bool",
          "name": "hiddenVotes",
          "type": "bool"
        },
        {
          "internalType": "uint256",
          "name": "minStake",
          "type": "uint256"
        },
        {
          "internalType": "uint256",
          "name": "alpha",
          "type": "uint256"
        },
        {
          "internalType": "uint256",
          "name": "feeForJuror",
          "type": "uint256"
        },
        {
          "internalType": "uint256",
          "name": "jurorsForCourtJump",
          "type": "uint256"
        },
        {
          "internalType": "uint256",
          "name": "supportedDisputeKits",
          "type": "uint256"
        }
      ],
      "stateMutability": "view",
      "type": "function"
    },
    {
      "inputs": [
        {
          "internalType": "uint256",
          "name": "_numberOfChoices",
          "type": "uint256"
        },
        {
          "internalType": "bytes",
          "name": "_extraData",
          "type": "bytes"
        }
      ],
      "name": "createDispute",
      "outputs": [
        {
          "internalType": "uint256",
          "name": "disputeID",
          "type": "uint256"
        }
      ],
      "stateMutability": "payable",
      "type": "function"
    },
    {
      "inputs": [
        {
          "internalType": "uint96",
          "name": "_parent",
          "type": "uint96"
        },
        {
          "internalType": "bool",
          "name": "_hiddenVotes",
          "type": "bool"
        },
        {
          "internalType": "uint256",
          "name": "_minStake",
          "type": "uint256"
        },
        {
          "internalType": "uint256",
          "name": "_alpha",
          "type": "uint256"
        },
        {
          "internalType": "uint256",
          "name": "_feeForJuror",
          "type": "uint256"
        },
        {
          "internalType": "uint256",
          "name": "_jurorsForCourtJump",
          "type": "uint256"
        },
        {
          "internalType": "uint256[4]",
          "name": "_timesPerPeriod",
          "type": "uint256[4]"
        },
        {
          "internalType": "uint256",
          "name": "_sortitionSumTreeK",
          "type": "uint256"
        },
        {
          "internalType": "uint256",
          "name": "_supportedDisputeKits",
          "type": "uint256"
        }
      ],
      "name": "createSubcourt",
      "outputs": [],
      "stateMutability": "nonpayable",
      "type": "function"
    },
    {
      "inputs": [
        {
          "internalType": "uint256",
          "name": "_disputeID",
          "type": "uint256"
        }
      ],
      "name": "currentRuling",
      "outputs": [
        {
          "internalType": "uint256",
          "name": "ruling",
          "type": "uint256"
        }
      ],
      "stateMutability": "view",
      "type": "function"
    },
    {
      "inputs": [
        {
          "internalType": "uint256",
          "name": "",
          "type": "uint256"
        }
      ],
      "name": "disputeKits",
      "outputs": [
        {
          "internalType": "contract IDisputeKit",
          "name": "",
          "type": "address"
        }
      ],
      "stateMutability": "view",
      "type": "function"
    },
    {
      "inputs": [
        {
          "internalType": "uint256",
          "name": "",
          "type": "uint256"
        }
      ],
      "name": "disputes",
      "outputs": [
        {
          "internalType": "uint96",
          "name": "subcourtID",
          "type": "uint96"
        },
        {
          "internalType": "contract IArbitrable",
          "name": "arbitrated",
          "type": "address"
        },
        {
          "internalType": "contract IDisputeKit",
          "name": "disputeKit",
          "type": "address"
        },
        {
          "internalType": "enum KlerosCore.Period",
          "name": "period",
          "type": "uint8"
        },
        {
          "internalType": "bool",
          "name": "ruled",
          "type": "bool"
        },
        {
          "internalType": "uint256",
          "name": "lastPeriodChange",
          "type": "uint256"
        },
        {
          "internalType": "uint256",
          "name": "nbVotes",
          "type": "uint256"
        }
      ],
      "stateMutability": "view",
      "type": "function"
    },
    {
      "inputs": [
        {
          "internalType": "uint256",
          "name": "_disputeID",
          "type": "uint256"
        },
        {
          "internalType": "uint256",
          "name": "_iterations",
          "type": "uint256"
        }
      ],
      "name": "draw",
      "outputs": [],
      "stateMutability": "nonpayable",
      "type": "function"
    },
    {
      "inputs": [
        {
          "internalType": "uint256",
          "name": "_disputeID",
          "type": "uint256"
        },
        {
          "internalType": "uint256",
          "name": "_appeal",
          "type": "uint256"
        },
        {
          "internalType": "uint256",
          "name": "_iterations",
          "type": "uint256"
        }
      ],
      "name": "execute",
      "outputs": [],
      "stateMutability": "nonpayable",
      "type": "function"
    },
    {
      "inputs": [
        {
          "internalType": "address",
          "name": "_destination",
          "type": "address"
        },
        {
          "internalType": "uint256",
          "name": "_amount",
          "type": "uint256"
        },
        {
          "internalType": "bytes",
          "name": "_data",
          "type": "bytes"
        }
      ],
      "name": "executeGovernorProposal",
      "outputs": [],
      "stateMutability": "nonpayable",
      "type": "function"
    },
    {
      "inputs": [
        {
          "internalType": "uint256",
          "name": "_disputeID",
          "type": "uint256"
        }
      ],
      "name": "executeRuling",
      "outputs": [],
      "stateMutability": "nonpayable",
      "type": "function"
    },
    {
      "inputs": [
        {
          "internalType": "uint256",
          "name": "_disputeID",
          "type": "uint256"
        }
      ],
      "name": "getCurrentPeriod",
      "outputs": [
        {
          "internalType": "enum KlerosCore.Period",
          "name": "period",
          "type": "uint8"
        }
      ],
      "stateMutability": "view",
      "type": "function"
    },
    {
      "inputs": [
        {
          "internalType": "address",
          "name": "_juror",
          "type": "address"
        },
        {
          "internalType": "uint96",
          "name": "_subcourtID",
          "type": "uint96"
        }
      ],
      "name": "getJurorBalance",
      "outputs": [
        {
          "internalType": "uint256",
          "name": "staked",
          "type": "uint256"
        },
        {
          "internalType": "uint256",
          "name": "locked",
          "type": "uint256"
        }
      ],
      "stateMutability": "view",
      "type": "function"
    },
    {
      "inputs": [
        {
          "internalType": "uint256",
          "name": "_disputeID",
          "type": "uint256"
        }
      ],
      "name": "getNumberOfRounds",
      "outputs": [
        {
          "internalType": "uint256",
          "name": "",
          "type": "uint256"
        }
      ],
      "stateMutability": "view",
      "type": "function"
    },
    {
      "inputs": [
        {
          "internalType": "uint256",
          "name": "_disputeID",
          "type": "uint256"
        },
        {
          "internalType": "uint256",
          "name": "_round",
          "type": "uint256"
        }
      ],
      "name": "getRoundInfo",
      "outputs": [
        {
          "internalType": "uint256",
          "name": "tokensAtStakePerJuror",
          "type": "uint256"
        },
        {
          "internalType": "uint256",
          "name": "totalFeesForJurors",
          "type": "uint256"
        },
        {
          "internalType": "uint256",
          "name": "repartitions",
          "type": "uint256"
        },
        {
          "internalType": "uint256",
          "name": "penalties",
          "type": "uint256"
        },
        {
          "internalType": "address[]",
          "name": "drawnJurors",
          "type": "address[]"
        }
      ],
      "stateMutability": "view",
      "type": "function"
    },
    {
      "inputs": [
        {
          "internalType": "bytes32",
          "name": "_key",
          "type": "bytes32"
        }
      ],
      "name": "getSortitionSumTree",
      "outputs": [
        {
          "internalType": "uint256",
          "name": "K",
          "type": "uint256"
        },
        {
          "internalType": "uint256[]",
          "name": "stack",
          "type": "uint256[]"
        },
        {
          "internalType": "uint256[]",
          "name": "nodes",
          "type": "uint256[]"
        }
      ],
      "stateMutability": "view",
      "type": "function"
    },
    {
      "inputs": [
        {
          "internalType": "bytes32",
          "name": "_key",
          "type": "bytes32"
        },
        {
          "internalType": "uint256",
          "name": "_nodeIndex",
          "type": "uint256"
        }
      ],
      "name": "getSortitionSumTreeID",
      "outputs": [
        {
          "internalType": "bytes32",
          "name": "ID",
          "type": "bytes32"
        }
      ],
      "stateMutability": "view",
      "type": "function"
    },
    {
      "inputs": [
        {
          "internalType": "uint256",
          "name": "_disputeID",
          "type": "uint256"
        }
      ],
      "name": "getSubcourtID",
      "outputs": [
        {
          "internalType": "uint256",
          "name": "subcourtID",
          "type": "uint256"
        }
      ],
      "stateMutability": "view",
      "type": "function"
    },
    {
      "inputs": [
        {
          "internalType": "uint96",
          "name": "_subcourtID",
          "type": "uint96"
        }
      ],
      "name": "getTimesPerPeriod",
      "outputs": [
        {
          "internalType": "uint256[4]",
          "name": "timesPerPeriod",
          "type": "uint256[4]"
        }
      ],
      "stateMutability": "view",
      "type": "function"
    },
    {
      "inputs": [],
      "name": "governor",
      "outputs": [
        {
          "internalType": "address",
          "name": "",
          "type": "address"
        }
      ],
      "stateMutability": "view",
      "type": "function"
    },
    {
      "inputs": [
        {
          "internalType": "uint256",
          "name": "_disputeID",
          "type": "uint256"
        }
      ],
      "name": "isRuled",
      "outputs": [
        {
          "internalType": "bool",
          "name": "",
          "type": "bool"
        }
      ],
      "stateMutability": "view",
      "type": "function"
    },
    {
      "inputs": [],
      "name": "jurorProsecutionModule",
      "outputs": [
        {
          "internalType": "address",
          "name": "",
          "type": "address"
        }
      ],
      "stateMutability": "view",
      "type": "function"
    },
    {
      "inputs": [
        {
          "internalType": "uint256",
          "name": "_disputeID",
          "type": "uint256"
        }
      ],
      "name": "passPeriod",
      "outputs": [],
      "stateMutability": "nonpayable",
      "type": "function"
    },
    {
      "inputs": [],
      "name": "pinakion",
      "outputs": [
        {
          "internalType": "contract IERC20",
          "name": "",
          "type": "address"
        }
      ],
      "stateMutability": "view",
      "type": "function"
    },
    {
      "inputs": [
        {
          "internalType": "uint96",
          "name": "_subcourtID",
          "type": "uint96"
        },
        {
          "internalType": "uint8[]",
          "name": "_disputeKitIDs",
          "type": "uint8[]"
        },
        {
          "internalType": "bool",
          "name": "_enable",
          "type": "bool"
        }
      ],
      "name": "setDisputeKits",
      "outputs": [],
      "stateMutability": "nonpayable",
      "type": "function"
    },
    {
      "inputs": [
        {
          "internalType": "uint96",
          "name": "_subcourtID",
          "type": "uint96"
        },
        {
          "internalType": "uint256",
          "name": "_stake",
          "type": "uint256"
        }
      ],
      "name": "setStake",
      "outputs": [],
      "stateMutability": "nonpayable",
      "type": "function"
    }
  ],
  "transactionHash": "0x9344ab0fa25824656e9c466da7dca1d7d0d20e9f1d8f59693faeeb28dadb1ccd",
  "args": [
    "0xF50E77f2A2B6138D16c6c7511562E5C33c4B15A3",
    "0x364530164a2338cdba211f72c1438eb811b5c639",
    "0x0000000000000000000000000000000000000000",
    "0xed12799915180a257985631fbD2ead261eD838cf",
    false,
    200,
    10000,
    100,
    3,
    [
      0,
      0,
      0,
      0
    ],
    3
  ],
  "numDeployments": 1,
  "solcInputHash": "0a1ec2a631b00a23a4a92b2eaceb36a5",
  "bytecode": "0x60806040523480156200001157600080fd5b5060405162004d0938038062004d098339810160408190526200003491620003a2565b600080546001600160a01b03199081166001600160a01b038e81169190911783556001805483168e83161781556002805484168e8416179055600460209081527f17ef568e3e12ab5b9c7254a8d58478811de00f9e6eb34345acd53bf8fd09d3ec8054909416928d169290921790925560408051610120810182528481528b151581840190815282518681528085018452928201928352606082018c9052608082018b905260a082018a905260c0820189905260e08201889052610100820185905260038054958601815590955280517fc2575a0e9e593c00f959f8c92f12db2869c3395a3b0502d05e2516446f71f85b600b9095029485018054965115156c01000000000000000000000000026001600160681b03199097166001600160601b0390921691909117959095178555905180519194936200019d937fc2575a0e9e593c00f959f8c92f12db2869c3395a3b0502d05e2516446f71f85c9091019291019062000272565b50606082015181600201556080820151816003015560a0820151816004015560c0820151816005015560e082015181600601906004620001df929190620002c2565b506101009190910151600a9091015560405163483abc4f60e11b815260076004820152600060248201526044810182905273f02733d9e5CbfE67B54F165b0277E1995106D52690639075789e9060640160006040518083038186803b1580156200024857600080fd5b505af41580156200025d573d6000803e3d6000fd5b5050505050505050505050505050506200046d565b828054828255906000526020600020908101928215620002b0579160200282015b82811115620002b057825182559160200191906001019062000293565b50620002be929150620002f2565b5090565b8260048101928215620002b05791602002820182811115620002b057825182559160200191906001019062000293565b5b80821115620002be5760008155600101620002f3565b6001600160a01b03811681146200031f57600080fd5b50565b600082601f8301126200033457600080fd5b604051608081016001600160401b03811182821017156200036557634e487b7160e01b600052604160045260246000fd5b6040528060808401858111156200037b57600080fd5b845b81811015620003975780518352602092830192016200037d565b509195945050505050565b60008060008060008060008060008060006101c08c8e031215620003c557600080fd5b8b51620003d28162000309565b60208d0151909b50620003e58162000309565b60408d0151909a50620003f88162000309565b60608d01519099506200040b8162000309565b60808d015190985080151581146200042257600080fd5b8097505060a08c0151955060c08c0151945060e08c015193506101008c01519250620004538d6101208e0162000322565b91506101a08c015190509295989b509295989b9093969950565b61488c806200047d6000396000f3fe60806040526004361061025b5760003560e01c8063840bc19c11610144578063d2b8035a116100b6578063eaff425a1161007a578063eaff425a14610819578063f441d9b31461082e578063f6a6ef7a1461084e578063f7434ea91461086e578063fbf405b01461088e578063fc6f8f16146108ae57600080fd5b8063d2b8035a1461074e578063d2d514e01461076e578063d578cbac1461079d578063de1a1e59146107bd578063e4c0aaf4146107f957600080fd5b8063afe15cfb11610108578063afe15cfb14610654578063b4a6160814610689578063c13517e11461069e578063c258bb19146106b1578063cf0c38f8146106d1578063d1c1df48146106f157600080fd5b8063840bc19c146105925780638a9bb02a146105ad5780638bb04875146105de578063a57366e7146105fe578063acdbf51d1461061e57600080fd5b80634b7fcda2116101dd57806359354c77116101a157806359354c77146104df57806359ec827e146104ff5780635bc24dd31461051f578063751accd01461053f5780637717a6e81461055f5780637e69b7b01461057f57600080fd5b80634b7fcda21461041c5780635468f9191461044c578063564a565d1461046c578063572603641461049f5780635788795d146104bf57600080fd5b806322684db01161022457806322684db01461036c5780632d29a47b146103995780632ea7b4d0146103b95780633cfd1184146103cf5780633e1d09be146103fc57600080fd5b8062f5822c146102605780630c340a2414610282578063115d5376146102bf5780631c3db16d146102df5780631f5a0dd21461030d575b600080fd5b34801561026c57600080fd5b5061028061027b366004613fa0565b6108ce565b005b34801561028e57600080fd5b506000546102a2906001600160a01b031681565b6040516001600160a01b0390911681526020015b60405180910390f35b3480156102cb57600080fd5b506102806102da366004613fbd565b610923565b3480156102eb57600080fd5b506102ff6102fa366004613fbd565b61101c565b6040519081526020016102b6565b34801561031957600080fd5b5061032d610328366004613fbd565b6110ba565b604080516001600160601b0390981688529515156020880152948601939093526060850191909152608084015260a083015260c082015260e0016102b6565b34801561037857600080fd5b5061038c610387366004613fbd565b611117565b6040516102b6919061400e565b3480156103a557600080fd5b506102806103b4366004614022565b611150565b3480156103c557600080fd5b506102ff61271081565b3480156103db57600080fd5b506103ef6103ea36600461406a565b611cd4565b6040516102b69190614085565b34801561040857600080fd5b506102806104173660046140b6565b611d45565b34801561042857600080fd5b5061043c610437366004613fbd565b611f60565b60405190151581526020016102b6565b34801561045857600080fd5b50610280610467366004614151565b611f99565b34801561047857600080fd5b5061048c610487366004613fbd565b6120fc565b6040516102b69796959493929190614221565b3480156104ab57600080fd5b506102806104ba3660046142e1565b612169565b3480156104cb57600080fd5b506102806104da366004614315565b6121d4565b3480156104eb57600080fd5b506102806104fa3660046140b6565b6124a8565b34801561050b57600080fd5b506102ff61051a366004613fbd565b612508565b34801561052b57600080fd5b5061028061053a3660046140b6565b612678565b34801561054b57600080fd5b5061028061055a366004614407565b6126d8565b34801561056b57600080fd5b5061028061057a3660046140b6565b6127aa565b61028061058d366004613fbd565b6127f8565b34801561059e57600080fd5b506102ff6001600160ff1b0381565b3480156105b957600080fd5b506105cd6105c8366004614460565b612b66565b6040516102b6959493929190614482565b3480156105ea57600080fd5b506102806105f9366004613fbd565b612c44565b34801561060a57600080fd5b506102806106193660046140b6565b612dc8565b34801561062a57600080fd5b506102a2610639366004613fbd565b6004602052600090815260409020546001600160a01b031681565b34801561066057600080fd5b5061067461066f366004613fbd565b612e28565b604080519283526020830191909152016102b6565b34801561069557600080fd5b506102ff600481565b6102ff6106ac3660046144ee565b612edc565b3480156106bd57600080fd5b506102806106cc366004613fa0565b613245565b3480156106dd57600080fd5b506002546102a2906001600160a01b031681565b3480156106fd57600080fd5b5061067461070c366004614535565b6001600160a01b0390911660009081526006602090815260408083206001600160601b0390941683526001840182528083205460029094019091529020549091565b34801561075a57600080fd5b50610280610769366004614460565b613291565b34801561077a57600080fd5b5061078e610789366004613fbd565b6135a6565b6040516102b69392919061459c565b3480156107a957600080fd5b5061043c6107b8366004613fbd565b61366e565b3480156107c957600080fd5b506102ff6107d8366004614460565b60009182526007602090815260408084209284526004909201905290205490565b34801561080557600080fd5b50610280610814366004613fa0565b6136a4565b34801561082557600080fd5b506102ff600381565b34801561083a57600080fd5b506102806108493660046145d1565b6136f0565b34801561085a57600080fd5b506102ff610869366004613fbd565b61374b565b34801561087a57600080fd5b506102ff6108893660046145fd565b613780565b34801561089a57600080fd5b506001546102a2906001600160a01b031681565b3480156108ba57600080fd5b506102ff6108c9366004613fbd565b6137d4565b6000546001600160a01b031633146109015760405162461bcd60e51b81526004016108f890614632565b60405180910390fd5b600180546001600160a01b0319166001600160a01b0392909216919091179055565b60006005828154811061093857610938614674565b9060005260206000209060050201905060006001826004018054905061095e91906146a0565b9050600082600401828154811061097757610977614674565b60009182526020822060059091020191506001840154600160a01b900460ff1660048111156109a8576109a8613fd6565b1415610b90576000821180610a30575082546003805490916001600160601b03169081106109d8576109d8614674565b90600052602060002090600b02016006018360010160149054906101000a900460ff166004811115610a0c57610a0c613fd6565b60048110610a1c57610a1c614674565b01546002840154610a2d90426146a0565b10155b610ab05760405162461bcd60e51b8152602060048201526044602482018190527f5468652065766964656e636520706572696f642074696d6520686173206e6f74908201527f207061737365642079657420616e64206974206973206e6f7420616e2061707060648201526332b0b61760e11b608482015260a4016108f8565b6003830154600482015414610b195760405162461bcd60e51b815260206004820152602960248201527f546865206469737075746520686173206e6f742066696e6973686564206472616044820152683bb4b733903cb2ba1760b91b60648201526084016108f8565b82546003805490916001600160601b0316908110610b3957610b39614674565b60009182526020909120600b9091020154600160601b900460ff16610b5f576002610b62565b60015b60018401805460ff60a01b1916600160a01b836004811115610b8657610b86613fd6565b0217905550610fc8565b600180840154600160a01b900460ff166004811115610bb157610bb1613fd6565b1415610cc05782546003805490916001600160601b0316908110610bd757610bd7614674565b90600052602060002090600b02016006018360010160149054906101000a900460ff166004811115610c0b57610c0b613fd6565b60048110610c1b57610c1b614674565b01546002840154610c2c90426146a0565b101580610c45575060018301546001600160a01b031633145b610ca45760405162461bcd60e51b815260206004820152602a60248201527f54686520636f6d6d697420706572696f642074696d6520686173206e6f74207060448201526930b9b9b2b2103cb2ba1760b11b60648201526084016108f8565b6001830180546002919060ff60a01b1916600160a01b83610b86565b60026001840154600160a01b900460ff166004811115610ce257610ce2613fd6565b1415610e2b5782546003805490916001600160601b0316908110610d0857610d08614674565b90600052602060002090600b02016006018360010160149054906101000a900460ff166004811115610d3c57610d3c613fd6565b60048110610d4c57610d4c614674565b01546002840154610d5d90426146a0565b101580610d76575060018301546001600160a01b031633145b610dd25760405162461bcd60e51b815260206004820152602760248201527f54686520766f746520706572696f642074696d6520686173206e6f74207061736044820152661cd959081e595d60ca1b60648201526084016108f8565b60018301805460ff60a01b1916600360a01b1790558254604051600160601b9091046001600160a01b03169085907fa5d41b970d849372be1da1481ffd78d162bfe57a7aa2fe4e5fb73481fa5ac24f90600090a3610fc8565b60036001840154600160a01b900460ff166004811115610e4d57610e4d613fd6565b1415610f455782546003805490916001600160601b0316908110610e7357610e73614674565b90600052602060002090600b02016006018360010160149054906101000a900460ff166004811115610ea757610ea7613fd6565b60048110610eb757610eb7614674565b01546002840154610ec890426146a0565b1015610f295760405162461bcd60e51b815260206004820152602a60248201527f5468652061707065616c20706572696f642074696d6520686173206e6f74207060448201526930b9b9b2b2103cb2ba1760b11b60648201526084016108f8565b6001830180546004919060ff60a01b1916600160a01b83610b86565b60046001840154600160a01b900460ff166004811115610f6757610f67613fd6565b1415610fc85760405162461bcd60e51b815260206004820152602a60248201527f546865206469737075746520697320616c726561647920696e20746865206c6160448201526939ba103832b934b7b21760b11b60648201526084016108f8565b426002840155600183015460405185917f4e6f5cf43b95303e86aee81683df63992061723a829ee012db21dad388756b919161100e91600160a01b900460ff169061400e565b60405180910390a250505050565b6000806005838154811061103257611032614674565b6000918252602090912060059091020160010154604051631c3db16d60e01b8152600481018590526001600160a01b0390911691508190631c3db16d90602401602060405180830381865afa15801561108f573d6000803e3d6000fd5b505050506040513d601f19601f820116820180604052508101906110b391906146b7565b9392505050565b600381815481106110ca57600080fd5b60009182526020909120600b9091020180546002820154600383015460048401546005850154600a909501546001600160601b0385169650600160601b90940460ff169492939192909187565b60006005828154811061112c5761112c614674565b6000918252602090912060059091020160010154600160a01b900460ff1692915050565b60006005848154811061116557611165614674565b60009182526020909120600590910201905060046001820154600160a01b900460ff16600481111561119957611199613fd6565b146111e65760405162461bcd60e51b815260206004820152601b60248201527f53686f756c6420626520657865637574696f6e20706572696f642e000000000060448201526064016108f8565b6000828260040185815481106111fe576111fe614674565b90600052602060002090600502016002015461121a91906146d0565b9050600082600401858154811061123357611233614674565b9060005260206000209060050201600301549050600083600401868154811061125e5761125e614674565b6000918252602082206004600590920201810154600187015460405163368efae360e21b81529194506001600160a01b03169163da3beb8c916112ae918c918c9101918252602082015260400190565b602060405180830381865afa1580156112cb573d6000803e3d6000fd5b505050506040513d601f19601f820116820180604052508101906112ef91906146b7565b90506000808261130a5783861115611305578395505b61132a565b6113158460026146e8565b86111561132a576113278460026146e8565b95505b6000876004018a8154811061134157611341614674565b90600052602060002090600502016002015490505b86811015611c435784811015611841576001880154604051634fe264fb60e01b8152600481018d9052602481018c9052604481018390526001600160a01b0390911690634fe264fb90606401602060405180830381865afa1580156113bf573d6000803e3d6000fd5b505050506040513d601f19601f820116820180604052508101906113e391906146b7565b91506127108211156113f55761271091505b600061271061140484826146a0565b8a6004018d8154811061141957611419614674565b90600052602060002090600502016000015461143591906146e8565b61143f919061471d565b905061144b81886146d0565b9650886004018b8154811061146257611462614674565b9060005260206000209060050201600401828154811061148457611484614674565b60009182526020808320909101546001600160a01b03168083526006825260408084208d546001600160601b031685526002019092529082208054919650839290916114d19084906146a0565b909155505088546003805483926001600160601b03169081106114f6576114f6614674565b90600052602060002090600b02016002015461151291906146d0565b6001600160a01b03851660009081526006602090815260408083208d546001600160601b031684526001019091529020541061159b5788546001600160a01b03851660009081526006602090815260408083206001600160601b03909416808452600190940190915290205461159591869161158f9085906146a0565b84613805565b506115ec565b6001600160a01b03841660009081526006602090815260408083208c546001600160601b03168452600101909152902054156115ec5788546115ea9085906001600160601b0316600084613805565b505b600189015460405163ba66fde760e01b8152600481018e9052602481018d9052604481018490526001600160a01b039091169063ba66fde790606401602060405180830381865afa158015611645573d6000803e3d6000fd5b505050506040513d601f19601f820116820180604052508101906116699190614731565b6117065760005b6001600160a01b038516600090815260066020526040902054811015611704576001600160a01b038516600090815260066020526040902080546116f1918791849081106116c0576116c0614674565b9060005260206000209060029182820401919006600c029054906101000a90046001600160601b0316600080613805565b50806116fc8161474e565b915050611670565b505b8b6001600160a01b0385167f24f45c2b08bbde8c837d70b67991ccb7660537cf749de21a940ae4858b681e1961173b84614769565b60408051918252600060208301520160405180910390a361175d6001876146a0565b82141561183b578461183b5760005460048a0180546001600160a01b03909216916108fc91908e90811061179357611793614674565b9060005260206000209060050201600101549081150290604051600060405180830381858888f1505060015460005460405163a9059cbb60e01b81526001600160a01b039182166004820152602481018d90529116935063a9059cbb925060440190506020604051808303816000875af1158015611815573d6000803e3d6000fd5b505050506040513d601f19601f820116820180604052508101906118399190614731565b505b50611c31565b60018801546001600160a01b0316634fe264fb8c8c6118608986614786565b6040516001600160e01b031960e086901b168152600481019390935260248301919091526044820152606401602060405180830381865afa1580156118a9573d6000803e3d6000fd5b505050506040513d601f19601f820116820180604052508101906118cd91906146b7565b91506127108211156118df5761271091505b876004018a815481106118f4576118f4614674565b906000526020600020906005020160040185826119119190614786565b8154811061192157611921614674565b9060005260206000200160009054906101000a90046001600160a01b0316925061271082896004018c8154811061195a5761195a614674565b90600052602060002090600502016000015461197691906146e8565b611980919061471d565b6001600160a01b03841660009081526006602090815260408083208c546001600160601b03168452600201909152812080549091906119c09084906146a0565b90915550506001600160a01b03831660009081526006602090815260408083208b546001600160601b03168452600101909152902054611acf57600160009054906101000a90046001600160a01b03166001600160a01b031663a9059cbb84612710858c6004018f81548110611a3857611a38614674565b906000526020600020906005020160000154611a5491906146e8565b611a5e919061471d565b6040516001600160e01b031960e085901b1681526001600160a01b03909216600483015260248201526044016020604051808303816000875af1158015611aa9573d6000803e3d6000fd5b505050506040513d601f19601f82011682018060405250810190611acd9190614731565b505b600061271083611adf878a61471d565b611ae991906146e8565b611af3919061471d565b9050600061271084878c6004018f81548110611b1157611b11614674565b906000526020600020906005020160010154611b2d919061471d565b611b3791906146e8565b611b41919061471d565b60015460405163a9059cbb60e01b81526001600160a01b0388811660048301526024820186905292935091169063a9059cbb906044016020604051808303816000875af1158015611b96573d6000803e3d6000fd5b505050506040513d601f19601f82011682018060405250810190611bba9190614731565b506040516001600160a01b0386169082156108fc029083906000818181858888f19350505050508c856001600160a01b03167f24f45c2b08bbde8c837d70b67991ccb7660537cf749de21a940ae4858b681e198484604051611c26929190918252602082015260400190565b60405180910390a350505b80611c3b8161474e565b915050611356565b5084876004018a81548110611c5a57611c5a614674565b90600052602060002090600502016003015414611c9d5784876004018a81548110611c8757611c87614674565b9060005260206000209060050201600301819055505b85876004018a81548110611cb357611cb3614674565b90600052602060002090600502016002018190555050505050505050505050565b611cdc613edd565b60006003836001600160601b031681548110611cfa57611cfa614674565b60009182526020909120604080516080810191829052600b9093029091019250600683019060049082845b815481526020019060010190808311611d25575050505050915050919050565b6000546001600160a01b03163314611d6f5760405162461bcd60e51b81526004016108f890614632565b6001600160601b0382161580611de0575080600380846001600160601b031681548110611d9e57611d9e614674565b60009182526020909120600b909102015481546001600160601b03909116908110611dcb57611dcb614674565b90600052602060002090600b02016002015411155b611de957600080fd5b60005b6003836001600160601b031681548110611e0857611e08614674565b90600052602060002090600b020160010180549050811015611f295781600380856001600160601b031681548110611e4257611e42614674565b90600052602060002090600b02016001018381548110611e6457611e64614674565b906000526020600020015481548110611e7f57611e7f614674565b90600052602060002090600b0201600201541015611f175760405162461bcd60e51b815260206004820152604960248201527f4120737562636f7572742063616e6e6f742062652074686520706172656e742060448201527f6f66206120737562636f75727420776974682061206c6f776572206d696e696d6064820152683ab69039ba30b5b29760b91b608482015260a4016108f8565b80611f218161474e565b915050611dec565b50806003836001600160601b031681548110611f4757611f47614674565b90600052602060002090600b0201600201819055505050565b600060058281548110611f7557611f75614674565b6000918252602090912060059091020160010154600160a81b900460ff1692915050565b6000546001600160a01b03163314611fc35760405162461bcd60e51b81526004016108f890614632565b60006003846001600160601b031681548110611fe157611fe1614674565b90600052602060002090600b0201905060005b83518110156120f557600084828151811061201157612011614674565b602002602001015160ff166001901b90508315612083578083600a01541982161461207e5760405162461bcd60e51b815260206004820152601d60248201527f44697370757465206b697420616c726561647920737570706f7274656400000060448201526064016108f8565b6120d8565b8083600a01548216146120d85760405162461bcd60e51b815260206004820152601c60248201527f44697370757465206b6974206973206e6f7420737570706f727465640000000060448201526064016108f8565b600a830180549091189055806120ed8161474e565b915050611ff4565b5050505050565b6005818154811061210c57600080fd5b600091825260209091206005909102018054600182015460028301546003909301546001600160601b03831694506001600160a01b03600160601b9093048316939282169260ff600160a01b8404811693600160a81b9004169187565b6000546001600160a01b031633146121935760405162461bcd60e51b81526004016108f890614632565b806003836001600160601b0316815481106121b0576121b0614674565b90600052602060002090600b02016006019060046121cf929190613efb565b505050565b6000546001600160a01b031633146121fe5760405162461bcd60e51b81526004016108f890614632565b8660038a6001600160601b03168154811061221b5761221b614674565b90600052602060002090600b02016002015411156122b15760405162461bcd60e51b815260206004820152604760248201527f4120737562636f7572742063616e6e6f742062652061206368696c64206f662060448201527f6120737562636f7572742077697468206120686967686572206d696e696d756d6064820152661039ba30b5b29760c91b608482015260a4016108f8565b6003805460408051610120810182526001600160601b038d1681528b151560208201529192919081016000604051908082528060200260200182016040528015612305578160200160208202803683370190505b50815260208082018c905260408083018c9052606083018b9052608083018a905260a0830189905260c09092018690528354600181810186556000958652948290208451600b909202018054858401511515600160601b026cffffffffffffffffffffffffff199091166001600160601b03909316929092179190911781559183015180519394929361239f938501929190910190613f39565b50606082015181600201556080820151816003015560a0820151816004015560c0820151816005015560e0820151816006019060046123df929190613efb565b506101009190910151600a9091015560405163483abc4f60e11b815260076004820152602481018290526044810184905273f02733d9e5CbfE67B54F165b0277E1995106D52690639075789e9060640160006040518083038186803b15801561244757600080fd5b505af415801561245b573d6000803e3d6000fd5b5050505060038a6001600160601b03168154811061247b5761247b614674565b600091825260208083206001600b9093020182018054928301815583529091200155505050505050505050565b6000546001600160a01b031633146124d25760405162461bcd60e51b81526004016108f890614632565b806003836001600160601b0316815481106124ef576124ef614674565b90600052602060002090600b0201600401819055505050565b6000806005838154811061251e5761251e614674565b60009182526020909120600590910201805460038054929350916001600160601b0390911690811061255257612552614674565b90600052602060002090600b02016005015481600301541061261b5780546001600160601b031661258c576001600160ff1b039150612672565b600381015461259c9060026146e8565b6125a79060016146d0565b815460038054909182916001600160601b039091169081106125cb576125cb614674565b60009182526020909120600b909102015481546001600160601b039091169081106125f8576125f8614674565b90600052602060002090600b02016004015461261491906146e8565b9150612672565b600381015461262b9060026146e8565b6126369060016146d0565b81546003805490916001600160601b031690811061265657612656614674565b90600052602060002090600b0201600401546110b391906146e8565b50919050565b6000546001600160a01b031633146126a25760405162461bcd60e51b81526004016108f890614632565b806003836001600160601b0316815481106126bf576126bf614674565b90600052602060002090600b0201600301819055505050565b6000546001600160a01b031633146127025760405162461bcd60e51b81526004016108f890614632565b6000836001600160a01b0316838360405161271d91906147c6565b60006040518083038185875af1925050503d806000811461275a576040519150601f19603f3d011682016040523d82523d6000602084013e61275f565b606091505b50509050806127a45760405162461bcd60e51b8152602060048201526011602482015270155b9cdd58d8d95cdcd99d5b0818d85b1b607a1b60448201526064016108f8565b50505050565b6127b73383836000613805565b6127f45760405162461bcd60e51b815260206004820152600e60248201526d14dd185ada5b99c819985a5b195960921b60448201526064016108f8565b5050565b61280181612508565b34101561285c5760405162461bcd60e51b8152602060048201526024808201527f4e6f7420656e6f7567682045544820746f20636f7665722061707065616c206360448201526337b9ba1760e11b60648201526084016108f8565b60006005828154811061287157612871614674565b60009182526020909120600590910201905060036001820154600160a01b900460ff1660048111156128a5576128a5613fd6565b146128f25760405162461bcd60e51b815260206004820152601a60248201527f44697370757465206973206e6f742061707065616c61626c652e00000000000060448201526064016108f8565b60018101546001600160a01b0316331461295c5760405162461bcd60e51b815260206004820152602560248201527f416363657373206e6f7420616c6c6f7765643a2044697370757465204b69742060448201526437b7363c9760d91b60648201526084016108f8565b80546003805490916001600160601b031690811061297c5761297c614674565b90600052602060002090600b0201600501548160030154106129e95780546003805490916001600160601b03169081106129b8576129b8614674565b60009182526020909120600b909102015481546bffffffffffffffffffffffff19166001600160601b039091161781555b60018101805460ff60a01b1916905542600282015580546003805490916001600160601b0316908110612a1e57612a1e614674565b90600052602060002090600b02016004015434612a3b919061471d565b60038083019190915560048201805460018101825560009182526020909120835483546005909302909101926127109290916001600160601b0316908110612a8557612a85614674565b600091825260209091206003600b90920201810154845482549192916001600160601b03909116908110612abb57612abb614674565b90600052602060002090600b020160020154612ad791906146e8565b612ae1919061471d565b81553460018201558154604051600160601b9091046001600160a01b03169084907f9c9b64db9e130f48381bf697abf638e73117dbfbfd7a4484f2da3ba188f4187d90600090a3827f4e6f5cf43b95303e86aee81683df63992061723a829ee012db21dad388756b916000604051612b59919061400e565b60405180910390a2505050565b6000806000806060600060058881548110612b8357612b83614674565b906000526020600020906005020190506000816004018881548110612baa57612baa614674565b9060005260206000209060050201905080600001548160010154826002015483600301548460040180805480602002602001604051908101604052809291908181526020018280548015612c2757602002820191906000526020600020905b81546001600160a01b03168152600190910190602001808311612c09575b505050505090509650965096509650965050509295509295909350565b600060058281548110612c5957612c59614674565b60009182526020909120600590910201905060046001820154600160a01b900460ff166004811115612c8d57612c8d613fd6565b14612cda5760405162461bcd60e51b815260206004820152601b60248201527f53686f756c6420626520657865637574696f6e20706572696f642e000000000060448201526064016108f8565b6001810154600160a81b900460ff1615612d365760405162461bcd60e51b815260206004820152601860248201527f52756c696e6720616c72656164792065786563757465642e000000000000000060448201526064016108f8565b6000612d418361101c565b60018301805460ff60a81b1916600160a81b179055825460405163188d362b60e11b815260048101869052602481018390529192506001600160a01b03600160601b909104169063311a6c5690604401600060405180830381600087803b158015612dab57600080fd5b505af1158015612dbf573d6000803e3d6000fd5b50505050505050565b6000546001600160a01b03163314612df25760405162461bcd60e51b81526004016108f890614632565b806003836001600160601b031681548110612e0f57612e0f614674565b90600052602060002090600b0201600501819055505050565b600080600060058481548110612e4057612e40614674565b60009182526020909120600590910201905060036001820154600160a01b900460ff166004811115612e7457612e74613fd6565b1415612ecd576002810154815460038054929550916001600160601b03909116908110612ea357612ea3614674565b600091825260209091206009600b9092020101546002820154612ec691906146d0565b9150612ed6565b60009250600091505b50915091565b6000612ee782613780565b341015612f485760405162461bcd60e51b815260206004820152602960248201527f4e6f7420656e6f7567682045544820746f20636f76657220617262697472617460448201526834b7b71031b7b9ba1760b91b60648201526084016108f8565b600080612f5484613e19565b925050915060008160ff166001901b9050806003846001600160601b031681548110612f8257612f82614674565b90600052602060002090600b0201600a0154821614612ffd5760405162461bcd60e51b815260206004820152603160248201527f5468652064697370757465206b6974206973206e6f7420737570706f7274656460448201527008189e481d1a1a5cc81cdd5898dbdd5c9d607a1b60648201526084016108f8565b60058054600181018255600160601b33026001600160601b038087168281179484027f036b6384b5eca791c62761152d0c79bb0604c104a5fb6f4eb0703f3154bb3db0810195865560ff88166000908152600460205260409020547f036b6384b5eca791c62761152d0c79bb0604c104a5fb6f4eb0703f3154bb3db1820180546001600160a01b0319166001600160a01b03929092169182179055427f036b6384b5eca791c62761152d0c79bb0604c104a5fb6f4eb0703f3154bb3db29092019190915560038054959a5090949093909216179081106130df576130df614674565b90600052602060002090600b020160040154346130fc919061471d565b60038084019190915560048301805460018101825560009182526020909120845483546005909302909101926127109290916001600160601b031690811061314657613146614674565b600091825260209091206003600b90920201810154855482549192916001600160601b0390911690811061317c5761317c614674565b90600052602060002090600b02016002015461319891906146e8565b6131a2919061471d565b8155346001820155604051638d31de6d60e01b81526001600160a01b03831690638d31de6d906131da908a908d908d906004016147e2565b600060405180830381600087803b1580156131f457600080fd5b505af1158015613208573d6000803e3d6000fd5b50506040513392508991507f141dfc18aa6a56fc816f44f0e9e2f1ebc92b15ab167770e17db5b084c10ed99590600090a350505050505092915050565b6000546001600160a01b0316331461326f5760405162461bcd60e51b81526004016108f890614632565b600280546001600160a01b0319166001600160a01b0392909216919091179055565b6000600583815481106132a6576132a6614674565b906000526020600020906005020190506000600182600401805490506132cc91906146a0565b905060008260040182815481106132e5576132e5614674565b60009182526020822060059091020191506001840154600160a01b900460ff16600481111561331657613316613fd6565b146133635760405162461bcd60e51b815260206004820152601a60248201527f53686f756c642062652065766964656e636520706572696f642e00000000000060448201526064016108f8565b6001830154600482015460038501546001600160a01b039092169160009061338b88846146d0565b111561339b5785600301546133a5565b6133a587836146d0565b9050815b8181101561359b57604051633b30414760e01b8152600481018a90526000906001600160a01b03861690633b304147906024016020604051808303816000875af11580156133fb573d6000803e3d6000fd5b505050506040513d601f19601f8201168201806040525081019061341f9190614823565b90506001600160a01b038116156135885785546001600160a01b03821660009081526006602090815260408083208c546001600160601b03168452600201909152812080549091906134729084906146d0565b90915550506001600160a01b03811660009081526006602090815260408083208b546001600160601b031684526002810183528184205460019091019092529091205410156135195760405162461bcd60e51b815260206004820152602d60248201527f4c6f636b656420616d6f756e742073686f756c646e277420657863656564207360448201526c3a30b5b2b21030b6b7bab73a1760991b60648201526084016108f8565b60048601805460018101825560009182526020918290200180546001600160a01b0319166001600160a01b038416908117909155604080518a81529283018590528c927f6119cf536152c11e0a9a6c22f3953ce4ecc93ee54fa72ffa326ffabded21509b910160405180910390a35b50806135938161474e565b9150506133a9565b505050505050505050565b600081815260076020908152604091829020805460018201805485518186028101860190965280865291946060948594939192919083018282801561360a57602002820191906000526020600020905b8154815260200190600101908083116135f6575b505050505092508060020180548060200260200160405190810160405280929190818152602001828054801561365f57602002820191906000526020600020905b81548152602001906001019080831161364b575b50505050509150509193909250565b60006003828154811061368357613683614674565b60009182526020909120600b9091020154600160601b900460ff1692915050565b6000546001600160a01b031633146136ce5760405162461bcd60e51b81526004016108f890614632565b600080546001600160a01b0319166001600160a01b0392909216919091179055565b6000546001600160a01b0316331461371a5760405162461bcd60e51b81526004016108f890614632565b60ff16600090815260046020526040902080546001600160a01b0319166001600160a01b0392909216919091179055565b60006005828154811061376057613760614674565b60009182526020909120600590910201546001600160601b031692915050565b600080600061378e84613e19565b5091509150806003836001600160601b0316815481106137b0576137b0614674565b90600052602060002090600b0201600401546137cc91906146e8565b949350505050565b600080600583815481106137ea576137ea614674565b60009182526020909120600460059092020101549392505050565b6001600160a01b0384166000908152600660205260408120816138288787613e95565b604051637521ccb160e01b8152600760048201526001600160601b03881660248201526044810182905290915060009073f02733d9e5CbfE67B54F165b0277E1995106D52690637521ccb190606401602060405180830381865af4158015613894573d6000803e3d6000fd5b505050506040513d601f19601f820116820180604052508101906138b891906146b7565b9050851561397f576003876001600160601b0316815481106138dc576138dc614674565b90600052602060002090600b02016002015486108061391457506001600160601b038716600090815260028401602052604090205486105b1561392557600093505050506137cc565b8061397a57825460041161393f57600093505050506137cc565b8254600180820185556000858152602090206002830401805491909216600c026101000a6001600160601b0381810219909216918a16021790555b613acb565b60005b8354811015613ac957876001600160601b03168460000182815481106139aa576139aa614674565b600091825260209091206002820401546001909116600c026101000a90046001600160601b03161415613ab757835484906139e7906001906146a0565b815481106139f7576139f7614674565b9060005260206000209060029182820401919006600c029054906101000a90046001600160601b0316846000018281548110613a3557613a35614674565b9060005260206000209060029182820401919006600c026101000a8154816001600160601b0302191690836001600160601b0316021790555083600001805480613a8157613a81614840565b60008281526020902060026000199092019182040180546001600160601b03600c60018516026101000a02191690559055613ac9565b80613ac18161474e565b915050613982565b505b6001600160601b03871660009081526001840160205260408120548790613af39084906146a0565b613afd91906146d0565b6001600160601b038916600081815260018701602052604081208390559192505b81613be157604051631712e1c560e11b81526007600482015260248101829052604481018a90526064810186905273f02733d9e5CbfE67B54F165b0277E1995106D52690632e25c38a9060840160006040518083038186803b158015613b8357600080fd5b505af4158015613b97573d6000803e3d6000fd5b505050508060001415613bad5760019150613b1e565b60038181548110613bc057613bc0614674565b60009182526020909120600b90910201546001600160601b03169050613b1e565b604080516001600160601b038c168152602081018b90529081018490526001600160a01b038c16907f70ca4ec64687bf265f39041896f3dbf10b9f650503cb38f2b3569fdce7489c369060600160405180910390a26000848a10613ce857613c49858b6146a0565b90508015613ce3576001546040516323b872dd60e01b81526001600160a01b038e8116600483015230602483015260448201849052909116906323b872dd906064015b6020604051808303816000875af1158015613cab573d6000803e3d6000fd5b505050506040513d601f19601f82011682018060405250810190613ccf9190614731565b613ce35760009750505050505050506137cc565b613e07565b89613d5f576001600160601b038b1660009081526002880160205260409020548990613d1490876146a0565b613d1e91906146a0565b90508015613ce35760015460405163a9059cbb60e01b81526001600160a01b038e81166004830152602482018490529091169063a9059cbb90604401613c8c565b88613d6a8b876146a0565b613d7491906146a0565b90508015613e075760015460405163a9059cbb60e01b81526001600160a01b038e81166004830152602482018490529091169063a9059cbb906044016020604051808303816000875af1158015613dcf573d6000803e3d6000fd5b505050506040513d601f19601f82011682018060405250810190613df39190614731565b613e075760009750505050505050506137cc565b5060019b9a5050505050505050505050565b60008060006040845110613e83575050506020810151604082015160608301516003546001600160601b03841610613e5057600092505b81613e5a57600391505b60ff81166000908152600460205260409020546001600160a01b0316613e7e575060005b613e8e565b506000915060039050815b9193909250565b600060405160005b6014811015613eb8578481600c011a81830153600101613e9d565b5060145b6020811015613ed45783811a81830153600101613ebc565b50519392505050565b60405180608001604052806004906020820280368337509192915050565b8260048101928215613f29579160200282015b82811115613f29578251825591602001919060010190613f0e565b50613f35929150613f73565b5090565b828054828255906000526020600020908101928215613f295791602002820182811115613f29578251825591602001919060010190613f0e565b5b80821115613f355760008155600101613f74565b6001600160a01b0381168114613f9d57600080fd5b50565b600060208284031215613fb257600080fd5b81356110b381613f88565b600060208284031215613fcf57600080fd5b5035919050565b634e487b7160e01b600052602160045260246000fd5b6005811061400a57634e487b7160e01b600052602160045260246000fd5b9052565b6020810161401c8284613fec565b92915050565b60008060006060848603121561403757600080fd5b505081359360208301359350604090920135919050565b80356001600160601b038116811461406557600080fd5b919050565b60006020828403121561407c57600080fd5b6110b38261404e565b60808101818360005b60048110156140ad57815183526020928301929091019060010161408e565b50505092915050565b600080604083850312156140c957600080fd5b6140d28361404e565b946020939093013593505050565b634e487b7160e01b600052604160045260246000fd5b604051601f8201601f1916810167ffffffffffffffff8111828210171561411f5761411f6140e0565b604052919050565b803560ff8116811461406557600080fd5b8015158114613f9d57600080fd5b803561406581614138565b60008060006060848603121561416657600080fd5b61416f8461404e565b925060208085013567ffffffffffffffff8082111561418d57600080fd5b818701915087601f8301126141a157600080fd5b8135818111156141b3576141b36140e0565b8060051b91506141c48483016140f6565b818152918301840191848101908a8411156141de57600080fd5b938501935b83851015614203576141f485614127565b825293850193908501906141e3565b80975050505050505061421860408501614146565b90509250925092565b6001600160601b03881681526001600160a01b0387811660208301528616604082015260e081016142556060830187613fec565b931515608082015260a081019290925260c090910152949350505050565b600082601f83011261428457600080fd5b6040516080810181811067ffffffffffffffff821117156142a7576142a76140e0565b6040528060808401858111156142bc57600080fd5b845b818110156142d65780358352602092830192016142be565b509195945050505050565b60008060a083850312156142f457600080fd5b6142fd8361404e565b915061430c8460208501614273565b90509250929050565b60008060008060008060008060006101808a8c03121561433457600080fd5b61433d8a61404e565b985060208a013561434d81614138565b975060408a0135965060608a0135955060808a0135945060a08a013593506143788b60c08c01614273565b92506101408a013591506101608a013590509295985092959850929598565b600082601f8301126143a857600080fd5b813567ffffffffffffffff8111156143c2576143c26140e0565b6143d5601f8201601f19166020016140f6565b8181528460208386010111156143ea57600080fd5b816020850160208301376000918101602001919091529392505050565b60008060006060848603121561441c57600080fd5b833561442781613f88565b925060208401359150604084013567ffffffffffffffff81111561444a57600080fd5b61445686828701614397565b9150509250925092565b6000806040838503121561447357600080fd5b50508035926020909101359150565b600060a082018783526020878185015286604085015285606085015260a0608085015281855180845260c086019150828701935060005b818110156144de5784516001600160a01b0316835293830193918301916001016144b9565b50909a9950505050505050505050565b6000806040838503121561450157600080fd5b82359150602083013567ffffffffffffffff81111561451f57600080fd5b61452b85828601614397565b9150509250929050565b6000806040838503121561454857600080fd5b823561455381613f88565b915061430c6020840161404e565b600081518084526020808501945080840160005b8381101561459157815187529582019590820190600101614575565b509495945050505050565b8381526060602082015260006145b56060830185614561565b82810360408401526145c78185614561565b9695505050505050565b600080604083850312156145e457600080fd5b82356145ef81613f88565b915061430c60208401614127565b60006020828403121561460f57600080fd5b813567ffffffffffffffff81111561462657600080fd5b6137cc84828501614397565b60208082526022908201527f416363657373206e6f7420616c6c6f7765643a20476f7665726e6f72206f6e6c6040820152613c9760f11b606082015260800190565b634e487b7160e01b600052603260045260246000fd5b634e487b7160e01b600052601160045260246000fd5b6000828210156146b2576146b261468a565b500390565b6000602082840312156146c957600080fd5b5051919050565b600082198211156146e3576146e361468a565b500190565b60008160001904831182151516156147025761470261468a565b500290565b634e487b7160e01b600052601260045260246000fd5b60008261472c5761472c614707565b500490565b60006020828403121561474357600080fd5b81516110b381614138565b60006000198214156147625761476261468a565b5060010190565b6000600160ff1b82141561477f5761477f61468a565b5060000390565b60008261479557614795614707565b500690565b60005b838110156147b557818101518382015260200161479d565b838111156127a45750506000910152565b600082516147d881846020870161479a565b9190910192915050565b838152826020820152606060408201526000825180606084015261480d81608085016020870161479a565b601f01601f191691909101608001949350505050565b60006020828403121561483557600080fd5b81516110b381613f88565b634e487b7160e01b600052603160045260246000fdfea2646970667358221220ad09d81c74b0f536e4ee725a8c32bb4644f5f4ea81e800bd6c61b79e0918d69a64736f6c634300080a0033",
  "deployedBytecode": "0x60806040526004361061025b5760003560e01c8063840bc19c11610144578063d2b8035a116100b6578063eaff425a1161007a578063eaff425a14610819578063f441d9b31461082e578063f6a6ef7a1461084e578063f7434ea91461086e578063fbf405b01461088e578063fc6f8f16146108ae57600080fd5b8063d2b8035a1461074e578063d2d514e01461076e578063d578cbac1461079d578063de1a1e59146107bd578063e4c0aaf4146107f957600080fd5b8063afe15cfb11610108578063afe15cfb14610654578063b4a6160814610689578063c13517e11461069e578063c258bb19146106b1578063cf0c38f8146106d1578063d1c1df48146106f157600080fd5b8063840bc19c146105925780638a9bb02a146105ad5780638bb04875146105de578063a57366e7146105fe578063acdbf51d1461061e57600080fd5b80634b7fcda2116101dd57806359354c77116101a157806359354c77146104df57806359ec827e146104ff5780635bc24dd31461051f578063751accd01461053f5780637717a6e81461055f5780637e69b7b01461057f57600080fd5b80634b7fcda21461041c5780635468f9191461044c578063564a565d1461046c578063572603641461049f5780635788795d146104bf57600080fd5b806322684db01161022457806322684db01461036c5780632d29a47b146103995780632ea7b4d0146103b95780633cfd1184146103cf5780633e1d09be146103fc57600080fd5b8062f5822c146102605780630c340a2414610282578063115d5376146102bf5780631c3db16d146102df5780631f5a0dd21461030d575b600080fd5b34801561026c57600080fd5b5061028061027b366004613fa0565b6108ce565b005b34801561028e57600080fd5b506000546102a2906001600160a01b031681565b6040516001600160a01b0390911681526020015b60405180910390f35b3480156102cb57600080fd5b506102806102da366004613fbd565b610923565b3480156102eb57600080fd5b506102ff6102fa366004613fbd565b61101c565b6040519081526020016102b6565b34801561031957600080fd5b5061032d610328366004613fbd565b6110ba565b604080516001600160601b0390981688529515156020880152948601939093526060850191909152608084015260a083015260c082015260e0016102b6565b34801561037857600080fd5b5061038c610387366004613fbd565b611117565b6040516102b6919061400e565b3480156103a557600080fd5b506102806103b4366004614022565b611150565b3480156103c557600080fd5b506102ff61271081565b3480156103db57600080fd5b506103ef6103ea36600461406a565b611cd4565b6040516102b69190614085565b34801561040857600080fd5b506102806104173660046140b6565b611d45565b34801561042857600080fd5b5061043c610437366004613fbd565b611f60565b60405190151581526020016102b6565b34801561045857600080fd5b50610280610467366004614151565b611f99565b34801561047857600080fd5b5061048c610487366004613fbd565b6120fc565b6040516102b69796959493929190614221565b3480156104ab57600080fd5b506102806104ba3660046142e1565b612169565b3480156104cb57600080fd5b506102806104da366004614315565b6121d4565b3480156104eb57600080fd5b506102806104fa3660046140b6565b6124a8565b34801561050b57600080fd5b506102ff61051a366004613fbd565b612508565b34801561052b57600080fd5b5061028061053a3660046140b6565b612678565b34801561054b57600080fd5b5061028061055a366004614407565b6126d8565b34801561056b57600080fd5b5061028061057a3660046140b6565b6127aa565b61028061058d366004613fbd565b6127f8565b34801561059e57600080fd5b506102ff6001600160ff1b0381565b3480156105b957600080fd5b506105cd6105c8366004614460565b612b66565b6040516102b6959493929190614482565b3480156105ea57600080fd5b506102806105f9366004613fbd565b612c44565b34801561060a57600080fd5b506102806106193660046140b6565b612dc8565b34801561062a57600080fd5b506102a2610639366004613fbd565b6004602052600090815260409020546001600160a01b031681565b34801561066057600080fd5b5061067461066f366004613fbd565b612e28565b604080519283526020830191909152016102b6565b34801561069557600080fd5b506102ff600481565b6102ff6106ac3660046144ee565b612edc565b3480156106bd57600080fd5b506102806106cc366004613fa0565b613245565b3480156106dd57600080fd5b506002546102a2906001600160a01b031681565b3480156106fd57600080fd5b5061067461070c366004614535565b6001600160a01b0390911660009081526006602090815260408083206001600160601b0390941683526001840182528083205460029094019091529020549091565b34801561075a57600080fd5b50610280610769366004614460565b613291565b34801561077a57600080fd5b5061078e610789366004613fbd565b6135a6565b6040516102b69392919061459c565b3480156107a957600080fd5b5061043c6107b8366004613fbd565b61366e565b3480156107c957600080fd5b506102ff6107d8366004614460565b60009182526007602090815260408084209284526004909201905290205490565b34801561080557600080fd5b50610280610814366004613fa0565b6136a4565b34801561082557600080fd5b506102ff600381565b34801561083a57600080fd5b506102806108493660046145d1565b6136f0565b34801561085a57600080fd5b506102ff610869366004613fbd565b61374b565b34801561087a57600080fd5b506102ff6108893660046145fd565b613780565b34801561089a57600080fd5b506001546102a2906001600160a01b031681565b3480156108ba57600080fd5b506102ff6108c9366004613fbd565b6137d4565b6000546001600160a01b031633146109015760405162461bcd60e51b81526004016108f890614632565b60405180910390fd5b600180546001600160a01b0319166001600160a01b0392909216919091179055565b60006005828154811061093857610938614674565b9060005260206000209060050201905060006001826004018054905061095e91906146a0565b9050600082600401828154811061097757610977614674565b60009182526020822060059091020191506001840154600160a01b900460ff1660048111156109a8576109a8613fd6565b1415610b90576000821180610a30575082546003805490916001600160601b03169081106109d8576109d8614674565b90600052602060002090600b02016006018360010160149054906101000a900460ff166004811115610a0c57610a0c613fd6565b60048110610a1c57610a1c614674565b01546002840154610a2d90426146a0565b10155b610ab05760405162461bcd60e51b8152602060048201526044602482018190527f5468652065766964656e636520706572696f642074696d6520686173206e6f74908201527f207061737365642079657420616e64206974206973206e6f7420616e2061707060648201526332b0b61760e11b608482015260a4016108f8565b6003830154600482015414610b195760405162461bcd60e51b815260206004820152602960248201527f546865206469737075746520686173206e6f742066696e6973686564206472616044820152683bb4b733903cb2ba1760b91b60648201526084016108f8565b82546003805490916001600160601b0316908110610b3957610b39614674565b60009182526020909120600b9091020154600160601b900460ff16610b5f576002610b62565b60015b60018401805460ff60a01b1916600160a01b836004811115610b8657610b86613fd6565b0217905550610fc8565b600180840154600160a01b900460ff166004811115610bb157610bb1613fd6565b1415610cc05782546003805490916001600160601b0316908110610bd757610bd7614674565b90600052602060002090600b02016006018360010160149054906101000a900460ff166004811115610c0b57610c0b613fd6565b60048110610c1b57610c1b614674565b01546002840154610c2c90426146a0565b101580610c45575060018301546001600160a01b031633145b610ca45760405162461bcd60e51b815260206004820152602a60248201527f54686520636f6d6d697420706572696f642074696d6520686173206e6f74207060448201526930b9b9b2b2103cb2ba1760b11b60648201526084016108f8565b6001830180546002919060ff60a01b1916600160a01b83610b86565b60026001840154600160a01b900460ff166004811115610ce257610ce2613fd6565b1415610e2b5782546003805490916001600160601b0316908110610d0857610d08614674565b90600052602060002090600b02016006018360010160149054906101000a900460ff166004811115610d3c57610d3c613fd6565b60048110610d4c57610d4c614674565b01546002840154610d5d90426146a0565b101580610d76575060018301546001600160a01b031633145b610dd25760405162461bcd60e51b815260206004820152602760248201527f54686520766f746520706572696f642074696d6520686173206e6f74207061736044820152661cd959081e595d60ca1b60648201526084016108f8565b60018301805460ff60a01b1916600360a01b1790558254604051600160601b9091046001600160a01b03169085907fa5d41b970d849372be1da1481ffd78d162bfe57a7aa2fe4e5fb73481fa5ac24f90600090a3610fc8565b60036001840154600160a01b900460ff166004811115610e4d57610e4d613fd6565b1415610f455782546003805490916001600160601b0316908110610e7357610e73614674565b90600052602060002090600b02016006018360010160149054906101000a900460ff166004811115610ea757610ea7613fd6565b60048110610eb757610eb7614674565b01546002840154610ec890426146a0565b1015610f295760405162461bcd60e51b815260206004820152602a60248201527f5468652061707065616c20706572696f642074696d6520686173206e6f74207060448201526930b9b9b2b2103cb2ba1760b11b60648201526084016108f8565b6001830180546004919060ff60a01b1916600160a01b83610b86565b60046001840154600160a01b900460ff166004811115610f6757610f67613fd6565b1415610fc85760405162461bcd60e51b815260206004820152602a60248201527f546865206469737075746520697320616c726561647920696e20746865206c6160448201526939ba103832b934b7b21760b11b60648201526084016108f8565b426002840155600183015460405185917f4e6f5cf43b95303e86aee81683df63992061723a829ee012db21dad388756b919161100e91600160a01b900460ff169061400e565b60405180910390a250505050565b6000806005838154811061103257611032614674565b6000918252602090912060059091020160010154604051631c3db16d60e01b8152600481018590526001600160a01b0390911691508190631c3db16d90602401602060405180830381865afa15801561108f573d6000803e3d6000fd5b505050506040513d601f19601f820116820180604052508101906110b391906146b7565b9392505050565b600381815481106110ca57600080fd5b60009182526020909120600b9091020180546002820154600383015460048401546005850154600a909501546001600160601b0385169650600160601b90940460ff169492939192909187565b60006005828154811061112c5761112c614674565b6000918252602090912060059091020160010154600160a01b900460ff1692915050565b60006005848154811061116557611165614674565b60009182526020909120600590910201905060046001820154600160a01b900460ff16600481111561119957611199613fd6565b146111e65760405162461bcd60e51b815260206004820152601b60248201527f53686f756c6420626520657865637574696f6e20706572696f642e000000000060448201526064016108f8565b6000828260040185815481106111fe576111fe614674565b90600052602060002090600502016002015461121a91906146d0565b9050600082600401858154811061123357611233614674565b9060005260206000209060050201600301549050600083600401868154811061125e5761125e614674565b6000918252602082206004600590920201810154600187015460405163368efae360e21b81529194506001600160a01b03169163da3beb8c916112ae918c918c9101918252602082015260400190565b602060405180830381865afa1580156112cb573d6000803e3d6000fd5b505050506040513d601f19601f820116820180604052508101906112ef91906146b7565b90506000808261130a5783861115611305578395505b61132a565b6113158460026146e8565b86111561132a576113278460026146e8565b95505b6000876004018a8154811061134157611341614674565b90600052602060002090600502016002015490505b86811015611c435784811015611841576001880154604051634fe264fb60e01b8152600481018d9052602481018c9052604481018390526001600160a01b0390911690634fe264fb90606401602060405180830381865afa1580156113bf573d6000803e3d6000fd5b505050506040513d601f19601f820116820180604052508101906113e391906146b7565b91506127108211156113f55761271091505b600061271061140484826146a0565b8a6004018d8154811061141957611419614674565b90600052602060002090600502016000015461143591906146e8565b61143f919061471d565b905061144b81886146d0565b9650886004018b8154811061146257611462614674565b9060005260206000209060050201600401828154811061148457611484614674565b60009182526020808320909101546001600160a01b03168083526006825260408084208d546001600160601b031685526002019092529082208054919650839290916114d19084906146a0565b909155505088546003805483926001600160601b03169081106114f6576114f6614674565b90600052602060002090600b02016002015461151291906146d0565b6001600160a01b03851660009081526006602090815260408083208d546001600160601b031684526001019091529020541061159b5788546001600160a01b03851660009081526006602090815260408083206001600160601b03909416808452600190940190915290205461159591869161158f9085906146a0565b84613805565b506115ec565b6001600160a01b03841660009081526006602090815260408083208c546001600160601b03168452600101909152902054156115ec5788546115ea9085906001600160601b0316600084613805565b505b600189015460405163ba66fde760e01b8152600481018e9052602481018d9052604481018490526001600160a01b039091169063ba66fde790606401602060405180830381865afa158015611645573d6000803e3d6000fd5b505050506040513d601f19601f820116820180604052508101906116699190614731565b6117065760005b6001600160a01b038516600090815260066020526040902054811015611704576001600160a01b038516600090815260066020526040902080546116f1918791849081106116c0576116c0614674565b9060005260206000209060029182820401919006600c029054906101000a90046001600160601b0316600080613805565b50806116fc8161474e565b915050611670565b505b8b6001600160a01b0385167f24f45c2b08bbde8c837d70b67991ccb7660537cf749de21a940ae4858b681e1961173b84614769565b60408051918252600060208301520160405180910390a361175d6001876146a0565b82141561183b578461183b5760005460048a0180546001600160a01b03909216916108fc91908e90811061179357611793614674565b9060005260206000209060050201600101549081150290604051600060405180830381858888f1505060015460005460405163a9059cbb60e01b81526001600160a01b039182166004820152602481018d90529116935063a9059cbb925060440190506020604051808303816000875af1158015611815573d6000803e3d6000fd5b505050506040513d601f19601f820116820180604052508101906118399190614731565b505b50611c31565b60018801546001600160a01b0316634fe264fb8c8c6118608986614786565b6040516001600160e01b031960e086901b168152600481019390935260248301919091526044820152606401602060405180830381865afa1580156118a9573d6000803e3d6000fd5b505050506040513d601f19601f820116820180604052508101906118cd91906146b7565b91506127108211156118df5761271091505b876004018a815481106118f4576118f4614674565b906000526020600020906005020160040185826119119190614786565b8154811061192157611921614674565b9060005260206000200160009054906101000a90046001600160a01b0316925061271082896004018c8154811061195a5761195a614674565b90600052602060002090600502016000015461197691906146e8565b611980919061471d565b6001600160a01b03841660009081526006602090815260408083208c546001600160601b03168452600201909152812080549091906119c09084906146a0565b90915550506001600160a01b03831660009081526006602090815260408083208b546001600160601b03168452600101909152902054611acf57600160009054906101000a90046001600160a01b03166001600160a01b031663a9059cbb84612710858c6004018f81548110611a3857611a38614674565b906000526020600020906005020160000154611a5491906146e8565b611a5e919061471d565b6040516001600160e01b031960e085901b1681526001600160a01b03909216600483015260248201526044016020604051808303816000875af1158015611aa9573d6000803e3d6000fd5b505050506040513d601f19601f82011682018060405250810190611acd9190614731565b505b600061271083611adf878a61471d565b611ae991906146e8565b611af3919061471d565b9050600061271084878c6004018f81548110611b1157611b11614674565b906000526020600020906005020160010154611b2d919061471d565b611b3791906146e8565b611b41919061471d565b60015460405163a9059cbb60e01b81526001600160a01b0388811660048301526024820186905292935091169063a9059cbb906044016020604051808303816000875af1158015611b96573d6000803e3d6000fd5b505050506040513d601f19601f82011682018060405250810190611bba9190614731565b506040516001600160a01b0386169082156108fc029083906000818181858888f19350505050508c856001600160a01b03167f24f45c2b08bbde8c837d70b67991ccb7660537cf749de21a940ae4858b681e198484604051611c26929190918252602082015260400190565b60405180910390a350505b80611c3b8161474e565b915050611356565b5084876004018a81548110611c5a57611c5a614674565b90600052602060002090600502016003015414611c9d5784876004018a81548110611c8757611c87614674565b9060005260206000209060050201600301819055505b85876004018a81548110611cb357611cb3614674565b90600052602060002090600502016002018190555050505050505050505050565b611cdc613edd565b60006003836001600160601b031681548110611cfa57611cfa614674565b60009182526020909120604080516080810191829052600b9093029091019250600683019060049082845b815481526020019060010190808311611d25575050505050915050919050565b6000546001600160a01b03163314611d6f5760405162461bcd60e51b81526004016108f890614632565b6001600160601b0382161580611de0575080600380846001600160601b031681548110611d9e57611d9e614674565b60009182526020909120600b909102015481546001600160601b03909116908110611dcb57611dcb614674565b90600052602060002090600b02016002015411155b611de957600080fd5b60005b6003836001600160601b031681548110611e0857611e08614674565b90600052602060002090600b020160010180549050811015611f295781600380856001600160601b031681548110611e4257611e42614674565b90600052602060002090600b02016001018381548110611e6457611e64614674565b906000526020600020015481548110611e7f57611e7f614674565b90600052602060002090600b0201600201541015611f175760405162461bcd60e51b815260206004820152604960248201527f4120737562636f7572742063616e6e6f742062652074686520706172656e742060448201527f6f66206120737562636f75727420776974682061206c6f776572206d696e696d6064820152683ab69039ba30b5b29760b91b608482015260a4016108f8565b80611f218161474e565b915050611dec565b50806003836001600160601b031681548110611f4757611f47614674565b90600052602060002090600b0201600201819055505050565b600060058281548110611f7557611f75614674565b6000918252602090912060059091020160010154600160a81b900460ff1692915050565b6000546001600160a01b03163314611fc35760405162461bcd60e51b81526004016108f890614632565b60006003846001600160601b031681548110611fe157611fe1614674565b90600052602060002090600b0201905060005b83518110156120f557600084828151811061201157612011614674565b602002602001015160ff166001901b90508315612083578083600a01541982161461207e5760405162461bcd60e51b815260206004820152601d60248201527f44697370757465206b697420616c726561647920737570706f7274656400000060448201526064016108f8565b6120d8565b8083600a01548216146120d85760405162461bcd60e51b815260206004820152601c60248201527f44697370757465206b6974206973206e6f7420737570706f727465640000000060448201526064016108f8565b600a830180549091189055806120ed8161474e565b915050611ff4565b5050505050565b6005818154811061210c57600080fd5b600091825260209091206005909102018054600182015460028301546003909301546001600160601b03831694506001600160a01b03600160601b9093048316939282169260ff600160a01b8404811693600160a81b9004169187565b6000546001600160a01b031633146121935760405162461bcd60e51b81526004016108f890614632565b806003836001600160601b0316815481106121b0576121b0614674565b90600052602060002090600b02016006019060046121cf929190613efb565b505050565b6000546001600160a01b031633146121fe5760405162461bcd60e51b81526004016108f890614632565b8660038a6001600160601b03168154811061221b5761221b614674565b90600052602060002090600b02016002015411156122b15760405162461bcd60e51b815260206004820152604760248201527f4120737562636f7572742063616e6e6f742062652061206368696c64206f662060448201527f6120737562636f7572742077697468206120686967686572206d696e696d756d6064820152661039ba30b5b29760c91b608482015260a4016108f8565b6003805460408051610120810182526001600160601b038d1681528b151560208201529192919081016000604051908082528060200260200182016040528015612305578160200160208202803683370190505b50815260208082018c905260408083018c9052606083018b9052608083018a905260a0830189905260c09092018690528354600181810186556000958652948290208451600b909202018054858401511515600160601b026cffffffffffffffffffffffffff199091166001600160601b03909316929092179190911781559183015180519394929361239f938501929190910190613f39565b50606082015181600201556080820151816003015560a0820151816004015560c0820151816005015560e0820151816006019060046123df929190613efb565b506101009190910151600a9091015560405163483abc4f60e11b815260076004820152602481018290526044810184905273__$52cf47af9c3c0d67e54ac2a3225447effa$__90639075789e9060640160006040518083038186803b15801561244757600080fd5b505af415801561245b573d6000803e3d6000fd5b5050505060038a6001600160601b03168154811061247b5761247b614674565b600091825260208083206001600b9093020182018054928301815583529091200155505050505050505050565b6000546001600160a01b031633146124d25760405162461bcd60e51b81526004016108f890614632565b806003836001600160601b0316815481106124ef576124ef614674565b90600052602060002090600b0201600401819055505050565b6000806005838154811061251e5761251e614674565b60009182526020909120600590910201805460038054929350916001600160601b0390911690811061255257612552614674565b90600052602060002090600b02016005015481600301541061261b5780546001600160601b031661258c576001600160ff1b039150612672565b600381015461259c9060026146e8565b6125a79060016146d0565b815460038054909182916001600160601b039091169081106125cb576125cb614674565b60009182526020909120600b909102015481546001600160601b039091169081106125f8576125f8614674565b90600052602060002090600b02016004015461261491906146e8565b9150612672565b600381015461262b9060026146e8565b6126369060016146d0565b81546003805490916001600160601b031690811061265657612656614674565b90600052602060002090600b0201600401546110b391906146e8565b50919050565b6000546001600160a01b031633146126a25760405162461bcd60e51b81526004016108f890614632565b806003836001600160601b0316815481106126bf576126bf614674565b90600052602060002090600b0201600301819055505050565b6000546001600160a01b031633146127025760405162461bcd60e51b81526004016108f890614632565b6000836001600160a01b0316838360405161271d91906147c6565b60006040518083038185875af1925050503d806000811461275a576040519150601f19603f3d011682016040523d82523d6000602084013e61275f565b606091505b50509050806127a45760405162461bcd60e51b8152602060048201526011602482015270155b9cdd58d8d95cdcd99d5b0818d85b1b607a1b60448201526064016108f8565b50505050565b6127b73383836000613805565b6127f45760405162461bcd60e51b815260206004820152600e60248201526d14dd185ada5b99c819985a5b195960921b60448201526064016108f8565b5050565b61280181612508565b34101561285c5760405162461bcd60e51b8152602060048201526024808201527f4e6f7420656e6f7567682045544820746f20636f7665722061707065616c206360448201526337b9ba1760e11b60648201526084016108f8565b60006005828154811061287157612871614674565b60009182526020909120600590910201905060036001820154600160a01b900460ff1660048111156128a5576128a5613fd6565b146128f25760405162461bcd60e51b815260206004820152601a60248201527f44697370757465206973206e6f742061707065616c61626c652e00000000000060448201526064016108f8565b60018101546001600160a01b0316331461295c5760405162461bcd60e51b815260206004820152602560248201527f416363657373206e6f7420616c6c6f7765643a2044697370757465204b69742060448201526437b7363c9760d91b60648201526084016108f8565b80546003805490916001600160601b031690811061297c5761297c614674565b90600052602060002090600b0201600501548160030154106129e95780546003805490916001600160601b03169081106129b8576129b8614674565b60009182526020909120600b909102015481546bffffffffffffffffffffffff19166001600160601b039091161781555b60018101805460ff60a01b1916905542600282015580546003805490916001600160601b0316908110612a1e57612a1e614674565b90600052602060002090600b02016004015434612a3b919061471d565b60038083019190915560048201805460018101825560009182526020909120835483546005909302909101926127109290916001600160601b0316908110612a8557612a85614674565b600091825260209091206003600b90920201810154845482549192916001600160601b03909116908110612abb57612abb614674565b90600052602060002090600b020160020154612ad791906146e8565b612ae1919061471d565b81553460018201558154604051600160601b9091046001600160a01b03169084907f9c9b64db9e130f48381bf697abf638e73117dbfbfd7a4484f2da3ba188f4187d90600090a3827f4e6f5cf43b95303e86aee81683df63992061723a829ee012db21dad388756b916000604051612b59919061400e565b60405180910390a2505050565b6000806000806060600060058881548110612b8357612b83614674565b906000526020600020906005020190506000816004018881548110612baa57612baa614674565b9060005260206000209060050201905080600001548160010154826002015483600301548460040180805480602002602001604051908101604052809291908181526020018280548015612c2757602002820191906000526020600020905b81546001600160a01b03168152600190910190602001808311612c09575b505050505090509650965096509650965050509295509295909350565b600060058281548110612c5957612c59614674565b60009182526020909120600590910201905060046001820154600160a01b900460ff166004811115612c8d57612c8d613fd6565b14612cda5760405162461bcd60e51b815260206004820152601b60248201527f53686f756c6420626520657865637574696f6e20706572696f642e000000000060448201526064016108f8565b6001810154600160a81b900460ff1615612d365760405162461bcd60e51b815260206004820152601860248201527f52756c696e6720616c72656164792065786563757465642e000000000000000060448201526064016108f8565b6000612d418361101c565b60018301805460ff60a81b1916600160a81b179055825460405163188d362b60e11b815260048101869052602481018390529192506001600160a01b03600160601b909104169063311a6c5690604401600060405180830381600087803b158015612dab57600080fd5b505af1158015612dbf573d6000803e3d6000fd5b50505050505050565b6000546001600160a01b03163314612df25760405162461bcd60e51b81526004016108f890614632565b806003836001600160601b031681548110612e0f57612e0f614674565b90600052602060002090600b0201600501819055505050565b600080600060058481548110612e4057612e40614674565b60009182526020909120600590910201905060036001820154600160a01b900460ff166004811115612e7457612e74613fd6565b1415612ecd576002810154815460038054929550916001600160601b03909116908110612ea357612ea3614674565b600091825260209091206009600b9092020101546002820154612ec691906146d0565b9150612ed6565b60009250600091505b50915091565b6000612ee782613780565b341015612f485760405162461bcd60e51b815260206004820152602960248201527f4e6f7420656e6f7567682045544820746f20636f76657220617262697472617460448201526834b7b71031b7b9ba1760b91b60648201526084016108f8565b600080612f5484613e19565b925050915060008160ff166001901b9050806003846001600160601b031681548110612f8257612f82614674565b90600052602060002090600b0201600a0154821614612ffd5760405162461bcd60e51b815260206004820152603160248201527f5468652064697370757465206b6974206973206e6f7420737570706f7274656460448201527008189e481d1a1a5cc81cdd5898dbdd5c9d607a1b60648201526084016108f8565b60058054600181018255600160601b33026001600160601b038087168281179484027f036b6384b5eca791c62761152d0c79bb0604c104a5fb6f4eb0703f3154bb3db0810195865560ff88166000908152600460205260409020547f036b6384b5eca791c62761152d0c79bb0604c104a5fb6f4eb0703f3154bb3db1820180546001600160a01b0319166001600160a01b03929092169182179055427f036b6384b5eca791c62761152d0c79bb0604c104a5fb6f4eb0703f3154bb3db29092019190915560038054959a5090949093909216179081106130df576130df614674565b90600052602060002090600b020160040154346130fc919061471d565b60038084019190915560048301805460018101825560009182526020909120845483546005909302909101926127109290916001600160601b031690811061314657613146614674565b600091825260209091206003600b90920201810154855482549192916001600160601b0390911690811061317c5761317c614674565b90600052602060002090600b02016002015461319891906146e8565b6131a2919061471d565b8155346001820155604051638d31de6d60e01b81526001600160a01b03831690638d31de6d906131da908a908d908d906004016147e2565b600060405180830381600087803b1580156131f457600080fd5b505af1158015613208573d6000803e3d6000fd5b50506040513392508991507f141dfc18aa6a56fc816f44f0e9e2f1ebc92b15ab167770e17db5b084c10ed99590600090a350505050505092915050565b6000546001600160a01b0316331461326f5760405162461bcd60e51b81526004016108f890614632565b600280546001600160a01b0319166001600160a01b0392909216919091179055565b6000600583815481106132a6576132a6614674565b906000526020600020906005020190506000600182600401805490506132cc91906146a0565b905060008260040182815481106132e5576132e5614674565b60009182526020822060059091020191506001840154600160a01b900460ff16600481111561331657613316613fd6565b146133635760405162461bcd60e51b815260206004820152601a60248201527f53686f756c642062652065766964656e636520706572696f642e00000000000060448201526064016108f8565b6001830154600482015460038501546001600160a01b039092169160009061338b88846146d0565b111561339b5785600301546133a5565b6133a587836146d0565b9050815b8181101561359b57604051633b30414760e01b8152600481018a90526000906001600160a01b03861690633b304147906024016020604051808303816000875af11580156133fb573d6000803e3d6000fd5b505050506040513d601f19601f8201168201806040525081019061341f9190614823565b90506001600160a01b038116156135885785546001600160a01b03821660009081526006602090815260408083208c546001600160601b03168452600201909152812080549091906134729084906146d0565b90915550506001600160a01b03811660009081526006602090815260408083208b546001600160601b031684526002810183528184205460019091019092529091205410156135195760405162461bcd60e51b815260206004820152602d60248201527f4c6f636b656420616d6f756e742073686f756c646e277420657863656564207360448201526c3a30b5b2b21030b6b7bab73a1760991b60648201526084016108f8565b60048601805460018101825560009182526020918290200180546001600160a01b0319166001600160a01b038416908117909155604080518a81529283018590528c927f6119cf536152c11e0a9a6c22f3953ce4ecc93ee54fa72ffa326ffabded21509b910160405180910390a35b50806135938161474e565b9150506133a9565b505050505050505050565b600081815260076020908152604091829020805460018201805485518186028101860190965280865291946060948594939192919083018282801561360a57602002820191906000526020600020905b8154815260200190600101908083116135f6575b505050505092508060020180548060200260200160405190810160405280929190818152602001828054801561365f57602002820191906000526020600020905b81548152602001906001019080831161364b575b50505050509150509193909250565b60006003828154811061368357613683614674565b60009182526020909120600b9091020154600160601b900460ff1692915050565b6000546001600160a01b031633146136ce5760405162461bcd60e51b81526004016108f890614632565b600080546001600160a01b0319166001600160a01b0392909216919091179055565b6000546001600160a01b0316331461371a5760405162461bcd60e51b81526004016108f890614632565b60ff16600090815260046020526040902080546001600160a01b0319166001600160a01b0392909216919091179055565b60006005828154811061376057613760614674565b60009182526020909120600590910201546001600160601b031692915050565b600080600061378e84613e19565b5091509150806003836001600160601b0316815481106137b0576137b0614674565b90600052602060002090600b0201600401546137cc91906146e8565b949350505050565b600080600583815481106137ea576137ea614674565b60009182526020909120600460059092020101549392505050565b6001600160a01b0384166000908152600660205260408120816138288787613e95565b604051637521ccb160e01b8152600760048201526001600160601b03881660248201526044810182905290915060009073__$52cf47af9c3c0d67e54ac2a3225447effa$__90637521ccb190606401602060405180830381865af4158015613894573d6000803e3d6000fd5b505050506040513d601f19601f820116820180604052508101906138b891906146b7565b9050851561397f576003876001600160601b0316815481106138dc576138dc614674565b90600052602060002090600b02016002015486108061391457506001600160601b038716600090815260028401602052604090205486105b1561392557600093505050506137cc565b8061397a57825460041161393f57600093505050506137cc565b8254600180820185556000858152602090206002830401805491909216600c026101000a6001600160601b0381810219909216918a16021790555b613acb565b60005b8354811015613ac957876001600160601b03168460000182815481106139aa576139aa614674565b600091825260209091206002820401546001909116600c026101000a90046001600160601b03161415613ab757835484906139e7906001906146a0565b815481106139f7576139f7614674565b9060005260206000209060029182820401919006600c029054906101000a90046001600160601b0316846000018281548110613a3557613a35614674565b9060005260206000209060029182820401919006600c026101000a8154816001600160601b0302191690836001600160601b0316021790555083600001805480613a8157613a81614840565b60008281526020902060026000199092019182040180546001600160601b03600c60018516026101000a02191690559055613ac9565b80613ac18161474e565b915050613982565b505b6001600160601b03871660009081526001840160205260408120548790613af39084906146a0565b613afd91906146d0565b6001600160601b038916600081815260018701602052604081208390559192505b81613be157604051631712e1c560e11b81526007600482015260248101829052604481018a90526064810186905273__$52cf47af9c3c0d67e54ac2a3225447effa$__90632e25c38a9060840160006040518083038186803b158015613b8357600080fd5b505af4158015613b97573d6000803e3d6000fd5b505050508060001415613bad5760019150613b1e565b60038181548110613bc057613bc0614674565b60009182526020909120600b90910201546001600160601b03169050613b1e565b604080516001600160601b038c168152602081018b90529081018490526001600160a01b038c16907f70ca4ec64687bf265f39041896f3dbf10b9f650503cb38f2b3569fdce7489c369060600160405180910390a26000848a10613ce857613c49858b6146a0565b90508015613ce3576001546040516323b872dd60e01b81526001600160a01b038e8116600483015230602483015260448201849052909116906323b872dd906064015b6020604051808303816000875af1158015613cab573d6000803e3d6000fd5b505050506040513d601f19601f82011682018060405250810190613ccf9190614731565b613ce35760009750505050505050506137cc565b613e07565b89613d5f576001600160601b038b1660009081526002880160205260409020548990613d1490876146a0565b613d1e91906146a0565b90508015613ce35760015460405163a9059cbb60e01b81526001600160a01b038e81166004830152602482018490529091169063a9059cbb90604401613c8c565b88613d6a8b876146a0565b613d7491906146a0565b90508015613e075760015460405163a9059cbb60e01b81526001600160a01b038e81166004830152602482018490529091169063a9059cbb906044016020604051808303816000875af1158015613dcf573d6000803e3d6000fd5b505050506040513d601f19601f82011682018060405250810190613df39190614731565b613e075760009750505050505050506137cc565b5060019b9a5050505050505050505050565b60008060006040845110613e83575050506020810151604082015160608301516003546001600160601b03841610613e5057600092505b81613e5a57600391505b60ff81166000908152600460205260409020546001600160a01b0316613e7e575060005b613e8e565b506000915060039050815b9193909250565b600060405160005b6014811015613eb8578481600c011a81830153600101613e9d565b5060145b6020811015613ed45783811a81830153600101613ebc565b50519392505050565b60405180608001604052806004906020820280368337509192915050565b8260048101928215613f29579160200282015b82811115613f29578251825591602001919060010190613f0e565b50613f35929150613f73565b5090565b828054828255906000526020600020908101928215613f295791602002820182811115613f29578251825591602001919060010190613f0e565b5b80821115613f355760008155600101613f74565b6001600160a01b0381168114613f9d57600080fd5b50565b600060208284031215613fb257600080fd5b81356110b381613f88565b600060208284031215613fcf57600080fd5b5035919050565b634e487b7160e01b600052602160045260246000fd5b6005811061400a57634e487b7160e01b600052602160045260246000fd5b9052565b6020810161401c8284613fec565b92915050565b60008060006060848603121561403757600080fd5b505081359360208301359350604090920135919050565b80356001600160601b038116811461406557600080fd5b919050565b60006020828403121561407c57600080fd5b6110b38261404e565b60808101818360005b60048110156140ad57815183526020928301929091019060010161408e565b50505092915050565b600080604083850312156140c957600080fd5b6140d28361404e565b946020939093013593505050565b634e487b7160e01b600052604160045260246000fd5b604051601f8201601f1916810167ffffffffffffffff8111828210171561411f5761411f6140e0565b604052919050565b803560ff8116811461406557600080fd5b8015158114613f9d57600080fd5b803561406581614138565b60008060006060848603121561416657600080fd5b61416f8461404e565b925060208085013567ffffffffffffffff8082111561418d57600080fd5b818701915087601f8301126141a157600080fd5b8135818111156141b3576141b36140e0565b8060051b91506141c48483016140f6565b818152918301840191848101908a8411156141de57600080fd5b938501935b83851015614203576141f485614127565b825293850193908501906141e3565b80975050505050505061421860408501614146565b90509250925092565b6001600160601b03881681526001600160a01b0387811660208301528616604082015260e081016142556060830187613fec565b931515608082015260a081019290925260c090910152949350505050565b600082601f83011261428457600080fd5b6040516080810181811067ffffffffffffffff821117156142a7576142a76140e0565b6040528060808401858111156142bc57600080fd5b845b818110156142d65780358352602092830192016142be565b509195945050505050565b60008060a083850312156142f457600080fd5b6142fd8361404e565b915061430c8460208501614273565b90509250929050565b60008060008060008060008060006101808a8c03121561433457600080fd5b61433d8a61404e565b985060208a013561434d81614138565b975060408a0135965060608a0135955060808a0135945060a08a013593506143788b60c08c01614273565b92506101408a013591506101608a013590509295985092959850929598565b600082601f8301126143a857600080fd5b813567ffffffffffffffff8111156143c2576143c26140e0565b6143d5601f8201601f19166020016140f6565b8181528460208386010111156143ea57600080fd5b816020850160208301376000918101602001919091529392505050565b60008060006060848603121561441c57600080fd5b833561442781613f88565b925060208401359150604084013567ffffffffffffffff81111561444a57600080fd5b61445686828701614397565b9150509250925092565b6000806040838503121561447357600080fd5b50508035926020909101359150565b600060a082018783526020878185015286604085015285606085015260a0608085015281855180845260c086019150828701935060005b818110156144de5784516001600160a01b0316835293830193918301916001016144b9565b50909a9950505050505050505050565b6000806040838503121561450157600080fd5b82359150602083013567ffffffffffffffff81111561451f57600080fd5b61452b85828601614397565b9150509250929050565b6000806040838503121561454857600080fd5b823561455381613f88565b915061430c6020840161404e565b600081518084526020808501945080840160005b8381101561459157815187529582019590820190600101614575565b509495945050505050565b8381526060602082015260006145b56060830185614561565b82810360408401526145c78185614561565b9695505050505050565b600080604083850312156145e457600080fd5b82356145ef81613f88565b915061430c60208401614127565b60006020828403121561460f57600080fd5b813567ffffffffffffffff81111561462657600080fd5b6137cc84828501614397565b60208082526022908201527f416363657373206e6f7420616c6c6f7765643a20476f7665726e6f72206f6e6c6040820152613c9760f11b606082015260800190565b634e487b7160e01b600052603260045260246000fd5b634e487b7160e01b600052601160045260246000fd5b6000828210156146b2576146b261468a565b500390565b6000602082840312156146c957600080fd5b5051919050565b600082198211156146e3576146e361468a565b500190565b60008160001904831182151516156147025761470261468a565b500290565b634e487b7160e01b600052601260045260246000fd5b60008261472c5761472c614707565b500490565b60006020828403121561474357600080fd5b81516110b381614138565b60006000198214156147625761476261468a565b5060010190565b6000600160ff1b82141561477f5761477f61468a565b5060000390565b60008261479557614795614707565b500690565b60005b838110156147b557818101518382015260200161479d565b838111156127a45750506000910152565b600082516147d881846020870161479a565b9190910192915050565b838152826020820152606060408201526000825180606084015261480d81608085016020870161479a565b601f01601f191691909101608001949350505050565b60006020828403121561483557600080fd5b81516110b381613f88565b634e487b7160e01b600052603160045260246000fdfea2646970667358221220ad09d81c74b0f536e4ee725a8c32bb4644f5f4ea81e800bd6c61b79e0918d69a64736f6c634300080a0033",
  "libraries": {
    "SortitionSumTreeFactory": "0xf02733d9e5CbfE67B54F165b0277E1995106D526"
  },
  "devdoc": {
    "kind": "dev",
    "methods": {
      "addNewDisputeKit(address,uint8)": {
        "details": "Add a new supported dispute kit module to the court.",
        "params": {
          "_disputeKitAddress": "The address of the dispute kit contract.",
          "_disputeKitID": "The ID assigned to the added dispute kit."
        }
      },
      "appeal(uint256)": {
        "details": "Appeals the ruling of a specified dispute.  Note: Access restricted to the Dispute Kit for this `disputeID`.",
        "params": {
          "_disputeID": "The ID of the dispute."
        }
      },
      "appealCost(uint256)": {
        "details": "Gets the cost of appealing a specified dispute.",
        "params": {
          "_disputeID": "The ID of the dispute."
        },
        "returns": {
          "cost": "The appeal cost."
        }
      },
      "appealPeriod(uint256)": {
        "details": "Gets the start and the end of a specified dispute's current appeal period.",
        "params": {
          "_disputeID": "The ID of the dispute."
        },
        "returns": {
          "end": "The end of the appeal period.",
          "start": "The start of the appeal period."
        }
      },
      "arbitrationCost(bytes)": {
        "details": "Gets the cost of arbitration in a specified subcourt.",
        "params": {
          "_extraData": "Additional info about the dispute. We use it to pass the ID of the subcourt to create the dispute in (first 32 bytes)  and the minimum number of jurors required (next 32 bytes)."
        },
        "returns": {
          "cost": "The arbitration cost."
        }
      },
      "changeGovernor(address)": {
        "details": "Changes the `governor` storage variable.",
        "params": {
          "_governor": "The new value for the `governor` storage variable."
        }
      },
      "changeJurorProsecutionModule(address)": {
        "details": "Changes the `jurorProsecutionModule` storage variable.",
        "params": {
          "_jurorProsecutionModule": "The new value for the `jurorProsecutionModule` storage variable."
        }
      },
      "changePinakion(address)": {
        "details": "Changes the `pinakion` storage variable.",
        "params": {
          "_pinakion": "The new value for the `pinakion` storage variable."
        }
      },
      "changeSubcourtAlpha(uint96,uint256)": {
        "details": "Changes the `alpha` property value of a specified subcourt.",
        "params": {
          "_alpha": "The new value for the `alpha` property value.",
          "_subcourtID": "The ID of the subcourt."
        }
      },
      "changeSubcourtJurorFee(uint96,uint256)": {
        "details": "Changes the `feeForJuror` property value of a specified subcourt.",
        "params": {
          "_feeForJuror": "The new value for the `feeForJuror` property value.",
          "_subcourtID": "The ID of the subcourt."
        }
      },
      "changeSubcourtJurorsForJump(uint96,uint256)": {
        "details": "Changes the `jurorsForCourtJump` property value of a specified subcourt.",
        "params": {
          "_jurorsForCourtJump": "The new value for the `jurorsForCourtJump` property value.",
          "_subcourtID": "The ID of the subcourt."
        }
      },
      "changeSubcourtMinStake(uint96,uint256)": {
        "details": "Changes the `minStake` property value of a specified subcourt. Don't set to a value lower than its parent's `minStake` property value.",
        "params": {
          "_minStake": "The new value for the `minStake` property value.",
          "_subcourtID": "The ID of the subcourt."
        }
      },
      "changeSubcourtTimesPerPeriod(uint96,uint256[4])": {
        "details": "Changes the `timesPerPeriod` property value of a specified subcourt.",
        "params": {
          "_subcourtID": "The ID of the subcourt.",
          "_timesPerPeriod": "The new value for the `timesPerPeriod` property value."
        }
      },
      "constructor": {
        "details": "Constructor.",
        "params": {
          "_alpha": "The `alpha` property value of the forking court.",
          "_disputeKit": "The address of the default dispute kit.",
          "_feeForJuror": "The `feeForJuror` property value of the forking court.",
          "_governor": "The governor's address.",
          "_hiddenVotes": "The `hiddenVotes` property value of the forking court.",
          "_jurorProsecutionModule": "The address of the juror prosecution module.",
          "_jurorsForCourtJump": "The `jurorsForCourtJump` property value of the forking court.",
          "_minStake": "The `minStake` property value of the forking court.",
          "_pinakion": "The address of the token contract.",
          "_sortitionSumTreeK": "The number of children per node of the forking court's sortition sum tree.",
          "_timesPerPeriod": "The `timesPerPeriod` property value of the forking court."
        }
      },
      "createDispute(uint256,bytes)": {
        "details": "Creates a dispute. Must be called by the arbitrable contract.",
        "params": {
          "_extraData": "Additional info about the dispute. We use it to pass the ID of the dispute's subcourt (first 32 bytes),  the minimum number of jurors required (next 32 bytes) and the ID of the specific dispute kit (last 32 bytes).",
          "_numberOfChoices": "Number of choices for the jurors to choose from."
        },
        "returns": {
          "disputeID": "The ID of the created dispute."
        }
      },
      "createSubcourt(uint96,bool,uint256,uint256,uint256,uint256,uint256[4],uint256,uint256)": {
        "details": "Creates a subcourt under a specified parent court.",
        "params": {
          "_alpha": "The `alpha` property value of the subcourt.",
          "_feeForJuror": "The `feeForJuror` property value of the subcourt.",
          "_hiddenVotes": "The `hiddenVotes` property value of the subcourt.",
          "_jurorsForCourtJump": "The `jurorsForCourtJump` property value of the subcourt.",
          "_minStake": "The `minStake` property value of the subcourt.",
          "_parent": "The `parent` property value of the subcourt.",
          "_sortitionSumTreeK": "The number of children per node of the subcourt's sortition sum tree.",
          "_supportedDisputeKits": "Bitfield that contains the IDs of the dispute kits that this court will support.",
          "_timesPerPeriod": "The `timesPerPeriod` property value of the subcourt."
        }
      },
      "currentRuling(uint256)": {
        "details": "Gets the current ruling of a specified dispute.",
        "params": {
          "_disputeID": "The ID of the dispute."
        },
        "returns": {
          "ruling": "The current ruling."
        }
      },
      "draw(uint256,uint256)": {
        "details": "Draws jurors for the dispute. Can be called in parts.",
        "params": {
          "_disputeID": "The ID of the dispute.",
          "_iterations": "The number of iterations to run."
        }
      },
      "execute(uint256,uint256,uint256)": {
        "details": "Distribute tokens and ETH for the specific round of the dispute. Can be called in parts.",
        "params": {
          "_appeal": "The appeal round.",
          "_disputeID": "The ID of the dispute.",
          "_iterations": "The number of iterations to run."
        }
      },
      "executeGovernorProposal(address,uint256,bytes)": {
        "details": "Allows the governor to call anything on behalf of the contract.",
        "params": {
          "_amount": "The value sent with the call.",
          "_data": "The data sent with the call.",
          "_destination": "The destination of the call."
        }
      },
      "executeRuling(uint256)": {
        "details": "Executes a specified dispute's ruling. UNTRUSTED.",
        "params": {
          "_disputeID": "The ID of the dispute."
        }
      },
      "getTimesPerPeriod(uint96)": {
        "details": "Gets the timesPerPeriod array for a given court.",
        "params": {
          "_subcourtID": "The ID of the court to get the times from."
        },
        "returns": {
          "timesPerPeriod": "The timesPerPeriod array for the given court."
        }
      },
      "passPeriod(uint256)": {
        "details": "Passes the period of a specified dispute.",
        "params": {
          "_disputeID": "The ID of the dispute."
        }
      },
      "setDisputeKits(uint96,uint8[],bool)": {
        "details": "Adds/removes particular dispute kits to a subcourt's bitfield of supported dispute kits.",
        "params": {
          "_disputeKitIDs": "IDs of dispute kits which support should be added/removed.",
          "_enable": "Whether add or remove the dispute kits from the subcourt.",
          "_subcourtID": "The ID of the subcourt."
        }
      },
      "setStake(uint96,uint256)": {
        "details": "Sets the caller's stake in a subcourt.",
        "params": {
          "_stake": "The new stake.",
          "_subcourtID": "The ID of the subcourt."
        }
      }
    },
    "title": "KlerosCore  Core arbitrator contract for Kleros v2.",
    "version": 1
  },
  "userdoc": {
    "kind": "user",
    "methods": {},
    "version": 1
  },
  "storageLayout": {
    "storage": [
      {
        "astId": 2123,
        "contract": "src/arbitration/KlerosCore.sol:KlerosCore",
        "label": "governor",
        "offset": 0,
        "slot": "0",
        "type": "t_address"
      },
      {
        "astId": 2126,
        "contract": "src/arbitration/KlerosCore.sol:KlerosCore",
        "label": "pinakion",
        "offset": 0,
        "slot": "1",
        "type": "t_contract(IERC20)623"
      },
      {
        "astId": 2128,
        "contract": "src/arbitration/KlerosCore.sol:KlerosCore",
        "label": "jurorProsecutionModule",
        "offset": 0,
        "slot": "2",
        "type": "t_address"
      },
      {
        "astId": 2132,
        "contract": "src/arbitration/KlerosCore.sol:KlerosCore",
        "label": "courts",
        "offset": 0,
        "slot": "3",
        "type": "t_array(t_struct(Court)2056_storage)dyn_storage"
      },
      {
        "astId": 2137,
        "contract": "src/arbitration/KlerosCore.sol:KlerosCore",
        "label": "disputeKits",
        "offset": 0,
        "slot": "4",
        "type": "t_mapping(t_uint256,t_contract(IDisputeKit)2014)"
      },
      {
        "astId": 2141,
        "contract": "src/arbitration/KlerosCore.sol:KlerosCore",
        "label": "disputes",
        "offset": 0,
        "slot": "5",
        "type": "t_array(t_struct(Dispute)2078_storage)dyn_storage"
      },
      {
        "astId": 2146,
        "contract": "src/arbitration/KlerosCore.sol:KlerosCore",
        "label": "jurors",
        "offset": 0,
        "slot": "6",
        "type": "t_mapping(t_address,t_struct(Juror)2102_storage)"
      },
      {
        "astId": 2149,
        "contract": "src/arbitration/KlerosCore.sol:KlerosCore",
        "label": "sortitionSumTrees",
        "offset": 0,
        "slot": "7",
        "type": "t_struct(SortitionSumTrees)8704_storage"
      }
    ],
    "types": {
      "t_address": {
        "encoding": "inplace",
        "label": "address",
        "numberOfBytes": "20"
      },
      "t_array(t_address)dyn_storage": {
        "base": "t_address",
        "encoding": "dynamic_array",
        "label": "address[]",
        "numberOfBytes": "32"
      },
      "t_array(t_struct(Court)2056_storage)dyn_storage": {
        "base": "t_struct(Court)2056_storage",
        "encoding": "dynamic_array",
        "label": "struct KlerosCore.Court[]",
        "numberOfBytes": "32"
      },
      "t_array(t_struct(Dispute)2078_storage)dyn_storage": {
        "base": "t_struct(Dispute)2078_storage",
        "encoding": "dynamic_array",
        "label": "struct KlerosCore.Dispute[]",
        "numberOfBytes": "32"
      },
      "t_array(t_struct(Round)2090_storage)dyn_storage": {
        "base": "t_struct(Round)2090_storage",
        "encoding": "dynamic_array",
        "label": "struct KlerosCore.Round[]",
        "numberOfBytes": "32"
      },
      "t_array(t_uint256)4_storage": {
        "base": "t_uint256",
        "encoding": "inplace",
        "label": "uint256[4]",
        "numberOfBytes": "128"
      },
      "t_array(t_uint256)dyn_storage": {
        "base": "t_uint256",
        "encoding": "dynamic_array",
        "label": "uint256[]",
        "numberOfBytes": "32"
      },
      "t_array(t_uint96)dyn_storage": {
        "base": "t_uint96",
        "encoding": "dynamic_array",
        "label": "uint96[]",
        "numberOfBytes": "32"
      },
      "t_bool": {
        "encoding": "inplace",
        "label": "bool",
        "numberOfBytes": "1"
      },
      "t_bytes32": {
        "encoding": "inplace",
        "label": "bytes32",
        "numberOfBytes": "32"
      },
      "t_contract(IArbitrable)1880": {
        "encoding": "inplace",
        "label": "contract IArbitrable",
        "numberOfBytes": "20"
      },
      "t_contract(IDisputeKit)2014": {
        "encoding": "inplace",
        "label": "contract IDisputeKit",
        "numberOfBytes": "20"
      },
      "t_contract(IERC20)623": {
        "encoding": "inplace",
        "label": "contract IERC20",
        "numberOfBytes": "20"
      },
      "t_enum(Period)2034": {
        "encoding": "inplace",
        "label": "enum KlerosCore.Period",
        "numberOfBytes": "1"
      },
      "t_mapping(t_address,t_struct(Juror)2102_storage)": {
        "encoding": "mapping",
        "key": "t_address",
        "label": "mapping(address => struct KlerosCore.Juror)",
        "numberOfBytes": "32",
        "value": "t_struct(Juror)2102_storage"
      },
      "t_mapping(t_bytes32,t_struct(SortitionSumTree)8698_storage)": {
        "encoding": "mapping",
        "key": "t_bytes32",
        "label": "mapping(bytes32 => struct SortitionSumTreeFactory.SortitionSumTree)",
        "numberOfBytes": "32",
        "value": "t_struct(SortitionSumTree)8698_storage"
      },
      "t_mapping(t_bytes32,t_uint256)": {
        "encoding": "mapping",
        "key": "t_bytes32",
        "label": "mapping(bytes32 => uint256)",
        "numberOfBytes": "32",
        "value": "t_uint256"
      },
      "t_mapping(t_uint256,t_bytes32)": {
        "encoding": "mapping",
        "key": "t_uint256",
        "label": "mapping(uint256 => bytes32)",
        "numberOfBytes": "32",
        "value": "t_bytes32"
      },
      "t_mapping(t_uint256,t_contract(IDisputeKit)2014)": {
        "encoding": "mapping",
        "key": "t_uint256",
        "label": "mapping(uint256 => contract IDisputeKit)",
        "numberOfBytes": "32",
        "value": "t_contract(IDisputeKit)2014"
      },
      "t_mapping(t_uint96,t_uint256)": {
        "encoding": "mapping",
        "key": "t_uint96",
        "label": "mapping(uint96 => uint256)",
        "numberOfBytes": "32",
        "value": "t_uint256"
      },
      "t_struct(Court)2056_storage": {
        "encoding": "inplace",
        "label": "struct KlerosCore.Court",
        "members": [
          {
            "astId": 2036,
            "contract": "src/arbitration/KlerosCore.sol:KlerosCore",
            "label": "parent",
            "offset": 0,
            "slot": "0",
            "type": "t_uint96"
          },
          {
            "astId": 2038,
            "contract": "src/arbitration/KlerosCore.sol:KlerosCore",
            "label": "hiddenVotes",
            "offset": 12,
            "slot": "0",
            "type": "t_bool"
          },
          {
            "astId": 2041,
            "contract": "src/arbitration/KlerosCore.sol:KlerosCore",
            "label": "children",
            "offset": 0,
            "slot": "1",
            "type": "t_array(t_uint256)dyn_storage"
          },
          {
            "astId": 2043,
            "contract": "src/arbitration/KlerosCore.sol:KlerosCore",
            "label": "minStake",
            "offset": 0,
            "slot": "2",
            "type": "t_uint256"
          },
          {
            "astId": 2045,
            "contract": "src/arbitration/KlerosCore.sol:KlerosCore",
            "label": "alpha",
            "offset": 0,
            "slot": "3",
            "type": "t_uint256"
          },
          {
            "astId": 2047,
            "contract": "src/arbitration/KlerosCore.sol:KlerosCore",
            "label": "feeForJuror",
            "offset": 0,
            "slot": "4",
            "type": "t_uint256"
          },
          {
            "astId": 2049,
            "contract": "src/arbitration/KlerosCore.sol:KlerosCore",
            "label": "jurorsForCourtJump",
            "offset": 0,
            "slot": "5",
            "type": "t_uint256"
          },
          {
            "astId": 2053,
            "contract": "src/arbitration/KlerosCore.sol:KlerosCore",
            "label": "timesPerPeriod",
            "offset": 0,
            "slot": "6",
            "type": "t_array(t_uint256)4_storage"
          },
          {
            "astId": 2055,
            "contract": "src/arbitration/KlerosCore.sol:KlerosCore",
            "label": "supportedDisputeKits",
            "offset": 0,
            "slot": "10",
            "type": "t_uint256"
          }
        ],
        "numberOfBytes": "352"
      },
      "t_struct(Dispute)2078_storage": {
        "encoding": "inplace",
        "label": "struct KlerosCore.Dispute",
        "members": [
          {
            "astId": 2058,
            "contract": "src/arbitration/KlerosCore.sol:KlerosCore",
            "label": "subcourtID",
            "offset": 0,
            "slot": "0",
            "type": "t_uint96"
          },
          {
            "astId": 2061,
            "contract": "src/arbitration/KlerosCore.sol:KlerosCore",
            "label": "arbitrated",
            "offset": 12,
            "slot": "0",
            "type": "t_contract(IArbitrable)1880"
          },
          {
            "astId": 2064,
            "contract": "src/arbitration/KlerosCore.sol:KlerosCore",
            "label": "disputeKit",
            "offset": 0,
            "slot": "1",
            "type": "t_contract(IDisputeKit)2014"
          },
          {
            "astId": 2067,
            "contract": "src/arbitration/KlerosCore.sol:KlerosCore",
            "label": "period",
            "offset": 20,
            "slot": "1",
            "type": "t_enum(Period)2034"
          },
          {
            "astId": 2069,
            "contract": "src/arbitration/KlerosCore.sol:KlerosCore",
            "label": "ruled",
            "offset": 21,
            "slot": "1",
            "type": "t_bool"
          },
          {
            "astId": 2071,
            "contract": "src/arbitration/KlerosCore.sol:KlerosCore",
            "label": "lastPeriodChange",
            "offset": 0,
            "slot": "2",
            "type": "t_uint256"
          },
          {
            "astId": 2073,
            "contract": "src/arbitration/KlerosCore.sol:KlerosCore",
            "label": "nbVotes",
            "offset": 0,
            "slot": "3",
            "type": "t_uint256"
          },
          {
            "astId": 2077,
            "contract": "src/arbitration/KlerosCore.sol:KlerosCore",
            "label": "rounds",
            "offset": 0,
            "slot": "4",
            "type": "t_array(t_struct(Round)2090_storage)dyn_storage"
          }
        ],
        "numberOfBytes": "160"
      },
      "t_struct(Juror)2102_storage": {
        "encoding": "inplace",
        "label": "struct KlerosCore.Juror",
        "members": [
          {
            "astId": 2093,
            "contract": "src/arbitration/KlerosCore.sol:KlerosCore",
            "label": "subcourtIDs",
            "offset": 0,
            "slot": "0",
            "type": "t_array(t_uint96)dyn_storage"
          },
          {
            "astId": 2097,
            "contract": "src/arbitration/KlerosCore.sol:KlerosCore",
            "label": "stakedTokens",
            "offset": 0,
            "slot": "1",
            "type": "t_mapping(t_uint96,t_uint256)"
          },
          {
            "astId": 2101,
            "contract": "src/arbitration/KlerosCore.sol:KlerosCore",
            "label": "lockedTokens",
            "offset": 0,
            "slot": "2",
            "type": "t_mapping(t_uint96,t_uint256)"
          }
        ],
        "numberOfBytes": "96"
      },
      "t_struct(Round)2090_storage": {
        "encoding": "inplace",
        "label": "struct KlerosCore.Round",
        "members": [
          {
            "astId": 2080,
            "contract": "src/arbitration/KlerosCore.sol:KlerosCore",
            "label": "tokensAtStakePerJuror",
            "offset": 0,
            "slot": "0",
            "type": "t_uint256"
          },
          {
            "astId": 2082,
            "contract": "src/arbitration/KlerosCore.sol:KlerosCore",
            "label": "totalFeesForJurors",
            "offset": 0,
            "slot": "1",
            "type": "t_uint256"
          },
          {
            "astId": 2084,
            "contract": "src/arbitration/KlerosCore.sol:KlerosCore",
            "label": "repartitions",
            "offset": 0,
            "slot": "2",
            "type": "t_uint256"
          },
          {
            "astId": 2086,
            "contract": "src/arbitration/KlerosCore.sol:KlerosCore",
            "label": "penalties",
            "offset": 0,
            "slot": "3",
            "type": "t_uint256"
          },
          {
            "astId": 2089,
            "contract": "src/arbitration/KlerosCore.sol:KlerosCore",
            "label": "drawnJurors",
            "offset": 0,
            "slot": "4",
            "type": "t_array(t_address)dyn_storage"
          }
        ],
        "numberOfBytes": "160"
      },
      "t_struct(SortitionSumTree)8698_storage": {
        "encoding": "inplace",
        "label": "struct SortitionSumTreeFactory.SortitionSumTree",
        "members": [
          {
            "astId": 8683,
            "contract": "src/arbitration/KlerosCore.sol:KlerosCore",
            "label": "K",
            "offset": 0,
            "slot": "0",
            "type": "t_uint256"
          },
          {
            "astId": 8686,
            "contract": "src/arbitration/KlerosCore.sol:KlerosCore",
            "label": "stack",
            "offset": 0,
            "slot": "1",
            "type": "t_array(t_uint256)dyn_storage"
          },
          {
            "astId": 8689,
            "contract": "src/arbitration/KlerosCore.sol:KlerosCore",
            "label": "nodes",
            "offset": 0,
            "slot": "2",
            "type": "t_array(t_uint256)dyn_storage"
          },
          {
            "astId": 8693,
            "contract": "src/arbitration/KlerosCore.sol:KlerosCore",
            "label": "IDsToNodeIndexes",
            "offset": 0,
            "slot": "3",
            "type": "t_mapping(t_bytes32,t_uint256)"
          },
          {
            "astId": 8697,
            "contract": "src/arbitration/KlerosCore.sol:KlerosCore",
            "label": "nodeIndexesToIDs",
            "offset": 0,
            "slot": "4",
            "type": "t_mapping(t_uint256,t_bytes32)"
          }
        ],
        "numberOfBytes": "160"
      },
      "t_struct(SortitionSumTrees)8704_storage": {
        "encoding": "inplace",
        "label": "struct SortitionSumTreeFactory.SortitionSumTrees",
        "members": [
          {
            "astId": 8703,
            "contract": "src/arbitration/KlerosCore.sol:KlerosCore",
            "label": "sortitionSumTrees",
            "offset": 0,
            "slot": "0",
            "type": "t_mapping(t_bytes32,t_struct(SortitionSumTree)8698_storage)"
          }
        ],
        "numberOfBytes": "32"
      },
      "t_uint256": {
        "encoding": "inplace",
        "label": "uint256",
        "numberOfBytes": "32"
      },
      "t_uint96": {
        "encoding": "inplace",
        "label": "uint96",
        "numberOfBytes": "12"
      }
    }
  }
}