{
  "address": "0x140Cae40BD7eEF075e15c30CF84d1EAa0F4932b8",
  "abi": [
    {
      "inputs": [
        {
          "internalType": "address",
          "name": "_governor",
          "type": "address"
        },
        {
          "internalType": "contract IERC20",
          "name": "_pinakion",
          "type": "address"
        },
        {
          "internalType": "address",
          "name": "_jurorProsecutionModule",
          "type": "address"
        },
        {
          "internalType": "contract IDisputeKit",
          "name": "_disputeKit",
          "type": "address"
        },
        {
          "internalType": "uint256[2]",
          "name": "_phaseTimeouts",
          "type": "uint256[2]"
        },
        {
          "internalType": "bool",
          "name": "_hiddenVotes",
          "type": "bool"
        },
        {
          "internalType": "uint256[4]",
          "name": "_courtParameters",
          "type": "uint256[4]"
        },
        {
          "internalType": "uint256[4]",
          "name": "_timesPerPeriod",
          "type": "uint256[4]"
        },
        {
          "internalType": "uint256",
          "name": "_sortitionSumTreeK",
          "type": "uint256"
        }
      ],
      "stateMutability": "nonpayable",
      "type": "constructor"
    },
    {
      "anonymous": false,
      "inputs": [
        {
          "indexed": true,
          "internalType": "uint256",
          "name": "_disputeID",
          "type": "uint256"
        },
        {
          "indexed": true,
          "internalType": "contract IArbitrable",
          "name": "_arbitrable",
          "type": "address"
        }
      ],
      "name": "AppealDecision",
      "type": "event"
    },
    {
      "anonymous": false,
      "inputs": [
        {
          "indexed": true,
          "internalType": "uint256",
          "name": "_disputeID",
          "type": "uint256"
        },
        {
          "indexed": true,
          "internalType": "contract IArbitrable",
          "name": "_arbitrable",
          "type": "address"
        }
      ],
      "name": "AppealPossible",
      "type": "event"
    },
    {
      "anonymous": false,
      "inputs": [
        {
          "indexed": true,
          "internalType": "uint256",
          "name": "_disputeID",
          "type": "uint256"
        },
        {
          "indexed": true,
          "internalType": "uint256",
          "name": "_roundID",
          "type": "uint256"
        },
        {
          "indexed": true,
          "internalType": "uint96",
          "name": "_fromSubcourtID",
          "type": "uint96"
        },
        {
          "indexed": false,
          "internalType": "uint96",
          "name": "_toSubcourtID",
          "type": "uint96"
        }
      ],
      "name": "CourtJump",
      "type": "event"
    },
    {
      "anonymous": false,
      "inputs": [
        {
          "indexed": true,
          "internalType": "uint256",
          "name": "_disputeID",
          "type": "uint256"
        },
        {
          "indexed": true,
          "internalType": "contract IArbitrable",
          "name": "_arbitrable",
          "type": "address"
        }
      ],
      "name": "DisputeCreation",
      "type": "event"
    },
    {
      "anonymous": false,
      "inputs": [
        {
          "indexed": true,
          "internalType": "contract IDisputeKit",
          "name": "_disputeKitAddress",
          "type": "address"
        },
        {
          "indexed": true,
          "internalType": "uint256",
          "name": "_parent",
          "type": "uint256"
        }
      ],
      "name": "DisputeKitCreation",
      "type": "event"
    },
    {
      "anonymous": false,
      "inputs": [
        {
          "indexed": true,
          "internalType": "uint96",
          "name": "_subcourtID",
          "type": "uint96"
        },
        {
          "indexed": true,
          "internalType": "uint256",
          "name": "_disputeKitID",
          "type": "uint256"
        }
      ],
      "name": "DisputeKitDisable",
      "type": "event"
    },
    {
      "anonymous": false,
      "inputs": [
        {
          "indexed": true,
          "internalType": "uint96",
          "name": "_subcourtID",
          "type": "uint96"
        },
        {
          "indexed": true,
          "internalType": "uint256",
          "name": "_disputeKitID",
          "type": "uint256"
        }
      ],
      "name": "DisputeKitEnable",
      "type": "event"
    },
    {
      "anonymous": false,
      "inputs": [
        {
          "indexed": true,
          "internalType": "uint256",
          "name": "_disputeID",
          "type": "uint256"
        },
        {
          "indexed": true,
          "internalType": "uint256",
          "name": "_roundID",
          "type": "uint256"
        },
        {
          "indexed": true,
          "internalType": "uint256",
          "name": "_fromDisputeKitID",
          "type": "uint256"
        },
        {
          "indexed": false,
          "internalType": "uint256",
          "name": "_toDisputeKitID",
          "type": "uint256"
        }
      ],
      "name": "DisputeKitJump",
      "type": "event"
    },
    {
      "anonymous": false,
      "inputs": [
        {
          "indexed": true,
          "internalType": "address",
          "name": "_address",
          "type": "address"
        },
        {
          "indexed": true,
          "internalType": "uint256",
          "name": "_disputeID",
          "type": "uint256"
        },
        {
          "indexed": false,
          "internalType": "uint256",
          "name": "_roundID",
          "type": "uint256"
        },
        {
          "indexed": false,
          "internalType": "uint256",
          "name": "_voteID",
          "type": "uint256"
        }
      ],
      "name": "Draw",
      "type": "event"
    },
    {
      "anonymous": false,
      "inputs": [
        {
          "indexed": true,
          "internalType": "uint256",
          "name": "_disputeID",
          "type": "uint256"
        },
        {
          "indexed": false,
          "internalType": "enum KlerosCore.Period",
          "name": "_period",
          "type": "uint8"
        }
      ],
      "name": "NewPeriod",
      "type": "event"
    },
    {
      "anonymous": false,
      "inputs": [
        {
          "indexed": false,
          "internalType": "enum KlerosCore.Phase",
          "name": "_phase",
          "type": "uint8"
        }
      ],
      "name": "NewPhase",
      "type": "event"
    },
    {
      "anonymous": false,
      "inputs": [
        {
          "indexed": true,
          "internalType": "address",
          "name": "_address",
          "type": "address"
        },
        {
          "indexed": false,
          "internalType": "uint256",
          "name": "_subcourtID",
          "type": "uint256"
        },
        {
          "indexed": false,
          "internalType": "uint256",
          "name": "_amount",
          "type": "uint256"
        },
        {
          "indexed": false,
          "internalType": "uint256",
          "name": "_newTotalStake",
          "type": "uint256"
        }
      ],
      "name": "StakeSet",
      "type": "event"
    },
    {
      "anonymous": false,
      "inputs": [
        {
          "indexed": true,
          "internalType": "uint256",
          "name": "_subcourtID",
          "type": "uint256"
        },
        {
          "indexed": true,
          "internalType": "uint96",
          "name": "_parent",
          "type": "uint96"
        },
        {
          "indexed": false,
          "internalType": "bool",
          "name": "_hiddenVotes",
          "type": "bool"
        },
        {
          "indexed": false,
          "internalType": "uint256",
          "name": "_minStake",
          "type": "uint256"
        },
        {
          "indexed": false,
          "internalType": "uint256",
          "name": "_alpha",
          "type": "uint256"
        },
        {
          "indexed": false,
          "internalType": "uint256",
          "name": "_feeForJuror",
          "type": "uint256"
        },
        {
          "indexed": false,
          "internalType": "uint256",
          "name": "_jurorsForCourtJump",
          "type": "uint256"
        },
        {
          "indexed": false,
          "internalType": "uint256[4]",
          "name": "_timesPerPeriod",
          "type": "uint256[4]"
        },
        {
          "indexed": false,
          "internalType": "uint256",
          "name": "_sortitionSumTreeK",
          "type": "uint256"
        },
        {
          "indexed": false,
          "internalType": "uint256[]",
          "name": "_supportedDisputeKits",
          "type": "uint256[]"
        }
      ],
      "name": "SubcourtCreation",
      "type": "event"
    },
    {
      "anonymous": false,
      "inputs": [
        {
          "indexed": true,
          "internalType": "uint96",
          "name": "_subcourtID",
          "type": "uint96"
        },
        {
          "indexed": false,
          "internalType": "string",
          "name": "_param",
          "type": "string"
        }
      ],
      "name": "SubcourtModification",
      "type": "event"
    },
    {
      "anonymous": false,
      "inputs": [
        {
          "indexed": true,
          "internalType": "address",
          "name": "_account",
          "type": "address"
        },
        {
          "indexed": true,
          "internalType": "uint256",
          "name": "_disputeID",
          "type": "uint256"
        },
        {
          "indexed": false,
          "internalType": "int256",
          "name": "_tokenAmount",
          "type": "int256"
        },
        {
          "indexed": false,
          "internalType": "int256",
          "name": "_ethAmount",
          "type": "int256"
        }
      ],
      "name": "TokenAndETHShift",
      "type": "event"
    },
    {
      "inputs": [],
      "name": "ALPHA_DIVISOR",
      "outputs": [
        {
          "internalType": "uint256",
          "name": "",
          "type": "uint256"
        }
      ],
      "stateMutability": "view",
      "type": "function"
    },
    {
      "inputs": [],
      "name": "DISPUTE_KIT_CLASSIC_INDEX",
      "outputs": [
        {
          "internalType": "uint256",
          "name": "",
          "type": "uint256"
        }
      ],
      "stateMutability": "view",
      "type": "function"
    },
    {
      "inputs": [],
      "name": "FORKING_COURT",
      "outputs": [
        {
          "internalType": "uint256",
          "name": "",
          "type": "uint256"
        }
      ],
      "stateMutability": "view",
      "type": "function"
    },
    {
      "inputs": [],
      "name": "GENERAL_COURT",
      "outputs": [
        {
          "internalType": "uint256",
          "name": "",
          "type": "uint256"
        }
      ],
      "stateMutability": "view",
      "type": "function"
    },
    {
      "inputs": [],
      "name": "MAX_STAKE_PATHS",
      "outputs": [
        {
          "internalType": "uint256",
          "name": "",
          "type": "uint256"
        }
      ],
      "stateMutability": "view",
      "type": "function"
    },
    {
      "inputs": [],
      "name": "MIN_JURORS",
      "outputs": [
        {
          "internalType": "uint256",
          "name": "",
          "type": "uint256"
        }
      ],
      "stateMutability": "view",
      "type": "function"
    },
    {
      "inputs": [],
      "name": "NON_PAYABLE_AMOUNT",
      "outputs": [
        {
          "internalType": "uint256",
          "name": "",
          "type": "uint256"
        }
      ],
      "stateMutability": "view",
      "type": "function"
    },
    {
      "inputs": [],
      "name": "NULL_DISPUTE_KIT",
      "outputs": [
        {
          "internalType": "uint256",
          "name": "",
          "type": "uint256"
        }
      ],
      "stateMutability": "view",
      "type": "function"
    },
    {
      "inputs": [],
      "name": "SEARCH_ITERATIONS",
      "outputs": [
        {
          "internalType": "uint256",
          "name": "",
          "type": "uint256"
        }
      ],
      "stateMutability": "view",
      "type": "function"
    },
    {
      "inputs": [
        {
          "internalType": "contract IDisputeKit",
          "name": "_disputeKitAddress",
          "type": "address"
        },
        {
          "internalType": "uint256",
          "name": "_parent",
          "type": "uint256"
        }
      ],
      "name": "addNewDisputeKit",
      "outputs": [],
      "stateMutability": "nonpayable",
      "type": "function"
    },
    {
      "inputs": [
        {
          "internalType": "uint256",
          "name": "_disputeID",
          "type": "uint256"
        },
        {
          "internalType": "uint256",
          "name": "_numberOfChoices",
          "type": "uint256"
        },
        {
          "internalType": "bytes",
          "name": "_extraData",
          "type": "bytes"
        }
      ],
      "name": "appeal",
      "outputs": [],
      "stateMutability": "payable",
      "type": "function"
    },
    {
      "inputs": [
        {
          "internalType": "uint256",
          "name": "_disputeID",
          "type": "uint256"
        }
      ],
      "name": "appealCost",
      "outputs": [
        {
          "internalType": "uint256",
          "name": "cost",
          "type": "uint256"
        }
      ],
      "stateMutability": "view",
      "type": "function"
    },
    {
      "inputs": [
        {
          "internalType": "uint256",
          "name": "_disputeID",
          "type": "uint256"
        }
      ],
      "name": "appealPeriod",
      "outputs": [
        {
          "internalType": "uint256",
          "name": "start",
          "type": "uint256"
        },
        {
          "internalType": "uint256",
          "name": "end",
          "type": "uint256"
        }
      ],
      "stateMutability": "view",
      "type": "function"
    },
    {
      "inputs": [
        {
          "internalType": "bytes",
          "name": "_extraData",
          "type": "bytes"
        }
      ],
      "name": "arbitrationCost",
      "outputs": [
        {
          "internalType": "uint256",
          "name": "cost",
          "type": "uint256"
        }
      ],
      "stateMutability": "view",
      "type": "function"
    },
    {
      "inputs": [
        {
          "internalType": "uint256",
          "name": "_subcourtID",
          "type": "uint256"
        }
      ],
      "name": "areVotesHidden",
      "outputs": [
        {
          "internalType": "bool",
          "name": "hiddenVotes",
          "type": "bool"
        }
      ],
      "stateMutability": "view",
      "type": "function"
    },
    {
      "inputs": [
        {
          "internalType": "address payable",
          "name": "_governor",
          "type": "address"
        }
      ],
      "name": "changeGovernor",
      "outputs": [],
      "stateMutability": "nonpayable",
      "type": "function"
    },
    {
      "inputs": [
        {
          "internalType": "uint96",
          "name": "_subcourtID",
          "type": "uint96"
        },
        {
          "internalType": "bool",
          "name": "_hiddenVotes",
          "type": "bool"
        }
      ],
      "name": "changeHiddenVotes",
      "outputs": [],
      "stateMutability": "nonpayable",
      "type": "function"
    },
    {
      "inputs": [
        {
          "internalType": "address",
          "name": "_jurorProsecutionModule",
          "type": "address"
        }
      ],
      "name": "changeJurorProsecutionModule",
      "outputs": [],
      "stateMutability": "nonpayable",
      "type": "function"
    },
    {
      "inputs": [
        {
          "internalType": "uint256",
          "name": "_maxFreezingTime",
          "type": "uint256"
        }
      ],
      "name": "changeMaxFreezingTime",
      "outputs": [],
      "stateMutability": "nonpayable",
      "type": "function"
    },
    {
      "inputs": [
        {
          "internalType": "uint256",
          "name": "_minStakingTime",
          "type": "uint256"
        }
      ],
      "name": "changeMinStakingTime",
      "outputs": [],
      "stateMutability": "nonpayable",
      "type": "function"
    },
    {
      "inputs": [
        {
          "internalType": "contract IERC20",
          "name": "_pinakion",
          "type": "address"
        }
      ],
      "name": "changePinakion",
      "outputs": [],
      "stateMutability": "nonpayable",
      "type": "function"
    },
    {
      "inputs": [
        {
          "internalType": "uint96",
          "name": "_subcourtID",
          "type": "uint96"
        },
        {
          "internalType": "uint256",
          "name": "_alpha",
          "type": "uint256"
        }
      ],
      "name": "changeSubcourtAlpha",
      "outputs": [],
      "stateMutability": "nonpayable",
      "type": "function"
    },
    {
      "inputs": [
        {
          "internalType": "uint96",
          "name": "_subcourtID",
          "type": "uint96"
        },
        {
          "internalType": "uint256",
          "name": "_feeForJuror",
          "type": "uint256"
        }
      ],
      "name": "changeSubcourtJurorFee",
      "outputs": [],
      "stateMutability": "nonpayable",
      "type": "function"
    },
    {
      "inputs": [
        {
          "internalType": "uint96",
          "name": "_subcourtID",
          "type": "uint96"
        },
        {
          "internalType": "uint256",
          "name": "_jurorsForCourtJump",
          "type": "uint256"
        }
      ],
      "name": "changeSubcourtJurorsForJump",
      "outputs": [],
      "stateMutability": "nonpayable",
      "type": "function"
    },
    {
      "inputs": [
        {
          "internalType": "uint96",
          "name": "_subcourtID",
          "type": "uint96"
        },
        {
          "internalType": "uint256",
          "name": "_minStake",
          "type": "uint256"
        }
      ],
      "name": "changeSubcourtMinStake",
      "outputs": [],
      "stateMutability": "nonpayable",
      "type": "function"
    },
    {
      "inputs": [
        {
          "internalType": "uint96",
          "name": "_subcourtID",
          "type": "uint96"
        },
        {
          "internalType": "uint256[4]",
          "name": "_timesPerPeriod",
          "type": "uint256[4]"
        }
      ],
      "name": "changeSubcourtTimesPerPeriod",
      "outputs": [],
      "stateMutability": "nonpayable",
      "type": "function"
    },
    {
      "inputs": [
        {
          "internalType": "uint256",
          "name": "",
          "type": "uint256"
        }
      ],
      "name": "courts",
      "outputs": [
        {
          "internalType": "uint96",
          "name": "parent",
          "type": "uint96"
        },
        {
          "internalType": "bool",
          "name": "hiddenVotes",
          "type": "bool"
        },
        {
          "internalType": "uint256",
          "name": "minStake",
          "type": "uint256"
        },
        {
          "internalType": "uint256",
          "name": "alpha",
          "type": "uint256"
        },
        {
          "internalType": "uint256",
          "name": "feeForJuror",
          "type": "uint256"
        },
        {
          "internalType": "uint256",
          "name": "jurorsForCourtJump",
          "type": "uint256"
        }
      ],
      "stateMutability": "view",
      "type": "function"
    },
    {
      "inputs": [
        {
          "internalType": "uint256",
          "name": "_numberOfChoices",
          "type": "uint256"
        },
        {
          "internalType": "bytes",
          "name": "_extraData",
          "type": "bytes"
        }
      ],
      "name": "createDispute",
      "outputs": [
        {
          "internalType": "uint256",
          "name": "disputeID",
          "type": "uint256"
        }
      ],
      "stateMutability": "payable",
      "type": "function"
    },
    {
      "inputs": [
        {
          "internalType": "uint96",
          "name": "_parent",
          "type": "uint96"
        },
        {
          "internalType": "bool",
          "name": "_hiddenVotes",
          "type": "bool"
        },
        {
          "internalType": "uint256",
          "name": "_minStake",
          "type": "uint256"
        },
        {
          "internalType": "uint256",
          "name": "_alpha",
          "type": "uint256"
        },
        {
          "internalType": "uint256",
          "name": "_feeForJuror",
          "type": "uint256"
        },
        {
          "internalType": "uint256",
          "name": "_jurorsForCourtJump",
          "type": "uint256"
        },
        {
          "internalType": "uint256[4]",
          "name": "_timesPerPeriod",
          "type": "uint256[4]"
        },
        {
          "internalType": "uint256",
          "name": "_sortitionSumTreeK",
          "type": "uint256"
        },
        {
          "internalType": "uint256[]",
          "name": "_supportedDisputeKits",
          "type": "uint256[]"
        }
      ],
      "name": "createSubcourt",
      "outputs": [],
      "stateMutability": "nonpayable",
      "type": "function"
    },
    {
      "inputs": [
        {
          "internalType": "uint256",
          "name": "_disputeID",
          "type": "uint256"
        }
      ],
      "name": "currentRuling",
      "outputs": [
        {
          "internalType": "uint256",
          "name": "ruling",
          "type": "uint256"
        }
      ],
      "stateMutability": "view",
      "type": "function"
    },
    {
      "inputs": [],
      "name": "delayedStakeReadIndex",
      "outputs": [
        {
          "internalType": "uint256",
          "name": "",
          "type": "uint256"
        }
      ],
      "stateMutability": "view",
      "type": "function"
    },
    {
      "inputs": [],
      "name": "delayedStakeWriteIndex",
      "outputs": [
        {
          "internalType": "uint256",
          "name": "",
          "type": "uint256"
        }
      ],
      "stateMutability": "view",
      "type": "function"
    },
    {
      "inputs": [
        {
          "internalType": "uint256",
          "name": "",
          "type": "uint256"
        }
      ],
      "name": "delayedStakes",
      "outputs": [
        {
          "internalType": "address",
          "name": "account",
          "type": "address"
        },
        {
          "internalType": "uint96",
          "name": "subcourtID",
          "type": "uint96"
        },
        {
          "internalType": "uint256",
          "name": "stake",
          "type": "uint256"
        },
        {
          "internalType": "uint256",
          "name": "penalty",
          "type": "uint256"
        }
      ],
      "stateMutability": "view",
      "type": "function"
    },
    {
      "inputs": [
        {
          "internalType": "uint256",
          "name": "",
          "type": "uint256"
        }
      ],
      "name": "disputeKitNodes",
      "outputs": [
        {
          "internalType": "uint256",
          "name": "parent",
          "type": "uint256"
        },
        {
          "internalType": "contract IDisputeKit",
          "name": "disputeKit",
          "type": "address"
        },
        {
          "internalType": "bool",
          "name": "needsFreezing",
          "type": "bool"
        },
        {
          "internalType": "uint256",
          "name": "depthLevel",
          "type": "uint256"
        }
      ],
      "stateMutability": "view",
      "type": "function"
    },
    {
      "inputs": [
        {
          "internalType": "uint256",
          "name": "",
          "type": "uint256"
        }
      ],
      "name": "disputes",
      "outputs": [
        {
          "internalType": "uint96",
          "name": "subcourtID",
          "type": "uint96"
        },
        {
          "internalType": "contract IArbitrable",
          "name": "arbitrated",
          "type": "address"
        },
        {
          "internalType": "enum KlerosCore.Period",
          "name": "period",
          "type": "uint8"
        },
        {
          "internalType": "bool",
          "name": "ruled",
          "type": "bool"
        },
        {
          "internalType": "uint256",
          "name": "lastPeriodChange",
          "type": "uint256"
        }
      ],
      "stateMutability": "view",
      "type": "function"
    },
    {
      "inputs": [
        {
          "internalType": "uint256",
          "name": "",
          "type": "uint256"
        }
      ],
      "name": "disputesKitIDsThatNeedFreezing",
      "outputs": [
        {
          "internalType": "uint256",
          "name": "",
          "type": "uint256"
        }
      ],
      "stateMutability": "view",
      "type": "function"
    },
    {
      "inputs": [
        {
          "internalType": "uint256",
          "name": "_disputeID",
          "type": "uint256"
        },
        {
          "internalType": "uint256",
          "name": "_iterations",
          "type": "uint256"
        }
      ],
      "name": "draw",
      "outputs": [],
      "stateMutability": "nonpayable",
      "type": "function"
    },
    {
      "inputs": [
        {
          "internalType": "uint96",
          "name": "_subcourtID",
          "type": "uint96"
        },
        {
          "internalType": "uint256[]",
          "name": "_disputeKitIDs",
          "type": "uint256[]"
        },
        {
          "internalType": "bool",
          "name": "_enable",
          "type": "bool"
        }
      ],
      "name": "enableDisputeKits",
      "outputs": [],
      "stateMutability": "nonpayable",
      "type": "function"
    },
    {
      "inputs": [
        {
          "internalType": "uint256",
          "name": "_disputeID",
          "type": "uint256"
        },
        {
          "internalType": "uint256",
          "name": "_round",
          "type": "uint256"
        },
        {
          "internalType": "uint256",
          "name": "_iterations",
          "type": "uint256"
        }
      ],
      "name": "execute",
      "outputs": [],
      "stateMutability": "nonpayable",
      "type": "function"
    },
    {
      "inputs": [
        {
          "internalType": "uint256",
          "name": "_iterations",
          "type": "uint256"
        }
      ],
      "name": "executeDelayedStakes",
      "outputs": [],
      "stateMutability": "nonpayable",
      "type": "function"
    },
    {
      "inputs": [
        {
          "internalType": "address",
          "name": "_destination",
          "type": "address"
        },
        {
          "internalType": "uint256",
          "name": "_amount",
          "type": "uint256"
        },
        {
          "internalType": "bytes",
          "name": "_data",
          "type": "bytes"
        }
      ],
      "name": "executeGovernorProposal",
      "outputs": [],
      "stateMutability": "nonpayable",
      "type": "function"
    },
    {
      "inputs": [
        {
          "internalType": "uint256",
          "name": "_disputeID",
          "type": "uint256"
        }
      ],
      "name": "executeRuling",
      "outputs": [],
      "stateMutability": "nonpayable",
      "type": "function"
    },
    {
      "inputs": [],
      "name": "freezeBlock",
      "outputs": [
        {
          "internalType": "uint256",
          "name": "",
          "type": "uint256"
        }
      ],
      "stateMutability": "view",
      "type": "function"
    },
    {
      "inputs": [],
      "name": "freezingPhaseTimeout",
      "outputs": [
        {
          "internalType": "bool",
          "name": "",
          "type": "bool"
        }
      ],
      "stateMutability": "view",
      "type": "function"
    },
    {
      "inputs": [
        {
          "internalType": "uint256",
          "name": "_disputeID",
          "type": "uint256"
        }
      ],
      "name": "getCurrentPeriod",
      "outputs": [
        {
          "internalType": "enum KlerosCore.Period",
          "name": "period",
          "type": "uint8"
        }
      ],
      "stateMutability": "view",
      "type": "function"
    },
    {
      "inputs": [
        {
          "internalType": "uint256",
          "name": "_disputeKitID",
          "type": "uint256"
        }
      ],
      "name": "getDisputeKitChildren",
      "outputs": [
        {
          "internalType": "uint256[]",
          "name": "",
          "type": "uint256[]"
        }
      ],
      "stateMutability": "view",
      "type": "function"
    },
    {
      "inputs": [],
      "name": "getDisputeKitNodesLength",
      "outputs": [
        {
          "internalType": "uint256",
          "name": "",
          "type": "uint256"
        }
      ],
      "stateMutability": "view",
      "type": "function"
    },
    {
      "inputs": [],
      "name": "getDisputesKitIDsThatNeedFreezing",
      "outputs": [
        {
          "internalType": "uint256[]",
          "name": "",
          "type": "uint256[]"
        }
      ],
      "stateMutability": "view",
      "type": "function"
    },
    {
      "inputs": [],
      "name": "getFreezeBlock",
      "outputs": [
        {
          "internalType": "uint256",
          "name": "",
          "type": "uint256"
        }
      ],
      "stateMutability": "view",
      "type": "function"
    },
    {
      "inputs": [
        {
          "internalType": "address",
          "name": "_juror",
          "type": "address"
        },
        {
          "internalType": "uint96",
          "name": "_subcourtID",
          "type": "uint96"
        }
      ],
      "name": "getJurorBalance",
      "outputs": [
        {
          "internalType": "uint256",
          "name": "staked",
          "type": "uint256"
        },
        {
          "internalType": "uint256",
          "name": "locked",
          "type": "uint256"
        }
      ],
      "stateMutability": "view",
      "type": "function"
    },
    {
      "inputs": [
        {
          "internalType": "uint256",
          "name": "_disputeID",
          "type": "uint256"
        }
      ],
      "name": "getLastRoundResult",
      "outputs": [
        {
          "internalType": "uint256",
          "name": "winningChoice",
          "type": "uint256"
        },
        {
          "internalType": "bool",
          "name": "tied",
          "type": "bool"
        }
      ],
      "stateMutability": "view",
      "type": "function"
    },
    {
      "inputs": [
        {
          "internalType": "uint256",
          "name": "_disputeID",
          "type": "uint256"
        }
      ],
      "name": "getNumberOfRounds",
      "outputs": [
        {
          "internalType": "uint256",
          "name": "",
          "type": "uint256"
        }
      ],
      "stateMutability": "view",
      "type": "function"
    },
    {
      "inputs": [
        {
          "internalType": "uint256",
          "name": "_disputeID",
          "type": "uint256"
        }
      ],
      "name": "getNumberOfVotes",
      "outputs": [
        {
          "internalType": "uint256",
          "name": "",
          "type": "uint256"
        }
      ],
      "stateMutability": "view",
      "type": "function"
    },
    {
      "inputs": [
        {
          "internalType": "uint256",
          "name": "_disputeID",
          "type": "uint256"
        },
        {
          "internalType": "uint256",
          "name": "_round",
          "type": "uint256"
        }
      ],
      "name": "getRoundInfo",
      "outputs": [
        {
          "internalType": "uint256",
          "name": "tokensAtStakePerJuror",
          "type": "uint256"
        },
        {
          "internalType": "uint256",
          "name": "totalFeesForJurors",
          "type": "uint256"
        },
        {
          "internalType": "uint256",
          "name": "repartitions",
          "type": "uint256"
        },
        {
          "internalType": "uint256",
          "name": "penalties",
          "type": "uint256"
        },
        {
          "internalType": "address[]",
          "name": "drawnJurors",
          "type": "address[]"
        },
        {
          "internalType": "uint256",
          "name": "disputeKitID",
          "type": "uint256"
        }
      ],
      "stateMutability": "view",
      "type": "function"
    },
    {
      "inputs": [
        {
          "internalType": "bytes32",
          "name": "_key",
          "type": "bytes32"
        }
      ],
      "name": "getSortitionSumTree",
      "outputs": [
        {
          "internalType": "uint256",
          "name": "K",
          "type": "uint256"
        },
        {
          "internalType": "uint256[]",
          "name": "stack",
          "type": "uint256[]"
        },
        {
          "internalType": "uint256[]",
          "name": "nodes",
          "type": "uint256[]"
        }
      ],
      "stateMutability": "view",
      "type": "function"
    },
    {
      "inputs": [
        {
          "internalType": "bytes32",
          "name": "_key",
          "type": "bytes32"
        },
        {
          "internalType": "uint256",
          "name": "_nodeIndex",
          "type": "uint256"
        }
      ],
      "name": "getSortitionSumTreeID",
      "outputs": [
        {
          "internalType": "bytes32",
          "name": "ID",
          "type": "bytes32"
        }
      ],
      "stateMutability": "view",
      "type": "function"
    },
    {
      "inputs": [
        {
          "internalType": "bytes32",
          "name": "_key",
          "type": "bytes32"
        }
      ],
      "name": "getSortitionSumTreeK",
      "outputs": [
        {
          "internalType": "uint256",
          "name": "",
          "type": "uint256"
        }
      ],
      "stateMutability": "view",
      "type": "function"
    },
    {
      "inputs": [
        {
          "internalType": "bytes32",
          "name": "_key",
          "type": "bytes32"
        },
        {
          "internalType": "uint256",
          "name": "_index",
          "type": "uint256"
        }
      ],
      "name": "getSortitionSumTreeNode",
      "outputs": [
        {
          "internalType": "uint256",
          "name": "",
          "type": "uint256"
        }
      ],
      "stateMutability": "view",
      "type": "function"
    },
    {
      "inputs": [
        {
          "internalType": "bytes32",
          "name": "_key",
          "type": "bytes32"
        }
      ],
      "name": "getSortitionSumTreeNodesLength",
      "outputs": [
        {
          "internalType": "uint256",
          "name": "",
          "type": "uint256"
        }
      ],
      "stateMutability": "view",
      "type": "function"
    },
    {
      "inputs": [
        {
          "internalType": "uint256",
          "name": "_disputeID",
          "type": "uint256"
        }
      ],
      "name": "getSubcourtID",
      "outputs": [
        {
          "internalType": "uint256",
          "name": "subcourtID",
          "type": "uint256"
        }
      ],
      "stateMutability": "view",
      "type": "function"
    },
    {
      "inputs": [
        {
          "internalType": "uint96",
          "name": "_subcourtID",
          "type": "uint96"
        }
      ],
      "name": "getTimesPerPeriod",
      "outputs": [
        {
          "internalType": "uint256[4]",
          "name": "timesPerPeriod",
          "type": "uint256[4]"
        }
      ],
      "stateMutability": "view",
      "type": "function"
    },
    {
      "inputs": [],
      "name": "governor",
      "outputs": [
        {
          "internalType": "address",
          "name": "",
          "type": "address"
        }
      ],
      "stateMutability": "view",
      "type": "function"
    },
    {
      "inputs": [
        {
          "internalType": "uint256",
          "name": "_disputeID",
          "type": "uint256"
        }
      ],
      "name": "isDisputeKitJumping",
      "outputs": [
        {
          "internalType": "bool",
          "name": "",
          "type": "bool"
        }
      ],
      "stateMutability": "view",
      "type": "function"
    },
    {
      "inputs": [
        {
          "internalType": "uint256",
          "name": "_disputeID",
          "type": "uint256"
        }
      ],
      "name": "isRuled",
      "outputs": [
        {
          "internalType": "bool",
          "name": "",
          "type": "bool"
        }
      ],
      "stateMutability": "view",
      "type": "function"
    },
    {
      "inputs": [
        {
          "internalType": "uint96",
          "name": "_subcourtID",
          "type": "uint96"
        },
        {
          "internalType": "uint256",
          "name": "_disputeKitID",
          "type": "uint256"
        }
      ],
      "name": "isSupported",
      "outputs": [
        {
          "internalType": "bool",
          "name": "",
          "type": "bool"
        }
      ],
      "stateMutability": "view",
      "type": "function"
    },
    {
      "inputs": [],
      "name": "jurorProsecutionModule",
      "outputs": [
        {
          "internalType": "address",
          "name": "",
          "type": "address"
        }
      ],
      "stateMutability": "view",
      "type": "function"
    },
    {
      "inputs": [],
      "name": "lastPhaseChange",
      "outputs": [
        {
          "internalType": "uint256",
          "name": "",
          "type": "uint256"
        }
      ],
      "stateMutability": "view",
      "type": "function"
    },
    {
      "inputs": [],
      "name": "maxFreezingTime",
      "outputs": [
        {
          "internalType": "uint256",
          "name": "",
          "type": "uint256"
        }
      ],
      "stateMutability": "view",
      "type": "function"
    },
    {
      "inputs": [],
      "name": "minStakingTime",
      "outputs": [
        {
          "internalType": "uint256",
          "name": "",
          "type": "uint256"
        }
      ],
      "stateMutability": "view",
      "type": "function"
    },
    {
      "inputs": [
        {
          "internalType": "uint256",
          "name": "_disputeID",
          "type": "uint256"
        }
      ],
      "name": "passPeriod",
      "outputs": [],
      "stateMutability": "nonpayable",
      "type": "function"
    },
    {
      "inputs": [],
      "name": "passPhase",
      "outputs": [],
      "stateMutability": "nonpayable",
      "type": "function"
    },
    {
      "inputs": [],
      "name": "phase",
      "outputs": [
        {
          "internalType": "enum KlerosCore.Phase",
          "name": "",
          "type": "uint8"
        }
      ],
      "stateMutability": "view",
      "type": "function"
    },
    {
      "inputs": [],
      "name": "pinakion",
      "outputs": [
        {
          "internalType": "contract IERC20",
          "name": "",
          "type": "address"
        }
      ],
      "stateMutability": "view",
      "type": "function"
    },
    {
      "inputs": [
        {
          "internalType": "uint96",
          "name": "_subcourtID",
          "type": "uint96"
        },
        {
          "internalType": "uint256",
          "name": "_stake",
          "type": "uint256"
        }
      ],
      "name": "setStake",
      "outputs": [],
      "stateMutability": "nonpayable",
      "type": "function"
    }
  ],
  "transactionHash": "0x6244d7dbd14d2cfc5daeeaa954066647e7ce2c6c3d0918eb88b3c2ad8e5e1adb",
  "args": [
    "0xF50E77f2A2B6138D16c6c7511562E5C33c4B15A3",
    "0x364530164a2338cdba211f72c1438eb811b5c639",
    "0x0000000000000000000000000000000000000000",
    "0x6b9268082415b5499175849E46AaE4EDf819916F",
    [
      120,
      120
    ],
    false,
    [
      "200000000000000000000",
      10000,
      "100000000000000000",
      3
    ],
    [
      0,
      0,
      0,
      0
    ],
    3
  ],
  "numDeployments": 2,
  "solcInputHash": "d464953816050410147003aa7264a227",
  "bytecode": "0x60806040526001600f553480156200001657600080fd5b5060405162006b8d38038062006b8d8339810160408190526200003991620004f3565b600080546001600160a01b038b81166001600160a01b0319928316178355600180548c8316908416178155600280548c84169416939093178355600880546040805160a081018252878152815188815260208082018452808301918252968f1692820192909252606081018890526080810188905295820183559190955283517ff3f7a9fe364faab93b216da50a3214154f22a0a2b415b23a84c8169e8b636ee3959092016004029485019182555180519394919362000123937ff3f7a9fe364faab93b216da50a3214154f22a0a2b415b23a84c8169e8b636ee490930192919091019062000378565b506040828101516002838101805460608701511515600160a01b026001600160a81b03199091166001600160a01b039094169390931792909217909155608090930151600392830155875190915560208088015160045542600555600780546000828152948101909155600b6001918201027fa66cc928b5edb82af9bd49922954155ab7b0942694bea4ce44661d9a8736c688810180546001600160601b0319169092178255835194855291840192839052925162000208927fa66cc928b5edb82af9bd49922954155ab7b0942694bea4ce44661d9a8736c689909201919062000378565b50805460ff60601b19166c01000000000000000000000000861515021781558351600282015560208401516003820155604084015160048083019190915560608501516005830155620002629060068301908590620003c8565b5060016000818152600a83016020526040808220805460ff1916909317909255905163483abc4f60e11b8152600c60048201526024810191909152604481018390527348ce286978C74c288eA6Bc9a536BcC899DF8D17790639075789e9060640160006040518083038186803b158015620002dc57600080fd5b505af4158015620002f1573d6000803e3d6000fd5b505060405163483abc4f60e11b8152600c600482015260016024820152604481018590527348ce286978C74c288eA6Bc9a536BcC899DF8D1779250639075789e915060640160006040518083038186803b1580156200034f57600080fd5b505af415801562000364573d6000803e3d6000fd5b5050505050505050505050505050620005f5565b828054828255906000526020600020908101928215620003b6579160200282015b82811115620003b657825182559160200191906001019062000399565b50620003c4929150620003f8565b5090565b8260048101928215620003b65791602002820182811115620003b657825182559160200191906001019062000399565b5b80821115620003c45760008155600101620003f9565b6001600160a01b03811681146200042557600080fd5b50565b634e487b7160e01b600052604160045260246000fd5b604080519081016001600160401b038111828210171562000463576200046362000428565b60405290565b805180151581146200047a57600080fd5b919050565b600082601f8301126200049157600080fd5b604051608081016001600160401b0381118282101715620004b657620004b662000428565b604052806080840185811115620004cc57600080fd5b845b81811015620004e8578051835260209283019201620004ce565b509195945050505050565b60008060008060008060008060006102008a8c0312156200051357600080fd5b895162000520816200040f565b809950506020808b015162000535816200040f565b60408c015190995062000548816200040f565b60608c01519098506200055b816200040f565b9650609f8b018c136200056d57600080fd5b620005776200043e565b8060c08d018e8111156200058a57600080fd5b60808e015b81811015620005a857805184529284019284016200058f565b50819850620005b78162000469565b975050505050620005cc8b60e08c016200047f565b9250620005de8b6101608c016200047f565b91506101e08a015190509295985092959850929598565b61658880620006056000396000f3fe6080604052600436106104305760003560e01c80638a9bb02a11610229578063c71f42531161012e578063eaff425a116100b6578063f8bdb57b1161007a578063f8bdb57b14610ddf578063fa41488014610dff578063fbf405b014610e14578063fc6f8f1614610e34578063fe524c3914610e5457600080fd5b8063eaff425a14610ce1578063f12ada8b14610cf6578063f6a6ef7a14610d16578063f6b4d82d14610d36578063f7434ea914610dbf57600080fd5b8063d2d514e0116100fd578063d2d514e014610c21578063d578cbac14610c50578063d8b03fd814610c70578063de1a1e5914610c85578063e4c0aaf414610cc157600080fd5b8063c71f425314610b64578063cf0c38f814610b84578063d1c1df4814610ba4578063d2b8035a14610c0157600080fd5b8063b31b4540116101b1578063bd8193bb11610180578063bd8193bb14610adb578063c057eca714610b08578063c13517e114610b1e578063c258bb1914610b31578063c356990214610b5157600080fd5b8063b31b454014610a85578063b4a6160814610a9b578063b70c4e9414610ab0578063b888adfa14610ac557600080fd5b8063a57366e7116101f8578063a57366e7146109b2578063a9b713af146109d2578063afe15cfb14610a02578063b1c9fe6e14610a37578063b2866af714610a6557600080fd5b80638a9bb02a1461090b5780638bb048751461093d5780638edf47411461095d5780639b05c2611461097d57600080fd5b806335975f4a1161033a57806359354c77116102c25780636c1eb1b9116102865780636c1eb1b91461087b578063751accd0146108905780637717a6e8146108b0578063823cfd70146108d0578063840bc19c146108f057600080fd5b806359354c771461080657806359ec827e146108265780635bc24dd3146108465780635ea5c038146108665780636235593f1461064457600080fd5b806343d4137f1161030957806343d4137f146107525780634b7fcda21461077f578063564a565d1461079f57806356acb050146107d057806357260364146107e657600080fd5b806335975f4a146106cf5780633a157860146106ef5780633cfd1184146107055780633e1d09be1461073257600080fd5b80631f5a0dd2116103bd5780632922d6041161038c5780632922d604146106595780632b6a63f1146106795780632d29a47b146106995780632ea7b4d0146106b957806334d5fb311461060257600080fd5b80631f5a0dd2146105ab5780632256aaf31461060257806322684db01461061757806327e6ec8a1461064457600080fd5b80630d1b9d1a116104045780630d1b9d1a146104c95780630e083ec914610517578063115d53761461053b57806319b815291461055b5780631c3db16d1461058b57600080fd5b8062f5822c146104355780630b274f2e146104575780630b7414bc1461046c5780630c340a241461048c575b600080fd5b34801561044157600080fd5b50610455610450366004615ac4565b610e74565b005b34801561046357600080fd5b50610455610ec9565b34801561047857600080fd5b50610455610487366004615bd9565b611487565b34801561049857600080fd5b506000546104ac906001600160a01b031681565b6040516001600160a01b0390911681526020015b60405180910390f35b3480156104d557600080fd5b506104e96104e4366004615c3b565b61177f565b604080519485526001600160a01b0390931660208501529015159183019190915260608201526080016104c0565b34801561052357600080fd5b5061052d600e5481565b6040519081526020016104c0565b34801561054757600080fd5b50610455610556366004615c3b565b6117c8565b34801561056757600080fd5b5061057b610576366004615c3b565b611ed0565b60405190151581526020016104c0565b34801561059757600080fd5b5061052d6105a6366004615c3b565b611fc7565b3480156105b757600080fd5b506105cb6105c6366004615c3b565b6120d2565b604080516001600160601b0390971687529415156020870152938501929092526060840152608083015260a082015260c0016104c0565b34801561060e57600080fd5b5061052d600181565b34801561062357600080fd5b50610637610632366004615c3b565b612129565b6040516104c09190615c7e565b34801561065057600080fd5b5061052d600081565b34801561066557600080fd5b5061052d610674366004615c8c565b61215b565b34801561068557600080fd5b50610455610694366004615d1c565b612192565b3480156106a557600080fd5b506104556106b4366004615dc0565b6125d2565b3480156106c557600080fd5b5061052d61271081565b3480156106db57600080fd5b506104556106ea366004615c3b565b612e89565b3480156106fb57600080fd5b5061052d60065481565b34801561071157600080fd5b50610725610720366004615dec565b612fd4565b6040516104c09190615e2a565b34801561073e57600080fd5b5061045561074d366004615e38565b613045565b34801561075e57600080fd5b5061077261076d366004615c3b565b6132ac565b6040516104c09190615e9d565b34801561078b57600080fd5b5061057b61079a366004615c3b565b613328565b3480156107ab57600080fd5b506107bf6107ba366004615c3b565b61335f565b6040516104c0959493929190615eb0565b3480156107dc57600080fd5b5061052d600f5481565b3480156107f257600080fd5b50610455610801366004615eef565b6133bb565b34801561081257600080fd5b50610455610821366004615e38565b61346a565b34801561083257600080fd5b5061052d610841366004615c3b565b61350b565b34801561085257600080fd5b50610455610861366004615e38565b61365b565b34801561087257600080fd5b5060085461052d565b34801561088757600080fd5b5061052d600a81565b34801561089c57600080fd5b506104556108ab366004615f93565b6136f6565b3480156108bc57600080fd5b506104556108cb366004615e38565b6137c8565b3480156108dc57600080fd5b506104556108eb366004615c3b565b613816565b3480156108fc57600080fd5b5061052d6001600160ff1b0381565b34801561091757600080fd5b5061092b610926366004615c8c565b613845565b6040516104c096959493929190615fec565b34801561094957600080fd5b50610455610958366004615c3b565b61392b565b34801561096957600080fd5b5061052d610978366004615c3b565b613aa0565b34801561098957600080fd5b5061099d610998366004615c3b565b613ac1565b604080519283529015156020830152016104c0565b3480156109be57600080fd5b506104556109cd366004615e38565b613bcb565b3480156109de57600080fd5b5061052d6109ed366004615c3b565b6000908152600c602052604090206002015490565b348015610a0e57600080fd5b50610a22610a1d366004615c3b565b613c73565b604080519283526020830191909152016104c0565b348015610a4357600080fd5b50600254610a5890600160a01b900460ff1681565b6040516104c09190616061565b348015610a7157600080fd5b50610455610a80366004615c3b565b613d20565b348015610a9157600080fd5b5061052d60045481565b348015610aa757600080fd5b5061052d600481565b348015610abc57600080fd5b5061057b613d4f565b348015610ad157600080fd5b5061052d60055481565b348015610ae757600080fd5b5061052d610af6366004615c3b565b6000908152600c602052604090205490565b348015610b1457600080fd5b5061052d60035481565b61052d610b2c36600461607b565b613d91565b348015610b3d57600080fd5b50610455610b4c366004615ac4565b61413f565b610455610b5f3660046160c2565b61418b565b348015610b7057600080fd5b5061052d610b7f366004615c3b565b61483c565b348015610b9057600080fd5b506002546104ac906001600160a01b031681565b348015610bb057600080fd5b50610a22610bbf3660046160fc565b6001600160a01b039091166000908152600b602090815260408083206001600160601b0390941683526001840182528083205460029094019091529020549091565b348015610c0d57600080fd5b50610455610c1c366004615c8c565b6148a4565b348015610c2d57600080fd5b50610c41610c3c366004615c3b565b614ba5565b6040516104c093929190616128565b348015610c5c57600080fd5b5061057b610c6b366004615c3b565b614c6d565b348015610c7c57600080fd5b50610772614ca3565b348015610c9157600080fd5b5061052d610ca0366004615c8c565b6000918252600c602090815260408084209284526004909201905290205490565b348015610ccd57600080fd5b50610455610cdc366004615ac4565b614cfb565b348015610ced57600080fd5b5061052d600381565b348015610d0257600080fd5b50610455610d11366004616153565b614d47565b348015610d2257600080fd5b5061052d610d31366004615c3b565b614fbb565b348015610d4257600080fd5b50610d8d610d51366004615c3b565b600d602052600090815260409020805460018201546002909201546001600160a01b03821692600160a01b9092046001600160601b0316919084565b604080516001600160a01b0390951685526001600160601b0390931660208501529183015260608201526080016104c0565b348015610dcb57600080fd5b5061052d610dda366004616171565b614ff0565b348015610deb57600080fd5b50610455610dfa3660046161a6565b615044565b348015610e0b57600080fd5b5060065461052d565b348015610e2057600080fd5b506001546104ac906001600160a01b031681565b348015610e4057600080fd5b5061052d610e4f366004615c3b565b6150f8565b348015610e6057600080fd5b5061057b610e6f366004615e38565b615129565b6000546001600160a01b03163314610ea75760405162461bcd60e51b8152600401610e9e906161dd565b60405180910390fd5b600180546001600160a01b0319166001600160a01b0392909216919091179055565b6000600254600160a01b900460ff166001811115610ee957610ee9615c54565b1415610fe157600354600554610eff9042616235565b1015610f615760405162461bcd60e51b815260206004820152602b60248201527f546865206d696e696d616c207374616b696e672074696d6520686173206e6f7460448201526a081c185cdcd959081e595d60aa1b6064820152608401610e9e565b600954610fc55760405162461bcd60e51b815260206004820152602c60248201527f546865726520617265206e6f2064697370757465206b6974207768696368206e60448201526b65656420667265657a696e6760a01b6064820152608401610e9e565b6002805460ff60a01b1916600160a01b1790554360065561143c565b6000306001600160a01b031663b70c4e946040518163ffffffff1660e01b815260040160206040518083038186803b15801561101c57600080fd5b505afa158015611030573d6000803e3d6000fd5b505050506040513d601f19601f82011682018060405250810190611054919061624c565b60095490915060009061106990600190616269565b90505b6000811261142c57600060098281548110611089576110896162a8565b9060005260206000200154905060006008600984815481106110ad576110ad6162a8565b9060005260206000200154815481106110c8576110c86162a8565b60009182526020909120600260049092020101546001600160a01b031690508380156111625750806001600160a01b031663c86ed8926040518163ffffffff1660e01b815260040160206040518083038186803b15801561112857600080fd5b505afa15801561113c573d6000803e3d6000fd5b505050506040513d601f19601f82011682018060405250810190611160919061624c565b155b1561124c57806001600160a01b0316630b274f2e6040518163ffffffff1660e01b8152600401600060405180830381600087803b1580156111a257600080fd5b505af11580156111b6573d6000803e3d6000fd5b50505050806001600160a01b031663c86ed8926040518163ffffffff1660e01b815260040160206040518083038186803b1580156111f357600080fd5b505afa158015611207573d6000803e3d6000fd5b505050506040513d601f19601f8201168201806040525081019061122b919061624c565b6112475760405162461bcd60e51b8152600401610e9e906162be565b611419565b806001600160a01b031663c86ed8926040518163ffffffff1660e01b815260040160206040518083038186803b15801561128557600080fd5b505afa158015611299573d6000803e3d6000fd5b505050506040513d601f19601f820116820180604052508101906112bd919061624c565b6112d95760405162461bcd60e51b8152600401610e9e906162be565b806001600160a01b031663034327446040518163ffffffff1660e01b815260040160206040518083038186803b15801561131257600080fd5b505afa158015611326573d6000803e3d6000fd5b505050506040513d601f19601f8201168201806040525081019061134a919061630d565b61141957600060088381548110611363576113636162a8565b600091825260209091206002600490920201018054911515600160a01b0260ff60a01b1990921691909117905560095461139f90600190616269565b8312156113f157600980546113b690600190616235565b815481106113c6576113c66162a8565b9060005260206000200154600984815481106113e4576113e46162a8565b6000918252602090912001555b600980548061140257611402616326565b600190038181906000526020600020016000905590555b5050806114259061633c565b905061106c565b50506002805460ff60a01b191690555b426005556002546040517f31f72b44f546d9e7eaec13f65636997665e15f134a81c82924f568f5c0d07b939161147d91600160a01b90910460ff1690616061565b60405180910390a1565b6000546001600160a01b031633146114b15760405162461bcd60e51b8152600401610e9e906161dd565b60006007846001600160601b0316815481106114cf576114cf6162a8565b90600052602060002090600b0201905060005b835181101561177857821561160f576000848281518110611505576115056162a8565b60200260200101511180156115365750600854845185908390811061152c5761152c6162a8565b6020026020010151105b6115735760405162461bcd60e51b815260206004820152600e60248201526d0aee4dedcce40889640d2dcc8caf60931b6044820152606401610e9e565b600182600a01600086848151811061158d5761158d6162a8565b6020026020010151815260200190815260200160002060006101000a81548160ff0219169083151502179055508381815181106115cc576115cc6162a8565b6020026020010151856001600160601b03167fd64105c77264bc0916356e533ac7fe93408b57128cc16819a4079e69369efc5a60405160405180910390a3611766565b6001856001600160601b0316148015611665575060006008858381518110611639576116396162a8565b602002602001015181548110611651576116516162a8565b906000526020600020906004020160000154145b156116ce5760405162461bcd60e51b815260206004820152603360248201527f43616e27742072656d6f766520726f6f7420444b20737570706f72742066726f6044820152721b481d1a194819d95b995c985b0818dbdd5c9d606a1b6064820152608401610e9e565b600082600a0160008684815181106116e8576116e86162a8565b6020026020010151815260200190815260200160002060006101000a81548160ff021916908315150217905550838181518110611727576117276162a8565b6020026020010151856001600160601b03167f73607cee0f079da3d86ea5a962393fde9082aa0137009e4ba163d5dec19b5d2560405160405180910390a35b806117708161635a565b9150506114e2565b5050505050565b6008818154811061178f57600080fd5b60009182526020909120600490910201805460028201546003909201549092506001600160a01b03821691600160a01b900460ff169084565b6000600a82815481106117dd576117dd6162a8565b600091825260208220600490910201805460078054929450916001600160601b03909116908110611810576118106162a8565b6000918252602082206003850154600b90920201925061183290600190616235565b9050600083600301828154811061184b5761184b6162a8565b6000918252602082206007909102019150600185015460ff16600481111561187557611875615c54565b14156119f65760008211806118c757506001840154600684019060ff1660048111156118a3576118a3615c54565b600481106118b3576118b36162a8565b015460028501546118c49042616235565b10155b6119475760405162461bcd60e51b8152602060048201526044602482018190527f5468652065766964656e636520706572696f642074696d6520686173206e6f74908201527f207061737365642079657420616e64206974206973206e6f7420616e2061707060648201526332b0b61760e11b608482015260a401610e9e565b60038101546006820154146119b05760405162461bcd60e51b815260206004820152602960248201527f546865206469737075746520686173206e6f742066696e6973686564206472616044820152683bb4b733903cb2ba1760b91b6064820152608401610e9e565b8254600160601b900460ff166119c75760026119ca565b60015b60018086018054909160ff19909116908360048111156119ec576119ec615c54565b0217905550611e82565b60018085015460ff166004811115611a1057611a10615c54565b1415611b74576001840154600684019060ff166004811115611a3457611a34615c54565b60048110611a4457611a446162a8565b01546002850154611a559042616235565b101580611afe57506008816000015481548110611a7457611a746162a8565b6000918252602090912060049182020160020154604051630baa64d160e01b81529182018790526001600160a01b031690630baa64d19060240160206040518083038186803b158015611ac657600080fd5b505afa158015611ada573d6000803e3d6000fd5b505050506040513d601f19601f82011682018060405250810190611afe919061624c565b611b5d5760405162461bcd60e51b815260206004820152602a60248201527f54686520636f6d6d697420706572696f642074696d6520686173206e6f74207060448201526930b9b9b2b2103cb2ba1760b11b6064820152608401610e9e565b6001808501805460029260ff1990911690836119ec565b6002600185015460ff166004811115611b8f57611b8f615c54565b1415611d2e576001840154600684019060ff166004811115611bb357611bb3615c54565b60048110611bc357611bc36162a8565b01546002850154611bd49042616235565b101580611c7d57506008816000015481548110611bf357611bf36162a8565b60009182526020909120600491820201600201546040516336a66c7560e11b81529182018790526001600160a01b031690636d4cd8ea9060240160206040518083038186803b158015611c4557600080fd5b505afa158015611c59573d6000803e3d6000fd5b505050506040513d601f19601f82011682018060405250810190611c7d919061624c565b611cd95760405162461bcd60e51b815260206004820152602760248201527f54686520766f746520706572696f642074696d6520686173206e6f74207061736044820152661cd959081e595d60ca1b6064820152608401610e9e565b600184018054600360ff199091161790558354604051600160601b9091046001600160a01b03169086907fa5d41b970d849372be1da1481ffd78d162bfe57a7aa2fe4e5fb73481fa5ac24f90600090a3611e82565b6003600185015460ff166004811115611d4957611d49615c54565b1415611e06576001840154600684019060ff166004811115611d6d57611d6d615c54565b60048110611d7d57611d7d6162a8565b01546002850154611d8e9042616235565b1015611def5760405162461bcd60e51b815260206004820152602a60248201527f5468652061707065616c20706572696f642074696d6520686173206e6f74207060448201526930b9b9b2b2103cb2ba1760b11b6064820152608401610e9e565b6001808501805460049260ff1990911690836119ec565b6004600185015460ff166004811115611e2157611e21615c54565b1415611e825760405162461bcd60e51b815260206004820152602a60248201527f546865206469737075746520697320616c726561647920696e20746865206c6160448201526939ba103832b934b7b21760b11b6064820152608401610e9e565b426002850155600184015460405186917f4e6f5cf43b95303e86aee81683df63992061723a829ee012db21dad388756b9191611ec19160ff1690615c7e565b60405180910390a25050505050565b600080600a8381548110611ee657611ee66162a8565b6000918252602082206003600490920201908101805491935090611f0c90600190616235565b81548110611f1c57611f1c6162a8565b600091825260208220845460078054938102909201945090916001600160601b03909116908110611f4f57611f4f6162a8565b90600052602060002090600b02019050806005015482600301541015611f7a57506000949350505050565b80546007805490916001600160601b0316908110611f9a57611f9a6162a8565b6000918252602080832094548352600a600b9092029094010190925250604090205460ff16159392505050565b600080600a8381548110611fdd57611fdd6162a8565b600091825260208220600360049092020190810180549193509061200390600190616235565b81548110612013576120136162a8565b906000526020600020906007020190506000600882600001548154811061203c5761203c6162a8565b6000918252602090912060049182020160020154604051631c3db16d60e01b81529182018790526001600160a01b031691508190631c3db16d9060240160206040518083038186803b15801561209157600080fd5b505afa1580156120a5573d6000803e3d6000fd5b505050506040513d601f19601f820116820180604052508101906120c9919061630d565b95945050505050565b600781815481106120e257600080fd5b60009182526020909120600b9091020180546002820154600383015460048401546005909401546001600160601b0384169550600160601b90930460ff1693919290919086565b6000600a828154811061213e5761213e6162a8565b600091825260209091206001600490920201015460ff1692915050565b6000828152600c6020526040812060020180548390811061217e5761217e6162a8565b906000526020600020015490505b92915050565b6000546001600160a01b031633146121bc5760405162461bcd60e51b8152600401610e9e906161dd565b8660078a6001600160601b0316815481106121d9576121d96162a8565b90600052602060002090600b020160020154111561226f5760405162461bcd60e51b815260206004820152604760248201527f4120737562636f7572742063616e6e6f742062652061206368696c64206f662060448201527f6120737562636f7572742077697468206120686967686572206d696e696d756d6064820152661039ba30b5b29760c91b608482015260a401610e9e565b60008151116122c05760405162461bcd60e51b815260206004820152601c60248201527f4d75737420737570706f7274206174206c65617374206f6e6520444b000000006044820152606401610e9e565b6001600160601b0389166123225760405162461bcd60e51b8152602060048201526024808201527f43616e2774206861766520466f726b696e6720636f75727420617320612070616044820152631c995b9d60e21b6064820152608401610e9e565b60078054600181018255600091825290600b82027fa66cc928b5edb82af9bd49922954155ab7b0942694bea4ce44661d9a8736c68801905b835181101561243f576000848281518110612377576123776162a8565b60200260200101511180156123a85750600854845185908390811061239e5761239e6162a8565b6020026020010151105b6123e55760405162461bcd60e51b815260206004820152600e60248201526d0aee4dedcce40889640d2dcc8caf60931b6044820152606401610e9e565b600182600a0160008684815181106123ff576123ff6162a8565b6020026020010151815260200190815260200160002060006101000a81548160ff02191690831515021790555080806124379061635a565b91505061235a565b5080546bffffffffffffffffffffffff19166001600160601b038c16178155604080516000815260208101918290525161247d916001840191615a01565b50805460ff60601b1916600160601b8b15150217815560028101899055600381018890556004808201889055600582018790556124c09060068301908790615a4c565b5060405163483abc4f60e11b8152600c600482015260248101839052604481018590527348ce286978C74c288eA6Bc9a536BcC899DF8D17790639075789e9060640160006040518083038186803b15801561251a57600080fd5b505af415801561252e573d6000803e3d6000fd5b5050505060078b6001600160601b03168154811061254e5761254e6162a8565b600091825260208083206001600b909302018201805492830181558352909120018290556040516001600160601b038c169083907ffbf60f92e3c38b643d7205bd6bacfdeb2bfb72f63294a2e646f8d2f18462ee24906125bd908e908e908e908e908e908e908e908e90616375565b60405180910390a35050505050505050505050565b6000600a84815481106125e7576125e76162a8565b600091825260209091206004918202019150600182015460ff16600481111561261257612612615c54565b1461265f5760405162461bcd60e51b815260206004820152601b60248201527f53686f756c6420626520657865637574696f6e20706572696f642e00000000006044820152606401610e9e565b6000816003018481548110612676576126766162a8565b906000526020600020906007020190506000600882600001548154811061269f5761269f6162a8565b60009182526020822060049182020160020154908401546001600160a01b0390911692506126ce9086906163cd565b6005840154600685015460405163368efae360e21b8152600481018b9052602481018a905292935090916000906001600160a01b0386169063da3beb8c9060440160206040518083038186803b15801561272757600080fd5b505afa15801561273b573d6000803e3d6000fd5b505050506040513d601f19601f8201168201806040525081019061275f919061630d565b90506000808261277a5783861115612775578395505b61279a565b6127858460026163e5565b86111561279a576127978460026163e5565b95505b60048801545b86811015612e635784811015612bd857604051634fe264fb60e01b8152600481018e9052602481018d9052604481018290526001600160a01b03891690634fe264fb9060640160206040518083038186803b1580156127fe57600080fd5b505afa158015612812573d6000803e3d6000fd5b505050506040513d601f19601f82011682018060405250810190612836919061630d565b91506127108211156128485761271091505b60006127106128578482616235565b8b6001015461286691906163e5565b612870919061641a565b905061287c81886163cd565b9650896006018281548110612893576128936162a8565b60009182526020808320909101546001600160a01b0316808352600b825260408084208f546001600160601b031685526002019092529082208054919650839290916128e0908490616235565b90915550508a546007805483926001600160601b0316908110612905576129056162a8565b90600052602060002090600b02016002015461292191906163cd565b6001600160a01b0385166000908152600b602090815260408083208f546001600160601b03168452600101909152902054106129b5576001600160a01b0384166000908152600b602090815260408083208e546001600160601b03168452600101909152812054612993908390616235565b8c549091506129ae9086906001600160601b03168385615171565b5050612a06565b6001600160a01b0384166000908152600b602090815260408083208e546001600160601b0316845260010190915290205415612a06578a54612a049085906001600160601b0316600084615171565b505b60405163ba66fde760e01b8152600481018f9052602481018e9052604481018390526001600160a01b038a169063ba66fde79060640160206040518083038186803b158015612a5457600080fd5b505afa158015612a68573d6000803e3d6000fd5b505050506040513d601f19601f82011682018060405250810190612a8c919061624c565b612b295760005b6001600160a01b0385166000908152600b6020526040902054811015612b27576001600160a01b0385166000908152600b602052604090208054612b1491879184908110612ae357612ae36162a8565b9060005260206000209060029182820401919006600c029054906101000a90046001600160601b0316600080615171565b5080612b1f8161635a565b915050612a93565b505b8d6001600160a01b0385167f24f45c2b08bbde8c837d70b67991ccb7660537cf749de21a940ae4858b681e19612b5e8461642e565b60408051918252600060208301520160405180910390a3612b80600187616235565b821415612bd25784612bd2576000805460028c01546040516001600160a01b039092169281156108fc029290818181858888f15050600054612bd093506001600160a01b0316915089905061578b565b505b50612e51565b6001600160a01b038816634fe264fb8e8e612bf3898661644b565b6040516001600160e01b031960e086901b16815260048101939093526024830191909152604482015260640160206040518083038186803b158015612c3757600080fd5b505afa158015612c4b573d6000803e3d6000fd5b505050506040513d601f19601f82011682018060405250810190612c6f919061630d565b9150612710821115612c815761271091505b60068901612c8f868361644b565b81548110612c9f57612c9f6162a8565b60009182526020909120015460018a01546001600160a01b03909116935061271090612ccc9084906163e5565b612cd6919061641a565b6001600160a01b0384166000908152600b602090815260408083208e546001600160601b0316845260020190915281208054909190612d16908490616235565b90915550506001600160a01b0383166000908152600b602090815260408083208d546001600160601b03168452600101909152902054612d7e576000612710838b60010154612d6591906163e5565b612d6f919061641a565b9050612d7b848261578b565b50505b600061271083612d8e878a61641a565b612d9891906163e5565b612da2919061641a565b9050600061271084878d60020154612dba919061641a565b612dc491906163e5565b612dce919061641a565b9050612dda858361578b565b506040516001600160a01b0386169082156108fc029083906000818181858888f19350505050508e856001600160a01b03167f24f45c2b08bbde8c837d70b67991ccb7660537cf749de21a940ae4858b681e198484604051612e46929190918252602082015260400190565b60405180910390a350505b80612e5b8161635a565b9150506127a0565b5084886005015414612e7757600588018590555b50505050600490930155505050505050565b6000600254600160a01b900460ff166001811115612ea957612ea9615c54565b14612ef65760405162461bcd60e51b815260206004820152601b60248201527f53686f756c6420626520696e205374616b696e672070686173652e00000000006044820152606401610e9e565b6000600e54600183600f54612f0b91906163cd565b612f159190616235565b11612f205781612f3b565b600f54600e54612f309190616235565b612f3b9060016163cd565b9050600081600f54612f4d91906163cd565b600f549091505b81811015612fcc576000818152600d60205260409020805460018201546002830154612f9c926001600160a01b03811692600160a01b9091046001600160601b031691615171565b50506000818152600d60205260408120818155600181018290556002015580612fc48161635a565b915050612f54565b50600f555050565b612fdc615a79565b60006007836001600160601b031681548110612ffa57612ffa6162a8565b60009182526020909120604080516080810191829052600b9093029091019250600683019060049082845b815481526020019060010190808311613025575050505050915050919050565b6000546001600160a01b0316331461306f5760405162461bcd60e51b8152600401610e9e906161dd565b6001826001600160601b031614806130e2575080600780846001600160601b0316815481106130a0576130a06162a8565b60009182526020909120600b909102015481546001600160601b039091169081106130cd576130cd6162a8565b90600052602060002090600b02016002015411155b6130eb57600080fd5b60005b6007836001600160601b03168154811061310a5761310a6162a8565b90600052602060002090600b02016001018054905081101561322b5781600780856001600160601b031681548110613144576131446162a8565b90600052602060002090600b02016001018381548110613166576131666162a8565b906000526020600020015481548110613181576131816162a8565b90600052602060002090600b02016002015410156132195760405162461bcd60e51b815260206004820152604960248201527f4120737562636f7572742063616e6e6f742062652074686520706172656e742060448201527f6f66206120737562636f75727420776974682061206c6f776572206d696e696d6064820152683ab69039ba30b5b29760b91b608482015260a401610e9e565b806132238161635a565b9150506130ee565b50806007836001600160601b031681548110613249576132496162a8565b90600052602060002090600b020160020181905550816001600160601b03166000805160206165338339815191526040516132a0906020808252600890820152676d696e5374616b6560c01b604082015260600190565b60405180910390a25050565b6060600882815481106132c1576132c16162a8565b906000526020600020906004020160010180548060200260200160405190810160405280929190818152602001828054801561331c57602002820191906000526020600020905b815481526020019060010190808311613308575b50505050509050919050565b6000600a828154811061333d5761333d6162a8565b6000918252602090912060049091020160010154610100900460ff1692915050565b600a818154811061336f57600080fd5b60009182526020909120600490910201805460018201546002909201546001600160601b0382169350600160601b9091046001600160a01b03169160ff80821692610100909204169085565b6000546001600160a01b031633146133e55760405162461bcd60e51b8152600401610e9e906161dd565b806007836001600160601b031681548110613402576134026162a8565b90600052602060002090600b0201600601906004613421929190615a4c565b50816001600160601b03166000805160206165338339815191526040516132a0906020808252600e908201526d1d1a5b595cd4195c94195c9a5bd960921b604082015260600190565b6000546001600160a01b031633146134945760405162461bcd60e51b8152600401610e9e906161dd565b806007836001600160601b0316815481106134b1576134b16162a8565b90600052602060002090600b020160040181905550816001600160601b03166000805160206165338339815191526040516132a0906020808252600b908201526a3332b2a337b9253ab937b960a91b604082015260600190565b600080600a8381548110613521576135216162a8565b600091825260208220600360049092020190810180549193509061354790600190616235565b81548110613557576135576162a8565b600091825260208220845460078054938102909201945090916001600160601b0390911690811061358a5761358a6162a8565b90600052602060002090600b0201905080600501548260030154106136295782546001600160601b0316600114156135cb576001600160ff1b039350613653565b60038201546135db9060026163e5565b6135e69060016163cd565b81546007805490916001600160601b0316908110613606576136066162a8565b90600052602060002090600b02016004015461362291906163e5565b9350613653565b60038201546136399060026163e5565b6136449060016163cd565b81600401546120c991906163e5565b505050919050565b6000546001600160a01b031633146136855760405162461bcd60e51b8152600401610e9e906161dd565b806007836001600160601b0316815481106136a2576136a26162a8565b90600052602060002090600b020160030181905550816001600160601b03166000805160206165338339815191526040516132a090602080825260059082015264616c70686160d81b604082015260600190565b6000546001600160a01b031633146137205760405162461bcd60e51b8152600401610e9e906161dd565b6000836001600160a01b0316838360405161373b919061648b565b60006040518083038185875af1925050503d8060008114613778576040519150601f19603f3d011682016040523d82523d6000602084013e61377d565b606091505b50509050806137c25760405162461bcd60e51b8152602060048201526011602482015270155b9cdd58d8d95cdcd99d5b0818d85b1b607a1b6044820152606401610e9e565b50505050565b6137d53383836000615171565b6138125760405162461bcd60e51b815260206004820152600e60248201526d14dd185ada5b99c819985a5b195960921b6044820152606401610e9e565b5050565b6000546001600160a01b031633146138405760405162461bcd60e51b8152600401610e9e906161dd565b600355565b6000806000806060600080600a8981548110613863576138636162a8565b90600052602060002090600402019050600081600301898154811061388a5761388a6162a8565b9060005260206000209060070201905080600101548160020154826004015483600501548460060185600001548180548060200260200160405190810160405280929190818152602001828054801561390c57602002820191906000526020600020905b81546001600160a01b031681526001909101906020018083116138ee575b5050505050915097509750975097509750975050509295509295509295565b6000600a8281548110613940576139406162a8565b600091825260209091206004918202019150600182015460ff16600481111561396b5761396b615c54565b146139b85760405162461bcd60e51b815260206004820152601b60248201527f53686f756c6420626520657865637574696f6e20706572696f642e00000000006044820152606401610e9e565b6001810154610100900460ff1615613a125760405162461bcd60e51b815260206004820152601860248201527f52756c696e6720616c72656164792065786563757465642e00000000000000006044820152606401610e9e565b6000613a1d83611fc7565b60018301805461ff001916610100179055825460405163188d362b60e11b815260048101869052602481018390529192506001600160a01b03600160601b909104169063311a6c5690604401600060405180830381600087803b158015613a8357600080fd5b505af1158015613a97573d6000803e3d6000fd5b50505050505050565b60098181548110613ab057600080fd5b600091825260209091200154905081565b6000806000600a8481548110613ad957613ad96162a8565b6000918252602082206003600490920201908101805491935090613aff90600190616235565b81548110613b0f57613b0f6162a8565b906000526020600020906007020190506008816000015481548110613b3657613b366162a8565b6000918252602090912060049182020160020154604051639b05c26160e01b81529182018790526001600160a01b031690639b05c26190602401604080518083038186803b158015613b8757600080fd5b505afa158015613b9b573d6000803e3d6000fd5b505050506040513d601f19601f82011682018060405250810190613bbf91906164a7565b90969095509350505050565b6000546001600160a01b03163314613bf55760405162461bcd60e51b8152600401610e9e906161dd565b806007836001600160601b031681548110613c1257613c126162a8565b90600052602060002090600b020160050181905550816001600160601b03166000805160206165338339815191526040516132a09060208082526012908201527106a75726f7273466f72436f7572744a756d760741b604082015260600190565b6000806000600a8481548110613c8b57613c8b6162a8565b6000918252602090912060049091020190506003600182015460ff166004811115613cb857613cb8615c54565b1415613d11576002810154815460078054929550916001600160601b03909116908110613ce757613ce76162a8565b600091825260209091206009600b9092020101546002820154613d0a91906163cd565b9150613d1a565b60009250600091505b50915091565b6000546001600160a01b03163314613d4a5760405162461bcd60e51b8152600401610e9e906161dd565b600455565b60006001600254600160a01b900460ff166001811115613d7157613d71615c54565b148015613d8c5750600454600554613d899042616235565b10155b905090565b6000613d9c82614ff0565b341015613dfd5760405162461bcd60e51b815260206004820152602960248201527f4e6f7420656e6f7567682045544820746f20636f76657220617262697472617460448201526834b7b71031b7b9ba1760b91b6064820152608401610e9e565b600080613e0984615857565b92505091506007826001600160601b031681548110613e2a57613e2a6162a8565b60009182526020808320848452600a600b90930201919091019052604090205460ff16613eb35760405162461bcd60e51b815260206004820152603160248201527f5468652064697370757465206b6974206973206e6f7420737570706f7274656460448201527008189e481d1a1a5cc81cdd5898dbdd5c9d607a1b6064820152608401610e9e565b600a80546001810182556000918252600160601b33026001600160601b03851617600482027fc65a7bb8d6351c1cf70c95a316cc6a92839c986682d98bc35f958f4883f9d2a88101918255427fc65a7bb8d6351c1cf70c95a316cc6a92839c986682d98bc35f958f4883f9d2aa909101556008805492965090929184908110613f3e57613f3e6162a8565b600091825260208220600260049092020101548354600780546001600160a01b039093169450916001600160601b03909116908110613f7f57613f7f6162a8565b60009182526020808320600387018054600181018255908552919093206004600b9093029093019182015491935060070290910190613fbe903461641a565b600380830191909155858255820154600283015461271091613fdf916163e5565b613fe9919061641a565b60018201553460028201556008805486908110614008576140086162a8565b906000526020600020906004020160020160149054906101000a900460ff1661409f57600160088681548110614040576140406162a8565b6000918252602082206002600490920201018054921515600160a01b0260ff60a01b19909316929092179091556009805460018101825591527f6e1540171b6c0c960b71a7020d9f60077f6af931a8bbf590da0223dacf75c7af018590555b60038101546040516302dbb79560e61b81526001600160a01b0385169163b6ede540916140d4918b918e918e916004016164cc565b600060405180830381600087803b1580156140ee57600080fd5b505af1158015614102573d6000803e3d6000fd5b50506040513392508991507f141dfc18aa6a56fc816f44f0e9e2f1ebc92b15ab167770e17db5b084c10ed99590600090a350505050505092915050565b6000546001600160a01b031633146141695760405162461bcd60e51b8152600401610e9e906161dd565b600280546001600160a01b0319166001600160a01b0392909216919091179055565b6141948361350b565b3410156141ef5760405162461bcd60e51b8152602060048201526024808201527f4e6f7420656e6f7567682045544820746f20636f7665722061707065616c206360448201526337b9ba1760e11b6064820152608401610e9e565b6000600a8481548110614204576142046162a8565b6000918252602090912060049091020190506003600182015460ff16600481111561423157614231615c54565b1461427e5760405162461bcd60e51b815260206004820152601a60248201527f44697370757465206973206e6f742061707065616c61626c652e0000000000006044820152606401610e9e565b6003810180546000919061429490600190616235565b815481106142a4576142a46162a8565b9060005260206000209060070201905060088160000154815481106142cb576142cb6162a8565b60009182526020909120600490910201600201546001600160a01b031633146143445760405162461bcd60e51b815260206004820152602560248201527f416363657373206e6f7420616c6c6f7765643a2044697370757465204b69742060448201526437b7363c9760d91b6064820152608401610e9e565b8154815460038401805460018101825560009182526020909120600780546001600160601b03909516949281029091019183908110614385576143856162a8565b90600052602060002090600b020160050154846003015410614589576007836001600160601b0316815481106143bd576143bd6162a8565b600091825260208220600b90910201546001600160601b031693505b600a8110156144ce576007846001600160601b0316815481106143fe576143fe6162a8565b60009182526020808320868452600a600b90930201919091019052604090205460ff161561442b576144ce565b600060088481548110614440576144406162a8565b90600052602060002090600402016000015414614483576008838154811061446a5761446a6162a8565b90600052602060002090600402016000015492506144bc565b6007846001600160601b03168154811061449f5761449f6162a8565b60009182526020909120600b90910201546001600160601b031693505b806144c68161635a565b9150506143d9565b506007836001600160601b0316815481106144eb576144eb6162a8565b60009182526020808320858452600a600b90930201919091019052604090205460ff1661451757600192505b84546001600160601b0384811691161461458957845460038601546001600160601b039091169061454a90600190616235565b6040516001600160601b03861681528a907f736e3f52761298c8c0823e1ebf482ed3c5ecb304f743d2d91a7c006e8e8d7a1f9060200160405180910390a45b84546bffffffffffffffffffffffff19166001600160601b038416908117865560018601805460ff19169055426002870155600780546000929081106145d1576145d16162a8565b90600052602060002090600b020190508060040154346145f1919061641a565b82600301819055506127108160030154826002015461461091906163e5565b61461a919061641a565b6001830155346002830155828255600880548490811061463c5761463c6162a8565b906000526020600020906004020160020160149054906101000a900460ff166146d357600160088481548110614674576146746162a8565b6000918252602082206002600490920201018054921515600160a01b0260ff60a01b19909316929092179091556009805460018101825591527f6e1540171b6c0c960b71a7020d9f60077f6af931a8bbf590da0223dacf75c7af018390555b84548254146147b957845460038701546146ef90600190616235565b83546040519081528b907fcbe7939a71f0b369c7471d760a0a99b60b7bb010ee0406cba8a46679d1ea77569060200160405180910390a4600882600001548154811061473d5761473d6162a8565b600091825260209091206004918202016002015460038401546040516302dbb79560e61b81526001600160a01b039092169263b6ede54092614786928e928e928e9291016164cc565b600060405180830381600087803b1580156147a057600080fd5b505af11580156147b4573d6000803e3d6000fd5b505050505b8554604051600160601b9091046001600160a01b0316908a907f9c9b64db9e130f48381bf697abf638e73117dbfbfd7a4484f2da3ba188f4187d90600090a3887f4e6f5cf43b95303e86aee81683df63992061723a829ee012db21dad388756b9160006040516148299190615c7e565b60405180910390a2505050505050505050565b600080600a8381548110614852576148526162a8565b90600052602060002090600402019050806003016001826003018054905061487a9190616235565b8154811061488a5761488a6162a8565b906000526020600020906007020160030154915050919050565b6001600254600160a01b900460ff1660018111156148c4576148c4615c54565b146149005760405162461bcd60e51b815260206004820152600c60248201526b2bb937b73390383430b9b29760a11b6044820152606401610e9e565b6000600a8381548110614915576149156162a8565b9060005260206000209060040201905060006001826003018054905061493b9190616235565b90506000826003018281548110614954576149546162a8565b6000918252602082206007909102019150600184015460ff16600481111561497e5761497e615c54565b146149cb5760405162461bcd60e51b815260206004820152601a60248201527f53686f756c642062652065766964656e636520706572696f642e0000000000006044820152606401610e9e565b600060088260000154815481106149e4576149e46162a8565b60009182526020822060026004909202010154600684015460038501546001600160a01b0390921693509190614a1a88846163cd565b1115614a2a578360030154614a34565b614a3487836163cd565b9050815b81811015614b9a57604051633b30414760e01b8152600481018a90526000906001600160a01b03861690633b30414790602401602060405180830381600087803b158015614a8557600080fd5b505af1158015614a99573d6000803e3d6000fd5b505050506040513d601f19601f82011682018060405250810190614abd9190616515565b90506001600160a01b03811615614b875760018601546001600160a01b0382166000908152600b602090815260408083208c546001600160601b0316845260020190915281208054909190614b139084906163cd565b909155505060068601805460018101825560009182526020918290200180546001600160a01b0319166001600160a01b038416908117909155604080518a81529283018590528c927f6119cf536152c11e0a9a6c22f3953ce4ecc93ee54fa72ffa326ffabded21509b910160405180910390a35b5080614b928161635a565b915050614a38565b505050505050505050565b6000818152600c60209081526040918290208054600182018054855181860281018601909652808652919460609485949391929190830182828015614c0957602002820191906000526020600020905b815481526020019060010190808311614bf5575b5050505050925080600201805480602002602001604051908101604052809291908181526020018280548015614c5e57602002820191906000526020600020905b815481526020019060010190808311614c4a575b50505050509150509193909250565b600060078281548110614c8257614c826162a8565b60009182526020909120600b9091020154600160601b900460ff1692915050565b60606009805480602002602001604051908101604052809291908181526020018280548015614cf157602002820191906000526020600020905b815481526020019060010190808311614cdd575b5050505050905090565b6000546001600160a01b03163314614d255760405162461bcd60e51b8152600401610e9e906161dd565b600080546001600160a01b0319166001600160a01b0392909216919091179055565b6000546001600160a01b03163314614d715760405162461bcd60e51b8152600401610e9e906161dd565b600854808210614dba5760405162461bcd60e51b815260206004820152601460248201527314185c995b9d08191bd95cdb89dd08195e1a5cdd60621b6044820152606401610e9e565b600082614e0a5760016007600181548110614dd757614dd76162a8565b60009182526020808320868452600b92909202909101600a01905260409020805460ff1916911515919091179055614e85565b60088381548110614e1d57614e1d6162a8565b9060005260206000209060040201600301546001614e3b91906163cd565b9050600a8110614e855760405162461bcd60e51b8152602060048201526015602482015274088cae0e8d040d8caeccad840d2e640c2e840dac2f605b1b6044820152606401610e9e565b6040805160a08101825284815281516000808252602080830185528084019283526001600160a01b038916948401949094526060830181905260808301859052600880546001810182559152825160049091027ff3f7a9fe364faab93b216da50a3214154f22a0a2b415b23a84c8169e8b636ee381019182559151805193949193614f37937ff3f7a9fe364faab93b216da50a3214154f22a0a2b415b23a84c8169e8b636ee401929190910190615a01565b50604082015160028201805460608501511515600160a01b026001600160a81b03199091166001600160a01b03909316929092179190911790556080909101516003909101556008805484908110614f9157614f916162a8565b60009182526020808320600160049093020182018054928301815583529091200191909155505050565b6000600a8281548110614fd057614fd06162a8565b60009182526020909120600490910201546001600160601b031692915050565b6000806000614ffe84615857565b5091509150806007836001600160601b031681548110615020576150206162a8565b90600052602060002090600b02016004015461503c91906163e5565b949350505050565b6000546001600160a01b0316331461506e5760405162461bcd60e51b8152600401610e9e906161dd565b806007836001600160601b03168154811061508b5761508b6162a8565b90600052602060002090600b0201600001600c6101000a81548160ff021916908315150217905550816001600160601b03166000805160206165338339815191526040516132a0906020808252600b908201526a68696464656e566f74657360a81b604082015260600190565b600080600a838154811061510e5761510e6162a8565b60009182526020909120600360049092020101549392505050565b60006007836001600160601b031681548110615147576151476162a8565b60009182526020808320948352600b91909102909301600a0190925250604090205460ff16919050565b60006001600160601b038416158061519357506007546001600160601b038516115b156151a05750600061503c565b6001600160a01b0385166000908152600b60205260408120906151c387876158db565b604051637521ccb160e01b8152600c60048201526001600160601b0388166024820152604481018290529091506000907348ce286978C74c288eA6Bc9a536BcC899DF8D17790637521ccb19060640160206040518083038186803b15801561522a57600080fd5b505af415801561523e573d6000803e3d6000fd5b505050506040513d601f19601f82011682018060405250810190615262919061630d565b905085156152f0576007876001600160601b031681548110615286576152866162a8565b90600052602060002090600b0201600201548610806152be57506001600160601b038716600090815260028401602052604090205486105b156152cf576000935050505061503c565b801580156152df57508254600411155b156152f0576000935050505061503c565b6000600254600160a01b900460ff16600181111561531057615310615c54565b146153bc576040518060800160405280896001600160a01b03168152602001886001600160601b0316815260200187815260200186815250600d6000600e6000815461535b9061635a565b9182905550815260208082019290925260409081016000208351928401516001600160601b0316600160a01b026001600160a01b03909316929092178255820151600180830191909155606090920151600290910155935061503c92505050565b6000818710615439576153cf8288616235565b90508015615427576153e2893083615923565b1561542c5781615427578354600180820186556000868152602090206002830401805491909216600c026101000a6001600160601b0381810219909216918b16021790555b61560e565b600094505050505061503c565b866155d6576001600160601b038816600090815260028501602052604090205486906154659084616235565b61546f9190616235565b9050801561542757615481898261578b565b1561542c5760005b84548110156155d057886001600160601b03168560000182815481106154b1576154b16162a8565b600091825260209091206002820401546001909116600c026101000a90046001600160601b031614156155be57845485906154ee90600190616235565b815481106154fe576154fe6162a8565b9060005260206000209060029182820401919006600c029054906101000a90046001600160601b031685600001828154811061553c5761553c6162a8565b9060005260206000209060029182820401919006600c026101000a8154816001600160601b0302191690836001600160601b031602179055508460000180548061558857615588616326565b60008281526020902060026000199092019182040180546001600160601b03600c60018516026101000a021916905590556155d0565b806155c88161635a565b915050615489565b5061560e565b856155e18884616235565b6155eb9190616235565b9050801561560e576155fd898261578b565b61560e57600094505050505061503c565b6001600160601b03881660009081526001850160205260408120548890615636908590616235565b61564091906163cd565b6001600160601b038a16600081815260018801602052604081208390559192505b8161572457604051631712e1c560e11b8152600c600482015260248101829052604481018b9052606481018790527348ce286978C74c288eA6Bc9a536BcC899DF8D17790632e25c38a9060840160006040518083038186803b1580156156c657600080fd5b505af41580156156da573d6000803e3d6000fd5b5050505060018114156156f05760019150615661565b60078181548110615703576157036162a8565b60009182526020909120600b90910201546001600160601b03169050615661565b604080516001600160601b038d168152602081018c90529081018490526001600160a01b038d16907f70ca4ec64687bf265f39041896f3dbf10b9f650503cb38f2b3569fdce7489c369060600160405180910390a25060019b9a5050505050505050505050565b600154604080516001600160a01b038581166024830152604480830186905283518084039091018152606490920183526020820180516001600160e01b031663a9059cbb60e01b1790529151600093849384939116916157eb919061648b565b6000604051808303816000865af19150503d8060008114615828576040519150601f19603f3d011682016040523d82523d6000602084013e61582d565b606091505b50915091508180156120c95750805115806120c95750808060200190518101906120c9919061624c565b600080600060408451106158c9575050506020810151604082015160608301516001600160601b038316158061589857506007546001600160601b03841610155b156158a257600192505b816158ac57600391505b8015806158bb57506008548110155b156158c4575060015b6158d4565b506001915060039050815b9193909250565b600060405160005b60148110156158fe578481600c011a818301536001016158e3565b5060145b602081101561591a5783811a81830153600101615902565b50519392505050565b600154604080516001600160a01b0386811660248301528581166044830152606480830186905283518084039091018152608490920183526020820180516001600160e01b03166323b872dd60e01b17905291516000938493849391169161598b919061648b565b6000604051808303816000865af19150503d80600081146159c8576040519150601f19603f3d011682016040523d82523d6000602084013e6159cd565b606091505b50915091508180156159f75750805115806159f75750808060200190518101906159f7919061624c565b9695505050505050565b828054828255906000526020600020908101928215615a3c579160200282015b82811115615a3c578251825591602001919060010190615a21565b50615a48929150615a97565b5090565b8260048101928215615a3c5791602002820182811115615a3c578251825591602001919060010190615a21565b60405180608001604052806004906020820280368337509192915050565b5b80821115615a485760008155600101615a98565b6001600160a01b0381168114615ac157600080fd5b50565b600060208284031215615ad657600080fd5b8135615ae181615aac565b9392505050565b80356001600160601b0381168114615aff57600080fd5b919050565b634e487b7160e01b600052604160045260246000fd5b604051601f8201601f1916810167ffffffffffffffff81118282101715615b4357615b43615b04565b604052919050565b600082601f830112615b5c57600080fd5b8135602067ffffffffffffffff821115615b7857615b78615b04565b8160051b615b87828201615b1a565b9283528481018201928281019087851115615ba157600080fd5b83870192505b84831015615bc057823582529183019190830190615ba7565b979650505050505050565b8015158114615ac157600080fd5b600080600060608486031215615bee57600080fd5b615bf784615ae8565b9250602084013567ffffffffffffffff811115615c1357600080fd5b615c1f86828701615b4b565b9250506040840135615c3081615bcb565b809150509250925092565b600060208284031215615c4d57600080fd5b5035919050565b634e487b7160e01b600052602160045260246000fd5b60058110615c7a57615c7a615c54565b9052565b6020810161218c8284615c6a565b60008060408385031215615c9f57600080fd5b50508035926020909101359150565b600082601f830112615cbf57600080fd5b6040516080810181811067ffffffffffffffff82111715615ce257615ce2615b04565b604052806080840185811115615cf757600080fd5b845b81811015615d11578035835260209283019201615cf9565b509195945050505050565b60008060008060008060008060006101808a8c031215615d3b57600080fd5b615d448a615ae8565b985060208a0135615d5481615bcb565b975060408a0135965060608a0135955060808a0135945060a08a01359350615d7f8b60c08c01615cae565b92506101408a013591506101608a013567ffffffffffffffff811115615da457600080fd5b615db08c828d01615b4b565b9150509295985092959850929598565b600080600060608486031215615dd557600080fd5b505081359360208301359350604090920135919050565b600060208284031215615dfe57600080fd5b615ae182615ae8565b8060005b60048110156137c2578151845260209384019390910190600101615e0b565b6080810161218c8284615e07565b60008060408385031215615e4b57600080fd5b615e5483615ae8565b946020939093013593505050565b600081518084526020808501945080840160005b83811015615e9257815187529582019590820190600101615e76565b509495945050505050565b602081526000615ae16020830184615e62565b6001600160601b03861681526001600160a01b038516602082015260a08101615edc6040830186615c6a565b9215156060820152608001529392505050565b60008060a08385031215615f0257600080fd5b615f0b83615ae8565b9150615f1a8460208501615cae565b90509250929050565b600082601f830112615f3457600080fd5b813567ffffffffffffffff811115615f4e57615f4e615b04565b615f61601f8201601f1916602001615b1a565b818152846020838601011115615f7657600080fd5b816020850160208301376000918101602001919091529392505050565b600080600060608486031215615fa857600080fd5b8335615fb381615aac565b925060208401359150604084013567ffffffffffffffff811115615fd657600080fd5b615fe286828701615f23565b9150509250925092565b600060c082018883526020888185015287604085015286606085015260c0608085015281865180845260e086019150828801935060005b818110156160485784516001600160a01b031683529383019391830191600101616023565b50508093505050508260a0830152979650505050505050565b602081016002831061607557616075615c54565b91905290565b6000806040838503121561608e57600080fd5b82359150602083013567ffffffffffffffff8111156160ac57600080fd5b6160b885828601615f23565b9150509250929050565b6000806000606084860312156160d757600080fd5b8335925060208401359150604084013567ffffffffffffffff811115615fd657600080fd5b6000806040838503121561610f57600080fd5b823561611a81615aac565b9150615f1a60208401615ae8565b8381526060602082015260006161416060830185615e62565b82810360408401526159f78185615e62565b6000806040838503121561616657600080fd5b8235615e5481615aac565b60006020828403121561618357600080fd5b813567ffffffffffffffff81111561619a57600080fd5b61503c84828501615f23565b600080604083850312156161b957600080fd5b6161c283615ae8565b915060208301356161d281615bcb565b809150509250929050565b60208082526022908201527f416363657373206e6f7420616c6c6f7765643a20476f7665726e6f72206f6e6c6040820152613c9760f11b606082015260800190565b634e487b7160e01b600052601160045260246000fd5b6000828210156162475761624761621f565b500390565b60006020828403121561625e57600080fd5b8151615ae181615bcb565b60008083128015600160ff1b8501841216156162875761628761621f565b6001600160ff1b03840183138116156162a2576162a261621f565b50500390565b634e487b7160e01b600052603260045260246000fd5b6020808252602f908201527f412064697370757465206b697420686173206e6f742070617373656420746f2060408201526e5265736f6c76696e6720706861736560881b606082015260800190565b60006020828403121561631f57600080fd5b5051919050565b634e487b7160e01b600052603160045260246000fd5b6000600160ff1b8214156163525761635261621f565b506000190190565b600060001982141561636e5761636e61621f565b5060010190565b60006101608a151583528960208401528860408401528760608401528660808401526163a460a0840187615e07565b84610120840152806101408401526163be81840185615e62565b9b9a5050505050505050505050565b600082198211156163e0576163e061621f565b500190565b60008160001904831182151516156163ff576163ff61621f565b500290565b634e487b7160e01b600052601260045260246000fd5b60008261642957616429616404565b500490565b6000600160ff1b8214156164445761644461621f565b5060000390565b60008261645a5761645a616404565b500690565b60005b8381101561647a578181015183820152602001616462565b838111156137c25750506000910152565b6000825161649d81846020870161645f565b9190910192915050565b600080604083850312156164ba57600080fd5b8251915060208301516161d281615bcb565b84815283602082015260806040820152600083518060808401526164f78160a085016020880161645f565b606083019390935250601f91909101601f19160160a0019392505050565b60006020828403121561652757600080fd5b8151615ae181615aac56fe8f4ab3272f699ef825c5008ac66b1b213bfab7b8f730599d1deeaf4e048dc922a264697066735822122074bec8c99f0d37eab91640b145df87385a966b1495ccf21b84e1b6403133415764736f6c63430008090033",
  "deployedBytecode": "0x6080604052600436106104305760003560e01c80638a9bb02a11610229578063c71f42531161012e578063eaff425a116100b6578063f8bdb57b1161007a578063f8bdb57b14610ddf578063fa41488014610dff578063fbf405b014610e14578063fc6f8f1614610e34578063fe524c3914610e5457600080fd5b8063eaff425a14610ce1578063f12ada8b14610cf6578063f6a6ef7a14610d16578063f6b4d82d14610d36578063f7434ea914610dbf57600080fd5b8063d2d514e0116100fd578063d2d514e014610c21578063d578cbac14610c50578063d8b03fd814610c70578063de1a1e5914610c85578063e4c0aaf414610cc157600080fd5b8063c71f425314610b64578063cf0c38f814610b84578063d1c1df4814610ba4578063d2b8035a14610c0157600080fd5b8063b31b4540116101b1578063bd8193bb11610180578063bd8193bb14610adb578063c057eca714610b08578063c13517e114610b1e578063c258bb1914610b31578063c356990214610b5157600080fd5b8063b31b454014610a85578063b4a6160814610a9b578063b70c4e9414610ab0578063b888adfa14610ac557600080fd5b8063a57366e7116101f8578063a57366e7146109b2578063a9b713af146109d2578063afe15cfb14610a02578063b1c9fe6e14610a37578063b2866af714610a6557600080fd5b80638a9bb02a1461090b5780638bb048751461093d5780638edf47411461095d5780639b05c2611461097d57600080fd5b806335975f4a1161033a57806359354c77116102c25780636c1eb1b9116102865780636c1eb1b91461087b578063751accd0146108905780637717a6e8146108b0578063823cfd70146108d0578063840bc19c146108f057600080fd5b806359354c771461080657806359ec827e146108265780635bc24dd3146108465780635ea5c038146108665780636235593f1461064457600080fd5b806343d4137f1161030957806343d4137f146107525780634b7fcda21461077f578063564a565d1461079f57806356acb050146107d057806357260364146107e657600080fd5b806335975f4a146106cf5780633a157860146106ef5780633cfd1184146107055780633e1d09be1461073257600080fd5b80631f5a0dd2116103bd5780632922d6041161038c5780632922d604146106595780632b6a63f1146106795780632d29a47b146106995780632ea7b4d0146106b957806334d5fb311461060257600080fd5b80631f5a0dd2146105ab5780632256aaf31461060257806322684db01461061757806327e6ec8a1461064457600080fd5b80630d1b9d1a116104045780630d1b9d1a146104c95780630e083ec914610517578063115d53761461053b57806319b815291461055b5780631c3db16d1461058b57600080fd5b8062f5822c146104355780630b274f2e146104575780630b7414bc1461046c5780630c340a241461048c575b600080fd5b34801561044157600080fd5b50610455610450366004615ac4565b610e74565b005b34801561046357600080fd5b50610455610ec9565b34801561047857600080fd5b50610455610487366004615bd9565b611487565b34801561049857600080fd5b506000546104ac906001600160a01b031681565b6040516001600160a01b0390911681526020015b60405180910390f35b3480156104d557600080fd5b506104e96104e4366004615c3b565b61177f565b604080519485526001600160a01b0390931660208501529015159183019190915260608201526080016104c0565b34801561052357600080fd5b5061052d600e5481565b6040519081526020016104c0565b34801561054757600080fd5b50610455610556366004615c3b565b6117c8565b34801561056757600080fd5b5061057b610576366004615c3b565b611ed0565b60405190151581526020016104c0565b34801561059757600080fd5b5061052d6105a6366004615c3b565b611fc7565b3480156105b757600080fd5b506105cb6105c6366004615c3b565b6120d2565b604080516001600160601b0390971687529415156020870152938501929092526060840152608083015260a082015260c0016104c0565b34801561060e57600080fd5b5061052d600181565b34801561062357600080fd5b50610637610632366004615c3b565b612129565b6040516104c09190615c7e565b34801561065057600080fd5b5061052d600081565b34801561066557600080fd5b5061052d610674366004615c8c565b61215b565b34801561068557600080fd5b50610455610694366004615d1c565b612192565b3480156106a557600080fd5b506104556106b4366004615dc0565b6125d2565b3480156106c557600080fd5b5061052d61271081565b3480156106db57600080fd5b506104556106ea366004615c3b565b612e89565b3480156106fb57600080fd5b5061052d60065481565b34801561071157600080fd5b50610725610720366004615dec565b612fd4565b6040516104c09190615e2a565b34801561073e57600080fd5b5061045561074d366004615e38565b613045565b34801561075e57600080fd5b5061077261076d366004615c3b565b6132ac565b6040516104c09190615e9d565b34801561078b57600080fd5b5061057b61079a366004615c3b565b613328565b3480156107ab57600080fd5b506107bf6107ba366004615c3b565b61335f565b6040516104c0959493929190615eb0565b3480156107dc57600080fd5b5061052d600f5481565b3480156107f257600080fd5b50610455610801366004615eef565b6133bb565b34801561081257600080fd5b50610455610821366004615e38565b61346a565b34801561083257600080fd5b5061052d610841366004615c3b565b61350b565b34801561085257600080fd5b50610455610861366004615e38565b61365b565b34801561087257600080fd5b5060085461052d565b34801561088757600080fd5b5061052d600a81565b34801561089c57600080fd5b506104556108ab366004615f93565b6136f6565b3480156108bc57600080fd5b506104556108cb366004615e38565b6137c8565b3480156108dc57600080fd5b506104556108eb366004615c3b565b613816565b3480156108fc57600080fd5b5061052d6001600160ff1b0381565b34801561091757600080fd5b5061092b610926366004615c8c565b613845565b6040516104c096959493929190615fec565b34801561094957600080fd5b50610455610958366004615c3b565b61392b565b34801561096957600080fd5b5061052d610978366004615c3b565b613aa0565b34801561098957600080fd5b5061099d610998366004615c3b565b613ac1565b604080519283529015156020830152016104c0565b3480156109be57600080fd5b506104556109cd366004615e38565b613bcb565b3480156109de57600080fd5b5061052d6109ed366004615c3b565b6000908152600c602052604090206002015490565b348015610a0e57600080fd5b50610a22610a1d366004615c3b565b613c73565b604080519283526020830191909152016104c0565b348015610a4357600080fd5b50600254610a5890600160a01b900460ff1681565b6040516104c09190616061565b348015610a7157600080fd5b50610455610a80366004615c3b565b613d20565b348015610a9157600080fd5b5061052d60045481565b348015610aa757600080fd5b5061052d600481565b348015610abc57600080fd5b5061057b613d4f565b348015610ad157600080fd5b5061052d60055481565b348015610ae757600080fd5b5061052d610af6366004615c3b565b6000908152600c602052604090205490565b348015610b1457600080fd5b5061052d60035481565b61052d610b2c36600461607b565b613d91565b348015610b3d57600080fd5b50610455610b4c366004615ac4565b61413f565b610455610b5f3660046160c2565b61418b565b348015610b7057600080fd5b5061052d610b7f366004615c3b565b61483c565b348015610b9057600080fd5b506002546104ac906001600160a01b031681565b348015610bb057600080fd5b50610a22610bbf3660046160fc565b6001600160a01b039091166000908152600b602090815260408083206001600160601b0390941683526001840182528083205460029094019091529020549091565b348015610c0d57600080fd5b50610455610c1c366004615c8c565b6148a4565b348015610c2d57600080fd5b50610c41610c3c366004615c3b565b614ba5565b6040516104c093929190616128565b348015610c5c57600080fd5b5061057b610c6b366004615c3b565b614c6d565b348015610c7c57600080fd5b50610772614ca3565b348015610c9157600080fd5b5061052d610ca0366004615c8c565b6000918252600c602090815260408084209284526004909201905290205490565b348015610ccd57600080fd5b50610455610cdc366004615ac4565b614cfb565b348015610ced57600080fd5b5061052d600381565b348015610d0257600080fd5b50610455610d11366004616153565b614d47565b348015610d2257600080fd5b5061052d610d31366004615c3b565b614fbb565b348015610d4257600080fd5b50610d8d610d51366004615c3b565b600d602052600090815260409020805460018201546002909201546001600160a01b03821692600160a01b9092046001600160601b0316919084565b604080516001600160a01b0390951685526001600160601b0390931660208501529183015260608201526080016104c0565b348015610dcb57600080fd5b5061052d610dda366004616171565b614ff0565b348015610deb57600080fd5b50610455610dfa3660046161a6565b615044565b348015610e0b57600080fd5b5060065461052d565b348015610e2057600080fd5b506001546104ac906001600160a01b031681565b348015610e4057600080fd5b5061052d610e4f366004615c3b565b6150f8565b348015610e6057600080fd5b5061057b610e6f366004615e38565b615129565b6000546001600160a01b03163314610ea75760405162461bcd60e51b8152600401610e9e906161dd565b60405180910390fd5b600180546001600160a01b0319166001600160a01b0392909216919091179055565b6000600254600160a01b900460ff166001811115610ee957610ee9615c54565b1415610fe157600354600554610eff9042616235565b1015610f615760405162461bcd60e51b815260206004820152602b60248201527f546865206d696e696d616c207374616b696e672074696d6520686173206e6f7460448201526a081c185cdcd959081e595d60aa1b6064820152608401610e9e565b600954610fc55760405162461bcd60e51b815260206004820152602c60248201527f546865726520617265206e6f2064697370757465206b6974207768696368206e60448201526b65656420667265657a696e6760a01b6064820152608401610e9e565b6002805460ff60a01b1916600160a01b1790554360065561143c565b6000306001600160a01b031663b70c4e946040518163ffffffff1660e01b815260040160206040518083038186803b15801561101c57600080fd5b505afa158015611030573d6000803e3d6000fd5b505050506040513d601f19601f82011682018060405250810190611054919061624c565b60095490915060009061106990600190616269565b90505b6000811261142c57600060098281548110611089576110896162a8565b9060005260206000200154905060006008600984815481106110ad576110ad6162a8565b9060005260206000200154815481106110c8576110c86162a8565b60009182526020909120600260049092020101546001600160a01b031690508380156111625750806001600160a01b031663c86ed8926040518163ffffffff1660e01b815260040160206040518083038186803b15801561112857600080fd5b505afa15801561113c573d6000803e3d6000fd5b505050506040513d601f19601f82011682018060405250810190611160919061624c565b155b1561124c57806001600160a01b0316630b274f2e6040518163ffffffff1660e01b8152600401600060405180830381600087803b1580156111a257600080fd5b505af11580156111b6573d6000803e3d6000fd5b50505050806001600160a01b031663c86ed8926040518163ffffffff1660e01b815260040160206040518083038186803b1580156111f357600080fd5b505afa158015611207573d6000803e3d6000fd5b505050506040513d601f19601f8201168201806040525081019061122b919061624c565b6112475760405162461bcd60e51b8152600401610e9e906162be565b611419565b806001600160a01b031663c86ed8926040518163ffffffff1660e01b815260040160206040518083038186803b15801561128557600080fd5b505afa158015611299573d6000803e3d6000fd5b505050506040513d601f19601f820116820180604052508101906112bd919061624c565b6112d95760405162461bcd60e51b8152600401610e9e906162be565b806001600160a01b031663034327446040518163ffffffff1660e01b815260040160206040518083038186803b15801561131257600080fd5b505afa158015611326573d6000803e3d6000fd5b505050506040513d601f19601f8201168201806040525081019061134a919061630d565b61141957600060088381548110611363576113636162a8565b600091825260209091206002600490920201018054911515600160a01b0260ff60a01b1990921691909117905560095461139f90600190616269565b8312156113f157600980546113b690600190616235565b815481106113c6576113c66162a8565b9060005260206000200154600984815481106113e4576113e46162a8565b6000918252602090912001555b600980548061140257611402616326565b600190038181906000526020600020016000905590555b5050806114259061633c565b905061106c565b50506002805460ff60a01b191690555b426005556002546040517f31f72b44f546d9e7eaec13f65636997665e15f134a81c82924f568f5c0d07b939161147d91600160a01b90910460ff1690616061565b60405180910390a1565b6000546001600160a01b031633146114b15760405162461bcd60e51b8152600401610e9e906161dd565b60006007846001600160601b0316815481106114cf576114cf6162a8565b90600052602060002090600b0201905060005b835181101561177857821561160f576000848281518110611505576115056162a8565b60200260200101511180156115365750600854845185908390811061152c5761152c6162a8565b6020026020010151105b6115735760405162461bcd60e51b815260206004820152600e60248201526d0aee4dedcce40889640d2dcc8caf60931b6044820152606401610e9e565b600182600a01600086848151811061158d5761158d6162a8565b6020026020010151815260200190815260200160002060006101000a81548160ff0219169083151502179055508381815181106115cc576115cc6162a8565b6020026020010151856001600160601b03167fd64105c77264bc0916356e533ac7fe93408b57128cc16819a4079e69369efc5a60405160405180910390a3611766565b6001856001600160601b0316148015611665575060006008858381518110611639576116396162a8565b602002602001015181548110611651576116516162a8565b906000526020600020906004020160000154145b156116ce5760405162461bcd60e51b815260206004820152603360248201527f43616e27742072656d6f766520726f6f7420444b20737570706f72742066726f6044820152721b481d1a194819d95b995c985b0818dbdd5c9d606a1b6064820152608401610e9e565b600082600a0160008684815181106116e8576116e86162a8565b6020026020010151815260200190815260200160002060006101000a81548160ff021916908315150217905550838181518110611727576117276162a8565b6020026020010151856001600160601b03167f73607cee0f079da3d86ea5a962393fde9082aa0137009e4ba163d5dec19b5d2560405160405180910390a35b806117708161635a565b9150506114e2565b5050505050565b6008818154811061178f57600080fd5b60009182526020909120600490910201805460028201546003909201549092506001600160a01b03821691600160a01b900460ff169084565b6000600a82815481106117dd576117dd6162a8565b600091825260208220600490910201805460078054929450916001600160601b03909116908110611810576118106162a8565b6000918252602082206003850154600b90920201925061183290600190616235565b9050600083600301828154811061184b5761184b6162a8565b6000918252602082206007909102019150600185015460ff16600481111561187557611875615c54565b14156119f65760008211806118c757506001840154600684019060ff1660048111156118a3576118a3615c54565b600481106118b3576118b36162a8565b015460028501546118c49042616235565b10155b6119475760405162461bcd60e51b8152602060048201526044602482018190527f5468652065766964656e636520706572696f642074696d6520686173206e6f74908201527f207061737365642079657420616e64206974206973206e6f7420616e2061707060648201526332b0b61760e11b608482015260a401610e9e565b60038101546006820154146119b05760405162461bcd60e51b815260206004820152602960248201527f546865206469737075746520686173206e6f742066696e6973686564206472616044820152683bb4b733903cb2ba1760b91b6064820152608401610e9e565b8254600160601b900460ff166119c75760026119ca565b60015b60018086018054909160ff19909116908360048111156119ec576119ec615c54565b0217905550611e82565b60018085015460ff166004811115611a1057611a10615c54565b1415611b74576001840154600684019060ff166004811115611a3457611a34615c54565b60048110611a4457611a446162a8565b01546002850154611a559042616235565b101580611afe57506008816000015481548110611a7457611a746162a8565b6000918252602090912060049182020160020154604051630baa64d160e01b81529182018790526001600160a01b031690630baa64d19060240160206040518083038186803b158015611ac657600080fd5b505afa158015611ada573d6000803e3d6000fd5b505050506040513d601f19601f82011682018060405250810190611afe919061624c565b611b5d5760405162461bcd60e51b815260206004820152602a60248201527f54686520636f6d6d697420706572696f642074696d6520686173206e6f74207060448201526930b9b9b2b2103cb2ba1760b11b6064820152608401610e9e565b6001808501805460029260ff1990911690836119ec565b6002600185015460ff166004811115611b8f57611b8f615c54565b1415611d2e576001840154600684019060ff166004811115611bb357611bb3615c54565b60048110611bc357611bc36162a8565b01546002850154611bd49042616235565b101580611c7d57506008816000015481548110611bf357611bf36162a8565b60009182526020909120600491820201600201546040516336a66c7560e11b81529182018790526001600160a01b031690636d4cd8ea9060240160206040518083038186803b158015611c4557600080fd5b505afa158015611c59573d6000803e3d6000fd5b505050506040513d601f19601f82011682018060405250810190611c7d919061624c565b611cd95760405162461bcd60e51b815260206004820152602760248201527f54686520766f746520706572696f642074696d6520686173206e6f74207061736044820152661cd959081e595d60ca1b6064820152608401610e9e565b600184018054600360ff199091161790558354604051600160601b9091046001600160a01b03169086907fa5d41b970d849372be1da1481ffd78d162bfe57a7aa2fe4e5fb73481fa5ac24f90600090a3611e82565b6003600185015460ff166004811115611d4957611d49615c54565b1415611e06576001840154600684019060ff166004811115611d6d57611d6d615c54565b60048110611d7d57611d7d6162a8565b01546002850154611d8e9042616235565b1015611def5760405162461bcd60e51b815260206004820152602a60248201527f5468652061707065616c20706572696f642074696d6520686173206e6f74207060448201526930b9b9b2b2103cb2ba1760b11b6064820152608401610e9e565b6001808501805460049260ff1990911690836119ec565b6004600185015460ff166004811115611e2157611e21615c54565b1415611e825760405162461bcd60e51b815260206004820152602a60248201527f546865206469737075746520697320616c726561647920696e20746865206c6160448201526939ba103832b934b7b21760b11b6064820152608401610e9e565b426002850155600184015460405186917f4e6f5cf43b95303e86aee81683df63992061723a829ee012db21dad388756b9191611ec19160ff1690615c7e565b60405180910390a25050505050565b600080600a8381548110611ee657611ee66162a8565b6000918252602082206003600490920201908101805491935090611f0c90600190616235565b81548110611f1c57611f1c6162a8565b600091825260208220845460078054938102909201945090916001600160601b03909116908110611f4f57611f4f6162a8565b90600052602060002090600b02019050806005015482600301541015611f7a57506000949350505050565b80546007805490916001600160601b0316908110611f9a57611f9a6162a8565b6000918252602080832094548352600a600b9092029094010190925250604090205460ff16159392505050565b600080600a8381548110611fdd57611fdd6162a8565b600091825260208220600360049092020190810180549193509061200390600190616235565b81548110612013576120136162a8565b906000526020600020906007020190506000600882600001548154811061203c5761203c6162a8565b6000918252602090912060049182020160020154604051631c3db16d60e01b81529182018790526001600160a01b031691508190631c3db16d9060240160206040518083038186803b15801561209157600080fd5b505afa1580156120a5573d6000803e3d6000fd5b505050506040513d601f19601f820116820180604052508101906120c9919061630d565b95945050505050565b600781815481106120e257600080fd5b60009182526020909120600b9091020180546002820154600383015460048401546005909401546001600160601b0384169550600160601b90930460ff1693919290919086565b6000600a828154811061213e5761213e6162a8565b600091825260209091206001600490920201015460ff1692915050565b6000828152600c6020526040812060020180548390811061217e5761217e6162a8565b906000526020600020015490505b92915050565b6000546001600160a01b031633146121bc5760405162461bcd60e51b8152600401610e9e906161dd565b8660078a6001600160601b0316815481106121d9576121d96162a8565b90600052602060002090600b020160020154111561226f5760405162461bcd60e51b815260206004820152604760248201527f4120737562636f7572742063616e6e6f742062652061206368696c64206f662060448201527f6120737562636f7572742077697468206120686967686572206d696e696d756d6064820152661039ba30b5b29760c91b608482015260a401610e9e565b60008151116122c05760405162461bcd60e51b815260206004820152601c60248201527f4d75737420737570706f7274206174206c65617374206f6e6520444b000000006044820152606401610e9e565b6001600160601b0389166123225760405162461bcd60e51b8152602060048201526024808201527f43616e2774206861766520466f726b696e6720636f75727420617320612070616044820152631c995b9d60e21b6064820152608401610e9e565b60078054600181018255600091825290600b82027fa66cc928b5edb82af9bd49922954155ab7b0942694bea4ce44661d9a8736c68801905b835181101561243f576000848281518110612377576123776162a8565b60200260200101511180156123a85750600854845185908390811061239e5761239e6162a8565b6020026020010151105b6123e55760405162461bcd60e51b815260206004820152600e60248201526d0aee4dedcce40889640d2dcc8caf60931b6044820152606401610e9e565b600182600a0160008684815181106123ff576123ff6162a8565b6020026020010151815260200190815260200160002060006101000a81548160ff02191690831515021790555080806124379061635a565b91505061235a565b5080546bffffffffffffffffffffffff19166001600160601b038c16178155604080516000815260208101918290525161247d916001840191615a01565b50805460ff60601b1916600160601b8b15150217815560028101899055600381018890556004808201889055600582018790556124c09060068301908790615a4c565b5060405163483abc4f60e11b8152600c6004820152602481018390526044810185905273__$52cf47af9c3c0d67e54ac2a3225447effa$__90639075789e9060640160006040518083038186803b15801561251a57600080fd5b505af415801561252e573d6000803e3d6000fd5b5050505060078b6001600160601b03168154811061254e5761254e6162a8565b600091825260208083206001600b909302018201805492830181558352909120018290556040516001600160601b038c169083907ffbf60f92e3c38b643d7205bd6bacfdeb2bfb72f63294a2e646f8d2f18462ee24906125bd908e908e908e908e908e908e908e908e90616375565b60405180910390a35050505050505050505050565b6000600a84815481106125e7576125e76162a8565b600091825260209091206004918202019150600182015460ff16600481111561261257612612615c54565b1461265f5760405162461bcd60e51b815260206004820152601b60248201527f53686f756c6420626520657865637574696f6e20706572696f642e00000000006044820152606401610e9e565b6000816003018481548110612676576126766162a8565b906000526020600020906007020190506000600882600001548154811061269f5761269f6162a8565b60009182526020822060049182020160020154908401546001600160a01b0390911692506126ce9086906163cd565b6005840154600685015460405163368efae360e21b8152600481018b9052602481018a905292935090916000906001600160a01b0386169063da3beb8c9060440160206040518083038186803b15801561272757600080fd5b505afa15801561273b573d6000803e3d6000fd5b505050506040513d601f19601f8201168201806040525081019061275f919061630d565b90506000808261277a5783861115612775578395505b61279a565b6127858460026163e5565b86111561279a576127978460026163e5565b95505b60048801545b86811015612e635784811015612bd857604051634fe264fb60e01b8152600481018e9052602481018d9052604481018290526001600160a01b03891690634fe264fb9060640160206040518083038186803b1580156127fe57600080fd5b505afa158015612812573d6000803e3d6000fd5b505050506040513d601f19601f82011682018060405250810190612836919061630d565b91506127108211156128485761271091505b60006127106128578482616235565b8b6001015461286691906163e5565b612870919061641a565b905061287c81886163cd565b9650896006018281548110612893576128936162a8565b60009182526020808320909101546001600160a01b0316808352600b825260408084208f546001600160601b031685526002019092529082208054919650839290916128e0908490616235565b90915550508a546007805483926001600160601b0316908110612905576129056162a8565b90600052602060002090600b02016002015461292191906163cd565b6001600160a01b0385166000908152600b602090815260408083208f546001600160601b03168452600101909152902054106129b5576001600160a01b0384166000908152600b602090815260408083208e546001600160601b03168452600101909152812054612993908390616235565b8c549091506129ae9086906001600160601b03168385615171565b5050612a06565b6001600160a01b0384166000908152600b602090815260408083208e546001600160601b0316845260010190915290205415612a06578a54612a049085906001600160601b0316600084615171565b505b60405163ba66fde760e01b8152600481018f9052602481018e9052604481018390526001600160a01b038a169063ba66fde79060640160206040518083038186803b158015612a5457600080fd5b505afa158015612a68573d6000803e3d6000fd5b505050506040513d601f19601f82011682018060405250810190612a8c919061624c565b612b295760005b6001600160a01b0385166000908152600b6020526040902054811015612b27576001600160a01b0385166000908152600b602052604090208054612b1491879184908110612ae357612ae36162a8565b9060005260206000209060029182820401919006600c029054906101000a90046001600160601b0316600080615171565b5080612b1f8161635a565b915050612a93565b505b8d6001600160a01b0385167f24f45c2b08bbde8c837d70b67991ccb7660537cf749de21a940ae4858b681e19612b5e8461642e565b60408051918252600060208301520160405180910390a3612b80600187616235565b821415612bd25784612bd2576000805460028c01546040516001600160a01b039092169281156108fc029290818181858888f15050600054612bd093506001600160a01b0316915089905061578b565b505b50612e51565b6001600160a01b038816634fe264fb8e8e612bf3898661644b565b6040516001600160e01b031960e086901b16815260048101939093526024830191909152604482015260640160206040518083038186803b158015612c3757600080fd5b505afa158015612c4b573d6000803e3d6000fd5b505050506040513d601f19601f82011682018060405250810190612c6f919061630d565b9150612710821115612c815761271091505b60068901612c8f868361644b565b81548110612c9f57612c9f6162a8565b60009182526020909120015460018a01546001600160a01b03909116935061271090612ccc9084906163e5565b612cd6919061641a565b6001600160a01b0384166000908152600b602090815260408083208e546001600160601b0316845260020190915281208054909190612d16908490616235565b90915550506001600160a01b0383166000908152600b602090815260408083208d546001600160601b03168452600101909152902054612d7e576000612710838b60010154612d6591906163e5565b612d6f919061641a565b9050612d7b848261578b565b50505b600061271083612d8e878a61641a565b612d9891906163e5565b612da2919061641a565b9050600061271084878d60020154612dba919061641a565b612dc491906163e5565b612dce919061641a565b9050612dda858361578b565b506040516001600160a01b0386169082156108fc029083906000818181858888f19350505050508e856001600160a01b03167f24f45c2b08bbde8c837d70b67991ccb7660537cf749de21a940ae4858b681e198484604051612e46929190918252602082015260400190565b60405180910390a350505b80612e5b8161635a565b9150506127a0565b5084886005015414612e7757600588018590555b50505050600490930155505050505050565b6000600254600160a01b900460ff166001811115612ea957612ea9615c54565b14612ef65760405162461bcd60e51b815260206004820152601b60248201527f53686f756c6420626520696e205374616b696e672070686173652e00000000006044820152606401610e9e565b6000600e54600183600f54612f0b91906163cd565b612f159190616235565b11612f205781612f3b565b600f54600e54612f309190616235565b612f3b9060016163cd565b9050600081600f54612f4d91906163cd565b600f549091505b81811015612fcc576000818152600d60205260409020805460018201546002830154612f9c926001600160a01b03811692600160a01b9091046001600160601b031691615171565b50506000818152600d60205260408120818155600181018290556002015580612fc48161635a565b915050612f54565b50600f555050565b612fdc615a79565b60006007836001600160601b031681548110612ffa57612ffa6162a8565b60009182526020909120604080516080810191829052600b9093029091019250600683019060049082845b815481526020019060010190808311613025575050505050915050919050565b6000546001600160a01b0316331461306f5760405162461bcd60e51b8152600401610e9e906161dd565b6001826001600160601b031614806130e2575080600780846001600160601b0316815481106130a0576130a06162a8565b60009182526020909120600b909102015481546001600160601b039091169081106130cd576130cd6162a8565b90600052602060002090600b02016002015411155b6130eb57600080fd5b60005b6007836001600160601b03168154811061310a5761310a6162a8565b90600052602060002090600b02016001018054905081101561322b5781600780856001600160601b031681548110613144576131446162a8565b90600052602060002090600b02016001018381548110613166576131666162a8565b906000526020600020015481548110613181576131816162a8565b90600052602060002090600b02016002015410156132195760405162461bcd60e51b815260206004820152604960248201527f4120737562636f7572742063616e6e6f742062652074686520706172656e742060448201527f6f66206120737562636f75727420776974682061206c6f776572206d696e696d6064820152683ab69039ba30b5b29760b91b608482015260a401610e9e565b806132238161635a565b9150506130ee565b50806007836001600160601b031681548110613249576132496162a8565b90600052602060002090600b020160020181905550816001600160601b03166000805160206165338339815191526040516132a0906020808252600890820152676d696e5374616b6560c01b604082015260600190565b60405180910390a25050565b6060600882815481106132c1576132c16162a8565b906000526020600020906004020160010180548060200260200160405190810160405280929190818152602001828054801561331c57602002820191906000526020600020905b815481526020019060010190808311613308575b50505050509050919050565b6000600a828154811061333d5761333d6162a8565b6000918252602090912060049091020160010154610100900460ff1692915050565b600a818154811061336f57600080fd5b60009182526020909120600490910201805460018201546002909201546001600160601b0382169350600160601b9091046001600160a01b03169160ff80821692610100909204169085565b6000546001600160a01b031633146133e55760405162461bcd60e51b8152600401610e9e906161dd565b806007836001600160601b031681548110613402576134026162a8565b90600052602060002090600b0201600601906004613421929190615a4c565b50816001600160601b03166000805160206165338339815191526040516132a0906020808252600e908201526d1d1a5b595cd4195c94195c9a5bd960921b604082015260600190565b6000546001600160a01b031633146134945760405162461bcd60e51b8152600401610e9e906161dd565b806007836001600160601b0316815481106134b1576134b16162a8565b90600052602060002090600b020160040181905550816001600160601b03166000805160206165338339815191526040516132a0906020808252600b908201526a3332b2a337b9253ab937b960a91b604082015260600190565b600080600a8381548110613521576135216162a8565b600091825260208220600360049092020190810180549193509061354790600190616235565b81548110613557576135576162a8565b600091825260208220845460078054938102909201945090916001600160601b0390911690811061358a5761358a6162a8565b90600052602060002090600b0201905080600501548260030154106136295782546001600160601b0316600114156135cb576001600160ff1b039350613653565b60038201546135db9060026163e5565b6135e69060016163cd565b81546007805490916001600160601b0316908110613606576136066162a8565b90600052602060002090600b02016004015461362291906163e5565b9350613653565b60038201546136399060026163e5565b6136449060016163cd565b81600401546120c991906163e5565b505050919050565b6000546001600160a01b031633146136855760405162461bcd60e51b8152600401610e9e906161dd565b806007836001600160601b0316815481106136a2576136a26162a8565b90600052602060002090600b020160030181905550816001600160601b03166000805160206165338339815191526040516132a090602080825260059082015264616c70686160d81b604082015260600190565b6000546001600160a01b031633146137205760405162461bcd60e51b8152600401610e9e906161dd565b6000836001600160a01b0316838360405161373b919061648b565b60006040518083038185875af1925050503d8060008114613778576040519150601f19603f3d011682016040523d82523d6000602084013e61377d565b606091505b50509050806137c25760405162461bcd60e51b8152602060048201526011602482015270155b9cdd58d8d95cdcd99d5b0818d85b1b607a1b6044820152606401610e9e565b50505050565b6137d53383836000615171565b6138125760405162461bcd60e51b815260206004820152600e60248201526d14dd185ada5b99c819985a5b195960921b6044820152606401610e9e565b5050565b6000546001600160a01b031633146138405760405162461bcd60e51b8152600401610e9e906161dd565b600355565b6000806000806060600080600a8981548110613863576138636162a8565b90600052602060002090600402019050600081600301898154811061388a5761388a6162a8565b9060005260206000209060070201905080600101548160020154826004015483600501548460060185600001548180548060200260200160405190810160405280929190818152602001828054801561390c57602002820191906000526020600020905b81546001600160a01b031681526001909101906020018083116138ee575b5050505050915097509750975097509750975050509295509295509295565b6000600a8281548110613940576139406162a8565b600091825260209091206004918202019150600182015460ff16600481111561396b5761396b615c54565b146139b85760405162461bcd60e51b815260206004820152601b60248201527f53686f756c6420626520657865637574696f6e20706572696f642e00000000006044820152606401610e9e565b6001810154610100900460ff1615613a125760405162461bcd60e51b815260206004820152601860248201527f52756c696e6720616c72656164792065786563757465642e00000000000000006044820152606401610e9e565b6000613a1d83611fc7565b60018301805461ff001916610100179055825460405163188d362b60e11b815260048101869052602481018390529192506001600160a01b03600160601b909104169063311a6c5690604401600060405180830381600087803b158015613a8357600080fd5b505af1158015613a97573d6000803e3d6000fd5b50505050505050565b60098181548110613ab057600080fd5b600091825260209091200154905081565b6000806000600a8481548110613ad957613ad96162a8565b6000918252602082206003600490920201908101805491935090613aff90600190616235565b81548110613b0f57613b0f6162a8565b906000526020600020906007020190506008816000015481548110613b3657613b366162a8565b6000918252602090912060049182020160020154604051639b05c26160e01b81529182018790526001600160a01b031690639b05c26190602401604080518083038186803b158015613b8757600080fd5b505afa158015613b9b573d6000803e3d6000fd5b505050506040513d601f19601f82011682018060405250810190613bbf91906164a7565b90969095509350505050565b6000546001600160a01b03163314613bf55760405162461bcd60e51b8152600401610e9e906161dd565b806007836001600160601b031681548110613c1257613c126162a8565b90600052602060002090600b020160050181905550816001600160601b03166000805160206165338339815191526040516132a09060208082526012908201527106a75726f7273466f72436f7572744a756d760741b604082015260600190565b6000806000600a8481548110613c8b57613c8b6162a8565b6000918252602090912060049091020190506003600182015460ff166004811115613cb857613cb8615c54565b1415613d11576002810154815460078054929550916001600160601b03909116908110613ce757613ce76162a8565b600091825260209091206009600b9092020101546002820154613d0a91906163cd565b9150613d1a565b60009250600091505b50915091565b6000546001600160a01b03163314613d4a5760405162461bcd60e51b8152600401610e9e906161dd565b600455565b60006001600254600160a01b900460ff166001811115613d7157613d71615c54565b148015613d8c5750600454600554613d899042616235565b10155b905090565b6000613d9c82614ff0565b341015613dfd5760405162461bcd60e51b815260206004820152602960248201527f4e6f7420656e6f7567682045544820746f20636f76657220617262697472617460448201526834b7b71031b7b9ba1760b91b6064820152608401610e9e565b600080613e0984615857565b92505091506007826001600160601b031681548110613e2a57613e2a6162a8565b60009182526020808320848452600a600b90930201919091019052604090205460ff16613eb35760405162461bcd60e51b815260206004820152603160248201527f5468652064697370757465206b6974206973206e6f7420737570706f7274656460448201527008189e481d1a1a5cc81cdd5898dbdd5c9d607a1b6064820152608401610e9e565b600a80546001810182556000918252600160601b33026001600160601b03851617600482027fc65a7bb8d6351c1cf70c95a316cc6a92839c986682d98bc35f958f4883f9d2a88101918255427fc65a7bb8d6351c1cf70c95a316cc6a92839c986682d98bc35f958f4883f9d2aa909101556008805492965090929184908110613f3e57613f3e6162a8565b600091825260208220600260049092020101548354600780546001600160a01b039093169450916001600160601b03909116908110613f7f57613f7f6162a8565b60009182526020808320600387018054600181018255908552919093206004600b9093029093019182015491935060070290910190613fbe903461641a565b600380830191909155858255820154600283015461271091613fdf916163e5565b613fe9919061641a565b60018201553460028201556008805486908110614008576140086162a8565b906000526020600020906004020160020160149054906101000a900460ff1661409f57600160088681548110614040576140406162a8565b6000918252602082206002600490920201018054921515600160a01b0260ff60a01b19909316929092179091556009805460018101825591527f6e1540171b6c0c960b71a7020d9f60077f6af931a8bbf590da0223dacf75c7af018590555b60038101546040516302dbb79560e61b81526001600160a01b0385169163b6ede540916140d4918b918e918e916004016164cc565b600060405180830381600087803b1580156140ee57600080fd5b505af1158015614102573d6000803e3d6000fd5b50506040513392508991507f141dfc18aa6a56fc816f44f0e9e2f1ebc92b15ab167770e17db5b084c10ed99590600090a350505050505092915050565b6000546001600160a01b031633146141695760405162461bcd60e51b8152600401610e9e906161dd565b600280546001600160a01b0319166001600160a01b0392909216919091179055565b6141948361350b565b3410156141ef5760405162461bcd60e51b8152602060048201526024808201527f4e6f7420656e6f7567682045544820746f20636f7665722061707065616c206360448201526337b9ba1760e11b6064820152608401610e9e565b6000600a8481548110614204576142046162a8565b6000918252602090912060049091020190506003600182015460ff16600481111561423157614231615c54565b1461427e5760405162461bcd60e51b815260206004820152601a60248201527f44697370757465206973206e6f742061707065616c61626c652e0000000000006044820152606401610e9e565b6003810180546000919061429490600190616235565b815481106142a4576142a46162a8565b9060005260206000209060070201905060088160000154815481106142cb576142cb6162a8565b60009182526020909120600490910201600201546001600160a01b031633146143445760405162461bcd60e51b815260206004820152602560248201527f416363657373206e6f7420616c6c6f7765643a2044697370757465204b69742060448201526437b7363c9760d91b6064820152608401610e9e565b8154815460038401805460018101825560009182526020909120600780546001600160601b03909516949281029091019183908110614385576143856162a8565b90600052602060002090600b020160050154846003015410614589576007836001600160601b0316815481106143bd576143bd6162a8565b600091825260208220600b90910201546001600160601b031693505b600a8110156144ce576007846001600160601b0316815481106143fe576143fe6162a8565b60009182526020808320868452600a600b90930201919091019052604090205460ff161561442b576144ce565b600060088481548110614440576144406162a8565b90600052602060002090600402016000015414614483576008838154811061446a5761446a6162a8565b90600052602060002090600402016000015492506144bc565b6007846001600160601b03168154811061449f5761449f6162a8565b60009182526020909120600b90910201546001600160601b031693505b806144c68161635a565b9150506143d9565b506007836001600160601b0316815481106144eb576144eb6162a8565b60009182526020808320858452600a600b90930201919091019052604090205460ff1661451757600192505b84546001600160601b0384811691161461458957845460038601546001600160601b039091169061454a90600190616235565b6040516001600160601b03861681528a907f736e3f52761298c8c0823e1ebf482ed3c5ecb304f743d2d91a7c006e8e8d7a1f9060200160405180910390a45b84546bffffffffffffffffffffffff19166001600160601b038416908117865560018601805460ff19169055426002870155600780546000929081106145d1576145d16162a8565b90600052602060002090600b020190508060040154346145f1919061641a565b82600301819055506127108160030154826002015461461091906163e5565b61461a919061641a565b6001830155346002830155828255600880548490811061463c5761463c6162a8565b906000526020600020906004020160020160149054906101000a900460ff166146d357600160088481548110614674576146746162a8565b6000918252602082206002600490920201018054921515600160a01b0260ff60a01b19909316929092179091556009805460018101825591527f6e1540171b6c0c960b71a7020d9f60077f6af931a8bbf590da0223dacf75c7af018390555b84548254146147b957845460038701546146ef90600190616235565b83546040519081528b907fcbe7939a71f0b369c7471d760a0a99b60b7bb010ee0406cba8a46679d1ea77569060200160405180910390a4600882600001548154811061473d5761473d6162a8565b600091825260209091206004918202016002015460038401546040516302dbb79560e61b81526001600160a01b039092169263b6ede54092614786928e928e928e9291016164cc565b600060405180830381600087803b1580156147a057600080fd5b505af11580156147b4573d6000803e3d6000fd5b505050505b8554604051600160601b9091046001600160a01b0316908a907f9c9b64db9e130f48381bf697abf638e73117dbfbfd7a4484f2da3ba188f4187d90600090a3887f4e6f5cf43b95303e86aee81683df63992061723a829ee012db21dad388756b9160006040516148299190615c7e565b60405180910390a2505050505050505050565b600080600a8381548110614852576148526162a8565b90600052602060002090600402019050806003016001826003018054905061487a9190616235565b8154811061488a5761488a6162a8565b906000526020600020906007020160030154915050919050565b6001600254600160a01b900460ff1660018111156148c4576148c4615c54565b146149005760405162461bcd60e51b815260206004820152600c60248201526b2bb937b73390383430b9b29760a11b6044820152606401610e9e565b6000600a8381548110614915576149156162a8565b9060005260206000209060040201905060006001826003018054905061493b9190616235565b90506000826003018281548110614954576149546162a8565b6000918252602082206007909102019150600184015460ff16600481111561497e5761497e615c54565b146149cb5760405162461bcd60e51b815260206004820152601a60248201527f53686f756c642062652065766964656e636520706572696f642e0000000000006044820152606401610e9e565b600060088260000154815481106149e4576149e46162a8565b60009182526020822060026004909202010154600684015460038501546001600160a01b0390921693509190614a1a88846163cd565b1115614a2a578360030154614a34565b614a3487836163cd565b9050815b81811015614b9a57604051633b30414760e01b8152600481018a90526000906001600160a01b03861690633b30414790602401602060405180830381600087803b158015614a8557600080fd5b505af1158015614a99573d6000803e3d6000fd5b505050506040513d601f19601f82011682018060405250810190614abd9190616515565b90506001600160a01b03811615614b875760018601546001600160a01b0382166000908152600b602090815260408083208c546001600160601b0316845260020190915281208054909190614b139084906163cd565b909155505060068601805460018101825560009182526020918290200180546001600160a01b0319166001600160a01b038416908117909155604080518a81529283018590528c927f6119cf536152c11e0a9a6c22f3953ce4ecc93ee54fa72ffa326ffabded21509b910160405180910390a35b5080614b928161635a565b915050614a38565b505050505050505050565b6000818152600c60209081526040918290208054600182018054855181860281018601909652808652919460609485949391929190830182828015614c0957602002820191906000526020600020905b815481526020019060010190808311614bf5575b5050505050925080600201805480602002602001604051908101604052809291908181526020018280548015614c5e57602002820191906000526020600020905b815481526020019060010190808311614c4a575b50505050509150509193909250565b600060078281548110614c8257614c826162a8565b60009182526020909120600b9091020154600160601b900460ff1692915050565b60606009805480602002602001604051908101604052809291908181526020018280548015614cf157602002820191906000526020600020905b815481526020019060010190808311614cdd575b5050505050905090565b6000546001600160a01b03163314614d255760405162461bcd60e51b8152600401610e9e906161dd565b600080546001600160a01b0319166001600160a01b0392909216919091179055565b6000546001600160a01b03163314614d715760405162461bcd60e51b8152600401610e9e906161dd565b600854808210614dba5760405162461bcd60e51b815260206004820152601460248201527314185c995b9d08191bd95cdb89dd08195e1a5cdd60621b6044820152606401610e9e565b600082614e0a5760016007600181548110614dd757614dd76162a8565b60009182526020808320868452600b92909202909101600a01905260409020805460ff1916911515919091179055614e85565b60088381548110614e1d57614e1d6162a8565b9060005260206000209060040201600301546001614e3b91906163cd565b9050600a8110614e855760405162461bcd60e51b8152602060048201526015602482015274088cae0e8d040d8caeccad840d2e640c2e840dac2f605b1b6044820152606401610e9e565b6040805160a08101825284815281516000808252602080830185528084019283526001600160a01b038916948401949094526060830181905260808301859052600880546001810182559152825160049091027ff3f7a9fe364faab93b216da50a3214154f22a0a2b415b23a84c8169e8b636ee381019182559151805193949193614f37937ff3f7a9fe364faab93b216da50a3214154f22a0a2b415b23a84c8169e8b636ee401929190910190615a01565b50604082015160028201805460608501511515600160a01b026001600160a81b03199091166001600160a01b03909316929092179190911790556080909101516003909101556008805484908110614f9157614f916162a8565b60009182526020808320600160049093020182018054928301815583529091200191909155505050565b6000600a8281548110614fd057614fd06162a8565b60009182526020909120600490910201546001600160601b031692915050565b6000806000614ffe84615857565b5091509150806007836001600160601b031681548110615020576150206162a8565b90600052602060002090600b02016004015461503c91906163e5565b949350505050565b6000546001600160a01b0316331461506e5760405162461bcd60e51b8152600401610e9e906161dd565b806007836001600160601b03168154811061508b5761508b6162a8565b90600052602060002090600b0201600001600c6101000a81548160ff021916908315150217905550816001600160601b03166000805160206165338339815191526040516132a0906020808252600b908201526a68696464656e566f74657360a81b604082015260600190565b600080600a838154811061510e5761510e6162a8565b60009182526020909120600360049092020101549392505050565b60006007836001600160601b031681548110615147576151476162a8565b60009182526020808320948352600b91909102909301600a0190925250604090205460ff16919050565b60006001600160601b038416158061519357506007546001600160601b038516115b156151a05750600061503c565b6001600160a01b0385166000908152600b60205260408120906151c387876158db565b604051637521ccb160e01b8152600c60048201526001600160601b03881660248201526044810182905290915060009073__$52cf47af9c3c0d67e54ac2a3225447effa$__90637521ccb19060640160206040518083038186803b15801561522a57600080fd5b505af415801561523e573d6000803e3d6000fd5b505050506040513d601f19601f82011682018060405250810190615262919061630d565b905085156152f0576007876001600160601b031681548110615286576152866162a8565b90600052602060002090600b0201600201548610806152be57506001600160601b038716600090815260028401602052604090205486105b156152cf576000935050505061503c565b801580156152df57508254600411155b156152f0576000935050505061503c565b6000600254600160a01b900460ff16600181111561531057615310615c54565b146153bc576040518060800160405280896001600160a01b03168152602001886001600160601b0316815260200187815260200186815250600d6000600e6000815461535b9061635a565b9182905550815260208082019290925260409081016000208351928401516001600160601b0316600160a01b026001600160a01b03909316929092178255820151600180830191909155606090920151600290910155935061503c92505050565b6000818710615439576153cf8288616235565b90508015615427576153e2893083615923565b1561542c5781615427578354600180820186556000868152602090206002830401805491909216600c026101000a6001600160601b0381810219909216918b16021790555b61560e565b600094505050505061503c565b866155d6576001600160601b038816600090815260028501602052604090205486906154659084616235565b61546f9190616235565b9050801561542757615481898261578b565b1561542c5760005b84548110156155d057886001600160601b03168560000182815481106154b1576154b16162a8565b600091825260209091206002820401546001909116600c026101000a90046001600160601b031614156155be57845485906154ee90600190616235565b815481106154fe576154fe6162a8565b9060005260206000209060029182820401919006600c029054906101000a90046001600160601b031685600001828154811061553c5761553c6162a8565b9060005260206000209060029182820401919006600c026101000a8154816001600160601b0302191690836001600160601b031602179055508460000180548061558857615588616326565b60008281526020902060026000199092019182040180546001600160601b03600c60018516026101000a021916905590556155d0565b806155c88161635a565b915050615489565b5061560e565b856155e18884616235565b6155eb9190616235565b9050801561560e576155fd898261578b565b61560e57600094505050505061503c565b6001600160601b03881660009081526001850160205260408120548890615636908590616235565b61564091906163cd565b6001600160601b038a16600081815260018801602052604081208390559192505b8161572457604051631712e1c560e11b8152600c600482015260248101829052604481018b90526064810187905273__$52cf47af9c3c0d67e54ac2a3225447effa$__90632e25c38a9060840160006040518083038186803b1580156156c657600080fd5b505af41580156156da573d6000803e3d6000fd5b5050505060018114156156f05760019150615661565b60078181548110615703576157036162a8565b60009182526020909120600b90910201546001600160601b03169050615661565b604080516001600160601b038d168152602081018c90529081018490526001600160a01b038d16907f70ca4ec64687bf265f39041896f3dbf10b9f650503cb38f2b3569fdce7489c369060600160405180910390a25060019b9a5050505050505050505050565b600154604080516001600160a01b038581166024830152604480830186905283518084039091018152606490920183526020820180516001600160e01b031663a9059cbb60e01b1790529151600093849384939116916157eb919061648b565b6000604051808303816000865af19150503d8060008114615828576040519150601f19603f3d011682016040523d82523d6000602084013e61582d565b606091505b50915091508180156120c95750805115806120c95750808060200190518101906120c9919061624c565b600080600060408451106158c9575050506020810151604082015160608301516001600160601b038316158061589857506007546001600160601b03841610155b156158a257600192505b816158ac57600391505b8015806158bb57506008548110155b156158c4575060015b6158d4565b506001915060039050815b9193909250565b600060405160005b60148110156158fe578481600c011a818301536001016158e3565b5060145b602081101561591a5783811a81830153600101615902565b50519392505050565b600154604080516001600160a01b0386811660248301528581166044830152606480830186905283518084039091018152608490920183526020820180516001600160e01b03166323b872dd60e01b17905291516000938493849391169161598b919061648b565b6000604051808303816000865af19150503d80600081146159c8576040519150601f19603f3d011682016040523d82523d6000602084013e6159cd565b606091505b50915091508180156159f75750805115806159f75750808060200190518101906159f7919061624c565b9695505050505050565b828054828255906000526020600020908101928215615a3c579160200282015b82811115615a3c578251825591602001919060010190615a21565b50615a48929150615a97565b5090565b8260048101928215615a3c5791602002820182811115615a3c578251825591602001919060010190615a21565b60405180608001604052806004906020820280368337509192915050565b5b80821115615a485760008155600101615a98565b6001600160a01b0381168114615ac157600080fd5b50565b600060208284031215615ad657600080fd5b8135615ae181615aac565b9392505050565b80356001600160601b0381168114615aff57600080fd5b919050565b634e487b7160e01b600052604160045260246000fd5b604051601f8201601f1916810167ffffffffffffffff81118282101715615b4357615b43615b04565b604052919050565b600082601f830112615b5c57600080fd5b8135602067ffffffffffffffff821115615b7857615b78615b04565b8160051b615b87828201615b1a565b9283528481018201928281019087851115615ba157600080fd5b83870192505b84831015615bc057823582529183019190830190615ba7565b979650505050505050565b8015158114615ac157600080fd5b600080600060608486031215615bee57600080fd5b615bf784615ae8565b9250602084013567ffffffffffffffff811115615c1357600080fd5b615c1f86828701615b4b565b9250506040840135615c3081615bcb565b809150509250925092565b600060208284031215615c4d57600080fd5b5035919050565b634e487b7160e01b600052602160045260246000fd5b60058110615c7a57615c7a615c54565b9052565b6020810161218c8284615c6a565b60008060408385031215615c9f57600080fd5b50508035926020909101359150565b600082601f830112615cbf57600080fd5b6040516080810181811067ffffffffffffffff82111715615ce257615ce2615b04565b604052806080840185811115615cf757600080fd5b845b81811015615d11578035835260209283019201615cf9565b509195945050505050565b60008060008060008060008060006101808a8c031215615d3b57600080fd5b615d448a615ae8565b985060208a0135615d5481615bcb565b975060408a0135965060608a0135955060808a0135945060a08a01359350615d7f8b60c08c01615cae565b92506101408a013591506101608a013567ffffffffffffffff811115615da457600080fd5b615db08c828d01615b4b565b9150509295985092959850929598565b600080600060608486031215615dd557600080fd5b505081359360208301359350604090920135919050565b600060208284031215615dfe57600080fd5b615ae182615ae8565b8060005b60048110156137c2578151845260209384019390910190600101615e0b565b6080810161218c8284615e07565b60008060408385031215615e4b57600080fd5b615e5483615ae8565b946020939093013593505050565b600081518084526020808501945080840160005b83811015615e9257815187529582019590820190600101615e76565b509495945050505050565b602081526000615ae16020830184615e62565b6001600160601b03861681526001600160a01b038516602082015260a08101615edc6040830186615c6a565b9215156060820152608001529392505050565b60008060a08385031215615f0257600080fd5b615f0b83615ae8565b9150615f1a8460208501615cae565b90509250929050565b600082601f830112615f3457600080fd5b813567ffffffffffffffff811115615f4e57615f4e615b04565b615f61601f8201601f1916602001615b1a565b818152846020838601011115615f7657600080fd5b816020850160208301376000918101602001919091529392505050565b600080600060608486031215615fa857600080fd5b8335615fb381615aac565b925060208401359150604084013567ffffffffffffffff811115615fd657600080fd5b615fe286828701615f23565b9150509250925092565b600060c082018883526020888185015287604085015286606085015260c0608085015281865180845260e086019150828801935060005b818110156160485784516001600160a01b031683529383019391830191600101616023565b50508093505050508260a0830152979650505050505050565b602081016002831061607557616075615c54565b91905290565b6000806040838503121561608e57600080fd5b82359150602083013567ffffffffffffffff8111156160ac57600080fd5b6160b885828601615f23565b9150509250929050565b6000806000606084860312156160d757600080fd5b8335925060208401359150604084013567ffffffffffffffff811115615fd657600080fd5b6000806040838503121561610f57600080fd5b823561611a81615aac565b9150615f1a60208401615ae8565b8381526060602082015260006161416060830185615e62565b82810360408401526159f78185615e62565b6000806040838503121561616657600080fd5b8235615e5481615aac565b60006020828403121561618357600080fd5b813567ffffffffffffffff81111561619a57600080fd5b61503c84828501615f23565b600080604083850312156161b957600080fd5b6161c283615ae8565b915060208301356161d281615bcb565b809150509250929050565b60208082526022908201527f416363657373206e6f7420616c6c6f7765643a20476f7665726e6f72206f6e6c6040820152613c9760f11b606082015260800190565b634e487b7160e01b600052601160045260246000fd5b6000828210156162475761624761621f565b500390565b60006020828403121561625e57600080fd5b8151615ae181615bcb565b60008083128015600160ff1b8501841216156162875761628761621f565b6001600160ff1b03840183138116156162a2576162a261621f565b50500390565b634e487b7160e01b600052603260045260246000fd5b6020808252602f908201527f412064697370757465206b697420686173206e6f742070617373656420746f2060408201526e5265736f6c76696e6720706861736560881b606082015260800190565b60006020828403121561631f57600080fd5b5051919050565b634e487b7160e01b600052603160045260246000fd5b6000600160ff1b8214156163525761635261621f565b506000190190565b600060001982141561636e5761636e61621f565b5060010190565b60006101608a151583528960208401528860408401528760608401528660808401526163a460a0840187615e07565b84610120840152806101408401526163be81840185615e62565b9b9a5050505050505050505050565b600082198211156163e0576163e061621f565b500190565b60008160001904831182151516156163ff576163ff61621f565b500290565b634e487b7160e01b600052601260045260246000fd5b60008261642957616429616404565b500490565b6000600160ff1b8214156164445761644461621f565b5060000390565b60008261645a5761645a616404565b500690565b60005b8381101561647a578181015183820152602001616462565b838111156137c25750506000910152565b6000825161649d81846020870161645f565b9190910192915050565b600080604083850312156164ba57600080fd5b8251915060208301516161d281615bcb565b84815283602082015260806040820152600083518060808401526164f78160a085016020880161645f565b606083019390935250601f91909101601f19160160a0019392505050565b60006020828403121561652757600080fd5b8151615ae181615aac56fe8f4ab3272f699ef825c5008ac66b1b213bfab7b8f730599d1deeaf4e048dc922a264697066735822122074bec8c99f0d37eab91640b145df87385a966b1495ccf21b84e1b6403133415764736f6c63430008090033",
  "libraries": {
    "SortitionSumTreeFactory": "0x48ce286978C74c288eA6Bc9a536BcC899DF8D177"
  },
  "devdoc": {
    "kind": "dev",
    "methods": {
      "addNewDisputeKit(address,uint256)": {
        "details": "Add a new supported dispute kit module to the court.",
        "params": {
          "_disputeKitAddress": "The address of the dispute kit contract.",
          "_parent": "The ID of the parent dispute kit. It is left empty when root DK is created.  Note that the root DK must be supported by the general court."
        }
      },
      "appeal(uint256,uint256,bytes)": {
        "details": "Appeals the ruling of a specified dispute.  Note: Access restricted to the Dispute Kit for this `disputeID`.",
        "params": {
          "_disputeID": "The ID of the dispute.",
          "_extraData": "Extradata for the dispute. Can be required during court jump.",
          "_numberOfChoices": "Number of choices for the dispute. Can be required during court jump."
        }
      },
      "appealCost(uint256)": {
        "details": "Gets the cost of appealing a specified dispute.",
        "params": {
          "_disputeID": "The ID of the dispute."
        },
        "returns": {
          "cost": "The appeal cost."
        }
      },
      "appealPeriod(uint256)": {
        "details": "Gets the start and the end of a specified dispute's current appeal period.",
        "params": {
          "_disputeID": "The ID of the dispute."
        },
        "returns": {
          "end": "The end of the appeal period.",
          "start": "The start of the appeal period."
        }
      },
      "arbitrationCost(bytes)": {
        "details": "Gets the cost of arbitration in a specified subcourt.",
        "params": {
          "_extraData": "Additional info about the dispute. We use it to pass the ID of the subcourt to create the dispute in (first 32 bytes)  and the minimum number of jurors required (next 32 bytes)."
        },
        "returns": {
          "cost": "The arbitration cost."
        }
      },
      "changeGovernor(address)": {
        "details": "Changes the `governor` storage variable.",
        "params": {
          "_governor": "The new value for the `governor` storage variable."
        }
      },
      "changeHiddenVotes(uint96,bool)": {
        "details": "Changes the `hiddenVotes` property value of a specified subcourt.",
        "params": {
          "_hiddenVotes": "The new value for the `hiddenVotes` property value.",
          "_subcourtID": "The ID of the subcourt."
        }
      },
      "changeJurorProsecutionModule(address)": {
        "details": "Changes the `jurorProsecutionModule` storage variable.",
        "params": {
          "_jurorProsecutionModule": "The new value for the `jurorProsecutionModule` storage variable."
        }
      },
      "changeMaxFreezingTime(uint256)": {
        "details": "Changes the `maxFreezingTime` storage variable.",
        "params": {
          "_maxFreezingTime": "The new value for the `maxFreezingTime` storage variable."
        }
      },
      "changeMinStakingTime(uint256)": {
        "details": "Changes the `minStakingTime` storage variable.",
        "params": {
          "_minStakingTime": "The new value for the `minStakingTime` storage variable."
        }
      },
      "changePinakion(address)": {
        "details": "Changes the `pinakion` storage variable.",
        "params": {
          "_pinakion": "The new value for the `pinakion` storage variable."
        }
      },
      "changeSubcourtAlpha(uint96,uint256)": {
        "details": "Changes the `alpha` property value of a specified subcourt.",
        "params": {
          "_alpha": "The new value for the `alpha` property value.",
          "_subcourtID": "The ID of the subcourt."
        }
      },
      "changeSubcourtJurorFee(uint96,uint256)": {
        "details": "Changes the `feeForJuror` property value of a specified subcourt.",
        "params": {
          "_feeForJuror": "The new value for the `feeForJuror` property value.",
          "_subcourtID": "The ID of the subcourt."
        }
      },
      "changeSubcourtJurorsForJump(uint96,uint256)": {
        "details": "Changes the `jurorsForCourtJump` property value of a specified subcourt.",
        "params": {
          "_jurorsForCourtJump": "The new value for the `jurorsForCourtJump` property value.",
          "_subcourtID": "The ID of the subcourt."
        }
      },
      "changeSubcourtMinStake(uint96,uint256)": {
        "details": "Changes the `minStake` property value of a specified subcourt. Don't set to a value lower than its parent's `minStake` property value.",
        "params": {
          "_minStake": "The new value for the `minStake` property value.",
          "_subcourtID": "The ID of the subcourt."
        }
      },
      "changeSubcourtTimesPerPeriod(uint96,uint256[4])": {
        "details": "Changes the `timesPerPeriod` property value of a specified subcourt.",
        "params": {
          "_subcourtID": "The ID of the subcourt.",
          "_timesPerPeriod": "The new value for the `timesPerPeriod` property value."
        }
      },
      "constructor": {
        "details": "Constructor.",
        "params": {
          "_courtParameters": "Numeric parameters of General court (minStake, alpha, feeForJuror and jurorsForCourtJump respectively).",
          "_disputeKit": "The address of the default dispute kit.",
          "_governor": "The governor's address.",
          "_hiddenVotes": "The `hiddenVotes` property value of the general court.",
          "_jurorProsecutionModule": "The address of the juror prosecution module.",
          "_phaseTimeouts": "minStakingTime and maxFreezingTime respectively",
          "_pinakion": "The address of the token contract.",
          "_sortitionSumTreeK": "The number of children per node of the general court's sortition sum tree.",
          "_timesPerPeriod": "The `timesPerPeriod` property value of the general court."
        }
      },
      "createDispute(uint256,bytes)": {
        "details": "Creates a dispute. Must be called by the arbitrable contract.",
        "params": {
          "_extraData": "Additional info about the dispute. We use it to pass the ID of the dispute's subcourt (first 32 bytes),  the minimum number of jurors required (next 32 bytes) and the ID of the specific dispute kit (last 32 bytes).",
          "_numberOfChoices": "Number of choices for the jurors to choose from."
        },
        "returns": {
          "disputeID": "The ID of the created dispute."
        }
      },
      "createSubcourt(uint96,bool,uint256,uint256,uint256,uint256,uint256[4],uint256,uint256[])": {
        "details": "Creates a subcourt under a specified parent court.",
        "params": {
          "_alpha": "The `alpha` property value of the subcourt.",
          "_feeForJuror": "The `feeForJuror` property value of the subcourt.",
          "_hiddenVotes": "The `hiddenVotes` property value of the subcourt.",
          "_jurorsForCourtJump": "The `jurorsForCourtJump` property value of the subcourt.",
          "_minStake": "The `minStake` property value of the subcourt.",
          "_parent": "The `parent` property value of the subcourt.",
          "_sortitionSumTreeK": "The number of children per node of the subcourt's sortition sum tree.",
          "_supportedDisputeKits": "Indexes of dispute kits that this subcourt will support.",
          "_timesPerPeriod": "The `timesPerPeriod` property value of the subcourt."
        }
      },
      "currentRuling(uint256)": {
        "details": "Gets the current ruling of a specified dispute.",
        "params": {
          "_disputeID": "The ID of the dispute."
        },
        "returns": {
          "ruling": "The current ruling."
        }
      },
      "draw(uint256,uint256)": {
        "details": "Draws jurors for the dispute. Can be called in parts.",
        "params": {
          "_disputeID": "The ID of the dispute.",
          "_iterations": "The number of iterations to run."
        }
      },
      "enableDisputeKits(uint96,uint256[],bool)": {
        "details": "Adds/removes court's support for specified dispute kits..",
        "params": {
          "_disputeKitIDs": "The IDs of dispute kits which support should be added/removed.",
          "_enable": "Whether add or remove the dispute kits from the subcourt.",
          "_subcourtID": "The ID of the subcourt."
        }
      },
      "execute(uint256,uint256,uint256)": {
        "details": "Distribute tokens and ETH for the specific round of the dispute. Can be called in parts.",
        "params": {
          "_disputeID": "The ID of the dispute.",
          "_iterations": "The number of iterations to run.",
          "_round": "The appeal round."
        }
      },
      "executeDelayedStakes(uint256)": {
        "details": "Executes the next delayed stakes.",
        "params": {
          "_iterations": "The number of delayed stakes to execute."
        }
      },
      "executeGovernorProposal(address,uint256,bytes)": {
        "details": "Allows the governor to call anything on behalf of the contract.",
        "params": {
          "_amount": "The value sent with the call.",
          "_data": "The data sent with the call.",
          "_destination": "The destination of the call."
        }
      },
      "executeRuling(uint256)": {
        "details": "Executes a specified dispute's ruling. UNTRUSTED.",
        "params": {
          "_disputeID": "The ID of the dispute."
        }
      },
      "getDisputeKitChildren(uint256)": {
        "details": "Gets non-primitive properties of a specified dispute kit node.",
        "params": {
          "_disputeKitID": "The ID of the dispute kit."
        },
        "returns": {
          "_0": "children Indexes of children of this DK."
        }
      },
      "getTimesPerPeriod(uint96)": {
        "details": "Gets the timesPerPeriod array for a given court.",
        "params": {
          "_subcourtID": "The ID of the court to get the times from."
        },
        "returns": {
          "timesPerPeriod": "The timesPerPeriod array for the given court."
        }
      },
      "isDisputeKitJumping(uint256)": {
        "details": "Returns true if the dispute kit will be switched to a parent DK.",
        "params": {
          "_disputeID": "The ID of the dispute."
        },
        "returns": {
          "_0": "Whether DK will be switched or not."
        }
      },
      "passPeriod(uint256)": {
        "details": "Passes the period of a specified dispute.",
        "params": {
          "_disputeID": "The ID of the dispute."
        }
      },
      "passPhase()": {
        "details": "Switches the phases between Staking and Freezing, also signal the switch to the dispute kits."
      },
      "setStake(uint96,uint256)": {
        "details": "Sets the caller's stake in a subcourt.",
        "params": {
          "_stake": "The new stake.",
          "_subcourtID": "The ID of the subcourt."
        }
      }
    },
    "title": "KlerosCore  Core arbitrator contract for Kleros v2.  Note that this contract trusts the token and the dispute kit contracts.",
    "version": 1
  },
  "userdoc": {
    "kind": "user",
    "methods": {},
    "version": 1
  },
  "storageLayout": {
    "storage": [
      {
        "astId": 2078,
        "contract": "src/arbitration/KlerosCore.sol:KlerosCore",
        "label": "governor",
        "offset": 0,
        "slot": "0",
        "type": "t_address"
      },
      {
        "astId": 2081,
        "contract": "src/arbitration/KlerosCore.sol:KlerosCore",
        "label": "pinakion",
        "offset": 0,
        "slot": "1",
        "type": "t_contract(IERC20)663"
      },
      {
        "astId": 2083,
        "contract": "src/arbitration/KlerosCore.sol:KlerosCore",
        "label": "jurorProsecutionModule",
        "offset": 0,
        "slot": "2",
        "type": "t_address"
      },
      {
        "astId": 2086,
        "contract": "src/arbitration/KlerosCore.sol:KlerosCore",
        "label": "phase",
        "offset": 20,
        "slot": "2",
        "type": "t_enum(Phase)1945"
      },
      {
        "astId": 2088,
        "contract": "src/arbitration/KlerosCore.sol:KlerosCore",
        "label": "minStakingTime",
        "offset": 0,
        "slot": "3",
        "type": "t_uint256"
      },
      {
        "astId": 2090,
        "contract": "src/arbitration/KlerosCore.sol:KlerosCore",
        "label": "maxFreezingTime",
        "offset": 0,
        "slot": "4",
        "type": "t_uint256"
      },
      {
        "astId": 2092,
        "contract": "src/arbitration/KlerosCore.sol:KlerosCore",
        "label": "lastPhaseChange",
        "offset": 0,
        "slot": "5",
        "type": "t_uint256"
      },
      {
        "astId": 2094,
        "contract": "src/arbitration/KlerosCore.sol:KlerosCore",
        "label": "freezeBlock",
        "offset": 0,
        "slot": "6",
        "type": "t_uint256"
      },
      {
        "astId": 2098,
        "contract": "src/arbitration/KlerosCore.sol:KlerosCore",
        "label": "courts",
        "offset": 0,
        "slot": "7",
        "type": "t_array(t_struct(Court)1975_storage)dyn_storage"
      },
      {
        "astId": 2102,
        "contract": "src/arbitration/KlerosCore.sol:KlerosCore",
        "label": "disputeKitNodes",
        "offset": 0,
        "slot": "8",
        "type": "t_array(t_struct(DisputeKitNode)2033_storage)dyn_storage"
      },
      {
        "astId": 2105,
        "contract": "src/arbitration/KlerosCore.sol:KlerosCore",
        "label": "disputesKitIDsThatNeedFreezing",
        "offset": 0,
        "slot": "9",
        "type": "t_array(t_uint256)dyn_storage"
      },
      {
        "astId": 2109,
        "contract": "src/arbitration/KlerosCore.sol:KlerosCore",
        "label": "disputes",
        "offset": 0,
        "slot": "10",
        "type": "t_array(t_struct(Dispute)1992_storage)dyn_storage"
      },
      {
        "astId": 2114,
        "contract": "src/arbitration/KlerosCore.sol:KlerosCore",
        "label": "jurors",
        "offset": 0,
        "slot": "11",
        "type": "t_mapping(t_address,t_struct(Juror)2020_storage)"
      },
      {
        "astId": 2117,
        "contract": "src/arbitration/KlerosCore.sol:KlerosCore",
        "label": "sortitionSumTrees",
        "offset": 0,
        "slot": "12",
        "type": "t_struct(SortitionSumTrees)13202_storage"
      },
      {
        "astId": 2122,
        "contract": "src/arbitration/KlerosCore.sol:KlerosCore",
        "label": "delayedStakes",
        "offset": 0,
        "slot": "13",
        "type": "t_mapping(t_uint256,t_struct(DelayedStake)2042_storage)"
      },
      {
        "astId": 2124,
        "contract": "src/arbitration/KlerosCore.sol:KlerosCore",
        "label": "delayedStakeWriteIndex",
        "offset": 0,
        "slot": "14",
        "type": "t_uint256"
      },
      {
        "astId": 2127,
        "contract": "src/arbitration/KlerosCore.sol:KlerosCore",
        "label": "delayedStakeReadIndex",
        "offset": 0,
        "slot": "15",
        "type": "t_uint256"
      }
    ],
    "types": {
      "t_address": {
        "encoding": "inplace",
        "label": "address",
        "numberOfBytes": "20"
      },
      "t_array(t_address)dyn_storage": {
        "base": "t_address",
        "encoding": "dynamic_array",
        "label": "address[]",
        "numberOfBytes": "32"
      },
      "t_array(t_struct(Court)1975_storage)dyn_storage": {
        "base": "t_struct(Court)1975_storage",
        "encoding": "dynamic_array",
        "label": "struct KlerosCore.Court[]",
        "numberOfBytes": "32"
      },
      "t_array(t_struct(Dispute)1992_storage)dyn_storage": {
        "base": "t_struct(Dispute)1992_storage",
        "encoding": "dynamic_array",
        "label": "struct KlerosCore.Dispute[]",
        "numberOfBytes": "32"
      },
      "t_array(t_struct(DisputeKitNode)2033_storage)dyn_storage": {
        "base": "t_struct(DisputeKitNode)2033_storage",
        "encoding": "dynamic_array",
        "label": "struct KlerosCore.DisputeKitNode[]",
        "numberOfBytes": "32"
      },
      "t_array(t_struct(Round)2008_storage)dyn_storage": {
        "base": "t_struct(Round)2008_storage",
        "encoding": "dynamic_array",
        "label": "struct KlerosCore.Round[]",
        "numberOfBytes": "32"
      },
      "t_array(t_uint256)4_storage": {
        "base": "t_uint256",
        "encoding": "inplace",
        "label": "uint256[4]",
        "numberOfBytes": "128"
      },
      "t_array(t_uint256)dyn_storage": {
        "base": "t_uint256",
        "encoding": "dynamic_array",
        "label": "uint256[]",
        "numberOfBytes": "32"
      },
      "t_array(t_uint96)dyn_storage": {
        "base": "t_uint96",
        "encoding": "dynamic_array",
        "label": "uint96[]",
        "numberOfBytes": "32"
      },
      "t_bool": {
        "encoding": "inplace",
        "label": "bool",
        "numberOfBytes": "1"
      },
      "t_bytes32": {
        "encoding": "inplace",
        "label": "bytes32",
        "numberOfBytes": "32"
      },
      "t_contract(IArbitrable)1739": {
        "encoding": "inplace",
        "label": "contract IArbitrable",
        "numberOfBytes": "20"
      },
      "t_contract(IDisputeKit)1928": {
        "encoding": "inplace",
        "label": "contract IDisputeKit",
        "numberOfBytes": "20"
      },
      "t_contract(IERC20)663": {
        "encoding": "inplace",
        "label": "contract IERC20",
        "numberOfBytes": "20"
      },
      "t_enum(Period)1951": {
        "encoding": "inplace",
        "label": "enum KlerosCore.Period",
        "numberOfBytes": "1"
      },
      "t_enum(Phase)1945": {
        "encoding": "inplace",
        "label": "enum KlerosCore.Phase",
        "numberOfBytes": "1"
      },
      "t_mapping(t_address,t_struct(Juror)2020_storage)": {
        "encoding": "mapping",
        "key": "t_address",
        "label": "mapping(address => struct KlerosCore.Juror)",
        "numberOfBytes": "32",
        "value": "t_struct(Juror)2020_storage"
      },
      "t_mapping(t_bytes32,t_struct(SortitionSumTree)13196_storage)": {
        "encoding": "mapping",
        "key": "t_bytes32",
        "label": "mapping(bytes32 => struct SortitionSumTreeFactory.SortitionSumTree)",
        "numberOfBytes": "32",
        "value": "t_struct(SortitionSumTree)13196_storage"
      },
      "t_mapping(t_bytes32,t_uint256)": {
        "encoding": "mapping",
        "key": "t_bytes32",
        "label": "mapping(bytes32 => uint256)",
        "numberOfBytes": "32",
        "value": "t_uint256"
      },
      "t_mapping(t_uint256,t_bool)": {
        "encoding": "mapping",
        "key": "t_uint256",
        "label": "mapping(uint256 => bool)",
        "numberOfBytes": "32",
        "value": "t_bool"
      },
      "t_mapping(t_uint256,t_bytes32)": {
        "encoding": "mapping",
        "key": "t_uint256",
        "label": "mapping(uint256 => bytes32)",
        "numberOfBytes": "32",
        "value": "t_bytes32"
      },
      "t_mapping(t_uint256,t_struct(DelayedStake)2042_storage)": {
        "encoding": "mapping",
        "key": "t_uint256",
        "label": "mapping(uint256 => struct KlerosCore.DelayedStake)",
        "numberOfBytes": "32",
        "value": "t_struct(DelayedStake)2042_storage"
      },
      "t_mapping(t_uint96,t_uint256)": {
        "encoding": "mapping",
        "key": "t_uint96",
        "label": "mapping(uint96 => uint256)",
        "numberOfBytes": "32",
        "value": "t_uint256"
      },
      "t_struct(Court)1975_storage": {
        "encoding": "inplace",
        "label": "struct KlerosCore.Court",
        "members": [
          {
            "astId": 1953,
            "contract": "src/arbitration/KlerosCore.sol:KlerosCore",
            "label": "parent",
            "offset": 0,
            "slot": "0",
            "type": "t_uint96"
          },
          {
            "astId": 1955,
            "contract": "src/arbitration/KlerosCore.sol:KlerosCore",
            "label": "hiddenVotes",
            "offset": 12,
            "slot": "0",
            "type": "t_bool"
          },
          {
            "astId": 1958,
            "contract": "src/arbitration/KlerosCore.sol:KlerosCore",
            "label": "children",
            "offset": 0,
            "slot": "1",
            "type": "t_array(t_uint256)dyn_storage"
          },
          {
            "astId": 1960,
            "contract": "src/arbitration/KlerosCore.sol:KlerosCore",
            "label": "minStake",
            "offset": 0,
            "slot": "2",
            "type": "t_uint256"
          },
          {
            "astId": 1962,
            "contract": "src/arbitration/KlerosCore.sol:KlerosCore",
            "label": "alpha",
            "offset": 0,
            "slot": "3",
            "type": "t_uint256"
          },
          {
            "astId": 1964,
            "contract": "src/arbitration/KlerosCore.sol:KlerosCore",
            "label": "feeForJuror",
            "offset": 0,
            "slot": "4",
            "type": "t_uint256"
          },
          {
            "astId": 1966,
            "contract": "src/arbitration/KlerosCore.sol:KlerosCore",
            "label": "jurorsForCourtJump",
            "offset": 0,
            "slot": "5",
            "type": "t_uint256"
          },
          {
            "astId": 1970,
            "contract": "src/arbitration/KlerosCore.sol:KlerosCore",
            "label": "timesPerPeriod",
            "offset": 0,
            "slot": "6",
            "type": "t_array(t_uint256)4_storage"
          },
          {
            "astId": 1974,
            "contract": "src/arbitration/KlerosCore.sol:KlerosCore",
            "label": "supportedDisputeKits",
            "offset": 0,
            "slot": "10",
            "type": "t_mapping(t_uint256,t_bool)"
          }
        ],
        "numberOfBytes": "352"
      },
      "t_struct(DelayedStake)2042_storage": {
        "encoding": "inplace",
        "label": "struct KlerosCore.DelayedStake",
        "members": [
          {
            "astId": 2035,
            "contract": "src/arbitration/KlerosCore.sol:KlerosCore",
            "label": "account",
            "offset": 0,
            "slot": "0",
            "type": "t_address"
          },
          {
            "astId": 2037,
            "contract": "src/arbitration/KlerosCore.sol:KlerosCore",
            "label": "subcourtID",
            "offset": 20,
            "slot": "0",
            "type": "t_uint96"
          },
          {
            "astId": 2039,
            "contract": "src/arbitration/KlerosCore.sol:KlerosCore",
            "label": "stake",
            "offset": 0,
            "slot": "1",
            "type": "t_uint256"
          },
          {
            "astId": 2041,
            "contract": "src/arbitration/KlerosCore.sol:KlerosCore",
            "label": "penalty",
            "offset": 0,
            "slot": "2",
            "type": "t_uint256"
          }
        ],
        "numberOfBytes": "96"
      },
      "t_struct(Dispute)1992_storage": {
        "encoding": "inplace",
        "label": "struct KlerosCore.Dispute",
        "members": [
          {
            "astId": 1977,
            "contract": "src/arbitration/KlerosCore.sol:KlerosCore",
            "label": "subcourtID",
            "offset": 0,
            "slot": "0",
            "type": "t_uint96"
          },
          {
            "astId": 1980,
            "contract": "src/arbitration/KlerosCore.sol:KlerosCore",
            "label": "arbitrated",
            "offset": 12,
            "slot": "0",
            "type": "t_contract(IArbitrable)1739"
          },
          {
            "astId": 1983,
            "contract": "src/arbitration/KlerosCore.sol:KlerosCore",
            "label": "period",
            "offset": 0,
            "slot": "1",
            "type": "t_enum(Period)1951"
          },
          {
            "astId": 1985,
            "contract": "src/arbitration/KlerosCore.sol:KlerosCore",
            "label": "ruled",
            "offset": 1,
            "slot": "1",
            "type": "t_bool"
          },
          {
            "astId": 1987,
            "contract": "src/arbitration/KlerosCore.sol:KlerosCore",
            "label": "lastPeriodChange",
            "offset": 0,
            "slot": "2",
            "type": "t_uint256"
          },
          {
            "astId": 1991,
            "contract": "src/arbitration/KlerosCore.sol:KlerosCore",
            "label": "rounds",
            "offset": 0,
            "slot": "3",
            "type": "t_array(t_struct(Round)2008_storage)dyn_storage"
          }
        ],
        "numberOfBytes": "128"
      },
      "t_struct(DisputeKitNode)2033_storage": {
        "encoding": "inplace",
        "label": "struct KlerosCore.DisputeKitNode",
        "members": [
          {
            "astId": 2022,
            "contract": "src/arbitration/KlerosCore.sol:KlerosCore",
            "label": "parent",
            "offset": 0,
            "slot": "0",
            "type": "t_uint256"
          },
          {
            "astId": 2025,
            "contract": "src/arbitration/KlerosCore.sol:KlerosCore",
            "label": "children",
            "offset": 0,
            "slot": "1",
            "type": "t_array(t_uint256)dyn_storage"
          },
          {
            "astId": 2028,
            "contract": "src/arbitration/KlerosCore.sol:KlerosCore",
            "label": "disputeKit",
            "offset": 0,
            "slot": "2",
            "type": "t_contract(IDisputeKit)1928"
          },
          {
            "astId": 2030,
            "contract": "src/arbitration/KlerosCore.sol:KlerosCore",
            "label": "needsFreezing",
            "offset": 20,
            "slot": "2",
            "type": "t_bool"
          },
          {
            "astId": 2032,
            "contract": "src/arbitration/KlerosCore.sol:KlerosCore",
            "label": "depthLevel",
            "offset": 0,
            "slot": "3",
            "type": "t_uint256"
          }
        ],
        "numberOfBytes": "128"
      },
      "t_struct(Juror)2020_storage": {
        "encoding": "inplace",
        "label": "struct KlerosCore.Juror",
        "members": [
          {
            "astId": 2011,
            "contract": "src/arbitration/KlerosCore.sol:KlerosCore",
            "label": "subcourtIDs",
            "offset": 0,
            "slot": "0",
            "type": "t_array(t_uint96)dyn_storage"
          },
          {
            "astId": 2015,
            "contract": "src/arbitration/KlerosCore.sol:KlerosCore",
            "label": "stakedTokens",
            "offset": 0,
            "slot": "1",
            "type": "t_mapping(t_uint96,t_uint256)"
          },
          {
            "astId": 2019,
            "contract": "src/arbitration/KlerosCore.sol:KlerosCore",
            "label": "lockedTokens",
            "offset": 0,
            "slot": "2",
            "type": "t_mapping(t_uint96,t_uint256)"
          }
        ],
        "numberOfBytes": "96"
      },
      "t_struct(Round)2008_storage": {
        "encoding": "inplace",
        "label": "struct KlerosCore.Round",
        "members": [
          {
            "astId": 1994,
            "contract": "src/arbitration/KlerosCore.sol:KlerosCore",
            "label": "disputeKitID",
            "offset": 0,
            "slot": "0",
            "type": "t_uint256"
          },
          {
            "astId": 1996,
            "contract": "src/arbitration/KlerosCore.sol:KlerosCore",
            "label": "tokensAtStakePerJuror",
            "offset": 0,
            "slot": "1",
            "type": "t_uint256"
          },
          {
            "astId": 1998,
            "contract": "src/arbitration/KlerosCore.sol:KlerosCore",
            "label": "totalFeesForJurors",
            "offset": 0,
            "slot": "2",
            "type": "t_uint256"
          },
          {
            "astId": 2000,
            "contract": "src/arbitration/KlerosCore.sol:KlerosCore",
            "label": "nbVotes",
            "offset": 0,
            "slot": "3",
            "type": "t_uint256"
          },
          {
            "astId": 2002,
            "contract": "src/arbitration/KlerosCore.sol:KlerosCore",
            "label": "repartitions",
            "offset": 0,
            "slot": "4",
            "type": "t_uint256"
          },
          {
            "astId": 2004,
            "contract": "src/arbitration/KlerosCore.sol:KlerosCore",
            "label": "penalties",
            "offset": 0,
            "slot": "5",
            "type": "t_uint256"
          },
          {
            "astId": 2007,
            "contract": "src/arbitration/KlerosCore.sol:KlerosCore",
            "label": "drawnJurors",
            "offset": 0,
            "slot": "6",
            "type": "t_array(t_address)dyn_storage"
          }
        ],
        "numberOfBytes": "224"
      },
      "t_struct(SortitionSumTree)13196_storage": {
        "encoding": "inplace",
        "label": "struct SortitionSumTreeFactory.SortitionSumTree",
        "members": [
          {
            "astId": 13181,
            "contract": "src/arbitration/KlerosCore.sol:KlerosCore",
            "label": "K",
            "offset": 0,
            "slot": "0",
            "type": "t_uint256"
          },
          {
            "astId": 13184,
            "contract": "src/arbitration/KlerosCore.sol:KlerosCore",
            "label": "stack",
            "offset": 0,
            "slot": "1",
            "type": "t_array(t_uint256)dyn_storage"
          },
          {
            "astId": 13187,
            "contract": "src/arbitration/KlerosCore.sol:KlerosCore",
            "label": "nodes",
            "offset": 0,
            "slot": "2",
            "type": "t_array(t_uint256)dyn_storage"
          },
          {
            "astId": 13191,
            "contract": "src/arbitration/KlerosCore.sol:KlerosCore",
            "label": "IDsToNodeIndexes",
            "offset": 0,
            "slot": "3",
            "type": "t_mapping(t_bytes32,t_uint256)"
          },
          {
            "astId": 13195,
            "contract": "src/arbitration/KlerosCore.sol:KlerosCore",
            "label": "nodeIndexesToIDs",
            "offset": 0,
            "slot": "4",
            "type": "t_mapping(t_uint256,t_bytes32)"
          }
        ],
        "numberOfBytes": "160"
      },
      "t_struct(SortitionSumTrees)13202_storage": {
        "encoding": "inplace",
        "label": "struct SortitionSumTreeFactory.SortitionSumTrees",
        "members": [
          {
            "astId": 13201,
            "contract": "src/arbitration/KlerosCore.sol:KlerosCore",
            "label": "sortitionSumTrees",
            "offset": 0,
            "slot": "0",
            "type": "t_mapping(t_bytes32,t_struct(SortitionSumTree)13196_storage)"
          }
        ],
        "numberOfBytes": "32"
      },
      "t_uint256": {
        "encoding": "inplace",
        "label": "uint256",
        "numberOfBytes": "32"
      },
      "t_uint96": {
        "encoding": "inplace",
        "label": "uint96",
        "numberOfBytes": "12"
      }
    }
  }
}