{
  "address": "0x815d709EFCF5E69e2e9E2F8d3815d762496a2f0F",
  "abi": [
    {
      "inputs": [
        {
          "internalType": "address",
          "name": "_governor",
          "type": "address"
        },
        {
          "internalType": "contract IERC20",
          "name": "_pinakion",
          "type": "address"
        },
        {
          "internalType": "address",
          "name": "_jurorProsecutionModule",
          "type": "address"
        },
        {
          "internalType": "contract IDisputeKit",
          "name": "_disputeKit",
          "type": "address"
        },
        {
          "internalType": "uint256[2]",
          "name": "_phaseTimeouts",
          "type": "uint256[2]"
        },
        {
          "internalType": "bool",
          "name": "_hiddenVotes",
          "type": "bool"
        },
        {
          "internalType": "uint256[4]",
          "name": "_courtParameters",
          "type": "uint256[4]"
        },
        {
          "internalType": "uint256[4]",
          "name": "_timesPerPeriod",
          "type": "uint256[4]"
        },
        {
          "internalType": "uint256",
          "name": "_sortitionSumTreeK",
          "type": "uint256"
        }
      ],
      "stateMutability": "nonpayable",
      "type": "constructor"
    },
    {
      "anonymous": false,
      "inputs": [
        {
          "indexed": true,
          "internalType": "uint256",
          "name": "_disputeID",
          "type": "uint256"
        },
        {
          "indexed": true,
          "internalType": "contract IArbitrable",
          "name": "_arbitrable",
          "type": "address"
        }
      ],
      "name": "AppealDecision",
      "type": "event"
    },
    {
      "anonymous": false,
      "inputs": [
        {
          "indexed": true,
          "internalType": "uint256",
          "name": "_disputeID",
          "type": "uint256"
        },
        {
          "indexed": true,
          "internalType": "contract IArbitrable",
          "name": "_arbitrable",
          "type": "address"
        }
      ],
      "name": "AppealPossible",
      "type": "event"
    },
    {
      "anonymous": false,
      "inputs": [
        {
          "indexed": true,
          "internalType": "uint256",
          "name": "_disputeID",
          "type": "uint256"
        },
        {
          "indexed": true,
          "internalType": "uint256",
          "name": "_roundID",
          "type": "uint256"
        },
        {
          "indexed": true,
          "internalType": "uint96",
          "name": "_fromSubcourtID",
          "type": "uint96"
        },
        {
          "indexed": false,
          "internalType": "uint96",
          "name": "_toSubcourtID",
          "type": "uint96"
        }
      ],
      "name": "CourtJump",
      "type": "event"
    },
    {
      "anonymous": false,
      "inputs": [
        {
          "indexed": true,
          "internalType": "uint256",
          "name": "_disputeID",
          "type": "uint256"
        },
        {
          "indexed": true,
          "internalType": "contract IArbitrable",
          "name": "_arbitrable",
          "type": "address"
        }
      ],
      "name": "DisputeCreation",
      "type": "event"
    },
    {
      "anonymous": false,
      "inputs": [
        {
          "indexed": true,
          "internalType": "uint256",
          "name": "_disputeKitID",
          "type": "uint256"
        },
        {
          "indexed": true,
          "internalType": "contract IDisputeKit",
          "name": "_disputeKitAddress",
          "type": "address"
        },
        {
          "indexed": true,
          "internalType": "uint256",
          "name": "_parent",
          "type": "uint256"
        }
      ],
      "name": "DisputeKitCreated",
      "type": "event"
    },
    {
      "anonymous": false,
      "inputs": [
        {
          "indexed": true,
          "internalType": "uint96",
          "name": "_subcourtID",
          "type": "uint96"
        },
        {
          "indexed": true,
          "internalType": "uint256",
          "name": "_disputeKitID",
          "type": "uint256"
        },
        {
          "indexed": true,
          "internalType": "bool",
          "name": "_enable",
          "type": "bool"
        }
      ],
      "name": "DisputeKitEnabled",
      "type": "event"
    },
    {
      "anonymous": false,
      "inputs": [
        {
          "indexed": true,
          "internalType": "uint256",
          "name": "_disputeID",
          "type": "uint256"
        },
        {
          "indexed": true,
          "internalType": "uint256",
          "name": "_roundID",
          "type": "uint256"
        },
        {
          "indexed": true,
          "internalType": "uint256",
          "name": "_fromDisputeKitID",
          "type": "uint256"
        },
        {
          "indexed": false,
          "internalType": "uint256",
          "name": "_toDisputeKitID",
          "type": "uint256"
        }
      ],
      "name": "DisputeKitJump",
      "type": "event"
    },
    {
      "anonymous": false,
      "inputs": [
        {
          "indexed": true,
          "internalType": "address",
          "name": "_address",
          "type": "address"
        },
        {
          "indexed": true,
          "internalType": "uint256",
          "name": "_disputeID",
          "type": "uint256"
        },
        {
          "indexed": false,
          "internalType": "uint256",
          "name": "_roundID",
          "type": "uint256"
        },
        {
          "indexed": false,
          "internalType": "uint256",
          "name": "_voteID",
          "type": "uint256"
        }
      ],
      "name": "Draw",
      "type": "event"
    },
    {
      "anonymous": false,
      "inputs": [
        {
          "indexed": true,
          "internalType": "uint256",
          "name": "_disputeID",
          "type": "uint256"
        },
        {
          "indexed": false,
          "internalType": "enum KlerosCore.Period",
          "name": "_period",
          "type": "uint8"
        }
      ],
      "name": "NewPeriod",
      "type": "event"
    },
    {
      "anonymous": false,
      "inputs": [
        {
          "indexed": false,
          "internalType": "enum KlerosCore.Phase",
          "name": "_phase",
          "type": "uint8"
        }
      ],
      "name": "NewPhase",
      "type": "event"
    },
    {
      "anonymous": false,
      "inputs": [
        {
          "indexed": true,
          "internalType": "address",
          "name": "_address",
          "type": "address"
        },
        {
          "indexed": false,
          "internalType": "uint256",
          "name": "_subcourtID",
          "type": "uint256"
        },
        {
          "indexed": false,
          "internalType": "uint256",
          "name": "_amount",
          "type": "uint256"
        },
        {
          "indexed": false,
          "internalType": "uint256",
          "name": "_newTotalStake",
          "type": "uint256"
        }
      ],
      "name": "StakeSet",
      "type": "event"
    },
    {
      "anonymous": false,
      "inputs": [
        {
          "indexed": true,
          "internalType": "uint256",
          "name": "_subcourtID",
          "type": "uint256"
        },
        {
          "indexed": true,
          "internalType": "uint96",
          "name": "_parent",
          "type": "uint96"
        },
        {
          "indexed": false,
          "internalType": "bool",
          "name": "_hiddenVotes",
          "type": "bool"
        },
        {
          "indexed": false,
          "internalType": "uint256",
          "name": "_minStake",
          "type": "uint256"
        },
        {
          "indexed": false,
          "internalType": "uint256",
          "name": "_alpha",
          "type": "uint256"
        },
        {
          "indexed": false,
          "internalType": "uint256",
          "name": "_feeForJuror",
          "type": "uint256"
        },
        {
          "indexed": false,
          "internalType": "uint256",
          "name": "_jurorsForCourtJump",
          "type": "uint256"
        },
        {
          "indexed": false,
          "internalType": "uint256[4]",
          "name": "_timesPerPeriod",
          "type": "uint256[4]"
        },
        {
          "indexed": false,
          "internalType": "uint256",
          "name": "_sortitionSumTreeK",
          "type": "uint256"
        },
        {
          "indexed": false,
          "internalType": "uint256[]",
          "name": "_supportedDisputeKits",
          "type": "uint256[]"
        }
      ],
      "name": "SubcourtCreated",
      "type": "event"
    },
    {
      "anonymous": false,
      "inputs": [
        {
          "indexed": true,
          "internalType": "uint96",
          "name": "_subcourtID",
          "type": "uint96"
        },
        {
          "indexed": false,
          "internalType": "string",
          "name": "_param",
          "type": "string"
        }
      ],
      "name": "SubcourtModified",
      "type": "event"
    },
    {
      "anonymous": false,
      "inputs": [
        {
          "indexed": true,
          "internalType": "address",
          "name": "_account",
          "type": "address"
        },
        {
          "indexed": true,
          "internalType": "uint256",
          "name": "_disputeID",
          "type": "uint256"
        },
        {
          "indexed": false,
          "internalType": "int256",
          "name": "_tokenAmount",
          "type": "int256"
        },
        {
          "indexed": false,
          "internalType": "int256",
          "name": "_ethAmount",
          "type": "int256"
        }
      ],
      "name": "TokenAndETHShift",
      "type": "event"
    },
    {
      "inputs": [],
      "name": "ALPHA_DIVISOR",
      "outputs": [
        {
          "internalType": "uint256",
          "name": "",
          "type": "uint256"
        }
      ],
      "stateMutability": "view",
      "type": "function"
    },
    {
      "inputs": [],
      "name": "DISPUTE_KIT_CLASSIC",
      "outputs": [
        {
          "internalType": "uint256",
          "name": "",
          "type": "uint256"
        }
      ],
      "stateMutability": "view",
      "type": "function"
    },
    {
      "inputs": [],
      "name": "FORKING_COURT",
      "outputs": [
        {
          "internalType": "uint96",
          "name": "",
          "type": "uint96"
        }
      ],
      "stateMutability": "view",
      "type": "function"
    },
    {
      "inputs": [],
      "name": "GENERAL_COURT",
      "outputs": [
        {
          "internalType": "uint96",
          "name": "",
          "type": "uint96"
        }
      ],
      "stateMutability": "view",
      "type": "function"
    },
    {
      "inputs": [],
      "name": "MAX_STAKE_PATHS",
      "outputs": [
        {
          "internalType": "uint256",
          "name": "",
          "type": "uint256"
        }
      ],
      "stateMutability": "view",
      "type": "function"
    },
    {
      "inputs": [],
      "name": "MIN_JURORS",
      "outputs": [
        {
          "internalType": "uint256",
          "name": "",
          "type": "uint256"
        }
      ],
      "stateMutability": "view",
      "type": "function"
    },
    {
      "inputs": [],
      "name": "NON_PAYABLE_AMOUNT",
      "outputs": [
        {
          "internalType": "uint256",
          "name": "",
          "type": "uint256"
        }
      ],
      "stateMutability": "view",
      "type": "function"
    },
    {
      "inputs": [],
      "name": "NULL_DISPUTE_KIT",
      "outputs": [
        {
          "internalType": "uint256",
          "name": "",
          "type": "uint256"
        }
      ],
      "stateMutability": "view",
      "type": "function"
    },
    {
      "inputs": [],
      "name": "SEARCH_ITERATIONS",
      "outputs": [
        {
          "internalType": "uint256",
          "name": "",
          "type": "uint256"
        }
      ],
      "stateMutability": "view",
      "type": "function"
    },
    {
      "inputs": [
        {
          "internalType": "contract IDisputeKit",
          "name": "_disputeKitAddress",
          "type": "address"
        },
        {
          "internalType": "uint256",
          "name": "_parent",
          "type": "uint256"
        }
      ],
      "name": "addNewDisputeKit",
      "outputs": [],
      "stateMutability": "nonpayable",
      "type": "function"
    },
    {
      "inputs": [
        {
          "internalType": "uint256",
          "name": "_disputeID",
          "type": "uint256"
        },
        {
          "internalType": "uint256",
          "name": "_numberOfChoices",
          "type": "uint256"
        },
        {
          "internalType": "bytes",
          "name": "_extraData",
          "type": "bytes"
        }
      ],
      "name": "appeal",
      "outputs": [],
      "stateMutability": "payable",
      "type": "function"
    },
    {
      "inputs": [
        {
          "internalType": "uint256",
          "name": "_disputeID",
          "type": "uint256"
        }
      ],
      "name": "appealCost",
      "outputs": [
        {
          "internalType": "uint256",
          "name": "cost",
          "type": "uint256"
        }
      ],
      "stateMutability": "view",
      "type": "function"
    },
    {
      "inputs": [
        {
          "internalType": "uint256",
          "name": "_disputeID",
          "type": "uint256"
        }
      ],
      "name": "appealPeriod",
      "outputs": [
        {
          "internalType": "uint256",
          "name": "start",
          "type": "uint256"
        },
        {
          "internalType": "uint256",
          "name": "end",
          "type": "uint256"
        }
      ],
      "stateMutability": "view",
      "type": "function"
    },
    {
      "inputs": [
        {
          "internalType": "bytes",
          "name": "_extraData",
          "type": "bytes"
        }
      ],
      "name": "arbitrationCost",
      "outputs": [
        {
          "internalType": "uint256",
          "name": "cost",
          "type": "uint256"
        }
      ],
      "stateMutability": "view",
      "type": "function"
    },
    {
      "inputs": [
        {
          "internalType": "address payable",
          "name": "_governor",
          "type": "address"
        }
      ],
      "name": "changeGovernor",
      "outputs": [],
      "stateMutability": "nonpayable",
      "type": "function"
    },
    {
      "inputs": [
        {
          "internalType": "uint96",
          "name": "_subcourtID",
          "type": "uint96"
        },
        {
          "internalType": "bool",
          "name": "_hiddenVotes",
          "type": "bool"
        }
      ],
      "name": "changeHiddenVotes",
      "outputs": [],
      "stateMutability": "nonpayable",
      "type": "function"
    },
    {
      "inputs": [
        {
          "internalType": "address",
          "name": "_jurorProsecutionModule",
          "type": "address"
        }
      ],
      "name": "changeJurorProsecutionModule",
      "outputs": [],
      "stateMutability": "nonpayable",
      "type": "function"
    },
    {
      "inputs": [
        {
          "internalType": "uint256",
          "name": "_maxFreezingTime",
          "type": "uint256"
        }
      ],
      "name": "changeMaxFreezingTime",
      "outputs": [],
      "stateMutability": "nonpayable",
      "type": "function"
    },
    {
      "inputs": [
        {
          "internalType": "uint256",
          "name": "_minStakingTime",
          "type": "uint256"
        }
      ],
      "name": "changeMinStakingTime",
      "outputs": [],
      "stateMutability": "nonpayable",
      "type": "function"
    },
    {
      "inputs": [
        {
          "internalType": "contract IERC20",
          "name": "_pinakion",
          "type": "address"
        }
      ],
      "name": "changePinakion",
      "outputs": [],
      "stateMutability": "nonpayable",
      "type": "function"
    },
    {
      "inputs": [
        {
          "internalType": "uint96",
          "name": "_subcourtID",
          "type": "uint96"
        },
        {
          "internalType": "uint256",
          "name": "_alpha",
          "type": "uint256"
        }
      ],
      "name": "changeSubcourtAlpha",
      "outputs": [],
      "stateMutability": "nonpayable",
      "type": "function"
    },
    {
      "inputs": [
        {
          "internalType": "uint96",
          "name": "_subcourtID",
          "type": "uint96"
        },
        {
          "internalType": "uint256",
          "name": "_feeForJuror",
          "type": "uint256"
        }
      ],
      "name": "changeSubcourtJurorFee",
      "outputs": [],
      "stateMutability": "nonpayable",
      "type": "function"
    },
    {
      "inputs": [
        {
          "internalType": "uint96",
          "name": "_subcourtID",
          "type": "uint96"
        },
        {
          "internalType": "uint256",
          "name": "_jurorsForCourtJump",
          "type": "uint256"
        }
      ],
      "name": "changeSubcourtJurorsForJump",
      "outputs": [],
      "stateMutability": "nonpayable",
      "type": "function"
    },
    {
      "inputs": [
        {
          "internalType": "uint96",
          "name": "_subcourtID",
          "type": "uint96"
        },
        {
          "internalType": "uint256",
          "name": "_minStake",
          "type": "uint256"
        }
      ],
      "name": "changeSubcourtMinStake",
      "outputs": [],
      "stateMutability": "nonpayable",
      "type": "function"
    },
    {
      "inputs": [
        {
          "internalType": "uint96",
          "name": "_subcourtID",
          "type": "uint96"
        },
        {
          "internalType": "uint256[4]",
          "name": "_timesPerPeriod",
          "type": "uint256[4]"
        }
      ],
      "name": "changeSubcourtTimesPerPeriod",
      "outputs": [],
      "stateMutability": "nonpayable",
      "type": "function"
    },
    {
      "inputs": [
        {
          "internalType": "uint256",
          "name": "",
          "type": "uint256"
        }
      ],
      "name": "courts",
      "outputs": [
        {
          "internalType": "uint96",
          "name": "parent",
          "type": "uint96"
        },
        {
          "internalType": "bool",
          "name": "hiddenVotes",
          "type": "bool"
        },
        {
          "internalType": "uint256",
          "name": "minStake",
          "type": "uint256"
        },
        {
          "internalType": "uint256",
          "name": "alpha",
          "type": "uint256"
        },
        {
          "internalType": "uint256",
          "name": "feeForJuror",
          "type": "uint256"
        },
        {
          "internalType": "uint256",
          "name": "jurorsForCourtJump",
          "type": "uint256"
        }
      ],
      "stateMutability": "view",
      "type": "function"
    },
    {
      "inputs": [
        {
          "internalType": "uint256",
          "name": "_numberOfChoices",
          "type": "uint256"
        },
        {
          "internalType": "bytes",
          "name": "_extraData",
          "type": "bytes"
        }
      ],
      "name": "createDispute",
      "outputs": [
        {
          "internalType": "uint256",
          "name": "disputeID",
          "type": "uint256"
        }
      ],
      "stateMutability": "payable",
      "type": "function"
    },
    {
      "inputs": [
        {
          "internalType": "uint96",
          "name": "_parent",
          "type": "uint96"
        },
        {
          "internalType": "bool",
          "name": "_hiddenVotes",
          "type": "bool"
        },
        {
          "internalType": "uint256",
          "name": "_minStake",
          "type": "uint256"
        },
        {
          "internalType": "uint256",
          "name": "_alpha",
          "type": "uint256"
        },
        {
          "internalType": "uint256",
          "name": "_feeForJuror",
          "type": "uint256"
        },
        {
          "internalType": "uint256",
          "name": "_jurorsForCourtJump",
          "type": "uint256"
        },
        {
          "internalType": "uint256[4]",
          "name": "_timesPerPeriod",
          "type": "uint256[4]"
        },
        {
          "internalType": "uint256",
          "name": "_sortitionSumTreeK",
          "type": "uint256"
        },
        {
          "internalType": "uint256[]",
          "name": "_supportedDisputeKits",
          "type": "uint256[]"
        }
      ],
      "name": "createSubcourt",
      "outputs": [],
      "stateMutability": "nonpayable",
      "type": "function"
    },
    {
      "inputs": [
        {
          "internalType": "uint256",
          "name": "_disputeID",
          "type": "uint256"
        }
      ],
      "name": "currentRuling",
      "outputs": [
        {
          "internalType": "uint256",
          "name": "ruling",
          "type": "uint256"
        }
      ],
      "stateMutability": "view",
      "type": "function"
    },
    {
      "inputs": [],
      "name": "delayedStakeReadIndex",
      "outputs": [
        {
          "internalType": "uint256",
          "name": "",
          "type": "uint256"
        }
      ],
      "stateMutability": "view",
      "type": "function"
    },
    {
      "inputs": [],
      "name": "delayedStakeWriteIndex",
      "outputs": [
        {
          "internalType": "uint256",
          "name": "",
          "type": "uint256"
        }
      ],
      "stateMutability": "view",
      "type": "function"
    },
    {
      "inputs": [
        {
          "internalType": "uint256",
          "name": "",
          "type": "uint256"
        }
      ],
      "name": "delayedStakes",
      "outputs": [
        {
          "internalType": "address",
          "name": "account",
          "type": "address"
        },
        {
          "internalType": "uint96",
          "name": "subcourtID",
          "type": "uint96"
        },
        {
          "internalType": "uint256",
          "name": "stake",
          "type": "uint256"
        },
        {
          "internalType": "uint256",
          "name": "penalty",
          "type": "uint256"
        }
      ],
      "stateMutability": "view",
      "type": "function"
    },
    {
      "inputs": [
        {
          "internalType": "uint256",
          "name": "",
          "type": "uint256"
        }
      ],
      "name": "disputeKitNodes",
      "outputs": [
        {
          "internalType": "uint256",
          "name": "parent",
          "type": "uint256"
        },
        {
          "internalType": "contract IDisputeKit",
          "name": "disputeKit",
          "type": "address"
        },
        {
          "internalType": "bool",
          "name": "needsFreezing",
          "type": "bool"
        },
        {
          "internalType": "uint256",
          "name": "depthLevel",
          "type": "uint256"
        }
      ],
      "stateMutability": "view",
      "type": "function"
    },
    {
      "inputs": [
        {
          "internalType": "uint256",
          "name": "",
          "type": "uint256"
        }
      ],
      "name": "disputes",
      "outputs": [
        {
          "internalType": "uint96",
          "name": "subcourtID",
          "type": "uint96"
        },
        {
          "internalType": "contract IArbitrable",
          "name": "arbitrated",
          "type": "address"
        },
        {
          "internalType": "enum KlerosCore.Period",
          "name": "period",
          "type": "uint8"
        },
        {
          "internalType": "bool",
          "name": "ruled",
          "type": "bool"
        },
        {
          "internalType": "uint256",
          "name": "lastPeriodChange",
          "type": "uint256"
        }
      ],
      "stateMutability": "view",
      "type": "function"
    },
    {
      "inputs": [
        {
          "internalType": "uint256",
          "name": "",
          "type": "uint256"
        }
      ],
      "name": "disputesKitIDsThatNeedFreezing",
      "outputs": [
        {
          "internalType": "uint256",
          "name": "",
          "type": "uint256"
        }
      ],
      "stateMutability": "view",
      "type": "function"
    },
    {
      "inputs": [
        {
          "internalType": "uint256",
          "name": "_disputeID",
          "type": "uint256"
        },
        {
          "internalType": "uint256",
          "name": "_iterations",
          "type": "uint256"
        }
      ],
      "name": "draw",
      "outputs": [],
      "stateMutability": "nonpayable",
      "type": "function"
    },
    {
      "inputs": [
        {
          "internalType": "uint96",
          "name": "_subcourtID",
          "type": "uint96"
        },
        {
          "internalType": "uint256[]",
          "name": "_disputeKitIDs",
          "type": "uint256[]"
        },
        {
          "internalType": "bool",
          "name": "_enable",
          "type": "bool"
        }
      ],
      "name": "enableDisputeKits",
      "outputs": [],
      "stateMutability": "nonpayable",
      "type": "function"
    },
    {
      "inputs": [
        {
          "internalType": "uint256",
          "name": "_disputeID",
          "type": "uint256"
        },
        {
          "internalType": "uint256",
          "name": "_round",
          "type": "uint256"
        },
        {
          "internalType": "uint256",
          "name": "_iterations",
          "type": "uint256"
        }
      ],
      "name": "execute",
      "outputs": [],
      "stateMutability": "nonpayable",
      "type": "function"
    },
    {
      "inputs": [
        {
          "internalType": "uint256",
          "name": "_iterations",
          "type": "uint256"
        }
      ],
      "name": "executeDelayedStakes",
      "outputs": [],
      "stateMutability": "nonpayable",
      "type": "function"
    },
    {
      "inputs": [
        {
          "internalType": "address",
          "name": "_destination",
          "type": "address"
        },
        {
          "internalType": "uint256",
          "name": "_amount",
          "type": "uint256"
        },
        {
          "internalType": "bytes",
          "name": "_data",
          "type": "bytes"
        }
      ],
      "name": "executeGovernorProposal",
      "outputs": [],
      "stateMutability": "nonpayable",
      "type": "function"
    },
    {
      "inputs": [
        {
          "internalType": "uint256",
          "name": "_disputeID",
          "type": "uint256"
        }
      ],
      "name": "executeRuling",
      "outputs": [],
      "stateMutability": "nonpayable",
      "type": "function"
    },
    {
      "inputs": [],
      "name": "freezeBlock",
      "outputs": [
        {
          "internalType": "uint256",
          "name": "",
          "type": "uint256"
        }
      ],
      "stateMutability": "view",
      "type": "function"
    },
    {
      "inputs": [],
      "name": "freezingPhaseTimeout",
      "outputs": [
        {
          "internalType": "bool",
          "name": "",
          "type": "bool"
        }
      ],
      "stateMutability": "view",
      "type": "function"
    },
    {
      "inputs": [
        {
          "internalType": "uint256",
          "name": "_disputeKitID",
          "type": "uint256"
        }
      ],
      "name": "getDisputeKitChildren",
      "outputs": [
        {
          "internalType": "uint256[]",
          "name": "",
          "type": "uint256[]"
        }
      ],
      "stateMutability": "view",
      "type": "function"
    },
    {
      "inputs": [],
      "name": "getDisputesKitIDsThatNeedFreezing",
      "outputs": [
        {
          "internalType": "uint256[]",
          "name": "",
          "type": "uint256[]"
        }
      ],
      "stateMutability": "view",
      "type": "function"
    },
    {
      "inputs": [
        {
          "internalType": "address",
          "name": "_juror",
          "type": "address"
        },
        {
          "internalType": "uint96",
          "name": "_subcourtID",
          "type": "uint96"
        }
      ],
      "name": "getJurorBalance",
      "outputs": [
        {
          "internalType": "uint256",
          "name": "staked",
          "type": "uint256"
        },
        {
          "internalType": "uint256",
          "name": "locked",
          "type": "uint256"
        }
      ],
      "stateMutability": "view",
      "type": "function"
    },
    {
      "inputs": [
        {
          "internalType": "uint256",
          "name": "_disputeID",
          "type": "uint256"
        }
      ],
      "name": "getLastRoundResult",
      "outputs": [
        {
          "internalType": "uint256",
          "name": "winningChoice",
          "type": "uint256"
        },
        {
          "internalType": "bool",
          "name": "tied",
          "type": "bool"
        }
      ],
      "stateMutability": "view",
      "type": "function"
    },
    {
      "inputs": [
        {
          "internalType": "uint256",
          "name": "_disputeID",
          "type": "uint256"
        }
      ],
      "name": "getNumberOfRounds",
      "outputs": [
        {
          "internalType": "uint256",
          "name": "",
          "type": "uint256"
        }
      ],
      "stateMutability": "view",
      "type": "function"
    },
    {
      "inputs": [
        {
          "internalType": "uint256",
          "name": "_disputeID",
          "type": "uint256"
        }
      ],
      "name": "getNumberOfVotes",
      "outputs": [
        {
          "internalType": "uint256",
          "name": "",
          "type": "uint256"
        }
      ],
      "stateMutability": "view",
      "type": "function"
    },
    {
      "inputs": [
        {
          "internalType": "uint256",
          "name": "_disputeID",
          "type": "uint256"
        },
        {
          "internalType": "uint256",
          "name": "_round",
          "type": "uint256"
        }
      ],
      "name": "getRoundInfo",
      "outputs": [
        {
          "internalType": "uint256",
          "name": "tokensAtStakePerJuror",
          "type": "uint256"
        },
        {
          "internalType": "uint256",
          "name": "totalFeesForJurors",
          "type": "uint256"
        },
        {
          "internalType": "uint256",
          "name": "repartitions",
          "type": "uint256"
        },
        {
          "internalType": "uint256",
          "name": "penalties",
          "type": "uint256"
        },
        {
          "internalType": "address[]",
          "name": "drawnJurors",
          "type": "address[]"
        },
        {
          "internalType": "uint256",
          "name": "disputeKitID",
          "type": "uint256"
        }
      ],
      "stateMutability": "view",
      "type": "function"
    },
    {
      "inputs": [
        {
          "internalType": "bytes32",
          "name": "_key",
          "type": "bytes32"
        },
        {
          "internalType": "uint256",
          "name": "_nodeIndex",
          "type": "uint256"
        }
      ],
      "name": "getSortitionSumTree",
      "outputs": [
        {
          "internalType": "uint256",
          "name": "K",
          "type": "uint256"
        },
        {
          "internalType": "uint256",
          "name": "length",
          "type": "uint256"
        },
        {
          "internalType": "bytes32",
          "name": "ID",
          "type": "bytes32"
        }
      ],
      "stateMutability": "view",
      "type": "function"
    },
    {
      "inputs": [
        {
          "internalType": "bytes32",
          "name": "_key",
          "type": "bytes32"
        },
        {
          "internalType": "uint256",
          "name": "_index",
          "type": "uint256"
        }
      ],
      "name": "getSortitionSumTreeNode",
      "outputs": [
        {
          "internalType": "uint256",
          "name": "",
          "type": "uint256"
        }
      ],
      "stateMutability": "view",
      "type": "function"
    },
    {
      "inputs": [
        {
          "internalType": "uint96",
          "name": "_subcourtID",
          "type": "uint96"
        }
      ],
      "name": "getTimesPerPeriod",
      "outputs": [
        {
          "internalType": "uint256[4]",
          "name": "timesPerPeriod",
          "type": "uint256[4]"
        }
      ],
      "stateMutability": "view",
      "type": "function"
    },
    {
      "inputs": [],
      "name": "governor",
      "outputs": [
        {
          "internalType": "address",
          "name": "",
          "type": "address"
        }
      ],
      "stateMutability": "view",
      "type": "function"
    },
    {
      "inputs": [
        {
          "internalType": "uint256",
          "name": "_disputeID",
          "type": "uint256"
        }
      ],
      "name": "isDisputeKitJumping",
      "outputs": [
        {
          "internalType": "bool",
          "name": "",
          "type": "bool"
        }
      ],
      "stateMutability": "view",
      "type": "function"
    },
    {
      "inputs": [
        {
          "internalType": "uint96",
          "name": "_subcourtID",
          "type": "uint96"
        },
        {
          "internalType": "uint256",
          "name": "_disputeKitID",
          "type": "uint256"
        }
      ],
      "name": "isSupported",
      "outputs": [
        {
          "internalType": "bool",
          "name": "",
          "type": "bool"
        }
      ],
      "stateMutability": "view",
      "type": "function"
    },
    {
      "inputs": [],
      "name": "jurorProsecutionModule",
      "outputs": [
        {
          "internalType": "address",
          "name": "",
          "type": "address"
        }
      ],
      "stateMutability": "view",
      "type": "function"
    },
    {
      "inputs": [],
      "name": "lastPhaseChange",
      "outputs": [
        {
          "internalType": "uint256",
          "name": "",
          "type": "uint256"
        }
      ],
      "stateMutability": "view",
      "type": "function"
    },
    {
      "inputs": [],
      "name": "maxFreezingTime",
      "outputs": [
        {
          "internalType": "uint256",
          "name": "",
          "type": "uint256"
        }
      ],
      "stateMutability": "view",
      "type": "function"
    },
    {
      "inputs": [],
      "name": "minStakingTime",
      "outputs": [
        {
          "internalType": "uint256",
          "name": "",
          "type": "uint256"
        }
      ],
      "stateMutability": "view",
      "type": "function"
    },
    {
      "inputs": [
        {
          "internalType": "uint256",
          "name": "_disputeID",
          "type": "uint256"
        }
      ],
      "name": "passPeriod",
      "outputs": [],
      "stateMutability": "nonpayable",
      "type": "function"
    },
    {
      "inputs": [],
      "name": "passPhase",
      "outputs": [],
      "stateMutability": "nonpayable",
      "type": "function"
    },
    {
      "inputs": [],
      "name": "phase",
      "outputs": [
        {
          "internalType": "enum KlerosCore.Phase",
          "name": "",
          "type": "uint8"
        }
      ],
      "stateMutability": "view",
      "type": "function"
    },
    {
      "inputs": [],
      "name": "pinakion",
      "outputs": [
        {
          "internalType": "contract IERC20",
          "name": "",
          "type": "address"
        }
      ],
      "stateMutability": "view",
      "type": "function"
    },
    {
      "inputs": [
        {
          "internalType": "uint96",
          "name": "_subcourtID",
          "type": "uint96"
        },
        {
          "internalType": "uint256",
          "name": "_stake",
          "type": "uint256"
        }
      ],
      "name": "setStake",
      "outputs": [],
      "stateMutability": "nonpayable",
      "type": "function"
    }
  ],
  "transactionHash": "0x1d72ee146e24c8d2cdf5ad96d3f0d10cf86e39f10d6e5f9cb58dc9a517d7da5f",
  "args": [
    "0xF50E77f2A2B6138D16c6c7511562E5C33c4B15A3",
    "0x364530164a2338cdba211f72c1438eb811b5c639",
    "0x0000000000000000000000000000000000000000",
    "0xA2c538AA05BBCc44c213441f6f3777223D2BF9e5",
    [
      120,
      120
    ],
    false,
    [
      "200000000000000000000",
      10000,
      "100000000000000000",
      3
    ],
    [
      0,
      0,
      0,
      0
    ],
    3
  ],
  "numDeployments": 3,
  "solcInputHash": "344957ae5857246fac5b346f78fc8116",
  "bytecode": "0x60806040526001600f553480156200001657600080fd5b5060405162006780380380620067808339810160408190526200003991620005d3565b600080546001600160a01b038b81166001600160a01b0319928316178355600180548c831690841617815560028054928c1692909316919091179091558651600355602080880151600455426005556008805490920182558183526040805160a08101825284815281518581528084019092529293918301915081526001600160a01b0389166020808301919091526000604083018190526060909201829052835460018181018655948352918190208351600490930201918255828101518051939492936200011193850192919091019062000458565b5060408281015160028301805460608601511515600160a01b026001600160a81b03199091166001600160a01b0393841617179055608090930151600390920191909155516000918816906001907f7921860794ac14fda09ee75f7160a5a3d266e3352f7954d0401606a92a26c498908490a4600780546001018155600090815260405163483abc4f60e11b8152600c60048201526024810191909152604481018290527348ce286978C74c288eA6Bc9a536BcC899DF8D17790639075789e9060640160006040518083038186803b158015620001ed57600080fd5b505af415801562000202573d6000803e3d6000fd5b5050600780546001810182556000918252600b027fa66cc928b5edb82af9bd49922954155ab7b0942694bea4ce44661d9a8736c6880180546001600160601b0319168155604080518381526020810190915290935091505080516200027291600184019160209091019062000458565b50805460ff60601b19166c01000000000000000000000000861515021781558351600282015560208401516003820155604084015160048083019190915560608501516005830155620002cc9060068301908590620004a8565b5060405163483abc4f60e11b8152600c600482015260016024820152604481018390527348ce286978C74c288eA6Bc9a536BcC899DF8D17790639075789e9060640160006040518083038186803b1580156200032757600080fd5b505af41580156200033c573d6000803e3d6000fd5b5050825486516020808901516040808b015160608c0151825160008152948501928390526001600160601b039096169750600196507f2e689e2ae8e3c8e02797c3ff9998e8297e587a74bc6d0e48b6b5991f70991d1c95620003a7958e959094938d918d91620006eb565b60405180910390a3620003bd60018080620003cd565b5050505050505050505062000790565b806007846001600160601b031681548110620003ed57620003ed620006d5565b60009182526020808320868452600b92909202909101600a0190526040808220805460ff19169315159390931790925590518215159184916001600160601b038716917fb47629acdf64971062d40984f77d3dee212d735b11e3e8c7a4222d9f0572cc7991a4505050565b82805482825590600052602060002090810192821562000496579160200282015b828111156200049657825182559160200191906001019062000479565b50620004a4929150620004d8565b5090565b82600481019282156200049657916020028201828111156200049657825182559160200191906001019062000479565b5b80821115620004a45760008155600101620004d9565b6001600160a01b03811681146200050557600080fd5b50565b634e487b7160e01b600052604160045260246000fd5b604080519081016001600160401b038111828210171562000543576200054362000508565b60405290565b805180151581146200055a57600080fd5b919050565b600082601f8301126200057157600080fd5b604051608081016001600160401b038111828210171562000596576200059662000508565b604052806080840185811115620005ac57600080fd5b845b81811015620005c8578051835260209283019201620005ae565b509195945050505050565b60008060008060008060008060006102008a8c031215620005f357600080fd5b89516200060081620004ef565b809950506020808b01516200061581620004ef565b60408c01519099506200062881620004ef565b60608c01519098506200063b81620004ef565b9650609f8b018c136200064d57600080fd5b620006576200051e565b8060c08d018e8111156200066a57600080fd5b60808e015b818110156200068857805184529284019284016200066f565b50819850620006978162000549565b975050505050620006ac8b60e08c016200055f565b9250620006be8b6101608c016200055f565b91506101e08a015190509295985092959850929598565b634e487b7160e01b600052603260045260246000fd5b60006101608083018b1515845260208b818601528a604086015289606086015288608086015260a085018860005b6004811015620007385781518352918301919083019060010162000719565b50505061012085018790526101408501929092528451908190526101808401918086019160005b818110156200077d578351855293820193928201926001016200075f565b50929d9c50505050505050505050505050565b615fe080620007a06000396000f3fe6080604052600436106103cd5760003560e01c8063823cfd70116101fd578063c13517e111610118578063e4c0aaf4116100ab578063f7434ea91161007a578063f7434ea914610c99578063f8bdb57b14610cb9578063fbf405b014610cd9578063fc6f8f1614610cf9578063fe524c3914610d1957600080fd5b8063e4c0aaf414610bbb578063eaff425a14610bdb578063f12ada8b14610bf0578063f6b4d82d14610c1057600080fd5b8063cf0c38f8116100e7578063cf0c38f814610b08578063d1c1df4814610b28578063d2b8035a14610b86578063d8b03fd814610ba657600080fd5b8063c13517e114610aa2578063c258bb1914610ab5578063c356990214610ad5578063c71f425314610ae857600080fd5b8063b1c9fe6e11610190578063b70c4e941161015f578063b70c4e94146109fd578063b888adfa14610a12578063bfabfe8f14610a28578063c057eca714610a8c57600080fd5b8063b1c9fe6e14610984578063b2866af7146109b2578063b31b4540146109d2578063b4a61608146109e857600080fd5b80638edf4741116101cc5780638edf4741146108da5780639b05c261146108fa578063a57366e71461092f578063afe15cfb1461094f57600080fd5b8063823cfd701461084d578063840bc19c1461086d5780638a9bb02a146108885780638bb04875146108ba57600080fd5b806334d5fb31116102ed57806357260364116102805780636235593f1161024f5780636235593f146107e35780636c1eb1b9146107f8578063751accd01461080d5780637717a6e81461082d57600080fd5b8063572603641461076357806359354c771461078357806359ec827e146107a35780635bc24dd3146107c357600080fd5b80633e1d09be116102bc5780633e1d09be146106cf57806343d4137f146106ef578063564a565d1461071c57806356acb0501461074d57600080fd5b806334d5fb311461065757806335975f4a1461066c5780633a1578601461068c5780633cfd1184146106a257600080fd5b806319b81529116103655780632922d604116103345780632922d604146105e15780632b6a63f1146106015780632d29a47b146106215780632ea7b4d01461064157600080fd5b806319b815291461050d5780631c3db16d1461053d5780631f5a0dd21461055d57806327e6ec8a146105b457600080fd5b80630d1b9d1a116103a15780630d1b9d1a146104665780630d83b940146104b45780630e083ec9146104d7578063115d5376146104ed57600080fd5b8062f5822c146103d25780630b274f2e146103f45780630b7414bc146104095780630c340a2414610429575b600080fd5b3480156103de57600080fd5b506103f26103ed36600461557c565b610d39565b005b34801561040057600080fd5b506103f2610d8e565b34801561041557600080fd5b506103f2610424366004615691565b61137a565b34801561043557600080fd5b50600054610449906001600160a01b031681565b6040516001600160a01b0390911681526020015b60405180910390f35b34801561047257600080fd5b506104866104813660046156f3565b611571565b604080519485526001600160a01b03909316602085015290151591830191909152606082015260800161045d565b3480156104c057600080fd5b506104c9600181565b60405190815260200161045d565b3480156104e357600080fd5b506104c9600e5481565b3480156104f957600080fd5b506103f26105083660046156f3565b6115ba565b34801561051957600080fd5b5061052d6105283660046156f3565b611c24565b604051901515815260200161045d565b34801561054957600080fd5b506104c96105583660046156f3565b611d1b565b34801561056957600080fd5b5061057d6105783660046156f3565b611e26565b604080516001600160601b0390971687529415156020870152938501929092526060840152608083015260a082015260c00161045d565b3480156105c057600080fd5b506105c9600081565b6040516001600160601b03909116815260200161045d565b3480156105ed57600080fd5b506104c96105fc36600461570c565b611e7d565b34801561060d57600080fd5b506103f261061c36600461579c565b611eb4565b34801561062d57600080fd5b506103f261063c366004615840565b612272565b34801561064d57600080fd5b506104c961271081565b34801561066357600080fd5b506105c9600181565b34801561067857600080fd5b506103f26106873660046156f3565b612b1d565b34801561069857600080fd5b506104c960065481565b3480156106ae57600080fd5b506106c26106bd36600461586c565b612c5a565b60405161045d91906158aa565b3480156106db57600080fd5b506103f26106ea3660046158b8565b612ccb565b3480156106fb57600080fd5b5061070f61070a3660046156f3565b612edd565b60405161045d919061591d565b34801561072857600080fd5b5061073c6107373660046156f3565b612f59565b60405161045d95949392919061595a565b34801561075957600080fd5b506104c9600f5481565b34801561076f57600080fd5b506103f261077e366004615999565b612fb5565b34801561078f57600080fd5b506103f261079e3660046158b8565b613064565b3480156107af57600080fd5b506104c96107be3660046156f3565b613105565b3480156107cf57600080fd5b506103f26107de3660046158b8565b613255565b3480156107ef57600080fd5b506104c9600081565b34801561080457600080fd5b506104c9600a81565b34801561081957600080fd5b506103f2610828366004615a3d565b6132f0565b34801561083957600080fd5b506103f26108483660046158b8565b6133c2565b34801561085957600080fd5b506103f26108683660046156f3565b613410565b34801561087957600080fd5b506104c96001600160ff1b0381565b34801561089457600080fd5b506108a86108a336600461570c565b61343f565b60405161045d96959493929190615a96565b3480156108c657600080fd5b506103f26108d53660046156f3565b61351f565b3480156108e657600080fd5b506104c96108f53660046156f3565b613688565b34801561090657600080fd5b5061091a6109153660046156f3565b6136a9565b6040805192835290151560208301520161045d565b34801561093b57600080fd5b506103f261094a3660046158b8565b6137b3565b34801561095b57600080fd5b5061096f61096a3660046156f3565b61385b565b6040805192835260208301919091520161045d565b34801561099057600080fd5b506002546109a590600160a01b900460ff1681565b60405161045d9190615b0b565b3480156109be57600080fd5b506103f26109cd3660046156f3565b613908565b3480156109de57600080fd5b506104c960045481565b3480156109f457600080fd5b506104c9600481565b348015610a0957600080fd5b5061052d613937565b348015610a1e57600080fd5b506104c960055481565b348015610a3457600080fd5b50610a71610a4336600461570c565b6000918252600c60209081526040808420805460028201549486526004909101909252909220549192909190565b6040805193845260208401929092529082015260600161045d565b348015610a9857600080fd5b506104c960035481565b6104c9610ab0366004615b25565b613979565b348015610ac157600080fd5b506103f2610ad036600461557c565b613cfb565b6103f2610ae3366004615b6c565b613d47565b348015610af457600080fd5b506104c9610b033660046156f3565b6143ca565b348015610b1457600080fd5b50600254610449906001600160a01b031681565b348015610b3457600080fd5b5061096f610b43366004615ba6565b6001600160a01b03919091166000908152600b602090815260408083206001600160601b0390941683526001840182528083205460029094019091529020549091565b348015610b9257600080fd5b506103f2610ba136600461570c565b614432565b348015610bb257600080fd5b5061070f614725565b348015610bc757600080fd5b506103f2610bd636600461557c565b61477d565b348015610be757600080fd5b506104c9600381565b348015610bfc57600080fd5b506103f2610c0b366004615bd2565b6147c9565b348015610c1c57600080fd5b50610c67610c2b3660046156f3565b600d602052600090815260409020805460018201546002909201546001600160a01b03821692600160a01b9092046001600160601b0316919084565b604080516001600160a01b0390951685526001600160601b03909316602085015291830152606082015260800161045d565b348015610ca557600080fd5b506104c9610cb4366004615bf0565b614a22565b348015610cc557600080fd5b506103f2610cd4366004615c25565b614a76565b348015610ce557600080fd5b50600154610449906001600160a01b031681565b348015610d0557600080fd5b506104c9610d143660046156f3565b614b2a565b348015610d2557600080fd5b5061052d610d343660046158b8565b614b59565b6000546001600160a01b03163314610d6c5760405162461bcd60e51b8152600401610d6390615c5c565b60405180910390fd5b600180546001600160a01b0319166001600160a01b0392909216919091179055565b6000600254600160a01b900460ff166001811115610dae57610dae615930565b1415610e7457600354600554610dc49042615c99565b1015610e125760405162461bcd60e51b815260206004820152601960248201527f4d696e5374616b696e6754696d65206e6f7420706173736564000000000000006044820152606401610d63565b600954610e585760405162461bcd60e51b81526020600482015260146024820152734e6f20444b206e6565647320667265657a696e6760601b6044820152606401610d63565b6002805460ff60a01b1916600160a01b1790554360065561132f565b6000306001600160a01b031663b70c4e946040518163ffffffff1660e01b815260040160206040518083038186803b158015610eaf57600080fd5b505afa158015610ec3573d6000803e3d6000fd5b505050506040513d601f19601f82011682018060405250810190610ee79190615cb0565b600954909150600090610efc90600190615ccd565b90505b6000811261131f57600060098281548110610f1c57610f1c615d0c565b906000526020600020015490506000600860098481548110610f4057610f40615d0c565b906000526020600020015481548110610f5b57610f5b615d0c565b60009182526020909120600260049092020101546001600160a01b03169050838015610ff55750806001600160a01b031663c86ed8926040518163ffffffff1660e01b815260040160206040518083038186803b158015610fbb57600080fd5b505afa158015610fcf573d6000803e3d6000fd5b505050506040513d601f19601f82011682018060405250810190610ff39190615cb0565b155b1561110f57806001600160a01b0316630b274f2e6040518163ffffffff1660e01b8152600401600060405180830381600087803b15801561103557600080fd5b505af1158015611049573d6000803e3d6000fd5b50505050806001600160a01b031663c86ed8926040518163ffffffff1660e01b815260040160206040518083038186803b15801561108657600080fd5b505afa15801561109a573d6000803e3d6000fd5b505050506040513d601f19601f820116820180604052508101906110be9190615cb0565b61110a5760405162461bcd60e51b815260206004820152601e60248201527f536f6d6520444b206e6f7420696e205265736f6c76696e6720706861736500006044820152606401610d63565b61130c565b806001600160a01b031663c86ed8926040518163ffffffff1660e01b815260040160206040518083038186803b15801561114857600080fd5b505afa15801561115c573d6000803e3d6000fd5b505050506040513d601f19601f820116820180604052508101906111809190615cb0565b6111cc5760405162461bcd60e51b815260206004820152601e60248201527f536f6d6520444b206e6f7420696e205265736f6c76696e6720706861736500006044820152606401610d63565b806001600160a01b031663034327446040518163ffffffff1660e01b815260040160206040518083038186803b15801561120557600080fd5b505afa158015611219573d6000803e3d6000fd5b505050506040513d601f19601f8201168201806040525081019061123d9190615d22565b61130c5760006008838154811061125657611256615d0c565b600091825260209091206002600490920201018054911515600160a01b0260ff60a01b1990921691909117905560095461129290600190615ccd565b8312156112e457600980546112a990600190615c99565b815481106112b9576112b9615d0c565b9060005260206000200154600984815481106112d7576112d7615d0c565b6000918252602090912001555b60098054806112f5576112f5615d3b565b600190038181906000526020600020016000905590555b50508061131890615d51565b9050610eff565b50506002805460ff60a01b191690555b426005556002546040517f31f72b44f546d9e7eaec13f65636997665e15f134a81c82924f568f5c0d07b939161137091600160a01b90910460ff1690615b0b565b60405180910390a1565b6000546001600160a01b031633146113a45760405162461bcd60e51b8152600401610d6390615c5c565b60006007846001600160601b0316815481106113c2576113c2615d0c565b90600052602060002090600b0201905060005b835181101561156a5782156114905760008482815181106113f8576113f8615d0c565b60200260200101511180156114295750600854845185908390811061141f5761141f615d0c565b6020026020010151105b6114665760405162461bcd60e51b815260206004820152600e60248201526d0aee4dedcce40889640d2dcc8caf60931b6044820152606401610d63565b61148b8585838151811061147c5761147c615d0c565b60200260200101516001614ba1565b611558565b6001600160601b03851660011480156114e65750600060088583815181106114ba576114ba615d0c565b6020026020010151815481106114d2576114d2615d0c565b906000526020600020906004020160000154145b156115335760405162461bcd60e51b815260206004820181905260248201527f43616e27742064697361626c6520526f6f7420444b20696e2047656e6572616c6044820152606401610d63565b6115588585838151811061154957611549615d0c565b60200260200101516000614ba1565b8061156281615d6f565b9150506113d5565b5050505050565b6008818154811061158157600080fd5b60009182526020909120600490910201805460028201546003909201549092506001600160a01b03821691600160a01b900460ff169084565b6000600a82815481106115cf576115cf615d0c565b600091825260208220600490910201805460078054929450916001600160601b0390911690811061160257611602615d0c565b6000918252602082206003850154600b90920201925061162490600190615c99565b9050600083600301828154811061163d5761163d615d0c565b6000918252602082206007909102019150600185015460ff16600481111561166757611667615930565b141561179a5760008211806116b957506001840154600684019060ff16600481111561169557611695615930565b600481106116a5576116a5615d0c565b015460028501546116b69042615c99565b10155b6117055760405162461bcd60e51b815260206004820152601e60248201527f45766964656e6365206e6f7420706173736564202626202141707065616c00006044820152606401610d63565b60038101546006820154146117545760405162461bcd60e51b815260206004820152601560248201527444697370757465207374696c6c2064726177696e6760581b6044820152606401610d63565b8254600160601b900460ff1661176b57600261176e565b60015b60018086018054909160ff199091169083600481111561179057611790615930565b0217905550611bd6565b60018085015460ff1660048111156117b4576117b4615930565b1415611905576001840154600684019060ff1660048111156117d8576117d8615930565b600481106117e8576117e8615d0c565b015460028501546117f99042615c99565b1015806118a25750600881600001548154811061181857611818615d0c565b6000918252602090912060049182020160020154604051630baa64d160e01b81529182018790526001600160a01b031690630baa64d19060240160206040518083038186803b15801561186a57600080fd5b505afa15801561187e573d6000803e3d6000fd5b505050506040513d601f19601f820116820180604052508101906118a29190615cb0565b6118ee5760405162461bcd60e51b815260206004820152601860248201527f436f6d6d697420706572696f64206e6f742070617373656400000000000000006044820152606401610d63565b6001808501805460029260ff199091169083611790565b6002600185015460ff16600481111561192057611920615930565b1415611aa8576001840154600684019060ff16600481111561194457611944615930565b6004811061195457611954615d0c565b015460028501546119659042615c99565b101580611a0e5750600881600001548154811061198457611984615d0c565b60009182526020909120600491820201600201546040516336a66c7560e11b81529182018790526001600160a01b031690636d4cd8ea9060240160206040518083038186803b1580156119d657600080fd5b505afa1580156119ea573d6000803e3d6000fd5b505050506040513d601f19601f82011682018060405250810190611a0e9190615cb0565b611a535760405162461bcd60e51b8152602060048201526016602482015275159bdd19481c195c9a5bd9081b9bdd081c185cdcd95960521b6044820152606401610d63565b600184018054600360ff199091161790558354604051600160601b9091046001600160a01b03169086907fa5d41b970d849372be1da1481ffd78d162bfe57a7aa2fe4e5fb73481fa5ac24f90600090a3611bd6565b6003600185015460ff166004811115611ac357611ac3615930565b1415611b6d576001840154600684019060ff166004811115611ae757611ae7615930565b60048110611af757611af7615d0c565b01546002850154611b089042615c99565b1015611b565760405162461bcd60e51b815260206004820152601860248201527f41707065616c20706572696f64206e6f742070617373656400000000000000006044820152606401610d63565b6001808501805460049260ff199091169083611790565b6004600185015460ff166004811115611b8857611b88615930565b1415611bd65760405162461bcd60e51b815260206004820152601760248201527f4469737075746520706572696f642069732066696e616c0000000000000000006044820152606401610d63565b426002850155600184015460405186917f4e6f5cf43b95303e86aee81683df63992061723a829ee012db21dad388756b9191611c159160ff1690615d8a565b60405180910390a25050505050565b600080600a8381548110611c3a57611c3a615d0c565b6000918252602082206003600490920201908101805491935090611c6090600190615c99565b81548110611c7057611c70615d0c565b600091825260208220845460078054938102909201945090916001600160601b03909116908110611ca357611ca3615d0c565b90600052602060002090600b02019050806005015482600301541015611cce57506000949350505050565b80546007805490916001600160601b0316908110611cee57611cee615d0c565b6000918252602080832094548352600a600b9092029094010190925250604090205460ff16159392505050565b600080600a8381548110611d3157611d31615d0c565b6000918252602082206003600490920201908101805491935090611d5790600190615c99565b81548110611d6757611d67615d0c565b9060005260206000209060070201905060006008826000015481548110611d9057611d90615d0c565b6000918252602090912060049182020160020154604051631c3db16d60e01b81529182018790526001600160a01b031691508190631c3db16d9060240160206040518083038186803b158015611de557600080fd5b505afa158015611df9573d6000803e3d6000fd5b505050506040513d601f19601f82011682018060405250810190611e1d9190615d22565b95945050505050565b60078181548110611e3657600080fd5b60009182526020909120600b9091020180546002820154600383015460048401546005909401546001600160601b0384169550600160601b90930460ff1693919290919086565b6000828152600c60205260408120600201805483908110611ea057611ea0615d0c565b906000526020600020015490505b92915050565b6000546001600160a01b03163314611ede5760405162461bcd60e51b8152600401610d6390615c5c565b8660078a6001600160601b031681548110611efb57611efb615d0c565b90600052602060002090600b0201600201541115611f2b5760405162461bcd60e51b8152600401610d6390615d98565b6000815111611f6c5760405162461bcd60e51b815260206004820152600d60248201526c21537570706f7274656420444b60981b6044820152606401610d63565b6001600160601b038916611fc25760405162461bcd60e51b815260206004820181905260248201527f496e76616c69643a20466f726b696e6720636f75727420617320706172656e746044820152606401610d63565b60078054600181018255600091825290600b82027fa66cc928b5edb82af9bd49922954155ab7b0942694bea4ce44661d9a8736c68801905b83518110156120df57600084828151811061201757612017615d0c565b60200260200101511180156120485750600854845185908390811061203e5761203e615d0c565b6020026020010151105b6120855760405162461bcd60e51b815260206004820152600e60248201526d0aee4dedcce40889640d2dcc8caf60931b6044820152606401610d63565b600182600a01600086848151811061209f5761209f615d0c565b6020026020010151815260200190815260200160002060006101000a81548160ff02191690831515021790555080806120d790615d6f565b915050611ffa565b5080546bffffffffffffffffffffffff19166001600160601b038c16178155604080516000815260208101918290525161211d9160018401916154b9565b50805460ff60601b1916600160601b8b15150217815560028101899055600381018890556004808201889055600582018790556121609060068301908790615504565b5060405163483abc4f60e11b8152600c600482015260248101839052604481018590527348ce286978C74c288eA6Bc9a536BcC899DF8D17790639075789e9060640160006040518083038186803b1580156121ba57600080fd5b505af41580156121ce573d6000803e3d6000fd5b5050505060078b6001600160601b0316815481106121ee576121ee615d0c565b600091825260208083206001600b909302018201805492830181558352909120018290556040516001600160601b038c169083907f2e689e2ae8e3c8e02797c3ff9998e8297e587a74bc6d0e48b6b5991f70991d1c9061225d908e908e908e908e908e908e908e908e90615dcd565b60405180910390a35050505050505050505050565b6000600a848154811061228757612287615d0c565b600091825260209091206004918202019150600182015460ff1660048111156122b2576122b2615930565b146122f35760405162461bcd60e51b815260206004820152601160248201527008515e1958dd5d1a5bdb881c195c9a5bd9607a1b6044820152606401610d63565b600081600301848154811061230a5761230a615d0c565b906000526020600020906007020190506000600882600001548154811061233357612333615d0c565b60009182526020822060049182020160020154908401546001600160a01b039091169250612362908690615e25565b6005840154600685015460405163368efae360e21b8152600481018b9052602481018a905292935090916000906001600160a01b0386169063da3beb8c9060440160206040518083038186803b1580156123bb57600080fd5b505afa1580156123cf573d6000803e3d6000fd5b505050506040513d601f19601f820116820180604052508101906123f39190615d22565b90506000808261240e5783861115612409578395505b61242e565b612419846002615e3d565b86111561242e5761242b846002615e3d565b95505b60048801545b86811015612af7578481101561286c57604051634fe264fb60e01b8152600481018e9052602481018d9052604481018290526001600160a01b03891690634fe264fb9060640160206040518083038186803b15801561249257600080fd5b505afa1580156124a6573d6000803e3d6000fd5b505050506040513d601f19601f820116820180604052508101906124ca9190615d22565b91506127108211156124dc5761271091505b60006127106124eb8482615c99565b8b600101546124fa9190615e3d565b6125049190615e72565b90506125108188615e25565b965089600601828154811061252757612527615d0c565b60009182526020808320909101546001600160a01b0316808352600b825260408084208f546001600160601b03168552600201909252908220805491965083929091612574908490615c99565b90915550508a546007805483926001600160601b031690811061259957612599615d0c565b90600052602060002090600b0201600201546125b59190615e25565b6001600160a01b0385166000908152600b602090815260408083208f546001600160601b0316845260010190915290205410612649576001600160a01b0384166000908152600b602090815260408083208e546001600160601b03168452600101909152812054612627908390615c99565b8c549091506126429086906001600160601b03168385614c29565b505061269a565b6001600160a01b0384166000908152600b602090815260408083208e546001600160601b031684526001019091529020541561269a578a546126989085906001600160601b0316600084614c29565b505b60405163ba66fde760e01b8152600481018f9052602481018e9052604481018390526001600160a01b038a169063ba66fde79060640160206040518083038186803b1580156126e857600080fd5b505afa1580156126fc573d6000803e3d6000fd5b505050506040513d601f19601f820116820180604052508101906127209190615cb0565b6127bd5760005b6001600160a01b0385166000908152600b60205260409020548110156127bb576001600160a01b0385166000908152600b6020526040902080546127a89187918490811061277757612777615d0c565b9060005260206000209060029182820401919006600c029054906101000a90046001600160601b0316600080614c29565b50806127b381615d6f565b915050612727565b505b8d6001600160a01b0385167f24f45c2b08bbde8c837d70b67991ccb7660537cf749de21a940ae4858b681e196127f284615e86565b60408051918252600060208301520160405180910390a3612814600187615c99565b8214156128665784612866576000805460028c01546040516001600160a01b039092169281156108fc029290818181858888f1505060005461286493506001600160a01b03169150899050615243565b505b50612ae5565b6001600160a01b038816634fe264fb8e8e6128878986615ea3565b6040516001600160e01b031960e086901b16815260048101939093526024830191909152604482015260640160206040518083038186803b1580156128cb57600080fd5b505afa1580156128df573d6000803e3d6000fd5b505050506040513d601f19601f820116820180604052508101906129039190615d22565b91506127108211156129155761271091505b600689016129238683615ea3565b8154811061293357612933615d0c565b60009182526020909120015460018a01546001600160a01b03909116935061271090612960908490615e3d565b61296a9190615e72565b6001600160a01b0384166000908152600b602090815260408083208e546001600160601b03168452600201909152812080549091906129aa908490615c99565b90915550506001600160a01b0383166000908152600b602090815260408083208d546001600160601b03168452600101909152902054612a12576000612710838b600101546129f99190615e3d565b612a039190615e72565b9050612a0f8482615243565b50505b600061271083612a22878a615e72565b612a2c9190615e3d565b612a369190615e72565b9050600061271084878d60020154612a4e9190615e72565b612a589190615e3d565b612a629190615e72565b9050612a6e8583615243565b506040516001600160a01b0386169082156108fc029083906000818181858888f19350505050508e856001600160a01b03167f24f45c2b08bbde8c837d70b67991ccb7660537cf749de21a940ae4858b681e198484604051612ada929190918252602082015260400190565b60405180910390a350505b80612aef81615d6f565b915050612434565b5084886005015414612b0b57600588018590555b50505050600490930155505050505050565b6000600254600160a01b900460ff166001811115612b3d57612b3d615930565b14612b7c5760405162461bcd60e51b815260206004820152600f60248201526e10a9ba30b5b4b73390383430b9b29760891b6044820152606401610d63565b6000600e54600183600f54612b919190615e25565b612b9b9190615c99565b11612ba65781612bc1565b600f54600e54612bb69190615c99565b612bc1906001615e25565b9050600081600f54612bd39190615e25565b600f549091505b81811015612c52576000818152600d60205260409020805460018201546002830154612c22926001600160a01b03811692600160a01b9091046001600160601b031691614c29565b50506000818152600d60205260408120818155600181018290556002015580612c4a81615d6f565b915050612bda565b50600f555050565b612c62615531565b60006007836001600160601b031681548110612c8057612c80615d0c565b60009182526020909120604080516080810191829052600b9093029091019250600683019060049082845b815481526020019060010190808311612cab575050505050915050919050565b6000546001600160a01b03163314612cf55760405162461bcd60e51b8152600401610d6390615c5c565b6001600160601b03821660011480612d68575080600780846001600160601b031681548110612d2657612d26615d0c565b60009182526020909120600b909102015481546001600160601b03909116908110612d5357612d53615d0c565b90600052602060002090600b02016002015411155b612d845760405162461bcd60e51b8152600401610d6390615d98565b60005b6007836001600160601b031681548110612da357612da3615d0c565b90600052602060002090600b020160010180549050811015612e5c5781600780856001600160601b031681548110612ddd57612ddd615d0c565b90600052602060002090600b02016001018381548110612dff57612dff615d0c565b906000526020600020015481548110612e1a57612e1a615d0c565b90600052602060002090600b0201600201541015612e4a5760405162461bcd60e51b8152600401610d6390615d98565b80612e5481615d6f565b915050612d87565b50806007836001600160601b031681548110612e7a57612e7a615d0c565b90600052602060002090600b020160020181905550816001600160601b0316600080516020615f8b833981519152604051612ed1906020808252600890820152676d696e5374616b6560c01b604082015260600190565b60405180910390a25050565b606060088281548110612ef257612ef2615d0c565b9060005260206000209060040201600101805480602002602001604051908101604052809291908181526020018280548015612f4d57602002820191906000526020600020905b815481526020019060010190808311612f39575b50505050509050919050565b600a8181548110612f6957600080fd5b60009182526020909120600490910201805460018201546002909201546001600160601b0382169350600160601b9091046001600160a01b03169160ff80821692610100909204169085565b6000546001600160a01b03163314612fdf5760405162461bcd60e51b8152600401610d6390615c5c565b806007836001600160601b031681548110612ffc57612ffc615d0c565b90600052602060002090600b020160060190600461301b929190615504565b50816001600160601b0316600080516020615f8b833981519152604051612ed1906020808252600e908201526d1d1a5b595cd4195c94195c9a5bd960921b604082015260600190565b6000546001600160a01b0316331461308e5760405162461bcd60e51b8152600401610d6390615c5c565b806007836001600160601b0316815481106130ab576130ab615d0c565b90600052602060002090600b020160040181905550816001600160601b0316600080516020615f8b833981519152604051612ed1906020808252600b908201526a3332b2a337b9253ab937b960a91b604082015260600190565b600080600a838154811061311b5761311b615d0c565b600091825260208220600360049092020190810180549193509061314190600190615c99565b8154811061315157613151615d0c565b600091825260208220845460078054938102909201945090916001600160601b0390911690811061318457613184615d0c565b90600052602060002090600b0201905080600501548260030154106132235782546001600160601b0316600114156131c5576001600160ff1b03935061324d565b60038201546131d5906002615e3d565b6131e0906001615e25565b81546007805490916001600160601b031690811061320057613200615d0c565b90600052602060002090600b02016004015461321c9190615e3d565b935061324d565b6003820154613233906002615e3d565b61323e906001615e25565b8160040154611e1d9190615e3d565b505050919050565b6000546001600160a01b0316331461327f5760405162461bcd60e51b8152600401610d6390615c5c565b806007836001600160601b03168154811061329c5761329c615d0c565b90600052602060002090600b020160030181905550816001600160601b0316600080516020615f8b833981519152604051612ed190602080825260059082015264616c70686160d81b604082015260600190565b6000546001600160a01b0316331461331a5760405162461bcd60e51b8152600401610d6390615c5c565b6000836001600160a01b031683836040516133359190615ee3565b60006040518083038185875af1925050503d8060008114613372576040519150601f19603f3d011682016040523d82523d6000602084013e613377565b606091505b50509050806133bc5760405162461bcd60e51b8152602060048201526011602482015270155b9cdd58d8d95cdcd99d5b0818d85b1b607a1b6044820152606401610d63565b50505050565b6133cf3383836000614c29565b61340c5760405162461bcd60e51b815260206004820152600e60248201526d14dd185ada5b99c819985a5b195960921b6044820152606401610d63565b5050565b6000546001600160a01b0316331461343a5760405162461bcd60e51b8152600401610d6390615c5c565b600355565b6000806000806060600080600a898154811061345d5761345d615d0c565b9060005260206000209060040201600301888154811061347f5761347f615d0c565b9060005260206000209060070201905080600101548160020154826004015483600501548460060185600001548180548060200260200160405190810160405280929190818152602001828054801561350157602002820191906000526020600020905b81546001600160a01b031681526001909101906020018083116134e3575b50505050509150965096509650965096509650509295509295509295565b6000600a828154811061353457613534615d0c565b600091825260209091206004918202019150600182015460ff16600481111561355f5761355f615930565b146135a05760405162461bcd60e51b815260206004820152601160248201527008515e1958dd5d1a5bdb881c195c9a5bd9607a1b6044820152606401610d63565b6001810154610100900460ff16156135fa5760405162461bcd60e51b815260206004820152601760248201527f52756c696e6720616c72656164792065786563757465640000000000000000006044820152606401610d63565b600061360583611d1b565b60018301805461ff001916610100179055825460405163188d362b60e11b815260048101869052602481018390529192506001600160a01b03600160601b909104169063311a6c5690604401600060405180830381600087803b15801561366b57600080fd5b505af115801561367f573d6000803e3d6000fd5b50505050505050565b6009818154811061369857600080fd5b600091825260209091200154905081565b6000806000600a84815481106136c1576136c1615d0c565b60009182526020822060036004909202019081018054919350906136e790600190615c99565b815481106136f7576136f7615d0c565b90600052602060002090600702019050600881600001548154811061371e5761371e615d0c565b6000918252602090912060049182020160020154604051639b05c26160e01b81529182018790526001600160a01b031690639b05c26190602401604080518083038186803b15801561376f57600080fd5b505afa158015613783573d6000803e3d6000fd5b505050506040513d601f19601f820116820180604052508101906137a79190615eff565b90969095509350505050565b6000546001600160a01b031633146137dd5760405162461bcd60e51b8152600401610d6390615c5c565b806007836001600160601b0316815481106137fa576137fa615d0c565b90600052602060002090600b020160050181905550816001600160601b0316600080516020615f8b833981519152604051612ed19060208082526012908201527106a75726f7273466f72436f7572744a756d760741b604082015260600190565b6000806000600a848154811061387357613873615d0c565b6000918252602090912060049091020190506003600182015460ff1660048111156138a0576138a0615930565b14156138f9576002810154815460078054929550916001600160601b039091169081106138cf576138cf615d0c565b600091825260209091206009600b90920201015460028201546138f29190615e25565b9150613902565b60009250600091505b50915091565b6000546001600160a01b031633146139325760405162461bcd60e51b8152600401610d6390615c5c565b600455565b60006001600254600160a01b900460ff16600181111561395957613959615930565b14801561397457506004546005546139719042615c99565b10155b905090565b600061398482614a22565b3410156139d35760405162461bcd60e51b815260206004820181905260248201527f45544820746f6f206c6f7720666f72206172626974726174696f6e20636f73746044820152606401610d63565b6000806139df8461530f565b92505091506007826001600160601b031681548110613a0057613a00615d0c565b60009182526020808320848452600a600b90930201919091019052604090205460ff16613a6f5760405162461bcd60e51b815260206004820152601a60248201527f444b20756e737570706f7274656420627920737562636f7572740000000000006044820152606401610d63565b600a80546001810182556000918252600160601b33026001600160601b03851617600482027fc65a7bb8d6351c1cf70c95a316cc6a92839c986682d98bc35f958f4883f9d2a88101918255427fc65a7bb8d6351c1cf70c95a316cc6a92839c986682d98bc35f958f4883f9d2aa909101556008805492965090929184908110613afa57613afa615d0c565b600091825260208220600260049092020101548354600780546001600160a01b039093169450916001600160601b03909116908110613b3b57613b3b615d0c565b60009182526020808320600387018054600181018255908552919093206004600b9093029093019182015491935060070290910190613b7a9034615e72565b600380830191909155858255820154600283015461271091613b9b91615e3d565b613ba59190615e72565b60018201553460028201556008805486908110613bc457613bc4615d0c565b906000526020600020906004020160020160149054906101000a900460ff16613c5b57600160088681548110613bfc57613bfc615d0c565b6000918252602082206002600490920201018054921515600160a01b0260ff60a01b19909316929092179091556009805460018101825591527f6e1540171b6c0c960b71a7020d9f60077f6af931a8bbf590da0223dacf75c7af018590555b60038101546040516302dbb79560e61b81526001600160a01b0385169163b6ede54091613c90918b918e918e91600401615f24565b600060405180830381600087803b158015613caa57600080fd5b505af1158015613cbe573d6000803e3d6000fd5b50506040513392508991507f141dfc18aa6a56fc816f44f0e9e2f1ebc92b15ab167770e17db5b084c10ed99590600090a350505050505092915050565b6000546001600160a01b03163314613d255760405162461bcd60e51b8152600401610d6390615c5c565b600280546001600160a01b0319166001600160a01b0392909216919091179055565b613d5083613105565b341015613d9f5760405162461bcd60e51b815260206004820152601b60248201527f45544820746f6f206c6f7720666f722061707065616c20636f737400000000006044820152606401610d63565b6000600a8481548110613db457613db4615d0c565b6000918252602090912060049091020190506003600182015460ff166004811115613de157613de1615930565b14613e275760405162461bcd60e51b815260206004820152601660248201527544697370757465206e6f742061707065616c61626c6560501b6044820152606401610d63565b60038101805460009190613e3d90600190615c99565b81548110613e4d57613e4d615d0c565b906000526020600020906007020190506008816000015481548110613e7457613e74615d0c565b60009182526020909120600490910201600201546001600160a01b03163314613ed25760405162461bcd60e51b815260206004820152601060248201526f44697370757465204b6974206f6e6c7960801b6044820152606401610d63565b8154815460038401805460018101825560009182526020909120600780546001600160601b03909516949281029091019183908110613f1357613f13615d0c565b90600052602060002090600b020160050154846003015410614117576007836001600160601b031681548110613f4b57613f4b615d0c565b600091825260208220600b90910201546001600160601b031693505b600a81101561405c576007846001600160601b031681548110613f8c57613f8c615d0c565b60009182526020808320868452600a600b90930201919091019052604090205460ff1615613fb95761405c565b600060088481548110613fce57613fce615d0c565b906000526020600020906004020160000154146140115760088381548110613ff857613ff8615d0c565b906000526020600020906004020160000154925061404a565b6007846001600160601b03168154811061402d5761402d615d0c565b60009182526020909120600b90910201546001600160601b031693505b8061405481615d6f565b915050613f67565b506007836001600160601b03168154811061407957614079615d0c565b60009182526020808320858452600a600b90930201919091019052604090205460ff166140a557600192505b84546001600160601b0384811691161461411757845460038601546001600160601b03909116906140d890600190615c99565b6040516001600160601b03861681528a907f736e3f52761298c8c0823e1ebf482ed3c5ecb304f743d2d91a7c006e8e8d7a1f9060200160405180910390a45b84546bffffffffffffffffffffffff19166001600160601b038416908117865560018601805460ff191690554260028701556007805460009290811061415f5761415f615d0c565b90600052602060002090600b0201905080600401543461417f9190615e72565b82600301819055506127108160030154826002015461419e9190615e3d565b6141a89190615e72565b600183015534600283015582825560088054849081106141ca576141ca615d0c565b906000526020600020906004020160020160149054906101000a900460ff166142615760016008848154811061420257614202615d0c565b6000918252602082206002600490920201018054921515600160a01b0260ff60a01b19909316929092179091556009805460018101825591527f6e1540171b6c0c960b71a7020d9f60077f6af931a8bbf590da0223dacf75c7af018390555b8454825414614347578454600387015461427d90600190615c99565b83546040519081528b907fcbe7939a71f0b369c7471d760a0a99b60b7bb010ee0406cba8a46679d1ea77569060200160405180910390a460088260000154815481106142cb576142cb615d0c565b600091825260209091206004918202016002015460038401546040516302dbb79560e61b81526001600160a01b039092169263b6ede54092614314928e928e928e929101615f24565b600060405180830381600087803b15801561432e57600080fd5b505af1158015614342573d6000803e3d6000fd5b505050505b8554604051600160601b9091046001600160a01b0316908a907f9c9b64db9e130f48381bf697abf638e73117dbfbfd7a4484f2da3ba188f4187d90600090a3887f4e6f5cf43b95303e86aee81683df63992061723a829ee012db21dad388756b9160006040516143b79190615d8a565b60405180910390a2505050505050505050565b600080600a83815481106143e0576143e0615d0c565b9060005260206000209060040201905080600301600182600301805490506144089190615c99565b8154811061441857614418615d0c565b906000526020600020906007020160030154915050919050565b6001600254600160a01b900460ff16600181111561445257614452615930565b1461448d5760405162461bcd60e51b815260206004820152600b60248201526a57726f6e6720706861736560a81b6044820152606401610d63565b6000600a83815481106144a2576144a2615d0c565b906000526020600020906004020190506000600182600301805490506144c89190615c99565b905060008260030182815481106144e1576144e1615d0c565b6000918252602082206007909102019150600184015460ff16600481111561450b5761450b615930565b1461454b5760405162461bcd60e51b815260206004820152601060248201526f08515d9a59195b98d9481c195c9a5bd960821b6044820152606401610d63565b6000600882600001548154811061456457614564615d0c565b60009182526020822060026004909202010154600684015460038501546001600160a01b039092169350919061459a8884615e25565b11156145aa5783600301546145b4565b6145b48783615e25565b9050815b8181101561471a57604051633b30414760e01b8152600481018a90526000906001600160a01b03861690633b30414790602401602060405180830381600087803b15801561460557600080fd5b505af1158015614619573d6000803e3d6000fd5b505050506040513d601f19601f8201168201806040525081019061463d9190615f6d565b90506001600160a01b038116156147075760018601546001600160a01b0382166000908152600b602090815260408083208c546001600160601b0316845260020190915281208054909190614693908490615e25565b909155505060068601805460018101825560009182526020918290200180546001600160a01b0319166001600160a01b038416908117909155604080518a81529283018590528c927f6119cf536152c11e0a9a6c22f3953ce4ecc93ee54fa72ffa326ffabded21509b910160405180910390a35b508061471281615d6f565b9150506145b8565b505050505050505050565b6060600980548060200260200160405190810160405280929190818152602001828054801561477357602002820191906000526020600020905b81548152602001906001019080831161475f575b5050505050905090565b6000546001600160a01b031633146147a75760405162461bcd60e51b8152600401610d6390615c5c565b600080546001600160a01b0319166001600160a01b0392909216919091179055565b6000546001600160a01b031633146147f35760405162461bcd60e51b8152600401610d6390615c5c565b60085480821061482f5760405162461bcd60e51b81526020600482015260076024820152660854185c995b9d60ca1b6044820152606401610d63565b600082156148ac576008838154811061484a5761484a615d0c565b90600052602060002090600402016003015460016148689190615e25565b9050600a81106148ac5760405162461bcd60e51b815260206004820152600f60248201526e088cae0e8d040d8caeccad840dac2f608b1b6044820152606401610d63565b6040805160a08101825284815281516000808252602080830185528084019283526001600160a01b038916948401949094526060830181905260808301859052600880546001810182559152825160049091027ff3f7a9fe364faab93b216da50a3214154f22a0a2b415b23a84c8169e8b636ee38101918255915180519394919361495e937ff3f7a9fe364faab93b216da50a3214154f22a0a2b415b23a84c8169e8b636ee4019291909101906154b9565b50604082015160028201805460608501511515600160a01b026001600160a81b03199091166001600160a01b039093169290921791909117905560809091015160039091015560088054849081106149b8576149b8615d0c565b600091825260208083206001600490930201820180549283018155835282200183905560405184916001600160a01b0387169185917f7921860794ac14fda09ee75f7160a5a3d266e3352f7954d0401606a92a26c49891a4826133bc576133bc6001836001614ba1565b6000806000614a308461530f565b5091509150806007836001600160601b031681548110614a5257614a52615d0c565b90600052602060002090600b020160040154614a6e9190615e3d565b949350505050565b6000546001600160a01b03163314614aa05760405162461bcd60e51b8152600401610d6390615c5c565b806007836001600160601b031681548110614abd57614abd615d0c565b90600052602060002090600b0201600001600c6101000a81548160ff021916908315150217905550816001600160601b0316600080516020615f8b833981519152604051612ed1906020808252600b908201526a68696464656e566f74657360a81b604082015260600190565b6000600a8281548110614b3f57614b3f615d0c565b600091825260209091206003600490920201015492915050565b60006007836001600160601b031681548110614b7757614b77615d0c565b60009182526020808320948352600b91909102909301600a0190925250604090205460ff16919050565b806007846001600160601b031681548110614bbe57614bbe615d0c565b60009182526020808320868452600b92909202909101600a0190526040808220805460ff19169315159390931790925590518215159184916001600160601b038716917fb47629acdf64971062d40984f77d3dee212d735b11e3e8c7a4222d9f0572cc7991a4505050565b60006001600160601b0384161580614c4b57506007546001600160601b038516115b15614c5857506000614a6e565b6001600160a01b0385166000908152600b6020526040812090614c7b8787615393565b604051637521ccb160e01b8152600c60048201526001600160601b0388166024820152604481018290529091506000907348ce286978C74c288eA6Bc9a536BcC899DF8D17790637521ccb19060640160206040518083038186803b158015614ce257600080fd5b505af4158015614cf6573d6000803e3d6000fd5b505050506040513d601f19601f82011682018060405250810190614d1a9190615d22565b90508515614da8576007876001600160601b031681548110614d3e57614d3e615d0c565b90600052602060002090600b020160020154861080614d7657506001600160601b038716600090815260028401602052604090205486105b15614d875760009350505050614a6e565b80158015614d9757508254600411155b15614da85760009350505050614a6e565b6000600254600160a01b900460ff166001811115614dc857614dc8615930565b14614e74576040518060800160405280896001600160a01b03168152602001886001600160601b0316815260200187815260200186815250600d6000600e60008154614e1390615d6f565b9182905550815260208082019290925260409081016000208351928401516001600160601b0316600160a01b026001600160a01b039093169290921782558201516001808301919091556060909201516002909101559350614a6e92505050565b6000818710614ef157614e878288615c99565b90508015614edf57614e9a8930836153db565b15614ee45781614edf578354600180820186556000868152602090206002830401805491909216600c026101000a6001600160601b0381810219909216918b16021790555b6150c6565b6000945050505050614a6e565b8661508e576001600160601b03881660009081526002850160205260409020548690614f1d9084615c99565b614f279190615c99565b90508015614edf57614f398982615243565b15614ee45760005b845481101561508857886001600160601b0316856000018281548110614f6957614f69615d0c565b600091825260209091206002820401546001909116600c026101000a90046001600160601b031614156150765784548590614fa690600190615c99565b81548110614fb657614fb6615d0c565b9060005260206000209060029182820401919006600c029054906101000a90046001600160601b0316856000018281548110614ff457614ff4615d0c565b9060005260206000209060029182820401919006600c026101000a8154816001600160601b0302191690836001600160601b031602179055508460000180548061504057615040615d3b565b60008281526020902060026000199092019182040180546001600160601b03600c60018516026101000a02191690559055615088565b8061508081615d6f565b915050614f41565b506150c6565b856150998884615c99565b6150a39190615c99565b905080156150c6576150b58982615243565b6150c6576000945050505050614a6e565b6001600160601b038816600090815260018501602052604081205488906150ee908590615c99565b6150f89190615e25565b6001600160601b038a16600081815260018801602052604081208390559192505b816151dc57604051631712e1c560e11b8152600c600482015260248101829052604481018b9052606481018790527348ce286978C74c288eA6Bc9a536BcC899DF8D17790632e25c38a9060840160006040518083038186803b15801561517e57600080fd5b505af4158015615192573d6000803e3d6000fd5b5050505060018114156151a85760019150615119565b600781815481106151bb576151bb615d0c565b60009182526020909120600b90910201546001600160601b03169050615119565b604080516001600160601b038d168152602081018c90529081018490526001600160a01b038d16907f70ca4ec64687bf265f39041896f3dbf10b9f650503cb38f2b3569fdce7489c369060600160405180910390a25060019b9a5050505050505050505050565b600154604080516001600160a01b038581166024830152604480830186905283518084039091018152606490920183526020820180516001600160e01b031663a9059cbb60e01b1790529151600093849384939116916152a39190615ee3565b6000604051808303816000865af19150503d80600081146152e0576040519150601f19603f3d011682016040523d82523d6000602084013e6152e5565b606091505b5091509150818015611e1d575080511580611e1d575080806020019051810190611e1d9190615cb0565b60008060006040845110615381575050506020810151604082015160608301516001600160601b038316158061535057506007546001600160601b03841610155b1561535a57600192505b8161536457600391505b80158061537357506008548110155b1561537c575060015b61538c565b506001915060039050815b9193909250565b600060405160005b60148110156153b6578481600c011a8183015360010161539b565b5060145b60208110156153d25783811a818301536001016153ba565b50519392505050565b600154604080516001600160a01b0386811660248301528581166044830152606480830186905283518084039091018152608490920183526020820180516001600160e01b03166323b872dd60e01b1790529151600093849384939116916154439190615ee3565b6000604051808303816000865af19150503d8060008114615480576040519150601f19603f3d011682016040523d82523d6000602084013e615485565b606091505b50915091508180156154af5750805115806154af5750808060200190518101906154af9190615cb0565b9695505050505050565b8280548282559060005260206000209081019282156154f4579160200282015b828111156154f45782518255916020019190600101906154d9565b5061550092915061554f565b5090565b82600481019282156154f457916020028201828111156154f45782518255916020019190600101906154d9565b60405180608001604052806004906020820280368337509192915050565b5b808211156155005760008155600101615550565b6001600160a01b038116811461557957600080fd5b50565b60006020828403121561558e57600080fd5b813561559981615564565b9392505050565b80356001600160601b03811681146155b757600080fd5b919050565b634e487b7160e01b600052604160045260246000fd5b604051601f8201601f1916810167ffffffffffffffff811182821017156155fb576155fb6155bc565b604052919050565b600082601f83011261561457600080fd5b8135602067ffffffffffffffff821115615630576156306155bc565b8160051b61563f8282016155d2565b928352848101820192828101908785111561565957600080fd5b83870192505b848310156156785782358252918301919083019061565f565b979650505050505050565b801515811461557957600080fd5b6000806000606084860312156156a657600080fd5b6156af846155a0565b9250602084013567ffffffffffffffff8111156156cb57600080fd5b6156d786828701615603565b92505060408401356156e881615683565b809150509250925092565b60006020828403121561570557600080fd5b5035919050565b6000806040838503121561571f57600080fd5b50508035926020909101359150565b600082601f83011261573f57600080fd5b6040516080810181811067ffffffffffffffff82111715615762576157626155bc565b60405280608084018581111561577757600080fd5b845b81811015615791578035835260209283019201615779565b509195945050505050565b60008060008060008060008060006101808a8c0312156157bb57600080fd5b6157c48a6155a0565b985060208a01356157d481615683565b975060408a0135965060608a0135955060808a0135945060a08a013593506157ff8b60c08c0161572e565b92506101408a013591506101608a013567ffffffffffffffff81111561582457600080fd5b6158308c828d01615603565b9150509295985092959850929598565b60008060006060848603121561585557600080fd5b505081359360208301359350604090920135919050565b60006020828403121561587e57600080fd5b615599826155a0565b8060005b60048110156133bc57815184526020938401939091019060010161588b565b60808101611eae8284615887565b600080604083850312156158cb57600080fd5b6158d4836155a0565b946020939093013593505050565b600081518084526020808501945080840160005b83811015615912578151875295820195908201906001016158f6565b509495945050505050565b60208152600061559960208301846158e2565b634e487b7160e01b600052602160045260246000fd5b6005811061595657615956615930565b9052565b6001600160601b03861681526001600160a01b038516602082015260a081016159866040830186615946565b9215156060820152608001529392505050565b60008060a083850312156159ac57600080fd5b6159b5836155a0565b91506159c4846020850161572e565b90509250929050565b600082601f8301126159de57600080fd5b813567ffffffffffffffff8111156159f8576159f86155bc565b615a0b601f8201601f19166020016155d2565b818152846020838601011115615a2057600080fd5b816020850160208301376000918101602001919091529392505050565b600080600060608486031215615a5257600080fd5b8335615a5d81615564565b925060208401359150604084013567ffffffffffffffff811115615a8057600080fd5b615a8c868287016159cd565b9150509250925092565b600060c082018883526020888185015287604085015286606085015260c0608085015281865180845260e086019150828801935060005b81811015615af25784516001600160a01b031683529383019391830191600101615acd565b50508093505050508260a0830152979650505050505050565b6020810160028310615b1f57615b1f615930565b91905290565b60008060408385031215615b3857600080fd5b82359150602083013567ffffffffffffffff811115615b5657600080fd5b615b62858286016159cd565b9150509250929050565b600080600060608486031215615b8157600080fd5b8335925060208401359150604084013567ffffffffffffffff811115615a8057600080fd5b60008060408385031215615bb957600080fd5b8235615bc481615564565b91506159c4602084016155a0565b60008060408385031215615be557600080fd5b82356158d481615564565b600060208284031215615c0257600080fd5b813567ffffffffffffffff811115615c1957600080fd5b614a6e848285016159cd565b60008060408385031215615c3857600080fd5b615c41836155a0565b91506020830135615c5181615683565b809150509250929050565b6020808252600d908201526c476f7665726e6f72206f6e6c7960981b604082015260600190565b634e487b7160e01b600052601160045260246000fd5b600082821015615cab57615cab615c83565b500390565b600060208284031215615cc257600080fd5b815161559981615683565b60008083128015600160ff1b850184121615615ceb57615ceb615c83565b6001600160ff1b0384018313811615615d0657615d06615c83565b50500390565b634e487b7160e01b600052603260045260246000fd5b600060208284031215615d3457600080fd5b5051919050565b634e487b7160e01b600052603160045260246000fd5b6000600160ff1b821415615d6757615d67615c83565b506000190190565b6000600019821415615d8357615d83615c83565b5060010190565b60208101611eae8284615946565b6020808252818101527f4d696e5374616b65206c6f776572207468616e20706172656e7420636f757274604082015260600190565b60006101608a15158352896020840152886040840152876060840152866080840152615dfc60a0840187615887565b8461012084015280610140840152615e16818401856158e2565b9b9a5050505050505050505050565b60008219821115615e3857615e38615c83565b500190565b6000816000190483118215151615615e5757615e57615c83565b500290565b634e487b7160e01b600052601260045260246000fd5b600082615e8157615e81615e5c565b500490565b6000600160ff1b821415615e9c57615e9c615c83565b5060000390565b600082615eb257615eb2615e5c565b500690565b60005b83811015615ed2578181015183820152602001615eba565b838111156133bc5750506000910152565b60008251615ef5818460208701615eb7565b9190910192915050565b60008060408385031215615f1257600080fd5b825191506020830151615c5181615683565b8481528360208201526080604082015260008351806080840152615f4f8160a0850160208801615eb7565b606083019390935250601f91909101601f19160160a0019392505050565b600060208284031215615f7f57600080fd5b81516155998161556456fefb75175e7dd144a612469a4316b0a6e4cee24cb54400dfdc7bfe1546cd0e309da2646970667358221220bab7ca22ba7f0c78e8966a0b829254e7d3e1b2cbc13dda910dd083e0c8d0af6464736f6c63430008090033",
  "deployedBytecode": "0x6080604052600436106103cd5760003560e01c8063823cfd70116101fd578063c13517e111610118578063e4c0aaf4116100ab578063f7434ea91161007a578063f7434ea914610c99578063f8bdb57b14610cb9578063fbf405b014610cd9578063fc6f8f1614610cf9578063fe524c3914610d1957600080fd5b8063e4c0aaf414610bbb578063eaff425a14610bdb578063f12ada8b14610bf0578063f6b4d82d14610c1057600080fd5b8063cf0c38f8116100e7578063cf0c38f814610b08578063d1c1df4814610b28578063d2b8035a14610b86578063d8b03fd814610ba657600080fd5b8063c13517e114610aa2578063c258bb1914610ab5578063c356990214610ad5578063c71f425314610ae857600080fd5b8063b1c9fe6e11610190578063b70c4e941161015f578063b70c4e94146109fd578063b888adfa14610a12578063bfabfe8f14610a28578063c057eca714610a8c57600080fd5b8063b1c9fe6e14610984578063b2866af7146109b2578063b31b4540146109d2578063b4a61608146109e857600080fd5b80638edf4741116101cc5780638edf4741146108da5780639b05c261146108fa578063a57366e71461092f578063afe15cfb1461094f57600080fd5b8063823cfd701461084d578063840bc19c1461086d5780638a9bb02a146108885780638bb04875146108ba57600080fd5b806334d5fb31116102ed57806357260364116102805780636235593f1161024f5780636235593f146107e35780636c1eb1b9146107f8578063751accd01461080d5780637717a6e81461082d57600080fd5b8063572603641461076357806359354c771461078357806359ec827e146107a35780635bc24dd3146107c357600080fd5b80633e1d09be116102bc5780633e1d09be146106cf57806343d4137f146106ef578063564a565d1461071c57806356acb0501461074d57600080fd5b806334d5fb311461065757806335975f4a1461066c5780633a1578601461068c5780633cfd1184146106a257600080fd5b806319b81529116103655780632922d604116103345780632922d604146105e15780632b6a63f1146106015780632d29a47b146106215780632ea7b4d01461064157600080fd5b806319b815291461050d5780631c3db16d1461053d5780631f5a0dd21461055d57806327e6ec8a146105b457600080fd5b80630d1b9d1a116103a15780630d1b9d1a146104665780630d83b940146104b45780630e083ec9146104d7578063115d5376146104ed57600080fd5b8062f5822c146103d25780630b274f2e146103f45780630b7414bc146104095780630c340a2414610429575b600080fd5b3480156103de57600080fd5b506103f26103ed36600461557c565b610d39565b005b34801561040057600080fd5b506103f2610d8e565b34801561041557600080fd5b506103f2610424366004615691565b61137a565b34801561043557600080fd5b50600054610449906001600160a01b031681565b6040516001600160a01b0390911681526020015b60405180910390f35b34801561047257600080fd5b506104866104813660046156f3565b611571565b604080519485526001600160a01b03909316602085015290151591830191909152606082015260800161045d565b3480156104c057600080fd5b506104c9600181565b60405190815260200161045d565b3480156104e357600080fd5b506104c9600e5481565b3480156104f957600080fd5b506103f26105083660046156f3565b6115ba565b34801561051957600080fd5b5061052d6105283660046156f3565b611c24565b604051901515815260200161045d565b34801561054957600080fd5b506104c96105583660046156f3565b611d1b565b34801561056957600080fd5b5061057d6105783660046156f3565b611e26565b604080516001600160601b0390971687529415156020870152938501929092526060840152608083015260a082015260c00161045d565b3480156105c057600080fd5b506105c9600081565b6040516001600160601b03909116815260200161045d565b3480156105ed57600080fd5b506104c96105fc36600461570c565b611e7d565b34801561060d57600080fd5b506103f261061c36600461579c565b611eb4565b34801561062d57600080fd5b506103f261063c366004615840565b612272565b34801561064d57600080fd5b506104c961271081565b34801561066357600080fd5b506105c9600181565b34801561067857600080fd5b506103f26106873660046156f3565b612b1d565b34801561069857600080fd5b506104c960065481565b3480156106ae57600080fd5b506106c26106bd36600461586c565b612c5a565b60405161045d91906158aa565b3480156106db57600080fd5b506103f26106ea3660046158b8565b612ccb565b3480156106fb57600080fd5b5061070f61070a3660046156f3565b612edd565b60405161045d919061591d565b34801561072857600080fd5b5061073c6107373660046156f3565b612f59565b60405161045d95949392919061595a565b34801561075957600080fd5b506104c9600f5481565b34801561076f57600080fd5b506103f261077e366004615999565b612fb5565b34801561078f57600080fd5b506103f261079e3660046158b8565b613064565b3480156107af57600080fd5b506104c96107be3660046156f3565b613105565b3480156107cf57600080fd5b506103f26107de3660046158b8565b613255565b3480156107ef57600080fd5b506104c9600081565b34801561080457600080fd5b506104c9600a81565b34801561081957600080fd5b506103f2610828366004615a3d565b6132f0565b34801561083957600080fd5b506103f26108483660046158b8565b6133c2565b34801561085957600080fd5b506103f26108683660046156f3565b613410565b34801561087957600080fd5b506104c96001600160ff1b0381565b34801561089457600080fd5b506108a86108a336600461570c565b61343f565b60405161045d96959493929190615a96565b3480156108c657600080fd5b506103f26108d53660046156f3565b61351f565b3480156108e657600080fd5b506104c96108f53660046156f3565b613688565b34801561090657600080fd5b5061091a6109153660046156f3565b6136a9565b6040805192835290151560208301520161045d565b34801561093b57600080fd5b506103f261094a3660046158b8565b6137b3565b34801561095b57600080fd5b5061096f61096a3660046156f3565b61385b565b6040805192835260208301919091520161045d565b34801561099057600080fd5b506002546109a590600160a01b900460ff1681565b60405161045d9190615b0b565b3480156109be57600080fd5b506103f26109cd3660046156f3565b613908565b3480156109de57600080fd5b506104c960045481565b3480156109f457600080fd5b506104c9600481565b348015610a0957600080fd5b5061052d613937565b348015610a1e57600080fd5b506104c960055481565b348015610a3457600080fd5b50610a71610a4336600461570c565b6000918252600c60209081526040808420805460028201549486526004909101909252909220549192909190565b6040805193845260208401929092529082015260600161045d565b348015610a9857600080fd5b506104c960035481565b6104c9610ab0366004615b25565b613979565b348015610ac157600080fd5b506103f2610ad036600461557c565b613cfb565b6103f2610ae3366004615b6c565b613d47565b348015610af457600080fd5b506104c9610b033660046156f3565b6143ca565b348015610b1457600080fd5b50600254610449906001600160a01b031681565b348015610b3457600080fd5b5061096f610b43366004615ba6565b6001600160a01b03919091166000908152600b602090815260408083206001600160601b0390941683526001840182528083205460029094019091529020549091565b348015610b9257600080fd5b506103f2610ba136600461570c565b614432565b348015610bb257600080fd5b5061070f614725565b348015610bc757600080fd5b506103f2610bd636600461557c565b61477d565b348015610be757600080fd5b506104c9600381565b348015610bfc57600080fd5b506103f2610c0b366004615bd2565b6147c9565b348015610c1c57600080fd5b50610c67610c2b3660046156f3565b600d602052600090815260409020805460018201546002909201546001600160a01b03821692600160a01b9092046001600160601b0316919084565b604080516001600160a01b0390951685526001600160601b03909316602085015291830152606082015260800161045d565b348015610ca557600080fd5b506104c9610cb4366004615bf0565b614a22565b348015610cc557600080fd5b506103f2610cd4366004615c25565b614a76565b348015610ce557600080fd5b50600154610449906001600160a01b031681565b348015610d0557600080fd5b506104c9610d143660046156f3565b614b2a565b348015610d2557600080fd5b5061052d610d343660046158b8565b614b59565b6000546001600160a01b03163314610d6c5760405162461bcd60e51b8152600401610d6390615c5c565b60405180910390fd5b600180546001600160a01b0319166001600160a01b0392909216919091179055565b6000600254600160a01b900460ff166001811115610dae57610dae615930565b1415610e7457600354600554610dc49042615c99565b1015610e125760405162461bcd60e51b815260206004820152601960248201527f4d696e5374616b696e6754696d65206e6f7420706173736564000000000000006044820152606401610d63565b600954610e585760405162461bcd60e51b81526020600482015260146024820152734e6f20444b206e6565647320667265657a696e6760601b6044820152606401610d63565b6002805460ff60a01b1916600160a01b1790554360065561132f565b6000306001600160a01b031663b70c4e946040518163ffffffff1660e01b815260040160206040518083038186803b158015610eaf57600080fd5b505afa158015610ec3573d6000803e3d6000fd5b505050506040513d601f19601f82011682018060405250810190610ee79190615cb0565b600954909150600090610efc90600190615ccd565b90505b6000811261131f57600060098281548110610f1c57610f1c615d0c565b906000526020600020015490506000600860098481548110610f4057610f40615d0c565b906000526020600020015481548110610f5b57610f5b615d0c565b60009182526020909120600260049092020101546001600160a01b03169050838015610ff55750806001600160a01b031663c86ed8926040518163ffffffff1660e01b815260040160206040518083038186803b158015610fbb57600080fd5b505afa158015610fcf573d6000803e3d6000fd5b505050506040513d601f19601f82011682018060405250810190610ff39190615cb0565b155b1561110f57806001600160a01b0316630b274f2e6040518163ffffffff1660e01b8152600401600060405180830381600087803b15801561103557600080fd5b505af1158015611049573d6000803e3d6000fd5b50505050806001600160a01b031663c86ed8926040518163ffffffff1660e01b815260040160206040518083038186803b15801561108657600080fd5b505afa15801561109a573d6000803e3d6000fd5b505050506040513d601f19601f820116820180604052508101906110be9190615cb0565b61110a5760405162461bcd60e51b815260206004820152601e60248201527f536f6d6520444b206e6f7420696e205265736f6c76696e6720706861736500006044820152606401610d63565b61130c565b806001600160a01b031663c86ed8926040518163ffffffff1660e01b815260040160206040518083038186803b15801561114857600080fd5b505afa15801561115c573d6000803e3d6000fd5b505050506040513d601f19601f820116820180604052508101906111809190615cb0565b6111cc5760405162461bcd60e51b815260206004820152601e60248201527f536f6d6520444b206e6f7420696e205265736f6c76696e6720706861736500006044820152606401610d63565b806001600160a01b031663034327446040518163ffffffff1660e01b815260040160206040518083038186803b15801561120557600080fd5b505afa158015611219573d6000803e3d6000fd5b505050506040513d601f19601f8201168201806040525081019061123d9190615d22565b61130c5760006008838154811061125657611256615d0c565b600091825260209091206002600490920201018054911515600160a01b0260ff60a01b1990921691909117905560095461129290600190615ccd565b8312156112e457600980546112a990600190615c99565b815481106112b9576112b9615d0c565b9060005260206000200154600984815481106112d7576112d7615d0c565b6000918252602090912001555b60098054806112f5576112f5615d3b565b600190038181906000526020600020016000905590555b50508061131890615d51565b9050610eff565b50506002805460ff60a01b191690555b426005556002546040517f31f72b44f546d9e7eaec13f65636997665e15f134a81c82924f568f5c0d07b939161137091600160a01b90910460ff1690615b0b565b60405180910390a1565b6000546001600160a01b031633146113a45760405162461bcd60e51b8152600401610d6390615c5c565b60006007846001600160601b0316815481106113c2576113c2615d0c565b90600052602060002090600b0201905060005b835181101561156a5782156114905760008482815181106113f8576113f8615d0c565b60200260200101511180156114295750600854845185908390811061141f5761141f615d0c565b6020026020010151105b6114665760405162461bcd60e51b815260206004820152600e60248201526d0aee4dedcce40889640d2dcc8caf60931b6044820152606401610d63565b61148b8585838151811061147c5761147c615d0c565b60200260200101516001614ba1565b611558565b6001600160601b03851660011480156114e65750600060088583815181106114ba576114ba615d0c565b6020026020010151815481106114d2576114d2615d0c565b906000526020600020906004020160000154145b156115335760405162461bcd60e51b815260206004820181905260248201527f43616e27742064697361626c6520526f6f7420444b20696e2047656e6572616c6044820152606401610d63565b6115588585838151811061154957611549615d0c565b60200260200101516000614ba1565b8061156281615d6f565b9150506113d5565b5050505050565b6008818154811061158157600080fd5b60009182526020909120600490910201805460028201546003909201549092506001600160a01b03821691600160a01b900460ff169084565b6000600a82815481106115cf576115cf615d0c565b600091825260208220600490910201805460078054929450916001600160601b0390911690811061160257611602615d0c565b6000918252602082206003850154600b90920201925061162490600190615c99565b9050600083600301828154811061163d5761163d615d0c565b6000918252602082206007909102019150600185015460ff16600481111561166757611667615930565b141561179a5760008211806116b957506001840154600684019060ff16600481111561169557611695615930565b600481106116a5576116a5615d0c565b015460028501546116b69042615c99565b10155b6117055760405162461bcd60e51b815260206004820152601e60248201527f45766964656e6365206e6f7420706173736564202626202141707065616c00006044820152606401610d63565b60038101546006820154146117545760405162461bcd60e51b815260206004820152601560248201527444697370757465207374696c6c2064726177696e6760581b6044820152606401610d63565b8254600160601b900460ff1661176b57600261176e565b60015b60018086018054909160ff199091169083600481111561179057611790615930565b0217905550611bd6565b60018085015460ff1660048111156117b4576117b4615930565b1415611905576001840154600684019060ff1660048111156117d8576117d8615930565b600481106117e8576117e8615d0c565b015460028501546117f99042615c99565b1015806118a25750600881600001548154811061181857611818615d0c565b6000918252602090912060049182020160020154604051630baa64d160e01b81529182018790526001600160a01b031690630baa64d19060240160206040518083038186803b15801561186a57600080fd5b505afa15801561187e573d6000803e3d6000fd5b505050506040513d601f19601f820116820180604052508101906118a29190615cb0565b6118ee5760405162461bcd60e51b815260206004820152601860248201527f436f6d6d697420706572696f64206e6f742070617373656400000000000000006044820152606401610d63565b6001808501805460029260ff199091169083611790565b6002600185015460ff16600481111561192057611920615930565b1415611aa8576001840154600684019060ff16600481111561194457611944615930565b6004811061195457611954615d0c565b015460028501546119659042615c99565b101580611a0e5750600881600001548154811061198457611984615d0c565b60009182526020909120600491820201600201546040516336a66c7560e11b81529182018790526001600160a01b031690636d4cd8ea9060240160206040518083038186803b1580156119d657600080fd5b505afa1580156119ea573d6000803e3d6000fd5b505050506040513d601f19601f82011682018060405250810190611a0e9190615cb0565b611a535760405162461bcd60e51b8152602060048201526016602482015275159bdd19481c195c9a5bd9081b9bdd081c185cdcd95960521b6044820152606401610d63565b600184018054600360ff199091161790558354604051600160601b9091046001600160a01b03169086907fa5d41b970d849372be1da1481ffd78d162bfe57a7aa2fe4e5fb73481fa5ac24f90600090a3611bd6565b6003600185015460ff166004811115611ac357611ac3615930565b1415611b6d576001840154600684019060ff166004811115611ae757611ae7615930565b60048110611af757611af7615d0c565b01546002850154611b089042615c99565b1015611b565760405162461bcd60e51b815260206004820152601860248201527f41707065616c20706572696f64206e6f742070617373656400000000000000006044820152606401610d63565b6001808501805460049260ff199091169083611790565b6004600185015460ff166004811115611b8857611b88615930565b1415611bd65760405162461bcd60e51b815260206004820152601760248201527f4469737075746520706572696f642069732066696e616c0000000000000000006044820152606401610d63565b426002850155600184015460405186917f4e6f5cf43b95303e86aee81683df63992061723a829ee012db21dad388756b9191611c159160ff1690615d8a565b60405180910390a25050505050565b600080600a8381548110611c3a57611c3a615d0c565b6000918252602082206003600490920201908101805491935090611c6090600190615c99565b81548110611c7057611c70615d0c565b600091825260208220845460078054938102909201945090916001600160601b03909116908110611ca357611ca3615d0c565b90600052602060002090600b02019050806005015482600301541015611cce57506000949350505050565b80546007805490916001600160601b0316908110611cee57611cee615d0c565b6000918252602080832094548352600a600b9092029094010190925250604090205460ff16159392505050565b600080600a8381548110611d3157611d31615d0c565b6000918252602082206003600490920201908101805491935090611d5790600190615c99565b81548110611d6757611d67615d0c565b9060005260206000209060070201905060006008826000015481548110611d9057611d90615d0c565b6000918252602090912060049182020160020154604051631c3db16d60e01b81529182018790526001600160a01b031691508190631c3db16d9060240160206040518083038186803b158015611de557600080fd5b505afa158015611df9573d6000803e3d6000fd5b505050506040513d601f19601f82011682018060405250810190611e1d9190615d22565b95945050505050565b60078181548110611e3657600080fd5b60009182526020909120600b9091020180546002820154600383015460048401546005909401546001600160601b0384169550600160601b90930460ff1693919290919086565b6000828152600c60205260408120600201805483908110611ea057611ea0615d0c565b906000526020600020015490505b92915050565b6000546001600160a01b03163314611ede5760405162461bcd60e51b8152600401610d6390615c5c565b8660078a6001600160601b031681548110611efb57611efb615d0c565b90600052602060002090600b0201600201541115611f2b5760405162461bcd60e51b8152600401610d6390615d98565b6000815111611f6c5760405162461bcd60e51b815260206004820152600d60248201526c21537570706f7274656420444b60981b6044820152606401610d63565b6001600160601b038916611fc25760405162461bcd60e51b815260206004820181905260248201527f496e76616c69643a20466f726b696e6720636f75727420617320706172656e746044820152606401610d63565b60078054600181018255600091825290600b82027fa66cc928b5edb82af9bd49922954155ab7b0942694bea4ce44661d9a8736c68801905b83518110156120df57600084828151811061201757612017615d0c565b60200260200101511180156120485750600854845185908390811061203e5761203e615d0c565b6020026020010151105b6120855760405162461bcd60e51b815260206004820152600e60248201526d0aee4dedcce40889640d2dcc8caf60931b6044820152606401610d63565b600182600a01600086848151811061209f5761209f615d0c565b6020026020010151815260200190815260200160002060006101000a81548160ff02191690831515021790555080806120d790615d6f565b915050611ffa565b5080546bffffffffffffffffffffffff19166001600160601b038c16178155604080516000815260208101918290525161211d9160018401916154b9565b50805460ff60601b1916600160601b8b15150217815560028101899055600381018890556004808201889055600582018790556121609060068301908790615504565b5060405163483abc4f60e11b8152600c6004820152602481018390526044810185905273__$52cf47af9c3c0d67e54ac2a3225447effa$__90639075789e9060640160006040518083038186803b1580156121ba57600080fd5b505af41580156121ce573d6000803e3d6000fd5b5050505060078b6001600160601b0316815481106121ee576121ee615d0c565b600091825260208083206001600b909302018201805492830181558352909120018290556040516001600160601b038c169083907f2e689e2ae8e3c8e02797c3ff9998e8297e587a74bc6d0e48b6b5991f70991d1c9061225d908e908e908e908e908e908e908e908e90615dcd565b60405180910390a35050505050505050505050565b6000600a848154811061228757612287615d0c565b600091825260209091206004918202019150600182015460ff1660048111156122b2576122b2615930565b146122f35760405162461bcd60e51b815260206004820152601160248201527008515e1958dd5d1a5bdb881c195c9a5bd9607a1b6044820152606401610d63565b600081600301848154811061230a5761230a615d0c565b906000526020600020906007020190506000600882600001548154811061233357612333615d0c565b60009182526020822060049182020160020154908401546001600160a01b039091169250612362908690615e25565b6005840154600685015460405163368efae360e21b8152600481018b9052602481018a905292935090916000906001600160a01b0386169063da3beb8c9060440160206040518083038186803b1580156123bb57600080fd5b505afa1580156123cf573d6000803e3d6000fd5b505050506040513d601f19601f820116820180604052508101906123f39190615d22565b90506000808261240e5783861115612409578395505b61242e565b612419846002615e3d565b86111561242e5761242b846002615e3d565b95505b60048801545b86811015612af7578481101561286c57604051634fe264fb60e01b8152600481018e9052602481018d9052604481018290526001600160a01b03891690634fe264fb9060640160206040518083038186803b15801561249257600080fd5b505afa1580156124a6573d6000803e3d6000fd5b505050506040513d601f19601f820116820180604052508101906124ca9190615d22565b91506127108211156124dc5761271091505b60006127106124eb8482615c99565b8b600101546124fa9190615e3d565b6125049190615e72565b90506125108188615e25565b965089600601828154811061252757612527615d0c565b60009182526020808320909101546001600160a01b0316808352600b825260408084208f546001600160601b03168552600201909252908220805491965083929091612574908490615c99565b90915550508a546007805483926001600160601b031690811061259957612599615d0c565b90600052602060002090600b0201600201546125b59190615e25565b6001600160a01b0385166000908152600b602090815260408083208f546001600160601b0316845260010190915290205410612649576001600160a01b0384166000908152600b602090815260408083208e546001600160601b03168452600101909152812054612627908390615c99565b8c549091506126429086906001600160601b03168385614c29565b505061269a565b6001600160a01b0384166000908152600b602090815260408083208e546001600160601b031684526001019091529020541561269a578a546126989085906001600160601b0316600084614c29565b505b60405163ba66fde760e01b8152600481018f9052602481018e9052604481018390526001600160a01b038a169063ba66fde79060640160206040518083038186803b1580156126e857600080fd5b505afa1580156126fc573d6000803e3d6000fd5b505050506040513d601f19601f820116820180604052508101906127209190615cb0565b6127bd5760005b6001600160a01b0385166000908152600b60205260409020548110156127bb576001600160a01b0385166000908152600b6020526040902080546127a89187918490811061277757612777615d0c565b9060005260206000209060029182820401919006600c029054906101000a90046001600160601b0316600080614c29565b50806127b381615d6f565b915050612727565b505b8d6001600160a01b0385167f24f45c2b08bbde8c837d70b67991ccb7660537cf749de21a940ae4858b681e196127f284615e86565b60408051918252600060208301520160405180910390a3612814600187615c99565b8214156128665784612866576000805460028c01546040516001600160a01b039092169281156108fc029290818181858888f1505060005461286493506001600160a01b03169150899050615243565b505b50612ae5565b6001600160a01b038816634fe264fb8e8e6128878986615ea3565b6040516001600160e01b031960e086901b16815260048101939093526024830191909152604482015260640160206040518083038186803b1580156128cb57600080fd5b505afa1580156128df573d6000803e3d6000fd5b505050506040513d601f19601f820116820180604052508101906129039190615d22565b91506127108211156129155761271091505b600689016129238683615ea3565b8154811061293357612933615d0c565b60009182526020909120015460018a01546001600160a01b03909116935061271090612960908490615e3d565b61296a9190615e72565b6001600160a01b0384166000908152600b602090815260408083208e546001600160601b03168452600201909152812080549091906129aa908490615c99565b90915550506001600160a01b0383166000908152600b602090815260408083208d546001600160601b03168452600101909152902054612a12576000612710838b600101546129f99190615e3d565b612a039190615e72565b9050612a0f8482615243565b50505b600061271083612a22878a615e72565b612a2c9190615e3d565b612a369190615e72565b9050600061271084878d60020154612a4e9190615e72565b612a589190615e3d565b612a629190615e72565b9050612a6e8583615243565b506040516001600160a01b0386169082156108fc029083906000818181858888f19350505050508e856001600160a01b03167f24f45c2b08bbde8c837d70b67991ccb7660537cf749de21a940ae4858b681e198484604051612ada929190918252602082015260400190565b60405180910390a350505b80612aef81615d6f565b915050612434565b5084886005015414612b0b57600588018590555b50505050600490930155505050505050565b6000600254600160a01b900460ff166001811115612b3d57612b3d615930565b14612b7c5760405162461bcd60e51b815260206004820152600f60248201526e10a9ba30b5b4b73390383430b9b29760891b6044820152606401610d63565b6000600e54600183600f54612b919190615e25565b612b9b9190615c99565b11612ba65781612bc1565b600f54600e54612bb69190615c99565b612bc1906001615e25565b9050600081600f54612bd39190615e25565b600f549091505b81811015612c52576000818152600d60205260409020805460018201546002830154612c22926001600160a01b03811692600160a01b9091046001600160601b031691614c29565b50506000818152600d60205260408120818155600181018290556002015580612c4a81615d6f565b915050612bda565b50600f555050565b612c62615531565b60006007836001600160601b031681548110612c8057612c80615d0c565b60009182526020909120604080516080810191829052600b9093029091019250600683019060049082845b815481526020019060010190808311612cab575050505050915050919050565b6000546001600160a01b03163314612cf55760405162461bcd60e51b8152600401610d6390615c5c565b6001600160601b03821660011480612d68575080600780846001600160601b031681548110612d2657612d26615d0c565b60009182526020909120600b909102015481546001600160601b03909116908110612d5357612d53615d0c565b90600052602060002090600b02016002015411155b612d845760405162461bcd60e51b8152600401610d6390615d98565b60005b6007836001600160601b031681548110612da357612da3615d0c565b90600052602060002090600b020160010180549050811015612e5c5781600780856001600160601b031681548110612ddd57612ddd615d0c565b90600052602060002090600b02016001018381548110612dff57612dff615d0c565b906000526020600020015481548110612e1a57612e1a615d0c565b90600052602060002090600b0201600201541015612e4a5760405162461bcd60e51b8152600401610d6390615d98565b80612e5481615d6f565b915050612d87565b50806007836001600160601b031681548110612e7a57612e7a615d0c565b90600052602060002090600b020160020181905550816001600160601b0316600080516020615f8b833981519152604051612ed1906020808252600890820152676d696e5374616b6560c01b604082015260600190565b60405180910390a25050565b606060088281548110612ef257612ef2615d0c565b9060005260206000209060040201600101805480602002602001604051908101604052809291908181526020018280548015612f4d57602002820191906000526020600020905b815481526020019060010190808311612f39575b50505050509050919050565b600a8181548110612f6957600080fd5b60009182526020909120600490910201805460018201546002909201546001600160601b0382169350600160601b9091046001600160a01b03169160ff80821692610100909204169085565b6000546001600160a01b03163314612fdf5760405162461bcd60e51b8152600401610d6390615c5c565b806007836001600160601b031681548110612ffc57612ffc615d0c565b90600052602060002090600b020160060190600461301b929190615504565b50816001600160601b0316600080516020615f8b833981519152604051612ed1906020808252600e908201526d1d1a5b595cd4195c94195c9a5bd960921b604082015260600190565b6000546001600160a01b0316331461308e5760405162461bcd60e51b8152600401610d6390615c5c565b806007836001600160601b0316815481106130ab576130ab615d0c565b90600052602060002090600b020160040181905550816001600160601b0316600080516020615f8b833981519152604051612ed1906020808252600b908201526a3332b2a337b9253ab937b960a91b604082015260600190565b600080600a838154811061311b5761311b615d0c565b600091825260208220600360049092020190810180549193509061314190600190615c99565b8154811061315157613151615d0c565b600091825260208220845460078054938102909201945090916001600160601b0390911690811061318457613184615d0c565b90600052602060002090600b0201905080600501548260030154106132235782546001600160601b0316600114156131c5576001600160ff1b03935061324d565b60038201546131d5906002615e3d565b6131e0906001615e25565b81546007805490916001600160601b031690811061320057613200615d0c565b90600052602060002090600b02016004015461321c9190615e3d565b935061324d565b6003820154613233906002615e3d565b61323e906001615e25565b8160040154611e1d9190615e3d565b505050919050565b6000546001600160a01b0316331461327f5760405162461bcd60e51b8152600401610d6390615c5c565b806007836001600160601b03168154811061329c5761329c615d0c565b90600052602060002090600b020160030181905550816001600160601b0316600080516020615f8b833981519152604051612ed190602080825260059082015264616c70686160d81b604082015260600190565b6000546001600160a01b0316331461331a5760405162461bcd60e51b8152600401610d6390615c5c565b6000836001600160a01b031683836040516133359190615ee3565b60006040518083038185875af1925050503d8060008114613372576040519150601f19603f3d011682016040523d82523d6000602084013e613377565b606091505b50509050806133bc5760405162461bcd60e51b8152602060048201526011602482015270155b9cdd58d8d95cdcd99d5b0818d85b1b607a1b6044820152606401610d63565b50505050565b6133cf3383836000614c29565b61340c5760405162461bcd60e51b815260206004820152600e60248201526d14dd185ada5b99c819985a5b195960921b6044820152606401610d63565b5050565b6000546001600160a01b0316331461343a5760405162461bcd60e51b8152600401610d6390615c5c565b600355565b6000806000806060600080600a898154811061345d5761345d615d0c565b9060005260206000209060040201600301888154811061347f5761347f615d0c565b9060005260206000209060070201905080600101548160020154826004015483600501548460060185600001548180548060200260200160405190810160405280929190818152602001828054801561350157602002820191906000526020600020905b81546001600160a01b031681526001909101906020018083116134e3575b50505050509150965096509650965096509650509295509295509295565b6000600a828154811061353457613534615d0c565b600091825260209091206004918202019150600182015460ff16600481111561355f5761355f615930565b146135a05760405162461bcd60e51b815260206004820152601160248201527008515e1958dd5d1a5bdb881c195c9a5bd9607a1b6044820152606401610d63565b6001810154610100900460ff16156135fa5760405162461bcd60e51b815260206004820152601760248201527f52756c696e6720616c72656164792065786563757465640000000000000000006044820152606401610d63565b600061360583611d1b565b60018301805461ff001916610100179055825460405163188d362b60e11b815260048101869052602481018390529192506001600160a01b03600160601b909104169063311a6c5690604401600060405180830381600087803b15801561366b57600080fd5b505af115801561367f573d6000803e3d6000fd5b50505050505050565b6009818154811061369857600080fd5b600091825260209091200154905081565b6000806000600a84815481106136c1576136c1615d0c565b60009182526020822060036004909202019081018054919350906136e790600190615c99565b815481106136f7576136f7615d0c565b90600052602060002090600702019050600881600001548154811061371e5761371e615d0c565b6000918252602090912060049182020160020154604051639b05c26160e01b81529182018790526001600160a01b031690639b05c26190602401604080518083038186803b15801561376f57600080fd5b505afa158015613783573d6000803e3d6000fd5b505050506040513d601f19601f820116820180604052508101906137a79190615eff565b90969095509350505050565b6000546001600160a01b031633146137dd5760405162461bcd60e51b8152600401610d6390615c5c565b806007836001600160601b0316815481106137fa576137fa615d0c565b90600052602060002090600b020160050181905550816001600160601b0316600080516020615f8b833981519152604051612ed19060208082526012908201527106a75726f7273466f72436f7572744a756d760741b604082015260600190565b6000806000600a848154811061387357613873615d0c565b6000918252602090912060049091020190506003600182015460ff1660048111156138a0576138a0615930565b14156138f9576002810154815460078054929550916001600160601b039091169081106138cf576138cf615d0c565b600091825260209091206009600b90920201015460028201546138f29190615e25565b9150613902565b60009250600091505b50915091565b6000546001600160a01b031633146139325760405162461bcd60e51b8152600401610d6390615c5c565b600455565b60006001600254600160a01b900460ff16600181111561395957613959615930565b14801561397457506004546005546139719042615c99565b10155b905090565b600061398482614a22565b3410156139d35760405162461bcd60e51b815260206004820181905260248201527f45544820746f6f206c6f7720666f72206172626974726174696f6e20636f73746044820152606401610d63565b6000806139df8461530f565b92505091506007826001600160601b031681548110613a0057613a00615d0c565b60009182526020808320848452600a600b90930201919091019052604090205460ff16613a6f5760405162461bcd60e51b815260206004820152601a60248201527f444b20756e737570706f7274656420627920737562636f7572740000000000006044820152606401610d63565b600a80546001810182556000918252600160601b33026001600160601b03851617600482027fc65a7bb8d6351c1cf70c95a316cc6a92839c986682d98bc35f958f4883f9d2a88101918255427fc65a7bb8d6351c1cf70c95a316cc6a92839c986682d98bc35f958f4883f9d2aa909101556008805492965090929184908110613afa57613afa615d0c565b600091825260208220600260049092020101548354600780546001600160a01b039093169450916001600160601b03909116908110613b3b57613b3b615d0c565b60009182526020808320600387018054600181018255908552919093206004600b9093029093019182015491935060070290910190613b7a9034615e72565b600380830191909155858255820154600283015461271091613b9b91615e3d565b613ba59190615e72565b60018201553460028201556008805486908110613bc457613bc4615d0c565b906000526020600020906004020160020160149054906101000a900460ff16613c5b57600160088681548110613bfc57613bfc615d0c565b6000918252602082206002600490920201018054921515600160a01b0260ff60a01b19909316929092179091556009805460018101825591527f6e1540171b6c0c960b71a7020d9f60077f6af931a8bbf590da0223dacf75c7af018590555b60038101546040516302dbb79560e61b81526001600160a01b0385169163b6ede54091613c90918b918e918e91600401615f24565b600060405180830381600087803b158015613caa57600080fd5b505af1158015613cbe573d6000803e3d6000fd5b50506040513392508991507f141dfc18aa6a56fc816f44f0e9e2f1ebc92b15ab167770e17db5b084c10ed99590600090a350505050505092915050565b6000546001600160a01b03163314613d255760405162461bcd60e51b8152600401610d6390615c5c565b600280546001600160a01b0319166001600160a01b0392909216919091179055565b613d5083613105565b341015613d9f5760405162461bcd60e51b815260206004820152601b60248201527f45544820746f6f206c6f7720666f722061707065616c20636f737400000000006044820152606401610d63565b6000600a8481548110613db457613db4615d0c565b6000918252602090912060049091020190506003600182015460ff166004811115613de157613de1615930565b14613e275760405162461bcd60e51b815260206004820152601660248201527544697370757465206e6f742061707065616c61626c6560501b6044820152606401610d63565b60038101805460009190613e3d90600190615c99565b81548110613e4d57613e4d615d0c565b906000526020600020906007020190506008816000015481548110613e7457613e74615d0c565b60009182526020909120600490910201600201546001600160a01b03163314613ed25760405162461bcd60e51b815260206004820152601060248201526f44697370757465204b6974206f6e6c7960801b6044820152606401610d63565b8154815460038401805460018101825560009182526020909120600780546001600160601b03909516949281029091019183908110613f1357613f13615d0c565b90600052602060002090600b020160050154846003015410614117576007836001600160601b031681548110613f4b57613f4b615d0c565b600091825260208220600b90910201546001600160601b031693505b600a81101561405c576007846001600160601b031681548110613f8c57613f8c615d0c565b60009182526020808320868452600a600b90930201919091019052604090205460ff1615613fb95761405c565b600060088481548110613fce57613fce615d0c565b906000526020600020906004020160000154146140115760088381548110613ff857613ff8615d0c565b906000526020600020906004020160000154925061404a565b6007846001600160601b03168154811061402d5761402d615d0c565b60009182526020909120600b90910201546001600160601b031693505b8061405481615d6f565b915050613f67565b506007836001600160601b03168154811061407957614079615d0c565b60009182526020808320858452600a600b90930201919091019052604090205460ff166140a557600192505b84546001600160601b0384811691161461411757845460038601546001600160601b03909116906140d890600190615c99565b6040516001600160601b03861681528a907f736e3f52761298c8c0823e1ebf482ed3c5ecb304f743d2d91a7c006e8e8d7a1f9060200160405180910390a45b84546bffffffffffffffffffffffff19166001600160601b038416908117865560018601805460ff191690554260028701556007805460009290811061415f5761415f615d0c565b90600052602060002090600b0201905080600401543461417f9190615e72565b82600301819055506127108160030154826002015461419e9190615e3d565b6141a89190615e72565b600183015534600283015582825560088054849081106141ca576141ca615d0c565b906000526020600020906004020160020160149054906101000a900460ff166142615760016008848154811061420257614202615d0c565b6000918252602082206002600490920201018054921515600160a01b0260ff60a01b19909316929092179091556009805460018101825591527f6e1540171b6c0c960b71a7020d9f60077f6af931a8bbf590da0223dacf75c7af018390555b8454825414614347578454600387015461427d90600190615c99565b83546040519081528b907fcbe7939a71f0b369c7471d760a0a99b60b7bb010ee0406cba8a46679d1ea77569060200160405180910390a460088260000154815481106142cb576142cb615d0c565b600091825260209091206004918202016002015460038401546040516302dbb79560e61b81526001600160a01b039092169263b6ede54092614314928e928e928e929101615f24565b600060405180830381600087803b15801561432e57600080fd5b505af1158015614342573d6000803e3d6000fd5b505050505b8554604051600160601b9091046001600160a01b0316908a907f9c9b64db9e130f48381bf697abf638e73117dbfbfd7a4484f2da3ba188f4187d90600090a3887f4e6f5cf43b95303e86aee81683df63992061723a829ee012db21dad388756b9160006040516143b79190615d8a565b60405180910390a2505050505050505050565b600080600a83815481106143e0576143e0615d0c565b9060005260206000209060040201905080600301600182600301805490506144089190615c99565b8154811061441857614418615d0c565b906000526020600020906007020160030154915050919050565b6001600254600160a01b900460ff16600181111561445257614452615930565b1461448d5760405162461bcd60e51b815260206004820152600b60248201526a57726f6e6720706861736560a81b6044820152606401610d63565b6000600a83815481106144a2576144a2615d0c565b906000526020600020906004020190506000600182600301805490506144c89190615c99565b905060008260030182815481106144e1576144e1615d0c565b6000918252602082206007909102019150600184015460ff16600481111561450b5761450b615930565b1461454b5760405162461bcd60e51b815260206004820152601060248201526f08515d9a59195b98d9481c195c9a5bd960821b6044820152606401610d63565b6000600882600001548154811061456457614564615d0c565b60009182526020822060026004909202010154600684015460038501546001600160a01b039092169350919061459a8884615e25565b11156145aa5783600301546145b4565b6145b48783615e25565b9050815b8181101561471a57604051633b30414760e01b8152600481018a90526000906001600160a01b03861690633b30414790602401602060405180830381600087803b15801561460557600080fd5b505af1158015614619573d6000803e3d6000fd5b505050506040513d601f19601f8201168201806040525081019061463d9190615f6d565b90506001600160a01b038116156147075760018601546001600160a01b0382166000908152600b602090815260408083208c546001600160601b0316845260020190915281208054909190614693908490615e25565b909155505060068601805460018101825560009182526020918290200180546001600160a01b0319166001600160a01b038416908117909155604080518a81529283018590528c927f6119cf536152c11e0a9a6c22f3953ce4ecc93ee54fa72ffa326ffabded21509b910160405180910390a35b508061471281615d6f565b9150506145b8565b505050505050505050565b6060600980548060200260200160405190810160405280929190818152602001828054801561477357602002820191906000526020600020905b81548152602001906001019080831161475f575b5050505050905090565b6000546001600160a01b031633146147a75760405162461bcd60e51b8152600401610d6390615c5c565b600080546001600160a01b0319166001600160a01b0392909216919091179055565b6000546001600160a01b031633146147f35760405162461bcd60e51b8152600401610d6390615c5c565b60085480821061482f5760405162461bcd60e51b81526020600482015260076024820152660854185c995b9d60ca1b6044820152606401610d63565b600082156148ac576008838154811061484a5761484a615d0c565b90600052602060002090600402016003015460016148689190615e25565b9050600a81106148ac5760405162461bcd60e51b815260206004820152600f60248201526e088cae0e8d040d8caeccad840dac2f608b1b6044820152606401610d63565b6040805160a08101825284815281516000808252602080830185528084019283526001600160a01b038916948401949094526060830181905260808301859052600880546001810182559152825160049091027ff3f7a9fe364faab93b216da50a3214154f22a0a2b415b23a84c8169e8b636ee38101918255915180519394919361495e937ff3f7a9fe364faab93b216da50a3214154f22a0a2b415b23a84c8169e8b636ee4019291909101906154b9565b50604082015160028201805460608501511515600160a01b026001600160a81b03199091166001600160a01b039093169290921791909117905560809091015160039091015560088054849081106149b8576149b8615d0c565b600091825260208083206001600490930201820180549283018155835282200183905560405184916001600160a01b0387169185917f7921860794ac14fda09ee75f7160a5a3d266e3352f7954d0401606a92a26c49891a4826133bc576133bc6001836001614ba1565b6000806000614a308461530f565b5091509150806007836001600160601b031681548110614a5257614a52615d0c565b90600052602060002090600b020160040154614a6e9190615e3d565b949350505050565b6000546001600160a01b03163314614aa05760405162461bcd60e51b8152600401610d6390615c5c565b806007836001600160601b031681548110614abd57614abd615d0c565b90600052602060002090600b0201600001600c6101000a81548160ff021916908315150217905550816001600160601b0316600080516020615f8b833981519152604051612ed1906020808252600b908201526a68696464656e566f74657360a81b604082015260600190565b6000600a8281548110614b3f57614b3f615d0c565b600091825260209091206003600490920201015492915050565b60006007836001600160601b031681548110614b7757614b77615d0c565b60009182526020808320948352600b91909102909301600a0190925250604090205460ff16919050565b806007846001600160601b031681548110614bbe57614bbe615d0c565b60009182526020808320868452600b92909202909101600a0190526040808220805460ff19169315159390931790925590518215159184916001600160601b038716917fb47629acdf64971062d40984f77d3dee212d735b11e3e8c7a4222d9f0572cc7991a4505050565b60006001600160601b0384161580614c4b57506007546001600160601b038516115b15614c5857506000614a6e565b6001600160a01b0385166000908152600b6020526040812090614c7b8787615393565b604051637521ccb160e01b8152600c60048201526001600160601b03881660248201526044810182905290915060009073__$52cf47af9c3c0d67e54ac2a3225447effa$__90637521ccb19060640160206040518083038186803b158015614ce257600080fd5b505af4158015614cf6573d6000803e3d6000fd5b505050506040513d601f19601f82011682018060405250810190614d1a9190615d22565b90508515614da8576007876001600160601b031681548110614d3e57614d3e615d0c565b90600052602060002090600b020160020154861080614d7657506001600160601b038716600090815260028401602052604090205486105b15614d875760009350505050614a6e565b80158015614d9757508254600411155b15614da85760009350505050614a6e565b6000600254600160a01b900460ff166001811115614dc857614dc8615930565b14614e74576040518060800160405280896001600160a01b03168152602001886001600160601b0316815260200187815260200186815250600d6000600e60008154614e1390615d6f565b9182905550815260208082019290925260409081016000208351928401516001600160601b0316600160a01b026001600160a01b039093169290921782558201516001808301919091556060909201516002909101559350614a6e92505050565b6000818710614ef157614e878288615c99565b90508015614edf57614e9a8930836153db565b15614ee45781614edf578354600180820186556000868152602090206002830401805491909216600c026101000a6001600160601b0381810219909216918b16021790555b6150c6565b6000945050505050614a6e565b8661508e576001600160601b03881660009081526002850160205260409020548690614f1d9084615c99565b614f279190615c99565b90508015614edf57614f398982615243565b15614ee45760005b845481101561508857886001600160601b0316856000018281548110614f6957614f69615d0c565b600091825260209091206002820401546001909116600c026101000a90046001600160601b031614156150765784548590614fa690600190615c99565b81548110614fb657614fb6615d0c565b9060005260206000209060029182820401919006600c029054906101000a90046001600160601b0316856000018281548110614ff457614ff4615d0c565b9060005260206000209060029182820401919006600c026101000a8154816001600160601b0302191690836001600160601b031602179055508460000180548061504057615040615d3b565b60008281526020902060026000199092019182040180546001600160601b03600c60018516026101000a02191690559055615088565b8061508081615d6f565b915050614f41565b506150c6565b856150998884615c99565b6150a39190615c99565b905080156150c6576150b58982615243565b6150c6576000945050505050614a6e565b6001600160601b038816600090815260018501602052604081205488906150ee908590615c99565b6150f89190615e25565b6001600160601b038a16600081815260018801602052604081208390559192505b816151dc57604051631712e1c560e11b8152600c600482015260248101829052604481018b90526064810187905273__$52cf47af9c3c0d67e54ac2a3225447effa$__90632e25c38a9060840160006040518083038186803b15801561517e57600080fd5b505af4158015615192573d6000803e3d6000fd5b5050505060018114156151a85760019150615119565b600781815481106151bb576151bb615d0c565b60009182526020909120600b90910201546001600160601b03169050615119565b604080516001600160601b038d168152602081018c90529081018490526001600160a01b038d16907f70ca4ec64687bf265f39041896f3dbf10b9f650503cb38f2b3569fdce7489c369060600160405180910390a25060019b9a5050505050505050505050565b600154604080516001600160a01b038581166024830152604480830186905283518084039091018152606490920183526020820180516001600160e01b031663a9059cbb60e01b1790529151600093849384939116916152a39190615ee3565b6000604051808303816000865af19150503d80600081146152e0576040519150601f19603f3d011682016040523d82523d6000602084013e6152e5565b606091505b5091509150818015611e1d575080511580611e1d575080806020019051810190611e1d9190615cb0565b60008060006040845110615381575050506020810151604082015160608301516001600160601b038316158061535057506007546001600160601b03841610155b1561535a57600192505b8161536457600391505b80158061537357506008548110155b1561537c575060015b61538c565b506001915060039050815b9193909250565b600060405160005b60148110156153b6578481600c011a8183015360010161539b565b5060145b60208110156153d25783811a818301536001016153ba565b50519392505050565b600154604080516001600160a01b0386811660248301528581166044830152606480830186905283518084039091018152608490920183526020820180516001600160e01b03166323b872dd60e01b1790529151600093849384939116916154439190615ee3565b6000604051808303816000865af19150503d8060008114615480576040519150601f19603f3d011682016040523d82523d6000602084013e615485565b606091505b50915091508180156154af5750805115806154af5750808060200190518101906154af9190615cb0565b9695505050505050565b8280548282559060005260206000209081019282156154f4579160200282015b828111156154f45782518255916020019190600101906154d9565b5061550092915061554f565b5090565b82600481019282156154f457916020028201828111156154f45782518255916020019190600101906154d9565b60405180608001604052806004906020820280368337509192915050565b5b808211156155005760008155600101615550565b6001600160a01b038116811461557957600080fd5b50565b60006020828403121561558e57600080fd5b813561559981615564565b9392505050565b80356001600160601b03811681146155b757600080fd5b919050565b634e487b7160e01b600052604160045260246000fd5b604051601f8201601f1916810167ffffffffffffffff811182821017156155fb576155fb6155bc565b604052919050565b600082601f83011261561457600080fd5b8135602067ffffffffffffffff821115615630576156306155bc565b8160051b61563f8282016155d2565b928352848101820192828101908785111561565957600080fd5b83870192505b848310156156785782358252918301919083019061565f565b979650505050505050565b801515811461557957600080fd5b6000806000606084860312156156a657600080fd5b6156af846155a0565b9250602084013567ffffffffffffffff8111156156cb57600080fd5b6156d786828701615603565b92505060408401356156e881615683565b809150509250925092565b60006020828403121561570557600080fd5b5035919050565b6000806040838503121561571f57600080fd5b50508035926020909101359150565b600082601f83011261573f57600080fd5b6040516080810181811067ffffffffffffffff82111715615762576157626155bc565b60405280608084018581111561577757600080fd5b845b81811015615791578035835260209283019201615779565b509195945050505050565b60008060008060008060008060006101808a8c0312156157bb57600080fd5b6157c48a6155a0565b985060208a01356157d481615683565b975060408a0135965060608a0135955060808a0135945060a08a013593506157ff8b60c08c0161572e565b92506101408a013591506101608a013567ffffffffffffffff81111561582457600080fd5b6158308c828d01615603565b9150509295985092959850929598565b60008060006060848603121561585557600080fd5b505081359360208301359350604090920135919050565b60006020828403121561587e57600080fd5b615599826155a0565b8060005b60048110156133bc57815184526020938401939091019060010161588b565b60808101611eae8284615887565b600080604083850312156158cb57600080fd5b6158d4836155a0565b946020939093013593505050565b600081518084526020808501945080840160005b83811015615912578151875295820195908201906001016158f6565b509495945050505050565b60208152600061559960208301846158e2565b634e487b7160e01b600052602160045260246000fd5b6005811061595657615956615930565b9052565b6001600160601b03861681526001600160a01b038516602082015260a081016159866040830186615946565b9215156060820152608001529392505050565b60008060a083850312156159ac57600080fd5b6159b5836155a0565b91506159c4846020850161572e565b90509250929050565b600082601f8301126159de57600080fd5b813567ffffffffffffffff8111156159f8576159f86155bc565b615a0b601f8201601f19166020016155d2565b818152846020838601011115615a2057600080fd5b816020850160208301376000918101602001919091529392505050565b600080600060608486031215615a5257600080fd5b8335615a5d81615564565b925060208401359150604084013567ffffffffffffffff811115615a8057600080fd5b615a8c868287016159cd565b9150509250925092565b600060c082018883526020888185015287604085015286606085015260c0608085015281865180845260e086019150828801935060005b81811015615af25784516001600160a01b031683529383019391830191600101615acd565b50508093505050508260a0830152979650505050505050565b6020810160028310615b1f57615b1f615930565b91905290565b60008060408385031215615b3857600080fd5b82359150602083013567ffffffffffffffff811115615b5657600080fd5b615b62858286016159cd565b9150509250929050565b600080600060608486031215615b8157600080fd5b8335925060208401359150604084013567ffffffffffffffff811115615a8057600080fd5b60008060408385031215615bb957600080fd5b8235615bc481615564565b91506159c4602084016155a0565b60008060408385031215615be557600080fd5b82356158d481615564565b600060208284031215615c0257600080fd5b813567ffffffffffffffff811115615c1957600080fd5b614a6e848285016159cd565b60008060408385031215615c3857600080fd5b615c41836155a0565b91506020830135615c5181615683565b809150509250929050565b6020808252600d908201526c476f7665726e6f72206f6e6c7960981b604082015260600190565b634e487b7160e01b600052601160045260246000fd5b600082821015615cab57615cab615c83565b500390565b600060208284031215615cc257600080fd5b815161559981615683565b60008083128015600160ff1b850184121615615ceb57615ceb615c83565b6001600160ff1b0384018313811615615d0657615d06615c83565b50500390565b634e487b7160e01b600052603260045260246000fd5b600060208284031215615d3457600080fd5b5051919050565b634e487b7160e01b600052603160045260246000fd5b6000600160ff1b821415615d6757615d67615c83565b506000190190565b6000600019821415615d8357615d83615c83565b5060010190565b60208101611eae8284615946565b6020808252818101527f4d696e5374616b65206c6f776572207468616e20706172656e7420636f757274604082015260600190565b60006101608a15158352896020840152886040840152876060840152866080840152615dfc60a0840187615887565b8461012084015280610140840152615e16818401856158e2565b9b9a5050505050505050505050565b60008219821115615e3857615e38615c83565b500190565b6000816000190483118215151615615e5757615e57615c83565b500290565b634e487b7160e01b600052601260045260246000fd5b600082615e8157615e81615e5c565b500490565b6000600160ff1b821415615e9c57615e9c615c83565b5060000390565b600082615eb257615eb2615e5c565b500690565b60005b83811015615ed2578181015183820152602001615eba565b838111156133bc5750506000910152565b60008251615ef5818460208701615eb7565b9190910192915050565b60008060408385031215615f1257600080fd5b825191506020830151615c5181615683565b8481528360208201526080604082015260008351806080840152615f4f8160a0850160208801615eb7565b606083019390935250601f91909101601f19160160a0019392505050565b600060208284031215615f7f57600080fd5b81516155998161556456fefb75175e7dd144a612469a4316b0a6e4cee24cb54400dfdc7bfe1546cd0e309da2646970667358221220bab7ca22ba7f0c78e8966a0b829254e7d3e1b2cbc13dda910dd083e0c8d0af6464736f6c63430008090033",
  "libraries": {
    "SortitionSumTreeFactory": "0x48ce286978C74c288eA6Bc9a536BcC899DF8D177"
  },
  "devdoc": {
    "kind": "dev",
    "methods": {
      "addNewDisputeKit(address,uint256)": {
        "details": "Add a new supported dispute kit module to the court.",
        "params": {
          "_disputeKitAddress": "The address of the dispute kit contract.",
          "_parent": "The ID of the parent dispute kit. It is left empty when root DK is created.  Note that the root DK must be supported by the general court."
        }
      },
      "appeal(uint256,uint256,bytes)": {
        "details": "Appeals the ruling of a specified dispute.  Note: Access restricted to the Dispute Kit for this `disputeID`.",
        "params": {
          "_disputeID": "The ID of the dispute.",
          "_extraData": "Extradata for the dispute. Can be required during court jump.",
          "_numberOfChoices": "Number of choices for the dispute. Can be required during court jump."
        }
      },
      "appealCost(uint256)": {
        "details": "Gets the cost of appealing a specified dispute.",
        "params": {
          "_disputeID": "The ID of the dispute."
        },
        "returns": {
          "cost": "The appeal cost."
        }
      },
      "appealPeriod(uint256)": {
        "details": "Gets the start and the end of a specified dispute's current appeal period.",
        "params": {
          "_disputeID": "The ID of the dispute."
        },
        "returns": {
          "end": "The end of the appeal period.",
          "start": "The start of the appeal period."
        }
      },
      "arbitrationCost(bytes)": {
        "details": "Gets the cost of arbitration in a specified subcourt.",
        "params": {
          "_extraData": "Additional info about the dispute. We use it to pass the ID of the subcourt to create the dispute in (first 32 bytes)  and the minimum number of jurors required (next 32 bytes)."
        },
        "returns": {
          "cost": "The arbitration cost."
        }
      },
      "changeGovernor(address)": {
        "details": "Changes the `governor` storage variable.",
        "params": {
          "_governor": "The new value for the `governor` storage variable."
        }
      },
      "changeHiddenVotes(uint96,bool)": {
        "details": "Changes the `hiddenVotes` property value of a specified subcourt.",
        "params": {
          "_hiddenVotes": "The new value for the `hiddenVotes` property value.",
          "_subcourtID": "The ID of the subcourt."
        }
      },
      "changeJurorProsecutionModule(address)": {
        "details": "Changes the `jurorProsecutionModule` storage variable.",
        "params": {
          "_jurorProsecutionModule": "The new value for the `jurorProsecutionModule` storage variable."
        }
      },
      "changeMaxFreezingTime(uint256)": {
        "details": "Changes the `maxFreezingTime` storage variable.",
        "params": {
          "_maxFreezingTime": "The new value for the `maxFreezingTime` storage variable."
        }
      },
      "changeMinStakingTime(uint256)": {
        "details": "Changes the `minStakingTime` storage variable.",
        "params": {
          "_minStakingTime": "The new value for the `minStakingTime` storage variable."
        }
      },
      "changePinakion(address)": {
        "details": "Changes the `pinakion` storage variable.",
        "params": {
          "_pinakion": "The new value for the `pinakion` storage variable."
        }
      },
      "changeSubcourtAlpha(uint96,uint256)": {
        "details": "Changes the `alpha` property value of a specified subcourt.",
        "params": {
          "_alpha": "The new value for the `alpha` property value.",
          "_subcourtID": "The ID of the subcourt."
        }
      },
      "changeSubcourtJurorFee(uint96,uint256)": {
        "details": "Changes the `feeForJuror` property value of a specified subcourt.",
        "params": {
          "_feeForJuror": "The new value for the `feeForJuror` property value.",
          "_subcourtID": "The ID of the subcourt."
        }
      },
      "changeSubcourtJurorsForJump(uint96,uint256)": {
        "details": "Changes the `jurorsForCourtJump` property value of a specified subcourt.",
        "params": {
          "_jurorsForCourtJump": "The new value for the `jurorsForCourtJump` property value.",
          "_subcourtID": "The ID of the subcourt."
        }
      },
      "changeSubcourtMinStake(uint96,uint256)": {
        "details": "Changes the `minStake` property value of a specified subcourt. Don't set to a value lower than its parent's `minStake` property value.",
        "params": {
          "_minStake": "The new value for the `minStake` property value.",
          "_subcourtID": "The ID of the subcourt."
        }
      },
      "changeSubcourtTimesPerPeriod(uint96,uint256[4])": {
        "details": "Changes the `timesPerPeriod` property value of a specified subcourt.",
        "params": {
          "_subcourtID": "The ID of the subcourt.",
          "_timesPerPeriod": "The new value for the `timesPerPeriod` property value."
        }
      },
      "constructor": {
        "details": "Constructor.",
        "params": {
          "_courtParameters": "Numeric parameters of General court (minStake, alpha, feeForJuror and jurorsForCourtJump respectively).",
          "_disputeKit": "The address of the default dispute kit.",
          "_governor": "The governor's address.",
          "_hiddenVotes": "The `hiddenVotes` property value of the general court.",
          "_jurorProsecutionModule": "The address of the juror prosecution module.",
          "_phaseTimeouts": "minStakingTime and maxFreezingTime respectively",
          "_pinakion": "The address of the token contract.",
          "_sortitionSumTreeK": "The number of children per node of the general court's sortition sum tree.",
          "_timesPerPeriod": "The `timesPerPeriod` property value of the general court."
        }
      },
      "createDispute(uint256,bytes)": {
        "details": "Creates a dispute. Must be called by the arbitrable contract.",
        "params": {
          "_extraData": "Additional info about the dispute. We use it to pass the ID of the dispute's subcourt (first 32 bytes),  the minimum number of jurors required (next 32 bytes) and the ID of the specific dispute kit (last 32 bytes).",
          "_numberOfChoices": "Number of choices for the jurors to choose from."
        },
        "returns": {
          "disputeID": "The ID of the created dispute."
        }
      },
      "createSubcourt(uint96,bool,uint256,uint256,uint256,uint256,uint256[4],uint256,uint256[])": {
        "details": "Creates a subcourt under a specified parent court.",
        "params": {
          "_alpha": "The `alpha` property value of the subcourt.",
          "_feeForJuror": "The `feeForJuror` property value of the subcourt.",
          "_hiddenVotes": "The `hiddenVotes` property value of the subcourt.",
          "_jurorsForCourtJump": "The `jurorsForCourtJump` property value of the subcourt.",
          "_minStake": "The `minStake` property value of the subcourt.",
          "_parent": "The `parent` property value of the subcourt.",
          "_sortitionSumTreeK": "The number of children per node of the subcourt's sortition sum tree.",
          "_supportedDisputeKits": "Indexes of dispute kits that this subcourt will support.",
          "_timesPerPeriod": "The `timesPerPeriod` property value of the subcourt."
        }
      },
      "currentRuling(uint256)": {
        "details": "Gets the current ruling of a specified dispute.",
        "params": {
          "_disputeID": "The ID of the dispute."
        },
        "returns": {
          "ruling": "The current ruling."
        }
      },
      "draw(uint256,uint256)": {
        "details": "Draws jurors for the dispute. Can be called in parts.",
        "params": {
          "_disputeID": "The ID of the dispute.",
          "_iterations": "The number of iterations to run."
        }
      },
      "enableDisputeKits(uint96,uint256[],bool)": {
        "details": "Adds/removes court's support for specified dispute kits.",
        "params": {
          "_disputeKitIDs": "The IDs of dispute kits which support should be added/removed.",
          "_enable": "Whether add or remove the dispute kits from the subcourt.",
          "_subcourtID": "The ID of the subcourt."
        }
      },
      "execute(uint256,uint256,uint256)": {
        "details": "Distribute tokens and ETH for the specific round of the dispute. Can be called in parts.",
        "params": {
          "_disputeID": "The ID of the dispute.",
          "_iterations": "The number of iterations to run.",
          "_round": "The appeal round."
        }
      },
      "executeDelayedStakes(uint256)": {
        "details": "Executes the next delayed stakes.",
        "params": {
          "_iterations": "The number of delayed stakes to execute."
        }
      },
      "executeGovernorProposal(address,uint256,bytes)": {
        "details": "Allows the governor to call anything on behalf of the contract.",
        "params": {
          "_amount": "The value sent with the call.",
          "_data": "The data sent with the call.",
          "_destination": "The destination of the call."
        }
      },
      "executeRuling(uint256)": {
        "details": "Executes a specified dispute's ruling. UNTRUSTED.",
        "params": {
          "_disputeID": "The ID of the dispute."
        }
      },
      "getDisputeKitChildren(uint256)": {
        "details": "Gets non-primitive properties of a specified dispute kit node.",
        "params": {
          "_disputeKitID": "The ID of the dispute kit."
        },
        "returns": {
          "_0": "children Indexes of children of this DK."
        }
      },
      "getTimesPerPeriod(uint96)": {
        "details": "Gets the timesPerPeriod array for a given court.",
        "params": {
          "_subcourtID": "The ID of the court to get the times from."
        },
        "returns": {
          "timesPerPeriod": "The timesPerPeriod array for the given court."
        }
      },
      "isDisputeKitJumping(uint256)": {
        "details": "Returns true if the dispute kit will be switched to a parent DK.",
        "params": {
          "_disputeID": "The ID of the dispute."
        },
        "returns": {
          "_0": "Whether DK will be switched or not."
        }
      },
      "passPeriod(uint256)": {
        "details": "Passes the period of a specified dispute.",
        "params": {
          "_disputeID": "The ID of the dispute."
        }
      },
      "passPhase()": {
        "details": "Switches the phases between Staking and Freezing, also signal the switch to the dispute kits."
      },
      "setStake(uint96,uint256)": {
        "details": "Sets the caller's stake in a subcourt.",
        "params": {
          "_stake": "The new stake.",
          "_subcourtID": "The ID of the subcourt."
        }
      }
    },
    "title": "KlerosCore  Core arbitrator contract for Kleros v2.  Note that this contract trusts the token and the dispute kit contracts.",
    "version": 1
  },
  "userdoc": {
    "kind": "user",
    "methods": {},
    "version": 1
  },
  "storageLayout": {
    "storage": [
      {
        "astId": 2078,
        "contract": "src/arbitration/KlerosCore.sol:KlerosCore",
        "label": "governor",
        "offset": 0,
        "slot": "0",
        "type": "t_address"
      },
      {
        "astId": 2081,
        "contract": "src/arbitration/KlerosCore.sol:KlerosCore",
        "label": "pinakion",
        "offset": 0,
        "slot": "1",
        "type": "t_contract(IERC20)663"
      },
      {
        "astId": 2083,
        "contract": "src/arbitration/KlerosCore.sol:KlerosCore",
        "label": "jurorProsecutionModule",
        "offset": 0,
        "slot": "2",
        "type": "t_address"
      },
      {
        "astId": 2086,
        "contract": "src/arbitration/KlerosCore.sol:KlerosCore",
        "label": "phase",
        "offset": 20,
        "slot": "2",
        "type": "t_enum(Phase)1945"
      },
      {
        "astId": 2088,
        "contract": "src/arbitration/KlerosCore.sol:KlerosCore",
        "label": "minStakingTime",
        "offset": 0,
        "slot": "3",
        "type": "t_uint256"
      },
      {
        "astId": 2090,
        "contract": "src/arbitration/KlerosCore.sol:KlerosCore",
        "label": "maxFreezingTime",
        "offset": 0,
        "slot": "4",
        "type": "t_uint256"
      },
      {
        "astId": 2092,
        "contract": "src/arbitration/KlerosCore.sol:KlerosCore",
        "label": "lastPhaseChange",
        "offset": 0,
        "slot": "5",
        "type": "t_uint256"
      },
      {
        "astId": 2094,
        "contract": "src/arbitration/KlerosCore.sol:KlerosCore",
        "label": "freezeBlock",
        "offset": 0,
        "slot": "6",
        "type": "t_uint256"
      },
      {
        "astId": 2098,
        "contract": "src/arbitration/KlerosCore.sol:KlerosCore",
        "label": "courts",
        "offset": 0,
        "slot": "7",
        "type": "t_array(t_struct(Court)1975_storage)dyn_storage"
      },
      {
        "astId": 2102,
        "contract": "src/arbitration/KlerosCore.sol:KlerosCore",
        "label": "disputeKitNodes",
        "offset": 0,
        "slot": "8",
        "type": "t_array(t_struct(DisputeKitNode)2033_storage)dyn_storage"
      },
      {
        "astId": 2105,
        "contract": "src/arbitration/KlerosCore.sol:KlerosCore",
        "label": "disputesKitIDsThatNeedFreezing",
        "offset": 0,
        "slot": "9",
        "type": "t_array(t_uint256)dyn_storage"
      },
      {
        "astId": 2109,
        "contract": "src/arbitration/KlerosCore.sol:KlerosCore",
        "label": "disputes",
        "offset": 0,
        "slot": "10",
        "type": "t_array(t_struct(Dispute)1992_storage)dyn_storage"
      },
      {
        "astId": 2114,
        "contract": "src/arbitration/KlerosCore.sol:KlerosCore",
        "label": "jurors",
        "offset": 0,
        "slot": "11",
        "type": "t_mapping(t_address,t_struct(Juror)2020_storage)"
      },
      {
        "astId": 2117,
        "contract": "src/arbitration/KlerosCore.sol:KlerosCore",
        "label": "sortitionSumTrees",
        "offset": 0,
        "slot": "12",
        "type": "t_struct(SortitionSumTrees)19815_storage"
      },
      {
        "astId": 2122,
        "contract": "src/arbitration/KlerosCore.sol:KlerosCore",
        "label": "delayedStakes",
        "offset": 0,
        "slot": "13",
        "type": "t_mapping(t_uint256,t_struct(DelayedStake)2042_storage)"
      },
      {
        "astId": 2124,
        "contract": "src/arbitration/KlerosCore.sol:KlerosCore",
        "label": "delayedStakeWriteIndex",
        "offset": 0,
        "slot": "14",
        "type": "t_uint256"
      },
      {
        "astId": 2127,
        "contract": "src/arbitration/KlerosCore.sol:KlerosCore",
        "label": "delayedStakeReadIndex",
        "offset": 0,
        "slot": "15",
        "type": "t_uint256"
      }
    ],
    "types": {
      "t_address": {
        "encoding": "inplace",
        "label": "address",
        "numberOfBytes": "20"
      },
      "t_array(t_address)dyn_storage": {
        "base": "t_address",
        "encoding": "dynamic_array",
        "label": "address[]",
        "numberOfBytes": "32"
      },
      "t_array(t_struct(Court)1975_storage)dyn_storage": {
        "base": "t_struct(Court)1975_storage",
        "encoding": "dynamic_array",
        "label": "struct KlerosCore.Court[]",
        "numberOfBytes": "32"
      },
      "t_array(t_struct(Dispute)1992_storage)dyn_storage": {
        "base": "t_struct(Dispute)1992_storage",
        "encoding": "dynamic_array",
        "label": "struct KlerosCore.Dispute[]",
        "numberOfBytes": "32"
      },
      "t_array(t_struct(DisputeKitNode)2033_storage)dyn_storage": {
        "base": "t_struct(DisputeKitNode)2033_storage",
        "encoding": "dynamic_array",
        "label": "struct KlerosCore.DisputeKitNode[]",
        "numberOfBytes": "32"
      },
      "t_array(t_struct(Round)2008_storage)dyn_storage": {
        "base": "t_struct(Round)2008_storage",
        "encoding": "dynamic_array",
        "label": "struct KlerosCore.Round[]",
        "numberOfBytes": "32"
      },
      "t_array(t_uint256)4_storage": {
        "base": "t_uint256",
        "encoding": "inplace",
        "label": "uint256[4]",
        "numberOfBytes": "128"
      },
      "t_array(t_uint256)dyn_storage": {
        "base": "t_uint256",
        "encoding": "dynamic_array",
        "label": "uint256[]",
        "numberOfBytes": "32"
      },
      "t_array(t_uint96)dyn_storage": {
        "base": "t_uint96",
        "encoding": "dynamic_array",
        "label": "uint96[]",
        "numberOfBytes": "32"
      },
      "t_bool": {
        "encoding": "inplace",
        "label": "bool",
        "numberOfBytes": "1"
      },
      "t_bytes32": {
        "encoding": "inplace",
        "label": "bytes32",
        "numberOfBytes": "32"
      },
      "t_contract(IArbitrable)1739": {
        "encoding": "inplace",
        "label": "contract IArbitrable",
        "numberOfBytes": "20"
      },
      "t_contract(IDisputeKit)1928": {
        "encoding": "inplace",
        "label": "contract IDisputeKit",
        "numberOfBytes": "20"
      },
      "t_contract(IERC20)663": {
        "encoding": "inplace",
        "label": "contract IERC20",
        "numberOfBytes": "20"
      },
      "t_enum(Period)1951": {
        "encoding": "inplace",
        "label": "enum KlerosCore.Period",
        "numberOfBytes": "1"
      },
      "t_enum(Phase)1945": {
        "encoding": "inplace",
        "label": "enum KlerosCore.Phase",
        "numberOfBytes": "1"
      },
      "t_mapping(t_address,t_struct(Juror)2020_storage)": {
        "encoding": "mapping",
        "key": "t_address",
        "label": "mapping(address => struct KlerosCore.Juror)",
        "numberOfBytes": "32",
        "value": "t_struct(Juror)2020_storage"
      },
      "t_mapping(t_bytes32,t_struct(SortitionSumTree)19809_storage)": {
        "encoding": "mapping",
        "key": "t_bytes32",
        "label": "mapping(bytes32 => struct SortitionSumTreeFactory.SortitionSumTree)",
        "numberOfBytes": "32",
        "value": "t_struct(SortitionSumTree)19809_storage"
      },
      "t_mapping(t_bytes32,t_uint256)": {
        "encoding": "mapping",
        "key": "t_bytes32",
        "label": "mapping(bytes32 => uint256)",
        "numberOfBytes": "32",
        "value": "t_uint256"
      },
      "t_mapping(t_uint256,t_bool)": {
        "encoding": "mapping",
        "key": "t_uint256",
        "label": "mapping(uint256 => bool)",
        "numberOfBytes": "32",
        "value": "t_bool"
      },
      "t_mapping(t_uint256,t_bytes32)": {
        "encoding": "mapping",
        "key": "t_uint256",
        "label": "mapping(uint256 => bytes32)",
        "numberOfBytes": "32",
        "value": "t_bytes32"
      },
      "t_mapping(t_uint256,t_struct(DelayedStake)2042_storage)": {
        "encoding": "mapping",
        "key": "t_uint256",
        "label": "mapping(uint256 => struct KlerosCore.DelayedStake)",
        "numberOfBytes": "32",
        "value": "t_struct(DelayedStake)2042_storage"
      },
      "t_mapping(t_uint96,t_uint256)": {
        "encoding": "mapping",
        "key": "t_uint96",
        "label": "mapping(uint96 => uint256)",
        "numberOfBytes": "32",
        "value": "t_uint256"
      },
      "t_struct(Court)1975_storage": {
        "encoding": "inplace",
        "label": "struct KlerosCore.Court",
        "members": [
          {
            "astId": 1953,
            "contract": "src/arbitration/KlerosCore.sol:KlerosCore",
            "label": "parent",
            "offset": 0,
            "slot": "0",
            "type": "t_uint96"
          },
          {
            "astId": 1955,
            "contract": "src/arbitration/KlerosCore.sol:KlerosCore",
            "label": "hiddenVotes",
            "offset": 12,
            "slot": "0",
            "type": "t_bool"
          },
          {
            "astId": 1958,
            "contract": "src/arbitration/KlerosCore.sol:KlerosCore",
            "label": "children",
            "offset": 0,
            "slot": "1",
            "type": "t_array(t_uint256)dyn_storage"
          },
          {
            "astId": 1960,
            "contract": "src/arbitration/KlerosCore.sol:KlerosCore",
            "label": "minStake",
            "offset": 0,
            "slot": "2",
            "type": "t_uint256"
          },
          {
            "astId": 1962,
            "contract": "src/arbitration/KlerosCore.sol:KlerosCore",
            "label": "alpha",
            "offset": 0,
            "slot": "3",
            "type": "t_uint256"
          },
          {
            "astId": 1964,
            "contract": "src/arbitration/KlerosCore.sol:KlerosCore",
            "label": "feeForJuror",
            "offset": 0,
            "slot": "4",
            "type": "t_uint256"
          },
          {
            "astId": 1966,
            "contract": "src/arbitration/KlerosCore.sol:KlerosCore",
            "label": "jurorsForCourtJump",
            "offset": 0,
            "slot": "5",
            "type": "t_uint256"
          },
          {
            "astId": 1970,
            "contract": "src/arbitration/KlerosCore.sol:KlerosCore",
            "label": "timesPerPeriod",
            "offset": 0,
            "slot": "6",
            "type": "t_array(t_uint256)4_storage"
          },
          {
            "astId": 1974,
            "contract": "src/arbitration/KlerosCore.sol:KlerosCore",
            "label": "supportedDisputeKits",
            "offset": 0,
            "slot": "10",
            "type": "t_mapping(t_uint256,t_bool)"
          }
        ],
        "numberOfBytes": "352"
      },
      "t_struct(DelayedStake)2042_storage": {
        "encoding": "inplace",
        "label": "struct KlerosCore.DelayedStake",
        "members": [
          {
            "astId": 2035,
            "contract": "src/arbitration/KlerosCore.sol:KlerosCore",
            "label": "account",
            "offset": 0,
            "slot": "0",
            "type": "t_address"
          },
          {
            "astId": 2037,
            "contract": "src/arbitration/KlerosCore.sol:KlerosCore",
            "label": "subcourtID",
            "offset": 20,
            "slot": "0",
            "type": "t_uint96"
          },
          {
            "astId": 2039,
            "contract": "src/arbitration/KlerosCore.sol:KlerosCore",
            "label": "stake",
            "offset": 0,
            "slot": "1",
            "type": "t_uint256"
          },
          {
            "astId": 2041,
            "contract": "src/arbitration/KlerosCore.sol:KlerosCore",
            "label": "penalty",
            "offset": 0,
            "slot": "2",
            "type": "t_uint256"
          }
        ],
        "numberOfBytes": "96"
      },
      "t_struct(Dispute)1992_storage": {
        "encoding": "inplace",
        "label": "struct KlerosCore.Dispute",
        "members": [
          {
            "astId": 1977,
            "contract": "src/arbitration/KlerosCore.sol:KlerosCore",
            "label": "subcourtID",
            "offset": 0,
            "slot": "0",
            "type": "t_uint96"
          },
          {
            "astId": 1980,
            "contract": "src/arbitration/KlerosCore.sol:KlerosCore",
            "label": "arbitrated",
            "offset": 12,
            "slot": "0",
            "type": "t_contract(IArbitrable)1739"
          },
          {
            "astId": 1983,
            "contract": "src/arbitration/KlerosCore.sol:KlerosCore",
            "label": "period",
            "offset": 0,
            "slot": "1",
            "type": "t_enum(Period)1951"
          },
          {
            "astId": 1985,
            "contract": "src/arbitration/KlerosCore.sol:KlerosCore",
            "label": "ruled",
            "offset": 1,
            "slot": "1",
            "type": "t_bool"
          },
          {
            "astId": 1987,
            "contract": "src/arbitration/KlerosCore.sol:KlerosCore",
            "label": "lastPeriodChange",
            "offset": 0,
            "slot": "2",
            "type": "t_uint256"
          },
          {
            "astId": 1991,
            "contract": "src/arbitration/KlerosCore.sol:KlerosCore",
            "label": "rounds",
            "offset": 0,
            "slot": "3",
            "type": "t_array(t_struct(Round)2008_storage)dyn_storage"
          }
        ],
        "numberOfBytes": "128"
      },
      "t_struct(DisputeKitNode)2033_storage": {
        "encoding": "inplace",
        "label": "struct KlerosCore.DisputeKitNode",
        "members": [
          {
            "astId": 2022,
            "contract": "src/arbitration/KlerosCore.sol:KlerosCore",
            "label": "parent",
            "offset": 0,
            "slot": "0",
            "type": "t_uint256"
          },
          {
            "astId": 2025,
            "contract": "src/arbitration/KlerosCore.sol:KlerosCore",
            "label": "children",
            "offset": 0,
            "slot": "1",
            "type": "t_array(t_uint256)dyn_storage"
          },
          {
            "astId": 2028,
            "contract": "src/arbitration/KlerosCore.sol:KlerosCore",
            "label": "disputeKit",
            "offset": 0,
            "slot": "2",
            "type": "t_contract(IDisputeKit)1928"
          },
          {
            "astId": 2030,
            "contract": "src/arbitration/KlerosCore.sol:KlerosCore",
            "label": "needsFreezing",
            "offset": 20,
            "slot": "2",
            "type": "t_bool"
          },
          {
            "astId": 2032,
            "contract": "src/arbitration/KlerosCore.sol:KlerosCore",
            "label": "depthLevel",
            "offset": 0,
            "slot": "3",
            "type": "t_uint256"
          }
        ],
        "numberOfBytes": "128"
      },
      "t_struct(Juror)2020_storage": {
        "encoding": "inplace",
        "label": "struct KlerosCore.Juror",
        "members": [
          {
            "astId": 2011,
            "contract": "src/arbitration/KlerosCore.sol:KlerosCore",
            "label": "subcourtIDs",
            "offset": 0,
            "slot": "0",
            "type": "t_array(t_uint96)dyn_storage"
          },
          {
            "astId": 2015,
            "contract": "src/arbitration/KlerosCore.sol:KlerosCore",
            "label": "stakedTokens",
            "offset": 0,
            "slot": "1",
            "type": "t_mapping(t_uint96,t_uint256)"
          },
          {
            "astId": 2019,
            "contract": "src/arbitration/KlerosCore.sol:KlerosCore",
            "label": "lockedTokens",
            "offset": 0,
            "slot": "2",
            "type": "t_mapping(t_uint96,t_uint256)"
          }
        ],
        "numberOfBytes": "96"
      },
      "t_struct(Round)2008_storage": {
        "encoding": "inplace",
        "label": "struct KlerosCore.Round",
        "members": [
          {
            "astId": 1994,
            "contract": "src/arbitration/KlerosCore.sol:KlerosCore",
            "label": "disputeKitID",
            "offset": 0,
            "slot": "0",
            "type": "t_uint256"
          },
          {
            "astId": 1996,
            "contract": "src/arbitration/KlerosCore.sol:KlerosCore",
            "label": "tokensAtStakePerJuror",
            "offset": 0,
            "slot": "1",
            "type": "t_uint256"
          },
          {
            "astId": 1998,
            "contract": "src/arbitration/KlerosCore.sol:KlerosCore",
            "label": "totalFeesForJurors",
            "offset": 0,
            "slot": "2",
            "type": "t_uint256"
          },
          {
            "astId": 2000,
            "contract": "src/arbitration/KlerosCore.sol:KlerosCore",
            "label": "nbVotes",
            "offset": 0,
            "slot": "3",
            "type": "t_uint256"
          },
          {
            "astId": 2002,
            "contract": "src/arbitration/KlerosCore.sol:KlerosCore",
            "label": "repartitions",
            "offset": 0,
            "slot": "4",
            "type": "t_uint256"
          },
          {
            "astId": 2004,
            "contract": "src/arbitration/KlerosCore.sol:KlerosCore",
            "label": "penalties",
            "offset": 0,
            "slot": "5",
            "type": "t_uint256"
          },
          {
            "astId": 2007,
            "contract": "src/arbitration/KlerosCore.sol:KlerosCore",
            "label": "drawnJurors",
            "offset": 0,
            "slot": "6",
            "type": "t_array(t_address)dyn_storage"
          }
        ],
        "numberOfBytes": "224"
      },
      "t_struct(SortitionSumTree)19809_storage": {
        "encoding": "inplace",
        "label": "struct SortitionSumTreeFactory.SortitionSumTree",
        "members": [
          {
            "astId": 19794,
            "contract": "src/arbitration/KlerosCore.sol:KlerosCore",
            "label": "K",
            "offset": 0,
            "slot": "0",
            "type": "t_uint256"
          },
          {
            "astId": 19797,
            "contract": "src/arbitration/KlerosCore.sol:KlerosCore",
            "label": "stack",
            "offset": 0,
            "slot": "1",
            "type": "t_array(t_uint256)dyn_storage"
          },
          {
            "astId": 19800,
            "contract": "src/arbitration/KlerosCore.sol:KlerosCore",
            "label": "nodes",
            "offset": 0,
            "slot": "2",
            "type": "t_array(t_uint256)dyn_storage"
          },
          {
            "astId": 19804,
            "contract": "src/arbitration/KlerosCore.sol:KlerosCore",
            "label": "IDsToNodeIndexes",
            "offset": 0,
            "slot": "3",
            "type": "t_mapping(t_bytes32,t_uint256)"
          },
          {
            "astId": 19808,
            "contract": "src/arbitration/KlerosCore.sol:KlerosCore",
            "label": "nodeIndexesToIDs",
            "offset": 0,
            "slot": "4",
            "type": "t_mapping(t_uint256,t_bytes32)"
          }
        ],
        "numberOfBytes": "160"
      },
      "t_struct(SortitionSumTrees)19815_storage": {
        "encoding": "inplace",
        "label": "struct SortitionSumTreeFactory.SortitionSumTrees",
        "members": [
          {
            "astId": 19814,
            "contract": "src/arbitration/KlerosCore.sol:KlerosCore",
            "label": "sortitionSumTrees",
            "offset": 0,
            "slot": "0",
            "type": "t_mapping(t_bytes32,t_struct(SortitionSumTree)19809_storage)"
          }
        ],
        "numberOfBytes": "32"
      },
      "t_uint256": {
        "encoding": "inplace",
        "label": "uint256",
        "numberOfBytes": "32"
      },
      "t_uint96": {
        "encoding": "inplace",
        "label": "uint96",
        "numberOfBytes": "12"
      }
    }
  }
}