{
  "address": "0x939EeC4b9BA7F94a7Df3C055FeFcEcbb7f3f89a4",
  "abi": [
    {
      "anonymous": false,
      "inputs": [
        {
          "indexed": true,
          "internalType": "uint256",
          "name": "withdrawalId",
          "type": "uint256"
        }
      ],
      "name": "L2ToL1TxCreated",
      "type": "event"
    },
    {
      "inputs": [
        {
          "internalType": "address",
          "name": "_receiver",
          "type": "address"
        },
        {
          "internalType": "bytes",
          "name": "_calldata",
          "type": "bytes"
        }
      ],
      "name": "sendSafe",
      "outputs": [
        {
          "internalType": "uint256",
          "name": "",
          "type": "uint256"
        }
      ],
      "stateMutability": "payable",
      "type": "function"
    }
  ],
  "transactionHash": "0xa6b452c51291a42d0cf352c450ba3b02b1fb901b8c38a253a174e345a7e3ce0b",
  "args": [],
  "numDeployments": 1,
  "solcInputHash": "2d7d89c608be54caf93b812ba14cf56b",
  "bytecode": "0x608060405234801561001057600080fd5b50610285806100206000396000f3fe60806040526004361061001e5760003560e01c8063be44ae1c14610023575b600080fd5b610036610031366004610101565b610048565b60405190815260200160405180910390f35b6040516349460b4d60e11b8152600090819060649063928c169a9061007390879087906004016101d1565b6020604051808303816000875af1158015610092573d6000803e3d6000fd5b505050506040513d601f19601f820116820180604052508101906100b69190610236565b60405190915081907facd96f3817031b95eab52de9132d4a9dd13dac3d9dfcfe950ca9283c89b851a590600090a29392505050565b634e487b7160e01b600052604160045260246000fd5b6000806040838503121561011457600080fd5b82356001600160a01b038116811461012b57600080fd5b9150602083013567ffffffffffffffff8082111561014857600080fd5b818501915085601f83011261015c57600080fd5b81358181111561016e5761016e6100eb565b604051601f8201601f19908116603f01168101908382118183101715610196576101966100eb565b816040528281528860208487010111156101af57600080fd5b8260208601602083013760006020848301015280955050505050509250929050565b60018060a01b038316815260006020604081840152835180604085015260005b8181101561020d578581018301518582016060015282016101f1565b8181111561021f576000606083870101525b50601f01601f191692909201606001949350505050565b60006020828403121561024857600080fd5b505191905056fea2646970667358221220691aeb3681b0b3a9b12bd40f31d52435b0fb90aeb41a724c79e99fdcc31d653c64736f6c634300080a0033",
  "devdoc": {
    "kind": "dev",
    "methods": {
      "sendSafe(address,bytes)": {
        "params": {
          "_calldata": "The L2 encoded message data.",
          "_receiver": "The L1 contract address who will receive the calldata"
        },
        "returns": {
          "_0": "Unique id to track the message request/transaction."
        }
      }
    },
    "version": 1
  },
  "userdoc": {
    "kind": "user",
    "methods": {
      "sendSafe(address,bytes)": {
        "notice": "Sends an arbitrary message from one domain to another."
      }
    },
    "version": 1
  },
  "storageLayout": {
    "storage": [],
    "types": null
  }
}