{
  "address": "0xa4bdf6D5c291e6c5f3b9b75764cFcaF0EF7e7AB9",
  "abi": [
    {
      "anonymous": false,
      "inputs": [
        {
          "indexed": true,
          "internalType": "uint256",
          "name": "withdrawalId",
          "type": "uint256"
        }
      ],
      "name": "L2ToL1TxCreated",
      "type": "event"
    },
    {
      "inputs": [
        {
          "internalType": "address",
          "name": "_receiver",
          "type": "address"
        },
        {
          "internalType": "bytes",
          "name": "_calldata",
          "type": "bytes"
        }
      ],
      "name": "sendCrossDomainMessage",
      "outputs": [
        {
          "internalType": "uint256",
          "name": "",
          "type": "uint256"
        }
      ],
      "stateMutability": "nonpayable",
      "type": "function"
    }
  ],
  "transactionHash": "0x084d0f10556d3f7859d9b85e8eb1e7f0fab74e5a1a372d404b7f830acc620b93",
  "args": [],
  "numDeployments": 1,
  "solcInputHash": "404f378731df3b59bdbdc6b6946fcc1d",
  "bytecode": "0x608060405234801561001057600080fd5b50610292806100206000396000f3fe608060405234801561001057600080fd5b506004361061002b5760003560e01c8063c249b6c114610030575b600080fd5b61004361003e36600461010e565b610055565b60405190815260200160405180910390f35b6040516349460b4d60e11b8152600090819060649063928c169a9061008090879087906004016101de565b6020604051808303816000875af115801561009f573d6000803e3d6000fd5b505050506040513d601f19601f820116820180604052508101906100c39190610243565b60405190915081907facd96f3817031b95eab52de9132d4a9dd13dac3d9dfcfe950ca9283c89b851a590600090a29392505050565b634e487b7160e01b600052604160045260246000fd5b6000806040838503121561012157600080fd5b82356001600160a01b038116811461013857600080fd5b9150602083013567ffffffffffffffff8082111561015557600080fd5b818501915085601f83011261016957600080fd5b81358181111561017b5761017b6100f8565b604051601f8201601f19908116603f011681019083821181831017156101a3576101a36100f8565b816040528281528860208487010111156101bc57600080fd5b8260208601602083013760006020848301015280955050505050509250929050565b60018060a01b038316815260006020604081840152835180604085015260005b8181101561021a578581018301518582016060015282016101fe565b8181111561022c576000606083870101525b50601f01601f191692909201606001949350505050565b60006020828403121561025557600080fd5b505191905056fea2646970667358221220abf3de8c1f155a7da4721024f2f17a47bd32900eb21b4c922910b5bf2630891864736f6c634300080a0033",
  "devdoc": {
    "kind": "dev",
    "methods": {
      "sendCrossDomainMessage(address,bytes)": {
        "params": {
          "_calldata": "The L2 encoded message data.",
          "_receiver": "The L1 contract address who will receive the calldata"
        },
        "returns": {
          "_0": "Unique id to track the message request/transaction."
        }
      }
    },
    "version": 1
  },
  "userdoc": {
    "kind": "user",
    "methods": {
      "sendCrossDomainMessage(address,bytes)": {
        "notice": "Sends an arbitrary message from one domain to another."
      }
    },
    "version": 1
  },
  "storageLayout": {
    "storage": [],
    "types": null
  }
}