{
  "address": "0xC1210493804eEF123096F9581Ee82B915150E54c",
  "abi": [
    {
      "inputs": [],
      "stateMutability": "nonpayable",
      "type": "constructor"
    },
    {
      "inputs": [],
      "name": "AlreadyInitialized",
      "type": "error"
    },
    {
      "inputs": [],
      "name": "AppealFeesNotEnough",
      "type": "error"
    },
    {
      "inputs": [],
      "name": "AppealPeriodNotPassed",
      "type": "error"
    },
    {
      "inputs": [],
      "name": "ArbitrableNotWhitelisted",
      "type": "error"
    },
    {
      "inputs": [],
      "name": "ArbitrationFeesNotEnough",
      "type": "error"
    },
    {
      "inputs": [],
      "name": "CannotDisableClassicDK",
      "type": "error"
    },
    {
      "inputs": [],
      "name": "CommitPeriodNotPassed",
      "type": "error"
    },
    {
      "inputs": [],
      "name": "DisputeKitNotSupportedByCourt",
      "type": "error"
    },
    {
      "inputs": [],
      "name": "DisputeKitOnly",
      "type": "error"
    },
    {
      "inputs": [],
      "name": "DisputeNotAppealable",
      "type": "error"
    },
    {
      "inputs": [],
      "name": "DisputePeriodIsFinal",
      "type": "error"
    },
    {
      "inputs": [],
      "name": "DisputeStillDrawing",
      "type": "error"
    },
    {
      "inputs": [],
      "name": "EvidenceNotPassedAndNotAppeal",
      "type": "error"
    },
    {
      "inputs": [],
      "name": "FailedDelegateCall",
      "type": "error"
    },
    {
      "inputs": [],
      "name": "GovernorOnly",
      "type": "error"
    },
    {
      "inputs": [],
      "name": "GuardianOrGovernorOnly",
      "type": "error"
    },
    {
      "inputs": [],
      "name": "InvalidDisputKitParent",
      "type": "error"
    },
    {
      "inputs": [],
      "name": "InvalidForkingCourtAsParent",
      "type": "error"
    },
    {
      "inputs": [
        {
          "internalType": "address",
          "name": "implementation",
          "type": "address"
        }
      ],
      "name": "InvalidImplementation",
      "type": "error"
    },
    {
      "inputs": [],
      "name": "MinStakeLowerThanParentCourt",
      "type": "error"
    },
    {
      "inputs": [],
      "name": "MustSupportDisputeKitClassic",
      "type": "error"
    },
    {
      "inputs": [],
      "name": "NotEligibleForStaking",
      "type": "error"
    },
    {
      "inputs": [],
      "name": "NotEvidencePeriod",
      "type": "error"
    },
    {
      "inputs": [],
      "name": "NotExecutionPeriod",
      "type": "error"
    },
    {
      "inputs": [],
      "name": "NotInitializing",
      "type": "error"
    },
    {
      "inputs": [],
      "name": "RulingAlreadyExecuted",
      "type": "error"
    },
    {
      "inputs": [],
      "name": "SortitionModuleOnly",
      "type": "error"
    },
    {
      "inputs": [],
      "name": "StakingInTooManyCourts",
      "type": "error"
    },
    {
      "inputs": [],
      "name": "StakingLessThanCourtMinStake",
      "type": "error"
    },
    {
      "inputs": [],
      "name": "StakingMoreThanMaxStakePerJuror",
      "type": "error"
    },
    {
      "inputs": [],
      "name": "StakingMoreThanMaxTotalStaked",
      "type": "error"
    },
    {
      "inputs": [],
      "name": "StakingNotPossibleInThisCourt",
      "type": "error"
    },
    {
      "inputs": [],
      "name": "StakingTransferFailed",
      "type": "error"
    },
    {
      "inputs": [],
      "name": "StakingZeroWhenNoStake",
      "type": "error"
    },
    {
      "inputs": [],
      "name": "TokenNotAccepted",
      "type": "error"
    },
    {
      "inputs": [],
      "name": "TransferFailed",
      "type": "error"
    },
    {
      "inputs": [],
      "name": "UUPSUnauthorizedCallContext",
      "type": "error"
    },
    {
      "inputs": [
        {
          "internalType": "bytes32",
          "name": "slot",
          "type": "bytes32"
        }
      ],
      "name": "UUPSUnsupportedProxiableUUID",
      "type": "error"
    },
    {
      "inputs": [],
      "name": "UnstakingTransferFailed",
      "type": "error"
    },
    {
      "inputs": [],
      "name": "UnsuccessfulCall",
      "type": "error"
    },
    {
      "inputs": [],
      "name": "UnsupportedDisputeKit",
      "type": "error"
    },
    {
      "inputs": [],
      "name": "VotePeriodNotPassed",
      "type": "error"
    },
    {
      "inputs": [],
      "name": "WhenNotPausedOnly",
      "type": "error"
    },
    {
      "inputs": [],
      "name": "WhenPausedOnly",
      "type": "error"
    },
    {
      "inputs": [],
      "name": "WrongDisputeKitIndex",
      "type": "error"
    },
    {
      "anonymous": false,
      "inputs": [
        {
          "indexed": true,
          "internalType": "contract IERC20",
          "name": "_token",
          "type": "address"
        },
        {
          "indexed": true,
          "internalType": "bool",
          "name": "_accepted",
          "type": "bool"
        }
      ],
      "name": "AcceptedFeeToken",
      "type": "event"
    },
    {
      "anonymous": false,
      "inputs": [
        {
          "indexed": true,
          "internalType": "uint256",
          "name": "_disputeID",
          "type": "uint256"
        },
        {
          "indexed": true,
          "internalType": "contract IArbitrableV2",
          "name": "_arbitrable",
          "type": "address"
        }
      ],
      "name": "AppealDecision",
      "type": "event"
    },
    {
      "anonymous": false,
      "inputs": [
        {
          "indexed": true,
          "internalType": "uint256",
          "name": "_disputeID",
          "type": "uint256"
        },
        {
          "indexed": true,
          "internalType": "contract IArbitrableV2",
          "name": "_arbitrable",
          "type": "address"
        }
      ],
      "name": "AppealPossible",
      "type": "event"
    },
    {
      "anonymous": false,
      "inputs": [
        {
          "indexed": true,
          "internalType": "uint96",
          "name": "_courtID",
          "type": "uint96"
        },
        {
          "indexed": true,
          "internalType": "uint96",
          "name": "_parent",
          "type": "uint96"
        },
        {
          "indexed": false,
          "internalType": "bool",
          "name": "_hiddenVotes",
          "type": "bool"
        },
        {
          "indexed": false,
          "internalType": "uint256",
          "name": "_minStake",
          "type": "uint256"
        },
        {
          "indexed": false,
          "internalType": "uint256",
          "name": "_alpha",
          "type": "uint256"
        },
        {
          "indexed": false,
          "internalType": "uint256",
          "name": "_feeForJuror",
          "type": "uint256"
        },
        {
          "indexed": false,
          "internalType": "uint256",
          "name": "_jurorsForCourtJump",
          "type": "uint256"
        },
        {
          "indexed": false,
          "internalType": "uint256[4]",
          "name": "_timesPerPeriod",
          "type": "uint256[4]"
        },
        {
          "indexed": false,
          "internalType": "uint256[]",
          "name": "_supportedDisputeKits",
          "type": "uint256[]"
        }
      ],
      "name": "CourtCreated",
      "type": "event"
    },
    {
      "anonymous": false,
      "inputs": [
        {
          "indexed": true,
          "internalType": "uint256",
          "name": "_disputeID",
          "type": "uint256"
        },
        {
          "indexed": true,
          "internalType": "uint256",
          "name": "_roundID",
          "type": "uint256"
        },
        {
          "indexed": true,
          "internalType": "uint96",
          "name": "_fromCourtID",
          "type": "uint96"
        },
        {
          "indexed": false,
          "internalType": "uint96",
          "name": "_toCourtID",
          "type": "uint96"
        }
      ],
      "name": "CourtJump",
      "type": "event"
    },
    {
      "anonymous": false,
      "inputs": [
        {
          "indexed": true,
          "internalType": "uint96",
          "name": "_courtID",
          "type": "uint96"
        },
        {
          "indexed": false,
          "internalType": "bool",
          "name": "_hiddenVotes",
          "type": "bool"
        },
        {
          "indexed": false,
          "internalType": "uint256",
          "name": "_minStake",
          "type": "uint256"
        },
        {
          "indexed": false,
          "internalType": "uint256",
          "name": "_alpha",
          "type": "uint256"
        },
        {
          "indexed": false,
          "internalType": "uint256",
          "name": "_feeForJuror",
          "type": "uint256"
        },
        {
          "indexed": false,
          "internalType": "uint256",
          "name": "_jurorsForCourtJump",
          "type": "uint256"
        },
        {
          "indexed": false,
          "internalType": "uint256[4]",
          "name": "_timesPerPeriod",
          "type": "uint256[4]"
        }
      ],
      "name": "CourtModified",
      "type": "event"
    },
    {
      "anonymous": false,
      "inputs": [
        {
          "indexed": true,
          "internalType": "uint256",
          "name": "_disputeID",
          "type": "uint256"
        },
        {
          "indexed": true,
          "internalType": "contract IArbitrableV2",
          "name": "_arbitrable",
          "type": "address"
        }
      ],
      "name": "DisputeCreation",
      "type": "event"
    },
    {
      "anonymous": false,
      "inputs": [
        {
          "indexed": true,
          "internalType": "uint256",
          "name": "_disputeKitID",
          "type": "uint256"
        },
        {
          "indexed": true,
          "internalType": "contract IDisputeKit",
          "name": "_disputeKitAddress",
          "type": "address"
        }
      ],
      "name": "DisputeKitCreated",
      "type": "event"
    },
    {
      "anonymous": false,
      "inputs": [
        {
          "indexed": true,
          "internalType": "uint96",
          "name": "_courtID",
          "type": "uint96"
        },
        {
          "indexed": true,
          "internalType": "uint256",
          "name": "_disputeKitID",
          "type": "uint256"
        },
        {
          "indexed": true,
          "internalType": "bool",
          "name": "_enable",
          "type": "bool"
        }
      ],
      "name": "DisputeKitEnabled",
      "type": "event"
    },
    {
      "anonymous": false,
      "inputs": [
        {
          "indexed": true,
          "internalType": "uint256",
          "name": "_disputeID",
          "type": "uint256"
        },
        {
          "indexed": true,
          "internalType": "uint256",
          "name": "_roundID",
          "type": "uint256"
        },
        {
          "indexed": true,
          "internalType": "uint256",
          "name": "_fromDisputeKitID",
          "type": "uint256"
        },
        {
          "indexed": false,
          "internalType": "uint256",
          "name": "_toDisputeKitID",
          "type": "uint256"
        }
      ],
      "name": "DisputeKitJump",
      "type": "event"
    },
    {
      "anonymous": false,
      "inputs": [
        {
          "indexed": true,
          "internalType": "address",
          "name": "_address",
          "type": "address"
        },
        {
          "indexed": true,
          "internalType": "uint256",
          "name": "_disputeID",
          "type": "uint256"
        },
        {
          "indexed": false,
          "internalType": "uint256",
          "name": "_roundID",
          "type": "uint256"
        },
        {
          "indexed": false,
          "internalType": "uint256",
          "name": "_voteID",
          "type": "uint256"
        }
      ],
      "name": "Draw",
      "type": "event"
    },
    {
      "anonymous": false,
      "inputs": [
        {
          "indexed": false,
          "internalType": "uint64",
          "name": "version",
          "type": "uint64"
        }
      ],
      "name": "Initialized",
      "type": "event"
    },
    {
      "anonymous": false,
      "inputs": [
        {
          "indexed": true,
          "internalType": "uint256",
          "name": "_disputeID",
          "type": "uint256"
        },
        {
          "indexed": true,
          "internalType": "uint256",
          "name": "_roundID",
          "type": "uint256"
        },
        {
          "indexed": false,
          "internalType": "uint256",
          "name": "_pnkAmount",
          "type": "uint256"
        },
        {
          "indexed": false,
          "internalType": "uint256",
          "name": "_feeAmount",
          "type": "uint256"
        },
        {
          "indexed": false,
          "internalType": "contract IERC20",
          "name": "_feeToken",
          "type": "address"
        }
      ],
      "name": "LeftoverRewardSent",
      "type": "event"
    },
    {
      "anonymous": false,
      "inputs": [
        {
          "indexed": true,
          "internalType": "contract IERC20",
          "name": "_feeToken",
          "type": "address"
        },
        {
          "indexed": false,
          "internalType": "uint64",
          "name": "_rateInEth",
          "type": "uint64"
        },
        {
          "indexed": false,
          "internalType": "uint8",
          "name": "_rateDecimals",
          "type": "uint8"
        }
      ],
      "name": "NewCurrencyRate",
      "type": "event"
    },
    {
      "anonymous": false,
      "inputs": [
        {
          "indexed": true,
          "internalType": "uint256",
          "name": "_disputeID",
          "type": "uint256"
        },
        {
          "indexed": false,
          "internalType": "enum KlerosCoreBase.Period",
          "name": "_period",
          "type": "uint8"
        }
      ],
      "name": "NewPeriod",
      "type": "event"
    },
    {
      "anonymous": false,
      "inputs": [],
      "name": "Paused",
      "type": "event"
    },
    {
      "anonymous": false,
      "inputs": [
        {
          "indexed": true,
          "internalType": "contract IArbitrableV2",
          "name": "_arbitrable",
          "type": "address"
        },
        {
          "indexed": true,
          "internalType": "uint256",
          "name": "_disputeID",
          "type": "uint256"
        },
        {
          "indexed": false,
          "internalType": "uint256",
          "name": "_ruling",
          "type": "uint256"
        }
      ],
      "name": "Ruling",
      "type": "event"
    },
    {
      "anonymous": false,
      "inputs": [
        {
          "indexed": true,
          "internalType": "address",
          "name": "_account",
          "type": "address"
        },
        {
          "indexed": true,
          "internalType": "uint256",
          "name": "_disputeID",
          "type": "uint256"
        },
        {
          "indexed": true,
          "internalType": "uint256",
          "name": "_roundID",
          "type": "uint256"
        },
        {
          "indexed": false,
          "internalType": "uint256",
          "name": "_degreeOfCoherency",
          "type": "uint256"
        },
        {
          "indexed": false,
          "internalType": "int256",
          "name": "_pnkAmount",
          "type": "int256"
        },
        {
          "indexed": false,
          "internalType": "int256",
          "name": "_feeAmount",
          "type": "int256"
        },
        {
          "indexed": false,
          "internalType": "contract IERC20",
          "name": "_feeToken",
          "type": "address"
        }
      ],
      "name": "TokenAndETHShift",
      "type": "event"
    },
    {
      "anonymous": false,
      "inputs": [],
      "name": "Unpaused",
      "type": "event"
    },
    {
      "anonymous": false,
      "inputs": [
        {
          "indexed": true,
          "internalType": "address",
          "name": "newImplementation",
          "type": "address"
        }
      ],
      "name": "Upgraded",
      "type": "event"
    },
    {
      "inputs": [
        {
          "internalType": "contract IDisputeKit",
          "name": "_disputeKitAddress",
          "type": "address"
        }
      ],
      "name": "addNewDisputeKit",
      "outputs": [],
      "stateMutability": "nonpayable",
      "type": "function"
    },
    {
      "inputs": [
        {
          "internalType": "uint256",
          "name": "_disputeID",
          "type": "uint256"
        },
        {
          "internalType": "uint256",
          "name": "_numberOfChoices",
          "type": "uint256"
        },
        {
          "internalType": "bytes",
          "name": "_extraData",
          "type": "bytes"
        }
      ],
      "name": "appeal",
      "outputs": [],
      "stateMutability": "payable",
      "type": "function"
    },
    {
      "inputs": [
        {
          "internalType": "uint256",
          "name": "_disputeID",
          "type": "uint256"
        }
      ],
      "name": "appealCost",
      "outputs": [
        {
          "internalType": "uint256",
          "name": "cost",
          "type": "uint256"
        }
      ],
      "stateMutability": "view",
      "type": "function"
    },
    {
      "inputs": [
        {
          "internalType": "uint256",
          "name": "_disputeID",
          "type": "uint256"
        }
      ],
      "name": "appealPeriod",
      "outputs": [
        {
          "internalType": "uint256",
          "name": "start",
          "type": "uint256"
        },
        {
          "internalType": "uint256",
          "name": "end",
          "type": "uint256"
        }
      ],
      "stateMutability": "view",
      "type": "function"
    },
    {
      "inputs": [
        {
          "internalType": "address",
          "name": "",
          "type": "address"
        }
      ],
      "name": "arbitrableWhitelist",
      "outputs": [
        {
          "internalType": "bool",
          "name": "",
          "type": "bool"
        }
      ],
      "stateMutability": "view",
      "type": "function"
    },
    {
      "inputs": [
        {
          "internalType": "bytes",
          "name": "_extraData",
          "type": "bytes"
        },
        {
          "internalType": "contract IERC20",
          "name": "_feeToken",
          "type": "address"
        }
      ],
      "name": "arbitrationCost",
      "outputs": [
        {
          "internalType": "uint256",
          "name": "cost",
          "type": "uint256"
        }
      ],
      "stateMutability": "view",
      "type": "function"
    },
    {
      "inputs": [
        {
          "internalType": "bytes",
          "name": "_extraData",
          "type": "bytes"
        }
      ],
      "name": "arbitrationCost",
      "outputs": [
        {
          "internalType": "uint256",
          "name": "cost",
          "type": "uint256"
        }
      ],
      "stateMutability": "view",
      "type": "function"
    },
    {
      "inputs": [
        {
          "internalType": "contract IERC20",
          "name": "_feeToken",
          "type": "address"
        },
        {
          "internalType": "bool",
          "name": "_accepted",
          "type": "bool"
        }
      ],
      "name": "changeAcceptedFeeTokens",
      "outputs": [],
      "stateMutability": "nonpayable",
      "type": "function"
    },
    {
      "inputs": [
        {
          "internalType": "address",
          "name": "_arbitrable",
          "type": "address"
        },
        {
          "internalType": "bool",
          "name": "_allowed",
          "type": "bool"
        }
      ],
      "name": "changeArbitrableWhitelist",
      "outputs": [],
      "stateMutability": "nonpayable",
      "type": "function"
    },
    {
      "inputs": [
        {
          "internalType": "uint96",
          "name": "_courtID",
          "type": "uint96"
        },
        {
          "internalType": "bool",
          "name": "_hiddenVotes",
          "type": "bool"
        },
        {
          "internalType": "uint256",
          "name": "_minStake",
          "type": "uint256"
        },
        {
          "internalType": "uint256",
          "name": "_alpha",
          "type": "uint256"
        },
        {
          "internalType": "uint256",
          "name": "_feeForJuror",
          "type": "uint256"
        },
        {
          "internalType": "uint256",
          "name": "_jurorsForCourtJump",
          "type": "uint256"
        },
        {
          "internalType": "uint256[4]",
          "name": "_timesPerPeriod",
          "type": "uint256[4]"
        }
      ],
      "name": "changeCourtParameters",
      "outputs": [],
      "stateMutability": "nonpayable",
      "type": "function"
    },
    {
      "inputs": [
        {
          "internalType": "contract IERC20",
          "name": "_feeToken",
          "type": "address"
        },
        {
          "internalType": "uint64",
          "name": "_rateInEth",
          "type": "uint64"
        },
        {
          "internalType": "uint8",
          "name": "_rateDecimals",
          "type": "uint8"
        }
      ],
      "name": "changeCurrencyRates",
      "outputs": [],
      "stateMutability": "nonpayable",
      "type": "function"
    },
    {
      "inputs": [
        {
          "internalType": "address payable",
          "name": "_governor",
          "type": "address"
        }
      ],
      "name": "changeGovernor",
      "outputs": [],
      "stateMutability": "nonpayable",
      "type": "function"
    },
    {
      "inputs": [
        {
          "internalType": "address",
          "name": "_guardian",
          "type": "address"
        }
      ],
      "name": "changeGuardian",
      "outputs": [],
      "stateMutability": "nonpayable",
      "type": "function"
    },
    {
      "inputs": [
        {
          "internalType": "contract IERC721",
          "name": "_jurorNft",
          "type": "address"
        }
      ],
      "name": "changeJurorNft",
      "outputs": [],
      "stateMutability": "nonpayable",
      "type": "function"
    },
    {
      "inputs": [
        {
          "internalType": "address",
          "name": "_jurorProsecutionModule",
          "type": "address"
        }
      ],
      "name": "changeJurorProsecutionModule",
      "outputs": [],
      "stateMutability": "nonpayable",
      "type": "function"
    },
    {
      "inputs": [
        {
          "internalType": "contract IERC20",
          "name": "_pinakion",
          "type": "address"
        }
      ],
      "name": "changePinakion",
      "outputs": [],
      "stateMutability": "nonpayable",
      "type": "function"
    },
    {
      "inputs": [
        {
          "internalType": "contract ISortitionModule",
          "name": "_sortitionModule",
          "type": "address"
        }
      ],
      "name": "changeSortitionModule",
      "outputs": [],
      "stateMutability": "nonpayable",
      "type": "function"
    },
    {
      "inputs": [
        {
          "internalType": "contract IERC20",
          "name": "_toToken",
          "type": "address"
        },
        {
          "internalType": "uint256",
          "name": "_amountInEth",
          "type": "uint256"
        }
      ],
      "name": "convertEthToTokenAmount",
      "outputs": [
        {
          "internalType": "uint256",
          "name": "",
          "type": "uint256"
        }
      ],
      "stateMutability": "view",
      "type": "function"
    },
    {
      "inputs": [
        {
          "internalType": "uint256",
          "name": "",
          "type": "uint256"
        }
      ],
      "name": "courts",
      "outputs": [
        {
          "internalType": "uint96",
          "name": "parent",
          "type": "uint96"
        },
        {
          "internalType": "bool",
          "name": "hiddenVotes",
          "type": "bool"
        },
        {
          "internalType": "uint256",
          "name": "minStake",
          "type": "uint256"
        },
        {
          "internalType": "uint256",
          "name": "alpha",
          "type": "uint256"
        },
        {
          "internalType": "uint256",
          "name": "feeForJuror",
          "type": "uint256"
        },
        {
          "internalType": "uint256",
          "name": "jurorsForCourtJump",
          "type": "uint256"
        },
        {
          "internalType": "bool",
          "name": "disabled",
          "type": "bool"
        }
      ],
      "stateMutability": "view",
      "type": "function"
    },
    {
      "inputs": [
        {
          "internalType": "uint96",
          "name": "_parent",
          "type": "uint96"
        },
        {
          "internalType": "bool",
          "name": "_hiddenVotes",
          "type": "bool"
        },
        {
          "internalType": "uint256",
          "name": "_minStake",
          "type": "uint256"
        },
        {
          "internalType": "uint256",
          "name": "_alpha",
          "type": "uint256"
        },
        {
          "internalType": "uint256",
          "name": "_feeForJuror",
          "type": "uint256"
        },
        {
          "internalType": "uint256",
          "name": "_jurorsForCourtJump",
          "type": "uint256"
        },
        {
          "internalType": "uint256[4]",
          "name": "_timesPerPeriod",
          "type": "uint256[4]"
        },
        {
          "internalType": "bytes",
          "name": "_sortitionExtraData",
          "type": "bytes"
        },
        {
          "internalType": "uint256[]",
          "name": "_supportedDisputeKits",
          "type": "uint256[]"
        }
      ],
      "name": "createCourt",
      "outputs": [],
      "stateMutability": "nonpayable",
      "type": "function"
    },
    {
      "inputs": [
        {
          "internalType": "uint256",
          "name": "_numberOfChoices",
          "type": "uint256"
        },
        {
          "internalType": "bytes",
          "name": "_extraData",
          "type": "bytes"
        }
      ],
      "name": "createDispute",
      "outputs": [
        {
          "internalType": "uint256",
          "name": "disputeID",
          "type": "uint256"
        }
      ],
      "stateMutability": "payable",
      "type": "function"
    },
    {
      "inputs": [
        {
          "internalType": "uint256",
          "name": "_numberOfChoices",
          "type": "uint256"
        },
        {
          "internalType": "bytes",
          "name": "_extraData",
          "type": "bytes"
        },
        {
          "internalType": "contract IERC20",
          "name": "_feeToken",
          "type": "address"
        },
        {
          "internalType": "uint256",
          "name": "_feeAmount",
          "type": "uint256"
        }
      ],
      "name": "createDispute",
      "outputs": [
        {
          "internalType": "uint256",
          "name": "disputeID",
          "type": "uint256"
        }
      ],
      "stateMutability": "nonpayable",
      "type": "function"
    },
    {
      "inputs": [
        {
          "internalType": "contract IERC20",
          "name": "",
          "type": "address"
        }
      ],
      "name": "currencyRates",
      "outputs": [
        {
          "internalType": "bool",
          "name": "feePaymentAccepted",
          "type": "bool"
        },
        {
          "internalType": "uint64",
          "name": "rateInEth",
          "type": "uint64"
        },
        {
          "internalType": "uint8",
          "name": "rateDecimals",
          "type": "uint8"
        }
      ],
      "stateMutability": "view",
      "type": "function"
    },
    {
      "inputs": [
        {
          "internalType": "uint256",
          "name": "_disputeID",
          "type": "uint256"
        }
      ],
      "name": "currentRuling",
      "outputs": [
        {
          "internalType": "uint256",
          "name": "ruling",
          "type": "uint256"
        },
        {
          "internalType": "bool",
          "name": "tied",
          "type": "bool"
        },
        {
          "internalType": "bool",
          "name": "overridden",
          "type": "bool"
        }
      ],
      "stateMutability": "view",
      "type": "function"
    },
    {
      "inputs": [
        {
          "internalType": "uint256",
          "name": "",
          "type": "uint256"
        }
      ],
      "name": "disputeKits",
      "outputs": [
        {
          "internalType": "contract IDisputeKit",
          "name": "",
          "type": "address"
        }
      ],
      "stateMutability": "view",
      "type": "function"
    },
    {
      "inputs": [
        {
          "internalType": "uint256",
          "name": "",
          "type": "uint256"
        }
      ],
      "name": "disputes",
      "outputs": [
        {
          "internalType": "uint96",
          "name": "courtID",
          "type": "uint96"
        },
        {
          "internalType": "contract IArbitrableV2",
          "name": "arbitrated",
          "type": "address"
        },
        {
          "internalType": "enum KlerosCoreBase.Period",
          "name": "period",
          "type": "uint8"
        },
        {
          "internalType": "bool",
          "name": "ruled",
          "type": "bool"
        },
        {
          "internalType": "uint256",
          "name": "lastPeriodChange",
          "type": "uint256"
        }
      ],
      "stateMutability": "view",
      "type": "function"
    },
    {
      "inputs": [
        {
          "internalType": "uint256",
          "name": "_disputeID",
          "type": "uint256"
        },
        {
          "internalType": "uint256",
          "name": "_iterations",
          "type": "uint256"
        }
      ],
      "name": "draw",
      "outputs": [
        {
          "internalType": "uint256",
          "name": "nbDrawnJurors",
          "type": "uint256"
        }
      ],
      "stateMutability": "nonpayable",
      "type": "function"
    },
    {
      "inputs": [
        {
          "internalType": "uint96",
          "name": "_courtID",
          "type": "uint96"
        },
        {
          "internalType": "uint256[]",
          "name": "_disputeKitIDs",
          "type": "uint256[]"
        },
        {
          "internalType": "bool",
          "name": "_enable",
          "type": "bool"
        }
      ],
      "name": "enableDisputeKits",
      "outputs": [],
      "stateMutability": "nonpayable",
      "type": "function"
    },
    {
      "inputs": [
        {
          "internalType": "uint256",
          "name": "_disputeID",
          "type": "uint256"
        },
        {
          "internalType": "uint256",
          "name": "_round",
          "type": "uint256"
        },
        {
          "internalType": "uint256",
          "name": "_iterations",
          "type": "uint256"
        }
      ],
      "name": "execute",
      "outputs": [],
      "stateMutability": "nonpayable",
      "type": "function"
    },
    {
      "inputs": [
        {
          "internalType": "address",
          "name": "_destination",
          "type": "address"
        },
        {
          "internalType": "uint256",
          "name": "_amount",
          "type": "uint256"
        },
        {
          "internalType": "bytes",
          "name": "_data",
          "type": "bytes"
        }
      ],
      "name": "executeGovernorProposal",
      "outputs": [],
      "stateMutability": "nonpayable",
      "type": "function"
    },
    {
      "inputs": [
        {
          "internalType": "uint256",
          "name": "_disputeID",
          "type": "uint256"
        }
      ],
      "name": "executeRuling",
      "outputs": [],
      "stateMutability": "nonpayable",
      "type": "function"
    },
    {
      "inputs": [],
      "name": "getDisputeKitsLength",
      "outputs": [
        {
          "internalType": "uint256",
          "name": "",
          "type": "uint256"
        }
      ],
      "stateMutability": "view",
      "type": "function"
    },
    {
      "inputs": [
        {
          "internalType": "uint256",
          "name": "_disputeID",
          "type": "uint256"
        }
      ],
      "name": "getNumberOfRounds",
      "outputs": [
        {
          "internalType": "uint256",
          "name": "",
          "type": "uint256"
        }
      ],
      "stateMutability": "view",
      "type": "function"
    },
    {
      "inputs": [
        {
          "internalType": "uint256",
          "name": "_disputeID",
          "type": "uint256"
        }
      ],
      "name": "getNumberOfVotes",
      "outputs": [
        {
          "internalType": "uint256",
          "name": "",
          "type": "uint256"
        }
      ],
      "stateMutability": "view",
      "type": "function"
    },
    {
      "inputs": [
        {
          "internalType": "uint256",
          "name": "_disputeID",
          "type": "uint256"
        },
        {
          "internalType": "uint256",
          "name": "_round",
          "type": "uint256"
        }
      ],
      "name": "getPnkAtStakePerJuror",
      "outputs": [
        {
          "internalType": "uint256",
          "name": "",
          "type": "uint256"
        }
      ],
      "stateMutability": "view",
      "type": "function"
    },
    {
      "inputs": [
        {
          "internalType": "uint256",
          "name": "_disputeID",
          "type": "uint256"
        },
        {
          "internalType": "uint256",
          "name": "_round",
          "type": "uint256"
        }
      ],
      "name": "getRoundInfo",
      "outputs": [
        {
          "components": [
            {
              "internalType": "uint256",
              "name": "disputeKitID",
              "type": "uint256"
            },
            {
              "internalType": "uint256",
              "name": "pnkAtStakePerJuror",
              "type": "uint256"
            },
            {
              "internalType": "uint256",
              "name": "totalFeesForJurors",
              "type": "uint256"
            },
            {
              "internalType": "uint256",
              "name": "nbVotes",
              "type": "uint256"
            },
            {
              "internalType": "uint256",
              "name": "repartitions",
              "type": "uint256"
            },
            {
              "internalType": "uint256",
              "name": "pnkPenalties",
              "type": "uint256"
            },
            {
              "internalType": "address[]",
              "name": "drawnJurors",
              "type": "address[]"
            },
            {
              "internalType": "uint256",
              "name": "sumFeeRewardPaid",
              "type": "uint256"
            },
            {
              "internalType": "uint256",
              "name": "sumPnkRewardPaid",
              "type": "uint256"
            },
            {
              "internalType": "contract IERC20",
              "name": "feeToken",
              "type": "address"
            },
            {
              "internalType": "uint256",
              "name": "drawIterations",
              "type": "uint256"
            }
          ],
          "internalType": "struct KlerosCoreBase.Round",
          "name": "",
          "type": "tuple"
        }
      ],
      "stateMutability": "view",
      "type": "function"
    },
    {
      "inputs": [
        {
          "internalType": "uint96",
          "name": "_courtID",
          "type": "uint96"
        }
      ],
      "name": "getTimesPerPeriod",
      "outputs": [
        {
          "internalType": "uint256[4]",
          "name": "timesPerPeriod",
          "type": "uint256[4]"
        }
      ],
      "stateMutability": "view",
      "type": "function"
    },
    {
      "inputs": [],
      "name": "governor",
      "outputs": [
        {
          "internalType": "address",
          "name": "",
          "type": "address"
        }
      ],
      "stateMutability": "view",
      "type": "function"
    },
    {
      "inputs": [],
      "name": "guardian",
      "outputs": [
        {
          "internalType": "address",
          "name": "",
          "type": "address"
        }
      ],
      "stateMutability": "view",
      "type": "function"
    },
    {
      "inputs": [
        {
          "internalType": "address",
          "name": "_governor",
          "type": "address"
        },
        {
          "internalType": "address",
          "name": "_guardian",
          "type": "address"
        },
        {
          "internalType": "contract IERC20",
          "name": "_pinakion",
          "type": "address"
        },
        {
          "internalType": "address",
          "name": "_jurorProsecutionModule",
          "type": "address"
        },
        {
          "internalType": "contract IDisputeKit",
          "name": "_disputeKit",
          "type": "address"
        },
        {
          "internalType": "bool",
          "name": "_hiddenVotes",
          "type": "bool"
        },
        {
          "internalType": "uint256[4]",
          "name": "_courtParameters",
          "type": "uint256[4]"
        },
        {
          "internalType": "uint256[4]",
          "name": "_timesPerPeriod",
          "type": "uint256[4]"
        },
        {
          "internalType": "bytes",
          "name": "_sortitionExtraData",
          "type": "bytes"
        },
        {
          "internalType": "contract ISortitionModule",
          "name": "_sortitionModuleAddress",
          "type": "address"
        },
        {
          "internalType": "contract IERC721",
          "name": "_jurorNft",
          "type": "address"
        },
        {
          "internalType": "address",
          "name": "_wNative",
          "type": "address"
        }
      ],
      "name": "initialize",
      "outputs": [],
      "stateMutability": "nonpayable",
      "type": "function"
    },
    {
      "inputs": [
        {
          "internalType": "uint256",
          "name": "_disputeID",
          "type": "uint256"
        }
      ],
      "name": "isDisputeKitJumping",
      "outputs": [
        {
          "internalType": "bool",
          "name": "",
          "type": "bool"
        }
      ],
      "stateMutability": "view",
      "type": "function"
    },
    {
      "inputs": [
        {
          "internalType": "uint96",
          "name": "_courtID",
          "type": "uint96"
        },
        {
          "internalType": "uint256",
          "name": "_disputeKitID",
          "type": "uint256"
        }
      ],
      "name": "isSupported",
      "outputs": [
        {
          "internalType": "bool",
          "name": "",
          "type": "bool"
        }
      ],
      "stateMutability": "view",
      "type": "function"
    },
    {
      "inputs": [],
      "name": "jurorNft",
      "outputs": [
        {
          "internalType": "contract IERC721",
          "name": "",
          "type": "address"
        }
      ],
      "stateMutability": "view",
      "type": "function"
    },
    {
      "inputs": [],
      "name": "jurorProsecutionModule",
      "outputs": [
        {
          "internalType": "address",
          "name": "",
          "type": "address"
        }
      ],
      "stateMutability": "view",
      "type": "function"
    },
    {
      "inputs": [
        {
          "internalType": "uint256",
          "name": "_disputeID",
          "type": "uint256"
        }
      ],
      "name": "passPeriod",
      "outputs": [],
      "stateMutability": "nonpayable",
      "type": "function"
    },
    {
      "inputs": [],
      "name": "pause",
      "outputs": [],
      "stateMutability": "nonpayable",
      "type": "function"
    },
    {
      "inputs": [],
      "name": "paused",
      "outputs": [
        {
          "internalType": "bool",
          "name": "",
          "type": "bool"
        }
      ],
      "stateMutability": "view",
      "type": "function"
    },
    {
      "inputs": [],
      "name": "pinakion",
      "outputs": [
        {
          "internalType": "contract IERC20",
          "name": "",
          "type": "address"
        }
      ],
      "stateMutability": "view",
      "type": "function"
    },
    {
      "inputs": [],
      "name": "proxiableUUID",
      "outputs": [
        {
          "internalType": "bytes32",
          "name": "",
          "type": "bytes32"
        }
      ],
      "stateMutability": "view",
      "type": "function"
    },
    {
      "inputs": [
        {
          "internalType": "address",
          "name": "_wNative",
          "type": "address"
        }
      ],
      "name": "reinitialize",
      "outputs": [],
      "stateMutability": "nonpayable",
      "type": "function"
    },
    {
      "inputs": [
        {
          "internalType": "uint96",
          "name": "_courtID",
          "type": "uint96"
        },
        {
          "internalType": "uint256",
          "name": "_newStake",
          "type": "uint256"
        }
      ],
      "name": "setStake",
      "outputs": [],
      "stateMutability": "nonpayable",
      "type": "function"
    },
    {
      "inputs": [
        {
          "internalType": "address",
          "name": "_account",
          "type": "address"
        },
        {
          "internalType": "uint96",
          "name": "_courtID",
          "type": "uint96"
        },
        {
          "internalType": "uint256",
          "name": "_newStake",
          "type": "uint256"
        }
      ],
      "name": "setStakeBySortitionModule",
      "outputs": [],
      "stateMutability": "nonpayable",
      "type": "function"
    },
    {
      "inputs": [],
      "name": "sortitionModule",
      "outputs": [
        {
          "internalType": "contract ISortitionModule",
          "name": "",
          "type": "address"
        }
      ],
      "stateMutability": "view",
      "type": "function"
    },
    {
      "inputs": [
        {
          "internalType": "address",
          "name": "_account",
          "type": "address"
        },
        {
          "internalType": "uint256",
          "name": "_amount",
          "type": "uint256"
        }
      ],
      "name": "transferBySortitionModule",
      "outputs": [],
      "stateMutability": "nonpayable",
      "type": "function"
    },
    {
      "inputs": [],
      "name": "unpause",
      "outputs": [],
      "stateMutability": "nonpayable",
      "type": "function"
    },
    {
      "inputs": [
        {
          "internalType": "address",
          "name": "newImplementation",
          "type": "address"
        },
        {
          "internalType": "bytes",
          "name": "data",
          "type": "bytes"
        }
      ],
      "name": "upgradeToAndCall",
      "outputs": [],
      "stateMutability": "payable",
      "type": "function"
    },
    {
      "inputs": [],
      "name": "version",
      "outputs": [
        {
          "internalType": "string",
          "name": "",
          "type": "string"
        }
      ],
      "stateMutability": "view",
      "type": "function"
    },
    {
      "inputs": [],
      "name": "wNative",
      "outputs": [
        {
          "internalType": "address",
          "name": "",
          "type": "address"
        }
      ],
      "stateMutability": "view",
      "type": "function"
    }
  ],
  "transactionHash": "0xd9c5f763c1dcbbf614793dc5ebef833d080e5ef31171e8cbdbda56e787982c28",
  "args": [],
  "numDeployments": 3,
  "solcInputHash": "dce986e4165bcb9f133699e2fcc4a531",
  "bytecode": "0x60a06040523060805234801561001457600080fd5b5061001d610022565b6100d3565b7ff0c57e16840df040f15088dc2f81fe391c3923bec73e23a9662efc9c229c6a0e805468010000000000000000900460ff16156100715760405162dc149f60e41b815260040160405180910390fd5b80546001600160401b03908116146100d05780546001600160401b0319166001600160401b0390811782556040519081527fc7f505b2f371ae2175ee4913f4499e1f2633a7b5936321eed1cdaeb6115181d29060200160405180910390a15b50565b608051615fe46100fc600039600081816119f601528181611a1f0152611c140152615fe46000f3fe6080604052600436106103005760003560e01c806382d0223711610191578063c71f4253116100e2578063f6506db411610090578063f6506db414610a43578063f7434ea914610a63578063f7e7d1fd14610a83578063fbf405b014610aa3578063fc6f8f1614610ac3578063fca31d6d14610ae3578063fe4037e614610b03578063fe524c3914610b2357600080fd5b8063c71f42531461096e578063cf0c38f81461098e578063d07368bd146109ae578063d2b8035a146109ce578063d4d1d76a146109ee578063d98493f614610a03578063e4c0aaf414610a2357600080fd5b8063acdbf51d1161013f578063acdbf51d14610883578063afe15cfb146108a3578063b0049637146108d8578063b44d573c146108f8578063c13517e114610928578063c258bb191461093b578063c35699021461095b57600080fd5b806382d02237146107a15780638456cb59146107c157806386541b24146107d657806386cdecef146107f65780638a9bb02a146108165780638bb0487514610843578063a072b86c1461086357600080fd5b80632e2e936a1161025657806352d1902d1161020457806352d1902d1461068257806354fd4d5014610697578063564a565d146106d657806359ec827e146107075780635c975abb14610727578063751accd0146107415780637717a6e8146107615780637934c0be1461078157600080fd5b80632e2e936a146105ad5780632fcb4f04146105cd5780633cfd1184146105ed5780633f4ba83a1461061a57806342c37fa31461062f578063452a93201461064f5780634f1ef2861461066f57600080fd5b806319b81529116102b357806319b815291461045a5780631c3db16d1461048a5780631d7e6892146104c75780631f5a0dd2146104e75780632d29a47b146105485780632d68efc9146105685780632e1daf2f1461058d57600080fd5b8062f5822c146103055780630219da79146103275780630761c14d1461039f5780630b7414bc146103bf5780630c340a24146103df578063115d53761461040c5780631860592b1461042c575b600080fd5b34801561031157600080fd5b50610325610320366004615102565b610b43565b005b34801561033357600080fd5b50610372610342366004615102565b60086020526000908152604090205460ff808216916001600160401b0361010082041691600160481b9091041683565b6040805193151584526001600160401b03909216602084015260ff16908201526060015b60405180910390f35b3480156103ab57600080fd5b506103256103ba36600461513d565b610b90565b3480156103cb57600080fd5b506103256103da366004615253565b610bce565b3480156103eb57600080fd5b506000546103ff906001600160a01b031681565b60405161039691906152b4565b34801561041857600080fd5b506103256104273660046152c8565b610cff565b34801561043857600080fd5b5061044c6104473660046152e1565b6112cc565b604051908152602001610396565b34801561046657600080fd5b5061047a6104753660046152c8565b611326565b6040519015158152602001610396565b34801561049657600080fd5b506104aa6104a53660046152c8565b61141f565b604080519384529115156020840152151590820152606001610396565b3480156104d357600080fd5b506103256104e236600461530d565b611520565b3480156104f357600080fd5b506105076105023660046152c8565b611576565b604080516001600160601b0390981688529515156020880152948601939093526060850191909152608084015260a0830152151560c082015260e001610396565b34801561055457600080fd5b50610325610563366004615346565b6115d5565b34801561057457600080fd5b506009546103ff9061010090046001600160a01b031681565b34801561059957600080fd5b506004546103ff906001600160a01b031681565b3480156105b957600080fd5b50600b546103ff906001600160a01b031681565b3480156105d957600080fd5b506103256105e8366004615102565b611861565b3480156105f957600080fd5b5061060d610608366004615372565b6118ae565b60405161039691906153b0565b34801561062657600080fd5b50610325611918565b34801561063b57600080fd5b5061032561064a3660046152e1565b61199b565b34801561065b57600080fd5b506001546103ff906001600160a01b031681565b61032561067d36600461542d565b6119e2565b34801561068e57600080fd5b5061044c611c07565b3480156106a357600080fd5b506106c9604051806040016040528060068152602001650302e31302e360d41b81525081565b60405161039691906154cc565b3480156106e257600080fd5b506106f66106f13660046152c8565b611c65565b604051610396959493929190615517565b34801561071357600080fd5b5061044c6107223660046152c8565b611cc1565b34801561073357600080fd5b5060095461047a9060ff1681565b34801561074d57600080fd5b5061032561075c366004615556565b611e16565b34801561076d57600080fd5b5061032561077c3660046155ae565b611ec0565b34801561078d57600080fd5b5061032561079c36600461530d565b611f82565b3480156107ad57600080fd5b506103256107bc3660046155ca565b612001565b3480156107cd57600080fd5b506103256120be565b3480156107e257600080fd5b506103256107f1366004615689565b61215e565b34801561080257600080fd5b5061044c6108113660046156f7565b61233b565b34801561082257600080fd5b506108366108313660046156f7565b61238c565b604051610396919061575e565b34801561084f57600080fd5b5061032561085e3660046152c8565b612518565b34801561086f57600080fd5b5061032561087e366004615804565b61267d565b34801561088f57600080fd5b506103ff61089e3660046152c8565b6129b5565b3480156108af57600080fd5b506108c36108be3660046152c8565b6129df565b60408051928352602083019190915201610396565b3480156108e457600080fd5b506103256108f3366004615102565b612a8b565b34801561090457600080fd5b5061047a610913366004615102565b600a6020526000908152604090205460ff1681565b61044c6109363660046158c8565b612ad8565b34801561094757600080fd5b50610325610956366004615102565b612b10565b6103256109693660046158f8565b612b5d565b34801561097a57600080fd5b5061044c6109893660046152c8565b613022565b34801561099a57600080fd5b506003546103ff906001600160a01b031681565b3480156109ba57600080fd5b506103256109c9366004615102565b61308a565b3480156109da57600080fd5b5061044c6109e93660046156f7565b613133565b3480156109fa57600080fd5b5060065461044c565b348015610a0f57600080fd5b5061044c610a1e366004615979565b613452565b348015610a2f57600080fd5b50610325610a3e366004615102565b61349f565b348015610a4f57600080fd5b5061044c610a5e3660046159c4565b6134ec565b348015610a6f57600080fd5b5061044c610a7e366004615a2a565b6135d0565b348015610a8f57600080fd5b50610325610a9e366004615102565b61361c565b348015610aaf57600080fd5b506002546103ff906001600160a01b031681565b348015610acf57600080fd5b5061044c610ade3660046152c8565b6136f3565b348015610aef57600080fd5b50610325610afe366004615a5e565b613722565b348015610b0f57600080fd5b50610325610b1e366004615102565b613818565b348015610b2f57600080fd5b5061047a610b3e3660046155ae565b613865565b6000546001600160a01b03163314610b6e5760405163c383977560e01b815260040160405180910390fd5b600280546001600160a01b0319166001600160a01b0392909216919091179055565b6004546001600160a01b03163314610bbb57604051639d6cab9960e01b815260040160405180910390fd5b610bc883838360016138ad565b50505050565b6000546001600160a01b03163314610bf95760405163c383977560e01b815260040160405180910390fd5b60005b8251811015610bc8578115610c9857828181518110610c1d57610c1d615b5a565b602002602001015160001480610c5057506006548351849083908110610c4557610c45615b5a565b602002602001015110155b15610c6e57604051633d58a98960e11b815260040160405180910390fd5b610c9384848381518110610c8457610c84615b5a565b60200260200101516001613b29565b610cf7565b6001838281518110610cac57610cac615b5a565b602002602001015103610cd2576040516356d111fd60e11b815260040160405180910390fd5b610cf784848381518110610ce857610ce8615b5a565b60200260200101516000613b29565b600101610bfc565b600060078281548110610d1457610d14615b5a565b600091825260208220600490910201805460058054929450916001600160601b03909116908110610d4757610d47615b5a565b6000918252602082206003850154600c909202019250610d6990600190615b86565b90506000836003018281548110610d8257610d82615b5a565b600091825260208220600b909102019150600185015460ff166004811115610dac57610dac6154df565b03610e875781158015610dfb57506001840154600684019060ff166004811115610dd857610dd86154df565b60048110610de857610de8615b5a565b01546002850154610df99042615b86565b105b15610e1957604051633e9727df60e01b815260040160405180910390fd5b6003810154600682015414610e41576040516309e4486b60e41b815260040160405180910390fd5b8254600160601b900460ff16610e58576002610e5b565b60015b60018086018054909160ff1990911690836004811115610e7d57610e7d6154df565b021790555061127e565b60018085015460ff166004811115610ea157610ea16154df565b03610fb1576001840154600684019060ff166004811115610ec457610ec46154df565b60048110610ed457610ed4615b5a565b01546002850154610ee59042615b86565b108015610f7c57506006816000015481548110610f0457610f04615b5a565b600091825260209091200154604051630baa64d160e01b8152600481018790526001600160a01b0390911690630baa64d190602401602060405180830381865afa158015610f56573d6000803e3d6000fd5b505050506040513d601f19601f82011682018060405250810190610f7a9190615b99565b155b15610f9a57604051634dfa578560e11b815260040160405180910390fd5b6001808501805460029260ff199091169083610e7d565b6002600185015460ff166004811115610fcc57610fcc6154df565b0361111a576001840154600684019060ff166004811115610fef57610fef6154df565b60048110610fff57610fff615b5a565b015460028501546110109042615b86565b1080156110a75750600681600001548154811061102f5761102f615b5a565b6000918252602090912001546040516336a66c7560e11b8152600481018790526001600160a01b0390911690636d4cd8ea90602401602060405180830381865afa158015611081573d6000803e3d6000fd5b505050506040513d601f19601f820116820180604052508101906110a59190615b99565b155b156110c557604051631988dead60e31b815260040160405180910390fd5b600184018054600360ff199091161790558354604051600160601b9091046001600160a01b03169086907fa5d41b970d849372be1da1481ffd78d162bfe57a7aa2fe4e5fb73481fa5ac24f90600090a361127e565b6003600185015460ff166004811115611135576111356154df565b03611245576001840154600684019060ff166004811115611158576111586154df565b6004811061116857611168615b5a565b015460028501546111799042615b86565b1080156112105750600681600001548154811061119857611198615b5a565b600091825260209091200154604051630855bbe960e01b8152600481018790526001600160a01b0390911690630855bbe990602401602060405180830381865afa1580156111ea573d6000803e3d6000fd5b505050506040513d601f19601f8201168201806040525081019061120e9190615b99565b155b1561122e57604051632f4dfd8760e01b815260040160405180910390fd5b6001808501805460049260ff199091169083610e7d565b6004600185015460ff166004811115611260576112606154df565b0361127e576040516307f38c8f60e11b815260040160405180910390fd5b426002850155600184015460405186917f4e6f5cf43b95303e86aee81683df63992061723a829ee012db21dad388756b91916112bd9160ff1690615bb6565b60405180910390a25050505050565b6001600160a01b03821660009081526008602052604081205461010081046001600160401b03169061130990600160481b900460ff16600a615cab565b6113139084615cba565b61131d9190615ce7565b90505b92915050565b6000806007838154811061133c5761133c615b5a565b600091825260208220600360049092020190810180549193509061136290600190615b86565b8154811061137257611372615b5a565b600091825260208220845460058054600b909402909201945090916001600160601b039091169081106113a7576113a7615b5a565b90600052602060002090600c020190508060050154826003015410156113d257506000949350505050565b80546005805490916001600160601b03169081106113f2576113f2615b5a565b6000918252602080832094548352600a600c9092029094010190925250604090205460ff16159392505050565b6000806000806007858154811061143857611438615b5a565b600091825260208220600360049092020190810180549193509061145e90600190615b86565b8154811061146e5761146e615b5a565b90600052602060002090600b020190506000600682600001548154811061149757611497615b5a565b600091825260209091200154604051631c3db16d60e01b8152600481018990526001600160a01b0390911691508190631c3db16d90602401606060405180830381865afa1580156114ec573d6000803e3d6000fd5b505050506040513d601f19601f820116820180604052508101906115109190615cfb565b9199909850909650945050505050565b6000546001600160a01b0316331461154b5760405163c383977560e01b815260040160405180910390fd5b6001600160a01b03919091166000908152600a60205260409020805460ff1916911515919091179055565b6005818154811061158657600080fd5b60009182526020909120600c9091020180546002820154600383015460048401546005850154600b909501546001600160601b038516965060ff600160601b9095048516959394929391921687565b60095460ff16156115f957604051636f1dac1d60e01b815260040160405180910390fd5b6000806007858154811061160f5761160f615b5a565b600091825260209091206004918202019150600182015460ff16600481111561163a5761163a6154df565b1461165857604051638794ce4b60e01b815260040160405180910390fd5b80600301848154811061166d5761166d615b5a565b6000918252602082206004600b909202019081015490935091506116918483615d34565b60058401546006850154600286015492935090916000906116b3908390615ce7565b905060008660010154905060008060068960000154815481106116d8576116d8615b5a565b60009182526020909120015460405163368efae360e21b8152600481018e9052602481018d90526001600160a01b039091169150819063da3beb8c90604401602060405180830381865afa158015611734573d6000803e3d6000fd5b505050506040513d601f19601f820116820180604052508101906117589190615d47565b91505080600003611774578386111561176f578395505b611794565b61177f846002615cba565b86111561179457611791846002615cba565b95505b60048801869055865b8681101561184057848110156117f6576117ef6040518061010001604052808e81526020018d815260200184815260200187815260200186815260200185815260200188815260200183815250613bb1565b9550611838565b6118386040518061010001604052808e81526020018d81526020018481526020018781526020018681526020018581526020018881526020018381525061405f565b60010161179d565b508488600501541461185457600588018590555b5050505050505050505050565b6000546001600160a01b0316331461188c5760405163c383977560e01b815260040160405180910390fd5b600180546001600160a01b0319166001600160a01b0392909216919091179055565b6118b6615032565b6005826001600160601b0316815481106118d2576118d2615b5a565b6000918252602090912060408051608081019182905292600c029091016006019060049082845b8154815260200190600101908083116118f95750505050509050919050565b6000546001600160a01b031633146119435760405163c383977560e01b815260040160405180910390fd5b60095460ff166119665760405163b4143dc760e01b815260040160405180910390fd5b6009805460ff191690556040517fa45f47fdea8a1efdd9029a5691c7f759c32b7c698632b563573e155625d1693390600090a1565b6004546001600160a01b031633146119c657604051639d6cab9960e01b815260040160405180910390fd5b6002546119dd906001600160a01b0316838361445c565b505050565b6119eb8261451f565b306001600160a01b037f0000000000000000000000000000000000000000000000000000000000000000161480611a6957507f00000000000000000000000000000000000000000000000000000000000000006001600160a01b0316611a5d600080516020615f8f8339815191525490565b6001600160a01b031614155b15611a875760405163703e46dd60e11b815260040160405180910390fd5b816001600160a01b03166352d1902d6040518163ffffffff1660e01b8152600401602060405180830381865afa925050508015611ae1575060408051601f3d908101601f19168201909252611ade91810190615d47565b60015b611b095781604051630c76093760e01b8152600401611b0091906152b4565b60405180910390fd5b600080516020615f8f8339815191528114611b3a57604051632a87526960e21b815260048101829052602401611b00565b600080516020615f8f8339815191528390556040516001600160a01b038416907fbc7cd75a20ee27fd9adebab32041f755214dbc6bffa90cc0225b39da2e5c2d3b90600090a28151156119dd576000836001600160a01b031683604051611ba19190615d60565b600060405180830381855af49150503d8060008114611bdc576040519150601f19603f3d011682016040523d82523d6000602084013e611be1565b606091505b5050905080610bc8576040516339b21b5d60e11b815260040160405180910390fd5b5050565b6000306001600160a01b037f00000000000000000000000000000000000000000000000000000000000000001614611c525760405163703e46dd60e11b815260040160405180910390fd5b50600080516020615f8f83398151915290565b60078181548110611c7557600080fd5b60009182526020909120600490910201805460018201546002909201546001600160601b0382169350600160601b9091046001600160a01b03169160ff80821692610100909204169085565b60008060078381548110611cd757611cd7615b5a565b6000918252602082206003600490920201908101805491935090611cfd90600190615b86565b81548110611d0d57611d0d615b5a565b600091825260208220845460058054600b909402909201945090916001600160601b03909116908110611d4257611d42615b5a565b90600052602060002090600c020190508060050154826003015410611de15782546001600160601b031660001901611d83576001600160ff1b039350611e0e565b6003820154611d93906002615cba565b611d9e906001615d34565b81546005805490916001600160601b0316908110611dbe57611dbe615b5a565b90600052602060002090600c020160040154611dda9190615cba565b9350611e0e565b6003820154611df1906002615cba565b611dfc906001615d34565b8160040154611e0b9190615cba565b93505b505050919050565b6000546001600160a01b03163314611e415760405163c383977560e01b815260040160405180910390fd5b6000836001600160a01b03168383604051611e5c9190615d60565b60006040518083038185875af1925050503d8060008114611e99576040519150601f19603f3d011682016040523d82523d6000602084013e611e9e565b606091505b5050905080610bc8576040516322092f2f60e11b815260040160405180910390fd5b60095460ff1615611ee457604051636f1dac1d60e01b815260040160405180910390fd5b600b546040516370a0823160e01b81526001600160a01b03909116906370a0823190611f149033906004016152b4565b602060405180830381865afa158015611f31573d6000803e3d6000fd5b505050506040513d601f19601f82011682018060405250810190611f559190615d47565b600003611f75576040516326b551e560e11b815260040160405180910390fd5b6119dd33838360006138ad565b6000546001600160a01b03163314611fad5760405163c383977560e01b815260040160405180910390fd5b6001600160a01b038216600081815260086020526040808220805460ff191685151590811790915590519092917f541615e167511d757a7067a700eb54431b256bb458dfdce0ac58bf2ed0aefd4491a35050565b6000546001600160a01b0316331461202c5760405163c383977560e01b815260040160405180910390fd5b6001600160a01b038316600081815260086020908152604091829020805469ffffffffffffffffff0019166101006001600160401b03881690810260ff60481b191691909117600160481b60ff8816908102919091179092558351908152918201527fe6996b7f03e9bd02228b99d3d946932e3197f505f60542c4cfbc919441d8a4e6910160405180910390a2505050565b6001546001600160a01b031633148015906120e457506000546001600160a01b03163314155b1561210257604051636b29334f60e01b815260040160405180910390fd5b60095460ff161561212657604051636f1dac1d60e01b815260040160405180910390fd5b6009805460ff191660011790556040517f9e87fac88ff661f02d44f95383c817fece4bce600a3dab7a54406878b965e75290600090a1565b6000546001600160a01b031633146121895760405163c383977560e01b815260040160405180910390fd5b60006005886001600160601b0316815481106121a7576121a7615b5a565b90600052602060002090600c0201905060016001600160601b0316886001600160601b031614158015612209575080546005805488926001600160601b03169081106121f5576121f5615b5a565b90600052602060002090600c020160020154115b1561222757604051639717078960e01b815260040160405180910390fd5b60005b60018201548110156122a25786600583600101838154811061224e5761224e615b5a565b90600052602060002001548154811061226957612269615b5a565b90600052602060002090600c020160020154101561229a57604051639717078960e01b815260040160405180910390fd5b60010161222a565b5060028101869055805460ff60601b1916600160601b88151502178155600381018590556004808201859055600582018490556122e59060068301908490615050565b50876001600160601b03167f709b1f5fda58af9a4f52dacd1ec404840a8148455700cce155a2bd8cf127ef1a88888888888860405161232996959493929190615d7c565b60405180910390a25050505050505050565b60006007838154811061235057612350615b5a565b9060005260206000209060040201600301828154811061237257612372615b5a565b90600052602060002090600b020160010154905092915050565b6123f260405180610160016040528060008152602001600081526020016000815260200160008152602001600081526020016000815260200160608152602001600081526020016000815260200160006001600160a01b03168152602001600081525090565b6007838154811061240557612405615b5a565b9060005260206000209060040201600301828154811061242757612427615b5a565b90600052602060002090600b020160405180610160016040529081600082015481526020016001820154815260200160028201548152602001600382015481526020016004820154815260200160058201548152602001600682018054806020026020016040519081016040528092919081815260200182805480156124d657602002820191906000526020600020905b81546001600160a01b031681526001909101906020018083116124b8575b5050509183525050600782015460208201526008820154604082015260098201546001600160a01b03166060820152600a909101546080909101529392505050565b60006007828154811061252d5761252d615b5a565b600091825260209091206004918202019150600182015460ff166004811115612558576125586154df565b1461257657604051638794ce4b60e01b815260040160405180910390fd5b6001810154610100900460ff16156125a15760405163c977f8d360e01b815260040160405180910390fd5b60006125ac8361141f565b505060018301805461010061ff001990911617905582546040518281529192508491600160601b9091046001600160a01b0316907f394027a5fa6e098a1191094d1719d6929b9abc535fcc0c8f448d6a4e756222769060200160405180910390a3815460405163188d362b60e11b81526004810185905260248101839052600160601b9091046001600160a01b03169063311a6c56906044015b600060405180830381600087803b15801561266057600080fd5b505af1158015612674573d6000803e3d6000fd5b50505050505050565b6000546001600160a01b031633146126a85760405163c383977560e01b815260040160405180910390fd5b8660058a6001600160601b0316815481106126c5576126c5615b5a565b90600052602060002090600c02016002015411156126f657604051639717078960e01b815260040160405180910390fd5b80516000036127185760405163402585f560e01b815260040160405180910390fd5b6001600160601b03891661273f57604051631ef4f64960e01b815260040160405180910390fd5b60058054600181018255600091825290600c82027f036b6384b5eca791c62761152d0c79bb0604c104a5fb6f4eb0703f3154bb3db001905b83518110156128015783818151811061279257612792615b5a565b6020026020010151600014806127c5575060065484518590839081106127ba576127ba615b5a565b602002602001015110155b156127e357604051633d58a98960e11b815260040160405180910390fd5b6127f983858381518110610c8457610c84615b5a565b600101612777565b5060016000908152600a8201602052604090205460ff16612835576040516306351b3d60e31b815260040160405180910390fd5b80546001600160601b0319166001600160601b038c16178155604080516000815260208101918290525161286d91600184019161508e565b50805460ff60601b1916600160601b8b15150217815560028101899055600381018890556004808201889055600582018790556128b09060068301908790615050565b50600480546040516311de995760e21b81526001600160a01b039091169163477a655c916128e2918691899101615daf565b600060405180830381600087803b1580156128fc57600080fd5b505af1158015612910573d6000803e3d6000fd5b5050505060058b6001600160601b03168154811061293057612930615b5a565b600091825260208083206001600c909302018201805492830181558352909120018290556040516001600160601b03808d1691908416907f550ff678017abc294b4786a99a046628d5a1eac07be0f1ea7e89543f13576ee6906129a0908e908e908e908e908e908e908d90615dc8565b60405180910390a35050505050505050505050565b600681815481106129c557600080fd5b6000918252602090912001546001600160a01b0316905081565b6000806000600784815481106129f7576129f7615b5a565b6000918252602090912060049091020190506003600182015460ff166004811115612a2457612a246154df565b03612a7c576002810154815460058054929550916001600160601b03909116908110612a5257612a52615b5a565b600091825260209091206009600c9092020101546002820154612a759190615d34565b9150612a85565b60009250600091505b50915091565b6000546001600160a01b03163314612ab65760405163c383977560e01b815260040160405180910390fd5b600480546001600160a01b0319166001600160a01b0392909216919091179055565b6000612ae3826135d0565b341015612b0357604051630e3360f160e21b815260040160405180910390fd5b61131d838360003461454d565b6000546001600160a01b03163314612b3b5760405163c383977560e01b815260040160405180910390fd5b600380546001600160a01b0319166001600160a01b0392909216919091179055565b612b6683611cc1565b341015612b8657604051633191f8f160e01b815260040160405180910390fd5b600060078481548110612b9b57612b9b615b5a565b6000918252602090912060049091020190506003600182015460ff166004811115612bc857612bc86154df565b14612be6576040516337cdefcb60e21b815260040160405180910390fd5b60038101805460009190612bfc90600190615b86565b81548110612c0c57612c0c615b5a565b90600052602060002090600b020190506006816000015481548110612c3357612c33615b5a565b6000918252602090912001546001600160a01b03163314612c675760405163065f245f60e01b815260040160405180910390fd5b8154815460038401805460018101825560009182526020909120600580546001600160601b0390951694600b9093029091019184908110612caa57612caa615b5a565b90600052602060002090600c020160050154846003015410612db3576005836001600160601b031681548110612ce257612ce2615b5a565b60009182526020909120600c9091020154600580546001600160601b0390921694509084908110612d1557612d15615b5a565b60009182526020808320858452600a600c90930201919091019052604090205460ff16612d4157600191505b84546001600160601b03848116911614612db357845460038601546001600160601b0390911690612d7490600190615b86565b6040516001600160601b03861681528a907f736e3f52761298c8c0823e1ebf482ed3c5ecb304f743d2d91a7c006e8e8d7a1f9060200160405180910390a45b84546001600160601b0319166001600160601b038416908117865560018601805460ff1916905542600287015560058054600092908110612df657612df6615b5a565b90600052602060002090600c02019050806004015434612e169190615ce7565b8260030181905550612e3081600201548260030154614592565b60018084019190915534600284015583835560045460038801546001600160a01b039091169163d09f392d918c91612e6791615b86565b6040516001600160e01b031960e085901b16815260048101929092526024820152604401600060405180830381600087803b158015612ea557600080fd5b505af1158015612eb9573d6000803e3d6000fd5b505086548454149150612f9f90505784546003870154612edb90600190615b86565b83546040519081528b907fcbe7939a71f0b369c7471d760a0a99b60b7bb010ee0406cba8a46679d1ea77569060200160405180910390a46006826000015481548110612f2957612f29615b5a565b60009182526020909120015460038301546040516302dbb79560e61b81526001600160a01b039092169163b6ede54091612f6c918d918d918d9190600401615e45565b600060405180830381600087803b158015612f8657600080fd5b505af1158015612f9a573d6000803e3d6000fd5b505050505b8554604051600160601b9091046001600160a01b0316908a907f9c9b64db9e130f48381bf697abf638e73117dbfbfd7a4484f2da3ba188f4187d90600090a3887f4e6f5cf43b95303e86aee81683df63992061723a829ee012db21dad388756b91600060405161300f9190615bb6565b60405180910390a2505050505050505050565b6000806007838154811061303857613038615b5a565b9060005260206000209060040201905080600301600182600301805490506130609190615b86565b8154811061307057613070615b5a565b90600052602060002090600b020160030154915050919050565b6000546001600160a01b031633146130b55760405163c383977560e01b815260040160405180910390fd5b6006805460018101825560009182527ff652222313e28459528d920b65115c16c04f3efc82aaedc97be59f3f377c0d3f810180546001600160a01b0319166001600160a01b0385169081179091556040519192909183917f44063d258760b98116d53815adbc906a56b3563e540148cc0fc2457f83b5eeb291a35050565b6000806007848154811061314957613149615b5a565b9060005260206000209060040201905060006001826003018054905061316f9190615b86565b9050600082600301828154811061318857613188615b5a565b600091825260208220600b909102019150600184015460ff1660048111156131b2576131b26154df565b146131d057604051638285c4ef60e01b815260040160405180910390fd5b600060068260000154815481106131e9576131e9615b5a565b6000918252602082200154600a8401546001600160a01b039091169250905b878110801561321e575060038401546006850154105b156134265760006001600160a01b03841663d2b8035a8b8461323f81615e75565b955061324b9087615d34565b6040516001600160e01b031960e085901b168152600481019290925260248201526044016020604051808303816000875af115801561328e573d6000803e3d6000fd5b505050506040513d601f19601f820116820180604052508101906132b29190615e8e565b90506001600160a01b0381166132c85750613208565b6004805460018701546040516310f0b12f60e11b81526001600160a01b03909216926321e1625e926132fe928692909101615eab565b600060405180830381600087803b15801561331857600080fd5b505af115801561332c573d6000803e3d6000fd5b50505060068601546040518c92506001600160a01b038416917f6119cf536152c11e0a9a6c22f3953ce4ecc93ee54fa72ffa326ffabded21509b91613379918b8252602082015260400190565b60405180910390a36006850180546001810182556000828152602090200180546001600160a01b0319166001600160a01b03841617905560038601549054036134205760048054604051632e96bc2360e11b81529182018c9052602482018890526001600160a01b031690635d2d784690604401600060405180830381600087803b15801561340757600080fd5b505af115801561341b573d6000803e3d6000fd5b505050505b50613208565b8084600a01600082825461343a9190615d34565b90915550505060069092015494505050505092915050565b60006134978261044786868080601f0160208091040260200160405190810160405280939291908181526020018383808284376000920191909152506135d092505050565b949350505050565b6000546001600160a01b031633146134ca5760405163c383977560e01b815260040160405180910390fd5b600080546001600160a01b0319166001600160a01b0392909216919091179055565b6001600160a01b03821660009081526008602052604081205460ff166135255760405163e51cf7bf60e01b815260040160405180910390fd5b613530858585613452565b82101561355057604051630e3360f160e21b815260040160405180910390fd5b6135656001600160a01b0384163330856145a1565b613582576040516312171d8360e31b815260040160405180910390fd5b6135c68686868080601f01602080910402602001604051908101604052809392919081815260200183838082843760009201919091525088925087915061454d9050565b9695505050505050565b60008060006135de8461467d565b5091509150806005836001600160601b03168154811061360057613600615b5a565b90600052602060002090600c0201600401546134979190615cba565b60066000613628614704565b8054909150600160401b900460ff168061364f575080546001600160401b03808416911610155b1561366c5760405162dc149f60e41b815260040160405180910390fd5b8054600160401b6001600160401b03841668ffffffffffffffffff19909216821717825560098054610100600160a81b0319166101006001600160a01b03871602179055815460ff60401b191682556040519081527fc7f505b2f371ae2175ee4913f4499e1f2633a7b5936321eed1cdaeb6115181d29060200160405180910390a1505050565b60006007828154811061370857613708615b5a565b600091825260209091206003600490920201015492915050565b6002600061372e614704565b8054909150600160401b900460ff1680613755575080546001600160401b03808416911610155b156137725760405162dc149f60e41b815260040160405180910390fd5b805468ffffffffffffffffff19166001600160401b03831617600160401b1781556137a68e8e8e8e8e8e8e8e8e8e8d614728565b600b80546001600160a01b0319166001600160a01b038616179055805460ff60401b191681556040516001600160401b03831681527fc7f505b2f371ae2175ee4913f4499e1f2633a7b5936321eed1cdaeb6115181d29060200160405180910390a15050505050505050505050505050565b6000546001600160a01b031633146138435760405163c383977560e01b815260040160405180910390fd5b600b80546001600160a01b0319166001600160a01b0392909216919091179055565b60006005836001600160601b03168154811061388357613883615b5a565b60009182526020808320948352600c91909102909301600a0190925250604090205460ff16919050565b60006001600160601b03841615806138d057506005546001600160601b03851610155b156138e8576138e0826005614a6b565b506000613497565b821580159061392357506005846001600160601b03168154811061390e5761390e615b5a565b90600052602060002090600c02016002015483105b15613933576138e0826006614a6b565b600480546040516303d9595760e31b81526001600160a01b03888116938201939093526001600160601b03871660248201526044810186905260009283928392911690631ecacab8906064016060604051808303816000875af115801561399e573d6000803e3d6000fd5b505050506040513d601f19601f820116820180604052508101906139c29190615ec4565b9194509250905060008160098111156139dd576139dd6154df565b141580156139fd575060018160098111156139fa576139fa6154df565b14155b15613a1857613a0c8582614a6b565b60009350505050613497565b6001816009811115613a2c57613a2c6154df565b03613a3d5760019350505050613497565b8215613a6a57600254613a5b906001600160a01b03168930866145a1565b613a6a57613a0c856002614a6b565b8115613a9657600254613a87906001600160a01b0316898461445c565b613a9657613a0c856003614a6b565b600480546040516355601d6960e11b81526001600160a01b038b8116938201939093526001600160601b038a16602482015260448101869052606481018590526084810189905291169063aac03ad29060a401600060405180830381600087803b158015613b0357600080fd5b505af1158015613b17573d6000803e3d6000fd5b5060019b9a5050505050505050505050565b806005846001600160601b031681548110613b4657613b46615b5a565b60009182526020808320868452600c92909202909101600a0190526040808220805460ff19169315159390931790925590518215159184916001600160601b038716917fb47629acdf64971062d40984f77d3dee212d735b11e3e8c7a4222d9f0572cc7991a4505050565b6000806007836000015181548110613bcb57613bcb615b5a565b90600052602060002090600402019050600081600301846020015181548110613bf657613bf6615b5a565b90600052602060002090600b0201905060006006826000015481548110613c1f57613c1f615b5a565b60009182526020808320919091015487519188015160e089015160808a015160a08b01516040516333ac937b60e11b8152600481019690965260248601939093526044850191909152606484015260848301526001600160a01b03169250829063675926f69060a401602060405180830381865afa158015613ca5573d6000803e3d6000fd5b505050506040513d601f19601f82011682018060405250810190613cc99190615d47565b9050612710811115613cda57506127105b6000612710613ce98382615b86565b8560010154613cf89190615cba565b613d029190615ce7565b90506000846006018860e0015181548110613d1f57613d1f615b5a565b6000918252602090912001546004805460405163965af6c760e01b81526001600160a01b03938416945092169163965af6c791613d60918591879101615eab565b600060405180830381600087803b158015613d7a57600080fd5b505af1158015613d8e573d6000803e3d6000fd5b505060048054604051633c85b79360e21b8152600094508493506001600160a01b039091169163f216de4c91613dc8918791899101615eab565b60408051808303816000875af1158015613de6573d6000803e3d6000fd5b505050506040513d601f19601f82011682018060405250810190613e0a9190615ef7565b91509150808a60c001818151613e209190615d34565b90525060208a01518a516001600160a01b0385167f8975b837fe0d18616c65abb8b843726a32b552ee4feca009944fa658bbb282e788613e5f86615f1b565b60098d0154604051613e819392916000916001600160a01b0390911690615f37565b60405180910390a4811580613f165750895160208b015160e08c015160405163ba66fde760e01b81526004810193909352602483019190915260448201526001600160a01b0387169063ba66fde790606401602060405180830381865afa158015613ef0573d6000803e3d6000fd5b505050506040513d601f19601f82011682018060405250810190613f149190615b99565b155b15613f7d576004805460405163b5d69e9960e01b81526001600160a01b039091169163b5d69e9991613f4a918791016152b4565b600060405180830381600087803b158015613f6457600080fd5b505af1158015613f78573d6000803e3d6000fd5b505050505b60018a60600151613f8e9190615b86565b8a60e00151148015613fa2575060408a0151155b1561404c5760098701546000546002890154613fcb926001600160a01b03908116921690614ad9565b60005460c08b0151600254613fee926001600160a01b039182169291169061445c565b5060208a01518a5160c08c015160028a015460098b01546040517f6cecfd3ec56289ccb16e30eb194f9a87dfdc12630b9abbc31fc69af5a0b0eaf49361404393909290916001600160a01b0390911690615f5b565b60405180910390a35b50505060c0909601519695505050505050565b6000600782600001518154811061407857614078615b5a565b906000526020600020906004020190506000816003018360200151815481106140a3576140a3615b5a565b90600052602060002090600b02019050600060068260000154815481106140cc576140cc615b5a565b6000918252602080832090910154865191870151606088015160e08901516001600160a01b039093169550859363675926f69390929161410b91615f7a565b60808a015160a08b01516040516001600160e01b031960e088901b1681526004810195909552602485019390935260448401919091526064830152608482015260a401602060405180830381865afa15801561416b573d6000803e3d6000fd5b505050506040513d601f19601f8201168201806040525081019061418f9190615d47565b90506127108111156141a057506127105b60008360060186606001518760e001516141ba9190615f7a565b815481106141ca576141ca615b5a565b600091825260208220015460018601546001600160a01b0390911692506141f19084614592565b6004805460405163965af6c760e01b81529293506001600160a01b03169163965af6c791614223918691869101615eab565b600060405180830381600087803b15801561423d57600080fd5b505af1158015614251573d6000803e3d6000fd5b50505050600061427488604001518960c0015161426e9190615ce7565b85614592565b90508086600801600082825461428a9190615d34565b9250508190555060006142b0896040015188600201546142aa9190615ce7565b86614592565b9050808760070160008282546142c69190615d34565b90915550506002546142e2906001600160a01b0316858461445c565b5060098701546142fc906001600160a01b03168583614ad9565b6020890151895160098901546040516001600160a01b03888116927f8975b837fe0d18616c65abb8b843726a32b552ee4feca009944fa658bbb282e79261434c928c928a928a9290911690615f37565b60405180910390a46001896060015160026143679190615cba565b6143719190615b86565b8960e001510361445157600087600801548a60c001516143919190615b86565b90506000886007015489600201546143a99190615b86565b9050811515806143b857508015155b156118545781156143e2576000546002546143e0916001600160a01b0391821691168461445c565b505b8015614407576009890154600054614407916001600160a01b03908116911683614ad9565b60208b01518b5160098b01546040517f6cecfd3ec56289ccb16e30eb194f9a87dfdc12630b9abbc31fc69af5a0b0eaf4916129a091879187916001600160a01b0390911690615f5b565b505050505050505050565b6000806000856001600160a01b0316858560405160240161447e929190615eab565b60408051601f198184030181529181526020820180516001600160e01b031663a9059cbb60e01b179052516144b39190615d60565b6000604051808303816000865af19150503d80600081146144f0576040519150601f19603f3d011682016040523d82523d6000602084013e6144f5565b606091505b50915091508180156135c65750805115806135c65750808060200190518101906135c69190615b99565b6000546001600160a01b0316331461454a5760405163c383977560e01b815260040160405180910390fd5b50565b336000908152600a602052604081205460ff1661457d57604051630407618360e31b815260040160405180910390fd5b61458985858585614b1c565b95945050505050565b60006127106113138385615cba565b6040516001600160a01b038481166024830152838116604483015260648201839052600091829182919088169060840160408051601f198184030181529181526020820180516001600160e01b03166323b872dd60e01b179052516146069190615d60565b6000604051808303816000865af19150503d8060008114614643576040519150601f19603f3d011682016040523d82523d6000602084013e614648565b606091505b50915091508180156146725750805115806146725750808060200190518101906146729190615b99565b979650505050505050565b600080600060408451106146f2575050506020810151604082015160608301516001600160601b03831615806146be57506005546001600160601b03841610155b156146c857600192505b816000036146d557600391505b8015806146e457506006548110155b156146ed575060015b6146fd565b506001915060039050815b9193909250565b7ff0c57e16840df040f15088dc2f81fe391c3923bec73e23a9662efc9c229c6a0e90565b614730614df7565b600080546001600160a01b03199081166001600160a01b038e81169190911783556001805483168e83161781556002805484168e84161781556003805485168e851617905560048054851688851617905560098054610100600160a81b031916610100888616021790556006805481875291820190557ff652222313e28459528d920b65115c16c04f3efc82aaedc97be59f3f377c0d40018054909316918b1691821790925560405190927f44063d258760b98116d53815adbc906a56b3563e540148cc0fc2457f83b5eeb291a36005805460010181556000908152600480546040516311de995760e21b81526001600160a01b039091169263477a655c9261483b92889101615daf565b600060405180830381600087803b15801561485557600080fd5b505af1158015614869573d6000803e3d6000fd5b5050600580546001810182556000918252600c027f036b6384b5eca791c62761152d0c79bb0604c104a5fb6f4eb0703f3154bb3db00180546001600160601b0319168155604080518381526020810190915290935091505080516148d791600184019160209091019061508e565b50805460ff60601b1916600160601b8815150217815585516002820155602086015160038201556040860151600480830191909155606087015160058301556149269060068301908790615050565b50600480546040516311de995760e21b81526001600160a01b039091169163477a655c9161495991600191899101615daf565b600060405180830381600087803b15801561497357600080fd5b505af1158015614987573d6000803e3d6000fd5b5060009250600191506149979050565b6040519080825280602002602001820160405280156149c0578160200160208202803683370190505b5090506001816000815181106149d8576149d8615b5a565b602090810291909101015281546001600160601b031660017f550ff678017abc294b4786a99a046628d5a1eac07be0f1ea7e89543f13576ee68a8a600060200201518b600160200201518c600260200201518d600360200201518d89604051614a479796959493929190615dc8565b60405180910390a3614a5c6001806001613b29565b50505050505050505050505050565b614a758282614e1e565b6007816009811115614a8957614a896154df565b03614aa757604051636590e91560e01b815260040160405180910390fd5b6008816009811115614abb57614abb6154df565b03611c03576040516358859f1d60e01b815260040160405180910390fd5b6001600160a01b038316614b08576009546119dd906001600160a01b0384811691849161010090910416614f67565b610bc86001600160a01b038416838361445c565b6000806000614b2a8661467d565b92505091506005826001600160601b031681548110614b4b57614b4b615b5a565b60009182526020808320848452600a600c90930201919091019052604090205460ff16614b8b5760405163b34eb75d60e01b815260040160405180910390fd5b600780546001810182556000918252600160601b33026001600160601b03851617600482027fa66cc928b5edb82af9bd49922954155ab7b0942694bea4ce44661d9a8736c6888101918255427fa66cc928b5edb82af9bd49922954155ab7b0942694bea4ce44661d9a8736c68a909101556006805492965090929184908110614c1657614c16615b5a565b6000918252602082200154600580546001600160a01b039092169350906001600160601b038716908110614c4c57614c4c615b5a565b60009182526020808320600387018054600181018255908552918420600c909302019350600b0201906001600160a01b038a1615614c9757614c928a84600401546112cc565b614c9d565b82600401545b9050614ca9818a615ce7565b600380840191909155868355600284015490840154614cc89190614592565b6001830155600282018990556009820180546001600160a01b0319166001600160a01b038c8116919091179091556004805460405163d09f392d60e01b81529182018b9052600060248301529091169063d09f392d90604401600060405180830381600087803b158015614d3b57600080fd5b505af1158015614d4f573d6000803e3d6000fd5b50505050836001600160a01b031663b6ede540898e8e86600301546040518563ffffffff1660e01b8152600401614d899493929190615e45565b600060405180830381600087803b158015614da357600080fd5b505af1158015614db7573d6000803e3d6000fd5b50506040513392508a91507f141dfc18aa6a56fc816f44f0e9e2f1ebc92b15ab167770e17db5b084c10ed99590600090a350505050505050949350505050565b614dff615018565b614e1c57604051631afcd79f60e31b815260040160405180910390fd5b565b6001826001811115614e3257614e326154df565b03614e3b575050565b6002816009811115614e4f57614e4f6154df565b03614e6d57604051630f323ed960e11b815260040160405180910390fd5b6003816009811115614e8157614e816154df565b03614e9f5760405163e45e13a360e01b815260040160405180910390fd5b6004816009811115614eb357614eb36154df565b03614ed157604051631d91d0ed60e31b815260040160405180910390fd5b6005816009811115614ee557614ee56154df565b03614f0357604051637c84af5160e01b815260040160405180910390fd5b6006816009811115614f1757614f176154df565b03614f3557604051630caac6b360e31b815260040160405180910390fd5b6009816009811115614f4957614f496154df565b03611c0357604051633e57962f60e21b815260040160405180910390fd5b6040516001600160a01b0384169083156108fc029084906000818181858888f1935050505015614f9657505050565b806001600160a01b031663d0e30db0836040518263ffffffff1660e01b81526004016000604051808303818588803b158015614fd157600080fd5b505af1158015614fe5573d6000803e3d6000fd5b505060405163a9059cbb60e01b81526001600160a01b038516935063a9059cbb9250612646915086908690600401615eab565b6000615022614704565b54600160401b900460ff16919050565b60405180608001604052806004906020820280368337509192915050565b826004810192821561507e579160200282015b8281111561507e578251825591602001919060010190615063565b5061508a9291506150c8565b5090565b82805482825590600052602060002090810192821561507e579160200282018281111561507e578251825591602001919060010190615063565b5b8082111561508a57600081556001016150c9565b6001600160a01b038116811461454a57600080fd5b80356150fd816150dd565b919050565b60006020828403121561511457600080fd5b813561511f816150dd565b9392505050565b80356001600160601b03811681146150fd57600080fd5b60008060006060848603121561515257600080fd5b833561515d816150dd565b925061516b60208501615126565b929592945050506040919091013590565b634e487b7160e01b600052604160045260246000fd5b604051601f8201601f191681016001600160401b03811182821017156151ba576151ba61517c565b604052919050565b600082601f8301126151d357600080fd5b81356001600160401b038111156151ec576151ec61517c565b8060051b6151fc60208201615192565b9182526020818501810192908101908684111561521857600080fd5b6020860192505b838310156135c657823582526020928301929091019061521f565b801515811461454a57600080fd5b80356150fd8161523a565b60008060006060848603121561526857600080fd5b61527184615126565b925060208401356001600160401b0381111561528c57600080fd5b615298868287016151c2565b92505060408401356152a98161523a565b809150509250925092565b6001600160a01b0391909116815260200190565b6000602082840312156152da57600080fd5b5035919050565b600080604083850312156152f457600080fd5b82356152ff816150dd565b946020939093013593505050565b6000806040838503121561532057600080fd5b823561532b816150dd565b9150602083013561533b8161523a565b809150509250929050565b60008060006060848603121561535b57600080fd5b505081359360208301359350604090920135919050565b60006020828403121561538457600080fd5b61131d82615126565b8060005b6004811015610bc8578151845260209384019390910190600101615391565b60808101611320828461538d565b600082601f8301126153cf57600080fd5b81356001600160401b038111156153e8576153e861517c565b6153fb601f8201601f1916602001615192565b81815284602083860101111561541057600080fd5b816020850160208301376000918101602001919091529392505050565b6000806040838503121561544057600080fd5b823561544b816150dd565b915060208301356001600160401b0381111561546657600080fd5b615472858286016153be565b9150509250929050565b60005b8381101561549757818101518382015260200161547f565b50506000910152565b600081518084526154b881602086016020860161547c565b601f01601f19169290920160200192915050565b60208152600061131d60208301846154a0565b634e487b7160e01b600052602160045260246000fd5b6005811061551357634e487b7160e01b600052602160045260246000fd5b9052565b6001600160601b03861681526001600160a01b038516602082015260a0810161554360408301866154f5565b9215156060820152608001529392505050565b60008060006060848603121561556b57600080fd5b8335615576816150dd565b92506020840135915060408401356001600160401b0381111561559857600080fd5b6155a4868287016153be565b9150509250925092565b600080604083850312156155c157600080fd5b6152ff83615126565b6000806000606084860312156155df57600080fd5b83356155ea816150dd565b925060208401356001600160401b038116811461560657600080fd5b9150604084013560ff811681146152a957600080fd5b600082601f83011261562d57600080fd5b604051608081016001600160401b038111828210171561564f5761564f61517c565b60405280608084018581111561566457600080fd5b845b8181101561567e578035835260209283019201615666565b509195945050505050565b6000806000806000806000610140888a0312156156a557600080fd5b6156ae88615126565b965060208801356156be8161523a565b955060408801359450606088013593506080880135925060a088013591506156e98960c08a0161561c565b905092959891949750929550565b6000806040838503121561570a57600080fd5b50508035926020909101359150565b600081518084526020840193506020830160005b828110156157545781516001600160a01b031686526020958601959091019060010161572d565b5093949350505050565b6020815281516020820152602082015160408201526040820151606082015260608201516080820152608082015160a082015260a082015160c0820152600060c083015161016060e08401526157b8610180840182615719565b905060e08401516101008401526101008401516101208401526101208401516157ed6101408501826001600160a01b03169052565b506101408401516101608401528091505092915050565b60008060008060008060008060006101808a8c03121561582357600080fd5b61582c8a615126565b985060208a013561583c8161523a565b975060408a0135965060608a0135955060808a0135945060a08a013593506158678b60c08c0161561c565b92506101408a01356001600160401b0381111561588357600080fd5b61588f8c828d016153be565b9250506101608a01356001600160401b038111156158ac57600080fd5b6158b88c828d016151c2565b9150509295985092959850929598565b600080604083850312156158db57600080fd5b8235915060208301356001600160401b0381111561546657600080fd5b60008060006060848603121561590d57600080fd5b833592506020840135915060408401356001600160401b0381111561559857600080fd5b60008083601f84011261594357600080fd5b5081356001600160401b0381111561595a57600080fd5b60208301915083602082850101111561597257600080fd5b9250929050565b60008060006040848603121561598e57600080fd5b83356001600160401b038111156159a457600080fd5b6159b086828701615931565b90945092505060208401356152a9816150dd565b6000806000806000608086880312156159dc57600080fd5b8535945060208601356001600160401b038111156159f957600080fd5b615a0588828901615931565b9095509350506040860135615a19816150dd565b949793965091946060013592915050565b600060208284031215615a3c57600080fd5b81356001600160401b03811115615a5257600080fd5b613497848285016153be565b6000806000806000806000806000806000806102408d8f031215615a8157600080fd5b615a8a8d6150f2565b9b50615a9860208e016150f2565b9a50615aa660408e016150f2565b9950615ab460608e016150f2565b9850615ac260808e016150f2565b9750615ad060a08e01615248565b9650615adf8e60c08f0161561c565b9550615aef8e6101408f0161561c565b94506001600160401b036101c08e01351115615b0a57600080fd5b615b1b8e6101c08f01358f016153be565b9350615b2a6101e08e016150f2565b9250615b396102008e016150f2565b9150615b486102208e016150f2565b90509295989b509295989b509295989b565b634e487b7160e01b600052603260045260246000fd5b634e487b7160e01b600052601160045260246000fd5b8181038181111561132057611320615b70565b600060208284031215615bab57600080fd5b815161511f8161523a565b6020810161132082846154f5565b6001815b6001841115615bff57808504811115615be357615be3615b70565b6001841615615bf157908102905b60019390931c928002615bc8565b935093915050565b600082615c1657506001611320565b81615c2357506000611320565b8160018114615c395760028114615c4357615c5f565b6001915050611320565b60ff841115615c5457615c54615b70565b50506001821b611320565b5060208310610133831016604e8410600b8410161715615c82575081810a611320565b615c8f6000198484615bc4565b8060001904821115615ca357615ca3615b70565b029392505050565b600061131d60ff841683615c07565b808202811582820484141761132057611320615b70565b634e487b7160e01b600052601260045260246000fd5b600082615cf657615cf6615cd1565b500490565b600080600060608486031215615d1057600080fd5b83516020850151909350615d238161523a565b60408501519092506152a98161523a565b8082018082111561132057611320615b70565b600060208284031215615d5957600080fd5b5051919050565b60008251615d7281846020870161547c565b9190910192915050565b600061012082019050871515825286602083015285604083015284606083015283608083015261467260a083018461538d565b82815260406020820152600061349760408301846154a0565b600061014082018915158352886020840152876040840152866060840152856080840152615df960a084018661538d565b610140610120840152835190819052602084019061016084019060005b81811015615e34578351835260209384019390920191600101615e16565b50909b9a5050505050505050505050565b848152836020820152608060408201526000615e6460808301856154a0565b905082606083015295945050505050565b600060018201615e8757615e87615b70565b5060010190565b600060208284031215615ea057600080fd5b815161511f816150dd565b6001600160a01b03929092168252602082015260400190565b600080600060608486031215615ed957600080fd5b8351602085015160408601519194509250600a81106152a957600080fd5b60008060408385031215615f0a57600080fd5b505080516020909101519092909150565b6000600160ff1b8201615f3057615f30615b70565b5060000390565b938452602084019290925260408301526001600160a01b0316606082015260800190565b92835260208301919091526001600160a01b0316604082015260600190565b600082615f8957615f89615cd1565b50069056fe360894a13ba1a3210667c828492db98dca3e2076cc3735a920a3ca505d382bbca264697066735822122004d0e8698d556c8622b85aecf09450b7bc71e8101fe95c2464a140be1c6fb1b364736f6c634300081c0033",
  "devdoc": {
    "errors": {
      "AlreadyInitialized()": [
        {
          "details": "The contract is already initialized."
        }
      ],
      "InvalidImplementation(address)": [
        {
          "details": "The `implementation` is not UUPS-compliant"
        }
      ],
      "NotInitializing()": [
        {
          "details": "The contract is not initializing."
        }
      ],
      "UUPSUnauthorizedCallContext()": [
        {
          "details": "The call is from an unauthorized context."
        }
      ],
      "UUPSUnsupportedProxiableUUID(bytes32)": [
        {
          "details": "The storage `slot` is unsupported as a UUID."
        }
      ]
    },
    "events": {
      "AcceptedFeeToken(address,bool)": {
        "details": "To be emitted when an ERC20 token is added or removed as a method to pay fees.",
        "params": {
          "_accepted": "Whether the token is accepted or not.",
          "_token": "The ERC20 token."
        }
      },
      "DisputeCreation(uint256,address)": {
        "details": "To be emitted when a dispute is created.",
        "params": {
          "_arbitrable": "The contract which created the dispute.",
          "_disputeID": "The identifier of the dispute in the Arbitrator contract."
        }
      },
      "Initialized(uint64)": {
        "details": "Triggered when the contract has been initialized or reinitialized."
      },
      "NewCurrencyRate(address,uint64,uint8)": {
        "details": "To be emitted when the fee for a particular ERC20 token is updated.",
        "params": {
          "_feeToken": "The ERC20 token.",
          "_rateDecimals": "The new decimals of the fee token rate.",
          "_rateInEth": "The new rate of the fee token in ETH."
        }
      },
      "Ruling(address,uint256,uint256)": {
        "details": "To be raised when a ruling is given.",
        "params": {
          "_arbitrable": "The arbitrable receiving the ruling.",
          "_disputeID": "The identifier of the dispute in the Arbitrator contract.",
          "_ruling": "The ruling which was given."
        }
      },
      "Upgraded(address)": {
        "details": "Emitted when the `implementation` has been successfully upgraded.",
        "params": {
          "newImplementation": "Address of the new implementation the proxy is now forwarding calls to."
        }
      }
    },
    "kind": "dev",
    "methods": {
      "addNewDisputeKit(address)": {
        "details": "Add a new supported dispute kit module to the court.",
        "params": {
          "_disputeKitAddress": "The address of the dispute kit contract."
        }
      },
      "appeal(uint256,uint256,bytes)": {
        "details": "Appeals the ruling of a specified dispute. Note: Access restricted to the Dispute Kit for this `disputeID`.",
        "params": {
          "_disputeID": "The ID of the dispute.",
          "_extraData": "Extradata for the dispute. Can be required during court jump.",
          "_numberOfChoices": "Number of choices for the dispute. Can be required during court jump."
        }
      },
      "appealCost(uint256)": {
        "details": "Gets the cost of appealing a specified dispute.",
        "params": {
          "_disputeID": "The ID of the dispute."
        },
        "returns": {
          "cost": "The appeal cost."
        }
      },
      "appealPeriod(uint256)": {
        "details": "Gets the start and the end of a specified dispute's current appeal period.",
        "params": {
          "_disputeID": "The ID of the dispute."
        },
        "returns": {
          "end": "The end of the appeal period.",
          "start": "The start of the appeal period."
        }
      },
      "arbitrationCost(bytes)": {
        "details": "Compute the cost of arbitration denominated in ETH.      It is recommended not to increase it often, as it can be highly time and gas consuming for the arbitrated contracts to cope with fee augmentation.",
        "params": {
          "_extraData": "Additional info about the dispute. We use it to pass the ID of the dispute's court (first 32 bytes), the minimum number of jurors required (next 32 bytes) and the ID of the specific dispute kit (last 32 bytes)."
        },
        "returns": {
          "cost": "The arbitration cost in ETH."
        }
      },
      "arbitrationCost(bytes,address)": {
        "details": "Compute the cost of arbitration denominated in `_feeToken`.      It is recommended not to increase it often, as it can be highly time and gas consuming for the arbitrated contracts to cope with fee augmentation.",
        "params": {
          "_extraData": "Additional info about the dispute. We use it to pass the ID of the dispute's court (first 32 bytes), the minimum number of jurors required (next 32 bytes) and the ID of the specific dispute kit (last 32 bytes).",
          "_feeToken": "The ERC20 token used to pay fees."
        },
        "returns": {
          "cost": "The arbitration cost in `_feeToken`."
        }
      },
      "changeAcceptedFeeTokens(address,bool)": {
        "details": "Changes the supported fee tokens.",
        "params": {
          "_accepted": "Whether the token is supported or not as a method of fee payment.",
          "_feeToken": "The fee token."
        }
      },
      "changeArbitrableWhitelist(address,bool)": {
        "details": "Adds or removes an arbitrable from whitelist.",
        "params": {
          "_allowed": "Whether add or remove permission.",
          "_arbitrable": "Arbitrable address."
        }
      },
      "changeCurrencyRates(address,uint64,uint8)": {
        "details": "Changes the currency rate of a fee token.",
        "params": {
          "_feeToken": "The fee token.",
          "_rateDecimals": "The new decimals of the fee token rate.",
          "_rateInEth": "The new rate of the fee token in ETH."
        }
      },
      "changeGovernor(address)": {
        "details": "Changes the `governor` storage variable.",
        "params": {
          "_governor": "The new value for the `governor` storage variable."
        }
      },
      "changeGuardian(address)": {
        "details": "Changes the `guardian` storage variable.",
        "params": {
          "_guardian": "The new value for the `guardian` storage variable."
        }
      },
      "changeJurorNft(address)": {
        "details": "Changes the `jurorNft` storage variable.",
        "params": {
          "_jurorNft": "The new value for the `jurorNft` storage variable."
        }
      },
      "changeJurorProsecutionModule(address)": {
        "details": "Changes the `jurorProsecutionModule` storage variable.",
        "params": {
          "_jurorProsecutionModule": "The new value for the `jurorProsecutionModule` storage variable."
        }
      },
      "changePinakion(address)": {
        "details": "Changes the `pinakion` storage variable.",
        "params": {
          "_pinakion": "The new value for the `pinakion` storage variable."
        }
      },
      "changeSortitionModule(address)": {
        "details": "Changes the `_sortitionModule` storage variable. Note that the new module should be initialized for all courts.",
        "params": {
          "_sortitionModule": "The new value for the `sortitionModule` storage variable."
        }
      },
      "constructor": {
        "custom:oz-upgrades-unsafe-allow": "constructor"
      },
      "createCourt(uint96,bool,uint256,uint256,uint256,uint256,uint256[4],bytes,uint256[])": {
        "details": "Creates a court under a specified parent court.",
        "params": {
          "_alpha": "The `alpha` property value of the court.",
          "_feeForJuror": "The `feeForJuror` property value of the court.",
          "_hiddenVotes": "The `hiddenVotes` property value of the court.",
          "_jurorsForCourtJump": "The `jurorsForCourtJump` property value of the court.",
          "_minStake": "The `minStake` property value of the court.",
          "_parent": "The `parent` property value of the court.",
          "_sortitionExtraData": "Extra data for sortition module.",
          "_supportedDisputeKits": "Indexes of dispute kits that this court will support.",
          "_timesPerPeriod": "The `timesPerPeriod` property value of the court."
        }
      },
      "createDispute(uint256,bytes)": {
        "details": "Create a dispute and pay for the fees in the native currency, typically ETH.      Must be called by the arbitrable contract.      Must pay at least arbitrationCost(_extraData).",
        "params": {
          "_extraData": "Additional info about the dispute. We use it to pass the ID of the dispute's court (first 32 bytes), the minimum number of jurors required (next 32 bytes) and the ID of the specific dispute kit (last 32 bytes).",
          "_numberOfChoices": "The number of choices the arbitrator can choose from in this dispute."
        },
        "returns": {
          "disputeID": "The identifier of the dispute created."
        }
      },
      "createDispute(uint256,bytes,address,uint256)": {
        "details": "Create a dispute and pay for the fees in a supported ERC20 token.      Must be called by the arbitrable contract.      Must pay at least arbitrationCost(_extraData).",
        "params": {
          "_extraData": "Additional info about the dispute. We use it to pass the ID of the dispute's court (first 32 bytes), the minimum number of jurors required (next 32 bytes) and the ID of the specific dispute kit (last 32 bytes).",
          "_feeAmount": "Amount of the ERC20 token used to pay fees.",
          "_feeToken": "The ERC20 token used to pay fees.",
          "_numberOfChoices": "The number of choices the arbitrator can choose from in this dispute."
        },
        "returns": {
          "disputeID": "The identifier of the dispute created."
        }
      },
      "currentRuling(uint256)": {
        "details": "Gets the current ruling of a specified dispute.",
        "params": {
          "_disputeID": "The ID of the dispute."
        },
        "returns": {
          "overridden": "Whether the ruling was overridden by appeal funding or not.",
          "ruling": "The current ruling.",
          "tied": "Whether it's a tie or not."
        }
      },
      "draw(uint256,uint256)": {
        "details": "Draws jurors for the dispute. Can be called in parts.",
        "params": {
          "_disputeID": "The ID of the dispute.",
          "_iterations": "The number of iterations to run."
        },
        "returns": {
          "nbDrawnJurors": "The total number of jurors drawn in the round."
        }
      },
      "enableDisputeKits(uint96,uint256[],bool)": {
        "details": "Adds/removes court's support for specified dispute kits.",
        "params": {
          "_courtID": "The ID of the court.",
          "_disputeKitIDs": "The IDs of dispute kits which support should be added/removed.",
          "_enable": "Whether add or remove the dispute kits from the court."
        }
      },
      "execute(uint256,uint256,uint256)": {
        "details": "Distribute the PNKs at stake and the dispute fees for the specific round of the dispute. Can be called in parts. Note: Reward distributions are forbidden during pause.",
        "params": {
          "_disputeID": "The ID of the dispute.",
          "_iterations": "The number of iterations to run.",
          "_round": "The appeal round."
        }
      },
      "executeGovernorProposal(address,uint256,bytes)": {
        "details": "Allows the governor to call anything on behalf of the contract.",
        "params": {
          "_amount": "The value sent with the call.",
          "_data": "The data sent with the call.",
          "_destination": "The destination of the call."
        }
      },
      "executeRuling(uint256)": {
        "details": "Executes a specified dispute's ruling.",
        "params": {
          "_disputeID": "The ID of the dispute."
        }
      },
      "getNumberOfRounds(uint256)": {
        "details": "Gets the number of rounds for a specified dispute.",
        "params": {
          "_disputeID": "The ID of the dispute."
        },
        "returns": {
          "_0": "The number of rounds."
        }
      },
      "getNumberOfVotes(uint256)": {
        "details": "Gets the number of votes permitted for the specified dispute in the latest round.",
        "params": {
          "_disputeID": "The ID of the dispute."
        }
      },
      "getPnkAtStakePerJuror(uint256,uint256)": {
        "details": "Gets the PNK at stake per juror for a specified dispute and round.",
        "params": {
          "_disputeID": "The ID of the dispute.",
          "_round": "The round to get the info for."
        },
        "returns": {
          "_0": "pnkAtStakePerJuror The PNK at stake per juror."
        }
      },
      "getRoundInfo(uint256,uint256)": {
        "details": "Gets the round info for a specified dispute and round.This function must not be called from a non-view function because it returns a dynamic array which might be very large, theoretically exceeding the block gas limit.",
        "params": {
          "_disputeID": "The ID of the dispute.",
          "_round": "The round to get the info for."
        },
        "returns": {
          "_0": "round The round info."
        }
      },
      "getTimesPerPeriod(uint96)": {
        "details": "Gets the timesPerPeriod array for a given court.",
        "params": {
          "_courtID": "The ID of the court to get the times from."
        },
        "returns": {
          "timesPerPeriod": "The timesPerPeriod array for the given court."
        }
      },
      "initialize(address,address,address,address,address,bool,uint256[4],uint256[4],bytes,address,address,address)": {
        "details": "Initializer (constructor equivalent for upgradable contracts).",
        "params": {
          "_courtParameters": "Numeric parameters of General court (minStake, alpha, feeForJuror and jurorsForCourtJump respectively).",
          "_disputeKit": "The address of the default dispute kit.",
          "_governor": "The governor's address.",
          "_guardian": "The guardian's address.",
          "_hiddenVotes": "The `hiddenVotes` property value of the general court.",
          "_jurorNft": "NFT contract to vet the jurors.",
          "_jurorProsecutionModule": "The address of the juror prosecution module.",
          "_pinakion": "The address of the token contract.",
          "_sortitionExtraData": "The extra data for sortition module.",
          "_sortitionModuleAddress": "The sortition module responsible for sortition of the jurors.",
          "_timesPerPeriod": "The `timesPerPeriod` property value of the general court.",
          "_wNative": "The wrapped native token address, typically wETH."
        }
      },
      "isDisputeKitJumping(uint256)": {
        "details": "Returns true if the dispute kit will be switched to a parent DK.",
        "params": {
          "_disputeID": "The ID of the dispute."
        },
        "returns": {
          "_0": "Whether DK will be switched or not."
        }
      },
      "isSupported(uint96,uint256)": {
        "details": "Checks if a given dispute kit is supported by a given court.",
        "params": {
          "_courtID": "The ID of the court to check the support for.",
          "_disputeKitID": "The ID of the dispute kit to check the support for."
        },
        "returns": {
          "_0": "Whether the dispute kit is supported or not."
        }
      },
      "passPeriod(uint256)": {
        "details": "Passes the period of a specified dispute.",
        "params": {
          "_disputeID": "The ID of the dispute."
        }
      },
      "pause()": {
        "details": "Pause staking and reward execution. Can only be done by guardian or governor."
      },
      "proxiableUUID()": {
        "details": "Implementation of the ERC1822 `proxiableUUID` function. This returns the storage slot used by the implementation. It is used to validate the implementation's compatibility when performing an upgrade. IMPORTANT: A proxy pointing at a proxiable contract should not be considered proxiable itself, because this risks bricking a proxy that upgrades to it, by delegating to itself until out of gas. Thus it is critical that this function revert if invoked through a proxy. This is guaranteed by the if statement."
      },
      "setStake(uint96,uint256)": {
        "details": "Sets the caller's stake in a court. Note: Staking and unstaking is forbidden during pause.",
        "params": {
          "_courtID": "The ID of the court.",
          "_newStake": "The new stake. Note that the existing delayed stake will be nullified as non-relevant."
        }
      },
      "setStakeBySortitionModule(address,uint96,uint256)": {
        "details": "Sets the stake of a specified account in a court, typically to apply a delayed stake or unstake inactive jurors.",
        "params": {
          "_account": "The account whose stake is being set.",
          "_courtID": "The ID of the court.",
          "_newStake": "The new stake."
        }
      },
      "transferBySortitionModule(address,uint256)": {
        "details": "Transfers PNK to the juror by SortitionModule.",
        "params": {
          "_account": "The account of the juror whose PNK to transfer.",
          "_amount": "The amount to transfer."
        }
      },
      "unpause()": {
        "details": "Unpause staking and reward execution. Can only be done by governor."
      },
      "upgradeToAndCall(address,bytes)": {
        "details": "Upgrade mechanism including access control and UUPS-compliance.Reverts if the execution is not performed via delegatecall or the execution context is not of a proxy with an ERC1967-compliant implementation pointing to self.",
        "params": {
          "data": "Data used in a delegate call to `newImplementation` if non-empty. This will typically be an encoded function call, and allows initializing the storage of the proxy like a Solidity constructor.",
          "newImplementation": "Address of the new implementation contract."
        }
      }
    },
    "stateVariables": {
      "version": {
        "details": "Returns the version of the implementation.",
        "return": "Version string.",
        "returns": {
          "_0": "Version string."
        }
      }
    },
    "title": "KlerosCoreNeo Core arbitrator contract for Kleros v2. Note that this contract trusts the PNK token, the dispute kit and the sortition module contracts.",
    "version": 1
  },
  "userdoc": {
    "errors": {
      "FailedDelegateCall()": [
        {
          "notice": "Failed Delegated call"
        }
      ]
    },
    "kind": "user",
    "methods": {},
    "version": 1
  },
  "storageLayout": {
    "storage": [
      {
        "astId": 11279,
        "contract": "src/arbitration/KlerosCoreNeo.sol:KlerosCoreNeo",
        "label": "governor",
        "offset": 0,
        "slot": "0",
        "type": "t_address"
      },
      {
        "astId": 11281,
        "contract": "src/arbitration/KlerosCoreNeo.sol:KlerosCoreNeo",
        "label": "guardian",
        "offset": 0,
        "slot": "1",
        "type": "t_address"
      },
      {
        "astId": 11284,
        "contract": "src/arbitration/KlerosCoreNeo.sol:KlerosCoreNeo",
        "label": "pinakion",
        "offset": 0,
        "slot": "2",
        "type": "t_contract(IERC20)2923"
      },
      {
        "astId": 11286,
        "contract": "src/arbitration/KlerosCoreNeo.sol:KlerosCoreNeo",
        "label": "jurorProsecutionModule",
        "offset": 0,
        "slot": "3",
        "type": "t_address"
      },
      {
        "astId": 11289,
        "contract": "src/arbitration/KlerosCoreNeo.sol:KlerosCoreNeo",
        "label": "sortitionModule",
        "offset": 0,
        "slot": "4",
        "type": "t_contract(ISortitionModule)26449"
      },
      {
        "astId": 11293,
        "contract": "src/arbitration/KlerosCoreNeo.sol:KlerosCoreNeo",
        "label": "courts",
        "offset": 0,
        "slot": "5",
        "type": "t_array(t_struct(Court)11198_storage)dyn_storage"
      },
      {
        "astId": 11297,
        "contract": "src/arbitration/KlerosCoreNeo.sol:KlerosCoreNeo",
        "label": "disputeKits",
        "offset": 0,
        "slot": "6",
        "type": "t_array(t_contract(IDisputeKit)26259)dyn_storage"
      },
      {
        "astId": 11301,
        "contract": "src/arbitration/KlerosCoreNeo.sol:KlerosCoreNeo",
        "label": "disputes",
        "offset": 0,
        "slot": "7",
        "type": "t_array(t_struct(Dispute)11215_storage)dyn_storage"
      },
      {
        "astId": 11307,
        "contract": "src/arbitration/KlerosCoreNeo.sol:KlerosCoreNeo",
        "label": "currencyRates",
        "offset": 0,
        "slot": "8",
        "type": "t_mapping(t_contract(IERC20)2923,t_struct(CurrencyRate)11264_storage)"
      },
      {
        "astId": 11309,
        "contract": "src/arbitration/KlerosCoreNeo.sol:KlerosCoreNeo",
        "label": "paused",
        "offset": 0,
        "slot": "9",
        "type": "t_bool"
      },
      {
        "astId": 11311,
        "contract": "src/arbitration/KlerosCoreNeo.sol:KlerosCoreNeo",
        "label": "wNative",
        "offset": 1,
        "slot": "9",
        "type": "t_address"
      },
      {
        "astId": 14870,
        "contract": "src/arbitration/KlerosCoreNeo.sol:KlerosCoreNeo",
        "label": "arbitrableWhitelist",
        "offset": 0,
        "slot": "10",
        "type": "t_mapping(t_address,t_bool)"
      },
      {
        "astId": 14873,
        "contract": "src/arbitration/KlerosCoreNeo.sol:KlerosCoreNeo",
        "label": "jurorNft",
        "offset": 0,
        "slot": "11",
        "type": "t_contract(IERC721)4069"
      }
    ],
    "types": {
      "t_address": {
        "encoding": "inplace",
        "label": "address",
        "numberOfBytes": "20"
      },
      "t_array(t_address)dyn_storage": {
        "base": "t_address",
        "encoding": "dynamic_array",
        "label": "address[]",
        "numberOfBytes": "32"
      },
      "t_array(t_contract(IDisputeKit)26259)dyn_storage": {
        "base": "t_contract(IDisputeKit)26259",
        "encoding": "dynamic_array",
        "label": "contract IDisputeKit[]",
        "numberOfBytes": "32"
      },
      "t_array(t_struct(Court)11198_storage)dyn_storage": {
        "base": "t_struct(Court)11198_storage",
        "encoding": "dynamic_array",
        "label": "struct KlerosCoreBase.Court[]",
        "numberOfBytes": "32"
      },
      "t_array(t_struct(Dispute)11215_storage)dyn_storage": {
        "base": "t_struct(Dispute)11215_storage",
        "encoding": "dynamic_array",
        "label": "struct KlerosCoreBase.Dispute[]",
        "numberOfBytes": "32"
      },
      "t_array(t_struct(Round)11240_storage)dyn_storage": {
        "base": "t_struct(Round)11240_storage",
        "encoding": "dynamic_array",
        "label": "struct KlerosCoreBase.Round[]",
        "numberOfBytes": "32"
      },
      "t_array(t_uint256)4_storage": {
        "base": "t_uint256",
        "encoding": "inplace",
        "label": "uint256[4]",
        "numberOfBytes": "128"
      },
      "t_array(t_uint256)dyn_storage": {
        "base": "t_uint256",
        "encoding": "dynamic_array",
        "label": "uint256[]",
        "numberOfBytes": "32"
      },
      "t_bool": {
        "encoding": "inplace",
        "label": "bool",
        "numberOfBytes": "1"
      },
      "t_contract(IArbitrableV2)26008": {
        "encoding": "inplace",
        "label": "contract IArbitrableV2",
        "numberOfBytes": "20"
      },
      "t_contract(IDisputeKit)26259": {
        "encoding": "inplace",
        "label": "contract IDisputeKit",
        "numberOfBytes": "20"
      },
      "t_contract(IERC20)2923": {
        "encoding": "inplace",
        "label": "contract IERC20",
        "numberOfBytes": "20"
      },
      "t_contract(IERC721)4069": {
        "encoding": "inplace",
        "label": "contract IERC721",
        "numberOfBytes": "20"
      },
      "t_contract(ISortitionModule)26449": {
        "encoding": "inplace",
        "label": "contract ISortitionModule",
        "numberOfBytes": "20"
      },
      "t_enum(Period)11172": {
        "encoding": "inplace",
        "label": "enum KlerosCoreBase.Period",
        "numberOfBytes": "1"
      },
      "t_mapping(t_address,t_bool)": {
        "encoding": "mapping",
        "key": "t_address",
        "label": "mapping(address => bool)",
        "numberOfBytes": "32",
        "value": "t_bool"
      },
      "t_mapping(t_contract(IERC20)2923,t_struct(CurrencyRate)11264_storage)": {
        "encoding": "mapping",
        "key": "t_contract(IERC20)2923",
        "label": "mapping(contract IERC20 => struct KlerosCoreBase.CurrencyRate)",
        "numberOfBytes": "32",
        "value": "t_struct(CurrencyRate)11264_storage"
      },
      "t_mapping(t_uint256,t_bool)": {
        "encoding": "mapping",
        "key": "t_uint256",
        "label": "mapping(uint256 => bool)",
        "numberOfBytes": "32",
        "value": "t_bool"
      },
      "t_struct(Court)11198_storage": {
        "encoding": "inplace",
        "label": "struct KlerosCoreBase.Court",
        "members": [
          {
            "astId": 11174,
            "contract": "src/arbitration/KlerosCoreNeo.sol:KlerosCoreNeo",
            "label": "parent",
            "offset": 0,
            "slot": "0",
            "type": "t_uint96"
          },
          {
            "astId": 11176,
            "contract": "src/arbitration/KlerosCoreNeo.sol:KlerosCoreNeo",
            "label": "hiddenVotes",
            "offset": 12,
            "slot": "0",
            "type": "t_bool"
          },
          {
            "astId": 11179,
            "contract": "src/arbitration/KlerosCoreNeo.sol:KlerosCoreNeo",
            "label": "children",
            "offset": 0,
            "slot": "1",
            "type": "t_array(t_uint256)dyn_storage"
          },
          {
            "astId": 11181,
            "contract": "src/arbitration/KlerosCoreNeo.sol:KlerosCoreNeo",
            "label": "minStake",
            "offset": 0,
            "slot": "2",
            "type": "t_uint256"
          },
          {
            "astId": 11183,
            "contract": "src/arbitration/KlerosCoreNeo.sol:KlerosCoreNeo",
            "label": "alpha",
            "offset": 0,
            "slot": "3",
            "type": "t_uint256"
          },
          {
            "astId": 11185,
            "contract": "src/arbitration/KlerosCoreNeo.sol:KlerosCoreNeo",
            "label": "feeForJuror",
            "offset": 0,
            "slot": "4",
            "type": "t_uint256"
          },
          {
            "astId": 11187,
            "contract": "src/arbitration/KlerosCoreNeo.sol:KlerosCoreNeo",
            "label": "jurorsForCourtJump",
            "offset": 0,
            "slot": "5",
            "type": "t_uint256"
          },
          {
            "astId": 11191,
            "contract": "src/arbitration/KlerosCoreNeo.sol:KlerosCoreNeo",
            "label": "timesPerPeriod",
            "offset": 0,
            "slot": "6",
            "type": "t_array(t_uint256)4_storage"
          },
          {
            "astId": 11195,
            "contract": "src/arbitration/KlerosCoreNeo.sol:KlerosCoreNeo",
            "label": "supportedDisputeKits",
            "offset": 0,
            "slot": "10",
            "type": "t_mapping(t_uint256,t_bool)"
          },
          {
            "astId": 11197,
            "contract": "src/arbitration/KlerosCoreNeo.sol:KlerosCoreNeo",
            "label": "disabled",
            "offset": 0,
            "slot": "11",
            "type": "t_bool"
          }
        ],
        "numberOfBytes": "384"
      },
      "t_struct(CurrencyRate)11264_storage": {
        "encoding": "inplace",
        "label": "struct KlerosCoreBase.CurrencyRate",
        "members": [
          {
            "astId": 11259,
            "contract": "src/arbitration/KlerosCoreNeo.sol:KlerosCoreNeo",
            "label": "feePaymentAccepted",
            "offset": 0,
            "slot": "0",
            "type": "t_bool"
          },
          {
            "astId": 11261,
            "contract": "src/arbitration/KlerosCoreNeo.sol:KlerosCoreNeo",
            "label": "rateInEth",
            "offset": 1,
            "slot": "0",
            "type": "t_uint64"
          },
          {
            "astId": 11263,
            "contract": "src/arbitration/KlerosCoreNeo.sol:KlerosCoreNeo",
            "label": "rateDecimals",
            "offset": 9,
            "slot": "0",
            "type": "t_uint8"
          }
        ],
        "numberOfBytes": "32"
      },
      "t_struct(Dispute)11215_storage": {
        "encoding": "inplace",
        "label": "struct KlerosCoreBase.Dispute",
        "members": [
          {
            "astId": 11200,
            "contract": "src/arbitration/KlerosCoreNeo.sol:KlerosCoreNeo",
            "label": "courtID",
            "offset": 0,
            "slot": "0",
            "type": "t_uint96"
          },
          {
            "astId": 11203,
            "contract": "src/arbitration/KlerosCoreNeo.sol:KlerosCoreNeo",
            "label": "arbitrated",
            "offset": 12,
            "slot": "0",
            "type": "t_contract(IArbitrableV2)26008"
          },
          {
            "astId": 11206,
            "contract": "src/arbitration/KlerosCoreNeo.sol:KlerosCoreNeo",
            "label": "period",
            "offset": 0,
            "slot": "1",
            "type": "t_enum(Period)11172"
          },
          {
            "astId": 11208,
            "contract": "src/arbitration/KlerosCoreNeo.sol:KlerosCoreNeo",
            "label": "ruled",
            "offset": 1,
            "slot": "1",
            "type": "t_bool"
          },
          {
            "astId": 11210,
            "contract": "src/arbitration/KlerosCoreNeo.sol:KlerosCoreNeo",
            "label": "lastPeriodChange",
            "offset": 0,
            "slot": "2",
            "type": "t_uint256"
          },
          {
            "astId": 11214,
            "contract": "src/arbitration/KlerosCoreNeo.sol:KlerosCoreNeo",
            "label": "rounds",
            "offset": 0,
            "slot": "3",
            "type": "t_array(t_struct(Round)11240_storage)dyn_storage"
          }
        ],
        "numberOfBytes": "128"
      },
      "t_struct(Round)11240_storage": {
        "encoding": "inplace",
        "label": "struct KlerosCoreBase.Round",
        "members": [
          {
            "astId": 11217,
            "contract": "src/arbitration/KlerosCoreNeo.sol:KlerosCoreNeo",
            "label": "disputeKitID",
            "offset": 0,
            "slot": "0",
            "type": "t_uint256"
          },
          {
            "astId": 11219,
            "contract": "src/arbitration/KlerosCoreNeo.sol:KlerosCoreNeo",
            "label": "pnkAtStakePerJuror",
            "offset": 0,
            "slot": "1",
            "type": "t_uint256"
          },
          {
            "astId": 11221,
            "contract": "src/arbitration/KlerosCoreNeo.sol:KlerosCoreNeo",
            "label": "totalFeesForJurors",
            "offset": 0,
            "slot": "2",
            "type": "t_uint256"
          },
          {
            "astId": 11223,
            "contract": "src/arbitration/KlerosCoreNeo.sol:KlerosCoreNeo",
            "label": "nbVotes",
            "offset": 0,
            "slot": "3",
            "type": "t_uint256"
          },
          {
            "astId": 11225,
            "contract": "src/arbitration/KlerosCoreNeo.sol:KlerosCoreNeo",
            "label": "repartitions",
            "offset": 0,
            "slot": "4",
            "type": "t_uint256"
          },
          {
            "astId": 11227,
            "contract": "src/arbitration/KlerosCoreNeo.sol:KlerosCoreNeo",
            "label": "pnkPenalties",
            "offset": 0,
            "slot": "5",
            "type": "t_uint256"
          },
          {
            "astId": 11230,
            "contract": "src/arbitration/KlerosCoreNeo.sol:KlerosCoreNeo",
            "label": "drawnJurors",
            "offset": 0,
            "slot": "6",
            "type": "t_array(t_address)dyn_storage"
          },
          {
            "astId": 11232,
            "contract": "src/arbitration/KlerosCoreNeo.sol:KlerosCoreNeo",
            "label": "sumFeeRewardPaid",
            "offset": 0,
            "slot": "7",
            "type": "t_uint256"
          },
          {
            "astId": 11234,
            "contract": "src/arbitration/KlerosCoreNeo.sol:KlerosCoreNeo",
            "label": "sumPnkRewardPaid",
            "offset": 0,
            "slot": "8",
            "type": "t_uint256"
          },
          {
            "astId": 11237,
            "contract": "src/arbitration/KlerosCoreNeo.sol:KlerosCoreNeo",
            "label": "feeToken",
            "offset": 0,
            "slot": "9",
            "type": "t_contract(IERC20)2923"
          },
          {
            "astId": 11239,
            "contract": "src/arbitration/KlerosCoreNeo.sol:KlerosCoreNeo",
            "label": "drawIterations",
            "offset": 0,
            "slot": "10",
            "type": "t_uint256"
          }
        ],
        "numberOfBytes": "352"
      },
      "t_uint256": {
        "encoding": "inplace",
        "label": "uint256",
        "numberOfBytes": "32"
      },
      "t_uint64": {
        "encoding": "inplace",
        "label": "uint64",
        "numberOfBytes": "8"
      },
      "t_uint8": {
        "encoding": "inplace",
        "label": "uint8",
        "numberOfBytes": "1"
      },
      "t_uint96": {
        "encoding": "inplace",
        "label": "uint96",
        "numberOfBytes": "12"
      }
    }
  }
}