{
  "address": "0xEF719a5B3352F607e6C4E17b7e0cDAd8322fEC95",
  "abi": [
    {
      "inputs": [
        {
          "internalType": "address",
          "name": "_governor",
          "type": "address"
        },
        {
          "internalType": "contract IKlerosCore",
          "name": "_core",
          "type": "address"
        }
      ],
      "stateMutability": "nonpayable",
      "type": "constructor"
    },
    {
      "inputs": [
        {
          "internalType": "address",
          "name": "_account",
          "type": "address"
        }
      ],
      "name": "balanceOf",
      "outputs": [
        {
          "internalType": "uint256",
          "name": "totalStaked",
          "type": "uint256"
        }
      ],
      "stateMutability": "view",
      "type": "function"
    },
    {
      "inputs": [
        {
          "internalType": "contract IKlerosCore",
          "name": "_core",
          "type": "address"
        }
      ],
      "name": "changeCore",
      "outputs": [],
      "stateMutability": "nonpayable",
      "type": "function"
    },
    {
      "inputs": [
        {
          "internalType": "address",
          "name": "_governor",
          "type": "address"
        }
      ],
      "name": "changeGovernor",
      "outputs": [],
      "stateMutability": "nonpayable",
      "type": "function"
    },
    {
      "inputs": [],
      "name": "core",
      "outputs": [
        {
          "internalType": "contract IKlerosCore",
          "name": "",
          "type": "address"
        }
      ],
      "stateMutability": "view",
      "type": "function"
    },
    {
      "inputs": [],
      "name": "decimals",
      "outputs": [
        {
          "internalType": "uint8",
          "name": "",
          "type": "uint8"
        }
      ],
      "stateMutability": "view",
      "type": "function"
    },
    {
      "inputs": [],
      "name": "governor",
      "outputs": [
        {
          "internalType": "address",
          "name": "",
          "type": "address"
        }
      ],
      "stateMutability": "view",
      "type": "function"
    },
    {
      "inputs": [],
      "name": "name",
      "outputs": [
        {
          "internalType": "string",
          "name": "",
          "type": "string"
        }
      ],
      "stateMutability": "view",
      "type": "function"
    },
    {
      "inputs": [],
      "name": "symbol",
      "outputs": [
        {
          "internalType": "string",
          "name": "",
          "type": "string"
        }
      ],
      "stateMutability": "view",
      "type": "function"
    }
  ],
  "transactionHash": "0x9519002826064774768f0756c58d55c3f908265e0437de0cb6794f193df7bab4",
  "args": [
    "0xf1C7c037891525E360C59f708739Ac09A7670c59",
    "0x991d2df165670b9cac3B022f4B68D65b664222ea"
  ],
  "numDeployments": 1,
  "solcInputHash": "ede3f7f4426109631936df3b8acee8f2",
  "bytecode": "0x608060405234801561001057600080fd5b5060405161053338038061053383398101604081905261002f91610078565b600180546001600160a01b039384166001600160a01b031991821617909155600080549290931691161790556100b2565b6001600160a01b038116811461007557600080fd5b50565b6000806040838503121561008b57600080fd5b825161009681610060565b60208401519092506100a781610060565b809150509250929050565b610472806100c16000396000f3fe608060405234801561001057600080fd5b50600436106100785760003560e01c806306fdde031461007d5780630c340a24146100c1578063313ce567146100ec57806370a08231146101065780638e4264601461012757806395d89b411461013c578063e4c0aaf414610160578063f2f4eb2614610173575b600080fd5b6100ab6040518060400160405280600f81526020016e29ba30b5b2b2102834b730b5b4b7b760891b81525081565b6040516100b8919061031c565b60405180910390f35b6001546100d4906001600160a01b031681565b6040516001600160a01b0390911681526020016100b8565b6100f4601281565b60405160ff90911681526020016100b8565b610119610114366004610383565b610186565b6040519081526020016100b8565b61013a610135366004610383565b61027b565b005b6100ab604051806040016040528060058152602001647374504e4b60d81b81525081565b61013a61016e366004610383565b6102d0565b6000546100d4906001600160a01b031681565b60008060009054906101000a90046001600160a01b03166001600160a01b0316632e1daf2f6040518163ffffffff1660e01b8152600401602060405180830381865afa1580156101da573d6000803e3d6000fd5b505050506040513d601f19601f820116820180604052508101906101fe91906103a7565b604051631a383be960e31b81526001600160a01b03848116600483015260006024830152919091169063d1c1df4890604401608060405180830381865afa15801561024d573d6000803e3d6000fd5b505050506040513d601f19601f8201168201806040525081019061027191906103c4565b5091949350505050565b6001546001600160a01b031633146102ae5760405162461bcd60e51b81526004016102a5906103fa565b60405180910390fd5b600080546001600160a01b0319166001600160a01b0392909216919091179055565b6001546001600160a01b031633146102fa5760405162461bcd60e51b81526004016102a5906103fa565b600180546001600160a01b0319166001600160a01b0392909216919091179055565b60006020808352835180602085015260005b8181101561034a5785810183015185820160400152820161032e565b506000604082860101526040601f19601f8301168501019250505092915050565b6001600160a01b038116811461038057600080fd5b50565b60006020828403121561039557600080fd5b81356103a08161036b565b9392505050565b6000602082840312156103b957600080fd5b81516103a08161036b565b600080600080608085870312156103da57600080fd5b505082516020840151604085015160609095015191969095509092509050565b60208082526022908201527f416363657373206e6f7420616c6c6f7765643a20476f7665726e6f72206f6e6c6040820152613c9760f11b60608201526080019056fea2646970667358221220ae7b8da51562210a09a90e77fc37c7a9669fa0ff5f919ec51b43ac365aace78464736f6c63430008180033",
  "devdoc": {
    "kind": "dev",
    "methods": {
      "balanceOf(address)": {
        "details": "Returns the amount of PNK staked in KlerosV2 for a particular address. Note: Proxy doesn't need to differentiate between courts so we pass 0 as courtID.",
        "params": {
          "_account": "The address to query."
        },
        "returns": {
          "totalStaked": "Total amount staked in V2 by the address."
        }
      },
      "changeCore(address)": {
        "details": "Changes the `core` storage variable.",
        "params": {
          "_core": "The new value for the `core` storage variable."
        }
      },
      "changeGovernor(address)": {
        "details": "Changes the `governor` storage variable.",
        "params": {
          "_governor": "The new value for the `governor` storage variable."
        }
      },
      "constructor": {
        "details": "Constructor",
        "params": {
          "_core": "KlerosCore to read the balance from.",
          "_governor": "The governor of the contract."
        }
      }
    },
    "title": "KlerosCoreSnapshotProxy Proxy contract for V2 that exposes staked PNK with balanceOf() function for Snapshot voting.",
    "version": 1
  },
  "userdoc": {
    "kind": "user",
    "methods": {},
    "version": 1
  },
  "storageLayout": {
    "storage": [
      {
        "astId": 216,
        "contract": "src/arbitration/view/KlerosCoreSnapshotProxy.sol:KlerosCoreSnapshotProxy",
        "label": "core",
        "offset": 0,
        "slot": "0",
        "type": "t_contract(IKlerosCore)212"
      },
      {
        "astId": 218,
        "contract": "src/arbitration/view/KlerosCoreSnapshotProxy.sol:KlerosCoreSnapshotProxy",
        "label": "governor",
        "offset": 0,
        "slot": "1",
        "type": "t_address"
      }
    ],
    "types": {
      "t_address": {
        "encoding": "inplace",
        "label": "address",
        "numberOfBytes": "20"
      },
      "t_contract(IKlerosCore)212": {
        "encoding": "inplace",
        "label": "contract IKlerosCore",
        "numberOfBytes": "20"
      }
    }
  }
}