{
  "address": "0xEb6D9E61921506f876dc662B2398E34C92330faB",
  "abi": [
    {
      "inputs": [],
      "stateMutability": "nonpayable",
      "type": "constructor"
    },
    {
      "inputs": [],
      "name": "AlreadyInitialized",
      "type": "error"
    },
    {
      "inputs": [],
      "name": "AppealFeesNotEnough",
      "type": "error"
    },
    {
      "inputs": [],
      "name": "AppealPeriodNotPassed",
      "type": "error"
    },
    {
      "inputs": [],
      "name": "ArbitrableNotWhitelisted",
      "type": "error"
    },
    {
      "inputs": [],
      "name": "ArbitrationFeesNotEnough",
      "type": "error"
    },
    {
      "inputs": [],
      "name": "CannotDisableClassicDK",
      "type": "error"
    },
    {
      "inputs": [],
      "name": "CommitPeriodNotPassed",
      "type": "error"
    },
    {
      "inputs": [],
      "name": "DisputeKitNotSupportedByCourt",
      "type": "error"
    },
    {
      "inputs": [],
      "name": "DisputeKitOnly",
      "type": "error"
    },
    {
      "inputs": [],
      "name": "DisputeNotAppealable",
      "type": "error"
    },
    {
      "inputs": [],
      "name": "DisputePeriodIsFinal",
      "type": "error"
    },
    {
      "inputs": [],
      "name": "DisputeStillDrawing",
      "type": "error"
    },
    {
      "inputs": [],
      "name": "EvidenceNotPassedAndNotAppeal",
      "type": "error"
    },
    {
      "inputs": [],
      "name": "FailedDelegateCall",
      "type": "error"
    },
    {
      "inputs": [],
      "name": "GovernorOnly",
      "type": "error"
    },
    {
      "inputs": [],
      "name": "GuardianOrGovernorOnly",
      "type": "error"
    },
    {
      "inputs": [],
      "name": "InvalidDisputKitParent",
      "type": "error"
    },
    {
      "inputs": [],
      "name": "InvalidForkingCourtAsParent",
      "type": "error"
    },
    {
      "inputs": [
        {
          "internalType": "address",
          "name": "implementation",
          "type": "address"
        }
      ],
      "name": "InvalidImplementation",
      "type": "error"
    },
    {
      "inputs": [],
      "name": "MinStakeLowerThanParentCourt",
      "type": "error"
    },
    {
      "inputs": [],
      "name": "MustSupportDisputeKitClassic",
      "type": "error"
    },
    {
      "inputs": [],
      "name": "NotEligibleForStaking",
      "type": "error"
    },
    {
      "inputs": [],
      "name": "NotEvidencePeriod",
      "type": "error"
    },
    {
      "inputs": [],
      "name": "NotExecutionPeriod",
      "type": "error"
    },
    {
      "inputs": [],
      "name": "NotInitializing",
      "type": "error"
    },
    {
      "inputs": [],
      "name": "RulingAlreadyExecuted",
      "type": "error"
    },
    {
      "inputs": [],
      "name": "SortitionModuleOnly",
      "type": "error"
    },
    {
      "inputs": [],
      "name": "StakingInTooManyCourts",
      "type": "error"
    },
    {
      "inputs": [],
      "name": "StakingLessThanCourtMinStake",
      "type": "error"
    },
    {
      "inputs": [],
      "name": "StakingMoreThanMaxStakePerJuror",
      "type": "error"
    },
    {
      "inputs": [],
      "name": "StakingMoreThanMaxTotalStaked",
      "type": "error"
    },
    {
      "inputs": [],
      "name": "StakingNotPossibleInThisCourt",
      "type": "error"
    },
    {
      "inputs": [],
      "name": "StakingTransferFailed",
      "type": "error"
    },
    {
      "inputs": [],
      "name": "StakingZeroWhenNoStake",
      "type": "error"
    },
    {
      "inputs": [],
      "name": "TokenNotAccepted",
      "type": "error"
    },
    {
      "inputs": [],
      "name": "TransferFailed",
      "type": "error"
    },
    {
      "inputs": [],
      "name": "UUPSUnauthorizedCallContext",
      "type": "error"
    },
    {
      "inputs": [
        {
          "internalType": "bytes32",
          "name": "slot",
          "type": "bytes32"
        }
      ],
      "name": "UUPSUnsupportedProxiableUUID",
      "type": "error"
    },
    {
      "inputs": [],
      "name": "UnstakingTransferFailed",
      "type": "error"
    },
    {
      "inputs": [],
      "name": "UnsuccessfulCall",
      "type": "error"
    },
    {
      "inputs": [],
      "name": "UnsupportedDisputeKit",
      "type": "error"
    },
    {
      "inputs": [],
      "name": "VotePeriodNotPassed",
      "type": "error"
    },
    {
      "inputs": [],
      "name": "WhenNotPausedOnly",
      "type": "error"
    },
    {
      "inputs": [],
      "name": "WhenPausedOnly",
      "type": "error"
    },
    {
      "inputs": [],
      "name": "WrongDisputeKitIndex",
      "type": "error"
    },
    {
      "anonymous": false,
      "inputs": [
        {
          "indexed": true,
          "internalType": "contract IERC20",
          "name": "_token",
          "type": "address"
        },
        {
          "indexed": true,
          "internalType": "bool",
          "name": "_accepted",
          "type": "bool"
        }
      ],
      "name": "AcceptedFeeToken",
      "type": "event"
    },
    {
      "anonymous": false,
      "inputs": [
        {
          "indexed": true,
          "internalType": "uint256",
          "name": "_disputeID",
          "type": "uint256"
        },
        {
          "indexed": true,
          "internalType": "contract IArbitrableV2",
          "name": "_arbitrable",
          "type": "address"
        }
      ],
      "name": "AppealDecision",
      "type": "event"
    },
    {
      "anonymous": false,
      "inputs": [
        {
          "indexed": true,
          "internalType": "uint256",
          "name": "_disputeID",
          "type": "uint256"
        },
        {
          "indexed": true,
          "internalType": "contract IArbitrableV2",
          "name": "_arbitrable",
          "type": "address"
        }
      ],
      "name": "AppealPossible",
      "type": "event"
    },
    {
      "anonymous": false,
      "inputs": [
        {
          "indexed": true,
          "internalType": "uint96",
          "name": "_courtID",
          "type": "uint96"
        },
        {
          "indexed": true,
          "internalType": "uint96",
          "name": "_parent",
          "type": "uint96"
        },
        {
          "indexed": false,
          "internalType": "bool",
          "name": "_hiddenVotes",
          "type": "bool"
        },
        {
          "indexed": false,
          "internalType": "uint256",
          "name": "_minStake",
          "type": "uint256"
        },
        {
          "indexed": false,
          "internalType": "uint256",
          "name": "_alpha",
          "type": "uint256"
        },
        {
          "indexed": false,
          "internalType": "uint256",
          "name": "_feeForJuror",
          "type": "uint256"
        },
        {
          "indexed": false,
          "internalType": "uint256",
          "name": "_jurorsForCourtJump",
          "type": "uint256"
        },
        {
          "indexed": false,
          "internalType": "uint256[4]",
          "name": "_timesPerPeriod",
          "type": "uint256[4]"
        },
        {
          "indexed": false,
          "internalType": "uint256[]",
          "name": "_supportedDisputeKits",
          "type": "uint256[]"
        }
      ],
      "name": "CourtCreated",
      "type": "event"
    },
    {
      "anonymous": false,
      "inputs": [
        {
          "indexed": true,
          "internalType": "uint256",
          "name": "_disputeID",
          "type": "uint256"
        },
        {
          "indexed": true,
          "internalType": "uint256",
          "name": "_roundID",
          "type": "uint256"
        },
        {
          "indexed": true,
          "internalType": "uint96",
          "name": "_fromCourtID",
          "type": "uint96"
        },
        {
          "indexed": false,
          "internalType": "uint96",
          "name": "_toCourtID",
          "type": "uint96"
        }
      ],
      "name": "CourtJump",
      "type": "event"
    },
    {
      "anonymous": false,
      "inputs": [
        {
          "indexed": true,
          "internalType": "uint96",
          "name": "_courtID",
          "type": "uint96"
        },
        {
          "indexed": false,
          "internalType": "bool",
          "name": "_hiddenVotes",
          "type": "bool"
        },
        {
          "indexed": false,
          "internalType": "uint256",
          "name": "_minStake",
          "type": "uint256"
        },
        {
          "indexed": false,
          "internalType": "uint256",
          "name": "_alpha",
          "type": "uint256"
        },
        {
          "indexed": false,
          "internalType": "uint256",
          "name": "_feeForJuror",
          "type": "uint256"
        },
        {
          "indexed": false,
          "internalType": "uint256",
          "name": "_jurorsForCourtJump",
          "type": "uint256"
        },
        {
          "indexed": false,
          "internalType": "uint256[4]",
          "name": "_timesPerPeriod",
          "type": "uint256[4]"
        }
      ],
      "name": "CourtModified",
      "type": "event"
    },
    {
      "anonymous": false,
      "inputs": [
        {
          "indexed": true,
          "internalType": "uint256",
          "name": "_disputeID",
          "type": "uint256"
        },
        {
          "indexed": true,
          "internalType": "contract IArbitrableV2",
          "name": "_arbitrable",
          "type": "address"
        }
      ],
      "name": "DisputeCreation",
      "type": "event"
    },
    {
      "anonymous": false,
      "inputs": [
        {
          "indexed": true,
          "internalType": "uint256",
          "name": "_disputeKitID",
          "type": "uint256"
        },
        {
          "indexed": true,
          "internalType": "contract IDisputeKit",
          "name": "_disputeKitAddress",
          "type": "address"
        }
      ],
      "name": "DisputeKitCreated",
      "type": "event"
    },
    {
      "anonymous": false,
      "inputs": [
        {
          "indexed": true,
          "internalType": "uint96",
          "name": "_courtID",
          "type": "uint96"
        },
        {
          "indexed": true,
          "internalType": "uint256",
          "name": "_disputeKitID",
          "type": "uint256"
        },
        {
          "indexed": true,
          "internalType": "bool",
          "name": "_enable",
          "type": "bool"
        }
      ],
      "name": "DisputeKitEnabled",
      "type": "event"
    },
    {
      "anonymous": false,
      "inputs": [
        {
          "indexed": true,
          "internalType": "uint256",
          "name": "_disputeID",
          "type": "uint256"
        },
        {
          "indexed": true,
          "internalType": "uint256",
          "name": "_roundID",
          "type": "uint256"
        },
        {
          "indexed": true,
          "internalType": "uint256",
          "name": "_fromDisputeKitID",
          "type": "uint256"
        },
        {
          "indexed": false,
          "internalType": "uint256",
          "name": "_toDisputeKitID",
          "type": "uint256"
        }
      ],
      "name": "DisputeKitJump",
      "type": "event"
    },
    {
      "anonymous": false,
      "inputs": [
        {
          "indexed": true,
          "internalType": "address",
          "name": "_address",
          "type": "address"
        },
        {
          "indexed": true,
          "internalType": "uint256",
          "name": "_disputeID",
          "type": "uint256"
        },
        {
          "indexed": false,
          "internalType": "uint256",
          "name": "_roundID",
          "type": "uint256"
        },
        {
          "indexed": false,
          "internalType": "uint256",
          "name": "_voteID",
          "type": "uint256"
        }
      ],
      "name": "Draw",
      "type": "event"
    },
    {
      "anonymous": false,
      "inputs": [
        {
          "indexed": false,
          "internalType": "uint64",
          "name": "version",
          "type": "uint64"
        }
      ],
      "name": "Initialized",
      "type": "event"
    },
    {
      "anonymous": false,
      "inputs": [
        {
          "indexed": true,
          "internalType": "uint256",
          "name": "_disputeID",
          "type": "uint256"
        },
        {
          "indexed": true,
          "internalType": "uint256",
          "name": "_roundID",
          "type": "uint256"
        },
        {
          "indexed": false,
          "internalType": "uint256",
          "name": "_pnkAmount",
          "type": "uint256"
        },
        {
          "indexed": false,
          "internalType": "uint256",
          "name": "_feeAmount",
          "type": "uint256"
        },
        {
          "indexed": false,
          "internalType": "contract IERC20",
          "name": "_feeToken",
          "type": "address"
        }
      ],
      "name": "LeftoverRewardSent",
      "type": "event"
    },
    {
      "anonymous": false,
      "inputs": [
        {
          "indexed": true,
          "internalType": "contract IERC20",
          "name": "_feeToken",
          "type": "address"
        },
        {
          "indexed": false,
          "internalType": "uint64",
          "name": "_rateInEth",
          "type": "uint64"
        },
        {
          "indexed": false,
          "internalType": "uint8",
          "name": "_rateDecimals",
          "type": "uint8"
        }
      ],
      "name": "NewCurrencyRate",
      "type": "event"
    },
    {
      "anonymous": false,
      "inputs": [
        {
          "indexed": true,
          "internalType": "uint256",
          "name": "_disputeID",
          "type": "uint256"
        },
        {
          "indexed": false,
          "internalType": "enum KlerosCoreBase.Period",
          "name": "_period",
          "type": "uint8"
        }
      ],
      "name": "NewPeriod",
      "type": "event"
    },
    {
      "anonymous": false,
      "inputs": [],
      "name": "Paused",
      "type": "event"
    },
    {
      "anonymous": false,
      "inputs": [
        {
          "indexed": true,
          "internalType": "contract IArbitrableV2",
          "name": "_arbitrable",
          "type": "address"
        },
        {
          "indexed": true,
          "internalType": "uint256",
          "name": "_disputeID",
          "type": "uint256"
        },
        {
          "indexed": false,
          "internalType": "uint256",
          "name": "_ruling",
          "type": "uint256"
        }
      ],
      "name": "Ruling",
      "type": "event"
    },
    {
      "anonymous": false,
      "inputs": [
        {
          "indexed": true,
          "internalType": "address",
          "name": "_account",
          "type": "address"
        },
        {
          "indexed": true,
          "internalType": "uint256",
          "name": "_disputeID",
          "type": "uint256"
        },
        {
          "indexed": true,
          "internalType": "uint256",
          "name": "_roundID",
          "type": "uint256"
        },
        {
          "indexed": false,
          "internalType": "uint256",
          "name": "_degreeOfCoherency",
          "type": "uint256"
        },
        {
          "indexed": false,
          "internalType": "int256",
          "name": "_pnkAmount",
          "type": "int256"
        },
        {
          "indexed": false,
          "internalType": "int256",
          "name": "_feeAmount",
          "type": "int256"
        },
        {
          "indexed": false,
          "internalType": "contract IERC20",
          "name": "_feeToken",
          "type": "address"
        }
      ],
      "name": "TokenAndETHShift",
      "type": "event"
    },
    {
      "anonymous": false,
      "inputs": [],
      "name": "Unpaused",
      "type": "event"
    },
    {
      "anonymous": false,
      "inputs": [
        {
          "indexed": true,
          "internalType": "address",
          "name": "newImplementation",
          "type": "address"
        }
      ],
      "name": "Upgraded",
      "type": "event"
    },
    {
      "inputs": [
        {
          "internalType": "contract IDisputeKit",
          "name": "_disputeKitAddress",
          "type": "address"
        }
      ],
      "name": "addNewDisputeKit",
      "outputs": [],
      "stateMutability": "nonpayable",
      "type": "function"
    },
    {
      "inputs": [
        {
          "internalType": "uint256",
          "name": "_disputeID",
          "type": "uint256"
        },
        {
          "internalType": "uint256",
          "name": "_numberOfChoices",
          "type": "uint256"
        },
        {
          "internalType": "bytes",
          "name": "_extraData",
          "type": "bytes"
        }
      ],
      "name": "appeal",
      "outputs": [],
      "stateMutability": "payable",
      "type": "function"
    },
    {
      "inputs": [
        {
          "internalType": "uint256",
          "name": "_disputeID",
          "type": "uint256"
        }
      ],
      "name": "appealCost",
      "outputs": [
        {
          "internalType": "uint256",
          "name": "cost",
          "type": "uint256"
        }
      ],
      "stateMutability": "view",
      "type": "function"
    },
    {
      "inputs": [
        {
          "internalType": "uint256",
          "name": "_disputeID",
          "type": "uint256"
        }
      ],
      "name": "appealPeriod",
      "outputs": [
        {
          "internalType": "uint256",
          "name": "start",
          "type": "uint256"
        },
        {
          "internalType": "uint256",
          "name": "end",
          "type": "uint256"
        }
      ],
      "stateMutability": "view",
      "type": "function"
    },
    {
      "inputs": [
        {
          "internalType": "address",
          "name": "",
          "type": "address"
        }
      ],
      "name": "arbitrableWhitelist",
      "outputs": [
        {
          "internalType": "bool",
          "name": "",
          "type": "bool"
        }
      ],
      "stateMutability": "view",
      "type": "function"
    },
    {
      "inputs": [
        {
          "internalType": "bytes",
          "name": "_extraData",
          "type": "bytes"
        },
        {
          "internalType": "contract IERC20",
          "name": "_feeToken",
          "type": "address"
        }
      ],
      "name": "arbitrationCost",
      "outputs": [
        {
          "internalType": "uint256",
          "name": "cost",
          "type": "uint256"
        }
      ],
      "stateMutability": "view",
      "type": "function"
    },
    {
      "inputs": [
        {
          "internalType": "bytes",
          "name": "_extraData",
          "type": "bytes"
        }
      ],
      "name": "arbitrationCost",
      "outputs": [
        {
          "internalType": "uint256",
          "name": "cost",
          "type": "uint256"
        }
      ],
      "stateMutability": "view",
      "type": "function"
    },
    {
      "inputs": [
        {
          "internalType": "contract IERC20",
          "name": "_feeToken",
          "type": "address"
        },
        {
          "internalType": "bool",
          "name": "_accepted",
          "type": "bool"
        }
      ],
      "name": "changeAcceptedFeeTokens",
      "outputs": [],
      "stateMutability": "nonpayable",
      "type": "function"
    },
    {
      "inputs": [
        {
          "internalType": "address",
          "name": "_arbitrable",
          "type": "address"
        },
        {
          "internalType": "bool",
          "name": "_allowed",
          "type": "bool"
        }
      ],
      "name": "changeArbitrableWhitelist",
      "outputs": [],
      "stateMutability": "nonpayable",
      "type": "function"
    },
    {
      "inputs": [
        {
          "internalType": "uint96",
          "name": "_courtID",
          "type": "uint96"
        },
        {
          "internalType": "bool",
          "name": "_hiddenVotes",
          "type": "bool"
        },
        {
          "internalType": "uint256",
          "name": "_minStake",
          "type": "uint256"
        },
        {
          "internalType": "uint256",
          "name": "_alpha",
          "type": "uint256"
        },
        {
          "internalType": "uint256",
          "name": "_feeForJuror",
          "type": "uint256"
        },
        {
          "internalType": "uint256",
          "name": "_jurorsForCourtJump",
          "type": "uint256"
        },
        {
          "internalType": "uint256[4]",
          "name": "_timesPerPeriod",
          "type": "uint256[4]"
        }
      ],
      "name": "changeCourtParameters",
      "outputs": [],
      "stateMutability": "nonpayable",
      "type": "function"
    },
    {
      "inputs": [
        {
          "internalType": "contract IERC20",
          "name": "_feeToken",
          "type": "address"
        },
        {
          "internalType": "uint64",
          "name": "_rateInEth",
          "type": "uint64"
        },
        {
          "internalType": "uint8",
          "name": "_rateDecimals",
          "type": "uint8"
        }
      ],
      "name": "changeCurrencyRates",
      "outputs": [],
      "stateMutability": "nonpayable",
      "type": "function"
    },
    {
      "inputs": [
        {
          "internalType": "address payable",
          "name": "_governor",
          "type": "address"
        }
      ],
      "name": "changeGovernor",
      "outputs": [],
      "stateMutability": "nonpayable",
      "type": "function"
    },
    {
      "inputs": [
        {
          "internalType": "address",
          "name": "_guardian",
          "type": "address"
        }
      ],
      "name": "changeGuardian",
      "outputs": [],
      "stateMutability": "nonpayable",
      "type": "function"
    },
    {
      "inputs": [
        {
          "internalType": "contract IERC721",
          "name": "_jurorNft",
          "type": "address"
        }
      ],
      "name": "changeJurorNft",
      "outputs": [],
      "stateMutability": "nonpayable",
      "type": "function"
    },
    {
      "inputs": [
        {
          "internalType": "address",
          "name": "_jurorProsecutionModule",
          "type": "address"
        }
      ],
      "name": "changeJurorProsecutionModule",
      "outputs": [],
      "stateMutability": "nonpayable",
      "type": "function"
    },
    {
      "inputs": [
        {
          "internalType": "contract IERC20",
          "name": "_pinakion",
          "type": "address"
        }
      ],
      "name": "changePinakion",
      "outputs": [],
      "stateMutability": "nonpayable",
      "type": "function"
    },
    {
      "inputs": [
        {
          "internalType": "contract ISortitionModule",
          "name": "_sortitionModule",
          "type": "address"
        }
      ],
      "name": "changeSortitionModule",
      "outputs": [],
      "stateMutability": "nonpayable",
      "type": "function"
    },
    {
      "inputs": [
        {
          "internalType": "contract IERC20",
          "name": "_toToken",
          "type": "address"
        },
        {
          "internalType": "uint256",
          "name": "_amountInEth",
          "type": "uint256"
        }
      ],
      "name": "convertEthToTokenAmount",
      "outputs": [
        {
          "internalType": "uint256",
          "name": "",
          "type": "uint256"
        }
      ],
      "stateMutability": "view",
      "type": "function"
    },
    {
      "inputs": [
        {
          "internalType": "uint256",
          "name": "",
          "type": "uint256"
        }
      ],
      "name": "courts",
      "outputs": [
        {
          "internalType": "uint96",
          "name": "parent",
          "type": "uint96"
        },
        {
          "internalType": "bool",
          "name": "hiddenVotes",
          "type": "bool"
        },
        {
          "internalType": "uint256",
          "name": "minStake",
          "type": "uint256"
        },
        {
          "internalType": "uint256",
          "name": "alpha",
          "type": "uint256"
        },
        {
          "internalType": "uint256",
          "name": "feeForJuror",
          "type": "uint256"
        },
        {
          "internalType": "uint256",
          "name": "jurorsForCourtJump",
          "type": "uint256"
        },
        {
          "internalType": "bool",
          "name": "disabled",
          "type": "bool"
        }
      ],
      "stateMutability": "view",
      "type": "function"
    },
    {
      "inputs": [
        {
          "internalType": "uint96",
          "name": "_parent",
          "type": "uint96"
        },
        {
          "internalType": "bool",
          "name": "_hiddenVotes",
          "type": "bool"
        },
        {
          "internalType": "uint256",
          "name": "_minStake",
          "type": "uint256"
        },
        {
          "internalType": "uint256",
          "name": "_alpha",
          "type": "uint256"
        },
        {
          "internalType": "uint256",
          "name": "_feeForJuror",
          "type": "uint256"
        },
        {
          "internalType": "uint256",
          "name": "_jurorsForCourtJump",
          "type": "uint256"
        },
        {
          "internalType": "uint256[4]",
          "name": "_timesPerPeriod",
          "type": "uint256[4]"
        },
        {
          "internalType": "bytes",
          "name": "_sortitionExtraData",
          "type": "bytes"
        },
        {
          "internalType": "uint256[]",
          "name": "_supportedDisputeKits",
          "type": "uint256[]"
        }
      ],
      "name": "createCourt",
      "outputs": [],
      "stateMutability": "nonpayable",
      "type": "function"
    },
    {
      "inputs": [
        {
          "internalType": "uint256",
          "name": "_numberOfChoices",
          "type": "uint256"
        },
        {
          "internalType": "bytes",
          "name": "_extraData",
          "type": "bytes"
        }
      ],
      "name": "createDispute",
      "outputs": [
        {
          "internalType": "uint256",
          "name": "disputeID",
          "type": "uint256"
        }
      ],
      "stateMutability": "payable",
      "type": "function"
    },
    {
      "inputs": [
        {
          "internalType": "uint256",
          "name": "_numberOfChoices",
          "type": "uint256"
        },
        {
          "internalType": "bytes",
          "name": "_extraData",
          "type": "bytes"
        },
        {
          "internalType": "contract IERC20",
          "name": "_feeToken",
          "type": "address"
        },
        {
          "internalType": "uint256",
          "name": "_feeAmount",
          "type": "uint256"
        }
      ],
      "name": "createDispute",
      "outputs": [
        {
          "internalType": "uint256",
          "name": "disputeID",
          "type": "uint256"
        }
      ],
      "stateMutability": "nonpayable",
      "type": "function"
    },
    {
      "inputs": [
        {
          "internalType": "contract IERC20",
          "name": "",
          "type": "address"
        }
      ],
      "name": "currencyRates",
      "outputs": [
        {
          "internalType": "bool",
          "name": "feePaymentAccepted",
          "type": "bool"
        },
        {
          "internalType": "uint64",
          "name": "rateInEth",
          "type": "uint64"
        },
        {
          "internalType": "uint8",
          "name": "rateDecimals",
          "type": "uint8"
        }
      ],
      "stateMutability": "view",
      "type": "function"
    },
    {
      "inputs": [
        {
          "internalType": "uint256",
          "name": "_disputeID",
          "type": "uint256"
        }
      ],
      "name": "currentRuling",
      "outputs": [
        {
          "internalType": "uint256",
          "name": "ruling",
          "type": "uint256"
        },
        {
          "internalType": "bool",
          "name": "tied",
          "type": "bool"
        },
        {
          "internalType": "bool",
          "name": "overridden",
          "type": "bool"
        }
      ],
      "stateMutability": "view",
      "type": "function"
    },
    {
      "inputs": [
        {
          "internalType": "uint256",
          "name": "",
          "type": "uint256"
        }
      ],
      "name": "disputeKits",
      "outputs": [
        {
          "internalType": "contract IDisputeKit",
          "name": "",
          "type": "address"
        }
      ],
      "stateMutability": "view",
      "type": "function"
    },
    {
      "inputs": [
        {
          "internalType": "uint256",
          "name": "",
          "type": "uint256"
        }
      ],
      "name": "disputes",
      "outputs": [
        {
          "internalType": "uint96",
          "name": "courtID",
          "type": "uint96"
        },
        {
          "internalType": "contract IArbitrableV2",
          "name": "arbitrated",
          "type": "address"
        },
        {
          "internalType": "enum KlerosCoreBase.Period",
          "name": "period",
          "type": "uint8"
        },
        {
          "internalType": "bool",
          "name": "ruled",
          "type": "bool"
        },
        {
          "internalType": "uint256",
          "name": "lastPeriodChange",
          "type": "uint256"
        }
      ],
      "stateMutability": "view",
      "type": "function"
    },
    {
      "inputs": [
        {
          "internalType": "uint256",
          "name": "_disputeID",
          "type": "uint256"
        },
        {
          "internalType": "uint256",
          "name": "_iterations",
          "type": "uint256"
        }
      ],
      "name": "draw",
      "outputs": [],
      "stateMutability": "nonpayable",
      "type": "function"
    },
    {
      "inputs": [
        {
          "internalType": "uint96",
          "name": "_courtID",
          "type": "uint96"
        },
        {
          "internalType": "uint256[]",
          "name": "_disputeKitIDs",
          "type": "uint256[]"
        },
        {
          "internalType": "bool",
          "name": "_enable",
          "type": "bool"
        }
      ],
      "name": "enableDisputeKits",
      "outputs": [],
      "stateMutability": "nonpayable",
      "type": "function"
    },
    {
      "inputs": [
        {
          "internalType": "uint256",
          "name": "_disputeID",
          "type": "uint256"
        },
        {
          "internalType": "uint256",
          "name": "_round",
          "type": "uint256"
        },
        {
          "internalType": "uint256",
          "name": "_iterations",
          "type": "uint256"
        }
      ],
      "name": "execute",
      "outputs": [],
      "stateMutability": "nonpayable",
      "type": "function"
    },
    {
      "inputs": [
        {
          "internalType": "address",
          "name": "_destination",
          "type": "address"
        },
        {
          "internalType": "uint256",
          "name": "_amount",
          "type": "uint256"
        },
        {
          "internalType": "bytes",
          "name": "_data",
          "type": "bytes"
        }
      ],
      "name": "executeGovernorProposal",
      "outputs": [],
      "stateMutability": "nonpayable",
      "type": "function"
    },
    {
      "inputs": [
        {
          "internalType": "uint256",
          "name": "_disputeID",
          "type": "uint256"
        }
      ],
      "name": "executeRuling",
      "outputs": [],
      "stateMutability": "nonpayable",
      "type": "function"
    },
    {
      "inputs": [],
      "name": "getDisputeKitsLength",
      "outputs": [
        {
          "internalType": "uint256",
          "name": "",
          "type": "uint256"
        }
      ],
      "stateMutability": "view",
      "type": "function"
    },
    {
      "inputs": [
        {
          "internalType": "uint256",
          "name": "_disputeID",
          "type": "uint256"
        }
      ],
      "name": "getNumberOfRounds",
      "outputs": [
        {
          "internalType": "uint256",
          "name": "",
          "type": "uint256"
        }
      ],
      "stateMutability": "view",
      "type": "function"
    },
    {
      "inputs": [
        {
          "internalType": "uint256",
          "name": "_disputeID",
          "type": "uint256"
        }
      ],
      "name": "getNumberOfVotes",
      "outputs": [
        {
          "internalType": "uint256",
          "name": "",
          "type": "uint256"
        }
      ],
      "stateMutability": "view",
      "type": "function"
    },
    {
      "inputs": [
        {
          "internalType": "uint256",
          "name": "_disputeID",
          "type": "uint256"
        },
        {
          "internalType": "uint256",
          "name": "_round",
          "type": "uint256"
        }
      ],
      "name": "getPnkAtStakePerJuror",
      "outputs": [
        {
          "internalType": "uint256",
          "name": "",
          "type": "uint256"
        }
      ],
      "stateMutability": "view",
      "type": "function"
    },
    {
      "inputs": [
        {
          "internalType": "uint256",
          "name": "_disputeID",
          "type": "uint256"
        },
        {
          "internalType": "uint256",
          "name": "_round",
          "type": "uint256"
        }
      ],
      "name": "getRoundInfo",
      "outputs": [
        {
          "components": [
            {
              "internalType": "uint256",
              "name": "disputeKitID",
              "type": "uint256"
            },
            {
              "internalType": "uint256",
              "name": "pnkAtStakePerJuror",
              "type": "uint256"
            },
            {
              "internalType": "uint256",
              "name": "totalFeesForJurors",
              "type": "uint256"
            },
            {
              "internalType": "uint256",
              "name": "nbVotes",
              "type": "uint256"
            },
            {
              "internalType": "uint256",
              "name": "repartitions",
              "type": "uint256"
            },
            {
              "internalType": "uint256",
              "name": "pnkPenalties",
              "type": "uint256"
            },
            {
              "internalType": "address[]",
              "name": "drawnJurors",
              "type": "address[]"
            },
            {
              "internalType": "uint256",
              "name": "sumFeeRewardPaid",
              "type": "uint256"
            },
            {
              "internalType": "uint256",
              "name": "sumPnkRewardPaid",
              "type": "uint256"
            },
            {
              "internalType": "contract IERC20",
              "name": "feeToken",
              "type": "address"
            },
            {
              "internalType": "uint256",
              "name": "drawIterations",
              "type": "uint256"
            }
          ],
          "internalType": "struct KlerosCoreBase.Round",
          "name": "",
          "type": "tuple"
        }
      ],
      "stateMutability": "view",
      "type": "function"
    },
    {
      "inputs": [
        {
          "internalType": "uint96",
          "name": "_courtID",
          "type": "uint96"
        }
      ],
      "name": "getTimesPerPeriod",
      "outputs": [
        {
          "internalType": "uint256[4]",
          "name": "timesPerPeriod",
          "type": "uint256[4]"
        }
      ],
      "stateMutability": "view",
      "type": "function"
    },
    {
      "inputs": [],
      "name": "governor",
      "outputs": [
        {
          "internalType": "address",
          "name": "",
          "type": "address"
        }
      ],
      "stateMutability": "view",
      "type": "function"
    },
    {
      "inputs": [],
      "name": "guardian",
      "outputs": [
        {
          "internalType": "address",
          "name": "",
          "type": "address"
        }
      ],
      "stateMutability": "view",
      "type": "function"
    },
    {
      "inputs": [
        {
          "internalType": "address",
          "name": "_governor",
          "type": "address"
        },
        {
          "internalType": "address",
          "name": "_guardian",
          "type": "address"
        },
        {
          "internalType": "contract IERC20",
          "name": "_pinakion",
          "type": "address"
        },
        {
          "internalType": "address",
          "name": "_jurorProsecutionModule",
          "type": "address"
        },
        {
          "internalType": "contract IDisputeKit",
          "name": "_disputeKit",
          "type": "address"
        },
        {
          "internalType": "bool",
          "name": "_hiddenVotes",
          "type": "bool"
        },
        {
          "internalType": "uint256[4]",
          "name": "_courtParameters",
          "type": "uint256[4]"
        },
        {
          "internalType": "uint256[4]",
          "name": "_timesPerPeriod",
          "type": "uint256[4]"
        },
        {
          "internalType": "bytes",
          "name": "_sortitionExtraData",
          "type": "bytes"
        },
        {
          "internalType": "contract ISortitionModule",
          "name": "_sortitionModuleAddress",
          "type": "address"
        },
        {
          "internalType": "contract IERC721",
          "name": "_jurorNft",
          "type": "address"
        }
      ],
      "name": "initialize",
      "outputs": [],
      "stateMutability": "nonpayable",
      "type": "function"
    },
    {
      "inputs": [],
      "name": "initialize4",
      "outputs": [],
      "stateMutability": "nonpayable",
      "type": "function"
    },
    {
      "inputs": [
        {
          "internalType": "uint256",
          "name": "_disputeID",
          "type": "uint256"
        }
      ],
      "name": "isDisputeKitJumping",
      "outputs": [
        {
          "internalType": "bool",
          "name": "",
          "type": "bool"
        }
      ],
      "stateMutability": "view",
      "type": "function"
    },
    {
      "inputs": [
        {
          "internalType": "uint96",
          "name": "_courtID",
          "type": "uint96"
        },
        {
          "internalType": "uint256",
          "name": "_disputeKitID",
          "type": "uint256"
        }
      ],
      "name": "isSupported",
      "outputs": [
        {
          "internalType": "bool",
          "name": "",
          "type": "bool"
        }
      ],
      "stateMutability": "view",
      "type": "function"
    },
    {
      "inputs": [],
      "name": "jurorNft",
      "outputs": [
        {
          "internalType": "contract IERC721",
          "name": "",
          "type": "address"
        }
      ],
      "stateMutability": "view",
      "type": "function"
    },
    {
      "inputs": [],
      "name": "jurorProsecutionModule",
      "outputs": [
        {
          "internalType": "address",
          "name": "",
          "type": "address"
        }
      ],
      "stateMutability": "view",
      "type": "function"
    },
    {
      "inputs": [
        {
          "internalType": "uint256",
          "name": "_disputeID",
          "type": "uint256"
        }
      ],
      "name": "passPeriod",
      "outputs": [],
      "stateMutability": "nonpayable",
      "type": "function"
    },
    {
      "inputs": [],
      "name": "pause",
      "outputs": [],
      "stateMutability": "nonpayable",
      "type": "function"
    },
    {
      "inputs": [],
      "name": "paused",
      "outputs": [
        {
          "internalType": "bool",
          "name": "",
          "type": "bool"
        }
      ],
      "stateMutability": "view",
      "type": "function"
    },
    {
      "inputs": [],
      "name": "pinakion",
      "outputs": [
        {
          "internalType": "contract IERC20",
          "name": "",
          "type": "address"
        }
      ],
      "stateMutability": "view",
      "type": "function"
    },
    {
      "inputs": [],
      "name": "proxiableUUID",
      "outputs": [
        {
          "internalType": "bytes32",
          "name": "",
          "type": "bytes32"
        }
      ],
      "stateMutability": "view",
      "type": "function"
    },
    {
      "inputs": [
        {
          "internalType": "uint96",
          "name": "_courtID",
          "type": "uint96"
        },
        {
          "internalType": "uint256",
          "name": "_newStake",
          "type": "uint256"
        }
      ],
      "name": "setStake",
      "outputs": [],
      "stateMutability": "nonpayable",
      "type": "function"
    },
    {
      "inputs": [
        {
          "internalType": "address",
          "name": "_account",
          "type": "address"
        },
        {
          "internalType": "uint96",
          "name": "_courtID",
          "type": "uint96"
        },
        {
          "internalType": "uint256",
          "name": "_newStake",
          "type": "uint256"
        },
        {
          "internalType": "bool",
          "name": "_alreadyTransferred",
          "type": "bool"
        }
      ],
      "name": "setStakeBySortitionModule",
      "outputs": [],
      "stateMutability": "nonpayable",
      "type": "function"
    },
    {
      "inputs": [],
      "name": "sortitionModule",
      "outputs": [
        {
          "internalType": "contract ISortitionModule",
          "name": "",
          "type": "address"
        }
      ],
      "stateMutability": "view",
      "type": "function"
    },
    {
      "inputs": [],
      "name": "unpause",
      "outputs": [],
      "stateMutability": "nonpayable",
      "type": "function"
    },
    {
      "inputs": [
        {
          "internalType": "address",
          "name": "newImplementation",
          "type": "address"
        },
        {
          "internalType": "bytes",
          "name": "data",
          "type": "bytes"
        }
      ],
      "name": "upgradeToAndCall",
      "outputs": [],
      "stateMutability": "payable",
      "type": "function"
    },
    {
      "inputs": [],
      "name": "version",
      "outputs": [
        {
          "internalType": "string",
          "name": "",
          "type": "string"
        }
      ],
      "stateMutability": "view",
      "type": "function"
    }
  ],
  "transactionHash": "0x6aa10aa4775791be8f1bf95209007ae2ad78ab39587714929a608623189eaf80",
  "args": [],
  "numDeployments": 2,
  "solcInputHash": "3becf00d91b882372d51b0fc9f6a5781",
  "bytecode": "0x60a0604052306080523480156200001557600080fd5b506200002062000026565b620000d9565b7ff0c57e16840df040f15088dc2f81fe391c3923bec73e23a9662efc9c229c6a0e805468010000000000000000900460ff1615620000765760405162dc149f60e41b815260040160405180910390fd5b80546001600160401b0390811614620000d65780546001600160401b0319166001600160401b0390811782556040519081527fc7f505b2f371ae2175ee4913f4499e1f2633a7b5936321eed1cdaeb6115181d29060200160405180910390a15b50565b608051615e766200010360003960008181611a0401528181611a2d0152611c240152615e766000f3fe6080604052600436106102ea5760003560e01c80638456cb5911610186578063caeb50ed116100d7578063f6506db411610085578063f6506db4146109fc578063f7434ea914610a1c578063fbb519e714610a3c578063fbf405b014610a5c578063fc6f8f1614610a7c578063fe4037e614610a9c578063fe524c3914610abc57600080fd5b8063caeb50ed14610932578063cf0c38f814610947578063d07368bd14610967578063d2b8035a14610987578063d4d1d76a146109a7578063d98493f6146109bc578063e4c0aaf4146109dc57600080fd5b8063afe15cfb11610134578063afe15cfb14610847578063b00496371461087c578063b44d573c1461089c578063c13517e1146108cc578063c258bb19146108df578063c3569902146108ff578063c71f42531461091257600080fd5b80638456cb591461076557806386541b241461077a57806386cdecef1461079a5780638a9bb02a146107ba5780638bb04875146107e7578063a072b86c14610807578063acdbf51d1461082757600080fd5b80632fcb4f0411610240578063564a565d116101ee578063564a565d1461067a57806359ec827e146106ab5780635c975abb146106cb578063751accd0146106e55780637717a6e8146107055780637934c0be1461072557806382d022371461074557600080fd5b80632fcb4f04146105925780633cfd1184146105b25780633f4ba83a146105df578063452a9320146105f45780634f1ef2861461061457806352d1902d1461062757806354fd4d501461063c57600080fd5b80631c3db16d1161029d5780631c3db16d146104545780631d7e6892146104915780631f5a0dd2146104b15780632c053739146105125780632d29a47b146105325780632e1daf2f146105525780632e2e936a1461057257600080fd5b8062f5822c146102ef5780630219da79146103115780630b7414bc146103895780630c340a24146103a9578063115d5376146103d65780631860592b146103f657806319b8152914610424575b600080fd5b3480156102fb57600080fd5b5061030f61030a366004614fc1565b610adc565b005b34801561031d57600080fd5b5061035c61032c366004614fc1565b60086020526000908152604090205460ff808216916001600160401b0361010082041691600160481b9091041683565b6040805193151584526001600160401b03909216602084015260ff16908201526060015b60405180910390f35b34801561039557600080fd5b5061030f6103a43660046150cf565b610b29565b3480156103b557600080fd5b506000546103c9906001600160a01b031681565b6040516103809190615130565b3480156103e257600080fd5b5061030f6103f1366004615144565b610c60565b34801561040257600080fd5b5061041661041136600461515d565b61122d565b604051908152602001610380565b34801561043057600080fd5b5061044461043f366004615144565b611287565b6040519015158152602001610380565b34801561046057600080fd5b5061047461046f366004615144565b611380565b604080519384529115156020840152151590820152606001610380565b34801561049d57600080fd5b5061030f6104ac366004615189565b611481565b3480156104bd57600080fd5b506104d16104cc366004615144565b6114d7565b604080516001600160601b0390981688529515156020880152948601939093526060850191909152608084015260a0830152151560c082015260e001610380565b34801561051e57600080fd5b5061030f61052d36600461529e565b611536565b34801561053e57600080fd5b5061030f61054d36600461538b565b61162a565b34801561055e57600080fd5b506004546103c9906001600160a01b031681565b34801561057e57600080fd5b50600b546103c9906001600160a01b031681565b34801561059e57600080fd5b5061030f6105ad366004614fc1565b6118b6565b3480156105be57600080fd5b506105d26105cd3660046153b7565b611903565b60405161038091906153f5565b3480156105eb57600080fd5b5061030f61196d565b34801561060057600080fd5b506001546103c9906001600160a01b031681565b61030f610622366004615403565b6119f0565b34801561063357600080fd5b50610416611c17565b34801561064857600080fd5b5061066d604051806040016040528060058152602001640302e382e360dc1b81525081565b60405161038091906154a2565b34801561068657600080fd5b5061069a610695366004615144565b611c75565b6040516103809594939291906154ed565b3480156106b757600080fd5b506104166106c6366004615144565b611cd1565b3480156106d757600080fd5b506009546104449060ff1681565b3480156106f157600080fd5b5061030f61070036600461552c565b611e26565b34801561071157600080fd5b5061030f610720366004615584565b611ed0565b34801561073157600080fd5b5061030f610740366004615189565b611f93565b34801561075157600080fd5b5061030f6107603660046155a0565b612012565b34801561077157600080fd5b5061030f6120cf565b34801561078657600080fd5b5061030f6107953660046155f2565b61216f565b3480156107a657600080fd5b506104166107b5366004615660565b61234c565b3480156107c657600080fd5b506107da6107d5366004615660565b61239d565b60405161038091906156c7565b3480156107f357600080fd5b5061030f610802366004615144565b612529565b34801561081357600080fd5b5061030f61082236600461576c565b61268d565b34801561083357600080fd5b506103c9610842366004615144565b6129c5565b34801561085357600080fd5b50610867610862366004615144565b6129ef565b60408051928352602083019190915201610380565b34801561088857600080fd5b5061030f610897366004614fc1565b612a9b565b3480156108a857600080fd5b506104446108b7366004614fc1565b600a6020526000908152604090205460ff1681565b6104166108da36600461582c565b612ae8565b3480156108eb57600080fd5b5061030f6108fa366004614fc1565b612b20565b61030f61090d36600461585c565b612b6d565b34801561091e57600080fd5b5061041661092d366004615144565b613041565b34801561093e57600080fd5b5061030f6130a9565b34801561095357600080fd5b506003546103c9906001600160a01b031681565b34801561097357600080fd5b5061030f610982366004614fc1565b61315a565b34801561099357600080fd5b5061030f6109a2366004615660565b613203565b3480156109b357600080fd5b50600654610416565b3480156109c857600080fd5b506104166109d73660046158dd565b613518565b3480156109e857600080fd5b5061030f6109f7366004614fc1565b613565565b348015610a0857600080fd5b50610416610a17366004615928565b6135b2565b348015610a2857600080fd5b50610416610a3736600461598e565b613698565b348015610a4857600080fd5b5061030f610a573660046159c2565b6136e4565b348015610a6857600080fd5b506002546103c9906001600160a01b031681565b348015610a8857600080fd5b50610416610a97366004615144565b613724565b348015610aa857600080fd5b5061030f610ab7366004614fc1565b613753565b348015610ac857600080fd5b50610444610ad7366004615584565b6137a0565b6000546001600160a01b03163314610b075760405163c383977560e01b815260040160405180910390fd5b600280546001600160a01b0319166001600160a01b0392909216919091179055565b6000546001600160a01b03163314610b545760405163c383977560e01b815260040160405180910390fd5b60005b8251811015610c5a578115610bf357828181518110610b7857610b78615a13565b602002602001015160001480610bab57506006548351849083908110610ba057610ba0615a13565b602002602001015110155b15610bc957604051633d58a98960e11b815260040160405180910390fd5b610bee84848381518110610bdf57610bdf615a13565b602002602001015160016137e8565b610c52565b6001838281518110610c0757610c07615a13565b602002602001015103610c2d576040516356d111fd60e11b815260040160405180910390fd5b610c5284848381518110610c4357610c43615a13565b602002602001015160006137e8565b600101610b57565b50505050565b600060078281548110610c7557610c75615a13565b600091825260208220600490910201805460058054929450916001600160601b03909116908110610ca857610ca8615a13565b6000918252602082206003850154600c909202019250610cca90600190615a3f565b90506000836003018281548110610ce357610ce3615a13565b600091825260208220600b909102019150600185015460ff166004811115610d0d57610d0d6154b5565b03610de85781158015610d5c57506001840154600684019060ff166004811115610d3957610d396154b5565b60048110610d4957610d49615a13565b01546002850154610d5a9042615a3f565b105b15610d7a57604051633e9727df60e01b815260040160405180910390fd5b6003810154600682015414610da2576040516309e4486b60e41b815260040160405180910390fd5b8254600160601b900460ff16610db9576002610dbc565b60015b60018086018054909160ff1990911690836004811115610dde57610dde6154b5565b02179055506111df565b60018085015460ff166004811115610e0257610e026154b5565b03610f12576001840154600684019060ff166004811115610e2557610e256154b5565b60048110610e3557610e35615a13565b01546002850154610e469042615a3f565b108015610edd57506006816000015481548110610e6557610e65615a13565b600091825260209091200154604051630baa64d160e01b8152600481018790526001600160a01b0390911690630baa64d190602401602060405180830381865afa158015610eb7573d6000803e3d6000fd5b505050506040513d601f19601f82011682018060405250810190610edb9190615a52565b155b15610efb57604051634dfa578560e11b815260040160405180910390fd5b6001808501805460029260ff199091169083610dde565b6002600185015460ff166004811115610f2d57610f2d6154b5565b0361107b576001840154600684019060ff166004811115610f5057610f506154b5565b60048110610f6057610f60615a13565b01546002850154610f719042615a3f565b10801561100857506006816000015481548110610f9057610f90615a13565b6000918252602090912001546040516336a66c7560e11b8152600481018790526001600160a01b0390911690636d4cd8ea90602401602060405180830381865afa158015610fe2573d6000803e3d6000fd5b505050506040513d601f19601f820116820180604052508101906110069190615a52565b155b1561102657604051631988dead60e31b815260040160405180910390fd5b600184018054600360ff199091161790558354604051600160601b9091046001600160a01b03169086907fa5d41b970d849372be1da1481ffd78d162bfe57a7aa2fe4e5fb73481fa5ac24f90600090a36111df565b6003600185015460ff166004811115611096576110966154b5565b036111a6576001840154600684019060ff1660048111156110b9576110b96154b5565b600481106110c9576110c9615a13565b015460028501546110da9042615a3f565b108015611171575060068160000154815481106110f9576110f9615a13565b600091825260209091200154604051630855bbe960e01b8152600481018790526001600160a01b0390911690630855bbe990602401602060405180830381865afa15801561114b573d6000803e3d6000fd5b505050506040513d601f19601f8201168201806040525081019061116f9190615a52565b155b1561118f57604051632f4dfd8760e01b815260040160405180910390fd5b6001808501805460049260ff199091169083610dde565b6004600185015460ff1660048111156111c1576111c16154b5565b036111df576040516307f38c8f60e11b815260040160405180910390fd5b426002850155600184015460405186917f4e6f5cf43b95303e86aee81683df63992061723a829ee012db21dad388756b919161121e9160ff1690615a6f565b60405180910390a25050505050565b6001600160a01b03821660009081526008602052604081205461010081046001600160401b03169061126a90600160481b900460ff16600a615b61565b6112749084615b70565b61127e9190615b9d565b90505b92915050565b6000806007838154811061129d5761129d615a13565b60009182526020822060036004909202019081018054919350906112c390600190615a3f565b815481106112d3576112d3615a13565b600091825260208220845460058054600b909402909201945090916001600160601b0390911690811061130857611308615a13565b90600052602060002090600c0201905080600501548260030154101561133357506000949350505050565b80546005805490916001600160601b031690811061135357611353615a13565b6000918252602080832094548352600a600c9092029094010190925250604090205460ff16159392505050565b6000806000806007858154811061139957611399615a13565b60009182526020822060036004909202019081018054919350906113bf90600190615a3f565b815481106113cf576113cf615a13565b90600052602060002090600b02019050600060068260000154815481106113f8576113f8615a13565b600091825260209091200154604051631c3db16d60e01b8152600481018990526001600160a01b0390911691508190631c3db16d90602401606060405180830381865afa15801561144d573d6000803e3d6000fd5b505050506040513d601f19601f820116820180604052508101906114719190615bb1565b9199909850909650945050505050565b6000546001600160a01b031633146114ac5760405163c383977560e01b815260040160405180910390fd5b6001600160a01b03919091166000908152600a60205260409020805460ff1916911515919091179055565b600581815481106114e757600080fd5b60009182526020909120600c9091020180546002820154600383015460048401546005850154600b909501546001600160601b038516965060ff600160601b9095048516959394929391921687565b60026000611542613870565b8054909150600160401b900460ff1680611569575080546001600160401b03808416911610155b156115865760405162dc149f60e41b815260040160405180910390fd5b805468ffffffffffffffffff19166001600160401b03831617600160401b1781556115b98d8d8d8d8d8d8d8d8d8d613894565b600b80546001600160a01b0319166001600160a01b038516179055805460ff60401b191681556040516001600160401b03831681527fc7f505b2f371ae2175ee4913f4499e1f2633a7b5936321eed1cdaeb6115181d29060200160405180910390a150505050505050505050505050565b60095460ff161561164e57604051636f1dac1d60e01b815260040160405180910390fd5b6000806007858154811061166457611664615a13565b600091825260209091206004918202019150600182015460ff16600481111561168f5761168f6154b5565b146116ad57604051638794ce4b60e01b815260040160405180910390fd5b8060030184815481106116c2576116c2615a13565b6000918252602082206004600b909202019081015490935091506116e68483615be9565b6005840154600685015460028601549293509091600090611708908390615b9d565b9050600086600101549050600080600689600001548154811061172d5761172d615a13565b60009182526020909120015460405163368efae360e21b8152600481018e9052602481018d90526001600160a01b039091169150819063da3beb8c90604401602060405180830381865afa158015611789573d6000803e3d6000fd5b505050506040513d601f19601f820116820180604052508101906117ad9190615bfc565b915050806000036117c957838611156117c4578395505b6117e9565b6117d4846002615b70565b8611156117e9576117e6846002615b70565b95505b60048801869055865b86811015611895578481101561184b576118446040518061010001604052808e81526020018d815260200184815260200187815260200186815260200185815260200188815260200183815250613bb4565b955061188d565b61188d6040518061010001604052808e81526020018d815260200184815260200187815260200186815260200185815260200188815260200183815250614085565b6001016117f2565b50848860050154146118a957600588018590555b5050505050505050505050565b6000546001600160a01b031633146118e15760405163c383977560e01b815260040160405180910390fd5b600180546001600160a01b0319166001600160a01b0392909216919091179055565b61190b614ef1565b6005826001600160601b03168154811061192757611927615a13565b6000918252602090912060408051608081019182905292600c029091016006019060049082845b81548152602001906001019080831161194e5750505050509050919050565b6000546001600160a01b031633146119985760405163c383977560e01b815260040160405180910390fd5b60095460ff166119bb5760405163b4143dc760e01b815260040160405180910390fd5b6009805460ff191690556040517fa45f47fdea8a1efdd9029a5691c7f759c32b7c698632b563573e155625d1693390600090a1565b6119f9826145bd565b306001600160a01b037f0000000000000000000000000000000000000000000000000000000000000000161480611a7757507f00000000000000000000000000000000000000000000000000000000000000006001600160a01b0316611a6b600080516020615e218339815191525490565b6001600160a01b031614155b15611a955760405163703e46dd60e11b815260040160405180910390fd5b816001600160a01b03166352d1902d6040518163ffffffff1660e01b8152600401602060405180830381865afa925050508015611aef575060408051601f3d908101601f19168201909252611aec91810190615bfc565b60015b611b175781604051630c76093760e01b8152600401611b0e9190615130565b60405180910390fd5b600080516020615e218339815191528114611b4857604051632a87526960e21b815260048101829052602401611b0e565b600080516020615e218339815191528390556040516001600160a01b038416907fbc7cd75a20ee27fd9adebab32041f755214dbc6bffa90cc0225b39da2e5c2d3b90600090a2815115611c11576000836001600160a01b031683604051611baf9190615c15565b600060405180830381855af49150503d8060008114611bea576040519150601f19603f3d011682016040523d82523d6000602084013e611bef565b606091505b5050905080610c5a576040516339b21b5d60e11b815260040160405180910390fd5b505b5050565b6000306001600160a01b037f00000000000000000000000000000000000000000000000000000000000000001614611c625760405163703e46dd60e11b815260040160405180910390fd5b50600080516020615e2183398151915290565b60078181548110611c8557600080fd5b60009182526020909120600490910201805460018201546002909201546001600160601b0382169350600160601b9091046001600160a01b03169160ff80821692610100909204169085565b60008060078381548110611ce757611ce7615a13565b6000918252602082206003600490920201908101805491935090611d0d90600190615a3f565b81548110611d1d57611d1d615a13565b600091825260208220845460058054600b909402909201945090916001600160601b03909116908110611d5257611d52615a13565b90600052602060002090600c020190508060050154826003015410611df15782546001600160601b031660001901611d93576001600160ff1b039350611e1e565b6003820154611da3906002615b70565b611dae906001615be9565b81546005805490916001600160601b0316908110611dce57611dce615a13565b90600052602060002090600c020160040154611dea9190615b70565b9350611e1e565b6003820154611e01906002615b70565b611e0c906001615be9565b8160040154611e1b9190615b70565b93505b505050919050565b6000546001600160a01b03163314611e515760405163c383977560e01b815260040160405180910390fd5b6000836001600160a01b03168383604051611e6c9190615c15565b60006040518083038185875af1925050503d8060008114611ea9576040519150601f19603f3d011682016040523d82523d6000602084013e611eae565b606091505b5050905080610c5a576040516322092f2f60e11b815260040160405180910390fd5b60095460ff1615611ef457604051636f1dac1d60e01b815260040160405180910390fd5b600b546040516370a0823160e01b81526001600160a01b03909116906370a0823190611f24903390600401615130565b602060405180830381865afa158015611f41573d6000803e3d6000fd5b505050506040513d601f19601f82011682018060405250810190611f659190615bfc565b600003611f85576040516326b551e560e11b815260040160405180910390fd5b611c113383836000806145eb565b6000546001600160a01b03163314611fbe5760405163c383977560e01b815260040160405180910390fd5b6001600160a01b038216600081815260086020526040808220805460ff191685151590811790915590519092917f541615e167511d757a7067a700eb54431b256bb458dfdce0ac58bf2ed0aefd4491a35050565b6000546001600160a01b0316331461203d5760405163c383977560e01b815260040160405180910390fd5b6001600160a01b038316600081815260086020908152604091829020805469ffffffffffffffffff0019166101006001600160401b03881690810260ff60481b191691909117600160481b60ff8816908102919091179092558351908152918201527fe6996b7f03e9bd02228b99d3d946932e3197f505f60542c4cfbc919441d8a4e6910160405180910390a2505050565b6001546001600160a01b031633148015906120f557506000546001600160a01b03163314155b1561211357604051636b29334f60e01b815260040160405180910390fd5b60095460ff161561213757604051636f1dac1d60e01b815260040160405180910390fd5b6009805460ff191660011790556040517f9e87fac88ff661f02d44f95383c817fece4bce600a3dab7a54406878b965e75290600090a1565b6000546001600160a01b0316331461219a5760405163c383977560e01b815260040160405180910390fd5b60006005886001600160601b0316815481106121b8576121b8615a13565b90600052602060002090600c0201905060016001600160601b0316886001600160601b03161415801561221a575080546005805488926001600160601b031690811061220657612206615a13565b90600052602060002090600c020160020154115b1561223857604051639717078960e01b815260040160405180910390fd5b60005b60018201548110156122b35786600583600101838154811061225f5761225f615a13565b90600052602060002001548154811061227a5761227a615a13565b90600052602060002090600c02016002015410156122ab57604051639717078960e01b815260040160405180910390fd5b60010161223b565b5060028101869055805460ff60601b1916600160601b88151502178155600381018590556004808201859055600582018490556122f69060068301908490614f0f565b50876001600160601b03167f709b1f5fda58af9a4f52dacd1ec404840a8148455700cce155a2bd8cf127ef1a88888888888860405161233a96959493929190615c31565b60405180910390a25050505050505050565b60006007838154811061236157612361615a13565b9060005260206000209060040201600301828154811061238357612383615a13565b90600052602060002090600b020160010154905092915050565b61240360405180610160016040528060008152602001600081526020016000815260200160008152602001600081526020016000815260200160608152602001600081526020016000815260200160006001600160a01b03168152602001600081525090565b6007838154811061241657612416615a13565b9060005260206000209060040201600301828154811061243857612438615a13565b90600052602060002090600b020160405180610160016040529081600082015481526020016001820154815260200160028201548152602001600382015481526020016004820154815260200160058201548152602001600682018054806020026020016040519081016040528092919081815260200182805480156124e757602002820191906000526020600020905b81546001600160a01b031681526001909101906020018083116124c9575b5050509183525050600782015460208201526008820154604082015260098201546001600160a01b03166060820152600a909101546080909101529392505050565b60006007828154811061253e5761253e615a13565b600091825260209091206004918202019150600182015460ff166004811115612569576125696154b5565b1461258757604051638794ce4b60e01b815260040160405180910390fd5b6001810154610100900460ff16156125b25760405163c977f8d360e01b815260040160405180910390fd5b60006125bd83611380565b505060018301805461010061ff001990911617905582546040518281529192508491600160601b9091046001600160a01b0316907f394027a5fa6e098a1191094d1719d6929b9abc535fcc0c8f448d6a4e756222769060200160405180910390a3815460405163188d362b60e11b81526004810185905260248101839052600160601b9091046001600160a01b03169063311a6c5690604401600060405180830381600087803b15801561267057600080fd5b505af1158015612684573d6000803e3d6000fd5b50505050505050565b6000546001600160a01b031633146126b85760405163c383977560e01b815260040160405180910390fd5b8660058a6001600160601b0316815481106126d5576126d5615a13565b90600052602060002090600c020160020154111561270657604051639717078960e01b815260040160405180910390fd5b80516000036127285760405163402585f560e01b815260040160405180910390fd5b6001600160601b03891661274f57604051631ef4f64960e01b815260040160405180910390fd5b60058054600181018255600091825290600c82027f036b6384b5eca791c62761152d0c79bb0604c104a5fb6f4eb0703f3154bb3db001905b8351811015612811578381815181106127a2576127a2615a13565b6020026020010151600014806127d5575060065484518590839081106127ca576127ca615a13565b602002602001015110155b156127f357604051633d58a98960e11b815260040160405180910390fd5b61280983858381518110610bdf57610bdf615a13565b600101612787565b5060016000908152600a8201602052604090205460ff16612845576040516306351b3d60e31b815260040160405180910390fd5b80546001600160601b0319166001600160601b038c16178155604080516000815260208101918290525161287d916001840191614f4d565b50805460ff60601b1916600160601b8b15150217815560028101899055600381018890556004808201889055600582018790556128c09060068301908790614f0f565b50600480546040516311de995760e21b81526001600160a01b039091169163477a655c916128f2918691899101615c64565b600060405180830381600087803b15801561290c57600080fd5b505af1158015612920573d6000803e3d6000fd5b5050505060058b6001600160601b03168154811061294057612940615a13565b600091825260208083206001600c909302018201805492830181558352909120018290556040516001600160601b03808d1691908416907f550ff678017abc294b4786a99a046628d5a1eac07be0f1ea7e89543f13576ee6906129b0908e908e908e908e908e908e908d90615c7d565b60405180910390a35050505050505050505050565b600681815481106129d557600080fd5b6000918252602090912001546001600160a01b0316905081565b600080600060078481548110612a0757612a07615a13565b6000918252602090912060049091020190506003600182015460ff166004811115612a3457612a346154b5565b03612a8c576002810154815460058054929550916001600160601b03909116908110612a6257612a62615a13565b600091825260209091206009600c9092020101546002820154612a859190615be9565b9150612a95565b60009250600091505b50915091565b6000546001600160a01b03163314612ac65760405163c383977560e01b815260040160405180910390fd5b600480546001600160a01b0319166001600160a01b0392909216919091179055565b6000612af382613698565b341015612b1357604051630e3360f160e21b815260040160405180910390fd5b61127e83836000346147a6565b6000546001600160a01b03163314612b4b5760405163c383977560e01b815260040160405180910390fd5b600380546001600160a01b0319166001600160a01b0392909216919091179055565b612b7683611cd1565b341015612b9657604051633191f8f160e01b815260040160405180910390fd5b600060078481548110612bab57612bab615a13565b6000918252602090912060049091020190506003600182015460ff166004811115612bd857612bd86154b5565b14612bf6576040516337cdefcb60e21b815260040160405180910390fd5b60038101805460009190612c0c90600190615a3f565b81548110612c1c57612c1c615a13565b90600052602060002090600b020190506006816000015481548110612c4357612c43615a13565b6000918252602090912001546001600160a01b03163314612c775760405163065f245f60e01b815260040160405180910390fd5b8154815460038401805460018101825560009182526020909120600580546001600160601b0390951694600b9093029091019184908110612cba57612cba615a13565b90600052602060002090600c020160050154846003015410612dc3576005836001600160601b031681548110612cf257612cf2615a13565b60009182526020909120600c9091020154600580546001600160601b0390921694509084908110612d2557612d25615a13565b60009182526020808320858452600a600c90930201919091019052604090205460ff16612d5157600191505b84546001600160601b03848116911614612dc357845460038601546001600160601b0390911690612d8490600190615a3f565b6040516001600160601b03861681528a907f736e3f52761298c8c0823e1ebf482ed3c5ecb304f743d2d91a7c006e8e8d7a1f9060200160405180910390a45b84546001600160601b0319166001600160601b038416908117865560018601805460ff1916905542600287015560058054600092908110612e0657612e06615a13565b90600052602060002090600c02019050806004015434612e269190615b9d565b826003018190555061271081600301548260020154612e459190615b70565b612e4f9190615b9d565b60018084019190915534600284015583835560045460038801546001600160a01b039091169163d09f392d918c91612e8691615a3f565b6040516001600160e01b031960e085901b16815260048101929092526024820152604401600060405180830381600087803b158015612ec457600080fd5b505af1158015612ed8573d6000803e3d6000fd5b505086548454149150612fbe90505784546003870154612efa90600190615a3f565b83546040519081528b907fcbe7939a71f0b369c7471d760a0a99b60b7bb010ee0406cba8a46679d1ea77569060200160405180910390a46006826000015481548110612f4857612f48615a13565b60009182526020909120015460038301546040516302dbb79560e61b81526001600160a01b039092169163b6ede54091612f8b918d918d918d9190600401615cfc565b600060405180830381600087803b158015612fa557600080fd5b505af1158015612fb9573d6000803e3d6000fd5b505050505b8554604051600160601b9091046001600160a01b0316908a907f9c9b64db9e130f48381bf697abf638e73117dbfbfd7a4484f2da3ba188f4187d90600090a3887f4e6f5cf43b95303e86aee81683df63992061723a829ee012db21dad388756b91600060405161302e9190615a6f565b60405180910390a2505050505050505050565b6000806007838154811061305757613057615a13565b90600052602060002090600402019050806003016001826003018054905061307f9190615a3f565b8154811061308f5761308f615a13565b90600052602060002090600b020160030154915050919050565b600460006130b5613870565b8054909150600160401b900460ff16806130dc575080546001600160401b03808416911610155b156130f95760405162dc149f60e41b815260040160405180910390fd5b805468ffffffffffffffffff19166001600160401b038316908117600160401b1760ff60401b191682556040519081527fc7f505b2f371ae2175ee4913f4499e1f2633a7b5936321eed1cdaeb6115181d29060200160405180910390a15050565b6000546001600160a01b031633146131855760405163c383977560e01b815260040160405180910390fd5b6006805460018101825560009182527ff652222313e28459528d920b65115c16c04f3efc82aaedc97be59f3f377c0d3f810180546001600160a01b0319166001600160a01b0385169081179091556040519192909183917f44063d258760b98116d53815adbc906a56b3563e540148cc0fc2457f83b5eeb291a35050565b60006007838154811061321857613218615a13565b9060005260206000209060040201905060006001826003018054905061323e9190615a3f565b9050600082600301828154811061325757613257615a13565b600091825260208220600b909102019150600184015460ff166004811115613281576132816154b5565b1461329f57604051638285c4ef60e01b815260040160405180910390fd5b600060068260000154815481106132b8576132b8615a13565b6000918252602082200154600a8401546001600160a01b039091169250905b86811080156132ed575060038401546006850154105b156134f55760006001600160a01b03841663d2b8035a8a8461330e81615d2c565b955061331a9087615be9565b6040516001600160e01b031960e085901b168152600481019290925260248201526044016020604051808303816000875af115801561335d573d6000803e3d6000fd5b505050506040513d601f19601f820116820180604052508101906133819190615d45565b90506001600160a01b03811661339757506132d7565b6004805460018701546040516310f0b12f60e11b81526001600160a01b03909216926321e1625e926133cd928692909101615d62565b600060405180830381600087803b1580156133e757600080fd5b505af11580156133fb573d6000803e3d6000fd5b50505060068601546040518b92506001600160a01b038416917f6119cf536152c11e0a9a6c22f3953ce4ecc93ee54fa72ffa326ffabded21509b91613448918b8252602082015260400190565b60405180910390a36006850180546001810182556000828152602090200180546001600160a01b0319166001600160a01b03841617905560038601549054036134ef5760048054604051632e96bc2360e11b81529182018b9052602482018890526001600160a01b031690635d2d784690604401600060405180830381600087803b1580156134d657600080fd5b505af11580156134ea573d6000803e3d6000fd5b505050505b506132d7565b8084600a0160008282546135099190615be9565b90915550505050505050505050565b600061355d8261041186868080601f01602080910402602001604051908101604052809392919081815260200183838082843760009201919091525061369892505050565b949350505050565b6000546001600160a01b031633146135905760405163c383977560e01b815260040160405180910390fd5b600080546001600160a01b0319166001600160a01b0392909216919091179055565b6001600160a01b03821660009081526008602052604081205460ff166135eb5760405163e51cf7bf60e01b815260040160405180910390fd5b6135f6858585613518565b82101561361657604051630e3360f160e21b815260040160405180910390fd5b61362b6001600160a01b0384163330856147e2565b613648576040516312171d8360e31b815260040160405180910390fd5b61368c8686868080601f0160208091040260200160405190810160405280939291908181526020018383808284376000920191909152508892508791506147a69050565b90505b95945050505050565b60008060006136a6846148be565b5091509150806005836001600160601b0316815481106136c8576136c8615a13565b90600052602060002090600c02016004015461355d9190615b70565b6004546001600160a01b0316331461370f57604051639d6cab9960e01b815260040160405180910390fd5b61371d8484848460016145eb565b5050505050565b60006007828154811061373957613739615a13565b600091825260209091206003600490920201015492915050565b6000546001600160a01b0316331461377e5760405163c383977560e01b815260040160405180910390fd5b600b80546001600160a01b0319166001600160a01b0392909216919091179055565b60006005836001600160601b0316815481106137be576137be615a13565b60009182526020808320948352600c91909102909301600a0190925250604090205460ff16919050565b806005846001600160601b03168154811061380557613805615a13565b60009182526020808320868452600c92909202909101600a0190526040808220805460ff19169315159390931790925590518215159184916001600160601b038716917fb47629acdf64971062d40984f77d3dee212d735b11e3e8c7a4222d9f0572cc7991a4505050565b7ff0c57e16840df040f15088dc2f81fe391c3923bec73e23a9662efc9c229c6a0e90565b61389c614945565b600080546001600160a01b03199081166001600160a01b038d81169190911783556001805483168d83161781556002805484168d84161781556003805485168d85161790556004805485168785161790556006805481875291820190557ff652222313e28459528d920b65115c16c04f3efc82aaedc97be59f3f377c0d40018054909316918a1691821790925560405190927f44063d258760b98116d53815adbc906a56b3563e540148cc0fc2457f83b5eeb291a36005805460010181556000908152600480546040516311de995760e21b81526001600160a01b039091169263477a655c9261398e92879101615c64565b600060405180830381600087803b1580156139a857600080fd5b505af11580156139bc573d6000803e3d6000fd5b5050600580546001810182556000918252600c027f036b6384b5eca791c62761152d0c79bb0604c104a5fb6f4eb0703f3154bb3db00180546001600160601b031916815560408051838152602081019091529093509150508051613a2a916001840191602090910190614f4d565b50805460ff60601b1916600160601b871515021781558451600282015560208501516003820155604085015160048083019190915560608601516005830155613a799060068301908690614f0f565b50600480546040516311de995760e21b81526001600160a01b039091169163477a655c91613aac91600191889101615c64565b600060405180830381600087803b158015613ac657600080fd5b505af1158015613ada573d6000803e3d6000fd5b506000925060019150613aea9050565b604051908082528060200260200182016040528015613b13578160200160208202803683370190505b509050600181600081518110613b2b57613b2b615a13565b60209081029190910181019190915282548751918801516040808a015160608b015191516001600160601b03909416946001947f550ff678017abc294b4786a99a046628d5a1eac07be0f1ea7e89543f13576ee694613b91948f9491928e908b90615c7d565b60405180910390a3613ba660018060016137e8565b505050505050505050505050565b6000806007836000015181548110613bce57613bce615a13565b90600052602060002090600402019050600081600301846020015181548110613bf957613bf9615a13565b90600052602060002090600b0201905060006006826000015481548110613c2257613c22615a13565b60009182526020808320919091015487519188015160e089015160808a015160a08b01516040516333ac937b60e11b8152600481019690965260248601939093526044850191909152606484015260848301526001600160a01b03169250829063675926f69060a401602060405180830381865afa158015613ca8573d6000803e3d6000fd5b505050506040513d601f19601f82011682018060405250810190613ccc9190615bfc565b9050612710811115613cdd57506127105b6000612710613cec8382615a3f565b8560010154613cfb9190615b70565b613d059190615b9d565b9050808760c001818151613d199190615be9565b90525060e0870151600685018054600092908110613d3957613d39615a13565b6000918252602090912001546004805460405163965af6c760e01b81526001600160a01b03938416945092169163965af6c791613d7a918591879101615d62565b600060405180830381600087803b158015613d9457600080fd5b505af1158015613da8573d6000803e3d6000fd5b505060048054604051633c85b79360e21b81526001600160a01b03909116935063f216de4c9250613ddd918591879101615d62565b600060405180830381600087803b158015613df757600080fd5b505af1158015613e0b573d6000803e3d6000fd5b50505050602088015188516001600160a01b0383167f8975b837fe0d18616c65abb8b843726a32b552ee4feca009944fa658bbb282e786613e4b87615d7b565b60098b0154604051613e6d9392916000916001600160a01b0390911690615d97565b60405180910390a48751602089015160e08a015160405163ba66fde760e01b81526004810193909352602483019190915260448201526001600160a01b0385169063ba66fde790606401602060405180830381865afa158015613ed4573d6000803e3d6000fd5b505050506040513d601f19601f82011682018060405250810190613ef89190615a52565b613f5e576004805460405163b5d69e9960e01b81526001600160a01b039091169163b5d69e9991613f2b91859101615130565b600060405180830381600087803b158015613f4557600080fd5b505af1158015613f59573d6000803e3d6000fd5b505050505b60018860600151613f6f9190615a3f565b8860e00151148015613f8357506040880151155b156140745760098501546001600160a01b0316613fcc576000805460028701546040516001600160a01b039092169281156108fc029290818181858888f1935050505050613ff3565b60005460028601546009870154613ff1926001600160a01b039182169291169061496c565b505b60005460c0890151600254614016926001600160a01b039182169291169061496c565b506020880151885160c08a0151600288015460098901546040517f6cecfd3ec56289ccb16e30eb194f9a87dfdc12630b9abbc31fc69af5a0b0eaf49361406b93909290916001600160a01b0390911690615dbb565b60405180910390a35b50505060c090940151949350505050565b6000600782600001518154811061409e5761409e615a13565b906000526020600020906004020190506000816003018360200151815481106140c9576140c9615a13565b90600052602060002090600b02019050600060068260000154815481106140f2576140f2615a13565b6000918252602080832090910154865191870151606088015160e08901516001600160a01b039093169550859363675926f69390929161413191615dda565b60808a015160a08b01516040516001600160e01b031960e088901b1681526004810195909552602485019390935260448401919091526064830152608482015260a401602060405180830381865afa158015614191573d6000803e3d6000fd5b505050506040513d601f19601f820116820180604052508101906141b59190615bfc565b90506127108111156141c657506127105b60008360060186606001518760e001516141e09190615dda565b815481106141f0576141f0615a13565b600091825260208220015460018601546001600160a01b0390911692506127109061421c908590615b70565b6142269190615b9d565b6004805460405163965af6c760e01b81529293506001600160a01b03169163965af6c791614258918691869101615d62565b600060405180830381600087803b15801561427257600080fd5b505af1158015614286573d6000803e3d6000fd5b505060048054604051636624192f60e01b81526001600160a01b039091169350636624192f92506142b991869101615130565b602060405180830381865afa1580156142d6573d6000803e3d6000fd5b505050506040513d601f19601f820116820180604052508101906142fa9190615a52565b61431757600254614315906001600160a01b0316838361496c565b505b60006127108489604001518a60c001516143319190615b9d565b61433b9190615b70565b6143459190615b9d565b90508086600801600082825461435b9190615be9565b925050819055506000612710858a60400151896002015461437c9190615b9d565b6143869190615b70565b6143909190615b9d565b9050808760070160008282546143a69190615be9565b90915550506002546143c2906001600160a01b0316858461496c565b5060098701546001600160a01b0316614400576040516001600160a01b0385169082156108fc029083906000818181858888f193505050505061441b565b6009870154614419906001600160a01b0316858361496c565b505b6020890151895160098901546040516001600160a01b03888116927f8975b837fe0d18616c65abb8b843726a32b552ee4feca009944fa658bbb282e79261446b928c928a928a9290911690615d97565b60405180910390a46001896060015160026144869190615b70565b6144909190615a3f565b8960e00151036145b257600087600801548a60c001516144b09190615a3f565b90506000886007015489600201546144c89190615a3f565b9050811515806144d757508015155b156118a9578115614501576000546002546144ff916001600160a01b0391821691168461496c565b505b80156145685760098901546001600160a01b031661454757600080546040516001600160a01b039091169183156108fc02918491818181858888f1935050505050614568565b60005460098a0154614566916001600160a01b0391821691168361496c565b505b60208b01518b5160098b01546040517f6cecfd3ec56289ccb16e30eb194f9a87dfdc12630b9abbc31fc69af5a0b0eaf4916129b091879187916001600160a01b0390911690615dbb565b505050505050505050565b6000546001600160a01b031633146145e85760405163c383977560e01b815260040160405180910390fd5b50565b60006001600160601b038516158061460e57506005546001600160601b03861610155b156146265761461e826004614a39565b50600061368f565b831580159061466157506005856001600160601b03168154811061464c5761464c615a13565b90600052602060002090600c02016002015484105b156146715761461e826005614a39565b60048054604051630a5861b960e41b81526001600160a01b03898116938201939093526001600160601b03881660248201526044810187905285151560648201526000928392839291169063a5861b90906084016060604051808303816000875af11580156146e4573d6000803e3d6000fd5b505050506040513d601f19601f820116820180604052508101906147089190615dee565b919450925090506000816008811115614723576147236154b5565b1461473e576147328582614a39565b6000935050505061368f565b821561476b5760025461475c906001600160a01b03168a30866147e2565b61476b57614732856001614a39565b811561479757600254614788906001600160a01b03168a8461496c565b61479757614732856002614a39565b50600198975050505050505050565b336000908152600a602052604081205460ff166147d657604051630407618360e31b815260040160405180910390fd5b61368f85858585614aa7565b6040516001600160a01b038481166024830152838116604483015260648201839052600091829182919088169060840160408051601f198184030181529181526020820180516001600160e01b03166323b872dd60e01b179052516148479190615c15565b6000604051808303816000865af19150503d8060008114614884576040519150601f19603f3d011682016040523d82523d6000602084013e614889565b606091505b50915091508180156148b35750805115806148b35750808060200190518101906148b39190615a52565b979650505050505050565b60008060006040845110614933575050506020810151604082015160608301516001600160601b03831615806148ff57506005546001600160601b03841610155b1561490957600192505b8160000361491657600391505b80158061492557506006548110155b1561492e575060015b61493e565b506001915060039050815b9193909250565b61494d614d8e565b61496a57604051631afcd79f60e31b815260040160405180910390fd5b565b6000806000856001600160a01b0316858560405160240161498e929190615d62565b60408051601f198184030181529181526020820180516001600160e01b031663a9059cbb60e01b179052516149c39190615c15565b6000604051808303816000865af19150503d8060008114614a00576040519150601f19603f3d011682016040523d82523d6000602084013e614a05565b606091505b5091509150818015614a2f575080511580614a2f575080806020019051810190614a2f9190615a52565b9695505050505050565b614a438282614da8565b6006816008811115614a5757614a576154b5565b03614a7557604051636590e91560e01b815260040160405180910390fd5b6007816008811115614a8957614a896154b5565b03611c13576040516358859f1d60e01b815260040160405180910390fd5b6000806000614ab5866148be565b92505091506005826001600160601b031681548110614ad657614ad6615a13565b60009182526020808320848452600a600c90930201919091019052604090205460ff16614b165760405163b34eb75d60e01b815260040160405180910390fd5b600780546001810182556000918252600160601b33026001600160601b03851617600482027fa66cc928b5edb82af9bd49922954155ab7b0942694bea4ce44661d9a8736c6888101918255427fa66cc928b5edb82af9bd49922954155ab7b0942694bea4ce44661d9a8736c68a909101556006805492965090929184908110614ba157614ba1615a13565b6000918252602082200154600580546001600160a01b039092169350906001600160601b038716908110614bd757614bd7615a13565b60009182526020808320600387018054600181018255908552918420600c909302019350600b0201906001600160a01b038a1615614c2257614c1d8a846004015461122d565b614c28565b82600401545b9050614c34818a615b9d565b600380840191909155868355830154600284015461271091614c5591615b70565b614c5f9190615b9d565b6001830155600282018990556009820180546001600160a01b0319166001600160a01b038c8116919091179091556004805460405163d09f392d60e01b81529182018b9052600060248301529091169063d09f392d90604401600060405180830381600087803b158015614cd257600080fd5b505af1158015614ce6573d6000803e3d6000fd5b50505050836001600160a01b031663b6ede540898e8e86600301546040518563ffffffff1660e01b8152600401614d209493929190615cfc565b600060405180830381600087803b158015614d3a57600080fd5b505af1158015614d4e573d6000803e3d6000fd5b50506040513392508a91507f141dfc18aa6a56fc816f44f0e9e2f1ebc92b15ab167770e17db5b084c10ed99590600090a350505050505050949350505050565b6000614d98613870565b54600160401b900460ff16919050565b6001826001811115614dbc57614dbc6154b5565b03614dc5575050565b6001816008811115614dd957614dd96154b5565b03614df757604051630f323ed960e11b815260040160405180910390fd5b6002816008811115614e0b57614e0b6154b5565b03614e295760405163e45e13a360e01b815260040160405180910390fd5b6003816008811115614e3d57614e3d6154b5565b03614e5b57604051631d91d0ed60e31b815260040160405180910390fd5b6004816008811115614e6f57614e6f6154b5565b03614e8d57604051637c84af5160e01b815260040160405180910390fd5b6005816008811115614ea157614ea16154b5565b03614ebf57604051630caac6b360e31b815260040160405180910390fd5b6008816008811115614ed357614ed36154b5565b03611c1357604051633e57962f60e21b815260040160405180910390fd5b60405180608001604052806004906020820280368337509192915050565b8260048101928215614f3d579160200282015b82811115614f3d578251825591602001919060010190614f22565b50614f49929150614f87565b5090565b828054828255906000526020600020908101928215614f3d5791602002820182811115614f3d578251825591602001919060010190614f22565b5b80821115614f495760008155600101614f88565b6001600160a01b03811681146145e857600080fd5b8035614fbc81614f9c565b919050565b600060208284031215614fd357600080fd5b8135614fde81614f9c565b9392505050565b80356001600160601b0381168114614fbc57600080fd5b634e487b7160e01b600052604160045260246000fd5b604051601f8201601f191681016001600160401b038111828210171561503a5761503a614ffc565b604052919050565b600082601f83011261505357600080fd5b813560206001600160401b0382111561506e5761506e614ffc565b8160051b61507d828201615012565b928352848101820192828101908785111561509757600080fd5b83870192505b848310156148b35782358252918301919083019061509d565b80151581146145e857600080fd5b8035614fbc816150b6565b6000806000606084860312156150e457600080fd5b6150ed84614fe5565b925060208401356001600160401b0381111561510857600080fd5b61511486828701615042565b9250506040840135615125816150b6565b809150509250925092565b6001600160a01b0391909116815260200190565b60006020828403121561515657600080fd5b5035919050565b6000806040838503121561517057600080fd5b823561517b81614f9c565b946020939093013593505050565b6000806040838503121561519c57600080fd5b82356151a781614f9c565b915060208301356151b7816150b6565b809150509250929050565b600082601f8301126151d357600080fd5b604051608081018181106001600160401b03821117156151f5576151f5614ffc565b60405280608084018581111561520a57600080fd5b845b8181101561522457803583526020928301920161520c565b509195945050505050565b600082601f83011261524057600080fd5b81356001600160401b0381111561525957615259614ffc565b61526c601f8201601f1916602001615012565b81815284602083860101111561528157600080fd5b816020850160208301376000918101602001919091529392505050565b60008060008060008060008060008060006102208c8e0312156152c057600080fd5b8b356152cb81614f9c565b9a5060208c01356152db81614f9c565b99506152e960408d01614fb1565b98506152f760608d01614fb1565b975061530560808d01614fb1565b965061531360a08d016150c4565b95506153228d60c08e016151c2565b94506153328d6101408e016151c2565b93506101c08c01356001600160401b0381111561534e57600080fd5b61535a8e828f0161522f565b93505061536a6101e08d01614fb1565b91506153796102008d01614fb1565b90509295989b509295989b9093969950565b6000806000606084860312156153a057600080fd5b505081359360208301359350604090920135919050565b6000602082840312156153c957600080fd5b61127e82614fe5565b8060005b6004811015610c5a5781518452602093840193909101906001016153d6565b6080810161128182846153d2565b6000806040838503121561541657600080fd5b823561542181614f9c565b915060208301356001600160401b0381111561543c57600080fd5b6154488582860161522f565b9150509250929050565b60005b8381101561546d578181015183820152602001615455565b50506000910152565b6000815180845261548e816020860160208601615452565b601f01601f19169290920160200192915050565b60208152600061127e6020830184615476565b634e487b7160e01b600052602160045260246000fd5b600581106154e957634e487b7160e01b600052602160045260246000fd5b9052565b6001600160601b03861681526001600160a01b038516602082015260a0810161551960408301866154cb565b9215156060820152608001529392505050565b60008060006060848603121561554157600080fd5b833561554c81614f9c565b92506020840135915060408401356001600160401b0381111561556e57600080fd5b61557a8682870161522f565b9150509250925092565b6000806040838503121561559757600080fd5b61517b83614fe5565b6000806000606084860312156155b557600080fd5b83356155c081614f9c565b925060208401356001600160401b03811681146155dc57600080fd5b9150604084013560ff8116811461512557600080fd5b6000806000806000806000610140888a03121561560e57600080fd5b61561788614fe5565b96506020880135615627816150b6565b955060408801359450606088013593506080880135925060a088013591506156528960c08a016151c2565b905092959891949750929550565b6000806040838503121561567357600080fd5b50508035926020909101359150565b60008151808452602080850194506020840160005b838110156156bc5781516001600160a01b031687529582019590820190600101615697565b509495945050505050565b6020815281516020820152602082015160408201526040820151606082015260608201516080820152608082015160a082015260a082015160c0820152600060c08301516101608060e0850152615722610180850183615682565b60e0860151610100868101919091528601516101208087019190915286015190925061014061575b818701836001600160a01b03169052565b959095015193019290925250919050565b60008060008060008060008060006101808a8c03121561578b57600080fd5b6157948a614fe5565b985060208a01356157a4816150b6565b975060408a0135965060608a0135955060808a0135945060a08a013593506157cf8b60c08c016151c2565b92506101408a01356001600160401b03808211156157ec57600080fd5b6157f88d838e0161522f565b93506101608c013591508082111561580f57600080fd5b5061581c8c828d01615042565b9150509295985092959850929598565b6000806040838503121561583f57600080fd5b8235915060208301356001600160401b0381111561543c57600080fd5b60008060006060848603121561587157600080fd5b833592506020840135915060408401356001600160401b0381111561556e57600080fd5b60008083601f8401126158a757600080fd5b5081356001600160401b038111156158be57600080fd5b6020830191508360208285010111156158d657600080fd5b9250929050565b6000806000604084860312156158f257600080fd5b83356001600160401b0381111561590857600080fd5b61591486828701615895565b909450925050602084013561512581614f9c565b60008060008060006080868803121561594057600080fd5b8535945060208601356001600160401b0381111561595d57600080fd5b61596988828901615895565b909550935050604086013561597d81614f9c565b949793965091946060013592915050565b6000602082840312156159a057600080fd5b81356001600160401b038111156159b657600080fd5b61355d8482850161522f565b600080600080608085870312156159d857600080fd5b84356159e381614f9c565b93506159f160208601614fe5565b9250604085013591506060850135615a08816150b6565b939692955090935050565b634e487b7160e01b600052603260045260246000fd5b634e487b7160e01b600052601160045260246000fd5b8181038181111561128157611281615a29565b600060208284031215615a6457600080fd5b8151614fde816150b6565b6020810161128182846154cb565b600181815b80851115615ab8578160001904821115615a9e57615a9e615a29565b80851615615aab57918102915b93841c9390800290615a82565b509250929050565b600082615acf57506001611281565b81615adc57506000611281565b8160018114615af25760028114615afc57615b18565b6001915050611281565b60ff841115615b0d57615b0d615a29565b50506001821b611281565b5060208310610133831016604e8410600b8410161715615b3b575081810a611281565b615b458383615a7d565b8060001904821115615b5957615b59615a29565b029392505050565b600061127e60ff841683615ac0565b808202811582820484141761128157611281615a29565b634e487b7160e01b600052601260045260246000fd5b600082615bac57615bac615b87565b500490565b600080600060608486031215615bc657600080fd5b835192506020840151615bd8816150b6565b6040850151909250615125816150b6565b8082018082111561128157611281615a29565b600060208284031215615c0e57600080fd5b5051919050565b60008251615c27818460208701615452565b9190910192915050565b60006101208201905087151582528660208301528560408301528460608301528360808301526148b360a08301846153d2565b82815260406020820152600061355d6040830184615476565b60006101408083018a1515845260208a6020860152896040860152886060860152876080860152615cb160a08601886153d2565b610120850192909252845190819052610160840191602086019160005b81811015615cea57835185529382019392820192600101615cce565b50929c9b505050505050505050505050565b848152836020820152608060408201526000615d1b6080830185615476565b905082606083015295945050505050565b600060018201615d3e57615d3e615a29565b5060010190565b600060208284031215615d5757600080fd5b8151614fde81614f9c565b6001600160a01b03929092168252602082015260400190565b6000600160ff1b8201615d9057615d90615a29565b5060000390565b938452602084019290925260408301526001600160a01b0316606082015260800190565b92835260208301919091526001600160a01b0316604082015260600190565b600082615de957615de9615b87565b500690565b600080600060608486031215615e0357600080fd5b835192506020840151915060408401516009811061512557600080fdfe360894a13ba1a3210667c828492db98dca3e2076cc3735a920a3ca505d382bbca26469706673582212209e2cebf10f5a1cf6ac7bd668d952325763027583b485fac4a814d61392321e9964736f6c63430008180033",
  "devdoc": {
    "errors": {
      "AlreadyInitialized()": [
        {
          "details": "The contract is already initialized."
        }
      ],
      "InvalidImplementation(address)": [
        {
          "details": "The `implementation` is not UUPS-compliant"
        }
      ],
      "NotInitializing()": [
        {
          "details": "The contract is not initializing."
        }
      ],
      "UUPSUnauthorizedCallContext()": [
        {
          "details": "The call is from an unauthorized context."
        }
      ],
      "UUPSUnsupportedProxiableUUID(bytes32)": [
        {
          "details": "The storage `slot` is unsupported as a UUID."
        }
      ]
    },
    "events": {
      "AcceptedFeeToken(address,bool)": {
        "details": "To be emitted when an ERC20 token is added or removed as a method to pay fees.",
        "params": {
          "_accepted": "Whether the token is accepted or not.",
          "_token": "The ERC20 token."
        }
      },
      "DisputeCreation(uint256,address)": {
        "details": "To be emitted when a dispute is created.",
        "params": {
          "_arbitrable": "The contract which created the dispute.",
          "_disputeID": "The identifier of the dispute in the Arbitrator contract."
        }
      },
      "Initialized(uint64)": {
        "details": "Triggered when the contract has been initialized or reinitialized."
      },
      "NewCurrencyRate(address,uint64,uint8)": {
        "details": "To be emitted when the fee for a particular ERC20 token is updated.",
        "params": {
          "_feeToken": "The ERC20 token.",
          "_rateDecimals": "The new decimals of the fee token rate.",
          "_rateInEth": "The new rate of the fee token in ETH."
        }
      },
      "Ruling(address,uint256,uint256)": {
        "details": "To be raised when a ruling is given.",
        "params": {
          "_arbitrable": "The arbitrable receiving the ruling.",
          "_disputeID": "The identifier of the dispute in the Arbitrator contract.",
          "_ruling": "The ruling which was given."
        }
      },
      "Upgraded(address)": {
        "details": "Emitted when the `implementation` has been successfully upgraded.",
        "params": {
          "newImplementation": "Address of the new implementation the proxy is now forwarding calls to."
        }
      }
    },
    "kind": "dev",
    "methods": {
      "addNewDisputeKit(address)": {
        "details": "Add a new supported dispute kit module to the court.",
        "params": {
          "_disputeKitAddress": "The address of the dispute kit contract."
        }
      },
      "appeal(uint256,uint256,bytes)": {
        "details": "Appeals the ruling of a specified dispute. Note: Access restricted to the Dispute Kit for this `disputeID`.",
        "params": {
          "_disputeID": "The ID of the dispute.",
          "_extraData": "Extradata for the dispute. Can be required during court jump.",
          "_numberOfChoices": "Number of choices for the dispute. Can be required during court jump."
        }
      },
      "appealCost(uint256)": {
        "details": "Gets the cost of appealing a specified dispute.",
        "params": {
          "_disputeID": "The ID of the dispute."
        },
        "returns": {
          "cost": "The appeal cost."
        }
      },
      "appealPeriod(uint256)": {
        "details": "Gets the start and the end of a specified dispute's current appeal period.",
        "params": {
          "_disputeID": "The ID of the dispute."
        },
        "returns": {
          "end": "The end of the appeal period.",
          "start": "The start of the appeal period."
        }
      },
      "arbitrationCost(bytes)": {
        "details": "Compute the cost of arbitration denominated in ETH.      It is recommended not to increase it often, as it can be highly time and gas consuming for the arbitrated contracts to cope with fee augmentation.",
        "params": {
          "_extraData": "Additional info about the dispute. We use it to pass the ID of the dispute's court (first 32 bytes), the minimum number of jurors required (next 32 bytes) and the ID of the specific dispute kit (last 32 bytes)."
        },
        "returns": {
          "cost": "The arbitration cost in ETH."
        }
      },
      "arbitrationCost(bytes,address)": {
        "details": "Compute the cost of arbitration denominated in `_feeToken`.      It is recommended not to increase it often, as it can be highly time and gas consuming for the arbitrated contracts to cope with fee augmentation.",
        "params": {
          "_extraData": "Additional info about the dispute. We use it to pass the ID of the dispute's court (first 32 bytes), the minimum number of jurors required (next 32 bytes) and the ID of the specific dispute kit (last 32 bytes).",
          "_feeToken": "The ERC20 token used to pay fees."
        },
        "returns": {
          "cost": "The arbitration cost in `_feeToken`."
        }
      },
      "changeAcceptedFeeTokens(address,bool)": {
        "details": "Changes the supported fee tokens.",
        "params": {
          "_accepted": "Whether the token is supported or not as a method of fee payment.",
          "_feeToken": "The fee token."
        }
      },
      "changeArbitrableWhitelist(address,bool)": {
        "details": "Adds or removes an arbitrable from whitelist.",
        "params": {
          "_allowed": "Whether add or remove permission.",
          "_arbitrable": "Arbitrable address."
        }
      },
      "changeCurrencyRates(address,uint64,uint8)": {
        "details": "Changes the currency rate of a fee token.",
        "params": {
          "_feeToken": "The fee token.",
          "_rateDecimals": "The new decimals of the fee token rate.",
          "_rateInEth": "The new rate of the fee token in ETH."
        }
      },
      "changeGovernor(address)": {
        "details": "Changes the `governor` storage variable.",
        "params": {
          "_governor": "The new value for the `governor` storage variable."
        }
      },
      "changeGuardian(address)": {
        "details": "Changes the `guardian` storage variable.",
        "params": {
          "_guardian": "The new value for the `guardian` storage variable."
        }
      },
      "changeJurorNft(address)": {
        "details": "Changes the `jurorNft` storage variable.",
        "params": {
          "_jurorNft": "The new value for the `jurorNft` storage variable."
        }
      },
      "changeJurorProsecutionModule(address)": {
        "details": "Changes the `jurorProsecutionModule` storage variable.",
        "params": {
          "_jurorProsecutionModule": "The new value for the `jurorProsecutionModule` storage variable."
        }
      },
      "changePinakion(address)": {
        "details": "Changes the `pinakion` storage variable.",
        "params": {
          "_pinakion": "The new value for the `pinakion` storage variable."
        }
      },
      "changeSortitionModule(address)": {
        "details": "Changes the `_sortitionModule` storage variable. Note that the new module should be initialized for all courts.",
        "params": {
          "_sortitionModule": "The new value for the `sortitionModule` storage variable."
        }
      },
      "constructor": {
        "custom:oz-upgrades-unsafe-allow": "constructor"
      },
      "createCourt(uint96,bool,uint256,uint256,uint256,uint256,uint256[4],bytes,uint256[])": {
        "details": "Creates a court under a specified parent court.",
        "params": {
          "_alpha": "The `alpha` property value of the court.",
          "_feeForJuror": "The `feeForJuror` property value of the court.",
          "_hiddenVotes": "The `hiddenVotes` property value of the court.",
          "_jurorsForCourtJump": "The `jurorsForCourtJump` property value of the court.",
          "_minStake": "The `minStake` property value of the court.",
          "_parent": "The `parent` property value of the court.",
          "_sortitionExtraData": "Extra data for sortition module.",
          "_supportedDisputeKits": "Indexes of dispute kits that this court will support.",
          "_timesPerPeriod": "The `timesPerPeriod` property value of the court."
        }
      },
      "createDispute(uint256,bytes)": {
        "details": "Create a dispute and pay for the fees in the native currency, typically ETH.      Must be called by the arbitrable contract.      Must pay at least arbitrationCost(_extraData).",
        "params": {
          "_extraData": "Additional info about the dispute. We use it to pass the ID of the dispute's court (first 32 bytes), the minimum number of jurors required (next 32 bytes) and the ID of the specific dispute kit (last 32 bytes).",
          "_numberOfChoices": "The number of choices the arbitrator can choose from in this dispute."
        },
        "returns": {
          "disputeID": "The identifier of the dispute created."
        }
      },
      "createDispute(uint256,bytes,address,uint256)": {
        "details": "Create a dispute and pay for the fees in a supported ERC20 token.      Must be called by the arbitrable contract.      Must pay at least arbitrationCost(_extraData).",
        "params": {
          "_extraData": "Additional info about the dispute. We use it to pass the ID of the dispute's court (first 32 bytes), the minimum number of jurors required (next 32 bytes) and the ID of the specific dispute kit (last 32 bytes).",
          "_feeAmount": "Amount of the ERC20 token used to pay fees.",
          "_feeToken": "The ERC20 token used to pay fees.",
          "_numberOfChoices": "The number of choices the arbitrator can choose from in this dispute."
        },
        "returns": {
          "disputeID": "The identifier of the dispute created."
        }
      },
      "currentRuling(uint256)": {
        "details": "Gets the current ruling of a specified dispute.",
        "params": {
          "_disputeID": "The ID of the dispute."
        },
        "returns": {
          "overridden": "Whether the ruling was overridden by appeal funding or not.",
          "ruling": "The current ruling.",
          "tied": "Whether it's a tie or not."
        }
      },
      "draw(uint256,uint256)": {
        "details": "Draws jurors for the dispute. Can be called in parts.",
        "params": {
          "_disputeID": "The ID of the dispute.",
          "_iterations": "The number of iterations to run."
        }
      },
      "enableDisputeKits(uint96,uint256[],bool)": {
        "details": "Adds/removes court's support for specified dispute kits.",
        "params": {
          "_courtID": "The ID of the court.",
          "_disputeKitIDs": "The IDs of dispute kits which support should be added/removed.",
          "_enable": "Whether add or remove the dispute kits from the court."
        }
      },
      "execute(uint256,uint256,uint256)": {
        "details": "Distribute the PNKs at stake and the dispute fees for the specific round of the dispute. Can be called in parts. Note: Reward distributions are forbidden during pause.",
        "params": {
          "_disputeID": "The ID of the dispute.",
          "_iterations": "The number of iterations to run.",
          "_round": "The appeal round."
        }
      },
      "executeGovernorProposal(address,uint256,bytes)": {
        "details": "Allows the governor to call anything on behalf of the contract.",
        "params": {
          "_amount": "The value sent with the call.",
          "_data": "The data sent with the call.",
          "_destination": "The destination of the call."
        }
      },
      "executeRuling(uint256)": {
        "details": "Executes a specified dispute's ruling.",
        "params": {
          "_disputeID": "The ID of the dispute."
        }
      },
      "getNumberOfVotes(uint256)": {
        "details": "Gets the number of votes permitted for the specified dispute in the latest round.",
        "params": {
          "_disputeID": "The ID of the dispute."
        }
      },
      "getTimesPerPeriod(uint96)": {
        "details": "Gets the timesPerPeriod array for a given court.",
        "params": {
          "_courtID": "The ID of the court to get the times from."
        },
        "returns": {
          "timesPerPeriod": "The timesPerPeriod array for the given court."
        }
      },
      "initialize(address,address,address,address,address,bool,uint256[4],uint256[4],bytes,address,address)": {
        "details": "Initializer (constructor equivalent for upgradable contracts).",
        "params": {
          "_courtParameters": "Numeric parameters of General court (minStake, alpha, feeForJuror and jurorsForCourtJump respectively).",
          "_disputeKit": "The address of the default dispute kit.",
          "_governor": "The governor's address.",
          "_guardian": "The guardian's address.",
          "_hiddenVotes": "The `hiddenVotes` property value of the general court.",
          "_jurorNft": "NFT contract to vet the jurors.",
          "_jurorProsecutionModule": "The address of the juror prosecution module.",
          "_pinakion": "The address of the token contract.",
          "_sortitionExtraData": "The extra data for sortition module.",
          "_sortitionModuleAddress": "The sortition module responsible for sortition of the jurors.",
          "_timesPerPeriod": "The `timesPerPeriod` property value of the general court."
        }
      },
      "isDisputeKitJumping(uint256)": {
        "details": "Returns true if the dispute kit will be switched to a parent DK.",
        "params": {
          "_disputeID": "The ID of the dispute."
        },
        "returns": {
          "_0": "Whether DK will be switched or not."
        }
      },
      "passPeriod(uint256)": {
        "details": "Passes the period of a specified dispute.",
        "params": {
          "_disputeID": "The ID of the dispute."
        }
      },
      "pause()": {
        "details": "Pause staking and reward execution. Can only be done by guardian or governor."
      },
      "proxiableUUID()": {
        "details": "Implementation of the ERC1822 `proxiableUUID` function. This returns the storage slot used by the implementation. It is used to validate the implementation's compatibility when performing an upgrade. IMPORTANT: A proxy pointing at a proxiable contract should not be considered proxiable itself, because this risks bricking a proxy that upgrades to it, by delegating to itself until out of gas. Thus it is critical that this function revert if invoked through a proxy. This is guaranteed by the if statement."
      },
      "setStake(uint96,uint256)": {
        "details": "Sets the caller's stake in a court. Note: Staking and unstaking is forbidden during pause.",
        "params": {
          "_courtID": "The ID of the court.",
          "_newStake": "The new stake. Note that the existing delayed stake will be nullified as non-relevant."
        }
      },
      "setStakeBySortitionModule(address,uint96,uint256,bool)": {
        "details": "Sets the stake of a specified account in a court, typically to apply a delayed stake or unstake inactive jurors.",
        "params": {
          "_account": "The account whose stake is being set.",
          "_alreadyTransferred": "Whether the PNKs have already been transferred to the contract.",
          "_courtID": "The ID of the court.",
          "_newStake": "The new stake."
        }
      },
      "unpause()": {
        "details": "Unpause staking and reward execution. Can only be done by governor."
      },
      "upgradeToAndCall(address,bytes)": {
        "details": "Upgrade mechanism including access control and UUPS-compliance.Reverts if the execution is not performed via delegatecall or the execution context is not of a proxy with an ERC1967-compliant implementation pointing to self.",
        "params": {
          "data": "Data used in a delegate call to `newImplementation` if non-empty. This will typically be an encoded function call, and allows initializing the storage of the proxy like a Solidity constructor.",
          "newImplementation": "Address of the new implementation contract."
        }
      }
    },
    "stateVariables": {
      "version": {
        "details": "Returns the version of the implementation.",
        "return": "Version string.",
        "returns": {
          "_0": "Version string."
        }
      }
    },
    "title": "KlerosCoreNeo Core arbitrator contract for Kleros v2. Note that this contract trusts the PNK token, the dispute kit and the sortition module contracts.",
    "version": 1
  },
  "userdoc": {
    "errors": {
      "FailedDelegateCall()": [
        {
          "notice": "Failed Delegated call"
        }
      ]
    },
    "kind": "user",
    "methods": {},
    "version": 1
  },
  "storageLayout": {
    "storage": [
      {
        "astId": 8616,
        "contract": "src/arbitration/KlerosCoreNeo.sol:KlerosCoreNeo",
        "label": "governor",
        "offset": 0,
        "slot": "0",
        "type": "t_address"
      },
      {
        "astId": 8618,
        "contract": "src/arbitration/KlerosCoreNeo.sol:KlerosCoreNeo",
        "label": "guardian",
        "offset": 0,
        "slot": "1",
        "type": "t_address"
      },
      {
        "astId": 8621,
        "contract": "src/arbitration/KlerosCoreNeo.sol:KlerosCoreNeo",
        "label": "pinakion",
        "offset": 0,
        "slot": "2",
        "type": "t_contract(IERC20)1755"
      },
      {
        "astId": 8623,
        "contract": "src/arbitration/KlerosCoreNeo.sol:KlerosCoreNeo",
        "label": "jurorProsecutionModule",
        "offset": 0,
        "slot": "3",
        "type": "t_address"
      },
      {
        "astId": 8626,
        "contract": "src/arbitration/KlerosCoreNeo.sol:KlerosCoreNeo",
        "label": "sortitionModule",
        "offset": 0,
        "slot": "4",
        "type": "t_contract(ISortitionModule)23142"
      },
      {
        "astId": 8630,
        "contract": "src/arbitration/KlerosCoreNeo.sol:KlerosCoreNeo",
        "label": "courts",
        "offset": 0,
        "slot": "5",
        "type": "t_array(t_struct(Court)8535_storage)dyn_storage"
      },
      {
        "astId": 8634,
        "contract": "src/arbitration/KlerosCoreNeo.sol:KlerosCoreNeo",
        "label": "disputeKits",
        "offset": 0,
        "slot": "6",
        "type": "t_array(t_contract(IDisputeKit)22979)dyn_storage"
      },
      {
        "astId": 8638,
        "contract": "src/arbitration/KlerosCoreNeo.sol:KlerosCoreNeo",
        "label": "disputes",
        "offset": 0,
        "slot": "7",
        "type": "t_array(t_struct(Dispute)8552_storage)dyn_storage"
      },
      {
        "astId": 8644,
        "contract": "src/arbitration/KlerosCoreNeo.sol:KlerosCoreNeo",
        "label": "currencyRates",
        "offset": 0,
        "slot": "8",
        "type": "t_mapping(t_contract(IERC20)1755,t_struct(CurrencyRate)8601_storage)"
      },
      {
        "astId": 8646,
        "contract": "src/arbitration/KlerosCoreNeo.sol:KlerosCoreNeo",
        "label": "paused",
        "offset": 0,
        "slot": "9",
        "type": "t_bool"
      },
      {
        "astId": 12140,
        "contract": "src/arbitration/KlerosCoreNeo.sol:KlerosCoreNeo",
        "label": "arbitrableWhitelist",
        "offset": 0,
        "slot": "10",
        "type": "t_mapping(t_address,t_bool)"
      },
      {
        "astId": 12143,
        "contract": "src/arbitration/KlerosCoreNeo.sol:KlerosCoreNeo",
        "label": "jurorNft",
        "offset": 0,
        "slot": "11",
        "type": "t_contract(IERC721)2901"
      }
    ],
    "types": {
      "t_address": {
        "encoding": "inplace",
        "label": "address",
        "numberOfBytes": "20"
      },
      "t_array(t_address)dyn_storage": {
        "base": "t_address",
        "encoding": "dynamic_array",
        "label": "address[]",
        "numberOfBytes": "32"
      },
      "t_array(t_contract(IDisputeKit)22979)dyn_storage": {
        "base": "t_contract(IDisputeKit)22979",
        "encoding": "dynamic_array",
        "label": "contract IDisputeKit[]",
        "numberOfBytes": "32"
      },
      "t_array(t_struct(Court)8535_storage)dyn_storage": {
        "base": "t_struct(Court)8535_storage",
        "encoding": "dynamic_array",
        "label": "struct KlerosCoreBase.Court[]",
        "numberOfBytes": "32"
      },
      "t_array(t_struct(Dispute)8552_storage)dyn_storage": {
        "base": "t_struct(Dispute)8552_storage",
        "encoding": "dynamic_array",
        "label": "struct KlerosCoreBase.Dispute[]",
        "numberOfBytes": "32"
      },
      "t_array(t_struct(Round)8577_storage)dyn_storage": {
        "base": "t_struct(Round)8577_storage",
        "encoding": "dynamic_array",
        "label": "struct KlerosCoreBase.Round[]",
        "numberOfBytes": "32"
      },
      "t_array(t_uint256)4_storage": {
        "base": "t_uint256",
        "encoding": "inplace",
        "label": "uint256[4]",
        "numberOfBytes": "128"
      },
      "t_array(t_uint256)dyn_storage": {
        "base": "t_uint256",
        "encoding": "dynamic_array",
        "label": "uint256[]",
        "numberOfBytes": "32"
      },
      "t_bool": {
        "encoding": "inplace",
        "label": "bool",
        "numberOfBytes": "1"
      },
      "t_contract(IArbitrableV2)22728": {
        "encoding": "inplace",
        "label": "contract IArbitrableV2",
        "numberOfBytes": "20"
      },
      "t_contract(IDisputeKit)22979": {
        "encoding": "inplace",
        "label": "contract IDisputeKit",
        "numberOfBytes": "20"
      },
      "t_contract(IERC20)1755": {
        "encoding": "inplace",
        "label": "contract IERC20",
        "numberOfBytes": "20"
      },
      "t_contract(IERC721)2901": {
        "encoding": "inplace",
        "label": "contract IERC721",
        "numberOfBytes": "20"
      },
      "t_contract(ISortitionModule)23142": {
        "encoding": "inplace",
        "label": "contract ISortitionModule",
        "numberOfBytes": "20"
      },
      "t_enum(Period)8509": {
        "encoding": "inplace",
        "label": "enum KlerosCoreBase.Period",
        "numberOfBytes": "1"
      },
      "t_mapping(t_address,t_bool)": {
        "encoding": "mapping",
        "key": "t_address",
        "label": "mapping(address => bool)",
        "numberOfBytes": "32",
        "value": "t_bool"
      },
      "t_mapping(t_contract(IERC20)1755,t_struct(CurrencyRate)8601_storage)": {
        "encoding": "mapping",
        "key": "t_contract(IERC20)1755",
        "label": "mapping(contract IERC20 => struct KlerosCoreBase.CurrencyRate)",
        "numberOfBytes": "32",
        "value": "t_struct(CurrencyRate)8601_storage"
      },
      "t_mapping(t_uint256,t_bool)": {
        "encoding": "mapping",
        "key": "t_uint256",
        "label": "mapping(uint256 => bool)",
        "numberOfBytes": "32",
        "value": "t_bool"
      },
      "t_struct(Court)8535_storage": {
        "encoding": "inplace",
        "label": "struct KlerosCoreBase.Court",
        "members": [
          {
            "astId": 8511,
            "contract": "src/arbitration/KlerosCoreNeo.sol:KlerosCoreNeo",
            "label": "parent",
            "offset": 0,
            "slot": "0",
            "type": "t_uint96"
          },
          {
            "astId": 8513,
            "contract": "src/arbitration/KlerosCoreNeo.sol:KlerosCoreNeo",
            "label": "hiddenVotes",
            "offset": 12,
            "slot": "0",
            "type": "t_bool"
          },
          {
            "astId": 8516,
            "contract": "src/arbitration/KlerosCoreNeo.sol:KlerosCoreNeo",
            "label": "children",
            "offset": 0,
            "slot": "1",
            "type": "t_array(t_uint256)dyn_storage"
          },
          {
            "astId": 8518,
            "contract": "src/arbitration/KlerosCoreNeo.sol:KlerosCoreNeo",
            "label": "minStake",
            "offset": 0,
            "slot": "2",
            "type": "t_uint256"
          },
          {
            "astId": 8520,
            "contract": "src/arbitration/KlerosCoreNeo.sol:KlerosCoreNeo",
            "label": "alpha",
            "offset": 0,
            "slot": "3",
            "type": "t_uint256"
          },
          {
            "astId": 8522,
            "contract": "src/arbitration/KlerosCoreNeo.sol:KlerosCoreNeo",
            "label": "feeForJuror",
            "offset": 0,
            "slot": "4",
            "type": "t_uint256"
          },
          {
            "astId": 8524,
            "contract": "src/arbitration/KlerosCoreNeo.sol:KlerosCoreNeo",
            "label": "jurorsForCourtJump",
            "offset": 0,
            "slot": "5",
            "type": "t_uint256"
          },
          {
            "astId": 8528,
            "contract": "src/arbitration/KlerosCoreNeo.sol:KlerosCoreNeo",
            "label": "timesPerPeriod",
            "offset": 0,
            "slot": "6",
            "type": "t_array(t_uint256)4_storage"
          },
          {
            "astId": 8532,
            "contract": "src/arbitration/KlerosCoreNeo.sol:KlerosCoreNeo",
            "label": "supportedDisputeKits",
            "offset": 0,
            "slot": "10",
            "type": "t_mapping(t_uint256,t_bool)"
          },
          {
            "astId": 8534,
            "contract": "src/arbitration/KlerosCoreNeo.sol:KlerosCoreNeo",
            "label": "disabled",
            "offset": 0,
            "slot": "11",
            "type": "t_bool"
          }
        ],
        "numberOfBytes": "384"
      },
      "t_struct(CurrencyRate)8601_storage": {
        "encoding": "inplace",
        "label": "struct KlerosCoreBase.CurrencyRate",
        "members": [
          {
            "astId": 8596,
            "contract": "src/arbitration/KlerosCoreNeo.sol:KlerosCoreNeo",
            "label": "feePaymentAccepted",
            "offset": 0,
            "slot": "0",
            "type": "t_bool"
          },
          {
            "astId": 8598,
            "contract": "src/arbitration/KlerosCoreNeo.sol:KlerosCoreNeo",
            "label": "rateInEth",
            "offset": 1,
            "slot": "0",
            "type": "t_uint64"
          },
          {
            "astId": 8600,
            "contract": "src/arbitration/KlerosCoreNeo.sol:KlerosCoreNeo",
            "label": "rateDecimals",
            "offset": 9,
            "slot": "0",
            "type": "t_uint8"
          }
        ],
        "numberOfBytes": "32"
      },
      "t_struct(Dispute)8552_storage": {
        "encoding": "inplace",
        "label": "struct KlerosCoreBase.Dispute",
        "members": [
          {
            "astId": 8537,
            "contract": "src/arbitration/KlerosCoreNeo.sol:KlerosCoreNeo",
            "label": "courtID",
            "offset": 0,
            "slot": "0",
            "type": "t_uint96"
          },
          {
            "astId": 8540,
            "contract": "src/arbitration/KlerosCoreNeo.sol:KlerosCoreNeo",
            "label": "arbitrated",
            "offset": 12,
            "slot": "0",
            "type": "t_contract(IArbitrableV2)22728"
          },
          {
            "astId": 8543,
            "contract": "src/arbitration/KlerosCoreNeo.sol:KlerosCoreNeo",
            "label": "period",
            "offset": 0,
            "slot": "1",
            "type": "t_enum(Period)8509"
          },
          {
            "astId": 8545,
            "contract": "src/arbitration/KlerosCoreNeo.sol:KlerosCoreNeo",
            "label": "ruled",
            "offset": 1,
            "slot": "1",
            "type": "t_bool"
          },
          {
            "astId": 8547,
            "contract": "src/arbitration/KlerosCoreNeo.sol:KlerosCoreNeo",
            "label": "lastPeriodChange",
            "offset": 0,
            "slot": "2",
            "type": "t_uint256"
          },
          {
            "astId": 8551,
            "contract": "src/arbitration/KlerosCoreNeo.sol:KlerosCoreNeo",
            "label": "rounds",
            "offset": 0,
            "slot": "3",
            "type": "t_array(t_struct(Round)8577_storage)dyn_storage"
          }
        ],
        "numberOfBytes": "128"
      },
      "t_struct(Round)8577_storage": {
        "encoding": "inplace",
        "label": "struct KlerosCoreBase.Round",
        "members": [
          {
            "astId": 8554,
            "contract": "src/arbitration/KlerosCoreNeo.sol:KlerosCoreNeo",
            "label": "disputeKitID",
            "offset": 0,
            "slot": "0",
            "type": "t_uint256"
          },
          {
            "astId": 8556,
            "contract": "src/arbitration/KlerosCoreNeo.sol:KlerosCoreNeo",
            "label": "pnkAtStakePerJuror",
            "offset": 0,
            "slot": "1",
            "type": "t_uint256"
          },
          {
            "astId": 8558,
            "contract": "src/arbitration/KlerosCoreNeo.sol:KlerosCoreNeo",
            "label": "totalFeesForJurors",
            "offset": 0,
            "slot": "2",
            "type": "t_uint256"
          },
          {
            "astId": 8560,
            "contract": "src/arbitration/KlerosCoreNeo.sol:KlerosCoreNeo",
            "label": "nbVotes",
            "offset": 0,
            "slot": "3",
            "type": "t_uint256"
          },
          {
            "astId": 8562,
            "contract": "src/arbitration/KlerosCoreNeo.sol:KlerosCoreNeo",
            "label": "repartitions",
            "offset": 0,
            "slot": "4",
            "type": "t_uint256"
          },
          {
            "astId": 8564,
            "contract": "src/arbitration/KlerosCoreNeo.sol:KlerosCoreNeo",
            "label": "pnkPenalties",
            "offset": 0,
            "slot": "5",
            "type": "t_uint256"
          },
          {
            "astId": 8567,
            "contract": "src/arbitration/KlerosCoreNeo.sol:KlerosCoreNeo",
            "label": "drawnJurors",
            "offset": 0,
            "slot": "6",
            "type": "t_array(t_address)dyn_storage"
          },
          {
            "astId": 8569,
            "contract": "src/arbitration/KlerosCoreNeo.sol:KlerosCoreNeo",
            "label": "sumFeeRewardPaid",
            "offset": 0,
            "slot": "7",
            "type": "t_uint256"
          },
          {
            "astId": 8571,
            "contract": "src/arbitration/KlerosCoreNeo.sol:KlerosCoreNeo",
            "label": "sumPnkRewardPaid",
            "offset": 0,
            "slot": "8",
            "type": "t_uint256"
          },
          {
            "astId": 8574,
            "contract": "src/arbitration/KlerosCoreNeo.sol:KlerosCoreNeo",
            "label": "feeToken",
            "offset": 0,
            "slot": "9",
            "type": "t_contract(IERC20)1755"
          },
          {
            "astId": 8576,
            "contract": "src/arbitration/KlerosCoreNeo.sol:KlerosCoreNeo",
            "label": "drawIterations",
            "offset": 0,
            "slot": "10",
            "type": "t_uint256"
          }
        ],
        "numberOfBytes": "352"
      },
      "t_uint256": {
        "encoding": "inplace",
        "label": "uint256",
        "numberOfBytes": "32"
      },
      "t_uint64": {
        "encoding": "inplace",
        "label": "uint64",
        "numberOfBytes": "8"
      },
      "t_uint8": {
        "encoding": "inplace",
        "label": "uint8",
        "numberOfBytes": "1"
      },
      "t_uint96": {
        "encoding": "inplace",
        "label": "uint96",
        "numberOfBytes": "12"
      }
    }
  }
}