{
  "address": "0x4DD8B69958eF1D7d5dA9347E9d9F57ADFC3dc284",
  "abi": [
    {
      "inputs": [],
      "stateMutability": "nonpayable",
      "type": "constructor"
    },
    {
      "inputs": [],
      "name": "AlreadyInitialized",
      "type": "error"
    },
    {
      "inputs": [],
      "name": "AppealFeesNotEnough",
      "type": "error"
    },
    {
      "inputs": [],
      "name": "AppealPeriodNotPassed",
      "type": "error"
    },
    {
      "inputs": [],
      "name": "ArbitrableNotWhitelisted",
      "type": "error"
    },
    {
      "inputs": [],
      "name": "ArbitrationFeesNotEnough",
      "type": "error"
    },
    {
      "inputs": [],
      "name": "ArraysLengthMismatch",
      "type": "error"
    },
    {
      "inputs": [],
      "name": "CannotDisableClassicDK",
      "type": "error"
    },
    {
      "inputs": [],
      "name": "CommitPeriodNotPassed",
      "type": "error"
    },
    {
      "inputs": [],
      "name": "DepthLevelMax",
      "type": "error"
    },
    {
      "inputs": [],
      "name": "DisputeKitNotSupportedByCourt",
      "type": "error"
    },
    {
      "inputs": [],
      "name": "DisputeKitOnly",
      "type": "error"
    },
    {
      "inputs": [],
      "name": "DisputeNotAppealable",
      "type": "error"
    },
    {
      "inputs": [],
      "name": "DisputePeriodIsFinal",
      "type": "error"
    },
    {
      "inputs": [],
      "name": "DisputeStillDrawing",
      "type": "error"
    },
    {
      "inputs": [],
      "name": "EvidenceNotPassedAndNotAppeal",
      "type": "error"
    },
    {
      "inputs": [],
      "name": "FailedDelegateCall",
      "type": "error"
    },
    {
      "inputs": [],
      "name": "GovernorOnly",
      "type": "error"
    },
    {
      "inputs": [],
      "name": "GuardianOrGovernorOnly",
      "type": "error"
    },
    {
      "inputs": [],
      "name": "InvalidDisputKitParent",
      "type": "error"
    },
    {
      "inputs": [],
      "name": "InvalidForkingCourtAsParent",
      "type": "error"
    },
    {
      "inputs": [
        {
          "internalType": "address",
          "name": "implementation",
          "type": "address"
        }
      ],
      "name": "InvalidImplementation",
      "type": "error"
    },
    {
      "inputs": [],
      "name": "MinStakeLowerThanParentCourt",
      "type": "error"
    },
    {
      "inputs": [],
      "name": "MustSupportDisputeKitClassic",
      "type": "error"
    },
    {
      "inputs": [],
      "name": "NotEligibleForStaking",
      "type": "error"
    },
    {
      "inputs": [],
      "name": "NotEvidencePeriod",
      "type": "error"
    },
    {
      "inputs": [],
      "name": "NotExecutionPeriod",
      "type": "error"
    },
    {
      "inputs": [],
      "name": "NotInitializing",
      "type": "error"
    },
    {
      "inputs": [],
      "name": "RulingAlreadyExecuted",
      "type": "error"
    },
    {
      "inputs": [],
      "name": "SortitionModuleOnly",
      "type": "error"
    },
    {
      "inputs": [],
      "name": "StakingInTooManyCourts",
      "type": "error"
    },
    {
      "inputs": [],
      "name": "StakingLessThanCourtMinStake",
      "type": "error"
    },
    {
      "inputs": [],
      "name": "StakingMoreThanMaxStakePerJuror",
      "type": "error"
    },
    {
      "inputs": [],
      "name": "StakingMoreThanMaxTotalStaked",
      "type": "error"
    },
    {
      "inputs": [],
      "name": "StakingNotPossibeInThisCourt",
      "type": "error"
    },
    {
      "inputs": [],
      "name": "StakingTransferFailed",
      "type": "error"
    },
    {
      "inputs": [],
      "name": "TokenNotAccepted",
      "type": "error"
    },
    {
      "inputs": [],
      "name": "TransferFailed",
      "type": "error"
    },
    {
      "inputs": [],
      "name": "UUPSUnauthorizedCallContext",
      "type": "error"
    },
    {
      "inputs": [
        {
          "internalType": "bytes32",
          "name": "slot",
          "type": "bytes32"
        }
      ],
      "name": "UUPSUnsupportedProxiableUUID",
      "type": "error"
    },
    {
      "inputs": [],
      "name": "UnstakingTransferFailed",
      "type": "error"
    },
    {
      "inputs": [],
      "name": "UnsuccessfulCall",
      "type": "error"
    },
    {
      "inputs": [],
      "name": "UnsupportedDisputeKit",
      "type": "error"
    },
    {
      "inputs": [],
      "name": "VotePeriodNotPassed",
      "type": "error"
    },
    {
      "inputs": [],
      "name": "WhenNotPausedOnly",
      "type": "error"
    },
    {
      "inputs": [],
      "name": "WhenPausedOnly",
      "type": "error"
    },
    {
      "inputs": [],
      "name": "WrongDisputeKitIndex",
      "type": "error"
    },
    {
      "anonymous": false,
      "inputs": [
        {
          "indexed": true,
          "internalType": "contract IERC20",
          "name": "_token",
          "type": "address"
        },
        {
          "indexed": true,
          "internalType": "bool",
          "name": "_accepted",
          "type": "bool"
        }
      ],
      "name": "AcceptedFeeToken",
      "type": "event"
    },
    {
      "anonymous": false,
      "inputs": [
        {
          "indexed": true,
          "internalType": "uint256",
          "name": "_disputeID",
          "type": "uint256"
        },
        {
          "indexed": true,
          "internalType": "contract IArbitrableV2",
          "name": "_arbitrable",
          "type": "address"
        }
      ],
      "name": "AppealDecision",
      "type": "event"
    },
    {
      "anonymous": false,
      "inputs": [
        {
          "indexed": true,
          "internalType": "uint256",
          "name": "_disputeID",
          "type": "uint256"
        },
        {
          "indexed": true,
          "internalType": "contract IArbitrableV2",
          "name": "_arbitrable",
          "type": "address"
        }
      ],
      "name": "AppealPossible",
      "type": "event"
    },
    {
      "anonymous": false,
      "inputs": [
        {
          "indexed": true,
          "internalType": "uint256",
          "name": "_courtID",
          "type": "uint256"
        },
        {
          "indexed": true,
          "internalType": "uint96",
          "name": "_parent",
          "type": "uint96"
        },
        {
          "indexed": false,
          "internalType": "bool",
          "name": "_hiddenVotes",
          "type": "bool"
        },
        {
          "indexed": false,
          "internalType": "uint256",
          "name": "_minStake",
          "type": "uint256"
        },
        {
          "indexed": false,
          "internalType": "uint256",
          "name": "_alpha",
          "type": "uint256"
        },
        {
          "indexed": false,
          "internalType": "uint256",
          "name": "_feeForJuror",
          "type": "uint256"
        },
        {
          "indexed": false,
          "internalType": "uint256",
          "name": "_jurorsForCourtJump",
          "type": "uint256"
        },
        {
          "indexed": false,
          "internalType": "uint256[4]",
          "name": "_timesPerPeriod",
          "type": "uint256[4]"
        },
        {
          "indexed": false,
          "internalType": "uint256[]",
          "name": "_supportedDisputeKits",
          "type": "uint256[]"
        }
      ],
      "name": "CourtCreated",
      "type": "event"
    },
    {
      "anonymous": false,
      "inputs": [
        {
          "indexed": true,
          "internalType": "uint256",
          "name": "_disputeID",
          "type": "uint256"
        },
        {
          "indexed": true,
          "internalType": "uint256",
          "name": "_roundID",
          "type": "uint256"
        },
        {
          "indexed": true,
          "internalType": "uint96",
          "name": "_fromCourtID",
          "type": "uint96"
        },
        {
          "indexed": false,
          "internalType": "uint96",
          "name": "_toCourtID",
          "type": "uint96"
        }
      ],
      "name": "CourtJump",
      "type": "event"
    },
    {
      "anonymous": false,
      "inputs": [
        {
          "indexed": true,
          "internalType": "uint96",
          "name": "_courtID",
          "type": "uint96"
        },
        {
          "indexed": false,
          "internalType": "bool",
          "name": "_hiddenVotes",
          "type": "bool"
        },
        {
          "indexed": false,
          "internalType": "uint256",
          "name": "_minStake",
          "type": "uint256"
        },
        {
          "indexed": false,
          "internalType": "uint256",
          "name": "_alpha",
          "type": "uint256"
        },
        {
          "indexed": false,
          "internalType": "uint256",
          "name": "_feeForJuror",
          "type": "uint256"
        },
        {
          "indexed": false,
          "internalType": "uint256",
          "name": "_jurorsForCourtJump",
          "type": "uint256"
        },
        {
          "indexed": false,
          "internalType": "uint256[4]",
          "name": "_timesPerPeriod",
          "type": "uint256[4]"
        }
      ],
      "name": "CourtModified",
      "type": "event"
    },
    {
      "anonymous": false,
      "inputs": [
        {
          "indexed": true,
          "internalType": "uint256",
          "name": "_disputeID",
          "type": "uint256"
        },
        {
          "indexed": true,
          "internalType": "contract IArbitrableV2",
          "name": "_arbitrable",
          "type": "address"
        }
      ],
      "name": "DisputeCreation",
      "type": "event"
    },
    {
      "anonymous": false,
      "inputs": [
        {
          "indexed": true,
          "internalType": "uint256",
          "name": "_disputeKitID",
          "type": "uint256"
        },
        {
          "indexed": true,
          "internalType": "contract IDisputeKit",
          "name": "_disputeKitAddress",
          "type": "address"
        }
      ],
      "name": "DisputeKitCreated",
      "type": "event"
    },
    {
      "anonymous": false,
      "inputs": [
        {
          "indexed": true,
          "internalType": "uint96",
          "name": "_courtID",
          "type": "uint96"
        },
        {
          "indexed": true,
          "internalType": "uint256",
          "name": "_disputeKitID",
          "type": "uint256"
        },
        {
          "indexed": true,
          "internalType": "bool",
          "name": "_enable",
          "type": "bool"
        }
      ],
      "name": "DisputeKitEnabled",
      "type": "event"
    },
    {
      "anonymous": false,
      "inputs": [
        {
          "indexed": true,
          "internalType": "uint256",
          "name": "_disputeID",
          "type": "uint256"
        },
        {
          "indexed": true,
          "internalType": "uint256",
          "name": "_roundID",
          "type": "uint256"
        },
        {
          "indexed": true,
          "internalType": "uint256",
          "name": "_fromDisputeKitID",
          "type": "uint256"
        },
        {
          "indexed": false,
          "internalType": "uint256",
          "name": "_toDisputeKitID",
          "type": "uint256"
        }
      ],
      "name": "DisputeKitJump",
      "type": "event"
    },
    {
      "anonymous": false,
      "inputs": [
        {
          "indexed": true,
          "internalType": "address",
          "name": "_address",
          "type": "address"
        },
        {
          "indexed": true,
          "internalType": "uint256",
          "name": "_disputeID",
          "type": "uint256"
        },
        {
          "indexed": false,
          "internalType": "uint256",
          "name": "_roundID",
          "type": "uint256"
        },
        {
          "indexed": false,
          "internalType": "uint256",
          "name": "_voteID",
          "type": "uint256"
        }
      ],
      "name": "Draw",
      "type": "event"
    },
    {
      "anonymous": false,
      "inputs": [
        {
          "indexed": false,
          "internalType": "uint64",
          "name": "version",
          "type": "uint64"
        }
      ],
      "name": "Initialized",
      "type": "event"
    },
    {
      "anonymous": false,
      "inputs": [
        {
          "indexed": true,
          "internalType": "uint256",
          "name": "_disputeID",
          "type": "uint256"
        },
        {
          "indexed": true,
          "internalType": "uint256",
          "name": "_roundID",
          "type": "uint256"
        },
        {
          "indexed": false,
          "internalType": "uint256",
          "name": "_pnkAmount",
          "type": "uint256"
        },
        {
          "indexed": false,
          "internalType": "uint256",
          "name": "_feeAmount",
          "type": "uint256"
        },
        {
          "indexed": false,
          "internalType": "contract IERC20",
          "name": "_feeToken",
          "type": "address"
        }
      ],
      "name": "LeftoverRewardSent",
      "type": "event"
    },
    {
      "anonymous": false,
      "inputs": [
        {
          "indexed": true,
          "internalType": "contract IERC20",
          "name": "_feeToken",
          "type": "address"
        },
        {
          "indexed": false,
          "internalType": "uint64",
          "name": "_rateInEth",
          "type": "uint64"
        },
        {
          "indexed": false,
          "internalType": "uint8",
          "name": "_rateDecimals",
          "type": "uint8"
        }
      ],
      "name": "NewCurrencyRate",
      "type": "event"
    },
    {
      "anonymous": false,
      "inputs": [
        {
          "indexed": true,
          "internalType": "uint256",
          "name": "_disputeID",
          "type": "uint256"
        },
        {
          "indexed": false,
          "internalType": "enum KlerosCoreBase.Period",
          "name": "_period",
          "type": "uint8"
        }
      ],
      "name": "NewPeriod",
      "type": "event"
    },
    {
      "anonymous": false,
      "inputs": [],
      "name": "Paused",
      "type": "event"
    },
    {
      "anonymous": false,
      "inputs": [
        {
          "indexed": true,
          "internalType": "contract IArbitrableV2",
          "name": "_arbitrable",
          "type": "address"
        },
        {
          "indexed": true,
          "internalType": "uint256",
          "name": "_disputeID",
          "type": "uint256"
        },
        {
          "indexed": false,
          "internalType": "uint256",
          "name": "_ruling",
          "type": "uint256"
        }
      ],
      "name": "Ruling",
      "type": "event"
    },
    {
      "anonymous": false,
      "inputs": [
        {
          "indexed": true,
          "internalType": "address",
          "name": "_account",
          "type": "address"
        },
        {
          "indexed": true,
          "internalType": "uint256",
          "name": "_disputeID",
          "type": "uint256"
        },
        {
          "indexed": true,
          "internalType": "uint256",
          "name": "_roundID",
          "type": "uint256"
        },
        {
          "indexed": false,
          "internalType": "uint256",
          "name": "_degreeOfCoherency",
          "type": "uint256"
        },
        {
          "indexed": false,
          "internalType": "int256",
          "name": "_pnkAmount",
          "type": "int256"
        },
        {
          "indexed": false,
          "internalType": "int256",
          "name": "_feeAmount",
          "type": "int256"
        },
        {
          "indexed": false,
          "internalType": "contract IERC20",
          "name": "_feeToken",
          "type": "address"
        }
      ],
      "name": "TokenAndETHShift",
      "type": "event"
    },
    {
      "anonymous": false,
      "inputs": [],
      "name": "Unpaused",
      "type": "event"
    },
    {
      "anonymous": false,
      "inputs": [
        {
          "indexed": true,
          "internalType": "address",
          "name": "newImplementation",
          "type": "address"
        }
      ],
      "name": "Upgraded",
      "type": "event"
    },
    {
      "inputs": [
        {
          "internalType": "contract IDisputeKit",
          "name": "_disputeKitAddress",
          "type": "address"
        }
      ],
      "name": "addNewDisputeKit",
      "outputs": [],
      "stateMutability": "nonpayable",
      "type": "function"
    },
    {
      "inputs": [
        {
          "internalType": "uint256",
          "name": "_disputeID",
          "type": "uint256"
        },
        {
          "internalType": "uint256",
          "name": "_numberOfChoices",
          "type": "uint256"
        },
        {
          "internalType": "bytes",
          "name": "_extraData",
          "type": "bytes"
        }
      ],
      "name": "appeal",
      "outputs": [],
      "stateMutability": "payable",
      "type": "function"
    },
    {
      "inputs": [
        {
          "internalType": "uint256",
          "name": "_disputeID",
          "type": "uint256"
        }
      ],
      "name": "appealCost",
      "outputs": [
        {
          "internalType": "uint256",
          "name": "cost",
          "type": "uint256"
        }
      ],
      "stateMutability": "view",
      "type": "function"
    },
    {
      "inputs": [
        {
          "internalType": "uint256",
          "name": "_disputeID",
          "type": "uint256"
        }
      ],
      "name": "appealPeriod",
      "outputs": [
        {
          "internalType": "uint256",
          "name": "start",
          "type": "uint256"
        },
        {
          "internalType": "uint256",
          "name": "end",
          "type": "uint256"
        }
      ],
      "stateMutability": "view",
      "type": "function"
    },
    {
      "inputs": [
        {
          "internalType": "address",
          "name": "",
          "type": "address"
        }
      ],
      "name": "arbitrableWhitelist",
      "outputs": [
        {
          "internalType": "bool",
          "name": "",
          "type": "bool"
        }
      ],
      "stateMutability": "view",
      "type": "function"
    },
    {
      "inputs": [
        {
          "internalType": "bytes",
          "name": "_extraData",
          "type": "bytes"
        },
        {
          "internalType": "contract IERC20",
          "name": "_feeToken",
          "type": "address"
        }
      ],
      "name": "arbitrationCost",
      "outputs": [
        {
          "internalType": "uint256",
          "name": "cost",
          "type": "uint256"
        }
      ],
      "stateMutability": "view",
      "type": "function"
    },
    {
      "inputs": [
        {
          "internalType": "bytes",
          "name": "_extraData",
          "type": "bytes"
        }
      ],
      "name": "arbitrationCost",
      "outputs": [
        {
          "internalType": "uint256",
          "name": "cost",
          "type": "uint256"
        }
      ],
      "stateMutability": "view",
      "type": "function"
    },
    {
      "inputs": [
        {
          "internalType": "contract IERC20",
          "name": "_feeToken",
          "type": "address"
        },
        {
          "internalType": "bool",
          "name": "_accepted",
          "type": "bool"
        }
      ],
      "name": "changeAcceptedFeeTokens",
      "outputs": [],
      "stateMutability": "nonpayable",
      "type": "function"
    },
    {
      "inputs": [
        {
          "internalType": "address",
          "name": "_arbitrable",
          "type": "address"
        },
        {
          "internalType": "bool",
          "name": "_allowed",
          "type": "bool"
        }
      ],
      "name": "changeArbitrableWhitelist",
      "outputs": [],
      "stateMutability": "nonpayable",
      "type": "function"
    },
    {
      "inputs": [
        {
          "internalType": "uint96",
          "name": "_courtID",
          "type": "uint96"
        },
        {
          "internalType": "bool",
          "name": "_hiddenVotes",
          "type": "bool"
        },
        {
          "internalType": "uint256",
          "name": "_minStake",
          "type": "uint256"
        },
        {
          "internalType": "uint256",
          "name": "_alpha",
          "type": "uint256"
        },
        {
          "internalType": "uint256",
          "name": "_feeForJuror",
          "type": "uint256"
        },
        {
          "internalType": "uint256",
          "name": "_jurorsForCourtJump",
          "type": "uint256"
        },
        {
          "internalType": "uint256[4]",
          "name": "_timesPerPeriod",
          "type": "uint256[4]"
        }
      ],
      "name": "changeCourtParameters",
      "outputs": [],
      "stateMutability": "nonpayable",
      "type": "function"
    },
    {
      "inputs": [
        {
          "internalType": "contract IERC20",
          "name": "_feeToken",
          "type": "address"
        },
        {
          "internalType": "uint64",
          "name": "_rateInEth",
          "type": "uint64"
        },
        {
          "internalType": "uint8",
          "name": "_rateDecimals",
          "type": "uint8"
        }
      ],
      "name": "changeCurrencyRates",
      "outputs": [],
      "stateMutability": "nonpayable",
      "type": "function"
    },
    {
      "inputs": [
        {
          "internalType": "address payable",
          "name": "_governor",
          "type": "address"
        }
      ],
      "name": "changeGovernor",
      "outputs": [],
      "stateMutability": "nonpayable",
      "type": "function"
    },
    {
      "inputs": [
        {
          "internalType": "address",
          "name": "_guardian",
          "type": "address"
        }
      ],
      "name": "changeGuardian",
      "outputs": [],
      "stateMutability": "nonpayable",
      "type": "function"
    },
    {
      "inputs": [
        {
          "internalType": "contract IERC721",
          "name": "_jurorNft",
          "type": "address"
        }
      ],
      "name": "changeJurorNft",
      "outputs": [],
      "stateMutability": "nonpayable",
      "type": "function"
    },
    {
      "inputs": [
        {
          "internalType": "address",
          "name": "_jurorProsecutionModule",
          "type": "address"
        }
      ],
      "name": "changeJurorProsecutionModule",
      "outputs": [],
      "stateMutability": "nonpayable",
      "type": "function"
    },
    {
      "inputs": [
        {
          "internalType": "contract IERC20",
          "name": "_pinakion",
          "type": "address"
        }
      ],
      "name": "changePinakion",
      "outputs": [],
      "stateMutability": "nonpayable",
      "type": "function"
    },
    {
      "inputs": [
        {
          "internalType": "contract ISortitionModule",
          "name": "_sortitionModule",
          "type": "address"
        }
      ],
      "name": "changeSortitionModule",
      "outputs": [],
      "stateMutability": "nonpayable",
      "type": "function"
    },
    {
      "inputs": [
        {
          "internalType": "contract IERC20",
          "name": "_toToken",
          "type": "address"
        },
        {
          "internalType": "uint256",
          "name": "_amountInEth",
          "type": "uint256"
        }
      ],
      "name": "convertEthToTokenAmount",
      "outputs": [
        {
          "internalType": "uint256",
          "name": "",
          "type": "uint256"
        }
      ],
      "stateMutability": "view",
      "type": "function"
    },
    {
      "inputs": [
        {
          "internalType": "uint256",
          "name": "",
          "type": "uint256"
        }
      ],
      "name": "courts",
      "outputs": [
        {
          "internalType": "uint96",
          "name": "parent",
          "type": "uint96"
        },
        {
          "internalType": "bool",
          "name": "hiddenVotes",
          "type": "bool"
        },
        {
          "internalType": "uint256",
          "name": "minStake",
          "type": "uint256"
        },
        {
          "internalType": "uint256",
          "name": "alpha",
          "type": "uint256"
        },
        {
          "internalType": "uint256",
          "name": "feeForJuror",
          "type": "uint256"
        },
        {
          "internalType": "uint256",
          "name": "jurorsForCourtJump",
          "type": "uint256"
        },
        {
          "internalType": "bool",
          "name": "disabled",
          "type": "bool"
        }
      ],
      "stateMutability": "view",
      "type": "function"
    },
    {
      "inputs": [
        {
          "internalType": "uint96",
          "name": "_parent",
          "type": "uint96"
        },
        {
          "internalType": "bool",
          "name": "_hiddenVotes",
          "type": "bool"
        },
        {
          "internalType": "uint256",
          "name": "_minStake",
          "type": "uint256"
        },
        {
          "internalType": "uint256",
          "name": "_alpha",
          "type": "uint256"
        },
        {
          "internalType": "uint256",
          "name": "_feeForJuror",
          "type": "uint256"
        },
        {
          "internalType": "uint256",
          "name": "_jurorsForCourtJump",
          "type": "uint256"
        },
        {
          "internalType": "uint256[4]",
          "name": "_timesPerPeriod",
          "type": "uint256[4]"
        },
        {
          "internalType": "bytes",
          "name": "_sortitionExtraData",
          "type": "bytes"
        },
        {
          "internalType": "uint256[]",
          "name": "_supportedDisputeKits",
          "type": "uint256[]"
        }
      ],
      "name": "createCourt",
      "outputs": [],
      "stateMutability": "nonpayable",
      "type": "function"
    },
    {
      "inputs": [
        {
          "internalType": "uint256",
          "name": "_numberOfChoices",
          "type": "uint256"
        },
        {
          "internalType": "bytes",
          "name": "_extraData",
          "type": "bytes"
        }
      ],
      "name": "createDispute",
      "outputs": [
        {
          "internalType": "uint256",
          "name": "disputeID",
          "type": "uint256"
        }
      ],
      "stateMutability": "payable",
      "type": "function"
    },
    {
      "inputs": [
        {
          "internalType": "uint256",
          "name": "_numberOfChoices",
          "type": "uint256"
        },
        {
          "internalType": "bytes",
          "name": "_extraData",
          "type": "bytes"
        },
        {
          "internalType": "contract IERC20",
          "name": "_feeToken",
          "type": "address"
        },
        {
          "internalType": "uint256",
          "name": "_feeAmount",
          "type": "uint256"
        }
      ],
      "name": "createDispute",
      "outputs": [
        {
          "internalType": "uint256",
          "name": "disputeID",
          "type": "uint256"
        }
      ],
      "stateMutability": "nonpayable",
      "type": "function"
    },
    {
      "inputs": [
        {
          "internalType": "contract IERC20",
          "name": "",
          "type": "address"
        }
      ],
      "name": "currencyRates",
      "outputs": [
        {
          "internalType": "bool",
          "name": "feePaymentAccepted",
          "type": "bool"
        },
        {
          "internalType": "uint64",
          "name": "rateInEth",
          "type": "uint64"
        },
        {
          "internalType": "uint8",
          "name": "rateDecimals",
          "type": "uint8"
        }
      ],
      "stateMutability": "view",
      "type": "function"
    },
    {
      "inputs": [
        {
          "internalType": "uint256",
          "name": "_disputeID",
          "type": "uint256"
        }
      ],
      "name": "currentRuling",
      "outputs": [
        {
          "internalType": "uint256",
          "name": "ruling",
          "type": "uint256"
        },
        {
          "internalType": "bool",
          "name": "tied",
          "type": "bool"
        },
        {
          "internalType": "bool",
          "name": "overridden",
          "type": "bool"
        }
      ],
      "stateMutability": "view",
      "type": "function"
    },
    {
      "inputs": [
        {
          "internalType": "uint256",
          "name": "",
          "type": "uint256"
        }
      ],
      "name": "disputeKits",
      "outputs": [
        {
          "internalType": "contract IDisputeKit",
          "name": "",
          "type": "address"
        }
      ],
      "stateMutability": "view",
      "type": "function"
    },
    {
      "inputs": [
        {
          "internalType": "uint256",
          "name": "",
          "type": "uint256"
        }
      ],
      "name": "disputes",
      "outputs": [
        {
          "internalType": "uint96",
          "name": "courtID",
          "type": "uint96"
        },
        {
          "internalType": "contract IArbitrableV2",
          "name": "arbitrated",
          "type": "address"
        },
        {
          "internalType": "enum KlerosCoreBase.Period",
          "name": "period",
          "type": "uint8"
        },
        {
          "internalType": "bool",
          "name": "ruled",
          "type": "bool"
        },
        {
          "internalType": "uint256",
          "name": "lastPeriodChange",
          "type": "uint256"
        }
      ],
      "stateMutability": "view",
      "type": "function"
    },
    {
      "inputs": [
        {
          "internalType": "uint256",
          "name": "_disputeID",
          "type": "uint256"
        },
        {
          "internalType": "uint256",
          "name": "_iterations",
          "type": "uint256"
        }
      ],
      "name": "draw",
      "outputs": [],
      "stateMutability": "nonpayable",
      "type": "function"
    },
    {
      "inputs": [
        {
          "internalType": "uint96",
          "name": "_courtID",
          "type": "uint96"
        },
        {
          "internalType": "uint256[]",
          "name": "_disputeKitIDs",
          "type": "uint256[]"
        },
        {
          "internalType": "bool",
          "name": "_enable",
          "type": "bool"
        }
      ],
      "name": "enableDisputeKits",
      "outputs": [],
      "stateMutability": "nonpayable",
      "type": "function"
    },
    {
      "inputs": [
        {
          "internalType": "uint256",
          "name": "_disputeID",
          "type": "uint256"
        },
        {
          "internalType": "uint256",
          "name": "_round",
          "type": "uint256"
        },
        {
          "internalType": "uint256",
          "name": "_iterations",
          "type": "uint256"
        }
      ],
      "name": "execute",
      "outputs": [],
      "stateMutability": "nonpayable",
      "type": "function"
    },
    {
      "inputs": [
        {
          "internalType": "address",
          "name": "_destination",
          "type": "address"
        },
        {
          "internalType": "uint256",
          "name": "_amount",
          "type": "uint256"
        },
        {
          "internalType": "bytes",
          "name": "_data",
          "type": "bytes"
        }
      ],
      "name": "executeGovernorProposal",
      "outputs": [],
      "stateMutability": "nonpayable",
      "type": "function"
    },
    {
      "inputs": [
        {
          "internalType": "uint256",
          "name": "_disputeID",
          "type": "uint256"
        }
      ],
      "name": "executeRuling",
      "outputs": [],
      "stateMutability": "nonpayable",
      "type": "function"
    },
    {
      "inputs": [],
      "name": "getDisputeKitsLength",
      "outputs": [
        {
          "internalType": "uint256",
          "name": "",
          "type": "uint256"
        }
      ],
      "stateMutability": "view",
      "type": "function"
    },
    {
      "inputs": [
        {
          "internalType": "uint256",
          "name": "_disputeID",
          "type": "uint256"
        }
      ],
      "name": "getNumberOfRounds",
      "outputs": [
        {
          "internalType": "uint256",
          "name": "",
          "type": "uint256"
        }
      ],
      "stateMutability": "view",
      "type": "function"
    },
    {
      "inputs": [
        {
          "internalType": "uint256",
          "name": "_disputeID",
          "type": "uint256"
        }
      ],
      "name": "getNumberOfVotes",
      "outputs": [
        {
          "internalType": "uint256",
          "name": "",
          "type": "uint256"
        }
      ],
      "stateMutability": "view",
      "type": "function"
    },
    {
      "inputs": [
        {
          "internalType": "uint256",
          "name": "_disputeID",
          "type": "uint256"
        },
        {
          "internalType": "uint256",
          "name": "_round",
          "type": "uint256"
        }
      ],
      "name": "getRoundInfo",
      "outputs": [
        {
          "components": [
            {
              "internalType": "uint256",
              "name": "disputeKitID",
              "type": "uint256"
            },
            {
              "internalType": "uint256",
              "name": "pnkAtStakePerJuror",
              "type": "uint256"
            },
            {
              "internalType": "uint256",
              "name": "totalFeesForJurors",
              "type": "uint256"
            },
            {
              "internalType": "uint256",
              "name": "nbVotes",
              "type": "uint256"
            },
            {
              "internalType": "uint256",
              "name": "repartitions",
              "type": "uint256"
            },
            {
              "internalType": "uint256",
              "name": "pnkPenalties",
              "type": "uint256"
            },
            {
              "internalType": "address[]",
              "name": "drawnJurors",
              "type": "address[]"
            },
            {
              "internalType": "uint256",
              "name": "sumFeeRewardPaid",
              "type": "uint256"
            },
            {
              "internalType": "uint256",
              "name": "sumPnkRewardPaid",
              "type": "uint256"
            },
            {
              "internalType": "contract IERC20",
              "name": "feeToken",
              "type": "address"
            },
            {
              "internalType": "uint256",
              "name": "drawIterations",
              "type": "uint256"
            }
          ],
          "internalType": "struct KlerosCoreBase.Round",
          "name": "",
          "type": "tuple"
        }
      ],
      "stateMutability": "view",
      "type": "function"
    },
    {
      "inputs": [
        {
          "internalType": "uint96",
          "name": "_courtID",
          "type": "uint96"
        }
      ],
      "name": "getTimesPerPeriod",
      "outputs": [
        {
          "internalType": "uint256[4]",
          "name": "timesPerPeriod",
          "type": "uint256[4]"
        }
      ],
      "stateMutability": "view",
      "type": "function"
    },
    {
      "inputs": [],
      "name": "governor",
      "outputs": [
        {
          "internalType": "address",
          "name": "",
          "type": "address"
        }
      ],
      "stateMutability": "view",
      "type": "function"
    },
    {
      "inputs": [],
      "name": "guardian",
      "outputs": [
        {
          "internalType": "address",
          "name": "",
          "type": "address"
        }
      ],
      "stateMutability": "view",
      "type": "function"
    },
    {
      "inputs": [
        {
          "internalType": "address",
          "name": "_governor",
          "type": "address"
        },
        {
          "internalType": "address",
          "name": "_guardian",
          "type": "address"
        },
        {
          "internalType": "contract IERC20",
          "name": "_pinakion",
          "type": "address"
        },
        {
          "internalType": "address",
          "name": "_jurorProsecutionModule",
          "type": "address"
        },
        {
          "internalType": "contract IDisputeKit",
          "name": "_disputeKit",
          "type": "address"
        },
        {
          "internalType": "bool",
          "name": "_hiddenVotes",
          "type": "bool"
        },
        {
          "internalType": "uint256[4]",
          "name": "_courtParameters",
          "type": "uint256[4]"
        },
        {
          "internalType": "uint256[4]",
          "name": "_timesPerPeriod",
          "type": "uint256[4]"
        },
        {
          "internalType": "bytes",
          "name": "_sortitionExtraData",
          "type": "bytes"
        },
        {
          "internalType": "contract ISortitionModule",
          "name": "_sortitionModuleAddress",
          "type": "address"
        },
        {
          "internalType": "contract IERC721",
          "name": "_jurorNft",
          "type": "address"
        }
      ],
      "name": "initialize",
      "outputs": [],
      "stateMutability": "nonpayable",
      "type": "function"
    },
    {
      "inputs": [
        {
          "internalType": "uint256",
          "name": "_disputeID",
          "type": "uint256"
        }
      ],
      "name": "isDisputeKitJumping",
      "outputs": [
        {
          "internalType": "bool",
          "name": "",
          "type": "bool"
        }
      ],
      "stateMutability": "view",
      "type": "function"
    },
    {
      "inputs": [
        {
          "internalType": "uint96",
          "name": "_courtID",
          "type": "uint96"
        },
        {
          "internalType": "uint256",
          "name": "_disputeKitID",
          "type": "uint256"
        }
      ],
      "name": "isSupported",
      "outputs": [
        {
          "internalType": "bool",
          "name": "",
          "type": "bool"
        }
      ],
      "stateMutability": "view",
      "type": "function"
    },
    {
      "inputs": [],
      "name": "jurorNft",
      "outputs": [
        {
          "internalType": "contract IERC721",
          "name": "",
          "type": "address"
        }
      ],
      "stateMutability": "view",
      "type": "function"
    },
    {
      "inputs": [],
      "name": "jurorProsecutionModule",
      "outputs": [
        {
          "internalType": "address",
          "name": "",
          "type": "address"
        }
      ],
      "stateMutability": "view",
      "type": "function"
    },
    {
      "inputs": [
        {
          "internalType": "uint256",
          "name": "_disputeID",
          "type": "uint256"
        }
      ],
      "name": "passPeriod",
      "outputs": [],
      "stateMutability": "nonpayable",
      "type": "function"
    },
    {
      "inputs": [],
      "name": "pause",
      "outputs": [],
      "stateMutability": "nonpayable",
      "type": "function"
    },
    {
      "inputs": [],
      "name": "paused",
      "outputs": [
        {
          "internalType": "bool",
          "name": "",
          "type": "bool"
        }
      ],
      "stateMutability": "view",
      "type": "function"
    },
    {
      "inputs": [],
      "name": "pinakion",
      "outputs": [
        {
          "internalType": "contract IERC20",
          "name": "",
          "type": "address"
        }
      ],
      "stateMutability": "view",
      "type": "function"
    },
    {
      "inputs": [],
      "name": "proxiableUUID",
      "outputs": [
        {
          "internalType": "bytes32",
          "name": "",
          "type": "bytes32"
        }
      ],
      "stateMutability": "view",
      "type": "function"
    },
    {
      "inputs": [
        {
          "internalType": "uint96",
          "name": "_courtID",
          "type": "uint96"
        },
        {
          "internalType": "uint256",
          "name": "_newStake",
          "type": "uint256"
        }
      ],
      "name": "setStake",
      "outputs": [],
      "stateMutability": "nonpayable",
      "type": "function"
    },
    {
      "inputs": [
        {
          "internalType": "address",
          "name": "_account",
          "type": "address"
        },
        {
          "internalType": "uint96",
          "name": "_courtID",
          "type": "uint96"
        },
        {
          "internalType": "uint256",
          "name": "_newStake",
          "type": "uint256"
        },
        {
          "internalType": "bool",
          "name": "_alreadyTransferred",
          "type": "bool"
        }
      ],
      "name": "setStakeBySortitionModule",
      "outputs": [],
      "stateMutability": "nonpayable",
      "type": "function"
    },
    {
      "inputs": [],
      "name": "sortitionModule",
      "outputs": [
        {
          "internalType": "contract ISortitionModule",
          "name": "",
          "type": "address"
        }
      ],
      "stateMutability": "view",
      "type": "function"
    },
    {
      "inputs": [],
      "name": "unpause",
      "outputs": [],
      "stateMutability": "nonpayable",
      "type": "function"
    },
    {
      "inputs": [
        {
          "internalType": "address",
          "name": "newImplementation",
          "type": "address"
        },
        {
          "internalType": "bytes",
          "name": "data",
          "type": "bytes"
        }
      ],
      "name": "upgradeToAndCall",
      "outputs": [],
      "stateMutability": "payable",
      "type": "function"
    }
  ],
  "transactionHash": "0x15041bed9edfbecc26711e8c3b8ba9aeacca656a2dd114c347b4a1a3fdfc8ab8",
  "args": [],
  "numDeployments": 1,
  "solcInputHash": "47a03c54c72f5d4984b62ca6f84025dc",
  "bytecode": "0x60a0604052306080523480156200001557600080fd5b506200002062000026565b620000d9565b7ff0c57e16840df040f15088dc2f81fe391c3923bec73e23a9662efc9c229c6a0e805468010000000000000000900460ff1615620000765760405162dc149f60e41b815260040160405180910390fd5b80546001600160401b0390811614620000d65780546001600160401b0319166001600160401b0390811782556040519081527fc7f505b2f371ae2175ee4913f4499e1f2633a7b5936321eed1cdaeb6115181d29060200160405180910390a15b50565b608051615ba462000103600039600081816119040152818161192d0152611b240152615ba46000f3fe6080604052600436106102c95760003560e01c806382d022371161017b578063c71f4253116100d7578063f6506db411610085578063f6506db414610968578063f7434ea914610988578063fbb519e7146109a8578063fbf405b0146109c8578063fc6f8f16146109e8578063fe4037e614610a08578063fe524c3914610a2857600080fd5b8063c71f425314610893578063cf0c38f8146108b3578063d07368bd146108d3578063d2b8035a146108f3578063d4d1d76a14610913578063d98493f614610928578063e4c0aaf41461094857600080fd5b8063acdbf51d11610134578063acdbf51d146107a8578063afe15cfb146107c8578063b0049637146107fd578063b44d573c1461081d578063c13517e11461084d578063c258bb1914610860578063c35699021461088057600080fd5b806382d02237146106e65780638456cb591461070657806386541b241461071b5780638a9bb02a1461073b5780638bb0487514610768578063a072b86c1461078857600080fd5b80632e2e936a1161022a57806352d1902d116101e357806352d1902d14610606578063564a565d1461061b57806359ec827e1461064c5780635c975abb1461066c578063751accd0146106865780637717a6e8146106a65780637934c0be146106c657600080fd5b80632e2e936a146105515780632fcb4f04146105715780633cfd1184146105915780633f4ba83a146105be578063452a9320146105d35780634f1ef286146105f357600080fd5b806319b815291161028757806319b81529146104035780631c3db16d146104335780631d7e6892146104705780631f5a0dd2146104905780632c053739146104f15780632d29a47b146105115780632e1daf2f1461053157600080fd5b8062f5822c146102ce5780630219da79146102f05780630b7414bc146103685780630c340a2414610388578063115d5376146103b55780631860592b146103d5575b600080fd5b3480156102da57600080fd5b506102ee6102e9366004614d05565b610a48565b005b3480156102fc57600080fd5b5061033b61030b366004614d05565b60086020526000908152604090205460ff808216916001600160401b0361010082041691600160481b9091041683565b6040805193151584526001600160401b03909216602084015260ff16908201526060015b60405180910390f35b34801561037457600080fd5b506102ee610383366004614e13565b610a95565b34801561039457600080fd5b506000546103a8906001600160a01b031681565b60405161035f9190614e74565b3480156103c157600080fd5b506102ee6103d0366004614e88565b610bd6565b3480156103e157600080fd5b506103f56103f0366004614ea1565b61110d565b60405190815260200161035f565b34801561040f57600080fd5b5061042361041e366004614e88565b611167565b604051901515815260200161035f565b34801561043f57600080fd5b5061045361044e366004614e88565b611260565b60408051938452911515602084015215159082015260600161035f565b34801561047c57600080fd5b506102ee61048b366004614ecd565b611361565b34801561049c57600080fd5b506104b06104ab366004614e88565b6113b7565b604080516001600160601b0390981688529515156020880152948601939093526060850191909152608084015260a0830152151560c082015260e00161035f565b3480156104fd57600080fd5b506102ee61050c366004614fe2565b611416565b34801561051d57600080fd5b506102ee61052c3660046150cf565b611520565b34801561053d57600080fd5b506004546103a8906001600160a01b031681565b34801561055d57600080fd5b50600b546103a8906001600160a01b031681565b34801561057d57600080fd5b506102ee61058c366004614d05565b6117b6565b34801561059d57600080fd5b506105b16105ac3660046150fb565b611803565b60405161035f9190615139565b3480156105ca57600080fd5b506102ee61186d565b3480156105df57600080fd5b506001546103a8906001600160a01b031681565b6102ee610601366004615147565b6118f0565b34801561061257600080fd5b506103f5611b17565b34801561062757600080fd5b5061063b610636366004614e88565b611b75565b60405161035f9594939291906151ce565b34801561065857600080fd5b506103f5610667366004614e88565b611bd1565b34801561067857600080fd5b506009546104239060ff1681565b34801561069257600080fd5b506102ee6106a136600461520d565b611d26565b3480156106b257600080fd5b506102ee6106c1366004615265565b611dd0565b3480156106d257600080fd5b506102ee6106e1366004614ecd565b611e93565b3480156106f257600080fd5b506102ee610701366004615281565b611f12565b34801561071257600080fd5b506102ee611fcf565b34801561072757600080fd5b506102ee6107363660046152d3565b61206f565b34801561074757600080fd5b5061075b610756366004615341565b612256565b60405161035f91906153a7565b34801561077457600080fd5b506102ee610783366004614e88565b6123e2565b34801561079457600080fd5b506102ee6107a336600461544c565b612546565b3480156107b457600080fd5b506103a86107c3366004614e88565b6128b7565b3480156107d457600080fd5b506107e86107e3366004614e88565b6128e1565b6040805192835260208301919091520161035f565b34801561080957600080fd5b506102ee610818366004614d05565b61298d565b34801561082957600080fd5b50610423610838366004614d05565b600a6020526000908152604090205460ff1681565b6103f561085b36600461550c565b6129da565b34801561086c57600080fd5b506102ee61087b366004614d05565b612a12565b6102ee61088e36600461553c565b612a5f565b34801561089f57600080fd5b506103f56108ae366004614e88565b612f33565b3480156108bf57600080fd5b506003546103a8906001600160a01b031681565b3480156108df57600080fd5b506102ee6108ee366004614d05565b612f9b565b3480156108ff57600080fd5b506102ee61090e366004615341565b613044565b34801561091f57600080fd5b506006546103f5565b34801561093457600080fd5b506103f56109433660046155bd565b613359565b34801561095457600080fd5b506102ee610963366004614d05565b6133a6565b34801561097457600080fd5b506103f5610983366004615608565b6133f3565b34801561099457600080fd5b506103f56109a336600461566e565b6134d9565b3480156109b457600080fd5b506102ee6109c33660046156a2565b613525565b3480156109d457600080fd5b506002546103a8906001600160a01b031681565b3480156109f457600080fd5b506103f5610a03366004614e88565b613565565b348015610a1457600080fd5b506102ee610a23366004614d05565b613594565b348015610a3457600080fd5b50610423610a43366004615265565b6135e1565b6000546001600160a01b03163314610a735760405163c383977560e01b815260040160405180910390fd5b600280546001600160a01b0319166001600160a01b0392909216919091179055565b6000546001600160a01b03163314610ac05760405163c383977560e01b815260040160405180910390fd5b60005b8251811015610bd0578115610b5f57828181518110610ae457610ae46156f3565b602002602001015160001480610b1757506006548351849083908110610b0c57610b0c6156f3565b602002602001015110155b15610b3557604051633d58a98960e11b815260040160405180910390fd5b610b5a84848381518110610b4b57610b4b6156f3565b60200260200101516001613629565b610bbe565b6001838281518110610b7357610b736156f3565b602002602001015103610b99576040516356d111fd60e11b815260040160405180910390fd5b610bbe84848381518110610baf57610baf6156f3565b60200260200101516000613629565b80610bc88161571f565b915050610ac3565b50505050565b600060078281548110610beb57610beb6156f3565b600091825260208220600490910201805460058054929450916001600160601b03909116908110610c1e57610c1e6156f3565b6000918252602082206003850154600c909202019250610c4090600190615738565b90506000836003018281548110610c5957610c596156f3565b600091825260208220600b909102019150600185015460ff166004811115610c8357610c83615196565b03610d5e5781158015610cd257506001840154600684019060ff166004811115610caf57610caf615196565b60048110610cbf57610cbf6156f3565b01546002850154610cd09042615738565b105b15610cf057604051633e9727df60e01b815260040160405180910390fd5b6003810154600682015414610d18576040516309e4486b60e41b815260040160405180910390fd5b8254600160601b900460ff16610d2f576002610d32565b60015b60018086018054909160ff1990911690836004811115610d5457610d54615196565b02179055506110bf565b60018085015460ff166004811115610d7857610d78615196565b03610e88576001840154600684019060ff166004811115610d9b57610d9b615196565b60048110610dab57610dab6156f3565b01546002850154610dbc9042615738565b108015610e5357506006816000015481548110610ddb57610ddb6156f3565b600091825260209091200154604051630baa64d160e01b8152600481018790526001600160a01b0390911690630baa64d190602401602060405180830381865afa158015610e2d573d6000803e3d6000fd5b505050506040513d601f19601f82011682018060405250810190610e51919061574b565b155b15610e7157604051634dfa578560e11b815260040160405180910390fd5b6001808501805460029260ff199091169083610d54565b6002600185015460ff166004811115610ea357610ea3615196565b03610ff1576001840154600684019060ff166004811115610ec657610ec6615196565b60048110610ed657610ed66156f3565b01546002850154610ee79042615738565b108015610f7e57506006816000015481548110610f0657610f066156f3565b6000918252602090912001546040516336a66c7560e11b8152600481018790526001600160a01b0390911690636d4cd8ea90602401602060405180830381865afa158015610f58573d6000803e3d6000fd5b505050506040513d601f19601f82011682018060405250810190610f7c919061574b565b155b15610f9c57604051631988dead60e31b815260040160405180910390fd5b600184018054600360ff199091161790558354604051600160601b9091046001600160a01b03169086907fa5d41b970d849372be1da1481ffd78d162bfe57a7aa2fe4e5fb73481fa5ac24f90600090a36110bf565b6003600185015460ff16600481111561100c5761100c615196565b03611086576001840154600684019060ff16600481111561102f5761102f615196565b6004811061103f5761103f6156f3565b015460028501546110509042615738565b101561106f57604051632f4dfd8760e01b815260040160405180910390fd5b6001808501805460049260ff199091169083610d54565b6004600185015460ff1660048111156110a1576110a1615196565b036110bf576040516307f38c8f60e11b815260040160405180910390fd5b426002850155600184015460405186917f4e6f5cf43b95303e86aee81683df63992061723a829ee012db21dad388756b91916110fe9160ff1690615768565b60405180910390a25050505050565b6001600160a01b03821660009081526008602052604081205461010081046001600160401b03169061114a90600160481b900460ff16600a61585a565b6111549084615869565b61115e9190615896565b90505b92915050565b6000806007838154811061117d5761117d6156f3565b60009182526020822060036004909202019081018054919350906111a390600190615738565b815481106111b3576111b36156f3565b600091825260208220845460058054600b909402909201945090916001600160601b039091169081106111e8576111e86156f3565b90600052602060002090600c0201905080600501548260030154101561121357506000949350505050565b80546005805490916001600160601b0316908110611233576112336156f3565b6000918252602080832094548352600a600c9092029094010190925250604090205460ff16159392505050565b60008060008060078581548110611279576112796156f3565b600091825260208220600360049092020190810180549193509061129f90600190615738565b815481106112af576112af6156f3565b90600052602060002090600b02019050600060068260000154815481106112d8576112d86156f3565b600091825260209091200154604051631c3db16d60e01b8152600481018990526001600160a01b0390911691508190631c3db16d90602401606060405180830381865afa15801561132d573d6000803e3d6000fd5b505050506040513d601f19601f8201168201806040525081019061135191906158aa565b9199909850909650945050505050565b6000546001600160a01b0316331461138c5760405163c383977560e01b815260040160405180910390fd5b6001600160a01b03919091166000908152600a60205260409020805460ff1916911515919091179055565b600581815481106113c757600080fd5b60009182526020909120600c9091020180546002820154600383015460048401546005850154600b909501546001600160601b038516965060ff600160601b9095048516959394929391921687565b7ff0c57e16840df040f15088dc2f81fe391c3923bec73e23a9662efc9c229c6a0e805460029190600160401b900460ff168061145f575080546001600160401b03808416911610155b1561147c5760405162dc149f60e41b815260040160405180910390fd5b805468ffffffffffffffffff19166001600160401b03831617600160401b1781556114af8d8d8d8d8d8d8d8d8d8d6136b1565b600b80546001600160a01b0319166001600160a01b038516179055805460ff60401b191681556040516001600160401b03831681527fc7f505b2f371ae2175ee4913f4499e1f2633a7b5936321eed1cdaeb6115181d29060200160405180910390a150505050505050505050505050565b60095460ff161561154457604051636f1dac1d60e01b815260040160405180910390fd5b6000806007858154811061155a5761155a6156f3565b600091825260209091206004918202019150600182015460ff16600481111561158557611585615196565b146115a357604051638794ce4b60e01b815260040160405180910390fd5b8060030184815481106115b8576115b86156f3565b6000918252602082206004600b909202019081015490935091506115dc84836158e2565b60058401546006850154600286015492935090916000906115fe908390615896565b90506000866001015490506000806006896000015481548110611623576116236156f3565b60009182526020909120015460405163368efae360e21b8152600481018e9052602481018d90526001600160a01b039091169150819063da3beb8c90604401602060405180830381865afa15801561167f573d6000803e3d6000fd5b505050506040513d601f19601f820116820180604052508101906116a391906158f5565b915050806000036116bf57838611156116ba578395505b6116df565b6116ca846002615869565b8611156116df576116dc846002615869565b95505b60048801869055865b8681101561179557848110156117415761173a6040518061010001604052808e81526020018d81526020018481526020018781526020018681526020018581526020018881526020018381525061396c565b9550611783565b6117836040518061010001604052808e81526020018d815260200184815260200187815260200186815260200185815260200188815260200183815250613e3d565b8061178d8161571f565b9150506116e8565b50848860050154146117a957600588018590555b5050505050505050505050565b6000546001600160a01b031633146117e15760405163c383977560e01b815260040160405180910390fd5b600180546001600160a01b0319166001600160a01b0392909216919091179055565b61180b614c35565b6005826001600160601b031681548110611827576118276156f3565b6000918252602090912060408051608081019182905292600c029091016006019060049082845b81548152602001906001019080831161184e5750505050509050919050565b6000546001600160a01b031633146118985760405163c383977560e01b815260040160405180910390fd5b60095460ff166118bb5760405163b4143dc760e01b815260040160405180910390fd5b6009805460ff191690556040517fa45f47fdea8a1efdd9029a5691c7f759c32b7c698632b563573e155625d1693390600090a1565b6118f982614375565b306001600160a01b037f000000000000000000000000000000000000000000000000000000000000000016148061197757507f00000000000000000000000000000000000000000000000000000000000000006001600160a01b031661196b600080516020615b4f8339815191525490565b6001600160a01b031614155b156119955760405163703e46dd60e11b815260040160405180910390fd5b816001600160a01b03166352d1902d6040518163ffffffff1660e01b8152600401602060405180830381865afa9250505080156119ef575060408051601f3d908101601f191682019092526119ec918101906158f5565b60015b611a175781604051630c76093760e01b8152600401611a0e9190614e74565b60405180910390fd5b600080516020615b4f8339815191528114611a4857604051632a87526960e21b815260048101829052602401611a0e565b600080516020615b4f8339815191528390556040516001600160a01b038416907fbc7cd75a20ee27fd9adebab32041f755214dbc6bffa90cc0225b39da2e5c2d3b90600090a2815115611b11576000836001600160a01b031683604051611aaf9190615932565b600060405180830381855af49150503d8060008114611aea576040519150601f19603f3d011682016040523d82523d6000602084013e611aef565b606091505b5050905080610bd0576040516339b21b5d60e11b815260040160405180910390fd5b505b5050565b6000306001600160a01b037f00000000000000000000000000000000000000000000000000000000000000001614611b625760405163703e46dd60e11b815260040160405180910390fd5b50600080516020615b4f83398151915290565b60078181548110611b8557600080fd5b60009182526020909120600490910201805460018201546002909201546001600160601b0382169350600160601b9091046001600160a01b03169160ff80821692610100909204169085565b60008060078381548110611be757611be76156f3565b6000918252602082206003600490920201908101805491935090611c0d90600190615738565b81548110611c1d57611c1d6156f3565b600091825260208220845460058054600b909402909201945090916001600160601b03909116908110611c5257611c526156f3565b90600052602060002090600c020190508060050154826003015410611cf15782546001600160601b031660001901611c93576001600160ff1b039350611d1e565b6003820154611ca3906002615869565b611cae9060016158e2565b81546005805490916001600160601b0316908110611cce57611cce6156f3565b90600052602060002090600c020160040154611cea9190615869565b9350611d1e565b6003820154611d01906002615869565b611d0c9060016158e2565b8160040154611d1b9190615869565b93505b505050919050565b6000546001600160a01b03163314611d515760405163c383977560e01b815260040160405180910390fd5b6000836001600160a01b03168383604051611d6c9190615932565b60006040518083038185875af1925050503d8060008114611da9576040519150601f19603f3d011682016040523d82523d6000602084013e611dae565b606091505b5050905080610bd0576040516322092f2f60e11b815260040160405180910390fd5b60095460ff1615611df457604051636f1dac1d60e01b815260040160405180910390fd5b600b546040516370a0823160e01b81526001600160a01b03909116906370a0823190611e24903390600401614e74565b602060405180830381865afa158015611e41573d6000803e3d6000fd5b505050506040513d601f19601f82011682018060405250810190611e6591906158f5565b600003611e85576040516326b551e560e11b815260040160405180910390fd5b611b113383836000806143a3565b6000546001600160a01b03163314611ebe5760405163c383977560e01b815260040160405180910390fd5b6001600160a01b038216600081815260086020526040808220805460ff191685151590811790915590519092917f541615e167511d757a7067a700eb54431b256bb458dfdce0ac58bf2ed0aefd4491a35050565b6000546001600160a01b03163314611f3d5760405163c383977560e01b815260040160405180910390fd5b6001600160a01b038316600081815260086020908152604091829020805469ffffffffffffffffff0019166101006001600160401b03881690810260ff60481b191691909117600160481b60ff8816908102919091179092558351908152918201527fe6996b7f03e9bd02228b99d3d946932e3197f505f60542c4cfbc919441d8a4e6910160405180910390a2505050565b6001546001600160a01b03163314801590611ff557506000546001600160a01b03163314155b1561201357604051636b29334f60e01b815260040160405180910390fd5b60095460ff161561203757604051636f1dac1d60e01b815260040160405180910390fd5b6009805460ff191660011790556040517f9e87fac88ff661f02d44f95383c817fece4bce600a3dab7a54406878b965e75290600090a1565b6000546001600160a01b0316331461209a5760405163c383977560e01b815260040160405180910390fd5b60006005886001600160601b0316815481106120b8576120b86156f3565b90600052602060002090600c0201905060016001600160601b0316886001600160601b03161415801561211a575080546005805488926001600160601b0316908110612106576121066156f3565b90600052602060002090600c020160020154115b1561213857604051639717078960e01b815260040160405180910390fd5b60005b60018201548110156121bd5786600583600101838154811061215f5761215f6156f3565b90600052602060002001548154811061217a5761217a6156f3565b90600052602060002090600c02016002015410156121ab57604051639717078960e01b815260040160405180910390fd5b806121b58161571f565b91505061213b565b5060028101869055805460ff60601b1916600160601b88151502178155600381018590556004808201859055600582018490556122009060068301908490614c53565b50876001600160601b03167f709b1f5fda58af9a4f52dacd1ec404840a8148455700cce155a2bd8cf127ef1a8888888888886040516122449695949392919061594e565b60405180910390a25050505050505050565b6122bc60405180610160016040528060008152602001600081526020016000815260200160008152602001600081526020016000815260200160608152602001600081526020016000815260200160006001600160a01b03168152602001600081525090565b600783815481106122cf576122cf6156f3565b906000526020600020906004020160030182815481106122f1576122f16156f3565b90600052602060002090600b020160405180610160016040529081600082015481526020016001820154815260200160028201548152602001600382015481526020016004820154815260200160058201548152602001600682018054806020026020016040519081016040528092919081815260200182805480156123a057602002820191906000526020600020905b81546001600160a01b03168152600190910190602001808311612382575b5050509183525050600782015460208201526008820154604082015260098201546001600160a01b03166060820152600a909101546080909101529392505050565b6000600782815481106123f7576123f76156f3565b600091825260209091206004918202019150600182015460ff16600481111561242257612422615196565b1461244057604051638794ce4b60e01b815260040160405180910390fd5b6001810154610100900460ff161561246b5760405163c977f8d360e01b815260040160405180910390fd5b600061247683611260565b505060018301805461010061ff001990911617905582546040518281529192508491600160601b9091046001600160a01b0316907f394027a5fa6e098a1191094d1719d6929b9abc535fcc0c8f448d6a4e756222769060200160405180910390a3815460405163188d362b60e11b81526004810185905260248101839052600160601b9091046001600160a01b03169063311a6c5690604401600060405180830381600087803b15801561252957600080fd5b505af115801561253d573d6000803e3d6000fd5b50505050505050565b6000546001600160a01b031633146125715760405163c383977560e01b815260040160405180910390fd5b8660058a6001600160601b03168154811061258e5761258e6156f3565b90600052602060002090600c02016002015411156125bf57604051639717078960e01b815260040160405180910390fd5b80516000036125e15760405163402585f560e01b815260040160405180910390fd5b6001600160601b03891661260857604051631ef4f64960e01b815260040160405180910390fd5b60058054600181018255600091825290600c82027f036b6384b5eca791c62761152d0c79bb0604c104a5fb6f4eb0703f3154bb3db001905b83518110156127065783818151811061265b5761265b6156f3565b60200260200101516000148061268e57506006548451859083908110612683576126836156f3565b602002602001015110155b156126ac57604051633d58a98960e11b815260040160405180910390fd5b600182600a0160008684815181106126c6576126c66156f3565b6020026020010151815260200190815260200160002060006101000a81548160ff02191690831515021790555080806126fe9061571f565b915050612640565b5060016000908152600a8201602052604090205460ff1661273a576040516306351b3d60e31b815260040160405180910390fd5b80546001600160601b0319166001600160601b038c161781556040805160008152602081019182905251612772916001840191614c91565b50805460ff60601b1916600160601b8b15150217815560028101899055600381018890556004808201889055600582018790556127b59060068301908790614c53565b50600480546040516311de995760e21b81526001600160a01b039091169163477a655c916127e79186918991016159ad565b600060405180830381600087803b15801561280157600080fd5b505af1158015612815573d6000803e3d6000fd5b5050505060058b6001600160601b031681548110612835576128356156f3565b600091825260208083206001600c909302018201805492830181558352909120018290556040516001600160601b038c169083907f3475f0ed7216dd7d453db663a1c3024e4f36cc925521d54edb9d13e022cbee3d906128a2908e908e908e908e908e908e908d906159c6565b60405180910390a35050505050505050505050565b600681815481106128c757600080fd5b6000918252602090912001546001600160a01b0316905081565b6000806000600784815481106128f9576128f96156f3565b6000918252602090912060049091020190506003600182015460ff16600481111561292657612926615196565b0361297e576002810154815460058054929550916001600160601b03909116908110612954576129546156f3565b600091825260209091206009600c909202010154600282015461297791906158e2565b9150612987565b60009250600091505b50915091565b6000546001600160a01b031633146129b85760405163c383977560e01b815260040160405180910390fd5b600480546001600160a01b0319166001600160a01b0392909216919091179055565b60006129e5826134d9565b341015612a0557604051630e3360f160e21b815260040160405180910390fd5b61115e838360003461455d565b6000546001600160a01b03163314612a3d5760405163c383977560e01b815260040160405180910390fd5b600380546001600160a01b0319166001600160a01b0392909216919091179055565b612a6883611bd1565b341015612a8857604051633191f8f160e01b815260040160405180910390fd5b600060078481548110612a9d57612a9d6156f3565b6000918252602090912060049091020190506003600182015460ff166004811115612aca57612aca615196565b14612ae8576040516337cdefcb60e21b815260040160405180910390fd5b60038101805460009190612afe90600190615738565b81548110612b0e57612b0e6156f3565b90600052602060002090600b020190506006816000015481548110612b3557612b356156f3565b6000918252602090912001546001600160a01b03163314612b695760405163065f245f60e01b815260040160405180910390fd5b8154815460038401805460018101825560009182526020909120600580546001600160601b0390951694600b9093029091019184908110612bac57612bac6156f3565b90600052602060002090600c020160050154846003015410612cb5576005836001600160601b031681548110612be457612be46156f3565b60009182526020909120600c9091020154600580546001600160601b0390921694509084908110612c1757612c176156f3565b60009182526020808320858452600a600c90930201919091019052604090205460ff16612c4357600191505b84546001600160601b03848116911614612cb557845460038601546001600160601b0390911690612c7690600190615738565b6040516001600160601b03861681528a907f736e3f52761298c8c0823e1ebf482ed3c5ecb304f743d2d91a7c006e8e8d7a1f9060200160405180910390a45b84546001600160601b0319166001600160601b038416908117865560018601805460ff1916905542600287015560058054600092908110612cf857612cf86156f3565b90600052602060002090600c02019050806004015434612d189190615896565b826003018190555061271081600301548260020154612d379190615869565b612d419190615896565b60018084019190915534600284015583835560045460038801546001600160a01b039091169163d09f392d918c91612d7891615738565b6040516001600160e01b031960e085901b16815260048101929092526024820152604401600060405180830381600087803b158015612db657600080fd5b505af1158015612dca573d6000803e3d6000fd5b505086548454149150612eb090505784546003870154612dec90600190615738565b83546040519081528b907fcbe7939a71f0b369c7471d760a0a99b60b7bb010ee0406cba8a46679d1ea77569060200160405180910390a46006826000015481548110612e3a57612e3a6156f3565b60009182526020909120015460038301546040516302dbb79560e61b81526001600160a01b039092169163b6ede54091612e7d918d918d918d9190600401615a43565b600060405180830381600087803b158015612e9757600080fd5b505af1158015612eab573d6000803e3d6000fd5b505050505b8554604051600160601b9091046001600160a01b0316908a907f9c9b64db9e130f48381bf697abf638e73117dbfbfd7a4484f2da3ba188f4187d90600090a3887f4e6f5cf43b95303e86aee81683df63992061723a829ee012db21dad388756b916000604051612f209190615768565b60405180910390a2505050505050505050565b60008060078381548110612f4957612f496156f3565b906000526020600020906004020190508060030160018260030180549050612f719190615738565b81548110612f8157612f816156f3565b90600052602060002090600b020160030154915050919050565b6000546001600160a01b03163314612fc65760405163c383977560e01b815260040160405180910390fd5b6006805460018101825560009182527ff652222313e28459528d920b65115c16c04f3efc82aaedc97be59f3f377c0d3f810180546001600160a01b0319166001600160a01b0385169081179091556040519192909183917f44063d258760b98116d53815adbc906a56b3563e540148cc0fc2457f83b5eeb291a35050565b600060078381548110613059576130596156f3565b9060005260206000209060040201905060006001826003018054905061307f9190615738565b90506000826003018281548110613098576130986156f3565b600091825260208220600b909102019150600184015460ff1660048111156130c2576130c2615196565b146130e057604051638285c4ef60e01b815260040160405180910390fd5b600060068260000154815481106130f9576130f96156f3565b6000918252602082200154600a8401546001600160a01b039091169250905b868110801561312e575060038401546006850154105b156133365760006001600160a01b03841663d2b8035a8a8461314f8161571f565b955061315b90876158e2565b6040516001600160e01b031960e085901b168152600481019290925260248201526044016020604051808303816000875af115801561319e573d6000803e3d6000fd5b505050506040513d601f19601f820116820180604052508101906131c29190615a73565b90506001600160a01b0381166131d85750613118565b6004805460018701546040516310f0b12f60e11b81526001600160a01b03909216926321e1625e9261320e928692909101615a90565b600060405180830381600087803b15801561322857600080fd5b505af115801561323c573d6000803e3d6000fd5b50505060068601546040518b92506001600160a01b038416917f6119cf536152c11e0a9a6c22f3953ce4ecc93ee54fa72ffa326ffabded21509b91613289918b8252602082015260400190565b60405180910390a36006850180546001810182556000828152602090200180546001600160a01b0319166001600160a01b03841617905560038601549054036133305760048054604051632e96bc2360e11b81529182018b9052602482018890526001600160a01b031690635d2d784690604401600060405180830381600087803b15801561331757600080fd5b505af115801561332b573d6000803e3d6000fd5b505050505b50613118565b8084600a01600082825461334a91906158e2565b90915550505050505050505050565b600061339e826103f086868080601f0160208091040260200160405190810160405280939291908181526020018383808284376000920191909152506134d992505050565b949350505050565b6000546001600160a01b031633146133d15760405163c383977560e01b815260040160405180910390fd5b600080546001600160a01b0319166001600160a01b0392909216919091179055565b6001600160a01b03821660009081526008602052604081205460ff1661342c5760405163e51cf7bf60e01b815260040160405180910390fd5b613437858585613359565b82101561345757604051630e3360f160e21b815260040160405180910390fd5b61346c6001600160a01b038416333085614599565b613489576040516312171d8360e31b815260040160405180910390fd5b6134cd8686868080601f01602080910402602001604051908101604052809392919081815260200183838082843760009201919091525088925087915061455d9050565b90505b95945050505050565b60008060006134e784614675565b5091509150806005836001600160601b031681548110613509576135096156f3565b90600052602060002090600c02016004015461339e9190615869565b6004546001600160a01b0316331461355057604051639d6cab9960e01b815260040160405180910390fd5b61355e8484848460016143a3565b5050505050565b60006007828154811061357a5761357a6156f3565b600091825260209091206003600490920201015492915050565b6000546001600160a01b031633146135bf5760405163c383977560e01b815260040160405180910390fd5b600b80546001600160a01b0319166001600160a01b0392909216919091179055565b60006005836001600160601b0316815481106135ff576135ff6156f3565b60009182526020808320948352600c91909102909301600a0190925250604090205460ff16919050565b806005846001600160601b031681548110613646576136466156f3565b60009182526020808320868452600c92909202909101600a0190526040808220805460ff19169315159390931790925590518215159184916001600160601b038716917fb47629acdf64971062d40984f77d3dee212d735b11e3e8c7a4222d9f0572cc7991a4505050565b600080546001600160a01b03199081166001600160a01b038d81169190911783556001805483168d83161781556002805484168d84161781556003805485168d85161790556004805485168785161790556006805481875291820190557ff652222313e28459528d920b65115c16c04f3efc82aaedc97be59f3f377c0d40018054909316918a1691821790925560405190927f44063d258760b98116d53815adbc906a56b3563e540148cc0fc2457f83b5eeb291a36005805460010181556000908152600480546040516311de995760e21b81526001600160a01b039091169263477a655c926137a3928791016159ad565b600060405180830381600087803b1580156137bd57600080fd5b505af11580156137d1573d6000803e3d6000fd5b5050600580546001810182556000918252600c027f036b6384b5eca791c62761152d0c79bb0604c104a5fb6f4eb0703f3154bb3db00180546001600160601b03191681556040805183815260208101909152909350915050805161383f916001840191602090910190614c91565b50805460ff60601b1916600160601b87151502178155845160028201556020850151600382015560408501516004808301919091556060860151600583015561388e9060068301908690614c53565b50600480546040516311de995760e21b81526001600160a01b039091169163477a655c916138c1916001918891016159ad565b600060405180830381600087803b1580156138db57600080fd5b505af11580156138ef573d6000803e3d6000fd5b5050825487516020808a01516040808c015160608d0151825160008152948501928390526001600160601b039096169750600196507f3475f0ed7216dd7d453db663a1c3024e4f36cc925521d54edb9d13e022cbee3d95613957958f959094938e91906159c6565b60405180910390a36117a96001806001613629565b6000806007836000015181548110613986576139866156f3565b906000526020600020906004020190506000816003018460200151815481106139b1576139b16156f3565b90600052602060002090600b02019050600060068260000154815481106139da576139da6156f3565b60009182526020808320919091015487519188015160e089015160808a015160a08b01516040516333ac937b60e11b8152600481019690965260248601939093526044850191909152606484015260848301526001600160a01b03169250829063675926f69060a401602060405180830381865afa158015613a60573d6000803e3d6000fd5b505050506040513d601f19601f82011682018060405250810190613a8491906158f5565b9050612710811115613a9557506127105b6000612710613aa48382615738565b8560010154613ab39190615869565b613abd9190615896565b9050808760c001818151613ad191906158e2565b90525060e0870151600685018054600092908110613af157613af16156f3565b6000918252602090912001546004805460405163965af6c760e01b81526001600160a01b03938416945092169163965af6c791613b32918591879101615a90565b600060405180830381600087803b158015613b4c57600080fd5b505af1158015613b60573d6000803e3d6000fd5b505060048054604051633c85b79360e21b81526001600160a01b03909116935063f216de4c9250613b95918591879101615a90565b600060405180830381600087803b158015613baf57600080fd5b505af1158015613bc3573d6000803e3d6000fd5b50505050602088015188516001600160a01b0383167f8975b837fe0d18616c65abb8b843726a32b552ee4feca009944fa658bbb282e786613c0387615aa9565b60098b0154604051613c259392916000916001600160a01b0390911690615ac5565b60405180910390a48751602089015160e08a015160405163ba66fde760e01b81526004810193909352602483019190915260448201526001600160a01b0385169063ba66fde790606401602060405180830381865afa158015613c8c573d6000803e3d6000fd5b505050506040513d601f19601f82011682018060405250810190613cb0919061574b565b613d16576004805460405163b5d69e9960e01b81526001600160a01b039091169163b5d69e9991613ce391859101614e74565b600060405180830381600087803b158015613cfd57600080fd5b505af1158015613d11573d6000803e3d6000fd5b505050505b60018860600151613d279190615738565b8860e00151148015613d3b57506040880151155b15613e2c5760098501546001600160a01b0316613d84576000805460028701546040516001600160a01b039092169281156108fc029290818181858888f1935050505050613dab565b60005460028601546009870154613da9926001600160a01b03918216929116906146fc565b505b60005460c0890151600254613dce926001600160a01b03918216929116906146fc565b506020880151885160c08a0151600288015460098901546040517f6cecfd3ec56289ccb16e30eb194f9a87dfdc12630b9abbc31fc69af5a0b0eaf493613e2393909290916001600160a01b0390911690615ae9565b60405180910390a35b50505060c090940151949350505050565b60006007826000015181548110613e5657613e566156f3565b90600052602060002090600402019050600081600301836020015181548110613e8157613e816156f3565b90600052602060002090600b0201905060006006826000015481548110613eaa57613eaa6156f3565b6000918252602080832090910154865191870151606088015160e08901516001600160a01b039093169550859363675926f693909291613ee991615b08565b60808a015160a08b01516040516001600160e01b031960e088901b1681526004810195909552602485019390935260448401919091526064830152608482015260a401602060405180830381865afa158015613f49573d6000803e3d6000fd5b505050506040513d601f19601f82011682018060405250810190613f6d91906158f5565b9050612710811115613f7e57506127105b60008360060186606001518760e00151613f989190615b08565b81548110613fa857613fa86156f3565b600091825260208220015460018601546001600160a01b03909116925061271090613fd4908590615869565b613fde9190615896565b6004805460405163965af6c760e01b81529293506001600160a01b03169163965af6c791614010918691869101615a90565b600060405180830381600087803b15801561402a57600080fd5b505af115801561403e573d6000803e3d6000fd5b505060048054604051636624192f60e01b81526001600160a01b039091169350636624192f925061407191869101614e74565b602060405180830381865afa15801561408e573d6000803e3d6000fd5b505050506040513d601f19601f820116820180604052508101906140b2919061574b565b6140cf576002546140cd906001600160a01b031683836146fc565b505b60006127108489604001518a60c001516140e99190615896565b6140f39190615869565b6140fd9190615896565b90508086600801600082825461411391906158e2565b925050819055506000612710858a6040015189600201546141349190615896565b61413e9190615869565b6141489190615896565b90508087600701600082825461415e91906158e2565b909155505060025461417a906001600160a01b031685846146fc565b5060098701546001600160a01b03166141b8576040516001600160a01b0385169082156108fc029083906000818181858888f19350505050506141d3565b60098701546141d1906001600160a01b031685836146fc565b505b6020890151895160098901546040516001600160a01b03888116927f8975b837fe0d18616c65abb8b843726a32b552ee4feca009944fa658bbb282e792614223928c928a928a9290911690615ac5565b60405180910390a460018960600151600261423e9190615869565b6142489190615738565b8960e001510361436a57600087600801548a60c001516142689190615738565b90506000886007015489600201546142809190615738565b90508115158061428f57508015155b156117a95781156142b9576000546002546142b7916001600160a01b039182169116846146fc565b505b80156143205760098901546001600160a01b03166142ff57600080546040516001600160a01b039091169183156108fc02918491818181858888f1935050505050614320565b60005460098a015461431e916001600160a01b039182169116836146fc565b505b60208b01518b5160098b01546040517f6cecfd3ec56289ccb16e30eb194f9a87dfdc12630b9abbc31fc69af5a0b0eaf4916128a291879187916001600160a01b0390911690615ae9565b505050505050505050565b6000546001600160a01b031633146143a05760405163c383977560e01b815260040160405180910390fd5b50565b60006001600160601b03851615806143c557506005546001600160601b038616115b156143dd576143d58260046147c9565b5060006134d0565b831580159061441857506005856001600160601b031681548110614403576144036156f3565b90600052602060002090600c02016002015484105b15614428576143d58260056147c9565b60048054604051630a5861b960e41b81526001600160a01b03898116938201939093526001600160601b03881660248201526044810187905285151560648201526000928392839291169063a5861b90906084016060604051808303816000875af115801561449b573d6000803e3d6000fd5b505050506040513d601f19601f820116820180604052508101906144bf9190615b1c565b9194509250905060008160078111156144da576144da615196565b146144f5576144e985826147c9565b600093505050506134d0565b821561452257600254614513906001600160a01b03168a3086614599565b614522576144e98560016147c9565b811561454e5760025461453f906001600160a01b03168a846146fc565b61454e576144e98560026147c9565b50600198975050505050505050565b336000908152600a602052604081205460ff1661458d57604051630407618360e31b815260040160405180910390fd5b6134d085858585614837565b6040516001600160a01b038481166024830152838116604483015260648201839052600091829182919088169060840160408051601f198184030181529181526020820180516001600160e01b03166323b872dd60e01b179052516145fe9190615932565b6000604051808303816000865af19150503d806000811461463b576040519150601f19603f3d011682016040523d82523d6000602084013e614640565b606091505b509150915081801561466a57508051158061466a57508080602001905181019061466a919061574b565b979650505050505050565b600080600060408451106146ea575050506020810151604082015160608301516001600160601b03831615806146b657506005546001600160601b03841610155b156146c057600192505b816000036146cd57600391505b8015806146dc57506006548110155b156146e5575060015b6146f5565b506001915060039050815b9193909250565b6000806000856001600160a01b0316858560405160240161471e929190615a90565b60408051601f198184030181529181526020820180516001600160e01b031663a9059cbb60e01b179052516147539190615932565b6000604051808303816000865af19150503d8060008114614790576040519150601f19603f3d011682016040523d82523d6000602084013e614795565b606091505b50915091508180156147bf5750805115806147bf5750808060200190518101906147bf919061574b565b9695505050505050565b6147d38282614b1e565b60068160078111156147e7576147e7615196565b0361480557604051636590e91560e01b815260040160405180910390fd5b600781600781111561481957614819615196565b03611b13576040516358859f1d60e01b815260040160405180910390fd5b600080600061484586614675565b92505091506005826001600160601b031681548110614866576148666156f3565b60009182526020808320848452600a600c90930201919091019052604090205460ff166148a65760405163b34eb75d60e01b815260040160405180910390fd5b600780546001810182556000918252600160601b33026001600160601b03851617600482027fa66cc928b5edb82af9bd49922954155ab7b0942694bea4ce44661d9a8736c6888101918255427fa66cc928b5edb82af9bd49922954155ab7b0942694bea4ce44661d9a8736c68a909101556006805492965090929184908110614931576149316156f3565b6000918252602082200154600580546001600160a01b039092169350906001600160601b038716908110614967576149676156f3565b60009182526020808320600387018054600181018255908552918420600c909302019350600b0201906001600160a01b038a16156149b2576149ad8a846004015461110d565b6149b8565b82600401545b90506149c4818a615896565b6003808401919091558683558301546002840154612710916149e591615869565b6149ef9190615896565b6001830155600282018990556009820180546001600160a01b0319166001600160a01b038c8116919091179091556004805460405163d09f392d60e01b81529182018b9052600060248301529091169063d09f392d90604401600060405180830381600087803b158015614a6257600080fd5b505af1158015614a76573d6000803e3d6000fd5b50505050836001600160a01b031663b6ede540898e8e86600301546040518563ffffffff1660e01b8152600401614ab09493929190615a43565b600060405180830381600087803b158015614aca57600080fd5b505af1158015614ade573d6000803e3d6000fd5b50506040513392508a91507f141dfc18aa6a56fc816f44f0e9e2f1ebc92b15ab167770e17db5b084c10ed99590600090a350505050505050949350505050565b6001826001811115614b3257614b32615196565b03614b3b575050565b6001816007811115614b4f57614b4f615196565b03614b6d57604051630f323ed960e11b815260040160405180910390fd5b6002816007811115614b8157614b81615196565b03614b9f5760405163e45e13a360e01b815260040160405180910390fd5b6003816007811115614bb357614bb3615196565b03614bd157604051631d91d0ed60e31b815260040160405180910390fd5b6004816007811115614be557614be5615196565b03614c03576040516321f1774b60e11b815260040160405180910390fd5b6005816007811115614c1757614c17615196565b03611b1357604051630caac6b360e31b815260040160405180910390fd5b60405180608001604052806004906020820280368337509192915050565b8260048101928215614c81579160200282015b82811115614c81578251825591602001919060010190614c66565b50614c8d929150614ccb565b5090565b828054828255906000526020600020908101928215614c815791602002820182811115614c81578251825591602001919060010190614c66565b5b80821115614c8d5760008155600101614ccc565b6001600160a01b03811681146143a057600080fd5b8035614d0081614ce0565b919050565b600060208284031215614d1757600080fd5b8135614d2281614ce0565b9392505050565b80356001600160601b0381168114614d0057600080fd5b634e487b7160e01b600052604160045260246000fd5b604051601f8201601f191681016001600160401b0381118282101715614d7e57614d7e614d40565b604052919050565b600082601f830112614d9757600080fd5b813560206001600160401b03821115614db257614db2614d40565b8160051b614dc1828201614d56565b9283528481018201928281019087851115614ddb57600080fd5b83870192505b8483101561466a57823582529183019190830190614de1565b80151581146143a057600080fd5b8035614d0081614dfa565b600080600060608486031215614e2857600080fd5b614e3184614d29565b925060208401356001600160401b03811115614e4c57600080fd5b614e5886828701614d86565b9250506040840135614e6981614dfa565b809150509250925092565b6001600160a01b0391909116815260200190565b600060208284031215614e9a57600080fd5b5035919050565b60008060408385031215614eb457600080fd5b8235614ebf81614ce0565b946020939093013593505050565b60008060408385031215614ee057600080fd5b8235614eeb81614ce0565b91506020830135614efb81614dfa565b809150509250929050565b600082601f830112614f1757600080fd5b604051608081018181106001600160401b0382111715614f3957614f39614d40565b604052806080840185811115614f4e57600080fd5b845b81811015614f68578035835260209283019201614f50565b509195945050505050565b600082601f830112614f8457600080fd5b81356001600160401b03811115614f9d57614f9d614d40565b614fb0601f8201601f1916602001614d56565b818152846020838601011115614fc557600080fd5b816020850160208301376000918101602001919091529392505050565b60008060008060008060008060008060006102208c8e03121561500457600080fd5b8b3561500f81614ce0565b9a5060208c013561501f81614ce0565b995061502d60408d01614cf5565b985061503b60608d01614cf5565b975061504960808d01614cf5565b965061505760a08d01614e08565b95506150668d60c08e01614f06565b94506150768d6101408e01614f06565b93506101c08c01356001600160401b0381111561509257600080fd5b61509e8e828f01614f73565b9350506150ae6101e08d01614cf5565b91506150bd6102008d01614cf5565b90509295989b509295989b9093969950565b6000806000606084860312156150e457600080fd5b505081359360208301359350604090920135919050565b60006020828403121561510d57600080fd5b61115e82614d29565b8060005b6004811015610bd057815184526020938401939091019060010161511a565b608081016111618284615116565b6000806040838503121561515a57600080fd5b823561516581614ce0565b915060208301356001600160401b0381111561518057600080fd5b61518c85828601614f73565b9150509250929050565b634e487b7160e01b600052602160045260246000fd5b600581106151ca57634e487b7160e01b600052602160045260246000fd5b9052565b6001600160601b03861681526001600160a01b038516602082015260a081016151fa60408301866151ac565b9215156060820152608001529392505050565b60008060006060848603121561522257600080fd5b833561522d81614ce0565b92506020840135915060408401356001600160401b0381111561524f57600080fd5b61525b86828701614f73565b9150509250925092565b6000806040838503121561527857600080fd5b614ebf83614d29565b60008060006060848603121561529657600080fd5b83356152a181614ce0565b925060208401356001600160401b03811681146152bd57600080fd5b9150604084013560ff81168114614e6957600080fd5b6000806000806000806000610140888a0312156152ef57600080fd5b6152f888614d29565b9650602088013561530881614dfa565b955060408801359450606088013593506080880135925060a088013591506153338960c08a01614f06565b905092959891949750929550565b6000806040838503121561535457600080fd5b50508035926020909101359150565b600081518084526020808501945080840160005b8381101561539c5781516001600160a01b031687529582019590820190600101615377565b509495945050505050565b6020815281516020820152602082015160408201526040820151606082015260608201516080820152608082015160a082015260a082015160c0820152600060c08301516101608060e0850152615402610180850183615363565b60e0860151610100868101919091528601516101208087019190915286015190925061014061543b818701836001600160a01b03169052565b959095015193019290925250919050565b60008060008060008060008060006101808a8c03121561546b57600080fd5b6154748a614d29565b985060208a013561548481614dfa565b975060408a0135965060608a0135955060808a0135945060a08a013593506154af8b60c08c01614f06565b92506101408a01356001600160401b03808211156154cc57600080fd5b6154d88d838e01614f73565b93506101608c01359150808211156154ef57600080fd5b506154fc8c828d01614d86565b9150509295985092959850929598565b6000806040838503121561551f57600080fd5b8235915060208301356001600160401b0381111561518057600080fd5b60008060006060848603121561555157600080fd5b833592506020840135915060408401356001600160401b0381111561524f57600080fd5b60008083601f84011261558757600080fd5b5081356001600160401b0381111561559e57600080fd5b6020830191508360208285010111156155b657600080fd5b9250929050565b6000806000604084860312156155d257600080fd5b83356001600160401b038111156155e857600080fd5b6155f486828701615575565b9094509250506020840135614e6981614ce0565b60008060008060006080868803121561562057600080fd5b8535945060208601356001600160401b0381111561563d57600080fd5b61564988828901615575565b909550935050604086013561565d81614ce0565b949793965091946060013592915050565b60006020828403121561568057600080fd5b81356001600160401b0381111561569657600080fd5b61339e84828501614f73565b600080600080608085870312156156b857600080fd5b84356156c381614ce0565b93506156d160208601614d29565b92506040850135915060608501356156e881614dfa565b939692955090935050565b634e487b7160e01b600052603260045260246000fd5b634e487b7160e01b600052601160045260246000fd5b60006001820161573157615731615709565b5060010190565b8181038181111561116157611161615709565b60006020828403121561575d57600080fd5b8151614d2281614dfa565b6020810161116182846151ac565b600181815b808511156157b157816000190482111561579757615797615709565b808516156157a457918102915b93841c939080029061577b565b509250929050565b6000826157c857506001611161565b816157d557506000611161565b81600181146157eb57600281146157f557615811565b6001915050611161565b60ff84111561580657615806615709565b50506001821b611161565b5060208310610133831016604e8410600b8410161715615834575081810a611161565b61583e8383615776565b806000190482111561585257615852615709565b029392505050565b600061115e60ff8416836157b9565b808202811582820484141761116157611161615709565b634e487b7160e01b600052601260045260246000fd5b6000826158a5576158a5615880565b500490565b6000806000606084860312156158bf57600080fd5b8351925060208401516158d181614dfa565b6040850151909250614e6981614dfa565b8082018082111561116157611161615709565b60006020828403121561590757600080fd5b5051919050565b60005b83811015615929578181015183820152602001615911565b50506000910152565b6000825161594481846020870161590e565b9190910192915050565b600061012082019050871515825286602083015285604083015284606083015283608083015261466a60a0830184615116565b6000815180845261599981602086016020860161590e565b601f01601f19169290920160200192915050565b82815260406020820152600061339e6040830184615981565b60006101408083018a1515845260208a818601528960408601528860608601528760808601526159f960a0860188615116565b6101208501929092528451908190526101608401918086019160005b81811015615a3157835185529382019392820192600101615a15565b50929c9b505050505050505050505050565b848152836020820152608060408201526000615a626080830185615981565b905082606083015295945050505050565b600060208284031215615a8557600080fd5b8151614d2281614ce0565b6001600160a01b03929092168252602082015260400190565b6000600160ff1b8201615abe57615abe615709565b5060000390565b938452602084019290925260408301526001600160a01b0316606082015260800190565b92835260208301919091526001600160a01b0316604082015260600190565b600082615b1757615b17615880565b500690565b600080600060608486031215615b3157600080fd5b8351925060208401519150604084015160088110614e6957600080fdfe360894a13ba1a3210667c828492db98dca3e2076cc3735a920a3ca505d382bbca26469706673582212201f0b9f849845b8b65a615034f5f999cef3db03f8c4028737a0791e145cb079e964736f6c63430008120033",
  "devdoc": {
    "errors": {
      "AlreadyInitialized()": [
        {
          "details": "The contract is already initialized."
        }
      ],
      "NotInitializing()": [
        {
          "details": "The contract is not initializing."
        }
      ],
      "UUPSUnauthorizedCallContext()": [
        {
          "details": "The call is from an unauthorized context."
        }
      ],
      "UUPSUnsupportedProxiableUUID(bytes32)": [
        {
          "details": "The storage `slot` is unsupported as a UUID."
        }
      ]
    },
    "events": {
      "AcceptedFeeToken(address,bool)": {
        "details": "To be emitted when an ERC20 token is added or removed as a method to pay fees.",
        "params": {
          "_accepted": "Whether the token is accepted or not.",
          "_token": "The ERC20 token."
        }
      },
      "DisputeCreation(uint256,address)": {
        "details": "To be emitted when a dispute is created.",
        "params": {
          "_arbitrable": "The contract which created the dispute.",
          "_disputeID": "The identifier of the dispute in the Arbitrator contract."
        }
      },
      "Initialized(uint64)": {
        "details": "Triggered when the contract has been initialized or reinitialized."
      },
      "NewCurrencyRate(address,uint64,uint8)": {
        "details": "To be emitted when the fee for a particular ERC20 token is updated.",
        "params": {
          "_feeToken": "The ERC20 token.",
          "_rateDecimals": "The new decimals of the fee token rate.",
          "_rateInEth": "The new rate of the fee token in ETH."
        }
      },
      "Ruling(address,uint256,uint256)": {
        "details": "To be raised when a ruling is given.",
        "params": {
          "_arbitrable": "The arbitrable receiving the ruling.",
          "_disputeID": "The identifier of the dispute in the Arbitrator contract.",
          "_ruling": "The ruling which was given."
        }
      },
      "Upgraded(address)": {
        "params": {
          "newImplementation": "Address of the new implementation the proxy is now forwarding calls to."
        }
      }
    },
    "kind": "dev",
    "methods": {
      "addNewDisputeKit(address)": {
        "details": "Add a new supported dispute kit module to the court.",
        "params": {
          "_disputeKitAddress": "The address of the dispute kit contract."
        }
      },
      "appeal(uint256,uint256,bytes)": {
        "details": "Appeals the ruling of a specified dispute. Note: Access restricted to the Dispute Kit for this `disputeID`.",
        "params": {
          "_disputeID": "The ID of the dispute.",
          "_extraData": "Extradata for the dispute. Can be required during court jump.",
          "_numberOfChoices": "Number of choices for the dispute. Can be required during court jump."
        }
      },
      "appealCost(uint256)": {
        "details": "Gets the cost of appealing a specified dispute.",
        "params": {
          "_disputeID": "The ID of the dispute."
        },
        "returns": {
          "cost": "The appeal cost."
        }
      },
      "appealPeriod(uint256)": {
        "details": "Gets the start and the end of a specified dispute's current appeal period.",
        "params": {
          "_disputeID": "The ID of the dispute."
        },
        "returns": {
          "end": "The end of the appeal period.",
          "start": "The start of the appeal period."
        }
      },
      "arbitrationCost(bytes)": {
        "details": "Compute the cost of arbitration denominated in ETH.      It is recommended not to increase it often, as it can be highly time and gas consuming for the arbitrated contracts to cope with fee augmentation.",
        "params": {
          "_extraData": "Additional info about the dispute. We use it to pass the ID of the dispute's court (first 32 bytes), the minimum number of jurors required (next 32 bytes) and the ID of the specific dispute kit (last 32 bytes)."
        },
        "returns": {
          "cost": "The arbitration cost in ETH."
        }
      },
      "arbitrationCost(bytes,address)": {
        "details": "Compute the cost of arbitration denominated in `_feeToken`.      It is recommended not to increase it often, as it can be highly time and gas consuming for the arbitrated contracts to cope with fee augmentation.",
        "params": {
          "_extraData": "Additional info about the dispute. We use it to pass the ID of the dispute's court (first 32 bytes), the minimum number of jurors required (next 32 bytes) and the ID of the specific dispute kit (last 32 bytes).",
          "_feeToken": "The ERC20 token used to pay fees."
        },
        "returns": {
          "cost": "The arbitration cost in `_feeToken`."
        }
      },
      "changeAcceptedFeeTokens(address,bool)": {
        "details": "Changes the supported fee tokens.",
        "params": {
          "_accepted": "Whether the token is supported or not as a method of fee payment.",
          "_feeToken": "The fee token."
        }
      },
      "changeArbitrableWhitelist(address,bool)": {
        "details": "Adds or removes an arbitrable from whitelist.",
        "params": {
          "_allowed": "Whether add or remove permission.",
          "_arbitrable": "Arbitrable address."
        }
      },
      "changeCurrencyRates(address,uint64,uint8)": {
        "details": "Changes the currency rate of a fee token.",
        "params": {
          "_feeToken": "The fee token.",
          "_rateDecimals": "The new decimals of the fee token rate.",
          "_rateInEth": "The new rate of the fee token in ETH."
        }
      },
      "changeGovernor(address)": {
        "details": "Changes the `governor` storage variable.",
        "params": {
          "_governor": "The new value for the `governor` storage variable."
        }
      },
      "changeGuardian(address)": {
        "details": "Changes the `guardian` storage variable.",
        "params": {
          "_guardian": "The new value for the `guardian` storage variable."
        }
      },
      "changeJurorNft(address)": {
        "details": "Changes the `jurorNft` storage variable.",
        "params": {
          "_jurorNft": "The new value for the `jurorNft` storage variable."
        }
      },
      "changeJurorProsecutionModule(address)": {
        "details": "Changes the `jurorProsecutionModule` storage variable.",
        "params": {
          "_jurorProsecutionModule": "The new value for the `jurorProsecutionModule` storage variable."
        }
      },
      "changePinakion(address)": {
        "details": "Changes the `pinakion` storage variable.",
        "params": {
          "_pinakion": "The new value for the `pinakion` storage variable."
        }
      },
      "changeSortitionModule(address)": {
        "details": "Changes the `_sortitionModule` storage variable. Note that the new module should be initialized for all courts.",
        "params": {
          "_sortitionModule": "The new value for the `sortitionModule` storage variable."
        }
      },
      "constructor": {
        "details": "Constructor, initializing the implementation to reduce attack surface."
      },
      "createCourt(uint96,bool,uint256,uint256,uint256,uint256,uint256[4],bytes,uint256[])": {
        "details": "Creates a court under a specified parent court.",
        "params": {
          "_alpha": "The `alpha` property value of the court.",
          "_feeForJuror": "The `feeForJuror` property value of the court.",
          "_hiddenVotes": "The `hiddenVotes` property value of the court.",
          "_jurorsForCourtJump": "The `jurorsForCourtJump` property value of the court.",
          "_minStake": "The `minStake` property value of the court.",
          "_parent": "The `parent` property value of the court.",
          "_sortitionExtraData": "Extra data for sortition module.",
          "_supportedDisputeKits": "Indexes of dispute kits that this court will support.",
          "_timesPerPeriod": "The `timesPerPeriod` property value of the court."
        }
      },
      "createDispute(uint256,bytes)": {
        "details": "Create a dispute and pay for the fees in the native currency, typically ETH.      Must be called by the arbitrable contract.      Must pay at least arbitrationCost(_extraData).",
        "params": {
          "_extraData": "Additional info about the dispute. We use it to pass the ID of the dispute's court (first 32 bytes), the minimum number of jurors required (next 32 bytes) and the ID of the specific dispute kit (last 32 bytes).",
          "_numberOfChoices": "The number of choices the arbitrator can choose from in this dispute."
        },
        "returns": {
          "disputeID": "The identifier of the dispute created."
        }
      },
      "createDispute(uint256,bytes,address,uint256)": {
        "details": "Create a dispute and pay for the fees in a supported ERC20 token.      Must be called by the arbitrable contract.      Must pay at least arbitrationCost(_extraData).",
        "params": {
          "_extraData": "Additional info about the dispute. We use it to pass the ID of the dispute's court (first 32 bytes), the minimum number of jurors required (next 32 bytes) and the ID of the specific dispute kit (last 32 bytes).",
          "_feeAmount": "Amount of the ERC20 token used to pay fees.",
          "_feeToken": "The ERC20 token used to pay fees.",
          "_numberOfChoices": "The number of choices the arbitrator can choose from in this dispute."
        },
        "returns": {
          "disputeID": "The identifier of the dispute created."
        }
      },
      "currentRuling(uint256)": {
        "details": "Gets the current ruling of a specified dispute.",
        "params": {
          "_disputeID": "The ID of the dispute."
        },
        "returns": {
          "overridden": "Whether the ruling was overridden by appeal funding or not.",
          "ruling": "The current ruling.",
          "tied": "Whether it's a tie or not."
        }
      },
      "draw(uint256,uint256)": {
        "details": "Draws jurors for the dispute. Can be called in parts.",
        "params": {
          "_disputeID": "The ID of the dispute.",
          "_iterations": "The number of iterations to run."
        }
      },
      "enableDisputeKits(uint96,uint256[],bool)": {
        "details": "Adds/removes court's support for specified dispute kits.",
        "params": {
          "_courtID": "The ID of the court.",
          "_disputeKitIDs": "The IDs of dispute kits which support should be added/removed.",
          "_enable": "Whether add or remove the dispute kits from the court."
        }
      },
      "execute(uint256,uint256,uint256)": {
        "details": "Distribute the PNKs at stake and the dispute fees for the specific round of the dispute. Can be called in parts. Note: Reward distributions are forbidden during pause.",
        "params": {
          "_disputeID": "The ID of the dispute.",
          "_iterations": "The number of iterations to run.",
          "_round": "The appeal round."
        }
      },
      "executeGovernorProposal(address,uint256,bytes)": {
        "details": "Allows the governor to call anything on behalf of the contract.",
        "params": {
          "_amount": "The value sent with the call.",
          "_data": "The data sent with the call.",
          "_destination": "The destination of the call."
        }
      },
      "executeRuling(uint256)": {
        "details": "Executes a specified dispute's ruling.",
        "params": {
          "_disputeID": "The ID of the dispute."
        }
      },
      "getNumberOfVotes(uint256)": {
        "details": "Gets the number of votes permitted for the specified dispute in the latest round.",
        "params": {
          "_disputeID": "The ID of the dispute."
        }
      },
      "getTimesPerPeriod(uint96)": {
        "details": "Gets the timesPerPeriod array for a given court.",
        "params": {
          "_courtID": "The ID of the court to get the times from."
        },
        "returns": {
          "timesPerPeriod": "The timesPerPeriod array for the given court."
        }
      },
      "initialize(address,address,address,address,address,bool,uint256[4],uint256[4],bytes,address,address)": {
        "details": "Initializer (constructor equivalent for upgradable contracts).",
        "params": {
          "_courtParameters": "Numeric parameters of General court (minStake, alpha, feeForJuror and jurorsForCourtJump respectively).",
          "_disputeKit": "The address of the default dispute kit.",
          "_governor": "The governor's address.",
          "_guardian": "The guardian's address.",
          "_hiddenVotes": "The `hiddenVotes` property value of the general court.",
          "_jurorNft": "NFT contract to vet the jurors.",
          "_jurorProsecutionModule": "The address of the juror prosecution module.",
          "_pinakion": "The address of the token contract.",
          "_sortitionExtraData": "The extra data for sortition module.",
          "_sortitionModuleAddress": "The sortition module responsible for sortition of the jurors.",
          "_timesPerPeriod": "The `timesPerPeriod` property value of the general court."
        }
      },
      "isDisputeKitJumping(uint256)": {
        "details": "Returns true if the dispute kit will be switched to a parent DK.",
        "params": {
          "_disputeID": "The ID of the dispute."
        },
        "returns": {
          "_0": "Whether DK will be switched or not."
        }
      },
      "passPeriod(uint256)": {
        "details": "Passes the period of a specified dispute.",
        "params": {
          "_disputeID": "The ID of the dispute."
        }
      },
      "pause()": {
        "details": "Pause staking and reward execution. Can only be done by guardian or governor."
      },
      "proxiableUUID()": {
        "details": "Implementation of the ERC1822 `proxiableUUID` function. This returns the storage slot used by the implementation. It is used to validate the implementation's compatibility when performing an upgrade. IMPORTANT: A proxy pointing at a proxiable contract should not be considered proxiable itself, because this risks bricking a proxy that upgrades to it, by delegating to itself until out of gas. Thus it is critical that this function revert if invoked through a proxy. This is guaranteed by the if statement."
      },
      "setStake(uint96,uint256)": {
        "details": "Sets the caller's stake in a court. Note: Staking and unstaking is forbidden during pause.",
        "params": {
          "_courtID": "The ID of the court.",
          "_newStake": "The new stake. Note that the existing delayed stake will be nullified as non-relevant."
        }
      },
      "setStakeBySortitionModule(address,uint96,uint256,bool)": {
        "details": "Sets the stake of a specified account in a court, typically to apply a delayed stake or unstake inactive jurors.",
        "params": {
          "_account": "The account whose stake is being set.",
          "_alreadyTransferred": "Whether the PNKs have already been transferred to the contract.",
          "_courtID": "The ID of the court.",
          "_newStake": "The new stake."
        }
      },
      "unpause()": {
        "details": "Unpause staking and reward execution. Can only be done by governor."
      },
      "upgradeToAndCall(address,bytes)": {
        "details": "Upgrade mechanism including access control and UUPS-compliance.Reverts if the execution is not performed via delegatecall or the execution context is not of a proxy with an ERC1967-compliant implementation pointing to self.",
        "params": {
          "data": "Data used in a delegate call to `newImplementation` if non-empty. This will typically be an encoded function call, and allows initializing the storage of the proxy like a Solidity constructor.",
          "newImplementation": "Address of the new implementation contract."
        }
      }
    },
    "title": "KlerosCoreNeo Core arbitrator contract for Kleros v2. Note that this contract trusts the PNK token, the dispute kit and the sortition module contracts.",
    "version": 1
  },
  "userdoc": {
    "errors": {
      "FailedDelegateCall()": [
        {
          "notice": "Failed Delegated call"
        }
      ],
      "InvalidImplementation(address)": [
        {
          "notice": "The `implementation` is not UUPS-compliant"
        }
      ]
    },
    "events": {
      "Upgraded(address)": {
        "notice": "Emitted when the `implementation` has been successfully upgraded."
      }
    },
    "kind": "user",
    "methods": {},
    "version": 1
  },
  "storageLayout": {
    "storage": [
      {
        "astId": 2024,
        "contract": "src/arbitration/KlerosCoreNeo.sol:KlerosCoreNeo",
        "label": "governor",
        "offset": 0,
        "slot": "0",
        "type": "t_address"
      },
      {
        "astId": 2026,
        "contract": "src/arbitration/KlerosCoreNeo.sol:KlerosCoreNeo",
        "label": "guardian",
        "offset": 0,
        "slot": "1",
        "type": "t_address"
      },
      {
        "astId": 2029,
        "contract": "src/arbitration/KlerosCoreNeo.sol:KlerosCoreNeo",
        "label": "pinakion",
        "offset": 0,
        "slot": "2",
        "type": "t_contract(IERC20)293"
      },
      {
        "astId": 2031,
        "contract": "src/arbitration/KlerosCoreNeo.sol:KlerosCoreNeo",
        "label": "jurorProsecutionModule",
        "offset": 0,
        "slot": "3",
        "type": "t_address"
      },
      {
        "astId": 2034,
        "contract": "src/arbitration/KlerosCoreNeo.sol:KlerosCoreNeo",
        "label": "sortitionModule",
        "offset": 0,
        "slot": "4",
        "type": "t_contract(ISortitionModule)16042"
      },
      {
        "astId": 2038,
        "contract": "src/arbitration/KlerosCoreNeo.sol:KlerosCoreNeo",
        "label": "courts",
        "offset": 0,
        "slot": "5",
        "type": "t_array(t_struct(Court)1943_storage)dyn_storage"
      },
      {
        "astId": 2042,
        "contract": "src/arbitration/KlerosCoreNeo.sol:KlerosCoreNeo",
        "label": "disputeKits",
        "offset": 0,
        "slot": "6",
        "type": "t_array(t_contract(IDisputeKit)15879)dyn_storage"
      },
      {
        "astId": 2046,
        "contract": "src/arbitration/KlerosCoreNeo.sol:KlerosCoreNeo",
        "label": "disputes",
        "offset": 0,
        "slot": "7",
        "type": "t_array(t_struct(Dispute)1960_storage)dyn_storage"
      },
      {
        "astId": 2052,
        "contract": "src/arbitration/KlerosCoreNeo.sol:KlerosCoreNeo",
        "label": "currencyRates",
        "offset": 0,
        "slot": "8",
        "type": "t_mapping(t_contract(IERC20)293,t_struct(CurrencyRate)2009_storage)"
      },
      {
        "astId": 2054,
        "contract": "src/arbitration/KlerosCoreNeo.sol:KlerosCoreNeo",
        "label": "paused",
        "offset": 0,
        "slot": "9",
        "type": "t_bool"
      },
      {
        "astId": 5494,
        "contract": "src/arbitration/KlerosCoreNeo.sol:KlerosCoreNeo",
        "label": "arbitrableWhitelist",
        "offset": 0,
        "slot": "10",
        "type": "t_mapping(t_address,t_bool)"
      },
      {
        "astId": 5497,
        "contract": "src/arbitration/KlerosCoreNeo.sol:KlerosCoreNeo",
        "label": "jurorNft",
        "offset": 0,
        "slot": "11",
        "type": "t_contract(IERC721)409"
      }
    ],
    "types": {
      "t_address": {
        "encoding": "inplace",
        "label": "address",
        "numberOfBytes": "20"
      },
      "t_array(t_address)dyn_storage": {
        "base": "t_address",
        "encoding": "dynamic_array",
        "label": "address[]",
        "numberOfBytes": "32"
      },
      "t_array(t_contract(IDisputeKit)15879)dyn_storage": {
        "base": "t_contract(IDisputeKit)15879",
        "encoding": "dynamic_array",
        "label": "contract IDisputeKit[]",
        "numberOfBytes": "32"
      },
      "t_array(t_struct(Court)1943_storage)dyn_storage": {
        "base": "t_struct(Court)1943_storage",
        "encoding": "dynamic_array",
        "label": "struct KlerosCoreBase.Court[]",
        "numberOfBytes": "32"
      },
      "t_array(t_struct(Dispute)1960_storage)dyn_storage": {
        "base": "t_struct(Dispute)1960_storage",
        "encoding": "dynamic_array",
        "label": "struct KlerosCoreBase.Dispute[]",
        "numberOfBytes": "32"
      },
      "t_array(t_struct(Round)1985_storage)dyn_storage": {
        "base": "t_struct(Round)1985_storage",
        "encoding": "dynamic_array",
        "label": "struct KlerosCoreBase.Round[]",
        "numberOfBytes": "32"
      },
      "t_array(t_uint256)4_storage": {
        "base": "t_uint256",
        "encoding": "inplace",
        "label": "uint256[4]",
        "numberOfBytes": "128"
      },
      "t_array(t_uint256)dyn_storage": {
        "base": "t_uint256",
        "encoding": "dynamic_array",
        "label": "uint256[]",
        "numberOfBytes": "32"
      },
      "t_bool": {
        "encoding": "inplace",
        "label": "bool",
        "numberOfBytes": "1"
      },
      "t_contract(IArbitrableV2)15636": {
        "encoding": "inplace",
        "label": "contract IArbitrableV2",
        "numberOfBytes": "20"
      },
      "t_contract(IDisputeKit)15879": {
        "encoding": "inplace",
        "label": "contract IDisputeKit",
        "numberOfBytes": "20"
      },
      "t_contract(IERC20)293": {
        "encoding": "inplace",
        "label": "contract IERC20",
        "numberOfBytes": "20"
      },
      "t_contract(IERC721)409": {
        "encoding": "inplace",
        "label": "contract IERC721",
        "numberOfBytes": "20"
      },
      "t_contract(ISortitionModule)16042": {
        "encoding": "inplace",
        "label": "contract ISortitionModule",
        "numberOfBytes": "20"
      },
      "t_enum(Period)1917": {
        "encoding": "inplace",
        "label": "enum KlerosCoreBase.Period",
        "numberOfBytes": "1"
      },
      "t_mapping(t_address,t_bool)": {
        "encoding": "mapping",
        "key": "t_address",
        "label": "mapping(address => bool)",
        "numberOfBytes": "32",
        "value": "t_bool"
      },
      "t_mapping(t_contract(IERC20)293,t_struct(CurrencyRate)2009_storage)": {
        "encoding": "mapping",
        "key": "t_contract(IERC20)293",
        "label": "mapping(contract IERC20 => struct KlerosCoreBase.CurrencyRate)",
        "numberOfBytes": "32",
        "value": "t_struct(CurrencyRate)2009_storage"
      },
      "t_mapping(t_uint256,t_bool)": {
        "encoding": "mapping",
        "key": "t_uint256",
        "label": "mapping(uint256 => bool)",
        "numberOfBytes": "32",
        "value": "t_bool"
      },
      "t_struct(Court)1943_storage": {
        "encoding": "inplace",
        "label": "struct KlerosCoreBase.Court",
        "members": [
          {
            "astId": 1919,
            "contract": "src/arbitration/KlerosCoreNeo.sol:KlerosCoreNeo",
            "label": "parent",
            "offset": 0,
            "slot": "0",
            "type": "t_uint96"
          },
          {
            "astId": 1921,
            "contract": "src/arbitration/KlerosCoreNeo.sol:KlerosCoreNeo",
            "label": "hiddenVotes",
            "offset": 12,
            "slot": "0",
            "type": "t_bool"
          },
          {
            "astId": 1924,
            "contract": "src/arbitration/KlerosCoreNeo.sol:KlerosCoreNeo",
            "label": "children",
            "offset": 0,
            "slot": "1",
            "type": "t_array(t_uint256)dyn_storage"
          },
          {
            "astId": 1926,
            "contract": "src/arbitration/KlerosCoreNeo.sol:KlerosCoreNeo",
            "label": "minStake",
            "offset": 0,
            "slot": "2",
            "type": "t_uint256"
          },
          {
            "astId": 1928,
            "contract": "src/arbitration/KlerosCoreNeo.sol:KlerosCoreNeo",
            "label": "alpha",
            "offset": 0,
            "slot": "3",
            "type": "t_uint256"
          },
          {
            "astId": 1930,
            "contract": "src/arbitration/KlerosCoreNeo.sol:KlerosCoreNeo",
            "label": "feeForJuror",
            "offset": 0,
            "slot": "4",
            "type": "t_uint256"
          },
          {
            "astId": 1932,
            "contract": "src/arbitration/KlerosCoreNeo.sol:KlerosCoreNeo",
            "label": "jurorsForCourtJump",
            "offset": 0,
            "slot": "5",
            "type": "t_uint256"
          },
          {
            "astId": 1936,
            "contract": "src/arbitration/KlerosCoreNeo.sol:KlerosCoreNeo",
            "label": "timesPerPeriod",
            "offset": 0,
            "slot": "6",
            "type": "t_array(t_uint256)4_storage"
          },
          {
            "astId": 1940,
            "contract": "src/arbitration/KlerosCoreNeo.sol:KlerosCoreNeo",
            "label": "supportedDisputeKits",
            "offset": 0,
            "slot": "10",
            "type": "t_mapping(t_uint256,t_bool)"
          },
          {
            "astId": 1942,
            "contract": "src/arbitration/KlerosCoreNeo.sol:KlerosCoreNeo",
            "label": "disabled",
            "offset": 0,
            "slot": "11",
            "type": "t_bool"
          }
        ],
        "numberOfBytes": "384"
      },
      "t_struct(CurrencyRate)2009_storage": {
        "encoding": "inplace",
        "label": "struct KlerosCoreBase.CurrencyRate",
        "members": [
          {
            "astId": 2004,
            "contract": "src/arbitration/KlerosCoreNeo.sol:KlerosCoreNeo",
            "label": "feePaymentAccepted",
            "offset": 0,
            "slot": "0",
            "type": "t_bool"
          },
          {
            "astId": 2006,
            "contract": "src/arbitration/KlerosCoreNeo.sol:KlerosCoreNeo",
            "label": "rateInEth",
            "offset": 1,
            "slot": "0",
            "type": "t_uint64"
          },
          {
            "astId": 2008,
            "contract": "src/arbitration/KlerosCoreNeo.sol:KlerosCoreNeo",
            "label": "rateDecimals",
            "offset": 9,
            "slot": "0",
            "type": "t_uint8"
          }
        ],
        "numberOfBytes": "32"
      },
      "t_struct(Dispute)1960_storage": {
        "encoding": "inplace",
        "label": "struct KlerosCoreBase.Dispute",
        "members": [
          {
            "astId": 1945,
            "contract": "src/arbitration/KlerosCoreNeo.sol:KlerosCoreNeo",
            "label": "courtID",
            "offset": 0,
            "slot": "0",
            "type": "t_uint96"
          },
          {
            "astId": 1948,
            "contract": "src/arbitration/KlerosCoreNeo.sol:KlerosCoreNeo",
            "label": "arbitrated",
            "offset": 12,
            "slot": "0",
            "type": "t_contract(IArbitrableV2)15636"
          },
          {
            "astId": 1951,
            "contract": "src/arbitration/KlerosCoreNeo.sol:KlerosCoreNeo",
            "label": "period",
            "offset": 0,
            "slot": "1",
            "type": "t_enum(Period)1917"
          },
          {
            "astId": 1953,
            "contract": "src/arbitration/KlerosCoreNeo.sol:KlerosCoreNeo",
            "label": "ruled",
            "offset": 1,
            "slot": "1",
            "type": "t_bool"
          },
          {
            "astId": 1955,
            "contract": "src/arbitration/KlerosCoreNeo.sol:KlerosCoreNeo",
            "label": "lastPeriodChange",
            "offset": 0,
            "slot": "2",
            "type": "t_uint256"
          },
          {
            "astId": 1959,
            "contract": "src/arbitration/KlerosCoreNeo.sol:KlerosCoreNeo",
            "label": "rounds",
            "offset": 0,
            "slot": "3",
            "type": "t_array(t_struct(Round)1985_storage)dyn_storage"
          }
        ],
        "numberOfBytes": "128"
      },
      "t_struct(Round)1985_storage": {
        "encoding": "inplace",
        "label": "struct KlerosCoreBase.Round",
        "members": [
          {
            "astId": 1962,
            "contract": "src/arbitration/KlerosCoreNeo.sol:KlerosCoreNeo",
            "label": "disputeKitID",
            "offset": 0,
            "slot": "0",
            "type": "t_uint256"
          },
          {
            "astId": 1964,
            "contract": "src/arbitration/KlerosCoreNeo.sol:KlerosCoreNeo",
            "label": "pnkAtStakePerJuror",
            "offset": 0,
            "slot": "1",
            "type": "t_uint256"
          },
          {
            "astId": 1966,
            "contract": "src/arbitration/KlerosCoreNeo.sol:KlerosCoreNeo",
            "label": "totalFeesForJurors",
            "offset": 0,
            "slot": "2",
            "type": "t_uint256"
          },
          {
            "astId": 1968,
            "contract": "src/arbitration/KlerosCoreNeo.sol:KlerosCoreNeo",
            "label": "nbVotes",
            "offset": 0,
            "slot": "3",
            "type": "t_uint256"
          },
          {
            "astId": 1970,
            "contract": "src/arbitration/KlerosCoreNeo.sol:KlerosCoreNeo",
            "label": "repartitions",
            "offset": 0,
            "slot": "4",
            "type": "t_uint256"
          },
          {
            "astId": 1972,
            "contract": "src/arbitration/KlerosCoreNeo.sol:KlerosCoreNeo",
            "label": "pnkPenalties",
            "offset": 0,
            "slot": "5",
            "type": "t_uint256"
          },
          {
            "astId": 1975,
            "contract": "src/arbitration/KlerosCoreNeo.sol:KlerosCoreNeo",
            "label": "drawnJurors",
            "offset": 0,
            "slot": "6",
            "type": "t_array(t_address)dyn_storage"
          },
          {
            "astId": 1977,
            "contract": "src/arbitration/KlerosCoreNeo.sol:KlerosCoreNeo",
            "label": "sumFeeRewardPaid",
            "offset": 0,
            "slot": "7",
            "type": "t_uint256"
          },
          {
            "astId": 1979,
            "contract": "src/arbitration/KlerosCoreNeo.sol:KlerosCoreNeo",
            "label": "sumPnkRewardPaid",
            "offset": 0,
            "slot": "8",
            "type": "t_uint256"
          },
          {
            "astId": 1982,
            "contract": "src/arbitration/KlerosCoreNeo.sol:KlerosCoreNeo",
            "label": "feeToken",
            "offset": 0,
            "slot": "9",
            "type": "t_contract(IERC20)293"
          },
          {
            "astId": 1984,
            "contract": "src/arbitration/KlerosCoreNeo.sol:KlerosCoreNeo",
            "label": "drawIterations",
            "offset": 0,
            "slot": "10",
            "type": "t_uint256"
          }
        ],
        "numberOfBytes": "352"
      },
      "t_uint256": {
        "encoding": "inplace",
        "label": "uint256",
        "numberOfBytes": "32"
      },
      "t_uint64": {
        "encoding": "inplace",
        "label": "uint64",
        "numberOfBytes": "8"
      },
      "t_uint8": {
        "encoding": "inplace",
        "label": "uint8",
        "numberOfBytes": "1"
      },
      "t_uint96": {
        "encoding": "inplace",
        "label": "uint96",
        "numberOfBytes": "12"
      }
    }
  }
}