{
  "address": "0xbCF80cb53f173Ff8be96813a40be20eFAb2B59ed",
  "abi": [
    {
      "inputs": [
        {
          "internalType": "string",
          "name": "_name",
          "type": "string"
        },
        {
          "internalType": "string",
          "name": "_symbol",
          "type": "string"
        },
        {
          "internalType": "string",
          "name": "_description",
          "type": "string"
        },
        {
          "internalType": "string",
          "name": "_imageUri",
          "type": "string"
        },
        {
          "internalType": "string",
          "name": "_externalUrl",
          "type": "string"
        }
      ],
      "stateMutability": "nonpayable",
      "type": "constructor"
    },
    {
      "inputs": [
        {
          "internalType": "address",
          "name": "sender",
          "type": "address"
        },
        {
          "internalType": "uint256",
          "name": "tokenId",
          "type": "uint256"
        },
        {
          "internalType": "address",
          "name": "owner",
          "type": "address"
        }
      ],
      "name": "ERC721IncorrectOwner",
      "type": "error"
    },
    {
      "inputs": [
        {
          "internalType": "address",
          "name": "operator",
          "type": "address"
        },
        {
          "internalType": "uint256",
          "name": "tokenId",
          "type": "uint256"
        }
      ],
      "name": "ERC721InsufficientApproval",
      "type": "error"
    },
    {
      "inputs": [
        {
          "internalType": "address",
          "name": "approver",
          "type": "address"
        }
      ],
      "name": "ERC721InvalidApprover",
      "type": "error"
    },
    {
      "inputs": [
        {
          "internalType": "address",
          "name": "operator",
          "type": "address"
        }
      ],
      "name": "ERC721InvalidOperator",
      "type": "error"
    },
    {
      "inputs": [
        {
          "internalType": "address",
          "name": "owner",
          "type": "address"
        }
      ],
      "name": "ERC721InvalidOwner",
      "type": "error"
    },
    {
      "inputs": [
        {
          "internalType": "address",
          "name": "receiver",
          "type": "address"
        }
      ],
      "name": "ERC721InvalidReceiver",
      "type": "error"
    },
    {
      "inputs": [
        {
          "internalType": "address",
          "name": "sender",
          "type": "address"
        }
      ],
      "name": "ERC721InvalidSender",
      "type": "error"
    },
    {
      "inputs": [
        {
          "internalType": "uint256",
          "name": "tokenId",
          "type": "uint256"
        }
      ],
      "name": "ERC721NonexistentToken",
      "type": "error"
    },
    {
      "inputs": [],
      "name": "EnforcedPause",
      "type": "error"
    },
    {
      "inputs": [],
      "name": "ExpectedPause",
      "type": "error"
    },
    {
      "inputs": [
        {
          "internalType": "address",
          "name": "owner",
          "type": "address"
        }
      ],
      "name": "OwnableInvalidOwner",
      "type": "error"
    },
    {
      "inputs": [
        {
          "internalType": "address",
          "name": "account",
          "type": "address"
        }
      ],
      "name": "OwnableUnauthorizedAccount",
      "type": "error"
    },
    {
      "inputs": [],
      "name": "TransfersNotPermitted",
      "type": "error"
    },
    {
      "anonymous": false,
      "inputs": [
        {
          "indexed": true,
          "internalType": "address",
          "name": "owner",
          "type": "address"
        },
        {
          "indexed": true,
          "internalType": "address",
          "name": "approved",
          "type": "address"
        },
        {
          "indexed": true,
          "internalType": "uint256",
          "name": "tokenId",
          "type": "uint256"
        }
      ],
      "name": "Approval",
      "type": "event"
    },
    {
      "anonymous": false,
      "inputs": [
        {
          "indexed": true,
          "internalType": "address",
          "name": "owner",
          "type": "address"
        },
        {
          "indexed": true,
          "internalType": "address",
          "name": "operator",
          "type": "address"
        },
        {
          "indexed": false,
          "internalType": "bool",
          "name": "approved",
          "type": "bool"
        }
      ],
      "name": "ApprovalForAll",
      "type": "event"
    },
    {
      "anonymous": false,
      "inputs": [
        {
          "indexed": false,
          "internalType": "uint256",
          "name": "_fromTokenId",
          "type": "uint256"
        },
        {
          "indexed": false,
          "internalType": "uint256",
          "name": "_toTokenId",
          "type": "uint256"
        }
      ],
      "name": "BatchMetadataUpdate",
      "type": "event"
    },
    {
      "anonymous": false,
      "inputs": [
        {
          "indexed": false,
          "internalType": "uint256",
          "name": "_tokenId",
          "type": "uint256"
        }
      ],
      "name": "MetadataUpdate",
      "type": "event"
    },
    {
      "anonymous": false,
      "inputs": [
        {
          "indexed": true,
          "internalType": "address",
          "name": "previousOwner",
          "type": "address"
        },
        {
          "indexed": true,
          "internalType": "address",
          "name": "newOwner",
          "type": "address"
        }
      ],
      "name": "OwnershipTransferred",
      "type": "event"
    },
    {
      "anonymous": false,
      "inputs": [
        {
          "indexed": false,
          "internalType": "address",
          "name": "account",
          "type": "address"
        }
      ],
      "name": "Paused",
      "type": "event"
    },
    {
      "anonymous": false,
      "inputs": [
        {
          "indexed": true,
          "internalType": "address",
          "name": "from",
          "type": "address"
        },
        {
          "indexed": true,
          "internalType": "address",
          "name": "to",
          "type": "address"
        },
        {
          "indexed": true,
          "internalType": "uint256",
          "name": "tokenId",
          "type": "uint256"
        }
      ],
      "name": "Transfer",
      "type": "event"
    },
    {
      "anonymous": false,
      "inputs": [
        {
          "indexed": false,
          "internalType": "address",
          "name": "account",
          "type": "address"
        }
      ],
      "name": "Unpaused",
      "type": "event"
    },
    {
      "inputs": [
        {
          "internalType": "address",
          "name": "to",
          "type": "address"
        },
        {
          "internalType": "uint256",
          "name": "tokenId",
          "type": "uint256"
        }
      ],
      "name": "approve",
      "outputs": [],
      "stateMutability": "nonpayable",
      "type": "function"
    },
    {
      "inputs": [
        {
          "internalType": "address",
          "name": "owner",
          "type": "address"
        }
      ],
      "name": "balanceOf",
      "outputs": [
        {
          "internalType": "uint256",
          "name": "",
          "type": "uint256"
        }
      ],
      "stateMutability": "view",
      "type": "function"
    },
    {
      "inputs": [
        {
          "internalType": "uint256",
          "name": "_fromTokenId",
          "type": "uint256"
        },
        {
          "internalType": "uint256",
          "name": "_toTokenId",
          "type": "uint256"
        }
      ],
      "name": "batchMetadataUpdate",
      "outputs": [],
      "stateMutability": "nonpayable",
      "type": "function"
    },
    {
      "inputs": [
        {
          "internalType": "uint256",
          "name": "tokenId",
          "type": "uint256"
        }
      ],
      "name": "burn",
      "outputs": [],
      "stateMutability": "nonpayable",
      "type": "function"
    },
    {
      "inputs": [],
      "name": "description",
      "outputs": [
        {
          "internalType": "string",
          "name": "",
          "type": "string"
        }
      ],
      "stateMutability": "view",
      "type": "function"
    },
    {
      "inputs": [],
      "name": "externalUrl",
      "outputs": [
        {
          "internalType": "string",
          "name": "",
          "type": "string"
        }
      ],
      "stateMutability": "view",
      "type": "function"
    },
    {
      "inputs": [
        {
          "internalType": "uint256",
          "name": "tokenId",
          "type": "uint256"
        }
      ],
      "name": "getApproved",
      "outputs": [
        {
          "internalType": "address",
          "name": "",
          "type": "address"
        }
      ],
      "stateMutability": "view",
      "type": "function"
    },
    {
      "inputs": [],
      "name": "imageUri",
      "outputs": [
        {
          "internalType": "string",
          "name": "",
          "type": "string"
        }
      ],
      "stateMutability": "view",
      "type": "function"
    },
    {
      "inputs": [
        {
          "internalType": "address",
          "name": "owner",
          "type": "address"
        },
        {
          "internalType": "address",
          "name": "operator",
          "type": "address"
        }
      ],
      "name": "isApprovedForAll",
      "outputs": [
        {
          "internalType": "bool",
          "name": "",
          "type": "bool"
        }
      ],
      "stateMutability": "view",
      "type": "function"
    },
    {
      "inputs": [],
      "name": "name",
      "outputs": [
        {
          "internalType": "string",
          "name": "",
          "type": "string"
        }
      ],
      "stateMutability": "view",
      "type": "function"
    },
    {
      "inputs": [],
      "name": "owner",
      "outputs": [
        {
          "internalType": "address",
          "name": "",
          "type": "address"
        }
      ],
      "stateMutability": "view",
      "type": "function"
    },
    {
      "inputs": [
        {
          "internalType": "uint256",
          "name": "tokenId",
          "type": "uint256"
        }
      ],
      "name": "ownerOf",
      "outputs": [
        {
          "internalType": "address",
          "name": "",
          "type": "address"
        }
      ],
      "stateMutability": "view",
      "type": "function"
    },
    {
      "inputs": [],
      "name": "pause",
      "outputs": [],
      "stateMutability": "nonpayable",
      "type": "function"
    },
    {
      "inputs": [],
      "name": "paused",
      "outputs": [
        {
          "internalType": "bool",
          "name": "",
          "type": "bool"
        }
      ],
      "stateMutability": "view",
      "type": "function"
    },
    {
      "inputs": [],
      "name": "renounceOwnership",
      "outputs": [],
      "stateMutability": "nonpayable",
      "type": "function"
    },
    {
      "inputs": [
        {
          "internalType": "address",
          "name": "_to",
          "type": "address"
        }
      ],
      "name": "safeMint",
      "outputs": [
        {
          "internalType": "uint256",
          "name": "",
          "type": "uint256"
        }
      ],
      "stateMutability": "nonpayable",
      "type": "function"
    },
    {
      "inputs": [
        {
          "internalType": "address",
          "name": "from",
          "type": "address"
        },
        {
          "internalType": "address",
          "name": "to",
          "type": "address"
        },
        {
          "internalType": "uint256",
          "name": "tokenId",
          "type": "uint256"
        }
      ],
      "name": "safeTransferFrom",
      "outputs": [],
      "stateMutability": "nonpayable",
      "type": "function"
    },
    {
      "inputs": [
        {
          "internalType": "address",
          "name": "",
          "type": "address"
        },
        {
          "internalType": "address",
          "name": "",
          "type": "address"
        },
        {
          "internalType": "uint256",
          "name": "",
          "type": "uint256"
        },
        {
          "internalType": "bytes",
          "name": "",
          "type": "bytes"
        }
      ],
      "name": "safeTransferFrom",
      "outputs": [],
      "stateMutability": "pure",
      "type": "function"
    },
    {
      "inputs": [
        {
          "internalType": "address",
          "name": "operator",
          "type": "address"
        },
        {
          "internalType": "bool",
          "name": "approved",
          "type": "bool"
        }
      ],
      "name": "setApprovalForAll",
      "outputs": [],
      "stateMutability": "nonpayable",
      "type": "function"
    },
    {
      "inputs": [
        {
          "internalType": "string",
          "name": "_description",
          "type": "string"
        }
      ],
      "name": "setDescription",
      "outputs": [],
      "stateMutability": "nonpayable",
      "type": "function"
    },
    {
      "inputs": [
        {
          "internalType": "string",
          "name": "_externalUrl",
          "type": "string"
        }
      ],
      "name": "setExternalUrl",
      "outputs": [],
      "stateMutability": "nonpayable",
      "type": "function"
    },
    {
      "inputs": [
        {
          "internalType": "string",
          "name": "_imageUri",
          "type": "string"
        }
      ],
      "name": "setImageUri",
      "outputs": [],
      "stateMutability": "nonpayable",
      "type": "function"
    },
    {
      "inputs": [
        {
          "internalType": "string",
          "name": "_name",
          "type": "string"
        }
      ],
      "name": "setName",
      "outputs": [],
      "stateMutability": "nonpayable",
      "type": "function"
    },
    {
      "inputs": [
        {
          "internalType": "bytes4",
          "name": "_interfaceId",
          "type": "bytes4"
        }
      ],
      "name": "supportsInterface",
      "outputs": [
        {
          "internalType": "bool",
          "name": "",
          "type": "bool"
        }
      ],
      "stateMutability": "view",
      "type": "function"
    },
    {
      "inputs": [],
      "name": "symbol",
      "outputs": [
        {
          "internalType": "string",
          "name": "",
          "type": "string"
        }
      ],
      "stateMutability": "view",
      "type": "function"
    },
    {
      "inputs": [
        {
          "internalType": "uint256",
          "name": "",
          "type": "uint256"
        }
      ],
      "name": "tokenURI",
      "outputs": [
        {
          "internalType": "string",
          "name": "",
          "type": "string"
        }
      ],
      "stateMutability": "view",
      "type": "function"
    },
    {
      "inputs": [
        {
          "internalType": "address",
          "name": "",
          "type": "address"
        },
        {
          "internalType": "address",
          "name": "",
          "type": "address"
        },
        {
          "internalType": "uint256",
          "name": "",
          "type": "uint256"
        }
      ],
      "name": "transferFrom",
      "outputs": [],
      "stateMutability": "pure",
      "type": "function"
    },
    {
      "inputs": [
        {
          "internalType": "address",
          "name": "newOwner",
          "type": "address"
        }
      ],
      "name": "transferOwnership",
      "outputs": [],
      "stateMutability": "nonpayable",
      "type": "function"
    },
    {
      "inputs": [],
      "name": "unpause",
      "outputs": [],
      "stateMutability": "nonpayable",
      "type": "function"
    }
  ],
  "transactionHash": "0x84c1530a772f330b962cd57251dc85379c857ce574417d69358564674f5b6208",
  "args": [
    "Kleros-Certified Conflict Resolution Practitioner in Argentina",
    "SBTACPExperience",
    "Practicante de Resolución de Conflictos en Argentina, Certificado por Kleros",
    "ipfs://QmdZYU6TWTxx22zLKRRfBJqNAWxC2XT6VXkTpHh71CnpZn",
    "https://v2.kleros.builders/#/courts/29/purpose"
  ],
  "numDeployments": 1,
  "solcInputHash": "879010fb5d26aa0b100eebbfd340ce19",
  "bytecode": "0x6080604052346108dd5761278580380380610019816108e1565b92833981019060a0818303126108dd5780516001600160401b0381116108dd5782610045918301610906565b60208201519092906001600160401b0381116108dd5781610067918401610906565b60408301516001600160401b0381116108dd5782610086918501610906565b60608401519093906001600160401b0381116108dd57836100a8918301610906565b60808201519093906001600160401b0381116108dd576100c89201610906565b84519091906001600160401b038111610466575f54600181811c911680156108d3575b602082101461044857601f8111610871575b50806020601f8211600114610810575f91610805575b508160011b915f199060031b1c1916175f555b8051906001600160401b0382116104665760015490600182811c921680156107fb575b60208310146104485781601f84931161078d575b50602090601f8311600114610727575f9261071c575b50508160011b915f199060031b1c1916176001555b33156107095760068054610100600160a81b0319811633600881811b610100600160a81b0316929092179093551c6001600160a01b03167f8be0079c531659141344cd1fd0a4f28419497f9722a3daafe3b4186f6b6457e05f80a383516001600160401b03811161046657600854600181811c911680156106ff575b602082101461044857601f811161069c575b50602094601f8211600114610639579481929394955f9261062e575b50508160011b915f199060031b1c1916176008555b82516001600160401b03811161046657600954600181811c91168015610624575b602082101461044857601f81116105c1575b506020601f821160011461055e57819293945f92610553575b50508160011b915f199060031b1c1916176009555b81516001600160401b03811161046657600a54600181811c91168015610549575b602082101461044857601f81116104e6575b50602092601f821160011461048557928192935f9261047a575b50508160011b915f199060031b1c191617600a555b80516001600160401b03811161046657600b54600181811c9116801561045c575b602082101461044857601f81116103e5575b50602091601f8211600114610385579181925f9261037a575b50508160011b915f199060031b1c191617600b555b604051611e2d90816109588239f35b015190505f80610356565b601f19821692600b5f52805f20915f5b8581106103cd575083600195106103b5575b505050811b01600b5561036b565b01515f1960f88460031b161c191690555f80806103a7565b91926020600181928685015181550194019201610395565b600b5f527f0175b7a638427703f0dbe7bb9bbf987a2551717b34e79f33b5b1008d1fa01db9601f830160051c8101916020841061043e575b601f0160051c01905b818110610433575061033d565b5f8155600101610426565b909150819061041d565b634e487b7160e01b5f52602260045260245ffd5b90607f169061032b565b634e487b7160e01b5f52604160045260245ffd5b015190505f806102f5565b601f19821693600a5f52805f20915f5b8681106104ce57508360019596106104b6575b505050811b01600a5561030a565b01515f1960f88460031b161c191690555f80806104a8565b91926020600181928685015181550194019201610495565b600a5f527fc65a7bb8d6351c1cf70c95a316cc6a92839c986682d98bc35f958f4883f9d2a8601f830160051c8101916020841061053f575b601f0160051c01905b81811061053457506102db565b5f8155600101610527565b909150819061051e565b90607f16906102c9565b015190505f80610293565b601f1982169060095f52805f20915f5b8181106105a957509583600195969710610591575b505050811b016009556102a8565b01515f1960f88460031b161c191690555f8080610583565b9192602060018192868b01518155019401920161056e565b60095f527f6e1540171b6c0c960b71a7020d9f60077f6af931a8bbf590da0223dacf75c7af601f830160051c8101916020841061061a575b601f0160051c01905b81811061060f575061027a565b5f8155600101610602565b90915081906105f9565b90607f1690610268565b015190505f80610232565b601f1982169560085f52805f20915f5b8881106106845750836001959697981061066c575b505050811b01600855610247565b01515f1960f88460031b161c191690555f808061065e565b91926020600181928685015181550194019201610649565b60085f527ff3f7a9fe364faab93b216da50a3214154f22a0a2b415b23a84c8169e8b636ee3601f830160051c810191602084106106f5575b601f0160051c01905b8181106106ea5750610216565b5f81556001016106dd565b90915081906106d4565b90607f1690610204565b631e4fbdf760e01b5f525f60045260245ffd5b015190505f80610173565b60015f9081528281209350601f198516905b818110610775575090846001959493921061075d575b505050811b01600155610188565b01515f1960f88460031b161c191690555f808061074f565b92936020600181928786015181550195019301610739565b60015f529091507fb10e2d527612073b26eecdfd717e6a320cf44b4afac2b0732d9fcbe2b7fa0cf6601f840160051c810191602085106107f1575b90601f859493920160051c01905b8181106107e3575061015d565b5f81558493506001016107d6565b90915081906107c8565b91607f1691610149565b90508601515f610113565b5f8080528181209250601f198416905b81811061085957509083600194939210610841575b5050811b015f55610126565b8801515f1960f88460031b161c191690555f80610835565b9192602060018192868d015181550194019201610820565b5f80527f290decd9548b62a8d60345a988386fc84ba6bc95484008f6362f93160ef3e563601f830160051c810191602084106108c9575b601f0160051c01905b8181106108be57506100fd565b5f81556001016108b1565b90915081906108a8565b90607f16906100eb565b5f80fd5b6040519190601f01601f191682016001600160401b0381118382101761046657604052565b81601f820112156108dd578051906001600160401b03821161046657610935601f8301601f19166020016108e1565b92828452602083830101116108dd57815f9260208093018386015e830101529056fe6080806040526004361015610012575f80fd5b5f3560e01c90816301ffc9a7146118065750806306fdde0314611761578063081812fc14611724578063095ea7b31461161f5780630bf82da41461157a57806323b872dd1461155a57806326d58ad3146113c75780633f4ba83a1461134857806340d097c31461102557806342842e0e14610ff557806342966c6814610fd65780635c975abb14610fb45780636352211e14610f8557806370a0823114610f5a578063715018a614610ef05780637284e41614610e4b5780638456cb5914610df25780638da5cb5b14610dc95780638fc7348414610d2457806390c3f38f14610b9157806395d89b4114610ac7578063a22cb46514610a13578063b88d4fde146109af578063c47f00271461081c578063c758f600146107ce578063c87b56dd1461042b578063d9e5ea4d14610284578063e985e9c51461022b5763f2fde38b1461015b575f80fd5b3461022757602036600319011261022757610174611914565b61017c611ae2565b6001600160a01b0381169081156101fb576001600160a01b039074ffffffffffffffffffffffffffffffffffffffff006006549160081b1674ffffffffffffffffffffffffffffffffffffffff001982161760065560081c167f8be0079c531659141344cd1fd0a4f28419497f9722a3daafe3b4186f6b6457e05f80a3005b7f1e4fbdf7000000000000000000000000000000000000000000000000000000005f525f60045260245ffd5b5f80fd5b3461022757604036600319011261022757610244611914565b6001600160a01b0361025461192a565b91165f5260056020526001600160a01b0360405f2091165f52602052602060ff60405f2054166040519015158152f35b346102275761029236611a26565b61029a611ae2565b805167ffffffffffffffff8111610417576102b6600a54611940565b601f8111610376575b50602091601f82116001146102fb579181925f926102f0575b50505f19600383901b1c191660019190911b17600a55005b0151905082806102d8565b601f19821692600a5f527fc65a7bb8d6351c1cf70c95a316cc6a92839c986682d98bc35f958f4883f9d2a8915f5b85811061035e57508360019510610346575b505050811b01600a55005b01515f1960f88460031b161c1916905582808061033b565b91926020600181928685015181550194019201610329565b600a5f52601f820160051c7fc65a7bb8d6351c1cf70c95a316cc6a92839c986682d98bc35f958f4883f9d2a80190602083106103ef575b601f0160051c7fc65a7bb8d6351c1cf70c95a316cc6a92839c986682d98bc35f958f4883f9d2a801905b8181106103e457506102bf565b5f81556001016103d7565b7fc65a7bb8d6351c1cf70c95a316cc6a92839c986682d98bc35f958f4883f9d2a891506103ad565b634e487b7160e01b5f52604160045260245ffd5b34610227576020366003190112610227576040517f7b226e616d65223a22000000000000000000000000000000000000000000000060208201525f60085461047281611940565b90600181169081156107b3575060011461075d575b507f222c226465736372697074696f6e223a2200000000000000000000000000000081526009545f916104b982611940565b916001811690811561073f57506001146106e8575b50507f222c22696d616765223a220000000000000000000000000000000000000000008152600a545f9161050182611940565b91600181169081156106ca5750600114610673575b50507f222c202265787465726e616c5f75726c223a22000000000000000000000000008152600b545f9161054982611940565b916001811690811561064c57506001146105f2575b6105ee60206105da603d61058f8861058a6002828b61227d60f01b815203601d19810184520182611978565b611caa565b6040519384917f646174613a6170706c69636174696f6e2f6a736f6e3b6261736536342c000000828401528051918291018484015e81015f838201520301601f198101835282611978565b6040519182916020835260208301906118f0565b0390f35b600b5f908152919250907f0175b7a638427703f0dbe7bb9bbf987a2551717b34e79f33b5b1008d1fa01db95b838210610635575050016013016105da603d61055e565b60018160209254601385870101520191019061061e565b60ff191660138381019190915283151590930290910190910191506105da9050603d61055e565b600a5f908152919250907fc65a7bb8d6351c1cf70c95a316cc6a92839c986682d98bc35f958f4883f9d2a85b8382106106b357505001600b018280610516565b60018160209254600b85870101520191019061069f565b9050600b935060ff9291921916838301528015150201018280610516565b60095f908152919250907f6e1540171b6c0c960b71a7020d9f60077f6af931a8bbf590da0223dacf75c7af5b8382106107285750500160110182806104ce565b600181602092546011858701015201910190610714565b90506011935060ff92919219168383015280151502010182806104ce565b60085f9081529091507ff3f7a9fe364faab93b216da50a3214154f22a0a2b415b23a84c8169e8b636ee35b82821061079c575050810160290182610487565b600181602092546029858801015201910190610788565b90506029925060ff1916828401528015150282010182610487565b34610227576040366003190112610227576107e7611ae2565b7f6bd5c950a8d8df17f772f5af37cb3655737899cbf903264b9795592da439661c6040805160043581526024356020820152a1005b346102275761082a36611a26565b610832611ae2565b805167ffffffffffffffff81116104175761084e600854611940565b601f811161090e575b50602091601f8211600114610893579181925f92610888575b50505f19600383901b1c191660019190911b17600855005b015190508280610870565b601f1982169260085f527ff3f7a9fe364faab93b216da50a3214154f22a0a2b415b23a84c8169e8b636ee3915f5b8581106108f6575083600195106108de575b505050811b01600855005b01515f1960f88460031b161c191690558280806108d3565b919260206001819286850151815501940192016108c1565b60085f52601f820160051c7ff3f7a9fe364faab93b216da50a3214154f22a0a2b415b23a84c8169e8b636ee3019060208310610987575b601f0160051c7ff3f7a9fe364faab93b216da50a3214154f22a0a2b415b23a84c8169e8b636ee301905b81811061097c5750610857565b5f815560010161096f565b7ff3f7a9fe364faab93b216da50a3214154f22a0a2b415b23a84c8169e8b636ee39150610945565b34610227576080366003190112610227576109c8611914565b506109d161192a565b5060643567ffffffffffffffff8111610227573660238201121561022757610a039036906024816004013591016119f0565b50638882711d60e01b5f5260045ffd5b3461022757604036600319011261022757610a2c611914565b60243590811515809203610227576001600160a01b0316908115610a9b57335f52600560205260405f20825f5260205260405f2060ff1981541660ff83161790556040519081527f17307eab39ab6107e8899845ad3d59bd9653f200f220920489ca2b5937696c3160203392a3005b507f5b08ba18000000000000000000000000000000000000000000000000000000005f5260045260245ffd5b34610227575f366003190112610227576040515f600154610ae781611940565b8084529060018116908115610b6d5750600114610b0f575b6105ee836105da81850382611978565b60015f9081527fb10e2d527612073b26eecdfd717e6a320cf44b4afac2b0732d9fcbe2b7fa0cf6939250905b808210610b53575090915081016020016105da610aff565b919260018160209254838588010152019101909291610b3b565b60ff191660208086019190915291151560051b840190910191506105da9050610aff565b3461022757610b9f36611a26565b610ba7611ae2565b805167ffffffffffffffff811161041757610bc3600954611940565b601f8111610c83575b50602091601f8211600114610c08579181925f92610bfd575b50505f19600383901b1c191660019190911b17600955005b015190508280610be5565b601f1982169260095f527f6e1540171b6c0c960b71a7020d9f60077f6af931a8bbf590da0223dacf75c7af915f5b858110610c6b57508360019510610c53575b505050811b01600955005b01515f1960f88460031b161c19169055828080610c48565b91926020600181928685015181550194019201610c36565b60095f52601f820160051c7f6e1540171b6c0c960b71a7020d9f60077f6af931a8bbf590da0223dacf75c7af019060208310610cfc575b601f0160051c7f6e1540171b6c0c960b71a7020d9f60077f6af931a8bbf590da0223dacf75c7af01905b818110610cf15750610bcc565b5f8155600101610ce4565b7f6e1540171b6c0c960b71a7020d9f60077f6af931a8bbf590da0223dacf75c7af9150610cba565b34610227575f366003190112610227576040515f600b54610d4481611940565b8084529060018116908115610b6d5750600114610d6b576105ee836105da81850382611978565b600b5f9081527f0175b7a638427703f0dbe7bb9bbf987a2551717b34e79f33b5b1008d1fa01db9939250905b808210610daf575090915081016020016105da610aff565b919260018160209254838588010152019101909291610d97565b34610227575f3660031901126102275760206001600160a01b0360065460081c16604051908152f35b34610227575f36600319011261022757610e0a611ae2565b610e12611c76565b600160ff1960065416176006557f62e78cea01bee320cd4e420270b5ea74000d11b0c9f74754ebdbfc544b05a2586020604051338152a1005b34610227575f366003190112610227576040515f600954610e6b81611940565b8084529060018116908115610b6d5750600114610e92576105ee836105da81850382611978565b60095f9081527f6e1540171b6c0c960b71a7020d9f60077f6af931a8bbf590da0223dacf75c7af939250905b808210610ed6575090915081016020016105da610aff565b919260018160209254838588010152019101909291610ebe565b34610227575f36600319011261022757610f08611ae2565b5f6001600160a01b0360065474ffffffffffffffffffffffffffffffffffffffff0019811660065560081c167f8be0079c531659141344cd1fd0a4f28419497f9722a3daafe3b4186f6b6457e08280a3005b34610227576020366003190112610227576020610f7d610f78611914565b611a65565b604051908152f35b34610227576020366003190112610227576020610fa3600435611aaf565b6001600160a01b0360405191168152f35b34610227575f36600319011261022757602060ff600654166040519015158152f35b3461022757602036600319011261022757610ff333600435611b25565b005b34610227576110033661199a565b5050505f604051611015602082611978565b52638882711d60e01b5f5260045ffd5b346102275760203660031901126102275761103e611914565b611046611ae2565b61104f81611a65565b6112dd576007545f1981146112c957600181016007556020906040516110758382611978565b5f81526001600160a01b0384169384156112b657611091611c76565b825f52600284526001600160a01b0360405f2054168015159081611280575b865f526003865260405f2060018154019055845f526002865260405f20876001600160a01b03198254161790558487827fddf252ad1be2c89b69c2b068fc378daa952ba7f163c4a11628f55a4df523b3ef5f80a450611254573b611141575b507ff8e1a15aba9398e019f0b49df1a4fde98ee17ae345cb5f6b5e2c27f5033e8ce782604051838152a1604051908152f35b8261117a9160405180938192630a85bd0160e11b83523360048401525f60248401528660448401526080606484015260848301906118f0565b03815f885af15f9181611214575b506111dd5750503d156111d5573d906111a0826119d4565b916111ae6040519384611978565b82523d5f8284013e5b815191826111d25783633250574960e11b5f5260045260245ffd5b01fd5b6060906111b7565b6001600160e01b0319630a85bd0160e11b91949293941603611202575081908361110f565b633250574960e11b5f5260045260245ffd5b9091508381813d831161124d575b61122c8183611978565b8101031261022757516001600160e01b031981168103610227579085611188565b503d611222565b7f73c6ac6e000000000000000000000000000000000000000000000000000000005f525f60045260245ffd5b61129f855f52600460205260405f206001600160a01b03198154169055565b805f526003865260405f205f1981540190556110b0565b633250574960e11b5f525f60045260245ffd5b634e487b7160e01b5f52601160045260245ffd5b60405162461bcd60e51b815260206004820152602760248201527f416464726573732073686f756c64206e6f7420616c726561647920686176652060448201527f6120746f6b656e000000000000000000000000000000000000000000000000006064820152608490fd5b34610227575f36600319011261022757611360611ae2565b60065460ff81161561139f5760ff19166006557f5db9ee0a495bf2e6ff9c91a7834c1ba4fdd244a5e8aa4e537bd38aeae4b073aa6020604051338152a1005b7f8dfc202b000000000000000000000000000000000000000000000000000000005f5260045ffd5b34610227576113d536611a26565b6113dd611ae2565b805167ffffffffffffffff8111610417576113f9600b54611940565b601f81116114b9575b50602091601f821160011461143e579181925f92611433575b50505f19600383901b1c191660019190911b17600b55005b01519050828061141b565b601f19821692600b5f527f0175b7a638427703f0dbe7bb9bbf987a2551717b34e79f33b5b1008d1fa01db9915f5b8581106114a157508360019510611489575b505050811b01600b55005b01515f1960f88460031b161c1916905582808061147e565b9192602060018192868501518155019401920161146c565b600b5f52601f820160051c7f0175b7a638427703f0dbe7bb9bbf987a2551717b34e79f33b5b1008d1fa01db9019060208310611532575b601f0160051c7f0175b7a638427703f0dbe7bb9bbf987a2551717b34e79f33b5b1008d1fa01db901905b8181106115275750611402565b5f815560010161151a565b7f0175b7a638427703f0dbe7bb9bbf987a2551717b34e79f33b5b1008d1fa01db991506114f0565b34610227576115683661199a565b505050638882711d60e01b5f5260045ffd5b34610227575f366003190112610227576040515f600a5461159a81611940565b8084529060018116908115610b6d57506001146115c1576105ee836105da81850382611978565b600a5f9081527fc65a7bb8d6351c1cf70c95a316cc6a92839c986682d98bc35f958f4883f9d2a8939250905b808210611605575090915081016020016105da610aff565b9192600181602092548385880101520191019092916115ed565b3461022757604036600319011261022757611638611914565b60243561164481611aaf565b33151580611711575b806116de575b6116b25781906001600160a01b0380851691167f8c5be1e5ebec7d5bd14f71427d1e84f3dd0314c0f7b2291e5b200ac8c7c3b9255f80a45f5260046020526001600160a01b0360405f2091166001600160a01b03198254161790555f80f35b7fa9fbf51f000000000000000000000000000000000000000000000000000000005f523360045260245ffd5b506001600160a01b0381165f52600560205260405f206001600160a01b0333165f5260205260ff60405f20541615611653565b50336001600160a01b038216141561164d565b346102275760203660031901126102275760043561174181611aaf565b505f52600460205260206001600160a01b0360405f205416604051908152f35b34610227575f366003190112610227576040515f60085461178181611940565b8084529060018116908115610b6d57506001146117a8576105ee836105da81850382611978565b60085f9081527ff3f7a9fe364faab93b216da50a3214154f22a0a2b415b23a84c8169e8b636ee3939250905b8082106117ec575090915081016020016105da610aff565b9192600181602092548385880101520191019092916117d4565b3461022757602036600319011261022757600435906001600160e01b0319821680920361022757817f490649060000000000000000000000000000000000000000000000000000000060209314908115611862575b5015158152f35b7f80ac58cd000000000000000000000000000000000000000000000000000000008114915081156118c6575b811561189c575b508361185b565b7f01ffc9a70000000000000000000000000000000000000000000000000000000091501483611895565b7f5b5e139f000000000000000000000000000000000000000000000000000000008114915061188e565b805180835260209291819084018484015e5f828201840152601f01601f1916010190565b600435906001600160a01b038216820361022757565b602435906001600160a01b038216820361022757565b90600182811c9216801561196e575b602083101461195a57565b634e487b7160e01b5f52602260045260245ffd5b91607f169161194f565b90601f8019910116810190811067ffffffffffffffff82111761041757604052565b6060906003190112610227576004356001600160a01b038116810361022757906024356001600160a01b0381168103610227579060443590565b67ffffffffffffffff811161041757601f01601f191660200190565b9291926119fc826119d4565b91611a0a6040519384611978565b829481845281830111610227578281602093845f960137010152565b6020600319820112610227576004359067ffffffffffffffff8211610227578060238301121561022757816024611a62936004013591016119f0565b90565b6001600160a01b03168015611a83575f52600360205260405f205490565b7f89c62b64000000000000000000000000000000000000000000000000000000005f525f60045260245ffd5b805f5260026020526001600160a01b0360405f205416908115611ad0575090565b637e27328960e01b5f5260045260245ffd5b6001600160a01b0360065460081c163303611af957565b7f118cdaa7000000000000000000000000000000000000000000000000000000005f523360045260245ffd5b611b2d611c76565b805f5260026020526001600160a01b038060405f205416921680151580611bd1575b505081611b9a575b805f52600260205260405f206001600160a01b031981541690555f827fddf252ad1be2c89b69c2b068fc378daa952ba7f163c4a11628f55a4df523b3ef8280a490565b611bb9815f52600460205260405f206001600160a01b03198154169055565b815f52600360205260405f205f198154019055611b57565b80611c28575b15611be25780611b4f565b82611bfa5750637e27328960e01b5f5260045260245ffd5b7f177e802f000000000000000000000000000000000000000000000000000000005f5260045260245260445ffd5b508083148015611c56575b80611bd75750815f526004602052806001600160a01b0360405f20541614611bd7565b50825f52600560205260405f20815f5260205260ff60405f205416611c33565b60ff60065416611c8257565b7fd93c0665000000000000000000000000000000000000000000000000000000005f5260045ffd5b90815115611de1578151600281018091116112c95760039004908160021b917f3fffffffffffffffffffffffffffffffffffffffffffffffffffffffffffffff8116036112c957604051917f4142434445464748494a4b4c4d4e4f505152535455565758595a616263646566601f527f6768696a6b6c6d6e6f707172737475767778797a303132333435363738392b2f603f52602083018480518101602081018051915f82525b808910611da55750602095969750906003929152510680600114611d9057600214611d83575b50808452830101604052565b603d905f1901535f611d77565b50603d90815f1982015360011901535f611d77565b939760036004910198603f8a51818160121c165183538181600c1c16516001840153818160061c16516002840153165160038201530193611d51565b9050604051611df1602082611978565b5f81529056fea2646970667358221220e7cbf999c71f3d1f7b53d1159d913d8f8efb7b875f456b8ebcbf0e2b4d35120964736f6c634300081e0033",
  "devdoc": {
    "errors": {
      "ERC721IncorrectOwner(address,uint256,address)": [
        {
          "details": "Indicates an error related to the ownership over a particular token. Used in transfers.",
          "params": {
            "owner": "Address of the current owner of a token.",
            "sender": "Address whose tokens are being transferred.",
            "tokenId": "Identifier number of a token."
          }
        }
      ],
      "ERC721InsufficientApproval(address,uint256)": [
        {
          "details": "Indicates a failure with the `operator`’s approval. Used in transfers.",
          "params": {
            "operator": "Address that may be allowed to operate on tokens without being their owner.",
            "tokenId": "Identifier number of a token."
          }
        }
      ],
      "ERC721InvalidApprover(address)": [
        {
          "details": "Indicates a failure with the `approver` of a token to be approved. Used in approvals.",
          "params": {
            "approver": "Address initiating an approval operation."
          }
        }
      ],
      "ERC721InvalidOperator(address)": [
        {
          "details": "Indicates a failure with the `operator` to be approved. Used in approvals.",
          "params": {
            "operator": "Address that may be allowed to operate on tokens without being their owner."
          }
        }
      ],
      "ERC721InvalidOwner(address)": [
        {
          "details": "Indicates that an address can't be an owner. For example, `address(0)` is a forbidden owner in ERC-721. Used in balance queries.",
          "params": {
            "owner": "Address of the current owner of a token."
          }
        }
      ],
      "ERC721InvalidReceiver(address)": [
        {
          "details": "Indicates a failure with the token `receiver`. Used in transfers.",
          "params": {
            "receiver": "Address to which tokens are being transferred."
          }
        }
      ],
      "ERC721InvalidSender(address)": [
        {
          "details": "Indicates a failure with the token `sender`. Used in transfers.",
          "params": {
            "sender": "Address whose tokens are being transferred."
          }
        }
      ],
      "ERC721NonexistentToken(uint256)": [
        {
          "details": "Indicates a `tokenId` whose `owner` is the zero address.",
          "params": {
            "tokenId": "Identifier number of a token."
          }
        }
      ],
      "EnforcedPause()": [
        {
          "details": "The operation failed because the contract is paused."
        }
      ],
      "ExpectedPause()": [
        {
          "details": "The operation failed because the contract is not paused."
        }
      ],
      "OwnableInvalidOwner(address)": [
        {
          "details": "The owner is not a valid owner account. (eg. `address(0)`)"
        }
      ],
      "OwnableUnauthorizedAccount(address)": [
        {
          "details": "The caller account is not authorized to perform an operation."
        }
      ]
    },
    "events": {
      "Approval(address,address,uint256)": {
        "details": "Emitted when `owner` enables `approved` to manage the `tokenId` token."
      },
      "ApprovalForAll(address,address,bool)": {
        "details": "Emitted when `owner` enables or disables (`approved`) `operator` to manage all of its assets."
      },
      "BatchMetadataUpdate(uint256,uint256)": {
        "details": "This event emits when the metadata of a range of tokens is changed. So that the third-party platforms such as NFT market could timely update the images and related attributes of the NFTs."
      },
      "MetadataUpdate(uint256)": {
        "details": "This event emits when the metadata of a token is changed. So that the third-party platforms such as NFT market could timely update the images and related attributes of the NFT."
      },
      "Paused(address)": {
        "details": "Emitted when the pause is triggered by `account`."
      },
      "Transfer(address,address,uint256)": {
        "details": "Emitted when `tokenId` token is transferred from `from` to `to`."
      },
      "Unpaused(address)": {
        "details": "Emitted when the pause is lifted by `account`."
      }
    },
    "kind": "dev",
    "methods": {
      "approve(address,uint256)": {
        "details": "Gives permission to `to` to transfer `tokenId` token to another account. The approval is cleared when the token is transferred. Only a single account can be approved at a time, so approving the zero address clears previous approvals. Requirements: - The caller must own the token or be an approved operator. - `tokenId` must exist. Emits an {Approval} event."
      },
      "balanceOf(address)": {
        "details": "Returns the number of tokens in ``owner``'s account."
      },
      "burn(uint256)": {
        "details": "Burns `tokenId`. See {ERC721-_burn}. Requirements: - The caller must own `tokenId` or be an approved operator."
      },
      "getApproved(uint256)": {
        "details": "Returns the account approved for `tokenId` token. Requirements: - `tokenId` must exist."
      },
      "isApprovedForAll(address,address)": {
        "details": "Returns if the `operator` is allowed to manage all of the assets of `owner`. See {setApprovalForAll}"
      },
      "name()": {
        "details": "Returns the token collection name."
      },
      "owner()": {
        "details": "Returns the address of the current owner."
      },
      "ownerOf(uint256)": {
        "details": "Returns the owner of the `tokenId` token. Requirements: - `tokenId` must exist."
      },
      "paused()": {
        "details": "Returns true if the contract is paused, and false otherwise."
      },
      "renounceOwnership()": {
        "details": "Leaves the contract without owner. It will not be possible to call `onlyOwner` functions. Can only be called by the current owner. NOTE: Renouncing ownership will leave the contract without an owner, thereby disabling any functionality that is only available to the owner."
      },
      "safeTransferFrom(address,address,uint256)": {
        "details": "Safely transfers `tokenId` token from `from` to `to`, checking first that contract recipients are aware of the ERC-721 protocol to prevent tokens from being forever locked. Requirements: - `from` cannot be the zero address. - `to` cannot be the zero address. - `tokenId` token must exist and be owned by `from`. - If the caller is not `from`, it must have been allowed to move this token by either {approve} or   {setApprovalForAll}. - If `to` refers to a smart contract, it must implement {IERC721Receiver-onERC721Received}, which is called upon   a safe transfer. Emits a {Transfer} event."
      },
      "setApprovalForAll(address,bool)": {
        "details": "Approve or remove `operator` as an operator for the caller. Operators can call {transferFrom} or {safeTransferFrom} for any token owned by the caller. Requirements: - The `operator` cannot be the address zero. Emits an {ApprovalForAll} event."
      },
      "symbol()": {
        "details": "Returns the token collection symbol."
      },
      "transferOwnership(address)": {
        "details": "Transfers ownership of the contract to a new account (`newOwner`). Can only be called by the current owner."
      }
    },
    "version": 1
  },
  "userdoc": {
    "kind": "user",
    "methods": {},
    "version": 1
  },
  "storageLayout": {
    "storage": [
      {
        "astId": 349,
        "contract": "src/token/SBT.sol:SBT",
        "label": "_name",
        "offset": 0,
        "slot": "0",
        "type": "t_string_storage"
      },
      {
        "astId": 351,
        "contract": "src/token/SBT.sol:SBT",
        "label": "_symbol",
        "offset": 0,
        "slot": "1",
        "type": "t_string_storage"
      },
      {
        "astId": 355,
        "contract": "src/token/SBT.sol:SBT",
        "label": "_owners",
        "offset": 0,
        "slot": "2",
        "type": "t_mapping(t_uint256,t_address)"
      },
      {
        "astId": 359,
        "contract": "src/token/SBT.sol:SBT",
        "label": "_balances",
        "offset": 0,
        "slot": "3",
        "type": "t_mapping(t_address,t_uint256)"
      },
      {
        "astId": 363,
        "contract": "src/token/SBT.sol:SBT",
        "label": "_tokenApprovals",
        "offset": 0,
        "slot": "4",
        "type": "t_mapping(t_uint256,t_address)"
      },
      {
        "astId": 369,
        "contract": "src/token/SBT.sol:SBT",
        "label": "_operatorApprovals",
        "offset": 0,
        "slot": "5",
        "type": "t_mapping(t_address,t_mapping(t_address,t_bool))"
      },
      {
        "astId": 2563,
        "contract": "src/token/SBT.sol:SBT",
        "label": "_paused",
        "offset": 0,
        "slot": "6",
        "type": "t_bool"
      },
      {
        "astId": 8,
        "contract": "src/token/SBT.sol:SBT",
        "label": "_owner",
        "offset": 1,
        "slot": "6",
        "type": "t_address"
      },
      {
        "astId": 7764,
        "contract": "src/token/SBT.sol:SBT",
        "label": "__nextTokenId",
        "offset": 0,
        "slot": "7",
        "type": "t_uint256"
      },
      {
        "astId": 7766,
        "contract": "src/token/SBT.sol:SBT",
        "label": "__name",
        "offset": 0,
        "slot": "8",
        "type": "t_string_storage"
      },
      {
        "astId": 7768,
        "contract": "src/token/SBT.sol:SBT",
        "label": "description",
        "offset": 0,
        "slot": "9",
        "type": "t_string_storage"
      },
      {
        "astId": 7770,
        "contract": "src/token/SBT.sol:SBT",
        "label": "imageUri",
        "offset": 0,
        "slot": "10",
        "type": "t_string_storage"
      },
      {
        "astId": 7772,
        "contract": "src/token/SBT.sol:SBT",
        "label": "externalUrl",
        "offset": 0,
        "slot": "11",
        "type": "t_string_storage"
      }
    ],
    "types": {
      "t_address": {
        "encoding": "inplace",
        "label": "address",
        "numberOfBytes": "20"
      },
      "t_bool": {
        "encoding": "inplace",
        "label": "bool",
        "numberOfBytes": "1"
      },
      "t_mapping(t_address,t_bool)": {
        "encoding": "mapping",
        "key": "t_address",
        "label": "mapping(address => bool)",
        "numberOfBytes": "32",
        "value": "t_bool"
      },
      "t_mapping(t_address,t_mapping(t_address,t_bool))": {
        "encoding": "mapping",
        "key": "t_address",
        "label": "mapping(address => mapping(address => bool))",
        "numberOfBytes": "32",
        "value": "t_mapping(t_address,t_bool)"
      },
      "t_mapping(t_address,t_uint256)": {
        "encoding": "mapping",
        "key": "t_address",
        "label": "mapping(address => uint256)",
        "numberOfBytes": "32",
        "value": "t_uint256"
      },
      "t_mapping(t_uint256,t_address)": {
        "encoding": "mapping",
        "key": "t_uint256",
        "label": "mapping(uint256 => address)",
        "numberOfBytes": "32",
        "value": "t_address"
      },
      "t_string_storage": {
        "encoding": "bytes",
        "label": "string",
        "numberOfBytes": "32"
      },
      "t_uint256": {
        "encoding": "inplace",
        "label": "uint256",
        "numberOfBytes": "32"
      }
    }
  }
}