{
  "address": "0xf327200420F21BAafce8F1C03B1EEdF926074B95",
  "abi": [
    {
      "inputs": [],
      "stateMutability": "nonpayable",
      "type": "constructor"
    },
    {
      "inputs": [],
      "name": "AlreadyInitialized",
      "type": "error"
    },
    {
      "inputs": [],
      "name": "FailedDelegateCall",
      "type": "error"
    },
    {
      "inputs": [
        {
          "internalType": "address",
          "name": "implementation",
          "type": "address"
        }
      ],
      "name": "InvalidImplementation",
      "type": "error"
    },
    {
      "inputs": [],
      "name": "NotInitializing",
      "type": "error"
    },
    {
      "inputs": [],
      "name": "UUPSUnauthorizedCallContext",
      "type": "error"
    },
    {
      "inputs": [
        {
          "internalType": "bytes32",
          "name": "slot",
          "type": "bytes32"
        }
      ],
      "name": "UUPSUnsupportedProxiableUUID",
      "type": "error"
    },
    {
      "anonymous": false,
      "inputs": [
        {
          "indexed": false,
          "internalType": "uint64",
          "name": "version",
          "type": "uint64"
        }
      ],
      "name": "Initialized",
      "type": "event"
    },
    {
      "anonymous": false,
      "inputs": [
        {
          "indexed": false,
          "internalType": "enum ISortitionModule.Phase",
          "name": "_phase",
          "type": "uint8"
        }
      ],
      "name": "NewPhase",
      "type": "event"
    },
    {
      "anonymous": false,
      "inputs": [
        {
          "indexed": true,
          "internalType": "address",
          "name": "_address",
          "type": "address"
        },
        {
          "indexed": false,
          "internalType": "uint256",
          "name": "_courtID",
          "type": "uint256"
        },
        {
          "indexed": false,
          "internalType": "uint256",
          "name": "_amount",
          "type": "uint256"
        }
      ],
      "name": "StakeDelayedAlreadyTransferred",
      "type": "event"
    },
    {
      "anonymous": false,
      "inputs": [
        {
          "indexed": true,
          "internalType": "address",
          "name": "_address",
          "type": "address"
        },
        {
          "indexed": true,
          "internalType": "uint96",
          "name": "_courtID",
          "type": "uint96"
        },
        {
          "indexed": false,
          "internalType": "uint256",
          "name": "_amount",
          "type": "uint256"
        }
      ],
      "name": "StakeDelayedAlreadyTransferredWithdrawn",
      "type": "event"
    },
    {
      "anonymous": false,
      "inputs": [
        {
          "indexed": true,
          "internalType": "address",
          "name": "_address",
          "type": "address"
        },
        {
          "indexed": false,
          "internalType": "uint256",
          "name": "_courtID",
          "type": "uint256"
        },
        {
          "indexed": false,
          "internalType": "uint256",
          "name": "_amount",
          "type": "uint256"
        }
      ],
      "name": "StakeDelayedNotTransferred",
      "type": "event"
    },
    {
      "anonymous": false,
      "inputs": [
        {
          "indexed": true,
          "internalType": "address",
          "name": "_address",
          "type": "address"
        },
        {
          "indexed": false,
          "internalType": "uint256",
          "name": "_relativeAmount",
          "type": "uint256"
        },
        {
          "indexed": false,
          "internalType": "bool",
          "name": "_unlock",
          "type": "bool"
        }
      ],
      "name": "StakeLocked",
      "type": "event"
    },
    {
      "anonymous": false,
      "inputs": [
        {
          "indexed": true,
          "internalType": "address",
          "name": "_address",
          "type": "address"
        },
        {
          "indexed": false,
          "internalType": "uint256",
          "name": "_courtID",
          "type": "uint256"
        },
        {
          "indexed": false,
          "internalType": "uint256",
          "name": "_amount",
          "type": "uint256"
        }
      ],
      "name": "StakeSet",
      "type": "event"
    },
    {
      "anonymous": false,
      "inputs": [
        {
          "indexed": true,
          "internalType": "address",
          "name": "newImplementation",
          "type": "address"
        }
      ],
      "name": "Upgraded",
      "type": "event"
    },
    {
      "inputs": [
        {
          "internalType": "uint256",
          "name": "_maxDrawingTime",
          "type": "uint256"
        }
      ],
      "name": "changeMaxDrawingTime",
      "outputs": [],
      "stateMutability": "nonpayable",
      "type": "function"
    },
    {
      "inputs": [
        {
          "internalType": "uint256",
          "name": "_maxStakePerJuror",
          "type": "uint256"
        }
      ],
      "name": "changeMaxStakePerJuror",
      "outputs": [],
      "stateMutability": "nonpayable",
      "type": "function"
    },
    {
      "inputs": [
        {
          "internalType": "uint256",
          "name": "_maxTotalStaked",
          "type": "uint256"
        }
      ],
      "name": "changeMaxTotalStaked",
      "outputs": [],
      "stateMutability": "nonpayable",
      "type": "function"
    },
    {
      "inputs": [
        {
          "internalType": "uint256",
          "name": "_minStakingTime",
          "type": "uint256"
        }
      ],
      "name": "changeMinStakingTime",
      "outputs": [],
      "stateMutability": "nonpayable",
      "type": "function"
    },
    {
      "inputs": [
        {
          "internalType": "contract RNG",
          "name": "_rng",
          "type": "address"
        },
        {
          "internalType": "uint256",
          "name": "_rngLookahead",
          "type": "uint256"
        }
      ],
      "name": "changeRandomNumberGenerator",
      "outputs": [],
      "stateMutability": "nonpayable",
      "type": "function"
    },
    {
      "inputs": [],
      "name": "core",
      "outputs": [
        {
          "internalType": "contract KlerosCore",
          "name": "",
          "type": "address"
        }
      ],
      "stateMutability": "view",
      "type": "function"
    },
    {
      "inputs": [
        {
          "internalType": "uint256",
          "name": "",
          "type": "uint256"
        },
        {
          "internalType": "uint256",
          "name": "",
          "type": "uint256"
        }
      ],
      "name": "createDisputeHook",
      "outputs": [],
      "stateMutability": "nonpayable",
      "type": "function"
    },
    {
      "inputs": [
        {
          "internalType": "bytes32",
          "name": "_key",
          "type": "bytes32"
        },
        {
          "internalType": "bytes",
          "name": "_extraData",
          "type": "bytes"
        }
      ],
      "name": "createTree",
      "outputs": [],
      "stateMutability": "nonpayable",
      "type": "function"
    },
    {
      "inputs": [],
      "name": "delayedStakeReadIndex",
      "outputs": [
        {
          "internalType": "uint256",
          "name": "",
          "type": "uint256"
        }
      ],
      "stateMutability": "view",
      "type": "function"
    },
    {
      "inputs": [],
      "name": "delayedStakeWriteIndex",
      "outputs": [
        {
          "internalType": "uint256",
          "name": "",
          "type": "uint256"
        }
      ],
      "stateMutability": "view",
      "type": "function"
    },
    {
      "inputs": [
        {
          "internalType": "uint256",
          "name": "",
          "type": "uint256"
        }
      ],
      "name": "delayedStakes",
      "outputs": [
        {
          "internalType": "address",
          "name": "account",
          "type": "address"
        },
        {
          "internalType": "uint96",
          "name": "courtID",
          "type": "uint96"
        },
        {
          "internalType": "uint256",
          "name": "stake",
          "type": "uint256"
        },
        {
          "internalType": "bool",
          "name": "alreadyTransferred",
          "type": "bool"
        }
      ],
      "stateMutability": "view",
      "type": "function"
    },
    {
      "inputs": [],
      "name": "disputesWithoutJurors",
      "outputs": [
        {
          "internalType": "uint256",
          "name": "",
          "type": "uint256"
        }
      ],
      "stateMutability": "view",
      "type": "function"
    },
    {
      "inputs": [
        {
          "internalType": "bytes32",
          "name": "_key",
          "type": "bytes32"
        },
        {
          "internalType": "uint256",
          "name": "_coreDisputeID",
          "type": "uint256"
        },
        {
          "internalType": "uint256",
          "name": "_nonce",
          "type": "uint256"
        }
      ],
      "name": "draw",
      "outputs": [
        {
          "internalType": "address",
          "name": "drawnAddress",
          "type": "address"
        }
      ],
      "stateMutability": "view",
      "type": "function"
    },
    {
      "inputs": [
        {
          "internalType": "uint256",
          "name": "_iterations",
          "type": "uint256"
        }
      ],
      "name": "executeDelayedStakes",
      "outputs": [],
      "stateMutability": "nonpayable",
      "type": "function"
    },
    {
      "inputs": [
        {
          "internalType": "address",
          "name": "_juror",
          "type": "address"
        },
        {
          "internalType": "uint96",
          "name": "_courtID",
          "type": "uint96"
        }
      ],
      "name": "getJurorBalance",
      "outputs": [
        {
          "internalType": "uint256",
          "name": "totalStaked",
          "type": "uint256"
        },
        {
          "internalType": "uint256",
          "name": "totalLocked",
          "type": "uint256"
        },
        {
          "internalType": "uint256",
          "name": "stakedInCourt",
          "type": "uint256"
        },
        {
          "internalType": "uint256",
          "name": "nbCourts",
          "type": "uint256"
        }
      ],
      "stateMutability": "view",
      "type": "function"
    },
    {
      "inputs": [
        {
          "internalType": "address",
          "name": "_juror",
          "type": "address"
        }
      ],
      "name": "getJurorCourtIDs",
      "outputs": [
        {
          "internalType": "uint96[]",
          "name": "",
          "type": "uint96[]"
        }
      ],
      "stateMutability": "view",
      "type": "function"
    },
    {
      "inputs": [],
      "name": "governor",
      "outputs": [
        {
          "internalType": "address",
          "name": "",
          "type": "address"
        }
      ],
      "stateMutability": "view",
      "type": "function"
    },
    {
      "inputs": [
        {
          "internalType": "address",
          "name": "_governor",
          "type": "address"
        },
        {
          "internalType": "contract KlerosCore",
          "name": "_core",
          "type": "address"
        },
        {
          "internalType": "uint256",
          "name": "_minStakingTime",
          "type": "uint256"
        },
        {
          "internalType": "uint256",
          "name": "_maxDrawingTime",
          "type": "uint256"
        },
        {
          "internalType": "contract RNG",
          "name": "_rng",
          "type": "address"
        },
        {
          "internalType": "uint256",
          "name": "_rngLookahead",
          "type": "uint256"
        },
        {
          "internalType": "uint256",
          "name": "_maxStakePerJuror",
          "type": "uint256"
        },
        {
          "internalType": "uint256",
          "name": "_maxTotalStaked",
          "type": "uint256"
        }
      ],
      "name": "initialize",
      "outputs": [],
      "stateMutability": "nonpayable",
      "type": "function"
    },
    {
      "inputs": [
        {
          "internalType": "address",
          "name": "_juror",
          "type": "address"
        }
      ],
      "name": "isJurorStaked",
      "outputs": [
        {
          "internalType": "bool",
          "name": "",
          "type": "bool"
        }
      ],
      "stateMutability": "view",
      "type": "function"
    },
    {
      "inputs": [
        {
          "internalType": "address",
          "name": "",
          "type": "address"
        }
      ],
      "name": "jurors",
      "outputs": [
        {
          "internalType": "uint256",
          "name": "stakedPnk",
          "type": "uint256"
        },
        {
          "internalType": "uint256",
          "name": "lockedPnk",
          "type": "uint256"
        }
      ],
      "stateMutability": "view",
      "type": "function"
    },
    {
      "inputs": [],
      "name": "lastPhaseChange",
      "outputs": [
        {
          "internalType": "uint256",
          "name": "",
          "type": "uint256"
        }
      ],
      "stateMutability": "view",
      "type": "function"
    },
    {
      "inputs": [
        {
          "internalType": "address",
          "name": "",
          "type": "address"
        },
        {
          "internalType": "uint96",
          "name": "",
          "type": "uint96"
        }
      ],
      "name": "latestDelayedStakeIndex",
      "outputs": [
        {
          "internalType": "uint256",
          "name": "",
          "type": "uint256"
        }
      ],
      "stateMutability": "view",
      "type": "function"
    },
    {
      "inputs": [
        {
          "internalType": "address",
          "name": "_account",
          "type": "address"
        },
        {
          "internalType": "uint256",
          "name": "_relativeAmount",
          "type": "uint256"
        }
      ],
      "name": "lockStake",
      "outputs": [],
      "stateMutability": "nonpayable",
      "type": "function"
    },
    {
      "inputs": [],
      "name": "maxDrawingTime",
      "outputs": [
        {
          "internalType": "uint256",
          "name": "",
          "type": "uint256"
        }
      ],
      "stateMutability": "view",
      "type": "function"
    },
    {
      "inputs": [],
      "name": "maxStakePerJuror",
      "outputs": [
        {
          "internalType": "uint256",
          "name": "",
          "type": "uint256"
        }
      ],
      "stateMutability": "view",
      "type": "function"
    },
    {
      "inputs": [],
      "name": "maxTotalStaked",
      "outputs": [
        {
          "internalType": "uint256",
          "name": "",
          "type": "uint256"
        }
      ],
      "stateMutability": "view",
      "type": "function"
    },
    {
      "inputs": [],
      "name": "minStakingTime",
      "outputs": [
        {
          "internalType": "uint256",
          "name": "",
          "type": "uint256"
        }
      ],
      "stateMutability": "view",
      "type": "function"
    },
    {
      "inputs": [
        {
          "internalType": "uint256",
          "name": "_randomNumber",
          "type": "uint256"
        }
      ],
      "name": "notifyRandomNumber",
      "outputs": [],
      "stateMutability": "nonpayable",
      "type": "function"
    },
    {
      "inputs": [],
      "name": "passPhase",
      "outputs": [],
      "stateMutability": "nonpayable",
      "type": "function"
    },
    {
      "inputs": [
        {
          "internalType": "address",
          "name": "_account",
          "type": "address"
        },
        {
          "internalType": "uint256",
          "name": "_relativeAmount",
          "type": "uint256"
        }
      ],
      "name": "penalizeStake",
      "outputs": [],
      "stateMutability": "nonpayable",
      "type": "function"
    },
    {
      "inputs": [],
      "name": "phase",
      "outputs": [
        {
          "internalType": "enum ISortitionModule.Phase",
          "name": "",
          "type": "uint8"
        }
      ],
      "stateMutability": "view",
      "type": "function"
    },
    {
      "inputs": [
        {
          "internalType": "uint256",
          "name": "",
          "type": "uint256"
        },
        {
          "internalType": "uint256",
          "name": "",
          "type": "uint256"
        }
      ],
      "name": "postDrawHook",
      "outputs": [],
      "stateMutability": "nonpayable",
      "type": "function"
    },
    {
      "inputs": [],
      "name": "proxiableUUID",
      "outputs": [
        {
          "internalType": "bytes32",
          "name": "",
          "type": "bytes32"
        }
      ],
      "stateMutability": "view",
      "type": "function"
    },
    {
      "inputs": [],
      "name": "randomNumber",
      "outputs": [
        {
          "internalType": "uint256",
          "name": "",
          "type": "uint256"
        }
      ],
      "stateMutability": "view",
      "type": "function"
    },
    {
      "inputs": [],
      "name": "randomNumberRequestBlock",
      "outputs": [
        {
          "internalType": "uint256",
          "name": "",
          "type": "uint256"
        }
      ],
      "stateMutability": "view",
      "type": "function"
    },
    {
      "inputs": [],
      "name": "rng",
      "outputs": [
        {
          "internalType": "contract RNG",
          "name": "",
          "type": "address"
        }
      ],
      "stateMutability": "view",
      "type": "function"
    },
    {
      "inputs": [],
      "name": "rngLookahead",
      "outputs": [
        {
          "internalType": "uint256",
          "name": "",
          "type": "uint256"
        }
      ],
      "stateMutability": "view",
      "type": "function"
    },
    {
      "inputs": [
        {
          "internalType": "address",
          "name": "_account",
          "type": "address"
        }
      ],
      "name": "setJurorInactive",
      "outputs": [],
      "stateMutability": "nonpayable",
      "type": "function"
    },
    {
      "inputs": [
        {
          "internalType": "address",
          "name": "_account",
          "type": "address"
        },
        {
          "internalType": "uint96",
          "name": "_courtID",
          "type": "uint96"
        },
        {
          "internalType": "uint256",
          "name": "_newStake",
          "type": "uint256"
        },
        {
          "internalType": "bool",
          "name": "_alreadyTransferred",
          "type": "bool"
        }
      ],
      "name": "setStake",
      "outputs": [
        {
          "internalType": "uint256",
          "name": "pnkDeposit",
          "type": "uint256"
        },
        {
          "internalType": "uint256",
          "name": "pnkWithdrawal",
          "type": "uint256"
        },
        {
          "internalType": "enum StakingResult",
          "name": "stakingResult",
          "type": "uint8"
        }
      ],
      "stateMutability": "nonpayable",
      "type": "function"
    },
    {
      "inputs": [
        {
          "internalType": "bytes32",
          "name": "_key",
          "type": "bytes32"
        },
        {
          "internalType": "bytes32",
          "name": "_ID",
          "type": "bytes32"
        }
      ],
      "name": "stakeOf",
      "outputs": [
        {
          "internalType": "uint256",
          "name": "",
          "type": "uint256"
        }
      ],
      "stateMutability": "view",
      "type": "function"
    },
    {
      "inputs": [
        {
          "internalType": "address",
          "name": "_juror",
          "type": "address"
        },
        {
          "internalType": "uint96",
          "name": "_courtID",
          "type": "uint96"
        }
      ],
      "name": "stakeOf",
      "outputs": [
        {
          "internalType": "uint256",
          "name": "",
          "type": "uint256"
        }
      ],
      "stateMutability": "view",
      "type": "function"
    },
    {
      "inputs": [],
      "name": "totalStaked",
      "outputs": [
        {
          "internalType": "uint256",
          "name": "",
          "type": "uint256"
        }
      ],
      "stateMutability": "view",
      "type": "function"
    },
    {
      "inputs": [
        {
          "internalType": "address",
          "name": "_account",
          "type": "address"
        },
        {
          "internalType": "uint256",
          "name": "_relativeAmount",
          "type": "uint256"
        }
      ],
      "name": "unlockStake",
      "outputs": [],
      "stateMutability": "nonpayable",
      "type": "function"
    },
    {
      "inputs": [
        {
          "internalType": "address",
          "name": "newImplementation",
          "type": "address"
        },
        {
          "internalType": "bytes",
          "name": "data",
          "type": "bytes"
        }
      ],
      "name": "upgradeToAndCall",
      "outputs": [],
      "stateMutability": "payable",
      "type": "function"
    }
  ],
  "transactionHash": "0x3f08513b7ba4a0a94f692ed916416203fb03220223ee597c1b2878dac148619e",
  "args": [],
  "numDeployments": 1,
  "solcInputHash": "47a03c54c72f5d4984b62ca6f84025dc",
  "bytecode": "0x60a0604052306080523480156200001557600080fd5b506200002062000026565b620000d9565b7ff0c57e16840df040f15088dc2f81fe391c3923bec73e23a9662efc9c229c6a0e805468010000000000000000900460ff1615620000765760405162dc149f60e41b815260040160405180910390fd5b80546001600160401b0390811614620000d65780546001600160401b0319166001600160401b0390811782556040519081527fc7f505b2f371ae2175ee4913f4499e1f2633a7b5936321eed1cdaeb6115181d29060200160405180910390a15b50565b6080516131686200010360003960008181611481015281816114aa01526116a201526131686000f3fe6080604052600436106102675760003560e01c80637dc38f1411610144578063c1572618116100b6578063dca5f6b01161007a578063dca5f6b014610731578063dd5e5cb51461077d578063e534710d1461079d578063f216de4c146107d5578063f2f4eb26146107f5578063f6b4d82d1461081557600080fd5b8063c157261814610685578063ccbac9f51461069b578063d09f392d146106b1578063d1c1df48146106d1578063d605787b1461071157600080fd5b8063a2473cc111610108578063a2473cc1146105bc578063a5861b90146105dc578063b1c9fe6e1461060b578063b5d69e9914610639578063b888adfa14610659578063c057eca71461066f57600080fd5b80637dc38f1414610530578063817b1cd214610546578063823cfd701461055c5780638d3771bb1461057c578063965af6c71461059c57600080fd5b8063498c752c116101dd578063543f8a36116101a1578063543f8a361461044c57806356acb050146104795780635a68c1541461048f5780635d2d7846146104a55780636624192f146104c557806376fa9fc51461051057600080fd5b8063498c752c146103c45780634c70a0d6146103e45780634dbbebbc146104045780634f1ef2861461042457806352d1902d1461043757600080fd5b80631b92bbbe1161022f5780631b92bbbe1461031a57806321e1625e1461033057806321ea9b3f1461035057806323f61de41461036e57806335975f4a14610384578063477a655c146103a457600080fd5b8063034327441461026c57806306dfc967146102955780630b274f2e146102b75780630c340a24146102cc5780630e083ec914610304575b600080fd5b34801561027857600080fd5b5061028260065481565b6040519081526020015b60405180910390f35b3480156102a157600080fd5b506102b56102b0366004612af8565b61087f565b005b3480156102c357600080fd5b506102b56108b7565b3480156102d857600080fd5b506000546102ec906001600160a01b031681565b6040516001600160a01b03909116815260200161028c565b34801561031057600080fd5b50610282600a5481565b34801561032657600080fd5b5061028260035481565b34801561033c57600080fd5b506102b561034b366004612b26565b610c8a565b34801561035c57600080fd5b506102b561036b366004612af8565b50565b34801561037a57600080fd5b5061028260105481565b34801561039057600080fd5b506102b561039f366004612af8565b610d2d565b3480156103b057600080fd5b506102b56103bf366004612bf5565b610f6f565b3480156103d057600080fd5b506102b56103df366004612c3c565b611066565b3480156103f057600080fd5b506102ec6103ff366004612cb4565b6111a0565b34801561041057600080fd5b506102b561041f366004612b26565b611384565b6102b5610432366004612ce0565b61146d565b34801561044357600080fd5b50610282611695565b34801561045857600080fd5b5061046c610467366004612d1a565b6116f3565b60405161028c9190612d37565b34801561048557600080fd5b50610282600b5481565b34801561049b57600080fd5b5061028260115481565b3480156104b157600080fd5b506102b56104c0366004612d84565b611791565b3480156104d157600080fd5b506105006104e0366004612d1a565b6001600160a01b03166000908152600d6020526040902060010154151590565b604051901515815260200161028c565b34801561051c57600080fd5b5061028261052b366004612d84565b6117d4565b34801561053c57600080fd5b5061028260095481565b34801561055257600080fd5b5061028260125481565b34801561056857600080fd5b506102b5610577366004612af8565b61182f565b34801561058857600080fd5b506102b5610597366004612af8565b61185e565b3480156105a857600080fd5b506102b56105b7366004612b26565b61188d565b3480156105c857600080fd5b506102826105d7366004612dbb565b611928565b3480156105e857600080fd5b506105fc6105f7366004612e02565b611952565b60405161028c93929190612e6b565b34801561061757600080fd5b5060015461062c90600160a01b900460ff1681565b60405161028c9190612e97565b34801561064557600080fd5b506102b5610654366004612d1a565b61199f565b34801561066557600080fd5b5061028260045481565b34801561067b57600080fd5b5061028260025481565b34801561069157600080fd5b5061028260055481565b3480156106a757600080fd5b5061028260085481565b3480156106bd57600080fd5b506102b56106cc366004612d84565b611a81565b3480156106dd57600080fd5b506106f16106ec366004612dbb565b611abb565b60408051948552602085019390935291830152606082015260800161028c565b34801561071d57600080fd5b506007546102ec906001600160a01b031681565b34801561073d57600080fd5b5061076861074c366004612d1a565b600d602052600090815260409020600181015460029091015482565b6040805192835260208301919091520161028c565b34801561078957600080fd5b506102b5610798366004612af8565b611afa565b3480156107a957600080fd5b506102826107b8366004612dbb565b600f60209081526000928352604080842090915290825290205481565b3480156107e157600080fd5b506102b56107f0366004612b26565b611b29565b34801561080157600080fd5b506001546102ec906001600160a01b031681565b34801561082157600080fd5b5061086f610830366004612af8565b600e602052600090815260409020805460018201546002909201546001600160a01b03821692600160a01b9092046001600160601b0316919060ff1684565b60405161028c9493929190612eb1565b6000546001600160a01b031633146108b25760405162461bcd60e51b81526004016108a990612ee2565b60405180910390fd5b601055565b6000600154600160a01b900460ff1660028111156108d7576108d7612e55565b03610a45576002546004546108ec9042612f3a565b101561094f5760405162461bcd60e51b815260206004820152602c60248201527f546865206d696e696d756d207374616b696e672074696d6520686173206e6f7460448201526b103830b9b9b2b2103cb2ba1760a11b60648201526084016108a9565b6000600654116109b15760405162461bcd60e51b815260206004820152602760248201527f546865726520617265206e6f2064697370757465732074686174206e65656420604482015266353ab937b9399760c91b60648201526084016108a9565b6007546009546001600160a01b0390911690637363ae1f906109d39043612f4d565b6040518263ffffffff1660e01b81526004016109f191815260200190565b600060405180830381600087803b158015610a0b57600080fd5b505af1158015610a1f573d6000803e3d6000fd5b505043600555505060018054819060ff60a01b1916600160a01b825b0217905550610c3f565b60018054600160a01b900460ff166002811115610a6457610a64612e55565b03610b5c576007546009546005546001600160a01b03909216916313cf905491610a8d91612f4d565b6040518263ffffffff1660e01b8152600401610aab91815260200190565b6020604051808303816000875af1158015610aca573d6000803e3d6000fd5b505050506040513d601f19601f82011682018060405250810190610aee9190612f60565b6008819055600003610b425760405162461bcd60e51b815260206004820152601e60248201527f52616e646f6d206e756d626572206973206e6f7420726561647920796574000060448201526064016108a9565b600180546002919060ff60a01b1916600160a01b83610a3b565b6002600154600160a01b900460ff166002811115610b7c57610b7c612e55565b03610c3f576006541580610b9e5750600354600454610b9b9042612f3a565b10155b610c315760405162461bcd60e51b815260206004820152605860248201527f546865726520617265207374696c6c20646973707574657320776974686f757460448201527f206a75726f727320616e6420746865206d6178696d756d2064726177696e67206064820152773a34b6b2903430b9903737ba103830b9b9b2b2103cb2ba1760411b608482015260a4016108a9565b6001805460ff60a01b191690555b426004556001546040517f31f72b44f546d9e7eaec13f65636997665e15f134a81c82924f568f5c0d07b9391610c8091600160a01b90910460ff1690612e97565b60405180910390a1565b6001546001600160a01b03163314610cb45760405162461bcd60e51b81526004016108a990612f79565b6001600160a01b0382166000908152600d602052604081206002018054839290610cdf908490612f4d565b909155505060408051828152600060208201526001600160a01b038416917f7a81a4ef419d50dbb5deb116fb983bf6ca7716bcbc84cd1cd2be81ccea9078b091015b60405180910390a25050565b6000600154600160a01b900460ff166002811115610d4d57610d4d612e55565b14610d9a5760405162461bcd60e51b815260206004820152601b60248201527f53686f756c6420626520696e205374616b696e672070686173652e000000000060448201526064016108a9565b600b54600a541015610dee5760405162461bcd60e51b815260206004820152601c60248201527f4e6f2064656c61796564207374616b6520746f20657865637574652e0000000060448201526064016108a9565b6000600a54600183600b54610e039190612f4d565b610e0d9190612f3a565b11610e185781610e33565b600b54600a54610e289190612f3a565b610e33906001612f4d565b9050600081600b54610e459190612f4d565b600b549091505b81811015610f67576000818152600e6020526040902080546001600160a01b031615610f545760018054825491830154600284015460405163fbb519e760e01b81526001600160a01b039384169463fbb519e794610ec89490821693600160a01b9092046001600160601b031692909160ff1690600401612eb1565b600060405180830381600087803b158015610ee257600080fd5b505af1158015610ef6573d6000803e3d6000fd5b505082546001600160a01b0381166000908152600f60209081526040808320600160a01b9094046001600160601b03168352928152828220829055868252600e90529081208181556001810191909155600201805460ff1916905550505b5080610f5f81612fbd565b915050610e4c565b50600b555050565b6001546001600160a01b03163314610f995760405162461bcd60e51b81526004016108a990612f79565b6000828152600c6020526040812090610fb183611ba1565b825490915015610ffa5760405162461bcd60e51b81526020600482015260146024820152732a3932b29030b63932b0b23c9032bc34b9ba399760611b60448201526064016108a9565b6001811161104a5760405162461bcd60e51b815260206004820152601b60248201527f4b206d7573742062652067726561746572207468616e206f6e652e000000000060448201526064016108a9565b8155600201805460018101825560009182526020822001555050565b7ff0c57e16840df040f15088dc2f81fe391c3923bec73e23a9662efc9c229c6a0e805460029190600160401b900460ff16806110b05750805467ffffffffffffffff808416911610155b156110cd5760405162dc149f60e41b815260040160405180910390fd5b805468ffffffffffffffffff191667ffffffffffffffff831617600160401b178155600080546001600160a01b038c81166001600160a01b031992831617909255600180548c841690831617815560028b905560038a90554260045560078054938a16939092169290921790556009869055600b5560108490556011839055805460ff60401b1916815560405167ffffffffffffffff831681527fc7f505b2f371ae2175ee4913f4499e1f2633a7b5936321eed1cdaeb6115181d29060200160405180910390a150505050505050505050565b60006002600154600160a01b900460ff1660028111156111c2576111c2612e55565b146111fe5760405162461bcd60e51b815260206004820152600c60248201526b2bb937b73390383430b9b29760a11b60448201526064016108a9565b6000848152600c602052604081206002810180549192909161122257611222612fd6565b906000526020600020015460000361123e57600091505061137d565b60008160020160008154811061125657611256612fd6565b90600052602060002001546008548686604051602001611289939291909283526020830191909152604082015260600190565b6040516020818303038152906040528051906020012060001c6112ac9190613002565b905060005b600283015483546112c3908390613016565b6112ce906001612f4d565b101561135d5760015b83548111611357576000818386600001546112f29190613016565b6112fc9190612f4d565b9050600085600201828154811061131557611315612fd6565b9060005260206000200154905080851061133a576113338186612f3a565b9450611342565b509150611357565b5050808061134f90612fbd565b9150506112d7565b506112b1565b600081815260048401602052604090205461137790611bbc565b93505050505b9392505050565b6000546001600160a01b031633146113ae5760405162461bcd60e51b81526004016108a990612ee2565b600780546001600160a01b0319166001600160a01b038416179055600981905560018054600160a01b900460ff1660028111156113ed576113ed612e55565b03611469576007546009546001600160a01b0390911690637363ae1f906114149043612f4d565b6040518263ffffffff1660e01b815260040161143291815260200190565b600060405180830381600087803b15801561144c57600080fd5b505af1158015611460573d6000803e3d6000fd5b50504360055550505b5050565b61147682611be7565b306001600160a01b037f00000000000000000000000000000000000000000000000000000000000000001614806114f457507f00000000000000000000000000000000000000000000000000000000000000006001600160a01b03166114e86000805160206131138339815191525490565b6001600160a01b031614155b156115125760405163703e46dd60e11b815260040160405180910390fd5b816001600160a01b03166352d1902d6040518163ffffffff1660e01b8152600401602060405180830381865afa92505050801561156c575060408051601f3d908101601f1916820190925261156991810190612f60565b60015b61159457604051630c76093760e01b81526001600160a01b03831660048201526024016108a9565b60008051602061311383398151915281146115c557604051632a87526960e21b8152600481018290526024016108a9565b6000805160206131138339815191528390556040516001600160a01b038416907fbc7cd75a20ee27fd9adebab32041f755214dbc6bffa90cc0225b39da2e5c2d3b90600090a2815115611690576000836001600160a01b03168360405161162c919061302d565b600060405180830381855af49150503d8060008114611667576040519150601f19603f3d011682016040523d82523d6000602084013e61166c565b606091505b505090508061168e576040516339b21b5d60e11b815260040160405180910390fd5b505b505050565b6000306001600160a01b037f000000000000000000000000000000000000000000000000000000000000000016146116e05760405163703e46dd60e11b815260040160405180910390fd5b5060008051602061311383398151915290565b6001600160a01b0381166000908152600d602090815260409182902080548351818402810184019094528084526060939283018282801561178557602002820191906000526020600020906000905b82829054906101000a90046001600160601b03166001600160601b0316815260200190600c0190602082600b010492830192600103820291508084116117425790505b50505050509050919050565b6001546001600160a01b031633146117bb5760405162461bcd60e51b81526004016108a990612f79565b600680549060006117cb8361305c565b91905055505050565b6000828152600c602090815260408083208484526003810190925282205480830361180457600092505050611829565b81600201818154811061181957611819612fd6565b9060005260206000200154925050505b92915050565b6000546001600160a01b031633146118595760405162461bcd60e51b81526004016108a990612ee2565b600255565b6000546001600160a01b031633146118885760405162461bcd60e51b81526004016108a990612ee2565b601155565b6001546001600160a01b031633146118b75760405162461bcd60e51b81526004016108a990612f79565b6001600160a01b0382166000908152600d6020526040812060020180548392906118e2908490612f3a565b909155505060408051828152600160208201526001600160a01b038416917f7a81a4ef419d50dbb5deb116fb983bf6ca7716bcbc84cd1cd2be81ccea9078b09101610d21565b6000806119358484611c11565b905061194a6001600160601b038416826117d4565b949350505050565b600154600090819081906001600160a01b031633146119835760405162461bcd60e51b81526004016108a990612f79565b61198f87878787611c59565b9199909850909650945050505050565b6001546001600160a01b031633146119c95760405162461bcd60e51b81526004016108a990612f79565b60006119d4826116f3565b80519091505b801561169057600180546001600160a01b03169063fbb519e79085908590611a029086612f3a565b81518110611a1257611a12612fd6565b60200260200101516000806040518563ffffffff1660e01b8152600401611a3c9493929190612eb1565b600060405180830381600087803b158015611a5657600080fd5b505af1158015611a6a573d6000803e3d6000fd5b505050508080611a799061305c565b9150506119da565b6001546001600160a01b03163314611aab5760405162461bcd60e51b81526004016108a990612f79565b600680549060006117cb83612fbd565b6001600160a01b0382166000908152600d6020526040812060018101546002820154909290918190611aed8787611928565b9054949793965094505050565b6000546001600160a01b03163314611b245760405162461bcd60e51b81526004016108a990612ee2565b600355565b6001546001600160a01b03163314611b535760405162461bcd60e51b81526004016108a990612f79565b6001600160a01b0382166000908152600d6020526040902060018101548211611b955781816001016000828254611b8a9190612f3a565b909155506116909050565b60006001820155505050565b60006020825110611bb457506020015190565b506006919050565b600060405160005b6014811015611bdf5783811a81600c84010153600101611bc4565b505192915050565b6000546001600160a01b0316331461036b5760405162461bcd60e51b81526004016108a990612ee2565b600060405160005b6014811015611c34578481600c011a81830153600101611c19565b5060145b6020811015611c505783811a81830153600101611c38565b50519392505050565b600154600090819081906001600160a01b03163314611c8a5760405162461bcd60e51b81526004016108a990612f79565b6000611c968888611928565b9050808611600081611cb157611cac8884612f3a565b611cbb565b611cbb8389612f3a565b6001600160a01b038b166000908152600d60205260409020909150828015611ce1575087155b15611d3e57601054828260010154611cf99190612f4d565b1115611d1357600080600696509650965050505050611db6565b60115482601254611d249190612f4d565b1115611d3e57600080600796509650965050505050611db6565b6000600154600160a01b900460ff166002811115611d5e57611d5e612e55565b03611d9e578215611d86578160126000828254611d7b9190612f4d565b90915550611d9e9050565b8160126000828254611d989190612f3a565b90915550505b611daa8b8b8b8b611dc0565b91985096509450505050505b9450945094915050565b6001600160a01b0384166000908152600d602052604081208190819081611de78989611928565b825490915087158015611e035750600481101580611e03575081155b15611e1b576000806003955095509550505050611db6565b6000600154600160a01b900460ff166002811115611e3b57611e3b612e55565b14611ff557611e4a898b612159565b94506000600e6000600a60008154611e6190612fbd565b919050819055815260200190815260200160002090508a8160000160006101000a8154816001600160a01b0302191690836001600160a01b03160217905550898160000160146101000a8154816001600160601b0302191690836001600160601b03160217905550888160010181905550600a54600f60008d6001600160a01b03166001600160a01b0316815260200190815260200160002060008c6001600160601b03166001600160601b031681526020019081526020016000208190555082891115611f995760028101805460ff19166001179055611f44848b8b86612410565b604080516001600160601b038d168152602081018c90529198506001600160a01b038d16917f792235ed84e4d70219b4fc973c509bbbdc2d3e22578dceea671f48829db949b0910160405180910390a2611fe7565b604080516001600160601b038c168152602081018b90526001600160a01b038d16917fe9a844153bbed760d95005e769b4ef97fab26f7b01305c7028a0493b833bdbae910160405180910390a25b5060009350611db692505050565b81881061201557866120105761200d838a8a85612410565b95505b61202e565b612021838a8a856124f0565b61202b9086612f4d565b94505b600061203a8b8b611c11565b905060008a5b816120f8576120596001600160601b0382168c856126e7565b6000196001600160601b038216016120745760019150612040565b600154604051630fad06e960e11b81526001600160601b03831660048201526001600160a01b0390911690631f5a0dd29060240160e060405180830381865afa1580156120c5573d6000803e3d6000fd5b505050506040513d601f19601f820116820180604052508101906120e99190613073565b50949550612040945050505050565b604080516001600160601b038e168152602081018d90526001600160a01b038f16917f4732545d01e38980276a17e6d394f01577ba63f2fea5eba41af0757d9c060c5c910160405180910390a2506000955050505050509450945094915050565b6001600160a01b0381166000908152600f602090815260408083206001600160601b03861684529091528120548015612409576000818152600e60205260409020600281015460ff16156123bc5760006121b38587611928565b905060008183600101546121c79190612f3a565b6001600160a01b0387166000908152600d6020526040902060018101549196508692509082106121f957806001015495505b8581600101600082825461220d9190612f3a565b90915550506040518281526001600160601b038916906001600160a01b038916907f1222c35b9c82812f1fda75e2b299043b079c0bb3b53d44aee1ae96a97263ca699060200160405180910390a3826000036123b85780545b80156123b6576001600160601b03891682612282600184612f3a565b8154811061229257612292612fd6565b600091825260209091206002820401546001909116600c026101000a90046001600160601b0316036123a457815482906122ce90600190612f3a565b815481106122de576122de612fd6565b600091825260209091206002820401546001918216600c026101000a90046001600160601b03169083906123129084612f3a565b8154811061232257612322612fd6565b9060005260206000209060029182820401919006600c026101000a8154816001600160601b0302191690836001600160601b031602179055508160000180548061236e5761236e6130e8565b60008281526020902060026000199092019182040180546001600160601b03600c60018516026101000a021916905590556123b6565b806123ae8161305c565b915050612266565b505b5050505b506000818152600e6020908152604080832083815560018101849055600201805460ff191690556001600160a01b0386168352600f82528083206001600160601b03881684529091528120555b5092915050565b60008085600101548660020154101561242a57600061243e565b8560010154866002015461243e9190612f3a565b905061244a8184612f4d565b84101561245857600061246d565b806124638486612f3a565b61246d9190612f3a565b9150826000036124b2578554600180820188556000888152602090206002830401805491909216600c026101000a6001600160601b0381810219909216918816021790555b82866001015410156124c457836124df565b838387600101546124d59190612f3a565b6124df9190612f4d565b866001018190555050949350505050565b60028401546000906125028484612f3a565b61250c9190612f4d565b856001015410612527576125208383612f3a565b905061254d565b846002015485600101541061254d578460020154856001015461254a9190612f3a565b90505b826000036126aa5784545b80156126a8576001600160601b03851686612574600184612f3a565b8154811061258457612584612fd6565b600091825260209091206002820401546001909116600c026101000a90046001600160601b03160361269657855486906125c090600190612f3a565b815481106125d0576125d0612fd6565b600091825260209091206002820401546001918216600c026101000a90046001600160601b03169087906126049084612f3a565b8154811061261457612614612fd6565b9060005260206000209060029182820401919006600c026101000a8154816001600160601b0302191690836001600160601b0316021790555085600001805480612660576126606130e8565b60008281526020902060026000199092019182040180546001600160601b03600c60018516026101000a021916905590556126a8565b806126a08161305c565b915050612558565b505b81856001015410156126bc57826126d7565b828286600101546126cd9190612f3a565b6126d79190612f4d565b8560010181905550949350505050565b6000838152600c602090815260408083208484526003810190925282205490918190036128b45783156128af57600182015460000361280257506002810180546001808201835560009283526020909220810185905590811480159061276157508154612755600183612f3a565b61275f9190613002565b155b156127fd57815460009061277590836130fe565b6000818152600485016020526040812054919250612794846001612f4d565b9050846002018560020184815481106127af576127af612fd6565b60009182526020808320909101548354600181018555938352818320909301929092559384526004860180825260408086208690558486526003880183528086208490559285529052909120555b61287d565b60018083018054909161281491612f3a565b8154811061282457612824612fd6565b9060005260206000200154905081600101805480612844576128446130e8565b600190038181906000526020600020016000905590558382600201828154811061287057612870612fd6565b6000918252602090912001555b600083815260038301602090815260408083208490558383526004850190915290208390556128af8582600187612a3b565b612a34565b836000036129525760008260020182815481106128d3576128d3612fd6565b9060005260206000200154905060008360020183815481106128f7576128f7612fd6565b600091825260208083209091019290925560018086018054918201815582528282200184905585815260038501825260408082208290558482526004860190925290812081905561294c908790849084612a3b565b50612a34565b81600201818154811061296757612967612fd6565b90600052602060002001548414612a345760008483600201838154811061299057612990612fd6565b9060005260206000200154111590506000816129d657858460020184815481106129bc576129bc612fd6565b90600052602060002001546129d19190612f3a565b612a01565b8360020183815481106129eb576129eb612fd6565b906000526020600020015486612a019190612f3a565b905085846002018481548110612a1957612a19612fd6565b600091825260209091200155612a3187848484612a3b565b50505b5050505050565b6000848152600c60205260409020835b8015612af0578154612a5e600183612f3a565b612a6891906130fe565b905083612a9f5782826002018281548110612a8557612a85612fd6565b9060005260206000200154612a9a9190612f3a565b612aca565b82826002018281548110612ab557612ab5612fd6565b9060005260206000200154612aca9190612f4d565b826002018281548110612adf57612adf612fd6565b600091825260209091200155612a4b565b505050505050565b600060208284031215612b0a57600080fd5b5035919050565b6001600160a01b038116811461036b57600080fd5b60008060408385031215612b3957600080fd5b8235612b4481612b11565b946020939093013593505050565b634e487b7160e01b600052604160045260246000fd5b600082601f830112612b7957600080fd5b813567ffffffffffffffff80821115612b9457612b94612b52565b604051601f8301601f19908116603f01168101908282118183101715612bbc57612bbc612b52565b81604052838152866020858801011115612bd557600080fd5b836020870160208301376000602085830101528094505050505092915050565b60008060408385031215612c0857600080fd5b82359150602083013567ffffffffffffffff811115612c2657600080fd5b612c3285828601612b68565b9150509250929050565b600080600080600080600080610100898b031215612c5957600080fd5b8835612c6481612b11565b97506020890135612c7481612b11565b965060408901359550606089013594506080890135612c9281612b11565b979a969950949793969560a0850135955060c08501359460e001359350915050565b600080600060608486031215612cc957600080fd5b505081359360208301359350604090920135919050565b60008060408385031215612cf357600080fd5b8235612cfe81612b11565b9150602083013567ffffffffffffffff811115612c2657600080fd5b600060208284031215612d2c57600080fd5b813561137d81612b11565b6020808252825182820181905260009190848201906040850190845b81811015612d785783516001600160601b031683529284019291840191600101612d53565b50909695505050505050565b60008060408385031215612d9757600080fd5b50508035926020909101359150565b6001600160601b038116811461036b57600080fd5b60008060408385031215612dce57600080fd5b8235612dd981612b11565b91506020830135612de981612da6565b809150509250929050565b801515811461036b57600080fd5b60008060008060808587031215612e1857600080fd5b8435612e2381612b11565b93506020850135612e3381612da6565b9250604085013591506060850135612e4a81612df4565b939692955090935050565b634e487b7160e01b600052602160045260246000fd5b838152602081018390526060810160088310612e8957612e89612e55565b826040830152949350505050565b6020810160038310612eab57612eab612e55565b91905290565b6001600160a01b039490941684526001600160601b0392909216602084015260408301521515606082015260800190565b60208082526022908201527f416363657373206e6f7420616c6c6f7765643a20476f7665726e6f72206f6e6c6040820152613c9760f11b606082015260800190565b634e487b7160e01b600052601160045260246000fd5b8181038181111561182957611829612f24565b8082018082111561182957611829612f24565b600060208284031215612f7257600080fd5b5051919050565b60208082526024908201527f416363657373206e6f7420616c6c6f7765643a204b6c65726f73436f7265206f60408201526337363c9760e11b606082015260800190565b600060018201612fcf57612fcf612f24565b5060010190565b634e487b7160e01b600052603260045260246000fd5b634e487b7160e01b600052601260045260246000fd5b60008261301157613011612fec565b500690565b808202811582820484141761182957611829612f24565b6000825160005b8181101561304e5760208186018101518583015201613034565b506000920191825250919050565b60008161306b5761306b612f24565b506000190190565b600080600080600080600060e0888a03121561308e57600080fd5b875161309981612da6565b60208901519097506130aa81612df4565b8096505060408801519450606088015193506080880151925060a0880151915060c08801516130d881612df4565b8091505092959891949750929550565b634e487b7160e01b600052603160045260246000fd5b60008261310d5761310d612fec565b50049056fe360894a13ba1a3210667c828492db98dca3e2076cc3735a920a3ca505d382bbca264697066735822122070cafa237d94a0a535845c96380de621aebe98feb13953eda208afcadd3e163a64736f6c63430008120033",
  "devdoc": {
    "details": "A factory of trees that keeps track of staked values for sortition.",
    "errors": {
      "AlreadyInitialized()": [
        {
          "details": "The contract is already initialized."
        }
      ],
      "NotInitializing()": [
        {
          "details": "The contract is not initializing."
        }
      ],
      "UUPSUnauthorizedCallContext()": [
        {
          "details": "The call is from an unauthorized context."
        }
      ],
      "UUPSUnsupportedProxiableUUID(bytes32)": [
        {
          "details": "The storage `slot` is unsupported as a UUID."
        }
      ]
    },
    "events": {
      "Initialized(uint64)": {
        "details": "Triggered when the contract has been initialized or reinitialized."
      },
      "Upgraded(address)": {
        "params": {
          "newImplementation": "Address of the new implementation the proxy is now forwarding calls to."
        }
      }
    },
    "kind": "dev",
    "methods": {
      "changeMaxDrawingTime(uint256)": {
        "details": "Changes the `maxDrawingTime` storage variable.",
        "params": {
          "_maxDrawingTime": "The new value for the `maxDrawingTime` storage variable."
        }
      },
      "changeMinStakingTime(uint256)": {
        "details": "Changes the `minStakingTime` storage variable.",
        "params": {
          "_minStakingTime": "The new value for the `minStakingTime` storage variable."
        }
      },
      "changeRandomNumberGenerator(address,uint256)": {
        "details": "Changes the `_rng` and `_rngLookahead` storage variables.",
        "params": {
          "_rng": "The new value for the `RNGenerator` storage variable.",
          "_rngLookahead": "The new value for the `rngLookahead` storage variable."
        }
      },
      "constructor": {
        "details": "Constructor, initializing the implementation to reduce attack surface."
      },
      "createTree(bytes32,bytes)": {
        "details": "Create a sortition sum tree at the specified key.",
        "params": {
          "_extraData": "Extra data that contains the number of children each node in the tree should have.",
          "_key": "The key of the new tree."
        }
      },
      "draw(bytes32,uint256,uint256)": {
        "details": "Draw an ID from a tree using a number. Note that this function reverts if the sum of all values in the tree is 0.",
        "params": {
          "_coreDisputeID": "Index of the dispute in Kleros Core.",
          "_key": "The key of the tree.",
          "_nonce": "Nonce to hash with random number."
        },
        "returns": {
          "drawnAddress": "The drawn address. `O(k * log_k(n))` where `k` is the maximum number of children per node in the tree,  and `n` is the maximum number of nodes ever appended."
        }
      },
      "executeDelayedStakes(uint256)": {
        "details": "Executes the next delayed stakes.",
        "params": {
          "_iterations": "The number of delayed stakes to execute."
        }
      },
      "getJurorCourtIDs(address)": {
        "details": "Gets the court identifiers where a specific `_juror` has staked.",
        "params": {
          "_juror": "The address of the juror."
        }
      },
      "initialize(address,address,uint256,uint256,address,uint256,uint256,uint256)": {
        "details": "Initializer (constructor equivalent for upgradable contracts).",
        "params": {
          "_core": "The KlerosCore.",
          "_governor": "The governor.",
          "_maxDrawingTime": "Time after which the drawing phase can be switched",
          "_maxStakePerJuror": "The maximum amount of PNK a juror can stake in a court.",
          "_maxTotalStaked": "The maximum amount of PNK that can be staked in all courts.",
          "_minStakingTime": "Minimal time to stake",
          "_rng": "The random number generator.",
          "_rngLookahead": "Lookahead value for rng."
        }
      },
      "notifyRandomNumber(uint256)": {
        "details": "Saves the random number to use it in sortition. Not used by this contract because the storing of the number is inlined in passPhase().",
        "params": {
          "_randomNumber": "Random number returned by RNG contract."
        }
      },
      "proxiableUUID()": {
        "details": "Implementation of the ERC1822 `proxiableUUID` function. This returns the storage slot used by the implementation. It is used to validate the implementation's compatibility when performing an upgrade. IMPORTANT: A proxy pointing at a proxiable contract should not be considered proxiable itself, because this risks bricking a proxy that upgrades to it, by delegating to itself until out of gas. Thus it is critical that this function revert if invoked through a proxy. This is guaranteed by the if statement."
      },
      "setJurorInactive(address)": {
        "details": "Unstakes the inactive juror from all courts. `O(n * (p * log_k(j)) )` where `n` is the number of courts the juror has staked in, `p` is the depth of the court tree, `k` is the minimum number of children per node of one of these courts' sortition sum tree, and `j` is the maximum number of jurors that ever staked in one of these courts simultaneously.",
        "params": {
          "_account": "The juror to unstake."
        }
      },
      "setStake(address,uint96,uint256,bool)": {
        "details": "Sets the specified juror's stake in a court. `O(n + p * log_k(j))` where `n` is the number of courts the juror has staked in, `p` is the depth of the court tree, `k` is the minimum number of children per node of one of these courts' sortition sum tree, and `j` is the maximum number of jurors that ever staked in one of these courts simultaneously.",
        "params": {
          "_account": "The address of the juror.",
          "_alreadyTransferred": "True if the tokens were already transferred from juror. Only relevant for delayed stakes.",
          "_courtID": "The ID of the court.",
          "_newStake": "The new stake."
        },
        "returns": {
          "pnkDeposit": "The amount of PNK to be deposited.",
          "pnkWithdrawal": "The amount of PNK to be withdrawn.",
          "stakingResult": "The result of the staking operation."
        }
      },
      "stakeOf(address,uint96)": {
        "details": "Get the stake of a juror in a court.",
        "params": {
          "_courtID": "The ID of the court.",
          "_juror": "The address of the juror."
        },
        "returns": {
          "_0": "value The stake of the juror in the court."
        }
      },
      "stakeOf(bytes32,bytes32)": {
        "details": "Get the stake of a juror in a court.",
        "params": {
          "_ID": "The stake path ID, corresponding to a juror.",
          "_key": "The key of the tree, corresponding to a court."
        },
        "returns": {
          "_0": "The stake of the juror in the court."
        }
      },
      "upgradeToAndCall(address,bytes)": {
        "details": "Upgrade mechanism including access control and UUPS-compliance.Reverts if the execution is not performed via delegatecall or the execution context is not of a proxy with an ERC1967-compliant implementation pointing to self.",
        "params": {
          "data": "Data used in a delegate call to `newImplementation` if non-empty. This will typically be an encoded function call, and allows initializing the storage of the proxy like a Solidity constructor.",
          "newImplementation": "Address of the new implementation contract."
        }
      }
    },
    "title": "SortitionModuleNeo",
    "version": 1
  },
  "userdoc": {
    "errors": {
      "FailedDelegateCall()": [
        {
          "notice": "Failed Delegated call"
        }
      ],
      "InvalidImplementation(address)": [
        {
          "notice": "The `implementation` is not UUPS-compliant"
        }
      ]
    },
    "events": {
      "Upgraded(address)": {
        "notice": "Emitted when the `implementation` has been successfully upgraded."
      }
    },
    "kind": "user",
    "methods": {},
    "version": 1
  },
  "storageLayout": {
    "storage": [
      {
        "astId": 7190,
        "contract": "src/arbitration/SortitionModuleNeo.sol:SortitionModuleNeo",
        "label": "governor",
        "offset": 0,
        "slot": "0",
        "type": "t_address"
      },
      {
        "astId": 7193,
        "contract": "src/arbitration/SortitionModuleNeo.sol:SortitionModuleNeo",
        "label": "core",
        "offset": 0,
        "slot": "1",
        "type": "t_contract(KlerosCore)1891"
      },
      {
        "astId": 7196,
        "contract": "src/arbitration/SortitionModuleNeo.sol:SortitionModuleNeo",
        "label": "phase",
        "offset": 20,
        "slot": "1",
        "type": "t_enum(Phase)15925"
      },
      {
        "astId": 7198,
        "contract": "src/arbitration/SortitionModuleNeo.sol:SortitionModuleNeo",
        "label": "minStakingTime",
        "offset": 0,
        "slot": "2",
        "type": "t_uint256"
      },
      {
        "astId": 7200,
        "contract": "src/arbitration/SortitionModuleNeo.sol:SortitionModuleNeo",
        "label": "maxDrawingTime",
        "offset": 0,
        "slot": "3",
        "type": "t_uint256"
      },
      {
        "astId": 7202,
        "contract": "src/arbitration/SortitionModuleNeo.sol:SortitionModuleNeo",
        "label": "lastPhaseChange",
        "offset": 0,
        "slot": "4",
        "type": "t_uint256"
      },
      {
        "astId": 7204,
        "contract": "src/arbitration/SortitionModuleNeo.sol:SortitionModuleNeo",
        "label": "randomNumberRequestBlock",
        "offset": 0,
        "slot": "5",
        "type": "t_uint256"
      },
      {
        "astId": 7206,
        "contract": "src/arbitration/SortitionModuleNeo.sol:SortitionModuleNeo",
        "label": "disputesWithoutJurors",
        "offset": 0,
        "slot": "6",
        "type": "t_uint256"
      },
      {
        "astId": 7209,
        "contract": "src/arbitration/SortitionModuleNeo.sol:SortitionModuleNeo",
        "label": "rng",
        "offset": 0,
        "slot": "7",
        "type": "t_contract(RNG)26598"
      },
      {
        "astId": 7211,
        "contract": "src/arbitration/SortitionModuleNeo.sol:SortitionModuleNeo",
        "label": "randomNumber",
        "offset": 0,
        "slot": "8",
        "type": "t_uint256"
      },
      {
        "astId": 7213,
        "contract": "src/arbitration/SortitionModuleNeo.sol:SortitionModuleNeo",
        "label": "rngLookahead",
        "offset": 0,
        "slot": "9",
        "type": "t_uint256"
      },
      {
        "astId": 7215,
        "contract": "src/arbitration/SortitionModuleNeo.sol:SortitionModuleNeo",
        "label": "delayedStakeWriteIndex",
        "offset": 0,
        "slot": "10",
        "type": "t_uint256"
      },
      {
        "astId": 7217,
        "contract": "src/arbitration/SortitionModuleNeo.sol:SortitionModuleNeo",
        "label": "delayedStakeReadIndex",
        "offset": 0,
        "slot": "11",
        "type": "t_uint256"
      },
      {
        "astId": 7222,
        "contract": "src/arbitration/SortitionModuleNeo.sol:SortitionModuleNeo",
        "label": "sortitionSumTrees",
        "offset": 0,
        "slot": "12",
        "type": "t_mapping(t_bytes32,t_struct(SortitionSumTree)7171_storage)"
      },
      {
        "astId": 7227,
        "contract": "src/arbitration/SortitionModuleNeo.sol:SortitionModuleNeo",
        "label": "jurors",
        "offset": 0,
        "slot": "13",
        "type": "t_mapping(t_address,t_struct(Juror)7188_storage)"
      },
      {
        "astId": 7232,
        "contract": "src/arbitration/SortitionModuleNeo.sol:SortitionModuleNeo",
        "label": "delayedStakes",
        "offset": 0,
        "slot": "14",
        "type": "t_mapping(t_uint256,t_struct(DelayedStake)7180_storage)"
      },
      {
        "astId": 7238,
        "contract": "src/arbitration/SortitionModuleNeo.sol:SortitionModuleNeo",
        "label": "latestDelayedStakeIndex",
        "offset": 0,
        "slot": "15",
        "type": "t_mapping(t_address,t_mapping(t_uint96,t_uint256))"
      },
      {
        "astId": 9139,
        "contract": "src/arbitration/SortitionModuleNeo.sol:SortitionModuleNeo",
        "label": "maxStakePerJuror",
        "offset": 0,
        "slot": "16",
        "type": "t_uint256"
      },
      {
        "astId": 9141,
        "contract": "src/arbitration/SortitionModuleNeo.sol:SortitionModuleNeo",
        "label": "maxTotalStaked",
        "offset": 0,
        "slot": "17",
        "type": "t_uint256"
      },
      {
        "astId": 9143,
        "contract": "src/arbitration/SortitionModuleNeo.sol:SortitionModuleNeo",
        "label": "totalStaked",
        "offset": 0,
        "slot": "18",
        "type": "t_uint256"
      }
    ],
    "types": {
      "t_address": {
        "encoding": "inplace",
        "label": "address",
        "numberOfBytes": "20"
      },
      "t_array(t_uint256)dyn_storage": {
        "base": "t_uint256",
        "encoding": "dynamic_array",
        "label": "uint256[]",
        "numberOfBytes": "32"
      },
      "t_array(t_uint96)dyn_storage": {
        "base": "t_uint96",
        "encoding": "dynamic_array",
        "label": "uint96[]",
        "numberOfBytes": "32"
      },
      "t_bool": {
        "encoding": "inplace",
        "label": "bool",
        "numberOfBytes": "1"
      },
      "t_bytes32": {
        "encoding": "inplace",
        "label": "bytes32",
        "numberOfBytes": "32"
      },
      "t_contract(KlerosCore)1891": {
        "encoding": "inplace",
        "label": "contract KlerosCore",
        "numberOfBytes": "20"
      },
      "t_contract(RNG)26598": {
        "encoding": "inplace",
        "label": "contract RNG",
        "numberOfBytes": "20"
      },
      "t_enum(Phase)15925": {
        "encoding": "inplace",
        "label": "enum ISortitionModule.Phase",
        "numberOfBytes": "1"
      },
      "t_mapping(t_address,t_mapping(t_uint96,t_uint256))": {
        "encoding": "mapping",
        "key": "t_address",
        "label": "mapping(address => mapping(uint96 => uint256))",
        "numberOfBytes": "32",
        "value": "t_mapping(t_uint96,t_uint256)"
      },
      "t_mapping(t_address,t_struct(Juror)7188_storage)": {
        "encoding": "mapping",
        "key": "t_address",
        "label": "mapping(address => struct SortitionModuleBase.Juror)",
        "numberOfBytes": "32",
        "value": "t_struct(Juror)7188_storage"
      },
      "t_mapping(t_bytes32,t_struct(SortitionSumTree)7171_storage)": {
        "encoding": "mapping",
        "key": "t_bytes32",
        "label": "mapping(bytes32 => struct SortitionModuleBase.SortitionSumTree)",
        "numberOfBytes": "32",
        "value": "t_struct(SortitionSumTree)7171_storage"
      },
      "t_mapping(t_bytes32,t_uint256)": {
        "encoding": "mapping",
        "key": "t_bytes32",
        "label": "mapping(bytes32 => uint256)",
        "numberOfBytes": "32",
        "value": "t_uint256"
      },
      "t_mapping(t_uint256,t_bytes32)": {
        "encoding": "mapping",
        "key": "t_uint256",
        "label": "mapping(uint256 => bytes32)",
        "numberOfBytes": "32",
        "value": "t_bytes32"
      },
      "t_mapping(t_uint256,t_struct(DelayedStake)7180_storage)": {
        "encoding": "mapping",
        "key": "t_uint256",
        "label": "mapping(uint256 => struct SortitionModuleBase.DelayedStake)",
        "numberOfBytes": "32",
        "value": "t_struct(DelayedStake)7180_storage"
      },
      "t_mapping(t_uint96,t_uint256)": {
        "encoding": "mapping",
        "key": "t_uint96",
        "label": "mapping(uint96 => uint256)",
        "numberOfBytes": "32",
        "value": "t_uint256"
      },
      "t_struct(DelayedStake)7180_storage": {
        "encoding": "inplace",
        "label": "struct SortitionModuleBase.DelayedStake",
        "members": [
          {
            "astId": 7173,
            "contract": "src/arbitration/SortitionModuleNeo.sol:SortitionModuleNeo",
            "label": "account",
            "offset": 0,
            "slot": "0",
            "type": "t_address"
          },
          {
            "astId": 7175,
            "contract": "src/arbitration/SortitionModuleNeo.sol:SortitionModuleNeo",
            "label": "courtID",
            "offset": 20,
            "slot": "0",
            "type": "t_uint96"
          },
          {
            "astId": 7177,
            "contract": "src/arbitration/SortitionModuleNeo.sol:SortitionModuleNeo",
            "label": "stake",
            "offset": 0,
            "slot": "1",
            "type": "t_uint256"
          },
          {
            "astId": 7179,
            "contract": "src/arbitration/SortitionModuleNeo.sol:SortitionModuleNeo",
            "label": "alreadyTransferred",
            "offset": 0,
            "slot": "2",
            "type": "t_bool"
          }
        ],
        "numberOfBytes": "96"
      },
      "t_struct(Juror)7188_storage": {
        "encoding": "inplace",
        "label": "struct SortitionModuleBase.Juror",
        "members": [
          {
            "astId": 7183,
            "contract": "src/arbitration/SortitionModuleNeo.sol:SortitionModuleNeo",
            "label": "courtIDs",
            "offset": 0,
            "slot": "0",
            "type": "t_array(t_uint96)dyn_storage"
          },
          {
            "astId": 7185,
            "contract": "src/arbitration/SortitionModuleNeo.sol:SortitionModuleNeo",
            "label": "stakedPnk",
            "offset": 0,
            "slot": "1",
            "type": "t_uint256"
          },
          {
            "astId": 7187,
            "contract": "src/arbitration/SortitionModuleNeo.sol:SortitionModuleNeo",
            "label": "lockedPnk",
            "offset": 0,
            "slot": "2",
            "type": "t_uint256"
          }
        ],
        "numberOfBytes": "96"
      },
      "t_struct(SortitionSumTree)7171_storage": {
        "encoding": "inplace",
        "label": "struct SortitionModuleBase.SortitionSumTree",
        "members": [
          {
            "astId": 7156,
            "contract": "src/arbitration/SortitionModuleNeo.sol:SortitionModuleNeo",
            "label": "K",
            "offset": 0,
            "slot": "0",
            "type": "t_uint256"
          },
          {
            "astId": 7159,
            "contract": "src/arbitration/SortitionModuleNeo.sol:SortitionModuleNeo",
            "label": "stack",
            "offset": 0,
            "slot": "1",
            "type": "t_array(t_uint256)dyn_storage"
          },
          {
            "astId": 7162,
            "contract": "src/arbitration/SortitionModuleNeo.sol:SortitionModuleNeo",
            "label": "nodes",
            "offset": 0,
            "slot": "2",
            "type": "t_array(t_uint256)dyn_storage"
          },
          {
            "astId": 7166,
            "contract": "src/arbitration/SortitionModuleNeo.sol:SortitionModuleNeo",
            "label": "IDsToNodeIndexes",
            "offset": 0,
            "slot": "3",
            "type": "t_mapping(t_bytes32,t_uint256)"
          },
          {
            "astId": 7170,
            "contract": "src/arbitration/SortitionModuleNeo.sol:SortitionModuleNeo",
            "label": "nodeIndexesToIDs",
            "offset": 0,
            "slot": "4",
            "type": "t_mapping(t_uint256,t_bytes32)"
          }
        ],
        "numberOfBytes": "160"
      },
      "t_uint256": {
        "encoding": "inplace",
        "label": "uint256",
        "numberOfBytes": "32"
      },
      "t_uint96": {
        "encoding": "inplace",
        "label": "uint96",
        "numberOfBytes": "12"
      }
    }
  }
}