{
  "address": "0x68eE49dfD9d76f3386257a3D0e0A85c0A5519bBD",
  "abi": [
    {
      "inputs": [
        {
          "internalType": "uint256",
          "name": "",
          "type": "uint256"
        }
      ],
      "name": "randomNumbers",
      "outputs": [
        {
          "internalType": "uint256",
          "name": "",
          "type": "uint256"
        }
      ],
      "stateMutability": "view",
      "type": "function"
    },
    {
      "inputs": [
        {
          "internalType": "uint256",
          "name": "_block",
          "type": "uint256"
        }
      ],
      "name": "receiveRandomness",
      "outputs": [
        {
          "internalType": "uint256",
          "name": "randomNumber",
          "type": "uint256"
        }
      ],
      "stateMutability": "nonpayable",
      "type": "function"
    },
    {
      "inputs": [
        {
          "internalType": "uint256",
          "name": "_block",
          "type": "uint256"
        }
      ],
      "name": "requestRandomness",
      "outputs": [],
      "stateMutability": "nonpayable",
      "type": "function"
    }
  ],
  "transactionHash": "0x98cac033ed5f5456c83f947cc034be8327d4d01fed3195457a813504de25dac4",
  "args": [],
  "numDeployments": 2,
  "solcInputHash": "f57208d12ea18de1e79aa93372bf0e19",
  "bytecode": "0x608060405234801561001057600080fd5b50610167806100206000396000f3fe608060405234801561001057600080fd5b50600436106100415760003560e01c806313cf9054146100465780635257cd901461006b5780637363ae1f1461008b575b600080fd5b6100596100543660046100f3565b61009e565b60405190815260200160405180910390f35b6100596100793660046100f3565b60006020819052908152604090205481565b61009c6100993660046100f3565b50565b005b60008181526020819052604090205480156100b857919050565b438210156100de578140156100cf575080406100de565b6100da60014361010c565b4090505b60009182526020829052604090912081905590565b60006020828403121561010557600080fd5b5035919050565b60008282101561012c57634e487b7160e01b600052601160045260246000fd5b50039056fea2646970667358221220d043c4611058898c35a75d69b1519f5b71b9e6f289bcb5549c73086d98ebdd0164736f6c63430008090033",
  "devdoc": {
    "author": "Clément Lesaege - <clement@lesaege.com>  Random Number Generator returning the blockhash with a fallback behaviour.  In case no one called it within the 256 blocks, it returns the previous blockhash.  This contract must be used when returning 0 is a worse failure mode than returning another blockhash.  Allows saving the random number for use in the future. It allows the contract to still access the blockhash even after 256 blocks.",
    "kind": "dev",
    "methods": {
      "receiveRandomness(uint256)": {
        "details": "Return the random number. If it has not been saved and is still computable compute it.",
        "params": {
          "_block": "Block the random number is linked to."
        },
        "returns": {
          "randomNumber": "The random number or 0 if it is not ready or has not been requested."
        }
      },
      "requestRandomness(uint256)": {
        "details": "Request a random number.",
        "params": {
          "_block": "Block the random number is linked to."
        }
      }
    },
    "title": "Random Number Generator using blockhash with fallback.",
    "version": 1
  },
  "userdoc": {
    "kind": "user",
    "methods": {},
    "version": 1
  },
  "storageLayout": {
    "storage": [
      {
        "astId": 24734,
        "contract": "src/rng/BlockhashRNG.sol:BlockHashRNG",
        "label": "randomNumbers",
        "offset": 0,
        "slot": "0",
        "type": "t_mapping(t_uint256,t_uint256)"
      }
    ],
    "types": {
      "t_mapping(t_uint256,t_uint256)": {
        "encoding": "mapping",
        "key": "t_uint256",
        "label": "mapping(uint256 => uint256)",
        "numberOfBytes": "32",
        "value": "t_uint256"
      },
      "t_uint256": {
        "encoding": "inplace",
        "label": "uint256",
        "numberOfBytes": "32"
      }
    }
  }
}