{
  "address": "0x34E520dc1d2Db660113b64724e14CEdCD01Ee879",
  "abi": [
    {
      "inputs": [
        {
          "internalType": "address",
          "name": "_governor",
          "type": "address"
        },
        {
          "internalType": "contract KlerosCore",
          "name": "_core",
          "type": "address"
        },
        {
          "internalType": "contract RNG",
          "name": "_rng",
          "type": "address"
        }
      ],
      "stateMutability": "nonpayable",
      "type": "constructor"
    },
    {
      "anonymous": false,
      "inputs": [
        {
          "indexed": true,
          "internalType": "uint256",
          "name": "_coreDisputeID",
          "type": "uint256"
        },
        {
          "indexed": true,
          "internalType": "uint256",
          "name": "_coreRoundID",
          "type": "uint256"
        },
        {
          "indexed": true,
          "internalType": "uint256",
          "name": "_choice",
          "type": "uint256"
        }
      ],
      "name": "ChoiceFunded",
      "type": "event"
    },
    {
      "anonymous": false,
      "inputs": [
        {
          "indexed": true,
          "internalType": "uint256",
          "name": "_coreDisputeID",
          "type": "uint256"
        },
        {
          "indexed": true,
          "internalType": "uint256",
          "name": "_coreRoundID",
          "type": "uint256"
        },
        {
          "indexed": false,
          "internalType": "uint256",
          "name": "_choice",
          "type": "uint256"
        },
        {
          "indexed": true,
          "internalType": "address",
          "name": "_contributor",
          "type": "address"
        },
        {
          "indexed": false,
          "internalType": "uint256",
          "name": "_amount",
          "type": "uint256"
        }
      ],
      "name": "Contribution",
      "type": "event"
    },
    {
      "anonymous": false,
      "inputs": [
        {
          "indexed": true,
          "internalType": "contract IArbitrator",
          "name": "_arbitrator",
          "type": "address"
        },
        {
          "indexed": true,
          "internalType": "uint256",
          "name": "_evidenceGroupID",
          "type": "uint256"
        },
        {
          "indexed": true,
          "internalType": "address",
          "name": "_party",
          "type": "address"
        },
        {
          "indexed": false,
          "internalType": "string",
          "name": "_evidence",
          "type": "string"
        }
      ],
      "name": "Evidence",
      "type": "event"
    },
    {
      "anonymous": false,
      "inputs": [
        {
          "indexed": true,
          "internalType": "uint256",
          "name": "_coreDisputeID",
          "type": "uint256"
        },
        {
          "indexed": true,
          "internalType": "address",
          "name": "_juror",
          "type": "address"
        },
        {
          "indexed": true,
          "internalType": "uint256",
          "name": "_choice",
          "type": "uint256"
        },
        {
          "indexed": false,
          "internalType": "string",
          "name": "_justification",
          "type": "string"
        }
      ],
      "name": "Justification",
      "type": "event"
    },
    {
      "anonymous": false,
      "inputs": [
        {
          "indexed": false,
          "internalType": "enum DisputeKitClassic.Phase",
          "name": "_phase",
          "type": "uint8"
        }
      ],
      "name": "NewPhaseDisputeKit",
      "type": "event"
    },
    {
      "anonymous": false,
      "inputs": [
        {
          "indexed": true,
          "internalType": "uint256",
          "name": "_coreDisputeID",
          "type": "uint256"
        },
        {
          "indexed": true,
          "internalType": "uint256",
          "name": "_coreRoundID",
          "type": "uint256"
        },
        {
          "indexed": false,
          "internalType": "uint256",
          "name": "_choice",
          "type": "uint256"
        },
        {
          "indexed": true,
          "internalType": "address",
          "name": "_contributor",
          "type": "address"
        },
        {
          "indexed": false,
          "internalType": "uint256",
          "name": "_amount",
          "type": "uint256"
        }
      ],
      "name": "Withdrawal",
      "type": "event"
    },
    {
      "inputs": [],
      "name": "LOSER_APPEAL_PERIOD_MULTIPLIER",
      "outputs": [
        {
          "internalType": "uint256",
          "name": "",
          "type": "uint256"
        }
      ],
      "stateMutability": "view",
      "type": "function"
    },
    {
      "inputs": [],
      "name": "LOSER_STAKE_MULTIPLIER",
      "outputs": [
        {
          "internalType": "uint256",
          "name": "",
          "type": "uint256"
        }
      ],
      "stateMutability": "view",
      "type": "function"
    },
    {
      "inputs": [],
      "name": "ONE_BASIS_POINT",
      "outputs": [
        {
          "internalType": "uint256",
          "name": "",
          "type": "uint256"
        }
      ],
      "stateMutability": "view",
      "type": "function"
    },
    {
      "inputs": [],
      "name": "RNG_LOOKAHEAD",
      "outputs": [
        {
          "internalType": "uint256",
          "name": "",
          "type": "uint256"
        }
      ],
      "stateMutability": "view",
      "type": "function"
    },
    {
      "inputs": [],
      "name": "WINNER_STAKE_MULTIPLIER",
      "outputs": [
        {
          "internalType": "uint256",
          "name": "",
          "type": "uint256"
        }
      ],
      "stateMutability": "view",
      "type": "function"
    },
    {
      "inputs": [
        {
          "internalType": "uint256",
          "name": "_coreDisputeID",
          "type": "uint256"
        }
      ],
      "name": "areCommitsAllCast",
      "outputs": [
        {
          "internalType": "bool",
          "name": "",
          "type": "bool"
        }
      ],
      "stateMutability": "view",
      "type": "function"
    },
    {
      "inputs": [
        {
          "internalType": "uint256",
          "name": "_coreDisputeID",
          "type": "uint256"
        }
      ],
      "name": "areVotesAllCast",
      "outputs": [
        {
          "internalType": "bool",
          "name": "",
          "type": "bool"
        }
      ],
      "stateMutability": "view",
      "type": "function"
    },
    {
      "inputs": [
        {
          "internalType": "uint256",
          "name": "_coreDisputeID",
          "type": "uint256"
        },
        {
          "internalType": "uint256[]",
          "name": "_voteIDs",
          "type": "uint256[]"
        },
        {
          "internalType": "bytes32",
          "name": "_commit",
          "type": "bytes32"
        }
      ],
      "name": "castCommit",
      "outputs": [],
      "stateMutability": "nonpayable",
      "type": "function"
    },
    {
      "inputs": [
        {
          "internalType": "uint256",
          "name": "_coreDisputeID",
          "type": "uint256"
        },
        {
          "internalType": "uint256[]",
          "name": "_voteIDs",
          "type": "uint256[]"
        },
        {
          "internalType": "uint256",
          "name": "_choice",
          "type": "uint256"
        },
        {
          "internalType": "uint256",
          "name": "_salt",
          "type": "uint256"
        },
        {
          "internalType": "string",
          "name": "_justification",
          "type": "string"
        }
      ],
      "name": "castVote",
      "outputs": [],
      "stateMutability": "nonpayable",
      "type": "function"
    },
    {
      "inputs": [
        {
          "internalType": "address",
          "name": "_core",
          "type": "address"
        }
      ],
      "name": "changeCore",
      "outputs": [],
      "stateMutability": "nonpayable",
      "type": "function"
    },
    {
      "inputs": [
        {
          "internalType": "address payable",
          "name": "_governor",
          "type": "address"
        }
      ],
      "name": "changeGovernor",
      "outputs": [],
      "stateMutability": "nonpayable",
      "type": "function"
    },
    {
      "inputs": [
        {
          "internalType": "contract RNG",
          "name": "_rng",
          "type": "address"
        }
      ],
      "name": "changeRandomNumberGenerator",
      "outputs": [],
      "stateMutability": "nonpayable",
      "type": "function"
    },
    {
      "inputs": [],
      "name": "core",
      "outputs": [
        {
          "internalType": "contract KlerosCore",
          "name": "",
          "type": "address"
        }
      ],
      "stateMutability": "view",
      "type": "function"
    },
    {
      "inputs": [
        {
          "internalType": "uint256",
          "name": "",
          "type": "uint256"
        }
      ],
      "name": "coreDisputeIDToLocal",
      "outputs": [
        {
          "internalType": "uint256",
          "name": "",
          "type": "uint256"
        }
      ],
      "stateMutability": "view",
      "type": "function"
    },
    {
      "inputs": [
        {
          "internalType": "uint256",
          "name": "_coreDisputeID",
          "type": "uint256"
        },
        {
          "internalType": "uint256",
          "name": "_numberOfChoices",
          "type": "uint256"
        },
        {
          "internalType": "bytes",
          "name": "_extraData",
          "type": "bytes"
        },
        {
          "internalType": "uint256",
          "name": "_nbVotes",
          "type": "uint256"
        }
      ],
      "name": "createDispute",
      "outputs": [],
      "stateMutability": "nonpayable",
      "type": "function"
    },
    {
      "inputs": [
        {
          "internalType": "uint256",
          "name": "_coreDisputeID",
          "type": "uint256"
        }
      ],
      "name": "currentRuling",
      "outputs": [
        {
          "internalType": "uint256",
          "name": "ruling",
          "type": "uint256"
        }
      ],
      "stateMutability": "view",
      "type": "function"
    },
    {
      "inputs": [
        {
          "internalType": "uint256",
          "name": "",
          "type": "uint256"
        }
      ],
      "name": "disputes",
      "outputs": [
        {
          "internalType": "uint256",
          "name": "numberOfChoices",
          "type": "uint256"
        },
        {
          "internalType": "bool",
          "name": "jumped",
          "type": "bool"
        },
        {
          "internalType": "bytes",
          "name": "extraData",
          "type": "bytes"
        }
      ],
      "stateMutability": "view",
      "type": "function"
    },
    {
      "inputs": [],
      "name": "disputesWithoutJurors",
      "outputs": [
        {
          "internalType": "uint256",
          "name": "",
          "type": "uint256"
        }
      ],
      "stateMutability": "view",
      "type": "function"
    },
    {
      "inputs": [
        {
          "internalType": "uint256",
          "name": "_coreDisputeID",
          "type": "uint256"
        }
      ],
      "name": "draw",
      "outputs": [
        {
          "internalType": "address",
          "name": "drawnAddress",
          "type": "address"
        }
      ],
      "stateMutability": "nonpayable",
      "type": "function"
    },
    {
      "inputs": [
        {
          "internalType": "address",
          "name": "_destination",
          "type": "address"
        },
        {
          "internalType": "uint256",
          "name": "_amount",
          "type": "uint256"
        },
        {
          "internalType": "bytes",
          "name": "_data",
          "type": "bytes"
        }
      ],
      "name": "executeGovernorProposal",
      "outputs": [],
      "stateMutability": "nonpayable",
      "type": "function"
    },
    {
      "inputs": [
        {
          "internalType": "uint256",
          "name": "_coreDisputeID",
          "type": "uint256"
        },
        {
          "internalType": "uint256",
          "name": "_choice",
          "type": "uint256"
        }
      ],
      "name": "fundAppeal",
      "outputs": [],
      "stateMutability": "payable",
      "type": "function"
    },
    {
      "inputs": [
        {
          "internalType": "uint256",
          "name": "_coreDisputeID",
          "type": "uint256"
        },
        {
          "internalType": "uint256",
          "name": "_coreRoundID",
          "type": "uint256"
        }
      ],
      "name": "getCoherentCount",
      "outputs": [
        {
          "internalType": "uint256",
          "name": "",
          "type": "uint256"
        }
      ],
      "stateMutability": "view",
      "type": "function"
    },
    {
      "inputs": [
        {
          "internalType": "uint256",
          "name": "_coreDisputeID",
          "type": "uint256"
        },
        {
          "internalType": "uint256",
          "name": "_coreRoundID",
          "type": "uint256"
        },
        {
          "internalType": "uint256",
          "name": "_voteID",
          "type": "uint256"
        }
      ],
      "name": "getDegreeOfCoherence",
      "outputs": [
        {
          "internalType": "uint256",
          "name": "",
          "type": "uint256"
        }
      ],
      "stateMutability": "view",
      "type": "function"
    },
    {
      "inputs": [
        {
          "internalType": "uint256",
          "name": "_coreDisputeID",
          "type": "uint256"
        }
      ],
      "name": "getLastRoundResult",
      "outputs": [
        {
          "internalType": "uint256",
          "name": "winningChoice",
          "type": "uint256"
        },
        {
          "internalType": "bool",
          "name": "tied",
          "type": "bool"
        }
      ],
      "stateMutability": "view",
      "type": "function"
    },
    {
      "inputs": [
        {
          "internalType": "uint256",
          "name": "_coreDisputeID",
          "type": "uint256"
        },
        {
          "internalType": "uint256",
          "name": "_coreRoundID",
          "type": "uint256"
        },
        {
          "internalType": "uint256",
          "name": "_choice",
          "type": "uint256"
        }
      ],
      "name": "getRoundInfo",
      "outputs": [
        {
          "internalType": "uint256",
          "name": "winningChoice",
          "type": "uint256"
        },
        {
          "internalType": "bool",
          "name": "tied",
          "type": "bool"
        },
        {
          "internalType": "uint256",
          "name": "totalVoted",
          "type": "uint256"
        },
        {
          "internalType": "uint256",
          "name": "totalCommited",
          "type": "uint256"
        },
        {
          "internalType": "uint256",
          "name": "nbVoters",
          "type": "uint256"
        },
        {
          "internalType": "uint256",
          "name": "choiceCount",
          "type": "uint256"
        }
      ],
      "stateMutability": "view",
      "type": "function"
    },
    {
      "inputs": [
        {
          "internalType": "uint256",
          "name": "_coreDisputeID",
          "type": "uint256"
        },
        {
          "internalType": "uint256",
          "name": "_coreRoundID",
          "type": "uint256"
        },
        {
          "internalType": "uint256",
          "name": "_voteID",
          "type": "uint256"
        }
      ],
      "name": "getVoteInfo",
      "outputs": [
        {
          "internalType": "address",
          "name": "account",
          "type": "address"
        },
        {
          "internalType": "bytes32",
          "name": "commit",
          "type": "bytes32"
        },
        {
          "internalType": "uint256",
          "name": "choice",
          "type": "uint256"
        },
        {
          "internalType": "bool",
          "name": "voted",
          "type": "bool"
        }
      ],
      "stateMutability": "view",
      "type": "function"
    },
    {
      "inputs": [],
      "name": "governor",
      "outputs": [
        {
          "internalType": "address",
          "name": "",
          "type": "address"
        }
      ],
      "stateMutability": "view",
      "type": "function"
    },
    {
      "inputs": [],
      "name": "isResolving",
      "outputs": [
        {
          "internalType": "bool",
          "name": "",
          "type": "bool"
        }
      ],
      "stateMutability": "view",
      "type": "function"
    },
    {
      "inputs": [
        {
          "internalType": "uint256",
          "name": "_coreDisputeID",
          "type": "uint256"
        },
        {
          "internalType": "uint256",
          "name": "_coreRoundID",
          "type": "uint256"
        },
        {
          "internalType": "uint256",
          "name": "_voteID",
          "type": "uint256"
        }
      ],
      "name": "isVoteActive",
      "outputs": [
        {
          "internalType": "bool",
          "name": "",
          "type": "bool"
        }
      ],
      "stateMutability": "view",
      "type": "function"
    },
    {
      "inputs": [],
      "name": "passPhase",
      "outputs": [],
      "stateMutability": "nonpayable",
      "type": "function"
    },
    {
      "inputs": [],
      "name": "phase",
      "outputs": [
        {
          "internalType": "enum DisputeKitClassic.Phase",
          "name": "",
          "type": "uint8"
        }
      ],
      "stateMutability": "view",
      "type": "function"
    },
    {
      "inputs": [],
      "name": "randomNumber",
      "outputs": [
        {
          "internalType": "uint256",
          "name": "",
          "type": "uint256"
        }
      ],
      "stateMutability": "view",
      "type": "function"
    },
    {
      "inputs": [],
      "name": "rng",
      "outputs": [
        {
          "internalType": "contract RNG",
          "name": "",
          "type": "address"
        }
      ],
      "stateMutability": "view",
      "type": "function"
    },
    {
      "inputs": [],
      "name": "rngRequestedBlock",
      "outputs": [
        {
          "internalType": "uint256",
          "name": "",
          "type": "uint256"
        }
      ],
      "stateMutability": "view",
      "type": "function"
    },
    {
      "inputs": [
        {
          "internalType": "uint256",
          "name": "_evidenceGroupID",
          "type": "uint256"
        },
        {
          "internalType": "string",
          "name": "_evidence",
          "type": "string"
        }
      ],
      "name": "submitEvidence",
      "outputs": [],
      "stateMutability": "nonpayable",
      "type": "function"
    },
    {
      "inputs": [
        {
          "internalType": "uint256",
          "name": "_coreDisputeID",
          "type": "uint256"
        },
        {
          "internalType": "address payable",
          "name": "_beneficiary",
          "type": "address"
        },
        {
          "internalType": "uint256",
          "name": "_coreRoundID",
          "type": "uint256"
        },
        {
          "internalType": "uint256",
          "name": "_choice",
          "type": "uint256"
        }
      ],
      "name": "withdrawFeesAndRewards",
      "outputs": [
        {
          "internalType": "uint256",
          "name": "amount",
          "type": "uint256"
        }
      ],
      "stateMutability": "nonpayable",
      "type": "function"
    }
  ],
  "transactionHash": "0xa519ef347681a47c04d40aa8724cef76ad4e2ce75681921eb796cd20687564d3",
  "args": [
    "0xF50E77f2A2B6138D16c6c7511562E5C33c4B15A3",
    "0x0000000000000000000000000000000000000000",
    "0x68eE49dfD9d76f3386257a3D0e0A85c0A5519bBD"
  ],
  "numDeployments": 2,
  "solcInputHash": "793c53c92f8e09c2ccb461edfa545436",
  "bytecode": "0x60806040523480156200001157600080fd5b50604051620043dd380380620043dd833981016040819052620000349162000090565b600080546001600160a01b039485166001600160a01b031991821617909155600180549385169382169390931790925560028054919093169116179055620000e4565b6001600160a01b03811681146200008d57600080fd5b50565b600080600060608486031215620000a657600080fd5b8351620000b38162000077565b6020850151909350620000c68162000077565b6040850151909250620000d98162000077565b809150509250925092565b6142e980620000f46000396000f3fe6080604052600436106101cf5760003560e01c80638e426460116100f8578063c41bda6111610090578063c41bda61146105b8578063c86ed892146105d8578063ccbac9f5146105ed578063cd1e084d14610603578063d605787b14610618578063da3beb8c14610638578063e349ad301461042e578063e4c0aaf414610658578063f2f4eb261461067857600080fd5b80638e426460146104645780639b05c26114610484578063a6a7f0eb146104b9578063a7cc08fe146104d9578063b1c9fe6e14610525578063b34bfaa81461054c578063b6ede54014610562578063ba66fde714610582578063be467604146105a257600080fd5b80634b2f0ea01161016b5780634b2f0ea01461031f5780634fe264fb14610332578063564a565d146103525780635c92e2f61461038157806369f3f041146103a15780636d4cd8ea146103ee578063751accd01461040e578063796490f91461042e5780637c04034e1461044457600080fd5b806303432744146101d45780630b274f2e146101fd5780630baa64d1146102145780630c340a24146102445780631200aabc1461027c5780631c3db16d146102a95780632cad95c0146102c9578063362c3479146102df5780633b304147146102ff575b600080fd5b3480156101e057600080fd5b506101ea60065481565b6040519081526020015b60405180910390f35b34801561020957600080fd5b50610212610698565b005b34801561022057600080fd5b5061023461022f3660046137fd565b610c10565b60405190151581526020016101f4565b34801561025057600080fd5b50600054610264906001600160a01b031681565b6040516001600160a01b0390911681526020016101f4565b34801561028857600080fd5b506101ea6102973660046137fd565b60086020526000908152604090205481565b3480156102b557600080fd5b506101ea6102c43660046137fd565b610c87565b3480156102d557600080fd5b506101ea60035481565b3480156102eb57600080fd5b506101ea6102fa36600461382b565b610d11565b34801561030b57600080fd5b5061026461031a3660046137fd565b6110ff565b61021261032d366004613868565b6116e0565b34801561033e57600080fd5b506101ea61034d36600461388a565b611f7a565b34801561035e57600080fd5b5061037261036d3660046137fd565b6120ca565b6040516101f49392919061390e565b34801561038d57600080fd5b5061021261039c366004613983565b612190565b3480156103ad57600080fd5b506103c16103bc36600461388a565b61246c565b604080519687529415156020870152938501929092526060840152608083015260a082015260c0016101f4565b3480156103fa57600080fd5b506102346104093660046137fd565b612524565b34801561041a57600080fd5b50610212610429366004613a72565b61259b565b34801561043a57600080fd5b506101ea61271081565b34801561045057600080fd5b5061021261045f366004613ade565b61266d565b34801561047057600080fd5b5061021261047f366004613b76565b612d75565b34801561049057600080fd5b506104a461049f3660046137fd565b612dc1565b604080519283529015156020830152016101f4565b3480156104c557600080fd5b506102126104d4366004613bd4565b612e44565b3480156104e557600080fd5b506104f96104f436600461388a565b612e96565b604080516001600160a01b039095168552602085019390935291830152151560608201526080016101f4565b34801561053157600080fd5b5060055461053f9060ff1681565b6040516101f49190613c35565b34801561055857600080fd5b506101ea614e2081565b34801561056e57600080fd5b5061021261057d366004613c5d565b612f5c565b34801561058e57600080fd5b5061023461059d36600461388a565b613115565b3480156105ae57600080fd5b506101ea61138881565b3480156105c457600080fd5b506102126105d3366004613b76565b6131b0565b3480156105e457600080fd5b50610234613285565b3480156105f957600080fd5b506101ea60045481565b34801561060f57600080fd5b506101ea601481565b34801561062457600080fd5b50600254610264906001600160a01b031681565b34801561064457600080fd5b506101ea610653366004613868565b6132a5565b34801561066457600080fd5b50610212610673366004613b76565b613405565b34801561068457600080fd5b50600154610264906001600160a01b031681565b600154604080516358e4ff3760e11b815290516000926001600160a01b03169163b1c9fe6e916004808301926020929190829003018186803b1580156106dd57600080fd5b505afa1580156106f1573d6000803e3d6000fd5b505050506040513d601f19601f820116820180604052508101906107159190613cb7565b600181111561072657610726613c1f565b14806107b35750600160009054906101000a90046001600160a01b03166001600160a01b031663b70c4e946040518163ffffffff1660e01b815260040160206040518083038186803b15801561077b57600080fd5b505afa15801561078f573d6000803e3d6000fd5b505050506040513d601f19601f820116820180604052508101906107b39190613ced565b1561083e57600060055460ff1660028111156107d1576107d1613c1f565b14156108245760405162461bcd60e51b815260206004820152601a60248201527f416c726561647920696e205265736f6c76696e6720706861736500000000000060448201526064015b60405180910390fd5b600580546000919060ff19166001835b0217905550610bcf565b60018060009054906101000a90046001600160a01b03166001600160a01b031663b1c9fe6e6040518163ffffffff1660e01b815260040160206040518083038186803b15801561088d57600080fd5b505afa1580156108a1573d6000803e3d6000fd5b505050506040513d601f19601f820116820180604052508101906108c59190613cb7565b60018111156108d6576108d6613c1f565b1415610bcf57600060055460ff1660028111156108f5576108f5613c1f565b1415610a4a5760006006541161094d5760405162461bcd60e51b815260206004820152601c60248201527f416c6c207468652064697370757465732068617665206a75726f727300000000604482015260640161081b565b600154604080516301d0abc360e51b815290516014926001600160a01b031691633a157860916004808301926020929190829003018186803b15801561099257600080fd5b505afa1580156109a6573d6000803e3d6000fd5b505050506040513d601f19601f820116820180604052508101906109ca9190613d08565b6109d49190613d37565b6003819055600254604051637363ae1f60e01b815260048101929092526001600160a01b031690637363ae1f90602401600060405180830381600087803b158015610a1e57600080fd5b505af1158015610a32573d6000803e3d6000fd5b5050600580546001935090915060ff19168280610834565b600160055460ff166002811115610a6357610a63613c1f565b1415610b55576002546003546040516304f3e41560e21b81526001600160a01b03909216916313cf905491610a9e9160040190815260200190565b602060405180830381600087803b158015610ab857600080fd5b505af1158015610acc573d6000803e3d6000fd5b505050506040513d601f19601f82011682018060405250810190610af09190613d08565b6004819055610b415760405162461bcd60e51b815260206004820152601e60248201527f52616e646f6d206e756d626572206973206e6f74207265616479207965740000604482015260640161081b565b600580546002919060ff1916600183610834565b600260055460ff166002811115610b6e57610b6e613c1f565b1415610bcf5760065415610bc45760405162461bcd60e51b815260206004820152601d60248201527f4e6f7420726561647920666f72205265736f6c76696e67207068617365000000604482015260640161081b565b6005805460ff191690555b6005546040517fdeeacb313775e12b099f27fe481aa82204a1806233e7125cc8a9f719e5ddfdc591610c069160ff90911690613c35565b60405180910390a1565b600081815260086020526040812054600780548392908110610c3457610c34613d4f565b60009182526020822060059091020180549092508290610c5690600190613d65565b81548110610c6657610c66613d4f565b60009182526020909120600c90910201805460059091015414949350505050565b600081815260086020526040812054600780548392908110610cab57610cab613d4f565b60009182526020822060059091020180549092508290610ccd90600190613d65565b81548110610cdd57610cdd613d4f565b60009182526020909120600c90910201600381015490915060ff16610d06578060010154610d09565b60005b949350505050565b60015460405163564a565d60e01b81526004810186905260009182916001600160a01b039091169063564a565d9060240160a06040518083038186803b158015610d5a57600080fd5b505afa158015610d6e573d6000803e3d6000fd5b505050506040513d601f19601f82011682018060405250810190610d929190613d93565b50935050505080610de55760405162461bcd60e51b815260206004820152601b60248201527f446973707574652073686f756c64206265207265736f6c7665642e0000000000604482015260640161081b565b600086815260086020526040812054600780549091908110610e0957610e09613d4f565b60009182526020808320888452600360059093020191820190526040822054815491935083918110610e3d57610e3d613d4f565b600091825260208220600154604051631c3db16d60e01b8152600481018d9052600c9390930290910193506001600160a01b031690631c3db16d9060240160206040518083038186803b158015610e9357600080fd5b505afa158015610ea7573d6000803e3d6000fd5b505050506040513d601f19601f82011682018060405250810190610ecb9190613d08565b600087815260078401602052604090205490915060ff16610f13576001600160a01b038816600090815260088301602090815260408083208984529091529020549450611059565b80861415610f89576000868152600683016020526040902054610f37576000610f82565b600086815260068301602090815260408083205460098601546001600160a01b038d1685526008870184528285208b8652909352922054610f789190613dfa565b610f829190613e2f565b9450611059565b600081815260078301602052604090205460ff166110595781600601600083600a01600181548110610fbd57610fbd613d4f565b906000526020600020015481526020019081526020016000205482600601600084600a01600081548110610ff357610ff3613d4f565b90600052602060002001548152602001908152602001600020546110179190613d37565b60098301546001600160a01b038a16600090815260088501602090815260408083208b845290915290205461104c9190613dfa565b6110569190613e2f565b94505b6001600160a01b0388166000908152600883016020908152604080832089845290915281205584156110f3576040516001600160a01b0389169086156108fc029087906000818181858888f15050604080518a8152602081018a90526001600160a01b038d1694508b93508d92507f54b3cab3cb5c4aca3209db1151caff092e878011202e43a36782d4ebe0b963ae910160405180910390a45b50505050949350505050565b6001546000906001600160a01b0316331461112c5760405162461bcd60e51b815260040161081b90613e43565b60008281526008602052604090205460078054849290811061115057611150613d4f565b600091825260209091206002600590920201015460ff16156111845760405162461bcd60e51b815260040161081b90613e87565b600260055460ff16600281111561119d5761119d613c1f565b146111ea5760405162461bcd60e51b815260206004820152601a60248201527f53686f756c6420626520696e2064726177696e67207068617365000000000000604482015260640161081b565b60008381526008602052604081205460078054909190811061120e5761120e613d4f565b6000918252602082206005909102018054909250829061123090600190613d65565b8154811061124057611240613d4f565b60009182526020822060015460405163564a565d60e01b8152600481018a9052600c9390930290910193506001600160a01b03169063564a565d9060240160a06040518083038186803b15801561129657600080fd5b505afa1580156112aa573d6000803e3d6000fd5b505050506040513d601f19601f820116820180604052508101906112ce9190613d93565b505060015460405163bfabfe8f60e01b81526001600160601b038516600482018190526000602483018190529596509493508392506001600160a01b039091169063bfabfe8f9060440160606040518083038186803b15801561133057600080fd5b505afa158015611344573d6000803e3d6000fd5b505050506040513d601f19601f820116820180604052508101906113689190613ebe565b50600454875460408051602081019390935282018d905260608201529193509150600090819060800160408051808303601f19018152908290528051602090910120600154630a48b58160e21b835260048301889052600060248401529092506001600160a01b031690632922d6049060440160206040518083038186803b1580156113f357600080fd5b505afa158015611407573d6000803e3d6000fd5b505050506040513d601f19601f8201168201806040525081019061142b9190613d08565b6114359082613eec565b90505b826114438386613dfa565b61144e906001613d37565b101561153b5760015b8481116115355760008161146b8588613dfa565b6114759190613d37565b600154604051630a48b58160e21b8152600481018a9052602481018390529192506000916001600160a01b0390911690632922d6049060440160206040518083038186803b1580156114c657600080fd5b505afa1580156114da573d6000803e3d6000fd5b505050506040513d601f19601f820116820180604052508101906114fe9190613d08565b9050808410611518576115118185613d65565b9350611520565b509250611535565b5050808061152d90613f00565b915050611457565b50611438565b60015460405163bfabfe8f60e01b815260048101879052602481018490526000916001600160a01b03169063bfabfe8f9060440160606040518083038186803b15801561158757600080fd5b505afa15801561159b573d6000803e3d6000fd5b505050506040513d601f19601f820116820180604052508101906115bf9190613ebe565b925050506115cc81613451565b9a506115d88c8c61347c565b156116cc578760000160405180608001604052808d6001600160a01b031681526020016000801b81526020016000815260200160001515815250908060018154018082558091505060019003906000526020600020906004020160009091909190915060008201518160000160006101000a8154816001600160a01b0302191690836001600160a01b03160217905550602082015181600101556040820151816002015560608201518160030160006101000a81548160ff021916908315150217905550505087600b0154886000018054905014156116c757600680549060006116c183613f1b565b91905055505b6116d1565b60009a505b50505050505050505050919050565b60008281526008602052604090205460078054849290811061170457611704613d4f565b600091825260209091206002600590920201015460ff16156117385760405162461bcd60e51b815260040161081b90613e87565b60008381526008602052604081205460078054909190811061175c5761175c613d4f565b9060005260206000209060050201905080600101548311156117c05760405162461bcd60e51b815260206004820181905260248201527f5468657265206973206e6f20737563682072756c696e6720746f2066756e642e604482015260640161081b565b60015460405163afe15cfb60e01b81526004810186905260009182916001600160a01b039091169063afe15cfb90602401604080518083038186803b15801561180857600080fd5b505afa15801561181c573d6000803e3d6000fd5b505050506040513d601f19601f820116820180604052508101906118409190613f32565b9150915081421015801561185357508042105b6118985760405162461bcd60e51b815260206004820152601660248201527520b83832b0b6103832b934b7b21034b99037bb32b91760511b604482015260640161081b565b604051631c3db16d60e01b81526004810187905260009086903090631c3db16d9060240160206040518083038186803b1580156118d457600080fd5b505afa1580156118e8573d6000803e3d6000fd5b505050506040513d601f19601f8201168201806040525081019061190c9190613d08565b141561191b575061271061199b565b61271061138861192b8585613d65565b6119359190613dfa565b61193f9190613e2f565b6119498442613d65565b106119965760405162461bcd60e51b815260206004820152601f60248201527f41707065616c20706572696f64206973206f76657220666f72206c6f73657200604482015260640161081b565b50614e205b835460009085906119ae90600190613d65565b815481106119be576119be613d4f565b60009182526020822060018054604051637e37c78b60e11b8152600481018e9052600c949094029092019450916001600160a01b039091169063fc6f8f169060240160206040518083038186803b158015611a1857600080fd5b505afa158015611a2c573d6000803e3d6000fd5b505050506040513d601f19601f82011682018060405250810190611a509190613d08565b611a5a9190613d65565b600089815260078401602052604090205490915060ff1615611abe5760405162461bcd60e51b815260206004820152601b60248201527f41707065616c2066656520697320616c726561647920706169642e0000000000604482015260640161081b565b600154604051632cf6413f60e11b8152600481018b90526000916001600160a01b0316906359ec827e9060240160206040518083038186803b158015611b0357600080fd5b505afa158015611b17573d6000803e3d6000fd5b505050506040513d601f19601f82011682018060405250810190611b3b9190613d08565b90506000612710611b4c8684613dfa565b611b569190613e2f565b611b609083613d37565b60008b815260068601602052604081205491925090821115611c035760008b81526006860160205260409020543490611b999084613d65565b11611bbe5760008b8152600686016020526040902054611bb99083613d65565b611bc0565b345b604080518d815260208101839052919250339186918f917fcae597f39a3ad75c2e10d46b031f023c5c2babcd58ca0491b122acda3968d4c0910160405180910390a45b33600090815260088601602090815260408083208e845290915281208054839290611c2f908490613d37565b909155505060008b815260068601602052604081208054839290611c54908490613d37565b909155505060008b81526006860160205260409020548211611cfe5760008b815260068601602052604081205460098701805491929091611c96908490613d37565b9091555050600a8501805460018181018355600092835260208084209092018e90558d8352600788019091526040808320805460ff1916909217909155518c9186918f917fed764996238e4c1c873ae3af7ae2f00f1f6f4f10b9ac7d4bbea4a764c5dea00991a45b600a85015460011015611f3e57828560090154611d1b9190613d65565b60098601556001546040516319b8152960e01b8152600481018e90526001600160a01b03909116906319b815299060240160206040518083038186803b158015611d6457600080fd5b505afa158015611d78573d6000803e3d6000fd5b505050506040513d601f19601f82011682018060405250810190611d9c9190613ced565b15611db55760028901805460ff19166001179055611ebe565b885460038a016000611dc8876001613d37565b8152602001908152602001600020819055506000896000016001816001815401808255809150500390600052602060002090600c02019050600160009054906101000a90046001600160a01b03166001600160a01b031663c71f42538e6040518263ffffffff1660e01b8152600401611e4391815260200190565b60206040518083038186803b158015611e5b57600080fd5b505afa158015611e6f573d6000803e3d6000fd5b505050506040513d601f19601f82011682018060405250810190611e939190613d08565b600b82015560038101805460ff1916600117905560068054906000611eb783613f00565b9190505550505b600160009054906101000a90046001600160a01b03166001600160a01b031663c3569902848e8c600101548d6004016040518563ffffffff1660e01b8152600401611f0b93929190613f91565b6000604051808303818588803b158015611f2457600080fd5b505af1158015611f38573d6000803e3d6000fd5b50505050505b80341115611f6c57336108fc611f548334613d65565b6040518115909202916000818181858888f150505050505b505050505050505050505050565b600083815260086020526040812054600780548392908110611f9e57611f9e613d4f565b60009182526020808320878452600360059093020191820190526040822054815491935083918110611fd257611fd2613d4f565b90600052602060002090600c02016000018481548110611ff457611ff4613d4f565b600091825260208220600154604051639b05c26160e01b815260048082018c905293909302909101935082916001600160a01b0390911690639b05c26190602401604080518083038186803b15801561204c57600080fd5b505afa158015612060573d6000803e3d6000fd5b505050506040513d601f19601f820116820180604052508101906120849190614049565b6003850154919350915060ff1680156120a7575081836002015414806120a75750805b156120ba576127109450505050506120c3565b60009450505050505b9392505050565b600781815481106120da57600080fd5b600091825260209091206005909102016001810154600282015460048301805492945060ff909116929161210d90613f56565b80601f016020809104026020016040519081016040528092919081815260200182805461213990613f56565b80156121865780601f1061215b57610100808354040283529160200191612186565b820191906000526020600020905b81548152906001019060200180831161216957829003601f168201915b5050505050905083565b6000848152600860205260409020546007805486929081106121b4576121b4613d4f565b600091825260209091206002600590920201015460ff16156121e85760405162461bcd60e51b815260040161081b90613e87565b60015460405163564a565d60e01b8152600481018790526000916001600160a01b03169063564a565d9060240160a06040518083038186803b15801561222d57600080fd5b505afa158015612241573d6000803e3d6000fd5b505050506040513d601f19601f820116820180604052508101906122659190613d93565b5090935060019250612275915050565b81600481111561228757612287613c1f565b146122e45760405162461bcd60e51b815260206004820152602760248201527f54686520646973707574652073686f756c6420626520696e20436f6d6d6974206044820152663832b934b7b21760c91b606482015260840161081b565b826123215760405162461bcd60e51b815260206004820152600d60248201526c22b6b83a3c9031b7b6b6b4ba1760991b604482015260640161081b565b60008681526008602052604081205460078054909190811061234557612345613d4f565b6000918252602082206005909102018054909250829061236790600190613d65565b8154811061237757612377613d4f565b90600052602060002090600c0201905060005b868110156124455733828989848181106123a6576123a6613d4f565b90506020020135815481106123bd576123bd613d4f565b60009182526020909120600490910201546001600160a01b0316146123f45760405162461bcd60e51b815260040161081b90614075565b858289898481811061240857612408613d4f565b905060200201358154811061241f5761241f613d4f565b60009182526020909120600160049092020101558061243d81613f00565b91505061238a565b508686905081600501600082825461245d9190613d37565b90915550505050505050505050565b60008060008060008060006007600860008c8152602001908152602001600020548154811061249d5761249d613d4f565b600091825260208083208c84526003600590930201918201905260408220548154919350839181106124d1576124d1613d4f565b600091825260208083206001600c909302019182015460038301546004840154600585015485549f87526002909501909352604090942054909f60ff9094169e50909c50909a9950975095505050505050565b60008181526008602052604081205460078054839290811061254857612548613d4f565b6000918252602082206005909102018054909250829061256a90600190613d65565b8154811061257a5761257a613d4f565b60009182526020909120600c90910201805460049091015414949350505050565b6000546001600160a01b031633146125c55760405162461bcd60e51b815260040161081b906140ac565b6000836001600160a01b031683836040516125e091906140ee565b60006040518083038185875af1925050503d806000811461261d576040519150601f19603f3d011682016040523d82523d6000602084013e612622565b606091505b50509050806126675760405162461bcd60e51b8152602060048201526011602482015270155b9cdd58d8d95cdcd99d5b0818d85b1b607a1b604482015260640161081b565b50505050565b60008681526008602052604090205460078054889290811061269157612691613d4f565b600091825260209091206002600590920201015460ff16156126c55760405162461bcd60e51b815260040161081b90613e87565b60015460405163564a565d60e01b8152600481018990526000916001600160a01b03169063564a565d9060240160a06040518083038186803b15801561270a57600080fd5b505afa15801561271e573d6000803e3d6000fd5b505050506040513d601f19601f820116820180604052508101906127429190613d93565b5090935060029250612752915050565b81600481111561276457612764613c1f565b146127bf5760405162461bcd60e51b815260206004820152602560248201527f54686520646973707574652073686f756c6420626520696e20566f74652070656044820152643934b7b21760d91b606482015260840161081b565b856128015760405162461bcd60e51b8152602060048201526012602482015271139bc81d9bdd195251081c1c9bdd9a59195960721b604482015260640161081b565b60008881526008602052604081205460078054909190811061282557612825613d4f565b9060005260206000209060050201905080600101548611156128805760405162461bcd60e51b815260206004820152601460248201527343686f696365206f7574206f6620626f756e647360601b604482015260640161081b565b8054600090829061289390600190613d65565b815481106128a3576128a3613d4f565b60009182526020822060015460405163564a565d60e01b8152600481018f9052600c9390930290910193506001600160a01b03169063564a565d9060240160a06040518083038186803b1580156128f957600080fd5b505afa15801561290d573d6000803e3d6000fd5b505050506040513d601f19601f820116820180604052508101906129319190613d93565b5050600154604051630fad06e960e11b81526001600160601b03851660048201529394506000936001600160a01b039091169250631f5a0dd2915060240160c06040518083038186803b15801561298757600080fd5b505afa15801561299b573d6000803e3d6000fd5b505050506040513d601f19601f820116820180604052508101906129bf919061410a565b5050505091505060005b8a811015612c3d5733848d8d848181106129e5576129e5613d4f565b90506020020135815481106129fc576129fc613d4f565b60009182526020909120600490910201546001600160a01b031614612a335760405162461bcd60e51b815260040161081b90614075565b811580612aa7575089888a604051602001612a5093929190614162565b60405160208183030381529060405280519060200120846000018d8d84818110612a7c57612a7c613d4f565b9050602002013581548110612a9357612a93613d4f565b906000526020600020906004020160010154145b612b1b576040805162461bcd60e51b81526020600482015260248101919091527f54686520636f6d6d6974206d757374206d61746368207468652063686f69636560448201527f20696e20737562636f7572747320776974682068696464656e20766f7465732e606482015260840161081b565b838c8c83818110612b2e57612b2e613d4f565b9050602002013581548110612b4557612b45613d4f565b600091825260209091206003600490920201015460ff1615612b9e5760405162461bcd60e51b81526020600482015260126024820152712b37ba329030b63932b0b23c9031b0b9ba1760711b604482015260640161081b565b89848d8d84818110612bb257612bb2613d4f565b9050602002013581548110612bc957612bc9613d4f565b60009182526020909120600260049092020101556001848d8d84818110612bf257612bf2613d4f565b9050602002013581548110612c0957612c09613d4f565b60009182526020909120600490910201600301805460ff191691151591909117905580612c3581613f00565b9150506129c9565b508a8a9050836004016000828254612c559190613d37565b90915550506000898152600284016020526040812080548c9290612c7a908490613d37565b90915550506001830154891415612caa57600383015460ff1615612ca55760038301805460ff191690555b612d24565b60018301546000908152600284016020526040808220548b83529120541415612ced57600383015460ff16612ca55760038301805460ff19166001179055612d24565b60018301546000908152600284016020526040808220548b83529120541115612d24576001830189905560038301805460ff191690555b88336001600160a01b03168d7fbf654140f91f2e524d875f097947702b44380492730dd1653f5482c0b33e49cd8a604051612d5f919061418f565b60405180910390a4505050505050505050505050565b6000546001600160a01b03163314612d9f5760405162461bcd60e51b815260040161081b906140ac565b600180546001600160a01b0319166001600160a01b0392909216919091179055565b6000818152600860205260408120546007805483928392918110612de757612de7613d4f565b60009182526020822060059091020180549092508290612e0990600190613d65565b81548110612e1957612e19613d4f565b60009182526020909120600c909102016001810154600390910154909660ff90911695509350505050565b600154604051339185916001600160a01b03909116907fdccf2f8b2cc26eafcd61905cba744cff4b81d14740725f6376390dc6298a6a3c90612e8990879087906141a2565b60405180910390a4505050565b60008060008060006007600860008a81526020019081526020016000205481548110612ec457612ec4613d4f565b600091825260208083208a8452600360059093020191820190526040822054815491935083918110612ef857612ef8613d4f565b90600052602060002090600c02016000018781548110612f1a57612f1a613d4f565b600091825260209091206004909102018054600182015460028301546003909301546001600160a01b039092169c909b5091995060ff16975095505050505050565b6001546001600160a01b03163314612f865760405162461bcd60e51b815260040161081b90613e43565b60078054600181018255600091909152600581027fa66cc928b5edb82af9bd49922954155ab7b0942694bea4ce44661d9a8736c68981018690557fa66cc928b5edb82af9bd49922954155ab7b0942694bea4ce44661d9a8736c688810190613011907fa66cc928b5edb82af9bd49922954155ab7b0942694bea4ce44661d9a8736c68c018686613764565b50805460018054604051637e37c78b60e11b8152600481018b9052600385019260009290916001600160a01b039091169063fc6f8f169060240160206040518083038186803b15801561306357600080fd5b505afa158015613077573d6000803e3d6000fd5b505050506040513d601f19601f8201168201806040525081019061309b9190613d08565b6130a59190613d65565b81526020808201929092526040908101600090812093909355835460018181018655858552838520600b600c9093020191820188905560038201805460ff191690911790558a84526008909252822084905560068054919261310683613f00565b91905055505050505050505050565b60008381526008602052604081205460078054839290811061313957613139613d4f565b6000918252602080832087845260036005909302019182019052604082205481549193508391811061316d5761316d613d4f565b90600052602060002090600c0201600001848154811061318f5761318f613d4f565b600091825260209091206004909102016003015460ff169695505050505050565b6000546001600160a01b031633146131da5760405162461bcd60e51b815260040161081b906140ac565b600280546001600160a01b0319166001600160a01b038316179055600160055460ff16600281111561320e5761320e613c1f565b14156132825761321f601443613d37565b6003819055600254604051637363ae1f60e01b815260048101929092526001600160a01b031690637363ae1f90602401600060405180830381600087803b15801561326957600080fd5b505af115801561327d573d6000803e3d6000fd5b505050505b50565b60008060055460ff16600281111561329f5761329f613c1f565b14905090565b6000828152600860205260408120546007805483929081106132c9576132c9613d4f565b600091825260208083208684526003600590930201918201905260408220548154919350839181106132fd576132fd613d4f565b600091825260208220600154604051639b05c26160e01b8152600481018a9052600c93909302909101935082916001600160a01b0390911690639b05c26190602401604080518083038186803b15801561335657600080fd5b505afa15801561336a573d6000803e3d6000fd5b505050506040513d601f19601f8201168201806040525081019061338e9190614049565b915091508260040154600014806133bc5750801580156133bc57506000828152600284016020526040902054155b156133ce5760009450505050506133ff565b80156133e35750506004015491506133ff9050565b5060009081526002909101602052604090205491506133ff9050565b92915050565b6000546001600160a01b0316331461342f5760405162461bcd60e51b815260040161081b906140ac565b600080546001600160a01b0319166001600160a01b0392909216919091179055565b600060405160005b60148110156134745783811a81600c84010153600101613459565b505192915050565b60015460405163564a565d60e01b81526004810184905260009182916001600160a01b039091169063564a565d9060240160a06040518083038186803b1580156134c557600080fd5b505afa1580156134d9573d6000803e3d6000fd5b505050506040513d601f19601f820116820180604052508101906134fd9190613d93565b505060018054604051637e37c78b60e11b8152600481018a90529495506000946001600160a01b039091169350638a9bb02a9250889190849063fc6f8f169060240160206040518083038186803b15801561355757600080fd5b505afa15801561356b573d6000803e3d6000fd5b505050506040513d601f19601f8201168201806040525081019061358f9190613d08565b6135999190613d65565b6040516001600160e01b031960e085901b1681526004810192909252602482015260440160006040518083038186803b1580156135d557600080fd5b505afa1580156135e9573d6000803e3d6000fd5b505050506040513d6000823e601f3d908101601f1916820160405261361191908101906141d1565b5050600154604051631a383be960e31b81526001600160a01b038a811660048301526001600160601b0389166024830152959650600095869550909116925063d1c1df489150604401604080518083038186803b15801561367157600080fd5b505afa158015613685573d6000803e3d6000fd5b505050506040513d601f19601f820116820180604052508101906136a99190613f32565b600154604051630fad06e960e11b81526001600160601b03881660048201529294509092506000916001600160a01b0390911690631f5a0dd29060240160c06040518083038186803b1580156136fe57600080fd5b505afa158015613712573d6000803e3d6000fd5b505050506040513d601f19601f82011682018060405250810190613736919061410a565b5050509250505083826137499190613d37565b83101580156137585750808310155b98975050505050505050565b82805461377090613f56565b90600052602060002090601f01602090048101928261379257600085556137d8565b82601f106137ab5782800160ff198235161785556137d8565b828001600101855582156137d8579182015b828111156137d85782358255916020019190600101906137bd565b506137e49291506137e8565b5090565b5b808211156137e457600081556001016137e9565b60006020828403121561380f57600080fd5b5035919050565b6001600160a01b038116811461328257600080fd5b6000806000806080858703121561384157600080fd5b84359350602085013561385381613816565b93969395505050506040820135916060013590565b6000806040838503121561387b57600080fd5b50508035926020909101359150565b60008060006060848603121561389f57600080fd5b505081359360208301359350604090920135919050565b60005b838110156138d15781810151838201526020016138b9565b838111156126675750506000910152565b600081518084526138fa8160208601602086016138b6565b601f01601f19169290920160200192915050565b838152821515602082015260606040820152600061392f60608301846138e2565b95945050505050565b60008083601f84011261394a57600080fd5b5081356001600160401b0381111561396157600080fd5b6020830191508360208260051b850101111561397c57600080fd5b9250929050565b6000806000806060858703121561399957600080fd5b8435935060208501356001600160401b038111156139b657600080fd5b6139c287828801613938565b9598909750949560400135949350505050565b634e487b7160e01b600052604160045260246000fd5b604051601f8201601f191681016001600160401b0381118282101715613a1357613a136139d5565b604052919050565b60006001600160401b03831115613a3457613a346139d5565b613a47601f8401601f19166020016139eb565b9050828152838383011115613a5b57600080fd5b828260208301376000602084830101529392505050565b600080600060608486031215613a8757600080fd5b8335613a9281613816565b92506020840135915060408401356001600160401b03811115613ab457600080fd5b8401601f81018613613ac557600080fd5b613ad486823560208401613a1b565b9150509250925092565b60008060008060008060a08789031215613af757600080fd5b8635955060208701356001600160401b0380821115613b1557600080fd5b613b218a838b01613938565b909750955060408901359450606089013593506080890135915080821115613b4857600080fd5b508701601f81018913613b5a57600080fd5b613b6989823560208401613a1b565b9150509295509295509295565b600060208284031215613b8857600080fd5b81356120c381613816565b60008083601f840112613ba557600080fd5b5081356001600160401b03811115613bbc57600080fd5b60208301915083602082850101111561397c57600080fd5b600080600060408486031215613be957600080fd5b8335925060208401356001600160401b03811115613c0657600080fd5b613c1286828701613b93565b9497909650939450505050565b634e487b7160e01b600052602160045260246000fd5b6020810160038310613c5757634e487b7160e01b600052602160045260246000fd5b91905290565b600080600080600060808688031215613c7557600080fd5b853594506020860135935060408601356001600160401b03811115613c9957600080fd5b613ca588828901613b93565b96999598509660600135949350505050565b600060208284031215613cc957600080fd5b8151600281106120c357600080fd5b80518015158114613ce857600080fd5b919050565b600060208284031215613cff57600080fd5b6120c382613cd8565b600060208284031215613d1a57600080fd5b5051919050565b634e487b7160e01b600052601160045260246000fd5b60008219821115613d4a57613d4a613d21565b500190565b634e487b7160e01b600052603260045260246000fd5b600082821015613d7757613d77613d21565b500390565b80516001600160601b0381168114613ce857600080fd5b600080600080600060a08688031215613dab57600080fd5b613db486613d7c565b94506020860151613dc481613816565b604087015190945060058110613dd957600080fd5b9250613de760608701613cd8565b9150608086015190509295509295909350565b6000816000190483118215151615613e1457613e14613d21565b500290565b634e487b7160e01b600052601260045260246000fd5b600082613e3e57613e3e613e19565b500490565b60208082526024908201527f416363657373206e6f7420616c6c6f7765643a204b6c65726f73436f7265206f60408201526337363c9760e11b606082015260800190565b6020808252601e908201527f44697370757465206a756d70656420746f206120706172656e7420444b210000604082015260600190565b600080600060608486031215613ed357600080fd5b8351925060208401519150604084015190509250925092565b600082613efb57613efb613e19565b500690565b6000600019821415613f1457613f14613d21565b5060010190565b600081613f2a57613f2a613d21565b506000190190565b60008060408385031215613f4557600080fd5b505080516020909101519092909150565b600181811c90821680613f6a57607f821691505b60208210811415613f8b57634e487b7160e01b600052602260045260246000fd5b50919050565b838152600060208481840152606060408401526000845481600182811c915080831680613fbf57607f831692505b858310811415613fdd57634e487b7160e01b85526022600452602485fd5b6060880183905260808801818015613ffc576001811461400d57614038565b60ff19861682528782019650614038565b60008b81526020902060005b8681101561403257815484820152908501908901614019565b83019750505b50949b9a5050505050505050505050565b6000806040838503121561405c57600080fd5b8251915061406c60208401613cd8565b90509250929050565b6020808252601f908201527f5468652063616c6c65722068617320746f206f776e2074686520766f74652e00604082015260600190565b60208082526022908201527f416363657373206e6f7420616c6c6f7765643a20476f7665726e6f72206f6e6c6040820152613c9760f11b606082015260800190565b600082516141008184602087016138b6565b9190910192915050565b60008060008060008060c0878903121561412357600080fd5b61412c87613d7c565b955061413a60208801613cd8565b945060408701519350606087015192506080870151915060a087015190509295509295509295565b8381526000835161417a8160208501602088016138b6565b60209201918201929092526040019392505050565b6020815260006120c360208301846138e2565b60208152816020820152818360408301376000818301604090810191909152601f909201601f19160101919050565b60008060008060008060c087890312156141ea57600080fd5b865195506020808801519550604088015194506060880151935060808801516001600160401b038082111561421e57600080fd5b818a0191508a601f83011261423257600080fd5b815181811115614244576142446139d5565b8060051b91506142558483016139eb565b818152918301840191848101908d84111561426f57600080fd5b938501935b83851015614299578451925061428983613816565b8282529385019390850190614274565b80975050505050505060a08701519050929550929550929556fea26469706673582212207da61d98f9f27a085808a3dc59ec51a542aba9e378b56351689e01b33922679f64736f6c63430008090033",
  "devdoc": {
    "kind": "dev",
    "methods": {
      "areCommitsAllCast(uint256)": {
        "details": "Returns true if all of the jurors have cast their commits for the last round.",
        "params": {
          "_coreDisputeID": "The ID of the dispute in Kleros Core."
        },
        "returns": {
          "_0": "Whether all of the jurors have cast their commits for the last round."
        }
      },
      "areVotesAllCast(uint256)": {
        "details": "Returns true if all of the jurors have cast their votes for the last round.",
        "params": {
          "_coreDisputeID": "The ID of the dispute in Kleros Core."
        },
        "returns": {
          "_0": "Whether all of the jurors have cast their votes for the last round."
        }
      },
      "castCommit(uint256,uint256[],bytes32)": {
        "details": "Sets the caller's commit for the specified votes. It can be called multiple times during the  commit period, each call overrides the commits of the previous one.  `O(n)` where  `n` is the number of votes.",
        "params": {
          "_commit": "The commit. Note that justification string is a part of the commit.",
          "_coreDisputeID": "The ID of the dispute in Kleros Core.",
          "_voteIDs": "The IDs of the votes."
        }
      },
      "castVote(uint256,uint256[],uint256,uint256,string)": {
        "details": "Sets the caller's choices for the specified votes.  `O(n)` where  `n` is the number of votes.",
        "params": {
          "_choice": "The choice.",
          "_coreDisputeID": "The ID of the dispute in Kleros Core.",
          "_justification": "Justification of the choice.",
          "_salt": "The salt for the commit if the votes were hidden.",
          "_voteIDs": "The IDs of the votes."
        }
      },
      "changeCore(address)": {
        "details": "Changes the `core` storage variable.",
        "params": {
          "_core": "The new value for the `core` storage variable."
        }
      },
      "changeGovernor(address)": {
        "details": "Changes the `governor` storage variable.",
        "params": {
          "_governor": "The new value for the `governor` storage variable."
        }
      },
      "changeRandomNumberGenerator(address)": {
        "details": "Changes the `_rng` storage variable.",
        "params": {
          "_rng": "The new value for the `RNGenerator` storage variable."
        }
      },
      "constructor": {
        "details": "Constructor.",
        "params": {
          "_core": "The KlerosCore arbitrator.",
          "_governor": "The governor's address.",
          "_rng": "The random number generator."
        }
      },
      "createDispute(uint256,uint256,bytes,uint256)": {
        "details": "Creates a local dispute and maps it to the dispute ID in the Core contract.  Note: Access restricted to Kleros Core only.",
        "params": {
          "_coreDisputeID": "The ID of the dispute in Kleros Core.",
          "_extraData": "Additional info about the dispute, for possible use in future dispute kits.",
          "_nbVotes": "Number of votes for this dispute.",
          "_numberOfChoices": "Number of choices of the dispute"
        }
      },
      "currentRuling(uint256)": {
        "details": "Gets the current ruling of a specified dispute.",
        "params": {
          "_coreDisputeID": "The ID of the dispute in Kleros Core."
        },
        "returns": {
          "ruling": "The current ruling."
        }
      },
      "draw(uint256)": {
        "details": "Draws the juror from the sortition tree. The drawn address is picked up by Kleros Core.  Note: Access restricted to Kleros Core only.",
        "params": {
          "_coreDisputeID": "The ID of the dispute in Kleros Core."
        },
        "returns": {
          "drawnAddress": "The drawn address."
        }
      },
      "executeGovernorProposal(address,uint256,bytes)": {
        "details": "Allows the governor to call anything on behalf of the contract.",
        "params": {
          "_amount": "The value sent with the call.",
          "_data": "The data sent with the call.",
          "_destination": "The destination of the call."
        }
      },
      "fundAppeal(uint256,uint256)": {
        "details": "Manages contributions, and appeals a dispute if at least two choices are fully funded.  Note that the surplus deposit will be reimbursed.",
        "params": {
          "_choice": "A choice that receives funding.",
          "_coreDisputeID": "Index of the dispute in Kleros Core."
        }
      },
      "getCoherentCount(uint256,uint256)": {
        "details": "Gets the number of jurors who are eligible to a reward in this round.",
        "params": {
          "_coreDisputeID": "The ID of the dispute in Kleros Core, not in the Dispute Kit.",
          "_coreRoundID": "The ID of the round in Kleros Core, not in the Dispute Kit."
        },
        "returns": {
          "_0": "The number of coherent jurors."
        }
      },
      "getDegreeOfCoherence(uint256,uint256,uint256)": {
        "details": "Gets the degree of coherence of a particular voter. This function is called by Kleros Core in order to determine the amount of the reward.",
        "params": {
          "_coreDisputeID": "The ID of the dispute in Kleros Core, not in the Dispute Kit.",
          "_coreRoundID": "The ID of the round in Kleros Core, not in the Dispute Kit.",
          "_voteID": "The ID of the vote."
        },
        "returns": {
          "_0": "The degree of coherence in basis points."
        }
      },
      "getLastRoundResult(uint256)": {
        "details": "Returns the voting data from the most relevant round.",
        "params": {
          "_coreDisputeID": "The ID of the dispute in Kleros Core, not in the Dispute Kit."
        },
        "returns": {
          "tied": "Whether it's a tie or not.",
          "winningChoice": "The winning choice of this round."
        }
      },
      "isResolving()": {
        "details": "Returns true if the dispute kit is ready to Resolve, regardless of the number of disputes without jurors.",
        "returns": {
          "_0": "Whether the dispute kit is ready to resolve, regardless of the number of disputes without jurors."
        }
      },
      "isVoteActive(uint256,uint256,uint256)": {
        "details": "Returns true if the specified voter was active in this round.",
        "params": {
          "_coreDisputeID": "The ID of the dispute in Kleros Core, not in the Dispute Kit.",
          "_coreRoundID": "The ID of the round in Kleros Core, not in the Dispute Kit.",
          "_voteID": "The ID of the voter."
        },
        "returns": {
          "_0": "Whether the voter was active or not."
        }
      },
      "passPhase()": {
        "details": "Passes the phase."
      },
      "submitEvidence(uint256,string)": {
        "details": "Submits evidence.",
        "params": {
          "_evidence": "IPFS path to evidence, example: '/ipfs/Qmarwkf7C9RuzDEJNnarT3WZ7kem5bk8DZAzx78acJjMFH/evidence.json'.",
          "_evidenceGroupID": "Unique identifier of the evidence group the evidence belongs to. It's the submitter responsability to submit the right evidence group ID."
        }
      },
      "withdrawFeesAndRewards(uint256,address,uint256,uint256)": {
        "details": "Allows those contributors who attempted to fund an appeal round to withdraw any reimbursable fees or rewards after the dispute gets resolved.",
        "params": {
          "_beneficiary": "The address whose rewards to withdraw.",
          "_choice": "The ruling option that the caller wants to withdraw from.",
          "_coreDisputeID": "Index of the dispute in Kleros Core contract.",
          "_coreRoundID": "The round in the Kleros Core contract the caller wants to withdraw from."
        },
        "returns": {
          "amount": "The withdrawn amount."
        }
      }
    },
    "stateVariables": {
      "disputesWithoutJurors": {
        "details": "Returns the number of disputes without jurors in the dispute kit.",
        "return": "The number of disputes without jurors in the dispute kit.",
        "returns": {
          "_0": "The number of disputes without jurors in the dispute kit."
        }
      }
    },
    "title": "DisputeKitClassic  Dispute kit implementation of the Kleros v1 features including:  - a drawing system: proportional to staked PNK,  - a vote aggreation system: plurality,  - an incentive system: equal split between coherent votes,  - an appeal system: fund 2 choices only, vote on any choice.",
    "version": 1
  },
  "userdoc": {
    "kind": "user",
    "methods": {},
    "version": 1
  },
  "storageLayout": {
    "storage": [
      {
        "astId": 4222,
        "contract": "src/arbitration/dispute-kits/DisputeKitClassic.sol:DisputeKitClassic",
        "label": "governor",
        "offset": 0,
        "slot": "0",
        "type": "t_address"
      },
      {
        "astId": 4225,
        "contract": "src/arbitration/dispute-kits/DisputeKitClassic.sol:DisputeKitClassic",
        "label": "core",
        "offset": 0,
        "slot": "1",
        "type": "t_contract(KlerosCore)4193"
      },
      {
        "astId": 4402,
        "contract": "src/arbitration/dispute-kits/DisputeKitClassic.sol:DisputeKitClassic",
        "label": "rng",
        "offset": 0,
        "slot": "2",
        "type": "t_contract(RNG)9143"
      },
      {
        "astId": 4404,
        "contract": "src/arbitration/dispute-kits/DisputeKitClassic.sol:DisputeKitClassic",
        "label": "rngRequestedBlock",
        "offset": 0,
        "slot": "3",
        "type": "t_uint256"
      },
      {
        "astId": 4406,
        "contract": "src/arbitration/dispute-kits/DisputeKitClassic.sol:DisputeKitClassic",
        "label": "randomNumber",
        "offset": 0,
        "slot": "4",
        "type": "t_uint256"
      },
      {
        "astId": 4409,
        "contract": "src/arbitration/dispute-kits/DisputeKitClassic.sol:DisputeKitClassic",
        "label": "phase",
        "offset": 0,
        "slot": "5",
        "type": "t_enum(Phase)4322"
      },
      {
        "astId": 4411,
        "contract": "src/arbitration/dispute-kits/DisputeKitClassic.sol:DisputeKitClassic",
        "label": "disputesWithoutJurors",
        "offset": 0,
        "slot": "6",
        "type": "t_uint256"
      },
      {
        "astId": 4415,
        "contract": "src/arbitration/dispute-kits/DisputeKitClassic.sol:DisputeKitClassic",
        "label": "disputes",
        "offset": 0,
        "slot": "7",
        "type": "t_array(t_struct(Dispute)4337_storage)dyn_storage"
      },
      {
        "astId": 4419,
        "contract": "src/arbitration/dispute-kits/DisputeKitClassic.sol:DisputeKitClassic",
        "label": "coreDisputeIDToLocal",
        "offset": 0,
        "slot": "8",
        "type": "t_mapping(t_uint256,t_uint256)"
      }
    ],
    "types": {
      "t_address": {
        "encoding": "inplace",
        "label": "address",
        "numberOfBytes": "20"
      },
      "t_array(t_struct(Dispute)4337_storage)dyn_storage": {
        "base": "t_struct(Dispute)4337_storage",
        "encoding": "dynamic_array",
        "label": "struct DisputeKitClassic.Dispute[]",
        "numberOfBytes": "32"
      },
      "t_array(t_struct(Round)4375_storage)dyn_storage": {
        "base": "t_struct(Round)4375_storage",
        "encoding": "dynamic_array",
        "label": "struct DisputeKitClassic.Round[]",
        "numberOfBytes": "32"
      },
      "t_array(t_struct(Vote)4384_storage)dyn_storage": {
        "base": "t_struct(Vote)4384_storage",
        "encoding": "dynamic_array",
        "label": "struct DisputeKitClassic.Vote[]",
        "numberOfBytes": "32"
      },
      "t_array(t_uint256)dyn_storage": {
        "base": "t_uint256",
        "encoding": "dynamic_array",
        "label": "uint256[]",
        "numberOfBytes": "32"
      },
      "t_bool": {
        "encoding": "inplace",
        "label": "bool",
        "numberOfBytes": "1"
      },
      "t_bytes32": {
        "encoding": "inplace",
        "label": "bytes32",
        "numberOfBytes": "32"
      },
      "t_bytes_storage": {
        "encoding": "bytes",
        "label": "bytes",
        "numberOfBytes": "32"
      },
      "t_contract(KlerosCore)4193": {
        "encoding": "inplace",
        "label": "contract KlerosCore",
        "numberOfBytes": "20"
      },
      "t_contract(RNG)9143": {
        "encoding": "inplace",
        "label": "contract RNG",
        "numberOfBytes": "20"
      },
      "t_enum(Phase)4322": {
        "encoding": "inplace",
        "label": "enum DisputeKitClassic.Phase",
        "numberOfBytes": "1"
      },
      "t_mapping(t_address,t_mapping(t_uint256,t_uint256))": {
        "encoding": "mapping",
        "key": "t_address",
        "label": "mapping(address => mapping(uint256 => uint256))",
        "numberOfBytes": "32",
        "value": "t_mapping(t_uint256,t_uint256)"
      },
      "t_mapping(t_uint256,t_bool)": {
        "encoding": "mapping",
        "key": "t_uint256",
        "label": "mapping(uint256 => bool)",
        "numberOfBytes": "32",
        "value": "t_bool"
      },
      "t_mapping(t_uint256,t_uint256)": {
        "encoding": "mapping",
        "key": "t_uint256",
        "label": "mapping(uint256 => uint256)",
        "numberOfBytes": "32",
        "value": "t_uint256"
      },
      "t_struct(Dispute)4337_storage": {
        "encoding": "inplace",
        "label": "struct DisputeKitClassic.Dispute",
        "members": [
          {
            "astId": 4326,
            "contract": "src/arbitration/dispute-kits/DisputeKitClassic.sol:DisputeKitClassic",
            "label": "rounds",
            "offset": 0,
            "slot": "0",
            "type": "t_array(t_struct(Round)4375_storage)dyn_storage"
          },
          {
            "astId": 4328,
            "contract": "src/arbitration/dispute-kits/DisputeKitClassic.sol:DisputeKitClassic",
            "label": "numberOfChoices",
            "offset": 0,
            "slot": "1",
            "type": "t_uint256"
          },
          {
            "astId": 4330,
            "contract": "src/arbitration/dispute-kits/DisputeKitClassic.sol:DisputeKitClassic",
            "label": "jumped",
            "offset": 0,
            "slot": "2",
            "type": "t_bool"
          },
          {
            "astId": 4334,
            "contract": "src/arbitration/dispute-kits/DisputeKitClassic.sol:DisputeKitClassic",
            "label": "coreRoundIDToLocal",
            "offset": 0,
            "slot": "3",
            "type": "t_mapping(t_uint256,t_uint256)"
          },
          {
            "astId": 4336,
            "contract": "src/arbitration/dispute-kits/DisputeKitClassic.sol:DisputeKitClassic",
            "label": "extraData",
            "offset": 0,
            "slot": "4",
            "type": "t_bytes_storage"
          }
        ],
        "numberOfBytes": "160"
      },
      "t_struct(Round)4375_storage": {
        "encoding": "inplace",
        "label": "struct DisputeKitClassic.Round",
        "members": [
          {
            "astId": 4341,
            "contract": "src/arbitration/dispute-kits/DisputeKitClassic.sol:DisputeKitClassic",
            "label": "votes",
            "offset": 0,
            "slot": "0",
            "type": "t_array(t_struct(Vote)4384_storage)dyn_storage"
          },
          {
            "astId": 4343,
            "contract": "src/arbitration/dispute-kits/DisputeKitClassic.sol:DisputeKitClassic",
            "label": "winningChoice",
            "offset": 0,
            "slot": "1",
            "type": "t_uint256"
          },
          {
            "astId": 4347,
            "contract": "src/arbitration/dispute-kits/DisputeKitClassic.sol:DisputeKitClassic",
            "label": "counts",
            "offset": 0,
            "slot": "2",
            "type": "t_mapping(t_uint256,t_uint256)"
          },
          {
            "astId": 4349,
            "contract": "src/arbitration/dispute-kits/DisputeKitClassic.sol:DisputeKitClassic",
            "label": "tied",
            "offset": 0,
            "slot": "3",
            "type": "t_bool"
          },
          {
            "astId": 4351,
            "contract": "src/arbitration/dispute-kits/DisputeKitClassic.sol:DisputeKitClassic",
            "label": "totalVoted",
            "offset": 0,
            "slot": "4",
            "type": "t_uint256"
          },
          {
            "astId": 4353,
            "contract": "src/arbitration/dispute-kits/DisputeKitClassic.sol:DisputeKitClassic",
            "label": "totalCommitted",
            "offset": 0,
            "slot": "5",
            "type": "t_uint256"
          },
          {
            "astId": 4357,
            "contract": "src/arbitration/dispute-kits/DisputeKitClassic.sol:DisputeKitClassic",
            "label": "paidFees",
            "offset": 0,
            "slot": "6",
            "type": "t_mapping(t_uint256,t_uint256)"
          },
          {
            "astId": 4361,
            "contract": "src/arbitration/dispute-kits/DisputeKitClassic.sol:DisputeKitClassic",
            "label": "hasPaid",
            "offset": 0,
            "slot": "7",
            "type": "t_mapping(t_uint256,t_bool)"
          },
          {
            "astId": 4367,
            "contract": "src/arbitration/dispute-kits/DisputeKitClassic.sol:DisputeKitClassic",
            "label": "contributions",
            "offset": 0,
            "slot": "8",
            "type": "t_mapping(t_address,t_mapping(t_uint256,t_uint256))"
          },
          {
            "astId": 4369,
            "contract": "src/arbitration/dispute-kits/DisputeKitClassic.sol:DisputeKitClassic",
            "label": "feeRewards",
            "offset": 0,
            "slot": "9",
            "type": "t_uint256"
          },
          {
            "astId": 4372,
            "contract": "src/arbitration/dispute-kits/DisputeKitClassic.sol:DisputeKitClassic",
            "label": "fundedChoices",
            "offset": 0,
            "slot": "10",
            "type": "t_array(t_uint256)dyn_storage"
          },
          {
            "astId": 4374,
            "contract": "src/arbitration/dispute-kits/DisputeKitClassic.sol:DisputeKitClassic",
            "label": "nbVotes",
            "offset": 0,
            "slot": "11",
            "type": "t_uint256"
          }
        ],
        "numberOfBytes": "384"
      },
      "t_struct(Vote)4384_storage": {
        "encoding": "inplace",
        "label": "struct DisputeKitClassic.Vote",
        "members": [
          {
            "astId": 4377,
            "contract": "src/arbitration/dispute-kits/DisputeKitClassic.sol:DisputeKitClassic",
            "label": "account",
            "offset": 0,
            "slot": "0",
            "type": "t_address"
          },
          {
            "astId": 4379,
            "contract": "src/arbitration/dispute-kits/DisputeKitClassic.sol:DisputeKitClassic",
            "label": "commit",
            "offset": 0,
            "slot": "1",
            "type": "t_bytes32"
          },
          {
            "astId": 4381,
            "contract": "src/arbitration/dispute-kits/DisputeKitClassic.sol:DisputeKitClassic",
            "label": "choice",
            "offset": 0,
            "slot": "2",
            "type": "t_uint256"
          },
          {
            "astId": 4383,
            "contract": "src/arbitration/dispute-kits/DisputeKitClassic.sol:DisputeKitClassic",
            "label": "voted",
            "offset": 0,
            "slot": "3",
            "type": "t_bool"
          }
        ],
        "numberOfBytes": "128"
      },
      "t_uint256": {
        "encoding": "inplace",
        "label": "uint256",
        "numberOfBytes": "32"
      }
    }
  }
}