{
  "address": "0x99392099F988E889Cc9BD55f632C674C3aeEF7F2",
  "abi": [
    {
      "inputs": [
        {
          "internalType": "contract IArbitrator",
          "name": "_arbitrator",
          "type": "address"
        }
      ],
      "stateMutability": "nonpayable",
      "type": "constructor"
    },
    {
      "anonymous": false,
      "inputs": [
        {
          "indexed": true,
          "internalType": "contract IArbitrator",
          "name": "_arbitrator",
          "type": "address"
        },
        {
          "indexed": true,
          "internalType": "uint256",
          "name": "_disputeID",
          "type": "uint256"
        },
        {
          "indexed": false,
          "internalType": "uint256",
          "name": "_metaEvidenceID",
          "type": "uint256"
        },
        {
          "indexed": false,
          "internalType": "uint256",
          "name": "_evidenceGroupID",
          "type": "uint256"
        }
      ],
      "name": "Dispute",
      "type": "event"
    },
    {
      "anonymous": false,
      "inputs": [
        {
          "indexed": true,
          "internalType": "contract IArbitrator",
          "name": "_arbitrator",
          "type": "address"
        },
        {
          "indexed": true,
          "internalType": "uint256",
          "name": "_evidenceGroupID",
          "type": "uint256"
        },
        {
          "indexed": true,
          "internalType": "address",
          "name": "_party",
          "type": "address"
        },
        {
          "indexed": false,
          "internalType": "string",
          "name": "_evidence",
          "type": "string"
        }
      ],
      "name": "Evidence",
      "type": "event"
    },
    {
      "anonymous": false,
      "inputs": [
        {
          "indexed": true,
          "internalType": "uint256",
          "name": "_metaEvidenceID",
          "type": "uint256"
        },
        {
          "indexed": false,
          "internalType": "string",
          "name": "_evidence",
          "type": "string"
        }
      ],
      "name": "MetaEvidence",
      "type": "event"
    },
    {
      "anonymous": false,
      "inputs": [
        {
          "indexed": true,
          "internalType": "contract IArbitrator",
          "name": "_arbitrator",
          "type": "address"
        },
        {
          "indexed": true,
          "internalType": "uint256",
          "name": "_disputeID",
          "type": "uint256"
        },
        {
          "indexed": false,
          "internalType": "uint256",
          "name": "_ruling",
          "type": "uint256"
        }
      ],
      "name": "Ruling",
      "type": "event"
    },
    {
      "inputs": [],
      "name": "arbitrator",
      "outputs": [
        {
          "internalType": "contract IArbitrator",
          "name": "",
          "type": "address"
        }
      ],
      "stateMutability": "view",
      "type": "function"
    },
    {
      "inputs": [
        {
          "internalType": "bytes",
          "name": "_arbitratorExtraData",
          "type": "bytes"
        },
        {
          "internalType": "string",
          "name": "_metaevidenceURI",
          "type": "string"
        },
        {
          "internalType": "uint256",
          "name": "_numberOfRulingOptions",
          "type": "uint256"
        }
      ],
      "name": "createDispute",
      "outputs": [
        {
          "internalType": "uint256",
          "name": "disputeID",
          "type": "uint256"
        }
      ],
      "stateMutability": "payable",
      "type": "function"
    },
    {
      "inputs": [
        {
          "internalType": "uint256",
          "name": "",
          "type": "uint256"
        }
      ],
      "name": "disputes",
      "outputs": [
        {
          "internalType": "bytes",
          "name": "arbitratorExtraData",
          "type": "bytes"
        },
        {
          "internalType": "bool",
          "name": "isRuled",
          "type": "bool"
        },
        {
          "internalType": "uint256",
          "name": "ruling",
          "type": "uint256"
        },
        {
          "internalType": "uint256",
          "name": "numberOfRulingOptions",
          "type": "uint256"
        }
      ],
      "stateMutability": "view",
      "type": "function"
    },
    {
      "inputs": [
        {
          "internalType": "uint256",
          "name": "",
          "type": "uint256"
        }
      ],
      "name": "externalIDtoLocalID",
      "outputs": [
        {
          "internalType": "uint256",
          "name": "",
          "type": "uint256"
        }
      ],
      "stateMutability": "view",
      "type": "function"
    },
    {
      "inputs": [
        {
          "internalType": "uint256",
          "name": "_externalDisputeID",
          "type": "uint256"
        },
        {
          "internalType": "uint256",
          "name": "_ruling",
          "type": "uint256"
        }
      ],
      "name": "rule",
      "outputs": [],
      "stateMutability": "nonpayable",
      "type": "function"
    }
  ],
  "transactionHash": "0x845b9d368702d85d98115da4a9e114a9dae3ca1edb357a446300b95755be7ce0",
  "args": [
    "0xdfea19B51cDe76Aa659bB72401AC14FFCFe42Cde"
  ],
  "numDeployments": 1,
  "solcInputHash": "f57208d12ea18de1e79aa93372bf0e19",
  "bytecode": "0x60a060405234801561001057600080fd5b506040516109f23803806109f283398101604081905261002f91610040565b6001600160a01b0316608052610070565b60006020828403121561005257600080fd5b81516001600160a01b038116811461006957600080fd5b9392505050565b60805161095361009f6000396000818160bc0152818161017c0152818161044c01526105f501526109536000f3fe60806040526004361061004a5760003560e01c8063311a6c561461004f578063564a565d146100715780636cc6cde1146100aa578063c21ae061146100f6578063e2c7981b14610131575b600080fd5b34801561005b57600080fd5b5061006f61006a3660046106e4565b610144565b005b34801561007d57600080fd5b5061009161008c366004610706565b610309565b6040516100a1949392919061071f565b60405180910390f35b3480156100b657600080fd5b506100de7f000000000000000000000000000000000000000000000000000000000000000081565b6040516001600160a01b0390911681526020016100a1565b34801561010257600080fd5b50610123610111366004610706565b60016020526000908152604090205481565b6040519081526020016100a1565b61012361013f3660046107d7565b6103d7565b600082815260016020526040812054815490919081908390811061016a5761016a61084b565b906000526020600020906004020190507f00000000000000000000000000000000000000000000000000000000000000006001600160a01b0316336001600160a01b03161461020e5760405162461bcd60e51b815260206004820152602560248201527f4f6e6c79207468652061726269747261746f722063616e2065786563757465206044820152643a3434b99760d91b60648201526084015b60405180910390fd5b80600301548311156102545760405162461bcd60e51b815260206004820152600f60248201526e24b73b30b634b210393ab634b7339760891b6044820152606401610205565b600181015460ff16156102b55760405162461bcd60e51b8152602060048201526024808201527f54686973206469737075746520686173206265656e2072756c656420616c726560448201526330b23c9760e11b6064820152608401610205565b6001818101805460ff1916909117905560028101839055604051838152849033907f394027a5fa6e098a1191094d1719d6929b9abc535fcc0c8f448d6a4e756222769060200160405180910390a350505050565b6000818154811061031957600080fd5b906000526020600020906004020160009150905080600001805461033c90610861565b80601f016020809104026020016040519081016040528092919081815260200182805461036890610861565b80156103b55780601f1061038a576101008083540402835291602001916103b5565b820191906000526020600020905b81548152906001019060200180831161039857829003601f168201915b5050505060018301546002840154600390940154929360ff9091169290915084565b6000600182116104355760405162461bcd60e51b8152602060048201526024808201527f53686f756c64206265206174206c6561737420322072756c696e67206f70746960448201526337b7399760e11b6064820152608401610205565b60405163c13517e160e01b81526001600160a01b037f0000000000000000000000000000000000000000000000000000000000000000169063c13517e19034906104879086908b908b906004016108c5565b6020604051808303818588803b1580156104a057600080fd5b505af11580156104b4573d6000803e3d6000fd5b50505050506040513d601f19601f820116820180604052508101906104d991906108e8565b600080546040805160a06020601f8c018190040282018101909252608081018a8152949550919382918b908b90819085018382808284376000920182905250938552505050602080830182905260408301829052606090920187905283546001810185559381528190208251805193946004029091019261055d928492019061064b565b506020828101516001838101805460ff191692151592909217909155604080850151600285015560609094015160039093019290925560008581529190528190208290555181907f61606860eb6c87306811e2695215385101daab53bd6ab4e9f9049aead9363c7d906105d39088908890610901565b60405180910390a2604080518281526020810183905283916001600160a01b037f000000000000000000000000000000000000000000000000000000000000000016917f74baab670a4015ab2f1b467c5252a96141a2573f2908e58a92081e80d3cfde3d910160405180910390a35095945050505050565b82805461065790610861565b90600052602060002090601f01602090048101928261067957600085556106bf565b82601f1061069257805160ff19168380011785556106bf565b828001600101855582156106bf579182015b828111156106bf5782518255916020019190600101906106a4565b506106cb9291506106cf565b5090565b5b808211156106cb57600081556001016106d0565b600080604083850312156106f757600080fd5b50508035926020909101359150565b60006020828403121561071857600080fd5b5035919050565b608081526000855180608084015260005b8181101561074d57602081890181015160a0868401015201610730565b8181111561075f57600060a083860101525b50601f01601f1916820160a001905061077c602083018615159052565b60408201939093526060015292915050565b60008083601f8401126107a057600080fd5b50813567ffffffffffffffff8111156107b857600080fd5b6020830191508360208285010111156107d057600080fd5b9250929050565b6000806000806000606086880312156107ef57600080fd5b853567ffffffffffffffff8082111561080757600080fd5b61081389838a0161078e565b9097509550602088013591508082111561082c57600080fd5b506108398882890161078e565b96999598509660400135949350505050565b634e487b7160e01b600052603260045260246000fd5b600181811c9082168061087557607f821691505b6020821081141561089657634e487b7160e01b600052602260045260246000fd5b50919050565b81835281816020850137506000828201602090810191909152601f909101601f19169091010190565b8381526040602082015260006108df60408301848661089c565b95945050505050565b6000602082840312156108fa57600080fd5b5051919050565b60208152600061091560208301848661089c565b94935050505056fea26469706673582212201f4c6680b3acb7d299efdd3561dfb7357ead86be2ce578e95352cf7a65b0385064736f6c63430008090033",
  "devdoc": {
    "kind": "dev",
    "methods": {
      "constructor": {
        "details": "Constructor",
        "params": {
          "_arbitrator": "Target global arbitrator for any disputes."
        }
      },
      "createDispute(bytes,string,uint256)": {
        "details": "TRUSTED. Calls createDispute function of the specified arbitrator to create a dispute. Note that we don’t need to check that msg.value is enough to pay arbitration fees as it’s the responsibility of the arbitrator contract.",
        "params": {
          "_arbitratorExtraData": "Extra data for the arbitrator of the dispute.",
          "_metaevidenceURI": "Link to metaevidence of the dispute.",
          "_numberOfRulingOptions": "Number of ruling options."
        },
        "returns": {
          "disputeID": "Dispute id (on arbitrator side) of the created dispute."
        }
      },
      "rule(uint256,uint256)": {
        "details": "To be called by the arbitrator of the dispute, to declare the winning ruling.",
        "params": {
          "_externalDisputeID": "ID of the dispute in arbitrator contract.",
          "_ruling": "The ruling choice of the arbitration."
        }
      }
    },
    "title": "DisputeResolver  DisputeResolver contract adapted for V2 https://github.com/kleros/arbitrable-proxy-contracts/blob/master/contracts/ArbitrableProxy.sol.",
    "version": 1
  },
  "userdoc": {
    "kind": "user",
    "methods": {},
    "version": 1
  },
  "storageLayout": {
    "storage": [
      {
        "astId": 6150,
        "contract": "src/arbitration/arbitrables/DisputeResolver.sol:DisputeResolver",
        "label": "disputes",
        "offset": 0,
        "slot": "0",
        "type": "t_array(t_struct(DisputeStruct)6143_storage)dyn_storage"
      },
      {
        "astId": 6154,
        "contract": "src/arbitration/arbitrables/DisputeResolver.sol:DisputeResolver",
        "label": "externalIDtoLocalID",
        "offset": 0,
        "slot": "1",
        "type": "t_mapping(t_uint256,t_uint256)"
      }
    ],
    "types": {
      "t_array(t_struct(DisputeStruct)6143_storage)dyn_storage": {
        "base": "t_struct(DisputeStruct)6143_storage",
        "encoding": "dynamic_array",
        "label": "struct DisputeResolver.DisputeStruct[]",
        "numberOfBytes": "32"
      },
      "t_bool": {
        "encoding": "inplace",
        "label": "bool",
        "numberOfBytes": "1"
      },
      "t_bytes_storage": {
        "encoding": "bytes",
        "label": "bytes",
        "numberOfBytes": "32"
      },
      "t_mapping(t_uint256,t_uint256)": {
        "encoding": "mapping",
        "key": "t_uint256",
        "label": "mapping(uint256 => uint256)",
        "numberOfBytes": "32",
        "value": "t_uint256"
      },
      "t_struct(DisputeStruct)6143_storage": {
        "encoding": "inplace",
        "label": "struct DisputeResolver.DisputeStruct",
        "members": [
          {
            "astId": 6136,
            "contract": "src/arbitration/arbitrables/DisputeResolver.sol:DisputeResolver",
            "label": "arbitratorExtraData",
            "offset": 0,
            "slot": "0",
            "type": "t_bytes_storage"
          },
          {
            "astId": 6138,
            "contract": "src/arbitration/arbitrables/DisputeResolver.sol:DisputeResolver",
            "label": "isRuled",
            "offset": 0,
            "slot": "1",
            "type": "t_bool"
          },
          {
            "astId": 6140,
            "contract": "src/arbitration/arbitrables/DisputeResolver.sol:DisputeResolver",
            "label": "ruling",
            "offset": 0,
            "slot": "2",
            "type": "t_uint256"
          },
          {
            "astId": 6142,
            "contract": "src/arbitration/arbitrables/DisputeResolver.sol:DisputeResolver",
            "label": "numberOfRulingOptions",
            "offset": 0,
            "slot": "3",
            "type": "t_uint256"
          }
        ],
        "numberOfBytes": "128"
      },
      "t_uint256": {
        "encoding": "inplace",
        "label": "uint256",
        "numberOfBytes": "32"
      }
    }
  }
}