{
  "address": "0xf6356Ff189C0fBDa4A1e8dB6BF24Dc66CfBa003B",
  "abi": [
    {
      "inputs": [
        {
          "internalType": "contract IArbitrator",
          "name": "_arbitrator",
          "type": "address"
        }
      ],
      "stateMutability": "nonpayable",
      "type": "constructor"
    },
    {
      "anonymous": false,
      "inputs": [
        {
          "indexed": true,
          "internalType": "contract IArbitrator",
          "name": "_arbitrator",
          "type": "address"
        },
        {
          "indexed": true,
          "internalType": "uint256",
          "name": "_disputeID",
          "type": "uint256"
        },
        {
          "indexed": false,
          "internalType": "uint256",
          "name": "_metaEvidenceID",
          "type": "uint256"
        },
        {
          "indexed": false,
          "internalType": "uint256",
          "name": "_evidenceGroupID",
          "type": "uint256"
        }
      ],
      "name": "Dispute",
      "type": "event"
    },
    {
      "anonymous": false,
      "inputs": [
        {
          "indexed": true,
          "internalType": "uint256",
          "name": "_metaEvidenceID",
          "type": "uint256"
        },
        {
          "indexed": false,
          "internalType": "string",
          "name": "_evidence",
          "type": "string"
        }
      ],
      "name": "MetaEvidence",
      "type": "event"
    },
    {
      "anonymous": false,
      "inputs": [
        {
          "indexed": true,
          "internalType": "contract IArbitrator",
          "name": "_arbitrator",
          "type": "address"
        },
        {
          "indexed": true,
          "internalType": "uint256",
          "name": "_disputeID",
          "type": "uint256"
        },
        {
          "indexed": false,
          "internalType": "uint256",
          "name": "_ruling",
          "type": "uint256"
        }
      ],
      "name": "Ruling",
      "type": "event"
    },
    {
      "inputs": [],
      "name": "arbitrator",
      "outputs": [
        {
          "internalType": "contract IArbitrator",
          "name": "",
          "type": "address"
        }
      ],
      "stateMutability": "view",
      "type": "function"
    },
    {
      "inputs": [
        {
          "internalType": "bytes",
          "name": "_arbitratorExtraData",
          "type": "bytes"
        },
        {
          "internalType": "string",
          "name": "_metaevidenceURI",
          "type": "string"
        },
        {
          "internalType": "uint256",
          "name": "_numberOfRulingOptions",
          "type": "uint256"
        }
      ],
      "name": "createDispute",
      "outputs": [
        {
          "internalType": "uint256",
          "name": "disputeID",
          "type": "uint256"
        }
      ],
      "stateMutability": "payable",
      "type": "function"
    },
    {
      "inputs": [
        {
          "internalType": "uint256",
          "name": "",
          "type": "uint256"
        }
      ],
      "name": "disputes",
      "outputs": [
        {
          "internalType": "bytes",
          "name": "arbitratorExtraData",
          "type": "bytes"
        },
        {
          "internalType": "bool",
          "name": "isRuled",
          "type": "bool"
        },
        {
          "internalType": "uint256",
          "name": "ruling",
          "type": "uint256"
        },
        {
          "internalType": "uint256",
          "name": "numberOfRulingOptions",
          "type": "uint256"
        }
      ],
      "stateMutability": "view",
      "type": "function"
    },
    {
      "inputs": [
        {
          "internalType": "uint256",
          "name": "",
          "type": "uint256"
        }
      ],
      "name": "externalIDtoLocalID",
      "outputs": [
        {
          "internalType": "uint256",
          "name": "",
          "type": "uint256"
        }
      ],
      "stateMutability": "view",
      "type": "function"
    },
    {
      "inputs": [
        {
          "internalType": "uint256",
          "name": "_externalDisputeID",
          "type": "uint256"
        },
        {
          "internalType": "uint256",
          "name": "_ruling",
          "type": "uint256"
        }
      ],
      "name": "rule",
      "outputs": [],
      "stateMutability": "nonpayable",
      "type": "function"
    }
  ],
  "transactionHash": "0x7a0824754f30ea18c2bee9228f33ba89f1c969c0bac0d8b64341d0c414fdee07",
  "args": [
    "0x720d566572aFA2D66abD2007e5aBa95a98E9f160"
  ],
  "numDeployments": 1,
  "solcInputHash": "e839c2860a2bc794c3b8ff7bcdbfe1cc",
  "bytecode": "0x60a060405234801561001057600080fd5b50604051610a5d380380610a5d83398101604081905261002f91610040565b6001600160a01b0316608052610070565b60006020828403121561005257600080fd5b81516001600160a01b038116811461006957600080fd5b9392505050565b6080516109be61009f6000396000818160bc0152818161017c0152818161044c01526105df01526109be6000f3fe60806040526004361061004a5760003560e01c8063311a6c561461004f578063564a565d146100715780636cc6cde1146100aa578063c21ae061146100f6578063e2c7981b14610131575b600080fd5b34801561005b57600080fd5b5061006f61006a366004610635565b610144565b005b34801561007d57600080fd5b5061009161008c366004610657565b610309565b6040516100a19493929190610670565b60405180910390f35b3480156100b657600080fd5b506100de7f000000000000000000000000000000000000000000000000000000000000000081565b6040516001600160a01b0390911681526020016100a1565b34801561010257600080fd5b50610123610111366004610657565b60016020526000908152604090205481565b6040519081526020016100a1565b61012361013f36600461071e565b6103d7565b600082815260016020526040812054815490919081908390811061016a5761016a610792565b906000526020600020906004020190507f00000000000000000000000000000000000000000000000000000000000000006001600160a01b0316336001600160a01b03161461020e5760405162461bcd60e51b815260206004820152602560248201527f4f6e6c79207468652061726269747261746f722063616e2065786563757465206044820152643a3434b99760d91b60648201526084015b60405180910390fd5b80600301548311156102545760405162461bcd60e51b815260206004820152600f60248201526e24b73b30b634b210393ab634b7339760891b6044820152606401610205565b600181015460ff16156102b55760405162461bcd60e51b8152602060048201526024808201527f54686973206469737075746520686173206265656e2072756c656420616c726560448201526330b23c9760e11b6064820152608401610205565b6001818101805460ff1916909117905560028101839055604051838152849033907f394027a5fa6e098a1191094d1719d6929b9abc535fcc0c8f448d6a4e756222769060200160405180910390a350505050565b6000818154811061031957600080fd5b906000526020600020906004020160009150905080600001805461033c906107a8565b80601f0160208091040260200160405190810160405280929190818152602001828054610368906107a8565b80156103b55780601f1061038a576101008083540402835291602001916103b5565b820191906000526020600020905b81548152906001019060200180831161039857829003601f168201915b5050505060018301546002840154600390940154929360ff9091169290915084565b6000600182116104355760405162461bcd60e51b8152602060048201526024808201527f53686f756c64206265206174206c6561737420322072756c696e67206f70746960448201526337b7399760e11b6064820152608401610205565b60405163c13517e160e01b81526001600160a01b037f0000000000000000000000000000000000000000000000000000000000000000169063c13517e19034906104879086908b908b9060040161080b565b60206040518083038185885af11580156104a5573d6000803e3d6000fd5b50505050506040513d601f19601f820116820180604052508101906104ca919061082e565b600080546040805160a06020601f8c018190040282018101909252608081018a8152949550919382918b908b908190850183828082843760009201829052509385525050506020808301829052604083018290526060909201879052835460018101855593815220815191926004020190819061054790826108ac565b506020828101516001838101805460ff191692151592909217909155604080850151600285015560609094015160039093019290925560008581529190528190208290555181907f61606860eb6c87306811e2695215385101daab53bd6ab4e9f9049aead9363c7d906105bd908890889061096c565b60405180910390a2604080518281526020810183905283916001600160a01b037f000000000000000000000000000000000000000000000000000000000000000016917f74baab670a4015ab2f1b467c5252a96141a2573f2908e58a92081e80d3cfde3d910160405180910390a35095945050505050565b6000806040838503121561064857600080fd5b50508035926020909101359150565b60006020828403121561066957600080fd5b5035919050565b608081526000855180608084015260005b8181101561069e57602081890181015160a0868401015201610681565b50600060a0828501015260a0601f19601f830116840101915050841515602083015283604083015282606083015295945050505050565b60008083601f8401126106e757600080fd5b50813567ffffffffffffffff8111156106ff57600080fd5b60208301915083602082850101111561071757600080fd5b9250929050565b60008060008060006060868803121561073657600080fd5b853567ffffffffffffffff8082111561074e57600080fd5b61075a89838a016106d5565b9097509550602088013591508082111561077357600080fd5b50610780888289016106d5565b96999598509660400135949350505050565b634e487b7160e01b600052603260045260246000fd5b600181811c908216806107bc57607f821691505b6020821081036107dc57634e487b7160e01b600052602260045260246000fd5b50919050565b81835281816020850137506000828201602090810191909152601f909101601f19169091010190565b8381526040602082015260006108256040830184866107e2565b95945050505050565b60006020828403121561084057600080fd5b5051919050565b634e487b7160e01b600052604160045260246000fd5b601f8211156108a757600081815260208120601f850160051c810160208610156108845750805b601f850160051c820191505b818110156108a357828155600101610890565b5050505b505050565b815167ffffffffffffffff8111156108c6576108c6610847565b6108da816108d484546107a8565b8461085d565b602080601f83116001811461090f57600084156108f75750858301515b600019600386901b1c1916600185901b1785556108a3565b600085815260208120601f198616915b8281101561093e5788860151825594840194600190910190840161091f565b508582101561095c5787850151600019600388901b60f8161c191681555b5050505050600190811b01905550565b6020815260006109806020830184866107e2565b94935050505056fea26469706673582212208e7d47ef8d6b22a035f41afcc5f56e22a79524eb3c710b3d6299740721da8b3d64736f6c63430008120033",
  "devdoc": {
    "events": {
      "Dispute(address,uint256,uint256,uint256)": {
        "details": "To be emitted when a dispute is created to link the correct meta-evidence to the disputeID.",
        "params": {
          "_arbitrator": "The arbitrator of the contract.",
          "_disputeID": "ID of the dispute in the Arbitrator contract.",
          "_evidenceGroupID": "Unique identifier of the evidence group that is linked to this dispute.",
          "_metaEvidenceID": "Unique identifier of meta-evidence."
        }
      },
      "MetaEvidence(uint256,string)": {
        "details": "To be emitted when meta-evidence is submitted.",
        "params": {
          "_evidence": "IPFS path to metaevidence, example: '/ipfs/Qmarwkf7C9RuzDEJNnarT3WZ7kem5bk8DZAzx78acJjMFH/metaevidence.json'",
          "_metaEvidenceID": "Unique identifier of meta-evidence."
        }
      },
      "Ruling(address,uint256,uint256)": {
        "details": "To be raised when a ruling is given.",
        "params": {
          "_arbitrator": "The arbitrator giving the ruling.",
          "_disputeID": "ID of the dispute in the Arbitrator contract.",
          "_ruling": "The ruling which was given."
        }
      }
    },
    "kind": "dev",
    "methods": {
      "constructor": {
        "details": "Constructor",
        "params": {
          "_arbitrator": "Target global arbitrator for any disputes."
        }
      },
      "createDispute(bytes,string,uint256)": {
        "details": "TRUSTED. Calls createDispute function of the specified arbitrator to create a dispute. Note that we don’t need to check that msg.value is enough to pay arbitration fees as it’s the responsibility of the arbitrator contract.",
        "params": {
          "_arbitratorExtraData": "Extra data for the arbitrator of the dispute.",
          "_metaevidenceURI": "Link to metaevidence of the dispute.",
          "_numberOfRulingOptions": "Number of ruling options."
        },
        "returns": {
          "disputeID": "Dispute id (on arbitrator side) of the created dispute."
        }
      },
      "rule(uint256,uint256)": {
        "details": "To be called by the arbitrator of the dispute, to declare the winning ruling.",
        "params": {
          "_externalDisputeID": "ID of the dispute in arbitrator contract.",
          "_ruling": "The ruling choice of the arbitration."
        }
      }
    },
    "title": "DisputeResolver DisputeResolver contract adapted for V2 https://github.com/kleros/arbitrable-proxy-contracts/blob/master/contracts/ArbitrableProxy.sol.",
    "version": 1
  },
  "userdoc": {
    "kind": "user",
    "methods": {},
    "version": 1
  },
  "storageLayout": {
    "storage": [
      {
        "astId": 9696,
        "contract": "src/arbitration/arbitrables/DisputeResolver.sol:DisputeResolver",
        "label": "disputes",
        "offset": 0,
        "slot": "0",
        "type": "t_array(t_struct(DisputeStruct)9689_storage)dyn_storage"
      },
      {
        "astId": 9700,
        "contract": "src/arbitration/arbitrables/DisputeResolver.sol:DisputeResolver",
        "label": "externalIDtoLocalID",
        "offset": 0,
        "slot": "1",
        "type": "t_mapping(t_uint256,t_uint256)"
      }
    ],
    "types": {
      "t_array(t_struct(DisputeStruct)9689_storage)dyn_storage": {
        "base": "t_struct(DisputeStruct)9689_storage",
        "encoding": "dynamic_array",
        "label": "struct DisputeResolver.DisputeStruct[]",
        "numberOfBytes": "32"
      },
      "t_bool": {
        "encoding": "inplace",
        "label": "bool",
        "numberOfBytes": "1"
      },
      "t_bytes_storage": {
        "encoding": "bytes",
        "label": "bytes",
        "numberOfBytes": "32"
      },
      "t_mapping(t_uint256,t_uint256)": {
        "encoding": "mapping",
        "key": "t_uint256",
        "label": "mapping(uint256 => uint256)",
        "numberOfBytes": "32",
        "value": "t_uint256"
      },
      "t_struct(DisputeStruct)9689_storage": {
        "encoding": "inplace",
        "label": "struct DisputeResolver.DisputeStruct",
        "members": [
          {
            "astId": 9682,
            "contract": "src/arbitration/arbitrables/DisputeResolver.sol:DisputeResolver",
            "label": "arbitratorExtraData",
            "offset": 0,
            "slot": "0",
            "type": "t_bytes_storage"
          },
          {
            "astId": 9684,
            "contract": "src/arbitration/arbitrables/DisputeResolver.sol:DisputeResolver",
            "label": "isRuled",
            "offset": 0,
            "slot": "1",
            "type": "t_bool"
          },
          {
            "astId": 9686,
            "contract": "src/arbitration/arbitrables/DisputeResolver.sol:DisputeResolver",
            "label": "ruling",
            "offset": 0,
            "slot": "2",
            "type": "t_uint256"
          },
          {
            "astId": 9688,
            "contract": "src/arbitration/arbitrables/DisputeResolver.sol:DisputeResolver",
            "label": "numberOfRulingOptions",
            "offset": 0,
            "slot": "3",
            "type": "t_uint256"
          }
        ],
        "numberOfBytes": "128"
      },
      "t_uint256": {
        "encoding": "inplace",
        "label": "uint256",
        "numberOfBytes": "32"
      }
    }
  }
}