{
  "address": "0xde31F2245d164620d08f5b0f8D43dCe8B9708373",
  "abi": [
    {
      "inputs": [
        {
          "internalType": "address",
          "name": "_governor",
          "type": "address"
        },
        {
          "internalType": "contract KlerosCore",
          "name": "_core",
          "type": "address"
        },
        {
          "internalType": "contract RNG",
          "name": "_rng",
          "type": "address"
        },
        {
          "internalType": "uint256",
          "name": "_rngLookahead",
          "type": "uint256"
        }
      ],
      "stateMutability": "nonpayable",
      "type": "constructor"
    },
    {
      "anonymous": false,
      "inputs": [
        {
          "indexed": true,
          "internalType": "uint256",
          "name": "_coreDisputeID",
          "type": "uint256"
        },
        {
          "indexed": true,
          "internalType": "uint256",
          "name": "_coreRoundID",
          "type": "uint256"
        },
        {
          "indexed": true,
          "internalType": "uint256",
          "name": "_choice",
          "type": "uint256"
        }
      ],
      "name": "ChoiceFunded",
      "type": "event"
    },
    {
      "anonymous": false,
      "inputs": [
        {
          "indexed": true,
          "internalType": "uint256",
          "name": "_coreDisputeID",
          "type": "uint256"
        },
        {
          "indexed": false,
          "internalType": "uint256[]",
          "name": "_voteIDs",
          "type": "uint256[]"
        },
        {
          "indexed": false,
          "internalType": "bytes32",
          "name": "_commit",
          "type": "bytes32"
        }
      ],
      "name": "CommitCast",
      "type": "event"
    },
    {
      "anonymous": false,
      "inputs": [
        {
          "indexed": true,
          "internalType": "uint256",
          "name": "_coreDisputeID",
          "type": "uint256"
        },
        {
          "indexed": true,
          "internalType": "uint256",
          "name": "_coreRoundID",
          "type": "uint256"
        },
        {
          "indexed": false,
          "internalType": "uint256",
          "name": "_choice",
          "type": "uint256"
        },
        {
          "indexed": true,
          "internalType": "address",
          "name": "_contributor",
          "type": "address"
        },
        {
          "indexed": false,
          "internalType": "uint256",
          "name": "_amount",
          "type": "uint256"
        }
      ],
      "name": "Contribution",
      "type": "event"
    },
    {
      "anonymous": false,
      "inputs": [
        {
          "indexed": true,
          "internalType": "uint256",
          "name": "_coreDisputeID",
          "type": "uint256"
        },
        {
          "indexed": false,
          "internalType": "uint256",
          "name": "_numberOfChoices",
          "type": "uint256"
        },
        {
          "indexed": false,
          "internalType": "bytes",
          "name": "_extraData",
          "type": "bytes"
        }
      ],
      "name": "DisputeCreation",
      "type": "event"
    },
    {
      "anonymous": false,
      "inputs": [
        {
          "indexed": true,
          "internalType": "contract IArbitrator",
          "name": "_arbitrator",
          "type": "address"
        },
        {
          "indexed": true,
          "internalType": "uint256",
          "name": "_evidenceGroupID",
          "type": "uint256"
        },
        {
          "indexed": true,
          "internalType": "address",
          "name": "_party",
          "type": "address"
        },
        {
          "indexed": false,
          "internalType": "string",
          "name": "_evidence",
          "type": "string"
        }
      ],
      "name": "Evidence",
      "type": "event"
    },
    {
      "anonymous": false,
      "inputs": [
        {
          "indexed": true,
          "internalType": "uint256",
          "name": "_coreDisputeID",
          "type": "uint256"
        },
        {
          "indexed": true,
          "internalType": "address",
          "name": "_juror",
          "type": "address"
        },
        {
          "indexed": true,
          "internalType": "uint256",
          "name": "_choice",
          "type": "uint256"
        },
        {
          "indexed": false,
          "internalType": "string",
          "name": "_justification",
          "type": "string"
        }
      ],
      "name": "Justification",
      "type": "event"
    },
    {
      "anonymous": false,
      "inputs": [
        {
          "indexed": false,
          "internalType": "enum DisputeKitClassic.Phase",
          "name": "_phase",
          "type": "uint8"
        }
      ],
      "name": "NewPhaseDisputeKit",
      "type": "event"
    },
    {
      "anonymous": false,
      "inputs": [
        {
          "indexed": true,
          "internalType": "uint256",
          "name": "_coreDisputeID",
          "type": "uint256"
        },
        {
          "indexed": true,
          "internalType": "uint256",
          "name": "_coreRoundID",
          "type": "uint256"
        },
        {
          "indexed": false,
          "internalType": "uint256",
          "name": "_choice",
          "type": "uint256"
        },
        {
          "indexed": true,
          "internalType": "address",
          "name": "_contributor",
          "type": "address"
        },
        {
          "indexed": false,
          "internalType": "uint256",
          "name": "_amount",
          "type": "uint256"
        }
      ],
      "name": "Withdrawal",
      "type": "event"
    },
    {
      "inputs": [],
      "name": "LOSER_APPEAL_PERIOD_MULTIPLIER",
      "outputs": [
        {
          "internalType": "uint256",
          "name": "",
          "type": "uint256"
        }
      ],
      "stateMutability": "view",
      "type": "function"
    },
    {
      "inputs": [],
      "name": "LOSER_STAKE_MULTIPLIER",
      "outputs": [
        {
          "internalType": "uint256",
          "name": "",
          "type": "uint256"
        }
      ],
      "stateMutability": "view",
      "type": "function"
    },
    {
      "inputs": [],
      "name": "ONE_BASIS_POINT",
      "outputs": [
        {
          "internalType": "uint256",
          "name": "",
          "type": "uint256"
        }
      ],
      "stateMutability": "view",
      "type": "function"
    },
    {
      "inputs": [],
      "name": "WINNER_STAKE_MULTIPLIER",
      "outputs": [
        {
          "internalType": "uint256",
          "name": "",
          "type": "uint256"
        }
      ],
      "stateMutability": "view",
      "type": "function"
    },
    {
      "inputs": [
        {
          "internalType": "uint256",
          "name": "_coreDisputeID",
          "type": "uint256"
        }
      ],
      "name": "areCommitsAllCast",
      "outputs": [
        {
          "internalType": "bool",
          "name": "",
          "type": "bool"
        }
      ],
      "stateMutability": "view",
      "type": "function"
    },
    {
      "inputs": [
        {
          "internalType": "uint256",
          "name": "_coreDisputeID",
          "type": "uint256"
        }
      ],
      "name": "areVotesAllCast",
      "outputs": [
        {
          "internalType": "bool",
          "name": "",
          "type": "bool"
        }
      ],
      "stateMutability": "view",
      "type": "function"
    },
    {
      "inputs": [
        {
          "internalType": "uint256",
          "name": "_coreDisputeID",
          "type": "uint256"
        },
        {
          "internalType": "uint256[]",
          "name": "_voteIDs",
          "type": "uint256[]"
        },
        {
          "internalType": "bytes32",
          "name": "_commit",
          "type": "bytes32"
        }
      ],
      "name": "castCommit",
      "outputs": [],
      "stateMutability": "nonpayable",
      "type": "function"
    },
    {
      "inputs": [
        {
          "internalType": "uint256",
          "name": "_coreDisputeID",
          "type": "uint256"
        },
        {
          "internalType": "uint256[]",
          "name": "_voteIDs",
          "type": "uint256[]"
        },
        {
          "internalType": "uint256",
          "name": "_choice",
          "type": "uint256"
        },
        {
          "internalType": "uint256",
          "name": "_salt",
          "type": "uint256"
        },
        {
          "internalType": "string",
          "name": "_justification",
          "type": "string"
        }
      ],
      "name": "castVote",
      "outputs": [],
      "stateMutability": "nonpayable",
      "type": "function"
    },
    {
      "inputs": [
        {
          "internalType": "address",
          "name": "_core",
          "type": "address"
        }
      ],
      "name": "changeCore",
      "outputs": [],
      "stateMutability": "nonpayable",
      "type": "function"
    },
    {
      "inputs": [
        {
          "internalType": "address payable",
          "name": "_governor",
          "type": "address"
        }
      ],
      "name": "changeGovernor",
      "outputs": [],
      "stateMutability": "nonpayable",
      "type": "function"
    },
    {
      "inputs": [
        {
          "internalType": "contract RNG",
          "name": "_rng",
          "type": "address"
        },
        {
          "internalType": "uint256",
          "name": "_rngLookahead",
          "type": "uint256"
        }
      ],
      "name": "changeRandomNumberGenerator",
      "outputs": [],
      "stateMutability": "nonpayable",
      "type": "function"
    },
    {
      "inputs": [],
      "name": "core",
      "outputs": [
        {
          "internalType": "contract KlerosCore",
          "name": "",
          "type": "address"
        }
      ],
      "stateMutability": "view",
      "type": "function"
    },
    {
      "inputs": [
        {
          "internalType": "uint256",
          "name": "",
          "type": "uint256"
        }
      ],
      "name": "coreDisputeIDToLocal",
      "outputs": [
        {
          "internalType": "uint256",
          "name": "",
          "type": "uint256"
        }
      ],
      "stateMutability": "view",
      "type": "function"
    },
    {
      "inputs": [
        {
          "internalType": "uint256",
          "name": "_coreDisputeID",
          "type": "uint256"
        },
        {
          "internalType": "uint256",
          "name": "_numberOfChoices",
          "type": "uint256"
        },
        {
          "internalType": "bytes",
          "name": "_extraData",
          "type": "bytes"
        },
        {
          "internalType": "uint256",
          "name": "_nbVotes",
          "type": "uint256"
        }
      ],
      "name": "createDispute",
      "outputs": [],
      "stateMutability": "nonpayable",
      "type": "function"
    },
    {
      "inputs": [
        {
          "internalType": "uint256",
          "name": "_coreDisputeID",
          "type": "uint256"
        }
      ],
      "name": "currentRuling",
      "outputs": [
        {
          "internalType": "uint256",
          "name": "ruling",
          "type": "uint256"
        },
        {
          "internalType": "bool",
          "name": "tied",
          "type": "bool"
        },
        {
          "internalType": "bool",
          "name": "overridden",
          "type": "bool"
        }
      ],
      "stateMutability": "view",
      "type": "function"
    },
    {
      "inputs": [
        {
          "internalType": "uint256",
          "name": "",
          "type": "uint256"
        }
      ],
      "name": "disputes",
      "outputs": [
        {
          "internalType": "uint256",
          "name": "numberOfChoices",
          "type": "uint256"
        },
        {
          "internalType": "bool",
          "name": "jumped",
          "type": "bool"
        },
        {
          "internalType": "bytes",
          "name": "extraData",
          "type": "bytes"
        }
      ],
      "stateMutability": "view",
      "type": "function"
    },
    {
      "inputs": [],
      "name": "disputesWithoutJurors",
      "outputs": [
        {
          "internalType": "uint256",
          "name": "",
          "type": "uint256"
        }
      ],
      "stateMutability": "view",
      "type": "function"
    },
    {
      "inputs": [
        {
          "internalType": "uint256",
          "name": "_coreDisputeID",
          "type": "uint256"
        }
      ],
      "name": "draw",
      "outputs": [
        {
          "internalType": "address",
          "name": "drawnAddress",
          "type": "address"
        }
      ],
      "stateMutability": "nonpayable",
      "type": "function"
    },
    {
      "inputs": [
        {
          "internalType": "address",
          "name": "_destination",
          "type": "address"
        },
        {
          "internalType": "uint256",
          "name": "_amount",
          "type": "uint256"
        },
        {
          "internalType": "bytes",
          "name": "_data",
          "type": "bytes"
        }
      ],
      "name": "executeGovernorProposal",
      "outputs": [],
      "stateMutability": "nonpayable",
      "type": "function"
    },
    {
      "inputs": [
        {
          "internalType": "uint256",
          "name": "_coreDisputeID",
          "type": "uint256"
        },
        {
          "internalType": "uint256",
          "name": "_choice",
          "type": "uint256"
        }
      ],
      "name": "fundAppeal",
      "outputs": [],
      "stateMutability": "payable",
      "type": "function"
    },
    {
      "inputs": [
        {
          "internalType": "uint256",
          "name": "_coreDisputeID",
          "type": "uint256"
        },
        {
          "internalType": "uint256",
          "name": "_coreRoundID",
          "type": "uint256"
        }
      ],
      "name": "getCoherentCount",
      "outputs": [
        {
          "internalType": "uint256",
          "name": "",
          "type": "uint256"
        }
      ],
      "stateMutability": "view",
      "type": "function"
    },
    {
      "inputs": [
        {
          "internalType": "uint256",
          "name": "_coreDisputeID",
          "type": "uint256"
        },
        {
          "internalType": "uint256",
          "name": "_coreRoundID",
          "type": "uint256"
        },
        {
          "internalType": "uint256",
          "name": "_voteID",
          "type": "uint256"
        }
      ],
      "name": "getDegreeOfCoherence",
      "outputs": [
        {
          "internalType": "uint256",
          "name": "",
          "type": "uint256"
        }
      ],
      "stateMutability": "view",
      "type": "function"
    },
    {
      "inputs": [
        {
          "internalType": "uint256",
          "name": "_coreDisputeID",
          "type": "uint256"
        }
      ],
      "name": "getFundedChoices",
      "outputs": [
        {
          "internalType": "uint256[]",
          "name": "fundedChoices",
          "type": "uint256[]"
        }
      ],
      "stateMutability": "view",
      "type": "function"
    },
    {
      "inputs": [
        {
          "internalType": "uint256",
          "name": "_coreDisputeID",
          "type": "uint256"
        },
        {
          "internalType": "uint256",
          "name": "_coreRoundID",
          "type": "uint256"
        },
        {
          "internalType": "uint256",
          "name": "_choice",
          "type": "uint256"
        }
      ],
      "name": "getRoundInfo",
      "outputs": [
        {
          "internalType": "uint256",
          "name": "winningChoice",
          "type": "uint256"
        },
        {
          "internalType": "bool",
          "name": "tied",
          "type": "bool"
        },
        {
          "internalType": "uint256",
          "name": "totalVoted",
          "type": "uint256"
        },
        {
          "internalType": "uint256",
          "name": "totalCommited",
          "type": "uint256"
        },
        {
          "internalType": "uint256",
          "name": "nbVoters",
          "type": "uint256"
        },
        {
          "internalType": "uint256",
          "name": "choiceCount",
          "type": "uint256"
        }
      ],
      "stateMutability": "view",
      "type": "function"
    },
    {
      "inputs": [
        {
          "internalType": "uint256",
          "name": "_coreDisputeID",
          "type": "uint256"
        },
        {
          "internalType": "uint256",
          "name": "_coreRoundID",
          "type": "uint256"
        },
        {
          "internalType": "uint256",
          "name": "_voteID",
          "type": "uint256"
        }
      ],
      "name": "getVoteInfo",
      "outputs": [
        {
          "internalType": "address",
          "name": "account",
          "type": "address"
        },
        {
          "internalType": "bytes32",
          "name": "commit",
          "type": "bytes32"
        },
        {
          "internalType": "uint256",
          "name": "choice",
          "type": "uint256"
        },
        {
          "internalType": "bool",
          "name": "voted",
          "type": "bool"
        }
      ],
      "stateMutability": "view",
      "type": "function"
    },
    {
      "inputs": [],
      "name": "governor",
      "outputs": [
        {
          "internalType": "address",
          "name": "",
          "type": "address"
        }
      ],
      "stateMutability": "view",
      "type": "function"
    },
    {
      "inputs": [],
      "name": "isResolving",
      "outputs": [
        {
          "internalType": "bool",
          "name": "",
          "type": "bool"
        }
      ],
      "stateMutability": "view",
      "type": "function"
    },
    {
      "inputs": [
        {
          "internalType": "uint256",
          "name": "_coreDisputeID",
          "type": "uint256"
        },
        {
          "internalType": "uint256",
          "name": "_coreRoundID",
          "type": "uint256"
        },
        {
          "internalType": "uint256",
          "name": "_voteID",
          "type": "uint256"
        }
      ],
      "name": "isVoteActive",
      "outputs": [
        {
          "internalType": "bool",
          "name": "",
          "type": "bool"
        }
      ],
      "stateMutability": "view",
      "type": "function"
    },
    {
      "inputs": [],
      "name": "passPhase",
      "outputs": [],
      "stateMutability": "nonpayable",
      "type": "function"
    },
    {
      "inputs": [],
      "name": "phase",
      "outputs": [
        {
          "internalType": "enum DisputeKitClassic.Phase",
          "name": "",
          "type": "uint8"
        }
      ],
      "stateMutability": "view",
      "type": "function"
    },
    {
      "inputs": [],
      "name": "randomNumber",
      "outputs": [
        {
          "internalType": "uint256",
          "name": "",
          "type": "uint256"
        }
      ],
      "stateMutability": "view",
      "type": "function"
    },
    {
      "inputs": [],
      "name": "rng",
      "outputs": [
        {
          "internalType": "contract RNG",
          "name": "",
          "type": "address"
        }
      ],
      "stateMutability": "view",
      "type": "function"
    },
    {
      "inputs": [],
      "name": "rngLookahead",
      "outputs": [
        {
          "internalType": "uint256",
          "name": "",
          "type": "uint256"
        }
      ],
      "stateMutability": "view",
      "type": "function"
    },
    {
      "inputs": [],
      "name": "rngRequestedBlock",
      "outputs": [
        {
          "internalType": "uint256",
          "name": "",
          "type": "uint256"
        }
      ],
      "stateMutability": "view",
      "type": "function"
    },
    {
      "inputs": [
        {
          "internalType": "uint256",
          "name": "_evidenceGroupID",
          "type": "uint256"
        },
        {
          "internalType": "string",
          "name": "_evidence",
          "type": "string"
        }
      ],
      "name": "submitEvidence",
      "outputs": [],
      "stateMutability": "nonpayable",
      "type": "function"
    },
    {
      "inputs": [
        {
          "internalType": "uint256",
          "name": "_coreDisputeID",
          "type": "uint256"
        },
        {
          "internalType": "address payable",
          "name": "_beneficiary",
          "type": "address"
        },
        {
          "internalType": "uint256",
          "name": "_coreRoundID",
          "type": "uint256"
        },
        {
          "internalType": "uint256",
          "name": "_choice",
          "type": "uint256"
        }
      ],
      "name": "withdrawFeesAndRewards",
      "outputs": [
        {
          "internalType": "uint256",
          "name": "amount",
          "type": "uint256"
        }
      ],
      "stateMutability": "nonpayable",
      "type": "function"
    }
  ],
  "transactionHash": "0xe47fe5fee608a62d2931193a80dde4634724f82ac2da34af1ff46e45c46da3dc",
  "args": [
    "0xF50E77f2A2B6138D16c6c7511562E5C33c4B15A3",
    "0x0000000000000000000000000000000000000000",
    "0xb82D1eAD813C3a2E729F288276cc402343423Bad",
    20
  ],
  "numDeployments": 4,
  "solcInputHash": "8e4e08d76a7f02df476a9f91ae4ef934",
  "bytecode": "0x60806040523480156200001157600080fd5b50604051620046ea380380620046ea833981016040819052620000349162000093565b600080546001600160a01b03199081166001600160a01b0396871617909155600180548216948616949094179093556002805490931691909316179055600455620000ed565b6001600160a01b03811681146200009057600080fd5b50565b60008060008060808587031215620000aa57600080fd5b8451620000b7816200007a565b6020860151909450620000ca816200007a565b6040860151909350620000dd816200007a565b6060959095015193969295505050565b6145ed80620000fd6000396000f3fe6080604052600436106101cf5760003560e01c8063796490f9116100f8578063ba66fde711610090578063ba66fde7146105cd578063be467604146105ed578063c86ed89214610603578063ccbac9f514610618578063d605787b1461062e578063da3beb8c1461064e578063e349ad3014610498578063e4c0aaf41461066e578063f2f4eb261461068e57600080fd5b8063796490f9146104985780637c04034e146104ae5780637dc38f14146104ce5780638e426460146104e4578063a6a7f0eb14610504578063a7cc08fe14610524578063b1c9fe6e14610570578063b34bfaa814610597578063b6ede540146105ad57600080fd5b80634b2f0ea01161016b5780634b2f0ea01461033c5780634dbbebbc1461034f5780634fe264fb1461036f578063564a565d1461038f5780635c92e2f6146103be57806365540b96146103de57806369f3f0411461040b5780636d4cd8ea14610458578063751accd01461047857600080fd5b806303432744146101d45780630b274f2e146101fd5780630baa64d1146102145780630c340a24146102445780631200aabc1461027c5780631c3db16d146102a95780632cad95c0146102e6578063362c3479146102fc5780633b3041471461031c575b600080fd5b3480156101e057600080fd5b506101ea60075481565b6040519081526020015b60405180910390f35b34801561020957600080fd5b506102126106ae565b005b34801561022057600080fd5b5061023461022f366004613a08565b610c32565b60405190151581526020016101f4565b34801561025057600080fd5b50600054610264906001600160a01b031681565b6040516001600160a01b0390911681526020016101f4565b34801561028857600080fd5b506101ea610297366004613a08565b60096020526000908152604090205481565b3480156102b557600080fd5b506102c96102c4366004613a08565b610ca9565b6040805193845291151560208401521515908201526060016101f4565b3480156102f257600080fd5b506101ea60035481565b34801561030857600080fd5b506101ea610317366004613a39565b610e28565b34801561032857600080fd5b50610264610337366004613a08565b611218565b61021261034a366004613a76565b6117f9565b34801561035b57600080fd5b5061021261036a366004613a98565b6120d2565b34801561037b57600080fd5b506101ea61038a366004613ac4565b6121af565b34801561039b57600080fd5b506103af6103aa366004613a08565b612301565b6040516101f493929190613b48565b3480156103ca57600080fd5b506102126103d9366004613bbd565b6123c7565b3480156103ea57600080fd5b506103fe6103f9366004613a08565b6126e1565b6040516101f49190613c0f565b34801561041757600080fd5b5061042b610426366004613ac4565b6127a5565b604080519687529415156020870152938501929092526060840152608083015260a082015260c0016101f4565b34801561046457600080fd5b50610234610473366004613a08565b61285d565b34801561048457600080fd5b50610212610493366004613cf0565b6128d4565b3480156104a457600080fd5b506101ea61271081565b3480156104ba57600080fd5b506102126104c9366004613d5c565b6129a6565b3480156104da57600080fd5b506101ea60045481565b3480156104f057600080fd5b506102126104ff366004613df4565b6130ac565b34801561051057600080fd5b5061021261051f366004613e52565b6130f8565b34801561053057600080fd5b5061054461053f366004613ac4565b61314a565b604080516001600160a01b039095168552602085019390935291830152151560608201526080016101f4565b34801561057c57600080fd5b5060065461058a9060ff1681565b6040516101f49190613eb3565b3480156105a357600080fd5b506101ea614e2081565b3480156105b957600080fd5b506102126105c8366004613edb565b613210565b3480156105d957600080fd5b506102346105e8366004613ac4565b6133f3565b3480156105f957600080fd5b506101ea61138881565b34801561060f57600080fd5b5061023461348e565b34801561062457600080fd5b506101ea60055481565b34801561063a57600080fd5b50600254610264906001600160a01b031681565b34801561065a57600080fd5b506101ea610669366004613a76565b6134ae565b34801561067a57600080fd5b50610212610689366004613df4565b613610565b34801561069a57600080fd5b50600154610264906001600160a01b031681565b600154604080516358e4ff3760e11b815290516000926001600160a01b03169163b1c9fe6e916004808301926020929190829003018186803b1580156106f357600080fd5b505afa158015610707573d6000803e3d6000fd5b505050506040513d601f19601f8201168201806040525081019061072b9190613f35565b600181111561073c5761073c613e9d565b14806107c95750600160009054906101000a90046001600160a01b03166001600160a01b031663b70c4e946040518163ffffffff1660e01b815260040160206040518083038186803b15801561079157600080fd5b505afa1580156107a5573d6000803e3d6000fd5b505050506040513d601f19601f820116820180604052508101906107c99190613f6b565b1561085457600060065460ff1660028111156107e7576107e7613e9d565b141561083a5760405162461bcd60e51b815260206004820152601a60248201527f416c726561647920696e205265736f6c76696e6720706861736500000000000060448201526064015b60405180910390fd5b600680546000919060ff19166001835b0217905550610bf1565b60018060009054906101000a90046001600160a01b03166001600160a01b031663b1c9fe6e6040518163ffffffff1660e01b815260040160206040518083038186803b1580156108a357600080fd5b505afa1580156108b7573d6000803e3d6000fd5b505050506040513d601f19601f820116820180604052508101906108db9190613f35565b60018111156108ec576108ec613e9d565b1415610bf157600060065460ff16600281111561090b5761090b613e9d565b1415610a6c576000600754116109635760405162461bcd60e51b815260206004820152601c60248201527f416c6c207468652064697370757465732068617665206a75726f7273000000006044820152606401610831565b600454600160009054906101000a90046001600160a01b03166001600160a01b0316633a1578606040518163ffffffff1660e01b815260040160206040518083038186803b1580156109b457600080fd5b505afa1580156109c8573d6000803e3d6000fd5b505050506040513d601f19601f820116820180604052508101906109ec9190613f86565b6109f69190613fb5565b6003819055600254604051637363ae1f60e01b815260048101929092526001600160a01b031690637363ae1f90602401600060405180830381600087803b158015610a4057600080fd5b505af1158015610a54573d6000803e3d6000fd5b5050600680546001935090915060ff1916828061084a565b600160065460ff166002811115610a8557610a85613e9d565b1415610b77576002546003546040516304f3e41560e21b81526001600160a01b03909216916313cf905491610ac09160040190815260200190565b602060405180830381600087803b158015610ada57600080fd5b505af1158015610aee573d6000803e3d6000fd5b505050506040513d601f19601f82011682018060405250810190610b129190613f86565b6005819055610b635760405162461bcd60e51b815260206004820152601e60248201527f52616e646f6d206e756d626572206973206e6f742072656164792079657400006044820152606401610831565b600680546002919060ff191660018361084a565b600260065460ff166002811115610b9057610b90613e9d565b1415610bf15760075415610be65760405162461bcd60e51b815260206004820152601d60248201527f4e6f7420726561647920666f72205265736f6c76696e672070686173650000006044820152606401610831565b6006805460ff191690555b6006546040517fdeeacb313775e12b099f27fe481aa82204a1806233e7125cc8a9f719e5ddfdc591610c289160ff90911690613eb3565b60405180910390a1565b600081815260096020526040812054600880548392908110610c5657610c56613fcd565b60009182526020822060059091020180549092508290610c7890600190613fe3565b81548110610c8857610c88613fcd565b60009182526020909120600c90910201805460059091015414949350505050565b6000806000806008600960008781526020019081526020016000205481548110610cd557610cd5613fcd565b60009182526020822060059091020180549092508290610cf790600190613fe3565b81548110610d0757610d07613fcd565b60009182526020909120600c90910201600381015460ff169450905083610d32578060010154610d35565b60005b60015460405163564a565d60e01b8152600481018990529196506000916001600160a01b039091169063564a565d9060240160a06040518083038186803b158015610d7f57600080fd5b505afa158015610d93573d6000803e3d6000fd5b505050506040513d601f19601f82011682018060405250810190610db79190614011565b5090935060049250610dc7915050565b816004811115610dd957610dd9613e9d565b1415610e1e576000610dea886126e1565b9050805160011415610e1c5780600081518110610e0957610e09613fcd565b6020026020010151965060009550600194505b505b5050509193909250565b60015460405163564a565d60e01b81526004810186905260009182916001600160a01b039091169063564a565d9060240160a06040518083038186803b158015610e7157600080fd5b505afa158015610e85573d6000803e3d6000fd5b505050506040513d601f19601f82011682018060405250810190610ea99190614011565b50935050505080610efc5760405162461bcd60e51b815260206004820152601b60248201527f446973707574652073686f756c64206265207265736f6c7665642e00000000006044820152606401610831565b600086815260096020526040812054600880549091908110610f2057610f20613fcd565b60009182526020808320888452600360059093020191820190526040822054815491935083918110610f5457610f54613fcd565b600091825260208220600154604051631c3db16d60e01b8152600481018d9052600c9390930290910193506001600160a01b031690631c3db16d9060240160606040518083038186803b158015610faa57600080fd5b505afa158015610fbe573d6000803e3d6000fd5b505050506040513d601f19601f82011682018060405250810190610fe29190614078565b5050600087815260078401602052604090205490915060ff1661102c576001600160a01b038816600090815260088301602090815260408083208984529091529020549450611172565b808614156110a257600086815260068301602052604090205461105057600061109b565b600086815260068301602090815260408083205460098601546001600160a01b038d1685526008870184528285208b865290935292205461109191906140b4565b61109b91906140e9565b9450611172565b600081815260078301602052604090205460ff166111725781600601600083600a016001815481106110d6576110d6613fcd565b906000526020600020015481526020019081526020016000205482600601600084600a0160008154811061110c5761110c613fcd565b90600052602060002001548152602001908152602001600020546111309190613fb5565b60098301546001600160a01b038a16600090815260088501602090815260408083208b845290915290205461116591906140b4565b61116f91906140e9565b94505b6001600160a01b03881660009081526008830160209081526040808320898452909152812055841561120c576040516001600160a01b0389169086156108fc029087906000818181858888f15050604080518a8152602081018a90526001600160a01b038d1694508b93508d92507f54b3cab3cb5c4aca3209db1151caff092e878011202e43a36782d4ebe0b963ae910160405180910390a45b50505050949350505050565b6001546000906001600160a01b031633146112455760405162461bcd60e51b8152600401610831906140fd565b60008281526009602052604090205460088054849290811061126957611269613fcd565b600091825260209091206002600590920201015460ff161561129d5760405162461bcd60e51b815260040161083190614141565b600260065460ff1660028111156112b6576112b6613e9d565b146113035760405162461bcd60e51b815260206004820152601a60248201527f53686f756c6420626520696e2064726177696e672070686173650000000000006044820152606401610831565b60008381526009602052604081205460088054909190811061132757611327613fcd565b6000918252602082206005909102018054909250829061134990600190613fe3565b8154811061135957611359613fcd565b60009182526020822060015460405163564a565d60e01b8152600481018a9052600c9390930290910193506001600160a01b03169063564a565d9060240160a06040518083038186803b1580156113af57600080fd5b505afa1580156113c3573d6000803e3d6000fd5b505050506040513d601f19601f820116820180604052508101906113e79190614011565b505060015460405163bfabfe8f60e01b81526001600160601b038516600482018190526000602483018190529596509493508392506001600160a01b039091169063bfabfe8f9060440160606040518083038186803b15801561144957600080fd5b505afa15801561145d573d6000803e3d6000fd5b505050506040513d601f19601f820116820180604052508101906114819190614178565b50600554875460408051602081019390935282018d905260608201529193509150600090819060800160408051808303601f19018152908290528051602090910120600154630a48b58160e21b835260048301889052600060248401529092506001600160a01b031690632922d6049060440160206040518083038186803b15801561150c57600080fd5b505afa158015611520573d6000803e3d6000fd5b505050506040513d601f19601f820116820180604052508101906115449190613f86565b61154e90826141a6565b90505b8261155c83866140b4565b611567906001613fb5565b10156116545760015b84811161164e5760008161158485886140b4565b61158e9190613fb5565b600154604051630a48b58160e21b8152600481018a9052602481018390529192506000916001600160a01b0390911690632922d6049060440160206040518083038186803b1580156115df57600080fd5b505afa1580156115f3573d6000803e3d6000fd5b505050506040513d601f19601f820116820180604052508101906116179190613f86565b90508084106116315761162a8185613fe3565b9350611639565b50925061164e565b50508080611646906141ba565b915050611570565b50611551565b60015460405163bfabfe8f60e01b815260048101879052602481018490526000916001600160a01b03169063bfabfe8f9060440160606040518083038186803b1580156116a057600080fd5b505afa1580156116b4573d6000803e3d6000fd5b505050506040513d601f19601f820116820180604052508101906116d89190614178565b925050506116e58161365c565b9a506116f18c8c613687565b156117e5578760000160405180608001604052808d6001600160a01b031681526020016000801b81526020016000815260200160001515815250908060018154018082558091505060019003906000526020600020906004020160009091909190915060008201518160000160006101000a8154816001600160a01b0302191690836001600160a01b03160217905550602082015181600101556040820151816002015560608201518160030160006101000a81548160ff021916908315150217905550505087600b0154886000018054905014156117e057600780549060006117da836141d5565b91905055505b6117ea565b60009a505b50505050505050505050919050565b60008281526009602052604090205460088054849290811061181d5761181d613fcd565b600091825260209091206002600590920201015460ff16156118515760405162461bcd60e51b815260040161083190614141565b60008381526009602052604081205460088054909190811061187557611875613fcd565b9060005260206000209060050201905080600101548311156118d95760405162461bcd60e51b815260206004820181905260248201527f5468657265206973206e6f20737563682072756c696e6720746f2066756e642e6044820152606401610831565b60015460405163afe15cfb60e01b81526004810186905260009182916001600160a01b039091169063afe15cfb90602401604080518083038186803b15801561192157600080fd5b505afa158015611935573d6000803e3d6000fd5b505050506040513d601f19601f8201168201806040525081019061195991906141ec565b9150915081421015801561196c57508042105b6119b15760405162461bcd60e51b815260206004820152601660248201527520b83832b0b6103832b934b7b21034b99037bb32b91760511b6044820152606401610831565b604051631c3db16d60e01b81526004810187905260009081903090631c3db16d9060240160606040518083038186803b1580156119ed57600080fd5b505afa158015611a01573d6000803e3d6000fd5b505050506040513d601f19601f82011682018060405250810190611a259190614078565b5050905086811415611a3b576127109150611abc565b612710611388611a4b8686613fe3565b611a5591906140b4565b611a5f91906140e9565b611a698542613fe3565b10611ab65760405162461bcd60e51b815260206004820152601f60248201527f41707065616c20706572696f64206973206f76657220666f72206c6f736572006044820152606401610831565b614e2091505b84546000908690611acf90600190613fe3565b81548110611adf57611adf613fcd565b60009182526020822060018054604051637e37c78b60e11b8152600481018f9052600c949094029092019450916001600160a01b039091169063fc6f8f169060240160206040518083038186803b158015611b3957600080fd5b505afa158015611b4d573d6000803e3d6000fd5b505050506040513d601f19601f82011682018060405250810190611b719190613f86565b611b7b9190613fe3565b60008a815260078401602052604090205490915060ff1615611bdf5760405162461bcd60e51b815260206004820152601b60248201527f41707065616c2066656520697320616c726561647920706169642e00000000006044820152606401610831565b600154604051632cf6413f60e11b8152600481018c90526000916001600160a01b0316906359ec827e9060240160206040518083038186803b158015611c2457600080fd5b505afa158015611c38573d6000803e3d6000fd5b505050506040513d601f19601f82011682018060405250810190611c5c9190613f86565b90506000612710611c6d87846140b4565b611c7791906140e9565b611c819083613fb5565b60008c815260068601602052604081205491925090821115611d325760008c81526006860160205260409020543490611cba9084613fe3565b11611cdf5760008c8152600686016020526040902054611cda9083613fe3565b611ce1565b345b9050336001600160a01b0316848e7fcae597f39a3ad75c2e10d46b031f023c5c2babcd58ca0491b122acda3968d4c08f85604051611d29929190918252602082015260400190565b60405180910390a45b33600090815260088601602090815260408083208f845290915281208054839290611d5e908490613fb5565b909155505060008c815260068601602052604081208054839290611d83908490613fb5565b909155505060008c81526006860160205260409020548211611e555760008c815260068601602052604081205460098701805491929091611dc5908490613fb5565b9250508190555084600a018c908060018154018082558091505060019003906000526020600020016000909190919091505560018560070160008e815260200190815260200160002060006101000a81548160ff0219169083151502179055508b848e7fed764996238e4c1c873ae3af7ae2f00f1f6f4f10b9ac7d4bbea4a764c5dea00960405160405180910390a45b600a8501546001101561209557828560090154611e729190613fe3565b60098601556001546040516319b8152960e01b8152600481018f90526001600160a01b03909116906319b815299060240160206040518083038186803b158015611ebb57600080fd5b505afa158015611ecf573d6000803e3d6000fd5b505050506040513d601f19601f82011682018060405250810190611ef39190613f6b565b15611f0c5760028a01805460ff19166001179055612015565b895460038b016000611f1f876001613fb5565b81526020019081526020016000208190555060008a6000016001816001815401808255809150500390600052602060002090600c02019050600160009054906101000a90046001600160a01b03166001600160a01b031663c71f42538f6040518263ffffffff1660e01b8152600401611f9a91815260200190565b60206040518083038186803b158015611fb257600080fd5b505afa158015611fc6573d6000803e3d6000fd5b505050506040513d601f19601f82011682018060405250810190611fea9190613f86565b600b82015560038101805460ff191660011790556007805490600061200e836141ba565b9190505550505b600160009054906101000a90046001600160a01b03166001600160a01b031663c3569902848f8d600101548e6004016040518563ffffffff1660e01b81526004016120629392919061424b565b6000604051808303818588803b15801561207b57600080fd5b505af115801561208f573d6000803e3d6000fd5b50505050505b803411156120c357336108fc6120ab8334613fe3565b6040518115909202916000818181858888f150505050505b50505050505050505050505050565b6000546001600160a01b031633146120fc5760405162461bcd60e51b815260040161083190614303565b600280546001600160a01b0319166001600160a01b0384161790556004819055600160065460ff16600281111561213557612135613e9d565b14156121ab576004546121489043613fb5565b6003819055600254604051637363ae1f60e01b815260048101929092526001600160a01b031690637363ae1f90602401600060405180830381600087803b15801561219257600080fd5b505af11580156121a6573d6000803e3d6000fd5b505050505b5050565b6000838152600960205260408120546008805483929081106121d3576121d3613fcd565b6000918252602080832087845260036005909302019182019052604082205481549193508391811061220757612207613fcd565b90600052602060002090600c0201600001848154811061222957612229613fcd565b600091825260208220600154604051631c3db16d60e01b815260048082018c905293909302909101935082916001600160a01b0390911690631c3db16d9060240160606040518083038186803b15801561228257600080fd5b505afa158015612296573d6000803e3d6000fd5b505050506040513d601f19601f820116820180604052508101906122ba9190614078565b506003850154919350915060ff1680156122de575081836002015414806122de5750805b156122f1576127109450505050506122fa565b60009450505050505b9392505050565b6008818154811061231157600080fd5b600091825260209091206005909102016001810154600282015460048301805492945060ff909116929161234490614210565b80601f016020809104026020016040519081016040528092919081815260200182805461237090614210565b80156123bd5780601f10612392576101008083540402835291602001916123bd565b820191906000526020600020905b8154815290600101906020018083116123a057829003601f168201915b5050505050905083565b6000848152600960205260409020546008805486929081106123eb576123eb613fcd565b600091825260209091206002600590920201015460ff161561241f5760405162461bcd60e51b815260040161083190614141565b60015460405163564a565d60e01b8152600481018790526000916001600160a01b03169063564a565d9060240160a06040518083038186803b15801561246457600080fd5b505afa158015612478573d6000803e3d6000fd5b505050506040513d601f19601f8201168201806040525081019061249c9190614011565b50909350600192506124ac915050565b8160048111156124be576124be613e9d565b1461251b5760405162461bcd60e51b815260206004820152602760248201527f54686520646973707574652073686f756c6420626520696e20436f6d6d6974206044820152663832b934b7b21760c91b6064820152608401610831565b826125585760405162461bcd60e51b815260206004820152600d60248201526c22b6b83a3c9031b7b6b6b4ba1760991b6044820152606401610831565b60008681526009602052604081205460088054909190811061257c5761257c613fcd565b6000918252602082206005909102018054909250829061259e90600190613fe3565b815481106125ae576125ae613fcd565b90600052602060002090600c0201905060005b8681101561267c5733828989848181106125dd576125dd613fcd565b90506020020135815481106125f4576125f4613fcd565b60009182526020909120600490910201546001600160a01b03161461262b5760405162461bcd60e51b815260040161083190614345565b858289898481811061263f5761263f613fcd565b905060200201358154811061265657612656613fcd565b600091825260209091206001600490920201015580612674816141ba565b9150506125c1565b50868690508160050160008282546126949190613fb5565b92505081905550877f631164ab329e3544c9075658fc5cd19297e0b191060d307414cf10ebc99d4a658888886040516126cf9392919061437c565b60405180910390a25050505050505050565b600081815260096020526040812054600880546060939290811061270757612707613fcd565b6000918252602082206005909102018054909250829061272990600190613fe3565b8154811061273957612739613fcd565b90600052602060002090600c0201905080600a0180548060200260200160405190810160405280929190818152602001828054801561279757602002820191906000526020600020905b815481526020019060010190808311612783575b505050505092505050919050565b60008060008060008060006008600960008c815260200190815260200160002054815481106127d6576127d6613fcd565b600091825260208083208c845260036005909302019182019052604082205481549193508391811061280a5761280a613fcd565b600091825260208083206001600c909302019182015460038301546004840154600585015485549f87526002909501909352604090942054909f60ff9094169e50909c50909a9950975095505050505050565b60008181526009602052604081205460088054839290811061288157612881613fcd565b600091825260208220600590910201805490925082906128a390600190613fe3565b815481106128b3576128b3613fcd565b60009182526020909120600c90910201805460049091015414949350505050565b6000546001600160a01b031633146128fe5760405162461bcd60e51b815260040161083190614303565b6000836001600160a01b0316838360405161291991906143c2565b60006040518083038185875af1925050503d8060008114612956576040519150601f19603f3d011682016040523d82523d6000602084013e61295b565b606091505b50509050806129a05760405162461bcd60e51b8152602060048201526011602482015270155b9cdd58d8d95cdcd99d5b0818d85b1b607a1b6044820152606401610831565b50505050565b6000868152600960205260409020546008805488929081106129ca576129ca613fcd565b600091825260209091206002600590920201015460ff16156129fe5760405162461bcd60e51b815260040161083190614141565b60015460405163564a565d60e01b8152600481018990526000916001600160a01b03169063564a565d9060240160a06040518083038186803b158015612a4357600080fd5b505afa158015612a57573d6000803e3d6000fd5b505050506040513d601f19601f82011682018060405250810190612a7b9190614011565b5090935060029250612a8b915050565b816004811115612a9d57612a9d613e9d565b14612af85760405162461bcd60e51b815260206004820152602560248201527f54686520646973707574652073686f756c6420626520696e20566f74652070656044820152643934b7b21760d91b6064820152608401610831565b85612b3a5760405162461bcd60e51b8152602060048201526012602482015271139bc81d9bdd195251081c1c9bdd9a59195960721b6044820152606401610831565b600088815260096020526040812054600880549091908110612b5e57612b5e613fcd565b906000526020600020906005020190508060010154861115612bb95760405162461bcd60e51b815260206004820152601460248201527343686f696365206f7574206f6620626f756e647360601b6044820152606401610831565b80546000908290612bcc90600190613fe3565b81548110612bdc57612bdc613fcd565b60009182526020822060015460405163564a565d60e01b8152600481018f9052600c9390930290910193506001600160a01b03169063564a565d9060240160a06040518083038186803b158015612c3257600080fd5b505afa158015612c46573d6000803e3d6000fd5b505050506040513d601f19601f82011682018060405250810190612c6a9190614011565b5050600154604051630fad06e960e11b81526001600160601b03851660048201529394506000936001600160a01b039091169250631f5a0dd2915060240160c06040518083038186803b158015612cc057600080fd5b505afa158015612cd4573d6000803e3d6000fd5b505050506040513d601f19601f82011682018060405250810190612cf891906143de565b5050505091505060005b8a811015612f745733848d8d84818110612d1e57612d1e613fcd565b9050602002013581548110612d3557612d35613fcd565b60009182526020909120600490910201546001600160a01b031614612d6c5760405162461bcd60e51b815260040161083190614345565b811580612de0575089888a604051602001612d8993929190614436565b60405160208183030381529060405280519060200120846000018d8d84818110612db557612db5613fcd565b9050602002013581548110612dcc57612dcc613fcd565b906000526020600020906004020160010154145b612e525760405162461bcd60e51b815260206004820152603d60248201527f54686520636f6d6d6974206d757374206d61746368207468652063686f69636560448201527f20696e20636f7572747320776974682068696464656e20766f7465732e0000006064820152608401610831565b838c8c83818110612e6557612e65613fcd565b9050602002013581548110612e7c57612e7c613fcd565b600091825260209091206003600490920201015460ff1615612ed55760405162461bcd60e51b81526020600482015260126024820152712b37ba329030b63932b0b23c9031b0b9ba1760711b6044820152606401610831565b89848d8d84818110612ee957612ee9613fcd565b9050602002013581548110612f0057612f00613fcd565b60009182526020909120600260049092020101556001848d8d84818110612f2957612f29613fcd565b9050602002013581548110612f4057612f40613fcd565b60009182526020909120600490910201600301805460ff191691151591909117905580612f6c816141ba565b915050612d02565b508a8a9050836004016000828254612f8c9190613fb5565b90915550506000898152600284016020526040812080548c9290612fb1908490613fb5565b90915550506001830154891415612fe157600383015460ff1615612fdc5760038301805460ff191690555b61305b565b60018301546000908152600284016020526040808220548b8352912054141561302457600383015460ff16612fdc5760038301805460ff1916600117905561305b565b60018301546000908152600284016020526040808220548b8352912054111561305b576001830189905560038301805460ff191690555b88336001600160a01b03168d7fbf654140f91f2e524d875f097947702b44380492730dd1653f5482c0b33e49cd8a6040516130969190614463565b60405180910390a4505050505050505050505050565b6000546001600160a01b031633146130d65760405162461bcd60e51b815260040161083190614303565b600180546001600160a01b0319166001600160a01b0392909216919091179055565b600154604051339185916001600160a01b03909116907fdccf2f8b2cc26eafcd61905cba744cff4b81d14740725f6376390dc6298a6a3c9061313d908790879061449f565b60405180910390a4505050565b60008060008060006008600960008a8152602001908152602001600020548154811061317857613178613fcd565b600091825260208083208a84526003600590930201918201905260408220548154919350839181106131ac576131ac613fcd565b90600052602060002090600c020160000187815481106131ce576131ce613fcd565b600091825260209091206004909102018054600182015460028301546003909301546001600160a01b039092169c909b5091995060ff16975095505050505050565b6001546001600160a01b0316331461323a5760405162461bcd60e51b8152600401610831906140fd565b60088054600181018255600091909152600581027ff3f7a9fe364faab93b216da50a3214154f22a0a2b415b23a84c8169e8b636ee481018690557ff3f7a9fe364faab93b216da50a3214154f22a0a2b415b23a84c8169e8b636ee38101906132c5907ff3f7a9fe364faab93b216da50a3214154f22a0a2b415b23a84c8169e8b636ee701868661396f565b50805460018054604051637e37c78b60e11b8152600481018b9052600385019260009290916001600160a01b039091169063fc6f8f169060240160206040518083038186803b15801561331757600080fd5b505afa15801561332b573d6000803e3d6000fd5b505050506040513d601f19601f8201168201806040525081019061334f9190613f86565b6133599190613fe3565b81526020808201929092526040908101600090812093909355835460018181018655858552838520600b600c9093020191820188905560038201805460ff191690911790558a8452600990925282208490556007805491926133ba836141ba565b9190505550877fd3106f74c2d30a4b9230e756a3e78bde53865d40f6af4c479bb010ebaab581088888886040516126cf939291906144bb565b60008381526009602052604081205460088054839290811061341757613417613fcd565b6000918252602080832087845260036005909302019182019052604082205481549193508391811061344b5761344b613fcd565b90600052602060002090600c0201600001848154811061346d5761346d613fcd565b600091825260209091206004909102016003015460ff169695505050505050565b60008060065460ff1660028111156134a8576134a8613e9d565b14905090565b6000828152600960205260408120546008805483929081106134d2576134d2613fcd565b6000918252602080832086845260036005909302019182019052604082205481549193508391811061350657613506613fcd565b600091825260208220600154604051631c3db16d60e01b8152600481018a9052600c93909302909101935082916001600160a01b0390911690631c3db16d9060240160606040518083038186803b15801561356057600080fd5b505afa158015613574573d6000803e3d6000fd5b505050506040513d601f19601f820116820180604052508101906135989190614078565b50915091508260040154600014806135c75750801580156135c757506000828152600284016020526040902054155b156135d957600094505050505061360a565b80156135ee57505060040154915061360a9050565b50600090815260029091016020526040902054915061360a9050565b92915050565b6000546001600160a01b0316331461363a5760405162461bcd60e51b815260040161083190614303565b600080546001600160a01b0319166001600160a01b0392909216919091179055565b600060405160005b601481101561367f5783811a81600c84010153600101613664565b505192915050565b60015460405163564a565d60e01b81526004810184905260009182916001600160a01b039091169063564a565d9060240160a06040518083038186803b1580156136d057600080fd5b505afa1580156136e4573d6000803e3d6000fd5b505050506040513d601f19601f820116820180604052508101906137089190614011565b505060018054604051637e37c78b60e11b8152600481018a90529495506000946001600160a01b039091169350638a9bb02a9250889190849063fc6f8f169060240160206040518083038186803b15801561376257600080fd5b505afa158015613776573d6000803e3d6000fd5b505050506040513d601f19601f8201168201806040525081019061379a9190613f86565b6137a49190613fe3565b6040516001600160e01b031960e085901b1681526004810192909252602482015260440160006040518083038186803b1580156137e057600080fd5b505afa1580156137f4573d6000803e3d6000fd5b505050506040513d6000823e601f3d908101601f1916820160405261381c91908101906144d5565b5050600154604051631a383be960e31b81526001600160a01b038a811660048301526001600160601b0389166024830152959650600095869550909116925063d1c1df489150604401604080518083038186803b15801561387c57600080fd5b505afa158015613890573d6000803e3d6000fd5b505050506040513d601f19601f820116820180604052508101906138b491906141ec565b600154604051630fad06e960e11b81526001600160601b03881660048201529294509092506000916001600160a01b0390911690631f5a0dd29060240160c06040518083038186803b15801561390957600080fd5b505afa15801561391d573d6000803e3d6000fd5b505050506040513d601f19601f8201168201806040525081019061394191906143de565b5050509250505083826139549190613fb5565b83101580156139635750808310155b98975050505050505050565b82805461397b90614210565b90600052602060002090601f01602090048101928261399d57600085556139e3565b82601f106139b65782800160ff198235161785556139e3565b828001600101855582156139e3579182015b828111156139e35782358255916020019190600101906139c8565b506139ef9291506139f3565b5090565b5b808211156139ef57600081556001016139f4565b600060208284031215613a1a57600080fd5b5035919050565b6001600160a01b0381168114613a3657600080fd5b50565b60008060008060808587031215613a4f57600080fd5b843593506020850135613a6181613a21565b93969395505050506040820135916060013590565b60008060408385031215613a8957600080fd5b50508035926020909101359150565b60008060408385031215613aab57600080fd5b8235613ab681613a21565b946020939093013593505050565b600080600060608486031215613ad957600080fd5b505081359360208301359350604090920135919050565b60005b83811015613b0b578181015183820152602001613af3565b838111156129a05750506000910152565b60008151808452613b34816020860160208601613af0565b601f01601f19169290920160200192915050565b8381528215156020820152606060408201526000613b696060830184613b1c565b95945050505050565b60008083601f840112613b8457600080fd5b5081356001600160401b03811115613b9b57600080fd5b6020830191508360208260051b8501011115613bb657600080fd5b9250929050565b60008060008060608587031215613bd357600080fd5b8435935060208501356001600160401b03811115613bf057600080fd5b613bfc87828801613b72565b9598909750949560400135949350505050565b6020808252825182820181905260009190848201906040850190845b81811015613c4757835183529284019291840191600101613c2b565b50909695505050505050565b634e487b7160e01b600052604160045260246000fd5b604051601f8201601f191681016001600160401b0381118282101715613c9157613c91613c53565b604052919050565b60006001600160401b03831115613cb257613cb2613c53565b613cc5601f8401601f1916602001613c69565b9050828152838383011115613cd957600080fd5b828260208301376000602084830101529392505050565b600080600060608486031215613d0557600080fd5b8335613d1081613a21565b92506020840135915060408401356001600160401b03811115613d3257600080fd5b8401601f81018613613d4357600080fd5b613d5286823560208401613c99565b9150509250925092565b60008060008060008060a08789031215613d7557600080fd5b8635955060208701356001600160401b0380821115613d9357600080fd5b613d9f8a838b01613b72565b909750955060408901359450606089013593506080890135915080821115613dc657600080fd5b508701601f81018913613dd857600080fd5b613de789823560208401613c99565b9150509295509295509295565b600060208284031215613e0657600080fd5b81356122fa81613a21565b60008083601f840112613e2357600080fd5b5081356001600160401b03811115613e3a57600080fd5b602083019150836020828501011115613bb657600080fd5b600080600060408486031215613e6757600080fd5b8335925060208401356001600160401b03811115613e8457600080fd5b613e9086828701613e11565b9497909650939450505050565b634e487b7160e01b600052602160045260246000fd5b6020810160038310613ed557634e487b7160e01b600052602160045260246000fd5b91905290565b600080600080600060808688031215613ef357600080fd5b853594506020860135935060408601356001600160401b03811115613f1757600080fd5b613f2388828901613e11565b96999598509660600135949350505050565b600060208284031215613f4757600080fd5b8151600281106122fa57600080fd5b80518015158114613f6657600080fd5b919050565b600060208284031215613f7d57600080fd5b6122fa82613f56565b600060208284031215613f9857600080fd5b5051919050565b634e487b7160e01b600052601160045260246000fd5b60008219821115613fc857613fc8613f9f565b500190565b634e487b7160e01b600052603260045260246000fd5b600082821015613ff557613ff5613f9f565b500390565b80516001600160601b0381168114613f6657600080fd5b600080600080600060a0868803121561402957600080fd5b61403286613ffa565b9450602086015161404281613a21565b60408701519094506005811061405757600080fd5b925061406560608701613f56565b9150608086015190509295509295909350565b60008060006060848603121561408d57600080fd5b8351925061409d60208501613f56565b91506140ab60408501613f56565b90509250925092565b60008160001904831182151516156140ce576140ce613f9f565b500290565b634e487b7160e01b600052601260045260246000fd5b6000826140f8576140f86140d3565b500490565b60208082526024908201527f416363657373206e6f7420616c6c6f7765643a204b6c65726f73436f7265206f60408201526337363c9760e11b606082015260800190565b6020808252601e908201527f44697370757465206a756d70656420746f206120706172656e7420444b210000604082015260600190565b60008060006060848603121561418d57600080fd5b8351925060208401519150604084015190509250925092565b6000826141b5576141b56140d3565b500690565b60006000198214156141ce576141ce613f9f565b5060010190565b6000816141e4576141e4613f9f565b506000190190565b600080604083850312156141ff57600080fd5b505080516020909101519092909150565b600181811c9082168061422457607f821691505b6020821081141561424557634e487b7160e01b600052602260045260246000fd5b50919050565b838152600060208481840152606060408401526000845481600182811c91508083168061427957607f831692505b85831081141561429757634e487b7160e01b85526022600452602485fd5b60608801839052608088018180156142b657600181146142c7576142f2565b60ff198616825287820196506142f2565b60008b81526020902060005b868110156142ec578154848201529085019089016142d3565b83019750505b50949b9a5050505050505050505050565b60208082526022908201527f416363657373206e6f7420616c6c6f7765643a20476f7665726e6f72206f6e6c6040820152613c9760f11b606082015260800190565b6020808252601f908201527f5468652063616c6c65722068617320746f206f776e2074686520766f74652e00604082015260600190565b6040808252810183905260006001600160fb1b0384111561439c57600080fd5b8360051b8086606085013760009083016060019081526020909201929092529392505050565b600082516143d4818460208701613af0565b9190910192915050565b60008060008060008060c087890312156143f757600080fd5b61440087613ffa565b955061440e60208801613f56565b945060408701519350606087015192506080870151915060a087015190509295509295509295565b8381526000835161444e816020850160208801613af0565b60209201918201929092526040019392505050565b6020815260006122fa6020830184613b1c565b81835281816020850137506000828201602090810191909152601f909101601f19169091010190565b6020815260006144b3602083018486614476565b949350505050565b838152604060208201526000613b69604083018486614476565b60008060008060008060c087890312156144ee57600080fd5b865195506020808801519550604088015194506060880151935060808801516001600160401b038082111561452257600080fd5b818a0191508a601f83011261453657600080fd5b81518181111561454857614548613c53565b8060051b9150614559848301613c69565b818152918301840191848101908d84111561457357600080fd5b938501935b8385101561459d578451925061458d83613a21565b8282529385019390850190614578565b80975050505050505060a08701519050929550929550929556fea2646970667358221220319dcab6a4c63e88fca54f16d57a411a492292c8285b137b8ccdeed86acda42c64736f6c63430008090033",
  "devdoc": {
    "kind": "dev",
    "methods": {
      "areCommitsAllCast(uint256)": {
        "details": "Returns true if all of the jurors have cast their commits for the last round.",
        "params": {
          "_coreDisputeID": "The ID of the dispute in Kleros Core."
        },
        "returns": {
          "_0": "Whether all of the jurors have cast their commits for the last round."
        }
      },
      "areVotesAllCast(uint256)": {
        "details": "Returns true if all of the jurors have cast their votes for the last round.",
        "params": {
          "_coreDisputeID": "The ID of the dispute in Kleros Core."
        },
        "returns": {
          "_0": "Whether all of the jurors have cast their votes for the last round."
        }
      },
      "castCommit(uint256,uint256[],bytes32)": {
        "details": "Sets the caller's commit for the specified votes. It can be called multiple times during the  commit period, each call overrides the commits of the previous one.  `O(n)` where  `n` is the number of votes.",
        "params": {
          "_commit": "The commit. Note that justification string is a part of the commit.",
          "_coreDisputeID": "The ID of the dispute in Kleros Core.",
          "_voteIDs": "The IDs of the votes."
        }
      },
      "castVote(uint256,uint256[],uint256,uint256,string)": {
        "details": "Sets the caller's choices for the specified votes.  `O(n)` where  `n` is the number of votes.",
        "params": {
          "_choice": "The choice.",
          "_coreDisputeID": "The ID of the dispute in Kleros Core.",
          "_justification": "Justification of the choice.",
          "_salt": "The salt for the commit if the votes were hidden.",
          "_voteIDs": "The IDs of the votes."
        }
      },
      "changeCore(address)": {
        "details": "Changes the `core` storage variable.",
        "params": {
          "_core": "The new value for the `core` storage variable."
        }
      },
      "changeGovernor(address)": {
        "details": "Changes the `governor` storage variable.",
        "params": {
          "_governor": "The new value for the `governor` storage variable."
        }
      },
      "changeRandomNumberGenerator(address,uint256)": {
        "details": "Changes the `_rng` storage variable.",
        "params": {
          "_rng": "The new value for the `RNGenerator` storage variable.",
          "_rngLookahead": "The new value for the `rngLookahead` storage variable."
        }
      },
      "constructor": {
        "details": "Constructor.",
        "params": {
          "_core": "The KlerosCore arbitrator.",
          "_governor": "The governor's address.",
          "_rng": "The random number generator.",
          "_rngLookahead": "Lookahead value for rng."
        }
      },
      "createDispute(uint256,uint256,bytes,uint256)": {
        "details": "Creates a local dispute and maps it to the dispute ID in the Core contract.  Note: Access restricted to Kleros Core only.",
        "params": {
          "_coreDisputeID": "The ID of the dispute in Kleros Core.",
          "_extraData": "Additional info about the dispute, for possible use in future dispute kits.",
          "_nbVotes": "Number of votes for this dispute.",
          "_numberOfChoices": "Number of choices of the dispute"
        }
      },
      "currentRuling(uint256)": {
        "details": "Gets the current ruling of a specified dispute.",
        "params": {
          "_coreDisputeID": "The ID of the dispute in Kleros Core."
        },
        "returns": {
          "overridden": "Whether the ruling was overridden by appeal funding or not.",
          "ruling": "The current ruling.",
          "tied": "Whether it's a tie or not."
        }
      },
      "draw(uint256)": {
        "details": "Draws the juror from the sortition tree. The drawn address is picked up by Kleros Core.  Note: Access restricted to Kleros Core only.",
        "params": {
          "_coreDisputeID": "The ID of the dispute in Kleros Core."
        },
        "returns": {
          "drawnAddress": "The drawn address."
        }
      },
      "executeGovernorProposal(address,uint256,bytes)": {
        "details": "Allows the governor to call anything on behalf of the contract.",
        "params": {
          "_amount": "The value sent with the call.",
          "_data": "The data sent with the call.",
          "_destination": "The destination of the call."
        }
      },
      "fundAppeal(uint256,uint256)": {
        "details": "Manages contributions, and appeals a dispute if at least two choices are fully funded.  Note that the surplus deposit will be reimbursed.",
        "params": {
          "_choice": "A choice that receives funding.",
          "_coreDisputeID": "Index of the dispute in Kleros Core."
        }
      },
      "getCoherentCount(uint256,uint256)": {
        "details": "Gets the number of jurors who are eligible to a reward in this round.",
        "params": {
          "_coreDisputeID": "The ID of the dispute in Kleros Core, not in the Dispute Kit.",
          "_coreRoundID": "The ID of the round in Kleros Core, not in the Dispute Kit."
        },
        "returns": {
          "_0": "The number of coherent jurors."
        }
      },
      "getDegreeOfCoherence(uint256,uint256,uint256)": {
        "details": "Gets the degree of coherence of a particular voter. This function is called by Kleros Core in order to determine the amount of the reward.",
        "params": {
          "_coreDisputeID": "The ID of the dispute in Kleros Core, not in the Dispute Kit.",
          "_coreRoundID": "The ID of the round in Kleros Core, not in the Dispute Kit.",
          "_voteID": "The ID of the vote."
        },
        "returns": {
          "_0": "The degree of coherence in basis points."
        }
      },
      "isResolving()": {
        "details": "Returns true if the dispute kit is ready to Resolve, regardless of the number of disputes without jurors.",
        "returns": {
          "_0": "Whether the dispute kit is ready to resolve, regardless of the number of disputes without jurors."
        }
      },
      "isVoteActive(uint256,uint256,uint256)": {
        "details": "Returns true if the specified voter was active in this round.",
        "params": {
          "_coreDisputeID": "The ID of the dispute in Kleros Core, not in the Dispute Kit.",
          "_coreRoundID": "The ID of the round in Kleros Core, not in the Dispute Kit.",
          "_voteID": "The ID of the voter."
        },
        "returns": {
          "_0": "Whether the voter was active or not."
        }
      },
      "passPhase()": {
        "details": "Passes the phase."
      },
      "submitEvidence(uint256,string)": {
        "details": "Submits evidence.",
        "params": {
          "_evidence": "IPFS path to evidence, example: '/ipfs/Qmarwkf7C9RuzDEJNnarT3WZ7kem5bk8DZAzx78acJjMFH/evidence.json'.",
          "_evidenceGroupID": "Unique identifier of the evidence group the evidence belongs to. It's the submitter responsability to submit the right evidence group ID."
        }
      },
      "withdrawFeesAndRewards(uint256,address,uint256,uint256)": {
        "details": "Allows those contributors who attempted to fund an appeal round to withdraw any reimbursable fees or rewards after the dispute gets resolved.",
        "params": {
          "_beneficiary": "The address whose rewards to withdraw.",
          "_choice": "The ruling option that the caller wants to withdraw from.",
          "_coreDisputeID": "Index of the dispute in Kleros Core contract.",
          "_coreRoundID": "The round in the Kleros Core contract the caller wants to withdraw from."
        },
        "returns": {
          "amount": "The withdrawn amount."
        }
      }
    },
    "stateVariables": {
      "disputesWithoutJurors": {
        "details": "Returns the number of disputes without jurors in the dispute kit.",
        "return": "The number of disputes without jurors in the dispute kit.",
        "returns": {
          "_0": "The number of disputes without jurors in the dispute kit."
        }
      }
    },
    "title": "DisputeKitClassic  Dispute kit implementation of the Kleros v1 features including:  - a drawing system: proportional to staked PNK,  - a vote aggreation system: plurality,  - an incentive system: equal split between coherent votes,  - an appeal system: fund 2 choices only, vote on any choice.",
    "version": 1
  },
  "userdoc": {
    "kind": "user",
    "methods": {},
    "version": 1
  },
  "storageLayout": {
    "storage": [
      {
        "astId": 7879,
        "contract": "src/arbitration/dispute-kits/DisputeKitClassic.sol:DisputeKitClassic",
        "label": "governor",
        "offset": 0,
        "slot": "0",
        "type": "t_address"
      },
      {
        "astId": 7882,
        "contract": "src/arbitration/dispute-kits/DisputeKitClassic.sol:DisputeKitClassic",
        "label": "core",
        "offset": 0,
        "slot": "1",
        "type": "t_contract(KlerosCore)6033"
      },
      {
        "astId": 8056,
        "contract": "src/arbitration/dispute-kits/DisputeKitClassic.sol:DisputeKitClassic",
        "label": "rng",
        "offset": 0,
        "slot": "2",
        "type": "t_contract(RNG)17208"
      },
      {
        "astId": 8058,
        "contract": "src/arbitration/dispute-kits/DisputeKitClassic.sol:DisputeKitClassic",
        "label": "rngRequestedBlock",
        "offset": 0,
        "slot": "3",
        "type": "t_uint256"
      },
      {
        "astId": 8060,
        "contract": "src/arbitration/dispute-kits/DisputeKitClassic.sol:DisputeKitClassic",
        "label": "rngLookahead",
        "offset": 0,
        "slot": "4",
        "type": "t_uint256"
      },
      {
        "astId": 8062,
        "contract": "src/arbitration/dispute-kits/DisputeKitClassic.sol:DisputeKitClassic",
        "label": "randomNumber",
        "offset": 0,
        "slot": "5",
        "type": "t_uint256"
      },
      {
        "astId": 8065,
        "contract": "src/arbitration/dispute-kits/DisputeKitClassic.sol:DisputeKitClassic",
        "label": "phase",
        "offset": 0,
        "slot": "6",
        "type": "t_enum(Phase)7979"
      },
      {
        "astId": 8067,
        "contract": "src/arbitration/dispute-kits/DisputeKitClassic.sol:DisputeKitClassic",
        "label": "disputesWithoutJurors",
        "offset": 0,
        "slot": "7",
        "type": "t_uint256"
      },
      {
        "astId": 8071,
        "contract": "src/arbitration/dispute-kits/DisputeKitClassic.sol:DisputeKitClassic",
        "label": "disputes",
        "offset": 0,
        "slot": "8",
        "type": "t_array(t_struct(Dispute)7994_storage)dyn_storage"
      },
      {
        "astId": 8075,
        "contract": "src/arbitration/dispute-kits/DisputeKitClassic.sol:DisputeKitClassic",
        "label": "coreDisputeIDToLocal",
        "offset": 0,
        "slot": "9",
        "type": "t_mapping(t_uint256,t_uint256)"
      }
    ],
    "types": {
      "t_address": {
        "encoding": "inplace",
        "label": "address",
        "numberOfBytes": "20"
      },
      "t_array(t_struct(Dispute)7994_storage)dyn_storage": {
        "base": "t_struct(Dispute)7994_storage",
        "encoding": "dynamic_array",
        "label": "struct DisputeKitClassic.Dispute[]",
        "numberOfBytes": "32"
      },
      "t_array(t_struct(Round)8032_storage)dyn_storage": {
        "base": "t_struct(Round)8032_storage",
        "encoding": "dynamic_array",
        "label": "struct DisputeKitClassic.Round[]",
        "numberOfBytes": "32"
      },
      "t_array(t_struct(Vote)8041_storage)dyn_storage": {
        "base": "t_struct(Vote)8041_storage",
        "encoding": "dynamic_array",
        "label": "struct DisputeKitClassic.Vote[]",
        "numberOfBytes": "32"
      },
      "t_array(t_uint256)dyn_storage": {
        "base": "t_uint256",
        "encoding": "dynamic_array",
        "label": "uint256[]",
        "numberOfBytes": "32"
      },
      "t_bool": {
        "encoding": "inplace",
        "label": "bool",
        "numberOfBytes": "1"
      },
      "t_bytes32": {
        "encoding": "inplace",
        "label": "bytes32",
        "numberOfBytes": "32"
      },
      "t_bytes_storage": {
        "encoding": "bytes",
        "label": "bytes",
        "numberOfBytes": "32"
      },
      "t_contract(KlerosCore)6033": {
        "encoding": "inplace",
        "label": "contract KlerosCore",
        "numberOfBytes": "20"
      },
      "t_contract(RNG)17208": {
        "encoding": "inplace",
        "label": "contract RNG",
        "numberOfBytes": "20"
      },
      "t_enum(Phase)7979": {
        "encoding": "inplace",
        "label": "enum DisputeKitClassic.Phase",
        "numberOfBytes": "1"
      },
      "t_mapping(t_address,t_mapping(t_uint256,t_uint256))": {
        "encoding": "mapping",
        "key": "t_address",
        "label": "mapping(address => mapping(uint256 => uint256))",
        "numberOfBytes": "32",
        "value": "t_mapping(t_uint256,t_uint256)"
      },
      "t_mapping(t_uint256,t_bool)": {
        "encoding": "mapping",
        "key": "t_uint256",
        "label": "mapping(uint256 => bool)",
        "numberOfBytes": "32",
        "value": "t_bool"
      },
      "t_mapping(t_uint256,t_uint256)": {
        "encoding": "mapping",
        "key": "t_uint256",
        "label": "mapping(uint256 => uint256)",
        "numberOfBytes": "32",
        "value": "t_uint256"
      },
      "t_struct(Dispute)7994_storage": {
        "encoding": "inplace",
        "label": "struct DisputeKitClassic.Dispute",
        "members": [
          {
            "astId": 7983,
            "contract": "src/arbitration/dispute-kits/DisputeKitClassic.sol:DisputeKitClassic",
            "label": "rounds",
            "offset": 0,
            "slot": "0",
            "type": "t_array(t_struct(Round)8032_storage)dyn_storage"
          },
          {
            "astId": 7985,
            "contract": "src/arbitration/dispute-kits/DisputeKitClassic.sol:DisputeKitClassic",
            "label": "numberOfChoices",
            "offset": 0,
            "slot": "1",
            "type": "t_uint256"
          },
          {
            "astId": 7987,
            "contract": "src/arbitration/dispute-kits/DisputeKitClassic.sol:DisputeKitClassic",
            "label": "jumped",
            "offset": 0,
            "slot": "2",
            "type": "t_bool"
          },
          {
            "astId": 7991,
            "contract": "src/arbitration/dispute-kits/DisputeKitClassic.sol:DisputeKitClassic",
            "label": "coreRoundIDToLocal",
            "offset": 0,
            "slot": "3",
            "type": "t_mapping(t_uint256,t_uint256)"
          },
          {
            "astId": 7993,
            "contract": "src/arbitration/dispute-kits/DisputeKitClassic.sol:DisputeKitClassic",
            "label": "extraData",
            "offset": 0,
            "slot": "4",
            "type": "t_bytes_storage"
          }
        ],
        "numberOfBytes": "160"
      },
      "t_struct(Round)8032_storage": {
        "encoding": "inplace",
        "label": "struct DisputeKitClassic.Round",
        "members": [
          {
            "astId": 7998,
            "contract": "src/arbitration/dispute-kits/DisputeKitClassic.sol:DisputeKitClassic",
            "label": "votes",
            "offset": 0,
            "slot": "0",
            "type": "t_array(t_struct(Vote)8041_storage)dyn_storage"
          },
          {
            "astId": 8000,
            "contract": "src/arbitration/dispute-kits/DisputeKitClassic.sol:DisputeKitClassic",
            "label": "winningChoice",
            "offset": 0,
            "slot": "1",
            "type": "t_uint256"
          },
          {
            "astId": 8004,
            "contract": "src/arbitration/dispute-kits/DisputeKitClassic.sol:DisputeKitClassic",
            "label": "counts",
            "offset": 0,
            "slot": "2",
            "type": "t_mapping(t_uint256,t_uint256)"
          },
          {
            "astId": 8006,
            "contract": "src/arbitration/dispute-kits/DisputeKitClassic.sol:DisputeKitClassic",
            "label": "tied",
            "offset": 0,
            "slot": "3",
            "type": "t_bool"
          },
          {
            "astId": 8008,
            "contract": "src/arbitration/dispute-kits/DisputeKitClassic.sol:DisputeKitClassic",
            "label": "totalVoted",
            "offset": 0,
            "slot": "4",
            "type": "t_uint256"
          },
          {
            "astId": 8010,
            "contract": "src/arbitration/dispute-kits/DisputeKitClassic.sol:DisputeKitClassic",
            "label": "totalCommitted",
            "offset": 0,
            "slot": "5",
            "type": "t_uint256"
          },
          {
            "astId": 8014,
            "contract": "src/arbitration/dispute-kits/DisputeKitClassic.sol:DisputeKitClassic",
            "label": "paidFees",
            "offset": 0,
            "slot": "6",
            "type": "t_mapping(t_uint256,t_uint256)"
          },
          {
            "astId": 8018,
            "contract": "src/arbitration/dispute-kits/DisputeKitClassic.sol:DisputeKitClassic",
            "label": "hasPaid",
            "offset": 0,
            "slot": "7",
            "type": "t_mapping(t_uint256,t_bool)"
          },
          {
            "astId": 8024,
            "contract": "src/arbitration/dispute-kits/DisputeKitClassic.sol:DisputeKitClassic",
            "label": "contributions",
            "offset": 0,
            "slot": "8",
            "type": "t_mapping(t_address,t_mapping(t_uint256,t_uint256))"
          },
          {
            "astId": 8026,
            "contract": "src/arbitration/dispute-kits/DisputeKitClassic.sol:DisputeKitClassic",
            "label": "feeRewards",
            "offset": 0,
            "slot": "9",
            "type": "t_uint256"
          },
          {
            "astId": 8029,
            "contract": "src/arbitration/dispute-kits/DisputeKitClassic.sol:DisputeKitClassic",
            "label": "fundedChoices",
            "offset": 0,
            "slot": "10",
            "type": "t_array(t_uint256)dyn_storage"
          },
          {
            "astId": 8031,
            "contract": "src/arbitration/dispute-kits/DisputeKitClassic.sol:DisputeKitClassic",
            "label": "nbVotes",
            "offset": 0,
            "slot": "11",
            "type": "t_uint256"
          }
        ],
        "numberOfBytes": "384"
      },
      "t_struct(Vote)8041_storage": {
        "encoding": "inplace",
        "label": "struct DisputeKitClassic.Vote",
        "members": [
          {
            "astId": 8034,
            "contract": "src/arbitration/dispute-kits/DisputeKitClassic.sol:DisputeKitClassic",
            "label": "account",
            "offset": 0,
            "slot": "0",
            "type": "t_address"
          },
          {
            "astId": 8036,
            "contract": "src/arbitration/dispute-kits/DisputeKitClassic.sol:DisputeKitClassic",
            "label": "commit",
            "offset": 0,
            "slot": "1",
            "type": "t_bytes32"
          },
          {
            "astId": 8038,
            "contract": "src/arbitration/dispute-kits/DisputeKitClassic.sol:DisputeKitClassic",
            "label": "choice",
            "offset": 0,
            "slot": "2",
            "type": "t_uint256"
          },
          {
            "astId": 8040,
            "contract": "src/arbitration/dispute-kits/DisputeKitClassic.sol:DisputeKitClassic",
            "label": "voted",
            "offset": 0,
            "slot": "3",
            "type": "t_bool"
          }
        ],
        "numberOfBytes": "128"
      },
      "t_uint256": {
        "encoding": "inplace",
        "label": "uint256",
        "numberOfBytes": "32"
      }
    }
  }
}