{
  "address": "0xD2655d9768DB42F4C98A9F51653a3f77Ec4493a3",
  "abi": [
    {
      "inputs": [
        {
          "internalType": "address",
          "name": "_governor",
          "type": "address"
        },
        {
          "internalType": "contract IArbitrator",
          "name": "_arbitrator",
          "type": "address"
        },
        {
          "internalType": "contract IVeaInbox",
          "name": "_veaInbox",
          "type": "address"
        },
        {
          "internalType": "address",
          "name": "_receiverGateway",
          "type": "address"
        },
        {
          "internalType": "uint256",
          "name": "_receiverChainID",
          "type": "uint256"
        }
      ],
      "stateMutability": "nonpayable",
      "type": "constructor"
    },
    {
      "anonymous": false,
      "inputs": [
        {
          "indexed": true,
          "internalType": "contract IArbitrator",
          "name": "_arbitrator",
          "type": "address"
        },
        {
          "indexed": true,
          "internalType": "uint256",
          "name": "_disputeID",
          "type": "uint256"
        },
        {
          "indexed": false,
          "internalType": "uint256",
          "name": "_metaEvidenceID",
          "type": "uint256"
        },
        {
          "indexed": false,
          "internalType": "uint256",
          "name": "_evidenceGroupID",
          "type": "uint256"
        }
      ],
      "name": "Dispute",
      "type": "event"
    },
    {
      "anonymous": false,
      "inputs": [
        {
          "indexed": true,
          "internalType": "uint256",
          "name": "_metaEvidenceID",
          "type": "uint256"
        },
        {
          "indexed": false,
          "internalType": "string",
          "name": "_evidence",
          "type": "string"
        }
      ],
      "name": "MetaEvidence",
      "type": "event"
    },
    {
      "anonymous": false,
      "inputs": [
        {
          "indexed": true,
          "internalType": "contract IArbitrator",
          "name": "_arbitrator",
          "type": "address"
        },
        {
          "indexed": true,
          "internalType": "uint256",
          "name": "_disputeID",
          "type": "uint256"
        },
        {
          "indexed": false,
          "internalType": "uint256",
          "name": "_ruling",
          "type": "uint256"
        }
      ],
      "name": "Ruling",
      "type": "event"
    },
    {
      "inputs": [],
      "name": "arbitrator",
      "outputs": [
        {
          "internalType": "contract IArbitrator",
          "name": "",
          "type": "address"
        }
      ],
      "stateMutability": "view",
      "type": "function"
    },
    {
      "inputs": [
        {
          "internalType": "contract IArbitrator",
          "name": "_arbitrator",
          "type": "address"
        }
      ],
      "name": "changeArbitrator",
      "outputs": [],
      "stateMutability": "nonpayable",
      "type": "function"
    },
    {
      "inputs": [
        {
          "internalType": "address",
          "name": "_governor",
          "type": "address"
        }
      ],
      "name": "changeGovernor",
      "outputs": [],
      "stateMutability": "nonpayable",
      "type": "function"
    },
    {
      "inputs": [
        {
          "internalType": "address",
          "name": "_receiverGateway",
          "type": "address"
        }
      ],
      "name": "changeReceiverGateway",
      "outputs": [],
      "stateMutability": "nonpayable",
      "type": "function"
    },
    {
      "inputs": [
        {
          "internalType": "contract IVeaInbox",
          "name": "_veaInbox",
          "type": "address"
        }
      ],
      "name": "changeVea",
      "outputs": [],
      "stateMutability": "nonpayable",
      "type": "function"
    },
    {
      "inputs": [
        {
          "internalType": "bytes32",
          "name": "_disputeHash",
          "type": "bytes32"
        }
      ],
      "name": "disputeHashToHomeID",
      "outputs": [
        {
          "internalType": "uint256",
          "name": "",
          "type": "uint256"
        }
      ],
      "stateMutability": "view",
      "type": "function"
    },
    {
      "inputs": [
        {
          "internalType": "bytes32",
          "name": "",
          "type": "bytes32"
        }
      ],
      "name": "disputeHashtoID",
      "outputs": [
        {
          "internalType": "uint256",
          "name": "",
          "type": "uint256"
        }
      ],
      "stateMutability": "view",
      "type": "function"
    },
    {
      "inputs": [
        {
          "internalType": "bytes32",
          "name": "",
          "type": "bytes32"
        }
      ],
      "name": "disputeHashtoRelayedData",
      "outputs": [
        {
          "internalType": "uint256",
          "name": "arbitrationCost",
          "type": "uint256"
        },
        {
          "internalType": "address",
          "name": "relayer",
          "type": "address"
        }
      ],
      "stateMutability": "view",
      "type": "function"
    },
    {
      "inputs": [
        {
          "internalType": "uint256",
          "name": "",
          "type": "uint256"
        }
      ],
      "name": "disputeIDtoHash",
      "outputs": [
        {
          "internalType": "bytes32",
          "name": "",
          "type": "bytes32"
        }
      ],
      "stateMutability": "view",
      "type": "function"
    },
    {
      "inputs": [],
      "name": "governor",
      "outputs": [
        {
          "internalType": "address",
          "name": "",
          "type": "address"
        }
      ],
      "stateMutability": "view",
      "type": "function"
    },
    {
      "inputs": [],
      "name": "receiverChainID",
      "outputs": [
        {
          "internalType": "uint256",
          "name": "",
          "type": "uint256"
        }
      ],
      "stateMutability": "view",
      "type": "function"
    },
    {
      "inputs": [],
      "name": "receiverGateway",
      "outputs": [
        {
          "internalType": "address",
          "name": "",
          "type": "address"
        }
      ],
      "stateMutability": "view",
      "type": "function"
    },
    {
      "inputs": [
        {
          "internalType": "uint256",
          "name": "_foreignChainID",
          "type": "uint256"
        },
        {
          "internalType": "bytes32",
          "name": "_foreignBlockHash",
          "type": "bytes32"
        },
        {
          "internalType": "uint256",
          "name": "_foreignDisputeID",
          "type": "uint256"
        },
        {
          "internalType": "uint256",
          "name": "_choices",
          "type": "uint256"
        },
        {
          "internalType": "bytes",
          "name": "_extraData",
          "type": "bytes"
        },
        {
          "internalType": "address",
          "name": "_arbitrable",
          "type": "address"
        }
      ],
      "name": "relayCreateDispute",
      "outputs": [],
      "stateMutability": "payable",
      "type": "function"
    },
    {
      "inputs": [
        {
          "internalType": "uint256",
          "name": "_disputeID",
          "type": "uint256"
        },
        {
          "internalType": "uint256",
          "name": "_ruling",
          "type": "uint256"
        }
      ],
      "name": "rule",
      "outputs": [],
      "stateMutability": "nonpayable",
      "type": "function"
    },
    {
      "inputs": [],
      "name": "veaInbox",
      "outputs": [
        {
          "internalType": "contract IVeaInbox",
          "name": "",
          "type": "address"
        }
      ],
      "stateMutability": "view",
      "type": "function"
    }
  ],
  "transactionHash": "0x977bb1229a6d57a66ff316575f6ef7f9b6e112aebdd46822f250ebd0fe3dae78",
  "args": [
    "0xF50E77f2A2B6138D16c6c7511562E5C33c4B15A3",
    "0x720d566572aFA2D66abD2007e5aBa95a98E9f160",
    "0x660daB9A6436A814a6ae3a6f27b309356a4bE78c",
    "0x604E209B0f77aa85F30739987cA576B2f5d5ad5D",
    10200
  ],
  "numDeployments": 1,
  "solcInputHash": "e839c2860a2bc794c3b8ff7bcdbfe1cc",
  "bytecode": "0x60a060405234801561001057600080fd5b50604051610cb4380380610cb483398101604081905261002f916100ed565b600080546001600160a01b038088166001600160a01b03199283161783556001805488831690841617905560028054878316908416179055600380549186169190921617905560808290526040517f61606860eb6c87306811e2695215385101daab53bd6ab4e9f9049aead9363c7d906100c39060208082526006908201526542524944474560d01b604082015260600190565b60405180910390a25050505050610158565b6001600160a01b03811681146100ea57600080fd5b50565b600080600080600060a0868803121561010557600080fd5b8551610110816100d5565b6020870151909550610121816100d5565b6040870151909450610132816100d5565b6060870151909350610143816100d5565b80925050608086015190509295509295909350565b608051610b4161017360003960006102d30152610b416000f3fe6080604052600436106100c85760003560e01c8063ba4bc7631161007a578063ba4bc763146101bf578063c5ffcf70146101fa578063c95c09511461021a578063cddbfa1414610247578063e4c0aaf4146102a1578063ea4f97d3146102c1578063fc4ba3a2146102f5578063fc548f081461032257600080fd5b806302d3e236146100cd5780630c340a241461010a578063311a6c561461012a5780633b103f531461014c57806369cd2cea1461015f5780636cc6cde11461017f5780637608c3e81461019f575b600080fd5b3480156100d957600080fd5b506002546100ed906001600160a01b031681565b6040516001600160a01b0390911681526020015b60405180910390f35b34801561011657600080fd5b506000546100ed906001600160a01b031681565b34801561013657600080fd5b5061014a61014536600461081f565b610342565b005b61014a61015a366004610869565b610489565b34801561016b57600080fd5b5061014a61017a366004610913565b6106ef565b34801561018b57600080fd5b506001546100ed906001600160a01b031681565b3480156101ab57600080fd5b5061014a6101ba366004610913565b61073b565b3480156101cb57600080fd5b506101ec6101da366004610937565b60046020526000908152604090205481565b604051908152602001610101565b34801561020657600080fd5b506003546100ed906001600160a01b031681565b34801561022657600080fd5b506101ec610235366004610937565b60056020526000908152604090205481565b34801561025357600080fd5b50610284610262366004610937565b600660205260009081526040902080546001909101546001600160a01b031682565b604080519283526001600160a01b03909116602083015201610101565b3480156102ad57600080fd5b5061014a6102bc366004610913565b610787565b3480156102cd57600080fd5b506101ec7f000000000000000000000000000000000000000000000000000000000000000081565b34801561030157600080fd5b506101ec610310366004610937565b60009081526005602052604090205490565b34801561032e57600080fd5b5061014a61033d366004610913565b6107d3565b6001546001600160a01b031633146103935760405162461bcd60e51b815260206004820152600f60248201526e27b7363c9020b93134ba3930ba37b960891b60448201526064015b60405180910390fd5b6000828152600460209081526040808320548084526006835281842082518084018452815481526001909101546001600160a01b03168185018190528351948501839052928401869052606084019290925292909163a60a4db560e01b919060800160408051601f19818403018152908290526002546003546317e1625b60e21b84529193506001600160a01b0390811692635f85896c9261043d92169086908690600401610950565b6020604051808303816000875af115801561045c573d6000803e3d6000fd5b505050506040513d601f19601f8201168201806040525081019061048091906109be565b50505050505050565b6000878787878787876040516020016104a897969594939291906109e8565b60408051601f1981840301815291815281516020928301206000818152600690935291206001810154919250906001600160a01b0316156105255760405162461bcd60e51b8152602060048201526017602482015276111a5cdc1d5d1948185b1c9958591e481c995b185e5959604a1b604482015260640161038a565b60015460405163f7434ea960e01b81526001600160a01b039091169063f7434ea9906105579088908890600401610a71565b602060405180830381865afa158015610574573d6000803e3d6000fd5b505050506040513d601f19601f820116820180604052508101906105989190610a8d565b8082553410156105ea5760405162461bcd60e51b815260206004820181905260248201527f4e6f7420656e6f756768206172626974726174696f6e20636f73742070616964604482015260640161038a565b60015460405163c13517e160e01b81526000916001600160a01b03169063c13517e1903490610621908b908b908b90600401610aa6565b60206040518083038185885af115801561063f573d6000803e3d6000fd5b50505050506040513d601f19601f820116820180604052508101906106649190610a8d565b600081815260046020908152604080832087905586835260058252808320849055600186810180546001600160a01b031916331790555481518481529283019390935292935083926001600160a01b03909216917f74baab670a4015ab2f1b467c5252a96141a2573f2908e58a92081e80d3cfde3d910160405180910390a350505050505050505050565b6000546001600160a01b031633146107195760405162461bcd60e51b815260040161038a90610ac9565b600380546001600160a01b0319166001600160a01b0392909216919091179055565b6000546001600160a01b031633146107655760405162461bcd60e51b815260040161038a90610ac9565b600280546001600160a01b0319166001600160a01b0392909216919091179055565b6000546001600160a01b031633146107b15760405162461bcd60e51b815260040161038a90610ac9565b600080546001600160a01b0319166001600160a01b0392909216919091179055565b6000546001600160a01b031633146107fd5760405162461bcd60e51b815260040161038a90610ac9565b600180546001600160a01b0319166001600160a01b0392909216919091179055565b6000806040838503121561083257600080fd5b50508035926020909101359150565b6001600160a01b038116811461085657600080fd5b50565b803561086481610841565b919050565b600080600080600080600060c0888a03121561088457600080fd5b87359650602088013595506040880135945060608801359350608088013567ffffffffffffffff808211156108b857600080fd5b818a0191508a601f8301126108cc57600080fd5b8135818111156108db57600080fd5b8b60208285010111156108ed57600080fd5b60208301955080945050505061090560a08901610859565b905092959891949750929550565b60006020828403121561092557600080fd5b813561093081610841565b9392505050565b60006020828403121561094957600080fd5b5035919050565b60018060a01b03841681526000602063ffffffff60e01b85168184015260606040840152835180606085015260005b8181101561099b5785810183015185820160800152820161097f565b506000608082860101526080601f19601f83011685010192505050949350505050565b6000602082840312156109d057600080fd5b815167ffffffffffffffff8116811461093057600080fd5b8781528660208201526c6372656174654469737075746560981b604082015285604d82015284606d8201528284608d83013760609190911b6bffffffffffffffffffffffff1916608d919092019081019190915260a10195945050505050565b81835281816020850137506000828201602090810191909152601f909101601f19169091010190565b602081526000610a85602083018486610a48565b949350505050565b600060208284031215610a9f57600080fd5b5051919050565b838152604060208201526000610ac0604083018486610a48565b95945050505050565b60208082526022908201527f416363657373206e6f7420616c6c6f7765643a20476f7665726e6f72206f6e6c6040820152613c9760f11b60608201526080019056fea2646970667358221220a871fc29a646feb4c1eb4dc3c9da776a817f646588326ddf928598c3016b41fa64736f6c63430008120033",
  "devdoc": {
    "events": {
      "Dispute(address,uint256,uint256,uint256)": {
        "details": "To be emitted when a dispute is created to link the correct meta-evidence to the disputeID.",
        "params": {
          "_arbitrator": "The arbitrator of the contract.",
          "_disputeID": "ID of the dispute in the Arbitrator contract.",
          "_evidenceGroupID": "Unique identifier of the evidence group that is linked to this dispute.",
          "_metaEvidenceID": "Unique identifier of meta-evidence."
        }
      },
      "MetaEvidence(uint256,string)": {
        "details": "To be emitted when meta-evidence is submitted.",
        "params": {
          "_evidence": "IPFS path to metaevidence, example: '/ipfs/Qmarwkf7C9RuzDEJNnarT3WZ7kem5bk8DZAzx78acJjMFH/metaevidence.json'",
          "_metaEvidenceID": "Unique identifier of meta-evidence."
        }
      },
      "Ruling(address,uint256,uint256)": {
        "details": "To be raised when a ruling is given.",
        "params": {
          "_arbitrator": "The arbitrator giving the ruling.",
          "_disputeID": "ID of the dispute in the Arbitrator contract.",
          "_ruling": "The ruling which was given."
        }
      }
    },
    "kind": "dev",
    "methods": {
      "changeArbitrator(address)": {
        "details": "Changes the arbitrator.",
        "params": {
          "_arbitrator": "The address of the new arbitrator."
        }
      },
      "changeGovernor(address)": {
        "details": "Changes the governor.",
        "params": {
          "_governor": "The address of the new governor."
        }
      },
      "changeReceiverGateway(address)": {
        "details": "Changes the receiver gateway.",
        "params": {
          "_receiverGateway": "The address of the new receiver gateway."
        }
      },
      "changeVea(address)": {
        "details": "Changes the vea inbox, useful to increase the claim deposit.",
        "params": {
          "_veaInbox": "The address of the new vea inbox."
        }
      },
      "disputeHashToHomeID(bytes32)": {
        "details": "Looks up the local home disputeID for a disputeHash. For cross-chain Evidence standard.",
        "params": {
          "_disputeHash": "dispute hash"
        }
      },
      "relayCreateDispute(uint256,bytes32,uint256,uint256,bytes,address)": {
        "details": "Provide the same parameters as on the foreignChain while creating a dispute. Providing incorrect parameters will create a different hash than on the foreignChain and will not affect the actual dispute/arbitrable's ruling.",
        "params": {
          "_arbitrable": "arbitrable",
          "_choices": "number of ruling choices",
          "_extraData": "extraData",
          "_foreignBlockHash": "foreignBlockHash",
          "_foreignChainID": "foreignChainId",
          "_foreignDisputeID": "foreignDisputeID"
        }
      },
      "rule(uint256,uint256)": {
        "details": "Give a ruling for a dispute. Must be called by the arbitrator. The purpose of this function is to ensure that the address calling it has the right to rule on the contract.",
        "params": {
          "_disputeID": "ID of the dispute in the Arbitrator contract.",
          "_ruling": "Ruling given by the arbitrator. Note that 0 is reserved for \"Not able/wanting to make a decision\"."
        }
      }
    },
    "version": 1
  },
  "userdoc": {
    "kind": "user",
    "methods": {},
    "notice": "Home Gateway Counterpart of `ForeignGateway`",
    "version": 1
  },
  "storageLayout": {
    "storage": [
      {
        "astId": 16059,
        "contract": "src/gateway/HomeGateway.sol:HomeGateway",
        "label": "governor",
        "offset": 0,
        "slot": "0",
        "type": "t_address"
      },
      {
        "astId": 16062,
        "contract": "src/gateway/HomeGateway.sol:HomeGateway",
        "label": "arbitrator",
        "offset": 0,
        "slot": "1",
        "type": "t_contract(IArbitrator)2688"
      },
      {
        "astId": 16065,
        "contract": "src/gateway/HomeGateway.sol:HomeGateway",
        "label": "veaInbox",
        "offset": 0,
        "slot": "2",
        "type": "t_contract(IVeaInbox)46"
      },
      {
        "astId": 16068,
        "contract": "src/gateway/HomeGateway.sol:HomeGateway",
        "label": "receiverGateway",
        "offset": 0,
        "slot": "3",
        "type": "t_address"
      },
      {
        "astId": 16074,
        "contract": "src/gateway/HomeGateway.sol:HomeGateway",
        "label": "disputeIDtoHash",
        "offset": 0,
        "slot": "4",
        "type": "t_mapping(t_uint256,t_bytes32)"
      },
      {
        "astId": 16078,
        "contract": "src/gateway/HomeGateway.sol:HomeGateway",
        "label": "disputeHashtoID",
        "offset": 0,
        "slot": "5",
        "type": "t_mapping(t_bytes32,t_uint256)"
      },
      {
        "astId": 16083,
        "contract": "src/gateway/HomeGateway.sol:HomeGateway",
        "label": "disputeHashtoRelayedData",
        "offset": 0,
        "slot": "6",
        "type": "t_mapping(t_bytes32,t_struct(RelayedData)16057_storage)"
      }
    ],
    "types": {
      "t_address": {
        "encoding": "inplace",
        "label": "address",
        "numberOfBytes": "20"
      },
      "t_bytes32": {
        "encoding": "inplace",
        "label": "bytes32",
        "numberOfBytes": "32"
      },
      "t_contract(IArbitrator)2688": {
        "encoding": "inplace",
        "label": "contract IArbitrator",
        "numberOfBytes": "20"
      },
      "t_contract(IVeaInbox)46": {
        "encoding": "inplace",
        "label": "contract IVeaInbox",
        "numberOfBytes": "20"
      },
      "t_mapping(t_bytes32,t_struct(RelayedData)16057_storage)": {
        "encoding": "mapping",
        "key": "t_bytes32",
        "label": "mapping(bytes32 => struct HomeGateway.RelayedData)",
        "numberOfBytes": "32",
        "value": "t_struct(RelayedData)16057_storage"
      },
      "t_mapping(t_bytes32,t_uint256)": {
        "encoding": "mapping",
        "key": "t_bytes32",
        "label": "mapping(bytes32 => uint256)",
        "numberOfBytes": "32",
        "value": "t_uint256"
      },
      "t_mapping(t_uint256,t_bytes32)": {
        "encoding": "mapping",
        "key": "t_uint256",
        "label": "mapping(uint256 => bytes32)",
        "numberOfBytes": "32",
        "value": "t_bytes32"
      },
      "t_struct(RelayedData)16057_storage": {
        "encoding": "inplace",
        "label": "struct HomeGateway.RelayedData",
        "members": [
          {
            "astId": 16054,
            "contract": "src/gateway/HomeGateway.sol:HomeGateway",
            "label": "arbitrationCost",
            "offset": 0,
            "slot": "0",
            "type": "t_uint256"
          },
          {
            "astId": 16056,
            "contract": "src/gateway/HomeGateway.sol:HomeGateway",
            "label": "relayer",
            "offset": 0,
            "slot": "1",
            "type": "t_address"
          }
        ],
        "numberOfBytes": "64"
      },
      "t_uint256": {
        "encoding": "inplace",
        "label": "uint256",
        "numberOfBytes": "32"
      }
    }
  }
}