{
  "address": "0xdd69c7e8d5B3a6185DE84bBbCacb480153E4e1d8",
  "abi": [
    {
      "inputs": [
        {
          "internalType": "address",
          "name": "_governor",
          "type": "address"
        },
        {
          "internalType": "contract IArbitratorV2",
          "name": "_arbitrator",
          "type": "address"
        },
        {
          "internalType": "contract IVeaInbox",
          "name": "_veaInbox",
          "type": "address"
        },
        {
          "internalType": "uint256",
          "name": "_foreignChainID",
          "type": "uint256"
        },
        {
          "internalType": "address",
          "name": "_foreignGateway",
          "type": "address"
        },
        {
          "internalType": "contract IERC20",
          "name": "_feeToken",
          "type": "address"
        }
      ],
      "stateMutability": "nonpayable",
      "type": "constructor"
    },
    {
      "anonymous": false,
      "inputs": [
        {
          "indexed": false,
          "internalType": "contract IArbitratorV2",
          "name": "_arbitrator",
          "type": "address"
        },
        {
          "indexed": false,
          "internalType": "uint256",
          "name": "_arbitrableChainId",
          "type": "uint256"
        },
        {
          "indexed": true,
          "internalType": "address",
          "name": "_arbitrable",
          "type": "address"
        },
        {
          "indexed": true,
          "internalType": "uint256",
          "name": "_arbitrableDisputeID",
          "type": "uint256"
        },
        {
          "indexed": true,
          "internalType": "uint256",
          "name": "_arbitratorDisputeID",
          "type": "uint256"
        },
        {
          "indexed": false,
          "internalType": "uint256",
          "name": "_externalDisputeID",
          "type": "uint256"
        },
        {
          "indexed": false,
          "internalType": "uint256",
          "name": "_templateId",
          "type": "uint256"
        },
        {
          "indexed": false,
          "internalType": "string",
          "name": "_templateUri",
          "type": "string"
        }
      ],
      "name": "CrossChainDisputeIncoming",
      "type": "event"
    },
    {
      "anonymous": false,
      "inputs": [
        {
          "indexed": true,
          "internalType": "contract IArbitratorV2",
          "name": "_arbitrator",
          "type": "address"
        },
        {
          "indexed": true,
          "internalType": "uint256",
          "name": "_arbitrableDisputeID",
          "type": "uint256"
        },
        {
          "indexed": false,
          "internalType": "uint256",
          "name": "_externalDisputeID",
          "type": "uint256"
        },
        {
          "indexed": false,
          "internalType": "uint256",
          "name": "_templateId",
          "type": "uint256"
        },
        {
          "indexed": false,
          "internalType": "string",
          "name": "_templateUri",
          "type": "string"
        }
      ],
      "name": "DisputeRequest",
      "type": "event"
    },
    {
      "anonymous": false,
      "inputs": [
        {
          "indexed": true,
          "internalType": "contract IArbitratorV2",
          "name": "_arbitrator",
          "type": "address"
        },
        {
          "indexed": true,
          "internalType": "uint256",
          "name": "_disputeID",
          "type": "uint256"
        },
        {
          "indexed": false,
          "internalType": "uint256",
          "name": "_ruling",
          "type": "uint256"
        }
      ],
      "name": "Ruling",
      "type": "event"
    },
    {
      "inputs": [],
      "name": "NATIVE_CURRENCY",
      "outputs": [
        {
          "internalType": "contract IERC20",
          "name": "",
          "type": "address"
        }
      ],
      "stateMutability": "view",
      "type": "function"
    },
    {
      "inputs": [],
      "name": "arbitrator",
      "outputs": [
        {
          "internalType": "contract IArbitratorV2",
          "name": "",
          "type": "address"
        }
      ],
      "stateMutability": "view",
      "type": "function"
    },
    {
      "inputs": [
        {
          "internalType": "contract IArbitratorV2",
          "name": "_arbitrator",
          "type": "address"
        }
      ],
      "name": "changeArbitrator",
      "outputs": [],
      "stateMutability": "nonpayable",
      "type": "function"
    },
    {
      "inputs": [
        {
          "internalType": "contract IERC20",
          "name": "_feeToken",
          "type": "address"
        }
      ],
      "name": "changeFeeToken",
      "outputs": [],
      "stateMutability": "nonpayable",
      "type": "function"
    },
    {
      "inputs": [
        {
          "internalType": "address",
          "name": "_foreignGateway",
          "type": "address"
        }
      ],
      "name": "changeForeignGateway",
      "outputs": [],
      "stateMutability": "nonpayable",
      "type": "function"
    },
    {
      "inputs": [
        {
          "internalType": "address",
          "name": "_governor",
          "type": "address"
        }
      ],
      "name": "changeGovernor",
      "outputs": [],
      "stateMutability": "nonpayable",
      "type": "function"
    },
    {
      "inputs": [
        {
          "internalType": "contract IVeaInbox",
          "name": "_veaInbox",
          "type": "address"
        }
      ],
      "name": "changeVea",
      "outputs": [],
      "stateMutability": "nonpayable",
      "type": "function"
    },
    {
      "inputs": [
        {
          "internalType": "bytes32",
          "name": "_disputeHash",
          "type": "bytes32"
        }
      ],
      "name": "disputeHashToHomeID",
      "outputs": [
        {
          "internalType": "uint256",
          "name": "",
          "type": "uint256"
        }
      ],
      "stateMutability": "view",
      "type": "function"
    },
    {
      "inputs": [
        {
          "internalType": "bytes32",
          "name": "",
          "type": "bytes32"
        }
      ],
      "name": "disputeHashtoID",
      "outputs": [
        {
          "internalType": "uint256",
          "name": "",
          "type": "uint256"
        }
      ],
      "stateMutability": "view",
      "type": "function"
    },
    {
      "inputs": [
        {
          "internalType": "bytes32",
          "name": "",
          "type": "bytes32"
        }
      ],
      "name": "disputeHashtoRelayedData",
      "outputs": [
        {
          "internalType": "uint256",
          "name": "arbitrationCost",
          "type": "uint256"
        },
        {
          "internalType": "address",
          "name": "relayer",
          "type": "address"
        }
      ],
      "stateMutability": "view",
      "type": "function"
    },
    {
      "inputs": [
        {
          "internalType": "uint256",
          "name": "",
          "type": "uint256"
        }
      ],
      "name": "disputeIDtoHash",
      "outputs": [
        {
          "internalType": "bytes32",
          "name": "",
          "type": "bytes32"
        }
      ],
      "stateMutability": "view",
      "type": "function"
    },
    {
      "inputs": [],
      "name": "feeToken",
      "outputs": [
        {
          "internalType": "contract IERC20",
          "name": "",
          "type": "address"
        }
      ],
      "stateMutability": "view",
      "type": "function"
    },
    {
      "inputs": [],
      "name": "foreignChainID",
      "outputs": [
        {
          "internalType": "uint256",
          "name": "",
          "type": "uint256"
        }
      ],
      "stateMutability": "view",
      "type": "function"
    },
    {
      "inputs": [],
      "name": "foreignGateway",
      "outputs": [
        {
          "internalType": "address",
          "name": "",
          "type": "address"
        }
      ],
      "stateMutability": "view",
      "type": "function"
    },
    {
      "inputs": [],
      "name": "governor",
      "outputs": [
        {
          "internalType": "address",
          "name": "",
          "type": "address"
        }
      ],
      "stateMutability": "view",
      "type": "function"
    },
    {
      "inputs": [],
      "name": "receiverGateway",
      "outputs": [
        {
          "internalType": "address",
          "name": "",
          "type": "address"
        }
      ],
      "stateMutability": "view",
      "type": "function"
    },
    {
      "inputs": [
        {
          "components": [
            {
              "internalType": "bytes32",
              "name": "foreignBlockHash",
              "type": "bytes32"
            },
            {
              "internalType": "uint256",
              "name": "foreignChainID",
              "type": "uint256"
            },
            {
              "internalType": "address",
              "name": "foreignArbitrable",
              "type": "address"
            },
            {
              "internalType": "uint256",
              "name": "foreignDisputeID",
              "type": "uint256"
            },
            {
              "internalType": "uint256",
              "name": "externalDisputeID",
              "type": "uint256"
            },
            {
              "internalType": "uint256",
              "name": "templateId",
              "type": "uint256"
            },
            {
              "internalType": "string",
              "name": "templateUri",
              "type": "string"
            },
            {
              "internalType": "uint256",
              "name": "choices",
              "type": "uint256"
            },
            {
              "internalType": "bytes",
              "name": "extraData",
              "type": "bytes"
            }
          ],
          "internalType": "struct IHomeGateway.RelayCreateDisputeParams",
          "name": "_params",
          "type": "tuple"
        },
        {
          "internalType": "uint256",
          "name": "_feeAmount",
          "type": "uint256"
        }
      ],
      "name": "relayCreateDispute",
      "outputs": [],
      "stateMutability": "nonpayable",
      "type": "function"
    },
    {
      "inputs": [
        {
          "components": [
            {
              "internalType": "bytes32",
              "name": "foreignBlockHash",
              "type": "bytes32"
            },
            {
              "internalType": "uint256",
              "name": "foreignChainID",
              "type": "uint256"
            },
            {
              "internalType": "address",
              "name": "foreignArbitrable",
              "type": "address"
            },
            {
              "internalType": "uint256",
              "name": "foreignDisputeID",
              "type": "uint256"
            },
            {
              "internalType": "uint256",
              "name": "externalDisputeID",
              "type": "uint256"
            },
            {
              "internalType": "uint256",
              "name": "templateId",
              "type": "uint256"
            },
            {
              "internalType": "string",
              "name": "templateUri",
              "type": "string"
            },
            {
              "internalType": "uint256",
              "name": "choices",
              "type": "uint256"
            },
            {
              "internalType": "bytes",
              "name": "extraData",
              "type": "bytes"
            }
          ],
          "internalType": "struct IHomeGateway.RelayCreateDisputeParams",
          "name": "_params",
          "type": "tuple"
        }
      ],
      "name": "relayCreateDispute",
      "outputs": [],
      "stateMutability": "payable",
      "type": "function"
    },
    {
      "inputs": [
        {
          "internalType": "uint256",
          "name": "_disputeID",
          "type": "uint256"
        },
        {
          "internalType": "uint256",
          "name": "_ruling",
          "type": "uint256"
        }
      ],
      "name": "rule",
      "outputs": [],
      "stateMutability": "nonpayable",
      "type": "function"
    },
    {
      "inputs": [],
      "name": "veaInbox",
      "outputs": [
        {
          "internalType": "contract IVeaInbox",
          "name": "",
          "type": "address"
        }
      ],
      "stateMutability": "view",
      "type": "function"
    }
  ],
  "transactionHash": "0xeaf452b95531ac1d97ff2b268ea1ea6f7f8401f43c84837cbd48754481610e86",
  "args": [
    "0xF50E77f2A2B6138D16c6c7511562E5C33c4B15A3",
    "0x791812B0B9f2ba260B2DA432BB02Ee23BC1bB509",
    "0x660daB9A6436A814a6ae3a6f27b309356a4bE78c",
    10200,
    "0x2824bdcc752b1272D56A84be03A74Ee856C06e43",
    "0x70A704Dce4cCC00568Cc142C86D07Ec71C944a39"
  ],
  "numDeployments": 6,
  "solcInputHash": "7e0c306a4451043d6e53d94781f5594c",
  "bytecode": "0x60a06040523480156200001157600080fd5b5060405162001619380380620016198339810160408190526200003491620000b6565b600080546001600160a01b03199081166001600160a01b039889161790915560018054821696881696909617909555600280548616948716949094179093556080919091526003805484169185169190911790556004805490921692169190911790556200013e565b6001600160a01b0381168114620000b357600080fd5b50565b60008060008060008060c08789031215620000d057600080fd5b8651620000dd816200009d565b6020880151909650620000f0816200009d565b604088015190955062000103816200009d565b6060880151608089015191955093506200011d816200009d565b60a088015190925062000130816200009d565b809150509295509295509295565b6080516114b1620001686000396000818161028a015281816106270152610a2f01526114b16000f3fe60806040526004361061011f5760003560e01c806396882403116100a0578063c95c095111610064578063c95c095114610338578063cddbfa1414610365578063e4c0aaf4146103bf578063fc4ba3a2146103df578063fc548f081461040c57600080fd5b806396882403146102785780639e72c153146102ba578063ba4bc763146102da578063c0fab03514610307578063c5ffcf701461031a57600080fd5b806349f42650116100e757806349f42650146101e3578063647846a5146101f85780636cc6cde1146102185780637608c3e8146102385780638d7c7daa1461025857600080fd5b806302d3e236146101245780630c340a24146101615780631a440de614610181578063311a6c56146101a3578063376dcc0d146101c3575b600080fd5b34801561013057600080fd5b50600254610144906001600160a01b031681565b6040516001600160a01b0390911681526020015b60405180910390f35b34801561016d57600080fd5b50600054610144906001600160a01b031681565b34801561018d57600080fd5b506101a161019c366004610f15565b61042c565b005b3480156101af57600080fd5b506101a16101be366004610f39565b610481565b3480156101cf57600080fd5b506101a16101de3660046110f7565b6105c3565b3480156101ef57600080fd5b50610144600081565b34801561020457600080fd5b50600454610144906001600160a01b031681565b34801561022457600080fd5b50600154610144906001600160a01b031681565b34801561024457600080fd5b506101a1610253366004610f15565b610942565b34801561026457600080fd5b50600354610144906001600160a01b031681565b34801561028457600080fd5b506102ac7f000000000000000000000000000000000000000000000000000000000000000081565b604051908152602001610158565b3480156102c657600080fd5b506101a16102d5366004610f15565b61098e565b3480156102e657600080fd5b506102ac6102f536600461113c565b60056020526000908152604090205481565b6101a1610315366004611155565b6109da565b34801561032657600080fd5b506003546001600160a01b0316610144565b34801561034457600080fd5b506102ac61035336600461113c565b60066020526000908152604090205481565b34801561037157600080fd5b506103a261038036600461113c565b600760205260009081526040902080546001909101546001600160a01b031682565b604080519283526001600160a01b03909116602083015201610158565b3480156103cb57600080fd5b506101a16103da366004610f15565b610c85565b3480156103eb57600080fd5b506102ac6103fa36600461113c565b60009081526006602052604090205490565b34801561041857600080fd5b506101a1610427366004610f15565b610cd1565b6000546001600160a01b0316331461045f5760405162461bcd60e51b815260040161045690611192565b60405180910390fd5b600480546001600160a01b0319166001600160a01b0392909216919091179055565b6001546001600160a01b031633146104cd5760405162461bcd60e51b815260206004820152600f60248201526e27b7363c9020b93134ba3930ba37b960891b6044820152606401610456565b6000828152600560209081526040808320548084526007835281842082518084018452815481526001909101546001600160a01b03168185018190528351948501839052928401869052606084019290925292909163a60a4db560e01b919060800160408051601f19818403018152908290526002546003546317e1625b60e21b84529193506001600160a01b0390811692635f85896c9261057792169086908690600401611224565b6020604051808303816000875af1158015610596573d6000803e3d6000fd5b505050506040513d601f19601f820116820180604052508101906105ba9190611261565b50505050505050565b6004546001600160a01b03166106255760405162461bcd60e51b815260206004820152602160248201527f46656573207061696420696e206e61746976652063757272656e6379206f6e6c6044820152607960f81b6064820152608401610456565b7f00000000000000000000000000000000000000000000000000000000000000008260200151146106685760405162461bcd60e51b81526004016104569061128b565b8151602080840151604080860151606087015160e088015161010089015193516000976106999790969591016112c2565b60408051601f1981840301815291815281516020928301206000818152600790935291206001810154919250906001600160a01b0316156106ec5760405162461bcd60e51b81526004016104569061132c565b600454610704906001600160a01b0316333086610d1d565b6107425760405162461bcd60e51b815260206004820152600f60248201526e151c985b9cd9995c8819985a5b1959608a1b6044820152606401610456565b60015460045461075f916001600160a01b03918216911685610df9565b6107a75760405162461bcd60e51b8152602060048201526019602482015278105b1b1bddd85b98d9481a5b98dc99585cd94819985a5b1959603a1b6044820152606401610456565b60015460e085015161010086015160048054604051633d941b6d60e21b81526000956001600160a01b039081169563f6506db4956107ee95919490939216918b910161135d565b6020604051808303816000875af115801561080d573d6000803e3d6000fd5b505050506040513d601f19601f820116820180604052508101906108319190611392565b6000818152600560209081526040808320879055868352600690915290819020829055600180850180546001600160a01b0319163317905554608088015160a089015160c08a0151935194955085946001600160a01b0393909316937f8bd32f430ff060e6bd204709b3790c9807987263d3230c580dc80b5f89e27186936108bb939291906113ab565b60405180910390a380856060015186604001516001600160a01b03167f2ecee3c6efdf9fe2284aca27b27774f7fdd967ff823bb1b329090ff881d8c40c600160009054906101000a90046001600160a01b031689602001518a608001518b60a001518c60c001516040516109339594939291906113ca565b60405180910390a45050505050565b6000546001600160a01b0316331461096c5760405162461bcd60e51b815260040161045690611192565b600280546001600160a01b0319166001600160a01b0392909216919091179055565b6000546001600160a01b031633146109b85760405162461bcd60e51b815260040161045690611192565b600380546001600160a01b0319166001600160a01b0392909216919091179055565b6004546001600160a01b031615610a2d5760405162461bcd60e51b815260206004820152601760248201527646656573207061696420696e204552433230206f6e6c7960481b6044820152606401610456565b7f0000000000000000000000000000000000000000000000000000000000000000816020015114610a705760405162461bcd60e51b81526004016104569061128b565b8051602080830151604080850151606086015160e08701516101008801519351600097610aa19790969591016112c2565b60408051601f1981840301815291815281516020928301206000818152600790935291206001810154919250906001600160a01b031615610af45760405162461bcd60e51b81526004016104569061132c565b60015460e084015161010085015160405163c13517e160e01b81526000936001600160a01b03169263c13517e1923492610b329291906004016113fd565b60206040518083038185885af1158015610b50573d6000803e3d6000fd5b50505050506040513d601f19601f82011682018060405250810190610b759190611392565b6000818152600560209081526040808320879055868352600690915290819020829055600180850180546001600160a01b0319163317905554608087015160a088015160c0890151935194955085946001600160a01b0393909316937f8bd32f430ff060e6bd204709b3790c9807987263d3230c580dc80b5f89e2718693610bff939291906113ab565b60405180910390a380846060015185604001516001600160a01b03167f2ecee3c6efdf9fe2284aca27b27774f7fdd967ff823bb1b329090ff881d8c40c600160009054906101000a90046001600160a01b0316886020015189608001518a60a001518b60c00151604051610c779594939291906113ca565b60405180910390a450505050565b6000546001600160a01b03163314610caf5760405162461bcd60e51b815260040161045690611192565b600080546001600160a01b0319166001600160a01b0392909216919091179055565b6000546001600160a01b03163314610cfb5760405162461bcd60e51b815260040161045690611192565b600180546001600160a01b0319166001600160a01b0392909216919091179055565b6040516001600160a01b038481166024830152838116604483015260648201839052600091829182919088169060840160408051601f198184030181529181526020820180516001600160e01b03166323b872dd60e01b17905251610d829190611416565b6000604051808303816000865af19150503d8060008114610dbf576040519150601f19603f3d011682016040523d82523d6000602084013e610dc4565b606091505b5091509150818015610dee575080511580610dee575080806020019051810190610dee9190611432565b979650505050505050565b604051636eb1769f60e11b81523060048201526001600160a01b0383811660248301526000919085169063095ea7b39085908590849063dd62ed3e90604401602060405180830381865afa158015610e55573d6000803e3d6000fd5b505050506040513d601f19601f82011682018060405250810190610e799190611392565b610e839190611454565b6040516001600160e01b031960e085901b1681526001600160a01b03909216600483015260248201526044016020604051808303816000875af1158015610ece573d6000803e3d6000fd5b505050506040513d601f19601f82011682018060405250810190610ef29190611432565b506001949350505050565b6001600160a01b0381168114610f1257600080fd5b50565b600060208284031215610f2757600080fd5b8135610f3281610efd565b9392505050565b60008060408385031215610f4c57600080fd5b50508035926020909101359150565b634e487b7160e01b600052604160045260246000fd5b604051610120810167ffffffffffffffff81118282101715610f9557610f95610f5b565b60405290565b8035610fa681610efd565b919050565b600082601f830112610fbc57600080fd5b813567ffffffffffffffff80821115610fd757610fd7610f5b565b604051601f8301601f19908116603f01168101908282118183101715610fff57610fff610f5b565b8160405283815286602085880101111561101857600080fd5b836020870160208301376000602085830101528094505050505092915050565b6000610120828403121561104b57600080fd5b611053610f71565b9050813581526020820135602082015261106f60408301610f9b565b6040820152606082013560608201526080820135608082015260a082013560a082015260c082013567ffffffffffffffff808211156110ad57600080fd5b6110b985838601610fab565b60c084015260e084013560e0840152610100915081840135818111156110de57600080fd5b6110ea86828701610fab565b8385015250505092915050565b6000806040838503121561110a57600080fd5b823567ffffffffffffffff81111561112157600080fd5b61112d85828601611038565b95602094909401359450505050565b60006020828403121561114e57600080fd5b5035919050565b60006020828403121561116757600080fd5b813567ffffffffffffffff81111561117e57600080fd5b61118a84828501611038565b949350505050565b60208082526022908201527f416363657373206e6f7420616c6c6f7765643a20476f7665726e6f72206f6e6c6040820152613c9760f11b606082015260800190565b60005b838110156111ef5781810151838201526020016111d7565b50506000910152565b600081518084526112108160208601602086016111d4565b601f01601f19169290920160200192915050565b6001600160a01b03841681526001600160e01b031983166020820152606060408201819052600090611258908301846111f8565b95945050505050565b60006020828403121561127357600080fd5b815167ffffffffffffffff81168114610f3257600080fd5b6020808252601e908201527f466f726569676e20636861696e204944206e6f7420737570706f727465640000604082015260600190565b6c6372656174654469737075746560981b815286600d82015285602d8201526bffffffffffffffffffffffff198560601b16604d8201528360618201528260818201526000825161131a8160a18501602087016111d4565b9190910160a101979650505050505050565b602080825260179082015276111a5cdc1d5d1948185b1c9958591e481c995b185e5959604a1b604082015260600190565b84815260806020820152600061137660808301866111f8565b6001600160a01b03949094166040830152506060015292915050565b6000602082840312156113a457600080fd5b5051919050565b83815282602082015260606040820152600061125860608301846111f8565b60018060a01b038616815284602082015283604082015282606082015260a060808201526000610dee60a08301846111f8565b82815260406020820152600061118a60408301846111f8565b600082516114288184602087016111d4565b9190910192915050565b60006020828403121561144457600080fd5b81518015158114610f3257600080fd5b8082018082111561147557634e487b7160e01b600052601160045260246000fd5b9291505056fea2646970667358221220336f6829deabf0d3f51e8438b93adc3e04cd04408d79bae4f491864ed298389964736f6c63430008120033",
  "devdoc": {
    "events": {
      "CrossChainDisputeIncoming(address,uint256,address,uint256,uint256,uint256,uint256,string)": {
        "details": "To be emitted when a dispute is received from the IForeignGateway.",
        "params": {
          "_arbitrable": "The address of the Arbitrable contract.",
          "_arbitrableChainId": "The chain identifier where the Arbitrable contract is deployed.",
          "_arbitrableDisputeID": "The identifier of the dispute in the Arbitrable contract.",
          "_arbitrator": "The arbitrator of the contract.",
          "_arbitratorDisputeID": "The identifier of the dispute in the Arbitrator contract.",
          "_externalDisputeID": "An identifier created outside Kleros by the protocol requesting arbitration.",
          "_templateId": "The identifier of the dispute template. Should not be used with _templateUri.",
          "_templateUri": "IPFS path to the dispute template starting with '/ipfs/'. Should not be used with _templateId."
        }
      },
      "DisputeRequest(address,uint256,uint256,uint256,string)": {
        "details": "To be emitted when a dispute is created to link the correct meta-evidence to the disputeID.",
        "params": {
          "_arbitrableDisputeID": "The identifier of the dispute in the Arbitrable contract.",
          "_arbitrator": "The arbitrator of the contract.",
          "_externalDisputeID": "An identifier created outside Kleros by the protocol requesting arbitration.",
          "_templateId": "The identifier of the dispute template. Should not be used with _templateUri.",
          "_templateUri": "The URI to the dispute template. For example on IPFS: starting with '/ipfs/'. Should not be used with _templateId."
        }
      },
      "Ruling(address,uint256,uint256)": {
        "details": "To be raised when a ruling is given.",
        "params": {
          "_arbitrator": "The arbitrator giving the ruling.",
          "_disputeID": "The identifier of the dispute in the Arbitrator contract.",
          "_ruling": "The ruling which was given."
        }
      }
    },
    "kind": "dev",
    "methods": {
      "changeArbitrator(address)": {
        "details": "Changes the arbitrator.",
        "params": {
          "_arbitrator": "The address of the new arbitrator."
        }
      },
      "changeFeeToken(address)": {
        "details": "Changes the fee token.",
        "params": {
          "_feeToken": "The address of the new fee token."
        }
      },
      "changeForeignGateway(address)": {
        "details": "Changes the foreign gateway.",
        "params": {
          "_foreignGateway": "The address of the new foreign gateway."
        }
      },
      "changeGovernor(address)": {
        "details": "Changes the governor.",
        "params": {
          "_governor": "The address of the new governor."
        }
      },
      "changeVea(address)": {
        "details": "Changes the vea inbox, useful to increase the claim deposit.",
        "params": {
          "_veaInbox": "The address of the new vea inbox."
        }
      },
      "disputeHashToHomeID(bytes32)": {
        "details": "Looks up the local home disputeID for a disputeHash",
        "params": {
          "_disputeHash": "dispute hash"
        },
        "returns": {
          "_0": "disputeID dispute identifier on the home chain"
        }
      },
      "relayCreateDispute((bytes32,uint256,address,uint256,uint256,uint256,string,uint256,bytes))": {
        "details": "Relays a dispute creation from the ForeignGateway to the home arbitrator using the same parameters as the ones on the foreign chain.      Providing incorrect parameters will create a different hash than on the foreignChain and will not affect the actual dispute/arbitrable's ruling.      This function accepts the fees payment in the native currency of the home chain, typically ETH.",
        "params": {
          "_params": "The parameters of the dispute, see `RelayCreateDisputeParams`."
        }
      },
      "relayCreateDispute((bytes32,uint256,address,uint256,uint256,uint256,string,uint256,bytes),uint256)": {
        "details": "Relays a dispute creation from the ForeignGateway to the home arbitrator using the same parameters as the ones on the foreign chain.      Providing incorrect parameters will create a different hash than on the foreignChain and will not affect the actual dispute/arbitrable's ruling.      This function accepts the fees payment in the ERC20 `acceptedFeeToken()`.",
        "params": {
          "_params": "The parameters of the dispute, see `RelayCreateDisputeParams`."
        }
      },
      "rule(uint256,uint256)": {
        "details": "Give a ruling for a dispute.      Must be called by the arbitrator.      The purpose of this function is to ensure that the address calling it has the right to rule on the contract.",
        "params": {
          "_disputeID": "The identifier of the dispute in the Arbitrator contract.",
          "_ruling": "Ruling given by the arbitrator. Note that 0 is reserved for \"Not able/wanting to make a decision\"."
        }
      }
    },
    "stateVariables": {
      "foreignChainID": {
        "return": "The chain ID where the corresponding foreign gateway is deployed.",
        "returns": {
          "_0": "The chain ID where the corresponding foreign gateway is deployed."
        }
      },
      "foreignGateway": {
        "return": "The address of the corresponding foreign gateway.",
        "returns": {
          "_0": "The address of the corresponding foreign gateway."
        }
      }
    },
    "version": 1
  },
  "userdoc": {
    "kind": "user",
    "methods": {
      "feeToken()": {
        "notice": "return The fee token."
      }
    },
    "notice": "Home Gateway Counterpart of `ForeignGateway`",
    "version": 1
  },
  "storageLayout": {
    "storage": [
      {
        "astId": 16311,
        "contract": "src/gateway/HomeGateway.sol:HomeGateway",
        "label": "governor",
        "offset": 0,
        "slot": "0",
        "type": "t_address"
      },
      {
        "astId": 16314,
        "contract": "src/gateway/HomeGateway.sol:HomeGateway",
        "label": "arbitrator",
        "offset": 0,
        "slot": "1",
        "type": "t_contract(IArbitratorV2)15461"
      },
      {
        "astId": 16317,
        "contract": "src/gateway/HomeGateway.sol:HomeGateway",
        "label": "veaInbox",
        "offset": 0,
        "slot": "2",
        "type": "t_contract(IVeaInbox)46"
      },
      {
        "astId": 16323,
        "contract": "src/gateway/HomeGateway.sol:HomeGateway",
        "label": "foreignGateway",
        "offset": 0,
        "slot": "3",
        "type": "t_address"
      },
      {
        "astId": 16326,
        "contract": "src/gateway/HomeGateway.sol:HomeGateway",
        "label": "feeToken",
        "offset": 0,
        "slot": "4",
        "type": "t_contract(IERC20)1042"
      },
      {
        "astId": 16330,
        "contract": "src/gateway/HomeGateway.sol:HomeGateway",
        "label": "disputeIDtoHash",
        "offset": 0,
        "slot": "5",
        "type": "t_mapping(t_uint256,t_bytes32)"
      },
      {
        "astId": 16334,
        "contract": "src/gateway/HomeGateway.sol:HomeGateway",
        "label": "disputeHashtoID",
        "offset": 0,
        "slot": "6",
        "type": "t_mapping(t_bytes32,t_uint256)"
      },
      {
        "astId": 16339,
        "contract": "src/gateway/HomeGateway.sol:HomeGateway",
        "label": "disputeHashtoRelayedData",
        "offset": 0,
        "slot": "7",
        "type": "t_mapping(t_bytes32,t_struct(RelayedData)16300_storage)"
      }
    ],
    "types": {
      "t_address": {
        "encoding": "inplace",
        "label": "address",
        "numberOfBytes": "20"
      },
      "t_bytes32": {
        "encoding": "inplace",
        "label": "bytes32",
        "numberOfBytes": "32"
      },
      "t_contract(IArbitratorV2)15461": {
        "encoding": "inplace",
        "label": "contract IArbitratorV2",
        "numberOfBytes": "20"
      },
      "t_contract(IERC20)1042": {
        "encoding": "inplace",
        "label": "contract IERC20",
        "numberOfBytes": "20"
      },
      "t_contract(IVeaInbox)46": {
        "encoding": "inplace",
        "label": "contract IVeaInbox",
        "numberOfBytes": "20"
      },
      "t_mapping(t_bytes32,t_struct(RelayedData)16300_storage)": {
        "encoding": "mapping",
        "key": "t_bytes32",
        "label": "mapping(bytes32 => struct HomeGateway.RelayedData)",
        "numberOfBytes": "32",
        "value": "t_struct(RelayedData)16300_storage"
      },
      "t_mapping(t_bytes32,t_uint256)": {
        "encoding": "mapping",
        "key": "t_bytes32",
        "label": "mapping(bytes32 => uint256)",
        "numberOfBytes": "32",
        "value": "t_uint256"
      },
      "t_mapping(t_uint256,t_bytes32)": {
        "encoding": "mapping",
        "key": "t_uint256",
        "label": "mapping(uint256 => bytes32)",
        "numberOfBytes": "32",
        "value": "t_bytes32"
      },
      "t_struct(RelayedData)16300_storage": {
        "encoding": "inplace",
        "label": "struct HomeGateway.RelayedData",
        "members": [
          {
            "astId": 16297,
            "contract": "src/gateway/HomeGateway.sol:HomeGateway",
            "label": "arbitrationCost",
            "offset": 0,
            "slot": "0",
            "type": "t_uint256"
          },
          {
            "astId": 16299,
            "contract": "src/gateway/HomeGateway.sol:HomeGateway",
            "label": "relayer",
            "offset": 0,
            "slot": "1",
            "type": "t_address"
          }
        ],
        "numberOfBytes": "64"
      },
      "t_uint256": {
        "encoding": "inplace",
        "label": "uint256",
        "numberOfBytes": "32"
      }
    }
  }
}