{
  "address": "0xdfea19B51cDe76Aa659bB72401AC14FFCFe42Cde",
  "abi": [
    {
      "inputs": [
        {
          "internalType": "address",
          "name": "_governor",
          "type": "address"
        },
        {
          "internalType": "contract IERC20",
          "name": "_pinakion",
          "type": "address"
        },
        {
          "internalType": "address",
          "name": "_jurorProsecutionModule",
          "type": "address"
        },
        {
          "internalType": "contract IDisputeKit",
          "name": "_disputeKit",
          "type": "address"
        },
        {
          "internalType": "uint256[2]",
          "name": "_phaseTimeouts",
          "type": "uint256[2]"
        },
        {
          "internalType": "bool",
          "name": "_hiddenVotes",
          "type": "bool"
        },
        {
          "internalType": "uint256[4]",
          "name": "_courtParameters",
          "type": "uint256[4]"
        },
        {
          "internalType": "uint256[4]",
          "name": "_timesPerPeriod",
          "type": "uint256[4]"
        },
        {
          "internalType": "uint256",
          "name": "_sortitionSumTreeK",
          "type": "uint256"
        }
      ],
      "stateMutability": "nonpayable",
      "type": "constructor"
    },
    {
      "anonymous": false,
      "inputs": [
        {
          "indexed": true,
          "internalType": "uint256",
          "name": "_disputeID",
          "type": "uint256"
        },
        {
          "indexed": true,
          "internalType": "contract IArbitrable",
          "name": "_arbitrable",
          "type": "address"
        }
      ],
      "name": "AppealDecision",
      "type": "event"
    },
    {
      "anonymous": false,
      "inputs": [
        {
          "indexed": true,
          "internalType": "uint256",
          "name": "_disputeID",
          "type": "uint256"
        },
        {
          "indexed": true,
          "internalType": "contract IArbitrable",
          "name": "_arbitrable",
          "type": "address"
        }
      ],
      "name": "AppealPossible",
      "type": "event"
    },
    {
      "anonymous": false,
      "inputs": [
        {
          "indexed": true,
          "internalType": "uint256",
          "name": "_disputeID",
          "type": "uint256"
        },
        {
          "indexed": true,
          "internalType": "uint256",
          "name": "_roundID",
          "type": "uint256"
        },
        {
          "indexed": true,
          "internalType": "uint96",
          "name": "_fromSubcourtID",
          "type": "uint96"
        },
        {
          "indexed": false,
          "internalType": "uint96",
          "name": "_toSubcourtID",
          "type": "uint96"
        }
      ],
      "name": "CourtJump",
      "type": "event"
    },
    {
      "anonymous": false,
      "inputs": [
        {
          "indexed": true,
          "internalType": "uint256",
          "name": "_disputeID",
          "type": "uint256"
        },
        {
          "indexed": true,
          "internalType": "contract IArbitrable",
          "name": "_arbitrable",
          "type": "address"
        }
      ],
      "name": "DisputeCreation",
      "type": "event"
    },
    {
      "anonymous": false,
      "inputs": [
        {
          "indexed": true,
          "internalType": "uint256",
          "name": "_disputeKitID",
          "type": "uint256"
        },
        {
          "indexed": true,
          "internalType": "contract IDisputeKit",
          "name": "_disputeKitAddress",
          "type": "address"
        },
        {
          "indexed": true,
          "internalType": "uint256",
          "name": "_parent",
          "type": "uint256"
        }
      ],
      "name": "DisputeKitCreated",
      "type": "event"
    },
    {
      "anonymous": false,
      "inputs": [
        {
          "indexed": true,
          "internalType": "uint96",
          "name": "_subcourtID",
          "type": "uint96"
        },
        {
          "indexed": true,
          "internalType": "uint256",
          "name": "_disputeKitID",
          "type": "uint256"
        },
        {
          "indexed": true,
          "internalType": "bool",
          "name": "_enable",
          "type": "bool"
        }
      ],
      "name": "DisputeKitEnabled",
      "type": "event"
    },
    {
      "anonymous": false,
      "inputs": [
        {
          "indexed": true,
          "internalType": "uint256",
          "name": "_disputeID",
          "type": "uint256"
        },
        {
          "indexed": true,
          "internalType": "uint256",
          "name": "_roundID",
          "type": "uint256"
        },
        {
          "indexed": true,
          "internalType": "uint256",
          "name": "_fromDisputeKitID",
          "type": "uint256"
        },
        {
          "indexed": false,
          "internalType": "uint256",
          "name": "_toDisputeKitID",
          "type": "uint256"
        }
      ],
      "name": "DisputeKitJump",
      "type": "event"
    },
    {
      "anonymous": false,
      "inputs": [
        {
          "indexed": true,
          "internalType": "address",
          "name": "_address",
          "type": "address"
        },
        {
          "indexed": true,
          "internalType": "uint256",
          "name": "_disputeID",
          "type": "uint256"
        },
        {
          "indexed": false,
          "internalType": "uint256",
          "name": "_roundID",
          "type": "uint256"
        },
        {
          "indexed": false,
          "internalType": "uint256",
          "name": "_voteID",
          "type": "uint256"
        }
      ],
      "name": "Draw",
      "type": "event"
    },
    {
      "anonymous": false,
      "inputs": [
        {
          "indexed": true,
          "internalType": "uint256",
          "name": "_disputeID",
          "type": "uint256"
        },
        {
          "indexed": false,
          "internalType": "enum KlerosCore.Period",
          "name": "_period",
          "type": "uint8"
        }
      ],
      "name": "NewPeriod",
      "type": "event"
    },
    {
      "anonymous": false,
      "inputs": [
        {
          "indexed": false,
          "internalType": "enum KlerosCore.Phase",
          "name": "_phase",
          "type": "uint8"
        }
      ],
      "name": "NewPhase",
      "type": "event"
    },
    {
      "anonymous": false,
      "inputs": [
        {
          "indexed": true,
          "internalType": "address",
          "name": "_address",
          "type": "address"
        },
        {
          "indexed": false,
          "internalType": "uint256",
          "name": "_subcourtID",
          "type": "uint256"
        },
        {
          "indexed": false,
          "internalType": "uint256",
          "name": "_amount",
          "type": "uint256"
        },
        {
          "indexed": false,
          "internalType": "uint256",
          "name": "_newTotalStake",
          "type": "uint256"
        }
      ],
      "name": "StakeSet",
      "type": "event"
    },
    {
      "anonymous": false,
      "inputs": [
        {
          "indexed": true,
          "internalType": "uint256",
          "name": "_subcourtID",
          "type": "uint256"
        },
        {
          "indexed": true,
          "internalType": "uint96",
          "name": "_parent",
          "type": "uint96"
        },
        {
          "indexed": false,
          "internalType": "bool",
          "name": "_hiddenVotes",
          "type": "bool"
        },
        {
          "indexed": false,
          "internalType": "uint256",
          "name": "_minStake",
          "type": "uint256"
        },
        {
          "indexed": false,
          "internalType": "uint256",
          "name": "_alpha",
          "type": "uint256"
        },
        {
          "indexed": false,
          "internalType": "uint256",
          "name": "_feeForJuror",
          "type": "uint256"
        },
        {
          "indexed": false,
          "internalType": "uint256",
          "name": "_jurorsForCourtJump",
          "type": "uint256"
        },
        {
          "indexed": false,
          "internalType": "uint256[4]",
          "name": "_timesPerPeriod",
          "type": "uint256[4]"
        },
        {
          "indexed": false,
          "internalType": "uint256",
          "name": "_sortitionSumTreeK",
          "type": "uint256"
        },
        {
          "indexed": false,
          "internalType": "uint256[]",
          "name": "_supportedDisputeKits",
          "type": "uint256[]"
        }
      ],
      "name": "SubcourtCreated",
      "type": "event"
    },
    {
      "anonymous": false,
      "inputs": [
        {
          "indexed": true,
          "internalType": "uint96",
          "name": "_subcourtID",
          "type": "uint96"
        },
        {
          "indexed": false,
          "internalType": "string",
          "name": "_param",
          "type": "string"
        }
      ],
      "name": "SubcourtModified",
      "type": "event"
    },
    {
      "anonymous": false,
      "inputs": [
        {
          "indexed": true,
          "internalType": "address",
          "name": "_account",
          "type": "address"
        },
        {
          "indexed": true,
          "internalType": "uint256",
          "name": "_disputeID",
          "type": "uint256"
        },
        {
          "indexed": false,
          "internalType": "int256",
          "name": "_tokenAmount",
          "type": "int256"
        },
        {
          "indexed": false,
          "internalType": "int256",
          "name": "_ethAmount",
          "type": "int256"
        }
      ],
      "name": "TokenAndETHShift",
      "type": "event"
    },
    {
      "inputs": [],
      "name": "ALPHA_DIVISOR",
      "outputs": [
        {
          "internalType": "uint256",
          "name": "",
          "type": "uint256"
        }
      ],
      "stateMutability": "view",
      "type": "function"
    },
    {
      "inputs": [],
      "name": "DISPUTE_KIT_CLASSIC",
      "outputs": [
        {
          "internalType": "uint256",
          "name": "",
          "type": "uint256"
        }
      ],
      "stateMutability": "view",
      "type": "function"
    },
    {
      "inputs": [],
      "name": "FORKING_COURT",
      "outputs": [
        {
          "internalType": "uint96",
          "name": "",
          "type": "uint96"
        }
      ],
      "stateMutability": "view",
      "type": "function"
    },
    {
      "inputs": [],
      "name": "GENERAL_COURT",
      "outputs": [
        {
          "internalType": "uint96",
          "name": "",
          "type": "uint96"
        }
      ],
      "stateMutability": "view",
      "type": "function"
    },
    {
      "inputs": [],
      "name": "MAX_STAKE_PATHS",
      "outputs": [
        {
          "internalType": "uint256",
          "name": "",
          "type": "uint256"
        }
      ],
      "stateMutability": "view",
      "type": "function"
    },
    {
      "inputs": [],
      "name": "MIN_JURORS",
      "outputs": [
        {
          "internalType": "uint256",
          "name": "",
          "type": "uint256"
        }
      ],
      "stateMutability": "view",
      "type": "function"
    },
    {
      "inputs": [],
      "name": "NON_PAYABLE_AMOUNT",
      "outputs": [
        {
          "internalType": "uint256",
          "name": "",
          "type": "uint256"
        }
      ],
      "stateMutability": "view",
      "type": "function"
    },
    {
      "inputs": [],
      "name": "NULL_DISPUTE_KIT",
      "outputs": [
        {
          "internalType": "uint256",
          "name": "",
          "type": "uint256"
        }
      ],
      "stateMutability": "view",
      "type": "function"
    },
    {
      "inputs": [],
      "name": "SEARCH_ITERATIONS",
      "outputs": [
        {
          "internalType": "uint256",
          "name": "",
          "type": "uint256"
        }
      ],
      "stateMutability": "view",
      "type": "function"
    },
    {
      "inputs": [
        {
          "internalType": "contract IDisputeKit",
          "name": "_disputeKitAddress",
          "type": "address"
        },
        {
          "internalType": "uint256",
          "name": "_parent",
          "type": "uint256"
        }
      ],
      "name": "addNewDisputeKit",
      "outputs": [],
      "stateMutability": "nonpayable",
      "type": "function"
    },
    {
      "inputs": [
        {
          "internalType": "uint256",
          "name": "_disputeID",
          "type": "uint256"
        },
        {
          "internalType": "uint256",
          "name": "_numberOfChoices",
          "type": "uint256"
        },
        {
          "internalType": "bytes",
          "name": "_extraData",
          "type": "bytes"
        }
      ],
      "name": "appeal",
      "outputs": [],
      "stateMutability": "payable",
      "type": "function"
    },
    {
      "inputs": [
        {
          "internalType": "uint256",
          "name": "_disputeID",
          "type": "uint256"
        }
      ],
      "name": "appealCost",
      "outputs": [
        {
          "internalType": "uint256",
          "name": "cost",
          "type": "uint256"
        }
      ],
      "stateMutability": "view",
      "type": "function"
    },
    {
      "inputs": [
        {
          "internalType": "uint256",
          "name": "_disputeID",
          "type": "uint256"
        }
      ],
      "name": "appealPeriod",
      "outputs": [
        {
          "internalType": "uint256",
          "name": "start",
          "type": "uint256"
        },
        {
          "internalType": "uint256",
          "name": "end",
          "type": "uint256"
        }
      ],
      "stateMutability": "view",
      "type": "function"
    },
    {
      "inputs": [
        {
          "internalType": "bytes",
          "name": "_extraData",
          "type": "bytes"
        }
      ],
      "name": "arbitrationCost",
      "outputs": [
        {
          "internalType": "uint256",
          "name": "cost",
          "type": "uint256"
        }
      ],
      "stateMutability": "view",
      "type": "function"
    },
    {
      "inputs": [
        {
          "internalType": "address payable",
          "name": "_governor",
          "type": "address"
        }
      ],
      "name": "changeGovernor",
      "outputs": [],
      "stateMutability": "nonpayable",
      "type": "function"
    },
    {
      "inputs": [
        {
          "internalType": "address",
          "name": "_jurorProsecutionModule",
          "type": "address"
        }
      ],
      "name": "changeJurorProsecutionModule",
      "outputs": [],
      "stateMutability": "nonpayable",
      "type": "function"
    },
    {
      "inputs": [
        {
          "internalType": "uint256",
          "name": "_maxFreezingTime",
          "type": "uint256"
        }
      ],
      "name": "changeMaxFreezingTime",
      "outputs": [],
      "stateMutability": "nonpayable",
      "type": "function"
    },
    {
      "inputs": [
        {
          "internalType": "uint256",
          "name": "_minStakingTime",
          "type": "uint256"
        }
      ],
      "name": "changeMinStakingTime",
      "outputs": [],
      "stateMutability": "nonpayable",
      "type": "function"
    },
    {
      "inputs": [
        {
          "internalType": "contract IERC20",
          "name": "_pinakion",
          "type": "address"
        }
      ],
      "name": "changePinakion",
      "outputs": [],
      "stateMutability": "nonpayable",
      "type": "function"
    },
    {
      "inputs": [
        {
          "internalType": "uint96",
          "name": "_subcourtID",
          "type": "uint96"
        },
        {
          "internalType": "uint256",
          "name": "_alpha",
          "type": "uint256"
        }
      ],
      "name": "changeSubcourtAlpha",
      "outputs": [],
      "stateMutability": "nonpayable",
      "type": "function"
    },
    {
      "inputs": [
        {
          "internalType": "uint96",
          "name": "_subcourtID",
          "type": "uint96"
        },
        {
          "internalType": "bool",
          "name": "_hiddenVotes",
          "type": "bool"
        }
      ],
      "name": "changeSubcourtHiddenVotes",
      "outputs": [],
      "stateMutability": "nonpayable",
      "type": "function"
    },
    {
      "inputs": [
        {
          "internalType": "uint96",
          "name": "_subcourtID",
          "type": "uint96"
        },
        {
          "internalType": "uint256",
          "name": "_feeForJuror",
          "type": "uint256"
        }
      ],
      "name": "changeSubcourtJurorFee",
      "outputs": [],
      "stateMutability": "nonpayable",
      "type": "function"
    },
    {
      "inputs": [
        {
          "internalType": "uint96",
          "name": "_subcourtID",
          "type": "uint96"
        },
        {
          "internalType": "uint256",
          "name": "_jurorsForCourtJump",
          "type": "uint256"
        }
      ],
      "name": "changeSubcourtJurorsForJump",
      "outputs": [],
      "stateMutability": "nonpayable",
      "type": "function"
    },
    {
      "inputs": [
        {
          "internalType": "uint96",
          "name": "_subcourtID",
          "type": "uint96"
        },
        {
          "internalType": "uint256",
          "name": "_minStake",
          "type": "uint256"
        }
      ],
      "name": "changeSubcourtMinStake",
      "outputs": [],
      "stateMutability": "nonpayable",
      "type": "function"
    },
    {
      "inputs": [
        {
          "internalType": "uint96",
          "name": "_subcourtID",
          "type": "uint96"
        },
        {
          "internalType": "uint256[4]",
          "name": "_timesPerPeriod",
          "type": "uint256[4]"
        }
      ],
      "name": "changeSubcourtTimesPerPeriod",
      "outputs": [],
      "stateMutability": "nonpayable",
      "type": "function"
    },
    {
      "inputs": [
        {
          "internalType": "uint256",
          "name": "",
          "type": "uint256"
        }
      ],
      "name": "courts",
      "outputs": [
        {
          "internalType": "uint96",
          "name": "parent",
          "type": "uint96"
        },
        {
          "internalType": "bool",
          "name": "hiddenVotes",
          "type": "bool"
        },
        {
          "internalType": "uint256",
          "name": "minStake",
          "type": "uint256"
        },
        {
          "internalType": "uint256",
          "name": "alpha",
          "type": "uint256"
        },
        {
          "internalType": "uint256",
          "name": "feeForJuror",
          "type": "uint256"
        },
        {
          "internalType": "uint256",
          "name": "jurorsForCourtJump",
          "type": "uint256"
        }
      ],
      "stateMutability": "view",
      "type": "function"
    },
    {
      "inputs": [
        {
          "internalType": "uint256",
          "name": "_numberOfChoices",
          "type": "uint256"
        },
        {
          "internalType": "bytes",
          "name": "_extraData",
          "type": "bytes"
        }
      ],
      "name": "createDispute",
      "outputs": [
        {
          "internalType": "uint256",
          "name": "disputeID",
          "type": "uint256"
        }
      ],
      "stateMutability": "payable",
      "type": "function"
    },
    {
      "inputs": [
        {
          "internalType": "uint96",
          "name": "_parent",
          "type": "uint96"
        },
        {
          "internalType": "bool",
          "name": "_hiddenVotes",
          "type": "bool"
        },
        {
          "internalType": "uint256",
          "name": "_minStake",
          "type": "uint256"
        },
        {
          "internalType": "uint256",
          "name": "_alpha",
          "type": "uint256"
        },
        {
          "internalType": "uint256",
          "name": "_feeForJuror",
          "type": "uint256"
        },
        {
          "internalType": "uint256",
          "name": "_jurorsForCourtJump",
          "type": "uint256"
        },
        {
          "internalType": "uint256[4]",
          "name": "_timesPerPeriod",
          "type": "uint256[4]"
        },
        {
          "internalType": "uint256",
          "name": "_sortitionSumTreeK",
          "type": "uint256"
        },
        {
          "internalType": "uint256[]",
          "name": "_supportedDisputeKits",
          "type": "uint256[]"
        }
      ],
      "name": "createSubcourt",
      "outputs": [],
      "stateMutability": "nonpayable",
      "type": "function"
    },
    {
      "inputs": [
        {
          "internalType": "uint256",
          "name": "_disputeID",
          "type": "uint256"
        }
      ],
      "name": "currentRuling",
      "outputs": [
        {
          "internalType": "uint256",
          "name": "ruling",
          "type": "uint256"
        }
      ],
      "stateMutability": "view",
      "type": "function"
    },
    {
      "inputs": [],
      "name": "delayedStakeReadIndex",
      "outputs": [
        {
          "internalType": "uint256",
          "name": "",
          "type": "uint256"
        }
      ],
      "stateMutability": "view",
      "type": "function"
    },
    {
      "inputs": [],
      "name": "delayedStakeWriteIndex",
      "outputs": [
        {
          "internalType": "uint256",
          "name": "",
          "type": "uint256"
        }
      ],
      "stateMutability": "view",
      "type": "function"
    },
    {
      "inputs": [
        {
          "internalType": "uint256",
          "name": "",
          "type": "uint256"
        }
      ],
      "name": "delayedStakes",
      "outputs": [
        {
          "internalType": "address",
          "name": "account",
          "type": "address"
        },
        {
          "internalType": "uint96",
          "name": "subcourtID",
          "type": "uint96"
        },
        {
          "internalType": "uint256",
          "name": "stake",
          "type": "uint256"
        },
        {
          "internalType": "uint256",
          "name": "penalty",
          "type": "uint256"
        }
      ],
      "stateMutability": "view",
      "type": "function"
    },
    {
      "inputs": [
        {
          "internalType": "uint256",
          "name": "",
          "type": "uint256"
        }
      ],
      "name": "disputeKitNodes",
      "outputs": [
        {
          "internalType": "uint256",
          "name": "parent",
          "type": "uint256"
        },
        {
          "internalType": "contract IDisputeKit",
          "name": "disputeKit",
          "type": "address"
        },
        {
          "internalType": "bool",
          "name": "needsFreezing",
          "type": "bool"
        },
        {
          "internalType": "uint256",
          "name": "depthLevel",
          "type": "uint256"
        }
      ],
      "stateMutability": "view",
      "type": "function"
    },
    {
      "inputs": [
        {
          "internalType": "uint256",
          "name": "",
          "type": "uint256"
        }
      ],
      "name": "disputes",
      "outputs": [
        {
          "internalType": "uint96",
          "name": "subcourtID",
          "type": "uint96"
        },
        {
          "internalType": "contract IArbitrable",
          "name": "arbitrated",
          "type": "address"
        },
        {
          "internalType": "enum KlerosCore.Period",
          "name": "period",
          "type": "uint8"
        },
        {
          "internalType": "bool",
          "name": "ruled",
          "type": "bool"
        },
        {
          "internalType": "uint256",
          "name": "lastPeriodChange",
          "type": "uint256"
        }
      ],
      "stateMutability": "view",
      "type": "function"
    },
    {
      "inputs": [
        {
          "internalType": "uint256",
          "name": "",
          "type": "uint256"
        }
      ],
      "name": "disputesKitIDsThatNeedFreezing",
      "outputs": [
        {
          "internalType": "uint256",
          "name": "",
          "type": "uint256"
        }
      ],
      "stateMutability": "view",
      "type": "function"
    },
    {
      "inputs": [
        {
          "internalType": "uint256",
          "name": "_disputeID",
          "type": "uint256"
        },
        {
          "internalType": "uint256",
          "name": "_iterations",
          "type": "uint256"
        }
      ],
      "name": "draw",
      "outputs": [],
      "stateMutability": "nonpayable",
      "type": "function"
    },
    {
      "inputs": [
        {
          "internalType": "uint96",
          "name": "_subcourtID",
          "type": "uint96"
        },
        {
          "internalType": "uint256[]",
          "name": "_disputeKitIDs",
          "type": "uint256[]"
        },
        {
          "internalType": "bool",
          "name": "_enable",
          "type": "bool"
        }
      ],
      "name": "enableDisputeKits",
      "outputs": [],
      "stateMutability": "nonpayable",
      "type": "function"
    },
    {
      "inputs": [
        {
          "internalType": "uint256",
          "name": "_disputeID",
          "type": "uint256"
        },
        {
          "internalType": "uint256",
          "name": "_round",
          "type": "uint256"
        },
        {
          "internalType": "uint256",
          "name": "_iterations",
          "type": "uint256"
        }
      ],
      "name": "execute",
      "outputs": [],
      "stateMutability": "nonpayable",
      "type": "function"
    },
    {
      "inputs": [
        {
          "internalType": "uint256",
          "name": "_iterations",
          "type": "uint256"
        }
      ],
      "name": "executeDelayedStakes",
      "outputs": [],
      "stateMutability": "nonpayable",
      "type": "function"
    },
    {
      "inputs": [
        {
          "internalType": "address",
          "name": "_destination",
          "type": "address"
        },
        {
          "internalType": "uint256",
          "name": "_amount",
          "type": "uint256"
        },
        {
          "internalType": "bytes",
          "name": "_data",
          "type": "bytes"
        }
      ],
      "name": "executeGovernorProposal",
      "outputs": [],
      "stateMutability": "nonpayable",
      "type": "function"
    },
    {
      "inputs": [
        {
          "internalType": "uint256",
          "name": "_disputeID",
          "type": "uint256"
        }
      ],
      "name": "executeRuling",
      "outputs": [],
      "stateMutability": "nonpayable",
      "type": "function"
    },
    {
      "inputs": [],
      "name": "freezeBlock",
      "outputs": [
        {
          "internalType": "uint256",
          "name": "",
          "type": "uint256"
        }
      ],
      "stateMutability": "view",
      "type": "function"
    },
    {
      "inputs": [],
      "name": "freezingPhaseTimeout",
      "outputs": [
        {
          "internalType": "bool",
          "name": "",
          "type": "bool"
        }
      ],
      "stateMutability": "view",
      "type": "function"
    },
    {
      "inputs": [
        {
          "internalType": "uint256",
          "name": "_disputeKitID",
          "type": "uint256"
        }
      ],
      "name": "getDisputeKitChildren",
      "outputs": [
        {
          "internalType": "uint256[]",
          "name": "",
          "type": "uint256[]"
        }
      ],
      "stateMutability": "view",
      "type": "function"
    },
    {
      "inputs": [],
      "name": "getDisputesKitIDsThatNeedFreezing",
      "outputs": [
        {
          "internalType": "uint256[]",
          "name": "",
          "type": "uint256[]"
        }
      ],
      "stateMutability": "view",
      "type": "function"
    },
    {
      "inputs": [
        {
          "internalType": "address",
          "name": "_juror",
          "type": "address"
        },
        {
          "internalType": "uint96",
          "name": "_subcourtID",
          "type": "uint96"
        }
      ],
      "name": "getJurorBalance",
      "outputs": [
        {
          "internalType": "uint256",
          "name": "staked",
          "type": "uint256"
        },
        {
          "internalType": "uint256",
          "name": "locked",
          "type": "uint256"
        }
      ],
      "stateMutability": "view",
      "type": "function"
    },
    {
      "inputs": [
        {
          "internalType": "address",
          "name": "_juror",
          "type": "address"
        }
      ],
      "name": "getJurorSubcourtIDs",
      "outputs": [
        {
          "internalType": "uint96[]",
          "name": "",
          "type": "uint96[]"
        }
      ],
      "stateMutability": "view",
      "type": "function"
    },
    {
      "inputs": [
        {
          "internalType": "uint256",
          "name": "_disputeID",
          "type": "uint256"
        }
      ],
      "name": "getLastRoundResult",
      "outputs": [
        {
          "internalType": "uint256",
          "name": "winningChoice",
          "type": "uint256"
        },
        {
          "internalType": "bool",
          "name": "tied",
          "type": "bool"
        }
      ],
      "stateMutability": "view",
      "type": "function"
    },
    {
      "inputs": [
        {
          "internalType": "uint256",
          "name": "_disputeID",
          "type": "uint256"
        }
      ],
      "name": "getNumberOfRounds",
      "outputs": [
        {
          "internalType": "uint256",
          "name": "",
          "type": "uint256"
        }
      ],
      "stateMutability": "view",
      "type": "function"
    },
    {
      "inputs": [
        {
          "internalType": "uint256",
          "name": "_disputeID",
          "type": "uint256"
        }
      ],
      "name": "getNumberOfVotes",
      "outputs": [
        {
          "internalType": "uint256",
          "name": "",
          "type": "uint256"
        }
      ],
      "stateMutability": "view",
      "type": "function"
    },
    {
      "inputs": [
        {
          "internalType": "uint256",
          "name": "_disputeID",
          "type": "uint256"
        },
        {
          "internalType": "uint256",
          "name": "_round",
          "type": "uint256"
        }
      ],
      "name": "getRoundInfo",
      "outputs": [
        {
          "internalType": "uint256",
          "name": "tokensAtStakePerJuror",
          "type": "uint256"
        },
        {
          "internalType": "uint256",
          "name": "totalFeesForJurors",
          "type": "uint256"
        },
        {
          "internalType": "uint256",
          "name": "repartitions",
          "type": "uint256"
        },
        {
          "internalType": "uint256",
          "name": "penalties",
          "type": "uint256"
        },
        {
          "internalType": "address[]",
          "name": "drawnJurors",
          "type": "address[]"
        },
        {
          "internalType": "uint256",
          "name": "disputeKitID",
          "type": "uint256"
        }
      ],
      "stateMutability": "view",
      "type": "function"
    },
    {
      "inputs": [
        {
          "internalType": "bytes32",
          "name": "_key",
          "type": "bytes32"
        },
        {
          "internalType": "uint256",
          "name": "_nodeIndex",
          "type": "uint256"
        }
      ],
      "name": "getSortitionSumTree",
      "outputs": [
        {
          "internalType": "uint256",
          "name": "K",
          "type": "uint256"
        },
        {
          "internalType": "uint256",
          "name": "length",
          "type": "uint256"
        },
        {
          "internalType": "bytes32",
          "name": "ID",
          "type": "bytes32"
        }
      ],
      "stateMutability": "view",
      "type": "function"
    },
    {
      "inputs": [
        {
          "internalType": "bytes32",
          "name": "_key",
          "type": "bytes32"
        },
        {
          "internalType": "uint256",
          "name": "_index",
          "type": "uint256"
        }
      ],
      "name": "getSortitionSumTreeNode",
      "outputs": [
        {
          "internalType": "uint256",
          "name": "",
          "type": "uint256"
        }
      ],
      "stateMutability": "view",
      "type": "function"
    },
    {
      "inputs": [
        {
          "internalType": "uint96",
          "name": "_subcourtID",
          "type": "uint96"
        }
      ],
      "name": "getTimesPerPeriod",
      "outputs": [
        {
          "internalType": "uint256[4]",
          "name": "timesPerPeriod",
          "type": "uint256[4]"
        }
      ],
      "stateMutability": "view",
      "type": "function"
    },
    {
      "inputs": [],
      "name": "governor",
      "outputs": [
        {
          "internalType": "address",
          "name": "",
          "type": "address"
        }
      ],
      "stateMutability": "view",
      "type": "function"
    },
    {
      "inputs": [
        {
          "internalType": "uint256",
          "name": "_disputeID",
          "type": "uint256"
        }
      ],
      "name": "isDisputeKitJumping",
      "outputs": [
        {
          "internalType": "bool",
          "name": "",
          "type": "bool"
        }
      ],
      "stateMutability": "view",
      "type": "function"
    },
    {
      "inputs": [
        {
          "internalType": "uint96",
          "name": "_subcourtID",
          "type": "uint96"
        },
        {
          "internalType": "uint256",
          "name": "_disputeKitID",
          "type": "uint256"
        }
      ],
      "name": "isSupported",
      "outputs": [
        {
          "internalType": "bool",
          "name": "",
          "type": "bool"
        }
      ],
      "stateMutability": "view",
      "type": "function"
    },
    {
      "inputs": [],
      "name": "jurorProsecutionModule",
      "outputs": [
        {
          "internalType": "address",
          "name": "",
          "type": "address"
        }
      ],
      "stateMutability": "view",
      "type": "function"
    },
    {
      "inputs": [],
      "name": "lastPhaseChange",
      "outputs": [
        {
          "internalType": "uint256",
          "name": "",
          "type": "uint256"
        }
      ],
      "stateMutability": "view",
      "type": "function"
    },
    {
      "inputs": [],
      "name": "maxFreezingTime",
      "outputs": [
        {
          "internalType": "uint256",
          "name": "",
          "type": "uint256"
        }
      ],
      "stateMutability": "view",
      "type": "function"
    },
    {
      "inputs": [],
      "name": "minStakingTime",
      "outputs": [
        {
          "internalType": "uint256",
          "name": "",
          "type": "uint256"
        }
      ],
      "stateMutability": "view",
      "type": "function"
    },
    {
      "inputs": [
        {
          "internalType": "uint256",
          "name": "_disputeID",
          "type": "uint256"
        }
      ],
      "name": "passPeriod",
      "outputs": [],
      "stateMutability": "nonpayable",
      "type": "function"
    },
    {
      "inputs": [],
      "name": "passPhase",
      "outputs": [],
      "stateMutability": "nonpayable",
      "type": "function"
    },
    {
      "inputs": [],
      "name": "phase",
      "outputs": [
        {
          "internalType": "enum KlerosCore.Phase",
          "name": "",
          "type": "uint8"
        }
      ],
      "stateMutability": "view",
      "type": "function"
    },
    {
      "inputs": [],
      "name": "pinakion",
      "outputs": [
        {
          "internalType": "contract IERC20",
          "name": "",
          "type": "address"
        }
      ],
      "stateMutability": "view",
      "type": "function"
    },
    {
      "inputs": [
        {
          "internalType": "uint96",
          "name": "_subcourtID",
          "type": "uint96"
        },
        {
          "internalType": "uint256",
          "name": "_stake",
          "type": "uint256"
        }
      ],
      "name": "setStake",
      "outputs": [],
      "stateMutability": "nonpayable",
      "type": "function"
    }
  ],
  "transactionHash": "0xc5d79bc617c5e51851983f901bcb9a472f7f7a3035f04af9c8b2a774a36e1f0e",
  "args": [
    "0xF50E77f2A2B6138D16c6c7511562E5C33c4B15A3",
    "0x4DEeeFD054434bf6721eF39Aa18EfB3fd0D12610",
    "0x0000000000000000000000000000000000000000",
    "0x34E520dc1d2Db660113b64724e14CEdCD01Ee879",
    [
      1800,
      1800
    ],
    false,
    [
      "200000000000000000000",
      10000,
      "100000000000000000",
      3
    ],
    [
      0,
      0,
      0,
      0
    ],
    3
  ],
  "numDeployments": 1,
  "solcInputHash": "793c53c92f8e09c2ccb461edfa545436",
  "bytecode": "0x60806040526001600f553480156200001657600080fd5b506040516200675d3803806200675d8339810160408190526200003991620005d3565b600080546001600160a01b038b81166001600160a01b0319928316178355600180548c831690841617815560028054928c1692909316919091179091558651600355602080880151600455426005556008805490920182558183526040805160a08101825284815281518581528084019092529293918301915081526001600160a01b0389166020808301919091526000604083018190526060909201829052835460018181018655948352918190208351600490930201918255828101518051939492936200011193850192919091019062000458565b5060408281015160028301805460608601511515600160a01b026001600160a81b03199091166001600160a01b0393841617179055608090930151600390920191909155516000918816906001907f7921860794ac14fda09ee75f7160a5a3d266e3352f7954d0401606a92a26c498908490a4600780546001018155600090815260405163483abc4f60e11b8152600c60048201526024810191909152604481018290527340a78989317B953e427B3BD87C59eA003fcC229690639075789e9060640160006040518083038186803b158015620001ed57600080fd5b505af415801562000202573d6000803e3d6000fd5b5050600780546001810182556000918252600b027fa66cc928b5edb82af9bd49922954155ab7b0942694bea4ce44661d9a8736c6880180546001600160601b0319168155604080518381526020810190915290935091505080516200027291600184019160209091019062000458565b50805460ff60601b19166c01000000000000000000000000861515021781558351600282015560208401516003820155604084015160048083019190915560608501516005830155620002cc9060068301908590620004a8565b5060405163483abc4f60e11b8152600c600482015260016024820152604481018390527340a78989317B953e427B3BD87C59eA003fcC229690639075789e9060640160006040518083038186803b1580156200032757600080fd5b505af41580156200033c573d6000803e3d6000fd5b5050825486516020808901516040808b015160608c0151825160008152948501928390526001600160601b039096169750600196507f2e689e2ae8e3c8e02797c3ff9998e8297e587a74bc6d0e48b6b5991f70991d1c95620003a7958e959094938d918d91620006eb565b60405180910390a3620003bd60018080620003cd565b5050505050505050505062000790565b806007846001600160601b031681548110620003ed57620003ed620006d5565b60009182526020808320868452600b92909202909101600a0190526040808220805460ff19169315159390931790925590518215159184916001600160601b038716917fb47629acdf64971062d40984f77d3dee212d735b11e3e8c7a4222d9f0572cc7991a4505050565b82805482825590600052602060002090810192821562000496579160200282015b828111156200049657825182559160200191906001019062000479565b50620004a4929150620004d8565b5090565b82600481019282156200049657916020028201828111156200049657825182559160200191906001019062000479565b5b80821115620004a45760008155600101620004d9565b6001600160a01b03811681146200050557600080fd5b50565b634e487b7160e01b600052604160045260246000fd5b604080519081016001600160401b038111828210171562000543576200054362000508565b60405290565b805180151581146200055a57600080fd5b919050565b600082601f8301126200057157600080fd5b604051608081016001600160401b038111828210171562000596576200059662000508565b604052806080840185811115620005ac57600080fd5b845b81811015620005c8578051835260209283019201620005ae565b509195945050505050565b60008060008060008060008060006102008a8c031215620005f357600080fd5b89516200060081620004ef565b809950506020808b01516200061581620004ef565b60408c01519099506200062881620004ef565b60608c01519098506200063b81620004ef565b9650609f8b018c136200064d57600080fd5b620006576200051e565b8060c08d018e8111156200066a57600080fd5b60808e015b818110156200068857805184529284019284016200066f565b50819850620006978162000549565b975050505050620006ac8b60e08c016200055f565b9250620006be8b6101608c016200055f565b91506101e08a015190509295985092959850929598565b634e487b7160e01b600052603260045260246000fd5b60006101608083018b1515845260208b818601528a604086015289606086015288608086015260a085018860005b6004811015620007385781518352918301919083019060010162000719565b50505061012085018790526101408501929092528451908190526101808401918086019160005b818110156200077d578351855293820193928201926001016200075f565b50929d9c50505050505050505050505050565b615fbd80620007a06000396000f3fe6080604052600436106103585760003560e01c8063840bc19c116101bd578063c057eca7116100f8578063d8b03fd81161009b578063d8b03fd814610b7e578063e4c0aaf414610b93578063eaff425a14610bb3578063f12ada8b14610bc8578063f6b4d82d14610be8578063f7434ea914610c71578063fbf405b014610c91578063fc6f8f1614610cb1578063fe524c3914610cd157600080fd5b8063c057eca714610a64578063c13517e114610a7a578063c258bb1914610a8d578063c356990214610aad578063c71f425314610ac0578063cf0c38f814610ae0578063d1c1df4814610b00578063d2b8035a14610b5e57600080fd5b8063afe15cfb11610160578063afe15cfb14610927578063b1c9fe6e1461095c578063b2866af71461098a578063b31b4540146109aa578063b4a61608146109c0578063b70c4e94146109d5578063b888adfa146109ea578063bfabfe8f14610a0057600080fd5b8063840bc19c146107f85780638980e420146108135780638a9bb02a146108405780638bb04875146108725780638edf4741146108925780639b05c261146108b2578063a079e73f146108e7578063a57366e71461090757600080fd5b806334d5fb3111610298578063572603641161023b57806357260364146106ee57806359354c771461070e57806359ec827e1461072e5780635bc24dd31461074e5780636235593f1461076e5780636c1eb1b914610783578063751accd0146107985780637717a6e8146107b8578063823cfd70146107d857600080fd5b806334d5fb31146105e257806335975f4a146105f75780633a157860146106175780633cfd11841461062d5780633e1d09be1461065a57806343d4137f1461067a578063564a565d146106a757806356acb050146106d857600080fd5b806319b815291161030057806319b81529146104985780631c3db16d146104c85780631f5a0dd2146104e857806327e6ec8a1461053f5780632922d6041461056c5780632b6a63f11461058c5780632d29a47b146105ac5780632ea7b4d0146105cc57600080fd5b8062f5822c1461035d5780630b274f2e1461037f5780630b7414bc146103945780630c340a24146103b45780630d1b9d1a146103f15780630d83b9401461043f5780630e083ec914610462578063115d537614610478575b600080fd5b34801561036957600080fd5b5061037d61037836600461548c565b610cf1565b005b34801561038b57600080fd5b5061037d610d46565b3480156103a057600080fd5b5061037d6103af36600461559f565b6112ce565b3480156103c057600080fd5b506000546103d4906001600160a01b031681565b6040516001600160a01b0390911681526020015b60405180910390f35b3480156103fd57600080fd5b5061041161040c366004615600565b6114a4565b604080519485526001600160a01b0390931660208501529015159183019190915260608201526080016103e8565b34801561044b57600080fd5b50610454600181565b6040519081526020016103e8565b34801561046e57600080fd5b50610454600e5481565b34801561048457600080fd5b5061037d610493366004615600565b6114ed565b3480156104a457600080fd5b506104b86104b3366004615600565b611b47565b60405190151581526020016103e8565b3480156104d457600080fd5b506104546104e3366004615600565b611c3e565b3480156104f457600080fd5b50610508610503366004615600565b611d49565b604080516001600160601b0390971687529415156020870152938501929092526060840152608083015260a082015260c0016103e8565b34801561054b57600080fd5b50610554600081565b6040516001600160601b0390911681526020016103e8565b34801561057857600080fd5b50610454610587366004615619565b611da0565b34801561059857600080fd5b5061037d6105a73660046156a8565b611dd7565b3480156105b857600080fd5b5061037d6105c736600461574b565b61216f565b3480156105d857600080fd5b5061045461271081565b3480156105ee57600080fd5b50610554600181565b34801561060357600080fd5b5061037d610612366004615600565b6129b2565b34801561062357600080fd5b5061045460065481565b34801561063957600080fd5b5061064d610648366004615777565b612aef565b6040516103e891906157b5565b34801561066657600080fd5b5061037d6106753660046157c3565b612b60565b34801561068657600080fd5b5061069a610695366004615600565b612d72565b6040516103e89190615828565b3480156106b357600080fd5b506106c76106c2366004615600565b612dee565b6040516103e8959493929190615865565b3480156106e457600080fd5b50610454600f5481565b3480156106fa57600080fd5b5061037d6107093660046158a4565b612e4a565b34801561071a57600080fd5b5061037d6107293660046157c3565b612ef9565b34801561073a57600080fd5b50610454610749366004615600565b612f9a565b34801561075a57600080fd5b5061037d6107693660046157c3565b6130ea565b34801561077a57600080fd5b50610454600081565b34801561078f57600080fd5b50610454600a81565b3480156107a457600080fd5b5061037d6107b3366004615947565b613185565b3480156107c457600080fd5b5061037d6107d33660046157c3565b613257565b3480156107e457600080fd5b5061037d6107f3366004615600565b6132a5565b34801561080457600080fd5b506104546001600160ff1b0381565b34801561081f57600080fd5b5061083361082e36600461548c565b6132d4565b6040516103e8919061599f565b34801561084c57600080fd5b5061086061085b366004615619565b613370565b6040516103e8969594939291906159ec565b34801561087e57600080fd5b5061037d61088d366004615600565b613450565b34801561089e57600080fd5b506104546108ad366004615600565b61358f565b3480156108be57600080fd5b506108d26108cd366004615600565b6135b0565b604080519283529015156020830152016103e8565b3480156108f357600080fd5b5061037d610902366004615a61565b6136ba565b34801561091357600080fd5b5061037d6109223660046157c3565b61376e565b34801561093357600080fd5b50610947610942366004615600565b613816565b604080519283526020830191909152016103e8565b34801561096857600080fd5b5060025461097d90600160a01b900460ff1681565b6040516103e89190615a98565b34801561099657600080fd5b5061037d6109a5366004615600565b6138c3565b3480156109b657600080fd5b5061045460045481565b3480156109cc57600080fd5b50610454600481565b3480156109e157600080fd5b506104b86138f2565b3480156109f657600080fd5b5061045460055481565b348015610a0c57600080fd5b50610a49610a1b366004615619565b6000918252600c60209081526040808420805460028201549486526004909101909252909220549192909190565b604080519384526020840192909252908201526060016103e8565b348015610a7057600080fd5b5061045460035481565b610454610a88366004615ab2565b613934565b348015610a9957600080fd5b5061037d610aa836600461548c565b613cb6565b61037d610abb366004615af8565b613d02565b348015610acc57600080fd5b50610454610adb366004615600565b614380565b348015610aec57600080fd5b506002546103d4906001600160a01b031681565b348015610b0c57600080fd5b50610947610b1b366004615b31565b6001600160a01b03919091166000908152600b602090815260408083206001600160601b0390941683526001840182528083205460029094019091529020549091565b348015610b6a57600080fd5b5061037d610b79366004615619565b6143e8565b348015610b8a57600080fd5b5061069a6146e9565b348015610b9f57600080fd5b5061037d610bae36600461548c565b614741565b348015610bbf57600080fd5b50610454600381565b348015610bd457600080fd5b5061037d610be3366004615b5d565b61478d565b348015610bf457600080fd5b50610c3f610c03366004615600565b600d602052600090815260409020805460018201546002909201546001600160a01b03821692600160a01b9092046001600160601b0316919084565b604080516001600160a01b0390951685526001600160601b0390931660208501529183015260608201526080016103e8565b348015610c7d57600080fd5b50610454610c8c366004615b7b565b6149e6565b348015610c9d57600080fd5b506001546103d4906001600160a01b031681565b348015610cbd57600080fd5b50610454610ccc366004615600565b614a3a565b348015610cdd57600080fd5b506104b8610cec3660046157c3565b614a69565b6000546001600160a01b03163314610d245760405162461bcd60e51b8152600401610d1b90615baf565b60405180910390fd5b600180546001600160a01b0319166001600160a01b0392909216919091179055565b6000600254600160a01b900460ff166001811115610d6657610d6661583b565b1415610e2857600354600554610d7c9042615bec565b1015610dc65760405162461bcd60e51b8152602060048201526019602482015278135a5b94dd185ada5b99d51a5b59481b9bdd081c185cdcd959603a1b6044820152606401610d1b565b600954610e0c5760405162461bcd60e51b81526020600482015260146024820152734e6f20444b206e6565647320667265657a696e6760601b6044820152606401610d1b565b6002805460ff60a01b1916600160a01b17905543600655611283565b6000306001600160a01b031663b70c4e946040518163ffffffff1660e01b815260040160206040518083038186803b158015610e6357600080fd5b505afa158015610e77573d6000803e3d6000fd5b505050506040513d601f19601f82011682018060405250810190610e9b9190615c03565b600954909150600090610eb090600190615c20565b90505b6000811261127357600060098281548110610ed057610ed0615c5f565b906000526020600020015490506000600860098481548110610ef457610ef4615c5f565b906000526020600020015481548110610f0f57610f0f615c5f565b60009182526020909120600260049092020101546001600160a01b03169050838015610fa95750806001600160a01b031663c86ed8926040518163ffffffff1660e01b815260040160206040518083038186803b158015610f6f57600080fd5b505afa158015610f83573d6000803e3d6000fd5b505050506040513d601f19601f82011682018060405250810190610fa79190615c03565b155b1561109357806001600160a01b0316630b274f2e6040518163ffffffff1660e01b8152600401600060405180830381600087803b158015610fe957600080fd5b505af1158015610ffd573d6000803e3d6000fd5b50505050806001600160a01b031663c86ed8926040518163ffffffff1660e01b815260040160206040518083038186803b15801561103a57600080fd5b505afa15801561104e573d6000803e3d6000fd5b505050506040513d601f19601f820116820180604052508101906110729190615c03565b61108e5760405162461bcd60e51b8152600401610d1b90615c75565b611260565b806001600160a01b031663c86ed8926040518163ffffffff1660e01b815260040160206040518083038186803b1580156110cc57600080fd5b505afa1580156110e0573d6000803e3d6000fd5b505050506040513d601f19601f820116820180604052508101906111049190615c03565b6111205760405162461bcd60e51b8152600401610d1b90615c75565b806001600160a01b031663034327446040518163ffffffff1660e01b815260040160206040518083038186803b15801561115957600080fd5b505afa15801561116d573d6000803e3d6000fd5b505050506040513d601f19601f820116820180604052508101906111919190615cac565b611260576000600883815481106111aa576111aa615c5f565b600091825260209091206002600490920201018054911515600160a01b0260ff60a01b199092169190911790556009546111e690600190615c20565b83121561123857600980546111fd90600190615bec565b8154811061120d5761120d615c5f565b90600052602060002001546009848154811061122b5761122b615c5f565b6000918252602090912001555b600980548061124957611249615cc5565b600190038181906000526020600020016000905590555b50508061126c90615cdb565b9050610eb3565b50506002805460ff60a01b191690555b426005556002546040517f31f72b44f546d9e7eaec13f65636997665e15f134a81c82924f568f5c0d07b93916112c491600160a01b90910460ff1690615a98565b60405180910390a1565b6000546001600160a01b031633146112f85760405162461bcd60e51b8152600401610d1b90615baf565b60006007846001600160601b03168154811061131657611316615c5f565b90600052602060002090600b0201905060005b835181101561149d5782156113c357600084828151811061134c5761134c615c5f565b602002602001015111801561137d5750600854845185908390811061137357611373615c5f565b6020026020010151105b6113995760405162461bcd60e51b8152600401610d1b90615cf9565b6113be858583815181106113af576113af615c5f565b60200260200101516001614ab1565b61148b565b6001600160601b03851660011480156114195750600060088583815181106113ed576113ed615c5f565b60200260200101518154811061140557611405615c5f565b906000526020600020906004020160000154145b156114665760405162461bcd60e51b815260206004820181905260248201527f43616e27742064697361626c6520526f6f7420444b20696e2047656e6572616c6044820152606401610d1b565b61148b8585838151811061147c5761147c615c5f565b60200260200101516000614ab1565b8061149581615d21565b915050611329565b5050505050565b600881815481106114b457600080fd5b60009182526020909120600490910201805460028201546003909201549092506001600160a01b03821691600160a01b900460ff169084565b6000600a828154811061150257611502615c5f565b600091825260208220600490910201805460078054929450916001600160601b0390911690811061153557611535615c5f565b6000918252602082206003850154600b90920201925061155790600190615bec565b9050600083600301828154811061157057611570615c5f565b6000918252602082206007909102019150600185015460ff16600481111561159a5761159a61583b565b14156116cd5760008211806115ec57506001840154600684019060ff1660048111156115c8576115c861583b565b600481106115d8576115d8615c5f565b015460028501546115e99042615bec565b10155b6116385760405162461bcd60e51b815260206004820152601e60248201527f45766964656e6365206e6f7420706173736564202626202141707065616c00006044820152606401610d1b565b60038101546006820154146116875760405162461bcd60e51b815260206004820152601560248201527444697370757465207374696c6c2064726177696e6760581b6044820152606401610d1b565b8254600160601b900460ff1661169e5760026116a1565b60015b60018086018054909160ff19909116908360048111156116c3576116c361583b565b0217905550611af9565b60018085015460ff1660048111156116e7576116e761583b565b1415611833576001840154600684019060ff16600481111561170b5761170b61583b565b6004811061171b5761171b615c5f565b0154600285015461172c9042615bec565b1015806117d55750600881600001548154811061174b5761174b615c5f565b6000918252602090912060049182020160020154604051630baa64d160e01b81529182018790526001600160a01b031690630baa64d19060240160206040518083038186803b15801561179d57600080fd5b505afa1580156117b1573d6000803e3d6000fd5b505050506040513d601f19601f820116820180604052508101906117d59190615c03565b61181c5760405162461bcd60e51b815260206004820152601860248201527710dbdb5b5a5d081c195c9a5bd9081b9bdd081c185cdcd95960421b6044820152606401610d1b565b6001808501805460029260ff1990911690836116c3565b6002600185015460ff16600481111561184e5761184e61583b565b14156119d6576001840154600684019060ff1660048111156118725761187261583b565b6004811061188257611882615c5f565b015460028501546118939042615bec565b10158061193c575060088160000154815481106118b2576118b2615c5f565b60009182526020909120600491820201600201546040516336a66c7560e11b81529182018790526001600160a01b031690636d4cd8ea9060240160206040518083038186803b15801561190457600080fd5b505afa158015611918573d6000803e3d6000fd5b505050506040513d601f19601f8201168201806040525081019061193c9190615c03565b6119815760405162461bcd60e51b8152602060048201526016602482015275159bdd19481c195c9a5bd9081b9bdd081c185cdcd95960521b6044820152606401610d1b565b600184018054600360ff199091161790558354604051600160601b9091046001600160a01b03169086907fa5d41b970d849372be1da1481ffd78d162bfe57a7aa2fe4e5fb73481fa5ac24f90600090a3611af9565b6003600185015460ff1660048111156119f1576119f161583b565b1415611a96576001840154600684019060ff166004811115611a1557611a1561583b565b60048110611a2557611a25615c5f565b01546002850154611a369042615bec565b1015611a7f5760405162461bcd60e51b8152602060048201526018602482015277105c1c19585b081c195c9a5bd9081b9bdd081c185cdcd95960421b6044820152606401610d1b565b6001808501805460049260ff1990911690836116c3565b6004600185015460ff166004811115611ab157611ab161583b565b1415611af95760405162461bcd60e51b8152602060048201526017602482015276111a5cdc1d5d19481c195c9a5bd9081a5cc8199a5b985b604a1b6044820152606401610d1b565b426002850155600184015460405186917f4e6f5cf43b95303e86aee81683df63992061723a829ee012db21dad388756b9191611b389160ff1690615d3c565b60405180910390a25050505050565b600080600a8381548110611b5d57611b5d615c5f565b6000918252602082206003600490920201908101805491935090611b8390600190615bec565b81548110611b9357611b93615c5f565b600091825260208220845460078054938102909201945090916001600160601b03909116908110611bc657611bc6615c5f565b90600052602060002090600b02019050806005015482600301541015611bf157506000949350505050565b80546007805490916001600160601b0316908110611c1157611c11615c5f565b6000918252602080832094548352600a600b9092029094010190925250604090205460ff16159392505050565b600080600a8381548110611c5457611c54615c5f565b6000918252602082206003600490920201908101805491935090611c7a90600190615bec565b81548110611c8a57611c8a615c5f565b9060005260206000209060070201905060006008826000015481548110611cb357611cb3615c5f565b6000918252602090912060049182020160020154604051631c3db16d60e01b81529182018790526001600160a01b031691508190631c3db16d9060240160206040518083038186803b158015611d0857600080fd5b505afa158015611d1c573d6000803e3d6000fd5b505050506040513d601f19601f82011682018060405250810190611d409190615cac565b95945050505050565b60078181548110611d5957600080fd5b60009182526020909120600b9091020180546002820154600383015460048401546005909401546001600160601b0384169550600160601b90930460ff1693919290919086565b6000828152600c60205260408120600201805483908110611dc357611dc3615c5f565b906000526020600020015490505b92915050565b6000546001600160a01b03163314611e015760405162461bcd60e51b8152600401610d1b90615baf565b8660078a6001600160601b031681548110611e1e57611e1e615c5f565b90600052602060002090600b0201600201541115611e4e5760405162461bcd60e51b8152600401610d1b90615d4a565b6000815111611e8f5760405162461bcd60e51b815260206004820152600d60248201526c21537570706f7274656420444b60981b6044820152606401610d1b565b6001600160601b038916611ee55760405162461bcd60e51b815260206004820181905260248201527f496e76616c69643a20466f726b696e6720636f75727420617320706172656e746044820152606401610d1b565b60078054600181018255600091825290600b82027fa66cc928b5edb82af9bd49922954155ab7b0942694bea4ce44661d9a8736c68801905b8351811015611fe1576000848281518110611f3a57611f3a615c5f565b6020026020010151118015611f6b57506008548451859083908110611f6157611f61615c5f565b6020026020010151105b611f875760405162461bcd60e51b8152600401610d1b90615cf9565b600182600a016000868481518110611fa157611fa1615c5f565b6020026020010151815260200190815260200160002060006101000a81548160ff0219169083151502179055508080611fd990615d21565b915050611f1d565b5080546001600160601b0319166001600160601b038c16178155604080516000815260208101918290525161201a9160018401916153c9565b50805460ff60601b1916600160601b8b151502178155600281018990556003810188905560048082018890556005820187905561205d9060068301908790615414565b5060405163483abc4f60e11b8152600c600482015260248101839052604481018590527340a78989317B953e427B3BD87C59eA003fcC229690639075789e9060640160006040518083038186803b1580156120b757600080fd5b505af41580156120cb573d6000803e3d6000fd5b5050505060078b6001600160601b0316815481106120eb576120eb615c5f565b600091825260208083206001600b909302018201805492830181558352909120018290556040516001600160601b038c169083907f2e689e2ae8e3c8e02797c3ff9998e8297e587a74bc6d0e48b6b5991f70991d1c9061215a908e908e908e908e908e908e908e908e90615d7f565b60405180910390a35050505050505050505050565b6000600a848154811061218457612184615c5f565b600091825260209091206004918202019150600182015460ff1660048111156121af576121af61583b565b146121cc5760405162461bcd60e51b8152600401610d1b90615dd7565b60008160030184815481106121e3576121e3615c5f565b906000526020600020906007020190506000600882600001548154811061220c5761220c615c5f565b60009182526020822060049182020160020154908401546001600160a01b03909116925061223b908690615e02565b6005840154600685015460405163368efae360e21b8152600481018b9052602481018a905292935090916000906001600160a01b0386169063da3beb8c9060440160206040518083038186803b15801561229457600080fd5b505afa1580156122a8573d6000803e3d6000fd5b505050506040513d601f19601f820116820180604052508101906122cc9190615cac565b9050600080826122e757838611156122e2578395505b612307565b6122f2846002615e1a565b86111561230757612304846002615e1a565b95505b60048801545b8681101561298c578481101561270157604051634fe264fb60e01b8152600481018e9052602481018d9052604481018290526001600160a01b03891690634fe264fb9060640160206040518083038186803b15801561236b57600080fd5b505afa15801561237f573d6000803e3d6000fd5b505050506040513d601f19601f820116820180604052508101906123a39190615cac565b91506127108211156123b55761271091505b60006127106123c48482615bec565b8b600101546123d39190615e1a565b6123dd9190615e4f565b90506123e98188615e02565b965089600601828154811061240057612400615c5f565b60009182526020808320909101546001600160a01b0316808352600b825260408084208f546001600160601b0316855260020190925290822080549196508392909161244d908490615bec565b90915550508a546007805483926001600160601b031690811061247257612472615c5f565b90600052602060002090600b02016002015461248e9190615e02565b6001600160a01b0385166000908152600b602090815260408083208f546001600160601b0316845260010190915290205410612522576001600160a01b0384166000908152600b602090815260408083208e546001600160601b03168452600101909152812054612500908390615bec565b8c5490915061251b9086906001600160601b03168385614b39565b5050612573565b6001600160a01b0384166000908152600b602090815260408083208e546001600160601b0316845260010190915290205415612573578a546125719085906001600160601b0316600084614b39565b505b60405163ba66fde760e01b8152600481018f9052602481018e9052604481018390526001600160a01b038a169063ba66fde79060640160206040518083038186803b1580156125c157600080fd5b505afa1580156125d5573d6000803e3d6000fd5b505050506040513d601f19601f820116820180604052508101906125f99190615c03565b612652576000612608856132d4565b905060005b815181101561264f5761263c8683838151811061262c5761262c615c5f565b6020026020010151600080614b39565b508061264781615d21565b91505061260d565b50505b8d6001600160a01b0385167f24f45c2b08bbde8c837d70b67991ccb7660537cf749de21a940ae4858b681e1961268784615e63565b60408051918252600060208301520160405180910390a36126a9600187615bec565b8214156126fb57846126fb576000805460028c01546040516001600160a01b039092169281156108fc029290818181858888f150506000546126f993506001600160a01b03169150899050615153565b505b5061297a565b6001600160a01b038816634fe264fb8e8e61271c8986615e80565b6040516001600160e01b031960e086901b16815260048101939093526024830191909152604482015260640160206040518083038186803b15801561276057600080fd5b505afa158015612774573d6000803e3d6000fd5b505050506040513d601f19601f820116820180604052508101906127989190615cac565b91506127108211156127aa5761271091505b600689016127b88683615e80565b815481106127c8576127c8615c5f565b60009182526020909120015460018a01546001600160a01b039091169350612710906127f5908490615e1a565b6127ff9190615e4f565b6001600160a01b0384166000908152600b602090815260408083208e546001600160601b031684526002019091528120805490919061283f908490615bec565b90915550506001600160a01b0383166000908152600b602090815260408083208d546001600160601b031684526001019091529020546128a7576000612710838b6001015461288e9190615e1a565b6128989190615e4f565b90506128a48482615153565b50505b6000612710836128b7878a615e4f565b6128c19190615e1a565b6128cb9190615e4f565b9050600061271084878d600201546128e39190615e4f565b6128ed9190615e1a565b6128f79190615e4f565b90506129038583615153565b506040516001600160a01b0386169082156108fc029083906000818181858888f19350505050508e856001600160a01b03167f24f45c2b08bbde8c837d70b67991ccb7660537cf749de21a940ae4858b681e19848460405161296f929190918252602082015260400190565b60405180910390a350505b8061298481615d21565b91505061230d565b50848860050154146129a057600588018590555b50505050600490930155505050505050565b6000600254600160a01b900460ff1660018111156129d2576129d261583b565b14612a115760405162461bcd60e51b815260206004820152600f60248201526e10a9ba30b5b4b73390383430b9b29760891b6044820152606401610d1b565b6000600e54600183600f54612a269190615e02565b612a309190615bec565b11612a3b5781612a56565b600f54600e54612a4b9190615bec565b612a56906001615e02565b9050600081600f54612a689190615e02565b600f549091505b81811015612ae7576000818152600d60205260409020805460018201546002830154612ab7926001600160a01b03811692600160a01b9091046001600160601b031691614b39565b50506000818152600d60205260408120818155600181018290556002015580612adf81615d21565b915050612a6f565b50600f555050565b612af7615441565b60006007836001600160601b031681548110612b1557612b15615c5f565b60009182526020909120604080516080810191829052600b9093029091019250600683019060049082845b815481526020019060010190808311612b40575050505050915050919050565b6000546001600160a01b03163314612b8a5760405162461bcd60e51b8152600401610d1b90615baf565b6001600160601b03821660011480612bfd575080600780846001600160601b031681548110612bbb57612bbb615c5f565b60009182526020909120600b909102015481546001600160601b03909116908110612be857612be8615c5f565b90600052602060002090600b02016002015411155b612c195760405162461bcd60e51b8152600401610d1b90615d4a565b60005b6007836001600160601b031681548110612c3857612c38615c5f565b90600052602060002090600b020160010180549050811015612cf15781600780856001600160601b031681548110612c7257612c72615c5f565b90600052602060002090600b02016001018381548110612c9457612c94615c5f565b906000526020600020015481548110612caf57612caf615c5f565b90600052602060002090600b0201600201541015612cdf5760405162461bcd60e51b8152600401610d1b90615d4a565b80612ce981615d21565b915050612c1c565b50806007836001600160601b031681548110612d0f57612d0f615c5f565b90600052602060002090600b020160020181905550816001600160601b0316600080516020615f68833981519152604051612d66906020808252600890820152676d696e5374616b6560c01b604082015260600190565b60405180910390a25050565b606060088281548110612d8757612d87615c5f565b9060005260206000209060040201600101805480602002602001604051908101604052809291908181526020018280548015612de257602002820191906000526020600020905b815481526020019060010190808311612dce575b50505050509050919050565b600a8181548110612dfe57600080fd5b60009182526020909120600490910201805460018201546002909201546001600160601b0382169350600160601b9091046001600160a01b03169160ff80821692610100909204169085565b6000546001600160a01b03163314612e745760405162461bcd60e51b8152600401610d1b90615baf565b806007836001600160601b031681548110612e9157612e91615c5f565b90600052602060002090600b0201600601906004612eb0929190615414565b50816001600160601b0316600080516020615f68833981519152604051612d66906020808252600e908201526d1d1a5b595cd4195c94195c9a5bd960921b604082015260600190565b6000546001600160a01b03163314612f235760405162461bcd60e51b8152600401610d1b90615baf565b806007836001600160601b031681548110612f4057612f40615c5f565b90600052602060002090600b020160040181905550816001600160601b0316600080516020615f68833981519152604051612d66906020808252600b908201526a3332b2a337b9253ab937b960a91b604082015260600190565b600080600a8381548110612fb057612fb0615c5f565b6000918252602082206003600490920201908101805491935090612fd690600190615bec565b81548110612fe657612fe6615c5f565b600091825260208220845460078054938102909201945090916001600160601b0390911690811061301957613019615c5f565b90600052602060002090600b0201905080600501548260030154106130b85782546001600160601b03166001141561305a576001600160ff1b0393506130e2565b600382015461306a906002615e1a565b613075906001615e02565b81546007805490916001600160601b031690811061309557613095615c5f565b90600052602060002090600b0201600401546130b19190615e1a565b93506130e2565b60038201546130c8906002615e1a565b6130d3906001615e02565b8160040154611d409190615e1a565b505050919050565b6000546001600160a01b031633146131145760405162461bcd60e51b8152600401610d1b90615baf565b806007836001600160601b03168154811061313157613131615c5f565b90600052602060002090600b020160030181905550816001600160601b0316600080516020615f68833981519152604051612d6690602080825260059082015264616c70686160d81b604082015260600190565b6000546001600160a01b031633146131af5760405162461bcd60e51b8152600401610d1b90615baf565b6000836001600160a01b031683836040516131ca9190615ec0565b60006040518083038185875af1925050503d8060008114613207576040519150601f19603f3d011682016040523d82523d6000602084013e61320c565b606091505b50509050806132515760405162461bcd60e51b8152602060048201526011602482015270155b9cdd58d8d95cdcd99d5b0818d85b1b607a1b6044820152606401610d1b565b50505050565b6132643383836000614b39565b6132a15760405162461bcd60e51b815260206004820152600e60248201526d14dd185ada5b99c819985a5b195960921b6044820152606401610d1b565b5050565b6000546001600160a01b031633146132cf5760405162461bcd60e51b8152600401610d1b90615baf565b600355565b6001600160a01b0381166000908152600b6020908152604091829020805483518184028101840190945280845260609392830182828015612de257602002820191906000526020600020906000905b82829054906101000a90046001600160601b03166001600160601b0316815260200190600c0190602082600b01049283019260010382029150808411613323575094979650505050505050565b6000806000806060600080600a898154811061338e5761338e615c5f565b906000526020600020906004020160030188815481106133b0576133b0615c5f565b9060005260206000209060070201905080600101548160020154826004015483600501548460060185600001548180548060200260200160405190810160405280929190818152602001828054801561343257602002820191906000526020600020905b81546001600160a01b03168152600190910190602001808311613414575b50505050509150965096509650965096509650509295509295509295565b6000600a828154811061346557613465615c5f565b600091825260209091206004918202019150600182015460ff1660048111156134905761349061583b565b146134ad5760405162461bcd60e51b8152600401610d1b90615dd7565b6001810154610100900460ff16156135015760405162461bcd60e51b8152602060048201526017602482015276149d5b1a5b99c8185b1c9958591e48195e1958dd5d1959604a1b6044820152606401610d1b565b600061350c83611c3e565b60018301805461ff001916610100179055825460405163188d362b60e11b815260048101869052602481018390529192506001600160a01b03600160601b909104169063311a6c5690604401600060405180830381600087803b15801561357257600080fd5b505af1158015613586573d6000803e3d6000fd5b50505050505050565b6009818154811061359f57600080fd5b600091825260209091200154905081565b6000806000600a84815481106135c8576135c8615c5f565b60009182526020822060036004909202019081018054919350906135ee90600190615bec565b815481106135fe576135fe615c5f565b90600052602060002090600702019050600881600001548154811061362557613625615c5f565b6000918252602090912060049182020160020154604051639b05c26160e01b81529182018790526001600160a01b031690639b05c26190602401604080518083038186803b15801561367657600080fd5b505afa15801561368a573d6000803e3d6000fd5b505050506040513d601f19601f820116820180604052508101906136ae9190615edc565b90969095509350505050565b6000546001600160a01b031633146136e45760405162461bcd60e51b8152600401610d1b90615baf565b806007836001600160601b03168154811061370157613701615c5f565b90600052602060002090600b0201600001600c6101000a81548160ff021916908315150217905550816001600160601b0316600080516020615f68833981519152604051612d66906020808252600b908201526a68696464656e566f74657360a81b604082015260600190565b6000546001600160a01b031633146137985760405162461bcd60e51b8152600401610d1b90615baf565b806007836001600160601b0316815481106137b5576137b5615c5f565b90600052602060002090600b020160050181905550816001600160601b0316600080516020615f68833981519152604051612d669060208082526012908201527106a75726f7273466f72436f7572744a756d760741b604082015260600190565b6000806000600a848154811061382e5761382e615c5f565b6000918252602090912060049091020190506003600182015460ff16600481111561385b5761385b61583b565b14156138b4576002810154815460078054929550916001600160601b0390911690811061388a5761388a615c5f565b600091825260209091206009600b90920201015460028201546138ad9190615e02565b91506138bd565b60009250600091505b50915091565b6000546001600160a01b031633146138ed5760405162461bcd60e51b8152600401610d1b90615baf565b600455565b60006001600254600160a01b900460ff1660018111156139145761391461583b565b14801561392f575060045460055461392c9042615bec565b10155b905090565b600061393f826149e6565b34101561398e5760405162461bcd60e51b815260206004820181905260248201527f45544820746f6f206c6f7720666f72206172626974726174696f6e20636f73746044820152606401610d1b565b60008061399a8461521f565b92505091506007826001600160601b0316815481106139bb576139bb615c5f565b60009182526020808320848452600a600b90930201919091019052604090205460ff16613a2a5760405162461bcd60e51b815260206004820152601a60248201527f444b20756e737570706f7274656420627920737562636f7572740000000000006044820152606401610d1b565b600a80546001810182556000918252600160601b33026001600160601b03851617600482027fc65a7bb8d6351c1cf70c95a316cc6a92839c986682d98bc35f958f4883f9d2a88101918255427fc65a7bb8d6351c1cf70c95a316cc6a92839c986682d98bc35f958f4883f9d2aa909101556008805492965090929184908110613ab557613ab5615c5f565b600091825260208220600260049092020101548354600780546001600160a01b039093169450916001600160601b03909116908110613af657613af6615c5f565b60009182526020808320600387018054600181018255908552919093206004600b9093029093019182015491935060070290910190613b359034615e4f565b600380830191909155858255820154600283015461271091613b5691615e1a565b613b609190615e4f565b60018201553460028201556008805486908110613b7f57613b7f615c5f565b906000526020600020906004020160020160149054906101000a900460ff16613c1657600160088681548110613bb757613bb7615c5f565b6000918252602082206002600490920201018054921515600160a01b0260ff60a01b19909316929092179091556009805460018101825591527f6e1540171b6c0c960b71a7020d9f60077f6af931a8bbf590da0223dacf75c7af018590555b60038101546040516302dbb79560e61b81526001600160a01b0385169163b6ede54091613c4b918b918e918e91600401615f01565b600060405180830381600087803b158015613c6557600080fd5b505af1158015613c79573d6000803e3d6000fd5b50506040513392508991507f141dfc18aa6a56fc816f44f0e9e2f1ebc92b15ab167770e17db5b084c10ed99590600090a350505050505092915050565b6000546001600160a01b03163314613ce05760405162461bcd60e51b8152600401610d1b90615baf565b600280546001600160a01b0319166001600160a01b0392909216919091179055565b613d0b83612f9a565b341015613d5a5760405162461bcd60e51b815260206004820152601b60248201527f45544820746f6f206c6f7720666f722061707065616c20636f737400000000006044820152606401610d1b565b6000600a8481548110613d6f57613d6f615c5f565b6000918252602090912060049091020190506003600182015460ff166004811115613d9c57613d9c61583b565b14613de25760405162461bcd60e51b815260206004820152601660248201527544697370757465206e6f742061707065616c61626c6560501b6044820152606401610d1b565b60038101805460009190613df890600190615bec565b81548110613e0857613e08615c5f565b906000526020600020906007020190506008816000015481548110613e2f57613e2f615c5f565b60009182526020909120600490910201600201546001600160a01b03163314613e8d5760405162461bcd60e51b815260206004820152601060248201526f44697370757465204b6974206f6e6c7960801b6044820152606401610d1b565b8154815460038401805460018101825560009182526020909120600780546001600160601b03909516949281029091019184908110613ece57613ece615c5f565b90600052602060002090600b0201600501548460030154106140d2576007836001600160601b031681548110613f0657613f06615c5f565b600091825260208220600b90910201546001600160601b031693505b600a811015614017576007846001600160601b031681548110613f4757613f47615c5f565b60009182526020808320868452600a600b90930201919091019052604090205460ff1615613f7457614017565b600060088481548110613f8957613f89615c5f565b90600052602060002090600402016000015414613fcc5760088381548110613fb357613fb3615c5f565b9060005260206000209060040201600001549250614005565b6007846001600160601b031681548110613fe857613fe8615c5f565b60009182526020909120600b90910201546001600160601b031693505b8061400f81615d21565b915050613f22565b506007836001600160601b03168154811061403457614034615c5f565b60009182526020808320858452600a600b90930201919091019052604090205460ff1661406057600192505b84546001600160601b038481169116146140d257845460038601546001600160601b039091169061409390600190615bec565b6040516001600160601b03861681528a907f736e3f52761298c8c0823e1ebf482ed3c5ecb304f743d2d91a7c006e8e8d7a1f9060200160405180910390a45b84546001600160601b0319166001600160601b038416908117865560018601805460ff191690554260028701556007805460009290811061411557614115615c5f565b90600052602060002090600b020190508060040154346141359190615e4f565b8260030181905550612710816003015482600201546141549190615e1a565b61415e9190615e4f565b6001830155346002830155828255600880548490811061418057614180615c5f565b906000526020600020906004020160020160149054906101000a900460ff16614217576001600884815481106141b8576141b8615c5f565b6000918252602082206002600490920201018054921515600160a01b0260ff60a01b19909316929092179091556009805460018101825591527f6e1540171b6c0c960b71a7020d9f60077f6af931a8bbf590da0223dacf75c7af018390555b84548254146142fd578454600387015461423390600190615bec565b83546040519081528b907fcbe7939a71f0b369c7471d760a0a99b60b7bb010ee0406cba8a46679d1ea77569060200160405180910390a4600882600001548154811061428157614281615c5f565b600091825260209091206004918202016002015460038401546040516302dbb79560e61b81526001600160a01b039092169263b6ede540926142ca928e928e928e929101615f01565b600060405180830381600087803b1580156142e457600080fd5b505af11580156142f8573d6000803e3d6000fd5b505050505b8554604051600160601b9091046001600160a01b0316908a907f9c9b64db9e130f48381bf697abf638e73117dbfbfd7a4484f2da3ba188f4187d90600090a3887f4e6f5cf43b95303e86aee81683df63992061723a829ee012db21dad388756b91600060405161436d9190615d3c565b60405180910390a2505050505050505050565b600080600a838154811061439657614396615c5f565b9060005260206000209060040201905080600301600182600301805490506143be9190615bec565b815481106143ce576143ce615c5f565b906000526020600020906007020160030154915050919050565b6001600254600160a01b900460ff1660018111156144085761440861583b565b146144435760405162461bcd60e51b815260206004820152600b60248201526a57726f6e6720706861736560a81b6044820152606401610d1b565b6000600a838154811061445857614458615c5f565b9060005260206000209060040201905060006001826003018054905061447e9190615bec565b9050600082600301828154811061449757614497615c5f565b6000918252602082206007909102019150600184015460ff1660048111156144c1576144c161583b565b146145015760405162461bcd60e51b815260206004820152601060248201526f08515d9a59195b98d9481c195c9a5bd960821b6044820152606401610d1b565b6000600882600001548154811061451a5761451a615c5f565b60009182526020822060026004909202010154600684015460038501546001600160a01b03909216935091906145508884615e02565b111561456057836003015461456a565b61456a8783615e02565b9050815b818110156146de57604051633b30414760e01b8152600481018a90526000906001600160a01b03861690633b30414790602401602060405180830381600087803b1580156145bb57600080fd5b505af11580156145cf573d6000803e3d6000fd5b505050506040513d601f19601f820116820180604052508101906145f39190615f4a565b90506001600160a01b038116156146cb5760018601546001600160a01b0382166000908152600b602090815260408083208c546001600160601b0316845260020190915281208054909190614649908490615e02565b909155505060068601546040805189815260208101929092528b916001600160a01b038416917f6119cf536152c11e0a9a6c22f3953ce4ecc93ee54fa72ffa326ffabded21509b910160405180910390a3600686018054600181018255600091825260209091200180546001600160a01b0319166001600160a01b0383161790555b50806146d681615d21565b91505061456e565b505050505050505050565b6060600980548060200260200160405190810160405280929190818152602001828054801561473757602002820191906000526020600020905b815481526020019060010190808311614723575b5050505050905090565b6000546001600160a01b0316331461476b5760405162461bcd60e51b8152600401610d1b90615baf565b600080546001600160a01b0319166001600160a01b0392909216919091179055565b6000546001600160a01b031633146147b75760405162461bcd60e51b8152600401610d1b90615baf565b6008548082106147f35760405162461bcd60e51b81526020600482015260076024820152660854185c995b9d60ca1b6044820152606401610d1b565b60008215614870576008838154811061480e5761480e615c5f565b906000526020600020906004020160030154600161482c9190615e02565b9050600a81106148705760405162461bcd60e51b815260206004820152600f60248201526e088cae0e8d040d8caeccad840dac2f608b1b6044820152606401610d1b565b6040805160a08101825284815281516000808252602080830185528084019283526001600160a01b038916948401949094526060830181905260808301859052600880546001810182559152825160049091027ff3f7a9fe364faab93b216da50a3214154f22a0a2b415b23a84c8169e8b636ee381019182559151805193949193614922937ff3f7a9fe364faab93b216da50a3214154f22a0a2b415b23a84c8169e8b636ee4019291909101906153c9565b50604082015160028201805460608501511515600160a01b026001600160a81b03199091166001600160a01b0390931692909217919091179055608090910151600390910155600880548490811061497c5761497c615c5f565b600091825260208083206001600490930201820180549283018155835282200183905560405184916001600160a01b0387169185917f7921860794ac14fda09ee75f7160a5a3d266e3352f7954d0401606a92a26c49891a482613251576132516001836001614ab1565b60008060006149f48461521f565b5091509150806007836001600160601b031681548110614a1657614a16615c5f565b90600052602060002090600b020160040154614a329190615e1a565b949350505050565b6000600a8281548110614a4f57614a4f615c5f565b600091825260209091206003600490920201015492915050565b60006007836001600160601b031681548110614a8757614a87615c5f565b60009182526020808320948352600b91909102909301600a0190925250604090205460ff16919050565b806007846001600160601b031681548110614ace57614ace615c5f565b60009182526020808320868452600b92909202909101600a0190526040808220805460ff19169315159390931790925590518215159184916001600160601b038716917fb47629acdf64971062d40984f77d3dee212d735b11e3e8c7a4222d9f0572cc7991a4505050565b60006001600160601b0384161580614b5b57506007546001600160601b038516115b15614b6857506000614a32565b6001600160a01b0385166000908152600b6020526040812090614b8b87876152a3565b604051637521ccb160e01b8152600c60048201526001600160601b0388166024820152604481018290529091506000907340a78989317B953e427B3BD87C59eA003fcC229690637521ccb19060640160206040518083038186803b158015614bf257600080fd5b505af4158015614c06573d6000803e3d6000fd5b505050506040513d601f19601f82011682018060405250810190614c2a9190615cac565b90508515614cb8576007876001600160601b031681548110614c4e57614c4e615c5f565b90600052602060002090600b020160020154861080614c8657506001600160601b038716600090815260028401602052604090205486105b15614c975760009350505050614a32565b80158015614ca757508254600411155b15614cb85760009350505050614a32565b6000600254600160a01b900460ff166001811115614cd857614cd861583b565b14614d84576040518060800160405280896001600160a01b03168152602001886001600160601b0316815260200187815260200186815250600d6000600e60008154614d2390615d21565b9182905550815260208082019290925260409081016000208351928401516001600160601b0316600160a01b026001600160a01b039093169290921782558201516001808301919091556060909201516002909101559350614a3292505050565b6000818710614e0157614d978288615bec565b90508015614def57614daa8930836152eb565b15614df45781614def578354600180820186556000868152602090206002830401805491909216600c026101000a6001600160601b0381810219909216918b16021790555b614fd6565b6000945050505050614a32565b86614f9e576001600160601b03881660009081526002850160205260409020548690614e2d9084615bec565b614e379190615bec565b90508015614def57614e498982615153565b15614df45760005b8454811015614f9857886001600160601b0316856000018281548110614e7957614e79615c5f565b600091825260209091206002820401546001909116600c026101000a90046001600160601b03161415614f865784548590614eb690600190615bec565b81548110614ec657614ec6615c5f565b9060005260206000209060029182820401919006600c029054906101000a90046001600160601b0316856000018281548110614f0457614f04615c5f565b9060005260206000209060029182820401919006600c026101000a8154816001600160601b0302191690836001600160601b0316021790555084600001805480614f5057614f50615cc5565b60008281526020902060026000199092019182040180546001600160601b03600c60018516026101000a02191690559055614f98565b80614f9081615d21565b915050614e51565b50614fd6565b85614fa98884615bec565b614fb39190615bec565b90508015614fd657614fc58982615153565b614fd6576000945050505050614a32565b6001600160601b03881660009081526001850160205260408120548890614ffe908590615bec565b6150089190615e02565b6001600160601b038a16600081815260018801602052604081208390559192505b816150ec57604051631712e1c560e11b8152600c600482015260248101829052604481018b9052606481018790527340a78989317B953e427B3BD87C59eA003fcC229690632e25c38a9060840160006040518083038186803b15801561508e57600080fd5b505af41580156150a2573d6000803e3d6000fd5b5050505060018114156150b85760019150615029565b600781815481106150cb576150cb615c5f565b60009182526020909120600b90910201546001600160601b03169050615029565b604080516001600160601b038d168152602081018c90529081018490526001600160a01b038d16907f70ca4ec64687bf265f39041896f3dbf10b9f650503cb38f2b3569fdce7489c369060600160405180910390a25060019b9a5050505050505050505050565b600154604080516001600160a01b038581166024830152604480830186905283518084039091018152606490920183526020820180516001600160e01b031663a9059cbb60e01b1790529151600093849384939116916151b39190615ec0565b6000604051808303816000865af19150503d80600081146151f0576040519150601f19603f3d011682016040523d82523d6000602084013e6151f5565b606091505b5091509150818015611d40575080511580611d40575080806020019051810190611d409190615c03565b60008060006040845110615291575050506020810151604082015160608301516001600160601b038316158061526057506007546001600160601b03841610155b1561526a57600192505b8161527457600391505b80158061528357506008548110155b1561528c575060015b61529c565b506001915060039050815b9193909250565b600060405160005b60148110156152c6578481600c011a818301536001016152ab565b5060145b60208110156152e25783811a818301536001016152ca565b50519392505050565b600154604080516001600160a01b0386811660248301528581166044830152606480830186905283518084039091018152608490920183526020820180516001600160e01b03166323b872dd60e01b1790529151600093849384939116916153539190615ec0565b6000604051808303816000865af19150503d8060008114615390576040519150601f19603f3d011682016040523d82523d6000602084013e615395565b606091505b50915091508180156153bf5750805115806153bf5750808060200190518101906153bf9190615c03565b9695505050505050565b828054828255906000526020600020908101928215615404579160200282015b828111156154045782518255916020019190600101906153e9565b5061541092915061545f565b5090565b826004810192821561540457916020028201828111156154045782518255916020019190600101906153e9565b60405180608001604052806004906020820280368337509192915050565b5b808211156154105760008155600101615460565b6001600160a01b038116811461548957600080fd5b50565b60006020828403121561549e57600080fd5b81356154a981615474565b9392505050565b80356001600160601b03811681146154c757600080fd5b919050565b634e487b7160e01b600052604160045260246000fd5b604051601f8201601f191681016001600160401b038111828210171561550a5761550a6154cc565b604052919050565b600082601f83011261552357600080fd5b813560206001600160401b0382111561553e5761553e6154cc565b8160051b61554d8282016154e2565b928352848101820192828101908785111561556757600080fd5b83870192505b848310156155865782358252918301919083019061556d565b979650505050505050565b801515811461548957600080fd5b6000806000606084860312156155b457600080fd5b6155bd846154b0565b925060208401356001600160401b038111156155d857600080fd5b6155e486828701615512565b92505060408401356155f581615591565b809150509250925092565b60006020828403121561561257600080fd5b5035919050565b6000806040838503121561562c57600080fd5b50508035926020909101359150565b600082601f83011261564c57600080fd5b604051608081018181106001600160401b038211171561566e5761566e6154cc565b60405280608084018581111561568357600080fd5b845b8181101561569d578035835260209283019201615685565b509195945050505050565b60008060008060008060008060006101808a8c0312156156c757600080fd5b6156d08a6154b0565b985060208a01356156e081615591565b975060408a0135965060608a0135955060808a0135945060a08a0135935061570b8b60c08c0161563b565b92506101408a013591506101608a01356001600160401b0381111561572f57600080fd5b61573b8c828d01615512565b9150509295985092959850929598565b60008060006060848603121561576057600080fd5b505081359360208301359350604090920135919050565b60006020828403121561578957600080fd5b6154a9826154b0565b8060005b6004811015613251578151845260209384019390910190600101615796565b60808101611dd18284615792565b600080604083850312156157d657600080fd5b6157df836154b0565b946020939093013593505050565b600081518084526020808501945080840160005b8381101561581d57815187529582019590820190600101615801565b509495945050505050565b6020815260006154a960208301846157ed565b634e487b7160e01b600052602160045260246000fd5b600581106158615761586161583b565b9052565b6001600160601b03861681526001600160a01b038516602082015260a081016158916040830186615851565b9215156060820152608001529392505050565b60008060a083850312156158b757600080fd5b6158c0836154b0565b91506158cf846020850161563b565b90509250929050565b600082601f8301126158e957600080fd5b81356001600160401b03811115615902576159026154cc565b615915601f8201601f19166020016154e2565b81815284602083860101111561592a57600080fd5b816020850160208301376000918101602001919091529392505050565b60008060006060848603121561595c57600080fd5b833561596781615474565b92506020840135915060408401356001600160401b0381111561598957600080fd5b615995868287016158d8565b9150509250925092565b6020808252825182820181905260009190848201906040850190845b818110156159e05783516001600160601b0316835292840192918401916001016159bb565b50909695505050505050565b600060c082018883526020888185015287604085015286606085015260c0608085015281865180845260e086019150828801935060005b81811015615a485784516001600160a01b031683529383019391830191600101615a23565b50508093505050508260a0830152979650505050505050565b60008060408385031215615a7457600080fd5b615a7d836154b0565b91506020830135615a8d81615591565b809150509250929050565b6020810160028310615aac57615aac61583b565b91905290565b60008060408385031215615ac557600080fd5b8235915060208301356001600160401b03811115615ae257600080fd5b615aee858286016158d8565b9150509250929050565b600080600060608486031215615b0d57600080fd5b833592506020840135915060408401356001600160401b0381111561598957600080fd5b60008060408385031215615b4457600080fd5b8235615b4f81615474565b91506158cf602084016154b0565b60008060408385031215615b7057600080fd5b82356157df81615474565b600060208284031215615b8d57600080fd5b81356001600160401b03811115615ba357600080fd5b614a32848285016158d8565b6020808252600d908201526c476f7665726e6f72206f6e6c7960981b604082015260600190565b634e487b7160e01b600052601160045260246000fd5b600082821015615bfe57615bfe615bd6565b500390565b600060208284031215615c1557600080fd5b81516154a981615591565b60008083128015600160ff1b850184121615615c3e57615c3e615bd6565b6001600160ff1b0384018313811615615c5957615c59615bd6565b50500390565b634e487b7160e01b600052603260045260246000fd5b6020808252601e908201527f536f6d6520444b206e6f7420696e205265736f6c76696e672070686173650000604082015260600190565b600060208284031215615cbe57600080fd5b5051919050565b634e487b7160e01b600052603160045260246000fd5b6000600160ff1b821415615cf157615cf1615bd6565b506000190190565b6020808252600e908201526d0aee4dedcce40889640d2dcc8caf60931b604082015260600190565b6000600019821415615d3557615d35615bd6565b5060010190565b60208101611dd18284615851565b6020808252818101527f4d696e5374616b65206c6f776572207468616e20706172656e7420636f757274604082015260600190565b60006101608a15158352896020840152886040840152876060840152866080840152615dae60a0840187615792565b8461012084015280610140840152615dc8818401856157ed565b9b9a5050505050505050505050565b60208082526011908201527008515e1958dd5d1a5bdb881c195c9a5bd9607a1b604082015260600190565b60008219821115615e1557615e15615bd6565b500190565b6000816000190483118215151615615e3457615e34615bd6565b500290565b634e487b7160e01b600052601260045260246000fd5b600082615e5e57615e5e615e39565b500490565b6000600160ff1b821415615e7957615e79615bd6565b5060000390565b600082615e8f57615e8f615e39565b500690565b60005b83811015615eaf578181015183820152602001615e97565b838111156132515750506000910152565b60008251615ed2818460208701615e94565b9190910192915050565b60008060408385031215615eef57600080fd5b825191506020830151615a8d81615591565b8481528360208201526080604082015260008351806080840152615f2c8160a0850160208801615e94565b606083019390935250601f91909101601f19160160a0019392505050565b600060208284031215615f5c57600080fd5b81516154a98161547456fefb75175e7dd144a612469a4316b0a6e4cee24cb54400dfdc7bfe1546cd0e309da2646970667358221220aa38ce5c97ec4a2d770f1e29afa26e0aaa87cb3c1478438fd4e7307954b981e964736f6c63430008090033",
  "deployedBytecode": "0x6080604052600436106103585760003560e01c8063840bc19c116101bd578063c057eca7116100f8578063d8b03fd81161009b578063d8b03fd814610b7e578063e4c0aaf414610b93578063eaff425a14610bb3578063f12ada8b14610bc8578063f6b4d82d14610be8578063f7434ea914610c71578063fbf405b014610c91578063fc6f8f1614610cb1578063fe524c3914610cd157600080fd5b8063c057eca714610a64578063c13517e114610a7a578063c258bb1914610a8d578063c356990214610aad578063c71f425314610ac0578063cf0c38f814610ae0578063d1c1df4814610b00578063d2b8035a14610b5e57600080fd5b8063afe15cfb11610160578063afe15cfb14610927578063b1c9fe6e1461095c578063b2866af71461098a578063b31b4540146109aa578063b4a61608146109c0578063b70c4e94146109d5578063b888adfa146109ea578063bfabfe8f14610a0057600080fd5b8063840bc19c146107f85780638980e420146108135780638a9bb02a146108405780638bb04875146108725780638edf4741146108925780639b05c261146108b2578063a079e73f146108e7578063a57366e71461090757600080fd5b806334d5fb3111610298578063572603641161023b57806357260364146106ee57806359354c771461070e57806359ec827e1461072e5780635bc24dd31461074e5780636235593f1461076e5780636c1eb1b914610783578063751accd0146107985780637717a6e8146107b8578063823cfd70146107d857600080fd5b806334d5fb31146105e257806335975f4a146105f75780633a157860146106175780633cfd11841461062d5780633e1d09be1461065a57806343d4137f1461067a578063564a565d146106a757806356acb050146106d857600080fd5b806319b815291161030057806319b81529146104985780631c3db16d146104c85780631f5a0dd2146104e857806327e6ec8a1461053f5780632922d6041461056c5780632b6a63f11461058c5780632d29a47b146105ac5780632ea7b4d0146105cc57600080fd5b8062f5822c1461035d5780630b274f2e1461037f5780630b7414bc146103945780630c340a24146103b45780630d1b9d1a146103f15780630d83b9401461043f5780630e083ec914610462578063115d537614610478575b600080fd5b34801561036957600080fd5b5061037d61037836600461548c565b610cf1565b005b34801561038b57600080fd5b5061037d610d46565b3480156103a057600080fd5b5061037d6103af36600461559f565b6112ce565b3480156103c057600080fd5b506000546103d4906001600160a01b031681565b6040516001600160a01b0390911681526020015b60405180910390f35b3480156103fd57600080fd5b5061041161040c366004615600565b6114a4565b604080519485526001600160a01b0390931660208501529015159183019190915260608201526080016103e8565b34801561044b57600080fd5b50610454600181565b6040519081526020016103e8565b34801561046e57600080fd5b50610454600e5481565b34801561048457600080fd5b5061037d610493366004615600565b6114ed565b3480156104a457600080fd5b506104b86104b3366004615600565b611b47565b60405190151581526020016103e8565b3480156104d457600080fd5b506104546104e3366004615600565b611c3e565b3480156104f457600080fd5b50610508610503366004615600565b611d49565b604080516001600160601b0390971687529415156020870152938501929092526060840152608083015260a082015260c0016103e8565b34801561054b57600080fd5b50610554600081565b6040516001600160601b0390911681526020016103e8565b34801561057857600080fd5b50610454610587366004615619565b611da0565b34801561059857600080fd5b5061037d6105a73660046156a8565b611dd7565b3480156105b857600080fd5b5061037d6105c736600461574b565b61216f565b3480156105d857600080fd5b5061045461271081565b3480156105ee57600080fd5b50610554600181565b34801561060357600080fd5b5061037d610612366004615600565b6129b2565b34801561062357600080fd5b5061045460065481565b34801561063957600080fd5b5061064d610648366004615777565b612aef565b6040516103e891906157b5565b34801561066657600080fd5b5061037d6106753660046157c3565b612b60565b34801561068657600080fd5b5061069a610695366004615600565b612d72565b6040516103e89190615828565b3480156106b357600080fd5b506106c76106c2366004615600565b612dee565b6040516103e8959493929190615865565b3480156106e457600080fd5b50610454600f5481565b3480156106fa57600080fd5b5061037d6107093660046158a4565b612e4a565b34801561071a57600080fd5b5061037d6107293660046157c3565b612ef9565b34801561073a57600080fd5b50610454610749366004615600565b612f9a565b34801561075a57600080fd5b5061037d6107693660046157c3565b6130ea565b34801561077a57600080fd5b50610454600081565b34801561078f57600080fd5b50610454600a81565b3480156107a457600080fd5b5061037d6107b3366004615947565b613185565b3480156107c457600080fd5b5061037d6107d33660046157c3565b613257565b3480156107e457600080fd5b5061037d6107f3366004615600565b6132a5565b34801561080457600080fd5b506104546001600160ff1b0381565b34801561081f57600080fd5b5061083361082e36600461548c565b6132d4565b6040516103e8919061599f565b34801561084c57600080fd5b5061086061085b366004615619565b613370565b6040516103e8969594939291906159ec565b34801561087e57600080fd5b5061037d61088d366004615600565b613450565b34801561089e57600080fd5b506104546108ad366004615600565b61358f565b3480156108be57600080fd5b506108d26108cd366004615600565b6135b0565b604080519283529015156020830152016103e8565b3480156108f357600080fd5b5061037d610902366004615a61565b6136ba565b34801561091357600080fd5b5061037d6109223660046157c3565b61376e565b34801561093357600080fd5b50610947610942366004615600565b613816565b604080519283526020830191909152016103e8565b34801561096857600080fd5b5060025461097d90600160a01b900460ff1681565b6040516103e89190615a98565b34801561099657600080fd5b5061037d6109a5366004615600565b6138c3565b3480156109b657600080fd5b5061045460045481565b3480156109cc57600080fd5b50610454600481565b3480156109e157600080fd5b506104b86138f2565b3480156109f657600080fd5b5061045460055481565b348015610a0c57600080fd5b50610a49610a1b366004615619565b6000918252600c60209081526040808420805460028201549486526004909101909252909220549192909190565b604080519384526020840192909252908201526060016103e8565b348015610a7057600080fd5b5061045460035481565b610454610a88366004615ab2565b613934565b348015610a9957600080fd5b5061037d610aa836600461548c565b613cb6565b61037d610abb366004615af8565b613d02565b348015610acc57600080fd5b50610454610adb366004615600565b614380565b348015610aec57600080fd5b506002546103d4906001600160a01b031681565b348015610b0c57600080fd5b50610947610b1b366004615b31565b6001600160a01b03919091166000908152600b602090815260408083206001600160601b0390941683526001840182528083205460029094019091529020549091565b348015610b6a57600080fd5b5061037d610b79366004615619565b6143e8565b348015610b8a57600080fd5b5061069a6146e9565b348015610b9f57600080fd5b5061037d610bae36600461548c565b614741565b348015610bbf57600080fd5b50610454600381565b348015610bd457600080fd5b5061037d610be3366004615b5d565b61478d565b348015610bf457600080fd5b50610c3f610c03366004615600565b600d602052600090815260409020805460018201546002909201546001600160a01b03821692600160a01b9092046001600160601b0316919084565b604080516001600160a01b0390951685526001600160601b0390931660208501529183015260608201526080016103e8565b348015610c7d57600080fd5b50610454610c8c366004615b7b565b6149e6565b348015610c9d57600080fd5b506001546103d4906001600160a01b031681565b348015610cbd57600080fd5b50610454610ccc366004615600565b614a3a565b348015610cdd57600080fd5b506104b8610cec3660046157c3565b614a69565b6000546001600160a01b03163314610d245760405162461bcd60e51b8152600401610d1b90615baf565b60405180910390fd5b600180546001600160a01b0319166001600160a01b0392909216919091179055565b6000600254600160a01b900460ff166001811115610d6657610d6661583b565b1415610e2857600354600554610d7c9042615bec565b1015610dc65760405162461bcd60e51b8152602060048201526019602482015278135a5b94dd185ada5b99d51a5b59481b9bdd081c185cdcd959603a1b6044820152606401610d1b565b600954610e0c5760405162461bcd60e51b81526020600482015260146024820152734e6f20444b206e6565647320667265657a696e6760601b6044820152606401610d1b565b6002805460ff60a01b1916600160a01b17905543600655611283565b6000306001600160a01b031663b70c4e946040518163ffffffff1660e01b815260040160206040518083038186803b158015610e6357600080fd5b505afa158015610e77573d6000803e3d6000fd5b505050506040513d601f19601f82011682018060405250810190610e9b9190615c03565b600954909150600090610eb090600190615c20565b90505b6000811261127357600060098281548110610ed057610ed0615c5f565b906000526020600020015490506000600860098481548110610ef457610ef4615c5f565b906000526020600020015481548110610f0f57610f0f615c5f565b60009182526020909120600260049092020101546001600160a01b03169050838015610fa95750806001600160a01b031663c86ed8926040518163ffffffff1660e01b815260040160206040518083038186803b158015610f6f57600080fd5b505afa158015610f83573d6000803e3d6000fd5b505050506040513d601f19601f82011682018060405250810190610fa79190615c03565b155b1561109357806001600160a01b0316630b274f2e6040518163ffffffff1660e01b8152600401600060405180830381600087803b158015610fe957600080fd5b505af1158015610ffd573d6000803e3d6000fd5b50505050806001600160a01b031663c86ed8926040518163ffffffff1660e01b815260040160206040518083038186803b15801561103a57600080fd5b505afa15801561104e573d6000803e3d6000fd5b505050506040513d601f19601f820116820180604052508101906110729190615c03565b61108e5760405162461bcd60e51b8152600401610d1b90615c75565b611260565b806001600160a01b031663c86ed8926040518163ffffffff1660e01b815260040160206040518083038186803b1580156110cc57600080fd5b505afa1580156110e0573d6000803e3d6000fd5b505050506040513d601f19601f820116820180604052508101906111049190615c03565b6111205760405162461bcd60e51b8152600401610d1b90615c75565b806001600160a01b031663034327446040518163ffffffff1660e01b815260040160206040518083038186803b15801561115957600080fd5b505afa15801561116d573d6000803e3d6000fd5b505050506040513d601f19601f820116820180604052508101906111919190615cac565b611260576000600883815481106111aa576111aa615c5f565b600091825260209091206002600490920201018054911515600160a01b0260ff60a01b199092169190911790556009546111e690600190615c20565b83121561123857600980546111fd90600190615bec565b8154811061120d5761120d615c5f565b90600052602060002001546009848154811061122b5761122b615c5f565b6000918252602090912001555b600980548061124957611249615cc5565b600190038181906000526020600020016000905590555b50508061126c90615cdb565b9050610eb3565b50506002805460ff60a01b191690555b426005556002546040517f31f72b44f546d9e7eaec13f65636997665e15f134a81c82924f568f5c0d07b93916112c491600160a01b90910460ff1690615a98565b60405180910390a1565b6000546001600160a01b031633146112f85760405162461bcd60e51b8152600401610d1b90615baf565b60006007846001600160601b03168154811061131657611316615c5f565b90600052602060002090600b0201905060005b835181101561149d5782156113c357600084828151811061134c5761134c615c5f565b602002602001015111801561137d5750600854845185908390811061137357611373615c5f565b6020026020010151105b6113995760405162461bcd60e51b8152600401610d1b90615cf9565b6113be858583815181106113af576113af615c5f565b60200260200101516001614ab1565b61148b565b6001600160601b03851660011480156114195750600060088583815181106113ed576113ed615c5f565b60200260200101518154811061140557611405615c5f565b906000526020600020906004020160000154145b156114665760405162461bcd60e51b815260206004820181905260248201527f43616e27742064697361626c6520526f6f7420444b20696e2047656e6572616c6044820152606401610d1b565b61148b8585838151811061147c5761147c615c5f565b60200260200101516000614ab1565b8061149581615d21565b915050611329565b5050505050565b600881815481106114b457600080fd5b60009182526020909120600490910201805460028201546003909201549092506001600160a01b03821691600160a01b900460ff169084565b6000600a828154811061150257611502615c5f565b600091825260208220600490910201805460078054929450916001600160601b0390911690811061153557611535615c5f565b6000918252602082206003850154600b90920201925061155790600190615bec565b9050600083600301828154811061157057611570615c5f565b6000918252602082206007909102019150600185015460ff16600481111561159a5761159a61583b565b14156116cd5760008211806115ec57506001840154600684019060ff1660048111156115c8576115c861583b565b600481106115d8576115d8615c5f565b015460028501546115e99042615bec565b10155b6116385760405162461bcd60e51b815260206004820152601e60248201527f45766964656e6365206e6f7420706173736564202626202141707065616c00006044820152606401610d1b565b60038101546006820154146116875760405162461bcd60e51b815260206004820152601560248201527444697370757465207374696c6c2064726177696e6760581b6044820152606401610d1b565b8254600160601b900460ff1661169e5760026116a1565b60015b60018086018054909160ff19909116908360048111156116c3576116c361583b565b0217905550611af9565b60018085015460ff1660048111156116e7576116e761583b565b1415611833576001840154600684019060ff16600481111561170b5761170b61583b565b6004811061171b5761171b615c5f565b0154600285015461172c9042615bec565b1015806117d55750600881600001548154811061174b5761174b615c5f565b6000918252602090912060049182020160020154604051630baa64d160e01b81529182018790526001600160a01b031690630baa64d19060240160206040518083038186803b15801561179d57600080fd5b505afa1580156117b1573d6000803e3d6000fd5b505050506040513d601f19601f820116820180604052508101906117d59190615c03565b61181c5760405162461bcd60e51b815260206004820152601860248201527710dbdb5b5a5d081c195c9a5bd9081b9bdd081c185cdcd95960421b6044820152606401610d1b565b6001808501805460029260ff1990911690836116c3565b6002600185015460ff16600481111561184e5761184e61583b565b14156119d6576001840154600684019060ff1660048111156118725761187261583b565b6004811061188257611882615c5f565b015460028501546118939042615bec565b10158061193c575060088160000154815481106118b2576118b2615c5f565b60009182526020909120600491820201600201546040516336a66c7560e11b81529182018790526001600160a01b031690636d4cd8ea9060240160206040518083038186803b15801561190457600080fd5b505afa158015611918573d6000803e3d6000fd5b505050506040513d601f19601f8201168201806040525081019061193c9190615c03565b6119815760405162461bcd60e51b8152602060048201526016602482015275159bdd19481c195c9a5bd9081b9bdd081c185cdcd95960521b6044820152606401610d1b565b600184018054600360ff199091161790558354604051600160601b9091046001600160a01b03169086907fa5d41b970d849372be1da1481ffd78d162bfe57a7aa2fe4e5fb73481fa5ac24f90600090a3611af9565b6003600185015460ff1660048111156119f1576119f161583b565b1415611a96576001840154600684019060ff166004811115611a1557611a1561583b565b60048110611a2557611a25615c5f565b01546002850154611a369042615bec565b1015611a7f5760405162461bcd60e51b8152602060048201526018602482015277105c1c19585b081c195c9a5bd9081b9bdd081c185cdcd95960421b6044820152606401610d1b565b6001808501805460049260ff1990911690836116c3565b6004600185015460ff166004811115611ab157611ab161583b565b1415611af95760405162461bcd60e51b8152602060048201526017602482015276111a5cdc1d5d19481c195c9a5bd9081a5cc8199a5b985b604a1b6044820152606401610d1b565b426002850155600184015460405186917f4e6f5cf43b95303e86aee81683df63992061723a829ee012db21dad388756b9191611b389160ff1690615d3c565b60405180910390a25050505050565b600080600a8381548110611b5d57611b5d615c5f565b6000918252602082206003600490920201908101805491935090611b8390600190615bec565b81548110611b9357611b93615c5f565b600091825260208220845460078054938102909201945090916001600160601b03909116908110611bc657611bc6615c5f565b90600052602060002090600b02019050806005015482600301541015611bf157506000949350505050565b80546007805490916001600160601b0316908110611c1157611c11615c5f565b6000918252602080832094548352600a600b9092029094010190925250604090205460ff16159392505050565b600080600a8381548110611c5457611c54615c5f565b6000918252602082206003600490920201908101805491935090611c7a90600190615bec565b81548110611c8a57611c8a615c5f565b9060005260206000209060070201905060006008826000015481548110611cb357611cb3615c5f565b6000918252602090912060049182020160020154604051631c3db16d60e01b81529182018790526001600160a01b031691508190631c3db16d9060240160206040518083038186803b158015611d0857600080fd5b505afa158015611d1c573d6000803e3d6000fd5b505050506040513d601f19601f82011682018060405250810190611d409190615cac565b95945050505050565b60078181548110611d5957600080fd5b60009182526020909120600b9091020180546002820154600383015460048401546005909401546001600160601b0384169550600160601b90930460ff1693919290919086565b6000828152600c60205260408120600201805483908110611dc357611dc3615c5f565b906000526020600020015490505b92915050565b6000546001600160a01b03163314611e015760405162461bcd60e51b8152600401610d1b90615baf565b8660078a6001600160601b031681548110611e1e57611e1e615c5f565b90600052602060002090600b0201600201541115611e4e5760405162461bcd60e51b8152600401610d1b90615d4a565b6000815111611e8f5760405162461bcd60e51b815260206004820152600d60248201526c21537570706f7274656420444b60981b6044820152606401610d1b565b6001600160601b038916611ee55760405162461bcd60e51b815260206004820181905260248201527f496e76616c69643a20466f726b696e6720636f75727420617320706172656e746044820152606401610d1b565b60078054600181018255600091825290600b82027fa66cc928b5edb82af9bd49922954155ab7b0942694bea4ce44661d9a8736c68801905b8351811015611fe1576000848281518110611f3a57611f3a615c5f565b6020026020010151118015611f6b57506008548451859083908110611f6157611f61615c5f565b6020026020010151105b611f875760405162461bcd60e51b8152600401610d1b90615cf9565b600182600a016000868481518110611fa157611fa1615c5f565b6020026020010151815260200190815260200160002060006101000a81548160ff0219169083151502179055508080611fd990615d21565b915050611f1d565b5080546001600160601b0319166001600160601b038c16178155604080516000815260208101918290525161201a9160018401916153c9565b50805460ff60601b1916600160601b8b151502178155600281018990556003810188905560048082018890556005820187905561205d9060068301908790615414565b5060405163483abc4f60e11b8152600c6004820152602481018390526044810185905273__$52cf47af9c3c0d67e54ac2a3225447effa$__90639075789e9060640160006040518083038186803b1580156120b757600080fd5b505af41580156120cb573d6000803e3d6000fd5b5050505060078b6001600160601b0316815481106120eb576120eb615c5f565b600091825260208083206001600b909302018201805492830181558352909120018290556040516001600160601b038c169083907f2e689e2ae8e3c8e02797c3ff9998e8297e587a74bc6d0e48b6b5991f70991d1c9061215a908e908e908e908e908e908e908e908e90615d7f565b60405180910390a35050505050505050505050565b6000600a848154811061218457612184615c5f565b600091825260209091206004918202019150600182015460ff1660048111156121af576121af61583b565b146121cc5760405162461bcd60e51b8152600401610d1b90615dd7565b60008160030184815481106121e3576121e3615c5f565b906000526020600020906007020190506000600882600001548154811061220c5761220c615c5f565b60009182526020822060049182020160020154908401546001600160a01b03909116925061223b908690615e02565b6005840154600685015460405163368efae360e21b8152600481018b9052602481018a905292935090916000906001600160a01b0386169063da3beb8c9060440160206040518083038186803b15801561229457600080fd5b505afa1580156122a8573d6000803e3d6000fd5b505050506040513d601f19601f820116820180604052508101906122cc9190615cac565b9050600080826122e757838611156122e2578395505b612307565b6122f2846002615e1a565b86111561230757612304846002615e1a565b95505b60048801545b8681101561298c578481101561270157604051634fe264fb60e01b8152600481018e9052602481018d9052604481018290526001600160a01b03891690634fe264fb9060640160206040518083038186803b15801561236b57600080fd5b505afa15801561237f573d6000803e3d6000fd5b505050506040513d601f19601f820116820180604052508101906123a39190615cac565b91506127108211156123b55761271091505b60006127106123c48482615bec565b8b600101546123d39190615e1a565b6123dd9190615e4f565b90506123e98188615e02565b965089600601828154811061240057612400615c5f565b60009182526020808320909101546001600160a01b0316808352600b825260408084208f546001600160601b0316855260020190925290822080549196508392909161244d908490615bec565b90915550508a546007805483926001600160601b031690811061247257612472615c5f565b90600052602060002090600b02016002015461248e9190615e02565b6001600160a01b0385166000908152600b602090815260408083208f546001600160601b0316845260010190915290205410612522576001600160a01b0384166000908152600b602090815260408083208e546001600160601b03168452600101909152812054612500908390615bec565b8c5490915061251b9086906001600160601b03168385614b39565b5050612573565b6001600160a01b0384166000908152600b602090815260408083208e546001600160601b0316845260010190915290205415612573578a546125719085906001600160601b0316600084614b39565b505b60405163ba66fde760e01b8152600481018f9052602481018e9052604481018390526001600160a01b038a169063ba66fde79060640160206040518083038186803b1580156125c157600080fd5b505afa1580156125d5573d6000803e3d6000fd5b505050506040513d601f19601f820116820180604052508101906125f99190615c03565b612652576000612608856132d4565b905060005b815181101561264f5761263c8683838151811061262c5761262c615c5f565b6020026020010151600080614b39565b508061264781615d21565b91505061260d565b50505b8d6001600160a01b0385167f24f45c2b08bbde8c837d70b67991ccb7660537cf749de21a940ae4858b681e1961268784615e63565b60408051918252600060208301520160405180910390a36126a9600187615bec565b8214156126fb57846126fb576000805460028c01546040516001600160a01b039092169281156108fc029290818181858888f150506000546126f993506001600160a01b03169150899050615153565b505b5061297a565b6001600160a01b038816634fe264fb8e8e61271c8986615e80565b6040516001600160e01b031960e086901b16815260048101939093526024830191909152604482015260640160206040518083038186803b15801561276057600080fd5b505afa158015612774573d6000803e3d6000fd5b505050506040513d601f19601f820116820180604052508101906127989190615cac565b91506127108211156127aa5761271091505b600689016127b88683615e80565b815481106127c8576127c8615c5f565b60009182526020909120015460018a01546001600160a01b039091169350612710906127f5908490615e1a565b6127ff9190615e4f565b6001600160a01b0384166000908152600b602090815260408083208e546001600160601b031684526002019091528120805490919061283f908490615bec565b90915550506001600160a01b0383166000908152600b602090815260408083208d546001600160601b031684526001019091529020546128a7576000612710838b6001015461288e9190615e1a565b6128989190615e4f565b90506128a48482615153565b50505b6000612710836128b7878a615e4f565b6128c19190615e1a565b6128cb9190615e4f565b9050600061271084878d600201546128e39190615e4f565b6128ed9190615e1a565b6128f79190615e4f565b90506129038583615153565b506040516001600160a01b0386169082156108fc029083906000818181858888f19350505050508e856001600160a01b03167f24f45c2b08bbde8c837d70b67991ccb7660537cf749de21a940ae4858b681e19848460405161296f929190918252602082015260400190565b60405180910390a350505b8061298481615d21565b91505061230d565b50848860050154146129a057600588018590555b50505050600490930155505050505050565b6000600254600160a01b900460ff1660018111156129d2576129d261583b565b14612a115760405162461bcd60e51b815260206004820152600f60248201526e10a9ba30b5b4b73390383430b9b29760891b6044820152606401610d1b565b6000600e54600183600f54612a269190615e02565b612a309190615bec565b11612a3b5781612a56565b600f54600e54612a4b9190615bec565b612a56906001615e02565b9050600081600f54612a689190615e02565b600f549091505b81811015612ae7576000818152600d60205260409020805460018201546002830154612ab7926001600160a01b03811692600160a01b9091046001600160601b031691614b39565b50506000818152600d60205260408120818155600181018290556002015580612adf81615d21565b915050612a6f565b50600f555050565b612af7615441565b60006007836001600160601b031681548110612b1557612b15615c5f565b60009182526020909120604080516080810191829052600b9093029091019250600683019060049082845b815481526020019060010190808311612b40575050505050915050919050565b6000546001600160a01b03163314612b8a5760405162461bcd60e51b8152600401610d1b90615baf565b6001600160601b03821660011480612bfd575080600780846001600160601b031681548110612bbb57612bbb615c5f565b60009182526020909120600b909102015481546001600160601b03909116908110612be857612be8615c5f565b90600052602060002090600b02016002015411155b612c195760405162461bcd60e51b8152600401610d1b90615d4a565b60005b6007836001600160601b031681548110612c3857612c38615c5f565b90600052602060002090600b020160010180549050811015612cf15781600780856001600160601b031681548110612c7257612c72615c5f565b90600052602060002090600b02016001018381548110612c9457612c94615c5f565b906000526020600020015481548110612caf57612caf615c5f565b90600052602060002090600b0201600201541015612cdf5760405162461bcd60e51b8152600401610d1b90615d4a565b80612ce981615d21565b915050612c1c565b50806007836001600160601b031681548110612d0f57612d0f615c5f565b90600052602060002090600b020160020181905550816001600160601b0316600080516020615f68833981519152604051612d66906020808252600890820152676d696e5374616b6560c01b604082015260600190565b60405180910390a25050565b606060088281548110612d8757612d87615c5f565b9060005260206000209060040201600101805480602002602001604051908101604052809291908181526020018280548015612de257602002820191906000526020600020905b815481526020019060010190808311612dce575b50505050509050919050565b600a8181548110612dfe57600080fd5b60009182526020909120600490910201805460018201546002909201546001600160601b0382169350600160601b9091046001600160a01b03169160ff80821692610100909204169085565b6000546001600160a01b03163314612e745760405162461bcd60e51b8152600401610d1b90615baf565b806007836001600160601b031681548110612e9157612e91615c5f565b90600052602060002090600b0201600601906004612eb0929190615414565b50816001600160601b0316600080516020615f68833981519152604051612d66906020808252600e908201526d1d1a5b595cd4195c94195c9a5bd960921b604082015260600190565b6000546001600160a01b03163314612f235760405162461bcd60e51b8152600401610d1b90615baf565b806007836001600160601b031681548110612f4057612f40615c5f565b90600052602060002090600b020160040181905550816001600160601b0316600080516020615f68833981519152604051612d66906020808252600b908201526a3332b2a337b9253ab937b960a91b604082015260600190565b600080600a8381548110612fb057612fb0615c5f565b6000918252602082206003600490920201908101805491935090612fd690600190615bec565b81548110612fe657612fe6615c5f565b600091825260208220845460078054938102909201945090916001600160601b0390911690811061301957613019615c5f565b90600052602060002090600b0201905080600501548260030154106130b85782546001600160601b03166001141561305a576001600160ff1b0393506130e2565b600382015461306a906002615e1a565b613075906001615e02565b81546007805490916001600160601b031690811061309557613095615c5f565b90600052602060002090600b0201600401546130b19190615e1a565b93506130e2565b60038201546130c8906002615e1a565b6130d3906001615e02565b8160040154611d409190615e1a565b505050919050565b6000546001600160a01b031633146131145760405162461bcd60e51b8152600401610d1b90615baf565b806007836001600160601b03168154811061313157613131615c5f565b90600052602060002090600b020160030181905550816001600160601b0316600080516020615f68833981519152604051612d6690602080825260059082015264616c70686160d81b604082015260600190565b6000546001600160a01b031633146131af5760405162461bcd60e51b8152600401610d1b90615baf565b6000836001600160a01b031683836040516131ca9190615ec0565b60006040518083038185875af1925050503d8060008114613207576040519150601f19603f3d011682016040523d82523d6000602084013e61320c565b606091505b50509050806132515760405162461bcd60e51b8152602060048201526011602482015270155b9cdd58d8d95cdcd99d5b0818d85b1b607a1b6044820152606401610d1b565b50505050565b6132643383836000614b39565b6132a15760405162461bcd60e51b815260206004820152600e60248201526d14dd185ada5b99c819985a5b195960921b6044820152606401610d1b565b5050565b6000546001600160a01b031633146132cf5760405162461bcd60e51b8152600401610d1b90615baf565b600355565b6001600160a01b0381166000908152600b6020908152604091829020805483518184028101840190945280845260609392830182828015612de257602002820191906000526020600020906000905b82829054906101000a90046001600160601b03166001600160601b0316815260200190600c0190602082600b01049283019260010382029150808411613323575094979650505050505050565b6000806000806060600080600a898154811061338e5761338e615c5f565b906000526020600020906004020160030188815481106133b0576133b0615c5f565b9060005260206000209060070201905080600101548160020154826004015483600501548460060185600001548180548060200260200160405190810160405280929190818152602001828054801561343257602002820191906000526020600020905b81546001600160a01b03168152600190910190602001808311613414575b50505050509150965096509650965096509650509295509295509295565b6000600a828154811061346557613465615c5f565b600091825260209091206004918202019150600182015460ff1660048111156134905761349061583b565b146134ad5760405162461bcd60e51b8152600401610d1b90615dd7565b6001810154610100900460ff16156135015760405162461bcd60e51b8152602060048201526017602482015276149d5b1a5b99c8185b1c9958591e48195e1958dd5d1959604a1b6044820152606401610d1b565b600061350c83611c3e565b60018301805461ff001916610100179055825460405163188d362b60e11b815260048101869052602481018390529192506001600160a01b03600160601b909104169063311a6c5690604401600060405180830381600087803b15801561357257600080fd5b505af1158015613586573d6000803e3d6000fd5b50505050505050565b6009818154811061359f57600080fd5b600091825260209091200154905081565b6000806000600a84815481106135c8576135c8615c5f565b60009182526020822060036004909202019081018054919350906135ee90600190615bec565b815481106135fe576135fe615c5f565b90600052602060002090600702019050600881600001548154811061362557613625615c5f565b6000918252602090912060049182020160020154604051639b05c26160e01b81529182018790526001600160a01b031690639b05c26190602401604080518083038186803b15801561367657600080fd5b505afa15801561368a573d6000803e3d6000fd5b505050506040513d601f19601f820116820180604052508101906136ae9190615edc565b90969095509350505050565b6000546001600160a01b031633146136e45760405162461bcd60e51b8152600401610d1b90615baf565b806007836001600160601b03168154811061370157613701615c5f565b90600052602060002090600b0201600001600c6101000a81548160ff021916908315150217905550816001600160601b0316600080516020615f68833981519152604051612d66906020808252600b908201526a68696464656e566f74657360a81b604082015260600190565b6000546001600160a01b031633146137985760405162461bcd60e51b8152600401610d1b90615baf565b806007836001600160601b0316815481106137b5576137b5615c5f565b90600052602060002090600b020160050181905550816001600160601b0316600080516020615f68833981519152604051612d669060208082526012908201527106a75726f7273466f72436f7572744a756d760741b604082015260600190565b6000806000600a848154811061382e5761382e615c5f565b6000918252602090912060049091020190506003600182015460ff16600481111561385b5761385b61583b565b14156138b4576002810154815460078054929550916001600160601b0390911690811061388a5761388a615c5f565b600091825260209091206009600b90920201015460028201546138ad9190615e02565b91506138bd565b60009250600091505b50915091565b6000546001600160a01b031633146138ed5760405162461bcd60e51b8152600401610d1b90615baf565b600455565b60006001600254600160a01b900460ff1660018111156139145761391461583b565b14801561392f575060045460055461392c9042615bec565b10155b905090565b600061393f826149e6565b34101561398e5760405162461bcd60e51b815260206004820181905260248201527f45544820746f6f206c6f7720666f72206172626974726174696f6e20636f73746044820152606401610d1b565b60008061399a8461521f565b92505091506007826001600160601b0316815481106139bb576139bb615c5f565b60009182526020808320848452600a600b90930201919091019052604090205460ff16613a2a5760405162461bcd60e51b815260206004820152601a60248201527f444b20756e737570706f7274656420627920737562636f7572740000000000006044820152606401610d1b565b600a80546001810182556000918252600160601b33026001600160601b03851617600482027fc65a7bb8d6351c1cf70c95a316cc6a92839c986682d98bc35f958f4883f9d2a88101918255427fc65a7bb8d6351c1cf70c95a316cc6a92839c986682d98bc35f958f4883f9d2aa909101556008805492965090929184908110613ab557613ab5615c5f565b600091825260208220600260049092020101548354600780546001600160a01b039093169450916001600160601b03909116908110613af657613af6615c5f565b60009182526020808320600387018054600181018255908552919093206004600b9093029093019182015491935060070290910190613b359034615e4f565b600380830191909155858255820154600283015461271091613b5691615e1a565b613b609190615e4f565b60018201553460028201556008805486908110613b7f57613b7f615c5f565b906000526020600020906004020160020160149054906101000a900460ff16613c1657600160088681548110613bb757613bb7615c5f565b6000918252602082206002600490920201018054921515600160a01b0260ff60a01b19909316929092179091556009805460018101825591527f6e1540171b6c0c960b71a7020d9f60077f6af931a8bbf590da0223dacf75c7af018590555b60038101546040516302dbb79560e61b81526001600160a01b0385169163b6ede54091613c4b918b918e918e91600401615f01565b600060405180830381600087803b158015613c6557600080fd5b505af1158015613c79573d6000803e3d6000fd5b50506040513392508991507f141dfc18aa6a56fc816f44f0e9e2f1ebc92b15ab167770e17db5b084c10ed99590600090a350505050505092915050565b6000546001600160a01b03163314613ce05760405162461bcd60e51b8152600401610d1b90615baf565b600280546001600160a01b0319166001600160a01b0392909216919091179055565b613d0b83612f9a565b341015613d5a5760405162461bcd60e51b815260206004820152601b60248201527f45544820746f6f206c6f7720666f722061707065616c20636f737400000000006044820152606401610d1b565b6000600a8481548110613d6f57613d6f615c5f565b6000918252602090912060049091020190506003600182015460ff166004811115613d9c57613d9c61583b565b14613de25760405162461bcd60e51b815260206004820152601660248201527544697370757465206e6f742061707065616c61626c6560501b6044820152606401610d1b565b60038101805460009190613df890600190615bec565b81548110613e0857613e08615c5f565b906000526020600020906007020190506008816000015481548110613e2f57613e2f615c5f565b60009182526020909120600490910201600201546001600160a01b03163314613e8d5760405162461bcd60e51b815260206004820152601060248201526f44697370757465204b6974206f6e6c7960801b6044820152606401610d1b565b8154815460038401805460018101825560009182526020909120600780546001600160601b03909516949281029091019184908110613ece57613ece615c5f565b90600052602060002090600b0201600501548460030154106140d2576007836001600160601b031681548110613f0657613f06615c5f565b600091825260208220600b90910201546001600160601b031693505b600a811015614017576007846001600160601b031681548110613f4757613f47615c5f565b60009182526020808320868452600a600b90930201919091019052604090205460ff1615613f7457614017565b600060088481548110613f8957613f89615c5f565b90600052602060002090600402016000015414613fcc5760088381548110613fb357613fb3615c5f565b9060005260206000209060040201600001549250614005565b6007846001600160601b031681548110613fe857613fe8615c5f565b60009182526020909120600b90910201546001600160601b031693505b8061400f81615d21565b915050613f22565b506007836001600160601b03168154811061403457614034615c5f565b60009182526020808320858452600a600b90930201919091019052604090205460ff1661406057600192505b84546001600160601b038481169116146140d257845460038601546001600160601b039091169061409390600190615bec565b6040516001600160601b03861681528a907f736e3f52761298c8c0823e1ebf482ed3c5ecb304f743d2d91a7c006e8e8d7a1f9060200160405180910390a45b84546001600160601b0319166001600160601b038416908117865560018601805460ff191690554260028701556007805460009290811061411557614115615c5f565b90600052602060002090600b020190508060040154346141359190615e4f565b8260030181905550612710816003015482600201546141549190615e1a565b61415e9190615e4f565b6001830155346002830155828255600880548490811061418057614180615c5f565b906000526020600020906004020160020160149054906101000a900460ff16614217576001600884815481106141b8576141b8615c5f565b6000918252602082206002600490920201018054921515600160a01b0260ff60a01b19909316929092179091556009805460018101825591527f6e1540171b6c0c960b71a7020d9f60077f6af931a8bbf590da0223dacf75c7af018390555b84548254146142fd578454600387015461423390600190615bec565b83546040519081528b907fcbe7939a71f0b369c7471d760a0a99b60b7bb010ee0406cba8a46679d1ea77569060200160405180910390a4600882600001548154811061428157614281615c5f565b600091825260209091206004918202016002015460038401546040516302dbb79560e61b81526001600160a01b039092169263b6ede540926142ca928e928e928e929101615f01565b600060405180830381600087803b1580156142e457600080fd5b505af11580156142f8573d6000803e3d6000fd5b505050505b8554604051600160601b9091046001600160a01b0316908a907f9c9b64db9e130f48381bf697abf638e73117dbfbfd7a4484f2da3ba188f4187d90600090a3887f4e6f5cf43b95303e86aee81683df63992061723a829ee012db21dad388756b91600060405161436d9190615d3c565b60405180910390a2505050505050505050565b600080600a838154811061439657614396615c5f565b9060005260206000209060040201905080600301600182600301805490506143be9190615bec565b815481106143ce576143ce615c5f565b906000526020600020906007020160030154915050919050565b6001600254600160a01b900460ff1660018111156144085761440861583b565b146144435760405162461bcd60e51b815260206004820152600b60248201526a57726f6e6720706861736560a81b6044820152606401610d1b565b6000600a838154811061445857614458615c5f565b9060005260206000209060040201905060006001826003018054905061447e9190615bec565b9050600082600301828154811061449757614497615c5f565b6000918252602082206007909102019150600184015460ff1660048111156144c1576144c161583b565b146145015760405162461bcd60e51b815260206004820152601060248201526f08515d9a59195b98d9481c195c9a5bd960821b6044820152606401610d1b565b6000600882600001548154811061451a5761451a615c5f565b60009182526020822060026004909202010154600684015460038501546001600160a01b03909216935091906145508884615e02565b111561456057836003015461456a565b61456a8783615e02565b9050815b818110156146de57604051633b30414760e01b8152600481018a90526000906001600160a01b03861690633b30414790602401602060405180830381600087803b1580156145bb57600080fd5b505af11580156145cf573d6000803e3d6000fd5b505050506040513d601f19601f820116820180604052508101906145f39190615f4a565b90506001600160a01b038116156146cb5760018601546001600160a01b0382166000908152600b602090815260408083208c546001600160601b0316845260020190915281208054909190614649908490615e02565b909155505060068601546040805189815260208101929092528b916001600160a01b038416917f6119cf536152c11e0a9a6c22f3953ce4ecc93ee54fa72ffa326ffabded21509b910160405180910390a3600686018054600181018255600091825260209091200180546001600160a01b0319166001600160a01b0383161790555b50806146d681615d21565b91505061456e565b505050505050505050565b6060600980548060200260200160405190810160405280929190818152602001828054801561473757602002820191906000526020600020905b815481526020019060010190808311614723575b5050505050905090565b6000546001600160a01b0316331461476b5760405162461bcd60e51b8152600401610d1b90615baf565b600080546001600160a01b0319166001600160a01b0392909216919091179055565b6000546001600160a01b031633146147b75760405162461bcd60e51b8152600401610d1b90615baf565b6008548082106147f35760405162461bcd60e51b81526020600482015260076024820152660854185c995b9d60ca1b6044820152606401610d1b565b60008215614870576008838154811061480e5761480e615c5f565b906000526020600020906004020160030154600161482c9190615e02565b9050600a81106148705760405162461bcd60e51b815260206004820152600f60248201526e088cae0e8d040d8caeccad840dac2f608b1b6044820152606401610d1b565b6040805160a08101825284815281516000808252602080830185528084019283526001600160a01b038916948401949094526060830181905260808301859052600880546001810182559152825160049091027ff3f7a9fe364faab93b216da50a3214154f22a0a2b415b23a84c8169e8b636ee381019182559151805193949193614922937ff3f7a9fe364faab93b216da50a3214154f22a0a2b415b23a84c8169e8b636ee4019291909101906153c9565b50604082015160028201805460608501511515600160a01b026001600160a81b03199091166001600160a01b0390931692909217919091179055608090910151600390910155600880548490811061497c5761497c615c5f565b600091825260208083206001600490930201820180549283018155835282200183905560405184916001600160a01b0387169185917f7921860794ac14fda09ee75f7160a5a3d266e3352f7954d0401606a92a26c49891a482613251576132516001836001614ab1565b60008060006149f48461521f565b5091509150806007836001600160601b031681548110614a1657614a16615c5f565b90600052602060002090600b020160040154614a329190615e1a565b949350505050565b6000600a8281548110614a4f57614a4f615c5f565b600091825260209091206003600490920201015492915050565b60006007836001600160601b031681548110614a8757614a87615c5f565b60009182526020808320948352600b91909102909301600a0190925250604090205460ff16919050565b806007846001600160601b031681548110614ace57614ace615c5f565b60009182526020808320868452600b92909202909101600a0190526040808220805460ff19169315159390931790925590518215159184916001600160601b038716917fb47629acdf64971062d40984f77d3dee212d735b11e3e8c7a4222d9f0572cc7991a4505050565b60006001600160601b0384161580614b5b57506007546001600160601b038516115b15614b6857506000614a32565b6001600160a01b0385166000908152600b6020526040812090614b8b87876152a3565b604051637521ccb160e01b8152600c60048201526001600160601b03881660248201526044810182905290915060009073__$52cf47af9c3c0d67e54ac2a3225447effa$__90637521ccb19060640160206040518083038186803b158015614bf257600080fd5b505af4158015614c06573d6000803e3d6000fd5b505050506040513d601f19601f82011682018060405250810190614c2a9190615cac565b90508515614cb8576007876001600160601b031681548110614c4e57614c4e615c5f565b90600052602060002090600b020160020154861080614c8657506001600160601b038716600090815260028401602052604090205486105b15614c975760009350505050614a32565b80158015614ca757508254600411155b15614cb85760009350505050614a32565b6000600254600160a01b900460ff166001811115614cd857614cd861583b565b14614d84576040518060800160405280896001600160a01b03168152602001886001600160601b0316815260200187815260200186815250600d6000600e60008154614d2390615d21565b9182905550815260208082019290925260409081016000208351928401516001600160601b0316600160a01b026001600160a01b039093169290921782558201516001808301919091556060909201516002909101559350614a3292505050565b6000818710614e0157614d978288615bec565b90508015614def57614daa8930836152eb565b15614df45781614def578354600180820186556000868152602090206002830401805491909216600c026101000a6001600160601b0381810219909216918b16021790555b614fd6565b6000945050505050614a32565b86614f9e576001600160601b03881660009081526002850160205260409020548690614e2d9084615bec565b614e379190615bec565b90508015614def57614e498982615153565b15614df45760005b8454811015614f9857886001600160601b0316856000018281548110614e7957614e79615c5f565b600091825260209091206002820401546001909116600c026101000a90046001600160601b03161415614f865784548590614eb690600190615bec565b81548110614ec657614ec6615c5f565b9060005260206000209060029182820401919006600c029054906101000a90046001600160601b0316856000018281548110614f0457614f04615c5f565b9060005260206000209060029182820401919006600c026101000a8154816001600160601b0302191690836001600160601b0316021790555084600001805480614f5057614f50615cc5565b60008281526020902060026000199092019182040180546001600160601b03600c60018516026101000a02191690559055614f98565b80614f9081615d21565b915050614e51565b50614fd6565b85614fa98884615bec565b614fb39190615bec565b90508015614fd657614fc58982615153565b614fd6576000945050505050614a32565b6001600160601b03881660009081526001850160205260408120548890614ffe908590615bec565b6150089190615e02565b6001600160601b038a16600081815260018801602052604081208390559192505b816150ec57604051631712e1c560e11b8152600c600482015260248101829052604481018b90526064810187905273__$52cf47af9c3c0d67e54ac2a3225447effa$__90632e25c38a9060840160006040518083038186803b15801561508e57600080fd5b505af41580156150a2573d6000803e3d6000fd5b5050505060018114156150b85760019150615029565b600781815481106150cb576150cb615c5f565b60009182526020909120600b90910201546001600160601b03169050615029565b604080516001600160601b038d168152602081018c90529081018490526001600160a01b038d16907f70ca4ec64687bf265f39041896f3dbf10b9f650503cb38f2b3569fdce7489c369060600160405180910390a25060019b9a5050505050505050505050565b600154604080516001600160a01b038581166024830152604480830186905283518084039091018152606490920183526020820180516001600160e01b031663a9059cbb60e01b1790529151600093849384939116916151b39190615ec0565b6000604051808303816000865af19150503d80600081146151f0576040519150601f19603f3d011682016040523d82523d6000602084013e6151f5565b606091505b5091509150818015611d40575080511580611d40575080806020019051810190611d409190615c03565b60008060006040845110615291575050506020810151604082015160608301516001600160601b038316158061526057506007546001600160601b03841610155b1561526a57600192505b8161527457600391505b80158061528357506008548110155b1561528c575060015b61529c565b506001915060039050815b9193909250565b600060405160005b60148110156152c6578481600c011a818301536001016152ab565b5060145b60208110156152e25783811a818301536001016152ca565b50519392505050565b600154604080516001600160a01b0386811660248301528581166044830152606480830186905283518084039091018152608490920183526020820180516001600160e01b03166323b872dd60e01b1790529151600093849384939116916153539190615ec0565b6000604051808303816000865af19150503d8060008114615390576040519150601f19603f3d011682016040523d82523d6000602084013e615395565b606091505b50915091508180156153bf5750805115806153bf5750808060200190518101906153bf9190615c03565b9695505050505050565b828054828255906000526020600020908101928215615404579160200282015b828111156154045782518255916020019190600101906153e9565b5061541092915061545f565b5090565b826004810192821561540457916020028201828111156154045782518255916020019190600101906153e9565b60405180608001604052806004906020820280368337509192915050565b5b808211156154105760008155600101615460565b6001600160a01b038116811461548957600080fd5b50565b60006020828403121561549e57600080fd5b81356154a981615474565b9392505050565b80356001600160601b03811681146154c757600080fd5b919050565b634e487b7160e01b600052604160045260246000fd5b604051601f8201601f191681016001600160401b038111828210171561550a5761550a6154cc565b604052919050565b600082601f83011261552357600080fd5b813560206001600160401b0382111561553e5761553e6154cc565b8160051b61554d8282016154e2565b928352848101820192828101908785111561556757600080fd5b83870192505b848310156155865782358252918301919083019061556d565b979650505050505050565b801515811461548957600080fd5b6000806000606084860312156155b457600080fd5b6155bd846154b0565b925060208401356001600160401b038111156155d857600080fd5b6155e486828701615512565b92505060408401356155f581615591565b809150509250925092565b60006020828403121561561257600080fd5b5035919050565b6000806040838503121561562c57600080fd5b50508035926020909101359150565b600082601f83011261564c57600080fd5b604051608081018181106001600160401b038211171561566e5761566e6154cc565b60405280608084018581111561568357600080fd5b845b8181101561569d578035835260209283019201615685565b509195945050505050565b60008060008060008060008060006101808a8c0312156156c757600080fd5b6156d08a6154b0565b985060208a01356156e081615591565b975060408a0135965060608a0135955060808a0135945060a08a0135935061570b8b60c08c0161563b565b92506101408a013591506101608a01356001600160401b0381111561572f57600080fd5b61573b8c828d01615512565b9150509295985092959850929598565b60008060006060848603121561576057600080fd5b505081359360208301359350604090920135919050565b60006020828403121561578957600080fd5b6154a9826154b0565b8060005b6004811015613251578151845260209384019390910190600101615796565b60808101611dd18284615792565b600080604083850312156157d657600080fd5b6157df836154b0565b946020939093013593505050565b600081518084526020808501945080840160005b8381101561581d57815187529582019590820190600101615801565b509495945050505050565b6020815260006154a960208301846157ed565b634e487b7160e01b600052602160045260246000fd5b600581106158615761586161583b565b9052565b6001600160601b03861681526001600160a01b038516602082015260a081016158916040830186615851565b9215156060820152608001529392505050565b60008060a083850312156158b757600080fd5b6158c0836154b0565b91506158cf846020850161563b565b90509250929050565b600082601f8301126158e957600080fd5b81356001600160401b03811115615902576159026154cc565b615915601f8201601f19166020016154e2565b81815284602083860101111561592a57600080fd5b816020850160208301376000918101602001919091529392505050565b60008060006060848603121561595c57600080fd5b833561596781615474565b92506020840135915060408401356001600160401b0381111561598957600080fd5b615995868287016158d8565b9150509250925092565b6020808252825182820181905260009190848201906040850190845b818110156159e05783516001600160601b0316835292840192918401916001016159bb565b50909695505050505050565b600060c082018883526020888185015287604085015286606085015260c0608085015281865180845260e086019150828801935060005b81811015615a485784516001600160a01b031683529383019391830191600101615a23565b50508093505050508260a0830152979650505050505050565b60008060408385031215615a7457600080fd5b615a7d836154b0565b91506020830135615a8d81615591565b809150509250929050565b6020810160028310615aac57615aac61583b565b91905290565b60008060408385031215615ac557600080fd5b8235915060208301356001600160401b03811115615ae257600080fd5b615aee858286016158d8565b9150509250929050565b600080600060608486031215615b0d57600080fd5b833592506020840135915060408401356001600160401b0381111561598957600080fd5b60008060408385031215615b4457600080fd5b8235615b4f81615474565b91506158cf602084016154b0565b60008060408385031215615b7057600080fd5b82356157df81615474565b600060208284031215615b8d57600080fd5b81356001600160401b03811115615ba357600080fd5b614a32848285016158d8565b6020808252600d908201526c476f7665726e6f72206f6e6c7960981b604082015260600190565b634e487b7160e01b600052601160045260246000fd5b600082821015615bfe57615bfe615bd6565b500390565b600060208284031215615c1557600080fd5b81516154a981615591565b60008083128015600160ff1b850184121615615c3e57615c3e615bd6565b6001600160ff1b0384018313811615615c5957615c59615bd6565b50500390565b634e487b7160e01b600052603260045260246000fd5b6020808252601e908201527f536f6d6520444b206e6f7420696e205265736f6c76696e672070686173650000604082015260600190565b600060208284031215615cbe57600080fd5b5051919050565b634e487b7160e01b600052603160045260246000fd5b6000600160ff1b821415615cf157615cf1615bd6565b506000190190565b6020808252600e908201526d0aee4dedcce40889640d2dcc8caf60931b604082015260600190565b6000600019821415615d3557615d35615bd6565b5060010190565b60208101611dd18284615851565b6020808252818101527f4d696e5374616b65206c6f776572207468616e20706172656e7420636f757274604082015260600190565b60006101608a15158352896020840152886040840152876060840152866080840152615dae60a0840187615792565b8461012084015280610140840152615dc8818401856157ed565b9b9a5050505050505050505050565b60208082526011908201527008515e1958dd5d1a5bdb881c195c9a5bd9607a1b604082015260600190565b60008219821115615e1557615e15615bd6565b500190565b6000816000190483118215151615615e3457615e34615bd6565b500290565b634e487b7160e01b600052601260045260246000fd5b600082615e5e57615e5e615e39565b500490565b6000600160ff1b821415615e7957615e79615bd6565b5060000390565b600082615e8f57615e8f615e39565b500690565b60005b83811015615eaf578181015183820152602001615e97565b838111156132515750506000910152565b60008251615ed2818460208701615e94565b9190910192915050565b60008060408385031215615eef57600080fd5b825191506020830151615a8d81615591565b8481528360208201526080604082015260008351806080840152615f2c8160a0850160208801615e94565b606083019390935250601f91909101601f19160160a0019392505050565b600060208284031215615f5c57600080fd5b81516154a98161547456fefb75175e7dd144a612469a4316b0a6e4cee24cb54400dfdc7bfe1546cd0e309da2646970667358221220aa38ce5c97ec4a2d770f1e29afa26e0aaa87cb3c1478438fd4e7307954b981e964736f6c63430008090033",
  "libraries": {
    "SortitionSumTreeFactory": "0x40a78989317B953e427B3BD87C59eA003fcC2296"
  },
  "devdoc": {
    "kind": "dev",
    "methods": {
      "addNewDisputeKit(address,uint256)": {
        "details": "Add a new supported dispute kit module to the court.",
        "params": {
          "_disputeKitAddress": "The address of the dispute kit contract.",
          "_parent": "The ID of the parent dispute kit. It is left empty when root DK is created.  Note that the root DK must be supported by the general court."
        }
      },
      "appeal(uint256,uint256,bytes)": {
        "details": "Appeals the ruling of a specified dispute.  Note: Access restricted to the Dispute Kit for this `disputeID`.",
        "params": {
          "_disputeID": "The ID of the dispute.",
          "_extraData": "Extradata for the dispute. Can be required during court jump.",
          "_numberOfChoices": "Number of choices for the dispute. Can be required during court jump."
        }
      },
      "appealCost(uint256)": {
        "details": "Gets the cost of appealing a specified dispute.",
        "params": {
          "_disputeID": "The ID of the dispute."
        },
        "returns": {
          "cost": "The appeal cost."
        }
      },
      "appealPeriod(uint256)": {
        "details": "Gets the start and the end of a specified dispute's current appeal period.",
        "params": {
          "_disputeID": "The ID of the dispute."
        },
        "returns": {
          "end": "The end of the appeal period.",
          "start": "The start of the appeal period."
        }
      },
      "arbitrationCost(bytes)": {
        "details": "Gets the cost of arbitration in a specified subcourt.",
        "params": {
          "_extraData": "Additional info about the dispute. We use it to pass the ID of the subcourt to create the dispute in (first 32 bytes)  and the minimum number of jurors required (next 32 bytes)."
        },
        "returns": {
          "cost": "The arbitration cost."
        }
      },
      "changeGovernor(address)": {
        "details": "Changes the `governor` storage variable.",
        "params": {
          "_governor": "The new value for the `governor` storage variable."
        }
      },
      "changeJurorProsecutionModule(address)": {
        "details": "Changes the `jurorProsecutionModule` storage variable.",
        "params": {
          "_jurorProsecutionModule": "The new value for the `jurorProsecutionModule` storage variable."
        }
      },
      "changeMaxFreezingTime(uint256)": {
        "details": "Changes the `maxFreezingTime` storage variable.",
        "params": {
          "_maxFreezingTime": "The new value for the `maxFreezingTime` storage variable."
        }
      },
      "changeMinStakingTime(uint256)": {
        "details": "Changes the `minStakingTime` storage variable.",
        "params": {
          "_minStakingTime": "The new value for the `minStakingTime` storage variable."
        }
      },
      "changePinakion(address)": {
        "details": "Changes the `pinakion` storage variable.",
        "params": {
          "_pinakion": "The new value for the `pinakion` storage variable."
        }
      },
      "changeSubcourtAlpha(uint96,uint256)": {
        "details": "Changes the `alpha` property value of a specified subcourt.",
        "params": {
          "_alpha": "The new value for the `alpha` property value.",
          "_subcourtID": "The ID of the subcourt."
        }
      },
      "changeSubcourtHiddenVotes(uint96,bool)": {
        "details": "Changes the `hiddenVotes` property value of a specified subcourt.",
        "params": {
          "_hiddenVotes": "The new value for the `hiddenVotes` property value.",
          "_subcourtID": "The ID of the subcourt."
        }
      },
      "changeSubcourtJurorFee(uint96,uint256)": {
        "details": "Changes the `feeForJuror` property value of a specified subcourt.",
        "params": {
          "_feeForJuror": "The new value for the `feeForJuror` property value.",
          "_subcourtID": "The ID of the subcourt."
        }
      },
      "changeSubcourtJurorsForJump(uint96,uint256)": {
        "details": "Changes the `jurorsForCourtJump` property value of a specified subcourt.",
        "params": {
          "_jurorsForCourtJump": "The new value for the `jurorsForCourtJump` property value.",
          "_subcourtID": "The ID of the subcourt."
        }
      },
      "changeSubcourtMinStake(uint96,uint256)": {
        "details": "Changes the `minStake` property value of a specified subcourt. Don't set to a value lower than its parent's `minStake` property value.",
        "params": {
          "_minStake": "The new value for the `minStake` property value.",
          "_subcourtID": "The ID of the subcourt."
        }
      },
      "changeSubcourtTimesPerPeriod(uint96,uint256[4])": {
        "details": "Changes the `timesPerPeriod` property value of a specified subcourt.",
        "params": {
          "_subcourtID": "The ID of the subcourt.",
          "_timesPerPeriod": "The new value for the `timesPerPeriod` property value."
        }
      },
      "constructor": {
        "details": "Constructor.",
        "params": {
          "_courtParameters": "Numeric parameters of General court (minStake, alpha, feeForJuror and jurorsForCourtJump respectively).",
          "_disputeKit": "The address of the default dispute kit.",
          "_governor": "The governor's address.",
          "_hiddenVotes": "The `hiddenVotes` property value of the general court.",
          "_jurorProsecutionModule": "The address of the juror prosecution module.",
          "_phaseTimeouts": "minStakingTime and maxFreezingTime respectively",
          "_pinakion": "The address of the token contract.",
          "_sortitionSumTreeK": "The number of children per node of the general court's sortition sum tree.",
          "_timesPerPeriod": "The `timesPerPeriod` property value of the general court."
        }
      },
      "createDispute(uint256,bytes)": {
        "details": "Creates a dispute. Must be called by the arbitrable contract.",
        "params": {
          "_extraData": "Additional info about the dispute. We use it to pass the ID of the dispute's subcourt (first 32 bytes),  the minimum number of jurors required (next 32 bytes) and the ID of the specific dispute kit (last 32 bytes).",
          "_numberOfChoices": "Number of choices for the jurors to choose from."
        },
        "returns": {
          "disputeID": "The ID of the created dispute."
        }
      },
      "createSubcourt(uint96,bool,uint256,uint256,uint256,uint256,uint256[4],uint256,uint256[])": {
        "details": "Creates a subcourt under a specified parent court.",
        "params": {
          "_alpha": "The `alpha` property value of the subcourt.",
          "_feeForJuror": "The `feeForJuror` property value of the subcourt.",
          "_hiddenVotes": "The `hiddenVotes` property value of the subcourt.",
          "_jurorsForCourtJump": "The `jurorsForCourtJump` property value of the subcourt.",
          "_minStake": "The `minStake` property value of the subcourt.",
          "_parent": "The `parent` property value of the subcourt.",
          "_sortitionSumTreeK": "The number of children per node of the subcourt's sortition sum tree.",
          "_supportedDisputeKits": "Indexes of dispute kits that this subcourt will support.",
          "_timesPerPeriod": "The `timesPerPeriod` property value of the subcourt."
        }
      },
      "currentRuling(uint256)": {
        "details": "Gets the current ruling of a specified dispute.",
        "params": {
          "_disputeID": "The ID of the dispute."
        },
        "returns": {
          "ruling": "The current ruling."
        }
      },
      "draw(uint256,uint256)": {
        "details": "Draws jurors for the dispute. Can be called in parts.",
        "params": {
          "_disputeID": "The ID of the dispute.",
          "_iterations": "The number of iterations to run."
        }
      },
      "enableDisputeKits(uint96,uint256[],bool)": {
        "details": "Adds/removes court's support for specified dispute kits.",
        "params": {
          "_disputeKitIDs": "The IDs of dispute kits which support should be added/removed.",
          "_enable": "Whether add or remove the dispute kits from the subcourt.",
          "_subcourtID": "The ID of the subcourt."
        }
      },
      "execute(uint256,uint256,uint256)": {
        "details": "Distribute tokens and ETH for the specific round of the dispute. Can be called in parts.",
        "params": {
          "_disputeID": "The ID of the dispute.",
          "_iterations": "The number of iterations to run.",
          "_round": "The appeal round."
        }
      },
      "executeDelayedStakes(uint256)": {
        "details": "Executes the next delayed stakes.",
        "params": {
          "_iterations": "The number of delayed stakes to execute."
        }
      },
      "executeGovernorProposal(address,uint256,bytes)": {
        "details": "Allows the governor to call anything on behalf of the contract.",
        "params": {
          "_amount": "The value sent with the call.",
          "_data": "The data sent with the call.",
          "_destination": "The destination of the call."
        }
      },
      "executeRuling(uint256)": {
        "details": "Executes a specified dispute's ruling. UNTRUSTED.",
        "params": {
          "_disputeID": "The ID of the dispute."
        }
      },
      "getDisputeKitChildren(uint256)": {
        "details": "Gets non-primitive properties of a specified dispute kit node.",
        "params": {
          "_disputeKitID": "The ID of the dispute kit."
        },
        "returns": {
          "_0": "children Indexes of children of this DK."
        }
      },
      "getTimesPerPeriod(uint96)": {
        "details": "Gets the timesPerPeriod array for a given court.",
        "params": {
          "_subcourtID": "The ID of the court to get the times from."
        },
        "returns": {
          "timesPerPeriod": "The timesPerPeriod array for the given court."
        }
      },
      "isDisputeKitJumping(uint256)": {
        "details": "Returns true if the dispute kit will be switched to a parent DK.",
        "params": {
          "_disputeID": "The ID of the dispute."
        },
        "returns": {
          "_0": "Whether DK will be switched or not."
        }
      },
      "passPeriod(uint256)": {
        "details": "Passes the period of a specified dispute.",
        "params": {
          "_disputeID": "The ID of the dispute."
        }
      },
      "passPhase()": {
        "details": "Switches the phases between Staking and Freezing, also signal the switch to the dispute kits."
      },
      "setStake(uint96,uint256)": {
        "details": "Sets the caller's stake in a subcourt.",
        "params": {
          "_stake": "The new stake.",
          "_subcourtID": "The ID of the subcourt."
        }
      }
    },
    "title": "KlerosCore  Core arbitrator contract for Kleros v2.  Note that this contract trusts the token and the dispute kit contracts.",
    "version": 1
  },
  "userdoc": {
    "kind": "user",
    "methods": {},
    "version": 1
  },
  "storageLayout": {
    "storage": [
      {
        "astId": 439,
        "contract": "src/arbitration/KlerosCore.sol:KlerosCore",
        "label": "governor",
        "offset": 0,
        "slot": "0",
        "type": "t_address"
      },
      {
        "astId": 442,
        "contract": "src/arbitration/KlerosCore.sol:KlerosCore",
        "label": "pinakion",
        "offset": 0,
        "slot": "1",
        "type": "t_contract(IERC20)77"
      },
      {
        "astId": 444,
        "contract": "src/arbitration/KlerosCore.sol:KlerosCore",
        "label": "jurorProsecutionModule",
        "offset": 0,
        "slot": "2",
        "type": "t_address"
      },
      {
        "astId": 447,
        "contract": "src/arbitration/KlerosCore.sol:KlerosCore",
        "label": "phase",
        "offset": 20,
        "slot": "2",
        "type": "t_enum(Phase)306"
      },
      {
        "astId": 449,
        "contract": "src/arbitration/KlerosCore.sol:KlerosCore",
        "label": "minStakingTime",
        "offset": 0,
        "slot": "3",
        "type": "t_uint256"
      },
      {
        "astId": 451,
        "contract": "src/arbitration/KlerosCore.sol:KlerosCore",
        "label": "maxFreezingTime",
        "offset": 0,
        "slot": "4",
        "type": "t_uint256"
      },
      {
        "astId": 453,
        "contract": "src/arbitration/KlerosCore.sol:KlerosCore",
        "label": "lastPhaseChange",
        "offset": 0,
        "slot": "5",
        "type": "t_uint256"
      },
      {
        "astId": 455,
        "contract": "src/arbitration/KlerosCore.sol:KlerosCore",
        "label": "freezeBlock",
        "offset": 0,
        "slot": "6",
        "type": "t_uint256"
      },
      {
        "astId": 459,
        "contract": "src/arbitration/KlerosCore.sol:KlerosCore",
        "label": "courts",
        "offset": 0,
        "slot": "7",
        "type": "t_array(t_struct(Court)336_storage)dyn_storage"
      },
      {
        "astId": 463,
        "contract": "src/arbitration/KlerosCore.sol:KlerosCore",
        "label": "disputeKitNodes",
        "offset": 0,
        "slot": "8",
        "type": "t_array(t_struct(DisputeKitNode)394_storage)dyn_storage"
      },
      {
        "astId": 466,
        "contract": "src/arbitration/KlerosCore.sol:KlerosCore",
        "label": "disputesKitIDsThatNeedFreezing",
        "offset": 0,
        "slot": "9",
        "type": "t_array(t_uint256)dyn_storage"
      },
      {
        "astId": 470,
        "contract": "src/arbitration/KlerosCore.sol:KlerosCore",
        "label": "disputes",
        "offset": 0,
        "slot": "10",
        "type": "t_array(t_struct(Dispute)353_storage)dyn_storage"
      },
      {
        "astId": 475,
        "contract": "src/arbitration/KlerosCore.sol:KlerosCore",
        "label": "jurors",
        "offset": 0,
        "slot": "11",
        "type": "t_mapping(t_address,t_struct(Juror)381_storage)"
      },
      {
        "astId": 478,
        "contract": "src/arbitration/KlerosCore.sol:KlerosCore",
        "label": "sortitionSumTrees",
        "offset": 0,
        "slot": "12",
        "type": "t_struct(SortitionSumTrees)8544_storage"
      },
      {
        "astId": 483,
        "contract": "src/arbitration/KlerosCore.sol:KlerosCore",
        "label": "delayedStakes",
        "offset": 0,
        "slot": "13",
        "type": "t_mapping(t_uint256,t_struct(DelayedStake)403_storage)"
      },
      {
        "astId": 485,
        "contract": "src/arbitration/KlerosCore.sol:KlerosCore",
        "label": "delayedStakeWriteIndex",
        "offset": 0,
        "slot": "14",
        "type": "t_uint256"
      },
      {
        "astId": 488,
        "contract": "src/arbitration/KlerosCore.sol:KlerosCore",
        "label": "delayedStakeReadIndex",
        "offset": 0,
        "slot": "15",
        "type": "t_uint256"
      }
    ],
    "types": {
      "t_address": {
        "encoding": "inplace",
        "label": "address",
        "numberOfBytes": "20"
      },
      "t_array(t_address)dyn_storage": {
        "base": "t_address",
        "encoding": "dynamic_array",
        "label": "address[]",
        "numberOfBytes": "32"
      },
      "t_array(t_struct(Court)336_storage)dyn_storage": {
        "base": "t_struct(Court)336_storage",
        "encoding": "dynamic_array",
        "label": "struct KlerosCore.Court[]",
        "numberOfBytes": "32"
      },
      "t_array(t_struct(Dispute)353_storage)dyn_storage": {
        "base": "t_struct(Dispute)353_storage",
        "encoding": "dynamic_array",
        "label": "struct KlerosCore.Dispute[]",
        "numberOfBytes": "32"
      },
      "t_array(t_struct(DisputeKitNode)394_storage)dyn_storage": {
        "base": "t_struct(DisputeKitNode)394_storage",
        "encoding": "dynamic_array",
        "label": "struct KlerosCore.DisputeKitNode[]",
        "numberOfBytes": "32"
      },
      "t_array(t_struct(Round)369_storage)dyn_storage": {
        "base": "t_struct(Round)369_storage",
        "encoding": "dynamic_array",
        "label": "struct KlerosCore.Round[]",
        "numberOfBytes": "32"
      },
      "t_array(t_uint256)4_storage": {
        "base": "t_uint256",
        "encoding": "inplace",
        "label": "uint256[4]",
        "numberOfBytes": "128"
      },
      "t_array(t_uint256)dyn_storage": {
        "base": "t_uint256",
        "encoding": "dynamic_array",
        "label": "uint256[]",
        "numberOfBytes": "32"
      },
      "t_array(t_uint96)dyn_storage": {
        "base": "t_uint96",
        "encoding": "dynamic_array",
        "label": "uint96[]",
        "numberOfBytes": "32"
      },
      "t_bool": {
        "encoding": "inplace",
        "label": "bool",
        "numberOfBytes": "1"
      },
      "t_bytes32": {
        "encoding": "inplace",
        "label": "bytes32",
        "numberOfBytes": "32"
      },
      "t_contract(IArbitrable)100": {
        "encoding": "inplace",
        "label": "contract IArbitrable",
        "numberOfBytes": "20"
      },
      "t_contract(IDisputeKit)289": {
        "encoding": "inplace",
        "label": "contract IDisputeKit",
        "numberOfBytes": "20"
      },
      "t_contract(IERC20)77": {
        "encoding": "inplace",
        "label": "contract IERC20",
        "numberOfBytes": "20"
      },
      "t_enum(Period)312": {
        "encoding": "inplace",
        "label": "enum KlerosCore.Period",
        "numberOfBytes": "1"
      },
      "t_enum(Phase)306": {
        "encoding": "inplace",
        "label": "enum KlerosCore.Phase",
        "numberOfBytes": "1"
      },
      "t_mapping(t_address,t_struct(Juror)381_storage)": {
        "encoding": "mapping",
        "key": "t_address",
        "label": "mapping(address => struct KlerosCore.Juror)",
        "numberOfBytes": "32",
        "value": "t_struct(Juror)381_storage"
      },
      "t_mapping(t_bytes32,t_struct(SortitionSumTree)8538_storage)": {
        "encoding": "mapping",
        "key": "t_bytes32",
        "label": "mapping(bytes32 => struct SortitionSumTreeFactory.SortitionSumTree)",
        "numberOfBytes": "32",
        "value": "t_struct(SortitionSumTree)8538_storage"
      },
      "t_mapping(t_bytes32,t_uint256)": {
        "encoding": "mapping",
        "key": "t_bytes32",
        "label": "mapping(bytes32 => uint256)",
        "numberOfBytes": "32",
        "value": "t_uint256"
      },
      "t_mapping(t_uint256,t_bool)": {
        "encoding": "mapping",
        "key": "t_uint256",
        "label": "mapping(uint256 => bool)",
        "numberOfBytes": "32",
        "value": "t_bool"
      },
      "t_mapping(t_uint256,t_bytes32)": {
        "encoding": "mapping",
        "key": "t_uint256",
        "label": "mapping(uint256 => bytes32)",
        "numberOfBytes": "32",
        "value": "t_bytes32"
      },
      "t_mapping(t_uint256,t_struct(DelayedStake)403_storage)": {
        "encoding": "mapping",
        "key": "t_uint256",
        "label": "mapping(uint256 => struct KlerosCore.DelayedStake)",
        "numberOfBytes": "32",
        "value": "t_struct(DelayedStake)403_storage"
      },
      "t_mapping(t_uint96,t_uint256)": {
        "encoding": "mapping",
        "key": "t_uint96",
        "label": "mapping(uint96 => uint256)",
        "numberOfBytes": "32",
        "value": "t_uint256"
      },
      "t_struct(Court)336_storage": {
        "encoding": "inplace",
        "label": "struct KlerosCore.Court",
        "members": [
          {
            "astId": 314,
            "contract": "src/arbitration/KlerosCore.sol:KlerosCore",
            "label": "parent",
            "offset": 0,
            "slot": "0",
            "type": "t_uint96"
          },
          {
            "astId": 316,
            "contract": "src/arbitration/KlerosCore.sol:KlerosCore",
            "label": "hiddenVotes",
            "offset": 12,
            "slot": "0",
            "type": "t_bool"
          },
          {
            "astId": 319,
            "contract": "src/arbitration/KlerosCore.sol:KlerosCore",
            "label": "children",
            "offset": 0,
            "slot": "1",
            "type": "t_array(t_uint256)dyn_storage"
          },
          {
            "astId": 321,
            "contract": "src/arbitration/KlerosCore.sol:KlerosCore",
            "label": "minStake",
            "offset": 0,
            "slot": "2",
            "type": "t_uint256"
          },
          {
            "astId": 323,
            "contract": "src/arbitration/KlerosCore.sol:KlerosCore",
            "label": "alpha",
            "offset": 0,
            "slot": "3",
            "type": "t_uint256"
          },
          {
            "astId": 325,
            "contract": "src/arbitration/KlerosCore.sol:KlerosCore",
            "label": "feeForJuror",
            "offset": 0,
            "slot": "4",
            "type": "t_uint256"
          },
          {
            "astId": 327,
            "contract": "src/arbitration/KlerosCore.sol:KlerosCore",
            "label": "jurorsForCourtJump",
            "offset": 0,
            "slot": "5",
            "type": "t_uint256"
          },
          {
            "astId": 331,
            "contract": "src/arbitration/KlerosCore.sol:KlerosCore",
            "label": "timesPerPeriod",
            "offset": 0,
            "slot": "6",
            "type": "t_array(t_uint256)4_storage"
          },
          {
            "astId": 335,
            "contract": "src/arbitration/KlerosCore.sol:KlerosCore",
            "label": "supportedDisputeKits",
            "offset": 0,
            "slot": "10",
            "type": "t_mapping(t_uint256,t_bool)"
          }
        ],
        "numberOfBytes": "352"
      },
      "t_struct(DelayedStake)403_storage": {
        "encoding": "inplace",
        "label": "struct KlerosCore.DelayedStake",
        "members": [
          {
            "astId": 396,
            "contract": "src/arbitration/KlerosCore.sol:KlerosCore",
            "label": "account",
            "offset": 0,
            "slot": "0",
            "type": "t_address"
          },
          {
            "astId": 398,
            "contract": "src/arbitration/KlerosCore.sol:KlerosCore",
            "label": "subcourtID",
            "offset": 20,
            "slot": "0",
            "type": "t_uint96"
          },
          {
            "astId": 400,
            "contract": "src/arbitration/KlerosCore.sol:KlerosCore",
            "label": "stake",
            "offset": 0,
            "slot": "1",
            "type": "t_uint256"
          },
          {
            "astId": 402,
            "contract": "src/arbitration/KlerosCore.sol:KlerosCore",
            "label": "penalty",
            "offset": 0,
            "slot": "2",
            "type": "t_uint256"
          }
        ],
        "numberOfBytes": "96"
      },
      "t_struct(Dispute)353_storage": {
        "encoding": "inplace",
        "label": "struct KlerosCore.Dispute",
        "members": [
          {
            "astId": 338,
            "contract": "src/arbitration/KlerosCore.sol:KlerosCore",
            "label": "subcourtID",
            "offset": 0,
            "slot": "0",
            "type": "t_uint96"
          },
          {
            "astId": 341,
            "contract": "src/arbitration/KlerosCore.sol:KlerosCore",
            "label": "arbitrated",
            "offset": 12,
            "slot": "0",
            "type": "t_contract(IArbitrable)100"
          },
          {
            "astId": 344,
            "contract": "src/arbitration/KlerosCore.sol:KlerosCore",
            "label": "period",
            "offset": 0,
            "slot": "1",
            "type": "t_enum(Period)312"
          },
          {
            "astId": 346,
            "contract": "src/arbitration/KlerosCore.sol:KlerosCore",
            "label": "ruled",
            "offset": 1,
            "slot": "1",
            "type": "t_bool"
          },
          {
            "astId": 348,
            "contract": "src/arbitration/KlerosCore.sol:KlerosCore",
            "label": "lastPeriodChange",
            "offset": 0,
            "slot": "2",
            "type": "t_uint256"
          },
          {
            "astId": 352,
            "contract": "src/arbitration/KlerosCore.sol:KlerosCore",
            "label": "rounds",
            "offset": 0,
            "slot": "3",
            "type": "t_array(t_struct(Round)369_storage)dyn_storage"
          }
        ],
        "numberOfBytes": "128"
      },
      "t_struct(DisputeKitNode)394_storage": {
        "encoding": "inplace",
        "label": "struct KlerosCore.DisputeKitNode",
        "members": [
          {
            "astId": 383,
            "contract": "src/arbitration/KlerosCore.sol:KlerosCore",
            "label": "parent",
            "offset": 0,
            "slot": "0",
            "type": "t_uint256"
          },
          {
            "astId": 386,
            "contract": "src/arbitration/KlerosCore.sol:KlerosCore",
            "label": "children",
            "offset": 0,
            "slot": "1",
            "type": "t_array(t_uint256)dyn_storage"
          },
          {
            "astId": 389,
            "contract": "src/arbitration/KlerosCore.sol:KlerosCore",
            "label": "disputeKit",
            "offset": 0,
            "slot": "2",
            "type": "t_contract(IDisputeKit)289"
          },
          {
            "astId": 391,
            "contract": "src/arbitration/KlerosCore.sol:KlerosCore",
            "label": "needsFreezing",
            "offset": 20,
            "slot": "2",
            "type": "t_bool"
          },
          {
            "astId": 393,
            "contract": "src/arbitration/KlerosCore.sol:KlerosCore",
            "label": "depthLevel",
            "offset": 0,
            "slot": "3",
            "type": "t_uint256"
          }
        ],
        "numberOfBytes": "128"
      },
      "t_struct(Juror)381_storage": {
        "encoding": "inplace",
        "label": "struct KlerosCore.Juror",
        "members": [
          {
            "astId": 372,
            "contract": "src/arbitration/KlerosCore.sol:KlerosCore",
            "label": "subcourtIDs",
            "offset": 0,
            "slot": "0",
            "type": "t_array(t_uint96)dyn_storage"
          },
          {
            "astId": 376,
            "contract": "src/arbitration/KlerosCore.sol:KlerosCore",
            "label": "stakedTokens",
            "offset": 0,
            "slot": "1",
            "type": "t_mapping(t_uint96,t_uint256)"
          },
          {
            "astId": 380,
            "contract": "src/arbitration/KlerosCore.sol:KlerosCore",
            "label": "lockedTokens",
            "offset": 0,
            "slot": "2",
            "type": "t_mapping(t_uint96,t_uint256)"
          }
        ],
        "numberOfBytes": "96"
      },
      "t_struct(Round)369_storage": {
        "encoding": "inplace",
        "label": "struct KlerosCore.Round",
        "members": [
          {
            "astId": 355,
            "contract": "src/arbitration/KlerosCore.sol:KlerosCore",
            "label": "disputeKitID",
            "offset": 0,
            "slot": "0",
            "type": "t_uint256"
          },
          {
            "astId": 357,
            "contract": "src/arbitration/KlerosCore.sol:KlerosCore",
            "label": "tokensAtStakePerJuror",
            "offset": 0,
            "slot": "1",
            "type": "t_uint256"
          },
          {
            "astId": 359,
            "contract": "src/arbitration/KlerosCore.sol:KlerosCore",
            "label": "totalFeesForJurors",
            "offset": 0,
            "slot": "2",
            "type": "t_uint256"
          },
          {
            "astId": 361,
            "contract": "src/arbitration/KlerosCore.sol:KlerosCore",
            "label": "nbVotes",
            "offset": 0,
            "slot": "3",
            "type": "t_uint256"
          },
          {
            "astId": 363,
            "contract": "src/arbitration/KlerosCore.sol:KlerosCore",
            "label": "repartitions",
            "offset": 0,
            "slot": "4",
            "type": "t_uint256"
          },
          {
            "astId": 365,
            "contract": "src/arbitration/KlerosCore.sol:KlerosCore",
            "label": "penalties",
            "offset": 0,
            "slot": "5",
            "type": "t_uint256"
          },
          {
            "astId": 368,
            "contract": "src/arbitration/KlerosCore.sol:KlerosCore",
            "label": "drawnJurors",
            "offset": 0,
            "slot": "6",
            "type": "t_array(t_address)dyn_storage"
          }
        ],
        "numberOfBytes": "224"
      },
      "t_struct(SortitionSumTree)8538_storage": {
        "encoding": "inplace",
        "label": "struct SortitionSumTreeFactory.SortitionSumTree",
        "members": [
          {
            "astId": 8523,
            "contract": "src/arbitration/KlerosCore.sol:KlerosCore",
            "label": "K",
            "offset": 0,
            "slot": "0",
            "type": "t_uint256"
          },
          {
            "astId": 8526,
            "contract": "src/arbitration/KlerosCore.sol:KlerosCore",
            "label": "stack",
            "offset": 0,
            "slot": "1",
            "type": "t_array(t_uint256)dyn_storage"
          },
          {
            "astId": 8529,
            "contract": "src/arbitration/KlerosCore.sol:KlerosCore",
            "label": "nodes",
            "offset": 0,
            "slot": "2",
            "type": "t_array(t_uint256)dyn_storage"
          },
          {
            "astId": 8533,
            "contract": "src/arbitration/KlerosCore.sol:KlerosCore",
            "label": "IDsToNodeIndexes",
            "offset": 0,
            "slot": "3",
            "type": "t_mapping(t_bytes32,t_uint256)"
          },
          {
            "astId": 8537,
            "contract": "src/arbitration/KlerosCore.sol:KlerosCore",
            "label": "nodeIndexesToIDs",
            "offset": 0,
            "slot": "4",
            "type": "t_mapping(t_uint256,t_bytes32)"
          }
        ],
        "numberOfBytes": "160"
      },
      "t_struct(SortitionSumTrees)8544_storage": {
        "encoding": "inplace",
        "label": "struct SortitionSumTreeFactory.SortitionSumTrees",
        "members": [
          {
            "astId": 8543,
            "contract": "src/arbitration/KlerosCore.sol:KlerosCore",
            "label": "sortitionSumTrees",
            "offset": 0,
            "slot": "0",
            "type": "t_mapping(t_bytes32,t_struct(SortitionSumTree)8538_storage)"
          }
        ],
        "numberOfBytes": "32"
      },
      "t_uint256": {
        "encoding": "inplace",
        "label": "uint256",
        "numberOfBytes": "32"
      },
      "t_uint96": {
        "encoding": "inplace",
        "label": "uint96",
        "numberOfBytes": "12"
      }
    }
  }
}