{
  "address": "0xA429667Abb1A6c530BAd1083df4C69FBce86D696",
  "abi": [
    {
      "inputs": [
        {
          "internalType": "address",
          "name": "_governor",
          "type": "address"
        },
        {
          "internalType": "contract IERC20",
          "name": "_pinakion",
          "type": "address"
        },
        {
          "internalType": "address",
          "name": "_jurorProsecutionModule",
          "type": "address"
        },
        {
          "internalType": "contract IDisputeKit",
          "name": "_disputeKit",
          "type": "address"
        },
        {
          "internalType": "bool",
          "name": "_hiddenVotes",
          "type": "bool"
        },
        {
          "internalType": "uint256[4]",
          "name": "_courtParameters",
          "type": "uint256[4]"
        },
        {
          "internalType": "uint256[4]",
          "name": "_timesPerPeriod",
          "type": "uint256[4]"
        },
        {
          "internalType": "bytes",
          "name": "_sortitionExtraData",
          "type": "bytes"
        },
        {
          "internalType": "contract ISortitionModule",
          "name": "_sortitionModuleAddress",
          "type": "address"
        }
      ],
      "stateMutability": "nonpayable",
      "type": "constructor"
    },
    {
      "anonymous": false,
      "inputs": [
        {
          "indexed": true,
          "internalType": "uint256",
          "name": "_disputeID",
          "type": "uint256"
        },
        {
          "indexed": true,
          "internalType": "contract IArbitrable",
          "name": "_arbitrable",
          "type": "address"
        }
      ],
      "name": "AppealDecision",
      "type": "event"
    },
    {
      "anonymous": false,
      "inputs": [
        {
          "indexed": true,
          "internalType": "uint256",
          "name": "_disputeID",
          "type": "uint256"
        },
        {
          "indexed": true,
          "internalType": "contract IArbitrable",
          "name": "_arbitrable",
          "type": "address"
        }
      ],
      "name": "AppealPossible",
      "type": "event"
    },
    {
      "anonymous": false,
      "inputs": [
        {
          "indexed": true,
          "internalType": "uint256",
          "name": "_courtID",
          "type": "uint256"
        },
        {
          "indexed": true,
          "internalType": "uint96",
          "name": "_parent",
          "type": "uint96"
        },
        {
          "indexed": false,
          "internalType": "bool",
          "name": "_hiddenVotes",
          "type": "bool"
        },
        {
          "indexed": false,
          "internalType": "uint256",
          "name": "_minStake",
          "type": "uint256"
        },
        {
          "indexed": false,
          "internalType": "uint256",
          "name": "_alpha",
          "type": "uint256"
        },
        {
          "indexed": false,
          "internalType": "uint256",
          "name": "_feeForJuror",
          "type": "uint256"
        },
        {
          "indexed": false,
          "internalType": "uint256",
          "name": "_jurorsForCourtJump",
          "type": "uint256"
        },
        {
          "indexed": false,
          "internalType": "uint256[4]",
          "name": "_timesPerPeriod",
          "type": "uint256[4]"
        },
        {
          "indexed": false,
          "internalType": "uint256[]",
          "name": "_supportedDisputeKits",
          "type": "uint256[]"
        }
      ],
      "name": "CourtCreated",
      "type": "event"
    },
    {
      "anonymous": false,
      "inputs": [
        {
          "indexed": true,
          "internalType": "uint256",
          "name": "_disputeID",
          "type": "uint256"
        },
        {
          "indexed": true,
          "internalType": "uint256",
          "name": "_roundID",
          "type": "uint256"
        },
        {
          "indexed": true,
          "internalType": "uint96",
          "name": "_fromCourtID",
          "type": "uint96"
        },
        {
          "indexed": false,
          "internalType": "uint96",
          "name": "_toCourtID",
          "type": "uint96"
        }
      ],
      "name": "CourtJump",
      "type": "event"
    },
    {
      "anonymous": false,
      "inputs": [
        {
          "indexed": true,
          "internalType": "uint96",
          "name": "_courtID",
          "type": "uint96"
        },
        {
          "indexed": false,
          "internalType": "string",
          "name": "_param",
          "type": "string"
        }
      ],
      "name": "CourtModified",
      "type": "event"
    },
    {
      "anonymous": false,
      "inputs": [
        {
          "indexed": true,
          "internalType": "uint256",
          "name": "_disputeID",
          "type": "uint256"
        },
        {
          "indexed": true,
          "internalType": "contract IArbitrable",
          "name": "_arbitrable",
          "type": "address"
        }
      ],
      "name": "DisputeCreation",
      "type": "event"
    },
    {
      "anonymous": false,
      "inputs": [
        {
          "indexed": true,
          "internalType": "uint256",
          "name": "_disputeKitID",
          "type": "uint256"
        },
        {
          "indexed": true,
          "internalType": "contract IDisputeKit",
          "name": "_disputeKitAddress",
          "type": "address"
        },
        {
          "indexed": true,
          "internalType": "uint256",
          "name": "_parent",
          "type": "uint256"
        }
      ],
      "name": "DisputeKitCreated",
      "type": "event"
    },
    {
      "anonymous": false,
      "inputs": [
        {
          "indexed": true,
          "internalType": "uint96",
          "name": "_courtID",
          "type": "uint96"
        },
        {
          "indexed": true,
          "internalType": "uint256",
          "name": "_disputeKitID",
          "type": "uint256"
        },
        {
          "indexed": true,
          "internalType": "bool",
          "name": "_enable",
          "type": "bool"
        }
      ],
      "name": "DisputeKitEnabled",
      "type": "event"
    },
    {
      "anonymous": false,
      "inputs": [
        {
          "indexed": true,
          "internalType": "uint256",
          "name": "_disputeID",
          "type": "uint256"
        },
        {
          "indexed": true,
          "internalType": "uint256",
          "name": "_roundID",
          "type": "uint256"
        },
        {
          "indexed": true,
          "internalType": "uint256",
          "name": "_fromDisputeKitID",
          "type": "uint256"
        },
        {
          "indexed": false,
          "internalType": "uint256",
          "name": "_toDisputeKitID",
          "type": "uint256"
        }
      ],
      "name": "DisputeKitJump",
      "type": "event"
    },
    {
      "anonymous": false,
      "inputs": [
        {
          "indexed": true,
          "internalType": "address",
          "name": "_address",
          "type": "address"
        },
        {
          "indexed": true,
          "internalType": "uint256",
          "name": "_disputeID",
          "type": "uint256"
        },
        {
          "indexed": false,
          "internalType": "uint256",
          "name": "_roundID",
          "type": "uint256"
        },
        {
          "indexed": false,
          "internalType": "uint256",
          "name": "_voteID",
          "type": "uint256"
        }
      ],
      "name": "Draw",
      "type": "event"
    },
    {
      "anonymous": false,
      "inputs": [
        {
          "indexed": true,
          "internalType": "uint256",
          "name": "_disputeID",
          "type": "uint256"
        },
        {
          "indexed": true,
          "internalType": "uint256",
          "name": "_roundID",
          "type": "uint256"
        },
        {
          "indexed": false,
          "internalType": "uint256",
          "name": "_tokenAmount",
          "type": "uint256"
        },
        {
          "indexed": false,
          "internalType": "uint256",
          "name": "_ethAmount",
          "type": "uint256"
        }
      ],
      "name": "LeftoverRewardSent",
      "type": "event"
    },
    {
      "anonymous": false,
      "inputs": [
        {
          "indexed": true,
          "internalType": "uint256",
          "name": "_disputeID",
          "type": "uint256"
        },
        {
          "indexed": false,
          "internalType": "enum KlerosCore.Period",
          "name": "_period",
          "type": "uint8"
        }
      ],
      "name": "NewPeriod",
      "type": "event"
    },
    {
      "anonymous": false,
      "inputs": [
        {
          "indexed": true,
          "internalType": "contract IArbitrable",
          "name": "_arbitrable",
          "type": "address"
        },
        {
          "indexed": true,
          "internalType": "uint256",
          "name": "_disputeID",
          "type": "uint256"
        },
        {
          "indexed": false,
          "internalType": "uint256",
          "name": "_ruling",
          "type": "uint256"
        }
      ],
      "name": "Ruling",
      "type": "event"
    },
    {
      "anonymous": false,
      "inputs": [
        {
          "indexed": true,
          "internalType": "address",
          "name": "_address",
          "type": "address"
        },
        {
          "indexed": false,
          "internalType": "uint256",
          "name": "_courtID",
          "type": "uint256"
        },
        {
          "indexed": false,
          "internalType": "uint256",
          "name": "_amount",
          "type": "uint256"
        },
        {
          "indexed": false,
          "internalType": "uint256",
          "name": "_penalty",
          "type": "uint256"
        }
      ],
      "name": "StakeDelayed",
      "type": "event"
    },
    {
      "anonymous": false,
      "inputs": [
        {
          "indexed": true,
          "internalType": "address",
          "name": "_address",
          "type": "address"
        },
        {
          "indexed": false,
          "internalType": "uint256",
          "name": "_courtID",
          "type": "uint256"
        },
        {
          "indexed": false,
          "internalType": "uint256",
          "name": "_amount",
          "type": "uint256"
        }
      ],
      "name": "StakeSet",
      "type": "event"
    },
    {
      "anonymous": false,
      "inputs": [
        {
          "indexed": true,
          "internalType": "address",
          "name": "_account",
          "type": "address"
        },
        {
          "indexed": true,
          "internalType": "uint256",
          "name": "_disputeID",
          "type": "uint256"
        },
        {
          "indexed": true,
          "internalType": "uint256",
          "name": "_roundID",
          "type": "uint256"
        },
        {
          "indexed": false,
          "internalType": "uint256",
          "name": "_degreeOfCoherency",
          "type": "uint256"
        },
        {
          "indexed": false,
          "internalType": "int256",
          "name": "_tokenAmount",
          "type": "int256"
        },
        {
          "indexed": false,
          "internalType": "int256",
          "name": "_ethAmount",
          "type": "int256"
        }
      ],
      "name": "TokenAndETHShift",
      "type": "event"
    },
    {
      "inputs": [],
      "name": "ALPHA_DIVISOR",
      "outputs": [
        {
          "internalType": "uint256",
          "name": "",
          "type": "uint256"
        }
      ],
      "stateMutability": "view",
      "type": "function"
    },
    {
      "inputs": [],
      "name": "DISPUTE_KIT_CLASSIC",
      "outputs": [
        {
          "internalType": "uint256",
          "name": "",
          "type": "uint256"
        }
      ],
      "stateMutability": "view",
      "type": "function"
    },
    {
      "inputs": [],
      "name": "FORKING_COURT",
      "outputs": [
        {
          "internalType": "uint96",
          "name": "",
          "type": "uint96"
        }
      ],
      "stateMutability": "view",
      "type": "function"
    },
    {
      "inputs": [],
      "name": "GENERAL_COURT",
      "outputs": [
        {
          "internalType": "uint96",
          "name": "",
          "type": "uint96"
        }
      ],
      "stateMutability": "view",
      "type": "function"
    },
    {
      "inputs": [],
      "name": "MIN_JURORS",
      "outputs": [
        {
          "internalType": "uint256",
          "name": "",
          "type": "uint256"
        }
      ],
      "stateMutability": "view",
      "type": "function"
    },
    {
      "inputs": [],
      "name": "NON_PAYABLE_AMOUNT",
      "outputs": [
        {
          "internalType": "uint256",
          "name": "",
          "type": "uint256"
        }
      ],
      "stateMutability": "view",
      "type": "function"
    },
    {
      "inputs": [],
      "name": "NULL_DISPUTE_KIT",
      "outputs": [
        {
          "internalType": "uint256",
          "name": "",
          "type": "uint256"
        }
      ],
      "stateMutability": "view",
      "type": "function"
    },
    {
      "inputs": [],
      "name": "SEARCH_ITERATIONS",
      "outputs": [
        {
          "internalType": "uint256",
          "name": "",
          "type": "uint256"
        }
      ],
      "stateMutability": "view",
      "type": "function"
    },
    {
      "inputs": [
        {
          "internalType": "contract IDisputeKit",
          "name": "_disputeKitAddress",
          "type": "address"
        },
        {
          "internalType": "uint256",
          "name": "_parent",
          "type": "uint256"
        }
      ],
      "name": "addNewDisputeKit",
      "outputs": [],
      "stateMutability": "nonpayable",
      "type": "function"
    },
    {
      "inputs": [
        {
          "internalType": "uint256",
          "name": "_disputeID",
          "type": "uint256"
        },
        {
          "internalType": "uint256",
          "name": "_numberOfChoices",
          "type": "uint256"
        },
        {
          "internalType": "bytes",
          "name": "_extraData",
          "type": "bytes"
        }
      ],
      "name": "appeal",
      "outputs": [],
      "stateMutability": "payable",
      "type": "function"
    },
    {
      "inputs": [
        {
          "internalType": "uint256",
          "name": "_disputeID",
          "type": "uint256"
        }
      ],
      "name": "appealCost",
      "outputs": [
        {
          "internalType": "uint256",
          "name": "cost",
          "type": "uint256"
        }
      ],
      "stateMutability": "view",
      "type": "function"
    },
    {
      "inputs": [
        {
          "internalType": "uint256",
          "name": "_disputeID",
          "type": "uint256"
        }
      ],
      "name": "appealPeriod",
      "outputs": [
        {
          "internalType": "uint256",
          "name": "start",
          "type": "uint256"
        },
        {
          "internalType": "uint256",
          "name": "end",
          "type": "uint256"
        }
      ],
      "stateMutability": "view",
      "type": "function"
    },
    {
      "inputs": [
        {
          "internalType": "bytes",
          "name": "_extraData",
          "type": "bytes"
        }
      ],
      "name": "arbitrationCost",
      "outputs": [
        {
          "internalType": "uint256",
          "name": "cost",
          "type": "uint256"
        }
      ],
      "stateMutability": "view",
      "type": "function"
    },
    {
      "inputs": [
        {
          "internalType": "uint96",
          "name": "_courtID",
          "type": "uint96"
        },
        {
          "internalType": "uint256",
          "name": "_alpha",
          "type": "uint256"
        }
      ],
      "name": "changeCourtAlpha",
      "outputs": [],
      "stateMutability": "nonpayable",
      "type": "function"
    },
    {
      "inputs": [
        {
          "internalType": "uint96",
          "name": "_courtID",
          "type": "uint96"
        },
        {
          "internalType": "bool",
          "name": "_hiddenVotes",
          "type": "bool"
        }
      ],
      "name": "changeCourtHiddenVotes",
      "outputs": [],
      "stateMutability": "nonpayable",
      "type": "function"
    },
    {
      "inputs": [
        {
          "internalType": "uint96",
          "name": "_courtID",
          "type": "uint96"
        },
        {
          "internalType": "uint256",
          "name": "_feeForJuror",
          "type": "uint256"
        }
      ],
      "name": "changeCourtJurorFee",
      "outputs": [],
      "stateMutability": "nonpayable",
      "type": "function"
    },
    {
      "inputs": [
        {
          "internalType": "uint96",
          "name": "_courtID",
          "type": "uint96"
        },
        {
          "internalType": "uint256",
          "name": "_jurorsForCourtJump",
          "type": "uint256"
        }
      ],
      "name": "changeCourtJurorsForJump",
      "outputs": [],
      "stateMutability": "nonpayable",
      "type": "function"
    },
    {
      "inputs": [
        {
          "internalType": "uint96",
          "name": "_courtID",
          "type": "uint96"
        },
        {
          "internalType": "uint256",
          "name": "_minStake",
          "type": "uint256"
        }
      ],
      "name": "changeCourtMinStake",
      "outputs": [],
      "stateMutability": "nonpayable",
      "type": "function"
    },
    {
      "inputs": [
        {
          "internalType": "uint96",
          "name": "_courtID",
          "type": "uint96"
        },
        {
          "internalType": "uint256[4]",
          "name": "_timesPerPeriod",
          "type": "uint256[4]"
        }
      ],
      "name": "changeCourtTimesPerPeriod",
      "outputs": [],
      "stateMutability": "nonpayable",
      "type": "function"
    },
    {
      "inputs": [
        {
          "internalType": "address payable",
          "name": "_governor",
          "type": "address"
        }
      ],
      "name": "changeGovernor",
      "outputs": [],
      "stateMutability": "nonpayable",
      "type": "function"
    },
    {
      "inputs": [
        {
          "internalType": "address",
          "name": "_jurorProsecutionModule",
          "type": "address"
        }
      ],
      "name": "changeJurorProsecutionModule",
      "outputs": [],
      "stateMutability": "nonpayable",
      "type": "function"
    },
    {
      "inputs": [
        {
          "internalType": "contract IERC20",
          "name": "_pinakion",
          "type": "address"
        }
      ],
      "name": "changePinakion",
      "outputs": [],
      "stateMutability": "nonpayable",
      "type": "function"
    },
    {
      "inputs": [
        {
          "internalType": "contract ISortitionModule",
          "name": "_sortitionModule",
          "type": "address"
        }
      ],
      "name": "changeSortitionModule",
      "outputs": [],
      "stateMutability": "nonpayable",
      "type": "function"
    },
    {
      "inputs": [
        {
          "internalType": "uint256",
          "name": "",
          "type": "uint256"
        }
      ],
      "name": "courts",
      "outputs": [
        {
          "internalType": "uint96",
          "name": "parent",
          "type": "uint96"
        },
        {
          "internalType": "bool",
          "name": "hiddenVotes",
          "type": "bool"
        },
        {
          "internalType": "uint256",
          "name": "minStake",
          "type": "uint256"
        },
        {
          "internalType": "uint256",
          "name": "alpha",
          "type": "uint256"
        },
        {
          "internalType": "uint256",
          "name": "feeForJuror",
          "type": "uint256"
        },
        {
          "internalType": "uint256",
          "name": "jurorsForCourtJump",
          "type": "uint256"
        },
        {
          "internalType": "bool",
          "name": "disabled",
          "type": "bool"
        }
      ],
      "stateMutability": "view",
      "type": "function"
    },
    {
      "inputs": [
        {
          "internalType": "uint96",
          "name": "_parent",
          "type": "uint96"
        },
        {
          "internalType": "bool",
          "name": "_hiddenVotes",
          "type": "bool"
        },
        {
          "internalType": "uint256",
          "name": "_minStake",
          "type": "uint256"
        },
        {
          "internalType": "uint256",
          "name": "_alpha",
          "type": "uint256"
        },
        {
          "internalType": "uint256",
          "name": "_feeForJuror",
          "type": "uint256"
        },
        {
          "internalType": "uint256",
          "name": "_jurorsForCourtJump",
          "type": "uint256"
        },
        {
          "internalType": "uint256[4]",
          "name": "_timesPerPeriod",
          "type": "uint256[4]"
        },
        {
          "internalType": "bytes",
          "name": "_sortitionExtraData",
          "type": "bytes"
        },
        {
          "internalType": "uint256[]",
          "name": "_supportedDisputeKits",
          "type": "uint256[]"
        }
      ],
      "name": "createCourt",
      "outputs": [],
      "stateMutability": "nonpayable",
      "type": "function"
    },
    {
      "inputs": [
        {
          "internalType": "uint256",
          "name": "_numberOfChoices",
          "type": "uint256"
        },
        {
          "internalType": "bytes",
          "name": "_extraData",
          "type": "bytes"
        }
      ],
      "name": "createDispute",
      "outputs": [
        {
          "internalType": "uint256",
          "name": "disputeID",
          "type": "uint256"
        }
      ],
      "stateMutability": "payable",
      "type": "function"
    },
    {
      "inputs": [
        {
          "internalType": "uint256",
          "name": "_disputeID",
          "type": "uint256"
        }
      ],
      "name": "currentRuling",
      "outputs": [
        {
          "internalType": "uint256",
          "name": "ruling",
          "type": "uint256"
        },
        {
          "internalType": "bool",
          "name": "tied",
          "type": "bool"
        },
        {
          "internalType": "bool",
          "name": "overridden",
          "type": "bool"
        }
      ],
      "stateMutability": "view",
      "type": "function"
    },
    {
      "inputs": [
        {
          "internalType": "uint256",
          "name": "",
          "type": "uint256"
        }
      ],
      "name": "disputeKitNodes",
      "outputs": [
        {
          "internalType": "uint256",
          "name": "parent",
          "type": "uint256"
        },
        {
          "internalType": "contract IDisputeKit",
          "name": "disputeKit",
          "type": "address"
        },
        {
          "internalType": "uint256",
          "name": "depthLevel",
          "type": "uint256"
        },
        {
          "internalType": "bool",
          "name": "disabled",
          "type": "bool"
        }
      ],
      "stateMutability": "view",
      "type": "function"
    },
    {
      "inputs": [
        {
          "internalType": "uint256",
          "name": "",
          "type": "uint256"
        }
      ],
      "name": "disputes",
      "outputs": [
        {
          "internalType": "uint96",
          "name": "courtID",
          "type": "uint96"
        },
        {
          "internalType": "contract IArbitrable",
          "name": "arbitrated",
          "type": "address"
        },
        {
          "internalType": "enum KlerosCore.Period",
          "name": "period",
          "type": "uint8"
        },
        {
          "internalType": "bool",
          "name": "ruled",
          "type": "bool"
        },
        {
          "internalType": "uint256",
          "name": "lastPeriodChange",
          "type": "uint256"
        }
      ],
      "stateMutability": "view",
      "type": "function"
    },
    {
      "inputs": [
        {
          "internalType": "uint256",
          "name": "_disputeID",
          "type": "uint256"
        },
        {
          "internalType": "uint256",
          "name": "_iterations",
          "type": "uint256"
        }
      ],
      "name": "draw",
      "outputs": [],
      "stateMutability": "nonpayable",
      "type": "function"
    },
    {
      "inputs": [
        {
          "internalType": "uint96",
          "name": "_courtID",
          "type": "uint96"
        },
        {
          "internalType": "uint256[]",
          "name": "_disputeKitIDs",
          "type": "uint256[]"
        },
        {
          "internalType": "bool",
          "name": "_enable",
          "type": "bool"
        }
      ],
      "name": "enableDisputeKits",
      "outputs": [],
      "stateMutability": "nonpayable",
      "type": "function"
    },
    {
      "inputs": [
        {
          "internalType": "uint256",
          "name": "_disputeID",
          "type": "uint256"
        },
        {
          "internalType": "uint256",
          "name": "_round",
          "type": "uint256"
        },
        {
          "internalType": "uint256",
          "name": "_iterations",
          "type": "uint256"
        }
      ],
      "name": "execute",
      "outputs": [],
      "stateMutability": "nonpayable",
      "type": "function"
    },
    {
      "inputs": [
        {
          "internalType": "address",
          "name": "_destination",
          "type": "address"
        },
        {
          "internalType": "uint256",
          "name": "_amount",
          "type": "uint256"
        },
        {
          "internalType": "bytes",
          "name": "_data",
          "type": "bytes"
        }
      ],
      "name": "executeGovernorProposal",
      "outputs": [],
      "stateMutability": "nonpayable",
      "type": "function"
    },
    {
      "inputs": [
        {
          "internalType": "uint256",
          "name": "_disputeID",
          "type": "uint256"
        }
      ],
      "name": "executeRuling",
      "outputs": [],
      "stateMutability": "nonpayable",
      "type": "function"
    },
    {
      "inputs": [
        {
          "internalType": "uint256",
          "name": "_disputeKitID",
          "type": "uint256"
        }
      ],
      "name": "getDisputeKit",
      "outputs": [
        {
          "internalType": "contract IDisputeKit",
          "name": "",
          "type": "address"
        }
      ],
      "stateMutability": "view",
      "type": "function"
    },
    {
      "inputs": [
        {
          "internalType": "uint256",
          "name": "_disputeKitID",
          "type": "uint256"
        }
      ],
      "name": "getDisputeKitChildren",
      "outputs": [
        {
          "internalType": "uint256[]",
          "name": "",
          "type": "uint256[]"
        }
      ],
      "stateMutability": "view",
      "type": "function"
    },
    {
      "inputs": [],
      "name": "getDisputeKitNodesLength",
      "outputs": [
        {
          "internalType": "uint256",
          "name": "",
          "type": "uint256"
        }
      ],
      "stateMutability": "view",
      "type": "function"
    },
    {
      "inputs": [
        {
          "internalType": "address",
          "name": "_juror",
          "type": "address"
        },
        {
          "internalType": "uint96",
          "name": "_courtID",
          "type": "uint96"
        }
      ],
      "name": "getJurorBalance",
      "outputs": [
        {
          "internalType": "uint256",
          "name": "staked",
          "type": "uint256"
        },
        {
          "internalType": "uint256",
          "name": "locked",
          "type": "uint256"
        },
        {
          "internalType": "uint256",
          "name": "nbCourts",
          "type": "uint256"
        }
      ],
      "stateMutability": "view",
      "type": "function"
    },
    {
      "inputs": [
        {
          "internalType": "address",
          "name": "_juror",
          "type": "address"
        }
      ],
      "name": "getJurorCourtIDs",
      "outputs": [
        {
          "internalType": "uint96[]",
          "name": "",
          "type": "uint96[]"
        }
      ],
      "stateMutability": "view",
      "type": "function"
    },
    {
      "inputs": [
        {
          "internalType": "uint256",
          "name": "_disputeID",
          "type": "uint256"
        }
      ],
      "name": "getNumberOfRounds",
      "outputs": [
        {
          "internalType": "uint256",
          "name": "",
          "type": "uint256"
        }
      ],
      "stateMutability": "view",
      "type": "function"
    },
    {
      "inputs": [
        {
          "internalType": "uint256",
          "name": "_disputeID",
          "type": "uint256"
        }
      ],
      "name": "getNumberOfVotes",
      "outputs": [
        {
          "internalType": "uint256",
          "name": "",
          "type": "uint256"
        }
      ],
      "stateMutability": "view",
      "type": "function"
    },
    {
      "inputs": [
        {
          "internalType": "uint256",
          "name": "_disputeID",
          "type": "uint256"
        },
        {
          "internalType": "uint256",
          "name": "_round",
          "type": "uint256"
        }
      ],
      "name": "getRoundInfo",
      "outputs": [
        {
          "internalType": "uint256",
          "name": "tokensAtStakePerJuror",
          "type": "uint256"
        },
        {
          "internalType": "uint256",
          "name": "totalFeesForJurors",
          "type": "uint256"
        },
        {
          "internalType": "uint256",
          "name": "repartitions",
          "type": "uint256"
        },
        {
          "internalType": "uint256",
          "name": "penalties",
          "type": "uint256"
        },
        {
          "internalType": "address[]",
          "name": "drawnJurors",
          "type": "address[]"
        },
        {
          "internalType": "uint256",
          "name": "disputeKitID",
          "type": "uint256"
        },
        {
          "internalType": "uint256",
          "name": "sumRewardPaid",
          "type": "uint256"
        },
        {
          "internalType": "uint256",
          "name": "sumTokenRewardPaid",
          "type": "uint256"
        }
      ],
      "stateMutability": "view",
      "type": "function"
    },
    {
      "inputs": [
        {
          "internalType": "uint96",
          "name": "_courtID",
          "type": "uint96"
        }
      ],
      "name": "getTimesPerPeriod",
      "outputs": [
        {
          "internalType": "uint256[4]",
          "name": "timesPerPeriod",
          "type": "uint256[4]"
        }
      ],
      "stateMutability": "view",
      "type": "function"
    },
    {
      "inputs": [],
      "name": "governor",
      "outputs": [
        {
          "internalType": "address",
          "name": "",
          "type": "address"
        }
      ],
      "stateMutability": "view",
      "type": "function"
    },
    {
      "inputs": [
        {
          "internalType": "uint256",
          "name": "_disputeID",
          "type": "uint256"
        }
      ],
      "name": "isDisputeKitJumping",
      "outputs": [
        {
          "internalType": "bool",
          "name": "",
          "type": "bool"
        }
      ],
      "stateMutability": "view",
      "type": "function"
    },
    {
      "inputs": [
        {
          "internalType": "uint96",
          "name": "_courtID",
          "type": "uint96"
        },
        {
          "internalType": "uint256",
          "name": "_disputeKitID",
          "type": "uint256"
        }
      ],
      "name": "isSupported",
      "outputs": [
        {
          "internalType": "bool",
          "name": "",
          "type": "bool"
        }
      ],
      "stateMutability": "view",
      "type": "function"
    },
    {
      "inputs": [],
      "name": "jurorProsecutionModule",
      "outputs": [
        {
          "internalType": "address",
          "name": "",
          "type": "address"
        }
      ],
      "stateMutability": "view",
      "type": "function"
    },
    {
      "inputs": [
        {
          "internalType": "uint256",
          "name": "_disputeID",
          "type": "uint256"
        }
      ],
      "name": "passPeriod",
      "outputs": [],
      "stateMutability": "nonpayable",
      "type": "function"
    },
    {
      "inputs": [],
      "name": "pinakion",
      "outputs": [
        {
          "internalType": "contract IERC20",
          "name": "",
          "type": "address"
        }
      ],
      "stateMutability": "view",
      "type": "function"
    },
    {
      "inputs": [
        {
          "internalType": "uint96",
          "name": "_courtID",
          "type": "uint96"
        },
        {
          "internalType": "uint256",
          "name": "_stake",
          "type": "uint256"
        }
      ],
      "name": "setStake",
      "outputs": [],
      "stateMutability": "nonpayable",
      "type": "function"
    },
    {
      "inputs": [
        {
          "internalType": "address",
          "name": "_account",
          "type": "address"
        },
        {
          "internalType": "uint96",
          "name": "_courtID",
          "type": "uint96"
        },
        {
          "internalType": "uint256",
          "name": "_stake",
          "type": "uint256"
        },
        {
          "internalType": "uint256",
          "name": "_penalty",
          "type": "uint256"
        }
      ],
      "name": "setStakeBySortitionModule",
      "outputs": [],
      "stateMutability": "nonpayable",
      "type": "function"
    },
    {
      "inputs": [],
      "name": "sortitionModule",
      "outputs": [
        {
          "internalType": "contract ISortitionModule",
          "name": "",
          "type": "address"
        }
      ],
      "stateMutability": "view",
      "type": "function"
    }
  ],
  "transactionHash": "0xd967daaaf1a4304242eab96e6e879719cd29bc2e0bc6d6a0792262a026c64153",
  "args": [
    "0xF50E77f2A2B6138D16c6c7511562E5C33c4B15A3",
    "0x4DEeeFD054434bf6721eF39Aa18EfB3fd0D12610",
    "0x0000000000000000000000000000000000000000",
    "0xcBE3aD699919Cf59efDF715e4B41AF30A0E4c92d",
    false,
    [
      "200000000000000000000",
      10000,
      "100000000000000000",
      256
    ],
    [
      0,
      0,
      0,
      10
    ],
    250,
    "0xa65D3ED6494ec5fcAa115A39D625B2F01786F094"
  ],
  "numDeployments": 2,
  "solcInputHash": "36e3015201aa6368fd28e007dfb67b68",
  "bytecode": "0x60806040523480156200001157600080fd5b5060405162005f3938038062005f3983398101604081905262000034916200065f565b600080546001600160a01b038b81166001600160a01b0319928316178355600180548c8316908416178155600280548c841690851617815560038054878516951694909417909355600580546040805160a081018252878152815188815260208082018452808301918252968f1692820192909252606081018890526080810188905295820183559582905284519201027f036b6384b5eca791c62761152d0c79bb0604c104a5fb6f4eb0703f3154bb3db08101918255935180519394919362000128937f036b6384b5eca791c62761152d0c79bb0604c104a5fb6f4eb0703f3154bb3db19093019291909101906200045c565b506040828101516002830180546001600160a01b0319166001600160a01b03928316179055606084015160038401556080909301516004909201805460ff191692151592909217909155516000918816906001907f7921860794ac14fda09ee75f7160a5a3d266e3352f7954d0401606a92a26c498908490a460048054600101815560008181526003546040516311de995760e21b81526001600160a01b039091169263477a655c92620001e19290918791016200074c565b600060405180830381600087803b158015620001fc57600080fd5b505af115801562000211573d6000803e3d6000fd5b5050600480546001810182556000918252600c027f8a35acfbc15ff81a39ae7d344fd709f28e8600b4aa8c65c6b64bfe7fe36bd19b0180546001600160601b031916815560408051838152602081019091529093509150508051620002819160018401916020909101906200045c565b50805460ff60601b19166c01000000000000000000000000871515021781558451600282015560208501516003820155604085015160048083019190915560608601516005830155620002db9060068301908690620004ac565b506003546040516311de995760e21b81526001600160a01b039091169063477a655c90620003119060019087906004016200074c565b600060405180830381600087803b1580156200032c57600080fd5b505af115801562000341573d6000803e3d6000fd5b5050825487516020808a01516040808c015160608d0151825160008152948501928390526001600160601b039096169750600196507f3475f0ed7216dd7d453db663a1c3024e4f36cc925521d54edb9d13e022cbee3d95620003ab958f959094938e91906200079e565b60405180910390a3620003c160018080620003d1565b505050505050505050506200083a565b806004846001600160601b031681548110620003f157620003f162000788565b60009182526020808320868452600c92909202909101600a0190526040808220805460ff19169315159390931790925590518215159184916001600160601b038716917fb47629acdf64971062d40984f77d3dee212d735b11e3e8c7a4222d9f0572cc7991a4505050565b8280548282559060005260206000209081019282156200049a579160200282015b828111156200049a5782518255916020019190600101906200047d565b50620004a8929150620004dc565b5090565b82600481019282156200049a57916020028201828111156200049a5782518255916020019190600101906200047d565b5b80821115620004a85760008155600101620004dd565b6001600160a01b03811681146200050957600080fd5b50565b634e487b7160e01b600052604160045260246000fd5b600082601f8301126200053457600080fd5b604051608081016001600160401b03811182821017156200055957620005596200050c565b6040528060808401858111156200056f57600080fd5b845b818110156200058b57805183526020928301920162000571565b509195945050505050565b60005b83811015620005b357818101518382015260200162000599565b50506000910152565b600082601f830112620005ce57600080fd5b81516001600160401b0380821115620005eb57620005eb6200050c565b604051601f8301601f19908116603f011681019082821181831017156200061657620006166200050c565b816040528381528660208588010111156200063057600080fd5b6200064384602083016020890162000596565b9695505050505050565b80516200065a81620004f3565b919050565b60008060008060008060008060006101e08a8c0312156200067f57600080fd5b89516200068c81620004f3565b60208b01519099506200069f81620004f3565b60408b0151909850620006b281620004f3565b60608b0151909750620006c581620004f3565b60808b01519096508015158114620006dc57600080fd5b9450620006ed8b60a08c0162000522565b9350620006ff8b6101208c0162000522565b6101a08b01519093506001600160401b038111156200071d57600080fd5b6200072b8c828d01620005bc565b9250506200073d6101c08b016200064d565b90509295985092959850929598565b82815260406020820152600082518060408401526200077381606085016020870162000596565b601f01601f1916919091016060019392505050565b634e487b7160e01b600052603260045260246000fd5b60006101408083018a1515845260208a8186015289604086015288606086015287608086015260a085018760005b6004811015620007eb57815183529183019190830190600101620007cc565b5050506101208501929092528451908190526101608401918086019160005b8181101562000828578351855293820193928201926001016200080a565b50929c9b505050505050505050505050565b6156ef806200084a6000396000f3fe6080604052600436106102be5760003560e01c8063751accd011610170578063c3569902116100cc578063eaff425a11610085578063eaff425a14610990578063f12ada8b146109a5578063f56f0725146109c5578063f7434ea9146109e5578063fbf405b014610a05578063fc6f8f1614610a25578063fe524c3914610a4557600080fd5b8063c356990214610883578063c71f425314610896578063cf0c38f8146108b6578063d1c1df48146108d6578063d2b8035a14610950578063e4c0aaf41461097057600080fd5b8063a072b86c11610129578063a072b86c1461079b578063a4370ce4146107bb578063afe15cfb146107db578063b004963714610810578063b39367ed14610830578063c13517e114610850578063c258bb191461086357600080fd5b8063751accd0146106cc5780637717a6e8146106ec578063840bc19c1461070c5780638a9bb02a146107275780638bb048751461075b5780639280169a1461077b57600080fd5b80632ea7b4d01161021f578063564a565d116101d8578063564a565d146105fc57806359ec827e1461062d5780635ea5c0381461064d5780636235593f1461066257806367c51947146106775780636c1eb1b9146106975780636e5f35c2146106ac57600080fd5b80632ea7b4d01461052a57806334d5fb31146105405780633cfd11841461055557806343d4137f1461058257806344c792e7146105af578063543f8a36146105cf57600080fd5b80631956b1f91161027c5780631956b1f9146103cf57806319b81529146103ef5780631c3db16d1461041f5780631f5a0dd21461045c57806327e6ec8a146104bd5780632d29a47b146104ea5780632e1daf2f1461050a57600080fd5b8062f5822c146102c35780630b7414bc146102e55780630c340a24146103055780630d1b9d1a146103425780630d83b9401461038c578063115d5376146103af575b600080fd5b3480156102cf57600080fd5b506102e36102de366004614b9b565b610a65565b005b3480156102f157600080fd5b506102e3610300366004614cae565b610aba565b34801561031157600080fd5b50600054610325906001600160a01b031681565b6040516001600160a01b0390911681526020015b60405180910390f35b34801561034e57600080fd5b5061036261035d366004614d0f565b610c61565b604080519485526001600160a01b0390931660208501529183015215156060820152608001610339565b34801561039857600080fd5b506103a1600181565b604051908152602001610339565b3480156103bb57600080fd5b506102e36103ca366004614d0f565b610ca7565b3480156103db57600080fd5b506103256103ea366004614d0f565b6112df565b3480156103fb57600080fd5b5061040f61040a366004614d0f565b611317565b6040519015158152602001610339565b34801561042b57600080fd5b5061043f61043a366004614d0f565b611410565b604080519384529115156020840152151590820152606001610339565b34801561046857600080fd5b5061047c610477366004614d0f565b611519565b604080516001600160601b0390981688529515156020880152948601939093526060850191909152608084015260a0830152151560c082015260e001610339565b3480156104c957600080fd5b506104d2600081565b6040516001600160601b039091168152602001610339565b3480156104f657600080fd5b506102e3610505366004614d28565b611578565b34801561051657600080fd5b50600354610325906001600160a01b031681565b34801561053657600080fd5b506103a161271081565b34801561054c57600080fd5b506104d2600181565b34801561056157600080fd5b50610575610570366004614d54565b6117bf565b6040516103399190614d92565b34801561058e57600080fd5b506105a261059d366004614d0f565b611830565b6040516103399190614ddb565b3480156105bb57600080fd5b506102e36105ca366004614dee565b6118ac565b3480156105db57600080fd5b506105ef6105ea366004614b9b565b61196c565b6040516103399190614e25565b34801561060857600080fd5b5061061c610617366004614d0f565b611a08565b604051610339959493929190614eaa565b34801561063957600080fd5b506103a1610648366004614d0f565b611a64565b34801561065957600080fd5b506005546103a1565b34801561066e57600080fd5b506103a1600081565b34801561068357600080fd5b506102e3610692366004614ee9565b611bb9565b3480156106a357600080fd5b506103a1600a81565b3480156106b857600080fd5b506102e36106c7366004614ee9565b611c5a565b3480156106d857600080fd5b506102e36106e7366004614f82565b611e60565b3480156106f857600080fd5b506102e3610707366004614ee9565b611f2c565b34801561071857600080fd5b506103a16001600160ff1b0381565b34801561073357600080fd5b50610747610742366004614fda565b611f7a565b604051610339989796959493929190614ffc565b34801561076757600080fd5b506102e3610776366004614d0f565b61206e565b34801561078757600080fd5b506102e3610796366004614ee9565b6121fa565b3480156107a757600080fd5b506102e36107b63660046150ed565b612295565b3480156107c757600080fd5b506102e36107d6366004614ee9565b61261e565b3480156107e757600080fd5b506107fb6107f6366004614d0f565b6126c6565b60408051928352602083019190915201610339565b34801561081c57600080fd5b506102e361082b366004614b9b565b612772565b34801561083c57600080fd5b506102e361084b3660046151ad565b6127be565b6103a161085e3660046151e1565b61286d565b34801561086f57600080fd5b506102e361087e366004614b9b565b612ba3565b6102e3610891366004615227565b612bef565b3480156108a257600080fd5b506103a16108b1366004614d0f565b613250565b3480156108c257600080fd5b50600254610325906001600160a01b031681565b3480156108e257600080fd5b506109356108f1366004615260565b6001600160a01b0390911660009081526007602090815260408083206001600160601b03909416835260018401825280832054600285019092529091205491549092565b60408051938452602084019290925290820152606001610339565b34801561095c57600080fd5b506102e361096b366004614fda565b6132b8565b34801561097c57600080fd5b506102e361098b366004614b9b565b6135bf565b34801561099c57600080fd5b506103a1600381565b3480156109b157600080fd5b506102e36109c036600461528c565b61360b565b3480156109d157600080fd5b506102e36109e03660046152aa565b613868565b3480156109f157600080fd5b506103a1610a003660046152ee565b6138c4565b348015610a1157600080fd5b50600154610325906001600160a01b031681565b348015610a3157600080fd5b506103a1610a40366004614d0f565b613918565b348015610a5157600080fd5b5061040f610a60366004614ee9565b613947565b6000546001600160a01b03163314610a985760405162461bcd60e51b8152600401610a8f90615322565b60405180910390fd5b600180546001600160a01b0319166001600160a01b0392909216919091179055565b6000546001600160a01b03163314610ae45760405162461bcd60e51b8152600401610a8f90615322565b60005b8251811015610c5b578115610b81576000838281518110610b0a57610b0a615349565b6020026020010151118015610b3b57506005548351849083908110610b3157610b31615349565b6020026020010151105b610b575760405162461bcd60e51b8152600401610a8f9061535f565b610b7c84848381518110610b6d57610b6d615349565b60200260200101516001613991565b610c49565b6001600160601b0384166001148015610bd7575060006005848381518110610bab57610bab615349565b602002602001015181548110610bc357610bc3615349565b906000526020600020906005020160000154145b15610c245760405162461bcd60e51b815260206004820181905260248201527f43616e27742064697361626c6520526f6f7420444b20696e2047656e6572616c6044820152606401610a8f565b610c4984848381518110610c3a57610c3a615349565b60200260200101516000613991565b80610c538161539d565b915050610ae7565b50505050565b60058181548110610c7157600080fd5b600091825260209091206005909102018054600282015460038301546004909301549193506001600160a01b0316919060ff1684565b600060068281548110610cbc57610cbc615349565b600091825260208220600491820201805482549194506001600160601b0316908110610cea57610cea615349565b6000918252602082206003850154600c909202019250610d0c906001906153b6565b90506000836003018281548110610d2557610d25615349565b6000918252602082206009909102019150600185015460ff166004811115610d4f57610d4f614e72565b03610e81576000821180610da057506001840154600684019060ff166004811115610d7c57610d7c614e72565b60048110610d8c57610d8c615349565b01546002850154610d9d90426153b6565b10155b610dec5760405162461bcd60e51b815260206004820152601e60248201527f45766964656e6365206e6f7420706173736564202626202141707065616c00006044820152606401610a8f565b6003810154600682015414610e3b5760405162461bcd60e51b815260206004820152601560248201527444697370757465207374696c6c2064726177696e6760581b6044820152606401610a8f565b8254600160601b900460ff16610e52576002610e55565b60015b60018086018054909160ff1990911690836004811115610e7757610e77614e72565b0217905550611291565b60018085015460ff166004811115610e9b57610e9b614e72565b03610fda576001840154600684019060ff166004811115610ebe57610ebe614e72565b60048110610ece57610ece615349565b01546002850154610edf90426153b6565b101580610f7c57506005816000015481548110610efe57610efe615349565b6000918252602090912060059091020160020154604051630baa64d160e01b8152600481018790526001600160a01b0390911690630baa64d190602401602060405180830381865afa158015610f58573d6000803e3d6000fd5b505050506040513d601f19601f82011682018060405250810190610f7c91906153c9565b610fc35760405162461bcd60e51b815260206004820152601860248201527710dbdb5b5a5d081c195c9a5bd9081b9bdd081c185cdcd95960421b6044820152606401610a8f565b6001808501805460029260ff199091169083610e77565b6002600185015460ff166004811115610ff557610ff5614e72565b03611170576001840154600684019060ff16600481111561101857611018614e72565b6004811061102857611028615349565b0154600285015461103990426153b6565b1015806110d65750600581600001548154811061105857611058615349565b60009182526020909120600590910201600201546040516336a66c7560e11b8152600481018790526001600160a01b0390911690636d4cd8ea90602401602060405180830381865afa1580156110b2573d6000803e3d6000fd5b505050506040513d601f19601f820116820180604052508101906110d691906153c9565b61111b5760405162461bcd60e51b8152602060048201526016602482015275159bdd19481c195c9a5bd9081b9bdd081c185cdcd95960521b6044820152606401610a8f565b600184018054600360ff199091161790558354604051600160601b9091046001600160a01b03169086907fa5d41b970d849372be1da1481ffd78d162bfe57a7aa2fe4e5fb73481fa5ac24f90600090a3611291565b6003600185015460ff16600481111561118b5761118b614e72565b0361122f576001840154600684019060ff1660048111156111ae576111ae614e72565b600481106111be576111be615349565b015460028501546111cf90426153b6565b10156112185760405162461bcd60e51b8152602060048201526018602482015277105c1c19585b081c195c9a5bd9081b9bdd081c185cdcd95960421b6044820152606401610a8f565b6001808501805460049260ff199091169083610e77565b6004600185015460ff16600481111561124a5761124a614e72565b036112915760405162461bcd60e51b8152602060048201526017602482015276111a5cdc1d5d19481c195c9a5bd9081a5cc8199a5b985b604a1b6044820152606401610a8f565b426002850155600184015460405186917f4e6f5cf43b95303e86aee81683df63992061723a829ee012db21dad388756b91916112d09160ff16906153e6565b60405180910390a25050505050565b6000600582815481106112f4576112f4615349565b60009182526020909120600260059092020101546001600160a01b031692915050565b6000806006838154811061132d5761132d615349565b6000918252602082206003600490920201908101805491935090611353906001906153b6565b8154811061136357611363615349565b6000918252602082208454600480546009909402909201945090916001600160601b0390911690811061139857611398615349565b90600052602060002090600c020190508060050154826003015410156113c357506000949350505050565b80546004805490916001600160601b03169081106113e3576113e3615349565b6000918252602080832094548352600a600c9092029094010190925250604090205460ff16159392505050565b6000806000806006858154811061142957611429615349565b600091825260208220600360049092020190810180549193509061144f906001906153b6565b8154811061145f5761145f615349565b906000526020600020906009020190506000600582600001548154811061148857611488615349565b6000918252602090912060059091020160020154604051631c3db16d60e01b8152600481018990526001600160a01b0390911691508190631c3db16d90602401606060405180830381865afa1580156114e5573d6000803e3d6000fd5b505050506040513d601f19601f8201168201806040525081019061150991906153f4565b9199909850909650945050505050565b6004818154811061152957600080fd5b60009182526020909120600c9091020180546002820154600383015460048401546005850154600b909501546001600160601b038516965060ff600160601b9095048516959394929391921687565b60006006848154811061158d5761158d615349565b600091825260209091206004918202019150600182015460ff1660048111156115b8576115b8614e72565b146115d55760405162461bcd60e51b8152600401610a8f9061542c565b60008160030184815481106115ec576115ec615349565b906000526020600020906009020190506000600582600001548154811061161557611615615349565b6000918252602082206002600590920201015460048401546001600160a01b039091169250906116458683615457565b6005850154600686015460405163368efae360e21b8152600481018c9052602481018b905292935090916000906001600160a01b0387169063da3beb8c90604401602060405180830381865afa1580156116a3573d6000803e3d6000fd5b505050506040513d601f19601f820116820180604052508101906116c7919061546a565b9050806000036116e257818411156116dd578193505b611702565b6116ed826002615483565b841115611702576116ff826002615483565b93505b60048701849055845b8481101561179e5782811015611757576117506040518060c001604052808e81526020018d815260200184815260200185815260200186815260200183815250613a19565b935061178c565b61178c6040518060c001604052808e81526020018d815260200184815260200185815260200186815260200183815250613f1c565b806117968161539d565b91505061170b565b50828760050154146117b257600587018390555b5050505050505050505050565b6117c7614ad8565b60006004836001600160601b0316815481106117e5576117e5615349565b60009182526020909120604080516080810191829052600c9093029091019250600683019060049082845b815481526020019060010190808311611810575050505050915050919050565b60606005828154811061184557611845615349565b90600052602060002090600502016001018054806020026020016040519081016040528092919081815260200182805480156118a057602002820191906000526020600020905b81548152602001906001019080831161188c575b50505050509050919050565b6000546001600160a01b031633146118d65760405162461bcd60e51b8152600401610a8f90615322565b806004836001600160601b0316815481106118f3576118f3615349565b90600052602060002090600c0201600001600c6101000a81548160ff021916908315150217905550816001600160601b031660008051602061569a833981519152604051611960906020808252600b908201526a68696464656e566f74657360a81b604082015260600190565b60405180910390a25050565b6001600160a01b0381166000908152600760209081526040918290208054835181840281018401909452808452606093928301828280156118a057602002820191906000526020600020906000905b82829054906101000a90046001600160601b03166001600160601b0316815260200190600c0190602082600b010492830192600103820291508084116119bb575094979650505050505050565b60068181548110611a1857600080fd5b60009182526020909120600490910201805460018201546002909201546001600160601b0382169350600160601b9091046001600160a01b03169160ff80821692610100909204169085565b60008060068381548110611a7a57611a7a615349565b6000918252602082206003600490920201908101805491935090611aa0906001906153b6565b81548110611ab057611ab0615349565b6000918252602082208454600480546009909402909201945090916001600160601b03909116908110611ae557611ae5615349565b90600052602060002090600c020190508060050154826003015410611b845782546001600160601b031660001901611b26576001600160ff1b039350611bb1565b6003820154611b36906002615483565b611b41906001615457565b81546004805490916001600160601b0316908110611b6157611b61615349565b90600052602060002090600c020160040154611b7d9190615483565b9350611bb1565b6003820154611b94906002615483565b611b9f906001615457565b8160040154611bae9190615483565b93505b505050919050565b6000546001600160a01b03163314611be35760405162461bcd60e51b8152600401610a8f90615322565b806004836001600160601b031681548110611c0057611c00615349565b90600052602060002090600c020160040181905550816001600160601b031660008051602061569a833981519152604051611960906020808252600b908201526a3332b2a337b9253ab937b960a91b604082015260600190565b6000546001600160a01b03163314611c845760405162461bcd60e51b8152600401610a8f90615322565b6001600160601b03821660011480611cf7575080600480846001600160601b031681548110611cb557611cb5615349565b60009182526020909120600c909102015481546001600160601b03909116908110611ce257611ce2615349565b90600052602060002090600c02016002015411155b611d135760405162461bcd60e51b8152600401610a8f9061549a565b60005b6004836001600160601b031681548110611d3257611d32615349565b90600052602060002090600c020160010180549050811015611deb5781600480856001600160601b031681548110611d6c57611d6c615349565b90600052602060002090600c02016001018381548110611d8e57611d8e615349565b906000526020600020015481548110611da957611da9615349565b90600052602060002090600c0201600201541015611dd95760405162461bcd60e51b8152600401610a8f9061549a565b80611de38161539d565b915050611d16565b50806004836001600160601b031681548110611e0957611e09615349565b90600052602060002090600c020160020181905550816001600160601b031660008051602061569a833981519152604051611960906020808252600890820152676d696e5374616b6560c01b604082015260600190565b6000546001600160a01b03163314611e8a5760405162461bcd60e51b8152600401610a8f90615322565b6000836001600160a01b03168383604051611ea591906154f3565b60006040518083038185875af1925050503d8060008114611ee2576040519150601f19603f3d011682016040523d82523d6000602084013e611ee7565b606091505b5050905080610c5b5760405162461bcd60e51b8152602060048201526011602482015270155b9cdd58d8d95cdcd99d5b0818d85b1b607a1b6044820152606401610a8f565b611f39338383600061435c565b611f765760405162461bcd60e51b815260206004820152600e60248201526d14dd185ada5b99c819985a5b195960921b6044820152606401610a8f565b5050565b600080600080606060008060008060068b81548110611f9b57611f9b615349565b90600052602060002090600402016003018a81548110611fbd57611fbd615349565b906000526020600020906009020190508060010154816002015482600401548360050154846006018560000154866007015487600801548380548060200260200160405190810160405280929190818152602001828054801561204957602002820191906000526020600020905b81546001600160a01b0316815260019091019060200180831161202b575b5050505050935098509850985098509850985098509850509295985092959890939650565b60006006828154811061208357612083615349565b600091825260209091206004918202019150600182015460ff1660048111156120ae576120ae614e72565b146120cb5760405162461bcd60e51b8152600401610a8f9061542c565b6001810154610100900460ff161561211f5760405162461bcd60e51b8152602060048201526017602482015276149d5b1a5b99c8185b1c9958591e48195e1958dd5d1959604a1b6044820152606401610a8f565b600061212a83611410565b505060018301805461010061ff001990911617905582546040518281529192508491600160601b9091046001600160a01b0316907f394027a5fa6e098a1191094d1719d6929b9abc535fcc0c8f448d6a4e756222769060200160405180910390a3815460405163188d362b60e11b81526004810185905260248101839052600160601b9091046001600160a01b03169063311a6c5690604401600060405180830381600087803b1580156121dd57600080fd5b505af11580156121f1573d6000803e3d6000fd5b50505050505050565b6000546001600160a01b031633146122245760405162461bcd60e51b8152600401610a8f90615322565b806004836001600160601b03168154811061224157612241615349565b90600052602060002090600c020160030181905550816001600160601b031660008051602061569a83398151915260405161196090602080825260059082015264616c70686160d81b604082015260600190565b6000546001600160a01b031633146122bf5760405162461bcd60e51b8152600401610a8f90615322565b8660048a6001600160601b0316815481106122dc576122dc615349565b90600052602060002090600c020160020154111561230c5760405162461bcd60e51b8152600401610a8f9061549a565b600081511161234d5760405162461bcd60e51b815260206004820152600d60248201526c21537570706f7274656420444b60981b6044820152606401610a8f565b6001600160601b0389166123a35760405162461bcd60e51b815260206004820181905260248201527f496e76616c69643a20466f726b696e6720636f75727420617320706172656e746044820152606401610a8f565b60048054600181018255600091825290600c82027f8a35acfbc15ff81a39ae7d344fd709f28e8600b4aa8c65c6b64bfe7fe36bd19b01905b835181101561249f5760008482815181106123f8576123f8615349565b60200260200101511180156124295750600554845185908390811061241f5761241f615349565b6020026020010151105b6124455760405162461bcd60e51b8152600401610a8f9061535f565b600182600a01600086848151811061245f5761245f615349565b6020026020010151815260200190815260200160002060006101000a81548160ff02191690831515021790555080806124979061539d565b9150506123db565b5080546001600160601b0319166001600160601b038c1617815560408051600081526020810191829052516124d8916001840191614af6565b50805460ff60601b1916600160601b8b151502178155600281018990556003810188905560048082018890556005820187905561251b9060068301908790614b41565b506003546040516311de995760e21b81526001600160a01b039091169063477a655c9061254e908590889060040161553b565b600060405180830381600087803b15801561256857600080fd5b505af115801561257c573d6000803e3d6000fd5b5050505060048b6001600160601b03168154811061259c5761259c615349565b600091825260208083206001600c909302018201805492830181558352909120018290556040516001600160601b038c169083907f3475f0ed7216dd7d453db663a1c3024e4f36cc925521d54edb9d13e022cbee3d90612609908e908e908e908e908e908e908d90615554565b60405180910390a35050505050505050505050565b6000546001600160a01b031633146126485760405162461bcd60e51b8152600401610a8f90615322565b806004836001600160601b03168154811061266557612665615349565b90600052602060002090600c020160050181905550816001600160601b031660008051602061569a8339815191526040516119609060208082526012908201527106a75726f7273466f72436f7572744a756d760741b604082015260600190565b6000806000600684815481106126de576126de615349565b6000918252602090912060049091020190506003600182015460ff16600481111561270b5761270b614e72565b03612763576002810154815460048054929550916001600160601b0390911690811061273957612739615349565b600091825260209091206009600c909202010154600282015461275c9190615457565b915061276c565b60009250600091505b50915091565b6000546001600160a01b0316331461279c5760405162461bcd60e51b8152600401610a8f90615322565b600380546001600160a01b0319166001600160a01b0392909216919091179055565b6000546001600160a01b031633146127e85760405162461bcd60e51b8152600401610a8f90615322565b806004836001600160601b03168154811061280557612805615349565b90600052602060002090600c0201600601906004612824929190614b41565b50816001600160601b031660008051602061569a833981519152604051611960906020808252600e908201526d1d1a5b595cd4195c94195c9a5bd960921b604082015260600190565b6000612878826138c4565b3410156128c75760405162461bcd60e51b815260206004820181905260248201527f45544820746f6f206c6f7720666f72206172626974726174696f6e20636f73746044820152606401610a8f565b6000806128d38461489e565b92505091506004826001600160601b0316815481106128f4576128f4615349565b60009182526020808320848452600a600c90930201919091019052604090205460ff1661295d5760405162461bcd60e51b81526020600482015260176024820152761112c81d5b9cdd5c1c1bdc9d195908189e4818dbdd5c9d604a1b6044820152606401610a8f565b600680546001810182556000918252600160601b33026001600160601b03851617600482027ff652222313e28459528d920b65115c16c04f3efc82aaedc97be59f3f377c0d3f8101918255427ff652222313e28459528d920b65115c16c04f3efc82aaedc97be59f3f377c0d419091015560058054929650909291849081106129e8576129e8615349565b600091825260208220600260059092020101548354600480546001600160a01b039093169450916001600160601b03909116908110612a2957612a29615349565b60009182526020808320600387018054600181018255908552919093206004600c9093029093019182015491935060090290910190612a6890346155ba565b600380830191909155858255820154600283015461271091612a8991615483565b612a9391906155ba565b600182015534600282015560035460405163d09f392d60e01b815260048101899052600060248201526001600160a01b039091169063d09f392d90604401600060405180830381600087803b158015612aeb57600080fd5b505af1158015612aff573d6000803e3d6000fd5b5050505060038101546040516302dbb79560e61b81526001600160a01b0385169163b6ede54091612b38918b918e918e916004016155ce565b600060405180830381600087803b158015612b5257600080fd5b505af1158015612b66573d6000803e3d6000fd5b50506040513392508991507f141dfc18aa6a56fc816f44f0e9e2f1ebc92b15ab167770e17db5b084c10ed99590600090a350505050505092915050565b6000546001600160a01b03163314612bcd5760405162461bcd60e51b8152600401610a8f90615322565b600280546001600160a01b0319166001600160a01b0392909216919091179055565b612bf883611a64565b341015612c475760405162461bcd60e51b815260206004820152601b60248201527f45544820746f6f206c6f7720666f722061707065616c20636f737400000000006044820152606401610a8f565b600060068481548110612c5c57612c5c615349565b6000918252602090912060049091020190506003600182015460ff166004811115612c8957612c89614e72565b14612ccf5760405162461bcd60e51b815260206004820152601660248201527544697370757465206e6f742061707065616c61626c6560501b6044820152606401610a8f565b60038101805460009190612ce5906001906153b6565b81548110612cf557612cf5615349565b906000526020600020906009020190506005816000015481548110612d1c57612d1c615349565b60009182526020909120600590910201600201546001600160a01b03163314612d7a5760405162461bcd60e51b815260206004820152601060248201526f44697370757465204b6974206f6e6c7960801b6044820152606401610a8f565b8154815460038401805460018101825560009182526020909120600480546001600160601b039095169460099093029091019184908110612dbd57612dbd615349565b90600052602060002090600c020160050154846003015410612fbb576004836001600160601b031681548110612df557612df5615349565b600091825260208220600c90910201546001600160601b031693505b600a811015612f00576004846001600160601b031681548110612e3657612e36615349565b60009182526020808320868452600a600c90930201919091019052604090205460ff16612f0057600060058481548110612e7257612e72615349565b90600052602060002090600502016000015414612eb55760058381548110612e9c57612e9c615349565b9060005260206000209060050201600001549250612eee565b6004846001600160601b031681548110612ed157612ed1615349565b60009182526020909120600c90910201546001600160601b031693505b80612ef88161539d565b915050612e11565b506004836001600160601b031681548110612f1d57612f1d615349565b60009182526020808320858452600a600c90930201919091019052604090205460ff16612f4957600192505b84546001600160601b03848116911614612fbb57845460038601546001600160601b0390911690612f7c906001906153b6565b6040516001600160601b03861681528a907f736e3f52761298c8c0823e1ebf482ed3c5ecb304f743d2d91a7c006e8e8d7a1f9060200160405180910390a45b84546001600160601b0319166001600160601b038416908117865560018601805460ff1916905542600287015560048054600092908110612ffe57612ffe615349565b90600052602060002090600c0201905080600401543461301e91906155ba565b82600301819055506127108160030154826002015461303d9190615483565b61304791906155ba565b60018084019190915534600284015583835560038054908801546001600160a01b039091169163d09f392d918c9161307e916153b6565b6040516001600160e01b031960e085901b16815260048101929092526024820152604401600060405180830381600087803b1580156130bc57600080fd5b505af11580156130d0573d6000803e3d6000fd5b5050865484541491506131cd905057600060058360000154815481106130f8576130f8615349565b6000918252602090912060026005909202010154865460038901546001600160a01b0390921692509061312d906001906153b6565b84546040519081528c907fcbe7939a71f0b369c7471d760a0a99b60b7bb010ee0406cba8a46679d1ea77569060200160405180910390a460038301546040516302dbb79560e61b81526001600160a01b0383169163b6ede54091613199918e918e918e916004016155ce565b600060405180830381600087803b1580156131b357600080fd5b505af11580156131c7573d6000803e3d6000fd5b50505050505b8554604051600160601b9091046001600160a01b0316908a907f9c9b64db9e130f48381bf697abf638e73117dbfbfd7a4484f2da3ba188f4187d90600090a3887f4e6f5cf43b95303e86aee81683df63992061723a829ee012db21dad388756b91600060405161323d91906153e6565b60405180910390a2505050505050505050565b6000806006838154811061326657613266615349565b90600052602060002090600402019050806003016001826003018054905061328e91906153b6565b8154811061329e5761329e615349565b906000526020600020906009020160030154915050919050565b6000600683815481106132cd576132cd615349565b906000526020600020906004020190506000600182600301805490506132f391906153b6565b9050600082600301828154811061330c5761330c615349565b6000918252602082206009909102019150600184015460ff16600481111561333657613336614e72565b146133765760405162461bcd60e51b815260206004820152601060248201526f08515d9a59195b98d9481c195c9a5bd960821b6044820152606401610a8f565b6000600582600001548154811061338f5761338f615349565b60009182526020822060026005909202010154600684015460038501546001600160a01b03909216935091906133c58884615457565b11156133d55783600301546133df565b6133df8783615457565b9050815b818110156135b457604051633b30414760e01b8152600481018a90526000906001600160a01b03861690633b304147906024016020604051808303816000875af1158015613435573d6000803e3d6000fd5b505050506040513d601f19601f8201168201806040525081019061345991906155fe565b90506001600160a01b038116156135a15760018601546001600160a01b03821660009081526007602090815260408083208c546001600160601b03168452600201909152812080549091906134af908490615457565b909155505060068601546040805189815260208101929092528b916001600160a01b038416917f6119cf536152c11e0a9a6c22f3953ce4ecc93ee54fa72ffa326ffabded21509b910160405180910390a36006860180546001810182556000828152602090200180546001600160a01b0319166001600160a01b03841617905560038701549054036135a157600354604051632e96bc2360e11b8152600481018c9052602481018990526001600160a01b0390911690635d2d784690604401600060405180830381600087803b15801561358857600080fd5b505af115801561359c573d6000803e3d6000fd5b505050505b50806135ac8161539d565b9150506133e3565b505050505050505050565b6000546001600160a01b031633146135e95760405162461bcd60e51b8152600401610a8f90615322565b600080546001600160a01b0319166001600160a01b0392909216919091179055565b6000546001600160a01b031633146136355760405162461bcd60e51b8152600401610a8f90615322565b6005548082106136715760405162461bcd60e51b81526020600482015260076024820152660854185c995b9d60ca1b6044820152606401610a8f565b600082156136ee576005838154811061368c5761368c615349565b90600052602060002090600502016003015460016136aa9190615457565b9050600a81106136ee5760405162461bcd60e51b815260206004820152600f60248201526e088cae0e8d040d8caeccad840dac2f608b1b6044820152606401610a8f565b6040805160a08101825284815281516000808252602080830185528084019283526001600160a01b0389169484019490945260608301859052608083018190526005805460018101825591819052835191027f036b6384b5eca791c62761152d0c79bb0604c104a5fb6f4eb0703f3154bb3db08101918255915180519394919361379f937f036b6384b5eca791c62761152d0c79bb0604c104a5fb6f4eb0703f3154bb3db101929190910190614af6565b5060408201516002820180546001600160a01b0319166001600160a01b03909216919091179055606082015160038201556080909101516004909101805460ff191691151591909117905560058054849081106137fe576137fe615349565b600091825260208083206001600590930201820180549283018155835282200183905560405184916001600160a01b0387169185917f7921860794ac14fda09ee75f7160a5a3d266e3352f7954d0401606a92a26c49891a482610c5b57610c5b6001836001613991565b6003546001600160a01b031633146138b15760405162461bcd60e51b815260206004820152600c60248201526b2bb937b7339031b0b63632b960a11b6044820152606401610a8f565b6138bd8484848461435c565b5050505050565b60008060006138d28461489e565b5091509150806004836001600160601b0316815481106138f4576138f4615349565b90600052602060002090600c0201600401546139109190615483565b949350505050565b60006006828154811061392d5761392d615349565b600091825260209091206003600490920201015492915050565b60006004836001600160601b03168154811061396557613965615349565b60009182526020808320858452600a600c90930201919091019052604090205460ff1690505b92915050565b806004846001600160601b0316815481106139ae576139ae615349565b60009182526020808320868452600c92909202909101600a0190526040808220805460ff19169315159390931790925590518215159184916001600160601b038716917fb47629acdf64971062d40984f77d3dee212d735b11e3e8c7a4222d9f0572cc7991a4505050565b6000806006836000015181548110613a3357613a33615349565b90600052602060002090600402019050600081600301846020015181548110613a5e57613a5e615349565b9060005260206000209060090201905060006005826000015481548110613a8757613a87615349565b600091825260208083206005929092029091016002015487519188015160a0890151604051634fe264fb60e01b81526004810194909452602484019190915260448301526001600160a01b031692508290634fe264fb90606401602060405180830381865afa158015613afe573d6000803e3d6000fd5b505050506040513d601f19601f82011682018060405250810190613b22919061546a565b9050612710811115613b3357506127105b6000612710613b4283826153b6565b8560010154613b519190615483565b613b5b91906155ba565b90508087608001818151613b6f9190615457565b90525060a0870151600685018054600092908110613b8f57613b8f615349565b60009182526020808320909101546001600160a01b03168083526007825260408084208a546001600160601b03168552600201909252908220805491935084929091613bdc9084906153b6565b909155505085546004805484926001600160601b0316908110613c0157613c01615349565b90600052602060002090600c020160020154613c1d9190615457565b6001600160a01b03821660009081526007602090815260408083208a546001600160601b0316845260010190915290205410613cb1576001600160a01b038116600090815260076020908152604080832089546001600160601b03168452600101909152812054613c8f9084906153b6565b8754909150613caa9083906001600160601b0316838661435c565b5050613d02565b6001600160a01b038116600090815260076020908152604080832089546001600160601b0316845260010190915290205415613d02578554613d009082906001600160601b031660008561435c565b505b602088015188516001600160a01b0383167fc171b9733293347059aeb71aadbd72eadc00a2351c088cc7b40fce882976c27886613d3e8761561b565b60408051928352602083019190915260009082015260600160405180910390a48751602089015160a08a015160405163ba66fde760e01b81526004810193909352602483019190915260448201526001600160a01b0385169063ba66fde790606401602060405180830381865afa158015613dbd573d6000803e3d6000fd5b505050506040513d601f19601f82011682018060405250810190613de191906153c9565b613e455760035460405163b5d69e9960e01b81526001600160a01b0383811660048301529091169063b5d69e9990602401600060405180830381600087803b158015613e2c57600080fd5b505af1158015613e40573d6000803e3d6000fd5b505050505b60018860600151613e5691906153b6565b8860a00151148015613e6a57506040880151155b15613f0b576000805460028701546040516001600160a01b039092169281156108fc029290818181858888f1505060005460808c0151613eb994506001600160a01b0390911692509050614925565b506020880151885160808a015160028801546040517f695b5df09b907b4de5cb1abe7380bd74f3cb12835dd767dbaf88c79279d73eb292613f0292908252602082015260400190565b60405180910390a35b505050608090940151949350505050565b60006006826000015181548110613f3557613f35615349565b90600052602060002090600402019050600081600301836020015181548110613f6057613f60615349565b9060005260206000209060090201905060006005826000015481548110613f8957613f89615349565b906000526020600020906005020160020160009054906101000a90046001600160a01b031690506000816001600160a01b0316634fe264fb8660000151876020015188606001518960a00151613fdf9190615637565b6040516001600160e01b031960e086901b168152600481019390935260248301919091526044820152606401602060405180830381865afa158015614028573d6000803e3d6000fd5b505050506040513d601f19601f8201168201806040525081019061404c919061546a565b905061271081111561405d57506127105b60008360060186606001518760a001516140779190615637565b8154811061408757614087615349565b600091825260208220015460018601546001600160a01b039091169250612710906140b3908590615483565b6140bd91906155ba565b6001600160a01b03831660009081526007602090815260408083208a546001600160601b031684526002019091528120805492935083929091906141029084906153b6565b90915550506001600160a01b038216600090815260076020908152604080832089546001600160601b03168452600101909152812054900361414a576141488282614925565b505b60006127108489604001518a6080015161416491906155ba565b61416e9190615483565b61417891906155ba565b90508086600801600082825461418e9190615457565b925050819055506000612710858a6040015189600201546141af91906155ba565b6141b99190615483565b6141c391906155ba565b9050808760070160008282546141d99190615457565b909155506141e990508483614925565b506040516001600160a01b0385169082156108fc029083906000818181858888f15050506020808c01518c51604080518b8152938401889052830186905290935091506001600160a01b038716907fc171b9733293347059aeb71aadbd72eadc00a2351c088cc7b40fce882976c2789060600160405180910390a46001896060015160026142779190615483565b61428191906153b6565b8960a00151036135b457600087600801548a608001516142a191906153b6565b90506000886007015489600201546142b991906153b6565b9050811515806142c857508015155b156117b25781156142eb576000546142e9906001600160a01b031683614925565b505b801561431a57600080546040516001600160a01b039091169183156108fc02918491818181858888f150505050505b60208b01518b516040517f695b5df09b907b4de5cb1abe7380bd74f3cb12835dd767dbaf88c79279d73eb2906126099086908690918252602082015260400190565b60006001600160601b038416158061437e57506004546001600160601b038516115b1561438b57506000613910565b6001600160a01b03851660009081526007602090815260408083206001600160601b038816845260018101909252909120548415614427576004866001600160601b0316815481106143df576143df615349565b90600052602060002090600c02016002015485108061441757506001600160601b038616600090815260028301602052604090205485105b1561442757600092505050613910565b600354604051632099a71760e11b81526001600160a01b0389811660048301526001600160601b0389166024830152604482018890526064820187905260009216906341334e2e906084016020604051808303816000875af1158015614491573d6000803e3d6000fd5b505050506040513d601f19601f820116820180604052508101906144b5919061564b565b905060028160028111156144cb576144cb614e72565b036144dc5760009350505050613910565b60018160028111156144f0576144f0614e72565b0361455657604080516001600160601b0389168152602081018890529081018690526001600160a01b038916907f11ae3b4b2755c1ae163e5d571ab5070da164ce1280ad3375a227271ef58bf9389060600160405180910390a260019350505050613910565b60008287106145d65761456983886153b6565b905080156145c45761457c8930836149fa565b156145c957826000036145c4578354600180820186556000868152602090206002830401805491909216600c026101000a6001600160601b0381810219909216918b16021790555b6147b7565b6000945050505050613910565b8660000361477f576001600160601b0388166000908152600285016020526040902054869061460590856153b6565b61460f91906153b6565b905080156145c4576146218982614925565b156145c95783545b8015614779576001600160601b038916856146456001846153b6565b8154811061465557614655615349565b600091825260209091206002820401546001909116600c026101000a90046001600160601b0316036147675784548590614691906001906153b6565b815481106146a1576146a1615349565b600091825260209091206002820401546001918216600c026101000a90046001600160601b03169086906146d590846153b6565b815481106146e5576146e5615349565b9060005260206000209060029182820401919006600c026101000a8154816001600160601b0302191690836001600160601b03160217905550846000018054806147315761473161566c565b60008281526020902060026000199092019182040180546001600160601b03600c60018516026101000a02191690559055614779565b8061477181615682565b915050614629565b506147b7565b8561478a88856153b6565b61479491906153b6565b905080156147b7576147a68982614925565b6147b7576000945050505050613910565b6001600160601b0388166000818152600186016020526040908190208990556003549051631166238b60e21b81526001600160a01b038c811660048301526024820193909352604481018a90529116906345988e2c90606401600060405180830381600087803b15801561482a57600080fd5b505af115801561483e573d6000803e3d6000fd5b5050604080516001600160601b038c168152602081018b90526001600160a01b038d1693507f4732545d01e38980276a17e6d394f01577ba63f2fea5eba41af0757d9c060c5c92500160405180910390a250600198975050505050505050565b60008060006040845110614913575050506020810151604082015160608301516001600160601b03831615806148df57506004546001600160601b03841610155b156148e957600192505b816000036148f657600391505b80158061490557506005548110155b1561490e575060015b61491e565b506001915060039050815b9193909250565b6001546040516001600160a01b03848116602483015260448201849052600092839283929091169060640160408051601f198184030181529181526020820180516001600160e01b031663a9059cbb60e01b1790525161498591906154f3565b6000604051808303816000865af19150503d80600081146149c2576040519150601f19603f3d011682016040523d82523d6000602084013e6149c7565b606091505b50915091508180156149f15750805115806149f15750808060200190518101906149f191906153c9565b95945050505050565b6001546040516001600160a01b038581166024830152848116604483015260648201849052600092839283929091169060840160408051601f198184030181529181526020820180516001600160e01b03166323b872dd60e01b17905251614a6291906154f3565b6000604051808303816000865af19150503d8060008114614a9f576040519150601f19603f3d011682016040523d82523d6000602084013e614aa4565b606091505b5091509150818015614ace575080511580614ace575080806020019051810190614ace91906153c9565b9695505050505050565b60405180608001604052806004906020820280368337509192915050565b828054828255906000526020600020908101928215614b31579160200282015b82811115614b31578251825591602001919060010190614b16565b50614b3d929150614b6e565b5090565b8260048101928215614b315791602002820182811115614b31578251825591602001919060010190614b16565b5b80821115614b3d5760008155600101614b6f565b6001600160a01b0381168114614b9857600080fd5b50565b600060208284031215614bad57600080fd5b8135614bb881614b83565b9392505050565b80356001600160601b0381168114614bd657600080fd5b919050565b634e487b7160e01b600052604160045260246000fd5b604051601f8201601f191681016001600160401b0381118282101715614c1957614c19614bdb565b604052919050565b600082601f830112614c3257600080fd5b813560206001600160401b03821115614c4d57614c4d614bdb565b8160051b614c5c828201614bf1565b9283528481018201928281019087851115614c7657600080fd5b83870192505b84831015614c9557823582529183019190830190614c7c565b979650505050505050565b8015158114614b9857600080fd5b600080600060608486031215614cc357600080fd5b614ccc84614bbf565b925060208401356001600160401b03811115614ce757600080fd5b614cf386828701614c21565b9250506040840135614d0481614ca0565b809150509250925092565b600060208284031215614d2157600080fd5b5035919050565b600080600060608486031215614d3d57600080fd5b505081359360208301359350604090920135919050565b600060208284031215614d6657600080fd5b614bb882614bbf565b8060005b6004811015610c5b578151845260209384019390910190600101614d73565b6080810161398b8284614d6f565b600081518084526020808501945080840160005b83811015614dd057815187529582019590820190600101614db4565b509495945050505050565b602081526000614bb86020830184614da0565b60008060408385031215614e0157600080fd5b614e0a83614bbf565b91506020830135614e1a81614ca0565b809150509250929050565b6020808252825182820181905260009190848201906040850190845b81811015614e665783516001600160601b031683529284019291840191600101614e41565b50909695505050505050565b634e487b7160e01b600052602160045260246000fd5b60058110614ea657634e487b7160e01b600052602160045260246000fd5b9052565b6001600160601b03861681526001600160a01b038516602082015260a08101614ed66040830186614e88565b9215156060820152608001529392505050565b60008060408385031215614efc57600080fd5b614f0583614bbf565b946020939093013593505050565b600082601f830112614f2457600080fd5b81356001600160401b03811115614f3d57614f3d614bdb565b614f50601f8201601f1916602001614bf1565b818152846020838601011115614f6557600080fd5b816020850160208301376000918101602001919091529392505050565b600080600060608486031215614f9757600080fd5b8335614fa281614b83565b92506020840135915060408401356001600160401b03811115614fc457600080fd5b614fd086828701614f13565b9150509250925092565b60008060408385031215614fed57600080fd5b50508035926020909101359150565b60006101008083018b845260208b818601528a6040860152896060860152826080860152819250885180835261012086019350818a01925060005b8181101561505c5783516001600160a01b031685529382019392820192600101615037565b5050505060a08301959095525060c081019290925260e09091015295945050505050565b600082601f83011261509157600080fd5b604051608081018181106001600160401b03821117156150b3576150b3614bdb565b6040528060808401858111156150c857600080fd5b845b818110156150e25780358352602092830192016150ca565b509195945050505050565b60008060008060008060008060006101808a8c03121561510c57600080fd5b6151158a614bbf565b985060208a013561512581614ca0565b975060408a0135965060608a0135955060808a0135945060a08a013593506151508b60c08c01615080565b92506101408a01356001600160401b038082111561516d57600080fd5b6151798d838e01614f13565b93506101608c013591508082111561519057600080fd5b5061519d8c828d01614c21565b9150509295985092959850929598565b60008060a083850312156151c057600080fd5b6151c983614bbf565b91506151d88460208501615080565b90509250929050565b600080604083850312156151f457600080fd5b8235915060208301356001600160401b0381111561521157600080fd5b61521d85828601614f13565b9150509250929050565b60008060006060848603121561523c57600080fd5b833592506020840135915060408401356001600160401b03811115614fc457600080fd5b6000806040838503121561527357600080fd5b823561527e81614b83565b91506151d860208401614bbf565b6000806040838503121561529f57600080fd5b8235614f0581614b83565b600080600080608085870312156152c057600080fd5b84356152cb81614b83565b93506152d960208601614bbf565b93969395505050506040820135916060013590565b60006020828403121561530057600080fd5b81356001600160401b0381111561531657600080fd5b61391084828501614f13565b6020808252600d908201526c476f7665726e6f72206f6e6c7960981b604082015260600190565b634e487b7160e01b600052603260045260246000fd5b6020808252600e908201526d0aee4dedcce40889640d2dcc8caf60931b604082015260600190565b634e487b7160e01b600052601160045260246000fd5b6000600182016153af576153af615387565b5060010190565b8181038181111561398b5761398b615387565b6000602082840312156153db57600080fd5b8151614bb881614ca0565b6020810161398b8284614e88565b60008060006060848603121561540957600080fd5b83519250602084015161541b81614ca0565b6040850151909250614d0481614ca0565b60208082526011908201527008515e1958dd5d1a5bdb881c195c9a5bd9607a1b604082015260600190565b8082018082111561398b5761398b615387565b60006020828403121561547c57600080fd5b5051919050565b808202811582820484141761398b5761398b615387565b6020808252818101527f4d696e5374616b65206c6f776572207468616e20706172656e7420636f757274604082015260600190565b60005b838110156154ea5781810151838201526020016154d2565b50506000910152565b600082516155058184602087016154cf565b9190910192915050565b600081518084526155278160208601602086016154cf565b601f01601f19169290920160200192915050565b828152604060208201526000613910604083018461550f565b6000610140891515835288602084015287604084015286606084015285608084015261558360a0840186614d6f565b8061012084015261559681840185614da0565b9a9950505050505050505050565b634e487b7160e01b600052601260045260246000fd5b6000826155c9576155c96155a4565b500490565b8481528360208201526080604082015260006155ed608083018561550f565b905082606083015295945050505050565b60006020828403121561561057600080fd5b8151614bb881614b83565b6000600160ff1b820161563057615630615387565b5060000390565b600082615646576156466155a4565b500690565b60006020828403121561565d57600080fd5b815160038110614bb857600080fd5b634e487b7160e01b600052603160045260246000fd5b60008161569157615691615387565b50600019019056fee83e0a05baa75e68db64db7387055029be50c8d8de00a3e3e56978509b9bc2dea2646970667358221220a636d1bec26af3a1cf04e14510600e9828729ba5619eb75cca0534c363ac241564736f6c63430008120033",
  "devdoc": {
    "events": {
      "DisputeCreation(uint256,address)": {
        "details": "To be emitted when a dispute is created.",
        "params": {
          "_arbitrable": "The contract which created the dispute.",
          "_disputeID": "ID of the dispute."
        }
      },
      "Ruling(address,uint256,uint256)": {
        "details": "To be raised when a ruling is given.",
        "params": {
          "_arbitrable": "The arbitrable receiving the ruling.",
          "_disputeID": "ID of the dispute in the Arbitrator contract.",
          "_ruling": "The ruling which was given."
        }
      }
    },
    "kind": "dev",
    "methods": {
      "addNewDisputeKit(address,uint256)": {
        "details": "Add a new supported dispute kit module to the court.",
        "params": {
          "_disputeKitAddress": "The address of the dispute kit contract.",
          "_parent": "The ID of the parent dispute kit. It is left empty when root DK is created. Note that the root DK must be supported by the general court."
        }
      },
      "appeal(uint256,uint256,bytes)": {
        "details": "Appeals the ruling of a specified dispute. Note: Access restricted to the Dispute Kit for this `disputeID`.",
        "params": {
          "_disputeID": "The ID of the dispute.",
          "_extraData": "Extradata for the dispute. Can be required during court jump.",
          "_numberOfChoices": "Number of choices for the dispute. Can be required during court jump."
        }
      },
      "appealCost(uint256)": {
        "details": "Gets the cost of appealing a specified dispute.",
        "params": {
          "_disputeID": "The ID of the dispute."
        },
        "returns": {
          "cost": "The appeal cost."
        }
      },
      "appealPeriod(uint256)": {
        "details": "Gets the start and the end of a specified dispute's current appeal period.",
        "params": {
          "_disputeID": "The ID of the dispute."
        },
        "returns": {
          "end": "The end of the appeal period.",
          "start": "The start of the appeal period."
        }
      },
      "arbitrationCost(bytes)": {
        "details": "Gets the cost of arbitration in a specified court.",
        "params": {
          "_extraData": "Additional info about the dispute. We use it to pass the ID of the court to create the dispute in (first 32 bytes) and the minimum number of jurors required (next 32 bytes)."
        },
        "returns": {
          "cost": "The arbitration cost."
        }
      },
      "changeCourtAlpha(uint96,uint256)": {
        "details": "Changes the `alpha` property value of a specified court.",
        "params": {
          "_alpha": "The new value for the `alpha` property value.",
          "_courtID": "The ID of the court."
        }
      },
      "changeCourtHiddenVotes(uint96,bool)": {
        "details": "Changes the `hiddenVotes` property value of a specified court.",
        "params": {
          "_courtID": "The ID of the court.",
          "_hiddenVotes": "The new value for the `hiddenVotes` property value."
        }
      },
      "changeCourtJurorFee(uint96,uint256)": {
        "details": "Changes the `feeForJuror` property value of a specified court.",
        "params": {
          "_courtID": "The ID of the court.",
          "_feeForJuror": "The new value for the `feeForJuror` property value."
        }
      },
      "changeCourtJurorsForJump(uint96,uint256)": {
        "details": "Changes the `jurorsForCourtJump` property value of a specified court.",
        "params": {
          "_courtID": "The ID of the court.",
          "_jurorsForCourtJump": "The new value for the `jurorsForCourtJump` property value."
        }
      },
      "changeCourtMinStake(uint96,uint256)": {
        "details": "Changes the `minStake` property value of a specified court. Don't set to a value lower than its parent's `minStake` property value.",
        "params": {
          "_courtID": "The ID of the court.",
          "_minStake": "The new value for the `minStake` property value."
        }
      },
      "changeCourtTimesPerPeriod(uint96,uint256[4])": {
        "details": "Changes the `timesPerPeriod` property value of a specified court.",
        "params": {
          "_courtID": "The ID of the court.",
          "_timesPerPeriod": "The new value for the `timesPerPeriod` property value."
        }
      },
      "changeGovernor(address)": {
        "details": "Changes the `governor` storage variable.",
        "params": {
          "_governor": "The new value for the `governor` storage variable."
        }
      },
      "changeJurorProsecutionModule(address)": {
        "details": "Changes the `jurorProsecutionModule` storage variable.",
        "params": {
          "_jurorProsecutionModule": "The new value for the `jurorProsecutionModule` storage variable."
        }
      },
      "changePinakion(address)": {
        "details": "Changes the `pinakion` storage variable.",
        "params": {
          "_pinakion": "The new value for the `pinakion` storage variable."
        }
      },
      "changeSortitionModule(address)": {
        "details": "Changes the `_sortitionModule` storage variable. Note that the new module should be initialized for all courts.",
        "params": {
          "_sortitionModule": "The new value for the `sortitionModule` storage variable."
        }
      },
      "constructor": {
        "details": "Constructor.",
        "params": {
          "_courtParameters": "Numeric parameters of General court (minStake, alpha, feeForJuror and jurorsForCourtJump respectively).",
          "_disputeKit": "The address of the default dispute kit.",
          "_governor": "The governor's address.",
          "_hiddenVotes": "The `hiddenVotes` property value of the general court.",
          "_jurorProsecutionModule": "The address of the juror prosecution module.",
          "_pinakion": "The address of the token contract.",
          "_sortitionExtraData": "The extra data for sortition module.",
          "_sortitionModuleAddress": "The sortition module responsible for sortition of the jurors.",
          "_timesPerPeriod": "The `timesPerPeriod` property value of the general court."
        }
      },
      "createCourt(uint96,bool,uint256,uint256,uint256,uint256,uint256[4],bytes,uint256[])": {
        "details": "Creates a court under a specified parent court.",
        "params": {
          "_alpha": "The `alpha` property value of the court.",
          "_feeForJuror": "The `feeForJuror` property value of the court.",
          "_hiddenVotes": "The `hiddenVotes` property value of the court.",
          "_jurorsForCourtJump": "The `jurorsForCourtJump` property value of the court.",
          "_minStake": "The `minStake` property value of the court.",
          "_parent": "The `parent` property value of the court.",
          "_sortitionExtraData": "Extra data for sortition module.",
          "_supportedDisputeKits": "Indexes of dispute kits that this court will support.",
          "_timesPerPeriod": "The `timesPerPeriod` property value of the court."
        }
      },
      "createDispute(uint256,bytes)": {
        "details": "Creates a dispute. Must be called by the arbitrable contract.",
        "params": {
          "_extraData": "Additional info about the dispute. We use it to pass the ID of the dispute's court (first 32 bytes), the minimum number of jurors required (next 32 bytes) and the ID of the specific dispute kit (last 32 bytes).",
          "_numberOfChoices": "Number of choices for the jurors to choose from."
        },
        "returns": {
          "disputeID": "The ID of the created dispute."
        }
      },
      "currentRuling(uint256)": {
        "details": "Gets the current ruling of a specified dispute.",
        "params": {
          "_disputeID": "The ID of the dispute."
        },
        "returns": {
          "overridden": "Whether the ruling was overridden by appeal funding or not.",
          "ruling": "The current ruling.",
          "tied": "Whether it's a tie or not."
        }
      },
      "draw(uint256,uint256)": {
        "details": "Draws jurors for the dispute. Can be called in parts.",
        "params": {
          "_disputeID": "The ID of the dispute.",
          "_iterations": "The number of iterations to run."
        }
      },
      "enableDisputeKits(uint96,uint256[],bool)": {
        "details": "Adds/removes court's support for specified dispute kits.",
        "params": {
          "_courtID": "The ID of the court.",
          "_disputeKitIDs": "The IDs of dispute kits which support should be added/removed.",
          "_enable": "Whether add or remove the dispute kits from the court."
        }
      },
      "execute(uint256,uint256,uint256)": {
        "details": "Distribute tokens and ETH for the specific round of the dispute. Can be called in parts.",
        "params": {
          "_disputeID": "The ID of the dispute.",
          "_iterations": "The number of iterations to run.",
          "_round": "The appeal round."
        }
      },
      "executeGovernorProposal(address,uint256,bytes)": {
        "details": "Allows the governor to call anything on behalf of the contract.",
        "params": {
          "_amount": "The value sent with the call.",
          "_data": "The data sent with the call.",
          "_destination": "The destination of the call."
        }
      },
      "executeRuling(uint256)": {
        "details": "Executes a specified dispute's ruling. UNTRUSTED.",
        "params": {
          "_disputeID": "The ID of the dispute."
        }
      },
      "getDisputeKit(uint256)": {
        "details": "Gets the dispute kit for a specific `_disputeKitID`.",
        "params": {
          "_disputeKitID": "The ID of the dispute kit."
        }
      },
      "getDisputeKitChildren(uint256)": {
        "details": "Gets non-primitive properties of a specified dispute kit node.",
        "params": {
          "_disputeKitID": "The ID of the dispute kit."
        },
        "returns": {
          "_0": "children Indexes of children of this DK."
        }
      },
      "getJurorCourtIDs(address)": {
        "details": "Gets the court identifiers where a specific `_juror` has staked.",
        "params": {
          "_juror": "The address of the juror."
        }
      },
      "getNumberOfVotes(uint256)": {
        "details": "Gets the number of votes permitted for the specified dispute in the latest round.",
        "params": {
          "_disputeID": "The ID of the dispute."
        }
      },
      "getTimesPerPeriod(uint96)": {
        "details": "Gets the timesPerPeriod array for a given court.",
        "params": {
          "_courtID": "The ID of the court to get the times from."
        },
        "returns": {
          "timesPerPeriod": "The timesPerPeriod array for the given court."
        }
      },
      "isDisputeKitJumping(uint256)": {
        "details": "Returns true if the dispute kit will be switched to a parent DK.",
        "params": {
          "_disputeID": "The ID of the dispute."
        },
        "returns": {
          "_0": "Whether DK will be switched or not."
        }
      },
      "passPeriod(uint256)": {
        "details": "Passes the period of a specified dispute.",
        "params": {
          "_disputeID": "The ID of the dispute."
        }
      },
      "setStake(uint96,uint256)": {
        "details": "Sets the caller's stake in a court.",
        "params": {
          "_courtID": "The ID of the court.",
          "_stake": "The new stake."
        }
      }
    },
    "title": "KlerosCore Core arbitrator contract for Kleros v2. Note that this contract trusts the token and the dispute kit contracts.",
    "version": 1
  },
  "userdoc": {
    "kind": "user",
    "methods": {},
    "version": 1
  },
  "storageLayout": {
    "storage": [
      {
        "astId": 1965,
        "contract": "src/arbitration/KlerosCore.sol:KlerosCore",
        "label": "governor",
        "offset": 0,
        "slot": "0",
        "type": "t_address"
      },
      {
        "astId": 1968,
        "contract": "src/arbitration/KlerosCore.sol:KlerosCore",
        "label": "pinakion",
        "offset": 0,
        "slot": "1",
        "type": "t_contract(IERC20)846"
      },
      {
        "astId": 1970,
        "contract": "src/arbitration/KlerosCore.sol:KlerosCore",
        "label": "jurorProsecutionModule",
        "offset": 0,
        "slot": "2",
        "type": "t_address"
      },
      {
        "astId": 1973,
        "contract": "src/arbitration/KlerosCore.sol:KlerosCore",
        "label": "sortitionModule",
        "offset": 0,
        "slot": "3",
        "type": "t_contract(ISortitionModule)1816"
      },
      {
        "astId": 1977,
        "contract": "src/arbitration/KlerosCore.sol:KlerosCore",
        "label": "courts",
        "offset": 0,
        "slot": "4",
        "type": "t_array(t_struct(Court)1857_storage)dyn_storage"
      },
      {
        "astId": 1981,
        "contract": "src/arbitration/KlerosCore.sol:KlerosCore",
        "label": "disputeKitNodes",
        "offset": 0,
        "slot": "5",
        "type": "t_array(t_struct(DisputeKitNode)1919_storage)dyn_storage"
      },
      {
        "astId": 1985,
        "contract": "src/arbitration/KlerosCore.sol:KlerosCore",
        "label": "disputes",
        "offset": 0,
        "slot": "6",
        "type": "t_array(t_struct(Dispute)1874_storage)dyn_storage"
      },
      {
        "astId": 1990,
        "contract": "src/arbitration/KlerosCore.sol:KlerosCore",
        "label": "jurors",
        "offset": 0,
        "slot": "7",
        "type": "t_mapping(t_address,t_struct(Juror)1906_storage)"
      }
    ],
    "types": {
      "t_address": {
        "encoding": "inplace",
        "label": "address",
        "numberOfBytes": "20"
      },
      "t_array(t_address)dyn_storage": {
        "base": "t_address",
        "encoding": "dynamic_array",
        "label": "address[]",
        "numberOfBytes": "32"
      },
      "t_array(t_struct(Court)1857_storage)dyn_storage": {
        "base": "t_struct(Court)1857_storage",
        "encoding": "dynamic_array",
        "label": "struct KlerosCore.Court[]",
        "numberOfBytes": "32"
      },
      "t_array(t_struct(Dispute)1874_storage)dyn_storage": {
        "base": "t_struct(Dispute)1874_storage",
        "encoding": "dynamic_array",
        "label": "struct KlerosCore.Dispute[]",
        "numberOfBytes": "32"
      },
      "t_array(t_struct(DisputeKitNode)1919_storage)dyn_storage": {
        "base": "t_struct(DisputeKitNode)1919_storage",
        "encoding": "dynamic_array",
        "label": "struct KlerosCore.DisputeKitNode[]",
        "numberOfBytes": "32"
      },
      "t_array(t_struct(Round)1894_storage)dyn_storage": {
        "base": "t_struct(Round)1894_storage",
        "encoding": "dynamic_array",
        "label": "struct KlerosCore.Round[]",
        "numberOfBytes": "32"
      },
      "t_array(t_uint256)4_storage": {
        "base": "t_uint256",
        "encoding": "inplace",
        "label": "uint256[4]",
        "numberOfBytes": "128"
      },
      "t_array(t_uint256)dyn_storage": {
        "base": "t_uint256",
        "encoding": "dynamic_array",
        "label": "uint256[]",
        "numberOfBytes": "32"
      },
      "t_array(t_uint96)dyn_storage": {
        "base": "t_uint96",
        "encoding": "dynamic_array",
        "label": "uint96[]",
        "numberOfBytes": "32"
      },
      "t_bool": {
        "encoding": "inplace",
        "label": "bool",
        "numberOfBytes": "1"
      },
      "t_contract(IArbitrable)1558": {
        "encoding": "inplace",
        "label": "contract IArbitrable",
        "numberOfBytes": "20"
      },
      "t_contract(IDisputeKit)1735": {
        "encoding": "inplace",
        "label": "contract IDisputeKit",
        "numberOfBytes": "20"
      },
      "t_contract(IERC20)846": {
        "encoding": "inplace",
        "label": "contract IERC20",
        "numberOfBytes": "20"
      },
      "t_contract(ISortitionModule)1816": {
        "encoding": "inplace",
        "label": "contract ISortitionModule",
        "numberOfBytes": "20"
      },
      "t_enum(Period)1831": {
        "encoding": "inplace",
        "label": "enum KlerosCore.Period",
        "numberOfBytes": "1"
      },
      "t_mapping(t_address,t_struct(Juror)1906_storage)": {
        "encoding": "mapping",
        "key": "t_address",
        "label": "mapping(address => struct KlerosCore.Juror)",
        "numberOfBytes": "32",
        "value": "t_struct(Juror)1906_storage"
      },
      "t_mapping(t_uint256,t_bool)": {
        "encoding": "mapping",
        "key": "t_uint256",
        "label": "mapping(uint256 => bool)",
        "numberOfBytes": "32",
        "value": "t_bool"
      },
      "t_mapping(t_uint96,t_uint256)": {
        "encoding": "mapping",
        "key": "t_uint96",
        "label": "mapping(uint96 => uint256)",
        "numberOfBytes": "32",
        "value": "t_uint256"
      },
      "t_struct(Court)1857_storage": {
        "encoding": "inplace",
        "label": "struct KlerosCore.Court",
        "members": [
          {
            "astId": 1833,
            "contract": "src/arbitration/KlerosCore.sol:KlerosCore",
            "label": "parent",
            "offset": 0,
            "slot": "0",
            "type": "t_uint96"
          },
          {
            "astId": 1835,
            "contract": "src/arbitration/KlerosCore.sol:KlerosCore",
            "label": "hiddenVotes",
            "offset": 12,
            "slot": "0",
            "type": "t_bool"
          },
          {
            "astId": 1838,
            "contract": "src/arbitration/KlerosCore.sol:KlerosCore",
            "label": "children",
            "offset": 0,
            "slot": "1",
            "type": "t_array(t_uint256)dyn_storage"
          },
          {
            "astId": 1840,
            "contract": "src/arbitration/KlerosCore.sol:KlerosCore",
            "label": "minStake",
            "offset": 0,
            "slot": "2",
            "type": "t_uint256"
          },
          {
            "astId": 1842,
            "contract": "src/arbitration/KlerosCore.sol:KlerosCore",
            "label": "alpha",
            "offset": 0,
            "slot": "3",
            "type": "t_uint256"
          },
          {
            "astId": 1844,
            "contract": "src/arbitration/KlerosCore.sol:KlerosCore",
            "label": "feeForJuror",
            "offset": 0,
            "slot": "4",
            "type": "t_uint256"
          },
          {
            "astId": 1846,
            "contract": "src/arbitration/KlerosCore.sol:KlerosCore",
            "label": "jurorsForCourtJump",
            "offset": 0,
            "slot": "5",
            "type": "t_uint256"
          },
          {
            "astId": 1850,
            "contract": "src/arbitration/KlerosCore.sol:KlerosCore",
            "label": "timesPerPeriod",
            "offset": 0,
            "slot": "6",
            "type": "t_array(t_uint256)4_storage"
          },
          {
            "astId": 1854,
            "contract": "src/arbitration/KlerosCore.sol:KlerosCore",
            "label": "supportedDisputeKits",
            "offset": 0,
            "slot": "10",
            "type": "t_mapping(t_uint256,t_bool)"
          },
          {
            "astId": 1856,
            "contract": "src/arbitration/KlerosCore.sol:KlerosCore",
            "label": "disabled",
            "offset": 0,
            "slot": "11",
            "type": "t_bool"
          }
        ],
        "numberOfBytes": "384"
      },
      "t_struct(Dispute)1874_storage": {
        "encoding": "inplace",
        "label": "struct KlerosCore.Dispute",
        "members": [
          {
            "astId": 1859,
            "contract": "src/arbitration/KlerosCore.sol:KlerosCore",
            "label": "courtID",
            "offset": 0,
            "slot": "0",
            "type": "t_uint96"
          },
          {
            "astId": 1862,
            "contract": "src/arbitration/KlerosCore.sol:KlerosCore",
            "label": "arbitrated",
            "offset": 12,
            "slot": "0",
            "type": "t_contract(IArbitrable)1558"
          },
          {
            "astId": 1865,
            "contract": "src/arbitration/KlerosCore.sol:KlerosCore",
            "label": "period",
            "offset": 0,
            "slot": "1",
            "type": "t_enum(Period)1831"
          },
          {
            "astId": 1867,
            "contract": "src/arbitration/KlerosCore.sol:KlerosCore",
            "label": "ruled",
            "offset": 1,
            "slot": "1",
            "type": "t_bool"
          },
          {
            "astId": 1869,
            "contract": "src/arbitration/KlerosCore.sol:KlerosCore",
            "label": "lastPeriodChange",
            "offset": 0,
            "slot": "2",
            "type": "t_uint256"
          },
          {
            "astId": 1873,
            "contract": "src/arbitration/KlerosCore.sol:KlerosCore",
            "label": "rounds",
            "offset": 0,
            "slot": "3",
            "type": "t_array(t_struct(Round)1894_storage)dyn_storage"
          }
        ],
        "numberOfBytes": "128"
      },
      "t_struct(DisputeKitNode)1919_storage": {
        "encoding": "inplace",
        "label": "struct KlerosCore.DisputeKitNode",
        "members": [
          {
            "astId": 1908,
            "contract": "src/arbitration/KlerosCore.sol:KlerosCore",
            "label": "parent",
            "offset": 0,
            "slot": "0",
            "type": "t_uint256"
          },
          {
            "astId": 1911,
            "contract": "src/arbitration/KlerosCore.sol:KlerosCore",
            "label": "children",
            "offset": 0,
            "slot": "1",
            "type": "t_array(t_uint256)dyn_storage"
          },
          {
            "astId": 1914,
            "contract": "src/arbitration/KlerosCore.sol:KlerosCore",
            "label": "disputeKit",
            "offset": 0,
            "slot": "2",
            "type": "t_contract(IDisputeKit)1735"
          },
          {
            "astId": 1916,
            "contract": "src/arbitration/KlerosCore.sol:KlerosCore",
            "label": "depthLevel",
            "offset": 0,
            "slot": "3",
            "type": "t_uint256"
          },
          {
            "astId": 1918,
            "contract": "src/arbitration/KlerosCore.sol:KlerosCore",
            "label": "disabled",
            "offset": 0,
            "slot": "4",
            "type": "t_bool"
          }
        ],
        "numberOfBytes": "160"
      },
      "t_struct(Juror)1906_storage": {
        "encoding": "inplace",
        "label": "struct KlerosCore.Juror",
        "members": [
          {
            "astId": 1897,
            "contract": "src/arbitration/KlerosCore.sol:KlerosCore",
            "label": "courtIDs",
            "offset": 0,
            "slot": "0",
            "type": "t_array(t_uint96)dyn_storage"
          },
          {
            "astId": 1901,
            "contract": "src/arbitration/KlerosCore.sol:KlerosCore",
            "label": "stakedTokens",
            "offset": 0,
            "slot": "1",
            "type": "t_mapping(t_uint96,t_uint256)"
          },
          {
            "astId": 1905,
            "contract": "src/arbitration/KlerosCore.sol:KlerosCore",
            "label": "lockedTokens",
            "offset": 0,
            "slot": "2",
            "type": "t_mapping(t_uint96,t_uint256)"
          }
        ],
        "numberOfBytes": "96"
      },
      "t_struct(Round)1894_storage": {
        "encoding": "inplace",
        "label": "struct KlerosCore.Round",
        "members": [
          {
            "astId": 1876,
            "contract": "src/arbitration/KlerosCore.sol:KlerosCore",
            "label": "disputeKitID",
            "offset": 0,
            "slot": "0",
            "type": "t_uint256"
          },
          {
            "astId": 1878,
            "contract": "src/arbitration/KlerosCore.sol:KlerosCore",
            "label": "tokensAtStakePerJuror",
            "offset": 0,
            "slot": "1",
            "type": "t_uint256"
          },
          {
            "astId": 1880,
            "contract": "src/arbitration/KlerosCore.sol:KlerosCore",
            "label": "totalFeesForJurors",
            "offset": 0,
            "slot": "2",
            "type": "t_uint256"
          },
          {
            "astId": 1882,
            "contract": "src/arbitration/KlerosCore.sol:KlerosCore",
            "label": "nbVotes",
            "offset": 0,
            "slot": "3",
            "type": "t_uint256"
          },
          {
            "astId": 1884,
            "contract": "src/arbitration/KlerosCore.sol:KlerosCore",
            "label": "repartitions",
            "offset": 0,
            "slot": "4",
            "type": "t_uint256"
          },
          {
            "astId": 1886,
            "contract": "src/arbitration/KlerosCore.sol:KlerosCore",
            "label": "penalties",
            "offset": 0,
            "slot": "5",
            "type": "t_uint256"
          },
          {
            "astId": 1889,
            "contract": "src/arbitration/KlerosCore.sol:KlerosCore",
            "label": "drawnJurors",
            "offset": 0,
            "slot": "6",
            "type": "t_array(t_address)dyn_storage"
          },
          {
            "astId": 1891,
            "contract": "src/arbitration/KlerosCore.sol:KlerosCore",
            "label": "sumRewardPaid",
            "offset": 0,
            "slot": "7",
            "type": "t_uint256"
          },
          {
            "astId": 1893,
            "contract": "src/arbitration/KlerosCore.sol:KlerosCore",
            "label": "sumTokenRewardPaid",
            "offset": 0,
            "slot": "8",
            "type": "t_uint256"
          }
        ],
        "numberOfBytes": "288"
      },
      "t_uint256": {
        "encoding": "inplace",
        "label": "uint256",
        "numberOfBytes": "32"
      },
      "t_uint96": {
        "encoding": "inplace",
        "label": "uint96",
        "numberOfBytes": "12"
      }
    }
  }
}