{
  "address": "0x3eED6aaCa43f4Bb98C591e4A0d2C4a124efF9C24",
  "abi": [
    {
      "inputs": [
        {
          "internalType": "address",
          "name": "_governor",
          "type": "address"
        },
        {
          "internalType": "contract IERC20",
          "name": "_pinakion",
          "type": "address"
        },
        {
          "internalType": "address",
          "name": "_jurorProsecutionModule",
          "type": "address"
        },
        {
          "internalType": "contract IDisputeKit",
          "name": "_disputeKit",
          "type": "address"
        },
        {
          "internalType": "uint256[2]",
          "name": "_phaseTimeouts",
          "type": "uint256[2]"
        },
        {
          "internalType": "bool",
          "name": "_hiddenVotes",
          "type": "bool"
        },
        {
          "internalType": "uint256[4]",
          "name": "_courtParameters",
          "type": "uint256[4]"
        },
        {
          "internalType": "uint256[4]",
          "name": "_timesPerPeriod",
          "type": "uint256[4]"
        },
        {
          "internalType": "uint256",
          "name": "_sortitionSumTreeK",
          "type": "uint256"
        }
      ],
      "stateMutability": "nonpayable",
      "type": "constructor"
    },
    {
      "anonymous": false,
      "inputs": [
        {
          "indexed": true,
          "internalType": "uint256",
          "name": "_disputeID",
          "type": "uint256"
        },
        {
          "indexed": true,
          "internalType": "contract IArbitrable",
          "name": "_arbitrable",
          "type": "address"
        }
      ],
      "name": "AppealDecision",
      "type": "event"
    },
    {
      "anonymous": false,
      "inputs": [
        {
          "indexed": true,
          "internalType": "uint256",
          "name": "_disputeID",
          "type": "uint256"
        },
        {
          "indexed": true,
          "internalType": "contract IArbitrable",
          "name": "_arbitrable",
          "type": "address"
        }
      ],
      "name": "AppealPossible",
      "type": "event"
    },
    {
      "anonymous": false,
      "inputs": [
        {
          "indexed": true,
          "internalType": "uint256",
          "name": "_courtID",
          "type": "uint256"
        },
        {
          "indexed": true,
          "internalType": "uint96",
          "name": "_parent",
          "type": "uint96"
        },
        {
          "indexed": false,
          "internalType": "bool",
          "name": "_hiddenVotes",
          "type": "bool"
        },
        {
          "indexed": false,
          "internalType": "uint256",
          "name": "_minStake",
          "type": "uint256"
        },
        {
          "indexed": false,
          "internalType": "uint256",
          "name": "_alpha",
          "type": "uint256"
        },
        {
          "indexed": false,
          "internalType": "uint256",
          "name": "_feeForJuror",
          "type": "uint256"
        },
        {
          "indexed": false,
          "internalType": "uint256",
          "name": "_jurorsForCourtJump",
          "type": "uint256"
        },
        {
          "indexed": false,
          "internalType": "uint256[4]",
          "name": "_timesPerPeriod",
          "type": "uint256[4]"
        },
        {
          "indexed": false,
          "internalType": "uint256",
          "name": "_sortitionSumTreeK",
          "type": "uint256"
        },
        {
          "indexed": false,
          "internalType": "uint256[]",
          "name": "_supportedDisputeKits",
          "type": "uint256[]"
        }
      ],
      "name": "CourtCreated",
      "type": "event"
    },
    {
      "anonymous": false,
      "inputs": [
        {
          "indexed": true,
          "internalType": "uint256",
          "name": "_disputeID",
          "type": "uint256"
        },
        {
          "indexed": true,
          "internalType": "uint256",
          "name": "_roundID",
          "type": "uint256"
        },
        {
          "indexed": true,
          "internalType": "uint96",
          "name": "_fromCourtID",
          "type": "uint96"
        },
        {
          "indexed": false,
          "internalType": "uint96",
          "name": "_toCourtID",
          "type": "uint96"
        }
      ],
      "name": "CourtJump",
      "type": "event"
    },
    {
      "anonymous": false,
      "inputs": [
        {
          "indexed": true,
          "internalType": "uint96",
          "name": "_courtID",
          "type": "uint96"
        },
        {
          "indexed": false,
          "internalType": "string",
          "name": "_param",
          "type": "string"
        }
      ],
      "name": "CourtModified",
      "type": "event"
    },
    {
      "anonymous": false,
      "inputs": [
        {
          "indexed": true,
          "internalType": "uint256",
          "name": "_disputeID",
          "type": "uint256"
        },
        {
          "indexed": true,
          "internalType": "contract IArbitrable",
          "name": "_arbitrable",
          "type": "address"
        }
      ],
      "name": "DisputeCreation",
      "type": "event"
    },
    {
      "anonymous": false,
      "inputs": [
        {
          "indexed": true,
          "internalType": "uint256",
          "name": "_disputeKitID",
          "type": "uint256"
        },
        {
          "indexed": true,
          "internalType": "contract IDisputeKit",
          "name": "_disputeKitAddress",
          "type": "address"
        },
        {
          "indexed": true,
          "internalType": "uint256",
          "name": "_parent",
          "type": "uint256"
        }
      ],
      "name": "DisputeKitCreated",
      "type": "event"
    },
    {
      "anonymous": false,
      "inputs": [
        {
          "indexed": true,
          "internalType": "uint96",
          "name": "_courtID",
          "type": "uint96"
        },
        {
          "indexed": true,
          "internalType": "uint256",
          "name": "_disputeKitID",
          "type": "uint256"
        },
        {
          "indexed": true,
          "internalType": "bool",
          "name": "_enable",
          "type": "bool"
        }
      ],
      "name": "DisputeKitEnabled",
      "type": "event"
    },
    {
      "anonymous": false,
      "inputs": [
        {
          "indexed": true,
          "internalType": "uint256",
          "name": "_disputeID",
          "type": "uint256"
        },
        {
          "indexed": true,
          "internalType": "uint256",
          "name": "_roundID",
          "type": "uint256"
        },
        {
          "indexed": true,
          "internalType": "uint256",
          "name": "_fromDisputeKitID",
          "type": "uint256"
        },
        {
          "indexed": false,
          "internalType": "uint256",
          "name": "_toDisputeKitID",
          "type": "uint256"
        }
      ],
      "name": "DisputeKitJump",
      "type": "event"
    },
    {
      "anonymous": false,
      "inputs": [
        {
          "indexed": true,
          "internalType": "address",
          "name": "_address",
          "type": "address"
        },
        {
          "indexed": true,
          "internalType": "uint256",
          "name": "_disputeID",
          "type": "uint256"
        },
        {
          "indexed": false,
          "internalType": "uint256",
          "name": "_roundID",
          "type": "uint256"
        },
        {
          "indexed": false,
          "internalType": "uint256",
          "name": "_voteID",
          "type": "uint256"
        }
      ],
      "name": "Draw",
      "type": "event"
    },
    {
      "anonymous": false,
      "inputs": [
        {
          "indexed": true,
          "internalType": "uint256",
          "name": "_disputeID",
          "type": "uint256"
        },
        {
          "indexed": false,
          "internalType": "enum KlerosCore.Period",
          "name": "_period",
          "type": "uint8"
        }
      ],
      "name": "NewPeriod",
      "type": "event"
    },
    {
      "anonymous": false,
      "inputs": [
        {
          "indexed": false,
          "internalType": "enum KlerosCore.Phase",
          "name": "_phase",
          "type": "uint8"
        }
      ],
      "name": "NewPhase",
      "type": "event"
    },
    {
      "anonymous": false,
      "inputs": [
        {
          "indexed": true,
          "internalType": "contract IArbitrable",
          "name": "_arbitrable",
          "type": "address"
        },
        {
          "indexed": true,
          "internalType": "uint256",
          "name": "_disputeID",
          "type": "uint256"
        },
        {
          "indexed": false,
          "internalType": "uint256",
          "name": "_ruling",
          "type": "uint256"
        }
      ],
      "name": "Ruling",
      "type": "event"
    },
    {
      "anonymous": false,
      "inputs": [
        {
          "indexed": true,
          "internalType": "address",
          "name": "_address",
          "type": "address"
        },
        {
          "indexed": false,
          "internalType": "uint256",
          "name": "_courtID",
          "type": "uint256"
        },
        {
          "indexed": false,
          "internalType": "uint256",
          "name": "_amount",
          "type": "uint256"
        },
        {
          "indexed": false,
          "internalType": "uint256",
          "name": "_newTotalStake",
          "type": "uint256"
        }
      ],
      "name": "StakeSet",
      "type": "event"
    },
    {
      "anonymous": false,
      "inputs": [
        {
          "indexed": true,
          "internalType": "address",
          "name": "_account",
          "type": "address"
        },
        {
          "indexed": true,
          "internalType": "uint256",
          "name": "_disputeID",
          "type": "uint256"
        },
        {
          "indexed": false,
          "internalType": "int256",
          "name": "_tokenAmount",
          "type": "int256"
        },
        {
          "indexed": false,
          "internalType": "int256",
          "name": "_ethAmount",
          "type": "int256"
        }
      ],
      "name": "TokenAndETHShift",
      "type": "event"
    },
    {
      "inputs": [],
      "name": "ALPHA_DIVISOR",
      "outputs": [
        {
          "internalType": "uint256",
          "name": "",
          "type": "uint256"
        }
      ],
      "stateMutability": "view",
      "type": "function"
    },
    {
      "inputs": [],
      "name": "DISPUTE_KIT_CLASSIC",
      "outputs": [
        {
          "internalType": "uint256",
          "name": "",
          "type": "uint256"
        }
      ],
      "stateMutability": "view",
      "type": "function"
    },
    {
      "inputs": [],
      "name": "FORKING_COURT",
      "outputs": [
        {
          "internalType": "uint96",
          "name": "",
          "type": "uint96"
        }
      ],
      "stateMutability": "view",
      "type": "function"
    },
    {
      "inputs": [],
      "name": "GENERAL_COURT",
      "outputs": [
        {
          "internalType": "uint96",
          "name": "",
          "type": "uint96"
        }
      ],
      "stateMutability": "view",
      "type": "function"
    },
    {
      "inputs": [],
      "name": "MAX_STAKE_PATHS",
      "outputs": [
        {
          "internalType": "uint256",
          "name": "",
          "type": "uint256"
        }
      ],
      "stateMutability": "view",
      "type": "function"
    },
    {
      "inputs": [],
      "name": "MIN_JURORS",
      "outputs": [
        {
          "internalType": "uint256",
          "name": "",
          "type": "uint256"
        }
      ],
      "stateMutability": "view",
      "type": "function"
    },
    {
      "inputs": [],
      "name": "NON_PAYABLE_AMOUNT",
      "outputs": [
        {
          "internalType": "uint256",
          "name": "",
          "type": "uint256"
        }
      ],
      "stateMutability": "view",
      "type": "function"
    },
    {
      "inputs": [],
      "name": "NULL_DISPUTE_KIT",
      "outputs": [
        {
          "internalType": "uint256",
          "name": "",
          "type": "uint256"
        }
      ],
      "stateMutability": "view",
      "type": "function"
    },
    {
      "inputs": [],
      "name": "SEARCH_ITERATIONS",
      "outputs": [
        {
          "internalType": "uint256",
          "name": "",
          "type": "uint256"
        }
      ],
      "stateMutability": "view",
      "type": "function"
    },
    {
      "inputs": [
        {
          "internalType": "contract IDisputeKit",
          "name": "_disputeKitAddress",
          "type": "address"
        },
        {
          "internalType": "uint256",
          "name": "_parent",
          "type": "uint256"
        }
      ],
      "name": "addNewDisputeKit",
      "outputs": [],
      "stateMutability": "nonpayable",
      "type": "function"
    },
    {
      "inputs": [
        {
          "internalType": "uint256",
          "name": "_disputeID",
          "type": "uint256"
        },
        {
          "internalType": "uint256",
          "name": "_numberOfChoices",
          "type": "uint256"
        },
        {
          "internalType": "bytes",
          "name": "_extraData",
          "type": "bytes"
        }
      ],
      "name": "appeal",
      "outputs": [],
      "stateMutability": "payable",
      "type": "function"
    },
    {
      "inputs": [
        {
          "internalType": "uint256",
          "name": "_disputeID",
          "type": "uint256"
        }
      ],
      "name": "appealCost",
      "outputs": [
        {
          "internalType": "uint256",
          "name": "cost",
          "type": "uint256"
        }
      ],
      "stateMutability": "view",
      "type": "function"
    },
    {
      "inputs": [
        {
          "internalType": "uint256",
          "name": "_disputeID",
          "type": "uint256"
        }
      ],
      "name": "appealPeriod",
      "outputs": [
        {
          "internalType": "uint256",
          "name": "start",
          "type": "uint256"
        },
        {
          "internalType": "uint256",
          "name": "end",
          "type": "uint256"
        }
      ],
      "stateMutability": "view",
      "type": "function"
    },
    {
      "inputs": [
        {
          "internalType": "bytes",
          "name": "_extraData",
          "type": "bytes"
        }
      ],
      "name": "arbitrationCost",
      "outputs": [
        {
          "internalType": "uint256",
          "name": "cost",
          "type": "uint256"
        }
      ],
      "stateMutability": "view",
      "type": "function"
    },
    {
      "inputs": [
        {
          "internalType": "uint96",
          "name": "_courtID",
          "type": "uint96"
        },
        {
          "internalType": "uint256",
          "name": "_alpha",
          "type": "uint256"
        }
      ],
      "name": "changeCourtAlpha",
      "outputs": [],
      "stateMutability": "nonpayable",
      "type": "function"
    },
    {
      "inputs": [
        {
          "internalType": "uint96",
          "name": "_courtID",
          "type": "uint96"
        },
        {
          "internalType": "bool",
          "name": "_hiddenVotes",
          "type": "bool"
        }
      ],
      "name": "changeCourtHiddenVotes",
      "outputs": [],
      "stateMutability": "nonpayable",
      "type": "function"
    },
    {
      "inputs": [
        {
          "internalType": "uint96",
          "name": "_courtID",
          "type": "uint96"
        },
        {
          "internalType": "uint256",
          "name": "_feeForJuror",
          "type": "uint256"
        }
      ],
      "name": "changeCourtJurorFee",
      "outputs": [],
      "stateMutability": "nonpayable",
      "type": "function"
    },
    {
      "inputs": [
        {
          "internalType": "uint96",
          "name": "_courtID",
          "type": "uint96"
        },
        {
          "internalType": "uint256",
          "name": "_jurorsForCourtJump",
          "type": "uint256"
        }
      ],
      "name": "changeCourtJurorsForJump",
      "outputs": [],
      "stateMutability": "nonpayable",
      "type": "function"
    },
    {
      "inputs": [
        {
          "internalType": "uint96",
          "name": "_courtID",
          "type": "uint96"
        },
        {
          "internalType": "uint256",
          "name": "_minStake",
          "type": "uint256"
        }
      ],
      "name": "changeCourtMinStake",
      "outputs": [],
      "stateMutability": "nonpayable",
      "type": "function"
    },
    {
      "inputs": [
        {
          "internalType": "uint96",
          "name": "_courtID",
          "type": "uint96"
        },
        {
          "internalType": "uint256[4]",
          "name": "_timesPerPeriod",
          "type": "uint256[4]"
        }
      ],
      "name": "changeCourtTimesPerPeriod",
      "outputs": [],
      "stateMutability": "nonpayable",
      "type": "function"
    },
    {
      "inputs": [
        {
          "internalType": "address payable",
          "name": "_governor",
          "type": "address"
        }
      ],
      "name": "changeGovernor",
      "outputs": [],
      "stateMutability": "nonpayable",
      "type": "function"
    },
    {
      "inputs": [
        {
          "internalType": "address",
          "name": "_jurorProsecutionModule",
          "type": "address"
        }
      ],
      "name": "changeJurorProsecutionModule",
      "outputs": [],
      "stateMutability": "nonpayable",
      "type": "function"
    },
    {
      "inputs": [
        {
          "internalType": "uint256",
          "name": "_maxFreezingTime",
          "type": "uint256"
        }
      ],
      "name": "changeMaxFreezingTime",
      "outputs": [],
      "stateMutability": "nonpayable",
      "type": "function"
    },
    {
      "inputs": [
        {
          "internalType": "uint256",
          "name": "_minStakingTime",
          "type": "uint256"
        }
      ],
      "name": "changeMinStakingTime",
      "outputs": [],
      "stateMutability": "nonpayable",
      "type": "function"
    },
    {
      "inputs": [
        {
          "internalType": "contract IERC20",
          "name": "_pinakion",
          "type": "address"
        }
      ],
      "name": "changePinakion",
      "outputs": [],
      "stateMutability": "nonpayable",
      "type": "function"
    },
    {
      "inputs": [
        {
          "internalType": "uint256",
          "name": "",
          "type": "uint256"
        }
      ],
      "name": "courts",
      "outputs": [
        {
          "internalType": "uint96",
          "name": "parent",
          "type": "uint96"
        },
        {
          "internalType": "bool",
          "name": "hiddenVotes",
          "type": "bool"
        },
        {
          "internalType": "uint256",
          "name": "minStake",
          "type": "uint256"
        },
        {
          "internalType": "uint256",
          "name": "alpha",
          "type": "uint256"
        },
        {
          "internalType": "uint256",
          "name": "feeForJuror",
          "type": "uint256"
        },
        {
          "internalType": "uint256",
          "name": "jurorsForCourtJump",
          "type": "uint256"
        }
      ],
      "stateMutability": "view",
      "type": "function"
    },
    {
      "inputs": [
        {
          "internalType": "uint96",
          "name": "_parent",
          "type": "uint96"
        },
        {
          "internalType": "bool",
          "name": "_hiddenVotes",
          "type": "bool"
        },
        {
          "internalType": "uint256",
          "name": "_minStake",
          "type": "uint256"
        },
        {
          "internalType": "uint256",
          "name": "_alpha",
          "type": "uint256"
        },
        {
          "internalType": "uint256",
          "name": "_feeForJuror",
          "type": "uint256"
        },
        {
          "internalType": "uint256",
          "name": "_jurorsForCourtJump",
          "type": "uint256"
        },
        {
          "internalType": "uint256[4]",
          "name": "_timesPerPeriod",
          "type": "uint256[4]"
        },
        {
          "internalType": "uint256",
          "name": "_sortitionSumTreeK",
          "type": "uint256"
        },
        {
          "internalType": "uint256[]",
          "name": "_supportedDisputeKits",
          "type": "uint256[]"
        }
      ],
      "name": "createCourt",
      "outputs": [],
      "stateMutability": "nonpayable",
      "type": "function"
    },
    {
      "inputs": [
        {
          "internalType": "uint256",
          "name": "_numberOfChoices",
          "type": "uint256"
        },
        {
          "internalType": "bytes",
          "name": "_extraData",
          "type": "bytes"
        }
      ],
      "name": "createDispute",
      "outputs": [
        {
          "internalType": "uint256",
          "name": "disputeID",
          "type": "uint256"
        }
      ],
      "stateMutability": "payable",
      "type": "function"
    },
    {
      "inputs": [
        {
          "internalType": "uint256",
          "name": "_disputeID",
          "type": "uint256"
        }
      ],
      "name": "currentRuling",
      "outputs": [
        {
          "internalType": "uint256",
          "name": "ruling",
          "type": "uint256"
        },
        {
          "internalType": "bool",
          "name": "tied",
          "type": "bool"
        },
        {
          "internalType": "bool",
          "name": "overridden",
          "type": "bool"
        }
      ],
      "stateMutability": "view",
      "type": "function"
    },
    {
      "inputs": [],
      "name": "delayedStakeReadIndex",
      "outputs": [
        {
          "internalType": "uint256",
          "name": "",
          "type": "uint256"
        }
      ],
      "stateMutability": "view",
      "type": "function"
    },
    {
      "inputs": [],
      "name": "delayedStakeWriteIndex",
      "outputs": [
        {
          "internalType": "uint256",
          "name": "",
          "type": "uint256"
        }
      ],
      "stateMutability": "view",
      "type": "function"
    },
    {
      "inputs": [
        {
          "internalType": "uint256",
          "name": "",
          "type": "uint256"
        }
      ],
      "name": "delayedStakes",
      "outputs": [
        {
          "internalType": "address",
          "name": "account",
          "type": "address"
        },
        {
          "internalType": "uint96",
          "name": "courtID",
          "type": "uint96"
        },
        {
          "internalType": "uint256",
          "name": "stake",
          "type": "uint256"
        },
        {
          "internalType": "uint256",
          "name": "penalty",
          "type": "uint256"
        }
      ],
      "stateMutability": "view",
      "type": "function"
    },
    {
      "inputs": [
        {
          "internalType": "uint256",
          "name": "",
          "type": "uint256"
        }
      ],
      "name": "disputeKitNodes",
      "outputs": [
        {
          "internalType": "uint256",
          "name": "parent",
          "type": "uint256"
        },
        {
          "internalType": "contract IDisputeKit",
          "name": "disputeKit",
          "type": "address"
        },
        {
          "internalType": "bool",
          "name": "needsFreezing",
          "type": "bool"
        },
        {
          "internalType": "uint256",
          "name": "depthLevel",
          "type": "uint256"
        }
      ],
      "stateMutability": "view",
      "type": "function"
    },
    {
      "inputs": [
        {
          "internalType": "uint256",
          "name": "",
          "type": "uint256"
        }
      ],
      "name": "disputes",
      "outputs": [
        {
          "internalType": "uint96",
          "name": "courtID",
          "type": "uint96"
        },
        {
          "internalType": "contract IArbitrable",
          "name": "arbitrated",
          "type": "address"
        },
        {
          "internalType": "enum KlerosCore.Period",
          "name": "period",
          "type": "uint8"
        },
        {
          "internalType": "bool",
          "name": "ruled",
          "type": "bool"
        },
        {
          "internalType": "uint256",
          "name": "lastPeriodChange",
          "type": "uint256"
        }
      ],
      "stateMutability": "view",
      "type": "function"
    },
    {
      "inputs": [
        {
          "internalType": "uint256",
          "name": "",
          "type": "uint256"
        }
      ],
      "name": "disputesKitIDsThatNeedFreezing",
      "outputs": [
        {
          "internalType": "uint256",
          "name": "",
          "type": "uint256"
        }
      ],
      "stateMutability": "view",
      "type": "function"
    },
    {
      "inputs": [
        {
          "internalType": "uint256",
          "name": "_disputeID",
          "type": "uint256"
        },
        {
          "internalType": "uint256",
          "name": "_iterations",
          "type": "uint256"
        }
      ],
      "name": "draw",
      "outputs": [],
      "stateMutability": "nonpayable",
      "type": "function"
    },
    {
      "inputs": [
        {
          "internalType": "uint96",
          "name": "_courtID",
          "type": "uint96"
        },
        {
          "internalType": "uint256[]",
          "name": "_disputeKitIDs",
          "type": "uint256[]"
        },
        {
          "internalType": "bool",
          "name": "_enable",
          "type": "bool"
        }
      ],
      "name": "enableDisputeKits",
      "outputs": [],
      "stateMutability": "nonpayable",
      "type": "function"
    },
    {
      "inputs": [
        {
          "internalType": "uint256",
          "name": "_disputeID",
          "type": "uint256"
        },
        {
          "internalType": "uint256",
          "name": "_round",
          "type": "uint256"
        },
        {
          "internalType": "uint256",
          "name": "_iterations",
          "type": "uint256"
        }
      ],
      "name": "execute",
      "outputs": [],
      "stateMutability": "nonpayable",
      "type": "function"
    },
    {
      "inputs": [
        {
          "internalType": "uint256",
          "name": "_iterations",
          "type": "uint256"
        }
      ],
      "name": "executeDelayedStakes",
      "outputs": [],
      "stateMutability": "nonpayable",
      "type": "function"
    },
    {
      "inputs": [
        {
          "internalType": "address",
          "name": "_destination",
          "type": "address"
        },
        {
          "internalType": "uint256",
          "name": "_amount",
          "type": "uint256"
        },
        {
          "internalType": "bytes",
          "name": "_data",
          "type": "bytes"
        }
      ],
      "name": "executeGovernorProposal",
      "outputs": [],
      "stateMutability": "nonpayable",
      "type": "function"
    },
    {
      "inputs": [
        {
          "internalType": "uint256",
          "name": "_disputeID",
          "type": "uint256"
        }
      ],
      "name": "executeRuling",
      "outputs": [],
      "stateMutability": "nonpayable",
      "type": "function"
    },
    {
      "inputs": [],
      "name": "freezeBlock",
      "outputs": [
        {
          "internalType": "uint256",
          "name": "",
          "type": "uint256"
        }
      ],
      "stateMutability": "view",
      "type": "function"
    },
    {
      "inputs": [],
      "name": "freezingPhaseTimeout",
      "outputs": [
        {
          "internalType": "bool",
          "name": "",
          "type": "bool"
        }
      ],
      "stateMutability": "view",
      "type": "function"
    },
    {
      "inputs": [
        {
          "internalType": "uint256",
          "name": "_disputeKitID",
          "type": "uint256"
        }
      ],
      "name": "getDisputeKitChildren",
      "outputs": [
        {
          "internalType": "uint256[]",
          "name": "",
          "type": "uint256[]"
        }
      ],
      "stateMutability": "view",
      "type": "function"
    },
    {
      "inputs": [],
      "name": "getDisputesKitIDsThatNeedFreezing",
      "outputs": [
        {
          "internalType": "uint256[]",
          "name": "",
          "type": "uint256[]"
        }
      ],
      "stateMutability": "view",
      "type": "function"
    },
    {
      "inputs": [
        {
          "internalType": "address",
          "name": "_juror",
          "type": "address"
        },
        {
          "internalType": "uint96",
          "name": "_courtID",
          "type": "uint96"
        }
      ],
      "name": "getJurorBalance",
      "outputs": [
        {
          "internalType": "uint256",
          "name": "staked",
          "type": "uint256"
        },
        {
          "internalType": "uint256",
          "name": "locked",
          "type": "uint256"
        }
      ],
      "stateMutability": "view",
      "type": "function"
    },
    {
      "inputs": [
        {
          "internalType": "address",
          "name": "_juror",
          "type": "address"
        }
      ],
      "name": "getJurorCourtIDs",
      "outputs": [
        {
          "internalType": "uint96[]",
          "name": "",
          "type": "uint96[]"
        }
      ],
      "stateMutability": "view",
      "type": "function"
    },
    {
      "inputs": [
        {
          "internalType": "uint256",
          "name": "_disputeID",
          "type": "uint256"
        }
      ],
      "name": "getNumberOfRounds",
      "outputs": [
        {
          "internalType": "uint256",
          "name": "",
          "type": "uint256"
        }
      ],
      "stateMutability": "view",
      "type": "function"
    },
    {
      "inputs": [
        {
          "internalType": "uint256",
          "name": "_disputeID",
          "type": "uint256"
        }
      ],
      "name": "getNumberOfVotes",
      "outputs": [
        {
          "internalType": "uint256",
          "name": "",
          "type": "uint256"
        }
      ],
      "stateMutability": "view",
      "type": "function"
    },
    {
      "inputs": [
        {
          "internalType": "uint256",
          "name": "_disputeID",
          "type": "uint256"
        },
        {
          "internalType": "uint256",
          "name": "_round",
          "type": "uint256"
        }
      ],
      "name": "getRoundInfo",
      "outputs": [
        {
          "internalType": "uint256",
          "name": "tokensAtStakePerJuror",
          "type": "uint256"
        },
        {
          "internalType": "uint256",
          "name": "totalFeesForJurors",
          "type": "uint256"
        },
        {
          "internalType": "uint256",
          "name": "repartitions",
          "type": "uint256"
        },
        {
          "internalType": "uint256",
          "name": "penalties",
          "type": "uint256"
        },
        {
          "internalType": "address[]",
          "name": "drawnJurors",
          "type": "address[]"
        },
        {
          "internalType": "uint256",
          "name": "disputeKitID",
          "type": "uint256"
        }
      ],
      "stateMutability": "view",
      "type": "function"
    },
    {
      "inputs": [
        {
          "internalType": "bytes32",
          "name": "_key",
          "type": "bytes32"
        },
        {
          "internalType": "uint256",
          "name": "_nodeIndex",
          "type": "uint256"
        }
      ],
      "name": "getSortitionSumTree",
      "outputs": [
        {
          "internalType": "uint256",
          "name": "K",
          "type": "uint256"
        },
        {
          "internalType": "uint256",
          "name": "length",
          "type": "uint256"
        },
        {
          "internalType": "bytes32",
          "name": "ID",
          "type": "bytes32"
        }
      ],
      "stateMutability": "view",
      "type": "function"
    },
    {
      "inputs": [
        {
          "internalType": "bytes32",
          "name": "_key",
          "type": "bytes32"
        },
        {
          "internalType": "uint256",
          "name": "_index",
          "type": "uint256"
        }
      ],
      "name": "getSortitionSumTreeNode",
      "outputs": [
        {
          "internalType": "uint256",
          "name": "",
          "type": "uint256"
        }
      ],
      "stateMutability": "view",
      "type": "function"
    },
    {
      "inputs": [
        {
          "internalType": "uint96",
          "name": "_courtID",
          "type": "uint96"
        }
      ],
      "name": "getTimesPerPeriod",
      "outputs": [
        {
          "internalType": "uint256[4]",
          "name": "timesPerPeriod",
          "type": "uint256[4]"
        }
      ],
      "stateMutability": "view",
      "type": "function"
    },
    {
      "inputs": [],
      "name": "governor",
      "outputs": [
        {
          "internalType": "address",
          "name": "",
          "type": "address"
        }
      ],
      "stateMutability": "view",
      "type": "function"
    },
    {
      "inputs": [
        {
          "internalType": "uint256",
          "name": "_disputeID",
          "type": "uint256"
        }
      ],
      "name": "isDisputeKitJumping",
      "outputs": [
        {
          "internalType": "bool",
          "name": "",
          "type": "bool"
        }
      ],
      "stateMutability": "view",
      "type": "function"
    },
    {
      "inputs": [
        {
          "internalType": "uint96",
          "name": "_courtID",
          "type": "uint96"
        },
        {
          "internalType": "uint256",
          "name": "_disputeKitID",
          "type": "uint256"
        }
      ],
      "name": "isSupported",
      "outputs": [
        {
          "internalType": "bool",
          "name": "",
          "type": "bool"
        }
      ],
      "stateMutability": "view",
      "type": "function"
    },
    {
      "inputs": [],
      "name": "jurorProsecutionModule",
      "outputs": [
        {
          "internalType": "address",
          "name": "",
          "type": "address"
        }
      ],
      "stateMutability": "view",
      "type": "function"
    },
    {
      "inputs": [],
      "name": "lastPhaseChange",
      "outputs": [
        {
          "internalType": "uint256",
          "name": "",
          "type": "uint256"
        }
      ],
      "stateMutability": "view",
      "type": "function"
    },
    {
      "inputs": [],
      "name": "maxFreezingTime",
      "outputs": [
        {
          "internalType": "uint256",
          "name": "",
          "type": "uint256"
        }
      ],
      "stateMutability": "view",
      "type": "function"
    },
    {
      "inputs": [],
      "name": "minStakingTime",
      "outputs": [
        {
          "internalType": "uint256",
          "name": "",
          "type": "uint256"
        }
      ],
      "stateMutability": "view",
      "type": "function"
    },
    {
      "inputs": [
        {
          "internalType": "uint256",
          "name": "_disputeID",
          "type": "uint256"
        }
      ],
      "name": "passPeriod",
      "outputs": [],
      "stateMutability": "nonpayable",
      "type": "function"
    },
    {
      "inputs": [],
      "name": "passPhase",
      "outputs": [],
      "stateMutability": "nonpayable",
      "type": "function"
    },
    {
      "inputs": [],
      "name": "phase",
      "outputs": [
        {
          "internalType": "enum KlerosCore.Phase",
          "name": "",
          "type": "uint8"
        }
      ],
      "stateMutability": "view",
      "type": "function"
    },
    {
      "inputs": [],
      "name": "pinakion",
      "outputs": [
        {
          "internalType": "contract IERC20",
          "name": "",
          "type": "address"
        }
      ],
      "stateMutability": "view",
      "type": "function"
    },
    {
      "inputs": [
        {
          "internalType": "uint96",
          "name": "_courtID",
          "type": "uint96"
        },
        {
          "internalType": "uint256",
          "name": "_stake",
          "type": "uint256"
        }
      ],
      "name": "setStake",
      "outputs": [],
      "stateMutability": "nonpayable",
      "type": "function"
    }
  ],
  "transactionHash": "0x1ea4535b6ce980a5fd9e9c7232b44a5864c7cb56c95bd29e8e90e8fa23cbb577",
  "args": [
    "0xF50E77f2A2B6138D16c6c7511562E5C33c4B15A3",
    "0x4DEeeFD054434bf6721eF39Aa18EfB3fd0D12610",
    "0x0000000000000000000000000000000000000000",
    "0x86734488ABF0E1AD40bc4DE4F820e808f39Bea09",
    [
      1800,
      1800
    ],
    false,
    [
      "200000000000000000000",
      10000,
      "100000000000000000",
      3
    ],
    [
      0,
      0,
      0,
      0
    ],
    3
  ],
  "numDeployments": 4,
  "solcInputHash": "385558cd8f2e0323787dead6b7cecab9",
  "bytecode": "0x60806040526001600f553480156200001657600080fd5b50604051620066a0380380620066a08339810160408190526200003991620005d3565b600080546001600160a01b038b81166001600160a01b0319928316178355600180548c831690841617815560028054928c1692909316919091179091558651600355602080880151600455426005556008805490920182558183526040805160a08101825284815281518581528084019092529293918301915081526001600160a01b0389166020808301919091526000604083018190526060909201829052835460018181018655948352918190208351600490930201918255828101518051939492936200011193850192919091019062000458565b5060408281015160028301805460608601511515600160a01b026001600160a81b03199091166001600160a01b0393841617179055608090930151600390920191909155516000918816906001907f7921860794ac14fda09ee75f7160a5a3d266e3352f7954d0401606a92a26c498908490a4600780546001018155600090815260405163de0fe69d60e01b8152600c600482015260248101919091526044810182905273678E676fd0048da8c35d5B03fabB53a7beBf73A69063de0fe69d9060640160006040518083038186803b158015620001ed57600080fd5b505af415801562000202573d6000803e3d6000fd5b5050600780546001810182556000918252600b027fa66cc928b5edb82af9bd49922954155ab7b0942694bea4ce44661d9a8736c6880180546001600160601b0319168155604080518381526020810190915290935091505080516200027291600184019160209091019062000458565b50805460ff60601b19166c01000000000000000000000000861515021781558351600282015560208401516003820155604084015160048083019190915560608501516005830155620002cc9060068301908590620004a8565b5060405163de0fe69d60e01b8152600c6004820152600160248201526044810183905273678E676fd0048da8c35d5B03fabB53a7beBf73A69063de0fe69d9060640160006040518083038186803b1580156200032757600080fd5b505af41580156200033c573d6000803e3d6000fd5b5050825486516020808901516040808b015160608c0151825160008152948501928390526001600160601b039096169750600196507fc580509bcead0c8c5066804fbadb737e0b19c8860c518df0883469001effab1095620003a7958e959094938d918d91620006eb565b60405180910390a3620003bd60018080620003cd565b5050505050505050505062000790565b806007846001600160601b031681548110620003ed57620003ed620006d5565b60009182526020808320868452600b92909202909101600a0190526040808220805460ff19169315159390931790925590518215159184916001600160601b038716917fb47629acdf64971062d40984f77d3dee212d735b11e3e8c7a4222d9f0572cc7991a4505050565b82805482825590600052602060002090810192821562000496579160200282015b828111156200049657825182559160200191906001019062000479565b50620004a4929150620004d8565b5090565b82600481019282156200049657916020028201828111156200049657825182559160200191906001019062000479565b5b80821115620004a45760008155600101620004d9565b6001600160a01b03811681146200050557600080fd5b50565b634e487b7160e01b600052604160045260246000fd5b604080519081016001600160401b038111828210171562000543576200054362000508565b60405290565b805180151581146200055a57600080fd5b919050565b600082601f8301126200057157600080fd5b604051608081016001600160401b038111828210171562000596576200059662000508565b604052806080840185811115620005ac57600080fd5b845b81811015620005c8578051835260209283019201620005ae565b509195945050505050565b60008060008060008060008060006102008a8c031215620005f357600080fd5b89516200060081620004ef565b809950506020808b01516200061581620004ef565b60408c01519099506200062881620004ef565b60608c01519098506200063b81620004ef565b9650609f8b018c136200064d57600080fd5b620006576200051e565b8060c08d018e8111156200066a57600080fd5b60808e015b818110156200068857805184529284019284016200066f565b50819850620006978162000549565b975050505050620006ac8b60e08c016200055f565b9250620006be8b6101608c016200055f565b91506101e08a015190509295985092959850929598565b634e487b7160e01b600052603260045260246000fd5b60006101608083018b1515845260208b818601528a604086015289606086015288608086015260a085018860005b6004811015620007385781518352918301919083019060010162000719565b50505061012085018790526101408501929092528451908190526101808401918086019160005b818110156200077d578351855293820193928201926001016200075f565b50929d9c50505050505050505050505050565b615f0080620007a06000396000f3fe60806040526004361061034d5760003560e01c8063840bc19c116101bd578063c057eca7116100f8578063d8b03fd81161009b578063d8b03fd814610b5b578063e4c0aaf414610b70578063eaff425a14610b90578063f12ada8b14610ba5578063f6b4d82d14610bc5578063f7434ea914610c4e578063fbf405b014610c6e578063fc6f8f1614610c8e578063fe524c3914610cae57600080fd5b8063c057eca714610a41578063c13517e114610a57578063c258bb1914610a6a578063c356990214610a8a578063c71f425314610a9d578063cf0c38f814610abd578063d1c1df4814610add578063d2b8035a14610b3b57600080fd5b8063b1c9fe6e11610160578063b1c9fe6e14610919578063b2866af714610947578063b31b454014610967578063b39367ed1461097d578063b4a616081461099d578063b70c4e94146109b2578063b888adfa146109c7578063bfabfe8f146109dd57600080fd5b8063840bc19c146107f75780638a73a4dd146108125780638a9bb02a146108325780638bb04875146108645780638edf4741146108845780639280169a146108a4578063a4370ce4146108c4578063afe15cfb146108e457600080fd5b806335975f4a1161028d57806359ec827e1161023057806359ec827e1461070d5780636235593f1461072d57806367c51947146107425780636c1eb1b9146107625780636e5f35c214610777578063751accd0146107975780637717a6e8146107b7578063823cfd70146107d757600080fd5b806335975f4a146105e95780633a157860146106095780633cfd11841461061f57806343d4137f1461064c57806344c792e714610679578063543f8a3614610699578063564a565d146106c657806356acb050146106f757600080fd5b806319b81529116102f557806319b815291461048d5780631c3db16d146104bd5780631f5a0dd2146104fa57806327e6ec8a146105515780632922d6041461057e5780632d29a47b1461059e5780632ea7b4d0146105be57806334d5fb31146105d457600080fd5b8062f5822c146103525780630b274f2e146103745780630b7414bc146103895780630c340a24146103a95780630d1b9d1a146103e65780630d83b940146104345780630e083ec914610457578063115d53761461046d575b600080fd5b34801561035e57600080fd5b5061037261036d3660046153bc565b610cce565b005b34801561038057600080fd5b50610372610d23565b34801561039557600080fd5b506103726103a43660046154cf565b6112ab565b3480156103b557600080fd5b506000546103c9906001600160a01b031681565b6040516001600160a01b0390911681526020015b60405180910390f35b3480156103f257600080fd5b50610406610401366004615530565b611481565b604080519485526001600160a01b0390931660208501529015159183019190915260608201526080016103dd565b34801561044057600080fd5b50610449600181565b6040519081526020016103dd565b34801561046357600080fd5b50610449600e5481565b34801561047957600080fd5b50610372610488366004615530565b6114ca565b34801561049957600080fd5b506104ad6104a8366004615530565b611b24565b60405190151581526020016103dd565b3480156104c957600080fd5b506104dd6104d8366004615530565b611c1b565b6040805193845291151560208401521515908201526060016103dd565b34801561050657600080fd5b5061051a610515366004615530565b611d30565b604080516001600160601b0390971687529415156020870152938501929092526060840152608083015260a082015260c0016103dd565b34801561055d57600080fd5b50610566600081565b6040516001600160601b0390911681526020016103dd565b34801561058a57600080fd5b50610449610599366004615549565b611d87565b3480156105aa57600080fd5b506103726105b936600461556b565b611dbe565b3480156105ca57600080fd5b5061044961271081565b3480156105e057600080fd5b50610566600181565b3480156105f557600080fd5b50610372610604366004615530565b612601565b34801561061557600080fd5b5061044960065481565b34801561062b57600080fd5b5061063f61063a366004615597565b61273e565b6040516103dd91906155d5565b34801561065857600080fd5b5061066c610667366004615530565b6127af565b6040516103dd919061561e565b34801561068557600080fd5b50610372610694366004615631565b61282b565b3480156106a557600080fd5b506106b96106b43660046153bc565b6128eb565b6040516103dd9190615668565b3480156106d257600080fd5b506106e66106e1366004615530565b612987565b6040516103dd9594939291906156df565b34801561070357600080fd5b50610449600f5481565b34801561071957600080fd5b50610449610728366004615530565b6129e3565b34801561073957600080fd5b50610449600081565b34801561074e57600080fd5b5061037261075d36600461571e565b612b36565b34801561076e57600080fd5b50610449600a81565b34801561078357600080fd5b5061037261079236600461571e565b612bd7565b3480156107a357600080fd5b506103726107b23660046157b7565b612ddd565b3480156107c357600080fd5b506103726107d236600461571e565b612eaf565b3480156107e357600080fd5b506103726107f2366004615530565b612efd565b34801561080357600080fd5b506104496001600160ff1b0381565b34801561081e57600080fd5b5061037261082d36600461587c565b612f2c565b34801561083e57600080fd5b5061085261084d366004615549565b6132c4565b6040516103dd9695949392919061591f565b34801561087057600080fd5b5061037261087f366004615530565b6133a4565b34801561089057600080fd5b5061044961089f366004615530565b613530565b3480156108b057600080fd5b506103726108bf36600461571e565b613551565b3480156108d057600080fd5b506103726108df36600461571e565b6135ec565b3480156108f057600080fd5b506109046108ff366004615530565b613694565b604080519283526020830191909152016103dd565b34801561092557600080fd5b5060025461093a90600160a01b900460ff1681565b6040516103dd9190615994565b34801561095357600080fd5b50610372610962366004615530565b613741565b34801561097357600080fd5b5061044960045481565b34801561098957600080fd5b506103726109983660046159ae565b613770565b3480156109a957600080fd5b50610449600481565b3480156109be57600080fd5b506104ad61381f565b3480156109d357600080fd5b5061044960055481565b3480156109e957600080fd5b50610a266109f8366004615549565b6000918252600c60209081526040808420805460028201549486526004909101909252909220549192909190565b604080519384526020840192909252908201526060016103dd565b348015610a4d57600080fd5b5061044960035481565b610449610a653660046159e2565b613861565b348015610a7657600080fd5b50610372610a853660046153bc565b613bdd565b610372610a98366004615a28565b613c29565b348015610aa957600080fd5b50610449610ab8366004615530565b6142a7565b348015610ac957600080fd5b506002546103c9906001600160a01b031681565b348015610ae957600080fd5b50610904610af8366004615a61565b6001600160a01b03919091166000908152600b602090815260408083206001600160601b0390941683526001840182528083205460029094019091529020549091565b348015610b4757600080fd5b50610372610b56366004615549565b61430f565b348015610b6757600080fd5b5061066c614610565b348015610b7c57600080fd5b50610372610b8b3660046153bc565b614668565b348015610b9c57600080fd5b50610449600381565b348015610bb157600080fd5b50610372610bc0366004615a8d565b6146b4565b348015610bd157600080fd5b50610c1c610be0366004615530565b600d602052600090815260409020805460018201546002909201546001600160a01b03821692600160a01b9092046001600160601b0316919084565b604080516001600160a01b0390951685526001600160601b0390931660208501529183015260608201526080016103dd565b348015610c5a57600080fd5b50610449610c69366004615aab565b61490d565b348015610c7a57600080fd5b506001546103c9906001600160a01b031681565b348015610c9a57600080fd5b50610449610ca9366004615530565b614961565b348015610cba57600080fd5b506104ad610cc936600461571e565b614990565b6000546001600160a01b03163314610d015760405162461bcd60e51b8152600401610cf890615adf565b60405180910390fd5b600180546001600160a01b0319166001600160a01b0392909216919091179055565b6000600254600160a01b900460ff166001811115610d4357610d436156b5565b1415610e0557600354600554610d599042615b1c565b1015610da35760405162461bcd60e51b8152602060048201526019602482015278135a5b94dd185ada5b99d51a5b59481b9bdd081c185cdcd959603a1b6044820152606401610cf8565b600954610de95760405162461bcd60e51b81526020600482015260146024820152734e6f20444b206e6565647320667265657a696e6760601b6044820152606401610cf8565b6002805460ff60a01b1916600160a01b17905543600655611260565b6000306001600160a01b031663b70c4e946040518163ffffffff1660e01b815260040160206040518083038186803b158015610e4057600080fd5b505afa158015610e54573d6000803e3d6000fd5b505050506040513d601f19601f82011682018060405250810190610e789190615b33565b600954909150600090610e8d90600190615b50565b90505b6000811261125057600060098281548110610ead57610ead615b8f565b906000526020600020015490506000600860098481548110610ed157610ed1615b8f565b906000526020600020015481548110610eec57610eec615b8f565b60009182526020909120600260049092020101546001600160a01b03169050838015610f865750806001600160a01b031663c86ed8926040518163ffffffff1660e01b815260040160206040518083038186803b158015610f4c57600080fd5b505afa158015610f60573d6000803e3d6000fd5b505050506040513d601f19601f82011682018060405250810190610f849190615b33565b155b1561107057806001600160a01b0316630b274f2e6040518163ffffffff1660e01b8152600401600060405180830381600087803b158015610fc657600080fd5b505af1158015610fda573d6000803e3d6000fd5b50505050806001600160a01b031663c86ed8926040518163ffffffff1660e01b815260040160206040518083038186803b15801561101757600080fd5b505afa15801561102b573d6000803e3d6000fd5b505050506040513d601f19601f8201168201806040525081019061104f9190615b33565b61106b5760405162461bcd60e51b8152600401610cf890615ba5565b61123d565b806001600160a01b031663c86ed8926040518163ffffffff1660e01b815260040160206040518083038186803b1580156110a957600080fd5b505afa1580156110bd573d6000803e3d6000fd5b505050506040513d601f19601f820116820180604052508101906110e19190615b33565b6110fd5760405162461bcd60e51b8152600401610cf890615ba5565b806001600160a01b031663034327446040518163ffffffff1660e01b815260040160206040518083038186803b15801561113657600080fd5b505afa15801561114a573d6000803e3d6000fd5b505050506040513d601f19601f8201168201806040525081019061116e9190615bdc565b61123d5760006008838154811061118757611187615b8f565b600091825260209091206002600490920201018054911515600160a01b0260ff60a01b199092169190911790556009546111c390600190615b50565b83121561121557600980546111da90600190615b1c565b815481106111ea576111ea615b8f565b90600052602060002001546009848154811061120857611208615b8f565b6000918252602090912001555b600980548061122657611226615bf5565b600190038181906000526020600020016000905590555b50508061124990615c0b565b9050610e90565b50506002805460ff60a01b191690555b426005556002546040517f31f72b44f546d9e7eaec13f65636997665e15f134a81c82924f568f5c0d07b93916112a191600160a01b90910460ff1690615994565b60405180910390a1565b6000546001600160a01b031633146112d55760405162461bcd60e51b8152600401610cf890615adf565b60006007846001600160601b0316815481106112f3576112f3615b8f565b90600052602060002090600b0201905060005b835181101561147a5782156113a057600084828151811061132957611329615b8f565b602002602001015111801561135a5750600854845185908390811061135057611350615b8f565b6020026020010151105b6113765760405162461bcd60e51b8152600401610cf890615c29565b61139b8585838151811061138c5761138c615b8f565b602002602001015160016149d8565b611468565b6001600160601b03851660011480156113f65750600060088583815181106113ca576113ca615b8f565b6020026020010151815481106113e2576113e2615b8f565b906000526020600020906004020160000154145b156114435760405162461bcd60e51b815260206004820181905260248201527f43616e27742064697361626c6520526f6f7420444b20696e2047656e6572616c6044820152606401610cf8565b6114688585838151811061145957611459615b8f565b602002602001015160006149d8565b8061147281615c51565b915050611306565b5050505050565b6008818154811061149157600080fd5b60009182526020909120600490910201805460028201546003909201549092506001600160a01b03821691600160a01b900460ff169084565b6000600a82815481106114df576114df615b8f565b600091825260208220600490910201805460078054929450916001600160601b0390911690811061151257611512615b8f565b6000918252602082206003850154600b90920201925061153490600190615b1c565b9050600083600301828154811061154d5761154d615b8f565b6000918252602082206007909102019150600185015460ff166004811115611577576115776156b5565b14156116aa5760008211806115c957506001840154600684019060ff1660048111156115a5576115a56156b5565b600481106115b5576115b5615b8f565b015460028501546115c69042615b1c565b10155b6116155760405162461bcd60e51b815260206004820152601e60248201527f45766964656e6365206e6f7420706173736564202626202141707065616c00006044820152606401610cf8565b60038101546006820154146116645760405162461bcd60e51b815260206004820152601560248201527444697370757465207374696c6c2064726177696e6760581b6044820152606401610cf8565b8254600160601b900460ff1661167b57600261167e565b60015b60018086018054909160ff19909116908360048111156116a0576116a06156b5565b0217905550611ad6565b60018085015460ff1660048111156116c4576116c46156b5565b1415611810576001840154600684019060ff1660048111156116e8576116e86156b5565b600481106116f8576116f8615b8f565b015460028501546117099042615b1c565b1015806117b25750600881600001548154811061172857611728615b8f565b6000918252602090912060049182020160020154604051630baa64d160e01b81529182018790526001600160a01b031690630baa64d19060240160206040518083038186803b15801561177a57600080fd5b505afa15801561178e573d6000803e3d6000fd5b505050506040513d601f19601f820116820180604052508101906117b29190615b33565b6117f95760405162461bcd60e51b815260206004820152601860248201527710dbdb5b5a5d081c195c9a5bd9081b9bdd081c185cdcd95960421b6044820152606401610cf8565b6001808501805460029260ff1990911690836116a0565b6002600185015460ff16600481111561182b5761182b6156b5565b14156119b3576001840154600684019060ff16600481111561184f5761184f6156b5565b6004811061185f5761185f615b8f565b015460028501546118709042615b1c565b1015806119195750600881600001548154811061188f5761188f615b8f565b60009182526020909120600491820201600201546040516336a66c7560e11b81529182018790526001600160a01b031690636d4cd8ea9060240160206040518083038186803b1580156118e157600080fd5b505afa1580156118f5573d6000803e3d6000fd5b505050506040513d601f19601f820116820180604052508101906119199190615b33565b61195e5760405162461bcd60e51b8152602060048201526016602482015275159bdd19481c195c9a5bd9081b9bdd081c185cdcd95960521b6044820152606401610cf8565b600184018054600360ff199091161790558354604051600160601b9091046001600160a01b03169086907fa5d41b970d849372be1da1481ffd78d162bfe57a7aa2fe4e5fb73481fa5ac24f90600090a3611ad6565b6003600185015460ff1660048111156119ce576119ce6156b5565b1415611a73576001840154600684019060ff1660048111156119f2576119f26156b5565b60048110611a0257611a02615b8f565b01546002850154611a139042615b1c565b1015611a5c5760405162461bcd60e51b8152602060048201526018602482015277105c1c19585b081c195c9a5bd9081b9bdd081c185cdcd95960421b6044820152606401610cf8565b6001808501805460049260ff1990911690836116a0565b6004600185015460ff166004811115611a8e57611a8e6156b5565b1415611ad65760405162461bcd60e51b8152602060048201526017602482015276111a5cdc1d5d19481c195c9a5bd9081a5cc8199a5b985b604a1b6044820152606401610cf8565b426002850155600184015460405186917f4e6f5cf43b95303e86aee81683df63992061723a829ee012db21dad388756b9191611b159160ff1690615c6c565b60405180910390a25050505050565b600080600a8381548110611b3a57611b3a615b8f565b6000918252602082206003600490920201908101805491935090611b6090600190615b1c565b81548110611b7057611b70615b8f565b600091825260208220845460078054938102909201945090916001600160601b03909116908110611ba357611ba3615b8f565b90600052602060002090600b02019050806005015482600301541015611bce57506000949350505050565b80546007805490916001600160601b0316908110611bee57611bee615b8f565b6000918252602080832094548352600a600b9092029094010190925250604090205460ff16159392505050565b600080600080600a8581548110611c3457611c34615b8f565b6000918252602082206003600490920201908101805491935090611c5a90600190615b1c565b81548110611c6a57611c6a615b8f565b9060005260206000209060070201905060006008826000015481548110611c9357611c93615b8f565b6000918252602090912060049182020160020154604051631c3db16d60e01b81529182018990526001600160a01b031691508190631c3db16d9060240160606040518083038186803b158015611ce857600080fd5b505afa158015611cfc573d6000803e3d6000fd5b505050506040513d601f19601f82011682018060405250810190611d209190615c7a565b9199909850909650945050505050565b60078181548110611d4057600080fd5b60009182526020909120600b9091020180546002820154600383015460048401546005909401546001600160601b0384169550600160601b90930460ff1693919290919086565b6000828152600c60205260408120600201805483908110611daa57611daa615b8f565b906000526020600020015490505b92915050565b6000600a8481548110611dd357611dd3615b8f565b600091825260209091206004918202019150600182015460ff166004811115611dfe57611dfe6156b5565b14611e1b5760405162461bcd60e51b8152600401610cf890615cb2565b6000816003018481548110611e3257611e32615b8f565b9060005260206000209060070201905060006008826000015481548110611e5b57611e5b615b8f565b60009182526020822060049182020160020154908401546001600160a01b039091169250611e8a908690615cdd565b6005840154600685015460405163368efae360e21b8152600481018b9052602481018a905292935090916000906001600160a01b0386169063da3beb8c9060440160206040518083038186803b158015611ee357600080fd5b505afa158015611ef7573d6000803e3d6000fd5b505050506040513d601f19601f82011682018060405250810190611f1b9190615bdc565b905060008082611f365783861115611f31578395505b611f56565b611f41846002615cf5565b861115611f5657611f53846002615cf5565b95505b60048801545b868110156125db578481101561235057604051634fe264fb60e01b8152600481018e9052602481018d9052604481018290526001600160a01b03891690634fe264fb9060640160206040518083038186803b158015611fba57600080fd5b505afa158015611fce573d6000803e3d6000fd5b505050506040513d601f19601f82011682018060405250810190611ff29190615bdc565b91506127108211156120045761271091505b60006127106120138482615b1c565b8b600101546120229190615cf5565b61202c9190615d2a565b90506120388188615cdd565b965089600601828154811061204f5761204f615b8f565b60009182526020808320909101546001600160a01b0316808352600b825260408084208f546001600160601b0316855260020190925290822080549196508392909161209c908490615b1c565b90915550508a546007805483926001600160601b03169081106120c1576120c1615b8f565b90600052602060002090600b0201600201546120dd9190615cdd565b6001600160a01b0385166000908152600b602090815260408083208f546001600160601b0316845260010190915290205410612171576001600160a01b0384166000908152600b602090815260408083208e546001600160601b0316845260010190915281205461214f908390615b1c565b8c5490915061216a9086906001600160601b03168385614a60565b50506121c2565b6001600160a01b0384166000908152600b602090815260408083208e546001600160601b03168452600101909152902054156121c2578a546121c09085906001600160601b0316600084614a60565b505b60405163ba66fde760e01b8152600481018f9052602481018e9052604481018390526001600160a01b038a169063ba66fde79060640160206040518083038186803b15801561221057600080fd5b505afa158015612224573d6000803e3d6000fd5b505050506040513d601f19601f820116820180604052508101906122489190615b33565b6122a1576000612257856128eb565b905060005b815181101561229e5761228b8683838151811061227b5761227b615b8f565b6020026020010151600080614a60565b508061229681615c51565b91505061225c565b50505b8d6001600160a01b0385167f24f45c2b08bbde8c837d70b67991ccb7660537cf749de21a940ae4858b681e196122d684615d3e565b60408051918252600060208301520160405180910390a36122f8600187615b1c565b82141561234a578461234a576000805460028c01546040516001600160a01b039092169281156108fc029290818181858888f1505060005461234893506001600160a01b0316915089905061507a565b505b506125c9565b6001600160a01b038816634fe264fb8e8e61236b8986615d5b565b6040516001600160e01b031960e086901b16815260048101939093526024830191909152604482015260640160206040518083038186803b1580156123af57600080fd5b505afa1580156123c3573d6000803e3d6000fd5b505050506040513d601f19601f820116820180604052508101906123e79190615bdc565b91506127108211156123f95761271091505b600689016124078683615d5b565b8154811061241757612417615b8f565b60009182526020909120015460018a01546001600160a01b03909116935061271090612444908490615cf5565b61244e9190615d2a565b6001600160a01b0384166000908152600b602090815260408083208e546001600160601b031684526002019091528120805490919061248e908490615b1c565b90915550506001600160a01b0383166000908152600b602090815260408083208d546001600160601b031684526001019091529020546124f6576000612710838b600101546124dd9190615cf5565b6124e79190615d2a565b90506124f3848261507a565b50505b600061271083612506878a615d2a565b6125109190615cf5565b61251a9190615d2a565b9050600061271084878d600201546125329190615d2a565b61253c9190615cf5565b6125469190615d2a565b9050612552858361507a565b506040516001600160a01b0386169082156108fc029083906000818181858888f19350505050508e856001600160a01b03167f24f45c2b08bbde8c837d70b67991ccb7660537cf749de21a940ae4858b681e1984846040516125be929190918252602082015260400190565b60405180910390a350505b806125d381615c51565b915050611f5c565b50848860050154146125ef57600588018590555b50505050600490930155505050505050565b6000600254600160a01b900460ff166001811115612621576126216156b5565b146126605760405162461bcd60e51b815260206004820152600f60248201526e10a9ba30b5b4b73390383430b9b29760891b6044820152606401610cf8565b6000600e54600183600f546126759190615cdd565b61267f9190615b1c565b1161268a57816126a5565b600f54600e5461269a9190615b1c565b6126a5906001615cdd565b9050600081600f546126b79190615cdd565b600f549091505b81811015612736576000818152600d60205260409020805460018201546002830154612706926001600160a01b03811692600160a01b9091046001600160601b031691614a60565b50506000818152600d6020526040812081815560018101829055600201558061272e81615c51565b9150506126be565b50600f555050565b6127466152f9565b60006007836001600160601b03168154811061276457612764615b8f565b60009182526020909120604080516080810191829052600b9093029091019250600683019060049082845b81548152602001906001019080831161278f575050505050915050919050565b6060600882815481106127c4576127c4615b8f565b906000526020600020906004020160010180548060200260200160405190810160405280929190818152602001828054801561281f57602002820191906000526020600020905b81548152602001906001019080831161280b575b50505050509050919050565b6000546001600160a01b031633146128555760405162461bcd60e51b8152600401610cf890615adf565b806007836001600160601b03168154811061287257612872615b8f565b90600052602060002090600b0201600001600c6101000a81548160ff021916908315150217905550816001600160601b0316600080516020615eab8339815191526040516128df906020808252600b908201526a68696464656e566f74657360a81b604082015260600190565b60405180910390a25050565b6001600160a01b0381166000908152600b602090815260409182902080548351818402810184019094528084526060939283018282801561281f57602002820191906000526020600020906000905b82829054906101000a90046001600160601b03166001600160601b0316815260200190600c0190602082600b0104928301926001038202915080841161293a575094979650505050505050565b600a818154811061299757600080fd5b60009182526020909120600490910201805460018201546002909201546001600160601b0382169350600160601b9091046001600160a01b03169160ff80821692610100909204169085565b600080600a83815481106129f9576129f9615b8f565b6000918252602082206003600490920201908101805491935090612a1f90600190615b1c565b81548110612a2f57612a2f615b8f565b600091825260208220845460078054938102909201945090916001600160601b03909116908110612a6257612a62615b8f565b90600052602060002090600b020190508060050154826003015410612b015782546001600160601b031660011415612aa3576001600160ff1b039350612b2e565b6003820154612ab3906002615cf5565b612abe906001615cdd565b81546007805490916001600160601b0316908110612ade57612ade615b8f565b90600052602060002090600b020160040154612afa9190615cf5565b9350612b2e565b6003820154612b11906002615cf5565b612b1c906001615cdd565b8160040154612b2b9190615cf5565b93505b505050919050565b6000546001600160a01b03163314612b605760405162461bcd60e51b8152600401610cf890615adf565b806007836001600160601b031681548110612b7d57612b7d615b8f565b90600052602060002090600b020160040181905550816001600160601b0316600080516020615eab8339815191526040516128df906020808252600b908201526a3332b2a337b9253ab937b960a91b604082015260600190565b6000546001600160a01b03163314612c015760405162461bcd60e51b8152600401610cf890615adf565b6001600160601b03821660011480612c74575080600780846001600160601b031681548110612c3257612c32615b8f565b60009182526020909120600b909102015481546001600160601b03909116908110612c5f57612c5f615b8f565b90600052602060002090600b02016002015411155b612c905760405162461bcd60e51b8152600401610cf890615d6f565b60005b6007836001600160601b031681548110612caf57612caf615b8f565b90600052602060002090600b020160010180549050811015612d685781600780856001600160601b031681548110612ce957612ce9615b8f565b90600052602060002090600b02016001018381548110612d0b57612d0b615b8f565b906000526020600020015481548110612d2657612d26615b8f565b90600052602060002090600b0201600201541015612d565760405162461bcd60e51b8152600401610cf890615d6f565b80612d6081615c51565b915050612c93565b50806007836001600160601b031681548110612d8657612d86615b8f565b90600052602060002090600b020160020181905550816001600160601b0316600080516020615eab8339815191526040516128df906020808252600890820152676d696e5374616b6560c01b604082015260600190565b6000546001600160a01b03163314612e075760405162461bcd60e51b8152600401610cf890615adf565b6000836001600160a01b03168383604051612e229190615dd0565b60006040518083038185875af1925050503d8060008114612e5f576040519150601f19603f3d011682016040523d82523d6000602084013e612e64565b606091505b5050905080612ea95760405162461bcd60e51b8152602060048201526011602482015270155b9cdd58d8d95cdcd99d5b0818d85b1b607a1b6044820152606401610cf8565b50505050565b612ebc3383836000614a60565b612ef95760405162461bcd60e51b815260206004820152600e60248201526d14dd185ada5b99c819985a5b195960921b6044820152606401610cf8565b5050565b6000546001600160a01b03163314612f275760405162461bcd60e51b8152600401610cf890615adf565b600355565b6000546001600160a01b03163314612f565760405162461bcd60e51b8152600401610cf890615adf565b8660078a6001600160601b031681548110612f7357612f73615b8f565b90600052602060002090600b0201600201541115612fa35760405162461bcd60e51b8152600401610cf890615d6f565b6000815111612fe45760405162461bcd60e51b815260206004820152600d60248201526c21537570706f7274656420444b60981b6044820152606401610cf8565b6001600160601b03891661303a5760405162461bcd60e51b815260206004820181905260248201527f496e76616c69643a20466f726b696e6720636f75727420617320706172656e746044820152606401610cf8565b60078054600181018255600091825290600b82027fa66cc928b5edb82af9bd49922954155ab7b0942694bea4ce44661d9a8736c68801905b835181101561313657600084828151811061308f5761308f615b8f565b60200260200101511180156130c0575060085484518590839081106130b6576130b6615b8f565b6020026020010151105b6130dc5760405162461bcd60e51b8152600401610cf890615c29565b600182600a0160008684815181106130f6576130f6615b8f565b6020026020010151815260200190815260200160002060006101000a81548160ff021916908315150217905550808061312e90615c51565b915050613072565b5080546001600160601b0319166001600160601b038c16178155604080516000815260208101918290525161316f916001840191615317565b50805460ff60601b1916600160601b8b15150217815560028101899055600381018890556004808201889055600582018790556131b29060068301908790615362565b5060405163de0fe69d60e01b8152600c6004820152602481018390526044810185905273678E676fd0048da8c35d5B03fabB53a7beBf73A69063de0fe69d9060640160006040518083038186803b15801561320c57600080fd5b505af4158015613220573d6000803e3d6000fd5b5050505060078b6001600160601b03168154811061324057613240615b8f565b600091825260208083206001600b909302018201805492830181558352909120018290556040516001600160601b038c169083907fc580509bcead0c8c5066804fbadb737e0b19c8860c518df0883469001effab10906132af908e908e908e908e908e908e908e908e90615dec565b60405180910390a35050505050505050505050565b6000806000806060600080600a89815481106132e2576132e2615b8f565b9060005260206000209060040201600301888154811061330457613304615b8f565b9060005260206000209060070201905080600101548160020154826004015483600501548460060185600001548180548060200260200160405190810160405280929190818152602001828054801561338657602002820191906000526020600020905b81546001600160a01b03168152600190910190602001808311613368575b50505050509150965096509650965096509650509295509295509295565b6000600a82815481106133b9576133b9615b8f565b600091825260209091206004918202019150600182015460ff1660048111156133e4576133e46156b5565b146134015760405162461bcd60e51b8152600401610cf890615cb2565b6001810154610100900460ff16156134555760405162461bcd60e51b8152602060048201526017602482015276149d5b1a5b99c8185b1c9958591e48195e1958dd5d1959604a1b6044820152606401610cf8565b600061346083611c1b565b505060018301805461010061ff001990911617905582546040518281529192508491600160601b9091046001600160a01b0316907f394027a5fa6e098a1191094d1719d6929b9abc535fcc0c8f448d6a4e756222769060200160405180910390a3815460405163188d362b60e11b81526004810185905260248101839052600160601b9091046001600160a01b03169063311a6c5690604401600060405180830381600087803b15801561351357600080fd5b505af1158015613527573d6000803e3d6000fd5b50505050505050565b6009818154811061354057600080fd5b600091825260209091200154905081565b6000546001600160a01b0316331461357b5760405162461bcd60e51b8152600401610cf890615adf565b806007836001600160601b03168154811061359857613598615b8f565b90600052602060002090600b020160030181905550816001600160601b0316600080516020615eab8339815191526040516128df90602080825260059082015264616c70686160d81b604082015260600190565b6000546001600160a01b031633146136165760405162461bcd60e51b8152600401610cf890615adf565b806007836001600160601b03168154811061363357613633615b8f565b90600052602060002090600b020160050181905550816001600160601b0316600080516020615eab8339815191526040516128df9060208082526012908201527106a75726f7273466f72436f7572744a756d760741b604082015260600190565b6000806000600a84815481106136ac576136ac615b8f565b6000918252602090912060049091020190506003600182015460ff1660048111156136d9576136d96156b5565b1415613732576002810154815460078054929550916001600160601b0390911690811061370857613708615b8f565b600091825260209091206009600b909202010154600282015461372b9190615cdd565b915061373b565b60009250600091505b50915091565b6000546001600160a01b0316331461376b5760405162461bcd60e51b8152600401610cf890615adf565b600455565b6000546001600160a01b0316331461379a5760405162461bcd60e51b8152600401610cf890615adf565b806007836001600160601b0316815481106137b7576137b7615b8f565b90600052602060002090600b02016006019060046137d6929190615362565b50816001600160601b0316600080516020615eab8339815191526040516128df906020808252600e908201526d1d1a5b595cd4195c94195c9a5bd960921b604082015260600190565b60006001600254600160a01b900460ff166001811115613841576138416156b5565b14801561385c57506004546005546138599042615b1c565b10155b905090565b600061386c8261490d565b3410156138bb5760405162461bcd60e51b815260206004820181905260248201527f45544820746f6f206c6f7720666f72206172626974726174696f6e20636f73746044820152606401610cf8565b6000806138c78461514f565b92505091506007826001600160601b0316815481106138e8576138e8615b8f565b60009182526020808320848452600a600b90930201919091019052604090205460ff166139515760405162461bcd60e51b81526020600482015260176024820152761112c81d5b9cdd5c1c1bdc9d195908189e4818dbdd5c9d604a1b6044820152606401610cf8565b600a80546001810182556000918252600160601b33026001600160601b03851617600482027fc65a7bb8d6351c1cf70c95a316cc6a92839c986682d98bc35f958f4883f9d2a88101918255427fc65a7bb8d6351c1cf70c95a316cc6a92839c986682d98bc35f958f4883f9d2aa9091015560088054929650909291849081106139dc576139dc615b8f565b600091825260208220600260049092020101548354600780546001600160a01b039093169450916001600160601b03909116908110613a1d57613a1d615b8f565b60009182526020808320600387018054600181018255908552919093206004600b9093029093019182015491935060070290910190613a5c9034615d2a565b600380830191909155858255820154600283015461271091613a7d91615cf5565b613a879190615d2a565b60018201553460028201556008805486908110613aa657613aa6615b8f565b906000526020600020906004020160020160149054906101000a900460ff16613b3d57600160088681548110613ade57613ade615b8f565b6000918252602082206002600490920201018054921515600160a01b0260ff60a01b19909316929092179091556009805460018101825591527f6e1540171b6c0c960b71a7020d9f60077f6af931a8bbf590da0223dacf75c7af018590555b60038101546040516302dbb79560e61b81526001600160a01b0385169163b6ede54091613b72918b918e918e91600401615e44565b600060405180830381600087803b158015613b8c57600080fd5b505af1158015613ba0573d6000803e3d6000fd5b50506040513392508991507f141dfc18aa6a56fc816f44f0e9e2f1ebc92b15ab167770e17db5b084c10ed99590600090a350505050505092915050565b6000546001600160a01b03163314613c075760405162461bcd60e51b8152600401610cf890615adf565b600280546001600160a01b0319166001600160a01b0392909216919091179055565b613c32836129e3565b341015613c815760405162461bcd60e51b815260206004820152601b60248201527f45544820746f6f206c6f7720666f722061707065616c20636f737400000000006044820152606401610cf8565b6000600a8481548110613c9657613c96615b8f565b6000918252602090912060049091020190506003600182015460ff166004811115613cc357613cc36156b5565b14613d095760405162461bcd60e51b815260206004820152601660248201527544697370757465206e6f742061707065616c61626c6560501b6044820152606401610cf8565b60038101805460009190613d1f90600190615b1c565b81548110613d2f57613d2f615b8f565b906000526020600020906007020190506008816000015481548110613d5657613d56615b8f565b60009182526020909120600490910201600201546001600160a01b03163314613db45760405162461bcd60e51b815260206004820152601060248201526f44697370757465204b6974206f6e6c7960801b6044820152606401610cf8565b8154815460038401805460018101825560009182526020909120600780546001600160601b03909516949281029091019184908110613df557613df5615b8f565b90600052602060002090600b020160050154846003015410613ff9576007836001600160601b031681548110613e2d57613e2d615b8f565b600091825260208220600b90910201546001600160601b031693505b600a811015613f3e576007846001600160601b031681548110613e6e57613e6e615b8f565b60009182526020808320868452600a600b90930201919091019052604090205460ff1615613e9b57613f3e565b600060088481548110613eb057613eb0615b8f565b90600052602060002090600402016000015414613ef35760088381548110613eda57613eda615b8f565b9060005260206000209060040201600001549250613f2c565b6007846001600160601b031681548110613f0f57613f0f615b8f565b60009182526020909120600b90910201546001600160601b031693505b80613f3681615c51565b915050613e49565b506007836001600160601b031681548110613f5b57613f5b615b8f565b60009182526020808320858452600a600b90930201919091019052604090205460ff16613f8757600192505b84546001600160601b03848116911614613ff957845460038601546001600160601b0390911690613fba90600190615b1c565b6040516001600160601b03861681528a907f736e3f52761298c8c0823e1ebf482ed3c5ecb304f743d2d91a7c006e8e8d7a1f9060200160405180910390a45b84546001600160601b0319166001600160601b038416908117865560018601805460ff191690554260028701556007805460009290811061403c5761403c615b8f565b90600052602060002090600b0201905080600401543461405c9190615d2a565b82600301819055506127108160030154826002015461407b9190615cf5565b6140859190615d2a565b600183015534600283015582825560088054849081106140a7576140a7615b8f565b906000526020600020906004020160020160149054906101000a900460ff1661413e576001600884815481106140df576140df615b8f565b6000918252602082206002600490920201018054921515600160a01b0260ff60a01b19909316929092179091556009805460018101825591527f6e1540171b6c0c960b71a7020d9f60077f6af931a8bbf590da0223dacf75c7af018390555b8454825414614224578454600387015461415a90600190615b1c565b83546040519081528b907fcbe7939a71f0b369c7471d760a0a99b60b7bb010ee0406cba8a46679d1ea77569060200160405180910390a460088260000154815481106141a8576141a8615b8f565b600091825260209091206004918202016002015460038401546040516302dbb79560e61b81526001600160a01b039092169263b6ede540926141f1928e928e928e929101615e44565b600060405180830381600087803b15801561420b57600080fd5b505af115801561421f573d6000803e3d6000fd5b505050505b8554604051600160601b9091046001600160a01b0316908a907f9c9b64db9e130f48381bf697abf638e73117dbfbfd7a4484f2da3ba188f4187d90600090a3887f4e6f5cf43b95303e86aee81683df63992061723a829ee012db21dad388756b9160006040516142949190615c6c565b60405180910390a2505050505050505050565b600080600a83815481106142bd576142bd615b8f565b9060005260206000209060040201905080600301600182600301805490506142e59190615b1c565b815481106142f5576142f5615b8f565b906000526020600020906007020160030154915050919050565b6001600254600160a01b900460ff16600181111561432f5761432f6156b5565b1461436a5760405162461bcd60e51b815260206004820152600b60248201526a57726f6e6720706861736560a81b6044820152606401610cf8565b6000600a838154811061437f5761437f615b8f565b906000526020600020906004020190506000600182600301805490506143a59190615b1c565b905060008260030182815481106143be576143be615b8f565b6000918252602082206007909102019150600184015460ff1660048111156143e8576143e86156b5565b146144285760405162461bcd60e51b815260206004820152601060248201526f08515d9a59195b98d9481c195c9a5bd960821b6044820152606401610cf8565b6000600882600001548154811061444157614441615b8f565b60009182526020822060026004909202010154600684015460038501546001600160a01b03909216935091906144778884615cdd565b1115614487578360030154614491565b6144918783615cdd565b9050815b8181101561460557604051633b30414760e01b8152600481018a90526000906001600160a01b03861690633b30414790602401602060405180830381600087803b1580156144e257600080fd5b505af11580156144f6573d6000803e3d6000fd5b505050506040513d601f19601f8201168201806040525081019061451a9190615e8d565b90506001600160a01b038116156145f25760018601546001600160a01b0382166000908152600b602090815260408083208c546001600160601b0316845260020190915281208054909190614570908490615cdd565b909155505060068601546040805189815260208101929092528b916001600160a01b038416917f6119cf536152c11e0a9a6c22f3953ce4ecc93ee54fa72ffa326ffabded21509b910160405180910390a3600686018054600181018255600091825260209091200180546001600160a01b0319166001600160a01b0383161790555b50806145fd81615c51565b915050614495565b505050505050505050565b6060600980548060200260200160405190810160405280929190818152602001828054801561465e57602002820191906000526020600020905b81548152602001906001019080831161464a575b5050505050905090565b6000546001600160a01b031633146146925760405162461bcd60e51b8152600401610cf890615adf565b600080546001600160a01b0319166001600160a01b0392909216919091179055565b6000546001600160a01b031633146146de5760405162461bcd60e51b8152600401610cf890615adf565b60085480821061471a5760405162461bcd60e51b81526020600482015260076024820152660854185c995b9d60ca1b6044820152606401610cf8565b60008215614797576008838154811061473557614735615b8f565b90600052602060002090600402016003015460016147539190615cdd565b9050600a81106147975760405162461bcd60e51b815260206004820152600f60248201526e088cae0e8d040d8caeccad840dac2f608b1b6044820152606401610cf8565b6040805160a08101825284815281516000808252602080830185528084019283526001600160a01b038916948401949094526060830181905260808301859052600880546001810182559152825160049091027ff3f7a9fe364faab93b216da50a3214154f22a0a2b415b23a84c8169e8b636ee381019182559151805193949193614849937ff3f7a9fe364faab93b216da50a3214154f22a0a2b415b23a84c8169e8b636ee401929190910190615317565b50604082015160028201805460608501511515600160a01b026001600160a81b03199091166001600160a01b039093169290921791909117905560809091015160039091015560088054849081106148a3576148a3615b8f565b600091825260208083206001600490930201820180549283018155835282200183905560405184916001600160a01b0387169185917f7921860794ac14fda09ee75f7160a5a3d266e3352f7954d0401606a92a26c49891a482612ea957612ea960018360016149d8565b600080600061491b8461514f565b5091509150806007836001600160601b03168154811061493d5761493d615b8f565b90600052602060002090600b0201600401546149599190615cf5565b949350505050565b6000600a828154811061497657614976615b8f565b600091825260209091206003600490920201015492915050565b60006007836001600160601b0316815481106149ae576149ae615b8f565b60009182526020808320948352600b91909102909301600a0190925250604090205460ff16919050565b806007846001600160601b0316815481106149f5576149f5615b8f565b60009182526020808320868452600b92909202909101600a0190526040808220805460ff19169315159390931790925590518215159184916001600160601b038716917fb47629acdf64971062d40984f77d3dee212d735b11e3e8c7a4222d9f0572cc7991a4505050565b60006001600160601b0384161580614a8257506007546001600160601b038516115b15614a8f57506000614959565b6001600160a01b0385166000908152600b6020526040812090614ab287876151d3565b604051630b8ea8ad60e41b8152600c60048201526001600160601b03881660248201526044810182905290915060009073678E676fd0048da8c35d5B03fabB53a7beBf73A69063b8ea8ad09060640160206040518083038186803b158015614b1957600080fd5b505af4158015614b2d573d6000803e3d6000fd5b505050506040513d601f19601f82011682018060405250810190614b519190615bdc565b90508515614bdf576007876001600160601b031681548110614b7557614b75615b8f565b90600052602060002090600b020160020154861080614bad57506001600160601b038716600090815260028401602052604090205486105b15614bbe5760009350505050614959565b80158015614bce57508254600411155b15614bdf5760009350505050614959565b6000600254600160a01b900460ff166001811115614bff57614bff6156b5565b14614cab576040518060800160405280896001600160a01b03168152602001886001600160601b0316815260200187815260200186815250600d6000600e60008154614c4a90615c51565b9182905550815260208082019290925260409081016000208351928401516001600160601b0316600160a01b026001600160a01b03909316929092178255820151600180830191909155606090920151600290910155935061495992505050565b6000818710614d2857614cbe8288615b1c565b90508015614d1657614cd189308361521b565b15614d1b5781614d16578354600180820186556000868152602090206002830401805491909216600c026101000a6001600160601b0381810219909216918b16021790555b614efd565b6000945050505050614959565b86614ec5576001600160601b03881660009081526002850160205260409020548690614d549084615b1c565b614d5e9190615b1c565b90508015614d1657614d70898261507a565b15614d1b5760005b8454811015614ebf57886001600160601b0316856000018281548110614da057614da0615b8f565b600091825260209091206002820401546001909116600c026101000a90046001600160601b03161415614ead5784548590614ddd90600190615b1c565b81548110614ded57614ded615b8f565b9060005260206000209060029182820401919006600c029054906101000a90046001600160601b0316856000018281548110614e2b57614e2b615b8f565b9060005260206000209060029182820401919006600c026101000a8154816001600160601b0302191690836001600160601b0316021790555084600001805480614e7757614e77615bf5565b60008281526020902060026000199092019182040180546001600160601b03600c60018516026101000a02191690559055614ebf565b80614eb781615c51565b915050614d78565b50614efd565b85614ed08884615b1c565b614eda9190615b1c565b90508015614efd57614eec898261507a565b614efd576000945050505050614959565b6001600160601b03881660009081526001850160205260408120548890614f25908590615b1c565b614f2f9190615cdd565b6001600160601b038a16600081815260018801602052604081208390559192505b81615013576040516314955f6d60e21b8152600c600482015260248101829052604481018b90526064810187905273678E676fd0048da8c35d5B03fabB53a7beBf73A6906352557db49060840160006040518083038186803b158015614fb557600080fd5b505af4158015614fc9573d6000803e3d6000fd5b505050506001811415614fdf5760019150614f50565b60078181548110614ff257614ff2615b8f565b60009182526020909120600b90910201546001600160601b03169050614f50565b604080516001600160601b038d168152602081018c90529081018490526001600160a01b038d16907f70ca4ec64687bf265f39041896f3dbf10b9f650503cb38f2b3569fdce7489c369060600160405180910390a25060019b9a5050505050505050505050565b600154604080516001600160a01b038581166024830152604480830186905283518084039091018152606490920183526020820180516001600160e01b031663a9059cbb60e01b1790529151600093849384939116916150da9190615dd0565b6000604051808303816000865af19150503d8060008114615117576040519150601f19603f3d011682016040523d82523d6000602084013e61511c565b606091505b50915091508180156151465750805115806151465750808060200190518101906151469190615b33565b95945050505050565b600080600060408451106151c1575050506020810151604082015160608301516001600160601b038316158061519057506007546001600160601b03841610155b1561519a57600192505b816151a457600391505b8015806151b357506008548110155b156151bc575060015b6151cc565b506001915060039050815b9193909250565b600060405160005b60148110156151f6578481600c011a818301536001016151db565b5060145b60208110156152125783811a818301536001016151fa565b50519392505050565b600154604080516001600160a01b0386811660248301528581166044830152606480830186905283518084039091018152608490920183526020820180516001600160e01b03166323b872dd60e01b1790529151600093849384939116916152839190615dd0565b6000604051808303816000865af19150503d80600081146152c0576040519150601f19603f3d011682016040523d82523d6000602084013e6152c5565b606091505b50915091508180156152ef5750805115806152ef5750808060200190518101906152ef9190615b33565b9695505050505050565b60405180608001604052806004906020820280368337509192915050565b828054828255906000526020600020908101928215615352579160200282015b82811115615352578251825591602001919060010190615337565b5061535e92915061538f565b5090565b82600481019282156153525791602002820182811115615352578251825591602001919060010190615337565b5b8082111561535e5760008155600101615390565b6001600160a01b03811681146153b957600080fd5b50565b6000602082840312156153ce57600080fd5b81356153d9816153a4565b9392505050565b80356001600160601b03811681146153f757600080fd5b919050565b634e487b7160e01b600052604160045260246000fd5b604051601f8201601f191681016001600160401b038111828210171561543a5761543a6153fc565b604052919050565b600082601f83011261545357600080fd5b813560206001600160401b0382111561546e5761546e6153fc565b8160051b61547d828201615412565b928352848101820192828101908785111561549757600080fd5b83870192505b848310156154b65782358252918301919083019061549d565b979650505050505050565b80151581146153b957600080fd5b6000806000606084860312156154e457600080fd5b6154ed846153e0565b925060208401356001600160401b0381111561550857600080fd5b61551486828701615442565b9250506040840135615525816154c1565b809150509250925092565b60006020828403121561554257600080fd5b5035919050565b6000806040838503121561555c57600080fd5b50508035926020909101359150565b60008060006060848603121561558057600080fd5b505081359360208301359350604090920135919050565b6000602082840312156155a957600080fd5b6153d9826153e0565b8060005b6004811015612ea95781518452602093840193909101906001016155b6565b60808101611db882846155b2565b600081518084526020808501945080840160005b83811015615613578151875295820195908201906001016155f7565b509495945050505050565b6020815260006153d960208301846155e3565b6000806040838503121561564457600080fd5b61564d836153e0565b9150602083013561565d816154c1565b809150509250929050565b6020808252825182820181905260009190848201906040850190845b818110156156a95783516001600160601b031683529284019291840191600101615684565b50909695505050505050565b634e487b7160e01b600052602160045260246000fd5b600581106156db576156db6156b5565b9052565b6001600160601b03861681526001600160a01b038516602082015260a0810161570b60408301866156cb565b9215156060820152608001529392505050565b6000806040838503121561573157600080fd5b61573a836153e0565b946020939093013593505050565b600082601f83011261575957600080fd5b81356001600160401b03811115615772576157726153fc565b615785601f8201601f1916602001615412565b81815284602083860101111561579a57600080fd5b816020850160208301376000918101602001919091529392505050565b6000806000606084860312156157cc57600080fd5b83356157d7816153a4565b92506020840135915060408401356001600160401b038111156157f957600080fd5b61580586828701615748565b9150509250925092565b600082601f83011261582057600080fd5b604051608081018181106001600160401b0382111715615842576158426153fc565b60405280608084018581111561585757600080fd5b845b81811015615871578035835260209283019201615859565b509195945050505050565b60008060008060008060008060006101808a8c03121561589b57600080fd5b6158a48a6153e0565b985060208a01356158b4816154c1565b975060408a0135965060608a0135955060808a0135945060a08a013593506158df8b60c08c0161580f565b92506101408a013591506101608a01356001600160401b0381111561590357600080fd5b61590f8c828d01615442565b9150509295985092959850929598565b600060c082018883526020888185015287604085015286606085015260c0608085015281865180845260e086019150828801935060005b8181101561597b5784516001600160a01b031683529383019391830191600101615956565b50508093505050508260a0830152979650505050505050565b60208101600283106159a8576159a86156b5565b91905290565b60008060a083850312156159c157600080fd5b6159ca836153e0565b91506159d9846020850161580f565b90509250929050565b600080604083850312156159f557600080fd5b8235915060208301356001600160401b03811115615a1257600080fd5b615a1e85828601615748565b9150509250929050565b600080600060608486031215615a3d57600080fd5b833592506020840135915060408401356001600160401b038111156157f957600080fd5b60008060408385031215615a7457600080fd5b8235615a7f816153a4565b91506159d9602084016153e0565b60008060408385031215615aa057600080fd5b823561573a816153a4565b600060208284031215615abd57600080fd5b81356001600160401b03811115615ad357600080fd5b61495984828501615748565b6020808252600d908201526c476f7665726e6f72206f6e6c7960981b604082015260600190565b634e487b7160e01b600052601160045260246000fd5b600082821015615b2e57615b2e615b06565b500390565b600060208284031215615b4557600080fd5b81516153d9816154c1565b60008083128015600160ff1b850184121615615b6e57615b6e615b06565b6001600160ff1b0384018313811615615b8957615b89615b06565b50500390565b634e487b7160e01b600052603260045260246000fd5b6020808252601e908201527f536f6d6520444b206e6f7420696e205265736f6c76696e672070686173650000604082015260600190565b600060208284031215615bee57600080fd5b5051919050565b634e487b7160e01b600052603160045260246000fd5b6000600160ff1b821415615c2157615c21615b06565b506000190190565b6020808252600e908201526d0aee4dedcce40889640d2dcc8caf60931b604082015260600190565b6000600019821415615c6557615c65615b06565b5060010190565b60208101611db882846156cb565b600080600060608486031215615c8f57600080fd5b835192506020840151615ca1816154c1565b6040850151909250615525816154c1565b60208082526011908201527008515e1958dd5d1a5bdb881c195c9a5bd9607a1b604082015260600190565b60008219821115615cf057615cf0615b06565b500190565b6000816000190483118215151615615d0f57615d0f615b06565b500290565b634e487b7160e01b600052601260045260246000fd5b600082615d3957615d39615d14565b500490565b6000600160ff1b821415615d5457615d54615b06565b5060000390565b600082615d6a57615d6a615d14565b500690565b6020808252818101527f4d696e5374616b65206c6f776572207468616e20706172656e7420636f757274604082015260600190565b60005b83811015615dbf578181015183820152602001615da7565b83811115612ea95750506000910152565b60008251615de2818460208701615da4565b9190910192915050565b60006101608a15158352896020840152886040840152876060840152866080840152615e1b60a08401876155b2565b8461012084015280610140840152615e35818401856155e3565b9b9a5050505050505050505050565b8481528360208201526080604082015260008351806080840152615e6f8160a0850160208801615da4565b606083019390935250601f91909101601f19160160a0019392505050565b600060208284031215615e9f57600080fd5b81516153d9816153a456fee83e0a05baa75e68db64db7387055029be50c8d8de00a3e3e56978509b9bc2dea2646970667358221220222902153881fcc32a573ebff21d26b0f46dab0fc92553713dac75545ed01ae964736f6c63430008090033",
  "deployedBytecode": "0x60806040526004361061034d5760003560e01c8063840bc19c116101bd578063c057eca7116100f8578063d8b03fd81161009b578063d8b03fd814610b5b578063e4c0aaf414610b70578063eaff425a14610b90578063f12ada8b14610ba5578063f6b4d82d14610bc5578063f7434ea914610c4e578063fbf405b014610c6e578063fc6f8f1614610c8e578063fe524c3914610cae57600080fd5b8063c057eca714610a41578063c13517e114610a57578063c258bb1914610a6a578063c356990214610a8a578063c71f425314610a9d578063cf0c38f814610abd578063d1c1df4814610add578063d2b8035a14610b3b57600080fd5b8063b1c9fe6e11610160578063b1c9fe6e14610919578063b2866af714610947578063b31b454014610967578063b39367ed1461097d578063b4a616081461099d578063b70c4e94146109b2578063b888adfa146109c7578063bfabfe8f146109dd57600080fd5b8063840bc19c146107f75780638a73a4dd146108125780638a9bb02a146108325780638bb04875146108645780638edf4741146108845780639280169a146108a4578063a4370ce4146108c4578063afe15cfb146108e457600080fd5b806335975f4a1161028d57806359ec827e1161023057806359ec827e1461070d5780636235593f1461072d57806367c51947146107425780636c1eb1b9146107625780636e5f35c214610777578063751accd0146107975780637717a6e8146107b7578063823cfd70146107d757600080fd5b806335975f4a146105e95780633a157860146106095780633cfd11841461061f57806343d4137f1461064c57806344c792e714610679578063543f8a3614610699578063564a565d146106c657806356acb050146106f757600080fd5b806319b81529116102f557806319b815291461048d5780631c3db16d146104bd5780631f5a0dd2146104fa57806327e6ec8a146105515780632922d6041461057e5780632d29a47b1461059e5780632ea7b4d0146105be57806334d5fb31146105d457600080fd5b8062f5822c146103525780630b274f2e146103745780630b7414bc146103895780630c340a24146103a95780630d1b9d1a146103e65780630d83b940146104345780630e083ec914610457578063115d53761461046d575b600080fd5b34801561035e57600080fd5b5061037261036d3660046153bc565b610cce565b005b34801561038057600080fd5b50610372610d23565b34801561039557600080fd5b506103726103a43660046154cf565b6112ab565b3480156103b557600080fd5b506000546103c9906001600160a01b031681565b6040516001600160a01b0390911681526020015b60405180910390f35b3480156103f257600080fd5b50610406610401366004615530565b611481565b604080519485526001600160a01b0390931660208501529015159183019190915260608201526080016103dd565b34801561044057600080fd5b50610449600181565b6040519081526020016103dd565b34801561046357600080fd5b50610449600e5481565b34801561047957600080fd5b50610372610488366004615530565b6114ca565b34801561049957600080fd5b506104ad6104a8366004615530565b611b24565b60405190151581526020016103dd565b3480156104c957600080fd5b506104dd6104d8366004615530565b611c1b565b6040805193845291151560208401521515908201526060016103dd565b34801561050657600080fd5b5061051a610515366004615530565b611d30565b604080516001600160601b0390971687529415156020870152938501929092526060840152608083015260a082015260c0016103dd565b34801561055d57600080fd5b50610566600081565b6040516001600160601b0390911681526020016103dd565b34801561058a57600080fd5b50610449610599366004615549565b611d87565b3480156105aa57600080fd5b506103726105b936600461556b565b611dbe565b3480156105ca57600080fd5b5061044961271081565b3480156105e057600080fd5b50610566600181565b3480156105f557600080fd5b50610372610604366004615530565b612601565b34801561061557600080fd5b5061044960065481565b34801561062b57600080fd5b5061063f61063a366004615597565b61273e565b6040516103dd91906155d5565b34801561065857600080fd5b5061066c610667366004615530565b6127af565b6040516103dd919061561e565b34801561068557600080fd5b50610372610694366004615631565b61282b565b3480156106a557600080fd5b506106b96106b43660046153bc565b6128eb565b6040516103dd9190615668565b3480156106d257600080fd5b506106e66106e1366004615530565b612987565b6040516103dd9594939291906156df565b34801561070357600080fd5b50610449600f5481565b34801561071957600080fd5b50610449610728366004615530565b6129e3565b34801561073957600080fd5b50610449600081565b34801561074e57600080fd5b5061037261075d36600461571e565b612b36565b34801561076e57600080fd5b50610449600a81565b34801561078357600080fd5b5061037261079236600461571e565b612bd7565b3480156107a357600080fd5b506103726107b23660046157b7565b612ddd565b3480156107c357600080fd5b506103726107d236600461571e565b612eaf565b3480156107e357600080fd5b506103726107f2366004615530565b612efd565b34801561080357600080fd5b506104496001600160ff1b0381565b34801561081e57600080fd5b5061037261082d36600461587c565b612f2c565b34801561083e57600080fd5b5061085261084d366004615549565b6132c4565b6040516103dd9695949392919061591f565b34801561087057600080fd5b5061037261087f366004615530565b6133a4565b34801561089057600080fd5b5061044961089f366004615530565b613530565b3480156108b057600080fd5b506103726108bf36600461571e565b613551565b3480156108d057600080fd5b506103726108df36600461571e565b6135ec565b3480156108f057600080fd5b506109046108ff366004615530565b613694565b604080519283526020830191909152016103dd565b34801561092557600080fd5b5060025461093a90600160a01b900460ff1681565b6040516103dd9190615994565b34801561095357600080fd5b50610372610962366004615530565b613741565b34801561097357600080fd5b5061044960045481565b34801561098957600080fd5b506103726109983660046159ae565b613770565b3480156109a957600080fd5b50610449600481565b3480156109be57600080fd5b506104ad61381f565b3480156109d357600080fd5b5061044960055481565b3480156109e957600080fd5b50610a266109f8366004615549565b6000918252600c60209081526040808420805460028201549486526004909101909252909220549192909190565b604080519384526020840192909252908201526060016103dd565b348015610a4d57600080fd5b5061044960035481565b610449610a653660046159e2565b613861565b348015610a7657600080fd5b50610372610a853660046153bc565b613bdd565b610372610a98366004615a28565b613c29565b348015610aa957600080fd5b50610449610ab8366004615530565b6142a7565b348015610ac957600080fd5b506002546103c9906001600160a01b031681565b348015610ae957600080fd5b50610904610af8366004615a61565b6001600160a01b03919091166000908152600b602090815260408083206001600160601b0390941683526001840182528083205460029094019091529020549091565b348015610b4757600080fd5b50610372610b56366004615549565b61430f565b348015610b6757600080fd5b5061066c614610565b348015610b7c57600080fd5b50610372610b8b3660046153bc565b614668565b348015610b9c57600080fd5b50610449600381565b348015610bb157600080fd5b50610372610bc0366004615a8d565b6146b4565b348015610bd157600080fd5b50610c1c610be0366004615530565b600d602052600090815260409020805460018201546002909201546001600160a01b03821692600160a01b9092046001600160601b0316919084565b604080516001600160a01b0390951685526001600160601b0390931660208501529183015260608201526080016103dd565b348015610c5a57600080fd5b50610449610c69366004615aab565b61490d565b348015610c7a57600080fd5b506001546103c9906001600160a01b031681565b348015610c9a57600080fd5b50610449610ca9366004615530565b614961565b348015610cba57600080fd5b506104ad610cc936600461571e565b614990565b6000546001600160a01b03163314610d015760405162461bcd60e51b8152600401610cf890615adf565b60405180910390fd5b600180546001600160a01b0319166001600160a01b0392909216919091179055565b6000600254600160a01b900460ff166001811115610d4357610d436156b5565b1415610e0557600354600554610d599042615b1c565b1015610da35760405162461bcd60e51b8152602060048201526019602482015278135a5b94dd185ada5b99d51a5b59481b9bdd081c185cdcd959603a1b6044820152606401610cf8565b600954610de95760405162461bcd60e51b81526020600482015260146024820152734e6f20444b206e6565647320667265657a696e6760601b6044820152606401610cf8565b6002805460ff60a01b1916600160a01b17905543600655611260565b6000306001600160a01b031663b70c4e946040518163ffffffff1660e01b815260040160206040518083038186803b158015610e4057600080fd5b505afa158015610e54573d6000803e3d6000fd5b505050506040513d601f19601f82011682018060405250810190610e789190615b33565b600954909150600090610e8d90600190615b50565b90505b6000811261125057600060098281548110610ead57610ead615b8f565b906000526020600020015490506000600860098481548110610ed157610ed1615b8f565b906000526020600020015481548110610eec57610eec615b8f565b60009182526020909120600260049092020101546001600160a01b03169050838015610f865750806001600160a01b031663c86ed8926040518163ffffffff1660e01b815260040160206040518083038186803b158015610f4c57600080fd5b505afa158015610f60573d6000803e3d6000fd5b505050506040513d601f19601f82011682018060405250810190610f849190615b33565b155b1561107057806001600160a01b0316630b274f2e6040518163ffffffff1660e01b8152600401600060405180830381600087803b158015610fc657600080fd5b505af1158015610fda573d6000803e3d6000fd5b50505050806001600160a01b031663c86ed8926040518163ffffffff1660e01b815260040160206040518083038186803b15801561101757600080fd5b505afa15801561102b573d6000803e3d6000fd5b505050506040513d601f19601f8201168201806040525081019061104f9190615b33565b61106b5760405162461bcd60e51b8152600401610cf890615ba5565b61123d565b806001600160a01b031663c86ed8926040518163ffffffff1660e01b815260040160206040518083038186803b1580156110a957600080fd5b505afa1580156110bd573d6000803e3d6000fd5b505050506040513d601f19601f820116820180604052508101906110e19190615b33565b6110fd5760405162461bcd60e51b8152600401610cf890615ba5565b806001600160a01b031663034327446040518163ffffffff1660e01b815260040160206040518083038186803b15801561113657600080fd5b505afa15801561114a573d6000803e3d6000fd5b505050506040513d601f19601f8201168201806040525081019061116e9190615bdc565b61123d5760006008838154811061118757611187615b8f565b600091825260209091206002600490920201018054911515600160a01b0260ff60a01b199092169190911790556009546111c390600190615b50565b83121561121557600980546111da90600190615b1c565b815481106111ea576111ea615b8f565b90600052602060002001546009848154811061120857611208615b8f565b6000918252602090912001555b600980548061122657611226615bf5565b600190038181906000526020600020016000905590555b50508061124990615c0b565b9050610e90565b50506002805460ff60a01b191690555b426005556002546040517f31f72b44f546d9e7eaec13f65636997665e15f134a81c82924f568f5c0d07b93916112a191600160a01b90910460ff1690615994565b60405180910390a1565b6000546001600160a01b031633146112d55760405162461bcd60e51b8152600401610cf890615adf565b60006007846001600160601b0316815481106112f3576112f3615b8f565b90600052602060002090600b0201905060005b835181101561147a5782156113a057600084828151811061132957611329615b8f565b602002602001015111801561135a5750600854845185908390811061135057611350615b8f565b6020026020010151105b6113765760405162461bcd60e51b8152600401610cf890615c29565b61139b8585838151811061138c5761138c615b8f565b602002602001015160016149d8565b611468565b6001600160601b03851660011480156113f65750600060088583815181106113ca576113ca615b8f565b6020026020010151815481106113e2576113e2615b8f565b906000526020600020906004020160000154145b156114435760405162461bcd60e51b815260206004820181905260248201527f43616e27742064697361626c6520526f6f7420444b20696e2047656e6572616c6044820152606401610cf8565b6114688585838151811061145957611459615b8f565b602002602001015160006149d8565b8061147281615c51565b915050611306565b5050505050565b6008818154811061149157600080fd5b60009182526020909120600490910201805460028201546003909201549092506001600160a01b03821691600160a01b900460ff169084565b6000600a82815481106114df576114df615b8f565b600091825260208220600490910201805460078054929450916001600160601b0390911690811061151257611512615b8f565b6000918252602082206003850154600b90920201925061153490600190615b1c565b9050600083600301828154811061154d5761154d615b8f565b6000918252602082206007909102019150600185015460ff166004811115611577576115776156b5565b14156116aa5760008211806115c957506001840154600684019060ff1660048111156115a5576115a56156b5565b600481106115b5576115b5615b8f565b015460028501546115c69042615b1c565b10155b6116155760405162461bcd60e51b815260206004820152601e60248201527f45766964656e6365206e6f7420706173736564202626202141707065616c00006044820152606401610cf8565b60038101546006820154146116645760405162461bcd60e51b815260206004820152601560248201527444697370757465207374696c6c2064726177696e6760581b6044820152606401610cf8565b8254600160601b900460ff1661167b57600261167e565b60015b60018086018054909160ff19909116908360048111156116a0576116a06156b5565b0217905550611ad6565b60018085015460ff1660048111156116c4576116c46156b5565b1415611810576001840154600684019060ff1660048111156116e8576116e86156b5565b600481106116f8576116f8615b8f565b015460028501546117099042615b1c565b1015806117b25750600881600001548154811061172857611728615b8f565b6000918252602090912060049182020160020154604051630baa64d160e01b81529182018790526001600160a01b031690630baa64d19060240160206040518083038186803b15801561177a57600080fd5b505afa15801561178e573d6000803e3d6000fd5b505050506040513d601f19601f820116820180604052508101906117b29190615b33565b6117f95760405162461bcd60e51b815260206004820152601860248201527710dbdb5b5a5d081c195c9a5bd9081b9bdd081c185cdcd95960421b6044820152606401610cf8565b6001808501805460029260ff1990911690836116a0565b6002600185015460ff16600481111561182b5761182b6156b5565b14156119b3576001840154600684019060ff16600481111561184f5761184f6156b5565b6004811061185f5761185f615b8f565b015460028501546118709042615b1c565b1015806119195750600881600001548154811061188f5761188f615b8f565b60009182526020909120600491820201600201546040516336a66c7560e11b81529182018790526001600160a01b031690636d4cd8ea9060240160206040518083038186803b1580156118e157600080fd5b505afa1580156118f5573d6000803e3d6000fd5b505050506040513d601f19601f820116820180604052508101906119199190615b33565b61195e5760405162461bcd60e51b8152602060048201526016602482015275159bdd19481c195c9a5bd9081b9bdd081c185cdcd95960521b6044820152606401610cf8565b600184018054600360ff199091161790558354604051600160601b9091046001600160a01b03169086907fa5d41b970d849372be1da1481ffd78d162bfe57a7aa2fe4e5fb73481fa5ac24f90600090a3611ad6565b6003600185015460ff1660048111156119ce576119ce6156b5565b1415611a73576001840154600684019060ff1660048111156119f2576119f26156b5565b60048110611a0257611a02615b8f565b01546002850154611a139042615b1c565b1015611a5c5760405162461bcd60e51b8152602060048201526018602482015277105c1c19585b081c195c9a5bd9081b9bdd081c185cdcd95960421b6044820152606401610cf8565b6001808501805460049260ff1990911690836116a0565b6004600185015460ff166004811115611a8e57611a8e6156b5565b1415611ad65760405162461bcd60e51b8152602060048201526017602482015276111a5cdc1d5d19481c195c9a5bd9081a5cc8199a5b985b604a1b6044820152606401610cf8565b426002850155600184015460405186917f4e6f5cf43b95303e86aee81683df63992061723a829ee012db21dad388756b9191611b159160ff1690615c6c565b60405180910390a25050505050565b600080600a8381548110611b3a57611b3a615b8f565b6000918252602082206003600490920201908101805491935090611b6090600190615b1c565b81548110611b7057611b70615b8f565b600091825260208220845460078054938102909201945090916001600160601b03909116908110611ba357611ba3615b8f565b90600052602060002090600b02019050806005015482600301541015611bce57506000949350505050565b80546007805490916001600160601b0316908110611bee57611bee615b8f565b6000918252602080832094548352600a600b9092029094010190925250604090205460ff16159392505050565b600080600080600a8581548110611c3457611c34615b8f565b6000918252602082206003600490920201908101805491935090611c5a90600190615b1c565b81548110611c6a57611c6a615b8f565b9060005260206000209060070201905060006008826000015481548110611c9357611c93615b8f565b6000918252602090912060049182020160020154604051631c3db16d60e01b81529182018990526001600160a01b031691508190631c3db16d9060240160606040518083038186803b158015611ce857600080fd5b505afa158015611cfc573d6000803e3d6000fd5b505050506040513d601f19601f82011682018060405250810190611d209190615c7a565b9199909850909650945050505050565b60078181548110611d4057600080fd5b60009182526020909120600b9091020180546002820154600383015460048401546005909401546001600160601b0384169550600160601b90930460ff1693919290919086565b6000828152600c60205260408120600201805483908110611daa57611daa615b8f565b906000526020600020015490505b92915050565b6000600a8481548110611dd357611dd3615b8f565b600091825260209091206004918202019150600182015460ff166004811115611dfe57611dfe6156b5565b14611e1b5760405162461bcd60e51b8152600401610cf890615cb2565b6000816003018481548110611e3257611e32615b8f565b9060005260206000209060070201905060006008826000015481548110611e5b57611e5b615b8f565b60009182526020822060049182020160020154908401546001600160a01b039091169250611e8a908690615cdd565b6005840154600685015460405163368efae360e21b8152600481018b9052602481018a905292935090916000906001600160a01b0386169063da3beb8c9060440160206040518083038186803b158015611ee357600080fd5b505afa158015611ef7573d6000803e3d6000fd5b505050506040513d601f19601f82011682018060405250810190611f1b9190615bdc565b905060008082611f365783861115611f31578395505b611f56565b611f41846002615cf5565b861115611f5657611f53846002615cf5565b95505b60048801545b868110156125db578481101561235057604051634fe264fb60e01b8152600481018e9052602481018d9052604481018290526001600160a01b03891690634fe264fb9060640160206040518083038186803b158015611fba57600080fd5b505afa158015611fce573d6000803e3d6000fd5b505050506040513d601f19601f82011682018060405250810190611ff29190615bdc565b91506127108211156120045761271091505b60006127106120138482615b1c565b8b600101546120229190615cf5565b61202c9190615d2a565b90506120388188615cdd565b965089600601828154811061204f5761204f615b8f565b60009182526020808320909101546001600160a01b0316808352600b825260408084208f546001600160601b0316855260020190925290822080549196508392909161209c908490615b1c565b90915550508a546007805483926001600160601b03169081106120c1576120c1615b8f565b90600052602060002090600b0201600201546120dd9190615cdd565b6001600160a01b0385166000908152600b602090815260408083208f546001600160601b0316845260010190915290205410612171576001600160a01b0384166000908152600b602090815260408083208e546001600160601b0316845260010190915281205461214f908390615b1c565b8c5490915061216a9086906001600160601b03168385614a60565b50506121c2565b6001600160a01b0384166000908152600b602090815260408083208e546001600160601b03168452600101909152902054156121c2578a546121c09085906001600160601b0316600084614a60565b505b60405163ba66fde760e01b8152600481018f9052602481018e9052604481018390526001600160a01b038a169063ba66fde79060640160206040518083038186803b15801561221057600080fd5b505afa158015612224573d6000803e3d6000fd5b505050506040513d601f19601f820116820180604052508101906122489190615b33565b6122a1576000612257856128eb565b905060005b815181101561229e5761228b8683838151811061227b5761227b615b8f565b6020026020010151600080614a60565b508061229681615c51565b91505061225c565b50505b8d6001600160a01b0385167f24f45c2b08bbde8c837d70b67991ccb7660537cf749de21a940ae4858b681e196122d684615d3e565b60408051918252600060208301520160405180910390a36122f8600187615b1c565b82141561234a578461234a576000805460028c01546040516001600160a01b039092169281156108fc029290818181858888f1505060005461234893506001600160a01b0316915089905061507a565b505b506125c9565b6001600160a01b038816634fe264fb8e8e61236b8986615d5b565b6040516001600160e01b031960e086901b16815260048101939093526024830191909152604482015260640160206040518083038186803b1580156123af57600080fd5b505afa1580156123c3573d6000803e3d6000fd5b505050506040513d601f19601f820116820180604052508101906123e79190615bdc565b91506127108211156123f95761271091505b600689016124078683615d5b565b8154811061241757612417615b8f565b60009182526020909120015460018a01546001600160a01b03909116935061271090612444908490615cf5565b61244e9190615d2a565b6001600160a01b0384166000908152600b602090815260408083208e546001600160601b031684526002019091528120805490919061248e908490615b1c565b90915550506001600160a01b0383166000908152600b602090815260408083208d546001600160601b031684526001019091529020546124f6576000612710838b600101546124dd9190615cf5565b6124e79190615d2a565b90506124f3848261507a565b50505b600061271083612506878a615d2a565b6125109190615cf5565b61251a9190615d2a565b9050600061271084878d600201546125329190615d2a565b61253c9190615cf5565b6125469190615d2a565b9050612552858361507a565b506040516001600160a01b0386169082156108fc029083906000818181858888f19350505050508e856001600160a01b03167f24f45c2b08bbde8c837d70b67991ccb7660537cf749de21a940ae4858b681e1984846040516125be929190918252602082015260400190565b60405180910390a350505b806125d381615c51565b915050611f5c565b50848860050154146125ef57600588018590555b50505050600490930155505050505050565b6000600254600160a01b900460ff166001811115612621576126216156b5565b146126605760405162461bcd60e51b815260206004820152600f60248201526e10a9ba30b5b4b73390383430b9b29760891b6044820152606401610cf8565b6000600e54600183600f546126759190615cdd565b61267f9190615b1c565b1161268a57816126a5565b600f54600e5461269a9190615b1c565b6126a5906001615cdd565b9050600081600f546126b79190615cdd565b600f549091505b81811015612736576000818152600d60205260409020805460018201546002830154612706926001600160a01b03811692600160a01b9091046001600160601b031691614a60565b50506000818152600d6020526040812081815560018101829055600201558061272e81615c51565b9150506126be565b50600f555050565b6127466152f9565b60006007836001600160601b03168154811061276457612764615b8f565b60009182526020909120604080516080810191829052600b9093029091019250600683019060049082845b81548152602001906001019080831161278f575050505050915050919050565b6060600882815481106127c4576127c4615b8f565b906000526020600020906004020160010180548060200260200160405190810160405280929190818152602001828054801561281f57602002820191906000526020600020905b81548152602001906001019080831161280b575b50505050509050919050565b6000546001600160a01b031633146128555760405162461bcd60e51b8152600401610cf890615adf565b806007836001600160601b03168154811061287257612872615b8f565b90600052602060002090600b0201600001600c6101000a81548160ff021916908315150217905550816001600160601b0316600080516020615eab8339815191526040516128df906020808252600b908201526a68696464656e566f74657360a81b604082015260600190565b60405180910390a25050565b6001600160a01b0381166000908152600b602090815260409182902080548351818402810184019094528084526060939283018282801561281f57602002820191906000526020600020906000905b82829054906101000a90046001600160601b03166001600160601b0316815260200190600c0190602082600b0104928301926001038202915080841161293a575094979650505050505050565b600a818154811061299757600080fd5b60009182526020909120600490910201805460018201546002909201546001600160601b0382169350600160601b9091046001600160a01b03169160ff80821692610100909204169085565b600080600a83815481106129f9576129f9615b8f565b6000918252602082206003600490920201908101805491935090612a1f90600190615b1c565b81548110612a2f57612a2f615b8f565b600091825260208220845460078054938102909201945090916001600160601b03909116908110612a6257612a62615b8f565b90600052602060002090600b020190508060050154826003015410612b015782546001600160601b031660011415612aa3576001600160ff1b039350612b2e565b6003820154612ab3906002615cf5565b612abe906001615cdd565b81546007805490916001600160601b0316908110612ade57612ade615b8f565b90600052602060002090600b020160040154612afa9190615cf5565b9350612b2e565b6003820154612b11906002615cf5565b612b1c906001615cdd565b8160040154612b2b9190615cf5565b93505b505050919050565b6000546001600160a01b03163314612b605760405162461bcd60e51b8152600401610cf890615adf565b806007836001600160601b031681548110612b7d57612b7d615b8f565b90600052602060002090600b020160040181905550816001600160601b0316600080516020615eab8339815191526040516128df906020808252600b908201526a3332b2a337b9253ab937b960a91b604082015260600190565b6000546001600160a01b03163314612c015760405162461bcd60e51b8152600401610cf890615adf565b6001600160601b03821660011480612c74575080600780846001600160601b031681548110612c3257612c32615b8f565b60009182526020909120600b909102015481546001600160601b03909116908110612c5f57612c5f615b8f565b90600052602060002090600b02016002015411155b612c905760405162461bcd60e51b8152600401610cf890615d6f565b60005b6007836001600160601b031681548110612caf57612caf615b8f565b90600052602060002090600b020160010180549050811015612d685781600780856001600160601b031681548110612ce957612ce9615b8f565b90600052602060002090600b02016001018381548110612d0b57612d0b615b8f565b906000526020600020015481548110612d2657612d26615b8f565b90600052602060002090600b0201600201541015612d565760405162461bcd60e51b8152600401610cf890615d6f565b80612d6081615c51565b915050612c93565b50806007836001600160601b031681548110612d8657612d86615b8f565b90600052602060002090600b020160020181905550816001600160601b0316600080516020615eab8339815191526040516128df906020808252600890820152676d696e5374616b6560c01b604082015260600190565b6000546001600160a01b03163314612e075760405162461bcd60e51b8152600401610cf890615adf565b6000836001600160a01b03168383604051612e229190615dd0565b60006040518083038185875af1925050503d8060008114612e5f576040519150601f19603f3d011682016040523d82523d6000602084013e612e64565b606091505b5050905080612ea95760405162461bcd60e51b8152602060048201526011602482015270155b9cdd58d8d95cdcd99d5b0818d85b1b607a1b6044820152606401610cf8565b50505050565b612ebc3383836000614a60565b612ef95760405162461bcd60e51b815260206004820152600e60248201526d14dd185ada5b99c819985a5b195960921b6044820152606401610cf8565b5050565b6000546001600160a01b03163314612f275760405162461bcd60e51b8152600401610cf890615adf565b600355565b6000546001600160a01b03163314612f565760405162461bcd60e51b8152600401610cf890615adf565b8660078a6001600160601b031681548110612f7357612f73615b8f565b90600052602060002090600b0201600201541115612fa35760405162461bcd60e51b8152600401610cf890615d6f565b6000815111612fe45760405162461bcd60e51b815260206004820152600d60248201526c21537570706f7274656420444b60981b6044820152606401610cf8565b6001600160601b03891661303a5760405162461bcd60e51b815260206004820181905260248201527f496e76616c69643a20466f726b696e6720636f75727420617320706172656e746044820152606401610cf8565b60078054600181018255600091825290600b82027fa66cc928b5edb82af9bd49922954155ab7b0942694bea4ce44661d9a8736c68801905b835181101561313657600084828151811061308f5761308f615b8f565b60200260200101511180156130c0575060085484518590839081106130b6576130b6615b8f565b6020026020010151105b6130dc5760405162461bcd60e51b8152600401610cf890615c29565b600182600a0160008684815181106130f6576130f6615b8f565b6020026020010151815260200190815260200160002060006101000a81548160ff021916908315150217905550808061312e90615c51565b915050613072565b5080546001600160601b0319166001600160601b038c16178155604080516000815260208101918290525161316f916001840191615317565b50805460ff60601b1916600160601b8b15150217815560028101899055600381018890556004808201889055600582018790556131b29060068301908790615362565b5060405163de0fe69d60e01b8152600c6004820152602481018390526044810185905273__$e61a6600819b973e3ecb2d058aa03f20a8$__9063de0fe69d9060640160006040518083038186803b15801561320c57600080fd5b505af4158015613220573d6000803e3d6000fd5b5050505060078b6001600160601b03168154811061324057613240615b8f565b600091825260208083206001600b909302018201805492830181558352909120018290556040516001600160601b038c169083907fc580509bcead0c8c5066804fbadb737e0b19c8860c518df0883469001effab10906132af908e908e908e908e908e908e908e908e90615dec565b60405180910390a35050505050505050505050565b6000806000806060600080600a89815481106132e2576132e2615b8f565b9060005260206000209060040201600301888154811061330457613304615b8f565b9060005260206000209060070201905080600101548160020154826004015483600501548460060185600001548180548060200260200160405190810160405280929190818152602001828054801561338657602002820191906000526020600020905b81546001600160a01b03168152600190910190602001808311613368575b50505050509150965096509650965096509650509295509295509295565b6000600a82815481106133b9576133b9615b8f565b600091825260209091206004918202019150600182015460ff1660048111156133e4576133e46156b5565b146134015760405162461bcd60e51b8152600401610cf890615cb2565b6001810154610100900460ff16156134555760405162461bcd60e51b8152602060048201526017602482015276149d5b1a5b99c8185b1c9958591e48195e1958dd5d1959604a1b6044820152606401610cf8565b600061346083611c1b565b505060018301805461010061ff001990911617905582546040518281529192508491600160601b9091046001600160a01b0316907f394027a5fa6e098a1191094d1719d6929b9abc535fcc0c8f448d6a4e756222769060200160405180910390a3815460405163188d362b60e11b81526004810185905260248101839052600160601b9091046001600160a01b03169063311a6c5690604401600060405180830381600087803b15801561351357600080fd5b505af1158015613527573d6000803e3d6000fd5b50505050505050565b6009818154811061354057600080fd5b600091825260209091200154905081565b6000546001600160a01b0316331461357b5760405162461bcd60e51b8152600401610cf890615adf565b806007836001600160601b03168154811061359857613598615b8f565b90600052602060002090600b020160030181905550816001600160601b0316600080516020615eab8339815191526040516128df90602080825260059082015264616c70686160d81b604082015260600190565b6000546001600160a01b031633146136165760405162461bcd60e51b8152600401610cf890615adf565b806007836001600160601b03168154811061363357613633615b8f565b90600052602060002090600b020160050181905550816001600160601b0316600080516020615eab8339815191526040516128df9060208082526012908201527106a75726f7273466f72436f7572744a756d760741b604082015260600190565b6000806000600a84815481106136ac576136ac615b8f565b6000918252602090912060049091020190506003600182015460ff1660048111156136d9576136d96156b5565b1415613732576002810154815460078054929550916001600160601b0390911690811061370857613708615b8f565b600091825260209091206009600b909202010154600282015461372b9190615cdd565b915061373b565b60009250600091505b50915091565b6000546001600160a01b0316331461376b5760405162461bcd60e51b8152600401610cf890615adf565b600455565b6000546001600160a01b0316331461379a5760405162461bcd60e51b8152600401610cf890615adf565b806007836001600160601b0316815481106137b7576137b7615b8f565b90600052602060002090600b02016006019060046137d6929190615362565b50816001600160601b0316600080516020615eab8339815191526040516128df906020808252600e908201526d1d1a5b595cd4195c94195c9a5bd960921b604082015260600190565b60006001600254600160a01b900460ff166001811115613841576138416156b5565b14801561385c57506004546005546138599042615b1c565b10155b905090565b600061386c8261490d565b3410156138bb5760405162461bcd60e51b815260206004820181905260248201527f45544820746f6f206c6f7720666f72206172626974726174696f6e20636f73746044820152606401610cf8565b6000806138c78461514f565b92505091506007826001600160601b0316815481106138e8576138e8615b8f565b60009182526020808320848452600a600b90930201919091019052604090205460ff166139515760405162461bcd60e51b81526020600482015260176024820152761112c81d5b9cdd5c1c1bdc9d195908189e4818dbdd5c9d604a1b6044820152606401610cf8565b600a80546001810182556000918252600160601b33026001600160601b03851617600482027fc65a7bb8d6351c1cf70c95a316cc6a92839c986682d98bc35f958f4883f9d2a88101918255427fc65a7bb8d6351c1cf70c95a316cc6a92839c986682d98bc35f958f4883f9d2aa9091015560088054929650909291849081106139dc576139dc615b8f565b600091825260208220600260049092020101548354600780546001600160a01b039093169450916001600160601b03909116908110613a1d57613a1d615b8f565b60009182526020808320600387018054600181018255908552919093206004600b9093029093019182015491935060070290910190613a5c9034615d2a565b600380830191909155858255820154600283015461271091613a7d91615cf5565b613a879190615d2a565b60018201553460028201556008805486908110613aa657613aa6615b8f565b906000526020600020906004020160020160149054906101000a900460ff16613b3d57600160088681548110613ade57613ade615b8f565b6000918252602082206002600490920201018054921515600160a01b0260ff60a01b19909316929092179091556009805460018101825591527f6e1540171b6c0c960b71a7020d9f60077f6af931a8bbf590da0223dacf75c7af018590555b60038101546040516302dbb79560e61b81526001600160a01b0385169163b6ede54091613b72918b918e918e91600401615e44565b600060405180830381600087803b158015613b8c57600080fd5b505af1158015613ba0573d6000803e3d6000fd5b50506040513392508991507f141dfc18aa6a56fc816f44f0e9e2f1ebc92b15ab167770e17db5b084c10ed99590600090a350505050505092915050565b6000546001600160a01b03163314613c075760405162461bcd60e51b8152600401610cf890615adf565b600280546001600160a01b0319166001600160a01b0392909216919091179055565b613c32836129e3565b341015613c815760405162461bcd60e51b815260206004820152601b60248201527f45544820746f6f206c6f7720666f722061707065616c20636f737400000000006044820152606401610cf8565b6000600a8481548110613c9657613c96615b8f565b6000918252602090912060049091020190506003600182015460ff166004811115613cc357613cc36156b5565b14613d095760405162461bcd60e51b815260206004820152601660248201527544697370757465206e6f742061707065616c61626c6560501b6044820152606401610cf8565b60038101805460009190613d1f90600190615b1c565b81548110613d2f57613d2f615b8f565b906000526020600020906007020190506008816000015481548110613d5657613d56615b8f565b60009182526020909120600490910201600201546001600160a01b03163314613db45760405162461bcd60e51b815260206004820152601060248201526f44697370757465204b6974206f6e6c7960801b6044820152606401610cf8565b8154815460038401805460018101825560009182526020909120600780546001600160601b03909516949281029091019184908110613df557613df5615b8f565b90600052602060002090600b020160050154846003015410613ff9576007836001600160601b031681548110613e2d57613e2d615b8f565b600091825260208220600b90910201546001600160601b031693505b600a811015613f3e576007846001600160601b031681548110613e6e57613e6e615b8f565b60009182526020808320868452600a600b90930201919091019052604090205460ff1615613e9b57613f3e565b600060088481548110613eb057613eb0615b8f565b90600052602060002090600402016000015414613ef35760088381548110613eda57613eda615b8f565b9060005260206000209060040201600001549250613f2c565b6007846001600160601b031681548110613f0f57613f0f615b8f565b60009182526020909120600b90910201546001600160601b031693505b80613f3681615c51565b915050613e49565b506007836001600160601b031681548110613f5b57613f5b615b8f565b60009182526020808320858452600a600b90930201919091019052604090205460ff16613f8757600192505b84546001600160601b03848116911614613ff957845460038601546001600160601b0390911690613fba90600190615b1c565b6040516001600160601b03861681528a907f736e3f52761298c8c0823e1ebf482ed3c5ecb304f743d2d91a7c006e8e8d7a1f9060200160405180910390a45b84546001600160601b0319166001600160601b038416908117865560018601805460ff191690554260028701556007805460009290811061403c5761403c615b8f565b90600052602060002090600b0201905080600401543461405c9190615d2a565b82600301819055506127108160030154826002015461407b9190615cf5565b6140859190615d2a565b600183015534600283015582825560088054849081106140a7576140a7615b8f565b906000526020600020906004020160020160149054906101000a900460ff1661413e576001600884815481106140df576140df615b8f565b6000918252602082206002600490920201018054921515600160a01b0260ff60a01b19909316929092179091556009805460018101825591527f6e1540171b6c0c960b71a7020d9f60077f6af931a8bbf590da0223dacf75c7af018390555b8454825414614224578454600387015461415a90600190615b1c565b83546040519081528b907fcbe7939a71f0b369c7471d760a0a99b60b7bb010ee0406cba8a46679d1ea77569060200160405180910390a460088260000154815481106141a8576141a8615b8f565b600091825260209091206004918202016002015460038401546040516302dbb79560e61b81526001600160a01b039092169263b6ede540926141f1928e928e928e929101615e44565b600060405180830381600087803b15801561420b57600080fd5b505af115801561421f573d6000803e3d6000fd5b505050505b8554604051600160601b9091046001600160a01b0316908a907f9c9b64db9e130f48381bf697abf638e73117dbfbfd7a4484f2da3ba188f4187d90600090a3887f4e6f5cf43b95303e86aee81683df63992061723a829ee012db21dad388756b9160006040516142949190615c6c565b60405180910390a2505050505050505050565b600080600a83815481106142bd576142bd615b8f565b9060005260206000209060040201905080600301600182600301805490506142e59190615b1c565b815481106142f5576142f5615b8f565b906000526020600020906007020160030154915050919050565b6001600254600160a01b900460ff16600181111561432f5761432f6156b5565b1461436a5760405162461bcd60e51b815260206004820152600b60248201526a57726f6e6720706861736560a81b6044820152606401610cf8565b6000600a838154811061437f5761437f615b8f565b906000526020600020906004020190506000600182600301805490506143a59190615b1c565b905060008260030182815481106143be576143be615b8f565b6000918252602082206007909102019150600184015460ff1660048111156143e8576143e86156b5565b146144285760405162461bcd60e51b815260206004820152601060248201526f08515d9a59195b98d9481c195c9a5bd960821b6044820152606401610cf8565b6000600882600001548154811061444157614441615b8f565b60009182526020822060026004909202010154600684015460038501546001600160a01b03909216935091906144778884615cdd565b1115614487578360030154614491565b6144918783615cdd565b9050815b8181101561460557604051633b30414760e01b8152600481018a90526000906001600160a01b03861690633b30414790602401602060405180830381600087803b1580156144e257600080fd5b505af11580156144f6573d6000803e3d6000fd5b505050506040513d601f19601f8201168201806040525081019061451a9190615e8d565b90506001600160a01b038116156145f25760018601546001600160a01b0382166000908152600b602090815260408083208c546001600160601b0316845260020190915281208054909190614570908490615cdd565b909155505060068601546040805189815260208101929092528b916001600160a01b038416917f6119cf536152c11e0a9a6c22f3953ce4ecc93ee54fa72ffa326ffabded21509b910160405180910390a3600686018054600181018255600091825260209091200180546001600160a01b0319166001600160a01b0383161790555b50806145fd81615c51565b915050614495565b505050505050505050565b6060600980548060200260200160405190810160405280929190818152602001828054801561465e57602002820191906000526020600020905b81548152602001906001019080831161464a575b5050505050905090565b6000546001600160a01b031633146146925760405162461bcd60e51b8152600401610cf890615adf565b600080546001600160a01b0319166001600160a01b0392909216919091179055565b6000546001600160a01b031633146146de5760405162461bcd60e51b8152600401610cf890615adf565b60085480821061471a5760405162461bcd60e51b81526020600482015260076024820152660854185c995b9d60ca1b6044820152606401610cf8565b60008215614797576008838154811061473557614735615b8f565b90600052602060002090600402016003015460016147539190615cdd565b9050600a81106147975760405162461bcd60e51b815260206004820152600f60248201526e088cae0e8d040d8caeccad840dac2f608b1b6044820152606401610cf8565b6040805160a08101825284815281516000808252602080830185528084019283526001600160a01b038916948401949094526060830181905260808301859052600880546001810182559152825160049091027ff3f7a9fe364faab93b216da50a3214154f22a0a2b415b23a84c8169e8b636ee381019182559151805193949193614849937ff3f7a9fe364faab93b216da50a3214154f22a0a2b415b23a84c8169e8b636ee401929190910190615317565b50604082015160028201805460608501511515600160a01b026001600160a81b03199091166001600160a01b039093169290921791909117905560809091015160039091015560088054849081106148a3576148a3615b8f565b600091825260208083206001600490930201820180549283018155835282200183905560405184916001600160a01b0387169185917f7921860794ac14fda09ee75f7160a5a3d266e3352f7954d0401606a92a26c49891a482612ea957612ea960018360016149d8565b600080600061491b8461514f565b5091509150806007836001600160601b03168154811061493d5761493d615b8f565b90600052602060002090600b0201600401546149599190615cf5565b949350505050565b6000600a828154811061497657614976615b8f565b600091825260209091206003600490920201015492915050565b60006007836001600160601b0316815481106149ae576149ae615b8f565b60009182526020808320948352600b91909102909301600a0190925250604090205460ff16919050565b806007846001600160601b0316815481106149f5576149f5615b8f565b60009182526020808320868452600b92909202909101600a0190526040808220805460ff19169315159390931790925590518215159184916001600160601b038716917fb47629acdf64971062d40984f77d3dee212d735b11e3e8c7a4222d9f0572cc7991a4505050565b60006001600160601b0384161580614a8257506007546001600160601b038516115b15614a8f57506000614959565b6001600160a01b0385166000908152600b6020526040812090614ab287876151d3565b604051630b8ea8ad60e41b8152600c60048201526001600160601b03881660248201526044810182905290915060009073__$e61a6600819b973e3ecb2d058aa03f20a8$__9063b8ea8ad09060640160206040518083038186803b158015614b1957600080fd5b505af4158015614b2d573d6000803e3d6000fd5b505050506040513d601f19601f82011682018060405250810190614b519190615bdc565b90508515614bdf576007876001600160601b031681548110614b7557614b75615b8f565b90600052602060002090600b020160020154861080614bad57506001600160601b038716600090815260028401602052604090205486105b15614bbe5760009350505050614959565b80158015614bce57508254600411155b15614bdf5760009350505050614959565b6000600254600160a01b900460ff166001811115614bff57614bff6156b5565b14614cab576040518060800160405280896001600160a01b03168152602001886001600160601b0316815260200187815260200186815250600d6000600e60008154614c4a90615c51565b9182905550815260208082019290925260409081016000208351928401516001600160601b0316600160a01b026001600160a01b03909316929092178255820151600180830191909155606090920151600290910155935061495992505050565b6000818710614d2857614cbe8288615b1c565b90508015614d1657614cd189308361521b565b15614d1b5781614d16578354600180820186556000868152602090206002830401805491909216600c026101000a6001600160601b0381810219909216918b16021790555b614efd565b6000945050505050614959565b86614ec5576001600160601b03881660009081526002850160205260409020548690614d549084615b1c565b614d5e9190615b1c565b90508015614d1657614d70898261507a565b15614d1b5760005b8454811015614ebf57886001600160601b0316856000018281548110614da057614da0615b8f565b600091825260209091206002820401546001909116600c026101000a90046001600160601b03161415614ead5784548590614ddd90600190615b1c565b81548110614ded57614ded615b8f565b9060005260206000209060029182820401919006600c029054906101000a90046001600160601b0316856000018281548110614e2b57614e2b615b8f565b9060005260206000209060029182820401919006600c026101000a8154816001600160601b0302191690836001600160601b0316021790555084600001805480614e7757614e77615bf5565b60008281526020902060026000199092019182040180546001600160601b03600c60018516026101000a02191690559055614ebf565b80614eb781615c51565b915050614d78565b50614efd565b85614ed08884615b1c565b614eda9190615b1c565b90508015614efd57614eec898261507a565b614efd576000945050505050614959565b6001600160601b03881660009081526001850160205260408120548890614f25908590615b1c565b614f2f9190615cdd565b6001600160601b038a16600081815260018801602052604081208390559192505b81615013576040516314955f6d60e21b8152600c600482015260248101829052604481018b90526064810187905273__$e61a6600819b973e3ecb2d058aa03f20a8$__906352557db49060840160006040518083038186803b158015614fb557600080fd5b505af4158015614fc9573d6000803e3d6000fd5b505050506001811415614fdf5760019150614f50565b60078181548110614ff257614ff2615b8f565b60009182526020909120600b90910201546001600160601b03169050614f50565b604080516001600160601b038d168152602081018c90529081018490526001600160a01b038d16907f70ca4ec64687bf265f39041896f3dbf10b9f650503cb38f2b3569fdce7489c369060600160405180910390a25060019b9a5050505050505050505050565b600154604080516001600160a01b038581166024830152604480830186905283518084039091018152606490920183526020820180516001600160e01b031663a9059cbb60e01b1790529151600093849384939116916150da9190615dd0565b6000604051808303816000865af19150503d8060008114615117576040519150601f19603f3d011682016040523d82523d6000602084013e61511c565b606091505b50915091508180156151465750805115806151465750808060200190518101906151469190615b33565b95945050505050565b600080600060408451106151c1575050506020810151604082015160608301516001600160601b038316158061519057506007546001600160601b03841610155b1561519a57600192505b816151a457600391505b8015806151b357506008548110155b156151bc575060015b6151cc565b506001915060039050815b9193909250565b600060405160005b60148110156151f6578481600c011a818301536001016151db565b5060145b60208110156152125783811a818301536001016151fa565b50519392505050565b600154604080516001600160a01b0386811660248301528581166044830152606480830186905283518084039091018152608490920183526020820180516001600160e01b03166323b872dd60e01b1790529151600093849384939116916152839190615dd0565b6000604051808303816000865af19150503d80600081146152c0576040519150601f19603f3d011682016040523d82523d6000602084013e6152c5565b606091505b50915091508180156152ef5750805115806152ef5750808060200190518101906152ef9190615b33565b9695505050505050565b60405180608001604052806004906020820280368337509192915050565b828054828255906000526020600020908101928215615352579160200282015b82811115615352578251825591602001919060010190615337565b5061535e92915061538f565b5090565b82600481019282156153525791602002820182811115615352578251825591602001919060010190615337565b5b8082111561535e5760008155600101615390565b6001600160a01b03811681146153b957600080fd5b50565b6000602082840312156153ce57600080fd5b81356153d9816153a4565b9392505050565b80356001600160601b03811681146153f757600080fd5b919050565b634e487b7160e01b600052604160045260246000fd5b604051601f8201601f191681016001600160401b038111828210171561543a5761543a6153fc565b604052919050565b600082601f83011261545357600080fd5b813560206001600160401b0382111561546e5761546e6153fc565b8160051b61547d828201615412565b928352848101820192828101908785111561549757600080fd5b83870192505b848310156154b65782358252918301919083019061549d565b979650505050505050565b80151581146153b957600080fd5b6000806000606084860312156154e457600080fd5b6154ed846153e0565b925060208401356001600160401b0381111561550857600080fd5b61551486828701615442565b9250506040840135615525816154c1565b809150509250925092565b60006020828403121561554257600080fd5b5035919050565b6000806040838503121561555c57600080fd5b50508035926020909101359150565b60008060006060848603121561558057600080fd5b505081359360208301359350604090920135919050565b6000602082840312156155a957600080fd5b6153d9826153e0565b8060005b6004811015612ea95781518452602093840193909101906001016155b6565b60808101611db882846155b2565b600081518084526020808501945080840160005b83811015615613578151875295820195908201906001016155f7565b509495945050505050565b6020815260006153d960208301846155e3565b6000806040838503121561564457600080fd5b61564d836153e0565b9150602083013561565d816154c1565b809150509250929050565b6020808252825182820181905260009190848201906040850190845b818110156156a95783516001600160601b031683529284019291840191600101615684565b50909695505050505050565b634e487b7160e01b600052602160045260246000fd5b600581106156db576156db6156b5565b9052565b6001600160601b03861681526001600160a01b038516602082015260a0810161570b60408301866156cb565b9215156060820152608001529392505050565b6000806040838503121561573157600080fd5b61573a836153e0565b946020939093013593505050565b600082601f83011261575957600080fd5b81356001600160401b03811115615772576157726153fc565b615785601f8201601f1916602001615412565b81815284602083860101111561579a57600080fd5b816020850160208301376000918101602001919091529392505050565b6000806000606084860312156157cc57600080fd5b83356157d7816153a4565b92506020840135915060408401356001600160401b038111156157f957600080fd5b61580586828701615748565b9150509250925092565b600082601f83011261582057600080fd5b604051608081018181106001600160401b0382111715615842576158426153fc565b60405280608084018581111561585757600080fd5b845b81811015615871578035835260209283019201615859565b509195945050505050565b60008060008060008060008060006101808a8c03121561589b57600080fd5b6158a48a6153e0565b985060208a01356158b4816154c1565b975060408a0135965060608a0135955060808a0135945060a08a013593506158df8b60c08c0161580f565b92506101408a013591506101608a01356001600160401b0381111561590357600080fd5b61590f8c828d01615442565b9150509295985092959850929598565b600060c082018883526020888185015287604085015286606085015260c0608085015281865180845260e086019150828801935060005b8181101561597b5784516001600160a01b031683529383019391830191600101615956565b50508093505050508260a0830152979650505050505050565b60208101600283106159a8576159a86156b5565b91905290565b60008060a083850312156159c157600080fd5b6159ca836153e0565b91506159d9846020850161580f565b90509250929050565b600080604083850312156159f557600080fd5b8235915060208301356001600160401b03811115615a1257600080fd5b615a1e85828601615748565b9150509250929050565b600080600060608486031215615a3d57600080fd5b833592506020840135915060408401356001600160401b038111156157f957600080fd5b60008060408385031215615a7457600080fd5b8235615a7f816153a4565b91506159d9602084016153e0565b60008060408385031215615aa057600080fd5b823561573a816153a4565b600060208284031215615abd57600080fd5b81356001600160401b03811115615ad357600080fd5b61495984828501615748565b6020808252600d908201526c476f7665726e6f72206f6e6c7960981b604082015260600190565b634e487b7160e01b600052601160045260246000fd5b600082821015615b2e57615b2e615b06565b500390565b600060208284031215615b4557600080fd5b81516153d9816154c1565b60008083128015600160ff1b850184121615615b6e57615b6e615b06565b6001600160ff1b0384018313811615615b8957615b89615b06565b50500390565b634e487b7160e01b600052603260045260246000fd5b6020808252601e908201527f536f6d6520444b206e6f7420696e205265736f6c76696e672070686173650000604082015260600190565b600060208284031215615bee57600080fd5b5051919050565b634e487b7160e01b600052603160045260246000fd5b6000600160ff1b821415615c2157615c21615b06565b506000190190565b6020808252600e908201526d0aee4dedcce40889640d2dcc8caf60931b604082015260600190565b6000600019821415615c6557615c65615b06565b5060010190565b60208101611db882846156cb565b600080600060608486031215615c8f57600080fd5b835192506020840151615ca1816154c1565b6040850151909250615525816154c1565b60208082526011908201527008515e1958dd5d1a5bdb881c195c9a5bd9607a1b604082015260600190565b60008219821115615cf057615cf0615b06565b500190565b6000816000190483118215151615615d0f57615d0f615b06565b500290565b634e487b7160e01b600052601260045260246000fd5b600082615d3957615d39615d14565b500490565b6000600160ff1b821415615d5457615d54615b06565b5060000390565b600082615d6a57615d6a615d14565b500690565b6020808252818101527f4d696e5374616b65206c6f776572207468616e20706172656e7420636f757274604082015260600190565b60005b83811015615dbf578181015183820152602001615da7565b83811115612ea95750506000910152565b60008251615de2818460208701615da4565b9190910192915050565b60006101608a15158352896020840152886040840152876060840152866080840152615e1b60a08401876155b2565b8461012084015280610140840152615e35818401856155e3565b9b9a5050505050505050505050565b8481528360208201526080604082015260008351806080840152615e6f8160a0850160208801615da4565b606083019390935250601f91909101601f19160160a0019392505050565b600060208284031215615e9f57600080fd5b81516153d9816153a456fee83e0a05baa75e68db64db7387055029be50c8d8de00a3e3e56978509b9bc2dea2646970667358221220222902153881fcc32a573ebff21d26b0f46dab0fc92553713dac75545ed01ae964736f6c63430008090033",
  "libraries": {
    "SortitionSumTreeFactoryV2": "0x678E676fd0048da8c35d5B03fabB53a7beBf73A6"
  },
  "devdoc": {
    "kind": "dev",
    "methods": {
      "addNewDisputeKit(address,uint256)": {
        "details": "Add a new supported dispute kit module to the court.",
        "params": {
          "_disputeKitAddress": "The address of the dispute kit contract.",
          "_parent": "The ID of the parent dispute kit. It is left empty when root DK is created.  Note that the root DK must be supported by the general court."
        }
      },
      "appeal(uint256,uint256,bytes)": {
        "details": "Appeals the ruling of a specified dispute.  Note: Access restricted to the Dispute Kit for this `disputeID`.",
        "params": {
          "_disputeID": "The ID of the dispute.",
          "_extraData": "Extradata for the dispute. Can be required during court jump.",
          "_numberOfChoices": "Number of choices for the dispute. Can be required during court jump."
        }
      },
      "appealCost(uint256)": {
        "details": "Gets the cost of appealing a specified dispute.",
        "params": {
          "_disputeID": "The ID of the dispute."
        },
        "returns": {
          "cost": "The appeal cost."
        }
      },
      "appealPeriod(uint256)": {
        "details": "Gets the start and the end of a specified dispute's current appeal period.",
        "params": {
          "_disputeID": "The ID of the dispute."
        },
        "returns": {
          "end": "The end of the appeal period.",
          "start": "The start of the appeal period."
        }
      },
      "arbitrationCost(bytes)": {
        "details": "Gets the cost of arbitration in a specified court.",
        "params": {
          "_extraData": "Additional info about the dispute. We use it to pass the ID of the court to create the dispute in (first 32 bytes)  and the minimum number of jurors required (next 32 bytes)."
        },
        "returns": {
          "cost": "The arbitration cost."
        }
      },
      "changeCourtAlpha(uint96,uint256)": {
        "details": "Changes the `alpha` property value of a specified court.",
        "params": {
          "_alpha": "The new value for the `alpha` property value.",
          "_courtID": "The ID of the court."
        }
      },
      "changeCourtHiddenVotes(uint96,bool)": {
        "details": "Changes the `hiddenVotes` property value of a specified court.",
        "params": {
          "_courtID": "The ID of the court.",
          "_hiddenVotes": "The new value for the `hiddenVotes` property value."
        }
      },
      "changeCourtJurorFee(uint96,uint256)": {
        "details": "Changes the `feeForJuror` property value of a specified court.",
        "params": {
          "_courtID": "The ID of the court.",
          "_feeForJuror": "The new value for the `feeForJuror` property value."
        }
      },
      "changeCourtJurorsForJump(uint96,uint256)": {
        "details": "Changes the `jurorsForCourtJump` property value of a specified court.",
        "params": {
          "_courtID": "The ID of the court.",
          "_jurorsForCourtJump": "The new value for the `jurorsForCourtJump` property value."
        }
      },
      "changeCourtMinStake(uint96,uint256)": {
        "details": "Changes the `minStake` property value of a specified court. Don't set to a value lower than its parent's `minStake` property value.",
        "params": {
          "_courtID": "The ID of the court.",
          "_minStake": "The new value for the `minStake` property value."
        }
      },
      "changeCourtTimesPerPeriod(uint96,uint256[4])": {
        "details": "Changes the `timesPerPeriod` property value of a specified court.",
        "params": {
          "_courtID": "The ID of the court.",
          "_timesPerPeriod": "The new value for the `timesPerPeriod` property value."
        }
      },
      "changeGovernor(address)": {
        "details": "Changes the `governor` storage variable.",
        "params": {
          "_governor": "The new value for the `governor` storage variable."
        }
      },
      "changeJurorProsecutionModule(address)": {
        "details": "Changes the `jurorProsecutionModule` storage variable.",
        "params": {
          "_jurorProsecutionModule": "The new value for the `jurorProsecutionModule` storage variable."
        }
      },
      "changeMaxFreezingTime(uint256)": {
        "details": "Changes the `maxFreezingTime` storage variable.",
        "params": {
          "_maxFreezingTime": "The new value for the `maxFreezingTime` storage variable."
        }
      },
      "changeMinStakingTime(uint256)": {
        "details": "Changes the `minStakingTime` storage variable.",
        "params": {
          "_minStakingTime": "The new value for the `minStakingTime` storage variable."
        }
      },
      "changePinakion(address)": {
        "details": "Changes the `pinakion` storage variable.",
        "params": {
          "_pinakion": "The new value for the `pinakion` storage variable."
        }
      },
      "constructor": {
        "details": "Constructor.",
        "params": {
          "_courtParameters": "Numeric parameters of General court (minStake, alpha, feeForJuror and jurorsForCourtJump respectively).",
          "_disputeKit": "The address of the default dispute kit.",
          "_governor": "The governor's address.",
          "_hiddenVotes": "The `hiddenVotes` property value of the general court.",
          "_jurorProsecutionModule": "The address of the juror prosecution module.",
          "_phaseTimeouts": "minStakingTime and maxFreezingTime respectively",
          "_pinakion": "The address of the token contract.",
          "_sortitionSumTreeK": "The number of children per node of the general court's sortition sum tree.",
          "_timesPerPeriod": "The `timesPerPeriod` property value of the general court."
        }
      },
      "createCourt(uint96,bool,uint256,uint256,uint256,uint256,uint256[4],uint256,uint256[])": {
        "details": "Creates a court under a specified parent court.",
        "params": {
          "_alpha": "The `alpha` property value of the court.",
          "_feeForJuror": "The `feeForJuror` property value of the court.",
          "_hiddenVotes": "The `hiddenVotes` property value of the court.",
          "_jurorsForCourtJump": "The `jurorsForCourtJump` property value of the court.",
          "_minStake": "The `minStake` property value of the court.",
          "_parent": "The `parent` property value of the court.",
          "_sortitionSumTreeK": "The number of children per node of the court's sortition sum tree.",
          "_supportedDisputeKits": "Indexes of dispute kits that this court will support.",
          "_timesPerPeriod": "The `timesPerPeriod` property value of the court."
        }
      },
      "createDispute(uint256,bytes)": {
        "details": "Creates a dispute. Must be called by the arbitrable contract.",
        "params": {
          "_extraData": "Additional info about the dispute. We use it to pass the ID of the dispute's court (first 32 bytes),  the minimum number of jurors required (next 32 bytes) and the ID of the specific dispute kit (last 32 bytes).",
          "_numberOfChoices": "Number of choices for the jurors to choose from."
        },
        "returns": {
          "disputeID": "The ID of the created dispute."
        }
      },
      "currentRuling(uint256)": {
        "details": "Gets the current ruling of a specified dispute.",
        "params": {
          "_disputeID": "The ID of the dispute."
        },
        "returns": {
          "overridden": "Whether the ruling was overridden by appeal funding or not.",
          "ruling": "The current ruling.",
          "tied": "Whether it's a tie or not."
        }
      },
      "draw(uint256,uint256)": {
        "details": "Draws jurors for the dispute. Can be called in parts.",
        "params": {
          "_disputeID": "The ID of the dispute.",
          "_iterations": "The number of iterations to run."
        }
      },
      "enableDisputeKits(uint96,uint256[],bool)": {
        "details": "Adds/removes court's support for specified dispute kits.",
        "params": {
          "_courtID": "The ID of the court.",
          "_disputeKitIDs": "The IDs of dispute kits which support should be added/removed.",
          "_enable": "Whether add or remove the dispute kits from the court."
        }
      },
      "execute(uint256,uint256,uint256)": {
        "details": "Distribute tokens and ETH for the specific round of the dispute. Can be called in parts.",
        "params": {
          "_disputeID": "The ID of the dispute.",
          "_iterations": "The number of iterations to run.",
          "_round": "The appeal round."
        }
      },
      "executeDelayedStakes(uint256)": {
        "details": "Executes the next delayed stakes.",
        "params": {
          "_iterations": "The number of delayed stakes to execute."
        }
      },
      "executeGovernorProposal(address,uint256,bytes)": {
        "details": "Allows the governor to call anything on behalf of the contract.",
        "params": {
          "_amount": "The value sent with the call.",
          "_data": "The data sent with the call.",
          "_destination": "The destination of the call."
        }
      },
      "executeRuling(uint256)": {
        "details": "Executes a specified dispute's ruling. UNTRUSTED.",
        "params": {
          "_disputeID": "The ID of the dispute."
        }
      },
      "getDisputeKitChildren(uint256)": {
        "details": "Gets non-primitive properties of a specified dispute kit node.",
        "params": {
          "_disputeKitID": "The ID of the dispute kit."
        },
        "returns": {
          "_0": "children Indexes of children of this DK."
        }
      },
      "getTimesPerPeriod(uint96)": {
        "details": "Gets the timesPerPeriod array for a given court.",
        "params": {
          "_courtID": "The ID of the court to get the times from."
        },
        "returns": {
          "timesPerPeriod": "The timesPerPeriod array for the given court."
        }
      },
      "isDisputeKitJumping(uint256)": {
        "details": "Returns true if the dispute kit will be switched to a parent DK.",
        "params": {
          "_disputeID": "The ID of the dispute."
        },
        "returns": {
          "_0": "Whether DK will be switched or not."
        }
      },
      "passPeriod(uint256)": {
        "details": "Passes the period of a specified dispute.",
        "params": {
          "_disputeID": "The ID of the dispute."
        }
      },
      "passPhase()": {
        "details": "Switches the phases between Staking and Freezing, also signal the switch to the dispute kits."
      },
      "setStake(uint96,uint256)": {
        "details": "Sets the caller's stake in a court.",
        "params": {
          "_courtID": "The ID of the court.",
          "_stake": "The new stake."
        }
      }
    },
    "title": "KlerosCore  Core arbitrator contract for Kleros v2.  Note that this contract trusts the token and the dispute kit contracts.",
    "version": 1
  },
  "userdoc": {
    "kind": "user",
    "methods": {},
    "version": 1
  },
  "storageLayout": {
    "storage": [
      {
        "astId": 1079,
        "contract": "src/arbitration/KlerosCore.sol:KlerosCore",
        "label": "governor",
        "offset": 0,
        "slot": "0",
        "type": "t_address"
      },
      {
        "astId": 1082,
        "contract": "src/arbitration/KlerosCore.sol:KlerosCore",
        "label": "pinakion",
        "offset": 0,
        "slot": "1",
        "type": "t_contract(IERC20)383"
      },
      {
        "astId": 1084,
        "contract": "src/arbitration/KlerosCore.sol:KlerosCore",
        "label": "jurorProsecutionModule",
        "offset": 0,
        "slot": "2",
        "type": "t_address"
      },
      {
        "astId": 1087,
        "contract": "src/arbitration/KlerosCore.sol:KlerosCore",
        "label": "phase",
        "offset": 20,
        "slot": "2",
        "type": "t_enum(Phase)946"
      },
      {
        "astId": 1089,
        "contract": "src/arbitration/KlerosCore.sol:KlerosCore",
        "label": "minStakingTime",
        "offset": 0,
        "slot": "3",
        "type": "t_uint256"
      },
      {
        "astId": 1091,
        "contract": "src/arbitration/KlerosCore.sol:KlerosCore",
        "label": "maxFreezingTime",
        "offset": 0,
        "slot": "4",
        "type": "t_uint256"
      },
      {
        "astId": 1093,
        "contract": "src/arbitration/KlerosCore.sol:KlerosCore",
        "label": "lastPhaseChange",
        "offset": 0,
        "slot": "5",
        "type": "t_uint256"
      },
      {
        "astId": 1095,
        "contract": "src/arbitration/KlerosCore.sol:KlerosCore",
        "label": "freezeBlock",
        "offset": 0,
        "slot": "6",
        "type": "t_uint256"
      },
      {
        "astId": 1099,
        "contract": "src/arbitration/KlerosCore.sol:KlerosCore",
        "label": "courts",
        "offset": 0,
        "slot": "7",
        "type": "t_array(t_struct(Court)976_storage)dyn_storage"
      },
      {
        "astId": 1103,
        "contract": "src/arbitration/KlerosCore.sol:KlerosCore",
        "label": "disputeKitNodes",
        "offset": 0,
        "slot": "8",
        "type": "t_array(t_struct(DisputeKitNode)1034_storage)dyn_storage"
      },
      {
        "astId": 1106,
        "contract": "src/arbitration/KlerosCore.sol:KlerosCore",
        "label": "disputesKitIDsThatNeedFreezing",
        "offset": 0,
        "slot": "9",
        "type": "t_array(t_uint256)dyn_storage"
      },
      {
        "astId": 1110,
        "contract": "src/arbitration/KlerosCore.sol:KlerosCore",
        "label": "disputes",
        "offset": 0,
        "slot": "10",
        "type": "t_array(t_struct(Dispute)993_storage)dyn_storage"
      },
      {
        "astId": 1115,
        "contract": "src/arbitration/KlerosCore.sol:KlerosCore",
        "label": "jurors",
        "offset": 0,
        "slot": "11",
        "type": "t_mapping(t_address,t_struct(Juror)1021_storage)"
      },
      {
        "astId": 1118,
        "contract": "src/arbitration/KlerosCore.sol:KlerosCore",
        "label": "sortitionSumTrees",
        "offset": 0,
        "slot": "12",
        "type": "t_struct(SortitionSumTrees)19483_storage"
      },
      {
        "astId": 1123,
        "contract": "src/arbitration/KlerosCore.sol:KlerosCore",
        "label": "delayedStakes",
        "offset": 0,
        "slot": "13",
        "type": "t_mapping(t_uint256,t_struct(DelayedStake)1043_storage)"
      },
      {
        "astId": 1125,
        "contract": "src/arbitration/KlerosCore.sol:KlerosCore",
        "label": "delayedStakeWriteIndex",
        "offset": 0,
        "slot": "14",
        "type": "t_uint256"
      },
      {
        "astId": 1128,
        "contract": "src/arbitration/KlerosCore.sol:KlerosCore",
        "label": "delayedStakeReadIndex",
        "offset": 0,
        "slot": "15",
        "type": "t_uint256"
      }
    ],
    "types": {
      "t_address": {
        "encoding": "inplace",
        "label": "address",
        "numberOfBytes": "20"
      },
      "t_array(t_address)dyn_storage": {
        "base": "t_address",
        "encoding": "dynamic_array",
        "label": "address[]",
        "numberOfBytes": "32"
      },
      "t_array(t_struct(Court)976_storage)dyn_storage": {
        "base": "t_struct(Court)976_storage",
        "encoding": "dynamic_array",
        "label": "struct KlerosCore.Court[]",
        "numberOfBytes": "32"
      },
      "t_array(t_struct(Dispute)993_storage)dyn_storage": {
        "base": "t_struct(Dispute)993_storage",
        "encoding": "dynamic_array",
        "label": "struct KlerosCore.Dispute[]",
        "numberOfBytes": "32"
      },
      "t_array(t_struct(DisputeKitNode)1034_storage)dyn_storage": {
        "base": "t_struct(DisputeKitNode)1034_storage",
        "encoding": "dynamic_array",
        "label": "struct KlerosCore.DisputeKitNode[]",
        "numberOfBytes": "32"
      },
      "t_array(t_struct(Round)1009_storage)dyn_storage": {
        "base": "t_struct(Round)1009_storage",
        "encoding": "dynamic_array",
        "label": "struct KlerosCore.Round[]",
        "numberOfBytes": "32"
      },
      "t_array(t_uint256)4_storage": {
        "base": "t_uint256",
        "encoding": "inplace",
        "label": "uint256[4]",
        "numberOfBytes": "128"
      },
      "t_array(t_uint256)dyn_storage": {
        "base": "t_uint256",
        "encoding": "dynamic_array",
        "label": "uint256[]",
        "numberOfBytes": "32"
      },
      "t_array(t_uint96)dyn_storage": {
        "base": "t_uint96",
        "encoding": "dynamic_array",
        "label": "uint96[]",
        "numberOfBytes": "32"
      },
      "t_bool": {
        "encoding": "inplace",
        "label": "bool",
        "numberOfBytes": "1"
      },
      "t_bytes32": {
        "encoding": "inplace",
        "label": "bytes32",
        "numberOfBytes": "32"
      },
      "t_contract(IArbitrable)736": {
        "encoding": "inplace",
        "label": "contract IArbitrable",
        "numberOfBytes": "20"
      },
      "t_contract(IDisputeKit)929": {
        "encoding": "inplace",
        "label": "contract IDisputeKit",
        "numberOfBytes": "20"
      },
      "t_contract(IERC20)383": {
        "encoding": "inplace",
        "label": "contract IERC20",
        "numberOfBytes": "20"
      },
      "t_enum(Period)952": {
        "encoding": "inplace",
        "label": "enum KlerosCore.Period",
        "numberOfBytes": "1"
      },
      "t_enum(Phase)946": {
        "encoding": "inplace",
        "label": "enum KlerosCore.Phase",
        "numberOfBytes": "1"
      },
      "t_mapping(t_address,t_struct(Juror)1021_storage)": {
        "encoding": "mapping",
        "key": "t_address",
        "label": "mapping(address => struct KlerosCore.Juror)",
        "numberOfBytes": "32",
        "value": "t_struct(Juror)1021_storage"
      },
      "t_mapping(t_bytes32,t_struct(SortitionSumTree)19477_storage)": {
        "encoding": "mapping",
        "key": "t_bytes32",
        "label": "mapping(bytes32 => struct SortitionSumTreeFactoryV2.SortitionSumTree)",
        "numberOfBytes": "32",
        "value": "t_struct(SortitionSumTree)19477_storage"
      },
      "t_mapping(t_bytes32,t_uint256)": {
        "encoding": "mapping",
        "key": "t_bytes32",
        "label": "mapping(bytes32 => uint256)",
        "numberOfBytes": "32",
        "value": "t_uint256"
      },
      "t_mapping(t_uint256,t_bool)": {
        "encoding": "mapping",
        "key": "t_uint256",
        "label": "mapping(uint256 => bool)",
        "numberOfBytes": "32",
        "value": "t_bool"
      },
      "t_mapping(t_uint256,t_bytes32)": {
        "encoding": "mapping",
        "key": "t_uint256",
        "label": "mapping(uint256 => bytes32)",
        "numberOfBytes": "32",
        "value": "t_bytes32"
      },
      "t_mapping(t_uint256,t_struct(DelayedStake)1043_storage)": {
        "encoding": "mapping",
        "key": "t_uint256",
        "label": "mapping(uint256 => struct KlerosCore.DelayedStake)",
        "numberOfBytes": "32",
        "value": "t_struct(DelayedStake)1043_storage"
      },
      "t_mapping(t_uint96,t_uint256)": {
        "encoding": "mapping",
        "key": "t_uint96",
        "label": "mapping(uint96 => uint256)",
        "numberOfBytes": "32",
        "value": "t_uint256"
      },
      "t_struct(Court)976_storage": {
        "encoding": "inplace",
        "label": "struct KlerosCore.Court",
        "members": [
          {
            "astId": 954,
            "contract": "src/arbitration/KlerosCore.sol:KlerosCore",
            "label": "parent",
            "offset": 0,
            "slot": "0",
            "type": "t_uint96"
          },
          {
            "astId": 956,
            "contract": "src/arbitration/KlerosCore.sol:KlerosCore",
            "label": "hiddenVotes",
            "offset": 12,
            "slot": "0",
            "type": "t_bool"
          },
          {
            "astId": 959,
            "contract": "src/arbitration/KlerosCore.sol:KlerosCore",
            "label": "children",
            "offset": 0,
            "slot": "1",
            "type": "t_array(t_uint256)dyn_storage"
          },
          {
            "astId": 961,
            "contract": "src/arbitration/KlerosCore.sol:KlerosCore",
            "label": "minStake",
            "offset": 0,
            "slot": "2",
            "type": "t_uint256"
          },
          {
            "astId": 963,
            "contract": "src/arbitration/KlerosCore.sol:KlerosCore",
            "label": "alpha",
            "offset": 0,
            "slot": "3",
            "type": "t_uint256"
          },
          {
            "astId": 965,
            "contract": "src/arbitration/KlerosCore.sol:KlerosCore",
            "label": "feeForJuror",
            "offset": 0,
            "slot": "4",
            "type": "t_uint256"
          },
          {
            "astId": 967,
            "contract": "src/arbitration/KlerosCore.sol:KlerosCore",
            "label": "jurorsForCourtJump",
            "offset": 0,
            "slot": "5",
            "type": "t_uint256"
          },
          {
            "astId": 971,
            "contract": "src/arbitration/KlerosCore.sol:KlerosCore",
            "label": "timesPerPeriod",
            "offset": 0,
            "slot": "6",
            "type": "t_array(t_uint256)4_storage"
          },
          {
            "astId": 975,
            "contract": "src/arbitration/KlerosCore.sol:KlerosCore",
            "label": "supportedDisputeKits",
            "offset": 0,
            "slot": "10",
            "type": "t_mapping(t_uint256,t_bool)"
          }
        ],
        "numberOfBytes": "352"
      },
      "t_struct(DelayedStake)1043_storage": {
        "encoding": "inplace",
        "label": "struct KlerosCore.DelayedStake",
        "members": [
          {
            "astId": 1036,
            "contract": "src/arbitration/KlerosCore.sol:KlerosCore",
            "label": "account",
            "offset": 0,
            "slot": "0",
            "type": "t_address"
          },
          {
            "astId": 1038,
            "contract": "src/arbitration/KlerosCore.sol:KlerosCore",
            "label": "courtID",
            "offset": 20,
            "slot": "0",
            "type": "t_uint96"
          },
          {
            "astId": 1040,
            "contract": "src/arbitration/KlerosCore.sol:KlerosCore",
            "label": "stake",
            "offset": 0,
            "slot": "1",
            "type": "t_uint256"
          },
          {
            "astId": 1042,
            "contract": "src/arbitration/KlerosCore.sol:KlerosCore",
            "label": "penalty",
            "offset": 0,
            "slot": "2",
            "type": "t_uint256"
          }
        ],
        "numberOfBytes": "96"
      },
      "t_struct(Dispute)993_storage": {
        "encoding": "inplace",
        "label": "struct KlerosCore.Dispute",
        "members": [
          {
            "astId": 978,
            "contract": "src/arbitration/KlerosCore.sol:KlerosCore",
            "label": "courtID",
            "offset": 0,
            "slot": "0",
            "type": "t_uint96"
          },
          {
            "astId": 981,
            "contract": "src/arbitration/KlerosCore.sol:KlerosCore",
            "label": "arbitrated",
            "offset": 12,
            "slot": "0",
            "type": "t_contract(IArbitrable)736"
          },
          {
            "astId": 984,
            "contract": "src/arbitration/KlerosCore.sol:KlerosCore",
            "label": "period",
            "offset": 0,
            "slot": "1",
            "type": "t_enum(Period)952"
          },
          {
            "astId": 986,
            "contract": "src/arbitration/KlerosCore.sol:KlerosCore",
            "label": "ruled",
            "offset": 1,
            "slot": "1",
            "type": "t_bool"
          },
          {
            "astId": 988,
            "contract": "src/arbitration/KlerosCore.sol:KlerosCore",
            "label": "lastPeriodChange",
            "offset": 0,
            "slot": "2",
            "type": "t_uint256"
          },
          {
            "astId": 992,
            "contract": "src/arbitration/KlerosCore.sol:KlerosCore",
            "label": "rounds",
            "offset": 0,
            "slot": "3",
            "type": "t_array(t_struct(Round)1009_storage)dyn_storage"
          }
        ],
        "numberOfBytes": "128"
      },
      "t_struct(DisputeKitNode)1034_storage": {
        "encoding": "inplace",
        "label": "struct KlerosCore.DisputeKitNode",
        "members": [
          {
            "astId": 1023,
            "contract": "src/arbitration/KlerosCore.sol:KlerosCore",
            "label": "parent",
            "offset": 0,
            "slot": "0",
            "type": "t_uint256"
          },
          {
            "astId": 1026,
            "contract": "src/arbitration/KlerosCore.sol:KlerosCore",
            "label": "children",
            "offset": 0,
            "slot": "1",
            "type": "t_array(t_uint256)dyn_storage"
          },
          {
            "astId": 1029,
            "contract": "src/arbitration/KlerosCore.sol:KlerosCore",
            "label": "disputeKit",
            "offset": 0,
            "slot": "2",
            "type": "t_contract(IDisputeKit)929"
          },
          {
            "astId": 1031,
            "contract": "src/arbitration/KlerosCore.sol:KlerosCore",
            "label": "needsFreezing",
            "offset": 20,
            "slot": "2",
            "type": "t_bool"
          },
          {
            "astId": 1033,
            "contract": "src/arbitration/KlerosCore.sol:KlerosCore",
            "label": "depthLevel",
            "offset": 0,
            "slot": "3",
            "type": "t_uint256"
          }
        ],
        "numberOfBytes": "128"
      },
      "t_struct(Juror)1021_storage": {
        "encoding": "inplace",
        "label": "struct KlerosCore.Juror",
        "members": [
          {
            "astId": 1012,
            "contract": "src/arbitration/KlerosCore.sol:KlerosCore",
            "label": "courtIDs",
            "offset": 0,
            "slot": "0",
            "type": "t_array(t_uint96)dyn_storage"
          },
          {
            "astId": 1016,
            "contract": "src/arbitration/KlerosCore.sol:KlerosCore",
            "label": "stakedTokens",
            "offset": 0,
            "slot": "1",
            "type": "t_mapping(t_uint96,t_uint256)"
          },
          {
            "astId": 1020,
            "contract": "src/arbitration/KlerosCore.sol:KlerosCore",
            "label": "lockedTokens",
            "offset": 0,
            "slot": "2",
            "type": "t_mapping(t_uint96,t_uint256)"
          }
        ],
        "numberOfBytes": "96"
      },
      "t_struct(Round)1009_storage": {
        "encoding": "inplace",
        "label": "struct KlerosCore.Round",
        "members": [
          {
            "astId": 995,
            "contract": "src/arbitration/KlerosCore.sol:KlerosCore",
            "label": "disputeKitID",
            "offset": 0,
            "slot": "0",
            "type": "t_uint256"
          },
          {
            "astId": 997,
            "contract": "src/arbitration/KlerosCore.sol:KlerosCore",
            "label": "tokensAtStakePerJuror",
            "offset": 0,
            "slot": "1",
            "type": "t_uint256"
          },
          {
            "astId": 999,
            "contract": "src/arbitration/KlerosCore.sol:KlerosCore",
            "label": "totalFeesForJurors",
            "offset": 0,
            "slot": "2",
            "type": "t_uint256"
          },
          {
            "astId": 1001,
            "contract": "src/arbitration/KlerosCore.sol:KlerosCore",
            "label": "nbVotes",
            "offset": 0,
            "slot": "3",
            "type": "t_uint256"
          },
          {
            "astId": 1003,
            "contract": "src/arbitration/KlerosCore.sol:KlerosCore",
            "label": "repartitions",
            "offset": 0,
            "slot": "4",
            "type": "t_uint256"
          },
          {
            "astId": 1005,
            "contract": "src/arbitration/KlerosCore.sol:KlerosCore",
            "label": "penalties",
            "offset": 0,
            "slot": "5",
            "type": "t_uint256"
          },
          {
            "astId": 1008,
            "contract": "src/arbitration/KlerosCore.sol:KlerosCore",
            "label": "drawnJurors",
            "offset": 0,
            "slot": "6",
            "type": "t_array(t_address)dyn_storage"
          }
        ],
        "numberOfBytes": "224"
      },
      "t_struct(SortitionSumTree)19477_storage": {
        "encoding": "inplace",
        "label": "struct SortitionSumTreeFactoryV2.SortitionSumTree",
        "members": [
          {
            "astId": 19462,
            "contract": "src/arbitration/KlerosCore.sol:KlerosCore",
            "label": "K",
            "offset": 0,
            "slot": "0",
            "type": "t_uint256"
          },
          {
            "astId": 19465,
            "contract": "src/arbitration/KlerosCore.sol:KlerosCore",
            "label": "stack",
            "offset": 0,
            "slot": "1",
            "type": "t_array(t_uint256)dyn_storage"
          },
          {
            "astId": 19468,
            "contract": "src/arbitration/KlerosCore.sol:KlerosCore",
            "label": "nodes",
            "offset": 0,
            "slot": "2",
            "type": "t_array(t_uint256)dyn_storage"
          },
          {
            "astId": 19472,
            "contract": "src/arbitration/KlerosCore.sol:KlerosCore",
            "label": "IDsToNodeIndexes",
            "offset": 0,
            "slot": "3",
            "type": "t_mapping(t_bytes32,t_uint256)"
          },
          {
            "astId": 19476,
            "contract": "src/arbitration/KlerosCore.sol:KlerosCore",
            "label": "nodeIndexesToIDs",
            "offset": 0,
            "slot": "4",
            "type": "t_mapping(t_uint256,t_bytes32)"
          }
        ],
        "numberOfBytes": "160"
      },
      "t_struct(SortitionSumTrees)19483_storage": {
        "encoding": "inplace",
        "label": "struct SortitionSumTreeFactoryV2.SortitionSumTrees",
        "members": [
          {
            "astId": 19482,
            "contract": "src/arbitration/KlerosCore.sol:KlerosCore",
            "label": "sortitionSumTrees",
            "offset": 0,
            "slot": "0",
            "type": "t_mapping(t_bytes32,t_struct(SortitionSumTree)19477_storage)"
          }
        ],
        "numberOfBytes": "32"
      },
      "t_uint256": {
        "encoding": "inplace",
        "label": "uint256",
        "numberOfBytes": "32"
      },
      "t_uint96": {
        "encoding": "inplace",
        "label": "uint96",
        "numberOfBytes": "12"
      }
    }
  }
}