{
  "address": "0xED503aBA65B28D81444294D1eAa5d84CeFdC2C58",
  "abi": [
    {
      "inputs": [
        {
          "internalType": "address",
          "name": "_governor",
          "type": "address"
        }
      ],
      "stateMutability": "nonpayable",
      "type": "constructor"
    },
    {
      "anonymous": false,
      "inputs": [
        {
          "indexed": true,
          "internalType": "uint256",
          "name": "_courtID",
          "type": "uint256"
        },
        {
          "indexed": false,
          "internalType": "string",
          "name": "_courtName",
          "type": "string"
        },
        {
          "indexed": false,
          "internalType": "string",
          "name": "_policy",
          "type": "string"
        }
      ],
      "name": "PolicyUpdate",
      "type": "event"
    },
    {
      "inputs": [
        {
          "internalType": "address",
          "name": "_governor",
          "type": "address"
        }
      ],
      "name": "changeGovernor",
      "outputs": [],
      "stateMutability": "nonpayable",
      "type": "function"
    },
    {
      "inputs": [],
      "name": "governor",
      "outputs": [
        {
          "internalType": "address",
          "name": "",
          "type": "address"
        }
      ],
      "stateMutability": "view",
      "type": "function"
    },
    {
      "inputs": [
        {
          "internalType": "uint256",
          "name": "",
          "type": "uint256"
        }
      ],
      "name": "policies",
      "outputs": [
        {
          "internalType": "string",
          "name": "",
          "type": "string"
        }
      ],
      "stateMutability": "view",
      "type": "function"
    },
    {
      "inputs": [
        {
          "internalType": "uint256",
          "name": "_courtID",
          "type": "uint256"
        },
        {
          "internalType": "string",
          "name": "_courtName",
          "type": "string"
        },
        {
          "internalType": "string",
          "name": "_policy",
          "type": "string"
        }
      ],
      "name": "setPolicy",
      "outputs": [],
      "stateMutability": "nonpayable",
      "type": "function"
    }
  ],
  "transactionHash": "0x7e21267b8cc60bcc9f642147f500c479452986830c0cc22bb32f78cf7eb6abfe",
  "args": [
    "0xF50E77f2A2B6138D16c6c7511562E5C33c4B15A3"
  ],
  "numDeployments": 2,
  "solcInputHash": "e839c2860a2bc794c3b8ff7bcdbfe1cc",
  "bytecode": "0x608060405234801561001057600080fd5b506040516106c13803806106c183398101604081905261002f91610054565b600080546001600160a01b0319166001600160a01b0392909216919091179055610084565b60006020828403121561006657600080fd5b81516001600160a01b038116811461007d57600080fd5b9392505050565b61062e806100936000396000f3fe608060405234801561001057600080fd5b506004361061004c5760003560e01c80630c340a2414610051578063bdf7378014610081578063d3e8948314610096578063e4c0aaf4146100b6575b600080fd5b600054610064906001600160a01b031681565b6040516001600160a01b0390911681526020015b60405180910390f35b61009461008f36600461029a565b6100c9565b005b6100a96100a4366004610314565b61016b565b604051610078919061032d565b6100946100c436600461037b565b610205565b6000546001600160a01b031633146100fc5760405162461bcd60e51b81526004016100f3906103ab565b60405180910390fd5b600085815260016020526040902061011582848361047d565b50847f61f7110245e82eddd3b134d1e1607420d4a4dcdab30f5abdbbc9c3485b5dd2a48585600160008a815260200190815260200160002060405161015c9392919061053e565b60405180910390a25050505050565b60016020526000908152604090208054610184906103f4565b80601f01602080910402602001604051908101604052809291908181526020018280546101b0906103f4565b80156101fd5780601f106101d2576101008083540402835291602001916101fd565b820191906000526020600020905b8154815290600101906020018083116101e057829003601f168201915b505050505081565b6000546001600160a01b0316331461022f5760405162461bcd60e51b81526004016100f3906103ab565b600080546001600160a01b0319166001600160a01b0392909216919091179055565b60008083601f84011261026357600080fd5b50813567ffffffffffffffff81111561027b57600080fd5b60208301915083602082850101111561029357600080fd5b9250929050565b6000806000806000606086880312156102b257600080fd5b85359450602086013567ffffffffffffffff808211156102d157600080fd5b6102dd89838a01610251565b909650945060408801359150808211156102f657600080fd5b5061030388828901610251565b969995985093965092949392505050565b60006020828403121561032657600080fd5b5035919050565b600060208083528351808285015260005b8181101561035a5785810183015185820160400152820161033e565b506000604082860101526040601f19601f8301168501019250505092915050565b60006020828403121561038d57600080fd5b81356001600160a01b03811681146103a457600080fd5b9392505050565b6020808252601990820152784e6f20616c6c6f7765643a20676f7665726e6f72206f6e6c7960381b604082015260600190565b634e487b7160e01b600052604160045260246000fd5b600181811c9082168061040857607f821691505b60208210810361042857634e487b7160e01b600052602260045260246000fd5b50919050565b601f82111561047857600081815260208120601f850160051c810160208610156104555750805b601f850160051c820191505b8181101561047457828155600101610461565b5050505b505050565b67ffffffffffffffff831115610495576104956103de565b6104a9836104a383546103f4565b8361042e565b6000601f8411600181146104dd57600085156104c55750838201355b600019600387901b1c1916600186901b178355610537565b600083815260209020601f19861690835b8281101561050e57868501358255602094850194600190920191016104ee565b508682101561052b5760001960f88860031b161c19848701351681555b505060018560011b0183555b5050505050565b60408152826040820152828460608301376000606084830101526000601f19601f85011682016020606084830301818501526000855461057d816103f4565b806060860152608060018084166000811461059f57600181146105b9576105e7565b60ff1985168884015283151560051b8801830195506105e7565b8a6000528660002060005b858110156105df5781548a82018601529083019088016105c4565b890184019650505b50939b9a505050505050505050505056fea2646970667358221220a4dac058028ef7ecc4ced2e25dae73973c26de9dd41dde251b2ce1d6b81c807a64736f6c63430008120033",
  "devdoc": {
    "author": "Enrique Piqueras - <epiquerass@gmail.com>",
    "details": "A contract to maintain a policy for each court.",
    "events": {
      "PolicyUpdate(uint256,string,string)": {
        "details": "Emitted when a policy is updated.",
        "params": {
          "_courtID": "The ID of the policy's court.",
          "_courtName": "The name of the policy's court.",
          "_policy": "The URI of the policy JSON."
        }
      }
    },
    "kind": "dev",
    "methods": {
      "changeGovernor(address)": {
        "details": "Changes the `governor` storage variable.",
        "params": {
          "_governor": "The new value for the `governor` storage variable."
        }
      },
      "constructor": {
        "details": "Constructs the `PolicyRegistry` contract.",
        "params": {
          "_governor": "The governor's address."
        }
      },
      "setPolicy(uint256,string,string)": {
        "details": "Sets the policy for the specified court.",
        "params": {
          "_courtID": "The ID of the specified court.",
          "_courtName": "The name of the specified court.",
          "_policy": "The URI of the policy JSON."
        }
      }
    },
    "title": "PolicyRegistry",
    "version": 1
  },
  "userdoc": {
    "kind": "user",
    "methods": {},
    "version": 1
  },
  "storageLayout": {
    "storage": [
      {
        "astId": 7959,
        "contract": "src/arbitration/PolicyRegistry.sol:PolicyRegistry",
        "label": "governor",
        "offset": 0,
        "slot": "0",
        "type": "t_address"
      },
      {
        "astId": 7963,
        "contract": "src/arbitration/PolicyRegistry.sol:PolicyRegistry",
        "label": "policies",
        "offset": 0,
        "slot": "1",
        "type": "t_mapping(t_uint256,t_string_storage)"
      }
    ],
    "types": {
      "t_address": {
        "encoding": "inplace",
        "label": "address",
        "numberOfBytes": "20"
      },
      "t_mapping(t_uint256,t_string_storage)": {
        "encoding": "mapping",
        "key": "t_uint256",
        "label": "mapping(uint256 => string)",
        "numberOfBytes": "32",
        "value": "t_string_storage"
      },
      "t_string_storage": {
        "encoding": "bytes",
        "label": "string",
        "numberOfBytes": "32"
      },
      "t_uint256": {
        "encoding": "inplace",
        "label": "uint256",
        "numberOfBytes": "32"
      }
    }
  }
}