{
  "address": "0xa2d1A3CDF0becEdb724e5A34De7022B6FF5e4787",
  "abi": [
    {
      "inputs": [
        {
          "internalType": "contract IRandomizer",
          "name": "_randomizer",
          "type": "address"
        },
        {
          "internalType": "address",
          "name": "_governor",
          "type": "address"
        }
      ],
      "stateMutability": "nonpayable",
      "type": "constructor"
    },
    {
      "inputs": [],
      "name": "callbackGasLimit",
      "outputs": [
        {
          "internalType": "uint256",
          "name": "",
          "type": "uint256"
        }
      ],
      "stateMutability": "view",
      "type": "function"
    },
    {
      "inputs": [
        {
          "internalType": "address",
          "name": "_governor",
          "type": "address"
        }
      ],
      "name": "changeGovernor",
      "outputs": [],
      "stateMutability": "nonpayable",
      "type": "function"
    },
    {
      "inputs": [],
      "name": "governor",
      "outputs": [
        {
          "internalType": "address",
          "name": "",
          "type": "address"
        }
      ],
      "stateMutability": "view",
      "type": "function"
    },
    {
      "inputs": [
        {
          "internalType": "uint256",
          "name": "",
          "type": "uint256"
        }
      ],
      "name": "randomNumbers",
      "outputs": [
        {
          "internalType": "uint256",
          "name": "",
          "type": "uint256"
        }
      ],
      "stateMutability": "view",
      "type": "function"
    },
    {
      "inputs": [],
      "name": "randomizer",
      "outputs": [
        {
          "internalType": "contract IRandomizer",
          "name": "",
          "type": "address"
        }
      ],
      "stateMutability": "view",
      "type": "function"
    },
    {
      "inputs": [
        {
          "internalType": "uint256",
          "name": "_id",
          "type": "uint256"
        },
        {
          "internalType": "bytes32",
          "name": "_value",
          "type": "bytes32"
        }
      ],
      "name": "randomizerCallback",
      "outputs": [],
      "stateMutability": "nonpayable",
      "type": "function"
    },
    {
      "inputs": [
        {
          "internalType": "uint256",
          "name": "_amount",
          "type": "uint256"
        }
      ],
      "name": "randomizerWithdraw",
      "outputs": [],
      "stateMutability": "nonpayable",
      "type": "function"
    },
    {
      "inputs": [
        {
          "internalType": "uint256",
          "name": "",
          "type": "uint256"
        }
      ],
      "name": "receiveRandomness",
      "outputs": [
        {
          "internalType": "uint256",
          "name": "randomNumber",
          "type": "uint256"
        }
      ],
      "stateMutability": "view",
      "type": "function"
    },
    {
      "inputs": [
        {
          "internalType": "uint256",
          "name": "",
          "type": "uint256"
        }
      ],
      "name": "requestRandomness",
      "outputs": [],
      "stateMutability": "nonpayable",
      "type": "function"
    },
    {
      "inputs": [
        {
          "internalType": "address",
          "name": "",
          "type": "address"
        }
      ],
      "name": "requesterToID",
      "outputs": [
        {
          "internalType": "uint256",
          "name": "",
          "type": "uint256"
        }
      ],
      "stateMutability": "view",
      "type": "function"
    },
    {
      "inputs": [
        {
          "internalType": "uint256",
          "name": "_callbackGasLimit",
          "type": "uint256"
        }
      ],
      "name": "setCallbackGasLimit",
      "outputs": [],
      "stateMutability": "nonpayable",
      "type": "function"
    },
    {
      "inputs": [
        {
          "internalType": "address",
          "name": "_randomizer",
          "type": "address"
        }
      ],
      "name": "setRandomizer",
      "outputs": [],
      "stateMutability": "nonpayable",
      "type": "function"
    }
  ],
  "transactionHash": "0x0f493fba00e47f23390427dcb97571f50c5b167e5668f38f57525f6b10221274",
  "args": [
    "0x57F7a8aA8291A04B325F3f0d2c4d03353d3Ef25f",
    "0xF50E77f2A2B6138D16c6c7511562E5C33c4B15A3"
  ],
  "numDeployments": 5,
  "solcInputHash": "86ef3911afc4fb1dc9daa46f19a1d3ba",
  "bytecode": "0x608060405261c35060015534801561001657600080fd5b506040516105f43803806105f48339810160408190526100359161007e565b600280546001600160a01b039384166001600160a01b031991821617909155600080549290931691161790556100b8565b6001600160a01b038116811461007b57600080fd5b50565b6000806040838503121561009157600080fd5b825161009c81610066565b60208401519092506100ad81610066565b809150509250929050565b61052d806100c76000396000f3fe608060405234801561001057600080fd5b50600436106100b45760003560e01c80637363ae1f116100715780637363ae1f14610184578063767bcab5146101975780638a54942f146101aa578063e4c0aaf4146101bd578063ebe93caf146101d0578063f10fb584146101e357600080fd5b80630c340a24146100b957806313cf9054146100e957806324f74697146101265780634e07c9391461012f5780635257cd901461014457806371d4b00b14610164575b600080fd5b6000546100cc906001600160a01b031681565b6040516001600160a01b0390911681526020015b60405180910390f35b6101186100f736600461044c565b50336000908152600460209081526040808320548352600390915290205490565b6040519081526020016100e0565b61011860015481565b61014261013d36600461044c565b6101f6565b005b61011861015236600461044c565b60036020526000908152604090205481565b610118610172366004610465565b60046020526000908152604090205481565b61014261019236600461044c565b610290565b6101426101a5366004610465565b610327565b6101426101b836600461044c565b610373565b6101426101cb366004610465565b6103a2565b6101426101de366004610495565b6103ee565b6002546100cc906001600160a01b031681565b6000546001600160a01b031633146102295760405162461bcd60e51b8152600401610220906104b7565b60405180910390fd5b600254604051632465f8f560e01b8152336004820152602481018390526001600160a01b0390911690632465f8f590604401600060405180830381600087803b15801561027557600080fd5b505af1158015610289573d6000803e3d6000fd5b5050505050565b60025460015460405163d845a4b360e01b815260048101919091526000916001600160a01b03169063d845a4b390602401602060405180830381600087803b1580156102db57600080fd5b505af11580156102ef573d6000803e3d6000fd5b505050506040513d601f19601f8201168201806040525081019061031391906104de565b336000908152600460205260409020555050565b6000546001600160a01b031633146103515760405162461bcd60e51b8152600401610220906104b7565b600280546001600160a01b0319166001600160a01b0392909216919091179055565b6000546001600160a01b0316331461039d5760405162461bcd60e51b8152600401610220906104b7565b600155565b6000546001600160a01b031633146103cc5760405162461bcd60e51b8152600401610220906104b7565b600080546001600160a01b0319166001600160a01b0392909216919091179055565b6002546001600160a01b0316331461043a5760405162461bcd60e51b815260206004820152600f60248201526e52616e646f6d697a6572206f6e6c7960881b6044820152606401610220565b60009182526003602052604090912055565b60006020828403121561045e57600080fd5b5035919050565b60006020828403121561047757600080fd5b81356001600160a01b038116811461048e57600080fd5b9392505050565b600080604083850312156104a857600080fd5b50508035926020909101359150565b6020808252600d908201526c476f7665726e6f72206f6e6c7960981b604082015260600190565b6000602082840312156104f057600080fd5b505191905056fea2646970667358221220239569f93492563147dac9c5bfcbcc6043df703346a964aed4ee07545ad93c2964736f6c63430008090033",
  "devdoc": {
    "kind": "dev",
    "methods": {
      "changeGovernor(address)": {
        "details": "Changes the governor of the contract.",
        "params": {
          "_governor": "The new governor."
        }
      },
      "constructor": {
        "details": "Constructor.",
        "params": {
          "_governor": "Governor of the contract.",
          "_randomizer": "Randomizer contract."
        }
      },
      "randomizerCallback(uint256,bytes32)": {
        "details": "Callback function called by the randomizer contract when the random value is generated."
      },
      "randomizerWithdraw(uint256)": {
        "details": "Allows the governor to withdraw randomizer funds.",
        "params": {
          "_amount": "Amount to withdraw in wei."
        }
      },
      "receiveRandomness(uint256)": {
        "details": "Return the random number.",
        "returns": {
          "randomNumber": "The random number or 0 if it is not ready or has not been requested."
        }
      },
      "requestRandomness(uint256)": {
        "details": "Request a random number. The id of the request is tied to the sender."
      },
      "setCallbackGasLimit(uint256)": {
        "details": "Change the Randomizer callback gas limit.",
        "params": {
          "_callbackGasLimit": "the new limit."
        }
      },
      "setRandomizer(address)": {
        "details": "Change the Randomizer address.",
        "params": {
          "_randomizer": "the new Randomizer address."
        }
      }
    },
    "title": "Random Number Generator that uses Randomizer.ai  https://randomizer.ai/",
    "version": 1
  },
  "userdoc": {
    "kind": "user",
    "methods": {},
    "version": 1
  },
  "storageLayout": {
    "storage": [
      {
        "astId": 23750,
        "contract": "src/rng/RandomizerRNG.sol:RandomizerRNG",
        "label": "governor",
        "offset": 0,
        "slot": "0",
        "type": "t_address"
      },
      {
        "astId": 23753,
        "contract": "src/rng/RandomizerRNG.sol:RandomizerRNG",
        "label": "callbackGasLimit",
        "offset": 0,
        "slot": "1",
        "type": "t_uint256"
      },
      {
        "astId": 23756,
        "contract": "src/rng/RandomizerRNG.sol:RandomizerRNG",
        "label": "randomizer",
        "offset": 0,
        "slot": "2",
        "type": "t_contract(IRandomizer)23684"
      },
      {
        "astId": 23760,
        "contract": "src/rng/RandomizerRNG.sol:RandomizerRNG",
        "label": "randomNumbers",
        "offset": 0,
        "slot": "3",
        "type": "t_mapping(t_uint256,t_uint256)"
      },
      {
        "astId": 23764,
        "contract": "src/rng/RandomizerRNG.sol:RandomizerRNG",
        "label": "requesterToID",
        "offset": 0,
        "slot": "4",
        "type": "t_mapping(t_address,t_uint256)"
      }
    ],
    "types": {
      "t_address": {
        "encoding": "inplace",
        "label": "address",
        "numberOfBytes": "20"
      },
      "t_contract(IRandomizer)23684": {
        "encoding": "inplace",
        "label": "contract IRandomizer",
        "numberOfBytes": "20"
      },
      "t_mapping(t_address,t_uint256)": {
        "encoding": "mapping",
        "key": "t_address",
        "label": "mapping(address => uint256)",
        "numberOfBytes": "32",
        "value": "t_uint256"
      },
      "t_mapping(t_uint256,t_uint256)": {
        "encoding": "mapping",
        "key": "t_uint256",
        "label": "mapping(uint256 => uint256)",
        "numberOfBytes": "32",
        "value": "t_uint256"
      },
      "t_uint256": {
        "encoding": "inplace",
        "label": "uint256",
        "numberOfBytes": "32"
      }
    }
  }
}