{
  "address": "0xb82D1eAD813C3a2E729F288276cc402343423Bad",
  "abi": [
    {
      "inputs": [
        {
          "internalType": "contract IRandomizer",
          "name": "_randomizer",
          "type": "address"
        },
        {
          "internalType": "address",
          "name": "_governor",
          "type": "address"
        }
      ],
      "stateMutability": "nonpayable",
      "type": "constructor"
    },
    {
      "inputs": [],
      "name": "CALLBACK_GAS_LIMIT",
      "outputs": [
        {
          "internalType": "uint256",
          "name": "",
          "type": "uint256"
        }
      ],
      "stateMutability": "view",
      "type": "function"
    },
    {
      "inputs": [
        {
          "internalType": "address",
          "name": "_governor",
          "type": "address"
        }
      ],
      "name": "changeGovernor",
      "outputs": [],
      "stateMutability": "nonpayable",
      "type": "function"
    },
    {
      "inputs": [],
      "name": "governor",
      "outputs": [
        {
          "internalType": "address",
          "name": "",
          "type": "address"
        }
      ],
      "stateMutability": "view",
      "type": "function"
    },
    {
      "inputs": [
        {
          "internalType": "uint128",
          "name": "",
          "type": "uint128"
        }
      ],
      "name": "randomNumbers",
      "outputs": [
        {
          "internalType": "uint256",
          "name": "",
          "type": "uint256"
        }
      ],
      "stateMutability": "view",
      "type": "function"
    },
    {
      "inputs": [],
      "name": "randomizer",
      "outputs": [
        {
          "internalType": "contract IRandomizer",
          "name": "",
          "type": "address"
        }
      ],
      "stateMutability": "view",
      "type": "function"
    },
    {
      "inputs": [
        {
          "internalType": "uint128",
          "name": "_id",
          "type": "uint128"
        },
        {
          "internalType": "bytes32",
          "name": "_value",
          "type": "bytes32"
        }
      ],
      "name": "randomizerCallback",
      "outputs": [],
      "stateMutability": "nonpayable",
      "type": "function"
    },
    {
      "inputs": [
        {
          "internalType": "uint256",
          "name": "_amount",
          "type": "uint256"
        }
      ],
      "name": "randomizerWithdraw",
      "outputs": [],
      "stateMutability": "nonpayable",
      "type": "function"
    },
    {
      "inputs": [
        {
          "internalType": "uint256",
          "name": "",
          "type": "uint256"
        }
      ],
      "name": "receiveRandomness",
      "outputs": [
        {
          "internalType": "uint256",
          "name": "randomNumber",
          "type": "uint256"
        }
      ],
      "stateMutability": "view",
      "type": "function"
    },
    {
      "inputs": [
        {
          "internalType": "uint256",
          "name": "",
          "type": "uint256"
        }
      ],
      "name": "requestRandomness",
      "outputs": [],
      "stateMutability": "nonpayable",
      "type": "function"
    },
    {
      "inputs": [
        {
          "internalType": "address",
          "name": "",
          "type": "address"
        }
      ],
      "name": "requesterToID",
      "outputs": [
        {
          "internalType": "uint128",
          "name": "",
          "type": "uint128"
        }
      ],
      "stateMutability": "view",
      "type": "function"
    }
  ],
  "transactionHash": "0xa181a21cd4a0f43618c9bafd33f75eb5081a899621653772493c8f43b55736d0",
  "args": [
    "0xE1B6CcAc0BB0355C01A049e78909231Bfa13620B",
    "0xF50E77f2A2B6138D16c6c7511562E5C33c4B15A3"
  ],
  "numDeployments": 2,
  "solcInputHash": "8e4e08d76a7f02df476a9f91ae4ef934",
  "bytecode": "0x608060405234801561001057600080fd5b506040516105c63803806105c683398101604081905261002f91610078565b600180546001600160a01b039384166001600160a01b031991821617909155600080549290931691161790556100b2565b6001600160a01b038116811461007557600080fd5b50565b6000806040838503121561008b57600080fd5b825161009681610060565b60208401519092506100a781610060565b809150509250929050565b610505806100c16000396000f3fe608060405234801561001057600080fd5b506004361061009e5760003560e01c80634e07c939116100665780634e07c9391461015757806371d4b00b1461016a5780637363ae1f146101ab578063e4c0aaf4146101be578063f10fb584146101d157600080fd5b80630c340a24146100a357806313cf9054146100d35780631dfcc23f1461011957806321e46a1a1461012e57806333d608f11461014e575b600080fd5b6000546100b6906001600160a01b031681565b6040516001600160a01b0390911681526020015b60405180910390f35b61010b6100e13660046103e5565b50336000908152600360209081526040808320546001600160801b03168352600290915290205490565b6040519081526020016100ca565b61012c61012736600461041a565b6101e4565b005b61010b61013c366004610444565b60026020526000908152604090205481565b61010b61c35081565b61012c6101653660046103e5565b610257565b610193610178366004610466565b6003602052600090815260409020546001600160801b031681565b6040516001600160801b0390911681526020016100ca565b61012c6101b93660046103e5565b6102e8565b61012c6101cc366004610466565b610399565b6001546100b6906001600160a01b031681565b6001546001600160a01b0316331461023b5760405162461bcd60e51b815260206004820152601560248201527421b0b63632b9103737ba102930b73237b6b4bd32b960591b60448201526064015b60405180910390fd5b6001600160801b03909116600090815260026020526040902055565b6000546001600160a01b031633146102815760405162461bcd60e51b81526004016102329061048f565b600154604051632465f8f560e01b8152336004820152602481018390526001600160a01b0390911690632465f8f590604401600060405180830381600087803b1580156102cd57600080fd5b505af11580156102e1573d6000803e3d6000fd5b5050505050565b60015460405163d845a4b360e01b815261c35060048201526000916001600160a01b03169063d845a4b390602401602060405180830381600087803b15801561033057600080fd5b505af1158015610344573d6000803e3d6000fd5b505050506040513d601f19601f8201168201806040525081019061036891906104b6565b33600090815260036020526040902080546001600160801b0319166001600160801b03929092169190911790555050565b6000546001600160a01b031633146103c35760405162461bcd60e51b81526004016102329061048f565b600080546001600160a01b0319166001600160a01b0392909216919091179055565b6000602082840312156103f757600080fd5b5035919050565b80356001600160801b038116811461041557600080fd5b919050565b6000806040838503121561042d57600080fd5b610436836103fe565b946020939093013593505050565b60006020828403121561045657600080fd5b61045f826103fe565b9392505050565b60006020828403121561047857600080fd5b81356001600160a01b038116811461045f57600080fd5b6020808252600d908201526c476f7665726e6f72206f6e6c7960981b604082015260600190565b6000602082840312156104c857600080fd5b505191905056fea2646970667358221220dcda61f0eb0832fc83fecdd1784ace5a85912df421259d09350ee75d641047b964736f6c63430008090033",
  "devdoc": {
    "kind": "dev",
    "methods": {
      "changeGovernor(address)": {
        "details": "Changes the governor of the contract.",
        "params": {
          "_governor": "The new governor."
        }
      },
      "constructor": {
        "details": "Constructor.",
        "params": {
          "_governor": "Governor of the contract.",
          "_randomizer": "Randomizer contract."
        }
      },
      "randomizerCallback(uint128,bytes32)": {
        "details": "Callback function called by the randomizer contract when the random value is generated."
      },
      "randomizerWithdraw(uint256)": {
        "details": "Allows the governor to withdraw randomizer funds.",
        "params": {
          "_amount": "Amount to withdraw in wei."
        }
      },
      "receiveRandomness(uint256)": {
        "details": "Return the random number.",
        "returns": {
          "randomNumber": "The random number or 0 if it is not ready or has not been requested."
        }
      },
      "requestRandomness(uint256)": {
        "details": "Request a random number. The id of the request is tied to the sender."
      }
    },
    "title": "Random Number Generator that uses Randomizer.ai  https://randomizer.ai/",
    "version": 1
  },
  "userdoc": {
    "kind": "user",
    "methods": {},
    "version": 1
  },
  "storageLayout": {
    "storage": [
      {
        "astId": 17220,
        "contract": "src/rng/RandomizerRNG.sol:RandomizerRNG",
        "label": "governor",
        "offset": 0,
        "slot": "0",
        "type": "t_address"
      },
      {
        "astId": 17223,
        "contract": "src/rng/RandomizerRNG.sol:RandomizerRNG",
        "label": "randomizer",
        "offset": 0,
        "slot": "1",
        "type": "t_contract(IRandomizer)17151"
      },
      {
        "astId": 17227,
        "contract": "src/rng/RandomizerRNG.sol:RandomizerRNG",
        "label": "randomNumbers",
        "offset": 0,
        "slot": "2",
        "type": "t_mapping(t_uint128,t_uint256)"
      },
      {
        "astId": 17231,
        "contract": "src/rng/RandomizerRNG.sol:RandomizerRNG",
        "label": "requesterToID",
        "offset": 0,
        "slot": "3",
        "type": "t_mapping(t_address,t_uint128)"
      }
    ],
    "types": {
      "t_address": {
        "encoding": "inplace",
        "label": "address",
        "numberOfBytes": "20"
      },
      "t_contract(IRandomizer)17151": {
        "encoding": "inplace",
        "label": "contract IRandomizer",
        "numberOfBytes": "20"
      },
      "t_mapping(t_address,t_uint128)": {
        "encoding": "mapping",
        "key": "t_address",
        "label": "mapping(address => uint128)",
        "numberOfBytes": "32",
        "value": "t_uint128"
      },
      "t_mapping(t_uint128,t_uint256)": {
        "encoding": "mapping",
        "key": "t_uint128",
        "label": "mapping(uint128 => uint256)",
        "numberOfBytes": "32",
        "value": "t_uint256"
      },
      "t_uint128": {
        "encoding": "inplace",
        "label": "uint128",
        "numberOfBytes": "16"
      },
      "t_uint256": {
        "encoding": "inplace",
        "label": "uint256",
        "numberOfBytes": "32"
      }
    }
  }
}