{
  "address": "0xE22500Fa27f696d06702367246bd17Bd2C8a4c5d",
  "abi": [
    {
      "inputs": [
        {
          "internalType": "contract IArbitratorV2",
          "name": "_arbitrator",
          "type": "address"
        },
        {
          "internalType": "string",
          "name": "_templateData",
          "type": "string"
        },
        {
          "internalType": "string",
          "name": "_templateDataMappings",
          "type": "string"
        },
        {
          "internalType": "bytes",
          "name": "_arbitratorExtraData",
          "type": "bytes"
        },
        {
          "internalType": "contract IDisputeTemplateRegistry",
          "name": "_templateRegistry",
          "type": "address"
        },
        {
          "internalType": "contract IERC20",
          "name": "_weth",
          "type": "address"
        }
      ],
      "stateMutability": "nonpayable",
      "type": "constructor"
    },
    {
      "anonymous": false,
      "inputs": [
        {
          "indexed": true,
          "internalType": "string",
          "name": "_action",
          "type": "string"
        }
      ],
      "name": "Action",
      "type": "event"
    },
    {
      "anonymous": false,
      "inputs": [
        {
          "indexed": true,
          "internalType": "contract IArbitratorV2",
          "name": "_arbitrator",
          "type": "address"
        },
        {
          "indexed": true,
          "internalType": "uint256",
          "name": "_arbitrableDisputeID",
          "type": "uint256"
        },
        {
          "indexed": false,
          "internalType": "uint256",
          "name": "_externalDisputeID",
          "type": "uint256"
        },
        {
          "indexed": false,
          "internalType": "uint256",
          "name": "_templateId",
          "type": "uint256"
        },
        {
          "indexed": false,
          "internalType": "string",
          "name": "_templateUri",
          "type": "string"
        }
      ],
      "name": "DisputeRequest",
      "type": "event"
    },
    {
      "anonymous": false,
      "inputs": [
        {
          "indexed": true,
          "internalType": "contract IArbitratorV2",
          "name": "_arbitrator",
          "type": "address"
        },
        {
          "indexed": true,
          "internalType": "uint256",
          "name": "_disputeID",
          "type": "uint256"
        },
        {
          "indexed": false,
          "internalType": "uint256",
          "name": "_ruling",
          "type": "uint256"
        }
      ],
      "name": "Ruling",
      "type": "event"
    },
    {
      "inputs": [],
      "name": "arbitrator",
      "outputs": [
        {
          "internalType": "contract IArbitratorV2",
          "name": "",
          "type": "address"
        }
      ],
      "stateMutability": "view",
      "type": "function"
    },
    {
      "inputs": [],
      "name": "arbitratorExtraData",
      "outputs": [
        {
          "internalType": "bytes",
          "name": "",
          "type": "bytes"
        }
      ],
      "stateMutability": "view",
      "type": "function"
    },
    {
      "inputs": [
        {
          "internalType": "contract IArbitratorV2",
          "name": "_arbitrator",
          "type": "address"
        }
      ],
      "name": "changeArbitrator",
      "outputs": [],
      "stateMutability": "nonpayable",
      "type": "function"
    },
    {
      "inputs": [
        {
          "internalType": "bytes",
          "name": "_arbitratorExtraData",
          "type": "bytes"
        }
      ],
      "name": "changeArbitratorExtraData",
      "outputs": [],
      "stateMutability": "nonpayable",
      "type": "function"
    },
    {
      "inputs": [
        {
          "internalType": "string",
          "name": "_templateData",
          "type": "string"
        },
        {
          "internalType": "string",
          "name": "_templateDataMappings",
          "type": "string"
        }
      ],
      "name": "changeDisputeTemplate",
      "outputs": [],
      "stateMutability": "nonpayable",
      "type": "function"
    },
    {
      "inputs": [
        {
          "internalType": "contract IDisputeTemplateRegistry",
          "name": "_templateRegistry",
          "type": "address"
        }
      ],
      "name": "changeTemplateRegistry",
      "outputs": [],
      "stateMutability": "nonpayable",
      "type": "function"
    },
    {
      "inputs": [
        {
          "internalType": "string",
          "name": "_action",
          "type": "string"
        },
        {
          "internalType": "uint256",
          "name": "_feeInWeth",
          "type": "uint256"
        }
      ],
      "name": "createDispute",
      "outputs": [
        {
          "internalType": "uint256",
          "name": "disputeID",
          "type": "uint256"
        }
      ],
      "stateMutability": "nonpayable",
      "type": "function"
    },
    {
      "inputs": [
        {
          "internalType": "string",
          "name": "_action",
          "type": "string"
        }
      ],
      "name": "createDispute",
      "outputs": [
        {
          "internalType": "uint256",
          "name": "disputeID",
          "type": "uint256"
        }
      ],
      "stateMutability": "payable",
      "type": "function"
    },
    {
      "inputs": [
        {
          "internalType": "uint256",
          "name": "",
          "type": "uint256"
        }
      ],
      "name": "disputes",
      "outputs": [
        {
          "internalType": "bool",
          "name": "isRuled",
          "type": "bool"
        },
        {
          "internalType": "uint256",
          "name": "ruling",
          "type": "uint256"
        },
        {
          "internalType": "uint256",
          "name": "numberOfRulingOptions",
          "type": "uint256"
        }
      ],
      "stateMutability": "view",
      "type": "function"
    },
    {
      "inputs": [
        {
          "internalType": "uint256",
          "name": "",
          "type": "uint256"
        }
      ],
      "name": "externalIDtoLocalID",
      "outputs": [
        {
          "internalType": "uint256",
          "name": "",
          "type": "uint256"
        }
      ],
      "stateMutability": "view",
      "type": "function"
    },
    {
      "inputs": [],
      "name": "governor",
      "outputs": [
        {
          "internalType": "address",
          "name": "",
          "type": "address"
        }
      ],
      "stateMutability": "view",
      "type": "function"
    },
    {
      "inputs": [
        {
          "internalType": "uint256",
          "name": "_externalDisputeID",
          "type": "uint256"
        },
        {
          "internalType": "uint256",
          "name": "_ruling",
          "type": "uint256"
        }
      ],
      "name": "rule",
      "outputs": [],
      "stateMutability": "nonpayable",
      "type": "function"
    },
    {
      "inputs": [],
      "name": "templateId",
      "outputs": [
        {
          "internalType": "uint256",
          "name": "",
          "type": "uint256"
        }
      ],
      "stateMutability": "view",
      "type": "function"
    },
    {
      "inputs": [],
      "name": "templateRegistry",
      "outputs": [
        {
          "internalType": "contract IDisputeTemplateRegistry",
          "name": "",
          "type": "address"
        }
      ],
      "stateMutability": "view",
      "type": "function"
    },
    {
      "inputs": [],
      "name": "weth",
      "outputs": [
        {
          "internalType": "contract IERC20",
          "name": "",
          "type": "address"
        }
      ],
      "stateMutability": "view",
      "type": "function"
    }
  ],
  "transactionHash": "0x280907209f6536cc8cd0559bb4c96bce5337621244baf3d7fa5742e5a1d90b14",
  "args": [
    "0x33d0b8879368acD8ca868e656Ade97bB97b90468",
    {
      "$schema": "../NewDisputeTemplate.schema.json",
      "title": "Let's do this",
      "description": "We want to do this: %s",
      "question": "Does it comply with the policy?",
      "answers": [
        {
          "title": "Yes",
          "description": "Select this if you agree that it must be done."
        },
        {
          "title": "No",
          "description": "Select this if you do not agree that it must be done."
        }
      ],
      "policyURI": "/ipfs/Qmdvk...rSD6cE/policy.pdf",
      "frontendUrl": "https://kleros-v2.netlify.app/#/cases/%s/overview",
      "arbitratorChainID": "421614",
      "arbitratorAddress": "0xD08Ab99480d02bf9C092828043f611BcDFEA917b",
      "category": "Others",
      "specification": "KIP001",
      "lang": "en_US"
    },
    "disputeTemplateMapping: TODO",
    "0x00000000000000000000000000000000000000000000000000000000000000010000000000000000000000000000000000000000000000000000000000000003",
    "0x553dcbF6aB3aE06a1064b5200Df1B5A9fB403d3c",
    "0xAEE953CC26DbDeA52beBE3F97f281981f2B9d511"
  ],
  "numDeployments": 1,
  "solcInputHash": "4ee8a1f2013c130bec1668c5304bc76a",
  "bytecode": "0x60c06040523480156200001157600080fd5b506040516200191a3803806200191a83398101604081905262000034916200020f565b33608052600080546001600160a01b0319166001600160a01b03881617905560036200006184826200037e565b50600180546001600160a01b0319166001600160a01b0384811691821790925590821660a0526040516312a6505d60e21b8152634a99417490620000ac908890889060040162000478565b6020604051808303816000875af1158015620000cc573d6000803e3d6000fd5b505050506040513d601f19601f82011682018060405250810190620000f29190620004b8565b60025550620004d2945050505050565b6001600160a01b03811681146200011857600080fd5b50565b634e487b7160e01b600052604160045260246000fd5b60005b838110156200014e57818101518382015260200162000134565b50506000910152565b60006001600160401b03808411156200017457620001746200011b565b604051601f8501601f19908116603f011681019082821181831017156200019f576200019f6200011b565b81604052809350858152868686011115620001b957600080fd5b620001c986602083018762000131565b5050509392505050565b600082601f830112620001e557600080fd5b620001f68383516020850162000157565b9392505050565b80516200020a8162000102565b919050565b60008060008060008060c087890312156200022957600080fd5b8651620002368162000102565b60208801519096506001600160401b03808211156200025457600080fd5b620002628a838b01620001d3565b965060408901519150808211156200027957600080fd5b620002878a838b01620001d3565b955060608901519150808211156200029e57600080fd5b508701601f81018913620002b157600080fd5b620002c28982516020840162000157565b935050620002d360808801620001fd565b9150620002e360a08801620001fd565b90509295509295509295565b600181811c908216806200030457607f821691505b6020821081036200032557634e487b7160e01b600052602260045260246000fd5b50919050565b601f8211156200037957600081815260208120601f850160051c81016020861015620003545750805b601f850160051c820191505b81811015620003755782815560010162000360565b5050505b505050565b81516001600160401b038111156200039a576200039a6200011b565b620003b281620003ab8454620002ef565b846200032b565b602080601f831160018114620003ea5760008415620003d15750858301515b600019600386901b1c1916600185901b17855562000375565b600085815260208120601f198616915b828110156200041b57888601518255948401946001909101908401620003fa565b50858210156200043a5787850151600019600388901b60f8161c191681555b5050505050600190811b01905550565b600081518084526200046481602086016020860162000131565b601f01601f19169290920160200192915050565b60608152600060608201526080602082015260006200049b60808301856200044a565b8281036040840152620004af81856200044a565b95945050505050565b600060208284031215620004cb57600080fd5b5051919050565b60805160a05161140e6200050c60003960008181610194015281816106e40152818161076301526108010152600060df015261140e6000f3fe6080604052600436106100c85760003560e01c8063654692871161007a578063654692871461021357806368175996146102415780636cc6cde1146102545780637aa77f2914610274578063a0af81f01461028a578063c21ae061146102aa578063c5d55288146102d7578063fc548f08146102f757600080fd5b80630c340a24146100cd5780630c7ac7b61461011e578063311a6c561461014057806334e2672d146101625780633fc8cef3146101825780634660ebbe146101b6578063564a565d146101d6575b600080fd5b3480156100d957600080fd5b506101017f000000000000000000000000000000000000000000000000000000000000000081565b6040516001600160a01b0390911681526020015b60405180910390f35b34801561012a57600080fd5b50610133610317565b6040516101159190610e3d565b34801561014c57600080fd5b5061016061015b366004610e57565b6103a5565b005b34801561016e57600080fd5b5061016061017d366004610ec2565b61053e565b34801561018e57600080fd5b506101017f000000000000000000000000000000000000000000000000000000000000000081565b3480156101c257600080fd5b506101606101d1366004610f1c565b61056f565b3480156101e257600080fd5b506101f66101f1366004610f39565b6105b0565b604080519315158452602084019290925290820152606001610115565b34801561021f57600080fd5b5061023361022e366004610f52565b6105e7565b604051908152602001610115565b61023361024f366004610ec2565b61091b565b34801561026057600080fd5b50600054610101906001600160a01b031681565b34801561028057600080fd5b5061023360025481565b34801561029657600080fd5b50600154610101906001600160a01b031681565b3480156102b657600080fd5b506102336102c5366004610f39565b60046020526000908152604090205481565b3480156102e357600080fd5b506101606102f2366004611041565b610b31565b34801561030357600080fd5b50610160610312366004610f1c565b610bcc565b60038054610324906110a5565b80601f0160208091040260200160405190810160405280929190818152602001828054610350906110a5565b801561039d5780601f106103725761010080835404028352916020019161039d565b820191906000526020600020905b81548152906001019060200180831161038057829003601f168201915b505050505081565b60008281526004602052604081205460058054919291839081106103cb576103cb6110df565b600091825260208220915460039190910290910191506001600160a01b0316331461044b5760405162461bcd60e51b815260206004820152602560248201527f4f6e6c79207468652061726269747261746f722063616e2065786563757465206044820152643a3434b99760d91b60648201526084015b60405180910390fd5b80600201548311156104915760405162461bcd60e51b815260206004820152600f60248201526e24b73b30b634b210393ab634b7339760891b6044820152606401610442565b805460ff16156104ef5760405162461bcd60e51b8152602060048201526024808201527f54686973206469737075746520686173206265656e2072756c656420616c726560448201526330b23c9760e11b6064820152608401610442565b805460ff1916600190811782558101839055604051838152849033907f394027a5fa6e098a1191094d1719d6929b9abc535fcc0c8f448d6a4e756222769060200160405180910390a350505050565b30331461055d5760405162461bcd60e51b8152600401610442906110f5565b600361056a82848361117a565b505050565b30331461058e5760405162461bcd60e51b8152600401610442906110f5565b600180546001600160a01b0319166001600160a01b0392909216919091179055565b600581815481106105c057600080fd5b600091825260209091206003909102018054600182015460029092015460ff909116925083565b600083836040516105f992919061123b565b604051908190038120907f8b2c14fe955d044ef95ba32b88d2ceb87c6f73fcefdcebe906063a6d75690f2790600090a2600580546040805160608101825260008082526020820181815260029383018481526001860187559590915290517f036b6384b5eca791c62761152d0c79bb0604c104a5fb6f4eb0703f3154bb3db060038502908101805460ff19169215159290921790915590517f036b6384b5eca791c62761152d0c79bb0604c104a5fb6f4eb0703f3154bb3db182015592517f036b6384b5eca791c62761152d0c79bb0604c104a5fb6f4eb0703f3154bb3db2909301929092556107147f00000000000000000000000000000000000000000000000000000000000000006001600160a01b0316333087610c0d565b6107525760405162461bcd60e51b815260206004820152600f60248201526e151c985b9cd9995c8819985a5b1959608a1b6044820152606401610442565b60005461078c906001600160a01b037f00000000000000000000000000000000000000000000000000000000000000008116911686610ce9565b6107d45760405162461bcd60e51b8152602060048201526019602482015278105b1b1bddd85b98d9481a5b98dc99585cd94819985a5b1959603a1b6044820152606401610442565b600054604051633d941b6d60e21b81526001600160a01b039091169063f6506db49061082b9085906003907f0000000000000000000000000000000000000000000000000000000000000000908a906004016112c8565b6020604051808303816000875af115801561084a573d6000803e3d6000fd5b505050506040513d601f19601f8201168201806040525081019061086e91906112fd565b600081815260046020908152604080832085905551929550909161089691899189910161123b565b60408051601f1981840301815290829052805160209091012060005460025491935086926001600160a01b03909116917f8bd32f430ff060e6bd204709b3790c9807987263d3230c580dc80b5f89e271869161090991868252602082015260606040820181905260009082015260800190565b60405180910390a35050509392505050565b6000828260405161092d92919061123b565b604051908190038120907f8b2c14fe955d044ef95ba32b88d2ceb87c6f73fcefdcebe906063a6d75690f2790600090a26005805460408051606081018252600080825260208201818152600283850181815260018701885596835292517f036b6384b5eca791c62761152d0c79bb0604c104a5fb6f4eb0703f3154bb3db06003808802918201805460ff19169315159390931790925591517f036b6384b5eca791c62761152d0c79bb0604c104a5fb6f4eb0703f3154bb3db183015595517f036b6384b5eca791c62761152d0c79bb0604c104a5fb6f4eb0703f3154bb3db29091015554915163c13517e160e01b815290936001600160a01b039092169163c13517e1913491610a4291879190600401611316565b60206040518083038185885af1158015610a60573d6000803e3d6000fd5b50505050506040513d601f19601f82011682018060405250810190610a8591906112fd565b6000818152600460209081526040808320859055519295509091610aad91889188910161123b565b60408051601f1981840301815290829052805160209091012060005460025491935086926001600160a01b03909116917f8bd32f430ff060e6bd204709b3790c9807987263d3230c580dc80b5f89e2718691610b2091868252602082015260606040820181905260009082015260800190565b60405180910390a350505092915050565b303314610b505760405162461bcd60e51b8152600401610442906110f5565b6001546040516312a6505d60e21b81526001600160a01b0390911690634a99417490610b829085908590600401611337565b6020604051808303816000875af1158015610ba1573d6000803e3d6000fd5b505050506040513d601f19601f82011682018060405250810190610bc591906112fd565b6002555050565b303314610beb5760405162461bcd60e51b8152600401610442906110f5565b600080546001600160a01b0319166001600160a01b0392909216919091179055565b6040516001600160a01b038481166024830152838116604483015260648201839052600091829182919088169060840160408051601f198184030181529181526020820180516001600160e01b03166323b872dd60e01b17905251610c729190611373565b6000604051808303816000865af19150503d8060008114610caf576040519150601f19603f3d011682016040523d82523d6000602084013e610cb4565b606091505b5091509150818015610cde575080511580610cde575080806020019051810190610cde919061138f565b979650505050505050565b604051636eb1769f60e11b81523060048201526001600160a01b0383811660248301526000919085169063095ea7b39085908590849063dd62ed3e90604401602060405180830381865afa158015610d45573d6000803e3d6000fd5b505050506040513d601f19601f82011682018060405250810190610d6991906112fd565b610d7391906113b1565b6040516001600160e01b031960e085901b1681526001600160a01b03909216600483015260248201526044016020604051808303816000875af1158015610dbe573d6000803e3d6000fd5b505050506040513d601f19601f82011682018060405250810190610de2919061138f565b506001949350505050565b60005b83811015610e08578181015183820152602001610df0565b50506000910152565b60008151808452610e29816020860160208601610ded565b601f01601f19169290920160200192915050565b602081526000610e506020830184610e11565b9392505050565b60008060408385031215610e6a57600080fd5b50508035926020909101359150565b60008083601f840112610e8b57600080fd5b50813567ffffffffffffffff811115610ea357600080fd5b602083019150836020828501011115610ebb57600080fd5b9250929050565b60008060208385031215610ed557600080fd5b823567ffffffffffffffff811115610eec57600080fd5b610ef885828601610e79565b90969095509350505050565b6001600160a01b0381168114610f1957600080fd5b50565b600060208284031215610f2e57600080fd5b8135610e5081610f04565b600060208284031215610f4b57600080fd5b5035919050565b600080600060408486031215610f6757600080fd5b833567ffffffffffffffff811115610f7e57600080fd5b610f8a86828701610e79565b909790965060209590950135949350505050565b634e487b7160e01b600052604160045260246000fd5b600082601f830112610fc557600080fd5b813567ffffffffffffffff80821115610fe057610fe0610f9e565b604051601f8301601f19908116603f0116810190828211818310171561100857611008610f9e565b8160405283815286602085880101111561102157600080fd5b836020870160208301376000602085830101528094505050505092915050565b6000806040838503121561105457600080fd5b823567ffffffffffffffff8082111561106c57600080fd5b61107886838701610fb4565b9350602085013591508082111561108e57600080fd5b5061109b85828601610fb4565b9150509250929050565b600181811c908216806110b957607f821691505b6020821081036110d957634e487b7160e01b600052602260045260246000fd5b50919050565b634e487b7160e01b600052603260045260246000fd5b6020808252601a908201527f4f6e6c792074686520676f7665726e6f7220616c6c6f7765642e000000000000604082015260600190565b601f82111561056a57600081815260208120601f850160051c810160208610156111535750805b601f850160051c820191505b818110156111725782815560010161115f565b505050505050565b67ffffffffffffffff83111561119257611192610f9e565b6111a6836111a083546110a5565b8361112c565b6000601f8411600181146111da57600085156111c25750838201355b600019600387901b1c1916600186901b178355611234565b600083815260209020601f19861690835b8281101561120b57868501358255602094850194600190920191016111eb565b50868210156112285760001960f88860031b161c19848701351681555b505060018560011b0183555b5050505050565b8183823760009101908152919050565b60008154611258816110a5565b808552602060018381168015611275576001811461128f576112bd565b60ff1985168884015283151560051b8801830195506112bd565b866000528260002060005b858110156112b55781548a820186015290830190840161129a565b890184019650505b505050505092915050565b8481526080602082015260006112e1608083018661124b565b6001600160a01b03949094166040830152506060015292915050565b60006020828403121561130f57600080fd5b5051919050565b82815260406020820152600061132f604083018461124b565b949350505050565b60608152600060608201526080602082015260006113586080830185610e11565b828103604084015261136a8185610e11565b95945050505050565b60008251611385818460208701610ded565b9190910192915050565b6000602082840312156113a157600080fd5b81518015158114610e5057600080fd5b808201808211156113d257634e487b7160e01b600052601160045260246000fd5b9291505056fea264697066735822122084881e01383e37e86fd1919d8c218c3fb5e00372697336cc5557215eecd6e56964736f6c63430008120033",
  "devdoc": {
    "events": {
      "DisputeRequest(address,uint256,uint256,uint256,string)": {
        "details": "To be emitted when a dispute is created to link the correct meta-evidence to the disputeID.",
        "params": {
          "_arbitrableDisputeID": "The identifier of the dispute in the Arbitrable contract.",
          "_arbitrator": "The arbitrator of the contract.",
          "_externalDisputeID": "An identifier created outside Kleros by the protocol requesting arbitration.",
          "_templateId": "The identifier of the dispute template. Should not be used with _templateUri.",
          "_templateUri": "The URI to the dispute template. For example on IPFS: starting with '/ipfs/'. Should not be used with _templateId."
        }
      },
      "Ruling(address,uint256,uint256)": {
        "details": "To be raised when a ruling is given.",
        "params": {
          "_arbitrator": "The arbitrator giving the ruling.",
          "_disputeID": "The identifier of the dispute in the Arbitrator contract.",
          "_ruling": "The ruling which was given."
        }
      }
    },
    "kind": "dev",
    "methods": {
      "constructor": {
        "details": "Constructor",
        "params": {
          "_arbitrator": "The arbitrator to rule on created disputes.",
          "_arbitratorExtraData": "The extra data for the arbitrator.",
          "_templateData": "The dispute template data.",
          "_templateDataMappings": "The dispute template data mappings.",
          "_templateRegistry": "The dispute template registry.",
          "_weth": "The WETH token."
        }
      },
      "createDispute(string)": {
        "details": "Calls createDispute function of the specified arbitrator to create a dispute. Note that we dont need to check that msg.value is enough to pay arbitration fees as its the responsibility of the arbitrator contract.",
        "params": {
          "_action": "The action that requires arbitration."
        },
        "returns": {
          "disputeID": "Dispute id (on arbitrator side) of the dispute created."
        }
      },
      "createDispute(string,uint256)": {
        "details": "Calls createDispute function of the specified arbitrator to create a dispute. Note that we dont need to check that msg.value is enough to pay arbitration fees as its the responsibility of the arbitrator contract.",
        "params": {
          "_action": "The action that requires arbitration.",
          "_feeInWeth": "Amount of fees in WETH for the arbitrator."
        },
        "returns": {
          "disputeID": "Dispute id (on arbitrator side) of the dispute created."
        }
      },
      "rule(uint256,uint256)": {
        "details": "To be called by the arbitrator of the dispute, to declare the winning ruling.",
        "params": {
          "_externalDisputeID": "ID of the dispute in arbitrator contract.",
          "_ruling": "The ruling choice of the arbitration."
        }
      }
    },
    "title": "ArbitrableExample An example of an arbitrable contract which connects to the arbitator that implements the updated interface.",
    "version": 1
  },
  "userdoc": {
    "kind": "user",
    "methods": {},
    "version": 1
  },
  "storageLayout": {
    "storage": [
      {
        "astId": 9862,
        "contract": "src/arbitration/arbitrables/ArbitrableExample.sol:ArbitrableExample",
        "label": "arbitrator",
        "offset": 0,
        "slot": "0",
        "type": "t_contract(IArbitratorV2)17049"
      },
      {
        "astId": 9865,
        "contract": "src/arbitration/arbitrables/ArbitrableExample.sol:ArbitrableExample",
        "label": "templateRegistry",
        "offset": 0,
        "slot": "1",
        "type": "t_contract(IDisputeTemplateRegistry)17216"
      },
      {
        "astId": 9867,
        "contract": "src/arbitration/arbitrables/ArbitrableExample.sol:ArbitrableExample",
        "label": "templateId",
        "offset": 0,
        "slot": "2",
        "type": "t_uint256"
      },
      {
        "astId": 9869,
        "contract": "src/arbitration/arbitrables/ArbitrableExample.sol:ArbitrableExample",
        "label": "arbitratorExtraData",
        "offset": 0,
        "slot": "3",
        "type": "t_bytes_storage"
      },
      {
        "astId": 9876,
        "contract": "src/arbitration/arbitrables/ArbitrableExample.sol:ArbitrableExample",
        "label": "externalIDtoLocalID",
        "offset": 0,
        "slot": "4",
        "type": "t_mapping(t_uint256,t_uint256)"
      },
      {
        "astId": 9880,
        "contract": "src/arbitration/arbitrables/ArbitrableExample.sol:ArbitrableExample",
        "label": "disputes",
        "offset": 0,
        "slot": "5",
        "type": "t_array(t_struct(DisputeStruct)9853_storage)dyn_storage"
      }
    ],
    "types": {
      "t_array(t_struct(DisputeStruct)9853_storage)dyn_storage": {
        "base": "t_struct(DisputeStruct)9853_storage",
        "encoding": "dynamic_array",
        "label": "struct ArbitrableExample.DisputeStruct[]",
        "numberOfBytes": "32"
      },
      "t_bool": {
        "encoding": "inplace",
        "label": "bool",
        "numberOfBytes": "1"
      },
      "t_bytes_storage": {
        "encoding": "bytes",
        "label": "bytes",
        "numberOfBytes": "32"
      },
      "t_contract(IArbitratorV2)17049": {
        "encoding": "inplace",
        "label": "contract IArbitratorV2",
        "numberOfBytes": "20"
      },
      "t_contract(IDisputeTemplateRegistry)17216": {
        "encoding": "inplace",
        "label": "contract IDisputeTemplateRegistry",
        "numberOfBytes": "20"
      },
      "t_mapping(t_uint256,t_uint256)": {
        "encoding": "mapping",
        "key": "t_uint256",
        "label": "mapping(uint256 => uint256)",
        "numberOfBytes": "32",
        "value": "t_uint256"
      },
      "t_struct(DisputeStruct)9853_storage": {
        "encoding": "inplace",
        "label": "struct ArbitrableExample.DisputeStruct",
        "members": [
          {
            "astId": 9848,
            "contract": "src/arbitration/arbitrables/ArbitrableExample.sol:ArbitrableExample",
            "label": "isRuled",
            "offset": 0,
            "slot": "0",
            "type": "t_bool"
          },
          {
            "astId": 9850,
            "contract": "src/arbitration/arbitrables/ArbitrableExample.sol:ArbitrableExample",
            "label": "ruling",
            "offset": 0,
            "slot": "1",
            "type": "t_uint256"
          },
          {
            "astId": 9852,
            "contract": "src/arbitration/arbitrables/ArbitrableExample.sol:ArbitrableExample",
            "label": "numberOfRulingOptions",
            "offset": 0,
            "slot": "2",
            "type": "t_uint256"
          }
        ],
        "numberOfBytes": "96"
      },
      "t_uint256": {
        "encoding": "inplace",
        "label": "uint256",
        "numberOfBytes": "32"
      }
    }
  }
}