{
  "address": "0x3a06272f2FEEC12B0FB5F3FF82688c0F06808bE7",
  "abi": [
    {
      "inputs": [],
      "stateMutability": "nonpayable",
      "type": "constructor"
    },
    {
      "inputs": [],
      "name": "AlreadyInitialized",
      "type": "error"
    },
    {
      "inputs": [],
      "name": "FailedDelegateCall",
      "type": "error"
    },
    {
      "inputs": [
        {
          "internalType": "address",
          "name": "implementation",
          "type": "address"
        }
      ],
      "name": "InvalidImplementation",
      "type": "error"
    },
    {
      "inputs": [],
      "name": "NotInitializing",
      "type": "error"
    },
    {
      "inputs": [],
      "name": "UUPSUnauthorizedCallContext",
      "type": "error"
    },
    {
      "inputs": [
        {
          "internalType": "bytes32",
          "name": "slot",
          "type": "bytes32"
        }
      ],
      "name": "UUPSUnsupportedProxiableUUID",
      "type": "error"
    },
    {
      "anonymous": false,
      "inputs": [
        {
          "indexed": true,
          "internalType": "uint256",
          "name": "_coreDisputeID",
          "type": "uint256"
        },
        {
          "indexed": true,
          "internalType": "uint256",
          "name": "_coreRoundID",
          "type": "uint256"
        },
        {
          "indexed": true,
          "internalType": "uint256",
          "name": "_choice",
          "type": "uint256"
        }
      ],
      "name": "ChoiceFunded",
      "type": "event"
    },
    {
      "anonymous": false,
      "inputs": [
        {
          "indexed": true,
          "internalType": "uint256",
          "name": "_coreDisputeID",
          "type": "uint256"
        },
        {
          "indexed": true,
          "internalType": "address",
          "name": "_juror",
          "type": "address"
        },
        {
          "indexed": false,
          "internalType": "uint256[]",
          "name": "_voteIDs",
          "type": "uint256[]"
        },
        {
          "indexed": false,
          "internalType": "bytes32",
          "name": "_commit",
          "type": "bytes32"
        }
      ],
      "name": "CommitCast",
      "type": "event"
    },
    {
      "anonymous": false,
      "inputs": [
        {
          "indexed": true,
          "internalType": "uint256",
          "name": "_coreDisputeID",
          "type": "uint256"
        },
        {
          "indexed": true,
          "internalType": "address",
          "name": "_juror",
          "type": "address"
        },
        {
          "indexed": true,
          "internalType": "bytes32",
          "name": "_commit",
          "type": "bytes32"
        },
        {
          "indexed": false,
          "internalType": "bytes32",
          "name": "_identity",
          "type": "bytes32"
        },
        {
          "indexed": false,
          "internalType": "bytes",
          "name": "_encryptedVote",
          "type": "bytes"
        }
      ],
      "name": "CommitCastShutter",
      "type": "event"
    },
    {
      "anonymous": false,
      "inputs": [
        {
          "indexed": true,
          "internalType": "uint256",
          "name": "_coreDisputeID",
          "type": "uint256"
        },
        {
          "indexed": true,
          "internalType": "uint256",
          "name": "_coreRoundID",
          "type": "uint256"
        },
        {
          "indexed": false,
          "internalType": "uint256",
          "name": "_choice",
          "type": "uint256"
        },
        {
          "indexed": true,
          "internalType": "address",
          "name": "_contributor",
          "type": "address"
        },
        {
          "indexed": false,
          "internalType": "uint256",
          "name": "_amount",
          "type": "uint256"
        }
      ],
      "name": "Contribution",
      "type": "event"
    },
    {
      "anonymous": false,
      "inputs": [
        {
          "indexed": true,
          "internalType": "uint256",
          "name": "_coreDisputeID",
          "type": "uint256"
        },
        {
          "indexed": false,
          "internalType": "uint256",
          "name": "_numberOfChoices",
          "type": "uint256"
        },
        {
          "indexed": false,
          "internalType": "bytes",
          "name": "_extraData",
          "type": "bytes"
        }
      ],
      "name": "DisputeCreation",
      "type": "event"
    },
    {
      "anonymous": false,
      "inputs": [
        {
          "indexed": false,
          "internalType": "uint64",
          "name": "version",
          "type": "uint64"
        }
      ],
      "name": "Initialized",
      "type": "event"
    },
    {
      "anonymous": false,
      "inputs": [
        {
          "indexed": true,
          "internalType": "address",
          "name": "newImplementation",
          "type": "address"
        }
      ],
      "name": "Upgraded",
      "type": "event"
    },
    {
      "anonymous": false,
      "inputs": [
        {
          "indexed": true,
          "internalType": "uint256",
          "name": "_coreDisputeID",
          "type": "uint256"
        },
        {
          "indexed": true,
          "internalType": "address",
          "name": "_juror",
          "type": "address"
        },
        {
          "indexed": false,
          "internalType": "uint256[]",
          "name": "_voteIDs",
          "type": "uint256[]"
        },
        {
          "indexed": true,
          "internalType": "uint256",
          "name": "_choice",
          "type": "uint256"
        },
        {
          "indexed": false,
          "internalType": "string",
          "name": "_justification",
          "type": "string"
        }
      ],
      "name": "VoteCast",
      "type": "event"
    },
    {
      "anonymous": false,
      "inputs": [
        {
          "indexed": true,
          "internalType": "uint256",
          "name": "_coreDisputeID",
          "type": "uint256"
        },
        {
          "indexed": true,
          "internalType": "uint256",
          "name": "_coreRoundID",
          "type": "uint256"
        },
        {
          "indexed": false,
          "internalType": "uint256",
          "name": "_choice",
          "type": "uint256"
        },
        {
          "indexed": true,
          "internalType": "address",
          "name": "_contributor",
          "type": "address"
        },
        {
          "indexed": false,
          "internalType": "uint256",
          "name": "_amount",
          "type": "uint256"
        }
      ],
      "name": "Withdrawal",
      "type": "event"
    },
    {
      "inputs": [],
      "name": "LOSER_APPEAL_PERIOD_MULTIPLIER",
      "outputs": [
        {
          "internalType": "uint256",
          "name": "",
          "type": "uint256"
        }
      ],
      "stateMutability": "view",
      "type": "function"
    },
    {
      "inputs": [],
      "name": "LOSER_STAKE_MULTIPLIER",
      "outputs": [
        {
          "internalType": "uint256",
          "name": "",
          "type": "uint256"
        }
      ],
      "stateMutability": "view",
      "type": "function"
    },
    {
      "inputs": [],
      "name": "ONE_BASIS_POINT",
      "outputs": [
        {
          "internalType": "uint256",
          "name": "",
          "type": "uint256"
        }
      ],
      "stateMutability": "view",
      "type": "function"
    },
    {
      "inputs": [],
      "name": "WINNER_STAKE_MULTIPLIER",
      "outputs": [
        {
          "internalType": "uint256",
          "name": "",
          "type": "uint256"
        }
      ],
      "stateMutability": "view",
      "type": "function"
    },
    {
      "inputs": [
        {
          "internalType": "uint256",
          "name": "localDisputeID",
          "type": "uint256"
        },
        {
          "internalType": "uint256",
          "name": "localRoundID",
          "type": "uint256"
        },
        {
          "internalType": "address",
          "name": "drawnAddress",
          "type": "address"
        }
      ],
      "name": "alreadyDrawn",
      "outputs": [
        {
          "internalType": "bool",
          "name": "",
          "type": "bool"
        }
      ],
      "stateMutability": "view",
      "type": "function"
    },
    {
      "inputs": [
        {
          "internalType": "uint256",
          "name": "_coreDisputeID",
          "type": "uint256"
        }
      ],
      "name": "areCommitsAllCast",
      "outputs": [
        {
          "internalType": "bool",
          "name": "",
          "type": "bool"
        }
      ],
      "stateMutability": "view",
      "type": "function"
    },
    {
      "inputs": [
        {
          "internalType": "uint256",
          "name": "_coreDisputeID",
          "type": "uint256"
        }
      ],
      "name": "areVotesAllCast",
      "outputs": [
        {
          "internalType": "bool",
          "name": "",
          "type": "bool"
        }
      ],
      "stateMutability": "view",
      "type": "function"
    },
    {
      "inputs": [
        {
          "internalType": "uint256",
          "name": "_coreDisputeID",
          "type": "uint256"
        },
        {
          "internalType": "uint256[]",
          "name": "_voteIDs",
          "type": "uint256[]"
        },
        {
          "internalType": "bytes32",
          "name": "_commit",
          "type": "bytes32"
        }
      ],
      "name": "castCommit",
      "outputs": [],
      "stateMutability": "nonpayable",
      "type": "function"
    },
    {
      "inputs": [
        {
          "internalType": "uint256",
          "name": "_coreDisputeID",
          "type": "uint256"
        },
        {
          "internalType": "uint256[]",
          "name": "_voteIDs",
          "type": "uint256[]"
        },
        {
          "internalType": "bytes32",
          "name": "_commit",
          "type": "bytes32"
        },
        {
          "internalType": "bytes32",
          "name": "_identity",
          "type": "bytes32"
        },
        {
          "internalType": "bytes",
          "name": "_encryptedVote",
          "type": "bytes"
        }
      ],
      "name": "castCommitShutter",
      "outputs": [],
      "stateMutability": "nonpayable",
      "type": "function"
    },
    {
      "inputs": [
        {
          "internalType": "uint256",
          "name": "_coreDisputeID",
          "type": "uint256"
        },
        {
          "internalType": "uint256[]",
          "name": "_voteIDs",
          "type": "uint256[]"
        },
        {
          "internalType": "uint256",
          "name": "_choice",
          "type": "uint256"
        },
        {
          "internalType": "uint256",
          "name": "_salt",
          "type": "uint256"
        },
        {
          "internalType": "string",
          "name": "_justification",
          "type": "string"
        }
      ],
      "name": "castVote",
      "outputs": [],
      "stateMutability": "nonpayable",
      "type": "function"
    },
    {
      "inputs": [
        {
          "internalType": "uint256",
          "name": "_coreDisputeID",
          "type": "uint256"
        },
        {
          "internalType": "uint256[]",
          "name": "_voteIDs",
          "type": "uint256[]"
        },
        {
          "internalType": "uint256",
          "name": "_choice",
          "type": "uint256"
        },
        {
          "internalType": "uint256",
          "name": "_salt",
          "type": "uint256"
        },
        {
          "internalType": "string",
          "name": "_justification",
          "type": "string"
        }
      ],
      "name": "castVoteShutter",
      "outputs": [],
      "stateMutability": "nonpayable",
      "type": "function"
    },
    {
      "inputs": [
        {
          "internalType": "address",
          "name": "_core",
          "type": "address"
        }
      ],
      "name": "changeCore",
      "outputs": [],
      "stateMutability": "nonpayable",
      "type": "function"
    },
    {
      "inputs": [
        {
          "internalType": "address payable",
          "name": "_governor",
          "type": "address"
        }
      ],
      "name": "changeGovernor",
      "outputs": [],
      "stateMutability": "nonpayable",
      "type": "function"
    },
    {
      "inputs": [],
      "name": "core",
      "outputs": [
        {
          "internalType": "contract KlerosCore",
          "name": "",
          "type": "address"
        }
      ],
      "stateMutability": "view",
      "type": "function"
    },
    {
      "inputs": [
        {
          "internalType": "uint256",
          "name": "coreDisputeID",
          "type": "uint256"
        }
      ],
      "name": "coreDisputeIDToActive",
      "outputs": [
        {
          "internalType": "bool",
          "name": "",
          "type": "bool"
        }
      ],
      "stateMutability": "view",
      "type": "function"
    },
    {
      "inputs": [
        {
          "internalType": "uint256",
          "name": "",
          "type": "uint256"
        }
      ],
      "name": "coreDisputeIDToLocal",
      "outputs": [
        {
          "internalType": "uint256",
          "name": "",
          "type": "uint256"
        }
      ],
      "stateMutability": "view",
      "type": "function"
    },
    {
      "inputs": [
        {
          "internalType": "uint256",
          "name": "_coreDisputeID",
          "type": "uint256"
        },
        {
          "internalType": "uint256",
          "name": "_numberOfChoices",
          "type": "uint256"
        },
        {
          "internalType": "bytes",
          "name": "_extraData",
          "type": "bytes"
        },
        {
          "internalType": "uint256",
          "name": "_nbVotes",
          "type": "uint256"
        }
      ],
      "name": "createDispute",
      "outputs": [],
      "stateMutability": "nonpayable",
      "type": "function"
    },
    {
      "inputs": [
        {
          "internalType": "uint256",
          "name": "_coreDisputeID",
          "type": "uint256"
        }
      ],
      "name": "currentRuling",
      "outputs": [
        {
          "internalType": "uint256",
          "name": "ruling",
          "type": "uint256"
        },
        {
          "internalType": "bool",
          "name": "tied",
          "type": "bool"
        },
        {
          "internalType": "bool",
          "name": "overridden",
          "type": "bool"
        }
      ],
      "stateMutability": "view",
      "type": "function"
    },
    {
      "inputs": [
        {
          "internalType": "uint256",
          "name": "",
          "type": "uint256"
        }
      ],
      "name": "disputes",
      "outputs": [
        {
          "internalType": "uint256",
          "name": "numberOfChoices",
          "type": "uint256"
        },
        {
          "internalType": "bool",
          "name": "jumped",
          "type": "bool"
        },
        {
          "internalType": "bytes",
          "name": "extraData",
          "type": "bytes"
        }
      ],
      "stateMutability": "view",
      "type": "function"
    },
    {
      "inputs": [
        {
          "internalType": "uint256",
          "name": "_coreDisputeID",
          "type": "uint256"
        },
        {
          "internalType": "uint256",
          "name": "_nonce",
          "type": "uint256"
        }
      ],
      "name": "draw",
      "outputs": [
        {
          "internalType": "address",
          "name": "drawnAddress",
          "type": "address"
        }
      ],
      "stateMutability": "nonpayable",
      "type": "function"
    },
    {
      "inputs": [
        {
          "internalType": "address",
          "name": "_destination",
          "type": "address"
        },
        {
          "internalType": "uint256",
          "name": "_amount",
          "type": "uint256"
        },
        {
          "internalType": "bytes",
          "name": "_data",
          "type": "bytes"
        }
      ],
      "name": "executeGovernorProposal",
      "outputs": [],
      "stateMutability": "nonpayable",
      "type": "function"
    },
    {
      "inputs": [
        {
          "internalType": "uint256",
          "name": "_coreDisputeID",
          "type": "uint256"
        },
        {
          "internalType": "uint256",
          "name": "_choice",
          "type": "uint256"
        }
      ],
      "name": "fundAppeal",
      "outputs": [],
      "stateMutability": "payable",
      "type": "function"
    },
    {
      "inputs": [
        {
          "internalType": "uint256",
          "name": "_coreDisputeID",
          "type": "uint256"
        },
        {
          "internalType": "uint256",
          "name": "_coreRoundID",
          "type": "uint256"
        }
      ],
      "name": "getCoherentCount",
      "outputs": [
        {
          "internalType": "uint256",
          "name": "",
          "type": "uint256"
        }
      ],
      "stateMutability": "view",
      "type": "function"
    },
    {
      "inputs": [
        {
          "internalType": "uint256",
          "name": "_coreDisputeID",
          "type": "uint256"
        },
        {
          "internalType": "uint256",
          "name": "_coreRoundID",
          "type": "uint256"
        },
        {
          "internalType": "uint256",
          "name": "_voteID",
          "type": "uint256"
        },
        {
          "internalType": "uint256",
          "name": "",
          "type": "uint256"
        },
        {
          "internalType": "uint256",
          "name": "",
          "type": "uint256"
        }
      ],
      "name": "getDegreeOfCoherence",
      "outputs": [
        {
          "internalType": "uint256",
          "name": "",
          "type": "uint256"
        }
      ],
      "stateMutability": "view",
      "type": "function"
    },
    {
      "inputs": [
        {
          "internalType": "uint256",
          "name": "_coreDisputeID",
          "type": "uint256"
        }
      ],
      "name": "getFundedChoices",
      "outputs": [
        {
          "internalType": "uint256[]",
          "name": "fundedChoices",
          "type": "uint256[]"
        }
      ],
      "stateMutability": "view",
      "type": "function"
    },
    {
      "inputs": [
        {
          "internalType": "uint256",
          "name": "_coreDisputeID",
          "type": "uint256"
        },
        {
          "internalType": "uint256",
          "name": "_coreRoundID",
          "type": "uint256"
        }
      ],
      "name": "getLocalDisputeRoundID",
      "outputs": [
        {
          "internalType": "uint256",
          "name": "localDisputeID",
          "type": "uint256"
        },
        {
          "internalType": "uint256",
          "name": "localRoundID",
          "type": "uint256"
        }
      ],
      "stateMutability": "view",
      "type": "function"
    },
    {
      "inputs": [
        {
          "internalType": "uint256",
          "name": "_localDisputeID",
          "type": "uint256"
        }
      ],
      "name": "getNumberOfRounds",
      "outputs": [
        {
          "internalType": "uint256",
          "name": "",
          "type": "uint256"
        }
      ],
      "stateMutability": "view",
      "type": "function"
    },
    {
      "inputs": [
        {
          "internalType": "uint256",
          "name": "_coreDisputeID",
          "type": "uint256"
        },
        {
          "internalType": "uint256",
          "name": "_coreRoundID",
          "type": "uint256"
        },
        {
          "internalType": "uint256",
          "name": "_choice",
          "type": "uint256"
        }
      ],
      "name": "getRoundInfo",
      "outputs": [
        {
          "internalType": "uint256",
          "name": "winningChoice",
          "type": "uint256"
        },
        {
          "internalType": "bool",
          "name": "tied",
          "type": "bool"
        },
        {
          "internalType": "uint256",
          "name": "totalVoted",
          "type": "uint256"
        },
        {
          "internalType": "uint256",
          "name": "totalCommited",
          "type": "uint256"
        },
        {
          "internalType": "uint256",
          "name": "nbVoters",
          "type": "uint256"
        },
        {
          "internalType": "uint256",
          "name": "choiceCount",
          "type": "uint256"
        }
      ],
      "stateMutability": "view",
      "type": "function"
    },
    {
      "inputs": [
        {
          "internalType": "uint256",
          "name": "_coreDisputeID",
          "type": "uint256"
        },
        {
          "internalType": "uint256",
          "name": "_coreRoundID",
          "type": "uint256"
        },
        {
          "internalType": "uint256",
          "name": "_voteID",
          "type": "uint256"
        }
      ],
      "name": "getVoteInfo",
      "outputs": [
        {
          "internalType": "address",
          "name": "account",
          "type": "address"
        },
        {
          "internalType": "bytes32",
          "name": "commit",
          "type": "bytes32"
        },
        {
          "internalType": "uint256",
          "name": "choice",
          "type": "uint256"
        },
        {
          "internalType": "bool",
          "name": "voted",
          "type": "bool"
        }
      ],
      "stateMutability": "view",
      "type": "function"
    },
    {
      "inputs": [],
      "name": "governor",
      "outputs": [
        {
          "internalType": "address",
          "name": "",
          "type": "address"
        }
      ],
      "stateMutability": "view",
      "type": "function"
    },
    {
      "inputs": [
        {
          "internalType": "uint256",
          "name": "_choice",
          "type": "uint256"
        },
        {
          "internalType": "uint256",
          "name": "_salt",
          "type": "uint256"
        },
        {
          "internalType": "string",
          "name": "_justification",
          "type": "string"
        }
      ],
      "name": "hashVote",
      "outputs": [
        {
          "internalType": "bytes32",
          "name": "",
          "type": "bytes32"
        }
      ],
      "stateMutability": "pure",
      "type": "function"
    },
    {
      "inputs": [
        {
          "internalType": "address",
          "name": "_governor",
          "type": "address"
        },
        {
          "internalType": "contract KlerosCore",
          "name": "_core",
          "type": "address"
        },
        {
          "internalType": "address",
          "name": "_wNative",
          "type": "address"
        }
      ],
      "name": "initialize",
      "outputs": [],
      "stateMutability": "nonpayable",
      "type": "function"
    },
    {
      "inputs": [
        {
          "internalType": "uint256",
          "name": "_coreDisputeID",
          "type": "uint256"
        }
      ],
      "name": "isAppealFunded",
      "outputs": [
        {
          "internalType": "bool",
          "name": "",
          "type": "bool"
        }
      ],
      "stateMutability": "view",
      "type": "function"
    },
    {
      "inputs": [
        {
          "internalType": "uint256",
          "name": "_coreDisputeID",
          "type": "uint256"
        },
        {
          "internalType": "uint256",
          "name": "_coreRoundID",
          "type": "uint256"
        },
        {
          "internalType": "uint256",
          "name": "_voteID",
          "type": "uint256"
        }
      ],
      "name": "isVoteActive",
      "outputs": [
        {
          "internalType": "bool",
          "name": "",
          "type": "bool"
        }
      ],
      "stateMutability": "view",
      "type": "function"
    },
    {
      "inputs": [],
      "name": "proxiableUUID",
      "outputs": [
        {
          "internalType": "bytes32",
          "name": "",
          "type": "bytes32"
        }
      ],
      "stateMutability": "view",
      "type": "function"
    },
    {
      "inputs": [
        {
          "internalType": "address",
          "name": "_wNative",
          "type": "address"
        }
      ],
      "name": "reinitialize",
      "outputs": [],
      "stateMutability": "nonpayable",
      "type": "function"
    },
    {
      "inputs": [],
      "name": "singleDrawPerJuror",
      "outputs": [
        {
          "internalType": "bool",
          "name": "",
          "type": "bool"
        }
      ],
      "stateMutability": "view",
      "type": "function"
    },
    {
      "inputs": [
        {
          "internalType": "address",
          "name": "newImplementation",
          "type": "address"
        },
        {
          "internalType": "bytes",
          "name": "data",
          "type": "bytes"
        }
      ],
      "name": "upgradeToAndCall",
      "outputs": [],
      "stateMutability": "payable",
      "type": "function"
    },
    {
      "inputs": [],
      "name": "version",
      "outputs": [
        {
          "internalType": "string",
          "name": "",
          "type": "string"
        }
      ],
      "stateMutability": "view",
      "type": "function"
    },
    {
      "inputs": [],
      "name": "wNative",
      "outputs": [
        {
          "internalType": "address",
          "name": "",
          "type": "address"
        }
      ],
      "stateMutability": "view",
      "type": "function"
    },
    {
      "inputs": [
        {
          "internalType": "uint256",
          "name": "_coreDisputeID",
          "type": "uint256"
        },
        {
          "internalType": "address payable",
          "name": "_beneficiary",
          "type": "address"
        },
        {
          "internalType": "uint256",
          "name": "_coreRoundID",
          "type": "uint256"
        },
        {
          "internalType": "uint256",
          "name": "_choice",
          "type": "uint256"
        }
      ],
      "name": "withdrawFeesAndRewards",
      "outputs": [
        {
          "internalType": "uint256",
          "name": "amount",
          "type": "uint256"
        }
      ],
      "stateMutability": "nonpayable",
      "type": "function"
    }
  ],
  "transactionHash": "0xf344ebf59e326184b97eb77140166a463c219e3f519bd3b812594f093850bd60",
  "args": [],
  "numDeployments": 2,
  "solcInputHash": "726fe29d8d9c48c46571792cebc6e314",
  "bytecode": "0x60a06040523060805234801561001457600080fd5b5061001d610022565b6100d3565b7ff0c57e16840df040f15088dc2f81fe391c3923bec73e23a9662efc9c229c6a0e805468010000000000000000900460ff16156100715760405162dc149f60e41b815260040160405180910390fd5b80546001600160401b03908116146100d05780546001600160401b0319166001600160401b0390811782556040519081527fc7f505b2f371ae2175ee4913f4499e1f2633a7b5936321eed1cdaeb6115181d29060200160405180910390a15b50565b60805161489e6100fc60003960008181611937015281816119600152611b4f015261489e6000f3fe6080604052600436106102465760003560e01c80636d4cd8ea11610139578063be467604116100b6578063e4c0aaf41161007a578063e4c0aaf414610753578063f2f4eb2614610773578063f32ab92714610793578063f7e7d1fd146107c8578063f8abee10146107e8578063fc6f8f161461081857600080fd5b8063be467604146106dd578063c0c53b8b146106f3578063d2b8035a14610713578063da3beb8c14610733578063e349ad30146105c557600080fd5b80638f06f112116100fd5780638f06f1121461061b578063a7cc08fe1461063b578063b34bfaa814610687578063b6ede5401461069d578063ba66fde7146106bd57600080fd5b80636d4cd8ea14610585578063751accd0146105a5578063796490f9146105c55780637c04034e146105db5780638e426460146105fb57600080fd5b80634b2f0ea0116101c75780635a155ccd1161018b5780635a155ccd1461048a5780635c92e2f6146104cb57806365540b96146104eb578063675926f61461051857806369f3f0411461053857600080fd5b80634b2f0ea0146103e15780634f1ef286146103f457806352d1902d1461040757806354fd4d501461041c578063564a565d1461045b57600080fd5b80631c3db16d1161020e5780631c3db16d1461032a5780631cc3423a146103675780632621b9a2146103875780632d68efc9146103a1578063362c3479146103c157600080fd5b80630855bbe91461024b57806309cc41b8146102805780630baa64d1146102a25780630c340a24146102c25780631200aabc146102ef575b600080fd5b34801561025757600080fd5b5061026b610266366004613bfc565b610838565b60405190151581526020015b60405180910390f35b34801561028c57600080fd5b506102a061029b366004613ca1565b610900565b005b3480156102ae57600080fd5b5061026b6102bd366004613bfc565b6109be565b3480156102ce57600080fd5b506000546102e2906001600160a01b031681565b6040516102779190613d31565b3480156102fb57600080fd5b5061031c61030a366004613bfc565b60036020526000908152604090205481565b604051908152602001610277565b34801561033657600080fd5b5061034a610345366004613bfc565b610a35565b604080519384529115156020840152151590820152606001610277565b34801561037357600080fd5b5061031c610382366004613def565b610ba3565b34801561039357600080fd5b5060045461026b9060ff1681565b3480156103ad57600080fd5b506007546102e2906001600160a01b031681565b3480156103cd57600080fd5b5061031c6103dc366004613e53565b610be3565b6102a06103ef366004613e90565b611093565b6102a0610402366004613eb2565b611923565b34801561041357600080fd5b5061031c611b42565b34801561042857600080fd5b5061044e604051806040016040528060068152602001650302e31322e360d41b81525081565b6040516102779190613f51565b34801561046757600080fd5b5061047b610476366004613bfc565b611ba0565b60405161027793929190613f64565b34801561049657600080fd5b5061026b6104a5366004613f85565b600560209081526000938452604080852082529284528284209052825290205460ff1681565b3480156104d757600080fd5b506102a06104e6366004613fbe565b611c66565b3480156104f757600080fd5b5061050b610506366004613bfc565b611c72565b6040516102779190614010565b34801561052457600080fd5b5061031c610533366004614053565b611d36565b34801561054457600080fd5b5061055861055336600461408e565b611e79565b604080519687529415156020870152938501929092526060840152608083015260a082015260c001610277565b34801561059157600080fd5b5061026b6105a0366004613bfc565b611f31565b3480156105b157600080fd5b506102a06105c03660046140ba565b6120b4565b3480156105d157600080fd5b5061031c61271081565b3480156105e757600080fd5b506102a06105f63660046140fc565b612180565b34801561060757600080fd5b506102a0610616366004614184565b612197565b34801561062757600080fd5b506102a06106363660046140fc565b6121e3565b34801561064757600080fd5b5061065b61065636600461408e565b6122a9565b604080516001600160a01b03909516855260208501939093529183015215156060820152608001610277565b34801561069357600080fd5b5061031c614e2081565b3480156106a957600080fd5b506102a06106b83660046141a1565b61236f565b3480156106c957600080fd5b5061026b6106d836600461408e565b612562565b3480156106e957600080fd5b5061031c61138881565b3480156106ff57600080fd5b506102a061070e3660046141fb565b6125fd565b34801561071f57600080fd5b506102e261072e366004613e90565b6126c7565b34801561073f57600080fd5b5061031c61074e366004613e90565b612a16565b34801561075f57600080fd5b506102a061076e366004614184565b612b69565b34801561077f57600080fd5b506001546102e2906001600160a01b031681565b34801561079f57600080fd5b506107b36107ae366004613e90565b612bb5565b60408051928352602083019190915201610277565b3480156107d457600080fd5b506102a06107e3366004614184565b612c07565b3480156107f457600080fd5b5061026b610803366004613bfc565b60066020526000908152604090205460ff1681565b34801561082457600080fd5b5061031c610833366004613bfc565b612cd9565b60015460405163afe15cfb60e01b815260048101839052600091829182916001600160a01b03169063afe15cfb906024016040805180830381865afa158015610885573d6000803e3d6000fd5b505050506040513d601f19601f820116820180604052508101906108a9919061423b565b9150915060006108b885611c72565b9050805160001480156108f757506127106113886108d68585614275565b6108e09190614288565b6108ea919061429f565b6108f48442614275565b10155b95945050505050565b600087815260036020526040902054600280548992908110610924576109246142c1565b600091825260209091206002600590920201015460ff16156109615760405162461bcd60e51b8152600401610958906142d7565b60405180910390fd5b61096d88888888612d05565b84336001600160a01b0316897fbc1efa6396a4ba1a755245703b38c48fbe744ab5117d9f09f47d26ffc1df999e8787876040516109ac93929190614337565b60405180910390a45050505050505050565b6000818152600360205260408120546002805483929081106109e2576109e26142c1565b60009182526020822060059091020180549092508290610a0490600190614275565b81548110610a1457610a146142c1565b60009182526020909120600c90910201805460059091015414949350505050565b6000806000806002600360008781526020019081526020016000205481548110610a6157610a616142c1565b60009182526020822060059091020180549092508290610a8390600190614275565b81548110610a9357610a936142c1565b60009182526020909120600c90910201600381015460ff169450905083610abe578060010154610ac1565b60005b60015460405163564a565d60e01b8152600481018990529196506000916001600160a01b039091169063564a565d9060240160a060405180830381865afa158015610b10573d6000803e3d6000fd5b505050506040513d601f19601f82011682018060405250810190610b34919061437d565b5090935060049250610b44915050565b816004811115610b5657610b566143e6565b03610b99576000610b6688611c72565b90508051600103610b975780600081518110610b8457610b846142c1565b6020026020010151965060009550600194505b505b5050509193909250565b80516020808301919091206040805180840187905280820186905260608082019390935281518082039093018352608001905280519101205b9392505050565b60015460405163564a565d60e01b81526004810186905260009182916001600160a01b039091169063564a565d9060240160a060405180830381865afa158015610c31573d6000803e3d6000fd5b505050506040513d601f19601f82011682018060405250810190610c55919061437d565b50935050505080610ca85760405162461bcd60e51b815260206004820152601b60248201527f446973707574652073686f756c64206265207265736f6c7665642e00000000006044820152606401610958565b600160009054906101000a90046001600160a01b03166001600160a01b0316635c975abb6040518163ffffffff1660e01b8152600401602060405180830381865afa158015610cfb573d6000803e3d6000fd5b505050506040513d601f19601f82011682018060405250810190610d1f91906143fc565b15610d5d5760405162461bcd60e51b815260206004820152600e60248201526d10dbdc99481a5cc81c185d5cd95960921b6044820152606401610958565b60008681526006602052604090205460ff16610d8b5760405162461bcd60e51b815260040161095890614417565b600086815260036020526040812054600280549091908110610daf57610daf6142c1565b60009182526020808320888452600360059093020191820190526040822054815491935083918110610de357610de36142c1565b600091825260208220600154604051631c3db16d60e01b8152600481018d9052600c9390930290910193506001600160a01b031690631c3db16d90602401606060405180830381865afa158015610e3e573d6000803e3d6000fd5b505050506040513d601f19601f82011682018060405250810190610e62919061444e565b5050600087815260078401602052604090205490915060ff16610eac576001600160a01b038816600090815260088301602090815260408083208984529091529020549450610ff1565b808603610f21576000868152600683016020526040902054610ecf576000610f1a565b600086815260068301602090815260408083205460098601546001600160a01b038d1685526008870184528285208b8652909352922054610f109190614288565b610f1a919061429f565b9450610ff1565b600081815260078301602052604090205460ff16610ff15781600601600083600a01600181548110610f5557610f556142c1565b906000526020600020015481526020019081526020016000205482600601600084600a01600081548110610f8b57610f8b6142c1565b9060005260206000200154815260200190815260200160002054610faf919061448a565b60098301546001600160a01b038a16600090815260088501602090815260408083208b8452909152902054610fe49190614288565b610fee919061429f565b94505b6001600160a01b03881660009081526008830160209081526040808320898452909152812055841561108757600754611038906001600160a01b038a811691889116613068565b876001600160a01b0316878a7f54b3cab3cb5c4aca3209db1151caff092e878011202e43a36782d4ebe0b963ae898960405161107e929190918252602082015260400190565b60405180910390a45b50505050949350505050565b6000828152600360205260409020546002805484929081106110b7576110b76142c1565b600091825260209091206002600590920201015460ff16156110eb5760405162461bcd60e51b8152600401610958906142d7565b60008381526003602052604081205460028054909190811061110f5761110f6142c1565b9060005260206000209060050201905080600101548311156111735760405162461bcd60e51b815260206004820181905260248201527f5468657265206973206e6f20737563682072756c696e6720746f2066756e642e6044820152606401610958565b60008481526006602052604090205460ff166111a15760405162461bcd60e51b815260040161095890614417565b60015460405163afe15cfb60e01b81526004810186905260009182916001600160a01b039091169063afe15cfb906024016040805180830381865afa1580156111ee573d6000803e3d6000fd5b505050506040513d601f19601f82011682018060405250810190611212919061423b565b9150915081421015801561122557508042105b61126a5760405162461bcd60e51b815260206004820152601660248201527520b83832b0b6103832b934b7b21034b99037bb32b91760511b6044820152606401610958565b604051631c3db16d60e01b81526004810187905260009081903090631c3db16d90602401606060405180830381865afa1580156112ab573d6000803e3d6000fd5b505050506040513d601f19601f820116820180604052508101906112cf919061444e565b505090508681036112e4576127109150611365565b6127106113886112f48686614275565b6112fe9190614288565b611308919061429f565b6113128542614275565b1061135f5760405162461bcd60e51b815260206004820152601f60248201527f41707065616c20706572696f64206973206f76657220666f72206c6f736572006044820152606401610958565b614e2091505b8454600090869061137890600190614275565b81548110611388576113886142c1565b60009182526020822060018054604051637e37c78b60e11b8152600481018f9052600c949094029092019450916001600160a01b039091169063fc6f8f1690602401602060405180830381865afa1580156113e7573d6000803e3d6000fd5b505050506040513d601f19601f8201168201806040525081019061140b919061449d565b6114159190614275565b60008a815260078401602052604090205490915060ff16156114795760405162461bcd60e51b815260206004820152601b60248201527f41707065616c2066656520697320616c726561647920706169642e00000000006044820152606401610958565b600154604051632cf6413f60e11b8152600481018c90526000916001600160a01b0316906359ec827e90602401602060405180830381865afa1580156114c3573d6000803e3d6000fd5b505050506040513d601f19601f820116820180604052508101906114e7919061449d565b905060006127106114f88784614288565b611502919061429f565b61150c908361448a565b60008c8152600686016020526040812054919250908211156115bd5760008c815260068601602052604090205434906115459084614275565b1161156a5760008c81526006860160205260409020546115659083614275565b61156c565b345b9050336001600160a01b0316848e7fcae597f39a3ad75c2e10d46b031f023c5c2babcd58ca0491b122acda3968d4c08f856040516115b4929190918252602082015260400190565b60405180910390a45b33600090815260088601602090815260408083208f8452909152812080548392906115e990849061448a565b909155505060008c81526006860160205260408120805483929061160e90849061448a565b909155505060008c815260068601602052604090205482116116e05760008c81526006860160205260408120546009870180549192909161165090849061448a565b9250508190555084600a018c908060018154018082558091505060019003906000526020600020016000909190919091505560018560070160008e815260200190815260200160002060006101000a81548160ff0219169083151502179055508b848e7fed764996238e4c1c873ae3af7ae2f00f1f6f4f10b9ac7d4bbea4a764c5dea00960405160405180910390a45b600a850154600110156118eb578285600901546116fd9190614275565b60098601556001546040516319b8152960e01b8152600481018f90526001600160a01b03909116906319b8152990602401602060405180830381865afa15801561174b573d6000803e3d6000fd5b505050506040513d601f19601f8201168201806040525081019061176f91906143fc565b156117885760028a01805460ff1916600117905561186b565b895460038b01600061179b87600161448a565b81526020019081526020016000208190555060008a6000016001816001815401808255809150500390600052602060002090600c02019050600160009054906101000a90046001600160a01b03166001600160a01b031663c71f42538f6040518263ffffffff1660e01b815260040161181691815260200190565b602060405180830381865afa158015611833573d6000803e3d6000fd5b505050506040513d601f19601f82011682018060405250810190611857919061449d565b600b820155600301805460ff191660011790555b600160009054906101000a90046001600160a01b03166001600160a01b031663c3569902848f8d600101548e6004016040518563ffffffff1660e01b81526004016118b8939291906144f0565b6000604051808303818588803b1580156118d157600080fd5b505af11580156118e5573d6000803e3d6000fd5b50505050505b80341115611914576119146119008234614275565b6007543391906001600160a01b0316613068565b50505050505050505050505050565b61192c82613153565b306001600160a01b037f00000000000000000000000000000000000000000000000000000000000000001614806119aa57507f00000000000000000000000000000000000000000000000000000000000000006001600160a01b031661199e6000805160206148498339815191525490565b6001600160a01b031614155b156119c85760405163703e46dd60e11b815260040160405180910390fd5b816001600160a01b03166352d1902d6040518163ffffffff1660e01b8152600401602060405180830381865afa925050508015611a22575060408051601f3d908101601f19168201909252611a1f9181019061449d565b60015b611a415781604051630c76093760e01b81526004016109589190613d31565b6000805160206148498339815191528114611a7257604051632a87526960e21b815260048101829052602401610958565b6000805160206148498339815191528390556040516001600160a01b038416907fbc7cd75a20ee27fd9adebab32041f755214dbc6bffa90cc0225b39da2e5c2d3b90600090a2815115611b3d576000836001600160a01b031683604051611ad9919061458a565b600060405180830381855af49150503d8060008114611b14576040519150601f19603f3d011682016040523d82523d6000602084013e611b19565b606091505b5050905080611b3b576040516339b21b5d60e11b815260040160405180910390fd5b505b505050565b6000306001600160a01b037f00000000000000000000000000000000000000000000000000000000000000001614611b8d5760405163703e46dd60e11b815260040160405180910390fd5b5060008051602061484983398151915290565b60028181548110611bb057600080fd5b600091825260209091206005909102016001810154600282015460048301805492945060ff9091169291611be3906144b6565b80601f0160208091040260200160405190810160405280929190818152602001828054611c0f906144b6565b8015611c5c5780601f10611c3157610100808354040283529160200191611c5c565b820191906000526020600020905b815481529060010190602001808311611c3f57829003601f168201915b5050505050905083565b611b3b84848484612d05565b6000818152600360205260408120546002805460609392908110611c9857611c986142c1565b60009182526020822060059091020180549092508290611cba90600190614275565b81548110611cca57611cca6142c1565b90600052602060002090600c0201905080600a01805480602002602001604051908101604052809291908181526020018280548015611d2857602002820191906000526020600020905b815481526020019060010190808311611d14575b505050505092505050919050565b600085815260036020526040812054600280548392908110611d5a57611d5a6142c1565b60009182526020808320898452600360059093020191820190526040822054815491935083918110611d8e57611d8e6142c1565b90600052602060002090600c02016000018681548110611db057611db06142c1565b600091825260208220600154604051631c3db16d60e01b815260048082018e905293909302909101935082916001600160a01b0390911690631c3db16d90602401606060405180830381865afa158015611e0e573d6000803e3d6000fd5b505050506040513d601f19601f82011682018060405250810190611e32919061444e565b506003850154919350915060ff168015611e5657508183600201541480611e565750805b15611e69576127109450505050506108f7565b5060009998505050505050505050565b60008060008060008060006002600360008c81526020019081526020016000205481548110611eaa57611eaa6142c1565b600091825260208083208c8452600360059093020191820190526040822054815491935083918110611ede57611ede6142c1565b600091825260208083206001600c909302019182015460038301546004840154600585015485549f87526002909501909352604090942054909f60ff9094169e50909c50909a9950975095505050505050565b600081815260036020526040812054600280548392908110611f5557611f556142c1565b60009182526020822060059091020180549092508290611f7790600190614275565b81548110611f8757611f876142c1565b60009182526020822060015460405163564a565d60e01b815260048101899052600c9390930290910193506001600160a01b03169063564a565d9060240160a060405180830381865afa158015611fe2573d6000803e3d6000fd5b505050506040513d601f19601f82011682018060405250810190612006919061437d565b5050600154604051630fad06e960e11b81526001600160601b03851660048201529394506000936001600160a01b039091169250631f5a0dd2915060240160e060405180830381865afa158015612061573d6000803e3d6000fd5b505050506040513d601f19601f8201168201806040525081019061208591906145a6565b505050505091505060008161209b5783546120a1565b83600501545b6004909401549093149695505050505050565b6000546001600160a01b031633146120de5760405162461bcd60e51b815260040161095890614612565b6000836001600160a01b031683836040516120f9919061458a565b60006040518083038185875af1925050503d8060008114612136576040519150601f19603f3d011682016040523d82523d6000602084013e61213b565b606091505b5050905080611b3b5760405162461bcd60e51b8152602060048201526011602482015270155b9cdd58d8d95cdcd99d5b0818d85b1b607a1b6044820152606401610958565b61218f86868686868633613180565b505050505050565b6000546001600160a01b031633146121c15760405162461bcd60e51b815260040161095890614612565b600180546001600160a01b0319166001600160a01b0392909216919091179055565b600086815260036020526040812054600280549091908110612207576122076142c1565b6000918252602082206005909102018054909250829061222990600190614275565b81548110612239576122396142c1565b90600052602060002090600c02016000018787600081811061225d5761225d6142c1565b9050602002013581548110612274576122746142c1565b60009182526020909120600490910201546001600160a01b0316905061229f88888888888887613180565b5050505050505050565b60008060008060006002600360008a815260200190815260200160002054815481106122d7576122d76142c1565b600091825260208083208a845260036005909302019182019052604082205481549193508391811061230b5761230b6142c1565b90600052602060002090600c0201600001878154811061232d5761232d6142c1565b600091825260209091206004909102018054600182015460028301546003909301546001600160a01b039092169c909b5091995060ff16975095505050505050565b6001546001600160a01b031633146123995760405162461bcd60e51b815260040161095890614654565b60028054600181018255600091909152600581027f405787fa12a823e0f2b7631cc41b3ba8828b3321ca811111fa75cd3aa3bb5acf81018690557f405787fa12a823e0f2b7631cc41b3ba8828b3321ca811111fa75cd3aa3bb5ace8101907f405787fa12a823e0f2b7631cc41b3ba8828b3321ca811111fa75cd3aa3bb5ad2016124248587836146e6565b5060028101805460ff19169055805460018054604051637e37c78b60e11b8152600481018b9052600385019260009290916001600160a01b039091169063fc6f8f1690602401602060405180830381865afa158015612487573d6000803e3d6000fd5b505050506040513d601f19601f820116820180604052508101906124ab919061449d565b6124b59190614275565b81526020808201929092526040908101600090812093909355835460018082018655858552838520600c909202909101600b81018890556003808201805460ff1990811685179091558d87529085528386208890556006909452938290208054909316179091555188907fd3106f74c2d30a4b9230e756a3e78bde53865d40f6af4c479bb010ebaab5810890612550908a908a908a90614337565b60405180910390a25050505050505050565b600083815260036020526040812054600280548392908110612586576125866142c1565b600091825260208083208784526003600590930201918201905260408220548154919350839181106125ba576125ba6142c1565b90600052602060002090600c020160000184815481106125dc576125dc6142c1565b600091825260209091206004909102016003015460ff169695505050505050565b600160006126096138b1565b8054909150600160401b900460ff1680612630575080546001600160401b03808416911610155b1561264d5760405162dc149f60e41b815260040160405180910390fd5b805468ffffffffffffffffff19166001600160401b03831617600160401b1781556126798585856138d5565b805460ff60401b191681556040516001600160401b03831681527fc7f505b2f371ae2175ee4913f4499e1f2633a7b5936321eed1cdaeb6115181d29060200160405180910390a15050505050565b6001546000906001600160a01b031633146126f45760405162461bcd60e51b815260040161095890614654565b600083815260036020526040902054600280548592908110612718576127186142c1565b600091825260209091206002600590920201015460ff161561274c5760405162461bcd60e51b8152600401610958906142d7565b6000848152600360205260408120546002805491929183908110612772576127726142c1565b600091825260208220600590910201805490925061279290600190614275565b905060008260000182815481106127ab576127ab6142c1565b90600052602060002090600c020190506000600160009054906101000a90046001600160a01b03166001600160a01b0316632e1daf2f6040518163ffffffff1660e01b8152600401602060405180830381865afa158015612810573d6000803e3d6000fd5b505050506040513d601f19601f8201168201806040525081019061283491906147a5565b60015460405163564a565d60e01b8152600481018c90529192506000916001600160a01b039091169063564a565d9060240160a060405180830381865afa158015612883573d6000803e3d6000fd5b505050506040513d601f19601f820116820180604052508101906128a7919061437d565b5050604051632638506b60e11b81526001600160601b03841660048201819052602482018f9052604482018e90529394506001600160a01b0386169250634c70a0d69150606401602060405180830381865afa15801561290b573d6000803e3d6000fd5b505050506040513d601f19601f8201168201806040525081019061292f91906147a5565b98506001600160a01b03891661294b5750505050505050612a0f565b612956848c8b61391c565b15612a0257604080516080810182526001600160a01b03808c1680835260006020808501828152858701838152606087018481528c5460018181018f558e8752858720995160049092029099018054919098166001600160a01b0319909116178755915186880155516002860155516003909401805494151560ff199586161790558c8252600581528582208b8352815285822092825291909152929092208054909216179055612a07565b600098505b505050505050505b5092915050565b600082815260036020526040812054600280548392908110612a3a57612a3a6142c1565b60009182526020808320868452600360059093020191820190526040822054815491935083918110612a6e57612a6e6142c1565b600091825260208220600154604051631c3db16d60e01b8152600481018a9052600c93909302909101935082916001600160a01b0390911690631c3db16d90602401606060405180830381865afa158015612acd573d6000803e3d6000fd5b505050506040513d601f19601f82011682018060405250810190612af1919061444e565b5091509150826004015460001480612b20575080158015612b2057506000828152600284016020526040902054155b15612b32576000945050505050612b63565b8015612b47575050600401549150612b639050565b506000908152600290910160205260409020549150612b639050565b92915050565b6000546001600160a01b03163314612b935760405162461bcd60e51b815260040161095890614612565b600080546001600160a01b0319166001600160a01b0392909216919091179055565b6000828152600360205260408120546002805491929183908110612bdb57612bdb6142c1565b906000526020600020906005020160030160008481526020019081526020016000205490509250929050565b60096000612c136138b1565b8054909150600160401b900460ff1680612c3a575080546001600160401b03808416911610155b15612c575760405162dc149f60e41b815260040160405180910390fd5b8054600160401b6001600160401b03841668ffffffffffffffffff199092168217178255600780546001600160a01b0319166001600160a01b038616179055815460ff60401b191682556040519081527fc7f505b2f371ae2175ee4913f4499e1f2633a7b5936321eed1cdaeb6115181d29060200160405180910390a1505050565b600060028281548110612cee57612cee6142c1565b600091825260209091206005909102015492915050565b600084815260036020526040902054600280548692908110612d2957612d296142c1565b600091825260209091206002600590920201015460ff1615612d5d5760405162461bcd60e51b8152600401610958906142d7565b60015460405163564a565d60e01b8152600481018790526000916001600160a01b03169063564a565d9060240160a060405180830381865afa158015612da7573d6000803e3d6000fd5b505050506040513d601f19601f82011682018060405250810190612dcb919061437d565b5090935060019250612ddb915050565b816004811115612ded57612ded6143e6565b14612e4a5760405162461bcd60e51b815260206004820152602760248201527f54686520646973707574652073686f756c6420626520696e20436f6d6d6974206044820152663832b934b7b21760c91b6064820152608401610958565b82612e875760405162461bcd60e51b815260206004820152600d60248201526c22b6b83a3c9031b7b6b6b4ba1760991b6044820152606401610958565b60008681526006602052604090205460ff16612eb55760405162461bcd60e51b815260040161095890614417565b600086815260036020526040812054600280549091908110612ed957612ed96142c1565b60009182526020822060059091020180549092508290612efb90600190614275565b81548110612f0b57612f0b6142c1565b90600052602060002090600c0201905060005b86811015613001573382898984818110612f3a57612f3a6142c1565b9050602002013581548110612f5157612f516142c1565b60009182526020909120600490910201546001600160a01b031614612fb85760405162461bcd60e51b815260206004820152601f60248201527f5468652063616c6c65722068617320746f206f776e2074686520766f74652e006044820152606401610958565b8582898984818110612fcc57612fcc6142c1565b9050602002013581548110612fe357612fe36142c1565b60009182526020909120600160049092020181019190915501612f1e565b5086869050816005016000828254613019919061448a565b9091555050604051339089907f05cc2f1c94966f1c961b410a50f3d3ffb64501346753a258177097ea23707f0890613056908b908b908b906147f4565b60405180910390a35050505050505050565b6040516001600160a01b0384169083156108fc029084906000818181858888f193505050501561309757505050565b806001600160a01b031663d0e30db0836040518263ffffffff1660e01b81526004016000604051808303818588803b1580156130d257600080fd5b505af11580156130e6573d6000803e3d6000fd5b505060405163a9059cbb60e01b81526001600160a01b038781166004830152602482018790528516935063a9059cbb92506044019050600060405180830381600087803b15801561313657600080fd5b505af115801561314a573d6000803e3d6000fd5b50505050505050565b6000546001600160a01b0316331461317d5760405162461bcd60e51b815260040161095890614612565b50565b6000878152600360205260409020546002805489929081106131a4576131a46142c1565b600091825260209091206002600590920201015460ff16156131d85760405162461bcd60e51b8152600401610958906142d7565b60015460405163564a565d60e01b8152600481018a90526000916001600160a01b03169063564a565d9060240160a060405180830381865afa158015613222573d6000803e3d6000fd5b505050506040513d601f19601f82011682018060405250810190613246919061437d565b5090935060029250613256915050565b816004811115613268576132686143e6565b146132c35760405162461bcd60e51b815260206004820152602560248201527f54686520646973707574652073686f756c6420626520696e20566f74652070656044820152643934b7b21760d91b6064820152608401610958565b866133055760405162461bcd60e51b8152602060048201526012602482015271139bc81d9bdd195251081c1c9bdd9a59195960721b6044820152606401610958565b60008981526006602052604090205460ff166133335760405162461bcd60e51b815260040161095890614417565b600089815260036020526040812054600280549091908110613357576133576142c1565b9060005260206000209060050201905080600101548711156133b25760405162461bcd60e51b815260206004820152601460248201527343686f696365206f7574206f6620626f756e647360601b6044820152606401610958565b805460009082906133c590600190614275565b815481106133d5576133d56142c1565b60009182526020822060015460405163564a565d60e01b8152600c90930290910193506001600160a01b03169063564a565d9061341a908f9060040190815260200190565b60a060405180830381865afa158015613437573d6000803e3d6000fd5b505050506040513d601f19601f8201168201806040525081019061345b919061437d565b5050600154604051630fad06e960e11b81526001600160601b03851660048201529394506000936001600160a01b039091169250631f5a0dd2915060240160e060405180830381865afa1580156134b6573d6000803e3d6000fd5b505050506040513d601f19601f820116820180604052508101906134da91906145a6565b505050505091505060006134ef8b8b8b610ba3565b905060005b8c811015613776576001600160a01b038916858f8f84818110613519576135196142c1565b9050602002013581548110613530576135306142c1565b60009182526020909120600490910201546001600160a01b0316146135975760405162461bcd60e51b815260206004820152601e60248201527f546865206a75726f722068617320746f206f776e2074686520766f74652e00006044820152606401610958565b8215806135de575081858f8f848181106135b3576135b36142c1565b90506020020135815481106135ca576135ca6142c1565b906000526020600020906004020160010154145b61365e5760405162461bcd60e51b8152602060048201526044602482018190527f54686520766f74652068617368206d757374206d617463682074686520636f6d908201527f6d69746d656e7420696e20636f7572747320776974682068696464656e20766f6064820152633a32b99760e11b608482015260a401610958565b848e8e83818110613671576136716142c1565b9050602002013581548110613688576136886142c1565b600091825260209091206003600490920201015460ff16156136e15760405162461bcd60e51b81526020600482015260126024820152712b37ba329030b63932b0b23c9031b0b9ba1760711b6044820152606401610958565b8b858f8f848181106136f5576136f56142c1565b905060200201358154811061370c5761370c6142c1565b60009182526020909120600260049092020101556001858f8f84818110613735576137356142c1565b905060200201358154811061374c5761374c6142c1565b60009182526020909120600490910201600301805460ff19169115159190911790556001016134f4565b5050506004820180548b925060009061379090849061448a565b90915550506000888152600282016020526040812080548b92906137b590849061448a565b9091555050600181015488036137e457600381015460ff16156137df5760038101805460ff191690555b61385d565b60018101546000908152600282016020526040808220548a83529120540361382657600381015460ff166137df5760038101805460ff1916600117905561385d565b60018101546000908152600282016020526040808220548a8352912054111561385d576001810188905560038101805460ff191690555b87856001600160a01b03168c7fa000893c71384499023d2d7b21234f7b9e80c78e0330f357dcd667ff578bd3a48d8d8b60405161389c93929190614818565b60405180910390a45050505050505050505050565b7ff0c57e16840df040f15088dc2f81fe391c3923bec73e23a9662efc9c229c6a0e90565b6138dd613ade565b600080546001600160a01b039485166001600160a01b031991821617909155600180549385169382169390931790925560078054919093169116179055565b6000613929848484613b05565b61393557506000610bdc565b600083815260036020526040812054600280549192918390811061395b5761395b6142c1565b906000526020600020906005020190506000806000613a05846004018054613982906144b6565b80601f01602080910402602001604051908101604052809291908181526020018280546139ae906144b6565b80156139fb5780601f106139d0576101008083540402835291602001916139fb565b820191906000526020600020905b8154815290600101906020018083116139de57829003601f168201915b5050505050613b9d565b919450925090506001600160a01b038316613a2857600195505050505050610bdc565b8115613aaf57604051627eeac760e11b81526001600160a01b038881166004830152602482018390526000919085169062fdd58e906044015b602060405180830381865afa158015613a7e573d6000803e3d6000fd5b505050506040513d601f19601f82011682018060405250810190613aa2919061449d565b1195505050505050610bdc565b6040516370a0823160e01b81526000906001600160a01b038516906370a0823190613a61908b90600401613d31565b613ae6613be2565b613b0357604051631afcd79f60e31b815260040160405180910390fd5b565b60045460009060ff1615613b93576000838152600360205260408120546002805491929183908110613b3957613b396142c1565b6000918252602082206005909102018054909250613b5990600190614275565b60009384526005602090815260408086209286529181528185206001600160a01b038816865290529092205460ff16159250610bdc915050565b5060019392505050565b600080600060a084511015613bba57506000915081905080613bdb565b505050608081015160a0808301516001600160a01b0383169290911c600116905b9193909250565b6000613bec6138b1565b54600160401b900460ff16919050565b600060208284031215613c0e57600080fd5b5035919050565b60008083601f840112613c2757600080fd5b5081356001600160401b03811115613c3e57600080fd5b6020830191508360208260051b8501011115613c5957600080fd5b9250929050565b60008083601f840112613c7257600080fd5b5081356001600160401b03811115613c8957600080fd5b602083019150836020828501011115613c5957600080fd5b600080600080600080600060a0888a031215613cbc57600080fd5b8735965060208801356001600160401b03811115613cd957600080fd5b613ce58a828b01613c15565b909750955050604088013593506060880135925060808801356001600160401b03811115613d1257600080fd5b613d1e8a828b01613c60565b989b979a50959850939692959293505050565b6001600160a01b0391909116815260200190565b634e487b7160e01b600052604160045260246000fd5b600082601f830112613d6c57600080fd5b8135602083016000806001600160401b03841115613d8c57613d8c613d45565b50604051601f19601f85018116603f011681018181106001600160401b0382111715613dba57613dba613d45565b604052838152905080828401871015613dd257600080fd5b838360208301376000602085830101528094505050505092915050565b600080600060608486031215613e0457600080fd5b833592506020840135915060408401356001600160401b03811115613e2857600080fd5b613e3486828701613d5b565b9150509250925092565b6001600160a01b038116811461317d57600080fd5b60008060008060808587031215613e6957600080fd5b843593506020850135613e7b81613e3e565b93969395505050506040820135916060013590565b60008060408385031215613ea357600080fd5b50508035926020909101359150565b60008060408385031215613ec557600080fd5b8235613ed081613e3e565b915060208301356001600160401b03811115613eeb57600080fd5b613ef785828601613d5b565b9150509250929050565b60005b83811015613f1c578181015183820152602001613f04565b50506000910152565b60008151808452613f3d816020860160208601613f01565b601f01601f19169290920160200192915050565b602081526000610bdc6020830184613f25565b83815282151560208201526060604082015260006108f76060830184613f25565b600080600060608486031215613f9a57600080fd5b83359250602084013591506040840135613fb381613e3e565b809150509250925092565b60008060008060608587031215613fd457600080fd5b8435935060208501356001600160401b03811115613ff157600080fd5b613ffd87828801613c15565b9598909750949560400135949350505050565b602080825282518282018190526000918401906040840190835b8181101561404857835183526020938401939092019160010161402a565b509095945050505050565b600080600080600060a0868803121561406b57600080fd5b505083359560208501359550604085013594606081013594506080013592509050565b6000806000606084860312156140a357600080fd5b505081359360208301359350604090920135919050565b6000806000606084860312156140cf57600080fd5b83356140da81613e3e565b92506020840135915060408401356001600160401b03811115613e2857600080fd5b60008060008060008060a0878903121561411557600080fd5b8635955060208701356001600160401b0381111561413257600080fd5b61413e89828a01613c15565b909650945050604087013592506060870135915060808701356001600160401b0381111561416b57600080fd5b61417789828a01613d5b565b9150509295509295509295565b60006020828403121561419657600080fd5b8135610bdc81613e3e565b6000806000806000608086880312156141b957600080fd5b853594506020860135935060408601356001600160401b038111156141dd57600080fd5b6141e988828901613c60565b96999598509660600135949350505050565b60008060006060848603121561421057600080fd5b833561421b81613e3e565b9250602084013561422b81613e3e565b91506040840135613fb381613e3e565b6000806040838503121561424e57600080fd5b505080516020909101519092909150565b634e487b7160e01b600052601160045260246000fd5b81810381811115612b6357612b6361425f565b8082028115828204841417612b6357612b6361425f565b6000826142bc57634e487b7160e01b600052601260045260246000fd5b500490565b634e487b7160e01b600052603260045260246000fd5b6020808252601e908201527f44697370757465206a756d70656420746f206120706172656e7420444b210000604082015260600190565b81835281816020850137506000828201602090810191909152601f909101601f19169091010190565b8381526040602082015260006108f760408301848661430e565b80516001600160601b038116811461436857600080fd5b919050565b8051801515811461436857600080fd5b600080600080600060a0868803121561439557600080fd5b61439e86614351565b945060208601516143ae81613e3e565b6040870151909450600581106143c357600080fd5b92506143d16060870161436d565b60809690960151949793965091949392915050565b634e487b7160e01b600052602160045260246000fd5b60006020828403121561440e57600080fd5b610bdc8261436d565b6020808252601e908201527f4e6f742061637469766520666f7220636f726520646973707574652049440000604082015260600190565b60008060006060848603121561446357600080fd5b835192506144736020850161436d565b91506144816040850161436d565b90509250925092565b80820180821115612b6357612b6361425f565b6000602082840312156144af57600080fd5b5051919050565b600181811c908216806144ca57607f821691505b6020821081036144ea57634e487b7160e01b600052602260045260246000fd5b50919050565b83815282602082015260606040820152600080835461450e816144b6565b806060860152600182166000811461452d57600181146145495761457d565b60ff1983166080870152608082151560051b870101935061457d565b86600052602060002060005b8381101561457457815488820160800152600190910190602001614555565b87016080019450505b5091979650505050505050565b6000825161459c818460208701613f01565b9190910192915050565b600080600080600080600060e0888a0312156145c157600080fd5b6145ca88614351565b96506145d86020890161436d565b604089015160608a015160808b015160a08c015193995091975095509350915061460460c0890161436d565b905092959891949750929550565b60208082526022908201527f416363657373206e6f7420616c6c6f7765643a20476f7665726e6f72206f6e6c6040820152613c9760f11b606082015260800190565b60208082526024908201527f416363657373206e6f7420616c6c6f7765643a204b6c65726f73436f7265206f60408201526337363c9760e11b606082015260800190565b601f821115611b3d57806000526020600020601f840160051c810160208510156146bf5750805b601f840160051c820191505b818110156146df57600081556001016146cb565b5050505050565b6001600160401b038311156146fd576146fd613d45565b6147118361470b83546144b6565b83614698565b6000601f841160018114614745576000851561472d5750838201355b600019600387901b1c1916600186901b1783556146df565b600083815260209020601f19861690835b828110156147765786850135825560209485019460019092019101614756565b50868210156147935760001960f88860031b161c19848701351681555b505060018560011b0183555050505050565b6000602082840312156147b757600080fd5b8151610bdc81613e3e565b81835260006001600160fb1b038311156147db57600080fd5b8260051b80836020870137939093016020019392505050565b6040815260006148086040830185876147c2565b9050826020830152949350505050565b60408152600061482c6040830185876147c2565b828103602084015261483e8185613f25565b969550505050505056fe360894a13ba1a3210667c828492db98dca3e2076cc3735a920a3ca505d382bbca2646970667358221220cd5d3742f8c0524170b60f04c4a752d412f4c6d549337356905de2b1c28294eb64736f6c634300081c0033",
  "devdoc": {
    "errors": {
      "AlreadyInitialized()": [
        {
          "details": "The contract is already initialized."
        }
      ],
      "InvalidImplementation(address)": [
        {
          "details": "The `implementation` is not UUPS-compliant"
        }
      ],
      "NotInitializing()": [
        {
          "details": "The contract is not initializing."
        }
      ],
      "UUPSUnauthorizedCallContext()": [
        {
          "details": "The call is from an unauthorized context."
        }
      ],
      "UUPSUnsupportedProxiableUUID(bytes32)": [
        {
          "details": "The storage `slot` is unsupported as a UUID."
        }
      ]
    },
    "events": {
      "ChoiceFunded(uint256,uint256,uint256)": {
        "details": "To be emitted when a choice is fully funded for an appeal.",
        "params": {
          "_choice": "The choice that is being funded.",
          "_coreDisputeID": "The identifier of the dispute in the Arbitrator contract.",
          "_coreRoundID": "The identifier of the round in the Arbitrator contract."
        }
      },
      "CommitCast(uint256,address,uint256[],bytes32)": {
        "details": "To be emitted when a vote commitment is cast.",
        "params": {
          "_commit": "The commitment of the juror.",
          "_coreDisputeID": "The identifier of the dispute in the Arbitrator contract.",
          "_juror": "The address of the juror casting the vote commitment.",
          "_voteIDs": "The identifiers of the votes in the dispute."
        }
      },
      "CommitCastShutter(uint256,address,bytes32,bytes32,bytes)": {
        "details": "Emitted when a vote is cast.",
        "params": {
          "_commit": "The commitment hash.",
          "_coreDisputeID": "The identifier of the dispute in the Arbitrator contract.",
          "_encryptedVote": "The Shutter encrypted vote.",
          "_identity": "The Shutter identity used for encryption.",
          "_juror": "The address of the juror casting the vote commitment."
        }
      },
      "Contribution(uint256,uint256,uint256,address,uint256)": {
        "details": "To be emitted when a funding contribution is made.",
        "params": {
          "_amount": "The amount contributed.",
          "_choice": "The choice that is being funded.",
          "_contributor": "The address of the contributor.",
          "_coreDisputeID": "The identifier of the dispute in the Arbitrator contract.",
          "_coreRoundID": "The identifier of the round in the Arbitrator contract."
        }
      },
      "DisputeCreation(uint256,uint256,bytes)": {
        "details": "To be emitted when a dispute is created.",
        "params": {
          "_coreDisputeID": "The identifier of the dispute in the Arbitrator contract.",
          "_extraData": "The extra data for the dispute.",
          "_numberOfChoices": "The number of choices available in the dispute."
        }
      },
      "Initialized(uint64)": {
        "details": "Triggered when the contract has been initialized or reinitialized."
      },
      "Upgraded(address)": {
        "details": "Emitted when the `implementation` has been successfully upgraded.",
        "params": {
          "newImplementation": "Address of the new implementation the proxy is now forwarding calls to."
        }
      },
      "VoteCast(uint256,address,uint256[],uint256,string)": {
        "details": "Emitted when casting a vote to provide the justification of juror's choice.",
        "params": {
          "_choice": "The choice juror voted for.",
          "_coreDisputeID": "The identifier of the dispute in the Arbitrator contract.",
          "_juror": "Address of the juror.",
          "_justification": "Justification of the choice.",
          "_voteIDs": "The identifiers of the votes in the dispute."
        }
      },
      "Withdrawal(uint256,uint256,uint256,address,uint256)": {
        "details": "To be emitted when the contributed funds are withdrawn.",
        "params": {
          "_amount": "The amount withdrawn.",
          "_choice": "The choice that is being funded.",
          "_contributor": "The address of the contributor.",
          "_coreDisputeID": "The identifier of the dispute in the Arbitrator contract.",
          "_coreRoundID": "The identifier of the round in the Arbitrator contract."
        }
      }
    },
    "kind": "dev",
    "methods": {
      "areCommitsAllCast(uint256)": {
        "details": "Returns true if all of the jurors have cast their commits for the last round.",
        "params": {
          "_coreDisputeID": "The ID of the dispute in Kleros Core."
        },
        "returns": {
          "_0": "Whether all of the jurors have cast their commits for the last round."
        }
      },
      "areVotesAllCast(uint256)": {
        "details": "Returns true if all of the jurors have cast their votes for the last round. Note that this function is to be called directly by the core contract and is not for off-chain usage.",
        "params": {
          "_coreDisputeID": "The ID of the dispute in Kleros Core."
        },
        "returns": {
          "_0": "Whether all of the jurors have cast their votes for the last round."
        }
      },
      "castCommit(uint256,uint256[],bytes32)": {
        "details": "Sets the caller's commit for the specified votes. It can be called multiple times during the commit period, each call overrides the commits of the previous one. `O(n)` where `n` is the number of votes.",
        "params": {
          "_commit": "The commitment hash.",
          "_coreDisputeID": "The ID of the dispute in Kleros Core.",
          "_voteIDs": "The IDs of the votes."
        }
      },
      "castCommitShutter(uint256,uint256[],bytes32,bytes32,bytes)": {
        "details": "Sets the caller's commit for the specified votes. It can be called multiple times during the commit period, each call overrides the commits of the previous one. `O(n)` where `n` is the number of votes.",
        "params": {
          "_commit": "The commitment hash including the justification.",
          "_coreDisputeID": "The ID of the dispute in Kleros Core.",
          "_encryptedVote": "The Shutter encrypted vote.",
          "_identity": "The Shutter identity used for encryption.",
          "_voteIDs": "The IDs of the votes."
        }
      },
      "castVote(uint256,uint256[],uint256,uint256,string)": {
        "details": "Sets the caller's choices for the specified votes. `O(n)` where `n` is the number of votes.",
        "params": {
          "_choice": "The choice.",
          "_coreDisputeID": "The ID of the dispute in Kleros Core.",
          "_justification": "Justification of the choice.",
          "_salt": "The salt for the commit if the votes were hidden.",
          "_voteIDs": "The IDs of the votes."
        }
      },
      "changeCore(address)": {
        "details": "Changes the `core` storage variable.",
        "params": {
          "_core": "The new value for the `core` storage variable."
        }
      },
      "changeGovernor(address)": {
        "details": "Changes the `governor` storage variable.",
        "params": {
          "_governor": "The new value for the `governor` storage variable."
        }
      },
      "constructor": {
        "custom:oz-upgrades-unsafe-allow": "constructor"
      },
      "createDispute(uint256,uint256,bytes,uint256)": {
        "details": "Creates a local dispute and maps it to the dispute ID in the Core contract. Note: Access restricted to Kleros Core only.",
        "params": {
          "_coreDisputeID": "The ID of the dispute in Kleros Core.",
          "_extraData": "Additional info about the dispute, for possible use in future dispute kits.",
          "_nbVotes": "Number of votes for this dispute.",
          "_numberOfChoices": "Number of choices of the dispute"
        }
      },
      "currentRuling(uint256)": {
        "details": "Gets the current ruling of a specified dispute.",
        "params": {
          "_coreDisputeID": "The ID of the dispute in Kleros Core."
        },
        "returns": {
          "overridden": "Whether the ruling was overridden by appeal funding or not.",
          "ruling": "The current ruling.",
          "tied": "Whether it's a tie or not."
        }
      },
      "draw(uint256,uint256)": {
        "details": "Draws the juror from the sortition tree. The drawn address is picked up by Kleros Core. Note: Access restricted to Kleros Core only.",
        "params": {
          "_coreDisputeID": "The ID of the dispute in Kleros Core.",
          "_nonce": "Nonce of the drawing iteration."
        },
        "returns": {
          "drawnAddress": "The drawn address."
        }
      },
      "executeGovernorProposal(address,uint256,bytes)": {
        "details": "Allows the governor to call anything on behalf of the contract.",
        "params": {
          "_amount": "The value sent with the call.",
          "_data": "The data sent with the call.",
          "_destination": "The destination of the call."
        }
      },
      "fundAppeal(uint256,uint256)": {
        "details": "Manages contributions, and appeals a dispute if at least two choices are fully funded. Note that the surplus deposit will be reimbursed.",
        "params": {
          "_choice": "A choice that receives funding.",
          "_coreDisputeID": "Index of the dispute in Kleros Core."
        }
      },
      "getCoherentCount(uint256,uint256)": {
        "details": "Gets the number of jurors who are eligible to a reward in this round.",
        "params": {
          "_coreDisputeID": "The ID of the dispute in Kleros Core, not in the Dispute Kit.",
          "_coreRoundID": "The ID of the round in Kleros Core, not in the Dispute Kit."
        },
        "returns": {
          "_0": "The number of coherent jurors."
        }
      },
      "getDegreeOfCoherence(uint256,uint256,uint256,uint256,uint256)": {
        "details": "Gets the degree of coherence of a particular voter. This function is called by Kleros Core in order to determine the amount of the reward.",
        "params": {
          "_coreDisputeID": "The ID of the dispute in Kleros Core, not in the Dispute Kit.",
          "_coreRoundID": "The ID of the round in Kleros Core, not in the Dispute Kit.",
          "_voteID": "The ID of the vote."
        },
        "returns": {
          "_0": "The degree of coherence in basis points."
        }
      },
      "getLocalDisputeRoundID(uint256,uint256)": {
        "details": "Returns the local dispute ID and round ID for a given core dispute ID and core round ID.",
        "params": {
          "_coreDisputeID": "The ID of the dispute in Kleros Core.",
          "_coreRoundID": "The ID of the round in Kleros Core."
        },
        "returns": {
          "localDisputeID": "The ID of the dispute in the Dispute Kit.",
          "localRoundID": "The ID of the round in the Dispute Kit."
        }
      },
      "getNumberOfRounds(uint256)": {
        "details": "Returns the number of rounds in a dispute.",
        "params": {
          "_localDisputeID": "The ID of the dispute in the Dispute Kit."
        },
        "returns": {
          "_0": "The number of rounds in the dispute."
        }
      },
      "getVoteInfo(uint256,uint256,uint256)": {
        "details": "Returns the vote information for a given vote ID.",
        "params": {
          "_coreDisputeID": "The ID of the dispute in Kleros Core.",
          "_coreRoundID": "The ID of the round in Kleros Core.",
          "_voteID": "The ID of the vote."
        },
        "returns": {
          "account": "The address of the juror who cast the vote.",
          "commit": "The commit of the vote."
        }
      },
      "hashVote(uint256,uint256,string)": {
        "details": "Computes the hash of a vote using ABI encoding",
        "params": {
          "_choice": "The choice being voted for",
          "_justification": "The justification for the vote",
          "_salt": "A random salt for commitment"
        },
        "returns": {
          "_0": "bytes32 The hash of the encoded vote parameters"
        }
      },
      "initialize(address,address,address)": {
        "details": "Initializer.",
        "params": {
          "_core": "The KlerosCore arbitrator.",
          "_governor": "The governor's address.",
          "_wNative": "The wrapped native token address, typically wETH."
        }
      },
      "isAppealFunded(uint256)": {
        "details": "Returns true if the appeal funding is finished prematurely (e.g. when losing side didn't fund). Note that this function is to be called directly by the core contract and is not for off-chain usage.",
        "params": {
          "_coreDisputeID": "The ID of the dispute in Kleros Core, not in the Dispute Kit."
        },
        "returns": {
          "_0": "Whether the appeal funding is finished."
        }
      },
      "isVoteActive(uint256,uint256,uint256)": {
        "details": "Returns true if the specified voter was active in this round.",
        "params": {
          "_coreDisputeID": "The ID of the dispute in Kleros Core, not in the Dispute Kit.",
          "_coreRoundID": "The ID of the round in Kleros Core, not in the Dispute Kit.",
          "_voteID": "The ID of the voter."
        },
        "returns": {
          "_0": "Whether the voter was active or not."
        }
      },
      "proxiableUUID()": {
        "details": "Implementation of the ERC1822 `proxiableUUID` function. This returns the storage slot used by the implementation. It is used to validate the implementation's compatibility when performing an upgrade. IMPORTANT: A proxy pointing at a proxiable contract should not be considered proxiable itself, because this risks bricking a proxy that upgrades to it, by delegating to itself until out of gas. Thus it is critical that this function revert if invoked through a proxy. This is guaranteed by the if statement."
      },
      "upgradeToAndCall(address,bytes)": {
        "details": "Upgrade mechanism including access control and UUPS-compliance.Reverts if the execution is not performed via delegatecall or the execution context is not of a proxy with an ERC1967-compliant implementation pointing to self.",
        "params": {
          "data": "Data used in a delegate call to `newImplementation` if non-empty. This will typically be an encoded function call, and allows initializing the storage of the proxy like a Solidity constructor.",
          "newImplementation": "Address of the new implementation contract."
        }
      },
      "withdrawFeesAndRewards(uint256,address,uint256,uint256)": {
        "details": "Allows those contributors who attempted to fund an appeal round to withdraw any reimbursable fees or rewards after the dispute gets resolved. Note that withdrawals are not possible if the core contract is paused.",
        "params": {
          "_beneficiary": "The address whose rewards to withdraw.",
          "_choice": "The ruling option that the caller wants to withdraw from.",
          "_coreDisputeID": "Index of the dispute in Kleros Core contract.",
          "_coreRoundID": "The round in the Kleros Core contract the caller wants to withdraw from."
        },
        "returns": {
          "amount": "The withdrawn amount."
        }
      }
    },
    "stateVariables": {
      "version": {
        "details": "Returns the version of the implementation.",
        "return": "Version string.",
        "returns": {
          "_0": "Version string."
        }
      }
    },
    "title": "DisputeKitGatedShutter Added functionality: shielded voting. Dispute kit implementation adapted from DisputeKitClassic - a drawing system: proportional to staked PNK with a non-zero balance of `tokenGate` where `tokenGate` is an ERC20, ERC721 or ERC1155 - a vote aggregation system: plurality, - an incentive system: equal split between coherent votes, - an appeal system: fund 2 choices only, vote on any choice.",
    "version": 1
  },
  "userdoc": {
    "errors": {
      "FailedDelegateCall()": [
        {
          "notice": "Failed Delegated call"
        }
      ]
    },
    "kind": "user",
    "methods": {},
    "version": 1
  },
  "storageLayout": {
    "storage": [
      {
        "astId": 6613,
        "contract": "src/arbitration/dispute-kits/DisputeKitGatedShutter.sol:DisputeKitGatedShutter",
        "label": "governor",
        "offset": 0,
        "slot": "0",
        "type": "t_address"
      },
      {
        "astId": 6616,
        "contract": "src/arbitration/dispute-kits/DisputeKitGatedShutter.sol:DisputeKitGatedShutter",
        "label": "core",
        "offset": 0,
        "slot": "1",
        "type": "t_contract(KlerosCore)303"
      },
      {
        "astId": 6620,
        "contract": "src/arbitration/dispute-kits/DisputeKitGatedShutter.sol:DisputeKitGatedShutter",
        "label": "disputes",
        "offset": 0,
        "slot": "2",
        "type": "t_array(t_struct(Dispute)6552_storage)dyn_storage"
      },
      {
        "astId": 6624,
        "contract": "src/arbitration/dispute-kits/DisputeKitGatedShutter.sol:DisputeKitGatedShutter",
        "label": "coreDisputeIDToLocal",
        "offset": 0,
        "slot": "3",
        "type": "t_mapping(t_uint256,t_uint256)"
      },
      {
        "astId": 6626,
        "contract": "src/arbitration/dispute-kits/DisputeKitGatedShutter.sol:DisputeKitGatedShutter",
        "label": "singleDrawPerJuror",
        "offset": 0,
        "slot": "4",
        "type": "t_bool"
      },
      {
        "astId": 6634,
        "contract": "src/arbitration/dispute-kits/DisputeKitGatedShutter.sol:DisputeKitGatedShutter",
        "label": "alreadyDrawn",
        "offset": 0,
        "slot": "5",
        "type": "t_mapping(t_uint256,t_mapping(t_uint256,t_mapping(t_address,t_bool)))"
      },
      {
        "astId": 6638,
        "contract": "src/arbitration/dispute-kits/DisputeKitGatedShutter.sol:DisputeKitGatedShutter",
        "label": "coreDisputeIDToActive",
        "offset": 0,
        "slot": "6",
        "type": "t_mapping(t_uint256,t_bool)"
      },
      {
        "astId": 6640,
        "contract": "src/arbitration/dispute-kits/DisputeKitGatedShutter.sol:DisputeKitGatedShutter",
        "label": "wNative",
        "offset": 0,
        "slot": "7",
        "type": "t_address"
      }
    ],
    "types": {
      "t_address": {
        "encoding": "inplace",
        "label": "address",
        "numberOfBytes": "20"
      },
      "t_array(t_struct(Dispute)6552_storage)dyn_storage": {
        "base": "t_struct(Dispute)6552_storage",
        "encoding": "dynamic_array",
        "label": "struct DisputeKitClassicBase.Dispute[]",
        "numberOfBytes": "32"
      },
      "t_array(t_struct(Round)6590_storage)dyn_storage": {
        "base": "t_struct(Round)6590_storage",
        "encoding": "dynamic_array",
        "label": "struct DisputeKitClassicBase.Round[]",
        "numberOfBytes": "32"
      },
      "t_array(t_struct(Vote)6599_storage)dyn_storage": {
        "base": "t_struct(Vote)6599_storage",
        "encoding": "dynamic_array",
        "label": "struct DisputeKitClassicBase.Vote[]",
        "numberOfBytes": "32"
      },
      "t_array(t_uint256)dyn_storage": {
        "base": "t_uint256",
        "encoding": "dynamic_array",
        "label": "uint256[]",
        "numberOfBytes": "32"
      },
      "t_bool": {
        "encoding": "inplace",
        "label": "bool",
        "numberOfBytes": "1"
      },
      "t_bytes32": {
        "encoding": "inplace",
        "label": "bytes32",
        "numberOfBytes": "32"
      },
      "t_bytes_storage": {
        "encoding": "bytes",
        "label": "bytes",
        "numberOfBytes": "32"
      },
      "t_contract(KlerosCore)303": {
        "encoding": "inplace",
        "label": "contract KlerosCore",
        "numberOfBytes": "20"
      },
      "t_mapping(t_address,t_bool)": {
        "encoding": "mapping",
        "key": "t_address",
        "label": "mapping(address => bool)",
        "numberOfBytes": "32",
        "value": "t_bool"
      },
      "t_mapping(t_address,t_mapping(t_uint256,t_uint256))": {
        "encoding": "mapping",
        "key": "t_address",
        "label": "mapping(address => mapping(uint256 => uint256))",
        "numberOfBytes": "32",
        "value": "t_mapping(t_uint256,t_uint256)"
      },
      "t_mapping(t_uint256,t_bool)": {
        "encoding": "mapping",
        "key": "t_uint256",
        "label": "mapping(uint256 => bool)",
        "numberOfBytes": "32",
        "value": "t_bool"
      },
      "t_mapping(t_uint256,t_mapping(t_address,t_bool))": {
        "encoding": "mapping",
        "key": "t_uint256",
        "label": "mapping(uint256 => mapping(address => bool))",
        "numberOfBytes": "32",
        "value": "t_mapping(t_address,t_bool)"
      },
      "t_mapping(t_uint256,t_mapping(t_uint256,t_mapping(t_address,t_bool)))": {
        "encoding": "mapping",
        "key": "t_uint256",
        "label": "mapping(uint256 => mapping(uint256 => mapping(address => bool)))",
        "numberOfBytes": "32",
        "value": "t_mapping(t_uint256,t_mapping(t_address,t_bool))"
      },
      "t_mapping(t_uint256,t_uint256)": {
        "encoding": "mapping",
        "key": "t_uint256",
        "label": "mapping(uint256 => uint256)",
        "numberOfBytes": "32",
        "value": "t_uint256"
      },
      "t_struct(Dispute)6552_storage": {
        "encoding": "inplace",
        "label": "struct DisputeKitClassicBase.Dispute",
        "members": [
          {
            "astId": 6541,
            "contract": "src/arbitration/dispute-kits/DisputeKitGatedShutter.sol:DisputeKitGatedShutter",
            "label": "rounds",
            "offset": 0,
            "slot": "0",
            "type": "t_array(t_struct(Round)6590_storage)dyn_storage"
          },
          {
            "astId": 6543,
            "contract": "src/arbitration/dispute-kits/DisputeKitGatedShutter.sol:DisputeKitGatedShutter",
            "label": "numberOfChoices",
            "offset": 0,
            "slot": "1",
            "type": "t_uint256"
          },
          {
            "astId": 6545,
            "contract": "src/arbitration/dispute-kits/DisputeKitGatedShutter.sol:DisputeKitGatedShutter",
            "label": "jumped",
            "offset": 0,
            "slot": "2",
            "type": "t_bool"
          },
          {
            "astId": 6549,
            "contract": "src/arbitration/dispute-kits/DisputeKitGatedShutter.sol:DisputeKitGatedShutter",
            "label": "coreRoundIDToLocal",
            "offset": 0,
            "slot": "3",
            "type": "t_mapping(t_uint256,t_uint256)"
          },
          {
            "astId": 6551,
            "contract": "src/arbitration/dispute-kits/DisputeKitGatedShutter.sol:DisputeKitGatedShutter",
            "label": "extraData",
            "offset": 0,
            "slot": "4",
            "type": "t_bytes_storage"
          }
        ],
        "numberOfBytes": "160"
      },
      "t_struct(Round)6590_storage": {
        "encoding": "inplace",
        "label": "struct DisputeKitClassicBase.Round",
        "members": [
          {
            "astId": 6556,
            "contract": "src/arbitration/dispute-kits/DisputeKitGatedShutter.sol:DisputeKitGatedShutter",
            "label": "votes",
            "offset": 0,
            "slot": "0",
            "type": "t_array(t_struct(Vote)6599_storage)dyn_storage"
          },
          {
            "astId": 6558,
            "contract": "src/arbitration/dispute-kits/DisputeKitGatedShutter.sol:DisputeKitGatedShutter",
            "label": "winningChoice",
            "offset": 0,
            "slot": "1",
            "type": "t_uint256"
          },
          {
            "astId": 6562,
            "contract": "src/arbitration/dispute-kits/DisputeKitGatedShutter.sol:DisputeKitGatedShutter",
            "label": "counts",
            "offset": 0,
            "slot": "2",
            "type": "t_mapping(t_uint256,t_uint256)"
          },
          {
            "astId": 6564,
            "contract": "src/arbitration/dispute-kits/DisputeKitGatedShutter.sol:DisputeKitGatedShutter",
            "label": "tied",
            "offset": 0,
            "slot": "3",
            "type": "t_bool"
          },
          {
            "astId": 6566,
            "contract": "src/arbitration/dispute-kits/DisputeKitGatedShutter.sol:DisputeKitGatedShutter",
            "label": "totalVoted",
            "offset": 0,
            "slot": "4",
            "type": "t_uint256"
          },
          {
            "astId": 6568,
            "contract": "src/arbitration/dispute-kits/DisputeKitGatedShutter.sol:DisputeKitGatedShutter",
            "label": "totalCommitted",
            "offset": 0,
            "slot": "5",
            "type": "t_uint256"
          },
          {
            "astId": 6572,
            "contract": "src/arbitration/dispute-kits/DisputeKitGatedShutter.sol:DisputeKitGatedShutter",
            "label": "paidFees",
            "offset": 0,
            "slot": "6",
            "type": "t_mapping(t_uint256,t_uint256)"
          },
          {
            "astId": 6576,
            "contract": "src/arbitration/dispute-kits/DisputeKitGatedShutter.sol:DisputeKitGatedShutter",
            "label": "hasPaid",
            "offset": 0,
            "slot": "7",
            "type": "t_mapping(t_uint256,t_bool)"
          },
          {
            "astId": 6582,
            "contract": "src/arbitration/dispute-kits/DisputeKitGatedShutter.sol:DisputeKitGatedShutter",
            "label": "contributions",
            "offset": 0,
            "slot": "8",
            "type": "t_mapping(t_address,t_mapping(t_uint256,t_uint256))"
          },
          {
            "astId": 6584,
            "contract": "src/arbitration/dispute-kits/DisputeKitGatedShutter.sol:DisputeKitGatedShutter",
            "label": "feeRewards",
            "offset": 0,
            "slot": "9",
            "type": "t_uint256"
          },
          {
            "astId": 6587,
            "contract": "src/arbitration/dispute-kits/DisputeKitGatedShutter.sol:DisputeKitGatedShutter",
            "label": "fundedChoices",
            "offset": 0,
            "slot": "10",
            "type": "t_array(t_uint256)dyn_storage"
          },
          {
            "astId": 6589,
            "contract": "src/arbitration/dispute-kits/DisputeKitGatedShutter.sol:DisputeKitGatedShutter",
            "label": "nbVotes",
            "offset": 0,
            "slot": "11",
            "type": "t_uint256"
          }
        ],
        "numberOfBytes": "384"
      },
      "t_struct(Vote)6599_storage": {
        "encoding": "inplace",
        "label": "struct DisputeKitClassicBase.Vote",
        "members": [
          {
            "astId": 6592,
            "contract": "src/arbitration/dispute-kits/DisputeKitGatedShutter.sol:DisputeKitGatedShutter",
            "label": "account",
            "offset": 0,
            "slot": "0",
            "type": "t_address"
          },
          {
            "astId": 6594,
            "contract": "src/arbitration/dispute-kits/DisputeKitGatedShutter.sol:DisputeKitGatedShutter",
            "label": "commit",
            "offset": 0,
            "slot": "1",
            "type": "t_bytes32"
          },
          {
            "astId": 6596,
            "contract": "src/arbitration/dispute-kits/DisputeKitGatedShutter.sol:DisputeKitGatedShutter",
            "label": "choice",
            "offset": 0,
            "slot": "2",
            "type": "t_uint256"
          },
          {
            "astId": 6598,
            "contract": "src/arbitration/dispute-kits/DisputeKitGatedShutter.sol:DisputeKitGatedShutter",
            "label": "voted",
            "offset": 0,
            "slot": "3",
            "type": "t_bool"
          }
        ],
        "numberOfBytes": "128"
      },
      "t_uint256": {
        "encoding": "inplace",
        "label": "uint256",
        "numberOfBytes": "32"
      }
    }
  }
}