{
  "address": "0xC4e64e6E949936a18269937FC1e18cb11E3db14D",
  "abi": [
    {
      "inputs": [],
      "stateMutability": "nonpayable",
      "type": "constructor"
    },
    {
      "inputs": [],
      "name": "AlreadyInitialized",
      "type": "error"
    },
    {
      "inputs": [],
      "name": "FailedDelegateCall",
      "type": "error"
    },
    {
      "inputs": [
        {
          "internalType": "address",
          "name": "implementation",
          "type": "address"
        }
      ],
      "name": "InvalidImplementation",
      "type": "error"
    },
    {
      "inputs": [],
      "name": "NotInitializing",
      "type": "error"
    },
    {
      "inputs": [],
      "name": "UUPSUnauthorizedCallContext",
      "type": "error"
    },
    {
      "inputs": [
        {
          "internalType": "bytes32",
          "name": "slot",
          "type": "bytes32"
        }
      ],
      "name": "UUPSUnsupportedProxiableUUID",
      "type": "error"
    },
    {
      "anonymous": false,
      "inputs": [
        {
          "indexed": true,
          "internalType": "uint256",
          "name": "_externalDisputeID",
          "type": "uint256"
        },
        {
          "indexed": true,
          "internalType": "address",
          "name": "_party",
          "type": "address"
        },
        {
          "indexed": false,
          "internalType": "string",
          "name": "_evidence",
          "type": "string"
        }
      ],
      "name": "Evidence",
      "type": "event"
    },
    {
      "anonymous": false,
      "inputs": [
        {
          "indexed": false,
          "internalType": "uint64",
          "name": "version",
          "type": "uint64"
        }
      ],
      "name": "Initialized",
      "type": "event"
    },
    {
      "anonymous": false,
      "inputs": [
        {
          "indexed": true,
          "internalType": "address",
          "name": "newImplementation",
          "type": "address"
        }
      ],
      "name": "Upgraded",
      "type": "event"
    },
    {
      "inputs": [],
      "name": "governor",
      "outputs": [
        {
          "internalType": "address",
          "name": "",
          "type": "address"
        }
      ],
      "stateMutability": "view",
      "type": "function"
    },
    {
      "inputs": [
        {
          "internalType": "address",
          "name": "_governor",
          "type": "address"
        }
      ],
      "name": "initialize",
      "outputs": [],
      "stateMutability": "nonpayable",
      "type": "function"
    },
    {
      "inputs": [],
      "name": "initialize2",
      "outputs": [],
      "stateMutability": "nonpayable",
      "type": "function"
    },
    {
      "inputs": [],
      "name": "proxiableUUID",
      "outputs": [
        {
          "internalType": "bytes32",
          "name": "",
          "type": "bytes32"
        }
      ],
      "stateMutability": "view",
      "type": "function"
    },
    {
      "inputs": [
        {
          "internalType": "uint256",
          "name": "_externalDisputeID",
          "type": "uint256"
        },
        {
          "internalType": "string",
          "name": "_evidence",
          "type": "string"
        }
      ],
      "name": "submitEvidence",
      "outputs": [],
      "stateMutability": "nonpayable",
      "type": "function"
    },
    {
      "inputs": [
        {
          "internalType": "address",
          "name": "newImplementation",
          "type": "address"
        },
        {
          "internalType": "bytes",
          "name": "data",
          "type": "bytes"
        }
      ],
      "name": "upgradeToAndCall",
      "outputs": [],
      "stateMutability": "payable",
      "type": "function"
    },
    {
      "inputs": [],
      "name": "version",
      "outputs": [
        {
          "internalType": "string",
          "name": "",
          "type": "string"
        }
      ],
      "stateMutability": "view",
      "type": "function"
    }
  ],
  "transactionHash": "0x945c6b6b6ad6d37482c3a8ebb542ae3dbd0337b2279388ffab424d6dacd78eea",
  "args": [],
  "numDeployments": 2,
  "solcInputHash": "acb39436d8539d1379a47e045a065e54",
  "bytecode": "0x60a06040523060805234801561001457600080fd5b5061001d610022565b6100d3565b7ff0c57e16840df040f15088dc2f81fe391c3923bec73e23a9662efc9c229c6a0e805468010000000000000000900460ff16156100715760405162dc149f60e41b815260040160405180910390fd5b80546001600160401b03908116146100d05780546001600160401b0319166001600160401b0390811782556040519081527fc7f505b2f371ae2175ee4913f4499e1f2633a7b5936321eed1cdaeb6115181d29060200160405180910390a15b50565b6080516108ff6100fc6000396000818161024a01528181610273015261047001526108ff6000f3fe6080604052600436106100605760003560e01c80630c340a2414610065578063472abf68146100a25780634f1ef286146100b957806352d1902d146100cc57806354fd4d50146100ef578063a6a7f0eb1461012d578063c4d66de81461014d575b600080fd5b34801561007157600080fd5b50600054610085906001600160a01b031681565b6040516001600160a01b0390911681526020015b60405180910390f35b3480156100ae57600080fd5b506100b761016d565b005b6100b76100c736600461068e565b610236565b3480156100d857600080fd5b506100e1610463565b604051908152602001610099565b3480156100fb57600080fd5b50610120604051806040016040528060058152602001640302e382e360dc1b81525081565b6040516100999190610774565b34801561013957600080fd5b506100b76101483660046107a7565b6104c1565b34801561015957600080fd5b506100b7610168366004610823565b61050a565b7ff0c57e16840df040f15088dc2f81fe391c3923bec73e23a9662efc9c229c6a0e805460029190600160401b900460ff16806101b75750805467ffffffffffffffff808416911610155b156101d45760405162dc149f60e41b815260040160405180910390fd5b805468ffffffffffffffffff191667ffffffffffffffff8316908117600160401b1760ff60401b191682556040519081527fc7f505b2f371ae2175ee4913f4499e1f2633a7b5936321eed1cdaeb6115181d29060200160405180910390a15050565b61023f826105f4565b306001600160a01b037f00000000000000000000000000000000000000000000000000000000000000001614806102bd57507f00000000000000000000000000000000000000000000000000000000000000006001600160a01b03166102b16000805160206108aa8339815191525490565b6001600160a01b031614155b156102db5760405163703e46dd60e11b815260040160405180910390fd5b816001600160a01b03166352d1902d6040518163ffffffff1660e01b8152600401602060405180830381865afa925050508015610335575060408051601f3d908101601f1916820190925261033291810190610845565b60015b61036257604051630c76093760e01b81526001600160a01b03831660048201526024015b60405180910390fd5b6000805160206108aa833981519152811461039357604051632a87526960e21b815260048101829052602401610359565b6000805160206108aa8339815191528390556040516001600160a01b038416907fbc7cd75a20ee27fd9adebab32041f755214dbc6bffa90cc0225b39da2e5c2d3b90600090a281511561045e576000836001600160a01b0316836040516103fa919061085e565b600060405180830381855af49150503d8060008114610435576040519150601f19603f3d011682016040523d82523d6000602084013e61043a565b606091505b505090508061045c576040516339b21b5d60e11b815260040160405180910390fd5b505b505050565b6000306001600160a01b037f000000000000000000000000000000000000000000000000000000000000000016146104ae5760405163703e46dd60e11b815260040160405180910390fd5b506000805160206108aa83398151915290565b336001600160a01b0316837f39935cf45244bc296a03d6aef1cf17779033ee27090ce9c68d432367ce10699684846040516104fd92919061087a565b60405180910390a3505050565b7ff0c57e16840df040f15088dc2f81fe391c3923bec73e23a9662efc9c229c6a0e805460019190600160401b900460ff16806105545750805467ffffffffffffffff808416911610155b156105715760405162dc149f60e41b815260040160405180910390fd5b8054600160401b67ffffffffffffffff841668ffffffffffffffffff199092168217178255600080546001600160a01b0319166001600160a01b038616179055815460ff60401b191682556040519081527fc7f505b2f371ae2175ee4913f4499e1f2633a7b5936321eed1cdaeb6115181d29060200160405180910390a1505050565b6000546001600160a01b031633146106595760405162461bcd60e51b815260206004820152602260248201527f416363657373206e6f7420616c6c6f7765643a20476f7665726e6f72206f6e6c6044820152613c9760f11b6064820152608401610359565b50565b80356001600160a01b038116811461067357600080fd5b919050565b634e487b7160e01b600052604160045260246000fd5b600080604083850312156106a157600080fd5b6106aa8361065c565b9150602083013567ffffffffffffffff808211156106c757600080fd5b818501915085601f8301126106db57600080fd5b8135818111156106ed576106ed610678565b604051601f8201601f19908116603f0116810190838211818310171561071557610715610678565b8160405282815288602084870101111561072e57600080fd5b8260208601602083013760006020848301015280955050505050509250929050565b60005b8381101561076b578181015183820152602001610753565b50506000910152565b6020815260008251806020840152610793816040850160208701610750565b601f01601f19169190910160400192915050565b6000806000604084860312156107bc57600080fd5b83359250602084013567ffffffffffffffff808211156107db57600080fd5b818601915086601f8301126107ef57600080fd5b8135818111156107fe57600080fd5b87602082850101111561081057600080fd5b6020830194508093505050509250925092565b60006020828403121561083557600080fd5b61083e8261065c565b9392505050565b60006020828403121561085757600080fd5b5051919050565b60008251610870818460208701610750565b9190910192915050565b60208152816020820152818360408301376000818301604090810191909152601f909201601f1916010191905056fe360894a13ba1a3210667c828492db98dca3e2076cc3735a920a3ca505d382bbca2646970667358221220e8029341a85fe4ec5c46a752df03395b1ee6ff03774364e24047c608189c4ceb64736f6c63430008180033",
  "devdoc": {
    "errors": {
      "AlreadyInitialized()": [
        {
          "details": "The contract is already initialized."
        }
      ],
      "InvalidImplementation(address)": [
        {
          "details": "The `implementation` is not UUPS-compliant"
        }
      ],
      "NotInitializing()": [
        {
          "details": "The contract is not initializing."
        }
      ],
      "UUPSUnauthorizedCallContext()": [
        {
          "details": "The call is from an unauthorized context."
        }
      ],
      "UUPSUnsupportedProxiableUUID(bytes32)": [
        {
          "details": "The storage `slot` is unsupported as a UUID."
        }
      ]
    },
    "events": {
      "Evidence(uint256,address,string)": {
        "details": "To be raised when evidence is submitted. Should point to the resource (evidences are not to be stored on chain due to gas considerations).",
        "params": {
          "_evidence": "Stringified evidence object, example: '{\"name\" : \"Justification\", \"description\" : \"Description\", \"fileURI\" : \"/ipfs/QmWQV5ZFFhEJiW8Lm7ay2zLxC2XS4wx1b2W7FfdrLMyQQc\"}'.",
          "_externalDisputeID": "Unique identifier for this dispute outside Kleros. It's the submitter responsability to submit the right external dispute ID.",
          "_party": "The address of the party submiting the evidence. Note that 0x0 refers to evidence not submitted by any party."
        }
      },
      "Initialized(uint64)": {
        "details": "Triggered when the contract has been initialized or reinitialized."
      },
      "Upgraded(address)": {
        "details": "Emitted when the `implementation` has been successfully upgraded.",
        "params": {
          "newImplementation": "Address of the new implementation the proxy is now forwarding calls to."
        }
      }
    },
    "kind": "dev",
    "methods": {
      "constructor": {
        "custom:oz-upgrades-unsafe-allow": "constructor"
      },
      "initialize(address)": {
        "details": "Initializer.",
        "params": {
          "_governor": "The governor's address."
        }
      },
      "proxiableUUID()": {
        "details": "Implementation of the ERC1822 `proxiableUUID` function. This returns the storage slot used by the implementation. It is used to validate the implementation's compatibility when performing an upgrade. IMPORTANT: A proxy pointing at a proxiable contract should not be considered proxiable itself, because this risks bricking a proxy that upgrades to it, by delegating to itself until out of gas. Thus it is critical that this function revert if invoked through a proxy. This is guaranteed by the if statement."
      },
      "submitEvidence(uint256,string)": {
        "details": "Submits evidence for a dispute.",
        "params": {
          "_evidence": "Stringified evidence object, example: '{\"name\" : \"Justification\", \"description\" : \"Description\", \"fileURI\" : \"/ipfs/QmWQV5ZFFhEJiW8Lm7ay2zLxC2XS4wx1b2W7FfdrLMyQQc\"}'.",
          "_externalDisputeID": "Unique identifier for this dispute outside Kleros. It's the submitter responsability to submit the right evidence group ID."
        }
      },
      "upgradeToAndCall(address,bytes)": {
        "details": "Upgrade mechanism including access control and UUPS-compliance.Reverts if the execution is not performed via delegatecall or the execution context is not of a proxy with an ERC1967-compliant implementation pointing to self.",
        "params": {
          "data": "Data used in a delegate call to `newImplementation` if non-empty. This will typically be an encoded function call, and allows initializing the storage of the proxy like a Solidity constructor.",
          "newImplementation": "Address of the new implementation contract."
        }
      }
    },
    "stateVariables": {
      "version": {
        "details": "Returns the version of the implementation.",
        "return": "Version string.",
        "returns": {
          "_0": "Version string."
        }
      }
    },
    "title": "Evidence Module",
    "version": 1
  },
  "userdoc": {
    "errors": {
      "FailedDelegateCall()": [
        {
          "notice": "Failed Delegated call"
        }
      ]
    },
    "kind": "user",
    "methods": {},
    "version": 1
  },
  "storageLayout": {
    "storage": [
      {
        "astId": 21480,
        "contract": "src/arbitration/evidence/EvidenceModule.sol:EvidenceModule",
        "label": "governor",
        "offset": 0,
        "slot": "0",
        "type": "t_address"
      }
    ],
    "types": {
      "t_address": {
        "encoding": "inplace",
        "label": "address",
        "numberOfBytes": "20"
      }
    }
  }
}