{
  "address": "0xD8609345DEe222051337b3A8335581Cc630Df2E9",
  "abi": [
    {
      "inputs": [],
      "stateMutability": "nonpayable",
      "type": "constructor"
    },
    {
      "inputs": [],
      "name": "AlreadyInitialized",
      "type": "error"
    },
    {
      "inputs": [],
      "name": "FailedDelegateCall",
      "type": "error"
    },
    {
      "inputs": [
        {
          "internalType": "address",
          "name": "implementation",
          "type": "address"
        }
      ],
      "name": "InvalidImplementation",
      "type": "error"
    },
    {
      "inputs": [],
      "name": "NotInitializing",
      "type": "error"
    },
    {
      "inputs": [],
      "name": "UUPSUnauthorizedCallContext",
      "type": "error"
    },
    {
      "inputs": [
        {
          "internalType": "bytes32",
          "name": "slot",
          "type": "bytes32"
        }
      ],
      "name": "UUPSUnsupportedProxiableUUID",
      "type": "error"
    },
    {
      "anonymous": false,
      "inputs": [
        {
          "indexed": true,
          "internalType": "uint256",
          "name": "_externalDisputeID",
          "type": "uint256"
        },
        {
          "indexed": true,
          "internalType": "address",
          "name": "_party",
          "type": "address"
        },
        {
          "indexed": false,
          "internalType": "string",
          "name": "_evidence",
          "type": "string"
        }
      ],
      "name": "Evidence",
      "type": "event"
    },
    {
      "anonymous": false,
      "inputs": [
        {
          "indexed": false,
          "internalType": "uint64",
          "name": "version",
          "type": "uint64"
        }
      ],
      "name": "Initialized",
      "type": "event"
    },
    {
      "anonymous": false,
      "inputs": [
        {
          "indexed": true,
          "internalType": "address",
          "name": "newImplementation",
          "type": "address"
        }
      ],
      "name": "Upgraded",
      "type": "event"
    },
    {
      "inputs": [],
      "name": "governor",
      "outputs": [
        {
          "internalType": "address",
          "name": "",
          "type": "address"
        }
      ],
      "stateMutability": "view",
      "type": "function"
    },
    {
      "inputs": [
        {
          "internalType": "address",
          "name": "_governor",
          "type": "address"
        }
      ],
      "name": "initialize",
      "outputs": [],
      "stateMutability": "nonpayable",
      "type": "function"
    },
    {
      "inputs": [],
      "name": "proxiableUUID",
      "outputs": [
        {
          "internalType": "bytes32",
          "name": "",
          "type": "bytes32"
        }
      ],
      "stateMutability": "view",
      "type": "function"
    },
    {
      "inputs": [
        {
          "internalType": "uint256",
          "name": "_externalDisputeID",
          "type": "uint256"
        },
        {
          "internalType": "string",
          "name": "_evidence",
          "type": "string"
        }
      ],
      "name": "submitEvidence",
      "outputs": [],
      "stateMutability": "nonpayable",
      "type": "function"
    },
    {
      "inputs": [
        {
          "internalType": "address",
          "name": "newImplementation",
          "type": "address"
        },
        {
          "internalType": "bytes",
          "name": "data",
          "type": "bytes"
        }
      ],
      "name": "upgradeToAndCall",
      "outputs": [],
      "stateMutability": "payable",
      "type": "function"
    }
  ],
  "transactionHash": "0x0fba45750c6620609060f6b657b04651dcdc727d19a21816f5273af6cae08d6d",
  "args": [],
  "numDeployments": 1,
  "solcInputHash": "4ee8a1f2013c130bec1668c5304bc76a",
  "bytecode": "0x60a06040523060805234801561001457600080fd5b5061001d610022565b6100d3565b7ff0c57e16840df040f15088dc2f81fe391c3923bec73e23a9662efc9c229c6a0e805468010000000000000000900460ff16156100715760405162dc149f60e41b815260040160405180910390fd5b80546001600160401b03908116146100d05780546001600160401b0319166001600160401b0390811782556040519081527fc7f505b2f371ae2175ee4913f4499e1f2633a7b5936321eed1cdaeb6115181d29060200160405180910390a15b50565b6080516107896100fc6000396000818161011801528181610141015261033e01526107896000f3fe60806040526004361061004a5760003560e01c80630c340a241461004f5780634f1ef2861461008c57806352d1902d146100a1578063a6a7f0eb146100c4578063c4d66de8146100e4575b600080fd5b34801561005b57600080fd5b5060005461006f906001600160a01b031681565b6040516001600160a01b0390911681526020015b60405180910390f35b61009f61009a36600461055c565b610104565b005b3480156100ad57600080fd5b506100b6610331565b604051908152602001610083565b3480156100d057600080fd5b5061009f6100df36600461061e565b61038f565b3480156100f057600080fd5b5061009f6100ff36600461069a565b6103d8565b61010d826104c2565b306001600160a01b037f000000000000000000000000000000000000000000000000000000000000000016148061018b57507f00000000000000000000000000000000000000000000000000000000000000006001600160a01b031661017f6000805160206107348339815191525490565b6001600160a01b031614155b156101a95760405163703e46dd60e11b815260040160405180910390fd5b816001600160a01b03166352d1902d6040518163ffffffff1660e01b8152600401602060405180830381865afa925050508015610203575060408051601f3d908101601f19168201909252610200918101906106bc565b60015b61023057604051630c76093760e01b81526001600160a01b03831660048201526024015b60405180910390fd5b600080516020610734833981519152811461026157604051632a87526960e21b815260048101829052602401610227565b6000805160206107348339815191528390556040516001600160a01b038416907fbc7cd75a20ee27fd9adebab32041f755214dbc6bffa90cc0225b39da2e5c2d3b90600090a281511561032c576000836001600160a01b0316836040516102c891906106d5565b600060405180830381855af49150503d8060008114610303576040519150601f19603f3d011682016040523d82523d6000602084013e610308565b606091505b505090508061032a576040516339b21b5d60e11b815260040160405180910390fd5b505b505050565b6000306001600160a01b037f0000000000000000000000000000000000000000000000000000000000000000161461037c5760405163703e46dd60e11b815260040160405180910390fd5b5060008051602061073483398151915290565b336001600160a01b0316837f39935cf45244bc296a03d6aef1cf17779033ee27090ce9c68d432367ce10699684846040516103cb929190610704565b60405180910390a3505050565b7ff0c57e16840df040f15088dc2f81fe391c3923bec73e23a9662efc9c229c6a0e805460019190600160401b900460ff16806104225750805467ffffffffffffffff808416911610155b1561043f5760405162dc149f60e41b815260040160405180910390fd5b8054600160401b67ffffffffffffffff841668ffffffffffffffffff199092168217178255600080546001600160a01b0319166001600160a01b038616179055815460ff60401b191682556040519081527fc7f505b2f371ae2175ee4913f4499e1f2633a7b5936321eed1cdaeb6115181d29060200160405180910390a1505050565b6000546001600160a01b031633146105275760405162461bcd60e51b815260206004820152602260248201527f416363657373206e6f7420616c6c6f7765643a20476f7665726e6f72206f6e6c6044820152613c9760f11b6064820152608401610227565b50565b80356001600160a01b038116811461054157600080fd5b919050565b634e487b7160e01b600052604160045260246000fd5b6000806040838503121561056f57600080fd5b6105788361052a565b9150602083013567ffffffffffffffff8082111561059557600080fd5b818501915085601f8301126105a957600080fd5b8135818111156105bb576105bb610546565b604051601f8201601f19908116603f011681019083821181831017156105e3576105e3610546565b816040528281528860208487010111156105fc57600080fd5b8260208601602083013760006020848301015280955050505050509250929050565b60008060006040848603121561063357600080fd5b83359250602084013567ffffffffffffffff8082111561065257600080fd5b818601915086601f83011261066657600080fd5b81358181111561067557600080fd5b87602082850101111561068757600080fd5b6020830194508093505050509250925092565b6000602082840312156106ac57600080fd5b6106b58261052a565b9392505050565b6000602082840312156106ce57600080fd5b5051919050565b6000825160005b818110156106f657602081860181015185830152016106dc565b506000920191825250919050565b60208152816020820152818360408301376000818301604090810191909152601f909201601f1916010191905056fe360894a13ba1a3210667c828492db98dca3e2076cc3735a920a3ca505d382bbca2646970667358221220ca354c10b2e92a7809e892ebe3420a0270fe6b7b1718bfcaea15c6aba0a706ae64736f6c63430008120033",
  "devdoc": {
    "errors": {
      "AlreadyInitialized()": [
        {
          "details": "The contract is already initialized."
        }
      ],
      "NotInitializing()": [
        {
          "details": "The contract is not initializing."
        }
      ],
      "UUPSUnauthorizedCallContext()": [
        {
          "details": "The call is from an unauthorized context."
        }
      ],
      "UUPSUnsupportedProxiableUUID(bytes32)": [
        {
          "details": "The storage `slot` is unsupported as a UUID."
        }
      ]
    },
    "events": {
      "Evidence(uint256,address,string)": {
        "details": "To be raised when evidence is submitted. Should point to the resource (evidences are not to be stored on chain due to gas considerations).",
        "params": {
          "_evidence": "IPFS path to evidence, example: '/ipfs/Qmarwkf7C9RuzDEJNnarT3WZ7kem5bk8DZAzx78acJjMFH/evidence.json'",
          "_externalDisputeID": "Unique identifier for this dispute outside Kleros. It's the submitter responsability to submit the right external dispute ID.",
          "_party": "The address of the party submiting the evidence. Note that 0x0 refers to evidence not submitted by any party."
        }
      },
      "Initialized(uint64)": {
        "details": "Triggered when the contract has been initialized or reinitialized."
      },
      "Upgraded(address)": {
        "params": {
          "newImplementation": "Address of the new implementation the proxy is now forwarding calls to."
        }
      }
    },
    "kind": "dev",
    "methods": {
      "constructor": {
        "details": "Constructor, initializing the implementation to reduce attack surface."
      },
      "initialize(address)": {
        "details": "Initializer.",
        "params": {
          "_governor": "The governor's address."
        }
      },
      "proxiableUUID()": {
        "details": "Implementation of the ERC1822 `proxiableUUID` function. This returns the storage slot used by the implementation. It is used to validate the implementation's compatibility when performing an upgrade. IMPORTANT: A proxy pointing at a proxiable contract should not be considered proxiable itself, because this risks bricking a proxy that upgrades to it, by delegating to itself until out of gas. Thus it is critical that this function revert if invoked through a proxy. This is guaranteed by the if statement."
      },
      "submitEvidence(uint256,string)": {
        "details": "Submits evidence for a dispute.",
        "params": {
          "_evidence": "IPFS path to evidence, example: '/ipfs/Qmarwkf7C9RuzDEJNnarT3WZ7kem5bk8DZAzx78acJjMFH/evidence.json'.",
          "_externalDisputeID": "Unique identifier for this dispute outside Kleros. It's the submitter responsability to submit the right evidence group ID."
        }
      },
      "upgradeToAndCall(address,bytes)": {
        "details": "Upgrade mechanism including access control and UUPS-compliance.Reverts if the execution is not performed via delegatecall or the execution context is not of a proxy with an ERC1967-compliant implementation pointing to self.",
        "params": {
          "data": "Data used in a delegate call to `newImplementation` if non-empty. This will typically be an encoded function call, and allows initializing the storage of the proxy like a Solidity constructor.",
          "newImplementation": "Address of the new implementation contract."
        }
      }
    },
    "title": "Evidence Module",
    "version": 1
  },
  "userdoc": {
    "errors": {
      "FailedDelegateCall()": [
        {
          "notice": "Failed Delegated call"
        }
      ],
      "InvalidImplementation(address)": [
        {
          "notice": "The `implementation` is not UUPS-compliant"
        }
      ]
    },
    "events": {
      "Upgraded(address)": {
        "notice": "Emitted when the `implementation` has been successfully upgraded."
      }
    },
    "kind": "user",
    "methods": {},
    "version": 1
  },
  "storageLayout": {
    "storage": [
      {
        "astId": 15567,
        "contract": "src/arbitration/evidence/EvidenceModule.sol:EvidenceModule",
        "label": "governor",
        "offset": 0,
        "slot": "0",
        "type": "t_address"
      }
    ],
    "types": {
      "t_address": {
        "encoding": "inplace",
        "label": "address",
        "numberOfBytes": "20"
      }
    }
  }
}