{
  "address": "0xea9cc831DA99C2d9EeC82aA8d281Bb3e26572e52",
  "abi": [
    {
      "inputs": [],
      "stateMutability": "nonpayable",
      "type": "constructor"
    },
    {
      "inputs": [],
      "name": "AlreadyInitialized",
      "type": "error"
    },
    {
      "inputs": [],
      "name": "AppealFeesNotEnough",
      "type": "error"
    },
    {
      "inputs": [],
      "name": "AppealPeriodNotPassed",
      "type": "error"
    },
    {
      "inputs": [],
      "name": "ArbitrationFeesNotEnough",
      "type": "error"
    },
    {
      "inputs": [],
      "name": "ArraysLengthMismatch",
      "type": "error"
    },
    {
      "inputs": [],
      "name": "CannotDisableClassicDK",
      "type": "error"
    },
    {
      "inputs": [],
      "name": "CommitPeriodNotPassed",
      "type": "error"
    },
    {
      "inputs": [],
      "name": "DepthLevelMax",
      "type": "error"
    },
    {
      "inputs": [],
      "name": "DisputeKitNotSupportedByCourt",
      "type": "error"
    },
    {
      "inputs": [],
      "name": "DisputeKitOnly",
      "type": "error"
    },
    {
      "inputs": [],
      "name": "DisputeNotAppealable",
      "type": "error"
    },
    {
      "inputs": [],
      "name": "DisputePeriodIsFinal",
      "type": "error"
    },
    {
      "inputs": [],
      "name": "DisputeStillDrawing",
      "type": "error"
    },
    {
      "inputs": [],
      "name": "EvidenceNotPassedAndNotAppeal",
      "type": "error"
    },
    {
      "inputs": [],
      "name": "FailedDelegateCall",
      "type": "error"
    },
    {
      "inputs": [],
      "name": "GovernorOnly",
      "type": "error"
    },
    {
      "inputs": [],
      "name": "GuardianOrGovernorOnly",
      "type": "error"
    },
    {
      "inputs": [],
      "name": "InvalidDisputKitParent",
      "type": "error"
    },
    {
      "inputs": [],
      "name": "InvalidForkingCourtAsParent",
      "type": "error"
    },
    {
      "inputs": [
        {
          "internalType": "address",
          "name": "implementation",
          "type": "address"
        }
      ],
      "name": "InvalidImplementation",
      "type": "error"
    },
    {
      "inputs": [],
      "name": "MinStakeLowerThanParentCourt",
      "type": "error"
    },
    {
      "inputs": [],
      "name": "MustSupportDisputeKitClassic",
      "type": "error"
    },
    {
      "inputs": [],
      "name": "NotEvidencePeriod",
      "type": "error"
    },
    {
      "inputs": [],
      "name": "NotExecutionPeriod",
      "type": "error"
    },
    {
      "inputs": [],
      "name": "NotInitializing",
      "type": "error"
    },
    {
      "inputs": [],
      "name": "RulingAlreadyExecuted",
      "type": "error"
    },
    {
      "inputs": [],
      "name": "SortitionModuleOnly",
      "type": "error"
    },
    {
      "inputs": [],
      "name": "StakingInTooManyCourts",
      "type": "error"
    },
    {
      "inputs": [],
      "name": "StakingLessThanCourtMinStake",
      "type": "error"
    },
    {
      "inputs": [],
      "name": "StakingNotPossibeInThisCourt",
      "type": "error"
    },
    {
      "inputs": [],
      "name": "StakingTransferFailed",
      "type": "error"
    },
    {
      "inputs": [],
      "name": "TokenNotAccepted",
      "type": "error"
    },
    {
      "inputs": [],
      "name": "TransferFailed",
      "type": "error"
    },
    {
      "inputs": [],
      "name": "UUPSUnauthorizedCallContext",
      "type": "error"
    },
    {
      "inputs": [
        {
          "internalType": "bytes32",
          "name": "slot",
          "type": "bytes32"
        }
      ],
      "name": "UUPSUnsupportedProxiableUUID",
      "type": "error"
    },
    {
      "inputs": [],
      "name": "UnstakingTransferFailed",
      "type": "error"
    },
    {
      "inputs": [],
      "name": "UnsuccessfulCall",
      "type": "error"
    },
    {
      "inputs": [],
      "name": "UnsupportedDisputeKit",
      "type": "error"
    },
    {
      "inputs": [],
      "name": "VotePeriodNotPassed",
      "type": "error"
    },
    {
      "inputs": [],
      "name": "WhenNotPausedOnly",
      "type": "error"
    },
    {
      "inputs": [],
      "name": "WhenPausedOnly",
      "type": "error"
    },
    {
      "inputs": [],
      "name": "WrongDisputeKitIndex",
      "type": "error"
    },
    {
      "anonymous": false,
      "inputs": [
        {
          "indexed": true,
          "internalType": "contract IERC20",
          "name": "_token",
          "type": "address"
        },
        {
          "indexed": true,
          "internalType": "bool",
          "name": "_accepted",
          "type": "bool"
        }
      ],
      "name": "AcceptedFeeToken",
      "type": "event"
    },
    {
      "anonymous": false,
      "inputs": [
        {
          "indexed": true,
          "internalType": "uint256",
          "name": "_disputeID",
          "type": "uint256"
        },
        {
          "indexed": true,
          "internalType": "contract IArbitrableV2",
          "name": "_arbitrable",
          "type": "address"
        }
      ],
      "name": "AppealDecision",
      "type": "event"
    },
    {
      "anonymous": false,
      "inputs": [
        {
          "indexed": true,
          "internalType": "uint256",
          "name": "_disputeID",
          "type": "uint256"
        },
        {
          "indexed": true,
          "internalType": "contract IArbitrableV2",
          "name": "_arbitrable",
          "type": "address"
        }
      ],
      "name": "AppealPossible",
      "type": "event"
    },
    {
      "anonymous": false,
      "inputs": [
        {
          "indexed": true,
          "internalType": "uint256",
          "name": "_courtID",
          "type": "uint256"
        },
        {
          "indexed": true,
          "internalType": "uint96",
          "name": "_parent",
          "type": "uint96"
        },
        {
          "indexed": false,
          "internalType": "bool",
          "name": "_hiddenVotes",
          "type": "bool"
        },
        {
          "indexed": false,
          "internalType": "uint256",
          "name": "_minStake",
          "type": "uint256"
        },
        {
          "indexed": false,
          "internalType": "uint256",
          "name": "_alpha",
          "type": "uint256"
        },
        {
          "indexed": false,
          "internalType": "uint256",
          "name": "_feeForJuror",
          "type": "uint256"
        },
        {
          "indexed": false,
          "internalType": "uint256",
          "name": "_jurorsForCourtJump",
          "type": "uint256"
        },
        {
          "indexed": false,
          "internalType": "uint256[4]",
          "name": "_timesPerPeriod",
          "type": "uint256[4]"
        },
        {
          "indexed": false,
          "internalType": "uint256[]",
          "name": "_supportedDisputeKits",
          "type": "uint256[]"
        }
      ],
      "name": "CourtCreated",
      "type": "event"
    },
    {
      "anonymous": false,
      "inputs": [
        {
          "indexed": true,
          "internalType": "uint256",
          "name": "_disputeID",
          "type": "uint256"
        },
        {
          "indexed": true,
          "internalType": "uint256",
          "name": "_roundID",
          "type": "uint256"
        },
        {
          "indexed": true,
          "internalType": "uint96",
          "name": "_fromCourtID",
          "type": "uint96"
        },
        {
          "indexed": false,
          "internalType": "uint96",
          "name": "_toCourtID",
          "type": "uint96"
        }
      ],
      "name": "CourtJump",
      "type": "event"
    },
    {
      "anonymous": false,
      "inputs": [
        {
          "indexed": true,
          "internalType": "uint96",
          "name": "_courtID",
          "type": "uint96"
        },
        {
          "indexed": false,
          "internalType": "bool",
          "name": "_hiddenVotes",
          "type": "bool"
        },
        {
          "indexed": false,
          "internalType": "uint256",
          "name": "_minStake",
          "type": "uint256"
        },
        {
          "indexed": false,
          "internalType": "uint256",
          "name": "_alpha",
          "type": "uint256"
        },
        {
          "indexed": false,
          "internalType": "uint256",
          "name": "_feeForJuror",
          "type": "uint256"
        },
        {
          "indexed": false,
          "internalType": "uint256",
          "name": "_jurorsForCourtJump",
          "type": "uint256"
        },
        {
          "indexed": false,
          "internalType": "uint256[4]",
          "name": "_timesPerPeriod",
          "type": "uint256[4]"
        }
      ],
      "name": "CourtModified",
      "type": "event"
    },
    {
      "anonymous": false,
      "inputs": [
        {
          "indexed": true,
          "internalType": "uint256",
          "name": "_disputeID",
          "type": "uint256"
        },
        {
          "indexed": true,
          "internalType": "contract IArbitrableV2",
          "name": "_arbitrable",
          "type": "address"
        }
      ],
      "name": "DisputeCreation",
      "type": "event"
    },
    {
      "anonymous": false,
      "inputs": [
        {
          "indexed": true,
          "internalType": "uint256",
          "name": "_disputeKitID",
          "type": "uint256"
        },
        {
          "indexed": true,
          "internalType": "contract IDisputeKit",
          "name": "_disputeKitAddress",
          "type": "address"
        }
      ],
      "name": "DisputeKitCreated",
      "type": "event"
    },
    {
      "anonymous": false,
      "inputs": [
        {
          "indexed": true,
          "internalType": "uint96",
          "name": "_courtID",
          "type": "uint96"
        },
        {
          "indexed": true,
          "internalType": "uint256",
          "name": "_disputeKitID",
          "type": "uint256"
        },
        {
          "indexed": true,
          "internalType": "bool",
          "name": "_enable",
          "type": "bool"
        }
      ],
      "name": "DisputeKitEnabled",
      "type": "event"
    },
    {
      "anonymous": false,
      "inputs": [
        {
          "indexed": true,
          "internalType": "uint256",
          "name": "_disputeID",
          "type": "uint256"
        },
        {
          "indexed": true,
          "internalType": "uint256",
          "name": "_roundID",
          "type": "uint256"
        },
        {
          "indexed": true,
          "internalType": "uint256",
          "name": "_fromDisputeKitID",
          "type": "uint256"
        },
        {
          "indexed": false,
          "internalType": "uint256",
          "name": "_toDisputeKitID",
          "type": "uint256"
        }
      ],
      "name": "DisputeKitJump",
      "type": "event"
    },
    {
      "anonymous": false,
      "inputs": [
        {
          "indexed": true,
          "internalType": "address",
          "name": "_address",
          "type": "address"
        },
        {
          "indexed": true,
          "internalType": "uint256",
          "name": "_disputeID",
          "type": "uint256"
        },
        {
          "indexed": false,
          "internalType": "uint256",
          "name": "_roundID",
          "type": "uint256"
        },
        {
          "indexed": false,
          "internalType": "uint256",
          "name": "_voteID",
          "type": "uint256"
        }
      ],
      "name": "Draw",
      "type": "event"
    },
    {
      "anonymous": false,
      "inputs": [
        {
          "indexed": false,
          "internalType": "uint64",
          "name": "version",
          "type": "uint64"
        }
      ],
      "name": "Initialized",
      "type": "event"
    },
    {
      "anonymous": false,
      "inputs": [
        {
          "indexed": true,
          "internalType": "uint256",
          "name": "_disputeID",
          "type": "uint256"
        },
        {
          "indexed": true,
          "internalType": "uint256",
          "name": "_roundID",
          "type": "uint256"
        },
        {
          "indexed": false,
          "internalType": "uint256",
          "name": "_pnkAmount",
          "type": "uint256"
        },
        {
          "indexed": false,
          "internalType": "uint256",
          "name": "_feeAmount",
          "type": "uint256"
        },
        {
          "indexed": false,
          "internalType": "contract IERC20",
          "name": "_feeToken",
          "type": "address"
        }
      ],
      "name": "LeftoverRewardSent",
      "type": "event"
    },
    {
      "anonymous": false,
      "inputs": [
        {
          "indexed": true,
          "internalType": "contract IERC20",
          "name": "_feeToken",
          "type": "address"
        },
        {
          "indexed": false,
          "internalType": "uint64",
          "name": "_rateInEth",
          "type": "uint64"
        },
        {
          "indexed": false,
          "internalType": "uint8",
          "name": "_rateDecimals",
          "type": "uint8"
        }
      ],
      "name": "NewCurrencyRate",
      "type": "event"
    },
    {
      "anonymous": false,
      "inputs": [
        {
          "indexed": true,
          "internalType": "uint256",
          "name": "_disputeID",
          "type": "uint256"
        },
        {
          "indexed": false,
          "internalType": "enum KlerosCoreBase.Period",
          "name": "_period",
          "type": "uint8"
        }
      ],
      "name": "NewPeriod",
      "type": "event"
    },
    {
      "anonymous": false,
      "inputs": [],
      "name": "Paused",
      "type": "event"
    },
    {
      "anonymous": false,
      "inputs": [
        {
          "indexed": true,
          "internalType": "contract IArbitrableV2",
          "name": "_arbitrable",
          "type": "address"
        },
        {
          "indexed": true,
          "internalType": "uint256",
          "name": "_disputeID",
          "type": "uint256"
        },
        {
          "indexed": false,
          "internalType": "uint256",
          "name": "_ruling",
          "type": "uint256"
        }
      ],
      "name": "Ruling",
      "type": "event"
    },
    {
      "anonymous": false,
      "inputs": [
        {
          "indexed": true,
          "internalType": "address",
          "name": "_account",
          "type": "address"
        },
        {
          "indexed": true,
          "internalType": "uint256",
          "name": "_disputeID",
          "type": "uint256"
        },
        {
          "indexed": true,
          "internalType": "uint256",
          "name": "_roundID",
          "type": "uint256"
        },
        {
          "indexed": false,
          "internalType": "uint256",
          "name": "_degreeOfCoherency",
          "type": "uint256"
        },
        {
          "indexed": false,
          "internalType": "int256",
          "name": "_pnkAmount",
          "type": "int256"
        },
        {
          "indexed": false,
          "internalType": "int256",
          "name": "_feeAmount",
          "type": "int256"
        },
        {
          "indexed": false,
          "internalType": "contract IERC20",
          "name": "_feeToken",
          "type": "address"
        }
      ],
      "name": "TokenAndETHShift",
      "type": "event"
    },
    {
      "anonymous": false,
      "inputs": [],
      "name": "Unpaused",
      "type": "event"
    },
    {
      "anonymous": false,
      "inputs": [
        {
          "indexed": true,
          "internalType": "address",
          "name": "newImplementation",
          "type": "address"
        }
      ],
      "name": "Upgraded",
      "type": "event"
    },
    {
      "inputs": [
        {
          "internalType": "contract IDisputeKit",
          "name": "_disputeKitAddress",
          "type": "address"
        }
      ],
      "name": "addNewDisputeKit",
      "outputs": [],
      "stateMutability": "nonpayable",
      "type": "function"
    },
    {
      "inputs": [
        {
          "internalType": "uint256",
          "name": "_disputeID",
          "type": "uint256"
        },
        {
          "internalType": "uint256",
          "name": "_numberOfChoices",
          "type": "uint256"
        },
        {
          "internalType": "bytes",
          "name": "_extraData",
          "type": "bytes"
        }
      ],
      "name": "appeal",
      "outputs": [],
      "stateMutability": "payable",
      "type": "function"
    },
    {
      "inputs": [
        {
          "internalType": "uint256",
          "name": "_disputeID",
          "type": "uint256"
        }
      ],
      "name": "appealCost",
      "outputs": [
        {
          "internalType": "uint256",
          "name": "cost",
          "type": "uint256"
        }
      ],
      "stateMutability": "view",
      "type": "function"
    },
    {
      "inputs": [
        {
          "internalType": "uint256",
          "name": "_disputeID",
          "type": "uint256"
        }
      ],
      "name": "appealPeriod",
      "outputs": [
        {
          "internalType": "uint256",
          "name": "start",
          "type": "uint256"
        },
        {
          "internalType": "uint256",
          "name": "end",
          "type": "uint256"
        }
      ],
      "stateMutability": "view",
      "type": "function"
    },
    {
      "inputs": [
        {
          "internalType": "bytes",
          "name": "_extraData",
          "type": "bytes"
        },
        {
          "internalType": "contract IERC20",
          "name": "_feeToken",
          "type": "address"
        }
      ],
      "name": "arbitrationCost",
      "outputs": [
        {
          "internalType": "uint256",
          "name": "cost",
          "type": "uint256"
        }
      ],
      "stateMutability": "view",
      "type": "function"
    },
    {
      "inputs": [
        {
          "internalType": "bytes",
          "name": "_extraData",
          "type": "bytes"
        }
      ],
      "name": "arbitrationCost",
      "outputs": [
        {
          "internalType": "uint256",
          "name": "cost",
          "type": "uint256"
        }
      ],
      "stateMutability": "view",
      "type": "function"
    },
    {
      "inputs": [
        {
          "internalType": "contract IERC20",
          "name": "_feeToken",
          "type": "address"
        },
        {
          "internalType": "bool",
          "name": "_accepted",
          "type": "bool"
        }
      ],
      "name": "changeAcceptedFeeTokens",
      "outputs": [],
      "stateMutability": "nonpayable",
      "type": "function"
    },
    {
      "inputs": [
        {
          "internalType": "uint96",
          "name": "_courtID",
          "type": "uint96"
        },
        {
          "internalType": "bool",
          "name": "_hiddenVotes",
          "type": "bool"
        },
        {
          "internalType": "uint256",
          "name": "_minStake",
          "type": "uint256"
        },
        {
          "internalType": "uint256",
          "name": "_alpha",
          "type": "uint256"
        },
        {
          "internalType": "uint256",
          "name": "_feeForJuror",
          "type": "uint256"
        },
        {
          "internalType": "uint256",
          "name": "_jurorsForCourtJump",
          "type": "uint256"
        },
        {
          "internalType": "uint256[4]",
          "name": "_timesPerPeriod",
          "type": "uint256[4]"
        }
      ],
      "name": "changeCourtParameters",
      "outputs": [],
      "stateMutability": "nonpayable",
      "type": "function"
    },
    {
      "inputs": [
        {
          "internalType": "contract IERC20",
          "name": "_feeToken",
          "type": "address"
        },
        {
          "internalType": "uint64",
          "name": "_rateInEth",
          "type": "uint64"
        },
        {
          "internalType": "uint8",
          "name": "_rateDecimals",
          "type": "uint8"
        }
      ],
      "name": "changeCurrencyRates",
      "outputs": [],
      "stateMutability": "nonpayable",
      "type": "function"
    },
    {
      "inputs": [
        {
          "internalType": "address payable",
          "name": "_governor",
          "type": "address"
        }
      ],
      "name": "changeGovernor",
      "outputs": [],
      "stateMutability": "nonpayable",
      "type": "function"
    },
    {
      "inputs": [
        {
          "internalType": "address",
          "name": "_guardian",
          "type": "address"
        }
      ],
      "name": "changeGuardian",
      "outputs": [],
      "stateMutability": "nonpayable",
      "type": "function"
    },
    {
      "inputs": [
        {
          "internalType": "address",
          "name": "_jurorProsecutionModule",
          "type": "address"
        }
      ],
      "name": "changeJurorProsecutionModule",
      "outputs": [],
      "stateMutability": "nonpayable",
      "type": "function"
    },
    {
      "inputs": [
        {
          "internalType": "contract IERC20",
          "name": "_pinakion",
          "type": "address"
        }
      ],
      "name": "changePinakion",
      "outputs": [],
      "stateMutability": "nonpayable",
      "type": "function"
    },
    {
      "inputs": [
        {
          "internalType": "contract ISortitionModule",
          "name": "_sortitionModule",
          "type": "address"
        }
      ],
      "name": "changeSortitionModule",
      "outputs": [],
      "stateMutability": "nonpayable",
      "type": "function"
    },
    {
      "inputs": [
        {
          "internalType": "contract IERC20",
          "name": "_toToken",
          "type": "address"
        },
        {
          "internalType": "uint256",
          "name": "_amountInEth",
          "type": "uint256"
        }
      ],
      "name": "convertEthToTokenAmount",
      "outputs": [
        {
          "internalType": "uint256",
          "name": "",
          "type": "uint256"
        }
      ],
      "stateMutability": "view",
      "type": "function"
    },
    {
      "inputs": [
        {
          "internalType": "uint256",
          "name": "",
          "type": "uint256"
        }
      ],
      "name": "courts",
      "outputs": [
        {
          "internalType": "uint96",
          "name": "parent",
          "type": "uint96"
        },
        {
          "internalType": "bool",
          "name": "hiddenVotes",
          "type": "bool"
        },
        {
          "internalType": "uint256",
          "name": "minStake",
          "type": "uint256"
        },
        {
          "internalType": "uint256",
          "name": "alpha",
          "type": "uint256"
        },
        {
          "internalType": "uint256",
          "name": "feeForJuror",
          "type": "uint256"
        },
        {
          "internalType": "uint256",
          "name": "jurorsForCourtJump",
          "type": "uint256"
        },
        {
          "internalType": "bool",
          "name": "disabled",
          "type": "bool"
        }
      ],
      "stateMutability": "view",
      "type": "function"
    },
    {
      "inputs": [
        {
          "internalType": "uint96",
          "name": "_parent",
          "type": "uint96"
        },
        {
          "internalType": "bool",
          "name": "_hiddenVotes",
          "type": "bool"
        },
        {
          "internalType": "uint256",
          "name": "_minStake",
          "type": "uint256"
        },
        {
          "internalType": "uint256",
          "name": "_alpha",
          "type": "uint256"
        },
        {
          "internalType": "uint256",
          "name": "_feeForJuror",
          "type": "uint256"
        },
        {
          "internalType": "uint256",
          "name": "_jurorsForCourtJump",
          "type": "uint256"
        },
        {
          "internalType": "uint256[4]",
          "name": "_timesPerPeriod",
          "type": "uint256[4]"
        },
        {
          "internalType": "bytes",
          "name": "_sortitionExtraData",
          "type": "bytes"
        },
        {
          "internalType": "uint256[]",
          "name": "_supportedDisputeKits",
          "type": "uint256[]"
        }
      ],
      "name": "createCourt",
      "outputs": [],
      "stateMutability": "nonpayable",
      "type": "function"
    },
    {
      "inputs": [
        {
          "internalType": "uint256",
          "name": "_numberOfChoices",
          "type": "uint256"
        },
        {
          "internalType": "bytes",
          "name": "_extraData",
          "type": "bytes"
        }
      ],
      "name": "createDispute",
      "outputs": [
        {
          "internalType": "uint256",
          "name": "disputeID",
          "type": "uint256"
        }
      ],
      "stateMutability": "payable",
      "type": "function"
    },
    {
      "inputs": [
        {
          "internalType": "uint256",
          "name": "_numberOfChoices",
          "type": "uint256"
        },
        {
          "internalType": "bytes",
          "name": "_extraData",
          "type": "bytes"
        },
        {
          "internalType": "contract IERC20",
          "name": "_feeToken",
          "type": "address"
        },
        {
          "internalType": "uint256",
          "name": "_feeAmount",
          "type": "uint256"
        }
      ],
      "name": "createDispute",
      "outputs": [
        {
          "internalType": "uint256",
          "name": "disputeID",
          "type": "uint256"
        }
      ],
      "stateMutability": "nonpayable",
      "type": "function"
    },
    {
      "inputs": [
        {
          "internalType": "contract IERC20",
          "name": "",
          "type": "address"
        }
      ],
      "name": "currencyRates",
      "outputs": [
        {
          "internalType": "bool",
          "name": "feePaymentAccepted",
          "type": "bool"
        },
        {
          "internalType": "uint64",
          "name": "rateInEth",
          "type": "uint64"
        },
        {
          "internalType": "uint8",
          "name": "rateDecimals",
          "type": "uint8"
        }
      ],
      "stateMutability": "view",
      "type": "function"
    },
    {
      "inputs": [
        {
          "internalType": "uint256",
          "name": "_disputeID",
          "type": "uint256"
        }
      ],
      "name": "currentRuling",
      "outputs": [
        {
          "internalType": "uint256",
          "name": "ruling",
          "type": "uint256"
        },
        {
          "internalType": "bool",
          "name": "tied",
          "type": "bool"
        },
        {
          "internalType": "bool",
          "name": "overridden",
          "type": "bool"
        }
      ],
      "stateMutability": "view",
      "type": "function"
    },
    {
      "inputs": [
        {
          "internalType": "uint256",
          "name": "",
          "type": "uint256"
        }
      ],
      "name": "disputeKits",
      "outputs": [
        {
          "internalType": "contract IDisputeKit",
          "name": "",
          "type": "address"
        }
      ],
      "stateMutability": "view",
      "type": "function"
    },
    {
      "inputs": [
        {
          "internalType": "uint256",
          "name": "",
          "type": "uint256"
        }
      ],
      "name": "disputes",
      "outputs": [
        {
          "internalType": "uint96",
          "name": "courtID",
          "type": "uint96"
        },
        {
          "internalType": "contract IArbitrableV2",
          "name": "arbitrated",
          "type": "address"
        },
        {
          "internalType": "enum KlerosCoreBase.Period",
          "name": "period",
          "type": "uint8"
        },
        {
          "internalType": "bool",
          "name": "ruled",
          "type": "bool"
        },
        {
          "internalType": "uint256",
          "name": "lastPeriodChange",
          "type": "uint256"
        }
      ],
      "stateMutability": "view",
      "type": "function"
    },
    {
      "inputs": [
        {
          "internalType": "uint256",
          "name": "_disputeID",
          "type": "uint256"
        },
        {
          "internalType": "uint256",
          "name": "_iterations",
          "type": "uint256"
        }
      ],
      "name": "draw",
      "outputs": [],
      "stateMutability": "nonpayable",
      "type": "function"
    },
    {
      "inputs": [
        {
          "internalType": "uint96",
          "name": "_courtID",
          "type": "uint96"
        },
        {
          "internalType": "uint256[]",
          "name": "_disputeKitIDs",
          "type": "uint256[]"
        },
        {
          "internalType": "bool",
          "name": "_enable",
          "type": "bool"
        }
      ],
      "name": "enableDisputeKits",
      "outputs": [],
      "stateMutability": "nonpayable",
      "type": "function"
    },
    {
      "inputs": [
        {
          "internalType": "uint256",
          "name": "_disputeID",
          "type": "uint256"
        },
        {
          "internalType": "uint256",
          "name": "_round",
          "type": "uint256"
        },
        {
          "internalType": "uint256",
          "name": "_iterations",
          "type": "uint256"
        }
      ],
      "name": "execute",
      "outputs": [],
      "stateMutability": "nonpayable",
      "type": "function"
    },
    {
      "inputs": [
        {
          "internalType": "address",
          "name": "_destination",
          "type": "address"
        },
        {
          "internalType": "uint256",
          "name": "_amount",
          "type": "uint256"
        },
        {
          "internalType": "bytes",
          "name": "_data",
          "type": "bytes"
        }
      ],
      "name": "executeGovernorProposal",
      "outputs": [],
      "stateMutability": "nonpayable",
      "type": "function"
    },
    {
      "inputs": [
        {
          "internalType": "uint256",
          "name": "_disputeID",
          "type": "uint256"
        }
      ],
      "name": "executeRuling",
      "outputs": [],
      "stateMutability": "nonpayable",
      "type": "function"
    },
    {
      "inputs": [],
      "name": "getDisputeKitsLength",
      "outputs": [
        {
          "internalType": "uint256",
          "name": "",
          "type": "uint256"
        }
      ],
      "stateMutability": "view",
      "type": "function"
    },
    {
      "inputs": [
        {
          "internalType": "uint256",
          "name": "_disputeID",
          "type": "uint256"
        }
      ],
      "name": "getNumberOfRounds",
      "outputs": [
        {
          "internalType": "uint256",
          "name": "",
          "type": "uint256"
        }
      ],
      "stateMutability": "view",
      "type": "function"
    },
    {
      "inputs": [
        {
          "internalType": "uint256",
          "name": "_disputeID",
          "type": "uint256"
        }
      ],
      "name": "getNumberOfVotes",
      "outputs": [
        {
          "internalType": "uint256",
          "name": "",
          "type": "uint256"
        }
      ],
      "stateMutability": "view",
      "type": "function"
    },
    {
      "inputs": [
        {
          "internalType": "uint256",
          "name": "_disputeID",
          "type": "uint256"
        },
        {
          "internalType": "uint256",
          "name": "_round",
          "type": "uint256"
        }
      ],
      "name": "getRoundInfo",
      "outputs": [
        {
          "components": [
            {
              "internalType": "uint256",
              "name": "disputeKitID",
              "type": "uint256"
            },
            {
              "internalType": "uint256",
              "name": "pnkAtStakePerJuror",
              "type": "uint256"
            },
            {
              "internalType": "uint256",
              "name": "totalFeesForJurors",
              "type": "uint256"
            },
            {
              "internalType": "uint256",
              "name": "nbVotes",
              "type": "uint256"
            },
            {
              "internalType": "uint256",
              "name": "repartitions",
              "type": "uint256"
            },
            {
              "internalType": "uint256",
              "name": "pnkPenalties",
              "type": "uint256"
            },
            {
              "internalType": "address[]",
              "name": "drawnJurors",
              "type": "address[]"
            },
            {
              "internalType": "uint256",
              "name": "sumFeeRewardPaid",
              "type": "uint256"
            },
            {
              "internalType": "uint256",
              "name": "sumPnkRewardPaid",
              "type": "uint256"
            },
            {
              "internalType": "contract IERC20",
              "name": "feeToken",
              "type": "address"
            },
            {
              "internalType": "uint256",
              "name": "drawIterations",
              "type": "uint256"
            }
          ],
          "internalType": "struct KlerosCoreBase.Round",
          "name": "",
          "type": "tuple"
        }
      ],
      "stateMutability": "view",
      "type": "function"
    },
    {
      "inputs": [
        {
          "internalType": "uint96",
          "name": "_courtID",
          "type": "uint96"
        }
      ],
      "name": "getTimesPerPeriod",
      "outputs": [
        {
          "internalType": "uint256[4]",
          "name": "timesPerPeriod",
          "type": "uint256[4]"
        }
      ],
      "stateMutability": "view",
      "type": "function"
    },
    {
      "inputs": [],
      "name": "governor",
      "outputs": [
        {
          "internalType": "address",
          "name": "",
          "type": "address"
        }
      ],
      "stateMutability": "view",
      "type": "function"
    },
    {
      "inputs": [],
      "name": "guardian",
      "outputs": [
        {
          "internalType": "address",
          "name": "",
          "type": "address"
        }
      ],
      "stateMutability": "view",
      "type": "function"
    },
    {
      "inputs": [
        {
          "internalType": "address",
          "name": "_governor",
          "type": "address"
        },
        {
          "internalType": "address",
          "name": "_guardian",
          "type": "address"
        },
        {
          "internalType": "contract IERC20",
          "name": "_pinakion",
          "type": "address"
        },
        {
          "internalType": "address",
          "name": "_jurorProsecutionModule",
          "type": "address"
        },
        {
          "internalType": "contract IDisputeKit",
          "name": "_disputeKit",
          "type": "address"
        },
        {
          "internalType": "bool",
          "name": "_hiddenVotes",
          "type": "bool"
        },
        {
          "internalType": "uint256[4]",
          "name": "_courtParameters",
          "type": "uint256[4]"
        },
        {
          "internalType": "uint256[4]",
          "name": "_timesPerPeriod",
          "type": "uint256[4]"
        },
        {
          "internalType": "bytes",
          "name": "_sortitionExtraData",
          "type": "bytes"
        },
        {
          "internalType": "contract ISortitionModule",
          "name": "_sortitionModuleAddress",
          "type": "address"
        }
      ],
      "name": "initialize",
      "outputs": [],
      "stateMutability": "nonpayable",
      "type": "function"
    },
    {
      "inputs": [
        {
          "internalType": "uint256",
          "name": "_disputeID",
          "type": "uint256"
        }
      ],
      "name": "isDisputeKitJumping",
      "outputs": [
        {
          "internalType": "bool",
          "name": "",
          "type": "bool"
        }
      ],
      "stateMutability": "view",
      "type": "function"
    },
    {
      "inputs": [
        {
          "internalType": "uint96",
          "name": "_courtID",
          "type": "uint96"
        },
        {
          "internalType": "uint256",
          "name": "_disputeKitID",
          "type": "uint256"
        }
      ],
      "name": "isSupported",
      "outputs": [
        {
          "internalType": "bool",
          "name": "",
          "type": "bool"
        }
      ],
      "stateMutability": "view",
      "type": "function"
    },
    {
      "inputs": [],
      "name": "jurorProsecutionModule",
      "outputs": [
        {
          "internalType": "address",
          "name": "",
          "type": "address"
        }
      ],
      "stateMutability": "view",
      "type": "function"
    },
    {
      "inputs": [
        {
          "internalType": "uint256",
          "name": "_disputeID",
          "type": "uint256"
        }
      ],
      "name": "passPeriod",
      "outputs": [],
      "stateMutability": "nonpayable",
      "type": "function"
    },
    {
      "inputs": [],
      "name": "pause",
      "outputs": [],
      "stateMutability": "nonpayable",
      "type": "function"
    },
    {
      "inputs": [],
      "name": "paused",
      "outputs": [
        {
          "internalType": "bool",
          "name": "",
          "type": "bool"
        }
      ],
      "stateMutability": "view",
      "type": "function"
    },
    {
      "inputs": [],
      "name": "pinakion",
      "outputs": [
        {
          "internalType": "contract IERC20",
          "name": "",
          "type": "address"
        }
      ],
      "stateMutability": "view",
      "type": "function"
    },
    {
      "inputs": [],
      "name": "proxiableUUID",
      "outputs": [
        {
          "internalType": "bytes32",
          "name": "",
          "type": "bytes32"
        }
      ],
      "stateMutability": "view",
      "type": "function"
    },
    {
      "inputs": [
        {
          "internalType": "uint96",
          "name": "_courtID",
          "type": "uint96"
        },
        {
          "internalType": "uint256",
          "name": "_newStake",
          "type": "uint256"
        }
      ],
      "name": "setStake",
      "outputs": [],
      "stateMutability": "nonpayable",
      "type": "function"
    },
    {
      "inputs": [
        {
          "internalType": "address",
          "name": "_account",
          "type": "address"
        },
        {
          "internalType": "uint96",
          "name": "_courtID",
          "type": "uint96"
        },
        {
          "internalType": "uint256",
          "name": "_newStake",
          "type": "uint256"
        },
        {
          "internalType": "bool",
          "name": "_alreadyTransferred",
          "type": "bool"
        }
      ],
      "name": "setStakeBySortitionModule",
      "outputs": [],
      "stateMutability": "nonpayable",
      "type": "function"
    },
    {
      "inputs": [],
      "name": "sortitionModule",
      "outputs": [
        {
          "internalType": "contract ISortitionModule",
          "name": "",
          "type": "address"
        }
      ],
      "stateMutability": "view",
      "type": "function"
    },
    {
      "inputs": [],
      "name": "unpause",
      "outputs": [],
      "stateMutability": "nonpayable",
      "type": "function"
    },
    {
      "inputs": [
        {
          "internalType": "address",
          "name": "newImplementation",
          "type": "address"
        },
        {
          "internalType": "bytes",
          "name": "data",
          "type": "bytes"
        }
      ],
      "name": "upgradeToAndCall",
      "outputs": [],
      "stateMutability": "payable",
      "type": "function"
    }
  ],
  "transactionHash": "0x37b50831c82a0f30eeaac3cd01e8fc4f92f4f6406d3c0fa0ed98bc87cfddced6",
  "args": [],
  "numDeployments": 1,
  "solcInputHash": "464986207bfd65f93de9fcb4daa23259",
  "bytecode": "0x60a0604052306080523480156200001557600080fd5b506200002062000026565b620000d9565b7ff0c57e16840df040f15088dc2f81fe391c3923bec73e23a9662efc9c229c6a0e805468010000000000000000900460ff1615620000765760405162dc149f60e41b815260040160405180910390fd5b80546001600160401b0390811614620000d65780546001600160401b0319166001600160401b0390811782556040519081527fc7f505b2f371ae2175ee4913f4499e1f2633a7b5936321eed1cdaeb6115181d29060200160405180910390a15b50565b6080516158b862000103600039600081816116d4015281816116fd01526118f401526158b86000f3fe60806040526004361061029d5760003560e01c806382d0223711610165578063c71f4253116100cc578063e4c0aaf411610085578063e4c0aaf4146108ac578063f6506db4146108cc578063f7434ea9146108ec578063fbb519e71461090c578063fbf405b01461092c578063fc6f8f161461094c578063fe524c391461096c57600080fd5b8063c71f4253146107f7578063cf0c38f814610817578063d07368bd14610837578063d2b8035a14610857578063d4d1d76a14610877578063d98493f61461088c57600080fd5b8063acdbf51d1161011e578063acdbf51d1461073c578063afe15cfb1461075c578063b004963714610791578063c13517e1146107b1578063c258bb19146107c4578063c3569902146107e457600080fd5b806382d022371461067a5780638456cb591461069a57806386541b24146106af5780638a9bb02a146106cf5780638bb04875146106fc578063a072b86c1461071c57600080fd5b80633cfd11841161020957806359ec827e116101c257806359ec827e146105c05780635c975abb146105e0578063751accd0146105fa5780637717a6e81461061a5780637934c0be1461063a5780637b4f3cc51461065a57600080fd5b80633cfd1184146105055780633f4ba83a14610532578063452a9320146105475780634f1ef2861461056757806352d1902d1461057a578063564a565d1461058f57600080fd5b806319b815291161025b57806319b81529146103d75780631c3db16d146104075780631f5a0dd2146104445780632d29a47b146104a55780632e1daf2f146104c55780632fcb4f04146104e557600080fd5b8062f5822c146102a25780630219da79146102c45780630b7414bc1461033c5780630c340a241461035c578063115d5376146103895780631860592b146103a9575b600080fd5b3480156102ae57600080fd5b506102c26102bd366004614a12565b61098c565b005b3480156102d057600080fd5b5061030f6102df366004614a12565b60086020526000908152604090205460ff808216916001600160401b0361010082041691600160481b9091041683565b6040805193151584526001600160401b03909216602084015260ff16908201526060015b60405180910390f35b34801561034857600080fd5b506102c2610357366004614b25565b6109d9565b34801561036857600080fd5b5060005461037c906001600160a01b031681565b6040516103339190614b86565b34801561039557600080fd5b506102c26103a4366004614b9a565b610b10565b3480156103b557600080fd5b506103c96103c4366004614bb3565b611047565b604051908152602001610333565b3480156103e357600080fd5b506103f76103f2366004614b9a565b6110a1565b6040519015158152602001610333565b34801561041357600080fd5b50610427610422366004614b9a565b61119a565b604080519384529115156020840152151590820152606001610333565b34801561045057600080fd5b5061046461045f366004614b9a565b61129b565b604080516001600160601b0390981688529515156020880152948601939093526060850191909152608084015260a0830152151560c082015260e001610333565b3480156104b157600080fd5b506102c26104c0366004614bdf565b6112fa565b3480156104d157600080fd5b5060045461037c906001600160a01b031681565b3480156104f157600080fd5b506102c2610500366004614a12565b611586565b34801561051157600080fd5b50610525610520366004614c16565b6115d3565b6040516103339190614c54565b34801561053e57600080fd5b506102c261163d565b34801561055357600080fd5b5060015461037c906001600160a01b031681565b6102c2610575366004614cd1565b6116c0565b34801561058657600080fd5b506103c96118e7565b34801561059b57600080fd5b506105af6105aa366004614b9a565b611945565b604051610333959493929190614d58565b3480156105cc57600080fd5b506103c96105db366004614b9a565b6119a1565b3480156105ec57600080fd5b506009546103f79060ff1681565b34801561060657600080fd5b506102c2610615366004614d97565b611af6565b34801561062657600080fd5b506102c2610635366004614def565b611ba0565b34801561064657600080fd5b506102c2610655366004614e0b565b611bd2565b34801561066657600080fd5b506102c2610675366004614eb1565b611c51565b34801561068657600080fd5b506102c2610695366004614f92565b611d3f565b3480156106a657600080fd5b506102c2611dfc565b3480156106bb57600080fd5b506102c26106ca366004614fe4565b611e9c565b3480156106db57600080fd5b506106ef6106ea366004615052565b612079565b60405161033391906150b9565b34801561070857600080fd5b506102c2610717366004614b9a565b612205565b34801561072857600080fd5b506102c261073736600461515e565b612369565b34801561074857600080fd5b5061037c610757366004614b9a565b6126cb565b34801561076857600080fd5b5061077c610777366004614b9a565b6126f5565b60408051928352602083019190915201610333565b34801561079d57600080fd5b506102c26107ac366004614a12565b6127a1565b6103c96107bf36600461521e565b6127ee565b3480156107d057600080fd5b506102c26107df366004614a12565b612826565b6102c26107f236600461524e565b612873565b34801561080357600080fd5b506103c9610812366004614b9a565b612d47565b34801561082357600080fd5b5060035461037c906001600160a01b031681565b34801561084357600080fd5b506102c2610852366004614a12565b612daf565b34801561086357600080fd5b506102c2610872366004615052565b612e58565b34801561088357600080fd5b506006546103c9565b34801561089857600080fd5b506103c96108a73660046152cf565b61316d565b3480156108b857600080fd5b506102c26108c7366004614a12565b6131ba565b3480156108d857600080fd5b506103c96108e736600461531a565b613207565b3480156108f857600080fd5b506103c9610907366004615380565b6132ed565b34801561091857600080fd5b506102c26109273660046153b4565b613339565b34801561093857600080fd5b5060025461037c906001600160a01b031681565b34801561095857600080fd5b506103c9610967366004614b9a565b613379565b34801561097857600080fd5b506103f7610987366004614def565b6133a8565b6000546001600160a01b031633146109b75760405163c383977560e01b815260040160405180910390fd5b600280546001600160a01b0319166001600160a01b0392909216919091179055565b6000546001600160a01b03163314610a045760405163c383977560e01b815260040160405180910390fd5b60005b8251811015610b0a578115610aa357828181518110610a2857610a28615405565b602002602001015160001480610a5b57506006548351849083908110610a5057610a50615405565b602002602001015110155b15610a7957604051633d58a98960e11b815260040160405180910390fd5b610a9e84848381518110610a8f57610a8f615405565b602002602001015160016133f0565b610b02565b6001838281518110610ab757610ab7615405565b602002602001015103610add576040516356d111fd60e11b815260040160405180910390fd5b610b0284848381518110610af357610af3615405565b602002602001015160006133f0565b600101610a07565b50505050565b600060078281548110610b2557610b25615405565b600091825260208220600490910201805460058054929450916001600160601b03909116908110610b5857610b58615405565b6000918252602082206003850154600c909202019250610b7a90600190615431565b90506000836003018281548110610b9357610b93615405565b600091825260208220600b909102019150600185015460ff166004811115610bbd57610bbd614d20565b03610c985781158015610c0c57506001840154600684019060ff166004811115610be957610be9614d20565b60048110610bf957610bf9615405565b01546002850154610c0a9042615431565b105b15610c2a57604051633e9727df60e01b815260040160405180910390fd5b6003810154600682015414610c52576040516309e4486b60e41b815260040160405180910390fd5b8254600160601b900460ff16610c69576002610c6c565b60015b60018086018054909160ff1990911690836004811115610c8e57610c8e614d20565b0217905550610ff9565b60018085015460ff166004811115610cb257610cb2614d20565b03610dc2576001840154600684019060ff166004811115610cd557610cd5614d20565b60048110610ce557610ce5615405565b01546002850154610cf69042615431565b108015610d8d57506006816000015481548110610d1557610d15615405565b600091825260209091200154604051630baa64d160e01b8152600481018790526001600160a01b0390911690630baa64d190602401602060405180830381865afa158015610d67573d6000803e3d6000fd5b505050506040513d601f19601f82011682018060405250810190610d8b9190615444565b155b15610dab57604051634dfa578560e11b815260040160405180910390fd5b6001808501805460029260ff199091169083610c8e565b6002600185015460ff166004811115610ddd57610ddd614d20565b03610f2b576001840154600684019060ff166004811115610e0057610e00614d20565b60048110610e1057610e10615405565b01546002850154610e219042615431565b108015610eb857506006816000015481548110610e4057610e40615405565b6000918252602090912001546040516336a66c7560e11b8152600481018790526001600160a01b0390911690636d4cd8ea90602401602060405180830381865afa158015610e92573d6000803e3d6000fd5b505050506040513d601f19601f82011682018060405250810190610eb69190615444565b155b15610ed657604051631988dead60e31b815260040160405180910390fd5b600184018054600360ff199091161790558354604051600160601b9091046001600160a01b03169086907fa5d41b970d849372be1da1481ffd78d162bfe57a7aa2fe4e5fb73481fa5ac24f90600090a3610ff9565b6003600185015460ff166004811115610f4657610f46614d20565b03610fc0576001840154600684019060ff166004811115610f6957610f69614d20565b60048110610f7957610f79615405565b01546002850154610f8a9042615431565b1015610fa957604051632f4dfd8760e01b815260040160405180910390fd5b6001808501805460049260ff199091169083610c8e565b6004600185015460ff166004811115610fdb57610fdb614d20565b03610ff9576040516307f38c8f60e11b815260040160405180910390fd5b426002850155600184015460405186917f4e6f5cf43b95303e86aee81683df63992061723a829ee012db21dad388756b91916110389160ff1690615461565b60405180910390a25050505050565b6001600160a01b03821660009081526008602052604081205461010081046001600160401b03169061108490600160481b900460ff16600a615553565b61108e9084615562565b611098919061558f565b90505b92915050565b600080600783815481106110b7576110b7615405565b60009182526020822060036004909202019081018054919350906110dd90600190615431565b815481106110ed576110ed615405565b600091825260208220845460058054600b909402909201945090916001600160601b0390911690811061112257611122615405565b90600052602060002090600c0201905080600501548260030154101561114d57506000949350505050565b80546005805490916001600160601b031690811061116d5761116d615405565b6000918252602080832094548352600a600c9092029094010190925250604090205460ff16159392505050565b600080600080600785815481106111b3576111b3615405565b60009182526020822060036004909202019081018054919350906111d990600190615431565b815481106111e9576111e9615405565b90600052602060002090600b020190506000600682600001548154811061121257611212615405565b600091825260209091200154604051631c3db16d60e01b8152600481018990526001600160a01b0390911691508190631c3db16d90602401606060405180830381865afa158015611267573d6000803e3d6000fd5b505050506040513d601f19601f8201168201806040525081019061128b91906155a3565b9199909850909650945050505050565b600581815481106112ab57600080fd5b60009182526020909120600c9091020180546002820154600383015460048401546005850154600b909501546001600160601b038516965060ff600160601b9095048516959394929391921687565b60095460ff161561131e57604051636f1dac1d60e01b815260040160405180910390fd5b6000806007858154811061133457611334615405565b600091825260209091206004918202019150600182015460ff16600481111561135f5761135f614d20565b1461137d57604051638794ce4b60e01b815260040160405180910390fd5b80600301848154811061139257611392615405565b6000918252602082206004600b909202019081015490935091506113b684836155db565b60058401546006850154600286015492935090916000906113d890839061558f565b905060008660010154905060008060068960000154815481106113fd576113fd615405565b60009182526020909120015460405163368efae360e21b8152600481018e9052602481018d90526001600160a01b039091169150819063da3beb8c90604401602060405180830381865afa158015611459573d6000803e3d6000fd5b505050506040513d601f19601f8201168201806040525081019061147d91906155ee565b915050806000036114995783861115611494578395505b6114b9565b6114a4846002615562565b8611156114b9576114b6846002615562565b95505b60048801869055865b86811015611565578481101561151b576115146040518061010001604052808e81526020018d815260200184815260200187815260200186815260200185815260200188815260200183815250613478565b955061155d565b61155d6040518061010001604052808e81526020018d815260200184815260200187815260200186815260200185815260200188815260200183815250613949565b6001016114c2565b508488600501541461157957600588018590555b5050505050505050505050565b6000546001600160a01b031633146115b15760405163c383977560e01b815260040160405180910390fd5b600180546001600160a01b0319166001600160a01b0392909216919091179055565b6115db614952565b6005826001600160601b0316815481106115f7576115f7615405565b6000918252602090912060408051608081019182905292600c029091016006019060049082845b81548152602001906001019080831161161e5750505050509050919050565b6000546001600160a01b031633146116685760405163c383977560e01b815260040160405180910390fd5b60095460ff1661168b5760405163b4143dc760e01b815260040160405180910390fd5b6009805460ff191690556040517fa45f47fdea8a1efdd9029a5691c7f759c32b7c698632b563573e155625d1693390600090a1565b6116c982613e81565b306001600160a01b037f000000000000000000000000000000000000000000000000000000000000000016148061174757507f00000000000000000000000000000000000000000000000000000000000000006001600160a01b031661173b6000805160206158638339815191525490565b6001600160a01b031614155b156117655760405163703e46dd60e11b815260040160405180910390fd5b816001600160a01b03166352d1902d6040518163ffffffff1660e01b8152600401602060405180830381865afa9250505080156117bf575060408051601f3d908101601f191682019092526117bc918101906155ee565b60015b6117e75781604051630c76093760e01b81526004016117de9190614b86565b60405180910390fd5b600080516020615863833981519152811461181857604051632a87526960e21b8152600481018290526024016117de565b6000805160206158638339815191528390556040516001600160a01b038416907fbc7cd75a20ee27fd9adebab32041f755214dbc6bffa90cc0225b39da2e5c2d3b90600090a28151156118e1576000836001600160a01b03168360405161187f919061562b565b600060405180830381855af49150503d80600081146118ba576040519150601f19603f3d011682016040523d82523d6000602084013e6118bf565b606091505b5050905080610b0a576040516339b21b5d60e11b815260040160405180910390fd5b505b5050565b6000306001600160a01b037f000000000000000000000000000000000000000000000000000000000000000016146119325760405163703e46dd60e11b815260040160405180910390fd5b5060008051602061586383398151915290565b6007818154811061195557600080fd5b60009182526020909120600490910201805460018201546002909201546001600160601b0382169350600160601b9091046001600160a01b03169160ff80821692610100909204169085565b600080600783815481106119b7576119b7615405565b60009182526020822060036004909202019081018054919350906119dd90600190615431565b815481106119ed576119ed615405565b600091825260208220845460058054600b909402909201945090916001600160601b03909116908110611a2257611a22615405565b90600052602060002090600c020190508060050154826003015410611ac15782546001600160601b031660001901611a63576001600160ff1b039350611aee565b6003820154611a73906002615562565b611a7e9060016155db565b81546005805490916001600160601b0316908110611a9e57611a9e615405565b90600052602060002090600c020160040154611aba9190615562565b9350611aee565b6003820154611ad1906002615562565b611adc9060016155db565b8160040154611aeb9190615562565b93505b505050919050565b6000546001600160a01b03163314611b215760405163c383977560e01b815260040160405180910390fd5b6000836001600160a01b03168383604051611b3c919061562b565b60006040518083038185875af1925050503d8060008114611b79576040519150601f19603f3d011682016040523d82523d6000602084013e611b7e565b606091505b5050905080610b0a576040516322092f2f60e11b815260040160405180910390fd5b60095460ff1615611bc457604051636f1dac1d60e01b815260040160405180910390fd5b6118e1338383600080613eaf565b6000546001600160a01b03163314611bfd5760405163c383977560e01b815260040160405180910390fd5b6001600160a01b038216600081815260086020526040808220805460ff191685151590811790915590519092917f541615e167511d757a7067a700eb54431b256bb458dfdce0ac58bf2ed0aefd4491a35050565b7ff0c57e16840df040f15088dc2f81fe391c3923bec73e23a9662efc9c229c6a0e805460019190600160401b900460ff1680611c9a575080546001600160401b03808416911610155b15611cb75760405162dc149f60e41b815260040160405180910390fd5b805468ffffffffffffffffff19166001600160401b03831617600160401b178155611cea8c8c8c8c8c8c8c8c8c8c614069565b805460ff60401b191681556040516001600160401b03831681527fc7f505b2f371ae2175ee4913f4499e1f2633a7b5936321eed1cdaeb6115181d29060200160405180910390a1505050505050505050505050565b6000546001600160a01b03163314611d6a5760405163c383977560e01b815260040160405180910390fd5b6001600160a01b038316600081815260086020908152604091829020805469ffffffffffffffffff0019166101006001600160401b03881690810260ff60481b191691909117600160481b60ff8816908102919091179092558351908152918201527fe6996b7f03e9bd02228b99d3d946932e3197f505f60542c4cfbc919441d8a4e6910160405180910390a2505050565b6001546001600160a01b03163314801590611e2257506000546001600160a01b03163314155b15611e4057604051636b29334f60e01b815260040160405180910390fd5b60095460ff1615611e6457604051636f1dac1d60e01b815260040160405180910390fd5b6009805460ff191660011790556040517f9e87fac88ff661f02d44f95383c817fece4bce600a3dab7a54406878b965e75290600090a1565b6000546001600160a01b03163314611ec75760405163c383977560e01b815260040160405180910390fd5b60006005886001600160601b031681548110611ee557611ee5615405565b90600052602060002090600c0201905060016001600160601b0316886001600160601b031614158015611f47575080546005805488926001600160601b0316908110611f3357611f33615405565b90600052602060002090600c020160020154115b15611f6557604051639717078960e01b815260040160405180910390fd5b60005b6001820154811015611fe057866005836001018381548110611f8c57611f8c615405565b906000526020600020015481548110611fa757611fa7615405565b90600052602060002090600c0201600201541015611fd857604051639717078960e01b815260040160405180910390fd5b600101611f68565b5060028101869055805460ff60601b1916600160601b88151502178155600381018590556004808201859055600582018490556120239060068301908490614970565b50876001600160601b03167f709b1f5fda58af9a4f52dacd1ec404840a8148455700cce155a2bd8cf127ef1a88888888888860405161206796959493929190615647565b60405180910390a25050505050505050565b6120df60405180610160016040528060008152602001600081526020016000815260200160008152602001600081526020016000815260200160608152602001600081526020016000815260200160006001600160a01b03168152602001600081525090565b600783815481106120f2576120f2615405565b9060005260206000209060040201600301828154811061211457612114615405565b90600052602060002090600b020160405180610160016040529081600082015481526020016001820154815260200160028201548152602001600382015481526020016004820154815260200160058201548152602001600682018054806020026020016040519081016040528092919081815260200182805480156121c357602002820191906000526020600020905b81546001600160a01b031681526001909101906020018083116121a5575b5050509183525050600782015460208201526008820154604082015260098201546001600160a01b03166060820152600a909101546080909101529392505050565b60006007828154811061221a5761221a615405565b600091825260209091206004918202019150600182015460ff16600481111561224557612245614d20565b1461226357604051638794ce4b60e01b815260040160405180910390fd5b6001810154610100900460ff161561228e5760405163c977f8d360e01b815260040160405180910390fd5b60006122998361119a565b505060018301805461010061ff001990911617905582546040518281529192508491600160601b9091046001600160a01b0316907f394027a5fa6e098a1191094d1719d6929b9abc535fcc0c8f448d6a4e756222769060200160405180910390a3815460405163188d362b60e11b81526004810185905260248101839052600160601b9091046001600160a01b03169063311a6c5690604401600060405180830381600087803b15801561234c57600080fd5b505af1158015612360573d6000803e3d6000fd5b50505050505050565b6000546001600160a01b031633146123945760405163c383977560e01b815260040160405180910390fd5b8660058a6001600160601b0316815481106123b1576123b1615405565b90600052602060002090600c02016002015411156123e257604051639717078960e01b815260040160405180910390fd5b80516000036124045760405163402585f560e01b815260040160405180910390fd5b6001600160601b03891661242b57604051631ef4f64960e01b815260040160405180910390fd5b60058054600181018255600091825290600c82027f036b6384b5eca791c62761152d0c79bb0604c104a5fb6f4eb0703f3154bb3db001905b835181101561251a5783818151811061247e5761247e615405565b6020026020010151600014806124b1575060065484518590839081106124a6576124a6615405565b602002602001015110155b156124cf57604051633d58a98960e11b815260040160405180910390fd5b600182600a0160008684815181106124e9576124e9615405565b6020908102919091018101518252810191909152604001600020805460ff1916911515919091179055600101612463565b5060016000908152600a8201602052604090205460ff1661254e576040516306351b3d60e31b815260040160405180910390fd5b80546001600160601b0319166001600160601b038c1617815560408051600081526020810191829052516125869160018401916149ae565b50805460ff60601b1916600160601b8b15150217815560028101899055600381018890556004808201889055600582018790556125c99060068301908790614970565b50600480546040516311de995760e21b81526001600160a01b039091169163477a655c916125fb9186918991016156a6565b600060405180830381600087803b15801561261557600080fd5b505af1158015612629573d6000803e3d6000fd5b5050505060058b6001600160601b03168154811061264957612649615405565b600091825260208083206001600c909302018201805492830181558352909120018290556040516001600160601b038c169083907f3475f0ed7216dd7d453db663a1c3024e4f36cc925521d54edb9d13e022cbee3d906126b6908e908e908e908e908e908e908d906156bf565b60405180910390a35050505050505050505050565b600681815481106126db57600080fd5b6000918252602090912001546001600160a01b0316905081565b60008060006007848154811061270d5761270d615405565b6000918252602090912060049091020190506003600182015460ff16600481111561273a5761273a614d20565b03612792576002810154815460058054929550916001600160601b0390911690811061276857612768615405565b600091825260209091206009600c909202010154600282015461278b91906155db565b915061279b565b60009250600091505b50915091565b6000546001600160a01b031633146127cc5760405163c383977560e01b815260040160405180910390fd5b600480546001600160a01b0319166001600160a01b0392909216919091179055565b60006127f9826132ed565b34101561281957604051630e3360f160e21b815260040160405180910390fd5b6110988383600034614324565b6000546001600160a01b031633146128515760405163c383977560e01b815260040160405180910390fd5b600380546001600160a01b0319166001600160a01b0392909216919091179055565b61287c836119a1565b34101561289c57604051633191f8f160e01b815260040160405180910390fd5b6000600784815481106128b1576128b1615405565b6000918252602090912060049091020190506003600182015460ff1660048111156128de576128de614d20565b146128fc576040516337cdefcb60e21b815260040160405180910390fd5b6003810180546000919061291290600190615431565b8154811061292257612922615405565b90600052602060002090600b02019050600681600001548154811061294957612949615405565b6000918252602090912001546001600160a01b0316331461297d5760405163065f245f60e01b815260040160405180910390fd5b8154815460038401805460018101825560009182526020909120600580546001600160601b0390951694600b90930290910191849081106129c0576129c0615405565b90600052602060002090600c020160050154846003015410612ac9576005836001600160601b0316815481106129f8576129f8615405565b60009182526020909120600c9091020154600580546001600160601b0390921694509084908110612a2b57612a2b615405565b60009182526020808320858452600a600c90930201919091019052604090205460ff16612a5757600191505b84546001600160601b03848116911614612ac957845460038601546001600160601b0390911690612a8a90600190615431565b6040516001600160601b03861681528a907f736e3f52761298c8c0823e1ebf482ed3c5ecb304f743d2d91a7c006e8e8d7a1f9060200160405180910390a45b84546001600160601b0319166001600160601b038416908117865560018601805460ff1916905542600287015560058054600092908110612b0c57612b0c615405565b90600052602060002090600c02019050806004015434612b2c919061558f565b826003018190555061271081600301548260020154612b4b9190615562565b612b55919061558f565b60018084019190915534600284015583835560045460038801546001600160a01b039091169163d09f392d918c91612b8c91615431565b6040516001600160e01b031960e085901b16815260048101929092526024820152604401600060405180830381600087803b158015612bca57600080fd5b505af1158015612bde573d6000803e3d6000fd5b505086548454149150612cc490505784546003870154612c0090600190615431565b83546040519081528b907fcbe7939a71f0b369c7471d760a0a99b60b7bb010ee0406cba8a46679d1ea77569060200160405180910390a46006826000015481548110612c4e57612c4e615405565b60009182526020909120015460038301546040516302dbb79560e61b81526001600160a01b039092169163b6ede54091612c91918d918d918d919060040161573e565b600060405180830381600087803b158015612cab57600080fd5b505af1158015612cbf573d6000803e3d6000fd5b505050505b8554604051600160601b9091046001600160a01b0316908a907f9c9b64db9e130f48381bf697abf638e73117dbfbfd7a4484f2da3ba188f4187d90600090a3887f4e6f5cf43b95303e86aee81683df63992061723a829ee012db21dad388756b916000604051612d349190615461565b60405180910390a2505050505050505050565b60008060078381548110612d5d57612d5d615405565b906000526020600020906004020190508060030160018260030180549050612d859190615431565b81548110612d9557612d95615405565b90600052602060002090600b020160030154915050919050565b6000546001600160a01b03163314612dda5760405163c383977560e01b815260040160405180910390fd5b6006805460018101825560009182527ff652222313e28459528d920b65115c16c04f3efc82aaedc97be59f3f377c0d3f810180546001600160a01b0319166001600160a01b0385169081179091556040519192909183917f44063d258760b98116d53815adbc906a56b3563e540148cc0fc2457f83b5eeb291a35050565b600060078381548110612e6d57612e6d615405565b90600052602060002090600402019050600060018260030180549050612e939190615431565b90506000826003018281548110612eac57612eac615405565b600091825260208220600b909102019150600184015460ff166004811115612ed657612ed6614d20565b14612ef457604051638285c4ef60e01b815260040160405180910390fd5b60006006826000015481548110612f0d57612f0d615405565b6000918252602082200154600a8401546001600160a01b039091169250905b8681108015612f42575060038401546006850154105b1561314a5760006001600160a01b03841663d2b8035a8a84612f638161576e565b9550612f6f90876155db565b6040516001600160e01b031960e085901b168152600481019290925260248201526044016020604051808303816000875af1158015612fb2573d6000803e3d6000fd5b505050506040513d601f19601f82011682018060405250810190612fd69190615787565b90506001600160a01b038116612fec5750612f2c565b6004805460018701546040516310f0b12f60e11b81526001600160a01b03909216926321e1625e926130229286929091016157a4565b600060405180830381600087803b15801561303c57600080fd5b505af1158015613050573d6000803e3d6000fd5b50505060068601546040518b92506001600160a01b038416917f6119cf536152c11e0a9a6c22f3953ce4ecc93ee54fa72ffa326ffabded21509b9161309d918b8252602082015260400190565b60405180910390a36006850180546001810182556000828152602090200180546001600160a01b0319166001600160a01b03841617905560038601549054036131445760048054604051632e96bc2360e11b81529182018b9052602482018890526001600160a01b031690635d2d784690604401600060405180830381600087803b15801561312b57600080fd5b505af115801561313f573d6000803e3d6000fd5b505050505b50612f2c565b8084600a01600082825461315e91906155db565b90915550505050505050505050565b60006131b2826103c486868080601f0160208091040260200160405190810160405280939291908181526020018383808284376000920191909152506132ed92505050565b949350505050565b6000546001600160a01b031633146131e55760405163c383977560e01b815260040160405180910390fd5b600080546001600160a01b0319166001600160a01b0392909216919091179055565b6001600160a01b03821660009081526008602052604081205460ff166132405760405163e51cf7bf60e01b815260040160405180910390fd5b61324b85858561316d565b82101561326b57604051630e3360f160e21b815260040160405180910390fd5b6132806001600160a01b03841633308561460b565b61329d576040516312171d8360e31b815260040160405180910390fd5b6132e18686868080601f0160208091040260200160405190810160405280939291908181526020018383808284376000920191909152508892508791506143249050565b90505b95945050505050565b60008060006132fb846146e7565b5091509150806005836001600160601b03168154811061331d5761331d615405565b90600052602060002090600c0201600401546131b29190615562565b6004546001600160a01b0316331461336457604051639d6cab9960e01b815260040160405180910390fd5b613372848484846001613eaf565b5050505050565b60006007828154811061338e5761338e615405565b600091825260209091206003600490920201015492915050565b60006005836001600160601b0316815481106133c6576133c6615405565b60009182526020808320948352600c91909102909301600a0190925250604090205460ff16919050565b806005846001600160601b03168154811061340d5761340d615405565b60009182526020808320868452600c92909202909101600a0190526040808220805460ff19169315159390931790925590518215159184916001600160601b038716917fb47629acdf64971062d40984f77d3dee212d735b11e3e8c7a4222d9f0572cc7991a4505050565b600080600783600001518154811061349257613492615405565b906000526020600020906004020190506000816003018460200151815481106134bd576134bd615405565b90600052602060002090600b02019050600060068260000154815481106134e6576134e6615405565b60009182526020808320919091015487519188015160e089015160808a015160a08b01516040516333ac937b60e11b8152600481019690965260248601939093526044850191909152606484015260848301526001600160a01b03169250829063675926f69060a401602060405180830381865afa15801561356c573d6000803e3d6000fd5b505050506040513d601f19601f8201168201806040525081019061359091906155ee565b90506127108111156135a157506127105b60006127106135b08382615431565b85600101546135bf9190615562565b6135c9919061558f565b9050808760c0018181516135dd91906155db565b90525060e08701516006850180546000929081106135fd576135fd615405565b6000918252602090912001546004805460405163965af6c760e01b81526001600160a01b03938416945092169163965af6c79161363e9185918791016157a4565b600060405180830381600087803b15801561365857600080fd5b505af115801561366c573d6000803e3d6000fd5b505060048054604051633c85b79360e21b81526001600160a01b03909116935063f216de4c92506136a19185918791016157a4565b600060405180830381600087803b1580156136bb57600080fd5b505af11580156136cf573d6000803e3d6000fd5b50505050602088015188516001600160a01b0383167f8975b837fe0d18616c65abb8b843726a32b552ee4feca009944fa658bbb282e78661370f876157bd565b60098b01546040516137319392916000916001600160a01b03909116906157d9565b60405180910390a48751602089015160e08a015160405163ba66fde760e01b81526004810193909352602483019190915260448201526001600160a01b0385169063ba66fde790606401602060405180830381865afa158015613798573d6000803e3d6000fd5b505050506040513d601f19601f820116820180604052508101906137bc9190615444565b613822576004805460405163b5d69e9960e01b81526001600160a01b039091169163b5d69e99916137ef91859101614b86565b600060405180830381600087803b15801561380957600080fd5b505af115801561381d573d6000803e3d6000fd5b505050505b600188606001516138339190615431565b8860e0015114801561384757506040880151155b156139385760098501546001600160a01b0316613890576000805460028701546040516001600160a01b039092169281156108fc029290818181858888f19350505050506138b7565b600054600286015460098701546138b5926001600160a01b039182169291169061476e565b505b60005460c08901516002546138da926001600160a01b039182169291169061476e565b506020880151885160c08a0151600288015460098901546040517f6cecfd3ec56289ccb16e30eb194f9a87dfdc12630b9abbc31fc69af5a0b0eaf49361392f93909290916001600160a01b03909116906157fd565b60405180910390a35b50505060c090940151949350505050565b6000600782600001518154811061396257613962615405565b9060005260206000209060040201905060008160030183602001518154811061398d5761398d615405565b90600052602060002090600b02019050600060068260000154815481106139b6576139b6615405565b6000918252602080832090910154865191870151606088015160e08901516001600160a01b039093169550859363675926f6939092916139f59161581c565b60808a015160a08b01516040516001600160e01b031960e088901b1681526004810195909552602485019390935260448401919091526064830152608482015260a401602060405180830381865afa158015613a55573d6000803e3d6000fd5b505050506040513d601f19601f82011682018060405250810190613a7991906155ee565b9050612710811115613a8a57506127105b60008360060186606001518760e00151613aa4919061581c565b81548110613ab457613ab4615405565b600091825260208220015460018601546001600160a01b03909116925061271090613ae0908590615562565b613aea919061558f565b6004805460405163965af6c760e01b81529293506001600160a01b03169163965af6c791613b1c9186918691016157a4565b600060405180830381600087803b158015613b3657600080fd5b505af1158015613b4a573d6000803e3d6000fd5b505060048054604051636624192f60e01b81526001600160a01b039091169350636624192f9250613b7d91869101614b86565b602060405180830381865afa158015613b9a573d6000803e3d6000fd5b505050506040513d601f19601f82011682018060405250810190613bbe9190615444565b613bdb57600254613bd9906001600160a01b0316838361476e565b505b60006127108489604001518a60c00151613bf5919061558f565b613bff9190615562565b613c09919061558f565b905080866008016000828254613c1f91906155db565b925050819055506000612710858a604001518960020154613c40919061558f565b613c4a9190615562565b613c54919061558f565b905080876007016000828254613c6a91906155db565b9091555050600254613c86906001600160a01b0316858461476e565b5060098701546001600160a01b0316613cc4576040516001600160a01b0385169082156108fc029083906000818181858888f1935050505050613cdf565b6009870154613cdd906001600160a01b0316858361476e565b505b6020890151895160098901546040516001600160a01b03888116927f8975b837fe0d18616c65abb8b843726a32b552ee4feca009944fa658bbb282e792613d2f928c928a928a92909116906157d9565b60405180910390a4600189606001516002613d4a9190615562565b613d549190615431565b8960e0015103613e7657600087600801548a60c00151613d749190615431565b9050600088600701548960020154613d8c9190615431565b905081151580613d9b57508015155b15611579578115613dc557600054600254613dc3916001600160a01b0391821691168461476e565b505b8015613e2c5760098901546001600160a01b0316613e0b57600080546040516001600160a01b039091169183156108fc02918491818181858888f1935050505050613e2c565b60005460098a0154613e2a916001600160a01b0391821691168361476e565b505b60208b01518b5160098b01546040517f6cecfd3ec56289ccb16e30eb194f9a87dfdc12630b9abbc31fc69af5a0b0eaf4916126b691879187916001600160a01b03909116906157fd565b505050505050505050565b6000546001600160a01b03163314613eac5760405163c383977560e01b815260040160405180910390fd5b50565b60006001600160601b0385161580613ed157506005546001600160601b038616115b15613ee957613ee182600461483b565b5060006132e4565b8315801590613f2457506005856001600160601b031681548110613f0f57613f0f615405565b90600052602060002090600c02016002015484105b15613f3457613ee182600561483b565b60048054604051630a5861b960e41b81526001600160a01b03898116938201939093526001600160601b03881660248201526044810187905285151560648201526000928392839291169063a5861b90906084016060604051808303816000875af1158015613fa7573d6000803e3d6000fd5b505050506040513d601f19601f82011682018060405250810190613fcb9190615830565b919450925090506000816007811115613fe657613fe6614d20565b1461400157613ff5858261483b565b600093505050506132e4565b821561402e5760025461401f906001600160a01b03168a308661460b565b61402e57613ff585600161483b565b811561405a5760025461404b906001600160a01b03168a8461476e565b61405a57613ff585600261483b565b50600198975050505050505050565b600080546001600160a01b03199081166001600160a01b038d81169190911783556001805483168d83161781556002805484168d84161781556003805485168d85161790556004805485168785161790556006805481875291820190557ff652222313e28459528d920b65115c16c04f3efc82aaedc97be59f3f377c0d40018054909316918a1691821790925560405190927f44063d258760b98116d53815adbc906a56b3563e540148cc0fc2457f83b5eeb291a36005805460010181556000908152600480546040516311de995760e21b81526001600160a01b039091169263477a655c9261415b928791016156a6565b600060405180830381600087803b15801561417557600080fd5b505af1158015614189573d6000803e3d6000fd5b5050600580546001810182556000918252600c027f036b6384b5eca791c62761152d0c79bb0604c104a5fb6f4eb0703f3154bb3db00180546001600160601b0319168155604080518381526020810190915290935091505080516141f79160018401916020909101906149ae565b50805460ff60601b1916600160601b8715150217815584516002820155602085015160038201556040850151600480830191909155606086015160058301556142469060068301908690614970565b50600480546040516311de995760e21b81526001600160a01b039091169163477a655c91614279916001918891016156a6565b600060405180830381600087803b15801561429357600080fd5b505af11580156142a7573d6000803e3d6000fd5b5050825487516020808a01516040808c015160608d0151825160008152948501928390526001600160601b039096169750600196507f3475f0ed7216dd7d453db663a1c3024e4f36cc925521d54edb9d13e022cbee3d9561430f958f959094938e91906156bf565b60405180910390a361157960018060016133f0565b6000806000614332866146e7565b92505091506005826001600160601b03168154811061435357614353615405565b60009182526020808320848452600a600c90930201919091019052604090205460ff166143935760405163b34eb75d60e01b815260040160405180910390fd5b600780546001810182556000918252600160601b33026001600160601b03851617600482027fa66cc928b5edb82af9bd49922954155ab7b0942694bea4ce44661d9a8736c6888101918255427fa66cc928b5edb82af9bd49922954155ab7b0942694bea4ce44661d9a8736c68a90910155600680549296509092918490811061441e5761441e615405565b6000918252602082200154600580546001600160a01b039092169350906001600160601b03871690811061445457614454615405565b60009182526020808320600387018054600181018255908552918420600c909302019350600b0201906001600160a01b038a161561449f5761449a8a8460040154611047565b6144a5565b82600401545b90506144b1818a61558f565b6003808401919091558683558301546002840154612710916144d291615562565b6144dc919061558f565b6001830155600282018990556009820180546001600160a01b0319166001600160a01b038c8116919091179091556004805460405163d09f392d60e01b81529182018b9052600060248301529091169063d09f392d90604401600060405180830381600087803b15801561454f57600080fd5b505af1158015614563573d6000803e3d6000fd5b50505050836001600160a01b031663b6ede540898e8e86600301546040518563ffffffff1660e01b815260040161459d949392919061573e565b600060405180830381600087803b1580156145b757600080fd5b505af11580156145cb573d6000803e3d6000fd5b50506040513392508a91507f141dfc18aa6a56fc816f44f0e9e2f1ebc92b15ab167770e17db5b084c10ed99590600090a350505050505050949350505050565b6040516001600160a01b038481166024830152838116604483015260648201839052600091829182919088169060840160408051601f198184030181529181526020820180516001600160e01b03166323b872dd60e01b17905251614670919061562b565b6000604051808303816000865af19150503d80600081146146ad576040519150601f19603f3d011682016040523d82523d6000602084013e6146b2565b606091505b50915091508180156146dc5750805115806146dc5750808060200190518101906146dc9190615444565b979650505050505050565b6000806000604084511061475c575050506020810151604082015160608301516001600160601b038316158061472857506005546001600160601b03841610155b1561473257600192505b8160000361473f57600391505b80158061474e57506006548110155b15614757575060015b614767565b506001915060039050815b9193909250565b6000806000856001600160a01b031685856040516024016147909291906157a4565b60408051601f198184030181529181526020820180516001600160e01b031663a9059cbb60e01b179052516147c5919061562b565b6000604051808303816000865af19150503d8060008114614802576040519150601f19603f3d011682016040523d82523d6000602084013e614807565b606091505b50915091508180156148315750805115806148315750808060200190518101906148319190615444565b9695505050505050565b600182600181111561484f5761484f614d20565b03614858575050565b600181600781111561486c5761486c614d20565b0361488a57604051630f323ed960e11b815260040160405180910390fd5b600281600781111561489e5761489e614d20565b036148bc5760405163e45e13a360e01b815260040160405180910390fd5b60038160078111156148d0576148d0614d20565b036148ee57604051631d91d0ed60e31b815260040160405180910390fd5b600481600781111561490257614902614d20565b03614920576040516321f1774b60e11b815260040160405180910390fd5b600581600781111561493457614934614d20565b036118e357604051630caac6b360e31b815260040160405180910390fd5b60405180608001604052806004906020820280368337509192915050565b826004810192821561499e579160200282015b8281111561499e578251825591602001919060010190614983565b506149aa9291506149e8565b5090565b82805482825590600052602060002090810192821561499e579160200282018281111561499e578251825591602001919060010190614983565b5b808211156149aa57600081556001016149e9565b6001600160a01b0381168114613eac57600080fd5b600060208284031215614a2457600080fd5b8135614a2f816149fd565b9392505050565b80356001600160601b0381168114614a4d57600080fd5b919050565b634e487b7160e01b600052604160045260246000fd5b604051601f8201601f191681016001600160401b0381118282101715614a9057614a90614a52565b604052919050565b600082601f830112614aa957600080fd5b813560206001600160401b03821115614ac457614ac4614a52565b8160051b614ad3828201614a68565b9283528481018201928281019087851115614aed57600080fd5b83870192505b848310156146dc57823582529183019190830190614af3565b8015158114613eac57600080fd5b8035614a4d81614b0c565b600080600060608486031215614b3a57600080fd5b614b4384614a36565b925060208401356001600160401b03811115614b5e57600080fd5b614b6a86828701614a98565b9250506040840135614b7b81614b0c565b809150509250925092565b6001600160a01b0391909116815260200190565b600060208284031215614bac57600080fd5b5035919050565b60008060408385031215614bc657600080fd5b8235614bd1816149fd565b946020939093013593505050565b600080600060608486031215614bf457600080fd5b505081359360208301359350604090920135919050565b8035614a4d816149fd565b600060208284031215614c2857600080fd5b61109882614a36565b8060005b6004811015610b0a578151845260209384019390910190600101614c35565b6080810161109b8284614c31565b600082601f830112614c7357600080fd5b81356001600160401b03811115614c8c57614c8c614a52565b614c9f601f8201601f1916602001614a68565b818152846020838601011115614cb457600080fd5b816020850160208301376000918101602001919091529392505050565b60008060408385031215614ce457600080fd5b8235614cef816149fd565b915060208301356001600160401b03811115614d0a57600080fd5b614d1685828601614c62565b9150509250929050565b634e487b7160e01b600052602160045260246000fd5b60058110614d5457634e487b7160e01b600052602160045260246000fd5b9052565b6001600160601b03861681526001600160a01b038516602082015260a08101614d846040830186614d36565b9215156060820152608001529392505050565b600080600060608486031215614dac57600080fd5b8335614db7816149fd565b92506020840135915060408401356001600160401b03811115614dd957600080fd5b614de586828701614c62565b9150509250925092565b60008060408385031215614e0257600080fd5b614bd183614a36565b60008060408385031215614e1e57600080fd5b8235614e29816149fd565b91506020830135614e3981614b0c565b809150509250929050565b600082601f830112614e5557600080fd5b604051608081018181106001600160401b0382111715614e7757614e77614a52565b604052806080840185811115614e8c57600080fd5b845b81811015614ea6578035835260209283019201614e8e565b509195945050505050565b6000806000806000806000806000806102008b8d031215614ed157600080fd5b8a35614edc816149fd565b995060208b0135614eec816149fd565b985060408b0135614efc816149fd565b975060608b0135614f0c816149fd565b965060808b0135614f1c816149fd565b9550614f2a60a08c01614b1a565b9450614f398c60c08d01614e44565b9350614f498c6101408d01614e44565b92506101c08b01356001600160401b03811115614f6557600080fd5b614f718d828e01614c62565b925050614f816101e08c01614c0b565b90509295989b9194979a5092959850565b600080600060608486031215614fa757600080fd5b8335614fb2816149fd565b925060208401356001600160401b0381168114614fce57600080fd5b9150604084013560ff81168114614b7b57600080fd5b6000806000806000806000610140888a03121561500057600080fd5b61500988614a36565b9650602088013561501981614b0c565b955060408801359450606088013593506080880135925060a088013591506150448960c08a01614e44565b905092959891949750929550565b6000806040838503121561506557600080fd5b50508035926020909101359150565b60008151808452602080850194506020840160005b838110156150ae5781516001600160a01b031687529582019590820190600101615089565b509495945050505050565b6020815281516020820152602082015160408201526040820151606082015260608201516080820152608082015160a082015260a082015160c0820152600060c08301516101608060e0850152615114610180850183615074565b60e0860151610100868101919091528601516101208087019190915286015190925061014061514d818701836001600160a01b03169052565b959095015193019290925250919050565b60008060008060008060008060006101808a8c03121561517d57600080fd5b6151868a614a36565b985060208a013561519681614b0c565b975060408a0135965060608a0135955060808a0135945060a08a013593506151c18b60c08c01614e44565b92506101408a01356001600160401b03808211156151de57600080fd5b6151ea8d838e01614c62565b93506101608c013591508082111561520157600080fd5b5061520e8c828d01614a98565b9150509295985092959850929598565b6000806040838503121561523157600080fd5b8235915060208301356001600160401b03811115614d0a57600080fd5b60008060006060848603121561526357600080fd5b833592506020840135915060408401356001600160401b03811115614dd957600080fd5b60008083601f84011261529957600080fd5b5081356001600160401b038111156152b057600080fd5b6020830191508360208285010111156152c857600080fd5b9250929050565b6000806000604084860312156152e457600080fd5b83356001600160401b038111156152fa57600080fd5b61530686828701615287565b9094509250506020840135614b7b816149fd565b60008060008060006080868803121561533257600080fd5b8535945060208601356001600160401b0381111561534f57600080fd5b61535b88828901615287565b909550935050604086013561536f816149fd565b949793965091946060013592915050565b60006020828403121561539257600080fd5b81356001600160401b038111156153a857600080fd5b6131b284828501614c62565b600080600080608085870312156153ca57600080fd5b84356153d5816149fd565b93506153e360208601614a36565b92506040850135915060608501356153fa81614b0c565b939692955090935050565b634e487b7160e01b600052603260045260246000fd5b634e487b7160e01b600052601160045260246000fd5b8181038181111561109b5761109b61541b565b60006020828403121561545657600080fd5b8151614a2f81614b0c565b6020810161109b8284614d36565b600181815b808511156154aa5781600019048211156154905761549061541b565b8085161561549d57918102915b93841c9390800290615474565b509250929050565b6000826154c15750600161109b565b816154ce5750600061109b565b81600181146154e457600281146154ee5761550a565b600191505061109b565b60ff8411156154ff576154ff61541b565b50506001821b61109b565b5060208310610133831016604e8410600b841016171561552d575081810a61109b565b615537838361546f565b806000190482111561554b5761554b61541b565b029392505050565b600061109860ff8416836154b2565b808202811582820484141761109b5761109b61541b565b634e487b7160e01b600052601260045260246000fd5b60008261559e5761559e615579565b500490565b6000806000606084860312156155b857600080fd5b8351925060208401516155ca81614b0c565b6040850151909250614b7b81614b0c565b8082018082111561109b5761109b61541b565b60006020828403121561560057600080fd5b5051919050565b60005b8381101561562257818101518382015260200161560a565b50506000910152565b6000825161563d818460208701615607565b9190910192915050565b60006101208201905087151582528660208301528560408301528460608301528360808301526146dc60a0830184614c31565b60008151808452615692816020860160208601615607565b601f01601f19169290920160200192915050565b8281526040602082015260006131b2604083018461567a565b60006101408083018a1515845260208a60208601528960408601528860608601528760808601526156f360a0860188614c31565b610120850192909252845190819052610160840191602086019160005b8181101561572c57835185529382019392820192600101615710565b50929c9b505050505050505050505050565b84815283602082015260806040820152600061575d608083018561567a565b905082606083015295945050505050565b6000600182016157805761578061541b565b5060010190565b60006020828403121561579957600080fd5b8151614a2f816149fd565b6001600160a01b03929092168252602082015260400190565b6000600160ff1b82016157d2576157d261541b565b5060000390565b938452602084019290925260408301526001600160a01b0316606082015260800190565b92835260208301919091526001600160a01b0316604082015260600190565b60008261582b5761582b615579565b500690565b60008060006060848603121561584557600080fd5b8351925060208401519150604084015160088110614b7b57600080fdfe360894a13ba1a3210667c828492db98dca3e2076cc3735a920a3ca505d382bbca26469706673582212202e38ba7d544a60694d1795236f10a584d79e2146855586c364e47aa808c37ccc64736f6c63430008180033",
  "devdoc": {
    "errors": {
      "AlreadyInitialized()": [
        {
          "details": "The contract is already initialized."
        }
      ],
      "NotInitializing()": [
        {
          "details": "The contract is not initializing."
        }
      ],
      "UUPSUnauthorizedCallContext()": [
        {
          "details": "The call is from an unauthorized context."
        }
      ],
      "UUPSUnsupportedProxiableUUID(bytes32)": [
        {
          "details": "The storage `slot` is unsupported as a UUID."
        }
      ]
    },
    "events": {
      "AcceptedFeeToken(address,bool)": {
        "details": "To be emitted when an ERC20 token is added or removed as a method to pay fees.",
        "params": {
          "_accepted": "Whether the token is accepted or not.",
          "_token": "The ERC20 token."
        }
      },
      "DisputeCreation(uint256,address)": {
        "details": "To be emitted when a dispute is created.",
        "params": {
          "_arbitrable": "The contract which created the dispute.",
          "_disputeID": "The identifier of the dispute in the Arbitrator contract."
        }
      },
      "Initialized(uint64)": {
        "details": "Triggered when the contract has been initialized or reinitialized."
      },
      "NewCurrencyRate(address,uint64,uint8)": {
        "details": "To be emitted when the fee for a particular ERC20 token is updated.",
        "params": {
          "_feeToken": "The ERC20 token.",
          "_rateDecimals": "The new decimals of the fee token rate.",
          "_rateInEth": "The new rate of the fee token in ETH."
        }
      },
      "Ruling(address,uint256,uint256)": {
        "details": "To be raised when a ruling is given.",
        "params": {
          "_arbitrable": "The arbitrable receiving the ruling.",
          "_disputeID": "The identifier of the dispute in the Arbitrator contract.",
          "_ruling": "The ruling which was given."
        }
      },
      "Upgraded(address)": {
        "params": {
          "newImplementation": "Address of the new implementation the proxy is now forwarding calls to."
        }
      }
    },
    "kind": "dev",
    "methods": {
      "addNewDisputeKit(address)": {
        "details": "Add a new supported dispute kit module to the court.",
        "params": {
          "_disputeKitAddress": "The address of the dispute kit contract."
        }
      },
      "appeal(uint256,uint256,bytes)": {
        "details": "Appeals the ruling of a specified dispute. Note: Access restricted to the Dispute Kit for this `disputeID`.",
        "params": {
          "_disputeID": "The ID of the dispute.",
          "_extraData": "Extradata for the dispute. Can be required during court jump.",
          "_numberOfChoices": "Number of choices for the dispute. Can be required during court jump."
        }
      },
      "appealCost(uint256)": {
        "details": "Gets the cost of appealing a specified dispute.",
        "params": {
          "_disputeID": "The ID of the dispute."
        },
        "returns": {
          "cost": "The appeal cost."
        }
      },
      "appealPeriod(uint256)": {
        "details": "Gets the start and the end of a specified dispute's current appeal period.",
        "params": {
          "_disputeID": "The ID of the dispute."
        },
        "returns": {
          "end": "The end of the appeal period.",
          "start": "The start of the appeal period."
        }
      },
      "arbitrationCost(bytes)": {
        "details": "Compute the cost of arbitration denominated in ETH.      It is recommended not to increase it often, as it can be highly time and gas consuming for the arbitrated contracts to cope with fee augmentation.",
        "params": {
          "_extraData": "Additional info about the dispute. We use it to pass the ID of the dispute's court (first 32 bytes), the minimum number of jurors required (next 32 bytes) and the ID of the specific dispute kit (last 32 bytes)."
        },
        "returns": {
          "cost": "The arbitration cost in ETH."
        }
      },
      "arbitrationCost(bytes,address)": {
        "details": "Compute the cost of arbitration denominated in `_feeToken`.      It is recommended not to increase it often, as it can be highly time and gas consuming for the arbitrated contracts to cope with fee augmentation.",
        "params": {
          "_extraData": "Additional info about the dispute. We use it to pass the ID of the dispute's court (first 32 bytes), the minimum number of jurors required (next 32 bytes) and the ID of the specific dispute kit (last 32 bytes).",
          "_feeToken": "The ERC20 token used to pay fees."
        },
        "returns": {
          "cost": "The arbitration cost in `_feeToken`."
        }
      },
      "changeAcceptedFeeTokens(address,bool)": {
        "details": "Changes the supported fee tokens.",
        "params": {
          "_accepted": "Whether the token is supported or not as a method of fee payment.",
          "_feeToken": "The fee token."
        }
      },
      "changeCurrencyRates(address,uint64,uint8)": {
        "details": "Changes the currency rate of a fee token.",
        "params": {
          "_feeToken": "The fee token.",
          "_rateDecimals": "The new decimals of the fee token rate.",
          "_rateInEth": "The new rate of the fee token in ETH."
        }
      },
      "changeGovernor(address)": {
        "details": "Changes the `governor` storage variable.",
        "params": {
          "_governor": "The new value for the `governor` storage variable."
        }
      },
      "changeGuardian(address)": {
        "details": "Changes the `guardian` storage variable.",
        "params": {
          "_guardian": "The new value for the `guardian` storage variable."
        }
      },
      "changeJurorProsecutionModule(address)": {
        "details": "Changes the `jurorProsecutionModule` storage variable.",
        "params": {
          "_jurorProsecutionModule": "The new value for the `jurorProsecutionModule` storage variable."
        }
      },
      "changePinakion(address)": {
        "details": "Changes the `pinakion` storage variable.",
        "params": {
          "_pinakion": "The new value for the `pinakion` storage variable."
        }
      },
      "changeSortitionModule(address)": {
        "details": "Changes the `_sortitionModule` storage variable. Note that the new module should be initialized for all courts.",
        "params": {
          "_sortitionModule": "The new value for the `sortitionModule` storage variable."
        }
      },
      "constructor": {
        "details": "Constructor, initializing the implementation to reduce attack surface."
      },
      "createCourt(uint96,bool,uint256,uint256,uint256,uint256,uint256[4],bytes,uint256[])": {
        "details": "Creates a court under a specified parent court.",
        "params": {
          "_alpha": "The `alpha` property value of the court.",
          "_feeForJuror": "The `feeForJuror` property value of the court.",
          "_hiddenVotes": "The `hiddenVotes` property value of the court.",
          "_jurorsForCourtJump": "The `jurorsForCourtJump` property value of the court.",
          "_minStake": "The `minStake` property value of the court.",
          "_parent": "The `parent` property value of the court.",
          "_sortitionExtraData": "Extra data for sortition module.",
          "_supportedDisputeKits": "Indexes of dispute kits that this court will support.",
          "_timesPerPeriod": "The `timesPerPeriod` property value of the court."
        }
      },
      "createDispute(uint256,bytes)": {
        "details": "Create a dispute and pay for the fees in the native currency, typically ETH.      Must be called by the arbitrable contract.      Must pay at least arbitrationCost(_extraData).",
        "params": {
          "_extraData": "Additional info about the dispute. We use it to pass the ID of the dispute's court (first 32 bytes), the minimum number of jurors required (next 32 bytes) and the ID of the specific dispute kit (last 32 bytes).",
          "_numberOfChoices": "The number of choices the arbitrator can choose from in this dispute."
        },
        "returns": {
          "disputeID": "The identifier of the dispute created."
        }
      },
      "createDispute(uint256,bytes,address,uint256)": {
        "details": "Create a dispute and pay for the fees in a supported ERC20 token.      Must be called by the arbitrable contract.      Must pay at least arbitrationCost(_extraData).",
        "params": {
          "_extraData": "Additional info about the dispute. We use it to pass the ID of the dispute's court (first 32 bytes), the minimum number of jurors required (next 32 bytes) and the ID of the specific dispute kit (last 32 bytes).",
          "_feeAmount": "Amount of the ERC20 token used to pay fees.",
          "_feeToken": "The ERC20 token used to pay fees.",
          "_numberOfChoices": "The number of choices the arbitrator can choose from in this dispute."
        },
        "returns": {
          "disputeID": "The identifier of the dispute created."
        }
      },
      "currentRuling(uint256)": {
        "details": "Gets the current ruling of a specified dispute.",
        "params": {
          "_disputeID": "The ID of the dispute."
        },
        "returns": {
          "overridden": "Whether the ruling was overridden by appeal funding or not.",
          "ruling": "The current ruling.",
          "tied": "Whether it's a tie or not."
        }
      },
      "draw(uint256,uint256)": {
        "details": "Draws jurors for the dispute. Can be called in parts.",
        "params": {
          "_disputeID": "The ID of the dispute.",
          "_iterations": "The number of iterations to run."
        }
      },
      "enableDisputeKits(uint96,uint256[],bool)": {
        "details": "Adds/removes court's support for specified dispute kits.",
        "params": {
          "_courtID": "The ID of the court.",
          "_disputeKitIDs": "The IDs of dispute kits which support should be added/removed.",
          "_enable": "Whether add or remove the dispute kits from the court."
        }
      },
      "execute(uint256,uint256,uint256)": {
        "details": "Distribute the PNKs at stake and the dispute fees for the specific round of the dispute. Can be called in parts. Note: Reward distributions are forbidden during pause.",
        "params": {
          "_disputeID": "The ID of the dispute.",
          "_iterations": "The number of iterations to run.",
          "_round": "The appeal round."
        }
      },
      "executeGovernorProposal(address,uint256,bytes)": {
        "details": "Allows the governor to call anything on behalf of the contract.",
        "params": {
          "_amount": "The value sent with the call.",
          "_data": "The data sent with the call.",
          "_destination": "The destination of the call."
        }
      },
      "executeRuling(uint256)": {
        "details": "Executes a specified dispute's ruling.",
        "params": {
          "_disputeID": "The ID of the dispute."
        }
      },
      "getNumberOfVotes(uint256)": {
        "details": "Gets the number of votes permitted for the specified dispute in the latest round.",
        "params": {
          "_disputeID": "The ID of the dispute."
        }
      },
      "getTimesPerPeriod(uint96)": {
        "details": "Gets the timesPerPeriod array for a given court.",
        "params": {
          "_courtID": "The ID of the court to get the times from."
        },
        "returns": {
          "timesPerPeriod": "The timesPerPeriod array for the given court."
        }
      },
      "initialize(address,address,address,address,address,bool,uint256[4],uint256[4],bytes,address)": {
        "details": "Initializer (constructor equivalent for upgradable contracts).",
        "params": {
          "_courtParameters": "Numeric parameters of General court (minStake, alpha, feeForJuror and jurorsForCourtJump respectively).",
          "_disputeKit": "The address of the default dispute kit.",
          "_governor": "The governor's address.",
          "_guardian": "The guardian's address.",
          "_hiddenVotes": "The `hiddenVotes` property value of the general court.",
          "_jurorProsecutionModule": "The address of the juror prosecution module.",
          "_pinakion": "The address of the token contract.",
          "_sortitionExtraData": "The extra data for sortition module.",
          "_sortitionModuleAddress": "The sortition module responsible for sortition of the jurors.",
          "_timesPerPeriod": "The `timesPerPeriod` property value of the general court."
        }
      },
      "isDisputeKitJumping(uint256)": {
        "details": "Returns true if the dispute kit will be switched to a parent DK.",
        "params": {
          "_disputeID": "The ID of the dispute."
        },
        "returns": {
          "_0": "Whether DK will be switched or not."
        }
      },
      "passPeriod(uint256)": {
        "details": "Passes the period of a specified dispute.",
        "params": {
          "_disputeID": "The ID of the dispute."
        }
      },
      "pause()": {
        "details": "Pause staking and reward execution. Can only be done by guardian or governor."
      },
      "proxiableUUID()": {
        "details": "Implementation of the ERC1822 `proxiableUUID` function. This returns the storage slot used by the implementation. It is used to validate the implementation's compatibility when performing an upgrade. IMPORTANT: A proxy pointing at a proxiable contract should not be considered proxiable itself, because this risks bricking a proxy that upgrades to it, by delegating to itself until out of gas. Thus it is critical that this function revert if invoked through a proxy. This is guaranteed by the if statement."
      },
      "setStake(uint96,uint256)": {
        "details": "Sets the caller's stake in a court.",
        "params": {
          "_courtID": "The ID of the court.",
          "_newStake": "The new stake. Note that the existing delayed stake will be nullified as non-relevant."
        }
      },
      "setStakeBySortitionModule(address,uint96,uint256,bool)": {
        "details": "Sets the stake of a specified account in a court, typically to apply a delayed stake or unstake inactive jurors.",
        "params": {
          "_account": "The account whose stake is being set.",
          "_alreadyTransferred": "Whether the PNKs have already been transferred to the contract.",
          "_courtID": "The ID of the court.",
          "_newStake": "The new stake."
        }
      },
      "unpause()": {
        "details": "Unpause staking and reward execution. Can only be done by governor."
      },
      "upgradeToAndCall(address,bytes)": {
        "details": "Upgrade mechanism including access control and UUPS-compliance.Reverts if the execution is not performed via delegatecall or the execution context is not of a proxy with an ERC1967-compliant implementation pointing to self.",
        "params": {
          "data": "Data used in a delegate call to `newImplementation` if non-empty. This will typically be an encoded function call, and allows initializing the storage of the proxy like a Solidity constructor.",
          "newImplementation": "Address of the new implementation contract."
        }
      }
    },
    "title": "KlerosCore Core arbitrator contract for Kleros v2. Note that this contract trusts the PNK token, the dispute kit and the sortition module contracts.",
    "version": 1
  },
  "userdoc": {
    "errors": {
      "FailedDelegateCall()": [
        {
          "notice": "Failed Delegated call"
        }
      ],
      "InvalidImplementation(address)": [
        {
          "notice": "The `implementation` is not UUPS-compliant"
        }
      ]
    },
    "events": {
      "Upgraded(address)": {
        "notice": "Emitted when the `implementation` has been successfully upgraded."
      }
    },
    "kind": "user",
    "methods": {},
    "version": 1
  },
  "storageLayout": {
    "storage": [
      {
        "astId": 7184,
        "contract": "src/arbitration/KlerosCore.sol:KlerosCore",
        "label": "governor",
        "offset": 0,
        "slot": "0",
        "type": "t_address"
      },
      {
        "astId": 7186,
        "contract": "src/arbitration/KlerosCore.sol:KlerosCore",
        "label": "guardian",
        "offset": 0,
        "slot": "1",
        "type": "t_address"
      },
      {
        "astId": 7189,
        "contract": "src/arbitration/KlerosCore.sol:KlerosCore",
        "label": "pinakion",
        "offset": 0,
        "slot": "2",
        "type": "t_contract(IERC20)1229"
      },
      {
        "astId": 7191,
        "contract": "src/arbitration/KlerosCore.sol:KlerosCore",
        "label": "jurorProsecutionModule",
        "offset": 0,
        "slot": "3",
        "type": "t_address"
      },
      {
        "astId": 7194,
        "contract": "src/arbitration/KlerosCore.sol:KlerosCore",
        "label": "sortitionModule",
        "offset": 0,
        "slot": "4",
        "type": "t_contract(ISortitionModule)23352"
      },
      {
        "astId": 7198,
        "contract": "src/arbitration/KlerosCore.sol:KlerosCore",
        "label": "courts",
        "offset": 0,
        "slot": "5",
        "type": "t_array(t_struct(Court)7103_storage)dyn_storage"
      },
      {
        "astId": 7202,
        "contract": "src/arbitration/KlerosCore.sol:KlerosCore",
        "label": "disputeKits",
        "offset": 0,
        "slot": "6",
        "type": "t_array(t_contract(IDisputeKit)23189)dyn_storage"
      },
      {
        "astId": 7206,
        "contract": "src/arbitration/KlerosCore.sol:KlerosCore",
        "label": "disputes",
        "offset": 0,
        "slot": "7",
        "type": "t_array(t_struct(Dispute)7120_storage)dyn_storage"
      },
      {
        "astId": 7212,
        "contract": "src/arbitration/KlerosCore.sol:KlerosCore",
        "label": "currencyRates",
        "offset": 0,
        "slot": "8",
        "type": "t_mapping(t_contract(IERC20)1229,t_struct(CurrencyRate)7169_storage)"
      },
      {
        "astId": 7214,
        "contract": "src/arbitration/KlerosCore.sol:KlerosCore",
        "label": "paused",
        "offset": 0,
        "slot": "9",
        "type": "t_bool"
      }
    ],
    "types": {
      "t_address": {
        "encoding": "inplace",
        "label": "address",
        "numberOfBytes": "20"
      },
      "t_array(t_address)dyn_storage": {
        "base": "t_address",
        "encoding": "dynamic_array",
        "label": "address[]",
        "numberOfBytes": "32"
      },
      "t_array(t_contract(IDisputeKit)23189)dyn_storage": {
        "base": "t_contract(IDisputeKit)23189",
        "encoding": "dynamic_array",
        "label": "contract IDisputeKit[]",
        "numberOfBytes": "32"
      },
      "t_array(t_struct(Court)7103_storage)dyn_storage": {
        "base": "t_struct(Court)7103_storage",
        "encoding": "dynamic_array",
        "label": "struct KlerosCoreBase.Court[]",
        "numberOfBytes": "32"
      },
      "t_array(t_struct(Dispute)7120_storage)dyn_storage": {
        "base": "t_struct(Dispute)7120_storage",
        "encoding": "dynamic_array",
        "label": "struct KlerosCoreBase.Dispute[]",
        "numberOfBytes": "32"
      },
      "t_array(t_struct(Round)7145_storage)dyn_storage": {
        "base": "t_struct(Round)7145_storage",
        "encoding": "dynamic_array",
        "label": "struct KlerosCoreBase.Round[]",
        "numberOfBytes": "32"
      },
      "t_array(t_uint256)4_storage": {
        "base": "t_uint256",
        "encoding": "inplace",
        "label": "uint256[4]",
        "numberOfBytes": "128"
      },
      "t_array(t_uint256)dyn_storage": {
        "base": "t_uint256",
        "encoding": "dynamic_array",
        "label": "uint256[]",
        "numberOfBytes": "32"
      },
      "t_bool": {
        "encoding": "inplace",
        "label": "bool",
        "numberOfBytes": "1"
      },
      "t_contract(IArbitrableV2)22946": {
        "encoding": "inplace",
        "label": "contract IArbitrableV2",
        "numberOfBytes": "20"
      },
      "t_contract(IDisputeKit)23189": {
        "encoding": "inplace",
        "label": "contract IDisputeKit",
        "numberOfBytes": "20"
      },
      "t_contract(IERC20)1229": {
        "encoding": "inplace",
        "label": "contract IERC20",
        "numberOfBytes": "20"
      },
      "t_contract(ISortitionModule)23352": {
        "encoding": "inplace",
        "label": "contract ISortitionModule",
        "numberOfBytes": "20"
      },
      "t_enum(Period)7077": {
        "encoding": "inplace",
        "label": "enum KlerosCoreBase.Period",
        "numberOfBytes": "1"
      },
      "t_mapping(t_contract(IERC20)1229,t_struct(CurrencyRate)7169_storage)": {
        "encoding": "mapping",
        "key": "t_contract(IERC20)1229",
        "label": "mapping(contract IERC20 => struct KlerosCoreBase.CurrencyRate)",
        "numberOfBytes": "32",
        "value": "t_struct(CurrencyRate)7169_storage"
      },
      "t_mapping(t_uint256,t_bool)": {
        "encoding": "mapping",
        "key": "t_uint256",
        "label": "mapping(uint256 => bool)",
        "numberOfBytes": "32",
        "value": "t_bool"
      },
      "t_struct(Court)7103_storage": {
        "encoding": "inplace",
        "label": "struct KlerosCoreBase.Court",
        "members": [
          {
            "astId": 7079,
            "contract": "src/arbitration/KlerosCore.sol:KlerosCore",
            "label": "parent",
            "offset": 0,
            "slot": "0",
            "type": "t_uint96"
          },
          {
            "astId": 7081,
            "contract": "src/arbitration/KlerosCore.sol:KlerosCore",
            "label": "hiddenVotes",
            "offset": 12,
            "slot": "0",
            "type": "t_bool"
          },
          {
            "astId": 7084,
            "contract": "src/arbitration/KlerosCore.sol:KlerosCore",
            "label": "children",
            "offset": 0,
            "slot": "1",
            "type": "t_array(t_uint256)dyn_storage"
          },
          {
            "astId": 7086,
            "contract": "src/arbitration/KlerosCore.sol:KlerosCore",
            "label": "minStake",
            "offset": 0,
            "slot": "2",
            "type": "t_uint256"
          },
          {
            "astId": 7088,
            "contract": "src/arbitration/KlerosCore.sol:KlerosCore",
            "label": "alpha",
            "offset": 0,
            "slot": "3",
            "type": "t_uint256"
          },
          {
            "astId": 7090,
            "contract": "src/arbitration/KlerosCore.sol:KlerosCore",
            "label": "feeForJuror",
            "offset": 0,
            "slot": "4",
            "type": "t_uint256"
          },
          {
            "astId": 7092,
            "contract": "src/arbitration/KlerosCore.sol:KlerosCore",
            "label": "jurorsForCourtJump",
            "offset": 0,
            "slot": "5",
            "type": "t_uint256"
          },
          {
            "astId": 7096,
            "contract": "src/arbitration/KlerosCore.sol:KlerosCore",
            "label": "timesPerPeriod",
            "offset": 0,
            "slot": "6",
            "type": "t_array(t_uint256)4_storage"
          },
          {
            "astId": 7100,
            "contract": "src/arbitration/KlerosCore.sol:KlerosCore",
            "label": "supportedDisputeKits",
            "offset": 0,
            "slot": "10",
            "type": "t_mapping(t_uint256,t_bool)"
          },
          {
            "astId": 7102,
            "contract": "src/arbitration/KlerosCore.sol:KlerosCore",
            "label": "disabled",
            "offset": 0,
            "slot": "11",
            "type": "t_bool"
          }
        ],
        "numberOfBytes": "384"
      },
      "t_struct(CurrencyRate)7169_storage": {
        "encoding": "inplace",
        "label": "struct KlerosCoreBase.CurrencyRate",
        "members": [
          {
            "astId": 7164,
            "contract": "src/arbitration/KlerosCore.sol:KlerosCore",
            "label": "feePaymentAccepted",
            "offset": 0,
            "slot": "0",
            "type": "t_bool"
          },
          {
            "astId": 7166,
            "contract": "src/arbitration/KlerosCore.sol:KlerosCore",
            "label": "rateInEth",
            "offset": 1,
            "slot": "0",
            "type": "t_uint64"
          },
          {
            "astId": 7168,
            "contract": "src/arbitration/KlerosCore.sol:KlerosCore",
            "label": "rateDecimals",
            "offset": 9,
            "slot": "0",
            "type": "t_uint8"
          }
        ],
        "numberOfBytes": "32"
      },
      "t_struct(Dispute)7120_storage": {
        "encoding": "inplace",
        "label": "struct KlerosCoreBase.Dispute",
        "members": [
          {
            "astId": 7105,
            "contract": "src/arbitration/KlerosCore.sol:KlerosCore",
            "label": "courtID",
            "offset": 0,
            "slot": "0",
            "type": "t_uint96"
          },
          {
            "astId": 7108,
            "contract": "src/arbitration/KlerosCore.sol:KlerosCore",
            "label": "arbitrated",
            "offset": 12,
            "slot": "0",
            "type": "t_contract(IArbitrableV2)22946"
          },
          {
            "astId": 7111,
            "contract": "src/arbitration/KlerosCore.sol:KlerosCore",
            "label": "period",
            "offset": 0,
            "slot": "1",
            "type": "t_enum(Period)7077"
          },
          {
            "astId": 7113,
            "contract": "src/arbitration/KlerosCore.sol:KlerosCore",
            "label": "ruled",
            "offset": 1,
            "slot": "1",
            "type": "t_bool"
          },
          {
            "astId": 7115,
            "contract": "src/arbitration/KlerosCore.sol:KlerosCore",
            "label": "lastPeriodChange",
            "offset": 0,
            "slot": "2",
            "type": "t_uint256"
          },
          {
            "astId": 7119,
            "contract": "src/arbitration/KlerosCore.sol:KlerosCore",
            "label": "rounds",
            "offset": 0,
            "slot": "3",
            "type": "t_array(t_struct(Round)7145_storage)dyn_storage"
          }
        ],
        "numberOfBytes": "128"
      },
      "t_struct(Round)7145_storage": {
        "encoding": "inplace",
        "label": "struct KlerosCoreBase.Round",
        "members": [
          {
            "astId": 7122,
            "contract": "src/arbitration/KlerosCore.sol:KlerosCore",
            "label": "disputeKitID",
            "offset": 0,
            "slot": "0",
            "type": "t_uint256"
          },
          {
            "astId": 7124,
            "contract": "src/arbitration/KlerosCore.sol:KlerosCore",
            "label": "pnkAtStakePerJuror",
            "offset": 0,
            "slot": "1",
            "type": "t_uint256"
          },
          {
            "astId": 7126,
            "contract": "src/arbitration/KlerosCore.sol:KlerosCore",
            "label": "totalFeesForJurors",
            "offset": 0,
            "slot": "2",
            "type": "t_uint256"
          },
          {
            "astId": 7128,
            "contract": "src/arbitration/KlerosCore.sol:KlerosCore",
            "label": "nbVotes",
            "offset": 0,
            "slot": "3",
            "type": "t_uint256"
          },
          {
            "astId": 7130,
            "contract": "src/arbitration/KlerosCore.sol:KlerosCore",
            "label": "repartitions",
            "offset": 0,
            "slot": "4",
            "type": "t_uint256"
          },
          {
            "astId": 7132,
            "contract": "src/arbitration/KlerosCore.sol:KlerosCore",
            "label": "pnkPenalties",
            "offset": 0,
            "slot": "5",
            "type": "t_uint256"
          },
          {
            "astId": 7135,
            "contract": "src/arbitration/KlerosCore.sol:KlerosCore",
            "label": "drawnJurors",
            "offset": 0,
            "slot": "6",
            "type": "t_array(t_address)dyn_storage"
          },
          {
            "astId": 7137,
            "contract": "src/arbitration/KlerosCore.sol:KlerosCore",
            "label": "sumFeeRewardPaid",
            "offset": 0,
            "slot": "7",
            "type": "t_uint256"
          },
          {
            "astId": 7139,
            "contract": "src/arbitration/KlerosCore.sol:KlerosCore",
            "label": "sumPnkRewardPaid",
            "offset": 0,
            "slot": "8",
            "type": "t_uint256"
          },
          {
            "astId": 7142,
            "contract": "src/arbitration/KlerosCore.sol:KlerosCore",
            "label": "feeToken",
            "offset": 0,
            "slot": "9",
            "type": "t_contract(IERC20)1229"
          },
          {
            "astId": 7144,
            "contract": "src/arbitration/KlerosCore.sol:KlerosCore",
            "label": "drawIterations",
            "offset": 0,
            "slot": "10",
            "type": "t_uint256"
          }
        ],
        "numberOfBytes": "352"
      },
      "t_uint256": {
        "encoding": "inplace",
        "label": "uint256",
        "numberOfBytes": "32"
      },
      "t_uint64": {
        "encoding": "inplace",
        "label": "uint64",
        "numberOfBytes": "8"
      },
      "t_uint8": {
        "encoding": "inplace",
        "label": "uint8",
        "numberOfBytes": "1"
      },
      "t_uint96": {
        "encoding": "inplace",
        "label": "uint96",
        "numberOfBytes": "12"
      }
    }
  }
}