{
  "address": "0x3Dc15eb9673b7228c69aBcF056d4c4044325fdf7",
  "abi": [
    {
      "inputs": [],
      "stateMutability": "nonpayable",
      "type": "constructor"
    },
    {
      "inputs": [],
      "name": "AlreadyInitialized",
      "type": "error"
    },
    {
      "inputs": [],
      "name": "AppealFeesNotEnough",
      "type": "error"
    },
    {
      "inputs": [],
      "name": "AppealPeriodNotPassed",
      "type": "error"
    },
    {
      "inputs": [],
      "name": "ArbitrationFeesNotEnough",
      "type": "error"
    },
    {
      "inputs": [],
      "name": "CannotDisableClassicDK",
      "type": "error"
    },
    {
      "inputs": [],
      "name": "CommitPeriodNotPassed",
      "type": "error"
    },
    {
      "inputs": [],
      "name": "DisputeKitNotSupportedByCourt",
      "type": "error"
    },
    {
      "inputs": [],
      "name": "DisputeKitOnly",
      "type": "error"
    },
    {
      "inputs": [],
      "name": "DisputeNotAppealable",
      "type": "error"
    },
    {
      "inputs": [],
      "name": "DisputePeriodIsFinal",
      "type": "error"
    },
    {
      "inputs": [],
      "name": "DisputeStillDrawing",
      "type": "error"
    },
    {
      "inputs": [],
      "name": "EvidenceNotPassedAndNotAppeal",
      "type": "error"
    },
    {
      "inputs": [],
      "name": "FailedDelegateCall",
      "type": "error"
    },
    {
      "inputs": [],
      "name": "GovernorOnly",
      "type": "error"
    },
    {
      "inputs": [],
      "name": "GuardianOrGovernorOnly",
      "type": "error"
    },
    {
      "inputs": [],
      "name": "InvalidDisputKitParent",
      "type": "error"
    },
    {
      "inputs": [],
      "name": "InvalidForkingCourtAsParent",
      "type": "error"
    },
    {
      "inputs": [
        {
          "internalType": "address",
          "name": "implementation",
          "type": "address"
        }
      ],
      "name": "InvalidImplementation",
      "type": "error"
    },
    {
      "inputs": [],
      "name": "MinStakeLowerThanParentCourt",
      "type": "error"
    },
    {
      "inputs": [],
      "name": "MustSupportDisputeKitClassic",
      "type": "error"
    },
    {
      "inputs": [],
      "name": "NotEvidencePeriod",
      "type": "error"
    },
    {
      "inputs": [],
      "name": "NotExecutionPeriod",
      "type": "error"
    },
    {
      "inputs": [],
      "name": "NotInitializing",
      "type": "error"
    },
    {
      "inputs": [],
      "name": "RulingAlreadyExecuted",
      "type": "error"
    },
    {
      "inputs": [],
      "name": "SortitionModuleOnly",
      "type": "error"
    },
    {
      "inputs": [],
      "name": "StakingInTooManyCourts",
      "type": "error"
    },
    {
      "inputs": [],
      "name": "StakingLessThanCourtMinStake",
      "type": "error"
    },
    {
      "inputs": [],
      "name": "StakingNotPossibeInThisCourt",
      "type": "error"
    },
    {
      "inputs": [],
      "name": "StakingTransferFailed",
      "type": "error"
    },
    {
      "inputs": [],
      "name": "StakingZeroWhenNoStake",
      "type": "error"
    },
    {
      "inputs": [],
      "name": "TokenNotAccepted",
      "type": "error"
    },
    {
      "inputs": [],
      "name": "TransferFailed",
      "type": "error"
    },
    {
      "inputs": [],
      "name": "UUPSUnauthorizedCallContext",
      "type": "error"
    },
    {
      "inputs": [
        {
          "internalType": "bytes32",
          "name": "slot",
          "type": "bytes32"
        }
      ],
      "name": "UUPSUnsupportedProxiableUUID",
      "type": "error"
    },
    {
      "inputs": [],
      "name": "UnstakingTransferFailed",
      "type": "error"
    },
    {
      "inputs": [],
      "name": "UnsuccessfulCall",
      "type": "error"
    },
    {
      "inputs": [],
      "name": "UnsupportedDisputeKit",
      "type": "error"
    },
    {
      "inputs": [],
      "name": "VotePeriodNotPassed",
      "type": "error"
    },
    {
      "inputs": [],
      "name": "WhenNotPausedOnly",
      "type": "error"
    },
    {
      "inputs": [],
      "name": "WhenPausedOnly",
      "type": "error"
    },
    {
      "inputs": [],
      "name": "WrongDisputeKitIndex",
      "type": "error"
    },
    {
      "anonymous": false,
      "inputs": [
        {
          "indexed": true,
          "internalType": "contract IERC20",
          "name": "_token",
          "type": "address"
        },
        {
          "indexed": true,
          "internalType": "bool",
          "name": "_accepted",
          "type": "bool"
        }
      ],
      "name": "AcceptedFeeToken",
      "type": "event"
    },
    {
      "anonymous": false,
      "inputs": [
        {
          "indexed": true,
          "internalType": "uint256",
          "name": "_disputeID",
          "type": "uint256"
        },
        {
          "indexed": true,
          "internalType": "contract IArbitrableV2",
          "name": "_arbitrable",
          "type": "address"
        }
      ],
      "name": "AppealDecision",
      "type": "event"
    },
    {
      "anonymous": false,
      "inputs": [
        {
          "indexed": true,
          "internalType": "uint256",
          "name": "_disputeID",
          "type": "uint256"
        },
        {
          "indexed": true,
          "internalType": "contract IArbitrableV2",
          "name": "_arbitrable",
          "type": "address"
        }
      ],
      "name": "AppealPossible",
      "type": "event"
    },
    {
      "anonymous": false,
      "inputs": [
        {
          "indexed": true,
          "internalType": "uint96",
          "name": "_courtID",
          "type": "uint96"
        },
        {
          "indexed": true,
          "internalType": "uint96",
          "name": "_parent",
          "type": "uint96"
        },
        {
          "indexed": false,
          "internalType": "bool",
          "name": "_hiddenVotes",
          "type": "bool"
        },
        {
          "indexed": false,
          "internalType": "uint256",
          "name": "_minStake",
          "type": "uint256"
        },
        {
          "indexed": false,
          "internalType": "uint256",
          "name": "_alpha",
          "type": "uint256"
        },
        {
          "indexed": false,
          "internalType": "uint256",
          "name": "_feeForJuror",
          "type": "uint256"
        },
        {
          "indexed": false,
          "internalType": "uint256",
          "name": "_jurorsForCourtJump",
          "type": "uint256"
        },
        {
          "indexed": false,
          "internalType": "uint256[4]",
          "name": "_timesPerPeriod",
          "type": "uint256[4]"
        },
        {
          "indexed": false,
          "internalType": "uint256[]",
          "name": "_supportedDisputeKits",
          "type": "uint256[]"
        }
      ],
      "name": "CourtCreated",
      "type": "event"
    },
    {
      "anonymous": false,
      "inputs": [
        {
          "indexed": true,
          "internalType": "uint256",
          "name": "_disputeID",
          "type": "uint256"
        },
        {
          "indexed": true,
          "internalType": "uint256",
          "name": "_roundID",
          "type": "uint256"
        },
        {
          "indexed": true,
          "internalType": "uint96",
          "name": "_fromCourtID",
          "type": "uint96"
        },
        {
          "indexed": false,
          "internalType": "uint96",
          "name": "_toCourtID",
          "type": "uint96"
        }
      ],
      "name": "CourtJump",
      "type": "event"
    },
    {
      "anonymous": false,
      "inputs": [
        {
          "indexed": true,
          "internalType": "uint96",
          "name": "_courtID",
          "type": "uint96"
        },
        {
          "indexed": false,
          "internalType": "bool",
          "name": "_hiddenVotes",
          "type": "bool"
        },
        {
          "indexed": false,
          "internalType": "uint256",
          "name": "_minStake",
          "type": "uint256"
        },
        {
          "indexed": false,
          "internalType": "uint256",
          "name": "_alpha",
          "type": "uint256"
        },
        {
          "indexed": false,
          "internalType": "uint256",
          "name": "_feeForJuror",
          "type": "uint256"
        },
        {
          "indexed": false,
          "internalType": "uint256",
          "name": "_jurorsForCourtJump",
          "type": "uint256"
        },
        {
          "indexed": false,
          "internalType": "uint256[4]",
          "name": "_timesPerPeriod",
          "type": "uint256[4]"
        }
      ],
      "name": "CourtModified",
      "type": "event"
    },
    {
      "anonymous": false,
      "inputs": [
        {
          "indexed": true,
          "internalType": "uint256",
          "name": "_disputeID",
          "type": "uint256"
        },
        {
          "indexed": true,
          "internalType": "contract IArbitrableV2",
          "name": "_arbitrable",
          "type": "address"
        }
      ],
      "name": "DisputeCreation",
      "type": "event"
    },
    {
      "anonymous": false,
      "inputs": [
        {
          "indexed": true,
          "internalType": "uint256",
          "name": "_disputeKitID",
          "type": "uint256"
        },
        {
          "indexed": true,
          "internalType": "contract IDisputeKit",
          "name": "_disputeKitAddress",
          "type": "address"
        }
      ],
      "name": "DisputeKitCreated",
      "type": "event"
    },
    {
      "anonymous": false,
      "inputs": [
        {
          "indexed": true,
          "internalType": "uint96",
          "name": "_courtID",
          "type": "uint96"
        },
        {
          "indexed": true,
          "internalType": "uint256",
          "name": "_disputeKitID",
          "type": "uint256"
        },
        {
          "indexed": true,
          "internalType": "bool",
          "name": "_enable",
          "type": "bool"
        }
      ],
      "name": "DisputeKitEnabled",
      "type": "event"
    },
    {
      "anonymous": false,
      "inputs": [
        {
          "indexed": true,
          "internalType": "uint256",
          "name": "_disputeID",
          "type": "uint256"
        },
        {
          "indexed": true,
          "internalType": "uint256",
          "name": "_roundID",
          "type": "uint256"
        },
        {
          "indexed": true,
          "internalType": "uint256",
          "name": "_fromDisputeKitID",
          "type": "uint256"
        },
        {
          "indexed": false,
          "internalType": "uint256",
          "name": "_toDisputeKitID",
          "type": "uint256"
        }
      ],
      "name": "DisputeKitJump",
      "type": "event"
    },
    {
      "anonymous": false,
      "inputs": [
        {
          "indexed": true,
          "internalType": "address",
          "name": "_address",
          "type": "address"
        },
        {
          "indexed": true,
          "internalType": "uint256",
          "name": "_disputeID",
          "type": "uint256"
        },
        {
          "indexed": false,
          "internalType": "uint256",
          "name": "_roundID",
          "type": "uint256"
        },
        {
          "indexed": false,
          "internalType": "uint256",
          "name": "_voteID",
          "type": "uint256"
        }
      ],
      "name": "Draw",
      "type": "event"
    },
    {
      "anonymous": false,
      "inputs": [
        {
          "indexed": false,
          "internalType": "uint64",
          "name": "version",
          "type": "uint64"
        }
      ],
      "name": "Initialized",
      "type": "event"
    },
    {
      "anonymous": false,
      "inputs": [
        {
          "indexed": true,
          "internalType": "uint256",
          "name": "_disputeID",
          "type": "uint256"
        },
        {
          "indexed": true,
          "internalType": "uint256",
          "name": "_roundID",
          "type": "uint256"
        },
        {
          "indexed": false,
          "internalType": "uint256",
          "name": "_pnkAmount",
          "type": "uint256"
        },
        {
          "indexed": false,
          "internalType": "uint256",
          "name": "_feeAmount",
          "type": "uint256"
        },
        {
          "indexed": false,
          "internalType": "contract IERC20",
          "name": "_feeToken",
          "type": "address"
        }
      ],
      "name": "LeftoverRewardSent",
      "type": "event"
    },
    {
      "anonymous": false,
      "inputs": [
        {
          "indexed": true,
          "internalType": "contract IERC20",
          "name": "_feeToken",
          "type": "address"
        },
        {
          "indexed": false,
          "internalType": "uint64",
          "name": "_rateInEth",
          "type": "uint64"
        },
        {
          "indexed": false,
          "internalType": "uint8",
          "name": "_rateDecimals",
          "type": "uint8"
        }
      ],
      "name": "NewCurrencyRate",
      "type": "event"
    },
    {
      "anonymous": false,
      "inputs": [
        {
          "indexed": true,
          "internalType": "uint256",
          "name": "_disputeID",
          "type": "uint256"
        },
        {
          "indexed": false,
          "internalType": "enum KlerosCoreBase.Period",
          "name": "_period",
          "type": "uint8"
        }
      ],
      "name": "NewPeriod",
      "type": "event"
    },
    {
      "anonymous": false,
      "inputs": [],
      "name": "Paused",
      "type": "event"
    },
    {
      "anonymous": false,
      "inputs": [
        {
          "indexed": true,
          "internalType": "contract IArbitrableV2",
          "name": "_arbitrable",
          "type": "address"
        },
        {
          "indexed": true,
          "internalType": "uint256",
          "name": "_disputeID",
          "type": "uint256"
        },
        {
          "indexed": false,
          "internalType": "uint256",
          "name": "_ruling",
          "type": "uint256"
        }
      ],
      "name": "Ruling",
      "type": "event"
    },
    {
      "anonymous": false,
      "inputs": [
        {
          "indexed": true,
          "internalType": "address",
          "name": "_account",
          "type": "address"
        },
        {
          "indexed": true,
          "internalType": "uint256",
          "name": "_disputeID",
          "type": "uint256"
        },
        {
          "indexed": true,
          "internalType": "uint256",
          "name": "_roundID",
          "type": "uint256"
        },
        {
          "indexed": false,
          "internalType": "uint256",
          "name": "_degreeOfCoherency",
          "type": "uint256"
        },
        {
          "indexed": false,
          "internalType": "int256",
          "name": "_pnkAmount",
          "type": "int256"
        },
        {
          "indexed": false,
          "internalType": "int256",
          "name": "_feeAmount",
          "type": "int256"
        },
        {
          "indexed": false,
          "internalType": "contract IERC20",
          "name": "_feeToken",
          "type": "address"
        }
      ],
      "name": "TokenAndETHShift",
      "type": "event"
    },
    {
      "anonymous": false,
      "inputs": [],
      "name": "Unpaused",
      "type": "event"
    },
    {
      "anonymous": false,
      "inputs": [
        {
          "indexed": true,
          "internalType": "address",
          "name": "newImplementation",
          "type": "address"
        }
      ],
      "name": "Upgraded",
      "type": "event"
    },
    {
      "inputs": [
        {
          "internalType": "contract IDisputeKit",
          "name": "_disputeKitAddress",
          "type": "address"
        }
      ],
      "name": "addNewDisputeKit",
      "outputs": [],
      "stateMutability": "nonpayable",
      "type": "function"
    },
    {
      "inputs": [
        {
          "internalType": "uint256",
          "name": "_disputeID",
          "type": "uint256"
        },
        {
          "internalType": "uint256",
          "name": "_numberOfChoices",
          "type": "uint256"
        },
        {
          "internalType": "bytes",
          "name": "_extraData",
          "type": "bytes"
        }
      ],
      "name": "appeal",
      "outputs": [],
      "stateMutability": "payable",
      "type": "function"
    },
    {
      "inputs": [
        {
          "internalType": "uint256",
          "name": "_disputeID",
          "type": "uint256"
        }
      ],
      "name": "appealCost",
      "outputs": [
        {
          "internalType": "uint256",
          "name": "cost",
          "type": "uint256"
        }
      ],
      "stateMutability": "view",
      "type": "function"
    },
    {
      "inputs": [
        {
          "internalType": "uint256",
          "name": "_disputeID",
          "type": "uint256"
        }
      ],
      "name": "appealPeriod",
      "outputs": [
        {
          "internalType": "uint256",
          "name": "start",
          "type": "uint256"
        },
        {
          "internalType": "uint256",
          "name": "end",
          "type": "uint256"
        }
      ],
      "stateMutability": "view",
      "type": "function"
    },
    {
      "inputs": [
        {
          "internalType": "bytes",
          "name": "_extraData",
          "type": "bytes"
        },
        {
          "internalType": "contract IERC20",
          "name": "_feeToken",
          "type": "address"
        }
      ],
      "name": "arbitrationCost",
      "outputs": [
        {
          "internalType": "uint256",
          "name": "cost",
          "type": "uint256"
        }
      ],
      "stateMutability": "view",
      "type": "function"
    },
    {
      "inputs": [
        {
          "internalType": "bytes",
          "name": "_extraData",
          "type": "bytes"
        }
      ],
      "name": "arbitrationCost",
      "outputs": [
        {
          "internalType": "uint256",
          "name": "cost",
          "type": "uint256"
        }
      ],
      "stateMutability": "view",
      "type": "function"
    },
    {
      "inputs": [
        {
          "internalType": "contract IERC20",
          "name": "_feeToken",
          "type": "address"
        },
        {
          "internalType": "bool",
          "name": "_accepted",
          "type": "bool"
        }
      ],
      "name": "changeAcceptedFeeTokens",
      "outputs": [],
      "stateMutability": "nonpayable",
      "type": "function"
    },
    {
      "inputs": [
        {
          "internalType": "uint96",
          "name": "_courtID",
          "type": "uint96"
        },
        {
          "internalType": "bool",
          "name": "_hiddenVotes",
          "type": "bool"
        },
        {
          "internalType": "uint256",
          "name": "_minStake",
          "type": "uint256"
        },
        {
          "internalType": "uint256",
          "name": "_alpha",
          "type": "uint256"
        },
        {
          "internalType": "uint256",
          "name": "_feeForJuror",
          "type": "uint256"
        },
        {
          "internalType": "uint256",
          "name": "_jurorsForCourtJump",
          "type": "uint256"
        },
        {
          "internalType": "uint256[4]",
          "name": "_timesPerPeriod",
          "type": "uint256[4]"
        }
      ],
      "name": "changeCourtParameters",
      "outputs": [],
      "stateMutability": "nonpayable",
      "type": "function"
    },
    {
      "inputs": [
        {
          "internalType": "contract IERC20",
          "name": "_feeToken",
          "type": "address"
        },
        {
          "internalType": "uint64",
          "name": "_rateInEth",
          "type": "uint64"
        },
        {
          "internalType": "uint8",
          "name": "_rateDecimals",
          "type": "uint8"
        }
      ],
      "name": "changeCurrencyRates",
      "outputs": [],
      "stateMutability": "nonpayable",
      "type": "function"
    },
    {
      "inputs": [
        {
          "internalType": "address payable",
          "name": "_governor",
          "type": "address"
        }
      ],
      "name": "changeGovernor",
      "outputs": [],
      "stateMutability": "nonpayable",
      "type": "function"
    },
    {
      "inputs": [
        {
          "internalType": "address",
          "name": "_guardian",
          "type": "address"
        }
      ],
      "name": "changeGuardian",
      "outputs": [],
      "stateMutability": "nonpayable",
      "type": "function"
    },
    {
      "inputs": [
        {
          "internalType": "address",
          "name": "_jurorProsecutionModule",
          "type": "address"
        }
      ],
      "name": "changeJurorProsecutionModule",
      "outputs": [],
      "stateMutability": "nonpayable",
      "type": "function"
    },
    {
      "inputs": [
        {
          "internalType": "contract IERC20",
          "name": "_pinakion",
          "type": "address"
        }
      ],
      "name": "changePinakion",
      "outputs": [],
      "stateMutability": "nonpayable",
      "type": "function"
    },
    {
      "inputs": [
        {
          "internalType": "contract ISortitionModule",
          "name": "_sortitionModule",
          "type": "address"
        }
      ],
      "name": "changeSortitionModule",
      "outputs": [],
      "stateMutability": "nonpayable",
      "type": "function"
    },
    {
      "inputs": [
        {
          "internalType": "contract IERC20",
          "name": "_toToken",
          "type": "address"
        },
        {
          "internalType": "uint256",
          "name": "_amountInEth",
          "type": "uint256"
        }
      ],
      "name": "convertEthToTokenAmount",
      "outputs": [
        {
          "internalType": "uint256",
          "name": "",
          "type": "uint256"
        }
      ],
      "stateMutability": "view",
      "type": "function"
    },
    {
      "inputs": [
        {
          "internalType": "uint256",
          "name": "",
          "type": "uint256"
        }
      ],
      "name": "courts",
      "outputs": [
        {
          "internalType": "uint96",
          "name": "parent",
          "type": "uint96"
        },
        {
          "internalType": "bool",
          "name": "hiddenVotes",
          "type": "bool"
        },
        {
          "internalType": "uint256",
          "name": "minStake",
          "type": "uint256"
        },
        {
          "internalType": "uint256",
          "name": "alpha",
          "type": "uint256"
        },
        {
          "internalType": "uint256",
          "name": "feeForJuror",
          "type": "uint256"
        },
        {
          "internalType": "uint256",
          "name": "jurorsForCourtJump",
          "type": "uint256"
        },
        {
          "internalType": "bool",
          "name": "disabled",
          "type": "bool"
        }
      ],
      "stateMutability": "view",
      "type": "function"
    },
    {
      "inputs": [
        {
          "internalType": "uint96",
          "name": "_parent",
          "type": "uint96"
        },
        {
          "internalType": "bool",
          "name": "_hiddenVotes",
          "type": "bool"
        },
        {
          "internalType": "uint256",
          "name": "_minStake",
          "type": "uint256"
        },
        {
          "internalType": "uint256",
          "name": "_alpha",
          "type": "uint256"
        },
        {
          "internalType": "uint256",
          "name": "_feeForJuror",
          "type": "uint256"
        },
        {
          "internalType": "uint256",
          "name": "_jurorsForCourtJump",
          "type": "uint256"
        },
        {
          "internalType": "uint256[4]",
          "name": "_timesPerPeriod",
          "type": "uint256[4]"
        },
        {
          "internalType": "bytes",
          "name": "_sortitionExtraData",
          "type": "bytes"
        },
        {
          "internalType": "uint256[]",
          "name": "_supportedDisputeKits",
          "type": "uint256[]"
        }
      ],
      "name": "createCourt",
      "outputs": [],
      "stateMutability": "nonpayable",
      "type": "function"
    },
    {
      "inputs": [
        {
          "internalType": "uint256",
          "name": "_numberOfChoices",
          "type": "uint256"
        },
        {
          "internalType": "bytes",
          "name": "_extraData",
          "type": "bytes"
        }
      ],
      "name": "createDispute",
      "outputs": [
        {
          "internalType": "uint256",
          "name": "disputeID",
          "type": "uint256"
        }
      ],
      "stateMutability": "payable",
      "type": "function"
    },
    {
      "inputs": [
        {
          "internalType": "uint256",
          "name": "_numberOfChoices",
          "type": "uint256"
        },
        {
          "internalType": "bytes",
          "name": "_extraData",
          "type": "bytes"
        },
        {
          "internalType": "contract IERC20",
          "name": "_feeToken",
          "type": "address"
        },
        {
          "internalType": "uint256",
          "name": "_feeAmount",
          "type": "uint256"
        }
      ],
      "name": "createDispute",
      "outputs": [
        {
          "internalType": "uint256",
          "name": "disputeID",
          "type": "uint256"
        }
      ],
      "stateMutability": "nonpayable",
      "type": "function"
    },
    {
      "inputs": [
        {
          "internalType": "contract IERC20",
          "name": "",
          "type": "address"
        }
      ],
      "name": "currencyRates",
      "outputs": [
        {
          "internalType": "bool",
          "name": "feePaymentAccepted",
          "type": "bool"
        },
        {
          "internalType": "uint64",
          "name": "rateInEth",
          "type": "uint64"
        },
        {
          "internalType": "uint8",
          "name": "rateDecimals",
          "type": "uint8"
        }
      ],
      "stateMutability": "view",
      "type": "function"
    },
    {
      "inputs": [
        {
          "internalType": "uint256",
          "name": "_disputeID",
          "type": "uint256"
        }
      ],
      "name": "currentRuling",
      "outputs": [
        {
          "internalType": "uint256",
          "name": "ruling",
          "type": "uint256"
        },
        {
          "internalType": "bool",
          "name": "tied",
          "type": "bool"
        },
        {
          "internalType": "bool",
          "name": "overridden",
          "type": "bool"
        }
      ],
      "stateMutability": "view",
      "type": "function"
    },
    {
      "inputs": [
        {
          "internalType": "uint256",
          "name": "",
          "type": "uint256"
        }
      ],
      "name": "disputeKits",
      "outputs": [
        {
          "internalType": "contract IDisputeKit",
          "name": "",
          "type": "address"
        }
      ],
      "stateMutability": "view",
      "type": "function"
    },
    {
      "inputs": [
        {
          "internalType": "uint256",
          "name": "",
          "type": "uint256"
        }
      ],
      "name": "disputes",
      "outputs": [
        {
          "internalType": "uint96",
          "name": "courtID",
          "type": "uint96"
        },
        {
          "internalType": "contract IArbitrableV2",
          "name": "arbitrated",
          "type": "address"
        },
        {
          "internalType": "enum KlerosCoreBase.Period",
          "name": "period",
          "type": "uint8"
        },
        {
          "internalType": "bool",
          "name": "ruled",
          "type": "bool"
        },
        {
          "internalType": "uint256",
          "name": "lastPeriodChange",
          "type": "uint256"
        }
      ],
      "stateMutability": "view",
      "type": "function"
    },
    {
      "inputs": [
        {
          "internalType": "uint256",
          "name": "_disputeID",
          "type": "uint256"
        },
        {
          "internalType": "uint256",
          "name": "_iterations",
          "type": "uint256"
        }
      ],
      "name": "draw",
      "outputs": [],
      "stateMutability": "nonpayable",
      "type": "function"
    },
    {
      "inputs": [
        {
          "internalType": "uint96",
          "name": "_courtID",
          "type": "uint96"
        },
        {
          "internalType": "uint256[]",
          "name": "_disputeKitIDs",
          "type": "uint256[]"
        },
        {
          "internalType": "bool",
          "name": "_enable",
          "type": "bool"
        }
      ],
      "name": "enableDisputeKits",
      "outputs": [],
      "stateMutability": "nonpayable",
      "type": "function"
    },
    {
      "inputs": [
        {
          "internalType": "uint256",
          "name": "_disputeID",
          "type": "uint256"
        },
        {
          "internalType": "uint256",
          "name": "_round",
          "type": "uint256"
        },
        {
          "internalType": "uint256",
          "name": "_iterations",
          "type": "uint256"
        }
      ],
      "name": "execute",
      "outputs": [],
      "stateMutability": "nonpayable",
      "type": "function"
    },
    {
      "inputs": [
        {
          "internalType": "address",
          "name": "_destination",
          "type": "address"
        },
        {
          "internalType": "uint256",
          "name": "_amount",
          "type": "uint256"
        },
        {
          "internalType": "bytes",
          "name": "_data",
          "type": "bytes"
        }
      ],
      "name": "executeGovernorProposal",
      "outputs": [],
      "stateMutability": "nonpayable",
      "type": "function"
    },
    {
      "inputs": [
        {
          "internalType": "uint256",
          "name": "_disputeID",
          "type": "uint256"
        }
      ],
      "name": "executeRuling",
      "outputs": [],
      "stateMutability": "nonpayable",
      "type": "function"
    },
    {
      "inputs": [],
      "name": "getDisputeKitsLength",
      "outputs": [
        {
          "internalType": "uint256",
          "name": "",
          "type": "uint256"
        }
      ],
      "stateMutability": "view",
      "type": "function"
    },
    {
      "inputs": [
        {
          "internalType": "uint256",
          "name": "_disputeID",
          "type": "uint256"
        }
      ],
      "name": "getNumberOfRounds",
      "outputs": [
        {
          "internalType": "uint256",
          "name": "",
          "type": "uint256"
        }
      ],
      "stateMutability": "view",
      "type": "function"
    },
    {
      "inputs": [
        {
          "internalType": "uint256",
          "name": "_disputeID",
          "type": "uint256"
        }
      ],
      "name": "getNumberOfVotes",
      "outputs": [
        {
          "internalType": "uint256",
          "name": "",
          "type": "uint256"
        }
      ],
      "stateMutability": "view",
      "type": "function"
    },
    {
      "inputs": [
        {
          "internalType": "uint256",
          "name": "_disputeID",
          "type": "uint256"
        },
        {
          "internalType": "uint256",
          "name": "_round",
          "type": "uint256"
        }
      ],
      "name": "getRoundInfo",
      "outputs": [
        {
          "components": [
            {
              "internalType": "uint256",
              "name": "disputeKitID",
              "type": "uint256"
            },
            {
              "internalType": "uint256",
              "name": "pnkAtStakePerJuror",
              "type": "uint256"
            },
            {
              "internalType": "uint256",
              "name": "totalFeesForJurors",
              "type": "uint256"
            },
            {
              "internalType": "uint256",
              "name": "nbVotes",
              "type": "uint256"
            },
            {
              "internalType": "uint256",
              "name": "repartitions",
              "type": "uint256"
            },
            {
              "internalType": "uint256",
              "name": "pnkPenalties",
              "type": "uint256"
            },
            {
              "internalType": "address[]",
              "name": "drawnJurors",
              "type": "address[]"
            },
            {
              "internalType": "uint256",
              "name": "sumFeeRewardPaid",
              "type": "uint256"
            },
            {
              "internalType": "uint256",
              "name": "sumPnkRewardPaid",
              "type": "uint256"
            },
            {
              "internalType": "contract IERC20",
              "name": "feeToken",
              "type": "address"
            },
            {
              "internalType": "uint256",
              "name": "drawIterations",
              "type": "uint256"
            }
          ],
          "internalType": "struct KlerosCoreBase.Round",
          "name": "",
          "type": "tuple"
        }
      ],
      "stateMutability": "view",
      "type": "function"
    },
    {
      "inputs": [
        {
          "internalType": "uint96",
          "name": "_courtID",
          "type": "uint96"
        }
      ],
      "name": "getTimesPerPeriod",
      "outputs": [
        {
          "internalType": "uint256[4]",
          "name": "timesPerPeriod",
          "type": "uint256[4]"
        }
      ],
      "stateMutability": "view",
      "type": "function"
    },
    {
      "inputs": [],
      "name": "governor",
      "outputs": [
        {
          "internalType": "address",
          "name": "",
          "type": "address"
        }
      ],
      "stateMutability": "view",
      "type": "function"
    },
    {
      "inputs": [],
      "name": "guardian",
      "outputs": [
        {
          "internalType": "address",
          "name": "",
          "type": "address"
        }
      ],
      "stateMutability": "view",
      "type": "function"
    },
    {
      "inputs": [
        {
          "internalType": "address",
          "name": "_governor",
          "type": "address"
        },
        {
          "internalType": "address",
          "name": "_guardian",
          "type": "address"
        },
        {
          "internalType": "contract IERC20",
          "name": "_pinakion",
          "type": "address"
        },
        {
          "internalType": "address",
          "name": "_jurorProsecutionModule",
          "type": "address"
        },
        {
          "internalType": "contract IDisputeKit",
          "name": "_disputeKit",
          "type": "address"
        },
        {
          "internalType": "bool",
          "name": "_hiddenVotes",
          "type": "bool"
        },
        {
          "internalType": "uint256[4]",
          "name": "_courtParameters",
          "type": "uint256[4]"
        },
        {
          "internalType": "uint256[4]",
          "name": "_timesPerPeriod",
          "type": "uint256[4]"
        },
        {
          "internalType": "bytes",
          "name": "_sortitionExtraData",
          "type": "bytes"
        },
        {
          "internalType": "contract ISortitionModule",
          "name": "_sortitionModuleAddress",
          "type": "address"
        }
      ],
      "name": "initialize",
      "outputs": [],
      "stateMutability": "nonpayable",
      "type": "function"
    },
    {
      "inputs": [],
      "name": "initialize3",
      "outputs": [],
      "stateMutability": "nonpayable",
      "type": "function"
    },
    {
      "inputs": [
        {
          "internalType": "uint256",
          "name": "_disputeID",
          "type": "uint256"
        }
      ],
      "name": "isDisputeKitJumping",
      "outputs": [
        {
          "internalType": "bool",
          "name": "",
          "type": "bool"
        }
      ],
      "stateMutability": "view",
      "type": "function"
    },
    {
      "inputs": [
        {
          "internalType": "uint96",
          "name": "_courtID",
          "type": "uint96"
        },
        {
          "internalType": "uint256",
          "name": "_disputeKitID",
          "type": "uint256"
        }
      ],
      "name": "isSupported",
      "outputs": [
        {
          "internalType": "bool",
          "name": "",
          "type": "bool"
        }
      ],
      "stateMutability": "view",
      "type": "function"
    },
    {
      "inputs": [],
      "name": "jurorProsecutionModule",
      "outputs": [
        {
          "internalType": "address",
          "name": "",
          "type": "address"
        }
      ],
      "stateMutability": "view",
      "type": "function"
    },
    {
      "inputs": [
        {
          "internalType": "uint256",
          "name": "_disputeID",
          "type": "uint256"
        }
      ],
      "name": "passPeriod",
      "outputs": [],
      "stateMutability": "nonpayable",
      "type": "function"
    },
    {
      "inputs": [],
      "name": "pause",
      "outputs": [],
      "stateMutability": "nonpayable",
      "type": "function"
    },
    {
      "inputs": [],
      "name": "paused",
      "outputs": [
        {
          "internalType": "bool",
          "name": "",
          "type": "bool"
        }
      ],
      "stateMutability": "view",
      "type": "function"
    },
    {
      "inputs": [],
      "name": "pinakion",
      "outputs": [
        {
          "internalType": "contract IERC20",
          "name": "",
          "type": "address"
        }
      ],
      "stateMutability": "view",
      "type": "function"
    },
    {
      "inputs": [],
      "name": "proxiableUUID",
      "outputs": [
        {
          "internalType": "bytes32",
          "name": "",
          "type": "bytes32"
        }
      ],
      "stateMutability": "view",
      "type": "function"
    },
    {
      "inputs": [
        {
          "internalType": "uint96",
          "name": "_courtID",
          "type": "uint96"
        },
        {
          "internalType": "uint256",
          "name": "_newStake",
          "type": "uint256"
        }
      ],
      "name": "setStake",
      "outputs": [],
      "stateMutability": "nonpayable",
      "type": "function"
    },
    {
      "inputs": [
        {
          "internalType": "address",
          "name": "_account",
          "type": "address"
        },
        {
          "internalType": "uint96",
          "name": "_courtID",
          "type": "uint96"
        },
        {
          "internalType": "uint256",
          "name": "_newStake",
          "type": "uint256"
        },
        {
          "internalType": "bool",
          "name": "_alreadyTransferred",
          "type": "bool"
        }
      ],
      "name": "setStakeBySortitionModule",
      "outputs": [],
      "stateMutability": "nonpayable",
      "type": "function"
    },
    {
      "inputs": [],
      "name": "sortitionModule",
      "outputs": [
        {
          "internalType": "contract ISortitionModule",
          "name": "",
          "type": "address"
        }
      ],
      "stateMutability": "view",
      "type": "function"
    },
    {
      "inputs": [],
      "name": "unpause",
      "outputs": [],
      "stateMutability": "nonpayable",
      "type": "function"
    },
    {
      "inputs": [
        {
          "internalType": "address",
          "name": "newImplementation",
          "type": "address"
        },
        {
          "internalType": "bytes",
          "name": "data",
          "type": "bytes"
        }
      ],
      "name": "upgradeToAndCall",
      "outputs": [],
      "stateMutability": "payable",
      "type": "function"
    },
    {
      "inputs": [],
      "name": "version",
      "outputs": [
        {
          "internalType": "string",
          "name": "",
          "type": "string"
        }
      ],
      "stateMutability": "view",
      "type": "function"
    }
  ],
  "transactionHash": "0x4a93ddcaae18e3a3a00ac03883ff54ca81668afaaf7520f42e12e3ac24e856b0",
  "args": [],
  "numDeployments": 2,
  "solcInputHash": "acb39436d8539d1379a47e045a065e54",
  "bytecode": "0x60a0604052306080523480156200001557600080fd5b506200002062000026565b620000d9565b7ff0c57e16840df040f15088dc2f81fe391c3923bec73e23a9662efc9c229c6a0e805468010000000000000000900460ff1615620000765760405162dc149f60e41b815260040160405180910390fd5b80546001600160401b0390811614620000d65780546001600160401b0319166001600160401b0390811782556040519081527fc7f505b2f371ae2175ee4913f4499e1f2633a7b5936321eed1cdaeb6115181d29060200160405180910390a15b50565b608051615aa2620001036000396000818161173d01528181611766015261195d0152615aa26000f3fe6080604052600436106102b35760003560e01c806382d0223711610170578063cf0c38f8116100cc578063ec918b6511610085578063ec918b6514610920578063f6506db414610935578063f7434ea914610955578063fbb519e714610975578063fbf405b014610995578063fc6f8f16146109b5578063fe524c39146109d557600080fd5b8063cf0c38f81461086b578063d07368bd1461088b578063d2b8035a146108ab578063d4d1d76a146108cb578063d98493f6146108e0578063e4c0aaf41461090057600080fd5b8063acdbf51d11610129578063acdbf51d14610790578063afe15cfb146107b0578063b0049637146107e5578063c13517e114610805578063c258bb1914610818578063c356990214610838578063c71f42531461084b57600080fd5b806382d02237146106ce5780638456cb59146106ee57806386541b24146107035780638a9bb02a146107235780638bb0487514610750578063a072b86c1461077057600080fd5b80633cfd11841161021f578063564a565d116101d8578063564a565d146105e357806359ec827e146106145780635c975abb14610634578063751accd01461064e5780637717a6e81461066e5780637934c0be1461068e5780637b4f3cc5146106ae57600080fd5b80633cfd11841461051b5780633f4ba83a14610548578063452a93201461055d5780634f1ef2861461057d57806352d1902d1461059057806354fd4d50146105a557600080fd5b806319b815291161027157806319b81529146103ed5780631c3db16d1461041d5780631f5a0dd21461045a5780632d29a47b146104bb5780632e1daf2f146104db5780632fcb4f04146104fb57600080fd5b8062f5822c146102b85780630219da79146102da5780630b7414bc146103525780630c340a2414610372578063115d53761461039f5780631860592b146103bf575b600080fd5b3480156102c457600080fd5b506102d86102d3366004614be9565b6109f5565b005b3480156102e657600080fd5b506103256102f5366004614be9565b60086020526000908152604090205460ff808216916001600160401b0361010082041691600160481b9091041683565b6040805193151584526001600160401b03909216602084015260ff16908201526060015b60405180910390f35b34801561035e57600080fd5b506102d861036d366004614cfc565b610a42565b34801561037e57600080fd5b50600054610392906001600160a01b031681565b6040516103499190614d5d565b3480156103ab57600080fd5b506102d86103ba366004614d71565b610b79565b3480156103cb57600080fd5b506103df6103da366004614d8a565b6110b0565b604051908152602001610349565b3480156103f957600080fd5b5061040d610408366004614d71565b61110a565b6040519015158152602001610349565b34801561042957600080fd5b5061043d610438366004614d71565b611203565b604080519384529115156020840152151590820152606001610349565b34801561046657600080fd5b5061047a610475366004614d71565b611304565b604080516001600160601b0390981688529515156020880152948601939093526060850191909152608084015260a0830152151560c082015260e001610349565b3480156104c757600080fd5b506102d86104d6366004614db6565b611363565b3480156104e757600080fd5b50600454610392906001600160a01b031681565b34801561050757600080fd5b506102d8610516366004614be9565b6115ef565b34801561052757600080fd5b5061053b610536366004614ded565b61163c565b6040516103499190614e2b565b34801561055457600080fd5b506102d86116a6565b34801561056957600080fd5b50600154610392906001600160a01b031681565b6102d861058b366004614ea8565b611729565b34801561059c57600080fd5b506103df611950565b3480156105b157600080fd5b506105d6604051806040016040528060058152602001640302e382e360dc1b81525081565b6040516103499190614f47565b3480156105ef57600080fd5b506106036105fe366004614d71565b6119ae565b604051610349959493929190614f92565b34801561062057600080fd5b506103df61062f366004614d71565b611a0a565b34801561064057600080fd5b5060095461040d9060ff1681565b34801561065a57600080fd5b506102d8610669366004614fd1565b611b5f565b34801561067a57600080fd5b506102d8610689366004615029565b611c09565b34801561069a57600080fd5b506102d86106a9366004615045565b611c3b565b3480156106ba57600080fd5b506102d86106c93660046150eb565b611cba565b3480156106da57600080fd5b506102d86106e93660046151cc565b611d92565b3480156106fa57600080fd5b506102d8611e4f565b34801561070f57600080fd5b506102d861071e36600461521e565b611eef565b34801561072f57600080fd5b5061074361073e36600461528c565b6120cc565b60405161034991906152f3565b34801561075c57600080fd5b506102d861076b366004614d71565b612258565b34801561077c57600080fd5b506102d861078b366004615398565b6123bc565b34801561079c57600080fd5b506103926107ab366004614d71565b6126f4565b3480156107bc57600080fd5b506107d06107cb366004614d71565b61271e565b60408051928352602083019190915201610349565b3480156107f157600080fd5b506102d8610800366004614be9565b6127ca565b6103df610813366004615458565b612817565b34801561082457600080fd5b506102d8610833366004614be9565b61284f565b6102d8610846366004615488565b61289c565b34801561085757600080fd5b506103df610866366004614d71565b612d70565b34801561087757600080fd5b50600354610392906001600160a01b031681565b34801561089757600080fd5b506102d86108a6366004614be9565b612dd8565b3480156108b757600080fd5b506102d86108c636600461528c565b612e81565b3480156108d757600080fd5b506006546103df565b3480156108ec57600080fd5b506103df6108fb366004615509565b613196565b34801561090c57600080fd5b506102d861091b366004614be9565b6131e3565b34801561092c57600080fd5b506102d8613230565b34801561094157600080fd5b506103df610950366004615554565b6132e1565b34801561096157600080fd5b506103df6109703660046155ba565b6133c7565b34801561098157600080fd5b506102d86109903660046155ee565b613413565b3480156109a157600080fd5b50600254610392906001600160a01b031681565b3480156109c157600080fd5b506103df6109d0366004614d71565b613453565b3480156109e157600080fd5b5061040d6109f0366004615029565b613482565b6000546001600160a01b03163314610a205760405163c383977560e01b815260040160405180910390fd5b600280546001600160a01b0319166001600160a01b0392909216919091179055565b6000546001600160a01b03163314610a6d5760405163c383977560e01b815260040160405180910390fd5b60005b8251811015610b73578115610b0c57828181518110610a9157610a9161563f565b602002602001015160001480610ac457506006548351849083908110610ab957610ab961563f565b602002602001015110155b15610ae257604051633d58a98960e11b815260040160405180910390fd5b610b0784848381518110610af857610af861563f565b602002602001015160016134ca565b610b6b565b6001838281518110610b2057610b2061563f565b602002602001015103610b46576040516356d111fd60e11b815260040160405180910390fd5b610b6b84848381518110610b5c57610b5c61563f565b602002602001015160006134ca565b600101610a70565b50505050565b600060078281548110610b8e57610b8e61563f565b600091825260208220600490910201805460058054929450916001600160601b03909116908110610bc157610bc161563f565b6000918252602082206003850154600c909202019250610be39060019061566b565b90506000836003018281548110610bfc57610bfc61563f565b600091825260208220600b909102019150600185015460ff166004811115610c2657610c26614f5a565b03610d015781158015610c7557506001840154600684019060ff166004811115610c5257610c52614f5a565b60048110610c6257610c6261563f565b01546002850154610c73904261566b565b105b15610c9357604051633e9727df60e01b815260040160405180910390fd5b6003810154600682015414610cbb576040516309e4486b60e41b815260040160405180910390fd5b8254600160601b900460ff16610cd2576002610cd5565b60015b60018086018054909160ff1990911690836004811115610cf757610cf7614f5a565b0217905550611062565b60018085015460ff166004811115610d1b57610d1b614f5a565b03610e2b576001840154600684019060ff166004811115610d3e57610d3e614f5a565b60048110610d4e57610d4e61563f565b01546002850154610d5f904261566b565b108015610df657506006816000015481548110610d7e57610d7e61563f565b600091825260209091200154604051630baa64d160e01b8152600481018790526001600160a01b0390911690630baa64d190602401602060405180830381865afa158015610dd0573d6000803e3d6000fd5b505050506040513d601f19601f82011682018060405250810190610df4919061567e565b155b15610e1457604051634dfa578560e11b815260040160405180910390fd5b6001808501805460029260ff199091169083610cf7565b6002600185015460ff166004811115610e4657610e46614f5a565b03610f94576001840154600684019060ff166004811115610e6957610e69614f5a565b60048110610e7957610e7961563f565b01546002850154610e8a904261566b565b108015610f2157506006816000015481548110610ea957610ea961563f565b6000918252602090912001546040516336a66c7560e11b8152600481018790526001600160a01b0390911690636d4cd8ea90602401602060405180830381865afa158015610efb573d6000803e3d6000fd5b505050506040513d601f19601f82011682018060405250810190610f1f919061567e565b155b15610f3f57604051631988dead60e31b815260040160405180910390fd5b600184018054600360ff199091161790558354604051600160601b9091046001600160a01b03169086907fa5d41b970d849372be1da1481ffd78d162bfe57a7aa2fe4e5fb73481fa5ac24f90600090a3611062565b6003600185015460ff166004811115610faf57610faf614f5a565b03611029576001840154600684019060ff166004811115610fd257610fd2614f5a565b60048110610fe257610fe261563f565b01546002850154610ff3904261566b565b101561101257604051632f4dfd8760e01b815260040160405180910390fd5b6001808501805460049260ff199091169083610cf7565b6004600185015460ff16600481111561104457611044614f5a565b03611062576040516307f38c8f60e11b815260040160405180910390fd5b426002850155600184015460405186917f4e6f5cf43b95303e86aee81683df63992061723a829ee012db21dad388756b91916110a19160ff169061569b565b60405180910390a25050505050565b6001600160a01b03821660009081526008602052604081205461010081046001600160401b0316906110ed90600160481b900460ff16600a61578d565b6110f7908461579c565b61110191906157c9565b90505b92915050565b600080600783815481106111205761112061563f565b60009182526020822060036004909202019081018054919350906111469060019061566b565b815481106111565761115661563f565b600091825260208220845460058054600b909402909201945090916001600160601b0390911690811061118b5761118b61563f565b90600052602060002090600c020190508060050154826003015410156111b657506000949350505050565b80546005805490916001600160601b03169081106111d6576111d661563f565b6000918252602080832094548352600a600c9092029094010190925250604090205460ff16159392505050565b6000806000806007858154811061121c5761121c61563f565b60009182526020822060036004909202019081018054919350906112429060019061566b565b815481106112525761125261563f565b90600052602060002090600b020190506000600682600001548154811061127b5761127b61563f565b600091825260209091200154604051631c3db16d60e01b8152600481018990526001600160a01b0390911691508190631c3db16d90602401606060405180830381865afa1580156112d0573d6000803e3d6000fd5b505050506040513d601f19601f820116820180604052508101906112f491906157dd565b9199909850909650945050505050565b6005818154811061131457600080fd5b60009182526020909120600c9091020180546002820154600383015460048401546005850154600b909501546001600160601b038516965060ff600160601b9095048516959394929391921687565b60095460ff161561138757604051636f1dac1d60e01b815260040160405180910390fd5b6000806007858154811061139d5761139d61563f565b600091825260209091206004918202019150600182015460ff1660048111156113c8576113c8614f5a565b146113e657604051638794ce4b60e01b815260040160405180910390fd5b8060030184815481106113fb576113fb61563f565b6000918252602082206004600b9092020190810154909350915061141f8483615815565b60058401546006850154600286015492935090916000906114419083906157c9565b905060008660010154905060008060068960000154815481106114665761146661563f565b60009182526020909120015460405163368efae360e21b8152600481018e9052602481018d90526001600160a01b039091169150819063da3beb8c90604401602060405180830381865afa1580156114c2573d6000803e3d6000fd5b505050506040513d601f19601f820116820180604052508101906114e69190615828565b9150508060000361150257838611156114fd578395505b611522565b61150d84600261579c565b8611156115225761151f84600261579c565b95505b60048801869055865b868110156115ce57848110156115845761157d6040518061010001604052808e81526020018d815260200184815260200187815260200186815260200185815260200188815260200183815250613552565b95506115c6565b6115c66040518061010001604052808e81526020018d815260200184815260200187815260200186815260200185815260200188815260200183815250613a23565b60010161152b565b50848860050154146115e257600588018590555b5050505050505050505050565b6000546001600160a01b0316331461161a5760405163c383977560e01b815260040160405180910390fd5b600180546001600160a01b0319166001600160a01b0392909216919091179055565b611644614b29565b6005826001600160601b0316815481106116605761166061563f565b6000918252602090912060408051608081019182905292600c029091016006019060049082845b8154815260200190600101908083116116875750505050509050919050565b6000546001600160a01b031633146116d15760405163c383977560e01b815260040160405180910390fd5b60095460ff166116f45760405163b4143dc760e01b815260040160405180910390fd5b6009805460ff191690556040517fa45f47fdea8a1efdd9029a5691c7f759c32b7c698632b563573e155625d1693390600090a1565b61173282613f5b565b306001600160a01b037f00000000000000000000000000000000000000000000000000000000000000001614806117b057507f00000000000000000000000000000000000000000000000000000000000000006001600160a01b03166117a4600080516020615a4d8339815191525490565b6001600160a01b031614155b156117ce5760405163703e46dd60e11b815260040160405180910390fd5b816001600160a01b03166352d1902d6040518163ffffffff1660e01b8152600401602060405180830381865afa925050508015611828575060408051601f3d908101601f1916820190925261182591810190615828565b60015b6118505781604051630c76093760e01b81526004016118479190614d5d565b60405180910390fd5b600080516020615a4d833981519152811461188157604051632a87526960e21b815260048101829052602401611847565b600080516020615a4d8339815191528390556040516001600160a01b038416907fbc7cd75a20ee27fd9adebab32041f755214dbc6bffa90cc0225b39da2e5c2d3b90600090a281511561194a576000836001600160a01b0316836040516118e89190615841565b600060405180830381855af49150503d8060008114611923576040519150601f19603f3d011682016040523d82523d6000602084013e611928565b606091505b5050905080610b73576040516339b21b5d60e11b815260040160405180910390fd5b505b5050565b6000306001600160a01b037f0000000000000000000000000000000000000000000000000000000000000000161461199b5760405163703e46dd60e11b815260040160405180910390fd5b50600080516020615a4d83398151915290565b600781815481106119be57600080fd5b60009182526020909120600490910201805460018201546002909201546001600160601b0382169350600160601b9091046001600160a01b03169160ff80821692610100909204169085565b60008060078381548110611a2057611a2061563f565b6000918252602082206003600490920201908101805491935090611a469060019061566b565b81548110611a5657611a5661563f565b600091825260208220845460058054600b909402909201945090916001600160601b03909116908110611a8b57611a8b61563f565b90600052602060002090600c020190508060050154826003015410611b2a5782546001600160601b031660001901611acc576001600160ff1b039350611b57565b6003820154611adc90600261579c565b611ae7906001615815565b81546005805490916001600160601b0316908110611b0757611b0761563f565b90600052602060002090600c020160040154611b23919061579c565b9350611b57565b6003820154611b3a90600261579c565b611b45906001615815565b8160040154611b54919061579c565b93505b505050919050565b6000546001600160a01b03163314611b8a5760405163c383977560e01b815260040160405180910390fd5b6000836001600160a01b03168383604051611ba59190615841565b60006040518083038185875af1925050503d8060008114611be2576040519150601f19603f3d011682016040523d82523d6000602084013e611be7565b606091505b5050905080610b73576040516322092f2f60e11b815260040160405180910390fd5b60095460ff1615611c2d57604051636f1dac1d60e01b815260040160405180910390fd5b61194a338383600080613f89565b6000546001600160a01b03163314611c665760405163c383977560e01b815260040160405180910390fd5b6001600160a01b038216600081815260086020526040808220805460ff191685151590811790915590519092917f541615e167511d757a7067a700eb54431b256bb458dfdce0ac58bf2ed0aefd4491a35050565b60016000611cc6614144565b8054909150600160401b900460ff1680611ced575080546001600160401b03808416911610155b15611d0a5760405162dc149f60e41b815260040160405180910390fd5b805468ffffffffffffffffff19166001600160401b03831617600160401b178155611d3d8c8c8c8c8c8c8c8c8c8c614168565b805460ff60401b191681556040516001600160401b03831681527fc7f505b2f371ae2175ee4913f4499e1f2633a7b5936321eed1cdaeb6115181d29060200160405180910390a1505050505050505050505050565b6000546001600160a01b03163314611dbd5760405163c383977560e01b815260040160405180910390fd5b6001600160a01b038316600081815260086020908152604091829020805469ffffffffffffffffff0019166101006001600160401b03881690810260ff60481b191691909117600160481b60ff8816908102919091179092558351908152918201527fe6996b7f03e9bd02228b99d3d946932e3197f505f60542c4cfbc919441d8a4e6910160405180910390a2505050565b6001546001600160a01b03163314801590611e7557506000546001600160a01b03163314155b15611e9357604051636b29334f60e01b815260040160405180910390fd5b60095460ff1615611eb757604051636f1dac1d60e01b815260040160405180910390fd5b6009805460ff191660011790556040517f9e87fac88ff661f02d44f95383c817fece4bce600a3dab7a54406878b965e75290600090a1565b6000546001600160a01b03163314611f1a5760405163c383977560e01b815260040160405180910390fd5b60006005886001600160601b031681548110611f3857611f3861563f565b90600052602060002090600c0201905060016001600160601b0316886001600160601b031614158015611f9a575080546005805488926001600160601b0316908110611f8657611f8661563f565b90600052602060002090600c020160020154115b15611fb857604051639717078960e01b815260040160405180910390fd5b60005b600182015481101561203357866005836001018381548110611fdf57611fdf61563f565b906000526020600020015481548110611ffa57611ffa61563f565b90600052602060002090600c020160020154101561202b57604051639717078960e01b815260040160405180910390fd5b600101611fbb565b5060028101869055805460ff60601b1916600160601b88151502178155600381018590556004808201859055600582018490556120769060068301908490614b47565b50876001600160601b03167f709b1f5fda58af9a4f52dacd1ec404840a8148455700cce155a2bd8cf127ef1a8888888888886040516120ba9695949392919061585d565b60405180910390a25050505050505050565b61213260405180610160016040528060008152602001600081526020016000815260200160008152602001600081526020016000815260200160608152602001600081526020016000815260200160006001600160a01b03168152602001600081525090565b600783815481106121455761214561563f565b906000526020600020906004020160030182815481106121675761216761563f565b90600052602060002090600b0201604051806101600160405290816000820154815260200160018201548152602001600282015481526020016003820154815260200160048201548152602001600582015481526020016006820180548060200260200160405190810160405280929190818152602001828054801561221657602002820191906000526020600020905b81546001600160a01b031681526001909101906020018083116121f8575b5050509183525050600782015460208201526008820154604082015260098201546001600160a01b03166060820152600a909101546080909101529392505050565b60006007828154811061226d5761226d61563f565b600091825260209091206004918202019150600182015460ff16600481111561229857612298614f5a565b146122b657604051638794ce4b60e01b815260040160405180910390fd5b6001810154610100900460ff16156122e15760405163c977f8d360e01b815260040160405180910390fd5b60006122ec83611203565b505060018301805461010061ff001990911617905582546040518281529192508491600160601b9091046001600160a01b0316907f394027a5fa6e098a1191094d1719d6929b9abc535fcc0c8f448d6a4e756222769060200160405180910390a3815460405163188d362b60e11b81526004810185905260248101839052600160601b9091046001600160a01b03169063311a6c5690604401600060405180830381600087803b15801561239f57600080fd5b505af11580156123b3573d6000803e3d6000fd5b50505050505050565b6000546001600160a01b031633146123e75760405163c383977560e01b815260040160405180910390fd5b8660058a6001600160601b0316815481106124045761240461563f565b90600052602060002090600c020160020154111561243557604051639717078960e01b815260040160405180910390fd5b80516000036124575760405163402585f560e01b815260040160405180910390fd5b6001600160601b03891661247e57604051631ef4f64960e01b815260040160405180910390fd5b60058054600181018255600091825290600c82027f036b6384b5eca791c62761152d0c79bb0604c104a5fb6f4eb0703f3154bb3db001905b8351811015612540578381815181106124d1576124d161563f565b602002602001015160001480612504575060065484518590839081106124f9576124f961563f565b602002602001015110155b1561252257604051633d58a98960e11b815260040160405180910390fd5b61253883858381518110610af857610af861563f565b6001016124b6565b5060016000908152600a8201602052604090205460ff16612574576040516306351b3d60e31b815260040160405180910390fd5b80546001600160601b0319166001600160601b038c1617815560408051600081526020810191829052516125ac916001840191614b85565b50805460ff60601b1916600160601b8b15150217815560028101899055600381018890556004808201889055600582018790556125ef9060068301908790614b47565b50600480546040516311de995760e21b81526001600160a01b039091169163477a655c91612621918691899101615890565b600060405180830381600087803b15801561263b57600080fd5b505af115801561264f573d6000803e3d6000fd5b5050505060058b6001600160601b03168154811061266f5761266f61563f565b600091825260208083206001600c909302018201805492830181558352909120018290556040516001600160601b03808d1691908416907f550ff678017abc294b4786a99a046628d5a1eac07be0f1ea7e89543f13576ee6906126df908e908e908e908e908e908e908d906158a9565b60405180910390a35050505050505050505050565b6006818154811061270457600080fd5b6000918252602090912001546001600160a01b0316905081565b6000806000600784815481106127365761273661563f565b6000918252602090912060049091020190506003600182015460ff16600481111561276357612763614f5a565b036127bb576002810154815460058054929550916001600160601b039091169081106127915761279161563f565b600091825260209091206009600c90920201015460028201546127b49190615815565b91506127c4565b60009250600091505b50915091565b6000546001600160a01b031633146127f55760405163c383977560e01b815260040160405180910390fd5b600480546001600160a01b0319166001600160a01b0392909216919091179055565b6000612822826133c7565b34101561284257604051630e3360f160e21b815260040160405180910390fd5b6111018383600034614488565b6000546001600160a01b0316331461287a5760405163c383977560e01b815260040160405180910390fd5b600380546001600160a01b0319166001600160a01b0392909216919091179055565b6128a583611a0a565b3410156128c557604051633191f8f160e01b815260040160405180910390fd5b6000600784815481106128da576128da61563f565b6000918252602090912060049091020190506003600182015460ff16600481111561290757612907614f5a565b14612925576040516337cdefcb60e21b815260040160405180910390fd5b6003810180546000919061293b9060019061566b565b8154811061294b5761294b61563f565b90600052602060002090600b0201905060068160000154815481106129725761297261563f565b6000918252602090912001546001600160a01b031633146129a65760405163065f245f60e01b815260040160405180910390fd5b8154815460038401805460018101825560009182526020909120600580546001600160601b0390951694600b90930290910191849081106129e9576129e961563f565b90600052602060002090600c020160050154846003015410612af2576005836001600160601b031681548110612a2157612a2161563f565b60009182526020909120600c9091020154600580546001600160601b0390921694509084908110612a5457612a5461563f565b60009182526020808320858452600a600c90930201919091019052604090205460ff16612a8057600191505b84546001600160601b03848116911614612af257845460038601546001600160601b0390911690612ab39060019061566b565b6040516001600160601b03861681528a907f736e3f52761298c8c0823e1ebf482ed3c5ecb304f743d2d91a7c006e8e8d7a1f9060200160405180910390a45b84546001600160601b0319166001600160601b038416908117865560018601805460ff1916905542600287015560058054600092908110612b3557612b3561563f565b90600052602060002090600c02019050806004015434612b5591906157c9565b826003018190555061271081600301548260020154612b74919061579c565b612b7e91906157c9565b60018084019190915534600284015583835560045460038801546001600160a01b039091169163d09f392d918c91612bb59161566b565b6040516001600160e01b031960e085901b16815260048101929092526024820152604401600060405180830381600087803b158015612bf357600080fd5b505af1158015612c07573d6000803e3d6000fd5b505086548454149150612ced90505784546003870154612c299060019061566b565b83546040519081528b907fcbe7939a71f0b369c7471d760a0a99b60b7bb010ee0406cba8a46679d1ea77569060200160405180910390a46006826000015481548110612c7757612c7761563f565b60009182526020909120015460038301546040516302dbb79560e61b81526001600160a01b039092169163b6ede54091612cba918d918d918d9190600401615928565b600060405180830381600087803b158015612cd457600080fd5b505af1158015612ce8573d6000803e3d6000fd5b505050505b8554604051600160601b9091046001600160a01b0316908a907f9c9b64db9e130f48381bf697abf638e73117dbfbfd7a4484f2da3ba188f4187d90600090a3887f4e6f5cf43b95303e86aee81683df63992061723a829ee012db21dad388756b916000604051612d5d919061569b565b60405180910390a2505050505050505050565b60008060078381548110612d8657612d8661563f565b906000526020600020906004020190508060030160018260030180549050612dae919061566b565b81548110612dbe57612dbe61563f565b90600052602060002090600b020160030154915050919050565b6000546001600160a01b03163314612e035760405163c383977560e01b815260040160405180910390fd5b6006805460018101825560009182527ff652222313e28459528d920b65115c16c04f3efc82aaedc97be59f3f377c0d3f810180546001600160a01b0319166001600160a01b0385169081179091556040519192909183917f44063d258760b98116d53815adbc906a56b3563e540148cc0fc2457f83b5eeb291a35050565b600060078381548110612e9657612e9661563f565b90600052602060002090600402019050600060018260030180549050612ebc919061566b565b90506000826003018281548110612ed557612ed561563f565b600091825260208220600b909102019150600184015460ff166004811115612eff57612eff614f5a565b14612f1d57604051638285c4ef60e01b815260040160405180910390fd5b60006006826000015481548110612f3657612f3661563f565b6000918252602082200154600a8401546001600160a01b039091169250905b8681108015612f6b575060038401546006850154105b156131735760006001600160a01b03841663d2b8035a8a84612f8c81615958565b9550612f989087615815565b6040516001600160e01b031960e085901b168152600481019290925260248201526044016020604051808303816000875af1158015612fdb573d6000803e3d6000fd5b505050506040513d601f19601f82011682018060405250810190612fff9190615971565b90506001600160a01b0381166130155750612f55565b6004805460018701546040516310f0b12f60e11b81526001600160a01b03909216926321e1625e9261304b92869290910161598e565b600060405180830381600087803b15801561306557600080fd5b505af1158015613079573d6000803e3d6000fd5b50505060068601546040518b92506001600160a01b038416917f6119cf536152c11e0a9a6c22f3953ce4ecc93ee54fa72ffa326ffabded21509b916130c6918b8252602082015260400190565b60405180910390a36006850180546001810182556000828152602090200180546001600160a01b0319166001600160a01b038416179055600386015490540361316d5760048054604051632e96bc2360e11b81529182018b9052602482018890526001600160a01b031690635d2d784690604401600060405180830381600087803b15801561315457600080fd5b505af1158015613168573d6000803e3d6000fd5b505050505b50612f55565b8084600a0160008282546131879190615815565b90915550505050505050505050565b60006131db826103da86868080601f0160208091040260200160405190810160405280939291908181526020018383808284376000920191909152506133c792505050565b949350505050565b6000546001600160a01b0316331461320e5760405163c383977560e01b815260040160405180910390fd5b600080546001600160a01b0319166001600160a01b0392909216919091179055565b6003600061323c614144565b8054909150600160401b900460ff1680613263575080546001600160401b03808416911610155b156132805760405162dc149f60e41b815260040160405180910390fd5b805468ffffffffffffffffff19166001600160401b038316908117600160401b1760ff60401b191682556040519081527fc7f505b2f371ae2175ee4913f4499e1f2633a7b5936321eed1cdaeb6115181d29060200160405180910390a15050565b6001600160a01b03821660009081526008602052604081205460ff1661331a5760405163e51cf7bf60e01b815260040160405180910390fd5b613325858585613196565b82101561334557604051630e3360f160e21b815260040160405180910390fd5b61335a6001600160a01b03841633308561476f565b613377576040516312171d8360e31b815260040160405180910390fd5b6133bb8686868080601f0160208091040260200160405190810160405280939291908181526020018383808284376000920191909152508892508791506144889050565b90505b95945050505050565b60008060006133d58461484b565b5091509150806005836001600160601b0316815481106133f7576133f761563f565b90600052602060002090600c0201600401546131db919061579c565b6004546001600160a01b0316331461343e57604051639d6cab9960e01b815260040160405180910390fd5b61344c848484846001613f89565b5050505050565b6000600782815481106134685761346861563f565b600091825260209091206003600490920201015492915050565b60006005836001600160601b0316815481106134a0576134a061563f565b60009182526020808320948352600c91909102909301600a0190925250604090205460ff16919050565b806005846001600160601b0316815481106134e7576134e761563f565b60009182526020808320868452600c92909202909101600a0190526040808220805460ff19169315159390931790925590518215159184916001600160601b038716917fb47629acdf64971062d40984f77d3dee212d735b11e3e8c7a4222d9f0572cc7991a4505050565b600080600783600001518154811061356c5761356c61563f565b906000526020600020906004020190506000816003018460200151815481106135975761359761563f565b90600052602060002090600b02019050600060068260000154815481106135c0576135c061563f565b60009182526020808320919091015487519188015160e089015160808a015160a08b01516040516333ac937b60e11b8152600481019690965260248601939093526044850191909152606484015260848301526001600160a01b03169250829063675926f69060a401602060405180830381865afa158015613646573d6000803e3d6000fd5b505050506040513d601f19601f8201168201806040525081019061366a9190615828565b905061271081111561367b57506127105b600061271061368a838261566b565b8560010154613699919061579c565b6136a391906157c9565b9050808760c0018181516136b79190615815565b90525060e08701516006850180546000929081106136d7576136d761563f565b6000918252602090912001546004805460405163965af6c760e01b81526001600160a01b03938416945092169163965af6c79161371891859187910161598e565b600060405180830381600087803b15801561373257600080fd5b505af1158015613746573d6000803e3d6000fd5b505060048054604051633c85b79360e21b81526001600160a01b03909116935063f216de4c925061377b91859187910161598e565b600060405180830381600087803b15801561379557600080fd5b505af11580156137a9573d6000803e3d6000fd5b50505050602088015188516001600160a01b0383167f8975b837fe0d18616c65abb8b843726a32b552ee4feca009944fa658bbb282e7866137e9876159a7565b60098b015460405161380b9392916000916001600160a01b03909116906159c3565b60405180910390a48751602089015160e08a015160405163ba66fde760e01b81526004810193909352602483019190915260448201526001600160a01b0385169063ba66fde790606401602060405180830381865afa158015613872573d6000803e3d6000fd5b505050506040513d601f19601f82011682018060405250810190613896919061567e565b6138fc576004805460405163b5d69e9960e01b81526001600160a01b039091169163b5d69e99916138c991859101614d5d565b600060405180830381600087803b1580156138e357600080fd5b505af11580156138f7573d6000803e3d6000fd5b505050505b6001886060015161390d919061566b565b8860e0015114801561392157506040880151155b15613a125760098501546001600160a01b031661396a576000805460028701546040516001600160a01b039092169281156108fc029290818181858888f1935050505050613991565b6000546002860154600987015461398f926001600160a01b03918216929116906148d2565b505b60005460c08901516002546139b4926001600160a01b03918216929116906148d2565b506020880151885160c08a0151600288015460098901546040517f6cecfd3ec56289ccb16e30eb194f9a87dfdc12630b9abbc31fc69af5a0b0eaf493613a0993909290916001600160a01b03909116906159e7565b60405180910390a35b50505060c090940151949350505050565b60006007826000015181548110613a3c57613a3c61563f565b90600052602060002090600402019050600081600301836020015181548110613a6757613a6761563f565b90600052602060002090600b0201905060006006826000015481548110613a9057613a9061563f565b6000918252602080832090910154865191870151606088015160e08901516001600160a01b039093169550859363675926f693909291613acf91615a06565b60808a015160a08b01516040516001600160e01b031960e088901b1681526004810195909552602485019390935260448401919091526064830152608482015260a401602060405180830381865afa158015613b2f573d6000803e3d6000fd5b505050506040513d601f19601f82011682018060405250810190613b539190615828565b9050612710811115613b6457506127105b60008360060186606001518760e00151613b7e9190615a06565b81548110613b8e57613b8e61563f565b600091825260208220015460018601546001600160a01b03909116925061271090613bba90859061579c565b613bc491906157c9565b6004805460405163965af6c760e01b81529293506001600160a01b03169163965af6c791613bf691869186910161598e565b600060405180830381600087803b158015613c1057600080fd5b505af1158015613c24573d6000803e3d6000fd5b505060048054604051636624192f60e01b81526001600160a01b039091169350636624192f9250613c5791869101614d5d565b602060405180830381865afa158015613c74573d6000803e3d6000fd5b505050506040513d601f19601f82011682018060405250810190613c98919061567e565b613cb557600254613cb3906001600160a01b031683836148d2565b505b60006127108489604001518a60c00151613ccf91906157c9565b613cd9919061579c565b613ce391906157c9565b905080866008016000828254613cf99190615815565b925050819055506000612710858a604001518960020154613d1a91906157c9565b613d24919061579c565b613d2e91906157c9565b905080876007016000828254613d449190615815565b9091555050600254613d60906001600160a01b031685846148d2565b5060098701546001600160a01b0316613d9e576040516001600160a01b0385169082156108fc029083906000818181858888f1935050505050613db9565b6009870154613db7906001600160a01b031685836148d2565b505b6020890151895160098901546040516001600160a01b03888116927f8975b837fe0d18616c65abb8b843726a32b552ee4feca009944fa658bbb282e792613e09928c928a928a92909116906159c3565b60405180910390a4600189606001516002613e24919061579c565b613e2e919061566b565b8960e0015103613f5057600087600801548a60c00151613e4e919061566b565b9050600088600701548960020154613e66919061566b565b905081151580613e7557508015155b156115e2578115613e9f57600054600254613e9d916001600160a01b039182169116846148d2565b505b8015613f065760098901546001600160a01b0316613ee557600080546040516001600160a01b039091169183156108fc02918491818181858888f1935050505050613f06565b60005460098a0154613f04916001600160a01b039182169116836148d2565b505b60208b01518b5160098b01546040517f6cecfd3ec56289ccb16e30eb194f9a87dfdc12630b9abbc31fc69af5a0b0eaf4916126df91879187916001600160a01b03909116906159e7565b505050505050505050565b6000546001600160a01b03163314613f865760405163c383977560e01b815260040160405180910390fd5b50565b60006001600160601b0385161580613fac57506005546001600160601b03861610155b15613fc457613fbc82600461499f565b5060006133be565b8315801590613fff57506005856001600160601b031681548110613fea57613fea61563f565b90600052602060002090600c02016002015484105b1561400f57613fbc82600561499f565b60048054604051630a5861b960e41b81526001600160a01b03898116938201939093526001600160601b03881660248201526044810187905285151560648201526000928392839291169063a5861b90906084016060604051808303816000875af1158015614082573d6000803e3d6000fd5b505050506040513d601f19601f820116820180604052508101906140a69190615a1a565b9194509250905060008160088111156140c1576140c1614f5a565b146140dc576140d0858261499f565b600093505050506133be565b8215614109576002546140fa906001600160a01b03168a308661476f565b614109576140d085600161499f565b811561413557600254614126906001600160a01b03168a846148d2565b614135576140d085600261499f565b50600198975050505050505050565b7ff0c57e16840df040f15088dc2f81fe391c3923bec73e23a9662efc9c229c6a0e90565b614170614ae8565b600080546001600160a01b03199081166001600160a01b038d81169190911783556001805483168d83161781556002805484168d84161781556003805485168d85161790556004805485168785161790556006805481875291820190557ff652222313e28459528d920b65115c16c04f3efc82aaedc97be59f3f377c0d40018054909316918a1691821790925560405190927f44063d258760b98116d53815adbc906a56b3563e540148cc0fc2457f83b5eeb291a36005805460010181556000908152600480546040516311de995760e21b81526001600160a01b039091169263477a655c9261426292879101615890565b600060405180830381600087803b15801561427c57600080fd5b505af1158015614290573d6000803e3d6000fd5b5050600580546001810182556000918252600c027f036b6384b5eca791c62761152d0c79bb0604c104a5fb6f4eb0703f3154bb3db00180546001600160601b0319168155604080518381526020810190915290935091505080516142fe916001840191602090910190614b85565b50805460ff60601b1916600160601b87151502178155845160028201556020850151600382015560408501516004808301919091556060860151600583015561434d9060068301908690614b47565b50600480546040516311de995760e21b81526001600160a01b039091169163477a655c9161438091600191889101615890565b600060405180830381600087803b15801561439a57600080fd5b505af11580156143ae573d6000803e3d6000fd5b5060009250600191506143be9050565b6040519080825280602002602001820160405280156143e7578160200160208202803683370190505b5090506001816000815181106143ff576143ff61563f565b60209081029190910181019190915282548751918801516040808a015160608b015191516001600160601b03909416946001947f550ff678017abc294b4786a99a046628d5a1eac07be0f1ea7e89543f13576ee694614465948f9491928e908b906158a9565b60405180910390a361447a60018060016134ca565b505050505050505050505050565b60008060006144968661484b565b92505091506005826001600160601b0316815481106144b7576144b761563f565b60009182526020808320848452600a600c90930201919091019052604090205460ff166144f75760405163b34eb75d60e01b815260040160405180910390fd5b600780546001810182556000918252600160601b33026001600160601b03851617600482027fa66cc928b5edb82af9bd49922954155ab7b0942694bea4ce44661d9a8736c6888101918255427fa66cc928b5edb82af9bd49922954155ab7b0942694bea4ce44661d9a8736c68a9091015560068054929650909291849081106145825761458261563f565b6000918252602082200154600580546001600160a01b039092169350906001600160601b0387169081106145b8576145b861563f565b60009182526020808320600387018054600181018255908552918420600c909302019350600b0201906001600160a01b038a1615614603576145fe8a84600401546110b0565b614609565b82600401545b9050614615818a6157c9565b6003808401919091558683558301546002840154612710916146369161579c565b61464091906157c9565b6001830155600282018990556009820180546001600160a01b0319166001600160a01b038c8116919091179091556004805460405163d09f392d60e01b81529182018b9052600060248301529091169063d09f392d90604401600060405180830381600087803b1580156146b357600080fd5b505af11580156146c7573d6000803e3d6000fd5b50505050836001600160a01b031663b6ede540898e8e86600301546040518563ffffffff1660e01b81526004016147019493929190615928565b600060405180830381600087803b15801561471b57600080fd5b505af115801561472f573d6000803e3d6000fd5b50506040513392508a91507f141dfc18aa6a56fc816f44f0e9e2f1ebc92b15ab167770e17db5b084c10ed99590600090a350505050505050949350505050565b6040516001600160a01b038481166024830152838116604483015260648201839052600091829182919088169060840160408051601f198184030181529181526020820180516001600160e01b03166323b872dd60e01b179052516147d49190615841565b6000604051808303816000865af19150503d8060008114614811576040519150601f19603f3d011682016040523d82523d6000602084013e614816565b606091505b5091509150818015614840575080511580614840575080806020019051810190614840919061567e565b979650505050505050565b600080600060408451106148c0575050506020810151604082015160608301516001600160601b038316158061488c57506005546001600160601b03841610155b1561489657600192505b816000036148a357600391505b8015806148b257506006548110155b156148bb575060015b6148cb565b506001915060039050815b9193909250565b6000806000856001600160a01b031685856040516024016148f492919061598e565b60408051601f198184030181529181526020820180516001600160e01b031663a9059cbb60e01b179052516149299190615841565b6000604051808303816000865af19150503d8060008114614966576040519150601f19603f3d011682016040523d82523d6000602084013e61496b565b606091505b5091509150818015614995575080511580614995575080806020019051810190614995919061567e565b9695505050505050565b60018260018111156149b3576149b3614f5a565b036149bc575050565b60018160088111156149d0576149d0614f5a565b036149ee57604051630f323ed960e11b815260040160405180910390fd5b6002816008811115614a0257614a02614f5a565b03614a205760405163e45e13a360e01b815260040160405180910390fd5b6003816008811115614a3457614a34614f5a565b03614a5257604051631d91d0ed60e31b815260040160405180910390fd5b6004816008811115614a6657614a66614f5a565b03614a84576040516321f1774b60e11b815260040160405180910390fd5b6005816008811115614a9857614a98614f5a565b03614ab657604051630caac6b360e31b815260040160405180910390fd5b6008816008811115614aca57614aca614f5a565b0361194c57604051633e57962f60e21b815260040160405180910390fd5b614af0614b0f565b614b0d57604051631afcd79f60e31b815260040160405180910390fd5b565b6000614b19614144565b54600160401b900460ff16919050565b60405180608001604052806004906020820280368337509192915050565b8260048101928215614b75579160200282015b82811115614b75578251825591602001919060010190614b5a565b50614b81929150614bbf565b5090565b828054828255906000526020600020908101928215614b755791602002820182811115614b75578251825591602001919060010190614b5a565b5b80821115614b815760008155600101614bc0565b6001600160a01b0381168114613f8657600080fd5b600060208284031215614bfb57600080fd5b8135614c0681614bd4565b9392505050565b80356001600160601b0381168114614c2457600080fd5b919050565b634e487b7160e01b600052604160045260246000fd5b604051601f8201601f191681016001600160401b0381118282101715614c6757614c67614c29565b604052919050565b600082601f830112614c8057600080fd5b813560206001600160401b03821115614c9b57614c9b614c29565b8160051b614caa828201614c3f565b9283528481018201928281019087851115614cc457600080fd5b83870192505b8483101561484057823582529183019190830190614cca565b8015158114613f8657600080fd5b8035614c2481614ce3565b600080600060608486031215614d1157600080fd5b614d1a84614c0d565b925060208401356001600160401b03811115614d3557600080fd5b614d4186828701614c6f565b9250506040840135614d5281614ce3565b809150509250925092565b6001600160a01b0391909116815260200190565b600060208284031215614d8357600080fd5b5035919050565b60008060408385031215614d9d57600080fd5b8235614da881614bd4565b946020939093013593505050565b600080600060608486031215614dcb57600080fd5b505081359360208301359350604090920135919050565b8035614c2481614bd4565b600060208284031215614dff57600080fd5b61110182614c0d565b8060005b6004811015610b73578151845260209384019390910190600101614e0c565b608081016111048284614e08565b600082601f830112614e4a57600080fd5b81356001600160401b03811115614e6357614e63614c29565b614e76601f8201601f1916602001614c3f565b818152846020838601011115614e8b57600080fd5b816020850160208301376000918101602001919091529392505050565b60008060408385031215614ebb57600080fd5b8235614ec681614bd4565b915060208301356001600160401b03811115614ee157600080fd5b614eed85828601614e39565b9150509250929050565b60005b83811015614f12578181015183820152602001614efa565b50506000910152565b60008151808452614f33816020860160208601614ef7565b601f01601f19169290920160200192915050565b6020815260006111016020830184614f1b565b634e487b7160e01b600052602160045260246000fd5b60058110614f8e57634e487b7160e01b600052602160045260246000fd5b9052565b6001600160601b03861681526001600160a01b038516602082015260a08101614fbe6040830186614f70565b9215156060820152608001529392505050565b600080600060608486031215614fe657600080fd5b8335614ff181614bd4565b92506020840135915060408401356001600160401b0381111561501357600080fd5b61501f86828701614e39565b9150509250925092565b6000806040838503121561503c57600080fd5b614da883614c0d565b6000806040838503121561505857600080fd5b823561506381614bd4565b9150602083013561507381614ce3565b809150509250929050565b600082601f83011261508f57600080fd5b604051608081018181106001600160401b03821117156150b1576150b1614c29565b6040528060808401858111156150c657600080fd5b845b818110156150e05780358352602092830192016150c8565b509195945050505050565b6000806000806000806000806000806102008b8d03121561510b57600080fd5b8a3561511681614bd4565b995060208b013561512681614bd4565b985060408b013561513681614bd4565b975060608b013561514681614bd4565b965060808b013561515681614bd4565b955061516460a08c01614cf1565b94506151738c60c08d0161507e565b93506151838c6101408d0161507e565b92506101c08b01356001600160401b0381111561519f57600080fd5b6151ab8d828e01614e39565b9250506151bb6101e08c01614de2565b90509295989b9194979a5092959850565b6000806000606084860312156151e157600080fd5b83356151ec81614bd4565b925060208401356001600160401b038116811461520857600080fd5b9150604084013560ff81168114614d5257600080fd5b6000806000806000806000610140888a03121561523a57600080fd5b61524388614c0d565b9650602088013561525381614ce3565b955060408801359450606088013593506080880135925060a0880135915061527e8960c08a0161507e565b905092959891949750929550565b6000806040838503121561529f57600080fd5b50508035926020909101359150565b60008151808452602080850194506020840160005b838110156152e85781516001600160a01b0316875295820195908201906001016152c3565b509495945050505050565b6020815281516020820152602082015160408201526040820151606082015260608201516080820152608082015160a082015260a082015160c0820152600060c08301516101608060e085015261534e6101808501836152ae565b60e08601516101008681019190915286015161012080870191909152860151909250610140615387818701836001600160a01b03169052565b959095015193019290925250919050565b60008060008060008060008060006101808a8c0312156153b757600080fd5b6153c08a614c0d565b985060208a01356153d081614ce3565b975060408a0135965060608a0135955060808a0135945060a08a013593506153fb8b60c08c0161507e565b92506101408a01356001600160401b038082111561541857600080fd5b6154248d838e01614e39565b93506101608c013591508082111561543b57600080fd5b506154488c828d01614c6f565b9150509295985092959850929598565b6000806040838503121561546b57600080fd5b8235915060208301356001600160401b03811115614ee157600080fd5b60008060006060848603121561549d57600080fd5b833592506020840135915060408401356001600160401b0381111561501357600080fd5b60008083601f8401126154d357600080fd5b5081356001600160401b038111156154ea57600080fd5b60208301915083602082850101111561550257600080fd5b9250929050565b60008060006040848603121561551e57600080fd5b83356001600160401b0381111561553457600080fd5b615540868287016154c1565b9094509250506020840135614d5281614bd4565b60008060008060006080868803121561556c57600080fd5b8535945060208601356001600160401b0381111561558957600080fd5b615595888289016154c1565b90955093505060408601356155a981614bd4565b949793965091946060013592915050565b6000602082840312156155cc57600080fd5b81356001600160401b038111156155e257600080fd5b6131db84828501614e39565b6000806000806080858703121561560457600080fd5b843561560f81614bd4565b935061561d60208601614c0d565b925060408501359150606085013561563481614ce3565b939692955090935050565b634e487b7160e01b600052603260045260246000fd5b634e487b7160e01b600052601160045260246000fd5b8181038181111561110457611104615655565b60006020828403121561569057600080fd5b8151614c0681614ce3565b602081016111048284614f70565b600181815b808511156156e45781600019048211156156ca576156ca615655565b808516156156d757918102915b93841c93908002906156ae565b509250929050565b6000826156fb57506001611104565b8161570857506000611104565b816001811461571e576002811461572857615744565b6001915050611104565b60ff84111561573957615739615655565b50506001821b611104565b5060208310610133831016604e8410600b8410161715615767575081810a611104565b61577183836156a9565b806000190482111561578557615785615655565b029392505050565b600061110160ff8416836156ec565b808202811582820484141761110457611104615655565b634e487b7160e01b600052601260045260246000fd5b6000826157d8576157d86157b3565b500490565b6000806000606084860312156157f257600080fd5b83519250602084015161580481614ce3565b6040850151909250614d5281614ce3565b8082018082111561110457611104615655565b60006020828403121561583a57600080fd5b5051919050565b60008251615853818460208701614ef7565b9190910192915050565b600061012082019050871515825286602083015285604083015284606083015283608083015261484060a0830184614e08565b8281526040602082015260006131db6040830184614f1b565b60006101408083018a1515845260208a60208601528960408601528860608601528760808601526158dd60a0860188614e08565b610120850192909252845190819052610160840191602086019160005b81811015615916578351855293820193928201926001016158fa565b50929c9b505050505050505050505050565b8481528360208201526080604082015260006159476080830185614f1b565b905082606083015295945050505050565b60006001820161596a5761596a615655565b5060010190565b60006020828403121561598357600080fd5b8151614c0681614bd4565b6001600160a01b03929092168252602082015260400190565b6000600160ff1b82016159bc576159bc615655565b5060000390565b938452602084019290925260408301526001600160a01b0316606082015260800190565b92835260208301919091526001600160a01b0316604082015260600190565b600082615a1557615a156157b3565b500690565b600080600060608486031215615a2f57600080fd5b8351925060208401519150604084015160098110614d5257600080fdfe360894a13ba1a3210667c828492db98dca3e2076cc3735a920a3ca505d382bbca26469706673582212209d3f5f848e5c977c06ce8a04a67787edb996e48a4f1a486ddef204a4e19f4a0664736f6c63430008180033",
  "devdoc": {
    "errors": {
      "AlreadyInitialized()": [
        {
          "details": "The contract is already initialized."
        }
      ],
      "InvalidImplementation(address)": [
        {
          "details": "The `implementation` is not UUPS-compliant"
        }
      ],
      "NotInitializing()": [
        {
          "details": "The contract is not initializing."
        }
      ],
      "UUPSUnauthorizedCallContext()": [
        {
          "details": "The call is from an unauthorized context."
        }
      ],
      "UUPSUnsupportedProxiableUUID(bytes32)": [
        {
          "details": "The storage `slot` is unsupported as a UUID."
        }
      ]
    },
    "events": {
      "AcceptedFeeToken(address,bool)": {
        "details": "To be emitted when an ERC20 token is added or removed as a method to pay fees.",
        "params": {
          "_accepted": "Whether the token is accepted or not.",
          "_token": "The ERC20 token."
        }
      },
      "DisputeCreation(uint256,address)": {
        "details": "To be emitted when a dispute is created.",
        "params": {
          "_arbitrable": "The contract which created the dispute.",
          "_disputeID": "The identifier of the dispute in the Arbitrator contract."
        }
      },
      "Initialized(uint64)": {
        "details": "Triggered when the contract has been initialized or reinitialized."
      },
      "NewCurrencyRate(address,uint64,uint8)": {
        "details": "To be emitted when the fee for a particular ERC20 token is updated.",
        "params": {
          "_feeToken": "The ERC20 token.",
          "_rateDecimals": "The new decimals of the fee token rate.",
          "_rateInEth": "The new rate of the fee token in ETH."
        }
      },
      "Ruling(address,uint256,uint256)": {
        "details": "To be raised when a ruling is given.",
        "params": {
          "_arbitrable": "The arbitrable receiving the ruling.",
          "_disputeID": "The identifier of the dispute in the Arbitrator contract.",
          "_ruling": "The ruling which was given."
        }
      },
      "Upgraded(address)": {
        "details": "Emitted when the `implementation` has been successfully upgraded.",
        "params": {
          "newImplementation": "Address of the new implementation the proxy is now forwarding calls to."
        }
      }
    },
    "kind": "dev",
    "methods": {
      "addNewDisputeKit(address)": {
        "details": "Add a new supported dispute kit module to the court.",
        "params": {
          "_disputeKitAddress": "The address of the dispute kit contract."
        }
      },
      "appeal(uint256,uint256,bytes)": {
        "details": "Appeals the ruling of a specified dispute. Note: Access restricted to the Dispute Kit for this `disputeID`.",
        "params": {
          "_disputeID": "The ID of the dispute.",
          "_extraData": "Extradata for the dispute. Can be required during court jump.",
          "_numberOfChoices": "Number of choices for the dispute. Can be required during court jump."
        }
      },
      "appealCost(uint256)": {
        "details": "Gets the cost of appealing a specified dispute.",
        "params": {
          "_disputeID": "The ID of the dispute."
        },
        "returns": {
          "cost": "The appeal cost."
        }
      },
      "appealPeriod(uint256)": {
        "details": "Gets the start and the end of a specified dispute's current appeal period.",
        "params": {
          "_disputeID": "The ID of the dispute."
        },
        "returns": {
          "end": "The end of the appeal period.",
          "start": "The start of the appeal period."
        }
      },
      "arbitrationCost(bytes)": {
        "details": "Compute the cost of arbitration denominated in ETH.      It is recommended not to increase it often, as it can be highly time and gas consuming for the arbitrated contracts to cope with fee augmentation.",
        "params": {
          "_extraData": "Additional info about the dispute. We use it to pass the ID of the dispute's court (first 32 bytes), the minimum number of jurors required (next 32 bytes) and the ID of the specific dispute kit (last 32 bytes)."
        },
        "returns": {
          "cost": "The arbitration cost in ETH."
        }
      },
      "arbitrationCost(bytes,address)": {
        "details": "Compute the cost of arbitration denominated in `_feeToken`.      It is recommended not to increase it often, as it can be highly time and gas consuming for the arbitrated contracts to cope with fee augmentation.",
        "params": {
          "_extraData": "Additional info about the dispute. We use it to pass the ID of the dispute's court (first 32 bytes), the minimum number of jurors required (next 32 bytes) and the ID of the specific dispute kit (last 32 bytes).",
          "_feeToken": "The ERC20 token used to pay fees."
        },
        "returns": {
          "cost": "The arbitration cost in `_feeToken`."
        }
      },
      "changeAcceptedFeeTokens(address,bool)": {
        "details": "Changes the supported fee tokens.",
        "params": {
          "_accepted": "Whether the token is supported or not as a method of fee payment.",
          "_feeToken": "The fee token."
        }
      },
      "changeCurrencyRates(address,uint64,uint8)": {
        "details": "Changes the currency rate of a fee token.",
        "params": {
          "_feeToken": "The fee token.",
          "_rateDecimals": "The new decimals of the fee token rate.",
          "_rateInEth": "The new rate of the fee token in ETH."
        }
      },
      "changeGovernor(address)": {
        "details": "Changes the `governor` storage variable.",
        "params": {
          "_governor": "The new value for the `governor` storage variable."
        }
      },
      "changeGuardian(address)": {
        "details": "Changes the `guardian` storage variable.",
        "params": {
          "_guardian": "The new value for the `guardian` storage variable."
        }
      },
      "changeJurorProsecutionModule(address)": {
        "details": "Changes the `jurorProsecutionModule` storage variable.",
        "params": {
          "_jurorProsecutionModule": "The new value for the `jurorProsecutionModule` storage variable."
        }
      },
      "changePinakion(address)": {
        "details": "Changes the `pinakion` storage variable.",
        "params": {
          "_pinakion": "The new value for the `pinakion` storage variable."
        }
      },
      "changeSortitionModule(address)": {
        "details": "Changes the `_sortitionModule` storage variable. Note that the new module should be initialized for all courts.",
        "params": {
          "_sortitionModule": "The new value for the `sortitionModule` storage variable."
        }
      },
      "constructor": {
        "custom:oz-upgrades-unsafe-allow": "constructor"
      },
      "createCourt(uint96,bool,uint256,uint256,uint256,uint256,uint256[4],bytes,uint256[])": {
        "details": "Creates a court under a specified parent court.",
        "params": {
          "_alpha": "The `alpha` property value of the court.",
          "_feeForJuror": "The `feeForJuror` property value of the court.",
          "_hiddenVotes": "The `hiddenVotes` property value of the court.",
          "_jurorsForCourtJump": "The `jurorsForCourtJump` property value of the court.",
          "_minStake": "The `minStake` property value of the court.",
          "_parent": "The `parent` property value of the court.",
          "_sortitionExtraData": "Extra data for sortition module.",
          "_supportedDisputeKits": "Indexes of dispute kits that this court will support.",
          "_timesPerPeriod": "The `timesPerPeriod` property value of the court."
        }
      },
      "createDispute(uint256,bytes)": {
        "details": "Create a dispute and pay for the fees in the native currency, typically ETH.      Must be called by the arbitrable contract.      Must pay at least arbitrationCost(_extraData).",
        "params": {
          "_extraData": "Additional info about the dispute. We use it to pass the ID of the dispute's court (first 32 bytes), the minimum number of jurors required (next 32 bytes) and the ID of the specific dispute kit (last 32 bytes).",
          "_numberOfChoices": "The number of choices the arbitrator can choose from in this dispute."
        },
        "returns": {
          "disputeID": "The identifier of the dispute created."
        }
      },
      "createDispute(uint256,bytes,address,uint256)": {
        "details": "Create a dispute and pay for the fees in a supported ERC20 token.      Must be called by the arbitrable contract.      Must pay at least arbitrationCost(_extraData).",
        "params": {
          "_extraData": "Additional info about the dispute. We use it to pass the ID of the dispute's court (first 32 bytes), the minimum number of jurors required (next 32 bytes) and the ID of the specific dispute kit (last 32 bytes).",
          "_feeAmount": "Amount of the ERC20 token used to pay fees.",
          "_feeToken": "The ERC20 token used to pay fees.",
          "_numberOfChoices": "The number of choices the arbitrator can choose from in this dispute."
        },
        "returns": {
          "disputeID": "The identifier of the dispute created."
        }
      },
      "currentRuling(uint256)": {
        "details": "Gets the current ruling of a specified dispute.",
        "params": {
          "_disputeID": "The ID of the dispute."
        },
        "returns": {
          "overridden": "Whether the ruling was overridden by appeal funding or not.",
          "ruling": "The current ruling.",
          "tied": "Whether it's a tie or not."
        }
      },
      "draw(uint256,uint256)": {
        "details": "Draws jurors for the dispute. Can be called in parts.",
        "params": {
          "_disputeID": "The ID of the dispute.",
          "_iterations": "The number of iterations to run."
        }
      },
      "enableDisputeKits(uint96,uint256[],bool)": {
        "details": "Adds/removes court's support for specified dispute kits.",
        "params": {
          "_courtID": "The ID of the court.",
          "_disputeKitIDs": "The IDs of dispute kits which support should be added/removed.",
          "_enable": "Whether add or remove the dispute kits from the court."
        }
      },
      "execute(uint256,uint256,uint256)": {
        "details": "Distribute the PNKs at stake and the dispute fees for the specific round of the dispute. Can be called in parts. Note: Reward distributions are forbidden during pause.",
        "params": {
          "_disputeID": "The ID of the dispute.",
          "_iterations": "The number of iterations to run.",
          "_round": "The appeal round."
        }
      },
      "executeGovernorProposal(address,uint256,bytes)": {
        "details": "Allows the governor to call anything on behalf of the contract.",
        "params": {
          "_amount": "The value sent with the call.",
          "_data": "The data sent with the call.",
          "_destination": "The destination of the call."
        }
      },
      "executeRuling(uint256)": {
        "details": "Executes a specified dispute's ruling.",
        "params": {
          "_disputeID": "The ID of the dispute."
        }
      },
      "getNumberOfVotes(uint256)": {
        "details": "Gets the number of votes permitted for the specified dispute in the latest round.",
        "params": {
          "_disputeID": "The ID of the dispute."
        }
      },
      "getTimesPerPeriod(uint96)": {
        "details": "Gets the timesPerPeriod array for a given court.",
        "params": {
          "_courtID": "The ID of the court to get the times from."
        },
        "returns": {
          "timesPerPeriod": "The timesPerPeriod array for the given court."
        }
      },
      "initialize(address,address,address,address,address,bool,uint256[4],uint256[4],bytes,address)": {
        "details": "Initializer (constructor equivalent for upgradable contracts).",
        "params": {
          "_courtParameters": "Numeric parameters of General court (minStake, alpha, feeForJuror and jurorsForCourtJump respectively).",
          "_disputeKit": "The address of the default dispute kit.",
          "_governor": "The governor's address.",
          "_guardian": "The guardian's address.",
          "_hiddenVotes": "The `hiddenVotes` property value of the general court.",
          "_jurorProsecutionModule": "The address of the juror prosecution module.",
          "_pinakion": "The address of the token contract.",
          "_sortitionExtraData": "The extra data for sortition module.",
          "_sortitionModuleAddress": "The sortition module responsible for sortition of the jurors.",
          "_timesPerPeriod": "The `timesPerPeriod` property value of the general court."
        }
      },
      "isDisputeKitJumping(uint256)": {
        "details": "Returns true if the dispute kit will be switched to a parent DK.",
        "params": {
          "_disputeID": "The ID of the dispute."
        },
        "returns": {
          "_0": "Whether DK will be switched or not."
        }
      },
      "passPeriod(uint256)": {
        "details": "Passes the period of a specified dispute.",
        "params": {
          "_disputeID": "The ID of the dispute."
        }
      },
      "pause()": {
        "details": "Pause staking and reward execution. Can only be done by guardian or governor."
      },
      "proxiableUUID()": {
        "details": "Implementation of the ERC1822 `proxiableUUID` function. This returns the storage slot used by the implementation. It is used to validate the implementation's compatibility when performing an upgrade. IMPORTANT: A proxy pointing at a proxiable contract should not be considered proxiable itself, because this risks bricking a proxy that upgrades to it, by delegating to itself until out of gas. Thus it is critical that this function revert if invoked through a proxy. This is guaranteed by the if statement."
      },
      "setStake(uint96,uint256)": {
        "details": "Sets the caller's stake in a court.",
        "params": {
          "_courtID": "The ID of the court.",
          "_newStake": "The new stake. Note that the existing delayed stake will be nullified as non-relevant."
        }
      },
      "setStakeBySortitionModule(address,uint96,uint256,bool)": {
        "details": "Sets the stake of a specified account in a court, typically to apply a delayed stake or unstake inactive jurors.",
        "params": {
          "_account": "The account whose stake is being set.",
          "_alreadyTransferred": "Whether the PNKs have already been transferred to the contract.",
          "_courtID": "The ID of the court.",
          "_newStake": "The new stake."
        }
      },
      "unpause()": {
        "details": "Unpause staking and reward execution. Can only be done by governor."
      },
      "upgradeToAndCall(address,bytes)": {
        "details": "Upgrade mechanism including access control and UUPS-compliance.Reverts if the execution is not performed via delegatecall or the execution context is not of a proxy with an ERC1967-compliant implementation pointing to self.",
        "params": {
          "data": "Data used in a delegate call to `newImplementation` if non-empty. This will typically be an encoded function call, and allows initializing the storage of the proxy like a Solidity constructor.",
          "newImplementation": "Address of the new implementation contract."
        }
      }
    },
    "stateVariables": {
      "version": {
        "details": "Returns the version of the implementation.",
        "return": "Version string.",
        "returns": {
          "_0": "Version string."
        }
      }
    },
    "title": "KlerosCore Core arbitrator contract for Kleros v2. Note that this contract trusts the PNK token, the dispute kit and the sortition module contracts.",
    "version": 1
  },
  "userdoc": {
    "errors": {
      "FailedDelegateCall()": [
        {
          "notice": "Failed Delegated call"
        }
      ]
    },
    "kind": "user",
    "methods": {},
    "version": 1
  },
  "storageLayout": {
    "storage": [
      {
        "astId": 8616,
        "contract": "src/arbitration/KlerosCore.sol:KlerosCore",
        "label": "governor",
        "offset": 0,
        "slot": "0",
        "type": "t_address"
      },
      {
        "astId": 8618,
        "contract": "src/arbitration/KlerosCore.sol:KlerosCore",
        "label": "guardian",
        "offset": 0,
        "slot": "1",
        "type": "t_address"
      },
      {
        "astId": 8621,
        "contract": "src/arbitration/KlerosCore.sol:KlerosCore",
        "label": "pinakion",
        "offset": 0,
        "slot": "2",
        "type": "t_contract(IERC20)1755"
      },
      {
        "astId": 8623,
        "contract": "src/arbitration/KlerosCore.sol:KlerosCore",
        "label": "jurorProsecutionModule",
        "offset": 0,
        "slot": "3",
        "type": "t_address"
      },
      {
        "astId": 8626,
        "contract": "src/arbitration/KlerosCore.sol:KlerosCore",
        "label": "sortitionModule",
        "offset": 0,
        "slot": "4",
        "type": "t_contract(ISortitionModule)23277"
      },
      {
        "astId": 8630,
        "contract": "src/arbitration/KlerosCore.sol:KlerosCore",
        "label": "courts",
        "offset": 0,
        "slot": "5",
        "type": "t_array(t_struct(Court)8535_storage)dyn_storage"
      },
      {
        "astId": 8634,
        "contract": "src/arbitration/KlerosCore.sol:KlerosCore",
        "label": "disputeKits",
        "offset": 0,
        "slot": "6",
        "type": "t_array(t_contract(IDisputeKit)23114)dyn_storage"
      },
      {
        "astId": 8638,
        "contract": "src/arbitration/KlerosCore.sol:KlerosCore",
        "label": "disputes",
        "offset": 0,
        "slot": "7",
        "type": "t_array(t_struct(Dispute)8552_storage)dyn_storage"
      },
      {
        "astId": 8644,
        "contract": "src/arbitration/KlerosCore.sol:KlerosCore",
        "label": "currencyRates",
        "offset": 0,
        "slot": "8",
        "type": "t_mapping(t_contract(IERC20)1755,t_struct(CurrencyRate)8601_storage)"
      },
      {
        "astId": 8646,
        "contract": "src/arbitration/KlerosCore.sol:KlerosCore",
        "label": "paused",
        "offset": 0,
        "slot": "9",
        "type": "t_bool"
      }
    ],
    "types": {
      "t_address": {
        "encoding": "inplace",
        "label": "address",
        "numberOfBytes": "20"
      },
      "t_array(t_address)dyn_storage": {
        "base": "t_address",
        "encoding": "dynamic_array",
        "label": "address[]",
        "numberOfBytes": "32"
      },
      "t_array(t_contract(IDisputeKit)23114)dyn_storage": {
        "base": "t_contract(IDisputeKit)23114",
        "encoding": "dynamic_array",
        "label": "contract IDisputeKit[]",
        "numberOfBytes": "32"
      },
      "t_array(t_struct(Court)8535_storage)dyn_storage": {
        "base": "t_struct(Court)8535_storage",
        "encoding": "dynamic_array",
        "label": "struct KlerosCoreBase.Court[]",
        "numberOfBytes": "32"
      },
      "t_array(t_struct(Dispute)8552_storage)dyn_storage": {
        "base": "t_struct(Dispute)8552_storage",
        "encoding": "dynamic_array",
        "label": "struct KlerosCoreBase.Dispute[]",
        "numberOfBytes": "32"
      },
      "t_array(t_struct(Round)8577_storage)dyn_storage": {
        "base": "t_struct(Round)8577_storage",
        "encoding": "dynamic_array",
        "label": "struct KlerosCoreBase.Round[]",
        "numberOfBytes": "32"
      },
      "t_array(t_uint256)4_storage": {
        "base": "t_uint256",
        "encoding": "inplace",
        "label": "uint256[4]",
        "numberOfBytes": "128"
      },
      "t_array(t_uint256)dyn_storage": {
        "base": "t_uint256",
        "encoding": "dynamic_array",
        "label": "uint256[]",
        "numberOfBytes": "32"
      },
      "t_bool": {
        "encoding": "inplace",
        "label": "bool",
        "numberOfBytes": "1"
      },
      "t_contract(IArbitrableV2)22871": {
        "encoding": "inplace",
        "label": "contract IArbitrableV2",
        "numberOfBytes": "20"
      },
      "t_contract(IDisputeKit)23114": {
        "encoding": "inplace",
        "label": "contract IDisputeKit",
        "numberOfBytes": "20"
      },
      "t_contract(IERC20)1755": {
        "encoding": "inplace",
        "label": "contract IERC20",
        "numberOfBytes": "20"
      },
      "t_contract(ISortitionModule)23277": {
        "encoding": "inplace",
        "label": "contract ISortitionModule",
        "numberOfBytes": "20"
      },
      "t_enum(Period)8509": {
        "encoding": "inplace",
        "label": "enum KlerosCoreBase.Period",
        "numberOfBytes": "1"
      },
      "t_mapping(t_contract(IERC20)1755,t_struct(CurrencyRate)8601_storage)": {
        "encoding": "mapping",
        "key": "t_contract(IERC20)1755",
        "label": "mapping(contract IERC20 => struct KlerosCoreBase.CurrencyRate)",
        "numberOfBytes": "32",
        "value": "t_struct(CurrencyRate)8601_storage"
      },
      "t_mapping(t_uint256,t_bool)": {
        "encoding": "mapping",
        "key": "t_uint256",
        "label": "mapping(uint256 => bool)",
        "numberOfBytes": "32",
        "value": "t_bool"
      },
      "t_struct(Court)8535_storage": {
        "encoding": "inplace",
        "label": "struct KlerosCoreBase.Court",
        "members": [
          {
            "astId": 8511,
            "contract": "src/arbitration/KlerosCore.sol:KlerosCore",
            "label": "parent",
            "offset": 0,
            "slot": "0",
            "type": "t_uint96"
          },
          {
            "astId": 8513,
            "contract": "src/arbitration/KlerosCore.sol:KlerosCore",
            "label": "hiddenVotes",
            "offset": 12,
            "slot": "0",
            "type": "t_bool"
          },
          {
            "astId": 8516,
            "contract": "src/arbitration/KlerosCore.sol:KlerosCore",
            "label": "children",
            "offset": 0,
            "slot": "1",
            "type": "t_array(t_uint256)dyn_storage"
          },
          {
            "astId": 8518,
            "contract": "src/arbitration/KlerosCore.sol:KlerosCore",
            "label": "minStake",
            "offset": 0,
            "slot": "2",
            "type": "t_uint256"
          },
          {
            "astId": 8520,
            "contract": "src/arbitration/KlerosCore.sol:KlerosCore",
            "label": "alpha",
            "offset": 0,
            "slot": "3",
            "type": "t_uint256"
          },
          {
            "astId": 8522,
            "contract": "src/arbitration/KlerosCore.sol:KlerosCore",
            "label": "feeForJuror",
            "offset": 0,
            "slot": "4",
            "type": "t_uint256"
          },
          {
            "astId": 8524,
            "contract": "src/arbitration/KlerosCore.sol:KlerosCore",
            "label": "jurorsForCourtJump",
            "offset": 0,
            "slot": "5",
            "type": "t_uint256"
          },
          {
            "astId": 8528,
            "contract": "src/arbitration/KlerosCore.sol:KlerosCore",
            "label": "timesPerPeriod",
            "offset": 0,
            "slot": "6",
            "type": "t_array(t_uint256)4_storage"
          },
          {
            "astId": 8532,
            "contract": "src/arbitration/KlerosCore.sol:KlerosCore",
            "label": "supportedDisputeKits",
            "offset": 0,
            "slot": "10",
            "type": "t_mapping(t_uint256,t_bool)"
          },
          {
            "astId": 8534,
            "contract": "src/arbitration/KlerosCore.sol:KlerosCore",
            "label": "disabled",
            "offset": 0,
            "slot": "11",
            "type": "t_bool"
          }
        ],
        "numberOfBytes": "384"
      },
      "t_struct(CurrencyRate)8601_storage": {
        "encoding": "inplace",
        "label": "struct KlerosCoreBase.CurrencyRate",
        "members": [
          {
            "astId": 8596,
            "contract": "src/arbitration/KlerosCore.sol:KlerosCore",
            "label": "feePaymentAccepted",
            "offset": 0,
            "slot": "0",
            "type": "t_bool"
          },
          {
            "astId": 8598,
            "contract": "src/arbitration/KlerosCore.sol:KlerosCore",
            "label": "rateInEth",
            "offset": 1,
            "slot": "0",
            "type": "t_uint64"
          },
          {
            "astId": 8600,
            "contract": "src/arbitration/KlerosCore.sol:KlerosCore",
            "label": "rateDecimals",
            "offset": 9,
            "slot": "0",
            "type": "t_uint8"
          }
        ],
        "numberOfBytes": "32"
      },
      "t_struct(Dispute)8552_storage": {
        "encoding": "inplace",
        "label": "struct KlerosCoreBase.Dispute",
        "members": [
          {
            "astId": 8537,
            "contract": "src/arbitration/KlerosCore.sol:KlerosCore",
            "label": "courtID",
            "offset": 0,
            "slot": "0",
            "type": "t_uint96"
          },
          {
            "astId": 8540,
            "contract": "src/arbitration/KlerosCore.sol:KlerosCore",
            "label": "arbitrated",
            "offset": 12,
            "slot": "0",
            "type": "t_contract(IArbitrableV2)22871"
          },
          {
            "astId": 8543,
            "contract": "src/arbitration/KlerosCore.sol:KlerosCore",
            "label": "period",
            "offset": 0,
            "slot": "1",
            "type": "t_enum(Period)8509"
          },
          {
            "astId": 8545,
            "contract": "src/arbitration/KlerosCore.sol:KlerosCore",
            "label": "ruled",
            "offset": 1,
            "slot": "1",
            "type": "t_bool"
          },
          {
            "astId": 8547,
            "contract": "src/arbitration/KlerosCore.sol:KlerosCore",
            "label": "lastPeriodChange",
            "offset": 0,
            "slot": "2",
            "type": "t_uint256"
          },
          {
            "astId": 8551,
            "contract": "src/arbitration/KlerosCore.sol:KlerosCore",
            "label": "rounds",
            "offset": 0,
            "slot": "3",
            "type": "t_array(t_struct(Round)8577_storage)dyn_storage"
          }
        ],
        "numberOfBytes": "128"
      },
      "t_struct(Round)8577_storage": {
        "encoding": "inplace",
        "label": "struct KlerosCoreBase.Round",
        "members": [
          {
            "astId": 8554,
            "contract": "src/arbitration/KlerosCore.sol:KlerosCore",
            "label": "disputeKitID",
            "offset": 0,
            "slot": "0",
            "type": "t_uint256"
          },
          {
            "astId": 8556,
            "contract": "src/arbitration/KlerosCore.sol:KlerosCore",
            "label": "pnkAtStakePerJuror",
            "offset": 0,
            "slot": "1",
            "type": "t_uint256"
          },
          {
            "astId": 8558,
            "contract": "src/arbitration/KlerosCore.sol:KlerosCore",
            "label": "totalFeesForJurors",
            "offset": 0,
            "slot": "2",
            "type": "t_uint256"
          },
          {
            "astId": 8560,
            "contract": "src/arbitration/KlerosCore.sol:KlerosCore",
            "label": "nbVotes",
            "offset": 0,
            "slot": "3",
            "type": "t_uint256"
          },
          {
            "astId": 8562,
            "contract": "src/arbitration/KlerosCore.sol:KlerosCore",
            "label": "repartitions",
            "offset": 0,
            "slot": "4",
            "type": "t_uint256"
          },
          {
            "astId": 8564,
            "contract": "src/arbitration/KlerosCore.sol:KlerosCore",
            "label": "pnkPenalties",
            "offset": 0,
            "slot": "5",
            "type": "t_uint256"
          },
          {
            "astId": 8567,
            "contract": "src/arbitration/KlerosCore.sol:KlerosCore",
            "label": "drawnJurors",
            "offset": 0,
            "slot": "6",
            "type": "t_array(t_address)dyn_storage"
          },
          {
            "astId": 8569,
            "contract": "src/arbitration/KlerosCore.sol:KlerosCore",
            "label": "sumFeeRewardPaid",
            "offset": 0,
            "slot": "7",
            "type": "t_uint256"
          },
          {
            "astId": 8571,
            "contract": "src/arbitration/KlerosCore.sol:KlerosCore",
            "label": "sumPnkRewardPaid",
            "offset": 0,
            "slot": "8",
            "type": "t_uint256"
          },
          {
            "astId": 8574,
            "contract": "src/arbitration/KlerosCore.sol:KlerosCore",
            "label": "feeToken",
            "offset": 0,
            "slot": "9",
            "type": "t_contract(IERC20)1755"
          },
          {
            "astId": 8576,
            "contract": "src/arbitration/KlerosCore.sol:KlerosCore",
            "label": "drawIterations",
            "offset": 0,
            "slot": "10",
            "type": "t_uint256"
          }
        ],
        "numberOfBytes": "352"
      },
      "t_uint256": {
        "encoding": "inplace",
        "label": "uint256",
        "numberOfBytes": "32"
      },
      "t_uint64": {
        "encoding": "inplace",
        "label": "uint64",
        "numberOfBytes": "8"
      },
      "t_uint8": {
        "encoding": "inplace",
        "label": "uint8",
        "numberOfBytes": "1"
      },
      "t_uint96": {
        "encoding": "inplace",
        "label": "uint96",
        "numberOfBytes": "12"
      }
    }
  }
}