{
  "address": "0xd543D50dcba2c3E067296210D64c8F91206Df908",
  "abi": [
    {
      "inputs": [],
      "stateMutability": "nonpayable",
      "type": "constructor"
    },
    {
      "inputs": [],
      "name": "AlreadyInitialized",
      "type": "error"
    },
    {
      "inputs": [],
      "name": "FailedDelegateCall",
      "type": "error"
    },
    {
      "inputs": [
        {
          "internalType": "address",
          "name": "implementation",
          "type": "address"
        }
      ],
      "name": "InvalidImplementation",
      "type": "error"
    },
    {
      "inputs": [],
      "name": "NotInitializing",
      "type": "error"
    },
    {
      "inputs": [],
      "name": "UUPSUnauthorizedCallContext",
      "type": "error"
    },
    {
      "inputs": [
        {
          "internalType": "bytes32",
          "name": "slot",
          "type": "bytes32"
        }
      ],
      "name": "UUPSUnsupportedProxiableUUID",
      "type": "error"
    },
    {
      "anonymous": false,
      "inputs": [
        {
          "indexed": false,
          "internalType": "uint64",
          "name": "version",
          "type": "uint64"
        }
      ],
      "name": "Initialized",
      "type": "event"
    },
    {
      "anonymous": false,
      "inputs": [
        {
          "indexed": true,
          "internalType": "uint256",
          "name": "_courtID",
          "type": "uint256"
        },
        {
          "indexed": false,
          "internalType": "string",
          "name": "_courtName",
          "type": "string"
        },
        {
          "indexed": false,
          "internalType": "string",
          "name": "_policy",
          "type": "string"
        }
      ],
      "name": "PolicyUpdate",
      "type": "event"
    },
    {
      "anonymous": false,
      "inputs": [
        {
          "indexed": true,
          "internalType": "address",
          "name": "newImplementation",
          "type": "address"
        }
      ],
      "name": "Upgraded",
      "type": "event"
    },
    {
      "inputs": [
        {
          "internalType": "address",
          "name": "_governor",
          "type": "address"
        }
      ],
      "name": "changeGovernor",
      "outputs": [],
      "stateMutability": "nonpayable",
      "type": "function"
    },
    {
      "inputs": [],
      "name": "governor",
      "outputs": [
        {
          "internalType": "address",
          "name": "",
          "type": "address"
        }
      ],
      "stateMutability": "view",
      "type": "function"
    },
    {
      "inputs": [
        {
          "internalType": "address",
          "name": "_governor",
          "type": "address"
        }
      ],
      "name": "initialize",
      "outputs": [],
      "stateMutability": "nonpayable",
      "type": "function"
    },
    {
      "inputs": [
        {
          "internalType": "uint256",
          "name": "",
          "type": "uint256"
        }
      ],
      "name": "policies",
      "outputs": [
        {
          "internalType": "string",
          "name": "",
          "type": "string"
        }
      ],
      "stateMutability": "view",
      "type": "function"
    },
    {
      "inputs": [],
      "name": "proxiableUUID",
      "outputs": [
        {
          "internalType": "bytes32",
          "name": "",
          "type": "bytes32"
        }
      ],
      "stateMutability": "view",
      "type": "function"
    },
    {
      "inputs": [
        {
          "internalType": "uint256",
          "name": "_courtID",
          "type": "uint256"
        },
        {
          "internalType": "string",
          "name": "_courtName",
          "type": "string"
        },
        {
          "internalType": "string",
          "name": "_policy",
          "type": "string"
        }
      ],
      "name": "setPolicy",
      "outputs": [],
      "stateMutability": "nonpayable",
      "type": "function"
    },
    {
      "inputs": [
        {
          "internalType": "address",
          "name": "newImplementation",
          "type": "address"
        },
        {
          "internalType": "bytes",
          "name": "data",
          "type": "bytes"
        }
      ],
      "name": "upgradeToAndCall",
      "outputs": [],
      "stateMutability": "payable",
      "type": "function"
    }
  ],
  "transactionHash": "0x2ad28178412a686ad0b21d17a3fb40cbd7c354192ddfadd1ebf724d73b3901ff",
  "args": [],
  "numDeployments": 1,
  "solcInputHash": "4ee8a1f2013c130bec1668c5304bc76a",
  "bytecode": "0x60a06040523060805234801561001457600080fd5b5061001d610022565b6100d3565b7ff0c57e16840df040f15088dc2f81fe391c3923bec73e23a9662efc9c229c6a0e805468010000000000000000900460ff16156100715760405162dc149f60e41b815260040160405180910390fd5b80546001600160401b03908116146100d05780546001600160401b0319166001600160401b0390811782556040519081527fc7f505b2f371ae2175ee4913f4499e1f2633a7b5936321eed1cdaeb6115181d29060200160405180910390a15b50565b608051610b926100fc6000396000818161017b015281816101a401526103a10152610b926000f3fe6080604052600436106100605760003560e01c80630c340a24146100655780634f1ef286146100a257806352d1902d146100b7578063bdf73780146100da578063c4d66de8146100fa578063d3e894831461011a578063e4c0aaf414610147575b600080fd5b34801561007157600080fd5b50600054610085906001600160a01b031681565b6040516001600160a01b0390911681526020015b60405180910390f35b6100b56100b03660046106ba565b610167565b005b3480156100c357600080fd5b506100cc610394565b604051908152602001610099565b3480156100e657600080fd5b506100b56100f53660046107c5565b6103f2565b34801561010657600080fd5b506100b561011536600461083f565b61048b565b34801561012657600080fd5b5061013a610135366004610861565b610575565b604051610099919061089e565b34801561015357600080fd5b506100b561016236600461083f565b61060f565b6101708261065b565b306001600160a01b037f00000000000000000000000000000000000000000000000000000000000000001614806101ee57507f00000000000000000000000000000000000000000000000000000000000000006001600160a01b03166101e2600080516020610b3d8339815191525490565b6001600160a01b031614155b1561020c5760405163703e46dd60e11b815260040160405180910390fd5b816001600160a01b03166352d1902d6040518163ffffffff1660e01b8152600401602060405180830381865afa925050508015610266575060408051601f3d908101601f19168201909252610263918101906108d1565b60015b61029357604051630c76093760e01b81526001600160a01b03831660048201526024015b60405180910390fd5b600080516020610b3d83398151915281146102c457604051632a87526960e21b81526004810182905260240161028a565b600080516020610b3d8339815191528390556040516001600160a01b038416907fbc7cd75a20ee27fd9adebab32041f755214dbc6bffa90cc0225b39da2e5c2d3b90600090a281511561038f576000836001600160a01b03168360405161032b91906108ea565b600060405180830381855af49150503d8060008114610366576040519150601f19603f3d011682016040523d82523d6000602084013e61036b565b606091505b505090508061038d576040516339b21b5d60e11b815260040160405180910390fd5b505b505050565b6000306001600160a01b037f000000000000000000000000000000000000000000000000000000000000000016146103df5760405163703e46dd60e11b815260040160405180910390fd5b50600080516020610b3d83398151915290565b6000546001600160a01b0316331461041c5760405162461bcd60e51b815260040161028a90610906565b60008581526001602052604090206104358284836109c1565b50847f61f7110245e82eddd3b134d1e1607420d4a4dcdab30f5abdbbc9c3485b5dd2a48585600160008a815260200190815260200160002060405161047c93929190610a82565b60405180910390a25050505050565b7ff0c57e16840df040f15088dc2f81fe391c3923bec73e23a9662efc9c229c6a0e805460019190600160401b900460ff16806104d55750805467ffffffffffffffff808416911610155b156104f25760405162dc149f60e41b815260040160405180910390fd5b8054600160401b67ffffffffffffffff841668ffffffffffffffffff199092168217178255600080546001600160a01b0319166001600160a01b038616179055815460ff60401b191682556040519081527fc7f505b2f371ae2175ee4913f4499e1f2633a7b5936321eed1cdaeb6115181d29060200160405180910390a1505050565b6001602052600090815260409020805461058e90610939565b80601f01602080910402602001604051908101604052809291908181526020018280546105ba90610939565b80156106075780601f106105dc57610100808354040283529160200191610607565b820191906000526020600020905b8154815290600101906020018083116105ea57829003601f168201915b505050505081565b6000546001600160a01b031633146106395760405162461bcd60e51b815260040161028a90610906565b600080546001600160a01b0319166001600160a01b0392909216919091179055565b6000546001600160a01b031633146106855760405162461bcd60e51b815260040161028a90610906565b50565b80356001600160a01b038116811461069f57600080fd5b919050565b634e487b7160e01b600052604160045260246000fd5b600080604083850312156106cd57600080fd5b6106d683610688565b9150602083013567ffffffffffffffff808211156106f357600080fd5b818501915085601f83011261070757600080fd5b813581811115610719576107196106a4565b604051601f8201601f19908116603f01168101908382118183101715610741576107416106a4565b8160405282815288602084870101111561075a57600080fd5b8260208601602083013760006020848301015280955050505050509250929050565b60008083601f84011261078e57600080fd5b50813567ffffffffffffffff8111156107a657600080fd5b6020830191508360208285010111156107be57600080fd5b9250929050565b6000806000806000606086880312156107dd57600080fd5b85359450602086013567ffffffffffffffff808211156107fc57600080fd5b61080889838a0161077c565b9096509450604088013591508082111561082157600080fd5b5061082e8882890161077c565b969995985093965092949392505050565b60006020828403121561085157600080fd5b61085a82610688565b9392505050565b60006020828403121561087357600080fd5b5035919050565b60005b8381101561089557818101518382015260200161087d565b50506000910152565b60208152600082518060208401526108bd81604085016020870161087a565b601f01601f19169190910160400192915050565b6000602082840312156108e357600080fd5b5051919050565b600082516108fc81846020870161087a565b9190910192915050565b6020808252601990820152784e6f20616c6c6f7765643a20676f7665726e6f72206f6e6c7960381b604082015260600190565b600181811c9082168061094d57607f821691505b60208210810361096d57634e487b7160e01b600052602260045260246000fd5b50919050565b601f82111561038f57600081815260208120601f850160051c8101602086101561099a5750805b601f850160051c820191505b818110156109b9578281556001016109a6565b505050505050565b67ffffffffffffffff8311156109d9576109d96106a4565b6109ed836109e78354610939565b83610973565b6000601f841160018114610a215760008515610a095750838201355b600019600387901b1c1916600186901b178355610a7b565b600083815260209020601f19861690835b82811015610a525786850135825560209485019460019092019101610a32565b5086821015610a6f5760001960f88860031b161c19848701351681555b505060018560011b0183555b5050505050565b60408152826040820152828460608301376000606084830101526000601f19601f850116820160206060848303018185015260008554610ac181610939565b8060608601526080600180841660008114610ae35760018114610afd57610b2b565b60ff1985168884015283151560051b880183019550610b2b565b8a6000528660002060005b85811015610b235781548a8201860152908301908801610b08565b890184019650505b50939b9a505050505050505050505056fe360894a13ba1a3210667c828492db98dca3e2076cc3735a920a3ca505d382bbca264697066735822122013474a11eb4f083f97a82a4223662ae3b08f8ebecfcac55156e710f84b21048b64736f6c63430008120033",
  "devdoc": {
    "details": "A contract to maintain a policy for each court.",
    "errors": {
      "AlreadyInitialized()": [
        {
          "details": "The contract is already initialized."
        }
      ],
      "NotInitializing()": [
        {
          "details": "The contract is not initializing."
        }
      ],
      "UUPSUnauthorizedCallContext()": [
        {
          "details": "The call is from an unauthorized context."
        }
      ],
      "UUPSUnsupportedProxiableUUID(bytes32)": [
        {
          "details": "The storage `slot` is unsupported as a UUID."
        }
      ]
    },
    "events": {
      "Initialized(uint64)": {
        "details": "Triggered when the contract has been initialized or reinitialized."
      },
      "PolicyUpdate(uint256,string,string)": {
        "details": "Emitted when a policy is updated.",
        "params": {
          "_courtID": "The ID of the policy's court.",
          "_courtName": "The name of the policy's court.",
          "_policy": "The URI of the policy JSON."
        }
      },
      "Upgraded(address)": {
        "params": {
          "newImplementation": "Address of the new implementation the proxy is now forwarding calls to."
        }
      }
    },
    "kind": "dev",
    "methods": {
      "changeGovernor(address)": {
        "details": "Changes the `governor` storage variable.",
        "params": {
          "_governor": "The new value for the `governor` storage variable."
        }
      },
      "constructor": {
        "details": "Constructor, initializing the implementation to reduce attack surface."
      },
      "initialize(address)": {
        "details": "Constructs the `PolicyRegistry` contract.",
        "params": {
          "_governor": "The governor's address."
        }
      },
      "proxiableUUID()": {
        "details": "Implementation of the ERC1822 `proxiableUUID` function. This returns the storage slot used by the implementation. It is used to validate the implementation's compatibility when performing an upgrade. IMPORTANT: A proxy pointing at a proxiable contract should not be considered proxiable itself, because this risks bricking a proxy that upgrades to it, by delegating to itself until out of gas. Thus it is critical that this function revert if invoked through a proxy. This is guaranteed by the if statement."
      },
      "setPolicy(uint256,string,string)": {
        "details": "Sets the policy for the specified court.",
        "params": {
          "_courtID": "The ID of the specified court.",
          "_courtName": "The name of the specified court.",
          "_policy": "The URI of the policy JSON."
        }
      },
      "upgradeToAndCall(address,bytes)": {
        "details": "Upgrade mechanism including access control and UUPS-compliance.Reverts if the execution is not performed via delegatecall or the execution context is not of a proxy with an ERC1967-compliant implementation pointing to self.",
        "params": {
          "data": "Data used in a delegate call to `newImplementation` if non-empty. This will typically be an encoded function call, and allows initializing the storage of the proxy like a Solidity constructor.",
          "newImplementation": "Address of the new implementation contract."
        }
      }
    },
    "title": "PolicyRegistry",
    "version": 1
  },
  "userdoc": {
    "errors": {
      "FailedDelegateCall()": [
        {
          "notice": "Failed Delegated call"
        }
      ],
      "InvalidImplementation(address)": [
        {
          "notice": "The `implementation` is not UUPS-compliant"
        }
      ]
    },
    "events": {
      "Upgraded(address)": {
        "notice": "Emitted when the `implementation` has been successfully upgraded."
      }
    },
    "kind": "user",
    "methods": {},
    "version": 1
  },
  "storageLayout": {
    "storage": [
      {
        "astId": 7764,
        "contract": "src/arbitration/PolicyRegistry.sol:PolicyRegistry",
        "label": "governor",
        "offset": 0,
        "slot": "0",
        "type": "t_address"
      },
      {
        "astId": 7768,
        "contract": "src/arbitration/PolicyRegistry.sol:PolicyRegistry",
        "label": "policies",
        "offset": 0,
        "slot": "1",
        "type": "t_mapping(t_uint256,t_string_storage)"
      }
    ],
    "types": {
      "t_address": {
        "encoding": "inplace",
        "label": "address",
        "numberOfBytes": "20"
      },
      "t_mapping(t_uint256,t_string_storage)": {
        "encoding": "mapping",
        "key": "t_uint256",
        "label": "mapping(uint256 => string)",
        "numberOfBytes": "32",
        "value": "t_string_storage"
      },
      "t_string_storage": {
        "encoding": "bytes",
        "label": "string",
        "numberOfBytes": "32"
      },
      "t_uint256": {
        "encoding": "inplace",
        "label": "uint256",
        "numberOfBytes": "32"
      }
    }
  }
}