{
  "address": "0xAf48e32f89339438572a04455b1C4B2fF1659c8f",
  "abi": [
    {
      "inputs": [],
      "stateMutability": "nonpayable",
      "type": "constructor"
    },
    {
      "inputs": [],
      "name": "AlreadyInitialized",
      "type": "error"
    },
    {
      "inputs": [],
      "name": "FailedDelegateCall",
      "type": "error"
    },
    {
      "inputs": [
        {
          "internalType": "address",
          "name": "implementation",
          "type": "address"
        }
      ],
      "name": "InvalidImplementation",
      "type": "error"
    },
    {
      "inputs": [],
      "name": "NotInitializing",
      "type": "error"
    },
    {
      "inputs": [],
      "name": "UUPSUnauthorizedCallContext",
      "type": "error"
    },
    {
      "inputs": [
        {
          "internalType": "bytes32",
          "name": "slot",
          "type": "bytes32"
        }
      ],
      "name": "UUPSUnsupportedProxiableUUID",
      "type": "error"
    },
    {
      "anonymous": false,
      "inputs": [
        {
          "indexed": false,
          "internalType": "uint64",
          "name": "version",
          "type": "uint64"
        }
      ],
      "name": "Initialized",
      "type": "event"
    },
    {
      "anonymous": false,
      "inputs": [
        {
          "indexed": false,
          "internalType": "enum ISortitionModule.Phase",
          "name": "_phase",
          "type": "uint8"
        }
      ],
      "name": "NewPhase",
      "type": "event"
    },
    {
      "anonymous": false,
      "inputs": [
        {
          "indexed": true,
          "internalType": "address",
          "name": "_address",
          "type": "address"
        },
        {
          "indexed": false,
          "internalType": "uint256",
          "name": "_courtID",
          "type": "uint256"
        },
        {
          "indexed": false,
          "internalType": "uint256",
          "name": "_amount",
          "type": "uint256"
        }
      ],
      "name": "StakeDelayedAlreadyTransferred",
      "type": "event"
    },
    {
      "anonymous": false,
      "inputs": [
        {
          "indexed": true,
          "internalType": "address",
          "name": "_address",
          "type": "address"
        },
        {
          "indexed": true,
          "internalType": "uint96",
          "name": "_courtID",
          "type": "uint96"
        },
        {
          "indexed": false,
          "internalType": "uint256",
          "name": "_amount",
          "type": "uint256"
        }
      ],
      "name": "StakeDelayedAlreadyTransferredWithdrawn",
      "type": "event"
    },
    {
      "anonymous": false,
      "inputs": [
        {
          "indexed": true,
          "internalType": "address",
          "name": "_address",
          "type": "address"
        },
        {
          "indexed": false,
          "internalType": "uint256",
          "name": "_courtID",
          "type": "uint256"
        },
        {
          "indexed": false,
          "internalType": "uint256",
          "name": "_amount",
          "type": "uint256"
        }
      ],
      "name": "StakeDelayedNotTransferred",
      "type": "event"
    },
    {
      "anonymous": false,
      "inputs": [
        {
          "indexed": true,
          "internalType": "address",
          "name": "_address",
          "type": "address"
        },
        {
          "indexed": false,
          "internalType": "uint256",
          "name": "_relativeAmount",
          "type": "uint256"
        },
        {
          "indexed": false,
          "internalType": "bool",
          "name": "_unlock",
          "type": "bool"
        }
      ],
      "name": "StakeLocked",
      "type": "event"
    },
    {
      "anonymous": false,
      "inputs": [
        {
          "indexed": true,
          "internalType": "address",
          "name": "_address",
          "type": "address"
        },
        {
          "indexed": false,
          "internalType": "uint256",
          "name": "_courtID",
          "type": "uint256"
        },
        {
          "indexed": false,
          "internalType": "uint256",
          "name": "_amount",
          "type": "uint256"
        }
      ],
      "name": "StakeSet",
      "type": "event"
    },
    {
      "anonymous": false,
      "inputs": [
        {
          "indexed": true,
          "internalType": "address",
          "name": "newImplementation",
          "type": "address"
        }
      ],
      "name": "Upgraded",
      "type": "event"
    },
    {
      "inputs": [],
      "name": "DEFAULT_K",
      "outputs": [
        {
          "internalType": "uint256",
          "name": "",
          "type": "uint256"
        }
      ],
      "stateMutability": "view",
      "type": "function"
    },
    {
      "inputs": [],
      "name": "MAX_STAKE_PATHS",
      "outputs": [
        {
          "internalType": "uint256",
          "name": "",
          "type": "uint256"
        }
      ],
      "stateMutability": "view",
      "type": "function"
    },
    {
      "inputs": [
        {
          "internalType": "uint256",
          "name": "_maxDrawingTime",
          "type": "uint256"
        }
      ],
      "name": "changeMaxDrawingTime",
      "outputs": [],
      "stateMutability": "nonpayable",
      "type": "function"
    },
    {
      "inputs": [
        {
          "internalType": "uint256",
          "name": "_minStakingTime",
          "type": "uint256"
        }
      ],
      "name": "changeMinStakingTime",
      "outputs": [],
      "stateMutability": "nonpayable",
      "type": "function"
    },
    {
      "inputs": [
        {
          "internalType": "contract RNG",
          "name": "_rng",
          "type": "address"
        },
        {
          "internalType": "uint256",
          "name": "_rngLookahead",
          "type": "uint256"
        }
      ],
      "name": "changeRandomNumberGenerator",
      "outputs": [],
      "stateMutability": "nonpayable",
      "type": "function"
    },
    {
      "inputs": [],
      "name": "core",
      "outputs": [
        {
          "internalType": "contract KlerosCore",
          "name": "",
          "type": "address"
        }
      ],
      "stateMutability": "view",
      "type": "function"
    },
    {
      "inputs": [
        {
          "internalType": "uint256",
          "name": "",
          "type": "uint256"
        },
        {
          "internalType": "uint256",
          "name": "",
          "type": "uint256"
        }
      ],
      "name": "createDisputeHook",
      "outputs": [],
      "stateMutability": "nonpayable",
      "type": "function"
    },
    {
      "inputs": [
        {
          "internalType": "bytes32",
          "name": "_key",
          "type": "bytes32"
        },
        {
          "internalType": "bytes",
          "name": "_extraData",
          "type": "bytes"
        }
      ],
      "name": "createTree",
      "outputs": [],
      "stateMutability": "nonpayable",
      "type": "function"
    },
    {
      "inputs": [],
      "name": "delayedStakeReadIndex",
      "outputs": [
        {
          "internalType": "uint256",
          "name": "",
          "type": "uint256"
        }
      ],
      "stateMutability": "view",
      "type": "function"
    },
    {
      "inputs": [],
      "name": "delayedStakeWriteIndex",
      "outputs": [
        {
          "internalType": "uint256",
          "name": "",
          "type": "uint256"
        }
      ],
      "stateMutability": "view",
      "type": "function"
    },
    {
      "inputs": [
        {
          "internalType": "uint256",
          "name": "",
          "type": "uint256"
        }
      ],
      "name": "delayedStakes",
      "outputs": [
        {
          "internalType": "address",
          "name": "account",
          "type": "address"
        },
        {
          "internalType": "uint96",
          "name": "courtID",
          "type": "uint96"
        },
        {
          "internalType": "uint256",
          "name": "stake",
          "type": "uint256"
        },
        {
          "internalType": "bool",
          "name": "alreadyTransferred",
          "type": "bool"
        }
      ],
      "stateMutability": "view",
      "type": "function"
    },
    {
      "inputs": [],
      "name": "disputesWithoutJurors",
      "outputs": [
        {
          "internalType": "uint256",
          "name": "",
          "type": "uint256"
        }
      ],
      "stateMutability": "view",
      "type": "function"
    },
    {
      "inputs": [
        {
          "internalType": "bytes32",
          "name": "_key",
          "type": "bytes32"
        },
        {
          "internalType": "uint256",
          "name": "_coreDisputeID",
          "type": "uint256"
        },
        {
          "internalType": "uint256",
          "name": "_nonce",
          "type": "uint256"
        }
      ],
      "name": "draw",
      "outputs": [
        {
          "internalType": "address",
          "name": "drawnAddress",
          "type": "address"
        }
      ],
      "stateMutability": "view",
      "type": "function"
    },
    {
      "inputs": [
        {
          "internalType": "uint256",
          "name": "_iterations",
          "type": "uint256"
        }
      ],
      "name": "executeDelayedStakes",
      "outputs": [],
      "stateMutability": "nonpayable",
      "type": "function"
    },
    {
      "inputs": [
        {
          "internalType": "address",
          "name": "_juror",
          "type": "address"
        },
        {
          "internalType": "uint96",
          "name": "_courtID",
          "type": "uint96"
        }
      ],
      "name": "getJurorBalance",
      "outputs": [
        {
          "internalType": "uint256",
          "name": "totalStaked",
          "type": "uint256"
        },
        {
          "internalType": "uint256",
          "name": "totalLocked",
          "type": "uint256"
        },
        {
          "internalType": "uint256",
          "name": "stakedInCourt",
          "type": "uint256"
        },
        {
          "internalType": "uint256",
          "name": "nbCourts",
          "type": "uint256"
        }
      ],
      "stateMutability": "view",
      "type": "function"
    },
    {
      "inputs": [
        {
          "internalType": "address",
          "name": "_juror",
          "type": "address"
        }
      ],
      "name": "getJurorCourtIDs",
      "outputs": [
        {
          "internalType": "uint96[]",
          "name": "",
          "type": "uint96[]"
        }
      ],
      "stateMutability": "view",
      "type": "function"
    },
    {
      "inputs": [],
      "name": "governor",
      "outputs": [
        {
          "internalType": "address",
          "name": "",
          "type": "address"
        }
      ],
      "stateMutability": "view",
      "type": "function"
    },
    {
      "inputs": [
        {
          "internalType": "address",
          "name": "_governor",
          "type": "address"
        },
        {
          "internalType": "contract KlerosCore",
          "name": "_core",
          "type": "address"
        },
        {
          "internalType": "uint256",
          "name": "_minStakingTime",
          "type": "uint256"
        },
        {
          "internalType": "uint256",
          "name": "_maxDrawingTime",
          "type": "uint256"
        },
        {
          "internalType": "contract RNG",
          "name": "_rng",
          "type": "address"
        },
        {
          "internalType": "uint256",
          "name": "_rngLookahead",
          "type": "uint256"
        }
      ],
      "name": "initialize",
      "outputs": [],
      "stateMutability": "nonpayable",
      "type": "function"
    },
    {
      "inputs": [
        {
          "internalType": "address",
          "name": "_juror",
          "type": "address"
        }
      ],
      "name": "isJurorStaked",
      "outputs": [
        {
          "internalType": "bool",
          "name": "",
          "type": "bool"
        }
      ],
      "stateMutability": "view",
      "type": "function"
    },
    {
      "inputs": [
        {
          "internalType": "address",
          "name": "",
          "type": "address"
        }
      ],
      "name": "jurors",
      "outputs": [
        {
          "internalType": "uint256",
          "name": "stakedPnk",
          "type": "uint256"
        },
        {
          "internalType": "uint256",
          "name": "lockedPnk",
          "type": "uint256"
        }
      ],
      "stateMutability": "view",
      "type": "function"
    },
    {
      "inputs": [],
      "name": "lastPhaseChange",
      "outputs": [
        {
          "internalType": "uint256",
          "name": "",
          "type": "uint256"
        }
      ],
      "stateMutability": "view",
      "type": "function"
    },
    {
      "inputs": [
        {
          "internalType": "address",
          "name": "",
          "type": "address"
        },
        {
          "internalType": "uint96",
          "name": "",
          "type": "uint96"
        }
      ],
      "name": "latestDelayedStakeIndex",
      "outputs": [
        {
          "internalType": "uint256",
          "name": "",
          "type": "uint256"
        }
      ],
      "stateMutability": "view",
      "type": "function"
    },
    {
      "inputs": [
        {
          "internalType": "address",
          "name": "_account",
          "type": "address"
        },
        {
          "internalType": "uint256",
          "name": "_relativeAmount",
          "type": "uint256"
        }
      ],
      "name": "lockStake",
      "outputs": [],
      "stateMutability": "nonpayable",
      "type": "function"
    },
    {
      "inputs": [],
      "name": "maxDrawingTime",
      "outputs": [
        {
          "internalType": "uint256",
          "name": "",
          "type": "uint256"
        }
      ],
      "stateMutability": "view",
      "type": "function"
    },
    {
      "inputs": [],
      "name": "minStakingTime",
      "outputs": [
        {
          "internalType": "uint256",
          "name": "",
          "type": "uint256"
        }
      ],
      "stateMutability": "view",
      "type": "function"
    },
    {
      "inputs": [
        {
          "internalType": "uint256",
          "name": "_randomNumber",
          "type": "uint256"
        }
      ],
      "name": "notifyRandomNumber",
      "outputs": [],
      "stateMutability": "nonpayable",
      "type": "function"
    },
    {
      "inputs": [],
      "name": "passPhase",
      "outputs": [],
      "stateMutability": "nonpayable",
      "type": "function"
    },
    {
      "inputs": [
        {
          "internalType": "address",
          "name": "_account",
          "type": "address"
        },
        {
          "internalType": "uint256",
          "name": "_relativeAmount",
          "type": "uint256"
        }
      ],
      "name": "penalizeStake",
      "outputs": [],
      "stateMutability": "nonpayable",
      "type": "function"
    },
    {
      "inputs": [],
      "name": "phase",
      "outputs": [
        {
          "internalType": "enum ISortitionModule.Phase",
          "name": "",
          "type": "uint8"
        }
      ],
      "stateMutability": "view",
      "type": "function"
    },
    {
      "inputs": [
        {
          "internalType": "uint256",
          "name": "",
          "type": "uint256"
        },
        {
          "internalType": "uint256",
          "name": "",
          "type": "uint256"
        }
      ],
      "name": "postDrawHook",
      "outputs": [],
      "stateMutability": "nonpayable",
      "type": "function"
    },
    {
      "inputs": [],
      "name": "proxiableUUID",
      "outputs": [
        {
          "internalType": "bytes32",
          "name": "",
          "type": "bytes32"
        }
      ],
      "stateMutability": "view",
      "type": "function"
    },
    {
      "inputs": [],
      "name": "randomNumber",
      "outputs": [
        {
          "internalType": "uint256",
          "name": "",
          "type": "uint256"
        }
      ],
      "stateMutability": "view",
      "type": "function"
    },
    {
      "inputs": [],
      "name": "randomNumberRequestBlock",
      "outputs": [
        {
          "internalType": "uint256",
          "name": "",
          "type": "uint256"
        }
      ],
      "stateMutability": "view",
      "type": "function"
    },
    {
      "inputs": [],
      "name": "rng",
      "outputs": [
        {
          "internalType": "contract RNG",
          "name": "",
          "type": "address"
        }
      ],
      "stateMutability": "view",
      "type": "function"
    },
    {
      "inputs": [],
      "name": "rngLookahead",
      "outputs": [
        {
          "internalType": "uint256",
          "name": "",
          "type": "uint256"
        }
      ],
      "stateMutability": "view",
      "type": "function"
    },
    {
      "inputs": [
        {
          "internalType": "address",
          "name": "_account",
          "type": "address"
        }
      ],
      "name": "setJurorInactive",
      "outputs": [],
      "stateMutability": "nonpayable",
      "type": "function"
    },
    {
      "inputs": [
        {
          "internalType": "address",
          "name": "_account",
          "type": "address"
        },
        {
          "internalType": "uint96",
          "name": "_courtID",
          "type": "uint96"
        },
        {
          "internalType": "uint256",
          "name": "_newStake",
          "type": "uint256"
        },
        {
          "internalType": "bool",
          "name": "_alreadyTransferred",
          "type": "bool"
        }
      ],
      "name": "setStake",
      "outputs": [
        {
          "internalType": "uint256",
          "name": "pnkDeposit",
          "type": "uint256"
        },
        {
          "internalType": "uint256",
          "name": "pnkWithdrawal",
          "type": "uint256"
        },
        {
          "internalType": "bool",
          "name": "succeeded",
          "type": "bool"
        }
      ],
      "stateMutability": "nonpayable",
      "type": "function"
    },
    {
      "inputs": [
        {
          "internalType": "bytes32",
          "name": "_key",
          "type": "bytes32"
        },
        {
          "internalType": "bytes32",
          "name": "_ID",
          "type": "bytes32"
        }
      ],
      "name": "stakeOf",
      "outputs": [
        {
          "internalType": "uint256",
          "name": "",
          "type": "uint256"
        }
      ],
      "stateMutability": "view",
      "type": "function"
    },
    {
      "inputs": [
        {
          "internalType": "address",
          "name": "_juror",
          "type": "address"
        },
        {
          "internalType": "uint96",
          "name": "_courtID",
          "type": "uint96"
        }
      ],
      "name": "stakeOf",
      "outputs": [
        {
          "internalType": "uint256",
          "name": "",
          "type": "uint256"
        }
      ],
      "stateMutability": "view",
      "type": "function"
    },
    {
      "inputs": [
        {
          "internalType": "address",
          "name": "_account",
          "type": "address"
        },
        {
          "internalType": "uint256",
          "name": "_relativeAmount",
          "type": "uint256"
        }
      ],
      "name": "unlockStake",
      "outputs": [],
      "stateMutability": "nonpayable",
      "type": "function"
    },
    {
      "inputs": [
        {
          "internalType": "address",
          "name": "newImplementation",
          "type": "address"
        },
        {
          "internalType": "bytes",
          "name": "data",
          "type": "bytes"
        }
      ],
      "name": "upgradeToAndCall",
      "outputs": [],
      "stateMutability": "payable",
      "type": "function"
    }
  ],
  "transactionHash": "0x7a363f531eac2935d3427b9bba625f00a0c7dbc5cd5e5359beb5984f23c220a5",
  "args": [],
  "numDeployments": 1,
  "solcInputHash": "e9fdf269c6fad89c4e78ca88d7e75f64",
  "bytecode": "0x60a0604052306080523480156200001557600080fd5b506200002062000026565b620000d9565b7ff0c57e16840df040f15088dc2f81fe391c3923bec73e23a9662efc9c229c6a0e805468010000000000000000900460ff1615620000765760405162dc149f60e41b815260040160405180910390fd5b80546001600160401b0390811614620000d65780546001600160401b0319166001600160401b0390811782556040519081527fc7f505b2f371ae2175ee4913f4499e1f2633a7b5936321eed1cdaeb6115181d29060200160405180910390a15b50565b608051612e7e62000103600039600081816112550152818161127e01526114760152612e7e6000f3fe6080604052600436106102465760003560e01c80637dc38f1411610139578063c1572618116100b6578063dca5f6b01161007a578063dca5f6b0146106c6578063dd5e5cb514610712578063e534710d14610732578063f216de4c1461076a578063f2f4eb261461078a578063f6b4d82d146107aa57600080fd5b8063c15726181461061a578063ccbac9f514610630578063d09f392d14610646578063d1c1df4814610666578063d605787b146106a657600080fd5b8063b1c9fe6e116100fd578063b1c9fe6e1461058b578063b4a61608146105b9578063b5d69e99146105ce578063b888adfa146105ee578063c057eca71461060457600080fd5b80637dc38f14146104d8578063823cfd70146104ee578063965af6c71461050e578063a2473cc11461052e578063a5861b901461054e57600080fd5b80634c70a0d6116101c757806354812d171161018b57806354812d171461041757806356acb050146104375780635d2d78461461044d5780636624192f1461046d57806376fa9fc5146104b857600080fd5b80634c70a0d6146103825780634dbbebbc146103a25780634f1ef286146103c257806352d1902d146103d5578063543f8a36146103ea57600080fd5b80631b92bbbe1161020e5780631b92bbbe146102ee57806321e1625e1461030457806321ea9b3f1461032457806335975f4a14610342578063477a655c1461036257600080fd5b8063034327441461024b5780630b274f2e146102745780630b51806d1461028b5780630c340a24146102a05780630e083ec9146102d8575b600080fd5b34801561025757600080fd5b5061026160065481565b6040519081526020015b60405180910390f35b34801561028057600080fd5b50610289610814565b005b34801561029757600080fd5b50610261600681565b3480156102ac57600080fd5b506000546102c0906001600160a01b031681565b6040516001600160a01b03909116815260200161026b565b3480156102e457600080fd5b50610261600a5481565b3480156102fa57600080fd5b5061026160035481565b34801561031057600080fd5b5061028961031f366004612852565b610bec565b34801561033057600080fd5b5061028961033f36600461287e565b50565b34801561034e57600080fd5b5061028961035d36600461287e565b610c8f565b34801561036e57600080fd5b5061028961037d36600461293a565b610e7d565b34801561038e57600080fd5b506102c061039d366004612981565b610f74565b3480156103ae57600080fd5b506102896103bd366004612852565b611158565b6102896103d03660046129ad565b611241565b3480156103e157600080fd5b50610261611469565b3480156103f657600080fd5b5061040a6104053660046129e7565b6114c7565b60405161026b9190612a04565b34801561042357600080fd5b50610289610432366004612a51565b611565565b34801561044357600080fd5b50610261600b5481565b34801561045957600080fd5b50610289610468366004612ab8565b61168b565b34801561047957600080fd5b506104a86104883660046129e7565b6001600160a01b03166000908152600d6020526040902060010154151590565b604051901515815260200161026b565b3480156104c457600080fd5b506102616104d3366004612ab8565b6116ce565b3480156104e457600080fd5b5061026160095481565b3480156104fa57600080fd5b5061028961050936600461287e565b611729565b34801561051a57600080fd5b50610289610529366004612852565b611758565b34801561053a57600080fd5b50610261610549366004612aef565b6117f3565b34801561055a57600080fd5b5061056e610569366004612b36565b61181d565b60408051938452602084019290925215159082015260600161026b565b34801561059757600080fd5b506001546105ac90600160a01b900460ff1681565b60405161026b9190612b9f565b3480156105c557600080fd5b50610261600481565b3480156105da57600080fd5b506102896105e93660046129e7565b611be4565b3480156105fa57600080fd5b5061026160045481565b34801561061057600080fd5b5061026160025481565b34801561062657600080fd5b5061026160055481565b34801561063c57600080fd5b5061026160085481565b34801561065257600080fd5b50610289610661366004612ab8565b611cc6565b34801561067257600080fd5b50610686610681366004612aef565b611d00565b60408051948552602085019390935291830152606082015260800161026b565b3480156106b257600080fd5b506007546102c0906001600160a01b031681565b3480156106d257600080fd5b506106fd6106e13660046129e7565b600d602052600090815260409020600181015460029091015482565b6040805192835260208301919091520161026b565b34801561071e57600080fd5b5061028961072d36600461287e565b611d3f565b34801561073e57600080fd5b5061026161074d366004612aef565b600f60209081526000928352604080842090915290825290205481565b34801561077657600080fd5b50610289610785366004612852565b611d6e565b34801561079657600080fd5b506001546102c0906001600160a01b031681565b3480156107b657600080fd5b506108046107c536600461287e565b600e602052600090815260409020805460018201546002909201546001600160a01b03821692600160a01b9092046001600160601b0316919060ff1684565b60405161026b9493929190612bc7565b6000600154600160a01b900460ff16600281111561083457610834612b89565b036109a7576002546004546108499042612c0e565b10156108b15760405162461bcd60e51b815260206004820152602c60248201527f546865206d696e696d756d207374616b696e672074696d6520686173206e6f7460448201526b103830b9b9b2b2103cb2ba1760a11b60648201526084015b60405180910390fd5b6000600654116109135760405162461bcd60e51b815260206004820152602760248201527f546865726520617265206e6f2064697370757465732074686174206e65656420604482015266353ab937b9399760c91b60648201526084016108a8565b6007546009546001600160a01b0390911690637363ae1f906109359043612c21565b6040518263ffffffff1660e01b815260040161095391815260200190565b600060405180830381600087803b15801561096d57600080fd5b505af1158015610981573d6000803e3d6000fd5b505043600555505060018054819060ff60a01b1916600160a01b825b0217905550610ba1565b60018054600160a01b900460ff1660028111156109c6576109c6612b89565b03610abe576007546009546005546001600160a01b03909216916313cf9054916109ef91612c21565b6040518263ffffffff1660e01b8152600401610a0d91815260200190565b6020604051808303816000875af1158015610a2c573d6000803e3d6000fd5b505050506040513d601f19601f82011682018060405250810190610a509190612c34565b6008819055600003610aa45760405162461bcd60e51b815260206004820152601e60248201527f52616e646f6d206e756d626572206973206e6f7420726561647920796574000060448201526064016108a8565b600180546002919060ff60a01b1916600160a01b8361099d565b6002600154600160a01b900460ff166002811115610ade57610ade612b89565b03610ba1576006541580610b005750600354600454610afd9042612c0e565b10155b610b935760405162461bcd60e51b815260206004820152605860248201527f546865726520617265207374696c6c20646973707574657320776974686f757460448201527f206a75726f727320616e6420746865206d6178696d756d2064726177696e67206064820152773a34b6b2903430b9903737ba103830b9b9b2b2103cb2ba1760411b608482015260a4016108a8565b6001805460ff60a01b191690555b426004556001546040517f31f72b44f546d9e7eaec13f65636997665e15f134a81c82924f568f5c0d07b9391610be291600160a01b90910460ff1690612b9f565b60405180910390a1565b6001546001600160a01b03163314610c165760405162461bcd60e51b81526004016108a890612c4d565b6001600160a01b0382166000908152600d602052604081206002018054839290610c41908490612c21565b909155505060408051828152600060208201526001600160a01b038416917f7a81a4ef419d50dbb5deb116fb983bf6ca7716bcbc84cd1cd2be81ccea9078b091015b60405180910390a25050565b6000600154600160a01b900460ff166002811115610caf57610caf612b89565b14610cfc5760405162461bcd60e51b815260206004820152601b60248201527f53686f756c6420626520696e205374616b696e672070686173652e000000000060448201526064016108a8565b6000600a54600183600b54610d119190612c21565b610d1b9190612c0e565b11610d265781610d41565b600b54600a54610d369190612c0e565b610d41906001612c21565b9050600081600b54610d539190612c21565b600b549091505b81811015610e75576000818152600e6020526040902080546001600160a01b031615610e625760018054825491830154600284015460405163fbb519e760e01b81526001600160a01b039384169463fbb519e794610dd69490821693600160a01b9092046001600160601b031692909160ff1690600401612bc7565b600060405180830381600087803b158015610df057600080fd5b505af1158015610e04573d6000803e3d6000fd5b505082546001600160a01b0381166000908152600f60209081526040808320600160a01b9094046001600160601b03168352928152828220829055868252600e90529081208181556001810191909155600201805460ff1916905550505b5080610e6d81612c91565b915050610d5a565b50600b555050565b6001546001600160a01b03163314610ea75760405162461bcd60e51b81526004016108a890612c4d565b6000828152600c6020526040812090610ebf83611de6565b825490915015610f085760405162461bcd60e51b81526020600482015260146024820152732a3932b29030b63932b0b23c9032bc34b9ba399760611b60448201526064016108a8565b60018111610f585760405162461bcd60e51b815260206004820152601b60248201527f4b206d7573742062652067726561746572207468616e206f6e652e000000000060448201526064016108a8565b8155600201805460018101825560009182526020822001555050565b60006002600154600160a01b900460ff166002811115610f9657610f96612b89565b14610fd25760405162461bcd60e51b815260206004820152600c60248201526b2bb937b73390383430b9b29760a11b60448201526064016108a8565b6000848152600c6020526040812060028101805491929091610ff657610ff6612caa565b9060005260206000200154600003611012576000915050611151565b60008160020160008154811061102a5761102a612caa565b9060005260206000200154600854868660405160200161105d939291909283526020830191909152604082015260600190565b6040516020818303038152906040528051906020012060001c6110809190612cd6565b905060005b60028301548354611097908390612cea565b6110a2906001612c21565b10156111315760015b8354811161112b576000818386600001546110c69190612cea565b6110d09190612c21565b905060008560020182815481106110e9576110e9612caa565b9060005260206000200154905080851061110e576111078186612c0e565b9450611116565b50915061112b565b5050808061112390612c91565b9150506110ab565b50611085565b600081815260048401602052604090205461114b90611e01565b93505050505b9392505050565b6000546001600160a01b031633146111825760405162461bcd60e51b81526004016108a890612d01565b600780546001600160a01b0319166001600160a01b038416179055600981905560018054600160a01b900460ff1660028111156111c1576111c1612b89565b0361123d576007546009546001600160a01b0390911690637363ae1f906111e89043612c21565b6040518263ffffffff1660e01b815260040161120691815260200190565b600060405180830381600087803b15801561122057600080fd5b505af1158015611234573d6000803e3d6000fd5b50504360055550505b5050565b61124a82611e2c565b306001600160a01b037f00000000000000000000000000000000000000000000000000000000000000001614806112c857507f00000000000000000000000000000000000000000000000000000000000000006001600160a01b03166112bc600080516020612e298339815191525490565b6001600160a01b031614155b156112e65760405163703e46dd60e11b815260040160405180910390fd5b816001600160a01b03166352d1902d6040518163ffffffff1660e01b8152600401602060405180830381865afa925050508015611340575060408051601f3d908101601f1916820190925261133d91810190612c34565b60015b61136857604051630c76093760e01b81526001600160a01b03831660048201526024016108a8565b600080516020612e29833981519152811461139957604051632a87526960e21b8152600481018290526024016108a8565b600080516020612e298339815191528390556040516001600160a01b038416907fbc7cd75a20ee27fd9adebab32041f755214dbc6bffa90cc0225b39da2e5c2d3b90600090a2815115611464576000836001600160a01b0316836040516114009190612d43565b600060405180830381855af49150503d806000811461143b576040519150601f19603f3d011682016040523d82523d6000602084013e611440565b606091505b5050905080611462576040516339b21b5d60e11b815260040160405180910390fd5b505b505050565b6000306001600160a01b037f000000000000000000000000000000000000000000000000000000000000000016146114b45760405163703e46dd60e11b815260040160405180910390fd5b50600080516020612e2983398151915290565b6001600160a01b0381166000908152600d602090815260409182902080548351818402810184019094528084526060939283018282801561155957602002820191906000526020600020906000905b82829054906101000a90046001600160601b03166001600160601b0316815260200190600c0190602082600b010492830192600103820291508084116115165790505b50505050509050919050565b7ff0c57e16840df040f15088dc2f81fe391c3923bec73e23a9662efc9c229c6a0e805460019190600160401b900460ff16806115af5750805467ffffffffffffffff808416911610155b156115cc5760405162dc149f60e41b815260040160405180910390fd5b805468ffffffffffffffffff191667ffffffffffffffff8316908117600160401b178255600080546001600160a01b038b81166001600160a01b031992831617909255600180548b841690831617815560028a905560038990554260045560078054938916939092169290921790556009859055600b55815460ff60401b191682556040519081527fc7f505b2f371ae2175ee4913f4499e1f2633a7b5936321eed1cdaeb6115181d29060200160405180910390a15050505050505050565b6001546001600160a01b031633146116b55760405162461bcd60e51b81526004016108a890612c4d565b600680549060006116c583612d72565b91905055505050565b6000828152600c60209081526040808320848452600381019092528220548083036116fe57600092505050611723565b81600201818154811061171357611713612caa565b9060005260206000200154925050505b92915050565b6000546001600160a01b031633146117535760405162461bcd60e51b81526004016108a890612d01565b600255565b6001546001600160a01b031633146117825760405162461bcd60e51b81526004016108a890612c4d565b6001600160a01b0382166000908152600d6020526040812060020180548392906117ad908490612c0e565b909155505060408051828152600160208201526001600160a01b038416917f7a81a4ef419d50dbb5deb116fb983bf6ca7716bcbc84cd1cd2be81ccea9078b09101610c83565b6000806118008484611e56565b90506118156001600160601b038416826116ce565b949350505050565b600154600090819081906001600160a01b0316331461184e5760405162461bcd60e51b81526004016108a890612c4d565b6001600160a01b0387166000908152600d602052604081209061187189896117f3565b82549091508715801561188d575060048110158061188d575081155b156118a5576000806000955095509550505050611bda565b6000600154600160a01b900460ff1660028111156118c5576118c5612b89565b14611a7f576118d4898b611e9e565b94506000600e6000600a600081546118eb90612c91565b919050819055815260200190815260200160002090508a8160000160006101000a8154816001600160a01b0302191690836001600160a01b03160217905550898160000160146101000a8154816001600160601b0302191690836001600160601b03160217905550888160010181905550600a54600f60008d6001600160a01b03166001600160a01b0316815260200190815260200160002060008c6001600160601b03166001600160601b031681526020019081526020016000208190555082891115611a235760028101805460ff191660011790556119ce848b8b86612155565b604080516001600160601b038d168152602081018c90529198506001600160a01b038d16917f792235ed84e4d70219b4fc973c509bbbdc2d3e22578dceea671f48829db949b0910160405180910390a2611a71565b604080516001600160601b038c168152602081018b90526001600160a01b038d16917fe9a844153bbed760d95005e769b4ef97fab26f7b01305c7028a0493b833bdbae910160405180910390a25b5060019350611bda92505050565b818810611a9f5786611a9a57611a97838a8a85612155565b95505b611ab8565b611aab838a8a85612235565b611ab59086612c21565b94505b6000611ac48b8b611e56565b905060008a5b81611b8257611ae36001600160601b0382168c8561242c565b6000196001600160601b03821601611afe5760019150611aca565b600154604051630fad06e960e11b81526001600160601b03831660048201526001600160a01b0390911690631f5a0dd29060240160e060405180830381865afa158015611b4f573d6000803e3d6000fd5b505050506040513d601f19601f82011682018060405250810190611b739190612d89565b50949550611aca945050505050565b604080516001600160601b038e168152602081018d90526001600160a01b038f16917f4732545d01e38980276a17e6d394f01577ba63f2fea5eba41af0757d9c060c5c910160405180910390a2506001955050505050505b9450945094915050565b6001546001600160a01b03163314611c0e5760405162461bcd60e51b81526004016108a890612c4d565b6000611c19826114c7565b80519091505b801561146457600180546001600160a01b03169063fbb519e79085908590611c479086612c0e565b81518110611c5757611c57612caa565b60200260200101516000806040518563ffffffff1660e01b8152600401611c819493929190612bc7565b600060405180830381600087803b158015611c9b57600080fd5b505af1158015611caf573d6000803e3d6000fd5b505050508080611cbe90612d72565b915050611c1f565b6001546001600160a01b03163314611cf05760405162461bcd60e51b81526004016108a890612c4d565b600680549060006116c583612c91565b6001600160a01b0382166000908152600d6020526040812060018101546002820154909290918190611d3287876117f3565b9054949793965094505050565b6000546001600160a01b03163314611d695760405162461bcd60e51b81526004016108a890612d01565b600355565b6001546001600160a01b03163314611d985760405162461bcd60e51b81526004016108a890612c4d565b6001600160a01b0382166000908152600d6020526040902060018101548211611dda5781816001016000828254611dcf9190612c0e565b909155506114649050565b60006001820155505050565b60006020825110611df957506020015190565b506006919050565b600060405160005b6014811015611e245783811a81600c84010153600101611e09565b505192915050565b6000546001600160a01b0316331461033f5760405162461bcd60e51b81526004016108a890612d01565b600060405160005b6014811015611e79578481600c011a81830153600101611e5e565b5060145b6020811015611e955783811a81830153600101611e7d565b50519392505050565b6001600160a01b0381166000908152600f602090815260408083206001600160601b0386168452909152812054801561214e576000818152600e60205260409020600281015460ff1615612101576000611ef885876117f3565b90506000818360010154611f0c9190612c0e565b6001600160a01b0387166000908152600d602052604090206001810154919650869250908210611f3e57806001015495505b85816001016000828254611f529190612c0e565b90915550506040518281526001600160601b038916906001600160a01b038916907f1222c35b9c82812f1fda75e2b299043b079c0bb3b53d44aee1ae96a97263ca699060200160405180910390a3826000036120fd5780545b80156120fb576001600160601b03891682611fc7600184612c0e565b81548110611fd757611fd7612caa565b600091825260209091206002820401546001909116600c026101000a90046001600160601b0316036120e9578154829061201390600190612c0e565b8154811061202357612023612caa565b600091825260209091206002820401546001918216600c026101000a90046001600160601b03169083906120579084612c0e565b8154811061206757612067612caa565b9060005260206000209060029182820401919006600c026101000a8154816001600160601b0302191690836001600160601b03160217905550816000018054806120b3576120b3612dfe565b60008281526020902060026000199092019182040180546001600160601b03600c60018516026101000a021916905590556120fb565b806120f381612d72565b915050611fab565b505b5050505b506000818152600e6020908152604080832083815560018101849055600201805460ff191690556001600160a01b0386168352600f82528083206001600160601b03881684529091528120555b5092915050565b60008085600101548660020154101561216f576000612183565b856001015486600201546121839190612c0e565b905061218f8184612c21565b84101561219d5760006121b2565b806121a88486612c0e565b6121b29190612c0e565b9150826000036121f7578554600180820188556000888152602090206002830401805491909216600c026101000a6001600160601b0381810219909216918816021790555b82866001015410156122095783612224565b8383876001015461221a9190612c0e565b6122249190612c21565b866001018190555050949350505050565b60028401546000906122478484612c0e565b6122519190612c21565b85600101541061226c576122658383612c0e565b9050612292565b8460020154856001015410612292578460020154856001015461228f9190612c0e565b90505b826000036123ef5784545b80156123ed576001600160601b038516866122b9600184612c0e565b815481106122c9576122c9612caa565b600091825260209091206002820401546001909116600c026101000a90046001600160601b0316036123db578554869061230590600190612c0e565b8154811061231557612315612caa565b600091825260209091206002820401546001918216600c026101000a90046001600160601b03169087906123499084612c0e565b8154811061235957612359612caa565b9060005260206000209060029182820401919006600c026101000a8154816001600160601b0302191690836001600160601b03160217905550856000018054806123a5576123a5612dfe565b60008281526020902060026000199092019182040180546001600160601b03600c60018516026101000a021916905590556123ed565b806123e581612d72565b91505061229d565b505b8185600101541015612401578261241c565b828286600101546124129190612c0e565b61241c9190612c21565b8560010181905550949350505050565b6000838152600c602090815260408083208484526003810190925282205490918190036125f95783156125f45760018201546000036125475750600281018054600180820183556000928352602090922081018590559081148015906124a65750815461249a600183612c0e565b6124a49190612cd6565b155b156125425781546000906124ba9083612e14565b60008181526004850160205260408120549192506124d9846001612c21565b9050846002018560020184815481106124f4576124f4612caa565b60009182526020808320909101548354600181018555938352818320909301929092559384526004860180825260408086208690558486526003880183528086208490559285529052909120555b6125c2565b60018083018054909161255991612c0e565b8154811061256957612569612caa565b906000526020600020015490508160010180548061258957612589612dfe565b60019003818190600052602060002001600090559055838260020182815481106125b5576125b5612caa565b6000918252602090912001555b600083815260038301602090815260408083208490558383526004850190915290208390556125f48582600187612780565b612779565b8360000361269757600082600201828154811061261857612618612caa565b90600052602060002001549050600083600201838154811061263c5761263c612caa565b6000918252602080832090910192909255600180860180549182018155825282822001849055858152600385018252604080822082905584825260048601909252908120819055612691908790849084612780565b50612779565b8160020181815481106126ac576126ac612caa565b90600052602060002001548414612779576000848360020183815481106126d5576126d5612caa565b90600052602060002001541115905060008161271b578584600201848154811061270157612701612caa565b90600052602060002001546127169190612c0e565b612746565b83600201838154811061273057612730612caa565b9060005260206000200154866127469190612c0e565b90508584600201848154811061275e5761275e612caa565b60009182526020909120015561277687848484612780565b50505b5050505050565b6000848152600c60205260409020835b80156128355781546127a3600183612c0e565b6127ad9190612e14565b9050836127e457828260020182815481106127ca576127ca612caa565b90600052602060002001546127df9190612c0e565b61280f565b828260020182815481106127fa576127fa612caa565b906000526020600020015461280f9190612c21565b82600201828154811061282457612824612caa565b600091825260209091200155612790565b505050505050565b6001600160a01b038116811461033f57600080fd5b6000806040838503121561286557600080fd5b82356128708161283d565b946020939093013593505050565b60006020828403121561289057600080fd5b5035919050565b634e487b7160e01b600052604160045260246000fd5b600082601f8301126128be57600080fd5b813567ffffffffffffffff808211156128d9576128d9612897565b604051601f8301601f19908116603f0116810190828211818310171561290157612901612897565b8160405283815286602085880101111561291a57600080fd5b836020870160208301376000602085830101528094505050505092915050565b6000806040838503121561294d57600080fd5b82359150602083013567ffffffffffffffff81111561296b57600080fd5b612977858286016128ad565b9150509250929050565b60008060006060848603121561299657600080fd5b505081359360208301359350604090920135919050565b600080604083850312156129c057600080fd5b82356129cb8161283d565b9150602083013567ffffffffffffffff81111561296b57600080fd5b6000602082840312156129f957600080fd5b81356111518161283d565b6020808252825182820181905260009190848201906040850190845b81811015612a455783516001600160601b031683529284019291840191600101612a20565b50909695505050505050565b60008060008060008060c08789031215612a6a57600080fd5b8635612a758161283d565b95506020870135612a858161283d565b945060408701359350606087013592506080870135612aa38161283d565b8092505060a087013590509295509295509295565b60008060408385031215612acb57600080fd5b50508035926020909101359150565b6001600160601b038116811461033f57600080fd5b60008060408385031215612b0257600080fd5b8235612b0d8161283d565b91506020830135612b1d81612ada565b809150509250929050565b801515811461033f57600080fd5b60008060008060808587031215612b4c57600080fd5b8435612b578161283d565b93506020850135612b6781612ada565b9250604085013591506060850135612b7e81612b28565b939692955090935050565b634e487b7160e01b600052602160045260246000fd5b6020810160038310612bc157634e487b7160e01b600052602160045260246000fd5b91905290565b6001600160a01b039490941684526001600160601b0392909216602084015260408301521515606082015260800190565b634e487b7160e01b600052601160045260246000fd5b8181038181111561172357611723612bf8565b8082018082111561172357611723612bf8565b600060208284031215612c4657600080fd5b5051919050565b60208082526024908201527f416363657373206e6f7420616c6c6f7765643a204b6c65726f73436f7265206f60408201526337363c9760e11b606082015260800190565b600060018201612ca357612ca3612bf8565b5060010190565b634e487b7160e01b600052603260045260246000fd5b634e487b7160e01b600052601260045260246000fd5b600082612ce557612ce5612cc0565b500690565b808202811582820484141761172357611723612bf8565b60208082526022908201527f416363657373206e6f7420616c6c6f7765643a20476f7665726e6f72206f6e6c6040820152613c9760f11b606082015260800190565b6000825160005b81811015612d645760208186018101518583015201612d4a565b506000920191825250919050565b600081612d8157612d81612bf8565b506000190190565b600080600080600080600060e0888a031215612da457600080fd5b8751612daf81612ada565b6020890151909750612dc081612b28565b8096505060408801519450606088015193506080880151925060a0880151915060c0880151612dee81612b28565b8091505092959891949750929550565b634e487b7160e01b600052603160045260246000fd5b600082612e2357612e23612cc0565b50049056fe360894a13ba1a3210667c828492db98dca3e2076cc3735a920a3ca505d382bbca26469706673582212205967b16de5f1e37654d9faecc6c9447e745fac6da4ff82098d0baa257f8c7c2c64736f6c63430008120033",
  "devdoc": {
    "details": "A factory of trees that keeps track of staked values for sortition.",
    "errors": {
      "AlreadyInitialized()": [
        {
          "details": "The contract is already initialized."
        }
      ],
      "NotInitializing()": [
        {
          "details": "The contract is not initializing."
        }
      ],
      "UUPSUnauthorizedCallContext()": [
        {
          "details": "The call is from an unauthorized context."
        }
      ],
      "UUPSUnsupportedProxiableUUID(bytes32)": [
        {
          "details": "The storage `slot` is unsupported as a UUID."
        }
      ]
    },
    "events": {
      "Initialized(uint64)": {
        "details": "Triggered when the contract has been initialized or reinitialized."
      },
      "Upgraded(address)": {
        "params": {
          "newImplementation": "Address of the new implementation the proxy is now forwarding calls to."
        }
      }
    },
    "kind": "dev",
    "methods": {
      "changeMaxDrawingTime(uint256)": {
        "details": "Changes the `maxDrawingTime` storage variable.",
        "params": {
          "_maxDrawingTime": "The new value for the `maxDrawingTime` storage variable."
        }
      },
      "changeMinStakingTime(uint256)": {
        "details": "Changes the `minStakingTime` storage variable.",
        "params": {
          "_minStakingTime": "The new value for the `minStakingTime` storage variable."
        }
      },
      "changeRandomNumberGenerator(address,uint256)": {
        "details": "Changes the `_rng` and `_rngLookahead` storage variables.",
        "params": {
          "_rng": "The new value for the `RNGenerator` storage variable.",
          "_rngLookahead": "The new value for the `rngLookahead` storage variable."
        }
      },
      "constructor": {
        "details": "Constructor, initializing the implementation to reduce attack surface."
      },
      "createTree(bytes32,bytes)": {
        "details": "Create a sortition sum tree at the specified key.",
        "params": {
          "_extraData": "Extra data that contains the number of children each node in the tree should have.",
          "_key": "The key of the new tree."
        }
      },
      "draw(bytes32,uint256,uint256)": {
        "details": "Draw an ID from a tree using a number. Note that this function reverts if the sum of all values in the tree is 0.",
        "params": {
          "_coreDisputeID": "Index of the dispute in Kleros Core.",
          "_key": "The key of the tree.",
          "_nonce": "Nonce to hash with random number."
        },
        "returns": {
          "drawnAddress": "The drawn address. `O(k * log_k(n))` where `k` is the maximum number of children per node in the tree,  and `n` is the maximum number of nodes ever appended."
        }
      },
      "executeDelayedStakes(uint256)": {
        "details": "Executes the next delayed stakes.",
        "params": {
          "_iterations": "The number of delayed stakes to execute."
        }
      },
      "getJurorCourtIDs(address)": {
        "details": "Gets the court identifiers where a specific `_juror` has staked.",
        "params": {
          "_juror": "The address of the juror."
        }
      },
      "initialize(address,address,uint256,uint256,address,uint256)": {
        "details": "Initializer (constructor equivalent for upgradable contracts).",
        "params": {
          "_core": "The KlerosCore.",
          "_maxDrawingTime": "Time after which the drawing phase can be switched",
          "_minStakingTime": "Minimal time to stake",
          "_rng": "The random number generator.",
          "_rngLookahead": "Lookahead value for rng."
        }
      },
      "notifyRandomNumber(uint256)": {
        "details": "Saves the random number to use it in sortition. Not used by this contract because the storing of the number is inlined in passPhase().",
        "params": {
          "_randomNumber": "Random number returned by RNG contract."
        }
      },
      "proxiableUUID()": {
        "details": "Implementation of the ERC1822 `proxiableUUID` function. This returns the storage slot used by the implementation. It is used to validate the implementation's compatibility when performing an upgrade. IMPORTANT: A proxy pointing at a proxiable contract should not be considered proxiable itself, because this risks bricking a proxy that upgrades to it, by delegating to itself until out of gas. Thus it is critical that this function revert if invoked through a proxy. This is guaranteed by the if statement."
      },
      "setJurorInactive(address)": {
        "details": "Unstakes the inactive juror from all courts. `O(n * (p * log_k(j)) )` where `n` is the number of courts the juror has staked in, `p` is the depth of the court tree, `k` is the minimum number of children per node of one of these courts' sortition sum tree, and `j` is the maximum number of jurors that ever staked in one of these courts simultaneously.",
        "params": {
          "_account": "The juror to unstake."
        }
      },
      "setStake(address,uint96,uint256,bool)": {
        "details": "Sets the specified juror's stake in a court. `O(n + p * log_k(j))` where `n` is the number of courts the juror has staked in, `p` is the depth of the court tree, `k` is the minimum number of children per node of one of these courts' sortition sum tree, and `j` is the maximum number of jurors that ever staked in one of these courts simultaneously.",
        "params": {
          "_account": "The address of the juror.",
          "_alreadyTransferred": "True if the tokens were already transferred from juror. Only relevant for delayed stakes.",
          "_courtID": "The ID of the court.",
          "_newStake": "The new stake."
        },
        "returns": {
          "pnkDeposit": "The amount of PNK to be deposited.",
          "pnkWithdrawal": "The amount of PNK to be withdrawn.",
          "succeeded": "True if the call succeeded, false otherwise."
        }
      },
      "stakeOf(address,uint96)": {
        "details": "Get the stake of a juror in a court.",
        "params": {
          "_courtID": "The ID of the court.",
          "_juror": "The address of the juror."
        },
        "returns": {
          "_0": "value The stake of the juror in the court."
        }
      },
      "stakeOf(bytes32,bytes32)": {
        "details": "Get the stake of a juror in a court.",
        "params": {
          "_ID": "The stake path ID, corresponding to a juror.",
          "_key": "The key of the tree, corresponding to a court."
        },
        "returns": {
          "_0": "The stake of the juror in the court."
        }
      },
      "upgradeToAndCall(address,bytes)": {
        "details": "Upgrade mechanism including access control and UUPS-compliance.Reverts if the execution is not performed via delegatecall or the execution context is not of a proxy with an ERC1967-compliant implementation pointing to self.",
        "params": {
          "data": "Data used in a delegate call to `newImplementation` if non-empty. This will typically be an encoded function call, and allows initializing the storage of the proxy like a Solidity constructor.",
          "newImplementation": "Address of the new implementation contract."
        }
      }
    },
    "title": "SortitionModule",
    "version": 1
  },
  "userdoc": {
    "errors": {
      "FailedDelegateCall()": [
        {
          "notice": "Failed Delegated call"
        }
      ],
      "InvalidImplementation(address)": [
        {
          "notice": "The `implementation` is not UUPS-compliant"
        }
      ]
    },
    "events": {
      "Upgraded(address)": {
        "notice": "Emitted when the `implementation` has been successfully upgraded."
      }
    },
    "kind": "user",
    "methods": {},
    "version": 1
  },
  "storageLayout": {
    "storage": [
      {
        "astId": 3629,
        "contract": "src/arbitration/SortitionModule.sol:SortitionModule",
        "label": "governor",
        "offset": 0,
        "slot": "0",
        "type": "t_address"
      },
      {
        "astId": 3632,
        "contract": "src/arbitration/SortitionModule.sol:SortitionModule",
        "label": "core",
        "offset": 0,
        "slot": "1",
        "type": "t_contract(KlerosCore)3566"
      },
      {
        "astId": 3635,
        "contract": "src/arbitration/SortitionModule.sol:SortitionModule",
        "label": "phase",
        "offset": 20,
        "slot": "1",
        "type": "t_enum(Phase)9702"
      },
      {
        "astId": 3637,
        "contract": "src/arbitration/SortitionModule.sol:SortitionModule",
        "label": "minStakingTime",
        "offset": 0,
        "slot": "2",
        "type": "t_uint256"
      },
      {
        "astId": 3639,
        "contract": "src/arbitration/SortitionModule.sol:SortitionModule",
        "label": "maxDrawingTime",
        "offset": 0,
        "slot": "3",
        "type": "t_uint256"
      },
      {
        "astId": 3641,
        "contract": "src/arbitration/SortitionModule.sol:SortitionModule",
        "label": "lastPhaseChange",
        "offset": 0,
        "slot": "4",
        "type": "t_uint256"
      },
      {
        "astId": 3643,
        "contract": "src/arbitration/SortitionModule.sol:SortitionModule",
        "label": "randomNumberRequestBlock",
        "offset": 0,
        "slot": "5",
        "type": "t_uint256"
      },
      {
        "astId": 3645,
        "contract": "src/arbitration/SortitionModule.sol:SortitionModule",
        "label": "disputesWithoutJurors",
        "offset": 0,
        "slot": "6",
        "type": "t_uint256"
      },
      {
        "astId": 3648,
        "contract": "src/arbitration/SortitionModule.sol:SortitionModule",
        "label": "rng",
        "offset": 0,
        "slot": "7",
        "type": "t_contract(RNG)11707"
      },
      {
        "astId": 3650,
        "contract": "src/arbitration/SortitionModule.sol:SortitionModule",
        "label": "randomNumber",
        "offset": 0,
        "slot": "8",
        "type": "t_uint256"
      },
      {
        "astId": 3652,
        "contract": "src/arbitration/SortitionModule.sol:SortitionModule",
        "label": "rngLookahead",
        "offset": 0,
        "slot": "9",
        "type": "t_uint256"
      },
      {
        "astId": 3654,
        "contract": "src/arbitration/SortitionModule.sol:SortitionModule",
        "label": "delayedStakeWriteIndex",
        "offset": 0,
        "slot": "10",
        "type": "t_uint256"
      },
      {
        "astId": 3656,
        "contract": "src/arbitration/SortitionModule.sol:SortitionModule",
        "label": "delayedStakeReadIndex",
        "offset": 0,
        "slot": "11",
        "type": "t_uint256"
      },
      {
        "astId": 3661,
        "contract": "src/arbitration/SortitionModule.sol:SortitionModule",
        "label": "sortitionSumTrees",
        "offset": 0,
        "slot": "12",
        "type": "t_mapping(t_bytes32,t_struct(SortitionSumTree)3604_storage)"
      },
      {
        "astId": 3666,
        "contract": "src/arbitration/SortitionModule.sol:SortitionModule",
        "label": "jurors",
        "offset": 0,
        "slot": "13",
        "type": "t_mapping(t_address,t_struct(Juror)3621_storage)"
      },
      {
        "astId": 3671,
        "contract": "src/arbitration/SortitionModule.sol:SortitionModule",
        "label": "delayedStakes",
        "offset": 0,
        "slot": "14",
        "type": "t_mapping(t_uint256,t_struct(DelayedStake)3613_storage)"
      },
      {
        "astId": 3677,
        "contract": "src/arbitration/SortitionModule.sol:SortitionModule",
        "label": "latestDelayedStakeIndex",
        "offset": 0,
        "slot": "15",
        "type": "t_mapping(t_address,t_mapping(t_uint96,t_uint256))"
      }
    ],
    "types": {
      "t_address": {
        "encoding": "inplace",
        "label": "address",
        "numberOfBytes": "20"
      },
      "t_array(t_uint256)dyn_storage": {
        "base": "t_uint256",
        "encoding": "dynamic_array",
        "label": "uint256[]",
        "numberOfBytes": "32"
      },
      "t_array(t_uint96)dyn_storage": {
        "base": "t_uint96",
        "encoding": "dynamic_array",
        "label": "uint96[]",
        "numberOfBytes": "32"
      },
      "t_bool": {
        "encoding": "inplace",
        "label": "bool",
        "numberOfBytes": "1"
      },
      "t_bytes32": {
        "encoding": "inplace",
        "label": "bytes32",
        "numberOfBytes": "32"
      },
      "t_contract(KlerosCore)3566": {
        "encoding": "inplace",
        "label": "contract KlerosCore",
        "numberOfBytes": "20"
      },
      "t_contract(RNG)11707": {
        "encoding": "inplace",
        "label": "contract RNG",
        "numberOfBytes": "20"
      },
      "t_enum(Phase)9702": {
        "encoding": "inplace",
        "label": "enum ISortitionModule.Phase",
        "numberOfBytes": "1"
      },
      "t_mapping(t_address,t_mapping(t_uint96,t_uint256))": {
        "encoding": "mapping",
        "key": "t_address",
        "label": "mapping(address => mapping(uint96 => uint256))",
        "numberOfBytes": "32",
        "value": "t_mapping(t_uint96,t_uint256)"
      },
      "t_mapping(t_address,t_struct(Juror)3621_storage)": {
        "encoding": "mapping",
        "key": "t_address",
        "label": "mapping(address => struct SortitionModule.Juror)",
        "numberOfBytes": "32",
        "value": "t_struct(Juror)3621_storage"
      },
      "t_mapping(t_bytes32,t_struct(SortitionSumTree)3604_storage)": {
        "encoding": "mapping",
        "key": "t_bytes32",
        "label": "mapping(bytes32 => struct SortitionModule.SortitionSumTree)",
        "numberOfBytes": "32",
        "value": "t_struct(SortitionSumTree)3604_storage"
      },
      "t_mapping(t_bytes32,t_uint256)": {
        "encoding": "mapping",
        "key": "t_bytes32",
        "label": "mapping(bytes32 => uint256)",
        "numberOfBytes": "32",
        "value": "t_uint256"
      },
      "t_mapping(t_uint256,t_bytes32)": {
        "encoding": "mapping",
        "key": "t_uint256",
        "label": "mapping(uint256 => bytes32)",
        "numberOfBytes": "32",
        "value": "t_bytes32"
      },
      "t_mapping(t_uint256,t_struct(DelayedStake)3613_storage)": {
        "encoding": "mapping",
        "key": "t_uint256",
        "label": "mapping(uint256 => struct SortitionModule.DelayedStake)",
        "numberOfBytes": "32",
        "value": "t_struct(DelayedStake)3613_storage"
      },
      "t_mapping(t_uint96,t_uint256)": {
        "encoding": "mapping",
        "key": "t_uint96",
        "label": "mapping(uint96 => uint256)",
        "numberOfBytes": "32",
        "value": "t_uint256"
      },
      "t_struct(DelayedStake)3613_storage": {
        "encoding": "inplace",
        "label": "struct SortitionModule.DelayedStake",
        "members": [
          {
            "astId": 3606,
            "contract": "src/arbitration/SortitionModule.sol:SortitionModule",
            "label": "account",
            "offset": 0,
            "slot": "0",
            "type": "t_address"
          },
          {
            "astId": 3608,
            "contract": "src/arbitration/SortitionModule.sol:SortitionModule",
            "label": "courtID",
            "offset": 20,
            "slot": "0",
            "type": "t_uint96"
          },
          {
            "astId": 3610,
            "contract": "src/arbitration/SortitionModule.sol:SortitionModule",
            "label": "stake",
            "offset": 0,
            "slot": "1",
            "type": "t_uint256"
          },
          {
            "astId": 3612,
            "contract": "src/arbitration/SortitionModule.sol:SortitionModule",
            "label": "alreadyTransferred",
            "offset": 0,
            "slot": "2",
            "type": "t_bool"
          }
        ],
        "numberOfBytes": "96"
      },
      "t_struct(Juror)3621_storage": {
        "encoding": "inplace",
        "label": "struct SortitionModule.Juror",
        "members": [
          {
            "astId": 3616,
            "contract": "src/arbitration/SortitionModule.sol:SortitionModule",
            "label": "courtIDs",
            "offset": 0,
            "slot": "0",
            "type": "t_array(t_uint96)dyn_storage"
          },
          {
            "astId": 3618,
            "contract": "src/arbitration/SortitionModule.sol:SortitionModule",
            "label": "stakedPnk",
            "offset": 0,
            "slot": "1",
            "type": "t_uint256"
          },
          {
            "astId": 3620,
            "contract": "src/arbitration/SortitionModule.sol:SortitionModule",
            "label": "lockedPnk",
            "offset": 0,
            "slot": "2",
            "type": "t_uint256"
          }
        ],
        "numberOfBytes": "96"
      },
      "t_struct(SortitionSumTree)3604_storage": {
        "encoding": "inplace",
        "label": "struct SortitionModule.SortitionSumTree",
        "members": [
          {
            "astId": 3589,
            "contract": "src/arbitration/SortitionModule.sol:SortitionModule",
            "label": "K",
            "offset": 0,
            "slot": "0",
            "type": "t_uint256"
          },
          {
            "astId": 3592,
            "contract": "src/arbitration/SortitionModule.sol:SortitionModule",
            "label": "stack",
            "offset": 0,
            "slot": "1",
            "type": "t_array(t_uint256)dyn_storage"
          },
          {
            "astId": 3595,
            "contract": "src/arbitration/SortitionModule.sol:SortitionModule",
            "label": "nodes",
            "offset": 0,
            "slot": "2",
            "type": "t_array(t_uint256)dyn_storage"
          },
          {
            "astId": 3599,
            "contract": "src/arbitration/SortitionModule.sol:SortitionModule",
            "label": "IDsToNodeIndexes",
            "offset": 0,
            "slot": "3",
            "type": "t_mapping(t_bytes32,t_uint256)"
          },
          {
            "astId": 3603,
            "contract": "src/arbitration/SortitionModule.sol:SortitionModule",
            "label": "nodeIndexesToIDs",
            "offset": 0,
            "slot": "4",
            "type": "t_mapping(t_uint256,t_bytes32)"
          }
        ],
        "numberOfBytes": "160"
      },
      "t_uint256": {
        "encoding": "inplace",
        "label": "uint256",
        "numberOfBytes": "32"
      },
      "t_uint96": {
        "encoding": "inplace",
        "label": "uint96",
        "numberOfBytes": "12"
      }
    }
  }
}