{
  "address": "0xc0fcc96BFd78e36550FCaB434A9EE1210B57225b",
  "abi": [
    {
      "inputs": [
        {
          "internalType": "contract IArbitrator",
          "name": "_arbitrator",
          "type": "address"
        },
        {
          "internalType": "uint256",
          "name": "_metaEvidenceID",
          "type": "uint256"
        },
        {
          "internalType": "string",
          "name": "_metaEvidence",
          "type": "string"
        },
        {
          "internalType": "contract ERC20",
          "name": "_weth",
          "type": "address"
        }
      ],
      "stateMutability": "nonpayable",
      "type": "constructor"
    },
    {
      "anonymous": false,
      "inputs": [
        {
          "indexed": true,
          "internalType": "contract IArbitrator",
          "name": "_arbitrator",
          "type": "address"
        },
        {
          "indexed": true,
          "internalType": "uint256",
          "name": "_disputeID",
          "type": "uint256"
        },
        {
          "indexed": false,
          "internalType": "uint256",
          "name": "_metaEvidenceID",
          "type": "uint256"
        },
        {
          "indexed": false,
          "internalType": "uint256",
          "name": "_evidenceGroupID",
          "type": "uint256"
        }
      ],
      "name": "Dispute",
      "type": "event"
    },
    {
      "anonymous": false,
      "inputs": [
        {
          "indexed": true,
          "internalType": "uint256",
          "name": "_metaEvidenceID",
          "type": "uint256"
        },
        {
          "indexed": false,
          "internalType": "string",
          "name": "_evidence",
          "type": "string"
        }
      ],
      "name": "MetaEvidence",
      "type": "event"
    },
    {
      "anonymous": false,
      "inputs": [
        {
          "indexed": true,
          "internalType": "contract IArbitrator",
          "name": "_arbitrator",
          "type": "address"
        },
        {
          "indexed": true,
          "internalType": "uint256",
          "name": "_disputeID",
          "type": "uint256"
        },
        {
          "indexed": false,
          "internalType": "uint256",
          "name": "_ruling",
          "type": "uint256"
        }
      ],
      "name": "Ruling",
      "type": "event"
    },
    {
      "inputs": [],
      "name": "arbitrator",
      "outputs": [
        {
          "internalType": "contract IArbitrator",
          "name": "",
          "type": "address"
        }
      ],
      "stateMutability": "view",
      "type": "function"
    },
    {
      "inputs": [
        {
          "internalType": "contract IArbitrator",
          "name": "_arbitrator",
          "type": "address"
        }
      ],
      "name": "changeArbitrator",
      "outputs": [],
      "stateMutability": "nonpayable",
      "type": "function"
    },
    {
      "inputs": [
        {
          "internalType": "uint256",
          "name": "_metaEvidenceID",
          "type": "uint256"
        },
        {
          "internalType": "string",
          "name": "_metaEvidence",
          "type": "string"
        }
      ],
      "name": "changeMetaEvidence",
      "outputs": [],
      "stateMutability": "nonpayable",
      "type": "function"
    },
    {
      "inputs": [
        {
          "internalType": "uint256",
          "name": "_numberOfRulingOptions",
          "type": "uint256"
        },
        {
          "internalType": "bytes",
          "name": "_arbitratorExtraData",
          "type": "bytes"
        },
        {
          "internalType": "uint256",
          "name": "_metaEvidenceID",
          "type": "uint256"
        },
        {
          "internalType": "uint256",
          "name": "_evidenceGroupID",
          "type": "uint256"
        },
        {
          "internalType": "uint256",
          "name": "_feeInWeth",
          "type": "uint256"
        }
      ],
      "name": "createDispute",
      "outputs": [
        {
          "internalType": "uint256",
          "name": "disputeID",
          "type": "uint256"
        }
      ],
      "stateMutability": "payable",
      "type": "function"
    },
    {
      "inputs": [
        {
          "internalType": "uint256",
          "name": "",
          "type": "uint256"
        }
      ],
      "name": "disputes",
      "outputs": [
        {
          "internalType": "bool",
          "name": "isRuled",
          "type": "bool"
        },
        {
          "internalType": "uint256",
          "name": "ruling",
          "type": "uint256"
        },
        {
          "internalType": "uint256",
          "name": "numberOfRulingOptions",
          "type": "uint256"
        }
      ],
      "stateMutability": "view",
      "type": "function"
    },
    {
      "inputs": [
        {
          "internalType": "uint256",
          "name": "",
          "type": "uint256"
        }
      ],
      "name": "externalIDtoLocalID",
      "outputs": [
        {
          "internalType": "uint256",
          "name": "",
          "type": "uint256"
        }
      ],
      "stateMutability": "view",
      "type": "function"
    },
    {
      "inputs": [],
      "name": "governor",
      "outputs": [
        {
          "internalType": "address",
          "name": "",
          "type": "address"
        }
      ],
      "stateMutability": "view",
      "type": "function"
    },
    {
      "inputs": [
        {
          "internalType": "uint256",
          "name": "_externalDisputeID",
          "type": "uint256"
        },
        {
          "internalType": "uint256",
          "name": "_ruling",
          "type": "uint256"
        }
      ],
      "name": "rule",
      "outputs": [],
      "stateMutability": "nonpayable",
      "type": "function"
    },
    {
      "inputs": [],
      "name": "weth",
      "outputs": [
        {
          "internalType": "contract ERC20",
          "name": "",
          "type": "address"
        }
      ],
      "stateMutability": "view",
      "type": "function"
    }
  ],
  "transactionHash": "0xf2d0c797180c8a2d584c028d976b74ce173ce7ad0d596cad759b4a056424696b",
  "args": [
    "0x34E520dc1d2Db660113b64724e14CEdCD01Ee879",
    0,
    "/ipfs/bafkreifteme6tusnjwyzajk75fyvzdmtyycxctf7yhfijb6rfigz3n4lvq",
    "0x014A442480DbAD767b7615E55E271799889FA1a7"
  ],
  "numDeployments": 1,
  "solcInputHash": "4b623c26d5aed7e40200b7f423c318df",
  "bytecode": "0x60c06040523480156200001157600080fd5b5060405162000de738038062000de7833981016040819052620000349162000117565b33608052600080546001600160a01b0319166001600160a01b0386811691909117909155811660a05260405183907f61606860eb6c87306811e2695215385101daab53bd6ab4e9f9049aead9363c7d906200009190859062000203565b60405180910390a25050505062000238565b6001600160a01b0381168114620000b957600080fd5b50565b634e487b7160e01b600052604160045260246000fd5b60005b83811015620000ef578181015183820152602001620000d5565b83811115620000ff576000848401525b50505050565b80516200011281620000a3565b919050565b600080600080608085870312156200012e57600080fd5b84516200013b81620000a3565b6020860151604087015191955093506001600160401b03808211156200016057600080fd5b818701915087601f8301126200017557600080fd5b8151818111156200018a576200018a620000bc565b604051601f8201601f19908116603f01168101908382118183101715620001b557620001b5620000bc565b816040528281528a6020848701011115620001cf57600080fd5b620001e2836020830160208801620000d2565b8096505050505050620001f86060860162000105565b905092959194509250565b602081526000825180602084015262000224816040850160208701620000d2565b601f01601f19169190910160400192915050565b60805160a051610b6e62000279600039600081816101000152818161050401526105fd015260008181608d0152818161077301526107f70152610b6e6000f3fe6080604052600436106100765760003560e01c80630c340a241461007b578063311a6c56146100cc5780633fc8cef3146100ee578063564a565d146101225780635b13a8a01461015f5780636cc6cde114610180578063c21ae061146101a0578063e98e3a64146101cd578063fc548f08146101ed575b600080fd5b34801561008757600080fd5b506100af7f000000000000000000000000000000000000000000000000000000000000000081565b6040516001600160a01b0390911681526020015b60405180910390f35b3480156100d857600080fd5b506100ec6100e7366004610856565b61020d565b005b3480156100fa57600080fd5b506100af7f000000000000000000000000000000000000000000000000000000000000000081565b34801561012e57600080fd5b5061014261013d366004610878565b6103a6565b6040805193151584526020840192909252908201526060016100c3565b61017261016d366004610891565b6103dd565b6040519081526020016100c3565b34801561018c57600080fd5b506000546100af906001600160a01b031681565b3480156101ac57600080fd5b506101726101bb366004610878565b60016020526000908152604090205481565b3480156101d957600080fd5b506100ec6101e836600461093a565b610768565b3480156101f957600080fd5b506100ec6102083660046109f5565b6107ec565b600082815260016020526040812054600280549192918390811061023357610233610a25565b600091825260208220915460039190910290910191506001600160a01b031633146102b35760405162461bcd60e51b815260206004820152602560248201527f4f6e6c79207468652061726269747261746f722063616e2065786563757465206044820152643a3434b99760d91b60648201526084015b60405180910390fd5b80600201548311156102f95760405162461bcd60e51b815260206004820152600f60248201526e24b73b30b634b210393ab634b7339760891b60448201526064016102aa565b805460ff16156103575760405162461bcd60e51b8152602060048201526024808201527f54686973206469737075746520686173206265656e2072756c656420616c726560448201526330b23c9760e11b60648201526084016102aa565b805460ff1916600190811782558101839055604051838152849033907f394027a5fa6e098a1191094d1719d6929b9abc535fcc0c8f448d6a4e756222769060200160405180910390a350505050565b600281815481106103b657600080fd5b600091825260209091206003909102018054600182015460029092015460ff909116925083565b60006001871161042f5760405162461bcd60e51b815260206004820152601b60248201527f496e636f7272656374206e756d626572206f662063686f69636573000000000060448201526064016102aa565b60028054604080516060810182526000808252602082018181528284018d81526001860187559590915290517f405787fa12a823e0f2b7631cc41b3ba8828b3321ca811111fa75cd3aa3bb5ace60038502908101805460ff19169215159290921790915590517f405787fa12a823e0f2b7631cc41b3ba8828b3321ca811111fa75cd3aa3bb5acf82015592517f405787fa12a823e0f2b7631cc41b3ba8828b3321ca811111fa75cd3aa3bb5ad09093019290925590516323b872dd60e01b8152336004820152306024820152604481018490527f00000000000000000000000000000000000000000000000000000000000000006001600160a01b0316906323b872dd90606401602060405180830381600087803b15801561055057600080fd5b505af1158015610564573d6000803e3d6000fd5b505050506040513d601f19601f820116820180604052508101906105889190610a3b565b6105d45760405162461bcd60e51b815260206004820152601f60248201527f4e6f7420656e6f756768205745544820666f72206172626974726174696f6e0060448201526064016102aa565b600054604051633950935160e01b81526001600160a01b039182166004820152602481018590527f000000000000000000000000000000000000000000000000000000000000000090911690633950935190604401602060405180830381600087803b15801561064357600080fd5b505af1158015610657573d6000803e3d6000fd5b505050506040513d601f19601f8201168201806040525081019061067b9190610a3b565b5060005460405163c13517e160e01b81526001600160a01b039091169063c13517e1906106b0908b908b908b90600401610a5d565b602060405180830381600087803b1580156106ca57600080fd5b505af11580156106de573d6000803e3d6000fd5b505050506040513d601f19601f820116820180604052508101906107029190610a93565b60008181526001602090815260408083208590559154825189815291820188905292945084926001600160a01b0316917f74baab670a4015ab2f1b467c5252a96141a2573f2908e58a92081e80d3cfde3d910160405180910390a3509695505050505050565b336001600160a01b037f000000000000000000000000000000000000000000000000000000000000000016146107b05760405162461bcd60e51b81526004016102aa90610aac565b817f61606860eb6c87306811e2695215385101daab53bd6ab4e9f9049aead9363c7d826040516107e09190610ae3565b60405180910390a25050565b336001600160a01b037f000000000000000000000000000000000000000000000000000000000000000016146108345760405162461bcd60e51b81526004016102aa90610aac565b600080546001600160a01b0319166001600160a01b0392909216919091179055565b6000806040838503121561086957600080fd5b50508035926020909101359150565b60006020828403121561088a57600080fd5b5035919050565b60008060008060008060a087890312156108aa57600080fd5b86359550602087013567ffffffffffffffff808211156108c957600080fd5b818901915089601f8301126108dd57600080fd5b8135818111156108ec57600080fd5b8a60208285010111156108fe57600080fd5b979a60209290920199509697604081013597506060810135965060800135945092505050565b634e487b7160e01b600052604160045260246000fd5b6000806040838503121561094d57600080fd5b82359150602083013567ffffffffffffffff8082111561096c57600080fd5b818501915085601f83011261098057600080fd5b81358181111561099257610992610924565b604051601f8201601f19908116603f011681019083821181831017156109ba576109ba610924565b816040528281528860208487010111156109d357600080fd5b8260208601602083013760006020848301015280955050505050509250929050565b600060208284031215610a0757600080fd5b81356001600160a01b0381168114610a1e57600080fd5b9392505050565b634e487b7160e01b600052603260045260246000fd5b600060208284031215610a4d57600080fd5b81518015158114610a1e57600080fd5b83815260406020820152816040820152818360608301376000818301606090810191909152601f909201601f1916010192915050565b600060208284031215610aa557600080fd5b5051919050565b6020808252601e908201527f4e6f7420617574686f72697a65643a20676f7665726e6f72206f6e6c792e0000604082015260600190565b600060208083528351808285015260005b81811015610b1057858101830151858201604001528201610af4565b81811115610b22576000604083870101525b50601f01601f191692909201604001939250505056fea2646970667358221220ce8d35b0c825ffb680b17cdb56af41b1d0187ceb066d7adeca526f2f5682e8dd64736f6c63430008090033",
  "devdoc": {
    "kind": "dev",
    "methods": {
      "constructor": {
        "details": "Constructor",
        "params": {
          "_arbitrator": "The arbitrator to rule on created disputes.",
          "_metaEvidence": "The URI of the meta evidence object for evidence submissions requests.",
          "_metaEvidenceID": "Unique identifier of meta-evidence."
        }
      },
      "createDispute(uint256,bytes,uint256,uint256,uint256)": {
        "details": "TRUSTED. Calls createDispute function of the specified arbitrator to create a dispute. Note that we dont need to check that msg.value is enough to pay arbitration fees as its the responsibility of the arbitrator contract.",
        "params": {
          "_arbitratorExtraData": "Extra data for the arbitrator.",
          "_evidenceGroupID": "Unique identifier of the evidence group that is linked to this dispute.",
          "_feeInWeth": "Amount of fees in WETH for the arbitrator.",
          "_metaEvidenceID": "Unique identifier of meta-evidence.",
          "_numberOfRulingOptions": "Number of ruling options. Must be greater than 1, otherwise there is nothing to choose from."
        },
        "returns": {
          "disputeID": "Dispute id (on arbitrator side) of the dispute created."
        }
      },
      "rule(uint256,uint256)": {
        "details": "To be called by the arbitrator of the dispute, to declare the winning ruling.",
        "params": {
          "_externalDisputeID": "ID of the dispute in arbitrator contract.",
          "_ruling": "The ruling choice of the arbitration."
        }
      }
    },
    "title": "ArbitrableExample  An example of an arbitrable contract which connects to the arbitator that implements the updated interface.",
    "version": 1
  },
  "userdoc": {
    "kind": "user",
    "methods": {},
    "version": 1
  },
  "storageLayout": {
    "storage": [
      {
        "astId": 797,
        "contract": "src/arbitration/arbitrables/ArbitrableExample.sol:ArbitrableExample",
        "label": "arbitrator",
        "offset": 0,
        "slot": "0",
        "type": "t_contract(IArbitrator)775"
      },
      {
        "astId": 804,
        "contract": "src/arbitration/arbitrables/ArbitrableExample.sol:ArbitrableExample",
        "label": "externalIDtoLocalID",
        "offset": 0,
        "slot": "1",
        "type": "t_mapping(t_uint256,t_uint256)"
      },
      {
        "astId": 808,
        "contract": "src/arbitration/arbitrables/ArbitrableExample.sol:ArbitrableExample",
        "label": "disputes",
        "offset": 0,
        "slot": "2",
        "type": "t_array(t_struct(DisputeStruct)792_storage)dyn_storage"
      }
    ],
    "types": {
      "t_array(t_struct(DisputeStruct)792_storage)dyn_storage": {
        "base": "t_struct(DisputeStruct)792_storage",
        "encoding": "dynamic_array",
        "label": "struct ArbitrableExample.DisputeStruct[]",
        "numberOfBytes": "32"
      },
      "t_bool": {
        "encoding": "inplace",
        "label": "bool",
        "numberOfBytes": "1"
      },
      "t_contract(IArbitrator)775": {
        "encoding": "inplace",
        "label": "contract IArbitrator",
        "numberOfBytes": "20"
      },
      "t_mapping(t_uint256,t_uint256)": {
        "encoding": "mapping",
        "key": "t_uint256",
        "label": "mapping(uint256 => uint256)",
        "numberOfBytes": "32",
        "value": "t_uint256"
      },
      "t_struct(DisputeStruct)792_storage": {
        "encoding": "inplace",
        "label": "struct ArbitrableExample.DisputeStruct",
        "members": [
          {
            "astId": 787,
            "contract": "src/arbitration/arbitrables/ArbitrableExample.sol:ArbitrableExample",
            "label": "isRuled",
            "offset": 0,
            "slot": "0",
            "type": "t_bool"
          },
          {
            "astId": 789,
            "contract": "src/arbitration/arbitrables/ArbitrableExample.sol:ArbitrableExample",
            "label": "ruling",
            "offset": 0,
            "slot": "1",
            "type": "t_uint256"
          },
          {
            "astId": 791,
            "contract": "src/arbitration/arbitrables/ArbitrableExample.sol:ArbitrableExample",
            "label": "numberOfRulingOptions",
            "offset": 0,
            "slot": "2",
            "type": "t_uint256"
          }
        ],
        "numberOfBytes": "96"
      },
      "t_uint256": {
        "encoding": "inplace",
        "label": "uint256",
        "numberOfBytes": "32"
      }
    }
  }
}