{
  "address": "0x6BC234359c2Bc212B81A5cF2dfE504940e98d4cC",
  "abi": [
    {
      "inputs": [
        {
          "internalType": "contract IArbitratorV2",
          "name": "_arbitrator",
          "type": "address"
        },
        {
          "internalType": "string",
          "name": "_templateData",
          "type": "string"
        },
        {
          "internalType": "bytes",
          "name": "_arbitratorExtraData",
          "type": "bytes"
        },
        {
          "internalType": "contract IERC20",
          "name": "_weth",
          "type": "address"
        }
      ],
      "stateMutability": "nonpayable",
      "type": "constructor"
    },
    {
      "anonymous": false,
      "inputs": [
        {
          "indexed": true,
          "internalType": "string",
          "name": "_action",
          "type": "string"
        }
      ],
      "name": "Action",
      "type": "event"
    },
    {
      "anonymous": false,
      "inputs": [
        {
          "indexed": true,
          "internalType": "contract IArbitratorV2",
          "name": "_arbitrator",
          "type": "address"
        },
        {
          "indexed": true,
          "internalType": "uint256",
          "name": "_arbitrableDisputeID",
          "type": "uint256"
        },
        {
          "indexed": false,
          "internalType": "uint256",
          "name": "_externalDisputeID",
          "type": "uint256"
        },
        {
          "indexed": false,
          "internalType": "uint256",
          "name": "_templateId",
          "type": "uint256"
        },
        {
          "indexed": false,
          "internalType": "string",
          "name": "_templateUri",
          "type": "string"
        }
      ],
      "name": "DisputeRequest",
      "type": "event"
    },
    {
      "anonymous": false,
      "inputs": [
        {
          "indexed": true,
          "internalType": "uint256",
          "name": "_templateId",
          "type": "uint256"
        },
        {
          "indexed": true,
          "internalType": "string",
          "name": "_templateTag",
          "type": "string"
        },
        {
          "indexed": false,
          "internalType": "string",
          "name": "_templateData",
          "type": "string"
        }
      ],
      "name": "DisputeTemplate",
      "type": "event"
    },
    {
      "anonymous": false,
      "inputs": [
        {
          "indexed": true,
          "internalType": "contract IArbitratorV2",
          "name": "_arbitrator",
          "type": "address"
        },
        {
          "indexed": true,
          "internalType": "uint256",
          "name": "_disputeID",
          "type": "uint256"
        },
        {
          "indexed": false,
          "internalType": "uint256",
          "name": "_ruling",
          "type": "uint256"
        }
      ],
      "name": "Ruling",
      "type": "event"
    },
    {
      "inputs": [],
      "name": "arbitrator",
      "outputs": [
        {
          "internalType": "contract IArbitratorV2",
          "name": "",
          "type": "address"
        }
      ],
      "stateMutability": "view",
      "type": "function"
    },
    {
      "inputs": [],
      "name": "arbitratorExtraData",
      "outputs": [
        {
          "internalType": "bytes",
          "name": "",
          "type": "bytes"
        }
      ],
      "stateMutability": "view",
      "type": "function"
    },
    {
      "inputs": [
        {
          "internalType": "contract IArbitratorV2",
          "name": "_arbitrator",
          "type": "address"
        }
      ],
      "name": "changeArbitrator",
      "outputs": [],
      "stateMutability": "nonpayable",
      "type": "function"
    },
    {
      "inputs": [
        {
          "internalType": "bytes",
          "name": "_arbitratorExtraData",
          "type": "bytes"
        }
      ],
      "name": "changeArbitratorExtraData",
      "outputs": [],
      "stateMutability": "nonpayable",
      "type": "function"
    },
    {
      "inputs": [
        {
          "internalType": "string",
          "name": "_templateData",
          "type": "string"
        }
      ],
      "name": "changeDisputeTemplate",
      "outputs": [],
      "stateMutability": "nonpayable",
      "type": "function"
    },
    {
      "inputs": [
        {
          "internalType": "string",
          "name": "_action",
          "type": "string"
        },
        {
          "internalType": "uint256",
          "name": "_feeInWeth",
          "type": "uint256"
        }
      ],
      "name": "createDispute",
      "outputs": [
        {
          "internalType": "uint256",
          "name": "disputeID",
          "type": "uint256"
        }
      ],
      "stateMutability": "payable",
      "type": "function"
    },
    {
      "inputs": [
        {
          "internalType": "string",
          "name": "_action",
          "type": "string"
        }
      ],
      "name": "createDispute",
      "outputs": [
        {
          "internalType": "uint256",
          "name": "disputeID",
          "type": "uint256"
        }
      ],
      "stateMutability": "payable",
      "type": "function"
    },
    {
      "inputs": [],
      "name": "disputeTemplates",
      "outputs": [
        {
          "internalType": "uint256",
          "name": "",
          "type": "uint256"
        }
      ],
      "stateMutability": "view",
      "type": "function"
    },
    {
      "inputs": [
        {
          "internalType": "uint256",
          "name": "",
          "type": "uint256"
        }
      ],
      "name": "disputes",
      "outputs": [
        {
          "internalType": "bool",
          "name": "isRuled",
          "type": "bool"
        },
        {
          "internalType": "uint256",
          "name": "ruling",
          "type": "uint256"
        },
        {
          "internalType": "uint256",
          "name": "numberOfRulingOptions",
          "type": "uint256"
        }
      ],
      "stateMutability": "view",
      "type": "function"
    },
    {
      "inputs": [
        {
          "internalType": "uint256",
          "name": "",
          "type": "uint256"
        }
      ],
      "name": "externalIDtoLocalID",
      "outputs": [
        {
          "internalType": "uint256",
          "name": "",
          "type": "uint256"
        }
      ],
      "stateMutability": "view",
      "type": "function"
    },
    {
      "inputs": [],
      "name": "governor",
      "outputs": [
        {
          "internalType": "address",
          "name": "",
          "type": "address"
        }
      ],
      "stateMutability": "view",
      "type": "function"
    },
    {
      "inputs": [
        {
          "internalType": "uint256",
          "name": "_externalDisputeID",
          "type": "uint256"
        },
        {
          "internalType": "uint256",
          "name": "_ruling",
          "type": "uint256"
        }
      ],
      "name": "rule",
      "outputs": [],
      "stateMutability": "nonpayable",
      "type": "function"
    },
    {
      "inputs": [],
      "name": "weth",
      "outputs": [
        {
          "internalType": "contract IERC20",
          "name": "",
          "type": "address"
        }
      ],
      "stateMutability": "view",
      "type": "function"
    }
  ],
  "transactionHash": "0xd935094505fae1f746aa9afd38e1f2c94dff4b12af22d101ec05807b053263d5",
  "args": [
    "0x2357ef115E98d171b083105E9b398231206989A3",
    {
      "$schema": "../NewDisputeTemplate.schema.json",
      "title": "Let's do this",
      "description": "We want to do this: %s",
      "question": "Does it comply with the policy?",
      "answers": [
        {
          "title": "Yes",
          "description": "Select this if you agree that it must be done."
        },
        {
          "title": "No",
          "description": "Select this if you do not agree that it must be done."
        }
      ],
      "policyURI": "/ipfs/Qmdvk...rSD6cE/policy.pdf",
      "frontendUrl": "https://kleros-v2.netlify.app/#/cases/%s/overview",
      "arbitratorChainID": "421613",
      "arbitratorAddress": "0xD08Ab99480d02bf9C092828043f611BcDFEA917b",
      "category": "Others",
      "specification": "KIP001",
      "lang": "en_US"
    },
    "0x00000000000000000000000000000000000000000000000000000000000000010000000000000000000000000000000000000000000000000000000000000003",
    "0x2DFC9c3141268e6eac04a7D6d98Fbf64BDe836a8"
  ],
  "numDeployments": 2,
  "solcInputHash": "607c490ba4a496423451de6780d6037d",
  "bytecode": "0x60c06040523480156200001157600080fd5b5060405162001836380380620018368339810160408190526200003491620001cc565b33608052600080546001600160a01b0319166001600160a01b03861617905560026200006183826200031a565b506001600160a01b03811660a052600180547fc5d2460186f7233c927e7db2dcc703c0e500b653ca82273b7bfad8045d85a470916000620000a283620003e6565b919050557f9684b36e8ac6332c160d4d4e14a78ea2679b6484c08726432cf097c99ba9784085604051620000d791906200040e565b60405180910390a35050505062000443565b6001600160a01b0381168114620000ff57600080fd5b50565b634e487b7160e01b600052604160045260246000fd5b60005b83811015620001355781810151838201526020016200011b565b50506000910152565b60006001600160401b03808411156200015b576200015b62000102565b604051601f8501601f19908116603f0116810190828211818310171562000186576200018662000102565b81604052809350858152868686011115620001a057600080fd5b620001b086602083018762000118565b5050509392505050565b8051620001c781620000e9565b919050565b60008060008060808587031215620001e357600080fd5b8451620001f081620000e9565b60208601519094506001600160401b03808211156200020e57600080fd5b818701915087601f8301126200022357600080fd5b62000234888351602085016200013e565b945060408701519150808211156200024b57600080fd5b508501601f810187136200025e57600080fd5b6200026f878251602084016200013e565b9250506200028060608601620001ba565b905092959194509250565b600181811c90821680620002a057607f821691505b602082108103620002c157634e487b7160e01b600052602260045260246000fd5b50919050565b601f8211156200031557600081815260208120601f850160051c81016020861015620002f05750805b601f850160051c820191505b818110156200031157828155600101620002fc565b5050505b505050565b81516001600160401b0381111562000336576200033662000102565b6200034e816200034784546200028b565b84620002c7565b602080601f8311600181146200038657600084156200036d5750858301515b600019600386901b1c1916600185901b17855562000311565b600085815260208120601f198616915b82811015620003b75788860151825594840194600190910190840162000396565b5085821015620003d65787850151600019600388901b60f8161c191681555b5050505050600190811b01905550565b6000600182016200040757634e487b7160e01b600052601160045260246000fd5b5060010190565b60208152600082518060208401526200042f81604085016020870162000118565b601f01601f19169190910160400192915050565b60805160a0516113a4620004926000396000818161017e01528181610669015281816106e8015261078601526000818160c9015281816104e601528181610ae10152610b9801526113a46000f3fe6080604052600436106100b25760003560e01c8063654692871161006f57806365469287146101dd57806368175996146101fe5780636cc6cde114610211578063c21ae06114610231578063dd9a523f1461025e578063f85c29bd1461027e578063fc548f081461029457600080fd5b80630c340a24146100b75780630c7ac7b614610108578063311a6c561461012a57806334e2672d1461014c5780633fc8cef31461016c578063564a565d146101a0575b600080fd5b3480156100c357600080fd5b506100eb7f000000000000000000000000000000000000000000000000000000000000000081565b6040516001600160a01b0390911681526020015b60405180910390f35b34801561011457600080fd5b5061011d6102b4565b6040516100ff9190610e27565b34801561013657600080fd5b5061014a610145366004610e41565b610342565b005b34801561015857600080fd5b5061014a610167366004610eac565b6104db565b34801561017857600080fd5b506100eb7f000000000000000000000000000000000000000000000000000000000000000081565b3480156101ac57600080fd5b506101c06101bb366004610eee565b610535565b6040805193151584526020840192909252908201526060016100ff565b6101f06101eb366004610f07565b61056c565b6040519081526020016100ff565b6101f061020c366004610eac565b6108b1565b34801561021d57600080fd5b506000546100eb906001600160a01b031681565b34801561023d57600080fd5b506101f061024c366004610eee565b60036020526000908152604090205481565b34801561026a57600080fd5b5061014a610279366004610f69565b610ad6565b34801561028a57600080fd5b506101f060015481565b3480156102a057600080fd5b5061014a6102af36600461101a565b610b8d565b600280546102c190611043565b80601f01602080910402602001604051908101604052809291908181526020018280546102ed90611043565b801561033a5780601f1061030f5761010080835404028352916020019161033a565b820191906000526020600020905b81548152906001019060200180831161031d57829003601f168201915b505050505081565b60008281526003602052604081205460048054919291839081106103685761036861107d565b600091825260208220915460039190910290910191506001600160a01b031633146103e85760405162461bcd60e51b815260206004820152602560248201527f4f6e6c79207468652061726269747261746f722063616e2065786563757465206044820152643a3434b99760d91b60648201526084015b60405180910390fd5b806002015483111561042e5760405162461bcd60e51b815260206004820152600f60248201526e24b73b30b634b210393ab634b7339760891b60448201526064016103df565b805460ff161561048c5760405162461bcd60e51b8152602060048201526024808201527f54686973206469737075746520686173206265656e2072756c656420616c726560448201526330b23c9760e11b60648201526084016103df565b805460ff1916600190811782558101839055604051838152849033907f394027a5fa6e098a1191094d1719d6929b9abc535fcc0c8f448d6a4e756222769060200160405180910390a350505050565b336001600160a01b037f000000000000000000000000000000000000000000000000000000000000000016146105235760405162461bcd60e51b81526004016103df90611093565b6002610530828483611118565b505050565b6004818154811061054557600080fd5b600091825260209091206003909102018054600182015460029092015460ff909116925083565b6000838360405161057e9291906111d9565b604051908190038120907f8b2c14fe955d044ef95ba32b88d2ceb87c6f73fcefdcebe906063a6d75690f2790600090a2600480546040805160608101825260008082526020820181815260029383018481526001860187559590915290517f8a35acfbc15ff81a39ae7d344fd709f28e8600b4aa8c65c6b64bfe7fe36bd19b60038502908101805460ff19169215159290921790915590517f8a35acfbc15ff81a39ae7d344fd709f28e8600b4aa8c65c6b64bfe7fe36bd19c82015592517f8a35acfbc15ff81a39ae7d344fd709f28e8600b4aa8c65c6b64bfe7fe36bd19d909301929092556106997f00000000000000000000000000000000000000000000000000000000000000006001600160a01b0316333087610bf7565b6106d75760405162461bcd60e51b815260206004820152600f60248201526e151c985b9cd9995c8819985a5b1959608a1b60448201526064016103df565b600054610711906001600160a01b037f00000000000000000000000000000000000000000000000000000000000000008116911686610cd3565b6107595760405162461bcd60e51b8152602060048201526019602482015278105b1b1bddd85b98d9481a5b98dc99585cd94819985a5b1959603a1b60448201526064016103df565b600054604051633d941b6d60e21b81526001600160a01b039091169063f6506db4906107b09085906002907f0000000000000000000000000000000000000000000000000000000000000000908a90600401611266565b6020604051808303816000875af11580156107cf573d6000803e3d6000fd5b505050506040513d601f19601f820116820180604052508101906107f3919061129b565b600081815260036020908152604080832085905551929550909161081b9189918991016111d9565b60408051601f1981840301815291905280516020909101206000546001805492935086926001600160a01b03909216917f8bd32f430ff060e6bd204709b3790c9807987263d3230c580dc80b5f89e2718691859161087991906112ca565b60405161089f929190918252602082015260606040820181905260009082015260800190565b60405180910390a35050509392505050565b600082826040516108c39291906111d9565b604051908190038120907f8b2c14fe955d044ef95ba32b88d2ceb87c6f73fcefdcebe906063a6d75690f2790600090a26004805460408051606081018252600080825260208201818152600283850181815260018701885587845293517f8a35acfbc15ff81a39ae7d344fd709f28e8600b4aa8c65c6b64bfe7fe36bd19b60038802908101805460ff19169215159290921790915591517f8a35acfbc15ff81a39ae7d344fd709f28e8600b4aa8c65c6b64bfe7fe36bd19c83015592517f8a35acfbc15ff81a39ae7d344fd709f28e8600b4aa8c65c6b64bfe7fe36bd19d9091015554915163c13517e160e01b815290936001600160a01b039092169163c13517e19134916109d69187918291016112e3565b60206040518083038185885af11580156109f4573d6000803e3d6000fd5b50505050506040513d601f19601f82011682018060405250810190610a19919061129b565b6000818152600360209081526040808320859055519295509091610a419188918891016111d9565b60408051601f1981840301815291905280516020909101206000546001805492935086926001600160a01b03909216917f8bd32f430ff060e6bd204709b3790c9807987263d3230c580dc80b5f89e27186918591610a9f91906112ca565b604051610ac5929190918252602082015260606040820181905260009082015260800190565b60405180910390a350505092915050565b336001600160a01b037f00000000000000000000000000000000000000000000000000000000000000001614610b1e5760405162461bcd60e51b81526004016103df90611093565b600180547fc5d2460186f7233c927e7db2dcc703c0e500b653ca82273b7bfad8045d85a470916000610b4f83611304565b919050557f9684b36e8ac6332c160d4d4e14a78ea2679b6484c08726432cf097c99ba9784083604051610b829190610e27565b60405180910390a350565b336001600160a01b037f00000000000000000000000000000000000000000000000000000000000000001614610bd55760405162461bcd60e51b81526004016103df90611093565b600080546001600160a01b0319166001600160a01b0392909216919091179055565b6040516001600160a01b038481166024830152838116604483015260648201839052600091829182919088169060840160408051601f198184030181529181526020820180516001600160e01b03166323b872dd60e01b17905251610c5c919061131d565b6000604051808303816000865af19150503d8060008114610c99576040519150601f19603f3d011682016040523d82523d6000602084013e610c9e565b606091505b5091509150818015610cc8575080511580610cc8575080806020019051810190610cc89190611339565b979650505050505050565b604051636eb1769f60e11b81523060048201526001600160a01b0383811660248301526000919085169063095ea7b39085908590849063dd62ed3e90604401602060405180830381865afa158015610d2f573d6000803e3d6000fd5b505050506040513d601f19601f82011682018060405250810190610d53919061129b565b610d5d919061135b565b6040516001600160e01b031960e085901b1681526001600160a01b03909216600483015260248201526044016020604051808303816000875af1158015610da8573d6000803e3d6000fd5b505050506040513d601f19601f82011682018060405250810190610dcc9190611339565b506001949350505050565b60005b83811015610df2578181015183820152602001610dda565b50506000910152565b60008151808452610e13816020860160208601610dd7565b601f01601f19169290920160200192915050565b602081526000610e3a6020830184610dfb565b9392505050565b60008060408385031215610e5457600080fd5b50508035926020909101359150565b60008083601f840112610e7557600080fd5b50813567ffffffffffffffff811115610e8d57600080fd5b602083019150836020828501011115610ea557600080fd5b9250929050565b60008060208385031215610ebf57600080fd5b823567ffffffffffffffff811115610ed657600080fd5b610ee285828601610e63565b90969095509350505050565b600060208284031215610f0057600080fd5b5035919050565b600080600060408486031215610f1c57600080fd5b833567ffffffffffffffff811115610f3357600080fd5b610f3f86828701610e63565b909790965060209590950135949350505050565b634e487b7160e01b600052604160045260246000fd5b600060208284031215610f7b57600080fd5b813567ffffffffffffffff80821115610f9357600080fd5b818401915084601f830112610fa757600080fd5b813581811115610fb957610fb9610f53565b604051601f8201601f19908116603f01168101908382118183101715610fe157610fe1610f53565b81604052828152876020848701011115610ffa57600080fd5b826020860160208301376000928101602001929092525095945050505050565b60006020828403121561102c57600080fd5b81356001600160a01b0381168114610e3a57600080fd5b600181811c9082168061105757607f821691505b60208210810361107757634e487b7160e01b600052602260045260246000fd5b50919050565b634e487b7160e01b600052603260045260246000fd5b6020808252601e908201527f4e6f7420617574686f72697a65643a20676f7665726e6f72206f6e6c792e0000604082015260600190565b601f82111561053057600081815260208120601f850160051c810160208610156110f15750805b601f850160051c820191505b81811015611110578281556001016110fd565b505050505050565b67ffffffffffffffff83111561113057611130610f53565b6111448361113e8354611043565b836110ca565b6000601f84116001811461117857600085156111605750838201355b600019600387901b1c1916600186901b1783556111d2565b600083815260209020601f19861690835b828110156111a95786850135825560209485019460019092019101611189565b50868210156111c65760001960f88860031b161c19848701351681555b505060018560011b0183555b5050505050565b8183823760009101908152919050565b600081546111f681611043565b808552602060018381168015611213576001811461122d5761125b565b60ff1985168884015283151560051b88018301955061125b565b866000528260002060005b858110156112535781548a8201860152908301908401611238565b890184019650505b505050505092915050565b84815260806020820152600061127f60808301866111e9565b6001600160a01b03949094166040830152506060015292915050565b6000602082840312156112ad57600080fd5b5051919050565b634e487b7160e01b600052601160045260246000fd5b818103818111156112dd576112dd6112b4565b92915050565b8281526040602082015260006112fc60408301846111e9565b949350505050565b600060018201611316576113166112b4565b5060010190565b6000825161132f818460208701610dd7565b9190910192915050565b60006020828403121561134b57600080fd5b81518015158114610e3a57600080fd5b808201808211156112dd576112dd6112b456fea26469706673582212201389facf5400659d9285f5abaaf2609dba734f1a1ce93f460cbed4f818488c9864736f6c63430008120033",
  "devdoc": {
    "events": {
      "DisputeRequest(address,uint256,uint256,uint256,string)": {
        "details": "To be emitted when a dispute is created to link the correct meta-evidence to the disputeID.",
        "params": {
          "_arbitrableDisputeID": "The identifier of the dispute in the Arbitrable contract.",
          "_arbitrator": "The arbitrator of the contract.",
          "_externalDisputeID": "An identifier created outside Kleros by the protocol requesting arbitration.",
          "_templateId": "The identifier of the dispute template. Should not be used with _templateUri.",
          "_templateUri": "The URI to the dispute template. For example on IPFS: starting with '/ipfs/'. Should not be used with _templateId."
        }
      },
      "DisputeTemplate(uint256,string,string)": {
        "details": "To be emitted when a new dispute template is created.",
        "params": {
          "_templateData": "The template data.",
          "_templateId": "The identifier of the dispute template.",
          "_templateTag": "An optional tag for the dispute template, such as \"registration\" or \"removal\"."
        }
      },
      "Ruling(address,uint256,uint256)": {
        "details": "To be raised when a ruling is given.",
        "params": {
          "_arbitrator": "The arbitrator giving the ruling.",
          "_disputeID": "The identifier of the dispute in the Arbitrator contract.",
          "_ruling": "The ruling which was given."
        }
      }
    },
    "kind": "dev",
    "methods": {
      "constructor": {
        "details": "Constructor",
        "params": {
          "_arbitrator": "The arbitrator to rule on created disputes.",
          "_templateData": "The dispute template data.",
          "_weth": "The WETH token."
        }
      },
      "createDispute(string)": {
        "details": "Calls createDispute function of the specified arbitrator to create a dispute. Note that we dont need to check that msg.value is enough to pay arbitration fees as its the responsibility of the arbitrator contract.",
        "params": {
          "_action": "The action that requires arbitration."
        },
        "returns": {
          "disputeID": "Dispute id (on arbitrator side) of the dispute created."
        }
      },
      "createDispute(string,uint256)": {
        "details": "Calls createDispute function of the specified arbitrator to create a dispute. Note that we dont need to check that msg.value is enough to pay arbitration fees as its the responsibility of the arbitrator contract.",
        "params": {
          "_action": "The action that requires arbitration.",
          "_feeInWeth": "Amount of fees in WETH for the arbitrator."
        },
        "returns": {
          "disputeID": "Dispute id (on arbitrator side) of the dispute created."
        }
      },
      "rule(uint256,uint256)": {
        "details": "To be called by the arbitrator of the dispute, to declare the winning ruling.",
        "params": {
          "_externalDisputeID": "ID of the dispute in arbitrator contract.",
          "_ruling": "The ruling choice of the arbitration."
        }
      }
    },
    "title": "ArbitrableExample An example of an arbitrable contract which connects to the arbitator that implements the updated interface.",
    "version": 1
  },
  "userdoc": {
    "kind": "user",
    "methods": {},
    "version": 1
  },
  "storageLayout": {
    "storage": [
      {
        "astId": 153,
        "contract": "src/arbitration/arbitrables/ArbitrableExample.sol:ArbitrableExample",
        "label": "arbitrator",
        "offset": 0,
        "slot": "0",
        "type": "t_contract(IArbitratorV2)641"
      },
      {
        "astId": 155,
        "contract": "src/arbitration/arbitrables/ArbitrableExample.sol:ArbitrableExample",
        "label": "disputeTemplates",
        "offset": 0,
        "slot": "1",
        "type": "t_uint256"
      },
      {
        "astId": 157,
        "contract": "src/arbitration/arbitrables/ArbitrableExample.sol:ArbitrableExample",
        "label": "arbitratorExtraData",
        "offset": 0,
        "slot": "2",
        "type": "t_bytes_storage"
      },
      {
        "astId": 164,
        "contract": "src/arbitration/arbitrables/ArbitrableExample.sol:ArbitrableExample",
        "label": "externalIDtoLocalID",
        "offset": 0,
        "slot": "3",
        "type": "t_mapping(t_uint256,t_uint256)"
      },
      {
        "astId": 168,
        "contract": "src/arbitration/arbitrables/ArbitrableExample.sol:ArbitrableExample",
        "label": "disputes",
        "offset": 0,
        "slot": "4",
        "type": "t_array(t_struct(DisputeStruct)144_storage)dyn_storage"
      }
    ],
    "types": {
      "t_array(t_struct(DisputeStruct)144_storage)dyn_storage": {
        "base": "t_struct(DisputeStruct)144_storage",
        "encoding": "dynamic_array",
        "label": "struct ArbitrableExample.DisputeStruct[]",
        "numberOfBytes": "32"
      },
      "t_bool": {
        "encoding": "inplace",
        "label": "bool",
        "numberOfBytes": "1"
      },
      "t_bytes_storage": {
        "encoding": "bytes",
        "label": "bytes",
        "numberOfBytes": "32"
      },
      "t_contract(IArbitratorV2)641": {
        "encoding": "inplace",
        "label": "contract IArbitratorV2",
        "numberOfBytes": "20"
      },
      "t_mapping(t_uint256,t_uint256)": {
        "encoding": "mapping",
        "key": "t_uint256",
        "label": "mapping(uint256 => uint256)",
        "numberOfBytes": "32",
        "value": "t_uint256"
      },
      "t_struct(DisputeStruct)144_storage": {
        "encoding": "inplace",
        "label": "struct ArbitrableExample.DisputeStruct",
        "members": [
          {
            "astId": 139,
            "contract": "src/arbitration/arbitrables/ArbitrableExample.sol:ArbitrableExample",
            "label": "isRuled",
            "offset": 0,
            "slot": "0",
            "type": "t_bool"
          },
          {
            "astId": 141,
            "contract": "src/arbitration/arbitrables/ArbitrableExample.sol:ArbitrableExample",
            "label": "ruling",
            "offset": 0,
            "slot": "1",
            "type": "t_uint256"
          },
          {
            "astId": 143,
            "contract": "src/arbitration/arbitrables/ArbitrableExample.sol:ArbitrableExample",
            "label": "numberOfRulingOptions",
            "offset": 0,
            "slot": "2",
            "type": "t_uint256"
          }
        ],
        "numberOfBytes": "96"
      },
      "t_uint256": {
        "encoding": "inplace",
        "label": "uint256",
        "numberOfBytes": "32"
      }
    }
  }
}