{
  "address": "0x4d18b9792e0D8F5aF696E71dBEDff8fcBEed6e8C",
  "abi": [
    {
      "inputs": [
        {
          "internalType": "contract IArbitrator",
          "name": "_arbitrator",
          "type": "address"
        },
        {
          "internalType": "string",
          "name": "_metaEvidence",
          "type": "string"
        },
        {
          "internalType": "contract ERC20",
          "name": "_weth",
          "type": "address"
        }
      ],
      "stateMutability": "nonpayable",
      "type": "constructor"
    },
    {
      "anonymous": false,
      "inputs": [
        {
          "indexed": true,
          "internalType": "contract IArbitrator",
          "name": "_arbitrator",
          "type": "address"
        },
        {
          "indexed": true,
          "internalType": "uint256",
          "name": "_disputeID",
          "type": "uint256"
        },
        {
          "indexed": false,
          "internalType": "uint256",
          "name": "_metaEvidenceID",
          "type": "uint256"
        },
        {
          "indexed": false,
          "internalType": "uint256",
          "name": "_evidenceGroupID",
          "type": "uint256"
        }
      ],
      "name": "Dispute",
      "type": "event"
    },
    {
      "anonymous": false,
      "inputs": [
        {
          "indexed": true,
          "internalType": "uint256",
          "name": "_metaEvidenceID",
          "type": "uint256"
        },
        {
          "indexed": false,
          "internalType": "string",
          "name": "_evidence",
          "type": "string"
        }
      ],
      "name": "MetaEvidence",
      "type": "event"
    },
    {
      "anonymous": false,
      "inputs": [
        {
          "indexed": true,
          "internalType": "contract IArbitrator",
          "name": "_arbitrator",
          "type": "address"
        },
        {
          "indexed": true,
          "internalType": "uint256",
          "name": "_disputeID",
          "type": "uint256"
        },
        {
          "indexed": false,
          "internalType": "uint256",
          "name": "_ruling",
          "type": "uint256"
        }
      ],
      "name": "Ruling",
      "type": "event"
    },
    {
      "inputs": [],
      "name": "arbitrator",
      "outputs": [
        {
          "internalType": "contract IArbitrator",
          "name": "",
          "type": "address"
        }
      ],
      "stateMutability": "view",
      "type": "function"
    },
    {
      "inputs": [
        {
          "internalType": "contract IArbitrator",
          "name": "_arbitrator",
          "type": "address"
        }
      ],
      "name": "changeArbitrator",
      "outputs": [],
      "stateMutability": "nonpayable",
      "type": "function"
    },
    {
      "inputs": [
        {
          "internalType": "string",
          "name": "_metaEvidence",
          "type": "string"
        }
      ],
      "name": "changeMetaEvidence",
      "outputs": [],
      "stateMutability": "nonpayable",
      "type": "function"
    },
    {
      "inputs": [
        {
          "internalType": "uint256",
          "name": "_numberOfRulingOptions",
          "type": "uint256"
        },
        {
          "internalType": "bytes",
          "name": "_arbitratorExtraData",
          "type": "bytes"
        },
        {
          "internalType": "uint256",
          "name": "_evidenceGroupID",
          "type": "uint256"
        },
        {
          "internalType": "uint256",
          "name": "_feeInWeth",
          "type": "uint256"
        }
      ],
      "name": "createDispute",
      "outputs": [
        {
          "internalType": "uint256",
          "name": "disputeID",
          "type": "uint256"
        }
      ],
      "stateMutability": "payable",
      "type": "function"
    },
    {
      "inputs": [
        {
          "internalType": "uint256",
          "name": "",
          "type": "uint256"
        }
      ],
      "name": "disputes",
      "outputs": [
        {
          "internalType": "bool",
          "name": "isRuled",
          "type": "bool"
        },
        {
          "internalType": "uint256",
          "name": "ruling",
          "type": "uint256"
        },
        {
          "internalType": "uint256",
          "name": "numberOfRulingOptions",
          "type": "uint256"
        }
      ],
      "stateMutability": "view",
      "type": "function"
    },
    {
      "inputs": [
        {
          "internalType": "uint256",
          "name": "",
          "type": "uint256"
        }
      ],
      "name": "externalIDtoLocalID",
      "outputs": [
        {
          "internalType": "uint256",
          "name": "",
          "type": "uint256"
        }
      ],
      "stateMutability": "view",
      "type": "function"
    },
    {
      "inputs": [],
      "name": "governor",
      "outputs": [
        {
          "internalType": "address",
          "name": "",
          "type": "address"
        }
      ],
      "stateMutability": "view",
      "type": "function"
    },
    {
      "inputs": [],
      "name": "metaEvidenceID",
      "outputs": [
        {
          "internalType": "uint256",
          "name": "",
          "type": "uint256"
        }
      ],
      "stateMutability": "view",
      "type": "function"
    },
    {
      "inputs": [
        {
          "internalType": "uint256",
          "name": "_externalDisputeID",
          "type": "uint256"
        },
        {
          "internalType": "uint256",
          "name": "_ruling",
          "type": "uint256"
        }
      ],
      "name": "rule",
      "outputs": [],
      "stateMutability": "nonpayable",
      "type": "function"
    },
    {
      "inputs": [],
      "name": "weth",
      "outputs": [
        {
          "internalType": "contract ERC20",
          "name": "",
          "type": "address"
        }
      ],
      "stateMutability": "view",
      "type": "function"
    }
  ],
  "transactionHash": "0xd2e4bf945ec3db9e08b48e6183e07f82009b3aa6a7e26cafbf6b971ebe12e47d",
  "args": [
    "0x34E520dc1d2Db660113b64724e14CEdCD01Ee879",
    "INIT ME",
    "0x014A442480DbAD767b7615E55E271799889FA1a7"
  ],
  "numDeployments": 3,
  "solcInputHash": "1354533f265c9873f8b6caaf89286122",
  "bytecode": "0x60c06040523480156200001157600080fd5b5060405162000e3738038062000e37833981016040819052620000349162000117565b33608052600080546001600160a01b0319166001600160a01b0385811691909117909155811660a0526001546040517f61606860eb6c87306811e2695215385101daab53bd6ab4e9f9049aead9363c7d9062000092908590620001f9565b60405180910390a25050506200022e565b6001600160a01b0381168114620000b957600080fd5b50565b634e487b7160e01b600052604160045260246000fd5b60005b83811015620000ef578181015183820152602001620000d5565b83811115620000ff576000848401525b50505050565b80516200011281620000a3565b919050565b6000806000606084860312156200012d57600080fd5b83516200013a81620000a3565b60208501519093506001600160401b03808211156200015857600080fd5b818601915086601f8301126200016d57600080fd5b815181811115620001825762000182620000bc565b604051601f8201601f19908116603f01168101908382118183101715620001ad57620001ad620000bc565b81604052828152896020848701011115620001c757600080fd5b620001da836020830160208801620000d2565b8096505050505050620001f06040850162000105565b90509250925092565b60208152600082518060208401526200021a816040850160208701620000d2565b601f01601f19169190910160400192915050565b60805160a051610bc86200026f6000396000818161011b015281816104fb01526105f401526000818160a8015281816107a3015261083a0152610bc86000f3fe6080604052600436106100915760003560e01c8063689a118b11610059578063689a118b1461019b5780636cc6cde1146101b157806390765279146101d1578063c21ae061146101f1578063fc548f081461021e57600080fd5b80630c340a2414610096578063311a6c56146100e75780633fc8cef3146101095780634b5960a31461013d578063564a565d1461015e575b600080fd5b3480156100a257600080fd5b506100ca7f000000000000000000000000000000000000000000000000000000000000000081565b6040516001600160a01b0390911681526020015b60405180910390f35b3480156100f357600080fd5b50610107610102366004610899565b61023e565b005b34801561011557600080fd5b506100ca7f000000000000000000000000000000000000000000000000000000000000000081565b61015061014b3660046108bb565b6103d7565b6040519081526020016100de565b34801561016a57600080fd5b5061017e610179366004610946565b610761565b6040805193151584526020840192909252908201526060016100de565b3480156101a757600080fd5b5061015060015481565b3480156101bd57600080fd5b506000546100ca906001600160a01b031681565b3480156101dd57600080fd5b506101076101ec366004610975565b610798565b3480156101fd57600080fd5b5061015061020c366004610946565b60026020526000908152604090205481565b34801561022a57600080fd5b50610107610239366004610a26565b61082f565b600082815260026020526040812054600380549192918390811061026457610264610a56565b600091825260208220915460039190910290910191506001600160a01b031633146102e45760405162461bcd60e51b815260206004820152602560248201527f4f6e6c79207468652061726269747261746f722063616e2065786563757465206044820152643a3434b99760d91b60648201526084015b60405180910390fd5b806002015483111561032a5760405162461bcd60e51b815260206004820152600f60248201526e24b73b30b634b210393ab634b7339760891b60448201526064016102db565b805460ff16156103885760405162461bcd60e51b8152602060048201526024808201527f54686973206469737075746520686173206265656e2072756c656420616c726560448201526330b23c9760e11b60648201526084016102db565b805460ff1916600190811782558101839055604051838152849033907f394027a5fa6e098a1191094d1719d6929b9abc535fcc0c8f448d6a4e756222769060200160405180910390a350505050565b6000600186116104295760405162461bcd60e51b815260206004820152601b60248201527f496e636f7272656374206e756d626572206f662063686f69636573000000000060448201526064016102db565b60038054604080516060810182526000808252602082018181528284018c81526001860187559186905291517fc2575a0e9e593c00f959f8c92f12db2869c3395a3b0502d05e2516446f71f85b958502958601805460ff191691151591909117905590517fc2575a0e9e593c00f959f8c92f12db2869c3395a3b0502d05e2516446f71f85c850155517fc2575a0e9e593c00f959f8c92f12db2869c3395a3b0502d05e2516446f71f85d9093019290925590516323b872dd60e01b8152336004820152306024820152604481018490527f00000000000000000000000000000000000000000000000000000000000000006001600160a01b0316906323b872dd90606401602060405180830381600087803b15801561054757600080fd5b505af115801561055b573d6000803e3d6000fd5b505050506040513d601f19601f8201168201806040525081019061057f9190610a6c565b6105cb5760405162461bcd60e51b815260206004820152601f60248201527f4e6f7420656e6f756768205745544820666f72206172626974726174696f6e0060448201526064016102db565b600054604051633950935160e01b81526001600160a01b039182166004820152602481018590527f000000000000000000000000000000000000000000000000000000000000000090911690633950935190604401602060405180830381600087803b15801561063a57600080fd5b505af115801561064e573d6000803e3d6000fd5b505050506040513d601f19601f820116820180604052508101906106729190610a6c565b5060005460405163c13517e160e01b81526001600160a01b039091169063c13517e1906106a7908a908a908a90600401610a8e565b602060405180830381600087803b1580156106c157600080fd5b505af11580156106d5573d6000803e3d6000fd5b505050506040513d601f19601f820116820180604052508101906106f99190610ac4565b60008181526002602090815260408083208590559154600154835190815291820188905292945084926001600160a01b0316917f74baab670a4015ab2f1b467c5252a96141a2573f2908e58a92081e80d3cfde3d910160405180910390a35095945050505050565b6003818154811061077157600080fd5b600091825260209091206003909102018054600182015460029092015460ff909116925083565b336001600160a01b037f000000000000000000000000000000000000000000000000000000000000000016146107e05760405162461bcd60e51b81526004016102db90610add565b6001600081546107ef90610b14565b9190508190557f61606860eb6c87306811e2695215385101daab53bd6ab4e9f9049aead9363c7d826040516108249190610b3d565b60405180910390a250565b336001600160a01b037f000000000000000000000000000000000000000000000000000000000000000016146108775760405162461bcd60e51b81526004016102db90610add565b600080546001600160a01b0319166001600160a01b0392909216919091179055565b600080604083850312156108ac57600080fd5b50508035926020909101359150565b6000806000806000608086880312156108d357600080fd5b85359450602086013567ffffffffffffffff808211156108f257600080fd5b818801915088601f83011261090657600080fd5b81358181111561091557600080fd5b89602082850101111561092757600080fd5b9699602092909201985095966040810135965060600135945092505050565b60006020828403121561095857600080fd5b5035919050565b634e487b7160e01b600052604160045260246000fd5b60006020828403121561098757600080fd5b813567ffffffffffffffff8082111561099f57600080fd5b818401915084601f8301126109b357600080fd5b8135818111156109c5576109c561095f565b604051601f8201601f19908116603f011681019083821181831017156109ed576109ed61095f565b81604052828152876020848701011115610a0657600080fd5b826020860160208301376000928101602001929092525095945050505050565b600060208284031215610a3857600080fd5b81356001600160a01b0381168114610a4f57600080fd5b9392505050565b634e487b7160e01b600052603260045260246000fd5b600060208284031215610a7e57600080fd5b81518015158114610a4f57600080fd5b83815260406020820152816040820152818360608301376000818301606090810191909152601f909201601f1916010192915050565b600060208284031215610ad657600080fd5b5051919050565b6020808252601e908201527f4e6f7420617574686f72697a65643a20676f7665726e6f72206f6e6c792e0000604082015260600190565b6000600019821415610b3657634e487b7160e01b600052601160045260246000fd5b5060010190565b600060208083528351808285015260005b81811015610b6a57858101830151858201604001528201610b4e565b81811115610b7c576000604083870101525b50601f01601f191692909201604001939250505056fea264697066735822122057a2290059f1cc8121d262c8077d42b47503d4dc4ea2f289ff11367897df263264736f6c63430008090033",
  "devdoc": {
    "kind": "dev",
    "methods": {
      "constructor": {
        "details": "Constructor",
        "params": {
          "_arbitrator": "The arbitrator to rule on created disputes.",
          "_metaEvidence": "The URI of the meta evidence object for evidence submissions requests."
        }
      },
      "createDispute(uint256,bytes,uint256,uint256)": {
        "details": "TRUSTED. Calls createDispute function of the specified arbitrator to create a dispute. Note that we dont need to check that msg.value is enough to pay arbitration fees as its the responsibility of the arbitrator contract.",
        "params": {
          "_arbitratorExtraData": "Extra data for the arbitrator.",
          "_evidenceGroupID": "Unique identifier of the evidence group that is linked to this dispute.",
          "_feeInWeth": "Amount of fees in WETH for the arbitrator.",
          "_numberOfRulingOptions": "Number of ruling options. Must be greater than 1, otherwise there is nothing to choose from."
        },
        "returns": {
          "disputeID": "Dispute id (on arbitrator side) of the dispute created."
        }
      },
      "rule(uint256,uint256)": {
        "details": "To be called by the arbitrator of the dispute, to declare the winning ruling.",
        "params": {
          "_externalDisputeID": "ID of the dispute in arbitrator contract.",
          "_ruling": "The ruling choice of the arbitration."
        }
      }
    },
    "title": "ArbitrableExample  An example of an arbitrable contract which connects to the arbitator that implements the updated interface.",
    "version": 1
  },
  "userdoc": {
    "kind": "user",
    "methods": {},
    "version": 1
  },
  "storageLayout": {
    "storage": [
      {
        "astId": 797,
        "contract": "src/arbitration/arbitrables/ArbitrableExample.sol:ArbitrableExample",
        "label": "arbitrator",
        "offset": 0,
        "slot": "0",
        "type": "t_contract(IArbitrator)775"
      },
      {
        "astId": 802,
        "contract": "src/arbitration/arbitrables/ArbitrableExample.sol:ArbitrableExample",
        "label": "metaEvidenceID",
        "offset": 0,
        "slot": "1",
        "type": "t_uint256"
      },
      {
        "astId": 806,
        "contract": "src/arbitration/arbitrables/ArbitrableExample.sol:ArbitrableExample",
        "label": "externalIDtoLocalID",
        "offset": 0,
        "slot": "2",
        "type": "t_mapping(t_uint256,t_uint256)"
      },
      {
        "astId": 810,
        "contract": "src/arbitration/arbitrables/ArbitrableExample.sol:ArbitrableExample",
        "label": "disputes",
        "offset": 0,
        "slot": "3",
        "type": "t_array(t_struct(DisputeStruct)792_storage)dyn_storage"
      }
    ],
    "types": {
      "t_array(t_struct(DisputeStruct)792_storage)dyn_storage": {
        "base": "t_struct(DisputeStruct)792_storage",
        "encoding": "dynamic_array",
        "label": "struct ArbitrableExample.DisputeStruct[]",
        "numberOfBytes": "32"
      },
      "t_bool": {
        "encoding": "inplace",
        "label": "bool",
        "numberOfBytes": "1"
      },
      "t_contract(IArbitrator)775": {
        "encoding": "inplace",
        "label": "contract IArbitrator",
        "numberOfBytes": "20"
      },
      "t_mapping(t_uint256,t_uint256)": {
        "encoding": "mapping",
        "key": "t_uint256",
        "label": "mapping(uint256 => uint256)",
        "numberOfBytes": "32",
        "value": "t_uint256"
      },
      "t_struct(DisputeStruct)792_storage": {
        "encoding": "inplace",
        "label": "struct ArbitrableExample.DisputeStruct",
        "members": [
          {
            "astId": 787,
            "contract": "src/arbitration/arbitrables/ArbitrableExample.sol:ArbitrableExample",
            "label": "isRuled",
            "offset": 0,
            "slot": "0",
            "type": "t_bool"
          },
          {
            "astId": 789,
            "contract": "src/arbitration/arbitrables/ArbitrableExample.sol:ArbitrableExample",
            "label": "ruling",
            "offset": 0,
            "slot": "1",
            "type": "t_uint256"
          },
          {
            "astId": 791,
            "contract": "src/arbitration/arbitrables/ArbitrableExample.sol:ArbitrableExample",
            "label": "numberOfRulingOptions",
            "offset": 0,
            "slot": "2",
            "type": "t_uint256"
          }
        ],
        "numberOfBytes": "96"
      },
      "t_uint256": {
        "encoding": "inplace",
        "label": "uint256",
        "numberOfBytes": "32"
      }
    }
  }
}