{
  "address": "0x87142b7E9C7D026776499120D902AF8896C07894",
  "abi": [
    {
      "inputs": [
        {
          "internalType": "address",
          "name": "_governor",
          "type": "address"
        },
        {
          "internalType": "contract IFastBridgeReceiver",
          "name": "_fastBridgeReceiver",
          "type": "address"
        },
        {
          "internalType": "address",
          "name": "_senderGateway",
          "type": "address"
        },
        {
          "internalType": "uint256",
          "name": "_senderChainID",
          "type": "uint256"
        },
        {
          "internalType": "contract IERC20",
          "name": "_weth",
          "type": "address"
        }
      ],
      "stateMutability": "nonpayable",
      "type": "constructor"
    },
    {
      "anonymous": false,
      "inputs": [
        {
          "indexed": true,
          "internalType": "uint96",
          "name": "_courtID",
          "type": "uint96"
        },
        {
          "indexed": false,
          "internalType": "uint256",
          "name": "_feeForJuror",
          "type": "uint256"
        }
      ],
      "name": "ArbitrationCostModified",
      "type": "event"
    },
    {
      "anonymous": false,
      "inputs": [
        {
          "indexed": true,
          "internalType": "uint256",
          "name": "_disputeID",
          "type": "uint256"
        },
        {
          "indexed": true,
          "internalType": "contract IArbitrable",
          "name": "_arbitrable",
          "type": "address"
        }
      ],
      "name": "DisputeCreation",
      "type": "event"
    },
    {
      "anonymous": false,
      "inputs": [
        {
          "indexed": false,
          "internalType": "bytes32",
          "name": "disputeHash",
          "type": "bytes32"
        },
        {
          "indexed": false,
          "internalType": "bytes32",
          "name": "blockhash",
          "type": "bytes32"
        },
        {
          "indexed": false,
          "internalType": "uint256",
          "name": "localDisputeID",
          "type": "uint256"
        },
        {
          "indexed": false,
          "internalType": "uint256",
          "name": "_choices",
          "type": "uint256"
        },
        {
          "indexed": false,
          "internalType": "bytes",
          "name": "_extraData",
          "type": "bytes"
        },
        {
          "indexed": false,
          "internalType": "address",
          "name": "arbitrable",
          "type": "address"
        }
      ],
      "name": "OutgoingDispute",
      "type": "event"
    },
    {
      "anonymous": false,
      "inputs": [
        {
          "indexed": true,
          "internalType": "contract IArbitrable",
          "name": "_arbitrable",
          "type": "address"
        },
        {
          "indexed": true,
          "internalType": "uint256",
          "name": "_disputeID",
          "type": "uint256"
        },
        {
          "indexed": false,
          "internalType": "uint256",
          "name": "_ruling",
          "type": "uint256"
        }
      ],
      "name": "Ruling",
      "type": "event"
    },
    {
      "inputs": [],
      "name": "MIN_JURORS",
      "outputs": [
        {
          "internalType": "uint256",
          "name": "",
          "type": "uint256"
        }
      ],
      "stateMutability": "view",
      "type": "function"
    },
    {
      "inputs": [
        {
          "internalType": "bytes",
          "name": "_extraData",
          "type": "bytes"
        }
      ],
      "name": "arbitrationCost",
      "outputs": [
        {
          "internalType": "uint256",
          "name": "cost",
          "type": "uint256"
        }
      ],
      "stateMutability": "view",
      "type": "function"
    },
    {
      "inputs": [
        {
          "internalType": "uint96",
          "name": "_courtID",
          "type": "uint96"
        },
        {
          "internalType": "uint256",
          "name": "_feeForJuror",
          "type": "uint256"
        }
      ],
      "name": "changeCourtJurorFee",
      "outputs": [],
      "stateMutability": "nonpayable",
      "type": "function"
    },
    {
      "inputs": [
        {
          "internalType": "contract IFastBridgeReceiver",
          "name": "_fastBridgeReceiver",
          "type": "address"
        },
        {
          "internalType": "uint256",
          "name": "_gracePeriod",
          "type": "uint256"
        }
      ],
      "name": "changeFastbridge",
      "outputs": [],
      "stateMutability": "nonpayable",
      "type": "function"
    },
    {
      "inputs": [
        {
          "internalType": "uint256",
          "name": "",
          "type": "uint256"
        },
        {
          "internalType": "bytes",
          "name": "",
          "type": "bytes"
        }
      ],
      "name": "createDispute",
      "outputs": [
        {
          "internalType": "uint256",
          "name": "disputeID",
          "type": "uint256"
        }
      ],
      "stateMutability": "payable",
      "type": "function"
    },
    {
      "inputs": [
        {
          "internalType": "uint256",
          "name": "_choices",
          "type": "uint256"
        },
        {
          "internalType": "bytes",
          "name": "_extraData",
          "type": "bytes"
        },
        {
          "internalType": "uint256",
          "name": "_amount",
          "type": "uint256"
        }
      ],
      "name": "createDisputeERC20",
      "outputs": [
        {
          "internalType": "uint256",
          "name": "disputeID",
          "type": "uint256"
        }
      ],
      "stateMutability": "nonpayable",
      "type": "function"
    },
    {
      "inputs": [],
      "name": "depreciatedFastBridgeExpiration",
      "outputs": [
        {
          "internalType": "uint256",
          "name": "",
          "type": "uint256"
        }
      ],
      "stateMutability": "view",
      "type": "function"
    },
    {
      "inputs": [],
      "name": "depreciatedFastbridge",
      "outputs": [
        {
          "internalType": "contract IFastBridgeReceiver",
          "name": "",
          "type": "address"
        }
      ],
      "stateMutability": "view",
      "type": "function"
    },
    {
      "inputs": [
        {
          "internalType": "bytes32",
          "name": "_disputeHash",
          "type": "bytes32"
        }
      ],
      "name": "disputeHashToForeignID",
      "outputs": [
        {
          "internalType": "uint256",
          "name": "",
          "type": "uint256"
        }
      ],
      "stateMutability": "view",
      "type": "function"
    },
    {
      "inputs": [
        {
          "internalType": "bytes32",
          "name": "",
          "type": "bytes32"
        }
      ],
      "name": "disputeHashtoDisputeData",
      "outputs": [
        {
          "internalType": "uint248",
          "name": "id",
          "type": "uint248"
        },
        {
          "internalType": "bool",
          "name": "ruled",
          "type": "bool"
        },
        {
          "internalType": "address",
          "name": "arbitrable",
          "type": "address"
        },
        {
          "internalType": "uint256",
          "name": "paid",
          "type": "uint256"
        },
        {
          "internalType": "address",
          "name": "relayer",
          "type": "address"
        }
      ],
      "stateMutability": "view",
      "type": "function"
    },
    {
      "inputs": [],
      "name": "fastBridgeReceiver",
      "outputs": [
        {
          "internalType": "contract IFastBridgeReceiver",
          "name": "",
          "type": "address"
        }
      ],
      "stateMutability": "view",
      "type": "function"
    },
    {
      "inputs": [
        {
          "internalType": "uint96",
          "name": "",
          "type": "uint96"
        }
      ],
      "name": "feeForJuror",
      "outputs": [
        {
          "internalType": "uint256",
          "name": "",
          "type": "uint256"
        }
      ],
      "stateMutability": "view",
      "type": "function"
    },
    {
      "inputs": [],
      "name": "governor",
      "outputs": [
        {
          "internalType": "address",
          "name": "",
          "type": "address"
        }
      ],
      "stateMutability": "view",
      "type": "function"
    },
    {
      "inputs": [
        {
          "internalType": "address",
          "name": "_messageSender",
          "type": "address"
        },
        {
          "internalType": "bytes32",
          "name": "_disputeHash",
          "type": "bytes32"
        },
        {
          "internalType": "uint256",
          "name": "_ruling",
          "type": "uint256"
        },
        {
          "internalType": "address",
          "name": "_relayer",
          "type": "address"
        }
      ],
      "name": "relayRule",
      "outputs": [],
      "stateMutability": "nonpayable",
      "type": "function"
    },
    {
      "inputs": [],
      "name": "senderChainID",
      "outputs": [
        {
          "internalType": "uint256",
          "name": "",
          "type": "uint256"
        }
      ],
      "stateMutability": "view",
      "type": "function"
    },
    {
      "inputs": [],
      "name": "senderGateway",
      "outputs": [
        {
          "internalType": "address",
          "name": "",
          "type": "address"
        }
      ],
      "stateMutability": "view",
      "type": "function"
    },
    {
      "inputs": [],
      "name": "weth",
      "outputs": [
        {
          "internalType": "contract IERC20",
          "name": "",
          "type": "address"
        }
      ],
      "stateMutability": "view",
      "type": "function"
    },
    {
      "inputs": [
        {
          "internalType": "bytes32",
          "name": "_disputeHash",
          "type": "bytes32"
        }
      ],
      "name": "withdrawFees",
      "outputs": [],
      "stateMutability": "nonpayable",
      "type": "function"
    }
  ],
  "transactionHash": "0xc66218d80b9f21642728c230fb9f6bb598207929c32d12e48a8c92d717a06614",
  "args": [
    "0xF50E77f2A2B6138D16c6c7511562E5C33c4B15A3",
    "0x26858D60FE92b50b34e236B46874e02724344275",
    "0x247AC8F775B77075D9eA5a895Dee0739a46fA589",
    "0x0000000000000000000000000000000000000000000000000000000000066eed",
    "0x014A442480DbAD767b7615E55E271799889FA1a7"
  ],
  "numDeployments": 2,
  "solcInputHash": "274a15cfb06cddd0a2be7e47f1a3d37a",
  "bytecode": "0x60e0604052600160005534801561001557600080fd5b50604051620011573803806200115783398101604081905261003691610090565b600280546001600160a01b03199081166001600160a01b0397881617909155600380549091169486169490941790935590831660a0526080521660c0526100fb565b6001600160a01b038116811461008d57600080fd5b50565b600080600080600060a086880312156100a857600080fd5b85516100b381610078565b60208701519095506100c481610078565b60408701519094506100d581610078565b6060870151608088015191945092506100ed81610078565b809150509295509295909350565b60805160a05160c05161101e62000139600039600081816101a30152610a820152600081816102c101526107e301526000610204015261101e6000f3fe6080604052600436106100e95760003560e01c8063a60a4db511610085578063a60a4db51461027c578063c13517e11461029c578063ce0aaf95146102af578063d3c617ff146102e3578063d96a36ca14610385578063eaff425a146103a5578063ebb71194146103ba578063f7434ea9146103da578063f7f56752146103fa57600080fd5b80630c340a24146100ee5780632d5db96d1461012b5780632e1db8901461014d5780633fc8cef31461019157806345c90441146101c55780634def5455146101f257806367c5194714610226578063979f8e65146102465780639ff66f6414610266575b600080fd5b3480156100fa57600080fd5b5060025461010e906001600160a01b031681565b6040516001600160a01b0390911681526020015b60405180910390f35b34801561013757600080fd5b5061014b610146366004610beb565b61041a565b005b34801561015957600080fd5b50610183610168366004610c17565b6000908152600660205260409020546001600160f81b031690565b604051908152602001610122565b34801561019d57600080fd5b5061010e7f000000000000000000000000000000000000000000000000000000000000000081565b3480156101d157600080fd5b506101836101e0366004610c4c565b60016020526000908152604090205481565b3480156101fe57600080fd5b506101837f000000000000000000000000000000000000000000000000000000000000000081565b34801561023257600080fd5b5061014b610241366004610c6e565b610507565b34801561025257600080fd5b50610183610261366004610cd3565b61058a565b34801561027257600080fd5b5061018360055481565b34801561028857600080fd5b5061014b610297366004610d26565b610758565b6101836102aa366004610d70565b610984565b3480156102bb57600080fd5b5061010e7f000000000000000000000000000000000000000000000000000000000000000081565b3480156102ef57600080fd5b506103476102fe366004610c17565b60066020526000908152604090208054600182015460028301546003909301546001600160f81b03831693600160f81b90930460ff16926001600160a01b039283169290911685565b604080516001600160f81b03909616865293151560208601526001600160a01b0392831693850193909352606084015216608082015260a001610122565b34801561039157600080fd5b5060035461010e906001600160a01b031681565b3480156103b157600080fd5b50610183600381565b3480156103c657600080fd5b5061014b6103d5366004610c17565b6109cf565b3480156103e657600080fd5b506101836103f5366004610dbc565b610b06565b34801561040657600080fd5b5060045461010e906001600160a01b031681565b6002546001600160a01b0316331461044d5760405162461bcd60e51b815260040161044490610dfe565b60405180910390fd5b80826001600160a01b031663b5b7a1846040518163ffffffff1660e01b815260040160206040518083038186803b15801561048757600080fd5b505afa15801561049b573d6000803e3d6000fd5b505050506040513d601f19601f820116820180604052508101906104bf9190610e40565b6104c99042610e6f565b6104d39190610e6f565b6005555060038054600480546001600160a01b038084166001600160a01b0319928316179092559091169216919091179055565b6002546001600160a01b031633146105315760405162461bcd60e51b815260040161044490610dfe565b6001600160601b03821660008181526001602052604090819020839055517f20a6ef9c48f3a1ae927e70bc34e82d974c53d3c98c8fd9e731c4bacd5842c5969061057e9084815260200190565b60405180910390a25050565b60006105968484610b06565b8210156105e55760405162461bcd60e51b815260206004820152601f60248201527f4e6f74207061696420656e6f75676820666f72206172626974726174696f6e006044820152606401610444565b6000805490806105f483610e87565b90915550905046600081610609600143610ea2565b4084898989336040516020016106259796959493929190610eb9565b60408051601f19818403018152828252805160209182012060a0840183526001600160f81b038088168552600085840181815233878701908152606088018c815260808901848152868552600690975296909220965190511515600160f81b02921691909117855551600185810180546001600160a01b039384166001600160a01b031991821617909155945160028701559251600390950180549590911694909316939093179091559091507f0d14de2c628befa6eb7dc5c0b952832c96822914f589200f72acb5d8869982469082906107009043610ea2565b40858a8a8a336040516107199796959493929190610f19565b60405180910390a1604051339084907f141dfc18aa6a56fc816f44f0e9e2f1ebc92b15ab167770e17db5b084c10ed99590600090a35050949350505050565b6003546001600160a01b031633148061078757506005544210801561078757506004546001600160a01b031633145b6107e15760405162461bcd60e51b815260206004820152602560248201527f416363657373206e6f7420616c6c6f7765643a2046617374204272696467652060448201526437b7363c9760d91b6064820152608401610444565b7f00000000000000000000000000000000000000000000000000000000000000006001600160a01b0316846001600160a01b0316146108625760405162461bcd60e51b815260206004820181905260248201527f4f6e6c792074686520686f6d656761746577617920697320616c6c6f7765642e6044820152606401610444565b600083815260066020526040902080546001600160f81b03166108975760405162461bcd60e51b815260040161044490610f77565b8054600160f81b900460ff16156108e45760405162461bcd60e51b815260206004820152601160248201527043616e6e6f742072756c6520747769636560781b6044820152606401610444565b80546001600160f81b0316600160f81b811782556003820180546001600160a01b038581166001600160a01b031990921691909117909155600183015460405163188d362b60e11b81526004810193909352602483018690521690819063311a6c5690604401600060405180830381600087803b15801561096457600080fd5b505af1158015610978573d6000803e3d6000fd5b50505050505050505050565b60405162461bcd60e51b815260206004820152601b60248201527f466565732073686f756c64206265207061696420696e205745544800000000006044820152600090606401610444565b600081815260066020526040902080546001600160f81b0316610a045760405162461bcd60e51b815260040161044490610f77565b8054600160f81b900460ff16610a4c5760405162461bcd60e51b815260206004820152600d60248201526c139bdd081c9d5b1959081e595d609a1b6044820152606401610444565b6002810180546000909155600382015460405163a9059cbb60e01b81526001600160a01b039182166004820152602481018390527f00000000000000000000000000000000000000000000000000000000000000009091169063a9059cbb90604401602060405180830381600087803b158015610ac857600080fd5b505af1158015610adc573d6000803e3d6000fd5b505050506040513d601f19601f82011682018060405250810190610b009190610fa7565b50505050565b6000806000610b4a85858080601f016020809104026020016040519081016040528093929190818152602001838380828437600092019190915250610b7c92505050565b6001600160601b0382166000908152600160205260409020549193509150610b73908290610fc9565b95945050505050565b6000806040835110610bc75750506020818101516040808401516001600160601b03831660009081526001909452922054909190610bb957600091505b80610bc2575060035b915091565b50600090506003915091565b6001600160a01b0381168114610be857600080fd5b50565b60008060408385031215610bfe57600080fd5b8235610c0981610bd3565b946020939093013593505050565b600060208284031215610c2957600080fd5b5035919050565b80356001600160601b0381168114610c4757600080fd5b919050565b600060208284031215610c5e57600080fd5b610c6782610c30565b9392505050565b60008060408385031215610c8157600080fd5b610c0983610c30565b60008083601f840112610c9c57600080fd5b50813567ffffffffffffffff811115610cb457600080fd5b602083019150836020828501011115610ccc57600080fd5b9250929050565b60008060008060608587031215610ce957600080fd5b84359350602085013567ffffffffffffffff811115610d0757600080fd5b610d1387828801610c8a565b9598909750949560400135949350505050565b60008060008060808587031215610d3c57600080fd5b8435610d4781610bd3565b935060208501359250604085013591506060850135610d6581610bd3565b939692955090935050565b600080600060408486031215610d8557600080fd5b83359250602084013567ffffffffffffffff811115610da357600080fd5b610daf86828701610c8a565b9497909650939450505050565b60008060208385031215610dcf57600080fd5b823567ffffffffffffffff811115610de657600080fd5b610df285828601610c8a565b90969095509350505050565b60208082526022908201527f416363657373206e6f7420616c6c6f7765643a20476f7665726e6f72206f6e6c6040820152613c9760f11b606082015260800190565b600060208284031215610e5257600080fd5b5051919050565b634e487b7160e01b600052601160045260246000fd5b60008219821115610e8257610e82610e59565b500190565b6000600019821415610e9b57610e9b610e59565b5060010190565b600082821015610eb457610eb4610e59565b500390565b8781528660208201526c6372656174654469737075746560981b604082015285604d82015284606d8201528284608d83013760609190911b6bffffffffffffffffffffffff1916608d919092019081019190915260a10195945050505050565b87815286602082015285604082015284606082015260c060808201528260c0820152828460e0830137600081840160e0908101919091526001600160a01b039290921660a0820152601f909201601f19169091010195945050505050565b602080825260169082015275111a5cdc1d5d1948191bd95cc81b9bdd08195e1a5cdd60521b604082015260600190565b600060208284031215610fb957600080fd5b81518015158114610c6757600080fd5b6000816000190483118215151615610fe357610fe3610e59565b50029056fea2646970667358221220dd71b48d89896f779000e464425d5a23f5dc452fd7622b881f1c4c2ccb429c0864736f6c63430008090033",
  "devdoc": {
    "kind": "dev",
    "methods": {
      "arbitrationCost(bytes)": {
        "details": "Compute the cost of arbitration. It is recommended not to increase it often, as it can be highly time and gas consuming for the arbitrated contracts to cope with fee augmentation.",
        "params": {
          "_extraData": "Can be used to give additional info on the dispute to be created."
        },
        "returns": {
          "cost": "Required cost of arbitration."
        }
      },
      "changeCourtJurorFee(uint96,uint256)": {
        "details": "Changes the `feeForJuror` property value of a specified court.",
        "params": {
          "_courtID": "The ID of the court.",
          "_feeForJuror": "The new value for the `feeForJuror` property value."
        }
      },
      "changeFastbridge(address,uint256)": {
        "details": "Changes the fastBridge, useful to increase the claim deposit.",
        "params": {
          "_fastBridgeReceiver": "The address of the new fastBridge.",
          "_gracePeriod": "The duration to accept messages from the deprecated bridge (if at all)."
        }
      }
    },
    "version": 1
  },
  "userdoc": {
    "kind": "user",
    "methods": {
      "relayRule(address,bytes32,uint256,address)": {
        "notice": "Relay the rule call from the home gateway to the arbitrable."
      }
    },
    "notice": "Foreign Gateway Counterpart of `HomeGateway`",
    "version": 1
  },
  "storageLayout": {
    "storage": [
      {
        "astId": 15102,
        "contract": "src/gateway/ForeignGatewayOnGnosis.sol:ForeignGatewayOnGnosis",
        "label": "localDisputeID",
        "offset": 0,
        "slot": "0",
        "type": "t_uint256"
      },
      {
        "astId": 15106,
        "contract": "src/gateway/ForeignGatewayOnGnosis.sol:ForeignGatewayOnGnosis",
        "label": "feeForJuror",
        "offset": 0,
        "slot": "1",
        "type": "t_mapping(t_uint96,t_uint256)"
      },
      {
        "astId": 15108,
        "contract": "src/gateway/ForeignGatewayOnGnosis.sol:ForeignGatewayOnGnosis",
        "label": "governor",
        "offset": 0,
        "slot": "2",
        "type": "t_address"
      },
      {
        "astId": 15111,
        "contract": "src/gateway/ForeignGatewayOnGnosis.sol:ForeignGatewayOnGnosis",
        "label": "fastBridgeReceiver",
        "offset": 0,
        "slot": "3",
        "type": "t_contract(IFastBridgeReceiver)116"
      },
      {
        "astId": 15114,
        "contract": "src/gateway/ForeignGatewayOnGnosis.sol:ForeignGatewayOnGnosis",
        "label": "depreciatedFastbridge",
        "offset": 0,
        "slot": "4",
        "type": "t_contract(IFastBridgeReceiver)116"
      },
      {
        "astId": 15116,
        "contract": "src/gateway/ForeignGatewayOnGnosis.sol:ForeignGatewayOnGnosis",
        "label": "depreciatedFastBridgeExpiration",
        "offset": 0,
        "slot": "5",
        "type": "t_uint256"
      },
      {
        "astId": 15121,
        "contract": "src/gateway/ForeignGatewayOnGnosis.sol:ForeignGatewayOnGnosis",
        "label": "disputeHashtoDisputeData",
        "offset": 0,
        "slot": "6",
        "type": "t_mapping(t_bytes32,t_struct(DisputeData)15067_storage)"
      }
    ],
    "types": {
      "t_address": {
        "encoding": "inplace",
        "label": "address",
        "numberOfBytes": "20"
      },
      "t_bool": {
        "encoding": "inplace",
        "label": "bool",
        "numberOfBytes": "1"
      },
      "t_bytes32": {
        "encoding": "inplace",
        "label": "bytes32",
        "numberOfBytes": "32"
      },
      "t_contract(IFastBridgeReceiver)116": {
        "encoding": "inplace",
        "label": "contract IFastBridgeReceiver",
        "numberOfBytes": "20"
      },
      "t_mapping(t_bytes32,t_struct(DisputeData)15067_storage)": {
        "encoding": "mapping",
        "key": "t_bytes32",
        "label": "mapping(bytes32 => struct ForeignGatewayOnGnosis.DisputeData)",
        "numberOfBytes": "32",
        "value": "t_struct(DisputeData)15067_storage"
      },
      "t_mapping(t_uint96,t_uint256)": {
        "encoding": "mapping",
        "key": "t_uint96",
        "label": "mapping(uint96 => uint256)",
        "numberOfBytes": "32",
        "value": "t_uint256"
      },
      "t_struct(DisputeData)15067_storage": {
        "encoding": "inplace",
        "label": "struct ForeignGatewayOnGnosis.DisputeData",
        "members": [
          {
            "astId": 15058,
            "contract": "src/gateway/ForeignGatewayOnGnosis.sol:ForeignGatewayOnGnosis",
            "label": "id",
            "offset": 0,
            "slot": "0",
            "type": "t_uint248"
          },
          {
            "astId": 15060,
            "contract": "src/gateway/ForeignGatewayOnGnosis.sol:ForeignGatewayOnGnosis",
            "label": "ruled",
            "offset": 31,
            "slot": "0",
            "type": "t_bool"
          },
          {
            "astId": 15062,
            "contract": "src/gateway/ForeignGatewayOnGnosis.sol:ForeignGatewayOnGnosis",
            "label": "arbitrable",
            "offset": 0,
            "slot": "1",
            "type": "t_address"
          },
          {
            "astId": 15064,
            "contract": "src/gateway/ForeignGatewayOnGnosis.sol:ForeignGatewayOnGnosis",
            "label": "paid",
            "offset": 0,
            "slot": "2",
            "type": "t_uint256"
          },
          {
            "astId": 15066,
            "contract": "src/gateway/ForeignGatewayOnGnosis.sol:ForeignGatewayOnGnosis",
            "label": "relayer",
            "offset": 0,
            "slot": "3",
            "type": "t_address"
          }
        ],
        "numberOfBytes": "128"
      },
      "t_uint248": {
        "encoding": "inplace",
        "label": "uint248",
        "numberOfBytes": "31"
      },
      "t_uint256": {
        "encoding": "inplace",
        "label": "uint256",
        "numberOfBytes": "32"
      },
      "t_uint96": {
        "encoding": "inplace",
        "label": "uint96",
        "numberOfBytes": "12"
      }
    }
  }
}