{
  "address": "0x604E209B0f77aa85F30739987cA576B2f5d5ad5D",
  "abi": [
    {
      "inputs": [
        {
          "internalType": "address",
          "name": "_governor",
          "type": "address"
        },
        {
          "internalType": "address",
          "name": "_veaOutbox",
          "type": "address"
        },
        {
          "internalType": "address",
          "name": "_senderGateway",
          "type": "address"
        },
        {
          "internalType": "uint256",
          "name": "_senderChainID",
          "type": "uint256"
        },
        {
          "internalType": "contract IERC20",
          "name": "_weth",
          "type": "address"
        }
      ],
      "stateMutability": "nonpayable",
      "type": "constructor"
    },
    {
      "anonymous": false,
      "inputs": [
        {
          "indexed": true,
          "internalType": "uint96",
          "name": "_courtID",
          "type": "uint96"
        },
        {
          "indexed": false,
          "internalType": "uint256",
          "name": "_feeForJuror",
          "type": "uint256"
        }
      ],
      "name": "ArbitrationCostModified",
      "type": "event"
    },
    {
      "anonymous": false,
      "inputs": [
        {
          "indexed": true,
          "internalType": "uint256",
          "name": "_disputeID",
          "type": "uint256"
        },
        {
          "indexed": true,
          "internalType": "contract IArbitrable",
          "name": "_arbitrable",
          "type": "address"
        }
      ],
      "name": "DisputeCreation",
      "type": "event"
    },
    {
      "anonymous": false,
      "inputs": [
        {
          "indexed": false,
          "internalType": "bytes32",
          "name": "disputeHash",
          "type": "bytes32"
        },
        {
          "indexed": false,
          "internalType": "bytes32",
          "name": "blockhash",
          "type": "bytes32"
        },
        {
          "indexed": false,
          "internalType": "uint256",
          "name": "localDisputeID",
          "type": "uint256"
        },
        {
          "indexed": false,
          "internalType": "uint256",
          "name": "_choices",
          "type": "uint256"
        },
        {
          "indexed": false,
          "internalType": "bytes",
          "name": "_extraData",
          "type": "bytes"
        },
        {
          "indexed": false,
          "internalType": "address",
          "name": "arbitrable",
          "type": "address"
        }
      ],
      "name": "OutgoingDispute",
      "type": "event"
    },
    {
      "anonymous": false,
      "inputs": [
        {
          "indexed": true,
          "internalType": "contract IArbitrable",
          "name": "_arbitrable",
          "type": "address"
        },
        {
          "indexed": true,
          "internalType": "uint256",
          "name": "_disputeID",
          "type": "uint256"
        },
        {
          "indexed": false,
          "internalType": "uint256",
          "name": "_ruling",
          "type": "uint256"
        }
      ],
      "name": "Ruling",
      "type": "event"
    },
    {
      "inputs": [],
      "name": "MIN_JURORS",
      "outputs": [
        {
          "internalType": "uint256",
          "name": "",
          "type": "uint256"
        }
      ],
      "stateMutability": "view",
      "type": "function"
    },
    {
      "inputs": [
        {
          "internalType": "bytes",
          "name": "_extraData",
          "type": "bytes"
        }
      ],
      "name": "arbitrationCost",
      "outputs": [
        {
          "internalType": "uint256",
          "name": "cost",
          "type": "uint256"
        }
      ],
      "stateMutability": "view",
      "type": "function"
    },
    {
      "inputs": [
        {
          "internalType": "uint96",
          "name": "_courtID",
          "type": "uint96"
        },
        {
          "internalType": "uint256",
          "name": "_feeForJuror",
          "type": "uint256"
        }
      ],
      "name": "changeCourtJurorFee",
      "outputs": [],
      "stateMutability": "nonpayable",
      "type": "function"
    },
    {
      "inputs": [
        {
          "internalType": "address",
          "name": "_governor",
          "type": "address"
        }
      ],
      "name": "changeGovernor",
      "outputs": [],
      "stateMutability": "nonpayable",
      "type": "function"
    },
    {
      "inputs": [
        {
          "internalType": "address",
          "name": "_senderGateway",
          "type": "address"
        }
      ],
      "name": "changeReceiverGateway",
      "outputs": [],
      "stateMutability": "nonpayable",
      "type": "function"
    },
    {
      "inputs": [
        {
          "internalType": "uint256",
          "name": "",
          "type": "uint256"
        },
        {
          "internalType": "bytes",
          "name": "",
          "type": "bytes"
        }
      ],
      "name": "createDispute",
      "outputs": [
        {
          "internalType": "uint256",
          "name": "disputeID",
          "type": "uint256"
        }
      ],
      "stateMutability": "payable",
      "type": "function"
    },
    {
      "inputs": [
        {
          "internalType": "uint256",
          "name": "_choices",
          "type": "uint256"
        },
        {
          "internalType": "bytes",
          "name": "_extraData",
          "type": "bytes"
        },
        {
          "internalType": "uint256",
          "name": "_amount",
          "type": "uint256"
        }
      ],
      "name": "createDisputeERC20",
      "outputs": [
        {
          "internalType": "uint256",
          "name": "disputeID",
          "type": "uint256"
        }
      ],
      "stateMutability": "nonpayable",
      "type": "function"
    },
    {
      "inputs": [
        {
          "internalType": "bytes32",
          "name": "_disputeHash",
          "type": "bytes32"
        }
      ],
      "name": "disputeHashToForeignID",
      "outputs": [
        {
          "internalType": "uint256",
          "name": "",
          "type": "uint256"
        }
      ],
      "stateMutability": "view",
      "type": "function"
    },
    {
      "inputs": [
        {
          "internalType": "bytes32",
          "name": "",
          "type": "bytes32"
        }
      ],
      "name": "disputeHashtoDisputeData",
      "outputs": [
        {
          "internalType": "uint248",
          "name": "id",
          "type": "uint248"
        },
        {
          "internalType": "bool",
          "name": "ruled",
          "type": "bool"
        },
        {
          "internalType": "address",
          "name": "arbitrable",
          "type": "address"
        },
        {
          "internalType": "uint256",
          "name": "paid",
          "type": "uint256"
        },
        {
          "internalType": "address",
          "name": "relayer",
          "type": "address"
        }
      ],
      "stateMutability": "view",
      "type": "function"
    },
    {
      "inputs": [
        {
          "internalType": "uint96",
          "name": "",
          "type": "uint96"
        }
      ],
      "name": "feeForJuror",
      "outputs": [
        {
          "internalType": "uint256",
          "name": "",
          "type": "uint256"
        }
      ],
      "stateMutability": "view",
      "type": "function"
    },
    {
      "inputs": [],
      "name": "governor",
      "outputs": [
        {
          "internalType": "address",
          "name": "",
          "type": "address"
        }
      ],
      "stateMutability": "view",
      "type": "function"
    },
    {
      "inputs": [
        {
          "internalType": "address",
          "name": "_messageSender",
          "type": "address"
        },
        {
          "internalType": "bytes32",
          "name": "_disputeHash",
          "type": "bytes32"
        },
        {
          "internalType": "uint256",
          "name": "_ruling",
          "type": "uint256"
        },
        {
          "internalType": "address",
          "name": "_relayer",
          "type": "address"
        }
      ],
      "name": "relayRule",
      "outputs": [],
      "stateMutability": "nonpayable",
      "type": "function"
    },
    {
      "inputs": [],
      "name": "senderChainID",
      "outputs": [
        {
          "internalType": "uint256",
          "name": "",
          "type": "uint256"
        }
      ],
      "stateMutability": "view",
      "type": "function"
    },
    {
      "inputs": [],
      "name": "senderGateway",
      "outputs": [
        {
          "internalType": "address",
          "name": "",
          "type": "address"
        }
      ],
      "stateMutability": "view",
      "type": "function"
    },
    {
      "inputs": [],
      "name": "veaOutbox",
      "outputs": [
        {
          "internalType": "address",
          "name": "",
          "type": "address"
        }
      ],
      "stateMutability": "view",
      "type": "function"
    },
    {
      "inputs": [],
      "name": "weth",
      "outputs": [
        {
          "internalType": "contract IERC20",
          "name": "",
          "type": "address"
        }
      ],
      "stateMutability": "view",
      "type": "function"
    },
    {
      "inputs": [
        {
          "internalType": "bytes32",
          "name": "_disputeHash",
          "type": "bytes32"
        }
      ],
      "name": "withdrawFees",
      "outputs": [],
      "stateMutability": "nonpayable",
      "type": "function"
    }
  ],
  "transactionHash": "0xc0007867cfb3f9f12032193a2ad2886c7a04aadebeead39214c31cf8219e3fac",
  "args": [
    "0xF50E77f2A2B6138D16c6c7511562E5C33c4B15A3",
    "0xdFd7aDEb43d46FA3f16FB3e27F7fe85c3f5BD89D",
    "0xD2655d9768DB42F4C98A9F51653a3f77Ec4493a3",
    "0x0000000000000000000000000000000000000000000000000000000000066eed",
    "0x96f7C31EF5bac6710ADF201176298d61943Dde63"
  ],
  "numDeployments": 1,
  "solcInputHash": "e839c2860a2bc794c3b8ff7bcdbfe1cc",
  "bytecode": "0x60c0604052600160005534801561001557600080fd5b506040516110c93803806110c98339810160408190526100349161009b565b600280546001600160a01b03199081166001600160a01b039788161790915560038054821695871695909517909455600480549094169285169290921790925560a09190915216608052610106565b6001600160a01b038116811461009857600080fd5b50565b600080600080600060a086880312156100b357600080fd5b85516100be81610083565b60208701519095506100cf81610083565b60408701519094506100e081610083565b6060870151608088015191945092506100f881610083565b809150509295509295909350565b60805160a051610f9761013260003960006101d70152600081816101760152610a390152610f976000f3fe6080604052600436106100de5760003560e01c8063a60a4db511610085578063a60a4db51461025b578063c13517e11461027b578063ce0aaf951461028e578063d3c617ff146102ae578063dea580b914610350578063e4c0aaf414610370578063eaff425a14610390578063ebb71194146103a5578063f7434ea9146103c557600080fd5b80630c340a24146100e35780632e1db890146101205780633fc8cef31461016457806345c90441146101985780634def5455146101c557806367c51947146101f957806369cd2cea1461021b578063979f8e651461023b575b600080fd5b3480156100ef57600080fd5b50600254610103906001600160a01b031681565b6040516001600160a01b0390911681526020015b60405180910390f35b34801561012c57600080fd5b5061015661013b366004610b8d565b6000908152600560205260409020546001600160f81b031690565b604051908152602001610117565b34801561017057600080fd5b506101037f000000000000000000000000000000000000000000000000000000000000000081565b3480156101a457600080fd5b506101566101b3366004610bc2565b60016020526000908152604090205481565b3480156101d157600080fd5b506101567f000000000000000000000000000000000000000000000000000000000000000081565b34801561020557600080fd5b50610219610214366004610be4565b6103e5565b005b34801561022757600080fd5b50610219610236366004610c25565b610471565b34801561024757600080fd5b50610156610256366004610c89565b6104bd565b34801561026757600080fd5b50610219610276366004610cdc565b61068b565b610156610289366004610d22565b6108e9565b34801561029a57600080fd5b50600454610103906001600160a01b031681565b3480156102ba57600080fd5b506103126102c9366004610b8d565b60056020526000908152604090208054600182015460028301546003909301546001600160f81b03831693600160f81b90930460ff16926001600160a01b039283169290911685565b604080516001600160f81b03909616865293151560208601526001600160a01b0392831693850193909352606084015216608082015260a001610117565b34801561035c57600080fd5b50600354610103906001600160a01b031681565b34801561037c57600080fd5b5061021961038b366004610c25565b610934565b34801561039c57600080fd5b50610156600381565b3480156103b157600080fd5b506102196103c0366004610b8d565b610980565b3480156103d157600080fd5b506101566103e0366004610d6e565b610aae565b6002546001600160a01b031633146104185760405162461bcd60e51b815260040161040f90610db0565b60405180910390fd5b6001600160601b03821660008181526001602052604090819020839055517f20a6ef9c48f3a1ae927e70bc34e82d974c53d3c98c8fd9e731c4bacd5842c596906104659084815260200190565b60405180910390a25050565b6002546001600160a01b0316331461049b5760405162461bcd60e51b815260040161040f90610db0565b600480546001600160a01b0319166001600160a01b0392909216919091179055565b60006104c98484610aae565b8210156105185760405162461bcd60e51b815260206004820152601f60248201527f4e6f74207061696420656e6f75676820666f72206172626974726174696f6e00604482015260640161040f565b60008054908061052783610e08565b9091555090504660008161053c600143610e21565b4084898989336040516020016105589796959493929190610e3a565b60408051601f19818403018152828252805160209182012060a0840183526001600160f81b038088168552600085840181815233878701908152606088018c815260808901848152868552600590975296909220965190511515600160f81b02921691909117855551600185810180546001600160a01b039384166001600160a01b031991821617909155945160028701559251600390950180549590911694909316939093179091559091507f0d14de2c628befa6eb7dc5c0b952832c96822914f589200f72acb5d8869982469082906106339043610e21565b40858a8a8a3360405161064c9796959493929190610e9a565b60405180910390a1604051339084907f141dfc18aa6a56fc816f44f0e9e2f1ebc92b15ab167770e17db5b084c10ed99590600090a35050949350505050565b60035484906001600160a01b031633146106f55760405162461bcd60e51b815260206004820152602560248201527f416363657373206e6f7420616c6c6f7765643a2046617374204272696467652060448201526437b7363c9760d91b606482015260840161040f565b6004546001600160a01b038281169116146107635760405162461bcd60e51b815260206004820152602860248201527f416363657373206e6f7420616c6c6f7765643a2053656e64657220476174657760448201526730bc9037b7363c9760c11b606482015260840161040f565b6004546001600160a01b038681169116146107c05760405162461bcd60e51b815260206004820181905260248201527f4f6e6c792074686520686f6d656761746577617920697320616c6c6f7765642e604482015260640161040f565b6000848152600560205260408120805490916001600160f81b0390911690036107fb5760405162461bcd60e51b815260040161040f90610ef8565b8054600160f81b900460ff16156108485760405162461bcd60e51b815260206004820152601160248201527043616e6e6f742072756c6520747769636560781b604482015260640161040f565b80546001600160f81b0316600160f81b811782556003820180546001600160a01b038681166001600160a01b031990921691909117909155600183015460405163188d362b60e11b81526004810193909352602483018790521690819063311a6c5690604401600060405180830381600087803b1580156108c857600080fd5b505af11580156108dc573d6000803e3d6000fd5b5050505050505050505050565b60405162461bcd60e51b815260206004820152601b60248201527f466565732073686f756c64206265207061696420696e20574554480000000000604482015260009060640161040f565b6002546001600160a01b0316331461095e5760405162461bcd60e51b815260040161040f90610db0565b600280546001600160a01b0319166001600160a01b0392909216919091179055565b6000818152600560205260408120805490916001600160f81b0390911690036109bb5760405162461bcd60e51b815260040161040f90610ef8565b8054600160f81b900460ff16610a035760405162461bcd60e51b815260206004820152600d60248201526c139bdd081c9d5b1959081e595d609a1b604482015260640161040f565b6002810180546000909155600382015460405163a9059cbb60e01b81526001600160a01b039182166004820152602481018390527f00000000000000000000000000000000000000000000000000000000000000009091169063a9059cbb906044016020604051808303816000875af1158015610a84573d6000803e3d6000fd5b505050506040513d601f19601f82011682018060405250810190610aa89190610f28565b50505050565b6000806000610af285858080601f016020809104026020016040519081016040528093929190818152602001838380828437600092019190915250610b2492505050565b6001600160601b0382166000908152600160205260409020549193509150610b1b908290610f4a565b95945050505050565b6000806040835110610b8157602083015191506040830151905060016000836001600160601b03166001600160601b0316815260200190815260200160002054600003610b7057600091505b80600003610b7c575060035b915091565b50600090506003915091565b600060208284031215610b9f57600080fd5b5035919050565b80356001600160601b0381168114610bbd57600080fd5b919050565b600060208284031215610bd457600080fd5b610bdd82610ba6565b9392505050565b60008060408385031215610bf757600080fd5b610c0083610ba6565b946020939093013593505050565b80356001600160a01b0381168114610bbd57600080fd5b600060208284031215610c3757600080fd5b610bdd82610c0e565b60008083601f840112610c5257600080fd5b50813567ffffffffffffffff811115610c6a57600080fd5b602083019150836020828501011115610c8257600080fd5b9250929050565b60008060008060608587031215610c9f57600080fd5b84359350602085013567ffffffffffffffff811115610cbd57600080fd5b610cc987828801610c40565b9598909750949560400135949350505050565b60008060008060808587031215610cf257600080fd5b610cfb85610c0e565b93506020850135925060408501359150610d1760608601610c0e565b905092959194509250565b600080600060408486031215610d3757600080fd5b83359250602084013567ffffffffffffffff811115610d5557600080fd5b610d6186828701610c40565b9497909650939450505050565b60008060208385031215610d8157600080fd5b823567ffffffffffffffff811115610d9857600080fd5b610da485828601610c40565b90969095509350505050565b60208082526022908201527f416363657373206e6f7420616c6c6f7765643a20476f7665726e6f72206f6e6c6040820152613c9760f11b606082015260800190565b634e487b7160e01b600052601160045260246000fd5b600060018201610e1a57610e1a610df2565b5060010190565b81810381811115610e3457610e34610df2565b92915050565b8781528660208201526c6372656174654469737075746560981b604082015285604d82015284606d8201528284608d83013760609190911b6bffffffffffffffffffffffff1916608d919092019081019190915260a10195945050505050565b87815286602082015285604082015284606082015260c060808201528260c0820152828460e0830137600081840160e0908101919091526001600160a01b039290921660a0820152601f909201601f19169091010195945050505050565b602080825260169082015275111a5cdc1d5d1948191bd95cc81b9bdd08195e1a5cdd60521b604082015260600190565b600060208284031215610f3a57600080fd5b81518015158114610bdd57600080fd5b8082028115828204841417610e3457610e34610df256fea264697066735822122080431297a40df756dc8e6e2e811cfdb1f841e66f19540d3f065ad7afb2ba700a64736f6c63430008120033",
  "devdoc": {
    "events": {
      "DisputeCreation(uint256,address)": {
        "details": "To be emitted when a dispute is created.",
        "params": {
          "_arbitrable": "The contract which created the dispute.",
          "_disputeID": "ID of the dispute."
        }
      },
      "Ruling(address,uint256,uint256)": {
        "details": "To be raised when a ruling is given.",
        "params": {
          "_arbitrable": "The arbitrable receiving the ruling.",
          "_disputeID": "ID of the dispute in the Arbitrator contract.",
          "_ruling": "The ruling which was given."
        }
      }
    },
    "kind": "dev",
    "methods": {
      "arbitrationCost(bytes)": {
        "details": "Compute the cost of arbitration. It is recommended not to increase it often, as it can be highly time and gas consuming for the arbitrated contracts to cope with fee augmentation.",
        "params": {
          "_extraData": "Can be used to give additional info on the dispute to be created."
        },
        "returns": {
          "cost": "Required cost of arbitration."
        }
      },
      "changeCourtJurorFee(uint96,uint256)": {
        "details": "Changes the `feeForJuror` property value of a specified court.",
        "params": {
          "_courtID": "The ID of the court.",
          "_feeForJuror": "The new value for the `feeForJuror` property value."
        }
      },
      "changeGovernor(address)": {
        "details": "Changes the governor.",
        "params": {
          "_governor": "The address of the new governor."
        }
      },
      "changeReceiverGateway(address)": {
        "details": "Changes the sender gateway.",
        "params": {
          "_senderGateway": "The address of the new sender gateway."
        }
      }
    },
    "version": 1
  },
  "userdoc": {
    "kind": "user",
    "methods": {
      "relayRule(address,bytes32,uint256,address)": {
        "notice": "Relay the rule call from the home gateway to the arbitrable."
      }
    },
    "notice": "Foreign Gateway Counterpart of `HomeGateway`",
    "version": 1
  },
  "storageLayout": {
    "storage": [
      {
        "astId": 15584,
        "contract": "src/gateway/ForeignGatewayOnGnosis.sol:ForeignGatewayOnGnosis",
        "label": "localDisputeID",
        "offset": 0,
        "slot": "0",
        "type": "t_uint256"
      },
      {
        "astId": 15588,
        "contract": "src/gateway/ForeignGatewayOnGnosis.sol:ForeignGatewayOnGnosis",
        "label": "feeForJuror",
        "offset": 0,
        "slot": "1",
        "type": "t_mapping(t_uint96,t_uint256)"
      },
      {
        "astId": 15590,
        "contract": "src/gateway/ForeignGatewayOnGnosis.sol:ForeignGatewayOnGnosis",
        "label": "governor",
        "offset": 0,
        "slot": "2",
        "type": "t_address"
      },
      {
        "astId": 15592,
        "contract": "src/gateway/ForeignGatewayOnGnosis.sol:ForeignGatewayOnGnosis",
        "label": "veaOutbox",
        "offset": 0,
        "slot": "3",
        "type": "t_address"
      },
      {
        "astId": 15597,
        "contract": "src/gateway/ForeignGatewayOnGnosis.sol:ForeignGatewayOnGnosis",
        "label": "senderGateway",
        "offset": 0,
        "slot": "4",
        "type": "t_address"
      },
      {
        "astId": 15602,
        "contract": "src/gateway/ForeignGatewayOnGnosis.sol:ForeignGatewayOnGnosis",
        "label": "disputeHashtoDisputeData",
        "offset": 0,
        "slot": "5",
        "type": "t_mapping(t_bytes32,t_struct(DisputeData)15555_storage)"
      }
    ],
    "types": {
      "t_address": {
        "encoding": "inplace",
        "label": "address",
        "numberOfBytes": "20"
      },
      "t_bool": {
        "encoding": "inplace",
        "label": "bool",
        "numberOfBytes": "1"
      },
      "t_bytes32": {
        "encoding": "inplace",
        "label": "bytes32",
        "numberOfBytes": "32"
      },
      "t_mapping(t_bytes32,t_struct(DisputeData)15555_storage)": {
        "encoding": "mapping",
        "key": "t_bytes32",
        "label": "mapping(bytes32 => struct ForeignGatewayOnGnosis.DisputeData)",
        "numberOfBytes": "32",
        "value": "t_struct(DisputeData)15555_storage"
      },
      "t_mapping(t_uint96,t_uint256)": {
        "encoding": "mapping",
        "key": "t_uint96",
        "label": "mapping(uint96 => uint256)",
        "numberOfBytes": "32",
        "value": "t_uint256"
      },
      "t_struct(DisputeData)15555_storage": {
        "encoding": "inplace",
        "label": "struct ForeignGatewayOnGnosis.DisputeData",
        "members": [
          {
            "astId": 15546,
            "contract": "src/gateway/ForeignGatewayOnGnosis.sol:ForeignGatewayOnGnosis",
            "label": "id",
            "offset": 0,
            "slot": "0",
            "type": "t_uint248"
          },
          {
            "astId": 15548,
            "contract": "src/gateway/ForeignGatewayOnGnosis.sol:ForeignGatewayOnGnosis",
            "label": "ruled",
            "offset": 31,
            "slot": "0",
            "type": "t_bool"
          },
          {
            "astId": 15550,
            "contract": "src/gateway/ForeignGatewayOnGnosis.sol:ForeignGatewayOnGnosis",
            "label": "arbitrable",
            "offset": 0,
            "slot": "1",
            "type": "t_address"
          },
          {
            "astId": 15552,
            "contract": "src/gateway/ForeignGatewayOnGnosis.sol:ForeignGatewayOnGnosis",
            "label": "paid",
            "offset": 0,
            "slot": "2",
            "type": "t_uint256"
          },
          {
            "astId": 15554,
            "contract": "src/gateway/ForeignGatewayOnGnosis.sol:ForeignGatewayOnGnosis",
            "label": "relayer",
            "offset": 0,
            "slot": "3",
            "type": "t_address"
          }
        ],
        "numberOfBytes": "128"
      },
      "t_uint248": {
        "encoding": "inplace",
        "label": "uint248",
        "numberOfBytes": "31"
      },
      "t_uint256": {
        "encoding": "inplace",
        "label": "uint256",
        "numberOfBytes": "32"
      },
      "t_uint96": {
        "encoding": "inplace",
        "label": "uint96",
        "numberOfBytes": "12"
      }
    }
  }
}