{
  "address": "0x22CB016c4b57413ca4DF5F1AC44a0E0d3c69811F",
  "abi": [
    {
      "inputs": [
        {
          "internalType": "contract IERC20",
          "name": "_token",
          "type": "address"
        }
      ],
      "stateMutability": "nonpayable",
      "type": "constructor"
    },
    {
      "inputs": [],
      "name": "balance",
      "outputs": [
        {
          "internalType": "uint256",
          "name": "",
          "type": "uint256"
        }
      ],
      "stateMutability": "view",
      "type": "function"
    },
    {
      "inputs": [],
      "name": "request",
      "outputs": [],
      "stateMutability": "nonpayable",
      "type": "function"
    },
    {
      "inputs": [],
      "name": "token",
      "outputs": [
        {
          "internalType": "contract IERC20",
          "name": "",
          "type": "address"
        }
      ],
      "stateMutability": "view",
      "type": "function"
    },
    {
      "inputs": [
        {
          "internalType": "address",
          "name": "",
          "type": "address"
        }
      ],
      "name": "withdrewAlready",
      "outputs": [
        {
          "internalType": "bool",
          "name": "",
          "type": "bool"
        }
      ],
      "stateMutability": "view",
      "type": "function"
    }
  ],
  "transactionHash": "0x9a86ee614df7494319cd67b7c2140646d053530aff41dd8c45444f6624d41fc5",
  "args": [
    "0x2DFC9c3141268e6eac04a7D6d98Fbf64BDe836a8"
  ],
  "numDeployments": 3,
  "solcInputHash": "36e3015201aa6368fd28e007dfb67b68",
  "bytecode": "0x608060405234801561001057600080fd5b506040516103c23803806103c283398101604081905261002f91610054565b600080546001600160a01b0319166001600160a01b0392909216919091179055610084565b60006020828403121561006657600080fd5b81516001600160a01b038116811461007d57600080fd5b9392505050565b61032f806100936000396000f3fe608060405234801561001057600080fd5b506004361061004c5760003560e01c8063338cdca114610051578063b69ef8a81461005b578063d61c40dc14610076578063fc0c546a146100a9575b600080fd5b6100596100d4565b005b61006361021c565b6040519081526020015b60405180910390f35b61009961008436600461028e565b60016020526000908152604090205460ff1681565b604051901515815260200161006d565b6000546100bc906001600160a01b031681565b6040516001600160a01b03909116815260200161006d565b3360009081526001602052604090205460ff161561017e5760405162461bcd60e51b815260206004820152605760248201527f596f752068617665207573656420746869732066617563657420616c7265616460448201527f792e20496620796f75206e656564206d6f726520746f6b656e732c20706c656160648201527639b2903ab9b29030b737ba3432b91030b2323932b9b99760491b608482015260a40160405180910390fd5b60005460405163a9059cbb60e01b815233600482015269021e19e0c9bab240000060248201526001600160a01b039091169063a9059cbb906044016020604051808303816000875af11580156101d8573d6000803e3d6000fd5b505050506040513d601f19601f820116820180604052508101906101fc91906102be565b50336000908152600160208190526040909120805460ff19169091179055565b600080546040516370a0823160e01b81523060048201526001600160a01b03909116906370a0823190602401602060405180830381865afa158015610265573d6000803e3d6000fd5b505050506040513d601f19601f8201168201806040525081019061028991906102e0565b905090565b6000602082840312156102a057600080fd5b81356001600160a01b03811681146102b757600080fd5b9392505050565b6000602082840312156102d057600080fd5b815180151581146102b757600080fd5b6000602082840312156102f257600080fd5b505191905056fea2646970667358221220885a998acda2ccef49efd5707e9579a53bbed80122cfef4ce320a92f34aba57664736f6c63430008120033",
  "devdoc": {
    "kind": "dev",
    "methods": {},
    "version": 1
  },
  "userdoc": {
    "kind": "user",
    "methods": {},
    "version": 1
  },
  "storageLayout": {
    "storage": [
      {
        "astId": 14749,
        "contract": "src/token/Faucet.sol:Faucet",
        "label": "token",
        "offset": 0,
        "slot": "0",
        "type": "t_contract(IERC20)846"
      },
      {
        "astId": 14753,
        "contract": "src/token/Faucet.sol:Faucet",
        "label": "withdrewAlready",
        "offset": 0,
        "slot": "1",
        "type": "t_mapping(t_address,t_bool)"
      }
    ],
    "types": {
      "t_address": {
        "encoding": "inplace",
        "label": "address",
        "numberOfBytes": "20"
      },
      "t_bool": {
        "encoding": "inplace",
        "label": "bool",
        "numberOfBytes": "1"
      },
      "t_contract(IERC20)846": {
        "encoding": "inplace",
        "label": "contract IERC20",
        "numberOfBytes": "20"
      },
      "t_mapping(t_address,t_bool)": {
        "encoding": "mapping",
        "key": "t_address",
        "label": "mapping(address => bool)",
        "numberOfBytes": "32",
        "value": "t_bool"
      }
    }
  }
}