{
  "address": "0x5898aeE045A25B276369914c3448B72a41758B2c",
  "abi": [
    {
      "inputs": [
        {
          "internalType": "contract IERC20",
          "name": "_token",
          "type": "address"
        }
      ],
      "stateMutability": "nonpayable",
      "type": "constructor"
    },
    {
      "inputs": [],
      "name": "balance",
      "outputs": [
        {
          "internalType": "uint256",
          "name": "",
          "type": "uint256"
        }
      ],
      "stateMutability": "view",
      "type": "function"
    },
    {
      "inputs": [],
      "name": "request",
      "outputs": [],
      "stateMutability": "nonpayable",
      "type": "function"
    },
    {
      "inputs": [],
      "name": "token",
      "outputs": [
        {
          "internalType": "contract IERC20",
          "name": "",
          "type": "address"
        }
      ],
      "stateMutability": "view",
      "type": "function"
    },
    {
      "inputs": [
        {
          "internalType": "address",
          "name": "",
          "type": "address"
        }
      ],
      "name": "withdrewAlready",
      "outputs": [
        {
          "internalType": "bool",
          "name": "",
          "type": "bool"
        }
      ],
      "stateMutability": "view",
      "type": "function"
    }
  ],
  "transactionHash": "0xb35cd25025514f4ceea9f6794c1d39aa7b864712e7e12894835e1f0339ff4b19",
  "args": [
    "0xD75E27A56AaF9eE7F8d9A472a8C2EF2f65a764dd"
  ],
  "numDeployments": 2,
  "solcInputHash": "619e4fd2e5ff33514c8e0080269dcddd",
  "bytecode": "0x608060405234801561001057600080fd5b506040516103e03803806103e083398101604081905261002f91610054565b600080546001600160a01b0319166001600160a01b0392909216919091179055610084565b60006020828403121561006657600080fd5b81516001600160a01b038116811461007d57600080fd5b9392505050565b61034d806100936000396000f3fe608060405234801561001057600080fd5b506004361061004c5760003560e01c8063338cdca114610051578063b69ef8a81461005b578063d61c40dc14610076578063fc0c546a146100a9575b600080fd5b6100596100d4565b005b61006361022b565b6040519081526020015b60405180910390f35b6100996100843660046102ac565b60016020526000908152604090205460ff1681565b604051901515815260200161006d565b6000546100bc906001600160a01b031681565b6040516001600160a01b03909116815260200161006d565b3360009081526001602052604090205460ff161561017e5760405162461bcd60e51b815260206004820152605760248201527f596f752068617665207573656420746869732066617563657420616c7265616460448201527f792e20496620796f75206e656564206d6f726520746f6b656e732c20706c656160648201527639b2903ab9b29030b737ba3432b91030b2323932b9b99760491b608482015260a40160405180910390fd5b60005460405163a9059cbb60e01b815233600482015269021e19e0c9bab240000060248201526001600160a01b039091169063a9059cbb90604401602060405180830381600087803b1580156101d357600080fd5b505af11580156101e7573d6000803e3d6000fd5b505050506040513d601f19601f8201168201806040525081019061020b91906102dc565b50336000908152600160208190526040909120805460ff19169091179055565b600080546040516370a0823160e01b81523060048201526001600160a01b03909116906370a082319060240160206040518083038186803b15801561026f57600080fd5b505afa158015610283573d6000803e3d6000fd5b505050506040513d601f19601f820116820180604052508101906102a791906102fe565b905090565b6000602082840312156102be57600080fd5b81356001600160a01b03811681146102d557600080fd5b9392505050565b6000602082840312156102ee57600080fd5b815180151581146102d557600080fd5b60006020828403121561031057600080fd5b505191905056fea26469706673582212205834b9da8d3e30c6124c75f3a860d0d45dd1a253a98d2f15c37030d47e91889a64736f6c63430008090033",
  "devdoc": {
    "kind": "dev",
    "methods": {},
    "version": 1
  },
  "userdoc": {
    "kind": "user",
    "methods": {},
    "version": 1
  },
  "storageLayout": {
    "storage": [
      {
        "astId": 26232,
        "contract": "src/token/Faucet.sol:Faucet",
        "label": "token",
        "offset": 0,
        "slot": "0",
        "type": "t_contract(IERC20)1072"
      },
      {
        "astId": 26236,
        "contract": "src/token/Faucet.sol:Faucet",
        "label": "withdrewAlready",
        "offset": 0,
        "slot": "1",
        "type": "t_mapping(t_address,t_bool)"
      }
    ],
    "types": {
      "t_address": {
        "encoding": "inplace",
        "label": "address",
        "numberOfBytes": "20"
      },
      "t_bool": {
        "encoding": "inplace",
        "label": "bool",
        "numberOfBytes": "1"
      },
      "t_contract(IERC20)1072": {
        "encoding": "inplace",
        "label": "contract IERC20",
        "numberOfBytes": "20"
      },
      "t_mapping(t_address,t_bool)": {
        "encoding": "mapping",
        "key": "t_address",
        "label": "mapping(address => bool)",
        "numberOfBytes": "32",
        "value": "t_bool"
      }
    }
  }
}