{
  "address": "0x04Fb43F2Ce076867b5ba38750Ecb2cc6BDe78D61",
  "abi": [
    {
      "anonymous": false,
      "inputs": [
        {
          "indexed": true,
          "internalType": "address",
          "name": "owner",
          "type": "address"
        },
        {
          "indexed": true,
          "internalType": "address",
          "name": "spender",
          "type": "address"
        },
        {
          "indexed": false,
          "internalType": "uint256",
          "name": "value",
          "type": "uint256"
        }
      ],
      "name": "Approval",
      "type": "event"
    },
    {
      "anonymous": false,
      "inputs": [
        {
          "indexed": false,
          "internalType": "uint8",
          "name": "version",
          "type": "uint8"
        }
      ],
      "name": "Initialized",
      "type": "event"
    },
    {
      "anonymous": false,
      "inputs": [
        {
          "indexed": true,
          "internalType": "address",
          "name": "from",
          "type": "address"
        },
        {
          "indexed": true,
          "internalType": "address",
          "name": "to",
          "type": "address"
        },
        {
          "indexed": false,
          "internalType": "uint256",
          "name": "value",
          "type": "uint256"
        }
      ],
      "name": "Transfer",
      "type": "event"
    },
    {
      "inputs": [
        {
          "internalType": "address",
          "name": "",
          "type": "address"
        },
        {
          "internalType": "address",
          "name": "",
          "type": "address"
        }
      ],
      "name": "allowance",
      "outputs": [
        {
          "internalType": "uint256",
          "name": "",
          "type": "uint256"
        }
      ],
      "stateMutability": "view",
      "type": "function"
    },
    {
      "inputs": [
        {
          "internalType": "address",
          "name": "_spender",
          "type": "address"
        },
        {
          "internalType": "uint256",
          "name": "_amount",
          "type": "uint256"
        }
      ],
      "name": "approve",
      "outputs": [
        {
          "internalType": "bool",
          "name": "",
          "type": "bool"
        }
      ],
      "stateMutability": "nonpayable",
      "type": "function"
    },
    {
      "inputs": [
        {
          "internalType": "address",
          "name": "_owner",
          "type": "address"
        }
      ],
      "name": "balanceOf",
      "outputs": [
        {
          "internalType": "uint256",
          "name": "",
          "type": "uint256"
        }
      ],
      "stateMutability": "view",
      "type": "function"
    },
    {
      "inputs": [
        {
          "internalType": "address",
          "name": "_controller",
          "type": "address"
        }
      ],
      "name": "changeController",
      "outputs": [],
      "stateMutability": "nonpayable",
      "type": "function"
    },
    {
      "inputs": [],
      "name": "controller",
      "outputs": [
        {
          "internalType": "address",
          "name": "",
          "type": "address"
        }
      ],
      "stateMutability": "view",
      "type": "function"
    },
    {
      "inputs": [],
      "name": "decimals",
      "outputs": [
        {
          "internalType": "uint8",
          "name": "",
          "type": "uint8"
        }
      ],
      "stateMutability": "view",
      "type": "function"
    },
    {
      "inputs": [
        {
          "internalType": "address",
          "name": "_spender",
          "type": "address"
        },
        {
          "internalType": "uint256",
          "name": "_subtractedValue",
          "type": "uint256"
        }
      ],
      "name": "decreaseAllowance",
      "outputs": [
        {
          "internalType": "bool",
          "name": "",
          "type": "bool"
        }
      ],
      "stateMutability": "nonpayable",
      "type": "function"
    },
    {
      "inputs": [
        {
          "internalType": "uint256",
          "name": "_amount",
          "type": "uint256"
        }
      ],
      "name": "deposit",
      "outputs": [],
      "stateMutability": "nonpayable",
      "type": "function"
    },
    {
      "inputs": [
        {
          "internalType": "address",
          "name": "_spender",
          "type": "address"
        },
        {
          "internalType": "uint256",
          "name": "_addedValue",
          "type": "uint256"
        }
      ],
      "name": "increaseAllowance",
      "outputs": [
        {
          "internalType": "bool",
          "name": "",
          "type": "bool"
        }
      ],
      "stateMutability": "nonpayable",
      "type": "function"
    },
    {
      "inputs": [
        {
          "internalType": "string",
          "name": "_name",
          "type": "string"
        },
        {
          "internalType": "string",
          "name": "_symbol",
          "type": "string"
        },
        {
          "internalType": "contract IERC677",
          "name": "_xPinakion",
          "type": "address"
        },
        {
          "internalType": "contract ITokenBridge",
          "name": "_tokenBridge",
          "type": "address"
        }
      ],
      "name": "initialize",
      "outputs": [],
      "stateMutability": "nonpayable",
      "type": "function"
    },
    {
      "inputs": [],
      "name": "name",
      "outputs": [
        {
          "internalType": "string",
          "name": "",
          "type": "string"
        }
      ],
      "stateMutability": "view",
      "type": "function"
    },
    {
      "inputs": [
        {
          "internalType": "address",
          "name": "_token",
          "type": "address"
        },
        {
          "internalType": "uint256",
          "name": "_amount",
          "type": "uint256"
        },
        {
          "internalType": "bytes",
          "name": "_data",
          "type": "bytes"
        }
      ],
      "name": "onTokenBridged",
      "outputs": [],
      "stateMutability": "nonpayable",
      "type": "function"
    },
    {
      "inputs": [],
      "name": "symbol",
      "outputs": [
        {
          "internalType": "string",
          "name": "",
          "type": "string"
        }
      ],
      "stateMutability": "view",
      "type": "function"
    },
    {
      "inputs": [],
      "name": "tokenBridge",
      "outputs": [
        {
          "internalType": "contract ITokenBridge",
          "name": "",
          "type": "address"
        }
      ],
      "stateMutability": "view",
      "type": "function"
    },
    {
      "inputs": [],
      "name": "totalSupply",
      "outputs": [
        {
          "internalType": "uint256",
          "name": "",
          "type": "uint256"
        }
      ],
      "stateMutability": "view",
      "type": "function"
    },
    {
      "inputs": [
        {
          "internalType": "address",
          "name": "_recipient",
          "type": "address"
        },
        {
          "internalType": "uint256",
          "name": "_amount",
          "type": "uint256"
        }
      ],
      "name": "transfer",
      "outputs": [
        {
          "internalType": "bool",
          "name": "",
          "type": "bool"
        }
      ],
      "stateMutability": "nonpayable",
      "type": "function"
    },
    {
      "inputs": [
        {
          "internalType": "address",
          "name": "_sender",
          "type": "address"
        },
        {
          "internalType": "address",
          "name": "_recipient",
          "type": "address"
        },
        {
          "internalType": "uint256",
          "name": "_amount",
          "type": "uint256"
        }
      ],
      "name": "transferFrom",
      "outputs": [
        {
          "internalType": "bool",
          "name": "",
          "type": "bool"
        }
      ],
      "stateMutability": "nonpayable",
      "type": "function"
    },
    {
      "inputs": [
        {
          "internalType": "uint256",
          "name": "_amount",
          "type": "uint256"
        }
      ],
      "name": "withdraw",
      "outputs": [],
      "stateMutability": "nonpayable",
      "type": "function"
    },
    {
      "inputs": [
        {
          "internalType": "uint256",
          "name": "_amount",
          "type": "uint256"
        },
        {
          "internalType": "address",
          "name": "_receiver",
          "type": "address"
        }
      ],
      "name": "withdrawAndConvertToPNK",
      "outputs": [],
      "stateMutability": "nonpayable",
      "type": "function"
    },
    {
      "inputs": [],
      "name": "xPinakion",
      "outputs": [
        {
          "internalType": "contract IERC677",
          "name": "",
          "type": "address"
        }
      ],
      "stateMutability": "view",
      "type": "function"
    }
  ],
  "transactionHash": "0xcf82b5a5b2d3290660320d9a0ecf766b1227361f05d73fe3754a155b780c2d19",
  "args": [],
  "numDeployments": 1,
  "solcInputHash": "274a15cfb06cddd0a2be7e47f1a3d37a",
  "bytecode": "0x608060405234801561001057600080fd5b50611687806100206000396000f3fe608060405234801561001057600080fd5b506004361061012c5760003560e01c80638108022d116100ad578063b6b55f2511610071578063b6b55f251461029e578063c6328a46146102b1578063db7af854146102c4578063dd62ed3e146102d7578063f77c47911461030257600080fd5b80638108022d1461024a5780638f15b4141461025d57806395d89b4114610270578063a457c2d714610278578063a9059cbb1461028b57600080fd5b8063313ce567116100f4578063313ce567146101b157806333e1cbda146101d057806339509351146101fb5780633cebb8231461020e57806370a082311461022157600080fd5b806306fdde0314610131578063095ea7b31461014f57806318160ddd1461017257806323b872dd146101895780632e1a7d4d1461019c575b600080fd5b61013961031a565b60405161014691906111c7565b60405180910390f35b61016261015d366004611231565b6103a8565b6040519015158152602001610146565b61017b60035481565b604051908152602001610146565b61016261019736600461125d565b6104de565b6101af6101aa36600461129e565b6106b6565b005b6006546101be9060ff1681565b60405160ff9091168152602001610146565b6007546101e3906001600160a01b031681565b6040516001600160a01b039091168152602001610146565b610162610209366004611231565b6107a1565b6101af61021c3660046112b7565b6108fe565b61017b61022f3660046112b7565b6001600160a01b031660009081526001602052604090205490565b6101af6102583660046112d4565b61098f565b6101af61026b3660046113a7565b610a8f565b610139610c0f565b610162610286366004611231565b610c1c565b610162610299366004611231565b610c4c565b6101af6102ac36600461129e565b610d99565b6008546101e3906001600160a01b031681565b6101af6102d2366004611430565b610e89565b61017b6102e53660046114b9565b600260209081526000928352604080842090915290825290205481565b6006546101e39061010090046001600160a01b031681565b60048054610327906114e7565b80601f0160208091040260200160405190810160405280929190818152602001828054610353906114e7565b80156103a05780601f10610375576101008083540402835291602001916103a0565b820191906000526020600020905b81548152906001019060200180831161038357829003601f168201915b505050505081565b6006546000906103c59061010090046001600160a01b0316610f46565b156104795760065460405163da682aeb60e01b81526101009091046001600160a01b03169063da682aeb9061040290339087908790600401611522565b602060405180830381600087803b15801561041c57600080fd5b505af1158015610430573d6000803e3d6000fd5b505050506040513d601f19601f820116820180604052508101906104549190611546565b6104795760405162461bcd60e51b815260040161047090611568565b60405180910390fd5b3360008181526002602090815260408083206001600160a01b03881680855290835292819020869055518581529192917f8c5be1e5ebec7d5bd14f71427d1e84f3dd0314c0f7b2291e5b200ac8c7c3b92591015b60405180910390a350600192915050565b6006546000906104fb9061010090046001600160a01b0316610f46565b156105a657600654604051634a39314960e01b81526101009091046001600160a01b031690634a3931499061053890879087908790600401611522565b602060405180830381600087803b15801561055257600080fd5b505af1158015610566573d6000803e3d6000fd5b505050506040513d601f19601f8201168201806040525081019061058a9190611546565b6105a65760405162461bcd60e51b8152600401610470906115aa565b60065461010090046001600160a01b03163314610610576001600160a01b03841660009081526002602090815260408083203384529091529020546105eb9083610f68565b6001600160a01b03851660009081526002602090815260408083203384529091529020555b6001600160a01b0384166000908152600160205260409020546106339083610f68565b6001600160a01b0380861660009081526001602052604080822093909355908516815220546106629083610f7b565b6001600160a01b038085166000818152600160205260409081902093909355915190861690600080516020611632833981519152906106a49086815260200190565b60405180910390a35060019392505050565b6106bf81610f87565b60075460405163a9059cbb60e01b8152336004820152602481018390526001600160a01b039091169063a9059cbb90604401602060405180830381600087803b15801561070b57600080fd5b505af115801561071f573d6000803e3d6000fd5b505050506040513d601f19601f820116820180604052508101906107439190611546565b61079e5760405162461bcd60e51b815260206004820152602660248201527f54686520607472616e73666572602066756e6374696f6e206d757374206e6f74604482015265103330b4b61760d11b6064820152608401610470565b50565b3360009081526002602090815260408083206001600160a01b038616845290915281205481906107d19084610f7b565b6006549091506107ee9061010090046001600160a01b0316610f46565b156108995760065460405163da682aeb60e01b81526101009091046001600160a01b03169063da682aeb9061082b90339088908690600401611522565b602060405180830381600087803b15801561084557600080fd5b505af1158015610859573d6000803e3d6000fd5b505050506040513d601f19601f8201168201806040525081019061087d9190611546565b6108995760405162461bcd60e51b815260040161047090611568565b3360008181526002602090815260408083206001600160a01b03891680855290835292819020859055518481529192917f8c5be1e5ebec7d5bd14f71427d1e84f3dd0314c0f7b2291e5b200ac8c7c3b925910160405180910390a35060019392505050565b60065461010090046001600160a01b031633146109675760405162461bcd60e51b815260206004820152602160248201527f5468652063616c6c6572206973206e6f742074686520636f6e74726f6c6c65726044820152601760f91b6064820152608401610470565b600680546001600160a01b0390921661010002610100600160a81b0319909216919091179055565b61099882610f87565b60075460085460405163095ea7b360e01b81526001600160a01b0391821660048201526024810185905291169063095ea7b390604401602060405180830381600087803b1580156109e857600080fd5b505af11580156109fc573d6000803e3d6000fd5b505050506040513d601f19601f82011682018060405250810190610a209190611546565b5060085460075460405163ad58bdd160e01b81526001600160a01b039283169263ad58bdd192610a599291169085908790600401611522565b600060405180830381600087803b158015610a7357600080fd5b505af1158015610a87573d6000803e3d6000fd5b505050505050565b600054610100900460ff1615808015610aaf5750600054600160ff909116105b80610ac95750303b158015610ac9575060005460ff166001145b610b2c5760405162461bcd60e51b815260206004820152602e60248201527f496e697469616c697a61626c653a20636f6e747261637420697320616c72656160448201526d191e481a5b9a5d1a585b1a5e995960921b6064820152608401610470565b6000805460ff191660011790558015610b4f576000805461ff0019166101001790555b8451610b6290600490602088019061112e565b508351610b7690600590602087019061112e565b5060068054600780546001600160a01b038088166001600160a01b031992831617909255600880549287169290911691909117905533610100026001600160a81b03199091161760121790558015610c08576000805461ff0019169055604051600181527f7f26b83ff96e1f2b6a682f133852f6798a09c465da95921460cefb38474024989060200160405180910390a15b5050505050565b60058054610327906114e7565b3360009081526002602090815260408083206001600160a01b038616845290915281205481906107d19084610f68565b600654600090610c699061010090046001600160a01b0316610f46565b15610d1457600654604051634a39314960e01b81526101009091046001600160a01b031690634a39314990610ca690339087908790600401611522565b602060405180830381600087803b158015610cc057600080fd5b505af1158015610cd4573d6000803e3d6000fd5b505050506040513d601f19601f82011682018060405250810190610cf89190611546565b610d145760405162461bcd60e51b8152600401610470906115aa565b33600090815260016020526040902054610d2e9083610f68565b33600090815260016020526040808220929092556001600160a01b03851681522054610d5a9083610f7b565b6001600160a01b038416600081815260016020526040908190209290925590513390600080516020611632833981519152906104cd9086815260200190565b610da333826110b0565b6007546040516323b872dd60e01b81526001600160a01b03909116906323b872dd90610dd790339030908690600401611522565b602060405180830381600087803b158015610df157600080fd5b505af1158015610e05573d6000803e3d6000fd5b505050506040513d601f19601f82011682018060405250810190610e299190611546565b61079e5760405162461bcd60e51b815260206004820152602b60248201527f53656e64657220646f6573206e6f74206861766520656e6f756768206170707260448201526a37bb32b210333ab732399760a91b6064820152608401610470565b6008546001600160a01b03163314610edc5760405162461bcd60e51b815260206004820152601660248201527529b2b73232b9103737ba1030baba3437b934bd32b21760511b6044820152606401610470565b6007546001600160a01b03858116911614610f395760405162461bcd60e51b815260206004820152601f60248201527f546f6b656e2062726964676564206973206e6f74207850696e616b696f6e2e006044820152606401610470565b608435610c0881856110b0565b6000806001600160a01b038316610f605750600092915050565b50503b151590565b6000610f748284611602565b9392505050565b6000610f748284611619565b600654610fa19061010090046001600160a01b0316610f46565b1561104d57600654604051634a39314960e01b81526101009091046001600160a01b031690634a39314990610fdf9033906000908690600401611522565b602060405180830381600087803b158015610ff957600080fd5b505af115801561100d573d6000803e3d6000fd5b505050506040513d601f19601f820116820180604052508101906110319190611546565b61104d5760405162461bcd60e51b8152600401610470906115aa565b336000908152600160205260409020546110679082610f68565b336000908152600160205260409020556003546110849082610f68565b60035560405181815260009033906000805160206116328339815191529060200160405180910390a350565b6003546110bd9082610f7b565b6003556001600160a01b0382166000908152600160205260409020546110e39082610f7b565b6001600160a01b038316600081815260016020526040808220939093559151909190600080516020611632833981519152906111229085815260200190565b60405180910390a35050565b82805461113a906114e7565b90600052602060002090601f01602090048101928261115c57600085556111a2565b82601f1061117557805160ff19168380011785556111a2565b828001600101855582156111a2579182015b828111156111a2578251825591602001919060010190611187565b506111ae9291506111b2565b5090565b5b808211156111ae57600081556001016111b3565b600060208083528351808285015260005b818110156111f4578581018301518582016040015282016111d8565b81811115611206576000604083870101525b50601f01601f1916929092016040019392505050565b6001600160a01b038116811461079e57600080fd5b6000806040838503121561124457600080fd5b823561124f8161121c565b946020939093013593505050565b60008060006060848603121561127257600080fd5b833561127d8161121c565b9250602084013561128d8161121c565b929592945050506040919091013590565b6000602082840312156112b057600080fd5b5035919050565b6000602082840312156112c957600080fd5b8135610f748161121c565b600080604083850312156112e757600080fd5b8235915060208301356112f98161121c565b809150509250929050565b634e487b7160e01b600052604160045260246000fd5b600082601f83011261132b57600080fd5b813567ffffffffffffffff8082111561134657611346611304565b604051601f8301601f19908116603f0116810190828211818310171561136e5761136e611304565b8160405283815286602085880101111561138757600080fd5b836020870160208301376000602085830101528094505050505092915050565b600080600080608085870312156113bd57600080fd5b843567ffffffffffffffff808211156113d557600080fd5b6113e18883890161131a565b955060208701359150808211156113f757600080fd5b506114048782880161131a565b93505060408501356114158161121c565b915060608501356114258161121c565b939692955090935050565b6000806000806060858703121561144657600080fd5b84356114518161121c565b935060208501359250604085013567ffffffffffffffff8082111561147557600080fd5b818701915087601f83011261148957600080fd5b81358181111561149857600080fd5b8860208285010111156114aa57600080fd5b95989497505060200194505050565b600080604083850312156114cc57600080fd5b82356114d78161121c565b915060208301356112f98161121c565b600181811c908216806114fb57607f821691505b6020821081141561151c57634e487b7160e01b600052602260045260246000fd5b50919050565b6001600160a01b039384168152919092166020820152604081019190915260600190565b60006020828403121561155857600080fd5b81518015158114610f7457600080fd5b60208082526022908201527f546f6b656e20636f6e74726f6c6c657220646f6573206e6f7420617070726f76604082015261329760f11b606082015260800190565b60208082526022908201527f546f6b656e20636f6e74726f6c6c65722072656a65637473207472616e736665604082015261391760f11b606082015260800190565b634e487b7160e01b600052601160045260246000fd5b600082821015611614576116146115ec565b500390565b6000821982111561162c5761162c6115ec565b50019056feddf252ad1be2c89b69c2b068fc378daa952ba7f163c4a11628f55a4df523b3efa26469706673582212204717c2ac4da3a3984647ffc72e968a5cb1643291be6cb1c8abe15350f5f3179e64736f6c63430008090033",
  "devdoc": {
    "events": {
      "Transfer(address,address,uint256)": {
        "details": "Notice that `value` may be zero."
      }
    },
    "kind": "dev",
    "methods": {
      "approve(address,uint256)": {
        "params": {
          "_amount": "The amount of base units the entity will be allowed to spend.",
          "_spender": "The entity allowed to spend funds."
        },
        "returns": {
          "_0": "True on success."
        }
      },
      "balanceOf(address)": {
        "details": "Gets the balance of the specified address.",
        "params": {
          "_owner": "The address to query the balance of."
        },
        "returns": {
          "_0": "uint256 value representing the amount owned by the passed address."
        }
      },
      "changeController(address)": {
        "params": {
          "_controller": "The new controller of the contract"
        }
      },
      "decreaseAllowance(address,uint256)": {
        "params": {
          "_spender": "The entity whose spending allocation will be reduced.",
          "_subtractedValue": "The reduction of spending allocation in base units."
        },
        "returns": {
          "_0": "True on success."
        }
      },
      "deposit(uint256)": {
        "params": {
          "_amount": "The amount of wrapped pinakions to mint."
        }
      },
      "increaseAllowance(address,uint256)": {
        "params": {
          "_addedValue": "The amount of extra base units the entity will be allowed to spend.",
          "_spender": "The entity allowed to spend funds."
        },
        "returns": {
          "_0": "True on success."
        }
      },
      "initialize(string,string,address,address)": {
        "details": "Constructor.",
        "params": {
          "_name": "for the wrapped PNK on the home chain.",
          "_symbol": "for wrapped PNK ticker on the home chain.",
          "_tokenBridge": "the TokenBridge contract.",
          "_xPinakion": "the home PNK contract which is already bridged to the foreign PNK contract."
        }
      },
      "onTokenBridged(address,uint256,bytes)": {
        "details": "Converts bridged PNK (xPinakion) into wrapped PNK which can be staked in KlerosLiquid. If the tokenBridge is calling this function, then this contract has already received the xPinakion tokens. Notice that the Home bridge calls onTokenBridge as a result of someone invoking `relayTokensAndCall()` on the Foreign bridge contract.",
        "params": {
          "_amount": "The amount of wrapped PNK to mint.",
          "_data": "Calldata containing the address of the recipient. Notice that the address has to be padded to the right 32 bytes.",
          "_token": "The token address the _amount belongs to."
        }
      },
      "transfer(address,uint256)": {
        "params": {
          "_amount": "The amount to tranfer in base units.",
          "_recipient": "The entity receiving the funds."
        },
        "returns": {
          "_0": "True on success."
        }
      },
      "transferFrom(address,address,uint256)": {
        "params": {
          "_amount": "The amount to tranfer in base units.",
          "_recipient": "The entity receiving the funds.",
          "_sender": "The entity to take the funds from."
        },
        "returns": {
          "_0": "True on success."
        }
      },
      "withdraw(uint256)": {
        "params": {
          "_amount": "The amount of bridged PNK to withdraw."
        }
      },
      "withdrawAndConvertToPNK(uint256,address)": {
        "details": "This function is not strictly needed, but it provides a good UX to users who want to get their Mainnet's PNK back. What normally takes 3 transactions, here is done in one go. Notice that the PNK have to be claimed on Mainnet's TokenBridge by the receiver.",
        "params": {
          "_amount": "The amount of PNK to withdraw.",
          "_receiver": "The address which will receive the PNK back in the foreign chain."
        }
      }
    },
    "version": 1
  },
  "userdoc": {
    "events": {
      "Approval(address,address,uint256)": {
        "notice": "Emitted when the allowance of a `spender` for an `owner` is set by a call to {approve}. `value` is the new allowance."
      },
      "Transfer(address,address,uint256)": {
        "notice": "Emitted when `value` tokens are moved from one account (`from`) to another (`to`)."
      }
    },
    "kind": "user",
    "methods": {
      "approve(address,uint256)": {
        "notice": "Approves `_spender` to spend `_amount`."
      },
      "changeController(address)": {
        "notice": "Changes `controller` to `_controller`."
      },
      "controller()": {
        "notice": "The token's controller."
      },
      "decimals()": {
        "notice": "Number of decimals of the token."
      },
      "decreaseAllowance(address,uint256)": {
        "notice": "Decreases the `_spender` allowance by `_subtractedValue`."
      },
      "deposit(uint256)": {
        "notice": "Converts bridged PNK (xPinakion) into wrapped PNK which can be staked in KlerosLiquid."
      },
      "increaseAllowance(address,uint256)": {
        "notice": "Increases the `_spender` allowance by `_addedValue`."
      },
      "name()": {
        "notice": "Name of the token."
      },
      "onTokenBridged(address,uint256,bytes)": {
        "notice": "IERC20 Receiver functionality."
      },
      "symbol()": {
        "notice": "Symbol of the token."
      },
      "tokenBridge()": {
        "notice": "xDai Token Bridge. The Token Bridge is upgradeable."
      },
      "totalSupply()": {
        "notice": "Total supply of the token. Equals the total xPinakion deposit into the contract."
      },
      "transfer(address,uint256)": {
        "notice": "Moves `_amount` tokens from the caller's account to `_recipient`."
      },
      "transferFrom(address,address,uint256)": {
        "notice": "Moves `_amount` tokens from `_sender` to `_recipient` using the allowance mechanism. `_amount` is then deducted from the caller's allowance."
      },
      "withdraw(uint256)": {
        "notice": "Converts wrapped PNK back into bridged PNK (xPinakion)."
      },
      "withdrawAndConvertToPNK(uint256,address)": {
        "notice": "Converts wrapped PNK back into PNK using the Token Bridge."
      },
      "xPinakion()": {
        "notice": "Bridged PNK on xDai to be wrapped. This token is upgradeable."
      }
    },
    "version": 1
  },
  "storageLayout": {
    "storage": [
      {
        "astId": 245,
        "contract": "src/kleros-v1/kleros-liquid-xdai/WrappedPinakion.sol:WrappedPinakion",
        "label": "_initialized",
        "offset": 0,
        "slot": "0",
        "type": "t_uint8"
      },
      {
        "astId": 248,
        "contract": "src/kleros-v1/kleros-liquid-xdai/WrappedPinakion.sol:WrappedPinakion",
        "label": "_initializing",
        "offset": 1,
        "slot": "0",
        "type": "t_bool"
      },
      {
        "astId": 17270,
        "contract": "src/kleros-v1/kleros-liquid-xdai/WrappedPinakion.sol:WrappedPinakion",
        "label": "balances",
        "offset": 0,
        "slot": "1",
        "type": "t_mapping(t_address,t_uint256)"
      },
      {
        "astId": 17276,
        "contract": "src/kleros-v1/kleros-liquid-xdai/WrappedPinakion.sol:WrappedPinakion",
        "label": "allowance",
        "offset": 0,
        "slot": "2",
        "type": "t_mapping(t_address,t_mapping(t_address,t_uint256))"
      },
      {
        "astId": 17279,
        "contract": "src/kleros-v1/kleros-liquid-xdai/WrappedPinakion.sol:WrappedPinakion",
        "label": "totalSupply",
        "offset": 0,
        "slot": "3",
        "type": "t_uint256"
      },
      {
        "astId": 17282,
        "contract": "src/kleros-v1/kleros-liquid-xdai/WrappedPinakion.sol:WrappedPinakion",
        "label": "name",
        "offset": 0,
        "slot": "4",
        "type": "t_string_storage"
      },
      {
        "astId": 17285,
        "contract": "src/kleros-v1/kleros-liquid-xdai/WrappedPinakion.sol:WrappedPinakion",
        "label": "symbol",
        "offset": 0,
        "slot": "5",
        "type": "t_string_storage"
      },
      {
        "astId": 17288,
        "contract": "src/kleros-v1/kleros-liquid-xdai/WrappedPinakion.sol:WrappedPinakion",
        "label": "decimals",
        "offset": 0,
        "slot": "6",
        "type": "t_uint8"
      },
      {
        "astId": 17291,
        "contract": "src/kleros-v1/kleros-liquid-xdai/WrappedPinakion.sol:WrappedPinakion",
        "label": "controller",
        "offset": 1,
        "slot": "6",
        "type": "t_address"
      },
      {
        "astId": 17295,
        "contract": "src/kleros-v1/kleros-liquid-xdai/WrappedPinakion.sol:WrappedPinakion",
        "label": "xPinakion",
        "offset": 0,
        "slot": "7",
        "type": "t_contract(IERC677)17963"
      },
      {
        "astId": 17299,
        "contract": "src/kleros-v1/kleros-liquid-xdai/WrappedPinakion.sol:WrappedPinakion",
        "label": "tokenBridge",
        "offset": 0,
        "slot": "8",
        "type": "t_contract(ITokenBridge)18000"
      }
    ],
    "types": {
      "t_address": {
        "encoding": "inplace",
        "label": "address",
        "numberOfBytes": "20"
      },
      "t_bool": {
        "encoding": "inplace",
        "label": "bool",
        "numberOfBytes": "1"
      },
      "t_contract(IERC677)17963": {
        "encoding": "inplace",
        "label": "contract IERC677",
        "numberOfBytes": "20"
      },
      "t_contract(ITokenBridge)18000": {
        "encoding": "inplace",
        "label": "contract ITokenBridge",
        "numberOfBytes": "20"
      },
      "t_mapping(t_address,t_mapping(t_address,t_uint256))": {
        "encoding": "mapping",
        "key": "t_address",
        "label": "mapping(address => mapping(address => uint256))",
        "numberOfBytes": "32",
        "value": "t_mapping(t_address,t_uint256)"
      },
      "t_mapping(t_address,t_uint256)": {
        "encoding": "mapping",
        "key": "t_address",
        "label": "mapping(address => uint256)",
        "numberOfBytes": "32",
        "value": "t_uint256"
      },
      "t_string_storage": {
        "encoding": "bytes",
        "label": "string",
        "numberOfBytes": "32"
      },
      "t_uint256": {
        "encoding": "inplace",
        "label": "uint256",
        "numberOfBytes": "32"
      },
      "t_uint8": {
        "encoding": "inplace",
        "label": "uint8",
        "numberOfBytes": "1"
      }
    }
  }
}