{
  "address": "0x34E520dc1d2Db660113b64724e14CEdCD01Ee879",
  "abi": [
    {
      "anonymous": false,
      "inputs": [
        {
          "indexed": true,
          "internalType": "uint256",
          "name": "_disputeID",
          "type": "uint256"
        },
        {
          "indexed": true,
          "internalType": "contract IArbitrable",
          "name": "_arbitrable",
          "type": "address"
        }
      ],
      "name": "DisputeCreation",
      "type": "event"
    },
    {
      "anonymous": false,
      "inputs": [
        {
          "indexed": true,
          "internalType": "address",
          "name": "_address",
          "type": "address"
        },
        {
          "indexed": true,
          "internalType": "uint256",
          "name": "_disputeID",
          "type": "uint256"
        },
        {
          "indexed": false,
          "internalType": "uint256",
          "name": "_appeal",
          "type": "uint256"
        },
        {
          "indexed": false,
          "internalType": "uint256",
          "name": "_voteID",
          "type": "uint256"
        }
      ],
      "name": "Draw",
      "type": "event"
    },
    {
      "anonymous": false,
      "inputs": [
        {
          "indexed": false,
          "internalType": "uint8",
          "name": "version",
          "type": "uint8"
        }
      ],
      "name": "Initialized",
      "type": "event"
    },
    {
      "anonymous": false,
      "inputs": [
        {
          "indexed": true,
          "internalType": "uint256",
          "name": "_disputeID",
          "type": "uint256"
        },
        {
          "indexed": false,
          "internalType": "enum xKlerosLiquidV2.Period",
          "name": "_period",
          "type": "uint8"
        }
      ],
      "name": "NewPeriod",
      "type": "event"
    },
    {
      "anonymous": false,
      "inputs": [
        {
          "indexed": false,
          "internalType": "enum xKlerosLiquidV2.Phase",
          "name": "_phase",
          "type": "uint8"
        }
      ],
      "name": "NewPhase",
      "type": "event"
    },
    {
      "anonymous": false,
      "inputs": [
        {
          "indexed": true,
          "internalType": "contract IArbitrable",
          "name": "_arbitrable",
          "type": "address"
        },
        {
          "indexed": true,
          "internalType": "uint256",
          "name": "_disputeID",
          "type": "uint256"
        },
        {
          "indexed": false,
          "internalType": "uint256",
          "name": "_ruling",
          "type": "uint256"
        }
      ],
      "name": "Ruling",
      "type": "event"
    },
    {
      "anonymous": false,
      "inputs": [
        {
          "indexed": true,
          "internalType": "address",
          "name": "_address",
          "type": "address"
        },
        {
          "indexed": false,
          "internalType": "uint256",
          "name": "_subcourtID",
          "type": "uint256"
        },
        {
          "indexed": false,
          "internalType": "uint128",
          "name": "_stake",
          "type": "uint128"
        },
        {
          "indexed": false,
          "internalType": "uint256",
          "name": "_newTotalStake",
          "type": "uint256"
        }
      ],
      "name": "StakeSet",
      "type": "event"
    },
    {
      "anonymous": false,
      "inputs": [
        {
          "indexed": true,
          "internalType": "address",
          "name": "_address",
          "type": "address"
        },
        {
          "indexed": true,
          "internalType": "uint256",
          "name": "_disputeID",
          "type": "uint256"
        },
        {
          "indexed": false,
          "internalType": "int256",
          "name": "_tokenAmount",
          "type": "int256"
        },
        {
          "indexed": false,
          "internalType": "int256",
          "name": "_ETHAmount",
          "type": "int256"
        }
      ],
      "name": "TokenAndETHShift",
      "type": "event"
    },
    {
      "inputs": [],
      "name": "ALPHA_DIVISOR",
      "outputs": [
        {
          "internalType": "uint256",
          "name": "",
          "type": "uint256"
        }
      ],
      "stateMutability": "view",
      "type": "function"
    },
    {
      "inputs": [],
      "name": "MAX_STAKE_PATHS",
      "outputs": [
        {
          "internalType": "uint256",
          "name": "",
          "type": "uint256"
        }
      ],
      "stateMutability": "view",
      "type": "function"
    },
    {
      "inputs": [],
      "name": "MIN_JURORS",
      "outputs": [
        {
          "internalType": "uint256",
          "name": "",
          "type": "uint256"
        }
      ],
      "stateMutability": "view",
      "type": "function"
    },
    {
      "inputs": [],
      "name": "NON_PAYABLE_AMOUNT",
      "outputs": [
        {
          "internalType": "uint256",
          "name": "",
          "type": "uint256"
        }
      ],
      "stateMutability": "view",
      "type": "function"
    },
    {
      "inputs": [],
      "name": "RN",
      "outputs": [
        {
          "internalType": "uint256",
          "name": "",
          "type": "uint256"
        }
      ],
      "stateMutability": "view",
      "type": "function"
    },
    {
      "inputs": [],
      "name": "RNBlock",
      "outputs": [
        {
          "internalType": "uint256",
          "name": "",
          "type": "uint256"
        }
      ],
      "stateMutability": "view",
      "type": "function"
    },
    {
      "inputs": [],
      "name": "RNGenerator",
      "outputs": [
        {
          "internalType": "contract IRandomAuRa",
          "name": "",
          "type": "address"
        }
      ],
      "stateMutability": "view",
      "type": "function"
    },
    {
      "inputs": [
        {
          "internalType": "bytes",
          "name": "_extraData",
          "type": "bytes"
        }
      ],
      "name": "arbitrationCost",
      "outputs": [
        {
          "internalType": "uint256",
          "name": "cost",
          "type": "uint256"
        }
      ],
      "stateMutability": "view",
      "type": "function"
    },
    {
      "inputs": [
        {
          "internalType": "contract IForeignGateway",
          "name": "_foreignGateway",
          "type": "address"
        }
      ],
      "name": "changeForeignGateway",
      "outputs": [],
      "stateMutability": "nonpayable",
      "type": "function"
    },
    {
      "inputs": [
        {
          "internalType": "address",
          "name": "_governor",
          "type": "address"
        }
      ],
      "name": "changeGovernor",
      "outputs": [],
      "stateMutability": "nonpayable",
      "type": "function"
    },
    {
      "inputs": [
        {
          "internalType": "uint256",
          "name": "_maxDrawingTime",
          "type": "uint256"
        }
      ],
      "name": "changeMaxDrawingTime",
      "outputs": [],
      "stateMutability": "nonpayable",
      "type": "function"
    },
    {
      "inputs": [
        {
          "internalType": "uint256",
          "name": "_minStakingTime",
          "type": "uint256"
        }
      ],
      "name": "changeMinStakingTime",
      "outputs": [],
      "stateMutability": "nonpayable",
      "type": "function"
    },
    {
      "inputs": [
        {
          "internalType": "contract WrappedPinakion",
          "name": "_pinakion",
          "type": "address"
        }
      ],
      "name": "changePinakion",
      "outputs": [],
      "stateMutability": "nonpayable",
      "type": "function"
    },
    {
      "inputs": [
        {
          "internalType": "contract IRandomAuRa",
          "name": "_RNGenerator",
          "type": "address"
        }
      ],
      "name": "changeRNGenerator",
      "outputs": [],
      "stateMutability": "nonpayable",
      "type": "function"
    },
    {
      "inputs": [
        {
          "internalType": "uint96",
          "name": "_subcourtID",
          "type": "uint96"
        },
        {
          "internalType": "uint256",
          "name": "_alpha",
          "type": "uint256"
        }
      ],
      "name": "changeSubcourtAlpha",
      "outputs": [],
      "stateMutability": "nonpayable",
      "type": "function"
    },
    {
      "inputs": [
        {
          "internalType": "uint96",
          "name": "_subcourtID",
          "type": "uint96"
        },
        {
          "internalType": "uint256",
          "name": "_feeForJuror",
          "type": "uint256"
        }
      ],
      "name": "changeSubcourtJurorFee",
      "outputs": [],
      "stateMutability": "nonpayable",
      "type": "function"
    },
    {
      "inputs": [
        {
          "internalType": "uint96",
          "name": "_subcourtID",
          "type": "uint96"
        },
        {
          "internalType": "uint256",
          "name": "_jurorsForCourtJump",
          "type": "uint256"
        }
      ],
      "name": "changeSubcourtJurorsForJump",
      "outputs": [],
      "stateMutability": "nonpayable",
      "type": "function"
    },
    {
      "inputs": [
        {
          "internalType": "uint96",
          "name": "_subcourtID",
          "type": "uint96"
        },
        {
          "internalType": "uint256",
          "name": "_minStake",
          "type": "uint256"
        }
      ],
      "name": "changeSubcourtMinStake",
      "outputs": [],
      "stateMutability": "nonpayable",
      "type": "function"
    },
    {
      "inputs": [
        {
          "internalType": "uint96",
          "name": "_subcourtID",
          "type": "uint96"
        },
        {
          "internalType": "uint256[4]",
          "name": "_timesPerPeriod",
          "type": "uint256[4]"
        }
      ],
      "name": "changeSubcourtTimesPerPeriod",
      "outputs": [],
      "stateMutability": "nonpayable",
      "type": "function"
    },
    {
      "inputs": [
        {
          "internalType": "contract IERC20",
          "name": "_weth",
          "type": "address"
        }
      ],
      "name": "changeWethAddress",
      "outputs": [],
      "stateMutability": "nonpayable",
      "type": "function"
    },
    {
      "inputs": [
        {
          "internalType": "uint256",
          "name": "",
          "type": "uint256"
        }
      ],
      "name": "courts",
      "outputs": [
        {
          "internalType": "uint96",
          "name": "parent",
          "type": "uint96"
        },
        {
          "internalType": "bool",
          "name": "hiddenVotes",
          "type": "bool"
        },
        {
          "internalType": "uint256",
          "name": "minStake",
          "type": "uint256"
        },
        {
          "internalType": "uint256",
          "name": "alpha",
          "type": "uint256"
        },
        {
          "internalType": "uint256",
          "name": "feeForJuror",
          "type": "uint256"
        },
        {
          "internalType": "uint256",
          "name": "jurorsForCourtJump",
          "type": "uint256"
        }
      ],
      "stateMutability": "view",
      "type": "function"
    },
    {
      "inputs": [
        {
          "internalType": "uint256",
          "name": "_numberOfChoices",
          "type": "uint256"
        },
        {
          "internalType": "bytes",
          "name": "_extraData",
          "type": "bytes"
        }
      ],
      "name": "createDispute",
      "outputs": [
        {
          "internalType": "uint256",
          "name": "disputeID",
          "type": "uint256"
        }
      ],
      "stateMutability": "payable",
      "type": "function"
    },
    {
      "inputs": [
        {
          "internalType": "uint96",
          "name": "_parent",
          "type": "uint96"
        },
        {
          "internalType": "bool",
          "name": "_hiddenVotes",
          "type": "bool"
        },
        {
          "internalType": "uint256",
          "name": "_minStake",
          "type": "uint256"
        },
        {
          "internalType": "uint256",
          "name": "_alpha",
          "type": "uint256"
        },
        {
          "internalType": "uint256",
          "name": "_feeForJuror",
          "type": "uint256"
        },
        {
          "internalType": "uint256",
          "name": "_jurorsForCourtJump",
          "type": "uint256"
        },
        {
          "internalType": "uint256[4]",
          "name": "_timesPerPeriod",
          "type": "uint256[4]"
        },
        {
          "internalType": "uint256",
          "name": "_sortitionSumTreeK",
          "type": "uint256"
        }
      ],
      "name": "createSubcourt",
      "outputs": [],
      "stateMutability": "nonpayable",
      "type": "function"
    },
    {
      "inputs": [
        {
          "internalType": "uint256",
          "name": "_disputeID",
          "type": "uint256"
        }
      ],
      "name": "currentRuling",
      "outputs": [
        {
          "internalType": "uint256",
          "name": "ruling",
          "type": "uint256"
        }
      ],
      "stateMutability": "view",
      "type": "function"
    },
    {
      "inputs": [
        {
          "internalType": "uint256",
          "name": "",
          "type": "uint256"
        }
      ],
      "name": "delayedSetStakes",
      "outputs": [
        {
          "internalType": "address",
          "name": "account",
          "type": "address"
        },
        {
          "internalType": "uint96",
          "name": "subcourtID",
          "type": "uint96"
        },
        {
          "internalType": "uint128",
          "name": "stake",
          "type": "uint128"
        }
      ],
      "stateMutability": "view",
      "type": "function"
    },
    {
      "inputs": [
        {
          "internalType": "uint256",
          "name": "",
          "type": "uint256"
        }
      ],
      "name": "disputes",
      "outputs": [
        {
          "internalType": "uint96",
          "name": "subcourtID",
          "type": "uint96"
        },
        {
          "internalType": "contract IArbitrable",
          "name": "arbitrated",
          "type": "address"
        },
        {
          "internalType": "uint256",
          "name": "numberOfChoices",
          "type": "uint256"
        },
        {
          "internalType": "enum xKlerosLiquidV2.Period",
          "name": "period",
          "type": "uint8"
        },
        {
          "internalType": "uint256",
          "name": "lastPeriodChange",
          "type": "uint256"
        },
        {
          "internalType": "uint256",
          "name": "drawsInRound",
          "type": "uint256"
        },
        {
          "internalType": "uint256",
          "name": "commitsInRound",
          "type": "uint256"
        },
        {
          "internalType": "bool",
          "name": "ruled",
          "type": "bool"
        }
      ],
      "stateMutability": "view",
      "type": "function"
    },
    {
      "inputs": [
        {
          "internalType": "uint256",
          "name": "",
          "type": "uint256"
        }
      ],
      "name": "disputesRuling",
      "outputs": [
        {
          "internalType": "uint256",
          "name": "",
          "type": "uint256"
        }
      ],
      "stateMutability": "view",
      "type": "function"
    },
    {
      "inputs": [],
      "name": "disputesWithoutJurors",
      "outputs": [
        {
          "internalType": "uint256",
          "name": "",
          "type": "uint256"
        }
      ],
      "stateMutability": "view",
      "type": "function"
    },
    {
      "inputs": [
        {
          "internalType": "uint256",
          "name": "_iterations",
          "type": "uint256"
        }
      ],
      "name": "executeDelayedSetStakes",
      "outputs": [],
      "stateMutability": "nonpayable",
      "type": "function"
    },
    {
      "inputs": [
        {
          "internalType": "address",
          "name": "_destination",
          "type": "address"
        },
        {
          "internalType": "uint256",
          "name": "_amount",
          "type": "uint256"
        },
        {
          "internalType": "bytes",
          "name": "_data",
          "type": "bytes"
        }
      ],
      "name": "executeGovernorProposal",
      "outputs": [],
      "stateMutability": "nonpayable",
      "type": "function"
    },
    {
      "inputs": [],
      "name": "foreignGateway",
      "outputs": [
        {
          "internalType": "contract IForeignGateway",
          "name": "",
          "type": "address"
        }
      ],
      "stateMutability": "view",
      "type": "function"
    },
    {
      "inputs": [
        {
          "internalType": "uint256",
          "name": "_disputeID",
          "type": "uint256"
        }
      ],
      "name": "getDispute",
      "outputs": [
        {
          "internalType": "uint256[]",
          "name": "votesLengths",
          "type": "uint256[]"
        },
        {
          "internalType": "uint256[]",
          "name": "tokensAtStakePerJuror",
          "type": "uint256[]"
        },
        {
          "internalType": "uint256[]",
          "name": "totalFeesForJurors",
          "type": "uint256[]"
        },
        {
          "internalType": "uint256[]",
          "name": "votesInEachRound",
          "type": "uint256[]"
        },
        {
          "internalType": "uint256[]",
          "name": "repartitionsInEachRound",
          "type": "uint256[]"
        },
        {
          "internalType": "uint256[]",
          "name": "penaltiesInEachRound",
          "type": "uint256[]"
        }
      ],
      "stateMutability": "view",
      "type": "function"
    },
    {
      "inputs": [
        {
          "internalType": "address",
          "name": "_account",
          "type": "address"
        }
      ],
      "name": "getJuror",
      "outputs": [
        {
          "internalType": "uint96[]",
          "name": "subcourtIDs",
          "type": "uint96[]"
        }
      ],
      "stateMutability": "view",
      "type": "function"
    },
    {
      "inputs": [
        {
          "internalType": "uint96",
          "name": "_subcourtID",
          "type": "uint96"
        }
      ],
      "name": "getSubcourt",
      "outputs": [
        {
          "internalType": "uint256[]",
          "name": "children",
          "type": "uint256[]"
        },
        {
          "internalType": "uint256[4]",
          "name": "timesPerPeriod",
          "type": "uint256[4]"
        }
      ],
      "stateMutability": "view",
      "type": "function"
    },
    {
      "inputs": [
        {
          "internalType": "uint256",
          "name": "_disputeID",
          "type": "uint256"
        },
        {
          "internalType": "uint256",
          "name": "_appeal",
          "type": "uint256"
        },
        {
          "internalType": "uint256",
          "name": "_voteID",
          "type": "uint256"
        }
      ],
      "name": "getVote",
      "outputs": [
        {
          "internalType": "address",
          "name": "account",
          "type": "address"
        },
        {
          "internalType": "bytes32",
          "name": "commit",
          "type": "bytes32"
        },
        {
          "internalType": "uint256",
          "name": "choice",
          "type": "uint256"
        },
        {
          "internalType": "bool",
          "name": "voted",
          "type": "bool"
        }
      ],
      "stateMutability": "view",
      "type": "function"
    },
    {
      "inputs": [
        {
          "internalType": "uint256",
          "name": "_disputeID",
          "type": "uint256"
        },
        {
          "internalType": "uint256",
          "name": "_appeal",
          "type": "uint256"
        }
      ],
      "name": "getVoteCounter",
      "outputs": [
        {
          "internalType": "uint256",
          "name": "winningChoice",
          "type": "uint256"
        },
        {
          "internalType": "uint256[]",
          "name": "counts",
          "type": "uint256[]"
        },
        {
          "internalType": "bool",
          "name": "tied",
          "type": "bool"
        }
      ],
      "stateMutability": "view",
      "type": "function"
    },
    {
      "inputs": [],
      "name": "governor",
      "outputs": [
        {
          "internalType": "address",
          "name": "",
          "type": "address"
        }
      ],
      "stateMutability": "view",
      "type": "function"
    },
    {
      "inputs": [
        {
          "internalType": "address",
          "name": "_governor",
          "type": "address"
        },
        {
          "internalType": "contract WrappedPinakion",
          "name": "_pinakion",
          "type": "address"
        },
        {
          "internalType": "contract IRandomAuRa",
          "name": "_RNGenerator",
          "type": "address"
        },
        {
          "internalType": "uint256",
          "name": "_minStakingTime",
          "type": "uint256"
        },
        {
          "internalType": "uint256",
          "name": "_maxDrawingTime",
          "type": "uint256"
        },
        {
          "internalType": "bool",
          "name": "_hiddenVotes",
          "type": "bool"
        },
        {
          "internalType": "uint256[4]",
          "name": "_courtParameters",
          "type": "uint256[4]"
        },
        {
          "internalType": "uint256[4]",
          "name": "_timesPerPeriod",
          "type": "uint256[4]"
        },
        {
          "internalType": "uint256",
          "name": "_sortitionSumTreeK",
          "type": "uint256"
        },
        {
          "internalType": "contract IForeignGateway",
          "name": "_foreignGateway",
          "type": "address"
        },
        {
          "internalType": "contract IERC20",
          "name": "_weth",
          "type": "address"
        }
      ],
      "name": "initialize",
      "outputs": [],
      "stateMutability": "nonpayable",
      "type": "function"
    },
    {
      "inputs": [
        {
          "internalType": "address",
          "name": "",
          "type": "address"
        }
      ],
      "name": "jurors",
      "outputs": [
        {
          "internalType": "uint256",
          "name": "stakedTokens",
          "type": "uint256"
        },
        {
          "internalType": "uint256",
          "name": "lockedTokens",
          "type": "uint256"
        }
      ],
      "stateMutability": "view",
      "type": "function"
    },
    {
      "inputs": [],
      "name": "lastDelayedSetStake",
      "outputs": [
        {
          "internalType": "uint256",
          "name": "",
          "type": "uint256"
        }
      ],
      "stateMutability": "view",
      "type": "function"
    },
    {
      "inputs": [],
      "name": "lastPhaseChange",
      "outputs": [
        {
          "internalType": "uint256",
          "name": "",
          "type": "uint256"
        }
      ],
      "stateMutability": "view",
      "type": "function"
    },
    {
      "inputs": [],
      "name": "lockInsolventTransfers",
      "outputs": [
        {
          "internalType": "bool",
          "name": "",
          "type": "bool"
        }
      ],
      "stateMutability": "view",
      "type": "function"
    },
    {
      "inputs": [],
      "name": "maxDrawingTime",
      "outputs": [
        {
          "internalType": "uint256",
          "name": "",
          "type": "uint256"
        }
      ],
      "stateMutability": "view",
      "type": "function"
    },
    {
      "inputs": [],
      "name": "minStakingTime",
      "outputs": [
        {
          "internalType": "uint256",
          "name": "",
          "type": "uint256"
        }
      ],
      "stateMutability": "view",
      "type": "function"
    },
    {
      "inputs": [],
      "name": "nextDelayedSetStake",
      "outputs": [
        {
          "internalType": "uint256",
          "name": "",
          "type": "uint256"
        }
      ],
      "stateMutability": "view",
      "type": "function"
    },
    {
      "inputs": [
        {
          "internalType": "address",
          "name": "_owner",
          "type": "address"
        },
        {
          "internalType": "address",
          "name": "_spender",
          "type": "address"
        },
        {
          "internalType": "uint256",
          "name": "_amount",
          "type": "uint256"
        }
      ],
      "name": "onApprove",
      "outputs": [
        {
          "internalType": "bool",
          "name": "allowed",
          "type": "bool"
        }
      ],
      "stateMutability": "nonpayable",
      "type": "function"
    },
    {
      "inputs": [
        {
          "internalType": "address",
          "name": "_from",
          "type": "address"
        },
        {
          "internalType": "address",
          "name": "_to",
          "type": "address"
        },
        {
          "internalType": "uint256",
          "name": "_amount",
          "type": "uint256"
        }
      ],
      "name": "onTransfer",
      "outputs": [
        {
          "internalType": "bool",
          "name": "allowed",
          "type": "bool"
        }
      ],
      "stateMutability": "nonpayable",
      "type": "function"
    },
    {
      "inputs": [],
      "name": "phase",
      "outputs": [
        {
          "internalType": "enum xKlerosLiquidV2.Phase",
          "name": "",
          "type": "uint8"
        }
      ],
      "stateMutability": "view",
      "type": "function"
    },
    {
      "inputs": [],
      "name": "pinakion",
      "outputs": [
        {
          "internalType": "contract WrappedPinakion",
          "name": "",
          "type": "address"
        }
      ],
      "stateMutability": "view",
      "type": "function"
    },
    {
      "inputs": [
        {
          "internalType": "address",
          "name": "_owner",
          "type": "address"
        }
      ],
      "name": "proxyPayment",
      "outputs": [
        {
          "internalType": "bool",
          "name": "allowed",
          "type": "bool"
        }
      ],
      "stateMutability": "payable",
      "type": "function"
    },
    {
      "inputs": [
        {
          "internalType": "uint256",
          "name": "_disputeID",
          "type": "uint256"
        },
        {
          "internalType": "uint256",
          "name": "_ruling",
          "type": "uint256"
        }
      ],
      "name": "rule",
      "outputs": [],
      "stateMutability": "nonpayable",
      "type": "function"
    },
    {
      "inputs": [
        {
          "internalType": "uint96",
          "name": "_subcourtID",
          "type": "uint96"
        },
        {
          "internalType": "uint128",
          "name": "_stake",
          "type": "uint128"
        }
      ],
      "name": "setStake",
      "outputs": [],
      "stateMutability": "nonpayable",
      "type": "function"
    },
    {
      "inputs": [
        {
          "internalType": "address",
          "name": "_account",
          "type": "address"
        },
        {
          "internalType": "uint96",
          "name": "_subcourtID",
          "type": "uint96"
        }
      ],
      "name": "stakeOf",
      "outputs": [
        {
          "internalType": "uint256",
          "name": "stake",
          "type": "uint256"
        }
      ],
      "stateMutability": "view",
      "type": "function"
    },
    {
      "inputs": [],
      "name": "totalDisputes",
      "outputs": [
        {
          "internalType": "uint256",
          "name": "",
          "type": "uint256"
        }
      ],
      "stateMutability": "view",
      "type": "function"
    },
    {
      "inputs": [],
      "name": "weth",
      "outputs": [
        {
          "internalType": "contract IERC20",
          "name": "",
          "type": "address"
        }
      ],
      "stateMutability": "view",
      "type": "function"
    }
  ],
  "transactionHash": "0xdb6a244e5101865541ff6d716ed335268c82aa88e3ff47dc219cda97d50b40ef",
  "args": [],
  "numDeployments": 2,
  "solcInputHash": "554a0755634b519652537ffa5fcb4ec8",
  "bytecode": "0x608060405234801561001057600080fd5b50613656806100206000396000f3fe6080604052600436106102df5760003560e01c80638ce7ff4a11610186578063c5e4ccc4116100d7578063e3b0073e11610085578063e3b0073e14610a4c578063e4c0aaf414610a7b578063eaff425a14610a9b578063f48c305414610ab0578063f66d685a14610ac4578063f7434ea914610ade578063fbf405b014610afe57600080fd5b8063c5e4ccc414610927578063ce9e77301461093d578063d4155d1f1461095d578063da682aeb1461098a578063dca5f6b0146109ae578063dd5e5cb5146109fa578063e3a96cbd14610a1a57600080fd5b8063b1c9fe6e11610134578063b1c9fe6e14610800578063b4a616081461082e578063b78a80ff14610843578063b888adfa146108d2578063c057eca7146108e8578063c108f3b4146108fe578063c13517e11461091457600080fd5b80638ce7ff4a146106f45780638d7c7daa1461074057806396d92a72146107605780639929057b146107805780639e72c153146107a0578063a2473cc1146107c0578063a57366e7146107e057600080fd5b806340026c87116102405780635e4a627d116101ee5780635e4a627d146106235780636a4f8f3914610639578063751accd0146106595780637a5de2a914610679578063823cfd7014610699578063840bc19c146106b957806385c855f3146106d457600080fd5b806340026c87146104be57806348b4e924146104ec5780634a3931491461050c578063564a565d1461053c57806357260364146105c357806359354c77146105e35780635bc24dd31461060357600080fd5b80631b92bbbe1161029d5780631b92bbbe146103bb5780631c3db16d146103d15780631f5a0dd2146103f15780632ea7b4d014610448578063311a6c561461045e5780633e1d09be1461047e5780633fc8cef31461049e57600080fd5b8062f5822c146102e4578063023d44df14610306578063034327441461032f57806303438616146103455780630c340a24146103725780630d44cf79146103a5575b600080fd5b3480156102f057600080fd5b506103046102ff366004612d61565b610b1e565b005b34801561031257600080fd5b5061031c60055481565b6040519081526020015b60405180910390f35b34801561033b57600080fd5b5061031c60045481565b34801561035157600080fd5b5061031c610360366004612d7e565b60146020526000908152604090205481565b34801561037e57600080fd5b50600054610398906201000090046001600160a01b031681565b6040516103269190612d97565b3480156103b157600080fd5b5061031c600e5481565b3480156103c757600080fd5b5061031c60085481565b3480156103dd57600080fd5b5061031c6103ec366004612d7e565b610b5d565b3480156103fd57600080fd5b5061041161040c366004612d7e565b610c0c565b604080516001600160601b0390971687529415156020870152938501929092526060840152608083015260a082015260c001610326565b34801561045457600080fd5b5061031c61271081565b34801561046a57600080fd5b50610304610479366004612dab565b610c60565b34801561048a57600080fd5b50610304610499366004612de9565b610e49565b3480156104aa57600080fd5b50601354610398906001600160a01b031681565b3480156104ca57600080fd5b506104de6104d9366004612e13565b611057565b604051610326929190612e69565b3480156104f857600080fd5b50610304610507366004612f40565b61111d565b34801561051857600080fd5b5061052c610527366004613008565b611497565b6040519015158152602001610326565b34801561054857600080fd5b506105af610557366004612d7e565b600f602052600090815260409020805460018201546002830154600384015460088501546009860154600d909601546001600160601b03861696600160601b9096046001600160a01b03169560ff9485169490911688565b60405161032698979695949392919061305f565b3480156105cf57600080fd5b506103046105de3660046130c2565b611596565b3480156105ef57600080fd5b506103046105fe366004612de9565b6115f4565b34801561060f57600080fd5b5061030461061e366004612de9565b611647565b34801561062f57600080fd5b5061031c60065481565b34801561064557600080fd5b50600254610398906001600160a01b031681565b34801561066557600080fd5b50610304610674366004613182565b61169a565b34801561068557600080fd5b50610304610694366004612d61565b61175f565b3480156106a557600080fd5b506103046106b4366004612d7e565b61179e565b3480156106c557600080fd5b5061031c6001600160ff1b0381565b3480156106e057600080fd5b506103046106ef3660046131da565b6117c0565b34801561070057600080fd5b5061071461070f36600461321d565b6117d8565b604080516001600160a01b03909516855260208501939093529183015215156060820152608001610326565b34801561074c57600080fd5b50601254610398906001600160a01b031681565b34801561076c57600080fd5b5061030461077b366004612d61565b611863565b34801561078c57600080fd5b5061030461079b366004612d7e565b6119de565b3480156107ac57600080fd5b506103046107bb366004612d61565b611b00565b3480156107cc57600080fd5b5061031c6107db366004613249565b611b3f565b3480156107ec57600080fd5b506103046107fb366004612de9565b611bed565b34801561080c57600080fd5b5060025461082190600160a01b900460ff1681565b6040516103269190613275565b34801561083a57600080fd5b5061031c600481565b34801561084f57600080fd5b5061089c61085e366004612d7e565b600c60205260009081526040902080546001909101546001600160a01b03821691600160a01b90046001600160601b0316906001600160801b031683565b604080516001600160a01b0390941684526001600160601b0390921660208401526001600160801b031690820152606001610326565b3480156108de57600080fd5b5061031c60035481565b3480156108f457600080fd5b5061031c60075481565b34801561090a57600080fd5b5061031c600d5481565b61031c61092236600461328f565b611c40565b34801561093357600080fd5b5061031c60105481565b34801561094957600080fd5b506103046109583660046132d5565b611f88565b34801561096957600080fd5b5061097d610978366004612d61565b6121e4565b604051610326919061334d565b34801561099657600080fd5b5061052c6109a5366004613008565b50600192915050565b3480156109ba57600080fd5b506109e56109c9366004612d61565b6011602052600090815260409020600181015460029091015482565b60408051928352602083019190915201610326565b348015610a0657600080fd5b50610304610a15366004612d7e565b612287565b348015610a2657600080fd5b50610a3a610a35366004612d7e565b6122a9565b6040516103269695949392919061339a565b348015610a5857600080fd5b50610a6c610a67366004612dab565b612521565b6040516103269392919061341c565b348015610a8757600080fd5b50610304610a96366004612d61565b612620565b348015610aa757600080fd5b5061031c600381565b61052c610abe366004612d61565b50600090565b348015610ad057600080fd5b5060095461052c9060ff1681565b348015610aea57600080fd5b5061031c610af9366004613447565b612667565b348015610b0a57600080fd5b50600154610398906001600160a01b031681565b6000546201000090046001600160a01b03163314610b3b57600080fd5b600180546001600160a01b0319166001600160a01b0392909216919091179055565b6000818152600f602052604081206005810154610b8a576000838152601460205260409020549150610c06565b600581018054610b9c90600190613499565b81548110610bac57610bac6134b0565b600091825260209091206002600390920201015460ff16610c0057600581018054610bd990600190613499565b81548110610be957610be96134b0565b906000526020600020906003020160000154610c03565b60005b91505b50919050565b600a8181548110610c1c57600080fd5b60009182526020909120600b90910201805460028201546003830154600484015460058501546006909501546001600160601b03909416955060ff90921693909286565b6010548210610cb65760405162461bcd60e51b815260206004820152601a60248201527f4469737075746520494420646f6573206e6f742065786973742e00000000000060448201526064015b60405180910390fd5b6012546001600160a01b03163314610d105760405162461bcd60e51b815260206004820152601d60248201527f43616e206f6e6c792062652063616c6c656420627920676174657761790000006044820152606401610cad565b6000828152600f60205260409020600d81015460ff1615610d6e5760405162461bcd60e51b8152602060048201526018602482015277293ab634b7339030b63932b0b23c9032bc32b1baba32b21760411b6044820152606401610cad565b600d81018054600160ff19909116179055600083815260146020526040908190208390558154905163188d362b60e11b81526004810185905260248101849052600160601b9091046001600160a01b03169063311a6c5690604401600060405180830381600087803b158015610de357600080fd5b505af1158015610df7573d6000803e3d6000fd5b50508254604051858152869350600160601b9091046001600160a01b031691507f394027a5fa6e098a1191094d1719d6929b9abc535fcc0c8f448d6a4e756222769060200160405180910390a3505050565b6000546201000090046001600160a01b03163314610e6657600080fd5b6001600160601b0382161580610ed7575080600a80846001600160601b031681548110610e9557610e956134b0565b60009182526020909120600b909102015481546001600160601b03909116908110610ec257610ec26134b0565b90600052602060002090600b02016003015411155b610ee057600080fd5b60005b600a836001600160601b031681548110610eff57610eff6134b0565b90600052602060002090600b0201600101805490508110156110205781600a80856001600160601b031681548110610f3957610f396134b0565b90600052602060002090600b02016001018381548110610f5b57610f5b6134b0565b906000526020600020015481548110610f7657610f766134b0565b90600052602060002090600b020160030154101561100e5760405162461bcd60e51b815260206004820152604960248201527f4120737562636f7572742063616e6e6f742062652074686520706172656e742060448201527f6f66206120737562636f75727420776974682061206c6f776572206d696e696d6064820152683ab69039ba30b5b29760b91b608482015260a401610cad565b80611018816134c6565b915050610ee3565b5080600a836001600160601b03168154811061103e5761103e6134b0565b90600052602060002090600b0201600301819055505050565b6060611061612ca1565b6000600a846001600160601b03168154811061107f5761107f6134b0565b90600052602060002090600b02019050806001018054806020026020016040519081016040528092919081815260200182805480156110dd57602002820191906000526020600020905b8154815260200190600101908083116110c9575b505060408051608081019182905294975060078601935060049250905082845b8154815260200190600101908083116110fd575050505050915050915091565b600054610100900460ff161580801561113d5750600054600160ff909116105b806111575750303b158015611157575060005460ff166001145b6111ba5760405162461bcd60e51b815260206004820152602e60248201527f496e697469616c697a61626c653a20636f6e747261637420697320616c72656160448201526d191e481a5b9a5d1a585b1a5e995960921b6064820152608401610cad565b6000805460ff1916600117905580156111dd576000805461ff0019166101001790555b6000805462010000600160b01b031916620100006001600160a01b038f81169190910291909117909155600180546001600160a01b0319168d83161781556002805460078d905560088c90556001600160a81b031916928d1692909217909155426003556009805460ff19169091179055600d5461125b576001600d555b601280546001600160a01b038086166001600160a01b0319928316179092556013805492851692909116919091179055600a5461144357604080516101008101825260008082528251818152602080820185528084019182528b1515848601528a516060808601919091528b8201516080860152948b015160a0850152938a015160c084015260e08301899052600a8054600181018255925282517fc65a7bb8d6351c1cf70c95a316cc6a92839c986682d98bc35f958f4883f9d2a8600b90930292830180546001600160601b0319166001600160601b039092169190911781559051805193949193611375937fc65a7bb8d6351c1cf70c95a316cc6a92839c986682d98bc35f958f4883f9d2a901929190910190612cbf565b50604082015160028201805460ff191691151591909117905560608201516003820155608082015160048083019190915560a0830151600583015560c0830151600683015560e08301516113ce91600784019190612d0a565b505060405163483abc4f60e11b8152600b6004820152600060248201526044810186905273c7e3BF90299f6BD9FA7c3703837A9CAbB57436369150639075789e9060640160006040518083038186803b15801561142a57600080fd5b505af415801561143e573d6000803e3d6000fd5b505050505b8015611489576000805461ff0019169055604051600181527f7f26b83ff96e1f2b6a682f133852f6798a09c465da95921460cefb38474024989060200160405180910390a15b505050505050505050505050565b60095460009060ff161561158b576001546040516370a0823160e01b815260009184916001600160a01b03909116906370a08231906114da908990600401612d97565b60206040518083038186803b1580156114f257600080fd5b505afa158015611506573d6000803e3d6000fd5b505050506040513d601f19601f8201168201806040525081019061152a91906134e1565b6115349190613499565b6001600160a01b03861660009081526011602052604090206001015490915081108061157a57506001600160a01b03851660009081526011602052604090206002015481105b1561158957600091505061158f565b505b5060015b9392505050565b6000546201000090046001600160a01b031633146115b357600080fd5b80600a836001600160601b0316815481106115d0576115d06134b0565b90600052602060002090600b02016007019060046115ef929190612d0a565b505050565b6000546201000090046001600160a01b0316331461161157600080fd5b80600a836001600160601b03168154811061162e5761162e6134b0565b90600052602060002090600b0201600501819055505050565b6000546201000090046001600160a01b0316331461166457600080fd5b80600a836001600160601b031681548110611681576116816134b0565b90600052602060002090600b0201600401819055505050565b6000546201000090046001600160a01b031633146116b757600080fd5b6000836001600160a01b031683836040516116d29190613526565b60006040518083038185875af1925050503d806000811461170f576040519150601f19603f3d011682016040523d82523d6000602084013e611714565b606091505b50509050806117595760405162461bcd60e51b8152602060048201526011602482015270155b9cdd58d8d95cdcd99d5b0818d85b1b607a1b6044820152606401610cad565b50505050565b6000546201000090046001600160a01b0316331461177c57600080fd5b601380546001600160a01b0319166001600160a01b0392909216919091179055565b6000546201000090046001600160a01b031633146117bb57600080fd5b600755565b6117cb3383836126ee565b6117d457600080fd5b5050565b6000806000806000600f60008981526020019081526020016000206004018781548110611807576118076134b0565b906000526020600020018681548110611822576118226134b0565b600091825260209091206004909102018054600182015460028301546003909301546001600160a01b039092169b909a5091985060ff169650945050505050565b6000546201000090046001600160a01b0316331461188057600080fd5b600280546001600160a01b0319166001600160a01b038316179055600160028054600160a01b900460ff16908111156118bb576118bb613049565b14156119db57600260009054906101000a90046001600160a01b03166001600160a01b0316631c77c58c6040518163ffffffff1660e01b815260040160206040518083038186803b15801561190f57600080fd5b505afa158015611923573d6000803e3d6000fd5b505050506040513d601f19601f8201168201806040525081019061194791906134e1565b600260009054906101000a90046001600160a01b03166001600160a01b03166378ab865d6040518163ffffffff1660e01b815260040160206040518083038186803b15801561199557600080fd5b505afa1580156119a9573d6000803e3d6000fd5b505050506040513d601f19601f820116820180604052508101906119cd91906134e1565b6119d79190613542565b6005555b50565b60008060028054600160a01b900460ff16908111156119ff576119ff613049565b14611a0957600080fd5b6000600e54600184600d54611a1e9190613542565b611a289190613499565b11611a335782611a4e565b600d54600e54611a439190613499565b611a4e906001613542565b9050600081600d54611a609190613542565b9050600d54811015611a7157600080fd5b600d545b81811015611af7576000818152600c6020526040902080546001820154611ac1916001600160a01b03811691600160a01b9091046001600160601b0316906001600160801b03166126ee565b50506000818152600c6020526040812090815560010180546001600160801b031916905580611aef816134c6565b915050611a75565b50600d55505050565b6000546201000090046001600160a01b03163314611b1d57600080fd5b601280546001600160a01b0319166001600160a01b0392909216919091179055565b600073c7e3BF90299f6BD9FA7c3703837A9CAbB5743636637521ccb1600b6001600160601b038516611b718787612c10565b6040516001600160e01b031960e086901b16815260048101939093526024830191909152604482015260640160206040518083038186803b158015611bb557600080fd5b505af4158015611bc9573d6000803e3d6000fd5b505050506040513d601f19601f8201168201806040525081019061158f91906134e1565b6000546201000090046001600160a01b03163314611c0a57600080fd5b80600a836001600160601b031681548110611c2757611c276134b0565b90600052602060002090600b0201600601819055505050565b60003415611c905760405162461bcd60e51b815260206004820152601b60248201527f466565732073686f756c64206265207061696420696e205745544800000000006044820152606401610cad565b6000611c9b83612667565b6013546040516323b872dd60e01b8152336004820152306024820152604481018390529192506001600160a01b0316906323b872dd90606401602060405180830381600087803b158015611cee57600080fd5b505af1158015611d02573d6000803e3d6000fd5b505050506040513d601f19601f82011682018060405250810190611d26919061355a565b611d725760405162461bcd60e51b815260206004820152601f60248201527f4e6f7420656e6f756768205745544820666f72206172626974726174696f6e006044820152606401610cad565b60108054906000611d82836134c6565b909155506000818152600f6020526040812080546001600160601b031633600160601b0217815591935080611db686612c58565b90925090506000611dc8836001613577565b604080516001600160601b03929092166020830152810183905260600160408051808303601f190181529082905260135460125463a9059cbb60e01b84526001600160a01b03908116600485015260248401899052919350169063a9059cbb90604401602060405180830381600087803b158015611e4557600080fd5b505af1158015611e59573d6000803e3d6000fd5b505050506040513d601f19601f82011682018060405250810190611e7d919061355a565b611ec95760405162461bcd60e51b815260206004820152601e60248201527f466565207472616e7366657220746f2067617465776179206661696c656400006044820152606401610cad565b60125460405163979f8e6560e01b81526001600160a01b039091169063979f8e6590611efd908b9085908a906004016135ce565b602060405180830381600087803b158015611f1757600080fd5b505af1158015611f2b573d6000803e3d6000fd5b505050506040513d601f19601f82011682018060405250810190611f4f91906134e1565b50604051339087907f141dfc18aa6a56fc816f44f0e9e2f1ebc92b15ab167770e17db5b084c10ed99590600090a3505050505092915050565b6000546201000090046001600160a01b03163314611fa557600080fd5b85600a896001600160601b031681548110611fc257611fc26134b0565b90600052602060002090600b02016003015411156120585760405162461bcd60e51b815260206004820152604760248201527f4120737562636f7572742063616e6e6f742062652061206368696c64206f662060448201527f6120737562636f7572742077697468206120686967686572206d696e696d756d6064820152661039ba30b5b29760c91b608482015260a401610cad565b600a805460018101825560009182527fc65a7bb8d6351c1cf70c95a316cc6a92839c986682d98bc35f958f4883f9d2a8600b82020180546001600160601b0319166001600160601b038c1617815590916040519080825280602002602001820160405280156120d1578160200160208202803683370190505b5080516120e8916001840191602090910190612cbf565b5060028101805460ff19168a151517905560038101889055600480820188905560058201879055600682018690556121269060078301908690612d0a565b5060405163483abc4f60e11b8152600b6004820152602481018390526044810184905273c7e3BF90299f6BD9FA7c3703837A9CAbB574363690639075789e9060640160006040518083038186803b15801561218057600080fd5b505af4158015612194573d6000803e3d6000fd5b50505050600a8a6001600160601b0316815481106121b4576121b46134b0565b600091825260208083206001600b9093020182018054928301815583529091200191909155505050505050505050565b6001600160a01b0381166000908152601160209081526040918290208054835181840281018401909452808452606093919283919083018282801561227a57602002820191906000526020600020906000905b82829054906101000a90046001600160601b03166001600160601b0316815260200190600c0190602082600b010492830192600103820291508084116122375790505b5050505050915050919050565b6000546201000090046001600160a01b031633146122a457600080fd5b600855565b6000818152600f602052604090206004810154606091829182918291829182916001600160401b038111156122e0576122e0612ebd565b604051908082528060200260200182016040528015612309578160200160208202803683370190505b50965060005b600482015481101561236d57816004018181548110612330576123306134b0565b9060005260206000200180549050888281518110612350576123506134b0565b602090810291909101015280612365816134c6565b91505061230f565b50806006018054806020026020016040519081016040528092919081815260200182805480156123bc57602002820191906000526020600020905b8154815260200190600101908083116123a8575b505050505095508060070180548060200260200160405190810160405280929190818152602001828054801561241157602002820191906000526020600020905b8154815260200190600101908083116123fd575b5050505050945080600a0180548060200260200160405190810160405280929190818152602001828054801561246657602002820191906000526020600020905b815481526020019060010190808311612452575b5050505050935080600b018054806020026020016040519081016040528092919081815260200182805480156124bb57602002820191906000526020600020905b8154815260200190600101908083116124a7575b5050505050925080600c0180548060200260200160405190810160405280929190818152602001828054801561251057602002820191906000526020600020905b8154815260200190600101908083116124fc575b505050505091505091939550919395565b6000828152600f60205260408120600581018054606092849290918391908790811061254f5761254f6134b0565b9060005260206000209060030201905080600001549450816001015460016125779190613542565b6001600160401b0381111561258e5761258e612ebd565b6040519080825280602002602001820160405280156125b7578160200160208202803683370190505b50935060005b8260010154811161260a57600081815260018301602052604090205485518690839081106125ed576125ed6134b0565b602090810291909101015280612602816134c6565b9150506125bd565b506002015493969295505060ff90921692509050565b6000546201000090046001600160a01b0316331461263d57600080fd5b600080546001600160a01b03909216620100000262010000600160b01b0319909216919091179055565b60125460405163f7434ea960e01b81526000916001600160a01b03169063f7434ea9906126989085906004016135f7565b60206040518083038186803b1580156126b057600080fd5b505afa1580156126c4573d6000803e3d6000fd5b505050506040513d601f19601f820116820180604052508101906126e891906134e1565b92915050565b600a546000906001600160601b0384161061270b5750600061158f565b6001600160801b03821615806127575750816001600160801b0316600a846001600160601b031681548110612742576127426134b0565b90600052602060002090600b02016003015411155b6127635750600061158f565b6001600160a01b0384166000908152601160205260408120906127868686612c10565b604051637521ccb160e01b8152600b60048201526001600160601b03871660248201526044810182905290915060009073c7e3BF90299f6BD9FA7c3703837A9CAbB574363690637521ccb19060640160206040518083038186803b1580156127ed57600080fd5b505af4158015612801573d6000803e3d6000fd5b505050506040513d601f19601f8201168201806040525081019061282591906134e1565b90506001600160801b038516158061283d5750600081115b80612849575082546004115b612859576000935050505061158f565b6000856001600160801b03168285600101546128759190613499565b61287f9190613542565b90506001600160801b038616158061291557506001546040516370a0823160e01b815282916001600160a01b0316906370a08231906128c2908c90600401612d97565b60206040518083038186803b1580156128da57600080fd5b505afa1580156128ee573d6000803e3d6000fd5b505050506040513d601f19601f8201168201806040525081019061291291906134e1565b10155b61292657600094505050505061158f565b600184018190556001600160801b038616612a8b5760005b8454811015612a8557876001600160601b0316856000018281548110612966576129666134b0565b600091825260209091206002820401546001909116600c026101000a90046001600160601b03161415612a7357845485906129a390600190613499565b815481106129b3576129b36134b0565b9060005260206000209060029182820401919006600c029054906101000a90046001600160601b03168560000182815481106129f1576129f16134b0565b9060005260206000209060029182820401919006600c026101000a8154816001600160601b0302191690836001600160601b0316021790555084600001805480612a3d57612a3d61360a565b60008281526020902060026000199092019182040180546001600160601b03600c60018516026101000a02191690559055612a85565b80612a7d816134c6565b91505061293e565b50612acb565b81612acb578354600180820186556000868152602090206002830401805491909216600c026101000a6001600160601b0381810219909216918a16021790555b60006001600160601b0388165b81612ba357604051631712e1c560e11b8152600b6004820152602481018290526001600160801b03891660448201526064810186905273c7e3BF90299f6BD9FA7c3703837A9CAbB574363690632e25c38a9060840160006040518083038186803b158015612b4557600080fd5b505af4158015612b59573d6000803e3d6000fd5b505050508060001415612b6f5760019150612ad8565b600a8181548110612b8257612b826134b0565b60009182526020909120600b90910201546001600160601b03169050612ad8565b604080516001600160601b038b1681526001600160801b038a1660208201529081018490526001600160a01b038b16907f8f753321c98641397daaca5e8abf8881fff1fd7a7bc229924a012e2cb61763d59060600160405180910390a25060019998505050505050505050565b600060405160005b6014811015612c33578481600c011a81830153600101612c18565b5060145b6020811015612c4f5783811a81830153600101612c37565b50519392505050565b6000806040835110612c9557505060208101516040820151600a546001600160601b03831610612c8757600091505b80612c90575060035b915091565b50600090506003915091565b60405180608001604052806004906020820280368337509192915050565b828054828255906000526020600020908101928215612cfa579160200282015b82811115612cfa578251825591602001919060010190612cdf565b50612d06929150612d37565b5090565b8260048101928215612cfa5791602002820182811115612cfa578251825591602001919060010190612cdf565b5b80821115612d065760008155600101612d38565b6001600160a01b03811681146119db57600080fd5b600060208284031215612d7357600080fd5b813561158f81612d4c565b600060208284031215612d9057600080fd5b5035919050565b6001600160a01b0391909116815260200190565b60008060408385031215612dbe57600080fd5b50508035926020909101359150565b80356001600160601b0381168114612de457600080fd5b919050565b60008060408385031215612dfc57600080fd5b612e0583612dcd565b946020939093013593505050565b600060208284031215612e2557600080fd5b61158f82612dcd565b600081518084526020808501945080840160005b83811015612e5e57815187529582019590820190600101612e42565b509495945050505050565b60a081526000612e7c60a0830185612e2e565b905060208083018460005b6004811015612ea457815183529183019190830190600101612e87565b505050509392505050565b80151581146119db57600080fd5b634e487b7160e01b600052604160045260246000fd5b600082601f830112612ee457600080fd5b604051608081018181106001600160401b0382111715612f0657612f06612ebd565b604052806080840185811115612f1b57600080fd5b845b81811015612f35578035835260209283019201612f1d565b509195945050505050565b60008060008060008060008060008060006102208c8e031215612f6257600080fd5b8b35612f6d81612d4c565b9a5060208c0135612f7d81612d4c565b995060408c0135612f8d81612d4c565b985060608c0135975060808c0135965060a08c0135612fab81612eaf565b9550612fba8d60c08e01612ed3565b9450612fca8d6101408e01612ed3565b93506101c08c013592506101e08c0135612fe381612d4c565b91506102008c0135612ff481612d4c565b809150509295989b509295989b9093969950565b60008060006060848603121561301d57600080fd5b833561302881612d4c565b9250602084013561303881612d4c565b929592945050506040919091013590565b634e487b7160e01b600052602160045260246000fd5b6001600160601b03891681526001600160a01b03881660208201526040810187905261010081016005871061309657613096613049565b6060820196909652608081019490945260a084019290925260c0830152151560e0909101529392505050565b60008060a083850312156130d557600080fd5b6130de83612dcd565b91506130ed8460208501612ed3565b90509250929050565b600082601f83011261310757600080fd5b81356001600160401b038082111561312157613121612ebd565b604051601f8301601f19908116603f0116810190828211818310171561314957613149612ebd565b8160405283815286602085880101111561316257600080fd5b836020870160208301376000602085830101528094505050505092915050565b60008060006060848603121561319757600080fd5b83356131a281612d4c565b92506020840135915060408401356001600160401b038111156131c457600080fd5b6131d0868287016130f6565b9150509250925092565b600080604083850312156131ed57600080fd5b6131f683612dcd565b915060208301356001600160801b038116811461321257600080fd5b809150509250929050565b60008060006060848603121561323257600080fd5b505081359360208301359350604090920135919050565b6000806040838503121561325c57600080fd5b823561326781612d4c565b91506130ed60208401612dcd565b602081016003831061328957613289613049565b91905290565b600080604083850312156132a257600080fd5b8235915060208301356001600160401b038111156132bf57600080fd5b6132cb858286016130f6565b9150509250929050565b600080600080600080600080610160898b0312156132f257600080fd5b6132fb89612dcd565b9750602089013561330b81612eaf565b965060408901359550606089013594506080890135935060a089013592506133368a60c08b01612ed3565b915061014089013590509295985092959890939650565b6020808252825182820181905260009190848201906040850190845b8181101561338e5783516001600160601b031683529284019291840191600101613369565b50909695505050505050565b60c0815260006133ad60c0830189612e2e565b82810360208401526133bf8189612e2e565b905082810360408401526133d38188612e2e565b905082810360608401526133e78187612e2e565b905082810360808401526133fb8186612e2e565b905082810360a084015261340f8185612e2e565b9998505050505050505050565b8381526060602082015260006134356060830185612e2e565b90508215156040830152949350505050565b60006020828403121561345957600080fd5b81356001600160401b0381111561346f57600080fd5b61347b848285016130f6565b949350505050565b634e487b7160e01b600052601160045260246000fd5b6000828210156134ab576134ab613483565b500390565b634e487b7160e01b600052603260045260246000fd5b60006000198214156134da576134da613483565b5060010190565b6000602082840312156134f357600080fd5b5051919050565b60005b838110156135155781810151838201526020016134fd565b838111156117595750506000910152565b600082516135388184602087016134fa565b9190910192915050565b6000821982111561355557613555613483565b500190565b60006020828403121561356c57600080fd5b815161158f81612eaf565b60006001600160601b0380831681851680830382111561359957613599613483565b01949350505050565b600081518084526135ba8160208601602086016134fa565b601f01601f19169290920160200192915050565b8381526060602082015260006135e760608301856135a2565b9050826040830152949350505050565b60208152600061158f60208301846135a2565b634e487b7160e01b600052603160045260246000fdfea26469706673582212208c24f0dc5c862abcfbeb5d7abaf80f855b2bfba8e446fb9c2aa2b7b83edd554e64736f6c63430008090033",
  "deployedBytecode": "0x6080604052600436106102df5760003560e01c80638ce7ff4a11610186578063c5e4ccc4116100d7578063e3b0073e11610085578063e3b0073e14610a4c578063e4c0aaf414610a7b578063eaff425a14610a9b578063f48c305414610ab0578063f66d685a14610ac4578063f7434ea914610ade578063fbf405b014610afe57600080fd5b8063c5e4ccc414610927578063ce9e77301461093d578063d4155d1f1461095d578063da682aeb1461098a578063dca5f6b0146109ae578063dd5e5cb5146109fa578063e3a96cbd14610a1a57600080fd5b8063b1c9fe6e11610134578063b1c9fe6e14610800578063b4a616081461082e578063b78a80ff14610843578063b888adfa146108d2578063c057eca7146108e8578063c108f3b4146108fe578063c13517e11461091457600080fd5b80638ce7ff4a146106f45780638d7c7daa1461074057806396d92a72146107605780639929057b146107805780639e72c153146107a0578063a2473cc1146107c0578063a57366e7146107e057600080fd5b806340026c87116102405780635e4a627d116101ee5780635e4a627d146106235780636a4f8f3914610639578063751accd0146106595780637a5de2a914610679578063823cfd7014610699578063840bc19c146106b957806385c855f3146106d457600080fd5b806340026c87146104be57806348b4e924146104ec5780634a3931491461050c578063564a565d1461053c57806357260364146105c357806359354c77146105e35780635bc24dd31461060357600080fd5b80631b92bbbe1161029d5780631b92bbbe146103bb5780631c3db16d146103d15780631f5a0dd2146103f15780632ea7b4d014610448578063311a6c561461045e5780633e1d09be1461047e5780633fc8cef31461049e57600080fd5b8062f5822c146102e4578063023d44df14610306578063034327441461032f57806303438616146103455780630c340a24146103725780630d44cf79146103a5575b600080fd5b3480156102f057600080fd5b506103046102ff366004612d61565b610b1e565b005b34801561031257600080fd5b5061031c60055481565b6040519081526020015b60405180910390f35b34801561033b57600080fd5b5061031c60045481565b34801561035157600080fd5b5061031c610360366004612d7e565b60146020526000908152604090205481565b34801561037e57600080fd5b50600054610398906201000090046001600160a01b031681565b6040516103269190612d97565b3480156103b157600080fd5b5061031c600e5481565b3480156103c757600080fd5b5061031c60085481565b3480156103dd57600080fd5b5061031c6103ec366004612d7e565b610b5d565b3480156103fd57600080fd5b5061041161040c366004612d7e565b610c0c565b604080516001600160601b0390971687529415156020870152938501929092526060840152608083015260a082015260c001610326565b34801561045457600080fd5b5061031c61271081565b34801561046a57600080fd5b50610304610479366004612dab565b610c60565b34801561048a57600080fd5b50610304610499366004612de9565b610e49565b3480156104aa57600080fd5b50601354610398906001600160a01b031681565b3480156104ca57600080fd5b506104de6104d9366004612e13565b611057565b604051610326929190612e69565b3480156104f857600080fd5b50610304610507366004612f40565b61111d565b34801561051857600080fd5b5061052c610527366004613008565b611497565b6040519015158152602001610326565b34801561054857600080fd5b506105af610557366004612d7e565b600f602052600090815260409020805460018201546002830154600384015460088501546009860154600d909601546001600160601b03861696600160601b9096046001600160a01b03169560ff9485169490911688565b60405161032698979695949392919061305f565b3480156105cf57600080fd5b506103046105de3660046130c2565b611596565b3480156105ef57600080fd5b506103046105fe366004612de9565b6115f4565b34801561060f57600080fd5b5061030461061e366004612de9565b611647565b34801561062f57600080fd5b5061031c60065481565b34801561064557600080fd5b50600254610398906001600160a01b031681565b34801561066557600080fd5b50610304610674366004613182565b61169a565b34801561068557600080fd5b50610304610694366004612d61565b61175f565b3480156106a557600080fd5b506103046106b4366004612d7e565b61179e565b3480156106c557600080fd5b5061031c6001600160ff1b0381565b3480156106e057600080fd5b506103046106ef3660046131da565b6117c0565b34801561070057600080fd5b5061071461070f36600461321d565b6117d8565b604080516001600160a01b03909516855260208501939093529183015215156060820152608001610326565b34801561074c57600080fd5b50601254610398906001600160a01b031681565b34801561076c57600080fd5b5061030461077b366004612d61565b611863565b34801561078c57600080fd5b5061030461079b366004612d7e565b6119de565b3480156107ac57600080fd5b506103046107bb366004612d61565b611b00565b3480156107cc57600080fd5b5061031c6107db366004613249565b611b3f565b3480156107ec57600080fd5b506103046107fb366004612de9565b611bed565b34801561080c57600080fd5b5060025461082190600160a01b900460ff1681565b6040516103269190613275565b34801561083a57600080fd5b5061031c600481565b34801561084f57600080fd5b5061089c61085e366004612d7e565b600c60205260009081526040902080546001909101546001600160a01b03821691600160a01b90046001600160601b0316906001600160801b031683565b604080516001600160a01b0390941684526001600160601b0390921660208401526001600160801b031690820152606001610326565b3480156108de57600080fd5b5061031c60035481565b3480156108f457600080fd5b5061031c60075481565b34801561090a57600080fd5b5061031c600d5481565b61031c61092236600461328f565b611c40565b34801561093357600080fd5b5061031c60105481565b34801561094957600080fd5b506103046109583660046132d5565b611f88565b34801561096957600080fd5b5061097d610978366004612d61565b6121e4565b604051610326919061334d565b34801561099657600080fd5b5061052c6109a5366004613008565b50600192915050565b3480156109ba57600080fd5b506109e56109c9366004612d61565b6011602052600090815260409020600181015460029091015482565b60408051928352602083019190915201610326565b348015610a0657600080fd5b50610304610a15366004612d7e565b612287565b348015610a2657600080fd5b50610a3a610a35366004612d7e565b6122a9565b6040516103269695949392919061339a565b348015610a5857600080fd5b50610a6c610a67366004612dab565b612521565b6040516103269392919061341c565b348015610a8757600080fd5b50610304610a96366004612d61565b612620565b348015610aa757600080fd5b5061031c600381565b61052c610abe366004612d61565b50600090565b348015610ad057600080fd5b5060095461052c9060ff1681565b348015610aea57600080fd5b5061031c610af9366004613447565b612667565b348015610b0a57600080fd5b50600154610398906001600160a01b031681565b6000546201000090046001600160a01b03163314610b3b57600080fd5b600180546001600160a01b0319166001600160a01b0392909216919091179055565b6000818152600f602052604081206005810154610b8a576000838152601460205260409020549150610c06565b600581018054610b9c90600190613499565b81548110610bac57610bac6134b0565b600091825260209091206002600390920201015460ff16610c0057600581018054610bd990600190613499565b81548110610be957610be96134b0565b906000526020600020906003020160000154610c03565b60005b91505b50919050565b600a8181548110610c1c57600080fd5b60009182526020909120600b90910201805460028201546003830154600484015460058501546006909501546001600160601b03909416955060ff90921693909286565b6010548210610cb65760405162461bcd60e51b815260206004820152601a60248201527f4469737075746520494420646f6573206e6f742065786973742e00000000000060448201526064015b60405180910390fd5b6012546001600160a01b03163314610d105760405162461bcd60e51b815260206004820152601d60248201527f43616e206f6e6c792062652063616c6c656420627920676174657761790000006044820152606401610cad565b6000828152600f60205260409020600d81015460ff1615610d6e5760405162461bcd60e51b8152602060048201526018602482015277293ab634b7339030b63932b0b23c9032bc32b1baba32b21760411b6044820152606401610cad565b600d81018054600160ff19909116179055600083815260146020526040908190208390558154905163188d362b60e11b81526004810185905260248101849052600160601b9091046001600160a01b03169063311a6c5690604401600060405180830381600087803b158015610de357600080fd5b505af1158015610df7573d6000803e3d6000fd5b50508254604051858152869350600160601b9091046001600160a01b031691507f394027a5fa6e098a1191094d1719d6929b9abc535fcc0c8f448d6a4e756222769060200160405180910390a3505050565b6000546201000090046001600160a01b03163314610e6657600080fd5b6001600160601b0382161580610ed7575080600a80846001600160601b031681548110610e9557610e956134b0565b60009182526020909120600b909102015481546001600160601b03909116908110610ec257610ec26134b0565b90600052602060002090600b02016003015411155b610ee057600080fd5b60005b600a836001600160601b031681548110610eff57610eff6134b0565b90600052602060002090600b0201600101805490508110156110205781600a80856001600160601b031681548110610f3957610f396134b0565b90600052602060002090600b02016001018381548110610f5b57610f5b6134b0565b906000526020600020015481548110610f7657610f766134b0565b90600052602060002090600b020160030154101561100e5760405162461bcd60e51b815260206004820152604960248201527f4120737562636f7572742063616e6e6f742062652074686520706172656e742060448201527f6f66206120737562636f75727420776974682061206c6f776572206d696e696d6064820152683ab69039ba30b5b29760b91b608482015260a401610cad565b80611018816134c6565b915050610ee3565b5080600a836001600160601b03168154811061103e5761103e6134b0565b90600052602060002090600b0201600301819055505050565b6060611061612ca1565b6000600a846001600160601b03168154811061107f5761107f6134b0565b90600052602060002090600b02019050806001018054806020026020016040519081016040528092919081815260200182805480156110dd57602002820191906000526020600020905b8154815260200190600101908083116110c9575b505060408051608081019182905294975060078601935060049250905082845b8154815260200190600101908083116110fd575050505050915050915091565b600054610100900460ff161580801561113d5750600054600160ff909116105b806111575750303b158015611157575060005460ff166001145b6111ba5760405162461bcd60e51b815260206004820152602e60248201527f496e697469616c697a61626c653a20636f6e747261637420697320616c72656160448201526d191e481a5b9a5d1a585b1a5e995960921b6064820152608401610cad565b6000805460ff1916600117905580156111dd576000805461ff0019166101001790555b6000805462010000600160b01b031916620100006001600160a01b038f81169190910291909117909155600180546001600160a01b0319168d83161781556002805460078d905560088c90556001600160a81b031916928d1692909217909155426003556009805460ff19169091179055600d5461125b576001600d555b601280546001600160a01b038086166001600160a01b0319928316179092556013805492851692909116919091179055600a5461144357604080516101008101825260008082528251818152602080820185528084019182528b1515848601528a516060808601919091528b8201516080860152948b015160a0850152938a015160c084015260e08301899052600a8054600181018255925282517fc65a7bb8d6351c1cf70c95a316cc6a92839c986682d98bc35f958f4883f9d2a8600b90930292830180546001600160601b0319166001600160601b039092169190911781559051805193949193611375937fc65a7bb8d6351c1cf70c95a316cc6a92839c986682d98bc35f958f4883f9d2a901929190910190612cbf565b50604082015160028201805460ff191691151591909117905560608201516003820155608082015160048083019190915560a0830151600583015560c0830151600683015560e08301516113ce91600784019190612d0a565b505060405163483abc4f60e11b8152600b6004820152600060248201526044810186905273__$9b1aa2a5defb7a13dc220b13d2e6a83a6b$__9150639075789e9060640160006040518083038186803b15801561142a57600080fd5b505af415801561143e573d6000803e3d6000fd5b505050505b8015611489576000805461ff0019169055604051600181527f7f26b83ff96e1f2b6a682f133852f6798a09c465da95921460cefb38474024989060200160405180910390a15b505050505050505050505050565b60095460009060ff161561158b576001546040516370a0823160e01b815260009184916001600160a01b03909116906370a08231906114da908990600401612d97565b60206040518083038186803b1580156114f257600080fd5b505afa158015611506573d6000803e3d6000fd5b505050506040513d601f19601f8201168201806040525081019061152a91906134e1565b6115349190613499565b6001600160a01b03861660009081526011602052604090206001015490915081108061157a57506001600160a01b03851660009081526011602052604090206002015481105b1561158957600091505061158f565b505b5060015b9392505050565b6000546201000090046001600160a01b031633146115b357600080fd5b80600a836001600160601b0316815481106115d0576115d06134b0565b90600052602060002090600b02016007019060046115ef929190612d0a565b505050565b6000546201000090046001600160a01b0316331461161157600080fd5b80600a836001600160601b03168154811061162e5761162e6134b0565b90600052602060002090600b0201600501819055505050565b6000546201000090046001600160a01b0316331461166457600080fd5b80600a836001600160601b031681548110611681576116816134b0565b90600052602060002090600b0201600401819055505050565b6000546201000090046001600160a01b031633146116b757600080fd5b6000836001600160a01b031683836040516116d29190613526565b60006040518083038185875af1925050503d806000811461170f576040519150601f19603f3d011682016040523d82523d6000602084013e611714565b606091505b50509050806117595760405162461bcd60e51b8152602060048201526011602482015270155b9cdd58d8d95cdcd99d5b0818d85b1b607a1b6044820152606401610cad565b50505050565b6000546201000090046001600160a01b0316331461177c57600080fd5b601380546001600160a01b0319166001600160a01b0392909216919091179055565b6000546201000090046001600160a01b031633146117bb57600080fd5b600755565b6117cb3383836126ee565b6117d457600080fd5b5050565b6000806000806000600f60008981526020019081526020016000206004018781548110611807576118076134b0565b906000526020600020018681548110611822576118226134b0565b600091825260209091206004909102018054600182015460028301546003909301546001600160a01b039092169b909a5091985060ff169650945050505050565b6000546201000090046001600160a01b0316331461188057600080fd5b600280546001600160a01b0319166001600160a01b038316179055600160028054600160a01b900460ff16908111156118bb576118bb613049565b14156119db57600260009054906101000a90046001600160a01b03166001600160a01b0316631c77c58c6040518163ffffffff1660e01b815260040160206040518083038186803b15801561190f57600080fd5b505afa158015611923573d6000803e3d6000fd5b505050506040513d601f19601f8201168201806040525081019061194791906134e1565b600260009054906101000a90046001600160a01b03166001600160a01b03166378ab865d6040518163ffffffff1660e01b815260040160206040518083038186803b15801561199557600080fd5b505afa1580156119a9573d6000803e3d6000fd5b505050506040513d601f19601f820116820180604052508101906119cd91906134e1565b6119d79190613542565b6005555b50565b60008060028054600160a01b900460ff16908111156119ff576119ff613049565b14611a0957600080fd5b6000600e54600184600d54611a1e9190613542565b611a289190613499565b11611a335782611a4e565b600d54600e54611a439190613499565b611a4e906001613542565b9050600081600d54611a609190613542565b9050600d54811015611a7157600080fd5b600d545b81811015611af7576000818152600c6020526040902080546001820154611ac1916001600160a01b03811691600160a01b9091046001600160601b0316906001600160801b03166126ee565b50506000818152600c6020526040812090815560010180546001600160801b031916905580611aef816134c6565b915050611a75565b50600d55505050565b6000546201000090046001600160a01b03163314611b1d57600080fd5b601280546001600160a01b0319166001600160a01b0392909216919091179055565b600073__$9b1aa2a5defb7a13dc220b13d2e6a83a6b$__637521ccb1600b6001600160601b038516611b718787612c10565b6040516001600160e01b031960e086901b16815260048101939093526024830191909152604482015260640160206040518083038186803b158015611bb557600080fd5b505af4158015611bc9573d6000803e3d6000fd5b505050506040513d601f19601f8201168201806040525081019061158f91906134e1565b6000546201000090046001600160a01b03163314611c0a57600080fd5b80600a836001600160601b031681548110611c2757611c276134b0565b90600052602060002090600b0201600601819055505050565b60003415611c905760405162461bcd60e51b815260206004820152601b60248201527f466565732073686f756c64206265207061696420696e205745544800000000006044820152606401610cad565b6000611c9b83612667565b6013546040516323b872dd60e01b8152336004820152306024820152604481018390529192506001600160a01b0316906323b872dd90606401602060405180830381600087803b158015611cee57600080fd5b505af1158015611d02573d6000803e3d6000fd5b505050506040513d601f19601f82011682018060405250810190611d26919061355a565b611d725760405162461bcd60e51b815260206004820152601f60248201527f4e6f7420656e6f756768205745544820666f72206172626974726174696f6e006044820152606401610cad565b60108054906000611d82836134c6565b909155506000818152600f6020526040812080546001600160601b031633600160601b0217815591935080611db686612c58565b90925090506000611dc8836001613577565b604080516001600160601b03929092166020830152810183905260600160408051808303601f190181529082905260135460125463a9059cbb60e01b84526001600160a01b03908116600485015260248401899052919350169063a9059cbb90604401602060405180830381600087803b158015611e4557600080fd5b505af1158015611e59573d6000803e3d6000fd5b505050506040513d601f19601f82011682018060405250810190611e7d919061355a565b611ec95760405162461bcd60e51b815260206004820152601e60248201527f466565207472616e7366657220746f2067617465776179206661696c656400006044820152606401610cad565b60125460405163979f8e6560e01b81526001600160a01b039091169063979f8e6590611efd908b9085908a906004016135ce565b602060405180830381600087803b158015611f1757600080fd5b505af1158015611f2b573d6000803e3d6000fd5b505050506040513d601f19601f82011682018060405250810190611f4f91906134e1565b50604051339087907f141dfc18aa6a56fc816f44f0e9e2f1ebc92b15ab167770e17db5b084c10ed99590600090a3505050505092915050565b6000546201000090046001600160a01b03163314611fa557600080fd5b85600a896001600160601b031681548110611fc257611fc26134b0565b90600052602060002090600b02016003015411156120585760405162461bcd60e51b815260206004820152604760248201527f4120737562636f7572742063616e6e6f742062652061206368696c64206f662060448201527f6120737562636f7572742077697468206120686967686572206d696e696d756d6064820152661039ba30b5b29760c91b608482015260a401610cad565b600a805460018101825560009182527fc65a7bb8d6351c1cf70c95a316cc6a92839c986682d98bc35f958f4883f9d2a8600b82020180546001600160601b0319166001600160601b038c1617815590916040519080825280602002602001820160405280156120d1578160200160208202803683370190505b5080516120e8916001840191602090910190612cbf565b5060028101805460ff19168a151517905560038101889055600480820188905560058201879055600682018690556121269060078301908690612d0a565b5060405163483abc4f60e11b8152600b6004820152602481018390526044810184905273__$9b1aa2a5defb7a13dc220b13d2e6a83a6b$__90639075789e9060640160006040518083038186803b15801561218057600080fd5b505af4158015612194573d6000803e3d6000fd5b50505050600a8a6001600160601b0316815481106121b4576121b46134b0565b600091825260208083206001600b9093020182018054928301815583529091200191909155505050505050505050565b6001600160a01b0381166000908152601160209081526040918290208054835181840281018401909452808452606093919283919083018282801561227a57602002820191906000526020600020906000905b82829054906101000a90046001600160601b03166001600160601b0316815260200190600c0190602082600b010492830192600103820291508084116122375790505b5050505050915050919050565b6000546201000090046001600160a01b031633146122a457600080fd5b600855565b6000818152600f602052604090206004810154606091829182918291829182916001600160401b038111156122e0576122e0612ebd565b604051908082528060200260200182016040528015612309578160200160208202803683370190505b50965060005b600482015481101561236d57816004018181548110612330576123306134b0565b9060005260206000200180549050888281518110612350576123506134b0565b602090810291909101015280612365816134c6565b91505061230f565b50806006018054806020026020016040519081016040528092919081815260200182805480156123bc57602002820191906000526020600020905b8154815260200190600101908083116123a8575b505050505095508060070180548060200260200160405190810160405280929190818152602001828054801561241157602002820191906000526020600020905b8154815260200190600101908083116123fd575b5050505050945080600a0180548060200260200160405190810160405280929190818152602001828054801561246657602002820191906000526020600020905b815481526020019060010190808311612452575b5050505050935080600b018054806020026020016040519081016040528092919081815260200182805480156124bb57602002820191906000526020600020905b8154815260200190600101908083116124a7575b5050505050925080600c0180548060200260200160405190810160405280929190818152602001828054801561251057602002820191906000526020600020905b8154815260200190600101908083116124fc575b505050505091505091939550919395565b6000828152600f60205260408120600581018054606092849290918391908790811061254f5761254f6134b0565b9060005260206000209060030201905080600001549450816001015460016125779190613542565b6001600160401b0381111561258e5761258e612ebd565b6040519080825280602002602001820160405280156125b7578160200160208202803683370190505b50935060005b8260010154811161260a57600081815260018301602052604090205485518690839081106125ed576125ed6134b0565b602090810291909101015280612602816134c6565b9150506125bd565b506002015493969295505060ff90921692509050565b6000546201000090046001600160a01b0316331461263d57600080fd5b600080546001600160a01b03909216620100000262010000600160b01b0319909216919091179055565b60125460405163f7434ea960e01b81526000916001600160a01b03169063f7434ea9906126989085906004016135f7565b60206040518083038186803b1580156126b057600080fd5b505afa1580156126c4573d6000803e3d6000fd5b505050506040513d601f19601f820116820180604052508101906126e891906134e1565b92915050565b600a546000906001600160601b0384161061270b5750600061158f565b6001600160801b03821615806127575750816001600160801b0316600a846001600160601b031681548110612742576127426134b0565b90600052602060002090600b02016003015411155b6127635750600061158f565b6001600160a01b0384166000908152601160205260408120906127868686612c10565b604051637521ccb160e01b8152600b60048201526001600160601b03871660248201526044810182905290915060009073__$9b1aa2a5defb7a13dc220b13d2e6a83a6b$__90637521ccb19060640160206040518083038186803b1580156127ed57600080fd5b505af4158015612801573d6000803e3d6000fd5b505050506040513d601f19601f8201168201806040525081019061282591906134e1565b90506001600160801b038516158061283d5750600081115b80612849575082546004115b612859576000935050505061158f565b6000856001600160801b03168285600101546128759190613499565b61287f9190613542565b90506001600160801b038616158061291557506001546040516370a0823160e01b815282916001600160a01b0316906370a08231906128c2908c90600401612d97565b60206040518083038186803b1580156128da57600080fd5b505afa1580156128ee573d6000803e3d6000fd5b505050506040513d601f19601f8201168201806040525081019061291291906134e1565b10155b61292657600094505050505061158f565b600184018190556001600160801b038616612a8b5760005b8454811015612a8557876001600160601b0316856000018281548110612966576129666134b0565b600091825260209091206002820401546001909116600c026101000a90046001600160601b03161415612a7357845485906129a390600190613499565b815481106129b3576129b36134b0565b9060005260206000209060029182820401919006600c029054906101000a90046001600160601b03168560000182815481106129f1576129f16134b0565b9060005260206000209060029182820401919006600c026101000a8154816001600160601b0302191690836001600160601b0316021790555084600001805480612a3d57612a3d61360a565b60008281526020902060026000199092019182040180546001600160601b03600c60018516026101000a02191690559055612a85565b80612a7d816134c6565b91505061293e565b50612acb565b81612acb578354600180820186556000868152602090206002830401805491909216600c026101000a6001600160601b0381810219909216918a16021790555b60006001600160601b0388165b81612ba357604051631712e1c560e11b8152600b6004820152602481018290526001600160801b03891660448201526064810186905273__$9b1aa2a5defb7a13dc220b13d2e6a83a6b$__90632e25c38a9060840160006040518083038186803b158015612b4557600080fd5b505af4158015612b59573d6000803e3d6000fd5b505050508060001415612b6f5760019150612ad8565b600a8181548110612b8257612b826134b0565b60009182526020909120600b90910201546001600160601b03169050612ad8565b604080516001600160601b038b1681526001600160801b038a1660208201529081018490526001600160a01b038b16907f8f753321c98641397daaca5e8abf8881fff1fd7a7bc229924a012e2cb61763d59060600160405180910390a25060019998505050505050505050565b600060405160005b6014811015612c33578481600c011a81830153600101612c18565b5060145b6020811015612c4f5783811a81830153600101612c37565b50519392505050565b6000806040835110612c9557505060208101516040820151600a546001600160601b03831610612c8757600091505b80612c90575060035b915091565b50600090506003915091565b60405180608001604052806004906020820280368337509192915050565b828054828255906000526020600020908101928215612cfa579160200282015b82811115612cfa578251825591602001919060010190612cdf565b50612d06929150612d37565b5090565b8260048101928215612cfa5791602002820182811115612cfa578251825591602001919060010190612cdf565b5b80821115612d065760008155600101612d38565b6001600160a01b03811681146119db57600080fd5b600060208284031215612d7357600080fd5b813561158f81612d4c565b600060208284031215612d9057600080fd5b5035919050565b6001600160a01b0391909116815260200190565b60008060408385031215612dbe57600080fd5b50508035926020909101359150565b80356001600160601b0381168114612de457600080fd5b919050565b60008060408385031215612dfc57600080fd5b612e0583612dcd565b946020939093013593505050565b600060208284031215612e2557600080fd5b61158f82612dcd565b600081518084526020808501945080840160005b83811015612e5e57815187529582019590820190600101612e42565b509495945050505050565b60a081526000612e7c60a0830185612e2e565b905060208083018460005b6004811015612ea457815183529183019190830190600101612e87565b505050509392505050565b80151581146119db57600080fd5b634e487b7160e01b600052604160045260246000fd5b600082601f830112612ee457600080fd5b604051608081018181106001600160401b0382111715612f0657612f06612ebd565b604052806080840185811115612f1b57600080fd5b845b81811015612f35578035835260209283019201612f1d565b509195945050505050565b60008060008060008060008060008060006102208c8e031215612f6257600080fd5b8b35612f6d81612d4c565b9a5060208c0135612f7d81612d4c565b995060408c0135612f8d81612d4c565b985060608c0135975060808c0135965060a08c0135612fab81612eaf565b9550612fba8d60c08e01612ed3565b9450612fca8d6101408e01612ed3565b93506101c08c013592506101e08c0135612fe381612d4c565b91506102008c0135612ff481612d4c565b809150509295989b509295989b9093969950565b60008060006060848603121561301d57600080fd5b833561302881612d4c565b9250602084013561303881612d4c565b929592945050506040919091013590565b634e487b7160e01b600052602160045260246000fd5b6001600160601b03891681526001600160a01b03881660208201526040810187905261010081016005871061309657613096613049565b6060820196909652608081019490945260a084019290925260c0830152151560e0909101529392505050565b60008060a083850312156130d557600080fd5b6130de83612dcd565b91506130ed8460208501612ed3565b90509250929050565b600082601f83011261310757600080fd5b81356001600160401b038082111561312157613121612ebd565b604051601f8301601f19908116603f0116810190828211818310171561314957613149612ebd565b8160405283815286602085880101111561316257600080fd5b836020870160208301376000602085830101528094505050505092915050565b60008060006060848603121561319757600080fd5b83356131a281612d4c565b92506020840135915060408401356001600160401b038111156131c457600080fd5b6131d0868287016130f6565b9150509250925092565b600080604083850312156131ed57600080fd5b6131f683612dcd565b915060208301356001600160801b038116811461321257600080fd5b809150509250929050565b60008060006060848603121561323257600080fd5b505081359360208301359350604090920135919050565b6000806040838503121561325c57600080fd5b823561326781612d4c565b91506130ed60208401612dcd565b602081016003831061328957613289613049565b91905290565b600080604083850312156132a257600080fd5b8235915060208301356001600160401b038111156132bf57600080fd5b6132cb858286016130f6565b9150509250929050565b600080600080600080600080610160898b0312156132f257600080fd5b6132fb89612dcd565b9750602089013561330b81612eaf565b965060408901359550606089013594506080890135935060a089013592506133368a60c08b01612ed3565b915061014089013590509295985092959890939650565b6020808252825182820181905260009190848201906040850190845b8181101561338e5783516001600160601b031683529284019291840191600101613369565b50909695505050505050565b60c0815260006133ad60c0830189612e2e565b82810360208401526133bf8189612e2e565b905082810360408401526133d38188612e2e565b905082810360608401526133e78187612e2e565b905082810360808401526133fb8186612e2e565b905082810360a084015261340f8185612e2e565b9998505050505050505050565b8381526060602082015260006134356060830185612e2e565b90508215156040830152949350505050565b60006020828403121561345957600080fd5b81356001600160401b0381111561346f57600080fd5b61347b848285016130f6565b949350505050565b634e487b7160e01b600052601160045260246000fd5b6000828210156134ab576134ab613483565b500390565b634e487b7160e01b600052603260045260246000fd5b60006000198214156134da576134da613483565b5060010190565b6000602082840312156134f357600080fd5b5051919050565b60005b838110156135155781810151838201526020016134fd565b838111156117595750506000910152565b600082516135388184602087016134fa565b9190910192915050565b6000821982111561355557613555613483565b500190565b60006020828403121561356c57600080fd5b815161158f81612eaf565b60006001600160601b0380831681851680830382111561359957613599613483565b01949350505050565b600081518084526135ba8160208601602086016134fa565b601f01601f19169290920160200192915050565b8381526060602082015260006135e760608301856135a2565b9050826040830152949350505050565b60208152600061158f60208301846135a2565b634e487b7160e01b600052603160045260246000fdfea26469706673582212208c24f0dc5c862abcfbeb5d7abaf80f855b2bfba8e446fb9c2aa2b7b83edd554e64736f6c63430008090033",
  "libraries": {
    "SortitionSumTreeFactory": "0xc7e3BF90299f6BD9FA7c3703837A9CAbB5743636"
  },
  "devdoc": {
    "details": "This contract is an adaption of Mainnet's KlerosLiquid (https://github.com/kleros/kleros/blob/69cfbfb2128c29f1625b3a99a3183540772fda08/contracts/kleros/KlerosLiquid.sol)  for xDai chain. Notice that variables referring to ETH values in this contract, will hold the native token values of the chain on which xKlerosLiquid is deployed.  When this contract gets deployed on xDai chain, ETH variables will hold xDai values.",
    "events": {
      "Draw(address,uint256,uint256,uint256)": {
        "details": "Emitted when a juror is drawn.",
        "params": {
          "_address": "The drawn address.",
          "_appeal": "The appeal the draw is for. 0 is for the first round.",
          "_disputeID": "The ID of the dispute.",
          "_voteID": "The vote ID."
        }
      },
      "NewPeriod(uint256,uint8)": {
        "details": "Emitted when a dispute passes to a new period.",
        "params": {
          "_disputeID": "The ID of the dispute.",
          "_period": "The new period."
        }
      },
      "NewPhase(uint8)": {
        "details": "Emitted when we pass to a new phase.",
        "params": {
          "_phase": "The new phase."
        }
      },
      "StakeSet(address,uint256,uint128,uint256)": {
        "details": "Emitted when a juror's stake is set.",
        "params": {
          "_address": "The address of the juror.",
          "_newTotalStake": "The new total stake.",
          "_stake": "The new stake.",
          "_subcourtID": "The ID of the subcourt at the end of the stake path."
        }
      },
      "TokenAndETHShift(address,uint256,int256,int256)": {
        "details": "Emitted when a juror wins or loses tokens and ETH from a dispute.",
        "params": {
          "_ETHAmount": "The amount of ETH won or lost.",
          "_address": "The juror affected.",
          "_disputeID": "The ID of the dispute.",
          "_tokenAmount": "The amount of tokens won or lost."
        }
      }
    },
    "kind": "dev",
    "methods": {
      "arbitrationCost(bytes)": {
        "details": "Gets the cost of arbitration in a specified subcourt.",
        "params": {
          "_extraData": "Additional info about the dispute. We use it to pass the ID of the subcourt to create the dispute in (first 32 bytes) and the minimum number of jurors required (next 32 bytes)."
        },
        "returns": {
          "cost": "The cost."
        }
      },
      "changeForeignGateway(address)": {
        "details": "Changes the `foreignGateway` storage variable.",
        "params": {
          "_foreignGateway": "The new value for the `foreignGateway` storage variable."
        }
      },
      "changeGovernor(address)": {
        "details": "Changes the `governor` storage variable.",
        "params": {
          "_governor": "The new value for the `governor` storage variable."
        }
      },
      "changeMaxDrawingTime(uint256)": {
        "details": "Changes the `maxDrawingTime` storage variable.",
        "params": {
          "_maxDrawingTime": "The new value for the `maxDrawingTime` storage variable."
        }
      },
      "changeMinStakingTime(uint256)": {
        "details": "Changes the `minStakingTime` storage variable.",
        "params": {
          "_minStakingTime": "The new value for the `minStakingTime` storage variable."
        }
      },
      "changePinakion(address)": {
        "details": "Changes the `pinakion` storage variable.",
        "params": {
          "_pinakion": "The new value for the `pinakion` storage variable."
        }
      },
      "changeRNGenerator(address)": {
        "details": "Changes the `RNGenerator` storage variable.",
        "params": {
          "_RNGenerator": "The new value for the `RNGenerator` storage variable."
        }
      },
      "changeSubcourtAlpha(uint96,uint256)": {
        "details": "Changes the `alpha` property value of a specified subcourt.",
        "params": {
          "_alpha": "The new value for the `alpha` property value.",
          "_subcourtID": "The ID of the subcourt."
        }
      },
      "changeSubcourtJurorFee(uint96,uint256)": {
        "details": "Changes the `feeForJuror` property value of a specified subcourt.",
        "params": {
          "_feeForJuror": "The new value for the `feeForJuror` property value.",
          "_subcourtID": "The ID of the subcourt."
        }
      },
      "changeSubcourtJurorsForJump(uint96,uint256)": {
        "details": "Changes the `jurorsForCourtJump` property value of a specified subcourt.",
        "params": {
          "_jurorsForCourtJump": "The new value for the `jurorsForCourtJump` property value.",
          "_subcourtID": "The ID of the subcourt."
        }
      },
      "changeSubcourtMinStake(uint96,uint256)": {
        "details": "Changes the `minStake` property value of a specified subcourt. Don't set to a value lower than its parent's `minStake` property value.",
        "params": {
          "_minStake": "The new value for the `minStake` property value.",
          "_subcourtID": "The ID of the subcourt."
        }
      },
      "changeSubcourtTimesPerPeriod(uint96,uint256[4])": {
        "details": "Changes the `timesPerPeriod` property value of a specified subcourt.",
        "params": {
          "_subcourtID": "The ID of the subcourt.",
          "_timesPerPeriod": "The new value for the `timesPerPeriod` property value."
        }
      },
      "changeWethAddress(address)": {
        "details": "Changes the `weth` storage variable.",
        "params": {
          "_weth": "The new value for the `weth` storage variable."
        }
      },
      "createDispute(uint256,bytes)": {
        "details": "Creates a dispute. Must be called by the arbitrable contract.",
        "params": {
          "_extraData": "Additional info about the dispute to be created. We use it to pass the ID of the subcourt to create the dispute in (first 32 bytes) and the minimum number of jurors required (next 32 bytes).",
          "_numberOfChoices": "Number of choices to choose from in the dispute to be created."
        },
        "returns": {
          "disputeID": "The ID of the created dispute."
        }
      },
      "createSubcourt(uint96,bool,uint256,uint256,uint256,uint256,uint256[4],uint256)": {
        "details": "Creates a subcourt under a specified parent court.",
        "params": {
          "_alpha": "The `alpha` property value of the subcourt.",
          "_feeForJuror": "The `feeForJuror` property value of the subcourt.",
          "_hiddenVotes": "The `hiddenVotes` property value of the subcourt.",
          "_jurorsForCourtJump": "The `jurorsForCourtJump` property value of the subcourt.",
          "_minStake": "The `minStake` property value of the subcourt.",
          "_parent": "The `parent` property value of the subcourt.",
          "_sortitionSumTreeK": "The number of children per node of the subcourt's sortition sum tree.",
          "_timesPerPeriod": "The `timesPerPeriod` property value of the subcourt."
        }
      },
      "currentRuling(uint256)": {
        "details": "Gets the current ruling of a specified dispute.",
        "params": {
          "_disputeID": "The ID of the dispute."
        },
        "returns": {
          "ruling": "The current ruling."
        }
      },
      "executeDelayedSetStakes(uint256)": {
        "details": "Executes the next delayed set stakes.  `O(n)` where `n` is the number of iterations to run.",
        "params": {
          "_iterations": "The number of delayed set stakes to execute."
        }
      },
      "executeGovernorProposal(address,uint256,bytes)": {
        "details": "Lets the governor call anything on behalf of the contract.",
        "params": {
          "_amount": "The value sent with the call.",
          "_data": "The data sent with the call.",
          "_destination": "The destination of the call."
        }
      },
      "getDispute(uint256)": {
        "details": "Gets a specified dispute's non primitive properties.",
        "params": {
          "_disputeID": "The ID of the dispute."
        },
        "returns": {
          "penaltiesInEachRound": "The dispute's amount of tokens collected from penalties in each round.  `O(a)` where  `a` is the number of appeals of the dispute.",
          "repartitionsInEachRound": "The dispute's counter of vote reward repartitions made in each round.",
          "tokensAtStakePerJuror": "The dispute's required tokens at stake per Juror.",
          "totalFeesForJurors": "The dispute's total fees for Jurors.",
          "votesInEachRound": "The dispute's counter of votes made in each round.",
          "votesLengths": "The dispute's vote length."
        }
      },
      "getJuror(address)": {
        "details": "Gets a specified juror's non primitive properties.",
        "params": {
          "_account": "The address of the juror."
        },
        "returns": {
          "subcourtIDs": "The juror's IDs of subcourts where the juror has stake path."
        }
      },
      "getSubcourt(uint96)": {
        "details": "Gets a specified subcourt's non primitive properties.",
        "params": {
          "_subcourtID": "The ID of the subcourt."
        },
        "returns": {
          "children": "The subcourt's child court list.",
          "timesPerPeriod": "The subcourt's time per period."
        }
      },
      "getVote(uint256,uint256,uint256)": {
        "details": "Gets a specified vote for a specified appeal in a specified dispute.",
        "params": {
          "_appeal": "The appeal.",
          "_disputeID": "The ID of the dispute.",
          "_voteID": "The ID of the vote."
        },
        "returns": {
          "account": "The account for vote.",
          "choice": " The choice for vote.",
          "commit": " The commit for vote.",
          "voted": "True if the account voted, False otherwise."
        }
      },
      "getVoteCounter(uint256,uint256)": {
        "details": "Gets the vote counter for a specified appeal in a specified dispute.  Note: This function is only to be used by the interface and it won't work if the number of choices is too high.",
        "params": {
          "_appeal": "The appeal.",
          "_disputeID": "The ID of the dispute."
        },
        "returns": {
          "counts": "The count.",
          "tied": "Whether the vote tied.  `O(n)` where  `n` is the number of choices of the dispute.",
          "winningChoice": "The winning choice."
        }
      },
      "initialize(address,address,address,uint256,uint256,bool,uint256[4],uint256[4],uint256,address,address)": {
        "details": "Constructs the KlerosLiquid contract.",
        "params": {
          "_RNGenerator": "The address of the random number generator contract.",
          "_courtParameters": "MinStake, alpha, feeForJuror and jurorsForCourtJump respectively.",
          "_foreignGateway": "Foreign gateway on xDai.",
          "_governor": "The governor's address.",
          "_hiddenVotes": "The `hiddenVotes` property value of the general court.",
          "_maxDrawingTime": "The maximum time that the drawing phase should last.",
          "_minStakingTime": "The minimum time that the staking phase should last.",
          "_pinakion": "The address of the token contract.",
          "_sortitionSumTreeK": "The number of children per node of the general court's sortition sum tree.",
          "_timesPerPeriod": "The `timesPerPeriod` property value of the general court.",
          "_weth": "Weth contract."
        }
      },
      "onApprove(address,address,uint256)": {
        "details": "Notifies the controller about an approval allowing the controller to react if desired.",
        "params": {
          "_amount": "The amount in the `approve()` call.",
          "_owner": "The address that calls `approve()`.",
          "_spender": "The spender in the `approve()` call."
        },
        "returns": {
          "allowed": "Whether the operation should be allowed or not."
        }
      },
      "onTransfer(address,address,uint256)": {
        "details": "Notifies the controller about a token transfer allowing the controller to react if desired.",
        "params": {
          "_amount": "The amount of the transfer.",
          "_from": "The origin of the transfer.",
          "_to": "The destination of the transfer."
        },
        "returns": {
          "allowed": "Whether the operation should be allowed or not."
        }
      },
      "proxyPayment(address)": {
        "details": "DEPRECATED. Called when `_owner` sends ETH to the Wrapped Token contract.",
        "params": {
          "_owner": "The address that sent the ETH to create tokens."
        },
        "returns": {
          "allowed": "Whether the operation should be allowed or not."
        }
      },
      "rule(uint256,uint256)": {
        "details": "Receive the ruling from foreign gateway which technically is an arbitrator of this contract.",
        "params": {
          "_disputeID": "ID of the dispute.",
          "_ruling": "Ruling given by V2 court and relayed by foreign gateway."
        }
      },
      "setStake(uint96,uint128)": {
        "details": "Sets the caller's stake in a subcourt.",
        "params": {
          "_stake": "The new stake.",
          "_subcourtID": "The ID of the subcourt."
        }
      },
      "stakeOf(address,uint96)": {
        "details": "Gets the stake of a specified juror in a specified subcourt.",
        "params": {
          "_account": "The address of the juror.",
          "_subcourtID": "The ID of the subcourt."
        },
        "returns": {
          "stake": "The stake."
        }
      }
    },
    "title": "xKlerosLiquidV2",
    "version": 1
  },
  "userdoc": {
    "kind": "user",
    "methods": {},
    "version": 1
  },
  "storageLayout": {
    "storage": [
      {
        "astId": 143,
        "contract": "src/kleros-v1/kleros-liquid-xdai/xKlerosLiquidV2.sol:xKlerosLiquidV2",
        "label": "_initialized",
        "offset": 0,
        "slot": "0",
        "type": "t_uint8"
      },
      {
        "astId": 146,
        "contract": "src/kleros-v1/kleros-liquid-xdai/xKlerosLiquidV2.sol:xKlerosLiquidV2",
        "label": "_initializing",
        "offset": 1,
        "slot": "0",
        "type": "t_bool"
      },
      {
        "astId": 2130,
        "contract": "src/kleros-v1/kleros-liquid-xdai/xKlerosLiquidV2.sol:xKlerosLiquidV2",
        "label": "governor",
        "offset": 2,
        "slot": "0",
        "type": "t_address"
      },
      {
        "astId": 2133,
        "contract": "src/kleros-v1/kleros-liquid-xdai/xKlerosLiquidV2.sol:xKlerosLiquidV2",
        "label": "pinakion",
        "offset": 0,
        "slot": "1",
        "type": "t_contract(WrappedPinakion)1864"
      },
      {
        "astId": 2136,
        "contract": "src/kleros-v1/kleros-liquid-xdai/xKlerosLiquidV2.sol:xKlerosLiquidV2",
        "label": "RNGenerator",
        "offset": 0,
        "slot": "2",
        "type": "t_contract(IRandomAuRa)1919"
      },
      {
        "astId": 2139,
        "contract": "src/kleros-v1/kleros-liquid-xdai/xKlerosLiquidV2.sol:xKlerosLiquidV2",
        "label": "phase",
        "offset": 20,
        "slot": "2",
        "type": "t_enum(Phase)1960"
      },
      {
        "astId": 2141,
        "contract": "src/kleros-v1/kleros-liquid-xdai/xKlerosLiquidV2.sol:xKlerosLiquidV2",
        "label": "lastPhaseChange",
        "offset": 0,
        "slot": "3",
        "type": "t_uint256"
      },
      {
        "astId": 2143,
        "contract": "src/kleros-v1/kleros-liquid-xdai/xKlerosLiquidV2.sol:xKlerosLiquidV2",
        "label": "disputesWithoutJurors",
        "offset": 0,
        "slot": "4",
        "type": "t_uint256"
      },
      {
        "astId": 2145,
        "contract": "src/kleros-v1/kleros-liquid-xdai/xKlerosLiquidV2.sol:xKlerosLiquidV2",
        "label": "RNBlock",
        "offset": 0,
        "slot": "5",
        "type": "t_uint256"
      },
      {
        "astId": 2147,
        "contract": "src/kleros-v1/kleros-liquid-xdai/xKlerosLiquidV2.sol:xKlerosLiquidV2",
        "label": "RN",
        "offset": 0,
        "slot": "6",
        "type": "t_uint256"
      },
      {
        "astId": 2149,
        "contract": "src/kleros-v1/kleros-liquid-xdai/xKlerosLiquidV2.sol:xKlerosLiquidV2",
        "label": "minStakingTime",
        "offset": 0,
        "slot": "7",
        "type": "t_uint256"
      },
      {
        "astId": 2151,
        "contract": "src/kleros-v1/kleros-liquid-xdai/xKlerosLiquidV2.sol:xKlerosLiquidV2",
        "label": "maxDrawingTime",
        "offset": 0,
        "slot": "8",
        "type": "t_uint256"
      },
      {
        "astId": 2153,
        "contract": "src/kleros-v1/kleros-liquid-xdai/xKlerosLiquidV2.sol:xKlerosLiquidV2",
        "label": "lockInsolventTransfers",
        "offset": 0,
        "slot": "9",
        "type": "t_bool"
      },
      {
        "astId": 2157,
        "contract": "src/kleros-v1/kleros-liquid-xdai/xKlerosLiquidV2.sol:xKlerosLiquidV2",
        "label": "courts",
        "offset": 0,
        "slot": "10",
        "type": "t_array(t_struct(Court)1986_storage)dyn_storage"
      },
      {
        "astId": 2164,
        "contract": "src/kleros-v1/kleros-liquid-xdai/xKlerosLiquidV2.sol:xKlerosLiquidV2",
        "label": "sortitionSumTrees",
        "offset": 0,
        "slot": "11",
        "type": "t_struct(SortitionSumTrees)3785_storage"
      },
      {
        "astId": 2169,
        "contract": "src/kleros-v1/kleros-liquid-xdai/xKlerosLiquidV2.sol:xKlerosLiquidV2",
        "label": "delayedSetStakes",
        "offset": 0,
        "slot": "12",
        "type": "t_mapping(t_uint256,t_struct(DelayedSetStake)1993_storage)"
      },
      {
        "astId": 2171,
        "contract": "src/kleros-v1/kleros-liquid-xdai/xKlerosLiquidV2.sol:xKlerosLiquidV2",
        "label": "nextDelayedSetStake",
        "offset": 0,
        "slot": "13",
        "type": "t_uint256"
      },
      {
        "astId": 2173,
        "contract": "src/kleros-v1/kleros-liquid-xdai/xKlerosLiquidV2.sol:xKlerosLiquidV2",
        "label": "lastDelayedSetStake",
        "offset": 0,
        "slot": "14",
        "type": "t_uint256"
      },
      {
        "astId": 2178,
        "contract": "src/kleros-v1/kleros-liquid-xdai/xKlerosLiquidV2.sol:xKlerosLiquidV2",
        "label": "disputes",
        "offset": 0,
        "slot": "15",
        "type": "t_mapping(t_uint256,t_struct(Dispute)2054_storage)"
      },
      {
        "astId": 2180,
        "contract": "src/kleros-v1/kleros-liquid-xdai/xKlerosLiquidV2.sol:xKlerosLiquidV2",
        "label": "totalDisputes",
        "offset": 0,
        "slot": "16",
        "type": "t_uint256"
      },
      {
        "astId": 2185,
        "contract": "src/kleros-v1/kleros-liquid-xdai/xKlerosLiquidV2.sol:xKlerosLiquidV2",
        "label": "jurors",
        "offset": 0,
        "slot": "17",
        "type": "t_mapping(t_address,t_struct(Juror)2062_storage)"
      },
      {
        "astId": 2188,
        "contract": "src/kleros-v1/kleros-liquid-xdai/xKlerosLiquidV2.sol:xKlerosLiquidV2",
        "label": "foreignGateway",
        "offset": 0,
        "slot": "18",
        "type": "t_contract(IForeignGateway)1133"
      },
      {
        "astId": 2191,
        "contract": "src/kleros-v1/kleros-liquid-xdai/xKlerosLiquidV2.sol:xKlerosLiquidV2",
        "label": "weth",
        "offset": 0,
        "slot": "19",
        "type": "t_contract(IERC20)383"
      },
      {
        "astId": 2195,
        "contract": "src/kleros-v1/kleros-liquid-xdai/xKlerosLiquidV2.sol:xKlerosLiquidV2",
        "label": "disputesRuling",
        "offset": 0,
        "slot": "20",
        "type": "t_mapping(t_uint256,t_uint256)"
      }
    ],
    "types": {
      "t_address": {
        "encoding": "inplace",
        "label": "address",
        "numberOfBytes": "20"
      },
      "t_array(t_array(t_struct(Vote)2002_storage)dyn_storage)dyn_storage": {
        "base": "t_array(t_struct(Vote)2002_storage)dyn_storage",
        "encoding": "dynamic_array",
        "label": "struct xKlerosLiquidV2.Vote[][]",
        "numberOfBytes": "32"
      },
      "t_array(t_struct(Court)1986_storage)dyn_storage": {
        "base": "t_struct(Court)1986_storage",
        "encoding": "dynamic_array",
        "label": "struct xKlerosLiquidV2.Court[]",
        "numberOfBytes": "32"
      },
      "t_array(t_struct(Vote)2002_storage)dyn_storage": {
        "base": "t_struct(Vote)2002_storage",
        "encoding": "dynamic_array",
        "label": "struct xKlerosLiquidV2.Vote[]",
        "numberOfBytes": "32"
      },
      "t_array(t_struct(VoteCounter)2011_storage)dyn_storage": {
        "base": "t_struct(VoteCounter)2011_storage",
        "encoding": "dynamic_array",
        "label": "struct xKlerosLiquidV2.VoteCounter[]",
        "numberOfBytes": "32"
      },
      "t_array(t_uint256)4_storage": {
        "base": "t_uint256",
        "encoding": "inplace",
        "label": "uint256[4]",
        "numberOfBytes": "128"
      },
      "t_array(t_uint256)dyn_storage": {
        "base": "t_uint256",
        "encoding": "dynamic_array",
        "label": "uint256[]",
        "numberOfBytes": "32"
      },
      "t_array(t_uint96)dyn_storage": {
        "base": "t_uint96",
        "encoding": "dynamic_array",
        "label": "uint96[]",
        "numberOfBytes": "32"
      },
      "t_bool": {
        "encoding": "inplace",
        "label": "bool",
        "numberOfBytes": "1"
      },
      "t_bytes32": {
        "encoding": "inplace",
        "label": "bytes32",
        "numberOfBytes": "32"
      },
      "t_contract(IArbitrable)1048": {
        "encoding": "inplace",
        "label": "contract IArbitrable",
        "numberOfBytes": "20"
      },
      "t_contract(IERC20)383": {
        "encoding": "inplace",
        "label": "contract IERC20",
        "numberOfBytes": "20"
      },
      "t_contract(IForeignGateway)1133": {
        "encoding": "inplace",
        "label": "contract IForeignGateway",
        "numberOfBytes": "20"
      },
      "t_contract(IRandomAuRa)1919": {
        "encoding": "inplace",
        "label": "contract IRandomAuRa",
        "numberOfBytes": "20"
      },
      "t_contract(WrappedPinakion)1864": {
        "encoding": "inplace",
        "label": "contract WrappedPinakion",
        "numberOfBytes": "20"
      },
      "t_enum(Period)1966": {
        "encoding": "inplace",
        "label": "enum xKlerosLiquidV2.Period",
        "numberOfBytes": "1"
      },
      "t_enum(Phase)1960": {
        "encoding": "inplace",
        "label": "enum xKlerosLiquidV2.Phase",
        "numberOfBytes": "1"
      },
      "t_mapping(t_address,t_struct(Juror)2062_storage)": {
        "encoding": "mapping",
        "key": "t_address",
        "label": "mapping(address => struct xKlerosLiquidV2.Juror)",
        "numberOfBytes": "32",
        "value": "t_struct(Juror)2062_storage"
      },
      "t_mapping(t_bytes32,t_struct(SortitionSumTree)3779_storage)": {
        "encoding": "mapping",
        "key": "t_bytes32",
        "label": "mapping(bytes32 => struct SortitionSumTreeFactory.SortitionSumTree)",
        "numberOfBytes": "32",
        "value": "t_struct(SortitionSumTree)3779_storage"
      },
      "t_mapping(t_bytes32,t_uint256)": {
        "encoding": "mapping",
        "key": "t_bytes32",
        "label": "mapping(bytes32 => uint256)",
        "numberOfBytes": "32",
        "value": "t_uint256"
      },
      "t_mapping(t_uint256,t_bytes32)": {
        "encoding": "mapping",
        "key": "t_uint256",
        "label": "mapping(uint256 => bytes32)",
        "numberOfBytes": "32",
        "value": "t_bytes32"
      },
      "t_mapping(t_uint256,t_struct(DelayedSetStake)1993_storage)": {
        "encoding": "mapping",
        "key": "t_uint256",
        "label": "mapping(uint256 => struct xKlerosLiquidV2.DelayedSetStake)",
        "numberOfBytes": "32",
        "value": "t_struct(DelayedSetStake)1993_storage"
      },
      "t_mapping(t_uint256,t_struct(Dispute)2054_storage)": {
        "encoding": "mapping",
        "key": "t_uint256",
        "label": "mapping(uint256 => struct xKlerosLiquidV2.Dispute)",
        "numberOfBytes": "32",
        "value": "t_struct(Dispute)2054_storage"
      },
      "t_mapping(t_uint256,t_uint256)": {
        "encoding": "mapping",
        "key": "t_uint256",
        "label": "mapping(uint256 => uint256)",
        "numberOfBytes": "32",
        "value": "t_uint256"
      },
      "t_struct(Court)1986_storage": {
        "encoding": "inplace",
        "label": "struct xKlerosLiquidV2.Court",
        "members": [
          {
            "astId": 1968,
            "contract": "src/kleros-v1/kleros-liquid-xdai/xKlerosLiquidV2.sol:xKlerosLiquidV2",
            "label": "parent",
            "offset": 0,
            "slot": "0",
            "type": "t_uint96"
          },
          {
            "astId": 1971,
            "contract": "src/kleros-v1/kleros-liquid-xdai/xKlerosLiquidV2.sol:xKlerosLiquidV2",
            "label": "children",
            "offset": 0,
            "slot": "1",
            "type": "t_array(t_uint256)dyn_storage"
          },
          {
            "astId": 1973,
            "contract": "src/kleros-v1/kleros-liquid-xdai/xKlerosLiquidV2.sol:xKlerosLiquidV2",
            "label": "hiddenVotes",
            "offset": 0,
            "slot": "2",
            "type": "t_bool"
          },
          {
            "astId": 1975,
            "contract": "src/kleros-v1/kleros-liquid-xdai/xKlerosLiquidV2.sol:xKlerosLiquidV2",
            "label": "minStake",
            "offset": 0,
            "slot": "3",
            "type": "t_uint256"
          },
          {
            "astId": 1977,
            "contract": "src/kleros-v1/kleros-liquid-xdai/xKlerosLiquidV2.sol:xKlerosLiquidV2",
            "label": "alpha",
            "offset": 0,
            "slot": "4",
            "type": "t_uint256"
          },
          {
            "astId": 1979,
            "contract": "src/kleros-v1/kleros-liquid-xdai/xKlerosLiquidV2.sol:xKlerosLiquidV2",
            "label": "feeForJuror",
            "offset": 0,
            "slot": "5",
            "type": "t_uint256"
          },
          {
            "astId": 1981,
            "contract": "src/kleros-v1/kleros-liquid-xdai/xKlerosLiquidV2.sol:xKlerosLiquidV2",
            "label": "jurorsForCourtJump",
            "offset": 0,
            "slot": "6",
            "type": "t_uint256"
          },
          {
            "astId": 1985,
            "contract": "src/kleros-v1/kleros-liquid-xdai/xKlerosLiquidV2.sol:xKlerosLiquidV2",
            "label": "timesPerPeriod",
            "offset": 0,
            "slot": "7",
            "type": "t_array(t_uint256)4_storage"
          }
        ],
        "numberOfBytes": "352"
      },
      "t_struct(DelayedSetStake)1993_storage": {
        "encoding": "inplace",
        "label": "struct xKlerosLiquidV2.DelayedSetStake",
        "members": [
          {
            "astId": 1988,
            "contract": "src/kleros-v1/kleros-liquid-xdai/xKlerosLiquidV2.sol:xKlerosLiquidV2",
            "label": "account",
            "offset": 0,
            "slot": "0",
            "type": "t_address"
          },
          {
            "astId": 1990,
            "contract": "src/kleros-v1/kleros-liquid-xdai/xKlerosLiquidV2.sol:xKlerosLiquidV2",
            "label": "subcourtID",
            "offset": 20,
            "slot": "0",
            "type": "t_uint96"
          },
          {
            "astId": 1992,
            "contract": "src/kleros-v1/kleros-liquid-xdai/xKlerosLiquidV2.sol:xKlerosLiquidV2",
            "label": "stake",
            "offset": 0,
            "slot": "1",
            "type": "t_uint128"
          }
        ],
        "numberOfBytes": "64"
      },
      "t_struct(Dispute)2054_storage": {
        "encoding": "inplace",
        "label": "struct xKlerosLiquidV2.Dispute",
        "members": [
          {
            "astId": 2013,
            "contract": "src/kleros-v1/kleros-liquid-xdai/xKlerosLiquidV2.sol:xKlerosLiquidV2",
            "label": "subcourtID",
            "offset": 0,
            "slot": "0",
            "type": "t_uint96"
          },
          {
            "astId": 2016,
            "contract": "src/kleros-v1/kleros-liquid-xdai/xKlerosLiquidV2.sol:xKlerosLiquidV2",
            "label": "arbitrated",
            "offset": 12,
            "slot": "0",
            "type": "t_contract(IArbitrable)1048"
          },
          {
            "astId": 2018,
            "contract": "src/kleros-v1/kleros-liquid-xdai/xKlerosLiquidV2.sol:xKlerosLiquidV2",
            "label": "numberOfChoices",
            "offset": 0,
            "slot": "1",
            "type": "t_uint256"
          },
          {
            "astId": 2021,
            "contract": "src/kleros-v1/kleros-liquid-xdai/xKlerosLiquidV2.sol:xKlerosLiquidV2",
            "label": "period",
            "offset": 0,
            "slot": "2",
            "type": "t_enum(Period)1966"
          },
          {
            "astId": 2023,
            "contract": "src/kleros-v1/kleros-liquid-xdai/xKlerosLiquidV2.sol:xKlerosLiquidV2",
            "label": "lastPeriodChange",
            "offset": 0,
            "slot": "3",
            "type": "t_uint256"
          },
          {
            "astId": 2028,
            "contract": "src/kleros-v1/kleros-liquid-xdai/xKlerosLiquidV2.sol:xKlerosLiquidV2",
            "label": "votes",
            "offset": 0,
            "slot": "4",
            "type": "t_array(t_array(t_struct(Vote)2002_storage)dyn_storage)dyn_storage"
          },
          {
            "astId": 2032,
            "contract": "src/kleros-v1/kleros-liquid-xdai/xKlerosLiquidV2.sol:xKlerosLiquidV2",
            "label": "voteCounters",
            "offset": 0,
            "slot": "5",
            "type": "t_array(t_struct(VoteCounter)2011_storage)dyn_storage"
          },
          {
            "astId": 2035,
            "contract": "src/kleros-v1/kleros-liquid-xdai/xKlerosLiquidV2.sol:xKlerosLiquidV2",
            "label": "tokensAtStakePerJuror",
            "offset": 0,
            "slot": "6",
            "type": "t_array(t_uint256)dyn_storage"
          },
          {
            "astId": 2038,
            "contract": "src/kleros-v1/kleros-liquid-xdai/xKlerosLiquidV2.sol:xKlerosLiquidV2",
            "label": "totalFeesForJurors",
            "offset": 0,
            "slot": "7",
            "type": "t_array(t_uint256)dyn_storage"
          },
          {
            "astId": 2040,
            "contract": "src/kleros-v1/kleros-liquid-xdai/xKlerosLiquidV2.sol:xKlerosLiquidV2",
            "label": "drawsInRound",
            "offset": 0,
            "slot": "8",
            "type": "t_uint256"
          },
          {
            "astId": 2042,
            "contract": "src/kleros-v1/kleros-liquid-xdai/xKlerosLiquidV2.sol:xKlerosLiquidV2",
            "label": "commitsInRound",
            "offset": 0,
            "slot": "9",
            "type": "t_uint256"
          },
          {
            "astId": 2045,
            "contract": "src/kleros-v1/kleros-liquid-xdai/xKlerosLiquidV2.sol:xKlerosLiquidV2",
            "label": "votesInEachRound",
            "offset": 0,
            "slot": "10",
            "type": "t_array(t_uint256)dyn_storage"
          },
          {
            "astId": 2048,
            "contract": "src/kleros-v1/kleros-liquid-xdai/xKlerosLiquidV2.sol:xKlerosLiquidV2",
            "label": "repartitionsInEachRound",
            "offset": 0,
            "slot": "11",
            "type": "t_array(t_uint256)dyn_storage"
          },
          {
            "astId": 2051,
            "contract": "src/kleros-v1/kleros-liquid-xdai/xKlerosLiquidV2.sol:xKlerosLiquidV2",
            "label": "penaltiesInEachRound",
            "offset": 0,
            "slot": "12",
            "type": "t_array(t_uint256)dyn_storage"
          },
          {
            "astId": 2053,
            "contract": "src/kleros-v1/kleros-liquid-xdai/xKlerosLiquidV2.sol:xKlerosLiquidV2",
            "label": "ruled",
            "offset": 0,
            "slot": "13",
            "type": "t_bool"
          }
        ],
        "numberOfBytes": "448"
      },
      "t_struct(Juror)2062_storage": {
        "encoding": "inplace",
        "label": "struct xKlerosLiquidV2.Juror",
        "members": [
          {
            "astId": 2057,
            "contract": "src/kleros-v1/kleros-liquid-xdai/xKlerosLiquidV2.sol:xKlerosLiquidV2",
            "label": "subcourtIDs",
            "offset": 0,
            "slot": "0",
            "type": "t_array(t_uint96)dyn_storage"
          },
          {
            "astId": 2059,
            "contract": "src/kleros-v1/kleros-liquid-xdai/xKlerosLiquidV2.sol:xKlerosLiquidV2",
            "label": "stakedTokens",
            "offset": 0,
            "slot": "1",
            "type": "t_uint256"
          },
          {
            "astId": 2061,
            "contract": "src/kleros-v1/kleros-liquid-xdai/xKlerosLiquidV2.sol:xKlerosLiquidV2",
            "label": "lockedTokens",
            "offset": 0,
            "slot": "2",
            "type": "t_uint256"
          }
        ],
        "numberOfBytes": "96"
      },
      "t_struct(SortitionSumTree)3779_storage": {
        "encoding": "inplace",
        "label": "struct SortitionSumTreeFactory.SortitionSumTree",
        "members": [
          {
            "astId": 3764,
            "contract": "src/kleros-v1/kleros-liquid-xdai/xKlerosLiquidV2.sol:xKlerosLiquidV2",
            "label": "K",
            "offset": 0,
            "slot": "0",
            "type": "t_uint256"
          },
          {
            "astId": 3767,
            "contract": "src/kleros-v1/kleros-liquid-xdai/xKlerosLiquidV2.sol:xKlerosLiquidV2",
            "label": "stack",
            "offset": 0,
            "slot": "1",
            "type": "t_array(t_uint256)dyn_storage"
          },
          {
            "astId": 3770,
            "contract": "src/kleros-v1/kleros-liquid-xdai/xKlerosLiquidV2.sol:xKlerosLiquidV2",
            "label": "nodes",
            "offset": 0,
            "slot": "2",
            "type": "t_array(t_uint256)dyn_storage"
          },
          {
            "astId": 3774,
            "contract": "src/kleros-v1/kleros-liquid-xdai/xKlerosLiquidV2.sol:xKlerosLiquidV2",
            "label": "IDsToNodeIndexes",
            "offset": 0,
            "slot": "3",
            "type": "t_mapping(t_bytes32,t_uint256)"
          },
          {
            "astId": 3778,
            "contract": "src/kleros-v1/kleros-liquid-xdai/xKlerosLiquidV2.sol:xKlerosLiquidV2",
            "label": "nodeIndexesToIDs",
            "offset": 0,
            "slot": "4",
            "type": "t_mapping(t_uint256,t_bytes32)"
          }
        ],
        "numberOfBytes": "160"
      },
      "t_struct(SortitionSumTrees)3785_storage": {
        "encoding": "inplace",
        "label": "struct SortitionSumTreeFactory.SortitionSumTrees",
        "members": [
          {
            "astId": 3784,
            "contract": "src/kleros-v1/kleros-liquid-xdai/xKlerosLiquidV2.sol:xKlerosLiquidV2",
            "label": "sortitionSumTrees",
            "offset": 0,
            "slot": "0",
            "type": "t_mapping(t_bytes32,t_struct(SortitionSumTree)3779_storage)"
          }
        ],
        "numberOfBytes": "32"
      },
      "t_struct(Vote)2002_storage": {
        "encoding": "inplace",
        "label": "struct xKlerosLiquidV2.Vote",
        "members": [
          {
            "astId": 1995,
            "contract": "src/kleros-v1/kleros-liquid-xdai/xKlerosLiquidV2.sol:xKlerosLiquidV2",
            "label": "account",
            "offset": 0,
            "slot": "0",
            "type": "t_address"
          },
          {
            "astId": 1997,
            "contract": "src/kleros-v1/kleros-liquid-xdai/xKlerosLiquidV2.sol:xKlerosLiquidV2",
            "label": "commit",
            "offset": 0,
            "slot": "1",
            "type": "t_bytes32"
          },
          {
            "astId": 1999,
            "contract": "src/kleros-v1/kleros-liquid-xdai/xKlerosLiquidV2.sol:xKlerosLiquidV2",
            "label": "choice",
            "offset": 0,
            "slot": "2",
            "type": "t_uint256"
          },
          {
            "astId": 2001,
            "contract": "src/kleros-v1/kleros-liquid-xdai/xKlerosLiquidV2.sol:xKlerosLiquidV2",
            "label": "voted",
            "offset": 0,
            "slot": "3",
            "type": "t_bool"
          }
        ],
        "numberOfBytes": "128"
      },
      "t_struct(VoteCounter)2011_storage": {
        "encoding": "inplace",
        "label": "struct xKlerosLiquidV2.VoteCounter",
        "members": [
          {
            "astId": 2004,
            "contract": "src/kleros-v1/kleros-liquid-xdai/xKlerosLiquidV2.sol:xKlerosLiquidV2",
            "label": "winningChoice",
            "offset": 0,
            "slot": "0",
            "type": "t_uint256"
          },
          {
            "astId": 2008,
            "contract": "src/kleros-v1/kleros-liquid-xdai/xKlerosLiquidV2.sol:xKlerosLiquidV2",
            "label": "counts",
            "offset": 0,
            "slot": "1",
            "type": "t_mapping(t_uint256,t_uint256)"
          },
          {
            "astId": 2010,
            "contract": "src/kleros-v1/kleros-liquid-xdai/xKlerosLiquidV2.sol:xKlerosLiquidV2",
            "label": "tied",
            "offset": 0,
            "slot": "2",
            "type": "t_bool"
          }
        ],
        "numberOfBytes": "96"
      },
      "t_uint128": {
        "encoding": "inplace",
        "label": "uint128",
        "numberOfBytes": "16"
      },
      "t_uint256": {
        "encoding": "inplace",
        "label": "uint256",
        "numberOfBytes": "32"
      },
      "t_uint8": {
        "encoding": "inplace",
        "label": "uint8",
        "numberOfBytes": "1"
      },
      "t_uint96": {
        "encoding": "inplace",
        "label": "uint96",
        "numberOfBytes": "12"
      }
    }
  }
}