{
  "address": "0xc0fcc96BFd78e36550FCaB434A9EE1210B57225b",
  "abi": [
    {
      "inputs": [
        {
          "internalType": "contract IArbitrator",
          "name": "_arbitrator",
          "type": "address"
        },
        {
          "internalType": "string",
          "name": "_metaEvidence",
          "type": "string"
        }
      ],
      "stateMutability": "nonpayable",
      "type": "constructor"
    },
    {
      "anonymous": false,
      "inputs": [
        {
          "indexed": true,
          "internalType": "contract IArbitrator",
          "name": "_arbitrator",
          "type": "address"
        },
        {
          "indexed": true,
          "internalType": "uint256",
          "name": "_disputeID",
          "type": "uint256"
        },
        {
          "indexed": false,
          "internalType": "uint256",
          "name": "_metaEvidenceID",
          "type": "uint256"
        },
        {
          "indexed": false,
          "internalType": "uint256",
          "name": "_evidenceGroupID",
          "type": "uint256"
        }
      ],
      "name": "Dispute",
      "type": "event"
    },
    {
      "anonymous": false,
      "inputs": [
        {
          "indexed": true,
          "internalType": "contract IArbitrator",
          "name": "_arbitrator",
          "type": "address"
        },
        {
          "indexed": true,
          "internalType": "uint256",
          "name": "_evidenceGroupID",
          "type": "uint256"
        },
        {
          "indexed": true,
          "internalType": "address",
          "name": "_party",
          "type": "address"
        },
        {
          "indexed": false,
          "internalType": "string",
          "name": "_evidence",
          "type": "string"
        }
      ],
      "name": "Evidence",
      "type": "event"
    },
    {
      "anonymous": false,
      "inputs": [
        {
          "indexed": true,
          "internalType": "uint256",
          "name": "_metaEvidenceID",
          "type": "uint256"
        },
        {
          "indexed": false,
          "internalType": "string",
          "name": "_evidence",
          "type": "string"
        }
      ],
      "name": "MetaEvidence",
      "type": "event"
    },
    {
      "anonymous": false,
      "inputs": [
        {
          "indexed": true,
          "internalType": "contract IArbitrator",
          "name": "_arbitrator",
          "type": "address"
        },
        {
          "indexed": true,
          "internalType": "uint256",
          "name": "_disputeID",
          "type": "uint256"
        },
        {
          "indexed": false,
          "internalType": "uint256",
          "name": "_ruling",
          "type": "uint256"
        }
      ],
      "name": "Ruling",
      "type": "event"
    },
    {
      "inputs": [],
      "name": "arbitrator",
      "outputs": [
        {
          "internalType": "contract IArbitrator",
          "name": "",
          "type": "address"
        }
      ],
      "stateMutability": "view",
      "type": "function"
    },
    {
      "inputs": [
        {
          "internalType": "uint256",
          "name": "_numberOfRulingOptions",
          "type": "uint256"
        },
        {
          "internalType": "bytes",
          "name": "_arbitratorExtraData",
          "type": "bytes"
        },
        {
          "internalType": "uint256",
          "name": "_evidenceGroupID",
          "type": "uint256"
        }
      ],
      "name": "createDispute",
      "outputs": [
        {
          "internalType": "uint256",
          "name": "disputeID",
          "type": "uint256"
        }
      ],
      "stateMutability": "payable",
      "type": "function"
    },
    {
      "inputs": [
        {
          "internalType": "uint256",
          "name": "",
          "type": "uint256"
        }
      ],
      "name": "disputes",
      "outputs": [
        {
          "internalType": "bool",
          "name": "isRuled",
          "type": "bool"
        },
        {
          "internalType": "uint256",
          "name": "ruling",
          "type": "uint256"
        },
        {
          "internalType": "uint256",
          "name": "numberOfRulingOptions",
          "type": "uint256"
        }
      ],
      "stateMutability": "view",
      "type": "function"
    },
    {
      "inputs": [
        {
          "internalType": "uint256",
          "name": "",
          "type": "uint256"
        }
      ],
      "name": "externalIDtoLocalID",
      "outputs": [
        {
          "internalType": "uint256",
          "name": "",
          "type": "uint256"
        }
      ],
      "stateMutability": "view",
      "type": "function"
    },
    {
      "inputs": [
        {
          "internalType": "uint256",
          "name": "_externalDisputeID",
          "type": "uint256"
        },
        {
          "internalType": "uint256",
          "name": "_ruling",
          "type": "uint256"
        }
      ],
      "name": "rule",
      "outputs": [],
      "stateMutability": "nonpayable",
      "type": "function"
    }
  ],
  "transactionHash": "0x98a4d714037f858a2cda8a431d7964605de79832c8f7dc459df09464876cbaaa",
  "args": [
    "0x8681CE0CA5706Cf4732d9060e8eC9f865F7d546a",
    "https://raw.githubusercontent.com/kleros/kleros-v2/master/contracts/deployments/rinkeby/MetaEvidence_ArbitrableExample.json"
  ],
  "numDeployments": 4,
  "solcInputHash": "344957ae5857246fac5b346f78fc8116",
  "bytecode": "0x60a060405234801561001057600080fd5b506040516108b63803806108b683398101604081905261002f916100c4565b6001600160a01b0382166080526040516000907f61606860eb6c87306811e2695215385101daab53bd6ab4e9f9049aead9363c7d9061006f908490610192565b60405180910390a250506101c5565b634e487b7160e01b600052604160045260246000fd5b60005b838110156100af578181015183820152602001610097565b838111156100be576000848401525b50505050565b600080604083850312156100d757600080fd5b82516001600160a01b03811681146100ee57600080fd5b60208401519092506001600160401b038082111561010b57600080fd5b818501915085601f83011261011f57600080fd5b8151818111156101315761013161007e565b604051601f8201601f19908116603f011681019083821181831017156101595761015961007e565b8160405282815288602084870101111561017257600080fd5b610183836020830160208801610094565b80955050505050509250929050565b60208152600082518060208401526101b1816040850160208701610094565b601f01601f19169190910160400192915050565b6080516106c26101f46000396000818160e60152818161018501528181610454015261050d01526106c26000f3fe60806040526004361061004a5760003560e01c8063311a6c561461004f578063564a565d146100715780636137048c146100b35780636cc6cde1146100d4578063c21ae06114610120575b600080fd5b34801561005b57600080fd5b5061006f61006a36600461056a565b61014d565b005b34801561007d57600080fd5b5061009161008c36600461058c565b61030a565b6040805193151584526020840192909252908201526060015b60405180910390f35b6100c66100c13660046105a5565b610341565b6040519081526020016100aa565b3480156100e057600080fd5b506101087f000000000000000000000000000000000000000000000000000000000000000081565b6040516001600160a01b0390911681526020016100aa565b34801561012c57600080fd5b506100c661013b36600461058c565b60006020819052908152604090205481565b600082815260208190526040812054600180549192918390811061017357610173610627565b906000526020600020906003020190507f00000000000000000000000000000000000000000000000000000000000000006001600160a01b0316336001600160a01b0316146102175760405162461bcd60e51b815260206004820152602560248201527f4f6e6c79207468652061726269747261746f722063616e2065786563757465206044820152643a3434b99760d91b60648201526084015b60405180910390fd5b806002015483111561025d5760405162461bcd60e51b815260206004820152600f60248201526e24b73b30b634b210393ab634b7339760891b604482015260640161020e565b805460ff16156102bb5760405162461bcd60e51b8152602060048201526024808201527f54686973206469737075746520686173206265656e2072756c656420616c726560448201526330b23c9760e11b606482015260840161020e565b805460ff1916600190811782558101839055604051838152849033907f394027a5fa6e098a1191094d1719d6929b9abc535fcc0c8f448d6a4e756222769060200160405180910390a350505050565b6001818154811061031a57600080fd5b600091825260209091206003909102018054600182015460029092015460ff909116925083565b6000600185116103935760405162461bcd60e51b815260206004820152601b60248201527f496e636f7272656374206e756d626572206f662063686f696365730000000000604482015260640161020e565b60018054604080516060810182526000808252602082018181528284018b815285870187559590915290517fb10e2d527612073b26eecdfd717e6a320cf44b4afac2b0732d9fcbe2b7fa0cf660038502908101805460ff19169215159290921790915590517fb10e2d527612073b26eecdfd717e6a320cf44b4afac2b0732d9fcbe2b7fa0cf782015592517fb10e2d527612073b26eecdfd717e6a320cf44b4afac2b0732d9fcbe2b7fa0cf890930192909255905163c13517e160e01b81527f00000000000000000000000000000000000000000000000000000000000000006001600160a01b03169063c13517e1903490610497908a908a908a9060040161063d565b6020604051808303818588803b1580156104b057600080fd5b505af11580156104c4573d6000803e3d6000fd5b50505050506040513d601f19601f820116820180604052508101906104e99190610673565b600081815260208181526040808320859055805192835290820186905291935083917f00000000000000000000000000000000000000000000000000000000000000006001600160a01b0316917f74baab670a4015ab2f1b467c5252a96141a2573f2908e58a92081e80d3cfde3d910160405180910390a350949350505050565b6000806040838503121561057d57600080fd5b50508035926020909101359150565b60006020828403121561059e57600080fd5b5035919050565b600080600080606085870312156105bb57600080fd5b84359350602085013567ffffffffffffffff808211156105da57600080fd5b818701915087601f8301126105ee57600080fd5b8135818111156105fd57600080fd5b88602082850101111561060f57600080fd5b95986020929092019750949560400135945092505050565b634e487b7160e01b600052603260045260246000fd5b83815260406020820152816040820152818360608301376000818301606090810191909152601f909201601f1916010192915050565b60006020828403121561068557600080fd5b505191905056fea2646970667358221220009cf64d82ef5b990193ecc07de054a16c92c1096aa712e760d7826d67cfd99364736f6c63430008090033",
  "devdoc": {
    "kind": "dev",
    "methods": {
      "constructor": {
        "details": "Constructor",
        "params": {
          "_arbitrator": "The arbitrator to rule on created disputes.",
          "_metaEvidence": "The URI of the meta evidence object for evidence submissions requests."
        }
      },
      "createDispute(uint256,bytes,uint256)": {
        "details": "TRUSTED. Calls createDispute function of the specified arbitrator to create a dispute. Note that we don’t need to check that msg.value is enough to pay arbitration fees as it’s the responsibility of the arbitrator contract.",
        "params": {
          "_arbitratorExtraData": "Extra data for the arbitrator.",
          "_evidenceGroupID": "Unique identifier of the evidence group that is linked to this dispute.",
          "_numberOfRulingOptions": "Number of ruling options. Must be greater than 1, otherwise there is nothing to choose from."
        },
        "returns": {
          "disputeID": "Dispute id (on arbitrator side) of the dispute created."
        }
      },
      "rule(uint256,uint256)": {
        "details": "To be called by the arbitrator of the dispute, to declare the winning ruling.",
        "params": {
          "_externalDisputeID": "ID of the dispute in arbitrator contract.",
          "_ruling": "The ruling choice of the arbitration."
        }
      }
    },
    "title": "ArbitrableExample  An example of an arbitrable contract which connects to the arbitator that implements the updated interface.",
    "version": 1
  },
  "userdoc": {
    "kind": "user",
    "methods": {},
    "version": 1
  },
  "storageLayout": {
    "storage": [
      {
        "astId": 5859,
        "contract": "src/arbitration/arbitrables/ArbitrableExample.sol:ArbitrableExample",
        "label": "externalIDtoLocalID",
        "offset": 0,
        "slot": "0",
        "type": "t_mapping(t_uint256,t_uint256)"
      },
      {
        "astId": 5863,
        "contract": "src/arbitration/arbitrables/ArbitrableExample.sol:ArbitrableExample",
        "label": "disputes",
        "offset": 0,
        "slot": "1",
        "type": "t_array(t_struct(DisputeStruct)5849_storage)dyn_storage"
      }
    ],
    "types": {
      "t_array(t_struct(DisputeStruct)5849_storage)dyn_storage": {
        "base": "t_struct(DisputeStruct)5849_storage",
        "encoding": "dynamic_array",
        "label": "struct ArbitrableExample.DisputeStruct[]",
        "numberOfBytes": "32"
      },
      "t_bool": {
        "encoding": "inplace",
        "label": "bool",
        "numberOfBytes": "1"
      },
      "t_mapping(t_uint256,t_uint256)": {
        "encoding": "mapping",
        "key": "t_uint256",
        "label": "mapping(uint256 => uint256)",
        "numberOfBytes": "32",
        "value": "t_uint256"
      },
      "t_struct(DisputeStruct)5849_storage": {
        "encoding": "inplace",
        "label": "struct ArbitrableExample.DisputeStruct",
        "members": [
          {
            "astId": 5844,
            "contract": "src/arbitration/arbitrables/ArbitrableExample.sol:ArbitrableExample",
            "label": "isRuled",
            "offset": 0,
            "slot": "0",
            "type": "t_bool"
          },
          {
            "astId": 5846,
            "contract": "src/arbitration/arbitrables/ArbitrableExample.sol:ArbitrableExample",
            "label": "ruling",
            "offset": 0,
            "slot": "1",
            "type": "t_uint256"
          },
          {
            "astId": 5848,
            "contract": "src/arbitration/arbitrables/ArbitrableExample.sol:ArbitrableExample",
            "label": "numberOfRulingOptions",
            "offset": 0,
            "slot": "2",
            "type": "t_uint256"
          }
        ],
        "numberOfBytes": "96"
      },
      "t_uint256": {
        "encoding": "inplace",
        "label": "uint256",
        "numberOfBytes": "32"
      }
    }
  }
}