{
  "address": "0x8681CE0CA5706Cf4732d9060e8eC9f865F7d546a",
  "abi": [
    {
      "inputs": [
        {
          "internalType": "address",
          "name": "_governor",
          "type": "address"
        },
        {
          "internalType": "contract IFastBridgeReceiver",
          "name": "_fastBridgeReceiver",
          "type": "address"
        },
        {
          "internalType": "uint256[]",
          "name": "_feeForJuror",
          "type": "uint256[]"
        },
        {
          "internalType": "address",
          "name": "_senderGateway",
          "type": "address"
        },
        {
          "internalType": "uint256",
          "name": "_senderChainID",
          "type": "uint256"
        }
      ],
      "stateMutability": "nonpayable",
      "type": "constructor"
    },
    {
      "anonymous": false,
      "inputs": [
        {
          "indexed": true,
          "internalType": "uint256",
          "name": "_disputeID",
          "type": "uint256"
        },
        {
          "indexed": true,
          "internalType": "contract IArbitrable",
          "name": "_arbitrable",
          "type": "address"
        }
      ],
      "name": "DisputeCreation",
      "type": "event"
    },
    {
      "anonymous": false,
      "inputs": [
        {
          "indexed": false,
          "internalType": "bytes32",
          "name": "disputeHash",
          "type": "bytes32"
        },
        {
          "indexed": false,
          "internalType": "bytes32",
          "name": "blockhash",
          "type": "bytes32"
        },
        {
          "indexed": false,
          "internalType": "uint256",
          "name": "localDisputeID",
          "type": "uint256"
        },
        {
          "indexed": false,
          "internalType": "uint256",
          "name": "_choices",
          "type": "uint256"
        },
        {
          "indexed": false,
          "internalType": "bytes",
          "name": "_extraData",
          "type": "bytes"
        },
        {
          "indexed": false,
          "internalType": "address",
          "name": "arbitrable",
          "type": "address"
        }
      ],
      "name": "OutgoingDispute",
      "type": "event"
    },
    {
      "inputs": [],
      "name": "MIN_JURORS",
      "outputs": [
        {
          "internalType": "uint256",
          "name": "",
          "type": "uint256"
        }
      ],
      "stateMutability": "view",
      "type": "function"
    },
    {
      "inputs": [
        {
          "internalType": "bytes",
          "name": "_extraData",
          "type": "bytes"
        }
      ],
      "name": "arbitrationCost",
      "outputs": [
        {
          "internalType": "uint256",
          "name": "cost",
          "type": "uint256"
        }
      ],
      "stateMutability": "view",
      "type": "function"
    },
    {
      "inputs": [
        {
          "internalType": "contract IFastBridgeReceiver",
          "name": "_fastBridgeReceiver",
          "type": "address"
        },
        {
          "internalType": "uint256",
          "name": "_gracePeriod",
          "type": "uint256"
        }
      ],
      "name": "changeFastbridge",
      "outputs": [],
      "stateMutability": "nonpayable",
      "type": "function"
    },
    {
      "inputs": [
        {
          "internalType": "uint96",
          "name": "_subcourtID",
          "type": "uint96"
        },
        {
          "internalType": "uint256",
          "name": "_feeForJuror",
          "type": "uint256"
        }
      ],
      "name": "changeSubcourtJurorFee",
      "outputs": [],
      "stateMutability": "nonpayable",
      "type": "function"
    },
    {
      "inputs": [
        {
          "internalType": "uint256",
          "name": "_choices",
          "type": "uint256"
        },
        {
          "internalType": "bytes",
          "name": "_extraData",
          "type": "bytes"
        }
      ],
      "name": "createDispute",
      "outputs": [
        {
          "internalType": "uint256",
          "name": "disputeID",
          "type": "uint256"
        }
      ],
      "stateMutability": "payable",
      "type": "function"
    },
    {
      "inputs": [
        {
          "internalType": "uint256",
          "name": "_feeForJuror",
          "type": "uint256"
        }
      ],
      "name": "createSubcourtJurorFee",
      "outputs": [],
      "stateMutability": "nonpayable",
      "type": "function"
    },
    {
      "inputs": [],
      "name": "depreciatedFastBridgeExpiration",
      "outputs": [
        {
          "internalType": "uint256",
          "name": "",
          "type": "uint256"
        }
      ],
      "stateMutability": "view",
      "type": "function"
    },
    {
      "inputs": [],
      "name": "depreciatedFastbridge",
      "outputs": [
        {
          "internalType": "contract IFastBridgeReceiver",
          "name": "",
          "type": "address"
        }
      ],
      "stateMutability": "view",
      "type": "function"
    },
    {
      "inputs": [
        {
          "internalType": "bytes32",
          "name": "_disputeHash",
          "type": "bytes32"
        }
      ],
      "name": "disputeHashToForeignID",
      "outputs": [
        {
          "internalType": "uint256",
          "name": "",
          "type": "uint256"
        }
      ],
      "stateMutability": "view",
      "type": "function"
    },
    {
      "inputs": [
        {
          "internalType": "bytes32",
          "name": "",
          "type": "bytes32"
        }
      ],
      "name": "disputeHashtoDisputeData",
      "outputs": [
        {
          "internalType": "uint248",
          "name": "id",
          "type": "uint248"
        },
        {
          "internalType": "bool",
          "name": "ruled",
          "type": "bool"
        },
        {
          "internalType": "address",
          "name": "arbitrable",
          "type": "address"
        },
        {
          "internalType": "uint256",
          "name": "paid",
          "type": "uint256"
        },
        {
          "internalType": "address",
          "name": "relayer",
          "type": "address"
        }
      ],
      "stateMutability": "view",
      "type": "function"
    },
    {
      "inputs": [],
      "name": "fastBridgeReceiver",
      "outputs": [
        {
          "internalType": "contract IFastBridgeReceiver",
          "name": "",
          "type": "address"
        }
      ],
      "stateMutability": "view",
      "type": "function"
    },
    {
      "inputs": [],
      "name": "governor",
      "outputs": [
        {
          "internalType": "address",
          "name": "",
          "type": "address"
        }
      ],
      "stateMutability": "view",
      "type": "function"
    },
    {
      "inputs": [
        {
          "internalType": "address",
          "name": "_messageSender",
          "type": "address"
        },
        {
          "internalType": "bytes32",
          "name": "_disputeHash",
          "type": "bytes32"
        },
        {
          "internalType": "uint256",
          "name": "_ruling",
          "type": "uint256"
        },
        {
          "internalType": "address",
          "name": "_relayer",
          "type": "address"
        }
      ],
      "name": "relayRule",
      "outputs": [],
      "stateMutability": "nonpayable",
      "type": "function"
    },
    {
      "inputs": [],
      "name": "senderChainID",
      "outputs": [
        {
          "internalType": "uint256",
          "name": "",
          "type": "uint256"
        }
      ],
      "stateMutability": "view",
      "type": "function"
    },
    {
      "inputs": [],
      "name": "senderGateway",
      "outputs": [
        {
          "internalType": "address",
          "name": "",
          "type": "address"
        }
      ],
      "stateMutability": "view",
      "type": "function"
    },
    {
      "inputs": [
        {
          "internalType": "bytes32",
          "name": "_disputeHash",
          "type": "bytes32"
        }
      ],
      "name": "withdrawFees",
      "outputs": [],
      "stateMutability": "nonpayable",
      "type": "function"
    }
  ],
  "transactionHash": "0x97904b817ecf2fdaa34b7307b081e385a93eaffda65d37e7bbca76f522e77ddc",
  "args": [
    "0xF50E77f2A2B6138D16c6c7511562E5C33c4B15A3",
    "0x545C731e84c0034d58e57E476A3b7C3929d070CC",
    [
      "100000000000000000"
    ],
    "0x4e894c2B60214beC53B60D09F39544518296C07B",
    "0x0000000000000000000000000000000000000000000000000000000000066eeb"
  ],
  "numDeployments": 1,
  "solcInputHash": "344957ae5857246fac5b346f78fc8116",
  "bytecode": "0x60c060405260016000553480156200001657600080fd5b506040516200115838038062001158833981016040819052620000399162000142565b600280546001600160a01b038088166001600160a01b031992831617909255600380549287169290911691909117905582516200007e9060019060208601906200009a565b506001600160a01b0390911660a0526080525062000256915050565b828054828255906000526020600020908101928215620000d8579160200282015b82811115620000d8578251825591602001919060010190620000bb565b50620000e6929150620000ea565b5090565b5b80821115620000e65760008155600101620000eb565b6001600160a01b03811681146200011757600080fd5b50565b8051620001278162000101565b919050565b634e487b7160e01b600052604160045260246000fd5b600080600080600060a086880312156200015b57600080fd5b8551620001688162000101565b809550506020808701516200017d8162000101565b60408801519095506001600160401b03808211156200019b57600080fd5b818901915089601f830112620001b057600080fd5b815181811115620001c557620001c56200012c565b8060051b604051601f19603f83011681018181108582111715620001ed57620001ed6200012c565b60405291825284820192508381018501918c8311156200020c57600080fd5b938501935b828510156200022c5784518452938501939285019262000211565b80985050505050505062000243606087016200011a565b9150608086015190509295509295909350565b60805160a051610ed5620002836000396000818161026a0152610592015260006101ad0152610ed56000f3fe6080604052600436106100f35760003560e01c8063c13517e11161008a578063eaff425a11610059578063eaff425a1461034e578063ebb7119414610363578063f7434ea914610383578063f7f56752146103a357600080fd5b8063c13517e114610245578063ce0aaf9514610258578063d3c617ff1461028c578063d96a36ca1461032e57600080fd5b806359354c77116100c657806359354c77146101cf5780639ff66f64146101ef578063a60a4db514610205578063ab6f672e1461022557600080fd5b80630c340a24146100f85780632d5db96d146101355780632e1db890146101575780634def54551461019b575b600080fd5b34801561010457600080fd5b50600254610118906001600160a01b031681565b6040516001600160a01b0390911681526020015b60405180910390f35b34801561014157600080fd5b50610155610150366004610b61565b6103c3565b005b34801561016357600080fd5b5061018d610172366004610b8d565b6000908152600660205260409020546001600160f81b031690565b60405190815260200161012c565b3480156101a757600080fd5b5061018d7f000000000000000000000000000000000000000000000000000000000000000081565b3480156101db57600080fd5b506101556101ea366004610ba6565b6104b0565b3480156101fb57600080fd5b5061018d60055481565b34801561021157600080fd5b50610155610220366004610bd0565b610507565b34801561023157600080fd5b50610155610240366004610b8d565b61075c565b61018d610253366004610c63565b6107ba565b34801561026457600080fd5b506101187f000000000000000000000000000000000000000000000000000000000000000081565b34801561029857600080fd5b506102f06102a7366004610b8d565b60066020526000908152604090208054600182015460028301546003909301546001600160f81b03831693600160f81b90930460ff16926001600160a01b039283169290911685565b604080516001600160f81b03909616865293151560208601526001600160a01b0392831693850193909352606084015216608082015260a00161012c565b34801561033a57600080fd5b50600354610118906001600160a01b031681565b34801561035a57600080fd5b5061018d600381565b34801561036f57600080fd5b5061015561037e366004610b8d565b610988565b34801561038f57600080fd5b5061018d61039e366004610caf565b610a7d565b3480156103af57600080fd5b50600454610118906001600160a01b031681565b6002546001600160a01b031633146103f65760405162461bcd60e51b81526004016103ed90610cf1565b60405180910390fd5b80826001600160a01b031663b5b7a1846040518163ffffffff1660e01b815260040160206040518083038186803b15801561043057600080fd5b505afa158015610444573d6000803e3d6000fd5b505050506040513d601f19601f820116820180604052508101906104689190610d33565b6104729042610d62565b61047c9190610d62565b6005555060038054600480546001600160a01b038084166001600160a01b0319928316179092559091169216919091179055565b6002546001600160a01b031633146104da5760405162461bcd60e51b81526004016103ed90610cf1565b806001836001600160601b0316815481106104f7576104f7610d7a565b6000918252602090912001555050565b6003546001600160a01b031633148061053657506005544210801561053657506004546001600160a01b031633145b6105905760405162461bcd60e51b815260206004820152602560248201527f416363657373206e6f7420616c6c6f7765643a2046617374204272696467652060448201526437b7363c9760d91b60648201526084016103ed565b7f00000000000000000000000000000000000000000000000000000000000000006001600160a01b0316846001600160a01b0316146106115760405162461bcd60e51b815260206004820181905260248201527f4f6e6c792074686520686f6d656761746577617920697320616c6c6f7765642e60448201526064016103ed565b600083815260066020526040902080546001600160f81b031661066f5760405162461bcd60e51b8152602060048201526016602482015275111a5cdc1d5d1948191bd95cc81b9bdd08195e1a5cdd60521b60448201526064016103ed565b8054600160f81b900460ff16156106bc5760405162461bcd60e51b815260206004820152601160248201527043616e6e6f742072756c6520747769636560781b60448201526064016103ed565b80546001600160f81b0316600160f81b811782556003820180546001600160a01b038581166001600160a01b031990921691909117909155600183015460405163188d362b60e11b81526004810193909352602483018690521690819063311a6c5690604401600060405180830381600087803b15801561073c57600080fd5b505af1158015610750573d6000803e3d6000fd5b50505050505050505050565b6002546001600160a01b031633146107865760405162461bcd60e51b81526004016103ed90610cf1565b6001805480820182556000919091527fb10e2d527612073b26eecdfd717e6a320cf44b4afac2b0732d9fcbe2b7fa0cf60155565b60006107c68383610a7d565b3410156108155760405162461bcd60e51b815260206004820152601f60248201527f4e6f74207061696420656e6f75676820666f72206172626974726174696f6e0060448201526064016103ed565b60008054908061082483610d90565b90915550905046600081610839600143610dab565b4084888888336040516020016108559796959493929190610dc2565b60408051601f19818403018152828252805160209182012060a0840183526001600160f81b038088168552600085840181815233878701908152346060890190815260808901848152868552600690975296909220965190511515600160f81b02921691909117855551600185810180546001600160a01b039384166001600160a01b031991821617909155945160028701559251600390950180549590911694909316939093179091559091507f0d14de2c628befa6eb7dc5c0b952832c96822914f589200f72acb5d8869982469082906109319043610dab565b40858989893360405161094a9796959493929190610e22565b60405180910390a1604051339084907f141dfc18aa6a56fc816f44f0e9e2f1ebc92b15ab167770e17db5b084c10ed99590600090a350509392505050565b600081815260066020526040902080546001600160f81b03166109e65760405162461bcd60e51b8152602060048201526016602482015275111a5cdc1d5d1948191bd95cc81b9bdd08195e1a5cdd60521b60448201526064016103ed565b8054600160f81b900460ff16610a2e5760405162461bcd60e51b815260206004820152600d60248201526c139bdd081c9d5b1959081e595d609a1b60448201526064016103ed565b600281018054600091829055600383015460405191926001600160a01b039091169183156108fc0291849190818181858888f19350505050158015610a77573d6000803e3d6000fd5b50505050565b6000806000610ac185858080601f016020809104026020016040519081016040528093929190818152602001838380828437600092019190915250610b0092505050565b91509150806001836001600160601b031681548110610ae257610ae2610d7a565b9060005260206000200154610af79190610e80565b95945050505050565b6000806040835110610b3d575050602081015160408201516001546001600160601b03831610610b2f57600091505b80610b38575060035b915091565b50600090506003915091565b6001600160a01b0381168114610b5e57600080fd5b50565b60008060408385031215610b7457600080fd5b8235610b7f81610b49565b946020939093013593505050565b600060208284031215610b9f57600080fd5b5035919050565b60008060408385031215610bb957600080fd5b82356001600160601b0381168114610b7f57600080fd5b60008060008060808587031215610be657600080fd5b8435610bf181610b49565b935060208501359250604085013591506060850135610c0f81610b49565b939692955090935050565b60008083601f840112610c2c57600080fd5b50813567ffffffffffffffff811115610c4457600080fd5b602083019150836020828501011115610c5c57600080fd5b9250929050565b600080600060408486031215610c7857600080fd5b83359250602084013567ffffffffffffffff811115610c9657600080fd5b610ca286828701610c1a565b9497909650939450505050565b60008060208385031215610cc257600080fd5b823567ffffffffffffffff811115610cd957600080fd5b610ce585828601610c1a565b90969095509350505050565b60208082526022908201527f416363657373206e6f7420616c6c6f7765643a20476f7665726e6f72206f6e6c6040820152613c9760f11b606082015260800190565b600060208284031215610d4557600080fd5b5051919050565b634e487b7160e01b600052601160045260246000fd5b60008219821115610d7557610d75610d4c565b500190565b634e487b7160e01b600052603260045260246000fd5b6000600019821415610da457610da4610d4c565b5060010190565b600082821015610dbd57610dbd610d4c565b500390565b8781528660208201526c6372656174654469737075746560981b604082015285604d82015284606d8201528284608d83013760609190911b6bffffffffffffffffffffffff1916608d919092019081019190915260a10195945050505050565b87815286602082015285604082015284606082015260c060808201528260c0820152828460e0830137600081840160e0908101919091526001600160a01b039290921660a0820152601f909201601f19169091010195945050505050565b6000816000190483118215151615610e9a57610e9a610d4c565b50029056fea264697066735822122009b3af15685a53211f786283eab12089a5aef4d10948fde906e1a9ca6c4069a564736f6c63430008090033",
  "devdoc": {
    "kind": "dev",
    "methods": {
      "arbitrationCost(bytes)": {
        "details": "Compute the cost of arbitration. It is recommended not to increase it often, as it can be highly time and gas consuming for the arbitrated contracts to cope with fee augmentation.",
        "params": {
          "_extraData": "Can be used to give additional info on the dispute to be created."
        },
        "returns": {
          "cost": "Required cost of arbitration."
        }
      },
      "changeFastbridge(address,uint256)": {
        "details": "Changes the fastBridge, useful to increase the claim deposit.",
        "params": {
          "_fastBridgeReceiver": "The address of the new fastBridge.",
          "_gracePeriod": "The duration to accept messages from the deprecated bridge (if at all)."
        }
      },
      "changeSubcourtJurorFee(uint96,uint256)": {
        "details": "Changes the `feeForJuror` property value of a specified subcourt.",
        "params": {
          "_feeForJuror": "The new value for the `feeForJuror` property value.",
          "_subcourtID": "The ID of the subcourt."
        }
      },
      "createDispute(uint256,bytes)": {
        "details": "Create a dispute. Must be called by the arbitrable contract. Must pay at least arbitrationCost(_extraData).",
        "params": {
          "_choices": "Amount of choices the arbitrator can make in this dispute.",
          "_extraData": "Can be used to give additional info on the dispute to be created."
        },
        "returns": {
          "disputeID": "ID of the dispute created."
        }
      },
      "createSubcourtJurorFee(uint256)": {
        "details": "Creates the `feeForJuror` property value for a new subcourt.",
        "params": {
          "_feeForJuror": "The new value for the `feeForJuror` property value."
        }
      }
    },
    "version": 1
  },
  "userdoc": {
    "kind": "user",
    "methods": {
      "relayRule(address,bytes32,uint256,address)": {
        "notice": "Relay the rule call from the home gateway to the arbitrable."
      }
    },
    "notice": "Foreign Gateway Counterpart of `HomeGateway`",
    "version": 1
  },
  "storageLayout": {
    "storage": [
      {
        "astId": 21762,
        "contract": "src/gateway/ForeignGateway.sol:ForeignGateway",
        "label": "localDisputeID",
        "offset": 0,
        "slot": "0",
        "type": "t_uint256"
      },
      {
        "astId": 21765,
        "contract": "src/gateway/ForeignGateway.sol:ForeignGateway",
        "label": "feeForJuror",
        "offset": 0,
        "slot": "1",
        "type": "t_array(t_uint256)dyn_storage"
      },
      {
        "astId": 21767,
        "contract": "src/gateway/ForeignGateway.sol:ForeignGateway",
        "label": "governor",
        "offset": 0,
        "slot": "2",
        "type": "t_address"
      },
      {
        "astId": 21770,
        "contract": "src/gateway/ForeignGateway.sol:ForeignGateway",
        "label": "fastBridgeReceiver",
        "offset": 0,
        "slot": "3",
        "type": "t_contract(IFastBridgeReceiver)16758"
      },
      {
        "astId": 21773,
        "contract": "src/gateway/ForeignGateway.sol:ForeignGateway",
        "label": "depreciatedFastbridge",
        "offset": 0,
        "slot": "4",
        "type": "t_contract(IFastBridgeReceiver)16758"
      },
      {
        "astId": 21775,
        "contract": "src/gateway/ForeignGateway.sol:ForeignGateway",
        "label": "depreciatedFastBridgeExpiration",
        "offset": 0,
        "slot": "5",
        "type": "t_uint256"
      },
      {
        "astId": 21780,
        "contract": "src/gateway/ForeignGateway.sol:ForeignGateway",
        "label": "disputeHashtoDisputeData",
        "offset": 0,
        "slot": "6",
        "type": "t_mapping(t_bytes32,t_struct(DisputeData)21736_storage)"
      }
    ],
    "types": {
      "t_address": {
        "encoding": "inplace",
        "label": "address",
        "numberOfBytes": "20"
      },
      "t_array(t_uint256)dyn_storage": {
        "base": "t_uint256",
        "encoding": "dynamic_array",
        "label": "uint256[]",
        "numberOfBytes": "32"
      },
      "t_bool": {
        "encoding": "inplace",
        "label": "bool",
        "numberOfBytes": "1"
      },
      "t_bytes32": {
        "encoding": "inplace",
        "label": "bytes32",
        "numberOfBytes": "32"
      },
      "t_contract(IFastBridgeReceiver)16758": {
        "encoding": "inplace",
        "label": "contract IFastBridgeReceiver",
        "numberOfBytes": "20"
      },
      "t_mapping(t_bytes32,t_struct(DisputeData)21736_storage)": {
        "encoding": "mapping",
        "key": "t_bytes32",
        "label": "mapping(bytes32 => struct ForeignGateway.DisputeData)",
        "numberOfBytes": "32",
        "value": "t_struct(DisputeData)21736_storage"
      },
      "t_struct(DisputeData)21736_storage": {
        "encoding": "inplace",
        "label": "struct ForeignGateway.DisputeData",
        "members": [
          {
            "astId": 21727,
            "contract": "src/gateway/ForeignGateway.sol:ForeignGateway",
            "label": "id",
            "offset": 0,
            "slot": "0",
            "type": "t_uint248"
          },
          {
            "astId": 21729,
            "contract": "src/gateway/ForeignGateway.sol:ForeignGateway",
            "label": "ruled",
            "offset": 31,
            "slot": "0",
            "type": "t_bool"
          },
          {
            "astId": 21731,
            "contract": "src/gateway/ForeignGateway.sol:ForeignGateway",
            "label": "arbitrable",
            "offset": 0,
            "slot": "1",
            "type": "t_address"
          },
          {
            "astId": 21733,
            "contract": "src/gateway/ForeignGateway.sol:ForeignGateway",
            "label": "paid",
            "offset": 0,
            "slot": "2",
            "type": "t_uint256"
          },
          {
            "astId": 21735,
            "contract": "src/gateway/ForeignGateway.sol:ForeignGateway",
            "label": "relayer",
            "offset": 0,
            "slot": "3",
            "type": "t_address"
          }
        ],
        "numberOfBytes": "128"
      },
      "t_uint248": {
        "encoding": "inplace",
        "label": "uint248",
        "numberOfBytes": "31"
      },
      "t_uint256": {
        "encoding": "inplace",
        "label": "uint256",
        "numberOfBytes": "32"
      }
    }
  }
}