{
  "address": "0xE417352b47911d08d69db5266424B3BAAfCBf7F5",
  "abi": [
    {
      "inputs": [
        {
          "internalType": "address",
          "name": "_governor",
          "type": "address"
        },
        {
          "internalType": "contract IFastBridgeReceiver",
          "name": "_fastbridge",
          "type": "address"
        },
        {
          "internalType": "uint256[]",
          "name": "_feeForJuror",
          "type": "uint256[]"
        },
        {
          "internalType": "address",
          "name": "_homeGateway",
          "type": "address"
        },
        {
          "internalType": "uint256",
          "name": "_homeChainID",
          "type": "uint256"
        }
      ],
      "stateMutability": "nonpayable",
      "type": "constructor"
    },
    {
      "anonymous": false,
      "inputs": [
        {
          "indexed": true,
          "internalType": "uint256",
          "name": "_disputeID",
          "type": "uint256"
        },
        {
          "indexed": true,
          "internalType": "contract IArbitrable",
          "name": "_arbitrable",
          "type": "address"
        }
      ],
      "name": "DisputeCreation",
      "type": "event"
    },
    {
      "anonymous": false,
      "inputs": [
        {
          "indexed": false,
          "internalType": "bytes32",
          "name": "disputeHash",
          "type": "bytes32"
        },
        {
          "indexed": false,
          "internalType": "bytes32",
          "name": "blockhash",
          "type": "bytes32"
        },
        {
          "indexed": false,
          "internalType": "uint256",
          "name": "localDisputeID",
          "type": "uint256"
        },
        {
          "indexed": false,
          "internalType": "uint256",
          "name": "_choices",
          "type": "uint256"
        },
        {
          "indexed": false,
          "internalType": "bytes",
          "name": "_extraData",
          "type": "bytes"
        },
        {
          "indexed": false,
          "internalType": "address",
          "name": "arbitrable",
          "type": "address"
        }
      ],
      "name": "DisputeHash",
      "type": "event"
    },
    {
      "inputs": [],
      "name": "MIN_JURORS",
      "outputs": [
        {
          "internalType": "uint256",
          "name": "",
          "type": "uint256"
        }
      ],
      "stateMutability": "view",
      "type": "function"
    },
    {
      "inputs": [
        {
          "internalType": "bytes",
          "name": "_extraData",
          "type": "bytes"
        }
      ],
      "name": "arbitrationCost",
      "outputs": [
        {
          "internalType": "uint256",
          "name": "cost",
          "type": "uint256"
        }
      ],
      "stateMutability": "view",
      "type": "function"
    },
    {
      "inputs": [],
      "name": "chainID",
      "outputs": [
        {
          "internalType": "uint256",
          "name": "",
          "type": "uint256"
        }
      ],
      "stateMutability": "view",
      "type": "function"
    },
    {
      "inputs": [
        {
          "internalType": "uint96",
          "name": "_subcourtID",
          "type": "uint96"
        },
        {
          "internalType": "uint256",
          "name": "_feeForJuror",
          "type": "uint256"
        }
      ],
      "name": "changeSubcourtJurorFee",
      "outputs": [],
      "stateMutability": "nonpayable",
      "type": "function"
    },
    {
      "inputs": [
        {
          "internalType": "uint256",
          "name": "_choices",
          "type": "uint256"
        },
        {
          "internalType": "bytes",
          "name": "_extraData",
          "type": "bytes"
        }
      ],
      "name": "createDispute",
      "outputs": [
        {
          "internalType": "uint256",
          "name": "disputeID",
          "type": "uint256"
        }
      ],
      "stateMutability": "payable",
      "type": "function"
    },
    {
      "inputs": [
        {
          "internalType": "bytes32",
          "name": "_disputeHash",
          "type": "bytes32"
        }
      ],
      "name": "disputeHashToForeignID",
      "outputs": [
        {
          "internalType": "uint256",
          "name": "",
          "type": "uint256"
        }
      ],
      "stateMutability": "view",
      "type": "function"
    },
    {
      "inputs": [
        {
          "internalType": "bytes32",
          "name": "",
          "type": "bytes32"
        }
      ],
      "name": "disputeHashtoDisputeData",
      "outputs": [
        {
          "internalType": "uint248",
          "name": "id",
          "type": "uint248"
        },
        {
          "internalType": "bool",
          "name": "ruled",
          "type": "bool"
        },
        {
          "internalType": "address",
          "name": "arbitrable",
          "type": "address"
        },
        {
          "internalType": "uint256",
          "name": "paid",
          "type": "uint256"
        },
        {
          "internalType": "address",
          "name": "relayer",
          "type": "address"
        }
      ],
      "stateMutability": "view",
      "type": "function"
    },
    {
      "inputs": [],
      "name": "fastbridge",
      "outputs": [
        {
          "internalType": "contract IFastBridgeReceiver",
          "name": "",
          "type": "address"
        }
      ],
      "stateMutability": "view",
      "type": "function"
    },
    {
      "inputs": [],
      "name": "governor",
      "outputs": [
        {
          "internalType": "address",
          "name": "",
          "type": "address"
        }
      ],
      "stateMutability": "view",
      "type": "function"
    },
    {
      "inputs": [],
      "name": "homeChainID",
      "outputs": [
        {
          "internalType": "uint256",
          "name": "",
          "type": "uint256"
        }
      ],
      "stateMutability": "view",
      "type": "function"
    },
    {
      "inputs": [],
      "name": "homeGateway",
      "outputs": [
        {
          "internalType": "address",
          "name": "",
          "type": "address"
        }
      ],
      "stateMutability": "view",
      "type": "function"
    },
    {
      "inputs": [
        {
          "internalType": "bytes32",
          "name": "_disputeHash",
          "type": "bytes32"
        },
        {
          "internalType": "uint256",
          "name": "_ruling",
          "type": "uint256"
        },
        {
          "internalType": "address",
          "name": "_relayer",
          "type": "address"
        }
      ],
      "name": "relayRule",
      "outputs": [],
      "stateMutability": "nonpayable",
      "type": "function"
    },
    {
      "inputs": [
        {
          "internalType": "bytes32",
          "name": "_disputeHash",
          "type": "bytes32"
        }
      ],
      "name": "withdrawFees",
      "outputs": [],
      "stateMutability": "nonpayable",
      "type": "function"
    }
  ],
  "transactionHash": "0x0e2215c39e2861ca1936ff7b38037eac01760e58c7cd651b63ab973b39fd8fff",
  "args": [
    "0x3b434e0D2a6C7F53d5C556D7BAeE8942c351Cf1a",
    "0xB520c1bA7e27723Cb9b96b5ab759269De243a69B",
    [
      "1000",
      "10000"
    ],
    "0x4Ad052B87573d183fBD173B56E0a1A4dbbc5529a",
    "0x0000000000000000000000000000000000000000000000000000000000066eeb"
  ],
  "numDeployments": 1,
  "solcInputHash": "404f378731df3b59bdbdc6b6946fcc1d",
  "bytecode": "0x608060405260016000553480156200001657600080fd5b5060405162000ed238038062000ed2833981016040819052620000399162000158565b600580546001600160a01b038088166001600160a01b031992831617909255600680549287169290911691909117905582516200007e906001906020860190620000b0565b50600780546001600160a01b0319166001600160a01b039390931692909217909155600355505046600255506200026c565b828054828255906000526020600020908101928215620000ee579160200282015b82811115620000ee578251825591602001919060010190620000d1565b50620000fc92915062000100565b5090565b5b80821115620000fc576000815560010162000101565b6001600160a01b03811681146200012d57600080fd5b50565b80516200013d8162000117565b919050565b634e487b7160e01b600052604160045260246000fd5b600080600080600060a086880312156200017157600080fd5b85516200017e8162000117565b80955050602080870151620001938162000117565b60408801519095506001600160401b0380821115620001b157600080fd5b818901915089601f830112620001c657600080fd5b815181811115620001db57620001db62000142565b8060051b604051601f19603f8301168101818110858211171562000203576200020362000142565b60405291825284820192508381018501918c8311156200022257600080fd5b938501935b82851015620002425784518452938501939285019262000227565b809850505050505050620002596060870162000130565b9150608086015190509295509295909350565b610c56806200027c6000396000f3fe6080604052600436106100c25760003560e01c8063adc879e91161007f578063d3c617ff11610059578063d3c617ff14610209578063eaff425a146102ab578063ebb71194146102c0578063f7434ea9146102e057600080fd5b8063adc879e9146101c0578063c13517e1146101d6578063d1d559c5146101e957600080fd5b80630c340a24146100c75780631fc6b556146101045780632e1db89014610128578063349698791461015e5780634d53c2a51461018057806359354c77146101a0575b600080fd5b3480156100d357600080fd5b506005546100e7906001600160a01b031681565b6040516001600160a01b0390911681526020015b60405180910390f35b34801561011057600080fd5b5061011a60035481565b6040519081526020016100fb565b34801561013457600080fd5b5061011a610143366004610956565b6000908152600460205260409020546001600160f81b031690565b34801561016a57600080fd5b5061017e61017936600461096f565b610300565b005b34801561018c57600080fd5b506007546100e7906001600160a01b031681565b3480156101ac57600080fd5b5061017e6101bb3660046109b4565b6104b7565b3480156101cc57600080fd5b5061011a60025481565b61011a6101e4366004610a35565b610549565b3480156101f557600080fd5b506006546100e7906001600160a01b031681565b34801561021557600080fd5b5061026d610224366004610956565b60046020526000908152604090208054600182015460028301546003909301546001600160f81b03831693600160f81b90930460ff16926001600160a01b039283169290911685565b604080516001600160f81b03909616865293151560208601526001600160a01b0392831693850193909352606084015216608082015260a0016100fb565b3480156102b757600080fd5b5061011a600381565b3480156102cc57600080fd5b5061017e6102db366004610956565b610795565b3480156102ec57600080fd5b5061011a6102fb366004610a81565b61088a565b6006546001600160a01b0316331461036d5760405162461bcd60e51b815260206004820152602560248201527f416363657373206e6f7420616c6c6f7765643a2046617374204272696467652060448201526437b7363c9760d91b60648201526084015b60405180910390fd5b600083815260046020526040902080546001600160f81b03166103cb5760405162461bcd60e51b8152602060048201526016602482015275111a5cdc1d5d1948191bd95cc81b9bdd08195e1a5cdd60521b6044820152606401610364565b8054600160f81b900460ff16156104185760405162461bcd60e51b815260206004820152601160248201527043616e6e6f742072756c6520747769636560781b6044820152606401610364565b80546001600160f81b0316600160f81b811782556003820180546001600160a01b038581166001600160a01b031990921691909117909155600183015460405163188d362b60e11b81526004810193909352602483018690521690819063311a6c5690604401600060405180830381600087803b15801561049857600080fd5b505af11580156104ac573d6000803e3d6000fd5b505050505050505050565b6005546001600160a01b0316331461051c5760405162461bcd60e51b815260206004820152602260248201527f416363657373206e6f7420616c6c6f7765643a20476f7665726e6f72206f6e6c6044820152613c9760f11b6064820152608401610364565b806001836001600160601b03168154811061053957610539610ac3565b6000918252602090912001555050565b6000610555838361088a565b3410156105a45760405162461bcd60e51b815260206004820152601f60248201527f4e6f74207061696420656e6f75676820666f72206172626974726174696f6e006044820152606401610364565b60006105e584848080601f01602080910402602001604051908101604052809392919081815260200183838082843760009201919091525061090d92505050565b50905060006001826001600160601b03168154811061060657610606610ac3565b90600052602060002001543461061c9190610aef565b600080549192508061062d83610b11565b91905055925060006002546001436106459190610b2c565b4085898989336040516020016106619796959493929190610b43565b60408051601f19818403018152828252805160209182012060a0840183526001600160f81b038089168552600085840181815233878701908152346060890190815260808901848152868552600490975296909220965190511515600160f81b02921691909117855551600185810180546001600160a01b039384166001600160a01b031991821617909155945160028701559251600390950180549590911694909316939093179091559091507fbbf4e847bb54e74f56bdb570167b1c8427f4bbc699e0d4cb7966bd846bdc844590829061073d9043610b2c565b40868a8a8a336040516107569796959493929190610ba3565b60405180910390a1604051339085907f141dfc18aa6a56fc816f44f0e9e2f1ebc92b15ab167770e17db5b084c10ed99590600090a35050509392505050565b600081815260046020526040902080546001600160f81b03166107f35760405162461bcd60e51b8152602060048201526016602482015275111a5cdc1d5d1948191bd95cc81b9bdd08195e1a5cdd60521b6044820152606401610364565b8054600160f81b900460ff1661083b5760405162461bcd60e51b815260206004820152600d60248201526c139bdd081c9d5b1959081e595d609a1b6044820152606401610364565b600281018054600091829055600383015460405191926001600160a01b039091169183156108fc0291849190818181858888f19350505050158015610884573d6000803e3d6000fd5b50505050565b60008060006108ce85858080601f01602080910402602001604051908101604052809392919081815260200183838082843760009201919091525061090d92505050565b91509150806001836001600160601b0316815481106108ef576108ef610ac3565b90600052602060002001546109049190610c01565b95945050505050565b600080604083511061094a575050602081015160408201516001546001600160601b0383161061093c57600091505b80610945575060035b915091565b50600090506003915091565b60006020828403121561096857600080fd5b5035919050565b60008060006060848603121561098457600080fd5b833592506020840135915060408401356001600160a01b03811681146109a957600080fd5b809150509250925092565b600080604083850312156109c757600080fd5b82356001600160601b03811681146109de57600080fd5b946020939093013593505050565b60008083601f8401126109fe57600080fd5b50813567ffffffffffffffff811115610a1657600080fd5b602083019150836020828501011115610a2e57600080fd5b9250929050565b600080600060408486031215610a4a57600080fd5b83359250602084013567ffffffffffffffff811115610a6857600080fd5b610a74868287016109ec565b9497909650939450505050565b60008060208385031215610a9457600080fd5b823567ffffffffffffffff811115610aab57600080fd5b610ab7858286016109ec565b90969095509350505050565b634e487b7160e01b600052603260045260246000fd5b634e487b7160e01b600052601160045260246000fd5b600082610b0c57634e487b7160e01b600052601260045260246000fd5b500490565b6000600019821415610b2557610b25610ad9565b5060010190565b600082821015610b3e57610b3e610ad9565b500390565b8781528660208201526c6372656174654469737075746560981b604082015285604d82015284606d8201528284608d83013760609190911b6bffffffffffffffffffffffff1916608d919092019081019190915260a10195945050505050565b87815286602082015285604082015284606082015260c060808201528260c0820152828460e0830137600081840160e0908101919091526001600160a01b039290921660a0820152601f909201601f19169091010195945050505050565b6000816000190483118215151615610c1b57610c1b610ad9565b50029056fea2646970667358221220b8148db3da291cc84d915fd907a71085d5dbf389981ac6b56fd475d8d5c1062f64736f6c634300080a0033",
  "devdoc": {
    "kind": "dev",
    "methods": {
      "arbitrationCost(bytes)": {
        "details": "Compute the cost of arbitration. It is recommended not to increase it often, as it can be highly time and gas consuming for the arbitrated contracts to cope with fee augmentation.",
        "params": {
          "_extraData": "Can be used to give additional info on the dispute to be created."
        },
        "returns": {
          "cost": "Required cost of arbitration."
        }
      },
      "changeSubcourtJurorFee(uint96,uint256)": {
        "details": "Changes the `feeForJuror` property value of a specified subcourt.",
        "params": {
          "_feeForJuror": "The new value for the `feeForJuror` property value.",
          "_subcourtID": "The ID of the subcourt."
        }
      },
      "createDispute(uint256,bytes)": {
        "details": "Create a dispute. Must be called by the arbitrable contract. Must pay at least arbitrationCost(_extraData).",
        "params": {
          "_choices": "Amount of choices the arbitrator can make in this dispute.",
          "_extraData": "Can be used to give additional info on the dispute to be created."
        },
        "returns": {
          "disputeID": "ID of the dispute created."
        }
      }
    },
    "version": 1
  },
  "userdoc": {
    "kind": "user",
    "methods": {
      "relayRule(bytes32,uint256,address)": {
        "notice": "Relay the rule call from the home gateway to the arbitrable."
      }
    },
    "version": 1
  },
  "storageLayout": {
    "storage": [
      {
        "astId": 9870,
        "contract": "src/gateway/ForeignGateway.sol:ForeignGateway",
        "label": "localDisputeID",
        "offset": 0,
        "slot": "0",
        "type": "t_uint256"
      },
      {
        "astId": 9873,
        "contract": "src/gateway/ForeignGateway.sol:ForeignGateway",
        "label": "feeForJuror",
        "offset": 0,
        "slot": "1",
        "type": "t_array(t_uint256)dyn_storage"
      },
      {
        "astId": 9875,
        "contract": "src/gateway/ForeignGateway.sol:ForeignGateway",
        "label": "chainID",
        "offset": 0,
        "slot": "2",
        "type": "t_uint256"
      },
      {
        "astId": 9877,
        "contract": "src/gateway/ForeignGateway.sol:ForeignGateway",
        "label": "homeChainID",
        "offset": 0,
        "slot": "3",
        "type": "t_uint256"
      },
      {
        "astId": 9893,
        "contract": "src/gateway/ForeignGateway.sol:ForeignGateway",
        "label": "disputeHashtoDisputeData",
        "offset": 0,
        "slot": "4",
        "type": "t_mapping(t_bytes32,t_struct(DisputeData)9888_storage)"
      },
      {
        "astId": 9895,
        "contract": "src/gateway/ForeignGateway.sol:ForeignGateway",
        "label": "governor",
        "offset": 0,
        "slot": "5",
        "type": "t_address"
      },
      {
        "astId": 9898,
        "contract": "src/gateway/ForeignGateway.sol:ForeignGateway",
        "label": "fastbridge",
        "offset": 0,
        "slot": "6",
        "type": "t_contract(IFastBridgeReceiver)7742"
      },
      {
        "astId": 9900,
        "contract": "src/gateway/ForeignGateway.sol:ForeignGateway",
        "label": "homeGateway",
        "offset": 0,
        "slot": "7",
        "type": "t_address"
      }
    ],
    "types": {
      "t_address": {
        "encoding": "inplace",
        "label": "address",
        "numberOfBytes": "20"
      },
      "t_array(t_uint256)dyn_storage": {
        "base": "t_uint256",
        "encoding": "dynamic_array",
        "label": "uint256[]",
        "numberOfBytes": "32"
      },
      "t_bool": {
        "encoding": "inplace",
        "label": "bool",
        "numberOfBytes": "1"
      },
      "t_bytes32": {
        "encoding": "inplace",
        "label": "bytes32",
        "numberOfBytes": "32"
      },
      "t_contract(IFastBridgeReceiver)7742": {
        "encoding": "inplace",
        "label": "contract IFastBridgeReceiver",
        "numberOfBytes": "20"
      },
      "t_mapping(t_bytes32,t_struct(DisputeData)9888_storage)": {
        "encoding": "mapping",
        "key": "t_bytes32",
        "label": "mapping(bytes32 => struct ForeignGateway.DisputeData)",
        "numberOfBytes": "32",
        "value": "t_struct(DisputeData)9888_storage"
      },
      "t_struct(DisputeData)9888_storage": {
        "encoding": "inplace",
        "label": "struct ForeignGateway.DisputeData",
        "members": [
          {
            "astId": 9879,
            "contract": "src/gateway/ForeignGateway.sol:ForeignGateway",
            "label": "id",
            "offset": 0,
            "slot": "0",
            "type": "t_uint248"
          },
          {
            "astId": 9881,
            "contract": "src/gateway/ForeignGateway.sol:ForeignGateway",
            "label": "ruled",
            "offset": 31,
            "slot": "0",
            "type": "t_bool"
          },
          {
            "astId": 9883,
            "contract": "src/gateway/ForeignGateway.sol:ForeignGateway",
            "label": "arbitrable",
            "offset": 0,
            "slot": "1",
            "type": "t_address"
          },
          {
            "astId": 9885,
            "contract": "src/gateway/ForeignGateway.sol:ForeignGateway",
            "label": "paid",
            "offset": 0,
            "slot": "2",
            "type": "t_uint256"
          },
          {
            "astId": 9887,
            "contract": "src/gateway/ForeignGateway.sol:ForeignGateway",
            "label": "relayer",
            "offset": 0,
            "slot": "3",
            "type": "t_address"
          }
        ],
        "numberOfBytes": "128"
      },
      "t_uint248": {
        "encoding": "inplace",
        "label": "uint248",
        "numberOfBytes": "31"
      },
      "t_uint256": {
        "encoding": "inplace",
        "label": "uint256",
        "numberOfBytes": "32"
      }
    }
  }
}