{
  "address": "0xd78dcdde2c5a2bd4bb246bc7db6994b95f7c442c",
  "abi": [
    {
      "inputs": [
        {
          "internalType": "contract IArbitrator",
          "name": "_arbitrator",
          "type": "address"
        },
        {
          "internalType": "string",
          "name": "_metaEvidence",
          "type": "string"
        }
      ],
      "stateMutability": "nonpayable",
      "type": "constructor"
    },
    {
      "anonymous": false,
      "inputs": [
        {
          "indexed": true,
          "internalType": "contract IArbitrator",
          "name": "_arbitrator",
          "type": "address"
        },
        {
          "indexed": true,
          "internalType": "uint256",
          "name": "_disputeID",
          "type": "uint256"
        },
        {
          "indexed": false,
          "internalType": "uint256",
          "name": "_metaEvidenceID",
          "type": "uint256"
        },
        {
          "indexed": false,
          "internalType": "uint256",
          "name": "_evidenceGroupID",
          "type": "uint256"
        }
      ],
      "name": "Dispute",
      "type": "event"
    },
    {
      "anonymous": false,
      "inputs": [
        {
          "indexed": true,
          "internalType": "contract IArbitrator",
          "name": "_arbitrator",
          "type": "address"
        },
        {
          "indexed": true,
          "internalType": "uint256",
          "name": "_evidenceGroupID",
          "type": "uint256"
        },
        {
          "indexed": true,
          "internalType": "address",
          "name": "_party",
          "type": "address"
        },
        {
          "indexed": false,
          "internalType": "string",
          "name": "_evidence",
          "type": "string"
        }
      ],
      "name": "Evidence",
      "type": "event"
    },
    {
      "anonymous": false,
      "inputs": [
        {
          "indexed": true,
          "internalType": "uint256",
          "name": "_metaEvidenceID",
          "type": "uint256"
        },
        {
          "indexed": false,
          "internalType": "string",
          "name": "_evidence",
          "type": "string"
        }
      ],
      "name": "MetaEvidence",
      "type": "event"
    },
    {
      "anonymous": false,
      "inputs": [
        {
          "indexed": true,
          "internalType": "contract IArbitrator",
          "name": "_arbitrator",
          "type": "address"
        },
        {
          "indexed": true,
          "internalType": "uint256",
          "name": "_disputeID",
          "type": "uint256"
        },
        {
          "indexed": false,
          "internalType": "uint256",
          "name": "_ruling",
          "type": "uint256"
        }
      ],
      "name": "Ruling",
      "type": "event"
    },
    {
      "inputs": [],
      "name": "arbitrator",
      "outputs": [
        {
          "internalType": "contract IArbitrator",
          "name": "",
          "type": "address"
        }
      ],
      "stateMutability": "view",
      "type": "function"
    },
    {
      "inputs": [
        {
          "internalType": "string",
          "name": "_metaEvidence",
          "type": "string"
        }
      ],
      "name": "changedMetaEvidence",
      "outputs": [],
      "stateMutability": "nonpayable",
      "type": "function"
    },
    {
      "inputs": [
        {
          "internalType": "uint256",
          "name": "_numberOfRulingOptions",
          "type": "uint256"
        },
        {
          "internalType": "bytes",
          "name": "_arbitratorExtraData",
          "type": "bytes"
        },
        {
          "internalType": "uint256",
          "name": "_evidenceGroupID",
          "type": "uint256"
        }
      ],
      "name": "createDispute",
      "outputs": [
        {
          "internalType": "uint256",
          "name": "disputeID",
          "type": "uint256"
        }
      ],
      "stateMutability": "payable",
      "type": "function"
    },
    {
      "inputs": [
        {
          "internalType": "uint256",
          "name": "",
          "type": "uint256"
        }
      ],
      "name": "disputes",
      "outputs": [
        {
          "internalType": "bool",
          "name": "isRuled",
          "type": "bool"
        },
        {
          "internalType": "uint256",
          "name": "ruling",
          "type": "uint256"
        },
        {
          "internalType": "uint256",
          "name": "numberOfRulingOptions",
          "type": "uint256"
        }
      ],
      "stateMutability": "view",
      "type": "function"
    },
    {
      "inputs": [
        {
          "internalType": "uint256",
          "name": "",
          "type": "uint256"
        }
      ],
      "name": "externalIDtoLocalID",
      "outputs": [
        {
          "internalType": "uint256",
          "name": "",
          "type": "uint256"
        }
      ],
      "stateMutability": "view",
      "type": "function"
    },
    {
      "inputs": [],
      "name": "governor",
      "outputs": [
        {
          "internalType": "address",
          "name": "",
          "type": "address"
        }
      ],
      "stateMutability": "view",
      "type": "function"
    },
    {
      "inputs": [
        {
          "internalType": "uint256",
          "name": "_externalDisputeID",
          "type": "uint256"
        },
        {
          "internalType": "uint256",
          "name": "_ruling",
          "type": "uint256"
        }
      ],
      "name": "rule",
      "outputs": [],
      "stateMutability": "nonpayable",
      "type": "function"
    }
  ],
  "transactionHash": "0x02f544b818f85a5e49415f54f72cbdcd348cb7d38a85a397c4002d04c2899001",
  "args": [
    "0x4401a368dea8d5761aeeffd3c4a674086dea0666",
    "https://raw.githubusercontent.com/kleros/kleros-v2/master/contracts/deployments/rinkeby/MetaEvidence_ArbitrableExample.json"
  ],
  "numDeployments": 2,
  "solcInputHash": "f57208d12ea18de1e79aa93372bf0e19",
  "bytecode": "0x60a06040526000805534801561001457600080fd5b50604051610b12380380610b12833981016040819052610033916100da565b600180546001600160a01b031916331790556001600160a01b0382166080526000546040517f61606860eb6c87306811e2695215385101daab53bd6ab4e9f9049aead9363c7d906100859084906101a8565b60405180910390a250506101db565b634e487b7160e01b600052604160045260246000fd5b60005b838110156100c55781810151838201526020016100ad565b838111156100d4576000848401525b50505050565b600080604083850312156100ed57600080fd5b82516001600160a01b038116811461010457600080fd5b60208401519092506001600160401b038082111561012157600080fd5b818501915085601f83011261013557600080fd5b81518181111561014757610147610094565b604051601f8201601f19908116603f0116810190838211818310171561016f5761016f610094565b8160405282815288602084870101111561018857600080fd5b6101998360208301602088016100aa565b80955050505050509250929050565b60208152600082518060208401526101c78160408501602087016100aa565b601f01601f19169190910160400192915050565b60805161090761020b60003960008181610154015281816101db01528181610550015261060d01526109076000f3fe6080604052600436106100605760003560e01c80630c340a2414610065578063311a6c56146100a257806332705fa6146100c4578063564a565d146100e45780636137048c146101215780636cc6cde114610142578063c21ae06114610176575b600080fd5b34801561007157600080fd5b50600154610085906001600160a01b031681565b6040516001600160a01b0390911681526020015b60405180910390f35b3480156100ae57600080fd5b506100c26100bd36600461066a565b6101a3565b005b3480156100d057600080fd5b506100c26100df3660046106a2565b610360565b3480156100f057600080fd5b506101046100ff366004610753565b610408565b604080519315158452602084019290925290820152606001610099565b61013461012f36600461076c565b61043f565b604051908152602001610099565b34801561014e57600080fd5b506100857f000000000000000000000000000000000000000000000000000000000000000081565b34801561018257600080fd5b50610134610191366004610753565b60026020526000908152604090205481565b60008281526002602052604081205460038054919291839081106101c9576101c96107ee565b906000526020600020906003020190507f00000000000000000000000000000000000000000000000000000000000000006001600160a01b0316336001600160a01b03161461026d5760405162461bcd60e51b815260206004820152602560248201527f4f6e6c79207468652061726269747261746f722063616e2065786563757465206044820152643a3434b99760d91b60648201526084015b60405180910390fd5b80600201548311156102b35760405162461bcd60e51b815260206004820152600f60248201526e24b73b30b634b210393ab634b7339760891b6044820152606401610264565b805460ff16156103115760405162461bcd60e51b8152602060048201526024808201527f54686973206469737075746520686173206265656e2072756c656420616c726560448201526330b23c9760e11b6064820152608401610264565b805460ff1916600190811782558101839055604051838152849033907f394027a5fa6e098a1191094d1719d6929b9abc535fcc0c8f448d6a4e756222769060200160405180910390a350505050565b6001546001600160a01b031633146103ba5760405162461bcd60e51b815260206004820152601e60248201527f4e6f7420617574686f72697a65643a20676f7665726e6f72206f6e6c792e00006044820152606401610264565b60008081546103c890610804565b9190508190557f61606860eb6c87306811e2695215385101daab53bd6ab4e9f9049aead9363c7d826040516103fd919061082d565b60405180910390a250565b6003818154811061041857600080fd5b600091825260209091206003909102018054600182015460029092015460ff909116925083565b6000600185116104915760405162461bcd60e51b815260206004820152601b60248201527f496e636f7272656374206e756d626572206f662063686f6963657300000000006044820152606401610264565b60038054604080516060810182526000808252602082018181528284018b81526001860187559186905291517fc2575a0e9e593c00f959f8c92f12db2869c3395a3b0502d05e2516446f71f85b958502958601805460ff191691151591909117905590517fc2575a0e9e593c00f959f8c92f12db2869c3395a3b0502d05e2516446f71f85c850155517fc2575a0e9e593c00f959f8c92f12db2869c3395a3b0502d05e2516446f71f85d90930192909255905163c13517e160e01b81527f00000000000000000000000000000000000000000000000000000000000000006001600160a01b03169063c13517e1903490610593908a908a908a90600401610882565b6020604051808303818588803b1580156105ac57600080fd5b505af11580156105c0573d6000803e3d6000fd5b50505050506040513d601f19601f820116820180604052508101906105e591906108b8565b60008181526002602090815260408083208590559154825190815290810186905291935083917f00000000000000000000000000000000000000000000000000000000000000006001600160a01b0316917f74baab670a4015ab2f1b467c5252a96141a2573f2908e58a92081e80d3cfde3d910160405180910390a350949350505050565b6000806040838503121561067d57600080fd5b50508035926020909101359150565b634e487b7160e01b600052604160045260246000fd5b6000602082840312156106b457600080fd5b813567ffffffffffffffff808211156106cc57600080fd5b818401915084601f8301126106e057600080fd5b8135818111156106f2576106f261068c565b604051601f8201601f19908116603f0116810190838211818310171561071a5761071a61068c565b8160405282815287602084870101111561073357600080fd5b826020860160208301376000928101602001929092525095945050505050565b60006020828403121561076557600080fd5b5035919050565b6000806000806060858703121561078257600080fd5b84359350602085013567ffffffffffffffff808211156107a157600080fd5b818701915087601f8301126107b557600080fd5b8135818111156107c457600080fd5b8860208285010111156107d657600080fd5b95986020929092019750949560400135945092505050565b634e487b7160e01b600052603260045260246000fd5b600060001982141561082657634e487b7160e01b600052601160045260246000fd5b5060010190565b600060208083528351808285015260005b8181101561085a5785810183015185820160400152820161083e565b8181111561086c576000604083870101525b50601f01601f1916929092016040019392505050565b83815260406020820152816040820152818360608301376000818301606090810191909152601f909201601f1916010192915050565b6000602082840312156108ca57600080fd5b505191905056fea264697066735822122048abe1dc65ec08c8802d6fcc7de66ea0cc6b6ac39e6963fcfeb5ed477eead42564736f6c63430008090033",
  "devdoc": {
    "kind": "dev",
    "methods": {
      "constructor": {
        "details": "Constructor",
        "params": {
          "_arbitrator": "The arbitrator to rule on created disputes.",
          "_metaEvidence": "The URI of the meta evidence object for evidence submissions requests."
        }
      },
      "createDispute(uint256,bytes,uint256)": {
        "details": "TRUSTED. Calls createDispute function of the specified arbitrator to create a dispute. Note that we don’t need to check that msg.value is enough to pay arbitration fees as it’s the responsibility of the arbitrator contract.",
        "params": {
          "_arbitratorExtraData": "Extra data for the arbitrator.",
          "_evidenceGroupID": "Unique identifier of the evidence group that is linked to this dispute.",
          "_numberOfRulingOptions": "Number of ruling options. Must be greater than 1, otherwise there is nothing to choose from."
        },
        "returns": {
          "disputeID": "Dispute id (on arbitrator side) of the dispute created."
        }
      },
      "rule(uint256,uint256)": {
        "details": "To be called by the arbitrator of the dispute, to declare the winning ruling.",
        "params": {
          "_externalDisputeID": "ID of the dispute in arbitrator contract.",
          "_ruling": "The ruling choice of the arbitration."
        }
      }
    },
    "title": "ArbitrableExample  An example of an arbitrable contract which connects to the arbitator that implements the updated interface.",
    "version": 1
  },
  "userdoc": {
    "kind": "user",
    "methods": {},
    "version": 1
  },
  "storageLayout": {
    "storage": [
      {
        "astId": 5936,
        "contract": "src/arbitration/arbitrables/ArbitrableExample.sol:ArbitrableExample",
        "label": "META_EVIDENCE_ID",
        "offset": 0,
        "slot": "0",
        "type": "t_uint256"
      },
      {
        "astId": 5938,
        "contract": "src/arbitration/arbitrables/ArbitrableExample.sol:ArbitrableExample",
        "label": "governor",
        "offset": 0,
        "slot": "1",
        "type": "t_address"
      },
      {
        "astId": 5945,
        "contract": "src/arbitration/arbitrables/ArbitrableExample.sol:ArbitrableExample",
        "label": "externalIDtoLocalID",
        "offset": 0,
        "slot": "2",
        "type": "t_mapping(t_uint256,t_uint256)"
      },
      {
        "astId": 5949,
        "contract": "src/arbitration/arbitrables/ArbitrableExample.sol:ArbitrableExample",
        "label": "disputes",
        "offset": 0,
        "slot": "3",
        "type": "t_array(t_struct(DisputeStruct)5933_storage)dyn_storage"
      }
    ],
    "types": {
      "t_address": {
        "encoding": "inplace",
        "label": "address",
        "numberOfBytes": "20"
      },
      "t_array(t_struct(DisputeStruct)5933_storage)dyn_storage": {
        "base": "t_struct(DisputeStruct)5933_storage",
        "encoding": "dynamic_array",
        "label": "struct ArbitrableExample.DisputeStruct[]",
        "numberOfBytes": "32"
      },
      "t_bool": {
        "encoding": "inplace",
        "label": "bool",
        "numberOfBytes": "1"
      },
      "t_mapping(t_uint256,t_uint256)": {
        "encoding": "mapping",
        "key": "t_uint256",
        "label": "mapping(uint256 => uint256)",
        "numberOfBytes": "32",
        "value": "t_uint256"
      },
      "t_struct(DisputeStruct)5933_storage": {
        "encoding": "inplace",
        "label": "struct ArbitrableExample.DisputeStruct",
        "members": [
          {
            "astId": 5928,
            "contract": "src/arbitration/arbitrables/ArbitrableExample.sol:ArbitrableExample",
            "label": "isRuled",
            "offset": 0,
            "slot": "0",
            "type": "t_bool"
          },
          {
            "astId": 5930,
            "contract": "src/arbitration/arbitrables/ArbitrableExample.sol:ArbitrableExample",
            "label": "ruling",
            "offset": 0,
            "slot": "1",
            "type": "t_uint256"
          },
          {
            "astId": 5932,
            "contract": "src/arbitration/arbitrables/ArbitrableExample.sol:ArbitrableExample",
            "label": "numberOfRulingOptions",
            "offset": 0,
            "slot": "2",
            "type": "t_uint256"
          }
        ],
        "numberOfBytes": "96"
      },
      "t_uint256": {
        "encoding": "inplace",
        "label": "uint256",
        "numberOfBytes": "32"
      }
    }
  }
}