{
  "address": "0x7932fb9ccF576D02270B9A12E5718b3a9C760843",
  "abi": [
    {
      "inputs": [],
      "stateMutability": "nonpayable",
      "type": "constructor"
    },
    {
      "inputs": [],
      "name": "NotImplemented",
      "type": "error"
    },
    {
      "anonymous": false,
      "inputs": [
        {
          "indexed": true,
          "internalType": "contract IERC20",
          "name": "_token",
          "type": "address"
        },
        {
          "indexed": true,
          "internalType": "bool",
          "name": "_accepted",
          "type": "bool"
        }
      ],
      "name": "AcceptedFeeToken",
      "type": "event"
    },
    {
      "anonymous": false,
      "inputs": [
        {
          "indexed": true,
          "internalType": "address",
          "name": "_arbitrable",
          "type": "address"
        }
      ],
      "name": "ArbitrableRegisteration",
      "type": "event"
    },
    {
      "anonymous": false,
      "inputs": [
        {
          "indexed": true,
          "internalType": "uint256",
          "name": "_disputeID",
          "type": "uint256"
        },
        {
          "indexed": true,
          "internalType": "contract IArbitrableV2",
          "name": "_arbitrable",
          "type": "address"
        }
      ],
      "name": "DisputeCreation",
      "type": "event"
    },
    {
      "anonymous": false,
      "inputs": [
        {
          "indexed": true,
          "internalType": "contract IERC20",
          "name": "_feeToken",
          "type": "address"
        },
        {
          "indexed": false,
          "internalType": "uint64",
          "name": "_rateInEth",
          "type": "uint64"
        },
        {
          "indexed": false,
          "internalType": "uint8",
          "name": "_rateDecimals",
          "type": "uint8"
        }
      ],
      "name": "NewCurrencyRate",
      "type": "event"
    },
    {
      "anonymous": false,
      "inputs": [
        {
          "indexed": true,
          "internalType": "contract IArbitrableV2",
          "name": "_arbitrable",
          "type": "address"
        },
        {
          "indexed": true,
          "internalType": "uint256",
          "name": "_disputeID",
          "type": "uint256"
        },
        {
          "indexed": false,
          "internalType": "uint256",
          "name": "_ruling",
          "type": "uint256"
        }
      ],
      "name": "Ruling",
      "type": "event"
    },
    {
      "inputs": [
        {
          "internalType": "bytes",
          "name": "",
          "type": "bytes"
        },
        {
          "internalType": "contract IERC20",
          "name": "",
          "type": "address"
        }
      ],
      "name": "arbitrationCost",
      "outputs": [
        {
          "internalType": "uint256",
          "name": "",
          "type": "uint256"
        }
      ],
      "stateMutability": "pure",
      "type": "function"
    },
    {
      "inputs": [
        {
          "internalType": "bytes",
          "name": "",
          "type": "bytes"
        }
      ],
      "name": "arbitrationCost",
      "outputs": [
        {
          "internalType": "uint256",
          "name": "",
          "type": "uint256"
        }
      ],
      "stateMutability": "pure",
      "type": "function"
    },
    {
      "inputs": [
        {
          "internalType": "uint256",
          "name": "",
          "type": "uint256"
        },
        {
          "internalType": "bytes",
          "name": "",
          "type": "bytes"
        }
      ],
      "name": "createDispute",
      "outputs": [
        {
          "internalType": "uint256",
          "name": "",
          "type": "uint256"
        }
      ],
      "stateMutability": "payable",
      "type": "function"
    },
    {
      "inputs": [
        {
          "internalType": "uint256",
          "name": "",
          "type": "uint256"
        },
        {
          "internalType": "bytes",
          "name": "",
          "type": "bytes"
        },
        {
          "internalType": "contract IERC20",
          "name": "",
          "type": "address"
        },
        {
          "internalType": "uint256",
          "name": "",
          "type": "uint256"
        }
      ],
      "name": "createDispute",
      "outputs": [
        {
          "internalType": "uint256",
          "name": "",
          "type": "uint256"
        }
      ],
      "stateMutability": "nonpayable",
      "type": "function"
    },
    {
      "inputs": [
        {
          "internalType": "uint256",
          "name": "",
          "type": "uint256"
        }
      ],
      "name": "currentRuling",
      "outputs": [
        {
          "internalType": "uint256",
          "name": "",
          "type": "uint256"
        },
        {
          "internalType": "bool",
          "name": "",
          "type": "bool"
        },
        {
          "internalType": "bool",
          "name": "",
          "type": "bool"
        }
      ],
      "stateMutability": "pure",
      "type": "function"
    },
    {
      "inputs": [],
      "name": "disputeID",
      "outputs": [
        {
          "internalType": "uint256",
          "name": "",
          "type": "uint256"
        }
      ],
      "stateMutability": "view",
      "type": "function"
    },
    {
      "inputs": [
        {
          "internalType": "uint256",
          "name": "",
          "type": "uint256"
        }
      ],
      "name": "executeRuling",
      "outputs": [],
      "stateMutability": "pure",
      "type": "function"
    },
    {
      "inputs": [],
      "name": "register",
      "outputs": [],
      "stateMutability": "nonpayable",
      "type": "function"
    }
  ],
  "transactionHash": "0x88459e7776fea179ddb319903692b63e83f70fa6eedf5c48152a11c474fc7809",
  "args": [],
  "numDeployments": 1,
  "solcInputHash": "1be9897ce71baf97383d6f7882968cfe",
  "bytecode": "0x608060405234801561001057600080fd5b506104e0806100206000396000f3fe60806040526004361061006b5760003560e01c80631aa3a008146100705780631c3db16d146100875780638bb04875146100c9578063b0a1e2b4146100e9578063c13517e11461010d578063d98493f614610120578063f6506db414610144578063f7434ea914610164575b600080fd5b34801561007c57600080fd5b50610085610185565b005b34801561009357600080fd5b506100a76100a2366004610224565b6101b2565b6040805193845291151560208401521515908201526060015b60405180910390f35b3480156100d557600080fd5b506100856100e4366004610224565b6101d0565b3480156100f557600080fd5b506100ff60005481565b6040519081526020016100c0565b6100ff61011b3660046102e0565b6101e9565b34801561012c57600080fd5b506100ff61013b36600461038c565b60009392505050565b34801561015057600080fd5b506100ff61015f3660046103e0565b610205565b34801561017057600080fd5b506100ff61017f366004610446565b50600090565b60405133907ff60902c1418250c0f496ab2de285f03c06db731ad0cff532f53a1f9640c1d67290600090a2565b600080600060405163d623472560e01b815260040160405180910390fd5b60405163d623472560e01b815260040160405180910390fd5b600080600081546101f990610483565b91829055509392505050565b6000806000815461021590610483565b91829055509695505050505050565b60006020828403121561023657600080fd5b5035919050565b634e487b7160e01b600052604160045260246000fd5b600082601f83011261026457600080fd5b813567ffffffffffffffff8082111561027f5761027f61023d565b604051601f8301601f19908116603f011681019082821181831017156102a7576102a761023d565b816040528381528660208588010111156102c057600080fd5b836020870160208301376000602085830101528094505050505092915050565b600080604083850312156102f357600080fd5b82359150602083013567ffffffffffffffff81111561031157600080fd5b61031d85828601610253565b9150509250929050565b60008083601f84011261033957600080fd5b50813567ffffffffffffffff81111561035157600080fd5b60208301915083602082850101111561036957600080fd5b9250929050565b80356001600160a01b038116811461038757600080fd5b919050565b6000806000604084860312156103a157600080fd5b833567ffffffffffffffff8111156103b857600080fd5b6103c486828701610327565b90945092506103d7905060208501610370565b90509250925092565b6000806000806000608086880312156103f857600080fd5b85359450602086013567ffffffffffffffff81111561041657600080fd5b61042288828901610327565b9095509350610435905060408701610370565b949793965091946060013592915050565b60006020828403121561045857600080fd5b813567ffffffffffffffff81111561046f57600080fd5b61047b84828501610253565b949350505050565b6000600182016104a357634e487b7160e01b600052601160045260246000fd5b506001019056fea2646970667358221220d69200a24ceb03273d07fd1267dc9355b85fa484c97703fdab5a97537e9d887864736f6c63430008120033",
  "devdoc": {
    "events": {
      "AcceptedFeeToken(address,bool)": {
        "details": "To be emitted when an ERC20 token is added or removed as a method to pay fees.",
        "params": {
          "_accepted": "Whether the token is accepted or not.",
          "_token": "The ERC20 token."
        }
      },
      "DisputeCreation(uint256,address)": {
        "details": "To be emitted when a dispute is created.",
        "params": {
          "_arbitrable": "The contract which created the dispute.",
          "_disputeID": "The identifier of the dispute in the Arbitrator contract."
        }
      },
      "NewCurrencyRate(address,uint64,uint8)": {
        "details": "To be emitted when the fee for a particular ERC20 token is updated.",
        "params": {
          "_feeToken": "The ERC20 token.",
          "_rateDecimals": "The new decimals of the fee token rate.",
          "_rateInEth": "The new rate of the fee token in ETH."
        }
      },
      "Ruling(address,uint256,uint256)": {
        "details": "To be raised when a ruling is given.",
        "params": {
          "_arbitrable": "The arbitrable receiving the ruling.",
          "_disputeID": "The identifier of the dispute in the Arbitrator contract.",
          "_ruling": "The ruling which was given."
        }
      }
    },
    "kind": "dev",
    "methods": {},
    "version": 1
  },
  "userdoc": {
    "kind": "user",
    "methods": {},
    "version": 1
  },
  "storageLayout": {
    "storage": [
      {
        "astId": 1811,
        "contract": "src/arbitration/ArbitratorDummy.sol:ArbitratorDummy",
        "label": "disputeID",
        "offset": 0,
        "slot": "0",
        "type": "t_uint256"
      }
    ],
    "types": {
      "t_uint256": {
        "encoding": "inplace",
        "label": "uint256",
        "numberOfBytes": "32"
      }
    }
  }
}