{
  "address": "0x13aC429B61E1224E69275f161f0c6dafb2facAb8",
  "abi": [
    {
      "inputs": [
        {
          "internalType": "contract IArbitratorV2",
          "name": "_arbitrator",
          "type": "address"
        },
        {
          "internalType": "string",
          "name": "_templateData",
          "type": "string"
        },
        {
          "internalType": "string",
          "name": "_templateDataMappings",
          "type": "string"
        },
        {
          "internalType": "bytes",
          "name": "_arbitratorExtraData",
          "type": "bytes"
        },
        {
          "internalType": "contract IERC20",
          "name": "_weth",
          "type": "address"
        }
      ],
      "stateMutability": "nonpayable",
      "type": "constructor"
    },
    {
      "anonymous": false,
      "inputs": [
        {
          "indexed": true,
          "internalType": "string",
          "name": "_action",
          "type": "string"
        }
      ],
      "name": "Action",
      "type": "event"
    },
    {
      "anonymous": false,
      "inputs": [
        {
          "indexed": true,
          "internalType": "contract IArbitratorV2",
          "name": "_arbitrator",
          "type": "address"
        },
        {
          "indexed": true,
          "internalType": "uint256",
          "name": "_arbitrableDisputeID",
          "type": "uint256"
        },
        {
          "indexed": false,
          "internalType": "uint256",
          "name": "_externalDisputeID",
          "type": "uint256"
        },
        {
          "indexed": false,
          "internalType": "uint256",
          "name": "_templateId",
          "type": "uint256"
        },
        {
          "indexed": false,
          "internalType": "string",
          "name": "_templateUri",
          "type": "string"
        }
      ],
      "name": "DisputeRequest",
      "type": "event"
    },
    {
      "anonymous": false,
      "inputs": [
        {
          "indexed": true,
          "internalType": "uint256",
          "name": "_templateId",
          "type": "uint256"
        },
        {
          "indexed": true,
          "internalType": "string",
          "name": "_templateTag",
          "type": "string"
        },
        {
          "indexed": false,
          "internalType": "string",
          "name": "_templateData",
          "type": "string"
        },
        {
          "indexed": false,
          "internalType": "string",
          "name": "_templateDataMappings",
          "type": "string"
        }
      ],
      "name": "DisputeTemplate",
      "type": "event"
    },
    {
      "anonymous": false,
      "inputs": [
        {
          "indexed": true,
          "internalType": "contract IArbitratorV2",
          "name": "_arbitrator",
          "type": "address"
        },
        {
          "indexed": true,
          "internalType": "uint256",
          "name": "_disputeID",
          "type": "uint256"
        },
        {
          "indexed": false,
          "internalType": "uint256",
          "name": "_ruling",
          "type": "uint256"
        }
      ],
      "name": "Ruling",
      "type": "event"
    },
    {
      "inputs": [],
      "name": "arbitrator",
      "outputs": [
        {
          "internalType": "contract IArbitratorV2",
          "name": "",
          "type": "address"
        }
      ],
      "stateMutability": "view",
      "type": "function"
    },
    {
      "inputs": [],
      "name": "arbitratorExtraData",
      "outputs": [
        {
          "internalType": "bytes",
          "name": "",
          "type": "bytes"
        }
      ],
      "stateMutability": "view",
      "type": "function"
    },
    {
      "inputs": [
        {
          "internalType": "contract IArbitratorV2",
          "name": "_arbitrator",
          "type": "address"
        }
      ],
      "name": "changeArbitrator",
      "outputs": [],
      "stateMutability": "nonpayable",
      "type": "function"
    },
    {
      "inputs": [
        {
          "internalType": "bytes",
          "name": "_arbitratorExtraData",
          "type": "bytes"
        }
      ],
      "name": "changeArbitratorExtraData",
      "outputs": [],
      "stateMutability": "nonpayable",
      "type": "function"
    },
    {
      "inputs": [
        {
          "internalType": "string",
          "name": "_action",
          "type": "string"
        },
        {
          "internalType": "uint256",
          "name": "_feeInWeth",
          "type": "uint256"
        }
      ],
      "name": "createDispute",
      "outputs": [
        {
          "internalType": "uint256",
          "name": "disputeID",
          "type": "uint256"
        }
      ],
      "stateMutability": "nonpayable",
      "type": "function"
    },
    {
      "inputs": [
        {
          "internalType": "string",
          "name": "_action",
          "type": "string"
        }
      ],
      "name": "createDispute",
      "outputs": [
        {
          "internalType": "uint256",
          "name": "disputeID",
          "type": "uint256"
        }
      ],
      "stateMutability": "payable",
      "type": "function"
    },
    {
      "inputs": [
        {
          "internalType": "uint256",
          "name": "",
          "type": "uint256"
        }
      ],
      "name": "disputes",
      "outputs": [
        {
          "internalType": "bool",
          "name": "isRuled",
          "type": "bool"
        },
        {
          "internalType": "uint256",
          "name": "ruling",
          "type": "uint256"
        },
        {
          "internalType": "uint256",
          "name": "numberOfRulingOptions",
          "type": "uint256"
        }
      ],
      "stateMutability": "view",
      "type": "function"
    },
    {
      "inputs": [
        {
          "internalType": "uint256",
          "name": "",
          "type": "uint256"
        }
      ],
      "name": "externalIDtoLocalID",
      "outputs": [
        {
          "internalType": "uint256",
          "name": "",
          "type": "uint256"
        }
      ],
      "stateMutability": "view",
      "type": "function"
    },
    {
      "inputs": [],
      "name": "governor",
      "outputs": [
        {
          "internalType": "address",
          "name": "",
          "type": "address"
        }
      ],
      "stateMutability": "view",
      "type": "function"
    },
    {
      "inputs": [
        {
          "internalType": "uint256",
          "name": "_externalDisputeID",
          "type": "uint256"
        },
        {
          "internalType": "uint256",
          "name": "_ruling",
          "type": "uint256"
        }
      ],
      "name": "rule",
      "outputs": [],
      "stateMutability": "nonpayable",
      "type": "function"
    },
    {
      "inputs": [
        {
          "internalType": "string",
          "name": "_templateTag",
          "type": "string"
        },
        {
          "internalType": "string",
          "name": "_templateData",
          "type": "string"
        },
        {
          "internalType": "string",
          "name": "_templateDataMappings",
          "type": "string"
        }
      ],
      "name": "setDisputeTemplate",
      "outputs": [
        {
          "internalType": "uint256",
          "name": "",
          "type": "uint256"
        }
      ],
      "stateMutability": "nonpayable",
      "type": "function"
    },
    {
      "inputs": [],
      "name": "templateId",
      "outputs": [
        {
          "internalType": "uint256",
          "name": "",
          "type": "uint256"
        }
      ],
      "stateMutability": "view",
      "type": "function"
    },
    {
      "inputs": [],
      "name": "weth",
      "outputs": [
        {
          "internalType": "contract IERC20",
          "name": "",
          "type": "address"
        }
      ],
      "stateMutability": "view",
      "type": "function"
    }
  ],
  "transactionHash": "0xbb152314f171c8c18471a781354c55f8c20f407e3a84941915e67f9dc49e3ac1",
  "args": [
    "0x7932fb9ccF576D02270B9A12E5718b3a9C760843",
    {
      "$schema": "../NewDisputeTemplate.schema.json",
      "title": "Let's do this",
      "description": "We want to do this: %s",
      "question": "Does it comply with the policy?",
      "answers": [
        {
          "title": "Yes",
          "description": "Select this if you agree that it must be done."
        },
        {
          "title": "No",
          "description": "Select this if you do not agree that it must be done."
        }
      ],
      "policyURI": "/ipfs/Qmdvk...rSD6cE/policy.pdf",
      "frontendUrl": "https://kleros-v2.netlify.app/#/cases/%s/overview",
      "arbitratorChainID": "421614",
      "arbitratorAddress": "0xD08Ab99480d02bf9C092828043f611BcDFEA917b",
      "category": "Others",
      "specification": "KIP001",
      "lang": "en_US"
    },
    "disputeTemplateMapping: TODO",
    "0x00000000000000000000000000000000000000000000000000000000000000010000000000000000000000000000000000000000000000000000000000000003",
    "0x0000000000000000000000000000000000000000"
  ],
  "numDeployments": 1,
  "solcInputHash": "1be9897ce71baf97383d6f7882968cfe",
  "bytecode": "0x60c06040523480156200001157600080fd5b50604051620018c0380380620018c083398101604081905262000034916200025f565b33608052600080546001600160a01b0319166001600160a01b0387161790556002620000618382620003bd565b50806001600160a01b031660a0816001600160a01b031681525050846001600160a01b0316631aa3a0086040518163ffffffff1660e01b8152600401600060405180830381600087803b158015620000b857600080fd5b505af1158015620000cd573d6000803e3d6000fd5b5050600180547fc5d2460186f7233c927e7db2dcc703c0e500b653ca82273b7bfad8045d85a4709350909150600090620001079062000489565b9190508190557ef7cd7255d1073b4e136dd477c38ea0020c051ab17110cc5bfab0c840ff992486866040516200013f929190620004df565b60405180910390a3505050505062000511565b6001600160a01b03811681146200016857600080fd5b50565b634e487b7160e01b600052604160045260246000fd5b60005b838110156200019e57818101518382015260200162000184565b50506000910152565b60006001600160401b0380841115620001c457620001c46200016b565b604051601f8501601f19908116603f01168101908282118183101715620001ef57620001ef6200016b565b816040528093508581528686860111156200020957600080fd5b6200021986602083018762000181565b5050509392505050565b600082601f8301126200023557600080fd5b6200024683835160208501620001a7565b9392505050565b80516200025a8162000152565b919050565b600080600080600060a086880312156200027857600080fd5b8551620002858162000152565b60208701519095506001600160401b0380821115620002a357600080fd5b620002b189838a0162000223565b95506040880151915080821115620002c857600080fd5b620002d689838a0162000223565b94506060880151915080821115620002ed57600080fd5b508601601f810188136200030057600080fd5b6200031188825160208401620001a7565b92505062000322608087016200024d565b90509295509295909350565b600181811c908216806200034357607f821691505b6020821081036200036457634e487b7160e01b600052602260045260246000fd5b50919050565b601f821115620003b857600081815260208120601f850160051c81016020861015620003935750805b601f850160051c820191505b81811015620003b4578281556001016200039f565b5050505b505050565b81516001600160401b03811115620003d957620003d96200016b565b620003f181620003ea84546200032e565b846200036a565b602080601f831160018114620004295760008415620004105750858301515b600019600386901b1c1916600185901b178555620003b4565b600085815260208120601f198616915b828110156200045a5788860151825594840194600190910190840162000439565b5085821015620004795787850151600019600388901b60f8161c191681555b5050505050600190811b01905550565b600060018201620004aa57634e487b7160e01b600052601160045260246000fd5b5060010190565b60008151808452620004cb81602086016020860162000181565b601f01601f19169290920160200192915050565b604081526000620004f46040830185620004b1565b8281036020840152620005088185620004b1565b95945050505050565b60805160a0516113756200054b6000396000818161017e015281816106bd0152818161073c01526107da0152600060c901526113756000f3fe6080604052600436106100b25760003560e01c8063564a565d1161006f578063564a565d146101ce578063654692871461020b578063681759961461022b5780636cc6cde11461023e5780637aa77f291461025e578063c21ae06114610274578063fc548f08146102a157600080fd5b80630c340a24146100b75780630c7ac7b614610108578063311a6c561461012a57806334e2672d1461014c5780633fc8cef31461016c5780634a994174146101a0575b600080fd5b3480156100c357600080fd5b506100eb7f000000000000000000000000000000000000000000000000000000000000000081565b6040516001600160a01b0390911681526020015b60405180910390f35b34801561011457600080fd5b5061011d6102c1565b6040516100ff9190610d79565b34801561013657600080fd5b5061014a610145366004610d93565b61034f565b005b34801561015857600080fd5b5061014a610167366004610dfe565b6104e8565b34801561017857600080fd5b506100eb7f000000000000000000000000000000000000000000000000000000000000000081565b3480156101ac57600080fd5b506101c06101bb366004610ee3565b610519565b6040519081526020016100ff565b3480156101da57600080fd5b506101ee6101e9366004610f6b565b610589565b6040805193151584526020840192909252908201526060016100ff565b34801561021757600080fd5b506101c0610226366004610f84565b6105c0565b6101c0610239366004610dfe565b6108f4565b34801561024a57600080fd5b506000546100eb906001600160a01b031681565b34801561026a57600080fd5b506101c060015481565b34801561028057600080fd5b506101c061028f366004610f6b565b60036020526000908152604090205481565b3480156102ad57600080fd5b5061014a6102bc366004610fd0565b610b08565b600280546102ce90610ff9565b80601f01602080910402602001604051908101604052809291908181526020018280546102fa90610ff9565b80156103475780601f1061031c57610100808354040283529160200191610347565b820191906000526020600020905b81548152906001019060200180831161032a57829003601f168201915b505050505081565b600082815260036020526040812054600480549192918390811061037557610375611033565b600091825260208220915460039190910290910191506001600160a01b031633146103f55760405162461bcd60e51b815260206004820152602560248201527f4f6e6c79207468652061726269747261746f722063616e2065786563757465206044820152643a3434b99760d91b60648201526084015b60405180910390fd5b806002015483111561043b5760405162461bcd60e51b815260206004820152600f60248201526e24b73b30b634b210393ab634b7339760891b60448201526064016103ec565b805460ff16156104995760405162461bcd60e51b8152602060048201526024808201527f54686973206469737075746520686173206265656e2072756c656420616c726560448201526330b23c9760e11b60648201526084016103ec565b805460ff1916600190811782558101839055604051838152849033907f394027a5fa6e098a1191094d1719d6929b9abc535fcc0c8f448d6a4e756222769060200160405180910390a350505050565b3033146105075760405162461bcd60e51b81526004016103ec90611049565b60026105148284836110ce565b505050565b600083604051610529919061118f565b6040518091039020600160008154610540906111c1565b9190508190557ef7cd7255d1073b4e136dd477c38ea0020c051ab17110cc5bfab0c840ff992485856040516105769291906111da565b60405180910390a3506001549392505050565b6004818154811061059957600080fd5b600091825260209091206003909102018054600182015460029092015460ff909116925083565b600083836040516105d2929190611208565b604051908190038120907f8b2c14fe955d044ef95ba32b88d2ceb87c6f73fcefdcebe906063a6d75690f2790600090a2600480546040805160608101825260008082526020820181815260029383018481526001860187559590915290517f8a35acfbc15ff81a39ae7d344fd709f28e8600b4aa8c65c6b64bfe7fe36bd19b60038502908101805460ff19169215159290921790915590517f8a35acfbc15ff81a39ae7d344fd709f28e8600b4aa8c65c6b64bfe7fe36bd19c82015592517f8a35acfbc15ff81a39ae7d344fd709f28e8600b4aa8c65c6b64bfe7fe36bd19d909301929092556106ed7f00000000000000000000000000000000000000000000000000000000000000006001600160a01b0316333087610b49565b61072b5760405162461bcd60e51b815260206004820152600f60248201526e151c985b9cd9995c8819985a5b1959608a1b60448201526064016103ec565b600054610765906001600160a01b037f00000000000000000000000000000000000000000000000000000000000000008116911686610c25565b6107ad5760405162461bcd60e51b8152602060048201526019602482015278105b1b1bddd85b98d9481a5b98dc99585cd94819985a5b1959603a1b60448201526064016103ec565b600054604051633d941b6d60e21b81526001600160a01b039091169063f6506db4906108049085906002907f0000000000000000000000000000000000000000000000000000000000000000908a90600401611295565b6020604051808303816000875af1158015610823573d6000803e3d6000fd5b505050506040513d601f19601f8201168201806040525081019061084791906112ca565b600081815260036020908152604080832085905551929550909161086f918991899101611208565b60408051601f1981840301815290829052805160209091012060005460015491935086926001600160a01b03909116917f8bd32f430ff060e6bd204709b3790c9807987263d3230c580dc80b5f89e27186916108e291868252602082015260606040820181905260009082015260800190565b60405180910390a35050509392505050565b60008282604051610906929190611208565b604051908190038120907f8b2c14fe955d044ef95ba32b88d2ceb87c6f73fcefdcebe906063a6d75690f2790600090a26004805460408051606081018252600080825260208201818152600283850181815260018701885587845293517f8a35acfbc15ff81a39ae7d344fd709f28e8600b4aa8c65c6b64bfe7fe36bd19b60038802908101805460ff19169215159290921790915591517f8a35acfbc15ff81a39ae7d344fd709f28e8600b4aa8c65c6b64bfe7fe36bd19c83015592517f8a35acfbc15ff81a39ae7d344fd709f28e8600b4aa8c65c6b64bfe7fe36bd19d9091015554915163c13517e160e01b815290936001600160a01b039092169163c13517e1913491610a199187918291016112e3565b60206040518083038185885af1158015610a37573d6000803e3d6000fd5b50505050506040513d601f19601f82011682018060405250810190610a5c91906112ca565b6000818152600360209081526040808320859055519295509091610a84918891889101611208565b60408051601f1981840301815290829052805160209091012060005460015491935086926001600160a01b03909116917f8bd32f430ff060e6bd204709b3790c9807987263d3230c580dc80b5f89e2718691610af791868252602082015260606040820181905260009082015260800190565b60405180910390a350505092915050565b303314610b275760405162461bcd60e51b81526004016103ec90611049565b600080546001600160a01b0319166001600160a01b0392909216919091179055565b6040516001600160a01b038481166024830152838116604483015260648201839052600091829182919088169060840160408051601f198184030181529181526020820180516001600160e01b03166323b872dd60e01b17905251610bae919061118f565b6000604051808303816000865af19150503d8060008114610beb576040519150601f19603f3d011682016040523d82523d6000602084013e610bf0565b606091505b5091509150818015610c1a575080511580610c1a575080806020019051810190610c1a9190611304565b979650505050505050565b604051636eb1769f60e11b81523060048201526001600160a01b0383811660248301526000919085169063095ea7b39085908590849063dd62ed3e90604401602060405180830381865afa158015610c81573d6000803e3d6000fd5b505050506040513d601f19601f82011682018060405250810190610ca591906112ca565b610caf9190611326565b6040516001600160e01b031960e085901b1681526001600160a01b03909216600483015260248201526044016020604051808303816000875af1158015610cfa573d6000803e3d6000fd5b505050506040513d601f19601f82011682018060405250810190610d1e9190611304565b506001949350505050565b60005b83811015610d44578181015183820152602001610d2c565b50506000910152565b60008151808452610d65816020860160208601610d29565b601f01601f19169290920160200192915050565b602081526000610d8c6020830184610d4d565b9392505050565b60008060408385031215610da657600080fd5b50508035926020909101359150565b60008083601f840112610dc757600080fd5b50813567ffffffffffffffff811115610ddf57600080fd5b602083019150836020828501011115610df757600080fd5b9250929050565b60008060208385031215610e1157600080fd5b823567ffffffffffffffff811115610e2857600080fd5b610e3485828601610db5565b90969095509350505050565b634e487b7160e01b600052604160045260246000fd5b600082601f830112610e6757600080fd5b813567ffffffffffffffff80821115610e8257610e82610e40565b604051601f8301601f19908116603f01168101908282118183101715610eaa57610eaa610e40565b81604052838152866020858801011115610ec357600080fd5b836020870160208301376000602085830101528094505050505092915050565b600080600060608486031215610ef857600080fd5b833567ffffffffffffffff80821115610f1057600080fd5b610f1c87838801610e56565b94506020860135915080821115610f3257600080fd5b610f3e87838801610e56565b93506040860135915080821115610f5457600080fd5b50610f6186828701610e56565b9150509250925092565b600060208284031215610f7d57600080fd5b5035919050565b600080600060408486031215610f9957600080fd5b833567ffffffffffffffff811115610fb057600080fd5b610fbc86828701610db5565b909790965060209590950135949350505050565b600060208284031215610fe257600080fd5b81356001600160a01b0381168114610d8c57600080fd5b600181811c9082168061100d57607f821691505b60208210810361102d57634e487b7160e01b600052602260045260246000fd5b50919050565b634e487b7160e01b600052603260045260246000fd5b6020808252601a908201527f4f6e6c792074686520676f7665726e6f7220616c6c6f7765642e000000000000604082015260600190565b601f82111561051457600081815260208120601f850160051c810160208610156110a75750805b601f850160051c820191505b818110156110c6578281556001016110b3565b505050505050565b67ffffffffffffffff8311156110e6576110e6610e40565b6110fa836110f48354610ff9565b83611080565b6000601f84116001811461112e57600085156111165750838201355b600019600387901b1c1916600186901b178355611188565b600083815260209020601f19861690835b8281101561115f578685013582556020948501946001909201910161113f565b508682101561117c5760001960f88860031b161c19848701351681555b505060018560011b0183555b5050505050565b600082516111a1818460208701610d29565b9190910192915050565b634e487b7160e01b600052601160045260246000fd5b6000600182016111d3576111d36111ab565b5060010190565b6040815260006111ed6040830185610d4d565b82810360208401526111ff8185610d4d565b95945050505050565b8183823760009101908152919050565b6000815461122581610ff9565b808552602060018381168015611242576001811461125c5761128a565b60ff1985168884015283151560051b88018301955061128a565b866000528260002060005b858110156112825781548a8201860152908301908401611267565b890184019650505b505050505092915050565b8481526080602082015260006112ae6080830186611218565b6001600160a01b03949094166040830152506060015292915050565b6000602082840312156112dc57600080fd5b5051919050565b8281526040602082015260006112fc6040830184611218565b949350505050565b60006020828403121561131657600080fd5b81518015158114610d8c57600080fd5b80820180821115611339576113396111ab565b9291505056fea26469706673582212202634a84160081ca717c4c97ddca2eb4bc066c2419edb7a90d7ddc3119b18fda164736f6c63430008120033",
  "devdoc": {
    "events": {
      "DisputeRequest(address,uint256,uint256,uint256,string)": {
        "details": "To be emitted when a dispute is created to link the correct meta-evidence to the disputeID.",
        "params": {
          "_arbitrableDisputeID": "The identifier of the dispute in the Arbitrable contract.",
          "_arbitrator": "The arbitrator of the contract.",
          "_externalDisputeID": "An identifier created outside Kleros by the protocol requesting arbitration.",
          "_templateId": "The identifier of the dispute template. Should not be used with _templateUri.",
          "_templateUri": "The URI to the dispute template. For example on IPFS: starting with '/ipfs/'. Should not be used with _templateId."
        }
      },
      "DisputeTemplate(uint256,string,string,string)": {
        "details": "To be emitted when a new dispute template is created.",
        "params": {
          "_templateData": "The template data.",
          "_templateDataMappings": "The data mappings.",
          "_templateId": "The identifier of the dispute template.",
          "_templateTag": "An optional tag for the dispute template, such as \"registration\" or \"removal\"."
        }
      },
      "Ruling(address,uint256,uint256)": {
        "details": "To be raised when a ruling is given.",
        "params": {
          "_arbitrator": "The arbitrator giving the ruling.",
          "_disputeID": "The identifier of the dispute in the Arbitrator contract.",
          "_ruling": "The ruling which was given."
        }
      }
    },
    "kind": "dev",
    "methods": {
      "constructor": {
        "details": "Constructor",
        "params": {
          "_arbitrator": "The arbitrator to rule on created disputes.",
          "_arbitratorExtraData": "The extra data for the arbitrator.",
          "_templateData": "The dispute template data.",
          "_templateDataMappings": "The dispute template data mappings.",
          "_weth": "The WETH token."
        }
      },
      "createDispute(string)": {
        "details": "Calls createDispute function of the specified arbitrator to create a dispute. Note that we dont need to check that msg.value is enough to pay arbitration fees as its the responsibility of the arbitrator contract.",
        "params": {
          "_action": "The action that requires arbitration."
        },
        "returns": {
          "disputeID": "Dispute id (on arbitrator side) of the dispute created."
        }
      },
      "createDispute(string,uint256)": {
        "details": "Calls createDispute function of the specified arbitrator to create a dispute. Note that we dont need to check that msg.value is enough to pay arbitration fees as its the responsibility of the arbitrator contract.",
        "params": {
          "_action": "The action that requires arbitration.",
          "_feeInWeth": "Amount of fees in WETH for the arbitrator."
        },
        "returns": {
          "disputeID": "Dispute id (on arbitrator side) of the dispute created."
        }
      },
      "rule(uint256,uint256)": {
        "details": "To be called by the arbitrator of the dispute, to declare the winning ruling.",
        "params": {
          "_externalDisputeID": "ID of the dispute in arbitrator contract.",
          "_ruling": "The ruling choice of the arbitration."
        }
      },
      "setDisputeTemplate(string,string,string)": {
        "details": "Registers a new dispute template.",
        "params": {
          "_templateData": "The data of the template.",
          "_templateDataMappings": "The data mappings of the template.",
          "_templateTag": "The tag of the template (optional)."
        }
      }
    },
    "title": "ArbitrableExample An example of an arbitrable contract which connects to the arbitator that implements the updated interface.",
    "version": 1
  },
  "userdoc": {
    "kind": "user",
    "methods": {},
    "version": 1
  },
  "storageLayout": {
    "storage": [
      {
        "astId": 9993,
        "contract": "src/arbitration/arbitrables/ArbitrableDummy.sol:ArbitrableDummy",
        "label": "arbitrator",
        "offset": 0,
        "slot": "0",
        "type": "t_contract(IArbitratorV2)16723"
      },
      {
        "astId": 9995,
        "contract": "src/arbitration/arbitrables/ArbitrableDummy.sol:ArbitrableDummy",
        "label": "templateId",
        "offset": 0,
        "slot": "1",
        "type": "t_uint256"
      },
      {
        "astId": 9997,
        "contract": "src/arbitration/arbitrables/ArbitrableDummy.sol:ArbitrableDummy",
        "label": "arbitratorExtraData",
        "offset": 0,
        "slot": "2",
        "type": "t_bytes_storage"
      },
      {
        "astId": 10004,
        "contract": "src/arbitration/arbitrables/ArbitrableDummy.sol:ArbitrableDummy",
        "label": "externalIDtoLocalID",
        "offset": 0,
        "slot": "3",
        "type": "t_mapping(t_uint256,t_uint256)"
      },
      {
        "astId": 10008,
        "contract": "src/arbitration/arbitrables/ArbitrableDummy.sol:ArbitrableDummy",
        "label": "disputes",
        "offset": 0,
        "slot": "4",
        "type": "t_array(t_struct(DisputeStruct)9984_storage)dyn_storage"
      }
    ],
    "types": {
      "t_array(t_struct(DisputeStruct)9984_storage)dyn_storage": {
        "base": "t_struct(DisputeStruct)9984_storage",
        "encoding": "dynamic_array",
        "label": "struct ArbitrableDummy.DisputeStruct[]",
        "numberOfBytes": "32"
      },
      "t_bool": {
        "encoding": "inplace",
        "label": "bool",
        "numberOfBytes": "1"
      },
      "t_bytes_storage": {
        "encoding": "bytes",
        "label": "bytes",
        "numberOfBytes": "32"
      },
      "t_contract(IArbitratorV2)16723": {
        "encoding": "inplace",
        "label": "contract IArbitratorV2",
        "numberOfBytes": "20"
      },
      "t_mapping(t_uint256,t_uint256)": {
        "encoding": "mapping",
        "key": "t_uint256",
        "label": "mapping(uint256 => uint256)",
        "numberOfBytes": "32",
        "value": "t_uint256"
      },
      "t_struct(DisputeStruct)9984_storage": {
        "encoding": "inplace",
        "label": "struct ArbitrableDummy.DisputeStruct",
        "members": [
          {
            "astId": 9979,
            "contract": "src/arbitration/arbitrables/ArbitrableDummy.sol:ArbitrableDummy",
            "label": "isRuled",
            "offset": 0,
            "slot": "0",
            "type": "t_bool"
          },
          {
            "astId": 9981,
            "contract": "src/arbitration/arbitrables/ArbitrableDummy.sol:ArbitrableDummy",
            "label": "ruling",
            "offset": 0,
            "slot": "1",
            "type": "t_uint256"
          },
          {
            "astId": 9983,
            "contract": "src/arbitration/arbitrables/ArbitrableDummy.sol:ArbitrableDummy",
            "label": "numberOfRulingOptions",
            "offset": 0,
            "slot": "2",
            "type": "t_uint256"
          }
        ],
        "numberOfBytes": "96"
      },
      "t_uint256": {
        "encoding": "inplace",
        "label": "uint256",
        "numberOfBytes": "32"
      }
    }
  }
}