{
  "address": "0x3Eae72F076c68F5c354C73abC33EAA291ef1b2Fa",
  "abi": [
    {
      "inputs": [
        {
          "internalType": "contract IArbitratorV2",
          "name": "_arbitrator",
          "type": "address"
        },
        {
          "internalType": "string",
          "name": "_templateData",
          "type": "string"
        },
        {
          "internalType": "string",
          "name": "_templateDataMappings",
          "type": "string"
        },
        {
          "internalType": "bytes",
          "name": "_arbitratorExtraData",
          "type": "bytes"
        },
        {
          "internalType": "contract IDisputeTemplateRegistry",
          "name": "_templateRegistry",
          "type": "address"
        },
        {
          "internalType": "contract IERC20",
          "name": "_weth",
          "type": "address"
        }
      ],
      "stateMutability": "nonpayable",
      "type": "constructor"
    },
    {
      "anonymous": false,
      "inputs": [
        {
          "indexed": true,
          "internalType": "string",
          "name": "_action",
          "type": "string"
        }
      ],
      "name": "Action",
      "type": "event"
    },
    {
      "anonymous": false,
      "inputs": [
        {
          "indexed": true,
          "internalType": "contract IArbitratorV2",
          "name": "_arbitrator",
          "type": "address"
        },
        {
          "indexed": true,
          "internalType": "uint256",
          "name": "_arbitratorDisputeID",
          "type": "uint256"
        },
        {
          "indexed": false,
          "internalType": "uint256",
          "name": "_externalDisputeID",
          "type": "uint256"
        },
        {
          "indexed": false,
          "internalType": "uint256",
          "name": "_templateId",
          "type": "uint256"
        },
        {
          "indexed": false,
          "internalType": "string",
          "name": "_templateUri",
          "type": "string"
        }
      ],
      "name": "DisputeRequest",
      "type": "event"
    },
    {
      "anonymous": false,
      "inputs": [
        {
          "indexed": true,
          "internalType": "contract IArbitratorV2",
          "name": "_arbitrator",
          "type": "address"
        },
        {
          "indexed": true,
          "internalType": "uint256",
          "name": "_disputeID",
          "type": "uint256"
        },
        {
          "indexed": false,
          "internalType": "uint256",
          "name": "_ruling",
          "type": "uint256"
        }
      ],
      "name": "Ruling",
      "type": "event"
    },
    {
      "inputs": [],
      "name": "arbitrator",
      "outputs": [
        {
          "internalType": "contract IArbitratorV2",
          "name": "",
          "type": "address"
        }
      ],
      "stateMutability": "view",
      "type": "function"
    },
    {
      "inputs": [],
      "name": "arbitratorExtraData",
      "outputs": [
        {
          "internalType": "bytes",
          "name": "",
          "type": "bytes"
        }
      ],
      "stateMutability": "view",
      "type": "function"
    },
    {
      "inputs": [
        {
          "internalType": "contract IArbitratorV2",
          "name": "_arbitrator",
          "type": "address"
        }
      ],
      "name": "changeArbitrator",
      "outputs": [],
      "stateMutability": "nonpayable",
      "type": "function"
    },
    {
      "inputs": [
        {
          "internalType": "bytes",
          "name": "_arbitratorExtraData",
          "type": "bytes"
        }
      ],
      "name": "changeArbitratorExtraData",
      "outputs": [],
      "stateMutability": "nonpayable",
      "type": "function"
    },
    {
      "inputs": [
        {
          "internalType": "string",
          "name": "_templateData",
          "type": "string"
        },
        {
          "internalType": "string",
          "name": "_templateDataMappings",
          "type": "string"
        }
      ],
      "name": "changeDisputeTemplate",
      "outputs": [],
      "stateMutability": "nonpayable",
      "type": "function"
    },
    {
      "inputs": [
        {
          "internalType": "contract IDisputeTemplateRegistry",
          "name": "_templateRegistry",
          "type": "address"
        }
      ],
      "name": "changeTemplateRegistry",
      "outputs": [],
      "stateMutability": "nonpayable",
      "type": "function"
    },
    {
      "inputs": [
        {
          "internalType": "string",
          "name": "_action",
          "type": "string"
        },
        {
          "internalType": "uint256",
          "name": "_feeInWeth",
          "type": "uint256"
        }
      ],
      "name": "createDispute",
      "outputs": [
        {
          "internalType": "uint256",
          "name": "disputeID",
          "type": "uint256"
        }
      ],
      "stateMutability": "nonpayable",
      "type": "function"
    },
    {
      "inputs": [
        {
          "internalType": "string",
          "name": "_action",
          "type": "string"
        }
      ],
      "name": "createDispute",
      "outputs": [
        {
          "internalType": "uint256",
          "name": "disputeID",
          "type": "uint256"
        }
      ],
      "stateMutability": "payable",
      "type": "function"
    },
    {
      "inputs": [
        {
          "internalType": "uint256",
          "name": "",
          "type": "uint256"
        }
      ],
      "name": "disputes",
      "outputs": [
        {
          "internalType": "bool",
          "name": "isRuled",
          "type": "bool"
        },
        {
          "internalType": "uint256",
          "name": "ruling",
          "type": "uint256"
        },
        {
          "internalType": "uint256",
          "name": "numberOfRulingOptions",
          "type": "uint256"
        }
      ],
      "stateMutability": "view",
      "type": "function"
    },
    {
      "inputs": [
        {
          "internalType": "uint256",
          "name": "",
          "type": "uint256"
        }
      ],
      "name": "externalIDtoLocalID",
      "outputs": [
        {
          "internalType": "uint256",
          "name": "",
          "type": "uint256"
        }
      ],
      "stateMutability": "view",
      "type": "function"
    },
    {
      "inputs": [],
      "name": "governor",
      "outputs": [
        {
          "internalType": "address",
          "name": "",
          "type": "address"
        }
      ],
      "stateMutability": "view",
      "type": "function"
    },
    {
      "inputs": [
        {
          "internalType": "uint256",
          "name": "_arbitratorDisputeID",
          "type": "uint256"
        },
        {
          "internalType": "uint256",
          "name": "_ruling",
          "type": "uint256"
        }
      ],
      "name": "rule",
      "outputs": [],
      "stateMutability": "nonpayable",
      "type": "function"
    },
    {
      "inputs": [],
      "name": "templateId",
      "outputs": [
        {
          "internalType": "uint256",
          "name": "",
          "type": "uint256"
        }
      ],
      "stateMutability": "view",
      "type": "function"
    },
    {
      "inputs": [],
      "name": "templateRegistry",
      "outputs": [
        {
          "internalType": "contract IDisputeTemplateRegistry",
          "name": "",
          "type": "address"
        }
      ],
      "stateMutability": "view",
      "type": "function"
    },
    {
      "inputs": [],
      "name": "weth",
      "outputs": [
        {
          "internalType": "contract IERC20",
          "name": "",
          "type": "address"
        }
      ],
      "stateMutability": "view",
      "type": "function"
    }
  ],
  "transactionHash": "0x4e122e3a0f9a4ca635e2df3c2f948c4a7862505bb8a10e1580d0da26f6539ee7",
  "args": [
    "0xA54e7A16d7460e38a8F324eF46782FB520d58CE8",
    {
      "$schema": "../NewDisputeTemplate.schema.json",
      "title": "Let's do this",
      "description": "We want to do this: %s",
      "question": "Does it comply with the policy?",
      "answers": [
        {
          "title": "Yes",
          "description": "Select this if you agree that it must be done."
        },
        {
          "title": "No",
          "description": "Select this if you do not agree that it must be done."
        }
      ],
      "policyURI": "/ipfs/Qmdvk...rSD6cE/policy.pdf",
      "frontendUrl": "https://kleros-v2.netlify.app/#/cases/%s/overview",
      "arbitratorChainID": "421614",
      "arbitratorAddress": "0xD08Ab99480d02bf9C092828043f611BcDFEA917b",
      "category": "Others",
      "specification": "KIP001",
      "lang": "en_US"
    },
    "disputeTemplateMapping: TODO",
    "0x00000000000000000000000000000000000000000000000000000000000000010000000000000000000000000000000000000000000000000000000000000003",
    "0x596D3B09E684D62217682216e9b7a0De75933391",
    "0x3829A2486d53ee984a0ca2D76552715726b77138"
  ],
  "numDeployments": 2,
  "solcInputHash": "e0f719371c25ee6b430d9b7926bcf1db",
  "bytecode": "0x60c060405234801562000010575f80fd5b506040516200187c3803806200187c833981016040819052620000339162000201565b336080525f80546001600160a01b0319166001600160a01b03881617905560036200005f848262000363565b50600180546001600160a01b0319166001600160a01b0384811691821790925590821660a0526040516312a6505d60e21b8152634a99417490620000aa90889088906004016200045c565b6020604051808303815f875af1158015620000c7573d5f803e3d5ffd5b505050506040513d601f19601f82011682018060405250810190620000ed91906200049a565b60025550620004b2945050505050565b6001600160a01b038116811462000112575f80fd5b50565b634e487b7160e01b5f52604160045260245ffd5b5f5b83811015620001455781810151838201526020016200012b565b50505f910152565b5f6001600160401b038084111562000169576200016962000115565b604051601f8501601f19908116603f0116810190828211818310171562000194576200019462000115565b81604052809350858152868686011115620001ad575f80fd5b620001bd86602083018762000129565b5050509392505050565b5f82601f830112620001d7575f80fd5b620001e8838351602085016200014d565b9392505050565b8051620001fc81620000fd565b919050565b5f805f805f8060c0878903121562000217575f80fd5b86516200022481620000fd565b60208801519096506001600160401b038082111562000241575f80fd5b6200024f8a838b01620001c7565b9650604089015191508082111562000265575f80fd5b620002738a838b01620001c7565b9550606089015191508082111562000289575f80fd5b508701601f810189136200029b575f80fd5b620002ac898251602084016200014d565b935050620002bd60808801620001ef565b9150620002cd60a08801620001ef565b90509295509295509295565b600181811c90821680620002ee57607f821691505b6020821081036200030d57634e487b7160e01b5f52602260045260245ffd5b50919050565b601f8211156200035e57805f5260205f20601f840160051c810160208510156200033a5750805b601f840160051c820191505b818110156200035b575f815560010162000346565b50505b505050565b81516001600160401b038111156200037f576200037f62000115565b6200039781620003908454620002d9565b8462000313565b602080601f831160018114620003cd575f8415620003b55750858301515b5f19600386901b1c1916600185901b17855562000427565b5f85815260208120601f198616915b82811015620003fd57888601518255948401946001909101908401620003dc565b50858210156200041b57878501515f19600388901b60f8161c191681555b505060018460011b0185555b505050505050565b5f81518084526200044881602086016020860162000129565b601f01601f19169290920160200192915050565b606081525f6060820152608060208201525f6200047d60808301856200042f565b82810360408401526200049181856200042f565b95945050505050565b5f60208284031215620004ab575f80fd5b5051919050565b60805160a051611394620004e85f395f818161018c015281816106c80152818161074601526107e301525f60db01526113945ff3fe6080604052600436106100c6575f3560e01c80636546928711610078578063654692871461020957806368175996146102365780636cc6cde1146102495780637aa77f2914610267578063a0af81f01461027c578063c21ae0611461029b578063c5d55288146102c6578063fc548f08146102e5575f80fd5b80630c340a24146100ca5780630c7ac7b61461011a578063311a6c561461013b57806334e2672d1461015c5780633fc8cef31461017b5780634660ebbe146101ae578063564a565d146101cd575b5f80fd5b3480156100d5575f80fd5b506100fd7f000000000000000000000000000000000000000000000000000000000000000081565b6040516001600160a01b0390911681526020015b60405180910390f35b348015610125575f80fd5b5061012e610304565b6040516101119190610dff565b348015610146575f80fd5b5061015a610155366004610e18565b610390565b005b348015610167575f80fd5b5061015a610176366004610e7d565b610527565b348015610186575f80fd5b506100fd7f000000000000000000000000000000000000000000000000000000000000000081565b3480156101b9575f80fd5b5061015a6101c8366004610ed3565b610558565b3480156101d8575f80fd5b506101ec6101e7366004610eee565b610599565b604080519315158452602084019290925290820152606001610111565b348015610214575f80fd5b50610228610223366004610f05565b6105ce565b604051908152602001610111565b610228610244366004610e7d565b6108f7565b348015610254575f80fd5b505f546100fd906001600160a01b031681565b348015610272575f80fd5b5061022860025481565b348015610287575f80fd5b506001546100fd906001600160a01b031681565b3480156102a6575f80fd5b506102286102b5366004610eee565b60046020525f908152604090205481565b3480156102d1575f80fd5b5061015a6102e0366004610fea565b610b05565b3480156102f0575f80fd5b5061015a6102ff366004610ed3565b610b9d565b600380546103119061104a565b80601f016020809104026020016040519081016040528092919081815260200182805461033d9061104a565b80156103885780601f1061035f57610100808354040283529160200191610388565b820191905f5260205f20905b81548152906001019060200180831161036b57829003601f168201915b505050505081565b5f8281526004602052604081205460058054919291839081106103b5576103b5611082565b5f91825260208220915460039190910290910191506001600160a01b031633146104345760405162461bcd60e51b815260206004820152602560248201527f4f6e6c79207468652061726269747261746f722063616e2065786563757465206044820152643a3434b99760d91b60648201526084015b60405180910390fd5b806002015483111561047a5760405162461bcd60e51b815260206004820152600f60248201526e24b73b30b634b210393ab634b7339760891b604482015260640161042b565b805460ff16156104d85760405162461bcd60e51b8152602060048201526024808201527f54686973206469737075746520686173206265656e2072756c656420616c726560448201526330b23c9760e11b606482015260840161042b565b805460ff1916600190811782558101839055604051838152849033907f394027a5fa6e098a1191094d1719d6929b9abc535fcc0c8f448d6a4e756222769060200160405180910390a350505050565b3033146105465760405162461bcd60e51b815260040161042b90611096565b6003610553828483611118565b505050565b3033146105775760405162461bcd60e51b815260040161042b90611096565b600180546001600160a01b0319166001600160a01b0392909216919091179055565b600581815481106105a8575f80fd5b5f91825260209091206003909102018054600182015460029092015460ff909116925083565b5f83836040516105df9291906111d2565b604051908190038120907f8b2c14fe955d044ef95ba32b88d2ceb87c6f73fcefdcebe906063a6d75690f27905f90a260058054604080516060810182525f8082526020820181815260029383018481526001860187559590915290517f036b6384b5eca791c62761152d0c79bb0604c104a5fb6f4eb0703f3154bb3db060038502908101805460ff19169215159290921790915590517f036b6384b5eca791c62761152d0c79bb0604c104a5fb6f4eb0703f3154bb3db182015592517f036b6384b5eca791c62761152d0c79bb0604c104a5fb6f4eb0703f3154bb3db2909301929092556106f87f00000000000000000000000000000000000000000000000000000000000000006001600160a01b0316333087610bdd565b6107365760405162461bcd60e51b815260206004820152600f60248201526e151c985b9cd9995c8819985a5b1959608a1b604482015260640161042b565b5f5461076f906001600160a01b037f00000000000000000000000000000000000000000000000000000000000000008116911686610cb4565b6107b75760405162461bcd60e51b8152602060048201526019602482015278105b1b1bddd85b98d9481a5b98dc99585cd94819985a5b1959603a1b604482015260640161042b565b5f54604051633d941b6d60e21b81526001600160a01b039091169063f6506db49061080d9085906003907f0000000000000000000000000000000000000000000000000000000000000000908a9060040161125a565b6020604051808303815f875af1158015610829573d5f803e3d5ffd5b505050506040513d601f19601f8201168201806040525081019061084d919061128e565b5f8181526004602090815260408083208590555192955090916108749189918991016111d2565b60408051601f198184030181529082905280516020909101205f5460025491935086926001600160a01b03909116917f8bd32f430ff060e6bd204709b3790c9807987263d3230c580dc80b5f89e27186916108e59186825260208201526060604082018190525f9082015260800190565b60405180910390a35050509392505050565b5f82826040516109089291906111d2565b604051908190038120907f8b2c14fe955d044ef95ba32b88d2ceb87c6f73fcefdcebe906063a6d75690f27905f90a260058054604080516060810182525f80825260208201818152600283850181815260018701885596835292517f036b6384b5eca791c62761152d0c79bb0604c104a5fb6f4eb0703f3154bb3db06003808802918201805460ff19169315159390931790925591517f036b6384b5eca791c62761152d0c79bb0604c104a5fb6f4eb0703f3154bb3db183015595517f036b6384b5eca791c62761152d0c79bb0604c104a5fb6f4eb0703f3154bb3db29091015554915163c13517e160e01b815290936001600160a01b039092169163c13517e1913491610a1b918791906004016112a5565b60206040518083038185885af1158015610a37573d5f803e3d5ffd5b50505050506040513d601f19601f82011682018060405250810190610a5c919061128e565b5f818152600460209081526040808320859055519295509091610a839188918891016111d2565b60408051601f198184030181529082905280516020909101205f5460025491935086926001600160a01b03909116917f8bd32f430ff060e6bd204709b3790c9807987263d3230c580dc80b5f89e2718691610af49186825260208201526060604082018190525f9082015260800190565b60405180910390a350505092915050565b303314610b245760405162461bcd60e51b815260040161042b90611096565b6001546040516312a6505d60e21b81526001600160a01b0390911690634a99417490610b5690859085906004016112c5565b6020604051808303815f875af1158015610b72573d5f803e3d5ffd5b505050506040513d601f19601f82011682018060405250810190610b96919061128e565b6002555050565b303314610bbc5760405162461bcd60e51b815260040161042b90611096565b5f80546001600160a01b0319166001600160a01b0392909216919091179055565b6040516001600160a01b0384811660248301528381166044830152606482018390525f91829182919088169060840160408051601f198184030181529181526020820180516001600160e01b03166323b872dd60e01b17905251610c4191906112ff565b5f604051808303815f865af19150503d805f8114610c7a576040519150601f19603f3d011682016040523d82523d5f602084013e610c7f565b606091505b5091509150818015610ca9575080511580610ca9575080806020019051810190610ca9919061131a565b979650505050505050565b604051636eb1769f60e11b81523060048201526001600160a01b0383811660248301525f919085169063095ea7b39085908590849063dd62ed3e90604401602060405180830381865afa158015610d0d573d5f803e3d5ffd5b505050506040513d601f19601f82011682018060405250810190610d31919061128e565b610d3b9190611339565b6040516001600160e01b031960e085901b1681526001600160a01b03909216600483015260248201526044016020604051808303815f875af1158015610d83573d5f803e3d5ffd5b505050506040513d601f19601f82011682018060405250810190610da7919061131a565b506001949350505050565b5f5b83811015610dcc578181015183820152602001610db4565b50505f910152565b5f8151808452610deb816020860160208601610db2565b601f01601f19169290920160200192915050565b602081525f610e116020830184610dd4565b9392505050565b5f8060408385031215610e29575f80fd5b50508035926020909101359150565b5f8083601f840112610e48575f80fd5b50813567ffffffffffffffff811115610e5f575f80fd5b602083019150836020828501011115610e76575f80fd5b9250929050565b5f8060208385031215610e8e575f80fd5b823567ffffffffffffffff811115610ea4575f80fd5b610eb085828601610e38565b90969095509350505050565b6001600160a01b0381168114610ed0575f80fd5b50565b5f60208284031215610ee3575f80fd5b8135610e1181610ebc565b5f60208284031215610efe575f80fd5b5035919050565b5f805f60408486031215610f17575f80fd5b833567ffffffffffffffff811115610f2d575f80fd5b610f3986828701610e38565b909790965060209590950135949350505050565b634e487b7160e01b5f52604160045260245ffd5b5f82601f830112610f70575f80fd5b813567ffffffffffffffff80821115610f8b57610f8b610f4d565b604051601f8301601f19908116603f01168101908282118183101715610fb357610fb3610f4d565b81604052838152866020858801011115610fcb575f80fd5b836020870160208301375f602085830101528094505050505092915050565b5f8060408385031215610ffb575f80fd5b823567ffffffffffffffff80821115611012575f80fd5b61101e86838701610f61565b93506020850135915080821115611033575f80fd5b5061104085828601610f61565b9150509250929050565b600181811c9082168061105e57607f821691505b60208210810361107c57634e487b7160e01b5f52602260045260245ffd5b50919050565b634e487b7160e01b5f52603260045260245ffd5b6020808252601a908201527f4f6e6c792074686520676f7665726e6f7220616c6c6f7765642e000000000000604082015260600190565b601f82111561055357805f5260205f20601f840160051c810160208510156110f25750805b601f840160051c820191505b81811015611111575f81556001016110fe565b5050505050565b67ffffffffffffffff83111561113057611130610f4d565b6111448361113e835461104a565b836110cd565b5f601f841160018114611175575f851561115e5750838201355b5f19600387901b1c1916600186901b178355611111565b5f83815260208120601f198716915b828110156111a45786850135825560209485019460019092019101611184565b50868210156111c0575f1960f88860031b161c19848701351681555b505060018560011b0183555050505050565b818382375f9101908152919050565b5f81546111ed8161104a565b80855260206001838116801561120a57600181146112245761124f565b60ff1985168884015283151560051b88018301955061124f565b865f52825f205f5b858110156112475781548a820186015290830190840161122c565b890184019650505b505050505092915050565b848152608060208201525f61127260808301866111e1565b6001600160a01b03949094166040830152506060015292915050565b5f6020828403121561129e575f80fd5b5051919050565b828152604060208201525f6112bd60408301846111e1565b949350505050565b606081525f6060820152608060208201525f6112e46080830185610dd4565b82810360408401526112f68185610dd4565b95945050505050565b5f8251611310818460208701610db2565b9190910192915050565b5f6020828403121561132a575f80fd5b81518015158114610e11575f80fd5b8082018082111561135857634e487b7160e01b5f52601160045260245ffd5b9291505056fea2646970667358221220f222b78e5c3ee0ac0a6e915f5623ac3b2bb5a32af4e429d10fddb066ab8aff3c64736f6c63430008180033",
  "devdoc": {
    "events": {
      "DisputeRequest(address,uint256,uint256,uint256,string)": {
        "details": "To be emitted when a dispute is created to link the correct meta-evidence to the disputeID.",
        "params": {
          "_arbitrator": "The arbitrator of the contract.",
          "_arbitratorDisputeID": "The identifier of the dispute in the Arbitrator contract.",
          "_externalDisputeID": "An identifier created outside Kleros by the protocol requesting arbitration.",
          "_templateId": "The identifier of the dispute template. Should not be used with _templateUri.",
          "_templateUri": "The URI to the dispute template. For example on IPFS: starting with '/ipfs/'. Should not be used with _templateId."
        }
      },
      "Ruling(address,uint256,uint256)": {
        "details": "To be raised when a ruling is given.",
        "params": {
          "_arbitrator": "The arbitrator giving the ruling.",
          "_disputeID": "The identifier of the dispute in the Arbitrator contract.",
          "_ruling": "The ruling which was given."
        }
      }
    },
    "kind": "dev",
    "methods": {
      "constructor": {
        "details": "Constructor",
        "params": {
          "_arbitrator": "The arbitrator to rule on created disputes.",
          "_arbitratorExtraData": "The extra data for the arbitrator.",
          "_templateData": "The dispute template data.",
          "_templateDataMappings": "The dispute template data mappings.",
          "_templateRegistry": "The dispute template registry.",
          "_weth": "The WETH token."
        }
      },
      "createDispute(string)": {
        "details": "Calls createDispute function of the specified arbitrator to create a dispute. Note that we dont need to check that msg.value is enough to pay arbitration fees as its the responsibility of the arbitrator contract.",
        "params": {
          "_action": "The action that requires arbitration."
        },
        "returns": {
          "disputeID": "Dispute id (on arbitrator side) of the dispute created."
        }
      },
      "createDispute(string,uint256)": {
        "details": "Calls createDispute function of the specified arbitrator to create a dispute. Note that we dont need to check that msg.value is enough to pay arbitration fees as its the responsibility of the arbitrator contract.",
        "params": {
          "_action": "The action that requires arbitration.",
          "_feeInWeth": "Amount of fees in WETH for the arbitrator."
        },
        "returns": {
          "disputeID": "Dispute id (on arbitrator side) of the dispute created."
        }
      },
      "rule(uint256,uint256)": {
        "details": "To be called by the arbitrator of the dispute, to declare the winning ruling.",
        "params": {
          "_arbitratorDisputeID": "ID of the dispute in arbitrator contract.",
          "_ruling": "The ruling choice of the arbitration."
        }
      }
    },
    "title": "ArbitrableExample An example of an arbitrable contract which connects to the arbitator that implements the updated interface.",
    "version": 1
  },
  "userdoc": {
    "kind": "user",
    "methods": {},
    "version": 1
  },
  "storageLayout": {
    "storage": [
      {
        "astId": 12148,
        "contract": "src/arbitration/arbitrables/ArbitrableExample.sol:ArbitrableExample",
        "label": "arbitrator",
        "offset": 0,
        "slot": "0",
        "type": "t_contract(IArbitratorV2)20599"
      },
      {
        "astId": 12151,
        "contract": "src/arbitration/arbitrables/ArbitrableExample.sol:ArbitrableExample",
        "label": "templateRegistry",
        "offset": 0,
        "slot": "1",
        "type": "t_contract(IDisputeTemplateRegistry)20770"
      },
      {
        "astId": 12153,
        "contract": "src/arbitration/arbitrables/ArbitrableExample.sol:ArbitrableExample",
        "label": "templateId",
        "offset": 0,
        "slot": "2",
        "type": "t_uint256"
      },
      {
        "astId": 12155,
        "contract": "src/arbitration/arbitrables/ArbitrableExample.sol:ArbitrableExample",
        "label": "arbitratorExtraData",
        "offset": 0,
        "slot": "3",
        "type": "t_bytes_storage"
      },
      {
        "astId": 12162,
        "contract": "src/arbitration/arbitrables/ArbitrableExample.sol:ArbitrableExample",
        "label": "externalIDtoLocalID",
        "offset": 0,
        "slot": "4",
        "type": "t_mapping(t_uint256,t_uint256)"
      },
      {
        "astId": 12166,
        "contract": "src/arbitration/arbitrables/ArbitrableExample.sol:ArbitrableExample",
        "label": "disputes",
        "offset": 0,
        "slot": "5",
        "type": "t_array(t_struct(DisputeStruct)12139_storage)dyn_storage"
      }
    ],
    "types": {
      "t_array(t_struct(DisputeStruct)12139_storage)dyn_storage": {
        "base": "t_struct(DisputeStruct)12139_storage",
        "encoding": "dynamic_array",
        "label": "struct ArbitrableExample.DisputeStruct[]",
        "numberOfBytes": "32"
      },
      "t_bool": {
        "encoding": "inplace",
        "label": "bool",
        "numberOfBytes": "1"
      },
      "t_bytes_storage": {
        "encoding": "bytes",
        "label": "bytes",
        "numberOfBytes": "32"
      },
      "t_contract(IArbitratorV2)20599": {
        "encoding": "inplace",
        "label": "contract IArbitratorV2",
        "numberOfBytes": "20"
      },
      "t_contract(IDisputeTemplateRegistry)20770": {
        "encoding": "inplace",
        "label": "contract IDisputeTemplateRegistry",
        "numberOfBytes": "20"
      },
      "t_mapping(t_uint256,t_uint256)": {
        "encoding": "mapping",
        "key": "t_uint256",
        "label": "mapping(uint256 => uint256)",
        "numberOfBytes": "32",
        "value": "t_uint256"
      },
      "t_struct(DisputeStruct)12139_storage": {
        "encoding": "inplace",
        "label": "struct ArbitrableExample.DisputeStruct",
        "members": [
          {
            "astId": 12134,
            "contract": "src/arbitration/arbitrables/ArbitrableExample.sol:ArbitrableExample",
            "label": "isRuled",
            "offset": 0,
            "slot": "0",
            "type": "t_bool"
          },
          {
            "astId": 12136,
            "contract": "src/arbitration/arbitrables/ArbitrableExample.sol:ArbitrableExample",
            "label": "ruling",
            "offset": 0,
            "slot": "1",
            "type": "t_uint256"
          },
          {
            "astId": 12138,
            "contract": "src/arbitration/arbitrables/ArbitrableExample.sol:ArbitrableExample",
            "label": "numberOfRulingOptions",
            "offset": 0,
            "slot": "2",
            "type": "t_uint256"
          }
        ],
        "numberOfBytes": "96"
      },
      "t_uint256": {
        "encoding": "inplace",
        "label": "uint256",
        "numberOfBytes": "32"
      }
    }
  }
}