{
  "address": "0x20f27813CC24fD1Bad20CB9b8d261CE1eE2e125a",
  "abi": [
    {
      "inputs": [
        {
          "internalType": "address",
          "name": "_owner",
          "type": "address"
        },
        {
          "internalType": "address",
          "name": "_consumer",
          "type": "address"
        },
        {
          "internalType": "address",
          "name": "_vrfCoordinator",
          "type": "address"
        },
        {
          "internalType": "bytes32",
          "name": "_keyHash",
          "type": "bytes32"
        },
        {
          "internalType": "uint256",
          "name": "_subscriptionId",
          "type": "uint256"
        },
        {
          "internalType": "uint16",
          "name": "_requestConfirmations",
          "type": "uint16"
        },
        {
          "internalType": "uint32",
          "name": "_callbackGasLimit",
          "type": "uint32"
        }
      ],
      "stateMutability": "nonpayable",
      "type": "constructor"
    },
    {
      "inputs": [],
      "name": "ConsumerOnly",
      "type": "error"
    },
    {
      "inputs": [
        {
          "internalType": "address",
          "name": "have",
          "type": "address"
        },
        {
          "internalType": "address",
          "name": "want",
          "type": "address"
        }
      ],
      "name": "OnlyCoordinatorCanFulfill",
      "type": "error"
    },
    {
      "inputs": [
        {
          "internalType": "address",
          "name": "have",
          "type": "address"
        },
        {
          "internalType": "address",
          "name": "owner",
          "type": "address"
        },
        {
          "internalType": "address",
          "name": "coordinator",
          "type": "address"
        }
      ],
      "name": "OnlyOwnerOrCoordinator",
      "type": "error"
    },
    {
      "inputs": [],
      "name": "OwnerOnly",
      "type": "error"
    },
    {
      "inputs": [],
      "name": "ZeroAddress",
      "type": "error"
    },
    {
      "anonymous": false,
      "inputs": [
        {
          "indexed": false,
          "internalType": "address",
          "name": "vrfCoordinator",
          "type": "address"
        }
      ],
      "name": "CoordinatorSet",
      "type": "event"
    },
    {
      "anonymous": false,
      "inputs": [
        {
          "indexed": true,
          "internalType": "uint256",
          "name": "_requestId",
          "type": "uint256"
        },
        {
          "indexed": false,
          "internalType": "uint256",
          "name": "_randomWord",
          "type": "uint256"
        }
      ],
      "name": "RequestFulfilled",
      "type": "event"
    },
    {
      "anonymous": false,
      "inputs": [
        {
          "indexed": true,
          "internalType": "uint256",
          "name": "_requestId",
          "type": "uint256"
        }
      ],
      "name": "RequestSent",
      "type": "event"
    },
    {
      "inputs": [],
      "name": "callbackGasLimit",
      "outputs": [
        {
          "internalType": "uint32",
          "name": "",
          "type": "uint32"
        }
      ],
      "stateMutability": "view",
      "type": "function"
    },
    {
      "inputs": [
        {
          "internalType": "uint32",
          "name": "_callbackGasLimit",
          "type": "uint32"
        }
      ],
      "name": "changeCallbackGasLimit",
      "outputs": [],
      "stateMutability": "nonpayable",
      "type": "function"
    },
    {
      "inputs": [
        {
          "internalType": "address",
          "name": "_consumer",
          "type": "address"
        }
      ],
      "name": "changeConsumer",
      "outputs": [],
      "stateMutability": "nonpayable",
      "type": "function"
    },
    {
      "inputs": [
        {
          "internalType": "bytes32",
          "name": "_keyHash",
          "type": "bytes32"
        }
      ],
      "name": "changeKeyHash",
      "outputs": [],
      "stateMutability": "nonpayable",
      "type": "function"
    },
    {
      "inputs": [
        {
          "internalType": "address",
          "name": "_owner",
          "type": "address"
        }
      ],
      "name": "changeOwner",
      "outputs": [],
      "stateMutability": "nonpayable",
      "type": "function"
    },
    {
      "inputs": [
        {
          "internalType": "uint16",
          "name": "_requestConfirmations",
          "type": "uint16"
        }
      ],
      "name": "changeRequestConfirmations",
      "outputs": [],
      "stateMutability": "nonpayable",
      "type": "function"
    },
    {
      "inputs": [
        {
          "internalType": "uint256",
          "name": "_subscriptionId",
          "type": "uint256"
        }
      ],
      "name": "changeSubscriptionId",
      "outputs": [],
      "stateMutability": "nonpayable",
      "type": "function"
    },
    {
      "inputs": [
        {
          "internalType": "address",
          "name": "_vrfCoordinator",
          "type": "address"
        }
      ],
      "name": "changeVrfCoordinator",
      "outputs": [],
      "stateMutability": "nonpayable",
      "type": "function"
    },
    {
      "inputs": [],
      "name": "consumer",
      "outputs": [
        {
          "internalType": "address",
          "name": "",
          "type": "address"
        }
      ],
      "stateMutability": "view",
      "type": "function"
    },
    {
      "inputs": [],
      "name": "keyHash",
      "outputs": [
        {
          "internalType": "bytes32",
          "name": "",
          "type": "bytes32"
        }
      ],
      "stateMutability": "view",
      "type": "function"
    },
    {
      "inputs": [],
      "name": "lastRequestId",
      "outputs": [
        {
          "internalType": "uint256",
          "name": "",
          "type": "uint256"
        }
      ],
      "stateMutability": "view",
      "type": "function"
    },
    {
      "inputs": [],
      "name": "owner",
      "outputs": [
        {
          "internalType": "address",
          "name": "",
          "type": "address"
        }
      ],
      "stateMutability": "view",
      "type": "function"
    },
    {
      "inputs": [
        {
          "internalType": "uint256",
          "name": "requestId",
          "type": "uint256"
        }
      ],
      "name": "randomNumbers",
      "outputs": [
        {
          "internalType": "uint256",
          "name": "number",
          "type": "uint256"
        }
      ],
      "stateMutability": "view",
      "type": "function"
    },
    {
      "inputs": [
        {
          "internalType": "uint256",
          "name": "requestId",
          "type": "uint256"
        },
        {
          "internalType": "uint256[]",
          "name": "randomWords",
          "type": "uint256[]"
        }
      ],
      "name": "rawFulfillRandomWords",
      "outputs": [],
      "stateMutability": "nonpayable",
      "type": "function"
    },
    {
      "inputs": [],
      "name": "receiveRandomness",
      "outputs": [
        {
          "internalType": "uint256",
          "name": "randomNumber",
          "type": "uint256"
        }
      ],
      "stateMutability": "view",
      "type": "function"
    },
    {
      "inputs": [],
      "name": "requestConfirmations",
      "outputs": [
        {
          "internalType": "uint16",
          "name": "",
          "type": "uint16"
        }
      ],
      "stateMutability": "view",
      "type": "function"
    },
    {
      "inputs": [],
      "name": "requestRandomness",
      "outputs": [],
      "stateMutability": "nonpayable",
      "type": "function"
    },
    {
      "inputs": [],
      "name": "s_vrfCoordinator",
      "outputs": [
        {
          "internalType": "contract IVRFCoordinatorV2Plus",
          "name": "",
          "type": "address"
        }
      ],
      "stateMutability": "view",
      "type": "function"
    },
    {
      "inputs": [
        {
          "internalType": "address",
          "name": "_vrfCoordinator",
          "type": "address"
        }
      ],
      "name": "setCoordinator",
      "outputs": [],
      "stateMutability": "nonpayable",
      "type": "function"
    },
    {
      "inputs": [],
      "name": "subscriptionId",
      "outputs": [
        {
          "internalType": "uint256",
          "name": "",
          "type": "uint256"
        }
      ],
      "stateMutability": "view",
      "type": "function"
    }
  ],
  "transactionHash": "0xdc40f7b211a1d1602adec6d9982a5c3727485ff585532818087e9524724d35c2",
  "args": [
    "0xf1C7c037891525E360C59f708739Ac09A7670c59",
    "0xf1C7c037891525E360C59f708739Ac09A7670c59",
    "0x5CE8D5A2BC84beb22a398CCA51996F7930313D61",
    "0x1770bdc7eec7771f7ba4ffd640f34260d7f095b79c92d34a5b2551d6f6cfd2be",
    "38502597312983100069991953687934627561654236680431968938019951490339399569548",
    200,
    100000
  ],
  "numDeployments": 1,
  "solcInputHash": "7120e939c323b678aae40a88db815cc2",
  "bytecode": "0x60803461011d57601f610a3538819003918201601f19168301916001600160401b038311848410176101215780849260e09460405283398101031261011d5761004781610135565b9061005460208201610135565b61006060408301610135565b9060608301519060808401519260a08501519461ffff861680960361011d5760c001519563ffffffff8716870361011d575f80546001600160a01b0319166001600160a01b0392831617905516801561010e5760018060a01b0319600154161760015560018060a01b031660018060a01b0319600254161760025560035560045565ffffffff00006005549260101b169165ffffffffffff191617176005556040516108eb908161014a8239f35b63d92e233d60e01b5f5260045ffd5b5f80fd5b634e487b7160e01b5f52604160045260245ffd5b51906001600160a01b038216820361011d5756fe6080806040526004361015610012575f80fd5b5f3560e01c90816309c1ba2e14610879575080631fe543e31461078b57806324f74697146107655780632f68f4821461073b57806339b1e245146107115780635257cd90146106e757806361728f39146106ca5780638da5cb5b146106a55780638ea98117146105a5578063910f03a61461057c5780639eccacf614610556578063a6f9dae11461050d578063b0fb162f146104ec578063b4fd7296146104c6578063d2d22b521461047b578063e86a51cb14610428578063f50d390d146103e7578063f8413b07146101b6578063f9f5dd91146101195763fc2a88c3146100f8575f80fd5b34610115575f366003190112610115576020600654604051908152f35b5f80fd5b34610115576020366003190112610115576004356001600160a01b038116809103610115576001600160a01b035f5416330361018e576020817fd1a6a14209a385a964d036e404cb5cfb71f4000cdb03c9366292430787261be6926001600160a01b03196001541617600155604051908152a1005b7f596dcdb8000000000000000000000000000000000000000000000000000000005f5260045ffd5b34610115575f366003190112610115576001600160a01b036002541633036103bf576001600160a01b03600154166003546004549160055490604051936020850185811067ffffffffffffffff8211176103ab5760405260018552604051947f92fd1338000000000000000000000000000000000000000000000000000000006020870152511515602486015260248552610252604486610893565b6040519460c086019486861067ffffffffffffffff8711176103ab5761ffff9660205f93610104938299604052835281830195865263ffffffff60408401988b81168a5281606086019160101c1681528160808601916001835260a087019485526040519d8e9c8d9b8c997f9b1c385e000000000000000000000000000000000000000000000000000000008b528960048c01525160248b01525160448a01525116606488015251166084860152511660a48401525160c060c484015280519182918260e4860152018484015e8181018301849052601f01601f191681010301925af19081156103a0575f9161036e575b50806006557f0cd21a41891ff04ecd9a8754bec97e2fb85d2a4e7694329d4dc364c796f23d065f80a2005b90506020813d602011610398575b8161038960209383610893565b81010312610115575181610343565b3d915061037c565b6040513d5f823e3d90fd5b634e487b7160e01b5f52604160045260245ffd5b7fb40e21ac000000000000000000000000000000000000000000000000000000005f5260045ffd5b346101155760203660031901126101155760043561ffff8116809103610115576001600160a01b035f5416330361018e5761ffff1960055416176005555f80f35b346101155760203660031901126101155760043563ffffffff81168103610115576001600160a01b035f5416330361018e5765ffffffff00006005549160101b169065ffffffff00001916176005555f80f35b34610115576020366003190112610115576004356001600160a01b038116809103610115576001600160a01b035f5416330361018e576001600160a01b031960025416176002555f80f35b34610115575f3660031901126101155760206001600160a01b0360025416604051908152f35b34610115575f36600319011261011557602061ffff60055416604051908152f35b34610115576020366003190112610115576004356001600160a01b038116809103610115576001600160a01b035f5416330361018e576001600160a01b03195f5416175f555f80f35b34610115575f3660031901126101155760206001600160a01b0360015416604051908152f35b34610115575f366003190112610115576006545f526007602052602060405f2054604051908152f35b34610115576020366003190112610115576004356001600160a01b038116809103610115576001600160a01b035f54168033141580610690575b61065157508015610629576020817fd1a6a14209a385a964d036e404cb5cfb71f4000cdb03c9366292430787261be6926001600160a01b03196001541617600155604051908152a1005b7fd92e233d000000000000000000000000000000000000000000000000000000005f5260045ffd5b6001600160a01b0360015416907f061db9c1000000000000000000000000000000000000000000000000000000005f523360045260245260445260645ffd5b506001600160a01b03600154163314156105df565b34610115575f3660031901126101155760206001600160a01b035f5416604051908152f35b34610115575f366003190112610115576020600354604051908152f35b34610115576020366003190112610115576004355f526007602052602060405f2054604051908152f35b34610115576020366003190112610115576001600160a01b035f5416330361018e57600480359055005b34610115576020366003190112610115576001600160a01b035f5416330361018e57600435600355005b34610115575f36600319011261011557602063ffffffff60055460101c16604051908152f35b346101155760403660031901126101155760043560243567ffffffffffffffff8111610115573660238201121561011557806004013567ffffffffffffffff8111610115573660248260051b84010111610115576001600160a01b036001541680330361084a57501561083657602060247f5c69e7026b653d8606b5613bb00fd8c4b0504b1cbe8db600c406faac180924d5920135835f52600782528060405f2055604051908152a2005b634e487b7160e01b5f52603260045260245ffd5b7f1cf993f4000000000000000000000000000000000000000000000000000000005f523360045260245260445ffd5b34610115575f366003190112610115576020906004548152f35b90601f8019910116810190811067ffffffffffffffff8211176103ab5760405256fea2646970667358221220116760aa2d9e2a3786fe0f10f86e333a0cbdae8cb2d086b14f78a8fe0ec1053564736f6c634300081e0033",
  "devdoc": {
    "details": "https://blog.chain.link/introducing-vrf-v2-5/",
    "events": {
      "RequestFulfilled(uint256,uint256)": {
        "params": {
          "_randomWord": "The random value answering the request.",
          "_requestId": "The ID of the request"
        }
      },
      "RequestSent(uint256)": {
        "params": {
          "_requestId": "The ID of the request"
        }
      }
    },
    "kind": "dev",
    "methods": {
      "changeCallbackGasLimit(uint32)": {
        "params": {
          "_callbackGasLimit": "The new callback gas limit."
        }
      },
      "changeConsumer(address)": {
        "params": {
          "_consumer": "The new consumer."
        }
      },
      "changeKeyHash(bytes32)": {
        "params": {
          "_keyHash": "The new key hash."
        }
      },
      "changeOwner(address)": {
        "params": {
          "_owner": "The new owner."
        }
      },
      "changeRequestConfirmations(uint16)": {
        "params": {
          "_requestConfirmations": "The new request confirmations."
        }
      },
      "changeSubscriptionId(uint256)": {
        "params": {
          "_subscriptionId": "The new subscription ID."
        }
      },
      "changeVrfCoordinator(address)": {
        "params": {
          "_vrfCoordinator": "The new VRF Coordinator."
        }
      },
      "constructor": {
        "details": "https://docs.chain.link/vrf/v2-5/subscription/get-a-random-number",
        "params": {
          "_callbackGasLimit": "The limit for how much gas to use for the callback request to the contract's fulfillRandomWords() function.",
          "_consumer": "The address that can request random numbers.",
          "_keyHash": "The gas lane key hash value - Defines the maximum gas price you are willing to pay for a request in wei (ID of the off-chain VRF job).",
          "_owner": "The owner of the contract.",
          "_requestConfirmations": "How many confirmations the Chainlink node should wait before responding.",
          "_subscriptionId": "The unique identifier of the subscription used for funding requests.",
          "_vrfCoordinator": "The address of the VRFCoordinator contract."
        }
      },
      "receiveRandomness()": {
        "returns": {
          "randomNumber": "The random number or 0 if it is not ready or has not been requested."
        }
      },
      "requestRandomness()": {
        "details": "Ensure that the subscription is set and funded.Consumer only."
      }
    },
    "title": "Random Number Generator that uses Chainlink VRF v2.5",
    "version": 1
  },
  "userdoc": {
    "events": {
      "RequestFulfilled(uint256,uint256)": {
        "notice": "Emitted when a request has been fulfilled."
      },
      "RequestSent(uint256)": {
        "notice": "Emitted when a request is sent to the VRF Coordinator"
      }
    },
    "kind": "user",
    "methods": {
      "changeCallbackGasLimit(uint32)": {
        "notice": "Changes the callback gas limit of the contract."
      },
      "changeConsumer(address)": {
        "notice": "Changes the consumer of the RNG."
      },
      "changeKeyHash(bytes32)": {
        "notice": "Changes the key hash of the contract."
      },
      "changeOwner(address)": {
        "notice": "Changes the owner of the contract."
      },
      "changeRequestConfirmations(uint16)": {
        "notice": "Changes the request confirmations of the contract."
      },
      "changeSubscriptionId(uint256)": {
        "notice": "Changes the subscription ID of the contract."
      },
      "changeVrfCoordinator(address)": {
        "notice": "Changes the VRF Coordinator of the contract."
      },
      "constructor": {
        "notice": "Constructor, initializing the implementation to reduce attack surface."
      },
      "receiveRandomness()": {
        "notice": "Return the random number."
      },
      "requestRandomness()": {
        "notice": "Request a random number."
      },
      "setCoordinator(address)": {
        "notice": "Sets the VRF Coordinator addressThis method should only be callable by the coordinator or contract owner"
      }
    },
    "version": 1
  },
  "storageLayout": {
    "storage": [
      {
        "astId": 39785,
        "contract": "src/rng/ChainlinkRNG.sol:ChainlinkRNG",
        "label": "owner",
        "offset": 0,
        "slot": "0",
        "type": "t_address"
      },
      {
        "astId": 39788,
        "contract": "src/rng/ChainlinkRNG.sol:ChainlinkRNG",
        "label": "s_vrfCoordinator",
        "offset": 0,
        "slot": "1",
        "type": "t_contract(IVRFCoordinatorV2Plus)380"
      },
      {
        "astId": 39934,
        "contract": "src/rng/ChainlinkRNG.sol:ChainlinkRNG",
        "label": "consumer",
        "offset": 0,
        "slot": "2",
        "type": "t_address"
      },
      {
        "astId": 39936,
        "contract": "src/rng/ChainlinkRNG.sol:ChainlinkRNG",
        "label": "keyHash",
        "offset": 0,
        "slot": "3",
        "type": "t_bytes32"
      },
      {
        "astId": 39938,
        "contract": "src/rng/ChainlinkRNG.sol:ChainlinkRNG",
        "label": "subscriptionId",
        "offset": 0,
        "slot": "4",
        "type": "t_uint256"
      },
      {
        "astId": 39940,
        "contract": "src/rng/ChainlinkRNG.sol:ChainlinkRNG",
        "label": "requestConfirmations",
        "offset": 0,
        "slot": "5",
        "type": "t_uint16"
      },
      {
        "astId": 39942,
        "contract": "src/rng/ChainlinkRNG.sol:ChainlinkRNG",
        "label": "callbackGasLimit",
        "offset": 2,
        "slot": "5",
        "type": "t_uint32"
      },
      {
        "astId": 39944,
        "contract": "src/rng/ChainlinkRNG.sol:ChainlinkRNG",
        "label": "lastRequestId",
        "offset": 0,
        "slot": "6",
        "type": "t_uint256"
      },
      {
        "astId": 39948,
        "contract": "src/rng/ChainlinkRNG.sol:ChainlinkRNG",
        "label": "randomNumbers",
        "offset": 0,
        "slot": "7",
        "type": "t_mapping(t_uint256,t_uint256)"
      }
    ],
    "types": {
      "t_address": {
        "encoding": "inplace",
        "label": "address",
        "numberOfBytes": "20"
      },
      "t_bytes32": {
        "encoding": "inplace",
        "label": "bytes32",
        "numberOfBytes": "32"
      },
      "t_contract(IVRFCoordinatorV2Plus)380": {
        "encoding": "inplace",
        "label": "contract IVRFCoordinatorV2Plus",
        "numberOfBytes": "20"
      },
      "t_mapping(t_uint256,t_uint256)": {
        "encoding": "mapping",
        "key": "t_uint256",
        "label": "mapping(uint256 => uint256)",
        "numberOfBytes": "32",
        "value": "t_uint256"
      },
      "t_uint16": {
        "encoding": "inplace",
        "label": "uint16",
        "numberOfBytes": "2"
      },
      "t_uint256": {
        "encoding": "inplace",
        "label": "uint256",
        "numberOfBytes": "32"
      },
      "t_uint32": {
        "encoding": "inplace",
        "label": "uint32",
        "numberOfBytes": "4"
      }
    }
  }
}