{
  "address": "0x1ce7F5771bA530a6b2d7129268E0c04441DF95c9",
  "abi": [
    {
      "inputs": [
        {
          "internalType": "address",
          "name": "_governor",
          "type": "address"
        },
        {
          "internalType": "address",
          "name": "_sortitionModule",
          "type": "address"
        },
        {
          "internalType": "address",
          "name": "_vrfCoordinator",
          "type": "address"
        },
        {
          "internalType": "bytes32",
          "name": "_keyHash",
          "type": "bytes32"
        },
        {
          "internalType": "uint256",
          "name": "_subscriptionId",
          "type": "uint256"
        },
        {
          "internalType": "uint16",
          "name": "_requestConfirmations",
          "type": "uint16"
        },
        {
          "internalType": "uint32",
          "name": "_callbackGasLimit",
          "type": "uint32"
        }
      ],
      "stateMutability": "nonpayable",
      "type": "constructor"
    },
    {
      "inputs": [
        {
          "internalType": "address",
          "name": "have",
          "type": "address"
        },
        {
          "internalType": "address",
          "name": "want",
          "type": "address"
        }
      ],
      "name": "OnlyCoordinatorCanFulfill",
      "type": "error"
    },
    {
      "inputs": [
        {
          "internalType": "address",
          "name": "have",
          "type": "address"
        },
        {
          "internalType": "address",
          "name": "owner",
          "type": "address"
        },
        {
          "internalType": "address",
          "name": "coordinator",
          "type": "address"
        }
      ],
      "name": "OnlyOwnerOrCoordinator",
      "type": "error"
    },
    {
      "inputs": [],
      "name": "ZeroAddress",
      "type": "error"
    },
    {
      "anonymous": false,
      "inputs": [
        {
          "indexed": false,
          "internalType": "address",
          "name": "vrfCoordinator",
          "type": "address"
        }
      ],
      "name": "CoordinatorSet",
      "type": "event"
    },
    {
      "anonymous": false,
      "inputs": [
        {
          "indexed": true,
          "internalType": "address",
          "name": "from",
          "type": "address"
        },
        {
          "indexed": true,
          "internalType": "address",
          "name": "to",
          "type": "address"
        }
      ],
      "name": "OwnershipTransferRequested",
      "type": "event"
    },
    {
      "anonymous": false,
      "inputs": [
        {
          "indexed": true,
          "internalType": "address",
          "name": "from",
          "type": "address"
        },
        {
          "indexed": true,
          "internalType": "address",
          "name": "to",
          "type": "address"
        }
      ],
      "name": "OwnershipTransferred",
      "type": "event"
    },
    {
      "anonymous": false,
      "inputs": [
        {
          "indexed": true,
          "internalType": "uint256",
          "name": "requestId",
          "type": "uint256"
        },
        {
          "indexed": false,
          "internalType": "uint256",
          "name": "randomWord",
          "type": "uint256"
        }
      ],
      "name": "RequestFulfilled",
      "type": "event"
    },
    {
      "anonymous": false,
      "inputs": [
        {
          "indexed": true,
          "internalType": "uint256",
          "name": "requestId",
          "type": "uint256"
        }
      ],
      "name": "RequestSent",
      "type": "event"
    },
    {
      "inputs": [],
      "name": "acceptOwnership",
      "outputs": [],
      "stateMutability": "nonpayable",
      "type": "function"
    },
    {
      "inputs": [],
      "name": "callbackGasLimit",
      "outputs": [
        {
          "internalType": "uint32",
          "name": "",
          "type": "uint32"
        }
      ],
      "stateMutability": "view",
      "type": "function"
    },
    {
      "inputs": [
        {
          "internalType": "uint32",
          "name": "_callbackGasLimit",
          "type": "uint32"
        }
      ],
      "name": "changeCallbackGasLimit",
      "outputs": [],
      "stateMutability": "nonpayable",
      "type": "function"
    },
    {
      "inputs": [
        {
          "internalType": "address",
          "name": "_governor",
          "type": "address"
        }
      ],
      "name": "changeGovernor",
      "outputs": [],
      "stateMutability": "nonpayable",
      "type": "function"
    },
    {
      "inputs": [
        {
          "internalType": "bytes32",
          "name": "_keyHash",
          "type": "bytes32"
        }
      ],
      "name": "changeKeyHash",
      "outputs": [],
      "stateMutability": "nonpayable",
      "type": "function"
    },
    {
      "inputs": [
        {
          "internalType": "uint16",
          "name": "_requestConfirmations",
          "type": "uint16"
        }
      ],
      "name": "changeRequestConfirmations",
      "outputs": [],
      "stateMutability": "nonpayable",
      "type": "function"
    },
    {
      "inputs": [
        {
          "internalType": "address",
          "name": "_sortitionModule",
          "type": "address"
        }
      ],
      "name": "changeSortitionModule",
      "outputs": [],
      "stateMutability": "nonpayable",
      "type": "function"
    },
    {
      "inputs": [
        {
          "internalType": "uint256",
          "name": "_subscriptionId",
          "type": "uint256"
        }
      ],
      "name": "changeSubscriptionId",
      "outputs": [],
      "stateMutability": "nonpayable",
      "type": "function"
    },
    {
      "inputs": [
        {
          "internalType": "address",
          "name": "_vrfCoordinator",
          "type": "address"
        }
      ],
      "name": "changeVrfCoordinator",
      "outputs": [],
      "stateMutability": "nonpayable",
      "type": "function"
    },
    {
      "inputs": [],
      "name": "governor",
      "outputs": [
        {
          "internalType": "address",
          "name": "",
          "type": "address"
        }
      ],
      "stateMutability": "view",
      "type": "function"
    },
    {
      "inputs": [],
      "name": "keyHash",
      "outputs": [
        {
          "internalType": "bytes32",
          "name": "",
          "type": "bytes32"
        }
      ],
      "stateMutability": "view",
      "type": "function"
    },
    {
      "inputs": [],
      "name": "owner",
      "outputs": [
        {
          "internalType": "address",
          "name": "",
          "type": "address"
        }
      ],
      "stateMutability": "view",
      "type": "function"
    },
    {
      "inputs": [
        {
          "internalType": "uint256",
          "name": "requestId",
          "type": "uint256"
        }
      ],
      "name": "randomNumbers",
      "outputs": [
        {
          "internalType": "uint256",
          "name": "number",
          "type": "uint256"
        }
      ],
      "stateMutability": "view",
      "type": "function"
    },
    {
      "inputs": [
        {
          "internalType": "uint256",
          "name": "requestId",
          "type": "uint256"
        },
        {
          "internalType": "uint256[]",
          "name": "randomWords",
          "type": "uint256[]"
        }
      ],
      "name": "rawFulfillRandomWords",
      "outputs": [],
      "stateMutability": "nonpayable",
      "type": "function"
    },
    {
      "inputs": [
        {
          "internalType": "uint256",
          "name": "",
          "type": "uint256"
        }
      ],
      "name": "receiveRandomness",
      "outputs": [
        {
          "internalType": "uint256",
          "name": "randomNumber",
          "type": "uint256"
        }
      ],
      "stateMutability": "view",
      "type": "function"
    },
    {
      "inputs": [],
      "name": "requestConfirmations",
      "outputs": [
        {
          "internalType": "uint16",
          "name": "",
          "type": "uint16"
        }
      ],
      "stateMutability": "view",
      "type": "function"
    },
    {
      "inputs": [
        {
          "internalType": "uint256",
          "name": "",
          "type": "uint256"
        }
      ],
      "name": "requestRandomness",
      "outputs": [],
      "stateMutability": "nonpayable",
      "type": "function"
    },
    {
      "inputs": [],
      "name": "s_vrfCoordinator",
      "outputs": [
        {
          "internalType": "contract IVRFCoordinatorV2Plus",
          "name": "",
          "type": "address"
        }
      ],
      "stateMutability": "view",
      "type": "function"
    },
    {
      "inputs": [
        {
          "internalType": "address",
          "name": "_vrfCoordinator",
          "type": "address"
        }
      ],
      "name": "setCoordinator",
      "outputs": [],
      "stateMutability": "nonpayable",
      "type": "function"
    },
    {
      "inputs": [],
      "name": "sortitionModule",
      "outputs": [
        {
          "internalType": "address",
          "name": "",
          "type": "address"
        }
      ],
      "stateMutability": "view",
      "type": "function"
    },
    {
      "inputs": [],
      "name": "subscriptionId",
      "outputs": [
        {
          "internalType": "uint256",
          "name": "",
          "type": "uint256"
        }
      ],
      "stateMutability": "view",
      "type": "function"
    },
    {
      "inputs": [
        {
          "internalType": "address",
          "name": "to",
          "type": "address"
        }
      ],
      "name": "transferOwnership",
      "outputs": [],
      "stateMutability": "nonpayable",
      "type": "function"
    }
  ],
  "transactionHash": "0x98e0e5095a628df19a3987f45637207b99ec2e91a7fdfc335244f625ca1faac2",
  "args": [
    "0xf1C7c037891525E360C59f708739Ac09A7670c59",
    "0xf1C7c037891525E360C59f708739Ac09A7670c59",
    "0x5CE8D5A2BC84beb22a398CCA51996F7930313D61",
    "0x1770bdc7eec7771f7ba4ffd640f34260d7f095b79c92d34a5b2551d6f6cfd2be",
    "38502597312983100069991953687934627561654236680431968938019951490339399569548",
    20,
    100000
  ],
  "numDeployments": 1,
  "solcInputHash": "75a40fe267f89917a94a61837d7b8dfe",
  "bytecode": "0x60806040523480156200001157600080fd5b5060405162000f4c38038062000f4c83398101604081905262000034916200022d565b8433806000816200008c5760405162461bcd60e51b815260206004820152601860248201527f43616e6e6f7420736574206f776e657220746f207a65726f000000000000000060448201526064015b60405180910390fd5b600080546001600160a01b0319166001600160a01b0384811691909117909155811615620000bf57620000bf8162000165565b5050506001600160a01b038116620000ea5760405163d92e233d60e01b815260040160405180910390fd5b600280546001600160a01b03199081166001600160a01b03938416179091556003805482169983169990991790985560048054909816961695909517909555600591909155600655506007805461ffff90931665ffffffffffff19909316929092176201000063ffffffff90921691909102179055620002c5565b336001600160a01b03821603620001bf5760405162461bcd60e51b815260206004820152601760248201527f43616e6e6f74207472616e7366657220746f2073656c66000000000000000000604482015260640162000083565b600180546001600160a01b0319166001600160a01b0383811691821790925560008054604051929316917fed8889f560326eb138920d842192f0eb3dd22b4f139c87a2c57538e05bae12789190a350565b80516001600160a01b03811681146200022857600080fd5b919050565b600080600080600080600060e0888a0312156200024957600080fd5b620002548862000210565b9650620002646020890162000210565b9550620002746040890162000210565b9450606088015193506080880151925060a088015161ffff811681146200029a57600080fd5b60c089015190925063ffffffff81168114620002b557600080fd5b8091505092959891949750929550565b610c7780620002d56000396000f3fe608060405234801561001057600080fd5b50600436106101425760003560e01c806379ba5097116100b8578063b0fb162f1161007c578063b0fb162f146102b9578063e4c0aaf4146102da578063e86a51cb146102ed578063f2fde38b14610300578063f50d390d14610313578063f9f5dd911461032657600080fd5b806379ba5097146102675780638da5cb5b1461026f5780638ea98117146102805780639eccacf614610293578063b0049637146102a657600080fd5b80632e1daf2f1161010a5780632e1daf2f146101f25780632f68f4821461020557806339b1e245146102185780635257cd901461022b57806361728f391461024b5780637363ae1f1461025457600080fd5b806309c1ba2e146101475780630c340a241461016357806313cf90541461018e5780631fe543e3146101b257806324f74697146101c7575b600080fd5b61015060065481565b6040519081526020015b60405180910390f35b600354610176906001600160a01b031681565b6040516001600160a01b03909116815260200161015a565b61015061019c366004610a3b565b5060085460009081526009602052604090205490565b6101c56101c0366004610a54565b610339565b005b6007546101dd9062010000900463ffffffff1681565b60405163ffffffff909116815260200161015a565b600454610176906001600160a01b031681565b6101c5610213366004610a3b565b61038e565b6101c5610226366004610a3b565b6103bd565b610150610239366004610a3b565b60096020526000908152604090205481565b61015060055481565b6101c5610262366004610a3b565b6103ec565b6101c5610547565b6000546001600160a01b0316610176565b6101c561028e366004610ad3565b6105f1565b600254610176906001600160a01b031681565b6101c56102b4366004610ad3565b6106e3565b6007546102c79061ffff1681565b60405161ffff909116815260200161015a565b6101c56102e8366004610ad3565b61072f565b6101c56102fb366004610b03565b61077b565b6101c561030e366004610ad3565b6107c9565b6101c5610321366004610b29565b6107dd565b6101c5610334366004610ad3565b61081f565b6002546001600160a01b0316331461037e5760025460405163073e64fd60e21b81523360048201526001600160a01b0390911660248201526044015b60405180910390fd5b610389838383610849565b505050565b6003546001600160a01b031633146103b85760405162461bcd60e51b815260040161037590610b4d565b600555565b6003546001600160a01b031633146103e75760405162461bcd60e51b815260040161037590610b4d565b600655565b6004546001600160a01b0316331461043d5760405162461bcd60e51b8152602060048201526014602482015273536f72746974696f6e4d6f64756c65206f6e6c7960601b6044820152606401610375565b6002546040805160c081018252600554815260065460208083019190915260075461ffff81168385015262010000900463ffffffff16606083015260016080830181905283519182019093529182526000926001600160a01b031691639b1c385e919060a08201906104ae906108d2565b8152506040518263ffffffff1660e01b81526004016104cd9190610b74565b6020604051808303816000875af11580156104ec573d6000803e3d6000fd5b505050506040513d601f19601f820116820180604052508101906105109190610c12565b600881905560405190915081907f0cd21a41891ff04ecd9a8754bec97e2fb85d2a4e7694329d4dc364c796f23d0690600090a25050565b6001546001600160a01b0316331461059a5760405162461bcd60e51b815260206004820152601660248201527526bab9ba10313290383937b837b9b2b21037bbb732b960511b6044820152606401610375565b60008054336001600160a01b0319808316821784556001805490911690556040516001600160a01b0390921692909183917f8be0079c531659141344cd1fd0a4f28419497f9722a3daafe3b4186f6b6457e091a350565b6000546001600160a01b0316331480159061061757506002546001600160a01b03163314155b15610668573361062f6000546001600160a01b031690565b60025460405163061db9c160e01b81526001600160a01b0393841660048201529183166024830152919091166044820152606401610375565b6001600160a01b03811661068f5760405163d92e233d60e01b815260040160405180910390fd5b600280546001600160a01b0319166001600160a01b0383169081179091556040519081527fd1a6a14209a385a964d036e404cb5cfb71f4000cdb03c9366292430787261be69060200160405180910390a150565b6003546001600160a01b0316331461070d5760405162461bcd60e51b815260040161037590610b4d565b600480546001600160a01b0319166001600160a01b0392909216919091179055565b6003546001600160a01b031633146107595760405162461bcd60e51b815260040161037590610b4d565b600380546001600160a01b0319166001600160a01b0392909216919091179055565b6003546001600160a01b031633146107a55760405162461bcd60e51b815260040161037590610b4d565b6007805463ffffffff909216620100000265ffffffff000019909216919091179055565b6107d1610943565b6107da81610998565b50565b6003546001600160a01b031633146108075760405162461bcd60e51b815260040161037590610b4d565b6007805461ffff191661ffff92909216919091179055565b6003546001600160a01b0316331461068f5760405162461bcd60e51b815260040161037590610b4d565b8181600081811061085c5761085c610c2b565b905060200201356009600085815260200190815260200160002081905550827f5c69e7026b653d8606b5613bb00fd8c4b0504b1cbe8db600c406faac180924d5838360008181106108af576108af610c2b565b905060200201356040516108c591815260200190565b60405180910390a2505050565b60607f92fd13387c7fe7befbc38d303d6468778fb9731bc4583f17d92989c6fcfdeaaa8260405160240161090b91511515815260200190565b60408051601f198184030181529190526020810180516001600160e01b03166001600160e01b03199093169290921790915292915050565b6000546001600160a01b031633146109965760405162461bcd60e51b815260206004820152601660248201527527b7363c9031b0b63630b1363290313c9037bbb732b960511b6044820152606401610375565b565b336001600160a01b038216036109ea5760405162461bcd60e51b815260206004820152601760248201527621b0b73737ba103a3930b739b332b9103a379039b2b63360491b6044820152606401610375565b600180546001600160a01b0319166001600160a01b0383811691821790925560008054604051929316917fed8889f560326eb138920d842192f0eb3dd22b4f139c87a2c57538e05bae12789190a350565b600060208284031215610a4d57600080fd5b5035919050565b600080600060408486031215610a6957600080fd5b83359250602084013567ffffffffffffffff80821115610a8857600080fd5b818601915086601f830112610a9c57600080fd5b813581811115610aab57600080fd5b8760208260051b8501011115610ac057600080fd5b6020830194508093505050509250925092565b600060208284031215610ae557600080fd5b81356001600160a01b0381168114610afc57600080fd5b9392505050565b600060208284031215610b1557600080fd5b813563ffffffff81168114610afc57600080fd5b600060208284031215610b3b57600080fd5b813561ffff81168114610afc57600080fd5b6020808252600d908201526c476f7665726e6f72206f6e6c7960981b604082015260600190565b60006020808352835160208401526020840151604084015261ffff6040850151166060840152606084015163ffffffff80821660808601528060808701511660a0860152505060a084015160c08085015280518060e086015260005b81811015610bed5782810184015186820161010001528301610bd0565b506101009250600083828701015282601f19601f830116860101935050505092915050565b600060208284031215610c2457600080fd5b5051919050565b634e487b7160e01b600052603260045260246000fdfea2646970667358221220b1b6124dbccf3f00c097f6ec7ed9e50782f84104bf8df5577b9728b9e27f9ed864736f6c63430008180033",
  "devdoc": {
    "events": {
      "RequestFulfilled(uint256,uint256)": {
        "params": {
          "randomWord": "The random value answering the request.",
          "requestId": "The ID of the request"
        }
      },
      "RequestSent(uint256)": {
        "details": "Emitted when a request is sent to the VRF Coordinator",
        "params": {
          "requestId": "The ID of the request"
        }
      }
    },
    "kind": "dev",
    "methods": {
      "changeCallbackGasLimit(uint32)": {
        "details": "Changes the callback gas limit of the contract.",
        "params": {
          "_callbackGasLimit": "The new callback gas limit."
        }
      },
      "changeGovernor(address)": {
        "details": "Changes the governor of the contract.",
        "params": {
          "_governor": "The new governor."
        }
      },
      "changeKeyHash(bytes32)": {
        "details": "Changes the key hash of the contract.",
        "params": {
          "_keyHash": "The new key hash."
        }
      },
      "changeRequestConfirmations(uint16)": {
        "details": "Changes the request confirmations of the contract.",
        "params": {
          "_requestConfirmations": "The new request confirmations."
        }
      },
      "changeSortitionModule(address)": {
        "details": "Changes the sortition module of the contract.",
        "params": {
          "_sortitionModule": "The new sortition module."
        }
      },
      "changeSubscriptionId(uint256)": {
        "details": "Changes the subscription ID of the contract.",
        "params": {
          "_subscriptionId": "The new subscription ID."
        }
      },
      "changeVrfCoordinator(address)": {
        "details": "Changes the VRF Coordinator of the contract.",
        "params": {
          "_vrfCoordinator": "The new VRF Coordinator."
        }
      },
      "constructor": {
        "details": "Constructor, initializing the implementation to reduce attack surface.https://docs.chain.link/vrf/v2-5/subscription/get-a-random-number",
        "params": {
          "_callbackGasLimit": "The limit for how much gas to use for the callback request to the contract's fulfillRandomWords() function.",
          "_governor": "The Governor of the contract.",
          "_keyHash": "The gas lane key hash value - Defines the maximum gas price you are willing to pay for a request in wei (ID of the off-chain VRF job).",
          "_requestConfirmations": "How many confirmations the Chainlink node should wait before responding.",
          "_sortitionModule": "The address of the SortitionModule contract.",
          "_subscriptionId": "The unique identifier of the subscription used for funding requests.",
          "_vrfCoordinator": "The address of the VRFCoordinator contract."
        }
      },
      "receiveRandomness(uint256)": {
        "details": "Return the random number.",
        "returns": {
          "randomNumber": "The random number or 0 if it is not ready or has not been requested."
        }
      },
      "requestRandomness(uint256)": {
        "details": "Request a random number. SortitionModule only."
      }
    },
    "title": "Random Number Generator that uses Chainlink VRF v2.5 https://blog.chain.link/introducing-vrf-v2-5/",
    "version": 1
  },
  "userdoc": {
    "events": {
      "RequestFulfilled(uint256,uint256)": {
        "notice": "Emitted when a request has been fulfilled."
      }
    },
    "kind": "user",
    "methods": {
      "acceptOwnership()": {
        "notice": "Allows an ownership transfer to be completed by the recipient."
      },
      "owner()": {
        "notice": "Get the current owner"
      },
      "setCoordinator(address)": {
        "notice": "Sets the VRF Coordinator addressThis method should only be callable by the coordinator or contract owner"
      },
      "transferOwnership(address)": {
        "notice": "Allows an owner to begin transferring ownership to a new address."
      }
    },
    "version": 1
  },
  "storageLayout": {
    "storage": [
      {
        "astId": 29,
        "contract": "src/rng/ChainlinkRNG.sol:ChainlinkRNG",
        "label": "s_owner",
        "offset": 0,
        "slot": "0",
        "type": "t_address"
      },
      {
        "astId": 31,
        "contract": "src/rng/ChainlinkRNG.sol:ChainlinkRNG",
        "label": "s_pendingOwner",
        "offset": 0,
        "slot": "1",
        "type": "t_address"
      },
      {
        "astId": 231,
        "contract": "src/rng/ChainlinkRNG.sol:ChainlinkRNG",
        "label": "s_vrfCoordinator",
        "offset": 0,
        "slot": "2",
        "type": "t_contract(IVRFCoordinatorV2Plus)380"
      },
      {
        "astId": 35404,
        "contract": "src/rng/ChainlinkRNG.sol:ChainlinkRNG",
        "label": "governor",
        "offset": 0,
        "slot": "3",
        "type": "t_address"
      },
      {
        "astId": 35406,
        "contract": "src/rng/ChainlinkRNG.sol:ChainlinkRNG",
        "label": "sortitionModule",
        "offset": 0,
        "slot": "4",
        "type": "t_address"
      },
      {
        "astId": 35408,
        "contract": "src/rng/ChainlinkRNG.sol:ChainlinkRNG",
        "label": "keyHash",
        "offset": 0,
        "slot": "5",
        "type": "t_bytes32"
      },
      {
        "astId": 35410,
        "contract": "src/rng/ChainlinkRNG.sol:ChainlinkRNG",
        "label": "subscriptionId",
        "offset": 0,
        "slot": "6",
        "type": "t_uint256"
      },
      {
        "astId": 35412,
        "contract": "src/rng/ChainlinkRNG.sol:ChainlinkRNG",
        "label": "requestConfirmations",
        "offset": 0,
        "slot": "7",
        "type": "t_uint16"
      },
      {
        "astId": 35414,
        "contract": "src/rng/ChainlinkRNG.sol:ChainlinkRNG",
        "label": "callbackGasLimit",
        "offset": 2,
        "slot": "7",
        "type": "t_uint32"
      },
      {
        "astId": 35416,
        "contract": "src/rng/ChainlinkRNG.sol:ChainlinkRNG",
        "label": "lastRequestId",
        "offset": 0,
        "slot": "8",
        "type": "t_uint256"
      },
      {
        "astId": 35420,
        "contract": "src/rng/ChainlinkRNG.sol:ChainlinkRNG",
        "label": "randomNumbers",
        "offset": 0,
        "slot": "9",
        "type": "t_mapping(t_uint256,t_uint256)"
      }
    ],
    "types": {
      "t_address": {
        "encoding": "inplace",
        "label": "address",
        "numberOfBytes": "20"
      },
      "t_bytes32": {
        "encoding": "inplace",
        "label": "bytes32",
        "numberOfBytes": "32"
      },
      "t_contract(IVRFCoordinatorV2Plus)380": {
        "encoding": "inplace",
        "label": "contract IVRFCoordinatorV2Plus",
        "numberOfBytes": "20"
      },
      "t_mapping(t_uint256,t_uint256)": {
        "encoding": "mapping",
        "key": "t_uint256",
        "label": "mapping(uint256 => uint256)",
        "numberOfBytes": "32",
        "value": "t_uint256"
      },
      "t_uint16": {
        "encoding": "inplace",
        "label": "uint16",
        "numberOfBytes": "2"
      },
      "t_uint256": {
        "encoding": "inplace",
        "label": "uint256",
        "numberOfBytes": "32"
      },
      "t_uint32": {
        "encoding": "inplace",
        "label": "uint32",
        "numberOfBytes": "4"
      }
    }
  }
}