{
  "address": "0xBc9B5643C9B1C478DAe1b950e886CC50D8d868b1",
  "abi": [
    {
      "inputs": [],
      "stateMutability": "nonpayable",
      "type": "constructor"
    },
    {
      "inputs": [],
      "name": "AlreadyInitialized",
      "type": "error"
    },
    {
      "inputs": [],
      "name": "FailedDelegateCall",
      "type": "error"
    },
    {
      "inputs": [
        {
          "internalType": "address",
          "name": "implementation",
          "type": "address"
        }
      ],
      "name": "InvalidImplementation",
      "type": "error"
    },
    {
      "inputs": [],
      "name": "NotInitializing",
      "type": "error"
    },
    {
      "inputs": [],
      "name": "UUPSUnauthorizedCallContext",
      "type": "error"
    },
    {
      "inputs": [
        {
          "internalType": "bytes32",
          "name": "slot",
          "type": "bytes32"
        }
      ],
      "name": "UUPSUnsupportedProxiableUUID",
      "type": "error"
    },
    {
      "anonymous": false,
      "inputs": [
        {
          "indexed": true,
          "internalType": "uint256",
          "name": "_templateId",
          "type": "uint256"
        },
        {
          "indexed": true,
          "internalType": "string",
          "name": "_templateTag",
          "type": "string"
        },
        {
          "indexed": false,
          "internalType": "string",
          "name": "_templateData",
          "type": "string"
        },
        {
          "indexed": false,
          "internalType": "string",
          "name": "_templateDataMappings",
          "type": "string"
        }
      ],
      "name": "DisputeTemplate",
      "type": "event"
    },
    {
      "anonymous": false,
      "inputs": [
        {
          "indexed": false,
          "internalType": "uint64",
          "name": "version",
          "type": "uint64"
        }
      ],
      "name": "Initialized",
      "type": "event"
    },
    {
      "anonymous": false,
      "inputs": [
        {
          "indexed": true,
          "internalType": "address",
          "name": "newImplementation",
          "type": "address"
        }
      ],
      "name": "Upgraded",
      "type": "event"
    },
    {
      "inputs": [
        {
          "internalType": "address",
          "name": "_governor",
          "type": "address"
        }
      ],
      "name": "changeGovernor",
      "outputs": [],
      "stateMutability": "nonpayable",
      "type": "function"
    },
    {
      "inputs": [],
      "name": "governor",
      "outputs": [
        {
          "internalType": "address",
          "name": "",
          "type": "address"
        }
      ],
      "stateMutability": "view",
      "type": "function"
    },
    {
      "inputs": [
        {
          "internalType": "address",
          "name": "_governor",
          "type": "address"
        }
      ],
      "name": "initialize",
      "outputs": [],
      "stateMutability": "nonpayable",
      "type": "function"
    },
    {
      "inputs": [],
      "name": "initialize2",
      "outputs": [],
      "stateMutability": "nonpayable",
      "type": "function"
    },
    {
      "inputs": [],
      "name": "proxiableUUID",
      "outputs": [
        {
          "internalType": "bytes32",
          "name": "",
          "type": "bytes32"
        }
      ],
      "stateMutability": "view",
      "type": "function"
    },
    {
      "inputs": [
        {
          "internalType": "string",
          "name": "_templateTag",
          "type": "string"
        },
        {
          "internalType": "string",
          "name": "_templateData",
          "type": "string"
        },
        {
          "internalType": "string",
          "name": "_templateDataMappings",
          "type": "string"
        }
      ],
      "name": "setDisputeTemplate",
      "outputs": [
        {
          "internalType": "uint256",
          "name": "templateId",
          "type": "uint256"
        }
      ],
      "stateMutability": "nonpayable",
      "type": "function"
    },
    {
      "inputs": [],
      "name": "templates",
      "outputs": [
        {
          "internalType": "uint256",
          "name": "",
          "type": "uint256"
        }
      ],
      "stateMutability": "view",
      "type": "function"
    },
    {
      "inputs": [
        {
          "internalType": "address",
          "name": "newImplementation",
          "type": "address"
        },
        {
          "internalType": "bytes",
          "name": "data",
          "type": "bytes"
        }
      ],
      "name": "upgradeToAndCall",
      "outputs": [],
      "stateMutability": "payable",
      "type": "function"
    },
    {
      "inputs": [],
      "name": "version",
      "outputs": [
        {
          "internalType": "string",
          "name": "",
          "type": "string"
        }
      ],
      "stateMutability": "view",
      "type": "function"
    }
  ],
  "transactionHash": "0x9a20123a7ccae03fb699498162f2ec39137add58a29d39394cf4a9592db8b5c5",
  "args": [],
  "numDeployments": 1,
  "solcInputHash": "3f11dda26fe559c44d21b324a34af1b7",
  "bytecode": "0x60a06040523060805234801561001457600080fd5b5061001d610022565b6100d3565b7ff0c57e16840df040f15088dc2f81fe391c3923bec73e23a9662efc9c229c6a0e805468010000000000000000900460ff16156100715760405162dc149f60e41b815260040160405180910390fd5b80546001600160401b03908116146100d05780546001600160401b0319166001600160401b0390811782556040519081527fc7f505b2f371ae2175ee4913f4499e1f2633a7b5936321eed1cdaeb6115181d29060200160405180910390a15b50565b608051610a216100fc600039600081816103010152818161032a01526105270152610a216000f3fe6080604052600436106100765760003560e01c80630c340a241461007b5780633a283d7d146100b8578063472abf68146100dc5780634a994174146100f35780634f1ef2861461011357806352d1902d1461012657806354fd4d501461013b578063c4d66de814610179578063e4c0aaf414610199575b600080fd5b34801561008757600080fd5b5060005461009b906001600160a01b031681565b6040516001600160a01b0390911681526020015b60405180910390f35b3480156100c457600080fd5b506100ce60015481565b6040519081526020016100af565b3480156100e857600080fd5b506100f16101b9565b005b3480156100ff57600080fd5b506100ce61010e36600461078e565b610280565b6100f161012136600461083b565b6102ed565b34801561013257600080fd5b506100ce61051a565b34801561014757600080fd5b5061016c604051806040016040528060058152602001640302e382e360dc1b81525081565b6040516100af91906108ec565b34801561018557600080fd5b506100f16101943660046108ff565b610578565b3480156101a557600080fd5b506100f16101b43660046108ff565b610660565b7ff0c57e16840df040f15088dc2f81fe391c3923bec73e23a9662efc9c229c6a0e805460029190600160401b900460ff1680610202575080546001600160401b03808416911610155b1561021f5760405162dc149f60e41b815260040160405180910390fd5b805468ffffffffffffffffff19166001600160401b038316908117600160401b1760ff60401b191682556040519081527fc7f505b2f371ae2175ee4913f4499e1f2633a7b5936321eed1cdaeb6115181d29060200160405180910390a15050565b60018054600091826102918361091a565b919050559050836040516102a59190610941565b6040518091039020817ef7cd7255d1073b4e136dd477c38ea0020c051ab17110cc5bfab0c840ff992485856040516102de92919061095d565b60405180910390a39392505050565b6102f6826106ac565b306001600160a01b037f000000000000000000000000000000000000000000000000000000000000000016148061037457507f00000000000000000000000000000000000000000000000000000000000000006001600160a01b03166103686000805160206109cc8339815191525490565b6001600160a01b031614155b156103925760405163703e46dd60e11b815260040160405180910390fd5b816001600160a01b03166352d1902d6040518163ffffffff1660e01b8152600401602060405180830381865afa9250505080156103ec575060408051601f3d908101601f191682019092526103e99181019061098b565b60015b61041957604051630c76093760e01b81526001600160a01b03831660048201526024015b60405180910390fd5b6000805160206109cc833981519152811461044a57604051632a87526960e21b815260048101829052602401610410565b6000805160206109cc8339815191528390556040516001600160a01b038416907fbc7cd75a20ee27fd9adebab32041f755214dbc6bffa90cc0225b39da2e5c2d3b90600090a2815115610515576000836001600160a01b0316836040516104b19190610941565b600060405180830381855af49150503d80600081146104ec576040519150601f19603f3d011682016040523d82523d6000602084013e6104f1565b606091505b5050905080610513576040516339b21b5d60e11b815260040160405180910390fd5b505b505050565b6000306001600160a01b037f000000000000000000000000000000000000000000000000000000000000000016146105655760405163703e46dd60e11b815260040160405180910390fd5b506000805160206109cc83398151915290565b7ff0c57e16840df040f15088dc2f81fe391c3923bec73e23a9662efc9c229c6a0e805460019190600160401b900460ff16806105c1575080546001600160401b03808416911610155b156105de5760405162dc149f60e41b815260040160405180910390fd5b8054600160401b6001600160401b03841668ffffffffffffffffff199092168217178255600080546001600160a01b0319166001600160a01b038616179055815460ff60401b191682556040519081527fc7f505b2f371ae2175ee4913f4499e1f2633a7b5936321eed1cdaeb6115181d29060200160405180910390a1505050565b6000546001600160a01b0316331461068a5760405162461bcd60e51b8152600401610410906109a4565b600080546001600160a01b0319166001600160a01b0392909216919091179055565b6000546001600160a01b031633146106d65760405162461bcd60e51b8152600401610410906109a4565b50565b634e487b7160e01b600052604160045260246000fd5b6000806001600160401b03841115610709576107096106d9565b50604051601f19601f85018116603f011681018181106001600160401b0382111715610737576107376106d9565b60405283815290508082840185101561074f57600080fd5b83836020830137600060208583010152509392505050565b600082601f83011261077857600080fd5b610787838335602085016106ef565b9392505050565b6000806000606084860312156107a357600080fd5b83356001600160401b038111156107b957600080fd5b6107c586828701610767565b93505060208401356001600160401b038111156107e157600080fd5b6107ed86828701610767565b92505060408401356001600160401b0381111561080957600080fd5b61081586828701610767565b9150509250925092565b80356001600160a01b038116811461083657600080fd5b919050565b6000806040838503121561084e57600080fd5b6108578361081f565b915060208301356001600160401b0381111561087257600080fd5b8301601f8101851361088357600080fd5b610892858235602084016106ef565b9150509250929050565b60005b838110156108b757818101518382015260200161089f565b50506000910152565b600081518084526108d881602086016020860161089c565b601f01601f19169290920160200192915050565b60208152600061078760208301846108c0565b60006020828403121561091157600080fd5b6107878261081f565b60006001820161093a57634e487b7160e01b600052601160045260246000fd5b5060010190565b6000825161095381846020870161089c565b9190910192915050565b60408152600061097060408301856108c0565b828103602084015261098281856108c0565b95945050505050565b60006020828403121561099d57600080fd5b5051919050565b6020808252600d908201526c476f7665726e6f72206f6e6c7960981b60408201526060019056fe360894a13ba1a3210667c828492db98dca3e2076cc3735a920a3ca505d382bbca2646970667358221220824b519bc278f6320d49ad83ae79b1c15de9785d55c72ae6d946281532e8e72264736f6c634300081c0033",
  "devdoc": {
    "details": "A contract to maintain a registry of dispute templates.",
    "errors": {
      "AlreadyInitialized()": [
        {
          "details": "The contract is already initialized."
        }
      ],
      "InvalidImplementation(address)": [
        {
          "details": "The `implementation` is not UUPS-compliant"
        }
      ],
      "NotInitializing()": [
        {
          "details": "The contract is not initializing."
        }
      ],
      "UUPSUnauthorizedCallContext()": [
        {
          "details": "The call is from an unauthorized context."
        }
      ],
      "UUPSUnsupportedProxiableUUID(bytes32)": [
        {
          "details": "The storage `slot` is unsupported as a UUID."
        }
      ]
    },
    "events": {
      "DisputeTemplate(uint256,string,string,string)": {
        "details": "To be emitted when a new dispute template is created.",
        "params": {
          "_templateData": "The template data.",
          "_templateDataMappings": "The data mappings.",
          "_templateId": "The identifier of the dispute template.",
          "_templateTag": "An optional tag for the dispute template, such as \"registration\" or \"removal\"."
        }
      },
      "Initialized(uint64)": {
        "details": "Triggered when the contract has been initialized or reinitialized."
      },
      "Upgraded(address)": {
        "details": "Emitted when the `implementation` has been successfully upgraded.",
        "params": {
          "newImplementation": "Address of the new implementation the proxy is now forwarding calls to."
        }
      }
    },
    "kind": "dev",
    "methods": {
      "changeGovernor(address)": {
        "details": "Changes the governor of the contract.",
        "params": {
          "_governor": "The new governor."
        }
      },
      "constructor": {
        "custom:oz-upgrades-unsafe-allow": "constructor"
      },
      "initialize(address)": {
        "details": "Initializer",
        "params": {
          "_governor": "Governor of the contract."
        }
      },
      "proxiableUUID()": {
        "details": "Implementation of the ERC1822 `proxiableUUID` function. This returns the storage slot used by the implementation. It is used to validate the implementation's compatibility when performing an upgrade. IMPORTANT: A proxy pointing at a proxiable contract should not be considered proxiable itself, because this risks bricking a proxy that upgrades to it, by delegating to itself until out of gas. Thus it is critical that this function revert if invoked through a proxy. This is guaranteed by the if statement."
      },
      "setDisputeTemplate(string,string,string)": {
        "details": "Registers a new dispute template.",
        "params": {
          "_templateData": "The data of the template.",
          "_templateDataMappings": "The data mappings of the template.",
          "_templateTag": "The tag of the template (optional)."
        }
      },
      "upgradeToAndCall(address,bytes)": {
        "details": "Upgrade mechanism including access control and UUPS-compliance.Reverts if the execution is not performed via delegatecall or the execution context is not of a proxy with an ERC1967-compliant implementation pointing to self.",
        "params": {
          "data": "Data used in a delegate call to `newImplementation` if non-empty. This will typically be an encoded function call, and allows initializing the storage of the proxy like a Solidity constructor.",
          "newImplementation": "Address of the new implementation contract."
        }
      }
    },
    "stateVariables": {
      "governor": {
        "details": "The governor of the contract."
      },
      "templates": {
        "details": "The number of templates."
      },
      "version": {
        "details": "Returns the version of the implementation.",
        "return": "Version string.",
        "returns": {
          "_0": "Version string."
        }
      }
    },
    "title": "Dispute Template Registry",
    "version": 1
  },
  "userdoc": {
    "errors": {
      "FailedDelegateCall()": [
        {
          "notice": "Failed Delegated call"
        }
      ]
    },
    "kind": "user",
    "methods": {},
    "version": 1
  },
  "storageLayout": {
    "storage": [
      {
        "astId": 10943,
        "contract": "src/arbitration/DisputeTemplateRegistry.sol:DisputeTemplateRegistry",
        "label": "governor",
        "offset": 0,
        "slot": "0",
        "type": "t_address"
      },
      {
        "astId": 10946,
        "contract": "src/arbitration/DisputeTemplateRegistry.sol:DisputeTemplateRegistry",
        "label": "templates",
        "offset": 0,
        "slot": "1",
        "type": "t_uint256"
      }
    ],
    "types": {
      "t_address": {
        "encoding": "inplace",
        "label": "address",
        "numberOfBytes": "20"
      },
      "t_uint256": {
        "encoding": "inplace",
        "label": "uint256",
        "numberOfBytes": "32"
      }
    }
  }
}