{
  "address": "0x602ADa1cE706404BFb5417e497cdDae934436081",
  "abi": [
    {
      "inputs": [],
      "stateMutability": "nonpayable",
      "type": "constructor"
    },
    {
      "inputs": [],
      "name": "AlreadyInitialized",
      "type": "error"
    },
    {
      "inputs": [],
      "name": "AppealFeeIsAlreadyPaid",
      "type": "error"
    },
    {
      "inputs": [],
      "name": "AppealPeriodIsOver",
      "type": "error"
    },
    {
      "inputs": [],
      "name": "AppealPeriodIsOverForLoser",
      "type": "error"
    },
    {
      "inputs": [],
      "name": "ChoiceOutOfBounds",
      "type": "error"
    },
    {
      "inputs": [],
      "name": "CoreIsPaused",
      "type": "error"
    },
    {
      "inputs": [],
      "name": "DisputeJumpedToParentDK",
      "type": "error"
    },
    {
      "inputs": [],
      "name": "DisputeNotResolved",
      "type": "error"
    },
    {
      "inputs": [],
      "name": "EmptyCommit",
      "type": "error"
    },
    {
      "inputs": [],
      "name": "EmptyVoteIDs",
      "type": "error"
    },
    {
      "inputs": [],
      "name": "FailedDelegateCall",
      "type": "error"
    },
    {
      "inputs": [],
      "name": "HashDoesNotMatchHiddenVoteCommitment",
      "type": "error"
    },
    {
      "inputs": [
        {
          "internalType": "address",
          "name": "implementation",
          "type": "address"
        }
      ],
      "name": "InvalidImplementation",
      "type": "error"
    },
    {
      "inputs": [],
      "name": "JurorHasToOwnTheVote",
      "type": "error"
    },
    {
      "inputs": [],
      "name": "KlerosCoreOnly",
      "type": "error"
    },
    {
      "inputs": [],
      "name": "NotActiveForCoreDisputeID",
      "type": "error"
    },
    {
      "inputs": [],
      "name": "NotCommitPeriod",
      "type": "error"
    },
    {
      "inputs": [],
      "name": "NotInitializing",
      "type": "error"
    },
    {
      "inputs": [],
      "name": "NotVotePeriod",
      "type": "error"
    },
    {
      "inputs": [],
      "name": "OwnerOnly",
      "type": "error"
    },
    {
      "inputs": [],
      "name": "UUPSUnauthorizedCallContext",
      "type": "error"
    },
    {
      "inputs": [
        {
          "internalType": "bytes32",
          "name": "slot",
          "type": "bytes32"
        }
      ],
      "name": "UUPSUnsupportedProxiableUUID",
      "type": "error"
    },
    {
      "inputs": [],
      "name": "UnsuccessfulCall",
      "type": "error"
    },
    {
      "inputs": [],
      "name": "VoteAlreadyCast",
      "type": "error"
    },
    {
      "anonymous": false,
      "inputs": [
        {
          "indexed": true,
          "internalType": "uint256",
          "name": "_coreDisputeID",
          "type": "uint256"
        },
        {
          "indexed": true,
          "internalType": "uint256",
          "name": "_coreRoundID",
          "type": "uint256"
        },
        {
          "indexed": true,
          "internalType": "uint256",
          "name": "_choice",
          "type": "uint256"
        }
      ],
      "name": "ChoiceFunded",
      "type": "event"
    },
    {
      "anonymous": false,
      "inputs": [
        {
          "indexed": true,
          "internalType": "uint256",
          "name": "_coreDisputeID",
          "type": "uint256"
        },
        {
          "indexed": true,
          "internalType": "address",
          "name": "_juror",
          "type": "address"
        },
        {
          "indexed": false,
          "internalType": "uint256[]",
          "name": "_voteIDs",
          "type": "uint256[]"
        },
        {
          "indexed": false,
          "internalType": "bytes32",
          "name": "_commit",
          "type": "bytes32"
        }
      ],
      "name": "CommitCast",
      "type": "event"
    },
    {
      "anonymous": false,
      "inputs": [
        {
          "indexed": true,
          "internalType": "uint256",
          "name": "_coreDisputeID",
          "type": "uint256"
        },
        {
          "indexed": true,
          "internalType": "uint256",
          "name": "_coreRoundID",
          "type": "uint256"
        },
        {
          "indexed": false,
          "internalType": "uint256",
          "name": "_choice",
          "type": "uint256"
        },
        {
          "indexed": true,
          "internalType": "address",
          "name": "_contributor",
          "type": "address"
        },
        {
          "indexed": false,
          "internalType": "uint256",
          "name": "_amount",
          "type": "uint256"
        }
      ],
      "name": "Contribution",
      "type": "event"
    },
    {
      "anonymous": false,
      "inputs": [
        {
          "indexed": true,
          "internalType": "uint256",
          "name": "_coreDisputeID",
          "type": "uint256"
        },
        {
          "indexed": false,
          "internalType": "uint256",
          "name": "_numberOfChoices",
          "type": "uint256"
        },
        {
          "indexed": false,
          "internalType": "bytes",
          "name": "_extraData",
          "type": "bytes"
        }
      ],
      "name": "DisputeCreation",
      "type": "event"
    },
    {
      "anonymous": false,
      "inputs": [
        {
          "indexed": false,
          "internalType": "uint64",
          "name": "version",
          "type": "uint64"
        }
      ],
      "name": "Initialized",
      "type": "event"
    },
    {
      "anonymous": false,
      "inputs": [
        {
          "indexed": true,
          "internalType": "address",
          "name": "newImplementation",
          "type": "address"
        }
      ],
      "name": "Upgraded",
      "type": "event"
    },
    {
      "anonymous": false,
      "inputs": [
        {
          "indexed": true,
          "internalType": "uint256",
          "name": "_coreDisputeID",
          "type": "uint256"
        },
        {
          "indexed": true,
          "internalType": "address",
          "name": "_juror",
          "type": "address"
        },
        {
          "indexed": false,
          "internalType": "uint256[]",
          "name": "_voteIDs",
          "type": "uint256[]"
        },
        {
          "indexed": true,
          "internalType": "uint256",
          "name": "_choice",
          "type": "uint256"
        },
        {
          "indexed": false,
          "internalType": "string",
          "name": "_justification",
          "type": "string"
        }
      ],
      "name": "VoteCast",
      "type": "event"
    },
    {
      "anonymous": false,
      "inputs": [
        {
          "indexed": true,
          "internalType": "uint256",
          "name": "_coreDisputeID",
          "type": "uint256"
        },
        {
          "indexed": true,
          "internalType": "uint256",
          "name": "_coreRoundID",
          "type": "uint256"
        },
        {
          "indexed": false,
          "internalType": "uint256",
          "name": "_choice",
          "type": "uint256"
        },
        {
          "indexed": true,
          "internalType": "address",
          "name": "_contributor",
          "type": "address"
        },
        {
          "indexed": false,
          "internalType": "uint256",
          "name": "_amount",
          "type": "uint256"
        }
      ],
      "name": "Withdrawal",
      "type": "event"
    },
    {
      "inputs": [],
      "name": "LOSER_APPEAL_PERIOD_MULTIPLIER",
      "outputs": [
        {
          "internalType": "uint256",
          "name": "",
          "type": "uint256"
        }
      ],
      "stateMutability": "view",
      "type": "function"
    },
    {
      "inputs": [],
      "name": "LOSER_STAKE_MULTIPLIER",
      "outputs": [
        {
          "internalType": "uint256",
          "name": "",
          "type": "uint256"
        }
      ],
      "stateMutability": "view",
      "type": "function"
    },
    {
      "inputs": [],
      "name": "WINNER_STAKE_MULTIPLIER",
      "outputs": [
        {
          "internalType": "uint256",
          "name": "",
          "type": "uint256"
        }
      ],
      "stateMutability": "view",
      "type": "function"
    },
    {
      "inputs": [
        {
          "internalType": "uint256",
          "name": "_coreDisputeID",
          "type": "uint256"
        }
      ],
      "name": "areCommitsAllCast",
      "outputs": [
        {
          "internalType": "bool",
          "name": "",
          "type": "bool"
        }
      ],
      "stateMutability": "view",
      "type": "function"
    },
    {
      "inputs": [
        {
          "internalType": "uint256",
          "name": "_coreDisputeID",
          "type": "uint256"
        }
      ],
      "name": "areVotesAllCast",
      "outputs": [
        {
          "internalType": "bool",
          "name": "",
          "type": "bool"
        }
      ],
      "stateMutability": "view",
      "type": "function"
    },
    {
      "inputs": [
        {
          "internalType": "uint256",
          "name": "_coreDisputeID",
          "type": "uint256"
        },
        {
          "internalType": "uint256[]",
          "name": "_voteIDs",
          "type": "uint256[]"
        },
        {
          "internalType": "bytes32",
          "name": "_commit",
          "type": "bytes32"
        }
      ],
      "name": "castCommit",
      "outputs": [],
      "stateMutability": "nonpayable",
      "type": "function"
    },
    {
      "inputs": [
        {
          "internalType": "uint256",
          "name": "_coreDisputeID",
          "type": "uint256"
        },
        {
          "internalType": "uint256[]",
          "name": "_voteIDs",
          "type": "uint256[]"
        },
        {
          "internalType": "uint256",
          "name": "_choice",
          "type": "uint256"
        },
        {
          "internalType": "uint256",
          "name": "_salt",
          "type": "uint256"
        },
        {
          "internalType": "string",
          "name": "_justification",
          "type": "string"
        }
      ],
      "name": "castVote",
      "outputs": [],
      "stateMutability": "nonpayable",
      "type": "function"
    },
    {
      "inputs": [
        {
          "internalType": "address",
          "name": "_core",
          "type": "address"
        }
      ],
      "name": "changeCore",
      "outputs": [],
      "stateMutability": "nonpayable",
      "type": "function"
    },
    {
      "inputs": [
        {
          "internalType": "uint256",
          "name": "_jumpDisputeKitID",
          "type": "uint256"
        }
      ],
      "name": "changeJumpDisputeKitID",
      "outputs": [],
      "stateMutability": "nonpayable",
      "type": "function"
    },
    {
      "inputs": [
        {
          "internalType": "address payable",
          "name": "_owner",
          "type": "address"
        }
      ],
      "name": "changeOwner",
      "outputs": [],
      "stateMutability": "nonpayable",
      "type": "function"
    },
    {
      "inputs": [],
      "name": "core",
      "outputs": [
        {
          "internalType": "contract KlerosCore",
          "name": "",
          "type": "address"
        }
      ],
      "stateMutability": "view",
      "type": "function"
    },
    {
      "inputs": [
        {
          "internalType": "uint256",
          "name": "coreDisputeID",
          "type": "uint256"
        }
      ],
      "name": "coreDisputeIDToActive",
      "outputs": [
        {
          "internalType": "bool",
          "name": "",
          "type": "bool"
        }
      ],
      "stateMutability": "view",
      "type": "function"
    },
    {
      "inputs": [
        {
          "internalType": "uint256",
          "name": "",
          "type": "uint256"
        }
      ],
      "name": "coreDisputeIDToLocal",
      "outputs": [
        {
          "internalType": "uint256",
          "name": "",
          "type": "uint256"
        }
      ],
      "stateMutability": "view",
      "type": "function"
    },
    {
      "inputs": [
        {
          "internalType": "uint256",
          "name": "_coreDisputeID",
          "type": "uint256"
        },
        {
          "internalType": "uint256",
          "name": "_numberOfChoices",
          "type": "uint256"
        },
        {
          "internalType": "bytes",
          "name": "_extraData",
          "type": "bytes"
        },
        {
          "internalType": "uint256",
          "name": "",
          "type": "uint256"
        }
      ],
      "name": "createDispute",
      "outputs": [],
      "stateMutability": "nonpayable",
      "type": "function"
    },
    {
      "inputs": [
        {
          "internalType": "uint256",
          "name": "_coreDisputeID",
          "type": "uint256"
        }
      ],
      "name": "currentRuling",
      "outputs": [
        {
          "internalType": "uint256",
          "name": "ruling",
          "type": "uint256"
        },
        {
          "internalType": "bool",
          "name": "tied",
          "type": "bool"
        },
        {
          "internalType": "bool",
          "name": "overridden",
          "type": "bool"
        }
      ],
      "stateMutability": "view",
      "type": "function"
    },
    {
      "inputs": [
        {
          "internalType": "uint256",
          "name": "",
          "type": "uint256"
        }
      ],
      "name": "disputes",
      "outputs": [
        {
          "internalType": "uint256",
          "name": "numberOfChoices",
          "type": "uint256"
        },
        {
          "internalType": "bool",
          "name": "jumped",
          "type": "bool"
        },
        {
          "internalType": "bytes",
          "name": "extraData",
          "type": "bytes"
        }
      ],
      "stateMutability": "view",
      "type": "function"
    },
    {
      "inputs": [
        {
          "internalType": "uint256",
          "name": "_coreDisputeID",
          "type": "uint256"
        },
        {
          "internalType": "uint256",
          "name": "_nonce",
          "type": "uint256"
        }
      ],
      "name": "draw",
      "outputs": [
        {
          "internalType": "address",
          "name": "drawnAddress",
          "type": "address"
        },
        {
          "internalType": "uint96",
          "name": "fromSubcourtID",
          "type": "uint96"
        }
      ],
      "stateMutability": "nonpayable",
      "type": "function"
    },
    {
      "inputs": [
        {
          "internalType": "uint256",
          "name": "",
          "type": "uint256"
        }
      ],
      "name": "earlyCourtJump",
      "outputs": [
        {
          "internalType": "bool",
          "name": "",
          "type": "bool"
        }
      ],
      "stateMutability": "pure",
      "type": "function"
    },
    {
      "inputs": [
        {
          "internalType": "address",
          "name": "_destination",
          "type": "address"
        },
        {
          "internalType": "uint256",
          "name": "_amount",
          "type": "uint256"
        },
        {
          "internalType": "bytes",
          "name": "_data",
          "type": "bytes"
        }
      ],
      "name": "executeOwnerProposal",
      "outputs": [],
      "stateMutability": "nonpayable",
      "type": "function"
    },
    {
      "inputs": [
        {
          "internalType": "uint256",
          "name": "_coreDisputeID",
          "type": "uint256"
        },
        {
          "internalType": "uint256",
          "name": "_choice",
          "type": "uint256"
        }
      ],
      "name": "fundAppeal",
      "outputs": [],
      "stateMutability": "payable",
      "type": "function"
    },
    {
      "inputs": [
        {
          "internalType": "uint256",
          "name": "_coreDisputeID",
          "type": "uint256"
        },
        {
          "internalType": "uint256",
          "name": "_coreRoundID",
          "type": "uint256"
        }
      ],
      "name": "getCoherentCount",
      "outputs": [
        {
          "internalType": "uint256",
          "name": "",
          "type": "uint256"
        }
      ],
      "stateMutability": "view",
      "type": "function"
    },
    {
      "inputs": [
        {
          "internalType": "uint256",
          "name": "_coreDisputeID",
          "type": "uint256"
        },
        {
          "internalType": "uint256",
          "name": "_coreRoundID",
          "type": "uint256"
        },
        {
          "internalType": "uint256",
          "name": "_voteID",
          "type": "uint256"
        },
        {
          "internalType": "uint256",
          "name": "",
          "type": "uint256"
        },
        {
          "internalType": "uint256",
          "name": "",
          "type": "uint256"
        }
      ],
      "name": "getDegreeOfCoherencePenalty",
      "outputs": [
        {
          "internalType": "uint256",
          "name": "pnkCoherence",
          "type": "uint256"
        }
      ],
      "stateMutability": "view",
      "type": "function"
    },
    {
      "inputs": [
        {
          "internalType": "uint256",
          "name": "_coreDisputeID",
          "type": "uint256"
        },
        {
          "internalType": "uint256",
          "name": "_coreRoundID",
          "type": "uint256"
        },
        {
          "internalType": "uint256",
          "name": "_voteID",
          "type": "uint256"
        },
        {
          "internalType": "uint256",
          "name": "",
          "type": "uint256"
        },
        {
          "internalType": "uint256",
          "name": "",
          "type": "uint256"
        }
      ],
      "name": "getDegreeOfCoherenceReward",
      "outputs": [
        {
          "internalType": "uint256",
          "name": "pnkCoherence",
          "type": "uint256"
        },
        {
          "internalType": "uint256",
          "name": "feeCoherence",
          "type": "uint256"
        }
      ],
      "stateMutability": "view",
      "type": "function"
    },
    {
      "inputs": [
        {
          "internalType": "uint256",
          "name": "_coreDisputeID",
          "type": "uint256"
        }
      ],
      "name": "getFundedChoices",
      "outputs": [
        {
          "internalType": "uint256[]",
          "name": "fundedChoices",
          "type": "uint256[]"
        }
      ],
      "stateMutability": "view",
      "type": "function"
    },
    {
      "inputs": [],
      "name": "getJumpDisputeKitID",
      "outputs": [
        {
          "internalType": "uint256",
          "name": "",
          "type": "uint256"
        }
      ],
      "stateMutability": "view",
      "type": "function"
    },
    {
      "inputs": [
        {
          "internalType": "uint256",
          "name": "_coreDisputeID",
          "type": "uint256"
        },
        {
          "internalType": "uint256",
          "name": "_coreRoundID",
          "type": "uint256"
        }
      ],
      "name": "getLocalDisputeRoundID",
      "outputs": [
        {
          "internalType": "uint256",
          "name": "localDisputeID",
          "type": "uint256"
        },
        {
          "internalType": "uint256",
          "name": "localRoundID",
          "type": "uint256"
        }
      ],
      "stateMutability": "view",
      "type": "function"
    },
    {
      "inputs": [
        {
          "internalType": "contract IDisputeKit",
          "name": "",
          "type": "address"
        },
        {
          "internalType": "uint256",
          "name": "_currentNbVotes",
          "type": "uint256"
        }
      ],
      "name": "getNbVotesAfterAppeal",
      "outputs": [
        {
          "internalType": "uint256",
          "name": "",
          "type": "uint256"
        }
      ],
      "stateMutability": "pure",
      "type": "function"
    },
    {
      "inputs": [
        {
          "internalType": "uint256",
          "name": "_localDisputeID",
          "type": "uint256"
        }
      ],
      "name": "getNumberOfRounds",
      "outputs": [
        {
          "internalType": "uint256",
          "name": "",
          "type": "uint256"
        }
      ],
      "stateMutability": "view",
      "type": "function"
    },
    {
      "inputs": [
        {
          "internalType": "uint256",
          "name": "_coreDisputeID",
          "type": "uint256"
        },
        {
          "internalType": "uint256",
          "name": "_coreRoundID",
          "type": "uint256"
        },
        {
          "internalType": "uint256",
          "name": "_choice",
          "type": "uint256"
        }
      ],
      "name": "getRoundInfo",
      "outputs": [
        {
          "internalType": "uint256",
          "name": "winningChoice",
          "type": "uint256"
        },
        {
          "internalType": "bool",
          "name": "tied",
          "type": "bool"
        },
        {
          "internalType": "uint256",
          "name": "totalVoted",
          "type": "uint256"
        },
        {
          "internalType": "uint256",
          "name": "totalCommitted",
          "type": "uint256"
        },
        {
          "internalType": "uint256",
          "name": "nbVoters",
          "type": "uint256"
        },
        {
          "internalType": "uint256",
          "name": "choiceCount",
          "type": "uint256"
        }
      ],
      "stateMutability": "view",
      "type": "function"
    },
    {
      "inputs": [
        {
          "internalType": "uint256",
          "name": "_coreDisputeID",
          "type": "uint256"
        },
        {
          "internalType": "uint256",
          "name": "_coreRoundID",
          "type": "uint256"
        },
        {
          "internalType": "uint256",
          "name": "_voteID",
          "type": "uint256"
        }
      ],
      "name": "getVoteInfo",
      "outputs": [
        {
          "internalType": "address",
          "name": "account",
          "type": "address"
        },
        {
          "internalType": "bytes32",
          "name": "commit",
          "type": "bytes32"
        },
        {
          "internalType": "uint256",
          "name": "choice",
          "type": "uint256"
        },
        {
          "internalType": "bool",
          "name": "voted",
          "type": "bool"
        }
      ],
      "stateMutability": "view",
      "type": "function"
    },
    {
      "inputs": [
        {
          "internalType": "uint256",
          "name": "_choice",
          "type": "uint256"
        },
        {
          "internalType": "uint256",
          "name": "_salt",
          "type": "uint256"
        },
        {
          "internalType": "string",
          "name": "",
          "type": "string"
        }
      ],
      "name": "hashVote",
      "outputs": [
        {
          "internalType": "bytes32",
          "name": "",
          "type": "bytes32"
        }
      ],
      "stateMutability": "view",
      "type": "function"
    },
    {
      "inputs": [
        {
          "internalType": "address",
          "name": "_owner",
          "type": "address"
        },
        {
          "internalType": "contract KlerosCore",
          "name": "_core",
          "type": "address"
        },
        {
          "internalType": "address",
          "name": "_wNative",
          "type": "address"
        },
        {
          "internalType": "uint256",
          "name": "_jumpDisputeKitID",
          "type": "uint256"
        }
      ],
      "name": "initialize",
      "outputs": [],
      "stateMutability": "nonpayable",
      "type": "function"
    },
    {
      "inputs": [
        {
          "internalType": "uint256",
          "name": "_coreDisputeID",
          "type": "uint256"
        }
      ],
      "name": "isAppealFunded",
      "outputs": [
        {
          "internalType": "bool",
          "name": "",
          "type": "bool"
        }
      ],
      "stateMutability": "view",
      "type": "function"
    },
    {
      "inputs": [
        {
          "internalType": "uint256",
          "name": "_coreDisputeID",
          "type": "uint256"
        },
        {
          "internalType": "uint256",
          "name": "_coreRoundID",
          "type": "uint256"
        },
        {
          "internalType": "uint256",
          "name": "_voteID",
          "type": "uint256"
        }
      ],
      "name": "isVoteActive",
      "outputs": [
        {
          "internalType": "bool",
          "name": "",
          "type": "bool"
        }
      ],
      "stateMutability": "view",
      "type": "function"
    },
    {
      "inputs": [],
      "name": "jumpDisputeKitID",
      "outputs": [
        {
          "internalType": "uint256",
          "name": "",
          "type": "uint256"
        }
      ],
      "stateMutability": "view",
      "type": "function"
    },
    {
      "inputs": [],
      "name": "owner",
      "outputs": [
        {
          "internalType": "address",
          "name": "",
          "type": "address"
        }
      ],
      "stateMutability": "view",
      "type": "function"
    },
    {
      "inputs": [],
      "name": "proxiableUUID",
      "outputs": [
        {
          "internalType": "bytes32",
          "name": "",
          "type": "bytes32"
        }
      ],
      "stateMutability": "view",
      "type": "function"
    },
    {
      "inputs": [],
      "name": "singleDrawPerJuror",
      "outputs": [
        {
          "internalType": "bool",
          "name": "",
          "type": "bool"
        }
      ],
      "stateMutability": "view",
      "type": "function"
    },
    {
      "inputs": [
        {
          "internalType": "address",
          "name": "newImplementation",
          "type": "address"
        },
        {
          "internalType": "bytes",
          "name": "data",
          "type": "bytes"
        }
      ],
      "name": "upgradeToAndCall",
      "outputs": [],
      "stateMutability": "payable",
      "type": "function"
    },
    {
      "inputs": [],
      "name": "version",
      "outputs": [
        {
          "internalType": "string",
          "name": "",
          "type": "string"
        }
      ],
      "stateMutability": "view",
      "type": "function"
    },
    {
      "inputs": [],
      "name": "wNative",
      "outputs": [
        {
          "internalType": "address",
          "name": "",
          "type": "address"
        }
      ],
      "stateMutability": "view",
      "type": "function"
    },
    {
      "inputs": [
        {
          "internalType": "uint256",
          "name": "_coreDisputeID",
          "type": "uint256"
        },
        {
          "internalType": "address payable",
          "name": "_beneficiary",
          "type": "address"
        },
        {
          "internalType": "uint256",
          "name": "_coreRoundID",
          "type": "uint256"
        },
        {
          "internalType": "uint256",
          "name": "_choice",
          "type": "uint256"
        }
      ],
      "name": "withdrawFeesAndRewards",
      "outputs": [
        {
          "internalType": "uint256",
          "name": "amount",
          "type": "uint256"
        }
      ],
      "stateMutability": "nonpayable",
      "type": "function"
    }
  ],
  "transactionHash": "0x140fcdeaa468903f80081c238adf55c9e98ed99dfccc7d9c3e5f1b0fe90cf644",
  "args": [],
  "numDeployments": 1,
  "solcInputHash": "d547d738900bce1310e91a5d1adfc179",
  "bytecode": "0x60a080604052346100c157306080525f5160206133bf5f395f51905f525460ff8160401c166100b3576002600160401b03196001600160401b03821601610060575b6040516132f990816100c682396080518181816117f601526118a60152f35b6001600160401b0319166001600160401b039081175f5160206133bf5f395f51905f525581527fc7f505b2f371ae2175ee4913f4499e1f2633a7b5936321eed1cdaeb6115181d290602090a15f80610041565b62dc149f60e41b5f5260045ffd5b5f80fdfe6080806040526004361015610012575f80fd5b5f905f3560e01c9081630855bbe914612836575080630baa64d1146127e25780631200aabc146127b8578063149a5dc0146127a55780631c3db16d146126755780631cc3423a146126335780632621b9a2146126115780632d68efc9146125eb578063362c34791461222d5780634b2f0ea014611ad65780634e514a1b14611ab95780634f1ef2861461185557806352d1902d146117db57806354fd4d501461177a578063564a565d1461166e5780635c92e2f6146113fc57806365540b961461139a57806369f3f041146113095780636a8c9194146112725780636d4cd8ea1461111e57806372d610d9146110e35780637c04034e14610b915780638da5cb5b14610b6b5780638e42646014610b145780639146cd4714610aaf5780639d61ab6e14610a86578063a0d216d114610a68578063a6f9dae114610a11578063a7cc08fe14610997578063b34bfaa81461097a578063b6ede5401461067a578063b70020d61461064b578063ba66fde7146105f4578063be467604146105d7578063cf756fdf14610380578063d2b8035a146102ee578063da3beb8c146102cc578063e349ad30146102af578063f2f4eb2614610288578063f32ab92714610246578063f8abee10146102175763fc6f8f16146101ec575f80fd5b3461021457602036600319011261021457602061020a6004356129ee565b5054604051908152f35b80fd5b50346102145760203660031901126102145760ff60406020926004358152600584522054166040519015158152f35b50346102145760409081610259366129b4565b92908152600360205260038282205493610272856129ee565b5090835201602052205482519182526020820152f35b503461021457806003193601126102145760206001600160a01b0360015416604051908152f35b503461021457806003193601126102145760206040516127108152f35b50346102145760206102e66102e0366129b4565b90612fd2565b604051908152f35b5034610214576102fd366129b4565b916001600160a01b0360015416330361037257818152600360205260ff600261032960408420546129ee565b500154166103635760406bffffffffffffffffffffffff61034a8585612cec565b6001600160a01b03849392935193168352166020820152f35b8063070f7fa560e51b60049252fd5b80628448c760e31b60049252fd5b50346102145760803660031901126102145761039a61299e565b6024356001600160a01b0381168091036105d3576044356001600160a01b0381168091036105cf577ff0c57e16840df040f15088dc2f81fe391c3923bec73e23a9662efc9c229c6a0e549160ff8360401c16159267ffffffffffffffff811684806105c5575b1590816105a7575b5061057f5767ffffffffffffffff1981166001177ff0c57e16840df040f15088dc2f81fe391c3923bec73e23a9662efc9c229c6a0e5583610540575b507ff0c57e16840df040f15088dc2f81fe391c3923bec73e23a9662efc9c229c6a0e549360ff8560401c1615610518576001600160a01b03166001600160a01b03198654161785556001600160a01b031960015416176001556001600160a01b031960065416176006556064356007556104bc575080f35b68ff000000000000000019167ff0c57e16840df040f15088dc2f81fe391c3923bec73e23a9662efc9c229c6a0e557fc7f505b2f371ae2175ee4913f4499e1f2633a7b5936321eed1cdaeb6115181d2602060405160018152a180f35b6004867fd7e6bcf8000000000000000000000000000000000000000000000000000000008152fd5b68ffffffffffffffffff191668010000000000000001177ff0c57e16840df040f15088dc2f81fe391c3923bec73e23a9662efc9c229c6a0e555f610444565b6004867f0dc149f0000000000000000000000000000000000000000000000000000000008152fd5b303b159150816105ba575b50155f610408565b60019150145f6105b2565b5060018110610400565b8380fd5b8280fd5b503461021457806003193601126102145760206040516113888152f35b50346102145760ff61063e604061063860209461061036612a73565b94918391935260038852610626828220546129ee565b50928152600383018852205490612ae1565b50612cd3565b5054166040519015158152f35b50346102145780600319360112610214575060075480610672575060206001604051908152f35b6020906102e6565b50346102145760803660031901126102145760043560443560243567ffffffffffffffff82116105cf57366023830112156105cf57816004013567ffffffffffffffff8111610976573660248285010111610976576001600160a01b0360015416330361096857600254680100000000000000008110156109545760018101600255610705816129ee565b508360018201556004810161071a8154612a0a565b601f811161090f575b508388601f82116001146108a6578991610898575b508460011b905f198660031b1c19161790555b6002810160ff1981541690558054602460206001600160a01b036001541660405192838092637e37c78b60e11b82528c60048301525afa90811561088d578991610857575b505f198101908111610843576107dd606095937fd3106f74c2d30a4b9230e756a3e78bde53865d40f6af4c479bb010ebaab58108989795936003938c5283820160205260408c2055612bca565b5001600160ff1982541617905586885260036020526040882055858752600560205260408720600160ff1982541617905580602460405195869485526040602086015282604086015201848401378181018301879052601f01601f19168101030190a280f35b602489634e487b7160e01b81526011600452fd5b90506020813d602011610885575b816108726020938361291c565b8101031261088157515f610790565b5f80fd5b3d9150610865565b6040513d8b823e3d90fd5b60249150870101355f610738565b828a5260208a20915085601f1981168b5b8a8282106108f2575050106108d6575b5050600184811b01905561074b565b8701602401355f19600387901b60f8161c191690555f806108c7565b8401602401358555600190940193602093840193899350016108b7565b81895260208920601f860160051c8101916020871061094a575b601f0160051c01905b81811061093f5750610723565b898155600101610932565b9091508190610929565b602486634e487b7160e01b81526041600452fd5b600485628448c760e31b8152fd5b8480fd5b50346102145780600319360112610214576020604051614e208152f35b5034610214576109db60406106386080936109b136612a73565b94918391935260036020526109c8828220546129ee565b5092815260038301602052205490612ae1565b5060ff815460026001840154930154604051936001600160a01b038360081c168552602085015260408401521615156060820152f35b503461021457602036600319011261021457610a2b61299e565b815490336001600160a01b03831603610a59576001600160a01b036001600160a01b03199116911617815580f35b600483630b2db9b760e31b8152fd5b50346102145780600319360112610214576020600754604051908152f35b5034610214576040610aa2610a9a366128fa565b5050916130b9565b8151908082526020820152f35b5034610214576040366003190112610214576004356001600160a01b0381160361021457602435908160011b9180830460021490151715610b005760018201809211610b0057602082604051908152f35b80634e487b7160e01b602492526011600452fd5b503461021457602036600319011261021457610b2e61299e565b6001600160a01b038254163303610b5c576001600160a01b03166001600160a01b0319600154161760015580f35b600482630b2db9b760e31b8152fd5b50346102145780600319360112610214576001600160a01b036020915416604051908152f35b50346102145760a03660031901126102145760043560243567ffffffffffffffff81116105d357610bc6903690600401612a42565b90916044359260843567ffffffffffffffff81116110df57610bec90369060040161295a565b92828652600360205260ff6002610c0660408920546129ee565b500154166110d0576001600160a01b036001541660405163564a565d60e01b815284600482015260a081602481855afa9081156110c55788916110a1575b50600581101561108d5760020361106557811561103d57838752600560205260ff6040882054161561102e578387526003602052604087205490610c87826129ee565b50906001820154881161101f5781545f1981019290831161100b5782610cac91612ae1565b509260405163564a565d60e01b815287600482015260a081602481865afa908b8215610fff5760c0926bffffffffffffffffffffffff9260249291610fcc575b506040519586938492630fad06e960e11b84521660048301525afa918215610fc1578a92610f8a575b50610d226064358a612b6e565b908a5b868110610e6b575050505050908160047fa000893c71384499023d2d7b21234f7b9e80c78e0330f357dcd667ff578bd3a4949301610d64838254612bbd565b905560028101908789528160205260408920610d81848254612bbd565b90558760018201928354908183145f14610de7575050506003915001805460ff8116610dda575b50505b610dd4610dc5604051938493604085526040850191613286565b828103602084015233966129ca565b0390a480f35b60ff191690555f80610da8565b828c528060205260408c2054828d528160205260408d2054145f14610e31575050506003915001805460ff811615610e21575b5050610dab565b60ff191660011790555f80610e1a565b828c528060205260408c2054918c5260205260408b205410610e56575b505050610dab565b600392550160ff1981541690555f8087610e4e565b610e80610e7982898b613276565b3587612cd3565b506001600160a01b0333915460081c1603610f7b578380610f4b575b610f235760ff610eb7610eb0838a8c613276565b3588612cd3565b505416610efb57808b6002610ed9610ed26001958c8e613276565b358a612cd3565b500155610eea610eb0828a8c613276565b50805460ff19168317905501610d25565b60048c7fb3808bab000000000000000000000000000000000000000000000000000000008152fd5b60048c7f953075a3000000000000000000000000000000000000000000000000000000008152fd5b50826001610f71610f5d848b8d613276565b3561063889610f6b886129ee565b50612ae1565b5001541415610e9c565b60048c638016bef760e01b8152fd5b610fad91925060c03d60c011610fba575b610fa5818361291c565b810190612c97565b505050509050905f610d15565b503d610f9b565b6040513d8c823e3d90fd5b610fee915060a03d60a011610ff8575b610fe6818361291c565b810190612b20565b505050505f610cec565b503d610fdc565b604051903d90823e3d90fd5b60248a634e487b7160e01b81526011600452fd5b600489637cd5012560e11b8152fd5b6004876333f97f8960e01b8152fd5b6004877fb7a08e6e000000000000000000000000000000000000000000000000000000008152fd5b6004877febd6a5e7000000000000000000000000000000000000000000000000000000008152fd5b602488634e487b7160e01b81526021600452fd5b6110ba915060a03d60a011610ff857610fe6818361291c565b50509150505f610c44565b6040513d8a823e3d90fd5b60048663070f7fa560e51b8152fd5b8580fd5b5034610214576020366003190112610214576001600160a01b03815416330361110f5760043560075580f35b80630b2db9b760e31b60049252fd5b503461021457602036600319011261021457600435808252600360205261114860408320546129ee565b5080545f1981019190821161125e579061116191612ae1565b50906001600160a01b0360015416906040519063564a565d60e01b8252600482015260a081602481855afa80156112535760246bffffffffffffffffffffffff9160c0938791611230575b506040519485938492630fad06e960e11b84521660048301525afa908115611225579260209381926111fe575b5050156111f45760046005820154915b015414604051908152f35b60048154916111e9565b61121891925060c03d60c011610fba57610fa5818361291c565b505050509050905f6111d9565b6040513d85823e3d90fd5b611249915060a03d60a011610ff857610fe6818361291c565b505050505f6111ac565b6040513d86823e3d90fd5b602484634e487b7160e01b81526011600452fd5b50346102145760603660031901126102145761128c61299e565b60443567ffffffffffffffff81116105d3576112ac90369060040161295a565b906001600160a01b038354163303610a5957818392916020849351920190602435905af16112d8612bf0565b50156112e15780f35b807f44125e5e0000000000000000000000000000000000000000000000000000000060049252fd5b50346102145761134a60c09161131e36612a73565b93918352600360205261133460408420546129ee565b5090835260038101602052604083205490612ae1565b509160018301549260ff60038201541692604060048301549160026005850154948054968352016020522054936040519586521515602086015260408501526060840152608083015260a0820152f35b5034610214576020366003190112610214576113b7600435612c1f565b90604051918291602083016020845282518091526020604085019301915b8181106113e3575050500390f35b82518452859450602093840193909201916001016113d5565b50346102145760603660031901126102145760043560243567ffffffffffffffff81116105d357611431903690600401612a42565b60449291923592828552600360205260ff600261145160408820546129ee565b5001541661165f57602460a06001600160a01b03600154166040519283809263564a565d60e01b82528860048301525afa908115611654578691611630575b50600581101561161c576001036115f45783156115cc57828552600560205260ff604086205416156115bd5782855260036020526114d160408620546129ee565b5080545f198101919082116115a957906114ea91612ae1565b50855b83811061154d57507f05cc2f1c94966f1c961b410a50f3d3ffb64501346753a258177097ea23707f089291600561153e920161152a848254612bbd565b905560405192604084526040840191613286565b9360208201528033940390a380f35b61156261155b828686613276565b3583612cd3565b506001600160a01b0333915460081c160361159a578086600161159161158a82958989613276565b3586612cd3565b500155016114ed565b600487638016bef760e01b8152fd5b602487634e487b7160e01b81526011600452fd5b6004856333f97f8960e01b8152fd5b6004857f37b5b73d000000000000000000000000000000000000000000000000000000008152fd5b6004857f97ab7f79000000000000000000000000000000000000000000000000000000008152fd5b602486634e487b7160e01b81526021600452fd5b611649915060a03d60a011610ff857610fe6818361291c565b50509150505f611490565b6040513d88823e3d90fd5b60048563070f7fa560e51b8152fd5b50346102145760203660031901126102145760043560025481101561177657611696906129ee565b5090600182015490600460ff60028501541693019060405191818154916116bc83612a0a565b808652926001811690811561174c575060011461170b575b505050906116e78161170793038261291c565b6040519384938452151560208401526060604084015260608301906129ca565b0390f35b815260208120939250905b808210611732575090915081016020016116e7826117076116d4565b919260018160209254838588010152019101909291611716565b869550611707969350602092506116e794915060ff191682840152151560051b82010192936116d4565b5080fd5b50346102145780600319360112610214575061170760405161179d60408261291c565b600581527f322e302e3000000000000000000000000000000000000000000000000000000060208201526040519182916020835260208301906129ca565b50346102145780600319360112610214576001600160a01b037f00000000000000000000000000000000000000000000000000000000000000001630036118465760206040517f360894a13ba1a3210667c828492db98dca3e2076cc3735a920a3ca505d382bbc8152f35b8063703e46dd60e11b60049252fd5b5060403660031901126102145761186a61299e565b9060243567ffffffffffffffff81116117765761188b90369060040161295a565b6001600160a01b038254163303610b5c576001600160a01b037f000000000000000000000000000000000000000000000000000000000000000016803014908115611a84575b50611a75576001600160a01b03831690604051937f52d1902d000000000000000000000000000000000000000000000000000000008552602085600481865afa80958596611a41575b5061194b57602484847f0c760937000000000000000000000000000000000000000000000000000000008252600452fd5b90917f360894a13ba1a3210667c828492db98dca3e2076cc3735a920a3ca505d382bbc8503611a1557839450817f360894a13ba1a3210667c828492db98dca3e2076cc3735a920a3ca505d382bbc557fbc7cd75a20ee27fd9adebab32041f755214dbc6bffa90cc0225b39da2e5c2d3b8480a2815190816119ce575b5050505080f35b6020849301905af46119de612bf0565b50156119ed57805f80806119c7565b807f736436ba0000000000000000000000000000000000000000000000000000000060049252fd5b602484867faa1d49a4000000000000000000000000000000000000000000000000000000008252600452fd5b9095506020813d602011611a6d575b81611a5d6020938361291c565b810103126109765751945f61191a565b3d9150611a50565b60048263703e46dd60e11b8152fd5b90506001600160a01b037f360894a13ba1a3210667c828492db98dca3e2076cc3735a920a3ca505d382bbc541614155f6118d1565b503461021457602036600319011261021457602090604051908152f35b50611ae0366129b4565b90805f52600360205260ff6002611afa60405f20546129ee565b5001541661221e57805f526003602052611b1760405f20546129ee565b509060018201908154841161220f57805f52600560205260ff60405f20541615612200576001600160a01b036001541660405163afe15cfb60e01b8152826004820152604081602481855afa908115611e61575f905f926121ce575b5080421080156121c4575b61219c57604051631c3db16d60e01b8152846004820152606081602481305afa8015611e615788915f9161216b575b5003612106575050612710945b84545f1981019081116120be57611bd19086612ae1565b5060405191637e37c78b60e11b8352846004840152602083602481875afa928315611e61575f936120d2575b505f1983018381116120be576007830198825f528960205260ff60405f205416612096576020602496604051978880927f59ec827e0000000000000000000000000000000000000000000000000000000082528b60048301525afa958615611e61575f96612060575b50612710611c77611c7e9288612ab0565b0486612bbd565b985f996006850190845f528160205260405f20548111611fea575b6001600160a01b0333165f526008860160205260405f20855f5260205260405f20611cc58d8254612bbd565b9055845f528160205260405f20611cdd8d8254612bbd565b9055845f528160205260405f20541015611f34575b505050506001600a82015411611d37575b505050505050803411611d14575080f35b611d21611d349134612aa3565b6001600160a01b03600654169033613173565b80f35b600901611d45838254612aa3565b9055602460206001600160a01b0360015416604051928380927f19b815290000000000000000000000000000000000000000000000000000000082528860048301525afa908115611e61575f91611efa575b5015611ecc575060028401805460ff191660011790555b60046001600160a01b036001541693549401833b15610881576040519485937fc356990200000000000000000000000000000000000000000000000000000000855260048501526024840152606060448401525f90805490611e0f82612a0a565b918260648701526001811690815f14611ea75750600114611e6c575b50505f939183809203925af18015611e6157611e4c575b8080808080611d03565b611e599192505f9061291c565b5f905f611e42565b6040513d5f823e3d90fd5b5f908152602081209092505b818310611e8d57505082016084018183611e2b565b805460848489010152869450602090920191600101611e78565b60ff191660848088019190915292151560051b86019092019250839150849050611e2b565b8454905f526003850160205260405f20556003611ee885612bca565b5001805460ff19166001179055611dae565b90506020813d602011611f2c575b81611f156020938361291c565b8101031261088157611f2690612b13565b5f611d97565b3d9150611f08565b835f5260205260405f2054611f4e60098601918254612bbd565b9055600a8401805468010000000000000000811015611fd65760018101808355811015611fc25784915f5260205f200155825f5260205260405f20600160ff19825416179055857fed764996238e4c1c873ae3af7ae2f00f1f6f4f10b9ac7d4bbea4a764c5dea0095f80a45f808080611cf2565b634e487b7160e01b5f52603260045260245ffd5b634e487b7160e01b5f52604160045260245ffd5b9a50835f528060205261200160405f20548c612aa3565b34101561204557349a5b8b604051908682526020820152848a7fcae597f39a3ad75c2e10d46b031f023c5c2babcd58ca0491b122acda3968d4c060403394a4611c99565b835f528060205261205a60405f20548c612aa3565b9a61200b565b9095506020813d60201161208e575b8161207c6020938361291c565b81010312610881575194612710611c66565b3d915061206f565b7fbcdf54db000000000000000000000000000000000000000000000000000000005f5260045ffd5b634e487b7160e01b5f52601160045260245ffd5b9092506020813d6020116120fe575b816120ee6020938361291c565b810103126108815751915f611bfd565b3d91506120e1565b8061211461211a9242612aa3565b92612aa3565b61138881029080820461138814901517156120be576127109004111561214357614e2094611bba565b7f508aa06c000000000000000000000000000000000000000000000000000000005f5260045ffd5b61218d915060603d606011612195575b612185818361291c565b810190612b94565b50505f611bad565b503d61217b565b7f13e72a50000000000000000000000000000000000000000000000000000000005f5260045ffd5b5081421015611b7e565b90506121f2915060403d6040116121f9575b6121ea818361291c565b810190612a8d565b905f611b73565b503d6121e0565b6333f97f8960e01b5f5260045ffd5b637cd5012560e11b5f5260045ffd5b63070f7fa560e51b5f5260045ffd5b34610881576080366003190112610881576024356004356001600160a01b03821680830361088157604435606435925f936001600160a01b03600154169460405163564a565d60e01b815283600482015260a0816024818a5afa908115611e61575f916125c7575b501561259f576040517f5c975abb0000000000000000000000000000000000000000000000000000000081526020816004818a5afa908115611e61575f91612565575b5061253d57825f52600560205260ff60405f2054161561220057825f5260036020526024606061232461230e60405f20546129ee565b50875f526003810160205260405f205490612ae1565b509760405192838092631c3db16d60e01b82528860048301525afa908115611e61575f9161251c575b506007870190835f528160205260ff60405f205416155f146123ff57505050602095845f5260088601875260405f20825f528752600860405f2054965b865f5201875260405f20825f5287525f6040812055856123af575b8686604051908152f35b7f54b3cab3cb5c4aca3209db1151caff092e878011202e43a36782d4ebe0b963ae916123ea604092886001600160a01b036006541691613173565b81519081528688820152a482808080806123a5565b83810361246d5750505060209560068601825f5280885260405f205415155f146124645761245e600891875f528289018a5260405f20855f528a5261244d60405f205460098b015490612ab0565b90855f528a5260405f205490612ac3565b9661238a565b5060085f61245e565b5f9792975260205260ff60405f2054161561248e575b95600860209761238a565b9450835f526008850160205260405f20815f526020526124b760405f2054600987015490612ab0565b956006860196600a870197885415611fc257885f5260205f20545f528060205260405f205491895460011015611fc25761250c6008936125129360209c5f5260018d5f2001545f528c5260405f205490612bbd565b90612ac3565b9691975050612483565b612535915060603d60601161219557612185818361291c565b50508861234d565b7f88226c22000000000000000000000000000000000000000000000000000000005f5260045ffd5b90506020813d602011612597575b816125806020938361291c565b810103126108815761259190612b13565b886122d8565b3d9150612573565b7f8a7dc9ee000000000000000000000000000000000000000000000000000000005f5260045ffd5b6125e0915060a03d60a011610ff857610fe6818361291c565b509250505088612295565b34610881575f3660031901126108815760206001600160a01b0360065416604051908152f35b34610881575f36600319011261088157602060ff600454166040519015158152f35b346108815760603660031901126108815760443567ffffffffffffffff81116108815761266490369060040161295a565b5060206102e6602435600435612b6e565b34610881576020366003190112610881576004355f90805f5260036020526126a060405f20546129ee565b5080545f1981019081116120be576126b791612ae1565b50600381015460ff169290831561279c57505f5b91602460a06001600160a01b03600154166040519283809263564a565d60e01b82528660048301525afa908115611e61575f91612778575b5060058110156127645760041461272f575b506060926040519283521515602083015215156040820152f35b61273890612c1f565b9283516001811461274b575b5092612715565b9250505015611fc2576020015160609060015f84612744565b634e487b7160e01b5f52602160045260245ffd5b612791915060a03d60a011610ff857610fe6818361291c565b505091505085612703565b600101546126cb565b346108815760206102e6610a9a366128fa565b34610881576020366003190112610881576004355f526003602052602060405f2054604051908152f35b34610881576020366003190112610881576004355f52600360205261280a60405f20546129ee565b5080545f198101919082116120be5760209161282591612ae1565b506005810154905414604051908152f35b3461088157602036600319011261088157600435906040816024816001600160a01b036001541663afe15cfb60e01b82528660048301525afa918215611e61575f915f936128d3575b5061288990612c1f565b5115908161289f575b6020826040519015158152f35b6128ae91506121148142612aa3565b9061138882029180830461138814901517156120be5761271060209204111582612892565b6128f2919350612889925060403d6040116121f9576121ea818361291c565b92909161287f565b60a0906003190112610881576004359060243590604435906064359060843590565b90601f8019910116810190811067ffffffffffffffff821117611fd657604052565b67ffffffffffffffff8111611fd657601f01601f191660200190565b81601f82011215610881576020813591016129748261293e565b92612982604051948561291c565b8284528282011161088157815f92602092838601378301015290565b600435906001600160a01b038216820361088157565b6040906003190112610881576004359060243590565b805180835260209291819084018484015e5f828201840152601f01601f1916010190565b600254811015611fc25760025f52600f60205f20910201905f90565b90600182811c92168015612a38575b6020831014612a2457565b634e487b7160e01b5f52602260045260245ffd5b91607f1691612a19565b9181601f840112156108815782359167ffffffffffffffff8311610881576020808501948460051b01011161088157565b606090600319011261088157600435906024359060443590565b9190826040910312610881576020825192015190565b919082039182116120be57565b818102929181159184041417156120be57565b8115612acd570490565b634e487b7160e01b5f52601260045260245ffd5b8054821015611fc2575f52601660205f20910201905f90565b51906bffffffffffffffffffffffff8216820361088157565b5190811515820361088157565b908160a091031261088157612b3481612afa565b9160208201516001600160a01b038116810361088157916040810151600581101561088157916080612b6860608401612b13565b92015190565b906040519060208201928352604082015260408152612b8e60608261291c565b51902090565b9081606091031261088157805191612bba6040612bb360208501612b13565b9301612b13565b90565b919082018092116120be57565b805468010000000000000000811015611fd657612bec91600182018155612ae1565b9091565b3d15612c1a573d90612c018261293e565b91612c0f604051938461291c565b82523d5f602084013e565b606090565b5f526003602052612c3360405f20546129ee565b5080545f198101919082116120be57600a91612c4e91612ae1565b5001604051808260208294549384815201905f5260205f20925f5b818110612c7e575050612bba9250038261291c565b8454835260019485019486945060209093019201612c69565b91908260c091031261088157612cac82612afa565b91612cb960208201612b13565b9160408201519160608101519160a0608083015192015190565b8054821015611fc2575f52600d60205f20910201905f90565b9091815f526003602052612d0360405f20546129ee565b5080545f1981019081116120be57612d1a91612ae1565b506001600160a01b03600154166040517f2e1daf2f000000000000000000000000000000000000000000000000000000008152602081600481855afa908115611e61575f91612f8d575b5060a06024926040519384809263564a565d60e01b82528960048301525afa918215611e61576040926bffffffffffffffffffffffff926064925f92612f5f575b506001600160a01b03908551998a9586947fd045e0020000000000000000000000000000000000000000000000000000000086521660048501528960248501526044840152165afa928315611e61575f945f94612f0c575b5083856001600160a01b03811615612f0457505060045460ff1615612efc575f526003602052612e3060405f20546129ee565b5080545f198101919082116120be57600b91612e4b91612ae1565b506001600160a01b0386165f520160205260ff60405f205416155b15612ef65780549068010000000000000000821015611fd657612e91826001600b9401835582612cd3565b5080547fffffffffffffffffffffff0000000000000000000000000000000000000000ff74ffffffffffffffffffffffffffffffffffffffff008860081b1691161790556001600160a01b0385165f520160205260405f20600160ff19825416179055565b505f9250565b506001612e66565b955093505050565b945092506040843d604011612f57575b81612f296040938361291c565b81010312610881578351936001600160a01b0385168503610881576020612f509101612afa565b925f612dfd565b3d9150612f1c565b6001600160a01b03919250612f829060a03d60a011610ff857610fe6818361291c565b505050509190612da5565b90506020813d602011612fca575b81612fa86020938361291c565b810103126108815751906001600160a01b0382168203610881579060a0612d64565b3d9150612f9b565b9061300290825f526003602052612fec60405f20546129ee565b50905f526003810160205260405f205490612ae1565b5060606001600160a01b036001541692602460405180958193631c3db16d60e01b835260048301525afa918215611e61575f905f93613094575b5060048201549283158015613075575b1561305957505050505f90565b1561306357505090565b600292505f520160205260405f205490565b508015801561304c5750815f526002830160205260405f20541561304c565b90506130b091925060603d60601161219557612185818361291c565b5091905f61303c565b916106386130d692845f526003602052612fec60405f20546129ee565b509060606001600160a01b036001541691602460405180948193631c3db16d60e01b835260048301525afa908115611e61575f905f92613150575b5060ff8354169283613131575b5050505f1461312d5761271090565b5f90565b600201541491508115613148575b505f808061311e565b90505f61313f565b905061316b915060603d60601161219557612185818361291c565b50905f613111565b6001600160a01b0316905f925f8284811561326c575b5f92839283928392f1613266576001600160a01b031691823b15610881576040517fd0e30db00000000000000000000000000000000000000000000000000000000081525f8160048186885af18015611e6157613251575b50823b156105cf5790604484928360405195869485937fa9059cbb000000000000000000000000000000000000000000000000000000008552600485015260248401525af1801561324657613234575050565b61323f82809261291c565b6102145750565b6040513d84823e3d90fd5b61325e9194505f9061291c565b5f925f6131e1565b50505050565b6108fc9250613189565b9190811015611fc25760051b0190565b90918281527f07ffffffffffffffffffffffffffffffffffffffffffffffffffffffffffffff83116108815760209260051b80928483013701019056fea2646970667358221220b5aaba208006c2770b2a559bb6595fe7390db7c206ee67f59edf25055757c98c64736f6c634300081e0033f0c57e16840df040f15088dc2f81fe391c3923bec73e23a9662efc9c229c6a0e",
  "devdoc": {
    "errors": {
      "AlreadyInitialized()": [
        {
          "details": "The contract is already initialized."
        }
      ],
      "NotInitializing()": [
        {
          "details": "The contract is not initializing."
        }
      ]
    },
    "events": {
      "ChoiceFunded(uint256,uint256,uint256)": {
        "params": {
          "_choice": "The choice that is being funded.",
          "_coreDisputeID": "The identifier of the dispute in the Arbitrator contract.",
          "_coreRoundID": "The identifier of the round in the Arbitrator contract."
        }
      },
      "CommitCast(uint256,address,uint256[],bytes32)": {
        "params": {
          "_commit": "The commitment of the juror.",
          "_coreDisputeID": "The identifier of the dispute in the Arbitrator contract.",
          "_juror": "The address of the juror casting the vote commitment.",
          "_voteIDs": "The identifiers of the votes in the dispute."
        }
      },
      "Contribution(uint256,uint256,uint256,address,uint256)": {
        "params": {
          "_amount": "The amount contributed.",
          "_choice": "The choice that is being funded.",
          "_contributor": "The address of the contributor.",
          "_coreDisputeID": "The identifier of the dispute in the Arbitrator contract.",
          "_coreRoundID": "The identifier of the round in the Arbitrator contract."
        }
      },
      "DisputeCreation(uint256,uint256,bytes)": {
        "params": {
          "_coreDisputeID": "The identifier of the dispute in the Arbitrator contract.",
          "_extraData": "The extra data for the dispute.",
          "_numberOfChoices": "The number of choices available in the dispute."
        }
      },
      "Initialized(uint64)": {
        "details": "Triggered when the contract has been initialized or reinitialized."
      },
      "Upgraded(address)": {
        "params": {
          "newImplementation": "Address of the new implementation the proxy is now forwarding calls to."
        }
      },
      "VoteCast(uint256,address,uint256[],uint256,string)": {
        "params": {
          "_choice": "The choice juror voted for.",
          "_coreDisputeID": "The identifier of the dispute in the Arbitrator contract.",
          "_juror": "Address of the juror.",
          "_justification": "Justification of the choice.",
          "_voteIDs": "The identifiers of the votes in the dispute."
        }
      },
      "Withdrawal(uint256,uint256,uint256,address,uint256)": {
        "params": {
          "_amount": "The amount withdrawn.",
          "_choice": "The choice that is being funded.",
          "_contributor": "The address of the contributor.",
          "_coreDisputeID": "The identifier of the dispute in the Arbitrator contract.",
          "_coreRoundID": "The identifier of the round in the Arbitrator contract."
        }
      }
    },
    "kind": "dev",
    "methods": {
      "areCommitsAllCast(uint256)": {
        "params": {
          "_coreDisputeID": "The ID of the dispute in Kleros Core, not in the Dispute Kit."
        },
        "returns": {
          "_0": "Whether all of the jurors have cast their commits for the last round."
        }
      },
      "areVotesAllCast(uint256)": {
        "details": "This function is to be called directly by the core contract and is not for off-chain usage.",
        "params": {
          "_coreDisputeID": "The ID of the dispute in Kleros Core, not in the Dispute Kit."
        },
        "returns": {
          "_0": "Whether all of the jurors have cast their votes for the last round."
        }
      },
      "castCommit(uint256,uint256[],bytes32)": {
        "details": "It can be called multiple times during the commit period, each call overrides the commits of the previous one. `O(n)` where `n` is the number of votes.",
        "params": {
          "_commit": "The commitment hash.",
          "_coreDisputeID": "The ID of the dispute in Kleros Core.",
          "_voteIDs": "The IDs of the votes."
        }
      },
      "castVote(uint256,uint256[],uint256,uint256,string)": {
        "details": "`O(n)` where `n` is the number of votes.",
        "params": {
          "_choice": "The choice.",
          "_coreDisputeID": "The ID of the dispute in Kleros Core.",
          "_justification": "Justification of the choice.",
          "_salt": "The salt for the commit if the votes were hidden.",
          "_voteIDs": "The IDs of the votes."
        }
      },
      "changeCore(address)": {
        "params": {
          "_core": "The new value for the `core` storage variable."
        }
      },
      "changeJumpDisputeKitID(uint256)": {
        "params": {
          "_jumpDisputeKitID": "The new value for the `jumpDisputeKitID` storage variable."
        }
      },
      "changeOwner(address)": {
        "params": {
          "_owner": "The new value for the `owner` storage variable."
        }
      },
      "constructor": {
        "custom:oz-upgrades-unsafe-allow": "constructor"
      },
      "createDispute(uint256,uint256,bytes,uint256)": {
        "details": "Access restricted to Kleros Core only.",
        "params": {
          "_coreDisputeID": "The ID of the dispute in Kleros Core, not in the Dispute Kit.",
          "_extraData": "Additional info about the dispute, for possible use in future dispute kits.",
          "_nbVotes": "Maximal number of votes this dispute can get. Added for future-proofing.",
          "_numberOfChoices": "Number of choices of the dispute"
        }
      },
      "currentRuling(uint256)": {
        "params": {
          "_coreDisputeID": "The ID of the dispute in Kleros Core, not in the Dispute Kit."
        },
        "returns": {
          "overridden": "Whether the ruling was overridden by appeal funding or not.",
          "ruling": "The current ruling.",
          "tied": "Whether it's a tie or not."
        }
      },
      "draw(uint256,uint256)": {
        "details": "Access restricted to Kleros Core only.",
        "params": {
          "_coreDisputeID": "The ID of the dispute in Kleros Core, not in the Dispute Kit.",
          "_nonce": "Nonce."
        },
        "returns": {
          "drawnAddress": "The drawn address."
        }
      },
      "earlyCourtJump(uint256)": {
        "details": "Returns true if the dispute is jumping to a parent court.",
        "params": {
          "_coreDisputeID": "The ID of the dispute in Kleros Core, not in the Dispute Kit."
        },
        "returns": {
          "_0": "Whether the dispute is jumping to a parent court or not."
        }
      },
      "executeOwnerProposal(address,uint256,bytes)": {
        "params": {
          "_amount": "The value sent with the call.",
          "_data": "The data sent with the call.",
          "_destination": "The destination of the call."
        }
      },
      "fundAppeal(uint256,uint256)": {
        "params": {
          "_choice": "A choice that receives funding.",
          "_coreDisputeID": "Index of the dispute in Kleros Core."
        }
      },
      "getCoherentCount(uint256,uint256)": {
        "params": {
          "_coreDisputeID": "The ID of the dispute in Kleros Core, not in the Dispute Kit.",
          "_coreRoundID": "The ID of the round in Kleros Core, not in the Dispute Kit."
        },
        "returns": {
          "_0": "The number of coherent jurors."
        }
      },
      "getDegreeOfCoherencePenalty(uint256,uint256,uint256,uint256,uint256)": {
        "details": "This function is called by Kleros Core in order to determine the amount of the penalty.",
        "params": {
          "_coreDisputeID": "The ID of the dispute in Kleros Core, not in the Dispute Kit.",
          "_coreRoundID": "The ID of the round in Kleros Core, not in the Dispute Kit.",
          "_feePerJuror": "The fee per juror.",
          "_pnkAtStakePerJuror": "The PNK at stake per juror.",
          "_voteID": "The ID of the vote."
        },
        "returns": {
          "pnkCoherence": "The degree of coherence in basis points for the dispute PNK reward."
        }
      },
      "getDegreeOfCoherenceReward(uint256,uint256,uint256,uint256,uint256)": {
        "details": "This function is called by Kleros Core in order to determine the amount of the reward.",
        "params": {
          "_coreDisputeID": "The ID of the dispute in Kleros Core, not in the Dispute Kit.",
          "_coreRoundID": "The ID of the round in Kleros Core, not in the Dispute Kit.",
          "_feePerJuror": "The fee per juror.",
          "_pnkAtStakePerJuror": "The PNK at stake per juror.",
          "_voteID": "The ID of the vote."
        },
        "returns": {
          "feeCoherence": "The degree of coherence in basis points for the dispute fee reward.",
          "pnkCoherence": "The degree of coherence in basis points for the dispute PNK reward."
        }
      },
      "getFundedChoices(uint256)": {
        "params": {
          "_coreDisputeID": "The ID of the dispute in Kleros Core."
        },
        "returns": {
          "fundedChoices": "Fully funded rulings."
        }
      },
      "getJumpDisputeKitID()": {
        "returns": {
          "_0": "The ID of the dispute kit in Kleros Core disputeKits array."
        }
      },
      "getLocalDisputeRoundID(uint256,uint256)": {
        "params": {
          "_coreDisputeID": "The ID of the dispute in Kleros Core.",
          "_coreRoundID": "The ID of the round in Kleros Core."
        },
        "returns": {
          "localDisputeID": "The ID of the dispute in the Dispute Kit.",
          "localRoundID": "The ID of the round in the Dispute Kit."
        }
      },
      "getNbVotesAfterAppeal(address,uint256)": {
        "params": {
          "_currentNbVotes": "The number of votes before the appeal.",
          "_previousDisputeKit": "The previous Dispute Kit."
        },
        "returns": {
          "_0": "The number of votes after the appeal."
        }
      },
      "getNumberOfRounds(uint256)": {
        "params": {
          "_localDisputeID": "The ID of the dispute in the Dispute Kit."
        },
        "returns": {
          "_0": "The number of rounds in the dispute."
        }
      },
      "getRoundInfo(uint256,uint256,uint256)": {
        "params": {
          "_choice": "The choice to query.",
          "_coreDisputeID": "The ID of the dispute in Kleros Core, not in the Dispute Kit.",
          "_coreRoundID": "The ID of the round in Kleros Core, not in the Dispute Kit."
        },
        "returns": {
          "choiceCount": "Number of votes cast for the queried choice.",
          "nbVoters": "Total number of voters in this round.",
          "tied": "Whether it's a tie or not.",
          "totalCommitted": "Number of jurors who cast the commit already (only relevant for hidden votes).",
          "totalVoted": "Number of jurors who cast the vote already.",
          "winningChoice": "The winning choice of this round."
        }
      },
      "getVoteInfo(uint256,uint256,uint256)": {
        "params": {
          "_coreDisputeID": "The ID of the dispute in Kleros Core.",
          "_coreRoundID": "The ID of the round in Kleros Core.",
          "_voteID": "The ID of the vote."
        },
        "returns": {
          "account": "The address of the juror who cast the vote.",
          "choice": "The choice that got the vote.",
          "commit": "The commit of the vote.",
          "voted": "Whether the vote was cast or not."
        }
      },
      "hashVote(uint256,uint256,string)": {
        "details": "The unused parameters may be used by overriding contracts.",
        "params": {
          "_choice": "The choice being voted for",
          "_salt": "A random salt for commitment"
        },
        "returns": {
          "_0": "bytes32 The hash of the encoded vote parameters"
        }
      },
      "initialize(address,address,address,uint256)": {
        "params": {
          "_core": "The KlerosCore arbitrator.",
          "_jumpDisputeKitID": "The ID of the dispute kit to switch to after the court jump.",
          "_owner": "The owner's address.",
          "_wNative": "The wrapped native token address, typically wETH."
        }
      },
      "isAppealFunded(uint256)": {
        "details": "This function is to be called directly by the core contract and is not for off-chain usage.",
        "params": {
          "_coreDisputeID": "The ID of the dispute in Kleros Core, not in the Dispute Kit."
        },
        "returns": {
          "_0": "Whether the appeal funding is finished."
        }
      },
      "isVoteActive(uint256,uint256,uint256)": {
        "params": {
          "_coreDisputeID": "The ID of the dispute in Kleros Core, not in the Dispute Kit.",
          "_coreRoundID": "The ID of the round in Kleros Core, not in the Dispute Kit.",
          "_voteID": "The ID of the voter."
        },
        "returns": {
          "_0": "Whether the voter was active or not."
        }
      },
      "proxiableUUID()": {
        "details": "IMPORTANT: A proxy pointing at a proxiable contract should not be considered proxiable itself, because this risks bricking a proxy that upgrades to it, by delegating to itself until out of gas. Thus it is critical that this function revert if invoked through a proxy. This is guaranteed by the if statement."
      },
      "upgradeToAndCall(address,bytes)": {
        "details": "Reverts if the execution is not performed via delegatecall or the execution context is not of a proxy with an ERC1967-compliant implementation pointing to self.",
        "params": {
          "data": "Data used in a delegate call to `newImplementation` if non-empty. This will typically be an encoded function call, and allows initializing the storage of the proxy like a Solidity constructor.",
          "newImplementation": "Address of the new implementation contract."
        }
      },
      "withdrawFeesAndRewards(uint256,address,uint256,uint256)": {
        "details": "Withdrawals are not possible if the core contract is paused.",
        "params": {
          "_beneficiary": "The address whose rewards to withdraw.",
          "_choice": "The ruling option that the caller wants to withdraw from.",
          "_coreDisputeID": "Index of the dispute in Kleros Core contract.",
          "_coreRoundID": "The round in the Kleros Core contract the caller wants to withdraw from."
        },
        "returns": {
          "amount": "The withdrawn amount."
        }
      }
    },
    "stateVariables": {
      "version": {
        "return": "Version string.",
        "returns": {
          "_0": "Version string."
        }
      }
    },
    "title": "DisputeKitClassic",
    "version": 1
  },
  "userdoc": {
    "errors": {
      "FailedDelegateCall()": [
        {
          "notice": "Failed Delegated call"
        }
      ],
      "InvalidImplementation(address)": [
        {
          "notice": "The `implementation` is not UUPS-compliant"
        }
      ],
      "UUPSUnauthorizedCallContext()": [
        {
          "notice": "The call is from an unauthorized context."
        }
      ],
      "UUPSUnsupportedProxiableUUID(bytes32)": [
        {
          "notice": "The storage `slot` is unsupported as a UUID."
        }
      ]
    },
    "events": {
      "ChoiceFunded(uint256,uint256,uint256)": {
        "notice": "To be emitted when a choice is fully funded for an appeal."
      },
      "CommitCast(uint256,address,uint256[],bytes32)": {
        "notice": "To be emitted when a vote commitment is cast."
      },
      "Contribution(uint256,uint256,uint256,address,uint256)": {
        "notice": "To be emitted when a funding contribution is made."
      },
      "DisputeCreation(uint256,uint256,bytes)": {
        "notice": "To be emitted when a dispute is created."
      },
      "Upgraded(address)": {
        "notice": "Emitted when the `implementation` has been successfully upgraded."
      },
      "VoteCast(uint256,address,uint256[],uint256,string)": {
        "notice": "Emitted when casting a vote to provide the justification of juror's choice."
      },
      "Withdrawal(uint256,uint256,uint256,address,uint256)": {
        "notice": "To be emitted when the contributed funds are withdrawn."
      }
    },
    "kind": "user",
    "methods": {
      "areCommitsAllCast(uint256)": {
        "notice": "Returns true if all of the jurors have cast their commits for the last round."
      },
      "areVotesAllCast(uint256)": {
        "notice": "Returns true if all of the jurors have cast their votes for the last round."
      },
      "castCommit(uint256,uint256[],bytes32)": {
        "notice": "Sets the caller's commit for the specified votes."
      },
      "castVote(uint256,uint256[],uint256,uint256,string)": {
        "notice": "Sets the caller's choices for the specified votes."
      },
      "changeCore(address)": {
        "notice": "Changes the `core` storage variable."
      },
      "changeJumpDisputeKitID(uint256)": {
        "notice": "Changes the dispute kit ID used for the jump."
      },
      "changeOwner(address)": {
        "notice": "Changes the `owner` storage variable."
      },
      "createDispute(uint256,uint256,bytes,uint256)": {
        "notice": "Creates a local dispute and maps it to the dispute ID in the Core contract."
      },
      "currentRuling(uint256)": {
        "notice": "Gets the current ruling of a specified dispute."
      },
      "draw(uint256,uint256)": {
        "notice": "Draws the juror from the sortition tree. The drawn address is picked up by Kleros Core."
      },
      "executeOwnerProposal(address,uint256,bytes)": {
        "notice": "Allows the owner to call anything on behalf of the contract."
      },
      "fundAppeal(uint256,uint256)": {
        "notice": "Manages contributions, and appeals a dispute if at least two choices are fully funded. Note that the surplus deposit will be reimbursed."
      },
      "getCoherentCount(uint256,uint256)": {
        "notice": "Gets the number of jurors who are eligible to a reward in this round."
      },
      "getDegreeOfCoherencePenalty(uint256,uint256,uint256,uint256,uint256)": {
        "notice": "Gets the degree of coherence of a particular voter."
      },
      "getDegreeOfCoherenceReward(uint256,uint256,uint256,uint256,uint256)": {
        "notice": "Gets the degree of coherence of a particular voter."
      },
      "getFundedChoices(uint256)": {
        "notice": "Returns the rulings that were fully funded in the latest appeal round."
      },
      "getJumpDisputeKitID()": {
        "notice": "Returns the dispute kit ID to be used after court jump by Kleros Core."
      },
      "getLocalDisputeRoundID(uint256,uint256)": {
        "notice": "Returns the local dispute ID and round ID for a given core dispute ID and core round ID."
      },
      "getNbVotesAfterAppeal(address,uint256)": {
        "notice": "Returns the number of votes after the appeal."
      },
      "getNumberOfRounds(uint256)": {
        "notice": "Returns the number of rounds in a dispute."
      },
      "getRoundInfo(uint256,uint256,uint256)": {
        "notice": "Returns the info of the specified round in the core contract."
      },
      "getVoteInfo(uint256,uint256,uint256)": {
        "notice": "Returns the vote information for a given vote ID."
      },
      "hashVote(uint256,uint256,string)": {
        "notice": "Computes the hash of a vote using ABI encoding"
      },
      "initialize(address,address,address,uint256)": {
        "notice": "Initializer."
      },
      "isAppealFunded(uint256)": {
        "notice": "Returns true if the appeal funding is finished prematurely (e.g. when losing side didn't fund)."
      },
      "isVoteActive(uint256,uint256,uint256)": {
        "notice": "Returns true if the specified voter was active in this round."
      },
      "proxiableUUID()": {
        "notice": "Implementation of the ERC1822 `proxiableUUID` function. This returns the storage slot used by the implementation. It is used to validate the implementation's compatibility when performing an upgrade."
      },
      "upgradeToAndCall(address,bytes)": {
        "notice": "Upgrade mechanism including access control and UUPS-compliance."
      },
      "version()": {
        "notice": "Returns the version of the implementation."
      },
      "withdrawFeesAndRewards(uint256,address,uint256,uint256)": {
        "notice": "Allows those contributors who attempted to fund an appeal round to withdraw any reimbursable fees or rewards after the dispute gets resolved."
      }
    },
    "notice": "Dispute kit implementation of the Kleros v1 features including: - a drawing system: proportional to staked PNK, - a vote aggregation system: plurality, - an incentive system: equal split between coherent votes, - an appeal system: fund 2 choices only, vote on any choice.",
    "version": 1
  },
  "storageLayout": {
    "storage": [
      {
        "astId": 21251,
        "contract": "src/arbitration/dispute-kits/DisputeKitClassic.sol:DisputeKitClassic",
        "label": "owner",
        "offset": 0,
        "slot": "0",
        "type": "t_address"
      },
      {
        "astId": 21254,
        "contract": "src/arbitration/dispute-kits/DisputeKitClassic.sol:DisputeKitClassic",
        "label": "core",
        "offset": 0,
        "slot": "1",
        "type": "t_contract(KlerosCore)15195"
      },
      {
        "astId": 21258,
        "contract": "src/arbitration/dispute-kits/DisputeKitClassic.sol:DisputeKitClassic",
        "label": "disputes",
        "offset": 0,
        "slot": "2",
        "type": "t_array(t_struct(Dispute)21183_storage)dyn_storage"
      },
      {
        "astId": 21262,
        "contract": "src/arbitration/dispute-kits/DisputeKitClassic.sol:DisputeKitClassic",
        "label": "coreDisputeIDToLocal",
        "offset": 0,
        "slot": "3",
        "type": "t_mapping(t_uint256,t_uint256)"
      },
      {
        "astId": 21264,
        "contract": "src/arbitration/dispute-kits/DisputeKitClassic.sol:DisputeKitClassic",
        "label": "singleDrawPerJuror",
        "offset": 0,
        "slot": "4",
        "type": "t_bool"
      },
      {
        "astId": 21268,
        "contract": "src/arbitration/dispute-kits/DisputeKitClassic.sol:DisputeKitClassic",
        "label": "coreDisputeIDToActive",
        "offset": 0,
        "slot": "5",
        "type": "t_mapping(t_uint256,t_bool)"
      },
      {
        "astId": 21270,
        "contract": "src/arbitration/dispute-kits/DisputeKitClassic.sol:DisputeKitClassic",
        "label": "wNative",
        "offset": 0,
        "slot": "6",
        "type": "t_address"
      },
      {
        "astId": 21272,
        "contract": "src/arbitration/dispute-kits/DisputeKitClassic.sol:DisputeKitClassic",
        "label": "jumpDisputeKitID",
        "offset": 0,
        "slot": "7",
        "type": "t_uint256"
      },
      {
        "astId": 21276,
        "contract": "src/arbitration/dispute-kits/DisputeKitClassic.sol:DisputeKitClassic",
        "label": "__gap",
        "offset": 0,
        "slot": "8",
        "type": "t_array(t_uint256)50_storage"
      }
    ],
    "types": {
      "t_address": {
        "encoding": "inplace",
        "label": "address",
        "numberOfBytes": "20"
      },
      "t_array(t_struct(Dispute)21183_storage)dyn_storage": {
        "base": "t_struct(Dispute)21183_storage",
        "encoding": "dynamic_array",
        "label": "struct DisputeKitClassicBase.Dispute[]",
        "numberOfBytes": "32"
      },
      "t_array(t_struct(Round)21227_storage)dyn_storage": {
        "base": "t_struct(Round)21227_storage",
        "encoding": "dynamic_array",
        "label": "struct DisputeKitClassicBase.Round[]",
        "numberOfBytes": "32"
      },
      "t_array(t_struct(Vote)21240_storage)dyn_storage": {
        "base": "t_struct(Vote)21240_storage",
        "encoding": "dynamic_array",
        "label": "struct DisputeKitClassicBase.Vote[]",
        "numberOfBytes": "32"
      },
      "t_array(t_uint256)10_storage": {
        "base": "t_uint256",
        "encoding": "inplace",
        "label": "uint256[10]",
        "numberOfBytes": "320"
      },
      "t_array(t_uint256)50_storage": {
        "base": "t_uint256",
        "encoding": "inplace",
        "label": "uint256[50]",
        "numberOfBytes": "1600"
      },
      "t_array(t_uint256)dyn_storage": {
        "base": "t_uint256",
        "encoding": "dynamic_array",
        "label": "uint256[]",
        "numberOfBytes": "32"
      },
      "t_bool": {
        "encoding": "inplace",
        "label": "bool",
        "numberOfBytes": "1"
      },
      "t_bytes32": {
        "encoding": "inplace",
        "label": "bytes32",
        "numberOfBytes": "32"
      },
      "t_bytes_storage": {
        "encoding": "bytes",
        "label": "bytes",
        "numberOfBytes": "32"
      },
      "t_contract(KlerosCore)15195": {
        "encoding": "inplace",
        "label": "contract KlerosCore",
        "numberOfBytes": "20"
      },
      "t_mapping(t_address,t_bool)": {
        "encoding": "mapping",
        "key": "t_address",
        "label": "mapping(address => bool)",
        "numberOfBytes": "32",
        "value": "t_bool"
      },
      "t_mapping(t_address,t_mapping(t_uint256,t_uint256))": {
        "encoding": "mapping",
        "key": "t_address",
        "label": "mapping(address => mapping(uint256 => uint256))",
        "numberOfBytes": "32",
        "value": "t_mapping(t_uint256,t_uint256)"
      },
      "t_mapping(t_uint256,t_bool)": {
        "encoding": "mapping",
        "key": "t_uint256",
        "label": "mapping(uint256 => bool)",
        "numberOfBytes": "32",
        "value": "t_bool"
      },
      "t_mapping(t_uint256,t_uint256)": {
        "encoding": "mapping",
        "key": "t_uint256",
        "label": "mapping(uint256 => uint256)",
        "numberOfBytes": "32",
        "value": "t_uint256"
      },
      "t_struct(Dispute)21183_storage": {
        "encoding": "inplace",
        "label": "struct DisputeKitClassicBase.Dispute",
        "members": [
          {
            "astId": 21168,
            "contract": "src/arbitration/dispute-kits/DisputeKitClassic.sol:DisputeKitClassic",
            "label": "rounds",
            "offset": 0,
            "slot": "0",
            "type": "t_array(t_struct(Round)21227_storage)dyn_storage"
          },
          {
            "astId": 21170,
            "contract": "src/arbitration/dispute-kits/DisputeKitClassic.sol:DisputeKitClassic",
            "label": "numberOfChoices",
            "offset": 0,
            "slot": "1",
            "type": "t_uint256"
          },
          {
            "astId": 21172,
            "contract": "src/arbitration/dispute-kits/DisputeKitClassic.sol:DisputeKitClassic",
            "label": "jumped",
            "offset": 0,
            "slot": "2",
            "type": "t_bool"
          },
          {
            "astId": 21176,
            "contract": "src/arbitration/dispute-kits/DisputeKitClassic.sol:DisputeKitClassic",
            "label": "coreRoundIDToLocal",
            "offset": 0,
            "slot": "3",
            "type": "t_mapping(t_uint256,t_uint256)"
          },
          {
            "astId": 21178,
            "contract": "src/arbitration/dispute-kits/DisputeKitClassic.sol:DisputeKitClassic",
            "label": "extraData",
            "offset": 0,
            "slot": "4",
            "type": "t_bytes_storage"
          },
          {
            "astId": 21182,
            "contract": "src/arbitration/dispute-kits/DisputeKitClassic.sol:DisputeKitClassic",
            "label": "__gap",
            "offset": 0,
            "slot": "5",
            "type": "t_array(t_uint256)10_storage"
          }
        ],
        "numberOfBytes": "480"
      },
      "t_struct(Round)21227_storage": {
        "encoding": "inplace",
        "label": "struct DisputeKitClassicBase.Round",
        "members": [
          {
            "astId": 21187,
            "contract": "src/arbitration/dispute-kits/DisputeKitClassic.sol:DisputeKitClassic",
            "label": "votes",
            "offset": 0,
            "slot": "0",
            "type": "t_array(t_struct(Vote)21240_storage)dyn_storage"
          },
          {
            "astId": 21189,
            "contract": "src/arbitration/dispute-kits/DisputeKitClassic.sol:DisputeKitClassic",
            "label": "winningChoice",
            "offset": 0,
            "slot": "1",
            "type": "t_uint256"
          },
          {
            "astId": 21193,
            "contract": "src/arbitration/dispute-kits/DisputeKitClassic.sol:DisputeKitClassic",
            "label": "counts",
            "offset": 0,
            "slot": "2",
            "type": "t_mapping(t_uint256,t_uint256)"
          },
          {
            "astId": 21195,
            "contract": "src/arbitration/dispute-kits/DisputeKitClassic.sol:DisputeKitClassic",
            "label": "tied",
            "offset": 0,
            "slot": "3",
            "type": "t_bool"
          },
          {
            "astId": 21197,
            "contract": "src/arbitration/dispute-kits/DisputeKitClassic.sol:DisputeKitClassic",
            "label": "totalVoted",
            "offset": 0,
            "slot": "4",
            "type": "t_uint256"
          },
          {
            "astId": 21199,
            "contract": "src/arbitration/dispute-kits/DisputeKitClassic.sol:DisputeKitClassic",
            "label": "totalCommitted",
            "offset": 0,
            "slot": "5",
            "type": "t_uint256"
          },
          {
            "astId": 21203,
            "contract": "src/arbitration/dispute-kits/DisputeKitClassic.sol:DisputeKitClassic",
            "label": "paidFees",
            "offset": 0,
            "slot": "6",
            "type": "t_mapping(t_uint256,t_uint256)"
          },
          {
            "astId": 21207,
            "contract": "src/arbitration/dispute-kits/DisputeKitClassic.sol:DisputeKitClassic",
            "label": "hasPaid",
            "offset": 0,
            "slot": "7",
            "type": "t_mapping(t_uint256,t_bool)"
          },
          {
            "astId": 21213,
            "contract": "src/arbitration/dispute-kits/DisputeKitClassic.sol:DisputeKitClassic",
            "label": "contributions",
            "offset": 0,
            "slot": "8",
            "type": "t_mapping(t_address,t_mapping(t_uint256,t_uint256))"
          },
          {
            "astId": 21215,
            "contract": "src/arbitration/dispute-kits/DisputeKitClassic.sol:DisputeKitClassic",
            "label": "feeRewards",
            "offset": 0,
            "slot": "9",
            "type": "t_uint256"
          },
          {
            "astId": 21218,
            "contract": "src/arbitration/dispute-kits/DisputeKitClassic.sol:DisputeKitClassic",
            "label": "fundedChoices",
            "offset": 0,
            "slot": "10",
            "type": "t_array(t_uint256)dyn_storage"
          },
          {
            "astId": 21222,
            "contract": "src/arbitration/dispute-kits/DisputeKitClassic.sol:DisputeKitClassic",
            "label": "alreadyDrawn",
            "offset": 0,
            "slot": "11",
            "type": "t_mapping(t_address,t_bool)"
          },
          {
            "astId": 21226,
            "contract": "src/arbitration/dispute-kits/DisputeKitClassic.sol:DisputeKitClassic",
            "label": "__gap",
            "offset": 0,
            "slot": "12",
            "type": "t_array(t_uint256)10_storage"
          }
        ],
        "numberOfBytes": "704"
      },
      "t_struct(Vote)21240_storage": {
        "encoding": "inplace",
        "label": "struct DisputeKitClassicBase.Vote",
        "members": [
          {
            "astId": 21229,
            "contract": "src/arbitration/dispute-kits/DisputeKitClassic.sol:DisputeKitClassic",
            "label": "voted",
            "offset": 0,
            "slot": "0",
            "type": "t_bool"
          },
          {
            "astId": 21231,
            "contract": "src/arbitration/dispute-kits/DisputeKitClassic.sol:DisputeKitClassic",
            "label": "account",
            "offset": 1,
            "slot": "0",
            "type": "t_address"
          },
          {
            "astId": 21233,
            "contract": "src/arbitration/dispute-kits/DisputeKitClassic.sol:DisputeKitClassic",
            "label": "commit",
            "offset": 0,
            "slot": "1",
            "type": "t_bytes32"
          },
          {
            "astId": 21235,
            "contract": "src/arbitration/dispute-kits/DisputeKitClassic.sol:DisputeKitClassic",
            "label": "choice",
            "offset": 0,
            "slot": "2",
            "type": "t_uint256"
          },
          {
            "astId": 21239,
            "contract": "src/arbitration/dispute-kits/DisputeKitClassic.sol:DisputeKitClassic",
            "label": "__gap",
            "offset": 0,
            "slot": "3",
            "type": "t_array(t_uint256)10_storage"
          }
        ],
        "numberOfBytes": "416"
      },
      "t_uint256": {
        "encoding": "inplace",
        "label": "uint256",
        "numberOfBytes": "32"
      }
    }
  }
}