{
  "address": "0x4D5Eb5D5b6c270Be8050Cfe93f85324AFb914258",
  "abi": [
    {
      "inputs": [],
      "stateMutability": "nonpayable",
      "type": "constructor"
    },
    {
      "inputs": [],
      "name": "AlreadyInitialized",
      "type": "error"
    },
    {
      "inputs": [],
      "name": "FailedDelegateCall",
      "type": "error"
    },
    {
      "inputs": [
        {
          "internalType": "address",
          "name": "implementation",
          "type": "address"
        }
      ],
      "name": "InvalidImplementation",
      "type": "error"
    },
    {
      "inputs": [],
      "name": "NotInitializing",
      "type": "error"
    },
    {
      "inputs": [],
      "name": "UUPSUnauthorizedCallContext",
      "type": "error"
    },
    {
      "inputs": [
        {
          "internalType": "bytes32",
          "name": "slot",
          "type": "bytes32"
        }
      ],
      "name": "UUPSUnsupportedProxiableUUID",
      "type": "error"
    },
    {
      "anonymous": false,
      "inputs": [
        {
          "indexed": true,
          "internalType": "uint256",
          "name": "_coreDisputeID",
          "type": "uint256"
        },
        {
          "indexed": true,
          "internalType": "uint256",
          "name": "_coreRoundID",
          "type": "uint256"
        },
        {
          "indexed": true,
          "internalType": "uint256",
          "name": "_choice",
          "type": "uint256"
        }
      ],
      "name": "ChoiceFunded",
      "type": "event"
    },
    {
      "anonymous": false,
      "inputs": [
        {
          "indexed": true,
          "internalType": "uint256",
          "name": "_coreDisputeID",
          "type": "uint256"
        },
        {
          "indexed": true,
          "internalType": "address",
          "name": "_juror",
          "type": "address"
        },
        {
          "indexed": false,
          "internalType": "uint256[]",
          "name": "_voteIDs",
          "type": "uint256[]"
        },
        {
          "indexed": false,
          "internalType": "bytes32",
          "name": "_commit",
          "type": "bytes32"
        }
      ],
      "name": "CommitCast",
      "type": "event"
    },
    {
      "anonymous": false,
      "inputs": [
        {
          "indexed": true,
          "internalType": "uint256",
          "name": "_coreDisputeID",
          "type": "uint256"
        },
        {
          "indexed": true,
          "internalType": "uint256",
          "name": "_coreRoundID",
          "type": "uint256"
        },
        {
          "indexed": false,
          "internalType": "uint256",
          "name": "_choice",
          "type": "uint256"
        },
        {
          "indexed": true,
          "internalType": "address",
          "name": "_contributor",
          "type": "address"
        },
        {
          "indexed": false,
          "internalType": "uint256",
          "name": "_amount",
          "type": "uint256"
        }
      ],
      "name": "Contribution",
      "type": "event"
    },
    {
      "anonymous": false,
      "inputs": [
        {
          "indexed": true,
          "internalType": "uint256",
          "name": "_coreDisputeID",
          "type": "uint256"
        },
        {
          "indexed": false,
          "internalType": "uint256",
          "name": "_numberOfChoices",
          "type": "uint256"
        },
        {
          "indexed": false,
          "internalType": "bytes",
          "name": "_extraData",
          "type": "bytes"
        }
      ],
      "name": "DisputeCreation",
      "type": "event"
    },
    {
      "anonymous": false,
      "inputs": [
        {
          "indexed": false,
          "internalType": "uint64",
          "name": "version",
          "type": "uint64"
        }
      ],
      "name": "Initialized",
      "type": "event"
    },
    {
      "anonymous": false,
      "inputs": [
        {
          "indexed": true,
          "internalType": "address",
          "name": "newImplementation",
          "type": "address"
        }
      ],
      "name": "Upgraded",
      "type": "event"
    },
    {
      "anonymous": false,
      "inputs": [
        {
          "indexed": true,
          "internalType": "uint256",
          "name": "_coreDisputeID",
          "type": "uint256"
        },
        {
          "indexed": true,
          "internalType": "address",
          "name": "_juror",
          "type": "address"
        },
        {
          "indexed": false,
          "internalType": "uint256[]",
          "name": "_voteIDs",
          "type": "uint256[]"
        },
        {
          "indexed": true,
          "internalType": "uint256",
          "name": "_choice",
          "type": "uint256"
        },
        {
          "indexed": false,
          "internalType": "string",
          "name": "_justification",
          "type": "string"
        }
      ],
      "name": "VoteCast",
      "type": "event"
    },
    {
      "anonymous": false,
      "inputs": [
        {
          "indexed": true,
          "internalType": "uint256",
          "name": "_coreDisputeID",
          "type": "uint256"
        },
        {
          "indexed": true,
          "internalType": "uint256",
          "name": "_coreRoundID",
          "type": "uint256"
        },
        {
          "indexed": false,
          "internalType": "uint256",
          "name": "_choice",
          "type": "uint256"
        },
        {
          "indexed": true,
          "internalType": "address",
          "name": "_contributor",
          "type": "address"
        },
        {
          "indexed": false,
          "internalType": "uint256",
          "name": "_amount",
          "type": "uint256"
        }
      ],
      "name": "Withdrawal",
      "type": "event"
    },
    {
      "inputs": [],
      "name": "LOSER_APPEAL_PERIOD_MULTIPLIER",
      "outputs": [
        {
          "internalType": "uint256",
          "name": "",
          "type": "uint256"
        }
      ],
      "stateMutability": "view",
      "type": "function"
    },
    {
      "inputs": [],
      "name": "LOSER_STAKE_MULTIPLIER",
      "outputs": [
        {
          "internalType": "uint256",
          "name": "",
          "type": "uint256"
        }
      ],
      "stateMutability": "view",
      "type": "function"
    },
    {
      "inputs": [],
      "name": "ONE_BASIS_POINT",
      "outputs": [
        {
          "internalType": "uint256",
          "name": "",
          "type": "uint256"
        }
      ],
      "stateMutability": "view",
      "type": "function"
    },
    {
      "inputs": [],
      "name": "WINNER_STAKE_MULTIPLIER",
      "outputs": [
        {
          "internalType": "uint256",
          "name": "",
          "type": "uint256"
        }
      ],
      "stateMutability": "view",
      "type": "function"
    },
    {
      "inputs": [
        {
          "internalType": "uint256",
          "name": "localDisputeID",
          "type": "uint256"
        },
        {
          "internalType": "uint256",
          "name": "localRoundID",
          "type": "uint256"
        },
        {
          "internalType": "address",
          "name": "drawnAddress",
          "type": "address"
        }
      ],
      "name": "alreadyDrawn",
      "outputs": [
        {
          "internalType": "bool",
          "name": "",
          "type": "bool"
        }
      ],
      "stateMutability": "view",
      "type": "function"
    },
    {
      "inputs": [
        {
          "internalType": "uint256",
          "name": "_coreDisputeID",
          "type": "uint256"
        }
      ],
      "name": "areCommitsAllCast",
      "outputs": [
        {
          "internalType": "bool",
          "name": "",
          "type": "bool"
        }
      ],
      "stateMutability": "view",
      "type": "function"
    },
    {
      "inputs": [
        {
          "internalType": "uint256",
          "name": "_coreDisputeID",
          "type": "uint256"
        }
      ],
      "name": "areVotesAllCast",
      "outputs": [
        {
          "internalType": "bool",
          "name": "",
          "type": "bool"
        }
      ],
      "stateMutability": "view",
      "type": "function"
    },
    {
      "inputs": [
        {
          "internalType": "uint256",
          "name": "_coreDisputeID",
          "type": "uint256"
        },
        {
          "internalType": "uint256[]",
          "name": "_voteIDs",
          "type": "uint256[]"
        },
        {
          "internalType": "bytes32",
          "name": "_commit",
          "type": "bytes32"
        }
      ],
      "name": "castCommit",
      "outputs": [],
      "stateMutability": "nonpayable",
      "type": "function"
    },
    {
      "inputs": [
        {
          "internalType": "uint256",
          "name": "_coreDisputeID",
          "type": "uint256"
        },
        {
          "internalType": "uint256[]",
          "name": "_voteIDs",
          "type": "uint256[]"
        },
        {
          "internalType": "uint256",
          "name": "_choice",
          "type": "uint256"
        },
        {
          "internalType": "uint256",
          "name": "_salt",
          "type": "uint256"
        },
        {
          "internalType": "string",
          "name": "_justification",
          "type": "string"
        }
      ],
      "name": "castVote",
      "outputs": [],
      "stateMutability": "nonpayable",
      "type": "function"
    },
    {
      "inputs": [
        {
          "internalType": "address",
          "name": "_core",
          "type": "address"
        }
      ],
      "name": "changeCore",
      "outputs": [],
      "stateMutability": "nonpayable",
      "type": "function"
    },
    {
      "inputs": [
        {
          "internalType": "address payable",
          "name": "_governor",
          "type": "address"
        }
      ],
      "name": "changeGovernor",
      "outputs": [],
      "stateMutability": "nonpayable",
      "type": "function"
    },
    {
      "inputs": [],
      "name": "core",
      "outputs": [
        {
          "internalType": "contract KlerosCore",
          "name": "",
          "type": "address"
        }
      ],
      "stateMutability": "view",
      "type": "function"
    },
    {
      "inputs": [
        {
          "internalType": "uint256",
          "name": "coreDisputeID",
          "type": "uint256"
        }
      ],
      "name": "coreDisputeIDToActive",
      "outputs": [
        {
          "internalType": "bool",
          "name": "",
          "type": "bool"
        }
      ],
      "stateMutability": "view",
      "type": "function"
    },
    {
      "inputs": [
        {
          "internalType": "uint256",
          "name": "",
          "type": "uint256"
        }
      ],
      "name": "coreDisputeIDToLocal",
      "outputs": [
        {
          "internalType": "uint256",
          "name": "",
          "type": "uint256"
        }
      ],
      "stateMutability": "view",
      "type": "function"
    },
    {
      "inputs": [
        {
          "internalType": "uint256",
          "name": "_coreDisputeID",
          "type": "uint256"
        },
        {
          "internalType": "uint256",
          "name": "_numberOfChoices",
          "type": "uint256"
        },
        {
          "internalType": "bytes",
          "name": "_extraData",
          "type": "bytes"
        },
        {
          "internalType": "uint256",
          "name": "_nbVotes",
          "type": "uint256"
        }
      ],
      "name": "createDispute",
      "outputs": [],
      "stateMutability": "nonpayable",
      "type": "function"
    },
    {
      "inputs": [
        {
          "internalType": "uint256",
          "name": "_coreDisputeID",
          "type": "uint256"
        }
      ],
      "name": "currentRuling",
      "outputs": [
        {
          "internalType": "uint256",
          "name": "ruling",
          "type": "uint256"
        },
        {
          "internalType": "bool",
          "name": "tied",
          "type": "bool"
        },
        {
          "internalType": "bool",
          "name": "overridden",
          "type": "bool"
        }
      ],
      "stateMutability": "view",
      "type": "function"
    },
    {
      "inputs": [
        {
          "internalType": "uint256",
          "name": "",
          "type": "uint256"
        }
      ],
      "name": "disputes",
      "outputs": [
        {
          "internalType": "uint256",
          "name": "numberOfChoices",
          "type": "uint256"
        },
        {
          "internalType": "bool",
          "name": "jumped",
          "type": "bool"
        },
        {
          "internalType": "bytes",
          "name": "extraData",
          "type": "bytes"
        }
      ],
      "stateMutability": "view",
      "type": "function"
    },
    {
      "inputs": [
        {
          "internalType": "uint256",
          "name": "_coreDisputeID",
          "type": "uint256"
        },
        {
          "internalType": "uint256",
          "name": "_nonce",
          "type": "uint256"
        }
      ],
      "name": "draw",
      "outputs": [
        {
          "internalType": "address",
          "name": "drawnAddress",
          "type": "address"
        }
      ],
      "stateMutability": "nonpayable",
      "type": "function"
    },
    {
      "inputs": [
        {
          "internalType": "address",
          "name": "_destination",
          "type": "address"
        },
        {
          "internalType": "uint256",
          "name": "_amount",
          "type": "uint256"
        },
        {
          "internalType": "bytes",
          "name": "_data",
          "type": "bytes"
        }
      ],
      "name": "executeGovernorProposal",
      "outputs": [],
      "stateMutability": "nonpayable",
      "type": "function"
    },
    {
      "inputs": [
        {
          "internalType": "bytes",
          "name": "_extraData",
          "type": "bytes"
        }
      ],
      "name": "extraDataToTokenInfo",
      "outputs": [
        {
          "internalType": "address",
          "name": "tokenGate",
          "type": "address"
        },
        {
          "internalType": "bool",
          "name": "isERC1155",
          "type": "bool"
        },
        {
          "internalType": "uint256",
          "name": "tokenId",
          "type": "uint256"
        }
      ],
      "stateMutability": "pure",
      "type": "function"
    },
    {
      "inputs": [
        {
          "internalType": "uint256",
          "name": "_coreDisputeID",
          "type": "uint256"
        },
        {
          "internalType": "uint256",
          "name": "_choice",
          "type": "uint256"
        }
      ],
      "name": "fundAppeal",
      "outputs": [],
      "stateMutability": "payable",
      "type": "function"
    },
    {
      "inputs": [
        {
          "internalType": "uint256",
          "name": "_coreDisputeID",
          "type": "uint256"
        },
        {
          "internalType": "uint256",
          "name": "_coreRoundID",
          "type": "uint256"
        }
      ],
      "name": "getCoherentCount",
      "outputs": [
        {
          "internalType": "uint256",
          "name": "",
          "type": "uint256"
        }
      ],
      "stateMutability": "view",
      "type": "function"
    },
    {
      "inputs": [
        {
          "internalType": "uint256",
          "name": "_coreDisputeID",
          "type": "uint256"
        },
        {
          "internalType": "uint256",
          "name": "_coreRoundID",
          "type": "uint256"
        },
        {
          "internalType": "uint256",
          "name": "_voteID",
          "type": "uint256"
        },
        {
          "internalType": "uint256",
          "name": "",
          "type": "uint256"
        },
        {
          "internalType": "uint256",
          "name": "",
          "type": "uint256"
        }
      ],
      "name": "getDegreeOfCoherence",
      "outputs": [
        {
          "internalType": "uint256",
          "name": "",
          "type": "uint256"
        }
      ],
      "stateMutability": "view",
      "type": "function"
    },
    {
      "inputs": [
        {
          "internalType": "uint256",
          "name": "_coreDisputeID",
          "type": "uint256"
        }
      ],
      "name": "getFundedChoices",
      "outputs": [
        {
          "internalType": "uint256[]",
          "name": "fundedChoices",
          "type": "uint256[]"
        }
      ],
      "stateMutability": "view",
      "type": "function"
    },
    {
      "inputs": [
        {
          "internalType": "uint256",
          "name": "_coreDisputeID",
          "type": "uint256"
        },
        {
          "internalType": "uint256",
          "name": "_coreRoundID",
          "type": "uint256"
        }
      ],
      "name": "getLocalDisputeRoundID",
      "outputs": [
        {
          "internalType": "uint256",
          "name": "localDisputeID",
          "type": "uint256"
        },
        {
          "internalType": "uint256",
          "name": "localRoundID",
          "type": "uint256"
        }
      ],
      "stateMutability": "view",
      "type": "function"
    },
    {
      "inputs": [
        {
          "internalType": "uint256",
          "name": "_localDisputeID",
          "type": "uint256"
        }
      ],
      "name": "getNumberOfRounds",
      "outputs": [
        {
          "internalType": "uint256",
          "name": "",
          "type": "uint256"
        }
      ],
      "stateMutability": "view",
      "type": "function"
    },
    {
      "inputs": [
        {
          "internalType": "uint256",
          "name": "_coreDisputeID",
          "type": "uint256"
        },
        {
          "internalType": "uint256",
          "name": "_coreRoundID",
          "type": "uint256"
        },
        {
          "internalType": "uint256",
          "name": "_choice",
          "type": "uint256"
        }
      ],
      "name": "getRoundInfo",
      "outputs": [
        {
          "internalType": "uint256",
          "name": "winningChoice",
          "type": "uint256"
        },
        {
          "internalType": "bool",
          "name": "tied",
          "type": "bool"
        },
        {
          "internalType": "uint256",
          "name": "totalVoted",
          "type": "uint256"
        },
        {
          "internalType": "uint256",
          "name": "totalCommited",
          "type": "uint256"
        },
        {
          "internalType": "uint256",
          "name": "nbVoters",
          "type": "uint256"
        },
        {
          "internalType": "uint256",
          "name": "choiceCount",
          "type": "uint256"
        }
      ],
      "stateMutability": "view",
      "type": "function"
    },
    {
      "inputs": [
        {
          "internalType": "uint256",
          "name": "_coreDisputeID",
          "type": "uint256"
        },
        {
          "internalType": "uint256",
          "name": "_coreRoundID",
          "type": "uint256"
        },
        {
          "internalType": "uint256",
          "name": "_voteID",
          "type": "uint256"
        }
      ],
      "name": "getVoteInfo",
      "outputs": [
        {
          "internalType": "address",
          "name": "account",
          "type": "address"
        },
        {
          "internalType": "bytes32",
          "name": "commit",
          "type": "bytes32"
        },
        {
          "internalType": "uint256",
          "name": "choice",
          "type": "uint256"
        },
        {
          "internalType": "bool",
          "name": "voted",
          "type": "bool"
        }
      ],
      "stateMutability": "view",
      "type": "function"
    },
    {
      "inputs": [],
      "name": "governor",
      "outputs": [
        {
          "internalType": "address",
          "name": "",
          "type": "address"
        }
      ],
      "stateMutability": "view",
      "type": "function"
    },
    {
      "inputs": [
        {
          "internalType": "uint256",
          "name": "_choice",
          "type": "uint256"
        },
        {
          "internalType": "uint256",
          "name": "_salt",
          "type": "uint256"
        },
        {
          "internalType": "string",
          "name": "_justification",
          "type": "string"
        }
      ],
      "name": "hashVote",
      "outputs": [
        {
          "internalType": "bytes32",
          "name": "",
          "type": "bytes32"
        }
      ],
      "stateMutability": "pure",
      "type": "function"
    },
    {
      "inputs": [
        {
          "internalType": "address",
          "name": "_governor",
          "type": "address"
        },
        {
          "internalType": "contract KlerosCore",
          "name": "_core",
          "type": "address"
        }
      ],
      "name": "initialize",
      "outputs": [],
      "stateMutability": "nonpayable",
      "type": "function"
    },
    {
      "inputs": [],
      "name": "initialize7",
      "outputs": [],
      "stateMutability": "nonpayable",
      "type": "function"
    },
    {
      "inputs": [
        {
          "internalType": "uint256",
          "name": "_coreDisputeID",
          "type": "uint256"
        }
      ],
      "name": "isAppealFunded",
      "outputs": [
        {
          "internalType": "bool",
          "name": "",
          "type": "bool"
        }
      ],
      "stateMutability": "view",
      "type": "function"
    },
    {
      "inputs": [
        {
          "internalType": "uint256",
          "name": "_coreDisputeID",
          "type": "uint256"
        },
        {
          "internalType": "uint256",
          "name": "_coreRoundID",
          "type": "uint256"
        },
        {
          "internalType": "uint256",
          "name": "_voteID",
          "type": "uint256"
        }
      ],
      "name": "isVoteActive",
      "outputs": [
        {
          "internalType": "bool",
          "name": "",
          "type": "bool"
        }
      ],
      "stateMutability": "view",
      "type": "function"
    },
    {
      "inputs": [],
      "name": "proxiableUUID",
      "outputs": [
        {
          "internalType": "bytes32",
          "name": "",
          "type": "bytes32"
        }
      ],
      "stateMutability": "view",
      "type": "function"
    },
    {
      "inputs": [],
      "name": "singleDrawPerJuror",
      "outputs": [
        {
          "internalType": "bool",
          "name": "",
          "type": "bool"
        }
      ],
      "stateMutability": "view",
      "type": "function"
    },
    {
      "inputs": [
        {
          "internalType": "address",
          "name": "newImplementation",
          "type": "address"
        },
        {
          "internalType": "bytes",
          "name": "data",
          "type": "bytes"
        }
      ],
      "name": "upgradeToAndCall",
      "outputs": [],
      "stateMutability": "payable",
      "type": "function"
    },
    {
      "inputs": [],
      "name": "version",
      "outputs": [
        {
          "internalType": "string",
          "name": "",
          "type": "string"
        }
      ],
      "stateMutability": "view",
      "type": "function"
    },
    {
      "inputs": [
        {
          "internalType": "uint256",
          "name": "_coreDisputeID",
          "type": "uint256"
        },
        {
          "internalType": "address payable",
          "name": "_beneficiary",
          "type": "address"
        },
        {
          "internalType": "uint256",
          "name": "_coreRoundID",
          "type": "uint256"
        },
        {
          "internalType": "uint256",
          "name": "_choice",
          "type": "uint256"
        }
      ],
      "name": "withdrawFeesAndRewards",
      "outputs": [
        {
          "internalType": "uint256",
          "name": "amount",
          "type": "uint256"
        }
      ],
      "stateMutability": "nonpayable",
      "type": "function"
    }
  ],
  "transactionHash": "0x9be08c2ebd16be001ffb740d97d7dc977facf733a699f986cc85f78ea4655126",
  "args": [],
  "numDeployments": 2,
  "solcInputHash": "f4735958fa6999318407ac2ba3cb7822",
  "bytecode": "0x60a06040523060805234801561001457600080fd5b5061001d610022565b6100d3565b7ff0c57e16840df040f15088dc2f81fe391c3923bec73e23a9662efc9c229c6a0e805468010000000000000000900460ff16156100715760405162dc149f60e41b815260040160405180910390fd5b80546001600160401b03908116146100d05780546001600160401b0319166001600160401b0390811782556040519081527fc7f505b2f371ae2175ee4913f4499e1f2633a7b5936321eed1cdaeb6115181d29060200160405180910390a15b50565b6080516145186100fc600039600081816118f30152818161191c0152611b0b01526145186000f3fe6080604052600436106102205760003560e01c80636d4cd8ea1161012e578063c17f8544116100ab578063ec7b23fb1161006f578063ec7b23fb14610702578063f2f4eb2614610747578063f32ab92714610767578063f8abee101461079c578063fc6f8f16146107cc57600080fd5b8063c17f85441461068d578063d2b8035a146106a2578063da3beb8c146106c2578063e349ad301461057f578063e4c0aaf4146106e257600080fd5b8063a7cc08fe116100f2578063a7cc08fe146105d5578063b34bfaa814610621578063b6ede54014610637578063ba66fde714610657578063be4676041461067757600080fd5b80636d4cd8ea1461053f578063751accd01461055f578063796490f91461057f5780637c04034e146105955780638e426460146105b557600080fd5b80634b2f0ea0116101bc5780635a155ccd116101805780635a155ccd146104445780635c92e2f61461048557806365540b96146104a5578063675926f6146104d257806369f3f041146104f257600080fd5b80634b2f0ea01461039b5780634f1ef286146103ae57806352d1902d146103c157806354fd4d50146103d6578063564a565d1461041557600080fd5b80630855bbe9146102255780630baa64d11461025a5780630c340a241461027a5780631200aabc146102a75780631c3db16d146102e25780631cc3423a1461031f5780632621b9a21461033f578063362c347914610359578063485cc95514610379575b600080fd5b34801561023157600080fd5b506102456102403660046138f0565b6107ec565b60405190151581526020015b60405180910390f35b34801561026657600080fd5b506102456102753660046138f0565b6108b4565b34801561028657600080fd5b5060005461029a906001600160a01b031681565b6040516102519190613909565b3480156102b357600080fd5b506102d46102c23660046138f0565b60036020526000908152604090205481565b604051908152602001610251565b3480156102ee57600080fd5b506103026102fd3660046138f0565b61092b565b604080519384529115156020840152151590820152606001610251565b34801561032b57600080fd5b506102d461033a3660046139c7565b610a99565b34801561034b57600080fd5b506004546102459060ff1681565b34801561036557600080fd5b506102d4610374366004613a2b565b610ac9565b34801561038557600080fd5b50610399610394366004613a68565b610f82565b005b6103996103a9366004613aa1565b61104a565b6103996103bc366004613ac3565b6118df565b3480156103cd57600080fd5b506102d4611afe565b3480156103e257600080fd5b50610408604051806040016040528060068152602001650302e31312e360d41b81525081565b6040516102519190613b62565b34801561042157600080fd5b506104356104303660046138f0565b611b5c565b60405161025193929190613b75565b34801561045057600080fd5b5061024561045f366004613b96565b600560209081526000938452604080852082529284528284209052825290205460ff1681565b34801561049157600080fd5b506103996104a0366004613c1a565b611c22565b3480156104b157600080fd5b506104c56104c03660046138f0565b611c2e565b6040516102519190613c6c565b3480156104de57600080fd5b506102d46104ed366004613caf565b611cf2565b3480156104fe57600080fd5b5061051261050d366004613cea565b611e35565b604080519687529415156020870152938501929092526060840152608083015260a082015260c001610251565b34801561054b57600080fd5b5061024561055a3660046138f0565b611eed565b34801561056b57600080fd5b5061039961057a366004613d16565b612070565b34801561058b57600080fd5b506102d461271081565b3480156105a157600080fd5b506103996105b0366004613d58565b61213c565b3480156105c157600080fd5b506103996105d0366004613de0565b612153565b3480156105e157600080fd5b506105f56105f0366004613cea565b61219f565b604080516001600160a01b03909516855260208501939093529183015215156060820152608001610251565b34801561062d57600080fd5b506102d4614e2081565b34801561064357600080fd5b50610399610652366004613dfd565b612265565b34801561066357600080fd5b50610245610672366004613cea565b612458565b34801561068357600080fd5b506102d461138881565b34801561069957600080fd5b506103996124f3565b3480156106ae57600080fd5b5061029a6106bd366004613aa1565b6125a4565b3480156106ce57600080fd5b506102d46106dd366004613aa1565b6128d8565b3480156106ee57600080fd5b506103996106fd366004613de0565b612a2b565b34801561070e57600080fd5b5061072261071d366004613e86565b612a77565b604080516001600160a01b039094168452911515602084015290820152606001610251565b34801561075357600080fd5b5060015461029a906001600160a01b031681565b34801561077357600080fd5b50610787610782366004613aa1565b612abc565b60408051928352602083019190915201610251565b3480156107a857600080fd5b506102456107b73660046138f0565b60066020526000908152604090205460ff1681565b3480156107d857600080fd5b506102d46107e73660046138f0565b612b0e565b60015460405163afe15cfb60e01b815260048101839052600091829182916001600160a01b03169063afe15cfb906024016040805180830381865afa158015610839573d6000803e3d6000fd5b505050506040513d601f19601f8201168201806040525081019061085d9190613ec2565b91509150600061086c85611c2e565b9050805160001480156108ab575061271061138861088a8585613efc565b6108949190613f0f565b61089e9190613f26565b6108a88442613efc565b10155b95945050505050565b6000818152600360205260408120546002805483929081106108d8576108d8613f48565b600091825260208220600590910201805490925082906108fa90600190613efc565b8154811061090a5761090a613f48565b60009182526020909120600c90910201805460059091015414949350505050565b600080600080600260036000878152602001908152602001600020548154811061095757610957613f48565b6000918252602082206005909102018054909250829061097990600190613efc565b8154811061098957610989613f48565b60009182526020909120600c90910201600381015460ff1694509050836109b45780600101546109b7565b60005b60015460405163564a565d60e01b8152600481018990529196506000916001600160a01b039091169063564a565d9060240160a060405180830381865afa158015610a06573d6000803e3d6000fd5b505050506040513d601f19601f82011682018060405250810190610a2a9190613f8a565b5090935060049250610a3a915050565b816004811115610a4c57610a4c613ff3565b03610a8f576000610a5c88611c2e565b90508051600103610a8d5780600081518110610a7a57610a7a613f48565b6020026020010151965060009550600194505b505b5050509193909250565b604080516020808201869052818301859052825180830384018152606090920190925280519101205b9392505050565b60015460405163564a565d60e01b81526004810186905260009182916001600160a01b039091169063564a565d9060240160a060405180830381865afa158015610b17573d6000803e3d6000fd5b505050506040513d601f19601f82011682018060405250810190610b3b9190613f8a565b50935050505080610b935760405162461bcd60e51b815260206004820152601b60248201527f446973707574652073686f756c64206265207265736f6c7665642e000000000060448201526064015b60405180910390fd5b600160009054906101000a90046001600160a01b03166001600160a01b0316635c975abb6040518163ffffffff1660e01b8152600401602060405180830381865afa158015610be6573d6000803e3d6000fd5b505050506040513d601f19601f82011682018060405250810190610c0a9190614009565b15610c485760405162461bcd60e51b815260206004820152600e60248201526d10dbdc99481a5cc81c185d5cd95960921b6044820152606401610b8a565b60008681526006602052604090205460ff16610c765760405162461bcd60e51b8152600401610b8a90614024565b600086815260036020526040812054600280549091908110610c9a57610c9a613f48565b60009182526020808320888452600360059093020191820190526040822054815491935083918110610cce57610cce613f48565b600091825260208220600154604051631c3db16d60e01b8152600481018d9052600c9390930290910193506001600160a01b031690631c3db16d90602401606060405180830381865afa158015610d29573d6000803e3d6000fd5b505050506040513d601f19601f82011682018060405250810190610d4d919061405b565b5050600087815260078401602052604090205490915060ff16610d97576001600160a01b038816600090815260088301602090815260408083208984529091529020549450610edc565b808603610e0c576000868152600683016020526040902054610dba576000610e05565b600086815260068301602090815260408083205460098601546001600160a01b038d1685526008870184528285208b8652909352922054610dfb9190613f0f565b610e059190613f26565b9450610edc565b600081815260078301602052604090205460ff16610edc5781600601600083600a01600181548110610e4057610e40613f48565b906000526020600020015481526020019081526020016000205482600601600084600a01600081548110610e7657610e76613f48565b9060005260206000200154815260200190815260200160002054610e9a9190614097565b60098301546001600160a01b038a16600090815260088501602090815260408083208b8452909152902054610ecf9190613f0f565b610ed99190613f26565b94505b6001600160a01b038816600090815260088301602090815260408083208984529091528120558415610f76576040516001600160a01b0389169086156108fc029087906000818181858888f15050604080518a8152602081018a90526001600160a01b038d1694508b93508d92507f54b3cab3cb5c4aca3209db1151caff092e878011202e43a36782d4ebe0b963ae910160405180910390a45b50505050949350505050565b60016000610f8e612b3a565b8054909150600160401b900460ff1680610fb5575080546001600160401b03808416911610155b15610fd25760405162dc149f60e41b815260040160405180910390fd5b805468ffffffffffffffffff19166001600160401b03831617600160401b178155610ffd8484612b5e565b805460ff60401b191681556040516001600160401b03831681527fc7f505b2f371ae2175ee4913f4499e1f2633a7b5936321eed1cdaeb6115181d29060200160405180910390a150505050565b60008281526003602052604090205460028054849290811061106e5761106e613f48565b600091825260209091206002600590920201015460ff16156110a25760405162461bcd60e51b8152600401610b8a906140aa565b6000838152600360205260408120546002805490919081106110c6576110c6613f48565b90600052602060002090600502019050806001015483111561112a5760405162461bcd60e51b815260206004820181905260248201527f5468657265206973206e6f20737563682072756c696e6720746f2066756e642e6044820152606401610b8a565b60008481526006602052604090205460ff166111585760405162461bcd60e51b8152600401610b8a90614024565b60015460405163afe15cfb60e01b81526004810186905260009182916001600160a01b039091169063afe15cfb906024016040805180830381865afa1580156111a5573d6000803e3d6000fd5b505050506040513d601f19601f820116820180604052508101906111c99190613ec2565b915091508142101580156111dc57508042105b6112215760405162461bcd60e51b815260206004820152601660248201527520b83832b0b6103832b934b7b21034b99037bb32b91760511b6044820152606401610b8a565b604051631c3db16d60e01b81526004810187905260009081903090631c3db16d90602401606060405180830381865afa158015611262573d6000803e3d6000fd5b505050506040513d601f19601f82011682018060405250810190611286919061405b565b5050905086810361129b57612710915061131c565b6127106113886112ab8686613efc565b6112b59190613f0f565b6112bf9190613f26565b6112c98542613efc565b106113165760405162461bcd60e51b815260206004820152601f60248201527f41707065616c20706572696f64206973206f76657220666f72206c6f736572006044820152606401610b8a565b614e2091505b8454600090869061132f90600190613efc565b8154811061133f5761133f613f48565b60009182526020822060018054604051637e37c78b60e11b8152600481018f9052600c949094029092019450916001600160a01b039091169063fc6f8f1690602401602060405180830381865afa15801561139e573d6000803e3d6000fd5b505050506040513d601f19601f820116820180604052508101906113c291906140e1565b6113cc9190613efc565b60008a815260078401602052604090205490915060ff16156114305760405162461bcd60e51b815260206004820152601b60248201527f41707065616c2066656520697320616c726561647920706169642e00000000006044820152606401610b8a565b600154604051632cf6413f60e11b8152600481018c90526000916001600160a01b0316906359ec827e90602401602060405180830381865afa15801561147a573d6000803e3d6000fd5b505050506040513d601f19601f8201168201806040525081019061149e91906140e1565b905060006127106114af8784613f0f565b6114b99190613f26565b6114c39083614097565b60008c8152600686016020526040812054919250908211156115745760008c815260068601602052604090205434906114fc9084613efc565b116115215760008c815260068601602052604090205461151c9083613efc565b611523565b345b9050336001600160a01b0316848e7fcae597f39a3ad75c2e10d46b031f023c5c2babcd58ca0491b122acda3968d4c08f8560405161156b929190918252602082015260400190565b60405180910390a45b33600090815260088601602090815260408083208f8452909152812080548392906115a0908490614097565b909155505060008c8152600686016020526040812080548392906115c5908490614097565b909155505060008c815260068601602052604090205482116116975760008c815260068601602052604081205460098701805491929091611607908490614097565b9250508190555084600a018c908060018154018082558091505060019003906000526020600020016000909190919091505560018560070160008e815260200190815260200160002060006101000a81548160ff0219169083151502179055508b848e7fed764996238e4c1c873ae3af7ae2f00f1f6f4f10b9ac7d4bbea4a764c5dea00960405160405180910390a45b600a850154600110156118a2578285600901546116b49190613efc565b60098601556001546040516319b8152960e01b8152600481018f90526001600160a01b03909116906319b8152990602401602060405180830381865afa158015611702573d6000803e3d6000fd5b505050506040513d601f19601f820116820180604052508101906117269190614009565b1561173f5760028a01805460ff19166001179055611822565b895460038b016000611752876001614097565b81526020019081526020016000208190555060008a6000016001816001815401808255809150500390600052602060002090600c02019050600160009054906101000a90046001600160a01b03166001600160a01b031663c71f42538f6040518263ffffffff1660e01b81526004016117cd91815260200190565b602060405180830381865afa1580156117ea573d6000803e3d6000fd5b505050506040513d601f19601f8201168201806040525081019061180e91906140e1565b600b820155600301805460ff191660011790555b600160009054906101000a90046001600160a01b03166001600160a01b031663c3569902848f8d600101548e6004016040518563ffffffff1660e01b815260040161186f93929190614134565b6000604051808303818588803b15801561188857600080fd5b505af115801561189c573d6000803e3d6000fd5b50505050505b803411156118d057336108fc6118b88334613efc565b6040518115909202916000818181858888f150505050505b50505050505050505050505050565b6118e882612b94565b306001600160a01b037f000000000000000000000000000000000000000000000000000000000000000016148061196657507f00000000000000000000000000000000000000000000000000000000000000006001600160a01b031661195a6000805160206144c38339815191525490565b6001600160a01b031614155b156119845760405163703e46dd60e11b815260040160405180910390fd5b816001600160a01b03166352d1902d6040518163ffffffff1660e01b8152600401602060405180830381865afa9250505080156119de575060408051601f3d908101601f191682019092526119db918101906140e1565b60015b6119fd5781604051630c76093760e01b8152600401610b8a9190613909565b6000805160206144c38339815191528114611a2e57604051632a87526960e21b815260048101829052602401610b8a565b6000805160206144c38339815191528390556040516001600160a01b038416907fbc7cd75a20ee27fd9adebab32041f755214dbc6bffa90cc0225b39da2e5c2d3b90600090a2815115611af9576000836001600160a01b031683604051611a9591906141ce565b600060405180830381855af49150503d8060008114611ad0576040519150601f19603f3d011682016040523d82523d6000602084013e611ad5565b606091505b5050905080611af7576040516339b21b5d60e11b815260040160405180910390fd5b505b505050565b6000306001600160a01b037f00000000000000000000000000000000000000000000000000000000000000001614611b495760405163703e46dd60e11b815260040160405180910390fd5b506000805160206144c383398151915290565b60028181548110611b6c57600080fd5b600091825260209091206005909102016001810154600282015460048301805492945060ff9091169291611b9f906140fa565b80601f0160208091040260200160405190810160405280929190818152602001828054611bcb906140fa565b8015611c185780601f10611bed57610100808354040283529160200191611c18565b820191906000526020600020905b815481529060010190602001808311611bfb57829003601f168201915b5050505050905083565b611af784848484612bc1565b6000818152600360205260408120546002805460609392908110611c5457611c54613f48565b60009182526020822060059091020180549092508290611c7690600190613efc565b81548110611c8657611c86613f48565b90600052602060002090600c0201905080600a01805480602002602001604051908101604052809291908181526020018280548015611ce457602002820191906000526020600020905b815481526020019060010190808311611cd0575b505050505092505050919050565b600085815260036020526040812054600280548392908110611d1657611d16613f48565b60009182526020808320898452600360059093020191820190526040822054815491935083918110611d4a57611d4a613f48565b90600052602060002090600c02016000018681548110611d6c57611d6c613f48565b600091825260208220600154604051631c3db16d60e01b815260048082018e905293909302909101935082916001600160a01b0390911690631c3db16d90602401606060405180830381865afa158015611dca573d6000803e3d6000fd5b505050506040513d601f19601f82011682018060405250810190611dee919061405b565b506003850154919350915060ff168015611e1257508183600201541480611e125750805b15611e25576127109450505050506108ab565b5060009998505050505050505050565b60008060008060008060006002600360008c81526020019081526020016000205481548110611e6657611e66613f48565b600091825260208083208c8452600360059093020191820190526040822054815491935083918110611e9a57611e9a613f48565b600091825260208083206001600c909302019182015460038301546004840154600585015485549f87526002909501909352604090942054909f60ff9094169e50909c50909a9950975095505050505050565b600081815260036020526040812054600280548392908110611f1157611f11613f48565b60009182526020822060059091020180549092508290611f3390600190613efc565b81548110611f4357611f43613f48565b60009182526020822060015460405163564a565d60e01b815260048101899052600c9390930290910193506001600160a01b03169063564a565d9060240160a060405180830381865afa158015611f9e573d6000803e3d6000fd5b505050506040513d601f19601f82011682018060405250810190611fc29190613f8a565b5050600154604051630fad06e960e11b81526001600160601b03851660048201529394506000936001600160a01b039091169250631f5a0dd2915060240160e060405180830381865afa15801561201d573d6000803e3d6000fd5b505050506040513d601f19601f8201168201806040525081019061204191906141ea565b505050505091505060008161205757835461205d565b83600501545b6004909401549093149695505050505050565b6000546001600160a01b0316331461209a5760405162461bcd60e51b8152600401610b8a90614256565b6000836001600160a01b031683836040516120b591906141ce565b60006040518083038185875af1925050503d80600081146120f2576040519150601f19603f3d011682016040523d82523d6000602084013e6120f7565b606091505b5050905080611af75760405162461bcd60e51b8152602060048201526011602482015270155b9cdd58d8d95cdcd99d5b0818d85b1b607a1b6044820152606401610b8a565b61214b86868686868633612f24565b505050505050565b6000546001600160a01b0316331461217d5760405162461bcd60e51b8152600401610b8a90614256565b600180546001600160a01b0319166001600160a01b0392909216919091179055565b60008060008060006002600360008a815260200190815260200160002054815481106121cd576121cd613f48565b600091825260208083208a845260036005909302019182019052604082205481549193508391811061220157612201613f48565b90600052602060002090600c0201600001878154811061222357612223613f48565b600091825260209091206004909102018054600182015460028301546003909301546001600160a01b039092169c909b5091995060ff16975095505050505050565b6001546001600160a01b0316331461228f5760405162461bcd60e51b8152600401610b8a90614298565b60028054600181018255600091909152600581027f405787fa12a823e0f2b7631cc41b3ba8828b3321ca811111fa75cd3aa3bb5acf81018690557f405787fa12a823e0f2b7631cc41b3ba8828b3321ca811111fa75cd3aa3bb5ace8101907f405787fa12a823e0f2b7631cc41b3ba8828b3321ca811111fa75cd3aa3bb5ad20161231a85878361432a565b5060028101805460ff19169055805460018054604051637e37c78b60e11b8152600481018b9052600385019260009290916001600160a01b039091169063fc6f8f1690602401602060405180830381865afa15801561237d573d6000803e3d6000fd5b505050506040513d601f19601f820116820180604052508101906123a191906140e1565b6123ab9190613efc565b81526020808201929092526040908101600090812093909355835460018082018655858552838520600c909202909101600b81018890556003808201805460ff1990811685179091558d87529085528386208890556006909452938290208054909316179091555188907fd3106f74c2d30a4b9230e756a3e78bde53865d40f6af4c479bb010ebaab5810890612446908a908a908a906143e9565b60405180910390a25050505050505050565b60008381526003602052604081205460028054839290811061247c5761247c613f48565b600091825260208083208784526003600590930201918201905260408220548154919350839181106124b0576124b0613f48565b90600052602060002090600c020160000184815481106124d2576124d2613f48565b600091825260209091206004909102016003015460ff169695505050505050565b600760006124ff612b3a565b8054909150600160401b900460ff1680612526575080546001600160401b03808416911610155b156125435760405162dc149f60e41b815260040160405180910390fd5b805468ffffffffffffffffff19166001600160401b038316908117600160401b1760ff60401b191682556040519081527fc7f505b2f371ae2175ee4913f4499e1f2633a7b5936321eed1cdaeb6115181d29060200160405180910390a15050565b6001546000906001600160a01b031633146125d15760405162461bcd60e51b8152600401610b8a90614298565b6000838152600360205260409020546002805485929081106125f5576125f5613f48565b600091825260209091206002600590920201015460ff16156126295760405162461bcd60e51b8152600401610b8a906140aa565b600084815260036020526040812054600280549192918390811061264f5761264f613f48565b600091825260208220600590910201805490925061266f90600190613efc565b9050600082600001828154811061268857612688613f48565b90600052602060002090600c020190506000600160009054906101000a90046001600160a01b03166001600160a01b0316632e1daf2f6040518163ffffffff1660e01b8152600401602060405180830381865afa1580156126ed573d6000803e3d6000fd5b505050506040513d601f19601f82011682018060405250810190612711919061441f565b60015460405163564a565d60e01b8152600481018c90529192506000916001600160a01b039091169063564a565d9060240160a060405180830381865afa158015612760573d6000803e3d6000fd5b505050506040513d601f19601f820116820180604052508101906127849190613f8a565b5050604051632638506b60e11b81526001600160601b03841660048201819052602482018f9052604482018e90529394506001600160a01b0386169250634c70a0d69150606401602060405180830381865afa1580156127e8573d6000803e3d6000fd5b505050506040513d601f19601f8201168201806040525081019061280c919061441f565b9850612819848c8b613655565b156128c557604080516080810182526001600160a01b03808c1680835260006020808501828152858701838152606087018481528c5460018181018f558e8752858720995160049092029099018054919098166001600160a01b0319909116178755915186880155516002860155516003909401805494151560ff199586161790558c8252600581528582208b83528152858220928252919091529290922080549092161790556128ca565b600098505b505050505050505092915050565b6000828152600360205260408120546002805483929081106128fc576128fc613f48565b6000918252602080832086845260036005909302019182019052604082205481549193508391811061293057612930613f48565b600091825260208220600154604051631c3db16d60e01b8152600481018a9052600c93909302909101935082916001600160a01b0390911690631c3db16d90602401606060405180830381865afa15801561298f573d6000803e3d6000fd5b505050506040513d601f19601f820116820180604052508101906129b3919061405b565b50915091508260040154600014806129e25750801580156129e257506000828152600284016020526040902054155b156129f4576000945050505050612a25565b8015612a09575050600401549150612a259050565b506000908152600290910160205260409020549150612a259050565b92915050565b6000546001600160a01b03163314612a555760405162461bcd60e51b8152600401610b8a90614256565b600080546001600160a01b0319166001600160a01b0392909216919091179055565b600080600060a084511015612a9457506000915081905080612ab5565b505050608081015160a0808301516001600160a01b0383169290911c600116905b9193909250565b6000828152600360205260408120546002805491929183908110612ae257612ae2613f48565b906000526020600020906005020160030160008481526020019081526020016000205490509250929050565b600060028281548110612b2357612b23613f48565b600091825260209091206005909102015492915050565b7ff0c57e16840df040f15088dc2f81fe391c3923bec73e23a9662efc9c229c6a0e90565b612b66613817565b600080546001600160a01b039384166001600160a01b03199182161790915560018054929093169116179055565b6000546001600160a01b03163314612bbe5760405162461bcd60e51b8152600401610b8a90614256565b50565b600084815260036020526040902054600280548692908110612be557612be5613f48565b600091825260209091206002600590920201015460ff1615612c195760405162461bcd60e51b8152600401610b8a906140aa565b60015460405163564a565d60e01b8152600481018790526000916001600160a01b03169063564a565d9060240160a060405180830381865afa158015612c63573d6000803e3d6000fd5b505050506040513d601f19601f82011682018060405250810190612c879190613f8a565b5090935060019250612c97915050565b816004811115612ca957612ca9613ff3565b14612d065760405162461bcd60e51b815260206004820152602760248201527f54686520646973707574652073686f756c6420626520696e20436f6d6d6974206044820152663832b934b7b21760c91b6064820152608401610b8a565b82612d435760405162461bcd60e51b815260206004820152600d60248201526c22b6b83a3c9031b7b6b6b4ba1760991b6044820152606401610b8a565b60008681526006602052604090205460ff16612d715760405162461bcd60e51b8152600401610b8a90614024565b600086815260036020526040812054600280549091908110612d9557612d95613f48565b60009182526020822060059091020180549092508290612db790600190613efc565b81548110612dc757612dc7613f48565b90600052602060002090600c0201905060005b86811015612ebd573382898984818110612df657612df6613f48565b9050602002013581548110612e0d57612e0d613f48565b60009182526020909120600490910201546001600160a01b031614612e745760405162461bcd60e51b815260206004820152601f60248201527f5468652063616c6c65722068617320746f206f776e2074686520766f74652e006044820152606401610b8a565b8582898984818110612e8857612e88613f48565b9050602002013581548110612e9f57612e9f613f48565b60009182526020909120600160049092020181019190915501612dda565b5086869050816005016000828254612ed59190614097565b9091555050604051339089907f05cc2f1c94966f1c961b410a50f3d3ffb64501346753a258177097ea23707f0890612f12908b908b908b9061446e565b60405180910390a35050505050505050565b600087815260036020526040902054600280548992908110612f4857612f48613f48565b600091825260209091206002600590920201015460ff1615612f7c5760405162461bcd60e51b8152600401610b8a906140aa565b60015460405163564a565d60e01b8152600481018a90526000916001600160a01b03169063564a565d9060240160a060405180830381865afa158015612fc6573d6000803e3d6000fd5b505050506040513d601f19601f82011682018060405250810190612fea9190613f8a565b5090935060029250612ffa915050565b81600481111561300c5761300c613ff3565b146130675760405162461bcd60e51b815260206004820152602560248201527f54686520646973707574652073686f756c6420626520696e20566f74652070656044820152643934b7b21760d91b6064820152608401610b8a565b866130a95760405162461bcd60e51b8152602060048201526012602482015271139bc81d9bdd195251081c1c9bdd9a59195960721b6044820152606401610b8a565b60008981526006602052604090205460ff166130d75760405162461bcd60e51b8152600401610b8a90614024565b6000898152600360205260408120546002805490919081106130fb576130fb613f48565b9060005260206000209060050201905080600101548711156131565760405162461bcd60e51b815260206004820152601460248201527343686f696365206f7574206f6620626f756e647360601b6044820152606401610b8a565b8054600090829061316990600190613efc565b8154811061317957613179613f48565b60009182526020822060015460405163564a565d60e01b8152600c90930290910193506001600160a01b03169063564a565d906131be908f9060040190815260200190565b60a060405180830381865afa1580156131db573d6000803e3d6000fd5b505050506040513d601f19601f820116820180604052508101906131ff9190613f8a565b5050600154604051630fad06e960e11b81526001600160601b03851660048201529394506000936001600160a01b039091169250631f5a0dd2915060240160e060405180830381865afa15801561325a573d6000803e3d6000fd5b505050506040513d601f19601f8201168201806040525081019061327e91906141ea565b505050505091505060006132938b8b8b610a99565b905060005b8c81101561351a576001600160a01b038916858f8f848181106132bd576132bd613f48565b90506020020135815481106132d4576132d4613f48565b60009182526020909120600490910201546001600160a01b03161461333b5760405162461bcd60e51b815260206004820152601e60248201527f546865206a75726f722068617320746f206f776e2074686520766f74652e00006044820152606401610b8a565b821580613382575081858f8f8481811061335757613357613f48565b905060200201358154811061336e5761336e613f48565b906000526020600020906004020160010154145b6134025760405162461bcd60e51b8152602060048201526044602482018190527f54686520766f74652068617368206d757374206d617463682074686520636f6d908201527f6d69746d656e7420696e20636f7572747320776974682068696464656e20766f6064820152633a32b99760e11b608482015260a401610b8a565b848e8e8381811061341557613415613f48565b905060200201358154811061342c5761342c613f48565b600091825260209091206003600490920201015460ff16156134855760405162461bcd60e51b81526020600482015260126024820152712b37ba329030b63932b0b23c9031b0b9ba1760711b6044820152606401610b8a565b8b858f8f8481811061349957613499613f48565b90506020020135815481106134b0576134b0613f48565b60009182526020909120600260049092020101556001858f8f848181106134d9576134d9613f48565b90506020020135815481106134f0576134f0613f48565b60009182526020909120600490910201600301805460ff1916911515919091179055600101613298565b5050506004820180548b9250600090613534908490614097565b90915550506000888152600282016020526040812080548b9290613559908490614097565b90915550506001810154880361358857600381015460ff16156135835760038101805460ff191690555b613601565b60018101546000908152600282016020526040808220548a8352912054036135ca57600381015460ff166135835760038101805460ff19166001179055613601565b60018101546000908152600282016020526040808220548a83529120541115613601576001810188905560038101805460ff191690555b87856001600160a01b03168c7fa000893c71384499023d2d7b21234f7b9e80c78e0330f357dcd667ff578bd3a48d8d8b60405161364093929190614492565b60405180910390a45050505050505050505050565b600061366284848461383e565b61366e57506000610ac2565b600083815260036020526040812054600280549192918390811061369457613694613f48565b90600052602060002090600502019050600080600061373e8460040180546136bb906140fa565b80601f01602080910402602001604051908101604052809291908181526020018280546136e7906140fa565b80156137345780601f1061370957610100808354040283529160200191613734565b820191906000526020600020905b81548152906001019060200180831161371757829003601f168201915b5050505050612a77565b919450925090506001600160a01b03831661376157600195505050505050610ac2565b81156137e857604051627eeac760e11b81526001600160a01b038881166004830152602482018390526000919085169062fdd58e906044015b602060405180830381865afa1580156137b7573d6000803e3d6000fd5b505050506040513d601f19601f820116820180604052508101906137db91906140e1565b1195505050505050610ac2565b6040516370a0823160e01b81526000906001600160a01b038516906370a082319061379a908b90600401613909565b61381f6138d6565b61383c57604051631afcd79f60e31b815260040160405180910390fd5b565b60045460009060ff16156138cc57600083815260036020526040812054600280549192918390811061387257613872613f48565b600091825260208220600590910201805490925061389290600190613efc565b60009384526005602090815260408086209286529181528185206001600160a01b038816865290529092205460ff16159250610ac2915050565b5060019392505050565b60006138e0612b3a565b54600160401b900460ff16919050565b60006020828403121561390257600080fd5b5035919050565b6001600160a01b0391909116815260200190565b634e487b7160e01b600052604160045260246000fd5b600082601f83011261394457600080fd5b8135602083016000806001600160401b038411156139645761396461391d565b50604051601f19601f85018116603f011681018181106001600160401b03821117156139925761399261391d565b6040528381529050808284018710156139aa57600080fd5b838360208301376000602085830101528094505050505092915050565b6000806000606084860312156139dc57600080fd5b833592506020840135915060408401356001600160401b03811115613a0057600080fd5b613a0c86828701613933565b9150509250925092565b6001600160a01b0381168114612bbe57600080fd5b60008060008060808587031215613a4157600080fd5b843593506020850135613a5381613a16565b93969395505050506040820135916060013590565b60008060408385031215613a7b57600080fd5b8235613a8681613a16565b91506020830135613a9681613a16565b809150509250929050565b60008060408385031215613ab457600080fd5b50508035926020909101359150565b60008060408385031215613ad657600080fd5b8235613ae181613a16565b915060208301356001600160401b03811115613afc57600080fd5b613b0885828601613933565b9150509250929050565b60005b83811015613b2d578181015183820152602001613b15565b50506000910152565b60008151808452613b4e816020860160208601613b12565b601f01601f19169290920160200192915050565b602081526000610ac26020830184613b36565b83815282151560208201526060604082015260006108ab6060830184613b36565b600080600060608486031215613bab57600080fd5b83359250602084013591506040840135613bc481613a16565b809150509250925092565b60008083601f840112613be157600080fd5b5081356001600160401b03811115613bf857600080fd5b6020830191508360208260051b8501011115613c1357600080fd5b9250929050565b60008060008060608587031215613c3057600080fd5b8435935060208501356001600160401b03811115613c4d57600080fd5b613c5987828801613bcf565b9598909750949560400135949350505050565b602080825282518282018190526000918401906040840190835b81811015613ca4578351835260209384019390920191600101613c86565b509095945050505050565b600080600080600060a08688031215613cc757600080fd5b505083359560208501359550604085013594606081013594506080013592509050565b600080600060608486031215613cff57600080fd5b505081359360208301359350604090920135919050565b600080600060608486031215613d2b57600080fd5b8335613d3681613a16565b92506020840135915060408401356001600160401b03811115613a0057600080fd5b60008060008060008060a08789031215613d7157600080fd5b8635955060208701356001600160401b03811115613d8e57600080fd5b613d9a89828a01613bcf565b909650945050604087013592506060870135915060808701356001600160401b03811115613dc757600080fd5b613dd389828a01613933565b9150509295509295509295565b600060208284031215613df257600080fd5b8135610ac281613a16565b600080600080600060808688031215613e1557600080fd5b853594506020860135935060408601356001600160401b03811115613e3957600080fd5b8601601f81018813613e4a57600080fd5b80356001600160401b03811115613e6057600080fd5b886020828401011115613e7257600080fd5b959894975060200195606001359392505050565b600060208284031215613e9857600080fd5b81356001600160401b03811115613eae57600080fd5b613eba84828501613933565b949350505050565b60008060408385031215613ed557600080fd5b505080516020909101519092909150565b634e487b7160e01b600052601160045260246000fd5b81810381811115612a2557612a25613ee6565b8082028115828204841417612a2557612a25613ee6565b600082613f4357634e487b7160e01b600052601260045260246000fd5b500490565b634e487b7160e01b600052603260045260246000fd5b80516001600160601b0381168114613f7557600080fd5b919050565b80518015158114613f7557600080fd5b600080600080600060a08688031215613fa257600080fd5b613fab86613f5e565b94506020860151613fbb81613a16565b604087015190945060058110613fd057600080fd5b9250613fde60608701613f7a565b60809690960151949793965091949392915050565b634e487b7160e01b600052602160045260246000fd5b60006020828403121561401b57600080fd5b610ac282613f7a565b6020808252601e908201527f4e6f742061637469766520666f7220636f726520646973707574652049440000604082015260600190565b60008060006060848603121561407057600080fd5b8351925061408060208501613f7a565b915061408e60408501613f7a565b90509250925092565b80820180821115612a2557612a25613ee6565b6020808252601e908201527f44697370757465206a756d70656420746f206120706172656e7420444b210000604082015260600190565b6000602082840312156140f357600080fd5b5051919050565b600181811c9082168061410e57607f821691505b60208210810361412e57634e487b7160e01b600052602260045260246000fd5b50919050565b838152826020820152606060408201526000808354614152816140fa565b8060608601526001821660008114614171576001811461418d576141c1565b60ff1983166080870152608082151560051b87010193506141c1565b86600052602060002060005b838110156141b857815488820160800152600190910190602001614199565b87016080019450505b5091979650505050505050565b600082516141e0818460208701613b12565b9190910192915050565b600080600080600080600060e0888a03121561420557600080fd5b61420e88613f5e565b965061421c60208901613f7a565b604089015160608a015160808b015160a08c015193995091975095509350915061424860c08901613f7a565b905092959891949750929550565b60208082526022908201527f416363657373206e6f7420616c6c6f7765643a20476f7665726e6f72206f6e6c6040820152613c9760f11b606082015260800190565b60208082526024908201527f416363657373206e6f7420616c6c6f7765643a204b6c65726f73436f7265206f60408201526337363c9760e11b606082015260800190565b601f821115611af957806000526020600020601f840160051c810160208510156143035750805b601f840160051c820191505b81811015614323576000815560010161430f565b5050505050565b6001600160401b038311156143415761434161391d565b6143558361434f83546140fa565b836142dc565b6000601f84116001811461438957600085156143715750838201355b600019600387901b1c1916600186901b178355614323565b600083815260209020601f19861690835b828110156143ba578685013582556020948501946001909201910161439a565b50868210156143d75760001960f88860031b161c19848701351681555b505060018560011b0183555050505050565b83815260406020820152816040820152818360608301376000818301606090810191909152601f909201601f1916010192915050565b60006020828403121561443157600080fd5b8151610ac281613a16565b81835260006001600160fb1b0383111561445557600080fd5b8260051b80836020870137939093016020019392505050565b60408152600061448260408301858761443c565b9050826020830152949350505050565b6040815260006144a660408301858761443c565b82810360208401526144b88185613b36565b969550505050505056fe360894a13ba1a3210667c828492db98dca3e2076cc3735a920a3ca505d382bbca264697066735822122010698c50a9e18a4639a1f120d88bf41112048f29ad07d0fb9e76019928f9002964736f6c634300081c0033",
  "devdoc": {
    "errors": {
      "AlreadyInitialized()": [
        {
          "details": "The contract is already initialized."
        }
      ],
      "InvalidImplementation(address)": [
        {
          "details": "The `implementation` is not UUPS-compliant"
        }
      ],
      "NotInitializing()": [
        {
          "details": "The contract is not initializing."
        }
      ],
      "UUPSUnauthorizedCallContext()": [
        {
          "details": "The call is from an unauthorized context."
        }
      ],
      "UUPSUnsupportedProxiableUUID(bytes32)": [
        {
          "details": "The storage `slot` is unsupported as a UUID."
        }
      ]
    },
    "events": {
      "ChoiceFunded(uint256,uint256,uint256)": {
        "details": "To be emitted when a choice is fully funded for an appeal.",
        "params": {
          "_choice": "The choice that is being funded.",
          "_coreDisputeID": "The identifier of the dispute in the Arbitrator contract.",
          "_coreRoundID": "The identifier of the round in the Arbitrator contract."
        }
      },
      "CommitCast(uint256,address,uint256[],bytes32)": {
        "details": "To be emitted when a vote commitment is cast.",
        "params": {
          "_commit": "The commitment of the juror.",
          "_coreDisputeID": "The identifier of the dispute in the Arbitrator contract.",
          "_juror": "The address of the juror casting the vote commitment.",
          "_voteIDs": "The identifiers of the votes in the dispute."
        }
      },
      "Contribution(uint256,uint256,uint256,address,uint256)": {
        "details": "To be emitted when a funding contribution is made.",
        "params": {
          "_amount": "The amount contributed.",
          "_choice": "The choice that is being funded.",
          "_contributor": "The address of the contributor.",
          "_coreDisputeID": "The identifier of the dispute in the Arbitrator contract.",
          "_coreRoundID": "The identifier of the round in the Arbitrator contract."
        }
      },
      "DisputeCreation(uint256,uint256,bytes)": {
        "details": "To be emitted when a dispute is created.",
        "params": {
          "_coreDisputeID": "The identifier of the dispute in the Arbitrator contract.",
          "_extraData": "The extra data for the dispute.",
          "_numberOfChoices": "The number of choices available in the dispute."
        }
      },
      "Initialized(uint64)": {
        "details": "Triggered when the contract has been initialized or reinitialized."
      },
      "Upgraded(address)": {
        "details": "Emitted when the `implementation` has been successfully upgraded.",
        "params": {
          "newImplementation": "Address of the new implementation the proxy is now forwarding calls to."
        }
      },
      "VoteCast(uint256,address,uint256[],uint256,string)": {
        "details": "Emitted when casting a vote to provide the justification of juror's choice.",
        "params": {
          "_choice": "The choice juror voted for.",
          "_coreDisputeID": "The identifier of the dispute in the Arbitrator contract.",
          "_juror": "Address of the juror.",
          "_justification": "Justification of the choice.",
          "_voteIDs": "The identifiers of the votes in the dispute."
        }
      },
      "Withdrawal(uint256,uint256,uint256,address,uint256)": {
        "details": "To be emitted when the contributed funds are withdrawn.",
        "params": {
          "_amount": "The amount withdrawn.",
          "_choice": "The choice that is being funded.",
          "_contributor": "The address of the contributor.",
          "_coreDisputeID": "The identifier of the dispute in the Arbitrator contract.",
          "_coreRoundID": "The identifier of the round in the Arbitrator contract."
        }
      }
    },
    "kind": "dev",
    "methods": {
      "areCommitsAllCast(uint256)": {
        "details": "Returns true if all of the jurors have cast their commits for the last round.",
        "params": {
          "_coreDisputeID": "The ID of the dispute in Kleros Core."
        },
        "returns": {
          "_0": "Whether all of the jurors have cast their commits for the last round."
        }
      },
      "areVotesAllCast(uint256)": {
        "details": "Returns true if all of the jurors have cast their votes for the last round. Note that this function is to be called directly by the core contract and is not for off-chain usage.",
        "params": {
          "_coreDisputeID": "The ID of the dispute in Kleros Core."
        },
        "returns": {
          "_0": "Whether all of the jurors have cast their votes for the last round."
        }
      },
      "castCommit(uint256,uint256[],bytes32)": {
        "details": "Sets the caller's commit for the specified votes. It can be called multiple times during the commit period, each call overrides the commits of the previous one. `O(n)` where `n` is the number of votes.",
        "params": {
          "_commit": "The commitment hash.",
          "_coreDisputeID": "The ID of the dispute in Kleros Core.",
          "_voteIDs": "The IDs of the votes."
        }
      },
      "castVote(uint256,uint256[],uint256,uint256,string)": {
        "details": "Sets the caller's choices for the specified votes. `O(n)` where `n` is the number of votes.",
        "params": {
          "_choice": "The choice.",
          "_coreDisputeID": "The ID of the dispute in Kleros Core.",
          "_justification": "Justification of the choice.",
          "_salt": "The salt for the commit if the votes were hidden.",
          "_voteIDs": "The IDs of the votes."
        }
      },
      "changeCore(address)": {
        "details": "Changes the `core` storage variable.",
        "params": {
          "_core": "The new value for the `core` storage variable."
        }
      },
      "changeGovernor(address)": {
        "details": "Changes the `governor` storage variable.",
        "params": {
          "_governor": "The new value for the `governor` storage variable."
        }
      },
      "constructor": {
        "custom:oz-upgrades-unsafe-allow": "constructor"
      },
      "createDispute(uint256,uint256,bytes,uint256)": {
        "details": "Creates a local dispute and maps it to the dispute ID in the Core contract. Note: Access restricted to Kleros Core only.",
        "params": {
          "_coreDisputeID": "The ID of the dispute in Kleros Core.",
          "_extraData": "Additional info about the dispute, for possible use in future dispute kits.",
          "_nbVotes": "Number of votes for this dispute.",
          "_numberOfChoices": "Number of choices of the dispute"
        }
      },
      "currentRuling(uint256)": {
        "details": "Gets the current ruling of a specified dispute.",
        "params": {
          "_coreDisputeID": "The ID of the dispute in Kleros Core."
        },
        "returns": {
          "overridden": "Whether the ruling was overridden by appeal funding or not.",
          "ruling": "The current ruling.",
          "tied": "Whether it's a tie or not."
        }
      },
      "draw(uint256,uint256)": {
        "details": "Draws the juror from the sortition tree. The drawn address is picked up by Kleros Core. Note: Access restricted to Kleros Core only.",
        "params": {
          "_coreDisputeID": "The ID of the dispute in Kleros Core.",
          "_nonce": "Nonce of the drawing iteration."
        },
        "returns": {
          "drawnAddress": "The drawn address."
        }
      },
      "executeGovernorProposal(address,uint256,bytes)": {
        "details": "Allows the governor to call anything on behalf of the contract.",
        "params": {
          "_amount": "The value sent with the call.",
          "_data": "The data sent with the call.",
          "_destination": "The destination of the call."
        }
      },
      "extraDataToTokenInfo(bytes)": {
        "details": "Extracts token gating information from the extra data.",
        "params": {
          "_extraData": "The extra data bytes array with the following encoding:        - bytes 0-31: uint96 courtID, not used here        - bytes 32-63: uint256 minJurors, not used here        - bytes 64-95: uint256 disputeKitID, not used here        - bytes 96-127: uint256 packedTokenGateAndFlag (address tokenGate in bits 0-159, bool isERC1155 in bit 160)        - bytes 128-159: uint256 tokenId"
        },
        "returns": {
          "isERC1155": "True if the token is an ERC-1155, false for ERC-20/ERC-721.",
          "tokenGate": "The address of the token contract used for gating access.",
          "tokenId": "The token ID for ERC-1155 tokens (ignored for ERC-20/ERC-721)."
        }
      },
      "fundAppeal(uint256,uint256)": {
        "details": "Manages contributions, and appeals a dispute if at least two choices are fully funded. Note that the surplus deposit will be reimbursed.",
        "params": {
          "_choice": "A choice that receives funding.",
          "_coreDisputeID": "Index of the dispute in Kleros Core."
        }
      },
      "getCoherentCount(uint256,uint256)": {
        "details": "Gets the number of jurors who are eligible to a reward in this round.",
        "params": {
          "_coreDisputeID": "The ID of the dispute in Kleros Core, not in the Dispute Kit.",
          "_coreRoundID": "The ID of the round in Kleros Core, not in the Dispute Kit."
        },
        "returns": {
          "_0": "The number of coherent jurors."
        }
      },
      "getDegreeOfCoherence(uint256,uint256,uint256,uint256,uint256)": {
        "details": "Gets the degree of coherence of a particular voter. This function is called by Kleros Core in order to determine the amount of the reward.",
        "params": {
          "_coreDisputeID": "The ID of the dispute in Kleros Core, not in the Dispute Kit.",
          "_coreRoundID": "The ID of the round in Kleros Core, not in the Dispute Kit.",
          "_voteID": "The ID of the vote."
        },
        "returns": {
          "_0": "The degree of coherence in basis points."
        }
      },
      "getLocalDisputeRoundID(uint256,uint256)": {
        "details": "Returns the local dispute ID and round ID for a given core dispute ID and core round ID.",
        "params": {
          "_coreDisputeID": "The ID of the dispute in Kleros Core.",
          "_coreRoundID": "The ID of the round in Kleros Core."
        },
        "returns": {
          "localDisputeID": "The ID of the dispute in the Dispute Kit.",
          "localRoundID": "The ID of the round in the Dispute Kit."
        }
      },
      "getNumberOfRounds(uint256)": {
        "details": "Returns the number of rounds in a dispute.",
        "params": {
          "_localDisputeID": "The ID of the dispute in the Dispute Kit."
        },
        "returns": {
          "_0": "The number of rounds in the dispute."
        }
      },
      "getVoteInfo(uint256,uint256,uint256)": {
        "details": "Returns the vote information for a given vote ID.",
        "params": {
          "_coreDisputeID": "The ID of the dispute in Kleros Core.",
          "_coreRoundID": "The ID of the round in Kleros Core.",
          "_voteID": "The ID of the vote."
        },
        "returns": {
          "account": "The address of the juror who cast the vote.",
          "commit": "The commit of the vote."
        }
      },
      "hashVote(uint256,uint256,string)": {
        "details": "Computes the hash of a vote using ABI encodingThe unused parameters may be used by overriding contracts.",
        "params": {
          "_choice": "The choice being voted for",
          "_justification": "The justification for the vote",
          "_salt": "A random salt for commitment"
        },
        "returns": {
          "_0": "bytes32 The hash of the encoded vote parameters"
        }
      },
      "initialize(address,address)": {
        "details": "Initializer.",
        "params": {
          "_core": "The KlerosCore arbitrator.",
          "_governor": "The governor's address."
        }
      },
      "isAppealFunded(uint256)": {
        "details": "Returns true if the appeal funding is finished prematurely (e.g. when losing side didn't fund). Note that this function is to be called directly by the core contract and is not for off-chain usage.",
        "params": {
          "_coreDisputeID": "The ID of the dispute in Kleros Core, not in the Dispute Kit."
        },
        "returns": {
          "_0": "Whether the appeal funding is finished."
        }
      },
      "isVoteActive(uint256,uint256,uint256)": {
        "details": "Returns true if the specified voter was active in this round.",
        "params": {
          "_coreDisputeID": "The ID of the dispute in Kleros Core, not in the Dispute Kit.",
          "_coreRoundID": "The ID of the round in Kleros Core, not in the Dispute Kit.",
          "_voteID": "The ID of the voter."
        },
        "returns": {
          "_0": "Whether the voter was active or not."
        }
      },
      "proxiableUUID()": {
        "details": "Implementation of the ERC1822 `proxiableUUID` function. This returns the storage slot used by the implementation. It is used to validate the implementation's compatibility when performing an upgrade. IMPORTANT: A proxy pointing at a proxiable contract should not be considered proxiable itself, because this risks bricking a proxy that upgrades to it, by delegating to itself until out of gas. Thus it is critical that this function revert if invoked through a proxy. This is guaranteed by the if statement."
      },
      "upgradeToAndCall(address,bytes)": {
        "details": "Upgrade mechanism including access control and UUPS-compliance.Reverts if the execution is not performed via delegatecall or the execution context is not of a proxy with an ERC1967-compliant implementation pointing to self.",
        "params": {
          "data": "Data used in a delegate call to `newImplementation` if non-empty. This will typically be an encoded function call, and allows initializing the storage of the proxy like a Solidity constructor.",
          "newImplementation": "Address of the new implementation contract."
        }
      },
      "withdrawFeesAndRewards(uint256,address,uint256,uint256)": {
        "details": "Allows those contributors who attempted to fund an appeal round to withdraw any reimbursable fees or rewards after the dispute gets resolved. Note that withdrawals are not possible if the core contract is paused.",
        "params": {
          "_beneficiary": "The address whose rewards to withdraw.",
          "_choice": "The ruling option that the caller wants to withdraw from.",
          "_coreDisputeID": "Index of the dispute in Kleros Core contract.",
          "_coreRoundID": "The round in the Kleros Core contract the caller wants to withdraw from."
        },
        "returns": {
          "amount": "The withdrawn amount."
        }
      }
    },
    "stateVariables": {
      "version": {
        "details": "Returns the version of the implementation.",
        "return": "Version string.",
        "returns": {
          "_0": "Version string."
        }
      }
    },
    "title": "DisputeKitGated Dispute kit implementation adapted from DisputeKitClassic - a drawing system: proportional to staked PNK with a non-zero balance of `tokenGate` where `tokenGate` is an ERC20, ERC721 or ERC1155 - a vote aggregation system: plurality, - an incentive system: equal split between coherent votes, - an appeal system: fund 2 choices only, vote on any choice.",
    "version": 1
  },
  "userdoc": {
    "errors": {
      "FailedDelegateCall()": [
        {
          "notice": "Failed Delegated call"
        }
      ]
    },
    "kind": "user",
    "methods": {},
    "version": 1
  },
  "storageLayout": {
    "storage": [
      {
        "astId": 6125,
        "contract": "src/arbitration/dispute-kits/DisputeKitGated.sol:DisputeKitGated",
        "label": "governor",
        "offset": 0,
        "slot": "0",
        "type": "t_address"
      },
      {
        "astId": 6128,
        "contract": "src/arbitration/dispute-kits/DisputeKitGated.sol:DisputeKitGated",
        "label": "core",
        "offset": 0,
        "slot": "1",
        "type": "t_contract(KlerosCore)165"
      },
      {
        "astId": 6132,
        "contract": "src/arbitration/dispute-kits/DisputeKitGated.sol:DisputeKitGated",
        "label": "disputes",
        "offset": 0,
        "slot": "2",
        "type": "t_array(t_struct(Dispute)6064_storage)dyn_storage"
      },
      {
        "astId": 6136,
        "contract": "src/arbitration/dispute-kits/DisputeKitGated.sol:DisputeKitGated",
        "label": "coreDisputeIDToLocal",
        "offset": 0,
        "slot": "3",
        "type": "t_mapping(t_uint256,t_uint256)"
      },
      {
        "astId": 6138,
        "contract": "src/arbitration/dispute-kits/DisputeKitGated.sol:DisputeKitGated",
        "label": "singleDrawPerJuror",
        "offset": 0,
        "slot": "4",
        "type": "t_bool"
      },
      {
        "astId": 6146,
        "contract": "src/arbitration/dispute-kits/DisputeKitGated.sol:DisputeKitGated",
        "label": "alreadyDrawn",
        "offset": 0,
        "slot": "5",
        "type": "t_mapping(t_uint256,t_mapping(t_uint256,t_mapping(t_address,t_bool)))"
      },
      {
        "astId": 6150,
        "contract": "src/arbitration/dispute-kits/DisputeKitGated.sol:DisputeKitGated",
        "label": "coreDisputeIDToActive",
        "offset": 0,
        "slot": "6",
        "type": "t_mapping(t_uint256,t_bool)"
      }
    ],
    "types": {
      "t_address": {
        "encoding": "inplace",
        "label": "address",
        "numberOfBytes": "20"
      },
      "t_array(t_struct(Dispute)6064_storage)dyn_storage": {
        "base": "t_struct(Dispute)6064_storage",
        "encoding": "dynamic_array",
        "label": "struct DisputeKitClassicBase.Dispute[]",
        "numberOfBytes": "32"
      },
      "t_array(t_struct(Round)6102_storage)dyn_storage": {
        "base": "t_struct(Round)6102_storage",
        "encoding": "dynamic_array",
        "label": "struct DisputeKitClassicBase.Round[]",
        "numberOfBytes": "32"
      },
      "t_array(t_struct(Vote)6111_storage)dyn_storage": {
        "base": "t_struct(Vote)6111_storage",
        "encoding": "dynamic_array",
        "label": "struct DisputeKitClassicBase.Vote[]",
        "numberOfBytes": "32"
      },
      "t_array(t_uint256)dyn_storage": {
        "base": "t_uint256",
        "encoding": "dynamic_array",
        "label": "uint256[]",
        "numberOfBytes": "32"
      },
      "t_bool": {
        "encoding": "inplace",
        "label": "bool",
        "numberOfBytes": "1"
      },
      "t_bytes32": {
        "encoding": "inplace",
        "label": "bytes32",
        "numberOfBytes": "32"
      },
      "t_bytes_storage": {
        "encoding": "bytes",
        "label": "bytes",
        "numberOfBytes": "32"
      },
      "t_contract(KlerosCore)165": {
        "encoding": "inplace",
        "label": "contract KlerosCore",
        "numberOfBytes": "20"
      },
      "t_mapping(t_address,t_bool)": {
        "encoding": "mapping",
        "key": "t_address",
        "label": "mapping(address => bool)",
        "numberOfBytes": "32",
        "value": "t_bool"
      },
      "t_mapping(t_address,t_mapping(t_uint256,t_uint256))": {
        "encoding": "mapping",
        "key": "t_address",
        "label": "mapping(address => mapping(uint256 => uint256))",
        "numberOfBytes": "32",
        "value": "t_mapping(t_uint256,t_uint256)"
      },
      "t_mapping(t_uint256,t_bool)": {
        "encoding": "mapping",
        "key": "t_uint256",
        "label": "mapping(uint256 => bool)",
        "numberOfBytes": "32",
        "value": "t_bool"
      },
      "t_mapping(t_uint256,t_mapping(t_address,t_bool))": {
        "encoding": "mapping",
        "key": "t_uint256",
        "label": "mapping(uint256 => mapping(address => bool))",
        "numberOfBytes": "32",
        "value": "t_mapping(t_address,t_bool)"
      },
      "t_mapping(t_uint256,t_mapping(t_uint256,t_mapping(t_address,t_bool)))": {
        "encoding": "mapping",
        "key": "t_uint256",
        "label": "mapping(uint256 => mapping(uint256 => mapping(address => bool)))",
        "numberOfBytes": "32",
        "value": "t_mapping(t_uint256,t_mapping(t_address,t_bool))"
      },
      "t_mapping(t_uint256,t_uint256)": {
        "encoding": "mapping",
        "key": "t_uint256",
        "label": "mapping(uint256 => uint256)",
        "numberOfBytes": "32",
        "value": "t_uint256"
      },
      "t_struct(Dispute)6064_storage": {
        "encoding": "inplace",
        "label": "struct DisputeKitClassicBase.Dispute",
        "members": [
          {
            "astId": 6053,
            "contract": "src/arbitration/dispute-kits/DisputeKitGated.sol:DisputeKitGated",
            "label": "rounds",
            "offset": 0,
            "slot": "0",
            "type": "t_array(t_struct(Round)6102_storage)dyn_storage"
          },
          {
            "astId": 6055,
            "contract": "src/arbitration/dispute-kits/DisputeKitGated.sol:DisputeKitGated",
            "label": "numberOfChoices",
            "offset": 0,
            "slot": "1",
            "type": "t_uint256"
          },
          {
            "astId": 6057,
            "contract": "src/arbitration/dispute-kits/DisputeKitGated.sol:DisputeKitGated",
            "label": "jumped",
            "offset": 0,
            "slot": "2",
            "type": "t_bool"
          },
          {
            "astId": 6061,
            "contract": "src/arbitration/dispute-kits/DisputeKitGated.sol:DisputeKitGated",
            "label": "coreRoundIDToLocal",
            "offset": 0,
            "slot": "3",
            "type": "t_mapping(t_uint256,t_uint256)"
          },
          {
            "astId": 6063,
            "contract": "src/arbitration/dispute-kits/DisputeKitGated.sol:DisputeKitGated",
            "label": "extraData",
            "offset": 0,
            "slot": "4",
            "type": "t_bytes_storage"
          }
        ],
        "numberOfBytes": "160"
      },
      "t_struct(Round)6102_storage": {
        "encoding": "inplace",
        "label": "struct DisputeKitClassicBase.Round",
        "members": [
          {
            "astId": 6068,
            "contract": "src/arbitration/dispute-kits/DisputeKitGated.sol:DisputeKitGated",
            "label": "votes",
            "offset": 0,
            "slot": "0",
            "type": "t_array(t_struct(Vote)6111_storage)dyn_storage"
          },
          {
            "astId": 6070,
            "contract": "src/arbitration/dispute-kits/DisputeKitGated.sol:DisputeKitGated",
            "label": "winningChoice",
            "offset": 0,
            "slot": "1",
            "type": "t_uint256"
          },
          {
            "astId": 6074,
            "contract": "src/arbitration/dispute-kits/DisputeKitGated.sol:DisputeKitGated",
            "label": "counts",
            "offset": 0,
            "slot": "2",
            "type": "t_mapping(t_uint256,t_uint256)"
          },
          {
            "astId": 6076,
            "contract": "src/arbitration/dispute-kits/DisputeKitGated.sol:DisputeKitGated",
            "label": "tied",
            "offset": 0,
            "slot": "3",
            "type": "t_bool"
          },
          {
            "astId": 6078,
            "contract": "src/arbitration/dispute-kits/DisputeKitGated.sol:DisputeKitGated",
            "label": "totalVoted",
            "offset": 0,
            "slot": "4",
            "type": "t_uint256"
          },
          {
            "astId": 6080,
            "contract": "src/arbitration/dispute-kits/DisputeKitGated.sol:DisputeKitGated",
            "label": "totalCommitted",
            "offset": 0,
            "slot": "5",
            "type": "t_uint256"
          },
          {
            "astId": 6084,
            "contract": "src/arbitration/dispute-kits/DisputeKitGated.sol:DisputeKitGated",
            "label": "paidFees",
            "offset": 0,
            "slot": "6",
            "type": "t_mapping(t_uint256,t_uint256)"
          },
          {
            "astId": 6088,
            "contract": "src/arbitration/dispute-kits/DisputeKitGated.sol:DisputeKitGated",
            "label": "hasPaid",
            "offset": 0,
            "slot": "7",
            "type": "t_mapping(t_uint256,t_bool)"
          },
          {
            "astId": 6094,
            "contract": "src/arbitration/dispute-kits/DisputeKitGated.sol:DisputeKitGated",
            "label": "contributions",
            "offset": 0,
            "slot": "8",
            "type": "t_mapping(t_address,t_mapping(t_uint256,t_uint256))"
          },
          {
            "astId": 6096,
            "contract": "src/arbitration/dispute-kits/DisputeKitGated.sol:DisputeKitGated",
            "label": "feeRewards",
            "offset": 0,
            "slot": "9",
            "type": "t_uint256"
          },
          {
            "astId": 6099,
            "contract": "src/arbitration/dispute-kits/DisputeKitGated.sol:DisputeKitGated",
            "label": "fundedChoices",
            "offset": 0,
            "slot": "10",
            "type": "t_array(t_uint256)dyn_storage"
          },
          {
            "astId": 6101,
            "contract": "src/arbitration/dispute-kits/DisputeKitGated.sol:DisputeKitGated",
            "label": "nbVotes",
            "offset": 0,
            "slot": "11",
            "type": "t_uint256"
          }
        ],
        "numberOfBytes": "384"
      },
      "t_struct(Vote)6111_storage": {
        "encoding": "inplace",
        "label": "struct DisputeKitClassicBase.Vote",
        "members": [
          {
            "astId": 6104,
            "contract": "src/arbitration/dispute-kits/DisputeKitGated.sol:DisputeKitGated",
            "label": "account",
            "offset": 0,
            "slot": "0",
            "type": "t_address"
          },
          {
            "astId": 6106,
            "contract": "src/arbitration/dispute-kits/DisputeKitGated.sol:DisputeKitGated",
            "label": "commit",
            "offset": 0,
            "slot": "1",
            "type": "t_bytes32"
          },
          {
            "astId": 6108,
            "contract": "src/arbitration/dispute-kits/DisputeKitGated.sol:DisputeKitGated",
            "label": "choice",
            "offset": 0,
            "slot": "2",
            "type": "t_uint256"
          },
          {
            "astId": 6110,
            "contract": "src/arbitration/dispute-kits/DisputeKitGated.sol:DisputeKitGated",
            "label": "voted",
            "offset": 0,
            "slot": "3",
            "type": "t_bool"
          }
        ],
        "numberOfBytes": "128"
      },
      "t_uint256": {
        "encoding": "inplace",
        "label": "uint256",
        "numberOfBytes": "32"
      }
    }
  }
}