{
  "address": "0x4106F3143287B5a34dE4aB53C267797a974Bf92E",
  "abi": [
    {
      "inputs": [],
      "stateMutability": "nonpayable",
      "type": "constructor"
    },
    {
      "inputs": [],
      "name": "AlreadyInitialized",
      "type": "error"
    },
    {
      "inputs": [],
      "name": "FailedDelegateCall",
      "type": "error"
    },
    {
      "inputs": [
        {
          "internalType": "address",
          "name": "implementation",
          "type": "address"
        }
      ],
      "name": "InvalidImplementation",
      "type": "error"
    },
    {
      "inputs": [],
      "name": "NotInitializing",
      "type": "error"
    },
    {
      "inputs": [],
      "name": "OwnerOnly",
      "type": "error"
    },
    {
      "inputs": [],
      "name": "UUPSUnauthorizedCallContext",
      "type": "error"
    },
    {
      "inputs": [
        {
          "internalType": "bytes32",
          "name": "slot",
          "type": "bytes32"
        }
      ],
      "name": "UUPSUnsupportedProxiableUUID",
      "type": "error"
    },
    {
      "anonymous": false,
      "inputs": [
        {
          "indexed": true,
          "internalType": "uint256",
          "name": "_templateId",
          "type": "uint256"
        },
        {
          "indexed": true,
          "internalType": "string",
          "name": "_templateTag",
          "type": "string"
        },
        {
          "indexed": false,
          "internalType": "string",
          "name": "_templateData",
          "type": "string"
        },
        {
          "indexed": false,
          "internalType": "string",
          "name": "_templateDataMappings",
          "type": "string"
        }
      ],
      "name": "DisputeTemplate",
      "type": "event"
    },
    {
      "anonymous": false,
      "inputs": [
        {
          "indexed": false,
          "internalType": "uint64",
          "name": "version",
          "type": "uint64"
        }
      ],
      "name": "Initialized",
      "type": "event"
    },
    {
      "anonymous": false,
      "inputs": [
        {
          "indexed": true,
          "internalType": "address",
          "name": "newImplementation",
          "type": "address"
        }
      ],
      "name": "Upgraded",
      "type": "event"
    },
    {
      "inputs": [
        {
          "internalType": "address",
          "name": "_owner",
          "type": "address"
        }
      ],
      "name": "changeOwner",
      "outputs": [],
      "stateMutability": "nonpayable",
      "type": "function"
    },
    {
      "inputs": [
        {
          "internalType": "address",
          "name": "_owner",
          "type": "address"
        }
      ],
      "name": "initialize",
      "outputs": [],
      "stateMutability": "nonpayable",
      "type": "function"
    },
    {
      "inputs": [],
      "name": "owner",
      "outputs": [
        {
          "internalType": "address",
          "name": "",
          "type": "address"
        }
      ],
      "stateMutability": "view",
      "type": "function"
    },
    {
      "inputs": [],
      "name": "proxiableUUID",
      "outputs": [
        {
          "internalType": "bytes32",
          "name": "",
          "type": "bytes32"
        }
      ],
      "stateMutability": "view",
      "type": "function"
    },
    {
      "inputs": [
        {
          "internalType": "string",
          "name": "_templateTag",
          "type": "string"
        },
        {
          "internalType": "string",
          "name": "_templateData",
          "type": "string"
        },
        {
          "internalType": "string",
          "name": "_templateDataMappings",
          "type": "string"
        }
      ],
      "name": "setDisputeTemplate",
      "outputs": [
        {
          "internalType": "uint256",
          "name": "templateId",
          "type": "uint256"
        }
      ],
      "stateMutability": "nonpayable",
      "type": "function"
    },
    {
      "inputs": [],
      "name": "templates",
      "outputs": [
        {
          "internalType": "uint256",
          "name": "",
          "type": "uint256"
        }
      ],
      "stateMutability": "view",
      "type": "function"
    },
    {
      "inputs": [
        {
          "internalType": "address",
          "name": "newImplementation",
          "type": "address"
        },
        {
          "internalType": "bytes",
          "name": "data",
          "type": "bytes"
        }
      ],
      "name": "upgradeToAndCall",
      "outputs": [],
      "stateMutability": "payable",
      "type": "function"
    },
    {
      "inputs": [],
      "name": "version",
      "outputs": [
        {
          "internalType": "string",
          "name": "",
          "type": "string"
        }
      ],
      "stateMutability": "view",
      "type": "function"
    }
  ],
  "transactionHash": "0x4ca0a2d2094e54cb2fc4387c14b1417b7415d255015e0670cd1da7c80e81122a",
  "args": [],
  "numDeployments": 1,
  "solcInputHash": "7120e939c323b678aae40a88db815cc2",
  "bytecode": "0x60a080604052346100c157306080525f51602061093e5f395f51905f525460ff8160401c166100b3576002600160401b03196001600160401b03821601610060575b60405161087890816100c6823960805181818161035001526104290152f35b6001600160401b0319166001600160401b039081175f51602061093e5f395f51905f525581527fc7f505b2f371ae2175ee4913f4499e1f2633a7b5936321eed1cdaeb6115181d290602090a15f80610041565b62dc149f60e41b5f5260045ffd5b5f80fdfe6080806040526004361015610012575f80fd5b5f3560e01c9081633a283d7d14610748575080634a994174146106405780634f1ef286146103c857806352d1902d1461033657806354fd4d50146102d35780638da5cb5b146102ae578063a6f9dae1146102315763c4d66de814610074575f80fd5b3461022d57602036600319011261022d5761008d610808565b7ff0c57e16840df040f15088dc2f81fe391c3923bec73e23a9662efc9c229c6a0e5460ff8160401c16159167ffffffffffffffff82168380610223575b159081610205575b506101f75767ffffffffffffffff1982166001177ff0c57e16840df040f15088dc2f81fe391c3923bec73e23a9662efc9c229c6a0e556001600160a01b0391836101b8575b501673ffffffffffffffffffffffffffffffffffffffff195f5416175f5561013b57005b68ff0000000000000000197ff0c57e16840df040f15088dc2f81fe391c3923bec73e23a9662efc9c229c6a0e54167ff0c57e16840df040f15088dc2f81fe391c3923bec73e23a9662efc9c229c6a0e557fc7f505b2f371ae2175ee4913f4499e1f2633a7b5936321eed1cdaeb6115181d2602060405160018152a1005b68ffffffffffffffffff191668010000000000000001177ff0c57e16840df040f15088dc2f81fe391c3923bec73e23a9662efc9c229c6a0e555f610117565b62dc149f60e41b5f5260045ffd5b303b15915081610218575b50155f6100d2565b60019150145f610210565b50600181106100ca565b5f80fd5b3461022d57602036600319011261022d5761024a610808565b5f5490336001600160a01b03831603610286576001600160a01b0373ffffffffffffffffffffffffffffffffffffffff1991169116175f555f80f35b7f596dcdb8000000000000000000000000000000000000000000000000000000005f5260045ffd5b3461022d575f36600319011261022d5760206001600160a01b035f5416604051908152f35b3461022d575f36600319011261022d576103326040516102f4604082610762565b600581527f322e302e30000000000000000000000000000000000000000000000000000000602082015260405191829160208352602083019061081e565b0390f35b3461022d575f36600319011261022d576001600160a01b037f00000000000000000000000000000000000000000000000000000000000000001630036103a05760206040517f360894a13ba1a3210667c828492db98dca3e2076cc3735a920a3ca505d382bbc8152f35b7fe07c8dba000000000000000000000000000000000000000000000000000000005f5260045ffd5b604036600319011261022d576103dc610808565b60243567ffffffffffffffff811161022d573660238201121561022d5761040d9036906024816004013591016107b4565b906001600160a01b035f54163303610286576001600160a01b037f00000000000000000000000000000000000000000000000000000000000000001680301490811561060b575b506103a0576001600160a01b038116916040517f52d1902d000000000000000000000000000000000000000000000000000000008152602081600481875afa5f91816105d7575b506104cc57837f0c760937000000000000000000000000000000000000000000000000000000005f5260045260245ffd5b807f360894a13ba1a3210667c828492db98dca3e2076cc3735a920a3ca505d382bbc8592036105ac5750827f360894a13ba1a3210667c828492db98dca3e2076cc3735a920a3ca505d382bbc557fbc7cd75a20ee27fd9adebab32041f755214dbc6bffa90cc0225b39da2e5c2d3b5f80a280518061054657005b5f926020849301905af43d156105a7573d61056081610798565b9061056e6040519283610762565b81525f60203d92013e5b1561057f57005b7f736436ba000000000000000000000000000000000000000000000000000000005f5260045ffd5b610578565b7faa1d49a4000000000000000000000000000000000000000000000000000000005f5260045260245ffd5b9091506020813d602011610603575b816105f360209383610762565b8101031261022d5751908561049b565b3d91506105e6565b90506001600160a01b037f360894a13ba1a3210667c828492db98dca3e2076cc3735a920a3ca505d382bbc5416141583610454565b3461022d57606036600319011261022d5760043567ffffffffffffffff811161022d576106719036906004016107ea565b60243567ffffffffffffffff811161022d576106919036906004016107ea565b9060443567ffffffffffffffff811161022d576106b29036906004016107ea565b600154915f198314610734577ef7cd7255d1073b4e136dd477c38ea0020c051ab17110cc5bfab0c840ff992461071c60209561072987879560018701600155604051918183925191829101835e81015f81520390209560405193849360408552604085019061081e565b908382038a85015261081e565b0390a3604051908152f35b634e487b7160e01b5f52601160045260245ffd5b3461022d575f36600319011261022d576020906001548152f35b90601f8019910116810190811067ffffffffffffffff82111761078457604052565b634e487b7160e01b5f52604160045260245ffd5b67ffffffffffffffff811161078457601f01601f191660200190565b9291926107c082610798565b916107ce6040519384610762565b82948184528183011161022d578281602093845f960137010152565b9080601f8301121561022d57816020610805933591016107b4565b90565b600435906001600160a01b038216820361022d57565b805180835260209291819084018484015e5f828201840152601f01601f191601019056fea26469706673582212203d7ba893909f51b4a18ada2689b52d85dbbbd03b698d51582fb00efa1038553364736f6c634300081e0033f0c57e16840df040f15088dc2f81fe391c3923bec73e23a9662efc9c229c6a0e",
  "devdoc": {
    "errors": {
      "AlreadyInitialized()": [
        {
          "details": "The contract is already initialized."
        }
      ],
      "NotInitializing()": [
        {
          "details": "The contract is not initializing."
        }
      ]
    },
    "events": {
      "DisputeTemplate(uint256,string,string,string)": {
        "params": {
          "_templateData": "The template data.",
          "_templateDataMappings": "The data mappings.",
          "_templateId": "The identifier of the dispute template.",
          "_templateTag": "An optional tag for the dispute template, such as \"registration\" or \"removal\"."
        }
      },
      "Initialized(uint64)": {
        "details": "Triggered when the contract has been initialized or reinitialized."
      },
      "Upgraded(address)": {
        "params": {
          "newImplementation": "Address of the new implementation the proxy is now forwarding calls to."
        }
      }
    },
    "kind": "dev",
    "methods": {
      "changeOwner(address)": {
        "params": {
          "_owner": "The new owner."
        }
      },
      "constructor": {
        "custom:oz-upgrades-unsafe-allow": "constructor"
      },
      "initialize(address)": {
        "params": {
          "_owner": "Owner of the contract."
        }
      },
      "proxiableUUID()": {
        "details": "IMPORTANT: A proxy pointing at a proxiable contract should not be considered proxiable itself, because this risks bricking a proxy that upgrades to it, by delegating to itself until out of gas. Thus it is critical that this function revert if invoked through a proxy. This is guaranteed by the if statement."
      },
      "setDisputeTemplate(string,string,string)": {
        "params": {
          "_templateData": "The template data.",
          "_templateDataMappings": "The data mappings for the template.",
          "_templateTag": "An optional tag for the dispute template, such as \"registration\" or \"removal\"."
        },
        "returns": {
          "templateId": "The identifier of the dispute template."
        }
      },
      "upgradeToAndCall(address,bytes)": {
        "details": "Reverts if the execution is not performed via delegatecall or the execution context is not of a proxy with an ERC1967-compliant implementation pointing to self.",
        "params": {
          "data": "Data used in a delegate call to `newImplementation` if non-empty. This will typically be an encoded function call, and allows initializing the storage of the proxy like a Solidity constructor.",
          "newImplementation": "Address of the new implementation contract."
        }
      }
    },
    "stateVariables": {
      "version": {
        "return": "Version string.",
        "returns": {
          "_0": "Version string."
        }
      }
    },
    "title": "Dispute Template Registry",
    "version": 1
  },
  "userdoc": {
    "errors": {
      "FailedDelegateCall()": [
        {
          "notice": "Failed Delegated call"
        }
      ],
      "InvalidImplementation(address)": [
        {
          "notice": "The `implementation` is not UUPS-compliant"
        }
      ],
      "UUPSUnauthorizedCallContext()": [
        {
          "notice": "The call is from an unauthorized context."
        }
      ],
      "UUPSUnsupportedProxiableUUID(bytes32)": [
        {
          "notice": "The storage `slot` is unsupported as a UUID."
        }
      ]
    },
    "events": {
      "DisputeTemplate(uint256,string,string,string)": {
        "notice": "To be emitted when a new dispute template is created."
      },
      "Upgraded(address)": {
        "notice": "Emitted when the `implementation` has been successfully upgraded."
      }
    },
    "kind": "user",
    "methods": {
      "changeOwner(address)": {
        "notice": "Changes the owner of the contract."
      },
      "initialize(address)": {
        "notice": "Initializer"
      },
      "owner()": {
        "notice": "The owner of the contract."
      },
      "proxiableUUID()": {
        "notice": "Implementation of the ERC1822 `proxiableUUID` function. This returns the storage slot used by the implementation. It is used to validate the implementation's compatibility when performing an upgrade."
      },
      "setDisputeTemplate(string,string,string)": {
        "notice": "Registers a new dispute template."
      },
      "templates()": {
        "notice": "The number of templates."
      },
      "upgradeToAndCall(address,bytes)": {
        "notice": "Upgrade mechanism including access control and UUPS-compliance."
      },
      "version()": {
        "notice": "Returns the version of the implementation."
      }
    },
    "notice": "A contract to maintain a registry of dispute templates.",
    "version": 1
  },
  "storageLayout": {
    "storage": [
      {
        "astId": 12225,
        "contract": "src/arbitration/DisputeTemplateRegistry.sol:DisputeTemplateRegistry",
        "label": "owner",
        "offset": 0,
        "slot": "0",
        "type": "t_address"
      },
      {
        "astId": 12228,
        "contract": "src/arbitration/DisputeTemplateRegistry.sol:DisputeTemplateRegistry",
        "label": "templates",
        "offset": 0,
        "slot": "1",
        "type": "t_uint256"
      }
    ],
    "types": {
      "t_address": {
        "encoding": "inplace",
        "label": "address",
        "numberOfBytes": "20"
      },
      "t_uint256": {
        "encoding": "inplace",
        "label": "uint256",
        "numberOfBytes": "32"
      }
    }
  }
}