{
  "address": "0xDa2F2e750cefCb86c4594E6531C69cb0Ba0B5dBb",
  "abi": [
    {
      "inputs": [],
      "stateMutability": "nonpayable",
      "type": "constructor"
    },
    {
      "inputs": [],
      "name": "AlreadyInitialized",
      "type": "error"
    },
    {
      "inputs": [],
      "name": "AppealFeeIsAlreadyPaid",
      "type": "error"
    },
    {
      "inputs": [],
      "name": "ChoiceCommitmentMismatch",
      "type": "error"
    },
    {
      "inputs": [],
      "name": "ChoiceOutOfBounds",
      "type": "error"
    },
    {
      "inputs": [],
      "name": "CoreIsPaused",
      "type": "error"
    },
    {
      "inputs": [],
      "name": "DisputeJumpedToAnotherDisputeKit",
      "type": "error"
    },
    {
      "inputs": [],
      "name": "DisputeNotResolved",
      "type": "error"
    },
    {
      "inputs": [],
      "name": "DisputeUnknownInThisDisputeKit",
      "type": "error"
    },
    {
      "inputs": [],
      "name": "EmptyCommit",
      "type": "error"
    },
    {
      "inputs": [],
      "name": "EmptyVoteIDs",
      "type": "error"
    },
    {
      "inputs": [],
      "name": "FailedDelegateCall",
      "type": "error"
    },
    {
      "inputs": [
        {
          "internalType": "address",
          "name": "implementation",
          "type": "address"
        }
      ],
      "name": "InvalidImplementation",
      "type": "error"
    },
    {
      "inputs": [],
      "name": "JurorHasToOwnTheVote",
      "type": "error"
    },
    {
      "inputs": [],
      "name": "KlerosCoreOnly",
      "type": "error"
    },
    {
      "inputs": [],
      "name": "NotAppealPeriod",
      "type": "error"
    },
    {
      "inputs": [],
      "name": "NotAppealPeriodForLoser",
      "type": "error"
    },
    {
      "inputs": [],
      "name": "NotCommitPeriod",
      "type": "error"
    },
    {
      "inputs": [],
      "name": "NotInitializing",
      "type": "error"
    },
    {
      "inputs": [],
      "name": "NotVotePeriod",
      "type": "error"
    },
    {
      "inputs": [],
      "name": "OwnerOnly",
      "type": "error"
    },
    {
      "inputs": [],
      "name": "UUPSUnauthorizedCallContext",
      "type": "error"
    },
    {
      "inputs": [
        {
          "internalType": "bytes32",
          "name": "slot",
          "type": "bytes32"
        }
      ],
      "name": "UUPSUnsupportedProxiableUUID",
      "type": "error"
    },
    {
      "inputs": [],
      "name": "UnsuccessfulCall",
      "type": "error"
    },
    {
      "inputs": [],
      "name": "VoteAlreadyCast",
      "type": "error"
    },
    {
      "anonymous": false,
      "inputs": [
        {
          "indexed": true,
          "internalType": "uint256",
          "name": "_coreDisputeID",
          "type": "uint256"
        },
        {
          "indexed": true,
          "internalType": "uint256",
          "name": "_coreRoundID",
          "type": "uint256"
        },
        {
          "indexed": true,
          "internalType": "uint256",
          "name": "_choice",
          "type": "uint256"
        }
      ],
      "name": "ChoiceFunded",
      "type": "event"
    },
    {
      "anonymous": false,
      "inputs": [
        {
          "indexed": true,
          "internalType": "uint256",
          "name": "_coreDisputeID",
          "type": "uint256"
        },
        {
          "indexed": true,
          "internalType": "address",
          "name": "_juror",
          "type": "address"
        },
        {
          "indexed": false,
          "internalType": "uint256[]",
          "name": "_voteIDs",
          "type": "uint256[]"
        },
        {
          "indexed": false,
          "internalType": "bytes32",
          "name": "_commit",
          "type": "bytes32"
        }
      ],
      "name": "CommitCast",
      "type": "event"
    },
    {
      "anonymous": false,
      "inputs": [
        {
          "indexed": true,
          "internalType": "uint256",
          "name": "_coreDisputeID",
          "type": "uint256"
        },
        {
          "indexed": true,
          "internalType": "uint256",
          "name": "_coreRoundID",
          "type": "uint256"
        },
        {
          "indexed": false,
          "internalType": "uint256",
          "name": "_choice",
          "type": "uint256"
        },
        {
          "indexed": true,
          "internalType": "address",
          "name": "_contributor",
          "type": "address"
        },
        {
          "indexed": false,
          "internalType": "uint256",
          "name": "_amount",
          "type": "uint256"
        }
      ],
      "name": "Contribution",
      "type": "event"
    },
    {
      "anonymous": false,
      "inputs": [
        {
          "indexed": true,
          "internalType": "uint256",
          "name": "_coreDisputeID",
          "type": "uint256"
        },
        {
          "indexed": false,
          "internalType": "uint256",
          "name": "_numberOfChoices",
          "type": "uint256"
        },
        {
          "indexed": false,
          "internalType": "bytes",
          "name": "_extraData",
          "type": "bytes"
        }
      ],
      "name": "DisputeCreation",
      "type": "event"
    },
    {
      "anonymous": false,
      "inputs": [
        {
          "indexed": false,
          "internalType": "uint64",
          "name": "version",
          "type": "uint64"
        }
      ],
      "name": "Initialized",
      "type": "event"
    },
    {
      "anonymous": false,
      "inputs": [
        {
          "indexed": true,
          "internalType": "uint96",
          "name": "_courtID",
          "type": "uint96"
        },
        {
          "components": [
            {
              "internalType": "bool",
              "name": "enabled",
              "type": "bool"
            },
            {
              "internalType": "uint96",
              "name": "jumpCourtID",
              "type": "uint96"
            },
            {
              "internalType": "uint256",
              "name": "jumpDisputeKitID",
              "type": "uint256"
            },
            {
              "internalType": "uint256",
              "name": "jumpDisputeKitIDOnCourtJump",
              "type": "uint256"
            },
            {
              "internalType": "uint256",
              "name": "nbVotes",
              "type": "uint256"
            }
          ],
          "indexed": false,
          "internalType": "struct DisputeKitClassicBase.NextRoundSettings",
          "name": "_nextRoundSettings",
          "type": "tuple"
        }
      ],
      "name": "NextRoundSettingsChanged",
      "type": "event"
    },
    {
      "anonymous": false,
      "inputs": [
        {
          "indexed": true,
          "internalType": "address",
          "name": "newImplementation",
          "type": "address"
        }
      ],
      "name": "Upgraded",
      "type": "event"
    },
    {
      "anonymous": false,
      "inputs": [
        {
          "indexed": true,
          "internalType": "uint256",
          "name": "_coreDisputeID",
          "type": "uint256"
        },
        {
          "indexed": true,
          "internalType": "address",
          "name": "_juror",
          "type": "address"
        },
        {
          "indexed": false,
          "internalType": "uint256[]",
          "name": "_voteIDs",
          "type": "uint256[]"
        },
        {
          "indexed": true,
          "internalType": "uint256",
          "name": "_choice",
          "type": "uint256"
        },
        {
          "indexed": false,
          "internalType": "string",
          "name": "_justification",
          "type": "string"
        }
      ],
      "name": "VoteCast",
      "type": "event"
    },
    {
      "anonymous": false,
      "inputs": [
        {
          "indexed": true,
          "internalType": "uint256",
          "name": "_coreDisputeID",
          "type": "uint256"
        },
        {
          "indexed": false,
          "internalType": "uint256",
          "name": "_choice",
          "type": "uint256"
        },
        {
          "indexed": true,
          "internalType": "address",
          "name": "_contributor",
          "type": "address"
        },
        {
          "indexed": false,
          "internalType": "uint256",
          "name": "_amount",
          "type": "uint256"
        }
      ],
      "name": "Withdrawal",
      "type": "event"
    },
    {
      "inputs": [],
      "name": "LOSER_APPEAL_PERIOD_MULTIPLIER",
      "outputs": [
        {
          "internalType": "uint256",
          "name": "",
          "type": "uint256"
        }
      ],
      "stateMutability": "view",
      "type": "function"
    },
    {
      "inputs": [],
      "name": "LOSER_STAKE_MULTIPLIER",
      "outputs": [
        {
          "internalType": "uint256",
          "name": "",
          "type": "uint256"
        }
      ],
      "stateMutability": "view",
      "type": "function"
    },
    {
      "inputs": [],
      "name": "WINNER_STAKE_MULTIPLIER",
      "outputs": [
        {
          "internalType": "uint256",
          "name": "",
          "type": "uint256"
        }
      ],
      "stateMutability": "view",
      "type": "function"
    },
    {
      "inputs": [
        {
          "internalType": "uint256",
          "name": "_coreDisputeID",
          "type": "uint256"
        }
      ],
      "name": "areCommitsAllCast",
      "outputs": [
        {
          "internalType": "bool",
          "name": "",
          "type": "bool"
        }
      ],
      "stateMutability": "view",
      "type": "function"
    },
    {
      "inputs": [
        {
          "internalType": "uint256",
          "name": "_coreDisputeID",
          "type": "uint256"
        }
      ],
      "name": "areVotesAllCast",
      "outputs": [
        {
          "internalType": "bool",
          "name": "",
          "type": "bool"
        }
      ],
      "stateMutability": "view",
      "type": "function"
    },
    {
      "inputs": [
        {
          "internalType": "uint256",
          "name": "_coreDisputeID",
          "type": "uint256"
        },
        {
          "internalType": "uint256[]",
          "name": "_voteIDs",
          "type": "uint256[]"
        },
        {
          "internalType": "bytes32",
          "name": "_commit",
          "type": "bytes32"
        }
      ],
      "name": "castCommit",
      "outputs": [],
      "stateMutability": "nonpayable",
      "type": "function"
    },
    {
      "inputs": [
        {
          "internalType": "uint256",
          "name": "_coreDisputeID",
          "type": "uint256"
        },
        {
          "internalType": "uint256[]",
          "name": "_voteIDs",
          "type": "uint256[]"
        },
        {
          "internalType": "uint256",
          "name": "_choice",
          "type": "uint256"
        },
        {
          "internalType": "uint256",
          "name": "_salt",
          "type": "uint256"
        },
        {
          "internalType": "string",
          "name": "_justification",
          "type": "string"
        }
      ],
      "name": "castVote",
      "outputs": [],
      "stateMutability": "nonpayable",
      "type": "function"
    },
    {
      "inputs": [
        {
          "internalType": "address",
          "name": "_core",
          "type": "address"
        }
      ],
      "name": "changeCore",
      "outputs": [],
      "stateMutability": "nonpayable",
      "type": "function"
    },
    {
      "inputs": [
        {
          "internalType": "uint96",
          "name": "_courtID",
          "type": "uint96"
        },
        {
          "components": [
            {
              "internalType": "bool",
              "name": "enabled",
              "type": "bool"
            },
            {
              "internalType": "uint96",
              "name": "jumpCourtID",
              "type": "uint96"
            },
            {
              "internalType": "uint256",
              "name": "jumpDisputeKitID",
              "type": "uint256"
            },
            {
              "internalType": "uint256",
              "name": "jumpDisputeKitIDOnCourtJump",
              "type": "uint256"
            },
            {
              "internalType": "uint256",
              "name": "nbVotes",
              "type": "uint256"
            }
          ],
          "internalType": "struct DisputeKitClassicBase.NextRoundSettings",
          "name": "_nextRoundSettings",
          "type": "tuple"
        }
      ],
      "name": "changeNextRoundSettings",
      "outputs": [],
      "stateMutability": "nonpayable",
      "type": "function"
    },
    {
      "inputs": [
        {
          "internalType": "address payable",
          "name": "_owner",
          "type": "address"
        }
      ],
      "name": "changeOwner",
      "outputs": [],
      "stateMutability": "nonpayable",
      "type": "function"
    },
    {
      "inputs": [],
      "name": "core",
      "outputs": [
        {
          "internalType": "contract KlerosCore",
          "name": "",
          "type": "address"
        }
      ],
      "stateMutability": "view",
      "type": "function"
    },
    {
      "inputs": [
        {
          "internalType": "uint256",
          "name": "coreDisputeID",
          "type": "uint256"
        }
      ],
      "name": "coreDisputeIDToActive",
      "outputs": [
        {
          "internalType": "bool",
          "name": "dispute",
          "type": "bool"
        },
        {
          "internalType": "bool",
          "name": "currentRound",
          "type": "bool"
        }
      ],
      "stateMutability": "view",
      "type": "function"
    },
    {
      "inputs": [
        {
          "internalType": "uint256",
          "name": "coreDisputeID",
          "type": "uint256"
        }
      ],
      "name": "coreDisputeIDToLocal",
      "outputs": [
        {
          "internalType": "uint256",
          "name": "localDisputeID",
          "type": "uint256"
        }
      ],
      "stateMutability": "view",
      "type": "function"
    },
    {
      "inputs": [
        {
          "internalType": "uint96",
          "name": "currentCourtID",
          "type": "uint96"
        }
      ],
      "name": "courtIDToNextRoundSettings",
      "outputs": [
        {
          "internalType": "bool",
          "name": "enabled",
          "type": "bool"
        },
        {
          "internalType": "uint96",
          "name": "jumpCourtID",
          "type": "uint96"
        },
        {
          "internalType": "uint256",
          "name": "jumpDisputeKitID",
          "type": "uint256"
        },
        {
          "internalType": "uint256",
          "name": "jumpDisputeKitIDOnCourtJump",
          "type": "uint256"
        },
        {
          "internalType": "uint256",
          "name": "nbVotes",
          "type": "uint256"
        }
      ],
      "stateMutability": "view",
      "type": "function"
    },
    {
      "inputs": [
        {
          "internalType": "uint256",
          "name": "_coreDisputeID",
          "type": "uint256"
        },
        {
          "internalType": "uint256",
          "name": "_coreRoundID",
          "type": "uint256"
        },
        {
          "internalType": "uint256",
          "name": "_numberOfChoices",
          "type": "uint256"
        },
        {
          "internalType": "bytes",
          "name": "_extraData",
          "type": "bytes"
        },
        {
          "internalType": "uint256",
          "name": "",
          "type": "uint256"
        }
      ],
      "name": "createDispute",
      "outputs": [],
      "stateMutability": "nonpayable",
      "type": "function"
    },
    {
      "inputs": [
        {
          "internalType": "uint256",
          "name": "_coreDisputeID",
          "type": "uint256"
        }
      ],
      "name": "currentRuling",
      "outputs": [
        {
          "internalType": "uint256",
          "name": "ruling",
          "type": "uint256"
        },
        {
          "internalType": "bool",
          "name": "tied",
          "type": "bool"
        },
        {
          "internalType": "bool",
          "name": "overridden",
          "type": "bool"
        }
      ],
      "stateMutability": "view",
      "type": "function"
    },
    {
      "inputs": [
        {
          "internalType": "uint256",
          "name": "",
          "type": "uint256"
        }
      ],
      "name": "disputes",
      "outputs": [
        {
          "internalType": "uint256",
          "name": "numberOfChoices",
          "type": "uint256"
        },
        {
          "internalType": "bytes",
          "name": "extraData",
          "type": "bytes"
        }
      ],
      "stateMutability": "view",
      "type": "function"
    },
    {
      "inputs": [
        {
          "internalType": "uint256",
          "name": "_coreDisputeID",
          "type": "uint256"
        },
        {
          "internalType": "uint256",
          "name": "_nonce",
          "type": "uint256"
        },
        {
          "internalType": "uint256",
          "name": "_roundNbVotes",
          "type": "uint256"
        }
      ],
      "name": "draw",
      "outputs": [
        {
          "internalType": "address",
          "name": "drawnAddress",
          "type": "address"
        },
        {
          "internalType": "uint96",
          "name": "fromSubcourtID",
          "type": "uint96"
        }
      ],
      "stateMutability": "nonpayable",
      "type": "function"
    },
    {
      "inputs": [
        {
          "internalType": "address",
          "name": "_destination",
          "type": "address"
        },
        {
          "internalType": "uint256",
          "name": "_amount",
          "type": "uint256"
        },
        {
          "internalType": "bytes",
          "name": "_data",
          "type": "bytes"
        }
      ],
      "name": "executeOwnerProposal",
      "outputs": [],
      "stateMutability": "nonpayable",
      "type": "function"
    },
    {
      "inputs": [
        {
          "internalType": "uint256",
          "name": "_coreDisputeID",
          "type": "uint256"
        },
        {
          "internalType": "uint256",
          "name": "_choice",
          "type": "uint256"
        }
      ],
      "name": "fundAppeal",
      "outputs": [],
      "stateMutability": "payable",
      "type": "function"
    },
    {
      "inputs": [
        {
          "internalType": "uint256",
          "name": "_coreDisputeID",
          "type": "uint256"
        },
        {
          "internalType": "uint256",
          "name": "_coreRoundID",
          "type": "uint256"
        }
      ],
      "name": "getCoherentCount",
      "outputs": [
        {
          "internalType": "uint256",
          "name": "",
          "type": "uint256"
        }
      ],
      "stateMutability": "view",
      "type": "function"
    },
    {
      "inputs": [
        {
          "internalType": "uint256",
          "name": "_coreDisputeID",
          "type": "uint256"
        },
        {
          "internalType": "uint256",
          "name": "_coreRoundID",
          "type": "uint256"
        },
        {
          "internalType": "uint256",
          "name": "_voteID",
          "type": "uint256"
        },
        {
          "internalType": "uint256",
          "name": "",
          "type": "uint256"
        },
        {
          "internalType": "uint256",
          "name": "",
          "type": "uint256"
        }
      ],
      "name": "getDegreeOfCoherencePenalty",
      "outputs": [
        {
          "internalType": "uint256",
          "name": "pnkCoherence",
          "type": "uint256"
        }
      ],
      "stateMutability": "view",
      "type": "function"
    },
    {
      "inputs": [
        {
          "internalType": "uint256",
          "name": "_coreDisputeID",
          "type": "uint256"
        },
        {
          "internalType": "uint256",
          "name": "_coreRoundID",
          "type": "uint256"
        },
        {
          "internalType": "uint256",
          "name": "_voteID",
          "type": "uint256"
        },
        {
          "internalType": "uint256",
          "name": "",
          "type": "uint256"
        },
        {
          "internalType": "uint256",
          "name": "",
          "type": "uint256"
        }
      ],
      "name": "getDegreeOfCoherenceReward",
      "outputs": [
        {
          "internalType": "uint256",
          "name": "pnkCoherence",
          "type": "uint256"
        },
        {
          "internalType": "uint256",
          "name": "feeCoherence",
          "type": "uint256"
        }
      ],
      "stateMutability": "view",
      "type": "function"
    },
    {
      "inputs": [
        {
          "internalType": "uint256",
          "name": "_coreDisputeID",
          "type": "uint256"
        }
      ],
      "name": "getFundedChoices",
      "outputs": [
        {
          "internalType": "uint256[]",
          "name": "fundedChoices",
          "type": "uint256[]"
        }
      ],
      "stateMutability": "view",
      "type": "function"
    },
    {
      "inputs": [
        {
          "internalType": "uint256",
          "name": "_coreDisputeID",
          "type": "uint256"
        },
        {
          "internalType": "uint256",
          "name": "_coreRoundID",
          "type": "uint256"
        }
      ],
      "name": "getLocalDisputeRoundID",
      "outputs": [
        {
          "internalType": "uint256",
          "name": "localDisputeID",
          "type": "uint256"
        },
        {
          "internalType": "uint256",
          "name": "localRoundID",
          "type": "uint256"
        }
      ],
      "stateMutability": "view",
      "type": "function"
    },
    {
      "inputs": [
        {
          "internalType": "uint256",
          "name": "",
          "type": "uint256"
        },
        {
          "internalType": "uint96",
          "name": "_currentCourtID",
          "type": "uint96"
        },
        {
          "internalType": "uint96",
          "name": "_parentCourtID",
          "type": "uint96"
        },
        {
          "internalType": "uint256",
          "name": "_currentCourtJurorsForJump",
          "type": "uint256"
        },
        {
          "internalType": "uint256",
          "name": "_currentDisputeKitID",
          "type": "uint256"
        },
        {
          "internalType": "uint256",
          "name": "_currentRoundNbVotes",
          "type": "uint256"
        }
      ],
      "name": "getNextRoundSettings",
      "outputs": [
        {
          "internalType": "uint96",
          "name": "newCourtID",
          "type": "uint96"
        },
        {
          "internalType": "uint256",
          "name": "newDisputeKitID",
          "type": "uint256"
        },
        {
          "internalType": "uint256",
          "name": "newRoundNbVotes",
          "type": "uint256"
        }
      ],
      "stateMutability": "view",
      "type": "function"
    },
    {
      "inputs": [
        {
          "internalType": "uint256",
          "name": "_localDisputeID",
          "type": "uint256"
        }
      ],
      "name": "getNumberOfRounds",
      "outputs": [
        {
          "internalType": "uint256",
          "name": "",
          "type": "uint256"
        }
      ],
      "stateMutability": "view",
      "type": "function"
    },
    {
      "inputs": [
        {
          "internalType": "uint256",
          "name": "_coreDisputeID",
          "type": "uint256"
        },
        {
          "internalType": "uint256",
          "name": "_coreRoundID",
          "type": "uint256"
        },
        {
          "internalType": "uint256",
          "name": "_choice",
          "type": "uint256"
        }
      ],
      "name": "getRoundInfo",
      "outputs": [
        {
          "internalType": "uint256",
          "name": "winningChoice",
          "type": "uint256"
        },
        {
          "internalType": "bool",
          "name": "tied",
          "type": "bool"
        },
        {
          "internalType": "uint256",
          "name": "totalVoted",
          "type": "uint256"
        },
        {
          "internalType": "uint256",
          "name": "totalCommitted",
          "type": "uint256"
        },
        {
          "internalType": "uint256",
          "name": "nbVoters",
          "type": "uint256"
        },
        {
          "internalType": "uint256",
          "name": "choiceCount",
          "type": "uint256"
        }
      ],
      "stateMutability": "view",
      "type": "function"
    },
    {
      "inputs": [
        {
          "internalType": "uint256",
          "name": "_coreDisputeID",
          "type": "uint256"
        },
        {
          "internalType": "uint256",
          "name": "_coreRoundID",
          "type": "uint256"
        },
        {
          "internalType": "uint256",
          "name": "_voteID",
          "type": "uint256"
        }
      ],
      "name": "getVoteInfo",
      "outputs": [
        {
          "internalType": "address",
          "name": "account",
          "type": "address"
        },
        {
          "internalType": "bytes32",
          "name": "commit",
          "type": "bytes32"
        },
        {
          "internalType": "uint256",
          "name": "choice",
          "type": "uint256"
        },
        {
          "internalType": "bool",
          "name": "voted",
          "type": "bool"
        }
      ],
      "stateMutability": "view",
      "type": "function"
    },
    {
      "inputs": [
        {
          "internalType": "uint256",
          "name": "_choice",
          "type": "uint256"
        },
        {
          "internalType": "uint256",
          "name": "_salt",
          "type": "uint256"
        },
        {
          "internalType": "string",
          "name": "",
          "type": "string"
        }
      ],
      "name": "hashVote",
      "outputs": [
        {
          "internalType": "bytes32",
          "name": "",
          "type": "bytes32"
        }
      ],
      "stateMutability": "view",
      "type": "function"
    },
    {
      "inputs": [
        {
          "internalType": "address",
          "name": "_owner",
          "type": "address"
        },
        {
          "internalType": "contract KlerosCore",
          "name": "_core",
          "type": "address"
        },
        {
          "internalType": "address",
          "name": "_wNative",
          "type": "address"
        }
      ],
      "name": "initialize",
      "outputs": [],
      "stateMutability": "nonpayable",
      "type": "function"
    },
    {
      "inputs": [
        {
          "internalType": "uint256",
          "name": "_coreDisputeID",
          "type": "uint256"
        }
      ],
      "name": "isAppealFunded",
      "outputs": [
        {
          "internalType": "bool",
          "name": "",
          "type": "bool"
        }
      ],
      "stateMutability": "view",
      "type": "function"
    },
    {
      "inputs": [
        {
          "internalType": "uint256",
          "name": "_coreDisputeID",
          "type": "uint256"
        },
        {
          "internalType": "uint256",
          "name": "_coreRoundID",
          "type": "uint256"
        },
        {
          "internalType": "uint256",
          "name": "_voteID",
          "type": "uint256"
        }
      ],
      "name": "isVoteActive",
      "outputs": [
        {
          "internalType": "bool",
          "name": "",
          "type": "bool"
        }
      ],
      "stateMutability": "view",
      "type": "function"
    },
    {
      "inputs": [],
      "name": "owner",
      "outputs": [
        {
          "internalType": "address",
          "name": "",
          "type": "address"
        }
      ],
      "stateMutability": "view",
      "type": "function"
    },
    {
      "inputs": [],
      "name": "proxiableUUID",
      "outputs": [
        {
          "internalType": "bytes32",
          "name": "",
          "type": "bytes32"
        }
      ],
      "stateMutability": "view",
      "type": "function"
    },
    {
      "inputs": [],
      "name": "singleDrawPerJuror",
      "outputs": [
        {
          "internalType": "bool",
          "name": "",
          "type": "bool"
        }
      ],
      "stateMutability": "view",
      "type": "function"
    },
    {
      "inputs": [
        {
          "internalType": "address",
          "name": "newImplementation",
          "type": "address"
        },
        {
          "internalType": "bytes",
          "name": "data",
          "type": "bytes"
        }
      ],
      "name": "upgradeToAndCall",
      "outputs": [],
      "stateMutability": "payable",
      "type": "function"
    },
    {
      "inputs": [],
      "name": "version",
      "outputs": [
        {
          "internalType": "string",
          "name": "",
          "type": "string"
        }
      ],
      "stateMutability": "view",
      "type": "function"
    },
    {
      "inputs": [],
      "name": "wNative",
      "outputs": [
        {
          "internalType": "address",
          "name": "",
          "type": "address"
        }
      ],
      "stateMutability": "view",
      "type": "function"
    },
    {
      "inputs": [
        {
          "internalType": "uint256",
          "name": "_coreDisputeID",
          "type": "uint256"
        },
        {
          "internalType": "address payable",
          "name": "_beneficiary",
          "type": "address"
        },
        {
          "internalType": "uint256",
          "name": "_choice",
          "type": "uint256"
        }
      ],
      "name": "withdrawFeesAndRewards",
      "outputs": [
        {
          "internalType": "uint256",
          "name": "amount",
          "type": "uint256"
        }
      ],
      "stateMutability": "nonpayable",
      "type": "function"
    }
  ],
  "transactionHash": "0xb50d3d55399cf26b30700d173bf9ae31ed250c1d7e2e56ade926583f21f23c5f",
  "args": [],
  "numDeployments": 1,
  "solcInputHash": "7120e939c323b678aae40a88db815cc2",
  "bytecode": "0x60a080604052346100c157306080525f5160206136605f395f51905f525460ff8160401c166100b3576002600160401b03196001600160401b03821601610060575b60405161359a90816100c68239608051818181611a280152611ad80152f35b6001600160401b0319166001600160401b039081175f5160206136605f395f51905f525581527fc7f505b2f371ae2175ee4913f4499e1f2633a7b5936321eed1cdaeb6115181d290602090a15f80610041565b62dc149f60e41b5f5260045ffd5b5f80fdfe6080806040526004361015610012575f80fd5b5f905f3560e01c9081630855bbe914612aab575080630baa64d114612a575780631200aabc14612a2d578063149a5dc014612a1a5780631c3db16d146128ea5780631cc3423a146128a8578063223e2757146124c45780632621b9a2146124a25780632d68efc9146124795780634b2f0ea014611ceb5780634f1ef28614611a8757806352d1902d14611a0d57806354fd4d50146119ac578063564a565d146118bf57806356fd10401461184d5780635c92e2f6146115ab5780635e342829146112f957806365540b961461129757806369f3f041146112065780636a8c91941461116f5780636d4cd8ea146110205780637c04034e14610acc5780638da5cb5b14610aa65780638e42646014610a4f5780639d61ab6e14610a26578063a6f9dae1146109cf578063a7cc08fe14610955578063b34bfaa814610938578063b8775a38146107ce578063ba66fde714610777578063bc7a679d146106cb578063be467604146106ae578063c0c53b8b1461044e578063da3beb8c1461042c578063db918bb4146102c2578063e349ad30146102a5578063f2f4eb261461027e578063f32ab9271461023c578063f8abee10146102015763fc6f8f16146101d6575f80fd5b346101fe5760203660031901126101fe5760206101f4600435612c63565b5054604051908152f35b80fd5b50346101fe5760203660031901126101fe576040809160043581526004602052205460ff8251918181161515835260081c1615156020820152f35b50346101fe576040908161024f36612c29565b9290815260036020526002828220549361026885612c63565b5090835201602052205482519182526020820152f35b50346101fe57806003193601126101fe5760206001600160a01b0360015416604051908152f35b50346101fe57806003193601126101fe5760206040516127108152f35b50346101fe5760c03660031901126101fe576024356001600160601b038116918282036101fe576102f1612ccd565b60a43591809381958293818452600560205260408420928493805460ff81166103fd575b50506001600160601b038816156103df575b505086156103a8575b50508115610369575b506103659150604051938493846040919493926001600160601b03606083019616825260208201520152565b0390f35b90508160011b918083046002149015171561039457600182018092116103945750610365905f610339565b80634e487b7160e01b602492526011600452fd5b909195506001600160601b0385161415806103d6575b156103cc57935b5f80610330565b50608435936103c5565b508015156103be565b9196509060643586106103f657505b945f80610327565b90506103ee565b96508099506001600160601b03929850600391945001549460081c169560026001890154980154925f80610315565b50346101fe57602061044661044036612c29565b90613215565b604051908152f35b50346101fe5760603660031901126101fe57610468612c13565b6024356001600160a01b0381168091036106aa576044356001600160a01b03811681036106a6577ff0c57e16840df040f15088dc2f81fe391c3923bec73e23a9662efc9c229c6a0e549160ff8360401c16159267ffffffffffffffff8116848061069c575b15908161067e575b506106705767ffffffffffffffff1981166001177ff0c57e16840df040f15088dc2f81fe391c3923bec73e23a9662efc9c229c6a0e5583610631575b507ff0c57e16840df040f15088dc2f81fe391c3923bec73e23a9662efc9c229c6a0e549360ff8560401c1615610609576001600160a01b03166001600160a01b03198654161785556001600160a01b0319600154161760015574ffffffffffffffffffffffffffffffffffffffff001974ffffffffffffffffffffffffffffffffffffffff006006549260081b169116176006556105ad575080f35b68ff000000000000000019167ff0c57e16840df040f15088dc2f81fe391c3923bec73e23a9662efc9c229c6a0e557fc7f505b2f371ae2175ee4913f4499e1f2633a7b5936321eed1cdaeb6115181d2602060405160018152a180f35b6004867fd7e6bcf8000000000000000000000000000000000000000000000000000000008152fd5b68ffffffffffffffffff191668010000000000000001177ff0c57e16840df040f15088dc2f81fe391c3923bec73e23a9662efc9c229c6a0e555f610511565b62dc149f60e41b8652600486fd5b303b15915081610691575b50155f6104d5565b60019150145f610689565b50600181106104cd565b8380fd5b8280fd5b50346101fe57806003193601126101fe5760206040516113888152f35b50346101fe576106da36612d14565b926001600160a01b0360019392935416330361076957818152600460205260ff6040822054161561075a57818152600460205260ff604082205460081c161561074b5760406001600160601b03610732868686612f88565b6001600160a01b03849392935193168352166020820152f35b806344da117d60e11b60049252fd5b8063535a60e960e01b60049252fd5b628448c760e31b8152600490fd5b50346101fe5760ff6107c160406107bb60209461079336612d14565b949183919352600388526107a982822054612c63565b50928152600283018852205490612d82565b50612f6f565b5054166040519015158152f35b50346101fe5760c03660031901126101fe576107e8612cb7565b60a03660231901126109345760405160a0810181811067ffffffffffffffff8211176109205760405260243580151581036106a6578152610827612ccd565b916020820192835260408201606435815260608301906084358252608084019260a43584526001600160a01b038754163303610911579160a093916001600160601b03807f71529df3fabadde972c59f3276e788dd2a815d245b46ed849651d7461b1be07397951697888a52600560205260408a20955115159560ff1981541660ff881617815581516cffffffffffffffffffffffff0082549160081b16906cffffffffffffffffffffffff00191617815583516001820155845160028201556003865191015560405195865251166020850152516040840152516060830152516080820152a280f35b600487630b2db9b760e31b8152fd5b602484634e487b7160e01b81526041600452fd5b5080fd5b50346101fe57806003193601126101fe576020604051614e208152f35b50346101fe5761099960406107bb60809361096f36612d14565b949183919352600360205261098682822054612c63565b5092815260028301602052205490612d82565b5060ff815460026001840154930154604051936001600160a01b038360081c168552602085015260408401521615156060820152f35b50346101fe5760203660031901126101fe576109e9612c13565b815490336001600160a01b03831603610a17576001600160a01b036001600160a01b03199116911617815580f35b600483630b2db9b760e31b8152fd5b50346101fe576040610a42610a3a36612b6f565b5050916132fc565b8151908082526020820152f35b50346101fe5760203660031901126101fe57610a69612c13565b6001600160a01b038254163303610a97576001600160a01b03166001600160a01b0319600154161760015580f35b600482630b2db9b760e31b8152fd5b50346101fe57806003193601126101fe576001600160a01b036020915416604051908152f35b50346101fe5760a03660031901126101fe5760043560243567ffffffffffffffff81116106aa57610b01903690600401612ce3565b90916044359260843567ffffffffffffffff811161101c57610b27903690600401612bcf565b92828652600460205260ff6040872054161561100d57828652600460205260ff604087205460081c1615610ffe576001600160a01b036001541660405163564a565d60e01b815284600482015260a081602481855afa908115610ff3578891610fcf575b506005811015610fbb57600203610f93578115610f845783875260036020526040872054610bb881612c63565b5060018101548811610f755780545f19810191908211610f615781610bdc91612d82565b509260405163564a565d60e01b815287600482015260a081602481855afa908b8215610f555760c0926001600160601b039260249291610f22575b506040519485938492630fad06e960e11b84521660048301525afa908115610f17578a91610ee2575b50610e61575b5050865b828110610d8c5750908160047fa000893c71384499023d2d7b21234f7b9e80c78e0330f357dcd667ff578bd3a4949301610c85838254612e59565b905560028101908789528160205260408920610ca2848254612e59565b90558760018201928354908183145f14610d08575050506003915001805460ff8116610cfb575b50505b610cf5610ce66040519384936040855260408501916134c9565b82810360208401523396612c3f565b0390a480f35b60ff191690555f80610cc9565b828c528060205260408c2054828d528160205260408d2054145f14610d52575050506003915001805460ff811615610d42575b5050610ccc565b60ff191660011790555f80610d3b565b828c528060205260408c2054918c5260205260408b205410610d77575b505050610ccc565b600392550160ff1981541690555f8087610d6f565b610da1610d9a8285876134b9565b3583612f6f565b506001600160a01b0333915460081c1603610e395760ff610dcd610dc68386886134b9565b3584612f6f565b505416610e115780876002610def610de8600195888a6134b9565b3586612f6f565b500155610e00610dc68286886134b9565b50805460ff19168317905501610c4a565b6004887fb3808bab000000000000000000000000000000000000000000000000000000008152fd5b6004887f8016bef7000000000000000000000000000000000000000000000000000000008152fd5b610e6d60643589612e0a565b90895b858110610e7e575050610c46565b826001610eaa610e9785610e9189612c63565b50612d82565b50610ea3858b8d6134b9565b3590612f6f565b50015403610eba57600101610e70565b60048b7f6e6ac81a000000000000000000000000000000000000000000000000000000008152fd5b610f04915060c03d60c011610f10575b610efc8183612b91565b810190612f33565b5050505090505f610c40565b503d610ef2565b6040513d8c823e3d90fd5b610f44915060a03d60a011610f4e575b610f3c8183612b91565b810190612dbc565b505050505f610c17565b503d610f32565b604051903d90823e3d90fd5b60248a634e487b7160e01b81526011600452fd5b600489637cd5012560e11b8152fd5b600487635bd0473760e11b8152fd5b6004877febd6a5e7000000000000000000000000000000000000000000000000000000008152fd5b602488634e487b7160e01b81526021600452fd5b610fe8915060a03d60a011610f4e57610f3c8183612b91565b50509150505f610b8b565b6040513d8a823e3d90fd5b6004866344da117d60e11b8152fd5b60048663535a60e960e01b8152fd5b8580fd5b50346101fe5760203660031901126101fe57600435808252600360205261104a6040832054612c63565b5080545f1981019190821161115b579061106391612d82565b50906001600160a01b0360015416906040519063564a565d60e01b8252600482015260a081602481855afa80156111505760246001600160601b039160c093879161112d575b506040519485938492630fad06e960e11b84521660048301525afa908115611122579260209381926110fb575b5050156110f15760046005820154915b015414604051908152f35b60048154916110e6565b61111591925060c03d60c011610f1057610efc8183612b91565b505050509050905f6110d6565b6040513d85823e3d90fd5b611146915060a03d60a011610f4e57610f3c8183612b91565b505050505f6110a9565b6040513d86823e3d90fd5b602484634e487b7160e01b81526011600452fd5b50346101fe5760603660031901126101fe57611189612c13565b60443567ffffffffffffffff81116106aa576111a9903690600401612bcf565b906001600160a01b038354163303610a1757818392916020849351920190602435905af16111d5612e8c565b50156111de5780f35b807f44125e5e0000000000000000000000000000000000000000000000000000000060049252fd5b50346101fe5761124760c09161121b36612d14565b9391835260036020526112316040842054612c63565b5090835260028101602052604083205490612d82565b509160018301549260ff60038201541692604060048301549160026005850154948054968352016020522054936040519586521515602086015260408501526060840152608083015260a0820152f35b50346101fe5760203660031901126101fe576112b4600435612ebb565b90604051918291602083016020845282518091526020604085019301915b8181106112e0575050500390f35b82518452859450602093840193909201916001016112d2565b50346101fe5760a03660031901126101fe5760043560643560443567ffffffffffffffff82116106a657366023830112156106a657816004013567ffffffffffffffff81116115a75736602482850101116115a7576001600160a01b0360015416330361159957838552600460205260408520805460ff161561154c57848652600360205261138b6040872054612c63565b50905b61010161ffff19825416179055826001820155600381016113af8154612c7f565b601f8111611507575b5086601f8411600114611475576114257fd3106f74c2d30a4b9230e756a3e78bde53865d40f6af4c479bb010ebaab5810896959385936060966003948c91611467575b505f1986861b1c1916600186901b1790555b80546024358b526002820160205260408b2055612e66565b5001600160ff1982541617905580602460405195869485526040602086015282604086015201848401378181018301879052601f01601f19168101030190a280f35b60249150890101355f6113fb565b8188526020882090601f198516895b8181106114ec5750938593600393611425936060987fd3106f74c2d30a4b9230e756a3e78bde53865d40f6af4c479bb010ebaab581089b9a98106114d2575b5050600185811b01905561140d565b8901602401355f1987871b60f8161c191690555f806114c3565b91926020600181926024878d01013581550194019201611484565b81885260208820601f850160051c81019160208610611542575b601f0160051c01905b81811061153757506113b8565b88815560010161152a565b9091508190611521565b6002549068010000000000000000821015611585576001820160025561157182612c63565b50918688526003602052604088205561138e565b602487634e487b7160e01b81526041600452fd5b628448c760e31b8552600485fd5b8480fd5b50346101fe5760603660031901126101fe5760043560243567ffffffffffffffff81116106aa576115e0903690600401612ce3565b8284526004602052604084205460443593929060ff161561183e57828552600460205260ff604086205460081c161561182f57602460a06001600160a01b03600154166040519283809263564a565d60e01b82528860048301525afa908115611824578691611800575b5060058110156117ec576001036117c45781156117b557831561178d57828552600360205261167c6040862054612c63565b5080545f19810191908211611779579061169591612d82565b508590865b8481106116fb5750916116ec916116d860057f05cc2f1c94966f1c961b410a50f3d3ffb64501346753a258177097ea23707f08969501918254612e59565b9055604051926040845260408401916134c9565b9360208201528033940390a380f35b611709610d9a8287876134b9565b506001600160a01b0333915460081c1603610e3957600161172e610dc68388886134b9565b50015415611753575b8087600161174a610de882958a8a6134b9565b5001550161169a565b915f1981146117655760010191611737565b602488634e487b7160e01b81526011600452fd5b602487634e487b7160e01b81526011600452fd5b6004857f37b5b73d000000000000000000000000000000000000000000000000000000008152fd5b600485635bd0473760e11b8152fd5b6004857f97ab7f79000000000000000000000000000000000000000000000000000000008152fd5b602486634e487b7160e01b81526021600452fd5b611819915060a03d60a011610f4e57610f3c8183612b91565b50509150505f61164a565b6040513d88823e3d90fd5b6004856344da117d60e11b8152fd5b60048563535a60e960e01b8152fd5b50346101fe5760203660031901126101fe57604060a0916001600160601b03611874612cb7565b16815260056020522080549060018101549060036002820154910154916001600160601b036040519460ff81161515865260081c166020850152604084015260608301526080820152f35b50346101fe5760203660031901126101fe57600435600254811015610934576118e790612c63565b506003600182015491016040518381949083549361190485612c7f565b80855294600181169081156119885750600114611946575b505061192a92500383612b91565b6103656040519283928352604060208401526040830190612c3f565b90809394925052602082205b81831061196c57505090602061192a928201015f8061191c565b6020919350806001915483858901015201910190918492611952565b9150506020925061192a94915060ff191682840152151560051b8201015f8061191c565b50346101fe57806003193601126101fe57506103656040516119cf604082612b91565b600581527f322e302e300000000000000000000000000000000000000000000000000000006020820152604051918291602083526020830190612c3f565b50346101fe57806003193601126101fe576001600160a01b037f0000000000000000000000000000000000000000000000000000000000000000163003611a785760206040517f360894a13ba1a3210667c828492db98dca3e2076cc3735a920a3ca505d382bbc8152f35b8063703e46dd60e11b60049252fd5b5060403660031901126101fe57611a9c612c13565b9060243567ffffffffffffffff811161093457611abd903690600401612bcf565b6001600160a01b038254163303610a97576001600160a01b037f000000000000000000000000000000000000000000000000000000000000000016803014908115611cb6575b50611ca7576001600160a01b03831690604051937f52d1902d000000000000000000000000000000000000000000000000000000008552602085600481865afa80958596611c73575b50611b7d57602484847f0c760937000000000000000000000000000000000000000000000000000000008252600452fd5b90917f360894a13ba1a3210667c828492db98dca3e2076cc3735a920a3ca505d382bbc8503611c4757839450817f360894a13ba1a3210667c828492db98dca3e2076cc3735a920a3ca505d382bbc557fbc7cd75a20ee27fd9adebab32041f755214dbc6bffa90cc0225b39da2e5c2d3b8480a281519081611c00575b5050505080f35b6020849301905af4611c10612e8c565b5015611c1f57805f8080611bf9565b807f736436ba0000000000000000000000000000000000000000000000000000000060049252fd5b602484867faa1d49a4000000000000000000000000000000000000000000000000000000008252600452fd5b9095506020813d602011611c9f575b81611c8f60209383612b91565b810103126115a75751945f611b4c565b3d9150611c82565b60048263703e46dd60e11b8152fd5b90506001600160a01b037f360894a13ba1a3210667c828492db98dca3e2076cc3735a920a3ca505d382bbc541614155f611b03565b50611cf536612c29565b90805f52600460205260ff60405f2054161561246a57805f52600460205260ff60405f205460081c161561245b57805f526003602052611d3860405f2054612c63565b509060018201908154841161244c576001600160a01b036001541660405163afe15cfb60e01b8152826004820152604081602481855afa90811561208f575f905f9261241a575b508042108015612410575b6123e857604051631c3db16d60e01b8152846004820152606081602481305afa801561208f5788915f916123b7575b5003612352575050612710945b84545f19810190811161230a57611ddd9086612d82565b50604051917ffc6f8f16000000000000000000000000000000000000000000000000000000008352846004840152602083602481875afa92831561208f575f9361231e575b505f19830183811161230a576007830198825f528960205260ff60405f2054166122e2576020602496604051978880927f59ec827e0000000000000000000000000000000000000000000000000000000082528b60048301525afa95861561208f575f966122ac575b50612710611e9c611ea39288612d51565b0486612e59565b985f996006850190845f528160205260405f20548111612236575b6001600160a01b0333165f526008860160205260405f20855f5260205260405f20611eea8d8254612e59565b9055845f528160205260405f20611f028d8254612e59565b9055845f528160205260405f20541015612180575b505050506001600a82015411611f5f575b505050505050803411611f39575080f35b611f46611f5c9134612d44565b6001600160a01b0360065460081c1690336133b6565b80f35b600901611f6d838254612d44565b9055602460a06001600160a01b0360015416604051928380927f4159ad880000000000000000000000000000000000000000000000000000000082528860048301525afa90811561208f575f9161212c575b50156120fe5750815f52600460205260405f2061ff001981541690555b60036001600160a01b036001541693549401833b156120fa576040519485937fc356990200000000000000000000000000000000000000000000000000000000855260048501526024840152606060448401525f9080549061203d82612c7f565b918260648701526001811690815f146120d5575060011461209a575b50505f939183809203925af1801561208f5761207a575b8080808080611f28565b6120879192505f90612b91565b5f905f612070565b6040513d5f823e3d90fd5b5f908152602081209092505b8183106120bb57505082016084018183612059565b8054608484890101528694506020909201916001016120a6565b60ff191660848088019190915292151560051b86019092019250839150849050612059565b5f80fd5b8454905f526002850160205260405f2055600361211a85612e66565b5001805460ff19166001179055611fdc565b905060a0813d60a011612178575b8161214760a09383612b91565b810103126120fa5760808161215e61217293612d9b565b5061216b60608201612daf565b5001612daf565b5f611fbf565b3d915061213a565b835f5260205260405f205461219a60098601918254612e59565b9055600a8401805468010000000000000000811015612222576001810180835581101561220e5784915f5260205f200155825f5260205260405f20600160ff19825416179055857fed764996238e4c1c873ae3af7ae2f00f1f6f4f10b9ac7d4bbea4a764c5dea0095f80a45f808080611f17565b634e487b7160e01b5f52603260045260245ffd5b634e487b7160e01b5f52604160045260245ffd5b9a50835f528060205261224d60405f20548c612d44565b34101561229157349a5b8b604051908682526020820152848a7fcae597f39a3ad75c2e10d46b031f023c5c2babcd58ca0491b122acda3968d4c060403394a4611ebe565b835f52806020526122a660405f20548c612d44565b9a612257565b9095506020813d6020116122da575b816122c860209383612b91565b810103126120fa575194612710611e8b565b3d91506122bb565b7fbcdf54db000000000000000000000000000000000000000000000000000000005f5260045ffd5b634e487b7160e01b5f52601160045260245ffd5b9092506020813d60201161234a575b8161233a60209383612b91565b810103126120fa5751915f611e22565b3d915061232d565b806123606123669242612d44565b92612d44565b611388810290808204611388149015171561230a576127109004111561238f57614e2094611dc6565b7f5ebfd119000000000000000000000000000000000000000000000000000000005f5260045ffd5b6123d9915060603d6060116123e1575b6123d18183612b91565b810190612e30565b50505f611db9565b503d6123c7565b7fa7f0eb18000000000000000000000000000000000000000000000000000000005f5260045ffd5b5081421015611d8a565b905061243e915060403d604011612445575b6124368183612b91565b810190612d2e565b905f611d7f565b503d61242c565b637cd5012560e11b5f5260045ffd5b6344da117d60e11b5f5260045ffd5b63535a60e960e01b5f5260045ffd5b346120fa575f3660031901126120fa5760206001600160a01b0360065460081c16604051908152f35b346120fa575f3660031901126120fa57602060ff600654166040519015158152f35b346120fa5760603660031901126120fa576004356024356001600160a01b038116918282036120fa57604435905f6001600160a01b036001541660405163564a565d60e01b815283600482015260a081602481855afa90811561208f575f91612884575b501561285c576040517f5c975abb000000000000000000000000000000000000000000000000000000008152602081600481855afa90811561208f575f91612822575b506127fa57825f52600460205260ff60405f2054161561246a57826024935f526003602052606061259f60405f2054612c63565b509260405195868092631c3db16d60e01b82528560048301525afa93841561208f575f946127d7575b505f5b825481101561276e576125de8184612d82565b509360078501875f528060205260ff60405f205416155f1461264157509060086126226001938b5f5282880160205260405f208a5f5260205260405f205490612e59565b955b8a5f520160205260405f20875f526020525f6040812055016125cb565b8787036126ba57509060086126ac600193600688018a5f528060205260405f205415155f146126b2576126a6908d5f52848a0160205260405f208c5f5260205261269460405f205460098c015490612d51565b908c5f5260205260405f205490612d64565b90612e59565b95612624565b505f90612e59565b865f9692965260205260ff60405f205416156126dc575b906008600192612624565b9390885f526008850160205260405f20875f5260205261270560405f2054600987015490612d51565b9160068601600a87019182541561220e57825f5260205f20545f528160205260405f20549183546001101561220e5760019561275e612764946126a6936008975f528960205f2001545f5260205260405f205490612e59565b90612d64565b95919250506126d1565b6020848984898b84612785575b8585604051908152f35b7f6caeb64c011a9c292dc0dae973b7aacc054142ede95218fa43b9c6fccccce750916127c3604092876001600160a01b0360065460081c16916133b6565b81519081528587820152a38280808061277b565b6127f191945060603d6060116123e1576123d18183612b91565b505092876125c8565b7f88226c22000000000000000000000000000000000000000000000000000000005f5260045ffd5b90506020813d602011612854575b8161283d60209383612b91565b810103126120fa5761284e90612daf565b8761256b565b3d9150612830565b7f8a7dc9ee000000000000000000000000000000000000000000000000000000005f5260045ffd5b61289d915060a03d60a011610f4e57610f3c8183612b91565b509250505087612528565b346120fa5760603660031901126120fa5760443567ffffffffffffffff81116120fa576128d9903690600401612bcf565b506020610446602435600435612e0a565b346120fa5760203660031901126120fa576004355f90805f52600360205261291560405f2054612c63565b5080545f19810190811161230a5761292c91612d82565b50600381015460ff1692908315612a1157505f5b91602460a06001600160a01b03600154166040519283809263564a565d60e01b82528660048301525afa90811561208f575f916129ed575b5060058110156129d9576004146129a4575b506060926040519283521515602083015215156040820152f35b6129ad90612ebb565b928351600181146129c0575b509261298a565b925050501561220e576020015160609060015f846129b9565b634e487b7160e01b5f52602160045260245ffd5b612a06915060a03d60a011610f4e57610f3c8183612b91565b505091505085612978565b60010154612940565b346120fa576020610446610a3a36612b6f565b346120fa5760203660031901126120fa576004355f526003602052602060405f2054604051908152f35b346120fa5760203660031901126120fa576004355f526003602052612a7f60405f2054612c63565b5080545f1981019190821161230a57602091612a9a91612d82565b506005810154905414604051908152f35b346120fa5760203660031901126120fa57600435906040816024816001600160a01b036001541663afe15cfb60e01b82528660048301525afa91821561208f575f915f93612b48575b50612afe90612ebb565b51159081612b14575b6020826040519015158152f35b612b2391506123608142612d44565b90611388820291808304611388149015171561230a5761271060209204111582612b07565b612b67919350612afe925060403d604011612445576124368183612b91565b929091612af4565b60a09060031901126120fa576004359060243590604435906064359060843590565b90601f8019910116810190811067ffffffffffffffff82111761222257604052565b67ffffffffffffffff811161222257601f01601f191660200190565b81601f820112156120fa57602081359101612be982612bb3565b92612bf76040519485612b91565b828452828201116120fa57815f92602092838601378301015290565b600435906001600160a01b03821682036120fa57565b60409060031901126120fa576004359060243590565b805180835260209291819084018484015e5f828201840152601f01601f1916010190565b60025481101561220e5760025f52600e60205f20910201905f90565b90600182811c92168015612cad575b6020831014612c9957565b634e487b7160e01b5f52602260045260245ffd5b91607f1691612c8e565b600435906001600160601b03821682036120fa57565b604435906001600160601b03821682036120fa57565b9181601f840112156120fa5782359167ffffffffffffffff83116120fa576020808501948460051b0101116120fa57565b60609060031901126120fa57600435906024359060443590565b91908260409103126120fa576020825192015190565b9190820391821161230a57565b8181029291811591840414171561230a57565b8115612d6e570490565b634e487b7160e01b5f52601260045260245ffd5b805482101561220e575f52601660205f20910201905f90565b51906001600160601b03821682036120fa57565b519081151582036120fa57565b908160a09103126120fa57612dd081612d9b565b9160208201516001600160a01b03811681036120fa5791604081015160058110156120fa57916080612e0460608401612daf565b92015190565b906040519060208201928352604082015260408152612e2a606082612b91565b51902090565b908160609103126120fa57805191612e566040612e4f60208501612daf565b9301612daf565b90565b9190820180921161230a57565b80546801000000000000000081101561222257612e8891600182018155612d82565b9091565b3d15612eb6573d90612e9d82612bb3565b91612eab6040519384612b91565b82523d5f602084013e565b606090565b5f526003602052612ecf60405f2054612c63565b5080545f1981019190821161230a57600a91612eea91612d82565b5001604051808260208294549384815201905f5260205f20925f5b818110612f1a575050612e5692500382612b91565b8454835260019485019486945060209093019201612f05565b91908260c09103126120fa57612f4882612d9b565b91612f5560208201612daf565b9160408201519160608101519160a0608083015192015190565b805482101561220e575f52600d60205f20910201905f90565b915091815f526003602052612fa060405f2054612c63565b5080545f19810190811161230a57612fb791612d82565b506001600160a01b036001541693604051947f2e1daf2f000000000000000000000000000000000000000000000000000000008652602086600481845afa95861561208f575f966131ce575b509060a06024926040519384809263564a565d60e01b82528960048301525afa95861561208f57856001600160a01b03613091986040955f916131ab575b508551998a95869485937fd045e002000000000000000000000000000000000000000000000000000000008552600485016040919493926001600160601b03606083019616825260208201520152565b0392165afa92831561208f575f945f94613158575b5083856001600160a01b03811615613150575050846130c491613506565b1561314a5780549068010000000000000000821015612222576130ef826001600b9401835582612f6f565b50805474ffffffffffffffffffffffffffffffffffffffff001974ffffffffffffffffffffffffffffffffffffffff008860081b1691161790556001600160a01b0385165f520160205260405f20600160ff19825416179055565b505f9250565b955093505050565b945092506040843d6040116131a3575b8161317560409383612b91565b810103126120fa578351936001600160a01b03851685036120fa57602061319c9101612d9b565b925f6130a6565b3d9150613168565b6131c4915060a03d60a011610f4e57610f3c8183612b91565b505050505f613041565b9095506020813d60201161320d575b816131ea60209383612b91565b810103126120fa5751906001600160a01b03821682036120fa57909460a0613003565b3d91506131dd565b9061324590825f52600360205261322f60405f2054612c63565b50905f526002810160205260405f205490612d82565b5060606001600160a01b036001541692602460405180958193631c3db16d60e01b835260048301525afa91821561208f575f905f936132d7575b50600482015492831580156132b8575b1561329c57505050505f90565b156132a657505090565b600292505f520160205260405f205490565b508015801561328f5750815f526002830160205260405f20541561328f565b90506132f391925060603d6060116123e1576123d18183612b91565b5091905f61327f565b916107bb61331992845f52600360205261322f60405f2054612c63565b509060606001600160a01b036001541691602460405180948193631c3db16d60e01b835260048301525afa90811561208f575f905f92613393575b5060ff8354169283613374575b5050505f146133705761271090565b5f90565b60020154149150811561338b575b505f8080613361565b90505f613382565b90506133ae915060603d6060116123e1576123d18183612b91565b50905f613354565b6001600160a01b0316905f925f828481156134af575b5f92839283928392f16134a9576001600160a01b031691823b156120fa576040517fd0e30db00000000000000000000000000000000000000000000000000000000081525f8160048186885af1801561208f57613494575b50823b156106a65790604484928360405195869485937fa9059cbb000000000000000000000000000000000000000000000000000000008552600485015260248401525af1801561348957613477575050565b613482828092612b91565b6101fe5750565b6040513d84823e3d90fd5b6134a19194505f90612b91565b5f925f613424565b50505050565b6108fc92506133cc565b919081101561220e5760051b0190565b90918281527f07ffffffffffffffffffffffffffffffffffffffffffffffffffffffffffffff83116120fa5760209260051b809284830137010190565b60065460ff161561355d575f52600360205261352560405f2054612c63565b509081545f19810190811161230a576135486001600160a01b0391600b94612d82565b5091165f520160205260ff60405f2054161590565b505060019056fea2646970667358221220f0d356b8b71d994c024441f67bc119ddd5ef9fe63b81ef51ce958333efa997a064736f6c634300081e0033f0c57e16840df040f15088dc2f81fe391c3923bec73e23a9662efc9c229c6a0e",
  "devdoc": {
    "errors": {
      "AlreadyInitialized()": [
        {
          "details": "The contract is already initialized."
        }
      ],
      "NotInitializing()": [
        {
          "details": "The contract is not initializing."
        }
      ]
    },
    "events": {
      "ChoiceFunded(uint256,uint256,uint256)": {
        "params": {
          "_choice": "The choice that is being funded.",
          "_coreDisputeID": "The identifier of the dispute in the Arbitrator contract.",
          "_coreRoundID": "The identifier of the round in the Arbitrator contract."
        }
      },
      "CommitCast(uint256,address,uint256[],bytes32)": {
        "params": {
          "_commit": "The commitment of the juror.",
          "_coreDisputeID": "The identifier of the dispute in the Arbitrator contract.",
          "_juror": "The address of the juror casting the vote commitment.",
          "_voteIDs": "The identifiers of the votes in the dispute."
        }
      },
      "Contribution(uint256,uint256,uint256,address,uint256)": {
        "params": {
          "_amount": "The amount contributed.",
          "_choice": "The choice that is being funded.",
          "_contributor": "The address of the contributor.",
          "_coreDisputeID": "The identifier of the dispute in the Arbitrator contract.",
          "_coreRoundID": "The identifier of the round in the Arbitrator contract."
        }
      },
      "DisputeCreation(uint256,uint256,bytes)": {
        "params": {
          "_coreDisputeID": "The identifier of the dispute in the Arbitrator contract.",
          "_extraData": "The extra data for the dispute.",
          "_numberOfChoices": "The number of choices available in the dispute."
        }
      },
      "Initialized(uint64)": {
        "details": "Triggered when the contract has been initialized or reinitialized."
      },
      "NextRoundSettingsChanged(uint96,(bool,uint96,uint256,uint256,uint256))": {
        "params": {
          "_courtID": "The ID of the court that the settings are changed for.",
          "_nextRoundSettings": "The settings for the next round."
        }
      },
      "Upgraded(address)": {
        "params": {
          "newImplementation": "Address of the new implementation the proxy is now forwarding calls to."
        }
      },
      "VoteCast(uint256,address,uint256[],uint256,string)": {
        "params": {
          "_choice": "The choice juror voted for.",
          "_coreDisputeID": "The identifier of the dispute in the Arbitrator contract.",
          "_juror": "Address of the juror.",
          "_justification": "Justification of the choice.",
          "_voteIDs": "The identifiers of the votes in the dispute."
        }
      },
      "Withdrawal(uint256,uint256,address,uint256)": {
        "params": {
          "_amount": "The amount withdrawn.",
          "_choice": "The choice that is being funded.",
          "_contributor": "The address of the contributor.",
          "_coreDisputeID": "The identifier of the dispute in the Arbitrator contract."
        }
      }
    },
    "kind": "dev",
    "methods": {
      "areCommitsAllCast(uint256)": {
        "params": {
          "_coreDisputeID": "The ID of the dispute in Kleros Core, not in the Dispute Kit."
        },
        "returns": {
          "_0": "Whether all of the jurors have cast their commits for the last round."
        }
      },
      "areVotesAllCast(uint256)": {
        "details": "This function is to be called directly by the core contract and is not for off-chain usage.",
        "params": {
          "_coreDisputeID": "The ID of the dispute in Kleros Core, not in the Dispute Kit."
        },
        "returns": {
          "_0": "Whether all of the jurors have cast their votes for the last round."
        }
      },
      "castCommit(uint256,uint256[],bytes32)": {
        "details": "It can be called multiple times during the commit period, each call overrides the commits of the previous one. `O(n)` where `n` is the number of votes.",
        "params": {
          "_commit": "The commitment hash.",
          "_coreDisputeID": "The ID of the dispute in Kleros Core.",
          "_voteIDs": "The IDs of the votes."
        }
      },
      "castVote(uint256,uint256[],uint256,uint256,string)": {
        "details": "`O(n)` where `n` is the number of votes.",
        "params": {
          "_choice": "The choice.",
          "_coreDisputeID": "The ID of the dispute in Kleros Core.",
          "_justification": "Justification of the choice.",
          "_salt": "The salt for the commit if the votes were hidden.",
          "_voteIDs": "The IDs of the votes."
        }
      },
      "changeCore(address)": {
        "params": {
          "_core": "The new value for the `core` storage variable."
        }
      },
      "changeNextRoundSettings(uint96,(bool,uint96,uint256,uint256,uint256))": {
        "params": {
          "_courtID": "The ID of the court that the settings are changed for.",
          "_nextRoundSettings": "The settings for the next round."
        }
      },
      "changeOwner(address)": {
        "params": {
          "_owner": "The new value for the `owner` storage variable."
        }
      },
      "constructor": {
        "custom:oz-upgrades-unsafe-allow": "constructor"
      },
      "createDispute(uint256,uint256,uint256,bytes,uint256)": {
        "details": "Access restricted to Kleros Core only.The new `KlerosCore.Round` must be created before calling this function.",
        "params": {
          "_coreDisputeID": "The ID of the dispute in Kleros Core, not in the Dispute Kit.",
          "_coreRoundID": "The ID of the round in Kleros Core, not in the Dispute Kit.",
          "_extraData": "Additional info about the dispute, for possible use in future dispute kits.",
          "_nbVotes": "Maximal number of votes this dispute can get. Added for future-proofing.",
          "_numberOfChoices": "Number of choices of the dispute"
        }
      },
      "currentRuling(uint256)": {
        "params": {
          "_coreDisputeID": "The ID of the dispute in Kleros Core, not in the Dispute Kit."
        },
        "returns": {
          "overridden": "Whether the ruling was overridden by appeal funding or not.",
          "ruling": "The current ruling.",
          "tied": "Whether it's a tie or not."
        }
      },
      "draw(uint256,uint256,uint256)": {
        "details": "Access restricted to Kleros Core only.",
        "params": {
          "_coreDisputeID": "The ID of the dispute in Kleros Core, not in the Dispute Kit.",
          "_nonce": "Nonce.",
          "_roundNbVotes": "The number of votes in the round, including already drawn and yet to be drawn."
        },
        "returns": {
          "drawnAddress": "The drawn address.",
          "fromSubcourtID": "The subcourt ID from which the juror was drawn."
        }
      },
      "executeOwnerProposal(address,uint256,bytes)": {
        "params": {
          "_amount": "The value sent with the call.",
          "_data": "The data sent with the call.",
          "_destination": "The destination of the call."
        }
      },
      "fundAppeal(uint256,uint256)": {
        "params": {
          "_choice": "A choice that receives funding.",
          "_coreDisputeID": "Index of the dispute in Kleros Core."
        }
      },
      "getCoherentCount(uint256,uint256)": {
        "params": {
          "_coreDisputeID": "The ID of the dispute in Kleros Core, not in the Dispute Kit.",
          "_coreRoundID": "The ID of the round in Kleros Core, not in the Dispute Kit."
        },
        "returns": {
          "_0": "The number of coherent jurors."
        }
      },
      "getDegreeOfCoherencePenalty(uint256,uint256,uint256,uint256,uint256)": {
        "details": "This function is called by Kleros Core in order to determine the amount of the penalty.",
        "params": {
          "_coreDisputeID": "The ID of the dispute in Kleros Core, not in the Dispute Kit.",
          "_coreRoundID": "The ID of the round in Kleros Core, not in the Dispute Kit.",
          "_feePerJuror": "The fee per juror.",
          "_pnkAtStakePerJuror": "The PNK at stake per juror.",
          "_voteID": "The ID of the vote."
        },
        "returns": {
          "pnkCoherence": "The degree of coherence in basis points for the dispute PNK reward."
        }
      },
      "getDegreeOfCoherenceReward(uint256,uint256,uint256,uint256,uint256)": {
        "details": "This function is called by Kleros Core in order to determine the amount of the reward.",
        "params": {
          "_coreDisputeID": "The ID of the dispute in Kleros Core, not in the Dispute Kit.",
          "_coreRoundID": "The ID of the round in Kleros Core, not in the Dispute Kit.",
          "_feePerJuror": "The fee per juror.",
          "_pnkAtStakePerJuror": "The PNK at stake per juror.",
          "_voteID": "The ID of the vote."
        },
        "returns": {
          "feeCoherence": "The degree of coherence in basis points for the dispute fee reward.",
          "pnkCoherence": "The degree of coherence in basis points for the dispute PNK reward."
        }
      },
      "getFundedChoices(uint256)": {
        "params": {
          "_coreDisputeID": "The ID of the dispute in Kleros Core."
        },
        "returns": {
          "fundedChoices": "Fully funded rulings."
        }
      },
      "getLocalDisputeRoundID(uint256,uint256)": {
        "params": {
          "_coreDisputeID": "The ID of the dispute in Kleros Core.",
          "_coreRoundID": "The ID of the round in Kleros Core."
        },
        "returns": {
          "localDisputeID": "The ID of the dispute in the Dispute Kit.",
          "localRoundID": "The ID of the round in the Dispute Kit."
        }
      },
      "getNextRoundSettings(uint256,uint96,uint96,uint256,uint256,uint256)": {
        "details": "This function does not check for compatibility between `newDisputeKitID` and `newCourtID`, this is the Core's responsibility.",
        "params": {
          "_coreDisputeID": "The ID of the dispute in Kleros Core, not in the Dispute Kit.",
          "_currentCourtID": "The ID of the current court.",
          "_currentCourtJurorsForJump": "The court jump threshold defined by the current court.",
          "_currentDisputeKitID": "The ID of the current dispute kit.",
          "_currentRoundNbVotes": "The number of votes in the current round.",
          "_parentCourtID": "The ID of the parent court."
        },
        "returns": {
          "newCourtID": "Court ID after jump.",
          "newDisputeKitID": "Dispute kit ID after jump.",
          "newRoundNbVotes": "The number of votes in the new round."
        }
      },
      "getNumberOfRounds(uint256)": {
        "params": {
          "_localDisputeID": "The ID of the dispute in the Dispute Kit."
        },
        "returns": {
          "_0": "The number of rounds in the dispute."
        }
      },
      "getRoundInfo(uint256,uint256,uint256)": {
        "params": {
          "_choice": "The choice to query.",
          "_coreDisputeID": "The ID of the dispute in Kleros Core, not in the Dispute Kit.",
          "_coreRoundID": "The ID of the round in Kleros Core, not in the Dispute Kit."
        },
        "returns": {
          "choiceCount": "Number of votes cast for the queried choice.",
          "nbVoters": "Total number of voters in this round.",
          "tied": "Whether it's a tie or not.",
          "totalCommitted": "Number of jurors who cast the commit already (only relevant for hidden votes).",
          "totalVoted": "Number of jurors who cast the vote already.",
          "winningChoice": "The winning choice of this round."
        }
      },
      "getVoteInfo(uint256,uint256,uint256)": {
        "params": {
          "_coreDisputeID": "The ID of the dispute in Kleros Core.",
          "_coreRoundID": "The ID of the round in Kleros Core.",
          "_voteID": "The ID of the vote."
        },
        "returns": {
          "account": "The address of the juror who cast the vote.",
          "choice": "The choice that got the vote.",
          "commit": "The commit of the vote.",
          "voted": "Whether the vote was cast or not."
        }
      },
      "hashVote(uint256,uint256,string)": {
        "details": "The unused parameters may be used by overriding contracts.",
        "params": {
          "_choice": "The choice being voted for",
          "_salt": "A random salt for commitment"
        },
        "returns": {
          "_0": "bytes32 The hash of the encoded vote parameters"
        }
      },
      "initialize(address,address,address)": {
        "params": {
          "_core": "The KlerosCore arbitrator.",
          "_owner": "The owner's address.",
          "_wNative": "The wrapped native token address, typically wETH."
        }
      },
      "isAppealFunded(uint256)": {
        "details": "This function is to be called directly by the core contract and is not for off-chain usage.",
        "params": {
          "_coreDisputeID": "The ID of the dispute in Kleros Core, not in the Dispute Kit."
        },
        "returns": {
          "_0": "Whether the appeal funding is finished."
        }
      },
      "isVoteActive(uint256,uint256,uint256)": {
        "params": {
          "_coreDisputeID": "The ID of the dispute in Kleros Core, not in the Dispute Kit.",
          "_coreRoundID": "The ID of the round in Kleros Core, not in the Dispute Kit.",
          "_voteID": "The ID of the voter."
        },
        "returns": {
          "_0": "Whether the voter was active or not."
        }
      },
      "proxiableUUID()": {
        "details": "IMPORTANT: A proxy pointing at a proxiable contract should not be considered proxiable itself, because this risks bricking a proxy that upgrades to it, by delegating to itself until out of gas. Thus it is critical that this function revert if invoked through a proxy. This is guaranteed by the if statement."
      },
      "upgradeToAndCall(address,bytes)": {
        "details": "Reverts if the execution is not performed via delegatecall or the execution context is not of a proxy with an ERC1967-compliant implementation pointing to self.",
        "params": {
          "data": "Data used in a delegate call to `newImplementation` if non-empty. This will typically be an encoded function call, and allows initializing the storage of the proxy like a Solidity constructor.",
          "newImplementation": "Address of the new implementation contract."
        }
      },
      "withdrawFeesAndRewards(uint256,address,uint256)": {
        "details": "Withdrawals are not possible if the core contract is paused.It can be called after the dispute has jumped to another dispute kit.",
        "params": {
          "_beneficiary": "The address whose rewards to withdraw.",
          "_choice": "The ruling option that the caller wants to withdraw from.",
          "_coreDisputeID": "Index of the dispute in Kleros Core contract."
        },
        "returns": {
          "amount": "The withdrawn amount."
        }
      }
    },
    "stateVariables": {
      "version": {
        "return": "Version string.",
        "returns": {
          "_0": "Version string."
        }
      }
    },
    "title": "DisputeKitClassic",
    "version": 1
  },
  "userdoc": {
    "errors": {
      "FailedDelegateCall()": [
        {
          "notice": "Failed Delegated call"
        }
      ],
      "InvalidImplementation(address)": [
        {
          "notice": "The `implementation` is not UUPS-compliant"
        }
      ],
      "UUPSUnauthorizedCallContext()": [
        {
          "notice": "The call is from an unauthorized context."
        }
      ],
      "UUPSUnsupportedProxiableUUID(bytes32)": [
        {
          "notice": "The storage `slot` is unsupported as a UUID."
        }
      ]
    },
    "events": {
      "ChoiceFunded(uint256,uint256,uint256)": {
        "notice": "To be emitted when a choice is fully funded for an appeal."
      },
      "CommitCast(uint256,address,uint256[],bytes32)": {
        "notice": "To be emitted when a vote commitment is cast."
      },
      "Contribution(uint256,uint256,uint256,address,uint256)": {
        "notice": "To be emitted when a funding contribution is made."
      },
      "DisputeCreation(uint256,uint256,bytes)": {
        "notice": "To be emitted when a dispute is created."
      },
      "NextRoundSettingsChanged(uint96,(bool,uint96,uint256,uint256,uint256))": {
        "notice": "To be emitted when the next round settings are changed."
      },
      "Upgraded(address)": {
        "notice": "Emitted when the `implementation` has been successfully upgraded."
      },
      "VoteCast(uint256,address,uint256[],uint256,string)": {
        "notice": "Emitted when casting a vote to provide the justification of juror's choice."
      },
      "Withdrawal(uint256,uint256,address,uint256)": {
        "notice": "To be emitted when the contributed funds are withdrawn."
      }
    },
    "kind": "user",
    "methods": {
      "areCommitsAllCast(uint256)": {
        "notice": "Returns true if all of the jurors have cast their commits for the last round."
      },
      "areVotesAllCast(uint256)": {
        "notice": "Returns true if all of the jurors have cast their votes for the last round."
      },
      "castCommit(uint256,uint256[],bytes32)": {
        "notice": "Sets the caller's commit for the specified votes."
      },
      "castVote(uint256,uint256[],uint256,uint256,string)": {
        "notice": "Sets the caller's choices for the specified votes."
      },
      "changeCore(address)": {
        "notice": "Changes the `core` storage variable."
      },
      "changeNextRoundSettings(uint96,(bool,uint96,uint256,uint256,uint256))": {
        "notice": "Changes the settings for the next round."
      },
      "changeOwner(address)": {
        "notice": "Changes the `owner` storage variable."
      },
      "createDispute(uint256,uint256,uint256,bytes,uint256)": {
        "notice": "Creates a local dispute and maps it to the dispute ID in the Core contract."
      },
      "currentRuling(uint256)": {
        "notice": "Gets the current ruling of a specified dispute."
      },
      "draw(uint256,uint256,uint256)": {
        "notice": "Draws the juror from the sortition tree. The drawn address is picked up by Kleros Core."
      },
      "executeOwnerProposal(address,uint256,bytes)": {
        "notice": "Allows the owner to call anything on behalf of the contract."
      },
      "fundAppeal(uint256,uint256)": {
        "notice": "Manages contributions, and appeals a dispute if at least two choices are fully funded. Note that the surplus deposit will be reimbursed."
      },
      "getCoherentCount(uint256,uint256)": {
        "notice": "Gets the number of jurors who are eligible to a reward in this round."
      },
      "getDegreeOfCoherencePenalty(uint256,uint256,uint256,uint256,uint256)": {
        "notice": "Gets the degree of coherence of a particular voter."
      },
      "getDegreeOfCoherenceReward(uint256,uint256,uint256,uint256,uint256)": {
        "notice": "Gets the degree of coherence of a particular voter."
      },
      "getFundedChoices(uint256)": {
        "notice": "Returns the rulings that were fully funded in the latest appeal round."
      },
      "getLocalDisputeRoundID(uint256,uint256)": {
        "notice": "Returns the local dispute ID and round ID for a given core dispute ID and core round ID."
      },
      "getNextRoundSettings(uint256,uint96,uint96,uint256,uint256,uint256)": {
        "notice": "Returns the next round settings for a given dispute."
      },
      "getNumberOfRounds(uint256)": {
        "notice": "Returns the number of rounds in a dispute."
      },
      "getRoundInfo(uint256,uint256,uint256)": {
        "notice": "Returns the info of the specified round in the core contract."
      },
      "getVoteInfo(uint256,uint256,uint256)": {
        "notice": "Returns the vote information for a given vote ID."
      },
      "hashVote(uint256,uint256,string)": {
        "notice": "Computes the hash of a vote using ABI encoding"
      },
      "initialize(address,address,address)": {
        "notice": "Initializer."
      },
      "isAppealFunded(uint256)": {
        "notice": "Returns true if the appeal funding is finished prematurely (e.g. when losing side didn't fund)."
      },
      "isVoteActive(uint256,uint256,uint256)": {
        "notice": "Returns true if the specified voter was active in this round."
      },
      "proxiableUUID()": {
        "notice": "Implementation of the ERC1822 `proxiableUUID` function. This returns the storage slot used by the implementation. It is used to validate the implementation's compatibility when performing an upgrade."
      },
      "upgradeToAndCall(address,bytes)": {
        "notice": "Upgrade mechanism including access control and UUPS-compliance."
      },
      "version()": {
        "notice": "Returns the version of the implementation."
      },
      "withdrawFeesAndRewards(uint256,address,uint256)": {
        "notice": "Allows those contributors who attempted to fund an appeal round to withdraw any reimbursable fees or rewards after the dispute gets resolved."
      }
    },
    "notice": "Dispute kit implementation of the Kleros v1 features including: - a drawing system: proportional to staked PNK, - a vote aggregation system: plurality, - an incentive system: equal split between coherent votes, - an appeal system: fund 2 choices only, vote on any choice.",
    "version": 1
  },
  "storageLayout": {
    "storage": [
      {
        "astId": 21103,
        "contract": "src/arbitration/dispute-kits/DisputeKitClassic.sol:DisputeKitClassic",
        "label": "owner",
        "offset": 0,
        "slot": "0",
        "type": "t_address"
      },
      {
        "astId": 21106,
        "contract": "src/arbitration/dispute-kits/DisputeKitClassic.sol:DisputeKitClassic",
        "label": "core",
        "offset": 0,
        "slot": "1",
        "type": "t_contract(KlerosCore)16395"
      },
      {
        "astId": 21110,
        "contract": "src/arbitration/dispute-kits/DisputeKitClassic.sol:DisputeKitClassic",
        "label": "disputes",
        "offset": 0,
        "slot": "2",
        "type": "t_array(t_struct(Dispute)21019_storage)dyn_storage"
      },
      {
        "astId": 21114,
        "contract": "src/arbitration/dispute-kits/DisputeKitClassic.sol:DisputeKitClassic",
        "label": "coreDisputeIDToLocal",
        "offset": 0,
        "slot": "3",
        "type": "t_mapping(t_uint256,t_uint256)"
      },
      {
        "astId": 21119,
        "contract": "src/arbitration/dispute-kits/DisputeKitClassic.sol:DisputeKitClassic",
        "label": "coreDisputeIDToActive",
        "offset": 0,
        "slot": "4",
        "type": "t_mapping(t_uint256,t_struct(Active)21081_storage)"
      },
      {
        "astId": 21124,
        "contract": "src/arbitration/dispute-kits/DisputeKitClassic.sol:DisputeKitClassic",
        "label": "courtIDToNextRoundSettings",
        "offset": 0,
        "slot": "5",
        "type": "t_mapping(t_uint96,t_struct(NextRoundSettings)21092_storage)"
      },
      {
        "astId": 21126,
        "contract": "src/arbitration/dispute-kits/DisputeKitClassic.sol:DisputeKitClassic",
        "label": "singleDrawPerJuror",
        "offset": 0,
        "slot": "6",
        "type": "t_bool"
      },
      {
        "astId": 21128,
        "contract": "src/arbitration/dispute-kits/DisputeKitClassic.sol:DisputeKitClassic",
        "label": "wNative",
        "offset": 1,
        "slot": "6",
        "type": "t_address"
      },
      {
        "astId": 21132,
        "contract": "src/arbitration/dispute-kits/DisputeKitClassic.sol:DisputeKitClassic",
        "label": "__gap",
        "offset": 0,
        "slot": "7",
        "type": "t_array(t_uint256)50_storage"
      }
    ],
    "types": {
      "t_address": {
        "encoding": "inplace",
        "label": "address",
        "numberOfBytes": "20"
      },
      "t_array(t_struct(Dispute)21019_storage)dyn_storage": {
        "base": "t_struct(Dispute)21019_storage",
        "encoding": "dynamic_array",
        "label": "struct DisputeKitClassicBase.Dispute[]",
        "numberOfBytes": "32"
      },
      "t_array(t_struct(Round)21063_storage)dyn_storage": {
        "base": "t_struct(Round)21063_storage",
        "encoding": "dynamic_array",
        "label": "struct DisputeKitClassicBase.Round[]",
        "numberOfBytes": "32"
      },
      "t_array(t_struct(Vote)21076_storage)dyn_storage": {
        "base": "t_struct(Vote)21076_storage",
        "encoding": "dynamic_array",
        "label": "struct DisputeKitClassicBase.Vote[]",
        "numberOfBytes": "32"
      },
      "t_array(t_uint256)10_storage": {
        "base": "t_uint256",
        "encoding": "inplace",
        "label": "uint256[10]",
        "numberOfBytes": "320"
      },
      "t_array(t_uint256)50_storage": {
        "base": "t_uint256",
        "encoding": "inplace",
        "label": "uint256[50]",
        "numberOfBytes": "1600"
      },
      "t_array(t_uint256)dyn_storage": {
        "base": "t_uint256",
        "encoding": "dynamic_array",
        "label": "uint256[]",
        "numberOfBytes": "32"
      },
      "t_bool": {
        "encoding": "inplace",
        "label": "bool",
        "numberOfBytes": "1"
      },
      "t_bytes32": {
        "encoding": "inplace",
        "label": "bytes32",
        "numberOfBytes": "32"
      },
      "t_bytes_storage": {
        "encoding": "bytes",
        "label": "bytes",
        "numberOfBytes": "32"
      },
      "t_contract(KlerosCore)16395": {
        "encoding": "inplace",
        "label": "contract KlerosCore",
        "numberOfBytes": "20"
      },
      "t_mapping(t_address,t_bool)": {
        "encoding": "mapping",
        "key": "t_address",
        "label": "mapping(address => bool)",
        "numberOfBytes": "32",
        "value": "t_bool"
      },
      "t_mapping(t_address,t_mapping(t_uint256,t_uint256))": {
        "encoding": "mapping",
        "key": "t_address",
        "label": "mapping(address => mapping(uint256 => uint256))",
        "numberOfBytes": "32",
        "value": "t_mapping(t_uint256,t_uint256)"
      },
      "t_mapping(t_uint256,t_bool)": {
        "encoding": "mapping",
        "key": "t_uint256",
        "label": "mapping(uint256 => bool)",
        "numberOfBytes": "32",
        "value": "t_bool"
      },
      "t_mapping(t_uint256,t_struct(Active)21081_storage)": {
        "encoding": "mapping",
        "key": "t_uint256",
        "label": "mapping(uint256 => struct DisputeKitClassicBase.Active)",
        "numberOfBytes": "32",
        "value": "t_struct(Active)21081_storage"
      },
      "t_mapping(t_uint256,t_uint256)": {
        "encoding": "mapping",
        "key": "t_uint256",
        "label": "mapping(uint256 => uint256)",
        "numberOfBytes": "32",
        "value": "t_uint256"
      },
      "t_mapping(t_uint96,t_struct(NextRoundSettings)21092_storage)": {
        "encoding": "mapping",
        "key": "t_uint96",
        "label": "mapping(uint96 => struct DisputeKitClassicBase.NextRoundSettings)",
        "numberOfBytes": "32",
        "value": "t_struct(NextRoundSettings)21092_storage"
      },
      "t_struct(Active)21081_storage": {
        "encoding": "inplace",
        "label": "struct DisputeKitClassicBase.Active",
        "members": [
          {
            "astId": 21078,
            "contract": "src/arbitration/dispute-kits/DisputeKitClassic.sol:DisputeKitClassic",
            "label": "dispute",
            "offset": 0,
            "slot": "0",
            "type": "t_bool"
          },
          {
            "astId": 21080,
            "contract": "src/arbitration/dispute-kits/DisputeKitClassic.sol:DisputeKitClassic",
            "label": "currentRound",
            "offset": 1,
            "slot": "0",
            "type": "t_bool"
          }
        ],
        "numberOfBytes": "32"
      },
      "t_struct(Dispute)21019_storage": {
        "encoding": "inplace",
        "label": "struct DisputeKitClassicBase.Dispute",
        "members": [
          {
            "astId": 21006,
            "contract": "src/arbitration/dispute-kits/DisputeKitClassic.sol:DisputeKitClassic",
            "label": "rounds",
            "offset": 0,
            "slot": "0",
            "type": "t_array(t_struct(Round)21063_storage)dyn_storage"
          },
          {
            "astId": 21008,
            "contract": "src/arbitration/dispute-kits/DisputeKitClassic.sol:DisputeKitClassic",
            "label": "numberOfChoices",
            "offset": 0,
            "slot": "1",
            "type": "t_uint256"
          },
          {
            "astId": 21012,
            "contract": "src/arbitration/dispute-kits/DisputeKitClassic.sol:DisputeKitClassic",
            "label": "coreRoundIDToLocal",
            "offset": 0,
            "slot": "2",
            "type": "t_mapping(t_uint256,t_uint256)"
          },
          {
            "astId": 21014,
            "contract": "src/arbitration/dispute-kits/DisputeKitClassic.sol:DisputeKitClassic",
            "label": "extraData",
            "offset": 0,
            "slot": "3",
            "type": "t_bytes_storage"
          },
          {
            "astId": 21018,
            "contract": "src/arbitration/dispute-kits/DisputeKitClassic.sol:DisputeKitClassic",
            "label": "__gap",
            "offset": 0,
            "slot": "4",
            "type": "t_array(t_uint256)10_storage"
          }
        ],
        "numberOfBytes": "448"
      },
      "t_struct(NextRoundSettings)21092_storage": {
        "encoding": "inplace",
        "label": "struct DisputeKitClassicBase.NextRoundSettings",
        "members": [
          {
            "astId": 21083,
            "contract": "src/arbitration/dispute-kits/DisputeKitClassic.sol:DisputeKitClassic",
            "label": "enabled",
            "offset": 0,
            "slot": "0",
            "type": "t_bool"
          },
          {
            "astId": 21085,
            "contract": "src/arbitration/dispute-kits/DisputeKitClassic.sol:DisputeKitClassic",
            "label": "jumpCourtID",
            "offset": 1,
            "slot": "0",
            "type": "t_uint96"
          },
          {
            "astId": 21087,
            "contract": "src/arbitration/dispute-kits/DisputeKitClassic.sol:DisputeKitClassic",
            "label": "jumpDisputeKitID",
            "offset": 0,
            "slot": "1",
            "type": "t_uint256"
          },
          {
            "astId": 21089,
            "contract": "src/arbitration/dispute-kits/DisputeKitClassic.sol:DisputeKitClassic",
            "label": "jumpDisputeKitIDOnCourtJump",
            "offset": 0,
            "slot": "2",
            "type": "t_uint256"
          },
          {
            "astId": 21091,
            "contract": "src/arbitration/dispute-kits/DisputeKitClassic.sol:DisputeKitClassic",
            "label": "nbVotes",
            "offset": 0,
            "slot": "3",
            "type": "t_uint256"
          }
        ],
        "numberOfBytes": "128"
      },
      "t_struct(Round)21063_storage": {
        "encoding": "inplace",
        "label": "struct DisputeKitClassicBase.Round",
        "members": [
          {
            "astId": 21023,
            "contract": "src/arbitration/dispute-kits/DisputeKitClassic.sol:DisputeKitClassic",
            "label": "votes",
            "offset": 0,
            "slot": "0",
            "type": "t_array(t_struct(Vote)21076_storage)dyn_storage"
          },
          {
            "astId": 21025,
            "contract": "src/arbitration/dispute-kits/DisputeKitClassic.sol:DisputeKitClassic",
            "label": "winningChoice",
            "offset": 0,
            "slot": "1",
            "type": "t_uint256"
          },
          {
            "astId": 21029,
            "contract": "src/arbitration/dispute-kits/DisputeKitClassic.sol:DisputeKitClassic",
            "label": "counts",
            "offset": 0,
            "slot": "2",
            "type": "t_mapping(t_uint256,t_uint256)"
          },
          {
            "astId": 21031,
            "contract": "src/arbitration/dispute-kits/DisputeKitClassic.sol:DisputeKitClassic",
            "label": "tied",
            "offset": 0,
            "slot": "3",
            "type": "t_bool"
          },
          {
            "astId": 21033,
            "contract": "src/arbitration/dispute-kits/DisputeKitClassic.sol:DisputeKitClassic",
            "label": "totalVoted",
            "offset": 0,
            "slot": "4",
            "type": "t_uint256"
          },
          {
            "astId": 21035,
            "contract": "src/arbitration/dispute-kits/DisputeKitClassic.sol:DisputeKitClassic",
            "label": "totalCommitted",
            "offset": 0,
            "slot": "5",
            "type": "t_uint256"
          },
          {
            "astId": 21039,
            "contract": "src/arbitration/dispute-kits/DisputeKitClassic.sol:DisputeKitClassic",
            "label": "paidFees",
            "offset": 0,
            "slot": "6",
            "type": "t_mapping(t_uint256,t_uint256)"
          },
          {
            "astId": 21043,
            "contract": "src/arbitration/dispute-kits/DisputeKitClassic.sol:DisputeKitClassic",
            "label": "hasPaid",
            "offset": 0,
            "slot": "7",
            "type": "t_mapping(t_uint256,t_bool)"
          },
          {
            "astId": 21049,
            "contract": "src/arbitration/dispute-kits/DisputeKitClassic.sol:DisputeKitClassic",
            "label": "contributions",
            "offset": 0,
            "slot": "8",
            "type": "t_mapping(t_address,t_mapping(t_uint256,t_uint256))"
          },
          {
            "astId": 21051,
            "contract": "src/arbitration/dispute-kits/DisputeKitClassic.sol:DisputeKitClassic",
            "label": "feeRewards",
            "offset": 0,
            "slot": "9",
            "type": "t_uint256"
          },
          {
            "astId": 21054,
            "contract": "src/arbitration/dispute-kits/DisputeKitClassic.sol:DisputeKitClassic",
            "label": "fundedChoices",
            "offset": 0,
            "slot": "10",
            "type": "t_array(t_uint256)dyn_storage"
          },
          {
            "astId": 21058,
            "contract": "src/arbitration/dispute-kits/DisputeKitClassic.sol:DisputeKitClassic",
            "label": "alreadyDrawn",
            "offset": 0,
            "slot": "11",
            "type": "t_mapping(t_address,t_bool)"
          },
          {
            "astId": 21062,
            "contract": "src/arbitration/dispute-kits/DisputeKitClassic.sol:DisputeKitClassic",
            "label": "__gap",
            "offset": 0,
            "slot": "12",
            "type": "t_array(t_uint256)10_storage"
          }
        ],
        "numberOfBytes": "704"
      },
      "t_struct(Vote)21076_storage": {
        "encoding": "inplace",
        "label": "struct DisputeKitClassicBase.Vote",
        "members": [
          {
            "astId": 21065,
            "contract": "src/arbitration/dispute-kits/DisputeKitClassic.sol:DisputeKitClassic",
            "label": "voted",
            "offset": 0,
            "slot": "0",
            "type": "t_bool"
          },
          {
            "astId": 21067,
            "contract": "src/arbitration/dispute-kits/DisputeKitClassic.sol:DisputeKitClassic",
            "label": "account",
            "offset": 1,
            "slot": "0",
            "type": "t_address"
          },
          {
            "astId": 21069,
            "contract": "src/arbitration/dispute-kits/DisputeKitClassic.sol:DisputeKitClassic",
            "label": "commit",
            "offset": 0,
            "slot": "1",
            "type": "t_bytes32"
          },
          {
            "astId": 21071,
            "contract": "src/arbitration/dispute-kits/DisputeKitClassic.sol:DisputeKitClassic",
            "label": "choice",
            "offset": 0,
            "slot": "2",
            "type": "t_uint256"
          },
          {
            "astId": 21075,
            "contract": "src/arbitration/dispute-kits/DisputeKitClassic.sol:DisputeKitClassic",
            "label": "__gap",
            "offset": 0,
            "slot": "3",
            "type": "t_array(t_uint256)10_storage"
          }
        ],
        "numberOfBytes": "416"
      },
      "t_uint256": {
        "encoding": "inplace",
        "label": "uint256",
        "numberOfBytes": "32"
      },
      "t_uint96": {
        "encoding": "inplace",
        "label": "uint96",
        "numberOfBytes": "12"
      }
    }
  }
}