{
  "address": "0x646435dBA7C6E8CCbCAED1C20764720adc54F4A1",
  "abi": [
    {
      "inputs": [],
      "stateMutability": "nonpayable",
      "type": "constructor"
    },
    {
      "inputs": [],
      "name": "AlreadyInitialized",
      "type": "error"
    },
    {
      "inputs": [],
      "name": "FailedDelegateCall",
      "type": "error"
    },
    {
      "inputs": [
        {
          "internalType": "address",
          "name": "implementation",
          "type": "address"
        }
      ],
      "name": "InvalidImplementation",
      "type": "error"
    },
    {
      "inputs": [],
      "name": "NotInitializing",
      "type": "error"
    },
    {
      "inputs": [],
      "name": "UUPSUnauthorizedCallContext",
      "type": "error"
    },
    {
      "inputs": [
        {
          "internalType": "bytes32",
          "name": "slot",
          "type": "bytes32"
        }
      ],
      "name": "UUPSUnsupportedProxiableUUID",
      "type": "error"
    },
    {
      "anonymous": false,
      "inputs": [
        {
          "indexed": true,
          "internalType": "uint256",
          "name": "_coreDisputeID",
          "type": "uint256"
        },
        {
          "indexed": true,
          "internalType": "uint256",
          "name": "_coreRoundID",
          "type": "uint256"
        },
        {
          "indexed": true,
          "internalType": "uint256",
          "name": "_choice",
          "type": "uint256"
        }
      ],
      "name": "ChoiceFunded",
      "type": "event"
    },
    {
      "anonymous": false,
      "inputs": [
        {
          "indexed": true,
          "internalType": "uint256",
          "name": "_coreDisputeID",
          "type": "uint256"
        },
        {
          "indexed": true,
          "internalType": "address",
          "name": "_juror",
          "type": "address"
        },
        {
          "indexed": false,
          "internalType": "uint256[]",
          "name": "_voteIDs",
          "type": "uint256[]"
        },
        {
          "indexed": false,
          "internalType": "bytes32",
          "name": "_commit",
          "type": "bytes32"
        }
      ],
      "name": "CommitCast",
      "type": "event"
    },
    {
      "anonymous": false,
      "inputs": [
        {
          "indexed": true,
          "internalType": "bytes32",
          "name": "_commit",
          "type": "bytes32"
        },
        {
          "indexed": false,
          "internalType": "bytes32",
          "name": "_identity",
          "type": "bytes32"
        },
        {
          "indexed": false,
          "internalType": "bytes",
          "name": "_encryptedVote",
          "type": "bytes"
        }
      ],
      "name": "CommitCastShutter",
      "type": "event"
    },
    {
      "anonymous": false,
      "inputs": [
        {
          "indexed": true,
          "internalType": "uint256",
          "name": "_coreDisputeID",
          "type": "uint256"
        },
        {
          "indexed": true,
          "internalType": "uint256",
          "name": "_coreRoundID",
          "type": "uint256"
        },
        {
          "indexed": false,
          "internalType": "uint256",
          "name": "_choice",
          "type": "uint256"
        },
        {
          "indexed": true,
          "internalType": "address",
          "name": "_contributor",
          "type": "address"
        },
        {
          "indexed": false,
          "internalType": "uint256",
          "name": "_amount",
          "type": "uint256"
        }
      ],
      "name": "Contribution",
      "type": "event"
    },
    {
      "anonymous": false,
      "inputs": [
        {
          "indexed": true,
          "internalType": "uint256",
          "name": "_coreDisputeID",
          "type": "uint256"
        },
        {
          "indexed": false,
          "internalType": "uint256",
          "name": "_numberOfChoices",
          "type": "uint256"
        },
        {
          "indexed": false,
          "internalType": "bytes",
          "name": "_extraData",
          "type": "bytes"
        }
      ],
      "name": "DisputeCreation",
      "type": "event"
    },
    {
      "anonymous": false,
      "inputs": [
        {
          "indexed": false,
          "internalType": "uint64",
          "name": "version",
          "type": "uint64"
        }
      ],
      "name": "Initialized",
      "type": "event"
    },
    {
      "anonymous": false,
      "inputs": [
        {
          "indexed": true,
          "internalType": "address",
          "name": "newImplementation",
          "type": "address"
        }
      ],
      "name": "Upgraded",
      "type": "event"
    },
    {
      "anonymous": false,
      "inputs": [
        {
          "indexed": true,
          "internalType": "uint256",
          "name": "_coreDisputeID",
          "type": "uint256"
        },
        {
          "indexed": true,
          "internalType": "address",
          "name": "_juror",
          "type": "address"
        },
        {
          "indexed": false,
          "internalType": "uint256[]",
          "name": "_voteIDs",
          "type": "uint256[]"
        },
        {
          "indexed": true,
          "internalType": "uint256",
          "name": "_choice",
          "type": "uint256"
        },
        {
          "indexed": false,
          "internalType": "string",
          "name": "_justification",
          "type": "string"
        }
      ],
      "name": "VoteCast",
      "type": "event"
    },
    {
      "anonymous": false,
      "inputs": [
        {
          "indexed": true,
          "internalType": "uint256",
          "name": "_coreDisputeID",
          "type": "uint256"
        },
        {
          "indexed": true,
          "internalType": "uint256",
          "name": "_coreRoundID",
          "type": "uint256"
        },
        {
          "indexed": false,
          "internalType": "uint256",
          "name": "_choice",
          "type": "uint256"
        },
        {
          "indexed": true,
          "internalType": "address",
          "name": "_contributor",
          "type": "address"
        },
        {
          "indexed": false,
          "internalType": "uint256",
          "name": "_amount",
          "type": "uint256"
        }
      ],
      "name": "Withdrawal",
      "type": "event"
    },
    {
      "inputs": [],
      "name": "LOSER_APPEAL_PERIOD_MULTIPLIER",
      "outputs": [
        {
          "internalType": "uint256",
          "name": "",
          "type": "uint256"
        }
      ],
      "stateMutability": "view",
      "type": "function"
    },
    {
      "inputs": [],
      "name": "LOSER_STAKE_MULTIPLIER",
      "outputs": [
        {
          "internalType": "uint256",
          "name": "",
          "type": "uint256"
        }
      ],
      "stateMutability": "view",
      "type": "function"
    },
    {
      "inputs": [],
      "name": "ONE_BASIS_POINT",
      "outputs": [
        {
          "internalType": "uint256",
          "name": "",
          "type": "uint256"
        }
      ],
      "stateMutability": "view",
      "type": "function"
    },
    {
      "inputs": [],
      "name": "WINNER_STAKE_MULTIPLIER",
      "outputs": [
        {
          "internalType": "uint256",
          "name": "",
          "type": "uint256"
        }
      ],
      "stateMutability": "view",
      "type": "function"
    },
    {
      "inputs": [
        {
          "internalType": "uint256",
          "name": "_coreDisputeID",
          "type": "uint256"
        }
      ],
      "name": "areCommitsAllCast",
      "outputs": [
        {
          "internalType": "bool",
          "name": "",
          "type": "bool"
        }
      ],
      "stateMutability": "view",
      "type": "function"
    },
    {
      "inputs": [
        {
          "internalType": "uint256",
          "name": "_coreDisputeID",
          "type": "uint256"
        }
      ],
      "name": "areVotesAllCast",
      "outputs": [
        {
          "internalType": "bool",
          "name": "",
          "type": "bool"
        }
      ],
      "stateMutability": "view",
      "type": "function"
    },
    {
      "inputs": [
        {
          "internalType": "uint256",
          "name": "_coreDisputeID",
          "type": "uint256"
        },
        {
          "internalType": "uint256[]",
          "name": "_voteIDs",
          "type": "uint256[]"
        },
        {
          "internalType": "bytes32",
          "name": "_commit",
          "type": "bytes32"
        }
      ],
      "name": "castCommit",
      "outputs": [],
      "stateMutability": "nonpayable",
      "type": "function"
    },
    {
      "inputs": [
        {
          "internalType": "uint256",
          "name": "_coreDisputeID",
          "type": "uint256"
        },
        {
          "internalType": "uint256[]",
          "name": "_voteIDs",
          "type": "uint256[]"
        },
        {
          "internalType": "bytes32",
          "name": "_commit",
          "type": "bytes32"
        },
        {
          "internalType": "bytes32",
          "name": "_identity",
          "type": "bytes32"
        },
        {
          "internalType": "bytes",
          "name": "_encryptedVote",
          "type": "bytes"
        }
      ],
      "name": "castCommitShutter",
      "outputs": [],
      "stateMutability": "nonpayable",
      "type": "function"
    },
    {
      "inputs": [
        {
          "internalType": "uint256",
          "name": "_coreDisputeID",
          "type": "uint256"
        },
        {
          "internalType": "uint256[]",
          "name": "_voteIDs",
          "type": "uint256[]"
        },
        {
          "internalType": "uint256",
          "name": "_choice",
          "type": "uint256"
        },
        {
          "internalType": "uint256",
          "name": "_salt",
          "type": "uint256"
        },
        {
          "internalType": "string",
          "name": "_justification",
          "type": "string"
        }
      ],
      "name": "castVote",
      "outputs": [],
      "stateMutability": "nonpayable",
      "type": "function"
    },
    {
      "inputs": [
        {
          "internalType": "address",
          "name": "_core",
          "type": "address"
        }
      ],
      "name": "changeCore",
      "outputs": [],
      "stateMutability": "nonpayable",
      "type": "function"
    },
    {
      "inputs": [
        {
          "internalType": "address payable",
          "name": "_governor",
          "type": "address"
        }
      ],
      "name": "changeGovernor",
      "outputs": [],
      "stateMutability": "nonpayable",
      "type": "function"
    },
    {
      "inputs": [],
      "name": "core",
      "outputs": [
        {
          "internalType": "contract KlerosCore",
          "name": "",
          "type": "address"
        }
      ],
      "stateMutability": "view",
      "type": "function"
    },
    {
      "inputs": [
        {
          "internalType": "uint256",
          "name": "",
          "type": "uint256"
        }
      ],
      "name": "coreDisputeIDToLocal",
      "outputs": [
        {
          "internalType": "uint256",
          "name": "",
          "type": "uint256"
        }
      ],
      "stateMutability": "view",
      "type": "function"
    },
    {
      "inputs": [
        {
          "internalType": "uint256",
          "name": "_coreDisputeID",
          "type": "uint256"
        },
        {
          "internalType": "uint256",
          "name": "_numberOfChoices",
          "type": "uint256"
        },
        {
          "internalType": "bytes",
          "name": "_extraData",
          "type": "bytes"
        },
        {
          "internalType": "uint256",
          "name": "_nbVotes",
          "type": "uint256"
        }
      ],
      "name": "createDispute",
      "outputs": [],
      "stateMutability": "nonpayable",
      "type": "function"
    },
    {
      "inputs": [
        {
          "internalType": "uint256",
          "name": "_coreDisputeID",
          "type": "uint256"
        }
      ],
      "name": "currentRuling",
      "outputs": [
        {
          "internalType": "uint256",
          "name": "ruling",
          "type": "uint256"
        },
        {
          "internalType": "bool",
          "name": "tied",
          "type": "bool"
        },
        {
          "internalType": "bool",
          "name": "overridden",
          "type": "bool"
        }
      ],
      "stateMutability": "view",
      "type": "function"
    },
    {
      "inputs": [
        {
          "internalType": "uint256",
          "name": "",
          "type": "uint256"
        }
      ],
      "name": "disputes",
      "outputs": [
        {
          "internalType": "uint256",
          "name": "numberOfChoices",
          "type": "uint256"
        },
        {
          "internalType": "bool",
          "name": "jumped",
          "type": "bool"
        },
        {
          "internalType": "bytes",
          "name": "extraData",
          "type": "bytes"
        }
      ],
      "stateMutability": "view",
      "type": "function"
    },
    {
      "inputs": [
        {
          "internalType": "uint256",
          "name": "_coreDisputeID",
          "type": "uint256"
        },
        {
          "internalType": "uint256",
          "name": "_nonce",
          "type": "uint256"
        }
      ],
      "name": "draw",
      "outputs": [
        {
          "internalType": "address",
          "name": "drawnAddress",
          "type": "address"
        }
      ],
      "stateMutability": "nonpayable",
      "type": "function"
    },
    {
      "inputs": [
        {
          "internalType": "address",
          "name": "_destination",
          "type": "address"
        },
        {
          "internalType": "uint256",
          "name": "_amount",
          "type": "uint256"
        },
        {
          "internalType": "bytes",
          "name": "_data",
          "type": "bytes"
        }
      ],
      "name": "executeGovernorProposal",
      "outputs": [],
      "stateMutability": "nonpayable",
      "type": "function"
    },
    {
      "inputs": [
        {
          "internalType": "uint256",
          "name": "_coreDisputeID",
          "type": "uint256"
        },
        {
          "internalType": "uint256",
          "name": "_choice",
          "type": "uint256"
        }
      ],
      "name": "fundAppeal",
      "outputs": [],
      "stateMutability": "payable",
      "type": "function"
    },
    {
      "inputs": [
        {
          "internalType": "uint256",
          "name": "_coreDisputeID",
          "type": "uint256"
        },
        {
          "internalType": "uint256",
          "name": "_coreRoundID",
          "type": "uint256"
        }
      ],
      "name": "getCoherentCount",
      "outputs": [
        {
          "internalType": "uint256",
          "name": "",
          "type": "uint256"
        }
      ],
      "stateMutability": "view",
      "type": "function"
    },
    {
      "inputs": [
        {
          "internalType": "uint256",
          "name": "_coreDisputeID",
          "type": "uint256"
        },
        {
          "internalType": "uint256",
          "name": "_coreRoundID",
          "type": "uint256"
        },
        {
          "internalType": "uint256",
          "name": "_voteID",
          "type": "uint256"
        },
        {
          "internalType": "uint256",
          "name": "",
          "type": "uint256"
        },
        {
          "internalType": "uint256",
          "name": "",
          "type": "uint256"
        }
      ],
      "name": "getDegreeOfCoherence",
      "outputs": [
        {
          "internalType": "uint256",
          "name": "",
          "type": "uint256"
        }
      ],
      "stateMutability": "view",
      "type": "function"
    },
    {
      "inputs": [
        {
          "internalType": "uint256",
          "name": "_coreDisputeID",
          "type": "uint256"
        }
      ],
      "name": "getFundedChoices",
      "outputs": [
        {
          "internalType": "uint256[]",
          "name": "fundedChoices",
          "type": "uint256[]"
        }
      ],
      "stateMutability": "view",
      "type": "function"
    },
    {
      "inputs": [
        {
          "internalType": "uint256",
          "name": "_coreDisputeID",
          "type": "uint256"
        },
        {
          "internalType": "uint256",
          "name": "_coreRoundID",
          "type": "uint256"
        },
        {
          "internalType": "uint256",
          "name": "_choice",
          "type": "uint256"
        }
      ],
      "name": "getRoundInfo",
      "outputs": [
        {
          "internalType": "uint256",
          "name": "winningChoice",
          "type": "uint256"
        },
        {
          "internalType": "bool",
          "name": "tied",
          "type": "bool"
        },
        {
          "internalType": "uint256",
          "name": "totalVoted",
          "type": "uint256"
        },
        {
          "internalType": "uint256",
          "name": "totalCommited",
          "type": "uint256"
        },
        {
          "internalType": "uint256",
          "name": "nbVoters",
          "type": "uint256"
        },
        {
          "internalType": "uint256",
          "name": "choiceCount",
          "type": "uint256"
        }
      ],
      "stateMutability": "view",
      "type": "function"
    },
    {
      "inputs": [
        {
          "internalType": "uint256",
          "name": "_coreDisputeID",
          "type": "uint256"
        },
        {
          "internalType": "uint256",
          "name": "_coreRoundID",
          "type": "uint256"
        },
        {
          "internalType": "uint256",
          "name": "_voteID",
          "type": "uint256"
        }
      ],
      "name": "getVoteInfo",
      "outputs": [
        {
          "internalType": "address",
          "name": "account",
          "type": "address"
        },
        {
          "internalType": "bytes32",
          "name": "commit",
          "type": "bytes32"
        },
        {
          "internalType": "uint256",
          "name": "choice",
          "type": "uint256"
        },
        {
          "internalType": "bool",
          "name": "voted",
          "type": "bool"
        }
      ],
      "stateMutability": "view",
      "type": "function"
    },
    {
      "inputs": [],
      "name": "governor",
      "outputs": [
        {
          "internalType": "address",
          "name": "",
          "type": "address"
        }
      ],
      "stateMutability": "view",
      "type": "function"
    },
    {
      "inputs": [
        {
          "internalType": "uint256",
          "name": "_choice",
          "type": "uint256"
        },
        {
          "internalType": "uint256",
          "name": "_salt",
          "type": "uint256"
        },
        {
          "internalType": "string",
          "name": "_justification",
          "type": "string"
        }
      ],
      "name": "hashVote",
      "outputs": [
        {
          "internalType": "bytes32",
          "name": "",
          "type": "bytes32"
        }
      ],
      "stateMutability": "pure",
      "type": "function"
    },
    {
      "inputs": [
        {
          "internalType": "address",
          "name": "_governor",
          "type": "address"
        },
        {
          "internalType": "contract KlerosCore",
          "name": "_core",
          "type": "address"
        }
      ],
      "name": "initialize",
      "outputs": [],
      "stateMutability": "nonpayable",
      "type": "function"
    },
    {
      "inputs": [],
      "name": "initialize2",
      "outputs": [],
      "stateMutability": "nonpayable",
      "type": "function"
    },
    {
      "inputs": [
        {
          "internalType": "uint256",
          "name": "_coreDisputeID",
          "type": "uint256"
        }
      ],
      "name": "isAppealFunded",
      "outputs": [
        {
          "internalType": "bool",
          "name": "",
          "type": "bool"
        }
      ],
      "stateMutability": "view",
      "type": "function"
    },
    {
      "inputs": [
        {
          "internalType": "uint256",
          "name": "_coreDisputeID",
          "type": "uint256"
        },
        {
          "internalType": "uint256",
          "name": "_coreRoundID",
          "type": "uint256"
        },
        {
          "internalType": "uint256",
          "name": "_voteID",
          "type": "uint256"
        }
      ],
      "name": "isVoteActive",
      "outputs": [
        {
          "internalType": "bool",
          "name": "",
          "type": "bool"
        }
      ],
      "stateMutability": "view",
      "type": "function"
    },
    {
      "inputs": [],
      "name": "proxiableUUID",
      "outputs": [
        {
          "internalType": "bytes32",
          "name": "",
          "type": "bytes32"
        }
      ],
      "stateMutability": "view",
      "type": "function"
    },
    {
      "inputs": [],
      "name": "singleDrawPerJuror",
      "outputs": [
        {
          "internalType": "bool",
          "name": "",
          "type": "bool"
        }
      ],
      "stateMutability": "view",
      "type": "function"
    },
    {
      "inputs": [
        {
          "internalType": "address",
          "name": "newImplementation",
          "type": "address"
        },
        {
          "internalType": "bytes",
          "name": "data",
          "type": "bytes"
        }
      ],
      "name": "upgradeToAndCall",
      "outputs": [],
      "stateMutability": "payable",
      "type": "function"
    },
    {
      "inputs": [],
      "name": "version",
      "outputs": [
        {
          "internalType": "string",
          "name": "",
          "type": "string"
        }
      ],
      "stateMutability": "view",
      "type": "function"
    },
    {
      "inputs": [
        {
          "internalType": "uint256",
          "name": "_coreDisputeID",
          "type": "uint256"
        },
        {
          "internalType": "address payable",
          "name": "_beneficiary",
          "type": "address"
        },
        {
          "internalType": "uint256",
          "name": "_coreRoundID",
          "type": "uint256"
        },
        {
          "internalType": "uint256",
          "name": "_choice",
          "type": "uint256"
        }
      ],
      "name": "withdrawFeesAndRewards",
      "outputs": [
        {
          "internalType": "uint256",
          "name": "amount",
          "type": "uint256"
        }
      ],
      "stateMutability": "nonpayable",
      "type": "function"
    }
  ],
  "transactionHash": "0x31a2311a33cd1a74a416eeb916aa8f64b65accd95a16a9410203c3fae19e5f5c",
  "args": [],
  "numDeployments": 2,
  "solcInputHash": "720097f21043cca39229dbd8e433d9d2",
  "bytecode": "0x60a0604052306080523480156200001557600080fd5b506200002062000026565b620000d9565b7ff0c57e16840df040f15088dc2f81fe391c3923bec73e23a9662efc9c229c6a0e805468010000000000000000900460ff1615620000765760405162dc149f60e41b815260040160405180910390fd5b80546001600160401b0390811614620000d65780546001600160401b0319166001600160401b0390811782556040519081527fc7f505b2f371ae2175ee4913f4499e1f2633a7b5936321eed1cdaeb6115181d29060200160405180910390a15b50565b60805161452b62000103600039600081816119150152818161193e0152611b36015261452b6000f3fe6080604052600436106101c45760003560e01c806365540b96116100f8578063b34bfaa811610090578063b34bfaa8146105c3578063b6ede540146105d9578063ba66fde7146105f9578063be46760414610619578063d2b8035a1461062f578063da3beb8c1461064f578063e349ad3014610521578063e4c0aaf41461066f578063f2f4eb261461068f57600080fd5b806365540b9614610447578063675926f61461047457806369f3f041146104945780636d4cd8ea146104e1578063751accd014610501578063796490f9146105215780637c04034e146105375780638e42646014610557578063a7cc08fe1461057757600080fd5b8063362c34791161016b578063362c34791461032a578063472abf681461034a578063485cc9551461035f5780634b2f0ea01461037f5780634f1ef2861461039257806352d1902d146103a557806354fd4d50146103ba578063564a565d146103f85780635c92e2f61461042757600080fd5b80630855bbe9146101c957806309cc41b8146101fe5780630baa64d1146102205780630c340a24146102405780631200aabc146102785780631c3db16d146102b35780631cc3423a146102f05780632621b9a214610310575b600080fd5b3480156101d557600080fd5b506101e96101e43660046136d0565b6106af565b60405190151581526020015b60405180910390f35b34801561020a57600080fd5b5061021e610219366004613775565b610777565b005b34801561022c57600080fd5b506101e961023b3660046136d0565b610879565b34801561024c57600080fd5b50600054610260906001600160a01b031681565b6040516001600160a01b0390911681526020016101f5565b34801561028457600080fd5b506102a56102933660046136d0565b60036020526000908152604090205481565b6040519081526020016101f5565b3480156102bf57600080fd5b506102d36102ce3660046136d0565b6108f0565b6040805193845291151560208401521515908201526060016101f5565b3480156102fc57600080fd5b506102a561030b3660046138df565b610a5e565b34801561031c57600080fd5b506004546101e99060ff1681565b34801561033657600080fd5b506102a5610345366004613943565b610a9b565b34801561035657600080fd5b5061021e610f21565b34801561036b57600080fd5b5061021e61037a366004613980565b610fd2565b61021e61038d3660046139b9565b61109a565b61021e6103a03660046139db565b611901565b3480156103b157600080fd5b506102a5611b29565b3480156103c657600080fd5b506103eb60405180604001604052806005815260200164302e392e3160d81b81525081565b6040516101f59190613a7a565b34801561040457600080fd5b506104186104133660046136d0565b611b87565b6040516101f593929190613a94565b34801561043357600080fd5b5061021e610442366004613ab5565b611c4d565b34801561045357600080fd5b506104676104623660046136d0565b611f52565b6040516101f59190613b07565b34801561048057600080fd5b506102a561048f366004613b4b565b612016565b3480156104a057600080fd5b506104b46104af366004613b86565b612159565b604080519687529415156020870152938501929092526060840152608083015260a082015260c0016101f5565b3480156104ed57600080fd5b506101e96104fc3660046136d0565b612211565b34801561050d57600080fd5b5061021e61051c366004613bb2565b612394565b34801561052d57600080fd5b506102a561271081565b34801561054357600080fd5b5061021e610552366004613bf4565b612460565b34801561056357600080fd5b5061021e610572366004613c78565b612b23565b34801561058357600080fd5b50610597610592366004613b86565b612b6f565b604080516001600160a01b039095168552602085019390935291830152151560608201526080016101f5565b3480156105cf57600080fd5b506102a5614e2081565b3480156105e557600080fd5b5061021e6105f4366004613c95565b612c35565b34801561060557600080fd5b506101e9610614366004613b86565b612df8565b34801561062557600080fd5b506102a561138881565b34801561063b57600080fd5b5061026061064a3660046139b9565b612e93565b34801561065b57600080fd5b506102a561066a3660046139b9565b6131ad565b34801561067b57600080fd5b5061021e61068a366004613c78565b613300565b34801561069b57600080fd5b50600154610260906001600160a01b031681565b60015460405163afe15cfb60e01b815260048101839052600091829182916001600160a01b03169063afe15cfb906024016040805180830381865afa1580156106fc573d6000803e3d6000fd5b505050506040513d601f19601f820116820180604052508101906107209190613cef565b91509150600061072f85611f52565b90508051600014801561076e575061271061138861074d8585613d29565b6107579190613d3c565b6107619190613d53565b61076b8442613d29565b10155b95945050505050565b60008781526003602052604090205460028054899290811061079b5761079b613d75565b600091825260209091206002600590920201015460ff16156107d85760405162461bcd60e51b81526004016107cf90613d8b565b60405180910390fd5b604051632e49717b60e11b81523090635c92e2f690610801908b908b908b908b90600401613df4565b600060405180830381600087803b15801561081b57600080fd5b505af115801561082f573d6000803e3d6000fd5b50505050847f053dc5fd28575f5a9be86157f2079ab29d3aec5096f11b17e81b50409b88781c85858560405161086793929190613e48565b60405180910390a25050505050505050565b60008181526003602052604081205460028054839290811061089d5761089d613d75565b600091825260208220600590910201805490925082906108bf90600190613d29565b815481106108cf576108cf613d75565b60009182526020909120600d90910201805460059091015414949350505050565b600080600080600260036000878152602001908152602001600020548154811061091c5761091c613d75565b6000918252602082206005909102018054909250829061093e90600190613d29565b8154811061094e5761094e613d75565b60009182526020909120600d90910201600381015460ff16945090508361097957806001015461097c565b60005b60015460405163564a565d60e01b8152600481018990529196506000916001600160a01b039091169063564a565d9060240160a060405180830381865afa1580156109cb573d6000803e3d6000fd5b505050506040513d601f19601f820116820180604052508101906109ef9190613e8e565b50909350600492506109ff915050565b816004811115610a1157610a11613ef5565b03610a54576000610a2188611f52565b90508051600103610a525780600081518110610a3f57610a3f613d75565b6020026020010151965060009550600194505b505b5050509193909250565b8051602091820120604080518084019590955284810193909352606080850191909152825180850390910181526080909301909152815191012090565b60015460405163564a565d60e01b81526004810186905260009182916001600160a01b039091169063564a565d9060240160a060405180830381865afa158015610ae9573d6000803e3d6000fd5b505050506040513d601f19601f82011682018060405250810190610b0d9190613e8e565b50935050505080610b605760405162461bcd60e51b815260206004820152601b60248201527f446973707574652073686f756c64206265207265736f6c7665642e000000000060448201526064016107cf565b600160009054906101000a90046001600160a01b03166001600160a01b0316635c975abb6040518163ffffffff1660e01b8152600401602060405180830381865afa158015610bb3573d6000803e3d6000fd5b505050506040513d601f19601f82011682018060405250810190610bd79190613f0b565b15610c155760405162461bcd60e51b815260206004820152600e60248201526d10dbdc99481a5cc81c185d5cd95960921b60448201526064016107cf565b600086815260036020526040812054600280549091908110610c3957610c39613d75565b60009182526020808320888452600360059093020191820190526040822054815491935083918110610c6d57610c6d613d75565b600091825260208220600154604051631c3db16d60e01b8152600481018d9052600d9390930290910193506001600160a01b031690631c3db16d90602401606060405180830381865afa158015610cc8573d6000803e3d6000fd5b505050506040513d601f19601f82011682018060405250810190610cec9190613f26565b5050600087815260078401602052604090205490915060ff16610d36576001600160a01b038816600090815260088301602090815260408083208984529091529020549450610e7b565b808603610dab576000868152600683016020526040902054610d59576000610da4565b600086815260068301602090815260408083205460098601546001600160a01b038d1685526008870184528285208b8652909352922054610d9a9190613d3c565b610da49190613d53565b9450610e7b565b600081815260078301602052604090205460ff16610e7b5781600601600083600a01600181548110610ddf57610ddf613d75565b906000526020600020015481526020019081526020016000205482600601600084600a01600081548110610e1557610e15613d75565b9060005260206000200154815260200190815260200160002054610e399190613f62565b60098301546001600160a01b038a16600090815260088501602090815260408083208b8452909152902054610e6e9190613d3c565b610e789190613d53565b94505b6001600160a01b038816600090815260088301602090815260408083208984529091528120558415610f15576040516001600160a01b0389169086156108fc029087906000818181858888f15050604080518a8152602081018a90526001600160a01b038d1694508b93508d92507f54b3cab3cb5c4aca3209db1151caff092e878011202e43a36782d4ebe0b963ae910160405180910390a45b50505050949350505050565b60026000610f2d61334c565b8054909150600160401b900460ff1680610f54575080546001600160401b03808416911610155b15610f715760405162dc149f60e41b815260040160405180910390fd5b805468ffffffffffffffffff19166001600160401b038316908117600160401b1760ff60401b191682556040519081527fc7f505b2f371ae2175ee4913f4499e1f2633a7b5936321eed1cdaeb6115181d29060200160405180910390a15050565b60016000610fde61334c565b8054909150600160401b900460ff1680611005575080546001600160401b03808416911610155b156110225760405162dc149f60e41b815260040160405180910390fd5b805468ffffffffffffffffff19166001600160401b03831617600160401b17815561104d8484613370565b805460ff60401b191681556040516001600160401b03831681527fc7f505b2f371ae2175ee4913f4499e1f2633a7b5936321eed1cdaeb6115181d29060200160405180910390a150505050565b6000828152600360205260409020546002805484929081106110be576110be613d75565b600091825260209091206002600590920201015460ff16156110f25760405162461bcd60e51b81526004016107cf90613d8b565b60008381526003602052604081205460028054909190811061111657611116613d75565b90600052602060002090600502019050806001015483111561117a5760405162461bcd60e51b815260206004820181905260248201527f5468657265206973206e6f20737563682072756c696e6720746f2066756e642e60448201526064016107cf565b60015460405163afe15cfb60e01b81526004810186905260009182916001600160a01b039091169063afe15cfb906024016040805180830381865afa1580156111c7573d6000803e3d6000fd5b505050506040513d601f19601f820116820180604052508101906111eb9190613cef565b915091508142101580156111fe57508042105b6112435760405162461bcd60e51b815260206004820152601660248201527520b83832b0b6103832b934b7b21034b99037bb32b91760511b60448201526064016107cf565b604051631c3db16d60e01b81526004810187905260009081903090631c3db16d90602401606060405180830381865afa158015611284573d6000803e3d6000fd5b505050506040513d601f19601f820116820180604052508101906112a89190613f26565b505090508681036112bd57612710915061133e565b6127106113886112cd8686613d29565b6112d79190613d3c565b6112e19190613d53565b6112eb8542613d29565b106113385760405162461bcd60e51b815260206004820152601f60248201527f41707065616c20706572696f64206973206f76657220666f72206c6f7365720060448201526064016107cf565b614e2091505b8454600090869061135190600190613d29565b8154811061136157611361613d75565b60009182526020822060018054604051637e37c78b60e11b8152600481018f9052600d949094029092019450916001600160a01b039091169063fc6f8f1690602401602060405180830381865afa1580156113c0573d6000803e3d6000fd5b505050506040513d601f19601f820116820180604052508101906113e49190613f75565b6113ee9190613d29565b60008a815260078401602052604090205490915060ff16156114525760405162461bcd60e51b815260206004820152601b60248201527f41707065616c2066656520697320616c726561647920706169642e000000000060448201526064016107cf565b600154604051632cf6413f60e11b8152600481018c90526000916001600160a01b0316906359ec827e90602401602060405180830381865afa15801561149c573d6000803e3d6000fd5b505050506040513d601f19601f820116820180604052508101906114c09190613f75565b905060006127106114d18784613d3c565b6114db9190613d53565b6114e59083613f62565b60008c8152600686016020526040812054919250908211156115965760008c8152600686016020526040902054349061151e9084613d29565b116115435760008c815260068601602052604090205461153e9083613d29565b611545565b345b9050336001600160a01b0316848e7fcae597f39a3ad75c2e10d46b031f023c5c2babcd58ca0491b122acda3968d4c08f8560405161158d929190918252602082015260400190565b60405180910390a45b33600090815260088601602090815260408083208f8452909152812080548392906115c2908490613f62565b909155505060008c8152600686016020526040812080548392906115e7908490613f62565b909155505060008c815260068601602052604090205482116116b95760008c815260068601602052604081205460098701805491929091611629908490613f62565b9250508190555084600a018c908060018154018082558091505060019003906000526020600020016000909190919091505560018560070160008e815260200190815260200160002060006101000a81548160ff0219169083151502179055508b848e7fed764996238e4c1c873ae3af7ae2f00f1f6f4f10b9ac7d4bbea4a764c5dea00960405160405180910390a45b600a850154600110156118c4578285600901546116d69190613d29565b60098601556001546040516319b8152960e01b8152600481018f90526001600160a01b03909116906319b8152990602401602060405180830381865afa158015611724573d6000803e3d6000fd5b505050506040513d601f19601f820116820180604052508101906117489190613f0b565b156117615760028a01805460ff19166001179055611844565b895460038b016000611774876001613f62565b81526020019081526020016000208190555060008a6000016001816001815401808255809150500390600052602060002090600d02019050600160009054906101000a90046001600160a01b03166001600160a01b031663c71f42538f6040518263ffffffff1660e01b81526004016117ef91815260200190565b602060405180830381865afa15801561180c573d6000803e3d6000fd5b505050506040513d601f19601f820116820180604052508101906118309190613f75565b600b820155600301805460ff191660011790555b600160009054906101000a90046001600160a01b03166001600160a01b031663c3569902848f8d600101548e6004016040518563ffffffff1660e01b815260040161189193929190613fc8565b6000604051808303818588803b1580156118aa57600080fd5b505af11580156118be573d6000803e3d6000fd5b50505050505b803411156118f257336108fc6118da8334613d29565b6040518115909202916000818181858888f150505050505b50505050505050505050505050565b61190a826133a6565b306001600160a01b037f000000000000000000000000000000000000000000000000000000000000000016148061198857507f00000000000000000000000000000000000000000000000000000000000000006001600160a01b031661197c6000805160206144d68339815191525490565b6001600160a01b031614155b156119a65760405163703e46dd60e11b815260040160405180910390fd5b816001600160a01b03166352d1902d6040518163ffffffff1660e01b8152600401602060405180830381865afa925050508015611a00575060408051601f3d908101601f191682019092526119fd91810190613f75565b60015b611a2857604051630c76093760e01b81526001600160a01b03831660048201526024016107cf565b6000805160206144d68339815191528114611a5957604051632a87526960e21b8152600481018290526024016107cf565b6000805160206144d68339815191528390556040516001600160a01b038416907fbc7cd75a20ee27fd9adebab32041f755214dbc6bffa90cc0225b39da2e5c2d3b90600090a2815115611b24576000836001600160a01b031683604051611ac09190614067565b600060405180830381855af49150503d8060008114611afb576040519150601f19603f3d011682016040523d82523d6000602084013e611b00565b606091505b5050905080611b22576040516339b21b5d60e11b815260040160405180910390fd5b505b505050565b6000306001600160a01b037f00000000000000000000000000000000000000000000000000000000000000001614611b745760405163703e46dd60e11b815260040160405180910390fd5b506000805160206144d683398151915290565b60028181548110611b9757600080fd5b600091825260209091206005909102016001810154600282015460048301805492945060ff9091169291611bca90613f8e565b80601f0160208091040260200160405190810160405280929190818152602001828054611bf690613f8e565b8015611c435780601f10611c1857610100808354040283529160200191611c43565b820191906000526020600020905b815481529060010190602001808311611c2657829003601f168201915b5050505050905083565b600084815260036020526040902054600280548692908110611c7157611c71613d75565b600091825260209091206002600590920201015460ff1615611ca55760405162461bcd60e51b81526004016107cf90613d8b565b60015460405163564a565d60e01b8152600481018790526000916001600160a01b03169063564a565d9060240160a060405180830381865afa158015611cef573d6000803e3d6000fd5b505050506040513d601f19601f82011682018060405250810190611d139190613e8e565b5090935060019250611d23915050565b816004811115611d3557611d35613ef5565b14611d925760405162461bcd60e51b815260206004820152602760248201527f54686520646973707574652073686f756c6420626520696e20436f6d6d6974206044820152663832b934b7b21760c91b60648201526084016107cf565b82611dcf5760405162461bcd60e51b815260206004820152600d60248201526c22b6b83a3c9031b7b6b6b4ba1760991b60448201526064016107cf565b600086815260036020526040812054600280549091908110611df357611df3613d75565b60009182526020822060059091020180549092508290611e1590600190613d29565b81548110611e2557611e25613d75565b90600052602060002090600d0201905060005b86811015611eeb573382898984818110611e5457611e54613d75565b9050602002013581548110611e6b57611e6b613d75565b60009182526020909120600490910201546001600160a01b031614611ea25760405162461bcd60e51b81526004016107cf90614083565b8582898984818110611eb657611eb6613d75565b9050602002013581548110611ecd57611ecd613d75565b60009182526020909120600160049092020181019190915501611e38565b5086869050816005016000828254611f039190613f62565b9091555050604051339089907f05cc2f1c94966f1c961b410a50f3d3ffb64501346753a258177097ea23707f0890611f40908b908b908b906140ba565b60405180910390a35050505050505050565b6000818152600360205260408120546002805460609392908110611f7857611f78613d75565b60009182526020822060059091020180549092508290611f9a90600190613d29565b81548110611faa57611faa613d75565b90600052602060002090600d0201905080600a0180548060200260200160405190810160405280929190818152602001828054801561200857602002820191906000526020600020905b815481526020019060010190808311611ff4575b505050505092505050919050565b60008581526003602052604081205460028054839290811061203a5761203a613d75565b6000918252602080832089845260036005909302019182019052604082205481549193508391811061206e5761206e613d75565b90600052602060002090600d0201600001868154811061209057612090613d75565b600091825260208220600154604051631c3db16d60e01b815260048082018e905293909302909101935082916001600160a01b0390911690631c3db16d90602401606060405180830381865afa1580156120ee573d6000803e3d6000fd5b505050506040513d601f19601f820116820180604052508101906121129190613f26565b506003850154919350915060ff168015612136575081836002015414806121365750805b156121495761271094505050505061076e565b5060009998505050505050505050565b60008060008060008060006002600360008c8152602001908152602001600020548154811061218a5761218a613d75565b600091825260208083208c84526003600590930201918201905260408220548154919350839181106121be576121be613d75565b600091825260208083206001600d909302019182015460038301546004840154600585015485549f87526002909501909352604090942054909f60ff9094169e50909c50909a9950975095505050505050565b60008181526003602052604081205460028054839290811061223557612235613d75565b6000918252602082206005909102018054909250829061225790600190613d29565b8154811061226757612267613d75565b60009182526020822060015460405163564a565d60e01b815260048101899052600d9390930290910193506001600160a01b03169063564a565d9060240160a060405180830381865afa1580156122c2573d6000803e3d6000fd5b505050506040513d601f19601f820116820180604052508101906122e69190613e8e565b5050600154604051630fad06e960e11b81526001600160601b03851660048201529394506000936001600160a01b039091169250631f5a0dd2915060240160e060405180830381865afa158015612341573d6000803e3d6000fd5b505050506040513d601f19601f8201168201806040525081019061236591906140de565b505050505091505060008161237b578354612381565b83600501545b6004909401549093149695505050505050565b6000546001600160a01b031633146123be5760405162461bcd60e51b81526004016107cf90614148565b6000836001600160a01b031683836040516123d99190614067565b60006040518083038185875af1925050503d8060008114612416576040519150601f19603f3d011682016040523d82523d6000602084013e61241b565b606091505b5050905080611b225760405162461bcd60e51b8152602060048201526011602482015270155b9cdd58d8d95cdcd99d5b0818d85b1b607a1b60448201526064016107cf565b60008681526003602052604090205460028054889290811061248457612484613d75565b600091825260209091206002600590920201015460ff16156124b85760405162461bcd60e51b81526004016107cf90613d8b565b60015460405163564a565d60e01b8152600481018990526000916001600160a01b03169063564a565d9060240160a060405180830381865afa158015612502573d6000803e3d6000fd5b505050506040513d601f19601f820116820180604052508101906125269190613e8e565b5090935060029250612536915050565b81600481111561254857612548613ef5565b146125a35760405162461bcd60e51b815260206004820152602560248201527f54686520646973707574652073686f756c6420626520696e20566f74652070656044820152643934b7b21760d91b60648201526084016107cf565b856125e55760405162461bcd60e51b8152602060048201526012602482015271139bc81d9bdd195251081c1c9bdd9a59195960721b60448201526064016107cf565b60008881526003602052604081205460028054909190811061260957612609613d75565b9060005260206000209060050201905080600101548611156126645760405162461bcd60e51b815260206004820152601460248201527343686f696365206f7574206f6620626f756e647360601b60448201526064016107cf565b8054600090829061267790600190613d29565b8154811061268757612687613d75565b60009182526020822060015460405163564a565d60e01b8152600481018f9052600d9390930290910193506001600160a01b03169063564a565d9060240160a060405180830381865afa1580156126e2573d6000803e3d6000fd5b505050506040513d601f19601f820116820180604052508101906127069190613e8e565b5050600154604051630fad06e960e11b81526001600160601b03851660048201529394506000936001600160a01b039091169250631f5a0dd2915060240160e060405180830381865afa158015612761573d6000803e3d6000fd5b505050506040513d601f19601f8201168201806040525081019061278591906140de565b5050505050915050600061279a8a8a8a610a5e565b905060005b8b8110156129e85733858e8e848181106127bb576127bb613d75565b90506020020135815481106127d2576127d2613d75565b60009182526020909120600490910201546001600160a01b0316146128095760405162461bcd60e51b81526004016107cf90614083565b821580612850575081858e8e8481811061282557612825613d75565b905060200201358154811061283c5761283c613d75565b906000526020600020906004020160010154145b6128d05760405162461bcd60e51b8152602060048201526044602482018190527f54686520766f74652068617368206d757374206d617463682074686520636f6d908201527f6d69746d656e7420696e20636f7572747320776974682068696464656e20766f6064820152633a32b99760e11b608482015260a4016107cf565b848d8d838181106128e3576128e3613d75565b90506020020135815481106128fa576128fa613d75565b600091825260209091206003600490920201015460ff16156129535760405162461bcd60e51b81526020600482015260126024820152712b37ba329030b63932b0b23c9031b0b9ba1760711b60448201526064016107cf565b8a858e8e8481811061296757612967613d75565b905060200201358154811061297e5761297e613d75565b60009182526020909120600260049092020101556001858e8e848181106129a7576129a7613d75565b90506020020135815481106129be576129be613d75565b60009182526020909120600490910201600301805460ff191691151591909117905560010161279f565b508b8b9050846004016000828254612a009190613f62565b909155505060008a8152600285016020526040812080548d9290612a25908490613f62565b909155505060018401548a03612a5457600384015460ff1615612a4f5760038401805460ff191690555b612acd565b60018401546000908152600285016020526040808220548c835291205403612a9657600384015460ff16612a4f5760038401805460ff19166001179055612acd565b60018401546000908152600285016020526040808220548c83529120541115612acd57600184018a905560038401805460ff191690555b89336001600160a01b03168e7fa000893c71384499023d2d7b21234f7b9e80c78e0330f357dcd667ff578bd3a48f8f8d604051612b0c9392919061418a565b60405180910390a450505050505050505050505050565b6000546001600160a01b03163314612b4d5760405162461bcd60e51b81526004016107cf90614148565b600180546001600160a01b0319166001600160a01b0392909216919091179055565b60008060008060006002600360008a81526020019081526020016000205481548110612b9d57612b9d613d75565b600091825260208083208a8452600360059093020191820190526040822054815491935083918110612bd157612bd1613d75565b90600052602060002090600d02016000018781548110612bf357612bf3613d75565b600091825260209091206004909102018054600182015460028301546003909301546001600160a01b039092169c909b5091995060ff16975095505050505050565b6001546001600160a01b03163314612c5f5760405162461bcd60e51b81526004016107cf906141ba565b60028054600181018255600091909152600581027f405787fa12a823e0f2b7631cc41b3ba8828b3321ca811111fa75cd3aa3bb5acf81018690557f405787fa12a823e0f2b7631cc41b3ba8828b3321ca811111fa75cd3aa3bb5ace8101907f405787fa12a823e0f2b7631cc41b3ba8828b3321ca811111fa75cd3aa3bb5ad201612cea85878361424e565b50805460018054604051637e37c78b60e11b8152600481018b9052600385019260009290916001600160a01b039091169063fc6f8f1690602401602060405180830381865afa158015612d41573d6000803e3d6000fd5b505050506040513d601f19601f82011682018060405250810190612d659190613f75565b612d6f9190613d29565b81526020808201929092526040908101600090812093909355835460018181018655858552838520600b600d909302019182018890556003808301805460ff19169092179091558b855290925291829020849055905188907fd3106f74c2d30a4b9230e756a3e78bde53865d40f6af4c479bb010ebaab5810890610867908a908a908a90613e48565b600083815260036020526040812054600280548392908110612e1c57612e1c613d75565b60009182526020808320878452600360059093020191820190526040822054815491935083918110612e5057612e50613d75565b90600052602060002090600d02016000018481548110612e7257612e72613d75565b600091825260209091206004909102016003015460ff169695505050505050565b6001546000906001600160a01b03163314612ec05760405162461bcd60e51b81526004016107cf906141ba565b600083815260036020526040902054600280548592908110612ee457612ee4613d75565b600091825260209091206002600590920201015460ff1615612f185760405162461bcd60e51b81526004016107cf90613d8b565b600084815260036020526040812054600280549091908110612f3c57612f3c613d75565b60009182526020822060059091020180549092508290612f5e90600190613d29565b81548110612f6e57612f6e613d75565b90600052602060002090600d020190506000600160009054906101000a90046001600160a01b03166001600160a01b0316632e1daf2f6040518163ffffffff1660e01b8152600401602060405180830381865afa158015612fd3573d6000803e3d6000fd5b505050506040513d601f19601f82011682018060405250810190612ff7919061430e565b60015460405163564a565d60e01b8152600481018a90529192506000916001600160a01b039091169063564a565d9060240160a060405180830381865afa158015613046573d6000803e3d6000fd5b505050506040513d601f19601f8201168201806040525081019061306a9190613e8e565b5050604051632638506b60e11b81526001600160601b03841660048201819052602482018d9052604482018c90529394506001600160a01b0386169250634c70a0d69150606401602060405180830381865afa1580156130ce573d6000803e3d6000fd5b505050506040513d601f19601f820116820180604052508101906130f2919061430e565b96506130ff848a896133d3565b1561319c57604080516080810182526001600160a01b03808a1680835260006020808501828152858701838152606087018481528c5460018181018f558e8752858720995160049092029099018054919098166001600160a01b0319909116178755915186880155516002860155516003909401805494151560ff19958616179055918152600c89019091529290922080549092161790556131a1565b600096505b50505050505092915050565b6000828152600360205260408120546002805483929081106131d1576131d1613d75565b6000918252602080832086845260036005909302019182019052604082205481549193508391811061320557613205613d75565b600091825260208220600154604051631c3db16d60e01b8152600481018a9052600d93909302909101935082916001600160a01b0390911690631c3db16d90602401606060405180830381865afa158015613264573d6000803e3d6000fd5b505050506040513d601f19601f820116820180604052508101906132889190613f26565b50915091508260040154600014806132b75750801580156132b757506000828152600284016020526040902054155b156132c95760009450505050506132fa565b80156132de5750506004015491506132fa9050565b5060009081526002909101602052604090205491506132fa9050565b92915050565b6000546001600160a01b0316331461332a5760405162461bcd60e51b81526004016107cf90614148565b600080546001600160a01b0319166001600160a01b0392909216919091179055565b7ff0c57e16840df040f15088dc2f81fe391c3923bec73e23a9662efc9c229c6a0e90565b61337861368f565b600080546001600160a01b039384166001600160a01b03199182161790915560018054929093169116179055565b6000546001600160a01b031633146133d05760405162461bcd60e51b81526004016107cf90614148565b50565b60015460405163564a565d60e01b81526004810184905260009182916001600160a01b039091169063564a565d9060240160a060405180830381865afa158015613421573d6000803e3d6000fd5b505050506040513d601f19601f820116820180604052508101906134459190613e8e565b505060018054604051637e37c78b60e11b8152600481018a90529495506000946001600160a01b039091169350638a9bb02a9250889190849063fc6f8f1690602401602060405180830381865afa1580156134a4573d6000803e3d6000fd5b505050506040513d601f19601f820116820180604052508101906134c89190613f75565b6134d29190613d29565b6040516001600160e01b031960e085901b16815260048101929092526024820152604401600060405180830381865afa158015613513573d6000803e3d6000fd5b505050506040513d6000823e601f3d908101601f1916820160405261353b91908101906143be565b602001519050600080600160009054906101000a90046001600160a01b03166001600160a01b0316632e1daf2f6040518163ffffffff1660e01b8152600401602060405180830381865afa158015613597573d6000803e3d6000fd5b505050506040513d601f19601f820116820180604052508101906135bb919061430e565b604051631a383be960e31b81526001600160a01b0388811660048301526001600160601b0387166024830152919091169063d1c1df4890604401608060405180830381865afa158015613612573d6000803e3d6000fd5b505050506040513d601f19601f82011682018060405250810190613636919061449f565b50509150915082816136489190613f62565b60045490831015955060ff16156136845784801561368157506001600160a01b0386166000908152600c8901602052604090205460ff16155b94505b505050509392505050565b6136976136b6565b6136b457604051631afcd79f60e31b815260040160405180910390fd5b565b60006136c061334c565b54600160401b900460ff16919050565b6000602082840312156136e257600080fd5b5035919050565b60008083601f8401126136fb57600080fd5b5081356001600160401b0381111561371257600080fd5b6020830191508360208260051b850101111561372d57600080fd5b9250929050565b60008083601f84011261374657600080fd5b5081356001600160401b0381111561375d57600080fd5b60208301915083602082850101111561372d57600080fd5b600080600080600080600060a0888a03121561379057600080fd5b8735965060208801356001600160401b03808211156137ae57600080fd5b6137ba8b838c016136e9565b909850965060408a0135955060608a0135945060808a01359150808211156137e157600080fd5b506137ee8a828b01613734565b989b979a50959850939692959293505050565b634e487b7160e01b600052604160045260246000fd5b60405161016081016001600160401b038111828210171561383a5761383a613801565b60405290565b604051601f8201601f191681016001600160401b038111828210171561386857613868613801565b604052919050565b600082601f83011261388157600080fd5b81356001600160401b0381111561389a5761389a613801565b6138ad601f8201601f1916602001613840565b8181528460208386010111156138c257600080fd5b816020850160208301376000918101602001919091529392505050565b6000806000606084860312156138f457600080fd5b833592506020840135915060408401356001600160401b0381111561391857600080fd5b61392486828701613870565b9150509250925092565b6001600160a01b03811681146133d057600080fd5b6000806000806080858703121561395957600080fd5b84359350602085013561396b8161392e565b93969395505050506040820135916060013590565b6000806040838503121561399357600080fd5b823561399e8161392e565b915060208301356139ae8161392e565b809150509250929050565b600080604083850312156139cc57600080fd5b50508035926020909101359150565b600080604083850312156139ee57600080fd5b82356139f98161392e565b915060208301356001600160401b03811115613a1457600080fd5b613a2085828601613870565b9150509250929050565b60005b83811015613a45578181015183820152602001613a2d565b50506000910152565b60008151808452613a66816020860160208601613a2a565b601f01601f19169290920160200192915050565b602081526000613a8d6020830184613a4e565b9392505050565b838152821515602082015260606040820152600061076e6060830184613a4e565b60008060008060608587031215613acb57600080fd5b8435935060208501356001600160401b03811115613ae857600080fd5b613af4878288016136e9565b9598909750949560400135949350505050565b6020808252825182820181905260009190848201906040850190845b81811015613b3f57835183529284019291840191600101613b23565b50909695505050505050565b600080600080600060a08688031215613b6357600080fd5b505083359560208501359550604085013594606081013594506080013592509050565b600080600060608486031215613b9b57600080fd5b505081359360208301359350604090920135919050565b600080600060608486031215613bc757600080fd5b8335613bd28161392e565b92506020840135915060408401356001600160401b0381111561391857600080fd5b60008060008060008060a08789031215613c0d57600080fd5b8635955060208701356001600160401b0380821115613c2b57600080fd5b613c378a838b016136e9565b909750955060408901359450606089013593506080890135915080821115613c5e57600080fd5b50613c6b89828a01613870565b9150509295509295509295565b600060208284031215613c8a57600080fd5b8135613a8d8161392e565b600080600080600060808688031215613cad57600080fd5b853594506020860135935060408601356001600160401b03811115613cd157600080fd5b613cdd88828901613734565b96999598509660600135949350505050565b60008060408385031215613d0257600080fd5b505080516020909101519092909150565b634e487b7160e01b600052601160045260246000fd5b818103818111156132fa576132fa613d13565b80820281158282048414176132fa576132fa613d13565b600082613d7057634e487b7160e01b600052601260045260246000fd5b500490565b634e487b7160e01b600052603260045260246000fd5b6020808252601e908201527f44697370757465206a756d70656420746f206120706172656e7420444b210000604082015260600190565b81835260006001600160fb1b03831115613ddb57600080fd5b8260051b80836020870137939093016020019392505050565b848152606060208201526000613e0e606083018587613dc2565b905082604083015295945050505050565b81835281816020850137506000828201602090810191909152601f909101601f19169091010190565b83815260406020820152600061076e604083018486613e1f565b80516001600160601b0381168114613e7957600080fd5b919050565b80518015158114613e7957600080fd5b600080600080600060a08688031215613ea657600080fd5b613eaf86613e62565b94506020860151613ebf8161392e565b604087015190945060058110613ed457600080fd5b9250613ee260608701613e7e565b9150608086015190509295509295909350565b634e487b7160e01b600052602160045260246000fd5b600060208284031215613f1d57600080fd5b613a8d82613e7e565b600080600060608486031215613f3b57600080fd5b83519250613f4b60208501613e7e565b9150613f5960408501613e7e565b90509250925092565b808201808211156132fa576132fa613d13565b600060208284031215613f8757600080fd5b5051919050565b600181811c90821680613fa257607f821691505b602082108103613fc257634e487b7160e01b600052602260045260246000fd5b50919050565b838152600060208460208401526060604084015260008454613fe981613f8e565b806060870152608060018084166000811461400b576001811461402757614057565b60ff19851660808a0152608084151560051b8a01019550614057565b89600052602060002060005b8581101561404e5781548b8201860152908301908801614033565b8a016080019650505b50939a9950505050505050505050565b60008251614079818460208701613a2a565b9190910192915050565b6020808252601f908201527f5468652063616c6c65722068617320746f206f776e2074686520766f74652e00604082015260600190565b6040815260006140ce604083018587613dc2565b9050826020830152949350505050565b600080600080600080600060e0888a0312156140f957600080fd5b61410288613e62565b965061411060208901613e7e565b955060408801519450606088015193506080880151925060a0880151915061413a60c08901613e7e565b905092959891949750929550565b60208082526022908201527f416363657373206e6f7420616c6c6f7765643a20476f7665726e6f72206f6e6c6040820152613c9760f11b606082015260800190565b60408152600061419e604083018587613dc2565b82810360208401526141b08185613a4e565b9695505050505050565b60208082526024908201527f416363657373206e6f7420616c6c6f7765643a204b6c65726f73436f7265206f60408201526337363c9760e11b606082015260800190565b601f821115611b24576000816000526020600020601f850160051c810160208610156142275750805b601f850160051c820191505b8181101561424657828155600101614233565b505050505050565b6001600160401b0383111561426557614265613801565b614279836142738354613f8e565b836141fe565b6000601f8411600181146142ad57600085156142955750838201355b600019600387901b1c1916600186901b178355614307565b600083815260209020601f19861690835b828110156142de57868501358255602094850194600190920191016142be565b50868210156142fb5760001960f88860031b161c19848701351681555b505060018560011b0183555b5050505050565b60006020828403121561432057600080fd5b8151613a8d8161392e565b600082601f83011261433c57600080fd5b815160206001600160401b0382111561435757614357613801565b8160051b614366828201613840565b928352848101820192828101908785111561438057600080fd5b83870192505b848310156143a85782516143998161392e565b82529183019190830190614386565b979650505050505050565b8051613e798161392e565b6000602082840312156143d057600080fd5b81516001600160401b03808211156143e757600080fd5b9083019061016082860312156143fc57600080fd5b614404613817565b825181526020830151602082015260408301516040820152606083015160608201526080830151608082015260a083015160a082015260c08301518281111561444c57600080fd5b6144588782860161432b565b60c08301525060e08381015190820152610100808401519082015261012091506144838284016143b3565b9181019190915261014091820151918101919091529392505050565b600080600080608085870312156144b557600080fd5b50508251602084015160408501516060909501519196909550909250905056fe360894a13ba1a3210667c828492db98dca3e2076cc3735a920a3ca505d382bbca26469706673582212202ec8f9386176b2ca726899fd0a6a21acb3ebb48958caaa7e6fab6be5a1dfa56f64736f6c63430008180033",
  "devdoc": {
    "errors": {
      "AlreadyInitialized()": [
        {
          "details": "The contract is already initialized."
        }
      ],
      "InvalidImplementation(address)": [
        {
          "details": "The `implementation` is not UUPS-compliant"
        }
      ],
      "NotInitializing()": [
        {
          "details": "The contract is not initializing."
        }
      ],
      "UUPSUnauthorizedCallContext()": [
        {
          "details": "The call is from an unauthorized context."
        }
      ],
      "UUPSUnsupportedProxiableUUID(bytes32)": [
        {
          "details": "The storage `slot` is unsupported as a UUID."
        }
      ]
    },
    "events": {
      "ChoiceFunded(uint256,uint256,uint256)": {
        "details": "To be emitted when a choice is fully funded for an appeal.",
        "params": {
          "_choice": "The choice that is being funded.",
          "_coreDisputeID": "The identifier of the dispute in the Arbitrator contract.",
          "_coreRoundID": "The identifier of the round in the Arbitrator contract."
        }
      },
      "CommitCast(uint256,address,uint256[],bytes32)": {
        "details": "To be emitted when a vote commitment is cast.",
        "params": {
          "_commit": "The commitment of the juror.",
          "_coreDisputeID": "The identifier of the dispute in the Arbitrator contract.",
          "_juror": "The address of the juror casting the vote commitment.",
          "_voteIDs": "The identifiers of the votes in the dispute."
        }
      },
      "CommitCastShutter(bytes32,bytes32,bytes)": {
        "details": "Emitted when a vote is cast.",
        "params": {
          "_commit": "The commitment hash.",
          "_encryptedVote": "The Shutter encrypted vote.",
          "_identity": "The Shutter identity used for encryption."
        }
      },
      "Contribution(uint256,uint256,uint256,address,uint256)": {
        "details": "To be emitted when a funding contribution is made.",
        "params": {
          "_amount": "The amount contributed.",
          "_choice": "The choice that is being funded.",
          "_contributor": "The address of the contributor.",
          "_coreDisputeID": "The identifier of the dispute in the Arbitrator contract.",
          "_coreRoundID": "The identifier of the round in the Arbitrator contract."
        }
      },
      "DisputeCreation(uint256,uint256,bytes)": {
        "details": "To be emitted when a dispute is created.",
        "params": {
          "_coreDisputeID": "The identifier of the dispute in the Arbitrator contract.",
          "_extraData": "The extra data for the dispute.",
          "_numberOfChoices": "The number of choices available in the dispute."
        }
      },
      "Initialized(uint64)": {
        "details": "Triggered when the contract has been initialized or reinitialized."
      },
      "Upgraded(address)": {
        "details": "Emitted when the `implementation` has been successfully upgraded.",
        "params": {
          "newImplementation": "Address of the new implementation the proxy is now forwarding calls to."
        }
      },
      "VoteCast(uint256,address,uint256[],uint256,string)": {
        "details": "Emitted when casting a vote to provide the justification of juror's choice.",
        "params": {
          "_choice": "The choice juror voted for.",
          "_coreDisputeID": "The identifier of the dispute in the Arbitrator contract.",
          "_juror": "Address of the juror.",
          "_justification": "Justification of the choice.",
          "_voteIDs": "The identifiers of the votes in the dispute."
        }
      },
      "Withdrawal(uint256,uint256,uint256,address,uint256)": {
        "details": "To be emitted when the contributed funds are withdrawn.",
        "params": {
          "_amount": "The amount withdrawn.",
          "_choice": "The choice that is being funded.",
          "_contributor": "The address of the contributor.",
          "_coreDisputeID": "The identifier of the dispute in the Arbitrator contract.",
          "_coreRoundID": "The identifier of the round in the Arbitrator contract."
        }
      }
    },
    "kind": "dev",
    "methods": {
      "areCommitsAllCast(uint256)": {
        "details": "Returns true if all of the jurors have cast their commits for the last round.",
        "params": {
          "_coreDisputeID": "The ID of the dispute in Kleros Core."
        },
        "returns": {
          "_0": "Whether all of the jurors have cast their commits for the last round."
        }
      },
      "areVotesAllCast(uint256)": {
        "details": "Returns true if all of the jurors have cast their votes for the last round. Note that this function is to be called directly by the core contract and is not for off-chain usage.",
        "params": {
          "_coreDisputeID": "The ID of the dispute in Kleros Core."
        },
        "returns": {
          "_0": "Whether all of the jurors have cast their votes for the last round."
        }
      },
      "castCommit(uint256,uint256[],bytes32)": {
        "details": "Sets the caller's commit for the specified votes. It can be called multiple times during the commit period, each call overrides the commits of the previous one. `O(n)` where `n` is the number of votes.",
        "params": {
          "_commit": "The commitment hash.",
          "_coreDisputeID": "The ID of the dispute in Kleros Core.",
          "_voteIDs": "The IDs of the votes."
        }
      },
      "castCommitShutter(uint256,uint256[],bytes32,bytes32,bytes)": {
        "details": "Sets the caller's commit for the specified votes. It can be called multiple times during the commit period, each call overrides the commits of the previous one. `O(n)` where `n` is the number of votes.",
        "params": {
          "_commit": "The commitment hash including the justification.",
          "_coreDisputeID": "The ID of the dispute in Kleros Core.",
          "_encryptedVote": "The Shutter encrypted vote.",
          "_identity": "The Shutter identity used for encryption.",
          "_voteIDs": "The IDs of the votes."
        }
      },
      "castVote(uint256,uint256[],uint256,uint256,string)": {
        "details": "Sets the caller's choices for the specified votes. `O(n)` where `n` is the number of votes.",
        "params": {
          "_choice": "The choice.",
          "_coreDisputeID": "The ID of the dispute in Kleros Core.",
          "_justification": "Justification of the choice.",
          "_salt": "The salt for the commit if the votes were hidden.",
          "_voteIDs": "The IDs of the votes."
        }
      },
      "changeCore(address)": {
        "details": "Changes the `core` storage variable.",
        "params": {
          "_core": "The new value for the `core` storage variable."
        }
      },
      "changeGovernor(address)": {
        "details": "Changes the `governor` storage variable.",
        "params": {
          "_governor": "The new value for the `governor` storage variable."
        }
      },
      "constructor": {
        "custom:oz-upgrades-unsafe-allow": "constructor"
      },
      "createDispute(uint256,uint256,bytes,uint256)": {
        "details": "Creates a local dispute and maps it to the dispute ID in the Core contract. Note: Access restricted to Kleros Core only.",
        "params": {
          "_coreDisputeID": "The ID of the dispute in Kleros Core.",
          "_extraData": "Additional info about the dispute, for possible use in future dispute kits.",
          "_nbVotes": "Number of votes for this dispute.",
          "_numberOfChoices": "Number of choices of the dispute"
        }
      },
      "currentRuling(uint256)": {
        "details": "Gets the current ruling of a specified dispute.",
        "params": {
          "_coreDisputeID": "The ID of the dispute in Kleros Core."
        },
        "returns": {
          "overridden": "Whether the ruling was overridden by appeal funding or not.",
          "ruling": "The current ruling.",
          "tied": "Whether it's a tie or not."
        }
      },
      "draw(uint256,uint256)": {
        "details": "Draws the juror from the sortition tree. The drawn address is picked up by Kleros Core. Note: Access restricted to Kleros Core only.",
        "params": {
          "_coreDisputeID": "The ID of the dispute in Kleros Core.",
          "_nonce": "Nonce of the drawing iteration."
        },
        "returns": {
          "drawnAddress": "The drawn address."
        }
      },
      "executeGovernorProposal(address,uint256,bytes)": {
        "details": "Allows the governor to call anything on behalf of the contract.",
        "params": {
          "_amount": "The value sent with the call.",
          "_data": "The data sent with the call.",
          "_destination": "The destination of the call."
        }
      },
      "fundAppeal(uint256,uint256)": {
        "details": "Manages contributions, and appeals a dispute if at least two choices are fully funded. Note that the surplus deposit will be reimbursed.",
        "params": {
          "_choice": "A choice that receives funding.",
          "_coreDisputeID": "Index of the dispute in Kleros Core."
        }
      },
      "getCoherentCount(uint256,uint256)": {
        "details": "Gets the number of jurors who are eligible to a reward in this round.",
        "params": {
          "_coreDisputeID": "The ID of the dispute in Kleros Core, not in the Dispute Kit.",
          "_coreRoundID": "The ID of the round in Kleros Core, not in the Dispute Kit."
        },
        "returns": {
          "_0": "The number of coherent jurors."
        }
      },
      "getDegreeOfCoherence(uint256,uint256,uint256,uint256,uint256)": {
        "details": "Gets the degree of coherence of a particular voter. This function is called by Kleros Core in order to determine the amount of the reward.",
        "params": {
          "_coreDisputeID": "The ID of the dispute in Kleros Core, not in the Dispute Kit.",
          "_coreRoundID": "The ID of the round in Kleros Core, not in the Dispute Kit.",
          "_voteID": "The ID of the vote."
        },
        "returns": {
          "_0": "The degree of coherence in basis points."
        }
      },
      "hashVote(uint256,uint256,string)": {
        "details": "Computes the hash of a vote using ABI encoding",
        "params": {
          "_choice": "The choice being voted for",
          "_justification": "The justification for the vote",
          "_salt": "A random salt for commitment"
        },
        "returns": {
          "_0": "bytes32 The hash of the encoded vote parameters"
        }
      },
      "initialize(address,address)": {
        "details": "Initializer.",
        "params": {
          "_core": "The KlerosCore arbitrator.",
          "_governor": "The governor's address."
        }
      },
      "isAppealFunded(uint256)": {
        "details": "Returns true if the appeal funding is finished prematurely (e.g. when losing side didn't fund). Note that this function is to be called directly by the core contract and is not for off-chain usage.",
        "params": {
          "_coreDisputeID": "The ID of the dispute in Kleros Core, not in the Dispute Kit."
        },
        "returns": {
          "_0": "Whether the appeal funding is finished."
        }
      },
      "isVoteActive(uint256,uint256,uint256)": {
        "details": "Returns true if the specified voter was active in this round.",
        "params": {
          "_coreDisputeID": "The ID of the dispute in Kleros Core, not in the Dispute Kit.",
          "_coreRoundID": "The ID of the round in Kleros Core, not in the Dispute Kit.",
          "_voteID": "The ID of the voter."
        },
        "returns": {
          "_0": "Whether the voter was active or not."
        }
      },
      "proxiableUUID()": {
        "details": "Implementation of the ERC1822 `proxiableUUID` function. This returns the storage slot used by the implementation. It is used to validate the implementation's compatibility when performing an upgrade. IMPORTANT: A proxy pointing at a proxiable contract should not be considered proxiable itself, because this risks bricking a proxy that upgrades to it, by delegating to itself until out of gas. Thus it is critical that this function revert if invoked through a proxy. This is guaranteed by the if statement."
      },
      "upgradeToAndCall(address,bytes)": {
        "details": "Upgrade mechanism including access control and UUPS-compliance.Reverts if the execution is not performed via delegatecall or the execution context is not of a proxy with an ERC1967-compliant implementation pointing to self.",
        "params": {
          "data": "Data used in a delegate call to `newImplementation` if non-empty. This will typically be an encoded function call, and allows initializing the storage of the proxy like a Solidity constructor.",
          "newImplementation": "Address of the new implementation contract."
        }
      },
      "withdrawFeesAndRewards(uint256,address,uint256,uint256)": {
        "details": "Allows those contributors who attempted to fund an appeal round to withdraw any reimbursable fees or rewards after the dispute gets resolved. Note that withdrawals are not possible if the core contract is paused.",
        "params": {
          "_beneficiary": "The address whose rewards to withdraw.",
          "_choice": "The ruling option that the caller wants to withdraw from.",
          "_coreDisputeID": "Index of the dispute in Kleros Core contract.",
          "_coreRoundID": "The round in the Kleros Core contract the caller wants to withdraw from."
        },
        "returns": {
          "amount": "The withdrawn amount."
        }
      }
    },
    "stateVariables": {
      "version": {
        "details": "Returns the version of the implementation.",
        "return": "Version string.",
        "returns": {
          "_0": "Version string."
        }
      }
    },
    "title": "DisputeKitShutter Dispute kit implementation of the Kleros v1 features including: - a drawing system: proportional to staked PNK, - a vote aggregation system: plurality, - an incentive system: equal split between coherent votes, - an appeal system: fund 2 choices only, vote on any choice. Added functionality: an Shutter-specific event emitted when a vote is cast.",
    "version": 1
  },
  "userdoc": {
    "errors": {
      "FailedDelegateCall()": [
        {
          "notice": "Failed Delegated call"
        }
      ]
    },
    "kind": "user",
    "methods": {},
    "version": 1
  },
  "storageLayout": {
    "storage": [
      {
        "astId": 3889,
        "contract": "src/arbitration/dispute-kits/DisputeKitShutter.sol:DisputeKitShutter",
        "label": "governor",
        "offset": 0,
        "slot": "0",
        "type": "t_address"
      },
      {
        "astId": 3892,
        "contract": "src/arbitration/dispute-kits/DisputeKitShutter.sol:DisputeKitShutter",
        "label": "core",
        "offset": 0,
        "slot": "1",
        "type": "t_contract(KlerosCore)165"
      },
      {
        "astId": 3896,
        "contract": "src/arbitration/dispute-kits/DisputeKitShutter.sol:DisputeKitShutter",
        "label": "disputes",
        "offset": 0,
        "slot": "2",
        "type": "t_array(t_struct(Dispute)3824_storage)dyn_storage"
      },
      {
        "astId": 3900,
        "contract": "src/arbitration/dispute-kits/DisputeKitShutter.sol:DisputeKitShutter",
        "label": "coreDisputeIDToLocal",
        "offset": 0,
        "slot": "3",
        "type": "t_mapping(t_uint256,t_uint256)"
      },
      {
        "astId": 3902,
        "contract": "src/arbitration/dispute-kits/DisputeKitShutter.sol:DisputeKitShutter",
        "label": "singleDrawPerJuror",
        "offset": 0,
        "slot": "4",
        "type": "t_bool"
      }
    ],
    "types": {
      "t_address": {
        "encoding": "inplace",
        "label": "address",
        "numberOfBytes": "20"
      },
      "t_array(t_struct(Dispute)3824_storage)dyn_storage": {
        "base": "t_struct(Dispute)3824_storage",
        "encoding": "dynamic_array",
        "label": "struct DisputeKitClassicBase.Dispute[]",
        "numberOfBytes": "32"
      },
      "t_array(t_struct(Round)3866_storage)dyn_storage": {
        "base": "t_struct(Round)3866_storage",
        "encoding": "dynamic_array",
        "label": "struct DisputeKitClassicBase.Round[]",
        "numberOfBytes": "32"
      },
      "t_array(t_struct(Vote)3875_storage)dyn_storage": {
        "base": "t_struct(Vote)3875_storage",
        "encoding": "dynamic_array",
        "label": "struct DisputeKitClassicBase.Vote[]",
        "numberOfBytes": "32"
      },
      "t_array(t_uint256)dyn_storage": {
        "base": "t_uint256",
        "encoding": "dynamic_array",
        "label": "uint256[]",
        "numberOfBytes": "32"
      },
      "t_bool": {
        "encoding": "inplace",
        "label": "bool",
        "numberOfBytes": "1"
      },
      "t_bytes32": {
        "encoding": "inplace",
        "label": "bytes32",
        "numberOfBytes": "32"
      },
      "t_bytes_storage": {
        "encoding": "bytes",
        "label": "bytes",
        "numberOfBytes": "32"
      },
      "t_contract(KlerosCore)165": {
        "encoding": "inplace",
        "label": "contract KlerosCore",
        "numberOfBytes": "20"
      },
      "t_mapping(t_address,t_bool)": {
        "encoding": "mapping",
        "key": "t_address",
        "label": "mapping(address => bool)",
        "numberOfBytes": "32",
        "value": "t_bool"
      },
      "t_mapping(t_address,t_mapping(t_uint256,t_uint256))": {
        "encoding": "mapping",
        "key": "t_address",
        "label": "mapping(address => mapping(uint256 => uint256))",
        "numberOfBytes": "32",
        "value": "t_mapping(t_uint256,t_uint256)"
      },
      "t_mapping(t_uint256,t_bool)": {
        "encoding": "mapping",
        "key": "t_uint256",
        "label": "mapping(uint256 => bool)",
        "numberOfBytes": "32",
        "value": "t_bool"
      },
      "t_mapping(t_uint256,t_uint256)": {
        "encoding": "mapping",
        "key": "t_uint256",
        "label": "mapping(uint256 => uint256)",
        "numberOfBytes": "32",
        "value": "t_uint256"
      },
      "t_struct(Dispute)3824_storage": {
        "encoding": "inplace",
        "label": "struct DisputeKitClassicBase.Dispute",
        "members": [
          {
            "astId": 3813,
            "contract": "src/arbitration/dispute-kits/DisputeKitShutter.sol:DisputeKitShutter",
            "label": "rounds",
            "offset": 0,
            "slot": "0",
            "type": "t_array(t_struct(Round)3866_storage)dyn_storage"
          },
          {
            "astId": 3815,
            "contract": "src/arbitration/dispute-kits/DisputeKitShutter.sol:DisputeKitShutter",
            "label": "numberOfChoices",
            "offset": 0,
            "slot": "1",
            "type": "t_uint256"
          },
          {
            "astId": 3817,
            "contract": "src/arbitration/dispute-kits/DisputeKitShutter.sol:DisputeKitShutter",
            "label": "jumped",
            "offset": 0,
            "slot": "2",
            "type": "t_bool"
          },
          {
            "astId": 3821,
            "contract": "src/arbitration/dispute-kits/DisputeKitShutter.sol:DisputeKitShutter",
            "label": "coreRoundIDToLocal",
            "offset": 0,
            "slot": "3",
            "type": "t_mapping(t_uint256,t_uint256)"
          },
          {
            "astId": 3823,
            "contract": "src/arbitration/dispute-kits/DisputeKitShutter.sol:DisputeKitShutter",
            "label": "extraData",
            "offset": 0,
            "slot": "4",
            "type": "t_bytes_storage"
          }
        ],
        "numberOfBytes": "160"
      },
      "t_struct(Round)3866_storage": {
        "encoding": "inplace",
        "label": "struct DisputeKitClassicBase.Round",
        "members": [
          {
            "astId": 3828,
            "contract": "src/arbitration/dispute-kits/DisputeKitShutter.sol:DisputeKitShutter",
            "label": "votes",
            "offset": 0,
            "slot": "0",
            "type": "t_array(t_struct(Vote)3875_storage)dyn_storage"
          },
          {
            "astId": 3830,
            "contract": "src/arbitration/dispute-kits/DisputeKitShutter.sol:DisputeKitShutter",
            "label": "winningChoice",
            "offset": 0,
            "slot": "1",
            "type": "t_uint256"
          },
          {
            "astId": 3834,
            "contract": "src/arbitration/dispute-kits/DisputeKitShutter.sol:DisputeKitShutter",
            "label": "counts",
            "offset": 0,
            "slot": "2",
            "type": "t_mapping(t_uint256,t_uint256)"
          },
          {
            "astId": 3836,
            "contract": "src/arbitration/dispute-kits/DisputeKitShutter.sol:DisputeKitShutter",
            "label": "tied",
            "offset": 0,
            "slot": "3",
            "type": "t_bool"
          },
          {
            "astId": 3838,
            "contract": "src/arbitration/dispute-kits/DisputeKitShutter.sol:DisputeKitShutter",
            "label": "totalVoted",
            "offset": 0,
            "slot": "4",
            "type": "t_uint256"
          },
          {
            "astId": 3840,
            "contract": "src/arbitration/dispute-kits/DisputeKitShutter.sol:DisputeKitShutter",
            "label": "totalCommitted",
            "offset": 0,
            "slot": "5",
            "type": "t_uint256"
          },
          {
            "astId": 3844,
            "contract": "src/arbitration/dispute-kits/DisputeKitShutter.sol:DisputeKitShutter",
            "label": "paidFees",
            "offset": 0,
            "slot": "6",
            "type": "t_mapping(t_uint256,t_uint256)"
          },
          {
            "astId": 3848,
            "contract": "src/arbitration/dispute-kits/DisputeKitShutter.sol:DisputeKitShutter",
            "label": "hasPaid",
            "offset": 0,
            "slot": "7",
            "type": "t_mapping(t_uint256,t_bool)"
          },
          {
            "astId": 3854,
            "contract": "src/arbitration/dispute-kits/DisputeKitShutter.sol:DisputeKitShutter",
            "label": "contributions",
            "offset": 0,
            "slot": "8",
            "type": "t_mapping(t_address,t_mapping(t_uint256,t_uint256))"
          },
          {
            "astId": 3856,
            "contract": "src/arbitration/dispute-kits/DisputeKitShutter.sol:DisputeKitShutter",
            "label": "feeRewards",
            "offset": 0,
            "slot": "9",
            "type": "t_uint256"
          },
          {
            "astId": 3859,
            "contract": "src/arbitration/dispute-kits/DisputeKitShutter.sol:DisputeKitShutter",
            "label": "fundedChoices",
            "offset": 0,
            "slot": "10",
            "type": "t_array(t_uint256)dyn_storage"
          },
          {
            "astId": 3861,
            "contract": "src/arbitration/dispute-kits/DisputeKitShutter.sol:DisputeKitShutter",
            "label": "nbVotes",
            "offset": 0,
            "slot": "11",
            "type": "t_uint256"
          },
          {
            "astId": 3865,
            "contract": "src/arbitration/dispute-kits/DisputeKitShutter.sol:DisputeKitShutter",
            "label": "alreadyDrawn",
            "offset": 0,
            "slot": "12",
            "type": "t_mapping(t_address,t_bool)"
          }
        ],
        "numberOfBytes": "416"
      },
      "t_struct(Vote)3875_storage": {
        "encoding": "inplace",
        "label": "struct DisputeKitClassicBase.Vote",
        "members": [
          {
            "astId": 3868,
            "contract": "src/arbitration/dispute-kits/DisputeKitShutter.sol:DisputeKitShutter",
            "label": "account",
            "offset": 0,
            "slot": "0",
            "type": "t_address"
          },
          {
            "astId": 3870,
            "contract": "src/arbitration/dispute-kits/DisputeKitShutter.sol:DisputeKitShutter",
            "label": "commit",
            "offset": 0,
            "slot": "1",
            "type": "t_bytes32"
          },
          {
            "astId": 3872,
            "contract": "src/arbitration/dispute-kits/DisputeKitShutter.sol:DisputeKitShutter",
            "label": "choice",
            "offset": 0,
            "slot": "2",
            "type": "t_uint256"
          },
          {
            "astId": 3874,
            "contract": "src/arbitration/dispute-kits/DisputeKitShutter.sol:DisputeKitShutter",
            "label": "voted",
            "offset": 0,
            "slot": "3",
            "type": "t_bool"
          }
        ],
        "numberOfBytes": "128"
      },
      "t_uint256": {
        "encoding": "inplace",
        "label": "uint256",
        "numberOfBytes": "32"
      }
    }
  }
}