{
  "address": "0x692CC78F2570181FFB99297965FeAA8352ab12E8",
  "abi": [
    {
      "inputs": [],
      "stateMutability": "nonpayable",
      "type": "constructor"
    },
    {
      "inputs": [],
      "name": "AlreadyInitialized",
      "type": "error"
    },
    {
      "inputs": [],
      "name": "FailedDelegateCall",
      "type": "error"
    },
    {
      "inputs": [
        {
          "internalType": "address",
          "name": "implementation",
          "type": "address"
        }
      ],
      "name": "InvalidImplementation",
      "type": "error"
    },
    {
      "inputs": [],
      "name": "NotInitializing",
      "type": "error"
    },
    {
      "inputs": [],
      "name": "UUPSUnauthorizedCallContext",
      "type": "error"
    },
    {
      "inputs": [
        {
          "internalType": "bytes32",
          "name": "slot",
          "type": "bytes32"
        }
      ],
      "name": "UUPSUnsupportedProxiableUUID",
      "type": "error"
    },
    {
      "anonymous": false,
      "inputs": [
        {
          "indexed": true,
          "internalType": "uint256",
          "name": "_coreDisputeID",
          "type": "uint256"
        },
        {
          "indexed": true,
          "internalType": "uint256",
          "name": "_coreRoundID",
          "type": "uint256"
        },
        {
          "indexed": true,
          "internalType": "uint256",
          "name": "_choice",
          "type": "uint256"
        }
      ],
      "name": "ChoiceFunded",
      "type": "event"
    },
    {
      "anonymous": false,
      "inputs": [
        {
          "indexed": true,
          "internalType": "uint256",
          "name": "_coreDisputeID",
          "type": "uint256"
        },
        {
          "indexed": true,
          "internalType": "address",
          "name": "_juror",
          "type": "address"
        },
        {
          "indexed": false,
          "internalType": "uint256[]",
          "name": "_voteIDs",
          "type": "uint256[]"
        },
        {
          "indexed": false,
          "internalType": "bytes32",
          "name": "_commit",
          "type": "bytes32"
        }
      ],
      "name": "CommitCast",
      "type": "event"
    },
    {
      "anonymous": false,
      "inputs": [
        {
          "indexed": true,
          "internalType": "uint256",
          "name": "_coreDisputeID",
          "type": "uint256"
        },
        {
          "indexed": true,
          "internalType": "uint256",
          "name": "_coreRoundID",
          "type": "uint256"
        },
        {
          "indexed": false,
          "internalType": "uint256",
          "name": "_choice",
          "type": "uint256"
        },
        {
          "indexed": true,
          "internalType": "address",
          "name": "_contributor",
          "type": "address"
        },
        {
          "indexed": false,
          "internalType": "uint256",
          "name": "_amount",
          "type": "uint256"
        }
      ],
      "name": "Contribution",
      "type": "event"
    },
    {
      "anonymous": false,
      "inputs": [
        {
          "indexed": true,
          "internalType": "uint256",
          "name": "_coreDisputeID",
          "type": "uint256"
        },
        {
          "indexed": false,
          "internalType": "uint256",
          "name": "_numberOfChoices",
          "type": "uint256"
        },
        {
          "indexed": false,
          "internalType": "bytes",
          "name": "_extraData",
          "type": "bytes"
        }
      ],
      "name": "DisputeCreation",
      "type": "event"
    },
    {
      "anonymous": false,
      "inputs": [
        {
          "indexed": false,
          "internalType": "uint64",
          "name": "version",
          "type": "uint64"
        }
      ],
      "name": "Initialized",
      "type": "event"
    },
    {
      "anonymous": false,
      "inputs": [
        {
          "indexed": true,
          "internalType": "address",
          "name": "newImplementation",
          "type": "address"
        }
      ],
      "name": "Upgraded",
      "type": "event"
    },
    {
      "anonymous": false,
      "inputs": [
        {
          "indexed": true,
          "internalType": "uint256",
          "name": "_coreDisputeID",
          "type": "uint256"
        },
        {
          "indexed": true,
          "internalType": "address",
          "name": "_juror",
          "type": "address"
        },
        {
          "indexed": false,
          "internalType": "uint256[]",
          "name": "_voteIDs",
          "type": "uint256[]"
        },
        {
          "indexed": true,
          "internalType": "uint256",
          "name": "_choice",
          "type": "uint256"
        },
        {
          "indexed": false,
          "internalType": "string",
          "name": "_justification",
          "type": "string"
        }
      ],
      "name": "VoteCast",
      "type": "event"
    },
    {
      "anonymous": false,
      "inputs": [
        {
          "indexed": true,
          "internalType": "uint256",
          "name": "_coreDisputeID",
          "type": "uint256"
        },
        {
          "indexed": true,
          "internalType": "uint256",
          "name": "_coreRoundID",
          "type": "uint256"
        },
        {
          "indexed": false,
          "internalType": "uint256",
          "name": "_choice",
          "type": "uint256"
        },
        {
          "indexed": true,
          "internalType": "address",
          "name": "_contributor",
          "type": "address"
        },
        {
          "indexed": false,
          "internalType": "uint256",
          "name": "_amount",
          "type": "uint256"
        }
      ],
      "name": "Withdrawal",
      "type": "event"
    },
    {
      "inputs": [],
      "name": "LOSER_APPEAL_PERIOD_MULTIPLIER",
      "outputs": [
        {
          "internalType": "uint256",
          "name": "",
          "type": "uint256"
        }
      ],
      "stateMutability": "view",
      "type": "function"
    },
    {
      "inputs": [],
      "name": "LOSER_STAKE_MULTIPLIER",
      "outputs": [
        {
          "internalType": "uint256",
          "name": "",
          "type": "uint256"
        }
      ],
      "stateMutability": "view",
      "type": "function"
    },
    {
      "inputs": [],
      "name": "ONE_BASIS_POINT",
      "outputs": [
        {
          "internalType": "uint256",
          "name": "",
          "type": "uint256"
        }
      ],
      "stateMutability": "view",
      "type": "function"
    },
    {
      "inputs": [],
      "name": "WINNER_STAKE_MULTIPLIER",
      "outputs": [
        {
          "internalType": "uint256",
          "name": "",
          "type": "uint256"
        }
      ],
      "stateMutability": "view",
      "type": "function"
    },
    {
      "inputs": [
        {
          "internalType": "uint256",
          "name": "_coreDisputeID",
          "type": "uint256"
        }
      ],
      "name": "areCommitsAllCast",
      "outputs": [
        {
          "internalType": "bool",
          "name": "",
          "type": "bool"
        }
      ],
      "stateMutability": "view",
      "type": "function"
    },
    {
      "inputs": [
        {
          "internalType": "uint256",
          "name": "_coreDisputeID",
          "type": "uint256"
        }
      ],
      "name": "areVotesAllCast",
      "outputs": [
        {
          "internalType": "bool",
          "name": "",
          "type": "bool"
        }
      ],
      "stateMutability": "view",
      "type": "function"
    },
    {
      "inputs": [
        {
          "internalType": "uint256",
          "name": "_coreDisputeID",
          "type": "uint256"
        },
        {
          "internalType": "uint256[]",
          "name": "_voteIDs",
          "type": "uint256[]"
        },
        {
          "internalType": "bytes32",
          "name": "_commit",
          "type": "bytes32"
        }
      ],
      "name": "castCommit",
      "outputs": [],
      "stateMutability": "nonpayable",
      "type": "function"
    },
    {
      "inputs": [
        {
          "internalType": "uint256",
          "name": "_coreDisputeID",
          "type": "uint256"
        },
        {
          "internalType": "uint256[]",
          "name": "_voteIDs",
          "type": "uint256[]"
        },
        {
          "internalType": "uint256",
          "name": "_choice",
          "type": "uint256"
        },
        {
          "internalType": "uint256",
          "name": "_salt",
          "type": "uint256"
        },
        {
          "internalType": "string",
          "name": "_justification",
          "type": "string"
        }
      ],
      "name": "castVote",
      "outputs": [],
      "stateMutability": "nonpayable",
      "type": "function"
    },
    {
      "inputs": [
        {
          "internalType": "address",
          "name": "_core",
          "type": "address"
        }
      ],
      "name": "changeCore",
      "outputs": [],
      "stateMutability": "nonpayable",
      "type": "function"
    },
    {
      "inputs": [
        {
          "internalType": "address payable",
          "name": "_governor",
          "type": "address"
        }
      ],
      "name": "changeGovernor",
      "outputs": [],
      "stateMutability": "nonpayable",
      "type": "function"
    },
    {
      "inputs": [],
      "name": "core",
      "outputs": [
        {
          "internalType": "contract KlerosCore",
          "name": "",
          "type": "address"
        }
      ],
      "stateMutability": "view",
      "type": "function"
    },
    {
      "inputs": [
        {
          "internalType": "uint256",
          "name": "",
          "type": "uint256"
        }
      ],
      "name": "coreDisputeIDToLocal",
      "outputs": [
        {
          "internalType": "uint256",
          "name": "",
          "type": "uint256"
        }
      ],
      "stateMutability": "view",
      "type": "function"
    },
    {
      "inputs": [
        {
          "internalType": "uint256",
          "name": "_coreDisputeID",
          "type": "uint256"
        },
        {
          "internalType": "uint256",
          "name": "_numberOfChoices",
          "type": "uint256"
        },
        {
          "internalType": "bytes",
          "name": "_extraData",
          "type": "bytes"
        },
        {
          "internalType": "uint256",
          "name": "_nbVotes",
          "type": "uint256"
        }
      ],
      "name": "createDispute",
      "outputs": [],
      "stateMutability": "nonpayable",
      "type": "function"
    },
    {
      "inputs": [
        {
          "internalType": "uint256",
          "name": "_coreDisputeID",
          "type": "uint256"
        }
      ],
      "name": "currentRuling",
      "outputs": [
        {
          "internalType": "uint256",
          "name": "ruling",
          "type": "uint256"
        },
        {
          "internalType": "bool",
          "name": "tied",
          "type": "bool"
        },
        {
          "internalType": "bool",
          "name": "overridden",
          "type": "bool"
        }
      ],
      "stateMutability": "view",
      "type": "function"
    },
    {
      "inputs": [
        {
          "internalType": "uint256",
          "name": "",
          "type": "uint256"
        }
      ],
      "name": "disputes",
      "outputs": [
        {
          "internalType": "uint256",
          "name": "numberOfChoices",
          "type": "uint256"
        },
        {
          "internalType": "bool",
          "name": "jumped",
          "type": "bool"
        },
        {
          "internalType": "bytes",
          "name": "extraData",
          "type": "bytes"
        }
      ],
      "stateMutability": "view",
      "type": "function"
    },
    {
      "inputs": [
        {
          "internalType": "uint256",
          "name": "_coreDisputeID",
          "type": "uint256"
        },
        {
          "internalType": "uint256",
          "name": "_nonce",
          "type": "uint256"
        }
      ],
      "name": "draw",
      "outputs": [
        {
          "internalType": "address",
          "name": "drawnAddress",
          "type": "address"
        }
      ],
      "stateMutability": "nonpayable",
      "type": "function"
    },
    {
      "inputs": [
        {
          "internalType": "address",
          "name": "_destination",
          "type": "address"
        },
        {
          "internalType": "uint256",
          "name": "_amount",
          "type": "uint256"
        },
        {
          "internalType": "bytes",
          "name": "_data",
          "type": "bytes"
        }
      ],
      "name": "executeGovernorProposal",
      "outputs": [],
      "stateMutability": "nonpayable",
      "type": "function"
    },
    {
      "inputs": [
        {
          "internalType": "uint256",
          "name": "_coreDisputeID",
          "type": "uint256"
        },
        {
          "internalType": "uint256",
          "name": "_choice",
          "type": "uint256"
        }
      ],
      "name": "fundAppeal",
      "outputs": [],
      "stateMutability": "payable",
      "type": "function"
    },
    {
      "inputs": [
        {
          "internalType": "uint256",
          "name": "_coreDisputeID",
          "type": "uint256"
        },
        {
          "internalType": "uint256",
          "name": "_coreRoundID",
          "type": "uint256"
        }
      ],
      "name": "getCoherentCount",
      "outputs": [
        {
          "internalType": "uint256",
          "name": "",
          "type": "uint256"
        }
      ],
      "stateMutability": "view",
      "type": "function"
    },
    {
      "inputs": [
        {
          "internalType": "uint256",
          "name": "_coreDisputeID",
          "type": "uint256"
        },
        {
          "internalType": "uint256",
          "name": "_coreRoundID",
          "type": "uint256"
        },
        {
          "internalType": "uint256",
          "name": "_voteID",
          "type": "uint256"
        }
      ],
      "name": "getDegreeOfCoherence",
      "outputs": [
        {
          "internalType": "uint256",
          "name": "",
          "type": "uint256"
        }
      ],
      "stateMutability": "view",
      "type": "function"
    },
    {
      "inputs": [
        {
          "internalType": "uint256",
          "name": "_coreDisputeID",
          "type": "uint256"
        }
      ],
      "name": "getFundedChoices",
      "outputs": [
        {
          "internalType": "uint256[]",
          "name": "fundedChoices",
          "type": "uint256[]"
        }
      ],
      "stateMutability": "view",
      "type": "function"
    },
    {
      "inputs": [
        {
          "internalType": "uint256",
          "name": "_coreDisputeID",
          "type": "uint256"
        },
        {
          "internalType": "uint256",
          "name": "_coreRoundID",
          "type": "uint256"
        },
        {
          "internalType": "uint256",
          "name": "_choice",
          "type": "uint256"
        }
      ],
      "name": "getRoundInfo",
      "outputs": [
        {
          "internalType": "uint256",
          "name": "winningChoice",
          "type": "uint256"
        },
        {
          "internalType": "bool",
          "name": "tied",
          "type": "bool"
        },
        {
          "internalType": "uint256",
          "name": "totalVoted",
          "type": "uint256"
        },
        {
          "internalType": "uint256",
          "name": "totalCommited",
          "type": "uint256"
        },
        {
          "internalType": "uint256",
          "name": "nbVoters",
          "type": "uint256"
        },
        {
          "internalType": "uint256",
          "name": "choiceCount",
          "type": "uint256"
        }
      ],
      "stateMutability": "view",
      "type": "function"
    },
    {
      "inputs": [
        {
          "internalType": "uint256",
          "name": "_coreDisputeID",
          "type": "uint256"
        },
        {
          "internalType": "uint256",
          "name": "_coreRoundID",
          "type": "uint256"
        },
        {
          "internalType": "uint256",
          "name": "_voteID",
          "type": "uint256"
        }
      ],
      "name": "getVoteInfo",
      "outputs": [
        {
          "internalType": "address",
          "name": "account",
          "type": "address"
        },
        {
          "internalType": "bytes32",
          "name": "commit",
          "type": "bytes32"
        },
        {
          "internalType": "uint256",
          "name": "choice",
          "type": "uint256"
        },
        {
          "internalType": "bool",
          "name": "voted",
          "type": "bool"
        }
      ],
      "stateMutability": "view",
      "type": "function"
    },
    {
      "inputs": [],
      "name": "governor",
      "outputs": [
        {
          "internalType": "address",
          "name": "",
          "type": "address"
        }
      ],
      "stateMutability": "view",
      "type": "function"
    },
    {
      "inputs": [
        {
          "internalType": "address",
          "name": "_governor",
          "type": "address"
        },
        {
          "internalType": "contract KlerosCore",
          "name": "_core",
          "type": "address"
        }
      ],
      "name": "initialize",
      "outputs": [],
      "stateMutability": "nonpayable",
      "type": "function"
    },
    {
      "inputs": [
        {
          "internalType": "uint256",
          "name": "_coreDisputeID",
          "type": "uint256"
        },
        {
          "internalType": "uint256",
          "name": "_coreRoundID",
          "type": "uint256"
        },
        {
          "internalType": "uint256",
          "name": "_voteID",
          "type": "uint256"
        }
      ],
      "name": "isVoteActive",
      "outputs": [
        {
          "internalType": "bool",
          "name": "",
          "type": "bool"
        }
      ],
      "stateMutability": "view",
      "type": "function"
    },
    {
      "inputs": [],
      "name": "proxiableUUID",
      "outputs": [
        {
          "internalType": "bytes32",
          "name": "",
          "type": "bytes32"
        }
      ],
      "stateMutability": "view",
      "type": "function"
    },
    {
      "inputs": [
        {
          "internalType": "address",
          "name": "newImplementation",
          "type": "address"
        },
        {
          "internalType": "bytes",
          "name": "data",
          "type": "bytes"
        }
      ],
      "name": "upgradeToAndCall",
      "outputs": [],
      "stateMutability": "payable",
      "type": "function"
    },
    {
      "inputs": [
        {
          "internalType": "uint256",
          "name": "_coreDisputeID",
          "type": "uint256"
        },
        {
          "internalType": "address payable",
          "name": "_beneficiary",
          "type": "address"
        },
        {
          "internalType": "uint256",
          "name": "_coreRoundID",
          "type": "uint256"
        },
        {
          "internalType": "uint256",
          "name": "_choice",
          "type": "uint256"
        }
      ],
      "name": "withdrawFeesAndRewards",
      "outputs": [
        {
          "internalType": "uint256",
          "name": "amount",
          "type": "uint256"
        }
      ],
      "stateMutability": "nonpayable",
      "type": "function"
    }
  ],
  "transactionHash": "0x94bdfd10ea04ecb57b76acbdce19b6d0cd72bde1173b32284dbcf3e2fbb24b68",
  "args": [],
  "numDeployments": 1,
  "solcInputHash": "4ee8a1f2013c130bec1668c5304bc76a",
  "bytecode": "0x60a0604052306080523480156200001557600080fd5b506200002062000026565b620000d9565b7ff0c57e16840df040f15088dc2f81fe391c3923bec73e23a9662efc9c229c6a0e805468010000000000000000900460ff1615620000765760405162dc149f60e41b815260040160405180910390fd5b80546001600160401b0390811614620000d65780546001600160401b0319166001600160401b0390811782556040519081527fc7f505b2f371ae2175ee4913f4499e1f2633a7b5936321eed1cdaeb6115181d29060200160405180910390a15b50565b608051613dfb62000103600039600081816114d3015281816114fc01526118370152613dfb6000f3fe6080604052600436106101825760003560e01c80636d4cd8ea116100d7578063b6ede54011610085578063b6ede540146104ca578063ba66fde7146104ea578063be4676041461050a578063d2b8035a14610520578063da3beb8c14610540578063e349ad3014610412578063e4c0aaf414610560578063f2f4eb261461058057600080fd5b80636d4cd8ea146103d2578063751accd0146103f2578063796490f9146104125780637c04034e146104285780638e42646014610448578063a7cc08fe14610468578063b34bfaa8146104b457600080fd5b80634f1ef286116101345780634f1ef286146102c15780634fe264fb146102d457806352d1902d146102f4578063564a565d146103095780635c92e2f61461033857806365540b961461035857806369f3f0411461038557600080fd5b80630baa64d1146101875780630c340a24146101bc5780631200aabc146101f45780631c3db16d1461022f578063362c34791461026c578063485cc9551461028c5780634b2f0ea0146102ae575b600080fd5b34801561019357600080fd5b506101a76101a23660046130cf565b6105a0565b60405190151581526020015b60405180910390f35b3480156101c857600080fd5b506000546101dc906001600160a01b031681565b6040516001600160a01b0390911681526020016101b3565b34801561020057600080fd5b5061022161020f3660046130cf565b60036020526000908152604090205481565b6040519081526020016101b3565b34801561023b57600080fd5b5061024f61024a3660046130cf565b610617565b6040805193845291151560208401521515908201526060016101b3565b34801561027857600080fd5b506102216102873660046130fd565b610785565b34801561029857600080fd5b506102ac6102a736600461313a565b610b5b565b005b6102ac6102bc366004613173565b610c58565b6102ac6102cf36600461327b565b6114bf565b3480156102e057600080fd5b506102216102ef3660046132ca565b6116e7565b34801561030057600080fd5b5061022161182a565b34801561031557600080fd5b506103296103243660046130cf565b611888565b6040516101b393929190613346565b34801561034457600080fd5b506102ac6103533660046133bb565b61194e565b34801561036457600080fd5b506103786103733660046130cf565b611c5b565b6040516101b3919061340d565b34801561039157600080fd5b506103a56103a03660046132ca565b611d1f565b604080519687529415156020870152938501929092526060840152608083015260a082015260c0016101b3565b3480156103de57600080fd5b506101a76103ed3660046130cf565b611dd7565b3480156103fe57600080fd5b506102ac61040d366004613451565b611e4e565b34801561041e57600080fd5b5061022161271081565b34801561043457600080fd5b506102ac6104433660046134a9565b611f1a565b34801561045457600080fd5b506102ac610463366004613541565b6125f5565b34801561047457600080fd5b506104886104833660046132ca565b612641565b604080516001600160a01b039095168552602085019390935291830152151560608201526080016101b3565b3480156104c057600080fd5b50610221614e2081565b3480156104d657600080fd5b506102ac6104e536600461355e565b612707565b3480156104f657600080fd5b506101a76105053660046132ca565b6128dc565b34801561051657600080fd5b5061022161138881565b34801561052c57600080fd5b506101dc61053b366004613173565b612977565b34801561054c57600080fd5b5061022161055b366004613173565b612c80565b34801561056c57600080fd5b506102ac61057b366004613541565b612dd3565b34801561058c57600080fd5b506001546101dc906001600160a01b031681565b6000818152600360205260408120546002805483929081106105c4576105c46135e5565b600091825260208220600590910201805490925082906105e690600190613611565b815481106105f6576105f66135e5565b60009182526020909120600c90910201805460059091015414949350505050565b6000806000806002600360008781526020019081526020016000205481548110610643576106436135e5565b6000918252602082206005909102018054909250829061066590600190613611565b81548110610675576106756135e5565b60009182526020909120600c90910201600381015460ff1694509050836106a05780600101546106a3565b60005b60015460405163564a565d60e01b8152600481018990529196506000916001600160a01b039091169063564a565d9060240160a060405180830381865afa1580156106f2573d6000803e3d6000fd5b505050506040513d601f19601f820116820180604052508101906107169190613650565b5090935060049250610726915050565b816004811115610738576107386136b7565b0361077b57600061074888611c5b565b905080516001036107795780600081518110610766576107666135e5565b6020026020010151965060009550600194505b505b5050509193909250565b60015460405163564a565d60e01b81526004810186905260009182916001600160a01b039091169063564a565d9060240160a060405180830381865afa1580156107d3573d6000803e3d6000fd5b505050506040513d601f19601f820116820180604052508101906107f79190613650565b5093505050508061084f5760405162461bcd60e51b815260206004820152601b60248201527f446973707574652073686f756c64206265207265736f6c7665642e000000000060448201526064015b60405180910390fd5b600086815260036020526040812054600280549091908110610873576108736135e5565b600091825260208083208884526003600590930201918201905260408220548154919350839181106108a7576108a76135e5565b600091825260208220600154604051631c3db16d60e01b8152600481018d9052600c9390930290910193506001600160a01b031690631c3db16d90602401606060405180830381865afa158015610902573d6000803e3d6000fd5b505050506040513d601f19601f8201168201806040525081019061092691906136cd565b5050600087815260078401602052604090205490915060ff16610970576001600160a01b038816600090815260088301602090815260408083208984529091529020549450610ab5565b8086036109e55760008681526006830160205260409020546109935760006109de565b600086815260068301602090815260408083205460098601546001600160a01b038d1685526008870184528285208b86529093529220546109d49190613709565b6109de9190613720565b9450610ab5565b600081815260078301602052604090205460ff16610ab55781600601600083600a01600181548110610a1957610a196135e5565b906000526020600020015481526020019081526020016000205482600601600084600a01600081548110610a4f57610a4f6135e5565b9060005260206000200154815260200190815260200160002054610a739190613742565b60098301546001600160a01b038a16600090815260088501602090815260408083208b8452909152902054610aa89190613709565b610ab29190613720565b94505b6001600160a01b038816600090815260088301602090815260408083208984529091528120558415610b4f576040516001600160a01b0389169086156108fc029087906000818181858888f15050604080518a8152602081018a90526001600160a01b038d1694508b93508d92507f54b3cab3cb5c4aca3209db1151caff092e878011202e43a36782d4ebe0b963ae910160405180910390a45b50505050949350505050565b7ff0c57e16840df040f15088dc2f81fe391c3923bec73e23a9662efc9c229c6a0e805460019190600160401b900460ff1680610ba4575080546001600160401b03808416911610155b15610bc15760405162dc149f60e41b815260040160405180910390fd5b805468ffffffffffffffffff19166001600160401b038316908117600160401b178255600080546001600160a01b038781166001600160a01b0319928316179092556001805492871692909116919091179055815460ff60401b191682556040519081527fc7f505b2f371ae2175ee4913f4499e1f2633a7b5936321eed1cdaeb6115181d29060200160405180910390a150505050565b600082815260036020526040902054600280548492908110610c7c57610c7c6135e5565b600091825260209091206002600590920201015460ff1615610cb05760405162461bcd60e51b815260040161084690613755565b600083815260036020526040812054600280549091908110610cd457610cd46135e5565b906000526020600020906005020190508060010154831115610d385760405162461bcd60e51b815260206004820181905260248201527f5468657265206973206e6f20737563682072756c696e6720746f2066756e642e6044820152606401610846565b60015460405163afe15cfb60e01b81526004810186905260009182916001600160a01b039091169063afe15cfb906024016040805180830381865afa158015610d85573d6000803e3d6000fd5b505050506040513d601f19601f82011682018060405250810190610da9919061378c565b91509150814210158015610dbc57508042105b610e015760405162461bcd60e51b815260206004820152601660248201527520b83832b0b6103832b934b7b21034b99037bb32b91760511b6044820152606401610846565b604051631c3db16d60e01b81526004810187905260009081903090631c3db16d90602401606060405180830381865afa158015610e42573d6000803e3d6000fd5b505050506040513d601f19601f82011682018060405250810190610e6691906136cd565b50509050868103610e7b576127109150610efc565b612710611388610e8b8686613611565b610e959190613709565b610e9f9190613720565b610ea98542613611565b10610ef65760405162461bcd60e51b815260206004820152601f60248201527f41707065616c20706572696f64206973206f76657220666f72206c6f736572006044820152606401610846565b614e2091505b84546000908690610f0f90600190613611565b81548110610f1f57610f1f6135e5565b60009182526020822060018054604051637e37c78b60e11b8152600481018f9052600c949094029092019450916001600160a01b039091169063fc6f8f1690602401602060405180830381865afa158015610f7e573d6000803e3d6000fd5b505050506040513d601f19601f82011682018060405250810190610fa291906137b0565b610fac9190613611565b60008a815260078401602052604090205490915060ff16156110105760405162461bcd60e51b815260206004820152601b60248201527f41707065616c2066656520697320616c726561647920706169642e00000000006044820152606401610846565b600154604051632cf6413f60e11b8152600481018c90526000916001600160a01b0316906359ec827e90602401602060405180830381865afa15801561105a573d6000803e3d6000fd5b505050506040513d601f19601f8201168201806040525081019061107e91906137b0565b9050600061271061108f8784613709565b6110999190613720565b6110a39083613742565b60008c8152600686016020526040812054919250908211156111545760008c815260068601602052604090205434906110dc9084613611565b116111015760008c81526006860160205260409020546110fc9083613611565b611103565b345b9050336001600160a01b0316848e7fcae597f39a3ad75c2e10d46b031f023c5c2babcd58ca0491b122acda3968d4c08f8560405161114b929190918252602082015260400190565b60405180910390a45b33600090815260088601602090815260408083208f845290915281208054839290611180908490613742565b909155505060008c8152600686016020526040812080548392906111a5908490613742565b909155505060008c815260068601602052604090205482116112775760008c8152600686016020526040812054600987018054919290916111e7908490613742565b9250508190555084600a018c908060018154018082558091505060019003906000526020600020016000909190919091505560018560070160008e815260200190815260200160002060006101000a81548160ff0219169083151502179055508b848e7fed764996238e4c1c873ae3af7ae2f00f1f6f4f10b9ac7d4bbea4a764c5dea00960405160405180910390a45b600a85015460011015611482578285600901546112949190613611565b60098601556001546040516319b8152960e01b8152600481018f90526001600160a01b03909116906319b8152990602401602060405180830381865afa1580156112e2573d6000803e3d6000fd5b505050506040513d601f19601f8201168201806040525081019061130691906137c9565b1561131f5760028a01805460ff19166001179055611402565b895460038b016000611332876001613742565b81526020019081526020016000208190555060008a6000016001816001815401808255809150500390600052602060002090600c02019050600160009054906101000a90046001600160a01b03166001600160a01b031663c71f42538f6040518263ffffffff1660e01b81526004016113ad91815260200190565b602060405180830381865afa1580156113ca573d6000803e3d6000fd5b505050506040513d601f19601f820116820180604052508101906113ee91906137b0565b600b820155600301805460ff191660011790555b600160009054906101000a90046001600160a01b03166001600160a01b031663c3569902848f8d600101548e6004016040518563ffffffff1660e01b815260040161144f9392919061381e565b6000604051808303818588803b15801561146857600080fd5b505af115801561147c573d6000803e3d6000fd5b50505050505b803411156114b057336108fc6114988334613611565b6040518115909202916000818181858888f150505050505b50505050505050505050505050565b6114c882612e1f565b306001600160a01b037f000000000000000000000000000000000000000000000000000000000000000016148061154657507f00000000000000000000000000000000000000000000000000000000000000006001600160a01b031661153a600080516020613da68339815191525490565b6001600160a01b031614155b156115645760405163703e46dd60e11b815260040160405180910390fd5b816001600160a01b03166352d1902d6040518163ffffffff1660e01b8152600401602060405180830381865afa9250505080156115be575060408051601f3d908101601f191682019092526115bb918101906137b0565b60015b6115e657604051630c76093760e01b81526001600160a01b0383166004820152602401610846565b600080516020613da6833981519152811461161757604051632a87526960e21b815260048101829052602401610846565b600080516020613da68339815191528390556040516001600160a01b038416907fbc7cd75a20ee27fd9adebab32041f755214dbc6bffa90cc0225b39da2e5c2d3b90600090a28151156116e2576000836001600160a01b03168360405161167e91906138b8565b600060405180830381855af49150503d80600081146116b9576040519150601f19603f3d011682016040523d82523d6000602084013e6116be565b606091505b50509050806116e0576040516339b21b5d60e11b815260040160405180910390fd5b505b505050565b60008381526003602052604081205460028054839290811061170b5761170b6135e5565b6000918252602080832087845260036005909302019182019052604082205481549193508391811061173f5761173f6135e5565b90600052602060002090600c02016000018481548110611761576117616135e5565b600091825260208220600154604051631c3db16d60e01b815260048082018c905293909302909101935082916001600160a01b0390911690631c3db16d90602401606060405180830381865afa1580156117bf573d6000803e3d6000fd5b505050506040513d601f19601f820116820180604052508101906117e391906136cd565b506003850154919350915060ff168015611807575081836002015414806118075750805b1561181a57612710945050505050611823565b60009450505050505b9392505050565b6000306001600160a01b037f000000000000000000000000000000000000000000000000000000000000000016146118755760405163703e46dd60e11b815260040160405180910390fd5b50600080516020613da683398151915290565b6002818154811061189857600080fd5b600091825260209091206005909102016001810154600282015460048301805492945060ff90911692916118cb906137e4565b80601f01602080910402602001604051908101604052809291908181526020018280546118f7906137e4565b80156119445780601f1061191957610100808354040283529160200191611944565b820191906000526020600020905b81548152906001019060200180831161192757829003601f168201915b5050505050905083565b600084815260036020526040902054600280548692908110611972576119726135e5565b600091825260209091206002600590920201015460ff16156119a65760405162461bcd60e51b815260040161084690613755565b60015460405163564a565d60e01b8152600481018790526000916001600160a01b03169063564a565d9060240160a060405180830381865afa1580156119f0573d6000803e3d6000fd5b505050506040513d601f19601f82011682018060405250810190611a149190613650565b5090935060019250611a24915050565b816004811115611a3657611a366136b7565b14611a935760405162461bcd60e51b815260206004820152602760248201527f54686520646973707574652073686f756c6420626520696e20436f6d6d6974206044820152663832b934b7b21760c91b6064820152608401610846565b82611ad05760405162461bcd60e51b815260206004820152600d60248201526c22b6b83a3c9031b7b6b6b4ba1760991b6044820152606401610846565b600086815260036020526040812054600280549091908110611af457611af46135e5565b60009182526020822060059091020180549092508290611b1690600190613611565b81548110611b2657611b266135e5565b90600052602060002090600c0201905060005b86811015611bf4573382898984818110611b5557611b556135e5565b9050602002013581548110611b6c57611b6c6135e5565b60009182526020909120600490910201546001600160a01b031614611ba35760405162461bcd60e51b8152600401610846906138d4565b8582898984818110611bb757611bb76135e5565b9050602002013581548110611bce57611bce6135e5565b600091825260209091206001600490920201015580611bec8161390b565b915050611b39565b5086869050816005016000828254611c0c9190613742565b9091555050604051339089907f05cc2f1c94966f1c961b410a50f3d3ffb64501346753a258177097ea23707f0890611c49908b908b908b90613956565b60405180910390a35050505050505050565b6000818152600360205260408120546002805460609392908110611c8157611c816135e5565b60009182526020822060059091020180549092508290611ca390600190613611565b81548110611cb357611cb36135e5565b90600052602060002090600c0201905080600a01805480602002602001604051908101604052809291908181526020018280548015611d1157602002820191906000526020600020905b815481526020019060010190808311611cfd575b505050505092505050919050565b60008060008060008060006002600360008c81526020019081526020016000205481548110611d5057611d506135e5565b600091825260208083208c8452600360059093020191820190526040822054815491935083918110611d8457611d846135e5565b600091825260208083206001600c909302019182015460038301546004840154600585015485549f87526002909501909352604090942054909f60ff9094169e50909c50909a9950975095505050505050565b600081815260036020526040812054600280548392908110611dfb57611dfb6135e5565b60009182526020822060059091020180549092508290611e1d90600190613611565b81548110611e2d57611e2d6135e5565b60009182526020909120600c90910201805460049091015414949350505050565b6000546001600160a01b03163314611e785760405162461bcd60e51b81526004016108469061397a565b6000836001600160a01b03168383604051611e9391906138b8565b60006040518083038185875af1925050503d8060008114611ed0576040519150601f19603f3d011682016040523d82523d6000602084013e611ed5565b606091505b50509050806116e05760405162461bcd60e51b8152602060048201526011602482015270155b9cdd58d8d95cdcd99d5b0818d85b1b607a1b6044820152606401610846565b600086815260036020526040902054600280548892908110611f3e57611f3e6135e5565b600091825260209091206002600590920201015460ff1615611f725760405162461bcd60e51b815260040161084690613755565b60015460405163564a565d60e01b8152600481018990526000916001600160a01b03169063564a565d9060240160a060405180830381865afa158015611fbc573d6000803e3d6000fd5b505050506040513d601f19601f82011682018060405250810190611fe09190613650565b5090935060029250611ff0915050565b816004811115612002576120026136b7565b1461205d5760405162461bcd60e51b815260206004820152602560248201527f54686520646973707574652073686f756c6420626520696e20566f74652070656044820152643934b7b21760d91b6064820152608401610846565b8561209f5760405162461bcd60e51b8152602060048201526012602482015271139bc81d9bdd195251081c1c9bdd9a59195960721b6044820152606401610846565b6000888152600360205260408120546002805490919081106120c3576120c36135e5565b90600052602060002090600502019050806001015486111561211e5760405162461bcd60e51b815260206004820152601460248201527343686f696365206f7574206f6620626f756e647360601b6044820152606401610846565b8054600090829061213190600190613611565b81548110612141576121416135e5565b60009182526020822060015460405163564a565d60e01b8152600481018f9052600c9390930290910193506001600160a01b03169063564a565d9060240160a060405180830381865afa15801561219c573d6000803e3d6000fd5b505050506040513d601f19601f820116820180604052508101906121c09190613650565b5050600154604051630fad06e960e11b81526001600160601b03851660048201529394506000936001600160a01b039091169250631f5a0dd2915060240160e060405180830381865afa15801561221b573d6000803e3d6000fd5b505050506040513d601f19601f8201168201806040525081019061223f91906139bc565b505050505091505060005b8a8110156124bb5733848d8d84818110612266576122666135e5565b905060200201358154811061227d5761227d6135e5565b60009182526020909120600490910201546001600160a01b0316146122b45760405162461bcd60e51b8152600401610846906138d4565b811580612327575060408051602081018c90529081018a905260600160405160208183030381529060405280519060200120846000018d8d848181106122fc576122fc6135e5565b9050602002013581548110612313576123136135e5565b906000526020600020906004020160010154145b6123995760405162461bcd60e51b815260206004820152603d60248201527f54686520636f6d6d6974206d757374206d61746368207468652063686f69636560448201527f20696e20636f7572747320776974682068696464656e20766f7465732e0000006064820152608401610846565b838c8c838181106123ac576123ac6135e5565b90506020020135815481106123c3576123c36135e5565b600091825260209091206003600490920201015460ff161561241c5760405162461bcd60e51b81526020600482015260126024820152712b37ba329030b63932b0b23c9031b0b9ba1760711b6044820152606401610846565b89848d8d84818110612430576124306135e5565b9050602002013581548110612447576124476135e5565b60009182526020909120600260049092020101556001848d8d84818110612470576124706135e5565b9050602002013581548110612487576124876135e5565b60009182526020909120600490910201600301805460ff1916911515919091179055806124b38161390b565b91505061224a565b508a8a90508360040160008282546124d39190613742565b90915550506000898152600284016020526040812080548c92906124f8908490613742565b90915550506001830154890361252757600383015460ff16156125225760038301805460ff191690555b6125a0565b60018301546000908152600284016020526040808220548b83529120540361256957600383015460ff166125225760038301805460ff191660011790556125a0565b60018301546000908152600284016020526040808220548b835291205411156125a0576001830189905560038301805460ff191690555b88336001600160a01b03168d7fa000893c71384499023d2d7b21234f7b9e80c78e0330f357dcd667ff578bd3a48e8e8c6040516125df93929190613a26565b60405180910390a4505050505050505050505050565b6000546001600160a01b0316331461261f5760405162461bcd60e51b81526004016108469061397a565b600180546001600160a01b0319166001600160a01b0392909216919091179055565b60008060008060006002600360008a8152602001908152602001600020548154811061266f5761266f6135e5565b600091825260208083208a84526003600590930201918201905260408220548154919350839181106126a3576126a36135e5565b90600052602060002090600c020160000187815481106126c5576126c56135e5565b600091825260209091206004909102018054600182015460028301546003909301546001600160a01b039092169c909b5091995060ff16975095505050505050565b6001546001600160a01b031633146127315760405162461bcd60e51b815260040161084690613a56565b60028054600181018255600091909152600581027f405787fa12a823e0f2b7631cc41b3ba8828b3321ca811111fa75cd3aa3bb5acf81018690557f405787fa12a823e0f2b7631cc41b3ba8828b3321ca811111fa75cd3aa3bb5ace8101907f405787fa12a823e0f2b7631cc41b3ba8828b3321ca811111fa75cd3aa3bb5ad2016127bc858783613ae8565b50805460018054604051637e37c78b60e11b8152600481018b9052600385019260009290916001600160a01b039091169063fc6f8f1690602401602060405180830381865afa158015612813573d6000803e3d6000fd5b505050506040513d601f19601f8201168201806040525081019061283791906137b0565b6128419190613611565b81526020808201929092526040908101600090812093909355835460018181018655858552838520600b600c909302019182018890556003808301805460ff19169092179091558b855290925291829020849055905188907fd3106f74c2d30a4b9230e756a3e78bde53865d40f6af4c479bb010ebaab58108906128ca908a908a908a90613ba8565b60405180910390a25050505050505050565b600083815260036020526040812054600280548392908110612900576129006135e5565b60009182526020808320878452600360059093020191820190526040822054815491935083918110612934576129346135e5565b90600052602060002090600c02016000018481548110612956576129566135e5565b600091825260209091206004909102016003015460ff169695505050505050565b6001546000906001600160a01b031633146129a45760405162461bcd60e51b815260040161084690613a56565b6000838152600360205260409020546002805485929081106129c8576129c86135e5565b600091825260209091206002600590920201015460ff16156129fc5760405162461bcd60e51b815260040161084690613755565b600084815260036020526040812054600280549091908110612a2057612a206135e5565b60009182526020822060059091020180549092508290612a4290600190613611565b81548110612a5257612a526135e5565b90600052602060002090600c020190506000600160009054906101000a90046001600160a01b03166001600160a01b0316632e1daf2f6040518163ffffffff1660e01b8152600401602060405180830381865afa158015612ab7573d6000803e3d6000fd5b505050506040513d601f19601f82011682018060405250810190612adb9190613bde565b60015460405163564a565d60e01b8152600481018a90529192506000916001600160a01b039091169063564a565d9060240160a060405180830381865afa158015612b2a573d6000803e3d6000fd5b505050506040513d601f19601f82011682018060405250810190612b4e9190613650565b5050604051632638506b60e11b81526001600160601b03841660048201819052602482018d9052604482018c90529394506001600160a01b0386169250634c70a0d69150606401602060405180830381865afa158015612bb2573d6000803e3d6000fd5b505050506040513d601f19601f82011682018060405250810190612bd69190613bde565b9650612be28988612e4c565b15612c6f57604080516080810182526001600160a01b03898116825260006020808401828152948401828152606085018381528a5460018082018d558c8652939094209551600490940290950180546001600160a01b0319169390941692909217835593519382019390935591516002830155516003909101805460ff1916911515919091179055612c74565b600096505b50505050505092915050565b600082815260036020526040812054600280548392908110612ca457612ca46135e5565b60009182526020808320868452600360059093020191820190526040822054815491935083918110612cd857612cd86135e5565b600091825260208220600154604051631c3db16d60e01b8152600481018a9052600c93909302909101935082916001600160a01b0390911690631c3db16d90602401606060405180830381865afa158015612d37573d6000803e3d6000fd5b505050506040513d601f19601f82011682018060405250810190612d5b91906136cd565b5091509150826004015460001480612d8a575080158015612d8a57506000828152600284016020526040902054155b15612d9c576000945050505050612dcd565b8015612db1575050600401549150612dcd9050565b506000908152600290910160205260409020549150612dcd9050565b92915050565b6000546001600160a01b03163314612dfd5760405162461bcd60e51b81526004016108469061397a565b600080546001600160a01b0319166001600160a01b0392909216919091179055565b6000546001600160a01b03163314612e495760405162461bcd60e51b81526004016108469061397a565b50565b60015460405163564a565d60e01b81526004810184905260009182916001600160a01b039091169063564a565d9060240160a060405180830381865afa158015612e9a573d6000803e3d6000fd5b505050506040513d601f19601f82011682018060405250810190612ebe9190613650565b505060018054604051637e37c78b60e11b8152600481018a90529495506000946001600160a01b039091169350638a9bb02a9250889190849063fc6f8f1690602401602060405180830381865afa158015612f1d573d6000803e3d6000fd5b505050506040513d601f19601f82011682018060405250810190612f4191906137b0565b612f4b9190613611565b6040516001600160e01b031960e085901b16815260048101929092526024820152604401600060405180830381865afa158015612f8c573d6000803e3d6000fd5b505050506040513d6000823e601f3d908101601f19168201604052612fb49190810190613c8e565b602001519050600080600160009054906101000a90046001600160a01b03166001600160a01b0316632e1daf2f6040518163ffffffff1660e01b8152600401602060405180830381865afa158015613010573d6000803e3d6000fd5b505050506040513d601f19601f820116820180604052508101906130349190613bde565b604051631a383be960e31b81526001600160a01b0388811660048301526001600160601b0387166024830152919091169063d1c1df4890604401608060405180830381865afa15801561308b573d6000803e3d6000fd5b505050506040513d601f19601f820116820180604052508101906130af9190613d6f565b50509150915082816130c19190613742565b909110159695505050505050565b6000602082840312156130e157600080fd5b5035919050565b6001600160a01b0381168114612e4957600080fd5b6000806000806080858703121561311357600080fd5b843593506020850135613125816130e8565b93969395505050506040820135916060013590565b6000806040838503121561314d57600080fd5b8235613158816130e8565b91506020830135613168816130e8565b809150509250929050565b6000806040838503121561318657600080fd5b50508035926020909101359150565b634e487b7160e01b600052604160045260246000fd5b60405161016081016001600160401b03811182821017156131ce576131ce613195565b60405290565b604051601f8201601f191681016001600160401b03811182821017156131fc576131fc613195565b604052919050565b60006001600160401b0383111561321d5761321d613195565b613230601f8401601f19166020016131d4565b905082815283838301111561324457600080fd5b828260208301376000602084830101529392505050565b600082601f83011261326c57600080fd5b61182383833560208501613204565b6000806040838503121561328e57600080fd5b8235613299816130e8565b915060208301356001600160401b038111156132b457600080fd5b6132c08582860161325b565b9150509250929050565b6000806000606084860312156132df57600080fd5b505081359360208301359350604090920135919050565b60005b838110156133115781810151838201526020016132f9565b50506000910152565b600081518084526133328160208601602086016132f6565b601f01601f19169290920160200192915050565b8381528215156020820152606060408201526000613367606083018461331a565b95945050505050565b60008083601f84011261338257600080fd5b5081356001600160401b0381111561339957600080fd5b6020830191508360208260051b85010111156133b457600080fd5b9250929050565b600080600080606085870312156133d157600080fd5b8435935060208501356001600160401b038111156133ee57600080fd5b6133fa87828801613370565b9598909750949560400135949350505050565b6020808252825182820181905260009190848201906040850190845b8181101561344557835183529284019291840191600101613429565b50909695505050505050565b60008060006060848603121561346657600080fd5b8335613471816130e8565b92506020840135915060408401356001600160401b0381111561349357600080fd5b61349f8682870161325b565b9150509250925092565b60008060008060008060a087890312156134c257600080fd5b8635955060208701356001600160401b03808211156134e057600080fd5b6134ec8a838b01613370565b90975095506040890135945060608901359350608089013591508082111561351357600080fd5b508701601f8101891361352557600080fd5b61353489823560208401613204565b9150509295509295509295565b60006020828403121561355357600080fd5b8135611823816130e8565b60008060008060006080868803121561357657600080fd5b853594506020860135935060408601356001600160401b038082111561359b57600080fd5b818801915088601f8301126135af57600080fd5b8135818111156135be57600080fd5b8960208285010111156135d057600080fd5b96999598505060200195606001359392505050565b634e487b7160e01b600052603260045260246000fd5b634e487b7160e01b600052601160045260246000fd5b81810381811115612dcd57612dcd6135fb565b80516001600160601b038116811461363b57600080fd5b919050565b8051801515811461363b57600080fd5b600080600080600060a0868803121561366857600080fd5b61367186613624565b94506020860151613681816130e8565b60408701519094506005811061369657600080fd5b92506136a460608701613640565b9150608086015190509295509295909350565b634e487b7160e01b600052602160045260246000fd5b6000806000606084860312156136e257600080fd5b835192506136f260208501613640565b915061370060408501613640565b90509250925092565b8082028115828204841417612dcd57612dcd6135fb565b60008261373d57634e487b7160e01b600052601260045260246000fd5b500490565b80820180821115612dcd57612dcd6135fb565b6020808252601e908201527f44697370757465206a756d70656420746f206120706172656e7420444b210000604082015260600190565b6000806040838503121561379f57600080fd5b505080516020909101519092909150565b6000602082840312156137c257600080fd5b5051919050565b6000602082840312156137db57600080fd5b61182382613640565b600181811c908216806137f857607f821691505b60208210810361381857634e487b7160e01b600052602260045260246000fd5b50919050565b838152600060208481840152606060408401526000845461383e816137e4565b8060608701526080600180841660008114613860576001811461387a576138a8565b60ff1985168984015283151560051b8901830195506138a8565b896000528660002060005b858110156138a05781548b8201860152908301908801613885565b8a0184019650505b50939a9950505050505050505050565b600082516138ca8184602087016132f6565b9190910192915050565b6020808252601f908201527f5468652063616c6c65722068617320746f206f776e2074686520766f74652e00604082015260600190565b60006001820161391d5761391d6135fb565b5060010190565b81835260006001600160fb1b0383111561393d57600080fd5b8260051b80836020870137939093016020019392505050565b60408152600061396a604083018587613924565b9050826020830152949350505050565b60208082526022908201527f416363657373206e6f7420616c6c6f7765643a20476f7665726e6f72206f6e6c6040820152613c9760f11b606082015260800190565b600080600080600080600060e0888a0312156139d757600080fd5b6139e088613624565b96506139ee60208901613640565b955060408801519450606088015193506080880151925060a08801519150613a1860c08901613640565b905092959891949750929550565b604081526000613a3a604083018587613924565b8281036020840152613a4c818561331a565b9695505050505050565b60208082526024908201527f416363657373206e6f7420616c6c6f7765643a204b6c65726f73436f7265206f60408201526337363c9760e11b606082015260800190565b601f8211156116e257600081815260208120601f850160051c81016020861015613ac15750805b601f850160051c820191505b81811015613ae057828155600101613acd565b505050505050565b6001600160401b03831115613aff57613aff613195565b613b1383613b0d83546137e4565b83613a9a565b6000601f841160018114613b475760008515613b2f5750838201355b600019600387901b1c1916600186901b178355613ba1565b600083815260209020601f19861690835b82811015613b785786850135825560209485019460019092019101613b58565b5086821015613b955760001960f88860031b161c19848701351681555b505060018560011b0183555b5050505050565b83815260406020820152816040820152818360608301376000818301606090810191909152601f909201601f1916010192915050565b600060208284031215613bf057600080fd5b8151611823816130e8565b600082601f830112613c0c57600080fd5b815160206001600160401b03821115613c2757613c27613195565b8160051b613c368282016131d4565b9283528481018201928281019087851115613c5057600080fd5b83870192505b84831015613c78578251613c69816130e8565b82529183019190830190613c56565b979650505050505050565b805161363b816130e8565b600060208284031215613ca057600080fd5b81516001600160401b0380821115613cb757600080fd5b908301906101608286031215613ccc57600080fd5b613cd46131ab565b825181526020830151602082015260408301516040820152606083015160608201526080830151608082015260a083015160a082015260c083015182811115613d1c57600080fd5b613d2887828601613bfb565b60c08301525060e0838101519082015261010080840151908201526101209150613d53828401613c83565b9181019190915261014091820151918101919091529392505050565b60008060008060808587031215613d8557600080fd5b50508251602084015160408501516060909501519196909550909250905056fe360894a13ba1a3210667c828492db98dca3e2076cc3735a920a3ca505d382bbca2646970667358221220cf67677608150ea7a2825f63646a3379b88eceb65b969ea68bd4dc1289ac3b9864736f6c63430008120033",
  "devdoc": {
    "errors": {
      "AlreadyInitialized()": [
        {
          "details": "The contract is already initialized."
        }
      ],
      "NotInitializing()": [
        {
          "details": "The contract is not initializing."
        }
      ],
      "UUPSUnauthorizedCallContext()": [
        {
          "details": "The call is from an unauthorized context."
        }
      ],
      "UUPSUnsupportedProxiableUUID(bytes32)": [
        {
          "details": "The storage `slot` is unsupported as a UUID."
        }
      ]
    },
    "events": {
      "ChoiceFunded(uint256,uint256,uint256)": {
        "details": "To be emitted when a choice is fully funded for an appeal.",
        "params": {
          "_choice": "The choice that is being funded.",
          "_coreDisputeID": "The identifier of the dispute in the Arbitrator contract.",
          "_coreRoundID": "The identifier of the round in the Arbitrator contract."
        }
      },
      "CommitCast(uint256,address,uint256[],bytes32)": {
        "details": "To be emitted when a vote commitment is cast.",
        "params": {
          "_commit": "The commitment of the juror.",
          "_coreDisputeID": "The identifier of the dispute in the Arbitrator contract.",
          "_juror": "The address of the juror casting the vote commitment.",
          "_voteIDs": "The identifiers of the votes in the dispute."
        }
      },
      "Contribution(uint256,uint256,uint256,address,uint256)": {
        "details": "To be emitted when a funding contribution is made.",
        "params": {
          "_amount": "The amount contributed.",
          "_choice": "The choice that is being funded.",
          "_contributor": "The address of the contributor.",
          "_coreDisputeID": "The identifier of the dispute in the Arbitrator contract.",
          "_coreRoundID": "The identifier of the round in the Arbitrator contract."
        }
      },
      "DisputeCreation(uint256,uint256,bytes)": {
        "details": "To be emitted when a dispute is created.",
        "params": {
          "_coreDisputeID": "The identifier of the dispute in the Arbitrator contract.",
          "_extraData": "The extra data for the dispute.",
          "_numberOfChoices": "The number of choices available in the dispute."
        }
      },
      "Initialized(uint64)": {
        "details": "Triggered when the contract has been initialized or reinitialized."
      },
      "Upgraded(address)": {
        "params": {
          "newImplementation": "Address of the new implementation the proxy is now forwarding calls to."
        }
      },
      "VoteCast(uint256,address,uint256[],uint256,string)": {
        "details": "Emitted when casting a vote to provide the justification of juror's choice.",
        "params": {
          "_choice": "The choice juror voted for.",
          "_coreDisputeID": "The identifier of the dispute in the Arbitrator contract.",
          "_juror": "Address of the juror.",
          "_justification": "Justification of the choice.",
          "_voteIDs": "The identifiers of the votes in the dispute."
        }
      },
      "Withdrawal(uint256,uint256,uint256,address,uint256)": {
        "details": "To be emitted when the contributed funds are withdrawn.",
        "params": {
          "_amount": "The amount withdrawn.",
          "_choice": "The choice that is being funded.",
          "_contributor": "The address of the contributor.",
          "_coreDisputeID": "The identifier of the dispute in the Arbitrator contract.",
          "_coreRoundID": "The identifier of the round in the Arbitrator contract."
        }
      }
    },
    "kind": "dev",
    "methods": {
      "areCommitsAllCast(uint256)": {
        "details": "Returns true if all of the jurors have cast their commits for the last round.",
        "params": {
          "_coreDisputeID": "The ID of the dispute in Kleros Core."
        },
        "returns": {
          "_0": "Whether all of the jurors have cast their commits for the last round."
        }
      },
      "areVotesAllCast(uint256)": {
        "details": "Returns true if all of the jurors have cast their votes for the last round.",
        "params": {
          "_coreDisputeID": "The ID of the dispute in Kleros Core."
        },
        "returns": {
          "_0": "Whether all of the jurors have cast their votes for the last round."
        }
      },
      "castCommit(uint256,uint256[],bytes32)": {
        "details": "Sets the caller's commit for the specified votes. It can be called multiple times during the commit period, each call overrides the commits of the previous one. `O(n)` where `n` is the number of votes.",
        "params": {
          "_commit": "The commit. Note that justification string is a part of the commit.",
          "_coreDisputeID": "The ID of the dispute in Kleros Core.",
          "_voteIDs": "The IDs of the votes."
        }
      },
      "castVote(uint256,uint256[],uint256,uint256,string)": {
        "details": "Sets the caller's choices for the specified votes. `O(n)` where `n` is the number of votes.",
        "params": {
          "_choice": "The choice.",
          "_coreDisputeID": "The ID of the dispute in Kleros Core.",
          "_justification": "Justification of the choice.",
          "_salt": "The salt for the commit if the votes were hidden.",
          "_voteIDs": "The IDs of the votes."
        }
      },
      "changeCore(address)": {
        "details": "Changes the `core` storage variable.",
        "params": {
          "_core": "The new value for the `core` storage variable."
        }
      },
      "changeGovernor(address)": {
        "details": "Changes the `governor` storage variable.",
        "params": {
          "_governor": "The new value for the `governor` storage variable."
        }
      },
      "constructor": {
        "details": "Constructor, initializing the implementation to reduce attack surface."
      },
      "createDispute(uint256,uint256,bytes,uint256)": {
        "details": "Creates a local dispute and maps it to the dispute ID in the Core contract. Note: Access restricted to Kleros Core only.",
        "params": {
          "_coreDisputeID": "The ID of the dispute in Kleros Core.",
          "_extraData": "Additional info about the dispute, for possible use in future dispute kits.",
          "_nbVotes": "Number of votes for this dispute.",
          "_numberOfChoices": "Number of choices of the dispute"
        }
      },
      "currentRuling(uint256)": {
        "details": "Gets the current ruling of a specified dispute.",
        "params": {
          "_coreDisputeID": "The ID of the dispute in Kleros Core."
        },
        "returns": {
          "overridden": "Whether the ruling was overridden by appeal funding or not.",
          "ruling": "The current ruling.",
          "tied": "Whether it's a tie or not."
        }
      },
      "draw(uint256,uint256)": {
        "details": "Draws the juror from the sortition tree. The drawn address is picked up by Kleros Core. Note: Access restricted to Kleros Core only.",
        "params": {
          "_coreDisputeID": "The ID of the dispute in Kleros Core.",
          "_nonce": "Nonce of the drawing iteration."
        },
        "returns": {
          "drawnAddress": "The drawn address."
        }
      },
      "executeGovernorProposal(address,uint256,bytes)": {
        "details": "Allows the governor to call anything on behalf of the contract.",
        "params": {
          "_amount": "The value sent with the call.",
          "_data": "The data sent with the call.",
          "_destination": "The destination of the call."
        }
      },
      "fundAppeal(uint256,uint256)": {
        "details": "Manages contributions, and appeals a dispute if at least two choices are fully funded. Note that the surplus deposit will be reimbursed.",
        "params": {
          "_choice": "A choice that receives funding.",
          "_coreDisputeID": "Index of the dispute in Kleros Core."
        }
      },
      "getCoherentCount(uint256,uint256)": {
        "details": "Gets the number of jurors who are eligible to a reward in this round.",
        "params": {
          "_coreDisputeID": "The ID of the dispute in Kleros Core, not in the Dispute Kit.",
          "_coreRoundID": "The ID of the round in Kleros Core, not in the Dispute Kit."
        },
        "returns": {
          "_0": "The number of coherent jurors."
        }
      },
      "getDegreeOfCoherence(uint256,uint256,uint256)": {
        "details": "Gets the degree of coherence of a particular voter. This function is called by Kleros Core in order to determine the amount of the reward.",
        "params": {
          "_coreDisputeID": "The ID of the dispute in Kleros Core, not in the Dispute Kit.",
          "_coreRoundID": "The ID of the round in Kleros Core, not in the Dispute Kit.",
          "_voteID": "The ID of the vote."
        },
        "returns": {
          "_0": "The degree of coherence in basis points."
        }
      },
      "initialize(address,address)": {
        "details": "Initializer.",
        "params": {
          "_core": "The KlerosCore arbitrator.",
          "_governor": "The governor's address."
        }
      },
      "isVoteActive(uint256,uint256,uint256)": {
        "details": "Returns true if the specified voter was active in this round.",
        "params": {
          "_coreDisputeID": "The ID of the dispute in Kleros Core, not in the Dispute Kit.",
          "_coreRoundID": "The ID of the round in Kleros Core, not in the Dispute Kit.",
          "_voteID": "The ID of the voter."
        },
        "returns": {
          "_0": "Whether the voter was active or not."
        }
      },
      "proxiableUUID()": {
        "details": "Implementation of the ERC1822 `proxiableUUID` function. This returns the storage slot used by the implementation. It is used to validate the implementation's compatibility when performing an upgrade. IMPORTANT: A proxy pointing at a proxiable contract should not be considered proxiable itself, because this risks bricking a proxy that upgrades to it, by delegating to itself until out of gas. Thus it is critical that this function revert if invoked through a proxy. This is guaranteed by the if statement."
      },
      "upgradeToAndCall(address,bytes)": {
        "details": "Upgrade mechanism including access control and UUPS-compliance.Reverts if the execution is not performed via delegatecall or the execution context is not of a proxy with an ERC1967-compliant implementation pointing to self.",
        "params": {
          "data": "Data used in a delegate call to `newImplementation` if non-empty. This will typically be an encoded function call, and allows initializing the storage of the proxy like a Solidity constructor.",
          "newImplementation": "Address of the new implementation contract."
        }
      },
      "withdrawFeesAndRewards(uint256,address,uint256,uint256)": {
        "details": "Allows those contributors who attempted to fund an appeal round to withdraw any reimbursable fees or rewards after the dispute gets resolved.",
        "params": {
          "_beneficiary": "The address whose rewards to withdraw.",
          "_choice": "The ruling option that the caller wants to withdraw from.",
          "_coreDisputeID": "Index of the dispute in Kleros Core contract.",
          "_coreRoundID": "The round in the Kleros Core contract the caller wants to withdraw from."
        },
        "returns": {
          "amount": "The withdrawn amount."
        }
      }
    },
    "title": "DisputeKitClassic Dispute kit implementation of the Kleros v1 features including: - a drawing system: proportional to staked PNK, - a vote aggregation system: plurality, - an incentive system: equal split between coherent votes, - an appeal system: fund 2 choices only, vote on any choice.",
    "version": 1
  },
  "userdoc": {
    "errors": {
      "FailedDelegateCall()": [
        {
          "notice": "Failed Delegated call"
        }
      ],
      "InvalidImplementation(address)": [
        {
          "notice": "The `implementation` is not UUPS-compliant"
        }
      ]
    },
    "events": {
      "Upgraded(address)": {
        "notice": "Emitted when the `implementation` has been successfully upgraded."
      }
    },
    "kind": "user",
    "methods": {},
    "version": 1
  },
  "storageLayout": {
    "storage": [
      {
        "astId": 11765,
        "contract": "src/arbitration/dispute-kits/DisputeKitClassic.sol:DisputeKitClassic",
        "label": "governor",
        "offset": 0,
        "slot": "0",
        "type": "t_address"
      },
      {
        "astId": 11768,
        "contract": "src/arbitration/dispute-kits/DisputeKitClassic.sol:DisputeKitClassic",
        "label": "core",
        "offset": 0,
        "slot": "1",
        "type": "t_contract(KlerosCore)6383"
      },
      {
        "astId": 11772,
        "contract": "src/arbitration/dispute-kits/DisputeKitClassic.sol:DisputeKitClassic",
        "label": "disputes",
        "offset": 0,
        "slot": "2",
        "type": "t_array(t_struct(Dispute)11704_storage)dyn_storage"
      },
      {
        "astId": 11776,
        "contract": "src/arbitration/dispute-kits/DisputeKitClassic.sol:DisputeKitClassic",
        "label": "coreDisputeIDToLocal",
        "offset": 0,
        "slot": "3",
        "type": "t_mapping(t_uint256,t_uint256)"
      }
    ],
    "types": {
      "t_address": {
        "encoding": "inplace",
        "label": "address",
        "numberOfBytes": "20"
      },
      "t_array(t_struct(Dispute)11704_storage)dyn_storage": {
        "base": "t_struct(Dispute)11704_storage",
        "encoding": "dynamic_array",
        "label": "struct DisputeKitClassic.Dispute[]",
        "numberOfBytes": "32"
      },
      "t_array(t_struct(Round)11742_storage)dyn_storage": {
        "base": "t_struct(Round)11742_storage",
        "encoding": "dynamic_array",
        "label": "struct DisputeKitClassic.Round[]",
        "numberOfBytes": "32"
      },
      "t_array(t_struct(Vote)11751_storage)dyn_storage": {
        "base": "t_struct(Vote)11751_storage",
        "encoding": "dynamic_array",
        "label": "struct DisputeKitClassic.Vote[]",
        "numberOfBytes": "32"
      },
      "t_array(t_uint256)dyn_storage": {
        "base": "t_uint256",
        "encoding": "dynamic_array",
        "label": "uint256[]",
        "numberOfBytes": "32"
      },
      "t_bool": {
        "encoding": "inplace",
        "label": "bool",
        "numberOfBytes": "1"
      },
      "t_bytes32": {
        "encoding": "inplace",
        "label": "bytes32",
        "numberOfBytes": "32"
      },
      "t_bytes_storage": {
        "encoding": "bytes",
        "label": "bytes",
        "numberOfBytes": "32"
      },
      "t_contract(KlerosCore)6383": {
        "encoding": "inplace",
        "label": "contract KlerosCore",
        "numberOfBytes": "20"
      },
      "t_mapping(t_address,t_mapping(t_uint256,t_uint256))": {
        "encoding": "mapping",
        "key": "t_address",
        "label": "mapping(address => mapping(uint256 => uint256))",
        "numberOfBytes": "32",
        "value": "t_mapping(t_uint256,t_uint256)"
      },
      "t_mapping(t_uint256,t_bool)": {
        "encoding": "mapping",
        "key": "t_uint256",
        "label": "mapping(uint256 => bool)",
        "numberOfBytes": "32",
        "value": "t_bool"
      },
      "t_mapping(t_uint256,t_uint256)": {
        "encoding": "mapping",
        "key": "t_uint256",
        "label": "mapping(uint256 => uint256)",
        "numberOfBytes": "32",
        "value": "t_uint256"
      },
      "t_struct(Dispute)11704_storage": {
        "encoding": "inplace",
        "label": "struct DisputeKitClassic.Dispute",
        "members": [
          {
            "astId": 11693,
            "contract": "src/arbitration/dispute-kits/DisputeKitClassic.sol:DisputeKitClassic",
            "label": "rounds",
            "offset": 0,
            "slot": "0",
            "type": "t_array(t_struct(Round)11742_storage)dyn_storage"
          },
          {
            "astId": 11695,
            "contract": "src/arbitration/dispute-kits/DisputeKitClassic.sol:DisputeKitClassic",
            "label": "numberOfChoices",
            "offset": 0,
            "slot": "1",
            "type": "t_uint256"
          },
          {
            "astId": 11697,
            "contract": "src/arbitration/dispute-kits/DisputeKitClassic.sol:DisputeKitClassic",
            "label": "jumped",
            "offset": 0,
            "slot": "2",
            "type": "t_bool"
          },
          {
            "astId": 11701,
            "contract": "src/arbitration/dispute-kits/DisputeKitClassic.sol:DisputeKitClassic",
            "label": "coreRoundIDToLocal",
            "offset": 0,
            "slot": "3",
            "type": "t_mapping(t_uint256,t_uint256)"
          },
          {
            "astId": 11703,
            "contract": "src/arbitration/dispute-kits/DisputeKitClassic.sol:DisputeKitClassic",
            "label": "extraData",
            "offset": 0,
            "slot": "4",
            "type": "t_bytes_storage"
          }
        ],
        "numberOfBytes": "160"
      },
      "t_struct(Round)11742_storage": {
        "encoding": "inplace",
        "label": "struct DisputeKitClassic.Round",
        "members": [
          {
            "astId": 11708,
            "contract": "src/arbitration/dispute-kits/DisputeKitClassic.sol:DisputeKitClassic",
            "label": "votes",
            "offset": 0,
            "slot": "0",
            "type": "t_array(t_struct(Vote)11751_storage)dyn_storage"
          },
          {
            "astId": 11710,
            "contract": "src/arbitration/dispute-kits/DisputeKitClassic.sol:DisputeKitClassic",
            "label": "winningChoice",
            "offset": 0,
            "slot": "1",
            "type": "t_uint256"
          },
          {
            "astId": 11714,
            "contract": "src/arbitration/dispute-kits/DisputeKitClassic.sol:DisputeKitClassic",
            "label": "counts",
            "offset": 0,
            "slot": "2",
            "type": "t_mapping(t_uint256,t_uint256)"
          },
          {
            "astId": 11716,
            "contract": "src/arbitration/dispute-kits/DisputeKitClassic.sol:DisputeKitClassic",
            "label": "tied",
            "offset": 0,
            "slot": "3",
            "type": "t_bool"
          },
          {
            "astId": 11718,
            "contract": "src/arbitration/dispute-kits/DisputeKitClassic.sol:DisputeKitClassic",
            "label": "totalVoted",
            "offset": 0,
            "slot": "4",
            "type": "t_uint256"
          },
          {
            "astId": 11720,
            "contract": "src/arbitration/dispute-kits/DisputeKitClassic.sol:DisputeKitClassic",
            "label": "totalCommitted",
            "offset": 0,
            "slot": "5",
            "type": "t_uint256"
          },
          {
            "astId": 11724,
            "contract": "src/arbitration/dispute-kits/DisputeKitClassic.sol:DisputeKitClassic",
            "label": "paidFees",
            "offset": 0,
            "slot": "6",
            "type": "t_mapping(t_uint256,t_uint256)"
          },
          {
            "astId": 11728,
            "contract": "src/arbitration/dispute-kits/DisputeKitClassic.sol:DisputeKitClassic",
            "label": "hasPaid",
            "offset": 0,
            "slot": "7",
            "type": "t_mapping(t_uint256,t_bool)"
          },
          {
            "astId": 11734,
            "contract": "src/arbitration/dispute-kits/DisputeKitClassic.sol:DisputeKitClassic",
            "label": "contributions",
            "offset": 0,
            "slot": "8",
            "type": "t_mapping(t_address,t_mapping(t_uint256,t_uint256))"
          },
          {
            "astId": 11736,
            "contract": "src/arbitration/dispute-kits/DisputeKitClassic.sol:DisputeKitClassic",
            "label": "feeRewards",
            "offset": 0,
            "slot": "9",
            "type": "t_uint256"
          },
          {
            "astId": 11739,
            "contract": "src/arbitration/dispute-kits/DisputeKitClassic.sol:DisputeKitClassic",
            "label": "fundedChoices",
            "offset": 0,
            "slot": "10",
            "type": "t_array(t_uint256)dyn_storage"
          },
          {
            "astId": 11741,
            "contract": "src/arbitration/dispute-kits/DisputeKitClassic.sol:DisputeKitClassic",
            "label": "nbVotes",
            "offset": 0,
            "slot": "11",
            "type": "t_uint256"
          }
        ],
        "numberOfBytes": "384"
      },
      "t_struct(Vote)11751_storage": {
        "encoding": "inplace",
        "label": "struct DisputeKitClassic.Vote",
        "members": [
          {
            "astId": 11744,
            "contract": "src/arbitration/dispute-kits/DisputeKitClassic.sol:DisputeKitClassic",
            "label": "account",
            "offset": 0,
            "slot": "0",
            "type": "t_address"
          },
          {
            "astId": 11746,
            "contract": "src/arbitration/dispute-kits/DisputeKitClassic.sol:DisputeKitClassic",
            "label": "commit",
            "offset": 0,
            "slot": "1",
            "type": "t_bytes32"
          },
          {
            "astId": 11748,
            "contract": "src/arbitration/dispute-kits/DisputeKitClassic.sol:DisputeKitClassic",
            "label": "choice",
            "offset": 0,
            "slot": "2",
            "type": "t_uint256"
          },
          {
            "astId": 11750,
            "contract": "src/arbitration/dispute-kits/DisputeKitClassic.sol:DisputeKitClassic",
            "label": "voted",
            "offset": 0,
            "slot": "3",
            "type": "t_bool"
          }
        ],
        "numberOfBytes": "128"
      },
      "t_uint256": {
        "encoding": "inplace",
        "label": "uint256",
        "numberOfBytes": "32"
      }
    }
  }
}