{
  "address": "0x6582CE0FdB29B5673E6650e34728C784BafB2139",
  "abi": [
    {
      "inputs": [],
      "stateMutability": "nonpayable",
      "type": "constructor"
    },
    {
      "inputs": [],
      "name": "AlreadyInitialized",
      "type": "error"
    },
    {
      "inputs": [],
      "name": "FailedDelegateCall",
      "type": "error"
    },
    {
      "inputs": [
        {
          "internalType": "address",
          "name": "implementation",
          "type": "address"
        }
      ],
      "name": "InvalidImplementation",
      "type": "error"
    },
    {
      "inputs": [],
      "name": "NotInitializing",
      "type": "error"
    },
    {
      "inputs": [],
      "name": "UUPSUnauthorizedCallContext",
      "type": "error"
    },
    {
      "inputs": [
        {
          "internalType": "bytes32",
          "name": "slot",
          "type": "bytes32"
        }
      ],
      "name": "UUPSUnsupportedProxiableUUID",
      "type": "error"
    },
    {
      "anonymous": false,
      "inputs": [
        {
          "indexed": true,
          "internalType": "uint256",
          "name": "_coreDisputeID",
          "type": "uint256"
        },
        {
          "indexed": true,
          "internalType": "uint256",
          "name": "_coreRoundID",
          "type": "uint256"
        },
        {
          "indexed": true,
          "internalType": "uint256",
          "name": "_choice",
          "type": "uint256"
        }
      ],
      "name": "ChoiceFunded",
      "type": "event"
    },
    {
      "anonymous": false,
      "inputs": [
        {
          "indexed": true,
          "internalType": "uint256",
          "name": "_coreDisputeID",
          "type": "uint256"
        },
        {
          "indexed": true,
          "internalType": "address",
          "name": "_juror",
          "type": "address"
        },
        {
          "indexed": false,
          "internalType": "uint256[]",
          "name": "_voteIDs",
          "type": "uint256[]"
        },
        {
          "indexed": false,
          "internalType": "bytes32",
          "name": "_commit",
          "type": "bytes32"
        }
      ],
      "name": "CommitCast",
      "type": "event"
    },
    {
      "anonymous": false,
      "inputs": [
        {
          "indexed": true,
          "internalType": "uint256",
          "name": "_coreDisputeID",
          "type": "uint256"
        },
        {
          "indexed": true,
          "internalType": "address",
          "name": "_juror",
          "type": "address"
        },
        {
          "indexed": true,
          "internalType": "bytes32",
          "name": "_commit",
          "type": "bytes32"
        },
        {
          "indexed": false,
          "internalType": "bytes32",
          "name": "_identity",
          "type": "bytes32"
        },
        {
          "indexed": false,
          "internalType": "bytes",
          "name": "_encryptedVote",
          "type": "bytes"
        }
      ],
      "name": "CommitCastShutter",
      "type": "event"
    },
    {
      "anonymous": false,
      "inputs": [
        {
          "indexed": true,
          "internalType": "uint256",
          "name": "_coreDisputeID",
          "type": "uint256"
        },
        {
          "indexed": true,
          "internalType": "uint256",
          "name": "_coreRoundID",
          "type": "uint256"
        },
        {
          "indexed": false,
          "internalType": "uint256",
          "name": "_choice",
          "type": "uint256"
        },
        {
          "indexed": true,
          "internalType": "address",
          "name": "_contributor",
          "type": "address"
        },
        {
          "indexed": false,
          "internalType": "uint256",
          "name": "_amount",
          "type": "uint256"
        }
      ],
      "name": "Contribution",
      "type": "event"
    },
    {
      "anonymous": false,
      "inputs": [
        {
          "indexed": true,
          "internalType": "uint256",
          "name": "_coreDisputeID",
          "type": "uint256"
        },
        {
          "indexed": false,
          "internalType": "uint256",
          "name": "_numberOfChoices",
          "type": "uint256"
        },
        {
          "indexed": false,
          "internalType": "bytes",
          "name": "_extraData",
          "type": "bytes"
        }
      ],
      "name": "DisputeCreation",
      "type": "event"
    },
    {
      "anonymous": false,
      "inputs": [
        {
          "indexed": false,
          "internalType": "uint64",
          "name": "version",
          "type": "uint64"
        }
      ],
      "name": "Initialized",
      "type": "event"
    },
    {
      "anonymous": false,
      "inputs": [
        {
          "indexed": true,
          "internalType": "address",
          "name": "newImplementation",
          "type": "address"
        }
      ],
      "name": "Upgraded",
      "type": "event"
    },
    {
      "anonymous": false,
      "inputs": [
        {
          "indexed": true,
          "internalType": "uint256",
          "name": "_coreDisputeID",
          "type": "uint256"
        },
        {
          "indexed": true,
          "internalType": "address",
          "name": "_juror",
          "type": "address"
        },
        {
          "indexed": false,
          "internalType": "uint256[]",
          "name": "_voteIDs",
          "type": "uint256[]"
        },
        {
          "indexed": true,
          "internalType": "uint256",
          "name": "_choice",
          "type": "uint256"
        },
        {
          "indexed": false,
          "internalType": "string",
          "name": "_justification",
          "type": "string"
        }
      ],
      "name": "VoteCast",
      "type": "event"
    },
    {
      "anonymous": false,
      "inputs": [
        {
          "indexed": true,
          "internalType": "uint256",
          "name": "_coreDisputeID",
          "type": "uint256"
        },
        {
          "indexed": true,
          "internalType": "uint256",
          "name": "_coreRoundID",
          "type": "uint256"
        },
        {
          "indexed": false,
          "internalType": "uint256",
          "name": "_choice",
          "type": "uint256"
        },
        {
          "indexed": true,
          "internalType": "address",
          "name": "_contributor",
          "type": "address"
        },
        {
          "indexed": false,
          "internalType": "uint256",
          "name": "_amount",
          "type": "uint256"
        }
      ],
      "name": "Withdrawal",
      "type": "event"
    },
    {
      "inputs": [],
      "name": "LOSER_APPEAL_PERIOD_MULTIPLIER",
      "outputs": [
        {
          "internalType": "uint256",
          "name": "",
          "type": "uint256"
        }
      ],
      "stateMutability": "view",
      "type": "function"
    },
    {
      "inputs": [],
      "name": "LOSER_STAKE_MULTIPLIER",
      "outputs": [
        {
          "internalType": "uint256",
          "name": "",
          "type": "uint256"
        }
      ],
      "stateMutability": "view",
      "type": "function"
    },
    {
      "inputs": [],
      "name": "ONE_BASIS_POINT",
      "outputs": [
        {
          "internalType": "uint256",
          "name": "",
          "type": "uint256"
        }
      ],
      "stateMutability": "view",
      "type": "function"
    },
    {
      "inputs": [],
      "name": "WINNER_STAKE_MULTIPLIER",
      "outputs": [
        {
          "internalType": "uint256",
          "name": "",
          "type": "uint256"
        }
      ],
      "stateMutability": "view",
      "type": "function"
    },
    {
      "inputs": [
        {
          "internalType": "uint256",
          "name": "localDisputeID",
          "type": "uint256"
        },
        {
          "internalType": "uint256",
          "name": "localRoundID",
          "type": "uint256"
        },
        {
          "internalType": "address",
          "name": "drawnAddress",
          "type": "address"
        }
      ],
      "name": "alreadyDrawn",
      "outputs": [
        {
          "internalType": "bool",
          "name": "",
          "type": "bool"
        }
      ],
      "stateMutability": "view",
      "type": "function"
    },
    {
      "inputs": [
        {
          "internalType": "uint256",
          "name": "_coreDisputeID",
          "type": "uint256"
        }
      ],
      "name": "areCommitsAllCast",
      "outputs": [
        {
          "internalType": "bool",
          "name": "",
          "type": "bool"
        }
      ],
      "stateMutability": "view",
      "type": "function"
    },
    {
      "inputs": [
        {
          "internalType": "uint256",
          "name": "_coreDisputeID",
          "type": "uint256"
        }
      ],
      "name": "areVotesAllCast",
      "outputs": [
        {
          "internalType": "bool",
          "name": "",
          "type": "bool"
        }
      ],
      "stateMutability": "view",
      "type": "function"
    },
    {
      "inputs": [
        {
          "internalType": "uint256",
          "name": "_coreDisputeID",
          "type": "uint256"
        },
        {
          "internalType": "uint256[]",
          "name": "_voteIDs",
          "type": "uint256[]"
        },
        {
          "internalType": "bytes32",
          "name": "_commit",
          "type": "bytes32"
        }
      ],
      "name": "castCommit",
      "outputs": [],
      "stateMutability": "nonpayable",
      "type": "function"
    },
    {
      "inputs": [
        {
          "internalType": "uint256",
          "name": "_coreDisputeID",
          "type": "uint256"
        },
        {
          "internalType": "uint256[]",
          "name": "_voteIDs",
          "type": "uint256[]"
        },
        {
          "internalType": "bytes32",
          "name": "_commit",
          "type": "bytes32"
        },
        {
          "internalType": "bytes32",
          "name": "_identity",
          "type": "bytes32"
        },
        {
          "internalType": "bytes",
          "name": "_encryptedVote",
          "type": "bytes"
        }
      ],
      "name": "castCommitShutter",
      "outputs": [],
      "stateMutability": "nonpayable",
      "type": "function"
    },
    {
      "inputs": [
        {
          "internalType": "uint256",
          "name": "_coreDisputeID",
          "type": "uint256"
        },
        {
          "internalType": "uint256[]",
          "name": "_voteIDs",
          "type": "uint256[]"
        },
        {
          "internalType": "uint256",
          "name": "_choice",
          "type": "uint256"
        },
        {
          "internalType": "uint256",
          "name": "_salt",
          "type": "uint256"
        },
        {
          "internalType": "string",
          "name": "_justification",
          "type": "string"
        }
      ],
      "name": "castVote",
      "outputs": [],
      "stateMutability": "nonpayable",
      "type": "function"
    },
    {
      "inputs": [
        {
          "internalType": "uint256",
          "name": "_coreDisputeID",
          "type": "uint256"
        },
        {
          "internalType": "uint256[]",
          "name": "_voteIDs",
          "type": "uint256[]"
        },
        {
          "internalType": "uint256",
          "name": "_choice",
          "type": "uint256"
        },
        {
          "internalType": "uint256",
          "name": "_salt",
          "type": "uint256"
        },
        {
          "internalType": "string",
          "name": "_justification",
          "type": "string"
        }
      ],
      "name": "castVoteShutter",
      "outputs": [],
      "stateMutability": "nonpayable",
      "type": "function"
    },
    {
      "inputs": [
        {
          "internalType": "address",
          "name": "_core",
          "type": "address"
        }
      ],
      "name": "changeCore",
      "outputs": [],
      "stateMutability": "nonpayable",
      "type": "function"
    },
    {
      "inputs": [
        {
          "internalType": "address payable",
          "name": "_governor",
          "type": "address"
        }
      ],
      "name": "changeGovernor",
      "outputs": [],
      "stateMutability": "nonpayable",
      "type": "function"
    },
    {
      "inputs": [],
      "name": "core",
      "outputs": [
        {
          "internalType": "contract KlerosCore",
          "name": "",
          "type": "address"
        }
      ],
      "stateMutability": "view",
      "type": "function"
    },
    {
      "inputs": [
        {
          "internalType": "uint256",
          "name": "coreDisputeID",
          "type": "uint256"
        }
      ],
      "name": "coreDisputeIDToActive",
      "outputs": [
        {
          "internalType": "bool",
          "name": "",
          "type": "bool"
        }
      ],
      "stateMutability": "view",
      "type": "function"
    },
    {
      "inputs": [
        {
          "internalType": "uint256",
          "name": "",
          "type": "uint256"
        }
      ],
      "name": "coreDisputeIDToLocal",
      "outputs": [
        {
          "internalType": "uint256",
          "name": "",
          "type": "uint256"
        }
      ],
      "stateMutability": "view",
      "type": "function"
    },
    {
      "inputs": [
        {
          "internalType": "uint256",
          "name": "_coreDisputeID",
          "type": "uint256"
        },
        {
          "internalType": "uint256",
          "name": "_numberOfChoices",
          "type": "uint256"
        },
        {
          "internalType": "bytes",
          "name": "_extraData",
          "type": "bytes"
        },
        {
          "internalType": "uint256",
          "name": "_nbVotes",
          "type": "uint256"
        }
      ],
      "name": "createDispute",
      "outputs": [],
      "stateMutability": "nonpayable",
      "type": "function"
    },
    {
      "inputs": [
        {
          "internalType": "uint256",
          "name": "_coreDisputeID",
          "type": "uint256"
        }
      ],
      "name": "currentRuling",
      "outputs": [
        {
          "internalType": "uint256",
          "name": "ruling",
          "type": "uint256"
        },
        {
          "internalType": "bool",
          "name": "tied",
          "type": "bool"
        },
        {
          "internalType": "bool",
          "name": "overridden",
          "type": "bool"
        }
      ],
      "stateMutability": "view",
      "type": "function"
    },
    {
      "inputs": [
        {
          "internalType": "uint256",
          "name": "",
          "type": "uint256"
        }
      ],
      "name": "disputes",
      "outputs": [
        {
          "internalType": "uint256",
          "name": "numberOfChoices",
          "type": "uint256"
        },
        {
          "internalType": "bool",
          "name": "jumped",
          "type": "bool"
        },
        {
          "internalType": "bytes",
          "name": "extraData",
          "type": "bytes"
        }
      ],
      "stateMutability": "view",
      "type": "function"
    },
    {
      "inputs": [
        {
          "internalType": "uint256",
          "name": "_coreDisputeID",
          "type": "uint256"
        },
        {
          "internalType": "uint256",
          "name": "_nonce",
          "type": "uint256"
        }
      ],
      "name": "draw",
      "outputs": [
        {
          "internalType": "address",
          "name": "drawnAddress",
          "type": "address"
        }
      ],
      "stateMutability": "nonpayable",
      "type": "function"
    },
    {
      "inputs": [
        {
          "internalType": "address",
          "name": "_destination",
          "type": "address"
        },
        {
          "internalType": "uint256",
          "name": "_amount",
          "type": "uint256"
        },
        {
          "internalType": "bytes",
          "name": "_data",
          "type": "bytes"
        }
      ],
      "name": "executeGovernorProposal",
      "outputs": [],
      "stateMutability": "nonpayable",
      "type": "function"
    },
    {
      "inputs": [
        {
          "internalType": "uint256",
          "name": "_coreDisputeID",
          "type": "uint256"
        },
        {
          "internalType": "uint256",
          "name": "_choice",
          "type": "uint256"
        }
      ],
      "name": "fundAppeal",
      "outputs": [],
      "stateMutability": "payable",
      "type": "function"
    },
    {
      "inputs": [
        {
          "internalType": "uint256",
          "name": "_coreDisputeID",
          "type": "uint256"
        },
        {
          "internalType": "uint256",
          "name": "_coreRoundID",
          "type": "uint256"
        }
      ],
      "name": "getCoherentCount",
      "outputs": [
        {
          "internalType": "uint256",
          "name": "",
          "type": "uint256"
        }
      ],
      "stateMutability": "view",
      "type": "function"
    },
    {
      "inputs": [
        {
          "internalType": "uint256",
          "name": "_coreDisputeID",
          "type": "uint256"
        },
        {
          "internalType": "uint256",
          "name": "_coreRoundID",
          "type": "uint256"
        },
        {
          "internalType": "uint256",
          "name": "_voteID",
          "type": "uint256"
        },
        {
          "internalType": "uint256",
          "name": "",
          "type": "uint256"
        },
        {
          "internalType": "uint256",
          "name": "",
          "type": "uint256"
        }
      ],
      "name": "getDegreeOfCoherence",
      "outputs": [
        {
          "internalType": "uint256",
          "name": "",
          "type": "uint256"
        }
      ],
      "stateMutability": "view",
      "type": "function"
    },
    {
      "inputs": [
        {
          "internalType": "uint256",
          "name": "_coreDisputeID",
          "type": "uint256"
        }
      ],
      "name": "getFundedChoices",
      "outputs": [
        {
          "internalType": "uint256[]",
          "name": "fundedChoices",
          "type": "uint256[]"
        }
      ],
      "stateMutability": "view",
      "type": "function"
    },
    {
      "inputs": [
        {
          "internalType": "uint256",
          "name": "_coreDisputeID",
          "type": "uint256"
        },
        {
          "internalType": "uint256",
          "name": "_coreRoundID",
          "type": "uint256"
        }
      ],
      "name": "getLocalDisputeRoundID",
      "outputs": [
        {
          "internalType": "uint256",
          "name": "localDisputeID",
          "type": "uint256"
        },
        {
          "internalType": "uint256",
          "name": "localRoundID",
          "type": "uint256"
        }
      ],
      "stateMutability": "view",
      "type": "function"
    },
    {
      "inputs": [
        {
          "internalType": "uint256",
          "name": "_localDisputeID",
          "type": "uint256"
        }
      ],
      "name": "getNumberOfRounds",
      "outputs": [
        {
          "internalType": "uint256",
          "name": "",
          "type": "uint256"
        }
      ],
      "stateMutability": "view",
      "type": "function"
    },
    {
      "inputs": [
        {
          "internalType": "uint256",
          "name": "_coreDisputeID",
          "type": "uint256"
        },
        {
          "internalType": "uint256",
          "name": "_coreRoundID",
          "type": "uint256"
        },
        {
          "internalType": "uint256",
          "name": "_choice",
          "type": "uint256"
        }
      ],
      "name": "getRoundInfo",
      "outputs": [
        {
          "internalType": "uint256",
          "name": "winningChoice",
          "type": "uint256"
        },
        {
          "internalType": "bool",
          "name": "tied",
          "type": "bool"
        },
        {
          "internalType": "uint256",
          "name": "totalVoted",
          "type": "uint256"
        },
        {
          "internalType": "uint256",
          "name": "totalCommited",
          "type": "uint256"
        },
        {
          "internalType": "uint256",
          "name": "nbVoters",
          "type": "uint256"
        },
        {
          "internalType": "uint256",
          "name": "choiceCount",
          "type": "uint256"
        }
      ],
      "stateMutability": "view",
      "type": "function"
    },
    {
      "inputs": [
        {
          "internalType": "uint256",
          "name": "_coreDisputeID",
          "type": "uint256"
        },
        {
          "internalType": "uint256",
          "name": "_coreRoundID",
          "type": "uint256"
        },
        {
          "internalType": "uint256",
          "name": "_voteID",
          "type": "uint256"
        }
      ],
      "name": "getVoteInfo",
      "outputs": [
        {
          "internalType": "address",
          "name": "account",
          "type": "address"
        },
        {
          "internalType": "bytes32",
          "name": "commit",
          "type": "bytes32"
        },
        {
          "internalType": "uint256",
          "name": "choice",
          "type": "uint256"
        },
        {
          "internalType": "bool",
          "name": "voted",
          "type": "bool"
        }
      ],
      "stateMutability": "view",
      "type": "function"
    },
    {
      "inputs": [],
      "name": "governor",
      "outputs": [
        {
          "internalType": "address",
          "name": "",
          "type": "address"
        }
      ],
      "stateMutability": "view",
      "type": "function"
    },
    {
      "inputs": [
        {
          "internalType": "uint256",
          "name": "_choice",
          "type": "uint256"
        },
        {
          "internalType": "uint256",
          "name": "_salt",
          "type": "uint256"
        },
        {
          "internalType": "string",
          "name": "_justification",
          "type": "string"
        }
      ],
      "name": "hashVote",
      "outputs": [
        {
          "internalType": "bytes32",
          "name": "",
          "type": "bytes32"
        }
      ],
      "stateMutability": "pure",
      "type": "function"
    },
    {
      "inputs": [
        {
          "internalType": "address",
          "name": "_governor",
          "type": "address"
        },
        {
          "internalType": "contract KlerosCore",
          "name": "_core",
          "type": "address"
        },
        {
          "internalType": "address",
          "name": "_wNative",
          "type": "address"
        }
      ],
      "name": "initialize",
      "outputs": [],
      "stateMutability": "nonpayable",
      "type": "function"
    },
    {
      "inputs": [
        {
          "internalType": "uint256",
          "name": "_coreDisputeID",
          "type": "uint256"
        }
      ],
      "name": "isAppealFunded",
      "outputs": [
        {
          "internalType": "bool",
          "name": "",
          "type": "bool"
        }
      ],
      "stateMutability": "view",
      "type": "function"
    },
    {
      "inputs": [
        {
          "internalType": "uint256",
          "name": "_coreDisputeID",
          "type": "uint256"
        },
        {
          "internalType": "uint256",
          "name": "_coreRoundID",
          "type": "uint256"
        },
        {
          "internalType": "uint256",
          "name": "_voteID",
          "type": "uint256"
        }
      ],
      "name": "isVoteActive",
      "outputs": [
        {
          "internalType": "bool",
          "name": "",
          "type": "bool"
        }
      ],
      "stateMutability": "view",
      "type": "function"
    },
    {
      "inputs": [],
      "name": "proxiableUUID",
      "outputs": [
        {
          "internalType": "bytes32",
          "name": "",
          "type": "bytes32"
        }
      ],
      "stateMutability": "view",
      "type": "function"
    },
    {
      "inputs": [
        {
          "internalType": "address",
          "name": "_wNative",
          "type": "address"
        }
      ],
      "name": "reinitialize",
      "outputs": [],
      "stateMutability": "nonpayable",
      "type": "function"
    },
    {
      "inputs": [],
      "name": "singleDrawPerJuror",
      "outputs": [
        {
          "internalType": "bool",
          "name": "",
          "type": "bool"
        }
      ],
      "stateMutability": "view",
      "type": "function"
    },
    {
      "inputs": [
        {
          "internalType": "address",
          "name": "newImplementation",
          "type": "address"
        },
        {
          "internalType": "bytes",
          "name": "data",
          "type": "bytes"
        }
      ],
      "name": "upgradeToAndCall",
      "outputs": [],
      "stateMutability": "payable",
      "type": "function"
    },
    {
      "inputs": [],
      "name": "version",
      "outputs": [
        {
          "internalType": "string",
          "name": "",
          "type": "string"
        }
      ],
      "stateMutability": "view",
      "type": "function"
    },
    {
      "inputs": [],
      "name": "wNative",
      "outputs": [
        {
          "internalType": "address",
          "name": "",
          "type": "address"
        }
      ],
      "stateMutability": "view",
      "type": "function"
    },
    {
      "inputs": [
        {
          "internalType": "uint256",
          "name": "_coreDisputeID",
          "type": "uint256"
        },
        {
          "internalType": "address payable",
          "name": "_beneficiary",
          "type": "address"
        },
        {
          "internalType": "uint256",
          "name": "_coreRoundID",
          "type": "uint256"
        },
        {
          "internalType": "uint256",
          "name": "_choice",
          "type": "uint256"
        }
      ],
      "name": "withdrawFeesAndRewards",
      "outputs": [
        {
          "internalType": "uint256",
          "name": "amount",
          "type": "uint256"
        }
      ],
      "stateMutability": "nonpayable",
      "type": "function"
    }
  ],
  "transactionHash": "0x4e461a0cc70201b7f6b702b6d4956f868c72bbb3a0013f41cb71be8ea04dc5d7",
  "args": [],
  "numDeployments": 2,
  "solcInputHash": "726fe29d8d9c48c46571792cebc6e314",
  "bytecode": "0x60a06040523060805234801561001457600080fd5b5061001d610022565b6100d3565b7ff0c57e16840df040f15088dc2f81fe391c3923bec73e23a9662efc9c229c6a0e805468010000000000000000900460ff16156100715760405162dc149f60e41b815260040160405180910390fd5b80546001600160401b03908116146100d05780546001600160401b0319166001600160401b0390811782556040519081527fc7f505b2f371ae2175ee4913f4499e1f2633a7b5936321eed1cdaeb6115181d29060200160405180910390a15b50565b6080516146976100fc600039600081816119420152818161196b0152611b6301526146976000f3fe6080604052600436106102465760003560e01c80636d4cd8ea11610139578063be467604116100b6578063e4c0aaf41161007a578063e4c0aaf41461075e578063f2f4eb261461077e578063f32ab9271461079e578063f7e7d1fd146107d3578063f8abee10146107f3578063fc6f8f161461082357600080fd5b8063be467604146106e8578063c0c53b8b146106fe578063d2b8035a1461071e578063da3beb8c1461073e578063e349ad30146105d057600080fd5b80638f06f112116100fd5780638f06f11214610626578063a7cc08fe14610646578063b34bfaa814610692578063b6ede540146106a8578063ba66fde7146106c857600080fd5b80636d4cd8ea14610590578063751accd0146105b0578063796490f9146105d05780637c04034e146105e65780638e4264601461060657600080fd5b80634b2f0ea0116101c75780635a155ccd1161018b5780635a155ccd146104955780635c92e2f6146104d657806365540b96146104f6578063675926f61461052357806369f3f0411461054357600080fd5b80634b2f0ea0146103ec5780634f1ef286146103ff57806352d1902d1461041257806354fd4d5014610427578063564a565d1461046657600080fd5b80631c3db16d1161020e5780631c3db16d146103355780631cc3423a146103725780632621b9a2146103925780632d68efc9146103ac578063362c3479146103cc57600080fd5b80630855bbe91461024b57806309cc41b8146102805780630baa64d1146102a25780630c340a24146102c25780631200aabc146102fa575b600080fd5b34801561025757600080fd5b5061026b610266366004613a09565b610843565b60405190151581526020015b60405180910390f35b34801561028c57600080fd5b506102a061029b366004613aae565b61090b565b005b3480156102ae57600080fd5b5061026b6102bd366004613a09565b6109c9565b3480156102ce57600080fd5b506000546102e2906001600160a01b031681565b6040516001600160a01b039091168152602001610277565b34801561030657600080fd5b50610327610315366004613a09565b60036020526000908152604090205481565b604051908152602001610277565b34801561034157600080fd5b50610355610350366004613a09565b610a40565b604080519384529115156020840152151590820152606001610277565b34801561037e57600080fd5b5061032761038d366004613be8565b610bae565b34801561039e57600080fd5b5060045461026b9060ff1681565b3480156103b857600080fd5b506007546102e2906001600160a01b031681565b3480156103d857600080fd5b506103276103e7366004613c4c565b610bee565b6102a06103fa366004613c89565b61109e565b6102a061040d366004613cab565b61192e565b34801561041e57600080fd5b50610327611b56565b34801561043357600080fd5b50610459604051806040016040528060068152602001650302e31322e360d41b81525081565b6040516102779190613d4a565b34801561047257600080fd5b50610486610481366004613a09565b611bb4565b60405161027793929190613d5d565b3480156104a157600080fd5b5061026b6104b0366004613d7e565b600560209081526000938452604080852082529284528284209052825290205460ff1681565b3480156104e257600080fd5b506102a06104f1366004613db7565b611c7a565b34801561050257600080fd5b50610516610511366004613a09565b611c86565b6040516102779190613e09565b34801561052f57600080fd5b5061032761053e366004613e4c565b611d4a565b34801561054f57600080fd5b5061056361055e366004613e87565b611e8d565b604080519687529415156020870152938501929092526060840152608083015260a082015260c001610277565b34801561059c57600080fd5b5061026b6105ab366004613a09565b611f45565b3480156105bc57600080fd5b506102a06105cb366004613eb3565b6120c8565b3480156105dc57600080fd5b5061032761271081565b3480156105f257600080fd5b506102a0610601366004613ef5565b612194565b34801561061257600080fd5b506102a0610621366004613f7d565b6121ab565b34801561063257600080fd5b506102a0610641366004613ef5565b6121f7565b34801561065257600080fd5b50610666610661366004613e87565b6122bd565b604080516001600160a01b03909516855260208501939093529183015215156060820152608001610277565b34801561069e57600080fd5b50610327614e2081565b3480156106b457600080fd5b506102a06106c3366004613f9a565b612383565b3480156106d457600080fd5b5061026b6106e3366004613e87565b612576565b3480156106f457600080fd5b5061032761138881565b34801561070a57600080fd5b506102a0610719366004613ff4565b612611565b34801561072a57600080fd5b506102e2610739366004613c89565b6126db565b34801561074a57600080fd5b50610327610759366004613c89565b612a2a565b34801561076a57600080fd5b506102a0610779366004613f7d565b612b7d565b34801561078a57600080fd5b506001546102e2906001600160a01b031681565b3480156107aa57600080fd5b506107be6107b9366004613c89565b612bc9565b60408051928352602083019190915201610277565b3480156107df57600080fd5b506102a06107ee366004613f7d565b612c1b565b3480156107ff57600080fd5b5061026b61080e366004613a09565b60066020526000908152604090205460ff1681565b34801561082f57600080fd5b5061032761083e366004613a09565b612ced565b60015460405163afe15cfb60e01b815260048101839052600091829182916001600160a01b03169063afe15cfb906024016040805180830381865afa158015610890573d6000803e3d6000fd5b505050506040513d601f19601f820116820180604052508101906108b49190614034565b9150915060006108c385611c86565b90508051600014801561090257506127106113886108e1858561406e565b6108eb9190614081565b6108f59190614098565b6108ff844261406e565b10155b95945050505050565b60008781526003602052604090205460028054899290811061092f5761092f6140ba565b600091825260209091206002600590920201015460ff161561096c5760405162461bcd60e51b8152600401610963906140d0565b60405180910390fd5b61097888888888612d19565b84336001600160a01b0316897fbc1efa6396a4ba1a755245703b38c48fbe744ab5117d9f09f47d26ffc1df999e8787876040516109b793929190614130565b60405180910390a45050505050505050565b6000818152600360205260408120546002805483929081106109ed576109ed6140ba565b60009182526020822060059091020180549092508290610a0f9060019061406e565b81548110610a1f57610a1f6140ba565b60009182526020909120600c90910201805460059091015414949350505050565b6000806000806002600360008781526020019081526020016000205481548110610a6c57610a6c6140ba565b60009182526020822060059091020180549092508290610a8e9060019061406e565b81548110610a9e57610a9e6140ba565b60009182526020909120600c90910201600381015460ff169450905083610ac9578060010154610acc565b60005b60015460405163564a565d60e01b8152600481018990529196506000916001600160a01b039091169063564a565d9060240160a060405180830381865afa158015610b1b573d6000803e3d6000fd5b505050506040513d601f19601f82011682018060405250810190610b3f9190614176565b5090935060049250610b4f915050565b816004811115610b6157610b616141df565b03610ba4576000610b7188611c86565b90508051600103610ba25780600081518110610b8f57610b8f6140ba565b6020026020010151965060009550600194505b505b5050509193909250565b80516020808301919091206040805180840187905280820186905260608082019390935281518082039093018352608001905280519101205b9392505050565b60015460405163564a565d60e01b81526004810186905260009182916001600160a01b039091169063564a565d9060240160a060405180830381865afa158015610c3c573d6000803e3d6000fd5b505050506040513d601f19601f82011682018060405250810190610c609190614176565b50935050505080610cb35760405162461bcd60e51b815260206004820152601b60248201527f446973707574652073686f756c64206265207265736f6c7665642e00000000006044820152606401610963565b600160009054906101000a90046001600160a01b03166001600160a01b0316635c975abb6040518163ffffffff1660e01b8152600401602060405180830381865afa158015610d06573d6000803e3d6000fd5b505050506040513d601f19601f82011682018060405250810190610d2a91906141f5565b15610d685760405162461bcd60e51b815260206004820152600e60248201526d10dbdc99481a5cc81c185d5cd95960921b6044820152606401610963565b60008681526006602052604090205460ff16610d965760405162461bcd60e51b815260040161096390614210565b600086815260036020526040812054600280549091908110610dba57610dba6140ba565b60009182526020808320888452600360059093020191820190526040822054815491935083918110610dee57610dee6140ba565b600091825260208220600154604051631c3db16d60e01b8152600481018d9052600c9390930290910193506001600160a01b031690631c3db16d90602401606060405180830381865afa158015610e49573d6000803e3d6000fd5b505050506040513d601f19601f82011682018060405250810190610e6d9190614247565b5050600087815260078401602052604090205490915060ff16610eb7576001600160a01b038816600090815260088301602090815260408083208984529091529020549450610ffc565b808603610f2c576000868152600683016020526040902054610eda576000610f25565b600086815260068301602090815260408083205460098601546001600160a01b038d1685526008870184528285208b8652909352922054610f1b9190614081565b610f259190614098565b9450610ffc565b600081815260078301602052604090205460ff16610ffc5781600601600083600a01600181548110610f6057610f606140ba565b906000526020600020015481526020019081526020016000205482600601600084600a01600081548110610f9657610f966140ba565b9060005260206000200154815260200190815260200160002054610fba9190614283565b60098301546001600160a01b038a16600090815260088501602090815260408083208b8452909152902054610fef9190614081565b610ff99190614098565b94505b6001600160a01b03881660009081526008830160209081526040808320898452909152812055841561109257600754611043906001600160a01b038a81169188911661307c565b876001600160a01b0316878a7f54b3cab3cb5c4aca3209db1151caff092e878011202e43a36782d4ebe0b963ae8989604051611089929190918252602082015260400190565b60405180910390a45b50505050949350505050565b6000828152600360205260409020546002805484929081106110c2576110c26140ba565b600091825260209091206002600590920201015460ff16156110f65760405162461bcd60e51b8152600401610963906140d0565b60008381526003602052604081205460028054909190811061111a5761111a6140ba565b90600052602060002090600502019050806001015483111561117e5760405162461bcd60e51b815260206004820181905260248201527f5468657265206973206e6f20737563682072756c696e6720746f2066756e642e6044820152606401610963565b60008481526006602052604090205460ff166111ac5760405162461bcd60e51b815260040161096390614210565b60015460405163afe15cfb60e01b81526004810186905260009182916001600160a01b039091169063afe15cfb906024016040805180830381865afa1580156111f9573d6000803e3d6000fd5b505050506040513d601f19601f8201168201806040525081019061121d9190614034565b9150915081421015801561123057508042105b6112755760405162461bcd60e51b815260206004820152601660248201527520b83832b0b6103832b934b7b21034b99037bb32b91760511b6044820152606401610963565b604051631c3db16d60e01b81526004810187905260009081903090631c3db16d90602401606060405180830381865afa1580156112b6573d6000803e3d6000fd5b505050506040513d601f19601f820116820180604052508101906112da9190614247565b505090508681036112ef576127109150611370565b6127106113886112ff868661406e565b6113099190614081565b6113139190614098565b61131d854261406e565b1061136a5760405162461bcd60e51b815260206004820152601f60248201527f41707065616c20706572696f64206973206f76657220666f72206c6f736572006044820152606401610963565b614e2091505b845460009086906113839060019061406e565b81548110611393576113936140ba565b60009182526020822060018054604051637e37c78b60e11b8152600481018f9052600c949094029092019450916001600160a01b039091169063fc6f8f1690602401602060405180830381865afa1580156113f2573d6000803e3d6000fd5b505050506040513d601f19601f820116820180604052508101906114169190614296565b611420919061406e565b60008a815260078401602052604090205490915060ff16156114845760405162461bcd60e51b815260206004820152601b60248201527f41707065616c2066656520697320616c726561647920706169642e00000000006044820152606401610963565b600154604051632cf6413f60e11b8152600481018c90526000916001600160a01b0316906359ec827e90602401602060405180830381865afa1580156114ce573d6000803e3d6000fd5b505050506040513d601f19601f820116820180604052508101906114f29190614296565b905060006127106115038784614081565b61150d9190614098565b6115179083614283565b60008c8152600686016020526040812054919250908211156115c85760008c81526006860160205260409020543490611550908461406e565b116115755760008c8152600686016020526040902054611570908361406e565b611577565b345b9050336001600160a01b0316848e7fcae597f39a3ad75c2e10d46b031f023c5c2babcd58ca0491b122acda3968d4c08f856040516115bf929190918252602082015260400190565b60405180910390a45b33600090815260088601602090815260408083208f8452909152812080548392906115f4908490614283565b909155505060008c815260068601602052604081208054839290611619908490614283565b909155505060008c815260068601602052604090205482116116eb5760008c81526006860160205260408120546009870180549192909161165b908490614283565b9250508190555084600a018c908060018154018082558091505060019003906000526020600020016000909190919091505560018560070160008e815260200190815260200160002060006101000a81548160ff0219169083151502179055508b848e7fed764996238e4c1c873ae3af7ae2f00f1f6f4f10b9ac7d4bbea4a764c5dea00960405160405180910390a45b600a850154600110156118f657828560090154611708919061406e565b60098601556001546040516319b8152960e01b8152600481018f90526001600160a01b03909116906319b8152990602401602060405180830381865afa158015611756573d6000803e3d6000fd5b505050506040513d601f19601f8201168201806040525081019061177a91906141f5565b156117935760028a01805460ff19166001179055611876565b895460038b0160006117a6876001614283565b81526020019081526020016000208190555060008a6000016001816001815401808255809150500390600052602060002090600c02019050600160009054906101000a90046001600160a01b03166001600160a01b031663c71f42538f6040518263ffffffff1660e01b815260040161182191815260200190565b602060405180830381865afa15801561183e573d6000803e3d6000fd5b505050506040513d601f19601f820116820180604052508101906118629190614296565b600b820155600301805460ff191660011790555b600160009054906101000a90046001600160a01b03166001600160a01b031663c3569902848f8d600101548e6004016040518563ffffffff1660e01b81526004016118c3939291906142e9565b6000604051808303818588803b1580156118dc57600080fd5b505af11580156118f0573d6000803e3d6000fd5b50505050505b8034111561191f5761191f61190b823461406e565b6007543391906001600160a01b031661307c565b50505050505050505050505050565b61193782613167565b306001600160a01b037f00000000000000000000000000000000000000000000000000000000000000001614806119b557507f00000000000000000000000000000000000000000000000000000000000000006001600160a01b03166119a96000805160206146428339815191525490565b6001600160a01b031614155b156119d35760405163703e46dd60e11b815260040160405180910390fd5b816001600160a01b03166352d1902d6040518163ffffffff1660e01b8152600401602060405180830381865afa925050508015611a2d575060408051601f3d908101601f19168201909252611a2a91810190614296565b60015b611a5557604051630c76093760e01b81526001600160a01b0383166004820152602401610963565b6000805160206146428339815191528114611a8657604051632a87526960e21b815260048101829052602401610963565b6000805160206146428339815191528390556040516001600160a01b038416907fbc7cd75a20ee27fd9adebab32041f755214dbc6bffa90cc0225b39da2e5c2d3b90600090a2815115611b51576000836001600160a01b031683604051611aed9190614383565b600060405180830381855af49150503d8060008114611b28576040519150601f19603f3d011682016040523d82523d6000602084013e611b2d565b606091505b5050905080611b4f576040516339b21b5d60e11b815260040160405180910390fd5b505b505050565b6000306001600160a01b037f00000000000000000000000000000000000000000000000000000000000000001614611ba15760405163703e46dd60e11b815260040160405180910390fd5b5060008051602061464283398151915290565b60028181548110611bc457600080fd5b600091825260209091206005909102016001810154600282015460048301805492945060ff9091169291611bf7906142af565b80601f0160208091040260200160405190810160405280929190818152602001828054611c23906142af565b8015611c705780601f10611c4557610100808354040283529160200191611c70565b820191906000526020600020905b815481529060010190602001808311611c5357829003601f168201915b5050505050905083565b611b4f84848484612d19565b6000818152600360205260408120546002805460609392908110611cac57611cac6140ba565b60009182526020822060059091020180549092508290611cce9060019061406e565b81548110611cde57611cde6140ba565b90600052602060002090600c0201905080600a01805480602002602001604051908101604052809291908181526020018280548015611d3c57602002820191906000526020600020905b815481526020019060010190808311611d28575b505050505092505050919050565b600085815260036020526040812054600280548392908110611d6e57611d6e6140ba565b60009182526020808320898452600360059093020191820190526040822054815491935083918110611da257611da26140ba565b90600052602060002090600c02016000018681548110611dc457611dc46140ba565b600091825260208220600154604051631c3db16d60e01b815260048082018e905293909302909101935082916001600160a01b0390911690631c3db16d90602401606060405180830381865afa158015611e22573d6000803e3d6000fd5b505050506040513d601f19601f82011682018060405250810190611e469190614247565b506003850154919350915060ff168015611e6a57508183600201541480611e6a5750805b15611e7d57612710945050505050610902565b5060009998505050505050505050565b60008060008060008060006002600360008c81526020019081526020016000205481548110611ebe57611ebe6140ba565b600091825260208083208c8452600360059093020191820190526040822054815491935083918110611ef257611ef26140ba565b600091825260208083206001600c909302019182015460038301546004840154600585015485549f87526002909501909352604090942054909f60ff9094169e50909c50909a9950975095505050505050565b600081815260036020526040812054600280548392908110611f6957611f696140ba565b60009182526020822060059091020180549092508290611f8b9060019061406e565b81548110611f9b57611f9b6140ba565b60009182526020822060015460405163564a565d60e01b815260048101899052600c9390930290910193506001600160a01b03169063564a565d9060240160a060405180830381865afa158015611ff6573d6000803e3d6000fd5b505050506040513d601f19601f8201168201806040525081019061201a9190614176565b5050600154604051630fad06e960e11b81526001600160601b03851660048201529394506000936001600160a01b039091169250631f5a0dd2915060240160e060405180830381865afa158015612075573d6000803e3d6000fd5b505050506040513d601f19601f82011682018060405250810190612099919061439f565b50505050509150506000816120af5783546120b5565b83600501545b6004909401549093149695505050505050565b6000546001600160a01b031633146120f25760405162461bcd60e51b81526004016109639061440b565b6000836001600160a01b0316838360405161210d9190614383565b60006040518083038185875af1925050503d806000811461214a576040519150601f19603f3d011682016040523d82523d6000602084013e61214f565b606091505b5050905080611b4f5760405162461bcd60e51b8152602060048201526011602482015270155b9cdd58d8d95cdcd99d5b0818d85b1b607a1b6044820152606401610963565b6121a386868686868633613194565b505050505050565b6000546001600160a01b031633146121d55760405162461bcd60e51b81526004016109639061440b565b600180546001600160a01b0319166001600160a01b0392909216919091179055565b60008681526003602052604081205460028054909190811061221b5761221b6140ba565b6000918252602082206005909102018054909250829061223d9060019061406e565b8154811061224d5761224d6140ba565b90600052602060002090600c020160000187876000818110612271576122716140ba565b9050602002013581548110612288576122886140ba565b60009182526020909120600490910201546001600160a01b031690506122b388888888888887613194565b5050505050505050565b60008060008060006002600360008a815260200190815260200160002054815481106122eb576122eb6140ba565b600091825260208083208a845260036005909302019182019052604082205481549193508391811061231f5761231f6140ba565b90600052602060002090600c02016000018781548110612341576123416140ba565b600091825260209091206004909102018054600182015460028301546003909301546001600160a01b039092169c909b5091995060ff16975095505050505050565b6001546001600160a01b031633146123ad5760405162461bcd60e51b81526004016109639061444d565b60028054600181018255600091909152600581027f405787fa12a823e0f2b7631cc41b3ba8828b3321ca811111fa75cd3aa3bb5acf81018690557f405787fa12a823e0f2b7631cc41b3ba8828b3321ca811111fa75cd3aa3bb5ace8101907f405787fa12a823e0f2b7631cc41b3ba8828b3321ca811111fa75cd3aa3bb5ad2016124388587836144df565b5060028101805460ff19169055805460018054604051637e37c78b60e11b8152600481018b9052600385019260009290916001600160a01b039091169063fc6f8f1690602401602060405180830381865afa15801561249b573d6000803e3d6000fd5b505050506040513d601f19601f820116820180604052508101906124bf9190614296565b6124c9919061406e565b81526020808201929092526040908101600090812093909355835460018082018655858552838520600c909202909101600b81018890556003808201805460ff1990811685179091558d87529085528386208890556006909452938290208054909316179091555188907fd3106f74c2d30a4b9230e756a3e78bde53865d40f6af4c479bb010ebaab5810890612564908a908a908a90614130565b60405180910390a25050505050505050565b60008381526003602052604081205460028054839290811061259a5761259a6140ba565b600091825260208083208784526003600590930201918201905260408220548154919350839181106125ce576125ce6140ba565b90600052602060002090600c020160000184815481106125f0576125f06140ba565b600091825260209091206004909102016003015460ff169695505050505050565b6001600061261d6138c5565b8054909150600160401b900460ff1680612644575080546001600160401b03808416911610155b156126615760405162dc149f60e41b815260040160405180910390fd5b805468ffffffffffffffffff19166001600160401b03831617600160401b17815561268d8585856138e9565b805460ff60401b191681556040516001600160401b03831681527fc7f505b2f371ae2175ee4913f4499e1f2633a7b5936321eed1cdaeb6115181d29060200160405180910390a15050505050565b6001546000906001600160a01b031633146127085760405162461bcd60e51b81526004016109639061444d565b60008381526003602052604090205460028054859290811061272c5761272c6140ba565b600091825260209091206002600590920201015460ff16156127605760405162461bcd60e51b8152600401610963906140d0565b6000848152600360205260408120546002805491929183908110612786576127866140ba565b60009182526020822060059091020180549092506127a69060019061406e565b905060008260000182815481106127bf576127bf6140ba565b90600052602060002090600c020190506000600160009054906101000a90046001600160a01b03166001600160a01b0316632e1daf2f6040518163ffffffff1660e01b8152600401602060405180830381865afa158015612824573d6000803e3d6000fd5b505050506040513d601f19601f82011682018060405250810190612848919061459e565b60015460405163564a565d60e01b8152600481018c90529192506000916001600160a01b039091169063564a565d9060240160a060405180830381865afa158015612897573d6000803e3d6000fd5b505050506040513d601f19601f820116820180604052508101906128bb9190614176565b5050604051632638506b60e11b81526001600160601b03841660048201819052602482018f9052604482018e90529394506001600160a01b0386169250634c70a0d69150606401602060405180830381865afa15801561291f573d6000803e3d6000fd5b505050506040513d601f19601f82011682018060405250810190612943919061459e565b98506001600160a01b03891661295f5750505050505050612a23565b61296a848c8b613930565b15612a1657604080516080810182526001600160a01b03808c1680835260006020808501828152858701838152606087018481528c5460018181018f558e8752858720995160049092029099018054919098166001600160a01b0319909116178755915186880155516002860155516003909401805494151560ff199586161790558c8252600581528582208b8352815285822092825291909152929092208054909216179055612a1b565b600098505b505050505050505b5092915050565b600082815260036020526040812054600280548392908110612a4e57612a4e6140ba565b60009182526020808320868452600360059093020191820190526040822054815491935083918110612a8257612a826140ba565b600091825260208220600154604051631c3db16d60e01b8152600481018a9052600c93909302909101935082916001600160a01b0390911690631c3db16d90602401606060405180830381865afa158015612ae1573d6000803e3d6000fd5b505050506040513d601f19601f82011682018060405250810190612b059190614247565b5091509150826004015460001480612b34575080158015612b3457506000828152600284016020526040902054155b15612b46576000945050505050612b77565b8015612b5b575050600401549150612b779050565b506000908152600290910160205260409020549150612b779050565b92915050565b6000546001600160a01b03163314612ba75760405162461bcd60e51b81526004016109639061440b565b600080546001600160a01b0319166001600160a01b0392909216919091179055565b6000828152600360205260408120546002805491929183908110612bef57612bef6140ba565b906000526020600020906005020160030160008481526020019081526020016000205490509250929050565b60096000612c276138c5565b8054909150600160401b900460ff1680612c4e575080546001600160401b03808416911610155b15612c6b5760405162dc149f60e41b815260040160405180910390fd5b8054600160401b6001600160401b03841668ffffffffffffffffff199092168217178255600780546001600160a01b0319166001600160a01b038616179055815460ff60401b191682556040519081527fc7f505b2f371ae2175ee4913f4499e1f2633a7b5936321eed1cdaeb6115181d29060200160405180910390a1505050565b600060028281548110612d0257612d026140ba565b600091825260209091206005909102015492915050565b600084815260036020526040902054600280548692908110612d3d57612d3d6140ba565b600091825260209091206002600590920201015460ff1615612d715760405162461bcd60e51b8152600401610963906140d0565b60015460405163564a565d60e01b8152600481018790526000916001600160a01b03169063564a565d9060240160a060405180830381865afa158015612dbb573d6000803e3d6000fd5b505050506040513d601f19601f82011682018060405250810190612ddf9190614176565b5090935060019250612def915050565b816004811115612e0157612e016141df565b14612e5e5760405162461bcd60e51b815260206004820152602760248201527f54686520646973707574652073686f756c6420626520696e20436f6d6d6974206044820152663832b934b7b21760c91b6064820152608401610963565b82612e9b5760405162461bcd60e51b815260206004820152600d60248201526c22b6b83a3c9031b7b6b6b4ba1760991b6044820152606401610963565b60008681526006602052604090205460ff16612ec95760405162461bcd60e51b815260040161096390614210565b600086815260036020526040812054600280549091908110612eed57612eed6140ba565b60009182526020822060059091020180549092508290612f0f9060019061406e565b81548110612f1f57612f1f6140ba565b90600052602060002090600c0201905060005b86811015613015573382898984818110612f4e57612f4e6140ba565b9050602002013581548110612f6557612f656140ba565b60009182526020909120600490910201546001600160a01b031614612fcc5760405162461bcd60e51b815260206004820152601f60248201527f5468652063616c6c65722068617320746f206f776e2074686520766f74652e006044820152606401610963565b8582898984818110612fe057612fe06140ba565b9050602002013581548110612ff757612ff76140ba565b60009182526020909120600160049092020181019190915501612f32565b508686905081600501600082825461302d9190614283565b9091555050604051339089907f05cc2f1c94966f1c961b410a50f3d3ffb64501346753a258177097ea23707f089061306a908b908b908b906145ed565b60405180910390a35050505050505050565b6040516001600160a01b0384169083156108fc029084906000818181858888f19350505050156130ab57505050565b806001600160a01b031663d0e30db0836040518263ffffffff1660e01b81526004016000604051808303818588803b1580156130e657600080fd5b505af11580156130fa573d6000803e3d6000fd5b505060405163a9059cbb60e01b81526001600160a01b038781166004830152602482018790528516935063a9059cbb92506044019050600060405180830381600087803b15801561314a57600080fd5b505af115801561315e573d6000803e3d6000fd5b50505050505050565b6000546001600160a01b031633146131915760405162461bcd60e51b81526004016109639061440b565b50565b6000878152600360205260409020546002805489929081106131b8576131b86140ba565b600091825260209091206002600590920201015460ff16156131ec5760405162461bcd60e51b8152600401610963906140d0565b60015460405163564a565d60e01b8152600481018a90526000916001600160a01b03169063564a565d9060240160a060405180830381865afa158015613236573d6000803e3d6000fd5b505050506040513d601f19601f8201168201806040525081019061325a9190614176565b509093506002925061326a915050565b81600481111561327c5761327c6141df565b146132d75760405162461bcd60e51b815260206004820152602560248201527f54686520646973707574652073686f756c6420626520696e20566f74652070656044820152643934b7b21760d91b6064820152608401610963565b866133195760405162461bcd60e51b8152602060048201526012602482015271139bc81d9bdd195251081c1c9bdd9a59195960721b6044820152606401610963565b60008981526006602052604090205460ff166133475760405162461bcd60e51b815260040161096390614210565b60008981526003602052604081205460028054909190811061336b5761336b6140ba565b9060005260206000209060050201905080600101548711156133c65760405162461bcd60e51b815260206004820152601460248201527343686f696365206f7574206f6620626f756e647360601b6044820152606401610963565b805460009082906133d99060019061406e565b815481106133e9576133e96140ba565b60009182526020822060015460405163564a565d60e01b8152600c90930290910193506001600160a01b03169063564a565d9061342e908f9060040190815260200190565b60a060405180830381865afa15801561344b573d6000803e3d6000fd5b505050506040513d601f19601f8201168201806040525081019061346f9190614176565b5050600154604051630fad06e960e11b81526001600160601b03851660048201529394506000936001600160a01b039091169250631f5a0dd2915060240160e060405180830381865afa1580156134ca573d6000803e3d6000fd5b505050506040513d601f19601f820116820180604052508101906134ee919061439f565b505050505091505060006135038b8b8b610bae565b905060005b8c81101561378a576001600160a01b038916858f8f8481811061352d5761352d6140ba565b9050602002013581548110613544576135446140ba565b60009182526020909120600490910201546001600160a01b0316146135ab5760405162461bcd60e51b815260206004820152601e60248201527f546865206a75726f722068617320746f206f776e2074686520766f74652e00006044820152606401610963565b8215806135f2575081858f8f848181106135c7576135c76140ba565b90506020020135815481106135de576135de6140ba565b906000526020600020906004020160010154145b6136725760405162461bcd60e51b8152602060048201526044602482018190527f54686520766f74652068617368206d757374206d617463682074686520636f6d908201527f6d69746d656e7420696e20636f7572747320776974682068696464656e20766f6064820152633a32b99760e11b608482015260a401610963565b848e8e83818110613685576136856140ba565b905060200201358154811061369c5761369c6140ba565b600091825260209091206003600490920201015460ff16156136f55760405162461bcd60e51b81526020600482015260126024820152712b37ba329030b63932b0b23c9031b0b9ba1760711b6044820152606401610963565b8b858f8f84818110613709576137096140ba565b9050602002013581548110613720576137206140ba565b60009182526020909120600260049092020101556001858f8f84818110613749576137496140ba565b9050602002013581548110613760576137606140ba565b60009182526020909120600490910201600301805460ff1916911515919091179055600101613508565b5050506004820180548b92506000906137a4908490614283565b90915550506000888152600282016020526040812080548b92906137c9908490614283565b9091555050600181015488036137f857600381015460ff16156137f35760038101805460ff191690555b613871565b60018101546000908152600282016020526040808220548a83529120540361383a57600381015460ff166137f35760038101805460ff19166001179055613871565b60018101546000908152600282016020526040808220548a83529120541115613871576001810188905560038101805460ff191690555b87856001600160a01b03168c7fa000893c71384499023d2d7b21234f7b9e80c78e0330f357dcd667ff578bd3a48d8d8b6040516138b093929190614611565b60405180910390a45050505050505050505050565b7ff0c57e16840df040f15088dc2f81fe391c3923bec73e23a9662efc9c229c6a0e90565b6138f16139c8565b600080546001600160a01b039485166001600160a01b031991821617909155600180549385169382169390931790925560078054919093169116179055565b60045460009060ff16156139be576000838152600360205260408120546002805491929183908110613964576139646140ba565b60009182526020822060059091020180549092506139849060019061406e565b60009384526005602090815260408086209286529181528185206001600160a01b038816865290529092205460ff16159250610be7915050565b5060019392505050565b6139d06139ef565b6139ed57604051631afcd79f60e31b815260040160405180910390fd5b565b60006139f96138c5565b54600160401b900460ff16919050565b600060208284031215613a1b57600080fd5b5035919050565b60008083601f840112613a3457600080fd5b5081356001600160401b03811115613a4b57600080fd5b6020830191508360208260051b8501011115613a6657600080fd5b9250929050565b60008083601f840112613a7f57600080fd5b5081356001600160401b03811115613a9657600080fd5b602083019150836020828501011115613a6657600080fd5b600080600080600080600060a0888a031215613ac957600080fd5b8735965060208801356001600160401b03811115613ae657600080fd5b613af28a828b01613a22565b909750955050604088013593506060880135925060808801356001600160401b03811115613b1f57600080fd5b613b2b8a828b01613a6d565b989b979a50959850939692959293505050565b634e487b7160e01b600052604160045260246000fd5b600082601f830112613b6557600080fd5b8135602083016000806001600160401b03841115613b8557613b85613b3e565b50604051601f19601f85018116603f011681018181106001600160401b0382111715613bb357613bb3613b3e565b604052838152905080828401871015613bcb57600080fd5b838360208301376000602085830101528094505050505092915050565b600080600060608486031215613bfd57600080fd5b833592506020840135915060408401356001600160401b03811115613c2157600080fd5b613c2d86828701613b54565b9150509250925092565b6001600160a01b038116811461319157600080fd5b60008060008060808587031215613c6257600080fd5b843593506020850135613c7481613c37565b93969395505050506040820135916060013590565b60008060408385031215613c9c57600080fd5b50508035926020909101359150565b60008060408385031215613cbe57600080fd5b8235613cc981613c37565b915060208301356001600160401b03811115613ce457600080fd5b613cf085828601613b54565b9150509250929050565b60005b83811015613d15578181015183820152602001613cfd565b50506000910152565b60008151808452613d36816020860160208601613cfa565b601f01601f19169290920160200192915050565b602081526000610be76020830184613d1e565b83815282151560208201526060604082015260006109026060830184613d1e565b600080600060608486031215613d9357600080fd5b83359250602084013591506040840135613dac81613c37565b809150509250925092565b60008060008060608587031215613dcd57600080fd5b8435935060208501356001600160401b03811115613dea57600080fd5b613df687828801613a22565b9598909750949560400135949350505050565b602080825282518282018190526000918401906040840190835b81811015613e41578351835260209384019390920191600101613e23565b509095945050505050565b600080600080600060a08688031215613e6457600080fd5b505083359560208501359550604085013594606081013594506080013592509050565b600080600060608486031215613e9c57600080fd5b505081359360208301359350604090920135919050565b600080600060608486031215613ec857600080fd5b8335613ed381613c37565b92506020840135915060408401356001600160401b03811115613c2157600080fd5b60008060008060008060a08789031215613f0e57600080fd5b8635955060208701356001600160401b03811115613f2b57600080fd5b613f3789828a01613a22565b909650945050604087013592506060870135915060808701356001600160401b03811115613f6457600080fd5b613f7089828a01613b54565b9150509295509295509295565b600060208284031215613f8f57600080fd5b8135610be781613c37565b600080600080600060808688031215613fb257600080fd5b853594506020860135935060408601356001600160401b03811115613fd657600080fd5b613fe288828901613a6d565b96999598509660600135949350505050565b60008060006060848603121561400957600080fd5b833561401481613c37565b9250602084013561402481613c37565b91506040840135613dac81613c37565b6000806040838503121561404757600080fd5b505080516020909101519092909150565b634e487b7160e01b600052601160045260246000fd5b81810381811115612b7757612b77614058565b8082028115828204841417612b7757612b77614058565b6000826140b557634e487b7160e01b600052601260045260246000fd5b500490565b634e487b7160e01b600052603260045260246000fd5b6020808252601e908201527f44697370757465206a756d70656420746f206120706172656e7420444b210000604082015260600190565b81835281816020850137506000828201602090810191909152601f909101601f19169091010190565b838152604060208201526000610902604083018486614107565b80516001600160601b038116811461416157600080fd5b919050565b8051801515811461416157600080fd5b600080600080600060a0868803121561418e57600080fd5b6141978661414a565b945060208601516141a781613c37565b6040870151909450600581106141bc57600080fd5b92506141ca60608701614166565b60809690960151949793965091949392915050565b634e487b7160e01b600052602160045260246000fd5b60006020828403121561420757600080fd5b610be782614166565b6020808252601e908201527f4e6f742061637469766520666f7220636f726520646973707574652049440000604082015260600190565b60008060006060848603121561425c57600080fd5b8351925061426c60208501614166565b915061427a60408501614166565b90509250925092565b80820180821115612b7757612b77614058565b6000602082840312156142a857600080fd5b5051919050565b600181811c908216806142c357607f821691505b6020821081036142e357634e487b7160e01b600052602260045260246000fd5b50919050565b838152826020820152606060408201526000808354614307816142af565b8060608601526001821660008114614326576001811461434257614376565b60ff1983166080870152608082151560051b8701019350614376565b86600052602060002060005b8381101561436d5781548882016080015260019091019060200161434e565b87016080019450505b5091979650505050505050565b60008251614395818460208701613cfa565b9190910192915050565b600080600080600080600060e0888a0312156143ba57600080fd5b6143c38861414a565b96506143d160208901614166565b604089015160608a015160808b015160a08c01519399509197509550935091506143fd60c08901614166565b905092959891949750929550565b60208082526022908201527f416363657373206e6f7420616c6c6f7765643a20476f7665726e6f72206f6e6c6040820152613c9760f11b606082015260800190565b60208082526024908201527f416363657373206e6f7420616c6c6f7765643a204b6c65726f73436f7265206f60408201526337363c9760e11b606082015260800190565b601f821115611b5157806000526020600020601f840160051c810160208510156144b85750805b601f840160051c820191505b818110156144d857600081556001016144c4565b5050505050565b6001600160401b038311156144f6576144f6613b3e565b61450a8361450483546142af565b83614491565b6000601f84116001811461453e57600085156145265750838201355b600019600387901b1c1916600186901b1783556144d8565b600083815260209020601f19861690835b8281101561456f578685013582556020948501946001909201910161454f565b508682101561458c5760001960f88860031b161c19848701351681555b505060018560011b0183555050505050565b6000602082840312156145b057600080fd5b8151610be781613c37565b81835260006001600160fb1b038311156145d457600080fd5b8260051b80836020870137939093016020019392505050565b6040815260006146016040830185876145bb565b9050826020830152949350505050565b6040815260006146256040830185876145bb565b82810360208401526146378185613d1e565b969550505050505056fe360894a13ba1a3210667c828492db98dca3e2076cc3735a920a3ca505d382bbca26469706673582212204611969b7846b8f8df4dbeb55dc71bd009ee535c528de4a12223b6d97dbc9de164736f6c634300081c0033",
  "devdoc": {
    "errors": {
      "AlreadyInitialized()": [
        {
          "details": "The contract is already initialized."
        }
      ],
      "InvalidImplementation(address)": [
        {
          "details": "The `implementation` is not UUPS-compliant"
        }
      ],
      "NotInitializing()": [
        {
          "details": "The contract is not initializing."
        }
      ],
      "UUPSUnauthorizedCallContext()": [
        {
          "details": "The call is from an unauthorized context."
        }
      ],
      "UUPSUnsupportedProxiableUUID(bytes32)": [
        {
          "details": "The storage `slot` is unsupported as a UUID."
        }
      ]
    },
    "events": {
      "ChoiceFunded(uint256,uint256,uint256)": {
        "details": "To be emitted when a choice is fully funded for an appeal.",
        "params": {
          "_choice": "The choice that is being funded.",
          "_coreDisputeID": "The identifier of the dispute in the Arbitrator contract.",
          "_coreRoundID": "The identifier of the round in the Arbitrator contract."
        }
      },
      "CommitCast(uint256,address,uint256[],bytes32)": {
        "details": "To be emitted when a vote commitment is cast.",
        "params": {
          "_commit": "The commitment of the juror.",
          "_coreDisputeID": "The identifier of the dispute in the Arbitrator contract.",
          "_juror": "The address of the juror casting the vote commitment.",
          "_voteIDs": "The identifiers of the votes in the dispute."
        }
      },
      "CommitCastShutter(uint256,address,bytes32,bytes32,bytes)": {
        "details": "Emitted when a vote is cast.",
        "params": {
          "_commit": "The commitment hash.",
          "_coreDisputeID": "The identifier of the dispute in the Arbitrator contract.",
          "_encryptedVote": "The Shutter encrypted vote.",
          "_identity": "The Shutter identity used for encryption.",
          "_juror": "The address of the juror casting the vote commitment."
        }
      },
      "Contribution(uint256,uint256,uint256,address,uint256)": {
        "details": "To be emitted when a funding contribution is made.",
        "params": {
          "_amount": "The amount contributed.",
          "_choice": "The choice that is being funded.",
          "_contributor": "The address of the contributor.",
          "_coreDisputeID": "The identifier of the dispute in the Arbitrator contract.",
          "_coreRoundID": "The identifier of the round in the Arbitrator contract."
        }
      },
      "DisputeCreation(uint256,uint256,bytes)": {
        "details": "To be emitted when a dispute is created.",
        "params": {
          "_coreDisputeID": "The identifier of the dispute in the Arbitrator contract.",
          "_extraData": "The extra data for the dispute.",
          "_numberOfChoices": "The number of choices available in the dispute."
        }
      },
      "Initialized(uint64)": {
        "details": "Triggered when the contract has been initialized or reinitialized."
      },
      "Upgraded(address)": {
        "details": "Emitted when the `implementation` has been successfully upgraded.",
        "params": {
          "newImplementation": "Address of the new implementation the proxy is now forwarding calls to."
        }
      },
      "VoteCast(uint256,address,uint256[],uint256,string)": {
        "details": "Emitted when casting a vote to provide the justification of juror's choice.",
        "params": {
          "_choice": "The choice juror voted for.",
          "_coreDisputeID": "The identifier of the dispute in the Arbitrator contract.",
          "_juror": "Address of the juror.",
          "_justification": "Justification of the choice.",
          "_voteIDs": "The identifiers of the votes in the dispute."
        }
      },
      "Withdrawal(uint256,uint256,uint256,address,uint256)": {
        "details": "To be emitted when the contributed funds are withdrawn.",
        "params": {
          "_amount": "The amount withdrawn.",
          "_choice": "The choice that is being funded.",
          "_contributor": "The address of the contributor.",
          "_coreDisputeID": "The identifier of the dispute in the Arbitrator contract.",
          "_coreRoundID": "The identifier of the round in the Arbitrator contract."
        }
      }
    },
    "kind": "dev",
    "methods": {
      "areCommitsAllCast(uint256)": {
        "details": "Returns true if all of the jurors have cast their commits for the last round.",
        "params": {
          "_coreDisputeID": "The ID of the dispute in Kleros Core."
        },
        "returns": {
          "_0": "Whether all of the jurors have cast their commits for the last round."
        }
      },
      "areVotesAllCast(uint256)": {
        "details": "Returns true if all of the jurors have cast their votes for the last round. Note that this function is to be called directly by the core contract and is not for off-chain usage.",
        "params": {
          "_coreDisputeID": "The ID of the dispute in Kleros Core."
        },
        "returns": {
          "_0": "Whether all of the jurors have cast their votes for the last round."
        }
      },
      "castCommit(uint256,uint256[],bytes32)": {
        "details": "Sets the caller's commit for the specified votes. It can be called multiple times during the commit period, each call overrides the commits of the previous one. `O(n)` where `n` is the number of votes.",
        "params": {
          "_commit": "The commitment hash.",
          "_coreDisputeID": "The ID of the dispute in Kleros Core.",
          "_voteIDs": "The IDs of the votes."
        }
      },
      "castCommitShutter(uint256,uint256[],bytes32,bytes32,bytes)": {
        "details": "Sets the caller's commit for the specified votes. It can be called multiple times during the commit period, each call overrides the commits of the previous one. `O(n)` where `n` is the number of votes.",
        "params": {
          "_commit": "The commitment hash including the justification.",
          "_coreDisputeID": "The ID of the dispute in Kleros Core.",
          "_encryptedVote": "The Shutter encrypted vote.",
          "_identity": "The Shutter identity used for encryption.",
          "_voteIDs": "The IDs of the votes."
        }
      },
      "castVote(uint256,uint256[],uint256,uint256,string)": {
        "details": "Sets the caller's choices for the specified votes. `O(n)` where `n` is the number of votes.",
        "params": {
          "_choice": "The choice.",
          "_coreDisputeID": "The ID of the dispute in Kleros Core.",
          "_justification": "Justification of the choice.",
          "_salt": "The salt for the commit if the votes were hidden.",
          "_voteIDs": "The IDs of the votes."
        }
      },
      "changeCore(address)": {
        "details": "Changes the `core` storage variable.",
        "params": {
          "_core": "The new value for the `core` storage variable."
        }
      },
      "changeGovernor(address)": {
        "details": "Changes the `governor` storage variable.",
        "params": {
          "_governor": "The new value for the `governor` storage variable."
        }
      },
      "constructor": {
        "custom:oz-upgrades-unsafe-allow": "constructor"
      },
      "createDispute(uint256,uint256,bytes,uint256)": {
        "details": "Creates a local dispute and maps it to the dispute ID in the Core contract. Note: Access restricted to Kleros Core only.",
        "params": {
          "_coreDisputeID": "The ID of the dispute in Kleros Core.",
          "_extraData": "Additional info about the dispute, for possible use in future dispute kits.",
          "_nbVotes": "Number of votes for this dispute.",
          "_numberOfChoices": "Number of choices of the dispute"
        }
      },
      "currentRuling(uint256)": {
        "details": "Gets the current ruling of a specified dispute.",
        "params": {
          "_coreDisputeID": "The ID of the dispute in Kleros Core."
        },
        "returns": {
          "overridden": "Whether the ruling was overridden by appeal funding or not.",
          "ruling": "The current ruling.",
          "tied": "Whether it's a tie or not."
        }
      },
      "draw(uint256,uint256)": {
        "details": "Draws the juror from the sortition tree. The drawn address is picked up by Kleros Core. Note: Access restricted to Kleros Core only.",
        "params": {
          "_coreDisputeID": "The ID of the dispute in Kleros Core.",
          "_nonce": "Nonce of the drawing iteration."
        },
        "returns": {
          "drawnAddress": "The drawn address."
        }
      },
      "executeGovernorProposal(address,uint256,bytes)": {
        "details": "Allows the governor to call anything on behalf of the contract.",
        "params": {
          "_amount": "The value sent with the call.",
          "_data": "The data sent with the call.",
          "_destination": "The destination of the call."
        }
      },
      "fundAppeal(uint256,uint256)": {
        "details": "Manages contributions, and appeals a dispute if at least two choices are fully funded. Note that the surplus deposit will be reimbursed.",
        "params": {
          "_choice": "A choice that receives funding.",
          "_coreDisputeID": "Index of the dispute in Kleros Core."
        }
      },
      "getCoherentCount(uint256,uint256)": {
        "details": "Gets the number of jurors who are eligible to a reward in this round.",
        "params": {
          "_coreDisputeID": "The ID of the dispute in Kleros Core, not in the Dispute Kit.",
          "_coreRoundID": "The ID of the round in Kleros Core, not in the Dispute Kit."
        },
        "returns": {
          "_0": "The number of coherent jurors."
        }
      },
      "getDegreeOfCoherence(uint256,uint256,uint256,uint256,uint256)": {
        "details": "Gets the degree of coherence of a particular voter. This function is called by Kleros Core in order to determine the amount of the reward.",
        "params": {
          "_coreDisputeID": "The ID of the dispute in Kleros Core, not in the Dispute Kit.",
          "_coreRoundID": "The ID of the round in Kleros Core, not in the Dispute Kit.",
          "_voteID": "The ID of the vote."
        },
        "returns": {
          "_0": "The degree of coherence in basis points."
        }
      },
      "getLocalDisputeRoundID(uint256,uint256)": {
        "details": "Returns the local dispute ID and round ID for a given core dispute ID and core round ID.",
        "params": {
          "_coreDisputeID": "The ID of the dispute in Kleros Core.",
          "_coreRoundID": "The ID of the round in Kleros Core."
        },
        "returns": {
          "localDisputeID": "The ID of the dispute in the Dispute Kit.",
          "localRoundID": "The ID of the round in the Dispute Kit."
        }
      },
      "getNumberOfRounds(uint256)": {
        "details": "Returns the number of rounds in a dispute.",
        "params": {
          "_localDisputeID": "The ID of the dispute in the Dispute Kit."
        },
        "returns": {
          "_0": "The number of rounds in the dispute."
        }
      },
      "getVoteInfo(uint256,uint256,uint256)": {
        "details": "Returns the vote information for a given vote ID.",
        "params": {
          "_coreDisputeID": "The ID of the dispute in Kleros Core.",
          "_coreRoundID": "The ID of the round in Kleros Core.",
          "_voteID": "The ID of the vote."
        },
        "returns": {
          "account": "The address of the juror who cast the vote.",
          "commit": "The commit of the vote."
        }
      },
      "hashVote(uint256,uint256,string)": {
        "details": "Computes the hash of a vote using ABI encoding",
        "params": {
          "_choice": "The choice being voted for",
          "_justification": "The justification for the vote",
          "_salt": "A random salt for commitment"
        },
        "returns": {
          "_0": "bytes32 The hash of the encoded vote parameters"
        }
      },
      "initialize(address,address,address)": {
        "details": "Initializer.",
        "params": {
          "_core": "The KlerosCore arbitrator.",
          "_governor": "The governor's address.",
          "_wNative": "The wrapped native token address, typically wETH."
        }
      },
      "isAppealFunded(uint256)": {
        "details": "Returns true if the appeal funding is finished prematurely (e.g. when losing side didn't fund). Note that this function is to be called directly by the core contract and is not for off-chain usage.",
        "params": {
          "_coreDisputeID": "The ID of the dispute in Kleros Core, not in the Dispute Kit."
        },
        "returns": {
          "_0": "Whether the appeal funding is finished."
        }
      },
      "isVoteActive(uint256,uint256,uint256)": {
        "details": "Returns true if the specified voter was active in this round.",
        "params": {
          "_coreDisputeID": "The ID of the dispute in Kleros Core, not in the Dispute Kit.",
          "_coreRoundID": "The ID of the round in Kleros Core, not in the Dispute Kit.",
          "_voteID": "The ID of the voter."
        },
        "returns": {
          "_0": "Whether the voter was active or not."
        }
      },
      "proxiableUUID()": {
        "details": "Implementation of the ERC1822 `proxiableUUID` function. This returns the storage slot used by the implementation. It is used to validate the implementation's compatibility when performing an upgrade. IMPORTANT: A proxy pointing at a proxiable contract should not be considered proxiable itself, because this risks bricking a proxy that upgrades to it, by delegating to itself until out of gas. Thus it is critical that this function revert if invoked through a proxy. This is guaranteed by the if statement."
      },
      "upgradeToAndCall(address,bytes)": {
        "details": "Upgrade mechanism including access control and UUPS-compliance.Reverts if the execution is not performed via delegatecall or the execution context is not of a proxy with an ERC1967-compliant implementation pointing to self.",
        "params": {
          "data": "Data used in a delegate call to `newImplementation` if non-empty. This will typically be an encoded function call, and allows initializing the storage of the proxy like a Solidity constructor.",
          "newImplementation": "Address of the new implementation contract."
        }
      },
      "withdrawFeesAndRewards(uint256,address,uint256,uint256)": {
        "details": "Allows those contributors who attempted to fund an appeal round to withdraw any reimbursable fees or rewards after the dispute gets resolved. Note that withdrawals are not possible if the core contract is paused.",
        "params": {
          "_beneficiary": "The address whose rewards to withdraw.",
          "_choice": "The ruling option that the caller wants to withdraw from.",
          "_coreDisputeID": "Index of the dispute in Kleros Core contract.",
          "_coreRoundID": "The round in the Kleros Core contract the caller wants to withdraw from."
        },
        "returns": {
          "amount": "The withdrawn amount."
        }
      }
    },
    "stateVariables": {
      "version": {
        "details": "Returns the version of the implementation.",
        "return": "Version string.",
        "returns": {
          "_0": "Version string."
        }
      }
    },
    "title": "DisputeKitShutter Added functionality: shielded voting. Dispute kit implementation of the Kleros v1 features including: - a drawing system: proportional to staked PNK, - a vote aggregation system: plurality, - an incentive system: equal split between coherent votes, - an appeal system: fund 2 choices only, vote on any choice.",
    "version": 1
  },
  "userdoc": {
    "errors": {
      "FailedDelegateCall()": [
        {
          "notice": "Failed Delegated call"
        }
      ]
    },
    "kind": "user",
    "methods": {},
    "version": 1
  },
  "storageLayout": {
    "storage": [
      {
        "astId": 6613,
        "contract": "src/arbitration/dispute-kits/DisputeKitShutter.sol:DisputeKitShutter",
        "label": "governor",
        "offset": 0,
        "slot": "0",
        "type": "t_address"
      },
      {
        "astId": 6616,
        "contract": "src/arbitration/dispute-kits/DisputeKitShutter.sol:DisputeKitShutter",
        "label": "core",
        "offset": 0,
        "slot": "1",
        "type": "t_contract(KlerosCore)303"
      },
      {
        "astId": 6620,
        "contract": "src/arbitration/dispute-kits/DisputeKitShutter.sol:DisputeKitShutter",
        "label": "disputes",
        "offset": 0,
        "slot": "2",
        "type": "t_array(t_struct(Dispute)6552_storage)dyn_storage"
      },
      {
        "astId": 6624,
        "contract": "src/arbitration/dispute-kits/DisputeKitShutter.sol:DisputeKitShutter",
        "label": "coreDisputeIDToLocal",
        "offset": 0,
        "slot": "3",
        "type": "t_mapping(t_uint256,t_uint256)"
      },
      {
        "astId": 6626,
        "contract": "src/arbitration/dispute-kits/DisputeKitShutter.sol:DisputeKitShutter",
        "label": "singleDrawPerJuror",
        "offset": 0,
        "slot": "4",
        "type": "t_bool"
      },
      {
        "astId": 6634,
        "contract": "src/arbitration/dispute-kits/DisputeKitShutter.sol:DisputeKitShutter",
        "label": "alreadyDrawn",
        "offset": 0,
        "slot": "5",
        "type": "t_mapping(t_uint256,t_mapping(t_uint256,t_mapping(t_address,t_bool)))"
      },
      {
        "astId": 6638,
        "contract": "src/arbitration/dispute-kits/DisputeKitShutter.sol:DisputeKitShutter",
        "label": "coreDisputeIDToActive",
        "offset": 0,
        "slot": "6",
        "type": "t_mapping(t_uint256,t_bool)"
      },
      {
        "astId": 6640,
        "contract": "src/arbitration/dispute-kits/DisputeKitShutter.sol:DisputeKitShutter",
        "label": "wNative",
        "offset": 0,
        "slot": "7",
        "type": "t_address"
      }
    ],
    "types": {
      "t_address": {
        "encoding": "inplace",
        "label": "address",
        "numberOfBytes": "20"
      },
      "t_array(t_struct(Dispute)6552_storage)dyn_storage": {
        "base": "t_struct(Dispute)6552_storage",
        "encoding": "dynamic_array",
        "label": "struct DisputeKitClassicBase.Dispute[]",
        "numberOfBytes": "32"
      },
      "t_array(t_struct(Round)6590_storage)dyn_storage": {
        "base": "t_struct(Round)6590_storage",
        "encoding": "dynamic_array",
        "label": "struct DisputeKitClassicBase.Round[]",
        "numberOfBytes": "32"
      },
      "t_array(t_struct(Vote)6599_storage)dyn_storage": {
        "base": "t_struct(Vote)6599_storage",
        "encoding": "dynamic_array",
        "label": "struct DisputeKitClassicBase.Vote[]",
        "numberOfBytes": "32"
      },
      "t_array(t_uint256)dyn_storage": {
        "base": "t_uint256",
        "encoding": "dynamic_array",
        "label": "uint256[]",
        "numberOfBytes": "32"
      },
      "t_bool": {
        "encoding": "inplace",
        "label": "bool",
        "numberOfBytes": "1"
      },
      "t_bytes32": {
        "encoding": "inplace",
        "label": "bytes32",
        "numberOfBytes": "32"
      },
      "t_bytes_storage": {
        "encoding": "bytes",
        "label": "bytes",
        "numberOfBytes": "32"
      },
      "t_contract(KlerosCore)303": {
        "encoding": "inplace",
        "label": "contract KlerosCore",
        "numberOfBytes": "20"
      },
      "t_mapping(t_address,t_bool)": {
        "encoding": "mapping",
        "key": "t_address",
        "label": "mapping(address => bool)",
        "numberOfBytes": "32",
        "value": "t_bool"
      },
      "t_mapping(t_address,t_mapping(t_uint256,t_uint256))": {
        "encoding": "mapping",
        "key": "t_address",
        "label": "mapping(address => mapping(uint256 => uint256))",
        "numberOfBytes": "32",
        "value": "t_mapping(t_uint256,t_uint256)"
      },
      "t_mapping(t_uint256,t_bool)": {
        "encoding": "mapping",
        "key": "t_uint256",
        "label": "mapping(uint256 => bool)",
        "numberOfBytes": "32",
        "value": "t_bool"
      },
      "t_mapping(t_uint256,t_mapping(t_address,t_bool))": {
        "encoding": "mapping",
        "key": "t_uint256",
        "label": "mapping(uint256 => mapping(address => bool))",
        "numberOfBytes": "32",
        "value": "t_mapping(t_address,t_bool)"
      },
      "t_mapping(t_uint256,t_mapping(t_uint256,t_mapping(t_address,t_bool)))": {
        "encoding": "mapping",
        "key": "t_uint256",
        "label": "mapping(uint256 => mapping(uint256 => mapping(address => bool)))",
        "numberOfBytes": "32",
        "value": "t_mapping(t_uint256,t_mapping(t_address,t_bool))"
      },
      "t_mapping(t_uint256,t_uint256)": {
        "encoding": "mapping",
        "key": "t_uint256",
        "label": "mapping(uint256 => uint256)",
        "numberOfBytes": "32",
        "value": "t_uint256"
      },
      "t_struct(Dispute)6552_storage": {
        "encoding": "inplace",
        "label": "struct DisputeKitClassicBase.Dispute",
        "members": [
          {
            "astId": 6541,
            "contract": "src/arbitration/dispute-kits/DisputeKitShutter.sol:DisputeKitShutter",
            "label": "rounds",
            "offset": 0,
            "slot": "0",
            "type": "t_array(t_struct(Round)6590_storage)dyn_storage"
          },
          {
            "astId": 6543,
            "contract": "src/arbitration/dispute-kits/DisputeKitShutter.sol:DisputeKitShutter",
            "label": "numberOfChoices",
            "offset": 0,
            "slot": "1",
            "type": "t_uint256"
          },
          {
            "astId": 6545,
            "contract": "src/arbitration/dispute-kits/DisputeKitShutter.sol:DisputeKitShutter",
            "label": "jumped",
            "offset": 0,
            "slot": "2",
            "type": "t_bool"
          },
          {
            "astId": 6549,
            "contract": "src/arbitration/dispute-kits/DisputeKitShutter.sol:DisputeKitShutter",
            "label": "coreRoundIDToLocal",
            "offset": 0,
            "slot": "3",
            "type": "t_mapping(t_uint256,t_uint256)"
          },
          {
            "astId": 6551,
            "contract": "src/arbitration/dispute-kits/DisputeKitShutter.sol:DisputeKitShutter",
            "label": "extraData",
            "offset": 0,
            "slot": "4",
            "type": "t_bytes_storage"
          }
        ],
        "numberOfBytes": "160"
      },
      "t_struct(Round)6590_storage": {
        "encoding": "inplace",
        "label": "struct DisputeKitClassicBase.Round",
        "members": [
          {
            "astId": 6556,
            "contract": "src/arbitration/dispute-kits/DisputeKitShutter.sol:DisputeKitShutter",
            "label": "votes",
            "offset": 0,
            "slot": "0",
            "type": "t_array(t_struct(Vote)6599_storage)dyn_storage"
          },
          {
            "astId": 6558,
            "contract": "src/arbitration/dispute-kits/DisputeKitShutter.sol:DisputeKitShutter",
            "label": "winningChoice",
            "offset": 0,
            "slot": "1",
            "type": "t_uint256"
          },
          {
            "astId": 6562,
            "contract": "src/arbitration/dispute-kits/DisputeKitShutter.sol:DisputeKitShutter",
            "label": "counts",
            "offset": 0,
            "slot": "2",
            "type": "t_mapping(t_uint256,t_uint256)"
          },
          {
            "astId": 6564,
            "contract": "src/arbitration/dispute-kits/DisputeKitShutter.sol:DisputeKitShutter",
            "label": "tied",
            "offset": 0,
            "slot": "3",
            "type": "t_bool"
          },
          {
            "astId": 6566,
            "contract": "src/arbitration/dispute-kits/DisputeKitShutter.sol:DisputeKitShutter",
            "label": "totalVoted",
            "offset": 0,
            "slot": "4",
            "type": "t_uint256"
          },
          {
            "astId": 6568,
            "contract": "src/arbitration/dispute-kits/DisputeKitShutter.sol:DisputeKitShutter",
            "label": "totalCommitted",
            "offset": 0,
            "slot": "5",
            "type": "t_uint256"
          },
          {
            "astId": 6572,
            "contract": "src/arbitration/dispute-kits/DisputeKitShutter.sol:DisputeKitShutter",
            "label": "paidFees",
            "offset": 0,
            "slot": "6",
            "type": "t_mapping(t_uint256,t_uint256)"
          },
          {
            "astId": 6576,
            "contract": "src/arbitration/dispute-kits/DisputeKitShutter.sol:DisputeKitShutter",
            "label": "hasPaid",
            "offset": 0,
            "slot": "7",
            "type": "t_mapping(t_uint256,t_bool)"
          },
          {
            "astId": 6582,
            "contract": "src/arbitration/dispute-kits/DisputeKitShutter.sol:DisputeKitShutter",
            "label": "contributions",
            "offset": 0,
            "slot": "8",
            "type": "t_mapping(t_address,t_mapping(t_uint256,t_uint256))"
          },
          {
            "astId": 6584,
            "contract": "src/arbitration/dispute-kits/DisputeKitShutter.sol:DisputeKitShutter",
            "label": "feeRewards",
            "offset": 0,
            "slot": "9",
            "type": "t_uint256"
          },
          {
            "astId": 6587,
            "contract": "src/arbitration/dispute-kits/DisputeKitShutter.sol:DisputeKitShutter",
            "label": "fundedChoices",
            "offset": 0,
            "slot": "10",
            "type": "t_array(t_uint256)dyn_storage"
          },
          {
            "astId": 6589,
            "contract": "src/arbitration/dispute-kits/DisputeKitShutter.sol:DisputeKitShutter",
            "label": "nbVotes",
            "offset": 0,
            "slot": "11",
            "type": "t_uint256"
          }
        ],
        "numberOfBytes": "384"
      },
      "t_struct(Vote)6599_storage": {
        "encoding": "inplace",
        "label": "struct DisputeKitClassicBase.Vote",
        "members": [
          {
            "astId": 6592,
            "contract": "src/arbitration/dispute-kits/DisputeKitShutter.sol:DisputeKitShutter",
            "label": "account",
            "offset": 0,
            "slot": "0",
            "type": "t_address"
          },
          {
            "astId": 6594,
            "contract": "src/arbitration/dispute-kits/DisputeKitShutter.sol:DisputeKitShutter",
            "label": "commit",
            "offset": 0,
            "slot": "1",
            "type": "t_bytes32"
          },
          {
            "astId": 6596,
            "contract": "src/arbitration/dispute-kits/DisputeKitShutter.sol:DisputeKitShutter",
            "label": "choice",
            "offset": 0,
            "slot": "2",
            "type": "t_uint256"
          },
          {
            "astId": 6598,
            "contract": "src/arbitration/dispute-kits/DisputeKitShutter.sol:DisputeKitShutter",
            "label": "voted",
            "offset": 0,
            "slot": "3",
            "type": "t_bool"
          }
        ],
        "numberOfBytes": "128"
      },
      "t_uint256": {
        "encoding": "inplace",
        "label": "uint256",
        "numberOfBytes": "32"
      }
    }
  }
}