{
  "address": "0x8a7902Ef9a5308C7DF0A68A28EEDd6D83436993D",
  "abi": [
    {
      "inputs": [
        {
          "internalType": "contract IArbitratorV2",
          "name": "_arbitrator",
          "type": "address"
        },
        {
          "internalType": "contract IDisputeTemplateRegistry",
          "name": "_templateRegistry",
          "type": "address"
        }
      ],
      "stateMutability": "nonpayable",
      "type": "constructor"
    },
    {
      "inputs": [],
      "name": "ArbitratorOnly",
      "type": "error"
    },
    {
      "inputs": [],
      "name": "DisputeAlreadyRuled",
      "type": "error"
    },
    {
      "inputs": [],
      "name": "OwnerOnly",
      "type": "error"
    },
    {
      "inputs": [],
      "name": "RulingOutOfBounds",
      "type": "error"
    },
    {
      "inputs": [],
      "name": "ShouldBeAtLeastTwoRulingOptions",
      "type": "error"
    },
    {
      "anonymous": false,
      "inputs": [
        {
          "indexed": true,
          "internalType": "contract IArbitratorV2",
          "name": "_arbitrator",
          "type": "address"
        },
        {
          "indexed": true,
          "internalType": "uint256",
          "name": "_arbitratorDisputeID",
          "type": "uint256"
        },
        {
          "indexed": false,
          "internalType": "uint256",
          "name": "_externalDisputeID",
          "type": "uint256"
        },
        {
          "indexed": false,
          "internalType": "uint256",
          "name": "_templateId",
          "type": "uint256"
        }
      ],
      "name": "DisputeRequest",
      "type": "event"
    },
    {
      "anonymous": false,
      "inputs": [
        {
          "indexed": true,
          "internalType": "contract IArbitratorV2",
          "name": "_arbitrator",
          "type": "address"
        },
        {
          "indexed": true,
          "internalType": "uint256",
          "name": "_disputeID",
          "type": "uint256"
        },
        {
          "indexed": false,
          "internalType": "uint256",
          "name": "_ruling",
          "type": "uint256"
        }
      ],
      "name": "Ruling",
      "type": "event"
    },
    {
      "inputs": [],
      "name": "arbitrator",
      "outputs": [
        {
          "internalType": "contract IArbitratorV2",
          "name": "",
          "type": "address"
        }
      ],
      "stateMutability": "view",
      "type": "function"
    },
    {
      "inputs": [
        {
          "internalType": "uint256",
          "name": "",
          "type": "uint256"
        }
      ],
      "name": "arbitratorDisputeIDToLocalID",
      "outputs": [
        {
          "internalType": "uint256",
          "name": "",
          "type": "uint256"
        }
      ],
      "stateMutability": "view",
      "type": "function"
    },
    {
      "inputs": [
        {
          "internalType": "contract IArbitratorV2",
          "name": "_arbitrator",
          "type": "address"
        }
      ],
      "name": "changeArbitrator",
      "outputs": [],
      "stateMutability": "nonpayable",
      "type": "function"
    },
    {
      "inputs": [
        {
          "internalType": "address",
          "name": "_owner",
          "type": "address"
        }
      ],
      "name": "changeOwner",
      "outputs": [],
      "stateMutability": "nonpayable",
      "type": "function"
    },
    {
      "inputs": [
        {
          "internalType": "contract IDisputeTemplateRegistry",
          "name": "_templateRegistry",
          "type": "address"
        }
      ],
      "name": "changeTemplateRegistry",
      "outputs": [],
      "stateMutability": "nonpayable",
      "type": "function"
    },
    {
      "inputs": [
        {
          "internalType": "bytes",
          "name": "_arbitratorExtraData",
          "type": "bytes"
        },
        {
          "internalType": "string",
          "name": "_disputeTemplate",
          "type": "string"
        },
        {
          "internalType": "string",
          "name": "_disputeTemplateDataMappings",
          "type": "string"
        },
        {
          "internalType": "uint256",
          "name": "_numberOfRulingOptions",
          "type": "uint256"
        }
      ],
      "name": "createDisputeForTemplate",
      "outputs": [
        {
          "internalType": "uint256",
          "name": "disputeID",
          "type": "uint256"
        }
      ],
      "stateMutability": "payable",
      "type": "function"
    },
    {
      "inputs": [
        {
          "internalType": "uint256",
          "name": "",
          "type": "uint256"
        }
      ],
      "name": "disputes",
      "outputs": [
        {
          "internalType": "bytes",
          "name": "arbitratorExtraData",
          "type": "bytes"
        },
        {
          "internalType": "bool",
          "name": "isRuled",
          "type": "bool"
        },
        {
          "internalType": "uint256",
          "name": "ruling",
          "type": "uint256"
        },
        {
          "internalType": "uint256",
          "name": "numberOfRulingOptions",
          "type": "uint256"
        }
      ],
      "stateMutability": "view",
      "type": "function"
    },
    {
      "inputs": [],
      "name": "owner",
      "outputs": [
        {
          "internalType": "address",
          "name": "",
          "type": "address"
        }
      ],
      "stateMutability": "view",
      "type": "function"
    },
    {
      "inputs": [
        {
          "internalType": "uint256",
          "name": "_arbitratorDisputeID",
          "type": "uint256"
        },
        {
          "internalType": "uint256",
          "name": "_ruling",
          "type": "uint256"
        }
      ],
      "name": "rule",
      "outputs": [],
      "stateMutability": "nonpayable",
      "type": "function"
    },
    {
      "inputs": [],
      "name": "templateRegistry",
      "outputs": [
        {
          "internalType": "contract IDisputeTemplateRegistry",
          "name": "",
          "type": "address"
        }
      ],
      "stateMutability": "view",
      "type": "function"
    }
  ],
  "transactionHash": "0x4f3a4aa6c10dc5486a14af9edbc0f2115240604e431b9902d5694f2e9bd893de",
  "args": [
    "0xA34dBBD0E5e1d09bd683455f9dbC393797BC558f",
    "0xc852F94f90E3B06Da6eCfB61d76561ECfb94613f"
  ],
  "numDeployments": 1,
  "solcInputHash": "d547d738900bce1310e91a5d1adfc179",
  "bytecode": "0x60803460a157601f610ac438819003918201601f19168301916001600160401b0383118484101760a557808492604094855283398101031260a15780516001600160a01b038116919082900360a157602001516001600160a01b038116919082900360a1575f80546001600160a01b031990811633179091556001805482169290921790915560028054909116919091179055604051610a0a90816100ba8239f35b5f80fd5b634e487b7160e01b5f52604160045260245ffdfe60806040526004361015610011575f80fd5b5f3560e01c8063311a6c56146107a25780634660ebbe1461074a578063564a565d1461064f5780636cc6cde1146106295780638da5cb5b14610604578063a0af81f0146105de578063a6f9dae11461058b578063dc65351114610135578063e09997d91461010b5763fc548f0814610087575f80fd5b34610107576020366003190112610107576004356001600160a01b038116809103610107576001600160a01b035f541633036100df5773ffffffffffffffffffffffffffffffffffffffff1960015416176001555f80f35b7f596dcdb8000000000000000000000000000000000000000000000000000000005f5260045ffd5b5f80fd5b34610107576020366003190112610107576004355f526004602052602060405f2054604051908152f35b60803660031901126101075760043567ffffffffffffffff811161010757610161903690600401610960565b9060243567ffffffffffffffff811161010757610182903690600401610960565b9160443567ffffffffffffffff81116101075736602382011215610107576101b76101c391369060248160040135910161098e565b9260643594369161098e565b906001841115610563576001600160a01b036001541693602060405180967fc13517e100000000000000000000000000000000000000000000000000000000825283600483015260406024830152886044830152888560648401375f60648a8401015281606481601f19601f8d0116810103019134905af194851561043e575f9561052f575b506003549560405192608084019184831067ffffffffffffffff8411176105085761027892604052369161098e565b8252602082015f815260408301905f8252606084019283526801000000000000000088101561050857600188016003556102b1886108b2565b94909461051c575180519067ffffffffffffffff8211610508576102d586546108e2565b601f81116104c3575b50602090601f831160011461045457928260209896936103b19a9896936003965f92610449575b50508160011b915f1990871b1c19161785555b600185019051151560ff8019835416911617905551600284015551910155845f52600483528560405f205561039f5f6001600160a01b036002541692604051968795869485937f4a9941740000000000000000000000000000000000000000000000000000000085526060600486015285606486015260806024860152608485019061093c565b8381036003190160448501529061093c565b03925af190811561043e575f9161040b575b5081907fa8a9266995639bff048ad93524a5a561269d3f742d2ee429089990d4d1bb09d460406020956001600160a01b036001541693825191825287820152a3604051908152f35b90506020813d602011610436575b816104266020938361091a565b81010312610107575160206103c3565b3d9150610419565b6040513d5f823e3d90fd5b015190508d80610305565b90601f19831691875f52815f20925f5b8181106104ab5750936103b19a989693600396936001938360209d9b9810610494575b505050811b018555610318565b01515f1983891b60f8161c191690558d8080610487565b92936020600181928786015181550195019301610464565b865f5260205f20601f840160051c810191602085106104fe575b601f0160051c01905b8181106104f357506102de565b5f81556001016104e6565b90915081906104dd565b634e487b7160e01b5f52604160045260245ffd5b634e487b7160e01b5f525f60045260245ffd5b9094506020813d60201161055b575b8161054b6020938361091a565b8101031261010757519386610249565b3d915061053e565b7f5fea5b86000000000000000000000000000000000000000000000000000000005f5260045ffd5b34610107576020366003190112610107576004356001600160a01b038116809103610107575f54336001600160a01b038216036100df5773ffffffffffffffffffffffffffffffffffffffff1916175f55005b34610107575f3660031901126101075760206001600160a01b0360025416604051908152f35b34610107575f3660031901126101075760206001600160a01b035f5416604051908152f35b34610107575f3660031901126101075760206001600160a01b0360015416604051908152f35b346101075760203660031901126101075760043560035481101561010757610676906108b2565b506040515f918054610687816108e2565b808452906001811690811561072657506001146106ed575b506106af826106d794038361091a565b60ff60018201541690600360028201549101549060405194859460808652608086019061093c565b9215156020850152604084015260608301520390f35b9250805f5260205f205f905b8482106107105750820160200192506106af61069f565b60018160209254838588010152019101906106f9565b60ff191660208086019190915291151560051b840190910193506106af905061069f565b34610107576020366003190112610107576004356001600160a01b038116809103610107576001600160a01b035f541633036100df5773ffffffffffffffffffffffffffffffffffffffff1960025416176002555f80f35b3461010757604036600319011261010757600435602435815f5260046020526107ce60405f20546108b2565b506001600160a01b0360015416330361088a576003810154821161086257600181019081549060ff821661083a578392600160029360ff191617905501556040519081527f394027a5fa6e098a1191094d1719d6929b9abc535fcc0c8f448d6a4e7562227660203392a3005b7fcbb4c9f3000000000000000000000000000000000000000000000000000000005f5260045ffd5b7f1f6edbfd000000000000000000000000000000000000000000000000000000005f5260045ffd5b7f4aafc238000000000000000000000000000000000000000000000000000000005f5260045ffd5b6003548110156108ce5760035f5260205f209060021b01905f90565b634e487b7160e01b5f52603260045260245ffd5b90600182811c92168015610910575b60208310146108fc57565b634e487b7160e01b5f52602260045260245ffd5b91607f16916108f1565b90601f8019910116810190811067ffffffffffffffff82111761050857604052565b805180835260209291819084018484015e5f828201840152601f01601f1916010190565b9181601f840112156101075782359167ffffffffffffffff8311610107576020838186019501011161010757565b92919267ffffffffffffffff821161050857604051916109b8601f8201601f19166020018461091a565b829481845281830111610107578281602093845f96013701015256fea2646970667358221220e532d202945144342a4a2c1b0b99b885b88a09bbedafe262a405f2c73673c2c464736f6c634300081e0033",
  "devdoc": {
    "details": "Adapted for V2 from https://github.com/kleros/arbitrable-proxy-contracts/blob/master/contracts/ArbitrableProxy.sol.",
    "events": {
      "DisputeRequest(address,uint256,uint256,uint256)": {
        "params": {
          "_arbitrator": "The arbitrator of the contract.",
          "_arbitratorDisputeID": "The identifier of the dispute in the Arbitrator contract.",
          "_externalDisputeID": "An identifier created outside Kleros by the protocol requesting arbitration.",
          "_templateId": "The identifier of the dispute template."
        }
      },
      "Ruling(address,uint256,uint256)": {
        "params": {
          "_arbitrator": "The arbitrator giving the ruling.",
          "_disputeID": "The identifier of the dispute in the Arbitrator contract.",
          "_ruling": "The ruling which was given."
        }
      }
    },
    "kind": "dev",
    "methods": {
      "changeOwner(address)": {
        "params": {
          "_owner": "The address of the new owner."
        }
      },
      "constructor": {
        "params": {
          "_arbitrator": "Target global arbitrator for any disputes."
        }
      },
      "createDisputeForTemplate(bytes,string,string,uint256)": {
        "details": "No need to check that msg.value is enough to pay arbitration fees as it’s the responsibility of the arbitrator contract.",
        "params": {
          "_arbitratorExtraData": "Extra data for the arbitrator of the dispute.",
          "_disputeTemplate": "Dispute template.",
          "_disputeTemplateDataMappings": "The data mappings.",
          "_numberOfRulingOptions": "Number of ruling options."
        },
        "returns": {
          "disputeID": "Dispute id (on arbitrator side) of the created dispute."
        }
      },
      "rule(uint256,uint256)": {
        "details": "This is a callback function for the arbitrator to provide the ruling to this contract. Only the arbitrator must be allowed to call this function. Ruling 0 is reserved for \"Not able/wanting to make a decision\".",
        "params": {
          "_disputeID": "The identifier of the dispute in the Arbitrator contract.",
          "_ruling": "Ruling given by the arbitrator."
        }
      }
    },
    "title": "DisputeResolver",
    "version": 1
  },
  "userdoc": {
    "events": {
      "DisputeRequest(address,uint256,uint256,uint256)": {
        "notice": "To be emitted when a dispute is created to link the correct template to the disputeID."
      },
      "Ruling(address,uint256,uint256)": {
        "notice": "To be raised when a ruling is given."
      }
    },
    "kind": "user",
    "methods": {
      "changeOwner(address)": {
        "notice": "Changes the owner."
      },
      "constructor": {
        "notice": "Constructor"
      },
      "createDisputeForTemplate(bytes,string,string,uint256)": {
        "notice": "Calls createDispute function of the specified arbitrator to create a dispute."
      },
      "rule(uint256,uint256)": {
        "notice": "Give a ruling for a dispute."
      }
    },
    "notice": "DisputeResolver contract",
    "version": 1
  },
  "storageLayout": {
    "storage": [
      {
        "astId": 18721,
        "contract": "src/arbitration/arbitrables/DisputeResolver.sol:DisputeResolver",
        "label": "owner",
        "offset": 0,
        "slot": "0",
        "type": "t_address"
      },
      {
        "astId": 18724,
        "contract": "src/arbitration/arbitrables/DisputeResolver.sol:DisputeResolver",
        "label": "arbitrator",
        "offset": 0,
        "slot": "1",
        "type": "t_contract(IArbitratorV2)26051"
      },
      {
        "astId": 18727,
        "contract": "src/arbitration/arbitrables/DisputeResolver.sol:DisputeResolver",
        "label": "templateRegistry",
        "offset": 0,
        "slot": "2",
        "type": "t_contract(IDisputeTemplateRegistry)26278"
      },
      {
        "astId": 18731,
        "contract": "src/arbitration/arbitrables/DisputeResolver.sol:DisputeResolver",
        "label": "disputes",
        "offset": 0,
        "slot": "3",
        "type": "t_array(t_struct(DisputeStruct)18719_storage)dyn_storage"
      },
      {
        "astId": 18735,
        "contract": "src/arbitration/arbitrables/DisputeResolver.sol:DisputeResolver",
        "label": "arbitratorDisputeIDToLocalID",
        "offset": 0,
        "slot": "4",
        "type": "t_mapping(t_uint256,t_uint256)"
      }
    ],
    "types": {
      "t_address": {
        "encoding": "inplace",
        "label": "address",
        "numberOfBytes": "20"
      },
      "t_array(t_struct(DisputeStruct)18719_storage)dyn_storage": {
        "base": "t_struct(DisputeStruct)18719_storage",
        "encoding": "dynamic_array",
        "label": "struct DisputeResolver.DisputeStruct[]",
        "numberOfBytes": "32"
      },
      "t_bool": {
        "encoding": "inplace",
        "label": "bool",
        "numberOfBytes": "1"
      },
      "t_bytes_storage": {
        "encoding": "bytes",
        "label": "bytes",
        "numberOfBytes": "32"
      },
      "t_contract(IArbitratorV2)26051": {
        "encoding": "inplace",
        "label": "contract IArbitratorV2",
        "numberOfBytes": "20"
      },
      "t_contract(IDisputeTemplateRegistry)26278": {
        "encoding": "inplace",
        "label": "contract IDisputeTemplateRegistry",
        "numberOfBytes": "20"
      },
      "t_mapping(t_uint256,t_uint256)": {
        "encoding": "mapping",
        "key": "t_uint256",
        "label": "mapping(uint256 => uint256)",
        "numberOfBytes": "32",
        "value": "t_uint256"
      },
      "t_struct(DisputeStruct)18719_storage": {
        "encoding": "inplace",
        "label": "struct DisputeResolver.DisputeStruct",
        "members": [
          {
            "astId": 18712,
            "contract": "src/arbitration/arbitrables/DisputeResolver.sol:DisputeResolver",
            "label": "arbitratorExtraData",
            "offset": 0,
            "slot": "0",
            "type": "t_bytes_storage"
          },
          {
            "astId": 18714,
            "contract": "src/arbitration/arbitrables/DisputeResolver.sol:DisputeResolver",
            "label": "isRuled",
            "offset": 0,
            "slot": "1",
            "type": "t_bool"
          },
          {
            "astId": 18716,
            "contract": "src/arbitration/arbitrables/DisputeResolver.sol:DisputeResolver",
            "label": "ruling",
            "offset": 0,
            "slot": "2",
            "type": "t_uint256"
          },
          {
            "astId": 18718,
            "contract": "src/arbitration/arbitrables/DisputeResolver.sol:DisputeResolver",
            "label": "numberOfRulingOptions",
            "offset": 0,
            "slot": "3",
            "type": "t_uint256"
          }
        ],
        "numberOfBytes": "128"
      },
      "t_uint256": {
        "encoding": "inplace",
        "label": "uint256",
        "numberOfBytes": "32"
      }
    }
  }
}