{
  "address": "0xE00A43d3c3321A0e210F2F8bE2F3F75eC8a4951E",
  "abi": [
    {
      "inputs": [],
      "stateMutability": "nonpayable",
      "type": "constructor"
    },
    {
      "inputs": [],
      "name": "AlreadyInitialized",
      "type": "error"
    },
    {
      "inputs": [],
      "name": "FailedDelegateCall",
      "type": "error"
    },
    {
      "inputs": [
        {
          "internalType": "address",
          "name": "implementation",
          "type": "address"
        }
      ],
      "name": "InvalidImplementation",
      "type": "error"
    },
    {
      "inputs": [],
      "name": "NotInitializing",
      "type": "error"
    },
    {
      "inputs": [],
      "name": "UUPSUnauthorizedCallContext",
      "type": "error"
    },
    {
      "inputs": [
        {
          "internalType": "bytes32",
          "name": "slot",
          "type": "bytes32"
        }
      ],
      "name": "UUPSUnsupportedProxiableUUID",
      "type": "error"
    },
    {
      "anonymous": false,
      "inputs": [
        {
          "indexed": true,
          "internalType": "uint256",
          "name": "_templateId",
          "type": "uint256"
        },
        {
          "indexed": true,
          "internalType": "string",
          "name": "_templateTag",
          "type": "string"
        },
        {
          "indexed": false,
          "internalType": "string",
          "name": "_templateData",
          "type": "string"
        },
        {
          "indexed": false,
          "internalType": "string",
          "name": "_templateDataMappings",
          "type": "string"
        }
      ],
      "name": "DisputeTemplate",
      "type": "event"
    },
    {
      "anonymous": false,
      "inputs": [
        {
          "indexed": false,
          "internalType": "uint64",
          "name": "version",
          "type": "uint64"
        }
      ],
      "name": "Initialized",
      "type": "event"
    },
    {
      "anonymous": false,
      "inputs": [
        {
          "indexed": true,
          "internalType": "address",
          "name": "newImplementation",
          "type": "address"
        }
      ],
      "name": "Upgraded",
      "type": "event"
    },
    {
      "inputs": [
        {
          "internalType": "address",
          "name": "_governor",
          "type": "address"
        }
      ],
      "name": "changeGovernor",
      "outputs": [],
      "stateMutability": "nonpayable",
      "type": "function"
    },
    {
      "inputs": [],
      "name": "governor",
      "outputs": [
        {
          "internalType": "address",
          "name": "",
          "type": "address"
        }
      ],
      "stateMutability": "view",
      "type": "function"
    },
    {
      "inputs": [
        {
          "internalType": "address",
          "name": "_governor",
          "type": "address"
        }
      ],
      "name": "initialize",
      "outputs": [],
      "stateMutability": "nonpayable",
      "type": "function"
    },
    {
      "inputs": [],
      "name": "proxiableUUID",
      "outputs": [
        {
          "internalType": "bytes32",
          "name": "",
          "type": "bytes32"
        }
      ],
      "stateMutability": "view",
      "type": "function"
    },
    {
      "inputs": [
        {
          "internalType": "string",
          "name": "_templateTag",
          "type": "string"
        },
        {
          "internalType": "string",
          "name": "_templateData",
          "type": "string"
        },
        {
          "internalType": "string",
          "name": "_templateDataMappings",
          "type": "string"
        }
      ],
      "name": "setDisputeTemplate",
      "outputs": [
        {
          "internalType": "uint256",
          "name": "templateId",
          "type": "uint256"
        }
      ],
      "stateMutability": "nonpayable",
      "type": "function"
    },
    {
      "inputs": [],
      "name": "templates",
      "outputs": [
        {
          "internalType": "uint256",
          "name": "",
          "type": "uint256"
        }
      ],
      "stateMutability": "view",
      "type": "function"
    },
    {
      "inputs": [
        {
          "internalType": "address",
          "name": "newImplementation",
          "type": "address"
        },
        {
          "internalType": "bytes",
          "name": "data",
          "type": "bytes"
        }
      ],
      "name": "upgradeToAndCall",
      "outputs": [],
      "stateMutability": "payable",
      "type": "function"
    }
  ],
  "transactionHash": "0x191bb6d9774e1c184c6d17901fe80c7c46c4c9f01ac3a7b7e62b0380dc6ff6aa",
  "args": [],
  "numDeployments": 2,
  "solcInputHash": "e0f719371c25ee6b430d9b7926bcf1db",
  "bytecode": "0x60a060405230608052348015610013575f80fd5b5061001c610021565b6100d2565b7ff0c57e16840df040f15088dc2f81fe391c3923bec73e23a9662efc9c229c6a0e805468010000000000000000900460ff16156100705760405162dc149f60e41b815260040160405180910390fd5b80546001600160401b03908116146100cf5780546001600160401b0319166001600160401b0390811782556040519081527fc7f505b2f371ae2175ee4913f4499e1f2633a7b5936321eed1cdaeb6115181d29060200160405180910390a15b50565b6080516108a06100f85f395f81816101c7015281816101f001526103e401526108a05ff3fe60806040526004361061005f575f3560e01c80630c340a24146100635780633a283d7d1461009e5780634a994174146100c15780634f1ef286146100e057806352d1902d146100f5578063c4d66de814610109578063e4c0aaf414610128575b5f80fd5b34801561006e575f80fd5b505f54610081906001600160a01b031681565b6040516001600160a01b0390911681526020015b60405180910390f35b3480156100a9575f80fd5b506100b360015481565b604051908152602001610095565b3480156100cc575f80fd5b506100b36100db36600461063f565b610147565b6100f36100ee3660046106dc565b6101b3565b005b348015610100575f80fd5b506100b36103d8565b348015610114575f80fd5b506100f361012336600461073a565b610434565b348015610133575f80fd5b506100f361014236600461073a565b61051d565b600180545f918261015783610753565b9190505590508360405161016b9190610799565b6040518091039020817ef7cd7255d1073b4e136dd477c38ea0020c051ab17110cc5bfab0c840ff992485856040516101a49291906107df565b60405180910390a39392505050565b6101bc82610567565b306001600160a01b037f000000000000000000000000000000000000000000000000000000000000000016148061023957507f00000000000000000000000000000000000000000000000000000000000000006001600160a01b031661022d5f8051602061084b8339815191525490565b6001600160a01b031614155b156102575760405163703e46dd60e11b815260040160405180910390fd5b816001600160a01b03166352d1902d6040518163ffffffff1660e01b8152600401602060405180830381865afa9250505080156102b1575060408051601f3d908101601f191682019092526102ae9181019061080c565b60015b6102de57604051630c76093760e01b81526001600160a01b03831660048201526024015b60405180910390fd5b5f8051602061084b833981519152811461030e57604051632a87526960e21b8152600481018290526024016102d5565b5f8051602061084b8339815191528390556040516001600160a01b038416907fbc7cd75a20ee27fd9adebab32041f755214dbc6bffa90cc0225b39da2e5c2d3b905f90a28151156103d3575f836001600160a01b0316836040516103729190610799565b5f60405180830381855af49150503d805f81146103aa576040519150601f19603f3d011682016040523d82523d5f602084013e6103af565b606091505b50509050806103d1576040516339b21b5d60e11b815260040160405180910390fd5b505b505050565b5f306001600160a01b037f000000000000000000000000000000000000000000000000000000000000000016146104225760405163703e46dd60e11b815260040160405180910390fd5b505f8051602061084b83398151915290565b7ff0c57e16840df040f15088dc2f81fe391c3923bec73e23a9662efc9c229c6a0e805460019190600160401b900460ff168061047e5750805467ffffffffffffffff808416911610155b1561049b5760405162dc149f60e41b815260040160405180910390fd5b8054600160401b67ffffffffffffffff841668ffffffffffffffffff1990921682171782555f80546001600160a01b0319166001600160a01b038616179055815460ff60401b191682556040519081527fc7f505b2f371ae2175ee4913f4499e1f2633a7b5936321eed1cdaeb6115181d29060200160405180910390a1505050565b5f546001600160a01b031633146105465760405162461bcd60e51b81526004016102d590610823565b5f80546001600160a01b0319166001600160a01b0392909216919091179055565b5f546001600160a01b031633146105905760405162461bcd60e51b81526004016102d590610823565b50565b634e487b7160e01b5f52604160045260245ffd5b5f67ffffffffffffffff808411156105c1576105c1610593565b604051601f8501601f19908116603f011681019082821181831017156105e9576105e9610593565b81604052809350858152868686011115610601575f80fd5b858560208301375f602087830101525050509392505050565b5f82601f830112610629575f80fd5b610638838335602085016105a7565b9392505050565b5f805f60608486031215610651575f80fd5b833567ffffffffffffffff80821115610668575f80fd5b6106748783880161061a565b94506020860135915080821115610689575f80fd5b6106958783880161061a565b935060408601359150808211156106aa575f80fd5b506106b78682870161061a565b9150509250925092565b80356001600160a01b03811681146106d7575f80fd5b919050565b5f80604083850312156106ed575f80fd5b6106f6836106c1565b9150602083013567ffffffffffffffff811115610711575f80fd5b8301601f81018513610721575f80fd5b610730858235602084016105a7565b9150509250929050565b5f6020828403121561074a575f80fd5b610638826106c1565b5f6001820161077057634e487b7160e01b5f52601160045260245ffd5b5060010190565b5f5b83811015610791578181015183820152602001610779565b50505f910152565b5f82516107aa818460208701610777565b9190910192915050565b5f81518084526107cb816020860160208601610777565b601f01601f19169290920160200192915050565b604081525f6107f160408301856107b4565b828103602084015261080381856107b4565b95945050505050565b5f6020828403121561081c575f80fd5b5051919050565b6020808252600d908201526c476f7665726e6f72206f6e6c7960981b60408201526060019056fe360894a13ba1a3210667c828492db98dca3e2076cc3735a920a3ca505d382bbca26469706673582212208629103bcdcd961df69e39316ce1f9b754530e388e913d133e31aac78515f15164736f6c63430008180033",
  "devdoc": {
    "details": "A contract to maintain a registry of dispute templates.",
    "errors": {
      "AlreadyInitialized()": [
        {
          "details": "The contract is already initialized."
        }
      ],
      "NotInitializing()": [
        {
          "details": "The contract is not initializing."
        }
      ],
      "UUPSUnauthorizedCallContext()": [
        {
          "details": "The call is from an unauthorized context."
        }
      ],
      "UUPSUnsupportedProxiableUUID(bytes32)": [
        {
          "details": "The storage `slot` is unsupported as a UUID."
        }
      ]
    },
    "events": {
      "DisputeTemplate(uint256,string,string,string)": {
        "details": "To be emitted when a new dispute template is created.",
        "params": {
          "_templateData": "The template data.",
          "_templateDataMappings": "The data mappings.",
          "_templateId": "The identifier of the dispute template.",
          "_templateTag": "An optional tag for the dispute template, such as \"registration\" or \"removal\"."
        }
      },
      "Initialized(uint64)": {
        "details": "Triggered when the contract has been initialized or reinitialized."
      },
      "Upgraded(address)": {
        "params": {
          "newImplementation": "Address of the new implementation the proxy is now forwarding calls to."
        }
      }
    },
    "kind": "dev",
    "methods": {
      "changeGovernor(address)": {
        "details": "Changes the governor of the contract.",
        "params": {
          "_governor": "The new governor."
        }
      },
      "constructor": {
        "details": "Constructor, initializing the implementation to reduce attack surface."
      },
      "initialize(address)": {
        "details": "Initializer",
        "params": {
          "_governor": "Governor of the contract."
        }
      },
      "proxiableUUID()": {
        "details": "Implementation of the ERC1822 `proxiableUUID` function. This returns the storage slot used by the implementation. It is used to validate the implementation's compatibility when performing an upgrade. IMPORTANT: A proxy pointing at a proxiable contract should not be considered proxiable itself, because this risks bricking a proxy that upgrades to it, by delegating to itself until out of gas. Thus it is critical that this function revert if invoked through a proxy. This is guaranteed by the if statement."
      },
      "setDisputeTemplate(string,string,string)": {
        "details": "Registers a new dispute template.",
        "params": {
          "_templateData": "The data of the template.",
          "_templateDataMappings": "The data mappings of the template.",
          "_templateTag": "The tag of the template (optional)."
        }
      },
      "upgradeToAndCall(address,bytes)": {
        "details": "Upgrade mechanism including access control and UUPS-compliance.Reverts if the execution is not performed via delegatecall or the execution context is not of a proxy with an ERC1967-compliant implementation pointing to self.",
        "params": {
          "data": "Data used in a delegate call to `newImplementation` if non-empty. This will typically be an encoded function call, and allows initializing the storage of the proxy like a Solidity constructor.",
          "newImplementation": "Address of the new implementation contract."
        }
      }
    },
    "stateVariables": {
      "governor": {
        "details": "The governor of the contract."
      },
      "templates": {
        "details": "The number of templates."
      }
    },
    "title": "Dispute Template Registry",
    "version": 1
  },
  "userdoc": {
    "errors": {
      "FailedDelegateCall()": [
        {
          "notice": "Failed Delegated call"
        }
      ],
      "InvalidImplementation(address)": [
        {
          "notice": "The `implementation` is not UUPS-compliant"
        }
      ]
    },
    "events": {
      "Upgraded(address)": {
        "notice": "Emitted when the `implementation` has been successfully upgraded."
      }
    },
    "kind": "user",
    "methods": {},
    "version": 1
  },
  "storageLayout": {
    "storage": [
      {
        "astId": 4384,
        "contract": "src/arbitration/DisputeTemplateRegistry.sol:DisputeTemplateRegistry",
        "label": "governor",
        "offset": 0,
        "slot": "0",
        "type": "t_address"
      },
      {
        "astId": 4387,
        "contract": "src/arbitration/DisputeTemplateRegistry.sol:DisputeTemplateRegistry",
        "label": "templates",
        "offset": 0,
        "slot": "1",
        "type": "t_uint256"
      }
    ],
    "types": {
      "t_address": {
        "encoding": "inplace",
        "label": "address",
        "numberOfBytes": "20"
      },
      "t_uint256": {
        "encoding": "inplace",
        "label": "uint256",
        "numberOfBytes": "32"
      }
    }
  }
}