{
  "address": "0xc53b813ed94AaEb6F5518D60bf6a8109954bE3f6",
  "abi": [
    {
      "inputs": [],
      "stateMutability": "nonpayable",
      "type": "constructor"
    },
    {
      "inputs": [],
      "name": "AlreadyInitialized",
      "type": "error"
    },
    {
      "inputs": [],
      "name": "FailedDelegateCall",
      "type": "error"
    },
    {
      "inputs": [
        {
          "internalType": "address",
          "name": "implementation",
          "type": "address"
        }
      ],
      "name": "InvalidImplementation",
      "type": "error"
    },
    {
      "inputs": [],
      "name": "NotInitializing",
      "type": "error"
    },
    {
      "inputs": [],
      "name": "UUPSUnauthorizedCallContext",
      "type": "error"
    },
    {
      "inputs": [
        {
          "internalType": "bytes32",
          "name": "slot",
          "type": "bytes32"
        }
      ],
      "name": "UUPSUnsupportedProxiableUUID",
      "type": "error"
    },
    {
      "anonymous": false,
      "inputs": [
        {
          "indexed": true,
          "internalType": "uint256",
          "name": "_templateId",
          "type": "uint256"
        },
        {
          "indexed": true,
          "internalType": "string",
          "name": "_templateTag",
          "type": "string"
        },
        {
          "indexed": false,
          "internalType": "string",
          "name": "_templateData",
          "type": "string"
        },
        {
          "indexed": false,
          "internalType": "string",
          "name": "_templateDataMappings",
          "type": "string"
        }
      ],
      "name": "DisputeTemplate",
      "type": "event"
    },
    {
      "anonymous": false,
      "inputs": [
        {
          "indexed": false,
          "internalType": "uint64",
          "name": "version",
          "type": "uint64"
        }
      ],
      "name": "Initialized",
      "type": "event"
    },
    {
      "anonymous": false,
      "inputs": [
        {
          "indexed": true,
          "internalType": "address",
          "name": "newImplementation",
          "type": "address"
        }
      ],
      "name": "Upgraded",
      "type": "event"
    },
    {
      "inputs": [
        {
          "internalType": "address",
          "name": "_governor",
          "type": "address"
        }
      ],
      "name": "changeGovernor",
      "outputs": [],
      "stateMutability": "nonpayable",
      "type": "function"
    },
    {
      "inputs": [],
      "name": "governor",
      "outputs": [
        {
          "internalType": "address",
          "name": "",
          "type": "address"
        }
      ],
      "stateMutability": "view",
      "type": "function"
    },
    {
      "inputs": [
        {
          "internalType": "address",
          "name": "_governor",
          "type": "address"
        }
      ],
      "name": "initialize",
      "outputs": [],
      "stateMutability": "nonpayable",
      "type": "function"
    },
    {
      "inputs": [],
      "name": "proxiableUUID",
      "outputs": [
        {
          "internalType": "bytes32",
          "name": "",
          "type": "bytes32"
        }
      ],
      "stateMutability": "view",
      "type": "function"
    },
    {
      "inputs": [
        {
          "internalType": "string",
          "name": "_templateTag",
          "type": "string"
        },
        {
          "internalType": "string",
          "name": "_templateData",
          "type": "string"
        },
        {
          "internalType": "string",
          "name": "_templateDataMappings",
          "type": "string"
        }
      ],
      "name": "setDisputeTemplate",
      "outputs": [
        {
          "internalType": "uint256",
          "name": "templateId",
          "type": "uint256"
        }
      ],
      "stateMutability": "nonpayable",
      "type": "function"
    },
    {
      "inputs": [],
      "name": "templates",
      "outputs": [
        {
          "internalType": "uint256",
          "name": "",
          "type": "uint256"
        }
      ],
      "stateMutability": "view",
      "type": "function"
    },
    {
      "inputs": [
        {
          "internalType": "address",
          "name": "newImplementation",
          "type": "address"
        },
        {
          "internalType": "bytes",
          "name": "data",
          "type": "bytes"
        }
      ],
      "name": "upgradeToAndCall",
      "outputs": [],
      "stateMutability": "payable",
      "type": "function"
    }
  ],
  "transactionHash": "0x68a18fb630370db5774e7d41536f3fdce6ce55815860d0b05efa186833d49e23",
  "args": [],
  "numDeployments": 1,
  "solcInputHash": "4ee8a1f2013c130bec1668c5304bc76a",
  "bytecode": "0x60a06040523060805234801561001457600080fd5b5061001d610022565b6100d3565b7ff0c57e16840df040f15088dc2f81fe391c3923bec73e23a9662efc9c229c6a0e805468010000000000000000900460ff16156100715760405162dc149f60e41b815260040160405180910390fd5b80546001600160401b03908116146100d05780546001600160401b0319166001600160401b0390811782556040519081527fc7f505b2f371ae2175ee4913f4499e1f2633a7b5936321eed1cdaeb6115181d29060200160405180910390a15b50565b6080516108d66100fc600039600081816101d1015281816101fa01526103f701526108d66000f3fe6080604052600436106100605760003560e01c80630c340a24146100655780633a283d7d146100a25780634a994174146100c65780634f1ef286146100e657806352d1902d146100fb578063c4d66de814610110578063e4c0aaf414610130575b600080fd5b34801561007157600080fd5b50600054610085906001600160a01b031681565b6040516001600160a01b0390911681526020015b60405180910390f35b3480156100ae57600080fd5b506100b860015481565b604051908152602001610099565b3480156100d257600080fd5b506100b86100e136600461065e565b610150565b6100f96100f4366004610702565b6101bd565b005b34801561010757600080fd5b506100b86103ea565b34801561011c57600080fd5b506100f961012b366004610764565b610448565b34801561013c57600080fd5b506100f961014b366004610764565b610532565b60018054600091826101618361077f565b9190505590508360405161017591906107ca565b6040518091039020817ef7cd7255d1073b4e136dd477c38ea0020c051ab17110cc5bfab0c840ff992485856040516101ae929190610812565b60405180910390a39392505050565b6101c68261057e565b306001600160a01b037f000000000000000000000000000000000000000000000000000000000000000016148061024457507f00000000000000000000000000000000000000000000000000000000000000006001600160a01b03166102386000805160206108818339815191525490565b6001600160a01b031614155b156102625760405163703e46dd60e11b815260040160405180910390fd5b816001600160a01b03166352d1902d6040518163ffffffff1660e01b8152600401602060405180830381865afa9250505080156102bc575060408051601f3d908101601f191682019092526102b991810190610840565b60015b6102e957604051630c76093760e01b81526001600160a01b03831660048201526024015b60405180910390fd5b600080516020610881833981519152811461031a57604051632a87526960e21b8152600481018290526024016102e0565b6000805160206108818339815191528390556040516001600160a01b038416907fbc7cd75a20ee27fd9adebab32041f755214dbc6bffa90cc0225b39da2e5c2d3b90600090a28151156103e5576000836001600160a01b03168360405161038191906107ca565b600060405180830381855af49150503d80600081146103bc576040519150601f19603f3d011682016040523d82523d6000602084013e6103c1565b606091505b50509050806103e3576040516339b21b5d60e11b815260040160405180910390fd5b505b505050565b6000306001600160a01b037f000000000000000000000000000000000000000000000000000000000000000016146104355760405163703e46dd60e11b815260040160405180910390fd5b5060008051602061088183398151915290565b7ff0c57e16840df040f15088dc2f81fe391c3923bec73e23a9662efc9c229c6a0e805460019190600160401b900460ff16806104925750805467ffffffffffffffff808416911610155b156104af5760405162dc149f60e41b815260040160405180910390fd5b8054600160401b67ffffffffffffffff841668ffffffffffffffffff199092168217178255600080546001600160a01b0319166001600160a01b038616179055815460ff60401b191682556040519081527fc7f505b2f371ae2175ee4913f4499e1f2633a7b5936321eed1cdaeb6115181d29060200160405180910390a1505050565b6000546001600160a01b0316331461055c5760405162461bcd60e51b81526004016102e090610859565b600080546001600160a01b0319166001600160a01b0392909216919091179055565b6000546001600160a01b031633146105a85760405162461bcd60e51b81526004016102e090610859565b50565b634e487b7160e01b600052604160045260246000fd5b600067ffffffffffffffff808411156105dc576105dc6105ab565b604051601f8501601f19908116603f01168101908282118183101715610604576106046105ab565b8160405280935085815286868601111561061d57600080fd5b858560208301376000602087830101525050509392505050565b600082601f83011261064857600080fd5b610657838335602085016105c1565b9392505050565b60008060006060848603121561067357600080fd5b833567ffffffffffffffff8082111561068b57600080fd5b61069787838801610637565b945060208601359150808211156106ad57600080fd5b6106b987838801610637565b935060408601359150808211156106cf57600080fd5b506106dc86828701610637565b9150509250925092565b80356001600160a01b03811681146106fd57600080fd5b919050565b6000806040838503121561071557600080fd5b61071e836106e6565b9150602083013567ffffffffffffffff81111561073a57600080fd5b8301601f8101851361074b57600080fd5b61075a858235602084016105c1565b9150509250929050565b60006020828403121561077657600080fd5b610657826106e6565b60006001820161079f57634e487b7160e01b600052601160045260246000fd5b5060010190565b60005b838110156107c15781810151838201526020016107a9565b50506000910152565b600082516107dc8184602087016107a6565b9190910192915050565b600081518084526107fe8160208601602086016107a6565b601f01601f19169290920160200192915050565b60408152600061082560408301856107e6565b828103602084015261083781856107e6565b95945050505050565b60006020828403121561085257600080fd5b5051919050565b6020808252600d908201526c476f7665726e6f72206f6e6c7960981b60408201526060019056fe360894a13ba1a3210667c828492db98dca3e2076cc3735a920a3ca505d382bbca26469706673582212200004ee6006386c26ab6ccd4a63aa3601a23b64b04172511e9dbcdf70e85f6e7c64736f6c63430008120033",
  "devdoc": {
    "details": "A contract to maintain a registry of dispute templates.",
    "errors": {
      "AlreadyInitialized()": [
        {
          "details": "The contract is already initialized."
        }
      ],
      "NotInitializing()": [
        {
          "details": "The contract is not initializing."
        }
      ],
      "UUPSUnauthorizedCallContext()": [
        {
          "details": "The call is from an unauthorized context."
        }
      ],
      "UUPSUnsupportedProxiableUUID(bytes32)": [
        {
          "details": "The storage `slot` is unsupported as a UUID."
        }
      ]
    },
    "events": {
      "DisputeTemplate(uint256,string,string,string)": {
        "details": "To be emitted when a new dispute template is created.",
        "params": {
          "_templateData": "The template data.",
          "_templateDataMappings": "The data mappings.",
          "_templateId": "The identifier of the dispute template.",
          "_templateTag": "An optional tag for the dispute template, such as \"registration\" or \"removal\"."
        }
      },
      "Initialized(uint64)": {
        "details": "Triggered when the contract has been initialized or reinitialized."
      },
      "Upgraded(address)": {
        "params": {
          "newImplementation": "Address of the new implementation the proxy is now forwarding calls to."
        }
      }
    },
    "kind": "dev",
    "methods": {
      "changeGovernor(address)": {
        "details": "Changes the governor of the contract.",
        "params": {
          "_governor": "The new governor."
        }
      },
      "constructor": {
        "details": "Constructor, initializing the implementation to reduce attack surface."
      },
      "initialize(address)": {
        "details": "Initializer",
        "params": {
          "_governor": "Governor of the contract."
        }
      },
      "proxiableUUID()": {
        "details": "Implementation of the ERC1822 `proxiableUUID` function. This returns the storage slot used by the implementation. It is used to validate the implementation's compatibility when performing an upgrade. IMPORTANT: A proxy pointing at a proxiable contract should not be considered proxiable itself, because this risks bricking a proxy that upgrades to it, by delegating to itself until out of gas. Thus it is critical that this function revert if invoked through a proxy. This is guaranteed by the if statement."
      },
      "setDisputeTemplate(string,string,string)": {
        "details": "Registers a new dispute template.",
        "params": {
          "_templateData": "The data of the template.",
          "_templateDataMappings": "The data mappings of the template.",
          "_templateTag": "The tag of the template (optional)."
        }
      },
      "upgradeToAndCall(address,bytes)": {
        "details": "Upgrade mechanism including access control and UUPS-compliance.Reverts if the execution is not performed via delegatecall or the execution context is not of a proxy with an ERC1967-compliant implementation pointing to self.",
        "params": {
          "data": "Data used in a delegate call to `newImplementation` if non-empty. This will typically be an encoded function call, and allows initializing the storage of the proxy like a Solidity constructor.",
          "newImplementation": "Address of the new implementation contract."
        }
      }
    },
    "title": "Dispute Template Registry",
    "version": 1
  },
  "userdoc": {
    "errors": {
      "FailedDelegateCall()": [
        {
          "notice": "Failed Delegated call"
        }
      ],
      "InvalidImplementation(address)": [
        {
          "notice": "The `implementation` is not UUPS-compliant"
        }
      ]
    },
    "events": {
      "Upgraded(address)": {
        "notice": "Emitted when the `implementation` has been successfully upgraded."
      }
    },
    "kind": "user",
    "methods": {},
    "version": 1
  },
  "storageLayout": {
    "storage": [
      {
        "astId": 2856,
        "contract": "src/arbitration/DisputeTemplateRegistry.sol:DisputeTemplateRegistry",
        "label": "governor",
        "offset": 0,
        "slot": "0",
        "type": "t_address"
      },
      {
        "astId": 2858,
        "contract": "src/arbitration/DisputeTemplateRegistry.sol:DisputeTemplateRegistry",
        "label": "templates",
        "offset": 0,
        "slot": "1",
        "type": "t_uint256"
      }
    ],
    "types": {
      "t_address": {
        "encoding": "inplace",
        "label": "address",
        "numberOfBytes": "20"
      },
      "t_uint256": {
        "encoding": "inplace",
        "label": "uint256",
        "numberOfBytes": "32"
      }
    }
  }
}