{
  "address": "0x08F37f0151CD8d0Bad46eA6c44A99318CFd52418",
  "abi": [
    {
      "inputs": [],
      "stateMutability": "nonpayable",
      "type": "constructor"
    },
    {
      "inputs": [],
      "name": "AlreadyInitialized",
      "type": "error"
    },
    {
      "inputs": [],
      "name": "AppealFeeIsAlreadyPaid",
      "type": "error"
    },
    {
      "inputs": [],
      "name": "ChoiceCommitmentMismatch",
      "type": "error"
    },
    {
      "inputs": [],
      "name": "ChoiceOutOfBounds",
      "type": "error"
    },
    {
      "inputs": [],
      "name": "CoreIsPaused",
      "type": "error"
    },
    {
      "inputs": [],
      "name": "DisputeJumpedToAnotherDisputeKit",
      "type": "error"
    },
    {
      "inputs": [],
      "name": "DisputeNotResolved",
      "type": "error"
    },
    {
      "inputs": [],
      "name": "DisputeUnknownInThisDisputeKit",
      "type": "error"
    },
    {
      "inputs": [],
      "name": "EmptyCommit",
      "type": "error"
    },
    {
      "inputs": [],
      "name": "EmptyJustificationCommit",
      "type": "error"
    },
    {
      "inputs": [],
      "name": "EmptyVoteIDs",
      "type": "error"
    },
    {
      "inputs": [],
      "name": "FailedDelegateCall",
      "type": "error"
    },
    {
      "inputs": [
        {
          "internalType": "address",
          "name": "implementation",
          "type": "address"
        }
      ],
      "name": "InvalidImplementation",
      "type": "error"
    },
    {
      "inputs": [],
      "name": "JurorHasToOwnTheVote",
      "type": "error"
    },
    {
      "inputs": [],
      "name": "JustificationCommitmentMismatch",
      "type": "error"
    },
    {
      "inputs": [],
      "name": "KlerosCoreOnly",
      "type": "error"
    },
    {
      "inputs": [],
      "name": "NotAppealPeriod",
      "type": "error"
    },
    {
      "inputs": [],
      "name": "NotAppealPeriodForLoser",
      "type": "error"
    },
    {
      "inputs": [],
      "name": "NotCommitPeriod",
      "type": "error"
    },
    {
      "inputs": [],
      "name": "NotInitializing",
      "type": "error"
    },
    {
      "inputs": [],
      "name": "NotVotePeriod",
      "type": "error"
    },
    {
      "inputs": [],
      "name": "OwnerOnly",
      "type": "error"
    },
    {
      "inputs": [
        {
          "internalType": "address",
          "name": "tokenGate",
          "type": "address"
        }
      ],
      "name": "TokenNotSupported",
      "type": "error"
    },
    {
      "inputs": [],
      "name": "UUPSUnauthorizedCallContext",
      "type": "error"
    },
    {
      "inputs": [
        {
          "internalType": "bytes32",
          "name": "slot",
          "type": "bytes32"
        }
      ],
      "name": "UUPSUnsupportedProxiableUUID",
      "type": "error"
    },
    {
      "inputs": [],
      "name": "UnsuccessfulCall",
      "type": "error"
    },
    {
      "inputs": [],
      "name": "VoteAlreadyCast",
      "type": "error"
    },
    {
      "anonymous": false,
      "inputs": [
        {
          "indexed": true,
          "internalType": "uint256",
          "name": "_coreDisputeID",
          "type": "uint256"
        },
        {
          "indexed": true,
          "internalType": "uint256",
          "name": "_coreRoundID",
          "type": "uint256"
        },
        {
          "indexed": true,
          "internalType": "uint256",
          "name": "_choice",
          "type": "uint256"
        }
      ],
      "name": "ChoiceFunded",
      "type": "event"
    },
    {
      "anonymous": false,
      "inputs": [
        {
          "indexed": true,
          "internalType": "uint256",
          "name": "_coreDisputeID",
          "type": "uint256"
        },
        {
          "indexed": true,
          "internalType": "address",
          "name": "_juror",
          "type": "address"
        },
        {
          "indexed": false,
          "internalType": "uint256[]",
          "name": "_voteIDs",
          "type": "uint256[]"
        },
        {
          "indexed": false,
          "internalType": "bytes32",
          "name": "_commit",
          "type": "bytes32"
        }
      ],
      "name": "CommitCast",
      "type": "event"
    },
    {
      "anonymous": false,
      "inputs": [
        {
          "indexed": true,
          "internalType": "uint256",
          "name": "_coreDisputeID",
          "type": "uint256"
        },
        {
          "indexed": true,
          "internalType": "address",
          "name": "_juror",
          "type": "address"
        },
        {
          "indexed": true,
          "internalType": "bytes32",
          "name": "_choiceCommit",
          "type": "bytes32"
        },
        {
          "indexed": false,
          "internalType": "bytes32",
          "name": "_justificationCommit",
          "type": "bytes32"
        },
        {
          "indexed": false,
          "internalType": "bytes32",
          "name": "_identity",
          "type": "bytes32"
        },
        {
          "indexed": false,
          "internalType": "bytes",
          "name": "_encryptedVote",
          "type": "bytes"
        }
      ],
      "name": "CommitCastShutter",
      "type": "event"
    },
    {
      "anonymous": false,
      "inputs": [
        {
          "indexed": true,
          "internalType": "uint256",
          "name": "_coreDisputeID",
          "type": "uint256"
        },
        {
          "indexed": true,
          "internalType": "uint256",
          "name": "_coreRoundID",
          "type": "uint256"
        },
        {
          "indexed": false,
          "internalType": "uint256",
          "name": "_choice",
          "type": "uint256"
        },
        {
          "indexed": true,
          "internalType": "address",
          "name": "_contributor",
          "type": "address"
        },
        {
          "indexed": false,
          "internalType": "uint256",
          "name": "_amount",
          "type": "uint256"
        }
      ],
      "name": "Contribution",
      "type": "event"
    },
    {
      "anonymous": false,
      "inputs": [
        {
          "indexed": true,
          "internalType": "uint256",
          "name": "_coreDisputeID",
          "type": "uint256"
        },
        {
          "indexed": false,
          "internalType": "uint256",
          "name": "_numberOfChoices",
          "type": "uint256"
        },
        {
          "indexed": false,
          "internalType": "bytes",
          "name": "_extraData",
          "type": "bytes"
        }
      ],
      "name": "DisputeCreation",
      "type": "event"
    },
    {
      "anonymous": false,
      "inputs": [
        {
          "indexed": false,
          "internalType": "uint64",
          "name": "version",
          "type": "uint64"
        }
      ],
      "name": "Initialized",
      "type": "event"
    },
    {
      "anonymous": false,
      "inputs": [
        {
          "indexed": true,
          "internalType": "uint96",
          "name": "_courtID",
          "type": "uint96"
        },
        {
          "components": [
            {
              "internalType": "bool",
              "name": "enabled",
              "type": "bool"
            },
            {
              "internalType": "uint96",
              "name": "jumpCourtID",
              "type": "uint96"
            },
            {
              "internalType": "uint256",
              "name": "jumpDisputeKitID",
              "type": "uint256"
            },
            {
              "internalType": "uint256",
              "name": "jumpDisputeKitIDOnCourtJump",
              "type": "uint256"
            },
            {
              "internalType": "uint256",
              "name": "nbVotes",
              "type": "uint256"
            }
          ],
          "indexed": false,
          "internalType": "struct DisputeKitClassicBase.NextRoundSettings",
          "name": "_nextRoundSettings",
          "type": "tuple"
        }
      ],
      "name": "NextRoundSettingsChanged",
      "type": "event"
    },
    {
      "anonymous": false,
      "inputs": [
        {
          "indexed": true,
          "internalType": "address",
          "name": "newImplementation",
          "type": "address"
        }
      ],
      "name": "Upgraded",
      "type": "event"
    },
    {
      "anonymous": false,
      "inputs": [
        {
          "indexed": true,
          "internalType": "uint256",
          "name": "_coreDisputeID",
          "type": "uint256"
        },
        {
          "indexed": true,
          "internalType": "address",
          "name": "_juror",
          "type": "address"
        },
        {
          "indexed": false,
          "internalType": "uint256[]",
          "name": "_voteIDs",
          "type": "uint256[]"
        },
        {
          "indexed": true,
          "internalType": "uint256",
          "name": "_choice",
          "type": "uint256"
        },
        {
          "indexed": false,
          "internalType": "string",
          "name": "_justification",
          "type": "string"
        }
      ],
      "name": "VoteCast",
      "type": "event"
    },
    {
      "anonymous": false,
      "inputs": [
        {
          "indexed": true,
          "internalType": "uint256",
          "name": "_coreDisputeID",
          "type": "uint256"
        },
        {
          "indexed": false,
          "internalType": "uint256",
          "name": "_choice",
          "type": "uint256"
        },
        {
          "indexed": true,
          "internalType": "address",
          "name": "_contributor",
          "type": "address"
        },
        {
          "indexed": false,
          "internalType": "uint256",
          "name": "_amount",
          "type": "uint256"
        }
      ],
      "name": "Withdrawal",
      "type": "event"
    },
    {
      "inputs": [],
      "name": "LOSER_APPEAL_PERIOD_MULTIPLIER",
      "outputs": [
        {
          "internalType": "uint256",
          "name": "",
          "type": "uint256"
        }
      ],
      "stateMutability": "view",
      "type": "function"
    },
    {
      "inputs": [],
      "name": "LOSER_STAKE_MULTIPLIER",
      "outputs": [
        {
          "internalType": "uint256",
          "name": "",
          "type": "uint256"
        }
      ],
      "stateMutability": "view",
      "type": "function"
    },
    {
      "inputs": [],
      "name": "WINNER_STAKE_MULTIPLIER",
      "outputs": [
        {
          "internalType": "uint256",
          "name": "",
          "type": "uint256"
        }
      ],
      "stateMutability": "view",
      "type": "function"
    },
    {
      "inputs": [
        {
          "internalType": "uint256",
          "name": "_coreDisputeID",
          "type": "uint256"
        }
      ],
      "name": "areCommitsAllCast",
      "outputs": [
        {
          "internalType": "bool",
          "name": "",
          "type": "bool"
        }
      ],
      "stateMutability": "view",
      "type": "function"
    },
    {
      "inputs": [
        {
          "internalType": "uint256",
          "name": "_coreDisputeID",
          "type": "uint256"
        }
      ],
      "name": "areVotesAllCast",
      "outputs": [
        {
          "internalType": "bool",
          "name": "",
          "type": "bool"
        }
      ],
      "stateMutability": "view",
      "type": "function"
    },
    {
      "inputs": [
        {
          "internalType": "uint256",
          "name": "_coreDisputeID",
          "type": "uint256"
        },
        {
          "internalType": "uint256[]",
          "name": "_voteIDs",
          "type": "uint256[]"
        },
        {
          "internalType": "bytes32",
          "name": "_commit",
          "type": "bytes32"
        }
      ],
      "name": "castCommit",
      "outputs": [],
      "stateMutability": "nonpayable",
      "type": "function"
    },
    {
      "inputs": [
        {
          "internalType": "uint256",
          "name": "_coreDisputeID",
          "type": "uint256"
        },
        {
          "internalType": "uint256[]",
          "name": "_voteIDs",
          "type": "uint256[]"
        },
        {
          "internalType": "bytes32",
          "name": "_choiceCommit",
          "type": "bytes32"
        },
        {
          "internalType": "bytes32",
          "name": "_justificationCommit",
          "type": "bytes32"
        },
        {
          "internalType": "bytes32",
          "name": "_identity",
          "type": "bytes32"
        },
        {
          "internalType": "bytes",
          "name": "_encryptedVote",
          "type": "bytes"
        }
      ],
      "name": "castCommitShutter",
      "outputs": [],
      "stateMutability": "nonpayable",
      "type": "function"
    },
    {
      "inputs": [
        {
          "internalType": "uint256",
          "name": "_coreDisputeID",
          "type": "uint256"
        },
        {
          "internalType": "uint256[]",
          "name": "_voteIDs",
          "type": "uint256[]"
        },
        {
          "internalType": "uint256",
          "name": "_choice",
          "type": "uint256"
        },
        {
          "internalType": "uint256",
          "name": "_salt",
          "type": "uint256"
        },
        {
          "internalType": "string",
          "name": "_justification",
          "type": "string"
        }
      ],
      "name": "castVote",
      "outputs": [],
      "stateMutability": "nonpayable",
      "type": "function"
    },
    {
      "inputs": [
        {
          "internalType": "uint256",
          "name": "_coreDisputeID",
          "type": "uint256"
        },
        {
          "internalType": "uint256[]",
          "name": "_voteIDs",
          "type": "uint256[]"
        },
        {
          "internalType": "uint256",
          "name": "_choice",
          "type": "uint256"
        },
        {
          "internalType": "uint256",
          "name": "_salt",
          "type": "uint256"
        },
        {
          "internalType": "string",
          "name": "_justification",
          "type": "string"
        }
      ],
      "name": "castVoteShutter",
      "outputs": [],
      "stateMutability": "nonpayable",
      "type": "function"
    },
    {
      "inputs": [
        {
          "internalType": "address",
          "name": "_core",
          "type": "address"
        }
      ],
      "name": "changeCore",
      "outputs": [],
      "stateMutability": "nonpayable",
      "type": "function"
    },
    {
      "inputs": [
        {
          "internalType": "uint96",
          "name": "_courtID",
          "type": "uint96"
        },
        {
          "components": [
            {
              "internalType": "bool",
              "name": "enabled",
              "type": "bool"
            },
            {
              "internalType": "uint96",
              "name": "jumpCourtID",
              "type": "uint96"
            },
            {
              "internalType": "uint256",
              "name": "jumpDisputeKitID",
              "type": "uint256"
            },
            {
              "internalType": "uint256",
              "name": "jumpDisputeKitIDOnCourtJump",
              "type": "uint256"
            },
            {
              "internalType": "uint256",
              "name": "nbVotes",
              "type": "uint256"
            }
          ],
          "internalType": "struct DisputeKitClassicBase.NextRoundSettings",
          "name": "_nextRoundSettings",
          "type": "tuple"
        }
      ],
      "name": "changeNextRoundSettings",
      "outputs": [],
      "stateMutability": "nonpayable",
      "type": "function"
    },
    {
      "inputs": [
        {
          "internalType": "address payable",
          "name": "_owner",
          "type": "address"
        }
      ],
      "name": "changeOwner",
      "outputs": [],
      "stateMutability": "nonpayable",
      "type": "function"
    },
    {
      "inputs": [
        {
          "internalType": "address[]",
          "name": "_tokens",
          "type": "address[]"
        },
        {
          "internalType": "bool",
          "name": "_supported",
          "type": "bool"
        }
      ],
      "name": "changeSupportedTokens",
      "outputs": [],
      "stateMutability": "nonpayable",
      "type": "function"
    },
    {
      "inputs": [],
      "name": "core",
      "outputs": [
        {
          "internalType": "contract KlerosCore",
          "name": "",
          "type": "address"
        }
      ],
      "stateMutability": "view",
      "type": "function"
    },
    {
      "inputs": [
        {
          "internalType": "uint256",
          "name": "coreDisputeID",
          "type": "uint256"
        }
      ],
      "name": "coreDisputeIDToActive",
      "outputs": [
        {
          "internalType": "bool",
          "name": "dispute",
          "type": "bool"
        },
        {
          "internalType": "bool",
          "name": "currentRound",
          "type": "bool"
        }
      ],
      "stateMutability": "view",
      "type": "function"
    },
    {
      "inputs": [
        {
          "internalType": "uint256",
          "name": "coreDisputeID",
          "type": "uint256"
        }
      ],
      "name": "coreDisputeIDToLocal",
      "outputs": [
        {
          "internalType": "uint256",
          "name": "localDisputeID",
          "type": "uint256"
        }
      ],
      "stateMutability": "view",
      "type": "function"
    },
    {
      "inputs": [
        {
          "internalType": "uint96",
          "name": "currentCourtID",
          "type": "uint96"
        }
      ],
      "name": "courtIDToNextRoundSettings",
      "outputs": [
        {
          "internalType": "bool",
          "name": "enabled",
          "type": "bool"
        },
        {
          "internalType": "uint96",
          "name": "jumpCourtID",
          "type": "uint96"
        },
        {
          "internalType": "uint256",
          "name": "jumpDisputeKitID",
          "type": "uint256"
        },
        {
          "internalType": "uint256",
          "name": "jumpDisputeKitIDOnCourtJump",
          "type": "uint256"
        },
        {
          "internalType": "uint256",
          "name": "nbVotes",
          "type": "uint256"
        }
      ],
      "stateMutability": "view",
      "type": "function"
    },
    {
      "inputs": [
        {
          "internalType": "uint256",
          "name": "_coreDisputeID",
          "type": "uint256"
        },
        {
          "internalType": "uint256",
          "name": "_coreRoundID",
          "type": "uint256"
        },
        {
          "internalType": "uint256",
          "name": "_numberOfChoices",
          "type": "uint256"
        },
        {
          "internalType": "bytes",
          "name": "_extraData",
          "type": "bytes"
        },
        {
          "internalType": "uint256",
          "name": "_nbVotes",
          "type": "uint256"
        }
      ],
      "name": "createDispute",
      "outputs": [],
      "stateMutability": "nonpayable",
      "type": "function"
    },
    {
      "inputs": [
        {
          "internalType": "uint256",
          "name": "_coreDisputeID",
          "type": "uint256"
        }
      ],
      "name": "currentRuling",
      "outputs": [
        {
          "internalType": "uint256",
          "name": "ruling",
          "type": "uint256"
        },
        {
          "internalType": "bool",
          "name": "tied",
          "type": "bool"
        },
        {
          "internalType": "bool",
          "name": "overridden",
          "type": "bool"
        }
      ],
      "stateMutability": "view",
      "type": "function"
    },
    {
      "inputs": [
        {
          "internalType": "uint256",
          "name": "",
          "type": "uint256"
        }
      ],
      "name": "disputes",
      "outputs": [
        {
          "internalType": "uint256",
          "name": "numberOfChoices",
          "type": "uint256"
        },
        {
          "internalType": "bytes",
          "name": "extraData",
          "type": "bytes"
        }
      ],
      "stateMutability": "view",
      "type": "function"
    },
    {
      "inputs": [
        {
          "internalType": "uint256",
          "name": "_coreDisputeID",
          "type": "uint256"
        },
        {
          "internalType": "uint256",
          "name": "_nonce",
          "type": "uint256"
        },
        {
          "internalType": "uint256",
          "name": "_roundNbVotes",
          "type": "uint256"
        }
      ],
      "name": "draw",
      "outputs": [
        {
          "internalType": "address",
          "name": "drawnAddress",
          "type": "address"
        },
        {
          "internalType": "uint96",
          "name": "fromSubcourtID",
          "type": "uint96"
        }
      ],
      "stateMutability": "nonpayable",
      "type": "function"
    },
    {
      "inputs": [
        {
          "internalType": "address",
          "name": "_destination",
          "type": "address"
        },
        {
          "internalType": "uint256",
          "name": "_amount",
          "type": "uint256"
        },
        {
          "internalType": "bytes",
          "name": "_data",
          "type": "bytes"
        }
      ],
      "name": "executeOwnerProposal",
      "outputs": [],
      "stateMutability": "nonpayable",
      "type": "function"
    },
    {
      "inputs": [
        {
          "internalType": "uint256",
          "name": "_coreDisputeID",
          "type": "uint256"
        },
        {
          "internalType": "uint256",
          "name": "_choice",
          "type": "uint256"
        }
      ],
      "name": "fundAppeal",
      "outputs": [],
      "stateMutability": "payable",
      "type": "function"
    },
    {
      "inputs": [
        {
          "internalType": "uint256",
          "name": "_coreDisputeID",
          "type": "uint256"
        },
        {
          "internalType": "uint256",
          "name": "_coreRoundID",
          "type": "uint256"
        }
      ],
      "name": "getCoherentCount",
      "outputs": [
        {
          "internalType": "uint256",
          "name": "",
          "type": "uint256"
        }
      ],
      "stateMutability": "view",
      "type": "function"
    },
    {
      "inputs": [
        {
          "internalType": "uint256",
          "name": "_coreDisputeID",
          "type": "uint256"
        },
        {
          "internalType": "uint256",
          "name": "_coreRoundID",
          "type": "uint256"
        },
        {
          "internalType": "uint256",
          "name": "_voteID",
          "type": "uint256"
        },
        {
          "internalType": "uint256",
          "name": "",
          "type": "uint256"
        },
        {
          "internalType": "uint256",
          "name": "",
          "type": "uint256"
        }
      ],
      "name": "getDegreeOfCoherencePenalty",
      "outputs": [
        {
          "internalType": "uint256",
          "name": "pnkCoherence",
          "type": "uint256"
        }
      ],
      "stateMutability": "view",
      "type": "function"
    },
    {
      "inputs": [
        {
          "internalType": "uint256",
          "name": "_coreDisputeID",
          "type": "uint256"
        },
        {
          "internalType": "uint256",
          "name": "_coreRoundID",
          "type": "uint256"
        },
        {
          "internalType": "uint256",
          "name": "_voteID",
          "type": "uint256"
        },
        {
          "internalType": "uint256",
          "name": "",
          "type": "uint256"
        },
        {
          "internalType": "uint256",
          "name": "",
          "type": "uint256"
        }
      ],
      "name": "getDegreeOfCoherenceReward",
      "outputs": [
        {
          "internalType": "uint256",
          "name": "pnkCoherence",
          "type": "uint256"
        },
        {
          "internalType": "uint256",
          "name": "feeCoherence",
          "type": "uint256"
        }
      ],
      "stateMutability": "view",
      "type": "function"
    },
    {
      "inputs": [
        {
          "internalType": "uint256",
          "name": "_coreDisputeID",
          "type": "uint256"
        }
      ],
      "name": "getFundedChoices",
      "outputs": [
        {
          "internalType": "uint256[]",
          "name": "fundedChoices",
          "type": "uint256[]"
        }
      ],
      "stateMutability": "view",
      "type": "function"
    },
    {
      "inputs": [
        {
          "internalType": "uint256",
          "name": "_coreDisputeID",
          "type": "uint256"
        },
        {
          "internalType": "uint256",
          "name": "_coreRoundID",
          "type": "uint256"
        }
      ],
      "name": "getLocalDisputeRoundID",
      "outputs": [
        {
          "internalType": "uint256",
          "name": "localDisputeID",
          "type": "uint256"
        },
        {
          "internalType": "uint256",
          "name": "localRoundID",
          "type": "uint256"
        }
      ],
      "stateMutability": "view",
      "type": "function"
    },
    {
      "inputs": [
        {
          "internalType": "uint256",
          "name": "",
          "type": "uint256"
        },
        {
          "internalType": "uint96",
          "name": "_currentCourtID",
          "type": "uint96"
        },
        {
          "internalType": "uint96",
          "name": "_parentCourtID",
          "type": "uint96"
        },
        {
          "internalType": "uint256",
          "name": "_currentCourtJurorsForJump",
          "type": "uint256"
        },
        {
          "internalType": "uint256",
          "name": "_currentDisputeKitID",
          "type": "uint256"
        },
        {
          "internalType": "uint256",
          "name": "_currentRoundNbVotes",
          "type": "uint256"
        }
      ],
      "name": "getNextRoundSettings",
      "outputs": [
        {
          "internalType": "uint96",
          "name": "newCourtID",
          "type": "uint96"
        },
        {
          "internalType": "uint256",
          "name": "newDisputeKitID",
          "type": "uint256"
        },
        {
          "internalType": "uint256",
          "name": "newRoundNbVotes",
          "type": "uint256"
        }
      ],
      "stateMutability": "view",
      "type": "function"
    },
    {
      "inputs": [
        {
          "internalType": "uint256",
          "name": "_localDisputeID",
          "type": "uint256"
        }
      ],
      "name": "getNumberOfRounds",
      "outputs": [
        {
          "internalType": "uint256",
          "name": "",
          "type": "uint256"
        }
      ],
      "stateMutability": "view",
      "type": "function"
    },
    {
      "inputs": [
        {
          "internalType": "uint256",
          "name": "_coreDisputeID",
          "type": "uint256"
        },
        {
          "internalType": "uint256",
          "name": "_coreRoundID",
          "type": "uint256"
        },
        {
          "internalType": "uint256",
          "name": "_choice",
          "type": "uint256"
        }
      ],
      "name": "getRoundInfo",
      "outputs": [
        {
          "internalType": "uint256",
          "name": "winningChoice",
          "type": "uint256"
        },
        {
          "internalType": "bool",
          "name": "tied",
          "type": "bool"
        },
        {
          "internalType": "uint256",
          "name": "totalVoted",
          "type": "uint256"
        },
        {
          "internalType": "uint256",
          "name": "totalCommitted",
          "type": "uint256"
        },
        {
          "internalType": "uint256",
          "name": "nbVoters",
          "type": "uint256"
        },
        {
          "internalType": "uint256",
          "name": "choiceCount",
          "type": "uint256"
        }
      ],
      "stateMutability": "view",
      "type": "function"
    },
    {
      "inputs": [
        {
          "internalType": "uint256",
          "name": "_coreDisputeID",
          "type": "uint256"
        },
        {
          "internalType": "uint256",
          "name": "_coreRoundID",
          "type": "uint256"
        },
        {
          "internalType": "uint256",
          "name": "_voteID",
          "type": "uint256"
        }
      ],
      "name": "getVoteInfo",
      "outputs": [
        {
          "internalType": "address",
          "name": "account",
          "type": "address"
        },
        {
          "internalType": "bytes32",
          "name": "commit",
          "type": "bytes32"
        },
        {
          "internalType": "uint256",
          "name": "choice",
          "type": "uint256"
        },
        {
          "internalType": "bool",
          "name": "voted",
          "type": "bool"
        }
      ],
      "stateMutability": "view",
      "type": "function"
    },
    {
      "inputs": [
        {
          "internalType": "uint256",
          "name": "_salt",
          "type": "uint256"
        },
        {
          "internalType": "string",
          "name": "_justification",
          "type": "string"
        }
      ],
      "name": "hashJustification",
      "outputs": [
        {
          "internalType": "bytes32",
          "name": "",
          "type": "bytes32"
        }
      ],
      "stateMutability": "pure",
      "type": "function"
    },
    {
      "inputs": [
        {
          "internalType": "uint256",
          "name": "_choice",
          "type": "uint256"
        },
        {
          "internalType": "uint256",
          "name": "_salt",
          "type": "uint256"
        },
        {
          "internalType": "string",
          "name": "",
          "type": "string"
        }
      ],
      "name": "hashVote",
      "outputs": [
        {
          "internalType": "bytes32",
          "name": "",
          "type": "bytes32"
        }
      ],
      "stateMutability": "view",
      "type": "function"
    },
    {
      "inputs": [
        {
          "internalType": "address",
          "name": "_owner",
          "type": "address"
        },
        {
          "internalType": "contract KlerosCore",
          "name": "_core",
          "type": "address"
        },
        {
          "internalType": "address",
          "name": "_wNative",
          "type": "address"
        }
      ],
      "name": "initialize",
      "outputs": [],
      "stateMutability": "nonpayable",
      "type": "function"
    },
    {
      "inputs": [
        {
          "internalType": "uint256",
          "name": "_coreDisputeID",
          "type": "uint256"
        }
      ],
      "name": "isAppealFunded",
      "outputs": [
        {
          "internalType": "bool",
          "name": "",
          "type": "bool"
        }
      ],
      "stateMutability": "view",
      "type": "function"
    },
    {
      "inputs": [
        {
          "internalType": "uint256",
          "name": "_coreDisputeID",
          "type": "uint256"
        },
        {
          "internalType": "uint256",
          "name": "_coreRoundID",
          "type": "uint256"
        },
        {
          "internalType": "uint256",
          "name": "_voteID",
          "type": "uint256"
        }
      ],
      "name": "isVoteActive",
      "outputs": [
        {
          "internalType": "bool",
          "name": "",
          "type": "bool"
        }
      ],
      "stateMutability": "view",
      "type": "function"
    },
    {
      "inputs": [
        {
          "internalType": "uint256",
          "name": "localDisputeID",
          "type": "uint256"
        },
        {
          "internalType": "uint256",
          "name": "localRoundID",
          "type": "uint256"
        },
        {
          "internalType": "uint256",
          "name": "voteID",
          "type": "uint256"
        }
      ],
      "name": "justificationCommitments",
      "outputs": [
        {
          "internalType": "bytes32",
          "name": "justificationCommitment",
          "type": "bytes32"
        }
      ],
      "stateMutability": "view",
      "type": "function"
    },
    {
      "inputs": [],
      "name": "owner",
      "outputs": [
        {
          "internalType": "address",
          "name": "",
          "type": "address"
        }
      ],
      "stateMutability": "view",
      "type": "function"
    },
    {
      "inputs": [],
      "name": "proxiableUUID",
      "outputs": [
        {
          "internalType": "bytes32",
          "name": "",
          "type": "bytes32"
        }
      ],
      "stateMutability": "view",
      "type": "function"
    },
    {
      "inputs": [],
      "name": "singleDrawPerJuror",
      "outputs": [
        {
          "internalType": "bool",
          "name": "",
          "type": "bool"
        }
      ],
      "stateMutability": "view",
      "type": "function"
    },
    {
      "inputs": [
        {
          "internalType": "address",
          "name": "token",
          "type": "address"
        }
      ],
      "name": "supportedTokens",
      "outputs": [
        {
          "internalType": "bool",
          "name": "supported",
          "type": "bool"
        }
      ],
      "stateMutability": "view",
      "type": "function"
    },
    {
      "inputs": [
        {
          "internalType": "address",
          "name": "newImplementation",
          "type": "address"
        },
        {
          "internalType": "bytes",
          "name": "data",
          "type": "bytes"
        }
      ],
      "name": "upgradeToAndCall",
      "outputs": [],
      "stateMutability": "payable",
      "type": "function"
    },
    {
      "inputs": [],
      "name": "version",
      "outputs": [
        {
          "internalType": "string",
          "name": "",
          "type": "string"
        }
      ],
      "stateMutability": "view",
      "type": "function"
    },
    {
      "inputs": [],
      "name": "wNative",
      "outputs": [
        {
          "internalType": "address",
          "name": "",
          "type": "address"
        }
      ],
      "stateMutability": "view",
      "type": "function"
    },
    {
      "inputs": [
        {
          "internalType": "uint256",
          "name": "_coreDisputeID",
          "type": "uint256"
        },
        {
          "internalType": "address payable",
          "name": "_beneficiary",
          "type": "address"
        },
        {
          "internalType": "uint256",
          "name": "_choice",
          "type": "uint256"
        }
      ],
      "name": "withdrawFeesAndRewards",
      "outputs": [
        {
          "internalType": "uint256",
          "name": "amount",
          "type": "uint256"
        }
      ],
      "stateMutability": "nonpayable",
      "type": "function"
    }
  ],
  "transactionHash": "0x473ae57a3fd92930739b506c9f016a29f8d87fa4129e1b711788437383c9d382",
  "args": [],
  "numDeployments": 1,
  "solcInputHash": "7120e939c323b678aae40a88db815cc2",
  "bytecode": "0x60a080604052346100c157306080525f5160206145685f395f51905f525460ff8160401c166100b3576002600160401b03196001600160401b03821601610060575b6040516144a290816100c6823960805181818161137701526115a50152f35b6001600160401b0319166001600160401b039081175f5160206145685f395f51905f525581527fc7f505b2f371ae2175ee4913f4499e1f2633a7b5936321eed1cdaeb6115181d290602090a15f80610041565b62dc149f60e41b5f5260045ffd5b5f80fdfe60806040526004361015610011575f80fd5b5f3560e01c80630855bbe9146102f45780630baa64d1146102ef5780631200aabc146102ea578063149a5dc0146102e55780631c3db16d146102e05780631cc3423a146102db578063223e2757146102d65780632621b9a2146102d15780632d68efc9146102cc5780634b2f0ea0146102c75780634f1ef286146102c257806352d1902d146102bd57806354fd4d50146102b8578063564a565d146102b357806356fd1040146102ae5780635c92e2f6146102a95780635e342829146102a457806365540b961461029f57806368c4ac261461029a57806369f3f041146102955780636a8c9194146102905780636d4cd8ea1461028b5780636ea4b92b1461028657806378757c18146102815780637c04034e1461027c5780638da5cb5b146102775780638e426460146102725780638f06f1121461026d5780639d61ab6e14610268578063a6f9dae114610263578063a7cc08fe1461025e578063aad2cffe14610259578063b34bfaa814610254578063b8775a381461024f578063ba66fde71461024a578063bc7a679d14610245578063be46760414610240578063c0c53b8b1461023b578063cbde275b14610236578063da3beb8c14610231578063db918bb41461022c578063e349ad3014610227578063f2f4eb2614610222578063f32ab9271461021d578063f8abee10146102185763fc6f8f1614610213575f80fd5b6131c6565b61318c565b613132565b61310c565b6130f0565b612f90565b612f6f565b612f2f565b612d95565b612d79565b612cfc565b612cad565b612c38565b612c1c565b612b78565b612b0f565b612ac3565b612a97565b61269b565b61264f565b61262a565b612229565b612195565b61204e565b611f07565b611e49565b611dab565b611d50565b611cf0565b611b54565b611899565b6117ec565b611785565b611619565b61158b565b61132d565b610c48565b610c1f565b610bfd565b61071d565b6106c9565b6104b1565b61048e565b610442565b6103e9565b346103e55760203660031901126103e5576004356001546001600160a01b03166040805163afe15cfb60e01b81526004810184905291829081806024810103915afa80156103e057610370925f925f926103a7575b5061035390613535565b51159182610374575b505060405190151581529081906020820190565b0390f35b61039e9192506103918161038b6103969342613231565b94613231565b61323e565b612710900490565b11155f8061035c565b61035393506103cf91925060403d6040116103d9575b6103c78183610637565b8101906131ee565b9290929190610349565b503d6103bd565b613204565b5f80fd5b346103e55760203660031901126103e5576004355f52600360205261041160405f205461168c565b5080545f1981019190821161043d5760209161042c9161329d565b506005810154905414604051908152f35b61320f565b346103e55760203660031901126103e5576004355f526003602052602060405f2054604051908152f35b60a09060031901126103e5576004359060243590604435906064359060843590565b346103e55760206104a96104a13661046c565b505091613c47565b604051908152f35b346103e55760203660031901126103e5576004355f906104f66104e56104df835f52600360205260405f2090565b5461168c565b506104f08154613223565b9061329d565b5091610506600384015460ff1690565b9283156105f957505f5b916105326105266001546001600160a01b031690565b6001600160a01b031690565b60a0604051809263564a565d60e01b8252818061055787600483019190602083019252565b03915afa80156103e0576004915f916105c5575b5061057581613301565b14610599575b50604080519283529215156020830152151591810191909152606090f35b6105a290613535565b600181510361057b579150506105b8915061331f565b515f90600161037061057b565b6105e7915060a03d60a0116105f2575b6105df8183610637565b8101906132b6565b50509150505f61056b565b503d6105d5565b60010154610510565b634e487b7160e01b5f52604160045260245ffd5b60a0810190811067ffffffffffffffff82111761063257604052565b610602565b90601f8019910116810190811067ffffffffffffffff82111761063257604052565b67ffffffffffffffff811161063257601f01601f191660200190565b92919261068182610659565b9161068f6040519384610637565b8294818452818301116103e5578281602093845f960137010152565b9080601f830112156103e5578160206106c693359101610675565b90565b346103e55760603660031901126103e55760043560443560243567ffffffffffffffff82116103e5576020926107066104a99336906004016106ab565b5061332c565b6001600160a01b038116036103e557565b346103e55760603660031901126103e55760243560043561073d8261070c565b6044355f6107566105266001546001600160a01b031690565b9060405163564a565d60e01b815260a0818061077a88600483019190602083019252565b0381865afa9081156103e0575f91610bcf575b5015610ba7576040517f5c975abb000000000000000000000000000000000000000000000000000000008152602081600481865afa9081156103e0575f91610b78575b50610b50576107f86107f46107ed865f52600460205260405f2090565b5460ff1690565b1590565b610b28576108116104df855f52600360205260405f2090565b5060606040518094631c3db16d60e01b825281806108378a600483019190602083019252565b03915afa9283156103e0575f93610af5575b505f5b8154811015610a71578487610861838561329d565b50948587600782016108816107f46107ed8884905f5260205260405f2090565b156108ef575050926108bb8360086108cf6108e8956108c8866108bb5f9a8660019e9d01906001600160a01b03165f5260205260405f2090565b905f5260205260405f2090565b54906133c9565b995b01906001600160a01b03165f5260205260405f2090565b550161084c565b909150848203610991575050826108bb5f9360086109816108e8956001999860068d018d6109258383905f5260205260405f2090565b5415158b14610987578261096682600961095c61097b976108bb8d8d6109749901906001600160a01b03165f5260205260405f2090565b549101549061326c565b92905f5260205260405f2090565b549061327f565b906133c9565b996108d1565b50505087906133c9565b6107ed6109ac926107f492999499905f5260205260405f2090565b6109c5575b600193926108bb5f9360086108e8946108d1565b94826108bb836008610a626108e89561097b8c610a5c610a0f610a0360019e9d6108bb5f9e8a8701906001600160a01b03165f5260205260405f2090565b5460098401549061326c565b916108c8600a60068301920191610a50610a31610a49610a3b610a3187613391565b90549060031b1c90565b84905f5260205260405f2090565b54946133a3565b5f5260205260405f2090565b9061327f565b999450509350509293506109b1565b6103708386888a83610a91575b5050604051918252509081906020820190565b6001600160a01b037f6caeb64c011a9c292dc0dae973b7aacc054142ede95218fa43b9c6fccccce75091610adb610ad46006546001600160a01b039060081c1690565b8783613ce3565b6040805195865260208601879052911693a3828080610a7e565b610b1891935060603d606011610b21575b610b108183610637565b810190613367565b5050915f610849565b503d610b06565b7f535a60e9000000000000000000000000000000000000000000000000000000005f5260045ffd5b7f88226c22000000000000000000000000000000000000000000000000000000005f5260045ffd5b610b9a915060203d602011610ba0575b610b928183610637565b810190613352565b5f6107d0565b503d610b88565b7f8a7dc9ee000000000000000000000000000000000000000000000000000000005f5260045ffd5b610be8915060a03d60a0116105f2576105df8183610637565b50925050505f61078d565b5f9103126103e557565b346103e5575f3660031901126103e557602060ff600654166040519015158152f35b346103e5575f3660031901126103e55760206001600160a01b0360065460081c16604051908152f35b60403660031901126103e55760043560243590805f52600460205260ff60405f20541615610b2857805f52600460205260ff60405f205460081c161561130557610c9d6104df825f52600360205260405f2090565b506001810190815484116112dd57610cc06105266001546001600160a01b031690565b9160405163afe15cfb60e01b815260408180610ce488600483019190602083019252565b0381875afa9081156103e0575f905f926112bb575b5080421080156112b1575b61128957604051631c3db16d60e01b815260048101879052606081602481305afa80156103e05788915f91611268575b500361121d575050612710945b610d54610d4e8454613223565b8461329d565b506040517ffc6f8f1600000000000000000000000000000000000000000000000000000000815260048101879052602081602481895afa80156103e057610da2915f916111fe575b50613223565b916007820197610dbd6107ed838b905f5260205260405f2090565b6111d657602060405180987f59ec827e0000000000000000000000000000000000000000000000000000000082528180610dff8d600483019190602083019252565b03915afa9687156103e0575f97611199575b50610e22610396610e28928961326c565b876133c9565b5f986006840191610e418484905f5260205260405f2090565b54811161110d575b610e6b846108bb3360088901906001600160a01b03165f5260205260405f2090565b610e768c82546133c9565b9055610e8a8484905f5260205260405f2090565b610e958c82546133c9565b9055610ea98484905f5260205260405f2090565b541015611099575b5050506001600a82015411610ef5575b505050505050803411610ed057005b610edd610ef39134613231565b60065460081c6001600160a01b03169033613ce3565b005b600901610f03858254613231565b9055610f1a6105266001546001600160a01b031690565b60a060405180927f4159ad880000000000000000000000000000000000000000000000000000000082528180610f588b600483019190602083019252565b03915afa9081156103e0575f91611065575b50156110235750610f91610f86855f52600460205260405f2090565b805461ff0019169055565b610fa66105266001546001600160a01b031690565b905491813b156103e5575f93600391610ff0604051978896879586947fc356990200000000000000000000000000000000000000000000000000000000865201916004850161346a565b03925af180156103e057611009575b8080808080610ec1565b806110175f61101d93610637565b80610bf3565b5f610fff565b6110426110318454926133bb565b60028501905f5260205260405f2090565b55611060600361105184613444565b5001805460ff19166001179055565b610f91565b611087915060a03d60a011611092575b61107f8183610637565b810190613411565b93505050505f610f6a565b503d611075565b826110d2916110b3826110df95905f5260205260405f2090565b546110c3600988019182546133c9565b90556108bb82600a88016133e5565b805460ff19166001179055565b82877fed764996238e4c1c873ae3af7ae2f00f1f6f4f10b9ac7d4bbea4a764c5dea0095f80a45f8080610eb1565b995061112b6111248484905f5260205260405f2090565b548b613231565b34101561117e5734995b8a868b7fcae597f39a3ad75c2e10d46b031f023c5c2babcd58ca0491b122acda3968d4c06040518061117633968b8360209093929193604081019481520152565b0390a4610e49565b6111936111248484905f5260205260405f2090565b99611135565b610e289197506103966111c6610e229260203d6020116111cf575b6111be8183610637565b8101906133d6565b98925050610e11565b503d6111b4565b7fbcdf54db000000000000000000000000000000000000000000000000000000005f5260045ffd5b611217915060203d6020116111cf576111be8183610637565b5f610d9c565b6103966103918261038b6112319442613231565b111561124057614e2094610d41565b7f5ebfd119000000000000000000000000000000000000000000000000000000005f5260045ffd5b611281915060603d606011610b2157610b108183610637565b50505f610d34565b7fa7f0eb18000000000000000000000000000000000000000000000000000000005f5260045ffd5b5081421015610d04565b90506112d6915060403d6040116103d9576103c78183610637565b905f610cf9565b7ff9aa024a000000000000000000000000000000000000000000000000000000005f5260045ffd5b7f89b422fa000000000000000000000000000000000000000000000000000000005f5260045ffd5b60403660031901126103e5576004356113458161070c565b60243567ffffffffffffffff81116103e5576113659036906004016106ab565b61136d613dde565b6001600160a01b037f000000000000000000000000000000000000000000000000000000000000000016803014908115611550575b50611528576001600160a01b0382166040517f52d1902d000000000000000000000000000000000000000000000000000000008152602081600481855afa5f9181611507575b50611422577f0c760937000000000000000000000000000000000000000000000000000000005f526001600160a01b03841660045260245ffd5b7f360894a13ba1a3210667c828492db98dca3e2076cc3735a920a3ca505d382bbc81036114dc5750827f360894a13ba1a3210667c828492db98dca3e2076cc3735a920a3ca505d382bbc557fbc7cd75a20ee27fd9adebab32041f755214dbc6bffa90cc0225b39da2e5c2d3b5f80a280518061149a57005b5f926020849301905af46114ac613506565b50156114b457005b7f736436ba000000000000000000000000000000000000000000000000000000005f5260045ffd5b7faa1d49a4000000000000000000000000000000000000000000000000000000005f5260045260245ffd5b61152191925060203d6020116111cf576111be8183610637565b905f6113e8565b7fe07c8dba000000000000000000000000000000000000000000000000000000005f5260045ffd5b90506115837f360894a13ba1a3210667c828492db98dca3e2076cc3735a920a3ca505d382bbc546001600160a01b031690565b14155f6113a2565b346103e5575f3660031901126103e5576001600160a01b037f00000000000000000000000000000000000000000000000000000000000000001630036115285760206040517f360894a13ba1a3210667c828492db98dca3e2076cc3735a920a3ca505d382bbc8152f35b805180835260209291819084018484015e5f828201840152601f01601f1916010190565b346103e5575f3660031901126103e55761037060405161163a604082610637565b600581527f322e302e3000000000000000000000000000000000000000000000000000000060208201526040519182916020835260208301906115f5565b634e487b7160e01b5f52603260045260245ffd5b6002548110156116a85760025f52600e60205f20910201905f90565b611678565b90600182811c921680156116db575b60208310146116c757565b634e487b7160e01b5f52602260045260245ffd5b91607f16916116bc565b9060405191825f8254926116f8846116ad565b8084529360018116908115611763575060011461171f575b5061171d92500383610637565b565b90505f9291925260205f20905f915b81831061174757505090602061171d928201015f611710565b602091935080600191548385890101520191019091849261172e565b90506020925061171d94915060ff191682840152151560051b8201015f611710565b346103e55760203660031901126103e5576004356002548110156103e5576117ac9061168c565b506117be6003600183015492016116e5565b9061037060405192839283526040602084015260408301906115f5565b6001600160601b038116036103e557565b346103e55760203660031901126103e5576001600160601b03600435611811816117db565b165f52600560205260405f208054600182015490600360028401549301546040519384936001600160601b038060a087019560ff81161515885260081c161660208601526040850152606084015260808301520390f35b9181601f840112156103e55782359167ffffffffffffffff83116103e5576020808501948460051b0101116103e557565b346103e55760603660031901126103e55760043560243567ffffffffffffffff81116103e5576118cd903690600401611868565b9091604435815f52600460205260ff60405f20541615610b2857815f52600460205260ff60405f205460081c1615611305576119146105266001546001600160a01b031690565b60a0604051809263564a565d60e01b8252818061193988600483019190602083019252565b03915afa80156103e0576001915f91611b02575b5061195781613301565b03611ada578215611ab2578015611a8a576119806104e56104df845f52600360205260405f2090565b50925f935f5b8281106119d85750936119c060057f05cc2f1c94966f1c961b410a50f3d3ffb64501346753a258177097ea23707f089596019182546133c9565b90556119d3604051928392339784613fde565b0390a3005b6119ed6119e682858a6135ed565b3583613639565b50543390611a069060081c6001600160a01b0316610526565b03611a62576001611a22611a1b83868b6135ed565b3584613639565b50015415611a4e575b80846001611a45611a3e8295888d6135ed565b3586613639565b50015501611986565b94611a5a600191613f93565b959050611a2b565b7f8016bef7000000000000000000000000000000000000000000000000000000005f5260045ffd5b7f37b5b73d000000000000000000000000000000000000000000000000000000005f5260045ffd5b7fb7a08e6e000000000000000000000000000000000000000000000000000000005f5260045ffd5b7f97ab7f79000000000000000000000000000000000000000000000000000000005f5260045ffd5b611b1b915060a03d60a0116105f2576105df8183610637565b50509150505f61194d565b9181601f840112156103e55782359167ffffffffffffffff83116103e557602083818601950101116103e557565b346103e55760a03660031901126103e55760043560443560243560643567ffffffffffffffff81116103e557611b8e903690600401611b26565b9290916001600160a01b03611bac611ba7368787610675565b613ffb565b505016805f52603960205260ff60405f20541615611cc557506001600160a01b03600154163303611cb7577fd3106f74c2d30a4b9230e756a3e78bde53865d40f6af4c479bb010ebaab5810893611c7d6003611051611c8994895f52600460205260405f20908a611c1e835460ff1690565b15611c8e57611c3b6104df611c4d925f52600360205260405f2090565b50925b805461ffff1916610101179055565b876001830155611c60868a8685016140b2565b611c7782549160028401905f5260205260405f2090565b55613444565b6040519384938461417b565b0390a2005b91611c4d90600254611cb1611ca161402c565b50955f52600360205260405f2090565b55611c3e565b628448c760e31b5f5260045ffd5b7f06439c6b000000000000000000000000000000000000000000000000000000005f5260045260245ffd5b346103e55760203660031901126103e557611d0c600435613535565b6040518091602082016020835281518091526020604084019201905f5b818110611d37575050500390f35b8251845285945060209384019390920191600101611d29565b346103e55760203660031901126103e5576001600160a01b03600435611d758161070c565b165f526039602052602060ff60405f2054166040519015158152f35b60609060031901126103e557600435906024359060443590565b346103e557611de8611dbc36611d91565b92915f526003602052611dd260405f205461168c565b50905f526002810160205260405f20549061329d565b5061037060018201549160ff6003820154169360048201549160026005820154918054935f520160205260405f205492604051968796879260a094919796959260c08501988552151560208501526040840152606083015260808201520152565b346103e55760603660031901126103e557600435611e668161070c565b60243560443567ffffffffffffffff81116103e557611e899036906004016106ab565b6001600160a01b035f54163303611edf575f928392602083519301915af1611eaf613506565b5015611eb757005b7f44125e5e000000000000000000000000000000000000000000000000000000005f5260045ffd5b7f596dcdb8000000000000000000000000000000000000000000000000000000005f5260045ffd5b346103e55760203660031901126103e557600435611f336104e56104df835f52600360205260405f2090565b50611f6e60a0611f4e6105266001546001600160a01b031690565b936040518093819263564a565d60e01b8352600483019190602083019252565b0381865afa80156103e057611fb39360c0925f92612029575b506040518080968194630fad06e960e11b8352600483019190916001600160601b036020820193169052565b03915afa80156103e057610370925f91611ff4575b5015611fea5760046005820154915b0154604051911481529081906020820190565b6004815491611fd7565b612016915060c03d60c011612022575b61200e8183610637565b8101906135ad565b5050505090505f611fc8565b503d612004565b61204391925060a03d60a0116105f2576105df8183610637565b50505050905f611f87565b346103e55760c03660031901126103e55760043560243567ffffffffffffffff81116103e557612082903690600401611868565b909160443591606435919060843560a43567ffffffffffffffff81116103e5576120b0903690600401611b26565b9092851561216d57845f52600360205260405f20546120d86120d18261168c565b5054613223565b5f5b83811061212a575050507f1b3ed7b3549623db07221c00a98438a92678197eb98aef0615a1fe31aa8bb2aa93929161211788612125938b89613df1565b60405193849333988561361d565b0390a4005b60019061213f845f52603a60205260405f2090565b835f52602052896121668d612159848960405f20936135ed565b355f5260205260405f2090565b55016120da565b7f2ddf7e44000000000000000000000000000000000000000000000000000000005f5260045ffd5b346103e5576121a336611d91565b915f52603a60205260405f20905f5260205260405f20905f52602052602060405f2054604051908152f35b9060a06003198301126103e5576004359160243567ffffffffffffffff81116103e557816121fe91600401611868565b9290929160443591606435916084359067ffffffffffffffff82116103e5576106c6916004016106ab565b346103e557612237366121ce565b91949290835f52600460205260ff60405f20541615610b2857835f52600460205260ff60405f205460081c16156113055761227d6105266001546001600160a01b031690565b9060405163564a565d60e01b815260a081806122a189600483019190602083019252565b0381865afa80156103e0576002915f91612606575b506122c081613301565b036125de578215611ab2576122dd855f52600360205260405f2090565b54906122e88261168c565b5092600184015489116112dd576123096123028554613223565b809561329d565b509360405163564a565d60e01b815260a0818061232e8c600483019190602083019252565b0381865afa80156103e0576123729360c0925f9261202957506040518080968194630fad06e960e11b8352600483019190916001600160601b036020820193169052565b03915afa80156103e057898b9288928a955f916125b9575b506125a4575b505050925050505f9392915b8285106124ed577fa000893c71384499023d2d7b21234f7b9e80c78e0330f357dcd667ff578bd3a49450600481016123d58482546133c9565b9055600281016123ed8382905f5260205260405f2090565b6123f88582546133c9565b9055600182019081548085145f1461244357505050600391500161241d815460ff1690565b612435575b505b612125604051928392339784614192565b805460ff191690555f612422565b6124558583905f5260205260405f2090565b546124688284905f5260205260405f2090565b54036124a05750505060039150016124846107f4825460ff1690565b61248f575b50612424565b805460ff191660011790555f612489565b6124c8906124b98684969596905f5260205260405f2090565b5492905f5260205260405f2090565b54106124d7575b505050612424565b919055600301805460ff19169055855f806124cf565b91929390506125006119e68285896135ed565b50543360089190911c6001600160a01b031603611a6257612530612528611a1b83868a6135ed565b505460ff1690565b61257c5780876002612548611a3e600195888c6135ed565b50015561257161256361255c83878b6135ed565b3585613639565b50805460ff19166001179055565b01929190869061239c565b7fb3808bab000000000000000000000000000000000000000000000000000000005f5260045ffd5b6125ad966142e2565b5f808488858984612390565b6125d2915060c03d60c0116120225761200e8183610637565b5050505090505f61238a565b7febd6a5e7000000000000000000000000000000000000000000000000000000005f5260045ffd5b61261f915060a03d60a0116105f2576105df8183610637565b50509150505f6122b6565b346103e5575f3660031901126103e55760206001600160a01b035f5416604051908152f35b346103e55760203660031901126103e55760043561266c8161070c565b6001600160a01b035f54163303611edf576001600160a01b03166001600160a01b031960015416176001555f80f35b346103e5576126a9366121ce565b855f969493969592955260036020526126c560405f205461168c565b5080545f19810190811161043d576126dc9161329d565b5083156116a8576126f76001600160a01b0391843590613639565b505460081c169460ff195f5c1660ff33881416175f5d845f52600460205260ff60405f20541615610b2857845f52600460205260ff60405f205460081c16156113055761274f6105266001546001600160a01b031690565b9060405163564a565d60e01b815260a081806127738a600483019190602083019252565b0381865afa80156103e0576002915f91612a73575b5061279281613301565b036125de578415611ab2576127af865f52600360205260405f2090565b54906127ba8261168c565b509260018401548a116112dd576127d46123028554613223565b509360405163564a565d60e01b815260a081806127f98d600483019190602083019252565b0381865afa80156103e05761283d9360c0925f9261202957506040518080968194630fad06e960e11b8352600483019190916001600160601b036020820193169052565b03915afa80156103e057878c928a9289955f91612a4e575b50612a39575b50505093925050506001600160a01b035f9716965b8581106129bf57509161290b918360047fa000893c71384499023d2d7b21234f7b9e80c78e0330f357dcd667ff578bd3a4979695016128b08782546133c9565b9055600281016128c88382905f5260205260405f2090565b6128d38882546133c9565b9055600182019081548085145f146129245750505060039150016128f8815460ff1690565b612916575b505b60405193849384614192565b0390a4610ef3613652565b805460ff191690555f6128fd565b6129368583905f5260205260405f2090565b546129498284905f5260205260405f2090565b54036129815750505060039150016129656107f4825460ff1690565b612970575b506128ff565b805460ff191660011790555f61296a565b61299a906124b98684969596905f5260205260405f2090565b54106129a9575b5050506128ff565b919055600301805460ff19169055875f806129a1565b909150866001600160a01b036129ed6129dc611a3e858a8a6135ed565b505460081c6001600160a01b031690565b1603611a6257612a04612528611a1b8388886135ed565b61257c5780886002612a1c611a3e6001958a8a6135ed565b500155612a3061256361255c8389896135ed565b01908791612870565b612a42966142e2565b5f80838987878461285b565b612a67915060c03d60c0116120225761200e8183610637565b5050505090505f612855565b612a8c915060a03d60a0116105f2576105df8183610637565b50509150505f612788565b346103e557610370612aab6104a13661046c565b60408051828152602081019290925290918291820190565b346103e55760203660031901126103e557600435612ae08161070c565b5f5490336001600160a01b03831603611edf576001600160a01b036001600160a01b031991169116175f555f80f35b346103e5576080612b2b612b25611dbc36611d91565b50613639565b5060ff815460026001840154930154604051936001600160a01b038360081c168552602085015260408401521615156060820152f35b801515036103e557565b6024359061171d82612b61565b346103e55760403660031901126103e55760043567ffffffffffffffff81116103e557366023820112156103e55780600401359067ffffffffffffffff8211610632578160051b60405192612bd06020830185610637565b835260246020840191830101913683116103e557602401905b828210612c0257610ef384612bfc612b6b565b9061365c565b602080918335612c118161070c565b815201910190612be9565b346103e5575f3660031901126103e5576020604051614e208152f35b346103e55760c03660031901126103e557600435612c55816117db565b60a03660231901126103e557604051610ef391612c7182610616565b602435612c7d81612b61565b8252604435612c8b816117db565b60208301526064356040830152608435606083015260a43560808301526136c6565b346103e557602060ff612cef612b25612cc536611d91565b92915f5260038652612cda60405f205461168c565b50905f5260028101865260405f20549061329d565b5054166040519015158152f35b346103e557612d0a36611d91565b906001600160a01b03600154163303611cb757825f52600460205260ff60405f20541615610b2857825f52600460205260ff60405f205460081c161561130557612d539261381e565b604080516001600160a01b039390931683526001600160601b0391909116602083015290f35b346103e5575f3660031901126103e55760206040516113888152f35b346103e55760603660031901126103e557600435612db28161070c565b60243590612dbf8261070c565b604435612dcb8161070c565b5f51602061444d5f395f51905f5254604081901c60ff1615939067ffffffffffffffff168480612f1b575b159081612ef3575b50612ee557612e429284612e39600167ffffffffffffffff195f51602061444d5f395f51905f525416175f51602061444d5f395f51905f5255565b612ea657613a4f565b612e4857005b612e7768ff0000000000000000195f51602061444d5f395f51905f5254165f51602061444d5f395f51905f5255565b604051600181527fc7f505b2f371ae2175ee4913f4499e1f2633a7b5936321eed1cdaeb6115181d290602090a1005b612ee06801000000000000000068ff0000000000000000195f51602061444d5f395f51905f525416175f51602061444d5f395f51905f5255565b613a4f565b62dc149f60e41b5f5260045ffd5b303b15915081612f06575b50155f612dfe565b6001915067ffffffffffffffff16145f612efe565b50600167ffffffffffffffff821610612df6565b346103e55760403660031901126103e55760043560243567ffffffffffffffff81116103e557602091612f696104a99236906004016106ab565b90613b15565b346103e55760403660031901126103e55760206104a9602435600435613b3c565b346103e55760c03660031901126103e557602435612fad816117db565b604435612fb9816117db565b606435906084359160a435905f935f955f94612fe6826001600160601b03165f52600560205260405f2090565b935f948054612ff58160ff1690565b6130c2575b50506001600160601b038816156130a8575b50508615613064575b5050509061037091811561304b575b50604051938493846040919493926001600160601b03606083019616825260208201520152565b61305e915061305990613256565b6133bb565b5f613024565b610370949396506001600160601b03166001600160601b03861614158061309f575b156130975750935b90915f80613015565b90509361308e565b50811515613086565b9196509084106130bb575b945f8061300c565b50846130b3565b6003820154919a509298509650935060081c6001600160601b03169560026001890154980154935f80612ffa565b346103e5575f3660031901126103e55760206040516127108152f35b346103e5575f3660031901126103e55760206001600160a01b0360015416604051908152f35b346103e55760403660031901126103e557600435602435905f526003602052600260405f2054916131628361168c565b50905f520160205260405f2054906103706040519283928360209093929193604081019481520152565b346103e55760203660031901126103e5576004355f5260046020526040805f205460ff8251918181161515835260081c1615156020820152f35b346103e55760203660031901126103e55760206131e460043561168c565b5054604051908152f35b91908260409103126103e5576020825192015190565b6040513d5f823e3d90fd5b634e487b7160e01b5f52601160045260245ffd5b5f1981019190821161043d57565b9190820391821161043d57565b90611388820291808304611388149015171561043d57565b908160011b918083046002149015171561043d57565b8181029291811591840414171561043d57565b8115613289570490565b634e487b7160e01b5f52601260045260245ffd5b80548210156116a8575f52601660205f20910201905f90565b908160a09103126103e55780516132cc816117db565b9160208201516132db8161070c565b91604081015160058110156103e55791608060608301516132fb81612b61565b92015190565b6005111561330b57565b634e487b7160e01b5f52602160045260245ffd5b8051156116a85760200190565b90604051906020820192835260408201526040815261334c606082610637565b51902090565b908160209103126103e557516106c681612b61565b908160609103126103e5578051916040602083015161338581612b61565b9201516106c681612b61565b8054156116a8575f5260205f20905f90565b8054600110156116a8575f52600160205f2001905f90565b906001820180921161043d57565b9190820180921161043d57565b908160209103126103e5575190565b8054906801000000000000000082101561063257600182018082558210156116a8575f5260205f200155565b908160a09103126103e5578051613427816117db565b916020820151916040810151916080606083015161338581612b61565b805468010000000000000000811015610632576134669160018201815561329d565b9091565b92919083526020830152606060408301525f91815491613489836116ad565b928360608401526001811690815f146134e557506001146134ab575b50505090565b5f90815260208120929350915b8383106134ce57506080925001015f80806134a5565b8054608084840101526020909201916001016134b8565b9150506080935060ff929192191683830152151560051b01015f80806134a5565b3d15613530573d9061351782610659565b916135256040519384610637565b82523d5f602084013e565b606090565b5f52600360205261354960405f205461168c565b5080545f1981019190821161043d57600a916135649161329d565b5001604051808260208294549384815201905f5260205f20925f5b8181106135945750506106c692500382610637565b845483526001948501948694506020909301920161357f565b91908260c09103126103e55781516135c4816117db565b9160208101516135d381612b61565b9160408201519160608101519160a0608083015192015190565b91908110156116a85760051b0190565b908060209392818452848401375f828201840152601f01601f1916010190565b6106c694926060928252602082015281604082015201916135fd565b80548210156116a8575f52600d60205f20910201905f90565b60ff195f5c165f5d565b9190916001600160a01b035f54163303611edf575f5b81518110156136c05781518110156116a857806001600160a01b03602060019360051b85010151165f5260396020526136ba8560405f209060ff801983541691151516179055565b01613672565b50509050565b6001600160a01b035f54163303611edf576137bd6001600160601b037f71529df3fabadde972c59f3276e788dd2a815d245b46ed849651d7461b1be073921692835f52600560205260405f2061372b82511515829060ff801983541691151516179055565b60208201516cffffffffffffffffffffffff0082549160081b16906cffffffffffffffffffffffff0019161781556040820151600182015560608201516002820155600360808301519101556040519182918291909160808060a08301948051151584526001600160601b03602082015116602085015260408101516040850152606081015160608501520151910152565b0390a2565b908160209103126103e557516106c68161070c565b91908260409103126103e557602082516137f08161070c565b9201516106c6816117db565b8054680100000000000000008110156106325761346691600182018155613639565b9192909261383a6104e56104df855f52600360205260405f2090565b50906138516105266001546001600160a01b031690565b604051957f2e1daf2f000000000000000000000000000000000000000000000000000000008752602087600481855afa9687156103e0575f97613a1e575b5060a0604051809363564a565d60e01b825281806138b58b600483019190602083019252565b03915afa9687156103e057866001600160a01b03613927996040955f916139fb575b5085519a8b95869485937fd045e002000000000000000000000000000000000000000000000000000000008552600485016040919493926001600160601b03606083019616825260208201520152565b0392165afa9384156103e0575f955f956139c4575b5084866001600160a01b038116156139bb575050908561395c92846141b8565b156139b5576110d284600b836108d18361397861171d976137fc565b509074ffffffffffffffffffffffffffffffffffffffff001974ffffffffffffffffffffffffffffffffffffffff0083549260081b169116179055565b505f9250565b96509450505050565b9094506139ea91955060403d6040116139f4575b6139e28183610637565b8101906137d7565b949094935f61393c565b503d6139d8565b613a14915060a03d60a0116105f2576105df8183610637565b505050505f6138d7565b613a4191975060203d602011613a48575b613a398183610637565b8101906137c2565b955f61388f565b503d613a2f565b9060ff5f51602061444d5f395f51905f525460401c1615613aed576001600160a01b038092166001600160a01b03195f5416175f55166001600160a01b0319600154161760015574ffffffffffffffffffffffffffffffffffffffff001974ffffffffffffffffffffffffffffffffffffffff006006549260081b169116176006555f8052603960205261171d60405f20600160ff19825416179055565b7fd7e6bcf8000000000000000000000000000000000000000000000000000000005f5260045ffd5b9060208151910120604051906020820192835260408201526040815261334c606082610637565b906060613b78613baf92613b71613b5e6104df875f52600360205260405f2090565b509160028301905f5260205260405f2090565b549061329d565b5092613b8f6105266001546001600160a01b031690565b6040518080958194631c3db16d60e01b8352600483019190602083019252565b03915afa9182156103e0575f915f93613c23575b5060048101549283158015613c03575b15613be057505050505f90565b15613bea57505090565b613bff9250600201905f5260205260405f2090565b5490565b5080158015613bd357505f83815260028301602052604090205415613bd3565b909250613c3f915060603d606011610b2157610b108183610637565b50915f613bc3565b91613b78606091612b25613c6d94613b71613b5e6104df895f52600360205260405f2090565b03915afa9081156103e0575f905f92613cc0575b50825460ff169283613ca1575b5050505f14613c9d5761271090565b5f90565b600201541491508115613cb8575b505f8080613c8e565b90505f613caf565b9050613cdb915060603d606011610b2157610b108183610637565b50905f613c81565b9091825f8115613dd5575b5f80809381936001600160a01b03881690f1613dd0576001600160a01b031691823b156103e5576040517fd0e30db00000000000000000000000000000000000000000000000000000000081525f8160048185885af180156103e057613dbc575b50823b156103e5576040517fa9059cbb0000000000000000000000000000000000000000000000000000000081526001600160a01b039290921660048301526024820152905f908290604490829084905af180156103e057613dae5750565b806110175f61171d93610637565b806110175f613dca93610637565b5f613d4f565b505050565b506108fc613cee565b6001600160a01b035f54163303611edf57565b91929092825f52600460205260ff60405f20541615610b2857825f52600460205260ff60405f205460081c161561130557613e376105266001546001600160a01b031690565b60a0604051809263564a565d60e01b82528180613e5c89600483019190602083019252565b03915afa80156103e0576001915f91613f6f575b50613e7a81613301565b03611ada578015611ab2578115611a8a57613ea36104e56104df855f52600360205260405f2090565b505f905f5b838110613efa575060050180547f05cc2f1c94966f1c961b410a50f3d3ffb64501346753a258177097ea23707f08949392613ee2916133c9565b9055613ef5604051928392339784613fde565b0390a3565b613f086119e682868a6135ed565b50543390613f219060081c6001600160a01b0316610526565b03611a62576001613f36611a1b83878b6135ed565b50015415613f5b575b80856001613f52611a3e8295898d6135ed565b50015501613ea8565b91613f67600191613f93565b929050613f3f565b613f88915060a03d60a0116105f2576105df8183610637565b50509150505f613e70565b5f19811461043d5760010190565b90918281527f07ffffffffffffffffffffffffffffffffffffffffffffffffffffffffffffff83116103e55760209260051b809284830137010190565b939291602091613ff691604087526040870191613fa1565b930152565b9060a08251106140235760a0608083015192015160016001600160a01b0384169360a01c1691565b5f915081908190565b6002546801000000000000000081101561063257600181016002556002548110156116a85760025f52600e60205f20910201905f90565b601f821161407057505050565b5f5260205f20906020601f840160051c830193106140a8575b601f0160051c01905b81811061409d575050565b5f8155600101614092565b9091508190614089565b90929167ffffffffffffffff8111610632576140d8816140d284546116ad565b84614063565b5f601f82116001146141165781906141079394955f9261410b575b50508160011b915f199060031b1c19161790565b9055565b013590505f806140f3565b601f19821694614129845f5260205f2090565b915f5b87811061416357508360019596971061414a575b505050811b019055565b01355f19600384901b60f8161c191690555f8080614140565b9092602060018192868601358155019401910161412c565b6040906106c69492815281602082015201916135fd565b916106c693916141aa91604085526040850191613fa1565b9160208184039101526115f5565b509091506141c96107f483836143e8565b6142dc576141f9611ba760036141f26104df6001600160a01b03955f52600360205260405f2090565b50016116e5565b9391929092169182156142d3571561428b576040517efdd58e0000000000000000000000000000000000000000000000000000000081526001600160a01b039091166004820152602481019290925260209082908180604481015b03915afa9081156103e0575f9161426c575b50151590565b614285915060203d6020116111cf576111be8183610637565b5f614266565b6040517f70a082310000000000000000000000000000000000000000000000000000000081526001600160a01b03909116600482015291506020908290818060248101614254565b50505050600190565b50505f90565b959193826142f29196929661332c565b5f5b84811061438457505060ff5f5c1661437c5761430f91613b15565b925f5b82811061432157505050505050565b8461434661433b846108bb8a5f52603a60205260405f2090565b6121598487896135ed565b540361435457600101614312565b7f480610f3000000000000000000000000000000000000000000000000000000005f5260045ffd5b505050505050565b8160016143b061439d8a6143978d61168c565b5061329d565b506143a9858a8c6135ed565b3590613639565b500154036143c0576001016142f4565b7f6e6ac81a000000000000000000000000000000000000000000000000000000005f5260045ffd5b60065460ff1615614445575f52600360205261440760405f205461168c565b5080545f1981019290831161043d57600b61442760ff9461443f9461329d565b5001906001600160a01b03165f5260205260405f2090565b54161590565b505060019056fef0c57e16840df040f15088dc2f81fe391c3923bec73e23a9662efc9c229c6a0ea2646970667358221220d54fadfb63a17367f17a8a647e7befce24b56a46ad80f283f33023d25cbc697964736f6c634300081e0033f0c57e16840df040f15088dc2f81fe391c3923bec73e23a9662efc9c229c6a0e",
  "devdoc": {
    "errors": {
      "AlreadyInitialized()": [
        {
          "details": "The contract is already initialized."
        }
      ],
      "NotInitializing()": [
        {
          "details": "The contract is not initializing."
        }
      ]
    },
    "events": {
      "ChoiceFunded(uint256,uint256,uint256)": {
        "params": {
          "_choice": "The choice that is being funded.",
          "_coreDisputeID": "The identifier of the dispute in the Arbitrator contract.",
          "_coreRoundID": "The identifier of the round in the Arbitrator contract."
        }
      },
      "CommitCast(uint256,address,uint256[],bytes32)": {
        "params": {
          "_commit": "The commitment of the juror.",
          "_coreDisputeID": "The identifier of the dispute in the Arbitrator contract.",
          "_juror": "The address of the juror casting the vote commitment.",
          "_voteIDs": "The identifiers of the votes in the dispute."
        }
      },
      "CommitCastShutter(uint256,address,bytes32,bytes32,bytes32,bytes)": {
        "details": "Emitted when a vote is cast.",
        "params": {
          "_choiceCommit": "The commitment hash without the justification.",
          "_coreDisputeID": "The identifier of the dispute in the Arbitrator contract.",
          "_encryptedVote": "The Shutter encrypted vote.",
          "_identity": "The Shutter identity used for encryption.",
          "_juror": "The address of the juror casting the vote commitment.",
          "_justificationCommit": "The commitment hash for the justification."
        }
      },
      "Contribution(uint256,uint256,uint256,address,uint256)": {
        "params": {
          "_amount": "The amount contributed.",
          "_choice": "The choice that is being funded.",
          "_contributor": "The address of the contributor.",
          "_coreDisputeID": "The identifier of the dispute in the Arbitrator contract.",
          "_coreRoundID": "The identifier of the round in the Arbitrator contract."
        }
      },
      "DisputeCreation(uint256,uint256,bytes)": {
        "params": {
          "_coreDisputeID": "The identifier of the dispute in the Arbitrator contract.",
          "_extraData": "The extra data for the dispute.",
          "_numberOfChoices": "The number of choices available in the dispute."
        }
      },
      "Initialized(uint64)": {
        "details": "Triggered when the contract has been initialized or reinitialized."
      },
      "NextRoundSettingsChanged(uint96,(bool,uint96,uint256,uint256,uint256))": {
        "params": {
          "_courtID": "The ID of the court that the settings are changed for.",
          "_nextRoundSettings": "The settings for the next round."
        }
      },
      "Upgraded(address)": {
        "params": {
          "newImplementation": "Address of the new implementation the proxy is now forwarding calls to."
        }
      },
      "VoteCast(uint256,address,uint256[],uint256,string)": {
        "params": {
          "_choice": "The choice juror voted for.",
          "_coreDisputeID": "The identifier of the dispute in the Arbitrator contract.",
          "_juror": "Address of the juror.",
          "_justification": "Justification of the choice.",
          "_voteIDs": "The identifiers of the votes in the dispute."
        }
      },
      "Withdrawal(uint256,uint256,address,uint256)": {
        "params": {
          "_amount": "The amount withdrawn.",
          "_choice": "The choice that is being funded.",
          "_contributor": "The address of the contributor.",
          "_coreDisputeID": "The identifier of the dispute in the Arbitrator contract."
        }
      }
    },
    "kind": "dev",
    "methods": {
      "areCommitsAllCast(uint256)": {
        "params": {
          "_coreDisputeID": "The ID of the dispute in Kleros Core, not in the Dispute Kit."
        },
        "returns": {
          "_0": "Whether all of the jurors have cast their commits for the last round."
        }
      },
      "areVotesAllCast(uint256)": {
        "details": "This function is to be called directly by the core contract and is not for off-chain usage.",
        "params": {
          "_coreDisputeID": "The ID of the dispute in Kleros Core, not in the Dispute Kit."
        },
        "returns": {
          "_0": "Whether all of the jurors have cast their votes for the last round."
        }
      },
      "castCommit(uint256,uint256[],bytes32)": {
        "details": "It can be called multiple times during the commit period, each call overrides the commits of the previous one. `O(n)` where `n` is the number of votes.",
        "params": {
          "_commit": "The commitment hash.",
          "_coreDisputeID": "The ID of the dispute in Kleros Core.",
          "_voteIDs": "The IDs of the votes."
        }
      },
      "castCommitShutter(uint256,uint256[],bytes32,bytes32,bytes32,bytes)": {
        "details": "It can be called multiple times during the commit period, each call overrides the commits of the previous one. `O(n)` where `n` is the number of votes.",
        "params": {
          "_choiceCommit": "The commitment hash without the justification.",
          "_coreDisputeID": "The ID of the dispute in Kleros Core.",
          "_encryptedVote": "The Shutter encrypted vote.",
          "_identity": "The Shutter identity used for encryption.",
          "_justificationCommit": "The commitment hash for justification.",
          "_voteIDs": "The IDs of the votes."
        }
      },
      "castVote(uint256,uint256[],uint256,uint256,string)": {
        "details": "`O(n)` where `n` is the number of votes.",
        "params": {
          "_choice": "The choice.",
          "_coreDisputeID": "The ID of the dispute in Kleros Core.",
          "_justification": "Justification of the choice.",
          "_salt": "The salt for the commit if the votes were hidden.",
          "_voteIDs": "The IDs of the votes."
        }
      },
      "castVoteShutter(uint256,uint256[],uint256,uint256,string)": {
        "details": "`O(n)` where `n` is the number of votes.",
        "params": {
          "_choice": "The choice.",
          "_coreDisputeID": "The ID of the dispute in Kleros Core.",
          "_justification": "Justification of the choice.",
          "_salt": "The salt for the commit if the votes were hidden.",
          "_voteIDs": "The IDs of the votes."
        }
      },
      "changeCore(address)": {
        "params": {
          "_core": "The new value for the `core` storage variable."
        }
      },
      "changeNextRoundSettings(uint96,(bool,uint96,uint256,uint256,uint256))": {
        "params": {
          "_courtID": "The ID of the court that the settings are changed for.",
          "_nextRoundSettings": "The settings for the next round."
        }
      },
      "changeOwner(address)": {
        "params": {
          "_owner": "The new value for the `owner` storage variable."
        }
      },
      "changeSupportedTokens(address[],bool)": {
        "params": {
          "_supported": "Whether the tokens are supported or not.",
          "_tokens": "The tokens to support."
        }
      },
      "constructor": {
        "custom:oz-upgrades-unsafe-allow": "constructor"
      },
      "createDispute(uint256,uint256,uint256,bytes,uint256)": {
        "details": "Access restricted to Kleros Core only.The new `KlerosCore.Round` must be created before calling this function.",
        "params": {
          "_coreDisputeID": "The ID of the dispute in Kleros Core, not in the Dispute Kit.",
          "_coreRoundID": "The ID of the round in Kleros Core, not in the Dispute Kit.",
          "_extraData": "Additional info about the dispute, for possible use in future dispute kits.",
          "_nbVotes": "Maximal number of votes this dispute can get. Added for future-proofing.",
          "_numberOfChoices": "Number of choices of the dispute"
        }
      },
      "currentRuling(uint256)": {
        "params": {
          "_coreDisputeID": "The ID of the dispute in Kleros Core, not in the Dispute Kit."
        },
        "returns": {
          "overridden": "Whether the ruling was overridden by appeal funding or not.",
          "ruling": "The current ruling.",
          "tied": "Whether it's a tie or not."
        }
      },
      "draw(uint256,uint256,uint256)": {
        "details": "Access restricted to Kleros Core only.",
        "params": {
          "_coreDisputeID": "The ID of the dispute in Kleros Core, not in the Dispute Kit.",
          "_nonce": "Nonce.",
          "_roundNbVotes": "The number of votes in the round, including already drawn and yet to be drawn."
        },
        "returns": {
          "drawnAddress": "The drawn address.",
          "fromSubcourtID": "The subcourt ID from which the juror was drawn."
        }
      },
      "executeOwnerProposal(address,uint256,bytes)": {
        "params": {
          "_amount": "The value sent with the call.",
          "_data": "The data sent with the call.",
          "_destination": "The destination of the call."
        }
      },
      "fundAppeal(uint256,uint256)": {
        "params": {
          "_choice": "A choice that receives funding.",
          "_coreDisputeID": "Index of the dispute in Kleros Core."
        }
      },
      "getCoherentCount(uint256,uint256)": {
        "params": {
          "_coreDisputeID": "The ID of the dispute in Kleros Core, not in the Dispute Kit.",
          "_coreRoundID": "The ID of the round in Kleros Core, not in the Dispute Kit."
        },
        "returns": {
          "_0": "The number of coherent jurors."
        }
      },
      "getDegreeOfCoherencePenalty(uint256,uint256,uint256,uint256,uint256)": {
        "details": "This function is called by Kleros Core in order to determine the amount of the penalty.",
        "params": {
          "_coreDisputeID": "The ID of the dispute in Kleros Core, not in the Dispute Kit.",
          "_coreRoundID": "The ID of the round in Kleros Core, not in the Dispute Kit.",
          "_feePerJuror": "The fee per juror.",
          "_pnkAtStakePerJuror": "The PNK at stake per juror.",
          "_voteID": "The ID of the vote."
        },
        "returns": {
          "pnkCoherence": "The degree of coherence in basis points for the dispute PNK reward."
        }
      },
      "getDegreeOfCoherenceReward(uint256,uint256,uint256,uint256,uint256)": {
        "details": "This function is called by Kleros Core in order to determine the amount of the reward.",
        "params": {
          "_coreDisputeID": "The ID of the dispute in Kleros Core, not in the Dispute Kit.",
          "_coreRoundID": "The ID of the round in Kleros Core, not in the Dispute Kit.",
          "_feePerJuror": "The fee per juror.",
          "_pnkAtStakePerJuror": "The PNK at stake per juror.",
          "_voteID": "The ID of the vote."
        },
        "returns": {
          "feeCoherence": "The degree of coherence in basis points for the dispute fee reward.",
          "pnkCoherence": "The degree of coherence in basis points for the dispute PNK reward."
        }
      },
      "getFundedChoices(uint256)": {
        "params": {
          "_coreDisputeID": "The ID of the dispute in Kleros Core."
        },
        "returns": {
          "fundedChoices": "Fully funded rulings."
        }
      },
      "getLocalDisputeRoundID(uint256,uint256)": {
        "params": {
          "_coreDisputeID": "The ID of the dispute in Kleros Core.",
          "_coreRoundID": "The ID of the round in Kleros Core."
        },
        "returns": {
          "localDisputeID": "The ID of the dispute in the Dispute Kit.",
          "localRoundID": "The ID of the round in the Dispute Kit."
        }
      },
      "getNextRoundSettings(uint256,uint96,uint96,uint256,uint256,uint256)": {
        "details": "This function does not check for compatibility between `newDisputeKitID` and `newCourtID`, this is the Core's responsibility.",
        "params": {
          "_coreDisputeID": "The ID of the dispute in Kleros Core, not in the Dispute Kit.",
          "_currentCourtID": "The ID of the current court.",
          "_currentCourtJurorsForJump": "The court jump threshold defined by the current court.",
          "_currentDisputeKitID": "The ID of the current dispute kit.",
          "_currentRoundNbVotes": "The number of votes in the current round.",
          "_parentCourtID": "The ID of the parent court."
        },
        "returns": {
          "newCourtID": "Court ID after jump.",
          "newDisputeKitID": "Dispute kit ID after jump.",
          "newRoundNbVotes": "The number of votes in the new round."
        }
      },
      "getNumberOfRounds(uint256)": {
        "params": {
          "_localDisputeID": "The ID of the dispute in the Dispute Kit."
        },
        "returns": {
          "_0": "The number of rounds in the dispute."
        }
      },
      "getRoundInfo(uint256,uint256,uint256)": {
        "params": {
          "_choice": "The choice to query.",
          "_coreDisputeID": "The ID of the dispute in Kleros Core, not in the Dispute Kit.",
          "_coreRoundID": "The ID of the round in Kleros Core, not in the Dispute Kit."
        },
        "returns": {
          "choiceCount": "Number of votes cast for the queried choice.",
          "nbVoters": "Total number of voters in this round.",
          "tied": "Whether it's a tie or not.",
          "totalCommitted": "Number of jurors who cast the commit already (only relevant for hidden votes).",
          "totalVoted": "Number of jurors who cast the vote already.",
          "winningChoice": "The winning choice of this round."
        }
      },
      "getVoteInfo(uint256,uint256,uint256)": {
        "params": {
          "_coreDisputeID": "The ID of the dispute in Kleros Core.",
          "_coreRoundID": "The ID of the round in Kleros Core.",
          "_voteID": "The ID of the vote."
        },
        "returns": {
          "account": "The address of the juror who cast the vote.",
          "choice": "The choice that got the vote.",
          "commit": "The commit of the vote.",
          "voted": "Whether the vote was cast or not."
        }
      },
      "hashJustification(uint256,string)": {
        "params": {
          "_justification": "The justification for the vote",
          "_salt": "A random salt for commitment"
        },
        "returns": {
          "_0": "bytes32 The hash of the encoded justification"
        }
      },
      "hashVote(uint256,uint256,string)": {
        "details": "The unused parameters may be used by overriding contracts.",
        "params": {
          "_choice": "The choice being voted for",
          "_salt": "A random salt for commitment"
        },
        "returns": {
          "_0": "bytes32 The hash of the encoded vote parameters"
        }
      },
      "initialize(address,address,address)": {
        "params": {
          "_core": "The KlerosCore arbitrator.",
          "_owner": "The owner's address.",
          "_wNative": "The wrapped native token address, typically wETH."
        }
      },
      "isAppealFunded(uint256)": {
        "details": "This function is to be called directly by the core contract and is not for off-chain usage.",
        "params": {
          "_coreDisputeID": "The ID of the dispute in Kleros Core, not in the Dispute Kit."
        },
        "returns": {
          "_0": "Whether the appeal funding is finished."
        }
      },
      "isVoteActive(uint256,uint256,uint256)": {
        "params": {
          "_coreDisputeID": "The ID of the dispute in Kleros Core, not in the Dispute Kit.",
          "_coreRoundID": "The ID of the round in Kleros Core, not in the Dispute Kit.",
          "_voteID": "The ID of the voter."
        },
        "returns": {
          "_0": "Whether the voter was active or not."
        }
      },
      "proxiableUUID()": {
        "details": "IMPORTANT: A proxy pointing at a proxiable contract should not be considered proxiable itself, because this risks bricking a proxy that upgrades to it, by delegating to itself until out of gas. Thus it is critical that this function revert if invoked through a proxy. This is guaranteed by the if statement."
      },
      "upgradeToAndCall(address,bytes)": {
        "details": "Reverts if the execution is not performed via delegatecall or the execution context is not of a proxy with an ERC1967-compliant implementation pointing to self.",
        "params": {
          "data": "Data used in a delegate call to `newImplementation` if non-empty. This will typically be an encoded function call, and allows initializing the storage of the proxy like a Solidity constructor.",
          "newImplementation": "Address of the new implementation contract."
        }
      },
      "withdrawFeesAndRewards(uint256,address,uint256)": {
        "details": "Withdrawals are not possible if the core contract is paused.It can be called after the dispute has jumped to another dispute kit.",
        "params": {
          "_beneficiary": "The address whose rewards to withdraw.",
          "_choice": "The ruling option that the caller wants to withdraw from.",
          "_coreDisputeID": "Index of the dispute in Kleros Core contract."
        },
        "returns": {
          "amount": "The withdrawn amount."
        }
      }
    },
    "stateVariables": {
      "version": {
        "return": "Version string.",
        "returns": {
          "_0": "Version string."
        }
      }
    },
    "title": "DisputeKitGatedShutter",
    "version": 1
  },
  "userdoc": {
    "errors": {
      "FailedDelegateCall()": [
        {
          "notice": "Failed Delegated call"
        }
      ],
      "InvalidImplementation(address)": [
        {
          "notice": "The `implementation` is not UUPS-compliant"
        }
      ],
      "UUPSUnauthorizedCallContext()": [
        {
          "notice": "The call is from an unauthorized context."
        }
      ],
      "UUPSUnsupportedProxiableUUID(bytes32)": [
        {
          "notice": "The storage `slot` is unsupported as a UUID."
        }
      ]
    },
    "events": {
      "ChoiceFunded(uint256,uint256,uint256)": {
        "notice": "To be emitted when a choice is fully funded for an appeal."
      },
      "CommitCast(uint256,address,uint256[],bytes32)": {
        "notice": "To be emitted when a vote commitment is cast."
      },
      "Contribution(uint256,uint256,uint256,address,uint256)": {
        "notice": "To be emitted when a funding contribution is made."
      },
      "DisputeCreation(uint256,uint256,bytes)": {
        "notice": "To be emitted when a dispute is created."
      },
      "NextRoundSettingsChanged(uint96,(bool,uint96,uint256,uint256,uint256))": {
        "notice": "To be emitted when the next round settings are changed."
      },
      "Upgraded(address)": {
        "notice": "Emitted when the `implementation` has been successfully upgraded."
      },
      "VoteCast(uint256,address,uint256[],uint256,string)": {
        "notice": "Emitted when casting a vote to provide the justification of juror's choice."
      },
      "Withdrawal(uint256,uint256,address,uint256)": {
        "notice": "To be emitted when the contributed funds are withdrawn."
      }
    },
    "kind": "user",
    "methods": {
      "areCommitsAllCast(uint256)": {
        "notice": "Returns true if all of the jurors have cast their commits for the last round."
      },
      "areVotesAllCast(uint256)": {
        "notice": "Returns true if all of the jurors have cast their votes for the last round."
      },
      "castCommit(uint256,uint256[],bytes32)": {
        "notice": "Sets the caller's commit for the specified votes."
      },
      "castCommitShutter(uint256,uint256[],bytes32,bytes32,bytes32,bytes)": {
        "notice": "Sets the caller's commit for the specified votes."
      },
      "castVote(uint256,uint256[],uint256,uint256,string)": {
        "notice": "Sets the caller's choices for the specified votes."
      },
      "castVoteShutter(uint256,uint256[],uint256,uint256,string)": {
        "notice": "Version of the `castVote` function designed specifically for Shutter."
      },
      "changeCore(address)": {
        "notice": "Changes the `core` storage variable."
      },
      "changeNextRoundSettings(uint96,(bool,uint96,uint256,uint256,uint256))": {
        "notice": "Changes the settings for the next round."
      },
      "changeOwner(address)": {
        "notice": "Changes the `owner` storage variable."
      },
      "changeSupportedTokens(address[],bool)": {
        "notice": "Changes the supported tokens."
      },
      "createDispute(uint256,uint256,uint256,bytes,uint256)": {
        "notice": "Creates a local dispute and maps it to the dispute ID in the Core contract."
      },
      "currentRuling(uint256)": {
        "notice": "Gets the current ruling of a specified dispute."
      },
      "draw(uint256,uint256,uint256)": {
        "notice": "Draws the juror from the sortition tree. The drawn address is picked up by Kleros Core."
      },
      "executeOwnerProposal(address,uint256,bytes)": {
        "notice": "Allows the owner to call anything on behalf of the contract."
      },
      "fundAppeal(uint256,uint256)": {
        "notice": "Manages contributions, and appeals a dispute if at least two choices are fully funded. Note that the surplus deposit will be reimbursed."
      },
      "getCoherentCount(uint256,uint256)": {
        "notice": "Gets the number of jurors who are eligible to a reward in this round."
      },
      "getDegreeOfCoherencePenalty(uint256,uint256,uint256,uint256,uint256)": {
        "notice": "Gets the degree of coherence of a particular voter."
      },
      "getDegreeOfCoherenceReward(uint256,uint256,uint256,uint256,uint256)": {
        "notice": "Gets the degree of coherence of a particular voter."
      },
      "getFundedChoices(uint256)": {
        "notice": "Returns the rulings that were fully funded in the latest appeal round."
      },
      "getLocalDisputeRoundID(uint256,uint256)": {
        "notice": "Returns the local dispute ID and round ID for a given core dispute ID and core round ID."
      },
      "getNextRoundSettings(uint256,uint96,uint96,uint256,uint256,uint256)": {
        "notice": "Returns the next round settings for a given dispute."
      },
      "getNumberOfRounds(uint256)": {
        "notice": "Returns the number of rounds in a dispute."
      },
      "getRoundInfo(uint256,uint256,uint256)": {
        "notice": "Returns the info of the specified round in the core contract."
      },
      "getVoteInfo(uint256,uint256,uint256)": {
        "notice": "Returns the vote information for a given vote ID."
      },
      "hashJustification(uint256,string)": {
        "notice": "Computes the hash of a justification using ABI encoding"
      },
      "hashVote(uint256,uint256,string)": {
        "notice": "Computes the hash of a vote using ABI encoding"
      },
      "initialize(address,address,address)": {
        "notice": "Initializer."
      },
      "isAppealFunded(uint256)": {
        "notice": "Returns true if the appeal funding is finished prematurely (e.g. when losing side didn't fund)."
      },
      "isVoteActive(uint256,uint256,uint256)": {
        "notice": "Returns true if the specified voter was active in this round."
      },
      "proxiableUUID()": {
        "notice": "Implementation of the ERC1822 `proxiableUUID` function. This returns the storage slot used by the implementation. It is used to validate the implementation's compatibility when performing an upgrade."
      },
      "upgradeToAndCall(address,bytes)": {
        "notice": "Upgrade mechanism including access control and UUPS-compliance."
      },
      "version()": {
        "notice": "Returns the version of the implementation."
      },
      "withdrawFeesAndRewards(uint256,address,uint256)": {
        "notice": "Allows those contributors who attempted to fund an appeal round to withdraw any reimbursable fees or rewards after the dispute gets resolved."
      }
    },
    "notice": "Added functionality: shielded voting. Dispute kit implementation adapted from DisputeKitClassic - a drawing system: proportional to staked PNK with a non-zero balance of `tokenGate` where `tokenGate` is an ERC20, ERC721 or ERC1155 - a vote aggregation system: plurality, - an incentive system: equal split between coherent votes, - an appeal system: fund 2 choices only, vote on any choice.",
    "version": 1
  },
  "storageLayout": {
    "storage": [
      {
        "astId": 21103,
        "contract": "src/arbitration/dispute-kits/DisputeKitGatedShutter.sol:DisputeKitGatedShutter",
        "label": "owner",
        "offset": 0,
        "slot": "0",
        "type": "t_address"
      },
      {
        "astId": 21106,
        "contract": "src/arbitration/dispute-kits/DisputeKitGatedShutter.sol:DisputeKitGatedShutter",
        "label": "core",
        "offset": 0,
        "slot": "1",
        "type": "t_contract(KlerosCore)16395"
      },
      {
        "astId": 21110,
        "contract": "src/arbitration/dispute-kits/DisputeKitGatedShutter.sol:DisputeKitGatedShutter",
        "label": "disputes",
        "offset": 0,
        "slot": "2",
        "type": "t_array(t_struct(Dispute)21019_storage)dyn_storage"
      },
      {
        "astId": 21114,
        "contract": "src/arbitration/dispute-kits/DisputeKitGatedShutter.sol:DisputeKitGatedShutter",
        "label": "coreDisputeIDToLocal",
        "offset": 0,
        "slot": "3",
        "type": "t_mapping(t_uint256,t_uint256)"
      },
      {
        "astId": 21119,
        "contract": "src/arbitration/dispute-kits/DisputeKitGatedShutter.sol:DisputeKitGatedShutter",
        "label": "coreDisputeIDToActive",
        "offset": 0,
        "slot": "4",
        "type": "t_mapping(t_uint256,t_struct(Active)21081_storage)"
      },
      {
        "astId": 21124,
        "contract": "src/arbitration/dispute-kits/DisputeKitGatedShutter.sol:DisputeKitGatedShutter",
        "label": "courtIDToNextRoundSettings",
        "offset": 0,
        "slot": "5",
        "type": "t_mapping(t_uint96,t_struct(NextRoundSettings)21092_storage)"
      },
      {
        "astId": 21126,
        "contract": "src/arbitration/dispute-kits/DisputeKitGatedShutter.sol:DisputeKitGatedShutter",
        "label": "singleDrawPerJuror",
        "offset": 0,
        "slot": "6",
        "type": "t_bool"
      },
      {
        "astId": 21128,
        "contract": "src/arbitration/dispute-kits/DisputeKitGatedShutter.sol:DisputeKitGatedShutter",
        "label": "wNative",
        "offset": 1,
        "slot": "6",
        "type": "t_address"
      },
      {
        "astId": 21132,
        "contract": "src/arbitration/dispute-kits/DisputeKitGatedShutter.sol:DisputeKitGatedShutter",
        "label": "__gap",
        "offset": 0,
        "slot": "7",
        "type": "t_array(t_uint256)50_storage"
      },
      {
        "astId": 24097,
        "contract": "src/arbitration/dispute-kits/DisputeKitGatedShutter.sol:DisputeKitGatedShutter",
        "label": "supportedTokens",
        "offset": 0,
        "slot": "57",
        "type": "t_mapping(t_address,t_bool)"
      },
      {
        "astId": 24105,
        "contract": "src/arbitration/dispute-kits/DisputeKitGatedShutter.sol:DisputeKitGatedShutter",
        "label": "justificationCommitments",
        "offset": 0,
        "slot": "58",
        "type": "t_mapping(t_uint256,t_mapping(t_uint256,t_mapping(t_uint256,t_bytes32)))"
      }
    ],
    "types": {
      "t_address": {
        "encoding": "inplace",
        "label": "address",
        "numberOfBytes": "20"
      },
      "t_array(t_struct(Dispute)21019_storage)dyn_storage": {
        "base": "t_struct(Dispute)21019_storage",
        "encoding": "dynamic_array",
        "label": "struct DisputeKitClassicBase.Dispute[]",
        "numberOfBytes": "32"
      },
      "t_array(t_struct(Round)21063_storage)dyn_storage": {
        "base": "t_struct(Round)21063_storage",
        "encoding": "dynamic_array",
        "label": "struct DisputeKitClassicBase.Round[]",
        "numberOfBytes": "32"
      },
      "t_array(t_struct(Vote)21076_storage)dyn_storage": {
        "base": "t_struct(Vote)21076_storage",
        "encoding": "dynamic_array",
        "label": "struct DisputeKitClassicBase.Vote[]",
        "numberOfBytes": "32"
      },
      "t_array(t_uint256)10_storage": {
        "base": "t_uint256",
        "encoding": "inplace",
        "label": "uint256[10]",
        "numberOfBytes": "320"
      },
      "t_array(t_uint256)50_storage": {
        "base": "t_uint256",
        "encoding": "inplace",
        "label": "uint256[50]",
        "numberOfBytes": "1600"
      },
      "t_array(t_uint256)dyn_storage": {
        "base": "t_uint256",
        "encoding": "dynamic_array",
        "label": "uint256[]",
        "numberOfBytes": "32"
      },
      "t_bool": {
        "encoding": "inplace",
        "label": "bool",
        "numberOfBytes": "1"
      },
      "t_bytes32": {
        "encoding": "inplace",
        "label": "bytes32",
        "numberOfBytes": "32"
      },
      "t_bytes_storage": {
        "encoding": "bytes",
        "label": "bytes",
        "numberOfBytes": "32"
      },
      "t_contract(KlerosCore)16395": {
        "encoding": "inplace",
        "label": "contract KlerosCore",
        "numberOfBytes": "20"
      },
      "t_mapping(t_address,t_bool)": {
        "encoding": "mapping",
        "key": "t_address",
        "label": "mapping(address => bool)",
        "numberOfBytes": "32",
        "value": "t_bool"
      },
      "t_mapping(t_address,t_mapping(t_uint256,t_uint256))": {
        "encoding": "mapping",
        "key": "t_address",
        "label": "mapping(address => mapping(uint256 => uint256))",
        "numberOfBytes": "32",
        "value": "t_mapping(t_uint256,t_uint256)"
      },
      "t_mapping(t_uint256,t_bool)": {
        "encoding": "mapping",
        "key": "t_uint256",
        "label": "mapping(uint256 => bool)",
        "numberOfBytes": "32",
        "value": "t_bool"
      },
      "t_mapping(t_uint256,t_bytes32)": {
        "encoding": "mapping",
        "key": "t_uint256",
        "label": "mapping(uint256 => bytes32)",
        "numberOfBytes": "32",
        "value": "t_bytes32"
      },
      "t_mapping(t_uint256,t_mapping(t_uint256,t_bytes32))": {
        "encoding": "mapping",
        "key": "t_uint256",
        "label": "mapping(uint256 => mapping(uint256 => bytes32))",
        "numberOfBytes": "32",
        "value": "t_mapping(t_uint256,t_bytes32)"
      },
      "t_mapping(t_uint256,t_mapping(t_uint256,t_mapping(t_uint256,t_bytes32)))": {
        "encoding": "mapping",
        "key": "t_uint256",
        "label": "mapping(uint256 => mapping(uint256 => mapping(uint256 => bytes32)))",
        "numberOfBytes": "32",
        "value": "t_mapping(t_uint256,t_mapping(t_uint256,t_bytes32))"
      },
      "t_mapping(t_uint256,t_struct(Active)21081_storage)": {
        "encoding": "mapping",
        "key": "t_uint256",
        "label": "mapping(uint256 => struct DisputeKitClassicBase.Active)",
        "numberOfBytes": "32",
        "value": "t_struct(Active)21081_storage"
      },
      "t_mapping(t_uint256,t_uint256)": {
        "encoding": "mapping",
        "key": "t_uint256",
        "label": "mapping(uint256 => uint256)",
        "numberOfBytes": "32",
        "value": "t_uint256"
      },
      "t_mapping(t_uint96,t_struct(NextRoundSettings)21092_storage)": {
        "encoding": "mapping",
        "key": "t_uint96",
        "label": "mapping(uint96 => struct DisputeKitClassicBase.NextRoundSettings)",
        "numberOfBytes": "32",
        "value": "t_struct(NextRoundSettings)21092_storage"
      },
      "t_struct(Active)21081_storage": {
        "encoding": "inplace",
        "label": "struct DisputeKitClassicBase.Active",
        "members": [
          {
            "astId": 21078,
            "contract": "src/arbitration/dispute-kits/DisputeKitGatedShutter.sol:DisputeKitGatedShutter",
            "label": "dispute",
            "offset": 0,
            "slot": "0",
            "type": "t_bool"
          },
          {
            "astId": 21080,
            "contract": "src/arbitration/dispute-kits/DisputeKitGatedShutter.sol:DisputeKitGatedShutter",
            "label": "currentRound",
            "offset": 1,
            "slot": "0",
            "type": "t_bool"
          }
        ],
        "numberOfBytes": "32"
      },
      "t_struct(Dispute)21019_storage": {
        "encoding": "inplace",
        "label": "struct DisputeKitClassicBase.Dispute",
        "members": [
          {
            "astId": 21006,
            "contract": "src/arbitration/dispute-kits/DisputeKitGatedShutter.sol:DisputeKitGatedShutter",
            "label": "rounds",
            "offset": 0,
            "slot": "0",
            "type": "t_array(t_struct(Round)21063_storage)dyn_storage"
          },
          {
            "astId": 21008,
            "contract": "src/arbitration/dispute-kits/DisputeKitGatedShutter.sol:DisputeKitGatedShutter",
            "label": "numberOfChoices",
            "offset": 0,
            "slot": "1",
            "type": "t_uint256"
          },
          {
            "astId": 21012,
            "contract": "src/arbitration/dispute-kits/DisputeKitGatedShutter.sol:DisputeKitGatedShutter",
            "label": "coreRoundIDToLocal",
            "offset": 0,
            "slot": "2",
            "type": "t_mapping(t_uint256,t_uint256)"
          },
          {
            "astId": 21014,
            "contract": "src/arbitration/dispute-kits/DisputeKitGatedShutter.sol:DisputeKitGatedShutter",
            "label": "extraData",
            "offset": 0,
            "slot": "3",
            "type": "t_bytes_storage"
          },
          {
            "astId": 21018,
            "contract": "src/arbitration/dispute-kits/DisputeKitGatedShutter.sol:DisputeKitGatedShutter",
            "label": "__gap",
            "offset": 0,
            "slot": "4",
            "type": "t_array(t_uint256)10_storage"
          }
        ],
        "numberOfBytes": "448"
      },
      "t_struct(NextRoundSettings)21092_storage": {
        "encoding": "inplace",
        "label": "struct DisputeKitClassicBase.NextRoundSettings",
        "members": [
          {
            "astId": 21083,
            "contract": "src/arbitration/dispute-kits/DisputeKitGatedShutter.sol:DisputeKitGatedShutter",
            "label": "enabled",
            "offset": 0,
            "slot": "0",
            "type": "t_bool"
          },
          {
            "astId": 21085,
            "contract": "src/arbitration/dispute-kits/DisputeKitGatedShutter.sol:DisputeKitGatedShutter",
            "label": "jumpCourtID",
            "offset": 1,
            "slot": "0",
            "type": "t_uint96"
          },
          {
            "astId": 21087,
            "contract": "src/arbitration/dispute-kits/DisputeKitGatedShutter.sol:DisputeKitGatedShutter",
            "label": "jumpDisputeKitID",
            "offset": 0,
            "slot": "1",
            "type": "t_uint256"
          },
          {
            "astId": 21089,
            "contract": "src/arbitration/dispute-kits/DisputeKitGatedShutter.sol:DisputeKitGatedShutter",
            "label": "jumpDisputeKitIDOnCourtJump",
            "offset": 0,
            "slot": "2",
            "type": "t_uint256"
          },
          {
            "astId": 21091,
            "contract": "src/arbitration/dispute-kits/DisputeKitGatedShutter.sol:DisputeKitGatedShutter",
            "label": "nbVotes",
            "offset": 0,
            "slot": "3",
            "type": "t_uint256"
          }
        ],
        "numberOfBytes": "128"
      },
      "t_struct(Round)21063_storage": {
        "encoding": "inplace",
        "label": "struct DisputeKitClassicBase.Round",
        "members": [
          {
            "astId": 21023,
            "contract": "src/arbitration/dispute-kits/DisputeKitGatedShutter.sol:DisputeKitGatedShutter",
            "label": "votes",
            "offset": 0,
            "slot": "0",
            "type": "t_array(t_struct(Vote)21076_storage)dyn_storage"
          },
          {
            "astId": 21025,
            "contract": "src/arbitration/dispute-kits/DisputeKitGatedShutter.sol:DisputeKitGatedShutter",
            "label": "winningChoice",
            "offset": 0,
            "slot": "1",
            "type": "t_uint256"
          },
          {
            "astId": 21029,
            "contract": "src/arbitration/dispute-kits/DisputeKitGatedShutter.sol:DisputeKitGatedShutter",
            "label": "counts",
            "offset": 0,
            "slot": "2",
            "type": "t_mapping(t_uint256,t_uint256)"
          },
          {
            "astId": 21031,
            "contract": "src/arbitration/dispute-kits/DisputeKitGatedShutter.sol:DisputeKitGatedShutter",
            "label": "tied",
            "offset": 0,
            "slot": "3",
            "type": "t_bool"
          },
          {
            "astId": 21033,
            "contract": "src/arbitration/dispute-kits/DisputeKitGatedShutter.sol:DisputeKitGatedShutter",
            "label": "totalVoted",
            "offset": 0,
            "slot": "4",
            "type": "t_uint256"
          },
          {
            "astId": 21035,
            "contract": "src/arbitration/dispute-kits/DisputeKitGatedShutter.sol:DisputeKitGatedShutter",
            "label": "totalCommitted",
            "offset": 0,
            "slot": "5",
            "type": "t_uint256"
          },
          {
            "astId": 21039,
            "contract": "src/arbitration/dispute-kits/DisputeKitGatedShutter.sol:DisputeKitGatedShutter",
            "label": "paidFees",
            "offset": 0,
            "slot": "6",
            "type": "t_mapping(t_uint256,t_uint256)"
          },
          {
            "astId": 21043,
            "contract": "src/arbitration/dispute-kits/DisputeKitGatedShutter.sol:DisputeKitGatedShutter",
            "label": "hasPaid",
            "offset": 0,
            "slot": "7",
            "type": "t_mapping(t_uint256,t_bool)"
          },
          {
            "astId": 21049,
            "contract": "src/arbitration/dispute-kits/DisputeKitGatedShutter.sol:DisputeKitGatedShutter",
            "label": "contributions",
            "offset": 0,
            "slot": "8",
            "type": "t_mapping(t_address,t_mapping(t_uint256,t_uint256))"
          },
          {
            "astId": 21051,
            "contract": "src/arbitration/dispute-kits/DisputeKitGatedShutter.sol:DisputeKitGatedShutter",
            "label": "feeRewards",
            "offset": 0,
            "slot": "9",
            "type": "t_uint256"
          },
          {
            "astId": 21054,
            "contract": "src/arbitration/dispute-kits/DisputeKitGatedShutter.sol:DisputeKitGatedShutter",
            "label": "fundedChoices",
            "offset": 0,
            "slot": "10",
            "type": "t_array(t_uint256)dyn_storage"
          },
          {
            "astId": 21058,
            "contract": "src/arbitration/dispute-kits/DisputeKitGatedShutter.sol:DisputeKitGatedShutter",
            "label": "alreadyDrawn",
            "offset": 0,
            "slot": "11",
            "type": "t_mapping(t_address,t_bool)"
          },
          {
            "astId": 21062,
            "contract": "src/arbitration/dispute-kits/DisputeKitGatedShutter.sol:DisputeKitGatedShutter",
            "label": "__gap",
            "offset": 0,
            "slot": "12",
            "type": "t_array(t_uint256)10_storage"
          }
        ],
        "numberOfBytes": "704"
      },
      "t_struct(Vote)21076_storage": {
        "encoding": "inplace",
        "label": "struct DisputeKitClassicBase.Vote",
        "members": [
          {
            "astId": 21065,
            "contract": "src/arbitration/dispute-kits/DisputeKitGatedShutter.sol:DisputeKitGatedShutter",
            "label": "voted",
            "offset": 0,
            "slot": "0",
            "type": "t_bool"
          },
          {
            "astId": 21067,
            "contract": "src/arbitration/dispute-kits/DisputeKitGatedShutter.sol:DisputeKitGatedShutter",
            "label": "account",
            "offset": 1,
            "slot": "0",
            "type": "t_address"
          },
          {
            "astId": 21069,
            "contract": "src/arbitration/dispute-kits/DisputeKitGatedShutter.sol:DisputeKitGatedShutter",
            "label": "commit",
            "offset": 0,
            "slot": "1",
            "type": "t_bytes32"
          },
          {
            "astId": 21071,
            "contract": "src/arbitration/dispute-kits/DisputeKitGatedShutter.sol:DisputeKitGatedShutter",
            "label": "choice",
            "offset": 0,
            "slot": "2",
            "type": "t_uint256"
          },
          {
            "astId": 21075,
            "contract": "src/arbitration/dispute-kits/DisputeKitGatedShutter.sol:DisputeKitGatedShutter",
            "label": "__gap",
            "offset": 0,
            "slot": "3",
            "type": "t_array(t_uint256)10_storage"
          }
        ],
        "numberOfBytes": "416"
      },
      "t_uint256": {
        "encoding": "inplace",
        "label": "uint256",
        "numberOfBytes": "32"
      },
      "t_uint96": {
        "encoding": "inplace",
        "label": "uint96",
        "numberOfBytes": "12"
      }
    }
  }
}