{
  "address": "0xa2aF79F47bb6fc2f2306067f45Ac310D78bf96c8",
  "abi": [
    {
      "inputs": [
        {
          "internalType": "contract IArbitratorV2",
          "name": "_arbitrator",
          "type": "address"
        },
        {
          "internalType": "contract IDisputeTemplateRegistry",
          "name": "_templateRegistry",
          "type": "address"
        }
      ],
      "stateMutability": "nonpayable",
      "type": "constructor"
    },
    {
      "inputs": [],
      "name": "ArbitratorOnly",
      "type": "error"
    },
    {
      "inputs": [],
      "name": "DisputeAlreadyRuled",
      "type": "error"
    },
    {
      "inputs": [],
      "name": "OwnerOnly",
      "type": "error"
    },
    {
      "inputs": [],
      "name": "RulingOutOfBounds",
      "type": "error"
    },
    {
      "inputs": [],
      "name": "ShouldBeAtLeastTwoRulingOptions",
      "type": "error"
    },
    {
      "anonymous": false,
      "inputs": [
        {
          "indexed": true,
          "internalType": "contract IArbitratorV2",
          "name": "_arbitrator",
          "type": "address"
        },
        {
          "indexed": true,
          "internalType": "uint256",
          "name": "_arbitratorDisputeID",
          "type": "uint256"
        },
        {
          "indexed": false,
          "internalType": "uint256",
          "name": "_templateId",
          "type": "uint256"
        }
      ],
      "name": "DisputeRequest",
      "type": "event"
    },
    {
      "anonymous": false,
      "inputs": [
        {
          "indexed": true,
          "internalType": "contract IArbitratorV2",
          "name": "_arbitrator",
          "type": "address"
        },
        {
          "indexed": true,
          "internalType": "uint256",
          "name": "_disputeID",
          "type": "uint256"
        },
        {
          "indexed": false,
          "internalType": "uint256",
          "name": "_ruling",
          "type": "uint256"
        }
      ],
      "name": "Ruling",
      "type": "event"
    },
    {
      "inputs": [],
      "name": "arbitrator",
      "outputs": [
        {
          "internalType": "contract IArbitratorV2",
          "name": "",
          "type": "address"
        }
      ],
      "stateMutability": "view",
      "type": "function"
    },
    {
      "inputs": [
        {
          "internalType": "uint256",
          "name": "",
          "type": "uint256"
        }
      ],
      "name": "arbitratorDisputeIDToLocalID",
      "outputs": [
        {
          "internalType": "uint256",
          "name": "",
          "type": "uint256"
        }
      ],
      "stateMutability": "view",
      "type": "function"
    },
    {
      "inputs": [
        {
          "internalType": "contract IArbitratorV2",
          "name": "_arbitrator",
          "type": "address"
        }
      ],
      "name": "changeArbitrator",
      "outputs": [],
      "stateMutability": "nonpayable",
      "type": "function"
    },
    {
      "inputs": [
        {
          "internalType": "address",
          "name": "_owner",
          "type": "address"
        }
      ],
      "name": "changeOwner",
      "outputs": [],
      "stateMutability": "nonpayable",
      "type": "function"
    },
    {
      "inputs": [
        {
          "internalType": "contract IDisputeTemplateRegistry",
          "name": "_templateRegistry",
          "type": "address"
        }
      ],
      "name": "changeTemplateRegistry",
      "outputs": [],
      "stateMutability": "nonpayable",
      "type": "function"
    },
    {
      "inputs": [
        {
          "internalType": "bytes",
          "name": "_arbitratorExtraData",
          "type": "bytes"
        },
        {
          "internalType": "string",
          "name": "_disputeTemplate",
          "type": "string"
        },
        {
          "internalType": "string",
          "name": "_disputeTemplateDataMappings",
          "type": "string"
        },
        {
          "internalType": "uint256",
          "name": "_numberOfRulingOptions",
          "type": "uint256"
        }
      ],
      "name": "createDisputeForTemplate",
      "outputs": [
        {
          "internalType": "uint256",
          "name": "disputeID",
          "type": "uint256"
        }
      ],
      "stateMutability": "payable",
      "type": "function"
    },
    {
      "inputs": [
        {
          "internalType": "uint256",
          "name": "",
          "type": "uint256"
        }
      ],
      "name": "disputes",
      "outputs": [
        {
          "internalType": "bytes",
          "name": "arbitratorExtraData",
          "type": "bytes"
        },
        {
          "internalType": "bool",
          "name": "isRuled",
          "type": "bool"
        },
        {
          "internalType": "uint256",
          "name": "ruling",
          "type": "uint256"
        },
        {
          "internalType": "uint256",
          "name": "numberOfRulingOptions",
          "type": "uint256"
        }
      ],
      "stateMutability": "view",
      "type": "function"
    },
    {
      "inputs": [],
      "name": "owner",
      "outputs": [
        {
          "internalType": "address",
          "name": "",
          "type": "address"
        }
      ],
      "stateMutability": "view",
      "type": "function"
    },
    {
      "inputs": [
        {
          "internalType": "uint256",
          "name": "_arbitratorDisputeID",
          "type": "uint256"
        },
        {
          "internalType": "uint256",
          "name": "_ruling",
          "type": "uint256"
        }
      ],
      "name": "rule",
      "outputs": [],
      "stateMutability": "nonpayable",
      "type": "function"
    },
    {
      "inputs": [],
      "name": "templateRegistry",
      "outputs": [
        {
          "internalType": "contract IDisputeTemplateRegistry",
          "name": "",
          "type": "address"
        }
      ],
      "stateMutability": "view",
      "type": "function"
    }
  ],
  "transactionHash": "0x9a0513275b494c0324b5044c4a969167fa56d62d1b24eddfaaf2d4d8f2c8a0a7",
  "args": [
    "0x9EfCaeF787d0b53d7a24fdeAB067A4BAFCDb892F",
    "0xa28cA6364B40537B3e73c395cc2B1Bb6de1F1161"
  ],
  "numDeployments": 1,
  "solcInputHash": "7120e939c323b678aae40a88db815cc2",
  "bytecode": "0x60803460a157601f610ac238819003918201601f19168301916001600160401b0383118484101760a557808492604094855283398101031260a15780516001600160a01b038116919082900360a157602001516001600160a01b038116919082900360a1575f80546001600160a01b031990811633179091556001805482169290921790915560028054909116919091179055604051610a0890816100ba8239f35b5f80fd5b634e487b7160e01b5f52604160045260245ffdfe60806040526004361015610011575f80fd5b5f3560e01c8063311a6c56146107a05780634660ebbe14610748578063564a565d1461064d5780636cc6cde1146106275780638da5cb5b14610602578063a0af81f0146105dc578063a6f9dae114610586578063dc65351114610135578063e09997d91461010b5763fc548f0814610087575f80fd5b34610107576020366003190112610107576004356001600160a01b038116809103610107576001600160a01b035f541633036100df5773ffffffffffffffffffffffffffffffffffffffff1960015416176001555f80f35b7f596dcdb8000000000000000000000000000000000000000000000000000000005f5260045ffd5b5f80fd5b34610107576020366003190112610107576004355f526004602052602060405f2054604051908152f35b60803660031901126101075760043567ffffffffffffffff81116101075761016190369060040161095e565b9060243567ffffffffffffffff81116101075761018290369060040161095e565b9260443567ffffffffffffffff81116101075736602382011215610107576101b76101c391369060248160040135910161098c565b9260643595369161098c565b90600185111561055e576001600160a01b036001541693602060405180967fc13517e100000000000000000000000000000000000000000000000000000000825288600483015260406024830152846044830152848460648401375f6064868401015281606481601f19601f890116810103019134905af1948515610439575f9561052a575b506003549160405191608083019183831067ffffffffffffffff8411176105035761027892604052369161098c565b815260208101955f8752604082015f8152606083019182526801000000000000000084101561050357600184016003556102b1846108b0565b939093610517575197885167ffffffffffffffff8111610503576102d585546108e0565b601f81116104be575b506020601f821160011461044f5791816003949260209a99989796946103b09d5f92610444575b50508160011b915f1990871b1c19161785555b600185019051151560ff8019835416911617905551600284015551910155845f526004845260405f205561039e5f6001600160a01b036002541692604051978895869485937f4a9941740000000000000000000000000000000000000000000000000000000085526060600486015285606486015260806024860152608485019061093a565b8381036003190160448501529061093a565b03925af1918215610439575f92610405575b50806020927fee1017dcbefba87397fcdaab31f187328533572b6a5568177fa2eb64026003b6846001600160a01b036001541692604051908152a3604051908152f35b91506020823d602011610431575b8161042060209383610918565b8101031261010757905190806103c2565b3d9150610413565b6040513d5f823e3d90fd5b015190508d80610305565b601f1982169a865f52815f209b5f5b8181106104a65750926103b09c60209b9a999897959360019383600399971061048f575b505050811b018555610318565b01515f1983891b60f8161c191690558d8080610482565b838301518e556001909d019c6020938401930161045e565b855f5260205f20601f830160051c810191602084106104f9575b601f0160051c01905b8181106104ee57506102de565b5f81556001016104e1565b90915081906104d8565b634e487b7160e01b5f52604160045260245ffd5b634e487b7160e01b5f525f60045260245ffd5b9094506020813d602011610556575b8161054660209383610918565b8101031261010757519386610249565b3d9150610539565b7f5fea5b86000000000000000000000000000000000000000000000000000000005f5260045ffd5b34610107576020366003190112610107576004356001600160a01b038116809103610107576001600160a01b035f541633036100df5773ffffffffffffffffffffffffffffffffffffffff195f5416175f555f80f35b34610107575f3660031901126101075760206001600160a01b0360025416604051908152f35b34610107575f3660031901126101075760206001600160a01b035f5416604051908152f35b34610107575f3660031901126101075760206001600160a01b0360015416604051908152f35b346101075760203660031901126101075760043560035481101561010757610674906108b0565b506040515f918054610685816108e0565b808452906001811690811561072457506001146106eb575b506106ad826106d5940383610918565b60ff60018201541690600360028201549101549060405194859460808652608086019061093a565b9215156020850152604084015260608301520390f35b9250805f5260205f205f905b84821061070e5750820160200192506106ad61069d565b60018160209254838588010152019101906106f7565b60ff191660208086019190915291151560051b840190910193506106ad905061069d565b34610107576020366003190112610107576004356001600160a01b038116809103610107576001600160a01b035f541633036100df5773ffffffffffffffffffffffffffffffffffffffff1960025416176002555f80f35b3461010757604036600319011261010757600435602435815f5260046020526107cc60405f20546108b0565b506001600160a01b03600154163303610888576003810154821161086057600181019081549060ff8216610838578392600160029360ff191617905501556040519081527f394027a5fa6e098a1191094d1719d6929b9abc535fcc0c8f448d6a4e7562227660203392a3005b7fcbb4c9f3000000000000000000000000000000000000000000000000000000005f5260045ffd5b7f1f6edbfd000000000000000000000000000000000000000000000000000000005f5260045ffd5b7f4aafc238000000000000000000000000000000000000000000000000000000005f5260045ffd5b6003548110156108cc5760035f5260205f209060021b01905f90565b634e487b7160e01b5f52603260045260245ffd5b90600182811c9216801561090e575b60208310146108fa57565b634e487b7160e01b5f52602260045260245ffd5b91607f16916108ef565b90601f8019910116810190811067ffffffffffffffff82111761050357604052565b805180835260209291819084018484015e5f828201840152601f01601f1916010190565b9181601f840112156101075782359167ffffffffffffffff8311610107576020838186019501011161010757565b92919267ffffffffffffffff821161050357604051916109b6601f8201601f191660200184610918565b829481845281830111610107578281602093845f96013701015256fea2646970667358221220f56f75b4ded824cd0d4e8ad5f56526c68f3eda38141881ff8f3b24ed66b12e8a64736f6c634300081e0033",
  "devdoc": {
    "details": "Adapted for V2 from https://github.com/kleros/arbitrable-proxy-contracts/blob/master/contracts/ArbitrableProxy.sol.",
    "events": {
      "DisputeRequest(address,uint256,uint256)": {
        "params": {
          "_arbitrator": "The arbitrator of the contract.",
          "_arbitratorDisputeID": "The identifier of the dispute in the Arbitrator contract.",
          "_templateId": "The identifier of the dispute template."
        }
      },
      "Ruling(address,uint256,uint256)": {
        "params": {
          "_arbitrator": "The arbitrator giving the ruling.",
          "_disputeID": "The identifier of the dispute in the Arbitrator contract.",
          "_ruling": "The ruling which was given."
        }
      }
    },
    "kind": "dev",
    "methods": {
      "changeOwner(address)": {
        "params": {
          "_owner": "The address of the new owner."
        }
      },
      "constructor": {
        "params": {
          "_arbitrator": "Target global arbitrator for any disputes.",
          "_templateRegistry": "The dispute template registry."
        }
      },
      "createDisputeForTemplate(bytes,string,string,uint256)": {
        "details": "No need to check that msg.value is enough to pay arbitration fees as it’s the responsibility of the arbitrator contract.",
        "params": {
          "_arbitratorExtraData": "Extra data for the arbitrator of the dispute.",
          "_disputeTemplate": "Dispute template.",
          "_disputeTemplateDataMappings": "The data mappings.",
          "_numberOfRulingOptions": "Number of ruling options."
        },
        "returns": {
          "disputeID": "Dispute id (on arbitrator side) of the created dispute."
        }
      },
      "rule(uint256,uint256)": {
        "details": "This is a callback function for the arbitrator to provide the ruling to this contract. Only the arbitrator must be allowed to call this function. Ruling 0 is reserved for \"Not able/wanting to make a decision\".",
        "params": {
          "_disputeID": "The identifier of the dispute in the Arbitrator contract.",
          "_ruling": "Ruling given by the arbitrator."
        }
      }
    },
    "title": "DisputeResolver",
    "version": 1
  },
  "userdoc": {
    "events": {
      "DisputeRequest(address,uint256,uint256)": {
        "notice": "To be emitted when a dispute is created to link the correct template to the disputeID."
      },
      "Ruling(address,uint256,uint256)": {
        "notice": "To be raised when a ruling is given."
      }
    },
    "kind": "user",
    "methods": {
      "changeOwner(address)": {
        "notice": "Changes the owner."
      },
      "constructor": {
        "notice": "Constructor"
      },
      "createDisputeForTemplate(bytes,string,string,uint256)": {
        "notice": "Calls createDispute function of the specified arbitrator to create a dispute."
      },
      "rule(uint256,uint256)": {
        "notice": "Give a ruling for a dispute."
      }
    },
    "notice": "DisputeResolver contract",
    "version": 1
  },
  "storageLayout": {
    "storage": [
      {
        "astId": 18563,
        "contract": "src/arbitration/arbitrables/DisputeResolver.sol:DisputeResolver",
        "label": "owner",
        "offset": 0,
        "slot": "0",
        "type": "t_address"
      },
      {
        "astId": 18566,
        "contract": "src/arbitration/arbitrables/DisputeResolver.sol:DisputeResolver",
        "label": "arbitrator",
        "offset": 0,
        "slot": "1",
        "type": "t_contract(IArbitratorV2)26540"
      },
      {
        "astId": 18569,
        "contract": "src/arbitration/arbitrables/DisputeResolver.sol:DisputeResolver",
        "label": "templateRegistry",
        "offset": 0,
        "slot": "2",
        "type": "t_contract(IDisputeTemplateRegistry)26769"
      },
      {
        "astId": 18573,
        "contract": "src/arbitration/arbitrables/DisputeResolver.sol:DisputeResolver",
        "label": "disputes",
        "offset": 0,
        "slot": "3",
        "type": "t_array(t_struct(DisputeStruct)18561_storage)dyn_storage"
      },
      {
        "astId": 18577,
        "contract": "src/arbitration/arbitrables/DisputeResolver.sol:DisputeResolver",
        "label": "arbitratorDisputeIDToLocalID",
        "offset": 0,
        "slot": "4",
        "type": "t_mapping(t_uint256,t_uint256)"
      }
    ],
    "types": {
      "t_address": {
        "encoding": "inplace",
        "label": "address",
        "numberOfBytes": "20"
      },
      "t_array(t_struct(DisputeStruct)18561_storage)dyn_storage": {
        "base": "t_struct(DisputeStruct)18561_storage",
        "encoding": "dynamic_array",
        "label": "struct DisputeResolver.DisputeStruct[]",
        "numberOfBytes": "32"
      },
      "t_bool": {
        "encoding": "inplace",
        "label": "bool",
        "numberOfBytes": "1"
      },
      "t_bytes_storage": {
        "encoding": "bytes",
        "label": "bytes",
        "numberOfBytes": "32"
      },
      "t_contract(IArbitratorV2)26540": {
        "encoding": "inplace",
        "label": "contract IArbitratorV2",
        "numberOfBytes": "20"
      },
      "t_contract(IDisputeTemplateRegistry)26769": {
        "encoding": "inplace",
        "label": "contract IDisputeTemplateRegistry",
        "numberOfBytes": "20"
      },
      "t_mapping(t_uint256,t_uint256)": {
        "encoding": "mapping",
        "key": "t_uint256",
        "label": "mapping(uint256 => uint256)",
        "numberOfBytes": "32",
        "value": "t_uint256"
      },
      "t_struct(DisputeStruct)18561_storage": {
        "encoding": "inplace",
        "label": "struct DisputeResolver.DisputeStruct",
        "members": [
          {
            "astId": 18554,
            "contract": "src/arbitration/arbitrables/DisputeResolver.sol:DisputeResolver",
            "label": "arbitratorExtraData",
            "offset": 0,
            "slot": "0",
            "type": "t_bytes_storage"
          },
          {
            "astId": 18556,
            "contract": "src/arbitration/arbitrables/DisputeResolver.sol:DisputeResolver",
            "label": "isRuled",
            "offset": 0,
            "slot": "1",
            "type": "t_bool"
          },
          {
            "astId": 18558,
            "contract": "src/arbitration/arbitrables/DisputeResolver.sol:DisputeResolver",
            "label": "ruling",
            "offset": 0,
            "slot": "2",
            "type": "t_uint256"
          },
          {
            "astId": 18560,
            "contract": "src/arbitration/arbitrables/DisputeResolver.sol:DisputeResolver",
            "label": "numberOfRulingOptions",
            "offset": 0,
            "slot": "3",
            "type": "t_uint256"
          }
        ],
        "numberOfBytes": "128"
      },
      "t_uint256": {
        "encoding": "inplace",
        "label": "uint256",
        "numberOfBytes": "32"
      }
    }
  }
}