{
  "address": "0x8Db69EE93365190FE9CA4d59Ae4Cdd4f3688f1Af",
  "abi": [
    {
      "inputs": [],
      "stateMutability": "nonpayable",
      "type": "constructor"
    },
    {
      "inputs": [],
      "name": "AlreadyInitialized",
      "type": "error"
    },
    {
      "inputs": [],
      "name": "FailedDelegateCall",
      "type": "error"
    },
    {
      "inputs": [
        {
          "internalType": "address",
          "name": "implementation",
          "type": "address"
        }
      ],
      "name": "InvalidImplementation",
      "type": "error"
    },
    {
      "inputs": [],
      "name": "NotInitializing",
      "type": "error"
    },
    {
      "inputs": [],
      "name": "UUPSUnauthorizedCallContext",
      "type": "error"
    },
    {
      "inputs": [
        {
          "internalType": "bytes32",
          "name": "slot",
          "type": "bytes32"
        }
      ],
      "name": "UUPSUnsupportedProxiableUUID",
      "type": "error"
    },
    {
      "anonymous": false,
      "inputs": [
        {
          "indexed": true,
          "internalType": "uint256",
          "name": "_coreDisputeID",
          "type": "uint256"
        },
        {
          "indexed": true,
          "internalType": "uint256",
          "name": "_coreRoundID",
          "type": "uint256"
        },
        {
          "indexed": true,
          "internalType": "uint256",
          "name": "_choice",
          "type": "uint256"
        }
      ],
      "name": "ChoiceFunded",
      "type": "event"
    },
    {
      "anonymous": false,
      "inputs": [
        {
          "indexed": true,
          "internalType": "uint256",
          "name": "_coreDisputeID",
          "type": "uint256"
        },
        {
          "indexed": true,
          "internalType": "address",
          "name": "_juror",
          "type": "address"
        },
        {
          "indexed": false,
          "internalType": "uint256[]",
          "name": "_voteIDs",
          "type": "uint256[]"
        },
        {
          "indexed": false,
          "internalType": "bytes32",
          "name": "_commit",
          "type": "bytes32"
        }
      ],
      "name": "CommitCast",
      "type": "event"
    },
    {
      "anonymous": false,
      "inputs": [
        {
          "indexed": true,
          "internalType": "uint256",
          "name": "_coreDisputeID",
          "type": "uint256"
        },
        {
          "indexed": true,
          "internalType": "uint256",
          "name": "_coreRoundID",
          "type": "uint256"
        },
        {
          "indexed": false,
          "internalType": "uint256",
          "name": "_choice",
          "type": "uint256"
        },
        {
          "indexed": true,
          "internalType": "address",
          "name": "_contributor",
          "type": "address"
        },
        {
          "indexed": false,
          "internalType": "uint256",
          "name": "_amount",
          "type": "uint256"
        }
      ],
      "name": "Contribution",
      "type": "event"
    },
    {
      "anonymous": false,
      "inputs": [
        {
          "indexed": true,
          "internalType": "uint256",
          "name": "_coreDisputeID",
          "type": "uint256"
        },
        {
          "indexed": false,
          "internalType": "uint256",
          "name": "_numberOfChoices",
          "type": "uint256"
        },
        {
          "indexed": false,
          "internalType": "bytes",
          "name": "_extraData",
          "type": "bytes"
        }
      ],
      "name": "DisputeCreation",
      "type": "event"
    },
    {
      "anonymous": false,
      "inputs": [
        {
          "indexed": false,
          "internalType": "uint64",
          "name": "version",
          "type": "uint64"
        }
      ],
      "name": "Initialized",
      "type": "event"
    },
    {
      "anonymous": false,
      "inputs": [
        {
          "indexed": true,
          "internalType": "address",
          "name": "newImplementation",
          "type": "address"
        }
      ],
      "name": "Upgraded",
      "type": "event"
    },
    {
      "anonymous": false,
      "inputs": [
        {
          "indexed": true,
          "internalType": "uint256",
          "name": "_coreDisputeID",
          "type": "uint256"
        },
        {
          "indexed": true,
          "internalType": "address",
          "name": "_juror",
          "type": "address"
        },
        {
          "indexed": false,
          "internalType": "uint256[]",
          "name": "_voteIDs",
          "type": "uint256[]"
        },
        {
          "indexed": true,
          "internalType": "uint256",
          "name": "_choice",
          "type": "uint256"
        },
        {
          "indexed": false,
          "internalType": "string",
          "name": "_justification",
          "type": "string"
        }
      ],
      "name": "VoteCast",
      "type": "event"
    },
    {
      "anonymous": false,
      "inputs": [
        {
          "indexed": true,
          "internalType": "uint256",
          "name": "_coreDisputeID",
          "type": "uint256"
        },
        {
          "indexed": true,
          "internalType": "uint256",
          "name": "_coreRoundID",
          "type": "uint256"
        },
        {
          "indexed": false,
          "internalType": "uint256",
          "name": "_choice",
          "type": "uint256"
        },
        {
          "indexed": true,
          "internalType": "address",
          "name": "_contributor",
          "type": "address"
        },
        {
          "indexed": false,
          "internalType": "uint256",
          "name": "_amount",
          "type": "uint256"
        }
      ],
      "name": "Withdrawal",
      "type": "event"
    },
    {
      "inputs": [],
      "name": "LOSER_APPEAL_PERIOD_MULTIPLIER",
      "outputs": [
        {
          "internalType": "uint256",
          "name": "",
          "type": "uint256"
        }
      ],
      "stateMutability": "view",
      "type": "function"
    },
    {
      "inputs": [],
      "name": "LOSER_STAKE_MULTIPLIER",
      "outputs": [
        {
          "internalType": "uint256",
          "name": "",
          "type": "uint256"
        }
      ],
      "stateMutability": "view",
      "type": "function"
    },
    {
      "inputs": [],
      "name": "ONE_BASIS_POINT",
      "outputs": [
        {
          "internalType": "uint256",
          "name": "",
          "type": "uint256"
        }
      ],
      "stateMutability": "view",
      "type": "function"
    },
    {
      "inputs": [],
      "name": "WINNER_STAKE_MULTIPLIER",
      "outputs": [
        {
          "internalType": "uint256",
          "name": "",
          "type": "uint256"
        }
      ],
      "stateMutability": "view",
      "type": "function"
    },
    {
      "inputs": [
        {
          "internalType": "uint256",
          "name": "_coreDisputeID",
          "type": "uint256"
        }
      ],
      "name": "areCommitsAllCast",
      "outputs": [
        {
          "internalType": "bool",
          "name": "",
          "type": "bool"
        }
      ],
      "stateMutability": "view",
      "type": "function"
    },
    {
      "inputs": [
        {
          "internalType": "uint256",
          "name": "_coreDisputeID",
          "type": "uint256"
        }
      ],
      "name": "areVotesAllCast",
      "outputs": [
        {
          "internalType": "bool",
          "name": "",
          "type": "bool"
        }
      ],
      "stateMutability": "view",
      "type": "function"
    },
    {
      "inputs": [
        {
          "internalType": "uint256",
          "name": "_coreDisputeID",
          "type": "uint256"
        },
        {
          "internalType": "uint256[]",
          "name": "_voteIDs",
          "type": "uint256[]"
        },
        {
          "internalType": "bytes32",
          "name": "_commit",
          "type": "bytes32"
        }
      ],
      "name": "castCommit",
      "outputs": [],
      "stateMutability": "nonpayable",
      "type": "function"
    },
    {
      "inputs": [
        {
          "internalType": "uint256",
          "name": "_coreDisputeID",
          "type": "uint256"
        },
        {
          "internalType": "uint256[]",
          "name": "_voteIDs",
          "type": "uint256[]"
        },
        {
          "internalType": "uint256",
          "name": "_choice",
          "type": "uint256"
        },
        {
          "internalType": "uint256",
          "name": "_salt",
          "type": "uint256"
        },
        {
          "internalType": "string",
          "name": "_justification",
          "type": "string"
        }
      ],
      "name": "castVote",
      "outputs": [],
      "stateMutability": "nonpayable",
      "type": "function"
    },
    {
      "inputs": [
        {
          "internalType": "address",
          "name": "_core",
          "type": "address"
        }
      ],
      "name": "changeCore",
      "outputs": [],
      "stateMutability": "nonpayable",
      "type": "function"
    },
    {
      "inputs": [
        {
          "internalType": "address payable",
          "name": "_governor",
          "type": "address"
        }
      ],
      "name": "changeGovernor",
      "outputs": [],
      "stateMutability": "nonpayable",
      "type": "function"
    },
    {
      "inputs": [],
      "name": "core",
      "outputs": [
        {
          "internalType": "contract KlerosCore",
          "name": "",
          "type": "address"
        }
      ],
      "stateMutability": "view",
      "type": "function"
    },
    {
      "inputs": [
        {
          "internalType": "uint256",
          "name": "",
          "type": "uint256"
        }
      ],
      "name": "coreDisputeIDToLocal",
      "outputs": [
        {
          "internalType": "uint256",
          "name": "",
          "type": "uint256"
        }
      ],
      "stateMutability": "view",
      "type": "function"
    },
    {
      "inputs": [
        {
          "internalType": "uint256",
          "name": "_coreDisputeID",
          "type": "uint256"
        },
        {
          "internalType": "uint256",
          "name": "_numberOfChoices",
          "type": "uint256"
        },
        {
          "internalType": "bytes",
          "name": "_extraData",
          "type": "bytes"
        },
        {
          "internalType": "uint256",
          "name": "_nbVotes",
          "type": "uint256"
        }
      ],
      "name": "createDispute",
      "outputs": [],
      "stateMutability": "nonpayable",
      "type": "function"
    },
    {
      "inputs": [
        {
          "internalType": "uint256",
          "name": "_coreDisputeID",
          "type": "uint256"
        }
      ],
      "name": "currentRuling",
      "outputs": [
        {
          "internalType": "uint256",
          "name": "ruling",
          "type": "uint256"
        },
        {
          "internalType": "bool",
          "name": "tied",
          "type": "bool"
        },
        {
          "internalType": "bool",
          "name": "overridden",
          "type": "bool"
        }
      ],
      "stateMutability": "view",
      "type": "function"
    },
    {
      "inputs": [
        {
          "internalType": "uint256",
          "name": "",
          "type": "uint256"
        }
      ],
      "name": "disputes",
      "outputs": [
        {
          "internalType": "uint256",
          "name": "numberOfChoices",
          "type": "uint256"
        },
        {
          "internalType": "bool",
          "name": "jumped",
          "type": "bool"
        },
        {
          "internalType": "bytes",
          "name": "extraData",
          "type": "bytes"
        }
      ],
      "stateMutability": "view",
      "type": "function"
    },
    {
      "inputs": [
        {
          "internalType": "uint256",
          "name": "_coreDisputeID",
          "type": "uint256"
        },
        {
          "internalType": "uint256",
          "name": "_nonce",
          "type": "uint256"
        }
      ],
      "name": "draw",
      "outputs": [
        {
          "internalType": "address",
          "name": "drawnAddress",
          "type": "address"
        }
      ],
      "stateMutability": "nonpayable",
      "type": "function"
    },
    {
      "inputs": [
        {
          "internalType": "address",
          "name": "_destination",
          "type": "address"
        },
        {
          "internalType": "uint256",
          "name": "_amount",
          "type": "uint256"
        },
        {
          "internalType": "bytes",
          "name": "_data",
          "type": "bytes"
        }
      ],
      "name": "executeGovernorProposal",
      "outputs": [],
      "stateMutability": "nonpayable",
      "type": "function"
    },
    {
      "inputs": [
        {
          "internalType": "uint256",
          "name": "_coreDisputeID",
          "type": "uint256"
        },
        {
          "internalType": "uint256",
          "name": "_choice",
          "type": "uint256"
        }
      ],
      "name": "fundAppeal",
      "outputs": [],
      "stateMutability": "payable",
      "type": "function"
    },
    {
      "inputs": [
        {
          "internalType": "uint256",
          "name": "_coreDisputeID",
          "type": "uint256"
        },
        {
          "internalType": "uint256",
          "name": "_coreRoundID",
          "type": "uint256"
        }
      ],
      "name": "getCoherentCount",
      "outputs": [
        {
          "internalType": "uint256",
          "name": "",
          "type": "uint256"
        }
      ],
      "stateMutability": "view",
      "type": "function"
    },
    {
      "inputs": [
        {
          "internalType": "uint256",
          "name": "_coreDisputeID",
          "type": "uint256"
        },
        {
          "internalType": "uint256",
          "name": "_coreRoundID",
          "type": "uint256"
        },
        {
          "internalType": "uint256",
          "name": "_voteID",
          "type": "uint256"
        },
        {
          "internalType": "uint256",
          "name": "",
          "type": "uint256"
        },
        {
          "internalType": "uint256",
          "name": "",
          "type": "uint256"
        }
      ],
      "name": "getDegreeOfCoherence",
      "outputs": [
        {
          "internalType": "uint256",
          "name": "",
          "type": "uint256"
        }
      ],
      "stateMutability": "view",
      "type": "function"
    },
    {
      "inputs": [
        {
          "internalType": "uint256",
          "name": "_coreDisputeID",
          "type": "uint256"
        }
      ],
      "name": "getFundedChoices",
      "outputs": [
        {
          "internalType": "uint256[]",
          "name": "fundedChoices",
          "type": "uint256[]"
        }
      ],
      "stateMutability": "view",
      "type": "function"
    },
    {
      "inputs": [
        {
          "internalType": "uint256",
          "name": "_coreDisputeID",
          "type": "uint256"
        },
        {
          "internalType": "uint256",
          "name": "_coreRoundID",
          "type": "uint256"
        },
        {
          "internalType": "uint256",
          "name": "_choice",
          "type": "uint256"
        }
      ],
      "name": "getRoundInfo",
      "outputs": [
        {
          "internalType": "uint256",
          "name": "winningChoice",
          "type": "uint256"
        },
        {
          "internalType": "bool",
          "name": "tied",
          "type": "bool"
        },
        {
          "internalType": "uint256",
          "name": "totalVoted",
          "type": "uint256"
        },
        {
          "internalType": "uint256",
          "name": "totalCommited",
          "type": "uint256"
        },
        {
          "internalType": "uint256",
          "name": "nbVoters",
          "type": "uint256"
        },
        {
          "internalType": "uint256",
          "name": "choiceCount",
          "type": "uint256"
        }
      ],
      "stateMutability": "view",
      "type": "function"
    },
    {
      "inputs": [
        {
          "internalType": "uint256",
          "name": "_coreDisputeID",
          "type": "uint256"
        },
        {
          "internalType": "uint256",
          "name": "_coreRoundID",
          "type": "uint256"
        },
        {
          "internalType": "uint256",
          "name": "_voteID",
          "type": "uint256"
        }
      ],
      "name": "getVoteInfo",
      "outputs": [
        {
          "internalType": "address",
          "name": "account",
          "type": "address"
        },
        {
          "internalType": "bytes32",
          "name": "commit",
          "type": "bytes32"
        },
        {
          "internalType": "uint256",
          "name": "choice",
          "type": "uint256"
        },
        {
          "internalType": "bool",
          "name": "voted",
          "type": "bool"
        }
      ],
      "stateMutability": "view",
      "type": "function"
    },
    {
      "inputs": [],
      "name": "governor",
      "outputs": [
        {
          "internalType": "address",
          "name": "",
          "type": "address"
        }
      ],
      "stateMutability": "view",
      "type": "function"
    },
    {
      "inputs": [
        {
          "internalType": "address",
          "name": "_governor",
          "type": "address"
        },
        {
          "internalType": "contract KlerosCore",
          "name": "_core",
          "type": "address"
        }
      ],
      "name": "initialize",
      "outputs": [],
      "stateMutability": "nonpayable",
      "type": "function"
    },
    {
      "inputs": [],
      "name": "initialize5",
      "outputs": [],
      "stateMutability": "nonpayable",
      "type": "function"
    },
    {
      "inputs": [
        {
          "internalType": "uint256",
          "name": "_coreDisputeID",
          "type": "uint256"
        }
      ],
      "name": "isAppealFunded",
      "outputs": [
        {
          "internalType": "bool",
          "name": "",
          "type": "bool"
        }
      ],
      "stateMutability": "view",
      "type": "function"
    },
    {
      "inputs": [
        {
          "internalType": "uint256",
          "name": "_coreDisputeID",
          "type": "uint256"
        },
        {
          "internalType": "uint256",
          "name": "_coreRoundID",
          "type": "uint256"
        },
        {
          "internalType": "uint256",
          "name": "_voteID",
          "type": "uint256"
        }
      ],
      "name": "isVoteActive",
      "outputs": [
        {
          "internalType": "bool",
          "name": "",
          "type": "bool"
        }
      ],
      "stateMutability": "view",
      "type": "function"
    },
    {
      "inputs": [],
      "name": "proxiableUUID",
      "outputs": [
        {
          "internalType": "bytes32",
          "name": "",
          "type": "bytes32"
        }
      ],
      "stateMutability": "view",
      "type": "function"
    },
    {
      "inputs": [],
      "name": "singleDrawPerJuror",
      "outputs": [
        {
          "internalType": "bool",
          "name": "",
          "type": "bool"
        }
      ],
      "stateMutability": "view",
      "type": "function"
    },
    {
      "inputs": [
        {
          "internalType": "address",
          "name": "newImplementation",
          "type": "address"
        },
        {
          "internalType": "bytes",
          "name": "data",
          "type": "bytes"
        }
      ],
      "name": "upgradeToAndCall",
      "outputs": [],
      "stateMutability": "payable",
      "type": "function"
    },
    {
      "inputs": [],
      "name": "version",
      "outputs": [
        {
          "internalType": "string",
          "name": "",
          "type": "string"
        }
      ],
      "stateMutability": "view",
      "type": "function"
    },
    {
      "inputs": [
        {
          "internalType": "uint256",
          "name": "_coreDisputeID",
          "type": "uint256"
        },
        {
          "internalType": "address payable",
          "name": "_beneficiary",
          "type": "address"
        },
        {
          "internalType": "uint256",
          "name": "_coreRoundID",
          "type": "uint256"
        },
        {
          "internalType": "uint256",
          "name": "_choice",
          "type": "uint256"
        }
      ],
      "name": "withdrawFeesAndRewards",
      "outputs": [
        {
          "internalType": "uint256",
          "name": "amount",
          "type": "uint256"
        }
      ],
      "stateMutability": "nonpayable",
      "type": "function"
    }
  ],
  "transactionHash": "0x0be7ad180d2481d416dfbf289d9389144be175d3f69ab911da5b54c3989c86b2",
  "args": [],
  "numDeployments": 2,
  "solcInputHash": "6a5b8672db02870393b5e607b3a9b729",
  "bytecode": "0x60a0604052306080523480156200001557600080fd5b506200002062000026565b620000d9565b7ff0c57e16840df040f15088dc2f81fe391c3923bec73e23a9662efc9c229c6a0e805468010000000000000000900460ff1615620000765760405162dc149f60e41b815260040160405180910390fd5b80546001600160401b0390811614620000d65780546001600160401b0319166001600160401b0390811782556040519081527fc7f505b2f371ae2175ee4913f4499e1f2633a7b5936321eed1cdaeb6115181d29060200160405180910390a15b50565b60805161410f62000103600039600081816116d4015281816116fd01526118f5015261410f6000f3fe6080604052600436106101ae5760003560e01c806369f3f041116100ed578063b34bfaa811610090578063b34bfaa81461056d578063b6ede54014610583578063ba66fde7146105a3578063be467604146105c3578063d2b8035a146105d9578063da3beb8c146105f9578063e349ad30146104b6578063e4c0aaf414610619578063f2f4eb261461063957600080fd5b806369f3f041146104295780636d4cd8ea14610476578063751accd014610496578063796490f9146104b65780637ae64261146104cc5780637c04034e146104e15780638e42646014610501578063a7cc08fe1461052157600080fd5b80634b2f0ea0116101555780634b2f0ea0146103145780634f1ef2861461032757806352d1902d1461033a57806354fd4d501461034f578063564a565d1461038d5780635c92e2f6146103bc57806365540b96146103dc578063675926f61461040957600080fd5b80630855bbe9146101b35780630baa64d1146101e85780630c340a24146102085780631200aabc146102405780631c3db16d1461027b5780632621b9a2146102b8578063362c3479146102d2578063485cc955146102f2575b600080fd5b3480156101bf57600080fd5b506101d36101ce366004613558565b610659565b60405190151581526020015b60405180910390f35b3480156101f457600080fd5b506101d3610203366004613558565b610721565b34801561021457600080fd5b50600054610228906001600160a01b031681565b6040516001600160a01b0390911681526020016101df565b34801561024c57600080fd5b5061026d61025b366004613558565b60036020526000908152604090205481565b6040519081526020016101df565b34801561028757600080fd5b5061029b610296366004613558565b610798565b6040805193845291151560208401521515908201526060016101df565b3480156102c457600080fd5b506004546101d39060ff1681565b3480156102de57600080fd5b5061026d6102ed366004613586565b610906565b3480156102fe57600080fd5b5061031261030d3660046135c3565b610d91565b005b6103126103223660046135fc565b610e59565b6103126103353660046136d0565b6116c0565b34801561034657600080fd5b5061026d6118e8565b34801561035b57600080fd5b5061038060405180604001604052806005815260200164302e392e3360d81b81525081565b6040516101df919061376f565b34801561039957600080fd5b506103ad6103a8366004613558565b611946565b6040516101df93929190613782565b3480156103c857600080fd5b506103126103d73660046137ee565b611a0c565b3480156103e857600080fd5b506103fc6103f7366004613558565b611d11565b6040516101df9190613840565b34801561041557600080fd5b5061026d610424366004613884565b611dd5565b34801561043557600080fd5b506104496104443660046138bf565b611f18565b604080519687529415156020870152938501929092526060840152608083015260a082015260c0016101df565b34801561048257600080fd5b506101d3610491366004613558565b611fd0565b3480156104a257600080fd5b506103126104b13660046138eb565b612153565b3480156104c257600080fd5b5061026d61271081565b3480156104d857600080fd5b5061031261221f565b3480156104ed57600080fd5b506103126104fc366004613943565b6122d0565b34801561050d57600080fd5b5061031261051c3660046139db565b6129a1565b34801561052d57600080fd5b5061054161053c3660046138bf565b6129ed565b604080516001600160a01b039095168552602085019390935291830152151560608201526080016101df565b34801561057957600080fd5b5061026d614e2081565b34801561058f57600080fd5b5061031261059e3660046139f8565b612ab3565b3480156105af57600080fd5b506101d36105be3660046138bf565b612c88565b3480156105cf57600080fd5b5061026d61138881565b3480156105e557600080fd5b506102286105f43660046135fc565b612d23565b34801561060557600080fd5b5061026d6106143660046135fc565b61303d565b34801561062557600080fd5b506103126106343660046139db565b613190565b34801561064557600080fd5b50600154610228906001600160a01b031681565b60015460405163afe15cfb60e01b815260048101839052600091829182916001600160a01b03169063afe15cfb906024016040805180830381865afa1580156106a6573d6000803e3d6000fd5b505050506040513d601f19601f820116820180604052508101906106ca9190613a7f565b9150915060006106d985611d11565b90508051600014801561071857506127106113886106f78585613ab9565b6107019190613acc565b61070b9190613ae3565b6107158442613ab9565b10155b95945050505050565b60008181526003602052604081205460028054839290811061074557610745613b05565b6000918252602082206005909102018054909250829061076790600190613ab9565b8154811061077757610777613b05565b60009182526020909120600d90910201805460059091015414949350505050565b60008060008060026003600087815260200190815260200160002054815481106107c4576107c4613b05565b600091825260208220600590910201805490925082906107e690600190613ab9565b815481106107f6576107f6613b05565b60009182526020909120600d90910201600381015460ff169450905083610821578060010154610824565b60005b60015460405163564a565d60e01b8152600481018990529196506000916001600160a01b039091169063564a565d9060240160a060405180830381865afa158015610873573d6000803e3d6000fd5b505050506040513d601f19601f820116820180604052508101906108979190613b47565b50909350600492506108a7915050565b8160048111156108b9576108b9613bae565b036108fc5760006108c988611d11565b905080516001036108fa57806000815181106108e7576108e7613b05565b6020026020010151965060009550600194505b505b5050509193909250565b60015460405163564a565d60e01b81526004810186905260009182916001600160a01b039091169063564a565d9060240160a060405180830381865afa158015610954573d6000803e3d6000fd5b505050506040513d601f19601f820116820180604052508101906109789190613b47565b509350505050806109d05760405162461bcd60e51b815260206004820152601b60248201527f446973707574652073686f756c64206265207265736f6c7665642e000000000060448201526064015b60405180910390fd5b600160009054906101000a90046001600160a01b03166001600160a01b0316635c975abb6040518163ffffffff1660e01b8152600401602060405180830381865afa158015610a23573d6000803e3d6000fd5b505050506040513d601f19601f82011682018060405250810190610a479190613bc4565b15610a855760405162461bcd60e51b815260206004820152600e60248201526d10dbdc99481a5cc81c185d5cd95960921b60448201526064016109c7565b600086815260036020526040812054600280549091908110610aa957610aa9613b05565b60009182526020808320888452600360059093020191820190526040822054815491935083918110610add57610add613b05565b600091825260208220600154604051631c3db16d60e01b8152600481018d9052600d9390930290910193506001600160a01b031690631c3db16d90602401606060405180830381865afa158015610b38573d6000803e3d6000fd5b505050506040513d601f19601f82011682018060405250810190610b5c9190613bdf565b5050600087815260078401602052604090205490915060ff16610ba6576001600160a01b038816600090815260088301602090815260408083208984529091529020549450610ceb565b808603610c1b576000868152600683016020526040902054610bc9576000610c14565b600086815260068301602090815260408083205460098601546001600160a01b038d1685526008870184528285208b8652909352922054610c0a9190613acc565b610c149190613ae3565b9450610ceb565b600081815260078301602052604090205460ff16610ceb5781600601600083600a01600181548110610c4f57610c4f613b05565b906000526020600020015481526020019081526020016000205482600601600084600a01600081548110610c8557610c85613b05565b9060005260206000200154815260200190815260200160002054610ca99190613c1b565b60098301546001600160a01b038a16600090815260088501602090815260408083208b8452909152902054610cde9190613acc565b610ce89190613ae3565b94505b6001600160a01b038816600090815260088301602090815260408083208984529091528120558415610d85576040516001600160a01b0389169086156108fc029087906000818181858888f15050604080518a8152602081018a90526001600160a01b038d1694508b93508d92507f54b3cab3cb5c4aca3209db1151caff092e878011202e43a36782d4ebe0b963ae910160405180910390a45b50505050949350505050565b60016000610d9d6131dc565b8054909150600160401b900460ff1680610dc4575080546001600160401b03808416911610155b15610de15760405162dc149f60e41b815260040160405180910390fd5b805468ffffffffffffffffff19166001600160401b03831617600160401b178155610e0c8484613200565b805460ff60401b191681556040516001600160401b03831681527fc7f505b2f371ae2175ee4913f4499e1f2633a7b5936321eed1cdaeb6115181d29060200160405180910390a150505050565b600082815260036020526040902054600280548492908110610e7d57610e7d613b05565b600091825260209091206002600590920201015460ff1615610eb15760405162461bcd60e51b81526004016109c790613c2e565b600083815260036020526040812054600280549091908110610ed557610ed5613b05565b906000526020600020906005020190508060010154831115610f395760405162461bcd60e51b815260206004820181905260248201527f5468657265206973206e6f20737563682072756c696e6720746f2066756e642e60448201526064016109c7565b60015460405163afe15cfb60e01b81526004810186905260009182916001600160a01b039091169063afe15cfb906024016040805180830381865afa158015610f86573d6000803e3d6000fd5b505050506040513d601f19601f82011682018060405250810190610faa9190613a7f565b91509150814210158015610fbd57508042105b6110025760405162461bcd60e51b815260206004820152601660248201527520b83832b0b6103832b934b7b21034b99037bb32b91760511b60448201526064016109c7565b604051631c3db16d60e01b81526004810187905260009081903090631c3db16d90602401606060405180830381865afa158015611043573d6000803e3d6000fd5b505050506040513d601f19601f820116820180604052508101906110679190613bdf565b5050905086810361107c5761271091506110fd565b61271061138861108c8686613ab9565b6110969190613acc565b6110a09190613ae3565b6110aa8542613ab9565b106110f75760405162461bcd60e51b815260206004820152601f60248201527f41707065616c20706572696f64206973206f76657220666f72206c6f7365720060448201526064016109c7565b614e2091505b8454600090869061111090600190613ab9565b8154811061112057611120613b05565b60009182526020822060018054604051637e37c78b60e11b8152600481018f9052600d949094029092019450916001600160a01b039091169063fc6f8f1690602401602060405180830381865afa15801561117f573d6000803e3d6000fd5b505050506040513d601f19601f820116820180604052508101906111a39190613c65565b6111ad9190613ab9565b60008a815260078401602052604090205490915060ff16156112115760405162461bcd60e51b815260206004820152601b60248201527f41707065616c2066656520697320616c726561647920706169642e000000000060448201526064016109c7565b600154604051632cf6413f60e11b8152600481018c90526000916001600160a01b0316906359ec827e90602401602060405180830381865afa15801561125b573d6000803e3d6000fd5b505050506040513d601f19601f8201168201806040525081019061127f9190613c65565b905060006127106112908784613acc565b61129a9190613ae3565b6112a49083613c1b565b60008c8152600686016020526040812054919250908211156113555760008c815260068601602052604090205434906112dd9084613ab9565b116113025760008c81526006860160205260409020546112fd9083613ab9565b611304565b345b9050336001600160a01b0316848e7fcae597f39a3ad75c2e10d46b031f023c5c2babcd58ca0491b122acda3968d4c08f8560405161134c929190918252602082015260400190565b60405180910390a45b33600090815260088601602090815260408083208f845290915281208054839290611381908490613c1b565b909155505060008c8152600686016020526040812080548392906113a6908490613c1b565b909155505060008c815260068601602052604090205482116114785760008c8152600686016020526040812054600987018054919290916113e8908490613c1b565b9250508190555084600a018c908060018154018082558091505060019003906000526020600020016000909190919091505560018560070160008e815260200190815260200160002060006101000a81548160ff0219169083151502179055508b848e7fed764996238e4c1c873ae3af7ae2f00f1f6f4f10b9ac7d4bbea4a764c5dea00960405160405180910390a45b600a85015460011015611683578285600901546114959190613ab9565b60098601556001546040516319b8152960e01b8152600481018f90526001600160a01b03909116906319b8152990602401602060405180830381865afa1580156114e3573d6000803e3d6000fd5b505050506040513d601f19601f820116820180604052508101906115079190613bc4565b156115205760028a01805460ff19166001179055611603565b895460038b016000611533876001613c1b565b81526020019081526020016000208190555060008a6000016001816001815401808255809150500390600052602060002090600d02019050600160009054906101000a90046001600160a01b03166001600160a01b031663c71f42538f6040518263ffffffff1660e01b81526004016115ae91815260200190565b602060405180830381865afa1580156115cb573d6000803e3d6000fd5b505050506040513d601f19601f820116820180604052508101906115ef9190613c65565b600b820155600301805460ff191660011790555b600160009054906101000a90046001600160a01b03166001600160a01b031663c3569902848f8d600101548e6004016040518563ffffffff1660e01b815260040161165093929190613cb8565b6000604051808303818588803b15801561166957600080fd5b505af115801561167d573d6000803e3d6000fd5b50505050505b803411156116b157336108fc6116998334613ab9565b6040518115909202916000818181858888f150505050505b50505050505050505050505050565b6116c982613236565b306001600160a01b037f000000000000000000000000000000000000000000000000000000000000000016148061174757507f00000000000000000000000000000000000000000000000000000000000000006001600160a01b031661173b6000805160206140ba8339815191525490565b6001600160a01b031614155b156117655760405163703e46dd60e11b815260040160405180910390fd5b816001600160a01b03166352d1902d6040518163ffffffff1660e01b8152600401602060405180830381865afa9250505080156117bf575060408051601f3d908101601f191682019092526117bc91810190613c65565b60015b6117e757604051630c76093760e01b81526001600160a01b03831660048201526024016109c7565b6000805160206140ba833981519152811461181857604051632a87526960e21b8152600481018290526024016109c7565b6000805160206140ba8339815191528390556040516001600160a01b038416907fbc7cd75a20ee27fd9adebab32041f755214dbc6bffa90cc0225b39da2e5c2d3b90600090a28151156118e3576000836001600160a01b03168360405161187f9190613d57565b600060405180830381855af49150503d80600081146118ba576040519150601f19603f3d011682016040523d82523d6000602084013e6118bf565b606091505b50509050806118e1576040516339b21b5d60e11b815260040160405180910390fd5b505b505050565b6000306001600160a01b037f000000000000000000000000000000000000000000000000000000000000000016146119335760405163703e46dd60e11b815260040160405180910390fd5b506000805160206140ba83398151915290565b6002818154811061195657600080fd5b600091825260209091206005909102016001810154600282015460048301805492945060ff909116929161198990613c7e565b80601f01602080910402602001604051908101604052809291908181526020018280546119b590613c7e565b8015611a025780601f106119d757610100808354040283529160200191611a02565b820191906000526020600020905b8154815290600101906020018083116119e557829003601f168201915b5050505050905083565b600084815260036020526040902054600280548692908110611a3057611a30613b05565b600091825260209091206002600590920201015460ff1615611a645760405162461bcd60e51b81526004016109c790613c2e565b60015460405163564a565d60e01b8152600481018790526000916001600160a01b03169063564a565d9060240160a060405180830381865afa158015611aae573d6000803e3d6000fd5b505050506040513d601f19601f82011682018060405250810190611ad29190613b47565b5090935060019250611ae2915050565b816004811115611af457611af4613bae565b14611b515760405162461bcd60e51b815260206004820152602760248201527f54686520646973707574652073686f756c6420626520696e20436f6d6d6974206044820152663832b934b7b21760c91b60648201526084016109c7565b82611b8e5760405162461bcd60e51b815260206004820152600d60248201526c22b6b83a3c9031b7b6b6b4ba1760991b60448201526064016109c7565b600086815260036020526040812054600280549091908110611bb257611bb2613b05565b60009182526020822060059091020180549092508290611bd490600190613ab9565b81548110611be457611be4613b05565b90600052602060002090600d0201905060005b86811015611caa573382898984818110611c1357611c13613b05565b9050602002013581548110611c2a57611c2a613b05565b60009182526020909120600490910201546001600160a01b031614611c615760405162461bcd60e51b81526004016109c790613d73565b8582898984818110611c7557611c75613b05565b9050602002013581548110611c8c57611c8c613b05565b60009182526020909120600160049092020181019190915501611bf7565b5086869050816005016000828254611cc29190613c1b565b9091555050604051339089907f05cc2f1c94966f1c961b410a50f3d3ffb64501346753a258177097ea23707f0890611cff908b908b908b90613ddc565b60405180910390a35050505050505050565b6000818152600360205260408120546002805460609392908110611d3757611d37613b05565b60009182526020822060059091020180549092508290611d5990600190613ab9565b81548110611d6957611d69613b05565b90600052602060002090600d0201905080600a01805480602002602001604051908101604052809291908181526020018280548015611dc757602002820191906000526020600020905b815481526020019060010190808311611db3575b505050505092505050919050565b600085815260036020526040812054600280548392908110611df957611df9613b05565b60009182526020808320898452600360059093020191820190526040822054815491935083918110611e2d57611e2d613b05565b90600052602060002090600d02016000018681548110611e4f57611e4f613b05565b600091825260208220600154604051631c3db16d60e01b815260048082018e905293909302909101935082916001600160a01b0390911690631c3db16d90602401606060405180830381865afa158015611ead573d6000803e3d6000fd5b505050506040513d601f19601f82011682018060405250810190611ed19190613bdf565b506003850154919350915060ff168015611ef557508183600201541480611ef55750805b15611f0857612710945050505050610718565b5060009998505050505050505050565b60008060008060008060006002600360008c81526020019081526020016000205481548110611f4957611f49613b05565b600091825260208083208c8452600360059093020191820190526040822054815491935083918110611f7d57611f7d613b05565b600091825260208083206001600d909302019182015460038301546004840154600585015485549f87526002909501909352604090942054909f60ff9094169e50909c50909a9950975095505050505050565b600081815260036020526040812054600280548392908110611ff457611ff4613b05565b6000918252602082206005909102018054909250829061201690600190613ab9565b8154811061202657612026613b05565b60009182526020822060015460405163564a565d60e01b815260048101899052600d9390930290910193506001600160a01b03169063564a565d9060240160a060405180830381865afa158015612081573d6000803e3d6000fd5b505050506040513d601f19601f820116820180604052508101906120a59190613b47565b5050600154604051630fad06e960e11b81526001600160601b03851660048201529394506000936001600160a01b039091169250631f5a0dd2915060240160e060405180830381865afa158015612100573d6000803e3d6000fd5b505050506040513d601f19601f820116820180604052508101906121249190613e00565b505050505091505060008161213a578354612140565b83600501545b6004909401549093149695505050505050565b6000546001600160a01b0316331461217d5760405162461bcd60e51b81526004016109c790613e6a565b6000836001600160a01b031683836040516121989190613d57565b60006040518083038185875af1925050503d80600081146121d5576040519150601f19603f3d011682016040523d82523d6000602084013e6121da565b606091505b50509050806118e15760405162461bcd60e51b8152602060048201526011602482015270155b9cdd58d8d95cdcd99d5b0818d85b1b607a1b60448201526064016109c7565b6005600061222b6131dc565b8054909150600160401b900460ff1680612252575080546001600160401b03808416911610155b1561226f5760405162dc149f60e41b815260040160405180910390fd5b805468ffffffffffffffffff19166001600160401b038316908117600160401b1760ff60401b191682556040519081527fc7f505b2f371ae2175ee4913f4499e1f2633a7b5936321eed1cdaeb6115181d29060200160405180910390a15050565b6000868152600360205260409020546002805488929081106122f4576122f4613b05565b600091825260209091206002600590920201015460ff16156123285760405162461bcd60e51b81526004016109c790613c2e565b60015460405163564a565d60e01b8152600481018990526000916001600160a01b03169063564a565d9060240160a060405180830381865afa158015612372573d6000803e3d6000fd5b505050506040513d601f19601f820116820180604052508101906123969190613b47565b50909350600292506123a6915050565b8160048111156123b8576123b8613bae565b146124135760405162461bcd60e51b815260206004820152602560248201527f54686520646973707574652073686f756c6420626520696e20566f74652070656044820152643934b7b21760d91b60648201526084016109c7565b856124555760405162461bcd60e51b8152602060048201526012602482015271139bc81d9bdd195251081c1c9bdd9a59195960721b60448201526064016109c7565b60008881526003602052604081205460028054909190811061247957612479613b05565b9060005260206000209060050201905080600101548611156124d45760405162461bcd60e51b815260206004820152601460248201527343686f696365206f7574206f6620626f756e647360601b60448201526064016109c7565b805460009082906124e790600190613ab9565b815481106124f7576124f7613b05565b60009182526020822060015460405163564a565d60e01b8152600481018f9052600d9390930290910193506001600160a01b03169063564a565d9060240160a060405180830381865afa158015612552573d6000803e3d6000fd5b505050506040513d601f19601f820116820180604052508101906125769190613b47565b5050600154604051630fad06e960e11b81526001600160601b03851660048201529394506000936001600160a01b039091169250631f5a0dd2915060240160e060405180830381865afa1580156125d1573d6000803e3d6000fd5b505050506040513d601f19601f820116820180604052508101906125f59190613e00565b505050505091505060005b8a8110156128675733848d8d8481811061261c5761261c613b05565b905060200201358154811061263357612633613b05565b60009182526020909120600490910201546001600160a01b03161461266a5760405162461bcd60e51b81526004016109c790613d73565b8115806126dd575060408051602081018c90529081018a905260600160405160208183030381529060405280519060200120846000018d8d848181106126b2576126b2613b05565b90506020020135815481106126c9576126c9613b05565b906000526020600020906004020160010154145b61274f5760405162461bcd60e51b815260206004820152603d60248201527f54686520636f6d6d6974206d757374206d61746368207468652063686f69636560448201527f20696e20636f7572747320776974682068696464656e20766f7465732e00000060648201526084016109c7565b838c8c8381811061276257612762613b05565b905060200201358154811061277957612779613b05565b600091825260209091206003600490920201015460ff16156127d25760405162461bcd60e51b81526020600482015260126024820152712b37ba329030b63932b0b23c9031b0b9ba1760711b60448201526064016109c7565b89848d8d848181106127e6576127e6613b05565b90506020020135815481106127fd576127fd613b05565b60009182526020909120600260049092020101556001848d8d8481811061282657612826613b05565b905060200201358154811061283d5761283d613b05565b60009182526020909120600490910201600301805460ff1916911515919091179055600101612600565b508a8a905083600401600082825461287f9190613c1b565b90915550506000898152600284016020526040812080548c92906128a4908490613c1b565b9091555050600183015489036128d357600383015460ff16156128ce5760038301805460ff191690555b61294c565b60018301546000908152600284016020526040808220548b83529120540361291557600383015460ff166128ce5760038301805460ff1916600117905561294c565b60018301546000908152600284016020526040808220548b8352912054111561294c576001830189905560038301805460ff191690555b88336001600160a01b03168d7fa000893c71384499023d2d7b21234f7b9e80c78e0330f357dcd667ff578bd3a48e8e8c60405161298b93929190613eac565b60405180910390a4505050505050505050505050565b6000546001600160a01b031633146129cb5760405162461bcd60e51b81526004016109c790613e6a565b600180546001600160a01b0319166001600160a01b0392909216919091179055565b60008060008060006002600360008a81526020019081526020016000205481548110612a1b57612a1b613b05565b600091825260208083208a8452600360059093020191820190526040822054815491935083918110612a4f57612a4f613b05565b90600052602060002090600d02016000018781548110612a7157612a71613b05565b600091825260209091206004909102018054600182015460028301546003909301546001600160a01b039092169c909b5091995060ff16975095505050505050565b6001546001600160a01b03163314612add5760405162461bcd60e51b81526004016109c790613edc565b60028054600181018255600091909152600581027f405787fa12a823e0f2b7631cc41b3ba8828b3321ca811111fa75cd3aa3bb5acf81018690557f405787fa12a823e0f2b7631cc41b3ba8828b3321ca811111fa75cd3aa3bb5ace8101907f405787fa12a823e0f2b7631cc41b3ba8828b3321ca811111fa75cd3aa3bb5ad201612b68858783613f70565b50805460018054604051637e37c78b60e11b8152600481018b9052600385019260009290916001600160a01b039091169063fc6f8f1690602401602060405180830381865afa158015612bbf573d6000803e3d6000fd5b505050506040513d601f19601f82011682018060405250810190612be39190613c65565b612bed9190613ab9565b81526020808201929092526040908101600090812093909355835460018181018655858552838520600b600d909302019182018890556003808301805460ff19169092179091558b855290925291829020849055905188907fd3106f74c2d30a4b9230e756a3e78bde53865d40f6af4c479bb010ebaab5810890612c76908a908a908a90614030565b60405180910390a25050505050505050565b600083815260036020526040812054600280548392908110612cac57612cac613b05565b60009182526020808320878452600360059093020191820190526040822054815491935083918110612ce057612ce0613b05565b90600052602060002090600d02016000018481548110612d0257612d02613b05565b600091825260209091206004909102016003015460ff169695505050505050565b6001546000906001600160a01b03163314612d505760405162461bcd60e51b81526004016109c790613edc565b600083815260036020526040902054600280548592908110612d7457612d74613b05565b600091825260209091206002600590920201015460ff1615612da85760405162461bcd60e51b81526004016109c790613c2e565b600084815260036020526040812054600280549091908110612dcc57612dcc613b05565b60009182526020822060059091020180549092508290612dee90600190613ab9565b81548110612dfe57612dfe613b05565b90600052602060002090600d020190506000600160009054906101000a90046001600160a01b03166001600160a01b0316632e1daf2f6040518163ffffffff1660e01b8152600401602060405180830381865afa158015612e63573d6000803e3d6000fd5b505050506040513d601f19601f82011682018060405250810190612e879190614066565b60015460405163564a565d60e01b8152600481018a90529192506000916001600160a01b039091169063564a565d9060240160a060405180830381865afa158015612ed6573d6000803e3d6000fd5b505050506040513d601f19601f82011682018060405250810190612efa9190613b47565b5050604051632638506b60e11b81526001600160601b03841660048201819052602482018d9052604482018c90529394506001600160a01b0386169250634c70a0d69150606401602060405180830381865afa158015612f5e573d6000803e3d6000fd5b505050506040513d601f19601f82011682018060405250810190612f829190614066565b9650612f8f848a89613263565b1561302c57604080516080810182526001600160a01b03808a1680835260006020808501828152858701838152606087018481528c5460018181018f558e8752858720995160049092029099018054919098166001600160a01b0319909116178755915186880155516002860155516003909401805494151560ff19958616179055918152600c8901909152929092208054909216179055613031565b600096505b50505050505092915050565b60008281526003602052604081205460028054839290811061306157613061613b05565b6000918252602080832086845260036005909302019182019052604082205481549193508391811061309557613095613b05565b600091825260208220600154604051631c3db16d60e01b8152600481018a9052600d93909302909101935082916001600160a01b0390911690631c3db16d90602401606060405180830381865afa1580156130f4573d6000803e3d6000fd5b505050506040513d601f19601f820116820180604052508101906131189190613bdf565b509150915082600401546000148061314757508015801561314757506000828152600284016020526040902054155b1561315957600094505050505061318a565b801561316e57505060040154915061318a9050565b50600090815260029091016020526040902054915061318a9050565b92915050565b6000546001600160a01b031633146131ba5760405162461bcd60e51b81526004016109c790613e6a565b600080546001600160a01b0319166001600160a01b0392909216919091179055565b7ff0c57e16840df040f15088dc2f81fe391c3923bec73e23a9662efc9c229c6a0e90565b613208613517565b600080546001600160a01b039384166001600160a01b03199182161790915560018054929093169116179055565b6000546001600160a01b031633146132605760405162461bcd60e51b81526004016109c790613e6a565b50565b60015460405163564a565d60e01b81526004810184905260009182916001600160a01b039091169063564a565d9060240160a060405180830381865afa1580156132b1573d6000803e3d6000fd5b505050506040513d601f19601f820116820180604052508101906132d59190613b47565b505060018054604051637e37c78b60e11b8152600481018a90529495506000946001600160a01b0390911693506386cdecef9250889190849063fc6f8f1690602401602060405180830381865afa158015613334573d6000803e3d6000fd5b505050506040513d601f19601f820116820180604052508101906133589190613c65565b6133629190613ab9565b6040516001600160e01b031960e085901b16815260048101929092526024820152604401602060405180830381865afa1580156133a3573d6000803e3d6000fd5b505050506040513d601f19601f820116820180604052508101906133c79190613c65565b9050600080600160009054906101000a90046001600160a01b03166001600160a01b0316632e1daf2f6040518163ffffffff1660e01b8152600401602060405180830381865afa15801561341f573d6000803e3d6000fd5b505050506040513d601f19601f820116820180604052508101906134439190614066565b604051631a383be960e31b81526001600160a01b0388811660048301526001600160601b0387166024830152919091169063d1c1df4890604401608060405180830381865afa15801561349a573d6000803e3d6000fd5b505050506040513d601f19601f820116820180604052508101906134be9190614083565b50509150915082816134d09190613c1b565b60045490831015955060ff161561350c5784801561350957506001600160a01b0386166000908152600c8901602052604090205460ff16155b94505b505050509392505050565b61351f61353e565b61353c57604051631afcd79f60e31b815260040160405180910390fd5b565b60006135486131dc565b54600160401b900460ff16919050565b60006020828403121561356a57600080fd5b5035919050565b6001600160a01b038116811461326057600080fd5b6000806000806080858703121561359c57600080fd5b8435935060208501356135ae81613571565b93969395505050506040820135916060013590565b600080604083850312156135d657600080fd5b82356135e181613571565b915060208301356135f181613571565b809150509250929050565b6000806040838503121561360f57600080fd5b50508035926020909101359150565b634e487b7160e01b600052604160045260246000fd5b60006001600160401b038084111561364e5761364e61361e565b604051601f8501601f19908116603f011681019082821181831017156136765761367661361e565b8160405280935085815286868601111561368f57600080fd5b858560208301376000602087830101525050509392505050565b600082601f8301126136ba57600080fd5b6136c983833560208501613634565b9392505050565b600080604083850312156136e357600080fd5b82356136ee81613571565b915060208301356001600160401b0381111561370957600080fd5b613715858286016136a9565b9150509250929050565b60005b8381101561373a578181015183820152602001613722565b50506000910152565b6000815180845261375b81602086016020860161371f565b601f01601f19169290920160200192915050565b6020815260006136c96020830184613743565b83815282151560208201526060604082015260006107186060830184613743565b60008083601f8401126137b557600080fd5b5081356001600160401b038111156137cc57600080fd5b6020830191508360208260051b85010111156137e757600080fd5b9250929050565b6000806000806060858703121561380457600080fd5b8435935060208501356001600160401b0381111561382157600080fd5b61382d878288016137a3565b9598909750949560400135949350505050565b6020808252825182820181905260009190848201906040850190845b818110156138785783518352928401929184019160010161385c565b50909695505050505050565b600080600080600060a0868803121561389c57600080fd5b505083359560208501359550604085013594606081013594506080013592509050565b6000806000606084860312156138d457600080fd5b505081359360208301359350604090920135919050565b60008060006060848603121561390057600080fd5b833561390b81613571565b92506020840135915060408401356001600160401b0381111561392d57600080fd5b613939868287016136a9565b9150509250925092565b60008060008060008060a0878903121561395c57600080fd5b8635955060208701356001600160401b038082111561397a57600080fd5b6139868a838b016137a3565b9097509550604089013594506060890135935060808901359150808211156139ad57600080fd5b508701601f810189136139bf57600080fd5b6139ce89823560208401613634565b9150509295509295509295565b6000602082840312156139ed57600080fd5b81356136c981613571565b600080600080600060808688031215613a1057600080fd5b853594506020860135935060408601356001600160401b0380821115613a3557600080fd5b818801915088601f830112613a4957600080fd5b813581811115613a5857600080fd5b896020828501011115613a6a57600080fd5b96999598505060200195606001359392505050565b60008060408385031215613a9257600080fd5b505080516020909101519092909150565b634e487b7160e01b600052601160045260246000fd5b8181038181111561318a5761318a613aa3565b808202811582820484141761318a5761318a613aa3565b600082613b0057634e487b7160e01b600052601260045260246000fd5b500490565b634e487b7160e01b600052603260045260246000fd5b80516001600160601b0381168114613b3257600080fd5b919050565b80518015158114613b3257600080fd5b600080600080600060a08688031215613b5f57600080fd5b613b6886613b1b565b94506020860151613b7881613571565b604087015190945060058110613b8d57600080fd5b9250613b9b60608701613b37565b9150608086015190509295509295909350565b634e487b7160e01b600052602160045260246000fd5b600060208284031215613bd657600080fd5b6136c982613b37565b600080600060608486031215613bf457600080fd5b83519250613c0460208501613b37565b9150613c1260408501613b37565b90509250925092565b8082018082111561318a5761318a613aa3565b6020808252601e908201527f44697370757465206a756d70656420746f206120706172656e7420444b210000604082015260600190565b600060208284031215613c7757600080fd5b5051919050565b600181811c90821680613c9257607f821691505b602082108103613cb257634e487b7160e01b600052602260045260246000fd5b50919050565b838152600060208460208401526060604084015260008454613cd981613c7e565b8060608701526080600180841660008114613cfb5760018114613d1757613d47565b60ff19851660808a0152608084151560051b8a01019550613d47565b89600052602060002060005b85811015613d3e5781548b8201860152908301908801613d23565b8a016080019650505b50939a9950505050505050505050565b60008251613d6981846020870161371f565b9190910192915050565b6020808252601f908201527f5468652063616c6c65722068617320746f206f776e2074686520766f74652e00604082015260600190565b81835260006001600160fb1b03831115613dc357600080fd5b8260051b80836020870137939093016020019392505050565b604081526000613df0604083018587613daa565b9050826020830152949350505050565b600080600080600080600060e0888a031215613e1b57600080fd5b613e2488613b1b565b9650613e3260208901613b37565b955060408801519450606088015193506080880151925060a08801519150613e5c60c08901613b37565b905092959891949750929550565b60208082526022908201527f416363657373206e6f7420616c6c6f7765643a20476f7665726e6f72206f6e6c6040820152613c9760f11b606082015260800190565b604081526000613ec0604083018587613daa565b8281036020840152613ed28185613743565b9695505050505050565b60208082526024908201527f416363657373206e6f7420616c6c6f7765643a204b6c65726f73436f7265206f60408201526337363c9760e11b606082015260800190565b601f8211156118e3576000816000526020600020601f850160051c81016020861015613f495750805b601f850160051c820191505b81811015613f6857828155600101613f55565b505050505050565b6001600160401b03831115613f8757613f8761361e565b613f9b83613f958354613c7e565b83613f20565b6000601f841160018114613fcf5760008515613fb75750838201355b600019600387901b1c1916600186901b178355614029565b600083815260209020601f19861690835b828110156140005786850135825560209485019460019092019101613fe0565b508682101561401d5760001960f88860031b161c19848701351681555b505060018560011b0183555b5050505050565b83815260406020820152816040820152818360608301376000818301606090810191909152601f909201601f1916010192915050565b60006020828403121561407857600080fd5b81516136c981613571565b6000806000806080858703121561409957600080fd5b50508251602084015160408501516060909501519196909550909250905056fe360894a13ba1a3210667c828492db98dca3e2076cc3735a920a3ca505d382bbca26469706673582212204da0c6646131cdbac333f49a7103fae9779ab87fd0f9dd6fb67291ecde27571464736f6c63430008180033",
  "devdoc": {
    "errors": {
      "AlreadyInitialized()": [
        {
          "details": "The contract is already initialized."
        }
      ],
      "InvalidImplementation(address)": [
        {
          "details": "The `implementation` is not UUPS-compliant"
        }
      ],
      "NotInitializing()": [
        {
          "details": "The contract is not initializing."
        }
      ],
      "UUPSUnauthorizedCallContext()": [
        {
          "details": "The call is from an unauthorized context."
        }
      ],
      "UUPSUnsupportedProxiableUUID(bytes32)": [
        {
          "details": "The storage `slot` is unsupported as a UUID."
        }
      ]
    },
    "events": {
      "ChoiceFunded(uint256,uint256,uint256)": {
        "details": "To be emitted when a choice is fully funded for an appeal.",
        "params": {
          "_choice": "The choice that is being funded.",
          "_coreDisputeID": "The identifier of the dispute in the Arbitrator contract.",
          "_coreRoundID": "The identifier of the round in the Arbitrator contract."
        }
      },
      "CommitCast(uint256,address,uint256[],bytes32)": {
        "details": "To be emitted when a vote commitment is cast.",
        "params": {
          "_commit": "The commitment of the juror.",
          "_coreDisputeID": "The identifier of the dispute in the Arbitrator contract.",
          "_juror": "The address of the juror casting the vote commitment.",
          "_voteIDs": "The identifiers of the votes in the dispute."
        }
      },
      "Contribution(uint256,uint256,uint256,address,uint256)": {
        "details": "To be emitted when a funding contribution is made.",
        "params": {
          "_amount": "The amount contributed.",
          "_choice": "The choice that is being funded.",
          "_contributor": "The address of the contributor.",
          "_coreDisputeID": "The identifier of the dispute in the Arbitrator contract.",
          "_coreRoundID": "The identifier of the round in the Arbitrator contract."
        }
      },
      "DisputeCreation(uint256,uint256,bytes)": {
        "details": "To be emitted when a dispute is created.",
        "params": {
          "_coreDisputeID": "The identifier of the dispute in the Arbitrator contract.",
          "_extraData": "The extra data for the dispute.",
          "_numberOfChoices": "The number of choices available in the dispute."
        }
      },
      "Initialized(uint64)": {
        "details": "Triggered when the contract has been initialized or reinitialized."
      },
      "Upgraded(address)": {
        "details": "Emitted when the `implementation` has been successfully upgraded.",
        "params": {
          "newImplementation": "Address of the new implementation the proxy is now forwarding calls to."
        }
      },
      "VoteCast(uint256,address,uint256[],uint256,string)": {
        "details": "Emitted when casting a vote to provide the justification of juror's choice.",
        "params": {
          "_choice": "The choice juror voted for.",
          "_coreDisputeID": "The identifier of the dispute in the Arbitrator contract.",
          "_juror": "Address of the juror.",
          "_justification": "Justification of the choice.",
          "_voteIDs": "The identifiers of the votes in the dispute."
        }
      },
      "Withdrawal(uint256,uint256,uint256,address,uint256)": {
        "details": "To be emitted when the contributed funds are withdrawn.",
        "params": {
          "_amount": "The amount withdrawn.",
          "_choice": "The choice that is being funded.",
          "_contributor": "The address of the contributor.",
          "_coreDisputeID": "The identifier of the dispute in the Arbitrator contract.",
          "_coreRoundID": "The identifier of the round in the Arbitrator contract."
        }
      }
    },
    "kind": "dev",
    "methods": {
      "areCommitsAllCast(uint256)": {
        "details": "Returns true if all of the jurors have cast their commits for the last round.",
        "params": {
          "_coreDisputeID": "The ID of the dispute in Kleros Core."
        },
        "returns": {
          "_0": "Whether all of the jurors have cast their commits for the last round."
        }
      },
      "areVotesAllCast(uint256)": {
        "details": "Returns true if all of the jurors have cast their votes for the last round. Note that this function is to be called directly by the core contract and is not for off-chain usage.",
        "params": {
          "_coreDisputeID": "The ID of the dispute in Kleros Core."
        },
        "returns": {
          "_0": "Whether all of the jurors have cast their votes for the last round."
        }
      },
      "castCommit(uint256,uint256[],bytes32)": {
        "details": "Sets the caller's commit for the specified votes. It can be called multiple times during the commit period, each call overrides the commits of the previous one. `O(n)` where `n` is the number of votes.",
        "params": {
          "_commit": "The commit. Note that justification string is a part of the commit.",
          "_coreDisputeID": "The ID of the dispute in Kleros Core.",
          "_voteIDs": "The IDs of the votes."
        }
      },
      "castVote(uint256,uint256[],uint256,uint256,string)": {
        "details": "Sets the caller's choices for the specified votes. `O(n)` where `n` is the number of votes.",
        "params": {
          "_choice": "The choice.",
          "_coreDisputeID": "The ID of the dispute in Kleros Core.",
          "_justification": "Justification of the choice.",
          "_salt": "The salt for the commit if the votes were hidden.",
          "_voteIDs": "The IDs of the votes."
        }
      },
      "changeCore(address)": {
        "details": "Changes the `core` storage variable.",
        "params": {
          "_core": "The new value for the `core` storage variable."
        }
      },
      "changeGovernor(address)": {
        "details": "Changes the `governor` storage variable.",
        "params": {
          "_governor": "The new value for the `governor` storage variable."
        }
      },
      "constructor": {
        "custom:oz-upgrades-unsafe-allow": "constructor"
      },
      "createDispute(uint256,uint256,bytes,uint256)": {
        "details": "Creates a local dispute and maps it to the dispute ID in the Core contract. Note: Access restricted to Kleros Core only.",
        "params": {
          "_coreDisputeID": "The ID of the dispute in Kleros Core.",
          "_extraData": "Additional info about the dispute, for possible use in future dispute kits.",
          "_nbVotes": "Number of votes for this dispute.",
          "_numberOfChoices": "Number of choices of the dispute"
        }
      },
      "currentRuling(uint256)": {
        "details": "Gets the current ruling of a specified dispute.",
        "params": {
          "_coreDisputeID": "The ID of the dispute in Kleros Core."
        },
        "returns": {
          "overridden": "Whether the ruling was overridden by appeal funding or not.",
          "ruling": "The current ruling.",
          "tied": "Whether it's a tie or not."
        }
      },
      "draw(uint256,uint256)": {
        "details": "Draws the juror from the sortition tree. The drawn address is picked up by Kleros Core. Note: Access restricted to Kleros Core only.",
        "params": {
          "_coreDisputeID": "The ID of the dispute in Kleros Core.",
          "_nonce": "Nonce of the drawing iteration."
        },
        "returns": {
          "drawnAddress": "The drawn address."
        }
      },
      "executeGovernorProposal(address,uint256,bytes)": {
        "details": "Allows the governor to call anything on behalf of the contract.",
        "params": {
          "_amount": "The value sent with the call.",
          "_data": "The data sent with the call.",
          "_destination": "The destination of the call."
        }
      },
      "fundAppeal(uint256,uint256)": {
        "details": "Manages contributions, and appeals a dispute if at least two choices are fully funded. Note that the surplus deposit will be reimbursed.",
        "params": {
          "_choice": "A choice that receives funding.",
          "_coreDisputeID": "Index of the dispute in Kleros Core."
        }
      },
      "getCoherentCount(uint256,uint256)": {
        "details": "Gets the number of jurors who are eligible to a reward in this round.",
        "params": {
          "_coreDisputeID": "The ID of the dispute in Kleros Core, not in the Dispute Kit.",
          "_coreRoundID": "The ID of the round in Kleros Core, not in the Dispute Kit."
        },
        "returns": {
          "_0": "The number of coherent jurors."
        }
      },
      "getDegreeOfCoherence(uint256,uint256,uint256,uint256,uint256)": {
        "details": "Gets the degree of coherence of a particular voter. This function is called by Kleros Core in order to determine the amount of the reward.",
        "params": {
          "_coreDisputeID": "The ID of the dispute in Kleros Core, not in the Dispute Kit.",
          "_coreRoundID": "The ID of the round in Kleros Core, not in the Dispute Kit.",
          "_voteID": "The ID of the vote."
        },
        "returns": {
          "_0": "The degree of coherence in basis points."
        }
      },
      "initialize(address,address)": {
        "details": "Initializer.",
        "params": {
          "_core": "The KlerosCore arbitrator.",
          "_governor": "The governor's address."
        }
      },
      "isAppealFunded(uint256)": {
        "details": "Returns true if the appeal funding is finished prematurely (e.g. when losing side didn't fund). Note that this function is to be called directly by the core contract and is not for off-chain usage.",
        "params": {
          "_coreDisputeID": "The ID of the dispute in Kleros Core, not in the Dispute Kit."
        },
        "returns": {
          "_0": "Whether the appeal funding is finished."
        }
      },
      "isVoteActive(uint256,uint256,uint256)": {
        "details": "Returns true if the specified voter was active in this round.",
        "params": {
          "_coreDisputeID": "The ID of the dispute in Kleros Core, not in the Dispute Kit.",
          "_coreRoundID": "The ID of the round in Kleros Core, not in the Dispute Kit.",
          "_voteID": "The ID of the voter."
        },
        "returns": {
          "_0": "Whether the voter was active or not."
        }
      },
      "proxiableUUID()": {
        "details": "Implementation of the ERC1822 `proxiableUUID` function. This returns the storage slot used by the implementation. It is used to validate the implementation's compatibility when performing an upgrade. IMPORTANT: A proxy pointing at a proxiable contract should not be considered proxiable itself, because this risks bricking a proxy that upgrades to it, by delegating to itself until out of gas. Thus it is critical that this function revert if invoked through a proxy. This is guaranteed by the if statement."
      },
      "upgradeToAndCall(address,bytes)": {
        "details": "Upgrade mechanism including access control and UUPS-compliance.Reverts if the execution is not performed via delegatecall or the execution context is not of a proxy with an ERC1967-compliant implementation pointing to self.",
        "params": {
          "data": "Data used in a delegate call to `newImplementation` if non-empty. This will typically be an encoded function call, and allows initializing the storage of the proxy like a Solidity constructor.",
          "newImplementation": "Address of the new implementation contract."
        }
      },
      "withdrawFeesAndRewards(uint256,address,uint256,uint256)": {
        "details": "Allows those contributors who attempted to fund an appeal round to withdraw any reimbursable fees or rewards after the dispute gets resolved. Note that withdrawals are not possible if the core contract is paused.",
        "params": {
          "_beneficiary": "The address whose rewards to withdraw.",
          "_choice": "The ruling option that the caller wants to withdraw from.",
          "_coreDisputeID": "Index of the dispute in Kleros Core contract.",
          "_coreRoundID": "The round in the Kleros Core contract the caller wants to withdraw from."
        },
        "returns": {
          "amount": "The withdrawn amount."
        }
      }
    },
    "stateVariables": {
      "version": {
        "details": "Returns the version of the implementation.",
        "return": "Version string.",
        "returns": {
          "_0": "Version string."
        }
      }
    },
    "title": "DisputeKitClassic Dispute kit implementation of the Kleros v1 features including: - a drawing system: proportional to staked PNK, - a vote aggregation system: plurality, - an incentive system: equal split between coherent votes, - an appeal system: fund 2 choices only, vote on any choice.",
    "version": 1
  },
  "userdoc": {
    "errors": {
      "FailedDelegateCall()": [
        {
          "notice": "Failed Delegated call"
        }
      ]
    },
    "kind": "user",
    "methods": {},
    "version": 1
  },
  "storageLayout": {
    "storage": [
      {
        "astId": 6295,
        "contract": "src/arbitration/dispute-kits/DisputeKitClassic.sol:DisputeKitClassic",
        "label": "governor",
        "offset": 0,
        "slot": "0",
        "type": "t_address"
      },
      {
        "astId": 6298,
        "contract": "src/arbitration/dispute-kits/DisputeKitClassic.sol:DisputeKitClassic",
        "label": "core",
        "offset": 0,
        "slot": "1",
        "type": "t_contract(KlerosCore)165"
      },
      {
        "astId": 6302,
        "contract": "src/arbitration/dispute-kits/DisputeKitClassic.sol:DisputeKitClassic",
        "label": "disputes",
        "offset": 0,
        "slot": "2",
        "type": "t_array(t_struct(Dispute)6230_storage)dyn_storage"
      },
      {
        "astId": 6306,
        "contract": "src/arbitration/dispute-kits/DisputeKitClassic.sol:DisputeKitClassic",
        "label": "coreDisputeIDToLocal",
        "offset": 0,
        "slot": "3",
        "type": "t_mapping(t_uint256,t_uint256)"
      },
      {
        "astId": 6308,
        "contract": "src/arbitration/dispute-kits/DisputeKitClassic.sol:DisputeKitClassic",
        "label": "singleDrawPerJuror",
        "offset": 0,
        "slot": "4",
        "type": "t_bool"
      }
    ],
    "types": {
      "t_address": {
        "encoding": "inplace",
        "label": "address",
        "numberOfBytes": "20"
      },
      "t_array(t_struct(Dispute)6230_storage)dyn_storage": {
        "base": "t_struct(Dispute)6230_storage",
        "encoding": "dynamic_array",
        "label": "struct DisputeKitClassicBase.Dispute[]",
        "numberOfBytes": "32"
      },
      "t_array(t_struct(Round)6272_storage)dyn_storage": {
        "base": "t_struct(Round)6272_storage",
        "encoding": "dynamic_array",
        "label": "struct DisputeKitClassicBase.Round[]",
        "numberOfBytes": "32"
      },
      "t_array(t_struct(Vote)6281_storage)dyn_storage": {
        "base": "t_struct(Vote)6281_storage",
        "encoding": "dynamic_array",
        "label": "struct DisputeKitClassicBase.Vote[]",
        "numberOfBytes": "32"
      },
      "t_array(t_uint256)dyn_storage": {
        "base": "t_uint256",
        "encoding": "dynamic_array",
        "label": "uint256[]",
        "numberOfBytes": "32"
      },
      "t_bool": {
        "encoding": "inplace",
        "label": "bool",
        "numberOfBytes": "1"
      },
      "t_bytes32": {
        "encoding": "inplace",
        "label": "bytes32",
        "numberOfBytes": "32"
      },
      "t_bytes_storage": {
        "encoding": "bytes",
        "label": "bytes",
        "numberOfBytes": "32"
      },
      "t_contract(KlerosCore)165": {
        "encoding": "inplace",
        "label": "contract KlerosCore",
        "numberOfBytes": "20"
      },
      "t_mapping(t_address,t_bool)": {
        "encoding": "mapping",
        "key": "t_address",
        "label": "mapping(address => bool)",
        "numberOfBytes": "32",
        "value": "t_bool"
      },
      "t_mapping(t_address,t_mapping(t_uint256,t_uint256))": {
        "encoding": "mapping",
        "key": "t_address",
        "label": "mapping(address => mapping(uint256 => uint256))",
        "numberOfBytes": "32",
        "value": "t_mapping(t_uint256,t_uint256)"
      },
      "t_mapping(t_uint256,t_bool)": {
        "encoding": "mapping",
        "key": "t_uint256",
        "label": "mapping(uint256 => bool)",
        "numberOfBytes": "32",
        "value": "t_bool"
      },
      "t_mapping(t_uint256,t_uint256)": {
        "encoding": "mapping",
        "key": "t_uint256",
        "label": "mapping(uint256 => uint256)",
        "numberOfBytes": "32",
        "value": "t_uint256"
      },
      "t_struct(Dispute)6230_storage": {
        "encoding": "inplace",
        "label": "struct DisputeKitClassicBase.Dispute",
        "members": [
          {
            "astId": 6219,
            "contract": "src/arbitration/dispute-kits/DisputeKitClassic.sol:DisputeKitClassic",
            "label": "rounds",
            "offset": 0,
            "slot": "0",
            "type": "t_array(t_struct(Round)6272_storage)dyn_storage"
          },
          {
            "astId": 6221,
            "contract": "src/arbitration/dispute-kits/DisputeKitClassic.sol:DisputeKitClassic",
            "label": "numberOfChoices",
            "offset": 0,
            "slot": "1",
            "type": "t_uint256"
          },
          {
            "astId": 6223,
            "contract": "src/arbitration/dispute-kits/DisputeKitClassic.sol:DisputeKitClassic",
            "label": "jumped",
            "offset": 0,
            "slot": "2",
            "type": "t_bool"
          },
          {
            "astId": 6227,
            "contract": "src/arbitration/dispute-kits/DisputeKitClassic.sol:DisputeKitClassic",
            "label": "coreRoundIDToLocal",
            "offset": 0,
            "slot": "3",
            "type": "t_mapping(t_uint256,t_uint256)"
          },
          {
            "astId": 6229,
            "contract": "src/arbitration/dispute-kits/DisputeKitClassic.sol:DisputeKitClassic",
            "label": "extraData",
            "offset": 0,
            "slot": "4",
            "type": "t_bytes_storage"
          }
        ],
        "numberOfBytes": "160"
      },
      "t_struct(Round)6272_storage": {
        "encoding": "inplace",
        "label": "struct DisputeKitClassicBase.Round",
        "members": [
          {
            "astId": 6234,
            "contract": "src/arbitration/dispute-kits/DisputeKitClassic.sol:DisputeKitClassic",
            "label": "votes",
            "offset": 0,
            "slot": "0",
            "type": "t_array(t_struct(Vote)6281_storage)dyn_storage"
          },
          {
            "astId": 6236,
            "contract": "src/arbitration/dispute-kits/DisputeKitClassic.sol:DisputeKitClassic",
            "label": "winningChoice",
            "offset": 0,
            "slot": "1",
            "type": "t_uint256"
          },
          {
            "astId": 6240,
            "contract": "src/arbitration/dispute-kits/DisputeKitClassic.sol:DisputeKitClassic",
            "label": "counts",
            "offset": 0,
            "slot": "2",
            "type": "t_mapping(t_uint256,t_uint256)"
          },
          {
            "astId": 6242,
            "contract": "src/arbitration/dispute-kits/DisputeKitClassic.sol:DisputeKitClassic",
            "label": "tied",
            "offset": 0,
            "slot": "3",
            "type": "t_bool"
          },
          {
            "astId": 6244,
            "contract": "src/arbitration/dispute-kits/DisputeKitClassic.sol:DisputeKitClassic",
            "label": "totalVoted",
            "offset": 0,
            "slot": "4",
            "type": "t_uint256"
          },
          {
            "astId": 6246,
            "contract": "src/arbitration/dispute-kits/DisputeKitClassic.sol:DisputeKitClassic",
            "label": "totalCommitted",
            "offset": 0,
            "slot": "5",
            "type": "t_uint256"
          },
          {
            "astId": 6250,
            "contract": "src/arbitration/dispute-kits/DisputeKitClassic.sol:DisputeKitClassic",
            "label": "paidFees",
            "offset": 0,
            "slot": "6",
            "type": "t_mapping(t_uint256,t_uint256)"
          },
          {
            "astId": 6254,
            "contract": "src/arbitration/dispute-kits/DisputeKitClassic.sol:DisputeKitClassic",
            "label": "hasPaid",
            "offset": 0,
            "slot": "7",
            "type": "t_mapping(t_uint256,t_bool)"
          },
          {
            "astId": 6260,
            "contract": "src/arbitration/dispute-kits/DisputeKitClassic.sol:DisputeKitClassic",
            "label": "contributions",
            "offset": 0,
            "slot": "8",
            "type": "t_mapping(t_address,t_mapping(t_uint256,t_uint256))"
          },
          {
            "astId": 6262,
            "contract": "src/arbitration/dispute-kits/DisputeKitClassic.sol:DisputeKitClassic",
            "label": "feeRewards",
            "offset": 0,
            "slot": "9",
            "type": "t_uint256"
          },
          {
            "astId": 6265,
            "contract": "src/arbitration/dispute-kits/DisputeKitClassic.sol:DisputeKitClassic",
            "label": "fundedChoices",
            "offset": 0,
            "slot": "10",
            "type": "t_array(t_uint256)dyn_storage"
          },
          {
            "astId": 6267,
            "contract": "src/arbitration/dispute-kits/DisputeKitClassic.sol:DisputeKitClassic",
            "label": "nbVotes",
            "offset": 0,
            "slot": "11",
            "type": "t_uint256"
          },
          {
            "astId": 6271,
            "contract": "src/arbitration/dispute-kits/DisputeKitClassic.sol:DisputeKitClassic",
            "label": "alreadyDrawn",
            "offset": 0,
            "slot": "12",
            "type": "t_mapping(t_address,t_bool)"
          }
        ],
        "numberOfBytes": "416"
      },
      "t_struct(Vote)6281_storage": {
        "encoding": "inplace",
        "label": "struct DisputeKitClassicBase.Vote",
        "members": [
          {
            "astId": 6274,
            "contract": "src/arbitration/dispute-kits/DisputeKitClassic.sol:DisputeKitClassic",
            "label": "account",
            "offset": 0,
            "slot": "0",
            "type": "t_address"
          },
          {
            "astId": 6276,
            "contract": "src/arbitration/dispute-kits/DisputeKitClassic.sol:DisputeKitClassic",
            "label": "commit",
            "offset": 0,
            "slot": "1",
            "type": "t_bytes32"
          },
          {
            "astId": 6278,
            "contract": "src/arbitration/dispute-kits/DisputeKitClassic.sol:DisputeKitClassic",
            "label": "choice",
            "offset": 0,
            "slot": "2",
            "type": "t_uint256"
          },
          {
            "astId": 6280,
            "contract": "src/arbitration/dispute-kits/DisputeKitClassic.sol:DisputeKitClassic",
            "label": "voted",
            "offset": 0,
            "slot": "3",
            "type": "t_bool"
          }
        ],
        "numberOfBytes": "128"
      },
      "t_uint256": {
        "encoding": "inplace",
        "label": "uint256",
        "numberOfBytes": "32"
      }
    }
  }
}