{
  "address": "0xC3f638389635bF33E019c845FdaF2ed9bca3DF67",
  "abi": [
    {
      "inputs": [],
      "stateMutability": "nonpayable",
      "type": "constructor"
    },
    {
      "inputs": [],
      "name": "AlreadyInitialized",
      "type": "error"
    },
    {
      "inputs": [],
      "name": "FailedDelegateCall",
      "type": "error"
    },
    {
      "inputs": [
        {
          "internalType": "address",
          "name": "implementation",
          "type": "address"
        }
      ],
      "name": "InvalidImplementation",
      "type": "error"
    },
    {
      "inputs": [],
      "name": "NotInitializing",
      "type": "error"
    },
    {
      "inputs": [],
      "name": "OwnerOnly",
      "type": "error"
    },
    {
      "inputs": [],
      "name": "UUPSUnauthorizedCallContext",
      "type": "error"
    },
    {
      "inputs": [
        {
          "internalType": "bytes32",
          "name": "slot",
          "type": "bytes32"
        }
      ],
      "name": "UUPSUnsupportedProxiableUUID",
      "type": "error"
    },
    {
      "anonymous": false,
      "inputs": [
        {
          "indexed": true,
          "internalType": "uint256",
          "name": "_templateId",
          "type": "uint256"
        },
        {
          "indexed": true,
          "internalType": "string",
          "name": "_templateTag",
          "type": "string"
        },
        {
          "indexed": false,
          "internalType": "string",
          "name": "_templateData",
          "type": "string"
        },
        {
          "indexed": false,
          "internalType": "string",
          "name": "_templateDataMappings",
          "type": "string"
        }
      ],
      "name": "DisputeTemplate",
      "type": "event"
    },
    {
      "anonymous": false,
      "inputs": [
        {
          "indexed": false,
          "internalType": "uint64",
          "name": "version",
          "type": "uint64"
        }
      ],
      "name": "Initialized",
      "type": "event"
    },
    {
      "anonymous": false,
      "inputs": [
        {
          "indexed": true,
          "internalType": "address",
          "name": "newImplementation",
          "type": "address"
        }
      ],
      "name": "Upgraded",
      "type": "event"
    },
    {
      "inputs": [
        {
          "internalType": "address",
          "name": "_owner",
          "type": "address"
        }
      ],
      "name": "changeOwner",
      "outputs": [],
      "stateMutability": "nonpayable",
      "type": "function"
    },
    {
      "inputs": [
        {
          "internalType": "address",
          "name": "_owner",
          "type": "address"
        }
      ],
      "name": "initialize",
      "outputs": [],
      "stateMutability": "nonpayable",
      "type": "function"
    },
    {
      "inputs": [],
      "name": "owner",
      "outputs": [
        {
          "internalType": "address",
          "name": "",
          "type": "address"
        }
      ],
      "stateMutability": "view",
      "type": "function"
    },
    {
      "inputs": [],
      "name": "proxiableUUID",
      "outputs": [
        {
          "internalType": "bytes32",
          "name": "",
          "type": "bytes32"
        }
      ],
      "stateMutability": "view",
      "type": "function"
    },
    {
      "inputs": [
        {
          "internalType": "string",
          "name": "_templateTag",
          "type": "string"
        },
        {
          "internalType": "string",
          "name": "_templateData",
          "type": "string"
        },
        {
          "internalType": "string",
          "name": "_templateDataMappings",
          "type": "string"
        }
      ],
      "name": "setDisputeTemplate",
      "outputs": [
        {
          "internalType": "uint256",
          "name": "templateId",
          "type": "uint256"
        }
      ],
      "stateMutability": "nonpayable",
      "type": "function"
    },
    {
      "inputs": [],
      "name": "templates",
      "outputs": [
        {
          "internalType": "uint256",
          "name": "",
          "type": "uint256"
        }
      ],
      "stateMutability": "view",
      "type": "function"
    },
    {
      "inputs": [
        {
          "internalType": "address",
          "name": "newImplementation",
          "type": "address"
        },
        {
          "internalType": "bytes",
          "name": "data",
          "type": "bytes"
        }
      ],
      "name": "upgradeToAndCall",
      "outputs": [],
      "stateMutability": "payable",
      "type": "function"
    },
    {
      "inputs": [],
      "name": "version",
      "outputs": [
        {
          "internalType": "string",
          "name": "",
          "type": "string"
        }
      ],
      "stateMutability": "view",
      "type": "function"
    }
  ],
  "transactionHash": "0xa6a4958a5881803297025fcb6b02ff4623b6c196dfc1c63ecdcc5dbca371f59c",
  "args": [],
  "numDeployments": 1,
  "solcInputHash": "d547d738900bce1310e91a5d1adfc179",
  "bytecode": "0x60a080604052346100c157306080525f5160206109585f395f51905f525460ff8160401c166100b3576002600160401b03196001600160401b03821601610060575b60405161089290816100c6823960805181818161036a01526104430152f35b6001600160401b0319166001600160401b039081175f5160206109585f395f51905f525581527fc7f505b2f371ae2175ee4913f4499e1f2633a7b5936321eed1cdaeb6115181d290602090a15f80610041565b62dc149f60e41b5f5260045ffd5b5f80fdfe6080806040526004361015610012575f80fd5b5f3560e01c9081633a283d7d14610762575080634a9941741461065a5780634f1ef286146103e257806352d1902d1461035057806354fd4d50146102ed5780638da5cb5b146102c8578063a6f9dae11461024b5763c4d66de814610074575f80fd5b346102475760203660031901126102475761008d610822565b7ff0c57e16840df040f15088dc2f81fe391c3923bec73e23a9662efc9c229c6a0e5460ff8160401c16159167ffffffffffffffff8216838061023d575b15908161021f575b506101f75767ffffffffffffffff1982166001177ff0c57e16840df040f15088dc2f81fe391c3923bec73e23a9662efc9c229c6a0e556001600160a01b0391836101b8575b501673ffffffffffffffffffffffffffffffffffffffff195f5416175f5561013b57005b68ff0000000000000000197ff0c57e16840df040f15088dc2f81fe391c3923bec73e23a9662efc9c229c6a0e54167ff0c57e16840df040f15088dc2f81fe391c3923bec73e23a9662efc9c229c6a0e557fc7f505b2f371ae2175ee4913f4499e1f2633a7b5936321eed1cdaeb6115181d2602060405160018152a1005b68ffffffffffffffffff191668010000000000000001177ff0c57e16840df040f15088dc2f81fe391c3923bec73e23a9662efc9c229c6a0e555f610117565b7f0dc149f0000000000000000000000000000000000000000000000000000000005f5260045ffd5b303b15915081610232575b50155f6100d2565b60019150145f61022a565b50600181106100ca565b5f80fd5b3461024757602036600319011261024757610264610822565b5f5490336001600160a01b038316036102a0576001600160a01b0373ffffffffffffffffffffffffffffffffffffffff1991169116175f555f80f35b7f596dcdb8000000000000000000000000000000000000000000000000000000005f5260045ffd5b34610247575f3660031901126102475760206001600160a01b035f5416604051908152f35b34610247575f3660031901126102475761034c60405161030e60408261077c565b600581527f322e302e300000000000000000000000000000000000000000000000000000006020820152604051918291602083526020830190610838565b0390f35b34610247575f366003190112610247576001600160a01b037f00000000000000000000000000000000000000000000000000000000000000001630036103ba5760206040517f360894a13ba1a3210667c828492db98dca3e2076cc3735a920a3ca505d382bbc8152f35b7fe07c8dba000000000000000000000000000000000000000000000000000000005f5260045ffd5b6040366003190112610247576103f6610822565b60243567ffffffffffffffff81116102475736602382011215610247576104279036906024816004013591016107ce565b906001600160a01b035f541633036102a0576001600160a01b037f000000000000000000000000000000000000000000000000000000000000000016803014908115610625575b506103ba576001600160a01b038116916040517f52d1902d000000000000000000000000000000000000000000000000000000008152602081600481875afa5f91816105f1575b506104e657837f0c760937000000000000000000000000000000000000000000000000000000005f5260045260245ffd5b807f360894a13ba1a3210667c828492db98dca3e2076cc3735a920a3ca505d382bbc8592036105c65750827f360894a13ba1a3210667c828492db98dca3e2076cc3735a920a3ca505d382bbc557fbc7cd75a20ee27fd9adebab32041f755214dbc6bffa90cc0225b39da2e5c2d3b5f80a280518061056057005b5f926020849301905af43d156105c1573d61057a816107b2565b90610588604051928361077c565b81525f60203d92013e5b1561059957005b7f736436ba000000000000000000000000000000000000000000000000000000005f5260045ffd5b610592565b7faa1d49a4000000000000000000000000000000000000000000000000000000005f5260045260245ffd5b9091506020813d60201161061d575b8161060d6020938361077c565b81010312610247575190856104b5565b3d9150610600565b90506001600160a01b037f360894a13ba1a3210667c828492db98dca3e2076cc3735a920a3ca505d382bbc541614158361046e565b346102475760603660031901126102475760043567ffffffffffffffff81116102475761068b903690600401610804565b60243567ffffffffffffffff8111610247576106ab903690600401610804565b9060443567ffffffffffffffff8111610247576106cc903690600401610804565b600154915f19831461074e577ef7cd7255d1073b4e136dd477c38ea0020c051ab17110cc5bfab0c840ff992461073660209561074387879560018701600155604051918183925191829101835e81015f815203902095604051938493604085526040850190610838565b908382038a850152610838565b0390a3604051908152f35b634e487b7160e01b5f52601160045260245ffd5b34610247575f366003190112610247576020906001548152f35b90601f8019910116810190811067ffffffffffffffff82111761079e57604052565b634e487b7160e01b5f52604160045260245ffd5b67ffffffffffffffff811161079e57601f01601f191660200190565b9291926107da826107b2565b916107e8604051938461077c565b829481845281830111610247578281602093845f960137010152565b9080601f830112156102475781602061081f933591016107ce565b90565b600435906001600160a01b038216820361024757565b805180835260209291819084018484015e5f828201840152601f01601f191601019056fea2646970667358221220bb75c0a527977368a7b8fd2e1e5a73e20d804eb35645fe757271a9acd08c759764736f6c634300081e0033f0c57e16840df040f15088dc2f81fe391c3923bec73e23a9662efc9c229c6a0e",
  "devdoc": {
    "errors": {
      "AlreadyInitialized()": [
        {
          "details": "The contract is already initialized."
        }
      ],
      "NotInitializing()": [
        {
          "details": "The contract is not initializing."
        }
      ]
    },
    "events": {
      "DisputeTemplate(uint256,string,string,string)": {
        "params": {
          "_templateData": "The template data.",
          "_templateDataMappings": "The data mappings.",
          "_templateId": "The identifier of the dispute template.",
          "_templateTag": "An optional tag for the dispute template, such as \"registration\" or \"removal\"."
        }
      },
      "Initialized(uint64)": {
        "details": "Triggered when the contract has been initialized or reinitialized."
      },
      "Upgraded(address)": {
        "params": {
          "newImplementation": "Address of the new implementation the proxy is now forwarding calls to."
        }
      }
    },
    "kind": "dev",
    "methods": {
      "changeOwner(address)": {
        "params": {
          "_owner": "The new owner."
        }
      },
      "constructor": {
        "custom:oz-upgrades-unsafe-allow": "constructor"
      },
      "initialize(address)": {
        "params": {
          "_owner": "Owner of the contract."
        }
      },
      "proxiableUUID()": {
        "details": "IMPORTANT: A proxy pointing at a proxiable contract should not be considered proxiable itself, because this risks bricking a proxy that upgrades to it, by delegating to itself until out of gas. Thus it is critical that this function revert if invoked through a proxy. This is guaranteed by the if statement."
      },
      "setDisputeTemplate(string,string,string)": {
        "params": {
          "_templateData": "The template data.",
          "_templateDataMappings": "The data mappings for the template.",
          "_templateTag": "An optional tag for the dispute template, such as \"registration\" or \"removal\"."
        },
        "returns": {
          "templateId": "The identifier of the dispute template."
        }
      },
      "upgradeToAndCall(address,bytes)": {
        "details": "Reverts if the execution is not performed via delegatecall or the execution context is not of a proxy with an ERC1967-compliant implementation pointing to self.",
        "params": {
          "data": "Data used in a delegate call to `newImplementation` if non-empty. This will typically be an encoded function call, and allows initializing the storage of the proxy like a Solidity constructor.",
          "newImplementation": "Address of the new implementation contract."
        }
      }
    },
    "stateVariables": {
      "version": {
        "return": "Version string.",
        "returns": {
          "_0": "Version string."
        }
      }
    },
    "title": "Dispute Template Registry",
    "version": 1
  },
  "userdoc": {
    "errors": {
      "FailedDelegateCall()": [
        {
          "notice": "Failed Delegated call"
        }
      ],
      "InvalidImplementation(address)": [
        {
          "notice": "The `implementation` is not UUPS-compliant"
        }
      ],
      "UUPSUnauthorizedCallContext()": [
        {
          "notice": "The call is from an unauthorized context."
        }
      ],
      "UUPSUnsupportedProxiableUUID(bytes32)": [
        {
          "notice": "The storage `slot` is unsupported as a UUID."
        }
      ]
    },
    "events": {
      "DisputeTemplate(uint256,string,string,string)": {
        "notice": "To be emitted when a new dispute template is created."
      },
      "Upgraded(address)": {
        "notice": "Emitted when the `implementation` has been successfully upgraded."
      }
    },
    "kind": "user",
    "methods": {
      "changeOwner(address)": {
        "notice": "Changes the owner of the contract."
      },
      "initialize(address)": {
        "notice": "Initializer"
      },
      "owner()": {
        "notice": "The owner of the contract."
      },
      "proxiableUUID()": {
        "notice": "Implementation of the ERC1822 `proxiableUUID` function. This returns the storage slot used by the implementation. It is used to validate the implementation's compatibility when performing an upgrade."
      },
      "setDisputeTemplate(string,string,string)": {
        "notice": "Registers a new dispute template."
      },
      "templates()": {
        "notice": "The number of templates."
      },
      "upgradeToAndCall(address,bytes)": {
        "notice": "Upgrade mechanism including access control and UUPS-compliance."
      },
      "version()": {
        "notice": "Returns the version of the implementation."
      }
    },
    "notice": "A contract to maintain a registry of dispute templates.",
    "version": 1
  },
  "storageLayout": {
    "storage": [
      {
        "astId": 11041,
        "contract": "src/arbitration/DisputeTemplateRegistry.sol:DisputeTemplateRegistry",
        "label": "owner",
        "offset": 0,
        "slot": "0",
        "type": "t_address"
      },
      {
        "astId": 11044,
        "contract": "src/arbitration/DisputeTemplateRegistry.sol:DisputeTemplateRegistry",
        "label": "templates",
        "offset": 0,
        "slot": "1",
        "type": "t_uint256"
      }
    ],
    "types": {
      "t_address": {
        "encoding": "inplace",
        "label": "address",
        "numberOfBytes": "20"
      },
      "t_uint256": {
        "encoding": "inplace",
        "label": "uint256",
        "numberOfBytes": "32"
      }
    }
  }
}