{
  "address": "0x56b95cD6fd660c6E631c65C0d0F62B33A093D9a4",
  "abi": [
    {
      "inputs": [],
      "stateMutability": "nonpayable",
      "type": "constructor"
    },
    {
      "inputs": [],
      "name": "AlreadyInitialized",
      "type": "error"
    },
    {
      "inputs": [],
      "name": "FailedDelegateCall",
      "type": "error"
    },
    {
      "inputs": [
        {
          "internalType": "address",
          "name": "implementation",
          "type": "address"
        }
      ],
      "name": "InvalidImplementation",
      "type": "error"
    },
    {
      "inputs": [],
      "name": "NotInitializing",
      "type": "error"
    },
    {
      "inputs": [],
      "name": "UUPSUnauthorizedCallContext",
      "type": "error"
    },
    {
      "inputs": [
        {
          "internalType": "bytes32",
          "name": "slot",
          "type": "bytes32"
        }
      ],
      "name": "UUPSUnsupportedProxiableUUID",
      "type": "error"
    },
    {
      "anonymous": false,
      "inputs": [
        {
          "indexed": true,
          "internalType": "uint256",
          "name": "_coreDisputeID",
          "type": "uint256"
        },
        {
          "indexed": true,
          "internalType": "uint256",
          "name": "_coreRoundID",
          "type": "uint256"
        },
        {
          "indexed": true,
          "internalType": "uint256",
          "name": "_choice",
          "type": "uint256"
        }
      ],
      "name": "ChoiceFunded",
      "type": "event"
    },
    {
      "anonymous": false,
      "inputs": [
        {
          "indexed": true,
          "internalType": "uint256",
          "name": "_coreDisputeID",
          "type": "uint256"
        },
        {
          "indexed": true,
          "internalType": "address",
          "name": "_juror",
          "type": "address"
        },
        {
          "indexed": false,
          "internalType": "uint256[]",
          "name": "_voteIDs",
          "type": "uint256[]"
        },
        {
          "indexed": false,
          "internalType": "bytes32",
          "name": "_commit",
          "type": "bytes32"
        }
      ],
      "name": "CommitCast",
      "type": "event"
    },
    {
      "anonymous": false,
      "inputs": [
        {
          "indexed": true,
          "internalType": "bytes32",
          "name": "_commit",
          "type": "bytes32"
        },
        {
          "indexed": false,
          "internalType": "bytes32",
          "name": "_identity",
          "type": "bytes32"
        }
      ],
      "name": "CommitCastShutter",
      "type": "event"
    },
    {
      "anonymous": false,
      "inputs": [
        {
          "indexed": true,
          "internalType": "uint256",
          "name": "_coreDisputeID",
          "type": "uint256"
        },
        {
          "indexed": true,
          "internalType": "uint256",
          "name": "_coreRoundID",
          "type": "uint256"
        },
        {
          "indexed": false,
          "internalType": "uint256",
          "name": "_choice",
          "type": "uint256"
        },
        {
          "indexed": true,
          "internalType": "address",
          "name": "_contributor",
          "type": "address"
        },
        {
          "indexed": false,
          "internalType": "uint256",
          "name": "_amount",
          "type": "uint256"
        }
      ],
      "name": "Contribution",
      "type": "event"
    },
    {
      "anonymous": false,
      "inputs": [
        {
          "indexed": true,
          "internalType": "uint256",
          "name": "_coreDisputeID",
          "type": "uint256"
        },
        {
          "indexed": false,
          "internalType": "uint256",
          "name": "_numberOfChoices",
          "type": "uint256"
        },
        {
          "indexed": false,
          "internalType": "bytes",
          "name": "_extraData",
          "type": "bytes"
        }
      ],
      "name": "DisputeCreation",
      "type": "event"
    },
    {
      "anonymous": false,
      "inputs": [
        {
          "indexed": false,
          "internalType": "uint64",
          "name": "version",
          "type": "uint64"
        }
      ],
      "name": "Initialized",
      "type": "event"
    },
    {
      "anonymous": false,
      "inputs": [
        {
          "indexed": true,
          "internalType": "address",
          "name": "newImplementation",
          "type": "address"
        }
      ],
      "name": "Upgraded",
      "type": "event"
    },
    {
      "anonymous": false,
      "inputs": [
        {
          "indexed": true,
          "internalType": "uint256",
          "name": "_coreDisputeID",
          "type": "uint256"
        },
        {
          "indexed": true,
          "internalType": "address",
          "name": "_juror",
          "type": "address"
        },
        {
          "indexed": false,
          "internalType": "uint256[]",
          "name": "_voteIDs",
          "type": "uint256[]"
        },
        {
          "indexed": true,
          "internalType": "uint256",
          "name": "_choice",
          "type": "uint256"
        },
        {
          "indexed": false,
          "internalType": "string",
          "name": "_justification",
          "type": "string"
        }
      ],
      "name": "VoteCast",
      "type": "event"
    },
    {
      "anonymous": false,
      "inputs": [
        {
          "indexed": true,
          "internalType": "uint256",
          "name": "_coreDisputeID",
          "type": "uint256"
        },
        {
          "indexed": true,
          "internalType": "uint256",
          "name": "_coreRoundID",
          "type": "uint256"
        },
        {
          "indexed": false,
          "internalType": "uint256",
          "name": "_choice",
          "type": "uint256"
        },
        {
          "indexed": true,
          "internalType": "address",
          "name": "_contributor",
          "type": "address"
        },
        {
          "indexed": false,
          "internalType": "uint256",
          "name": "_amount",
          "type": "uint256"
        }
      ],
      "name": "Withdrawal",
      "type": "event"
    },
    {
      "inputs": [],
      "name": "LOSER_APPEAL_PERIOD_MULTIPLIER",
      "outputs": [
        {
          "internalType": "uint256",
          "name": "",
          "type": "uint256"
        }
      ],
      "stateMutability": "view",
      "type": "function"
    },
    {
      "inputs": [],
      "name": "LOSER_STAKE_MULTIPLIER",
      "outputs": [
        {
          "internalType": "uint256",
          "name": "",
          "type": "uint256"
        }
      ],
      "stateMutability": "view",
      "type": "function"
    },
    {
      "inputs": [],
      "name": "ONE_BASIS_POINT",
      "outputs": [
        {
          "internalType": "uint256",
          "name": "",
          "type": "uint256"
        }
      ],
      "stateMutability": "view",
      "type": "function"
    },
    {
      "inputs": [],
      "name": "WINNER_STAKE_MULTIPLIER",
      "outputs": [
        {
          "internalType": "uint256",
          "name": "",
          "type": "uint256"
        }
      ],
      "stateMutability": "view",
      "type": "function"
    },
    {
      "inputs": [
        {
          "internalType": "uint256",
          "name": "_coreDisputeID",
          "type": "uint256"
        }
      ],
      "name": "areCommitsAllCast",
      "outputs": [
        {
          "internalType": "bool",
          "name": "",
          "type": "bool"
        }
      ],
      "stateMutability": "view",
      "type": "function"
    },
    {
      "inputs": [
        {
          "internalType": "uint256",
          "name": "_coreDisputeID",
          "type": "uint256"
        }
      ],
      "name": "areVotesAllCast",
      "outputs": [
        {
          "internalType": "bool",
          "name": "",
          "type": "bool"
        }
      ],
      "stateMutability": "view",
      "type": "function"
    },
    {
      "inputs": [
        {
          "internalType": "uint256",
          "name": "_coreDisputeID",
          "type": "uint256"
        },
        {
          "internalType": "uint256[]",
          "name": "_voteIDs",
          "type": "uint256[]"
        },
        {
          "internalType": "bytes32",
          "name": "_commit",
          "type": "bytes32"
        }
      ],
      "name": "castCommit",
      "outputs": [],
      "stateMutability": "nonpayable",
      "type": "function"
    },
    {
      "inputs": [
        {
          "internalType": "uint256",
          "name": "_coreDisputeID",
          "type": "uint256"
        },
        {
          "internalType": "uint256[]",
          "name": "_voteIDs",
          "type": "uint256[]"
        },
        {
          "internalType": "bytes32",
          "name": "_commit",
          "type": "bytes32"
        },
        {
          "internalType": "bytes32",
          "name": "_identity",
          "type": "bytes32"
        }
      ],
      "name": "castCommitShutter",
      "outputs": [],
      "stateMutability": "nonpayable",
      "type": "function"
    },
    {
      "inputs": [
        {
          "internalType": "uint256",
          "name": "_coreDisputeID",
          "type": "uint256"
        },
        {
          "internalType": "uint256[]",
          "name": "_voteIDs",
          "type": "uint256[]"
        },
        {
          "internalType": "uint256",
          "name": "_choice",
          "type": "uint256"
        },
        {
          "internalType": "uint256",
          "name": "_salt",
          "type": "uint256"
        },
        {
          "internalType": "string",
          "name": "_justification",
          "type": "string"
        }
      ],
      "name": "castVote",
      "outputs": [],
      "stateMutability": "nonpayable",
      "type": "function"
    },
    {
      "inputs": [
        {
          "internalType": "address",
          "name": "_core",
          "type": "address"
        }
      ],
      "name": "changeCore",
      "outputs": [],
      "stateMutability": "nonpayable",
      "type": "function"
    },
    {
      "inputs": [
        {
          "internalType": "address payable",
          "name": "_governor",
          "type": "address"
        }
      ],
      "name": "changeGovernor",
      "outputs": [],
      "stateMutability": "nonpayable",
      "type": "function"
    },
    {
      "inputs": [],
      "name": "core",
      "outputs": [
        {
          "internalType": "contract KlerosCore",
          "name": "",
          "type": "address"
        }
      ],
      "stateMutability": "view",
      "type": "function"
    },
    {
      "inputs": [
        {
          "internalType": "uint256",
          "name": "",
          "type": "uint256"
        }
      ],
      "name": "coreDisputeIDToLocal",
      "outputs": [
        {
          "internalType": "uint256",
          "name": "",
          "type": "uint256"
        }
      ],
      "stateMutability": "view",
      "type": "function"
    },
    {
      "inputs": [
        {
          "internalType": "uint256",
          "name": "_coreDisputeID",
          "type": "uint256"
        },
        {
          "internalType": "uint256",
          "name": "_numberOfChoices",
          "type": "uint256"
        },
        {
          "internalType": "bytes",
          "name": "_extraData",
          "type": "bytes"
        },
        {
          "internalType": "uint256",
          "name": "_nbVotes",
          "type": "uint256"
        }
      ],
      "name": "createDispute",
      "outputs": [],
      "stateMutability": "nonpayable",
      "type": "function"
    },
    {
      "inputs": [
        {
          "internalType": "uint256",
          "name": "_coreDisputeID",
          "type": "uint256"
        }
      ],
      "name": "currentRuling",
      "outputs": [
        {
          "internalType": "uint256",
          "name": "ruling",
          "type": "uint256"
        },
        {
          "internalType": "bool",
          "name": "tied",
          "type": "bool"
        },
        {
          "internalType": "bool",
          "name": "overridden",
          "type": "bool"
        }
      ],
      "stateMutability": "view",
      "type": "function"
    },
    {
      "inputs": [
        {
          "internalType": "uint256",
          "name": "",
          "type": "uint256"
        }
      ],
      "name": "disputes",
      "outputs": [
        {
          "internalType": "uint256",
          "name": "numberOfChoices",
          "type": "uint256"
        },
        {
          "internalType": "bool",
          "name": "jumped",
          "type": "bool"
        },
        {
          "internalType": "bytes",
          "name": "extraData",
          "type": "bytes"
        }
      ],
      "stateMutability": "view",
      "type": "function"
    },
    {
      "inputs": [
        {
          "internalType": "uint256",
          "name": "_coreDisputeID",
          "type": "uint256"
        },
        {
          "internalType": "uint256",
          "name": "_nonce",
          "type": "uint256"
        }
      ],
      "name": "draw",
      "outputs": [
        {
          "internalType": "address",
          "name": "drawnAddress",
          "type": "address"
        }
      ],
      "stateMutability": "nonpayable",
      "type": "function"
    },
    {
      "inputs": [
        {
          "internalType": "address",
          "name": "_destination",
          "type": "address"
        },
        {
          "internalType": "uint256",
          "name": "_amount",
          "type": "uint256"
        },
        {
          "internalType": "bytes",
          "name": "_data",
          "type": "bytes"
        }
      ],
      "name": "executeGovernorProposal",
      "outputs": [],
      "stateMutability": "nonpayable",
      "type": "function"
    },
    {
      "inputs": [
        {
          "internalType": "uint256",
          "name": "_coreDisputeID",
          "type": "uint256"
        },
        {
          "internalType": "uint256",
          "name": "_choice",
          "type": "uint256"
        }
      ],
      "name": "fundAppeal",
      "outputs": [],
      "stateMutability": "payable",
      "type": "function"
    },
    {
      "inputs": [
        {
          "internalType": "uint256",
          "name": "_coreDisputeID",
          "type": "uint256"
        },
        {
          "internalType": "uint256",
          "name": "_coreRoundID",
          "type": "uint256"
        }
      ],
      "name": "getCoherentCount",
      "outputs": [
        {
          "internalType": "uint256",
          "name": "",
          "type": "uint256"
        }
      ],
      "stateMutability": "view",
      "type": "function"
    },
    {
      "inputs": [
        {
          "internalType": "uint256",
          "name": "_coreDisputeID",
          "type": "uint256"
        },
        {
          "internalType": "uint256",
          "name": "_coreRoundID",
          "type": "uint256"
        },
        {
          "internalType": "uint256",
          "name": "_voteID",
          "type": "uint256"
        },
        {
          "internalType": "uint256",
          "name": "",
          "type": "uint256"
        },
        {
          "internalType": "uint256",
          "name": "",
          "type": "uint256"
        }
      ],
      "name": "getDegreeOfCoherence",
      "outputs": [
        {
          "internalType": "uint256",
          "name": "",
          "type": "uint256"
        }
      ],
      "stateMutability": "view",
      "type": "function"
    },
    {
      "inputs": [
        {
          "internalType": "uint256",
          "name": "_coreDisputeID",
          "type": "uint256"
        }
      ],
      "name": "getFundedChoices",
      "outputs": [
        {
          "internalType": "uint256[]",
          "name": "fundedChoices",
          "type": "uint256[]"
        }
      ],
      "stateMutability": "view",
      "type": "function"
    },
    {
      "inputs": [
        {
          "internalType": "uint256",
          "name": "_coreDisputeID",
          "type": "uint256"
        },
        {
          "internalType": "uint256",
          "name": "_coreRoundID",
          "type": "uint256"
        },
        {
          "internalType": "uint256",
          "name": "_choice",
          "type": "uint256"
        }
      ],
      "name": "getRoundInfo",
      "outputs": [
        {
          "internalType": "uint256",
          "name": "winningChoice",
          "type": "uint256"
        },
        {
          "internalType": "bool",
          "name": "tied",
          "type": "bool"
        },
        {
          "internalType": "uint256",
          "name": "totalVoted",
          "type": "uint256"
        },
        {
          "internalType": "uint256",
          "name": "totalCommited",
          "type": "uint256"
        },
        {
          "internalType": "uint256",
          "name": "nbVoters",
          "type": "uint256"
        },
        {
          "internalType": "uint256",
          "name": "choiceCount",
          "type": "uint256"
        }
      ],
      "stateMutability": "view",
      "type": "function"
    },
    {
      "inputs": [
        {
          "internalType": "uint256",
          "name": "_coreDisputeID",
          "type": "uint256"
        },
        {
          "internalType": "uint256",
          "name": "_coreRoundID",
          "type": "uint256"
        },
        {
          "internalType": "uint256",
          "name": "_voteID",
          "type": "uint256"
        }
      ],
      "name": "getVoteInfo",
      "outputs": [
        {
          "internalType": "address",
          "name": "account",
          "type": "address"
        },
        {
          "internalType": "bytes32",
          "name": "commit",
          "type": "bytes32"
        },
        {
          "internalType": "uint256",
          "name": "choice",
          "type": "uint256"
        },
        {
          "internalType": "bool",
          "name": "voted",
          "type": "bool"
        }
      ],
      "stateMutability": "view",
      "type": "function"
    },
    {
      "inputs": [],
      "name": "governor",
      "outputs": [
        {
          "internalType": "address",
          "name": "",
          "type": "address"
        }
      ],
      "stateMutability": "view",
      "type": "function"
    },
    {
      "inputs": [
        {
          "internalType": "uint256",
          "name": "_choice",
          "type": "uint256"
        },
        {
          "internalType": "uint256",
          "name": "_salt",
          "type": "uint256"
        },
        {
          "internalType": "string",
          "name": "_justification",
          "type": "string"
        }
      ],
      "name": "hashVote",
      "outputs": [
        {
          "internalType": "bytes32",
          "name": "",
          "type": "bytes32"
        }
      ],
      "stateMutability": "pure",
      "type": "function"
    },
    {
      "inputs": [
        {
          "internalType": "address",
          "name": "_governor",
          "type": "address"
        },
        {
          "internalType": "contract KlerosCore",
          "name": "_core",
          "type": "address"
        }
      ],
      "name": "initialize",
      "outputs": [],
      "stateMutability": "nonpayable",
      "type": "function"
    },
    {
      "inputs": [
        {
          "internalType": "uint256",
          "name": "_coreDisputeID",
          "type": "uint256"
        }
      ],
      "name": "isAppealFunded",
      "outputs": [
        {
          "internalType": "bool",
          "name": "",
          "type": "bool"
        }
      ],
      "stateMutability": "view",
      "type": "function"
    },
    {
      "inputs": [
        {
          "internalType": "uint256",
          "name": "_coreDisputeID",
          "type": "uint256"
        },
        {
          "internalType": "uint256",
          "name": "_coreRoundID",
          "type": "uint256"
        },
        {
          "internalType": "uint256",
          "name": "_voteID",
          "type": "uint256"
        }
      ],
      "name": "isVoteActive",
      "outputs": [
        {
          "internalType": "bool",
          "name": "",
          "type": "bool"
        }
      ],
      "stateMutability": "view",
      "type": "function"
    },
    {
      "inputs": [],
      "name": "proxiableUUID",
      "outputs": [
        {
          "internalType": "bytes32",
          "name": "",
          "type": "bytes32"
        }
      ],
      "stateMutability": "view",
      "type": "function"
    },
    {
      "inputs": [],
      "name": "singleDrawPerJuror",
      "outputs": [
        {
          "internalType": "bool",
          "name": "",
          "type": "bool"
        }
      ],
      "stateMutability": "view",
      "type": "function"
    },
    {
      "inputs": [
        {
          "internalType": "address",
          "name": "newImplementation",
          "type": "address"
        },
        {
          "internalType": "bytes",
          "name": "data",
          "type": "bytes"
        }
      ],
      "name": "upgradeToAndCall",
      "outputs": [],
      "stateMutability": "payable",
      "type": "function"
    },
    {
      "inputs": [],
      "name": "version",
      "outputs": [
        {
          "internalType": "string",
          "name": "",
          "type": "string"
        }
      ],
      "stateMutability": "view",
      "type": "function"
    },
    {
      "inputs": [
        {
          "internalType": "uint256",
          "name": "_coreDisputeID",
          "type": "uint256"
        },
        {
          "internalType": "address payable",
          "name": "_beneficiary",
          "type": "address"
        },
        {
          "internalType": "uint256",
          "name": "_coreRoundID",
          "type": "uint256"
        },
        {
          "internalType": "uint256",
          "name": "_choice",
          "type": "uint256"
        }
      ],
      "name": "withdrawFeesAndRewards",
      "outputs": [
        {
          "internalType": "uint256",
          "name": "amount",
          "type": "uint256"
        }
      ],
      "stateMutability": "nonpayable",
      "type": "function"
    }
  ],
  "transactionHash": "0x781be3b0e5e768d27f0f0b524e966e9c7586565987c27424cad63642a879d645",
  "args": [],
  "numDeployments": 1,
  "solcInputHash": "82d7e5c337ef3643567db1fed5df6b5b",
  "bytecode": "0x60a0604052306080523480156200001557600080fd5b506200002062000026565b620000d9565b7ff0c57e16840df040f15088dc2f81fe391c3923bec73e23a9662efc9c229c6a0e805468010000000000000000900460ff1615620000765760405162dc149f60e41b815260040160405180910390fd5b80546001600160401b0390811614620000d65780546001600160401b0319166001600160401b0390811782556040519081527fc7f505b2f371ae2175ee4913f4499e1f2633a7b5936321eed1cdaeb6115181d29060200160405180910390a15b50565b60805161441462000103600039600081816118560152818161187f0152611a7701526144146000f3fe6080604052600436106101b95760003560e01c8063675926f6116100ed578063b34bfaa811610090578063b34bfaa8146105a3578063b6ede540146105b9578063ba66fde7146105d9578063be467604146105f9578063d2b8035a1461060f578063da3beb8c1461062f578063e349ad3014610501578063e4c0aaf41461064f578063f2f4eb261461066f57600080fd5b8063675926f61461045457806369f3f041146104745780636d4cd8ea146104c1578063751accd0146104e1578063796490f9146105015780637c04034e146105175780638e42646014610537578063a7cc08fe1461055757600080fd5b8063362c347911610160578063362c34791461031f578063485cc9551461033f5780634b2f0ea01461035f5780634f1ef2861461037257806352d1902d1461038557806354fd4d501461039a578063564a565d146103d85780635c92e2f61461040757806365540b961461042757600080fd5b80630855bbe9146101be5780630baa64d1146101f35780630c340a24146102135780631200aabc1461024b5780631c3db16d146102865780631cc3423a146102c35780632621b9a2146102e35780632c535e54146102fd575b600080fd5b3480156101ca57600080fd5b506101de6101d9366004613609565b61068f565b60405190151581526020015b60405180910390f35b3480156101ff57600080fd5b506101de61020e366004613609565b610757565b34801561021f57600080fd5b50600054610233906001600160a01b031681565b6040516001600160a01b0390911681526020016101ea565b34801561025757600080fd5b50610278610266366004613609565b60036020526000908152604090205481565b6040519081526020016101ea565b34801561029257600080fd5b506102a66102a1366004613609565b6107ce565b6040805193845291151560208401521515908201526060016101ea565b3480156102cf57600080fd5b506102786102de366004613700565b61093c565b3480156102ef57600080fd5b506004546101de9060ff1681565b34801561030957600080fd5b5061031d61031836600461379a565b610979565b005b34801561032b57600080fd5b5061027861033a36600461380c565b610a77565b34801561034b57600080fd5b5061031d61035a366004613849565b610efd565b61031d61036d366004613882565b610fdb565b61031d6103803660046138a4565b611842565b34801561039157600080fd5b50610278611a6a565b3480156103a657600080fd5b506103cb604051806040016040528060058152602001640302e392e360dc1b81525081565b6040516101ea9190613943565b3480156103e457600080fd5b506103f86103f3366004613609565b611ac8565b6040516101ea9392919061395d565b34801561041357600080fd5b5061031d61042236600461397e565b611b8e565b34801561043357600080fd5b50610447610442366004613609565b611e93565b6040516101ea91906139d0565b34801561046057600080fd5b5061027861046f366004613a14565b611f57565b34801561048057600080fd5b5061049461048f366004613a4f565b61209a565b604080519687529415156020870152938501929092526060840152608083015260a082015260c0016101ea565b3480156104cd57600080fd5b506101de6104dc366004613609565b612152565b3480156104ed57600080fd5b5061031d6104fc366004613a7b565b6122d5565b34801561050d57600080fd5b5061027861271081565b34801561052357600080fd5b5061031d610532366004613abd565b6123a1565b34801561054357600080fd5b5061031d610552366004613b41565b612a64565b34801561056357600080fd5b50610577610572366004613a4f565b612ab0565b604080516001600160a01b039095168552602085019390935291830152151560608201526080016101ea565b3480156105af57600080fd5b50610278614e2081565b3480156105c557600080fd5b5061031d6105d4366004613b5e565b612b76565b3480156105e557600080fd5b506101de6105f4366004613a4f565b612d4b565b34801561060557600080fd5b5061027861138881565b34801561061b57600080fd5b5061023361062a366004613882565b612de6565b34801561063b57600080fd5b5061027861064a366004613882565b613100565b34801561065b57600080fd5b5061031d61066a366004613b41565b613253565b34801561067b57600080fd5b50600154610233906001600160a01b031681565b60015460405163afe15cfb60e01b815260048101839052600091829182916001600160a01b03169063afe15cfb906024016040805180830381865afa1580156106dc573d6000803e3d6000fd5b505050506040513d601f19601f820116820180604052508101906107009190613be5565b91509150600061070f85611e93565b90508051600014801561074e575061271061138861072d8585613c1f565b6107379190613c32565b6107419190613c49565b61074b8442613c1f565b10155b95945050505050565b60008181526003602052604081205460028054839290811061077b5761077b613c6b565b6000918252602082206005909102018054909250829061079d90600190613c1f565b815481106107ad576107ad613c6b565b60009182526020909120600d90910201805460059091015414949350505050565b60008060008060026003600087815260200190815260200160002054815481106107fa576107fa613c6b565b6000918252602082206005909102018054909250829061081c90600190613c1f565b8154811061082c5761082c613c6b565b60009182526020909120600d90910201600381015460ff16945090508361085757806001015461085a565b60005b60015460405163564a565d60e01b8152600481018990529196506000916001600160a01b039091169063564a565d9060240160a060405180830381865afa1580156108a9573d6000803e3d6000fd5b505050506040513d601f19601f820116820180604052508101906108cd9190613cad565b50909350600492506108dd915050565b8160048111156108ef576108ef613d14565b036109325760006108ff88611e93565b90508051600103610930578060008151811061091d5761091d613c6b565b6020026020010151965060009550600194505b505b5050509193909250565b8051602091820120604080518084019590955284810193909352606080850191909152825180850390910181526080909301909152815191012090565b60008581526003602052604090205460028054879290811061099d5761099d613c6b565b600091825260209091206002600590920201015460ff16156109da5760405162461bcd60e51b81526004016109d190613d2a565b60405180910390fd5b604051632e49717b60e11b81523090635c92e2f690610a03908990899089908990600401613d93565b600060405180830381600087803b158015610a1d57600080fd5b505af1158015610a31573d6000803e3d6000fd5b50505050827f3c1878f78414f58910bc05ea442313ff44d18eb5935c60352518bb2da0eb881283604051610a6791815260200190565b60405180910390a2505050505050565b60015460405163564a565d60e01b81526004810186905260009182916001600160a01b039091169063564a565d9060240160a060405180830381865afa158015610ac5573d6000803e3d6000fd5b505050506040513d601f19601f82011682018060405250810190610ae99190613cad565b50935050505080610b3c5760405162461bcd60e51b815260206004820152601b60248201527f446973707574652073686f756c64206265207265736f6c7665642e000000000060448201526064016109d1565b600160009054906101000a90046001600160a01b03166001600160a01b0316635c975abb6040518163ffffffff1660e01b8152600401602060405180830381865afa158015610b8f573d6000803e3d6000fd5b505050506040513d601f19601f82011682018060405250810190610bb39190613dbe565b15610bf15760405162461bcd60e51b815260206004820152600e60248201526d10dbdc99481a5cc81c185d5cd95960921b60448201526064016109d1565b600086815260036020526040812054600280549091908110610c1557610c15613c6b565b60009182526020808320888452600360059093020191820190526040822054815491935083918110610c4957610c49613c6b565b600091825260208220600154604051631c3db16d60e01b8152600481018d9052600d9390930290910193506001600160a01b031690631c3db16d90602401606060405180830381865afa158015610ca4573d6000803e3d6000fd5b505050506040513d601f19601f82011682018060405250810190610cc89190613dd9565b5050600087815260078401602052604090205490915060ff16610d12576001600160a01b038816600090815260088301602090815260408083208984529091529020549450610e57565b808603610d87576000868152600683016020526040902054610d35576000610d80565b600086815260068301602090815260408083205460098601546001600160a01b038d1685526008870184528285208b8652909352922054610d769190613c32565b610d809190613c49565b9450610e57565b600081815260078301602052604090205460ff16610e575781600601600083600a01600181548110610dbb57610dbb613c6b565b906000526020600020015481526020019081526020016000205482600601600084600a01600081548110610df157610df1613c6b565b9060005260206000200154815260200190815260200160002054610e159190613e15565b60098301546001600160a01b038a16600090815260088501602090815260408083208b8452909152902054610e4a9190613c32565b610e549190613c49565b94505b6001600160a01b038816600090815260088301602090815260408083208984529091528120558415610ef1576040516001600160a01b0389169086156108fc029087906000818181858888f15050604080518a8152602081018a90526001600160a01b038d1694508b93508d92507f54b3cab3cb5c4aca3209db1151caff092e878011202e43a36782d4ebe0b963ae910160405180910390a45b50505050949350505050565b7ff0c57e16840df040f15088dc2f81fe391c3923bec73e23a9662efc9c229c6a0e805460019190600160401b900460ff1680610f46575080546001600160401b03808416911610155b15610f635760405162dc149f60e41b815260040160405180910390fd5b805468ffffffffffffffffff19166001600160401b03831617600160401b178155610f8e848461329f565b805460ff60401b191681556040516001600160401b03831681527fc7f505b2f371ae2175ee4913f4499e1f2633a7b5936321eed1cdaeb6115181d29060200160405180910390a150505050565b600082815260036020526040902054600280548492908110610fff57610fff613c6b565b600091825260209091206002600590920201015460ff16156110335760405162461bcd60e51b81526004016109d190613d2a565b60008381526003602052604081205460028054909190811061105757611057613c6b565b9060005260206000209060050201905080600101548311156110bb5760405162461bcd60e51b815260206004820181905260248201527f5468657265206973206e6f20737563682072756c696e6720746f2066756e642e60448201526064016109d1565b60015460405163afe15cfb60e01b81526004810186905260009182916001600160a01b039091169063afe15cfb906024016040805180830381865afa158015611108573d6000803e3d6000fd5b505050506040513d601f19601f8201168201806040525081019061112c9190613be5565b9150915081421015801561113f57508042105b6111845760405162461bcd60e51b815260206004820152601660248201527520b83832b0b6103832b934b7b21034b99037bb32b91760511b60448201526064016109d1565b604051631c3db16d60e01b81526004810187905260009081903090631c3db16d90602401606060405180830381865afa1580156111c5573d6000803e3d6000fd5b505050506040513d601f19601f820116820180604052508101906111e99190613dd9565b505090508681036111fe57612710915061127f565b61271061138861120e8686613c1f565b6112189190613c32565b6112229190613c49565b61122c8542613c1f565b106112795760405162461bcd60e51b815260206004820152601f60248201527f41707065616c20706572696f64206973206f76657220666f72206c6f7365720060448201526064016109d1565b614e2091505b8454600090869061129290600190613c1f565b815481106112a2576112a2613c6b565b60009182526020822060018054604051637e37c78b60e11b8152600481018f9052600d949094029092019450916001600160a01b039091169063fc6f8f1690602401602060405180830381865afa158015611301573d6000803e3d6000fd5b505050506040513d601f19601f820116820180604052508101906113259190613e28565b61132f9190613c1f565b60008a815260078401602052604090205490915060ff16156113935760405162461bcd60e51b815260206004820152601b60248201527f41707065616c2066656520697320616c726561647920706169642e000000000060448201526064016109d1565b600154604051632cf6413f60e11b8152600481018c90526000916001600160a01b0316906359ec827e90602401602060405180830381865afa1580156113dd573d6000803e3d6000fd5b505050506040513d601f19601f820116820180604052508101906114019190613e28565b905060006127106114128784613c32565b61141c9190613c49565b6114269083613e15565b60008c8152600686016020526040812054919250908211156114d75760008c8152600686016020526040902054349061145f9084613c1f565b116114845760008c815260068601602052604090205461147f9083613c1f565b611486565b345b9050336001600160a01b0316848e7fcae597f39a3ad75c2e10d46b031f023c5c2babcd58ca0491b122acda3968d4c08f856040516114ce929190918252602082015260400190565b60405180910390a45b33600090815260088601602090815260408083208f845290915281208054839290611503908490613e15565b909155505060008c815260068601602052604081208054839290611528908490613e15565b909155505060008c815260068601602052604090205482116115fa5760008c81526006860160205260408120546009870180549192909161156a908490613e15565b9250508190555084600a018c908060018154018082558091505060019003906000526020600020016000909190919091505560018560070160008e815260200190815260200160002060006101000a81548160ff0219169083151502179055508b848e7fed764996238e4c1c873ae3af7ae2f00f1f6f4f10b9ac7d4bbea4a764c5dea00960405160405180910390a45b600a85015460011015611805578285600901546116179190613c1f565b60098601556001546040516319b8152960e01b8152600481018f90526001600160a01b03909116906319b8152990602401602060405180830381865afa158015611665573d6000803e3d6000fd5b505050506040513d601f19601f820116820180604052508101906116899190613dbe565b156116a25760028a01805460ff19166001179055611785565b895460038b0160006116b5876001613e15565b81526020019081526020016000208190555060008a6000016001816001815401808255809150500390600052602060002090600d02019050600160009054906101000a90046001600160a01b03166001600160a01b031663c71f42538f6040518263ffffffff1660e01b815260040161173091815260200190565b602060405180830381865afa15801561174d573d6000803e3d6000fd5b505050506040513d601f19601f820116820180604052508101906117719190613e28565b600b820155600301805460ff191660011790555b600160009054906101000a90046001600160a01b03166001600160a01b031663c3569902848f8d600101548e6004016040518563ffffffff1660e01b81526004016117d293929190613e7b565b6000604051808303818588803b1580156117eb57600080fd5b505af11580156117ff573d6000803e3d6000fd5b50505050505b8034111561183357336108fc61181b8334613c1f565b6040518115909202916000818181858888f150505050505b50505050505050505050505050565b61184b826132d5565b306001600160a01b037f00000000000000000000000000000000000000000000000000000000000000001614806118c957507f00000000000000000000000000000000000000000000000000000000000000006001600160a01b03166118bd6000805160206143bf8339815191525490565b6001600160a01b031614155b156118e75760405163703e46dd60e11b815260040160405180910390fd5b816001600160a01b03166352d1902d6040518163ffffffff1660e01b8152600401602060405180830381865afa925050508015611941575060408051601f3d908101601f1916820190925261193e91810190613e28565b60015b61196957604051630c76093760e01b81526001600160a01b03831660048201526024016109d1565b6000805160206143bf833981519152811461199a57604051632a87526960e21b8152600481018290526024016109d1565b6000805160206143bf8339815191528390556040516001600160a01b038416907fbc7cd75a20ee27fd9adebab32041f755214dbc6bffa90cc0225b39da2e5c2d3b90600090a2815115611a65576000836001600160a01b031683604051611a019190613f1a565b600060405180830381855af49150503d8060008114611a3c576040519150601f19603f3d011682016040523d82523d6000602084013e611a41565b606091505b5050905080611a63576040516339b21b5d60e11b815260040160405180910390fd5b505b505050565b6000306001600160a01b037f00000000000000000000000000000000000000000000000000000000000000001614611ab55760405163703e46dd60e11b815260040160405180910390fd5b506000805160206143bf83398151915290565b60028181548110611ad857600080fd5b600091825260209091206005909102016001810154600282015460048301805492945060ff9091169291611b0b90613e41565b80601f0160208091040260200160405190810160405280929190818152602001828054611b3790613e41565b8015611b845780601f10611b5957610100808354040283529160200191611b84565b820191906000526020600020905b815481529060010190602001808311611b6757829003601f168201915b5050505050905083565b600084815260036020526040902054600280548692908110611bb257611bb2613c6b565b600091825260209091206002600590920201015460ff1615611be65760405162461bcd60e51b81526004016109d190613d2a565b60015460405163564a565d60e01b8152600481018790526000916001600160a01b03169063564a565d9060240160a060405180830381865afa158015611c30573d6000803e3d6000fd5b505050506040513d601f19601f82011682018060405250810190611c549190613cad565b5090935060019250611c64915050565b816004811115611c7657611c76613d14565b14611cd35760405162461bcd60e51b815260206004820152602760248201527f54686520646973707574652073686f756c6420626520696e20436f6d6d6974206044820152663832b934b7b21760c91b60648201526084016109d1565b82611d105760405162461bcd60e51b815260206004820152600d60248201526c22b6b83a3c9031b7b6b6b4ba1760991b60448201526064016109d1565b600086815260036020526040812054600280549091908110611d3457611d34613c6b565b60009182526020822060059091020180549092508290611d5690600190613c1f565b81548110611d6657611d66613c6b565b90600052602060002090600d0201905060005b86811015611e2c573382898984818110611d9557611d95613c6b565b9050602002013581548110611dac57611dac613c6b565b60009182526020909120600490910201546001600160a01b031614611de35760405162461bcd60e51b81526004016109d190613f36565b8582898984818110611df757611df7613c6b565b9050602002013581548110611e0e57611e0e613c6b565b60009182526020909120600160049092020181019190915501611d79565b5086869050816005016000828254611e449190613e15565b9091555050604051339089907f05cc2f1c94966f1c961b410a50f3d3ffb64501346753a258177097ea23707f0890611e81908b908b908b90613f6d565b60405180910390a35050505050505050565b6000818152600360205260408120546002805460609392908110611eb957611eb9613c6b565b60009182526020822060059091020180549092508290611edb90600190613c1f565b81548110611eeb57611eeb613c6b565b90600052602060002090600d0201905080600a01805480602002602001604051908101604052809291908181526020018280548015611f4957602002820191906000526020600020905b815481526020019060010190808311611f35575b505050505092505050919050565b600085815260036020526040812054600280548392908110611f7b57611f7b613c6b565b60009182526020808320898452600360059093020191820190526040822054815491935083918110611faf57611faf613c6b565b90600052602060002090600d02016000018681548110611fd157611fd1613c6b565b600091825260208220600154604051631c3db16d60e01b815260048082018e905293909302909101935082916001600160a01b0390911690631c3db16d90602401606060405180830381865afa15801561202f573d6000803e3d6000fd5b505050506040513d601f19601f820116820180604052508101906120539190613dd9565b506003850154919350915060ff168015612077575081836002015414806120775750805b1561208a5761271094505050505061074e565b5060009998505050505050505050565b60008060008060008060006002600360008c815260200190815260200160002054815481106120cb576120cb613c6b565b600091825260208083208c84526003600590930201918201905260408220548154919350839181106120ff576120ff613c6b565b600091825260208083206001600d909302019182015460038301546004840154600585015485549f87526002909501909352604090942054909f60ff9094169e50909c50909a9950975095505050505050565b60008181526003602052604081205460028054839290811061217657612176613c6b565b6000918252602082206005909102018054909250829061219890600190613c1f565b815481106121a8576121a8613c6b565b60009182526020822060015460405163564a565d60e01b815260048101899052600d9390930290910193506001600160a01b03169063564a565d9060240160a060405180830381865afa158015612203573d6000803e3d6000fd5b505050506040513d601f19601f820116820180604052508101906122279190613cad565b5050600154604051630fad06e960e11b81526001600160601b03851660048201529394506000936001600160a01b039091169250631f5a0dd2915060240160e060405180830381865afa158015612282573d6000803e3d6000fd5b505050506040513d601f19601f820116820180604052508101906122a69190613f91565b50505050509150506000816122bc5783546122c2565b83600501545b6004909401549093149695505050505050565b6000546001600160a01b031633146122ff5760405162461bcd60e51b81526004016109d190613ffb565b6000836001600160a01b0316838360405161231a9190613f1a565b60006040518083038185875af1925050503d8060008114612357576040519150601f19603f3d011682016040523d82523d6000602084013e61235c565b606091505b5050905080611a635760405162461bcd60e51b8152602060048201526011602482015270155b9cdd58d8d95cdcd99d5b0818d85b1b607a1b60448201526064016109d1565b6000868152600360205260409020546002805488929081106123c5576123c5613c6b565b600091825260209091206002600590920201015460ff16156123f95760405162461bcd60e51b81526004016109d190613d2a565b60015460405163564a565d60e01b8152600481018990526000916001600160a01b03169063564a565d9060240160a060405180830381865afa158015612443573d6000803e3d6000fd5b505050506040513d601f19601f820116820180604052508101906124679190613cad565b5090935060029250612477915050565b81600481111561248957612489613d14565b146124e45760405162461bcd60e51b815260206004820152602560248201527f54686520646973707574652073686f756c6420626520696e20566f74652070656044820152643934b7b21760d91b60648201526084016109d1565b856125265760405162461bcd60e51b8152602060048201526012602482015271139bc81d9bdd195251081c1c9bdd9a59195960721b60448201526064016109d1565b60008881526003602052604081205460028054909190811061254a5761254a613c6b565b9060005260206000209060050201905080600101548611156125a55760405162461bcd60e51b815260206004820152601460248201527343686f696365206f7574206f6620626f756e647360601b60448201526064016109d1565b805460009082906125b890600190613c1f565b815481106125c8576125c8613c6b565b60009182526020822060015460405163564a565d60e01b8152600481018f9052600d9390930290910193506001600160a01b03169063564a565d9060240160a060405180830381865afa158015612623573d6000803e3d6000fd5b505050506040513d601f19601f820116820180604052508101906126479190613cad565b5050600154604051630fad06e960e11b81526001600160601b03851660048201529394506000936001600160a01b039091169250631f5a0dd2915060240160e060405180830381865afa1580156126a2573d6000803e3d6000fd5b505050506040513d601f19601f820116820180604052508101906126c69190613f91565b505050505091505060006126db8a8a8a61093c565b905060005b8b8110156129295733858e8e848181106126fc576126fc613c6b565b905060200201358154811061271357612713613c6b565b60009182526020909120600490910201546001600160a01b03161461274a5760405162461bcd60e51b81526004016109d190613f36565b821580612791575081858e8e8481811061276657612766613c6b565b905060200201358154811061277d5761277d613c6b565b906000526020600020906004020160010154145b6128115760405162461bcd60e51b8152602060048201526044602482018190527f54686520766f74652068617368206d757374206d617463682074686520636f6d908201527f6d69746d656e7420696e20636f7572747320776974682068696464656e20766f6064820152633a32b99760e11b608482015260a4016109d1565b848d8d8381811061282457612824613c6b565b905060200201358154811061283b5761283b613c6b565b600091825260209091206003600490920201015460ff16156128945760405162461bcd60e51b81526020600482015260126024820152712b37ba329030b63932b0b23c9031b0b9ba1760711b60448201526064016109d1565b8a858e8e848181106128a8576128a8613c6b565b90506020020135815481106128bf576128bf613c6b565b60009182526020909120600260049092020101556001858e8e848181106128e8576128e8613c6b565b90506020020135815481106128ff576128ff613c6b565b60009182526020909120600490910201600301805460ff19169115159190911790556001016126e0565b508b8b90508460040160008282546129419190613e15565b909155505060008a8152600285016020526040812080548d9290612966908490613e15565b909155505060018401548a0361299557600384015460ff16156129905760038401805460ff191690555b612a0e565b60018401546000908152600285016020526040808220548c8352912054036129d757600384015460ff166129905760038401805460ff19166001179055612a0e565b60018401546000908152600285016020526040808220548c83529120541115612a0e57600184018a905560038401805460ff191690555b89336001600160a01b03168e7fa000893c71384499023d2d7b21234f7b9e80c78e0330f357dcd667ff578bd3a48f8f8d604051612a4d9392919061403d565b60405180910390a450505050505050505050505050565b6000546001600160a01b03163314612a8e5760405162461bcd60e51b81526004016109d190613ffb565b600180546001600160a01b0319166001600160a01b0392909216919091179055565b60008060008060006002600360008a81526020019081526020016000205481548110612ade57612ade613c6b565b600091825260208083208a8452600360059093020191820190526040822054815491935083918110612b1257612b12613c6b565b90600052602060002090600d02016000018781548110612b3457612b34613c6b565b600091825260209091206004909102018054600182015460028301546003909301546001600160a01b039092169c909b5091995060ff16975095505050505050565b6001546001600160a01b03163314612ba05760405162461bcd60e51b81526004016109d19061406d565b60028054600181018255600091909152600581027f405787fa12a823e0f2b7631cc41b3ba8828b3321ca811111fa75cd3aa3bb5acf81018690557f405787fa12a823e0f2b7631cc41b3ba8828b3321ca811111fa75cd3aa3bb5ace8101907f405787fa12a823e0f2b7631cc41b3ba8828b3321ca811111fa75cd3aa3bb5ad201612c2b858783614101565b50805460018054604051637e37c78b60e11b8152600481018b9052600385019260009290916001600160a01b039091169063fc6f8f1690602401602060405180830381865afa158015612c82573d6000803e3d6000fd5b505050506040513d601f19601f82011682018060405250810190612ca69190613e28565b612cb09190613c1f565b81526020808201929092526040908101600090812093909355835460018181018655858552838520600b600d909302019182018890556003808301805460ff19169092179091558b855290925291829020849055905188907fd3106f74c2d30a4b9230e756a3e78bde53865d40f6af4c479bb010ebaab5810890612d39908a908a908a906141c1565b60405180910390a25050505050505050565b600083815260036020526040812054600280548392908110612d6f57612d6f613c6b565b60009182526020808320878452600360059093020191820190526040822054815491935083918110612da357612da3613c6b565b90600052602060002090600d02016000018481548110612dc557612dc5613c6b565b600091825260209091206004909102016003015460ff169695505050505050565b6001546000906001600160a01b03163314612e135760405162461bcd60e51b81526004016109d19061406d565b600083815260036020526040902054600280548592908110612e3757612e37613c6b565b600091825260209091206002600590920201015460ff1615612e6b5760405162461bcd60e51b81526004016109d190613d2a565b600084815260036020526040812054600280549091908110612e8f57612e8f613c6b565b60009182526020822060059091020180549092508290612eb190600190613c1f565b81548110612ec157612ec1613c6b565b90600052602060002090600d020190506000600160009054906101000a90046001600160a01b03166001600160a01b0316632e1daf2f6040518163ffffffff1660e01b8152600401602060405180830381865afa158015612f26573d6000803e3d6000fd5b505050506040513d601f19601f82011682018060405250810190612f4a91906141f7565b60015460405163564a565d60e01b8152600481018a90529192506000916001600160a01b039091169063564a565d9060240160a060405180830381865afa158015612f99573d6000803e3d6000fd5b505050506040513d601f19601f82011682018060405250810190612fbd9190613cad565b5050604051632638506b60e11b81526001600160601b03841660048201819052602482018d9052604482018c90529394506001600160a01b0386169250634c70a0d69150606401602060405180830381865afa158015613021573d6000803e3d6000fd5b505050506040513d601f19601f8201168201806040525081019061304591906141f7565b9650613052848a89613302565b156130ef57604080516080810182526001600160a01b03808a1680835260006020808501828152858701838152606087018481528c5460018181018f558e8752858720995160049092029099018054919098166001600160a01b0319909116178755915186880155516002860155516003909401805494151560ff19958616179055918152600c89019091529290922080549092161790556130f4565b600096505b50505050505092915050565b60008281526003602052604081205460028054839290811061312457613124613c6b565b6000918252602080832086845260036005909302019182019052604082205481549193508391811061315857613158613c6b565b600091825260208220600154604051631c3db16d60e01b8152600481018a9052600d93909302909101935082916001600160a01b0390911690631c3db16d90602401606060405180830381865afa1580156131b7573d6000803e3d6000fd5b505050506040513d601f19601f820116820180604052508101906131db9190613dd9565b509150915082600401546000148061320a57508015801561320a57506000828152600284016020526040902054155b1561321c57600094505050505061324d565b801561323157505060040154915061324d9050565b50600090815260029091016020526040902054915061324d9050565b92915050565b6000546001600160a01b0316331461327d5760405162461bcd60e51b81526004016109d190613ffb565b600080546001600160a01b0319166001600160a01b0392909216919091179055565b6132a76135be565b600080546001600160a01b039384166001600160a01b03199182161790915560018054929093169116179055565b6000546001600160a01b031633146132ff5760405162461bcd60e51b81526004016109d190613ffb565b50565b60015460405163564a565d60e01b81526004810184905260009182916001600160a01b039091169063564a565d9060240160a060405180830381865afa158015613350573d6000803e3d6000fd5b505050506040513d601f19601f820116820180604052508101906133749190613cad565b505060018054604051637e37c78b60e11b8152600481018a90529495506000946001600160a01b039091169350638a9bb02a9250889190849063fc6f8f1690602401602060405180830381865afa1580156133d3573d6000803e3d6000fd5b505050506040513d601f19601f820116820180604052508101906133f79190613e28565b6134019190613c1f565b6040516001600160e01b031960e085901b16815260048101929092526024820152604401600060405180830381865afa158015613442573d6000803e3d6000fd5b505050506040513d6000823e601f3d908101601f1916820160405261346a91908101906142a7565b602001519050600080600160009054906101000a90046001600160a01b03166001600160a01b0316632e1daf2f6040518163ffffffff1660e01b8152600401602060405180830381865afa1580156134c6573d6000803e3d6000fd5b505050506040513d601f19601f820116820180604052508101906134ea91906141f7565b604051631a383be960e31b81526001600160a01b0388811660048301526001600160601b0387166024830152919091169063d1c1df4890604401608060405180830381865afa158015613541573d6000803e3d6000fd5b505050506040513d601f19601f820116820180604052508101906135659190614388565b50509150915082816135779190613e15565b60045490831015955060ff16156135b3578480156135b057506001600160a01b0386166000908152600c8901602052604090205460ff16155b94505b505050509392505050565b7ff0c57e16840df040f15088dc2f81fe391c3923bec73e23a9662efc9c229c6a0e54600160401b900460ff1661360757604051631afcd79f60e31b815260040160405180910390fd5b565b60006020828403121561361b57600080fd5b5035919050565b634e487b7160e01b600052604160045260246000fd5b60405161016081016001600160401b038111828210171561365b5761365b613622565b60405290565b604051601f8201601f191681016001600160401b038111828210171561368957613689613622565b604052919050565b600082601f8301126136a257600080fd5b81356001600160401b038111156136bb576136bb613622565b6136ce601f8201601f1916602001613661565b8181528460208386010111156136e357600080fd5b816020850160208301376000918101602001919091529392505050565b60008060006060848603121561371557600080fd5b833592506020840135915060408401356001600160401b0381111561373957600080fd5b61374586828701613691565b9150509250925092565b60008083601f84011261376157600080fd5b5081356001600160401b0381111561377857600080fd5b6020830191508360208260051b850101111561379357600080fd5b9250929050565b6000806000806000608086880312156137b257600080fd5b8535945060208601356001600160401b038111156137cf57600080fd5b6137db8882890161374f565b9699909850959660408101359660609091013595509350505050565b6001600160a01b03811681146132ff57600080fd5b6000806000806080858703121561382257600080fd5b843593506020850135613834816137f7565b93969395505050506040820135916060013590565b6000806040838503121561385c57600080fd5b8235613867816137f7565b91506020830135613877816137f7565b809150509250929050565b6000806040838503121561389557600080fd5b50508035926020909101359150565b600080604083850312156138b757600080fd5b82356138c2816137f7565b915060208301356001600160401b038111156138dd57600080fd5b6138e985828601613691565b9150509250929050565b60005b8381101561390e5781810151838201526020016138f6565b50506000910152565b6000815180845261392f8160208601602086016138f3565b601f01601f19169290920160200192915050565b6020815260006139566020830184613917565b9392505050565b838152821515602082015260606040820152600061074e6060830184613917565b6000806000806060858703121561399457600080fd5b8435935060208501356001600160401b038111156139b157600080fd5b6139bd8782880161374f565b9598909750949560400135949350505050565b6020808252825182820181905260009190848201906040850190845b81811015613a08578351835292840192918401916001016139ec565b50909695505050505050565b600080600080600060a08688031215613a2c57600080fd5b505083359560208501359550604085013594606081013594506080013592509050565b600080600060608486031215613a6457600080fd5b505081359360208301359350604090920135919050565b600080600060608486031215613a9057600080fd5b8335613a9b816137f7565b92506020840135915060408401356001600160401b0381111561373957600080fd5b60008060008060008060a08789031215613ad657600080fd5b8635955060208701356001600160401b0380821115613af457600080fd5b613b008a838b0161374f565b909750955060408901359450606089013593506080890135915080821115613b2757600080fd5b50613b3489828a01613691565b9150509295509295509295565b600060208284031215613b5357600080fd5b8135613956816137f7565b600080600080600060808688031215613b7657600080fd5b853594506020860135935060408601356001600160401b0380821115613b9b57600080fd5b818801915088601f830112613baf57600080fd5b813581811115613bbe57600080fd5b896020828501011115613bd057600080fd5b96999598505060200195606001359392505050565b60008060408385031215613bf857600080fd5b505080516020909101519092909150565b634e487b7160e01b600052601160045260246000fd5b8181038181111561324d5761324d613c09565b808202811582820484141761324d5761324d613c09565b600082613c6657634e487b7160e01b600052601260045260246000fd5b500490565b634e487b7160e01b600052603260045260246000fd5b80516001600160601b0381168114613c9857600080fd5b919050565b80518015158114613c9857600080fd5b600080600080600060a08688031215613cc557600080fd5b613cce86613c81565b94506020860151613cde816137f7565b604087015190945060058110613cf357600080fd5b9250613d0160608701613c9d565b9150608086015190509295509295909350565b634e487b7160e01b600052602160045260246000fd5b6020808252601e908201527f44697370757465206a756d70656420746f206120706172656e7420444b210000604082015260600190565b81835260006001600160fb1b03831115613d7a57600080fd5b8260051b80836020870137939093016020019392505050565b848152606060208201526000613dad606083018587613d61565b905082604083015295945050505050565b600060208284031215613dd057600080fd5b61395682613c9d565b600080600060608486031215613dee57600080fd5b83519250613dfe60208501613c9d565b9150613e0c60408501613c9d565b90509250925092565b8082018082111561324d5761324d613c09565b600060208284031215613e3a57600080fd5b5051919050565b600181811c90821680613e5557607f821691505b602082108103613e7557634e487b7160e01b600052602260045260246000fd5b50919050565b838152600060208460208401526060604084015260008454613e9c81613e41565b8060608701526080600180841660008114613ebe5760018114613eda57613f0a565b60ff19851660808a0152608084151560051b8a01019550613f0a565b89600052602060002060005b85811015613f015781548b8201860152908301908801613ee6565b8a016080019650505b50939a9950505050505050505050565b60008251613f2c8184602087016138f3565b9190910192915050565b6020808252601f908201527f5468652063616c6c65722068617320746f206f776e2074686520766f74652e00604082015260600190565b604081526000613f81604083018587613d61565b9050826020830152949350505050565b600080600080600080600060e0888a031215613fac57600080fd5b613fb588613c81565b9650613fc360208901613c9d565b955060408801519450606088015193506080880151925060a08801519150613fed60c08901613c9d565b905092959891949750929550565b60208082526022908201527f416363657373206e6f7420616c6c6f7765643a20476f7665726e6f72206f6e6c6040820152613c9760f11b606082015260800190565b604081526000614051604083018587613d61565b82810360208401526140638185613917565b9695505050505050565b60208082526024908201527f416363657373206e6f7420616c6c6f7765643a204b6c65726f73436f7265206f60408201526337363c9760e11b606082015260800190565b601f821115611a65576000816000526020600020601f850160051c810160208610156140da5750805b601f850160051c820191505b818110156140f9578281556001016140e6565b505050505050565b6001600160401b0383111561411857614118613622565b61412c836141268354613e41565b836140b1565b6000601f84116001811461416057600085156141485750838201355b600019600387901b1c1916600186901b1783556141ba565b600083815260209020601f19861690835b828110156141915786850135825560209485019460019092019101614171565b50868210156141ae5760001960f88860031b161c19848701351681555b505060018560011b0183555b5050505050565b83815260406020820152816040820152818360608301376000818301606090810191909152601f909201601f1916010192915050565b60006020828403121561420957600080fd5b8151613956816137f7565b600082601f83011261422557600080fd5b815160206001600160401b0382111561424057614240613622565b8160051b61424f828201613661565b928352848101820192828101908785111561426957600080fd5b83870192505b84831015614291578251614282816137f7565b8252918301919083019061426f565b979650505050505050565b8051613c98816137f7565b6000602082840312156142b957600080fd5b81516001600160401b03808211156142d057600080fd5b9083019061016082860312156142e557600080fd5b6142ed613638565b825181526020830151602082015260408301516040820152606083015160608201526080830151608082015260a083015160a082015260c08301518281111561433557600080fd5b61434187828601614214565b60c08301525060e083810151908201526101008084015190820152610120915061436c82840161429c565b9181019190915261014091820151918101919091529392505050565b6000806000806080858703121561439e57600080fd5b50508251602084015160408501516060909501519196909550909250905056fe360894a13ba1a3210667c828492db98dca3e2076cc3735a920a3ca505d382bbca264697066735822122065e497a857ef0d9707e217ef2b0b31f4d78d648c7c168df7b39e9cfeb52d1c0d64736f6c63430008180033",
  "devdoc": {
    "errors": {
      "AlreadyInitialized()": [
        {
          "details": "The contract is already initialized."
        }
      ],
      "InvalidImplementation(address)": [
        {
          "details": "The `implementation` is not UUPS-compliant"
        }
      ],
      "NotInitializing()": [
        {
          "details": "The contract is not initializing."
        }
      ],
      "UUPSUnauthorizedCallContext()": [
        {
          "details": "The call is from an unauthorized context."
        }
      ],
      "UUPSUnsupportedProxiableUUID(bytes32)": [
        {
          "details": "The storage `slot` is unsupported as a UUID."
        }
      ]
    },
    "events": {
      "ChoiceFunded(uint256,uint256,uint256)": {
        "details": "To be emitted when a choice is fully funded for an appeal.",
        "params": {
          "_choice": "The choice that is being funded.",
          "_coreDisputeID": "The identifier of the dispute in the Arbitrator contract.",
          "_coreRoundID": "The identifier of the round in the Arbitrator contract."
        }
      },
      "CommitCast(uint256,address,uint256[],bytes32)": {
        "details": "To be emitted when a vote commitment is cast.",
        "params": {
          "_commit": "The commitment of the juror.",
          "_coreDisputeID": "The identifier of the dispute in the Arbitrator contract.",
          "_juror": "The address of the juror casting the vote commitment.",
          "_voteIDs": "The identifiers of the votes in the dispute."
        }
      },
      "CommitCastShutter(bytes32,bytes32)": {
        "details": "Emitted when a vote is cast.",
        "params": {
          "_commit": "The commitment hash.",
          "_identity": "The Shutter identity used for encryption."
        }
      },
      "Contribution(uint256,uint256,uint256,address,uint256)": {
        "details": "To be emitted when a funding contribution is made.",
        "params": {
          "_amount": "The amount contributed.",
          "_choice": "The choice that is being funded.",
          "_contributor": "The address of the contributor.",
          "_coreDisputeID": "The identifier of the dispute in the Arbitrator contract.",
          "_coreRoundID": "The identifier of the round in the Arbitrator contract."
        }
      },
      "DisputeCreation(uint256,uint256,bytes)": {
        "details": "To be emitted when a dispute is created.",
        "params": {
          "_coreDisputeID": "The identifier of the dispute in the Arbitrator contract.",
          "_extraData": "The extra data for the dispute.",
          "_numberOfChoices": "The number of choices available in the dispute."
        }
      },
      "Initialized(uint64)": {
        "details": "Triggered when the contract has been initialized or reinitialized."
      },
      "Upgraded(address)": {
        "details": "Emitted when the `implementation` has been successfully upgraded.",
        "params": {
          "newImplementation": "Address of the new implementation the proxy is now forwarding calls to."
        }
      },
      "VoteCast(uint256,address,uint256[],uint256,string)": {
        "details": "Emitted when casting a vote to provide the justification of juror's choice.",
        "params": {
          "_choice": "The choice juror voted for.",
          "_coreDisputeID": "The identifier of the dispute in the Arbitrator contract.",
          "_juror": "Address of the juror.",
          "_justification": "Justification of the choice.",
          "_voteIDs": "The identifiers of the votes in the dispute."
        }
      },
      "Withdrawal(uint256,uint256,uint256,address,uint256)": {
        "details": "To be emitted when the contributed funds are withdrawn.",
        "params": {
          "_amount": "The amount withdrawn.",
          "_choice": "The choice that is being funded.",
          "_contributor": "The address of the contributor.",
          "_coreDisputeID": "The identifier of the dispute in the Arbitrator contract.",
          "_coreRoundID": "The identifier of the round in the Arbitrator contract."
        }
      }
    },
    "kind": "dev",
    "methods": {
      "areCommitsAllCast(uint256)": {
        "details": "Returns true if all of the jurors have cast their commits for the last round.",
        "params": {
          "_coreDisputeID": "The ID of the dispute in Kleros Core."
        },
        "returns": {
          "_0": "Whether all of the jurors have cast their commits for the last round."
        }
      },
      "areVotesAllCast(uint256)": {
        "details": "Returns true if all of the jurors have cast their votes for the last round. Note that this function is to be called directly by the core contract and is not for off-chain usage.",
        "params": {
          "_coreDisputeID": "The ID of the dispute in Kleros Core."
        },
        "returns": {
          "_0": "Whether all of the jurors have cast their votes for the last round."
        }
      },
      "castCommit(uint256,uint256[],bytes32)": {
        "details": "Sets the caller's commit for the specified votes. It can be called multiple times during the commit period, each call overrides the commits of the previous one. `O(n)` where `n` is the number of votes.",
        "params": {
          "_commit": "The commitment hash.",
          "_coreDisputeID": "The ID of the dispute in Kleros Core.",
          "_voteIDs": "The IDs of the votes."
        }
      },
      "castCommitShutter(uint256,uint256[],bytes32,bytes32)": {
        "details": "Sets the caller's commit for the specified votes. It can be called multiple times during the commit period, each call overrides the commits of the previous one. `O(n)` where `n` is the number of votes.",
        "params": {
          "_commit": "The commitment hash including the justification.",
          "_coreDisputeID": "The ID of the dispute in Kleros Core.",
          "_identity": "The Shutter identity used for encryption.",
          "_voteIDs": "The IDs of the votes."
        }
      },
      "castVote(uint256,uint256[],uint256,uint256,string)": {
        "details": "Sets the caller's choices for the specified votes. `O(n)` where `n` is the number of votes.",
        "params": {
          "_choice": "The choice.",
          "_coreDisputeID": "The ID of the dispute in Kleros Core.",
          "_justification": "Justification of the choice.",
          "_salt": "The salt for the commit if the votes were hidden.",
          "_voteIDs": "The IDs of the votes."
        }
      },
      "changeCore(address)": {
        "details": "Changes the `core` storage variable.",
        "params": {
          "_core": "The new value for the `core` storage variable."
        }
      },
      "changeGovernor(address)": {
        "details": "Changes the `governor` storage variable.",
        "params": {
          "_governor": "The new value for the `governor` storage variable."
        }
      },
      "constructor": {
        "custom:oz-upgrades-unsafe-allow": "constructor"
      },
      "createDispute(uint256,uint256,bytes,uint256)": {
        "details": "Creates a local dispute and maps it to the dispute ID in the Core contract. Note: Access restricted to Kleros Core only.",
        "params": {
          "_coreDisputeID": "The ID of the dispute in Kleros Core.",
          "_extraData": "Additional info about the dispute, for possible use in future dispute kits.",
          "_nbVotes": "Number of votes for this dispute.",
          "_numberOfChoices": "Number of choices of the dispute"
        }
      },
      "currentRuling(uint256)": {
        "details": "Gets the current ruling of a specified dispute.",
        "params": {
          "_coreDisputeID": "The ID of the dispute in Kleros Core."
        },
        "returns": {
          "overridden": "Whether the ruling was overridden by appeal funding or not.",
          "ruling": "The current ruling.",
          "tied": "Whether it's a tie or not."
        }
      },
      "draw(uint256,uint256)": {
        "details": "Draws the juror from the sortition tree. The drawn address is picked up by Kleros Core. Note: Access restricted to Kleros Core only.",
        "params": {
          "_coreDisputeID": "The ID of the dispute in Kleros Core.",
          "_nonce": "Nonce of the drawing iteration."
        },
        "returns": {
          "drawnAddress": "The drawn address."
        }
      },
      "executeGovernorProposal(address,uint256,bytes)": {
        "details": "Allows the governor to call anything on behalf of the contract.",
        "params": {
          "_amount": "The value sent with the call.",
          "_data": "The data sent with the call.",
          "_destination": "The destination of the call."
        }
      },
      "fundAppeal(uint256,uint256)": {
        "details": "Manages contributions, and appeals a dispute if at least two choices are fully funded. Note that the surplus deposit will be reimbursed.",
        "params": {
          "_choice": "A choice that receives funding.",
          "_coreDisputeID": "Index of the dispute in Kleros Core."
        }
      },
      "getCoherentCount(uint256,uint256)": {
        "details": "Gets the number of jurors who are eligible to a reward in this round.",
        "params": {
          "_coreDisputeID": "The ID of the dispute in Kleros Core, not in the Dispute Kit.",
          "_coreRoundID": "The ID of the round in Kleros Core, not in the Dispute Kit."
        },
        "returns": {
          "_0": "The number of coherent jurors."
        }
      },
      "getDegreeOfCoherence(uint256,uint256,uint256,uint256,uint256)": {
        "details": "Gets the degree of coherence of a particular voter. This function is called by Kleros Core in order to determine the amount of the reward.",
        "params": {
          "_coreDisputeID": "The ID of the dispute in Kleros Core, not in the Dispute Kit.",
          "_coreRoundID": "The ID of the round in Kleros Core, not in the Dispute Kit.",
          "_voteID": "The ID of the vote."
        },
        "returns": {
          "_0": "The degree of coherence in basis points."
        }
      },
      "hashVote(uint256,uint256,string)": {
        "details": "Computes the hash of a vote using ABI encoding",
        "params": {
          "_choice": "The choice being voted for",
          "_justification": "The justification for the vote",
          "_salt": "A random salt for commitment"
        },
        "returns": {
          "_0": "bytes32 The hash of the encoded vote parameters"
        }
      },
      "initialize(address,address)": {
        "details": "Initializer.",
        "params": {
          "_core": "The KlerosCore arbitrator.",
          "_governor": "The governor's address."
        }
      },
      "isAppealFunded(uint256)": {
        "details": "Returns true if the appeal funding is finished prematurely (e.g. when losing side didn't fund). Note that this function is to be called directly by the core contract and is not for off-chain usage.",
        "params": {
          "_coreDisputeID": "The ID of the dispute in Kleros Core, not in the Dispute Kit."
        },
        "returns": {
          "_0": "Whether the appeal funding is finished."
        }
      },
      "isVoteActive(uint256,uint256,uint256)": {
        "details": "Returns true if the specified voter was active in this round.",
        "params": {
          "_coreDisputeID": "The ID of the dispute in Kleros Core, not in the Dispute Kit.",
          "_coreRoundID": "The ID of the round in Kleros Core, not in the Dispute Kit.",
          "_voteID": "The ID of the voter."
        },
        "returns": {
          "_0": "Whether the voter was active or not."
        }
      },
      "proxiableUUID()": {
        "details": "Implementation of the ERC1822 `proxiableUUID` function. This returns the storage slot used by the implementation. It is used to validate the implementation's compatibility when performing an upgrade. IMPORTANT: A proxy pointing at a proxiable contract should not be considered proxiable itself, because this risks bricking a proxy that upgrades to it, by delegating to itself until out of gas. Thus it is critical that this function revert if invoked through a proxy. This is guaranteed by the if statement."
      },
      "upgradeToAndCall(address,bytes)": {
        "details": "Upgrade mechanism including access control and UUPS-compliance.Reverts if the execution is not performed via delegatecall or the execution context is not of a proxy with an ERC1967-compliant implementation pointing to self.",
        "params": {
          "data": "Data used in a delegate call to `newImplementation` if non-empty. This will typically be an encoded function call, and allows initializing the storage of the proxy like a Solidity constructor.",
          "newImplementation": "Address of the new implementation contract."
        }
      },
      "withdrawFeesAndRewards(uint256,address,uint256,uint256)": {
        "details": "Allows those contributors who attempted to fund an appeal round to withdraw any reimbursable fees or rewards after the dispute gets resolved. Note that withdrawals are not possible if the core contract is paused.",
        "params": {
          "_beneficiary": "The address whose rewards to withdraw.",
          "_choice": "The ruling option that the caller wants to withdraw from.",
          "_coreDisputeID": "Index of the dispute in Kleros Core contract.",
          "_coreRoundID": "The round in the Kleros Core contract the caller wants to withdraw from."
        },
        "returns": {
          "amount": "The withdrawn amount."
        }
      }
    },
    "stateVariables": {
      "version": {
        "details": "Returns the version of the implementation.",
        "return": "Version string.",
        "returns": {
          "_0": "Version string."
        }
      }
    },
    "title": "DisputeKitShutter Dispute kit implementation of the Kleros v1 features including: - a drawing system: proportional to staked PNK, - a vote aggregation system: plurality, - an incentive system: equal split between coherent votes, - an appeal system: fund 2 choices only, vote on any choice. Added functionality: an Shutter-specific event emitted when a vote is cast.",
    "version": 1
  },
  "userdoc": {
    "errors": {
      "FailedDelegateCall()": [
        {
          "notice": "Failed Delegated call"
        }
      ]
    },
    "kind": "user",
    "methods": {},
    "version": 1
  },
  "storageLayout": {
    "storage": [
      {
        "astId": 3889,
        "contract": "src/arbitration/dispute-kits/DisputeKitShutter.sol:DisputeKitShutter",
        "label": "governor",
        "offset": 0,
        "slot": "0",
        "type": "t_address"
      },
      {
        "astId": 3892,
        "contract": "src/arbitration/dispute-kits/DisputeKitShutter.sol:DisputeKitShutter",
        "label": "core",
        "offset": 0,
        "slot": "1",
        "type": "t_contract(KlerosCore)165"
      },
      {
        "astId": 3896,
        "contract": "src/arbitration/dispute-kits/DisputeKitShutter.sol:DisputeKitShutter",
        "label": "disputes",
        "offset": 0,
        "slot": "2",
        "type": "t_array(t_struct(Dispute)3824_storage)dyn_storage"
      },
      {
        "astId": 3900,
        "contract": "src/arbitration/dispute-kits/DisputeKitShutter.sol:DisputeKitShutter",
        "label": "coreDisputeIDToLocal",
        "offset": 0,
        "slot": "3",
        "type": "t_mapping(t_uint256,t_uint256)"
      },
      {
        "astId": 3902,
        "contract": "src/arbitration/dispute-kits/DisputeKitShutter.sol:DisputeKitShutter",
        "label": "singleDrawPerJuror",
        "offset": 0,
        "slot": "4",
        "type": "t_bool"
      }
    ],
    "types": {
      "t_address": {
        "encoding": "inplace",
        "label": "address",
        "numberOfBytes": "20"
      },
      "t_array(t_struct(Dispute)3824_storage)dyn_storage": {
        "base": "t_struct(Dispute)3824_storage",
        "encoding": "dynamic_array",
        "label": "struct DisputeKitClassicBase.Dispute[]",
        "numberOfBytes": "32"
      },
      "t_array(t_struct(Round)3866_storage)dyn_storage": {
        "base": "t_struct(Round)3866_storage",
        "encoding": "dynamic_array",
        "label": "struct DisputeKitClassicBase.Round[]",
        "numberOfBytes": "32"
      },
      "t_array(t_struct(Vote)3875_storage)dyn_storage": {
        "base": "t_struct(Vote)3875_storage",
        "encoding": "dynamic_array",
        "label": "struct DisputeKitClassicBase.Vote[]",
        "numberOfBytes": "32"
      },
      "t_array(t_uint256)dyn_storage": {
        "base": "t_uint256",
        "encoding": "dynamic_array",
        "label": "uint256[]",
        "numberOfBytes": "32"
      },
      "t_bool": {
        "encoding": "inplace",
        "label": "bool",
        "numberOfBytes": "1"
      },
      "t_bytes32": {
        "encoding": "inplace",
        "label": "bytes32",
        "numberOfBytes": "32"
      },
      "t_bytes_storage": {
        "encoding": "bytes",
        "label": "bytes",
        "numberOfBytes": "32"
      },
      "t_contract(KlerosCore)165": {
        "encoding": "inplace",
        "label": "contract KlerosCore",
        "numberOfBytes": "20"
      },
      "t_mapping(t_address,t_bool)": {
        "encoding": "mapping",
        "key": "t_address",
        "label": "mapping(address => bool)",
        "numberOfBytes": "32",
        "value": "t_bool"
      },
      "t_mapping(t_address,t_mapping(t_uint256,t_uint256))": {
        "encoding": "mapping",
        "key": "t_address",
        "label": "mapping(address => mapping(uint256 => uint256))",
        "numberOfBytes": "32",
        "value": "t_mapping(t_uint256,t_uint256)"
      },
      "t_mapping(t_uint256,t_bool)": {
        "encoding": "mapping",
        "key": "t_uint256",
        "label": "mapping(uint256 => bool)",
        "numberOfBytes": "32",
        "value": "t_bool"
      },
      "t_mapping(t_uint256,t_uint256)": {
        "encoding": "mapping",
        "key": "t_uint256",
        "label": "mapping(uint256 => uint256)",
        "numberOfBytes": "32",
        "value": "t_uint256"
      },
      "t_struct(Dispute)3824_storage": {
        "encoding": "inplace",
        "label": "struct DisputeKitClassicBase.Dispute",
        "members": [
          {
            "astId": 3813,
            "contract": "src/arbitration/dispute-kits/DisputeKitShutter.sol:DisputeKitShutter",
            "label": "rounds",
            "offset": 0,
            "slot": "0",
            "type": "t_array(t_struct(Round)3866_storage)dyn_storage"
          },
          {
            "astId": 3815,
            "contract": "src/arbitration/dispute-kits/DisputeKitShutter.sol:DisputeKitShutter",
            "label": "numberOfChoices",
            "offset": 0,
            "slot": "1",
            "type": "t_uint256"
          },
          {
            "astId": 3817,
            "contract": "src/arbitration/dispute-kits/DisputeKitShutter.sol:DisputeKitShutter",
            "label": "jumped",
            "offset": 0,
            "slot": "2",
            "type": "t_bool"
          },
          {
            "astId": 3821,
            "contract": "src/arbitration/dispute-kits/DisputeKitShutter.sol:DisputeKitShutter",
            "label": "coreRoundIDToLocal",
            "offset": 0,
            "slot": "3",
            "type": "t_mapping(t_uint256,t_uint256)"
          },
          {
            "astId": 3823,
            "contract": "src/arbitration/dispute-kits/DisputeKitShutter.sol:DisputeKitShutter",
            "label": "extraData",
            "offset": 0,
            "slot": "4",
            "type": "t_bytes_storage"
          }
        ],
        "numberOfBytes": "160"
      },
      "t_struct(Round)3866_storage": {
        "encoding": "inplace",
        "label": "struct DisputeKitClassicBase.Round",
        "members": [
          {
            "astId": 3828,
            "contract": "src/arbitration/dispute-kits/DisputeKitShutter.sol:DisputeKitShutter",
            "label": "votes",
            "offset": 0,
            "slot": "0",
            "type": "t_array(t_struct(Vote)3875_storage)dyn_storage"
          },
          {
            "astId": 3830,
            "contract": "src/arbitration/dispute-kits/DisputeKitShutter.sol:DisputeKitShutter",
            "label": "winningChoice",
            "offset": 0,
            "slot": "1",
            "type": "t_uint256"
          },
          {
            "astId": 3834,
            "contract": "src/arbitration/dispute-kits/DisputeKitShutter.sol:DisputeKitShutter",
            "label": "counts",
            "offset": 0,
            "slot": "2",
            "type": "t_mapping(t_uint256,t_uint256)"
          },
          {
            "astId": 3836,
            "contract": "src/arbitration/dispute-kits/DisputeKitShutter.sol:DisputeKitShutter",
            "label": "tied",
            "offset": 0,
            "slot": "3",
            "type": "t_bool"
          },
          {
            "astId": 3838,
            "contract": "src/arbitration/dispute-kits/DisputeKitShutter.sol:DisputeKitShutter",
            "label": "totalVoted",
            "offset": 0,
            "slot": "4",
            "type": "t_uint256"
          },
          {
            "astId": 3840,
            "contract": "src/arbitration/dispute-kits/DisputeKitShutter.sol:DisputeKitShutter",
            "label": "totalCommitted",
            "offset": 0,
            "slot": "5",
            "type": "t_uint256"
          },
          {
            "astId": 3844,
            "contract": "src/arbitration/dispute-kits/DisputeKitShutter.sol:DisputeKitShutter",
            "label": "paidFees",
            "offset": 0,
            "slot": "6",
            "type": "t_mapping(t_uint256,t_uint256)"
          },
          {
            "astId": 3848,
            "contract": "src/arbitration/dispute-kits/DisputeKitShutter.sol:DisputeKitShutter",
            "label": "hasPaid",
            "offset": 0,
            "slot": "7",
            "type": "t_mapping(t_uint256,t_bool)"
          },
          {
            "astId": 3854,
            "contract": "src/arbitration/dispute-kits/DisputeKitShutter.sol:DisputeKitShutter",
            "label": "contributions",
            "offset": 0,
            "slot": "8",
            "type": "t_mapping(t_address,t_mapping(t_uint256,t_uint256))"
          },
          {
            "astId": 3856,
            "contract": "src/arbitration/dispute-kits/DisputeKitShutter.sol:DisputeKitShutter",
            "label": "feeRewards",
            "offset": 0,
            "slot": "9",
            "type": "t_uint256"
          },
          {
            "astId": 3859,
            "contract": "src/arbitration/dispute-kits/DisputeKitShutter.sol:DisputeKitShutter",
            "label": "fundedChoices",
            "offset": 0,
            "slot": "10",
            "type": "t_array(t_uint256)dyn_storage"
          },
          {
            "astId": 3861,
            "contract": "src/arbitration/dispute-kits/DisputeKitShutter.sol:DisputeKitShutter",
            "label": "nbVotes",
            "offset": 0,
            "slot": "11",
            "type": "t_uint256"
          },
          {
            "astId": 3865,
            "contract": "src/arbitration/dispute-kits/DisputeKitShutter.sol:DisputeKitShutter",
            "label": "alreadyDrawn",
            "offset": 0,
            "slot": "12",
            "type": "t_mapping(t_address,t_bool)"
          }
        ],
        "numberOfBytes": "416"
      },
      "t_struct(Vote)3875_storage": {
        "encoding": "inplace",
        "label": "struct DisputeKitClassicBase.Vote",
        "members": [
          {
            "astId": 3868,
            "contract": "src/arbitration/dispute-kits/DisputeKitShutter.sol:DisputeKitShutter",
            "label": "account",
            "offset": 0,
            "slot": "0",
            "type": "t_address"
          },
          {
            "astId": 3870,
            "contract": "src/arbitration/dispute-kits/DisputeKitShutter.sol:DisputeKitShutter",
            "label": "commit",
            "offset": 0,
            "slot": "1",
            "type": "t_bytes32"
          },
          {
            "astId": 3872,
            "contract": "src/arbitration/dispute-kits/DisputeKitShutter.sol:DisputeKitShutter",
            "label": "choice",
            "offset": 0,
            "slot": "2",
            "type": "t_uint256"
          },
          {
            "astId": 3874,
            "contract": "src/arbitration/dispute-kits/DisputeKitShutter.sol:DisputeKitShutter",
            "label": "voted",
            "offset": 0,
            "slot": "3",
            "type": "t_bool"
          }
        ],
        "numberOfBytes": "128"
      },
      "t_uint256": {
        "encoding": "inplace",
        "label": "uint256",
        "numberOfBytes": "32"
      }
    }
  }
}