{
  "address": "0x4a769Fb16A7BAE9b41c25aAe028E51a19F955f65",
  "abi": [
    {
      "inputs": [],
      "stateMutability": "nonpayable",
      "type": "constructor"
    },
    {
      "inputs": [],
      "name": "AlreadyInitialized",
      "type": "error"
    },
    {
      "inputs": [],
      "name": "AppealFeeIsAlreadyPaid",
      "type": "error"
    },
    {
      "inputs": [],
      "name": "ChoiceCommitmentMismatch",
      "type": "error"
    },
    {
      "inputs": [],
      "name": "ChoiceOutOfBounds",
      "type": "error"
    },
    {
      "inputs": [],
      "name": "CoreIsPaused",
      "type": "error"
    },
    {
      "inputs": [],
      "name": "DisputeJumpedToAnotherDisputeKit",
      "type": "error"
    },
    {
      "inputs": [],
      "name": "DisputeNotResolved",
      "type": "error"
    },
    {
      "inputs": [],
      "name": "DisputeUnknownInThisDisputeKit",
      "type": "error"
    },
    {
      "inputs": [],
      "name": "EmptyCommit",
      "type": "error"
    },
    {
      "inputs": [],
      "name": "EmptyJustificationCommit",
      "type": "error"
    },
    {
      "inputs": [],
      "name": "EmptyVoteIDs",
      "type": "error"
    },
    {
      "inputs": [],
      "name": "FailedDelegateCall",
      "type": "error"
    },
    {
      "inputs": [
        {
          "internalType": "address",
          "name": "implementation",
          "type": "address"
        }
      ],
      "name": "InvalidImplementation",
      "type": "error"
    },
    {
      "inputs": [],
      "name": "JurorHasToOwnTheVote",
      "type": "error"
    },
    {
      "inputs": [],
      "name": "JustificationCommitmentMismatch",
      "type": "error"
    },
    {
      "inputs": [],
      "name": "KlerosCoreOnly",
      "type": "error"
    },
    {
      "inputs": [],
      "name": "NotAppealPeriod",
      "type": "error"
    },
    {
      "inputs": [],
      "name": "NotAppealPeriodForLoser",
      "type": "error"
    },
    {
      "inputs": [],
      "name": "NotCommitPeriod",
      "type": "error"
    },
    {
      "inputs": [],
      "name": "NotInitializing",
      "type": "error"
    },
    {
      "inputs": [],
      "name": "NotVotePeriod",
      "type": "error"
    },
    {
      "inputs": [],
      "name": "OwnerOnly",
      "type": "error"
    },
    {
      "inputs": [],
      "name": "UUPSUnauthorizedCallContext",
      "type": "error"
    },
    {
      "inputs": [
        {
          "internalType": "bytes32",
          "name": "slot",
          "type": "bytes32"
        }
      ],
      "name": "UUPSUnsupportedProxiableUUID",
      "type": "error"
    },
    {
      "inputs": [],
      "name": "UnsuccessfulCall",
      "type": "error"
    },
    {
      "inputs": [],
      "name": "VoteAlreadyCast",
      "type": "error"
    },
    {
      "anonymous": false,
      "inputs": [
        {
          "indexed": true,
          "internalType": "uint256",
          "name": "_coreDisputeID",
          "type": "uint256"
        },
        {
          "indexed": true,
          "internalType": "uint256",
          "name": "_coreRoundID",
          "type": "uint256"
        },
        {
          "indexed": true,
          "internalType": "uint256",
          "name": "_choice",
          "type": "uint256"
        }
      ],
      "name": "ChoiceFunded",
      "type": "event"
    },
    {
      "anonymous": false,
      "inputs": [
        {
          "indexed": true,
          "internalType": "uint256",
          "name": "_coreDisputeID",
          "type": "uint256"
        },
        {
          "indexed": true,
          "internalType": "address",
          "name": "_juror",
          "type": "address"
        },
        {
          "indexed": false,
          "internalType": "uint256[]",
          "name": "_voteIDs",
          "type": "uint256[]"
        },
        {
          "indexed": false,
          "internalType": "bytes32",
          "name": "_commit",
          "type": "bytes32"
        }
      ],
      "name": "CommitCast",
      "type": "event"
    },
    {
      "anonymous": false,
      "inputs": [
        {
          "indexed": true,
          "internalType": "uint256",
          "name": "_coreDisputeID",
          "type": "uint256"
        },
        {
          "indexed": true,
          "internalType": "address",
          "name": "_juror",
          "type": "address"
        },
        {
          "indexed": true,
          "internalType": "bytes32",
          "name": "_choiceCommit",
          "type": "bytes32"
        },
        {
          "indexed": false,
          "internalType": "bytes32",
          "name": "_justificationCommit",
          "type": "bytes32"
        },
        {
          "indexed": false,
          "internalType": "bytes32",
          "name": "_identity",
          "type": "bytes32"
        },
        {
          "indexed": false,
          "internalType": "bytes",
          "name": "_encryptedVote",
          "type": "bytes"
        }
      ],
      "name": "CommitCastShutter",
      "type": "event"
    },
    {
      "anonymous": false,
      "inputs": [
        {
          "indexed": true,
          "internalType": "uint256",
          "name": "_coreDisputeID",
          "type": "uint256"
        },
        {
          "indexed": true,
          "internalType": "uint256",
          "name": "_coreRoundID",
          "type": "uint256"
        },
        {
          "indexed": false,
          "internalType": "uint256",
          "name": "_choice",
          "type": "uint256"
        },
        {
          "indexed": true,
          "internalType": "address",
          "name": "_contributor",
          "type": "address"
        },
        {
          "indexed": false,
          "internalType": "uint256",
          "name": "_amount",
          "type": "uint256"
        }
      ],
      "name": "Contribution",
      "type": "event"
    },
    {
      "anonymous": false,
      "inputs": [
        {
          "indexed": true,
          "internalType": "uint256",
          "name": "_coreDisputeID",
          "type": "uint256"
        },
        {
          "indexed": false,
          "internalType": "uint256",
          "name": "_numberOfChoices",
          "type": "uint256"
        },
        {
          "indexed": false,
          "internalType": "bytes",
          "name": "_extraData",
          "type": "bytes"
        }
      ],
      "name": "DisputeCreation",
      "type": "event"
    },
    {
      "anonymous": false,
      "inputs": [
        {
          "indexed": false,
          "internalType": "uint64",
          "name": "version",
          "type": "uint64"
        }
      ],
      "name": "Initialized",
      "type": "event"
    },
    {
      "anonymous": false,
      "inputs": [
        {
          "indexed": true,
          "internalType": "uint96",
          "name": "_courtID",
          "type": "uint96"
        },
        {
          "components": [
            {
              "internalType": "bool",
              "name": "enabled",
              "type": "bool"
            },
            {
              "internalType": "uint96",
              "name": "jumpCourtID",
              "type": "uint96"
            },
            {
              "internalType": "uint256",
              "name": "jumpDisputeKitID",
              "type": "uint256"
            },
            {
              "internalType": "uint256",
              "name": "jumpDisputeKitIDOnCourtJump",
              "type": "uint256"
            },
            {
              "internalType": "uint256",
              "name": "nbVotes",
              "type": "uint256"
            }
          ],
          "indexed": false,
          "internalType": "struct DisputeKitClassicBase.NextRoundSettings",
          "name": "_nextRoundSettings",
          "type": "tuple"
        }
      ],
      "name": "NextRoundSettingsChanged",
      "type": "event"
    },
    {
      "anonymous": false,
      "inputs": [
        {
          "indexed": true,
          "internalType": "address",
          "name": "newImplementation",
          "type": "address"
        }
      ],
      "name": "Upgraded",
      "type": "event"
    },
    {
      "anonymous": false,
      "inputs": [
        {
          "indexed": true,
          "internalType": "uint256",
          "name": "_coreDisputeID",
          "type": "uint256"
        },
        {
          "indexed": true,
          "internalType": "address",
          "name": "_juror",
          "type": "address"
        },
        {
          "indexed": false,
          "internalType": "uint256[]",
          "name": "_voteIDs",
          "type": "uint256[]"
        },
        {
          "indexed": true,
          "internalType": "uint256",
          "name": "_choice",
          "type": "uint256"
        },
        {
          "indexed": false,
          "internalType": "string",
          "name": "_justification",
          "type": "string"
        }
      ],
      "name": "VoteCast",
      "type": "event"
    },
    {
      "anonymous": false,
      "inputs": [
        {
          "indexed": true,
          "internalType": "uint256",
          "name": "_coreDisputeID",
          "type": "uint256"
        },
        {
          "indexed": false,
          "internalType": "uint256",
          "name": "_choice",
          "type": "uint256"
        },
        {
          "indexed": true,
          "internalType": "address",
          "name": "_contributor",
          "type": "address"
        },
        {
          "indexed": false,
          "internalType": "uint256",
          "name": "_amount",
          "type": "uint256"
        }
      ],
      "name": "Withdrawal",
      "type": "event"
    },
    {
      "inputs": [],
      "name": "LOSER_APPEAL_PERIOD_MULTIPLIER",
      "outputs": [
        {
          "internalType": "uint256",
          "name": "",
          "type": "uint256"
        }
      ],
      "stateMutability": "view",
      "type": "function"
    },
    {
      "inputs": [],
      "name": "LOSER_STAKE_MULTIPLIER",
      "outputs": [
        {
          "internalType": "uint256",
          "name": "",
          "type": "uint256"
        }
      ],
      "stateMutability": "view",
      "type": "function"
    },
    {
      "inputs": [],
      "name": "WINNER_STAKE_MULTIPLIER",
      "outputs": [
        {
          "internalType": "uint256",
          "name": "",
          "type": "uint256"
        }
      ],
      "stateMutability": "view",
      "type": "function"
    },
    {
      "inputs": [
        {
          "internalType": "uint256",
          "name": "_coreDisputeID",
          "type": "uint256"
        }
      ],
      "name": "areCommitsAllCast",
      "outputs": [
        {
          "internalType": "bool",
          "name": "",
          "type": "bool"
        }
      ],
      "stateMutability": "view",
      "type": "function"
    },
    {
      "inputs": [
        {
          "internalType": "uint256",
          "name": "_coreDisputeID",
          "type": "uint256"
        }
      ],
      "name": "areVotesAllCast",
      "outputs": [
        {
          "internalType": "bool",
          "name": "",
          "type": "bool"
        }
      ],
      "stateMutability": "view",
      "type": "function"
    },
    {
      "inputs": [
        {
          "internalType": "uint256",
          "name": "_coreDisputeID",
          "type": "uint256"
        },
        {
          "internalType": "uint256[]",
          "name": "_voteIDs",
          "type": "uint256[]"
        },
        {
          "internalType": "bytes32",
          "name": "_commit",
          "type": "bytes32"
        }
      ],
      "name": "castCommit",
      "outputs": [],
      "stateMutability": "nonpayable",
      "type": "function"
    },
    {
      "inputs": [
        {
          "internalType": "uint256",
          "name": "_coreDisputeID",
          "type": "uint256"
        },
        {
          "internalType": "uint256[]",
          "name": "_voteIDs",
          "type": "uint256[]"
        },
        {
          "internalType": "bytes32",
          "name": "_choiceCommit",
          "type": "bytes32"
        },
        {
          "internalType": "bytes32",
          "name": "_justificationCommit",
          "type": "bytes32"
        },
        {
          "internalType": "bytes32",
          "name": "_identity",
          "type": "bytes32"
        },
        {
          "internalType": "bytes",
          "name": "_encryptedVote",
          "type": "bytes"
        }
      ],
      "name": "castCommitShutter",
      "outputs": [],
      "stateMutability": "nonpayable",
      "type": "function"
    },
    {
      "inputs": [
        {
          "internalType": "uint256",
          "name": "_coreDisputeID",
          "type": "uint256"
        },
        {
          "internalType": "uint256[]",
          "name": "_voteIDs",
          "type": "uint256[]"
        },
        {
          "internalType": "uint256",
          "name": "_choice",
          "type": "uint256"
        },
        {
          "internalType": "uint256",
          "name": "_salt",
          "type": "uint256"
        },
        {
          "internalType": "string",
          "name": "_justification",
          "type": "string"
        }
      ],
      "name": "castVote",
      "outputs": [],
      "stateMutability": "nonpayable",
      "type": "function"
    },
    {
      "inputs": [
        {
          "internalType": "uint256",
          "name": "_coreDisputeID",
          "type": "uint256"
        },
        {
          "internalType": "uint256[]",
          "name": "_voteIDs",
          "type": "uint256[]"
        },
        {
          "internalType": "uint256",
          "name": "_choice",
          "type": "uint256"
        },
        {
          "internalType": "uint256",
          "name": "_salt",
          "type": "uint256"
        },
        {
          "internalType": "string",
          "name": "_justification",
          "type": "string"
        }
      ],
      "name": "castVoteShutter",
      "outputs": [],
      "stateMutability": "nonpayable",
      "type": "function"
    },
    {
      "inputs": [
        {
          "internalType": "address",
          "name": "_core",
          "type": "address"
        }
      ],
      "name": "changeCore",
      "outputs": [],
      "stateMutability": "nonpayable",
      "type": "function"
    },
    {
      "inputs": [
        {
          "internalType": "uint96",
          "name": "_courtID",
          "type": "uint96"
        },
        {
          "components": [
            {
              "internalType": "bool",
              "name": "enabled",
              "type": "bool"
            },
            {
              "internalType": "uint96",
              "name": "jumpCourtID",
              "type": "uint96"
            },
            {
              "internalType": "uint256",
              "name": "jumpDisputeKitID",
              "type": "uint256"
            },
            {
              "internalType": "uint256",
              "name": "jumpDisputeKitIDOnCourtJump",
              "type": "uint256"
            },
            {
              "internalType": "uint256",
              "name": "nbVotes",
              "type": "uint256"
            }
          ],
          "internalType": "struct DisputeKitClassicBase.NextRoundSettings",
          "name": "_nextRoundSettings",
          "type": "tuple"
        }
      ],
      "name": "changeNextRoundSettings",
      "outputs": [],
      "stateMutability": "nonpayable",
      "type": "function"
    },
    {
      "inputs": [
        {
          "internalType": "address payable",
          "name": "_owner",
          "type": "address"
        }
      ],
      "name": "changeOwner",
      "outputs": [],
      "stateMutability": "nonpayable",
      "type": "function"
    },
    {
      "inputs": [],
      "name": "core",
      "outputs": [
        {
          "internalType": "contract KlerosCore",
          "name": "",
          "type": "address"
        }
      ],
      "stateMutability": "view",
      "type": "function"
    },
    {
      "inputs": [
        {
          "internalType": "uint256",
          "name": "coreDisputeID",
          "type": "uint256"
        }
      ],
      "name": "coreDisputeIDToActive",
      "outputs": [
        {
          "internalType": "bool",
          "name": "dispute",
          "type": "bool"
        },
        {
          "internalType": "bool",
          "name": "currentRound",
          "type": "bool"
        }
      ],
      "stateMutability": "view",
      "type": "function"
    },
    {
      "inputs": [
        {
          "internalType": "uint256",
          "name": "coreDisputeID",
          "type": "uint256"
        }
      ],
      "name": "coreDisputeIDToLocal",
      "outputs": [
        {
          "internalType": "uint256",
          "name": "localDisputeID",
          "type": "uint256"
        }
      ],
      "stateMutability": "view",
      "type": "function"
    },
    {
      "inputs": [
        {
          "internalType": "uint96",
          "name": "currentCourtID",
          "type": "uint96"
        }
      ],
      "name": "courtIDToNextRoundSettings",
      "outputs": [
        {
          "internalType": "bool",
          "name": "enabled",
          "type": "bool"
        },
        {
          "internalType": "uint96",
          "name": "jumpCourtID",
          "type": "uint96"
        },
        {
          "internalType": "uint256",
          "name": "jumpDisputeKitID",
          "type": "uint256"
        },
        {
          "internalType": "uint256",
          "name": "jumpDisputeKitIDOnCourtJump",
          "type": "uint256"
        },
        {
          "internalType": "uint256",
          "name": "nbVotes",
          "type": "uint256"
        }
      ],
      "stateMutability": "view",
      "type": "function"
    },
    {
      "inputs": [
        {
          "internalType": "uint256",
          "name": "_coreDisputeID",
          "type": "uint256"
        },
        {
          "internalType": "uint256",
          "name": "_coreRoundID",
          "type": "uint256"
        },
        {
          "internalType": "uint256",
          "name": "_numberOfChoices",
          "type": "uint256"
        },
        {
          "internalType": "bytes",
          "name": "_extraData",
          "type": "bytes"
        },
        {
          "internalType": "uint256",
          "name": "",
          "type": "uint256"
        }
      ],
      "name": "createDispute",
      "outputs": [],
      "stateMutability": "nonpayable",
      "type": "function"
    },
    {
      "inputs": [
        {
          "internalType": "uint256",
          "name": "_coreDisputeID",
          "type": "uint256"
        }
      ],
      "name": "currentRuling",
      "outputs": [
        {
          "internalType": "uint256",
          "name": "ruling",
          "type": "uint256"
        },
        {
          "internalType": "bool",
          "name": "tied",
          "type": "bool"
        },
        {
          "internalType": "bool",
          "name": "overridden",
          "type": "bool"
        }
      ],
      "stateMutability": "view",
      "type": "function"
    },
    {
      "inputs": [
        {
          "internalType": "uint256",
          "name": "",
          "type": "uint256"
        }
      ],
      "name": "disputes",
      "outputs": [
        {
          "internalType": "uint256",
          "name": "numberOfChoices",
          "type": "uint256"
        },
        {
          "internalType": "bytes",
          "name": "extraData",
          "type": "bytes"
        }
      ],
      "stateMutability": "view",
      "type": "function"
    },
    {
      "inputs": [
        {
          "internalType": "uint256",
          "name": "_coreDisputeID",
          "type": "uint256"
        },
        {
          "internalType": "uint256",
          "name": "_nonce",
          "type": "uint256"
        },
        {
          "internalType": "uint256",
          "name": "_roundNbVotes",
          "type": "uint256"
        }
      ],
      "name": "draw",
      "outputs": [
        {
          "internalType": "address",
          "name": "drawnAddress",
          "type": "address"
        },
        {
          "internalType": "uint96",
          "name": "fromSubcourtID",
          "type": "uint96"
        }
      ],
      "stateMutability": "nonpayable",
      "type": "function"
    },
    {
      "inputs": [
        {
          "internalType": "address",
          "name": "_destination",
          "type": "address"
        },
        {
          "internalType": "uint256",
          "name": "_amount",
          "type": "uint256"
        },
        {
          "internalType": "bytes",
          "name": "_data",
          "type": "bytes"
        }
      ],
      "name": "executeOwnerProposal",
      "outputs": [],
      "stateMutability": "nonpayable",
      "type": "function"
    },
    {
      "inputs": [
        {
          "internalType": "uint256",
          "name": "_coreDisputeID",
          "type": "uint256"
        },
        {
          "internalType": "uint256",
          "name": "_choice",
          "type": "uint256"
        }
      ],
      "name": "fundAppeal",
      "outputs": [],
      "stateMutability": "payable",
      "type": "function"
    },
    {
      "inputs": [
        {
          "internalType": "uint256",
          "name": "_coreDisputeID",
          "type": "uint256"
        },
        {
          "internalType": "uint256",
          "name": "_coreRoundID",
          "type": "uint256"
        }
      ],
      "name": "getCoherentCount",
      "outputs": [
        {
          "internalType": "uint256",
          "name": "",
          "type": "uint256"
        }
      ],
      "stateMutability": "view",
      "type": "function"
    },
    {
      "inputs": [
        {
          "internalType": "uint256",
          "name": "_coreDisputeID",
          "type": "uint256"
        },
        {
          "internalType": "uint256",
          "name": "_coreRoundID",
          "type": "uint256"
        },
        {
          "internalType": "uint256",
          "name": "_voteID",
          "type": "uint256"
        },
        {
          "internalType": "uint256",
          "name": "",
          "type": "uint256"
        },
        {
          "internalType": "uint256",
          "name": "",
          "type": "uint256"
        }
      ],
      "name": "getDegreeOfCoherencePenalty",
      "outputs": [
        {
          "internalType": "uint256",
          "name": "pnkCoherence",
          "type": "uint256"
        }
      ],
      "stateMutability": "view",
      "type": "function"
    },
    {
      "inputs": [
        {
          "internalType": "uint256",
          "name": "_coreDisputeID",
          "type": "uint256"
        },
        {
          "internalType": "uint256",
          "name": "_coreRoundID",
          "type": "uint256"
        },
        {
          "internalType": "uint256",
          "name": "_voteID",
          "type": "uint256"
        },
        {
          "internalType": "uint256",
          "name": "",
          "type": "uint256"
        },
        {
          "internalType": "uint256",
          "name": "",
          "type": "uint256"
        }
      ],
      "name": "getDegreeOfCoherenceReward",
      "outputs": [
        {
          "internalType": "uint256",
          "name": "pnkCoherence",
          "type": "uint256"
        },
        {
          "internalType": "uint256",
          "name": "feeCoherence",
          "type": "uint256"
        }
      ],
      "stateMutability": "view",
      "type": "function"
    },
    {
      "inputs": [
        {
          "internalType": "uint256",
          "name": "_coreDisputeID",
          "type": "uint256"
        }
      ],
      "name": "getFundedChoices",
      "outputs": [
        {
          "internalType": "uint256[]",
          "name": "fundedChoices",
          "type": "uint256[]"
        }
      ],
      "stateMutability": "view",
      "type": "function"
    },
    {
      "inputs": [
        {
          "internalType": "uint256",
          "name": "_coreDisputeID",
          "type": "uint256"
        },
        {
          "internalType": "uint256",
          "name": "_coreRoundID",
          "type": "uint256"
        }
      ],
      "name": "getLocalDisputeRoundID",
      "outputs": [
        {
          "internalType": "uint256",
          "name": "localDisputeID",
          "type": "uint256"
        },
        {
          "internalType": "uint256",
          "name": "localRoundID",
          "type": "uint256"
        }
      ],
      "stateMutability": "view",
      "type": "function"
    },
    {
      "inputs": [
        {
          "internalType": "uint256",
          "name": "",
          "type": "uint256"
        },
        {
          "internalType": "uint96",
          "name": "_currentCourtID",
          "type": "uint96"
        },
        {
          "internalType": "uint96",
          "name": "_parentCourtID",
          "type": "uint96"
        },
        {
          "internalType": "uint256",
          "name": "_currentCourtJurorsForJump",
          "type": "uint256"
        },
        {
          "internalType": "uint256",
          "name": "_currentDisputeKitID",
          "type": "uint256"
        },
        {
          "internalType": "uint256",
          "name": "_currentRoundNbVotes",
          "type": "uint256"
        }
      ],
      "name": "getNextRoundSettings",
      "outputs": [
        {
          "internalType": "uint96",
          "name": "newCourtID",
          "type": "uint96"
        },
        {
          "internalType": "uint256",
          "name": "newDisputeKitID",
          "type": "uint256"
        },
        {
          "internalType": "uint256",
          "name": "newRoundNbVotes",
          "type": "uint256"
        }
      ],
      "stateMutability": "view",
      "type": "function"
    },
    {
      "inputs": [
        {
          "internalType": "uint256",
          "name": "_localDisputeID",
          "type": "uint256"
        }
      ],
      "name": "getNumberOfRounds",
      "outputs": [
        {
          "internalType": "uint256",
          "name": "",
          "type": "uint256"
        }
      ],
      "stateMutability": "view",
      "type": "function"
    },
    {
      "inputs": [
        {
          "internalType": "uint256",
          "name": "_coreDisputeID",
          "type": "uint256"
        },
        {
          "internalType": "uint256",
          "name": "_coreRoundID",
          "type": "uint256"
        },
        {
          "internalType": "uint256",
          "name": "_choice",
          "type": "uint256"
        }
      ],
      "name": "getRoundInfo",
      "outputs": [
        {
          "internalType": "uint256",
          "name": "winningChoice",
          "type": "uint256"
        },
        {
          "internalType": "bool",
          "name": "tied",
          "type": "bool"
        },
        {
          "internalType": "uint256",
          "name": "totalVoted",
          "type": "uint256"
        },
        {
          "internalType": "uint256",
          "name": "totalCommitted",
          "type": "uint256"
        },
        {
          "internalType": "uint256",
          "name": "nbVoters",
          "type": "uint256"
        },
        {
          "internalType": "uint256",
          "name": "choiceCount",
          "type": "uint256"
        }
      ],
      "stateMutability": "view",
      "type": "function"
    },
    {
      "inputs": [
        {
          "internalType": "uint256",
          "name": "_coreDisputeID",
          "type": "uint256"
        },
        {
          "internalType": "uint256",
          "name": "_coreRoundID",
          "type": "uint256"
        },
        {
          "internalType": "uint256",
          "name": "_voteID",
          "type": "uint256"
        }
      ],
      "name": "getVoteInfo",
      "outputs": [
        {
          "internalType": "address",
          "name": "account",
          "type": "address"
        },
        {
          "internalType": "bytes32",
          "name": "commit",
          "type": "bytes32"
        },
        {
          "internalType": "uint256",
          "name": "choice",
          "type": "uint256"
        },
        {
          "internalType": "bool",
          "name": "voted",
          "type": "bool"
        }
      ],
      "stateMutability": "view",
      "type": "function"
    },
    {
      "inputs": [
        {
          "internalType": "uint256",
          "name": "_salt",
          "type": "uint256"
        },
        {
          "internalType": "string",
          "name": "_justification",
          "type": "string"
        }
      ],
      "name": "hashJustification",
      "outputs": [
        {
          "internalType": "bytes32",
          "name": "",
          "type": "bytes32"
        }
      ],
      "stateMutability": "pure",
      "type": "function"
    },
    {
      "inputs": [
        {
          "internalType": "uint256",
          "name": "_choice",
          "type": "uint256"
        },
        {
          "internalType": "uint256",
          "name": "_salt",
          "type": "uint256"
        },
        {
          "internalType": "string",
          "name": "",
          "type": "string"
        }
      ],
      "name": "hashVote",
      "outputs": [
        {
          "internalType": "bytes32",
          "name": "",
          "type": "bytes32"
        }
      ],
      "stateMutability": "view",
      "type": "function"
    },
    {
      "inputs": [
        {
          "internalType": "address",
          "name": "_owner",
          "type": "address"
        },
        {
          "internalType": "contract KlerosCore",
          "name": "_core",
          "type": "address"
        },
        {
          "internalType": "address",
          "name": "_wNative",
          "type": "address"
        }
      ],
      "name": "initialize",
      "outputs": [],
      "stateMutability": "nonpayable",
      "type": "function"
    },
    {
      "inputs": [
        {
          "internalType": "uint256",
          "name": "_coreDisputeID",
          "type": "uint256"
        }
      ],
      "name": "isAppealFunded",
      "outputs": [
        {
          "internalType": "bool",
          "name": "",
          "type": "bool"
        }
      ],
      "stateMutability": "view",
      "type": "function"
    },
    {
      "inputs": [
        {
          "internalType": "uint256",
          "name": "_coreDisputeID",
          "type": "uint256"
        },
        {
          "internalType": "uint256",
          "name": "_coreRoundID",
          "type": "uint256"
        },
        {
          "internalType": "uint256",
          "name": "_voteID",
          "type": "uint256"
        }
      ],
      "name": "isVoteActive",
      "outputs": [
        {
          "internalType": "bool",
          "name": "",
          "type": "bool"
        }
      ],
      "stateMutability": "view",
      "type": "function"
    },
    {
      "inputs": [
        {
          "internalType": "uint256",
          "name": "localDisputeID",
          "type": "uint256"
        },
        {
          "internalType": "uint256",
          "name": "localRoundID",
          "type": "uint256"
        },
        {
          "internalType": "uint256",
          "name": "voteID",
          "type": "uint256"
        }
      ],
      "name": "justificationCommitments",
      "outputs": [
        {
          "internalType": "bytes32",
          "name": "justificationCommitment",
          "type": "bytes32"
        }
      ],
      "stateMutability": "view",
      "type": "function"
    },
    {
      "inputs": [],
      "name": "owner",
      "outputs": [
        {
          "internalType": "address",
          "name": "",
          "type": "address"
        }
      ],
      "stateMutability": "view",
      "type": "function"
    },
    {
      "inputs": [],
      "name": "proxiableUUID",
      "outputs": [
        {
          "internalType": "bytes32",
          "name": "",
          "type": "bytes32"
        }
      ],
      "stateMutability": "view",
      "type": "function"
    },
    {
      "inputs": [],
      "name": "singleDrawPerJuror",
      "outputs": [
        {
          "internalType": "bool",
          "name": "",
          "type": "bool"
        }
      ],
      "stateMutability": "view",
      "type": "function"
    },
    {
      "inputs": [
        {
          "internalType": "address",
          "name": "newImplementation",
          "type": "address"
        },
        {
          "internalType": "bytes",
          "name": "data",
          "type": "bytes"
        }
      ],
      "name": "upgradeToAndCall",
      "outputs": [],
      "stateMutability": "payable",
      "type": "function"
    },
    {
      "inputs": [],
      "name": "version",
      "outputs": [
        {
          "internalType": "string",
          "name": "",
          "type": "string"
        }
      ],
      "stateMutability": "view",
      "type": "function"
    },
    {
      "inputs": [],
      "name": "wNative",
      "outputs": [
        {
          "internalType": "address",
          "name": "",
          "type": "address"
        }
      ],
      "stateMutability": "view",
      "type": "function"
    },
    {
      "inputs": [
        {
          "internalType": "uint256",
          "name": "_coreDisputeID",
          "type": "uint256"
        },
        {
          "internalType": "address payable",
          "name": "_beneficiary",
          "type": "address"
        },
        {
          "internalType": "uint256",
          "name": "_choice",
          "type": "uint256"
        }
      ],
      "name": "withdrawFeesAndRewards",
      "outputs": [
        {
          "internalType": "uint256",
          "name": "amount",
          "type": "uint256"
        }
      ],
      "stateMutability": "nonpayable",
      "type": "function"
    }
  ],
  "transactionHash": "0xee672f2490d7453dae9a02067964ea9469640adbc62ab101df5ac50c9d6fecb4",
  "args": [],
  "numDeployments": 1,
  "solcInputHash": "7120e939c323b678aae40a88db815cc2",
  "bytecode": "0x60a080604052346100c157306080525f516020613f505f395f51905f525460ff8160401c166100b3576002600160401b03196001600160401b03821601610060575b604051613e8a90816100c6823960805181818161213701526121e70152f35b6001600160401b0319166001600160401b039081175f516020613f505f395f51905f525581527fc7f505b2f371ae2175ee4913f4499e1f2633a7b5936321eed1cdaeb6115181d290602090a15f80610041565b62dc149f60e41b5f5260045ffd5b5f80fdfe6080806040526004361015610012575f80fd5b5f905f3560e01c9081630855bbe9146131be575080630baa64d11461316a5780631200aabc14613140578063149a5dc01461312d5780631c3db16d14612ffd5780631cc3423a14612fbb578063223e275714612bd75780632621b9a214612bb55780632d68efc914612b8c5780634b2f0ea0146123fe5780634f1ef2861461219657806352d1902d1461211c57806354fd4d50146120bb578063564a565d14611fce57806356fd104014611f5c5780635c92e2f614611cec5780635e34282914611a6757806365540b9614611a0557806369f3f041146119745780636a8c9194146118dd5780636d4cd8ea1461178e5780636ea4b92b1461145757806378757c18146114225780637c04034e146110075780638da5cb5b14610fe15780638e42646014610f8a5780638f06f11214610aba5780639d61ab6e14610a91578063a6f9dae114610a3a578063a7cc08fe146109c0578063b34bfaa8146109a3578063b8775a3814610839578063ba66fde7146107e2578063bc7a679d14610736578063be46760414610719578063c0c53b8b146104b9578063cbde275b1461047a578063da3beb8c14610458578063db918bb4146102ee578063e349ad30146102d1578063f2f4eb26146102aa578063f32ab92714610268578063f8abee101461022d5763fc6f8f1614610202575f80fd5b3461022a57602036600319011261022a576020610220600435613376565b5054604051908152f35b80fd5b503461022a57602036600319011261022a576040809160043581526004602052205460ff8251918181161515835260081c1615156020820152f35b503461022a576040908161027b3661333c565b9290815260036020526002828220549361029485613376565b5090835201602052205482519182526020820152f35b503461022a578060031936011261022a5760206001600160a01b0360015416604051908152f35b503461022a578060031936011261022a5760206040516127108152f35b503461022a5760c036600319011261022a576024356001600160601b0381169182820361022a5761031d6133e0565b60a43591809381958293818452600560205260408420928493805460ff8116610429575b50506001600160601b0388161561040b575b505086156103d4575b50508115610395575b506103919150604051938493846040919493926001600160601b03606083019616825260208201520152565b0390f35b90508160011b91808304600214901517156103c057600182018092116103c05750610391905f610365565b80634e487b7160e01b602492526011600452fd5b909195506001600160601b038516141580610402575b156103f857935b5f8061035c565b50608435936103f1565b508015156103ea565b91965090606435861061042257505b945f80610353565b905061041a565b96508099506001600160601b03929850600391945001549460081c169560026001890154980154925f80610341565b503461022a57602061047261046c3661333c565b90613a08565b604051908152f35b503461022a57604036600319011261022a576024359067ffffffffffffffff821161022a5760206104726104b136600486016132e2565b6004356139e1565b503461022a57606036600319011261022a576104d3613326565b6024356001600160a01b038116809103610715576044356001600160a01b0381168103610711577ff0c57e16840df040f15088dc2f81fe391c3923bec73e23a9662efc9c229c6a0e549160ff8360401c16159267ffffffffffffffff81168480610707575b1590816106e9575b506106db5767ffffffffffffffff1981166001177ff0c57e16840df040f15088dc2f81fe391c3923bec73e23a9662efc9c229c6a0e558361069c575b507ff0c57e16840df040f15088dc2f81fe391c3923bec73e23a9662efc9c229c6a0e549360ff8560401c1615610674576001600160a01b03166001600160a01b03198654161785556001600160a01b0319600154161760015574ffffffffffffffffffffffffffffffffffffffff001974ffffffffffffffffffffffffffffffffffffffff006006549260081b16911617600655610618575080f35b68ff000000000000000019167ff0c57e16840df040f15088dc2f81fe391c3923bec73e23a9662efc9c229c6a0e557fc7f505b2f371ae2175ee4913f4499e1f2633a7b5936321eed1cdaeb6115181d2602060405160018152a180f35b6004867fd7e6bcf8000000000000000000000000000000000000000000000000000000008152fd5b68ffffffffffffffffff191668010000000000000001177ff0c57e16840df040f15088dc2f81fe391c3923bec73e23a9662efc9c229c6a0e555f61057c565b62dc149f60e41b8652600486fd5b303b159150816106fc575b50155f610540565b60019150145f6106f4565b5060018110610538565b8380fd5b8280fd5b503461022a578060031936011261022a5760206040516113888152f35b503461022a5761074536613455565b926001600160a01b036001939293541633036107d457818152600460205260ff604082205416156107c557818152600460205260ff604082205460081c16156107b65760406001600160601b0361079d868686613754565b6001600160a01b03849392935193168352166020820152f35b806344da117d60e11b60049252fd5b8063535a60e960e01b60049252fd5b628448c760e31b8152600490fd5b503461022a5760ff61082c60406108266020946107fe36613455565b9491839193526003885261081482822054613376565b50928152600283018852205490613521565b5061373b565b5054166040519015158152f35b503461022a5760c036600319011261022a576108536133ca565b60a036602319011261099f5760405160a0810181811067ffffffffffffffff82111761098b5760405260243580151581036107115781526108926133e0565b916020820192835260408201606435815260608301906084358252608084019260a43584526001600160a01b03875416330361097c579160a093916001600160601b03807f71529df3fabadde972c59f3276e788dd2a815d245b46ed849651d7461b1be07397951697888a52600560205260408a20955115159560ff1981541660ff881617815581516cffffffffffffffffffffffff0082549160081b16906cffffffffffffffffffffffff00191617815583516001820155845160028201556003865191015560405195865251166020850152516040840152516060830152516080820152a280f35b600487630b2db9b760e31b8152fd5b602484634e487b7160e01b81526041600452fd5b5080fd5b503461022a578060031936011261022a576020604051614e208152f35b503461022a57610a0460406108266080936109da36613455565b94918391935260036020526109f182822054613376565b5092815260028301602052205490613521565b5060ff815460026001840154930154604051936001600160a01b038360081c168552602085015260408401521615156060820152f35b503461022a57602036600319011261022a57610a54613326565b815490336001600160a01b03831603610a82576001600160a01b036001600160a01b03199116911617815580f35b600483630b2db9b760e31b8152fd5b503461022a576040610aad610aa536613282565b505091613aef565b8151908082526020820152f35b503461022a57610ac93661346f565b8587969492959396526003602052610ae46040882054613376565b5080545f19810191908211610f765790610afd91613521565b508215610f6257610b186001600160a01b039185359061373b565b505460081c169433861460ff16885c60ff191617885d848852600460205260ff60408920541615610f5357848852600460205260ff604089205460081c1615610f44576001600160a01b03600154169060405163564a565d60e01b815286600482015260a081602481865afa908115610f39578a91610f15575b506005811015610f0157600203610ef2578589526003602052604089205490610bba82613376565b5060018101548a11610ee35780545f19810191908211610ecf5781610bde91613521565b509360405163564a565d60e01b815289600482015260a081602481855afa908d8215610e905760c0926001600160601b039260249291610e9c575b506040519485938492630fad06e960e11b84521660048301525afa908c8215610e905787938d938a938c9391610e5b575b50610e46575b50505050505050875b838110610da457507fa000893c71384499023d2d7b21234f7b9e80c78e0330f357dcd667ff578bd3a4939291816004610d059301610c988582546135f5565b90556002810190898b528160205260408b20610cb58682546135f5565b9055898b600183019384548084145f14610d2057505050506003915001805460ff8116610d13575b50505b610cf7604051948594604086526040860191613cac565b908382036020850152613352565b0390a4805c60ff1916815d80f35b60ff191690555f80610cdd565b838352816020526040832054818452826020526040842054145f14610d6b57505050506003915001805460ff811615610d5b575b5050610ce0565b60ff191660011790555f80610d54565b838352816020526040832054925260205260408d205410610d8f575b505050610ce0565b600392550160ff1981541690555f8089610d87565b866001600160a01b03610dc2610dbb84888a61372b565b358561373b565b505460081c1603610e375760ff610de4610ddd83878961372b565b358461373b565b505416610e285780886002610e06610dff600195898b61372b565b358661373b565b500155610e17610ddd82878961372b565b50805460ff19168317905501610c59565b60048963b3808bab60e01b8152fd5b600489638016bef760e01b8152fd5b610e4f96613d47565b5f808389868884610c50565b610e7d915060c03d60c011610e89575b610e7581836132a4565b8101906136ef565b5050505090505f610c4a565b503d610e6b565b604051903d90823e3d90fd5b610ebe915060a03d60a011610ec8575b610eb681836132a4565b81019061355b565b505050505f610c19565b503d610eac565b60248c634e487b7160e01b81526011600452fd5b60048b637cd5012560e11b8152fd5b60048963ebd6a5e760e01b8152fd5b60248a634e487b7160e01b81526021600452fd5b610f2e915060a03d60a011610ec857610eb681836132a4565b50509150505f610b92565b6040513d8c823e3d90fd5b6004886344da117d60e11b8152fd5b60048863535a60e960e01b8152fd5b602488634e487b7160e01b81526032600452fd5b602489634e487b7160e01b81526011600452fd5b503461022a57602036600319011261022a57610fa4613326565b6001600160a01b038254163303610fd2576001600160a01b03166001600160a01b0319600154161760015580f35b600482630b2db9b760e31b8152fd5b503461022a578060031936011261022a576001600160a01b036020915416604051908152f35b503461022a576110163661346f565b9391949290838752600460205260ff6040882054161561141357838752600460205260ff604088205460081c1615611404576001600160a01b03600154169060405163564a565d60e01b815285600482015260a081602481865afa9081156113f95789916113d5575b5060058110156113c1576002036113b25782156113a35784885260036020526040882054906110ad82613376565b50600181015489116113945780545f1981019190821161138057816110d191613521565b509360405163564a565d60e01b815288600482015260a081602481855afa908c8215610e905760c0926001600160601b03926024929161135d575b506040519485938492630fad06e960e11b84521660048301525afa908b8215610e90578a938c9389938b9391611338575b50611323575b50505050505050865b82811061128e5750908160047fa000893c71384499023d2d7b21234f7b9e80c78e0330f357dcd667ff578bd3a49493016111878382546135f5565b9055600281019087895281602052604089206111a48482546135f5565b90558760018201928354908183145f1461120a575050506003915001805460ff81166111fd575b50505b6111f76111e8604051938493604085526040850191613cac565b82810360208401523396613352565b0390a480f35b60ff191690555f806111cb565b828c528060205260408c2054828d528160205260408d2054145f14611254575050506003915001805460ff811615611244575b50506111ce565b60ff191660011790555f8061123d565b828c528060205260408c2054918c5260205260408b205410611279575b5050506111ce565b600392550160ff1981541690555f8087611271565b6112a361129c82858761372b565b358361373b565b506001600160a01b0333915460081c16036113145760ff6112c8610ddd83868861372b565b50541661130557808760026112e3610dff600195888a61372b565b5001556112f4610ddd82868861372b565b50805460ff1916831790550161114c565b60048863b3808bab60e01b8152fd5b600488638016bef760e01b8152fd5b61132c96613d47565b5f808688858784611143565b611351915060c03d60c011610e8957610e7581836132a4565b5050505090505f61113d565b611376915060a03d60a011610ec857610eb681836132a4565b505050505f61110c565b60248b634e487b7160e01b81526011600452fd5b60048a637cd5012560e11b8152fd5b600488635bd0473760e11b8152fd5b60048863ebd6a5e760e01b8152fd5b602489634e487b7160e01b81526021600452fd5b6113ee915060a03d60a011610ec857610eb681836132a4565b50509150505f61107f565b6040513d8b823e3d90fd5b6004876344da117d60e11b8152fd5b60048763535a60e960e01b8152fd5b503461022a57604060209161143636613455565b91835260398552838320908352845282822090825283522054604051908152f35b503461022a5760c036600319011261022a5760043560243567ffffffffffffffff81116107155761148c9036906004016133f6565b90916044359260643560a43567ffffffffffffffff811161178a576114b5903690600401613427565b949092821561176257848852600360205260408820546114d481613376565b50545f1981019081116116d657895b84811061172c57505050848852600460205260ff60408920541615610f5357848852600460205260ff604089205460081c1615610f4457602460a06001600160a01b03600154166040519283809263564a565d60e01b82528a60048301525afa9081156113f9578991611708575b5060058110156113c1576001036116f95781156113a35786156116ea5784885260036020526115836040892054613376565b5080545f198101919082116116d65786916115a2919695949396613521565b509489958a5b84811061164d57507f05cc2f1c94966f1c961b410a50f3d3ffb64501346753a258177097ea23707f08917f1b3ed7b3549623db07221c00a98438a92678197eb98aef0615a1fe31aa8bb2aa97611606600561161a94019182546135f5565b905560405194604086526040860191613cac565b928960208201528033940390a36111f7604051928392835260843560208401526060604084015233966060840191613657565b909193949596925061166361129c82878761372b565b506001600160a01b0333915460081c16036116c7576001611688610ddd83888861372b565b500154156116b5575b808a60016116a4610dff82958a8a61372b565b5001550190879296959493916115a8565b915f1981146113805760010191611691565b60048b638016bef760e01b8152fd5b60248a634e487b7160e01b81526011600452fd5b6004886337b5b73d60e01b8152fd5b6004886397ab7f7960e01b8152fd5b611721915060a03d60a011610ec857610eb681836132a4565b50509150505f611551565b600190838c52603960205260408c20838d5260205260408c2061175082888861372b565b358d526020528660408d2055016114e3565b6004887f2ddf7e44000000000000000000000000000000000000000000000000000000008152fd5b8680fd5b503461022a57602036600319011261022a5760043580825260036020526117b86040832054613376565b5080545f198101919082116118c957906117d191613521565b50906001600160a01b0360015416906040519063564a565d60e01b8252600482015260a081602481855afa80156118be5760246001600160601b039160c093879161189b575b506040519485938492630fad06e960e11b84521660048301525afa90811561189057926020938192611869575b50501561185f5760046005820154915b015414604051908152f35b6004815491611854565b61188391925060c03d60c011610e8957610e7581836132a4565b505050509050905f611844565b6040513d85823e3d90fd5b6118b4915060a03d60a011610ec857610eb681836132a4565b505050505f611817565b6040513d86823e3d90fd5b602484634e487b7160e01b81526011600452fd5b503461022a57606036600319011261022a576118f7613326565b60443567ffffffffffffffff8111610715576119179036906004016132e2565b906001600160a01b038354163303610a8257818392916020849351920190602435905af1611943613628565b501561194c5780f35b807f44125e5e0000000000000000000000000000000000000000000000000000000060049252fd5b503461022a576119b560c09161198936613455565b93918352600360205261199f6040842054613376565b5090835260028101602052604083205490613521565b509160018301549260ff60038201541692604060048301549160026005850154948054968352016020522054936040519586521515602086015260408501526060840152608083015260a0820152f35b503461022a57602036600319011261022a57611a22600435613677565b90604051918291602083016020845282518091526020604085019301915b818110611a4e575050500390f35b8251845285945060209384019390920191600101611a40565b503461022a5760a036600319011261022a5760043560443560643567ffffffffffffffff811161071157611a9f903690600401613427565b91906001600160a01b03600154163303611cde57838552600460205260408520805460ff1615611ca5578486526003602052611ade6040872054613376565b50905b61010161ffff198254161790558260018201556003810167ffffffffffffffff8511611c9157611b118154613392565b601f8111611c4c575b5086601f8611600114611bbf57611b88611bae93879695937fd3106f74c2d30a4b9230e756a3e78bde53865d40f6af4c479bb010ebaab58108986003948c91611bb4575b505f1989861b1c1916600189901b1790555b80546024358b526002820160205260408b2055613602565b5001600160ff198254161790556040519384938452604060208501526040840191613657565b0390a280f35b90508501355f611b5e565b8188526020882090601f198716895b818110611c3457509387969593600393611b88937fd3106f74c2d30a4b9230e756a3e78bde53865d40f6af4c479bb010ebaab581089a611bae9810611c1d575b5050600188811b019055611b70565b8601355f198a871b60f8161c191690555f80611c0e565b9192602060018192868a013581550194019201611bce565b81885260208820601f870160051c81019160208810611c87575b601f0160051c01905b818110611c7c5750611b1a565b888155600101611c6f565b9091508190611c66565b602487634e487b7160e01b81526041600452fd5b6002549068010000000000000000821015611c915760018201600255611cca82613376565b509186885260036020526040882055611ae1565b628448c760e31b8552600485fd5b503461022a57606036600319011261022a5760043560243567ffffffffffffffff811161071557611d219036906004016133f6565b8284526004602052604084205460443593929060ff1615611f4d57828552600460205260ff604086205460081c1615611f3e57602460a06001600160a01b03600154166040519283809263564a565d60e01b82528860048301525afa908115611f33578691611f0f575b506005811015611efb57600103611eec578115611edd578315611ece578285526003602052611dbd6040862054613376565b5080545f19810191908211611eba5790611dd691613521565b508590865b848110611e3c575091611e2d91611e1960057f05cc2f1c94966f1c961b410a50f3d3ffb64501346753a258177097ea23707f089695019182546135f5565b905560405192604084526040840191613cac565b9360208201528033940390a380f35b611e4a61129c82878761372b565b506001600160a01b0333915460081c1603611314576001611e6f610ddd83888861372b565b50015415611e94575b80876001611e8b610dff82958a8a61372b565b50015501611ddb565b915f198114611ea65760010191611e78565b602488634e487b7160e01b81526011600452fd5b602487634e487b7160e01b81526011600452fd5b6004856337b5b73d60e01b8152fd5b600485635bd0473760e11b8152fd5b6004856397ab7f7960e01b8152fd5b602486634e487b7160e01b81526021600452fd5b611f28915060a03d60a011610ec857610eb681836132a4565b50509150505f611d8b565b6040513d88823e3d90fd5b6004856344da117d60e11b8152fd5b60048563535a60e960e01b8152fd5b503461022a57602036600319011261022a57604060a0916001600160601b03611f836133ca565b16815260056020522080549060018101549060036002820154910154916001600160601b036040519460ff81161515865260081c166020850152604084015260608301526080820152f35b503461022a57602036600319011261022a5760043560025481101561099f57611ff690613376565b506003600182015491016040518381949083549361201385613392565b80855294600181169081156120975750600114612055575b5050612039925003836132a4565b6103916040519283928352604060208401526040830190613352565b90809394925052602082205b81831061207b575050906020612039928201015f8061202b565b6020919350806001915483858901015201910190918492612061565b9150506020925061203994915060ff191682840152151560051b8201015f8061202b565b503461022a578060031936011261022a57506103916040516120de6040826132a4565b600581527f322e302e300000000000000000000000000000000000000000000000000000006020820152604051918291602083526020830190613352565b503461022a578060031936011261022a576001600160a01b037f00000000000000000000000000000000000000000000000000000000000000001630036121875760206040517f360894a13ba1a3210667c828492db98dca3e2076cc3735a920a3ca505d382bbc8152f35b8063703e46dd60e11b60049252fd5b50604036600319011261022a576121ab613326565b9060243567ffffffffffffffff811161099f576121cc9036906004016132e2565b6001600160a01b038254163303610fd2576001600160a01b037f0000000000000000000000000000000000000000000000000000000000000000168030149081156123c9575b506123ba576001600160a01b03831690604051937f52d1902d000000000000000000000000000000000000000000000000000000008552602085600481865afa80958596612382575b5061228c57602484847f0c760937000000000000000000000000000000000000000000000000000000008252600452fd5b90917f360894a13ba1a3210667c828492db98dca3e2076cc3735a920a3ca505d382bbc850361235657839450817f360894a13ba1a3210667c828492db98dca3e2076cc3735a920a3ca505d382bbc557fbc7cd75a20ee27fd9adebab32041f755214dbc6bffa90cc0225b39da2e5c2d3b8480a28151908161230f575b5050505080f35b6020849301905af461231f613628565b501561232e57805f8080612308565b807f736436ba0000000000000000000000000000000000000000000000000000000060049252fd5b602484867faa1d49a4000000000000000000000000000000000000000000000000000000008252600452fd5b9095506020813d6020116123b2575b8161239e602093836132a4565b810103126123ae5751945f61225b565b8480fd5b3d9150612391565b60048263703e46dd60e11b8152fd5b90506001600160a01b037f360894a13ba1a3210667c828492db98dca3e2076cc3735a920a3ca505d382bbc541614155f612212565b506124083661333c565b90805f52600460205260ff60405f20541615612b7d57805f52600460205260ff60405f205460081c1615612b6e57805f52600360205261244b60405f2054613376565b5090600182019081548411612b5f576001600160a01b036001541660405163afe15cfb60e01b8152826004820152604081602481855afa9081156127a2575f905f92612b2d575b508042108015612b23575b612afb57604051631c3db16d60e01b8152846004820152606081602481305afa80156127a25788915f91612aca575b5003612a65575050612710945b84545f198101908111612a1d576124f09086613521565b50604051917ffc6f8f16000000000000000000000000000000000000000000000000000000008352846004840152602083602481875afa9283156127a2575f93612a31575b505f198301838111612a1d576007830198825f528960205260ff60405f2054166129f5576020602496604051978880927f59ec827e0000000000000000000000000000000000000000000000000000000082528b60048301525afa9586156127a2575f966129bf575b506127106125af6125b692886134f0565b04866135f5565b985f996006850190845f528160205260405f20548111612949575b6001600160a01b0333165f526008860160205260405f20855f5260205260405f206125fd8d82546135f5565b9055845f528160205260405f206126158d82546135f5565b9055845f528160205260405f20541015612893575b505050506001600a82015411612672575b50505050505080341161264c575080f35b61265961266f91346134e3565b6001600160a01b0360065460081c169033613ba9565b80f35b6009016126808382546134e3565b9055602460a06001600160a01b0360015416604051928380927f4159ad880000000000000000000000000000000000000000000000000000000082528860048301525afa9081156127a2575f9161283f575b50156128115750815f52600460205260405f2061ff001981541690555b60036001600160a01b036001541693549401833b1561280d576040519485937fc356990200000000000000000000000000000000000000000000000000000000855260048501526024840152606060448401525f9080549061275082613392565b918260648701526001811690815f146127e857506001146127ad575b50505f939183809203925af180156127a25761278d575b808080808061263b565b61279a9192505f906132a4565b5f905f612783565b6040513d5f823e3d90fd5b5f908152602081209092505b8183106127ce5750508201608401818361276c565b8054608484890101528694506020909201916001016127b9565b60ff191660848088019190915292151560051b8601909201925083915084905061276c565b5f80fd5b8454905f526002850160205260405f2055600361282d85613602565b5001805460ff191660011790556126ef565b905060a0813d60a01161288b575b8161285a60a093836132a4565b8101031261280d576080816128716128859361353a565b5061287e6060820161354e565b500161354e565b5f6126d2565b3d915061284d565b835f5260205260405f20546128ad600986019182546135f5565b9055600a840180546801000000000000000081101561293557600181018083558110156129215784915f5260205f200155825f5260205260405f20600160ff19825416179055857fed764996238e4c1c873ae3af7ae2f00f1f6f4f10b9ac7d4bbea4a764c5dea0095f80a45f80808061262a565b634e487b7160e01b5f52603260045260245ffd5b634e487b7160e01b5f52604160045260245ffd5b9a50835f528060205261296060405f20548c6134e3565b3410156129a457349a5b8b604051908682526020820152848a7fcae597f39a3ad75c2e10d46b031f023c5c2babcd58ca0491b122acda3968d4c060403394a46125d1565b835f52806020526129b960405f20548c6134e3565b9a61296a565b9095506020813d6020116129ed575b816129db602093836132a4565b8101031261280d57519461271061259e565b3d91506129ce565b7fbcdf54db000000000000000000000000000000000000000000000000000000005f5260045ffd5b634e487b7160e01b5f52601160045260245ffd5b9092506020813d602011612a5d575b81612a4d602093836132a4565b8101031261280d5751915f612535565b3d9150612a40565b80612a73612a7992426134e3565b926134e3565b6113888102908082046113881490151715612a1d5761271090041115612aa257614e20946124d9565b7f5ebfd119000000000000000000000000000000000000000000000000000000005f5260045ffd5b612aec915060603d606011612af4575b612ae481836132a4565b8101906135cf565b50505f6124cc565b503d612ada565b7fa7f0eb18000000000000000000000000000000000000000000000000000000005f5260045ffd5b508142101561249d565b9050612b51915060403d604011612b58575b612b4981836132a4565b8101906134cd565b905f612492565b503d612b3f565b637cd5012560e11b5f5260045ffd5b6344da117d60e11b5f5260045ffd5b63535a60e960e01b5f5260045ffd5b3461280d575f36600319011261280d5760206001600160a01b0360065460081c16604051908152f35b3461280d575f36600319011261280d57602060ff600654166040519015158152f35b3461280d57606036600319011261280d576004356024356001600160a01b0381169182820361280d57604435905f6001600160a01b036001541660405163564a565d60e01b815283600482015260a081602481855afa9081156127a2575f91612f97575b5015612f6f576040517f5c975abb000000000000000000000000000000000000000000000000000000008152602081600481855afa9081156127a2575f91612f35575b50612f0d57825f52600460205260ff60405f20541615612b7d57826024935f5260036020526060612cb260405f2054613376565b509260405195868092631c3db16d60e01b82528560048301525afa9384156127a2575f94612eea575b505f5b8254811015612e8157612cf18184613521565b509360078501875f528060205260ff60405f205416155f14612d545750906008612d356001938b5f5282880160205260405f208a5f5260205260405f2054906135f5565b955b8a5f520160205260405f20875f526020525f604081205501612cde565b878703612dcd5750906008612dbf600193600688018a5f528060205260405f205415155f14612dc557612db9908d5f52848a0160205260405f208c5f52602052612da760405f205460098c0154906134f0565b908c5f5260205260405f205490613503565b906135f5565b95612d37565b505f906135f5565b865f9692965260205260ff60405f20541615612def575b906008600192612d37565b9390885f526008850160205260405f20875f52602052612e1860405f20546009870154906134f0565b9160068601600a87019182541561292157825f5260205f20545f528160205260405f20549183546001101561292157600195612e71612e7794612db9936008975f528960205f2001545f5260205260405f2054906135f5565b90613503565b9591925050612de4565b6020848984898b84612e98575b8585604051908152f35b7f6caeb64c011a9c292dc0dae973b7aacc054142ede95218fa43b9c6fccccce75091612ed6604092876001600160a01b0360065460081c1691613ba9565b81519081528587820152a382808080612e8e565b612f0491945060603d606011612af457612ae481836132a4565b50509287612cdb565b7f88226c22000000000000000000000000000000000000000000000000000000005f5260045ffd5b90506020813d602011612f67575b81612f50602093836132a4565b8101031261280d57612f619061354e565b87612c7e565b3d9150612f43565b7f8a7dc9ee000000000000000000000000000000000000000000000000000000005f5260045ffd5b612fb0915060a03d60a011610ec857610eb681836132a4565b509250505087612c3b565b3461280d57606036600319011261280d5760443567ffffffffffffffff811161280d57612fec9036906004016132e2565b5060206104726024356004356135a9565b3461280d57602036600319011261280d576004355f90805f52600360205261302860405f2054613376565b5080545f198101908111612a1d5761303f91613521565b50600381015460ff169290831561312457505f5b91602460a06001600160a01b03600154166040519283809263564a565d60e01b82528660048301525afa9081156127a2575f91613100575b5060058110156130ec576004146130b7575b506060926040519283521515602083015215156040820152f35b6130c090613677565b928351600181146130d3575b509261309d565b9250505015612921576020015160609060015f846130cc565b634e487b7160e01b5f52602160045260245ffd5b613119915060a03d60a011610ec857610eb681836132a4565b50509150508561308b565b60010154613053565b3461280d576020610472610aa536613282565b3461280d57602036600319011261280d576004355f526003602052602060405f2054604051908152f35b3461280d57602036600319011261280d576004355f52600360205261319260405f2054613376565b5080545f19810191908211612a1d576020916131ad91613521565b506005810154905414604051908152f35b3461280d57602036600319011261280d57600435906040816024816001600160a01b036001541663afe15cfb60e01b82528660048301525afa9182156127a2575f915f9361325b575b5061321190613677565b51159081613227575b6020826040519015158152f35b6132369150612a7381426134e3565b906113888202918083046113881490151715612a1d576127106020920411158261321a565b61327a919350613211925060403d604011612b5857612b4981836132a4565b929091613207565b60a090600319011261280d576004359060243590604435906064359060843590565b90601f8019910116810190811067ffffffffffffffff82111761293557604052565b67ffffffffffffffff811161293557601f01601f191660200190565b81601f8201121561280d576020813591016132fc826132c6565b9261330a60405194856132a4565b8284528282011161280d57815f92602092838601378301015290565b600435906001600160a01b038216820361280d57565b604090600319011261280d576004359060243590565b805180835260209291819084018484015e5f828201840152601f01601f1916010190565b6002548110156129215760025f52600e60205f20910201905f90565b90600182811c921680156133c0575b60208310146133ac57565b634e487b7160e01b5f52602260045260245ffd5b91607f16916133a1565b600435906001600160601b038216820361280d57565b604435906001600160601b038216820361280d57565b9181601f8401121561280d5782359167ffffffffffffffff831161280d576020808501948460051b01011161280d57565b9181601f8401121561280d5782359167ffffffffffffffff831161280d576020838186019501011161280d57565b606090600319011261280d57600435906024359060443590565b9060a060031983011261280d576004359160243567ffffffffffffffff811161280d578161349f916004016133f6565b9290929160443591606435916084359067ffffffffffffffff821161280d576134ca916004016132e2565b90565b919082604091031261280d576020825192015190565b91908203918211612a1d57565b81810292918115918404141715612a1d57565b811561350d570490565b634e487b7160e01b5f52601260045260245ffd5b8054821015612921575f52601660205f20910201905f90565b51906001600160601b038216820361280d57565b5190811515820361280d57565b908160a091031261280d5761356f8161353a565b9160208201516001600160a01b038116810361280d57916040810151600581101561280d579160806135a36060840161354e565b92015190565b9060405190602082019283526040820152604081526135c96060826132a4565b51902090565b9081606091031261280d578051916134ca60406135ee6020850161354e565b930161354e565b91908201809211612a1d57565b8054680100000000000000008110156129355761362491600182018155613521565b9091565b3d15613652573d90613639826132c6565b9161364760405193846132a4565b82523d5f602084013e565b606090565b908060209392818452848401375f828201840152601f01601f1916010190565b5f52600360205261368b60405f2054613376565b5080545f19810191908211612a1d57600a916136a691613521565b5001604051808260208294549384815201905f5260205f20925f5b8181106136d65750506134ca925003826132a4565b84548352600194850194869450602090930192016136c1565b91908260c091031261280d576137048261353a565b916137116020820161354e565b9160408201519160608101519160a0608083015192015190565b91908110156129215760051b0190565b8054821015612921575f52600d60205f20910201905f90565b915091815f52600360205261376c60405f2054613376565b5080545f198101908111612a1d5761378391613521565b506001600160a01b036001541693604051947f2e1daf2f000000000000000000000000000000000000000000000000000000008652602086600481845afa9586156127a2575f9661399a575b509060a06024926040519384809263564a565d60e01b82528960048301525afa9586156127a257856001600160a01b0361385d986040955f91613977575b508551998a95869485937fd045e002000000000000000000000000000000000000000000000000000000008552600485016040919493926001600160601b03606083019616825260208201520152565b0392165afa9283156127a2575f945f94613924575b5083856001600160a01b0381161561391c5750508461389091613ce9565b156139165780549068010000000000000000821015612935576138bb826001600b940183558261373b565b50805474ffffffffffffffffffffffffffffffffffffffff001974ffffffffffffffffffffffffffffffffffffffff008860081b1691161790556001600160a01b0385165f520160205260405f20600160ff19825416179055565b505f9250565b955093505050565b945092506040843d60401161396f575b81613941604093836132a4565b8101031261280d578351936001600160a01b038516850361280d576020613968910161353a565b925f613872565b3d9150613934565b613990915060a03d60a011610ec857610eb681836132a4565b505050505f61380d565b9095506020813d6020116139d9575b816139b6602093836132a4565b8101031261280d5751906001600160a01b038216820361280d57909460a06137cf565b3d91506139a9565b906020815191012060405190602082019283526040820152604081526135c96060826132a4565b90613a3890825f526003602052613a2260405f2054613376565b50905f526002810160205260405f205490613521565b5060606001600160a01b036001541692602460405180958193631c3db16d60e01b835260048301525afa9182156127a2575f905f93613aca575b5060048201549283158015613aab575b15613a8f57505050505f90565b15613a9957505090565b600292505f520160205260405f205490565b5080158015613a825750815f526002830160205260405f205415613a82565b9050613ae691925060603d606011612af457612ae481836132a4565b5091905f613a72565b91610826613b0c92845f526003602052613a2260405f2054613376565b509060606001600160a01b036001541691602460405180948193631c3db16d60e01b835260048301525afa9081156127a2575f905f92613b86575b5060ff8354169283613b67575b5050505f14613b635761271090565b5f90565b600201541491508115613b7e575b505f8080613b54565b90505f613b75565b9050613ba1915060603d606011612af457612ae481836132a4565b50905f613b47565b6001600160a01b0316905f925f82848115613ca2575b5f92839283928392f1613c9c576001600160a01b031691823b1561280d576040517fd0e30db00000000000000000000000000000000000000000000000000000000081525f8160048186885af180156127a257613c87575b50823b156107115790604484928360405195869485937fa9059cbb000000000000000000000000000000000000000000000000000000008552600485015260248401525af18015613c7c57613c6a575050565b613c758280926132a4565b61022a5750565b6040513d84823e3d90fd5b613c949194505f906132a4565b5f925f613c17565b50505050565b6108fc9250613bbf565b90918281527f07ffffffffffffffffffffffffffffffffffffffffffffffffffffffffffffff831161280d5760209260051b809284830137010190565b60065460ff1615613d40575f526003602052613d0860405f2054613376565b509081545f198101908111612a1d57613d2b6001600160a01b0391600b94613521565b5091165f520160205260ff60405f2054161590565b5050600190565b95919382613d57919692966135a9565b5f5b848110613df057505060ff5f5c16613de857613d74916139e1565b925f5b828110613d8657505050505050565b855f52603960205260405f20825f5260205260405f20613da782858761372b565b355f526020528460405f205403613dc057600101613d77565b7f480610f3000000000000000000000000000000000000000000000000000000005f5260045ffd5b505050505050565b816001613e1c613e098a613e038d613376565b50613521565b50613e15858a8c61372b565b359061373b565b50015403613e2c57600101613d59565b7f6e6ac81a000000000000000000000000000000000000000000000000000000005f5260045ffdfea264697066735822122025283f1f1f2bda9e1eb6d88c22c388ca31a09f79fbad2f9fbae70f3b22dabce864736f6c634300081e0033f0c57e16840df040f15088dc2f81fe391c3923bec73e23a9662efc9c229c6a0e",
  "devdoc": {
    "errors": {
      "AlreadyInitialized()": [
        {
          "details": "The contract is already initialized."
        }
      ],
      "NotInitializing()": [
        {
          "details": "The contract is not initializing."
        }
      ]
    },
    "events": {
      "ChoiceFunded(uint256,uint256,uint256)": {
        "params": {
          "_choice": "The choice that is being funded.",
          "_coreDisputeID": "The identifier of the dispute in the Arbitrator contract.",
          "_coreRoundID": "The identifier of the round in the Arbitrator contract."
        }
      },
      "CommitCast(uint256,address,uint256[],bytes32)": {
        "params": {
          "_commit": "The commitment of the juror.",
          "_coreDisputeID": "The identifier of the dispute in the Arbitrator contract.",
          "_juror": "The address of the juror casting the vote commitment.",
          "_voteIDs": "The identifiers of the votes in the dispute."
        }
      },
      "CommitCastShutter(uint256,address,bytes32,bytes32,bytes32,bytes)": {
        "params": {
          "_choiceCommit": "The commitment hash without the justification.",
          "_coreDisputeID": "The identifier of the dispute in the Arbitrator contract.",
          "_encryptedVote": "The Shutter encrypted vote.",
          "_identity": "The Shutter identity used for encryption.",
          "_juror": "The address of the juror casting the vote commitment.",
          "_justificationCommit": "The commitment hash for the justification."
        }
      },
      "Contribution(uint256,uint256,uint256,address,uint256)": {
        "params": {
          "_amount": "The amount contributed.",
          "_choice": "The choice that is being funded.",
          "_contributor": "The address of the contributor.",
          "_coreDisputeID": "The identifier of the dispute in the Arbitrator contract.",
          "_coreRoundID": "The identifier of the round in the Arbitrator contract."
        }
      },
      "DisputeCreation(uint256,uint256,bytes)": {
        "params": {
          "_coreDisputeID": "The identifier of the dispute in the Arbitrator contract.",
          "_extraData": "The extra data for the dispute.",
          "_numberOfChoices": "The number of choices available in the dispute."
        }
      },
      "Initialized(uint64)": {
        "details": "Triggered when the contract has been initialized or reinitialized."
      },
      "NextRoundSettingsChanged(uint96,(bool,uint96,uint256,uint256,uint256))": {
        "params": {
          "_courtID": "The ID of the court that the settings are changed for.",
          "_nextRoundSettings": "The settings for the next round."
        }
      },
      "Upgraded(address)": {
        "params": {
          "newImplementation": "Address of the new implementation the proxy is now forwarding calls to."
        }
      },
      "VoteCast(uint256,address,uint256[],uint256,string)": {
        "params": {
          "_choice": "The choice juror voted for.",
          "_coreDisputeID": "The identifier of the dispute in the Arbitrator contract.",
          "_juror": "Address of the juror.",
          "_justification": "Justification of the choice.",
          "_voteIDs": "The identifiers of the votes in the dispute."
        }
      },
      "Withdrawal(uint256,uint256,address,uint256)": {
        "params": {
          "_amount": "The amount withdrawn.",
          "_choice": "The choice that is being funded.",
          "_contributor": "The address of the contributor.",
          "_coreDisputeID": "The identifier of the dispute in the Arbitrator contract."
        }
      }
    },
    "kind": "dev",
    "methods": {
      "areCommitsAllCast(uint256)": {
        "params": {
          "_coreDisputeID": "The ID of the dispute in Kleros Core, not in the Dispute Kit."
        },
        "returns": {
          "_0": "Whether all of the jurors have cast their commits for the last round."
        }
      },
      "areVotesAllCast(uint256)": {
        "details": "This function is to be called directly by the core contract and is not for off-chain usage.",
        "params": {
          "_coreDisputeID": "The ID of the dispute in Kleros Core, not in the Dispute Kit."
        },
        "returns": {
          "_0": "Whether all of the jurors have cast their votes for the last round."
        }
      },
      "castCommit(uint256,uint256[],bytes32)": {
        "details": "It can be called multiple times during the commit period, each call overrides the commits of the previous one. `O(n)` where `n` is the number of votes.",
        "params": {
          "_commit": "The commitment hash.",
          "_coreDisputeID": "The ID of the dispute in Kleros Core.",
          "_voteIDs": "The IDs of the votes."
        }
      },
      "castCommitShutter(uint256,uint256[],bytes32,bytes32,bytes32,bytes)": {
        "details": "It can be called multiple times during the commit period, each call overrides the commits of the previous one. `O(n)` where `n` is the number of votes.",
        "params": {
          "_choiceCommit": "The commitment hash without the justification.",
          "_coreDisputeID": "The ID of the dispute in Kleros Core.",
          "_encryptedVote": "The Shutter encrypted vote.",
          "_identity": "The Shutter identity used for encryption.",
          "_justificationCommit": "The commitment hash for justification.",
          "_voteIDs": "The IDs of the votes."
        }
      },
      "castVote(uint256,uint256[],uint256,uint256,string)": {
        "details": "`O(n)` where `n` is the number of votes.",
        "params": {
          "_choice": "The choice.",
          "_coreDisputeID": "The ID of the dispute in Kleros Core.",
          "_justification": "Justification of the choice.",
          "_salt": "The salt for the commit if the votes were hidden.",
          "_voteIDs": "The IDs of the votes."
        }
      },
      "castVoteShutter(uint256,uint256[],uint256,uint256,string)": {
        "details": "`O(n)` where `n` is the number of votes.",
        "params": {
          "_choice": "The choice.",
          "_coreDisputeID": "The ID of the dispute in Kleros Core.",
          "_justification": "Justification of the choice.",
          "_salt": "The salt for the commit if the votes were hidden.",
          "_voteIDs": "The IDs of the votes."
        }
      },
      "changeCore(address)": {
        "params": {
          "_core": "The new value for the `core` storage variable."
        }
      },
      "changeNextRoundSettings(uint96,(bool,uint96,uint256,uint256,uint256))": {
        "params": {
          "_courtID": "The ID of the court that the settings are changed for.",
          "_nextRoundSettings": "The settings for the next round."
        }
      },
      "changeOwner(address)": {
        "params": {
          "_owner": "The new value for the `owner` storage variable."
        }
      },
      "constructor": {
        "custom:oz-upgrades-unsafe-allow": "constructor"
      },
      "createDispute(uint256,uint256,uint256,bytes,uint256)": {
        "details": "Access restricted to Kleros Core only.The new `KlerosCore.Round` must be created before calling this function.",
        "params": {
          "_coreDisputeID": "The ID of the dispute in Kleros Core, not in the Dispute Kit.",
          "_coreRoundID": "The ID of the round in Kleros Core, not in the Dispute Kit.",
          "_extraData": "Additional info about the dispute, for possible use in future dispute kits.",
          "_nbVotes": "Maximal number of votes this dispute can get. Added for future-proofing.",
          "_numberOfChoices": "Number of choices of the dispute"
        }
      },
      "currentRuling(uint256)": {
        "params": {
          "_coreDisputeID": "The ID of the dispute in Kleros Core, not in the Dispute Kit."
        },
        "returns": {
          "overridden": "Whether the ruling was overridden by appeal funding or not.",
          "ruling": "The current ruling.",
          "tied": "Whether it's a tie or not."
        }
      },
      "draw(uint256,uint256,uint256)": {
        "details": "Access restricted to Kleros Core only.",
        "params": {
          "_coreDisputeID": "The ID of the dispute in Kleros Core, not in the Dispute Kit.",
          "_nonce": "Nonce.",
          "_roundNbVotes": "The number of votes in the round, including already drawn and yet to be drawn."
        },
        "returns": {
          "drawnAddress": "The drawn address.",
          "fromSubcourtID": "The subcourt ID from which the juror was drawn."
        }
      },
      "executeOwnerProposal(address,uint256,bytes)": {
        "params": {
          "_amount": "The value sent with the call.",
          "_data": "The data sent with the call.",
          "_destination": "The destination of the call."
        }
      },
      "fundAppeal(uint256,uint256)": {
        "params": {
          "_choice": "A choice that receives funding.",
          "_coreDisputeID": "Index of the dispute in Kleros Core."
        }
      },
      "getCoherentCount(uint256,uint256)": {
        "params": {
          "_coreDisputeID": "The ID of the dispute in Kleros Core, not in the Dispute Kit.",
          "_coreRoundID": "The ID of the round in Kleros Core, not in the Dispute Kit."
        },
        "returns": {
          "_0": "The number of coherent jurors."
        }
      },
      "getDegreeOfCoherencePenalty(uint256,uint256,uint256,uint256,uint256)": {
        "details": "This function is called by Kleros Core in order to determine the amount of the penalty.",
        "params": {
          "_coreDisputeID": "The ID of the dispute in Kleros Core, not in the Dispute Kit.",
          "_coreRoundID": "The ID of the round in Kleros Core, not in the Dispute Kit.",
          "_feePerJuror": "The fee per juror.",
          "_pnkAtStakePerJuror": "The PNK at stake per juror.",
          "_voteID": "The ID of the vote."
        },
        "returns": {
          "pnkCoherence": "The degree of coherence in basis points for the dispute PNK reward."
        }
      },
      "getDegreeOfCoherenceReward(uint256,uint256,uint256,uint256,uint256)": {
        "details": "This function is called by Kleros Core in order to determine the amount of the reward.",
        "params": {
          "_coreDisputeID": "The ID of the dispute in Kleros Core, not in the Dispute Kit.",
          "_coreRoundID": "The ID of the round in Kleros Core, not in the Dispute Kit.",
          "_feePerJuror": "The fee per juror.",
          "_pnkAtStakePerJuror": "The PNK at stake per juror.",
          "_voteID": "The ID of the vote."
        },
        "returns": {
          "feeCoherence": "The degree of coherence in basis points for the dispute fee reward.",
          "pnkCoherence": "The degree of coherence in basis points for the dispute PNK reward."
        }
      },
      "getFundedChoices(uint256)": {
        "params": {
          "_coreDisputeID": "The ID of the dispute in Kleros Core."
        },
        "returns": {
          "fundedChoices": "Fully funded rulings."
        }
      },
      "getLocalDisputeRoundID(uint256,uint256)": {
        "params": {
          "_coreDisputeID": "The ID of the dispute in Kleros Core.",
          "_coreRoundID": "The ID of the round in Kleros Core."
        },
        "returns": {
          "localDisputeID": "The ID of the dispute in the Dispute Kit.",
          "localRoundID": "The ID of the round in the Dispute Kit."
        }
      },
      "getNextRoundSettings(uint256,uint96,uint96,uint256,uint256,uint256)": {
        "details": "This function does not check for compatibility between `newDisputeKitID` and `newCourtID`, this is the Core's responsibility.",
        "params": {
          "_coreDisputeID": "The ID of the dispute in Kleros Core, not in the Dispute Kit.",
          "_currentCourtID": "The ID of the current court.",
          "_currentCourtJurorsForJump": "The court jump threshold defined by the current court.",
          "_currentDisputeKitID": "The ID of the current dispute kit.",
          "_currentRoundNbVotes": "The number of votes in the current round.",
          "_parentCourtID": "The ID of the parent court."
        },
        "returns": {
          "newCourtID": "Court ID after jump.",
          "newDisputeKitID": "Dispute kit ID after jump.",
          "newRoundNbVotes": "The number of votes in the new round."
        }
      },
      "getNumberOfRounds(uint256)": {
        "params": {
          "_localDisputeID": "The ID of the dispute in the Dispute Kit."
        },
        "returns": {
          "_0": "The number of rounds in the dispute."
        }
      },
      "getRoundInfo(uint256,uint256,uint256)": {
        "params": {
          "_choice": "The choice to query.",
          "_coreDisputeID": "The ID of the dispute in Kleros Core, not in the Dispute Kit.",
          "_coreRoundID": "The ID of the round in Kleros Core, not in the Dispute Kit."
        },
        "returns": {
          "choiceCount": "Number of votes cast for the queried choice.",
          "nbVoters": "Total number of voters in this round.",
          "tied": "Whether it's a tie or not.",
          "totalCommitted": "Number of jurors who cast the commit already (only relevant for hidden votes).",
          "totalVoted": "Number of jurors who cast the vote already.",
          "winningChoice": "The winning choice of this round."
        }
      },
      "getVoteInfo(uint256,uint256,uint256)": {
        "params": {
          "_coreDisputeID": "The ID of the dispute in Kleros Core.",
          "_coreRoundID": "The ID of the round in Kleros Core.",
          "_voteID": "The ID of the vote."
        },
        "returns": {
          "account": "The address of the juror who cast the vote.",
          "choice": "The choice that got the vote.",
          "commit": "The commit of the vote.",
          "voted": "Whether the vote was cast or not."
        }
      },
      "hashJustification(uint256,string)": {
        "params": {
          "_justification": "The justification for the vote",
          "_salt": "A random salt for commitment"
        },
        "returns": {
          "_0": "bytes32 The hash of the encoded justification"
        }
      },
      "hashVote(uint256,uint256,string)": {
        "details": "The unused parameters may be used by overriding contracts.",
        "params": {
          "_choice": "The choice being voted for",
          "_salt": "A random salt for commitment"
        },
        "returns": {
          "_0": "bytes32 The hash of the encoded vote parameters"
        }
      },
      "initialize(address,address,address)": {
        "params": {
          "_core": "The KlerosCore arbitrator.",
          "_owner": "The owner's address.",
          "_wNative": "The wrapped native token address, typically wETH."
        }
      },
      "isAppealFunded(uint256)": {
        "details": "This function is to be called directly by the core contract and is not for off-chain usage.",
        "params": {
          "_coreDisputeID": "The ID of the dispute in Kleros Core, not in the Dispute Kit."
        },
        "returns": {
          "_0": "Whether the appeal funding is finished."
        }
      },
      "isVoteActive(uint256,uint256,uint256)": {
        "params": {
          "_coreDisputeID": "The ID of the dispute in Kleros Core, not in the Dispute Kit.",
          "_coreRoundID": "The ID of the round in Kleros Core, not in the Dispute Kit.",
          "_voteID": "The ID of the voter."
        },
        "returns": {
          "_0": "Whether the voter was active or not."
        }
      },
      "proxiableUUID()": {
        "details": "IMPORTANT: A proxy pointing at a proxiable contract should not be considered proxiable itself, because this risks bricking a proxy that upgrades to it, by delegating to itself until out of gas. Thus it is critical that this function revert if invoked through a proxy. This is guaranteed by the if statement."
      },
      "upgradeToAndCall(address,bytes)": {
        "details": "Reverts if the execution is not performed via delegatecall or the execution context is not of a proxy with an ERC1967-compliant implementation pointing to self.",
        "params": {
          "data": "Data used in a delegate call to `newImplementation` if non-empty. This will typically be an encoded function call, and allows initializing the storage of the proxy like a Solidity constructor.",
          "newImplementation": "Address of the new implementation contract."
        }
      },
      "withdrawFeesAndRewards(uint256,address,uint256)": {
        "details": "Withdrawals are not possible if the core contract is paused.It can be called after the dispute has jumped to another dispute kit.",
        "params": {
          "_beneficiary": "The address whose rewards to withdraw.",
          "_choice": "The ruling option that the caller wants to withdraw from.",
          "_coreDisputeID": "Index of the dispute in Kleros Core contract."
        },
        "returns": {
          "amount": "The withdrawn amount."
        }
      }
    },
    "stateVariables": {
      "version": {
        "return": "Version string.",
        "returns": {
          "_0": "Version string."
        }
      }
    },
    "title": "DisputeKitShutter",
    "version": 1
  },
  "userdoc": {
    "errors": {
      "FailedDelegateCall()": [
        {
          "notice": "Failed Delegated call"
        }
      ],
      "InvalidImplementation(address)": [
        {
          "notice": "The `implementation` is not UUPS-compliant"
        }
      ],
      "UUPSUnauthorizedCallContext()": [
        {
          "notice": "The call is from an unauthorized context."
        }
      ],
      "UUPSUnsupportedProxiableUUID(bytes32)": [
        {
          "notice": "The storage `slot` is unsupported as a UUID."
        }
      ]
    },
    "events": {
      "ChoiceFunded(uint256,uint256,uint256)": {
        "notice": "To be emitted when a choice is fully funded for an appeal."
      },
      "CommitCast(uint256,address,uint256[],bytes32)": {
        "notice": "To be emitted when a vote commitment is cast."
      },
      "CommitCastShutter(uint256,address,bytes32,bytes32,bytes32,bytes)": {
        "notice": "Emitted when a vote is cast."
      },
      "Contribution(uint256,uint256,uint256,address,uint256)": {
        "notice": "To be emitted when a funding contribution is made."
      },
      "DisputeCreation(uint256,uint256,bytes)": {
        "notice": "To be emitted when a dispute is created."
      },
      "NextRoundSettingsChanged(uint96,(bool,uint96,uint256,uint256,uint256))": {
        "notice": "To be emitted when the next round settings are changed."
      },
      "Upgraded(address)": {
        "notice": "Emitted when the `implementation` has been successfully upgraded."
      },
      "VoteCast(uint256,address,uint256[],uint256,string)": {
        "notice": "Emitted when casting a vote to provide the justification of juror's choice."
      },
      "Withdrawal(uint256,uint256,address,uint256)": {
        "notice": "To be emitted when the contributed funds are withdrawn."
      }
    },
    "kind": "user",
    "methods": {
      "areCommitsAllCast(uint256)": {
        "notice": "Returns true if all of the jurors have cast their commits for the last round."
      },
      "areVotesAllCast(uint256)": {
        "notice": "Returns true if all of the jurors have cast their votes for the last round."
      },
      "castCommit(uint256,uint256[],bytes32)": {
        "notice": "Sets the caller's commit for the specified votes."
      },
      "castCommitShutter(uint256,uint256[],bytes32,bytes32,bytes32,bytes)": {
        "notice": "Sets the caller's commit for the specified votes."
      },
      "castVote(uint256,uint256[],uint256,uint256,string)": {
        "notice": "Sets the caller's choices for the specified votes."
      },
      "castVoteShutter(uint256,uint256[],uint256,uint256,string)": {
        "notice": "Version of `castVote` function designed specifically for Shutter."
      },
      "changeCore(address)": {
        "notice": "Changes the `core` storage variable."
      },
      "changeNextRoundSettings(uint96,(bool,uint96,uint256,uint256,uint256))": {
        "notice": "Changes the settings for the next round."
      },
      "changeOwner(address)": {
        "notice": "Changes the `owner` storage variable."
      },
      "createDispute(uint256,uint256,uint256,bytes,uint256)": {
        "notice": "Creates a local dispute and maps it to the dispute ID in the Core contract."
      },
      "currentRuling(uint256)": {
        "notice": "Gets the current ruling of a specified dispute."
      },
      "draw(uint256,uint256,uint256)": {
        "notice": "Draws the juror from the sortition tree. The drawn address is picked up by Kleros Core."
      },
      "executeOwnerProposal(address,uint256,bytes)": {
        "notice": "Allows the owner to call anything on behalf of the contract."
      },
      "fundAppeal(uint256,uint256)": {
        "notice": "Manages contributions, and appeals a dispute if at least two choices are fully funded. Note that the surplus deposit will be reimbursed."
      },
      "getCoherentCount(uint256,uint256)": {
        "notice": "Gets the number of jurors who are eligible to a reward in this round."
      },
      "getDegreeOfCoherencePenalty(uint256,uint256,uint256,uint256,uint256)": {
        "notice": "Gets the degree of coherence of a particular voter."
      },
      "getDegreeOfCoherenceReward(uint256,uint256,uint256,uint256,uint256)": {
        "notice": "Gets the degree of coherence of a particular voter."
      },
      "getFundedChoices(uint256)": {
        "notice": "Returns the rulings that were fully funded in the latest appeal round."
      },
      "getLocalDisputeRoundID(uint256,uint256)": {
        "notice": "Returns the local dispute ID and round ID for a given core dispute ID and core round ID."
      },
      "getNextRoundSettings(uint256,uint96,uint96,uint256,uint256,uint256)": {
        "notice": "Returns the next round settings for a given dispute."
      },
      "getNumberOfRounds(uint256)": {
        "notice": "Returns the number of rounds in a dispute."
      },
      "getRoundInfo(uint256,uint256,uint256)": {
        "notice": "Returns the info of the specified round in the core contract."
      },
      "getVoteInfo(uint256,uint256,uint256)": {
        "notice": "Returns the vote information for a given vote ID."
      },
      "hashJustification(uint256,string)": {
        "notice": "Computes the hash of a justification using ABI encoding"
      },
      "hashVote(uint256,uint256,string)": {
        "notice": "Computes the hash of a vote using ABI encoding"
      },
      "initialize(address,address,address)": {
        "notice": "Initializer."
      },
      "isAppealFunded(uint256)": {
        "notice": "Returns true if the appeal funding is finished prematurely (e.g. when losing side didn't fund)."
      },
      "isVoteActive(uint256,uint256,uint256)": {
        "notice": "Returns true if the specified voter was active in this round."
      },
      "proxiableUUID()": {
        "notice": "Implementation of the ERC1822 `proxiableUUID` function. This returns the storage slot used by the implementation. It is used to validate the implementation's compatibility when performing an upgrade."
      },
      "upgradeToAndCall(address,bytes)": {
        "notice": "Upgrade mechanism including access control and UUPS-compliance."
      },
      "version()": {
        "notice": "Returns the version of the implementation."
      },
      "withdrawFeesAndRewards(uint256,address,uint256)": {
        "notice": "Allows those contributors who attempted to fund an appeal round to withdraw any reimbursable fees or rewards after the dispute gets resolved."
      }
    },
    "notice": "Added functionality: shielded voting. Dispute kit implementation of the Kleros v1 features including: - a drawing system: proportional to staked PNK, - a vote aggregation system: plurality, - an incentive system: equal split between coherent votes, - an appeal system: fund 2 choices only, vote on any choice.",
    "version": 1
  },
  "storageLayout": {
    "storage": [
      {
        "astId": 21103,
        "contract": "src/arbitration/dispute-kits/DisputeKitShutter.sol:DisputeKitShutter",
        "label": "owner",
        "offset": 0,
        "slot": "0",
        "type": "t_address"
      },
      {
        "astId": 21106,
        "contract": "src/arbitration/dispute-kits/DisputeKitShutter.sol:DisputeKitShutter",
        "label": "core",
        "offset": 0,
        "slot": "1",
        "type": "t_contract(KlerosCore)16395"
      },
      {
        "astId": 21110,
        "contract": "src/arbitration/dispute-kits/DisputeKitShutter.sol:DisputeKitShutter",
        "label": "disputes",
        "offset": 0,
        "slot": "2",
        "type": "t_array(t_struct(Dispute)21019_storage)dyn_storage"
      },
      {
        "astId": 21114,
        "contract": "src/arbitration/dispute-kits/DisputeKitShutter.sol:DisputeKitShutter",
        "label": "coreDisputeIDToLocal",
        "offset": 0,
        "slot": "3",
        "type": "t_mapping(t_uint256,t_uint256)"
      },
      {
        "astId": 21119,
        "contract": "src/arbitration/dispute-kits/DisputeKitShutter.sol:DisputeKitShutter",
        "label": "coreDisputeIDToActive",
        "offset": 0,
        "slot": "4",
        "type": "t_mapping(t_uint256,t_struct(Active)21081_storage)"
      },
      {
        "astId": 21124,
        "contract": "src/arbitration/dispute-kits/DisputeKitShutter.sol:DisputeKitShutter",
        "label": "courtIDToNextRoundSettings",
        "offset": 0,
        "slot": "5",
        "type": "t_mapping(t_uint96,t_struct(NextRoundSettings)21092_storage)"
      },
      {
        "astId": 21126,
        "contract": "src/arbitration/dispute-kits/DisputeKitShutter.sol:DisputeKitShutter",
        "label": "singleDrawPerJuror",
        "offset": 0,
        "slot": "6",
        "type": "t_bool"
      },
      {
        "astId": 21128,
        "contract": "src/arbitration/dispute-kits/DisputeKitShutter.sol:DisputeKitShutter",
        "label": "wNative",
        "offset": 1,
        "slot": "6",
        "type": "t_address"
      },
      {
        "astId": 21132,
        "contract": "src/arbitration/dispute-kits/DisputeKitShutter.sol:DisputeKitShutter",
        "label": "__gap",
        "offset": 0,
        "slot": "7",
        "type": "t_array(t_uint256)50_storage"
      },
      {
        "astId": 24622,
        "contract": "src/arbitration/dispute-kits/DisputeKitShutter.sol:DisputeKitShutter",
        "label": "justificationCommitments",
        "offset": 0,
        "slot": "57",
        "type": "t_mapping(t_uint256,t_mapping(t_uint256,t_mapping(t_uint256,t_bytes32)))"
      }
    ],
    "types": {
      "t_address": {
        "encoding": "inplace",
        "label": "address",
        "numberOfBytes": "20"
      },
      "t_array(t_struct(Dispute)21019_storage)dyn_storage": {
        "base": "t_struct(Dispute)21019_storage",
        "encoding": "dynamic_array",
        "label": "struct DisputeKitClassicBase.Dispute[]",
        "numberOfBytes": "32"
      },
      "t_array(t_struct(Round)21063_storage)dyn_storage": {
        "base": "t_struct(Round)21063_storage",
        "encoding": "dynamic_array",
        "label": "struct DisputeKitClassicBase.Round[]",
        "numberOfBytes": "32"
      },
      "t_array(t_struct(Vote)21076_storage)dyn_storage": {
        "base": "t_struct(Vote)21076_storage",
        "encoding": "dynamic_array",
        "label": "struct DisputeKitClassicBase.Vote[]",
        "numberOfBytes": "32"
      },
      "t_array(t_uint256)10_storage": {
        "base": "t_uint256",
        "encoding": "inplace",
        "label": "uint256[10]",
        "numberOfBytes": "320"
      },
      "t_array(t_uint256)50_storage": {
        "base": "t_uint256",
        "encoding": "inplace",
        "label": "uint256[50]",
        "numberOfBytes": "1600"
      },
      "t_array(t_uint256)dyn_storage": {
        "base": "t_uint256",
        "encoding": "dynamic_array",
        "label": "uint256[]",
        "numberOfBytes": "32"
      },
      "t_bool": {
        "encoding": "inplace",
        "label": "bool",
        "numberOfBytes": "1"
      },
      "t_bytes32": {
        "encoding": "inplace",
        "label": "bytes32",
        "numberOfBytes": "32"
      },
      "t_bytes_storage": {
        "encoding": "bytes",
        "label": "bytes",
        "numberOfBytes": "32"
      },
      "t_contract(KlerosCore)16395": {
        "encoding": "inplace",
        "label": "contract KlerosCore",
        "numberOfBytes": "20"
      },
      "t_mapping(t_address,t_bool)": {
        "encoding": "mapping",
        "key": "t_address",
        "label": "mapping(address => bool)",
        "numberOfBytes": "32",
        "value": "t_bool"
      },
      "t_mapping(t_address,t_mapping(t_uint256,t_uint256))": {
        "encoding": "mapping",
        "key": "t_address",
        "label": "mapping(address => mapping(uint256 => uint256))",
        "numberOfBytes": "32",
        "value": "t_mapping(t_uint256,t_uint256)"
      },
      "t_mapping(t_uint256,t_bool)": {
        "encoding": "mapping",
        "key": "t_uint256",
        "label": "mapping(uint256 => bool)",
        "numberOfBytes": "32",
        "value": "t_bool"
      },
      "t_mapping(t_uint256,t_bytes32)": {
        "encoding": "mapping",
        "key": "t_uint256",
        "label": "mapping(uint256 => bytes32)",
        "numberOfBytes": "32",
        "value": "t_bytes32"
      },
      "t_mapping(t_uint256,t_mapping(t_uint256,t_bytes32))": {
        "encoding": "mapping",
        "key": "t_uint256",
        "label": "mapping(uint256 => mapping(uint256 => bytes32))",
        "numberOfBytes": "32",
        "value": "t_mapping(t_uint256,t_bytes32)"
      },
      "t_mapping(t_uint256,t_mapping(t_uint256,t_mapping(t_uint256,t_bytes32)))": {
        "encoding": "mapping",
        "key": "t_uint256",
        "label": "mapping(uint256 => mapping(uint256 => mapping(uint256 => bytes32)))",
        "numberOfBytes": "32",
        "value": "t_mapping(t_uint256,t_mapping(t_uint256,t_bytes32))"
      },
      "t_mapping(t_uint256,t_struct(Active)21081_storage)": {
        "encoding": "mapping",
        "key": "t_uint256",
        "label": "mapping(uint256 => struct DisputeKitClassicBase.Active)",
        "numberOfBytes": "32",
        "value": "t_struct(Active)21081_storage"
      },
      "t_mapping(t_uint256,t_uint256)": {
        "encoding": "mapping",
        "key": "t_uint256",
        "label": "mapping(uint256 => uint256)",
        "numberOfBytes": "32",
        "value": "t_uint256"
      },
      "t_mapping(t_uint96,t_struct(NextRoundSettings)21092_storage)": {
        "encoding": "mapping",
        "key": "t_uint96",
        "label": "mapping(uint96 => struct DisputeKitClassicBase.NextRoundSettings)",
        "numberOfBytes": "32",
        "value": "t_struct(NextRoundSettings)21092_storage"
      },
      "t_struct(Active)21081_storage": {
        "encoding": "inplace",
        "label": "struct DisputeKitClassicBase.Active",
        "members": [
          {
            "astId": 21078,
            "contract": "src/arbitration/dispute-kits/DisputeKitShutter.sol:DisputeKitShutter",
            "label": "dispute",
            "offset": 0,
            "slot": "0",
            "type": "t_bool"
          },
          {
            "astId": 21080,
            "contract": "src/arbitration/dispute-kits/DisputeKitShutter.sol:DisputeKitShutter",
            "label": "currentRound",
            "offset": 1,
            "slot": "0",
            "type": "t_bool"
          }
        ],
        "numberOfBytes": "32"
      },
      "t_struct(Dispute)21019_storage": {
        "encoding": "inplace",
        "label": "struct DisputeKitClassicBase.Dispute",
        "members": [
          {
            "astId": 21006,
            "contract": "src/arbitration/dispute-kits/DisputeKitShutter.sol:DisputeKitShutter",
            "label": "rounds",
            "offset": 0,
            "slot": "0",
            "type": "t_array(t_struct(Round)21063_storage)dyn_storage"
          },
          {
            "astId": 21008,
            "contract": "src/arbitration/dispute-kits/DisputeKitShutter.sol:DisputeKitShutter",
            "label": "numberOfChoices",
            "offset": 0,
            "slot": "1",
            "type": "t_uint256"
          },
          {
            "astId": 21012,
            "contract": "src/arbitration/dispute-kits/DisputeKitShutter.sol:DisputeKitShutter",
            "label": "coreRoundIDToLocal",
            "offset": 0,
            "slot": "2",
            "type": "t_mapping(t_uint256,t_uint256)"
          },
          {
            "astId": 21014,
            "contract": "src/arbitration/dispute-kits/DisputeKitShutter.sol:DisputeKitShutter",
            "label": "extraData",
            "offset": 0,
            "slot": "3",
            "type": "t_bytes_storage"
          },
          {
            "astId": 21018,
            "contract": "src/arbitration/dispute-kits/DisputeKitShutter.sol:DisputeKitShutter",
            "label": "__gap",
            "offset": 0,
            "slot": "4",
            "type": "t_array(t_uint256)10_storage"
          }
        ],
        "numberOfBytes": "448"
      },
      "t_struct(NextRoundSettings)21092_storage": {
        "encoding": "inplace",
        "label": "struct DisputeKitClassicBase.NextRoundSettings",
        "members": [
          {
            "astId": 21083,
            "contract": "src/arbitration/dispute-kits/DisputeKitShutter.sol:DisputeKitShutter",
            "label": "enabled",
            "offset": 0,
            "slot": "0",
            "type": "t_bool"
          },
          {
            "astId": 21085,
            "contract": "src/arbitration/dispute-kits/DisputeKitShutter.sol:DisputeKitShutter",
            "label": "jumpCourtID",
            "offset": 1,
            "slot": "0",
            "type": "t_uint96"
          },
          {
            "astId": 21087,
            "contract": "src/arbitration/dispute-kits/DisputeKitShutter.sol:DisputeKitShutter",
            "label": "jumpDisputeKitID",
            "offset": 0,
            "slot": "1",
            "type": "t_uint256"
          },
          {
            "astId": 21089,
            "contract": "src/arbitration/dispute-kits/DisputeKitShutter.sol:DisputeKitShutter",
            "label": "jumpDisputeKitIDOnCourtJump",
            "offset": 0,
            "slot": "2",
            "type": "t_uint256"
          },
          {
            "astId": 21091,
            "contract": "src/arbitration/dispute-kits/DisputeKitShutter.sol:DisputeKitShutter",
            "label": "nbVotes",
            "offset": 0,
            "slot": "3",
            "type": "t_uint256"
          }
        ],
        "numberOfBytes": "128"
      },
      "t_struct(Round)21063_storage": {
        "encoding": "inplace",
        "label": "struct DisputeKitClassicBase.Round",
        "members": [
          {
            "astId": 21023,
            "contract": "src/arbitration/dispute-kits/DisputeKitShutter.sol:DisputeKitShutter",
            "label": "votes",
            "offset": 0,
            "slot": "0",
            "type": "t_array(t_struct(Vote)21076_storage)dyn_storage"
          },
          {
            "astId": 21025,
            "contract": "src/arbitration/dispute-kits/DisputeKitShutter.sol:DisputeKitShutter",
            "label": "winningChoice",
            "offset": 0,
            "slot": "1",
            "type": "t_uint256"
          },
          {
            "astId": 21029,
            "contract": "src/arbitration/dispute-kits/DisputeKitShutter.sol:DisputeKitShutter",
            "label": "counts",
            "offset": 0,
            "slot": "2",
            "type": "t_mapping(t_uint256,t_uint256)"
          },
          {
            "astId": 21031,
            "contract": "src/arbitration/dispute-kits/DisputeKitShutter.sol:DisputeKitShutter",
            "label": "tied",
            "offset": 0,
            "slot": "3",
            "type": "t_bool"
          },
          {
            "astId": 21033,
            "contract": "src/arbitration/dispute-kits/DisputeKitShutter.sol:DisputeKitShutter",
            "label": "totalVoted",
            "offset": 0,
            "slot": "4",
            "type": "t_uint256"
          },
          {
            "astId": 21035,
            "contract": "src/arbitration/dispute-kits/DisputeKitShutter.sol:DisputeKitShutter",
            "label": "totalCommitted",
            "offset": 0,
            "slot": "5",
            "type": "t_uint256"
          },
          {
            "astId": 21039,
            "contract": "src/arbitration/dispute-kits/DisputeKitShutter.sol:DisputeKitShutter",
            "label": "paidFees",
            "offset": 0,
            "slot": "6",
            "type": "t_mapping(t_uint256,t_uint256)"
          },
          {
            "astId": 21043,
            "contract": "src/arbitration/dispute-kits/DisputeKitShutter.sol:DisputeKitShutter",
            "label": "hasPaid",
            "offset": 0,
            "slot": "7",
            "type": "t_mapping(t_uint256,t_bool)"
          },
          {
            "astId": 21049,
            "contract": "src/arbitration/dispute-kits/DisputeKitShutter.sol:DisputeKitShutter",
            "label": "contributions",
            "offset": 0,
            "slot": "8",
            "type": "t_mapping(t_address,t_mapping(t_uint256,t_uint256))"
          },
          {
            "astId": 21051,
            "contract": "src/arbitration/dispute-kits/DisputeKitShutter.sol:DisputeKitShutter",
            "label": "feeRewards",
            "offset": 0,
            "slot": "9",
            "type": "t_uint256"
          },
          {
            "astId": 21054,
            "contract": "src/arbitration/dispute-kits/DisputeKitShutter.sol:DisputeKitShutter",
            "label": "fundedChoices",
            "offset": 0,
            "slot": "10",
            "type": "t_array(t_uint256)dyn_storage"
          },
          {
            "astId": 21058,
            "contract": "src/arbitration/dispute-kits/DisputeKitShutter.sol:DisputeKitShutter",
            "label": "alreadyDrawn",
            "offset": 0,
            "slot": "11",
            "type": "t_mapping(t_address,t_bool)"
          },
          {
            "astId": 21062,
            "contract": "src/arbitration/dispute-kits/DisputeKitShutter.sol:DisputeKitShutter",
            "label": "__gap",
            "offset": 0,
            "slot": "12",
            "type": "t_array(t_uint256)10_storage"
          }
        ],
        "numberOfBytes": "704"
      },
      "t_struct(Vote)21076_storage": {
        "encoding": "inplace",
        "label": "struct DisputeKitClassicBase.Vote",
        "members": [
          {
            "astId": 21065,
            "contract": "src/arbitration/dispute-kits/DisputeKitShutter.sol:DisputeKitShutter",
            "label": "voted",
            "offset": 0,
            "slot": "0",
            "type": "t_bool"
          },
          {
            "astId": 21067,
            "contract": "src/arbitration/dispute-kits/DisputeKitShutter.sol:DisputeKitShutter",
            "label": "account",
            "offset": 1,
            "slot": "0",
            "type": "t_address"
          },
          {
            "astId": 21069,
            "contract": "src/arbitration/dispute-kits/DisputeKitShutter.sol:DisputeKitShutter",
            "label": "commit",
            "offset": 0,
            "slot": "1",
            "type": "t_bytes32"
          },
          {
            "astId": 21071,
            "contract": "src/arbitration/dispute-kits/DisputeKitShutter.sol:DisputeKitShutter",
            "label": "choice",
            "offset": 0,
            "slot": "2",
            "type": "t_uint256"
          },
          {
            "astId": 21075,
            "contract": "src/arbitration/dispute-kits/DisputeKitShutter.sol:DisputeKitShutter",
            "label": "__gap",
            "offset": 0,
            "slot": "3",
            "type": "t_array(t_uint256)10_storage"
          }
        ],
        "numberOfBytes": "416"
      },
      "t_uint256": {
        "encoding": "inplace",
        "label": "uint256",
        "numberOfBytes": "32"
      },
      "t_uint96": {
        "encoding": "inplace",
        "label": "uint96",
        "numberOfBytes": "12"
      }
    }
  }
}