{
  "address": "0x10f7A6f42Af606553883415bc8862643A6e63fdA",
  "abi": [
    {
      "inputs": [
        {
          "internalType": "contract IArbitratorV2",
          "name": "_arbitrator",
          "type": "address"
        },
        {
          "internalType": "bytes",
          "name": "_arbitratorExtraData",
          "type": "bytes"
        },
        {
          "internalType": "string",
          "name": "_templateData",
          "type": "string"
        },
        {
          "internalType": "string",
          "name": "_templateDataMappings",
          "type": "string"
        },
        {
          "internalType": "contract IDisputeTemplateRegistry",
          "name": "_templateRegistry",
          "type": "address"
        },
        {
          "internalType": "uint256",
          "name": "_feeTimeout",
          "type": "uint256"
        }
      ],
      "stateMutability": "nonpayable",
      "type": "constructor"
    },
    {
      "inputs": [],
      "name": "ArbitratorOnly",
      "type": "error"
    },
    {
      "inputs": [],
      "name": "BuyerFeeNotCoverArbitrationCosts",
      "type": "error"
    },
    {
      "inputs": [],
      "name": "BuyerOnly",
      "type": "error"
    },
    {
      "inputs": [],
      "name": "DeadlineNotPassed",
      "type": "error"
    },
    {
      "inputs": [],
      "name": "DisputeAlreadyCreatedOrTransactionAlreadyExecuted",
      "type": "error"
    },
    {
      "inputs": [],
      "name": "DisputeAlreadyResolved",
      "type": "error"
    },
    {
      "inputs": [],
      "name": "GovernorOnly",
      "type": "error"
    },
    {
      "inputs": [],
      "name": "InvalidRuling",
      "type": "error"
    },
    {
      "inputs": [],
      "name": "MaximumPaymentAmountExceeded",
      "type": "error"
    },
    {
      "inputs": [],
      "name": "NotWaitingForBuyerFees",
      "type": "error"
    },
    {
      "inputs": [],
      "name": "NotWaitingForSellerFees",
      "type": "error"
    },
    {
      "inputs": [],
      "name": "SellerFeeNotCoverArbitrationCosts",
      "type": "error"
    },
    {
      "inputs": [],
      "name": "SellerOnly",
      "type": "error"
    },
    {
      "inputs": [],
      "name": "TimeoutNotPassed",
      "type": "error"
    },
    {
      "inputs": [],
      "name": "TransactionDisputed",
      "type": "error"
    },
    {
      "anonymous": false,
      "inputs": [
        {
          "indexed": true,
          "internalType": "contract IArbitratorV2",
          "name": "_arbitrator",
          "type": "address"
        },
        {
          "indexed": true,
          "internalType": "uint256",
          "name": "_arbitrableDisputeID",
          "type": "uint256"
        },
        {
          "indexed": false,
          "internalType": "uint256",
          "name": "_externalDisputeID",
          "type": "uint256"
        },
        {
          "indexed": false,
          "internalType": "uint256",
          "name": "_templateId",
          "type": "uint256"
        },
        {
          "indexed": false,
          "internalType": "string",
          "name": "_templateUri",
          "type": "string"
        }
      ],
      "name": "DisputeRequest",
      "type": "event"
    },
    {
      "anonymous": false,
      "inputs": [
        {
          "indexed": true,
          "internalType": "uint256",
          "name": "_transactionID",
          "type": "uint256"
        },
        {
          "indexed": false,
          "internalType": "enum Escrow.Party",
          "name": "_party",
          "type": "uint8"
        }
      ],
      "name": "HasToPayFee",
      "type": "event"
    },
    {
      "anonymous": false,
      "inputs": [
        {
          "indexed": true,
          "internalType": "uint256",
          "name": "_transactionID",
          "type": "uint256"
        },
        {
          "indexed": false,
          "internalType": "uint256",
          "name": "_amount",
          "type": "uint256"
        },
        {
          "indexed": false,
          "internalType": "address",
          "name": "_party",
          "type": "address"
        }
      ],
      "name": "Payment",
      "type": "event"
    },
    {
      "anonymous": false,
      "inputs": [
        {
          "indexed": true,
          "internalType": "contract IArbitratorV2",
          "name": "_arbitrator",
          "type": "address"
        },
        {
          "indexed": true,
          "internalType": "uint256",
          "name": "_disputeID",
          "type": "uint256"
        },
        {
          "indexed": false,
          "internalType": "uint256",
          "name": "_ruling",
          "type": "uint256"
        }
      ],
      "name": "Ruling",
      "type": "event"
    },
    {
      "anonymous": false,
      "inputs": [
        {
          "indexed": true,
          "internalType": "uint256",
          "name": "_transactionID",
          "type": "uint256"
        },
        {
          "indexed": false,
          "internalType": "string",
          "name": "_transactionUri",
          "type": "string"
        },
        {
          "indexed": true,
          "internalType": "address",
          "name": "_buyer",
          "type": "address"
        },
        {
          "indexed": true,
          "internalType": "address",
          "name": "_seller",
          "type": "address"
        },
        {
          "indexed": false,
          "internalType": "uint256",
          "name": "_amount",
          "type": "uint256"
        },
        {
          "indexed": false,
          "internalType": "string",
          "name": "_asset",
          "type": "string"
        },
        {
          "indexed": false,
          "internalType": "uint256",
          "name": "_deadline",
          "type": "uint256"
        }
      ],
      "name": "TransactionCreated",
      "type": "event"
    },
    {
      "anonymous": false,
      "inputs": [
        {
          "indexed": true,
          "internalType": "uint256",
          "name": "_transactionID",
          "type": "uint256"
        },
        {
          "indexed": true,
          "internalType": "enum Escrow.Resolution",
          "name": "_resolution",
          "type": "uint8"
        }
      ],
      "name": "TransactionResolved",
      "type": "event"
    },
    {
      "inputs": [],
      "name": "AMOUNT_OF_CHOICES",
      "outputs": [
        {
          "internalType": "uint256",
          "name": "",
          "type": "uint256"
        }
      ],
      "stateMutability": "view",
      "type": "function"
    },
    {
      "inputs": [],
      "name": "arbitrator",
      "outputs": [
        {
          "internalType": "contract IArbitratorV2",
          "name": "",
          "type": "address"
        }
      ],
      "stateMutability": "view",
      "type": "function"
    },
    {
      "inputs": [],
      "name": "arbitratorExtraData",
      "outputs": [
        {
          "internalType": "bytes",
          "name": "",
          "type": "bytes"
        }
      ],
      "stateMutability": "view",
      "type": "function"
    },
    {
      "inputs": [
        {
          "internalType": "contract IArbitratorV2",
          "name": "_arbitrator",
          "type": "address"
        }
      ],
      "name": "changeArbitrator",
      "outputs": [],
      "stateMutability": "nonpayable",
      "type": "function"
    },
    {
      "inputs": [
        {
          "internalType": "bytes",
          "name": "_arbitratorExtraData",
          "type": "bytes"
        }
      ],
      "name": "changeArbitratorExtraData",
      "outputs": [],
      "stateMutability": "nonpayable",
      "type": "function"
    },
    {
      "inputs": [
        {
          "internalType": "string",
          "name": "_templateData",
          "type": "string"
        },
        {
          "internalType": "string",
          "name": "_templateDataMappings",
          "type": "string"
        }
      ],
      "name": "changeDisputeTemplate",
      "outputs": [],
      "stateMutability": "nonpayable",
      "type": "function"
    },
    {
      "inputs": [
        {
          "internalType": "contract IDisputeTemplateRegistry",
          "name": "_templateRegistry",
          "type": "address"
        }
      ],
      "name": "changeTemplateRegistry",
      "outputs": [],
      "stateMutability": "nonpayable",
      "type": "function"
    },
    {
      "inputs": [
        {
          "internalType": "uint256",
          "name": "_timeoutPayment",
          "type": "uint256"
        },
        {
          "internalType": "string",
          "name": "_transactionUri",
          "type": "string"
        },
        {
          "internalType": "address payable",
          "name": "_seller",
          "type": "address"
        },
        {
          "internalType": "string",
          "name": "_templateData",
          "type": "string"
        },
        {
          "internalType": "string",
          "name": "_templateDataMappings",
          "type": "string"
        }
      ],
      "name": "createTransaction",
      "outputs": [
        {
          "internalType": "uint256",
          "name": "transactionID",
          "type": "uint256"
        }
      ],
      "stateMutability": "payable",
      "type": "function"
    },
    {
      "inputs": [
        {
          "internalType": "uint256",
          "name": "",
          "type": "uint256"
        }
      ],
      "name": "disputeIDtoTransactionID",
      "outputs": [
        {
          "internalType": "uint256",
          "name": "",
          "type": "uint256"
        }
      ],
      "stateMutability": "view",
      "type": "function"
    },
    {
      "inputs": [
        {
          "internalType": "uint256",
          "name": "_transactionID",
          "type": "uint256"
        }
      ],
      "name": "executeTransaction",
      "outputs": [],
      "stateMutability": "nonpayable",
      "type": "function"
    },
    {
      "inputs": [],
      "name": "feeTimeout",
      "outputs": [
        {
          "internalType": "uint256",
          "name": "",
          "type": "uint256"
        }
      ],
      "stateMutability": "view",
      "type": "function"
    },
    {
      "inputs": [],
      "name": "getCountTransactions",
      "outputs": [
        {
          "internalType": "uint256",
          "name": "",
          "type": "uint256"
        }
      ],
      "stateMutability": "view",
      "type": "function"
    },
    {
      "inputs": [],
      "name": "governor",
      "outputs": [
        {
          "internalType": "address",
          "name": "",
          "type": "address"
        }
      ],
      "stateMutability": "view",
      "type": "function"
    },
    {
      "inputs": [
        {
          "internalType": "uint256",
          "name": "_transactionID",
          "type": "uint256"
        },
        {
          "internalType": "uint256",
          "name": "_amount",
          "type": "uint256"
        }
      ],
      "name": "pay",
      "outputs": [],
      "stateMutability": "nonpayable",
      "type": "function"
    },
    {
      "inputs": [
        {
          "internalType": "uint256",
          "name": "_transactionID",
          "type": "uint256"
        }
      ],
      "name": "payArbitrationFeeByBuyer",
      "outputs": [],
      "stateMutability": "payable",
      "type": "function"
    },
    {
      "inputs": [
        {
          "internalType": "uint256",
          "name": "_transactionID",
          "type": "uint256"
        }
      ],
      "name": "payArbitrationFeeBySeller",
      "outputs": [],
      "stateMutability": "payable",
      "type": "function"
    },
    {
      "inputs": [
        {
          "internalType": "uint256",
          "name": "_transactionID",
          "type": "uint256"
        },
        {
          "internalType": "uint256",
          "name": "_amountReimbursed",
          "type": "uint256"
        }
      ],
      "name": "reimburse",
      "outputs": [],
      "stateMutability": "nonpayable",
      "type": "function"
    },
    {
      "inputs": [
        {
          "internalType": "uint256",
          "name": "_disputeID",
          "type": "uint256"
        },
        {
          "internalType": "uint256",
          "name": "_ruling",
          "type": "uint256"
        }
      ],
      "name": "rule",
      "outputs": [],
      "stateMutability": "nonpayable",
      "type": "function"
    },
    {
      "inputs": [],
      "name": "templateId",
      "outputs": [
        {
          "internalType": "uint256",
          "name": "",
          "type": "uint256"
        }
      ],
      "stateMutability": "view",
      "type": "function"
    },
    {
      "inputs": [],
      "name": "templateRegistry",
      "outputs": [
        {
          "internalType": "contract IDisputeTemplateRegistry",
          "name": "",
          "type": "address"
        }
      ],
      "stateMutability": "view",
      "type": "function"
    },
    {
      "inputs": [
        {
          "internalType": "uint256",
          "name": "_transactionID",
          "type": "uint256"
        }
      ],
      "name": "timeOutByBuyer",
      "outputs": [],
      "stateMutability": "nonpayable",
      "type": "function"
    },
    {
      "inputs": [
        {
          "internalType": "uint256",
          "name": "_transactionID",
          "type": "uint256"
        }
      ],
      "name": "timeOutBySeller",
      "outputs": [],
      "stateMutability": "nonpayable",
      "type": "function"
    },
    {
      "inputs": [
        {
          "internalType": "uint256",
          "name": "",
          "type": "uint256"
        }
      ],
      "name": "transactions",
      "outputs": [
        {
          "internalType": "address payable",
          "name": "buyer",
          "type": "address"
        },
        {
          "internalType": "address payable",
          "name": "seller",
          "type": "address"
        },
        {
          "internalType": "uint256",
          "name": "amount",
          "type": "uint256"
        },
        {
          "internalType": "uint256",
          "name": "deadline",
          "type": "uint256"
        },
        {
          "internalType": "uint256",
          "name": "disputeID",
          "type": "uint256"
        },
        {
          "internalType": "uint256",
          "name": "buyerFee",
          "type": "uint256"
        },
        {
          "internalType": "uint256",
          "name": "sellerFee",
          "type": "uint256"
        },
        {
          "internalType": "uint256",
          "name": "lastFeePaymentTime",
          "type": "uint256"
        },
        {
          "internalType": "string",
          "name": "templateData",
          "type": "string"
        },
        {
          "internalType": "string",
          "name": "templateDataMappings",
          "type": "string"
        },
        {
          "internalType": "enum Escrow.Status",
          "name": "status",
          "type": "uint8"
        }
      ],
      "stateMutability": "view",
      "type": "function"
    }
  ],
  "transactionHash": "0x6fbc2d3d2b14f04ddf916a4bbb9654f41af20e0a5a591641be2daa13729317bd",
  "args": [
    "0xA54e7A16d7460e38a8F324eF46782FB520d58CE8",
    "0x00000000000000000000000000000000000000000000000000000000000000010000000000000000000000000000000000000000000000000000000000000003",
    {
      "$schema": "../NewDisputeTemplate.schema.json",
      "title": "Let's do this",
      "description": "We want to do this: %s",
      "question": "Does it comply with the policy?",
      "answers": [
        {
          "title": "Yes",
          "description": "Select this if you agree that it must be done."
        },
        {
          "title": "No",
          "description": "Select this if you do not agree that it must be done."
        }
      ],
      "policyURI": "/ipfs/Qmdvk...rSD6cE/policy.pdf",
      "frontendUrl": "https://kleros-v2.netlify.app/#/cases/%s/overview",
      "arbitratorChainID": "421614",
      "arbitratorAddress": "0xD08Ab99480d02bf9C092828043f611BcDFEA917b",
      "category": "Others",
      "specification": "KIP001",
      "lang": "en_US"
    },
    "disputeTemplateMapping: TODO",
    "0x596D3B09E684D62217682216e9b7a0De75933391",
    600
  ],
  "numDeployments": 2,
  "solcInputHash": "897897c4b490e62b694ee95b2c0dce7f",
  "bytecode": "0x60c06040523480156200001157600080fd5b50604051620023373803806200233783398101604081905262000034916200020d565b33608052600080546001600160a01b0319166001600160a01b038816179055600162000061868262000376565b50600280546001600160a01b0319166001600160a01b03841690811790915560a08290526040516312a6505d60e21b8152634a99417490620000aa908790879060040162000470565b6020604051808303816000875af1158015620000ca573d6000803e3d6000fd5b505050506040513d601f19601f82011682018060405250810190620000f09190620004b0565b60035550620004ca945050505050565b6001600160a01b03811681146200011657600080fd5b50565b634e487b7160e01b600052604160045260246000fd5b60005b838110156200014c57818101518382015260200162000132565b50506000910152565b60006001600160401b038084111562000172576200017262000119565b604051601f8501601f19908116603f011681019082821181831017156200019d576200019d62000119565b81604052809350858152868686011115620001b757600080fd5b620001c78660208301876200012f565b5050509392505050565b600082601f830112620001e357600080fd5b620001f48383516020850162000155565b9392505050565b8051620002088162000100565b919050565b60008060008060008060c087890312156200022757600080fd5b8651620002348162000100565b60208801519096506001600160401b03808211156200025257600080fd5b818901915089601f8301126200026757600080fd5b620002788a83516020850162000155565b965060408901519150808211156200028f57600080fd5b6200029d8a838b01620001d1565b95506060890151915080821115620002b457600080fd5b50620002c389828a01620001d1565b935050620002d460808801620001fb565b915060a087015190509295509295509295565b600181811c90821680620002fc57607f821691505b6020821081036200031d57634e487b7160e01b600052602260045260246000fd5b50919050565b601f8211156200037157600081815260208120601f850160051c810160208610156200034c5750805b601f850160051c820191505b818110156200036d5782815560010162000358565b5050505b505050565b81516001600160401b0381111562000392576200039262000119565b620003aa81620003a38454620002e7565b8462000323565b602080601f831160018114620003e25760008415620003c95750858301515b600019600386901b1c1916600185901b1785556200036d565b600085815260208120601f198616915b828110156200041357888601518255948401946001909101908401620003f2565b5085821015620004325787850151600019600388901b60f8161c191681555b5050505050600190811b01905550565b600081518084526200045c8160208601602086016200012f565b601f01601f19169290920160200192915050565b606081526000606082015260806020820152600062000493608083018562000442565b8281036040840152620004a7818562000442565b95945050505050565b600060208284031215620004c357600080fd5b5051919050565b60805160a051611e1d6200051a60003960008181610377015281816105490152610f1d015260008181610157015281816108d201528181610abd01528181610df801526111c50152611e1d6000f3fe6080604052600436106101405760003560e01c80636cc6cde1116100b6578063c5d552881161006f578063c5d5528814610399578063e77d0bd3146103b9578063ee22610b146103d9578063ef48eee6146103f9578063fc548f0814610419578063fe43a9921461043957600080fd5b80636cc6cde1146102c35780637aa77f29146102e35780639ace38c2146102f9578063a0af81f014610330578063a527aa6a14610350578063b329036b1461036557600080fd5b80632fbe3b03116101085780632fbe3b0314610210578063311a6c561461023d57806334e2672d1461025d5780633bf547241461027d5780634660ebbe146102905780634ba5845b146102b057600080fd5b80630c340a24146101455780630c7ac7b6146101965780631bd1823a146101b85780632be6d005146101da5780632e0b6422146101ed575b600080fd5b34801561015157600080fd5b506101797f000000000000000000000000000000000000000000000000000000000000000081565b6040516001600160a01b0390911681526020015b60405180910390f35b3480156101a257600080fd5b506101ab610459565b60405161018d91906116a2565b3480156101c457600080fd5b506101d86101d33660046116bc565b6104e7565b005b6101d86101e83660046116bc565b610612565b3480156101f957600080fd5b50610202600281565b60405190815260200161018d565b34801561021c57600080fd5b5061020261022b3660046116bc565b60056020526000908152604090205481565b34801561024957600080fd5b506101d86102583660046116d5565b6107c0565b34801561026957600080fd5b506101d86102783660046116f7565b6108d0565b6101d861028b3660046116bc565b610926565b34801561029c57600080fd5b506101d86102ab366004611781565b610abb565b6102026102be366004611841565b610b26565b3480156102cf57600080fd5b50600054610179906001600160a01b031681565b3480156102ef57600080fd5b5061020260035481565b34801561030557600080fd5b506103196103143660046116bc565b610c69565b60405161018d9b9a999897969594939291906118fe565b34801561033c57600080fd5b50600254610179906001600160a01b031681565b34801561035c57600080fd5b50600454610202565b34801561037157600080fd5b506102027f000000000000000000000000000000000000000000000000000000000000000081565b3480156103a557600080fd5b506101d86103b436600461198e565b610df6565b3480156103c557600080fd5b506101d86103d43660046116bc565b610ebb565b3480156103e557600080fd5b506101d86103f43660046116bc565b610fbe565b34801561040557600080fd5b506101d86104143660046116d5565b61108f565b34801561042557600080fd5b506101d8610434366004611781565b6111c3565b34801561044557600080fd5b506101d86104543660046116d5565b61122e565b60018054610466906119f2565b80601f0160208091040260200160405190810160405280929190818152602001828054610492906119f2565b80156104df5780601f106104b4576101008083540402835291602001916104df565b820191906000526020600020905b8154815290600101906020018083116104c257829003601f168201915b505050505081565b6000600482815481106104fc576104fc611a2c565b60009182526020909120600b9091020190506001600a82015460ff166004811115610529576105296118e8565b1461054757604051635ed7670b60e11b815260040160405180910390fd5b7f00000000000000000000000000000000000000000000000000000000000000008160070154426105789190611a58565b101561059757604051634799187b60e01b815260040160405180910390fd5b6005810154156105d557805460058201546040516001600160a01b039092169181156108fc0291906000818181858888f15050600060058501555050505b6105e082600261131f565b60025b60405183907f89e6168584e1de3ec704ff46376271b5481b0d9b2b0ef0ae102f0d001093e00090600090a35050565b60006004828154811061062757610627611a2c565b60009182526020909120600b9091020190506003600a82015460ff166004811115610654576106546118e8565b106106725760405163df44e9d960e01b815260040160405180910390fd5b80546001600160a01b0316331461069c5760405163e2bc376b60e01b815260040160405180910390fd5b348160050160008282546106b09190611a71565b90915550506000805460405163f7434ea960e01b81526001600160a01b039091169063f7434ea9906106e790600190600401611b01565b602060405180830381865afa158015610704573d6000803e3d6000fd5b505050506040513d601f19601f820116820180604052508101906107289190611b14565b9050808260050154101561074f57604051631a48f3db60e11b815260040160405180910390fd5b42600783015560068201548111156107b157600a8201805460ff1916600290811790915560405184917fc74b9f7dedf2887cd3c113b6d8da9cea19e55c1116e25f1f0e1b72d7543179b5916107a49190611b2d565b60405180910390a2505050565b6107bb838261148f565b505050565b6000546001600160a01b031633146107eb57604051630955f84760e31b815260040160405180910390fd5b600281111561080d576040516309efd47960e41b815260040160405180910390fd5b600082815260056020526040812054600480549192918390811061083357610833611a2c565b60009182526020909120600b9091020190506003600a82015460ff166004811115610860576108606118e8565b1461087e5760405163f10068b560e01b815260040160405180910390fd5b60005460405184815285916001600160a01b0316907f394027a5fa6e098a1191094d1719d6929b9abc535fcc0c8f448d6a4e756222769060200160405180910390a36108ca828461131f565b50505050565b7f00000000000000000000000000000000000000000000000000000000000000006001600160a01b031633146109195760405163c383977560e01b815260040160405180910390fd5b60016107bb828483611baa565b60006004828154811061093b5761093b611a2c565b60009182526020909120600b9091020190506003600a82015460ff166004811115610968576109686118e8565b106109865760405163df44e9d960e01b815260040160405180910390fd5b60018101546001600160a01b031633146109b357604051635800797f60e11b815260040160405180910390fd5b348160060160008282546109c79190611a71565b90915550506000805460405163f7434ea960e01b81526001600160a01b039091169063f7434ea9906109fe90600190600401611b01565b602060405180830381865afa158015610a1b573d6000803e3d6000fd5b505050506040513d601f19601f82011682018060405250810190610a3f9190611b14565b90508082600601541015610a665760405163818d938f60e01b815260040160405180910390fd5b42600783015560058201548111156107b157600a8201805460ff1916600190811790915560405184917fc74b9f7dedf2887cd3c113b6d8da9cea19e55c1116e25f1f0e1b72d7543179b5916107a49190611b2d565b7f00000000000000000000000000000000000000000000000000000000000000006001600160a01b03163314610b045760405163c383977560e01b815260040160405180910390fd5b600280546001600160a01b0319166001600160a01b0392909216919091179055565b600480546001810182556000918252600b027f8a35acfbc15ff81a39ae7d344fd709f28e8600b4aa8c65c6b64bfe7fe36bd19b810180546001600160a01b0319908116331782557f8a35acfbc15ff81a39ae7d344fd709f28e8600b4aa8c65c6b64bfe7fe36bd19c830180546001600160a01b0389169216919091179055347f8a35acfbc15ff81a39ae7d344fd709f28e8600b4aa8c65c6b64bfe7fe36bd19d90920191909155610bd78742611a71565b600382015560088101610bea8582611c65565b5060098101610bf98482611c65565b50600454610c0990600190611a58565b9150846001600160a01b0316336001600160a01b0316837facce36df44ab52b164cd7cbe013bca2f8a44e5a2cfe4753f5480f79a3116230989348660030154604051610c5793929190611d1f565b60405180910390a45095945050505050565b60048181548110610c7957600080fd5b60009182526020909120600b90910201805460018201546002830154600384015460048501546005860154600687015460078801546008890180546001600160a01b03998a169b50989097169895979496939592949193909291610cdc906119f2565b80601f0160208091040260200160405190810160405280929190818152602001828054610d08906119f2565b8015610d555780601f10610d2a57610100808354040283529160200191610d55565b820191906000526020600020905b815481529060010190602001808311610d3857829003601f168201915b505050505090806009018054610d6a906119f2565b80601f0160208091040260200160405190810160405280929190818152602001828054610d96906119f2565b8015610de35780601f10610db857610100808354040283529160200191610de3565b820191906000526020600020905b815481529060010190602001808311610dc657829003601f168201915b505050600a909301549192505060ff168b565b7f00000000000000000000000000000000000000000000000000000000000000006001600160a01b03163314610e3f5760405163c383977560e01b815260040160405180910390fd5b6002546040516312a6505d60e21b81526001600160a01b0390911690634a99417490610e719085908590600401611d68565b6020604051808303816000875af1158015610e90573d6000803e3d6000fd5b505050506040513d601f19601f82011682018060405250810190610eb49190611b14565b6003555050565b600060048281548110610ed057610ed0611a2c565b60009182526020909120600b9091020190506002600a82015460ff166004811115610efd57610efd6118e8565b14610f1b57604051638225aba560e01b815260040160405180910390fd5b7f0000000000000000000000000000000000000000000000000000000000000000816007015442610f4c9190611a58565b1015610f6b57604051634799187b60e01b815260040160405180910390fd5b600681015415610fac57600181015460068201546040516001600160a01b039092169181156108fc0291906000818181858888f15050600060068501555050505b610fb782600161131f565b60016105e3565b600060048281548110610fd357610fd3611a2c565b90600052602060002090600b020190508060030154421015611008576040516302eb354360e41b815260040160405180910390fd5b6000600a82015460ff166004811115611023576110236118e8565b1461104157604051634e22597f60e11b815260040160405180910390fd5b600181015460028201546040516001600160a01b039092169181156108fc0291906000818181858888f15050600060028501819055600a8501805460ff1916600417905592506105e3915050565b6000600483815481106110a4576110a4611a2c565b60009182526020909120600b9091020180549091506001600160a01b031633146110e15760405163e2bc376b60e01b815260040160405180910390fd5b6000600a82015460ff1660048111156110fc576110fc6118e8565b1461111a57604051634e22597f60e11b815260040160405180910390fd5b806002015482111561113f576040516305aafecf60e01b815260040160405180910390fd5b60018101546040516001600160a01b039091169083156108fc029084906000818181858888f19350505050508181600201600082825461117f9190611a58565b90915550506040805183815233602082015284917fd1432ca9a38d944f01b256a411861b109bc4bfe200c40d7144e919a16b86a8a8910160405180910390a2505050565b7f00000000000000000000000000000000000000000000000000000000000000006001600160a01b0316331461120c5760405163c383977560e01b815260040160405180910390fd5b600080546001600160a01b0319166001600160a01b0392909216919091179055565b60006004838154811061124357611243611a2c565b600091825260209091206001600b90920201908101549091506001600160a01b0316331461128457604051635800797f60e11b815260040160405180910390fd5b6000600a82015460ff16600481111561129f5761129f6118e8565b146112bd57604051634e22597f60e11b815260040160405180910390fd5b80600201548211156112e2576040516305aafecf60e01b815260040160405180910390fd5b80546040516001600160a01b039091169083156108fc029084906000818181858888f19350505050508181600201600082825461117f9190611a58565b60006004838154811061133457611334611a2c565b60009182526020909120600b90910201905060018203611390578054600282015460058301546001600160a01b03909216916108fc9161137391611a71565b6040518115909202916000818181858888f1935050505050611438565b600282036113c0576001810154600282015460068301546001600160a01b03909216916108fc9161137391611a71565b60006002826002015483600501546113d89190611a71565b6113e29190611da4565b82546040519192506001600160a01b03169082156108fc029083906000818181858888f150505060018401546040516001600160a01b03909116925083156108fc02915083906000818181858888f15050505050505b6000600282018190556005820181905560068201819055600a8201805460ff1916600417905560405160039185917f89e6168584e1de3ec704ff46376271b5481b0d9b2b0ef0ae102f0d001093e0009190a3505050565b6000600483815481106114a4576114a4611a2c565b600091825260208220600a600b90920201908101805460ff19166003179055905460405163c13517e160e01b81529192506001600160a01b03169063c13517e19084906114f990600290600190600401611dc6565b60206040518083038185885af1158015611517573d6000803e3d6000fd5b50505050506040513d601f19601f8201168201806040525081019061153c9190611b14565b600482018181556000918252600560205260408083208690559054915460035491516001600160a01b03909116917f8bd32f430ff060e6bd204709b3790c9807987263d3230c580dc80b5f89e27186916115ad91888252602082015260606040820181905260009082015260800190565b60405180910390a381816005015411156116055760008282600501546115d39190611a58565b6005830184905582546040519192506001600160a01b03169082156108fc029083906000818181858888f15050505050505b81816006015411156107bb5760008282600601546116239190611a58565b6006830184905560018301546040519192506001600160a01b03169082156108fc029083906000818181858888f1505050505050505050565b6000815180845260005b8181101561168257602081850181015186830182015201611666565b506000602082860101526020601f19601f83011685010191505092915050565b6020815260006116b5602083018461165c565b9392505050565b6000602082840312156116ce57600080fd5b5035919050565b600080604083850312156116e857600080fd5b50508035926020909101359150565b6000806020838503121561170a57600080fd5b823567ffffffffffffffff8082111561172257600080fd5b818501915085601f83011261173657600080fd5b81358181111561174557600080fd5b86602082850101111561175757600080fd5b60209290920196919550909350505050565b6001600160a01b038116811461177e57600080fd5b50565b60006020828403121561179357600080fd5b81356116b581611769565b634e487b7160e01b600052604160045260246000fd5b600082601f8301126117c557600080fd5b813567ffffffffffffffff808211156117e0576117e061179e565b604051601f8301601f19908116603f011681019082821181831017156118085761180861179e565b8160405283815286602085880101111561182157600080fd5b836020870160208301376000602085830101528094505050505092915050565b600080600080600060a0868803121561185957600080fd5b85359450602086013567ffffffffffffffff8082111561187857600080fd5b61188489838a016117b4565b95506040880135915061189682611769565b909350606087013590808211156118ac57600080fd5b6118b889838a016117b4565b935060808801359150808211156118ce57600080fd5b506118db888289016117b4565b9150509295509295909350565b634e487b7160e01b600052602160045260246000fd5b600061016060018060a01b03808f168452808e166020850152508b60408401528a60608401528960808401528860a08401528760c08401528660e08401528061010084015261194f8184018761165c565b9050828103610120840152611964818661165c565b91505060058310611977576119776118e8565b826101408301529c9b505050505050505050505050565b600080604083850312156119a157600080fd5b823567ffffffffffffffff808211156119b957600080fd5b6119c5868387016117b4565b935060208501359150808211156119db57600080fd5b506119e8858286016117b4565b9150509250929050565b600181811c90821680611a0657607f821691505b602082108103611a2657634e487b7160e01b600052602260045260246000fd5b50919050565b634e487b7160e01b600052603260045260246000fd5b634e487b7160e01b600052601160045260246000fd5b81810381811115611a6b57611a6b611a42565b92915050565b80820180821115611a6b57611a6b611a42565b60008154611a91816119f2565b808552602060018381168015611aae5760018114611ac857611af6565b60ff1985168884015283151560051b880183019550611af6565b866000528260002060005b85811015611aee5781548a8201860152908301908401611ad3565b890184019650505b505050505092915050565b6020815260006116b56020830184611a84565b600060208284031215611b2657600080fd5b5051919050565b6020810160038310611b4157611b416118e8565b91905290565b601f8211156107bb57600081815260208120601f850160051c81016020861015611b6e5750805b601f850160051c820191505b81811015611b8d57828155600101611b7a565b505050505050565b600019600383901b1c191660019190911b1790565b67ffffffffffffffff831115611bc257611bc261179e565b611bd683611bd083546119f2565b83611b47565b6000601f841160018114611c045760008515611bf25750838201355b611bfc8682611b95565b845550611c5e565b600083815260209020601f19861690835b82811015611c355786850135825560209485019460019092019101611c15565b5086821015611c525760001960f88860031b161c19848701351681555b505060018560011b0183555b5050505050565b815167ffffffffffffffff811115611c7f57611c7f61179e565b611c9381611c8d84546119f2565b84611b47565b602080601f831160018114611cc25760008415611cb05750858301515b611cba8582611b95565b865550611b8d565b600085815260208120601f198616915b82811015611cf157888601518255948401946001909101908401611cd2565b5085821015611d0f5787850151600019600388901b60f8161c191681555b5050505050600190811b01905550565b608081526000611d32608083018661165c565b846020840152828103604084015260068152656e617469766560d01b602082015260408101915050826060830152949350505050565b6060815260006060820152608060208201526000611d89608083018561165c565b8281036040840152611d9b818561165c565b95945050505050565b600082611dc157634e487b7160e01b600052601260045260246000fd5b500490565b828152604060208201526000611ddf6040830184611a84565b94935050505056fea26469706673582212207b8a69e6b2aa0219311c7eedf4074e3de313c888959d68e7f6807d8fc0d856d164736f6c63430008120033",
  "devdoc": {
    "details": "MultipleArbitrableTransaction contract that is compatible with V2.      Adapted from https://github.com/kleros/kleros-interaction/blob/master/contracts/standard/arbitration/MultipleArbitrableTransaction.sol",
    "events": {
      "DisputeRequest(address,uint256,uint256,uint256,string)": {
        "details": "To be emitted when a dispute is created to link the correct meta-evidence to the disputeID.",
        "params": {
          "_arbitrableDisputeID": "The identifier of the dispute in the Arbitrable contract.",
          "_arbitrator": "The arbitrator of the contract.",
          "_externalDisputeID": "An identifier created outside Kleros by the protocol requesting arbitration.",
          "_templateId": "The identifier of the dispute template. Should not be used with _templateUri.",
          "_templateUri": "The URI to the dispute template. For example on IPFS: starting with '/ipfs/'. Should not be used with _templateId."
        }
      },
      "HasToPayFee(uint256,uint8)": {
        "details": "Indicate that a party has to pay a fee or would otherwise be considered as losing.",
        "params": {
          "_party": "The party who has to pay.",
          "_transactionID": "The index of the transaction."
        }
      },
      "Payment(uint256,uint256,address)": {
        "details": "To be emitted when a party pays or reimburses the other.",
        "params": {
          "_amount": "The amount paid.",
          "_party": "The party that paid.",
          "_transactionID": "The index of the transaction."
        }
      },
      "Ruling(address,uint256,uint256)": {
        "details": "To be raised when a ruling is given.",
        "params": {
          "_arbitrator": "The arbitrator giving the ruling.",
          "_disputeID": "The identifier of the dispute in the Arbitrator contract.",
          "_ruling": "The ruling which was given."
        }
      },
      "TransactionCreated(uint256,string,address,address,uint256,string,uint256)": {
        "details": "Emitted when a transaction is created.",
        "params": {
          "_amount": "The initial amount in the transaction.",
          "_asset": "The asset used (\"native\" for native chain token).",
          "_buyer": "The address of the buyer.",
          "_deadline": "The deadline of the transaction.",
          "_seller": "The address of the seller.",
          "_transactionID": "The index of the transaction.",
          "_transactionUri": "The IPFS Uri Hash of the transaction."
        }
      },
      "TransactionResolved(uint256,uint8)": {
        "details": "To be emitted when a transaction is resolved, either by its      execution, a timeout or because a ruling was enforced.",
        "params": {
          "_resolution": "Short description of what caused the transaction to be solved.",
          "_transactionID": "The ID of the respective transaction."
        }
      }
    },
    "kind": "dev",
    "methods": {
      "constructor": {
        "details": "Constructor.",
        "params": {
          "_arbitrator": "The arbitrator of the contract.",
          "_arbitratorExtraData": "Extra data for the arbitrator.",
          "_feeTimeout": "Arbitration fee timeout for the parties.",
          "_templateData": "The dispute template data.",
          "_templateDataMappings": "The dispute template data mappings.",
          "_templateRegistry": "The dispute template registry."
        }
      },
      "createTransaction(uint256,string,address,string,string)": {
        "details": "Create a transaction.",
        "params": {
          "_seller": "The recipient of the transaction.",
          "_templateData": "The dispute template data.",
          "_templateDataMappings": "The dispute template data mappings.",
          "_timeoutPayment": "Time after which a party can automatically execute the arbitrable transaction.",
          "_transactionUri": "The IPFS Uri Hash of the transaction."
        },
        "returns": {
          "transactionID": "The index of the transaction."
        }
      },
      "executeTransaction(uint256)": {
        "details": "Transfer the transaction's amount to the seller if the timeout has passed.",
        "params": {
          "_transactionID": "The index of the transaction."
        }
      },
      "getCountTransactions()": {
        "details": "Getter to know the count of transactions.",
        "returns": {
          "_0": "The count of transactions."
        }
      },
      "pay(uint256,uint256)": {
        "details": "Pay seller. To be called if the good or service is provided.",
        "params": {
          "_amount": "Amount to pay in wei.",
          "_transactionID": "The index of the transaction."
        }
      },
      "payArbitrationFeeByBuyer(uint256)": {
        "details": "Pay the arbitration fee to raise a dispute. To be called by the buyer. Note that the arbitrator can have createDispute throw, which will make      this function throw and therefore lead to a party being timed-out.      This is not a vulnerability as the arbitrator can rule in favor of one party anyway.",
        "params": {
          "_transactionID": "The index of the transaction."
        }
      },
      "payArbitrationFeeBySeller(uint256)": {
        "details": "Pay the arbitration fee to raise a dispute. To be called by the seller. Note that this function mirrors payArbitrationFeeByBuyer.",
        "params": {
          "_transactionID": "The index of the transaction."
        }
      },
      "reimburse(uint256,uint256)": {
        "details": "Reimburse buyer. To be called if the good or service can't be fully provided.",
        "params": {
          "_amountReimbursed": "Amount to reimburse in wei.",
          "_transactionID": "The index of the transaction."
        }
      },
      "rule(uint256,uint256)": {
        "details": "Give a ruling for a dispute. Must be called by the arbitrator to enforce the final ruling.      The purpose of this function is to ensure that the address calling it has the right to rule on the contract.",
        "params": {
          "_disputeID": "ID of the dispute in the Arbitrator contract.",
          "_ruling": "Ruling given by the arbitrator. Note that 0 is reserved for \"Refuse to arbitrate\"."
        }
      },
      "timeOutByBuyer(uint256)": {
        "details": "Reimburse buyer if seller fails to pay the fee.",
        "params": {
          "_transactionID": "The index of the transaction."
        }
      },
      "timeOutBySeller(uint256)": {
        "details": "Pay seller if buyer fails to pay the fee.",
        "params": {
          "_transactionID": "The index of the transaction."
        }
      }
    },
    "title": "Escrow for a sale paid in ETH and no fees.",
    "version": 1
  },
  "userdoc": {
    "kind": "user",
    "methods": {},
    "version": 1
  },
  "storageLayout": {
    "storage": [
      {
        "astId": 924,
        "contract": "src/arbitration/arbitrables/Escrow.sol:Escrow",
        "label": "arbitrator",
        "offset": 0,
        "slot": "0",
        "type": "t_contract(IArbitratorV2)2146"
      },
      {
        "astId": 926,
        "contract": "src/arbitration/arbitrables/Escrow.sol:Escrow",
        "label": "arbitratorExtraData",
        "offset": 0,
        "slot": "1",
        "type": "t_bytes_storage"
      },
      {
        "astId": 929,
        "contract": "src/arbitration/arbitrables/Escrow.sol:Escrow",
        "label": "templateRegistry",
        "offset": 0,
        "slot": "2",
        "type": "t_contract(IDisputeTemplateRegistry)2172"
      },
      {
        "astId": 931,
        "contract": "src/arbitration/arbitrables/Escrow.sol:Escrow",
        "label": "templateId",
        "offset": 0,
        "slot": "3",
        "type": "t_uint256"
      },
      {
        "astId": 937,
        "contract": "src/arbitration/arbitrables/Escrow.sol:Escrow",
        "label": "transactions",
        "offset": 0,
        "slot": "4",
        "type": "t_array(t_struct(Transaction)916_storage)dyn_storage"
      },
      {
        "astId": 941,
        "contract": "src/arbitration/arbitrables/Escrow.sol:Escrow",
        "label": "disputeIDtoTransactionID",
        "offset": 0,
        "slot": "5",
        "type": "t_mapping(t_uint256,t_uint256)"
      }
    ],
    "types": {
      "t_address_payable": {
        "encoding": "inplace",
        "label": "address payable",
        "numberOfBytes": "20"
      },
      "t_array(t_struct(Transaction)916_storage)dyn_storage": {
        "base": "t_struct(Transaction)916_storage",
        "encoding": "dynamic_array",
        "label": "struct Escrow.Transaction[]",
        "numberOfBytes": "32"
      },
      "t_bytes_storage": {
        "encoding": "bytes",
        "label": "bytes",
        "numberOfBytes": "32"
      },
      "t_contract(IArbitratorV2)2146": {
        "encoding": "inplace",
        "label": "contract IArbitratorV2",
        "numberOfBytes": "20"
      },
      "t_contract(IDisputeTemplateRegistry)2172": {
        "encoding": "inplace",
        "label": "contract IDisputeTemplateRegistry",
        "numberOfBytes": "20"
      },
      "t_enum(Status)887": {
        "encoding": "inplace",
        "label": "enum Escrow.Status",
        "numberOfBytes": "1"
      },
      "t_mapping(t_uint256,t_uint256)": {
        "encoding": "mapping",
        "key": "t_uint256",
        "label": "mapping(uint256 => uint256)",
        "numberOfBytes": "32",
        "value": "t_uint256"
      },
      "t_string_storage": {
        "encoding": "bytes",
        "label": "string",
        "numberOfBytes": "32"
      },
      "t_struct(Transaction)916_storage": {
        "encoding": "inplace",
        "label": "struct Escrow.Transaction",
        "members": [
          {
            "astId": 894,
            "contract": "src/arbitration/arbitrables/Escrow.sol:Escrow",
            "label": "buyer",
            "offset": 0,
            "slot": "0",
            "type": "t_address_payable"
          },
          {
            "astId": 896,
            "contract": "src/arbitration/arbitrables/Escrow.sol:Escrow",
            "label": "seller",
            "offset": 0,
            "slot": "1",
            "type": "t_address_payable"
          },
          {
            "astId": 898,
            "contract": "src/arbitration/arbitrables/Escrow.sol:Escrow",
            "label": "amount",
            "offset": 0,
            "slot": "2",
            "type": "t_uint256"
          },
          {
            "astId": 900,
            "contract": "src/arbitration/arbitrables/Escrow.sol:Escrow",
            "label": "deadline",
            "offset": 0,
            "slot": "3",
            "type": "t_uint256"
          },
          {
            "astId": 902,
            "contract": "src/arbitration/arbitrables/Escrow.sol:Escrow",
            "label": "disputeID",
            "offset": 0,
            "slot": "4",
            "type": "t_uint256"
          },
          {
            "astId": 904,
            "contract": "src/arbitration/arbitrables/Escrow.sol:Escrow",
            "label": "buyerFee",
            "offset": 0,
            "slot": "5",
            "type": "t_uint256"
          },
          {
            "astId": 906,
            "contract": "src/arbitration/arbitrables/Escrow.sol:Escrow",
            "label": "sellerFee",
            "offset": 0,
            "slot": "6",
            "type": "t_uint256"
          },
          {
            "astId": 908,
            "contract": "src/arbitration/arbitrables/Escrow.sol:Escrow",
            "label": "lastFeePaymentTime",
            "offset": 0,
            "slot": "7",
            "type": "t_uint256"
          },
          {
            "astId": 910,
            "contract": "src/arbitration/arbitrables/Escrow.sol:Escrow",
            "label": "templateData",
            "offset": 0,
            "slot": "8",
            "type": "t_string_storage"
          },
          {
            "astId": 912,
            "contract": "src/arbitration/arbitrables/Escrow.sol:Escrow",
            "label": "templateDataMappings",
            "offset": 0,
            "slot": "9",
            "type": "t_string_storage"
          },
          {
            "astId": 915,
            "contract": "src/arbitration/arbitrables/Escrow.sol:Escrow",
            "label": "status",
            "offset": 0,
            "slot": "10",
            "type": "t_enum(Status)887"
          }
        ],
        "numberOfBytes": "352"
      },
      "t_uint256": {
        "encoding": "inplace",
        "label": "uint256",
        "numberOfBytes": "32"
      }
    }
  }
}