{
  "address": "0xEBd4a08A1f02F0661637CA7D1a920F52A52B3487",
  "abi": [
    {
      "inputs": [],
      "stateMutability": "nonpayable",
      "type": "constructor"
    },
    {
      "inputs": [],
      "name": "AlreadyInitialized",
      "type": "error"
    },
    {
      "inputs": [],
      "name": "FailedDelegateCall",
      "type": "error"
    },
    {
      "inputs": [
        {
          "internalType": "address",
          "name": "implementation",
          "type": "address"
        }
      ],
      "name": "InvalidImplementation",
      "type": "error"
    },
    {
      "inputs": [],
      "name": "NotInitializing",
      "type": "error"
    },
    {
      "inputs": [],
      "name": "OwnerOnly",
      "type": "error"
    },
    {
      "inputs": [],
      "name": "UUPSUnauthorizedCallContext",
      "type": "error"
    },
    {
      "inputs": [
        {
          "internalType": "bytes32",
          "name": "slot",
          "type": "bytes32"
        }
      ],
      "name": "UUPSUnsupportedProxiableUUID",
      "type": "error"
    },
    {
      "anonymous": false,
      "inputs": [
        {
          "indexed": true,
          "internalType": "uint256",
          "name": "_arbitratorDisputeID",
          "type": "uint256"
        },
        {
          "indexed": true,
          "internalType": "address",
          "name": "_party",
          "type": "address"
        },
        {
          "indexed": false,
          "internalType": "string",
          "name": "_evidence",
          "type": "string"
        }
      ],
      "name": "Evidence",
      "type": "event"
    },
    {
      "anonymous": false,
      "inputs": [
        {
          "indexed": false,
          "internalType": "uint64",
          "name": "version",
          "type": "uint64"
        }
      ],
      "name": "Initialized",
      "type": "event"
    },
    {
      "anonymous": false,
      "inputs": [
        {
          "indexed": true,
          "internalType": "address",
          "name": "newImplementation",
          "type": "address"
        }
      ],
      "name": "Upgraded",
      "type": "event"
    },
    {
      "inputs": [
        {
          "internalType": "address",
          "name": "_owner",
          "type": "address"
        }
      ],
      "name": "initialize",
      "outputs": [],
      "stateMutability": "nonpayable",
      "type": "function"
    },
    {
      "inputs": [],
      "name": "owner",
      "outputs": [
        {
          "internalType": "address",
          "name": "",
          "type": "address"
        }
      ],
      "stateMutability": "view",
      "type": "function"
    },
    {
      "inputs": [],
      "name": "proxiableUUID",
      "outputs": [
        {
          "internalType": "bytes32",
          "name": "",
          "type": "bytes32"
        }
      ],
      "stateMutability": "view",
      "type": "function"
    },
    {
      "inputs": [
        {
          "internalType": "uint256",
          "name": "_arbitratorDisputeID",
          "type": "uint256"
        },
        {
          "internalType": "string",
          "name": "_evidence",
          "type": "string"
        }
      ],
      "name": "submitEvidence",
      "outputs": [],
      "stateMutability": "nonpayable",
      "type": "function"
    },
    {
      "inputs": [
        {
          "internalType": "address",
          "name": "newImplementation",
          "type": "address"
        },
        {
          "internalType": "bytes",
          "name": "data",
          "type": "bytes"
        }
      ],
      "name": "upgradeToAndCall",
      "outputs": [],
      "stateMutability": "payable",
      "type": "function"
    },
    {
      "inputs": [],
      "name": "version",
      "outputs": [
        {
          "internalType": "string",
          "name": "",
          "type": "string"
        }
      ],
      "stateMutability": "view",
      "type": "function"
    }
  ],
  "transactionHash": "0x57ef57a9b3afdf544a54b0a693c6f2b654d32e6fa08ec6d30e990650b5f1236c",
  "args": [],
  "numDeployments": 1,
  "solcInputHash": "7120e939c323b678aae40a88db815cc2",
  "bytecode": "0x60a080604052346100c157306080525f5160206108395f395f51905f525460ff8160401c166100b3576002600160401b03196001600160401b03821601610060575b60405161077390816100c6823960805181818161037e01526104820152f35b6001600160401b0319166001600160401b039081175f5160206108395f395f51905f525581527fc7f505b2f371ae2175ee4913f4499e1f2633a7b5936321eed1cdaeb6115181d290602090a15f80610041565b62dc149f60e41b5f5260045ffd5b5f80fdfe60806040526004361015610011575f80fd5b5f3560e01c80634f1ef286146103f657806352d1902d1461036457806354fd4d50146102ee5780638da5cb5b146102c9578063a6a7f0eb146102235763c4d66de81461005b575f80fd5b3461021f57602036600319011261021f576100746106bc565b7ff0c57e16840df040f15088dc2f81fe391c3923bec73e23a9662efc9c229c6a0e5460ff8160401c16159167ffffffffffffffff82168380610215575b1590816101f7575b506101e95767ffffffffffffffff1982166001177ff0c57e16840df040f15088dc2f81fe391c3923bec73e23a9662efc9c229c6a0e556001600160a01b0391836101aa575b50167fffffffffffffffffffffffff00000000000000000000000000000000000000005f5416175f5561012d57005b68ff0000000000000000197ff0c57e16840df040f15088dc2f81fe391c3923bec73e23a9662efc9c229c6a0e54167ff0c57e16840df040f15088dc2f81fe391c3923bec73e23a9662efc9c229c6a0e557fc7f505b2f371ae2175ee4913f4499e1f2633a7b5936321eed1cdaeb6115181d2602060405160018152a1005b68ffffffffffffffffff191668010000000000000001177ff0c57e16840df040f15088dc2f81fe391c3923bec73e23a9662efc9c229c6a0e555f6100fe565b62dc149f60e41b5f5260045ffd5b303b1591508161020a575b50155f6100b9565b60019150145f610202565b50600181106100b1565b5f80fd5b3461021f57604036600319011261021f5760243567ffffffffffffffff811161021f573660238201121561021f57806004013567ffffffffffffffff811161021f57366024828401011161021f5780602460405193602085528260208601520160408401375f604082840101527f39935cf45244bc296a03d6aef1cf17779033ee27090ce9c68d432367ce106996339260408160043594601f80199101168101030190a3005b3461021f575f36600319011261021f5760206001600160a01b035f5416604051908152f35b3461021f575f36600319011261021f57604080519061030d81836106d2565b6005825260208201917f322e302e3000000000000000000000000000000000000000000000000000000083528151928391602083525180918160208501528484015e5f828201840152601f01601f19168101030190f35b3461021f575f36600319011261021f576001600160a01b037f00000000000000000000000000000000000000000000000000000000000000001630036103ce5760206040517f360894a13ba1a3210667c828492db98dca3e2076cc3735a920a3ca505d382bbc8152f35b7fe07c8dba000000000000000000000000000000000000000000000000000000005f5260045ffd5b604036600319011261021f5761040a6106bc565b60243567ffffffffffffffff811161021f573660238201121561021f5780600401359161043683610721565b9261044460405194856106d2565b8084526020840192366024838301011161021f57815f926024602093018637850101526001600160a01b035f54163303610694576001600160a01b037f00000000000000000000000000000000000000000000000000000000000000001680301490811561065f575b506103ce576001600160a01b038116926040517f52d1902d000000000000000000000000000000000000000000000000000000008152602081600481885afa5f918161062b575b5061052557847f0c760937000000000000000000000000000000000000000000000000000000005f5260045260245ffd5b807f360894a13ba1a3210667c828492db98dca3e2076cc3735a920a3ca505d382bbc8692036106005750827f360894a13ba1a3210667c828492db98dca3e2076cc3735a920a3ca505d382bbc557fbc7cd75a20ee27fd9adebab32041f755214dbc6bffa90cc0225b39da2e5c2d3b5f80a2518061059e57005b5f9283925af43d156105fb573d6105b481610721565b906105c260405192836106d2565b81525f60203d92013e5b156105d357005b7f736436ba000000000000000000000000000000000000000000000000000000005f5260045ffd5b6105cc565b7faa1d49a4000000000000000000000000000000000000000000000000000000005f5260045260245ffd5b9091506020813d602011610657575b81610647602093836106d2565b8101031261021f575190866104f4565b3d915061063a565b90506001600160a01b037f360894a13ba1a3210667c828492db98dca3e2076cc3735a920a3ca505d382bbc54161415846104ad565b7f596dcdb8000000000000000000000000000000000000000000000000000000005f5260045ffd5b600435906001600160a01b038216820361021f57565b90601f8019910116810190811067ffffffffffffffff8211176106f457604052565b7f4e487b71000000000000000000000000000000000000000000000000000000005f52604160045260245ffd5b67ffffffffffffffff81116106f457601f01601f19166020019056fea264697066735822122042189f54130fefd16e79876766e260a1b9465c70ac133eb939086cbed7474c9764736f6c634300081e0033f0c57e16840df040f15088dc2f81fe391c3923bec73e23a9662efc9c229c6a0e",
  "devdoc": {
    "errors": {
      "AlreadyInitialized()": [
        {
          "details": "The contract is already initialized."
        }
      ],
      "NotInitializing()": [
        {
          "details": "The contract is not initializing."
        }
      ]
    },
    "events": {
      "Evidence(uint256,address,string)": {
        "params": {
          "_arbitratorDisputeID": "The identifier of the dispute in the Arbitrator contract.",
          "_evidence": "Stringified evidence object, example: '{\"name\" : \"Justification\", \"description\" : \"Description\", \"fileURI\" : \"/ipfs/QmWQV5ZFFhEJiW8Lm7ay2zLxC2XS4wx1b2W7FfdrLMyQQc\"}'.",
          "_party": "The address of the party submitting the evidence."
        }
      },
      "Initialized(uint64)": {
        "details": "Triggered when the contract has been initialized or reinitialized."
      },
      "Upgraded(address)": {
        "params": {
          "newImplementation": "Address of the new implementation the proxy is now forwarding calls to."
        }
      }
    },
    "kind": "dev",
    "methods": {
      "constructor": {
        "custom:oz-upgrades-unsafe-allow": "constructor"
      },
      "initialize(address)": {
        "params": {
          "_owner": "The owner's address."
        }
      },
      "proxiableUUID()": {
        "details": "IMPORTANT: A proxy pointing at a proxiable contract should not be considered proxiable itself, because this risks bricking a proxy that upgrades to it, by delegating to itself until out of gas. Thus it is critical that this function revert if invoked through a proxy. This is guaranteed by the if statement."
      },
      "submitEvidence(uint256,string)": {
        "params": {
          "_arbitratorDisputeID": "The identifier of the dispute in the Arbitrator contract.",
          "_evidence": "Stringified evidence object, example: `{\"name\" : \"Justification\", \"description\" : \"Description\", \"fileURI\" : \"/ipfs/QmWQV5ZFFhEJiW8Lm7ay2zLxC2XS4wx1b2W7FfdrLMyQQc\"}`."
        }
      },
      "upgradeToAndCall(address,bytes)": {
        "details": "Reverts if the execution is not performed via delegatecall or the execution context is not of a proxy with an ERC1967-compliant implementation pointing to self.",
        "params": {
          "data": "Data used in a delegate call to `newImplementation` if non-empty. This will typically be an encoded function call, and allows initializing the storage of the proxy like a Solidity constructor.",
          "newImplementation": "Address of the new implementation contract."
        }
      }
    },
    "stateVariables": {
      "version": {
        "return": "Version string.",
        "returns": {
          "_0": "Version string."
        }
      }
    },
    "title": "Evidence Module",
    "version": 1
  },
  "userdoc": {
    "errors": {
      "FailedDelegateCall()": [
        {
          "notice": "Failed Delegated call"
        }
      ],
      "InvalidImplementation(address)": [
        {
          "notice": "The `implementation` is not UUPS-compliant"
        }
      ],
      "UUPSUnauthorizedCallContext()": [
        {
          "notice": "The call is from an unauthorized context."
        }
      ],
      "UUPSUnsupportedProxiableUUID(bytes32)": [
        {
          "notice": "The storage `slot` is unsupported as a UUID."
        }
      ]
    },
    "events": {
      "Evidence(uint256,address,string)": {
        "notice": "To be raised when evidence is submitted. Should point to the resource (evidences are not to be stored on chain due to gas considerations)."
      },
      "Upgraded(address)": {
        "notice": "Emitted when the `implementation` has been successfully upgraded."
      }
    },
    "kind": "user",
    "methods": {
      "initialize(address)": {
        "notice": "Initializer."
      },
      "proxiableUUID()": {
        "notice": "Implementation of the ERC1822 `proxiableUUID` function. This returns the storage slot used by the implementation. It is used to validate the implementation's compatibility when performing an upgrade."
      },
      "submitEvidence(uint256,string)": {
        "notice": "Submits evidence for a dispute."
      },
      "upgradeToAndCall(address,bytes)": {
        "notice": "Upgrade mechanism including access control and UUPS-compliance."
      },
      "version()": {
        "notice": "Returns the version of the implementation."
      }
    },
    "version": 1
  },
  "storageLayout": {
    "storage": [
      {
        "astId": 25054,
        "contract": "src/arbitration/evidence/EvidenceModule.sol:EvidenceModule",
        "label": "owner",
        "offset": 0,
        "slot": "0",
        "type": "t_address"
      }
    ],
    "types": {
      "t_address": {
        "encoding": "inplace",
        "label": "address",
        "numberOfBytes": "20"
      }
    }
  }
}