{
  "address": "0x8466ab62E7c923e8F2E61d0358C495676D6F939b",
  "abi": [
    {
      "inputs": [],
      "stateMutability": "nonpayable",
      "type": "constructor"
    },
    {
      "inputs": [],
      "name": "AllJurorsDrawn",
      "type": "error"
    },
    {
      "inputs": [],
      "name": "AlreadyInitialized",
      "type": "error"
    },
    {
      "inputs": [],
      "name": "AppealFeesNotEnough",
      "type": "error"
    },
    {
      "inputs": [],
      "name": "AppealPeriodNotPassed",
      "type": "error"
    },
    {
      "inputs": [],
      "name": "ArbitrationFeesNotEnough",
      "type": "error"
    },
    {
      "inputs": [],
      "name": "ArraysLengthMismatch",
      "type": "error"
    },
    {
      "inputs": [],
      "name": "CannotDisableClassicDK",
      "type": "error"
    },
    {
      "inputs": [],
      "name": "CommitPeriodNotPassed",
      "type": "error"
    },
    {
      "inputs": [],
      "name": "DepthLevelMax",
      "type": "error"
    },
    {
      "inputs": [],
      "name": "DisputeKitNotSupportedByCourt",
      "type": "error"
    },
    {
      "inputs": [],
      "name": "DisputeKitOnly",
      "type": "error"
    },
    {
      "inputs": [],
      "name": "DisputeNotAppealable",
      "type": "error"
    },
    {
      "inputs": [],
      "name": "DisputePeriodIsFinal",
      "type": "error"
    },
    {
      "inputs": [],
      "name": "DisputeStillDrawing",
      "type": "error"
    },
    {
      "inputs": [],
      "name": "EvidenceNotPassedAndNotAppeal",
      "type": "error"
    },
    {
      "inputs": [],
      "name": "FailedDelegateCall",
      "type": "error"
    },
    {
      "inputs": [],
      "name": "GovernorOnly",
      "type": "error"
    },
    {
      "inputs": [],
      "name": "GovernorOrInstructorOnly",
      "type": "error"
    },
    {
      "inputs": [],
      "name": "InstructorOnly",
      "type": "error"
    },
    {
      "inputs": [],
      "name": "InvalidDisputKitParent",
      "type": "error"
    },
    {
      "inputs": [],
      "name": "InvalidForkingCourtAsParent",
      "type": "error"
    },
    {
      "inputs": [
        {
          "internalType": "address",
          "name": "implementation",
          "type": "address"
        }
      ],
      "name": "InvalidImplementation",
      "type": "error"
    },
    {
      "inputs": [],
      "name": "MinStakeLowerThanParentCourt",
      "type": "error"
    },
    {
      "inputs": [],
      "name": "MustSupportDisputeKitClassic",
      "type": "error"
    },
    {
      "inputs": [],
      "name": "NoJurorDrawn",
      "type": "error"
    },
    {
      "inputs": [],
      "name": "NotEvidencePeriod",
      "type": "error"
    },
    {
      "inputs": [],
      "name": "NotExecutionPeriod",
      "type": "error"
    },
    {
      "inputs": [],
      "name": "NotInitializing",
      "type": "error"
    },
    {
      "inputs": [],
      "name": "RulingAlreadyExecuted",
      "type": "error"
    },
    {
      "inputs": [],
      "name": "SortitionModuleOnly",
      "type": "error"
    },
    {
      "inputs": [],
      "name": "StakingFailed",
      "type": "error"
    },
    {
      "inputs": [],
      "name": "TokenNotAccepted",
      "type": "error"
    },
    {
      "inputs": [],
      "name": "TransferFailed",
      "type": "error"
    },
    {
      "inputs": [],
      "name": "UUPSUnauthorizedCallContext",
      "type": "error"
    },
    {
      "inputs": [
        {
          "internalType": "bytes32",
          "name": "slot",
          "type": "bytes32"
        }
      ],
      "name": "UUPSUnsupportedProxiableUUID",
      "type": "error"
    },
    {
      "inputs": [],
      "name": "UnsuccessfulCall",
      "type": "error"
    },
    {
      "inputs": [],
      "name": "UnsupportedDisputeKit",
      "type": "error"
    },
    {
      "inputs": [],
      "name": "VotePeriodNotPassed",
      "type": "error"
    },
    {
      "inputs": [],
      "name": "WrongDisputeKitIndex",
      "type": "error"
    },
    {
      "anonymous": false,
      "inputs": [
        {
          "indexed": true,
          "internalType": "contract IERC20",
          "name": "_token",
          "type": "address"
        },
        {
          "indexed": true,
          "internalType": "bool",
          "name": "_accepted",
          "type": "bool"
        }
      ],
      "name": "AcceptedFeeToken",
      "type": "event"
    },
    {
      "anonymous": false,
      "inputs": [
        {
          "indexed": true,
          "internalType": "uint256",
          "name": "_disputeID",
          "type": "uint256"
        },
        {
          "indexed": true,
          "internalType": "contract IArbitrableV2",
          "name": "_arbitrable",
          "type": "address"
        }
      ],
      "name": "AppealDecision",
      "type": "event"
    },
    {
      "anonymous": false,
      "inputs": [
        {
          "indexed": true,
          "internalType": "uint256",
          "name": "_disputeID",
          "type": "uint256"
        },
        {
          "indexed": true,
          "internalType": "contract IArbitrableV2",
          "name": "_arbitrable",
          "type": "address"
        }
      ],
      "name": "AppealPossible",
      "type": "event"
    },
    {
      "anonymous": false,
      "inputs": [
        {
          "indexed": true,
          "internalType": "uint256",
          "name": "_courtID",
          "type": "uint256"
        },
        {
          "indexed": true,
          "internalType": "uint96",
          "name": "_parent",
          "type": "uint96"
        },
        {
          "indexed": false,
          "internalType": "bool",
          "name": "_hiddenVotes",
          "type": "bool"
        },
        {
          "indexed": false,
          "internalType": "uint256",
          "name": "_minStake",
          "type": "uint256"
        },
        {
          "indexed": false,
          "internalType": "uint256",
          "name": "_alpha",
          "type": "uint256"
        },
        {
          "indexed": false,
          "internalType": "uint256",
          "name": "_feeForJuror",
          "type": "uint256"
        },
        {
          "indexed": false,
          "internalType": "uint256",
          "name": "_jurorsForCourtJump",
          "type": "uint256"
        },
        {
          "indexed": false,
          "internalType": "uint256[4]",
          "name": "_timesPerPeriod",
          "type": "uint256[4]"
        },
        {
          "indexed": false,
          "internalType": "uint256[]",
          "name": "_supportedDisputeKits",
          "type": "uint256[]"
        }
      ],
      "name": "CourtCreated",
      "type": "event"
    },
    {
      "anonymous": false,
      "inputs": [
        {
          "indexed": true,
          "internalType": "uint256",
          "name": "_disputeID",
          "type": "uint256"
        },
        {
          "indexed": true,
          "internalType": "uint256",
          "name": "_roundID",
          "type": "uint256"
        },
        {
          "indexed": true,
          "internalType": "uint96",
          "name": "_fromCourtID",
          "type": "uint96"
        },
        {
          "indexed": false,
          "internalType": "uint96",
          "name": "_toCourtID",
          "type": "uint96"
        }
      ],
      "name": "CourtJump",
      "type": "event"
    },
    {
      "anonymous": false,
      "inputs": [
        {
          "indexed": true,
          "internalType": "uint96",
          "name": "_courtID",
          "type": "uint96"
        },
        {
          "indexed": false,
          "internalType": "bool",
          "name": "_hiddenVotes",
          "type": "bool"
        },
        {
          "indexed": false,
          "internalType": "uint256",
          "name": "_minStake",
          "type": "uint256"
        },
        {
          "indexed": false,
          "internalType": "uint256",
          "name": "_alpha",
          "type": "uint256"
        },
        {
          "indexed": false,
          "internalType": "uint256",
          "name": "_feeForJuror",
          "type": "uint256"
        },
        {
          "indexed": false,
          "internalType": "uint256",
          "name": "_jurorsForCourtJump",
          "type": "uint256"
        },
        {
          "indexed": false,
          "internalType": "uint256[4]",
          "name": "_timesPerPeriod",
          "type": "uint256[4]"
        }
      ],
      "name": "CourtModified",
      "type": "event"
    },
    {
      "anonymous": false,
      "inputs": [
        {
          "indexed": true,
          "internalType": "uint256",
          "name": "_disputeID",
          "type": "uint256"
        },
        {
          "indexed": true,
          "internalType": "contract IArbitrableV2",
          "name": "_arbitrable",
          "type": "address"
        }
      ],
      "name": "DisputeCreation",
      "type": "event"
    },
    {
      "anonymous": false,
      "inputs": [
        {
          "indexed": true,
          "internalType": "uint256",
          "name": "_disputeKitID",
          "type": "uint256"
        },
        {
          "indexed": true,
          "internalType": "contract IDisputeKit",
          "name": "_disputeKitAddress",
          "type": "address"
        }
      ],
      "name": "DisputeKitCreated",
      "type": "event"
    },
    {
      "anonymous": false,
      "inputs": [
        {
          "indexed": true,
          "internalType": "uint96",
          "name": "_courtID",
          "type": "uint96"
        },
        {
          "indexed": true,
          "internalType": "uint256",
          "name": "_disputeKitID",
          "type": "uint256"
        },
        {
          "indexed": true,
          "internalType": "bool",
          "name": "_enable",
          "type": "bool"
        }
      ],
      "name": "DisputeKitEnabled",
      "type": "event"
    },
    {
      "anonymous": false,
      "inputs": [
        {
          "indexed": true,
          "internalType": "uint256",
          "name": "_disputeID",
          "type": "uint256"
        },
        {
          "indexed": true,
          "internalType": "uint256",
          "name": "_roundID",
          "type": "uint256"
        },
        {
          "indexed": true,
          "internalType": "uint256",
          "name": "_fromDisputeKitID",
          "type": "uint256"
        },
        {
          "indexed": false,
          "internalType": "uint256",
          "name": "_toDisputeKitID",
          "type": "uint256"
        }
      ],
      "name": "DisputeKitJump",
      "type": "event"
    },
    {
      "anonymous": false,
      "inputs": [
        {
          "indexed": true,
          "internalType": "address",
          "name": "_address",
          "type": "address"
        },
        {
          "indexed": true,
          "internalType": "uint256",
          "name": "_disputeID",
          "type": "uint256"
        },
        {
          "indexed": false,
          "internalType": "uint256",
          "name": "_roundID",
          "type": "uint256"
        },
        {
          "indexed": false,
          "internalType": "uint256",
          "name": "_voteID",
          "type": "uint256"
        }
      ],
      "name": "Draw",
      "type": "event"
    },
    {
      "anonymous": false,
      "inputs": [
        {
          "indexed": false,
          "internalType": "uint64",
          "name": "version",
          "type": "uint64"
        }
      ],
      "name": "Initialized",
      "type": "event"
    },
    {
      "anonymous": false,
      "inputs": [
        {
          "indexed": true,
          "internalType": "uint256",
          "name": "_disputeID",
          "type": "uint256"
        },
        {
          "indexed": true,
          "internalType": "uint256",
          "name": "_roundID",
          "type": "uint256"
        },
        {
          "indexed": false,
          "internalType": "uint256",
          "name": "_pnkAmount",
          "type": "uint256"
        },
        {
          "indexed": false,
          "internalType": "uint256",
          "name": "_feeAmount",
          "type": "uint256"
        },
        {
          "indexed": false,
          "internalType": "contract IERC20",
          "name": "_feeToken",
          "type": "address"
        }
      ],
      "name": "LeftoverRewardSent",
      "type": "event"
    },
    {
      "anonymous": false,
      "inputs": [
        {
          "indexed": true,
          "internalType": "contract IERC20",
          "name": "_feeToken",
          "type": "address"
        },
        {
          "indexed": false,
          "internalType": "uint64",
          "name": "_rateInEth",
          "type": "uint64"
        },
        {
          "indexed": false,
          "internalType": "uint8",
          "name": "_rateDecimals",
          "type": "uint8"
        }
      ],
      "name": "NewCurrencyRate",
      "type": "event"
    },
    {
      "anonymous": false,
      "inputs": [
        {
          "indexed": true,
          "internalType": "uint256",
          "name": "_disputeID",
          "type": "uint256"
        },
        {
          "indexed": false,
          "internalType": "enum KlerosCoreUniversity.Period",
          "name": "_period",
          "type": "uint8"
        }
      ],
      "name": "NewPeriod",
      "type": "event"
    },
    {
      "anonymous": false,
      "inputs": [
        {
          "indexed": true,
          "internalType": "contract IArbitrableV2",
          "name": "_arbitrable",
          "type": "address"
        },
        {
          "indexed": true,
          "internalType": "uint256",
          "name": "_disputeID",
          "type": "uint256"
        },
        {
          "indexed": false,
          "internalType": "uint256",
          "name": "_ruling",
          "type": "uint256"
        }
      ],
      "name": "Ruling",
      "type": "event"
    },
    {
      "anonymous": false,
      "inputs": [
        {
          "indexed": true,
          "internalType": "address",
          "name": "_account",
          "type": "address"
        },
        {
          "indexed": true,
          "internalType": "uint256",
          "name": "_disputeID",
          "type": "uint256"
        },
        {
          "indexed": true,
          "internalType": "uint256",
          "name": "_roundID",
          "type": "uint256"
        },
        {
          "indexed": false,
          "internalType": "uint256",
          "name": "_degreeOfCoherency",
          "type": "uint256"
        },
        {
          "indexed": false,
          "internalType": "int256",
          "name": "_pnkAmount",
          "type": "int256"
        },
        {
          "indexed": false,
          "internalType": "int256",
          "name": "_feeAmount",
          "type": "int256"
        },
        {
          "indexed": false,
          "internalType": "contract IERC20",
          "name": "_feeToken",
          "type": "address"
        }
      ],
      "name": "TokenAndETHShift",
      "type": "event"
    },
    {
      "anonymous": false,
      "inputs": [
        {
          "indexed": true,
          "internalType": "address",
          "name": "newImplementation",
          "type": "address"
        }
      ],
      "name": "Upgraded",
      "type": "event"
    },
    {
      "inputs": [
        {
          "internalType": "contract IDisputeKit",
          "name": "_disputeKitAddress",
          "type": "address"
        }
      ],
      "name": "addNewDisputeKit",
      "outputs": [],
      "stateMutability": "nonpayable",
      "type": "function"
    },
    {
      "inputs": [
        {
          "internalType": "uint256",
          "name": "_disputeID",
          "type": "uint256"
        },
        {
          "internalType": "uint256",
          "name": "_numberOfChoices",
          "type": "uint256"
        },
        {
          "internalType": "bytes",
          "name": "_extraData",
          "type": "bytes"
        }
      ],
      "name": "appeal",
      "outputs": [],
      "stateMutability": "payable",
      "type": "function"
    },
    {
      "inputs": [
        {
          "internalType": "uint256",
          "name": "_disputeID",
          "type": "uint256"
        }
      ],
      "name": "appealCost",
      "outputs": [
        {
          "internalType": "uint256",
          "name": "cost",
          "type": "uint256"
        }
      ],
      "stateMutability": "view",
      "type": "function"
    },
    {
      "inputs": [
        {
          "internalType": "uint256",
          "name": "_disputeID",
          "type": "uint256"
        }
      ],
      "name": "appealPeriod",
      "outputs": [
        {
          "internalType": "uint256",
          "name": "start",
          "type": "uint256"
        },
        {
          "internalType": "uint256",
          "name": "end",
          "type": "uint256"
        }
      ],
      "stateMutability": "view",
      "type": "function"
    },
    {
      "inputs": [
        {
          "internalType": "bytes",
          "name": "_extraData",
          "type": "bytes"
        },
        {
          "internalType": "contract IERC20",
          "name": "_feeToken",
          "type": "address"
        }
      ],
      "name": "arbitrationCost",
      "outputs": [
        {
          "internalType": "uint256",
          "name": "cost",
          "type": "uint256"
        }
      ],
      "stateMutability": "view",
      "type": "function"
    },
    {
      "inputs": [
        {
          "internalType": "bytes",
          "name": "_extraData",
          "type": "bytes"
        }
      ],
      "name": "arbitrationCost",
      "outputs": [
        {
          "internalType": "uint256",
          "name": "cost",
          "type": "uint256"
        }
      ],
      "stateMutability": "view",
      "type": "function"
    },
    {
      "inputs": [
        {
          "internalType": "contract IERC20",
          "name": "_feeToken",
          "type": "address"
        },
        {
          "internalType": "bool",
          "name": "_accepted",
          "type": "bool"
        }
      ],
      "name": "changeAcceptedFeeTokens",
      "outputs": [],
      "stateMutability": "nonpayable",
      "type": "function"
    },
    {
      "inputs": [
        {
          "internalType": "uint96",
          "name": "_courtID",
          "type": "uint96"
        },
        {
          "internalType": "bool",
          "name": "_hiddenVotes",
          "type": "bool"
        },
        {
          "internalType": "uint256",
          "name": "_minStake",
          "type": "uint256"
        },
        {
          "internalType": "uint256",
          "name": "_alpha",
          "type": "uint256"
        },
        {
          "internalType": "uint256",
          "name": "_feeForJuror",
          "type": "uint256"
        },
        {
          "internalType": "uint256",
          "name": "_jurorsForCourtJump",
          "type": "uint256"
        },
        {
          "internalType": "uint256[4]",
          "name": "_timesPerPeriod",
          "type": "uint256[4]"
        }
      ],
      "name": "changeCourtParameters",
      "outputs": [],
      "stateMutability": "nonpayable",
      "type": "function"
    },
    {
      "inputs": [
        {
          "internalType": "contract IERC20",
          "name": "_feeToken",
          "type": "address"
        },
        {
          "internalType": "uint64",
          "name": "_rateInEth",
          "type": "uint64"
        },
        {
          "internalType": "uint8",
          "name": "_rateDecimals",
          "type": "uint8"
        }
      ],
      "name": "changeCurrencyRates",
      "outputs": [],
      "stateMutability": "nonpayable",
      "type": "function"
    },
    {
      "inputs": [
        {
          "internalType": "address payable",
          "name": "_governor",
          "type": "address"
        }
      ],
      "name": "changeGovernor",
      "outputs": [],
      "stateMutability": "nonpayable",
      "type": "function"
    },
    {
      "inputs": [
        {
          "internalType": "address",
          "name": "_instructor",
          "type": "address"
        }
      ],
      "name": "changeInstructor",
      "outputs": [],
      "stateMutability": "nonpayable",
      "type": "function"
    },
    {
      "inputs": [
        {
          "internalType": "address",
          "name": "_jurorProsecutionModule",
          "type": "address"
        }
      ],
      "name": "changeJurorProsecutionModule",
      "outputs": [],
      "stateMutability": "nonpayable",
      "type": "function"
    },
    {
      "inputs": [
        {
          "internalType": "contract IERC20",
          "name": "_pinakion",
          "type": "address"
        }
      ],
      "name": "changePinakion",
      "outputs": [],
      "stateMutability": "nonpayable",
      "type": "function"
    },
    {
      "inputs": [
        {
          "internalType": "contract ISortitionModuleUniversity",
          "name": "_sortitionModule",
          "type": "address"
        }
      ],
      "name": "changeSortitionModule",
      "outputs": [],
      "stateMutability": "nonpayable",
      "type": "function"
    },
    {
      "inputs": [
        {
          "internalType": "contract IERC20",
          "name": "_toToken",
          "type": "address"
        },
        {
          "internalType": "uint256",
          "name": "_amountInEth",
          "type": "uint256"
        }
      ],
      "name": "convertEthToTokenAmount",
      "outputs": [
        {
          "internalType": "uint256",
          "name": "",
          "type": "uint256"
        }
      ],
      "stateMutability": "view",
      "type": "function"
    },
    {
      "inputs": [
        {
          "internalType": "uint256",
          "name": "",
          "type": "uint256"
        }
      ],
      "name": "courts",
      "outputs": [
        {
          "internalType": "uint96",
          "name": "parent",
          "type": "uint96"
        },
        {
          "internalType": "bool",
          "name": "hiddenVotes",
          "type": "bool"
        },
        {
          "internalType": "uint256",
          "name": "minStake",
          "type": "uint256"
        },
        {
          "internalType": "uint256",
          "name": "alpha",
          "type": "uint256"
        },
        {
          "internalType": "uint256",
          "name": "feeForJuror",
          "type": "uint256"
        },
        {
          "internalType": "uint256",
          "name": "jurorsForCourtJump",
          "type": "uint256"
        },
        {
          "internalType": "bool",
          "name": "disabled",
          "type": "bool"
        }
      ],
      "stateMutability": "view",
      "type": "function"
    },
    {
      "inputs": [
        {
          "internalType": "uint96",
          "name": "_parent",
          "type": "uint96"
        },
        {
          "internalType": "bool",
          "name": "_hiddenVotes",
          "type": "bool"
        },
        {
          "internalType": "uint256",
          "name": "_minStake",
          "type": "uint256"
        },
        {
          "internalType": "uint256",
          "name": "_alpha",
          "type": "uint256"
        },
        {
          "internalType": "uint256",
          "name": "_feeForJuror",
          "type": "uint256"
        },
        {
          "internalType": "uint256",
          "name": "_jurorsForCourtJump",
          "type": "uint256"
        },
        {
          "internalType": "uint256[4]",
          "name": "_timesPerPeriod",
          "type": "uint256[4]"
        },
        {
          "internalType": "uint256[]",
          "name": "_supportedDisputeKits",
          "type": "uint256[]"
        }
      ],
      "name": "createCourt",
      "outputs": [],
      "stateMutability": "nonpayable",
      "type": "function"
    },
    {
      "inputs": [
        {
          "internalType": "uint256",
          "name": "_numberOfChoices",
          "type": "uint256"
        },
        {
          "internalType": "bytes",
          "name": "_extraData",
          "type": "bytes"
        }
      ],
      "name": "createDispute",
      "outputs": [
        {
          "internalType": "uint256",
          "name": "disputeID",
          "type": "uint256"
        }
      ],
      "stateMutability": "payable",
      "type": "function"
    },
    {
      "inputs": [
        {
          "internalType": "uint256",
          "name": "_numberOfChoices",
          "type": "uint256"
        },
        {
          "internalType": "bytes",
          "name": "_extraData",
          "type": "bytes"
        },
        {
          "internalType": "contract IERC20",
          "name": "_feeToken",
          "type": "address"
        },
        {
          "internalType": "uint256",
          "name": "_feeAmount",
          "type": "uint256"
        }
      ],
      "name": "createDispute",
      "outputs": [
        {
          "internalType": "uint256",
          "name": "disputeID",
          "type": "uint256"
        }
      ],
      "stateMutability": "nonpayable",
      "type": "function"
    },
    {
      "inputs": [
        {
          "internalType": "contract IERC20",
          "name": "",
          "type": "address"
        }
      ],
      "name": "currencyRates",
      "outputs": [
        {
          "internalType": "bool",
          "name": "feePaymentAccepted",
          "type": "bool"
        },
        {
          "internalType": "uint64",
          "name": "rateInEth",
          "type": "uint64"
        },
        {
          "internalType": "uint8",
          "name": "rateDecimals",
          "type": "uint8"
        }
      ],
      "stateMutability": "view",
      "type": "function"
    },
    {
      "inputs": [
        {
          "internalType": "uint256",
          "name": "_disputeID",
          "type": "uint256"
        }
      ],
      "name": "currentRuling",
      "outputs": [
        {
          "internalType": "uint256",
          "name": "ruling",
          "type": "uint256"
        },
        {
          "internalType": "bool",
          "name": "tied",
          "type": "bool"
        },
        {
          "internalType": "bool",
          "name": "overridden",
          "type": "bool"
        }
      ],
      "stateMutability": "view",
      "type": "function"
    },
    {
      "inputs": [
        {
          "internalType": "uint256",
          "name": "",
          "type": "uint256"
        }
      ],
      "name": "disputeKits",
      "outputs": [
        {
          "internalType": "contract IDisputeKit",
          "name": "",
          "type": "address"
        }
      ],
      "stateMutability": "view",
      "type": "function"
    },
    {
      "inputs": [
        {
          "internalType": "uint256",
          "name": "",
          "type": "uint256"
        }
      ],
      "name": "disputes",
      "outputs": [
        {
          "internalType": "uint96",
          "name": "courtID",
          "type": "uint96"
        },
        {
          "internalType": "contract IArbitrableV2",
          "name": "arbitrated",
          "type": "address"
        },
        {
          "internalType": "enum KlerosCoreUniversity.Period",
          "name": "period",
          "type": "uint8"
        },
        {
          "internalType": "bool",
          "name": "ruled",
          "type": "bool"
        },
        {
          "internalType": "uint256",
          "name": "lastPeriodChange",
          "type": "uint256"
        }
      ],
      "stateMutability": "view",
      "type": "function"
    },
    {
      "inputs": [
        {
          "internalType": "uint256",
          "name": "_disputeID",
          "type": "uint256"
        },
        {
          "internalType": "address",
          "name": "_juror",
          "type": "address"
        }
      ],
      "name": "draw",
      "outputs": [],
      "stateMutability": "nonpayable",
      "type": "function"
    },
    {
      "inputs": [
        {
          "internalType": "uint96",
          "name": "_courtID",
          "type": "uint96"
        },
        {
          "internalType": "uint256[]",
          "name": "_disputeKitIDs",
          "type": "uint256[]"
        },
        {
          "internalType": "bool",
          "name": "_enable",
          "type": "bool"
        }
      ],
      "name": "enableDisputeKits",
      "outputs": [],
      "stateMutability": "nonpayable",
      "type": "function"
    },
    {
      "inputs": [
        {
          "internalType": "uint256",
          "name": "_disputeID",
          "type": "uint256"
        },
        {
          "internalType": "uint256",
          "name": "_round",
          "type": "uint256"
        },
        {
          "internalType": "uint256",
          "name": "_iterations",
          "type": "uint256"
        }
      ],
      "name": "execute",
      "outputs": [],
      "stateMutability": "nonpayable",
      "type": "function"
    },
    {
      "inputs": [
        {
          "internalType": "address",
          "name": "_destination",
          "type": "address"
        },
        {
          "internalType": "uint256",
          "name": "_amount",
          "type": "uint256"
        },
        {
          "internalType": "bytes",
          "name": "_data",
          "type": "bytes"
        }
      ],
      "name": "executeGovernorProposal",
      "outputs": [],
      "stateMutability": "nonpayable",
      "type": "function"
    },
    {
      "inputs": [
        {
          "internalType": "uint256",
          "name": "_disputeID",
          "type": "uint256"
        }
      ],
      "name": "executeRuling",
      "outputs": [],
      "stateMutability": "nonpayable",
      "type": "function"
    },
    {
      "inputs": [],
      "name": "getDisputeKitsLength",
      "outputs": [
        {
          "internalType": "uint256",
          "name": "",
          "type": "uint256"
        }
      ],
      "stateMutability": "view",
      "type": "function"
    },
    {
      "inputs": [
        {
          "internalType": "uint256",
          "name": "_disputeID",
          "type": "uint256"
        }
      ],
      "name": "getNumberOfRounds",
      "outputs": [
        {
          "internalType": "uint256",
          "name": "",
          "type": "uint256"
        }
      ],
      "stateMutability": "view",
      "type": "function"
    },
    {
      "inputs": [
        {
          "internalType": "uint256",
          "name": "_disputeID",
          "type": "uint256"
        }
      ],
      "name": "getNumberOfVotes",
      "outputs": [
        {
          "internalType": "uint256",
          "name": "",
          "type": "uint256"
        }
      ],
      "stateMutability": "view",
      "type": "function"
    },
    {
      "inputs": [
        {
          "internalType": "uint256",
          "name": "_disputeID",
          "type": "uint256"
        },
        {
          "internalType": "uint256",
          "name": "_round",
          "type": "uint256"
        }
      ],
      "name": "getRoundInfo",
      "outputs": [
        {
          "components": [
            {
              "internalType": "uint256",
              "name": "disputeKitID",
              "type": "uint256"
            },
            {
              "internalType": "uint256",
              "name": "pnkAtStakePerJuror",
              "type": "uint256"
            },
            {
              "internalType": "uint256",
              "name": "totalFeesForJurors",
              "type": "uint256"
            },
            {
              "internalType": "uint256",
              "name": "nbVotes",
              "type": "uint256"
            },
            {
              "internalType": "uint256",
              "name": "repartitions",
              "type": "uint256"
            },
            {
              "internalType": "uint256",
              "name": "pnkPenalties",
              "type": "uint256"
            },
            {
              "internalType": "address[]",
              "name": "drawnJurors",
              "type": "address[]"
            },
            {
              "internalType": "uint256",
              "name": "sumFeeRewardPaid",
              "type": "uint256"
            },
            {
              "internalType": "uint256",
              "name": "sumPnkRewardPaid",
              "type": "uint256"
            },
            {
              "internalType": "contract IERC20",
              "name": "feeToken",
              "type": "address"
            },
            {
              "internalType": "uint256",
              "name": "drawIterations",
              "type": "uint256"
            }
          ],
          "internalType": "struct KlerosCoreUniversity.Round",
          "name": "",
          "type": "tuple"
        }
      ],
      "stateMutability": "view",
      "type": "function"
    },
    {
      "inputs": [
        {
          "internalType": "uint96",
          "name": "_courtID",
          "type": "uint96"
        }
      ],
      "name": "getTimesPerPeriod",
      "outputs": [
        {
          "internalType": "uint256[4]",
          "name": "timesPerPeriod",
          "type": "uint256[4]"
        }
      ],
      "stateMutability": "view",
      "type": "function"
    },
    {
      "inputs": [],
      "name": "governor",
      "outputs": [
        {
          "internalType": "address",
          "name": "",
          "type": "address"
        }
      ],
      "stateMutability": "view",
      "type": "function"
    },
    {
      "inputs": [
        {
          "internalType": "address",
          "name": "_governor",
          "type": "address"
        },
        {
          "internalType": "address",
          "name": "_instructor",
          "type": "address"
        },
        {
          "internalType": "contract IERC20",
          "name": "_pinakion",
          "type": "address"
        },
        {
          "internalType": "address",
          "name": "_jurorProsecutionModule",
          "type": "address"
        },
        {
          "internalType": "contract IDisputeKit",
          "name": "_disputeKit",
          "type": "address"
        },
        {
          "internalType": "bool",
          "name": "_hiddenVotes",
          "type": "bool"
        },
        {
          "internalType": "uint256[4]",
          "name": "_courtParameters",
          "type": "uint256[4]"
        },
        {
          "internalType": "uint256[4]",
          "name": "_timesPerPeriod",
          "type": "uint256[4]"
        },
        {
          "internalType": "contract ISortitionModuleUniversity",
          "name": "_sortitionModuleAddress",
          "type": "address"
        }
      ],
      "name": "initialize",
      "outputs": [],
      "stateMutability": "nonpayable",
      "type": "function"
    },
    {
      "inputs": [],
      "name": "instructor",
      "outputs": [
        {
          "internalType": "address",
          "name": "",
          "type": "address"
        }
      ],
      "stateMutability": "view",
      "type": "function"
    },
    {
      "inputs": [
        {
          "internalType": "uint256",
          "name": "_disputeID",
          "type": "uint256"
        }
      ],
      "name": "isDisputeKitJumping",
      "outputs": [
        {
          "internalType": "bool",
          "name": "",
          "type": "bool"
        }
      ],
      "stateMutability": "view",
      "type": "function"
    },
    {
      "inputs": [
        {
          "internalType": "uint96",
          "name": "_courtID",
          "type": "uint96"
        },
        {
          "internalType": "uint256",
          "name": "_disputeKitID",
          "type": "uint256"
        }
      ],
      "name": "isSupported",
      "outputs": [
        {
          "internalType": "bool",
          "name": "",
          "type": "bool"
        }
      ],
      "stateMutability": "view",
      "type": "function"
    },
    {
      "inputs": [],
      "name": "jurorProsecutionModule",
      "outputs": [
        {
          "internalType": "address",
          "name": "",
          "type": "address"
        }
      ],
      "stateMutability": "view",
      "type": "function"
    },
    {
      "inputs": [
        {
          "internalType": "uint256",
          "name": "_disputeID",
          "type": "uint256"
        }
      ],
      "name": "passPeriod",
      "outputs": [],
      "stateMutability": "nonpayable",
      "type": "function"
    },
    {
      "inputs": [],
      "name": "pinakion",
      "outputs": [
        {
          "internalType": "contract IERC20",
          "name": "",
          "type": "address"
        }
      ],
      "stateMutability": "view",
      "type": "function"
    },
    {
      "inputs": [],
      "name": "proxiableUUID",
      "outputs": [
        {
          "internalType": "bytes32",
          "name": "",
          "type": "bytes32"
        }
      ],
      "stateMutability": "view",
      "type": "function"
    },
    {
      "inputs": [
        {
          "internalType": "uint96",
          "name": "_courtID",
          "type": "uint96"
        },
        {
          "internalType": "uint256",
          "name": "_newStake",
          "type": "uint256"
        }
      ],
      "name": "setStake",
      "outputs": [],
      "stateMutability": "nonpayable",
      "type": "function"
    },
    {
      "inputs": [
        {
          "internalType": "address",
          "name": "_account",
          "type": "address"
        },
        {
          "internalType": "uint96",
          "name": "_courtID",
          "type": "uint96"
        },
        {
          "internalType": "uint256",
          "name": "_newStake",
          "type": "uint256"
        },
        {
          "internalType": "bool",
          "name": "_alreadyTransferred",
          "type": "bool"
        }
      ],
      "name": "setStakeBySortitionModule",
      "outputs": [],
      "stateMutability": "nonpayable",
      "type": "function"
    },
    {
      "inputs": [],
      "name": "sortitionModule",
      "outputs": [
        {
          "internalType": "contract ISortitionModuleUniversity",
          "name": "",
          "type": "address"
        }
      ],
      "stateMutability": "view",
      "type": "function"
    },
    {
      "inputs": [
        {
          "internalType": "address",
          "name": "newImplementation",
          "type": "address"
        },
        {
          "internalType": "bytes",
          "name": "data",
          "type": "bytes"
        }
      ],
      "name": "upgradeToAndCall",
      "outputs": [],
      "stateMutability": "payable",
      "type": "function"
    }
  ],
  "transactionHash": "0x65bc958f2dd89d6d6c4ca8b3043b9ec9ceaf3406fbc4cc140445502d96cc70f1",
  "args": [],
  "numDeployments": 1,
  "solcInputHash": "b3d1fc1c5f8116b85757245c43f8e47c",
  "bytecode": "0x60a0604052306080523480156200001557600080fd5b506200002062000026565b620000d9565b7ff0c57e16840df040f15088dc2f81fe391c3923bec73e23a9662efc9c229c6a0e805468010000000000000000900460ff1615620000765760405162dc149f60e41b815260040160405180910390fd5b80546001600160401b0390811614620000d65780546001600160401b0319166001600160401b0390811782556040519081527fc7f505b2f371ae2175ee4913f4499e1f2633a7b5936321eed1cdaeb6115181d29060200160405180910390a15b50565b60805161554a62000103600039600081816115c3015281816115ec01526117e2015261554a6000f3fe60806040526004361061027c5760003560e01c80638a9bb02a1161014f578063d07368bd116100c1578063f6506db41161007a578063f6506db414610867578063f7434ea914610887578063fbb519e7146108a7578063fbf405b0146108c7578063fc6f8f16146108e7578063fe524c391461090757600080fd5b8063d07368bd146107b2578063d4d1d76a146107d2578063d874514b146107e7578063d98493f614610807578063e399d29b14610827578063e4c0aaf41461084757600080fd5b8063b702a87911610113578063b702a8791461070c578063c13517e11461072c578063c258bb191461073f578063c35699021461075f578063c71f425314610772578063cf0c38f81461079257600080fd5b80638a9bb02a1461064a5780638bb0487514610677578063acdbf51d14610697578063afe15cfb146106b7578063b0049637146106ec57600080fd5b80632e1daf2f116101f357806371ae413d116101ac57806371ae413d1461058a578063751accd0146105aa5780637717a6e8146105ca5780637934c0be146105ea57806382d022371461060a57806386541b241461062a57600080fd5b80632e1daf2f146104c45780633cfd1184146104e45780634f1ef2861461051157806352d1902d14610524578063564a565d1461053957806359ec827e1461056a57600080fd5b8063115d537611610245578063115d5376146103885780631860592b146103a857806319b81529146103d65780631c3db16d146104065780631f5a0dd2146104435780632d29a47b146104a457600080fd5b8062f5822c146102815780630219da79146102a357806309cfdc9c1461031b5780630b7414bc1461033b5780630c340a241461035b575b600080fd5b34801561028d57600080fd5b506102a161029c366004614715565b610927565b005b3480156102af57600080fd5b506102ee6102be366004614715565b60086020526000908152604090205460ff808216916001600160401b0361010082041691600160481b9091041683565b6040805193151584526001600160401b03909216602084015260ff16908201526060015b60405180910390f35b34801561032757600080fd5b506102a1610336366004614715565b610974565b34801561034757600080fd5b506102a161035636600461481d565b6109da565b34801561036757600080fd5b5060005461037b906001600160a01b031681565b604051610312919061487e565b34801561039457600080fd5b506102a16103a3366004614892565b610b1b565b3480156103b457600080fd5b506103c86103c33660046148ab565b611052565b604051908152602001610312565b3480156103e257600080fd5b506103f66103f1366004614892565b6110ac565b6040519015158152602001610312565b34801561041257600080fd5b50610426610421366004614892565b6111a5565b604080519384529115156020840152151590820152606001610312565b34801561044f57600080fd5b5061046361045e366004614892565b6112a6565b604080516001600160601b0390981688529515156020880152948601939093526060850191909152608084015260a0830152151560c082015260e001610312565b3480156104b057600080fd5b506102a16104bf3660046148d7565b611305565b3480156104d057600080fd5b5060045461037b906001600160a01b031681565b3480156104f057600080fd5b506105046104ff366004614903565b611545565b6040516103129190614941565b6102a161051f3660046149be565b6115af565b34801561053057600080fd5b506103c86117d5565b34801561054557600080fd5b50610559610554366004614892565b611833565b604051610312959493929190614a45565b34801561057657600080fd5b506103c8610585366004614892565b61188f565b34801561059657600080fd5b5060015461037b906001600160a01b031681565b3480156105b657600080fd5b506102a16105c5366004614a84565b6119e4565b3480156105d657600080fd5b506102a16105e5366004614adc565b611a8e565b3480156105f657600080fd5b506102a1610605366004614af8565b611a9c565b34801561061657600080fd5b506102a1610625366004614b31565b611b1b565b34801561063657600080fd5b506102a1610645366004614bf0565b611bd8565b34801561065657600080fd5b5061066a610665366004614c5e565b611dbf565b6040516103129190614cc4565b34801561068357600080fd5b506102a1610692366004614892565b611f4b565b3480156106a357600080fd5b5061037b6106b2366004614892565b6120af565b3480156106c357600080fd5b506106d76106d2366004614892565b6120d9565b60408051928352602083019190915201610312565b3480156106f857600080fd5b506102a1610707366004614715565b612185565b34801561071857600080fd5b506102a1610727366004614d69565b6121d2565b6103c861073a366004614d8e565b6125e5565b34801561074b57600080fd5b506102a161075a366004614715565b61261d565b6102a161076d366004614dbe565b61266a565b34801561077e57600080fd5b506103c861078d366004614892565b612b3e565b34801561079e57600080fd5b5060035461037b906001600160a01b031681565b3480156107be57600080fd5b506102a16107cd366004614715565b612ba6565b3480156107de57600080fd5b506006546103c8565b3480156107f357600080fd5b506102a1610802366004614df7565b612c4f565b34801561081357600080fd5b506103c8610822366004614ed8565b612f5c565b34801561083357600080fd5b506102a1610842366004614f23565b612fa9565b34801561085357600080fd5b506102a1610862366004614715565b613299565b34801561087357600080fd5b506103c8610882366004614fde565b6132e6565b34801561089357600080fd5b506103c86108a2366004615044565b6133cc565b3480156108b357600080fd5b506102a16108c2366004615078565b613418565b3480156108d357600080fd5b5060025461037b906001600160a01b031681565b3480156108f357600080fd5b506103c8610902366004614892565b613458565b34801561091357600080fd5b506103f6610922366004614adc565b613487565b6000546001600160a01b031633146109525760405163c383977560e01b815260040160405180910390fd5b600280546001600160a01b0319166001600160a01b0392909216919091179055565b6000546001600160a01b0316331480159061099a57506001546001600160a01b03163314155b156109b857604051633244d29960e21b815260040160405180910390fd5b600180546001600160a01b0319166001600160a01b0392909216919091179055565b6000546001600160a01b03163314610a055760405163c383977560e01b815260040160405180910390fd5b60005b8251811015610b15578115610aa457828181518110610a2957610a296150c9565b602002602001015160001480610a5c57506006548351849083908110610a5157610a516150c9565b602002602001015110155b15610a7a57604051633d58a98960e11b815260040160405180910390fd5b610a9f84848381518110610a9057610a906150c9565b602002602001015160016134cf565b610b03565b6001838281518110610ab857610ab86150c9565b602002602001015103610ade576040516356d111fd60e11b815260040160405180910390fd5b610b0384848381518110610af457610af46150c9565b602002602001015160006134cf565b80610b0d816150f5565b915050610a08565b50505050565b600060078281548110610b3057610b306150c9565b600091825260208220600490910201805460058054929450916001600160601b03909116908110610b6357610b636150c9565b6000918252602082206003850154600c909202019250610b859060019061510e565b90506000836003018281548110610b9e57610b9e6150c9565b600091825260208220600b909102019150600185015460ff166004811115610bc857610bc8614a0d565b03610ca35781158015610c1757506001840154600684019060ff166004811115610bf457610bf4614a0d565b60048110610c0457610c046150c9565b01546002850154610c15904261510e565b105b15610c3557604051633e9727df60e01b815260040160405180910390fd5b6003810154600682015414610c5d576040516309e4486b60e41b815260040160405180910390fd5b8254600160601b900460ff16610c74576002610c77565b60015b60018086018054909160ff1990911690836004811115610c9957610c99614a0d565b0217905550611004565b60018085015460ff166004811115610cbd57610cbd614a0d565b03610dcd576001840154600684019060ff166004811115610ce057610ce0614a0d565b60048110610cf057610cf06150c9565b01546002850154610d01904261510e565b108015610d9857506006816000015481548110610d2057610d206150c9565b600091825260209091200154604051630baa64d160e01b8152600481018790526001600160a01b0390911690630baa64d190602401602060405180830381865afa158015610d72573d6000803e3d6000fd5b505050506040513d601f19601f82011682018060405250810190610d969190615121565b155b15610db657604051634dfa578560e11b815260040160405180910390fd5b6001808501805460029260ff199091169083610c99565b6002600185015460ff166004811115610de857610de8614a0d565b03610f36576001840154600684019060ff166004811115610e0b57610e0b614a0d565b60048110610e1b57610e1b6150c9565b01546002850154610e2c904261510e565b108015610ec357506006816000015481548110610e4b57610e4b6150c9565b6000918252602090912001546040516336a66c7560e11b8152600481018790526001600160a01b0390911690636d4cd8ea90602401602060405180830381865afa158015610e9d573d6000803e3d6000fd5b505050506040513d601f19601f82011682018060405250810190610ec19190615121565b155b15610ee157604051631988dead60e31b815260040160405180910390fd5b600184018054600360ff199091161790558354604051600160601b9091046001600160a01b03169086907fa5d41b970d849372be1da1481ffd78d162bfe57a7aa2fe4e5fb73481fa5ac24f90600090a3611004565b6003600185015460ff166004811115610f5157610f51614a0d565b03610fcb576001840154600684019060ff166004811115610f7457610f74614a0d565b60048110610f8457610f846150c9565b01546002850154610f95904261510e565b1015610fb457604051632f4dfd8760e01b815260040160405180910390fd5b6001808501805460049260ff199091169083610c99565b6004600185015460ff166004811115610fe657610fe6614a0d565b03611004576040516307f38c8f60e11b815260040160405180910390fd5b426002850155600184015460405186917f4e6f5cf43b95303e86aee81683df63992061723a829ee012db21dad388756b91916110439160ff169061513e565b60405180910390a25050505050565b6001600160a01b03821660009081526008602052604081205461010081046001600160401b03169061108f90600160481b900460ff16600a615230565b611099908461523f565b6110a3919061526c565b90505b92915050565b600080600783815481106110c2576110c26150c9565b60009182526020822060036004909202019081018054919350906110e89060019061510e565b815481106110f8576110f86150c9565b600091825260208220845460058054600b909402909201945090916001600160601b0390911690811061112d5761112d6150c9565b90600052602060002090600c0201905080600501548260030154101561115857506000949350505050565b80546005805490916001600160601b0316908110611178576111786150c9565b6000918252602080832094548352600a600c9092029094010190925250604090205460ff16159392505050565b600080600080600785815481106111be576111be6150c9565b60009182526020822060036004909202019081018054919350906111e49060019061510e565b815481106111f4576111f46150c9565b90600052602060002090600b020190506000600682600001548154811061121d5761121d6150c9565b600091825260209091200154604051631c3db16d60e01b8152600481018990526001600160a01b0390911691508190631c3db16d90602401606060405180830381865afa158015611272573d6000803e3d6000fd5b505050506040513d601f19601f820116820180604052508101906112969190615280565b9199909850909650945050505050565b600581815481106112b657600080fd5b60009182526020909120600c9091020180546002820154600383015460048401546005850154600b909501546001600160601b038516965060ff600160601b9095048516959394929391921687565b60006007848154811061131a5761131a6150c9565b600091825260209091206004918202019150600182015460ff16600481111561134557611345614a0d565b1461136357604051638794ce4b60e01b815260040160405180910390fd5b600081600301848154811061137a5761137a6150c9565b90600052602060002090600b02019050600060068260000154815481106113a3576113a36150c9565b600091825260208220015460048401546001600160a01b039091169250906113cb86836152b8565b6005850154600686015460405163368efae360e21b8152600481018c9052602481018b905292935090916000906001600160a01b0387169063da3beb8c90604401602060405180830381865afa158015611429573d6000803e3d6000fd5b505050506040513d601f19601f8201168201806040525081019061144d91906152cb565b9050806000036114685781841115611463578193505b611488565b61147382600261523f565b8411156114885761148582600261523f565b93505b60048701849055845b8481101561152457828110156114dd576114d66040518060c001604052808e81526020018d815260200184815260200185815260200186815260200183815250613557565b9350611512565b6115126040518060c001604052808e81526020018d815260200184815260200185815260200186815260200183815250613a11565b8061151c816150f5565b915050611491565b508287600501541461153857600587018390555b5050505050505050505050565b61154d614655565b6005826001600160601b031681548110611569576115696150c9565b6000918252602090912060408051608081019182905292600c029091016006019060049082845b8154815260200190600101908083116115905750505050509050919050565b6115b882613f3c565b306001600160a01b037f000000000000000000000000000000000000000000000000000000000000000016148061163657507f00000000000000000000000000000000000000000000000000000000000000006001600160a01b031661162a6000805160206154f58339815191525490565b6001600160a01b031614155b156116545760405163703e46dd60e11b815260040160405180910390fd5b816001600160a01b03166352d1902d6040518163ffffffff1660e01b8152600401602060405180830381865afa9250505080156116ae575060408051601f3d908101601f191682019092526116ab918101906152cb565b60015b6116d65781604051630c76093760e01b81526004016116cd919061487e565b60405180910390fd5b6000805160206154f5833981519152811461170757604051632a87526960e21b8152600481018290526024016116cd565b6000805160206154f58339815191528390556040516001600160a01b038416907fbc7cd75a20ee27fd9adebab32041f755214dbc6bffa90cc0225b39da2e5c2d3b90600090a28151156117d0576000836001600160a01b03168360405161176e9190615308565b600060405180830381855af49150503d80600081146117a9576040519150601f19603f3d011682016040523d82523d6000602084013e6117ae565b606091505b5050905080610b15576040516339b21b5d60e11b815260040160405180910390fd5b505050565b6000306001600160a01b037f000000000000000000000000000000000000000000000000000000000000000016146118205760405163703e46dd60e11b815260040160405180910390fd5b506000805160206154f583398151915290565b6007818154811061184357600080fd5b60009182526020909120600490910201805460018201546002909201546001600160601b0382169350600160601b9091046001600160a01b03169160ff80821692610100909204169085565b600080600783815481106118a5576118a56150c9565b60009182526020822060036004909202019081018054919350906118cb9060019061510e565b815481106118db576118db6150c9565b600091825260208220845460058054600b909402909201945090916001600160601b03909116908110611910576119106150c9565b90600052602060002090600c0201905080600501548260030154106119af5782546001600160601b031660001901611951576001600160ff1b0393506119dc565b600382015461196190600261523f565b61196c9060016152b8565b81546005805490916001600160601b031690811061198c5761198c6150c9565b90600052602060002090600c0201600401546119a8919061523f565b93506119dc565b60038201546119bf90600261523f565b6119ca9060016152b8565b81600401546119d9919061523f565b93505b505050919050565b6000546001600160a01b03163314611a0f5760405163c383977560e01b815260040160405180910390fd5b6000836001600160a01b03168383604051611a2a9190615308565b60006040518083038185875af1925050503d8060008114611a67576040519150601f19603f3d011682016040523d82523d6000602084013e611a6c565b606091505b5050905080610b15576040516322092f2f60e11b815260040160405180910390fd5b6117d0338383600080613f6a565b6000546001600160a01b03163314611ac75760405163c383977560e01b815260040160405180910390fd5b6001600160a01b038216600081815260086020526040808220805460ff191685151590811790915590519092917f541615e167511d757a7067a700eb54431b256bb458dfdce0ac58bf2ed0aefd4491a35050565b6000546001600160a01b03163314611b465760405163c383977560e01b815260040160405180910390fd5b6001600160a01b038316600081815260086020908152604091829020805469ffffffffffffffffff0019166101006001600160401b03881690810260ff60481b191691909117600160481b60ff8816908102919091179092558351908152918201527fe6996b7f03e9bd02228b99d3d946932e3197f505f60542c4cfbc919441d8a4e6910160405180910390a2505050565b6000546001600160a01b03163314611c035760405163c383977560e01b815260040160405180910390fd5b60006005886001600160601b031681548110611c2157611c216150c9565b90600052602060002090600c0201905060016001600160601b0316886001600160601b031614158015611c83575080546005805488926001600160601b0316908110611c6f57611c6f6150c9565b90600052602060002090600c020160020154115b15611ca157604051639717078960e01b815260040160405180910390fd5b60005b6001820154811015611d2657866005836001018381548110611cc857611cc86150c9565b906000526020600020015481548110611ce357611ce36150c9565b90600052602060002090600c0201600201541015611d1457604051639717078960e01b815260040160405180910390fd5b80611d1e816150f5565b915050611ca4565b5060028101869055805460ff60601b1916600160601b8815150217815560038101859055600480820185905560058201849055611d699060068301908490614673565b50876001600160601b03167f709b1f5fda58af9a4f52dacd1ec404840a8148455700cce155a2bd8cf127ef1a888888888888604051611dad96959493929190615324565b60405180910390a25050505050505050565b611e2560405180610160016040528060008152602001600081526020016000815260200160008152602001600081526020016000815260200160608152602001600081526020016000815260200160006001600160a01b03168152602001600081525090565b60078381548110611e3857611e386150c9565b90600052602060002090600402016003018281548110611e5a57611e5a6150c9565b90600052602060002090600b02016040518061016001604052908160008201548152602001600182015481526020016002820154815260200160038201548152602001600482015481526020016005820154815260200160068201805480602002602001604051908101604052809291908181526020018280548015611f0957602002820191906000526020600020905b81546001600160a01b03168152600190910190602001808311611eeb575b5050509183525050600782015460208201526008820154604082015260098201546001600160a01b03166060820152600a909101546080909101529392505050565b600060078281548110611f6057611f606150c9565b600091825260209091206004918202019150600182015460ff166004811115611f8b57611f8b614a0d565b14611fa957604051638794ce4b60e01b815260040160405180910390fd5b6001810154610100900460ff1615611fd45760405163c977f8d360e01b815260040160405180910390fd5b6000611fdf836111a5565b505060018301805461010061ff001990911617905582546040518281529192508491600160601b9091046001600160a01b0316907f394027a5fa6e098a1191094d1719d6929b9abc535fcc0c8f448d6a4e756222769060200160405180910390a3815460405163188d362b60e11b81526004810185905260248101839052600160601b9091046001600160a01b03169063311a6c5690604401600060405180830381600087803b15801561209257600080fd5b505af11580156120a6573d6000803e3d6000fd5b50505050505050565b600681815481106120bf57600080fd5b6000918252602090912001546001600160a01b0316905081565b6000806000600784815481106120f1576120f16150c9565b6000918252602090912060049091020190506003600182015460ff16600481111561211e5761211e614a0d565b03612176576002810154815460058054929550916001600160601b0390911690811061214c5761214c6150c9565b600091825260209091206009600c909202010154600282015461216f91906152b8565b915061217f565b60009250600091505b50915091565b6000546001600160a01b031633146121b05760405163c383977560e01b815260040160405180910390fd5b600480546001600160a01b0319166001600160a01b0392909216919091179055565b6000546001600160a01b031633148015906121f857506001546001600160a01b03163314155b1561221657604051633244d29960e21b815260040160405180910390fd5b60006007838154811061222b5761222b6150c9565b90600052602060002090600402019050600060018260030180549050612251919061510e565b9050600082600301828154811061226a5761226a6150c9565b600091825260208220600b909102019150600184015460ff16600481111561229457612294614a0d565b146122b257604051638285c4ef60e01b815260040160405180910390fd5b60038101546006820154106122da57604051634df06de360e01b815260040160405180910390fd5b60048054604051633c694c4160e21b81526001600160a01b039091169163f1a53104916123099188910161487e565b600060405180830381600087803b15801561232357600080fd5b505af1158015612337573d6000803e3d6000fd5b5050505060006006826000015481548110612354576123546150c9565b6000918252602082200154600a8401546001600160a01b03909116925061237c9060016152b8565b60405163695c01ad60e11b815260048101899052602481018290529091506000906001600160a01b0384169063d2b8035a906044016020604051808303816000875af11580156123d0573d6000803e3d6000fd5b505050506040513d601f19601f820116820180604052508101906123f49190615357565b90506001600160a01b03811661241d57604051632e38b8f760e11b815260040160405180910390fd5b6004805460018601546040516310f0b12f60e11b81526001600160a01b03909216926321e1625e92612453928692909101615374565b600060405180830381600087803b15801561246d57600080fd5b505af1158015612481573d6000803e3d6000fd5b50505060068501546040518a92506001600160a01b038416917f6119cf536152c11e0a9a6c22f3953ce4ecc93ee54fa72ffa326ffabded21509b916124ce918a8252602082015260400190565b60405180910390a36006840180546001810182556000828152602090200180546001600160a01b0319166001600160a01b03841617905560038501549054036125755760048054604051632e96bc2360e11b81529182018a9052602482018790526001600160a01b031690635d2d784690604401600060405180830381600087803b15801561255c57600080fd5b505af1158015612570573d6000803e3d6000fd5b505050505b50600a8301555060048054604051633c694c4160e21b81526001600160a01b039091169163f1a53104916125ac916000910161487e565b600060405180830381600087803b1580156125c657600080fd5b505af11580156125da573d6000803e3d6000fd5b505050505050505050565b60006125f0826133cc565b34101561261057604051630e3360f160e21b815260040160405180910390fd5b6110a38383600034614106565b6000546001600160a01b031633146126485760405163c383977560e01b815260040160405180910390fd5b600380546001600160a01b0319166001600160a01b0392909216919091179055565b6126738361188f565b34101561269357604051633191f8f160e01b815260040160405180910390fd5b6000600784815481106126a8576126a86150c9565b6000918252602090912060049091020190506003600182015460ff1660048111156126d5576126d5614a0d565b146126f3576040516337cdefcb60e21b815260040160405180910390fd5b600381018054600091906127099060019061510e565b81548110612719576127196150c9565b90600052602060002090600b020190506006816000015481548110612740576127406150c9565b6000918252602090912001546001600160a01b031633146127745760405163065f245f60e01b815260040160405180910390fd5b8154815460038401805460018101825560009182526020909120600580546001600160601b0390951694600b90930290910191849081106127b7576127b76150c9565b90600052602060002090600c0201600501548460030154106128c0576005836001600160601b0316815481106127ef576127ef6150c9565b60009182526020909120600c9091020154600580546001600160601b0390921694509084908110612822576128226150c9565b60009182526020808320858452600a600c90930201919091019052604090205460ff1661284e57600191505b84546001600160601b038481169116146128c057845460038601546001600160601b03909116906128819060019061510e565b6040516001600160601b03861681528a907f736e3f52761298c8c0823e1ebf482ed3c5ecb304f743d2d91a7c006e8e8d7a1f9060200160405180910390a45b84546001600160601b0319166001600160601b038416908117865560018601805460ff1916905542600287015560058054600092908110612903576129036150c9565b90600052602060002090600c02019050806004015434612923919061526c565b826003018190555061271081600301548260020154612942919061523f565b61294c919061526c565b60018084019190915534600284015583835560045460038801546001600160a01b039091169163d09f392d918c916129839161510e565b6040516001600160e01b031960e085901b16815260048101929092526024820152604401600060405180830381600087803b1580156129c157600080fd5b505af11580156129d5573d6000803e3d6000fd5b505086548454149150612abb905057845460038701546129f79060019061510e565b83546040519081528b907fcbe7939a71f0b369c7471d760a0a99b60b7bb010ee0406cba8a46679d1ea77569060200160405180910390a46006826000015481548110612a4557612a456150c9565b60009182526020909120015460038301546040516302dbb79560e61b81526001600160a01b039092169163b6ede54091612a88918d918d918d919060040161538d565b600060405180830381600087803b158015612aa257600080fd5b505af1158015612ab6573d6000803e3d6000fd5b505050505b8554604051600160601b9091046001600160a01b0316908a907f9c9b64db9e130f48381bf697abf638e73117dbfbfd7a4484f2da3ba188f4187d90600090a3887f4e6f5cf43b95303e86aee81683df63992061723a829ee012db21dad388756b916000604051612b2b919061513e565b60405180910390a2505050505050505050565b60008060078381548110612b5457612b546150c9565b906000526020600020906004020190508060030160018260030180549050612b7c919061510e565b81548110612b8c57612b8c6150c9565b90600052602060002090600b020160030154915050919050565b6000546001600160a01b03163314612bd15760405163c383977560e01b815260040160405180910390fd5b6006805460018101825560009182527ff652222313e28459528d920b65115c16c04f3efc82aaedc97be59f3f377c0d3f810180546001600160a01b0319166001600160a01b0385169081179091556040519192909183917f44063d258760b98116d53815adbc906a56b3563e540148cc0fc2457f83b5eeb291a35050565b6000546001600160a01b03163314612c7a5760405163c383977560e01b815260040160405180910390fd5b856005896001600160601b031681548110612c9757612c976150c9565b90600052602060002090600c0201600201541115612cc857604051639717078960e01b815260040160405180910390fd5b8051600003612cea5760405163402585f560e01b815260040160405180910390fd5b6001600160601b038816612d1157604051631ef4f64960e01b815260040160405180910390fd5b60058054600181018255600091825290600c82027f036b6384b5eca791c62761152d0c79bb0604c104a5fb6f4eb0703f3154bb3db001905b8351811015612e0f57838181518110612d6457612d646150c9565b602002602001015160001480612d9757506006548451859083908110612d8c57612d8c6150c9565b602002602001015110155b15612db557604051633d58a98960e11b815260040160405180910390fd5b600182600a016000868481518110612dcf57612dcf6150c9565b6020026020010151815260200190815260200160002060006101000a81548160ff0219169083151502179055508080612e07906150f5565b915050612d49565b5060016000908152600a8201602052604090205460ff16612e43576040516306351b3d60e31b815260040160405180910390fd5b80546001600160601b0319166001600160601b038b161781556040805160008152602081019182905251612e7b9160018401916146b1565b50805460ff60601b1916600160601b8a1515021781556002810188905560038101879055600480820187905560058201869055612ebe9060068301908690614673565b5060058a6001600160601b031681548110612edb57612edb6150c9565b600091825260208083206001600c909302018201805492830181558352909120018290556040516001600160601b038b169083907f3475f0ed7216dd7d453db663a1c3024e4f36cc925521d54edb9d13e022cbee3d90612f48908d908d908d908d908d908d908d906153d6565b60405180910390a350505050505050505050565b6000612fa1826103c386868080601f0160208091040260200160405190810160405280939291908181526020018383808284376000920191909152506133cc92505050565b949350505050565b7ff0c57e16840df040f15088dc2f81fe391c3923bec73e23a9662efc9c229c6a0e805460019190600160401b900460ff1680612ff2575080546001600160401b03808416911610155b1561300f5760405162dc149f60e41b815260040160405180910390fd5b805468ffffffffffffffffff19166001600160401b03831617600160401b178155600080546001600160a01b03808e166001600160a01b0319928316178355600180548e8316908416178155600280548e8416908516178155600380548e8516908616179055600480548985169086161790556006805481875291820190557ff652222313e28459528d920b65115c16c04f3efc82aaedc97be59f3f377c0d40018054928c1692909316821790925560405190927f44063d258760b98116d53815adbc906a56b3563e540148cc0fc2457f83b5eeb291a360058054600082815260028201909255600c6001909101027f036b6384b5eca791c62761152d0c79bb0604c104a5fb6f4eb0703f3154bb3db0810180546001600160601b03191681556040805193845260208401908190529251909261316e927f036b6384b5eca791c62761152d0c79bb0604c104a5fb6f4eb0703f3154bb3db101916146b1565b50805460ff60601b1916600160601b8815150217815585516002820155602086015160038201556040860151600480830191909155606087015160058301556131bd9060068301908790614673565b50805486516020808901516040808b015160608c0151825160008082529581019093526001600160601b03909616956001957f3475f0ed7216dd7d453db663a1c3024e4f36cc925521d54edb9d13e022cbee3d958f959194919392918e915060405161322f97969594939291906153d6565b60405180910390a361324460018060016134cf565b50805460ff60401b191681556040516001600160401b03831681527fc7f505b2f371ae2175ee4913f4499e1f2633a7b5936321eed1cdaeb6115181d29060200160405180910390a15050505050505050505050565b6000546001600160a01b031633146132c45760405163c383977560e01b815260040160405180910390fd5b600080546001600160a01b0319166001600160a01b0392909216919091179055565b6001600160a01b03821660009081526008602052604081205460ff1661331f5760405163e51cf7bf60e01b815260040160405180910390fd5b61332a858585612f5c565b82101561334a57604051630e3360f160e21b815260040160405180910390fd5b61335f6001600160a01b0384163330856143f0565b61337c576040516312171d8360e31b815260040160405180910390fd5b6133c08686868080601f0160208091040260200160405190810160405280939291908181526020018383808284376000920191909152508892508791506141069050565b90505b95945050505050565b60008060006133da846144cc565b5091509150806005836001600160601b0316815481106133fc576133fc6150c9565b90600052602060002090600c020160040154612fa1919061523f565b6004546001600160a01b0316331461344357604051639d6cab9960e01b815260040160405180910390fd5b613451848484846001613f6a565b5050505050565b60006007828154811061346d5761346d6150c9565b600091825260209091206003600490920201015492915050565b60006005836001600160601b0316815481106134a5576134a56150c9565b60009182526020808320948352600c91909102909301600a0190925250604090205460ff16919050565b806005846001600160601b0316815481106134ec576134ec6150c9565b60009182526020808320868452600c92909202909101600a0190526040808220805460ff19169315159390931790925590518215159184916001600160601b038716917fb47629acdf64971062d40984f77d3dee212d735b11e3e8c7a4222d9f0572cc7991a4505050565b6000806007836000015181548110613571576135716150c9565b9060005260206000209060040201905060008160030184602001518154811061359c5761359c6150c9565b90600052602060002090600b02019050600060068260000154815481106135c5576135c56150c9565b60009182526020808320919091015487519188015160a0890151604051634fe264fb60e01b81526004810194909452602484019190915260448301526001600160a01b031692508290634fe264fb90606401602060405180830381865afa158015613634573d6000803e3d6000fd5b505050506040513d601f19601f8201168201806040525081019061365891906152cb565b905061271081111561366957506127105b6000612710613678838261510e565b8560010154613687919061523f565b613691919061526c565b905080876080018181516136a591906152b8565b90525060a08701516006850180546000929081106136c5576136c56150c9565b6000918252602090912001546004805460405163965af6c760e01b81526001600160a01b03938416945092169163965af6c791613706918591879101615374565b600060405180830381600087803b15801561372057600080fd5b505af1158015613734573d6000803e3d6000fd5b505060048054604051633c85b79360e21b81526001600160a01b03909116935063f216de4c9250613769918591879101615374565b600060405180830381600087803b15801561378357600080fd5b505af1158015613797573d6000803e3d6000fd5b50505050602088015188516001600160a01b0383167f8975b837fe0d18616c65abb8b843726a32b552ee4feca009944fa658bbb282e7866137d787615453565b60098b01546040516137f99392916000916001600160a01b039091169061546f565b60405180910390a48751602089015160a08a015160405163ba66fde760e01b81526004810193909352602483019190915260448201526001600160a01b0385169063ba66fde790606401602060405180830381865afa158015613860573d6000803e3d6000fd5b505050506040513d601f19601f820116820180604052508101906138849190615121565b6138ea576004805460405163b5d69e9960e01b81526001600160a01b039091169163b5d69e99916138b79185910161487e565b600060405180830381600087803b1580156138d157600080fd5b505af11580156138e5573d6000803e3d6000fd5b505050505b600188606001516138fb919061510e565b8860a0015114801561390f57506040880151155b15613a005760098501546001600160a01b0316613958576000805460028701546040516001600160a01b039092169281156108fc029290818181858888f193505050505061397f565b6000546002860154600987015461397d926001600160a01b0391821692911690614553565b505b60005460808901516002546139a2926001600160a01b0391821692911690614553565b506020880151885160808a0151600288015460098901546040517f6cecfd3ec56289ccb16e30eb194f9a87dfdc12630b9abbc31fc69af5a0b0eaf4936139f793909290916001600160a01b0390911690615493565b60405180910390a35b505050608090940151949350505050565b60006007826000015181548110613a2a57613a2a6150c9565b90600052602060002090600402019050600081600301836020015181548110613a5557613a556150c9565b90600052602060002090600b0201905060006006826000015481548110613a7e57613a7e6150c9565b6000918252602080832090910154865191870151606088015160a08901516001600160a01b0390931695508593634fe264fb93909291613abd916154b2565b6040516001600160e01b031960e086901b168152600481019390935260248301919091526044820152606401602060405180830381865afa158015613b06573d6000803e3d6000fd5b505050506040513d601f19601f82011682018060405250810190613b2a91906152cb565b9050612710811115613b3b57506127105b60008360060186606001518760a00151613b5591906154b2565b81548110613b6557613b656150c9565b600091825260208220015460018601546001600160a01b03909116925061271090613b9190859061523f565b613b9b919061526c565b6004805460405163965af6c760e01b81529293506001600160a01b03169163965af6c791613bcd918691869101615374565b600060405180830381600087803b158015613be757600080fd5b505af1158015613bfb573d6000803e3d6000fd5b505060048054604051636624192f60e01b81526001600160a01b039091169350636624192f9250613c2e9186910161487e565b602060405180830381865afa158015613c4b573d6000803e3d6000fd5b505050506040513d601f19601f82011682018060405250810190613c6f9190615121565b613c8c57600254613c8a906001600160a01b03168383614553565b505b60006127108489604001518a60800151613ca6919061526c565b613cb0919061523f565b613cba919061526c565b905080866008016000828254613cd091906152b8565b925050819055506000612710858a604001518960020154613cf1919061526c565b613cfb919061523f565b613d05919061526c565b905080876007016000828254613d1b91906152b8565b9091555050600254613d37906001600160a01b03168584614553565b5060098701546001600160a01b0316613d75576040516001600160a01b0385169082156108fc029083906000818181858888f1935050505050613d90565b6009870154613d8e906001600160a01b03168583614553565b505b6020890151895160098901546040516001600160a01b03888116927f8975b837fe0d18616c65abb8b843726a32b552ee4feca009944fa658bbb282e792613de0928c928a928a929091169061546f565b60405180910390a4600189606001516002613dfb919061523f565b613e05919061510e565b8960a00151036125da57600087600801548a60800151613e25919061510e565b9050600088600701548960020154613e3d919061510e565b905081151580613e4c57508015155b15611538578115613e7657600054600254613e74916001600160a01b03918216911684614553565b505b8015613edd5760098901546001600160a01b0316613ebc57600080546040516001600160a01b039091169183156108fc02918491818181858888f1935050505050613edd565b60005460098a0154613edb916001600160a01b03918216911683614553565b505b60208b01518b5160098b01546040517f6cecfd3ec56289ccb16e30eb194f9a87dfdc12630b9abbc31fc69af5a0b0eaf491613f2791879187916001600160a01b0390911690615493565b60405180910390a35050505050505050505050565b6000546001600160a01b03163314613f675760405163c383977560e01b815260040160405180910390fd5b50565b60006001600160601b0385161580613f8c57506005546001600160601b038616115b15613fa257613f9a82614620565b5060006133c3565b8315801590613fdd57506005856001600160601b031681548110613fc857613fc86150c9565b90600052602060002090600c02016002015484105b15613feb57613f9a82614620565b60048054604051630a5861b960e41b81526001600160a01b03898116938201939093526001600160601b03881660248201526044810187905285151560648201526000928392839291169063a5861b90906084016060604051808303816000875af115801561405e573d6000803e3d6000fd5b505050506040513d601f19601f8201168201806040525081019061408291906154c6565b925092509250806140a25761409685614620565b600093505050506133c3565b82156140cd576002546140c0906001600160a01b03168a30866143f0565b6140cd5761409685614620565b81156140f7576002546140ea906001600160a01b03168a84614553565b6140f75761409685614620565b50600198975050505050505050565b6000806000614114866144cc565b92505091506005826001600160601b031681548110614135576141356150c9565b60009182526020808320848452600a600c90930201919091019052604090205460ff166141755760405163b34eb75d60e01b815260040160405180910390fd5b600780546001810182556000918252600160601b33026001600160601b03851617600482027fa66cc928b5edb82af9bd49922954155ab7b0942694bea4ce44661d9a8736c6888101918255427fa66cc928b5edb82af9bd49922954155ab7b0942694bea4ce44661d9a8736c68a909101556006805492965090929184908110614200576142006150c9565b60009182526020822001548354600580546001600160a01b039093169450916001600160601b03909116908110614239576142396150c9565b60009182526020808320600387018054600181018255908552918420600c909302019350600b0201906001600160a01b038a16156142845761427f8a8460040154611052565b61428a565b82600401545b9050614296818a61526c565b6003808401919091558683558301546002840154612710916142b79161523f565b6142c1919061526c565b6001830155600282018990556009820180546001600160a01b0319166001600160a01b038c8116919091179091556004805460405163d09f392d60e01b81529182018b9052600060248301529091169063d09f392d90604401600060405180830381600087803b15801561433457600080fd5b505af1158015614348573d6000803e3d6000fd5b50505050836001600160a01b031663b6ede540898e8e86600301546040518563ffffffff1660e01b8152600401614382949392919061538d565b600060405180830381600087803b15801561439c57600080fd5b505af11580156143b0573d6000803e3d6000fd5b50506040513392508a91507f141dfc18aa6a56fc816f44f0e9e2f1ebc92b15ab167770e17db5b084c10ed99590600090a350505050505050949350505050565b6040516001600160a01b038481166024830152838116604483015260648201839052600091829182919088169060840160408051601f198184030181529181526020820180516001600160e01b03166323b872dd60e01b179052516144559190615308565b6000604051808303816000865af19150503d8060008114614492576040519150601f19603f3d011682016040523d82523d6000602084013e614497565b606091505b50915091508180156144c15750805115806144c15750808060200190518101906144c19190615121565b979650505050505050565b60008060006040845110614541575050506020810151604082015160608301516001600160601b038316158061450d57506005546001600160601b03841610155b1561451757600192505b8160000361452457600391505b80158061453357506006548110155b1561453c575060015b61454c565b506001915060039050815b9193909250565b6000806000856001600160a01b03168585604051602401614575929190615374565b60408051601f198184030181529181526020820180516001600160e01b031663a9059cbb60e01b179052516145aa9190615308565b6000604051808303816000865af19150503d80600081146145e7576040519150601f19603f3d011682016040523d82523d6000602084013e6145ec565b606091505b50915091508180156146165750805115806146165750808060200190518101906146169190615121565b9695505050505050565b600181600181111561463457614634614a0d565b0361463c5750565b60405163a437293760e01b815260040160405180910390fd5b60405180608001604052806004906020820280368337509192915050565b82600481019282156146a1579160200282015b828111156146a1578251825591602001919060010190614686565b506146ad9291506146eb565b5090565b8280548282559060005260206000209081019282156146a157916020028201828111156146a1578251825591602001919060010190614686565b5b808211156146ad57600081556001016146ec565b6001600160a01b0381168114613f6757600080fd5b60006020828403121561472757600080fd5b813561473281614700565b9392505050565b80356001600160601b038116811461475057600080fd5b919050565b634e487b7160e01b600052604160045260246000fd5b604051601f8201601f191681016001600160401b038111828210171561479357614793614755565b604052919050565b600082601f8301126147ac57600080fd5b813560206001600160401b038211156147c7576147c7614755565b8160051b6147d682820161476b565b92835284810182019282810190878511156147f057600080fd5b83870192505b848310156144c1578235825291830191908301906147f6565b8015158114613f6757600080fd5b60008060006060848603121561483257600080fd5b61483b84614739565b925060208401356001600160401b0381111561485657600080fd5b6148628682870161479b565b92505060408401356148738161480f565b809150509250925092565b6001600160a01b0391909116815260200190565b6000602082840312156148a457600080fd5b5035919050565b600080604083850312156148be57600080fd5b82356148c981614700565b946020939093013593505050565b6000806000606084860312156148ec57600080fd5b505081359360208301359350604090920135919050565b60006020828403121561491557600080fd5b6110a382614739565b8060005b6004811015610b15578151845260209384019390910190600101614922565b608081016110a6828461491e565b600082601f83011261496057600080fd5b81356001600160401b0381111561497957614979614755565b61498c601f8201601f191660200161476b565b8181528460208386010111156149a157600080fd5b816020850160208301376000918101602001919091529392505050565b600080604083850312156149d157600080fd5b82356149dc81614700565b915060208301356001600160401b038111156149f757600080fd5b614a038582860161494f565b9150509250929050565b634e487b7160e01b600052602160045260246000fd5b60058110614a4157634e487b7160e01b600052602160045260246000fd5b9052565b6001600160601b03861681526001600160a01b038516602082015260a08101614a716040830186614a23565b9215156060820152608001529392505050565b600080600060608486031215614a9957600080fd5b8335614aa481614700565b92506020840135915060408401356001600160401b03811115614ac657600080fd5b614ad28682870161494f565b9150509250925092565b60008060408385031215614aef57600080fd5b6148c983614739565b60008060408385031215614b0b57600080fd5b8235614b1681614700565b91506020830135614b268161480f565b809150509250929050565b600080600060608486031215614b4657600080fd5b8335614b5181614700565b925060208401356001600160401b0381168114614b6d57600080fd5b9150604084013560ff8116811461487357600080fd5b600082601f830112614b9457600080fd5b604051608081018181106001600160401b0382111715614bb657614bb6614755565b604052806080840185811115614bcb57600080fd5b845b81811015614be5578035835260209283019201614bcd565b509195945050505050565b6000806000806000806000610140888a031215614c0c57600080fd5b614c1588614739565b96506020880135614c258161480f565b955060408801359450606088013593506080880135925060a08801359150614c508960c08a01614b83565b905092959891949750929550565b60008060408385031215614c7157600080fd5b50508035926020909101359150565b600081518084526020808501945080840160005b83811015614cb95781516001600160a01b031687529582019590820190600101614c94565b509495945050505050565b6020815281516020820152602082015160408201526040820151606082015260608201516080820152608082015160a082015260a082015160c0820152600060c08301516101608060e0850152614d1f610180850183614c80565b60e08601516101008681019190915286015161012080870191909152860151909250610140614d58818701836001600160a01b03169052565b959095015193019290925250919050565b60008060408385031215614d7c57600080fd5b823591506020830135614b2681614700565b60008060408385031215614da157600080fd5b8235915060208301356001600160401b038111156149f757600080fd5b600080600060608486031215614dd357600080fd5b833592506020840135915060408401356001600160401b03811115614ac657600080fd5b600080600080600080600080610160898b031215614e1457600080fd5b614e1d89614739565b97506020890135614e2d8161480f565b965060408901359550606089013594506080890135935060a08901359250614e588a60c08b01614b83565b91506101408901356001600160401b03811115614e7457600080fd5b614e808b828c0161479b565b9150509295985092959890939650565b60008083601f840112614ea257600080fd5b5081356001600160401b03811115614eb957600080fd5b602083019150836020828501011115614ed157600080fd5b9250929050565b600080600060408486031215614eed57600080fd5b83356001600160401b03811115614f0357600080fd5b614f0f86828701614e90565b909450925050602084013561487381614700565b60008060008060008060008060006101e08a8c031215614f4257600080fd5b8935614f4d81614700565b985060208a0135614f5d81614700565b975060408a0135614f6d81614700565b965060608a0135614f7d81614700565b955060808a0135614f8d81614700565b945060a08a0135614f9d8161480f565b9350614fac8b60c08c01614b83565b9250614fbc8b6101408c01614b83565b91506101c08a0135614fcd81614700565b809150509295985092959850929598565b600080600080600060808688031215614ff657600080fd5b8535945060208601356001600160401b0381111561501357600080fd5b61501f88828901614e90565b909550935050604086013561503381614700565b949793965091946060013592915050565b60006020828403121561505657600080fd5b81356001600160401b0381111561506c57600080fd5b612fa18482850161494f565b6000806000806080858703121561508e57600080fd5b843561509981614700565b93506150a760208601614739565b92506040850135915060608501356150be8161480f565b939692955090935050565b634e487b7160e01b600052603260045260246000fd5b634e487b7160e01b600052601160045260246000fd5b600060018201615107576151076150df565b5060010190565b818103818111156110a6576110a66150df565b60006020828403121561513357600080fd5b81516147328161480f565b602081016110a68284614a23565b600181815b8085111561518757816000190482111561516d5761516d6150df565b8085161561517a57918102915b93841c9390800290615151565b509250929050565b60008261519e575060016110a6565b816151ab575060006110a6565b81600181146151c157600281146151cb576151e7565b60019150506110a6565b60ff8411156151dc576151dc6150df565b50506001821b6110a6565b5060208310610133831016604e8410600b841016171561520a575081810a6110a6565b615214838361514c565b8060001904821115615228576152286150df565b029392505050565b60006110a360ff84168361518f565b80820281158282048414176110a6576110a66150df565b634e487b7160e01b600052601260045260246000fd5b60008261527b5761527b615256565b500490565b60008060006060848603121561529557600080fd5b8351925060208401516152a78161480f565b60408501519092506148738161480f565b808201808211156110a6576110a66150df565b6000602082840312156152dd57600080fd5b5051919050565b60005b838110156152ff5781810151838201526020016152e7565b50506000910152565b6000825161531a8184602087016152e4565b9190910192915050565b60006101208201905087151582528660208301528560408301528460608301528360808301526144c160a083018461491e565b60006020828403121561536957600080fd5b815161473281614700565b6001600160a01b03929092168252602082015260400190565b84815283602082015260806040820152600083518060808401526153b88160a08501602088016152e4565b606083019390935250601f91909101601f19160160a0019392505050565b60006101408083018a1515845260208a8186015289604086015288606086015287608086015261540960a086018861491e565b6101208501929092528451908190526101608401918086019160005b8181101561544157835185529382019392820192600101615425565b50929c9b505050505050505050505050565b6000600160ff1b8201615468576154686150df565b5060000390565b938452602084019290925260408301526001600160a01b0316606082015260800190565b92835260208301919091526001600160a01b0316604082015260600190565b6000826154c1576154c1615256565b500690565b6000806000606084860312156154db57600080fd5b835192506020840151915060408401516148738161480f56fe360894a13ba1a3210667c828492db98dca3e2076cc3735a920a3ca505d382bbca26469706673582212206f6dbc52f6b33c88371cf04341376a22257008d36c474d7660a88feb9103bcbf64736f6c63430008120033",
  "devdoc": {
    "errors": {
      "AlreadyInitialized()": [
        {
          "details": "The contract is already initialized."
        }
      ],
      "NotInitializing()": [
        {
          "details": "The contract is not initializing."
        }
      ],
      "UUPSUnauthorizedCallContext()": [
        {
          "details": "The call is from an unauthorized context."
        }
      ],
      "UUPSUnsupportedProxiableUUID(bytes32)": [
        {
          "details": "The storage `slot` is unsupported as a UUID."
        }
      ]
    },
    "events": {
      "AcceptedFeeToken(address,bool)": {
        "details": "To be emitted when an ERC20 token is added or removed as a method to pay fees.",
        "params": {
          "_accepted": "Whether the token is accepted or not.",
          "_token": "The ERC20 token."
        }
      },
      "DisputeCreation(uint256,address)": {
        "details": "To be emitted when a dispute is created.",
        "params": {
          "_arbitrable": "The contract which created the dispute.",
          "_disputeID": "The identifier of the dispute in the Arbitrator contract."
        }
      },
      "Initialized(uint64)": {
        "details": "Triggered when the contract has been initialized or reinitialized."
      },
      "NewCurrencyRate(address,uint64,uint8)": {
        "details": "To be emitted when the fee for a particular ERC20 token is updated.",
        "params": {
          "_feeToken": "The ERC20 token.",
          "_rateDecimals": "The new decimals of the fee token rate.",
          "_rateInEth": "The new rate of the fee token in ETH."
        }
      },
      "Ruling(address,uint256,uint256)": {
        "details": "To be raised when a ruling is given.",
        "params": {
          "_arbitrable": "The arbitrable receiving the ruling.",
          "_disputeID": "The identifier of the dispute in the Arbitrator contract.",
          "_ruling": "The ruling which was given."
        }
      },
      "Upgraded(address)": {
        "params": {
          "newImplementation": "Address of the new implementation the proxy is now forwarding calls to."
        }
      }
    },
    "kind": "dev",
    "methods": {
      "addNewDisputeKit(address)": {
        "details": "Add a new supported dispute kit module to the court.",
        "params": {
          "_disputeKitAddress": "The address of the dispute kit contract."
        }
      },
      "appeal(uint256,uint256,bytes)": {
        "details": "Appeals the ruling of a specified dispute. Note: Access restricted to the Dispute Kit for this `disputeID`.",
        "params": {
          "_disputeID": "The ID of the dispute.",
          "_extraData": "Extradata for the dispute. Can be required during court jump.",
          "_numberOfChoices": "Number of choices for the dispute. Can be required during court jump."
        }
      },
      "appealCost(uint256)": {
        "details": "Gets the cost of appealing a specified dispute.",
        "params": {
          "_disputeID": "The ID of the dispute."
        },
        "returns": {
          "cost": "The appeal cost."
        }
      },
      "appealPeriod(uint256)": {
        "details": "Gets the start and the end of a specified dispute's current appeal period.",
        "params": {
          "_disputeID": "The ID of the dispute."
        },
        "returns": {
          "end": "The end of the appeal period.",
          "start": "The start of the appeal period."
        }
      },
      "arbitrationCost(bytes)": {
        "details": "Compute the cost of arbitration denominated in ETH.      It is recommended not to increase it often, as it can be highly time and gas consuming for the arbitrated contracts to cope with fee augmentation.",
        "params": {
          "_extraData": "Additional info about the dispute. We use it to pass the ID of the dispute's court (first 32 bytes), the minimum number of jurors required (next 32 bytes) and the ID of the specific dispute kit (last 32 bytes)."
        },
        "returns": {
          "cost": "The arbitration cost in ETH."
        }
      },
      "arbitrationCost(bytes,address)": {
        "details": "Compute the cost of arbitration denominated in `_feeToken`.      It is recommended not to increase it often, as it can be highly time and gas consuming for the arbitrated contracts to cope with fee augmentation.",
        "params": {
          "_extraData": "Additional info about the dispute. We use it to pass the ID of the dispute's court (first 32 bytes), the minimum number of jurors required (next 32 bytes) and the ID of the specific dispute kit (last 32 bytes).",
          "_feeToken": "The ERC20 token used to pay fees."
        },
        "returns": {
          "cost": "The arbitration cost in `_feeToken`."
        }
      },
      "changeAcceptedFeeTokens(address,bool)": {
        "details": "Changes the supported fee tokens.",
        "params": {
          "_accepted": "Whether the token is supported or not as a method of fee payment.",
          "_feeToken": "The fee token."
        }
      },
      "changeCurrencyRates(address,uint64,uint8)": {
        "details": "Changes the currency rate of a fee token.",
        "params": {
          "_feeToken": "The fee token.",
          "_rateDecimals": "The new decimals of the fee token rate.",
          "_rateInEth": "The new rate of the fee token in ETH."
        }
      },
      "changeGovernor(address)": {
        "details": "Changes the `governor` storage variable.",
        "params": {
          "_governor": "The new value for the `governor` storage variable."
        }
      },
      "changeInstructor(address)": {
        "details": "Changes the `instructor` storage variable.",
        "params": {
          "_instructor": "The new value for the `instructor` storage variable."
        }
      },
      "changeJurorProsecutionModule(address)": {
        "details": "Changes the `jurorProsecutionModule` storage variable.",
        "params": {
          "_jurorProsecutionModule": "The new value for the `jurorProsecutionModule` storage variable."
        }
      },
      "changePinakion(address)": {
        "details": "Changes the `pinakion` storage variable.",
        "params": {
          "_pinakion": "The new value for the `pinakion` storage variable."
        }
      },
      "changeSortitionModule(address)": {
        "details": "Changes the `_sortitionModule` storage variable. Note that the new module should be initialized for all courts.",
        "params": {
          "_sortitionModule": "The new value for the `sortitionModule` storage variable."
        }
      },
      "constructor": {
        "details": "Constructor, initializing the implementation to reduce attack surface."
      },
      "createCourt(uint96,bool,uint256,uint256,uint256,uint256,uint256[4],uint256[])": {
        "details": "Creates a court under a specified parent court.",
        "params": {
          "_alpha": "The `alpha` property value of the court.",
          "_feeForJuror": "The `feeForJuror` property value of the court.",
          "_hiddenVotes": "The `hiddenVotes` property value of the court.",
          "_jurorsForCourtJump": "The `jurorsForCourtJump` property value of the court.",
          "_minStake": "The `minStake` property value of the court.",
          "_parent": "The `parent` property value of the court.",
          "_supportedDisputeKits": "Indexes of dispute kits that this court will support.",
          "_timesPerPeriod": "The `timesPerPeriod` property value of the court."
        }
      },
      "createDispute(uint256,bytes)": {
        "details": "Create a dispute and pay for the fees in the native currency, typically ETH.      Must be called by the arbitrable contract.      Must pay at least arbitrationCost(_extraData).",
        "params": {
          "_extraData": "Additional info about the dispute. We use it to pass the ID of the dispute's court (first 32 bytes), the minimum number of jurors required (next 32 bytes) and the ID of the specific dispute kit (last 32 bytes).",
          "_numberOfChoices": "The number of choices the arbitrator can choose from in this dispute."
        },
        "returns": {
          "disputeID": "The identifier of the dispute created."
        }
      },
      "createDispute(uint256,bytes,address,uint256)": {
        "details": "Create a dispute and pay for the fees in a supported ERC20 token.      Must be called by the arbitrable contract.      Must pay at least arbitrationCost(_extraData).",
        "params": {
          "_extraData": "Additional info about the dispute. We use it to pass the ID of the dispute's court (first 32 bytes), the minimum number of jurors required (next 32 bytes) and the ID of the specific dispute kit (last 32 bytes).",
          "_feeAmount": "Amount of the ERC20 token used to pay fees.",
          "_feeToken": "The ERC20 token used to pay fees.",
          "_numberOfChoices": "The number of choices the arbitrator can choose from in this dispute."
        },
        "returns": {
          "disputeID": "The identifier of the dispute created."
        }
      },
      "currentRuling(uint256)": {
        "details": "Gets the current ruling of a specified dispute.",
        "params": {
          "_disputeID": "The ID of the dispute."
        },
        "returns": {
          "overridden": "Whether the ruling was overridden by appeal funding or not.",
          "ruling": "The current ruling.",
          "tied": "Whether it's a tie or not."
        }
      },
      "draw(uint256,address)": {
        "details": "Draws one juror for the dispute until the number votes paid for is reached.",
        "params": {
          "_disputeID": "The ID of the dispute.",
          "_juror": "The address of the juror to draw."
        }
      },
      "enableDisputeKits(uint96,uint256[],bool)": {
        "details": "Adds/removes court's support for specified dispute kits.",
        "params": {
          "_courtID": "The ID of the court.",
          "_disputeKitIDs": "The IDs of dispute kits which support should be added/removed.",
          "_enable": "Whether add or remove the dispute kits from the court."
        }
      },
      "execute(uint256,uint256,uint256)": {
        "details": "Distribute the PNKs at stake and the dispute fees for the specific round of the dispute. Can be called in parts.",
        "params": {
          "_disputeID": "The ID of the dispute.",
          "_iterations": "The number of iterations to run.",
          "_round": "The appeal round."
        }
      },
      "executeGovernorProposal(address,uint256,bytes)": {
        "details": "Allows the governor to call anything on behalf of the contract.",
        "params": {
          "_amount": "The value sent with the call.",
          "_data": "The data sent with the call.",
          "_destination": "The destination of the call."
        }
      },
      "executeRuling(uint256)": {
        "details": "Executes a specified dispute's ruling.",
        "params": {
          "_disputeID": "The ID of the dispute."
        }
      },
      "getNumberOfVotes(uint256)": {
        "details": "Gets the number of votes permitted for the specified dispute in the latest round.",
        "params": {
          "_disputeID": "The ID of the dispute."
        }
      },
      "getTimesPerPeriod(uint96)": {
        "details": "Gets the timesPerPeriod array for a given court.",
        "params": {
          "_courtID": "The ID of the court to get the times from."
        },
        "returns": {
          "timesPerPeriod": "The timesPerPeriod array for the given court."
        }
      },
      "initialize(address,address,address,address,address,bool,uint256[4],uint256[4],address)": {
        "details": "Initializer (constructor equivalent for upgradable contracts).",
        "params": {
          "_courtParameters": "Numeric parameters of General court (minStake, alpha, feeForJuror and jurorsForCourtJump respectively).",
          "_disputeKit": "The address of the default dispute kit.",
          "_governor": "The governor's address.",
          "_hiddenVotes": "The `hiddenVotes` property value of the general court.",
          "_instructor": "The address of the instructor.",
          "_jurorProsecutionModule": "The address of the juror prosecution module.",
          "_pinakion": "The address of the token contract.",
          "_sortitionModuleAddress": "The sortition module responsible for sortition of the jurors.",
          "_timesPerPeriod": "The `timesPerPeriod` property value of the general court."
        }
      },
      "isDisputeKitJumping(uint256)": {
        "details": "Returns true if the dispute kit will be switched to a parent DK.",
        "params": {
          "_disputeID": "The ID of the dispute."
        },
        "returns": {
          "_0": "Whether DK will be switched or not."
        }
      },
      "passPeriod(uint256)": {
        "details": "Passes the period of a specified dispute.",
        "params": {
          "_disputeID": "The ID of the dispute."
        }
      },
      "proxiableUUID()": {
        "details": "Implementation of the ERC1822 `proxiableUUID` function. This returns the storage slot used by the implementation. It is used to validate the implementation's compatibility when performing an upgrade. IMPORTANT: A proxy pointing at a proxiable contract should not be considered proxiable itself, because this risks bricking a proxy that upgrades to it, by delegating to itself until out of gas. Thus it is critical that this function revert if invoked through a proxy. This is guaranteed by the if statement."
      },
      "setStake(uint96,uint256)": {
        "details": "Sets the caller's stake in a court.",
        "params": {
          "_courtID": "The ID of the court.",
          "_newStake": "The new stake. Note that the existing delayed stake will be nullified as non-relevant."
        }
      },
      "setStakeBySortitionModule(address,uint96,uint256,bool)": {
        "details": "Sets the stake of a specified account in a court, typically to apply a delayed stake or unstake inactive jurors.",
        "params": {
          "_account": "The account whose stake is being set.",
          "_alreadyTransferred": "Whether the PNKs have already been transferred to the contract.",
          "_courtID": "The ID of the court.",
          "_newStake": "The new stake."
        }
      },
      "upgradeToAndCall(address,bytes)": {
        "details": "Upgrade mechanism including access control and UUPS-compliance.Reverts if the execution is not performed via delegatecall or the execution context is not of a proxy with an ERC1967-compliant implementation pointing to self.",
        "params": {
          "data": "Data used in a delegate call to `newImplementation` if non-empty. This will typically be an encoded function call, and allows initializing the storage of the proxy like a Solidity constructor.",
          "newImplementation": "Address of the new implementation contract."
        }
      }
    },
    "title": "KlerosCoreUniversity Core arbitrator contract for educational purposes.",
    "version": 1
  },
  "userdoc": {
    "errors": {
      "FailedDelegateCall()": [
        {
          "notice": "Failed Delegated call"
        }
      ],
      "InvalidImplementation(address)": [
        {
          "notice": "The `implementation` is not UUPS-compliant"
        }
      ]
    },
    "events": {
      "Upgraded(address)": {
        "notice": "Emitted when the `implementation` has been successfully upgraded."
      }
    },
    "kind": "user",
    "methods": {},
    "version": 1
  },
  "storageLayout": {
    "storage": [
      {
        "astId": 16649,
        "contract": "src/arbitration/university/KlerosCoreUniversity.sol:KlerosCoreUniversity",
        "label": "governor",
        "offset": 0,
        "slot": "0",
        "type": "t_address"
      },
      {
        "astId": 16651,
        "contract": "src/arbitration/university/KlerosCoreUniversity.sol:KlerosCoreUniversity",
        "label": "instructor",
        "offset": 0,
        "slot": "1",
        "type": "t_address"
      },
      {
        "astId": 16654,
        "contract": "src/arbitration/university/KlerosCoreUniversity.sol:KlerosCoreUniversity",
        "label": "pinakion",
        "offset": 0,
        "slot": "2",
        "type": "t_contract(IERC20)1042"
      },
      {
        "astId": 16656,
        "contract": "src/arbitration/university/KlerosCoreUniversity.sol:KlerosCoreUniversity",
        "label": "jurorProsecutionModule",
        "offset": 0,
        "slot": "3",
        "type": "t_address"
      },
      {
        "astId": 16659,
        "contract": "src/arbitration/university/KlerosCoreUniversity.sol:KlerosCoreUniversity",
        "label": "sortitionModule",
        "offset": 0,
        "slot": "4",
        "type": "t_contract(ISortitionModuleUniversity)16509"
      },
      {
        "astId": 16663,
        "contract": "src/arbitration/university/KlerosCoreUniversity.sol:KlerosCoreUniversity",
        "label": "courts",
        "offset": 0,
        "slot": "5",
        "type": "t_array(t_struct(Court)16572_storage)dyn_storage"
      },
      {
        "astId": 16667,
        "contract": "src/arbitration/university/KlerosCoreUniversity.sol:KlerosCoreUniversity",
        "label": "disputeKits",
        "offset": 0,
        "slot": "6",
        "type": "t_array(t_contract(IDisputeKit)16336)dyn_storage"
      },
      {
        "astId": 16671,
        "contract": "src/arbitration/university/KlerosCoreUniversity.sol:KlerosCoreUniversity",
        "label": "disputes",
        "offset": 0,
        "slot": "7",
        "type": "t_array(t_struct(Dispute)16589_storage)dyn_storage"
      },
      {
        "astId": 16677,
        "contract": "src/arbitration/university/KlerosCoreUniversity.sol:KlerosCoreUniversity",
        "label": "currencyRates",
        "offset": 0,
        "slot": "8",
        "type": "t_mapping(t_contract(IERC20)1042,t_struct(CurrencyRate)16634_storage)"
      }
    ],
    "types": {
      "t_address": {
        "encoding": "inplace",
        "label": "address",
        "numberOfBytes": "20"
      },
      "t_array(t_address)dyn_storage": {
        "base": "t_address",
        "encoding": "dynamic_array",
        "label": "address[]",
        "numberOfBytes": "32"
      },
      "t_array(t_contract(IDisputeKit)16336)dyn_storage": {
        "base": "t_contract(IDisputeKit)16336",
        "encoding": "dynamic_array",
        "label": "contract IDisputeKit[]",
        "numberOfBytes": "32"
      },
      "t_array(t_struct(Court)16572_storage)dyn_storage": {
        "base": "t_struct(Court)16572_storage",
        "encoding": "dynamic_array",
        "label": "struct KlerosCoreUniversity.Court[]",
        "numberOfBytes": "32"
      },
      "t_array(t_struct(Dispute)16589_storage)dyn_storage": {
        "base": "t_struct(Dispute)16589_storage",
        "encoding": "dynamic_array",
        "label": "struct KlerosCoreUniversity.Dispute[]",
        "numberOfBytes": "32"
      },
      "t_array(t_struct(Round)16614_storage)dyn_storage": {
        "base": "t_struct(Round)16614_storage",
        "encoding": "dynamic_array",
        "label": "struct KlerosCoreUniversity.Round[]",
        "numberOfBytes": "32"
      },
      "t_array(t_uint256)4_storage": {
        "base": "t_uint256",
        "encoding": "inplace",
        "label": "uint256[4]",
        "numberOfBytes": "128"
      },
      "t_array(t_uint256)dyn_storage": {
        "base": "t_uint256",
        "encoding": "dynamic_array",
        "label": "uint256[]",
        "numberOfBytes": "32"
      },
      "t_bool": {
        "encoding": "inplace",
        "label": "bool",
        "numberOfBytes": "1"
      },
      "t_contract(IArbitrableV2)16097": {
        "encoding": "inplace",
        "label": "contract IArbitrableV2",
        "numberOfBytes": "20"
      },
      "t_contract(IDisputeKit)16336": {
        "encoding": "inplace",
        "label": "contract IDisputeKit",
        "numberOfBytes": "20"
      },
      "t_contract(IERC20)1042": {
        "encoding": "inplace",
        "label": "contract IERC20",
        "numberOfBytes": "20"
      },
      "t_contract(ISortitionModuleUniversity)16509": {
        "encoding": "inplace",
        "label": "contract ISortitionModuleUniversity",
        "numberOfBytes": "20"
      },
      "t_enum(Period)16546": {
        "encoding": "inplace",
        "label": "enum KlerosCoreUniversity.Period",
        "numberOfBytes": "1"
      },
      "t_mapping(t_contract(IERC20)1042,t_struct(CurrencyRate)16634_storage)": {
        "encoding": "mapping",
        "key": "t_contract(IERC20)1042",
        "label": "mapping(contract IERC20 => struct KlerosCoreUniversity.CurrencyRate)",
        "numberOfBytes": "32",
        "value": "t_struct(CurrencyRate)16634_storage"
      },
      "t_mapping(t_uint256,t_bool)": {
        "encoding": "mapping",
        "key": "t_uint256",
        "label": "mapping(uint256 => bool)",
        "numberOfBytes": "32",
        "value": "t_bool"
      },
      "t_struct(Court)16572_storage": {
        "encoding": "inplace",
        "label": "struct KlerosCoreUniversity.Court",
        "members": [
          {
            "astId": 16548,
            "contract": "src/arbitration/university/KlerosCoreUniversity.sol:KlerosCoreUniversity",
            "label": "parent",
            "offset": 0,
            "slot": "0",
            "type": "t_uint96"
          },
          {
            "astId": 16550,
            "contract": "src/arbitration/university/KlerosCoreUniversity.sol:KlerosCoreUniversity",
            "label": "hiddenVotes",
            "offset": 12,
            "slot": "0",
            "type": "t_bool"
          },
          {
            "astId": 16553,
            "contract": "src/arbitration/university/KlerosCoreUniversity.sol:KlerosCoreUniversity",
            "label": "children",
            "offset": 0,
            "slot": "1",
            "type": "t_array(t_uint256)dyn_storage"
          },
          {
            "astId": 16555,
            "contract": "src/arbitration/university/KlerosCoreUniversity.sol:KlerosCoreUniversity",
            "label": "minStake",
            "offset": 0,
            "slot": "2",
            "type": "t_uint256"
          },
          {
            "astId": 16557,
            "contract": "src/arbitration/university/KlerosCoreUniversity.sol:KlerosCoreUniversity",
            "label": "alpha",
            "offset": 0,
            "slot": "3",
            "type": "t_uint256"
          },
          {
            "astId": 16559,
            "contract": "src/arbitration/university/KlerosCoreUniversity.sol:KlerosCoreUniversity",
            "label": "feeForJuror",
            "offset": 0,
            "slot": "4",
            "type": "t_uint256"
          },
          {
            "astId": 16561,
            "contract": "src/arbitration/university/KlerosCoreUniversity.sol:KlerosCoreUniversity",
            "label": "jurorsForCourtJump",
            "offset": 0,
            "slot": "5",
            "type": "t_uint256"
          },
          {
            "astId": 16565,
            "contract": "src/arbitration/university/KlerosCoreUniversity.sol:KlerosCoreUniversity",
            "label": "timesPerPeriod",
            "offset": 0,
            "slot": "6",
            "type": "t_array(t_uint256)4_storage"
          },
          {
            "astId": 16569,
            "contract": "src/arbitration/university/KlerosCoreUniversity.sol:KlerosCoreUniversity",
            "label": "supportedDisputeKits",
            "offset": 0,
            "slot": "10",
            "type": "t_mapping(t_uint256,t_bool)"
          },
          {
            "astId": 16571,
            "contract": "src/arbitration/university/KlerosCoreUniversity.sol:KlerosCoreUniversity",
            "label": "disabled",
            "offset": 0,
            "slot": "11",
            "type": "t_bool"
          }
        ],
        "numberOfBytes": "384"
      },
      "t_struct(CurrencyRate)16634_storage": {
        "encoding": "inplace",
        "label": "struct KlerosCoreUniversity.CurrencyRate",
        "members": [
          {
            "astId": 16629,
            "contract": "src/arbitration/university/KlerosCoreUniversity.sol:KlerosCoreUniversity",
            "label": "feePaymentAccepted",
            "offset": 0,
            "slot": "0",
            "type": "t_bool"
          },
          {
            "astId": 16631,
            "contract": "src/arbitration/university/KlerosCoreUniversity.sol:KlerosCoreUniversity",
            "label": "rateInEth",
            "offset": 1,
            "slot": "0",
            "type": "t_uint64"
          },
          {
            "astId": 16633,
            "contract": "src/arbitration/university/KlerosCoreUniversity.sol:KlerosCoreUniversity",
            "label": "rateDecimals",
            "offset": 9,
            "slot": "0",
            "type": "t_uint8"
          }
        ],
        "numberOfBytes": "32"
      },
      "t_struct(Dispute)16589_storage": {
        "encoding": "inplace",
        "label": "struct KlerosCoreUniversity.Dispute",
        "members": [
          {
            "astId": 16574,
            "contract": "src/arbitration/university/KlerosCoreUniversity.sol:KlerosCoreUniversity",
            "label": "courtID",
            "offset": 0,
            "slot": "0",
            "type": "t_uint96"
          },
          {
            "astId": 16577,
            "contract": "src/arbitration/university/KlerosCoreUniversity.sol:KlerosCoreUniversity",
            "label": "arbitrated",
            "offset": 12,
            "slot": "0",
            "type": "t_contract(IArbitrableV2)16097"
          },
          {
            "astId": 16580,
            "contract": "src/arbitration/university/KlerosCoreUniversity.sol:KlerosCoreUniversity",
            "label": "period",
            "offset": 0,
            "slot": "1",
            "type": "t_enum(Period)16546"
          },
          {
            "astId": 16582,
            "contract": "src/arbitration/university/KlerosCoreUniversity.sol:KlerosCoreUniversity",
            "label": "ruled",
            "offset": 1,
            "slot": "1",
            "type": "t_bool"
          },
          {
            "astId": 16584,
            "contract": "src/arbitration/university/KlerosCoreUniversity.sol:KlerosCoreUniversity",
            "label": "lastPeriodChange",
            "offset": 0,
            "slot": "2",
            "type": "t_uint256"
          },
          {
            "astId": 16588,
            "contract": "src/arbitration/university/KlerosCoreUniversity.sol:KlerosCoreUniversity",
            "label": "rounds",
            "offset": 0,
            "slot": "3",
            "type": "t_array(t_struct(Round)16614_storage)dyn_storage"
          }
        ],
        "numberOfBytes": "128"
      },
      "t_struct(Round)16614_storage": {
        "encoding": "inplace",
        "label": "struct KlerosCoreUniversity.Round",
        "members": [
          {
            "astId": 16591,
            "contract": "src/arbitration/university/KlerosCoreUniversity.sol:KlerosCoreUniversity",
            "label": "disputeKitID",
            "offset": 0,
            "slot": "0",
            "type": "t_uint256"
          },
          {
            "astId": 16593,
            "contract": "src/arbitration/university/KlerosCoreUniversity.sol:KlerosCoreUniversity",
            "label": "pnkAtStakePerJuror",
            "offset": 0,
            "slot": "1",
            "type": "t_uint256"
          },
          {
            "astId": 16595,
            "contract": "src/arbitration/university/KlerosCoreUniversity.sol:KlerosCoreUniversity",
            "label": "totalFeesForJurors",
            "offset": 0,
            "slot": "2",
            "type": "t_uint256"
          },
          {
            "astId": 16597,
            "contract": "src/arbitration/university/KlerosCoreUniversity.sol:KlerosCoreUniversity",
            "label": "nbVotes",
            "offset": 0,
            "slot": "3",
            "type": "t_uint256"
          },
          {
            "astId": 16599,
            "contract": "src/arbitration/university/KlerosCoreUniversity.sol:KlerosCoreUniversity",
            "label": "repartitions",
            "offset": 0,
            "slot": "4",
            "type": "t_uint256"
          },
          {
            "astId": 16601,
            "contract": "src/arbitration/university/KlerosCoreUniversity.sol:KlerosCoreUniversity",
            "label": "pnkPenalties",
            "offset": 0,
            "slot": "5",
            "type": "t_uint256"
          },
          {
            "astId": 16604,
            "contract": "src/arbitration/university/KlerosCoreUniversity.sol:KlerosCoreUniversity",
            "label": "drawnJurors",
            "offset": 0,
            "slot": "6",
            "type": "t_array(t_address)dyn_storage"
          },
          {
            "astId": 16606,
            "contract": "src/arbitration/university/KlerosCoreUniversity.sol:KlerosCoreUniversity",
            "label": "sumFeeRewardPaid",
            "offset": 0,
            "slot": "7",
            "type": "t_uint256"
          },
          {
            "astId": 16608,
            "contract": "src/arbitration/university/KlerosCoreUniversity.sol:KlerosCoreUniversity",
            "label": "sumPnkRewardPaid",
            "offset": 0,
            "slot": "8",
            "type": "t_uint256"
          },
          {
            "astId": 16611,
            "contract": "src/arbitration/university/KlerosCoreUniversity.sol:KlerosCoreUniversity",
            "label": "feeToken",
            "offset": 0,
            "slot": "9",
            "type": "t_contract(IERC20)1042"
          },
          {
            "astId": 16613,
            "contract": "src/arbitration/university/KlerosCoreUniversity.sol:KlerosCoreUniversity",
            "label": "drawIterations",
            "offset": 0,
            "slot": "10",
            "type": "t_uint256"
          }
        ],
        "numberOfBytes": "352"
      },
      "t_uint256": {
        "encoding": "inplace",
        "label": "uint256",
        "numberOfBytes": "32"
      },
      "t_uint64": {
        "encoding": "inplace",
        "label": "uint64",
        "numberOfBytes": "8"
      },
      "t_uint8": {
        "encoding": "inplace",
        "label": "uint8",
        "numberOfBytes": "1"
      },
      "t_uint96": {
        "encoding": "inplace",
        "label": "uint96",
        "numberOfBytes": "12"
      }
    }
  }
}