{
  "address": "0x0d91F523fA287A74698A0e6Cd6A2436E91b9BEB9",
  "abi": [
    {
      "inputs": [],
      "stateMutability": "nonpayable",
      "type": "constructor"
    },
    {
      "inputs": [],
      "name": "AlreadyInitialized",
      "type": "error"
    },
    {
      "inputs": [],
      "name": "AppealFeesNotEnough",
      "type": "error"
    },
    {
      "inputs": [],
      "name": "AppealPeriodNotPassed",
      "type": "error"
    },
    {
      "inputs": [],
      "name": "ArbitrationFeesNotEnough",
      "type": "error"
    },
    {
      "inputs": [],
      "name": "CannotDisableClassicDK",
      "type": "error"
    },
    {
      "inputs": [],
      "name": "CommitPeriodNotPassed",
      "type": "error"
    },
    {
      "inputs": [],
      "name": "DisputeKitNotSupportedByCourt",
      "type": "error"
    },
    {
      "inputs": [],
      "name": "DisputeKitOnly",
      "type": "error"
    },
    {
      "inputs": [],
      "name": "DisputeNotAppealable",
      "type": "error"
    },
    {
      "inputs": [],
      "name": "DisputePeriodIsFinal",
      "type": "error"
    },
    {
      "inputs": [],
      "name": "DisputeStillDrawing",
      "type": "error"
    },
    {
      "inputs": [],
      "name": "EvidenceNotPassedAndNotAppeal",
      "type": "error"
    },
    {
      "inputs": [],
      "name": "FailedDelegateCall",
      "type": "error"
    },
    {
      "inputs": [],
      "name": "GovernorOnly",
      "type": "error"
    },
    {
      "inputs": [],
      "name": "GuardianOrGovernorOnly",
      "type": "error"
    },
    {
      "inputs": [],
      "name": "InvalidDisputKitParent",
      "type": "error"
    },
    {
      "inputs": [],
      "name": "InvalidForkingCourtAsParent",
      "type": "error"
    },
    {
      "inputs": [
        {
          "internalType": "address",
          "name": "implementation",
          "type": "address"
        }
      ],
      "name": "InvalidImplementation",
      "type": "error"
    },
    {
      "inputs": [],
      "name": "MinStakeLowerThanParentCourt",
      "type": "error"
    },
    {
      "inputs": [],
      "name": "MustSupportDisputeKitClassic",
      "type": "error"
    },
    {
      "inputs": [],
      "name": "NotEvidencePeriod",
      "type": "error"
    },
    {
      "inputs": [],
      "name": "NotExecutionPeriod",
      "type": "error"
    },
    {
      "inputs": [],
      "name": "NotInitializing",
      "type": "error"
    },
    {
      "inputs": [],
      "name": "RulingAlreadyExecuted",
      "type": "error"
    },
    {
      "inputs": [],
      "name": "SortitionModuleOnly",
      "type": "error"
    },
    {
      "inputs": [],
      "name": "StakingInTooManyCourts",
      "type": "error"
    },
    {
      "inputs": [],
      "name": "StakingLessThanCourtMinStake",
      "type": "error"
    },
    {
      "inputs": [],
      "name": "StakingNotPossibleInThisCourt",
      "type": "error"
    },
    {
      "inputs": [],
      "name": "StakingTransferFailed",
      "type": "error"
    },
    {
      "inputs": [],
      "name": "StakingZeroWhenNoStake",
      "type": "error"
    },
    {
      "inputs": [],
      "name": "TokenNotAccepted",
      "type": "error"
    },
    {
      "inputs": [],
      "name": "TransferFailed",
      "type": "error"
    },
    {
      "inputs": [],
      "name": "UUPSUnauthorizedCallContext",
      "type": "error"
    },
    {
      "inputs": [
        {
          "internalType": "bytes32",
          "name": "slot",
          "type": "bytes32"
        }
      ],
      "name": "UUPSUnsupportedProxiableUUID",
      "type": "error"
    },
    {
      "inputs": [],
      "name": "UnstakingTransferFailed",
      "type": "error"
    },
    {
      "inputs": [],
      "name": "UnsuccessfulCall",
      "type": "error"
    },
    {
      "inputs": [],
      "name": "UnsupportedDisputeKit",
      "type": "error"
    },
    {
      "inputs": [],
      "name": "VotePeriodNotPassed",
      "type": "error"
    },
    {
      "inputs": [],
      "name": "WhenNotPausedOnly",
      "type": "error"
    },
    {
      "inputs": [],
      "name": "WhenPausedOnly",
      "type": "error"
    },
    {
      "inputs": [],
      "name": "WrongDisputeKitIndex",
      "type": "error"
    },
    {
      "anonymous": false,
      "inputs": [
        {
          "indexed": true,
          "internalType": "contract IERC20",
          "name": "_token",
          "type": "address"
        },
        {
          "indexed": true,
          "internalType": "bool",
          "name": "_accepted",
          "type": "bool"
        }
      ],
      "name": "AcceptedFeeToken",
      "type": "event"
    },
    {
      "anonymous": false,
      "inputs": [
        {
          "indexed": true,
          "internalType": "uint256",
          "name": "_disputeID",
          "type": "uint256"
        },
        {
          "indexed": true,
          "internalType": "contract IArbitrableV2",
          "name": "_arbitrable",
          "type": "address"
        }
      ],
      "name": "AppealDecision",
      "type": "event"
    },
    {
      "anonymous": false,
      "inputs": [
        {
          "indexed": true,
          "internalType": "uint256",
          "name": "_disputeID",
          "type": "uint256"
        },
        {
          "indexed": true,
          "internalType": "contract IArbitrableV2",
          "name": "_arbitrable",
          "type": "address"
        }
      ],
      "name": "AppealPossible",
      "type": "event"
    },
    {
      "anonymous": false,
      "inputs": [
        {
          "indexed": true,
          "internalType": "uint96",
          "name": "_courtID",
          "type": "uint96"
        },
        {
          "indexed": true,
          "internalType": "uint96",
          "name": "_parent",
          "type": "uint96"
        },
        {
          "indexed": false,
          "internalType": "bool",
          "name": "_hiddenVotes",
          "type": "bool"
        },
        {
          "indexed": false,
          "internalType": "uint256",
          "name": "_minStake",
          "type": "uint256"
        },
        {
          "indexed": false,
          "internalType": "uint256",
          "name": "_alpha",
          "type": "uint256"
        },
        {
          "indexed": false,
          "internalType": "uint256",
          "name": "_feeForJuror",
          "type": "uint256"
        },
        {
          "indexed": false,
          "internalType": "uint256",
          "name": "_jurorsForCourtJump",
          "type": "uint256"
        },
        {
          "indexed": false,
          "internalType": "uint256[4]",
          "name": "_timesPerPeriod",
          "type": "uint256[4]"
        },
        {
          "indexed": false,
          "internalType": "uint256[]",
          "name": "_supportedDisputeKits",
          "type": "uint256[]"
        }
      ],
      "name": "CourtCreated",
      "type": "event"
    },
    {
      "anonymous": false,
      "inputs": [
        {
          "indexed": true,
          "internalType": "uint256",
          "name": "_disputeID",
          "type": "uint256"
        },
        {
          "indexed": true,
          "internalType": "uint256",
          "name": "_roundID",
          "type": "uint256"
        },
        {
          "indexed": true,
          "internalType": "uint96",
          "name": "_fromCourtID",
          "type": "uint96"
        },
        {
          "indexed": false,
          "internalType": "uint96",
          "name": "_toCourtID",
          "type": "uint96"
        }
      ],
      "name": "CourtJump",
      "type": "event"
    },
    {
      "anonymous": false,
      "inputs": [
        {
          "indexed": true,
          "internalType": "uint96",
          "name": "_courtID",
          "type": "uint96"
        },
        {
          "indexed": false,
          "internalType": "bool",
          "name": "_hiddenVotes",
          "type": "bool"
        },
        {
          "indexed": false,
          "internalType": "uint256",
          "name": "_minStake",
          "type": "uint256"
        },
        {
          "indexed": false,
          "internalType": "uint256",
          "name": "_alpha",
          "type": "uint256"
        },
        {
          "indexed": false,
          "internalType": "uint256",
          "name": "_feeForJuror",
          "type": "uint256"
        },
        {
          "indexed": false,
          "internalType": "uint256",
          "name": "_jurorsForCourtJump",
          "type": "uint256"
        },
        {
          "indexed": false,
          "internalType": "uint256[4]",
          "name": "_timesPerPeriod",
          "type": "uint256[4]"
        }
      ],
      "name": "CourtModified",
      "type": "event"
    },
    {
      "anonymous": false,
      "inputs": [
        {
          "indexed": true,
          "internalType": "uint256",
          "name": "_disputeID",
          "type": "uint256"
        },
        {
          "indexed": true,
          "internalType": "contract IArbitrableV2",
          "name": "_arbitrable",
          "type": "address"
        }
      ],
      "name": "DisputeCreation",
      "type": "event"
    },
    {
      "anonymous": false,
      "inputs": [
        {
          "indexed": true,
          "internalType": "uint256",
          "name": "_disputeKitID",
          "type": "uint256"
        },
        {
          "indexed": true,
          "internalType": "contract IDisputeKit",
          "name": "_disputeKitAddress",
          "type": "address"
        }
      ],
      "name": "DisputeKitCreated",
      "type": "event"
    },
    {
      "anonymous": false,
      "inputs": [
        {
          "indexed": true,
          "internalType": "uint96",
          "name": "_courtID",
          "type": "uint96"
        },
        {
          "indexed": true,
          "internalType": "uint256",
          "name": "_disputeKitID",
          "type": "uint256"
        },
        {
          "indexed": true,
          "internalType": "bool",
          "name": "_enable",
          "type": "bool"
        }
      ],
      "name": "DisputeKitEnabled",
      "type": "event"
    },
    {
      "anonymous": false,
      "inputs": [
        {
          "indexed": true,
          "internalType": "uint256",
          "name": "_disputeID",
          "type": "uint256"
        },
        {
          "indexed": true,
          "internalType": "uint256",
          "name": "_roundID",
          "type": "uint256"
        },
        {
          "indexed": true,
          "internalType": "uint256",
          "name": "_fromDisputeKitID",
          "type": "uint256"
        },
        {
          "indexed": false,
          "internalType": "uint256",
          "name": "_toDisputeKitID",
          "type": "uint256"
        }
      ],
      "name": "DisputeKitJump",
      "type": "event"
    },
    {
      "anonymous": false,
      "inputs": [
        {
          "indexed": true,
          "internalType": "address",
          "name": "_address",
          "type": "address"
        },
        {
          "indexed": true,
          "internalType": "uint256",
          "name": "_disputeID",
          "type": "uint256"
        },
        {
          "indexed": false,
          "internalType": "uint256",
          "name": "_roundID",
          "type": "uint256"
        },
        {
          "indexed": false,
          "internalType": "uint256",
          "name": "_voteID",
          "type": "uint256"
        }
      ],
      "name": "Draw",
      "type": "event"
    },
    {
      "anonymous": false,
      "inputs": [
        {
          "indexed": false,
          "internalType": "uint64",
          "name": "version",
          "type": "uint64"
        }
      ],
      "name": "Initialized",
      "type": "event"
    },
    {
      "anonymous": false,
      "inputs": [
        {
          "indexed": true,
          "internalType": "uint256",
          "name": "_disputeID",
          "type": "uint256"
        },
        {
          "indexed": true,
          "internalType": "uint256",
          "name": "_roundID",
          "type": "uint256"
        },
        {
          "indexed": false,
          "internalType": "uint256",
          "name": "_pnkAmount",
          "type": "uint256"
        },
        {
          "indexed": false,
          "internalType": "uint256",
          "name": "_feeAmount",
          "type": "uint256"
        },
        {
          "indexed": false,
          "internalType": "contract IERC20",
          "name": "_feeToken",
          "type": "address"
        }
      ],
      "name": "LeftoverRewardSent",
      "type": "event"
    },
    {
      "anonymous": false,
      "inputs": [
        {
          "indexed": true,
          "internalType": "contract IERC20",
          "name": "_feeToken",
          "type": "address"
        },
        {
          "indexed": false,
          "internalType": "uint64",
          "name": "_rateInEth",
          "type": "uint64"
        },
        {
          "indexed": false,
          "internalType": "uint8",
          "name": "_rateDecimals",
          "type": "uint8"
        }
      ],
      "name": "NewCurrencyRate",
      "type": "event"
    },
    {
      "anonymous": false,
      "inputs": [
        {
          "indexed": true,
          "internalType": "uint256",
          "name": "_disputeID",
          "type": "uint256"
        },
        {
          "indexed": false,
          "internalType": "enum KlerosCoreBase.Period",
          "name": "_period",
          "type": "uint8"
        }
      ],
      "name": "NewPeriod",
      "type": "event"
    },
    {
      "anonymous": false,
      "inputs": [],
      "name": "Paused",
      "type": "event"
    },
    {
      "anonymous": false,
      "inputs": [
        {
          "indexed": true,
          "internalType": "contract IArbitrableV2",
          "name": "_arbitrable",
          "type": "address"
        },
        {
          "indexed": true,
          "internalType": "uint256",
          "name": "_disputeID",
          "type": "uint256"
        },
        {
          "indexed": false,
          "internalType": "uint256",
          "name": "_ruling",
          "type": "uint256"
        }
      ],
      "name": "Ruling",
      "type": "event"
    },
    {
      "anonymous": false,
      "inputs": [
        {
          "indexed": true,
          "internalType": "address",
          "name": "_account",
          "type": "address"
        },
        {
          "indexed": true,
          "internalType": "uint256",
          "name": "_disputeID",
          "type": "uint256"
        },
        {
          "indexed": true,
          "internalType": "uint256",
          "name": "_roundID",
          "type": "uint256"
        },
        {
          "indexed": false,
          "internalType": "uint256",
          "name": "_degreeOfCoherency",
          "type": "uint256"
        },
        {
          "indexed": false,
          "internalType": "int256",
          "name": "_pnkAmount",
          "type": "int256"
        },
        {
          "indexed": false,
          "internalType": "int256",
          "name": "_feeAmount",
          "type": "int256"
        },
        {
          "indexed": false,
          "internalType": "contract IERC20",
          "name": "_feeToken",
          "type": "address"
        }
      ],
      "name": "TokenAndETHShift",
      "type": "event"
    },
    {
      "anonymous": false,
      "inputs": [],
      "name": "Unpaused",
      "type": "event"
    },
    {
      "anonymous": false,
      "inputs": [
        {
          "indexed": true,
          "internalType": "address",
          "name": "newImplementation",
          "type": "address"
        }
      ],
      "name": "Upgraded",
      "type": "event"
    },
    {
      "inputs": [
        {
          "internalType": "contract IDisputeKit",
          "name": "_disputeKitAddress",
          "type": "address"
        }
      ],
      "name": "addNewDisputeKit",
      "outputs": [],
      "stateMutability": "nonpayable",
      "type": "function"
    },
    {
      "inputs": [
        {
          "internalType": "uint256",
          "name": "_disputeID",
          "type": "uint256"
        },
        {
          "internalType": "uint256",
          "name": "_numberOfChoices",
          "type": "uint256"
        },
        {
          "internalType": "bytes",
          "name": "_extraData",
          "type": "bytes"
        }
      ],
      "name": "appeal",
      "outputs": [],
      "stateMutability": "payable",
      "type": "function"
    },
    {
      "inputs": [
        {
          "internalType": "uint256",
          "name": "_disputeID",
          "type": "uint256"
        }
      ],
      "name": "appealCost",
      "outputs": [
        {
          "internalType": "uint256",
          "name": "cost",
          "type": "uint256"
        }
      ],
      "stateMutability": "view",
      "type": "function"
    },
    {
      "inputs": [
        {
          "internalType": "uint256",
          "name": "_disputeID",
          "type": "uint256"
        }
      ],
      "name": "appealPeriod",
      "outputs": [
        {
          "internalType": "uint256",
          "name": "start",
          "type": "uint256"
        },
        {
          "internalType": "uint256",
          "name": "end",
          "type": "uint256"
        }
      ],
      "stateMutability": "view",
      "type": "function"
    },
    {
      "inputs": [
        {
          "internalType": "bytes",
          "name": "_extraData",
          "type": "bytes"
        },
        {
          "internalType": "contract IERC20",
          "name": "_feeToken",
          "type": "address"
        }
      ],
      "name": "arbitrationCost",
      "outputs": [
        {
          "internalType": "uint256",
          "name": "cost",
          "type": "uint256"
        }
      ],
      "stateMutability": "view",
      "type": "function"
    },
    {
      "inputs": [
        {
          "internalType": "bytes",
          "name": "_extraData",
          "type": "bytes"
        }
      ],
      "name": "arbitrationCost",
      "outputs": [
        {
          "internalType": "uint256",
          "name": "cost",
          "type": "uint256"
        }
      ],
      "stateMutability": "view",
      "type": "function"
    },
    {
      "inputs": [
        {
          "internalType": "contract IERC20",
          "name": "_feeToken",
          "type": "address"
        },
        {
          "internalType": "bool",
          "name": "_accepted",
          "type": "bool"
        }
      ],
      "name": "changeAcceptedFeeTokens",
      "outputs": [],
      "stateMutability": "nonpayable",
      "type": "function"
    },
    {
      "inputs": [
        {
          "internalType": "uint96",
          "name": "_courtID",
          "type": "uint96"
        },
        {
          "internalType": "bool",
          "name": "_hiddenVotes",
          "type": "bool"
        },
        {
          "internalType": "uint256",
          "name": "_minStake",
          "type": "uint256"
        },
        {
          "internalType": "uint256",
          "name": "_alpha",
          "type": "uint256"
        },
        {
          "internalType": "uint256",
          "name": "_feeForJuror",
          "type": "uint256"
        },
        {
          "internalType": "uint256",
          "name": "_jurorsForCourtJump",
          "type": "uint256"
        },
        {
          "internalType": "uint256[4]",
          "name": "_timesPerPeriod",
          "type": "uint256[4]"
        }
      ],
      "name": "changeCourtParameters",
      "outputs": [],
      "stateMutability": "nonpayable",
      "type": "function"
    },
    {
      "inputs": [
        {
          "internalType": "contract IERC20",
          "name": "_feeToken",
          "type": "address"
        },
        {
          "internalType": "uint64",
          "name": "_rateInEth",
          "type": "uint64"
        },
        {
          "internalType": "uint8",
          "name": "_rateDecimals",
          "type": "uint8"
        }
      ],
      "name": "changeCurrencyRates",
      "outputs": [],
      "stateMutability": "nonpayable",
      "type": "function"
    },
    {
      "inputs": [
        {
          "internalType": "address payable",
          "name": "_governor",
          "type": "address"
        }
      ],
      "name": "changeGovernor",
      "outputs": [],
      "stateMutability": "nonpayable",
      "type": "function"
    },
    {
      "inputs": [
        {
          "internalType": "address",
          "name": "_guardian",
          "type": "address"
        }
      ],
      "name": "changeGuardian",
      "outputs": [],
      "stateMutability": "nonpayable",
      "type": "function"
    },
    {
      "inputs": [
        {
          "internalType": "address",
          "name": "_jurorProsecutionModule",
          "type": "address"
        }
      ],
      "name": "changeJurorProsecutionModule",
      "outputs": [],
      "stateMutability": "nonpayable",
      "type": "function"
    },
    {
      "inputs": [
        {
          "internalType": "contract IERC20",
          "name": "_pinakion",
          "type": "address"
        }
      ],
      "name": "changePinakion",
      "outputs": [],
      "stateMutability": "nonpayable",
      "type": "function"
    },
    {
      "inputs": [
        {
          "internalType": "contract ISortitionModule",
          "name": "_sortitionModule",
          "type": "address"
        }
      ],
      "name": "changeSortitionModule",
      "outputs": [],
      "stateMutability": "nonpayable",
      "type": "function"
    },
    {
      "inputs": [
        {
          "internalType": "contract IERC20",
          "name": "_toToken",
          "type": "address"
        },
        {
          "internalType": "uint256",
          "name": "_amountInEth",
          "type": "uint256"
        }
      ],
      "name": "convertEthToTokenAmount",
      "outputs": [
        {
          "internalType": "uint256",
          "name": "",
          "type": "uint256"
        }
      ],
      "stateMutability": "view",
      "type": "function"
    },
    {
      "inputs": [
        {
          "internalType": "uint256",
          "name": "",
          "type": "uint256"
        }
      ],
      "name": "courts",
      "outputs": [
        {
          "internalType": "uint96",
          "name": "parent",
          "type": "uint96"
        },
        {
          "internalType": "bool",
          "name": "hiddenVotes",
          "type": "bool"
        },
        {
          "internalType": "uint256",
          "name": "minStake",
          "type": "uint256"
        },
        {
          "internalType": "uint256",
          "name": "alpha",
          "type": "uint256"
        },
        {
          "internalType": "uint256",
          "name": "feeForJuror",
          "type": "uint256"
        },
        {
          "internalType": "uint256",
          "name": "jurorsForCourtJump",
          "type": "uint256"
        },
        {
          "internalType": "bool",
          "name": "disabled",
          "type": "bool"
        }
      ],
      "stateMutability": "view",
      "type": "function"
    },
    {
      "inputs": [
        {
          "internalType": "uint96",
          "name": "_parent",
          "type": "uint96"
        },
        {
          "internalType": "bool",
          "name": "_hiddenVotes",
          "type": "bool"
        },
        {
          "internalType": "uint256",
          "name": "_minStake",
          "type": "uint256"
        },
        {
          "internalType": "uint256",
          "name": "_alpha",
          "type": "uint256"
        },
        {
          "internalType": "uint256",
          "name": "_feeForJuror",
          "type": "uint256"
        },
        {
          "internalType": "uint256",
          "name": "_jurorsForCourtJump",
          "type": "uint256"
        },
        {
          "internalType": "uint256[4]",
          "name": "_timesPerPeriod",
          "type": "uint256[4]"
        },
        {
          "internalType": "bytes",
          "name": "_sortitionExtraData",
          "type": "bytes"
        },
        {
          "internalType": "uint256[]",
          "name": "_supportedDisputeKits",
          "type": "uint256[]"
        }
      ],
      "name": "createCourt",
      "outputs": [],
      "stateMutability": "nonpayable",
      "type": "function"
    },
    {
      "inputs": [
        {
          "internalType": "uint256",
          "name": "_numberOfChoices",
          "type": "uint256"
        },
        {
          "internalType": "bytes",
          "name": "_extraData",
          "type": "bytes"
        }
      ],
      "name": "createDispute",
      "outputs": [
        {
          "internalType": "uint256",
          "name": "disputeID",
          "type": "uint256"
        }
      ],
      "stateMutability": "payable",
      "type": "function"
    },
    {
      "inputs": [
        {
          "internalType": "uint256",
          "name": "_numberOfChoices",
          "type": "uint256"
        },
        {
          "internalType": "bytes",
          "name": "_extraData",
          "type": "bytes"
        },
        {
          "internalType": "contract IERC20",
          "name": "_feeToken",
          "type": "address"
        },
        {
          "internalType": "uint256",
          "name": "_feeAmount",
          "type": "uint256"
        }
      ],
      "name": "createDispute",
      "outputs": [
        {
          "internalType": "uint256",
          "name": "disputeID",
          "type": "uint256"
        }
      ],
      "stateMutability": "nonpayable",
      "type": "function"
    },
    {
      "inputs": [
        {
          "internalType": "contract IERC20",
          "name": "",
          "type": "address"
        }
      ],
      "name": "currencyRates",
      "outputs": [
        {
          "internalType": "bool",
          "name": "feePaymentAccepted",
          "type": "bool"
        },
        {
          "internalType": "uint64",
          "name": "rateInEth",
          "type": "uint64"
        },
        {
          "internalType": "uint8",
          "name": "rateDecimals",
          "type": "uint8"
        }
      ],
      "stateMutability": "view",
      "type": "function"
    },
    {
      "inputs": [
        {
          "internalType": "uint256",
          "name": "_disputeID",
          "type": "uint256"
        }
      ],
      "name": "currentRuling",
      "outputs": [
        {
          "internalType": "uint256",
          "name": "ruling",
          "type": "uint256"
        },
        {
          "internalType": "bool",
          "name": "tied",
          "type": "bool"
        },
        {
          "internalType": "bool",
          "name": "overridden",
          "type": "bool"
        }
      ],
      "stateMutability": "view",
      "type": "function"
    },
    {
      "inputs": [
        {
          "internalType": "uint256",
          "name": "",
          "type": "uint256"
        }
      ],
      "name": "disputeKits",
      "outputs": [
        {
          "internalType": "contract IDisputeKit",
          "name": "",
          "type": "address"
        }
      ],
      "stateMutability": "view",
      "type": "function"
    },
    {
      "inputs": [
        {
          "internalType": "uint256",
          "name": "",
          "type": "uint256"
        }
      ],
      "name": "disputes",
      "outputs": [
        {
          "internalType": "uint96",
          "name": "courtID",
          "type": "uint96"
        },
        {
          "internalType": "contract IArbitrableV2",
          "name": "arbitrated",
          "type": "address"
        },
        {
          "internalType": "enum KlerosCoreBase.Period",
          "name": "period",
          "type": "uint8"
        },
        {
          "internalType": "bool",
          "name": "ruled",
          "type": "bool"
        },
        {
          "internalType": "uint256",
          "name": "lastPeriodChange",
          "type": "uint256"
        }
      ],
      "stateMutability": "view",
      "type": "function"
    },
    {
      "inputs": [
        {
          "internalType": "uint256",
          "name": "_disputeID",
          "type": "uint256"
        },
        {
          "internalType": "uint256",
          "name": "_iterations",
          "type": "uint256"
        }
      ],
      "name": "draw",
      "outputs": [
        {
          "internalType": "uint256",
          "name": "nbDrawnJurors",
          "type": "uint256"
        }
      ],
      "stateMutability": "nonpayable",
      "type": "function"
    },
    {
      "inputs": [
        {
          "internalType": "uint96",
          "name": "_courtID",
          "type": "uint96"
        },
        {
          "internalType": "uint256[]",
          "name": "_disputeKitIDs",
          "type": "uint256[]"
        },
        {
          "internalType": "bool",
          "name": "_enable",
          "type": "bool"
        }
      ],
      "name": "enableDisputeKits",
      "outputs": [],
      "stateMutability": "nonpayable",
      "type": "function"
    },
    {
      "inputs": [
        {
          "internalType": "uint256",
          "name": "_disputeID",
          "type": "uint256"
        },
        {
          "internalType": "uint256",
          "name": "_round",
          "type": "uint256"
        },
        {
          "internalType": "uint256",
          "name": "_iterations",
          "type": "uint256"
        }
      ],
      "name": "execute",
      "outputs": [],
      "stateMutability": "nonpayable",
      "type": "function"
    },
    {
      "inputs": [
        {
          "internalType": "address",
          "name": "_destination",
          "type": "address"
        },
        {
          "internalType": "uint256",
          "name": "_amount",
          "type": "uint256"
        },
        {
          "internalType": "bytes",
          "name": "_data",
          "type": "bytes"
        }
      ],
      "name": "executeGovernorProposal",
      "outputs": [],
      "stateMutability": "nonpayable",
      "type": "function"
    },
    {
      "inputs": [
        {
          "internalType": "uint256",
          "name": "_disputeID",
          "type": "uint256"
        }
      ],
      "name": "executeRuling",
      "outputs": [],
      "stateMutability": "nonpayable",
      "type": "function"
    },
    {
      "inputs": [],
      "name": "getDisputeKitsLength",
      "outputs": [
        {
          "internalType": "uint256",
          "name": "",
          "type": "uint256"
        }
      ],
      "stateMutability": "view",
      "type": "function"
    },
    {
      "inputs": [
        {
          "internalType": "uint256",
          "name": "_disputeID",
          "type": "uint256"
        }
      ],
      "name": "getNumberOfRounds",
      "outputs": [
        {
          "internalType": "uint256",
          "name": "",
          "type": "uint256"
        }
      ],
      "stateMutability": "view",
      "type": "function"
    },
    {
      "inputs": [
        {
          "internalType": "uint256",
          "name": "_disputeID",
          "type": "uint256"
        }
      ],
      "name": "getNumberOfVotes",
      "outputs": [
        {
          "internalType": "uint256",
          "name": "",
          "type": "uint256"
        }
      ],
      "stateMutability": "view",
      "type": "function"
    },
    {
      "inputs": [
        {
          "internalType": "uint256",
          "name": "_disputeID",
          "type": "uint256"
        },
        {
          "internalType": "uint256",
          "name": "_round",
          "type": "uint256"
        }
      ],
      "name": "getPnkAtStakePerJuror",
      "outputs": [
        {
          "internalType": "uint256",
          "name": "",
          "type": "uint256"
        }
      ],
      "stateMutability": "view",
      "type": "function"
    },
    {
      "inputs": [
        {
          "internalType": "uint256",
          "name": "_disputeID",
          "type": "uint256"
        },
        {
          "internalType": "uint256",
          "name": "_round",
          "type": "uint256"
        }
      ],
      "name": "getRoundInfo",
      "outputs": [
        {
          "components": [
            {
              "internalType": "uint256",
              "name": "disputeKitID",
              "type": "uint256"
            },
            {
              "internalType": "uint256",
              "name": "pnkAtStakePerJuror",
              "type": "uint256"
            },
            {
              "internalType": "uint256",
              "name": "totalFeesForJurors",
              "type": "uint256"
            },
            {
              "internalType": "uint256",
              "name": "nbVotes",
              "type": "uint256"
            },
            {
              "internalType": "uint256",
              "name": "repartitions",
              "type": "uint256"
            },
            {
              "internalType": "uint256",
              "name": "pnkPenalties",
              "type": "uint256"
            },
            {
              "internalType": "address[]",
              "name": "drawnJurors",
              "type": "address[]"
            },
            {
              "internalType": "uint256",
              "name": "sumFeeRewardPaid",
              "type": "uint256"
            },
            {
              "internalType": "uint256",
              "name": "sumPnkRewardPaid",
              "type": "uint256"
            },
            {
              "internalType": "contract IERC20",
              "name": "feeToken",
              "type": "address"
            },
            {
              "internalType": "uint256",
              "name": "drawIterations",
              "type": "uint256"
            }
          ],
          "internalType": "struct KlerosCoreBase.Round",
          "name": "",
          "type": "tuple"
        }
      ],
      "stateMutability": "view",
      "type": "function"
    },
    {
      "inputs": [
        {
          "internalType": "uint96",
          "name": "_courtID",
          "type": "uint96"
        }
      ],
      "name": "getTimesPerPeriod",
      "outputs": [
        {
          "internalType": "uint256[4]",
          "name": "timesPerPeriod",
          "type": "uint256[4]"
        }
      ],
      "stateMutability": "view",
      "type": "function"
    },
    {
      "inputs": [],
      "name": "governor",
      "outputs": [
        {
          "internalType": "address",
          "name": "",
          "type": "address"
        }
      ],
      "stateMutability": "view",
      "type": "function"
    },
    {
      "inputs": [],
      "name": "guardian",
      "outputs": [
        {
          "internalType": "address",
          "name": "",
          "type": "address"
        }
      ],
      "stateMutability": "view",
      "type": "function"
    },
    {
      "inputs": [
        {
          "internalType": "address",
          "name": "_governor",
          "type": "address"
        },
        {
          "internalType": "address",
          "name": "_guardian",
          "type": "address"
        },
        {
          "internalType": "contract IERC20",
          "name": "_pinakion",
          "type": "address"
        },
        {
          "internalType": "address",
          "name": "_jurorProsecutionModule",
          "type": "address"
        },
        {
          "internalType": "contract IDisputeKit",
          "name": "_disputeKit",
          "type": "address"
        },
        {
          "internalType": "bool",
          "name": "_hiddenVotes",
          "type": "bool"
        },
        {
          "internalType": "uint256[4]",
          "name": "_courtParameters",
          "type": "uint256[4]"
        },
        {
          "internalType": "uint256[4]",
          "name": "_timesPerPeriod",
          "type": "uint256[4]"
        },
        {
          "internalType": "bytes",
          "name": "_sortitionExtraData",
          "type": "bytes"
        },
        {
          "internalType": "contract ISortitionModule",
          "name": "_sortitionModuleAddress",
          "type": "address"
        }
      ],
      "name": "initialize",
      "outputs": [],
      "stateMutability": "nonpayable",
      "type": "function"
    },
    {
      "inputs": [],
      "name": "initialize5",
      "outputs": [],
      "stateMutability": "nonpayable",
      "type": "function"
    },
    {
      "inputs": [
        {
          "internalType": "uint256",
          "name": "_disputeID",
          "type": "uint256"
        }
      ],
      "name": "isDisputeKitJumping",
      "outputs": [
        {
          "internalType": "bool",
          "name": "",
          "type": "bool"
        }
      ],
      "stateMutability": "view",
      "type": "function"
    },
    {
      "inputs": [
        {
          "internalType": "uint96",
          "name": "_courtID",
          "type": "uint96"
        },
        {
          "internalType": "uint256",
          "name": "_disputeKitID",
          "type": "uint256"
        }
      ],
      "name": "isSupported",
      "outputs": [
        {
          "internalType": "bool",
          "name": "",
          "type": "bool"
        }
      ],
      "stateMutability": "view",
      "type": "function"
    },
    {
      "inputs": [],
      "name": "jurorProsecutionModule",
      "outputs": [
        {
          "internalType": "address",
          "name": "",
          "type": "address"
        }
      ],
      "stateMutability": "view",
      "type": "function"
    },
    {
      "inputs": [
        {
          "internalType": "uint256",
          "name": "_disputeID",
          "type": "uint256"
        }
      ],
      "name": "passPeriod",
      "outputs": [],
      "stateMutability": "nonpayable",
      "type": "function"
    },
    {
      "inputs": [],
      "name": "pause",
      "outputs": [],
      "stateMutability": "nonpayable",
      "type": "function"
    },
    {
      "inputs": [],
      "name": "paused",
      "outputs": [
        {
          "internalType": "bool",
          "name": "",
          "type": "bool"
        }
      ],
      "stateMutability": "view",
      "type": "function"
    },
    {
      "inputs": [],
      "name": "pinakion",
      "outputs": [
        {
          "internalType": "contract IERC20",
          "name": "",
          "type": "address"
        }
      ],
      "stateMutability": "view",
      "type": "function"
    },
    {
      "inputs": [],
      "name": "proxiableUUID",
      "outputs": [
        {
          "internalType": "bytes32",
          "name": "",
          "type": "bytes32"
        }
      ],
      "stateMutability": "view",
      "type": "function"
    },
    {
      "inputs": [
        {
          "internalType": "uint96",
          "name": "_courtID",
          "type": "uint96"
        },
        {
          "internalType": "uint256",
          "name": "_newStake",
          "type": "uint256"
        }
      ],
      "name": "setStake",
      "outputs": [],
      "stateMutability": "nonpayable",
      "type": "function"
    },
    {
      "inputs": [
        {
          "internalType": "address",
          "name": "_account",
          "type": "address"
        },
        {
          "internalType": "uint96",
          "name": "_courtID",
          "type": "uint96"
        },
        {
          "internalType": "uint256",
          "name": "_newStake",
          "type": "uint256"
        }
      ],
      "name": "setStakeBySortitionModule",
      "outputs": [],
      "stateMutability": "nonpayable",
      "type": "function"
    },
    {
      "inputs": [],
      "name": "sortitionModule",
      "outputs": [
        {
          "internalType": "contract ISortitionModule",
          "name": "",
          "type": "address"
        }
      ],
      "stateMutability": "view",
      "type": "function"
    },
    {
      "inputs": [
        {
          "internalType": "address",
          "name": "_account",
          "type": "address"
        },
        {
          "internalType": "uint256",
          "name": "_amount",
          "type": "uint256"
        }
      ],
      "name": "transferBySortitionModule",
      "outputs": [],
      "stateMutability": "nonpayable",
      "type": "function"
    },
    {
      "inputs": [],
      "name": "unpause",
      "outputs": [],
      "stateMutability": "nonpayable",
      "type": "function"
    },
    {
      "inputs": [
        {
          "internalType": "address",
          "name": "newImplementation",
          "type": "address"
        },
        {
          "internalType": "bytes",
          "name": "data",
          "type": "bytes"
        }
      ],
      "name": "upgradeToAndCall",
      "outputs": [],
      "stateMutability": "payable",
      "type": "function"
    },
    {
      "inputs": [],
      "name": "version",
      "outputs": [
        {
          "internalType": "string",
          "name": "",
          "type": "string"
        }
      ],
      "stateMutability": "view",
      "type": "function"
    }
  ],
  "transactionHash": "0x21f170ca6bb374d46013b6513b0fc1bc4e029323aa91257b72ea07f36b2e8e28",
  "args": [],
  "numDeployments": 1,
  "solcInputHash": "3f11dda26fe559c44d21b324a34af1b7",
  "bytecode": "0x60a06040523060805234801561001457600080fd5b5061001d610022565b6100d3565b7ff0c57e16840df040f15088dc2f81fe391c3923bec73e23a9662efc9c229c6a0e805468010000000000000000900460ff16156100715760405162dc149f60e41b815260040160405180910390fd5b80546001600160401b03908116146100d05780546001600160401b0319166001600160401b0390811782556040519081527fc7f505b2f371ae2175ee4913f4499e1f2633a7b5936321eed1cdaeb6115181d29060200160405180910390a15b50565b608051615c8d6100fc600039600081816118a8015281816118d10152611ac60152615c8d6000f3fe6080604052600436106102c95760003560e01c80637ae642611161017b578063c258bb19116100d7578063d98493f611610085578063d98493f61461096b578063e4c0aaf41461098b578063f6506db4146109ab578063f7434ea9146109cb578063fbf405b0146109eb578063fc6f8f1614610a0b578063fe524c3914610a2b57600080fd5b8063c258bb19146108a3578063c3569902146108c3578063c71f4253146108d6578063cf0c38f8146108f6578063d07368bd14610916578063d2b8035a14610936578063d4d1d76a1461095657600080fd5b80638a9bb02a116101345780638a9bb02a146107ae5780638bb04875146107db578063a072b86c146107fb578063acdbf51d1461081b578063afe15cfb1461083b578063b004963714610870578063c13517e11461089057600080fd5b80637ae64261146107045780637b4f3cc51461071957806382d02237146107395780638456cb591461075957806386541b241461076e57806386cdecef1461078e57600080fd5b80633cfd11841161022a57806354fd4d50116101e357806354fd4d50146105fb578063564a565d1461063957806359ec827e1461066a5780635c975abb1461068a578063751accd0146106a45780637717a6e8146106c45780637934c0be146106e457600080fd5b80633cfd1184146105515780633f4ba83a1461057e57806342c37fa314610593578063452a9320146105b35780634f1ef286146105d357806352d1902d146105e657600080fd5b80631860592b116102875780631860592b146103f557806319b81529146104235780631c3db16d146104535780631f5a0dd2146104905780632d29a47b146104f15780632e1daf2f146105115780632fcb4f041461053157600080fd5b8062f5822c146102ce5780630219da79146102f05780630761c14d146103685780630b7414bc146103885780630c340a24146103a8578063115d5376146103d5575b600080fd5b3480156102da57600080fd5b506102ee6102e9366004614db8565b610a4b565b005b3480156102fc57600080fd5b5061033b61030b366004614db8565b60086020526000908152604090205460ff808216916001600160401b0361010082041691600160481b9091041683565b6040805193151584526001600160401b03909216602084015260ff16908201526060015b60405180910390f35b34801561037457600080fd5b506102ee610383366004614e03565b610a98565b34801561039457600080fd5b506102ee6103a3366004614f19565b610ad6565b3480156103b457600080fd5b506000546103c8906001600160a01b031681565b60405161035f9190614f7a565b3480156103e157600080fd5b506102ee6103f0366004614f8e565b610c07565b34801561040157600080fd5b50610415610410366004614fa7565b6111d4565b60405190815260200161035f565b34801561042f57600080fd5b5061044361043e366004614f8e565b61122e565b604051901515815260200161035f565b34801561045f57600080fd5b5061047361046e366004614f8e565b611327565b60408051938452911515602084015215159082015260600161035f565b34801561049c57600080fd5b506104b06104ab366004614f8e565b611428565b604080516001600160601b0390981688529515156020880152948601939093526060850191909152608084015260a0830152151560c082015260e00161035f565b3480156104fd57600080fd5b506102ee61050c366004614fd3565b611487565b34801561051d57600080fd5b506004546103c8906001600160a01b031681565b34801561053d57600080fd5b506102ee61054c366004614db8565b611713565b34801561055d57600080fd5b5061057161056c366004614fff565b611760565b60405161035f919061503d565b34801561058a57600080fd5b506102ee6117ca565b34801561059f57600080fd5b506102ee6105ae366004614fa7565b61184d565b3480156105bf57600080fd5b506001546103c8906001600160a01b031681565b6102ee6105e13660046150ba565b611894565b3480156105f257600080fd5b50610415611ab9565b34801561060757600080fd5b5061062c604051806040016040528060058152602001640c0b8e4b8d60da1b81525081565b60405161035f9190615159565b34801561064557600080fd5b50610659610654366004614f8e565b611b17565b60405161035f9594939291906151a4565b34801561067657600080fd5b50610415610685366004614f8e565b611b73565b34801561069657600080fd5b506009546104439060ff1681565b3480156106b057600080fd5b506102ee6106bf3660046151e3565b611cc8565b3480156106d057600080fd5b506102ee6106df36600461523b565b611d72565b3480156106f057600080fd5b506102ee6106ff366004615257565b611da3565b34801561071057600080fd5b506102ee611e22565b34801561072557600080fd5b506102ee6107343660046152fd565b611ed3565b34801561074557600080fd5b506102ee6107543660046153dc565b611fab565b34801561076557600080fd5b506102ee612068565b34801561077a57600080fd5b506102ee61078936600461542e565b612108565b34801561079a57600080fd5b506104156107a936600461549c565b6122e5565b3480156107ba57600080fd5b506107ce6107c936600461549c565b612336565b60405161035f9190615503565b3480156107e757600080fd5b506102ee6107f6366004614f8e565b6124c2565b34801561080757600080fd5b506102ee6108163660046155a9565b612626565b34801561082757600080fd5b506103c8610836366004614f8e565b61295e565b34801561084757600080fd5b5061085b610856366004614f8e565b612988565b6040805192835260208301919091520161035f565b34801561087c57600080fd5b506102ee61088b366004614db8565b612a34565b61041561089e36600461566d565b612a81565b3480156108af57600080fd5b506102ee6108be366004614db8565b612ab9565b6102ee6108d136600461569d565b612b06565b3480156108e257600080fd5b506104156108f1366004614f8e565b612fda565b34801561090257600080fd5b506003546103c8906001600160a01b031681565b34801561092257600080fd5b506102ee610931366004614db8565b613042565b34801561094257600080fd5b5061041561095136600461549c565b6130eb565b34801561096257600080fd5b50600654610415565b34801561097757600080fd5b5061041561098636600461571e565b61340a565b34801561099757600080fd5b506102ee6109a6366004614db8565b613457565b3480156109b757600080fd5b506104156109c6366004615769565b6134a4565b3480156109d757600080fd5b506104156109e63660046157cf565b613588565b3480156109f757600080fd5b506002546103c8906001600160a01b031681565b348015610a1757600080fd5b50610415610a26366004614f8e565b6135d4565b348015610a3757600080fd5b50610443610a4636600461523b565b613603565b6000546001600160a01b03163314610a765760405163c383977560e01b815260040160405180910390fd5b600280546001600160a01b0319166001600160a01b0392909216919091179055565b6004546001600160a01b03163314610ac357604051639d6cab9960e01b815260040160405180910390fd5b610ad0838383600161364b565b50505050565b6000546001600160a01b03163314610b015760405163c383977560e01b815260040160405180910390fd5b60005b8251811015610ad0578115610ba057828181518110610b2557610b25615803565b602002602001015160001480610b5857506006548351849083908110610b4d57610b4d615803565b602002602001015110155b15610b7657604051633d58a98960e11b815260040160405180910390fd5b610b9b84848381518110610b8c57610b8c615803565b602002602001015160016138c7565b610bff565b6001838281518110610bb457610bb4615803565b602002602001015103610bda576040516356d111fd60e11b815260040160405180910390fd5b610bff84848381518110610bf057610bf0615803565b602002602001015160006138c7565b600101610b04565b600060078281548110610c1c57610c1c615803565b600091825260208220600490910201805460058054929450916001600160601b03909116908110610c4f57610c4f615803565b6000918252602082206003850154600c909202019250610c719060019061582f565b90506000836003018281548110610c8a57610c8a615803565b600091825260208220600b909102019150600185015460ff166004811115610cb457610cb461516c565b03610d8f5781158015610d0357506001840154600684019060ff166004811115610ce057610ce061516c565b60048110610cf057610cf0615803565b01546002850154610d01904261582f565b105b15610d2157604051633e9727df60e01b815260040160405180910390fd5b6003810154600682015414610d49576040516309e4486b60e41b815260040160405180910390fd5b8254600160601b900460ff16610d60576002610d63565b60015b60018086018054909160ff1990911690836004811115610d8557610d8561516c565b0217905550611186565b60018085015460ff166004811115610da957610da961516c565b03610eb9576001840154600684019060ff166004811115610dcc57610dcc61516c565b60048110610ddc57610ddc615803565b01546002850154610ded904261582f565b108015610e8457506006816000015481548110610e0c57610e0c615803565b600091825260209091200154604051630baa64d160e01b8152600481018790526001600160a01b0390911690630baa64d190602401602060405180830381865afa158015610e5e573d6000803e3d6000fd5b505050506040513d601f19601f82011682018060405250810190610e829190615842565b155b15610ea257604051634dfa578560e11b815260040160405180910390fd5b6001808501805460029260ff199091169083610d85565b6002600185015460ff166004811115610ed457610ed461516c565b03611022576001840154600684019060ff166004811115610ef757610ef761516c565b60048110610f0757610f07615803565b01546002850154610f18904261582f565b108015610faf57506006816000015481548110610f3757610f37615803565b6000918252602090912001546040516336a66c7560e11b8152600481018790526001600160a01b0390911690636d4cd8ea90602401602060405180830381865afa158015610f89573d6000803e3d6000fd5b505050506040513d601f19601f82011682018060405250810190610fad9190615842565b155b15610fcd57604051631988dead60e31b815260040160405180910390fd5b600184018054600360ff199091161790558354604051600160601b9091046001600160a01b03169086907fa5d41b970d849372be1da1481ffd78d162bfe57a7aa2fe4e5fb73481fa5ac24f90600090a3611186565b6003600185015460ff16600481111561103d5761103d61516c565b0361114d576001840154600684019060ff1660048111156110605761106061516c565b6004811061107057611070615803565b01546002850154611081904261582f565b108015611118575060068160000154815481106110a0576110a0615803565b600091825260209091200154604051630855bbe960e01b8152600481018790526001600160a01b0390911690630855bbe990602401602060405180830381865afa1580156110f2573d6000803e3d6000fd5b505050506040513d601f19601f820116820180604052508101906111169190615842565b155b1561113657604051632f4dfd8760e01b815260040160405180910390fd5b6001808501805460049260ff199091169083610d85565b6004600185015460ff1660048111156111685761116861516c565b03611186576040516307f38c8f60e11b815260040160405180910390fd5b426002850155600184015460405186917f4e6f5cf43b95303e86aee81683df63992061723a829ee012db21dad388756b91916111c59160ff169061585f565b60405180910390a25050505050565b6001600160a01b03821660009081526008602052604081205461010081046001600160401b03169061121190600160481b900460ff16600a615954565b61121b9084615963565b6112259190615990565b90505b92915050565b6000806007838154811061124457611244615803565b600091825260208220600360049092020190810180549193509061126a9060019061582f565b8154811061127a5761127a615803565b600091825260208220845460058054600b909402909201945090916001600160601b039091169081106112af576112af615803565b90600052602060002090600c020190508060050154826003015410156112da57506000949350505050565b80546005805490916001600160601b03169081106112fa576112fa615803565b6000918252602080832094548352600a600c9092029094010190925250604090205460ff16159392505050565b6000806000806007858154811061134057611340615803565b60009182526020822060036004909202019081018054919350906113669060019061582f565b8154811061137657611376615803565b90600052602060002090600b020190506000600682600001548154811061139f5761139f615803565b600091825260209091200154604051631c3db16d60e01b8152600481018990526001600160a01b0390911691508190631c3db16d90602401606060405180830381865afa1580156113f4573d6000803e3d6000fd5b505050506040513d601f19601f8201168201806040525081019061141891906159a4565b9199909850909650945050505050565b6005818154811061143857600080fd5b60009182526020909120600c9091020180546002820154600383015460048401546005850154600b909501546001600160601b038516965060ff600160601b9095048516959394929391921687565b60095460ff16156114ab57604051636f1dac1d60e01b815260040160405180910390fd5b600080600785815481106114c1576114c1615803565b600091825260209091206004918202019150600182015460ff1660048111156114ec576114ec61516c565b1461150a57604051638794ce4b60e01b815260040160405180910390fd5b80600301848154811061151f5761151f615803565b6000918252602082206004600b9092020190810154909350915061154384836159dd565b6005840154600685015460028601549293509091600090611565908390615990565b9050600086600101549050600080600689600001548154811061158a5761158a615803565b60009182526020909120015460405163368efae360e21b8152600481018e9052602481018d90526001600160a01b039091169150819063da3beb8c90604401602060405180830381865afa1580156115e6573d6000803e3d6000fd5b505050506040513d601f19601f8201168201806040525081019061160a91906159f0565b915050806000036116265783861115611621578395505b611646565b611631846002615963565b86111561164657611643846002615963565b95505b60048801869055865b868110156116f257848110156116a8576116a16040518061010001604052808e81526020018d81526020018481526020018781526020018681526020018581526020018881526020018381525061394f565b95506116ea565b6116ea6040518061010001604052808e81526020018d815260200184815260200187815260200186815260200185815260200188815260200183815250613e44565b60010161164f565b508488600501541461170657600588018590555b5050505050505050505050565b6000546001600160a01b0316331461173e5760405163c383977560e01b815260040160405180910390fd5b600180546001600160a01b0319166001600160a01b0392909216919091179055565b611768614cf8565b6005826001600160601b03168154811061178457611784615803565b6000918252602090912060408051608081019182905292600c029091016006019060049082845b8154815260200190600101908083116117ab5750505050509050919050565b6000546001600160a01b031633146117f55760405163c383977560e01b815260040160405180910390fd5b60095460ff166118185760405163b4143dc760e01b815260040160405180910390fd5b6009805460ff191690556040517fa45f47fdea8a1efdd9029a5691c7f759c32b7c698632b563573e155625d1693390600090a1565b6004546001600160a01b0316331461187857604051639d6cab9960e01b815260040160405180910390fd5b60025461188f906001600160a01b031683836142ef565b505050565b61189d826143b2565b306001600160a01b037f000000000000000000000000000000000000000000000000000000000000000016148061191b57507f00000000000000000000000000000000000000000000000000000000000000006001600160a01b031661190f600080516020615c388339815191525490565b6001600160a01b031614155b156119395760405163703e46dd60e11b815260040160405180910390fd5b816001600160a01b03166352d1902d6040518163ffffffff1660e01b8152600401602060405180830381865afa925050508015611993575060408051601f3d908101601f19168201909252611990918101906159f0565b60015b6119bb5781604051630c76093760e01b81526004016119b29190614f7a565b60405180910390fd5b600080516020615c3883398151915281146119ec57604051632a87526960e21b8152600481018290526024016119b2565b600080516020615c388339815191528390556040516001600160a01b038416907fbc7cd75a20ee27fd9adebab32041f755214dbc6bffa90cc0225b39da2e5c2d3b90600090a281511561188f576000836001600160a01b031683604051611a539190615a09565b600060405180830381855af49150503d8060008114611a8e576040519150601f19603f3d011682016040523d82523d6000602084013e611a93565b606091505b5050905080610ad0576040516339b21b5d60e11b815260040160405180910390fd5b5050565b6000306001600160a01b037f00000000000000000000000000000000000000000000000000000000000000001614611b045760405163703e46dd60e11b815260040160405180910390fd5b50600080516020615c3883398151915290565b60078181548110611b2757600080fd5b60009182526020909120600490910201805460018201546002909201546001600160601b0382169350600160601b9091046001600160a01b03169160ff80821692610100909204169085565b60008060078381548110611b8957611b89615803565b6000918252602082206003600490920201908101805491935090611baf9060019061582f565b81548110611bbf57611bbf615803565b600091825260208220845460058054600b909402909201945090916001600160601b03909116908110611bf457611bf4615803565b90600052602060002090600c020190508060050154826003015410611c935782546001600160601b031660001901611c35576001600160ff1b039350611cc0565b6003820154611c45906002615963565b611c509060016159dd565b81546005805490916001600160601b0316908110611c7057611c70615803565b90600052602060002090600c020160040154611c8c9190615963565b9350611cc0565b6003820154611ca3906002615963565b611cae9060016159dd565b8160040154611cbd9190615963565b93505b505050919050565b6000546001600160a01b03163314611cf35760405163c383977560e01b815260040160405180910390fd5b6000836001600160a01b03168383604051611d0e9190615a09565b60006040518083038185875af1925050503d8060008114611d4b576040519150601f19603f3d011682016040523d82523d6000602084013e611d50565b606091505b5050905080610ad0576040516322092f2f60e11b815260040160405180910390fd5b60095460ff1615611d9657604051636f1dac1d60e01b815260040160405180910390fd5b61188f338383600061364b565b6000546001600160a01b03163314611dce5760405163c383977560e01b815260040160405180910390fd5b6001600160a01b038216600081815260086020526040808220805460ff191685151590811790915590519092917f541615e167511d757a7067a700eb54431b256bb458dfdce0ac58bf2ed0aefd4491a35050565b60056000611e2e6143e0565b8054909150600160401b900460ff1680611e55575080546001600160401b03808416911610155b15611e725760405162dc149f60e41b815260040160405180910390fd5b805468ffffffffffffffffff19166001600160401b038316908117600160401b1760ff60401b191682556040519081527fc7f505b2f371ae2175ee4913f4499e1f2633a7b5936321eed1cdaeb6115181d29060200160405180910390a15050565b60016000611edf6143e0565b8054909150600160401b900460ff1680611f06575080546001600160401b03808416911610155b15611f235760405162dc149f60e41b815260040160405180910390fd5b805468ffffffffffffffffff19166001600160401b03831617600160401b178155611f568c8c8c8c8c8c8c8c8c8c614404565b805460ff60401b191681556040516001600160401b03831681527fc7f505b2f371ae2175ee4913f4499e1f2633a7b5936321eed1cdaeb6115181d29060200160405180910390a1505050505050505050505050565b6000546001600160a01b03163314611fd65760405163c383977560e01b815260040160405180910390fd5b6001600160a01b038316600081815260086020908152604091829020805469ffffffffffffffffff0019166101006001600160401b03881690810260ff60481b191691909117600160481b60ff8816908102919091179092558351908152918201527fe6996b7f03e9bd02228b99d3d946932e3197f505f60542c4cfbc919441d8a4e6910160405180910390a2505050565b6001546001600160a01b0316331480159061208e57506000546001600160a01b03163314155b156120ac57604051636b29334f60e01b815260040160405180910390fd5b60095460ff16156120d057604051636f1dac1d60e01b815260040160405180910390fd5b6009805460ff191660011790556040517f9e87fac88ff661f02d44f95383c817fece4bce600a3dab7a54406878b965e75290600090a1565b6000546001600160a01b031633146121335760405163c383977560e01b815260040160405180910390fd5b60006005886001600160601b03168154811061215157612151615803565b90600052602060002090600c0201905060016001600160601b0316886001600160601b0316141580156121b3575080546005805488926001600160601b031690811061219f5761219f615803565b90600052602060002090600c020160020154115b156121d157604051639717078960e01b815260040160405180910390fd5b60005b600182015481101561224c578660058360010183815481106121f8576121f8615803565b90600052602060002001548154811061221357612213615803565b90600052602060002090600c020160020154101561224457604051639717078960e01b815260040160405180910390fd5b6001016121d4565b5060028101869055805460ff60601b1916600160601b881515021781556003810185905560048082018590556005820184905561228f9060068301908490614d16565b50876001600160601b03167f709b1f5fda58af9a4f52dacd1ec404840a8148455700cce155a2bd8cf127ef1a8888888888886040516122d396959493929190615a25565b60405180910390a25050505050505050565b6000600783815481106122fa576122fa615803565b9060005260206000209060040201600301828154811061231c5761231c615803565b90600052602060002090600b020160010154905092915050565b61239c60405180610160016040528060008152602001600081526020016000815260200160008152602001600081526020016000815260200160608152602001600081526020016000815260200160006001600160a01b03168152602001600081525090565b600783815481106123af576123af615803565b906000526020600020906004020160030182815481106123d1576123d1615803565b90600052602060002090600b0201604051806101600160405290816000820154815260200160018201548152602001600282015481526020016003820154815260200160048201548152602001600582015481526020016006820180548060200260200160405190810160405280929190818152602001828054801561248057602002820191906000526020600020905b81546001600160a01b03168152600190910190602001808311612462575b5050509183525050600782015460208201526008820154604082015260098201546001600160a01b03166060820152600a909101546080909101529392505050565b6000600782815481106124d7576124d7615803565b600091825260209091206004918202019150600182015460ff1660048111156125025761250261516c565b1461252057604051638794ce4b60e01b815260040160405180910390fd5b6001810154610100900460ff161561254b5760405163c977f8d360e01b815260040160405180910390fd5b600061255683611327565b505060018301805461010061ff001990911617905582546040518281529192508491600160601b9091046001600160a01b0316907f394027a5fa6e098a1191094d1719d6929b9abc535fcc0c8f448d6a4e756222769060200160405180910390a3815460405163188d362b60e11b81526004810185905260248101839052600160601b9091046001600160a01b03169063311a6c5690604401600060405180830381600087803b15801561260957600080fd5b505af115801561261d573d6000803e3d6000fd5b50505050505050565b6000546001600160a01b031633146126515760405163c383977560e01b815260040160405180910390fd5b8660058a6001600160601b03168154811061266e5761266e615803565b90600052602060002090600c020160020154111561269f57604051639717078960e01b815260040160405180910390fd5b80516000036126c15760405163402585f560e01b815260040160405180910390fd5b6001600160601b0389166126e857604051631ef4f64960e01b815260040160405180910390fd5b60058054600181018255600091825290600c82027f036b6384b5eca791c62761152d0c79bb0604c104a5fb6f4eb0703f3154bb3db001905b83518110156127aa5783818151811061273b5761273b615803565b60200260200101516000148061276e5750600654845185908390811061276357612763615803565b602002602001015110155b1561278c57604051633d58a98960e11b815260040160405180910390fd5b6127a283858381518110610b8c57610b8c615803565b600101612720565b5060016000908152600a8201602052604090205460ff166127de576040516306351b3d60e31b815260040160405180910390fd5b80546001600160601b0319166001600160601b038c161781556040805160008152602081019182905251612816916001840191614d54565b50805460ff60601b1916600160601b8b15150217815560028101899055600381018890556004808201889055600582018790556128599060068301908790614d16565b50600480546040516311de995760e21b81526001600160a01b039091169163477a655c9161288b918691899101615a58565b600060405180830381600087803b1580156128a557600080fd5b505af11580156128b9573d6000803e3d6000fd5b5050505060058b6001600160601b0316815481106128d9576128d9615803565b600091825260208083206001600c909302018201805492830181558352909120018290556040516001600160601b03808d1691908416907f550ff678017abc294b4786a99a046628d5a1eac07be0f1ea7e89543f13576ee690612949908e908e908e908e908e908e908d90615a71565b60405180910390a35050505050505050505050565b6006818154811061296e57600080fd5b6000918252602090912001546001600160a01b0316905081565b6000806000600784815481106129a0576129a0615803565b6000918252602090912060049091020190506003600182015460ff1660048111156129cd576129cd61516c565b03612a25576002810154815460058054929550916001600160601b039091169081106129fb576129fb615803565b600091825260209091206009600c9092020101546002820154612a1e91906159dd565b9150612a2e565b60009250600091505b50915091565b6000546001600160a01b03163314612a5f5760405163c383977560e01b815260040160405180910390fd5b600480546001600160a01b0319166001600160a01b0392909216919091179055565b6000612a8c82613588565b341015612aac57604051630e3360f160e21b815260040160405180910390fd5b6112258383600034614724565b6000546001600160a01b03163314612ae45760405163c383977560e01b815260040160405180910390fd5b600380546001600160a01b0319166001600160a01b0392909216919091179055565b612b0f83611b73565b341015612b2f57604051633191f8f160e01b815260040160405180910390fd5b600060078481548110612b4457612b44615803565b6000918252602090912060049091020190506003600182015460ff166004811115612b7157612b7161516c565b14612b8f576040516337cdefcb60e21b815260040160405180910390fd5b60038101805460009190612ba59060019061582f565b81548110612bb557612bb5615803565b90600052602060002090600b020190506006816000015481548110612bdc57612bdc615803565b6000918252602090912001546001600160a01b03163314612c105760405163065f245f60e01b815260040160405180910390fd5b8154815460038401805460018101825560009182526020909120600580546001600160601b0390951694600b9093029091019184908110612c5357612c53615803565b90600052602060002090600c020160050154846003015410612d5c576005836001600160601b031681548110612c8b57612c8b615803565b60009182526020909120600c9091020154600580546001600160601b0390921694509084908110612cbe57612cbe615803565b60009182526020808320858452600a600c90930201919091019052604090205460ff16612cea57600191505b84546001600160601b03848116911614612d5c57845460038601546001600160601b0390911690612d1d9060019061582f565b6040516001600160601b03861681528a907f736e3f52761298c8c0823e1ebf482ed3c5ecb304f743d2d91a7c006e8e8d7a1f9060200160405180910390a45b84546001600160601b0319166001600160601b038416908117865560018601805460ff1916905542600287015560058054600092908110612d9f57612d9f615803565b90600052602060002090600c02019050806004015434612dbf9190615990565b826003018190555061271081600301548260020154612dde9190615963565b612de89190615990565b60018084019190915534600284015583835560045460038801546001600160a01b039091169163d09f392d918c91612e1f9161582f565b6040516001600160e01b031960e085901b16815260048101929092526024820152604401600060405180830381600087803b158015612e5d57600080fd5b505af1158015612e71573d6000803e3d6000fd5b505086548454149150612f5790505784546003870154612e939060019061582f565b83546040519081528b907fcbe7939a71f0b369c7471d760a0a99b60b7bb010ee0406cba8a46679d1ea77569060200160405180910390a46006826000015481548110612ee157612ee1615803565b60009182526020909120015460038301546040516302dbb79560e61b81526001600160a01b039092169163b6ede54091612f24918d918d918d9190600401615aee565b600060405180830381600087803b158015612f3e57600080fd5b505af1158015612f52573d6000803e3d6000fd5b505050505b8554604051600160601b9091046001600160a01b0316908a907f9c9b64db9e130f48381bf697abf638e73117dbfbfd7a4484f2da3ba188f4187d90600090a3887f4e6f5cf43b95303e86aee81683df63992061723a829ee012db21dad388756b916000604051612fc7919061585f565b60405180910390a2505050505050505050565b60008060078381548110612ff057612ff0615803565b906000526020600020906004020190508060030160018260030180549050613018919061582f565b8154811061302857613028615803565b90600052602060002090600b020160030154915050919050565b6000546001600160a01b0316331461306d5760405163c383977560e01b815260040160405180910390fd5b6006805460018101825560009182527ff652222313e28459528d920b65115c16c04f3efc82aaedc97be59f3f377c0d3f810180546001600160a01b0319166001600160a01b0385169081179091556040519192909183917f44063d258760b98116d53815adbc906a56b3563e540148cc0fc2457f83b5eeb291a35050565b6000806007848154811061310157613101615803565b90600052602060002090600402019050600060018260030180549050613127919061582f565b9050600082600301828154811061314057613140615803565b600091825260208220600b909102019150600184015460ff16600481111561316a5761316a61516c565b1461318857604051638285c4ef60e01b815260040160405180910390fd5b600060068260000154815481106131a1576131a1615803565b6000918252602082200154600a8401546001600160a01b039091169250905b87811080156131d6575060038401546006850154105b156133de5760006001600160a01b03841663d2b8035a8b846131f781615b1e565b955061320390876159dd565b6040516001600160e01b031960e085901b168152600481019290925260248201526044016020604051808303816000875af1158015613246573d6000803e3d6000fd5b505050506040513d601f19601f8201168201806040525081019061326a9190615b37565b90506001600160a01b03811661328057506131c0565b6004805460018701546040516310f0b12f60e11b81526001600160a01b03909216926321e1625e926132b6928692909101615b54565b600060405180830381600087803b1580156132d057600080fd5b505af11580156132e4573d6000803e3d6000fd5b50505060068601546040518c92506001600160a01b038416917f6119cf536152c11e0a9a6c22f3953ce4ecc93ee54fa72ffa326ffabded21509b91613331918b8252602082015260400190565b60405180910390a36006850180546001810182556000828152602090200180546001600160a01b0319166001600160a01b03841617905560038601549054036133d85760048054604051632e96bc2360e11b81529182018c9052602482018890526001600160a01b031690635d2d784690604401600060405180830381600087803b1580156133bf57600080fd5b505af11580156133d3573d6000803e3d6000fd5b505050505b506131c0565b8084600a0160008282546133f291906159dd565b90915550505060069092015494505050505092915050565b600061344f8261041086868080601f01602080910402602001604051908101604052809392919081815260200183838082843760009201919091525061358892505050565b949350505050565b6000546001600160a01b031633146134825760405163c383977560e01b815260040160405180910390fd5b600080546001600160a01b0319166001600160a01b0392909216919091179055565b6001600160a01b03821660009081526008602052604081205460ff166134dd5760405163e51cf7bf60e01b815260040160405180910390fd5b6134e885858561340a565b82101561350857604051630e3360f160e21b815260040160405180910390fd5b61351d6001600160a01b038416333085614a0b565b61353a576040516312171d8360e31b815260040160405180910390fd5b61357e8686868080601f0160208091040260200160405190810160405280939291908181526020018383808284376000920191909152508892508791506147249050565b9695505050505050565b600080600061359684614ae7565b5091509150806005836001600160601b0316815481106135b8576135b8615803565b90600052602060002090600c02016004015461344f9190615963565b6000600782815481106135e9576135e9615803565b600091825260209091206003600490920201015492915050565b60006005836001600160601b03168154811061362157613621615803565b60009182526020808320948352600c91909102909301600a0190925250604090205460ff16919050565b60006001600160601b038416158061366e57506005546001600160601b03851610155b156136865761367e826005614b6e565b50600061344f565b82158015906136c157506005846001600160601b0316815481106136ac576136ac615803565b90600052602060002090600c02016002015483105b156136d15761367e826006614b6e565b600480546040516303d9595760e31b81526001600160a01b03888116938201939093526001600160601b03871660248201526044810186905260009283928392911690631ecacab8906064016060604051808303816000875af115801561373c573d6000803e3d6000fd5b505050506040513d601f19601f820116820180604052508101906137609190615b6d565b91945092509050600081600981111561377b5761377b61516c565b1415801561379b575060018160098111156137985761379861516c565b14155b156137b6576137aa8582614b6e565b6000935050505061344f565b60018160098111156137ca576137ca61516c565b036137db576001935050505061344f565b8215613808576002546137f9906001600160a01b0316893086614a0b565b613808576137aa856002614b6e565b811561383457600254613825906001600160a01b031689846142ef565b613834576137aa856003614b6e565b600480546040516355601d6960e11b81526001600160a01b038b8116938201939093526001600160601b038a16602482015260448101869052606481018590526084810189905291169063aac03ad29060a401600060405180830381600087803b1580156138a157600080fd5b505af11580156138b5573d6000803e3d6000fd5b5060019b9a5050505050505050505050565b806005846001600160601b0316815481106138e4576138e4615803565b60009182526020808320868452600c92909202909101600a0190526040808220805460ff19169315159390931790925590518215159184916001600160601b038716917fb47629acdf64971062d40984f77d3dee212d735b11e3e8c7a4222d9f0572cc7991a4505050565b600080600783600001518154811061396957613969615803565b9060005260206000209060040201905060008160030184602001518154811061399457613994615803565b90600052602060002090600b02019050600060068260000154815481106139bd576139bd615803565b60009182526020808320919091015487519188015160e089015160808a015160a08b01516040516333ac937b60e11b8152600481019690965260248601939093526044850191909152606484015260848301526001600160a01b03169250829063675926f69060a401602060405180830381865afa158015613a43573d6000803e3d6000fd5b505050506040513d601f19601f82011682018060405250810190613a6791906159f0565b9050612710811115613a7857506127105b6000612710613a87838261582f565b8560010154613a969190615963565b613aa09190615990565b90506000846006018860e0015181548110613abd57613abd615803565b6000918252602090912001546004805460405163965af6c760e01b81526001600160a01b03938416945092169163965af6c791613afe918591879101615b54565b600060405180830381600087803b158015613b1857600080fd5b505af1158015613b2c573d6000803e3d6000fd5b505060048054604051633c85b79360e21b8152600094508493506001600160a01b039091169163f216de4c91613b66918791899101615b54565b60408051808303816000875af1158015613b84573d6000803e3d6000fd5b505050506040513d601f19601f82011682018060405250810190613ba89190615ba0565b91509150808a60c001818151613bbe91906159dd565b90525060208a01518a516001600160a01b0385167f8975b837fe0d18616c65abb8b843726a32b552ee4feca009944fa658bbb282e788613bfd86615bc4565b60098d0154604051613c1f9392916000916001600160a01b0390911690615be0565b60405180910390a4811580613cb45750895160208b015160e08c015160405163ba66fde760e01b81526004810193909352602483019190915260448201526001600160a01b0387169063ba66fde790606401602060405180830381865afa158015613c8e573d6000803e3d6000fd5b505050506040513d601f19601f82011682018060405250810190613cb29190615842565b155b15613d1b576004805460405163b5d69e9960e01b81526001600160a01b039091169163b5d69e9991613ce891879101614f7a565b600060405180830381600087803b158015613d0257600080fd5b505af1158015613d16573d6000803e3d6000fd5b505050505b60018a60600151613d2c919061582f565b8a60e00151148015613d40575060408a0151155b15613e315760098701546001600160a01b0316613d89576000805460028901546040516001600160a01b039092169281156108fc029290818181858888f1935050505050613db0565b60005460028801546009890154613dae926001600160a01b03918216929116906142ef565b505b60005460c08b0151600254613dd3926001600160a01b03918216929116906142ef565b5060208a01518a5160c08c015160028a015460098b01546040517f6cecfd3ec56289ccb16e30eb194f9a87dfdc12630b9abbc31fc69af5a0b0eaf493613e2893909290916001600160a01b0390911690615c04565b60405180910390a35b50505060c0909601519695505050505050565b60006007826000015181548110613e5d57613e5d615803565b90600052602060002090600402019050600081600301836020015181548110613e8857613e88615803565b90600052602060002090600b0201905060006006826000015481548110613eb157613eb1615803565b6000918252602080832090910154865191870151606088015160e08901516001600160a01b039093169550859363675926f693909291613ef091615c23565b60808a015160a08b01516040516001600160e01b031960e088901b1681526004810195909552602485019390935260448401919091526064830152608482015260a401602060405180830381865afa158015613f50573d6000803e3d6000fd5b505050506040513d601f19601f82011682018060405250810190613f7491906159f0565b9050612710811115613f8557506127105b60008360060186606001518760e00151613f9f9190615c23565b81548110613faf57613faf615803565b600091825260208220015460018601546001600160a01b03909116925061271090613fdb908590615963565b613fe59190615990565b6004805460405163965af6c760e01b81529293506001600160a01b03169163965af6c791614017918691869101615b54565b600060405180830381600087803b15801561403157600080fd5b505af1158015614045573d6000803e3d6000fd5b5050505060006127108489604001518a60c001516140639190615990565b61406d9190615963565b6140779190615990565b90508086600801600082825461408d91906159dd565b925050819055506000612710858a6040015189600201546140ae9190615990565b6140b89190615963565b6140c29190615990565b9050808760070160008282546140d891906159dd565b90915550506002546140f4906001600160a01b031685846142ef565b5060098701546001600160a01b0316614132576040516001600160a01b0385169082156108fc029083906000818181858888f193505050505061414d565b600987015461414b906001600160a01b031685836142ef565b505b6020890151895160098901546040516001600160a01b03888116927f8975b837fe0d18616c65abb8b843726a32b552ee4feca009944fa658bbb282e79261419d928c928a928a9290911690615be0565b60405180910390a46001896060015160026141b89190615963565b6141c2919061582f565b8960e00151036142e457600087600801548a60c001516141e2919061582f565b90506000886007015489600201546141fa919061582f565b90508115158061420957508015155b1561170657811561423357600054600254614231916001600160a01b039182169116846142ef565b505b801561429a5760098901546001600160a01b031661427957600080546040516001600160a01b039091169183156108fc02918491818181858888f193505050505061429a565b60005460098a0154614298916001600160a01b039182169116836142ef565b505b60208b01518b5160098b01546040517f6cecfd3ec56289ccb16e30eb194f9a87dfdc12630b9abbc31fc69af5a0b0eaf49161294991879187916001600160a01b0390911690615c04565b505050505050505050565b6000806000856001600160a01b03168585604051602401614311929190615b54565b60408051601f198184030181529181526020820180516001600160e01b031663a9059cbb60e01b179052516143469190615a09565b6000604051808303816000865af19150503d8060008114614383576040519150601f19603f3d011682016040523d82523d6000602084013e614388565b606091505b509150915081801561357e57508051158061357e57508080602001905181019061357e9190615842565b6000546001600160a01b031633146143dd5760405163c383977560e01b815260040160405180910390fd5b50565b7ff0c57e16840df040f15088dc2f81fe391c3923bec73e23a9662efc9c229c6a0e90565b61440c614cb7565b600080546001600160a01b03199081166001600160a01b038d81169190911783556001805483168d83161781556002805484168d84161781556003805485168d85161790556004805485168785161790556006805481875291820190557ff652222313e28459528d920b65115c16c04f3efc82aaedc97be59f3f377c0d40018054909316918a1691821790925560405190927f44063d258760b98116d53815adbc906a56b3563e540148cc0fc2457f83b5eeb291a36005805460010181556000908152600480546040516311de995760e21b81526001600160a01b039091169263477a655c926144fe92879101615a58565b600060405180830381600087803b15801561451857600080fd5b505af115801561452c573d6000803e3d6000fd5b5050600580546001810182556000918252600c027f036b6384b5eca791c62761152d0c79bb0604c104a5fb6f4eb0703f3154bb3db00180546001600160601b03191681556040805183815260208101909152909350915050805161459a916001840191602090910190614d54565b50805460ff60601b1916600160601b8715150217815584516002820155602085015160038201556040850151600480830191909155606086015160058301556145e99060068301908690614d16565b50600480546040516311de995760e21b81526001600160a01b039091169163477a655c9161461c91600191889101615a58565b600060405180830381600087803b15801561463657600080fd5b505af115801561464a573d6000803e3d6000fd5b50600092506001915061465a9050565b604051908082528060200260200182016040528015614683578160200160208202803683370190505b50905060018160008151811061469b5761469b615803565b60209081029190910181019190915282548751918801516040808a015160608b015191516001600160601b03909416946001947f550ff678017abc294b4786a99a046628d5a1eac07be0f1ea7e89543f13576ee694614701948f9491928e908b90615a71565b60405180910390a361471660018060016138c7565b505050505050505050505050565b600080600061473286614ae7565b92505091506005826001600160601b03168154811061475357614753615803565b60009182526020808320848452600a600c90930201919091019052604090205460ff166147935760405163b34eb75d60e01b815260040160405180910390fd5b600780546001810182556000918252600160601b33026001600160601b03851617600482027fa66cc928b5edb82af9bd49922954155ab7b0942694bea4ce44661d9a8736c6888101918255427fa66cc928b5edb82af9bd49922954155ab7b0942694bea4ce44661d9a8736c68a90910155600680549296509092918490811061481e5761481e615803565b6000918252602082200154600580546001600160a01b039092169350906001600160601b03871690811061485457614854615803565b60009182526020808320600387018054600181018255908552918420600c909302019350600b0201906001600160a01b038a161561489f5761489a8a84600401546111d4565b6148a5565b82600401545b90506148b1818a615990565b6003808401919091558683558301546002840154612710916148d291615963565b6148dc9190615990565b6001830155600282018990556009820180546001600160a01b0319166001600160a01b038c8116919091179091556004805460405163d09f392d60e01b81529182018b9052600060248301529091169063d09f392d90604401600060405180830381600087803b15801561494f57600080fd5b505af1158015614963573d6000803e3d6000fd5b50505050836001600160a01b031663b6ede540898e8e86600301546040518563ffffffff1660e01b815260040161499d9493929190615aee565b600060405180830381600087803b1580156149b757600080fd5b505af11580156149cb573d6000803e3d6000fd5b50506040513392508a91507f141dfc18aa6a56fc816f44f0e9e2f1ebc92b15ab167770e17db5b084c10ed99590600090a350505050505050949350505050565b6040516001600160a01b038481166024830152838116604483015260648201839052600091829182919088169060840160408051601f198184030181529181526020820180516001600160e01b03166323b872dd60e01b17905251614a709190615a09565b6000604051808303816000865af19150503d8060008114614aad576040519150601f19603f3d011682016040523d82523d6000602084013e614ab2565b606091505b5091509150818015614adc575080511580614adc575080806020019051810190614adc9190615842565b979650505050505050565b60008060006040845110614b5c575050506020810151604082015160608301516001600160601b0383161580614b2857506005546001600160601b03841610155b15614b3257600192505b81600003614b3f57600391505b801580614b4e57506006548110155b15614b57575060015b614b67565b506001915060039050815b9193909250565b6001826001811115614b8257614b8261516c565b03614b8b575050565b6002816009811115614b9f57614b9f61516c565b03614bbd57604051630f323ed960e11b815260040160405180910390fd5b6003816009811115614bd157614bd161516c565b03614bef5760405163e45e13a360e01b815260040160405180910390fd5b6004816009811115614c0357614c0361516c565b03614c2157604051631d91d0ed60e31b815260040160405180910390fd5b6005816009811115614c3557614c3561516c565b03614c5357604051637c84af5160e01b815260040160405180910390fd5b6006816009811115614c6757614c6761516c565b03614c8557604051630caac6b360e31b815260040160405180910390fd5b6009816009811115614c9957614c9961516c565b03611ab557604051633e57962f60e21b815260040160405180910390fd5b614cbf614cde565b614cdc57604051631afcd79f60e31b815260040160405180910390fd5b565b6000614ce86143e0565b54600160401b900460ff16919050565b60405180608001604052806004906020820280368337509192915050565b8260048101928215614d44579160200282015b82811115614d44578251825591602001919060010190614d29565b50614d50929150614d8e565b5090565b828054828255906000526020600020908101928215614d445791602002820182811115614d44578251825591602001919060010190614d29565b5b80821115614d505760008155600101614d8f565b6001600160a01b03811681146143dd57600080fd5b600060208284031215614dca57600080fd5b8135614dd581614da3565b9392505050565b8035614de781614da3565b919050565b80356001600160601b0381168114614de757600080fd5b600080600060608486031215614e1857600080fd5b8335614e2381614da3565b9250614e3160208501614dec565b929592945050506040919091013590565b634e487b7160e01b600052604160045260246000fd5b604051601f8201601f191681016001600160401b0381118282101715614e8057614e80614e42565b604052919050565b600082601f830112614e9957600080fd5b81356001600160401b03811115614eb257614eb2614e42565b8060051b614ec260208201614e58565b91825260208185018101929081019086841115614ede57600080fd5b6020860192505b8383101561357e578235825260209283019290910190614ee5565b80151581146143dd57600080fd5b8035614de781614f00565b600080600060608486031215614f2e57600080fd5b614f3784614dec565b925060208401356001600160401b03811115614f5257600080fd5b614f5e86828701614e88565b9250506040840135614f6f81614f00565b809150509250925092565b6001600160a01b0391909116815260200190565b600060208284031215614fa057600080fd5b5035919050565b60008060408385031215614fba57600080fd5b8235614fc581614da3565b946020939093013593505050565b600080600060608486031215614fe857600080fd5b505081359360208301359350604090920135919050565b60006020828403121561501157600080fd5b61122582614dec565b8060005b6004811015610ad057815184526020938401939091019060010161501e565b60808101611228828461501a565b600082601f83011261505c57600080fd5b81356001600160401b0381111561507557615075614e42565b615088601f8201601f1916602001614e58565b81815284602083860101111561509d57600080fd5b816020850160208301376000918101602001919091529392505050565b600080604083850312156150cd57600080fd5b82356150d881614da3565b915060208301356001600160401b038111156150f357600080fd5b6150ff8582860161504b565b9150509250929050565b60005b8381101561512457818101518382015260200161510c565b50506000910152565b60008151808452615145816020860160208601615109565b601f01601f19169290920160200192915050565b602081526000611225602083018461512d565b634e487b7160e01b600052602160045260246000fd5b600581106151a057634e487b7160e01b600052602160045260246000fd5b9052565b6001600160601b03861681526001600160a01b038516602082015260a081016151d06040830186615182565b9215156060820152608001529392505050565b6000806000606084860312156151f857600080fd5b833561520381614da3565b92506020840135915060408401356001600160401b0381111561522557600080fd5b6152318682870161504b565b9150509250925092565b6000806040838503121561524e57600080fd5b614fc583614dec565b6000806040838503121561526a57600080fd5b823561527581614da3565b9150602083013561528581614f00565b809150509250929050565b600082601f8301126152a157600080fd5b604051608081016001600160401b03811182821017156152c3576152c3614e42565b6040528060808401858111156152d857600080fd5b845b818110156152f25780358352602092830192016152da565b509195945050505050565b6000806000806000806000806000806102008b8d03121561531d57600080fd5b8a3561532881614da3565b995060208b013561533881614da3565b985060408b013561534881614da3565b975060608b013561535881614da3565b965061536660808c01614ddc565b955061537460a08c01614f0e565b94506153838c60c08d01615290565b93506153938c6101408d01615290565b92506101c08b01356001600160401b038111156153af57600080fd5b6153bb8d828e0161504b565b9250506153cb6101e08c01614ddc565b90509295989b9194979a5092959850565b6000806000606084860312156153f157600080fd5b83356153fc81614da3565b925060208401356001600160401b038116811461541857600080fd5b9150604084013560ff81168114614f6f57600080fd5b6000806000806000806000610140888a03121561544a57600080fd5b61545388614dec565b9650602088013561546381614f00565b955060408801359450606088013593506080880135925060a0880135915061548e8960c08a01615290565b905092959891949750929550565b600080604083850312156154af57600080fd5b50508035926020909101359150565b600081518084526020840193506020830160005b828110156154f95781516001600160a01b03168652602095860195909101906001016154d2565b5093949350505050565b6020815281516020820152602082015160408201526040820151606082015260608201516080820152608082015160a082015260a082015160c0820152600060c083015161016060e084015261555d6101808401826154be565b905060e08401516101008401526101008401516101208401526101208401516155926101408501826001600160a01b03169052565b506101408401516101608401528091505092915050565b60008060008060008060008060006101808a8c0312156155c857600080fd5b6155d18a614dec565b985060208a01356155e181614f00565b975060408a0135965060608a0135955060808a0135945060a08a0135935061560c8b60c08c01615290565b92506101408a01356001600160401b0381111561562857600080fd5b6156348c828d0161504b565b9250506101608a01356001600160401b0381111561565157600080fd5b61565d8c828d01614e88565b9150509295985092959850929598565b6000806040838503121561568057600080fd5b8235915060208301356001600160401b038111156150f357600080fd5b6000806000606084860312156156b257600080fd5b833592506020840135915060408401356001600160401b0381111561522557600080fd5b60008083601f8401126156e857600080fd5b5081356001600160401b038111156156ff57600080fd5b60208301915083602082850101111561571757600080fd5b9250929050565b60008060006040848603121561573357600080fd5b83356001600160401b0381111561574957600080fd5b615755868287016156d6565b9094509250506020840135614f6f81614da3565b60008060008060006080868803121561578157600080fd5b8535945060208601356001600160401b0381111561579e57600080fd5b6157aa888289016156d6565b90955093505060408601356157be81614da3565b949793965091946060013592915050565b6000602082840312156157e157600080fd5b81356001600160401b038111156157f757600080fd5b61344f8482850161504b565b634e487b7160e01b600052603260045260246000fd5b634e487b7160e01b600052601160045260246000fd5b8181038181111561122857611228615819565b60006020828403121561585457600080fd5b8151614dd581614f00565b602081016112288284615182565b6001815b60018411156158a85780850481111561588c5761588c615819565b600184161561589a57908102905b60019390931c928002615871565b935093915050565b6000826158bf57506001611228565b816158cc57506000611228565b81600181146158e257600281146158ec57615908565b6001915050611228565b60ff8411156158fd576158fd615819565b50506001821b611228565b5060208310610133831016604e8410600b841016171561592b575081810a611228565b615938600019848461586d565b806000190482111561594c5761594c615819565b029392505050565b600061122560ff8416836158b0565b808202811582820484141761122857611228615819565b634e487b7160e01b600052601260045260246000fd5b60008261599f5761599f61597a565b500490565b6000806000606084860312156159b957600080fd5b835160208501519093506159cc81614f00565b6040850151909250614f6f81614f00565b8082018082111561122857611228615819565b600060208284031215615a0257600080fd5b5051919050565b60008251615a1b818460208701615109565b9190910192915050565b6000610120820190508715158252866020830152856040830152846060830152836080830152614adc60a083018461501a565b82815260406020820152600061344f604083018461512d565b600061014082018915158352886020840152876040840152866060840152856080840152615aa260a084018661501a565b610140610120840152835190819052602084019061016084019060005b81811015615add578351835260209384019390920191600101615abf565b50909b9a5050505050505050505050565b848152836020820152608060408201526000615b0d608083018561512d565b905082606083015295945050505050565b600060018201615b3057615b30615819565b5060010190565b600060208284031215615b4957600080fd5b8151614dd581614da3565b6001600160a01b03929092168252602082015260400190565b600080600060608486031215615b8257600080fd5b8351602085015160408601519194509250600a8110614f6f57600080fd5b60008060408385031215615bb357600080fd5b505080516020909101519092909150565b6000600160ff1b8201615bd957615bd9615819565b5060000390565b938452602084019290925260408301526001600160a01b0316606082015260800190565b92835260208301919091526001600160a01b0316604082015260600190565b600082615c3257615c3261597a565b50069056fe360894a13ba1a3210667c828492db98dca3e2076cc3735a920a3ca505d382bbca264697066735822122083cf562873daa980b07cf3034eb7e3505fce8b710a87ae63e312e078789dfb1264736f6c634300081c0033",
  "devdoc": {
    "errors": {
      "AlreadyInitialized()": [
        {
          "details": "The contract is already initialized."
        }
      ],
      "InvalidImplementation(address)": [
        {
          "details": "The `implementation` is not UUPS-compliant"
        }
      ],
      "NotInitializing()": [
        {
          "details": "The contract is not initializing."
        }
      ],
      "UUPSUnauthorizedCallContext()": [
        {
          "details": "The call is from an unauthorized context."
        }
      ],
      "UUPSUnsupportedProxiableUUID(bytes32)": [
        {
          "details": "The storage `slot` is unsupported as a UUID."
        }
      ]
    },
    "events": {
      "AcceptedFeeToken(address,bool)": {
        "details": "To be emitted when an ERC20 token is added or removed as a method to pay fees.",
        "params": {
          "_accepted": "Whether the token is accepted or not.",
          "_token": "The ERC20 token."
        }
      },
      "DisputeCreation(uint256,address)": {
        "details": "To be emitted when a dispute is created.",
        "params": {
          "_arbitrable": "The contract which created the dispute.",
          "_disputeID": "The identifier of the dispute in the Arbitrator contract."
        }
      },
      "Initialized(uint64)": {
        "details": "Triggered when the contract has been initialized or reinitialized."
      },
      "NewCurrencyRate(address,uint64,uint8)": {
        "details": "To be emitted when the fee for a particular ERC20 token is updated.",
        "params": {
          "_feeToken": "The ERC20 token.",
          "_rateDecimals": "The new decimals of the fee token rate.",
          "_rateInEth": "The new rate of the fee token in ETH."
        }
      },
      "Ruling(address,uint256,uint256)": {
        "details": "To be raised when a ruling is given.",
        "params": {
          "_arbitrable": "The arbitrable receiving the ruling.",
          "_disputeID": "The identifier of the dispute in the Arbitrator contract.",
          "_ruling": "The ruling which was given."
        }
      },
      "Upgraded(address)": {
        "details": "Emitted when the `implementation` has been successfully upgraded.",
        "params": {
          "newImplementation": "Address of the new implementation the proxy is now forwarding calls to."
        }
      }
    },
    "kind": "dev",
    "methods": {
      "addNewDisputeKit(address)": {
        "details": "Add a new supported dispute kit module to the court.",
        "params": {
          "_disputeKitAddress": "The address of the dispute kit contract."
        }
      },
      "appeal(uint256,uint256,bytes)": {
        "details": "Appeals the ruling of a specified dispute. Note: Access restricted to the Dispute Kit for this `disputeID`.",
        "params": {
          "_disputeID": "The ID of the dispute.",
          "_extraData": "Extradata for the dispute. Can be required during court jump.",
          "_numberOfChoices": "Number of choices for the dispute. Can be required during court jump."
        }
      },
      "appealCost(uint256)": {
        "details": "Gets the cost of appealing a specified dispute.",
        "params": {
          "_disputeID": "The ID of the dispute."
        },
        "returns": {
          "cost": "The appeal cost."
        }
      },
      "appealPeriod(uint256)": {
        "details": "Gets the start and the end of a specified dispute's current appeal period.",
        "params": {
          "_disputeID": "The ID of the dispute."
        },
        "returns": {
          "end": "The end of the appeal period.",
          "start": "The start of the appeal period."
        }
      },
      "arbitrationCost(bytes)": {
        "details": "Compute the cost of arbitration denominated in ETH.      It is recommended not to increase it often, as it can be highly time and gas consuming for the arbitrated contracts to cope with fee augmentation.",
        "params": {
          "_extraData": "Additional info about the dispute. We use it to pass the ID of the dispute's court (first 32 bytes), the minimum number of jurors required (next 32 bytes) and the ID of the specific dispute kit (last 32 bytes)."
        },
        "returns": {
          "cost": "The arbitration cost in ETH."
        }
      },
      "arbitrationCost(bytes,address)": {
        "details": "Compute the cost of arbitration denominated in `_feeToken`.      It is recommended not to increase it often, as it can be highly time and gas consuming for the arbitrated contracts to cope with fee augmentation.",
        "params": {
          "_extraData": "Additional info about the dispute. We use it to pass the ID of the dispute's court (first 32 bytes), the minimum number of jurors required (next 32 bytes) and the ID of the specific dispute kit (last 32 bytes).",
          "_feeToken": "The ERC20 token used to pay fees."
        },
        "returns": {
          "cost": "The arbitration cost in `_feeToken`."
        }
      },
      "changeAcceptedFeeTokens(address,bool)": {
        "details": "Changes the supported fee tokens.",
        "params": {
          "_accepted": "Whether the token is supported or not as a method of fee payment.",
          "_feeToken": "The fee token."
        }
      },
      "changeCurrencyRates(address,uint64,uint8)": {
        "details": "Changes the currency rate of a fee token.",
        "params": {
          "_feeToken": "The fee token.",
          "_rateDecimals": "The new decimals of the fee token rate.",
          "_rateInEth": "The new rate of the fee token in ETH."
        }
      },
      "changeGovernor(address)": {
        "details": "Changes the `governor` storage variable.",
        "params": {
          "_governor": "The new value for the `governor` storage variable."
        }
      },
      "changeGuardian(address)": {
        "details": "Changes the `guardian` storage variable.",
        "params": {
          "_guardian": "The new value for the `guardian` storage variable."
        }
      },
      "changeJurorProsecutionModule(address)": {
        "details": "Changes the `jurorProsecutionModule` storage variable.",
        "params": {
          "_jurorProsecutionModule": "The new value for the `jurorProsecutionModule` storage variable."
        }
      },
      "changePinakion(address)": {
        "details": "Changes the `pinakion` storage variable.",
        "params": {
          "_pinakion": "The new value for the `pinakion` storage variable."
        }
      },
      "changeSortitionModule(address)": {
        "details": "Changes the `_sortitionModule` storage variable. Note that the new module should be initialized for all courts.",
        "params": {
          "_sortitionModule": "The new value for the `sortitionModule` storage variable."
        }
      },
      "constructor": {
        "custom:oz-upgrades-unsafe-allow": "constructor"
      },
      "createCourt(uint96,bool,uint256,uint256,uint256,uint256,uint256[4],bytes,uint256[])": {
        "details": "Creates a court under a specified parent court.",
        "params": {
          "_alpha": "The `alpha` property value of the court.",
          "_feeForJuror": "The `feeForJuror` property value of the court.",
          "_hiddenVotes": "The `hiddenVotes` property value of the court.",
          "_jurorsForCourtJump": "The `jurorsForCourtJump` property value of the court.",
          "_minStake": "The `minStake` property value of the court.",
          "_parent": "The `parent` property value of the court.",
          "_sortitionExtraData": "Extra data for sortition module.",
          "_supportedDisputeKits": "Indexes of dispute kits that this court will support.",
          "_timesPerPeriod": "The `timesPerPeriod` property value of the court."
        }
      },
      "createDispute(uint256,bytes)": {
        "details": "Create a dispute and pay for the fees in the native currency, typically ETH.      Must be called by the arbitrable contract.      Must pay at least arbitrationCost(_extraData).",
        "params": {
          "_extraData": "Additional info about the dispute. We use it to pass the ID of the dispute's court (first 32 bytes), the minimum number of jurors required (next 32 bytes) and the ID of the specific dispute kit (last 32 bytes).",
          "_numberOfChoices": "The number of choices the arbitrator can choose from in this dispute."
        },
        "returns": {
          "disputeID": "The identifier of the dispute created."
        }
      },
      "createDispute(uint256,bytes,address,uint256)": {
        "details": "Create a dispute and pay for the fees in a supported ERC20 token.      Must be called by the arbitrable contract.      Must pay at least arbitrationCost(_extraData).",
        "params": {
          "_extraData": "Additional info about the dispute. We use it to pass the ID of the dispute's court (first 32 bytes), the minimum number of jurors required (next 32 bytes) and the ID of the specific dispute kit (last 32 bytes).",
          "_feeAmount": "Amount of the ERC20 token used to pay fees.",
          "_feeToken": "The ERC20 token used to pay fees.",
          "_numberOfChoices": "The number of choices the arbitrator can choose from in this dispute."
        },
        "returns": {
          "disputeID": "The identifier of the dispute created."
        }
      },
      "currentRuling(uint256)": {
        "details": "Gets the current ruling of a specified dispute.",
        "params": {
          "_disputeID": "The ID of the dispute."
        },
        "returns": {
          "overridden": "Whether the ruling was overridden by appeal funding or not.",
          "ruling": "The current ruling.",
          "tied": "Whether it's a tie or not."
        }
      },
      "draw(uint256,uint256)": {
        "details": "Draws jurors for the dispute. Can be called in parts.",
        "params": {
          "_disputeID": "The ID of the dispute.",
          "_iterations": "The number of iterations to run."
        },
        "returns": {
          "nbDrawnJurors": "The total number of jurors drawn in the round."
        }
      },
      "enableDisputeKits(uint96,uint256[],bool)": {
        "details": "Adds/removes court's support for specified dispute kits.",
        "params": {
          "_courtID": "The ID of the court.",
          "_disputeKitIDs": "The IDs of dispute kits which support should be added/removed.",
          "_enable": "Whether add or remove the dispute kits from the court."
        }
      },
      "execute(uint256,uint256,uint256)": {
        "details": "Distribute the PNKs at stake and the dispute fees for the specific round of the dispute. Can be called in parts. Note: Reward distributions are forbidden during pause.",
        "params": {
          "_disputeID": "The ID of the dispute.",
          "_iterations": "The number of iterations to run.",
          "_round": "The appeal round."
        }
      },
      "executeGovernorProposal(address,uint256,bytes)": {
        "details": "Allows the governor to call anything on behalf of the contract.",
        "params": {
          "_amount": "The value sent with the call.",
          "_data": "The data sent with the call.",
          "_destination": "The destination of the call."
        }
      },
      "executeRuling(uint256)": {
        "details": "Executes a specified dispute's ruling.",
        "params": {
          "_disputeID": "The ID of the dispute."
        }
      },
      "getNumberOfRounds(uint256)": {
        "details": "Gets the number of rounds for a specified dispute.",
        "params": {
          "_disputeID": "The ID of the dispute."
        },
        "returns": {
          "_0": "The number of rounds."
        }
      },
      "getNumberOfVotes(uint256)": {
        "details": "Gets the number of votes permitted for the specified dispute in the latest round.",
        "params": {
          "_disputeID": "The ID of the dispute."
        }
      },
      "getPnkAtStakePerJuror(uint256,uint256)": {
        "details": "Gets the PNK at stake per juror for a specified dispute and round.",
        "params": {
          "_disputeID": "The ID of the dispute.",
          "_round": "The round to get the info for."
        },
        "returns": {
          "_0": "pnkAtStakePerJuror The PNK at stake per juror."
        }
      },
      "getRoundInfo(uint256,uint256)": {
        "details": "Gets the round info for a specified dispute and round.This function must not be called from a non-view function because it returns a dynamic array which might be very large, theoretically exceeding the block gas limit.",
        "params": {
          "_disputeID": "The ID of the dispute.",
          "_round": "The round to get the info for."
        },
        "returns": {
          "_0": "round The round info."
        }
      },
      "getTimesPerPeriod(uint96)": {
        "details": "Gets the timesPerPeriod array for a given court.",
        "params": {
          "_courtID": "The ID of the court to get the times from."
        },
        "returns": {
          "timesPerPeriod": "The timesPerPeriod array for the given court."
        }
      },
      "initialize(address,address,address,address,address,bool,uint256[4],uint256[4],bytes,address)": {
        "details": "Initializer (constructor equivalent for upgradable contracts).",
        "params": {
          "_courtParameters": "Numeric parameters of General court (minStake, alpha, feeForJuror and jurorsForCourtJump respectively).",
          "_disputeKit": "The address of the default dispute kit.",
          "_governor": "The governor's address.",
          "_guardian": "The guardian's address.",
          "_hiddenVotes": "The `hiddenVotes` property value of the general court.",
          "_jurorProsecutionModule": "The address of the juror prosecution module.",
          "_pinakion": "The address of the token contract.",
          "_sortitionExtraData": "The extra data for sortition module.",
          "_sortitionModuleAddress": "The sortition module responsible for sortition of the jurors.",
          "_timesPerPeriod": "The `timesPerPeriod` property value of the general court."
        }
      },
      "isDisputeKitJumping(uint256)": {
        "details": "Returns true if the dispute kit will be switched to a parent DK.",
        "params": {
          "_disputeID": "The ID of the dispute."
        },
        "returns": {
          "_0": "Whether DK will be switched or not."
        }
      },
      "isSupported(uint96,uint256)": {
        "details": "Checks if a given dispute kit is supported by a given court.",
        "params": {
          "_courtID": "The ID of the court to check the support for.",
          "_disputeKitID": "The ID of the dispute kit to check the support for."
        },
        "returns": {
          "_0": "Whether the dispute kit is supported or not."
        }
      },
      "passPeriod(uint256)": {
        "details": "Passes the period of a specified dispute.",
        "params": {
          "_disputeID": "The ID of the dispute."
        }
      },
      "pause()": {
        "details": "Pause staking and reward execution. Can only be done by guardian or governor."
      },
      "proxiableUUID()": {
        "details": "Implementation of the ERC1822 `proxiableUUID` function. This returns the storage slot used by the implementation. It is used to validate the implementation's compatibility when performing an upgrade. IMPORTANT: A proxy pointing at a proxiable contract should not be considered proxiable itself, because this risks bricking a proxy that upgrades to it, by delegating to itself until out of gas. Thus it is critical that this function revert if invoked through a proxy. This is guaranteed by the if statement."
      },
      "setStake(uint96,uint256)": {
        "details": "Sets the caller's stake in a court.",
        "params": {
          "_courtID": "The ID of the court.",
          "_newStake": "The new stake. Note that the existing delayed stake will be nullified as non-relevant."
        }
      },
      "setStakeBySortitionModule(address,uint96,uint256)": {
        "details": "Sets the stake of a specified account in a court, typically to apply a delayed stake or unstake inactive jurors.",
        "params": {
          "_account": "The account whose stake is being set.",
          "_courtID": "The ID of the court.",
          "_newStake": "The new stake."
        }
      },
      "transferBySortitionModule(address,uint256)": {
        "details": "Transfers PNK to the juror by SortitionModule.",
        "params": {
          "_account": "The account of the juror whose PNK to transfer.",
          "_amount": "The amount to transfer."
        }
      },
      "unpause()": {
        "details": "Unpause staking and reward execution. Can only be done by governor."
      },
      "upgradeToAndCall(address,bytes)": {
        "details": "Upgrade mechanism including access control and UUPS-compliance.Reverts if the execution is not performed via delegatecall or the execution context is not of a proxy with an ERC1967-compliant implementation pointing to self.",
        "params": {
          "data": "Data used in a delegate call to `newImplementation` if non-empty. This will typically be an encoded function call, and allows initializing the storage of the proxy like a Solidity constructor.",
          "newImplementation": "Address of the new implementation contract."
        }
      }
    },
    "stateVariables": {
      "version": {
        "details": "Returns the version of the implementation.",
        "return": "Version string.",
        "returns": {
          "_0": "Version string."
        }
      }
    },
    "title": "KlerosCore Core arbitrator contract for Kleros v2. Note that this contract trusts the PNK token, the dispute kit and the sortition module contracts.",
    "version": 1
  },
  "userdoc": {
    "errors": {
      "FailedDelegateCall()": [
        {
          "notice": "Failed Delegated call"
        }
      ]
    },
    "kind": "user",
    "methods": {},
    "version": 1
  },
  "storageLayout": {
    "storage": [
      {
        "astId": 11265,
        "contract": "src/arbitration/KlerosCore.sol:KlerosCore",
        "label": "governor",
        "offset": 0,
        "slot": "0",
        "type": "t_address"
      },
      {
        "astId": 11267,
        "contract": "src/arbitration/KlerosCore.sol:KlerosCore",
        "label": "guardian",
        "offset": 0,
        "slot": "1",
        "type": "t_address"
      },
      {
        "astId": 11270,
        "contract": "src/arbitration/KlerosCore.sol:KlerosCore",
        "label": "pinakion",
        "offset": 0,
        "slot": "2",
        "type": "t_contract(IERC20)2923"
      },
      {
        "astId": 11272,
        "contract": "src/arbitration/KlerosCore.sol:KlerosCore",
        "label": "jurorProsecutionModule",
        "offset": 0,
        "slot": "3",
        "type": "t_address"
      },
      {
        "astId": 11275,
        "contract": "src/arbitration/KlerosCore.sol:KlerosCore",
        "label": "sortitionModule",
        "offset": 0,
        "slot": "4",
        "type": "t_contract(ISortitionModule)26311"
      },
      {
        "astId": 11279,
        "contract": "src/arbitration/KlerosCore.sol:KlerosCore",
        "label": "courts",
        "offset": 0,
        "slot": "5",
        "type": "t_array(t_struct(Court)11184_storage)dyn_storage"
      },
      {
        "astId": 11283,
        "contract": "src/arbitration/KlerosCore.sol:KlerosCore",
        "label": "disputeKits",
        "offset": 0,
        "slot": "6",
        "type": "t_array(t_contract(IDisputeKit)26121)dyn_storage"
      },
      {
        "astId": 11287,
        "contract": "src/arbitration/KlerosCore.sol:KlerosCore",
        "label": "disputes",
        "offset": 0,
        "slot": "7",
        "type": "t_array(t_struct(Dispute)11201_storage)dyn_storage"
      },
      {
        "astId": 11293,
        "contract": "src/arbitration/KlerosCore.sol:KlerosCore",
        "label": "currencyRates",
        "offset": 0,
        "slot": "8",
        "type": "t_mapping(t_contract(IERC20)2923,t_struct(CurrencyRate)11250_storage)"
      },
      {
        "astId": 11295,
        "contract": "src/arbitration/KlerosCore.sol:KlerosCore",
        "label": "paused",
        "offset": 0,
        "slot": "9",
        "type": "t_bool"
      }
    ],
    "types": {
      "t_address": {
        "encoding": "inplace",
        "label": "address",
        "numberOfBytes": "20"
      },
      "t_array(t_address)dyn_storage": {
        "base": "t_address",
        "encoding": "dynamic_array",
        "label": "address[]",
        "numberOfBytes": "32"
      },
      "t_array(t_contract(IDisputeKit)26121)dyn_storage": {
        "base": "t_contract(IDisputeKit)26121",
        "encoding": "dynamic_array",
        "label": "contract IDisputeKit[]",
        "numberOfBytes": "32"
      },
      "t_array(t_struct(Court)11184_storage)dyn_storage": {
        "base": "t_struct(Court)11184_storage",
        "encoding": "dynamic_array",
        "label": "struct KlerosCoreBase.Court[]",
        "numberOfBytes": "32"
      },
      "t_array(t_struct(Dispute)11201_storage)dyn_storage": {
        "base": "t_struct(Dispute)11201_storage",
        "encoding": "dynamic_array",
        "label": "struct KlerosCoreBase.Dispute[]",
        "numberOfBytes": "32"
      },
      "t_array(t_struct(Round)11226_storage)dyn_storage": {
        "base": "t_struct(Round)11226_storage",
        "encoding": "dynamic_array",
        "label": "struct KlerosCoreBase.Round[]",
        "numberOfBytes": "32"
      },
      "t_array(t_uint256)4_storage": {
        "base": "t_uint256",
        "encoding": "inplace",
        "label": "uint256[4]",
        "numberOfBytes": "128"
      },
      "t_array(t_uint256)dyn_storage": {
        "base": "t_uint256",
        "encoding": "dynamic_array",
        "label": "uint256[]",
        "numberOfBytes": "32"
      },
      "t_bool": {
        "encoding": "inplace",
        "label": "bool",
        "numberOfBytes": "1"
      },
      "t_contract(IArbitrableV2)25870": {
        "encoding": "inplace",
        "label": "contract IArbitrableV2",
        "numberOfBytes": "20"
      },
      "t_contract(IDisputeKit)26121": {
        "encoding": "inplace",
        "label": "contract IDisputeKit",
        "numberOfBytes": "20"
      },
      "t_contract(IERC20)2923": {
        "encoding": "inplace",
        "label": "contract IERC20",
        "numberOfBytes": "20"
      },
      "t_contract(ISortitionModule)26311": {
        "encoding": "inplace",
        "label": "contract ISortitionModule",
        "numberOfBytes": "20"
      },
      "t_enum(Period)11158": {
        "encoding": "inplace",
        "label": "enum KlerosCoreBase.Period",
        "numberOfBytes": "1"
      },
      "t_mapping(t_contract(IERC20)2923,t_struct(CurrencyRate)11250_storage)": {
        "encoding": "mapping",
        "key": "t_contract(IERC20)2923",
        "label": "mapping(contract IERC20 => struct KlerosCoreBase.CurrencyRate)",
        "numberOfBytes": "32",
        "value": "t_struct(CurrencyRate)11250_storage"
      },
      "t_mapping(t_uint256,t_bool)": {
        "encoding": "mapping",
        "key": "t_uint256",
        "label": "mapping(uint256 => bool)",
        "numberOfBytes": "32",
        "value": "t_bool"
      },
      "t_struct(Court)11184_storage": {
        "encoding": "inplace",
        "label": "struct KlerosCoreBase.Court",
        "members": [
          {
            "astId": 11160,
            "contract": "src/arbitration/KlerosCore.sol:KlerosCore",
            "label": "parent",
            "offset": 0,
            "slot": "0",
            "type": "t_uint96"
          },
          {
            "astId": 11162,
            "contract": "src/arbitration/KlerosCore.sol:KlerosCore",
            "label": "hiddenVotes",
            "offset": 12,
            "slot": "0",
            "type": "t_bool"
          },
          {
            "astId": 11165,
            "contract": "src/arbitration/KlerosCore.sol:KlerosCore",
            "label": "children",
            "offset": 0,
            "slot": "1",
            "type": "t_array(t_uint256)dyn_storage"
          },
          {
            "astId": 11167,
            "contract": "src/arbitration/KlerosCore.sol:KlerosCore",
            "label": "minStake",
            "offset": 0,
            "slot": "2",
            "type": "t_uint256"
          },
          {
            "astId": 11169,
            "contract": "src/arbitration/KlerosCore.sol:KlerosCore",
            "label": "alpha",
            "offset": 0,
            "slot": "3",
            "type": "t_uint256"
          },
          {
            "astId": 11171,
            "contract": "src/arbitration/KlerosCore.sol:KlerosCore",
            "label": "feeForJuror",
            "offset": 0,
            "slot": "4",
            "type": "t_uint256"
          },
          {
            "astId": 11173,
            "contract": "src/arbitration/KlerosCore.sol:KlerosCore",
            "label": "jurorsForCourtJump",
            "offset": 0,
            "slot": "5",
            "type": "t_uint256"
          },
          {
            "astId": 11177,
            "contract": "src/arbitration/KlerosCore.sol:KlerosCore",
            "label": "timesPerPeriod",
            "offset": 0,
            "slot": "6",
            "type": "t_array(t_uint256)4_storage"
          },
          {
            "astId": 11181,
            "contract": "src/arbitration/KlerosCore.sol:KlerosCore",
            "label": "supportedDisputeKits",
            "offset": 0,
            "slot": "10",
            "type": "t_mapping(t_uint256,t_bool)"
          },
          {
            "astId": 11183,
            "contract": "src/arbitration/KlerosCore.sol:KlerosCore",
            "label": "disabled",
            "offset": 0,
            "slot": "11",
            "type": "t_bool"
          }
        ],
        "numberOfBytes": "384"
      },
      "t_struct(CurrencyRate)11250_storage": {
        "encoding": "inplace",
        "label": "struct KlerosCoreBase.CurrencyRate",
        "members": [
          {
            "astId": 11245,
            "contract": "src/arbitration/KlerosCore.sol:KlerosCore",
            "label": "feePaymentAccepted",
            "offset": 0,
            "slot": "0",
            "type": "t_bool"
          },
          {
            "astId": 11247,
            "contract": "src/arbitration/KlerosCore.sol:KlerosCore",
            "label": "rateInEth",
            "offset": 1,
            "slot": "0",
            "type": "t_uint64"
          },
          {
            "astId": 11249,
            "contract": "src/arbitration/KlerosCore.sol:KlerosCore",
            "label": "rateDecimals",
            "offset": 9,
            "slot": "0",
            "type": "t_uint8"
          }
        ],
        "numberOfBytes": "32"
      },
      "t_struct(Dispute)11201_storage": {
        "encoding": "inplace",
        "label": "struct KlerosCoreBase.Dispute",
        "members": [
          {
            "astId": 11186,
            "contract": "src/arbitration/KlerosCore.sol:KlerosCore",
            "label": "courtID",
            "offset": 0,
            "slot": "0",
            "type": "t_uint96"
          },
          {
            "astId": 11189,
            "contract": "src/arbitration/KlerosCore.sol:KlerosCore",
            "label": "arbitrated",
            "offset": 12,
            "slot": "0",
            "type": "t_contract(IArbitrableV2)25870"
          },
          {
            "astId": 11192,
            "contract": "src/arbitration/KlerosCore.sol:KlerosCore",
            "label": "period",
            "offset": 0,
            "slot": "1",
            "type": "t_enum(Period)11158"
          },
          {
            "astId": 11194,
            "contract": "src/arbitration/KlerosCore.sol:KlerosCore",
            "label": "ruled",
            "offset": 1,
            "slot": "1",
            "type": "t_bool"
          },
          {
            "astId": 11196,
            "contract": "src/arbitration/KlerosCore.sol:KlerosCore",
            "label": "lastPeriodChange",
            "offset": 0,
            "slot": "2",
            "type": "t_uint256"
          },
          {
            "astId": 11200,
            "contract": "src/arbitration/KlerosCore.sol:KlerosCore",
            "label": "rounds",
            "offset": 0,
            "slot": "3",
            "type": "t_array(t_struct(Round)11226_storage)dyn_storage"
          }
        ],
        "numberOfBytes": "128"
      },
      "t_struct(Round)11226_storage": {
        "encoding": "inplace",
        "label": "struct KlerosCoreBase.Round",
        "members": [
          {
            "astId": 11203,
            "contract": "src/arbitration/KlerosCore.sol:KlerosCore",
            "label": "disputeKitID",
            "offset": 0,
            "slot": "0",
            "type": "t_uint256"
          },
          {
            "astId": 11205,
            "contract": "src/arbitration/KlerosCore.sol:KlerosCore",
            "label": "pnkAtStakePerJuror",
            "offset": 0,
            "slot": "1",
            "type": "t_uint256"
          },
          {
            "astId": 11207,
            "contract": "src/arbitration/KlerosCore.sol:KlerosCore",
            "label": "totalFeesForJurors",
            "offset": 0,
            "slot": "2",
            "type": "t_uint256"
          },
          {
            "astId": 11209,
            "contract": "src/arbitration/KlerosCore.sol:KlerosCore",
            "label": "nbVotes",
            "offset": 0,
            "slot": "3",
            "type": "t_uint256"
          },
          {
            "astId": 11211,
            "contract": "src/arbitration/KlerosCore.sol:KlerosCore",
            "label": "repartitions",
            "offset": 0,
            "slot": "4",
            "type": "t_uint256"
          },
          {
            "astId": 11213,
            "contract": "src/arbitration/KlerosCore.sol:KlerosCore",
            "label": "pnkPenalties",
            "offset": 0,
            "slot": "5",
            "type": "t_uint256"
          },
          {
            "astId": 11216,
            "contract": "src/arbitration/KlerosCore.sol:KlerosCore",
            "label": "drawnJurors",
            "offset": 0,
            "slot": "6",
            "type": "t_array(t_address)dyn_storage"
          },
          {
            "astId": 11218,
            "contract": "src/arbitration/KlerosCore.sol:KlerosCore",
            "label": "sumFeeRewardPaid",
            "offset": 0,
            "slot": "7",
            "type": "t_uint256"
          },
          {
            "astId": 11220,
            "contract": "src/arbitration/KlerosCore.sol:KlerosCore",
            "label": "sumPnkRewardPaid",
            "offset": 0,
            "slot": "8",
            "type": "t_uint256"
          },
          {
            "astId": 11223,
            "contract": "src/arbitration/KlerosCore.sol:KlerosCore",
            "label": "feeToken",
            "offset": 0,
            "slot": "9",
            "type": "t_contract(IERC20)2923"
          },
          {
            "astId": 11225,
            "contract": "src/arbitration/KlerosCore.sol:KlerosCore",
            "label": "drawIterations",
            "offset": 0,
            "slot": "10",
            "type": "t_uint256"
          }
        ],
        "numberOfBytes": "352"
      },
      "t_uint256": {
        "encoding": "inplace",
        "label": "uint256",
        "numberOfBytes": "32"
      },
      "t_uint64": {
        "encoding": "inplace",
        "label": "uint64",
        "numberOfBytes": "8"
      },
      "t_uint8": {
        "encoding": "inplace",
        "label": "uint8",
        "numberOfBytes": "1"
      },
      "t_uint96": {
        "encoding": "inplace",
        "label": "uint96",
        "numberOfBytes": "12"
      }
    }
  }
}