{
  "address": "0x504F0BeB05fa3721700b1678D2e317dcc3476920",
  "abi": [
    {
      "inputs": [],
      "stateMutability": "nonpayable",
      "type": "constructor"
    },
    {
      "inputs": [],
      "name": "AllJurorsDrawn",
      "type": "error"
    },
    {
      "inputs": [],
      "name": "AlreadyInitialized",
      "type": "error"
    },
    {
      "inputs": [],
      "name": "AppealFeesNotEnough",
      "type": "error"
    },
    {
      "inputs": [],
      "name": "AppealPeriodNotPassed",
      "type": "error"
    },
    {
      "inputs": [],
      "name": "ArbitrationFeesNotEnough",
      "type": "error"
    },
    {
      "inputs": [],
      "name": "CannotDisableClassicDK",
      "type": "error"
    },
    {
      "inputs": [],
      "name": "CommitPeriodNotPassed",
      "type": "error"
    },
    {
      "inputs": [],
      "name": "DisputeKitNotSupportedByCourt",
      "type": "error"
    },
    {
      "inputs": [],
      "name": "DisputeKitOnly",
      "type": "error"
    },
    {
      "inputs": [],
      "name": "DisputeNotAppealable",
      "type": "error"
    },
    {
      "inputs": [],
      "name": "DisputePeriodIsFinal",
      "type": "error"
    },
    {
      "inputs": [],
      "name": "DisputeStillDrawing",
      "type": "error"
    },
    {
      "inputs": [],
      "name": "EvidenceNotPassedAndNotAppeal",
      "type": "error"
    },
    {
      "inputs": [],
      "name": "FailedDelegateCall",
      "type": "error"
    },
    {
      "inputs": [],
      "name": "InstructorOnly",
      "type": "error"
    },
    {
      "inputs": [],
      "name": "InvalidDisputeKitParent",
      "type": "error"
    },
    {
      "inputs": [],
      "name": "InvalidForkingCourtAsParent",
      "type": "error"
    },
    {
      "inputs": [
        {
          "internalType": "address",
          "name": "implementation",
          "type": "address"
        }
      ],
      "name": "InvalidImplementation",
      "type": "error"
    },
    {
      "inputs": [
        {
          "internalType": "uint256",
          "name": "_childCourtID",
          "type": "uint256"
        }
      ],
      "name": "MinStakeHigherThanChildCourt",
      "type": "error"
    },
    {
      "inputs": [],
      "name": "MinStakeLowerThanParentCourt",
      "type": "error"
    },
    {
      "inputs": [],
      "name": "MustSupportDisputeKitClassic",
      "type": "error"
    },
    {
      "inputs": [],
      "name": "NoJurorDrawn",
      "type": "error"
    },
    {
      "inputs": [],
      "name": "NotEvidencePeriod",
      "type": "error"
    },
    {
      "inputs": [],
      "name": "NotExecutionPeriod",
      "type": "error"
    },
    {
      "inputs": [],
      "name": "NotInitializing",
      "type": "error"
    },
    {
      "inputs": [],
      "name": "OwnerOnly",
      "type": "error"
    },
    {
      "inputs": [],
      "name": "OwnerOrInstructorOnly",
      "type": "error"
    },
    {
      "inputs": [],
      "name": "RulingAlreadyExecuted",
      "type": "error"
    },
    {
      "inputs": [],
      "name": "SortitionModuleOnly",
      "type": "error"
    },
    {
      "inputs": [],
      "name": "StakingInTooManyCourts",
      "type": "error"
    },
    {
      "inputs": [],
      "name": "StakingLessThanCourtMinStake",
      "type": "error"
    },
    {
      "inputs": [],
      "name": "StakingNotPossibleInThisCourt",
      "type": "error"
    },
    {
      "inputs": [],
      "name": "StakingTransferFailed",
      "type": "error"
    },
    {
      "inputs": [],
      "name": "StakingZeroWhenNoStake",
      "type": "error"
    },
    {
      "inputs": [],
      "name": "TokenNotAccepted",
      "type": "error"
    },
    {
      "inputs": [],
      "name": "TransferFailed",
      "type": "error"
    },
    {
      "inputs": [],
      "name": "UUPSUnauthorizedCallContext",
      "type": "error"
    },
    {
      "inputs": [
        {
          "internalType": "bytes32",
          "name": "slot",
          "type": "bytes32"
        }
      ],
      "name": "UUPSUnsupportedProxiableUUID",
      "type": "error"
    },
    {
      "inputs": [],
      "name": "UnstakingTransferFailed",
      "type": "error"
    },
    {
      "inputs": [],
      "name": "UnsuccessfulCall",
      "type": "error"
    },
    {
      "inputs": [],
      "name": "UnsupportedDisputeKit",
      "type": "error"
    },
    {
      "inputs": [],
      "name": "VotePeriodNotPassed",
      "type": "error"
    },
    {
      "inputs": [],
      "name": "WrongDisputeKitIndex",
      "type": "error"
    },
    {
      "anonymous": false,
      "inputs": [
        {
          "indexed": true,
          "internalType": "contract IERC20",
          "name": "_token",
          "type": "address"
        },
        {
          "indexed": true,
          "internalType": "bool",
          "name": "_accepted",
          "type": "bool"
        }
      ],
      "name": "AcceptedFeeToken",
      "type": "event"
    },
    {
      "anonymous": false,
      "inputs": [
        {
          "indexed": true,
          "internalType": "uint256",
          "name": "_disputeID",
          "type": "uint256"
        },
        {
          "indexed": true,
          "internalType": "contract IArbitrableV2",
          "name": "_arbitrable",
          "type": "address"
        }
      ],
      "name": "AppealDecision",
      "type": "event"
    },
    {
      "anonymous": false,
      "inputs": [
        {
          "indexed": true,
          "internalType": "uint256",
          "name": "_disputeID",
          "type": "uint256"
        },
        {
          "indexed": true,
          "internalType": "contract IArbitrableV2",
          "name": "_arbitrable",
          "type": "address"
        }
      ],
      "name": "AppealPossible",
      "type": "event"
    },
    {
      "anonymous": false,
      "inputs": [
        {
          "indexed": true,
          "internalType": "uint96",
          "name": "_courtID",
          "type": "uint96"
        },
        {
          "indexed": true,
          "internalType": "uint96",
          "name": "_parent",
          "type": "uint96"
        },
        {
          "indexed": false,
          "internalType": "bool",
          "name": "_hiddenVotes",
          "type": "bool"
        },
        {
          "indexed": false,
          "internalType": "uint256",
          "name": "_minStake",
          "type": "uint256"
        },
        {
          "indexed": false,
          "internalType": "uint256",
          "name": "_alpha",
          "type": "uint256"
        },
        {
          "indexed": false,
          "internalType": "uint256",
          "name": "_feeForJuror",
          "type": "uint256"
        },
        {
          "indexed": false,
          "internalType": "uint256",
          "name": "_jurorsForCourtJump",
          "type": "uint256"
        },
        {
          "indexed": false,
          "internalType": "uint256[4]",
          "name": "_timesPerPeriod",
          "type": "uint256[4]"
        },
        {
          "indexed": false,
          "internalType": "uint256[]",
          "name": "_supportedDisputeKits",
          "type": "uint256[]"
        }
      ],
      "name": "CourtCreated",
      "type": "event"
    },
    {
      "anonymous": false,
      "inputs": [
        {
          "indexed": true,
          "internalType": "uint256",
          "name": "_disputeID",
          "type": "uint256"
        },
        {
          "indexed": true,
          "internalType": "uint256",
          "name": "_roundID",
          "type": "uint256"
        },
        {
          "indexed": true,
          "internalType": "uint96",
          "name": "_fromCourtID",
          "type": "uint96"
        },
        {
          "indexed": false,
          "internalType": "uint96",
          "name": "_toCourtID",
          "type": "uint96"
        }
      ],
      "name": "CourtJump",
      "type": "event"
    },
    {
      "anonymous": false,
      "inputs": [
        {
          "indexed": true,
          "internalType": "uint96",
          "name": "_courtID",
          "type": "uint96"
        },
        {
          "indexed": false,
          "internalType": "bool",
          "name": "_hiddenVotes",
          "type": "bool"
        },
        {
          "indexed": false,
          "internalType": "uint256",
          "name": "_minStake",
          "type": "uint256"
        },
        {
          "indexed": false,
          "internalType": "uint256",
          "name": "_alpha",
          "type": "uint256"
        },
        {
          "indexed": false,
          "internalType": "uint256",
          "name": "_feeForJuror",
          "type": "uint256"
        },
        {
          "indexed": false,
          "internalType": "uint256",
          "name": "_jurorsForCourtJump",
          "type": "uint256"
        },
        {
          "indexed": false,
          "internalType": "uint256[4]",
          "name": "_timesPerPeriod",
          "type": "uint256[4]"
        }
      ],
      "name": "CourtModified",
      "type": "event"
    },
    {
      "anonymous": false,
      "inputs": [
        {
          "indexed": true,
          "internalType": "uint256",
          "name": "_disputeID",
          "type": "uint256"
        },
        {
          "indexed": true,
          "internalType": "contract IArbitrableV2",
          "name": "_arbitrable",
          "type": "address"
        }
      ],
      "name": "DisputeCreation",
      "type": "event"
    },
    {
      "anonymous": false,
      "inputs": [
        {
          "indexed": true,
          "internalType": "uint256",
          "name": "_disputeKitID",
          "type": "uint256"
        },
        {
          "indexed": true,
          "internalType": "contract IDisputeKit",
          "name": "_disputeKitAddress",
          "type": "address"
        }
      ],
      "name": "DisputeKitCreated",
      "type": "event"
    },
    {
      "anonymous": false,
      "inputs": [
        {
          "indexed": true,
          "internalType": "uint96",
          "name": "_courtID",
          "type": "uint96"
        },
        {
          "indexed": true,
          "internalType": "uint256",
          "name": "_disputeKitID",
          "type": "uint256"
        },
        {
          "indexed": true,
          "internalType": "bool",
          "name": "_enable",
          "type": "bool"
        }
      ],
      "name": "DisputeKitEnabled",
      "type": "event"
    },
    {
      "anonymous": false,
      "inputs": [
        {
          "indexed": true,
          "internalType": "uint256",
          "name": "_disputeID",
          "type": "uint256"
        },
        {
          "indexed": true,
          "internalType": "uint256",
          "name": "_roundID",
          "type": "uint256"
        },
        {
          "indexed": true,
          "internalType": "uint256",
          "name": "_fromDisputeKitID",
          "type": "uint256"
        },
        {
          "indexed": false,
          "internalType": "uint256",
          "name": "_toDisputeKitID",
          "type": "uint256"
        }
      ],
      "name": "DisputeKitJump",
      "type": "event"
    },
    {
      "anonymous": false,
      "inputs": [
        {
          "indexed": true,
          "internalType": "address",
          "name": "_address",
          "type": "address"
        },
        {
          "indexed": true,
          "internalType": "uint256",
          "name": "_disputeID",
          "type": "uint256"
        },
        {
          "indexed": false,
          "internalType": "uint256",
          "name": "_roundID",
          "type": "uint256"
        },
        {
          "indexed": false,
          "internalType": "uint256",
          "name": "_voteID",
          "type": "uint256"
        }
      ],
      "name": "Draw",
      "type": "event"
    },
    {
      "anonymous": false,
      "inputs": [
        {
          "indexed": false,
          "internalType": "uint64",
          "name": "version",
          "type": "uint64"
        }
      ],
      "name": "Initialized",
      "type": "event"
    },
    {
      "anonymous": false,
      "inputs": [
        {
          "indexed": true,
          "internalType": "address",
          "name": "_account",
          "type": "address"
        },
        {
          "indexed": true,
          "internalType": "uint256",
          "name": "_disputeID",
          "type": "uint256"
        },
        {
          "indexed": true,
          "internalType": "uint256",
          "name": "_roundID",
          "type": "uint256"
        },
        {
          "indexed": false,
          "internalType": "uint256",
          "name": "_degreeOfCoherencyPnk",
          "type": "uint256"
        },
        {
          "indexed": false,
          "internalType": "uint256",
          "name": "_degreeOfCoherencyFee",
          "type": "uint256"
        },
        {
          "indexed": false,
          "internalType": "int256",
          "name": "_amountPnk",
          "type": "int256"
        },
        {
          "indexed": false,
          "internalType": "int256",
          "name": "_amountFee",
          "type": "int256"
        },
        {
          "indexed": false,
          "internalType": "contract IERC20",
          "name": "_feeToken",
          "type": "address"
        }
      ],
      "name": "JurorRewardPenalty",
      "type": "event"
    },
    {
      "anonymous": false,
      "inputs": [
        {
          "indexed": true,
          "internalType": "uint256",
          "name": "_disputeID",
          "type": "uint256"
        },
        {
          "indexed": true,
          "internalType": "uint256",
          "name": "_roundID",
          "type": "uint256"
        },
        {
          "indexed": false,
          "internalType": "uint256",
          "name": "_amountPnk",
          "type": "uint256"
        },
        {
          "indexed": false,
          "internalType": "uint256",
          "name": "_amountFee",
          "type": "uint256"
        },
        {
          "indexed": false,
          "internalType": "contract IERC20",
          "name": "_feeToken",
          "type": "address"
        }
      ],
      "name": "LeftoverRewardSent",
      "type": "event"
    },
    {
      "anonymous": false,
      "inputs": [
        {
          "indexed": true,
          "internalType": "contract IERC20",
          "name": "_feeToken",
          "type": "address"
        },
        {
          "indexed": false,
          "internalType": "uint64",
          "name": "_rateInEth",
          "type": "uint64"
        },
        {
          "indexed": false,
          "internalType": "uint8",
          "name": "_rateDecimals",
          "type": "uint8"
        }
      ],
      "name": "NewCurrencyRate",
      "type": "event"
    },
    {
      "anonymous": false,
      "inputs": [
        {
          "indexed": true,
          "internalType": "uint256",
          "name": "_disputeID",
          "type": "uint256"
        },
        {
          "indexed": false,
          "internalType": "enum KlerosCoreUniversity.Period",
          "name": "_period",
          "type": "uint8"
        }
      ],
      "name": "NewPeriod",
      "type": "event"
    },
    {
      "anonymous": false,
      "inputs": [
        {
          "indexed": true,
          "internalType": "contract IArbitrableV2",
          "name": "_arbitrable",
          "type": "address"
        },
        {
          "indexed": true,
          "internalType": "uint256",
          "name": "_disputeID",
          "type": "uint256"
        },
        {
          "indexed": false,
          "internalType": "uint256",
          "name": "_ruling",
          "type": "uint256"
        }
      ],
      "name": "Ruling",
      "type": "event"
    },
    {
      "anonymous": false,
      "inputs": [
        {
          "indexed": true,
          "internalType": "address",
          "name": "newImplementation",
          "type": "address"
        }
      ],
      "name": "Upgraded",
      "type": "event"
    },
    {
      "inputs": [
        {
          "internalType": "contract IDisputeKit",
          "name": "_disputeKitAddress",
          "type": "address"
        }
      ],
      "name": "addNewDisputeKit",
      "outputs": [],
      "stateMutability": "nonpayable",
      "type": "function"
    },
    {
      "inputs": [
        {
          "internalType": "uint256",
          "name": "_disputeID",
          "type": "uint256"
        },
        {
          "internalType": "uint256",
          "name": "_numberOfChoices",
          "type": "uint256"
        },
        {
          "internalType": "bytes",
          "name": "_extraData",
          "type": "bytes"
        }
      ],
      "name": "appeal",
      "outputs": [],
      "stateMutability": "payable",
      "type": "function"
    },
    {
      "inputs": [
        {
          "internalType": "uint256",
          "name": "_disputeID",
          "type": "uint256"
        }
      ],
      "name": "appealCost",
      "outputs": [
        {
          "internalType": "uint256",
          "name": "",
          "type": "uint256"
        }
      ],
      "stateMutability": "view",
      "type": "function"
    },
    {
      "inputs": [
        {
          "internalType": "uint256",
          "name": "_disputeID",
          "type": "uint256"
        }
      ],
      "name": "appealPeriod",
      "outputs": [
        {
          "internalType": "uint256",
          "name": "start",
          "type": "uint256"
        },
        {
          "internalType": "uint256",
          "name": "end",
          "type": "uint256"
        }
      ],
      "stateMutability": "view",
      "type": "function"
    },
    {
      "inputs": [
        {
          "internalType": "bytes",
          "name": "_extraData",
          "type": "bytes"
        },
        {
          "internalType": "contract IERC20",
          "name": "_feeToken",
          "type": "address"
        }
      ],
      "name": "arbitrationCost",
      "outputs": [
        {
          "internalType": "uint256",
          "name": "cost",
          "type": "uint256"
        }
      ],
      "stateMutability": "view",
      "type": "function"
    },
    {
      "inputs": [
        {
          "internalType": "bytes",
          "name": "_extraData",
          "type": "bytes"
        }
      ],
      "name": "arbitrationCost",
      "outputs": [
        {
          "internalType": "uint256",
          "name": "cost",
          "type": "uint256"
        }
      ],
      "stateMutability": "view",
      "type": "function"
    },
    {
      "inputs": [
        {
          "internalType": "contract IERC20",
          "name": "_feeToken",
          "type": "address"
        },
        {
          "internalType": "bool",
          "name": "_accepted",
          "type": "bool"
        }
      ],
      "name": "changeAcceptedFeeTokens",
      "outputs": [],
      "stateMutability": "nonpayable",
      "type": "function"
    },
    {
      "inputs": [
        {
          "internalType": "uint96",
          "name": "_courtID",
          "type": "uint96"
        },
        {
          "internalType": "bool",
          "name": "_hiddenVotes",
          "type": "bool"
        },
        {
          "internalType": "uint256",
          "name": "_minStake",
          "type": "uint256"
        },
        {
          "internalType": "uint256",
          "name": "_alpha",
          "type": "uint256"
        },
        {
          "internalType": "uint256",
          "name": "_feeForJuror",
          "type": "uint256"
        },
        {
          "internalType": "uint256",
          "name": "_jurorsForCourtJump",
          "type": "uint256"
        },
        {
          "internalType": "uint256[4]",
          "name": "_timesPerPeriod",
          "type": "uint256[4]"
        }
      ],
      "name": "changeCourtParameters",
      "outputs": [],
      "stateMutability": "nonpayable",
      "type": "function"
    },
    {
      "inputs": [
        {
          "internalType": "contract IERC20",
          "name": "_feeToken",
          "type": "address"
        },
        {
          "internalType": "uint64",
          "name": "_rateInEth",
          "type": "uint64"
        },
        {
          "internalType": "uint8",
          "name": "_rateDecimals",
          "type": "uint8"
        }
      ],
      "name": "changeCurrencyRates",
      "outputs": [],
      "stateMutability": "nonpayable",
      "type": "function"
    },
    {
      "inputs": [
        {
          "internalType": "address",
          "name": "_instructor",
          "type": "address"
        }
      ],
      "name": "changeInstructor",
      "outputs": [],
      "stateMutability": "nonpayable",
      "type": "function"
    },
    {
      "inputs": [
        {
          "internalType": "address",
          "name": "_jurorProsecutionModule",
          "type": "address"
        }
      ],
      "name": "changeJurorProsecutionModule",
      "outputs": [],
      "stateMutability": "nonpayable",
      "type": "function"
    },
    {
      "inputs": [
        {
          "internalType": "address payable",
          "name": "_owner",
          "type": "address"
        }
      ],
      "name": "changeOwner",
      "outputs": [],
      "stateMutability": "nonpayable",
      "type": "function"
    },
    {
      "inputs": [
        {
          "internalType": "contract IERC20",
          "name": "_pinakion",
          "type": "address"
        }
      ],
      "name": "changePinakion",
      "outputs": [],
      "stateMutability": "nonpayable",
      "type": "function"
    },
    {
      "inputs": [
        {
          "internalType": "contract ISortitionModuleUniversity",
          "name": "_sortitionModule",
          "type": "address"
        }
      ],
      "name": "changeSortitionModule",
      "outputs": [],
      "stateMutability": "nonpayable",
      "type": "function"
    },
    {
      "inputs": [
        {
          "internalType": "contract IERC20",
          "name": "_toToken",
          "type": "address"
        },
        {
          "internalType": "uint256",
          "name": "_amountInEth",
          "type": "uint256"
        }
      ],
      "name": "convertEthToTokenAmount",
      "outputs": [
        {
          "internalType": "uint256",
          "name": "",
          "type": "uint256"
        }
      ],
      "stateMutability": "view",
      "type": "function"
    },
    {
      "inputs": [
        {
          "internalType": "uint256",
          "name": "",
          "type": "uint256"
        }
      ],
      "name": "courts",
      "outputs": [
        {
          "internalType": "uint96",
          "name": "parent",
          "type": "uint96"
        },
        {
          "internalType": "bool",
          "name": "hiddenVotes",
          "type": "bool"
        },
        {
          "internalType": "uint256",
          "name": "minStake",
          "type": "uint256"
        },
        {
          "internalType": "uint256",
          "name": "alpha",
          "type": "uint256"
        },
        {
          "internalType": "uint256",
          "name": "feeForJuror",
          "type": "uint256"
        },
        {
          "internalType": "uint256",
          "name": "jurorsForCourtJump",
          "type": "uint256"
        }
      ],
      "stateMutability": "view",
      "type": "function"
    },
    {
      "inputs": [
        {
          "internalType": "uint96",
          "name": "_parent",
          "type": "uint96"
        },
        {
          "internalType": "bool",
          "name": "_hiddenVotes",
          "type": "bool"
        },
        {
          "internalType": "uint256",
          "name": "_minStake",
          "type": "uint256"
        },
        {
          "internalType": "uint256",
          "name": "_alpha",
          "type": "uint256"
        },
        {
          "internalType": "uint256",
          "name": "_feeForJuror",
          "type": "uint256"
        },
        {
          "internalType": "uint256",
          "name": "_jurorsForCourtJump",
          "type": "uint256"
        },
        {
          "internalType": "uint256[4]",
          "name": "_timesPerPeriod",
          "type": "uint256[4]"
        },
        {
          "internalType": "uint256[]",
          "name": "_supportedDisputeKits",
          "type": "uint256[]"
        }
      ],
      "name": "createCourt",
      "outputs": [],
      "stateMutability": "nonpayable",
      "type": "function"
    },
    {
      "inputs": [
        {
          "internalType": "uint256",
          "name": "_numberOfChoices",
          "type": "uint256"
        },
        {
          "internalType": "bytes",
          "name": "_extraData",
          "type": "bytes"
        }
      ],
      "name": "createDispute",
      "outputs": [
        {
          "internalType": "uint256",
          "name": "disputeID",
          "type": "uint256"
        }
      ],
      "stateMutability": "payable",
      "type": "function"
    },
    {
      "inputs": [
        {
          "internalType": "uint256",
          "name": "_numberOfChoices",
          "type": "uint256"
        },
        {
          "internalType": "bytes",
          "name": "_extraData",
          "type": "bytes"
        },
        {
          "internalType": "contract IERC20",
          "name": "_feeToken",
          "type": "address"
        },
        {
          "internalType": "uint256",
          "name": "_feeAmount",
          "type": "uint256"
        }
      ],
      "name": "createDispute",
      "outputs": [
        {
          "internalType": "uint256",
          "name": "disputeID",
          "type": "uint256"
        }
      ],
      "stateMutability": "nonpayable",
      "type": "function"
    },
    {
      "inputs": [
        {
          "internalType": "contract IERC20",
          "name": "",
          "type": "address"
        }
      ],
      "name": "currencyRates",
      "outputs": [
        {
          "internalType": "bool",
          "name": "feePaymentAccepted",
          "type": "bool"
        },
        {
          "internalType": "uint64",
          "name": "rateInEth",
          "type": "uint64"
        },
        {
          "internalType": "uint8",
          "name": "rateDecimals",
          "type": "uint8"
        }
      ],
      "stateMutability": "view",
      "type": "function"
    },
    {
      "inputs": [
        {
          "internalType": "uint256",
          "name": "_disputeID",
          "type": "uint256"
        }
      ],
      "name": "currentRuling",
      "outputs": [
        {
          "internalType": "uint256",
          "name": "ruling",
          "type": "uint256"
        },
        {
          "internalType": "bool",
          "name": "tied",
          "type": "bool"
        },
        {
          "internalType": "bool",
          "name": "overridden",
          "type": "bool"
        }
      ],
      "stateMutability": "view",
      "type": "function"
    },
    {
      "inputs": [
        {
          "internalType": "uint256",
          "name": "",
          "type": "uint256"
        }
      ],
      "name": "disputeKits",
      "outputs": [
        {
          "internalType": "contract IDisputeKit",
          "name": "",
          "type": "address"
        }
      ],
      "stateMutability": "view",
      "type": "function"
    },
    {
      "inputs": [
        {
          "internalType": "uint256",
          "name": "",
          "type": "uint256"
        }
      ],
      "name": "disputes",
      "outputs": [
        {
          "internalType": "uint96",
          "name": "courtID",
          "type": "uint96"
        },
        {
          "internalType": "contract IArbitrableV2",
          "name": "arbitrated",
          "type": "address"
        },
        {
          "internalType": "enum KlerosCoreUniversity.Period",
          "name": "period",
          "type": "uint8"
        },
        {
          "internalType": "bool",
          "name": "ruled",
          "type": "bool"
        },
        {
          "internalType": "uint256",
          "name": "lastPeriodChange",
          "type": "uint256"
        }
      ],
      "stateMutability": "view",
      "type": "function"
    },
    {
      "inputs": [
        {
          "internalType": "uint256",
          "name": "_disputeID",
          "type": "uint256"
        },
        {
          "internalType": "address",
          "name": "_juror",
          "type": "address"
        }
      ],
      "name": "draw",
      "outputs": [],
      "stateMutability": "nonpayable",
      "type": "function"
    },
    {
      "inputs": [
        {
          "internalType": "uint96",
          "name": "_courtID",
          "type": "uint96"
        },
        {
          "internalType": "uint256[]",
          "name": "_disputeKitIDs",
          "type": "uint256[]"
        },
        {
          "internalType": "bool",
          "name": "_enable",
          "type": "bool"
        }
      ],
      "name": "enableDisputeKits",
      "outputs": [],
      "stateMutability": "nonpayable",
      "type": "function"
    },
    {
      "inputs": [
        {
          "internalType": "uint256",
          "name": "_disputeID",
          "type": "uint256"
        },
        {
          "internalType": "uint256",
          "name": "_round",
          "type": "uint256"
        },
        {
          "internalType": "uint256",
          "name": "_iterations",
          "type": "uint256"
        }
      ],
      "name": "execute",
      "outputs": [],
      "stateMutability": "nonpayable",
      "type": "function"
    },
    {
      "inputs": [
        {
          "internalType": "address",
          "name": "_destination",
          "type": "address"
        },
        {
          "internalType": "uint256",
          "name": "_amount",
          "type": "uint256"
        },
        {
          "internalType": "bytes",
          "name": "_data",
          "type": "bytes"
        }
      ],
      "name": "executeOwnerProposal",
      "outputs": [],
      "stateMutability": "nonpayable",
      "type": "function"
    },
    {
      "inputs": [
        {
          "internalType": "uint256",
          "name": "_disputeID",
          "type": "uint256"
        }
      ],
      "name": "executeRuling",
      "outputs": [],
      "stateMutability": "nonpayable",
      "type": "function"
    },
    {
      "inputs": [
        {
          "internalType": "uint256",
          "name": "_disputeID",
          "type": "uint256"
        }
      ],
      "name": "getCourtAndDisputeKitJumps",
      "outputs": [
        {
          "internalType": "uint96",
          "name": "newCourtID",
          "type": "uint96"
        },
        {
          "internalType": "uint256",
          "name": "newDisputeKitID",
          "type": "uint256"
        },
        {
          "internalType": "uint256",
          "name": "newRoundNbVotes",
          "type": "uint256"
        },
        {
          "internalType": "bool",
          "name": "courtJump",
          "type": "bool"
        },
        {
          "internalType": "bool",
          "name": "disputeKitJump",
          "type": "bool"
        }
      ],
      "stateMutability": "view",
      "type": "function"
    },
    {
      "inputs": [],
      "name": "getDisputeKitsLength",
      "outputs": [
        {
          "internalType": "uint256",
          "name": "",
          "type": "uint256"
        }
      ],
      "stateMutability": "view",
      "type": "function"
    },
    {
      "inputs": [
        {
          "internalType": "uint256",
          "name": "_disputeID",
          "type": "uint256"
        }
      ],
      "name": "getNumberOfRounds",
      "outputs": [
        {
          "internalType": "uint256",
          "name": "",
          "type": "uint256"
        }
      ],
      "stateMutability": "view",
      "type": "function"
    },
    {
      "inputs": [
        {
          "internalType": "uint256",
          "name": "_disputeID",
          "type": "uint256"
        }
      ],
      "name": "getNumberOfVotes",
      "outputs": [
        {
          "internalType": "uint256",
          "name": "",
          "type": "uint256"
        }
      ],
      "stateMutability": "view",
      "type": "function"
    },
    {
      "inputs": [
        {
          "internalType": "uint256",
          "name": "_disputeID",
          "type": "uint256"
        },
        {
          "internalType": "uint256",
          "name": "_round",
          "type": "uint256"
        }
      ],
      "name": "getPnkAtStakePerJuror",
      "outputs": [
        {
          "internalType": "uint256",
          "name": "",
          "type": "uint256"
        }
      ],
      "stateMutability": "view",
      "type": "function"
    },
    {
      "inputs": [
        {
          "internalType": "uint256",
          "name": "_disputeID",
          "type": "uint256"
        },
        {
          "internalType": "uint256",
          "name": "_round",
          "type": "uint256"
        }
      ],
      "name": "getRoundInfo",
      "outputs": [
        {
          "components": [
            {
              "internalType": "uint256",
              "name": "disputeKitID",
              "type": "uint256"
            },
            {
              "internalType": "uint256",
              "name": "pnkAtStakePerJuror",
              "type": "uint256"
            },
            {
              "internalType": "uint256",
              "name": "totalFeesForJurors",
              "type": "uint256"
            },
            {
              "internalType": "uint256",
              "name": "nbVotes",
              "type": "uint256"
            },
            {
              "internalType": "uint256",
              "name": "repartitions",
              "type": "uint256"
            },
            {
              "internalType": "uint256",
              "name": "pnkPenalties",
              "type": "uint256"
            },
            {
              "internalType": "address[]",
              "name": "drawnJurors",
              "type": "address[]"
            },
            {
              "internalType": "uint96[]",
              "name": "drawnJurorFromCourtIDs",
              "type": "uint96[]"
            },
            {
              "internalType": "uint256",
              "name": "sumFeeRewardPaid",
              "type": "uint256"
            },
            {
              "internalType": "uint256",
              "name": "sumPnkRewardPaid",
              "type": "uint256"
            },
            {
              "internalType": "contract IERC20",
              "name": "feeToken",
              "type": "address"
            },
            {
              "internalType": "uint256",
              "name": "drawIterations",
              "type": "uint256"
            },
            {
              "internalType": "uint256[10]",
              "name": "__gap",
              "type": "uint256[10]"
            }
          ],
          "internalType": "struct KlerosCoreUniversity.Round",
          "name": "",
          "type": "tuple"
        }
      ],
      "stateMutability": "view",
      "type": "function"
    },
    {
      "inputs": [
        {
          "internalType": "uint96",
          "name": "_courtID",
          "type": "uint96"
        }
      ],
      "name": "getTimesPerPeriod",
      "outputs": [
        {
          "internalType": "uint256[4]",
          "name": "timesPerPeriod",
          "type": "uint256[4]"
        }
      ],
      "stateMutability": "view",
      "type": "function"
    },
    {
      "inputs": [
        {
          "internalType": "address",
          "name": "_owner",
          "type": "address"
        },
        {
          "internalType": "address",
          "name": "_instructor",
          "type": "address"
        },
        {
          "internalType": "contract IERC20",
          "name": "_pinakion",
          "type": "address"
        },
        {
          "internalType": "address",
          "name": "_jurorProsecutionModule",
          "type": "address"
        },
        {
          "internalType": "contract IDisputeKit",
          "name": "_disputeKit",
          "type": "address"
        },
        {
          "internalType": "bool",
          "name": "_hiddenVotes",
          "type": "bool"
        },
        {
          "internalType": "uint256[4]",
          "name": "_courtParameters",
          "type": "uint256[4]"
        },
        {
          "internalType": "uint256[4]",
          "name": "_timesPerPeriod",
          "type": "uint256[4]"
        },
        {
          "internalType": "contract ISortitionModuleUniversity",
          "name": "_sortitionModuleAddress",
          "type": "address"
        }
      ],
      "name": "initialize",
      "outputs": [],
      "stateMutability": "nonpayable",
      "type": "function"
    },
    {
      "inputs": [],
      "name": "instructor",
      "outputs": [
        {
          "internalType": "address",
          "name": "",
          "type": "address"
        }
      ],
      "stateMutability": "view",
      "type": "function"
    },
    {
      "inputs": [
        {
          "internalType": "uint96",
          "name": "_courtID",
          "type": "uint96"
        },
        {
          "internalType": "uint256",
          "name": "_disputeKitID",
          "type": "uint256"
        }
      ],
      "name": "isSupported",
      "outputs": [
        {
          "internalType": "bool",
          "name": "",
          "type": "bool"
        }
      ],
      "stateMutability": "view",
      "type": "function"
    },
    {
      "inputs": [],
      "name": "jurorProsecutionModule",
      "outputs": [
        {
          "internalType": "address",
          "name": "",
          "type": "address"
        }
      ],
      "stateMutability": "view",
      "type": "function"
    },
    {
      "inputs": [],
      "name": "owner",
      "outputs": [
        {
          "internalType": "address",
          "name": "",
          "type": "address"
        }
      ],
      "stateMutability": "view",
      "type": "function"
    },
    {
      "inputs": [
        {
          "internalType": "uint256",
          "name": "_disputeID",
          "type": "uint256"
        }
      ],
      "name": "passPeriod",
      "outputs": [],
      "stateMutability": "nonpayable",
      "type": "function"
    },
    {
      "inputs": [],
      "name": "pinakion",
      "outputs": [
        {
          "internalType": "contract IERC20",
          "name": "",
          "type": "address"
        }
      ],
      "stateMutability": "view",
      "type": "function"
    },
    {
      "inputs": [],
      "name": "proxiableUUID",
      "outputs": [
        {
          "internalType": "bytes32",
          "name": "",
          "type": "bytes32"
        }
      ],
      "stateMutability": "view",
      "type": "function"
    },
    {
      "inputs": [
        {
          "internalType": "uint96",
          "name": "_courtID",
          "type": "uint96"
        },
        {
          "internalType": "uint256",
          "name": "_newStake",
          "type": "uint256"
        }
      ],
      "name": "setStake",
      "outputs": [],
      "stateMutability": "nonpayable",
      "type": "function"
    },
    {
      "inputs": [
        {
          "internalType": "address",
          "name": "_account",
          "type": "address"
        },
        {
          "internalType": "uint96",
          "name": "_courtID",
          "type": "uint96"
        },
        {
          "internalType": "uint256",
          "name": "_newStake",
          "type": "uint256"
        }
      ],
      "name": "setStakeBySortitionModule",
      "outputs": [
        {
          "internalType": "bool",
          "name": "",
          "type": "bool"
        }
      ],
      "stateMutability": "nonpayable",
      "type": "function"
    },
    {
      "inputs": [],
      "name": "sortitionModule",
      "outputs": [
        {
          "internalType": "contract ISortitionModuleUniversity",
          "name": "",
          "type": "address"
        }
      ],
      "stateMutability": "view",
      "type": "function"
    },
    {
      "inputs": [
        {
          "internalType": "address",
          "name": "_account",
          "type": "address"
        },
        {
          "internalType": "uint256",
          "name": "_amount",
          "type": "uint256"
        }
      ],
      "name": "transferBySortitionModule",
      "outputs": [],
      "stateMutability": "nonpayable",
      "type": "function"
    },
    {
      "inputs": [
        {
          "internalType": "address",
          "name": "newImplementation",
          "type": "address"
        },
        {
          "internalType": "bytes",
          "name": "data",
          "type": "bytes"
        }
      ],
      "name": "upgradeToAndCall",
      "outputs": [],
      "stateMutability": "payable",
      "type": "function"
    },
    {
      "inputs": [],
      "name": "version",
      "outputs": [
        {
          "internalType": "string",
          "name": "",
          "type": "string"
        }
      ],
      "stateMutability": "view",
      "type": "function"
    }
  ],
  "transactionHash": "0x1eef7c37c2b7c658b36dec082f8a044424856aa090378202536de131c1da749f",
  "args": [],
  "numDeployments": 1,
  "solcInputHash": "f10440179b9713935730bf19a55308f7",
  "bytecode": "0x60a080604052346100c157306080525f5160206158775f395f51905f525460ff8160401c166100b3576002600160401b03196001600160401b03821601610060575b6040516157b190816100c6823960805181818161132f015261155e0152f35b6001600160401b0319166001600160401b039081175f5160206158775f395f51905f525581527fc7f505b2f371ae2175ee4913f4499e1f2633a7b5936321eed1cdaeb6115181d290602090a15f80610041565b62dc149f60e41b5f5260045ffd5b5f80fdfe60806040526004361015610011575f80fd5b5f3560e01c8062f5822c146103235780630219da791461031e5780630761c14d1461031957806309cfdc9c146103145780630b7414bc1461030f578063115d53761461030a5780631860592b146103055780631c3db16d146103005780631f5a0dd2146102fb5780632d29a47b146102f65780632e1daf2f146102f15780633cfd1184146102ec5780634159ad88146102e757806342c37fa3146102e25780634f1ef286146102dd57806352d1902d146102d857806354fd4d50146102d3578063564a565d146102ce57806359ec827e146102c95780636a8c9194146102c457806371ae413d146102bf5780637717a6e8146102ba5780637934c0be146102b557806382d02237146102b057806386541b24146102ab57806386cdecef146102a65780638a9bb02a146102a15780638bb048751461029c5780638da5cb5b14610297578063a6f9dae114610292578063acdbf51d1461028d578063afe15cfb14610288578063b004963714610283578063b702a8791461027e578063c13517e114610279578063c258bb1914610274578063c35699021461026f578063c71f42531461026a578063cf0c38f814610265578063d07368bd14610260578063d4d1d76a1461025b578063d874514b14610256578063d98493f614610251578063e399d29b1461024c578063f6506db414610247578063f7434ea914610242578063fbf405b01461023d578063fc6f8f16146102385763fe524c3914610233575f80fd5b61325c565b61323c565b613216565b6131e0565b6130cd565b61300c565b612faf565b612ce7565b612cca565b612c5f565b612c39565b612bfe565b6127b5565b612769565b6124ea565b6120cb565b61207f565b611ffc565b611fa3565b611f2a565b611f05565b611db6565b611d08565b611b6a565b6119bd565b61188d565b611804565b6117da565b6117b4565b61171e565b611700565b61167d565b6115d2565b611544565b6112e5565b61122e565b611194565b611119565b6110bc565b610e65565b610de5565b610d7b565b610d48565b61075d565b610627565b61049e565b610421565b6103b1565b61033d565b6001600160a01b0381160361033957565b5f80fd5b346103395760203660031901126103395760043561035a81610328565b6001600160a01b035f54163303610389576001600160a01b03166001600160a01b031960025416176002555f80f35b7f596dcdb8000000000000000000000000000000000000000000000000000000005f5260045ffd5b34610339576020366003190112610339576001600160a01b036004356103d681610328565b165f526008602052606060405f205460ff604051918181161515835267ffffffffffffffff8160081c16602084015260481c166040820152f35b6001600160601b0381160361033957565b346103395760603660031901126103395760043561043e81610328565b60243561044a81610410565b604435906001600160a01b036004541633036104765761046992613fc0565b6040519015158152602090f35b7f9d6cab99000000000000000000000000000000000000000000000000000000005f5260045ffd5b34610339576020366003190112610339576004356104bb81610328565b6001600160a01b035f541633141580610519575b6104f1576001600160a01b03166001600160a01b031960015416176001555f80f35b7ff10d23b5000000000000000000000000000000000000000000000000000000005f5260045ffd5b506001600160a01b03600154163314156104cf565b634e487b7160e01b5f52604160045260245ffd5b6101a0810190811067ffffffffffffffff82111761055f57604052565b61052e565b90601f8019910116810190811067ffffffffffffffff82111761055f57604052565b6040519061059661010083610564565b565b604051906105966101a083610564565b67ffffffffffffffff811161055f5760051b60200190565b9080601f830112156103395781356105d7816105a8565b926105e56040519485610564565b81845260208085019260051b82010192831161033957602001905b82821061060d5750505090565b8135815260209182019101610600565b8015150361033957565b346103395760603660031901126103395760043561064481610410565b60243567ffffffffffffffff8111610339576106649036906004016105c0565b604435906106718261061d565b6001600160a01b035f54163303610389575f5b815181101561075b5761069781836132a3565b51158015610745575b61071d5782156106c757806106c16106ba600193856132a3565b51866143f8565b01610684565b60016106d382846132a3565b51146106f557806106f06106e9600193856132a3565b51866143a7565b6106c1565b7fada223fa000000000000000000000000000000000000000000000000000000005f5260045ffd5b7f7ab15312000000000000000000000000000000000000000000000000000000005f5260045ffd5b5061075081836132a3565b5160065411156106a0565b005b346103395760203660031901126103395760043561077a81611631565b5061079461078f82546001600160601b031690565b610dc4565b509060038101916107af6107a884546132cb565b80946132f6565b5060018301936107c0855460ff1690565b6107c981611661565b806108e5575015806108a3575b61087b57600360068201549101540361085357547f4e6f5cf43b95303e86aee81683df63992061723a829ee012db21dad388756b9192610844926108389260601c60ff16156108495761082b60015b8361333e565b6002429101555460ff1690565b60405191829182613356565b0390a2005b61082b6002610825565b7f9e4486b0000000000000000000000000000000000000000000000000000000005f5260045ffd5b7f3e9727df000000000000000000000000000000000000000000000000000000005f5260045ffd5b506108b26002840154426132e9565b6108df6108d56108c3875460ff1690565b6108cc81611661565b6006860161330f565b90549060031b1c90565b116107d6565b90506108f681959495939293611661565b60018103610a5d57506109316108d56109136002870154426132e9565b926006610921875460ff1690565b9161092b83611661565b0161330f565b1190816109a0575b5061097857805460ff191660021781557f4e6f5cf43b95303e86aee81683df63992061723a829ee012db21dad388756b9191610844916108389161082b565b7f9bf4af0a000000000000000000000000000000000000000000000000000000005f5260045ffd5b6109d191506109b26109c59154611f76565b90546001600160a01b039160031b1c1690565b6001600160a01b031690565b602060405180927f0baa64d10000000000000000000000000000000000000000000000000000000082528180610a0f89600483019190602083019252565b03915afa908115610a58575f91610a29575b50155f610939565b610a4b915060203d602011610a51575b610a438183610564565b81019061331e565b5f610a21565b503d610a39565b613333565b610a6681611661565b60028103610bb45750610a836108d56109136002870154426132e9565b119081610b2b575b50610b0357805460ff191660031781557f4e6f5cf43b95303e86aee81683df63992061723a829ee012db21dad388756b919161084491610838916001600160a01b03610ad8825460601c90565b16867fa5d41b970d849372be1da1481ffd78d162bfe57a7aa2fe4e5fb73481fa5ac24f5f80a361082b565b7fcc46f568000000000000000000000000000000000000000000000000000000005f5260045ffd5b610b3d91506109b26109c59154611f76565b602060405180927f6d4cd8ea0000000000000000000000000000000000000000000000000000000082528180610b7b89600483019190602083019252565b03915afa908115610a58575f91610b95575b50155f610a8b565b610bae915060203d602011610a5157610a438183610564565b5f610b8d565b610bbd81611661565b60038103610cde576108d5610be6916006610bdc6002890154426132e9565b9461092b83611661565b119081610c55575b50610c2d57805460ff191660041781557f4e6f5cf43b95303e86aee81683df63992061723a829ee012db21dad388756b9191610844916108389161082b565b7f2f4dfd87000000000000000000000000000000000000000000000000000000005f5260045ffd5b610c6791506109b26109c59154611f76565b602060405180927f0855bbe90000000000000000000000000000000000000000000000000000000082528180610ca589600483019190602083019252565b03915afa908115610a58575f91610cbf575b50155f610bee565b610cd8915060203d602011610a5157610a438183610564565b5f610cb7565b905060049150610ced81611661565b14610d2057610838610844917f4e6f5cf43b95303e86aee81683df63992061723a829ee012db21dad388756b919361082b565b7f0fe7191e000000000000000000000000000000000000000000000000000000005f5260045ffd5b34610339576040366003190112610339576020610d73600435610d6a81610328565b602435906133b2565b604051908152f35b34610339576020366003190112610339576060610d99600435613434565b906040519283521515602083015215156040820152f35b634e487b7160e01b5f52603260045260245ffd5b600554811015610de05760055f52601560205f20910201905f90565b610db0565b346103395760203660031901126103395760043560055481101561033957610e0c90610dc4565b508054600282015460038301546004840154600590940154604080516001600160601b0386168152606095861c60ff16151560208201529081019390935292820152608081019290925260a08201528060c081015b0390f35b3461033957606036600319011261033957600435604435602435610e8883611631565b506004610e99600183015460ff1690565b610ea281611661565b0361108a57816003610eb492016132f6565b50906004820193610ec78554948561351c565b926005810194855496600683015490610ee48260028601546133a3565b92610efa6109c56109b260018801549754611f76565b6040517fda3beb8c00000000000000000000000000000000000000000000000000000000815260048101889052602481018990529290602090849060449082905afa928315610a58575f93611059575b508261102a57838911611021575b9780979695949392985b55965b868810610f7b57898981815403610f7857005b55005b9091929394959698828a105f14610fdb57610fcc600191610f9a610586565b908882528960208301528460408301528560608301528660808301528760a083015260c08201528b60e0820152614a69565b995b0196959493929190610f65565b9860019061101c610fea610586565b8881528960208201528460408201528560608201528660808201528760a08201528c60c08201528260e08201526144ba565b610fce565b97508297610f58565b61103384613366565b8911611048575b978097969594939298610f62565b975061105383613366565b9761103a565b61107c91935060203d602011611083575b6110748183610564565b810190613529565b915f610f4a565b503d61106a565b7f8794ce4b000000000000000000000000000000000000000000000000000000005f5260045ffd5b5f91031261033957565b34610339575f3660031901126103395760206001600160a01b0360045416604051908152f35b905f905b600482106110f357505050565b60208060019285518152019301910190916110e6565b60808101929161059691906110e2565b346103395760203660031901126103395761115060043561113981610410565b60806040516111488282610564565b369037610dc4565b50604051906006015f825b6004821061117e57610e6184611172608082610564565b60405191829182611109565b600160208192855481520193019101909161115b565b34610339576020366003190112610339576004356111b181611631565b506003810180545f19810191908211611229576111f0916111d1916132f6565b50926001600160601b0383541692846111e985610dc4565b509161506b565b9354604080516001600160601b03909416808552602085018490529084019590955293909214156060820152911415608082015260a090f35b6132b7565b346103395760403660031901126103395760043561124b81610328565b6024356001600160a01b036004541633036104765761075b916001600160a01b0360025416615216565b67ffffffffffffffff811161055f57601f01601f191660200190565b92919261129d82611275565b916112ab6040519384610564565b829481845281830111610339578281602093845f960137010152565b9080601f83011215610339578160206112e293359101611291565b90565b6040366003190112610339576004356112fd81610328565b60243567ffffffffffffffff81116103395761131d9036906004016112c7565b6113256152ab565b6001600160a01b037f000000000000000000000000000000000000000000000000000000000000000016803014908115611509575b506114e1576001600160a01b0382166040517f52d1902d000000000000000000000000000000000000000000000000000000008152602081600481855afa5f91816114c0575b506113db577f0c760937000000000000000000000000000000000000000000000000000000005f526001600160a01b03841660045260245b5ffd5b7f360894a13ba1a3210667c828492db98dca3e2076cc3735a920a3ca505d382bbc81036114955750827f360894a13ba1a3210667c828492db98dca3e2076cc3735a920a3ca505d382bbc557fbc7cd75a20ee27fd9adebab32041f755214dbc6bffa90cc0225b39da2e5c2d3b5f80a280518061145357005b5f926020849301905af4611465613538565b501561146d57005b7f736436ba000000000000000000000000000000000000000000000000000000005f5260045ffd5b7faa1d49a4000000000000000000000000000000000000000000000000000000005f5260045260245ffd5b6114da91925060203d602011611083576110748183610564565b905f6113a0565b7fe07c8dba000000000000000000000000000000000000000000000000000000005f5260045ffd5b905061153c7f360894a13ba1a3210667c828492db98dca3e2076cc3735a920a3ca505d382bbc546001600160a01b031690565b14155f61135a565b34610339575f366003190112610339576001600160a01b037f00000000000000000000000000000000000000000000000000000000000000001630036114e15760206040517f360894a13ba1a3210667c828492db98dca3e2076cc3735a920a3ca505d382bbc8152f35b805180835260209291819084018484015e5f828201840152601f01601f1916010190565b34610339575f36600319011261033957610e616040516115f3604082610564565b600581527f322e302e3000000000000000000000000000000000000000000000000000000060208201526040519182916020835260208301906115ae565b600754811015610de05760075f52600e60205f20910201905f90565b634e487b7160e01b5f52602160045260245ffd5b6005111561166b57565b61164d565b90600582101561166b5752565b3461033957602036600319011261033957600435600754811015610339576116a660ff91611631565b508054600260018301549201546040519384936001600160a01b0360a08601946001600160601b0380821616875260601c1660208601526116ec60408601838316611670565b60081c161515606084015260808301520390f35b34610339576020366003190112610339576020610d73600435613567565b346103395760603660031901126103395760043561173b81610328565b60243560443567ffffffffffffffff81116103395761175e9036906004016112c7565b6001600160a01b035f54163303610389575f928392602083519301915af1611784613538565b501561178c57005b7f44125e5e000000000000000000000000000000000000000000000000000000005f5260045ffd5b34610339575f3660031901126103395760206001600160a01b0360015416604051908152f35b346103395760403660031901126103395761075b6004356117fa81610410565b6024359033614213565b346103395760403660031901126103395760043561182181610328565b6024359061182e8261061d565b6001600160a01b035f54163303610389576001600160a01b031690815f52600860205260405f2060ff1981541660ff831515161790551515907f541615e167511d757a7067a700eb54431b256bb458dfdce0ac58bf2ed0aefd445f80a3005b34610339576060366003190112610339576004356118aa81610328565b6024359067ffffffffffffffff821682036103395760443560ff81168103610339576001600160a01b035f54163303610389576001600160a01b03919091165f81815260086020818152604092839020805469ffffffffffffffffff0019169287901b68ffffffffffffffff001692909217604886901b69ff0000000000000000001617909155815167ffffffffffffffff909516855260ff90931692840192909252917fe6996b7f03e9bd02228b99d3d946932e3197f505f60542c4cfbc919441d8a4e69181908101610844565b8060e312156103395760405190611991608083610564565b8190610144116103395760c4905b61014482106119ad57505090565b813581526020918201910161199f565b3461033957610140366003190112610339576004356119db81610410565b602435906119e88261061d565b6044356064359260843560a435906119ff36611979565b956001600160a01b035f54163303610389576001600160601b03611a2287610dc4565b50961695600187141580611b49575b611b21575f600182018054915b828110611ac357505050916108449391611ab7896006868a60027f709b1f5fda58af9a4f52dacd1ec404840a8148455700cce155a2bd8cf127ef1a9d9e990155611a9f8a829060ff60601b825491151560601b169060ff60601b1916179055565b8460038201558560048201558660058201550161362e565b60405196879687613652565b886002611ad661078f6108d58587611f8e565b50015410611ae657600101611a3e565b6108d5611af6916113d893611f8e565b7f34507c1c000000000000000000000000000000000000000000000000000000005f52600452602490565b7f97170789000000000000000000000000000000000000000000000000000000005f5260045ffd5b50856002611b6161078f84546001600160601b031690565b50015411611a31565b346103395760403660031901126103395760206001611b996024356003611b92600435611631565b50016132f6565b500154604051908152f35b90602080835192838152019201905f5b818110611bc15750505090565b82516001600160a01b0316845260209384019390920191600101611bb4565b90602080835192838152019201905f5b818110611bfd5750505090565b82516001600160601b0316845260209384019390920191600101611bf0565b905f905b600a8210611c2d57505050565b6020806001928551815201930191019091611c20565b6112e2906020815282516020820152602083015160408201526040830151606082015260608301516080820152608083015160a082015260a083015160c08201526101a0610180611cbf611ca860c08701516102c060e08701526102e0860190611ba4565b60e0870151858203601f1901610100870152611be0565b94610100810151610120850152610120810151610140850152611cf46101408201516101608601906001600160a01b03169052565b610160810151828501520151910190611c1c565b3461033957604036600319011261033957610e61611daa611da46004356003611b9260243592604051611d3a81610542565b5f81525f60208201525f60408201525f60608201525f60808201525f60a0820152606060c0820152606060e08201525f6101008201525f6101208201525f6101408201525f6101608201526101806101409160405192611d9a8185610564565b3684370152611631565b506137cf565b60405191829182611c43565b3461033957602036600319011261033957600435611dd381611631565b5090600182019182546004611de88260ff1690565b611df181611661565b0361108a5760081c60ff16611edd57611e2c611e7191611e25611e1385613434565b5050865461ff00191661010017909655565b5460601c90565b60405184815283906001600160a01b038316907f394027a5fa6e098a1191094d1719d6929b9abc535fcc0c8f448d6a4e7562227690602090a36001600160a01b031690565b91823b15610339576040517f311a6c5600000000000000000000000000000000000000000000000000000000815260048101929092526024820152905f908290818381604481015b03925af18015610a5857611ec957005b80611ed75f61075b93610564565b806110b2565b7fc977f8d3000000000000000000000000000000000000000000000000000000005f5260045ffd5b34610339575f3660031901126103395760206001600160a01b035f5416604051908152f35b3461033957602036600319011261033957600435611f4781610328565b5f5490336001600160a01b03831603610389576001600160a01b036001600160a01b031991169116175f555f80f35b600654811015610de05760065f5260205f2001905f90565b8054821015610de0575f5260205f2001905f90565b3461033957602036600319011261033957600435600654811015610339576001600160a01b0360209160065f527ff652222313e28459528d920b65115c16c04f3efc82aaedc97be59f3f377c0d3f015416604051908152f35b3461033957602036600319011261033957612018600435611631565b5060ff600182015416600581101561166b576003036120775761206461205e6108d560066120546001600160601b036002870154965416610dc4565b5001600301905f90565b8261351c565b905b604080519182526020820192909252f35b505f80612066565b346103395760203660031901126103395760043561209c81610328565b6001600160a01b035f54163303610389576001600160a01b03166001600160a01b031960045416176004555f80f35b34610339576040366003190112610339576024356004356120eb82610328565b6001600160a01b035f5416331415806124d5575b6104f15761210c81611631565b5090600382019061212761212083546132cb565b80936132f6565b5093612137600185015460ff1690565b61214081611661565b6124ad57600685018054916003870192835411156124855761216d6109c56004546001600160a01b031690565b803b1561033957604051633c694c4160e21b81526001600160a01b039290921660048301525f908290602490829084905af18015610a5857612471575b506122226121bb6109b28854611f76565b96600b81019660406121cd895461350e565b998654908b5f6001600160a01b038b8651998a96879586937fbc7a679d000000000000000000000000000000000000000000000000000000008552600485016040919493926060820195825260208201520152565b0393165af18015610a58575f935f9161243c575b506001600160a01b0384169182156124145761225d6109c56004546001600160a01b031690565b600185015490803b15610339576040517f21e1625e0000000000000000000000000000000000000000000000000000000081526001600160a01b038816600482015260248101929092525f908290604490829084905af1958615610a5857896007956123079361231f99612400575b508954604080518f815260208101929092527f6119cf536152c11e0a9a6c22f3953ce4ecc93ee54fa72ffa326ffabded21509b91a3876138b2565b6001600160601b038216156123ee5750915b01613914565b5490541461236b575b5050556123406109c56004546001600160a01b031690565b803b15610339575f6040518092633c694c4160e21b8252818381611eb960048201905f602083019252565b6123806109c56004546001600160a01b031690565b91823b15610339576040517f5d2d784600000000000000000000000000000000000000000000000000000000815260048101929092526024820152905f908290604490829084905af18015610a58576123da575b80612328565b80611ed75f6123e893610564565b5f6123d4565b546001600160601b0316905091612319565b80611ed75f61240e93610564565b5f6122cc565b7f5c7171ee000000000000000000000000000000000000000000000000000000005f5260045ffd5b905061246191935060403d60401161246a575b6124598183610564565b81019061388d565b9290925f612236565b503d61244f565b80611ed75f61247f93610564565b5f6121aa565b7f4df06de3000000000000000000000000000000000000000000000000000000005f5260045ffd5b7f8285c4ef000000000000000000000000000000000000000000000000000000005f5260045ffd5b506001600160a01b03600154163314156120ff565b60403660031901126103395760043560243567ffffffffffffffff8111610339576125199036906004016112c7565b9061252382613f79565b34106127415761253282615562565b905061256561256161255a83600a61254b879897610dc4565b5001905f5260205260405f2090565b5460ff1690565b1590565b61271957600754926126235f600a61257b6152be565b503360601b6bffffffffffffffffffffffff19166001600160601b0386161781554260028201556125fc6125f46125ca60036125c26125bc6109b28c611f76565b99610dc4565b50940161394f565b50926125da6004820154346133a3565b9860038501998a558455600360028201549101549061337c565b612710900490565b600182015534600282015501906001600160a01b03166001600160a01b0319825416179055565b6126386109c56004546001600160a01b031690565b90813b156103395760405163d09f392d60e01b8152600481018690525f6024820181905290928390604490829084905af1918215610a58576001600160a01b0392612705575b5016905490803b15610339576126af945f809460405197889586948593635e34282960e01b85528a600486016152f0565b03925af1918215610a58576020926126f1575b5033817f141dfc18aa6a56fc816f44f0e9e2f1ebc92b15ab167770e17db5b084c10ed9955f80a3604051908152f35b80611ed75f6126ff93610564565b5f6126c2565b80611ed75f61271393610564565b5f61267e565b7fb34eb75d000000000000000000000000000000000000000000000000000000005f5260045ffd5b7f38cd83c4000000000000000000000000000000000000000000000000000000005f5260045ffd5b346103395760203660031901126103395760043561278681610328565b6001600160a01b035f54163303610389576001600160a01b03166001600160a01b031960035416176003555f80f35b60603660031901126103395760043560243560443567ffffffffffffffff8111610339576127e79036906004016112c7565b906127f183613567565b3410612bd65761280083611631565b509160018301906003612814835460ff1690565b61281d81611661565b03612bae57600384019161283a61283484546132cb565b846132f6565b508054936128506109c56109c56109b288611f76565b3303612b865786546001600160601b031692859361286d8361394f565b509161287984546132cb565b978b898c6003890154600561288d88610dc4565b5001541115612ac0575b80546bffffffffffffffffffffffff19166001600160601b038716179055506128d793926128cc92509050805460ff19169055565b4260028b0155610dc4565b50936129056125f46128ed6004880154346133a3565b9660038501978855600360028201549101549061337c565b600183015534600283015581556129276109c56004546001600160a01b031690565b803b156103395760405163d09f392d60e01b8152600481018b905260248101889052905f908290604490829084905af18015610a5857612aac575b50549154908183036129db575b887f4e6f5cf43b95303e86aee81683df63992061723a829ee012db21dad388756b916001600160a01b036129a48b5460601c90565b1660405190837f9c9b64db9e130f48381bf697abf638e73117dbfbfd7a4484f2da3ba188f4187d5f80a35f81528060208101610844565b612a23926109c5926129f06109b293546132cb565b6040518381528c907fcbe7939a71f0b369c7471d760a0a99b60b7bb010ee0406cba8a46679d1ea775690602090a4611f76565b905493813b15610339575f8094612a5160405197889687958694635e34282960e01b86528d60048701613970565b03925af18015610a58577f4e6f5cf43b95303e86aee81683df63992061723a829ee012db21dad388756b91926001600160a01b03926129a492612a98575b8194818061296f565b80611ed75f612aa693610564565b5f612a8f565b80611ed75f612aba93610564565b5f612962565b9091929461256161255a612ae7612ad9612af394610dc4565b50546001600160601b031690565b97600a61254b8a610dc4565b612b7d575b916128d7949391612b136128cc94546001600160601b031690565b916001600160601b0383166001600160601b03871603612b3a575b9294955090508c612897565b6040516001600160601b03878116825293909316927f736e3f52761298c8c0823e1ebf482ed3c5ecb304f743d2d91a7c006e8e8d7a1f90602090a45f8a8e612b2e565b60019850612af8565b7f065f245f000000000000000000000000000000000000000000000000000000005f5260045ffd5b7fdf37bf2c000000000000000000000000000000000000000000000000000000005f5260045ffd5b7f3191f8f1000000000000000000000000000000000000000000000000000000005f5260045ffd5b34610339576020366003190112610339576003612c1c600435611631565b500180545f19810190811161122957611b996003916020936132f6565b34610339575f3660031901126103395760206001600160a01b0360035416604051908152f35b3461033957602036600319011261033957600435612c7c81610328565b6001600160a01b035f54163303610389576001600160a01b0360065491612ca28161399e565b16907f44063d258760b98116d53815adbc906a56b3563e540148cc0fc2457f83b5eeb25f80a3005b34610339575f366003190112610339576020600654604051908152f35b346103395761016036600319011261033957600435612d0581610410565b602435612d118161061d565b604435606435906084359260a43591612d2936611979565b956101443567ffffffffffffffff811161033957612d4b9036906004016105c0565b966001600160a01b035f5416330361038957826002612d6984610dc4565b50015411611b2157875115612f59576001600160601b038216948515612f315760059796975491612d98613a06565b50915f98600a8401995b8c51811015612e14578c81612db781836132a3565b5115918215612dfd575b505061071d5780612df7612dea8f612ddd8f91956001966132a3565b515f5260205260405f2090565b805460ff19166001179055565b01612da2565b612e0792506132a3565b516006541115818e612dc1565b50908b92918b612e3261256161255a8e60015f5260205260405f2090565b612f09577f550ff678017abc294b4786a99a046628d5a1eac07be0f1ea7e89543f13576ee698612ef6886001612eef8c8f8a6001600160601b039f8e612f049f61078f94612e9b600694612ed193906001600160601b03166001600160601b0319825416179055565b612eae612ea6613a38565b8a8501613a53565b82546cff000000000000000000000000191690151560601b60ff60601b16178255565b8960028201558a60038201558b60048201558c60058201550161362e565b5001613ad1565b604051988998169a88613b05565b0390a3005b7f31a8d9e8000000000000000000000000000000000000000000000000000000005f5260045ffd5b7f1ef4f649000000000000000000000000000000000000000000000000000000005f5260045ffd5b7f402585f5000000000000000000000000000000000000000000000000000000005f5260045ffd5b9181601f840112156103395782359167ffffffffffffffff8311610339576020838186019501011161033957565b346103395760403660031901126103395760043567ffffffffffffffff811161033957610d73613001613006612feb6020943690600401612f81565b929060243593612ffa85610328565b3691611291565b613f79565b906133b2565b34610339576101e03660031901126103395760043561302a81610328565b6024359061303782610328565b60443561304381610328565b60643561304f81610328565b60843561305b81610328565b60a435906130688261061d565b61307136611979565b92366101631215610339576040519461308b608087610564565b8597366101c41161033957610144985b6101c48a106130bd575061075b98506101c435976130b889610328565b613b73565b893581526020998a01990161309b565b346103395760803660031901126103395760043560243567ffffffffffffffff811161033957613101903690600401612f81565b9160443561310e81610328565b606435916001600160a01b0382165f52600860205261313461256160405f205460ff1690565b6131b85761314f613149613001368888611291565b836133b2565b83106127415761316461256184303386615505565b6131905761317a61318094610e61963691611291565b90615318565b6040519081529081906020820190565b7f90b8ec18000000000000000000000000000000000000000000000000000000005f5260045ffd5b7fe51cf7bf000000000000000000000000000000000000000000000000000000005f5260045ffd5b346103395760203660031901126103395760043567ffffffffffffffff811161033957610d7361300160209236906004016112c7565b34610339575f3660031901126103395760206001600160a01b0360025416604051908152f35b346103395760203660031901126103395760206003611b99600435611631565b3461033957604036600319011261033957600a60043561327b81610410565b61328760243591610dc4565b50905f5201602052602060ff60405f2054166040519015158152f35b8051821015610de05760209160051b010190565b634e487b7160e01b5f52601160045260245ffd5b5f1981019190821161122957565b6127100390612710821161122957565b9190820391821161122957565b8054821015610de0575f52601660205f20910201905f90565b6004821015610de05701905f90565b9081602091031261033957516112e28161061d565b6040513d5f823e3d90fd5b90600581101561166b5760ff80198354169116179055565b6020810192916105969190611670565b908160011b918083046002149015171561122957565b8181029291811591840414171561122957565b634e487b7160e01b5f52601260045260245ffd5b81156133ad570490565b61338f565b6001600160a01b031690815f52600860205260ff60405f205460481c1690604d8211611229576133e591600a0a9061337c565b905f52600860205267ffffffffffffffff60405f205460081c169081156133ad570490565b9081606091031261033957805191604060208301516134288161061d565b9201516112e28161061d565b600361343f82611631565b500180545f19810192908311611229576134876001600160a01b0361347361346c6134c0966060966132f6565b5054611f76565b90549060031b1c166001600160a01b031690565b60405180809581947f1c3db16d000000000000000000000000000000000000000000000000000000008352600483019190602083019252565b03915afa908115610a58575f915f915f916134dc575b50909192565b915050613501915060603d606011613507575b6134f98183610564565b81019061340a565b5f6134d6565b503d6134ef565b906001820180921161122957565b9190820180921161122957565b90816020910312610339575190565b3d15613562573d9061354982611275565b916135576040519384610564565b82523d5f602084013e565b606090565b6001600160601b0361357882611631565b50916135ad6135946003850161358e81546132cb565b906132f6565b509183855416946135a486610dc4565b5093849161506b565b9391949050166001600160601b0384169181831461361c5750600114159081613612575b506135fc5750507f7fffffffffffffffffffffffffffffffffffffffffffffffffffffffffffffff90565b600461360a6112e293610dc4565b50015461337c565b905015155f6135d1565b90506112e2935060049150015461337c565b905f5b6004811061363e57505050565b600190602083519301928185015501613631565b919360a093610596969298979561012085019915158552602085015260408401526060830152608082015201906110e2565b90604051918281549182825260208201905f5260205f20925f5b8181106136b357505061059692500383610564565b84546001600160a01b031683526001948501948794506020909301920161369e565b604051815480825290929183906136f360208301915f5260205f2090565b925f905b80600183011061374e57610596945491818110613734575b1061371d575b500383610564565b60601c6001600160601b031681526020015f613715565b6001600160601b038316845292600190602001930161370f565b916002919350604060019161378c8754613779836001600160601b0383166001600160601b03169052565b60601c6001600160601b03166020830152565b0194019201859293916136f7565b60405191905f835b600a82106137b95750505061059661014083610564565b60016020819285548152019301910190916137a2565b90613885600c6137dd610598565b938054855260018101546020860152600281015460408601526003810154606086015260048101546080860152600581015460a086015261382060068201613684565b60c0860152613831600782016136d5565b60e086015260088101546101008601526009810154610120860152613874613863600a8301546001600160a01b031690565b6001600160a01b0316610140870152565b600b8101546101608601520161379a565b610180830152565b919082604091031261033957602082516138a681610328565b9201516112e281610410565b90815491600160401b83101561055f57826138d591600161059695018155611f8e565b9091906001600160a01b038084549260031b9316831b921b1916179055565b9190918054831015610de0575f52600c600160205f2084821c0193160290565b8054600160401b81101561055f57613931916001820181556138f4565b6001600160601b0380839493549260031b9316831b921b1916179055565b8054600160401b81101561055f5761396c916001820181556132f6565b9091565b95949390926139999260809488526020880152604087015260a0606087015260a08601906115ae565b930152565b60065490600160401b82101561055f5760018201600655600654821015610de05760065f527ff652222313e28459528d920b65115c16c04f3efc82aaedc97be59f3f377c0d3f90910180546001600160a01b0319166001600160a01b03909216919091179055565b600554600160401b81101561055f5760018101600555600554811015610de05760055f52601560205f20910201905f90565b60405190613a47602083610564565b5f808352366020840137565b81519167ffffffffffffffff831161055f57600160401b831161055f578154838355808410613aab575b50602001905f5260205f205f5b838110613a975750505050565b600190602084519401938184015501613a8a565b825f528360205f2091820191015b818110613ac65750613a7d565b5f8155600101613ab9565b8054600160401b81101561055f57613aee91600182018155611f8e565b819291549060031b91821b915f19901b1916179055565b929461016094602096613b3c94989398610140870199151587528887015260408601526060850152608084015260a08301906110e2565b6101406101208201528451809452019201905f5b818110613b5d5750505090565b8251845260209384019390920191600101613b50565b96949290979593917ff0c57e16840df040f15088dc2f81fe391c3923bec73e23a9662efc9c229c6a0e5498613bbf613bb160ff8c60401c1615151590565b9a67ffffffffffffffff1690565b8a80613d58575b159081613d30575b50613d2257613c38988a613c2f600167ffffffffffffffff197ff0c57e16840df040f15088dc2f81fe391c3923bec73e23a9662efc9c229c6a0e5416177ff0c57e16840df040f15088dc2f81fe391c3923bec73e23a9662efc9c229c6a0e55565b613cc257613d9a565b613c3e57565b613c9368ff0000000000000000197ff0c57e16840df040f15088dc2f81fe391c3923bec73e23a9662efc9c229c6a0e54167ff0c57e16840df040f15088dc2f81fe391c3923bec73e23a9662efc9c229c6a0e55565b604051600181527fc7f505b2f371ae2175ee4913f4499e1f2633a7b5936321eed1cdaeb6115181d290602090a1565b613d1d600160401b68ff0000000000000000197ff0c57e16840df040f15088dc2f81fe391c3923bec73e23a9662efc9c229c6a0e5416177ff0c57e16840df040f15088dc2f81fe391c3923bec73e23a9662efc9c229c6a0e55565b613d9a565b62dc149f60e41b5f5260045ffd5b303b15915081613d43575b50155f613bce565b6001915067ffffffffffffffff16145f613d3b565b50600167ffffffffffffffff821610613bc6565b600654600160401b81101561055f5760018101600655600654811015610de05760065f5260205f2001905f90565b93613e726001600160601b039699613e56613f6e96613e3a60019c97613e1e6001600160a01b0398613e027f550ff678017abc294b4786a99a046628d5a1eac07be0f1ea7e89543f13576ee69f9d6001600160a01b03166001600160a01b03195f5416175f55565b6001600160a01b03166001600160a01b03196001541617600155565b6001600160a01b03166001600160a01b03196002541617600255565b6001600160a01b03166001600160a01b03196003541617600355565b6001600160a01b03166001600160a01b03196004541617600455565b613e7a613d6c565b5050613e858161399e565b16867f44063d258760b98116d53815adbc906a56b3563e540148cc0fc2457f83b5eeb25f80a3613eb3613a06565b5050613ebd613a06565b5080546bffffffffffffffffffffffff1916815590613ee5613edd613a38565b888401613a53565b81546cff000000000000000000000000191688151560601b60ff60601b1617825583516002830155602084018051600384015591604085018051600483015590613f4e606087019182516005820155613f41856006830161362e565b546001600160601b031690565b955193519151905191613f5f613a38565b94604051988998169b88613b05565b0390a361059661444c565b61360a6004613f8a6112e293615562565b509290610dc4565b908160609103126103395780519160406020830151920151600a8110156103395790565b600a111561166b57565b906001600160601b0381168015908115614206575b506141f957821515806141e3575b6141d657613ffc6109c56004546001600160a01b031690565b60405163c70ba3b960e01b81526001600160a01b03841660048201526001600160601b038316602482015260448101859052600160648201529390606090859060849082905f905af1918215610a58575f925f955f9161419d575b5061406181613fb6565b8061418c575082614157575b84614120575b6140886109c56004546001600160a01b031690565b91823b15610339576040517faac03ad20000000000000000000000000000000000000000000000000000000081526001600160a01b0390951660048601526001600160601b039091166024850152604484019290925260648301939093526084820152905f90829081838160a4810103925af18015610a585761410c575b50600190565b80611ed75f61411a93610564565b5f614106565b61413f612561868661413a6002546001600160a01b031690565b615216565b156140735750505050506141536001615653565b5f90565b614178612561846141706002546001600160a01b031690565b873091615505565b1561406d5750505050506141536001615633565b935050505061415391506001615673565b919350506141c491945060603d6060116141cf575b6141bc8183610564565b810190613f92565b94919290945f614057565b503d6141b2565b5050506141536001615613565b5060026141ef82610dc4565b5001548310613fe3565b50505061415360016155f3565b905060055411155f613fd5565b906001600160601b038116801590811561439a575b5061438e5782151580614378575b61436c5761424f6109c56004546001600160a01b031690565b60405163c70ba3b960e01b81526001600160a01b03841660048201526001600160601b0383166024820152604481018590525f60648201819052909491606091869160849183915af1918215610a58575f925f955f91614343575b506142b481613fb6565b80614333575082614307575b846142da576140886109c56004546001600160a01b031690565b6142f4612561868661413a6002546001600160a01b031690565b156140735750505050506141535f615653565b614320612561846141706002546001600160a01b031690565b156142c05750505050506141535f615633565b935050505061415391505f615673565b9193505061436191945060603d6060116141cf576141bc8183610564565b94919290945f6142aa565b5050506141535f615613565b50600261438482610dc4565b5001548310614236565b5050506141535f6155f3565b905060055411155f614228565b906001600160601b035f92600a6143bd82610dc4565b508486520160205260408420805460ff19169055167fb47629acdf64971062d40984f77d3dee212d735b11e3e8c7a4222d9f0572cc798380a4565b906001600160601b03600192600a61440f82610dc4565b50845f520160205260405f208460ff19825416179055167fb47629acdf64971062d40984f77d3dee212d735b11e3e8c7a4222d9f0572cc795f80a4565b600a6144586001610dc4565b5060015f520160205260405f20600160ff19825416179055600180807fb47629acdf64971062d40984f77d3dee212d735b11e3e8c7a4222d9f0572cc795f80a4565b81156133ad570690565b9190826040910312610339576020825192015190565b6144c48151611631565b506144d860208301916003835191016132f6565b50916144e76109b28454611f76565b9260e082018051916144ff606085019384519061449a565b9060408286519888516001600160a01b0360808a01519b61457260a08c015187519e8f97889687957f9d61ab6e000000000000000000000000000000000000000000000000000000008752600487019192608093969594919660a084019784526020840152604083015260608201520152565b0392165afa938415610a58575f975f95614a07575b5087946127108199116149fd575b612710106149f3575b6145ae6109b28460068501611f8e565b936145c06125f487600186015461337c565b6145d56109c56004546001600160a01b031690565b803b156103395760405163965af6c760e01b81526001600160a01b038816600482015260248101929092525f908290604490829084905af18015610a58576149df575b5060c087019283519661463d6125f48261463860408d019b8c51906133a3565b61337c565b9a8b600984019861464f828b5461351c565b8a5561466a6125f484614638600289019e8f549051906133a3565b9d8e99600887019a61467d818d5461351c565b8c558015801561497e575b505081614889575b50508b51938d5195600a019e8f546146ae906001600160a01b031690565b90604051946001600160a01b03869516966146f19486936080936001600160a01b03939796929760a0870198875260208701526040860152606085015216910152565b037fa90d30adac7f21a7def444f0fe0a60bdf16d7e8415973dd09bf869db8f94d58e91a451905161472190613366565b61472a906132cb565b14614739575b50505050505050565b6147549261474a91519054906132e9565b92549054906132e9565b9080159283158094614880575b61476c575b80614730565b6147b76147df917f6cecfd3ec56289ccb16e30eb194f9a87dfdc12630b9abbc31fc69af5a0b0eaf495614854575b84801580156147ed575b505051955196546001600160a01b031690565b604051938493849160409194936001600160a01b039160608501968552602085015216910152565b0390a35f8080808080614766565b89546001600160a01b03168061483657505f808093819361481b6109c56109c585546001600160a01b031690565b90839061482d575bf1505b845f6147a4565b506108fc614823565b5f5461484e9392506001600160a01b03165b90615216565b50614826565b61487a8461486a6002546001600160a01b031690565b5f546001600160a01b0316614848565b5061479a565b50821515614761565b614922916148b261489f60209360078b016138f4565b90546001600160601b039160031b1c1690565b6148c76109c56004546001600160a01b031690565b905f6040518096819582947f664bffc30000000000000000000000000000000000000000000000000000000084528a600485016001600160601b036040929594936001600160a01b0360608401971683521660208201520152565b03925af1908115610a58575f9161495f575b5015614942575b815f614690565b614959828261413a6002546001600160a01b031690565b5061493b565b614978915060203d602011610a5157610a438183610564565b5f614934565b84614993600a8b01546001600160a01b031690565b6001600160a01b0381166149ce5750505f808093819382906149c5575b6001600160a01b03891690f1505b8f5f614688565b506108fc6149b0565b6149d9939250615216565b506149be565b80611ed75f6149ed93610564565b5f614618565b612710975061459e565b6127109550614595565b909450614a2d91975060403d604011614a37575b614a258183610564565b8101906144a4565b969096935f614587565b503d614a1b565b90816060910312610339578051916040602083015192015190565b600160ff1b8114611229575f0390565b614a738151611631565b5090614a8860208201926003845191016132f6565b50614a996109c56109b28354611f76565b8251845160e085018051608087015160a08801516040516252697760e61b8152600481019690965260248601949094526044850191909152606484015260848301919091529194919060208160a481895afa908115610a58575f91615028575b50612710811161501f575b614b1e6125f46001860154614b18846132d9565b9061337c565b90614b306109b2845160068801611f8e565b96614b466109c56004546001600160a01b031690565b91823b156103395760405163965af6c760e01b81526001600160a01b038a16600482015260248101859052925f908490604490829084905af1928315610a5857614c159361500b575b506060614ba361489f875160078b016138f4565b94614bb96109c56004546001600160a01b031690565b865f8d604051988995869485937f771a27cb000000000000000000000000000000000000000000000000000000008552600485016001600160601b036040929594936001600160a01b0360608401971683521660208201520152565b03925af18015610a5857865f925f955f93614fd1575b508a8a8d85614f2d575b50505050505015908115614ea9575b5015614df6575050614c616109c56004546001600160a01b031690565b803b15610339576040517faa9ebfb70000000000000000000000000000000000000000000000000000000081526001600160a01b039690961660048701525f908690602490829084905af1948515610a585760c095614de2575b505b51614ccb60608501516132cb565b1480614dd6575b614cde575b5050015190565b7f6cecfd3ec56289ccb16e30eb194f9a87dfdc12630b9abbc31fc69af5a0b0eaf4600a8301614d1481546001600160a01b031690565b6001600160a01b038116614db057505f808080614d3e6109c56109c583546001600160a01b031690565b600289015490828215614da7575bf1505b6002546001600160a01b031693614d7d614d705f546001600160a01b031690565b9588880196875191615216565b50614d9d6147b7600288519651975193015493546001600160a01b031690565b0390a35f80614cd7565b506108fc614d4c565b614dd090614dc55f546001600160a01b031690565b600287015491615216565b50614d4f565b50604083015115614cd2565b80611ed75f614df093610564565b5f614cbb565b6002614e03839893610dc4565b50015411614e16575b5060c09450614cbd565b614e2b6109c56004546001600160a01b031690565b95863b15610339576040517f9d5608670000000000000000000000000000000000000000000000000000000081526001600160a01b039290921660048301526001600160601b03166024820152945f908690604490829084905af1948515610a585760c09515614e0c5780611ed75f614ea393610564565b5f614e0c565b8751865186516040517fba66fde70000000000000000000000000000000000000000000000000000000081526004810193909352602483019190915260448201529150602090829060649082905afa908115610a58575f91614f0e575b50155f614c44565b614f27915060203d602011610a5157610a438183610564565b5f614f06565b614fc36001600160a01b0392614f8c600a614f7d8760c07fa90d30adac7f21a7def444f0fe0a60bdf16d7e8415973dd09bf869db8f94d58e9901614f728d825161351c565b90525199519a614a59565b9201546001600160a01b031690565b906040519485941696849160809194936001600160a01b039160a085019685525f602086015260408501525f606085015216910152565b0390a45f86818a8a8d614c35565b9193509450614ff8915060603d606011615004575b614ff08183610564565b810190614a3e565b9491929094915f614c2b565b503d614fe6565b80611ed75f61501993610564565b5f614b8f565b50612710614b04565b615041915060203d602011611083576110748183610564565b5f614af9565b9081606091031261033957805161505d81610410565b916040602083015192015190565b9390919260608354946150946150866109c56109b289611f76565b97546001600160601b031690565b9687600360056150ab85546001600160601b031690565b9401549701546040517fdb918bb400000000000000000000000000000000000000000000000000000000815260048101969096526001600160601b0391821660248701529216604485015260648401959095526084830186905260a483018190529193849060c49082905afa938415610a58575f955f945f966151db575b50859480966001600160601b0389169182159283156151ce575b5082156151c5575b82156151b8575b5081156151af575b50615195575b505061517761256161255a86600a61254b8a610dc4565b61517e5750565b925090506112e2615190600193613366565b61350e565b9550935091506151a761519083613366565b915f80615160565b9050155f61515a565b600654111591505f615152565b8015925061514b565b600554111592505f615143565b919650945061520391935060603d60601161520f575b6151fb8183610564565b810190615047565b9391959093945f615129565b503d6151f1565b6040517fa9059cbb00000000000000000000000000000000000000000000000000000000602082019081526001600160a01b0393841660248301526044808301959095529381525f9384939091849190615271606482610564565b5193165af161527e613538565b81615287575090565b805180159250821561529857505090565b6112e2925060208091830101910161331e565b6001600160a01b035f5416330361038957565b600754600160401b81101561055f5760018101600755600754811015610de05760075f52600e60205f20910201905f90565b9493926080926139999287525f6020880152604087015260a0606087015260a08601906115ae565b909193929361532683615562565b92905061533e61256161255a85600a61254b87610dc4565b6127195761540390600a600754986153546152be565b503360601b6bffffffffffffffffffffffff19166001600160601b038716178155426002820155906153dd6125f46153a4600361539c6153966109b28d611f76565b9a610dc4565b50950161394f565b50936001600160a01b0387166154ef576153c360048201545b856133a3565b99600386019a8b558555600360028201549101549061337c565b6001830155600282015501906001600160a01b03166001600160a01b0319825416179055565b6154186109c56004546001600160a01b031690565b90813b156103395760405163d09f392d60e01b8152600481018890525f6024820181905290928390604490829084905af1918215610a58576001600160a01b03926154db575b5016905490803b156103395761548f935f809460405196879586948593635e34282960e01b85528c600486016152f0565b03925af18015610a58576154c7575b5033827f141dfc18aa6a56fc816f44f0e9e2f1ebc92b15ab167770e17db5b084c10ed9955f80a3565b80611ed75f6154d593610564565b5f61549e565b80611ed75f6154e993610564565b5f61545e565b6153c36155006004830154896133b2565b6153bd565b905f6001600160a01b03819594829582604051928160208501977f23b872dd000000000000000000000000000000000000000000000000000000008952166024850152166044830152606482015260648152615271608482610564565b80516040116155dd5760208101519160606040830151920151906001600160601b03841680159081156155d0575b506155c7575b82156155be575b811580156155b2575b6155ac57565b60019150565b506006548210156155a6565b6003925061559d565b60019350615596565b905060055411155f615590565b50600190600390600190565b6002111561166b57565b6001906155ff816155e9565b1461059657637c84af5160e01b5f5260045ffd5b60019061561f816155e9565b1461059657630caac6b360e31b5f5260045ffd5b60019061563f816155e9565b1461059657630f323ed960e11b5f5260045ffd5b60019061565f816155e9565b146105965763e45e13a360e01b5f5260045ffd5b60019061567f816155e9565b146157785761568d81613fb6565b600281146157695761569e81613fb6565b6003811461575a576156af81613fb6565b60048114615732576156c081613fb6565b60058114615723576156d181613fb6565b6006811461571457806156e5600992613fb6565b146156ec57565b7ff95e58bc000000000000000000000000000000000000000000000000000000005f5260045ffd5b630caac6b360e31b5f5260045ffd5b637c84af5160e01b5f5260045ffd5b7fec8e8768000000000000000000000000000000000000000000000000000000005f5260045ffd5b63e45e13a360e01b5f5260045ffd5b630f323ed960e11b5f5260045ffd5b5056fea264697066735822122077e497be0ee068288835c361bf5864fd4b76ea1a285d7cd004e7ff76db72cf1e64736f6c634300081e0033f0c57e16840df040f15088dc2f81fe391c3923bec73e23a9662efc9c229c6a0e",
  "devdoc": {
    "errors": {
      "AlreadyInitialized()": [
        {
          "details": "The contract is already initialized."
        }
      ],
      "NotInitializing()": [
        {
          "details": "The contract is not initializing."
        }
      ]
    },
    "events": {
      "AcceptedFeeToken(address,bool)": {
        "params": {
          "_accepted": "Whether the token is accepted or not.",
          "_token": "The ERC20 token."
        }
      },
      "AppealDecision(uint256,address)": {
        "params": {
          "_arbitrable": "The arbitrable contract.",
          "_disputeID": "ID of the related dispute."
        }
      },
      "AppealPossible(uint256,address)": {
        "params": {
          "_arbitrable": "The arbitrable contract.",
          "_disputeID": "ID of the related dispute."
        }
      },
      "CourtCreated(uint96,uint96,bool,uint256,uint256,uint256,uint256,uint256[4],uint256[])": {
        "params": {
          "_alpha": "The `alpha` property value of the court.",
          "_courtID": "ID of the new court.",
          "_feeForJuror": "The `feeForJuror` property value of the court.",
          "_hiddenVotes": "Whether the court has hidden votes or not.",
          "_jurorsForCourtJump": "The `jurorsForCourtJump` property value of the court.",
          "_minStake": "The `minStake` property value of the court.",
          "_parent": "ID of the parent court.",
          "_supportedDisputeKits": "Indexes of dispute kits that this court will support.",
          "_timesPerPeriod": "The `timesPerPeriod` property value of the court."
        }
      },
      "CourtJump(uint256,uint256,uint96,uint96)": {
        "params": {
          "_disputeID": "ID of the dispute.",
          "_fromCourtID": "ID of the previous court.",
          "_roundID": "ID of the round.",
          "_toCourtID": "ID of the new court."
        }
      },
      "CourtModified(uint96,bool,uint256,uint256,uint256,uint256,uint256[4])": {
        "params": {
          "_alpha": "The `alpha` property value of the court.",
          "_courtID": "ID of the court.",
          "_feeForJuror": "The `feeForJuror` property value of the court.",
          "_hiddenVotes": "Whether the court has hidden votes or not.",
          "_jurorsForCourtJump": "The `jurorsForCourtJump` property value of the court.",
          "_minStake": "The `minStake` property value of the court.",
          "_timesPerPeriod": "The `timesPerPeriod` property value of the court."
        }
      },
      "DisputeCreation(uint256,address)": {
        "params": {
          "_arbitrable": "The contract which created the dispute.",
          "_disputeID": "The identifier of the dispute in the Arbitrator contract."
        }
      },
      "DisputeKitCreated(uint256,address)": {
        "params": {
          "_disputeKitAddress": "Address of the new dispute kit.",
          "_disputeKitID": "ID of the new dispute kit."
        }
      },
      "DisputeKitEnabled(uint96,uint256,bool)": {
        "params": {
          "_courtID": "ID of the related court.",
          "_disputeKitID": "ID of the dispute kit.",
          "_enable": "Whether the dispute kit has been enabled or disabled."
        }
      },
      "DisputeKitJump(uint256,uint256,uint256,uint256)": {
        "params": {
          "_disputeID": "ID of the dispute.",
          "_fromDisputeKitID": "ID of the previous dispute kit.",
          "_roundID": "ID of the round.",
          "_toDisputeKitID": "ID of the new dispute kit."
        }
      },
      "Draw(address,uint256,uint256,uint256)": {
        "params": {
          "_address": "The drawn address.",
          "_disputeID": "ID of the related dispute.",
          "_roundID": "ID of the related round.",
          "_voteID": "ID of the vote given to the drawn juror."
        }
      },
      "Initialized(uint64)": {
        "details": "Triggered when the contract has been initialized or reinitialized."
      },
      "JurorRewardPenalty(address,uint256,uint256,uint256,uint256,int256,int256,address)": {
        "params": {
          "_account": "Juror's address.",
          "_amountFee": "Amount of fee shifted.",
          "_amountPnk": "Amount of PNK shifted.",
          "_degreeOfCoherencyFee": "Juror's degree of coherency in this round applied to the dispute fee.",
          "_degreeOfCoherencyPnk": "Juror's degree of coherency in this round applied to PNK.",
          "_disputeID": "ID of the dispute.",
          "_feeToken": "Address of the fee token.",
          "_roundID": "ID of the round."
        }
      },
      "LeftoverRewardSent(uint256,uint256,uint256,uint256,address)": {
        "params": {
          "_amountFee": "Amount of fee sent.",
          "_amountPnk": "Amount of PNK sent.",
          "_disputeID": "ID of the dispute.",
          "_feeToken": "Address of the fee token.",
          "_roundID": "ID of the round."
        }
      },
      "NewCurrencyRate(address,uint64,uint8)": {
        "params": {
          "_feeToken": "The ERC20 token.",
          "_rateDecimals": "The new decimals of the fee token rate.",
          "_rateInEth": "The new rate of the fee token in ETH."
        }
      },
      "NewPeriod(uint256,uint8)": {
        "params": {
          "_disputeID": "ID of the related dispute.",
          "_period": "The new period."
        }
      },
      "Ruling(address,uint256,uint256)": {
        "params": {
          "_arbitrable": "The arbitrable receiving the ruling.",
          "_disputeID": "The identifier of the dispute in the Arbitrator contract.",
          "_ruling": "The ruling which was given."
        }
      },
      "Upgraded(address)": {
        "params": {
          "newImplementation": "Address of the new implementation the proxy is now forwarding calls to."
        }
      }
    },
    "kind": "dev",
    "methods": {
      "addNewDisputeKit(address)": {
        "params": {
          "_disputeKitAddress": "The address of the dispute kit contract."
        }
      },
      "appeal(uint256,uint256,bytes)": {
        "details": "Access restricted to the Dispute Kit for this `disputeID`.",
        "params": {
          "_disputeID": "The ID of the dispute.",
          "_extraData": "Extradata for the dispute. Can be required during court jump.",
          "_numberOfChoices": "Number of choices for the dispute. Can be required during court jump."
        }
      },
      "appealCost(uint256)": {
        "params": {
          "_disputeID": "The ID of the dispute."
        },
        "returns": {
          "_0": "The appeal cost."
        }
      },
      "appealPeriod(uint256)": {
        "params": {
          "_disputeID": "The ID of the dispute."
        },
        "returns": {
          "end": "The end of the appeal period.",
          "start": "The start of the appeal period."
        }
      },
      "arbitrationCost(bytes)": {
        "details": "It is recommended not to increase it often, as it can be highly time and gas consuming for the arbitrated contracts to cope with fee augmentation.",
        "params": {
          "_extraData": "Additional info about the dispute. We use it to pass the ID of the dispute's court (first 32 bytes), the minimum number of jurors required (next 32 bytes) and the ID of the specific dispute kit (last 32 bytes)."
        },
        "returns": {
          "cost": "The arbitration cost in ETH."
        }
      },
      "arbitrationCost(bytes,address)": {
        "details": "It is recommended not to increase it often, as it can be highly time and gas consuming for the arbitrated contracts to cope with fee augmentation.",
        "params": {
          "_extraData": "Additional info about the dispute. We use it to pass the ID of the dispute's court (first 32 bytes), the minimum number of jurors required (next 32 bytes) and the ID of the specific dispute kit (last 32 bytes).",
          "_feeToken": "The ERC20 token used to pay fees."
        },
        "returns": {
          "cost": "The arbitration cost in `_feeToken`."
        }
      },
      "changeAcceptedFeeTokens(address,bool)": {
        "params": {
          "_accepted": "Whether the token is supported or not as a method of fee payment.",
          "_feeToken": "The fee token."
        }
      },
      "changeCourtParameters(uint96,bool,uint256,uint256,uint256,uint256,uint256[4])": {
        "params": {
          "_alpha": "The `alpha` property value of the court.",
          "_courtID": "ID of the court.",
          "_feeForJuror": "The `feeForJuror` property value of the court.",
          "_hiddenVotes": "The `hiddenVotes` property value of the court.",
          "_jurorsForCourtJump": "The `jurorsForCourtJump` property value of the court.",
          "_minStake": "The `minStake` property value of the court.",
          "_timesPerPeriod": "The `timesPerPeriod` property value of the court."
        }
      },
      "changeCurrencyRates(address,uint64,uint8)": {
        "params": {
          "_feeToken": "The fee token.",
          "_rateDecimals": "The new decimals of the fee token rate.",
          "_rateInEth": "The new rate of the fee token in ETH."
        }
      },
      "changeInstructor(address)": {
        "params": {
          "_instructor": "The new value for the `instructor` storage variable."
        }
      },
      "changeJurorProsecutionModule(address)": {
        "params": {
          "_jurorProsecutionModule": "The new value for the `jurorProsecutionModule` storage variable."
        }
      },
      "changeOwner(address)": {
        "params": {
          "_owner": "The new value for the `owner` storage variable."
        }
      },
      "changePinakion(address)": {
        "params": {
          "_pinakion": "The new value for the `pinakion` storage variable."
        }
      },
      "changeSortitionModule(address)": {
        "params": {
          "_sortitionModule": "The new value for the `sortitionModule` storage variable."
        }
      },
      "constructor": {
        "custom:oz-upgrades-unsafe-allow": "constructor"
      },
      "convertEthToTokenAmount(address,uint256)": {
        "params": {
          "_amountInEth": "ETH amount.",
          "_toToken": "The token to convert ETH into."
        },
        "returns": {
          "_0": "Amount of tokens."
        }
      },
      "createCourt(uint96,bool,uint256,uint256,uint256,uint256,uint256[4],uint256[])": {
        "params": {
          "_alpha": "The `alpha` property value of the court.",
          "_feeForJuror": "The `feeForJuror` property value of the court.",
          "_hiddenVotes": "The `hiddenVotes` property value of the court.",
          "_jurorsForCourtJump": "The `jurorsForCourtJump` property value of the court.",
          "_minStake": "The `minStake` property value of the court.",
          "_parent": "The `parent` property value of the court.",
          "_supportedDisputeKits": "Indexes of dispute kits that this court will support.",
          "_timesPerPeriod": "The `timesPerPeriod` property value of the court."
        }
      },
      "createDispute(uint256,bytes)": {
        "details": "Must be called by the arbitrable contract and pay at least `arbitrationCost(_extraData)` in ETH.",
        "params": {
          "_extraData": "Additional info about the dispute. We use it to pass the ID of the dispute's court (first 32 bytes), the minimum number of jurors required (next 32 bytes) and the ID of the specific dispute kit (last 32 bytes).",
          "_numberOfChoices": "The number of choices the arbitrator can choose from in this dispute."
        },
        "returns": {
          "disputeID": "The identifier of the dispute created."
        }
      },
      "createDispute(uint256,bytes,address,uint256)": {
        "details": "Must be called by the arbitrable contract and pay at least `arbitrationCost(_extraData, _feeToken)` in the supported ERC20 token.",
        "params": {
          "_extraData": "Additional info about the dispute. We use it to pass the ID of the dispute's court (first 32 bytes), the minimum number of jurors required (next 32 bytes) and the ID of the specific dispute kit (last 32 bytes).",
          "_feeAmount": "Amount of the ERC20 token used to pay fees.",
          "_feeToken": "The ERC20 token used to pay fees.",
          "_numberOfChoices": "The number of choices the arbitrator can choose from in this dispute."
        },
        "returns": {
          "disputeID": "The identifier of the dispute created."
        }
      },
      "currentRuling(uint256)": {
        "params": {
          "_disputeID": "The ID of the dispute."
        },
        "returns": {
          "overridden": "Whether the ruling was overridden by appeal funding or not.",
          "ruling": "The current ruling.",
          "tied": "Whether it's a tie or not."
        }
      },
      "draw(uint256,address)": {
        "params": {
          "_disputeID": "The ID of the dispute.",
          "_juror": "The address of the juror to draw."
        }
      },
      "enableDisputeKits(uint96,uint256[],bool)": {
        "params": {
          "_courtID": "The ID of the court.",
          "_disputeKitIDs": "The IDs of dispute kits which support should be added/removed.",
          "_enable": "Whether add or remove the dispute kits from the court."
        }
      },
      "execute(uint256,uint256,uint256)": {
        "params": {
          "_disputeID": "The ID of the dispute.",
          "_iterations": "The number of iterations to run.",
          "_round": "The appeal round."
        }
      },
      "executeOwnerProposal(address,uint256,bytes)": {
        "params": {
          "_amount": "The value sent with the call.",
          "_data": "The data sent with the call.",
          "_destination": "The destination of the call."
        }
      },
      "executeRuling(uint256)": {
        "params": {
          "_disputeID": "The ID of the dispute."
        }
      },
      "getCourtAndDisputeKitJumps(uint256)": {
        "params": {
          "_disputeID": "Dispute ID."
        },
        "returns": {
          "courtJump": "Whether the dispute jumps to a new court or not.",
          "disputeKitJump": "Whether the dispute jumps to a new dispute kit or not.",
          "newCourtID": "Court ID after jump.",
          "newDisputeKitID": "Dispute kit ID after jump.",
          "newRoundNbVotes": "The number of votes in the new round."
        }
      },
      "getDisputeKitsLength()": {
        "returns": {
          "_0": "disputeKits length."
        }
      },
      "getNumberOfRounds(uint256)": {
        "params": {
          "_disputeID": "The ID of the dispute."
        },
        "returns": {
          "_0": "The number of rounds."
        }
      },
      "getNumberOfVotes(uint256)": {
        "params": {
          "_disputeID": "The ID of the dispute."
        }
      },
      "getPnkAtStakePerJuror(uint256,uint256)": {
        "params": {
          "_disputeID": "The ID of the dispute.",
          "_round": "The round to get the info for."
        },
        "returns": {
          "_0": "pnkAtStakePerJuror The PNK at stake per juror."
        }
      },
      "getRoundInfo(uint256,uint256)": {
        "details": "This function must not be called from a non-view function because it returns a dynamic array which might be very large, theoretically exceeding the block gas limit.",
        "params": {
          "_disputeID": "The ID of the dispute.",
          "_round": "The round to get the info for."
        },
        "returns": {
          "_0": "round The round info."
        }
      },
      "getTimesPerPeriod(uint96)": {
        "params": {
          "_courtID": "The ID of the court to get the times from."
        },
        "returns": {
          "timesPerPeriod": "The timesPerPeriod array for the given court."
        }
      },
      "initialize(address,address,address,address,address,bool,uint256[4],uint256[4],address)": {
        "params": {
          "_courtParameters": "Numeric parameters of General court (minStake, alpha, feeForJuror and jurorsForCourtJump respectively).",
          "_disputeKit": "The address of the default dispute kit.",
          "_hiddenVotes": "The `hiddenVotes` property value of the general court.",
          "_instructor": "The address of the instructor.",
          "_jurorProsecutionModule": "The address of the juror prosecution module.",
          "_owner": "The owner's address.",
          "_pinakion": "The address of the token contract.",
          "_sortitionModuleAddress": "The sortition module responsible for sortition of the jurors.",
          "_timesPerPeriod": "The `timesPerPeriod` property value of the general court."
        }
      },
      "isSupported(uint96,uint256)": {
        "params": {
          "_courtID": "The ID of the court to check the support for.",
          "_disputeKitID": "The ID of the dispute kit to check the support for."
        },
        "returns": {
          "_0": "Whether the dispute kit is supported or not."
        }
      },
      "passPeriod(uint256)": {
        "params": {
          "_disputeID": "The ID of the dispute."
        }
      },
      "proxiableUUID()": {
        "details": "IMPORTANT: A proxy pointing at a proxiable contract should not be considered proxiable itself, because this risks bricking a proxy that upgrades to it, by delegating to itself until out of gas. Thus it is critical that this function revert if invoked through a proxy. This is guaranteed by the if statement."
      },
      "setStake(uint96,uint256)": {
        "params": {
          "_courtID": "The ID of the court.",
          "_newStake": "The new stake. Note that the existing delayed stake will be nullified as non-relevant."
        }
      },
      "setStakeBySortitionModule(address,uint96,uint256)": {
        "params": {
          "_account": "The account whose stake is being set.",
          "_courtID": "The ID of the court.",
          "_newStake": "The new stake."
        },
        "returns": {
          "_0": "True if the stake was set successfully."
        }
      },
      "transferBySortitionModule(address,uint256)": {
        "params": {
          "_account": "The account of the juror whose PNK to transfer.",
          "_amount": "The amount to transfer."
        }
      },
      "upgradeToAndCall(address,bytes)": {
        "details": "Reverts if the execution is not performed via delegatecall or the execution context is not of a proxy with an ERC1967-compliant implementation pointing to self.",
        "params": {
          "data": "Data used in a delegate call to `newImplementation` if non-empty. This will typically be an encoded function call, and allows initializing the storage of the proxy like a Solidity constructor.",
          "newImplementation": "Address of the new implementation contract."
        }
      }
    },
    "stateVariables": {
      "version": {
        "return": "Version string.",
        "returns": {
          "_0": "Version string."
        }
      }
    },
    "title": "KlerosCoreUniversity",
    "version": 1
  },
  "userdoc": {
    "errors": {
      "FailedDelegateCall()": [
        {
          "notice": "Failed Delegated call"
        }
      ],
      "InvalidImplementation(address)": [
        {
          "notice": "The `implementation` is not UUPS-compliant"
        }
      ],
      "UUPSUnauthorizedCallContext()": [
        {
          "notice": "The call is from an unauthorized context."
        }
      ],
      "UUPSUnsupportedProxiableUUID(bytes32)": [
        {
          "notice": "The storage `slot` is unsupported as a UUID."
        }
      ]
    },
    "events": {
      "AcceptedFeeToken(address,bool)": {
        "notice": "To be emitted when an ERC20 token is added or removed as a method to pay fees."
      },
      "AppealDecision(uint256,address)": {
        "notice": "Emitted when the dispute is successfully appealed."
      },
      "AppealPossible(uint256,address)": {
        "notice": "Emitted when appeal period starts."
      },
      "CourtCreated(uint96,uint96,bool,uint256,uint256,uint256,uint256,uint256[4],uint256[])": {
        "notice": "Emitted when a new court is created."
      },
      "CourtJump(uint256,uint256,uint96,uint96)": {
        "notice": "Emitted when a dispute jumps to a new court."
      },
      "CourtModified(uint96,bool,uint256,uint256,uint256,uint256,uint256[4])": {
        "notice": "Emitted when court's parameters are changed."
      },
      "DisputeCreation(uint256,address)": {
        "notice": "To be emitted when a dispute is created."
      },
      "DisputeKitCreated(uint256,address)": {
        "notice": "Emitted when a dispute kit is created."
      },
      "DisputeKitEnabled(uint96,uint256,bool)": {
        "notice": "Emitted when a dispute kit is enabled/disabled in a court."
      },
      "DisputeKitJump(uint256,uint256,uint256,uint256)": {
        "notice": "Emitted when a dispute jumps to a new dispute kit."
      },
      "Draw(address,uint256,uint256,uint256)": {
        "notice": "Emitted when an address is successfully drawn."
      },
      "JurorRewardPenalty(address,uint256,uint256,uint256,uint256,int256,int256,address)": {
        "notice": "Emitted when juror's balance shifts after penalties/rewards has been processed."
      },
      "LeftoverRewardSent(uint256,uint256,uint256,uint256,address)": {
        "notice": "Emitted when leftover reward sent to owner."
      },
      "NewCurrencyRate(address,uint64,uint8)": {
        "notice": "To be emitted when the fee for a particular ERC20 token is updated."
      },
      "NewPeriod(uint256,uint8)": {
        "notice": "Emitted when period is passed."
      },
      "Ruling(address,uint256,uint256)": {
        "notice": "To be raised when a ruling is given."
      },
      "Upgraded(address)": {
        "notice": "Emitted when the `implementation` has been successfully upgraded."
      }
    },
    "kind": "user",
    "methods": {
      "addNewDisputeKit(address)": {
        "notice": "Add a new supported dispute kit, without enabling it. Use `enableDisputeKits()` to enable the dispute kit for a specific court."
      },
      "appeal(uint256,uint256,bytes)": {
        "notice": "Appeals the ruling of a specified dispute."
      },
      "appealCost(uint256)": {
        "notice": "Gets the cost of appealing a specified dispute."
      },
      "appealPeriod(uint256)": {
        "notice": "Gets the start and the end of a specified dispute's current appeal period."
      },
      "arbitrationCost(bytes)": {
        "notice": "Compute the cost of arbitration denominated in the native currency, typically ETH."
      },
      "arbitrationCost(bytes,address)": {
        "notice": "Compute the cost of arbitration denominated in `_feeToken`."
      },
      "changeAcceptedFeeTokens(address,bool)": {
        "notice": "Changes the supported fee tokens."
      },
      "changeCourtParameters(uint96,bool,uint256,uint256,uint256,uint256,uint256[4])": {
        "notice": "Changes the parameters of the court."
      },
      "changeCurrencyRates(address,uint64,uint8)": {
        "notice": "Changes the currency rate of a fee token."
      },
      "changeInstructor(address)": {
        "notice": "Changes the `instructor` storage variable."
      },
      "changeJurorProsecutionModule(address)": {
        "notice": "Changes the `jurorProsecutionModule` storage variable."
      },
      "changeOwner(address)": {
        "notice": "Changes the `owner` storage variable."
      },
      "changePinakion(address)": {
        "notice": "Changes the `pinakion` storage variable."
      },
      "changeSortitionModule(address)": {
        "notice": "Changes the `_sortitionModule` storage variable. Note that the new module should be initialized for all courts."
      },
      "convertEthToTokenAmount(address,uint256)": {
        "notice": "Converts ETH into tokens."
      },
      "createCourt(uint96,bool,uint256,uint256,uint256,uint256,uint256[4],uint256[])": {
        "notice": "Creates a court under a specified parent court."
      },
      "createDispute(uint256,bytes)": {
        "notice": "Create a dispute and pay for the fees in the native currency, typically ETH."
      },
      "createDispute(uint256,bytes,address,uint256)": {
        "notice": "Create a dispute and pay for the fees in a supported ERC20 token."
      },
      "currentRuling(uint256)": {
        "notice": "Gets the current ruling of a specified dispute."
      },
      "draw(uint256,address)": {
        "notice": "Draws one juror for the dispute until the number votes paid for is reached."
      },
      "enableDisputeKits(uint96,uint256[],bool)": {
        "notice": "Adds/removes court's support for specified dispute kits."
      },
      "execute(uint256,uint256,uint256)": {
        "notice": "Distribute the PNKs at stake and the dispute fees for the specific round of the dispute. Can be called in parts."
      },
      "executeOwnerProposal(address,uint256,bytes)": {
        "notice": "Allows the owner to call anything on behalf of the contract."
      },
      "executeRuling(uint256)": {
        "notice": "Executes a specified dispute's ruling."
      },
      "getCourtAndDisputeKitJumps(uint256)": {
        "notice": "Checks whether a dispute will jump to new court/DK and enforces a compatibility check."
      },
      "getDisputeKitsLength()": {
        "notice": "Returns the length of disputeKits array."
      },
      "getNumberOfRounds(uint256)": {
        "notice": "Gets the number of rounds for a specified dispute."
      },
      "getNumberOfVotes(uint256)": {
        "notice": "Gets the number of votes permitted for the specified dispute in the latest round."
      },
      "getPnkAtStakePerJuror(uint256,uint256)": {
        "notice": "Gets the PNK at stake per juror for a specified dispute and round."
      },
      "getRoundInfo(uint256,uint256)": {
        "notice": "Gets the round info for a specified dispute and round."
      },
      "getTimesPerPeriod(uint96)": {
        "notice": "Gets the timesPerPeriod array for a given court."
      },
      "initialize(address,address,address,address,address,bool,uint256[4],uint256[4],address)": {
        "notice": "Initializer (constructor equivalent for upgradable contracts)."
      },
      "isSupported(uint96,uint256)": {
        "notice": "Checks if a given dispute kit is supported by a given court."
      },
      "passPeriod(uint256)": {
        "notice": "Passes the period of a specified dispute."
      },
      "proxiableUUID()": {
        "notice": "Implementation of the ERC1822 `proxiableUUID` function. This returns the storage slot used by the implementation. It is used to validate the implementation's compatibility when performing an upgrade."
      },
      "setStake(uint96,uint256)": {
        "notice": "Sets the caller's stake in a court."
      },
      "setStakeBySortitionModule(address,uint96,uint256)": {
        "notice": "Sets the stake of a specified account in a court, typically to apply a delayed stake or unstake inactive jurors."
      },
      "transferBySortitionModule(address,uint256)": {
        "notice": "Transfers PNK to the juror by SortitionModule."
      },
      "upgradeToAndCall(address,bytes)": {
        "notice": "Upgrade mechanism including access control and UUPS-compliance."
      },
      "version()": {
        "notice": "Returns the version of the implementation."
      }
    },
    "notice": "Core arbitrator contract for educational purposes.",
    "version": 1
  },
  "storageLayout": {
    "storage": [
      {
        "astId": 783,
        "contract": "src/arbitration/university/KlerosCoreUniversity.sol:KlerosCoreUniversity",
        "label": "owner",
        "offset": 0,
        "slot": "0",
        "type": "t_address"
      },
      {
        "astId": 785,
        "contract": "src/arbitration/university/KlerosCoreUniversity.sol:KlerosCoreUniversity",
        "label": "instructor",
        "offset": 0,
        "slot": "1",
        "type": "t_address"
      },
      {
        "astId": 788,
        "contract": "src/arbitration/university/KlerosCoreUniversity.sol:KlerosCoreUniversity",
        "label": "pinakion",
        "offset": 0,
        "slot": "2",
        "type": "t_contract(IERC20)77"
      },
      {
        "astId": 790,
        "contract": "src/arbitration/university/KlerosCoreUniversity.sol:KlerosCoreUniversity",
        "label": "jurorProsecutionModule",
        "offset": 0,
        "slot": "3",
        "type": "t_address"
      },
      {
        "astId": 793,
        "contract": "src/arbitration/university/KlerosCoreUniversity.sol:KlerosCoreUniversity",
        "label": "sortitionModule",
        "offset": 0,
        "slot": "4",
        "type": "t_contract(ISortitionModuleUniversity)626"
      },
      {
        "astId": 797,
        "contract": "src/arbitration/university/KlerosCoreUniversity.sol:KlerosCoreUniversity",
        "label": "courts",
        "offset": 0,
        "slot": "5",
        "type": "t_array(t_struct(Court)694_storage)dyn_storage"
      },
      {
        "astId": 801,
        "contract": "src/arbitration/university/KlerosCoreUniversity.sol:KlerosCoreUniversity",
        "label": "disputeKits",
        "offset": 0,
        "slot": "6",
        "type": "t_array(t_contract(IDisputeKit)413)dyn_storage"
      },
      {
        "astId": 805,
        "contract": "src/arbitration/university/KlerosCoreUniversity.sol:KlerosCoreUniversity",
        "label": "disputes",
        "offset": 0,
        "slot": "7",
        "type": "t_array(t_struct(Dispute)715_storage)dyn_storage"
      },
      {
        "astId": 811,
        "contract": "src/arbitration/university/KlerosCoreUniversity.sol:KlerosCoreUniversity",
        "label": "currencyRates",
        "offset": 0,
        "slot": "8",
        "type": "t_mapping(t_contract(IERC20)77,t_struct(CurrencyRate)771_storage)"
      }
    ],
    "types": {
      "t_address": {
        "encoding": "inplace",
        "label": "address",
        "numberOfBytes": "20"
      },
      "t_array(t_address)dyn_storage": {
        "base": "t_address",
        "encoding": "dynamic_array",
        "label": "address[]",
        "numberOfBytes": "32"
      },
      "t_array(t_contract(IDisputeKit)413)dyn_storage": {
        "base": "t_contract(IDisputeKit)413",
        "encoding": "dynamic_array",
        "label": "contract IDisputeKit[]",
        "numberOfBytes": "32"
      },
      "t_array(t_struct(Court)694_storage)dyn_storage": {
        "base": "t_struct(Court)694_storage",
        "encoding": "dynamic_array",
        "label": "struct KlerosCoreUniversity.Court[]",
        "numberOfBytes": "32"
      },
      "t_array(t_struct(Dispute)715_storage)dyn_storage": {
        "base": "t_struct(Dispute)715_storage",
        "encoding": "dynamic_array",
        "label": "struct KlerosCoreUniversity.Dispute[]",
        "numberOfBytes": "32"
      },
      "t_array(t_struct(Round)747_storage)dyn_storage": {
        "base": "t_struct(Round)747_storage",
        "encoding": "dynamic_array",
        "label": "struct KlerosCoreUniversity.Round[]",
        "numberOfBytes": "32"
      },
      "t_array(t_uint256)10_storage": {
        "base": "t_uint256",
        "encoding": "inplace",
        "label": "uint256[10]",
        "numberOfBytes": "320"
      },
      "t_array(t_uint256)4_storage": {
        "base": "t_uint256",
        "encoding": "inplace",
        "label": "uint256[4]",
        "numberOfBytes": "128"
      },
      "t_array(t_uint256)dyn_storage": {
        "base": "t_uint256",
        "encoding": "dynamic_array",
        "label": "uint256[]",
        "numberOfBytes": "32"
      },
      "t_array(t_uint96)dyn_storage": {
        "base": "t_uint96",
        "encoding": "dynamic_array",
        "label": "uint96[]",
        "numberOfBytes": "32"
      },
      "t_bool": {
        "encoding": "inplace",
        "label": "bool",
        "numberOfBytes": "1"
      },
      "t_contract(IArbitrableV2)111": {
        "encoding": "inplace",
        "label": "contract IArbitrableV2",
        "numberOfBytes": "20"
      },
      "t_contract(IDisputeKit)413": {
        "encoding": "inplace",
        "label": "contract IDisputeKit",
        "numberOfBytes": "20"
      },
      "t_contract(IERC20)77": {
        "encoding": "inplace",
        "label": "contract IERC20",
        "numberOfBytes": "20"
      },
      "t_contract(ISortitionModuleUniversity)626": {
        "encoding": "inplace",
        "label": "contract ISortitionModuleUniversity",
        "numberOfBytes": "20"
      },
      "t_enum(Period)666": {
        "encoding": "inplace",
        "label": "enum KlerosCoreUniversity.Period",
        "numberOfBytes": "1"
      },
      "t_mapping(t_contract(IERC20)77,t_struct(CurrencyRate)771_storage)": {
        "encoding": "mapping",
        "key": "t_contract(IERC20)77",
        "label": "mapping(contract IERC20 => struct KlerosCoreUniversity.CurrencyRate)",
        "numberOfBytes": "32",
        "value": "t_struct(CurrencyRate)771_storage"
      },
      "t_mapping(t_uint256,t_bool)": {
        "encoding": "mapping",
        "key": "t_uint256",
        "label": "mapping(uint256 => bool)",
        "numberOfBytes": "32",
        "value": "t_bool"
      },
      "t_struct(Court)694_storage": {
        "encoding": "inplace",
        "label": "struct KlerosCoreUniversity.Court",
        "members": [
          {
            "astId": 668,
            "contract": "src/arbitration/university/KlerosCoreUniversity.sol:KlerosCoreUniversity",
            "label": "parent",
            "offset": 0,
            "slot": "0",
            "type": "t_uint96"
          },
          {
            "astId": 670,
            "contract": "src/arbitration/university/KlerosCoreUniversity.sol:KlerosCoreUniversity",
            "label": "hiddenVotes",
            "offset": 12,
            "slot": "0",
            "type": "t_bool"
          },
          {
            "astId": 673,
            "contract": "src/arbitration/university/KlerosCoreUniversity.sol:KlerosCoreUniversity",
            "label": "children",
            "offset": 0,
            "slot": "1",
            "type": "t_array(t_uint256)dyn_storage"
          },
          {
            "astId": 675,
            "contract": "src/arbitration/university/KlerosCoreUniversity.sol:KlerosCoreUniversity",
            "label": "minStake",
            "offset": 0,
            "slot": "2",
            "type": "t_uint256"
          },
          {
            "astId": 677,
            "contract": "src/arbitration/university/KlerosCoreUniversity.sol:KlerosCoreUniversity",
            "label": "alpha",
            "offset": 0,
            "slot": "3",
            "type": "t_uint256"
          },
          {
            "astId": 679,
            "contract": "src/arbitration/university/KlerosCoreUniversity.sol:KlerosCoreUniversity",
            "label": "feeForJuror",
            "offset": 0,
            "slot": "4",
            "type": "t_uint256"
          },
          {
            "astId": 681,
            "contract": "src/arbitration/university/KlerosCoreUniversity.sol:KlerosCoreUniversity",
            "label": "jurorsForCourtJump",
            "offset": 0,
            "slot": "5",
            "type": "t_uint256"
          },
          {
            "astId": 685,
            "contract": "src/arbitration/university/KlerosCoreUniversity.sol:KlerosCoreUniversity",
            "label": "timesPerPeriod",
            "offset": 0,
            "slot": "6",
            "type": "t_array(t_uint256)4_storage"
          },
          {
            "astId": 689,
            "contract": "src/arbitration/university/KlerosCoreUniversity.sol:KlerosCoreUniversity",
            "label": "supportedDisputeKits",
            "offset": 0,
            "slot": "10",
            "type": "t_mapping(t_uint256,t_bool)"
          },
          {
            "astId": 693,
            "contract": "src/arbitration/university/KlerosCoreUniversity.sol:KlerosCoreUniversity",
            "label": "__gap",
            "offset": 0,
            "slot": "11",
            "type": "t_array(t_uint256)10_storage"
          }
        ],
        "numberOfBytes": "672"
      },
      "t_struct(CurrencyRate)771_storage": {
        "encoding": "inplace",
        "label": "struct KlerosCoreUniversity.CurrencyRate",
        "members": [
          {
            "astId": 766,
            "contract": "src/arbitration/university/KlerosCoreUniversity.sol:KlerosCoreUniversity",
            "label": "feePaymentAccepted",
            "offset": 0,
            "slot": "0",
            "type": "t_bool"
          },
          {
            "astId": 768,
            "contract": "src/arbitration/university/KlerosCoreUniversity.sol:KlerosCoreUniversity",
            "label": "rateInEth",
            "offset": 1,
            "slot": "0",
            "type": "t_uint64"
          },
          {
            "astId": 770,
            "contract": "src/arbitration/university/KlerosCoreUniversity.sol:KlerosCoreUniversity",
            "label": "rateDecimals",
            "offset": 9,
            "slot": "0",
            "type": "t_uint8"
          }
        ],
        "numberOfBytes": "32"
      },
      "t_struct(Dispute)715_storage": {
        "encoding": "inplace",
        "label": "struct KlerosCoreUniversity.Dispute",
        "members": [
          {
            "astId": 696,
            "contract": "src/arbitration/university/KlerosCoreUniversity.sol:KlerosCoreUniversity",
            "label": "courtID",
            "offset": 0,
            "slot": "0",
            "type": "t_uint96"
          },
          {
            "astId": 699,
            "contract": "src/arbitration/university/KlerosCoreUniversity.sol:KlerosCoreUniversity",
            "label": "arbitrated",
            "offset": 12,
            "slot": "0",
            "type": "t_contract(IArbitrableV2)111"
          },
          {
            "astId": 702,
            "contract": "src/arbitration/university/KlerosCoreUniversity.sol:KlerosCoreUniversity",
            "label": "period",
            "offset": 0,
            "slot": "1",
            "type": "t_enum(Period)666"
          },
          {
            "astId": 704,
            "contract": "src/arbitration/university/KlerosCoreUniversity.sol:KlerosCoreUniversity",
            "label": "ruled",
            "offset": 1,
            "slot": "1",
            "type": "t_bool"
          },
          {
            "astId": 706,
            "contract": "src/arbitration/university/KlerosCoreUniversity.sol:KlerosCoreUniversity",
            "label": "lastPeriodChange",
            "offset": 0,
            "slot": "2",
            "type": "t_uint256"
          },
          {
            "astId": 710,
            "contract": "src/arbitration/university/KlerosCoreUniversity.sol:KlerosCoreUniversity",
            "label": "rounds",
            "offset": 0,
            "slot": "3",
            "type": "t_array(t_struct(Round)747_storage)dyn_storage"
          },
          {
            "astId": 714,
            "contract": "src/arbitration/university/KlerosCoreUniversity.sol:KlerosCoreUniversity",
            "label": "__gap",
            "offset": 0,
            "slot": "4",
            "type": "t_array(t_uint256)10_storage"
          }
        ],
        "numberOfBytes": "448"
      },
      "t_struct(Round)747_storage": {
        "encoding": "inplace",
        "label": "struct KlerosCoreUniversity.Round",
        "members": [
          {
            "astId": 717,
            "contract": "src/arbitration/university/KlerosCoreUniversity.sol:KlerosCoreUniversity",
            "label": "disputeKitID",
            "offset": 0,
            "slot": "0",
            "type": "t_uint256"
          },
          {
            "astId": 719,
            "contract": "src/arbitration/university/KlerosCoreUniversity.sol:KlerosCoreUniversity",
            "label": "pnkAtStakePerJuror",
            "offset": 0,
            "slot": "1",
            "type": "t_uint256"
          },
          {
            "astId": 721,
            "contract": "src/arbitration/university/KlerosCoreUniversity.sol:KlerosCoreUniversity",
            "label": "totalFeesForJurors",
            "offset": 0,
            "slot": "2",
            "type": "t_uint256"
          },
          {
            "astId": 723,
            "contract": "src/arbitration/university/KlerosCoreUniversity.sol:KlerosCoreUniversity",
            "label": "nbVotes",
            "offset": 0,
            "slot": "3",
            "type": "t_uint256"
          },
          {
            "astId": 725,
            "contract": "src/arbitration/university/KlerosCoreUniversity.sol:KlerosCoreUniversity",
            "label": "repartitions",
            "offset": 0,
            "slot": "4",
            "type": "t_uint256"
          },
          {
            "astId": 727,
            "contract": "src/arbitration/university/KlerosCoreUniversity.sol:KlerosCoreUniversity",
            "label": "pnkPenalties",
            "offset": 0,
            "slot": "5",
            "type": "t_uint256"
          },
          {
            "astId": 730,
            "contract": "src/arbitration/university/KlerosCoreUniversity.sol:KlerosCoreUniversity",
            "label": "drawnJurors",
            "offset": 0,
            "slot": "6",
            "type": "t_array(t_address)dyn_storage"
          },
          {
            "astId": 733,
            "contract": "src/arbitration/university/KlerosCoreUniversity.sol:KlerosCoreUniversity",
            "label": "drawnJurorFromCourtIDs",
            "offset": 0,
            "slot": "7",
            "type": "t_array(t_uint96)dyn_storage"
          },
          {
            "astId": 735,
            "contract": "src/arbitration/university/KlerosCoreUniversity.sol:KlerosCoreUniversity",
            "label": "sumFeeRewardPaid",
            "offset": 0,
            "slot": "8",
            "type": "t_uint256"
          },
          {
            "astId": 737,
            "contract": "src/arbitration/university/KlerosCoreUniversity.sol:KlerosCoreUniversity",
            "label": "sumPnkRewardPaid",
            "offset": 0,
            "slot": "9",
            "type": "t_uint256"
          },
          {
            "astId": 740,
            "contract": "src/arbitration/university/KlerosCoreUniversity.sol:KlerosCoreUniversity",
            "label": "feeToken",
            "offset": 0,
            "slot": "10",
            "type": "t_contract(IERC20)77"
          },
          {
            "astId": 742,
            "contract": "src/arbitration/university/KlerosCoreUniversity.sol:KlerosCoreUniversity",
            "label": "drawIterations",
            "offset": 0,
            "slot": "11",
            "type": "t_uint256"
          },
          {
            "astId": 746,
            "contract": "src/arbitration/university/KlerosCoreUniversity.sol:KlerosCoreUniversity",
            "label": "__gap",
            "offset": 0,
            "slot": "12",
            "type": "t_array(t_uint256)10_storage"
          }
        ],
        "numberOfBytes": "704"
      },
      "t_uint256": {
        "encoding": "inplace",
        "label": "uint256",
        "numberOfBytes": "32"
      },
      "t_uint64": {
        "encoding": "inplace",
        "label": "uint64",
        "numberOfBytes": "8"
      },
      "t_uint8": {
        "encoding": "inplace",
        "label": "uint8",
        "numberOfBytes": "1"
      },
      "t_uint96": {
        "encoding": "inplace",
        "label": "uint96",
        "numberOfBytes": "12"
      }
    }
  }
}