{
  "address": "0xaBf1AA1D08F98ED800938B1B086d0904c5BF4f0E",
  "abi": [
    {
      "inputs": [],
      "stateMutability": "nonpayable",
      "type": "constructor"
    },
    {
      "inputs": [],
      "name": "AlreadyInitialized",
      "type": "error"
    },
    {
      "inputs": [],
      "name": "AppealFeesNotEnough",
      "type": "error"
    },
    {
      "inputs": [],
      "name": "AppealPeriodNotPassed",
      "type": "error"
    },
    {
      "inputs": [],
      "name": "ArbitrationFeesNotEnough",
      "type": "error"
    },
    {
      "inputs": [],
      "name": "CannotDisableClassicDK",
      "type": "error"
    },
    {
      "inputs": [],
      "name": "CommitPeriodNotPassed",
      "type": "error"
    },
    {
      "inputs": [],
      "name": "DisputeKitNotSupportedByCourt",
      "type": "error"
    },
    {
      "inputs": [],
      "name": "DisputeKitOnly",
      "type": "error"
    },
    {
      "inputs": [],
      "name": "DisputeNotAppealable",
      "type": "error"
    },
    {
      "inputs": [],
      "name": "DisputePeriodIsFinal",
      "type": "error"
    },
    {
      "inputs": [],
      "name": "DisputeStillDrawing",
      "type": "error"
    },
    {
      "inputs": [],
      "name": "EvidenceNotPassedAndNotAppeal",
      "type": "error"
    },
    {
      "inputs": [],
      "name": "FailedDelegateCall",
      "type": "error"
    },
    {
      "inputs": [],
      "name": "GovernorOnly",
      "type": "error"
    },
    {
      "inputs": [],
      "name": "GuardianOrGovernorOnly",
      "type": "error"
    },
    {
      "inputs": [],
      "name": "InvalidDisputKitParent",
      "type": "error"
    },
    {
      "inputs": [],
      "name": "InvalidForkingCourtAsParent",
      "type": "error"
    },
    {
      "inputs": [
        {
          "internalType": "address",
          "name": "implementation",
          "type": "address"
        }
      ],
      "name": "InvalidImplementation",
      "type": "error"
    },
    {
      "inputs": [],
      "name": "MinStakeLowerThanParentCourt",
      "type": "error"
    },
    {
      "inputs": [],
      "name": "MustSupportDisputeKitClassic",
      "type": "error"
    },
    {
      "inputs": [],
      "name": "NotEvidencePeriod",
      "type": "error"
    },
    {
      "inputs": [],
      "name": "NotExecutionPeriod",
      "type": "error"
    },
    {
      "inputs": [],
      "name": "NotInitializing",
      "type": "error"
    },
    {
      "inputs": [],
      "name": "RulingAlreadyExecuted",
      "type": "error"
    },
    {
      "inputs": [],
      "name": "SortitionModuleOnly",
      "type": "error"
    },
    {
      "inputs": [],
      "name": "StakingInTooManyCourts",
      "type": "error"
    },
    {
      "inputs": [],
      "name": "StakingLessThanCourtMinStake",
      "type": "error"
    },
    {
      "inputs": [],
      "name": "StakingNotPossibleInThisCourt",
      "type": "error"
    },
    {
      "inputs": [],
      "name": "StakingTransferFailed",
      "type": "error"
    },
    {
      "inputs": [],
      "name": "StakingZeroWhenNoStake",
      "type": "error"
    },
    {
      "inputs": [],
      "name": "TokenNotAccepted",
      "type": "error"
    },
    {
      "inputs": [],
      "name": "TransferFailed",
      "type": "error"
    },
    {
      "inputs": [],
      "name": "UUPSUnauthorizedCallContext",
      "type": "error"
    },
    {
      "inputs": [
        {
          "internalType": "bytes32",
          "name": "slot",
          "type": "bytes32"
        }
      ],
      "name": "UUPSUnsupportedProxiableUUID",
      "type": "error"
    },
    {
      "inputs": [],
      "name": "UnstakingTransferFailed",
      "type": "error"
    },
    {
      "inputs": [],
      "name": "UnsuccessfulCall",
      "type": "error"
    },
    {
      "inputs": [],
      "name": "UnsupportedDisputeKit",
      "type": "error"
    },
    {
      "inputs": [],
      "name": "VotePeriodNotPassed",
      "type": "error"
    },
    {
      "inputs": [],
      "name": "WhenNotPausedOnly",
      "type": "error"
    },
    {
      "inputs": [],
      "name": "WhenPausedOnly",
      "type": "error"
    },
    {
      "inputs": [],
      "name": "WrongDisputeKitIndex",
      "type": "error"
    },
    {
      "anonymous": false,
      "inputs": [
        {
          "indexed": true,
          "internalType": "contract IERC20",
          "name": "_token",
          "type": "address"
        },
        {
          "indexed": true,
          "internalType": "bool",
          "name": "_accepted",
          "type": "bool"
        }
      ],
      "name": "AcceptedFeeToken",
      "type": "event"
    },
    {
      "anonymous": false,
      "inputs": [
        {
          "indexed": true,
          "internalType": "uint256",
          "name": "_disputeID",
          "type": "uint256"
        },
        {
          "indexed": true,
          "internalType": "contract IArbitrableV2",
          "name": "_arbitrable",
          "type": "address"
        }
      ],
      "name": "AppealDecision",
      "type": "event"
    },
    {
      "anonymous": false,
      "inputs": [
        {
          "indexed": true,
          "internalType": "uint256",
          "name": "_disputeID",
          "type": "uint256"
        },
        {
          "indexed": true,
          "internalType": "contract IArbitrableV2",
          "name": "_arbitrable",
          "type": "address"
        }
      ],
      "name": "AppealPossible",
      "type": "event"
    },
    {
      "anonymous": false,
      "inputs": [
        {
          "indexed": true,
          "internalType": "uint96",
          "name": "_courtID",
          "type": "uint96"
        },
        {
          "indexed": true,
          "internalType": "uint96",
          "name": "_parent",
          "type": "uint96"
        },
        {
          "indexed": false,
          "internalType": "bool",
          "name": "_hiddenVotes",
          "type": "bool"
        },
        {
          "indexed": false,
          "internalType": "uint256",
          "name": "_minStake",
          "type": "uint256"
        },
        {
          "indexed": false,
          "internalType": "uint256",
          "name": "_alpha",
          "type": "uint256"
        },
        {
          "indexed": false,
          "internalType": "uint256",
          "name": "_feeForJuror",
          "type": "uint256"
        },
        {
          "indexed": false,
          "internalType": "uint256",
          "name": "_jurorsForCourtJump",
          "type": "uint256"
        },
        {
          "indexed": false,
          "internalType": "uint256[4]",
          "name": "_timesPerPeriod",
          "type": "uint256[4]"
        },
        {
          "indexed": false,
          "internalType": "uint256[]",
          "name": "_supportedDisputeKits",
          "type": "uint256[]"
        }
      ],
      "name": "CourtCreated",
      "type": "event"
    },
    {
      "anonymous": false,
      "inputs": [
        {
          "indexed": true,
          "internalType": "uint256",
          "name": "_disputeID",
          "type": "uint256"
        },
        {
          "indexed": true,
          "internalType": "uint256",
          "name": "_roundID",
          "type": "uint256"
        },
        {
          "indexed": true,
          "internalType": "uint96",
          "name": "_fromCourtID",
          "type": "uint96"
        },
        {
          "indexed": false,
          "internalType": "uint96",
          "name": "_toCourtID",
          "type": "uint96"
        }
      ],
      "name": "CourtJump",
      "type": "event"
    },
    {
      "anonymous": false,
      "inputs": [
        {
          "indexed": true,
          "internalType": "uint96",
          "name": "_courtID",
          "type": "uint96"
        },
        {
          "indexed": false,
          "internalType": "bool",
          "name": "_hiddenVotes",
          "type": "bool"
        },
        {
          "indexed": false,
          "internalType": "uint256",
          "name": "_minStake",
          "type": "uint256"
        },
        {
          "indexed": false,
          "internalType": "uint256",
          "name": "_alpha",
          "type": "uint256"
        },
        {
          "indexed": false,
          "internalType": "uint256",
          "name": "_feeForJuror",
          "type": "uint256"
        },
        {
          "indexed": false,
          "internalType": "uint256",
          "name": "_jurorsForCourtJump",
          "type": "uint256"
        },
        {
          "indexed": false,
          "internalType": "uint256[4]",
          "name": "_timesPerPeriod",
          "type": "uint256[4]"
        }
      ],
      "name": "CourtModified",
      "type": "event"
    },
    {
      "anonymous": false,
      "inputs": [
        {
          "indexed": true,
          "internalType": "uint256",
          "name": "_disputeID",
          "type": "uint256"
        },
        {
          "indexed": true,
          "internalType": "contract IArbitrableV2",
          "name": "_arbitrable",
          "type": "address"
        }
      ],
      "name": "DisputeCreation",
      "type": "event"
    },
    {
      "anonymous": false,
      "inputs": [
        {
          "indexed": true,
          "internalType": "uint256",
          "name": "_disputeKitID",
          "type": "uint256"
        },
        {
          "indexed": true,
          "internalType": "contract IDisputeKit",
          "name": "_disputeKitAddress",
          "type": "address"
        }
      ],
      "name": "DisputeKitCreated",
      "type": "event"
    },
    {
      "anonymous": false,
      "inputs": [
        {
          "indexed": true,
          "internalType": "uint96",
          "name": "_courtID",
          "type": "uint96"
        },
        {
          "indexed": true,
          "internalType": "uint256",
          "name": "_disputeKitID",
          "type": "uint256"
        },
        {
          "indexed": true,
          "internalType": "bool",
          "name": "_enable",
          "type": "bool"
        }
      ],
      "name": "DisputeKitEnabled",
      "type": "event"
    },
    {
      "anonymous": false,
      "inputs": [
        {
          "indexed": true,
          "internalType": "uint256",
          "name": "_disputeID",
          "type": "uint256"
        },
        {
          "indexed": true,
          "internalType": "uint256",
          "name": "_roundID",
          "type": "uint256"
        },
        {
          "indexed": true,
          "internalType": "uint256",
          "name": "_fromDisputeKitID",
          "type": "uint256"
        },
        {
          "indexed": false,
          "internalType": "uint256",
          "name": "_toDisputeKitID",
          "type": "uint256"
        }
      ],
      "name": "DisputeKitJump",
      "type": "event"
    },
    {
      "anonymous": false,
      "inputs": [
        {
          "indexed": true,
          "internalType": "address",
          "name": "_address",
          "type": "address"
        },
        {
          "indexed": true,
          "internalType": "uint256",
          "name": "_disputeID",
          "type": "uint256"
        },
        {
          "indexed": false,
          "internalType": "uint256",
          "name": "_roundID",
          "type": "uint256"
        },
        {
          "indexed": false,
          "internalType": "uint256",
          "name": "_voteID",
          "type": "uint256"
        }
      ],
      "name": "Draw",
      "type": "event"
    },
    {
      "anonymous": false,
      "inputs": [
        {
          "indexed": false,
          "internalType": "uint64",
          "name": "version",
          "type": "uint64"
        }
      ],
      "name": "Initialized",
      "type": "event"
    },
    {
      "anonymous": false,
      "inputs": [
        {
          "indexed": true,
          "internalType": "uint256",
          "name": "_disputeID",
          "type": "uint256"
        },
        {
          "indexed": true,
          "internalType": "uint256",
          "name": "_roundID",
          "type": "uint256"
        },
        {
          "indexed": false,
          "internalType": "uint256",
          "name": "_pnkAmount",
          "type": "uint256"
        },
        {
          "indexed": false,
          "internalType": "uint256",
          "name": "_feeAmount",
          "type": "uint256"
        },
        {
          "indexed": false,
          "internalType": "contract IERC20",
          "name": "_feeToken",
          "type": "address"
        }
      ],
      "name": "LeftoverRewardSent",
      "type": "event"
    },
    {
      "anonymous": false,
      "inputs": [
        {
          "indexed": true,
          "internalType": "contract IERC20",
          "name": "_feeToken",
          "type": "address"
        },
        {
          "indexed": false,
          "internalType": "uint64",
          "name": "_rateInEth",
          "type": "uint64"
        },
        {
          "indexed": false,
          "internalType": "uint8",
          "name": "_rateDecimals",
          "type": "uint8"
        }
      ],
      "name": "NewCurrencyRate",
      "type": "event"
    },
    {
      "anonymous": false,
      "inputs": [
        {
          "indexed": true,
          "internalType": "uint256",
          "name": "_disputeID",
          "type": "uint256"
        },
        {
          "indexed": false,
          "internalType": "enum KlerosCoreBase.Period",
          "name": "_period",
          "type": "uint8"
        }
      ],
      "name": "NewPeriod",
      "type": "event"
    },
    {
      "anonymous": false,
      "inputs": [],
      "name": "Paused",
      "type": "event"
    },
    {
      "anonymous": false,
      "inputs": [
        {
          "indexed": true,
          "internalType": "contract IArbitrableV2",
          "name": "_arbitrable",
          "type": "address"
        },
        {
          "indexed": true,
          "internalType": "uint256",
          "name": "_disputeID",
          "type": "uint256"
        },
        {
          "indexed": false,
          "internalType": "uint256",
          "name": "_ruling",
          "type": "uint256"
        }
      ],
      "name": "Ruling",
      "type": "event"
    },
    {
      "anonymous": false,
      "inputs": [
        {
          "indexed": true,
          "internalType": "address",
          "name": "_account",
          "type": "address"
        },
        {
          "indexed": true,
          "internalType": "uint256",
          "name": "_disputeID",
          "type": "uint256"
        },
        {
          "indexed": true,
          "internalType": "uint256",
          "name": "_roundID",
          "type": "uint256"
        },
        {
          "indexed": false,
          "internalType": "uint256",
          "name": "_degreeOfCoherency",
          "type": "uint256"
        },
        {
          "indexed": false,
          "internalType": "int256",
          "name": "_pnkAmount",
          "type": "int256"
        },
        {
          "indexed": false,
          "internalType": "int256",
          "name": "_feeAmount",
          "type": "int256"
        },
        {
          "indexed": false,
          "internalType": "contract IERC20",
          "name": "_feeToken",
          "type": "address"
        }
      ],
      "name": "TokenAndETHShift",
      "type": "event"
    },
    {
      "anonymous": false,
      "inputs": [],
      "name": "Unpaused",
      "type": "event"
    },
    {
      "anonymous": false,
      "inputs": [
        {
          "indexed": true,
          "internalType": "address",
          "name": "newImplementation",
          "type": "address"
        }
      ],
      "name": "Upgraded",
      "type": "event"
    },
    {
      "inputs": [
        {
          "internalType": "contract IDisputeKit",
          "name": "_disputeKitAddress",
          "type": "address"
        }
      ],
      "name": "addNewDisputeKit",
      "outputs": [],
      "stateMutability": "nonpayable",
      "type": "function"
    },
    {
      "inputs": [
        {
          "internalType": "uint256",
          "name": "_disputeID",
          "type": "uint256"
        },
        {
          "internalType": "uint256",
          "name": "_numberOfChoices",
          "type": "uint256"
        },
        {
          "internalType": "bytes",
          "name": "_extraData",
          "type": "bytes"
        }
      ],
      "name": "appeal",
      "outputs": [],
      "stateMutability": "payable",
      "type": "function"
    },
    {
      "inputs": [
        {
          "internalType": "uint256",
          "name": "_disputeID",
          "type": "uint256"
        }
      ],
      "name": "appealCost",
      "outputs": [
        {
          "internalType": "uint256",
          "name": "cost",
          "type": "uint256"
        }
      ],
      "stateMutability": "view",
      "type": "function"
    },
    {
      "inputs": [
        {
          "internalType": "uint256",
          "name": "_disputeID",
          "type": "uint256"
        }
      ],
      "name": "appealPeriod",
      "outputs": [
        {
          "internalType": "uint256",
          "name": "start",
          "type": "uint256"
        },
        {
          "internalType": "uint256",
          "name": "end",
          "type": "uint256"
        }
      ],
      "stateMutability": "view",
      "type": "function"
    },
    {
      "inputs": [
        {
          "internalType": "bytes",
          "name": "_extraData",
          "type": "bytes"
        },
        {
          "internalType": "contract IERC20",
          "name": "_feeToken",
          "type": "address"
        }
      ],
      "name": "arbitrationCost",
      "outputs": [
        {
          "internalType": "uint256",
          "name": "cost",
          "type": "uint256"
        }
      ],
      "stateMutability": "view",
      "type": "function"
    },
    {
      "inputs": [
        {
          "internalType": "bytes",
          "name": "_extraData",
          "type": "bytes"
        }
      ],
      "name": "arbitrationCost",
      "outputs": [
        {
          "internalType": "uint256",
          "name": "cost",
          "type": "uint256"
        }
      ],
      "stateMutability": "view",
      "type": "function"
    },
    {
      "inputs": [
        {
          "internalType": "contract IERC20",
          "name": "_feeToken",
          "type": "address"
        },
        {
          "internalType": "bool",
          "name": "_accepted",
          "type": "bool"
        }
      ],
      "name": "changeAcceptedFeeTokens",
      "outputs": [],
      "stateMutability": "nonpayable",
      "type": "function"
    },
    {
      "inputs": [
        {
          "internalType": "uint96",
          "name": "_courtID",
          "type": "uint96"
        },
        {
          "internalType": "bool",
          "name": "_hiddenVotes",
          "type": "bool"
        },
        {
          "internalType": "uint256",
          "name": "_minStake",
          "type": "uint256"
        },
        {
          "internalType": "uint256",
          "name": "_alpha",
          "type": "uint256"
        },
        {
          "internalType": "uint256",
          "name": "_feeForJuror",
          "type": "uint256"
        },
        {
          "internalType": "uint256",
          "name": "_jurorsForCourtJump",
          "type": "uint256"
        },
        {
          "internalType": "uint256[4]",
          "name": "_timesPerPeriod",
          "type": "uint256[4]"
        }
      ],
      "name": "changeCourtParameters",
      "outputs": [],
      "stateMutability": "nonpayable",
      "type": "function"
    },
    {
      "inputs": [
        {
          "internalType": "contract IERC20",
          "name": "_feeToken",
          "type": "address"
        },
        {
          "internalType": "uint64",
          "name": "_rateInEth",
          "type": "uint64"
        },
        {
          "internalType": "uint8",
          "name": "_rateDecimals",
          "type": "uint8"
        }
      ],
      "name": "changeCurrencyRates",
      "outputs": [],
      "stateMutability": "nonpayable",
      "type": "function"
    },
    {
      "inputs": [
        {
          "internalType": "address payable",
          "name": "_governor",
          "type": "address"
        }
      ],
      "name": "changeGovernor",
      "outputs": [],
      "stateMutability": "nonpayable",
      "type": "function"
    },
    {
      "inputs": [
        {
          "internalType": "address",
          "name": "_guardian",
          "type": "address"
        }
      ],
      "name": "changeGuardian",
      "outputs": [],
      "stateMutability": "nonpayable",
      "type": "function"
    },
    {
      "inputs": [
        {
          "internalType": "address",
          "name": "_jurorProsecutionModule",
          "type": "address"
        }
      ],
      "name": "changeJurorProsecutionModule",
      "outputs": [],
      "stateMutability": "nonpayable",
      "type": "function"
    },
    {
      "inputs": [
        {
          "internalType": "contract IERC20",
          "name": "_pinakion",
          "type": "address"
        }
      ],
      "name": "changePinakion",
      "outputs": [],
      "stateMutability": "nonpayable",
      "type": "function"
    },
    {
      "inputs": [
        {
          "internalType": "contract ISortitionModule",
          "name": "_sortitionModule",
          "type": "address"
        }
      ],
      "name": "changeSortitionModule",
      "outputs": [],
      "stateMutability": "nonpayable",
      "type": "function"
    },
    {
      "inputs": [
        {
          "internalType": "contract IERC20",
          "name": "_toToken",
          "type": "address"
        },
        {
          "internalType": "uint256",
          "name": "_amountInEth",
          "type": "uint256"
        }
      ],
      "name": "convertEthToTokenAmount",
      "outputs": [
        {
          "internalType": "uint256",
          "name": "",
          "type": "uint256"
        }
      ],
      "stateMutability": "view",
      "type": "function"
    },
    {
      "inputs": [
        {
          "internalType": "uint256",
          "name": "",
          "type": "uint256"
        }
      ],
      "name": "courts",
      "outputs": [
        {
          "internalType": "uint96",
          "name": "parent",
          "type": "uint96"
        },
        {
          "internalType": "bool",
          "name": "hiddenVotes",
          "type": "bool"
        },
        {
          "internalType": "uint256",
          "name": "minStake",
          "type": "uint256"
        },
        {
          "internalType": "uint256",
          "name": "alpha",
          "type": "uint256"
        },
        {
          "internalType": "uint256",
          "name": "feeForJuror",
          "type": "uint256"
        },
        {
          "internalType": "uint256",
          "name": "jurorsForCourtJump",
          "type": "uint256"
        },
        {
          "internalType": "bool",
          "name": "disabled",
          "type": "bool"
        }
      ],
      "stateMutability": "view",
      "type": "function"
    },
    {
      "inputs": [
        {
          "internalType": "uint96",
          "name": "_parent",
          "type": "uint96"
        },
        {
          "internalType": "bool",
          "name": "_hiddenVotes",
          "type": "bool"
        },
        {
          "internalType": "uint256",
          "name": "_minStake",
          "type": "uint256"
        },
        {
          "internalType": "uint256",
          "name": "_alpha",
          "type": "uint256"
        },
        {
          "internalType": "uint256",
          "name": "_feeForJuror",
          "type": "uint256"
        },
        {
          "internalType": "uint256",
          "name": "_jurorsForCourtJump",
          "type": "uint256"
        },
        {
          "internalType": "uint256[4]",
          "name": "_timesPerPeriod",
          "type": "uint256[4]"
        },
        {
          "internalType": "bytes",
          "name": "_sortitionExtraData",
          "type": "bytes"
        },
        {
          "internalType": "uint256[]",
          "name": "_supportedDisputeKits",
          "type": "uint256[]"
        }
      ],
      "name": "createCourt",
      "outputs": [],
      "stateMutability": "nonpayable",
      "type": "function"
    },
    {
      "inputs": [
        {
          "internalType": "uint256",
          "name": "_numberOfChoices",
          "type": "uint256"
        },
        {
          "internalType": "bytes",
          "name": "_extraData",
          "type": "bytes"
        }
      ],
      "name": "createDispute",
      "outputs": [
        {
          "internalType": "uint256",
          "name": "disputeID",
          "type": "uint256"
        }
      ],
      "stateMutability": "payable",
      "type": "function"
    },
    {
      "inputs": [
        {
          "internalType": "uint256",
          "name": "_numberOfChoices",
          "type": "uint256"
        },
        {
          "internalType": "bytes",
          "name": "_extraData",
          "type": "bytes"
        },
        {
          "internalType": "contract IERC20",
          "name": "_feeToken",
          "type": "address"
        },
        {
          "internalType": "uint256",
          "name": "_feeAmount",
          "type": "uint256"
        }
      ],
      "name": "createDispute",
      "outputs": [
        {
          "internalType": "uint256",
          "name": "disputeID",
          "type": "uint256"
        }
      ],
      "stateMutability": "nonpayable",
      "type": "function"
    },
    {
      "inputs": [
        {
          "internalType": "contract IERC20",
          "name": "",
          "type": "address"
        }
      ],
      "name": "currencyRates",
      "outputs": [
        {
          "internalType": "bool",
          "name": "feePaymentAccepted",
          "type": "bool"
        },
        {
          "internalType": "uint64",
          "name": "rateInEth",
          "type": "uint64"
        },
        {
          "internalType": "uint8",
          "name": "rateDecimals",
          "type": "uint8"
        }
      ],
      "stateMutability": "view",
      "type": "function"
    },
    {
      "inputs": [
        {
          "internalType": "uint256",
          "name": "_disputeID",
          "type": "uint256"
        }
      ],
      "name": "currentRuling",
      "outputs": [
        {
          "internalType": "uint256",
          "name": "ruling",
          "type": "uint256"
        },
        {
          "internalType": "bool",
          "name": "tied",
          "type": "bool"
        },
        {
          "internalType": "bool",
          "name": "overridden",
          "type": "bool"
        }
      ],
      "stateMutability": "view",
      "type": "function"
    },
    {
      "inputs": [
        {
          "internalType": "uint256",
          "name": "",
          "type": "uint256"
        }
      ],
      "name": "disputeKits",
      "outputs": [
        {
          "internalType": "contract IDisputeKit",
          "name": "",
          "type": "address"
        }
      ],
      "stateMutability": "view",
      "type": "function"
    },
    {
      "inputs": [
        {
          "internalType": "uint256",
          "name": "",
          "type": "uint256"
        }
      ],
      "name": "disputes",
      "outputs": [
        {
          "internalType": "uint96",
          "name": "courtID",
          "type": "uint96"
        },
        {
          "internalType": "contract IArbitrableV2",
          "name": "arbitrated",
          "type": "address"
        },
        {
          "internalType": "enum KlerosCoreBase.Period",
          "name": "period",
          "type": "uint8"
        },
        {
          "internalType": "bool",
          "name": "ruled",
          "type": "bool"
        },
        {
          "internalType": "uint256",
          "name": "lastPeriodChange",
          "type": "uint256"
        }
      ],
      "stateMutability": "view",
      "type": "function"
    },
    {
      "inputs": [
        {
          "internalType": "uint256",
          "name": "_disputeID",
          "type": "uint256"
        },
        {
          "internalType": "uint256",
          "name": "_iterations",
          "type": "uint256"
        }
      ],
      "name": "draw",
      "outputs": [
        {
          "internalType": "uint256",
          "name": "nbDrawnJurors",
          "type": "uint256"
        }
      ],
      "stateMutability": "nonpayable",
      "type": "function"
    },
    {
      "inputs": [
        {
          "internalType": "uint96",
          "name": "_courtID",
          "type": "uint96"
        },
        {
          "internalType": "uint256[]",
          "name": "_disputeKitIDs",
          "type": "uint256[]"
        },
        {
          "internalType": "bool",
          "name": "_enable",
          "type": "bool"
        }
      ],
      "name": "enableDisputeKits",
      "outputs": [],
      "stateMutability": "nonpayable",
      "type": "function"
    },
    {
      "inputs": [
        {
          "internalType": "uint256",
          "name": "_disputeID",
          "type": "uint256"
        },
        {
          "internalType": "uint256",
          "name": "_round",
          "type": "uint256"
        },
        {
          "internalType": "uint256",
          "name": "_iterations",
          "type": "uint256"
        }
      ],
      "name": "execute",
      "outputs": [],
      "stateMutability": "nonpayable",
      "type": "function"
    },
    {
      "inputs": [
        {
          "internalType": "address",
          "name": "_destination",
          "type": "address"
        },
        {
          "internalType": "uint256",
          "name": "_amount",
          "type": "uint256"
        },
        {
          "internalType": "bytes",
          "name": "_data",
          "type": "bytes"
        }
      ],
      "name": "executeGovernorProposal",
      "outputs": [],
      "stateMutability": "nonpayable",
      "type": "function"
    },
    {
      "inputs": [
        {
          "internalType": "uint256",
          "name": "_disputeID",
          "type": "uint256"
        }
      ],
      "name": "executeRuling",
      "outputs": [],
      "stateMutability": "nonpayable",
      "type": "function"
    },
    {
      "inputs": [],
      "name": "getDisputeKitsLength",
      "outputs": [
        {
          "internalType": "uint256",
          "name": "",
          "type": "uint256"
        }
      ],
      "stateMutability": "view",
      "type": "function"
    },
    {
      "inputs": [
        {
          "internalType": "uint256",
          "name": "_disputeID",
          "type": "uint256"
        }
      ],
      "name": "getNumberOfRounds",
      "outputs": [
        {
          "internalType": "uint256",
          "name": "",
          "type": "uint256"
        }
      ],
      "stateMutability": "view",
      "type": "function"
    },
    {
      "inputs": [
        {
          "internalType": "uint256",
          "name": "_disputeID",
          "type": "uint256"
        }
      ],
      "name": "getNumberOfVotes",
      "outputs": [
        {
          "internalType": "uint256",
          "name": "",
          "type": "uint256"
        }
      ],
      "stateMutability": "view",
      "type": "function"
    },
    {
      "inputs": [
        {
          "internalType": "uint256",
          "name": "_disputeID",
          "type": "uint256"
        },
        {
          "internalType": "uint256",
          "name": "_round",
          "type": "uint256"
        }
      ],
      "name": "getPnkAtStakePerJuror",
      "outputs": [
        {
          "internalType": "uint256",
          "name": "",
          "type": "uint256"
        }
      ],
      "stateMutability": "view",
      "type": "function"
    },
    {
      "inputs": [
        {
          "internalType": "uint256",
          "name": "_disputeID",
          "type": "uint256"
        },
        {
          "internalType": "uint256",
          "name": "_round",
          "type": "uint256"
        }
      ],
      "name": "getRoundInfo",
      "outputs": [
        {
          "components": [
            {
              "internalType": "uint256",
              "name": "disputeKitID",
              "type": "uint256"
            },
            {
              "internalType": "uint256",
              "name": "pnkAtStakePerJuror",
              "type": "uint256"
            },
            {
              "internalType": "uint256",
              "name": "totalFeesForJurors",
              "type": "uint256"
            },
            {
              "internalType": "uint256",
              "name": "nbVotes",
              "type": "uint256"
            },
            {
              "internalType": "uint256",
              "name": "repartitions",
              "type": "uint256"
            },
            {
              "internalType": "uint256",
              "name": "pnkPenalties",
              "type": "uint256"
            },
            {
              "internalType": "address[]",
              "name": "drawnJurors",
              "type": "address[]"
            },
            {
              "internalType": "uint256",
              "name": "sumFeeRewardPaid",
              "type": "uint256"
            },
            {
              "internalType": "uint256",
              "name": "sumPnkRewardPaid",
              "type": "uint256"
            },
            {
              "internalType": "contract IERC20",
              "name": "feeToken",
              "type": "address"
            },
            {
              "internalType": "uint256",
              "name": "drawIterations",
              "type": "uint256"
            }
          ],
          "internalType": "struct KlerosCoreBase.Round",
          "name": "",
          "type": "tuple"
        }
      ],
      "stateMutability": "view",
      "type": "function"
    },
    {
      "inputs": [
        {
          "internalType": "uint96",
          "name": "_courtID",
          "type": "uint96"
        }
      ],
      "name": "getTimesPerPeriod",
      "outputs": [
        {
          "internalType": "uint256[4]",
          "name": "timesPerPeriod",
          "type": "uint256[4]"
        }
      ],
      "stateMutability": "view",
      "type": "function"
    },
    {
      "inputs": [],
      "name": "governor",
      "outputs": [
        {
          "internalType": "address",
          "name": "",
          "type": "address"
        }
      ],
      "stateMutability": "view",
      "type": "function"
    },
    {
      "inputs": [],
      "name": "guardian",
      "outputs": [
        {
          "internalType": "address",
          "name": "",
          "type": "address"
        }
      ],
      "stateMutability": "view",
      "type": "function"
    },
    {
      "inputs": [
        {
          "internalType": "address",
          "name": "_governor",
          "type": "address"
        },
        {
          "internalType": "address",
          "name": "_guardian",
          "type": "address"
        },
        {
          "internalType": "contract IERC20",
          "name": "_pinakion",
          "type": "address"
        },
        {
          "internalType": "address",
          "name": "_jurorProsecutionModule",
          "type": "address"
        },
        {
          "internalType": "contract IDisputeKit",
          "name": "_disputeKit",
          "type": "address"
        },
        {
          "internalType": "bool",
          "name": "_hiddenVotes",
          "type": "bool"
        },
        {
          "internalType": "uint256[4]",
          "name": "_courtParameters",
          "type": "uint256[4]"
        },
        {
          "internalType": "uint256[4]",
          "name": "_timesPerPeriod",
          "type": "uint256[4]"
        },
        {
          "internalType": "bytes",
          "name": "_sortitionExtraData",
          "type": "bytes"
        },
        {
          "internalType": "contract ISortitionModule",
          "name": "_sortitionModuleAddress",
          "type": "address"
        },
        {
          "internalType": "address",
          "name": "_wNative",
          "type": "address"
        }
      ],
      "name": "initialize",
      "outputs": [],
      "stateMutability": "nonpayable",
      "type": "function"
    },
    {
      "inputs": [
        {
          "internalType": "uint256",
          "name": "_disputeID",
          "type": "uint256"
        }
      ],
      "name": "isDisputeKitJumping",
      "outputs": [
        {
          "internalType": "bool",
          "name": "",
          "type": "bool"
        }
      ],
      "stateMutability": "view",
      "type": "function"
    },
    {
      "inputs": [
        {
          "internalType": "uint96",
          "name": "_courtID",
          "type": "uint96"
        },
        {
          "internalType": "uint256",
          "name": "_disputeKitID",
          "type": "uint256"
        }
      ],
      "name": "isSupported",
      "outputs": [
        {
          "internalType": "bool",
          "name": "",
          "type": "bool"
        }
      ],
      "stateMutability": "view",
      "type": "function"
    },
    {
      "inputs": [],
      "name": "jurorProsecutionModule",
      "outputs": [
        {
          "internalType": "address",
          "name": "",
          "type": "address"
        }
      ],
      "stateMutability": "view",
      "type": "function"
    },
    {
      "inputs": [
        {
          "internalType": "uint256",
          "name": "_disputeID",
          "type": "uint256"
        }
      ],
      "name": "passPeriod",
      "outputs": [],
      "stateMutability": "nonpayable",
      "type": "function"
    },
    {
      "inputs": [],
      "name": "pause",
      "outputs": [],
      "stateMutability": "nonpayable",
      "type": "function"
    },
    {
      "inputs": [],
      "name": "paused",
      "outputs": [
        {
          "internalType": "bool",
          "name": "",
          "type": "bool"
        }
      ],
      "stateMutability": "view",
      "type": "function"
    },
    {
      "inputs": [],
      "name": "pinakion",
      "outputs": [
        {
          "internalType": "contract IERC20",
          "name": "",
          "type": "address"
        }
      ],
      "stateMutability": "view",
      "type": "function"
    },
    {
      "inputs": [],
      "name": "proxiableUUID",
      "outputs": [
        {
          "internalType": "bytes32",
          "name": "",
          "type": "bytes32"
        }
      ],
      "stateMutability": "view",
      "type": "function"
    },
    {
      "inputs": [
        {
          "internalType": "address",
          "name": "_wNative",
          "type": "address"
        }
      ],
      "name": "reinitialize",
      "outputs": [],
      "stateMutability": "nonpayable",
      "type": "function"
    },
    {
      "inputs": [
        {
          "internalType": "uint96",
          "name": "_courtID",
          "type": "uint96"
        },
        {
          "internalType": "uint256",
          "name": "_newStake",
          "type": "uint256"
        }
      ],
      "name": "setStake",
      "outputs": [],
      "stateMutability": "nonpayable",
      "type": "function"
    },
    {
      "inputs": [
        {
          "internalType": "address",
          "name": "_account",
          "type": "address"
        },
        {
          "internalType": "uint96",
          "name": "_courtID",
          "type": "uint96"
        },
        {
          "internalType": "uint256",
          "name": "_newStake",
          "type": "uint256"
        }
      ],
      "name": "setStakeBySortitionModule",
      "outputs": [],
      "stateMutability": "nonpayable",
      "type": "function"
    },
    {
      "inputs": [],
      "name": "sortitionModule",
      "outputs": [
        {
          "internalType": "contract ISortitionModule",
          "name": "",
          "type": "address"
        }
      ],
      "stateMutability": "view",
      "type": "function"
    },
    {
      "inputs": [
        {
          "internalType": "address",
          "name": "_account",
          "type": "address"
        },
        {
          "internalType": "uint256",
          "name": "_amount",
          "type": "uint256"
        }
      ],
      "name": "transferBySortitionModule",
      "outputs": [],
      "stateMutability": "nonpayable",
      "type": "function"
    },
    {
      "inputs": [],
      "name": "unpause",
      "outputs": [],
      "stateMutability": "nonpayable",
      "type": "function"
    },
    {
      "inputs": [
        {
          "internalType": "address",
          "name": "newImplementation",
          "type": "address"
        },
        {
          "internalType": "bytes",
          "name": "data",
          "type": "bytes"
        }
      ],
      "name": "upgradeToAndCall",
      "outputs": [],
      "stateMutability": "payable",
      "type": "function"
    },
    {
      "inputs": [],
      "name": "version",
      "outputs": [
        {
          "internalType": "string",
          "name": "",
          "type": "string"
        }
      ],
      "stateMutability": "view",
      "type": "function"
    },
    {
      "inputs": [],
      "name": "wNative",
      "outputs": [
        {
          "internalType": "address",
          "name": "",
          "type": "address"
        }
      ],
      "stateMutability": "view",
      "type": "function"
    }
  ],
  "transactionHash": "0x4422bc58d141846815e8b919c002f5e4bd7ee5ebb75eb7f228624def4acb97f4",
  "args": [],
  "numDeployments": 2,
  "solcInputHash": "726fe29d8d9c48c46571792cebc6e314",
  "bytecode": "0x60a06040523060805234801561001457600080fd5b5061001d610022565b6100d3565b7ff0c57e16840df040f15088dc2f81fe391c3923bec73e23a9662efc9c229c6a0e805468010000000000000000900460ff16156100715760405162dc149f60e41b815260040160405180910390fd5b80546001600160401b03908116146100d05780546001600160401b0319166001600160401b0390811782556040519081527fc7f505b2f371ae2175ee4913f4499e1f2633a7b5936321eed1cdaeb6115181d29060200160405180910390a15b50565b608051615d166100fc600039600081816119be015281816119e70152611bdc0152615d166000f3fe6080604052600436106102d45760003560e01c80637934c0be1161017b578063c3569902116100d7578063e4c0aaf411610085578063e4c0aaf4146109a7578063f6506db4146109c7578063f7434ea9146109e7578063f7e7d1fd14610a07578063fbf405b014610a27578063fc6f8f1614610a47578063fe524c3914610a6757600080fd5b8063c3569902146108df578063c71f4253146108f2578063cf0c38f814610912578063d07368bd14610932578063d2b8035a14610952578063d4d1d76a14610972578063d98493f61461098757600080fd5b80638bb04875116101345780638bb04875146107f7578063a072b86c14610817578063acdbf51d14610837578063afe15cfb14610857578063b00496371461088c578063c13517e1146108ac578063c258bb19146108bf57600080fd5b80637934c0be1461073557806382d02237146107555780638456cb591461077557806386541b241461078a57806386cdecef146107aa5780638a9bb02a146107ca57600080fd5b80632e1daf2f1161023557806352d1902d116101e357806352d1902d1461063657806354fd4d501461064b578063564a565d1461068a57806359ec827e146106bb5780635c975abb146106db578063751accd0146106f55780637717a6e81461071557600080fd5b80632e1daf2f146105615780632fcb4f04146105815780633cfd1184146105a15780633f4ba83a146105ce57806342c37fa3146105e3578063452a9320146106035780634f1ef2861461062357600080fd5b80631860592b116102925780631860592b1461040057806319b815291461042e5780631c3db16d1461045e5780631f5a0dd21461049b5780632c053739146104fc5780632d29a47b1461051c5780632d68efc91461053c57600080fd5b8062f5822c146102d95780630219da79146102fb5780630761c14d146103735780630b7414bc146103935780630c340a24146103b3578063115d5376146103e0575b600080fd5b3480156102e557600080fd5b506102f96102f4366004614e43565b610a87565b005b34801561030757600080fd5b50610346610316366004614e43565b60086020526000908152604090205460ff808216916001600160401b0361010082041691600160481b9091041683565b6040805193151584526001600160401b03909216602084015260ff16908201526060015b60405180910390f35b34801561037f57600080fd5b506102f961038e366004614e7e565b610ad4565b34801561039f57600080fd5b506102f96103ae366004614f94565b610b12565b3480156103bf57600080fd5b506000546103d3906001600160a01b031681565b60405161036a9190614ff5565b3480156103ec57600080fd5b506102f96103fb366004615009565b610c43565b34801561040c57600080fd5b5061042061041b366004615022565b611210565b60405190815260200161036a565b34801561043a57600080fd5b5061044e610449366004615009565b61126a565b604051901515815260200161036a565b34801561046a57600080fd5b5061047e610479366004615009565b611363565b60408051938452911515602084015215159082015260600161036a565b3480156104a757600080fd5b506104bb6104b6366004615009565b611464565b604080516001600160601b0390981688529515156020880152948601939093526060850191909152608084015260a0830152151560c082015260e00161036a565b34801561050857600080fd5b506102f961051736600461512a565b6114c3565b34801561052857600080fd5b506102f9610537366004615217565b61159d565b34801561054857600080fd5b506009546103d39061010090046001600160a01b031681565b34801561056d57600080fd5b506004546103d3906001600160a01b031681565b34801561058d57600080fd5b506102f961059c366004614e43565b611829565b3480156105ad57600080fd5b506105c16105bc366004615243565b611876565b60405161036a9190615281565b3480156105da57600080fd5b506102f96118e0565b3480156105ef57600080fd5b506102f96105fe366004615022565b611963565b34801561060f57600080fd5b506001546103d3906001600160a01b031681565b6102f961063136600461528f565b6119aa565b34801561064257600080fd5b50610420611bcf565b34801561065757600080fd5b5061067d604051806040016040528060068152602001650302e31302e360d41b81525081565b60405161036a919061532e565b34801561069657600080fd5b506106aa6106a5366004615009565b611c2d565b60405161036a959493929190615379565b3480156106c757600080fd5b506104206106d6366004615009565b611c89565b3480156106e757600080fd5b5060095461044e9060ff1681565b34801561070157600080fd5b506102f96107103660046153b8565b611dde565b34801561072157600080fd5b506102f9610730366004615410565b611e88565b34801561074157600080fd5b506102f961075036600461542c565b611eb9565b34801561076157600080fd5b506102f9610770366004615465565b611f38565b34801561078157600080fd5b506102f9611ff5565b34801561079657600080fd5b506102f96107a53660046154b7565b612095565b3480156107b657600080fd5b506104206107c5366004615525565b612272565b3480156107d657600080fd5b506107ea6107e5366004615525565b6122c3565b60405161036a919061558c565b34801561080357600080fd5b506102f9610812366004615009565b61244f565b34801561082357600080fd5b506102f9610832366004615632565b6125b4565b34801561084357600080fd5b506103d3610852366004615009565b6128ec565b34801561086357600080fd5b50610877610872366004615009565b612916565b6040805192835260208301919091520161036a565b34801561089857600080fd5b506102f96108a7366004614e43565b6129c2565b6104206108ba3660046156f6565b612a0f565b3480156108cb57600080fd5b506102f96108da366004614e43565b612a47565b6102f96108ed366004615726565b612a94565b3480156108fe57600080fd5b5061042061090d366004615009565b612f59565b34801561091e57600080fd5b506003546103d3906001600160a01b031681565b34801561093e57600080fd5b506102f961094d366004614e43565b612fc1565b34801561095e57600080fd5b5061042061096d366004615525565b61306a565b34801561097e57600080fd5b50600654610420565b34801561099357600080fd5b506104206109a23660046157a7565b613389565b3480156109b357600080fd5b506102f96109c2366004614e43565b6133d6565b3480156109d357600080fd5b506104206109e23660046157f2565b613423565b3480156109f357600080fd5b50610420610a02366004615858565b613507565b348015610a1357600080fd5b506102f9610a22366004614e43565b613553565b348015610a3357600080fd5b506002546103d3906001600160a01b031681565b348015610a5357600080fd5b50610420610a62366004615009565b61362a565b348015610a7357600080fd5b5061044e610a82366004615410565b613659565b6000546001600160a01b03163314610ab25760405163c383977560e01b815260040160405180910390fd5b600280546001600160a01b0319166001600160a01b0392909216919091179055565b6004546001600160a01b03163314610aff57604051639d6cab9960e01b815260040160405180910390fd5b610b0c83838360016136a1565b50505050565b6000546001600160a01b03163314610b3d5760405163c383977560e01b815260040160405180910390fd5b60005b8251811015610b0c578115610bdc57828181518110610b6157610b6161588c565b602002602001015160001480610b9457506006548351849083908110610b8957610b8961588c565b602002602001015110155b15610bb257604051633d58a98960e11b815260040160405180910390fd5b610bd784848381518110610bc857610bc861588c565b6020026020010151600161391d565b610c3b565b6001838281518110610bf057610bf061588c565b602002602001015103610c16576040516356d111fd60e11b815260040160405180910390fd5b610c3b84848381518110610c2c57610c2c61588c565b6020026020010151600061391d565b600101610b40565b600060078281548110610c5857610c5861588c565b600091825260208220600490910201805460058054929450916001600160601b03909116908110610c8b57610c8b61588c565b6000918252602082206003850154600c909202019250610cad906001906158b8565b90506000836003018281548110610cc657610cc661588c565b600091825260208220600b909102019150600185015460ff166004811115610cf057610cf0615341565b03610dcb5781158015610d3f57506001840154600684019060ff166004811115610d1c57610d1c615341565b60048110610d2c57610d2c61588c565b01546002850154610d3d90426158b8565b105b15610d5d57604051633e9727df60e01b815260040160405180910390fd5b6003810154600682015414610d85576040516309e4486b60e41b815260040160405180910390fd5b8254600160601b900460ff16610d9c576002610d9f565b60015b60018086018054909160ff1990911690836004811115610dc157610dc1615341565b02179055506111c2565b60018085015460ff166004811115610de557610de5615341565b03610ef5576001840154600684019060ff166004811115610e0857610e08615341565b60048110610e1857610e1861588c565b01546002850154610e2990426158b8565b108015610ec057506006816000015481548110610e4857610e4861588c565b600091825260209091200154604051630baa64d160e01b8152600481018790526001600160a01b0390911690630baa64d190602401602060405180830381865afa158015610e9a573d6000803e3d6000fd5b505050506040513d601f19601f82011682018060405250810190610ebe91906158cb565b155b15610ede57604051634dfa578560e11b815260040160405180910390fd5b6001808501805460029260ff199091169083610dc1565b6002600185015460ff166004811115610f1057610f10615341565b0361105e576001840154600684019060ff166004811115610f3357610f33615341565b60048110610f4357610f4361588c565b01546002850154610f5490426158b8565b108015610feb57506006816000015481548110610f7357610f7361588c565b6000918252602090912001546040516336a66c7560e11b8152600481018790526001600160a01b0390911690636d4cd8ea90602401602060405180830381865afa158015610fc5573d6000803e3d6000fd5b505050506040513d601f19601f82011682018060405250810190610fe991906158cb565b155b1561100957604051631988dead60e31b815260040160405180910390fd5b600184018054600360ff199091161790558354604051600160601b9091046001600160a01b03169086907fa5d41b970d849372be1da1481ffd78d162bfe57a7aa2fe4e5fb73481fa5ac24f90600090a36111c2565b6003600185015460ff16600481111561107957611079615341565b03611189576001840154600684019060ff16600481111561109c5761109c615341565b600481106110ac576110ac61588c565b015460028501546110bd90426158b8565b108015611154575060068160000154815481106110dc576110dc61588c565b600091825260209091200154604051630855bbe960e01b8152600481018790526001600160a01b0390911690630855bbe990602401602060405180830381865afa15801561112e573d6000803e3d6000fd5b505050506040513d601f19601f8201168201806040525081019061115291906158cb565b155b1561117257604051632f4dfd8760e01b815260040160405180910390fd5b6001808501805460049260ff199091169083610dc1565b6004600185015460ff1660048111156111a4576111a4615341565b036111c2576040516307f38c8f60e11b815260040160405180910390fd5b426002850155600184015460405186917f4e6f5cf43b95303e86aee81683df63992061723a829ee012db21dad388756b91916112019160ff16906158e8565b60405180910390a25050505050565b6001600160a01b03821660009081526008602052604081205461010081046001600160401b03169061124d90600160481b900460ff16600a6159dd565b61125790846159ec565b6112619190615a19565b90505b92915050565b600080600783815481106112805761128061588c565b60009182526020822060036004909202019081018054919350906112a6906001906158b8565b815481106112b6576112b661588c565b600091825260208220845460058054600b909402909201945090916001600160601b039091169081106112eb576112eb61588c565b90600052602060002090600c0201905080600501548260030154101561131657506000949350505050565b80546005805490916001600160601b03169081106113365761133661588c565b6000918252602080832094548352600a600c9092029094010190925250604090205460ff16159392505050565b6000806000806007858154811061137c5761137c61588c565b60009182526020822060036004909202019081018054919350906113a2906001906158b8565b815481106113b2576113b261588c565b90600052602060002090600b02019050600060068260000154815481106113db576113db61588c565b600091825260209091200154604051631c3db16d60e01b8152600481018990526001600160a01b0390911691508190631c3db16d90602401606060405180830381865afa158015611430573d6000803e3d6000fd5b505050506040513d601f19601f820116820180604052508101906114549190615a2d565b9199909850909650945050505050565b6005818154811061147457600080fd5b60009182526020909120600c9091020180546002820154600383015460048401546005850154600b909501546001600160601b038516965060ff600160601b9095048516959394929391921687565b600160006114cf6139a5565b8054909150600160401b900460ff16806114f6575080546001600160401b03808416911610155b156115135760405162dc149f60e41b815260040160405180910390fd5b805468ffffffffffffffffff19166001600160401b03831617600160401b1781556115478d8d8d8d8d8d8d8d8d8d8d6139c9565b805460ff60401b191681556040516001600160401b03831681527fc7f505b2f371ae2175ee4913f4499e1f2633a7b5936321eed1cdaeb6115181d29060200160405180910390a150505050505050505050505050565b60095460ff16156115c157604051636f1dac1d60e01b815260040160405180910390fd5b600080600785815481106115d7576115d761588c565b600091825260209091206004918202019150600182015460ff16600481111561160257611602615341565b1461162057604051638794ce4b60e01b815260040160405180910390fd5b8060030184815481106116355761163561588c565b6000918252602082206004600b909202019081015490935091506116598483615a66565b600584015460068501546002860154929350909160009061167b908390615a19565b905060008660010154905060008060068960000154815481106116a0576116a061588c565b60009182526020909120015460405163368efae360e21b8152600481018e9052602481018d90526001600160a01b039091169150819063da3beb8c90604401602060405180830381865afa1580156116fc573d6000803e3d6000fd5b505050506040513d601f19601f820116820180604052508101906117209190615a79565b9150508060000361173c5783861115611737578395505b61175c565b6117478460026159ec565b86111561175c576117598460026159ec565b95505b60048801869055865b8681101561180857848110156117be576117b76040518061010001604052808e81526020018d815260200184815260200187815260200186815260200185815260200188815260200183815250613d0c565b9550611800565b6118006040518061010001604052808e81526020018d8152602001848152602001878152602001868152602001858152602001888152602001838152506141ba565b600101611765565b508488600501541461181c57600588018590555b5050505050505050505050565b6000546001600160a01b031633146118545760405163c383977560e01b815260040160405180910390fd5b600180546001600160a01b0319166001600160a01b0392909216919091179055565b61187e614d73565b6005826001600160601b03168154811061189a5761189a61588c565b6000918252602090912060408051608081019182905292600c029091016006019060049082845b8154815260200190600101908083116118c15750505050509050919050565b6000546001600160a01b0316331461190b5760405163c383977560e01b815260040160405180910390fd5b60095460ff1661192e5760405163b4143dc760e01b815260040160405180910390fd5b6009805460ff191690556040517fa45f47fdea8a1efdd9029a5691c7f759c32b7c698632b563573e155625d1693390600090a1565b6004546001600160a01b0316331461198e57604051639d6cab9960e01b815260040160405180910390fd5b6002546119a5906001600160a01b031683836145b7565b505050565b6119b38261467a565b306001600160a01b037f0000000000000000000000000000000000000000000000000000000000000000161480611a3157507f00000000000000000000000000000000000000000000000000000000000000006001600160a01b0316611a25600080516020615cc18339815191525490565b6001600160a01b031614155b15611a4f5760405163703e46dd60e11b815260040160405180910390fd5b816001600160a01b03166352d1902d6040518163ffffffff1660e01b8152600401602060405180830381865afa925050508015611aa9575060408051601f3d908101601f19168201909252611aa691810190615a79565b60015b611ad15781604051630c76093760e01b8152600401611ac89190614ff5565b60405180910390fd5b600080516020615cc18339815191528114611b0257604051632a87526960e21b815260048101829052602401611ac8565b600080516020615cc18339815191528390556040516001600160a01b038416907fbc7cd75a20ee27fd9adebab32041f755214dbc6bffa90cc0225b39da2e5c2d3b90600090a28151156119a5576000836001600160a01b031683604051611b699190615a92565b600060405180830381855af49150503d8060008114611ba4576040519150601f19603f3d011682016040523d82523d6000602084013e611ba9565b606091505b5050905080610b0c576040516339b21b5d60e11b815260040160405180910390fd5b5050565b6000306001600160a01b037f00000000000000000000000000000000000000000000000000000000000000001614611c1a5760405163703e46dd60e11b815260040160405180910390fd5b50600080516020615cc183398151915290565b60078181548110611c3d57600080fd5b60009182526020909120600490910201805460018201546002909201546001600160601b0382169350600160601b9091046001600160a01b03169160ff80821692610100909204169085565b60008060078381548110611c9f57611c9f61588c565b6000918252602082206003600490920201908101805491935090611cc5906001906158b8565b81548110611cd557611cd561588c565b600091825260208220845460058054600b909402909201945090916001600160601b03909116908110611d0a57611d0a61588c565b90600052602060002090600c020190508060050154826003015410611da95782546001600160601b031660001901611d4b576001600160ff1b039350611dd6565b6003820154611d5b9060026159ec565b611d66906001615a66565b81546005805490916001600160601b0316908110611d8657611d8661588c565b90600052602060002090600c020160040154611da291906159ec565b9350611dd6565b6003820154611db99060026159ec565b611dc4906001615a66565b8160040154611dd391906159ec565b93505b505050919050565b6000546001600160a01b03163314611e095760405163c383977560e01b815260040160405180910390fd5b6000836001600160a01b03168383604051611e249190615a92565b60006040518083038185875af1925050503d8060008114611e61576040519150601f19603f3d011682016040523d82523d6000602084013e611e66565b606091505b5050905080610b0c576040516322092f2f60e11b815260040160405180910390fd5b60095460ff1615611eac57604051636f1dac1d60e01b815260040160405180910390fd5b6119a533838360006136a1565b6000546001600160a01b03163314611ee45760405163c383977560e01b815260040160405180910390fd5b6001600160a01b038216600081815260086020526040808220805460ff191685151590811790915590519092917f541615e167511d757a7067a700eb54431b256bb458dfdce0ac58bf2ed0aefd4491a35050565b6000546001600160a01b03163314611f635760405163c383977560e01b815260040160405180910390fd5b6001600160a01b038316600081815260086020908152604091829020805469ffffffffffffffffff0019166101006001600160401b03881690810260ff60481b191691909117600160481b60ff8816908102919091179092558351908152918201527fe6996b7f03e9bd02228b99d3d946932e3197f505f60542c4cfbc919441d8a4e6910160405180910390a2505050565b6001546001600160a01b0316331480159061201b57506000546001600160a01b03163314155b1561203957604051636b29334f60e01b815260040160405180910390fd5b60095460ff161561205d57604051636f1dac1d60e01b815260040160405180910390fd5b6009805460ff191660011790556040517f9e87fac88ff661f02d44f95383c817fece4bce600a3dab7a54406878b965e75290600090a1565b6000546001600160a01b031633146120c05760405163c383977560e01b815260040160405180910390fd5b60006005886001600160601b0316815481106120de576120de61588c565b90600052602060002090600c0201905060016001600160601b0316886001600160601b031614158015612140575080546005805488926001600160601b031690811061212c5761212c61588c565b90600052602060002090600c020160020154115b1561215e57604051639717078960e01b815260040160405180910390fd5b60005b60018201548110156121d9578660058360010183815481106121855761218561588c565b9060005260206000200154815481106121a0576121a061588c565b90600052602060002090600c02016002015410156121d157604051639717078960e01b815260040160405180910390fd5b600101612161565b5060028101869055805460ff60601b1916600160601b881515021781556003810185905560048082018590556005820184905561221c9060068301908490614d91565b50876001600160601b03167f709b1f5fda58af9a4f52dacd1ec404840a8148455700cce155a2bd8cf127ef1a88888888888860405161226096959493929190615aae565b60405180910390a25050505050505050565b6000600783815481106122875761228761588c565b906000526020600020906004020160030182815481106122a9576122a961588c565b90600052602060002090600b020160010154905092915050565b61232960405180610160016040528060008152602001600081526020016000815260200160008152602001600081526020016000815260200160608152602001600081526020016000815260200160006001600160a01b03168152602001600081525090565b6007838154811061233c5761233c61588c565b9060005260206000209060040201600301828154811061235e5761235e61588c565b90600052602060002090600b0201604051806101600160405290816000820154815260200160018201548152602001600282015481526020016003820154815260200160048201548152602001600582015481526020016006820180548060200260200160405190810160405280929190818152602001828054801561240d57602002820191906000526020600020905b81546001600160a01b031681526001909101906020018083116123ef575b5050509183525050600782015460208201526008820154604082015260098201546001600160a01b03166060820152600a909101546080909101529392505050565b6000600782815481106124645761246461588c565b600091825260209091206004918202019150600182015460ff16600481111561248f5761248f615341565b146124ad57604051638794ce4b60e01b815260040160405180910390fd5b6001810154610100900460ff16156124d85760405163c977f8d360e01b815260040160405180910390fd5b60006124e383611363565b505060018301805461010061ff001990911617905582546040518281529192508491600160601b9091046001600160a01b0316907f394027a5fa6e098a1191094d1719d6929b9abc535fcc0c8f448d6a4e756222769060200160405180910390a3815460405163188d362b60e11b81526004810185905260248101839052600160601b9091046001600160a01b03169063311a6c56906044015b600060405180830381600087803b15801561259757600080fd5b505af11580156125ab573d6000803e3d6000fd5b50505050505050565b6000546001600160a01b031633146125df5760405163c383977560e01b815260040160405180910390fd5b8660058a6001600160601b0316815481106125fc576125fc61588c565b90600052602060002090600c020160020154111561262d57604051639717078960e01b815260040160405180910390fd5b805160000361264f5760405163402585f560e01b815260040160405180910390fd5b6001600160601b03891661267657604051631ef4f64960e01b815260040160405180910390fd5b60058054600181018255600091825290600c82027f036b6384b5eca791c62761152d0c79bb0604c104a5fb6f4eb0703f3154bb3db001905b8351811015612738578381815181106126c9576126c961588c565b6020026020010151600014806126fc575060065484518590839081106126f1576126f161588c565b602002602001015110155b1561271a57604051633d58a98960e11b815260040160405180910390fd5b61273083858381518110610bc857610bc861588c565b6001016126ae565b5060016000908152600a8201602052604090205460ff1661276c576040516306351b3d60e31b815260040160405180910390fd5b80546001600160601b0319166001600160601b038c1617815560408051600081526020810191829052516127a4916001840191614dcf565b50805460ff60601b1916600160601b8b15150217815560028101899055600381018890556004808201889055600582018790556127e79060068301908790614d91565b50600480546040516311de995760e21b81526001600160a01b039091169163477a655c91612819918691899101615ae1565b600060405180830381600087803b15801561283357600080fd5b505af1158015612847573d6000803e3d6000fd5b5050505060058b6001600160601b0316815481106128675761286761588c565b600091825260208083206001600c909302018201805492830181558352909120018290556040516001600160601b03808d1691908416907f550ff678017abc294b4786a99a046628d5a1eac07be0f1ea7e89543f13576ee6906128d7908e908e908e908e908e908e908d90615afa565b60405180910390a35050505050505050505050565b600681815481106128fc57600080fd5b6000918252602090912001546001600160a01b0316905081565b60008060006007848154811061292e5761292e61588c565b6000918252602090912060049091020190506003600182015460ff16600481111561295b5761295b615341565b036129b3576002810154815460058054929550916001600160601b039091169081106129895761298961588c565b600091825260209091206009600c90920201015460028201546129ac9190615a66565b91506129bc565b60009250600091505b50915091565b6000546001600160a01b031633146129ed5760405163c383977560e01b815260040160405180910390fd5b600480546001600160a01b0319166001600160a01b0392909216919091179055565b6000612a1a82613507565b341015612a3a57604051630e3360f160e21b815260040160405180910390fd5b61126183836000346146a8565b6000546001600160a01b03163314612a725760405163c383977560e01b815260040160405180910390fd5b600380546001600160a01b0319166001600160a01b0392909216919091179055565b612a9d83611c89565b341015612abd57604051633191f8f160e01b815260040160405180910390fd5b600060078481548110612ad257612ad261588c565b6000918252602090912060049091020190506003600182015460ff166004811115612aff57612aff615341565b14612b1d576040516337cdefcb60e21b815260040160405180910390fd5b60038101805460009190612b33906001906158b8565b81548110612b4357612b4361588c565b90600052602060002090600b020190506006816000015481548110612b6a57612b6a61588c565b6000918252602090912001546001600160a01b03163314612b9e5760405163065f245f60e01b815260040160405180910390fd5b8154815460038401805460018101825560009182526020909120600580546001600160601b0390951694600b9093029091019184908110612be157612be161588c565b90600052602060002090600c020160050154846003015410612cea576005836001600160601b031681548110612c1957612c1961588c565b60009182526020909120600c9091020154600580546001600160601b0390921694509084908110612c4c57612c4c61588c565b60009182526020808320858452600a600c90930201919091019052604090205460ff16612c7857600191505b84546001600160601b03848116911614612cea57845460038601546001600160601b0390911690612cab906001906158b8565b6040516001600160601b03861681528a907f736e3f52761298c8c0823e1ebf482ed3c5ecb304f743d2d91a7c006e8e8d7a1f9060200160405180910390a45b84546001600160601b0319166001600160601b038416908117865560018601805460ff1916905542600287015560058054600092908110612d2d57612d2d61588c565b90600052602060002090600c02019050806004015434612d4d9190615a19565b8260030181905550612d6781600201548260030154614983565b60018084019190915534600284015583835560045460038801546001600160a01b039091169163d09f392d918c91612d9e916158b8565b6040516001600160e01b031960e085901b16815260048101929092526024820152604401600060405180830381600087803b158015612ddc57600080fd5b505af1158015612df0573d6000803e3d6000fd5b505086548454149150612ed690505784546003870154612e12906001906158b8565b83546040519081528b907fcbe7939a71f0b369c7471d760a0a99b60b7bb010ee0406cba8a46679d1ea77569060200160405180910390a46006826000015481548110612e6057612e6061588c565b60009182526020909120015460038301546040516302dbb79560e61b81526001600160a01b039092169163b6ede54091612ea3918d918d918d9190600401615b77565b600060405180830381600087803b158015612ebd57600080fd5b505af1158015612ed1573d6000803e3d6000fd5b505050505b8554604051600160601b9091046001600160a01b0316908a907f9c9b64db9e130f48381bf697abf638e73117dbfbfd7a4484f2da3ba188f4187d90600090a3887f4e6f5cf43b95303e86aee81683df63992061723a829ee012db21dad388756b916000604051612f4691906158e8565b60405180910390a2505050505050505050565b60008060078381548110612f6f57612f6f61588c565b906000526020600020906004020190508060030160018260030180549050612f9791906158b8565b81548110612fa757612fa761588c565b90600052602060002090600b020160030154915050919050565b6000546001600160a01b03163314612fec5760405163c383977560e01b815260040160405180910390fd5b6006805460018101825560009182527ff652222313e28459528d920b65115c16c04f3efc82aaedc97be59f3f377c0d3f810180546001600160a01b0319166001600160a01b0385169081179091556040519192909183917f44063d258760b98116d53815adbc906a56b3563e540148cc0fc2457f83b5eeb291a35050565b600080600784815481106130805761308061588c565b906000526020600020906004020190506000600182600301805490506130a691906158b8565b905060008260030182815481106130bf576130bf61588c565b600091825260208220600b909102019150600184015460ff1660048111156130e9576130e9615341565b1461310757604051638285c4ef60e01b815260040160405180910390fd5b600060068260000154815481106131205761312061588c565b6000918252602082200154600a8401546001600160a01b039091169250905b8781108015613155575060038401546006850154105b1561335d5760006001600160a01b03841663d2b8035a8b8461317681615ba7565b95506131829087615a66565b6040516001600160e01b031960e085901b168152600481019290925260248201526044016020604051808303816000875af11580156131c5573d6000803e3d6000fd5b505050506040513d601f19601f820116820180604052508101906131e99190615bc0565b90506001600160a01b0381166131ff575061313f565b6004805460018701546040516310f0b12f60e11b81526001600160a01b03909216926321e1625e92613235928692909101615bdd565b600060405180830381600087803b15801561324f57600080fd5b505af1158015613263573d6000803e3d6000fd5b50505060068601546040518c92506001600160a01b038416917f6119cf536152c11e0a9a6c22f3953ce4ecc93ee54fa72ffa326ffabded21509b916132b0918b8252602082015260400190565b60405180910390a36006850180546001810182556000828152602090200180546001600160a01b0319166001600160a01b03841617905560038601549054036133575760048054604051632e96bc2360e11b81529182018c9052602482018890526001600160a01b031690635d2d784690604401600060405180830381600087803b15801561333e57600080fd5b505af1158015613352573d6000803e3d6000fd5b505050505b5061313f565b8084600a0160008282546133719190615a66565b90915550505060069092015494505050505092915050565b60006133ce8261041b86868080601f01602080910402602001604051908101604052809392919081815260200183838082843760009201919091525061350792505050565b949350505050565b6000546001600160a01b031633146134015760405163c383977560e01b815260040160405180910390fd5b600080546001600160a01b0319166001600160a01b0392909216919091179055565b6001600160a01b03821660009081526008602052604081205460ff1661345c5760405163e51cf7bf60e01b815260040160405180910390fd5b613467858585613389565b82101561348757604051630e3360f160e21b815260040160405180910390fd5b61349c6001600160a01b038416333085614992565b6134b9576040516312171d8360e31b815260040160405180910390fd5b6134fd8686868080601f0160208091040260200160405190810160405280939291908181526020018383808284376000920191909152508892508791506146a89050565b9695505050505050565b600080600061351584614a6e565b5091509150806005836001600160601b0316815481106135375761353761588c565b90600052602060002090600c0201600401546133ce91906159ec565b6006600061355f6139a5565b8054909150600160401b900460ff1680613586575080546001600160401b03808416911610155b156135a35760405162dc149f60e41b815260040160405180910390fd5b8054600160401b6001600160401b03841668ffffffffffffffffff19909216821717825560098054610100600160a81b0319166101006001600160a01b03871602179055815460ff60401b191682556040519081527fc7f505b2f371ae2175ee4913f4499e1f2633a7b5936321eed1cdaeb6115181d29060200160405180910390a1505050565b60006007828154811061363f5761363f61588c565b600091825260209091206003600490920201015492915050565b60006005836001600160601b0316815481106136775761367761588c565b60009182526020808320948352600c91909102909301600a0190925250604090205460ff16919050565b60006001600160601b03841615806136c457506005546001600160601b03851610155b156136dc576136d4826005614af5565b5060006133ce565b821580159061371757506005846001600160601b0316815481106137025761370261588c565b90600052602060002090600c02016002015483105b15613727576136d4826006614af5565b600480546040516303d9595760e31b81526001600160a01b03888116938201939093526001600160601b03871660248201526044810186905260009283928392911690631ecacab8906064016060604051808303816000875af1158015613792573d6000803e3d6000fd5b505050506040513d601f19601f820116820180604052508101906137b69190615bf6565b9194509250905060008160098111156137d1576137d1615341565b141580156137f1575060018160098111156137ee576137ee615341565b14155b1561380c576138008582614af5565b600093505050506133ce565b600181600981111561382057613820615341565b0361383157600193505050506133ce565b821561385e5760025461384f906001600160a01b0316893086614992565b61385e57613800856002614af5565b811561388a5760025461387b906001600160a01b031689846145b7565b61388a57613800856003614af5565b600480546040516355601d6960e11b81526001600160a01b038b8116938201939093526001600160601b038a16602482015260448101869052606481018590526084810189905291169063aac03ad29060a401600060405180830381600087803b1580156138f757600080fd5b505af115801561390b573d6000803e3d6000fd5b5060019b9a5050505050505050505050565b806005846001600160601b03168154811061393a5761393a61588c565b60009182526020808320868452600c92909202909101600a0190526040808220805460ff19169315159390931790925590518215159184916001600160601b038716917fb47629acdf64971062d40984f77d3dee212d735b11e3e8c7a4222d9f0572cc7991a4505050565b7ff0c57e16840df040f15088dc2f81fe391c3923bec73e23a9662efc9c229c6a0e90565b6139d1614c3e565b600080546001600160a01b03199081166001600160a01b038e81169190911783556001805483168e83161781556002805484168e84161781556003805485168e851617905560048054851688851617905560098054610100600160a81b031916610100888616021790556006805481875291820190557ff652222313e28459528d920b65115c16c04f3efc82aaedc97be59f3f377c0d40018054909316918b1691821790925560405190927f44063d258760b98116d53815adbc906a56b3563e540148cc0fc2457f83b5eeb291a36005805460010181556000908152600480546040516311de995760e21b81526001600160a01b039091169263477a655c92613adc92889101615ae1565b600060405180830381600087803b158015613af657600080fd5b505af1158015613b0a573d6000803e3d6000fd5b5050600580546001810182556000918252600c027f036b6384b5eca791c62761152d0c79bb0604c104a5fb6f4eb0703f3154bb3db00180546001600160601b031916815560408051838152602081019091529093509150508051613b78916001840191602090910190614dcf565b50805460ff60601b1916600160601b881515021781558551600282015560208601516003820155604086015160048083019190915560608701516005830155613bc79060068301908790614d91565b50600480546040516311de995760e21b81526001600160a01b039091169163477a655c91613bfa91600191899101615ae1565b600060405180830381600087803b158015613c1457600080fd5b505af1158015613c28573d6000803e3d6000fd5b506000925060019150613c389050565b604051908082528060200260200182016040528015613c61578160200160208202803683370190505b509050600181600081518110613c7957613c7961588c565b602090810291909101015281546001600160601b031660017f550ff678017abc294b4786a99a046628d5a1eac07be0f1ea7e89543f13576ee68a8a600060200201518b600160200201518c600260200201518d600360200201518d89604051613ce89796959493929190615afa565b60405180910390a3613cfd600180600161391d565b50505050505050505050505050565b6000806007836000015181548110613d2657613d2661588c565b90600052602060002090600402019050600081600301846020015181548110613d5157613d5161588c565b90600052602060002090600b0201905060006006826000015481548110613d7a57613d7a61588c565b60009182526020808320919091015487519188015160e089015160808a015160a08b01516040516333ac937b60e11b8152600481019690965260248601939093526044850191909152606484015260848301526001600160a01b03169250829063675926f69060a401602060405180830381865afa158015613e00573d6000803e3d6000fd5b505050506040513d601f19601f82011682018060405250810190613e249190615a79565b9050612710811115613e3557506127105b6000612710613e4483826158b8565b8560010154613e5391906159ec565b613e5d9190615a19565b90506000846006018860e0015181548110613e7a57613e7a61588c565b6000918252602090912001546004805460405163965af6c760e01b81526001600160a01b03938416945092169163965af6c791613ebb918591879101615bdd565b600060405180830381600087803b158015613ed557600080fd5b505af1158015613ee9573d6000803e3d6000fd5b505060048054604051633c85b79360e21b8152600094508493506001600160a01b039091169163f216de4c91613f23918791899101615bdd565b60408051808303816000875af1158015613f41573d6000803e3d6000fd5b505050506040513d601f19601f82011682018060405250810190613f659190615c29565b91509150808a60c001818151613f7b9190615a66565b90525060208a01518a516001600160a01b0385167f8975b837fe0d18616c65abb8b843726a32b552ee4feca009944fa658bbb282e788613fba86615c4d565b60098d0154604051613fdc9392916000916001600160a01b0390911690615c69565b60405180910390a48115806140715750895160208b015160e08c015160405163ba66fde760e01b81526004810193909352602483019190915260448201526001600160a01b0387169063ba66fde790606401602060405180830381865afa15801561404b573d6000803e3d6000fd5b505050506040513d601f19601f8201168201806040525081019061406f91906158cb565b155b156140d8576004805460405163b5d69e9960e01b81526001600160a01b039091169163b5d69e99916140a591879101614ff5565b600060405180830381600087803b1580156140bf57600080fd5b505af11580156140d3573d6000803e3d6000fd5b505050505b60018a606001516140e991906158b8565b8a60e001511480156140fd575060408a0151155b156141a75760098701546000546002890154614126926001600160a01b03908116921690614c65565b60005460c08b0151600254614149926001600160a01b03918216929116906145b7565b5060208a01518a5160c08c015160028a015460098b01546040517f6cecfd3ec56289ccb16e30eb194f9a87dfdc12630b9abbc31fc69af5a0b0eaf49361419e93909290916001600160a01b0390911690615c8d565b60405180910390a35b50505060c0909601519695505050505050565b600060078260000151815481106141d3576141d361588c565b906000526020600020906004020190506000816003018360200151815481106141fe576141fe61588c565b90600052602060002090600b02019050600060068260000154815481106142275761422761588c565b6000918252602080832090910154865191870151606088015160e08901516001600160a01b039093169550859363675926f69390929161426691615cac565b60808a015160a08b01516040516001600160e01b031960e088901b1681526004810195909552602485019390935260448401919091526064830152608482015260a401602060405180830381865afa1580156142c6573d6000803e3d6000fd5b505050506040513d601f19601f820116820180604052508101906142ea9190615a79565b90506127108111156142fb57506127105b60008360060186606001518760e001516143159190615cac565b815481106143255761432561588c565b600091825260208220015460018601546001600160a01b03909116925061434c9084614983565b6004805460405163965af6c760e01b81529293506001600160a01b03169163965af6c79161437e918691869101615bdd565b600060405180830381600087803b15801561439857600080fd5b505af11580156143ac573d6000803e3d6000fd5b5050505060006143cf88604001518960c001516143c99190615a19565b85614983565b9050808660080160008282546143e59190615a66565b92505081905550600061440b896040015188600201546144059190615a19565b86614983565b9050808760070160008282546144219190615a66565b909155505060025461443d906001600160a01b031685846145b7565b506009870154614457906001600160a01b03168583614c65565b6020890151895160098901546040516001600160a01b03888116927f8975b837fe0d18616c65abb8b843726a32b552ee4feca009944fa658bbb282e7926144a7928c928a928a9290911690615c69565b60405180910390a46001896060015160026144c291906159ec565b6144cc91906158b8565b8960e00151036145ac57600087600801548a60c001516144ec91906158b8565b905060008860070154896002015461450491906158b8565b90508115158061451357508015155b1561181c57811561453d5760005460025461453b916001600160a01b039182169116846145b7565b505b8015614562576009890154600054614562916001600160a01b03908116911683614c65565b60208b01518b5160098b01546040517f6cecfd3ec56289ccb16e30eb194f9a87dfdc12630b9abbc31fc69af5a0b0eaf4916128d791879187916001600160a01b0390911690615c8d565b505050505050505050565b6000806000856001600160a01b031685856040516024016145d9929190615bdd565b60408051601f198184030181529181526020820180516001600160e01b031663a9059cbb60e01b1790525161460e9190615a92565b6000604051808303816000865af19150503d806000811461464b576040519150601f19603f3d011682016040523d82523d6000602084013e614650565b606091505b50915091508180156134fd5750805115806134fd5750808060200190518101906134fd91906158cb565b6000546001600160a01b031633146146a55760405163c383977560e01b815260040160405180910390fd5b50565b60008060006146b686614a6e565b92505091506005826001600160601b0316815481106146d7576146d761588c565b60009182526020808320848452600a600c90930201919091019052604090205460ff166147175760405163b34eb75d60e01b815260040160405180910390fd5b600780546001810182556000918252600160601b33026001600160601b03851617600482027fa66cc928b5edb82af9bd49922954155ab7b0942694bea4ce44661d9a8736c6888101918255427fa66cc928b5edb82af9bd49922954155ab7b0942694bea4ce44661d9a8736c68a9091015560068054929650909291849081106147a2576147a261588c565b6000918252602082200154600580546001600160a01b039092169350906001600160601b0387169081106147d8576147d861588c565b60009182526020808320600387018054600181018255908552918420600c909302019350600b0201906001600160a01b038a16156148235761481e8a8460040154611210565b614829565b82600401545b9050614835818a615a19565b6003808401919091558683556002840154908401546148549190614983565b6001830155600282018990556009820180546001600160a01b0319166001600160a01b038c8116919091179091556004805460405163d09f392d60e01b81529182018b9052600060248301529091169063d09f392d90604401600060405180830381600087803b1580156148c757600080fd5b505af11580156148db573d6000803e3d6000fd5b50505050836001600160a01b031663b6ede540898e8e86600301546040518563ffffffff1660e01b81526004016149159493929190615b77565b600060405180830381600087803b15801561492f57600080fd5b505af1158015614943573d6000803e3d6000fd5b50506040513392508a91507f141dfc18aa6a56fc816f44f0e9e2f1ebc92b15ab167770e17db5b084c10ed99590600090a350505050505050949350505050565b600061271061125783856159ec565b6040516001600160a01b038481166024830152838116604483015260648201839052600091829182919088169060840160408051601f198184030181529181526020820180516001600160e01b03166323b872dd60e01b179052516149f79190615a92565b6000604051808303816000865af19150503d8060008114614a34576040519150601f19603f3d011682016040523d82523d6000602084013e614a39565b606091505b5091509150818015614a63575080511580614a63575080806020019051810190614a6391906158cb565b979650505050505050565b60008060006040845110614ae3575050506020810151604082015160608301516001600160601b0383161580614aaf57506005546001600160601b03841610155b15614ab957600192505b81600003614ac657600391505b801580614ad557506006548110155b15614ade575060015b614aee565b506001915060039050815b9193909250565b6001826001811115614b0957614b09615341565b03614b12575050565b6002816009811115614b2657614b26615341565b03614b4457604051630f323ed960e11b815260040160405180910390fd5b6003816009811115614b5857614b58615341565b03614b765760405163e45e13a360e01b815260040160405180910390fd5b6004816009811115614b8a57614b8a615341565b03614ba857604051631d91d0ed60e31b815260040160405180910390fd5b6005816009811115614bbc57614bbc615341565b03614bda57604051637c84af5160e01b815260040160405180910390fd5b6006816009811115614bee57614bee615341565b03614c0c57604051630caac6b360e31b815260040160405180910390fd5b6009816009811115614c2057614c20615341565b03611bcb57604051633e57962f60e21b815260040160405180910390fd5b614c46614ca8565b614c6357604051631afcd79f60e31b815260040160405180910390fd5b565b6001600160a01b038316614c94576009546119a5906001600160a01b0384811691849161010090910416614cc2565b610b0c6001600160a01b03841683836145b7565b6000614cb26139a5565b54600160401b900460ff16919050565b6040516001600160a01b0384169083156108fc029084906000818181858888f1935050505015614cf157505050565b806001600160a01b031663d0e30db0836040518263ffffffff1660e01b81526004016000604051808303818588803b158015614d2c57600080fd5b505af1158015614d40573d6000803e3d6000fd5b505060405163a9059cbb60e01b81526001600160a01b038516935063a9059cbb925061257d915086908690600401615bdd565b60405180608001604052806004906020820280368337509192915050565b8260048101928215614dbf579160200282015b82811115614dbf578251825591602001919060010190614da4565b50614dcb929150614e09565b5090565b828054828255906000526020600020908101928215614dbf5791602002820182811115614dbf578251825591602001919060010190614da4565b5b80821115614dcb5760008155600101614e0a565b6001600160a01b03811681146146a557600080fd5b8035614e3e81614e1e565b919050565b600060208284031215614e5557600080fd5b8135614e6081614e1e565b9392505050565b80356001600160601b0381168114614e3e57600080fd5b600080600060608486031215614e9357600080fd5b8335614e9e81614e1e565b9250614eac60208501614e67565b929592945050506040919091013590565b634e487b7160e01b600052604160045260246000fd5b604051601f8201601f191681016001600160401b0381118282101715614efb57614efb614ebd565b604052919050565b600082601f830112614f1457600080fd5b81356001600160401b03811115614f2d57614f2d614ebd565b8060051b614f3d60208201614ed3565b91825260208185018101929081019086841115614f5957600080fd5b6020860192505b838310156134fd578235825260209283019290910190614f60565b80151581146146a557600080fd5b8035614e3e81614f7b565b600080600060608486031215614fa957600080fd5b614fb284614e67565b925060208401356001600160401b03811115614fcd57600080fd5b614fd986828701614f03565b9250506040840135614fea81614f7b565b809150509250925092565b6001600160a01b0391909116815260200190565b60006020828403121561501b57600080fd5b5035919050565b6000806040838503121561503557600080fd5b823561504081614e1e565b946020939093013593505050565b600082601f83011261505f57600080fd5b604051608081016001600160401b038111828210171561508157615081614ebd565b60405280608084018581111561509657600080fd5b845b818110156150b0578035835260209283019201615098565b509195945050505050565b600082601f8301126150cc57600080fd5b81356001600160401b038111156150e5576150e5614ebd565b6150f8601f8201601f1916602001614ed3565b81815284602083860101111561510d57600080fd5b816020850160208301376000918101602001919091529392505050565b60008060008060008060008060008060006102208c8e03121561514c57600080fd5b8b3561515781614e1e565b9a5060208c013561516781614e1e565b995061517560408d01614e33565b985061518360608d01614e33565b975061519160808d01614e33565b965061519f60a08d01614f89565b95506151ae8d60c08e0161504e565b94506151be8d6101408e0161504e565b93506101c08c01356001600160401b038111156151da57600080fd5b6151e68e828f016150bb565b9350506151f66101e08d01614e33565b91506152056102008d01614e33565b90509295989b509295989b9093969950565b60008060006060848603121561522c57600080fd5b505081359360208301359350604090920135919050565b60006020828403121561525557600080fd5b61126182614e67565b8060005b6004811015610b0c578151845260209384019390910190600101615262565b60808101611264828461525e565b600080604083850312156152a257600080fd5b82356152ad81614e1e565b915060208301356001600160401b038111156152c857600080fd5b6152d4858286016150bb565b9150509250929050565b60005b838110156152f95781810151838201526020016152e1565b50506000910152565b6000815180845261531a8160208601602086016152de565b601f01601f19169290920160200192915050565b6020815260006112616020830184615302565b634e487b7160e01b600052602160045260246000fd5b6005811061537557634e487b7160e01b600052602160045260246000fd5b9052565b6001600160601b03861681526001600160a01b038516602082015260a081016153a56040830186615357565b9215156060820152608001529392505050565b6000806000606084860312156153cd57600080fd5b83356153d881614e1e565b92506020840135915060408401356001600160401b038111156153fa57600080fd5b615406868287016150bb565b9150509250925092565b6000806040838503121561542357600080fd5b61504083614e67565b6000806040838503121561543f57600080fd5b823561544a81614e1e565b9150602083013561545a81614f7b565b809150509250929050565b60008060006060848603121561547a57600080fd5b833561548581614e1e565b925060208401356001600160401b03811681146154a157600080fd5b9150604084013560ff81168114614fea57600080fd5b6000806000806000806000610140888a0312156154d357600080fd5b6154dc88614e67565b965060208801356154ec81614f7b565b955060408801359450606088013593506080880135925060a088013591506155178960c08a0161504e565b905092959891949750929550565b6000806040838503121561553857600080fd5b50508035926020909101359150565b600081518084526020840193506020830160005b828110156155825781516001600160a01b031686526020958601959091019060010161555b565b5093949350505050565b6020815281516020820152602082015160408201526040820151606082015260608201516080820152608082015160a082015260a082015160c0820152600060c083015161016060e08401526155e6610180840182615547565b905060e084015161010084015261010084015161012084015261012084015161561b6101408501826001600160a01b03169052565b506101408401516101608401528091505092915050565b60008060008060008060008060006101808a8c03121561565157600080fd5b61565a8a614e67565b985060208a013561566a81614f7b565b975060408a0135965060608a0135955060808a0135945060a08a013593506156958b60c08c0161504e565b92506101408a01356001600160401b038111156156b157600080fd5b6156bd8c828d016150bb565b9250506101608a01356001600160401b038111156156da57600080fd5b6156e68c828d01614f03565b9150509295985092959850929598565b6000806040838503121561570957600080fd5b8235915060208301356001600160401b038111156152c857600080fd5b60008060006060848603121561573b57600080fd5b833592506020840135915060408401356001600160401b038111156153fa57600080fd5b60008083601f84011261577157600080fd5b5081356001600160401b0381111561578857600080fd5b6020830191508360208285010111156157a057600080fd5b9250929050565b6000806000604084860312156157bc57600080fd5b83356001600160401b038111156157d257600080fd5b6157de8682870161575f565b9094509250506020840135614fea81614e1e565b60008060008060006080868803121561580a57600080fd5b8535945060208601356001600160401b0381111561582757600080fd5b6158338882890161575f565b909550935050604086013561584781614e1e565b949793965091946060013592915050565b60006020828403121561586a57600080fd5b81356001600160401b0381111561588057600080fd5b6133ce848285016150bb565b634e487b7160e01b600052603260045260246000fd5b634e487b7160e01b600052601160045260246000fd5b81810381811115611264576112646158a2565b6000602082840312156158dd57600080fd5b8151614e6081614f7b565b602081016112648284615357565b6001815b600184111561593157808504811115615915576159156158a2565b600184161561592357908102905b60019390931c9280026158fa565b935093915050565b60008261594857506001611264565b8161595557506000611264565b816001811461596b576002811461597557615991565b6001915050611264565b60ff841115615986576159866158a2565b50506001821b611264565b5060208310610133831016604e8410600b84101617156159b4575081810a611264565b6159c160001984846158f6565b80600019048211156159d5576159d56158a2565b029392505050565b600061126160ff841683615939565b8082028115828204841417611264576112646158a2565b634e487b7160e01b600052601260045260246000fd5b600082615a2857615a28615a03565b500490565b600080600060608486031215615a4257600080fd5b83516020850151909350615a5581614f7b565b6040850151909250614fea81614f7b565b80820180821115611264576112646158a2565b600060208284031215615a8b57600080fd5b5051919050565b60008251615aa48184602087016152de565b9190910192915050565b6000610120820190508715158252866020830152856040830152846060830152836080830152614a6360a083018461525e565b8281526040602082015260006133ce6040830184615302565b600061014082018915158352886020840152876040840152866060840152856080840152615b2b60a084018661525e565b610140610120840152835190819052602084019061016084019060005b81811015615b66578351835260209384019390920191600101615b48565b50909b9a5050505050505050505050565b848152836020820152608060408201526000615b966080830185615302565b905082606083015295945050505050565b600060018201615bb957615bb96158a2565b5060010190565b600060208284031215615bd257600080fd5b8151614e6081614e1e565b6001600160a01b03929092168252602082015260400190565b600080600060608486031215615c0b57600080fd5b8351602085015160408601519194509250600a8110614fea57600080fd5b60008060408385031215615c3c57600080fd5b505080516020909101519092909150565b6000600160ff1b8201615c6257615c626158a2565b5060000390565b938452602084019290925260408301526001600160a01b0316606082015260800190565b92835260208301919091526001600160a01b0316604082015260600190565b600082615cbb57615cbb615a03565b50069056fe360894a13ba1a3210667c828492db98dca3e2076cc3735a920a3ca505d382bbca2646970667358221220a4155dec443a9c5d136f16c8c11bf35431e34b7e440060d5ff361d5e1f88354264736f6c634300081c0033",
  "devdoc": {
    "errors": {
      "AlreadyInitialized()": [
        {
          "details": "The contract is already initialized."
        }
      ],
      "InvalidImplementation(address)": [
        {
          "details": "The `implementation` is not UUPS-compliant"
        }
      ],
      "NotInitializing()": [
        {
          "details": "The contract is not initializing."
        }
      ],
      "UUPSUnauthorizedCallContext()": [
        {
          "details": "The call is from an unauthorized context."
        }
      ],
      "UUPSUnsupportedProxiableUUID(bytes32)": [
        {
          "details": "The storage `slot` is unsupported as a UUID."
        }
      ]
    },
    "events": {
      "AcceptedFeeToken(address,bool)": {
        "details": "To be emitted when an ERC20 token is added or removed as a method to pay fees.",
        "params": {
          "_accepted": "Whether the token is accepted or not.",
          "_token": "The ERC20 token."
        }
      },
      "DisputeCreation(uint256,address)": {
        "details": "To be emitted when a dispute is created.",
        "params": {
          "_arbitrable": "The contract which created the dispute.",
          "_disputeID": "The identifier of the dispute in the Arbitrator contract."
        }
      },
      "Initialized(uint64)": {
        "details": "Triggered when the contract has been initialized or reinitialized."
      },
      "NewCurrencyRate(address,uint64,uint8)": {
        "details": "To be emitted when the fee for a particular ERC20 token is updated.",
        "params": {
          "_feeToken": "The ERC20 token.",
          "_rateDecimals": "The new decimals of the fee token rate.",
          "_rateInEth": "The new rate of the fee token in ETH."
        }
      },
      "Ruling(address,uint256,uint256)": {
        "details": "To be raised when a ruling is given.",
        "params": {
          "_arbitrable": "The arbitrable receiving the ruling.",
          "_disputeID": "The identifier of the dispute in the Arbitrator contract.",
          "_ruling": "The ruling which was given."
        }
      },
      "Upgraded(address)": {
        "details": "Emitted when the `implementation` has been successfully upgraded.",
        "params": {
          "newImplementation": "Address of the new implementation the proxy is now forwarding calls to."
        }
      }
    },
    "kind": "dev",
    "methods": {
      "addNewDisputeKit(address)": {
        "details": "Add a new supported dispute kit module to the court.",
        "params": {
          "_disputeKitAddress": "The address of the dispute kit contract."
        }
      },
      "appeal(uint256,uint256,bytes)": {
        "details": "Appeals the ruling of a specified dispute. Note: Access restricted to the Dispute Kit for this `disputeID`.",
        "params": {
          "_disputeID": "The ID of the dispute.",
          "_extraData": "Extradata for the dispute. Can be required during court jump.",
          "_numberOfChoices": "Number of choices for the dispute. Can be required during court jump."
        }
      },
      "appealCost(uint256)": {
        "details": "Gets the cost of appealing a specified dispute.",
        "params": {
          "_disputeID": "The ID of the dispute."
        },
        "returns": {
          "cost": "The appeal cost."
        }
      },
      "appealPeriod(uint256)": {
        "details": "Gets the start and the end of a specified dispute's current appeal period.",
        "params": {
          "_disputeID": "The ID of the dispute."
        },
        "returns": {
          "end": "The end of the appeal period.",
          "start": "The start of the appeal period."
        }
      },
      "arbitrationCost(bytes)": {
        "details": "Compute the cost of arbitration denominated in ETH.      It is recommended not to increase it often, as it can be highly time and gas consuming for the arbitrated contracts to cope with fee augmentation.",
        "params": {
          "_extraData": "Additional info about the dispute. We use it to pass the ID of the dispute's court (first 32 bytes), the minimum number of jurors required (next 32 bytes) and the ID of the specific dispute kit (last 32 bytes)."
        },
        "returns": {
          "cost": "The arbitration cost in ETH."
        }
      },
      "arbitrationCost(bytes,address)": {
        "details": "Compute the cost of arbitration denominated in `_feeToken`.      It is recommended not to increase it often, as it can be highly time and gas consuming for the arbitrated contracts to cope with fee augmentation.",
        "params": {
          "_extraData": "Additional info about the dispute. We use it to pass the ID of the dispute's court (first 32 bytes), the minimum number of jurors required (next 32 bytes) and the ID of the specific dispute kit (last 32 bytes).",
          "_feeToken": "The ERC20 token used to pay fees."
        },
        "returns": {
          "cost": "The arbitration cost in `_feeToken`."
        }
      },
      "changeAcceptedFeeTokens(address,bool)": {
        "details": "Changes the supported fee tokens.",
        "params": {
          "_accepted": "Whether the token is supported or not as a method of fee payment.",
          "_feeToken": "The fee token."
        }
      },
      "changeCurrencyRates(address,uint64,uint8)": {
        "details": "Changes the currency rate of a fee token.",
        "params": {
          "_feeToken": "The fee token.",
          "_rateDecimals": "The new decimals of the fee token rate.",
          "_rateInEth": "The new rate of the fee token in ETH."
        }
      },
      "changeGovernor(address)": {
        "details": "Changes the `governor` storage variable.",
        "params": {
          "_governor": "The new value for the `governor` storage variable."
        }
      },
      "changeGuardian(address)": {
        "details": "Changes the `guardian` storage variable.",
        "params": {
          "_guardian": "The new value for the `guardian` storage variable."
        }
      },
      "changeJurorProsecutionModule(address)": {
        "details": "Changes the `jurorProsecutionModule` storage variable.",
        "params": {
          "_jurorProsecutionModule": "The new value for the `jurorProsecutionModule` storage variable."
        }
      },
      "changePinakion(address)": {
        "details": "Changes the `pinakion` storage variable.",
        "params": {
          "_pinakion": "The new value for the `pinakion` storage variable."
        }
      },
      "changeSortitionModule(address)": {
        "details": "Changes the `_sortitionModule` storage variable. Note that the new module should be initialized for all courts.",
        "params": {
          "_sortitionModule": "The new value for the `sortitionModule` storage variable."
        }
      },
      "constructor": {
        "custom:oz-upgrades-unsafe-allow": "constructor"
      },
      "createCourt(uint96,bool,uint256,uint256,uint256,uint256,uint256[4],bytes,uint256[])": {
        "details": "Creates a court under a specified parent court.",
        "params": {
          "_alpha": "The `alpha` property value of the court.",
          "_feeForJuror": "The `feeForJuror` property value of the court.",
          "_hiddenVotes": "The `hiddenVotes` property value of the court.",
          "_jurorsForCourtJump": "The `jurorsForCourtJump` property value of the court.",
          "_minStake": "The `minStake` property value of the court.",
          "_parent": "The `parent` property value of the court.",
          "_sortitionExtraData": "Extra data for sortition module.",
          "_supportedDisputeKits": "Indexes of dispute kits that this court will support.",
          "_timesPerPeriod": "The `timesPerPeriod` property value of the court."
        }
      },
      "createDispute(uint256,bytes)": {
        "details": "Create a dispute and pay for the fees in the native currency, typically ETH.      Must be called by the arbitrable contract.      Must pay at least arbitrationCost(_extraData).",
        "params": {
          "_extraData": "Additional info about the dispute. We use it to pass the ID of the dispute's court (first 32 bytes), the minimum number of jurors required (next 32 bytes) and the ID of the specific dispute kit (last 32 bytes).",
          "_numberOfChoices": "The number of choices the arbitrator can choose from in this dispute."
        },
        "returns": {
          "disputeID": "The identifier of the dispute created."
        }
      },
      "createDispute(uint256,bytes,address,uint256)": {
        "details": "Create a dispute and pay for the fees in a supported ERC20 token.      Must be called by the arbitrable contract.      Must pay at least arbitrationCost(_extraData).",
        "params": {
          "_extraData": "Additional info about the dispute. We use it to pass the ID of the dispute's court (first 32 bytes), the minimum number of jurors required (next 32 bytes) and the ID of the specific dispute kit (last 32 bytes).",
          "_feeAmount": "Amount of the ERC20 token used to pay fees.",
          "_feeToken": "The ERC20 token used to pay fees.",
          "_numberOfChoices": "The number of choices the arbitrator can choose from in this dispute."
        },
        "returns": {
          "disputeID": "The identifier of the dispute created."
        }
      },
      "currentRuling(uint256)": {
        "details": "Gets the current ruling of a specified dispute.",
        "params": {
          "_disputeID": "The ID of the dispute."
        },
        "returns": {
          "overridden": "Whether the ruling was overridden by appeal funding or not.",
          "ruling": "The current ruling.",
          "tied": "Whether it's a tie or not."
        }
      },
      "draw(uint256,uint256)": {
        "details": "Draws jurors for the dispute. Can be called in parts.",
        "params": {
          "_disputeID": "The ID of the dispute.",
          "_iterations": "The number of iterations to run."
        },
        "returns": {
          "nbDrawnJurors": "The total number of jurors drawn in the round."
        }
      },
      "enableDisputeKits(uint96,uint256[],bool)": {
        "details": "Adds/removes court's support for specified dispute kits.",
        "params": {
          "_courtID": "The ID of the court.",
          "_disputeKitIDs": "The IDs of dispute kits which support should be added/removed.",
          "_enable": "Whether add or remove the dispute kits from the court."
        }
      },
      "execute(uint256,uint256,uint256)": {
        "details": "Distribute the PNKs at stake and the dispute fees for the specific round of the dispute. Can be called in parts. Note: Reward distributions are forbidden during pause.",
        "params": {
          "_disputeID": "The ID of the dispute.",
          "_iterations": "The number of iterations to run.",
          "_round": "The appeal round."
        }
      },
      "executeGovernorProposal(address,uint256,bytes)": {
        "details": "Allows the governor to call anything on behalf of the contract.",
        "params": {
          "_amount": "The value sent with the call.",
          "_data": "The data sent with the call.",
          "_destination": "The destination of the call."
        }
      },
      "executeRuling(uint256)": {
        "details": "Executes a specified dispute's ruling.",
        "params": {
          "_disputeID": "The ID of the dispute."
        }
      },
      "getNumberOfRounds(uint256)": {
        "details": "Gets the number of rounds for a specified dispute.",
        "params": {
          "_disputeID": "The ID of the dispute."
        },
        "returns": {
          "_0": "The number of rounds."
        }
      },
      "getNumberOfVotes(uint256)": {
        "details": "Gets the number of votes permitted for the specified dispute in the latest round.",
        "params": {
          "_disputeID": "The ID of the dispute."
        }
      },
      "getPnkAtStakePerJuror(uint256,uint256)": {
        "details": "Gets the PNK at stake per juror for a specified dispute and round.",
        "params": {
          "_disputeID": "The ID of the dispute.",
          "_round": "The round to get the info for."
        },
        "returns": {
          "_0": "pnkAtStakePerJuror The PNK at stake per juror."
        }
      },
      "getRoundInfo(uint256,uint256)": {
        "details": "Gets the round info for a specified dispute and round.This function must not be called from a non-view function because it returns a dynamic array which might be very large, theoretically exceeding the block gas limit.",
        "params": {
          "_disputeID": "The ID of the dispute.",
          "_round": "The round to get the info for."
        },
        "returns": {
          "_0": "round The round info."
        }
      },
      "getTimesPerPeriod(uint96)": {
        "details": "Gets the timesPerPeriod array for a given court.",
        "params": {
          "_courtID": "The ID of the court to get the times from."
        },
        "returns": {
          "timesPerPeriod": "The timesPerPeriod array for the given court."
        }
      },
      "initialize(address,address,address,address,address,bool,uint256[4],uint256[4],bytes,address,address)": {
        "details": "Initializer (constructor equivalent for upgradable contracts).",
        "params": {
          "_courtParameters": "Numeric parameters of General court (minStake, alpha, feeForJuror and jurorsForCourtJump respectively).",
          "_disputeKit": "The address of the default dispute kit.",
          "_governor": "The governor's address.",
          "_guardian": "The guardian's address.",
          "_hiddenVotes": "The `hiddenVotes` property value of the general court.",
          "_jurorProsecutionModule": "The address of the juror prosecution module.",
          "_pinakion": "The address of the token contract.",
          "_sortitionExtraData": "The extra data for sortition module.",
          "_sortitionModuleAddress": "The sortition module responsible for sortition of the jurors.",
          "_timesPerPeriod": "The `timesPerPeriod` property value of the general court.",
          "_wNative": "The wrapped native token address, typically wETH."
        }
      },
      "isDisputeKitJumping(uint256)": {
        "details": "Returns true if the dispute kit will be switched to a parent DK.",
        "params": {
          "_disputeID": "The ID of the dispute."
        },
        "returns": {
          "_0": "Whether DK will be switched or not."
        }
      },
      "isSupported(uint96,uint256)": {
        "details": "Checks if a given dispute kit is supported by a given court.",
        "params": {
          "_courtID": "The ID of the court to check the support for.",
          "_disputeKitID": "The ID of the dispute kit to check the support for."
        },
        "returns": {
          "_0": "Whether the dispute kit is supported or not."
        }
      },
      "passPeriod(uint256)": {
        "details": "Passes the period of a specified dispute.",
        "params": {
          "_disputeID": "The ID of the dispute."
        }
      },
      "pause()": {
        "details": "Pause staking and reward execution. Can only be done by guardian or governor."
      },
      "proxiableUUID()": {
        "details": "Implementation of the ERC1822 `proxiableUUID` function. This returns the storage slot used by the implementation. It is used to validate the implementation's compatibility when performing an upgrade. IMPORTANT: A proxy pointing at a proxiable contract should not be considered proxiable itself, because this risks bricking a proxy that upgrades to it, by delegating to itself until out of gas. Thus it is critical that this function revert if invoked through a proxy. This is guaranteed by the if statement."
      },
      "setStake(uint96,uint256)": {
        "details": "Sets the caller's stake in a court.",
        "params": {
          "_courtID": "The ID of the court.",
          "_newStake": "The new stake. Note that the existing delayed stake will be nullified as non-relevant."
        }
      },
      "setStakeBySortitionModule(address,uint96,uint256)": {
        "details": "Sets the stake of a specified account in a court, typically to apply a delayed stake or unstake inactive jurors.",
        "params": {
          "_account": "The account whose stake is being set.",
          "_courtID": "The ID of the court.",
          "_newStake": "The new stake."
        }
      },
      "transferBySortitionModule(address,uint256)": {
        "details": "Transfers PNK to the juror by SortitionModule.",
        "params": {
          "_account": "The account of the juror whose PNK to transfer.",
          "_amount": "The amount to transfer."
        }
      },
      "unpause()": {
        "details": "Unpause staking and reward execution. Can only be done by governor."
      },
      "upgradeToAndCall(address,bytes)": {
        "details": "Upgrade mechanism including access control and UUPS-compliance.Reverts if the execution is not performed via delegatecall or the execution context is not of a proxy with an ERC1967-compliant implementation pointing to self.",
        "params": {
          "data": "Data used in a delegate call to `newImplementation` if non-empty. This will typically be an encoded function call, and allows initializing the storage of the proxy like a Solidity constructor.",
          "newImplementation": "Address of the new implementation contract."
        }
      }
    },
    "stateVariables": {
      "version": {
        "details": "Returns the version of the implementation.",
        "return": "Version string.",
        "returns": {
          "_0": "Version string."
        }
      }
    },
    "title": "KlerosCore Core arbitrator contract for Kleros v2. Note that this contract trusts the PNK token, the dispute kit and the sortition module contracts.",
    "version": 1
  },
  "userdoc": {
    "errors": {
      "FailedDelegateCall()": [
        {
          "notice": "Failed Delegated call"
        }
      ]
    },
    "kind": "user",
    "methods": {},
    "version": 1
  },
  "storageLayout": {
    "storage": [
      {
        "astId": 449,
        "contract": "src/arbitration/KlerosCore.sol:KlerosCore",
        "label": "governor",
        "offset": 0,
        "slot": "0",
        "type": "t_address"
      },
      {
        "astId": 451,
        "contract": "src/arbitration/KlerosCore.sol:KlerosCore",
        "label": "guardian",
        "offset": 0,
        "slot": "1",
        "type": "t_address"
      },
      {
        "astId": 454,
        "contract": "src/arbitration/KlerosCore.sol:KlerosCore",
        "label": "pinakion",
        "offset": 0,
        "slot": "2",
        "type": "t_contract(IERC20)77"
      },
      {
        "astId": 456,
        "contract": "src/arbitration/KlerosCore.sol:KlerosCore",
        "label": "jurorProsecutionModule",
        "offset": 0,
        "slot": "3",
        "type": "t_address"
      },
      {
        "astId": 459,
        "contract": "src/arbitration/KlerosCore.sol:KlerosCore",
        "label": "sortitionModule",
        "offset": 0,
        "slot": "4",
        "type": "t_contract(ISortitionModule)9946"
      },
      {
        "astId": 463,
        "contract": "src/arbitration/KlerosCore.sol:KlerosCore",
        "label": "courts",
        "offset": 0,
        "slot": "5",
        "type": "t_array(t_struct(Court)368_storage)dyn_storage"
      },
      {
        "astId": 467,
        "contract": "src/arbitration/KlerosCore.sol:KlerosCore",
        "label": "disputeKits",
        "offset": 0,
        "slot": "6",
        "type": "t_array(t_contract(IDisputeKit)9795)dyn_storage"
      },
      {
        "astId": 471,
        "contract": "src/arbitration/KlerosCore.sol:KlerosCore",
        "label": "disputes",
        "offset": 0,
        "slot": "7",
        "type": "t_array(t_struct(Dispute)385_storage)dyn_storage"
      },
      {
        "astId": 477,
        "contract": "src/arbitration/KlerosCore.sol:KlerosCore",
        "label": "currencyRates",
        "offset": 0,
        "slot": "8",
        "type": "t_mapping(t_contract(IERC20)77,t_struct(CurrencyRate)434_storage)"
      },
      {
        "astId": 479,
        "contract": "src/arbitration/KlerosCore.sol:KlerosCore",
        "label": "paused",
        "offset": 0,
        "slot": "9",
        "type": "t_bool"
      },
      {
        "astId": 481,
        "contract": "src/arbitration/KlerosCore.sol:KlerosCore",
        "label": "wNative",
        "offset": 1,
        "slot": "9",
        "type": "t_address"
      }
    ],
    "types": {
      "t_address": {
        "encoding": "inplace",
        "label": "address",
        "numberOfBytes": "20"
      },
      "t_array(t_address)dyn_storage": {
        "base": "t_address",
        "encoding": "dynamic_array",
        "label": "address[]",
        "numberOfBytes": "32"
      },
      "t_array(t_contract(IDisputeKit)9795)dyn_storage": {
        "base": "t_contract(IDisputeKit)9795",
        "encoding": "dynamic_array",
        "label": "contract IDisputeKit[]",
        "numberOfBytes": "32"
      },
      "t_array(t_struct(Court)368_storage)dyn_storage": {
        "base": "t_struct(Court)368_storage",
        "encoding": "dynamic_array",
        "label": "struct KlerosCoreBase.Court[]",
        "numberOfBytes": "32"
      },
      "t_array(t_struct(Dispute)385_storage)dyn_storage": {
        "base": "t_struct(Dispute)385_storage",
        "encoding": "dynamic_array",
        "label": "struct KlerosCoreBase.Dispute[]",
        "numberOfBytes": "32"
      },
      "t_array(t_struct(Round)410_storage)dyn_storage": {
        "base": "t_struct(Round)410_storage",
        "encoding": "dynamic_array",
        "label": "struct KlerosCoreBase.Round[]",
        "numberOfBytes": "32"
      },
      "t_array(t_uint256)4_storage": {
        "base": "t_uint256",
        "encoding": "inplace",
        "label": "uint256[4]",
        "numberOfBytes": "128"
      },
      "t_array(t_uint256)dyn_storage": {
        "base": "t_uint256",
        "encoding": "dynamic_array",
        "label": "uint256[]",
        "numberOfBytes": "32"
      },
      "t_bool": {
        "encoding": "inplace",
        "label": "bool",
        "numberOfBytes": "1"
      },
      "t_contract(IArbitrableV2)9544": {
        "encoding": "inplace",
        "label": "contract IArbitrableV2",
        "numberOfBytes": "20"
      },
      "t_contract(IDisputeKit)9795": {
        "encoding": "inplace",
        "label": "contract IDisputeKit",
        "numberOfBytes": "20"
      },
      "t_contract(IERC20)77": {
        "encoding": "inplace",
        "label": "contract IERC20",
        "numberOfBytes": "20"
      },
      "t_contract(ISortitionModule)9946": {
        "encoding": "inplace",
        "label": "contract ISortitionModule",
        "numberOfBytes": "20"
      },
      "t_enum(Period)342": {
        "encoding": "inplace",
        "label": "enum KlerosCoreBase.Period",
        "numberOfBytes": "1"
      },
      "t_mapping(t_contract(IERC20)77,t_struct(CurrencyRate)434_storage)": {
        "encoding": "mapping",
        "key": "t_contract(IERC20)77",
        "label": "mapping(contract IERC20 => struct KlerosCoreBase.CurrencyRate)",
        "numberOfBytes": "32",
        "value": "t_struct(CurrencyRate)434_storage"
      },
      "t_mapping(t_uint256,t_bool)": {
        "encoding": "mapping",
        "key": "t_uint256",
        "label": "mapping(uint256 => bool)",
        "numberOfBytes": "32",
        "value": "t_bool"
      },
      "t_struct(Court)368_storage": {
        "encoding": "inplace",
        "label": "struct KlerosCoreBase.Court",
        "members": [
          {
            "astId": 344,
            "contract": "src/arbitration/KlerosCore.sol:KlerosCore",
            "label": "parent",
            "offset": 0,
            "slot": "0",
            "type": "t_uint96"
          },
          {
            "astId": 346,
            "contract": "src/arbitration/KlerosCore.sol:KlerosCore",
            "label": "hiddenVotes",
            "offset": 12,
            "slot": "0",
            "type": "t_bool"
          },
          {
            "astId": 349,
            "contract": "src/arbitration/KlerosCore.sol:KlerosCore",
            "label": "children",
            "offset": 0,
            "slot": "1",
            "type": "t_array(t_uint256)dyn_storage"
          },
          {
            "astId": 351,
            "contract": "src/arbitration/KlerosCore.sol:KlerosCore",
            "label": "minStake",
            "offset": 0,
            "slot": "2",
            "type": "t_uint256"
          },
          {
            "astId": 353,
            "contract": "src/arbitration/KlerosCore.sol:KlerosCore",
            "label": "alpha",
            "offset": 0,
            "slot": "3",
            "type": "t_uint256"
          },
          {
            "astId": 355,
            "contract": "src/arbitration/KlerosCore.sol:KlerosCore",
            "label": "feeForJuror",
            "offset": 0,
            "slot": "4",
            "type": "t_uint256"
          },
          {
            "astId": 357,
            "contract": "src/arbitration/KlerosCore.sol:KlerosCore",
            "label": "jurorsForCourtJump",
            "offset": 0,
            "slot": "5",
            "type": "t_uint256"
          },
          {
            "astId": 361,
            "contract": "src/arbitration/KlerosCore.sol:KlerosCore",
            "label": "timesPerPeriod",
            "offset": 0,
            "slot": "6",
            "type": "t_array(t_uint256)4_storage"
          },
          {
            "astId": 365,
            "contract": "src/arbitration/KlerosCore.sol:KlerosCore",
            "label": "supportedDisputeKits",
            "offset": 0,
            "slot": "10",
            "type": "t_mapping(t_uint256,t_bool)"
          },
          {
            "astId": 367,
            "contract": "src/arbitration/KlerosCore.sol:KlerosCore",
            "label": "disabled",
            "offset": 0,
            "slot": "11",
            "type": "t_bool"
          }
        ],
        "numberOfBytes": "384"
      },
      "t_struct(CurrencyRate)434_storage": {
        "encoding": "inplace",
        "label": "struct KlerosCoreBase.CurrencyRate",
        "members": [
          {
            "astId": 429,
            "contract": "src/arbitration/KlerosCore.sol:KlerosCore",
            "label": "feePaymentAccepted",
            "offset": 0,
            "slot": "0",
            "type": "t_bool"
          },
          {
            "astId": 431,
            "contract": "src/arbitration/KlerosCore.sol:KlerosCore",
            "label": "rateInEth",
            "offset": 1,
            "slot": "0",
            "type": "t_uint64"
          },
          {
            "astId": 433,
            "contract": "src/arbitration/KlerosCore.sol:KlerosCore",
            "label": "rateDecimals",
            "offset": 9,
            "slot": "0",
            "type": "t_uint8"
          }
        ],
        "numberOfBytes": "32"
      },
      "t_struct(Dispute)385_storage": {
        "encoding": "inplace",
        "label": "struct KlerosCoreBase.Dispute",
        "members": [
          {
            "astId": 370,
            "contract": "src/arbitration/KlerosCore.sol:KlerosCore",
            "label": "courtID",
            "offset": 0,
            "slot": "0",
            "type": "t_uint96"
          },
          {
            "astId": 373,
            "contract": "src/arbitration/KlerosCore.sol:KlerosCore",
            "label": "arbitrated",
            "offset": 12,
            "slot": "0",
            "type": "t_contract(IArbitrableV2)9544"
          },
          {
            "astId": 376,
            "contract": "src/arbitration/KlerosCore.sol:KlerosCore",
            "label": "period",
            "offset": 0,
            "slot": "1",
            "type": "t_enum(Period)342"
          },
          {
            "astId": 378,
            "contract": "src/arbitration/KlerosCore.sol:KlerosCore",
            "label": "ruled",
            "offset": 1,
            "slot": "1",
            "type": "t_bool"
          },
          {
            "astId": 380,
            "contract": "src/arbitration/KlerosCore.sol:KlerosCore",
            "label": "lastPeriodChange",
            "offset": 0,
            "slot": "2",
            "type": "t_uint256"
          },
          {
            "astId": 384,
            "contract": "src/arbitration/KlerosCore.sol:KlerosCore",
            "label": "rounds",
            "offset": 0,
            "slot": "3",
            "type": "t_array(t_struct(Round)410_storage)dyn_storage"
          }
        ],
        "numberOfBytes": "128"
      },
      "t_struct(Round)410_storage": {
        "encoding": "inplace",
        "label": "struct KlerosCoreBase.Round",
        "members": [
          {
            "astId": 387,
            "contract": "src/arbitration/KlerosCore.sol:KlerosCore",
            "label": "disputeKitID",
            "offset": 0,
            "slot": "0",
            "type": "t_uint256"
          },
          {
            "astId": 389,
            "contract": "src/arbitration/KlerosCore.sol:KlerosCore",
            "label": "pnkAtStakePerJuror",
            "offset": 0,
            "slot": "1",
            "type": "t_uint256"
          },
          {
            "astId": 391,
            "contract": "src/arbitration/KlerosCore.sol:KlerosCore",
            "label": "totalFeesForJurors",
            "offset": 0,
            "slot": "2",
            "type": "t_uint256"
          },
          {
            "astId": 393,
            "contract": "src/arbitration/KlerosCore.sol:KlerosCore",
            "label": "nbVotes",
            "offset": 0,
            "slot": "3",
            "type": "t_uint256"
          },
          {
            "astId": 395,
            "contract": "src/arbitration/KlerosCore.sol:KlerosCore",
            "label": "repartitions",
            "offset": 0,
            "slot": "4",
            "type": "t_uint256"
          },
          {
            "astId": 397,
            "contract": "src/arbitration/KlerosCore.sol:KlerosCore",
            "label": "pnkPenalties",
            "offset": 0,
            "slot": "5",
            "type": "t_uint256"
          },
          {
            "astId": 400,
            "contract": "src/arbitration/KlerosCore.sol:KlerosCore",
            "label": "drawnJurors",
            "offset": 0,
            "slot": "6",
            "type": "t_array(t_address)dyn_storage"
          },
          {
            "astId": 402,
            "contract": "src/arbitration/KlerosCore.sol:KlerosCore",
            "label": "sumFeeRewardPaid",
            "offset": 0,
            "slot": "7",
            "type": "t_uint256"
          },
          {
            "astId": 404,
            "contract": "src/arbitration/KlerosCore.sol:KlerosCore",
            "label": "sumPnkRewardPaid",
            "offset": 0,
            "slot": "8",
            "type": "t_uint256"
          },
          {
            "astId": 407,
            "contract": "src/arbitration/KlerosCore.sol:KlerosCore",
            "label": "feeToken",
            "offset": 0,
            "slot": "9",
            "type": "t_contract(IERC20)77"
          },
          {
            "astId": 409,
            "contract": "src/arbitration/KlerosCore.sol:KlerosCore",
            "label": "drawIterations",
            "offset": 0,
            "slot": "10",
            "type": "t_uint256"
          }
        ],
        "numberOfBytes": "352"
      },
      "t_uint256": {
        "encoding": "inplace",
        "label": "uint256",
        "numberOfBytes": "32"
      },
      "t_uint64": {
        "encoding": "inplace",
        "label": "uint64",
        "numberOfBytes": "8"
      },
      "t_uint8": {
        "encoding": "inplace",
        "label": "uint8",
        "numberOfBytes": "1"
      },
      "t_uint96": {
        "encoding": "inplace",
        "label": "uint96",
        "numberOfBytes": "12"
      }
    }
  }
}