{
  "address": "0x0d60Ff8bbCF49Bc5352328E7E28e141834d7750F",
  "abi": [
    {
      "inputs": [
        {
          "internalType": "string",
          "name": "_name",
          "type": "string"
        },
        {
          "internalType": "string",
          "name": "_symbol",
          "type": "string"
        }
      ],
      "stateMutability": "nonpayable",
      "type": "constructor"
    },
    {
      "anonymous": false,
      "inputs": [
        {
          "indexed": true,
          "internalType": "address",
          "name": "owner",
          "type": "address"
        },
        {
          "indexed": true,
          "internalType": "address",
          "name": "approved",
          "type": "address"
        },
        {
          "indexed": true,
          "internalType": "uint256",
          "name": "tokenId",
          "type": "uint256"
        }
      ],
      "name": "Approval",
      "type": "event"
    },
    {
      "anonymous": false,
      "inputs": [
        {
          "indexed": true,
          "internalType": "address",
          "name": "owner",
          "type": "address"
        },
        {
          "indexed": true,
          "internalType": "address",
          "name": "operator",
          "type": "address"
        },
        {
          "indexed": false,
          "internalType": "bool",
          "name": "approved",
          "type": "bool"
        }
      ],
      "name": "ApprovalForAll",
      "type": "event"
    },
    {
      "anonymous": false,
      "inputs": [
        {
          "indexed": true,
          "internalType": "address",
          "name": "from",
          "type": "address"
        },
        {
          "indexed": true,
          "internalType": "address",
          "name": "to",
          "type": "address"
        },
        {
          "indexed": true,
          "internalType": "uint256",
          "name": "tokenId",
          "type": "uint256"
        }
      ],
      "name": "Transfer",
      "type": "event"
    },
    {
      "inputs": [
        {
          "internalType": "address",
          "name": "to",
          "type": "address"
        },
        {
          "internalType": "uint256",
          "name": "tokenId",
          "type": "uint256"
        }
      ],
      "name": "approve",
      "outputs": [],
      "stateMutability": "nonpayable",
      "type": "function"
    },
    {
      "inputs": [
        {
          "internalType": "address",
          "name": "owner",
          "type": "address"
        }
      ],
      "name": "balanceOf",
      "outputs": [
        {
          "internalType": "uint256",
          "name": "",
          "type": "uint256"
        }
      ],
      "stateMutability": "view",
      "type": "function"
    },
    {
      "inputs": [
        {
          "internalType": "address",
          "name": "_newOwner",
          "type": "address"
        }
      ],
      "name": "changeOwner",
      "outputs": [],
      "stateMutability": "nonpayable",
      "type": "function"
    },
    {
      "inputs": [
        {
          "internalType": "uint256",
          "name": "tokenId",
          "type": "uint256"
        }
      ],
      "name": "getApproved",
      "outputs": [
        {
          "internalType": "address",
          "name": "",
          "type": "address"
        }
      ],
      "stateMutability": "view",
      "type": "function"
    },
    {
      "inputs": [
        {
          "internalType": "address",
          "name": "owner",
          "type": "address"
        },
        {
          "internalType": "address",
          "name": "operator",
          "type": "address"
        }
      ],
      "name": "isApprovedForAll",
      "outputs": [
        {
          "internalType": "bool",
          "name": "",
          "type": "bool"
        }
      ],
      "stateMutability": "view",
      "type": "function"
    },
    {
      "inputs": [],
      "name": "name",
      "outputs": [
        {
          "internalType": "string",
          "name": "",
          "type": "string"
        }
      ],
      "stateMutability": "view",
      "type": "function"
    },
    {
      "inputs": [],
      "name": "owner",
      "outputs": [
        {
          "internalType": "address",
          "name": "",
          "type": "address"
        }
      ],
      "stateMutability": "view",
      "type": "function"
    },
    {
      "inputs": [
        {
          "internalType": "uint256",
          "name": "tokenId",
          "type": "uint256"
        }
      ],
      "name": "ownerOf",
      "outputs": [
        {
          "internalType": "address",
          "name": "",
          "type": "address"
        }
      ],
      "stateMutability": "view",
      "type": "function"
    },
    {
      "inputs": [
        {
          "internalType": "address",
          "name": "to",
          "type": "address"
        }
      ],
      "name": "safeMint",
      "outputs": [],
      "stateMutability": "nonpayable",
      "type": "function"
    },
    {
      "inputs": [
        {
          "internalType": "address",
          "name": "from",
          "type": "address"
        },
        {
          "internalType": "address",
          "name": "to",
          "type": "address"
        },
        {
          "internalType": "uint256",
          "name": "tokenId",
          "type": "uint256"
        }
      ],
      "name": "safeTransferFrom",
      "outputs": [],
      "stateMutability": "nonpayable",
      "type": "function"
    },
    {
      "inputs": [
        {
          "internalType": "address",
          "name": "from",
          "type": "address"
        },
        {
          "internalType": "address",
          "name": "to",
          "type": "address"
        },
        {
          "internalType": "uint256",
          "name": "tokenId",
          "type": "uint256"
        },
        {
          "internalType": "bytes",
          "name": "data",
          "type": "bytes"
        }
      ],
      "name": "safeTransferFrom",
      "outputs": [],
      "stateMutability": "nonpayable",
      "type": "function"
    },
    {
      "inputs": [
        {
          "internalType": "address",
          "name": "operator",
          "type": "address"
        },
        {
          "internalType": "bool",
          "name": "approved",
          "type": "bool"
        }
      ],
      "name": "setApprovalForAll",
      "outputs": [],
      "stateMutability": "nonpayable",
      "type": "function"
    },
    {
      "inputs": [
        {
          "internalType": "bytes4",
          "name": "interfaceId",
          "type": "bytes4"
        }
      ],
      "name": "supportsInterface",
      "outputs": [
        {
          "internalType": "bool",
          "name": "",
          "type": "bool"
        }
      ],
      "stateMutability": "view",
      "type": "function"
    },
    {
      "inputs": [],
      "name": "symbol",
      "outputs": [
        {
          "internalType": "string",
          "name": "",
          "type": "string"
        }
      ],
      "stateMutability": "view",
      "type": "function"
    },
    {
      "inputs": [
        {
          "internalType": "uint256",
          "name": "tokenId",
          "type": "uint256"
        }
      ],
      "name": "tokenURI",
      "outputs": [
        {
          "internalType": "string",
          "name": "",
          "type": "string"
        }
      ],
      "stateMutability": "view",
      "type": "function"
    },
    {
      "inputs": [
        {
          "internalType": "address",
          "name": "from",
          "type": "address"
        },
        {
          "internalType": "address",
          "name": "to",
          "type": "address"
        },
        {
          "internalType": "uint256",
          "name": "tokenId",
          "type": "uint256"
        }
      ],
      "name": "transferFrom",
      "outputs": [],
      "stateMutability": "nonpayable",
      "type": "function"
    }
  ],
  "transactionHash": "0x2dcc10115b4aa779adb3a473c51b9ca97f18d2e7511977d400c42c484831322c",
  "args": [
    "Kleros V2 Neo Early User",
    "KlerosV2NeoEarlyUser"
  ],
  "numDeployments": 1,
  "solcInputHash": "db363a789eea4155c2105a5d4adf4ddb",
  "bytecode": "0x60806040523480156200001157600080fd5b506040516200168638038062001686833981016040819052620000349162000136565b818160006200004483826200022f565b5060016200005382826200022f565b5050600680546001600160a01b0319163317905550620002fb915050565b634e487b7160e01b600052604160045260246000fd5b600082601f8301126200009957600080fd5b81516001600160401b0380821115620000b657620000b662000071565b604051601f8301601f19908116603f01168101908282118183101715620000e157620000e162000071565b81604052838152602092508683858801011115620000fe57600080fd5b600091505b8382101562000122578582018301518183018401529082019062000103565b600093810190920192909252949350505050565b600080604083850312156200014a57600080fd5b82516001600160401b03808211156200016257600080fd5b620001708683870162000087565b935060208501519150808211156200018757600080fd5b50620001968582860162000087565b9150509250929050565b600181811c90821680620001b557607f821691505b602082108103620001d657634e487b7160e01b600052602260045260246000fd5b50919050565b601f8211156200022a57600081815260208120601f850160051c81016020861015620002055750805b601f850160051c820191505b81811015620002265782815560010162000211565b5050505b505050565b81516001600160401b038111156200024b576200024b62000071565b62000263816200025c8454620001a0565b84620001dc565b602080601f8311600181146200029b5760008415620002825750858301515b600019600386901b1c1916600185901b17855562000226565b600085815260208120601f198616915b82811015620002cc57888601518255948401946001909101908401620002ab565b5085821015620002eb5787850151600019600388901b60f8161c191681555b5050505050600190811b01905550565b61137b806200030b6000396000f3fe608060405234801561001057600080fd5b50600436106100e05760003560e01c806370a082311161008757806370a08231146101ae5780638da5cb5b146101cf57806395d89b41146101e2578063a22cb465146101ea578063a6f9dae1146101fd578063b88d4fde14610210578063c87b56dd14610223578063e985e9c51461023657600080fd5b806301ffc9a7146100e557806306fdde031461010d578063081812fc14610122578063095ea7b31461014d57806323b872dd1461016257806340d097c31461017557806342842e0e146101885780636352211e1461019b575b600080fd5b6100f86100f3366004610e53565b610249565b60405190151581526020015b60405180910390f35b61011561029b565b6040516101049190610ec0565b610135610130366004610ed3565b61032d565b6040516001600160a01b039091168152602001610104565b61016061015b366004610f08565b610354565b005b610160610170366004610f32565b61046e565b610160610183366004610f6e565b61049f565b610160610196366004610f32565b6104ee565b6101356101a9366004610ed3565b610509565b6101c16101bc366004610f6e565b61053e565b604051908152602001610104565b600654610135906001600160a01b031681565b6101156105c4565b6101606101f8366004610f89565b6105d3565b61016061020b366004610f6e565b6105de565b61016061021e366004610fdb565b61062a565b610115610231366004610ed3565b610662565b6100f86102443660046110b7565b6106d6565b60006001600160e01b031982166380ac58cd60e01b148061027a57506001600160e01b03198216635b5e139f60e01b145b8061029557506301ffc9a760e01b6001600160e01b03198316145b92915050565b6060600080546102aa906110ea565b80601f01602080910402602001604051908101604052809291908181526020018280546102d6906110ea565b80156103235780601f106102f857610100808354040283529160200191610323565b820191906000526020600020905b81548152906001019060200180831161030657829003601f168201915b5050505050905090565b600061033882610704565b506000908152600460205260409020546001600160a01b031690565b600061035f82610509565b9050806001600160a01b0316836001600160a01b0316036103d15760405162461bcd60e51b815260206004820152602160248201527f4552433732313a20617070726f76616c20746f2063757272656e74206f776e656044820152603960f91b60648201526084015b60405180910390fd5b336001600160a01b03821614806103ed57506103ed81336106d6565b61045f5760405162461bcd60e51b815260206004820152603d60248201527f4552433732313a20617070726f76652063616c6c6572206973206e6f7420746f60448201527f6b656e206f776e6572206f7220617070726f76656420666f7220616c6c00000060648201526084016103c8565b610469838361072c565b505050565b610478338261079a565b6104945760405162461bcd60e51b81526004016103c890611124565b6104698383836107f9565b6006546001600160a01b031633146104c95760405162461bcd60e51b81526004016103c890611171565b60078054600091826104da83611195565b9190505590506104ea828261095d565b5050565b6104698383836040518060200160405280600081525061062a565b6000818152600260205260408120546001600160a01b0316806102955760405162461bcd60e51b81526004016103c8906111bc565b60006001600160a01b0382166105a85760405162461bcd60e51b815260206004820152602960248201527f4552433732313a2061646472657373207a65726f206973206e6f7420612076616044820152683634b21037bbb732b960b91b60648201526084016103c8565b506001600160a01b031660009081526003602052604090205490565b6060600180546102aa906110ea565b6104ea338383610977565b6006546001600160a01b031633146106085760405162461bcd60e51b81526004016103c890611171565b600680546001600160a01b0319166001600160a01b0392909216919091179055565b610634338361079a565b6106505760405162461bcd60e51b81526004016103c890611124565b61065c84848484610a41565b50505050565b606061066d82610704565b600061068460408051602081019091526000815290565b905060008151116106a457604051806020016040528060008152506106cf565b806106ae84610a74565b6040516020016106bf9291906111ee565b6040516020818303038152906040525b9392505050565b6001600160a01b03918216600090815260056020908152604080832093909416825291909152205460ff1690565b61070d81610b07565b6107295760405162461bcd60e51b81526004016103c8906111bc565b50565b600081815260046020526040902080546001600160a01b0319166001600160a01b038416908117909155819061076182610509565b6001600160a01b03167f8c5be1e5ebec7d5bd14f71427d1e84f3dd0314c0f7b2291e5b200ac8c7c3b92560405160405180910390a45050565b6000806107a683610509565b9050806001600160a01b0316846001600160a01b031614806107cd57506107cd81856106d6565b806107f15750836001600160a01b03166107e68461032d565b6001600160a01b0316145b949350505050565b826001600160a01b031661080c82610509565b6001600160a01b0316146108325760405162461bcd60e51b81526004016103c89061121d565b6001600160a01b0382166108945760405162461bcd60e51b8152602060048201526024808201527f4552433732313a207472616e7366657220746f20746865207a65726f206164646044820152637265737360e01b60648201526084016103c8565b826001600160a01b03166108a782610509565b6001600160a01b0316146108cd5760405162461bcd60e51b81526004016103c89061121d565b600081815260046020908152604080832080546001600160a01b03199081169091556001600160a01b0387811680865260038552838620805460001901905590871680865283862080546001019055868652600290945282852080549092168417909155905184937fddf252ad1be2c89b69c2b068fc378daa952ba7f163c4a11628f55a4df523b3ef91a4505050565b6104ea828260405180602001604052806000815250610b24565b816001600160a01b0316836001600160a01b0316036109d45760405162461bcd60e51b815260206004820152601960248201527822a9219b99189d1030b8383937bb32903a379031b0b63632b960391b60448201526064016103c8565b6001600160a01b03838116600081815260056020908152604080832094871680845294825291829020805460ff191686151590811790915591519182527f17307eab39ab6107e8899845ad3d59bd9653f200f220920489ca2b5937696c31910160405180910390a3505050565b610a4c8484846107f9565b610a5884848484610b57565b61065c5760405162461bcd60e51b81526004016103c890611262565b60606000610a8183610c58565b600101905060008167ffffffffffffffff811115610aa157610aa1610fc5565b6040519080825280601f01601f191660200182016040528015610acb576020820181803683370190505b5090508181016020015b600019016f181899199a1a9b1b9c1cb0b131b232b360811b600a86061a8153600a8504945084610ad557509392505050565b6000908152600260205260409020546001600160a01b0316151590565b610b2e8383610d30565b610b3b6000848484610b57565b6104695760405162461bcd60e51b81526004016103c890611262565b60006001600160a01b0384163b15610c4d57604051630a85bd0160e11b81526001600160a01b0385169063150b7a0290610b9b9033908990889088906004016112b4565b6020604051808303816000875af1925050508015610bd6575060408051601f3d908101601f19168201909252610bd3918101906112f1565b60015b610c33573d808015610c04576040519150601f19603f3d011682016040523d82523d6000602084013e610c09565b606091505b508051600003610c2b5760405162461bcd60e51b81526004016103c890611262565b805181602001fd5b6001600160e01b031916630a85bd0160e11b1490506107f1565b506001949350505050565b60008072184f03e93ff9f4daa797ed6e38ed64bf6a1f0160401b8310610c975772184f03e93ff9f4daa797ed6e38ed64bf6a1f0160401b830492506040015b6d04ee2d6d415b85acef81000000008310610cc3576d04ee2d6d415b85acef8100000000830492506020015b662386f26fc100008310610ce157662386f26fc10000830492506010015b6305f5e1008310610cf9576305f5e100830492506008015b6127108310610d0d57612710830492506004015b60648310610d1f576064830492506002015b600a83106102955760010192915050565b6001600160a01b038216610d865760405162461bcd60e51b815260206004820181905260248201527f4552433732313a206d696e7420746f20746865207a65726f206164647265737360448201526064016103c8565b610d8f81610b07565b15610dac5760405162461bcd60e51b81526004016103c89061130e565b610db581610b07565b15610dd25760405162461bcd60e51b81526004016103c89061130e565b6001600160a01b038216600081815260036020908152604080832080546001019055848352600290915280822080546001600160a01b0319168417905551839291907fddf252ad1be2c89b69c2b068fc378daa952ba7f163c4a11628f55a4df523b3ef908290a45050565b6001600160e01b03198116811461072957600080fd5b600060208284031215610e6557600080fd5b81356106cf81610e3d565b60005b83811015610e8b578181015183820152602001610e73565b50506000910152565b60008151808452610eac816020860160208601610e70565b601f01601f19169290920160200192915050565b6020815260006106cf6020830184610e94565b600060208284031215610ee557600080fd5b5035919050565b80356001600160a01b0381168114610f0357600080fd5b919050565b60008060408385031215610f1b57600080fd5b610f2483610eec565b946020939093013593505050565b600080600060608486031215610f4757600080fd5b610f5084610eec565b9250610f5e60208501610eec565b9150604084013590509250925092565b600060208284031215610f8057600080fd5b6106cf82610eec565b60008060408385031215610f9c57600080fd5b610fa583610eec565b915060208301358015158114610fba57600080fd5b809150509250929050565b634e487b7160e01b600052604160045260246000fd5b60008060008060808587031215610ff157600080fd5b610ffa85610eec565b935061100860208601610eec565b925060408501359150606085013567ffffffffffffffff8082111561102c57600080fd5b818701915087601f83011261104057600080fd5b81358181111561105257611052610fc5565b604051601f8201601f19908116603f0116810190838211818310171561107a5761107a610fc5565b816040528281528a602084870101111561109357600080fd5b82602086016020830137600060208483010152809550505050505092959194509250565b600080604083850312156110ca57600080fd5b6110d383610eec565b91506110e160208401610eec565b90509250929050565b600181811c908216806110fe57607f821691505b60208210810361111e57634e487b7160e01b600052602260045260246000fd5b50919050565b6020808252602d908201527f4552433732313a2063616c6c6572206973206e6f7420746f6b656e206f776e6560408201526c1c881bdc88185c1c1c9bdd9959609a1b606082015260800190565b6020808252600a90820152694f776e6572206f6e6c7960b01b604082015260600190565b6000600182016111b557634e487b7160e01b600052601160045260246000fd5b5060010190565b602080825260189082015277115490cdcc8c4e881a5b9d985b1a59081d1bdad95b88125160421b604082015260600190565b60008351611200818460208801610e70565b835190830190611214818360208801610e70565b01949350505050565b60208082526025908201527f4552433732313a207472616e736665722066726f6d20696e636f72726563742060408201526437bbb732b960d91b606082015260800190565b60208082526032908201527f4552433732313a207472616e7366657220746f206e6f6e20455243373231526560408201527131b2b4bb32b91034b6b83632b6b2b73a32b960711b606082015260800190565b6001600160a01b03858116825284166020820152604081018390526080606082018190526000906112e790830184610e94565b9695505050505050565b60006020828403121561130357600080fd5b81516106cf81610e3d565b6020808252601c908201527f4552433732313a20746f6b656e20616c7265616479206d696e7465640000000060408201526060019056fea2646970667358221220124927ec635664d406c8f2c9da77971edac68ac87ad1da1b200f6538c3bd88a864736f6c63430008120033",
  "devdoc": {
    "events": {
      "Approval(address,address,uint256)": {
        "details": "Emitted when `owner` enables `approved` to manage the `tokenId` token."
      },
      "ApprovalForAll(address,address,bool)": {
        "details": "Emitted when `owner` enables or disables (`approved`) `operator` to manage all of its assets."
      },
      "Transfer(address,address,uint256)": {
        "details": "Emitted when `tokenId` token is transferred from `from` to `to`."
      }
    },
    "kind": "dev",
    "methods": {
      "approve(address,uint256)": {
        "details": "See {IERC721-approve}."
      },
      "balanceOf(address)": {
        "details": "See {IERC721-balanceOf}."
      },
      "getApproved(uint256)": {
        "details": "See {IERC721-getApproved}."
      },
      "isApprovedForAll(address,address)": {
        "details": "See {IERC721-isApprovedForAll}."
      },
      "name()": {
        "details": "See {IERC721Metadata-name}."
      },
      "ownerOf(uint256)": {
        "details": "See {IERC721-ownerOf}."
      },
      "safeTransferFrom(address,address,uint256)": {
        "details": "See {IERC721-safeTransferFrom}."
      },
      "safeTransferFrom(address,address,uint256,bytes)": {
        "details": "See {IERC721-safeTransferFrom}."
      },
      "setApprovalForAll(address,bool)": {
        "details": "See {IERC721-setApprovalForAll}."
      },
      "supportsInterface(bytes4)": {
        "details": "See {IERC165-supportsInterface}."
      },
      "symbol()": {
        "details": "See {IERC721Metadata-symbol}."
      },
      "tokenURI(uint256)": {
        "details": "See {IERC721Metadata-tokenURI}."
      },
      "transferFrom(address,address,uint256)": {
        "details": "See {IERC721-transferFrom}."
      }
    },
    "version": 1
  },
  "userdoc": {
    "kind": "user",
    "methods": {},
    "version": 1
  },
  "storageLayout": {
    "storage": [
      {
        "astId": 1137,
        "contract": "src/token/TestERC721.sol:TestERC721",
        "label": "_name",
        "offset": 0,
        "slot": "0",
        "type": "t_string_storage"
      },
      {
        "astId": 1139,
        "contract": "src/token/TestERC721.sol:TestERC721",
        "label": "_symbol",
        "offset": 0,
        "slot": "1",
        "type": "t_string_storage"
      },
      {
        "astId": 1143,
        "contract": "src/token/TestERC721.sol:TestERC721",
        "label": "_owners",
        "offset": 0,
        "slot": "2",
        "type": "t_mapping(t_uint256,t_address)"
      },
      {
        "astId": 1147,
        "contract": "src/token/TestERC721.sol:TestERC721",
        "label": "_balances",
        "offset": 0,
        "slot": "3",
        "type": "t_mapping(t_address,t_uint256)"
      },
      {
        "astId": 1151,
        "contract": "src/token/TestERC721.sol:TestERC721",
        "label": "_tokenApprovals",
        "offset": 0,
        "slot": "4",
        "type": "t_mapping(t_uint256,t_address)"
      },
      {
        "astId": 1157,
        "contract": "src/token/TestERC721.sol:TestERC721",
        "label": "_operatorApprovals",
        "offset": 0,
        "slot": "5",
        "type": "t_mapping(t_address,t_mapping(t_address,t_bool))"
      },
      {
        "astId": 31164,
        "contract": "src/token/TestERC721.sol:TestERC721",
        "label": "owner",
        "offset": 0,
        "slot": "6",
        "type": "t_address"
      },
      {
        "astId": 31166,
        "contract": "src/token/TestERC721.sol:TestERC721",
        "label": "_nextTokenId",
        "offset": 0,
        "slot": "7",
        "type": "t_uint256"
      }
    ],
    "types": {
      "t_address": {
        "encoding": "inplace",
        "label": "address",
        "numberOfBytes": "20"
      },
      "t_bool": {
        "encoding": "inplace",
        "label": "bool",
        "numberOfBytes": "1"
      },
      "t_mapping(t_address,t_bool)": {
        "encoding": "mapping",
        "key": "t_address",
        "label": "mapping(address => bool)",
        "numberOfBytes": "32",
        "value": "t_bool"
      },
      "t_mapping(t_address,t_mapping(t_address,t_bool))": {
        "encoding": "mapping",
        "key": "t_address",
        "label": "mapping(address => mapping(address => bool))",
        "numberOfBytes": "32",
        "value": "t_mapping(t_address,t_bool)"
      },
      "t_mapping(t_address,t_uint256)": {
        "encoding": "mapping",
        "key": "t_address",
        "label": "mapping(address => uint256)",
        "numberOfBytes": "32",
        "value": "t_uint256"
      },
      "t_mapping(t_uint256,t_address)": {
        "encoding": "mapping",
        "key": "t_uint256",
        "label": "mapping(uint256 => address)",
        "numberOfBytes": "32",
        "value": "t_address"
      },
      "t_string_storage": {
        "encoding": "bytes",
        "label": "string",
        "numberOfBytes": "32"
      },
      "t_uint256": {
        "encoding": "inplace",
        "label": "uint256",
        "numberOfBytes": "32"
      }
    }
  }
}