{
  "address": "0x3bE96b7eAF6A3640DBa1f7CE58776D5b790B74CB",
  "abi": [
    {
      "inputs": [],
      "stateMutability": "nonpayable",
      "type": "constructor"
    },
    {
      "inputs": [],
      "name": "AlreadyInitialized",
      "type": "error"
    },
    {
      "inputs": [],
      "name": "AppealFeesNotEnough",
      "type": "error"
    },
    {
      "inputs": [],
      "name": "AppealPeriodNotPassed",
      "type": "error"
    },
    {
      "inputs": [],
      "name": "ArbitrableNotWhitelisted",
      "type": "error"
    },
    {
      "inputs": [],
      "name": "ArbitrationFeesNotEnough",
      "type": "error"
    },
    {
      "inputs": [],
      "name": "ArraysLengthMismatch",
      "type": "error"
    },
    {
      "inputs": [],
      "name": "CannotDisableClassicDK",
      "type": "error"
    },
    {
      "inputs": [],
      "name": "CommitPeriodNotPassed",
      "type": "error"
    },
    {
      "inputs": [],
      "name": "DepthLevelMax",
      "type": "error"
    },
    {
      "inputs": [],
      "name": "DisputeKitNotSupportedByCourt",
      "type": "error"
    },
    {
      "inputs": [],
      "name": "DisputeKitOnly",
      "type": "error"
    },
    {
      "inputs": [],
      "name": "DisputeNotAppealable",
      "type": "error"
    },
    {
      "inputs": [],
      "name": "DisputePeriodIsFinal",
      "type": "error"
    },
    {
      "inputs": [],
      "name": "DisputeStillDrawing",
      "type": "error"
    },
    {
      "inputs": [],
      "name": "EvidenceNotPassedAndNotAppeal",
      "type": "error"
    },
    {
      "inputs": [],
      "name": "FailedDelegateCall",
      "type": "error"
    },
    {
      "inputs": [],
      "name": "GovernorOnly",
      "type": "error"
    },
    {
      "inputs": [],
      "name": "GuardianOrGovernorOnly",
      "type": "error"
    },
    {
      "inputs": [],
      "name": "InvalidDisputKitParent",
      "type": "error"
    },
    {
      "inputs": [],
      "name": "InvalidForkingCourtAsParent",
      "type": "error"
    },
    {
      "inputs": [
        {
          "internalType": "address",
          "name": "implementation",
          "type": "address"
        }
      ],
      "name": "InvalidImplementation",
      "type": "error"
    },
    {
      "inputs": [],
      "name": "MinStakeLowerThanParentCourt",
      "type": "error"
    },
    {
      "inputs": [],
      "name": "MustSupportDisputeKitClassic",
      "type": "error"
    },
    {
      "inputs": [],
      "name": "NotEligibleForStaking",
      "type": "error"
    },
    {
      "inputs": [],
      "name": "NotEvidencePeriod",
      "type": "error"
    },
    {
      "inputs": [],
      "name": "NotExecutionPeriod",
      "type": "error"
    },
    {
      "inputs": [],
      "name": "NotInitializing",
      "type": "error"
    },
    {
      "inputs": [],
      "name": "RulingAlreadyExecuted",
      "type": "error"
    },
    {
      "inputs": [],
      "name": "SortitionModuleOnly",
      "type": "error"
    },
    {
      "inputs": [],
      "name": "StakingInTooManyCourts",
      "type": "error"
    },
    {
      "inputs": [],
      "name": "StakingLessThanCourtMinStake",
      "type": "error"
    },
    {
      "inputs": [],
      "name": "StakingMoreThanMaxStakePerJuror",
      "type": "error"
    },
    {
      "inputs": [],
      "name": "StakingMoreThanMaxTotalStaked",
      "type": "error"
    },
    {
      "inputs": [],
      "name": "StakingNotPossibeInThisCourt",
      "type": "error"
    },
    {
      "inputs": [],
      "name": "StakingTransferFailed",
      "type": "error"
    },
    {
      "inputs": [],
      "name": "TokenNotAccepted",
      "type": "error"
    },
    {
      "inputs": [],
      "name": "TransferFailed",
      "type": "error"
    },
    {
      "inputs": [],
      "name": "UUPSUnauthorizedCallContext",
      "type": "error"
    },
    {
      "inputs": [
        {
          "internalType": "bytes32",
          "name": "slot",
          "type": "bytes32"
        }
      ],
      "name": "UUPSUnsupportedProxiableUUID",
      "type": "error"
    },
    {
      "inputs": [],
      "name": "UnstakingTransferFailed",
      "type": "error"
    },
    {
      "inputs": [],
      "name": "UnsuccessfulCall",
      "type": "error"
    },
    {
      "inputs": [],
      "name": "UnsupportedDisputeKit",
      "type": "error"
    },
    {
      "inputs": [],
      "name": "VotePeriodNotPassed",
      "type": "error"
    },
    {
      "inputs": [],
      "name": "WhenNotPausedOnly",
      "type": "error"
    },
    {
      "inputs": [],
      "name": "WhenPausedOnly",
      "type": "error"
    },
    {
      "inputs": [],
      "name": "WrongDisputeKitIndex",
      "type": "error"
    },
    {
      "anonymous": false,
      "inputs": [
        {
          "indexed": true,
          "internalType": "contract IERC20",
          "name": "_token",
          "type": "address"
        },
        {
          "indexed": true,
          "internalType": "bool",
          "name": "_accepted",
          "type": "bool"
        }
      ],
      "name": "AcceptedFeeToken",
      "type": "event"
    },
    {
      "anonymous": false,
      "inputs": [
        {
          "indexed": true,
          "internalType": "uint256",
          "name": "_disputeID",
          "type": "uint256"
        },
        {
          "indexed": true,
          "internalType": "contract IArbitrableV2",
          "name": "_arbitrable",
          "type": "address"
        }
      ],
      "name": "AppealDecision",
      "type": "event"
    },
    {
      "anonymous": false,
      "inputs": [
        {
          "indexed": true,
          "internalType": "uint256",
          "name": "_disputeID",
          "type": "uint256"
        },
        {
          "indexed": true,
          "internalType": "contract IArbitrableV2",
          "name": "_arbitrable",
          "type": "address"
        }
      ],
      "name": "AppealPossible",
      "type": "event"
    },
    {
      "anonymous": false,
      "inputs": [
        {
          "indexed": true,
          "internalType": "uint256",
          "name": "_courtID",
          "type": "uint256"
        },
        {
          "indexed": true,
          "internalType": "uint96",
          "name": "_parent",
          "type": "uint96"
        },
        {
          "indexed": false,
          "internalType": "bool",
          "name": "_hiddenVotes",
          "type": "bool"
        },
        {
          "indexed": false,
          "internalType": "uint256",
          "name": "_minStake",
          "type": "uint256"
        },
        {
          "indexed": false,
          "internalType": "uint256",
          "name": "_alpha",
          "type": "uint256"
        },
        {
          "indexed": false,
          "internalType": "uint256",
          "name": "_feeForJuror",
          "type": "uint256"
        },
        {
          "indexed": false,
          "internalType": "uint256",
          "name": "_jurorsForCourtJump",
          "type": "uint256"
        },
        {
          "indexed": false,
          "internalType": "uint256[4]",
          "name": "_timesPerPeriod",
          "type": "uint256[4]"
        },
        {
          "indexed": false,
          "internalType": "uint256[]",
          "name": "_supportedDisputeKits",
          "type": "uint256[]"
        }
      ],
      "name": "CourtCreated",
      "type": "event"
    },
    {
      "anonymous": false,
      "inputs": [
        {
          "indexed": true,
          "internalType": "uint256",
          "name": "_disputeID",
          "type": "uint256"
        },
        {
          "indexed": true,
          "internalType": "uint256",
          "name": "_roundID",
          "type": "uint256"
        },
        {
          "indexed": true,
          "internalType": "uint96",
          "name": "_fromCourtID",
          "type": "uint96"
        },
        {
          "indexed": false,
          "internalType": "uint96",
          "name": "_toCourtID",
          "type": "uint96"
        }
      ],
      "name": "CourtJump",
      "type": "event"
    },
    {
      "anonymous": false,
      "inputs": [
        {
          "indexed": true,
          "internalType": "uint96",
          "name": "_courtID",
          "type": "uint96"
        },
        {
          "indexed": false,
          "internalType": "bool",
          "name": "_hiddenVotes",
          "type": "bool"
        },
        {
          "indexed": false,
          "internalType": "uint256",
          "name": "_minStake",
          "type": "uint256"
        },
        {
          "indexed": false,
          "internalType": "uint256",
          "name": "_alpha",
          "type": "uint256"
        },
        {
          "indexed": false,
          "internalType": "uint256",
          "name": "_feeForJuror",
          "type": "uint256"
        },
        {
          "indexed": false,
          "internalType": "uint256",
          "name": "_jurorsForCourtJump",
          "type": "uint256"
        },
        {
          "indexed": false,
          "internalType": "uint256[4]",
          "name": "_timesPerPeriod",
          "type": "uint256[4]"
        }
      ],
      "name": "CourtModified",
      "type": "event"
    },
    {
      "anonymous": false,
      "inputs": [
        {
          "indexed": true,
          "internalType": "uint256",
          "name": "_disputeID",
          "type": "uint256"
        },
        {
          "indexed": true,
          "internalType": "contract IArbitrableV2",
          "name": "_arbitrable",
          "type": "address"
        }
      ],
      "name": "DisputeCreation",
      "type": "event"
    },
    {
      "anonymous": false,
      "inputs": [
        {
          "indexed": true,
          "internalType": "uint256",
          "name": "_disputeKitID",
          "type": "uint256"
        },
        {
          "indexed": true,
          "internalType": "contract IDisputeKit",
          "name": "_disputeKitAddress",
          "type": "address"
        }
      ],
      "name": "DisputeKitCreated",
      "type": "event"
    },
    {
      "anonymous": false,
      "inputs": [
        {
          "indexed": true,
          "internalType": "uint96",
          "name": "_courtID",
          "type": "uint96"
        },
        {
          "indexed": true,
          "internalType": "uint256",
          "name": "_disputeKitID",
          "type": "uint256"
        },
        {
          "indexed": true,
          "internalType": "bool",
          "name": "_enable",
          "type": "bool"
        }
      ],
      "name": "DisputeKitEnabled",
      "type": "event"
    },
    {
      "anonymous": false,
      "inputs": [
        {
          "indexed": true,
          "internalType": "uint256",
          "name": "_disputeID",
          "type": "uint256"
        },
        {
          "indexed": true,
          "internalType": "uint256",
          "name": "_roundID",
          "type": "uint256"
        },
        {
          "indexed": true,
          "internalType": "uint256",
          "name": "_fromDisputeKitID",
          "type": "uint256"
        },
        {
          "indexed": false,
          "internalType": "uint256",
          "name": "_toDisputeKitID",
          "type": "uint256"
        }
      ],
      "name": "DisputeKitJump",
      "type": "event"
    },
    {
      "anonymous": false,
      "inputs": [
        {
          "indexed": true,
          "internalType": "address",
          "name": "_address",
          "type": "address"
        },
        {
          "indexed": true,
          "internalType": "uint256",
          "name": "_disputeID",
          "type": "uint256"
        },
        {
          "indexed": false,
          "internalType": "uint256",
          "name": "_roundID",
          "type": "uint256"
        },
        {
          "indexed": false,
          "internalType": "uint256",
          "name": "_voteID",
          "type": "uint256"
        }
      ],
      "name": "Draw",
      "type": "event"
    },
    {
      "anonymous": false,
      "inputs": [
        {
          "indexed": false,
          "internalType": "uint64",
          "name": "version",
          "type": "uint64"
        }
      ],
      "name": "Initialized",
      "type": "event"
    },
    {
      "anonymous": false,
      "inputs": [
        {
          "indexed": true,
          "internalType": "uint256",
          "name": "_disputeID",
          "type": "uint256"
        },
        {
          "indexed": true,
          "internalType": "uint256",
          "name": "_roundID",
          "type": "uint256"
        },
        {
          "indexed": false,
          "internalType": "uint256",
          "name": "_pnkAmount",
          "type": "uint256"
        },
        {
          "indexed": false,
          "internalType": "uint256",
          "name": "_feeAmount",
          "type": "uint256"
        },
        {
          "indexed": false,
          "internalType": "contract IERC20",
          "name": "_feeToken",
          "type": "address"
        }
      ],
      "name": "LeftoverRewardSent",
      "type": "event"
    },
    {
      "anonymous": false,
      "inputs": [
        {
          "indexed": true,
          "internalType": "contract IERC20",
          "name": "_feeToken",
          "type": "address"
        },
        {
          "indexed": false,
          "internalType": "uint64",
          "name": "_rateInEth",
          "type": "uint64"
        },
        {
          "indexed": false,
          "internalType": "uint8",
          "name": "_rateDecimals",
          "type": "uint8"
        }
      ],
      "name": "NewCurrencyRate",
      "type": "event"
    },
    {
      "anonymous": false,
      "inputs": [
        {
          "indexed": true,
          "internalType": "uint256",
          "name": "_disputeID",
          "type": "uint256"
        },
        {
          "indexed": false,
          "internalType": "enum KlerosCoreBase.Period",
          "name": "_period",
          "type": "uint8"
        }
      ],
      "name": "NewPeriod",
      "type": "event"
    },
    {
      "anonymous": false,
      "inputs": [],
      "name": "Paused",
      "type": "event"
    },
    {
      "anonymous": false,
      "inputs": [
        {
          "indexed": true,
          "internalType": "contract IArbitrableV2",
          "name": "_arbitrable",
          "type": "address"
        },
        {
          "indexed": true,
          "internalType": "uint256",
          "name": "_disputeID",
          "type": "uint256"
        },
        {
          "indexed": false,
          "internalType": "uint256",
          "name": "_ruling",
          "type": "uint256"
        }
      ],
      "name": "Ruling",
      "type": "event"
    },
    {
      "anonymous": false,
      "inputs": [
        {
          "indexed": true,
          "internalType": "address",
          "name": "_account",
          "type": "address"
        },
        {
          "indexed": true,
          "internalType": "uint256",
          "name": "_disputeID",
          "type": "uint256"
        },
        {
          "indexed": true,
          "internalType": "uint256",
          "name": "_roundID",
          "type": "uint256"
        },
        {
          "indexed": false,
          "internalType": "uint256",
          "name": "_degreeOfCoherency",
          "type": "uint256"
        },
        {
          "indexed": false,
          "internalType": "int256",
          "name": "_pnkAmount",
          "type": "int256"
        },
        {
          "indexed": false,
          "internalType": "int256",
          "name": "_feeAmount",
          "type": "int256"
        },
        {
          "indexed": false,
          "internalType": "contract IERC20",
          "name": "_feeToken",
          "type": "address"
        }
      ],
      "name": "TokenAndETHShift",
      "type": "event"
    },
    {
      "anonymous": false,
      "inputs": [],
      "name": "Unpaused",
      "type": "event"
    },
    {
      "anonymous": false,
      "inputs": [
        {
          "indexed": true,
          "internalType": "address",
          "name": "newImplementation",
          "type": "address"
        }
      ],
      "name": "Upgraded",
      "type": "event"
    },
    {
      "inputs": [
        {
          "internalType": "contract IDisputeKit",
          "name": "_disputeKitAddress",
          "type": "address"
        }
      ],
      "name": "addNewDisputeKit",
      "outputs": [],
      "stateMutability": "nonpayable",
      "type": "function"
    },
    {
      "inputs": [
        {
          "internalType": "uint256",
          "name": "_disputeID",
          "type": "uint256"
        },
        {
          "internalType": "uint256",
          "name": "_numberOfChoices",
          "type": "uint256"
        },
        {
          "internalType": "bytes",
          "name": "_extraData",
          "type": "bytes"
        }
      ],
      "name": "appeal",
      "outputs": [],
      "stateMutability": "payable",
      "type": "function"
    },
    {
      "inputs": [
        {
          "internalType": "uint256",
          "name": "_disputeID",
          "type": "uint256"
        }
      ],
      "name": "appealCost",
      "outputs": [
        {
          "internalType": "uint256",
          "name": "cost",
          "type": "uint256"
        }
      ],
      "stateMutability": "view",
      "type": "function"
    },
    {
      "inputs": [
        {
          "internalType": "uint256",
          "name": "_disputeID",
          "type": "uint256"
        }
      ],
      "name": "appealPeriod",
      "outputs": [
        {
          "internalType": "uint256",
          "name": "start",
          "type": "uint256"
        },
        {
          "internalType": "uint256",
          "name": "end",
          "type": "uint256"
        }
      ],
      "stateMutability": "view",
      "type": "function"
    },
    {
      "inputs": [
        {
          "internalType": "address",
          "name": "",
          "type": "address"
        }
      ],
      "name": "arbitrableWhitelist",
      "outputs": [
        {
          "internalType": "bool",
          "name": "",
          "type": "bool"
        }
      ],
      "stateMutability": "view",
      "type": "function"
    },
    {
      "inputs": [
        {
          "internalType": "bytes",
          "name": "_extraData",
          "type": "bytes"
        },
        {
          "internalType": "contract IERC20",
          "name": "_feeToken",
          "type": "address"
        }
      ],
      "name": "arbitrationCost",
      "outputs": [
        {
          "internalType": "uint256",
          "name": "cost",
          "type": "uint256"
        }
      ],
      "stateMutability": "view",
      "type": "function"
    },
    {
      "inputs": [
        {
          "internalType": "bytes",
          "name": "_extraData",
          "type": "bytes"
        }
      ],
      "name": "arbitrationCost",
      "outputs": [
        {
          "internalType": "uint256",
          "name": "cost",
          "type": "uint256"
        }
      ],
      "stateMutability": "view",
      "type": "function"
    },
    {
      "inputs": [
        {
          "internalType": "contract IERC20",
          "name": "_feeToken",
          "type": "address"
        },
        {
          "internalType": "bool",
          "name": "_accepted",
          "type": "bool"
        }
      ],
      "name": "changeAcceptedFeeTokens",
      "outputs": [],
      "stateMutability": "nonpayable",
      "type": "function"
    },
    {
      "inputs": [
        {
          "internalType": "address",
          "name": "_arbitrable",
          "type": "address"
        },
        {
          "internalType": "bool",
          "name": "_allowed",
          "type": "bool"
        }
      ],
      "name": "changeArbitrableWhitelist",
      "outputs": [],
      "stateMutability": "nonpayable",
      "type": "function"
    },
    {
      "inputs": [
        {
          "internalType": "uint96",
          "name": "_courtID",
          "type": "uint96"
        },
        {
          "internalType": "bool",
          "name": "_hiddenVotes",
          "type": "bool"
        },
        {
          "internalType": "uint256",
          "name": "_minStake",
          "type": "uint256"
        },
        {
          "internalType": "uint256",
          "name": "_alpha",
          "type": "uint256"
        },
        {
          "internalType": "uint256",
          "name": "_feeForJuror",
          "type": "uint256"
        },
        {
          "internalType": "uint256",
          "name": "_jurorsForCourtJump",
          "type": "uint256"
        },
        {
          "internalType": "uint256[4]",
          "name": "_timesPerPeriod",
          "type": "uint256[4]"
        }
      ],
      "name": "changeCourtParameters",
      "outputs": [],
      "stateMutability": "nonpayable",
      "type": "function"
    },
    {
      "inputs": [
        {
          "internalType": "contract IERC20",
          "name": "_feeToken",
          "type": "address"
        },
        {
          "internalType": "uint64",
          "name": "_rateInEth",
          "type": "uint64"
        },
        {
          "internalType": "uint8",
          "name": "_rateDecimals",
          "type": "uint8"
        }
      ],
      "name": "changeCurrencyRates",
      "outputs": [],
      "stateMutability": "nonpayable",
      "type": "function"
    },
    {
      "inputs": [
        {
          "internalType": "address payable",
          "name": "_governor",
          "type": "address"
        }
      ],
      "name": "changeGovernor",
      "outputs": [],
      "stateMutability": "nonpayable",
      "type": "function"
    },
    {
      "inputs": [
        {
          "internalType": "address",
          "name": "_guardian",
          "type": "address"
        }
      ],
      "name": "changeGuardian",
      "outputs": [],
      "stateMutability": "nonpayable",
      "type": "function"
    },
    {
      "inputs": [
        {
          "internalType": "contract IERC721",
          "name": "_jurorNft",
          "type": "address"
        }
      ],
      "name": "changeJurorNft",
      "outputs": [],
      "stateMutability": "nonpayable",
      "type": "function"
    },
    {
      "inputs": [
        {
          "internalType": "address",
          "name": "_jurorProsecutionModule",
          "type": "address"
        }
      ],
      "name": "changeJurorProsecutionModule",
      "outputs": [],
      "stateMutability": "nonpayable",
      "type": "function"
    },
    {
      "inputs": [
        {
          "internalType": "contract IERC20",
          "name": "_pinakion",
          "type": "address"
        }
      ],
      "name": "changePinakion",
      "outputs": [],
      "stateMutability": "nonpayable",
      "type": "function"
    },
    {
      "inputs": [
        {
          "internalType": "contract ISortitionModule",
          "name": "_sortitionModule",
          "type": "address"
        }
      ],
      "name": "changeSortitionModule",
      "outputs": [],
      "stateMutability": "nonpayable",
      "type": "function"
    },
    {
      "inputs": [
        {
          "internalType": "contract IERC20",
          "name": "_toToken",
          "type": "address"
        },
        {
          "internalType": "uint256",
          "name": "_amountInEth",
          "type": "uint256"
        }
      ],
      "name": "convertEthToTokenAmount",
      "outputs": [
        {
          "internalType": "uint256",
          "name": "",
          "type": "uint256"
        }
      ],
      "stateMutability": "view",
      "type": "function"
    },
    {
      "inputs": [
        {
          "internalType": "uint256",
          "name": "",
          "type": "uint256"
        }
      ],
      "name": "courts",
      "outputs": [
        {
          "internalType": "uint96",
          "name": "parent",
          "type": "uint96"
        },
        {
          "internalType": "bool",
          "name": "hiddenVotes",
          "type": "bool"
        },
        {
          "internalType": "uint256",
          "name": "minStake",
          "type": "uint256"
        },
        {
          "internalType": "uint256",
          "name": "alpha",
          "type": "uint256"
        },
        {
          "internalType": "uint256",
          "name": "feeForJuror",
          "type": "uint256"
        },
        {
          "internalType": "uint256",
          "name": "jurorsForCourtJump",
          "type": "uint256"
        },
        {
          "internalType": "bool",
          "name": "disabled",
          "type": "bool"
        }
      ],
      "stateMutability": "view",
      "type": "function"
    },
    {
      "inputs": [
        {
          "internalType": "uint96",
          "name": "_parent",
          "type": "uint96"
        },
        {
          "internalType": "bool",
          "name": "_hiddenVotes",
          "type": "bool"
        },
        {
          "internalType": "uint256",
          "name": "_minStake",
          "type": "uint256"
        },
        {
          "internalType": "uint256",
          "name": "_alpha",
          "type": "uint256"
        },
        {
          "internalType": "uint256",
          "name": "_feeForJuror",
          "type": "uint256"
        },
        {
          "internalType": "uint256",
          "name": "_jurorsForCourtJump",
          "type": "uint256"
        },
        {
          "internalType": "uint256[4]",
          "name": "_timesPerPeriod",
          "type": "uint256[4]"
        },
        {
          "internalType": "bytes",
          "name": "_sortitionExtraData",
          "type": "bytes"
        },
        {
          "internalType": "uint256[]",
          "name": "_supportedDisputeKits",
          "type": "uint256[]"
        }
      ],
      "name": "createCourt",
      "outputs": [],
      "stateMutability": "nonpayable",
      "type": "function"
    },
    {
      "inputs": [
        {
          "internalType": "uint256",
          "name": "_numberOfChoices",
          "type": "uint256"
        },
        {
          "internalType": "bytes",
          "name": "_extraData",
          "type": "bytes"
        }
      ],
      "name": "createDispute",
      "outputs": [
        {
          "internalType": "uint256",
          "name": "disputeID",
          "type": "uint256"
        }
      ],
      "stateMutability": "payable",
      "type": "function"
    },
    {
      "inputs": [
        {
          "internalType": "uint256",
          "name": "_numberOfChoices",
          "type": "uint256"
        },
        {
          "internalType": "bytes",
          "name": "_extraData",
          "type": "bytes"
        },
        {
          "internalType": "contract IERC20",
          "name": "_feeToken",
          "type": "address"
        },
        {
          "internalType": "uint256",
          "name": "_feeAmount",
          "type": "uint256"
        }
      ],
      "name": "createDispute",
      "outputs": [
        {
          "internalType": "uint256",
          "name": "disputeID",
          "type": "uint256"
        }
      ],
      "stateMutability": "nonpayable",
      "type": "function"
    },
    {
      "inputs": [
        {
          "internalType": "contract IERC20",
          "name": "",
          "type": "address"
        }
      ],
      "name": "currencyRates",
      "outputs": [
        {
          "internalType": "bool",
          "name": "feePaymentAccepted",
          "type": "bool"
        },
        {
          "internalType": "uint64",
          "name": "rateInEth",
          "type": "uint64"
        },
        {
          "internalType": "uint8",
          "name": "rateDecimals",
          "type": "uint8"
        }
      ],
      "stateMutability": "view",
      "type": "function"
    },
    {
      "inputs": [
        {
          "internalType": "uint256",
          "name": "_disputeID",
          "type": "uint256"
        }
      ],
      "name": "currentRuling",
      "outputs": [
        {
          "internalType": "uint256",
          "name": "ruling",
          "type": "uint256"
        },
        {
          "internalType": "bool",
          "name": "tied",
          "type": "bool"
        },
        {
          "internalType": "bool",
          "name": "overridden",
          "type": "bool"
        }
      ],
      "stateMutability": "view",
      "type": "function"
    },
    {
      "inputs": [
        {
          "internalType": "uint256",
          "name": "",
          "type": "uint256"
        }
      ],
      "name": "disputeKits",
      "outputs": [
        {
          "internalType": "contract IDisputeKit",
          "name": "",
          "type": "address"
        }
      ],
      "stateMutability": "view",
      "type": "function"
    },
    {
      "inputs": [
        {
          "internalType": "uint256",
          "name": "",
          "type": "uint256"
        }
      ],
      "name": "disputes",
      "outputs": [
        {
          "internalType": "uint96",
          "name": "courtID",
          "type": "uint96"
        },
        {
          "internalType": "contract IArbitrableV2",
          "name": "arbitrated",
          "type": "address"
        },
        {
          "internalType": "enum KlerosCoreBase.Period",
          "name": "period",
          "type": "uint8"
        },
        {
          "internalType": "bool",
          "name": "ruled",
          "type": "bool"
        },
        {
          "internalType": "uint256",
          "name": "lastPeriodChange",
          "type": "uint256"
        }
      ],
      "stateMutability": "view",
      "type": "function"
    },
    {
      "inputs": [
        {
          "internalType": "uint256",
          "name": "_disputeID",
          "type": "uint256"
        },
        {
          "internalType": "uint256",
          "name": "_iterations",
          "type": "uint256"
        }
      ],
      "name": "draw",
      "outputs": [],
      "stateMutability": "nonpayable",
      "type": "function"
    },
    {
      "inputs": [
        {
          "internalType": "uint96",
          "name": "_courtID",
          "type": "uint96"
        },
        {
          "internalType": "uint256[]",
          "name": "_disputeKitIDs",
          "type": "uint256[]"
        },
        {
          "internalType": "bool",
          "name": "_enable",
          "type": "bool"
        }
      ],
      "name": "enableDisputeKits",
      "outputs": [],
      "stateMutability": "nonpayable",
      "type": "function"
    },
    {
      "inputs": [
        {
          "internalType": "uint256",
          "name": "_disputeID",
          "type": "uint256"
        },
        {
          "internalType": "uint256",
          "name": "_round",
          "type": "uint256"
        },
        {
          "internalType": "uint256",
          "name": "_iterations",
          "type": "uint256"
        }
      ],
      "name": "execute",
      "outputs": [],
      "stateMutability": "nonpayable",
      "type": "function"
    },
    {
      "inputs": [
        {
          "internalType": "address",
          "name": "_destination",
          "type": "address"
        },
        {
          "internalType": "uint256",
          "name": "_amount",
          "type": "uint256"
        },
        {
          "internalType": "bytes",
          "name": "_data",
          "type": "bytes"
        }
      ],
      "name": "executeGovernorProposal",
      "outputs": [],
      "stateMutability": "nonpayable",
      "type": "function"
    },
    {
      "inputs": [
        {
          "internalType": "uint256",
          "name": "_disputeID",
          "type": "uint256"
        }
      ],
      "name": "executeRuling",
      "outputs": [],
      "stateMutability": "nonpayable",
      "type": "function"
    },
    {
      "inputs": [],
      "name": "getDisputeKitsLength",
      "outputs": [
        {
          "internalType": "uint256",
          "name": "",
          "type": "uint256"
        }
      ],
      "stateMutability": "view",
      "type": "function"
    },
    {
      "inputs": [
        {
          "internalType": "uint256",
          "name": "_disputeID",
          "type": "uint256"
        }
      ],
      "name": "getNumberOfRounds",
      "outputs": [
        {
          "internalType": "uint256",
          "name": "",
          "type": "uint256"
        }
      ],
      "stateMutability": "view",
      "type": "function"
    },
    {
      "inputs": [
        {
          "internalType": "uint256",
          "name": "_disputeID",
          "type": "uint256"
        }
      ],
      "name": "getNumberOfVotes",
      "outputs": [
        {
          "internalType": "uint256",
          "name": "",
          "type": "uint256"
        }
      ],
      "stateMutability": "view",
      "type": "function"
    },
    {
      "inputs": [
        {
          "internalType": "uint256",
          "name": "_disputeID",
          "type": "uint256"
        },
        {
          "internalType": "uint256",
          "name": "_round",
          "type": "uint256"
        }
      ],
      "name": "getRoundInfo",
      "outputs": [
        {
          "components": [
            {
              "internalType": "uint256",
              "name": "disputeKitID",
              "type": "uint256"
            },
            {
              "internalType": "uint256",
              "name": "pnkAtStakePerJuror",
              "type": "uint256"
            },
            {
              "internalType": "uint256",
              "name": "totalFeesForJurors",
              "type": "uint256"
            },
            {
              "internalType": "uint256",
              "name": "nbVotes",
              "type": "uint256"
            },
            {
              "internalType": "uint256",
              "name": "repartitions",
              "type": "uint256"
            },
            {
              "internalType": "uint256",
              "name": "pnkPenalties",
              "type": "uint256"
            },
            {
              "internalType": "address[]",
              "name": "drawnJurors",
              "type": "address[]"
            },
            {
              "internalType": "uint256",
              "name": "sumFeeRewardPaid",
              "type": "uint256"
            },
            {
              "internalType": "uint256",
              "name": "sumPnkRewardPaid",
              "type": "uint256"
            },
            {
              "internalType": "contract IERC20",
              "name": "feeToken",
              "type": "address"
            },
            {
              "internalType": "uint256",
              "name": "drawIterations",
              "type": "uint256"
            }
          ],
          "internalType": "struct KlerosCoreBase.Round",
          "name": "",
          "type": "tuple"
        }
      ],
      "stateMutability": "view",
      "type": "function"
    },
    {
      "inputs": [
        {
          "internalType": "uint96",
          "name": "_courtID",
          "type": "uint96"
        }
      ],
      "name": "getTimesPerPeriod",
      "outputs": [
        {
          "internalType": "uint256[4]",
          "name": "timesPerPeriod",
          "type": "uint256[4]"
        }
      ],
      "stateMutability": "view",
      "type": "function"
    },
    {
      "inputs": [],
      "name": "governor",
      "outputs": [
        {
          "internalType": "address",
          "name": "",
          "type": "address"
        }
      ],
      "stateMutability": "view",
      "type": "function"
    },
    {
      "inputs": [],
      "name": "guardian",
      "outputs": [
        {
          "internalType": "address",
          "name": "",
          "type": "address"
        }
      ],
      "stateMutability": "view",
      "type": "function"
    },
    {
      "inputs": [
        {
          "internalType": "address",
          "name": "_governor",
          "type": "address"
        },
        {
          "internalType": "address",
          "name": "_guardian",
          "type": "address"
        },
        {
          "internalType": "contract IERC20",
          "name": "_pinakion",
          "type": "address"
        },
        {
          "internalType": "address",
          "name": "_jurorProsecutionModule",
          "type": "address"
        },
        {
          "internalType": "contract IDisputeKit",
          "name": "_disputeKit",
          "type": "address"
        },
        {
          "internalType": "bool",
          "name": "_hiddenVotes",
          "type": "bool"
        },
        {
          "internalType": "uint256[4]",
          "name": "_courtParameters",
          "type": "uint256[4]"
        },
        {
          "internalType": "uint256[4]",
          "name": "_timesPerPeriod",
          "type": "uint256[4]"
        },
        {
          "internalType": "bytes",
          "name": "_sortitionExtraData",
          "type": "bytes"
        },
        {
          "internalType": "contract ISortitionModule",
          "name": "_sortitionModuleAddress",
          "type": "address"
        },
        {
          "internalType": "contract IERC721",
          "name": "_jurorNft",
          "type": "address"
        }
      ],
      "name": "initialize",
      "outputs": [],
      "stateMutability": "nonpayable",
      "type": "function"
    },
    {
      "inputs": [
        {
          "internalType": "uint256",
          "name": "_disputeID",
          "type": "uint256"
        }
      ],
      "name": "isDisputeKitJumping",
      "outputs": [
        {
          "internalType": "bool",
          "name": "",
          "type": "bool"
        }
      ],
      "stateMutability": "view",
      "type": "function"
    },
    {
      "inputs": [
        {
          "internalType": "uint96",
          "name": "_courtID",
          "type": "uint96"
        },
        {
          "internalType": "uint256",
          "name": "_disputeKitID",
          "type": "uint256"
        }
      ],
      "name": "isSupported",
      "outputs": [
        {
          "internalType": "bool",
          "name": "",
          "type": "bool"
        }
      ],
      "stateMutability": "view",
      "type": "function"
    },
    {
      "inputs": [],
      "name": "jurorNft",
      "outputs": [
        {
          "internalType": "contract IERC721",
          "name": "",
          "type": "address"
        }
      ],
      "stateMutability": "view",
      "type": "function"
    },
    {
      "inputs": [],
      "name": "jurorProsecutionModule",
      "outputs": [
        {
          "internalType": "address",
          "name": "",
          "type": "address"
        }
      ],
      "stateMutability": "view",
      "type": "function"
    },
    {
      "inputs": [
        {
          "internalType": "uint256",
          "name": "_disputeID",
          "type": "uint256"
        }
      ],
      "name": "passPeriod",
      "outputs": [],
      "stateMutability": "nonpayable",
      "type": "function"
    },
    {
      "inputs": [],
      "name": "pause",
      "outputs": [],
      "stateMutability": "nonpayable",
      "type": "function"
    },
    {
      "inputs": [],
      "name": "paused",
      "outputs": [
        {
          "internalType": "bool",
          "name": "",
          "type": "bool"
        }
      ],
      "stateMutability": "view",
      "type": "function"
    },
    {
      "inputs": [],
      "name": "pinakion",
      "outputs": [
        {
          "internalType": "contract IERC20",
          "name": "",
          "type": "address"
        }
      ],
      "stateMutability": "view",
      "type": "function"
    },
    {
      "inputs": [],
      "name": "proxiableUUID",
      "outputs": [
        {
          "internalType": "bytes32",
          "name": "",
          "type": "bytes32"
        }
      ],
      "stateMutability": "view",
      "type": "function"
    },
    {
      "inputs": [
        {
          "internalType": "uint96",
          "name": "_courtID",
          "type": "uint96"
        },
        {
          "internalType": "uint256",
          "name": "_newStake",
          "type": "uint256"
        }
      ],
      "name": "setStake",
      "outputs": [],
      "stateMutability": "nonpayable",
      "type": "function"
    },
    {
      "inputs": [
        {
          "internalType": "address",
          "name": "_account",
          "type": "address"
        },
        {
          "internalType": "uint96",
          "name": "_courtID",
          "type": "uint96"
        },
        {
          "internalType": "uint256",
          "name": "_newStake",
          "type": "uint256"
        },
        {
          "internalType": "bool",
          "name": "_alreadyTransferred",
          "type": "bool"
        }
      ],
      "name": "setStakeBySortitionModule",
      "outputs": [],
      "stateMutability": "nonpayable",
      "type": "function"
    },
    {
      "inputs": [],
      "name": "sortitionModule",
      "outputs": [
        {
          "internalType": "contract ISortitionModule",
          "name": "",
          "type": "address"
        }
      ],
      "stateMutability": "view",
      "type": "function"
    },
    {
      "inputs": [],
      "name": "unpause",
      "outputs": [],
      "stateMutability": "nonpayable",
      "type": "function"
    },
    {
      "inputs": [
        {
          "internalType": "address",
          "name": "newImplementation",
          "type": "address"
        },
        {
          "internalType": "bytes",
          "name": "data",
          "type": "bytes"
        }
      ],
      "name": "upgradeToAndCall",
      "outputs": [],
      "stateMutability": "payable",
      "type": "function"
    }
  ],
  "transactionHash": "0x8b80bfa88c9e5e90c8e53f74d87b2739832ad888ff537a47ed2e7cb5764ac92a",
  "args": [],
  "numDeployments": 2,
  "solcInputHash": "04e66c05dce8c2b0405d41f363293597",
  "bytecode": "0x60a0604052306080523480156200001557600080fd5b506200002062000026565b620000d9565b7ff0c57e16840df040f15088dc2f81fe391c3923bec73e23a9662efc9c229c6a0e805468010000000000000000900460ff1615620000765760405162dc149f60e41b815260040160405180910390fd5b80546001600160401b0390811614620000d65780546001600160401b0319166001600160401b0390811782556040519081527fc7f505b2f371ae2175ee4913f4499e1f2633a7b5936321eed1cdaeb6115181d29060200160405180910390a15b50565b6080516158b162000103600039600081816118cc015281816118f50152611aec01526158b16000f3fe6080604052600436106102c95760003560e01c806382d022371161017b578063c71f4253116100d7578063f6506db411610085578063f6506db414610968578063f7434ea914610988578063fbb519e7146109a8578063fbf405b0146109c8578063fc6f8f16146109e8578063fe4037e614610a08578063fe524c3914610a2857600080fd5b8063c71f425314610893578063cf0c38f8146108b3578063d07368bd146108d3578063d2b8035a146108f3578063d4d1d76a14610913578063d98493f614610928578063e4c0aaf41461094857600080fd5b8063acdbf51d11610134578063acdbf51d146107a8578063afe15cfb146107c8578063b0049637146107fd578063b44d573c1461081d578063c13517e11461084d578063c258bb1914610860578063c35699021461088057600080fd5b806382d02237146106e65780638456cb591461070657806386541b241461071b5780638a9bb02a1461073b5780638bb0487514610768578063a072b86c1461078857600080fd5b80632e2e936a1161022a57806352d1902d116101e357806352d1902d14610606578063564a565d1461061b57806359ec827e1461064c5780635c975abb1461066c578063751accd0146106865780637717a6e8146106a65780637934c0be146106c657600080fd5b80632e2e936a146105515780632fcb4f04146105715780633cfd1184146105915780633f4ba83a146105be578063452a9320146105d35780634f1ef286146105f357600080fd5b806319b815291161028757806319b81529146104035780631c3db16d146104335780631d7e6892146104705780631f5a0dd2146104905780632c053739146104f15780632d29a47b146105115780632e1daf2f1461053157600080fd5b8062f5822c146102ce5780630219da79146102f05780630b7414bc146103685780630c340a2414610388578063115d5376146103b55780631860592b146103d5575b600080fd5b3480156102da57600080fd5b506102ee6102e9366004614a12565b610a48565b005b3480156102fc57600080fd5b5061033b61030b366004614a12565b60086020526000908152604090205460ff808216916001600160401b0361010082041691600160481b9091041683565b6040805193151584526001600160401b03909216602084015260ff16908201526060015b60405180910390f35b34801561037457600080fd5b506102ee610383366004614b20565b610a95565b34801561039457600080fd5b506000546103a8906001600160a01b031681565b60405161035f9190614b81565b3480156103c157600080fd5b506102ee6103d0366004614b95565b610bd6565b3480156103e157600080fd5b506103f56103f0366004614bae565b61110d565b60405190815260200161035f565b34801561040f57600080fd5b5061042361041e366004614b95565b611167565b604051901515815260200161035f565b34801561043f57600080fd5b5061045361044e366004614b95565b611260565b60408051938452911515602084015215159082015260600161035f565b34801561047c57600080fd5b506102ee61048b366004614bda565b611361565b34801561049c57600080fd5b506104b06104ab366004614b95565b6113b7565b604080516001600160601b0390981688529515156020880152948601939093526060850191909152608084015260a0830152151560c082015260e00161035f565b3480156104fd57600080fd5b506102ee61050c366004614cef565b611416565b34801561051d57600080fd5b506102ee61052c366004614ddc565b6114e8565b34801561053d57600080fd5b506004546103a8906001600160a01b031681565b34801561055d57600080fd5b50600b546103a8906001600160a01b031681565b34801561057d57600080fd5b506102ee61058c366004614a12565b61177e565b34801561059d57600080fd5b506105b16105ac366004614e08565b6117cb565b60405161035f9190614e46565b3480156105ca57600080fd5b506102ee611835565b3480156105df57600080fd5b506001546103a8906001600160a01b031681565b6102ee610601366004614e54565b6118b8565b34801561061257600080fd5b506103f5611adf565b34801561062757600080fd5b5061063b610636366004614b95565b611b3d565b60405161035f959493929190614edb565b34801561065857600080fd5b506103f5610667366004614b95565b611b99565b34801561067857600080fd5b506009546104239060ff1681565b34801561069257600080fd5b506102ee6106a1366004614f1a565b611cee565b3480156106b257600080fd5b506102ee6106c1366004614f72565b611d98565b3480156106d257600080fd5b506102ee6106e1366004614bda565b611e5b565b3480156106f257600080fd5b506102ee610701366004614f8e565b611eda565b34801561071257600080fd5b506102ee611f97565b34801561072757600080fd5b506102ee610736366004614fe0565b612037565b34801561074757600080fd5b5061075b61075636600461504e565b61221e565b60405161035f91906150b4565b34801561077457600080fd5b506102ee610783366004614b95565b6123aa565b34801561079457600080fd5b506102ee6107a3366004615159565b61250e565b3480156107b457600080fd5b506103a86107c3366004614b95565b61287f565b3480156107d457600080fd5b506107e86107e3366004614b95565b6128a9565b6040805192835260208301919091520161035f565b34801561080957600080fd5b506102ee610818366004614a12565b612955565b34801561082957600080fd5b50610423610838366004614a12565b600a6020526000908152604090205460ff1681565b6103f561085b366004615219565b6129a2565b34801561086c57600080fd5b506102ee61087b366004614a12565b6129da565b6102ee61088e366004615249565b612a27565b34801561089f57600080fd5b506103f56108ae366004614b95565b612efb565b3480156108bf57600080fd5b506003546103a8906001600160a01b031681565b3480156108df57600080fd5b506102ee6108ee366004614a12565b612f63565b3480156108ff57600080fd5b506102ee61090e36600461504e565b61300c565b34801561091f57600080fd5b506006546103f5565b34801561093457600080fd5b506103f56109433660046152ca565b613321565b34801561095457600080fd5b506102ee610963366004614a12565b61336e565b34801561097457600080fd5b506103f5610983366004615315565b6133bb565b34801561099457600080fd5b506103f56109a336600461537b565b6134a1565b3480156109b457600080fd5b506102ee6109c33660046153af565b6134ed565b3480156109d457600080fd5b506002546103a8906001600160a01b031681565b3480156109f457600080fd5b506103f5610a03366004614b95565b61352d565b348015610a1457600080fd5b506102ee610a23366004614a12565b61355c565b348015610a3457600080fd5b50610423610a43366004614f72565b6135a9565b6000546001600160a01b03163314610a735760405163c383977560e01b815260040160405180910390fd5b600280546001600160a01b0319166001600160a01b0392909216919091179055565b6000546001600160a01b03163314610ac05760405163c383977560e01b815260040160405180910390fd5b60005b8251811015610bd0578115610b5f57828181518110610ae457610ae4615400565b602002602001015160001480610b1757506006548351849083908110610b0c57610b0c615400565b602002602001015110155b15610b3557604051633d58a98960e11b815260040160405180910390fd5b610b5a84848381518110610b4b57610b4b615400565b602002602001015160016135f1565b610bbe565b6001838281518110610b7357610b73615400565b602002602001015103610b99576040516356d111fd60e11b815260040160405180910390fd5b610bbe84848381518110610baf57610baf615400565b602002602001015160006135f1565b80610bc88161542c565b915050610ac3565b50505050565b600060078281548110610beb57610beb615400565b600091825260208220600490910201805460058054929450916001600160601b03909116908110610c1e57610c1e615400565b6000918252602082206003850154600c909202019250610c4090600190615445565b90506000836003018281548110610c5957610c59615400565b600091825260208220600b909102019150600185015460ff166004811115610c8357610c83614ea3565b03610d5e5781158015610cd257506001840154600684019060ff166004811115610caf57610caf614ea3565b60048110610cbf57610cbf615400565b01546002850154610cd09042615445565b105b15610cf057604051633e9727df60e01b815260040160405180910390fd5b6003810154600682015414610d18576040516309e4486b60e41b815260040160405180910390fd5b8254600160601b900460ff16610d2f576002610d32565b60015b60018086018054909160ff1990911690836004811115610d5457610d54614ea3565b02179055506110bf565b60018085015460ff166004811115610d7857610d78614ea3565b03610e88576001840154600684019060ff166004811115610d9b57610d9b614ea3565b60048110610dab57610dab615400565b01546002850154610dbc9042615445565b108015610e5357506006816000015481548110610ddb57610ddb615400565b600091825260209091200154604051630baa64d160e01b8152600481018790526001600160a01b0390911690630baa64d190602401602060405180830381865afa158015610e2d573d6000803e3d6000fd5b505050506040513d601f19601f82011682018060405250810190610e519190615458565b155b15610e7157604051634dfa578560e11b815260040160405180910390fd5b6001808501805460029260ff199091169083610d54565b6002600185015460ff166004811115610ea357610ea3614ea3565b03610ff1576001840154600684019060ff166004811115610ec657610ec6614ea3565b60048110610ed657610ed6615400565b01546002850154610ee79042615445565b108015610f7e57506006816000015481548110610f0657610f06615400565b6000918252602090912001546040516336a66c7560e11b8152600481018790526001600160a01b0390911690636d4cd8ea90602401602060405180830381865afa158015610f58573d6000803e3d6000fd5b505050506040513d601f19601f82011682018060405250810190610f7c9190615458565b155b15610f9c57604051631988dead60e31b815260040160405180910390fd5b600184018054600360ff199091161790558354604051600160601b9091046001600160a01b03169086907fa5d41b970d849372be1da1481ffd78d162bfe57a7aa2fe4e5fb73481fa5ac24f90600090a36110bf565b6003600185015460ff16600481111561100c5761100c614ea3565b03611086576001840154600684019060ff16600481111561102f5761102f614ea3565b6004811061103f5761103f615400565b015460028501546110509042615445565b101561106f57604051632f4dfd8760e01b815260040160405180910390fd5b6001808501805460049260ff199091169083610d54565b6004600185015460ff1660048111156110a1576110a1614ea3565b036110bf576040516307f38c8f60e11b815260040160405180910390fd5b426002850155600184015460405186917f4e6f5cf43b95303e86aee81683df63992061723a829ee012db21dad388756b91916110fe9160ff1690615475565b60405180910390a25050505050565b6001600160a01b03821660009081526008602052604081205461010081046001600160401b03169061114a90600160481b900460ff16600a615567565b6111549084615576565b61115e91906155a3565b90505b92915050565b6000806007838154811061117d5761117d615400565b60009182526020822060036004909202019081018054919350906111a390600190615445565b815481106111b3576111b3615400565b600091825260208220845460058054600b909402909201945090916001600160601b039091169081106111e8576111e8615400565b90600052602060002090600c0201905080600501548260030154101561121357506000949350505050565b80546005805490916001600160601b031690811061123357611233615400565b6000918252602080832094548352600a600c9092029094010190925250604090205460ff16159392505050565b6000806000806007858154811061127957611279615400565b600091825260208220600360049092020190810180549193509061129f90600190615445565b815481106112af576112af615400565b90600052602060002090600b02019050600060068260000154815481106112d8576112d8615400565b600091825260209091200154604051631c3db16d60e01b8152600481018990526001600160a01b0390911691508190631c3db16d90602401606060405180830381865afa15801561132d573d6000803e3d6000fd5b505050506040513d601f19601f8201168201806040525081019061135191906155b7565b9199909850909650945050505050565b6000546001600160a01b0316331461138c5760405163c383977560e01b815260040160405180910390fd5b6001600160a01b03919091166000908152600a60205260409020805460ff1916911515919091179055565b600581815481106113c757600080fd5b60009182526020909120600c9091020180546002820154600383015460048401546005850154600b909501546001600160601b038516965060ff600160601b9095048516959394929391921687565b7ff0c57e16840df040f15088dc2f81fe391c3923bec73e23a9662efc9c229c6a0e805460029190600160401b900460ff168061145f575080546001600160401b03808416911610155b1561147c5760405162dc149f60e41b815260040160405180910390fd5b805468ffffffffffffffffff19166001600160401b038316908117600160401b1760ff60401b191682556040519081527fc7f505b2f371ae2175ee4913f4499e1f2633a7b5936321eed1cdaeb6115181d29060200160405180910390a150505050505050505050505050565b60095460ff161561150c57604051636f1dac1d60e01b815260040160405180910390fd5b6000806007858154811061152257611522615400565b600091825260209091206004918202019150600182015460ff16600481111561154d5761154d614ea3565b1461156b57604051638794ce4b60e01b815260040160405180910390fd5b80600301848154811061158057611580615400565b6000918252602082206004600b909202019081015490935091506115a484836155ef565b60058401546006850154600286015492935090916000906115c69083906155a3565b905060008660010154905060008060068960000154815481106115eb576115eb615400565b60009182526020909120015460405163368efae360e21b8152600481018e9052602481018d90526001600160a01b039091169150819063da3beb8c90604401602060405180830381865afa158015611647573d6000803e3d6000fd5b505050506040513d601f19601f8201168201806040525081019061166b9190615602565b915050806000036116875783861115611682578395505b6116a7565b611692846002615576565b8611156116a7576116a4846002615576565b95505b60048801869055865b8681101561175d5784811015611709576117026040518061010001604052808e81526020018d815260200184815260200187815260200186815260200185815260200188815260200183815250613679565b955061174b565b61174b6040518061010001604052808e81526020018d815260200184815260200187815260200186815260200185815260200188815260200183815250613b4a565b806117558161542c565b9150506116b0565b508488600501541461177157600588018590555b5050505050505050505050565b6000546001600160a01b031633146117a95760405163c383977560e01b815260040160405180910390fd5b600180546001600160a01b0319166001600160a01b0392909216919091179055565b6117d3614942565b6005826001600160601b0316815481106117ef576117ef615400565b6000918252602090912060408051608081019182905292600c029091016006019060049082845b8154815260200190600101908083116118165750505050509050919050565b6000546001600160a01b031633146118605760405163c383977560e01b815260040160405180910390fd5b60095460ff166118835760405163b4143dc760e01b815260040160405180910390fd5b6009805460ff191690556040517fa45f47fdea8a1efdd9029a5691c7f759c32b7c698632b563573e155625d1693390600090a1565b6118c182614082565b306001600160a01b037f000000000000000000000000000000000000000000000000000000000000000016148061193f57507f00000000000000000000000000000000000000000000000000000000000000006001600160a01b031661193360008051602061585c8339815191525490565b6001600160a01b031614155b1561195d5760405163703e46dd60e11b815260040160405180910390fd5b816001600160a01b03166352d1902d6040518163ffffffff1660e01b8152600401602060405180830381865afa9250505080156119b7575060408051601f3d908101601f191682019092526119b491810190615602565b60015b6119df5781604051630c76093760e01b81526004016119d69190614b81565b60405180910390fd5b60008051602061585c8339815191528114611a1057604051632a87526960e21b8152600481018290526024016119d6565b60008051602061585c8339815191528390556040516001600160a01b038416907fbc7cd75a20ee27fd9adebab32041f755214dbc6bffa90cc0225b39da2e5c2d3b90600090a2815115611ad9576000836001600160a01b031683604051611a77919061563f565b600060405180830381855af49150503d8060008114611ab2576040519150601f19603f3d011682016040523d82523d6000602084013e611ab7565b606091505b5050905080610bd0576040516339b21b5d60e11b815260040160405180910390fd5b505b5050565b6000306001600160a01b037f00000000000000000000000000000000000000000000000000000000000000001614611b2a5760405163703e46dd60e11b815260040160405180910390fd5b5060008051602061585c83398151915290565b60078181548110611b4d57600080fd5b60009182526020909120600490910201805460018201546002909201546001600160601b0382169350600160601b9091046001600160a01b03169160ff80821692610100909204169085565b60008060078381548110611baf57611baf615400565b6000918252602082206003600490920201908101805491935090611bd590600190615445565b81548110611be557611be5615400565b600091825260208220845460058054600b909402909201945090916001600160601b03909116908110611c1a57611c1a615400565b90600052602060002090600c020190508060050154826003015410611cb95782546001600160601b031660001901611c5b576001600160ff1b039350611ce6565b6003820154611c6b906002615576565b611c769060016155ef565b81546005805490916001600160601b0316908110611c9657611c96615400565b90600052602060002090600c020160040154611cb29190615576565b9350611ce6565b6003820154611cc9906002615576565b611cd49060016155ef565b8160040154611ce39190615576565b93505b505050919050565b6000546001600160a01b03163314611d195760405163c383977560e01b815260040160405180910390fd5b6000836001600160a01b03168383604051611d34919061563f565b60006040518083038185875af1925050503d8060008114611d71576040519150601f19603f3d011682016040523d82523d6000602084013e611d76565b606091505b5050905080610bd0576040516322092f2f60e11b815260040160405180910390fd5b60095460ff1615611dbc57604051636f1dac1d60e01b815260040160405180910390fd5b600b546040516370a0823160e01b81526001600160a01b03909116906370a0823190611dec903390600401614b81565b602060405180830381865afa158015611e09573d6000803e3d6000fd5b505050506040513d601f19601f82011682018060405250810190611e2d9190615602565b600003611e4d576040516326b551e560e11b815260040160405180910390fd5b611ad93383836000806140b0565b6000546001600160a01b03163314611e865760405163c383977560e01b815260040160405180910390fd5b6001600160a01b038216600081815260086020526040808220805460ff191685151590811790915590519092917f541615e167511d757a7067a700eb54431b256bb458dfdce0ac58bf2ed0aefd4491a35050565b6000546001600160a01b03163314611f055760405163c383977560e01b815260040160405180910390fd5b6001600160a01b038316600081815260086020908152604091829020805469ffffffffffffffffff0019166101006001600160401b03881690810260ff60481b191691909117600160481b60ff8816908102919091179092558351908152918201527fe6996b7f03e9bd02228b99d3d946932e3197f505f60542c4cfbc919441d8a4e6910160405180910390a2505050565b6001546001600160a01b03163314801590611fbd57506000546001600160a01b03163314155b15611fdb57604051636b29334f60e01b815260040160405180910390fd5b60095460ff1615611fff57604051636f1dac1d60e01b815260040160405180910390fd5b6009805460ff191660011790556040517f9e87fac88ff661f02d44f95383c817fece4bce600a3dab7a54406878b965e75290600090a1565b6000546001600160a01b031633146120625760405163c383977560e01b815260040160405180910390fd5b60006005886001600160601b03168154811061208057612080615400565b90600052602060002090600c0201905060016001600160601b0316886001600160601b0316141580156120e2575080546005805488926001600160601b03169081106120ce576120ce615400565b90600052602060002090600c020160020154115b1561210057604051639717078960e01b815260040160405180910390fd5b60005b60018201548110156121855786600583600101838154811061212757612127615400565b90600052602060002001548154811061214257612142615400565b90600052602060002090600c020160020154101561217357604051639717078960e01b815260040160405180910390fd5b8061217d8161542c565b915050612103565b5060028101869055805460ff60601b1916600160601b88151502178155600381018590556004808201859055600582018490556121c89060068301908490614960565b50876001600160601b03167f709b1f5fda58af9a4f52dacd1ec404840a8148455700cce155a2bd8cf127ef1a88888888888860405161220c9695949392919061565b565b60405180910390a25050505050505050565b61228460405180610160016040528060008152602001600081526020016000815260200160008152602001600081526020016000815260200160608152602001600081526020016000815260200160006001600160a01b03168152602001600081525090565b6007838154811061229757612297615400565b906000526020600020906004020160030182815481106122b9576122b9615400565b90600052602060002090600b0201604051806101600160405290816000820154815260200160018201548152602001600282015481526020016003820154815260200160048201548152602001600582015481526020016006820180548060200260200160405190810160405280929190818152602001828054801561236857602002820191906000526020600020905b81546001600160a01b0316815260019091019060200180831161234a575b5050509183525050600782015460208201526008820154604082015260098201546001600160a01b03166060820152600a909101546080909101529392505050565b6000600782815481106123bf576123bf615400565b600091825260209091206004918202019150600182015460ff1660048111156123ea576123ea614ea3565b1461240857604051638794ce4b60e01b815260040160405180910390fd5b6001810154610100900460ff16156124335760405163c977f8d360e01b815260040160405180910390fd5b600061243e83611260565b505060018301805461010061ff001990911617905582546040518281529192508491600160601b9091046001600160a01b0316907f394027a5fa6e098a1191094d1719d6929b9abc535fcc0c8f448d6a4e756222769060200160405180910390a3815460405163188d362b60e11b81526004810185905260248101839052600160601b9091046001600160a01b03169063311a6c5690604401600060405180830381600087803b1580156124f157600080fd5b505af1158015612505573d6000803e3d6000fd5b50505050505050565b6000546001600160a01b031633146125395760405163c383977560e01b815260040160405180910390fd5b8660058a6001600160601b03168154811061255657612556615400565b90600052602060002090600c020160020154111561258757604051639717078960e01b815260040160405180910390fd5b80516000036125a95760405163402585f560e01b815260040160405180910390fd5b6001600160601b0389166125d057604051631ef4f64960e01b815260040160405180910390fd5b60058054600181018255600091825290600c82027f036b6384b5eca791c62761152d0c79bb0604c104a5fb6f4eb0703f3154bb3db001905b83518110156126ce5783818151811061262357612623615400565b6020026020010151600014806126565750600654845185908390811061264b5761264b615400565b602002602001015110155b1561267457604051633d58a98960e11b815260040160405180910390fd5b600182600a01600086848151811061268e5761268e615400565b6020026020010151815260200190815260200160002060006101000a81548160ff02191690831515021790555080806126c69061542c565b915050612608565b5060016000908152600a8201602052604090205460ff16612702576040516306351b3d60e31b815260040160405180910390fd5b80546001600160601b0319166001600160601b038c16178155604080516000815260208101918290525161273a91600184019161499e565b50805460ff60601b1916600160601b8b151502178155600281018990556003810188905560048082018890556005820187905561277d9060068301908790614960565b50600480546040516311de995760e21b81526001600160a01b039091169163477a655c916127af9186918991016156ba565b600060405180830381600087803b1580156127c957600080fd5b505af11580156127dd573d6000803e3d6000fd5b5050505060058b6001600160601b0316815481106127fd576127fd615400565b600091825260208083206001600c909302018201805492830181558352909120018290556040516001600160601b038c169083907f3475f0ed7216dd7d453db663a1c3024e4f36cc925521d54edb9d13e022cbee3d9061286a908e908e908e908e908e908e908d906156d3565b60405180910390a35050505050505050505050565b6006818154811061288f57600080fd5b6000918252602090912001546001600160a01b0316905081565b6000806000600784815481106128c1576128c1615400565b6000918252602090912060049091020190506003600182015460ff1660048111156128ee576128ee614ea3565b03612946576002810154815460058054929550916001600160601b0390911690811061291c5761291c615400565b600091825260209091206009600c909202010154600282015461293f91906155ef565b915061294f565b60009250600091505b50915091565b6000546001600160a01b031633146129805760405163c383977560e01b815260040160405180910390fd5b600480546001600160a01b0319166001600160a01b0392909216919091179055565b60006129ad826134a1565b3410156129cd57604051630e3360f160e21b815260040160405180910390fd5b61115e838360003461426a565b6000546001600160a01b03163314612a055760405163c383977560e01b815260040160405180910390fd5b600380546001600160a01b0319166001600160a01b0392909216919091179055565b612a3083611b99565b341015612a5057604051633191f8f160e01b815260040160405180910390fd5b600060078481548110612a6557612a65615400565b6000918252602090912060049091020190506003600182015460ff166004811115612a9257612a92614ea3565b14612ab0576040516337cdefcb60e21b815260040160405180910390fd5b60038101805460009190612ac690600190615445565b81548110612ad657612ad6615400565b90600052602060002090600b020190506006816000015481548110612afd57612afd615400565b6000918252602090912001546001600160a01b03163314612b315760405163065f245f60e01b815260040160405180910390fd5b8154815460038401805460018101825560009182526020909120600580546001600160601b0390951694600b9093029091019184908110612b7457612b74615400565b90600052602060002090600c020160050154846003015410612c7d576005836001600160601b031681548110612bac57612bac615400565b60009182526020909120600c9091020154600580546001600160601b0390921694509084908110612bdf57612bdf615400565b60009182526020808320858452600a600c90930201919091019052604090205460ff16612c0b57600191505b84546001600160601b03848116911614612c7d57845460038601546001600160601b0390911690612c3e90600190615445565b6040516001600160601b03861681528a907f736e3f52761298c8c0823e1ebf482ed3c5ecb304f743d2d91a7c006e8e8d7a1f9060200160405180910390a45b84546001600160601b0319166001600160601b038416908117865560018601805460ff1916905542600287015560058054600092908110612cc057612cc0615400565b90600052602060002090600c02019050806004015434612ce091906155a3565b826003018190555061271081600301548260020154612cff9190615576565b612d0991906155a3565b60018084019190915534600284015583835560045460038801546001600160a01b039091169163d09f392d918c91612d4091615445565b6040516001600160e01b031960e085901b16815260048101929092526024820152604401600060405180830381600087803b158015612d7e57600080fd5b505af1158015612d92573d6000803e3d6000fd5b505086548454149150612e7890505784546003870154612db490600190615445565b83546040519081528b907fcbe7939a71f0b369c7471d760a0a99b60b7bb010ee0406cba8a46679d1ea77569060200160405180910390a46006826000015481548110612e0257612e02615400565b60009182526020909120015460038301546040516302dbb79560e61b81526001600160a01b039092169163b6ede54091612e45918d918d918d9190600401615750565b600060405180830381600087803b158015612e5f57600080fd5b505af1158015612e73573d6000803e3d6000fd5b505050505b8554604051600160601b9091046001600160a01b0316908a907f9c9b64db9e130f48381bf697abf638e73117dbfbfd7a4484f2da3ba188f4187d90600090a3887f4e6f5cf43b95303e86aee81683df63992061723a829ee012db21dad388756b916000604051612ee89190615475565b60405180910390a2505050505050505050565b60008060078381548110612f1157612f11615400565b906000526020600020906004020190508060030160018260030180549050612f399190615445565b81548110612f4957612f49615400565b90600052602060002090600b020160030154915050919050565b6000546001600160a01b03163314612f8e5760405163c383977560e01b815260040160405180910390fd5b6006805460018101825560009182527ff652222313e28459528d920b65115c16c04f3efc82aaedc97be59f3f377c0d3f810180546001600160a01b0319166001600160a01b0385169081179091556040519192909183917f44063d258760b98116d53815adbc906a56b3563e540148cc0fc2457f83b5eeb291a35050565b60006007838154811061302157613021615400565b906000526020600020906004020190506000600182600301805490506130479190615445565b9050600082600301828154811061306057613060615400565b600091825260208220600b909102019150600184015460ff16600481111561308a5761308a614ea3565b146130a857604051638285c4ef60e01b815260040160405180910390fd5b600060068260000154815481106130c1576130c1615400565b6000918252602082200154600a8401546001600160a01b039091169250905b86811080156130f6575060038401546006850154105b156132fe5760006001600160a01b03841663d2b8035a8a846131178161542c565b955061312390876155ef565b6040516001600160e01b031960e085901b168152600481019290925260248201526044016020604051808303816000875af1158015613166573d6000803e3d6000fd5b505050506040513d601f19601f8201168201806040525081019061318a9190615780565b90506001600160a01b0381166131a057506130e0565b6004805460018701546040516310f0b12f60e11b81526001600160a01b03909216926321e1625e926131d692869290910161579d565b600060405180830381600087803b1580156131f057600080fd5b505af1158015613204573d6000803e3d6000fd5b50505060068601546040518b92506001600160a01b038416917f6119cf536152c11e0a9a6c22f3953ce4ecc93ee54fa72ffa326ffabded21509b91613251918b8252602082015260400190565b60405180910390a36006850180546001810182556000828152602090200180546001600160a01b0319166001600160a01b03841617905560038601549054036132f85760048054604051632e96bc2360e11b81529182018b9052602482018890526001600160a01b031690635d2d784690604401600060405180830381600087803b1580156132df57600080fd5b505af11580156132f3573d6000803e3d6000fd5b505050505b506130e0565b8084600a01600082825461331291906155ef565b90915550505050505050505050565b6000613366826103f086868080601f0160208091040260200160405190810160405280939291908181526020018383808284376000920191909152506134a192505050565b949350505050565b6000546001600160a01b031633146133995760405163c383977560e01b815260040160405180910390fd5b600080546001600160a01b0319166001600160a01b0392909216919091179055565b6001600160a01b03821660009081526008602052604081205460ff166133f45760405163e51cf7bf60e01b815260040160405180910390fd5b6133ff858585613321565b82101561341f57604051630e3360f160e21b815260040160405180910390fd5b6134346001600160a01b0384163330856142a6565b613451576040516312171d8360e31b815260040160405180910390fd5b6134958686868080601f01602080910402602001604051908101604052809392919081815260200183838082843760009201919091525088925087915061426a9050565b90505b95945050505050565b60008060006134af84614382565b5091509150806005836001600160601b0316815481106134d1576134d1615400565b90600052602060002090600c0201600401546133669190615576565b6004546001600160a01b0316331461351857604051639d6cab9960e01b815260040160405180910390fd5b6135268484848460016140b0565b5050505050565b60006007828154811061354257613542615400565b600091825260209091206003600490920201015492915050565b6000546001600160a01b031633146135875760405163c383977560e01b815260040160405180910390fd5b600b80546001600160a01b0319166001600160a01b0392909216919091179055565b60006005836001600160601b0316815481106135c7576135c7615400565b60009182526020808320948352600c91909102909301600a0190925250604090205460ff16919050565b806005846001600160601b03168154811061360e5761360e615400565b60009182526020808320868452600c92909202909101600a0190526040808220805460ff19169315159390931790925590518215159184916001600160601b038716917fb47629acdf64971062d40984f77d3dee212d735b11e3e8c7a4222d9f0572cc7991a4505050565b600080600783600001518154811061369357613693615400565b906000526020600020906004020190506000816003018460200151815481106136be576136be615400565b90600052602060002090600b02019050600060068260000154815481106136e7576136e7615400565b60009182526020808320919091015487519188015160e089015160808a015160a08b01516040516333ac937b60e11b8152600481019690965260248601939093526044850191909152606484015260848301526001600160a01b03169250829063675926f69060a401602060405180830381865afa15801561376d573d6000803e3d6000fd5b505050506040513d601f19601f820116820180604052508101906137919190615602565b90506127108111156137a257506127105b60006127106137b18382615445565b85600101546137c09190615576565b6137ca91906155a3565b9050808760c0018181516137de91906155ef565b90525060e08701516006850180546000929081106137fe576137fe615400565b6000918252602090912001546004805460405163965af6c760e01b81526001600160a01b03938416945092169163965af6c79161383f91859187910161579d565b600060405180830381600087803b15801561385957600080fd5b505af115801561386d573d6000803e3d6000fd5b505060048054604051633c85b79360e21b81526001600160a01b03909116935063f216de4c92506138a291859187910161579d565b600060405180830381600087803b1580156138bc57600080fd5b505af11580156138d0573d6000803e3d6000fd5b50505050602088015188516001600160a01b0383167f8975b837fe0d18616c65abb8b843726a32b552ee4feca009944fa658bbb282e786613910876157b6565b60098b01546040516139329392916000916001600160a01b03909116906157d2565b60405180910390a48751602089015160e08a015160405163ba66fde760e01b81526004810193909352602483019190915260448201526001600160a01b0385169063ba66fde790606401602060405180830381865afa158015613999573d6000803e3d6000fd5b505050506040513d601f19601f820116820180604052508101906139bd9190615458565b613a23576004805460405163b5d69e9960e01b81526001600160a01b039091169163b5d69e99916139f091859101614b81565b600060405180830381600087803b158015613a0a57600080fd5b505af1158015613a1e573d6000803e3d6000fd5b505050505b60018860600151613a349190615445565b8860e00151148015613a4857506040880151155b15613b395760098501546001600160a01b0316613a91576000805460028701546040516001600160a01b039092169281156108fc029290818181858888f1935050505050613ab8565b60005460028601546009870154613ab6926001600160a01b0391821692911690614409565b505b60005460c0890151600254613adb926001600160a01b0391821692911690614409565b506020880151885160c08a0151600288015460098901546040517f6cecfd3ec56289ccb16e30eb194f9a87dfdc12630b9abbc31fc69af5a0b0eaf493613b3093909290916001600160a01b03909116906157f6565b60405180910390a35b50505060c090940151949350505050565b60006007826000015181548110613b6357613b63615400565b90600052602060002090600402019050600081600301836020015181548110613b8e57613b8e615400565b90600052602060002090600b0201905060006006826000015481548110613bb757613bb7615400565b6000918252602080832090910154865191870151606088015160e08901516001600160a01b039093169550859363675926f693909291613bf691615815565b60808a015160a08b01516040516001600160e01b031960e088901b1681526004810195909552602485019390935260448401919091526064830152608482015260a401602060405180830381865afa158015613c56573d6000803e3d6000fd5b505050506040513d601f19601f82011682018060405250810190613c7a9190615602565b9050612710811115613c8b57506127105b60008360060186606001518760e00151613ca59190615815565b81548110613cb557613cb5615400565b600091825260208220015460018601546001600160a01b03909116925061271090613ce1908590615576565b613ceb91906155a3565b6004805460405163965af6c760e01b81529293506001600160a01b03169163965af6c791613d1d91869186910161579d565b600060405180830381600087803b158015613d3757600080fd5b505af1158015613d4b573d6000803e3d6000fd5b505060048054604051636624192f60e01b81526001600160a01b039091169350636624192f9250613d7e91869101614b81565b602060405180830381865afa158015613d9b573d6000803e3d6000fd5b505050506040513d601f19601f82011682018060405250810190613dbf9190615458565b613ddc57600254613dda906001600160a01b03168383614409565b505b60006127108489604001518a60c00151613df691906155a3565b613e009190615576565b613e0a91906155a3565b905080866008016000828254613e2091906155ef565b925050819055506000612710858a604001518960020154613e4191906155a3565b613e4b9190615576565b613e5591906155a3565b905080876007016000828254613e6b91906155ef565b9091555050600254613e87906001600160a01b03168584614409565b5060098701546001600160a01b0316613ec5576040516001600160a01b0385169082156108fc029083906000818181858888f1935050505050613ee0565b6009870154613ede906001600160a01b03168583614409565b505b6020890151895160098901546040516001600160a01b03888116927f8975b837fe0d18616c65abb8b843726a32b552ee4feca009944fa658bbb282e792613f30928c928a928a92909116906157d2565b60405180910390a4600189606001516002613f4b9190615576565b613f559190615445565b8960e001510361407757600087600801548a60c00151613f759190615445565b9050600088600701548960020154613f8d9190615445565b905081151580613f9c57508015155b15611771578115613fc657600054600254613fc4916001600160a01b03918216911684614409565b505b801561402d5760098901546001600160a01b031661400c57600080546040516001600160a01b039091169183156108fc02918491818181858888f193505050505061402d565b60005460098a015461402b916001600160a01b03918216911683614409565b505b60208b01518b5160098b01546040517f6cecfd3ec56289ccb16e30eb194f9a87dfdc12630b9abbc31fc69af5a0b0eaf49161286a91879187916001600160a01b03909116906157f6565b505050505050505050565b6000546001600160a01b031633146140ad5760405163c383977560e01b815260040160405180910390fd5b50565b60006001600160601b03851615806140d257506005546001600160601b038616115b156140ea576140e28260046144d6565b506000613498565b831580159061412557506005856001600160601b03168154811061411057614110615400565b90600052602060002090600c02016002015484105b15614135576140e28260056144d6565b60048054604051630a5861b960e41b81526001600160a01b03898116938201939093526001600160601b03881660248201526044810187905285151560648201526000928392839291169063a5861b90906084016060604051808303816000875af11580156141a8573d6000803e3d6000fd5b505050506040513d601f19601f820116820180604052508101906141cc9190615829565b9194509250905060008160078111156141e7576141e7614ea3565b14614202576141f685826144d6565b60009350505050613498565b821561422f57600254614220906001600160a01b03168a30866142a6565b61422f576141f68560016144d6565b811561425b5760025461424c906001600160a01b03168a84614409565b61425b576141f68560026144d6565b50600198975050505050505050565b336000908152600a602052604081205460ff1661429a57604051630407618360e31b815260040160405180910390fd5b61349885858585614544565b6040516001600160a01b038481166024830152838116604483015260648201839052600091829182919088169060840160408051601f198184030181529181526020820180516001600160e01b03166323b872dd60e01b1790525161430b919061563f565b6000604051808303816000865af19150503d8060008114614348576040519150601f19603f3d011682016040523d82523d6000602084013e61434d565b606091505b50915091508180156143775750805115806143775750808060200190518101906143779190615458565b979650505050505050565b600080600060408451106143f7575050506020810151604082015160608301516001600160601b03831615806143c357506005546001600160601b03841610155b156143cd57600192505b816000036143da57600391505b8015806143e957506006548110155b156143f2575060015b614402565b506001915060039050815b9193909250565b6000806000856001600160a01b0316858560405160240161442b92919061579d565b60408051601f198184030181529181526020820180516001600160e01b031663a9059cbb60e01b17905251614460919061563f565b6000604051808303816000865af19150503d806000811461449d576040519150601f19603f3d011682016040523d82523d6000602084013e6144a2565b606091505b50915091508180156144cc5750805115806144cc5750808060200190518101906144cc9190615458565b9695505050505050565b6144e0828261482b565b60068160078111156144f4576144f4614ea3565b0361451257604051636590e91560e01b815260040160405180910390fd5b600781600781111561452657614526614ea3565b03611adb576040516358859f1d60e01b815260040160405180910390fd5b600080600061455286614382565b92505091506005826001600160601b03168154811061457357614573615400565b60009182526020808320848452600a600c90930201919091019052604090205460ff166145b35760405163b34eb75d60e01b815260040160405180910390fd5b600780546001810182556000918252600160601b33026001600160601b03851617600482027fa66cc928b5edb82af9bd49922954155ab7b0942694bea4ce44661d9a8736c6888101918255427fa66cc928b5edb82af9bd49922954155ab7b0942694bea4ce44661d9a8736c68a90910155600680549296509092918490811061463e5761463e615400565b6000918252602082200154600580546001600160a01b039092169350906001600160601b03871690811061467457614674615400565b60009182526020808320600387018054600181018255908552918420600c909302019350600b0201906001600160a01b038a16156146bf576146ba8a846004015461110d565b6146c5565b82600401545b90506146d1818a6155a3565b6003808401919091558683558301546002840154612710916146f291615576565b6146fc91906155a3565b6001830155600282018990556009820180546001600160a01b0319166001600160a01b038c8116919091179091556004805460405163d09f392d60e01b81529182018b9052600060248301529091169063d09f392d90604401600060405180830381600087803b15801561476f57600080fd5b505af1158015614783573d6000803e3d6000fd5b50505050836001600160a01b031663b6ede540898e8e86600301546040518563ffffffff1660e01b81526004016147bd9493929190615750565b600060405180830381600087803b1580156147d757600080fd5b505af11580156147eb573d6000803e3d6000fd5b50506040513392508a91507f141dfc18aa6a56fc816f44f0e9e2f1ebc92b15ab167770e17db5b084c10ed99590600090a350505050505050949350505050565b600182600181111561483f5761483f614ea3565b03614848575050565b600181600781111561485c5761485c614ea3565b0361487a57604051630f323ed960e11b815260040160405180910390fd5b600281600781111561488e5761488e614ea3565b036148ac5760405163e45e13a360e01b815260040160405180910390fd5b60038160078111156148c0576148c0614ea3565b036148de57604051631d91d0ed60e31b815260040160405180910390fd5b60048160078111156148f2576148f2614ea3565b03614910576040516321f1774b60e11b815260040160405180910390fd5b600581600781111561492457614924614ea3565b03611adb57604051630caac6b360e31b815260040160405180910390fd5b60405180608001604052806004906020820280368337509192915050565b826004810192821561498e579160200282015b8281111561498e578251825591602001919060010190614973565b5061499a9291506149d8565b5090565b82805482825590600052602060002090810192821561498e579160200282018281111561498e578251825591602001919060010190614973565b5b8082111561499a57600081556001016149d9565b6001600160a01b03811681146140ad57600080fd5b8035614a0d816149ed565b919050565b600060208284031215614a2457600080fd5b8135614a2f816149ed565b9392505050565b80356001600160601b0381168114614a0d57600080fd5b634e487b7160e01b600052604160045260246000fd5b604051601f8201601f191681016001600160401b0381118282101715614a8b57614a8b614a4d565b604052919050565b600082601f830112614aa457600080fd5b813560206001600160401b03821115614abf57614abf614a4d565b8160051b614ace828201614a63565b9283528481018201928281019087851115614ae857600080fd5b83870192505b8483101561437757823582529183019190830190614aee565b80151581146140ad57600080fd5b8035614a0d81614b07565b600080600060608486031215614b3557600080fd5b614b3e84614a36565b925060208401356001600160401b03811115614b5957600080fd5b614b6586828701614a93565b9250506040840135614b7681614b07565b809150509250925092565b6001600160a01b0391909116815260200190565b600060208284031215614ba757600080fd5b5035919050565b60008060408385031215614bc157600080fd5b8235614bcc816149ed565b946020939093013593505050565b60008060408385031215614bed57600080fd5b8235614bf8816149ed565b91506020830135614c0881614b07565b809150509250929050565b600082601f830112614c2457600080fd5b604051608081018181106001600160401b0382111715614c4657614c46614a4d565b604052806080840185811115614c5b57600080fd5b845b81811015614c75578035835260209283019201614c5d565b509195945050505050565b600082601f830112614c9157600080fd5b81356001600160401b03811115614caa57614caa614a4d565b614cbd601f8201601f1916602001614a63565b818152846020838601011115614cd257600080fd5b816020850160208301376000918101602001919091529392505050565b60008060008060008060008060008060006102208c8e031215614d1157600080fd5b8b35614d1c816149ed565b9a5060208c0135614d2c816149ed565b9950614d3a60408d01614a02565b9850614d4860608d01614a02565b9750614d5660808d01614a02565b9650614d6460a08d01614b15565b9550614d738d60c08e01614c13565b9450614d838d6101408e01614c13565b93506101c08c01356001600160401b03811115614d9f57600080fd5b614dab8e828f01614c80565b935050614dbb6101e08d01614a02565b9150614dca6102008d01614a02565b90509295989b509295989b9093969950565b600080600060608486031215614df157600080fd5b505081359360208301359350604090920135919050565b600060208284031215614e1a57600080fd5b61115e82614a36565b8060005b6004811015610bd0578151845260209384019390910190600101614e27565b608081016111618284614e23565b60008060408385031215614e6757600080fd5b8235614e72816149ed565b915060208301356001600160401b03811115614e8d57600080fd5b614e9985828601614c80565b9150509250929050565b634e487b7160e01b600052602160045260246000fd5b60058110614ed757634e487b7160e01b600052602160045260246000fd5b9052565b6001600160601b03861681526001600160a01b038516602082015260a08101614f076040830186614eb9565b9215156060820152608001529392505050565b600080600060608486031215614f2f57600080fd5b8335614f3a816149ed565b92506020840135915060408401356001600160401b03811115614f5c57600080fd5b614f6886828701614c80565b9150509250925092565b60008060408385031215614f8557600080fd5b614bcc83614a36565b600080600060608486031215614fa357600080fd5b8335614fae816149ed565b925060208401356001600160401b0381168114614fca57600080fd5b9150604084013560ff81168114614b7657600080fd5b6000806000806000806000610140888a031215614ffc57600080fd5b61500588614a36565b9650602088013561501581614b07565b955060408801359450606088013593506080880135925060a088013591506150408960c08a01614c13565b905092959891949750929550565b6000806040838503121561506157600080fd5b50508035926020909101359150565b600081518084526020808501945080840160005b838110156150a95781516001600160a01b031687529582019590820190600101615084565b509495945050505050565b6020815281516020820152602082015160408201526040820151606082015260608201516080820152608082015160a082015260a082015160c0820152600060c08301516101608060e085015261510f610180850183615070565b60e08601516101008681019190915286015161012080870191909152860151909250610140615148818701836001600160a01b03169052565b959095015193019290925250919050565b60008060008060008060008060006101808a8c03121561517857600080fd5b6151818a614a36565b985060208a013561519181614b07565b975060408a0135965060608a0135955060808a0135945060a08a013593506151bc8b60c08c01614c13565b92506101408a01356001600160401b03808211156151d957600080fd5b6151e58d838e01614c80565b93506101608c01359150808211156151fc57600080fd5b506152098c828d01614a93565b9150509295985092959850929598565b6000806040838503121561522c57600080fd5b8235915060208301356001600160401b03811115614e8d57600080fd5b60008060006060848603121561525e57600080fd5b833592506020840135915060408401356001600160401b03811115614f5c57600080fd5b60008083601f84011261529457600080fd5b5081356001600160401b038111156152ab57600080fd5b6020830191508360208285010111156152c357600080fd5b9250929050565b6000806000604084860312156152df57600080fd5b83356001600160401b038111156152f557600080fd5b61530186828701615282565b9094509250506020840135614b76816149ed565b60008060008060006080868803121561532d57600080fd5b8535945060208601356001600160401b0381111561534a57600080fd5b61535688828901615282565b909550935050604086013561536a816149ed565b949793965091946060013592915050565b60006020828403121561538d57600080fd5b81356001600160401b038111156153a357600080fd5b61336684828501614c80565b600080600080608085870312156153c557600080fd5b84356153d0816149ed565b93506153de60208601614a36565b92506040850135915060608501356153f581614b07565b939692955090935050565b634e487b7160e01b600052603260045260246000fd5b634e487b7160e01b600052601160045260246000fd5b60006001820161543e5761543e615416565b5060010190565b8181038181111561116157611161615416565b60006020828403121561546a57600080fd5b8151614a2f81614b07565b602081016111618284614eb9565b600181815b808511156154be5781600019048211156154a4576154a4615416565b808516156154b157918102915b93841c9390800290615488565b509250929050565b6000826154d557506001611161565b816154e257506000611161565b81600181146154f857600281146155025761551e565b6001915050611161565b60ff84111561551357615513615416565b50506001821b611161565b5060208310610133831016604e8410600b8410161715615541575081810a611161565b61554b8383615483565b806000190482111561555f5761555f615416565b029392505050565b600061115e60ff8416836154c6565b808202811582820484141761116157611161615416565b634e487b7160e01b600052601260045260246000fd5b6000826155b2576155b261558d565b500490565b6000806000606084860312156155cc57600080fd5b8351925060208401516155de81614b07565b6040850151909250614b7681614b07565b8082018082111561116157611161615416565b60006020828403121561561457600080fd5b5051919050565b60005b8381101561563657818101518382015260200161561e565b50506000910152565b6000825161565181846020870161561b565b9190910192915050565b600061012082019050871515825286602083015285604083015284606083015283608083015261437760a0830184614e23565b600081518084526156a681602086016020860161561b565b601f01601f19169290920160200192915050565b828152604060208201526000613366604083018461568e565b60006101408083018a1515845260208a8186015289604086015288606086015287608086015261570660a0860188614e23565b6101208501929092528451908190526101608401918086019160005b8181101561573e57835185529382019392820192600101615722565b50929c9b505050505050505050505050565b84815283602082015260806040820152600061576f608083018561568e565b905082606083015295945050505050565b60006020828403121561579257600080fd5b8151614a2f816149ed565b6001600160a01b03929092168252602082015260400190565b6000600160ff1b82016157cb576157cb615416565b5060000390565b938452602084019290925260408301526001600160a01b0316606082015260800190565b92835260208301919091526001600160a01b0316604082015260600190565b6000826158245761582461558d565b500690565b60008060006060848603121561583e57600080fd5b8351925060208401519150604084015160088110614b7657600080fdfe360894a13ba1a3210667c828492db98dca3e2076cc3735a920a3ca505d382bbca2646970667358221220ffd4b8cc0150c09d914b76d2012f161e53d22e94660667769ec86952a8f5683364736f6c63430008120033",
  "devdoc": {
    "errors": {
      "AlreadyInitialized()": [
        {
          "details": "The contract is already initialized."
        }
      ],
      "NotInitializing()": [
        {
          "details": "The contract is not initializing."
        }
      ],
      "UUPSUnauthorizedCallContext()": [
        {
          "details": "The call is from an unauthorized context."
        }
      ],
      "UUPSUnsupportedProxiableUUID(bytes32)": [
        {
          "details": "The storage `slot` is unsupported as a UUID."
        }
      ]
    },
    "events": {
      "AcceptedFeeToken(address,bool)": {
        "details": "To be emitted when an ERC20 token is added or removed as a method to pay fees.",
        "params": {
          "_accepted": "Whether the token is accepted or not.",
          "_token": "The ERC20 token."
        }
      },
      "DisputeCreation(uint256,address)": {
        "details": "To be emitted when a dispute is created.",
        "params": {
          "_arbitrable": "The contract which created the dispute.",
          "_disputeID": "The identifier of the dispute in the Arbitrator contract."
        }
      },
      "Initialized(uint64)": {
        "details": "Triggered when the contract has been initialized or reinitialized."
      },
      "NewCurrencyRate(address,uint64,uint8)": {
        "details": "To be emitted when the fee for a particular ERC20 token is updated.",
        "params": {
          "_feeToken": "The ERC20 token.",
          "_rateDecimals": "The new decimals of the fee token rate.",
          "_rateInEth": "The new rate of the fee token in ETH."
        }
      },
      "Ruling(address,uint256,uint256)": {
        "details": "To be raised when a ruling is given.",
        "params": {
          "_arbitrable": "The arbitrable receiving the ruling.",
          "_disputeID": "The identifier of the dispute in the Arbitrator contract.",
          "_ruling": "The ruling which was given."
        }
      },
      "Upgraded(address)": {
        "params": {
          "newImplementation": "Address of the new implementation the proxy is now forwarding calls to."
        }
      }
    },
    "kind": "dev",
    "methods": {
      "addNewDisputeKit(address)": {
        "details": "Add a new supported dispute kit module to the court.",
        "params": {
          "_disputeKitAddress": "The address of the dispute kit contract."
        }
      },
      "appeal(uint256,uint256,bytes)": {
        "details": "Appeals the ruling of a specified dispute. Note: Access restricted to the Dispute Kit for this `disputeID`.",
        "params": {
          "_disputeID": "The ID of the dispute.",
          "_extraData": "Extradata for the dispute. Can be required during court jump.",
          "_numberOfChoices": "Number of choices for the dispute. Can be required during court jump."
        }
      },
      "appealCost(uint256)": {
        "details": "Gets the cost of appealing a specified dispute.",
        "params": {
          "_disputeID": "The ID of the dispute."
        },
        "returns": {
          "cost": "The appeal cost."
        }
      },
      "appealPeriod(uint256)": {
        "details": "Gets the start and the end of a specified dispute's current appeal period.",
        "params": {
          "_disputeID": "The ID of the dispute."
        },
        "returns": {
          "end": "The end of the appeal period.",
          "start": "The start of the appeal period."
        }
      },
      "arbitrationCost(bytes)": {
        "details": "Compute the cost of arbitration denominated in ETH.      It is recommended not to increase it often, as it can be highly time and gas consuming for the arbitrated contracts to cope with fee augmentation.",
        "params": {
          "_extraData": "Additional info about the dispute. We use it to pass the ID of the dispute's court (first 32 bytes), the minimum number of jurors required (next 32 bytes) and the ID of the specific dispute kit (last 32 bytes)."
        },
        "returns": {
          "cost": "The arbitration cost in ETH."
        }
      },
      "arbitrationCost(bytes,address)": {
        "details": "Compute the cost of arbitration denominated in `_feeToken`.      It is recommended not to increase it often, as it can be highly time and gas consuming for the arbitrated contracts to cope with fee augmentation.",
        "params": {
          "_extraData": "Additional info about the dispute. We use it to pass the ID of the dispute's court (first 32 bytes), the minimum number of jurors required (next 32 bytes) and the ID of the specific dispute kit (last 32 bytes).",
          "_feeToken": "The ERC20 token used to pay fees."
        },
        "returns": {
          "cost": "The arbitration cost in `_feeToken`."
        }
      },
      "changeAcceptedFeeTokens(address,bool)": {
        "details": "Changes the supported fee tokens.",
        "params": {
          "_accepted": "Whether the token is supported or not as a method of fee payment.",
          "_feeToken": "The fee token."
        }
      },
      "changeArbitrableWhitelist(address,bool)": {
        "details": "Adds or removes an arbitrable from whitelist.",
        "params": {
          "_allowed": "Whether add or remove permission.",
          "_arbitrable": "Arbitrable address."
        }
      },
      "changeCurrencyRates(address,uint64,uint8)": {
        "details": "Changes the currency rate of a fee token.",
        "params": {
          "_feeToken": "The fee token.",
          "_rateDecimals": "The new decimals of the fee token rate.",
          "_rateInEth": "The new rate of the fee token in ETH."
        }
      },
      "changeGovernor(address)": {
        "details": "Changes the `governor` storage variable.",
        "params": {
          "_governor": "The new value for the `governor` storage variable."
        }
      },
      "changeGuardian(address)": {
        "details": "Changes the `guardian` storage variable.",
        "params": {
          "_guardian": "The new value for the `guardian` storage variable."
        }
      },
      "changeJurorNft(address)": {
        "details": "Changes the `jurorNft` storage variable.",
        "params": {
          "_jurorNft": "The new value for the `jurorNft` storage variable."
        }
      },
      "changeJurorProsecutionModule(address)": {
        "details": "Changes the `jurorProsecutionModule` storage variable.",
        "params": {
          "_jurorProsecutionModule": "The new value for the `jurorProsecutionModule` storage variable."
        }
      },
      "changePinakion(address)": {
        "details": "Changes the `pinakion` storage variable.",
        "params": {
          "_pinakion": "The new value for the `pinakion` storage variable."
        }
      },
      "changeSortitionModule(address)": {
        "details": "Changes the `_sortitionModule` storage variable. Note that the new module should be initialized for all courts.",
        "params": {
          "_sortitionModule": "The new value for the `sortitionModule` storage variable."
        }
      },
      "constructor": {
        "details": "Constructor, initializing the implementation to reduce attack surface."
      },
      "createCourt(uint96,bool,uint256,uint256,uint256,uint256,uint256[4],bytes,uint256[])": {
        "details": "Creates a court under a specified parent court.",
        "params": {
          "_alpha": "The `alpha` property value of the court.",
          "_feeForJuror": "The `feeForJuror` property value of the court.",
          "_hiddenVotes": "The `hiddenVotes` property value of the court.",
          "_jurorsForCourtJump": "The `jurorsForCourtJump` property value of the court.",
          "_minStake": "The `minStake` property value of the court.",
          "_parent": "The `parent` property value of the court.",
          "_sortitionExtraData": "Extra data for sortition module.",
          "_supportedDisputeKits": "Indexes of dispute kits that this court will support.",
          "_timesPerPeriod": "The `timesPerPeriod` property value of the court."
        }
      },
      "createDispute(uint256,bytes)": {
        "details": "Create a dispute and pay for the fees in the native currency, typically ETH.      Must be called by the arbitrable contract.      Must pay at least arbitrationCost(_extraData).",
        "params": {
          "_extraData": "Additional info about the dispute. We use it to pass the ID of the dispute's court (first 32 bytes), the minimum number of jurors required (next 32 bytes) and the ID of the specific dispute kit (last 32 bytes).",
          "_numberOfChoices": "The number of choices the arbitrator can choose from in this dispute."
        },
        "returns": {
          "disputeID": "The identifier of the dispute created."
        }
      },
      "createDispute(uint256,bytes,address,uint256)": {
        "details": "Create a dispute and pay for the fees in a supported ERC20 token.      Must be called by the arbitrable contract.      Must pay at least arbitrationCost(_extraData).",
        "params": {
          "_extraData": "Additional info about the dispute. We use it to pass the ID of the dispute's court (first 32 bytes), the minimum number of jurors required (next 32 bytes) and the ID of the specific dispute kit (last 32 bytes).",
          "_feeAmount": "Amount of the ERC20 token used to pay fees.",
          "_feeToken": "The ERC20 token used to pay fees.",
          "_numberOfChoices": "The number of choices the arbitrator can choose from in this dispute."
        },
        "returns": {
          "disputeID": "The identifier of the dispute created."
        }
      },
      "currentRuling(uint256)": {
        "details": "Gets the current ruling of a specified dispute.",
        "params": {
          "_disputeID": "The ID of the dispute."
        },
        "returns": {
          "overridden": "Whether the ruling was overridden by appeal funding or not.",
          "ruling": "The current ruling.",
          "tied": "Whether it's a tie or not."
        }
      },
      "draw(uint256,uint256)": {
        "details": "Draws jurors for the dispute. Can be called in parts.",
        "params": {
          "_disputeID": "The ID of the dispute.",
          "_iterations": "The number of iterations to run."
        }
      },
      "enableDisputeKits(uint96,uint256[],bool)": {
        "details": "Adds/removes court's support for specified dispute kits.",
        "params": {
          "_courtID": "The ID of the court.",
          "_disputeKitIDs": "The IDs of dispute kits which support should be added/removed.",
          "_enable": "Whether add or remove the dispute kits from the court."
        }
      },
      "execute(uint256,uint256,uint256)": {
        "details": "Distribute the PNKs at stake and the dispute fees for the specific round of the dispute. Can be called in parts. Note: Reward distributions are forbidden during pause.",
        "params": {
          "_disputeID": "The ID of the dispute.",
          "_iterations": "The number of iterations to run.",
          "_round": "The appeal round."
        }
      },
      "executeGovernorProposal(address,uint256,bytes)": {
        "details": "Allows the governor to call anything on behalf of the contract.",
        "params": {
          "_amount": "The value sent with the call.",
          "_data": "The data sent with the call.",
          "_destination": "The destination of the call."
        }
      },
      "executeRuling(uint256)": {
        "details": "Executes a specified dispute's ruling.",
        "params": {
          "_disputeID": "The ID of the dispute."
        }
      },
      "getNumberOfVotes(uint256)": {
        "details": "Gets the number of votes permitted for the specified dispute in the latest round.",
        "params": {
          "_disputeID": "The ID of the dispute."
        }
      },
      "getTimesPerPeriod(uint96)": {
        "details": "Gets the timesPerPeriod array for a given court.",
        "params": {
          "_courtID": "The ID of the court to get the times from."
        },
        "returns": {
          "timesPerPeriod": "The timesPerPeriod array for the given court."
        }
      },
      "initialize(address,address,address,address,address,bool,uint256[4],uint256[4],bytes,address,address)": {
        "details": "Initializer (constructor equivalent for upgradable contracts).",
        "params": {
          "_courtParameters": "Numeric parameters of General court (minStake, alpha, feeForJuror and jurorsForCourtJump respectively).",
          "_disputeKit": "The address of the default dispute kit.",
          "_governor": "The governor's address.",
          "_guardian": "The guardian's address.",
          "_hiddenVotes": "The `hiddenVotes` property value of the general court.",
          "_jurorNft": "NFT contract to vet the jurors.",
          "_jurorProsecutionModule": "The address of the juror prosecution module.",
          "_pinakion": "The address of the token contract.",
          "_sortitionExtraData": "The extra data for sortition module.",
          "_sortitionModuleAddress": "The sortition module responsible for sortition of the jurors.",
          "_timesPerPeriod": "The `timesPerPeriod` property value of the general court."
        }
      },
      "isDisputeKitJumping(uint256)": {
        "details": "Returns true if the dispute kit will be switched to a parent DK.",
        "params": {
          "_disputeID": "The ID of the dispute."
        },
        "returns": {
          "_0": "Whether DK will be switched or not."
        }
      },
      "passPeriod(uint256)": {
        "details": "Passes the period of a specified dispute.",
        "params": {
          "_disputeID": "The ID of the dispute."
        }
      },
      "pause()": {
        "details": "Pause staking and reward execution. Can only be done by guardian or governor."
      },
      "proxiableUUID()": {
        "details": "Implementation of the ERC1822 `proxiableUUID` function. This returns the storage slot used by the implementation. It is used to validate the implementation's compatibility when performing an upgrade. IMPORTANT: A proxy pointing at a proxiable contract should not be considered proxiable itself, because this risks bricking a proxy that upgrades to it, by delegating to itself until out of gas. Thus it is critical that this function revert if invoked through a proxy. This is guaranteed by the if statement."
      },
      "setStake(uint96,uint256)": {
        "details": "Sets the caller's stake in a court. Note: Staking and unstaking is forbidden during pause.",
        "params": {
          "_courtID": "The ID of the court.",
          "_newStake": "The new stake. Note that the existing delayed stake will be nullified as non-relevant."
        }
      },
      "setStakeBySortitionModule(address,uint96,uint256,bool)": {
        "details": "Sets the stake of a specified account in a court, typically to apply a delayed stake or unstake inactive jurors.",
        "params": {
          "_account": "The account whose stake is being set.",
          "_alreadyTransferred": "Whether the PNKs have already been transferred to the contract.",
          "_courtID": "The ID of the court.",
          "_newStake": "The new stake."
        }
      },
      "unpause()": {
        "details": "Unpause staking and reward execution. Can only be done by governor."
      },
      "upgradeToAndCall(address,bytes)": {
        "details": "Upgrade mechanism including access control and UUPS-compliance.Reverts if the execution is not performed via delegatecall or the execution context is not of a proxy with an ERC1967-compliant implementation pointing to self.",
        "params": {
          "data": "Data used in a delegate call to `newImplementation` if non-empty. This will typically be an encoded function call, and allows initializing the storage of the proxy like a Solidity constructor.",
          "newImplementation": "Address of the new implementation contract."
        }
      }
    },
    "title": "KlerosCoreNeo Core arbitrator contract for Kleros v2. Note that this contract trusts the PNK token, the dispute kit and the sortition module contracts.",
    "version": 1
  },
  "userdoc": {
    "errors": {
      "FailedDelegateCall()": [
        {
          "notice": "Failed Delegated call"
        }
      ],
      "InvalidImplementation(address)": [
        {
          "notice": "The `implementation` is not UUPS-compliant"
        }
      ]
    },
    "events": {
      "Upgraded(address)": {
        "notice": "Emitted when the `implementation` has been successfully upgraded."
      }
    },
    "kind": "user",
    "methods": {},
    "version": 1
  },
  "storageLayout": {
    "storage": [
      {
        "astId": 338,
        "contract": "src/arbitration/KlerosCoreNeo.sol:KlerosCoreNeo",
        "label": "governor",
        "offset": 0,
        "slot": "0",
        "type": "t_address"
      },
      {
        "astId": 340,
        "contract": "src/arbitration/KlerosCoreNeo.sol:KlerosCoreNeo",
        "label": "guardian",
        "offset": 0,
        "slot": "1",
        "type": "t_address"
      },
      {
        "astId": 343,
        "contract": "src/arbitration/KlerosCoreNeo.sol:KlerosCoreNeo",
        "label": "pinakion",
        "offset": 0,
        "slot": "2",
        "type": "t_contract(IERC20)77"
      },
      {
        "astId": 345,
        "contract": "src/arbitration/KlerosCoreNeo.sol:KlerosCoreNeo",
        "label": "jurorProsecutionModule",
        "offset": 0,
        "slot": "3",
        "type": "t_address"
      },
      {
        "astId": 348,
        "contract": "src/arbitration/KlerosCoreNeo.sol:KlerosCoreNeo",
        "label": "sortitionModule",
        "offset": 0,
        "slot": "4",
        "type": "t_contract(ISortitionModule)4413"
      },
      {
        "astId": 352,
        "contract": "src/arbitration/KlerosCoreNeo.sol:KlerosCoreNeo",
        "label": "courts",
        "offset": 0,
        "slot": "5",
        "type": "t_array(t_struct(Court)257_storage)dyn_storage"
      },
      {
        "astId": 356,
        "contract": "src/arbitration/KlerosCoreNeo.sol:KlerosCoreNeo",
        "label": "disputeKits",
        "offset": 0,
        "slot": "6",
        "type": "t_array(t_contract(IDisputeKit)4289)dyn_storage"
      },
      {
        "astId": 360,
        "contract": "src/arbitration/KlerosCoreNeo.sol:KlerosCoreNeo",
        "label": "disputes",
        "offset": 0,
        "slot": "7",
        "type": "t_array(t_struct(Dispute)274_storage)dyn_storage"
      },
      {
        "astId": 366,
        "contract": "src/arbitration/KlerosCoreNeo.sol:KlerosCoreNeo",
        "label": "currencyRates",
        "offset": 0,
        "slot": "8",
        "type": "t_mapping(t_contract(IERC20)77,t_struct(CurrencyRate)323_storage)"
      },
      {
        "astId": 368,
        "contract": "src/arbitration/KlerosCoreNeo.sol:KlerosCoreNeo",
        "label": "paused",
        "offset": 0,
        "slot": "9",
        "type": "t_bool"
      },
      {
        "astId": 3808,
        "contract": "src/arbitration/KlerosCoreNeo.sol:KlerosCoreNeo",
        "label": "arbitrableWhitelist",
        "offset": 0,
        "slot": "10",
        "type": "t_mapping(t_address,t_bool)"
      },
      {
        "astId": 3811,
        "contract": "src/arbitration/KlerosCoreNeo.sol:KlerosCoreNeo",
        "label": "jurorNft",
        "offset": 0,
        "slot": "11",
        "type": "t_contract(IERC721)193"
      }
    ],
    "types": {
      "t_address": {
        "encoding": "inplace",
        "label": "address",
        "numberOfBytes": "20"
      },
      "t_array(t_address)dyn_storage": {
        "base": "t_address",
        "encoding": "dynamic_array",
        "label": "address[]",
        "numberOfBytes": "32"
      },
      "t_array(t_contract(IDisputeKit)4289)dyn_storage": {
        "base": "t_contract(IDisputeKit)4289",
        "encoding": "dynamic_array",
        "label": "contract IDisputeKit[]",
        "numberOfBytes": "32"
      },
      "t_array(t_struct(Court)257_storage)dyn_storage": {
        "base": "t_struct(Court)257_storage",
        "encoding": "dynamic_array",
        "label": "struct KlerosCoreBase.Court[]",
        "numberOfBytes": "32"
      },
      "t_array(t_struct(Dispute)274_storage)dyn_storage": {
        "base": "t_struct(Dispute)274_storage",
        "encoding": "dynamic_array",
        "label": "struct KlerosCoreBase.Dispute[]",
        "numberOfBytes": "32"
      },
      "t_array(t_struct(Round)299_storage)dyn_storage": {
        "base": "t_struct(Round)299_storage",
        "encoding": "dynamic_array",
        "label": "struct KlerosCoreBase.Round[]",
        "numberOfBytes": "32"
      },
      "t_array(t_uint256)4_storage": {
        "base": "t_uint256",
        "encoding": "inplace",
        "label": "uint256[4]",
        "numberOfBytes": "128"
      },
      "t_array(t_uint256)dyn_storage": {
        "base": "t_uint256",
        "encoding": "dynamic_array",
        "label": "uint256[]",
        "numberOfBytes": "32"
      },
      "t_bool": {
        "encoding": "inplace",
        "label": "bool",
        "numberOfBytes": "1"
      },
      "t_contract(IArbitrableV2)4046": {
        "encoding": "inplace",
        "label": "contract IArbitrableV2",
        "numberOfBytes": "20"
      },
      "t_contract(IDisputeKit)4289": {
        "encoding": "inplace",
        "label": "contract IDisputeKit",
        "numberOfBytes": "20"
      },
      "t_contract(IERC20)77": {
        "encoding": "inplace",
        "label": "contract IERC20",
        "numberOfBytes": "20"
      },
      "t_contract(IERC721)193": {
        "encoding": "inplace",
        "label": "contract IERC721",
        "numberOfBytes": "20"
      },
      "t_contract(ISortitionModule)4413": {
        "encoding": "inplace",
        "label": "contract ISortitionModule",
        "numberOfBytes": "20"
      },
      "t_enum(Period)231": {
        "encoding": "inplace",
        "label": "enum KlerosCoreBase.Period",
        "numberOfBytes": "1"
      },
      "t_mapping(t_address,t_bool)": {
        "encoding": "mapping",
        "key": "t_address",
        "label": "mapping(address => bool)",
        "numberOfBytes": "32",
        "value": "t_bool"
      },
      "t_mapping(t_contract(IERC20)77,t_struct(CurrencyRate)323_storage)": {
        "encoding": "mapping",
        "key": "t_contract(IERC20)77",
        "label": "mapping(contract IERC20 => struct KlerosCoreBase.CurrencyRate)",
        "numberOfBytes": "32",
        "value": "t_struct(CurrencyRate)323_storage"
      },
      "t_mapping(t_uint256,t_bool)": {
        "encoding": "mapping",
        "key": "t_uint256",
        "label": "mapping(uint256 => bool)",
        "numberOfBytes": "32",
        "value": "t_bool"
      },
      "t_struct(Court)257_storage": {
        "encoding": "inplace",
        "label": "struct KlerosCoreBase.Court",
        "members": [
          {
            "astId": 233,
            "contract": "src/arbitration/KlerosCoreNeo.sol:KlerosCoreNeo",
            "label": "parent",
            "offset": 0,
            "slot": "0",
            "type": "t_uint96"
          },
          {
            "astId": 235,
            "contract": "src/arbitration/KlerosCoreNeo.sol:KlerosCoreNeo",
            "label": "hiddenVotes",
            "offset": 12,
            "slot": "0",
            "type": "t_bool"
          },
          {
            "astId": 238,
            "contract": "src/arbitration/KlerosCoreNeo.sol:KlerosCoreNeo",
            "label": "children",
            "offset": 0,
            "slot": "1",
            "type": "t_array(t_uint256)dyn_storage"
          },
          {
            "astId": 240,
            "contract": "src/arbitration/KlerosCoreNeo.sol:KlerosCoreNeo",
            "label": "minStake",
            "offset": 0,
            "slot": "2",
            "type": "t_uint256"
          },
          {
            "astId": 242,
            "contract": "src/arbitration/KlerosCoreNeo.sol:KlerosCoreNeo",
            "label": "alpha",
            "offset": 0,
            "slot": "3",
            "type": "t_uint256"
          },
          {
            "astId": 244,
            "contract": "src/arbitration/KlerosCoreNeo.sol:KlerosCoreNeo",
            "label": "feeForJuror",
            "offset": 0,
            "slot": "4",
            "type": "t_uint256"
          },
          {
            "astId": 246,
            "contract": "src/arbitration/KlerosCoreNeo.sol:KlerosCoreNeo",
            "label": "jurorsForCourtJump",
            "offset": 0,
            "slot": "5",
            "type": "t_uint256"
          },
          {
            "astId": 250,
            "contract": "src/arbitration/KlerosCoreNeo.sol:KlerosCoreNeo",
            "label": "timesPerPeriod",
            "offset": 0,
            "slot": "6",
            "type": "t_array(t_uint256)4_storage"
          },
          {
            "astId": 254,
            "contract": "src/arbitration/KlerosCoreNeo.sol:KlerosCoreNeo",
            "label": "supportedDisputeKits",
            "offset": 0,
            "slot": "10",
            "type": "t_mapping(t_uint256,t_bool)"
          },
          {
            "astId": 256,
            "contract": "src/arbitration/KlerosCoreNeo.sol:KlerosCoreNeo",
            "label": "disabled",
            "offset": 0,
            "slot": "11",
            "type": "t_bool"
          }
        ],
        "numberOfBytes": "384"
      },
      "t_struct(CurrencyRate)323_storage": {
        "encoding": "inplace",
        "label": "struct KlerosCoreBase.CurrencyRate",
        "members": [
          {
            "astId": 318,
            "contract": "src/arbitration/KlerosCoreNeo.sol:KlerosCoreNeo",
            "label": "feePaymentAccepted",
            "offset": 0,
            "slot": "0",
            "type": "t_bool"
          },
          {
            "astId": 320,
            "contract": "src/arbitration/KlerosCoreNeo.sol:KlerosCoreNeo",
            "label": "rateInEth",
            "offset": 1,
            "slot": "0",
            "type": "t_uint64"
          },
          {
            "astId": 322,
            "contract": "src/arbitration/KlerosCoreNeo.sol:KlerosCoreNeo",
            "label": "rateDecimals",
            "offset": 9,
            "slot": "0",
            "type": "t_uint8"
          }
        ],
        "numberOfBytes": "32"
      },
      "t_struct(Dispute)274_storage": {
        "encoding": "inplace",
        "label": "struct KlerosCoreBase.Dispute",
        "members": [
          {
            "astId": 259,
            "contract": "src/arbitration/KlerosCoreNeo.sol:KlerosCoreNeo",
            "label": "courtID",
            "offset": 0,
            "slot": "0",
            "type": "t_uint96"
          },
          {
            "astId": 262,
            "contract": "src/arbitration/KlerosCoreNeo.sol:KlerosCoreNeo",
            "label": "arbitrated",
            "offset": 12,
            "slot": "0",
            "type": "t_contract(IArbitrableV2)4046"
          },
          {
            "astId": 265,
            "contract": "src/arbitration/KlerosCoreNeo.sol:KlerosCoreNeo",
            "label": "period",
            "offset": 0,
            "slot": "1",
            "type": "t_enum(Period)231"
          },
          {
            "astId": 267,
            "contract": "src/arbitration/KlerosCoreNeo.sol:KlerosCoreNeo",
            "label": "ruled",
            "offset": 1,
            "slot": "1",
            "type": "t_bool"
          },
          {
            "astId": 269,
            "contract": "src/arbitration/KlerosCoreNeo.sol:KlerosCoreNeo",
            "label": "lastPeriodChange",
            "offset": 0,
            "slot": "2",
            "type": "t_uint256"
          },
          {
            "astId": 273,
            "contract": "src/arbitration/KlerosCoreNeo.sol:KlerosCoreNeo",
            "label": "rounds",
            "offset": 0,
            "slot": "3",
            "type": "t_array(t_struct(Round)299_storage)dyn_storage"
          }
        ],
        "numberOfBytes": "128"
      },
      "t_struct(Round)299_storage": {
        "encoding": "inplace",
        "label": "struct KlerosCoreBase.Round",
        "members": [
          {
            "astId": 276,
            "contract": "src/arbitration/KlerosCoreNeo.sol:KlerosCoreNeo",
            "label": "disputeKitID",
            "offset": 0,
            "slot": "0",
            "type": "t_uint256"
          },
          {
            "astId": 278,
            "contract": "src/arbitration/KlerosCoreNeo.sol:KlerosCoreNeo",
            "label": "pnkAtStakePerJuror",
            "offset": 0,
            "slot": "1",
            "type": "t_uint256"
          },
          {
            "astId": 280,
            "contract": "src/arbitration/KlerosCoreNeo.sol:KlerosCoreNeo",
            "label": "totalFeesForJurors",
            "offset": 0,
            "slot": "2",
            "type": "t_uint256"
          },
          {
            "astId": 282,
            "contract": "src/arbitration/KlerosCoreNeo.sol:KlerosCoreNeo",
            "label": "nbVotes",
            "offset": 0,
            "slot": "3",
            "type": "t_uint256"
          },
          {
            "astId": 284,
            "contract": "src/arbitration/KlerosCoreNeo.sol:KlerosCoreNeo",
            "label": "repartitions",
            "offset": 0,
            "slot": "4",
            "type": "t_uint256"
          },
          {
            "astId": 286,
            "contract": "src/arbitration/KlerosCoreNeo.sol:KlerosCoreNeo",
            "label": "pnkPenalties",
            "offset": 0,
            "slot": "5",
            "type": "t_uint256"
          },
          {
            "astId": 289,
            "contract": "src/arbitration/KlerosCoreNeo.sol:KlerosCoreNeo",
            "label": "drawnJurors",
            "offset": 0,
            "slot": "6",
            "type": "t_array(t_address)dyn_storage"
          },
          {
            "astId": 291,
            "contract": "src/arbitration/KlerosCoreNeo.sol:KlerosCoreNeo",
            "label": "sumFeeRewardPaid",
            "offset": 0,
            "slot": "7",
            "type": "t_uint256"
          },
          {
            "astId": 293,
            "contract": "src/arbitration/KlerosCoreNeo.sol:KlerosCoreNeo",
            "label": "sumPnkRewardPaid",
            "offset": 0,
            "slot": "8",
            "type": "t_uint256"
          },
          {
            "astId": 296,
            "contract": "src/arbitration/KlerosCoreNeo.sol:KlerosCoreNeo",
            "label": "feeToken",
            "offset": 0,
            "slot": "9",
            "type": "t_contract(IERC20)77"
          },
          {
            "astId": 298,
            "contract": "src/arbitration/KlerosCoreNeo.sol:KlerosCoreNeo",
            "label": "drawIterations",
            "offset": 0,
            "slot": "10",
            "type": "t_uint256"
          }
        ],
        "numberOfBytes": "352"
      },
      "t_uint256": {
        "encoding": "inplace",
        "label": "uint256",
        "numberOfBytes": "32"
      },
      "t_uint64": {
        "encoding": "inplace",
        "label": "uint64",
        "numberOfBytes": "8"
      },
      "t_uint8": {
        "encoding": "inplace",
        "label": "uint8",
        "numberOfBytes": "1"
      },
      "t_uint96": {
        "encoding": "inplace",
        "label": "uint96",
        "numberOfBytes": "12"
      }
    }
  }
}