{
  "address": "0xA90cA4E24982e1BC1400A3742593Ed63FDe5746D",
  "abi": [
    {
      "inputs": [
        {
          "internalType": "address",
          "name": "_owner",
          "type": "address"
        },
        {
          "internalType": "contract IKlerosCore",
          "name": "_core",
          "type": "address"
        }
      ],
      "stateMutability": "nonpayable",
      "type": "constructor"
    },
    {
      "inputs": [],
      "name": "OwnerOnly",
      "type": "error"
    },
    {
      "inputs": [
        {
          "internalType": "address",
          "name": "_account",
          "type": "address"
        }
      ],
      "name": "balanceOf",
      "outputs": [
        {
          "internalType": "uint256",
          "name": "totalStaked",
          "type": "uint256"
        }
      ],
      "stateMutability": "view",
      "type": "function"
    },
    {
      "inputs": [
        {
          "internalType": "contract IKlerosCore",
          "name": "_core",
          "type": "address"
        }
      ],
      "name": "changeCore",
      "outputs": [],
      "stateMutability": "nonpayable",
      "type": "function"
    },
    {
      "inputs": [
        {
          "internalType": "address",
          "name": "_owner",
          "type": "address"
        }
      ],
      "name": "changeOwner",
      "outputs": [],
      "stateMutability": "nonpayable",
      "type": "function"
    },
    {
      "inputs": [],
      "name": "core",
      "outputs": [
        {
          "internalType": "contract IKlerosCore",
          "name": "",
          "type": "address"
        }
      ],
      "stateMutability": "view",
      "type": "function"
    },
    {
      "inputs": [],
      "name": "decimals",
      "outputs": [
        {
          "internalType": "uint8",
          "name": "",
          "type": "uint8"
        }
      ],
      "stateMutability": "view",
      "type": "function"
    },
    {
      "inputs": [],
      "name": "name",
      "outputs": [
        {
          "internalType": "string",
          "name": "",
          "type": "string"
        }
      ],
      "stateMutability": "view",
      "type": "function"
    },
    {
      "inputs": [],
      "name": "owner",
      "outputs": [
        {
          "internalType": "address",
          "name": "",
          "type": "address"
        }
      ],
      "stateMutability": "view",
      "type": "function"
    },
    {
      "inputs": [],
      "name": "symbol",
      "outputs": [
        {
          "internalType": "string",
          "name": "",
          "type": "string"
        }
      ],
      "stateMutability": "view",
      "type": "function"
    }
  ],
  "transactionHash": "0x57a1838fb71307a3dc69a5cbd9553d744d326bb821b5025d146ddf6c9b17295b",
  "args": [
    "0xf1C7c037891525E360C59f708739Ac09A7670c59",
    "0x9EfCaeF787d0b53d7a24fdeAB067A4BAFCDb892F"
  ],
  "numDeployments": 1,
  "solcInputHash": "7120e939c323b678aae40a88db815cc2",
  "bytecode": "0x608034609157601f61050f38819003918201601f19168301916001600160401b03831184841017609557808492604094855283398101031260915780516001600160a01b0381169190829003609157602001516001600160a01b038116919082900360915760018060a01b0319600154161760015560018060a01b03195f5416175f5560405161046590816100aa8239f35b5f80fd5b634e487b7160e01b5f52604160045260245ffdfe60806040526004361015610011575f80fd5b5f3560e01c806306fdde031461035f578063313ce5671461034457806370a08231146101ef5780638da5cb5b146101c95780638e4264601461017257806395d89b4114610117578063a6f9dae11461009a5763f2f4eb2614610071575f80fd5b34610096575f3660031901126100965760206001600160a01b035f5416604051908152f35b5f80fd5b34610096576020366003190112610096576004356001600160a01b03811680910361009657600154336001600160a01b038216036100ef5773ffffffffffffffffffffffffffffffffffffffff191617600155005b7f596dcdb8000000000000000000000000000000000000000000000000000000005f5260045ffd5b34610096575f3660031901126100965761016e6040516101386040826103b6565b600581527f7374504e4b000000000000000000000000000000000000000000000000000000602082015260405191829182610405565b0390f35b34610096576020366003190112610096576004356001600160a01b038116809103610096576001600160a01b036001541633036100ef5773ffffffffffffffffffffffffffffffffffffffff195f5416175f555f80f35b34610096575f3660031901126100965760206001600160a01b0360015416604051908152f35b34610096576020366003190112610096576004356001600160a01b03811680910361009657600460206001600160a01b035f5416604051928380927f2e1daf2f0000000000000000000000000000000000000000000000000000000082525afa9081156102f0575f916102fb575b5060809060446001600160a01b039360405194859384927fd1c1df4800000000000000000000000000000000000000000000000000000000845260048401525f6024840152165afa80156102f0575f906102bd575b602090604051908152f35b506080813d6080116102e8575b816102d7608093836103b6565b8101031261009657602090516102b2565b3d91506102ca565b6040513d5f823e3d90fd5b90506020813d60201161033c575b81610316602093836103b6565b8101031261009657516001600160a01b0381168103610096576001600160a01b0361025d565b3d9150610309565b34610096575f36600319011261009657602060405160128152f35b34610096575f3660031901126100965761016e6040516103806040826103b6565b600f81527f5374616b65642050696e616b696f6e0000000000000000000000000000000000602082015260405191829182610405565b90601f8019910116810190811067ffffffffffffffff8211176103d857604052565b7f4e487b71000000000000000000000000000000000000000000000000000000005f52604160045260245ffd5b602060409281835280519182918282860152018484015e5f828201840152601f01601f191601019056fea26469706673582212209f25095476a62fb9d8b0d83cc45b97bf6024d480a00646db059e5a099c79904364736f6c634300081e0033",
  "devdoc": {
    "kind": "dev",
    "methods": {
      "balanceOf(address)": {
        "details": "Proxy doesn't need to differentiate between courts so we pass 0 as courtID.",
        "params": {
          "_account": "The address to query."
        },
        "returns": {
          "totalStaked": "Total amount staked in V2 by the address."
        }
      },
      "changeCore(address)": {
        "params": {
          "_core": "The new value for the `core` storage variable."
        }
      },
      "changeOwner(address)": {
        "params": {
          "_owner": "The new value for the `owner` storage variable."
        }
      },
      "constructor": {
        "params": {
          "_core": "KlerosCore to read the balance from.",
          "_owner": "The owner of the contract."
        }
      }
    },
    "title": "KlerosCoreSnapshotProxy",
    "version": 1
  },
  "userdoc": {
    "kind": "user",
    "methods": {
      "balanceOf(address)": {
        "notice": "Returns the amount of PNK staked in KlerosV2 for a particular address."
      },
      "changeCore(address)": {
        "notice": "Changes the `core` storage variable."
      },
      "changeOwner(address)": {
        "notice": "Changes the `owner` storage variable."
      },
      "constructor": {
        "notice": "Constructor"
      }
    },
    "notice": "Proxy contract for V2 that exposes staked PNK with balanceOf() function for Snapshot voting.",
    "version": 1
  },
  "storageLayout": {
    "storage": [
      {
        "astId": 31758,
        "contract": "src/arbitration/view/KlerosCoreSnapshotProxy.sol:KlerosCoreSnapshotProxy",
        "label": "core",
        "offset": 0,
        "slot": "0",
        "type": "t_contract(IKlerosCore)31754"
      },
      {
        "astId": 31760,
        "contract": "src/arbitration/view/KlerosCoreSnapshotProxy.sol:KlerosCoreSnapshotProxy",
        "label": "owner",
        "offset": 0,
        "slot": "1",
        "type": "t_address"
      }
    ],
    "types": {
      "t_address": {
        "encoding": "inplace",
        "label": "address",
        "numberOfBytes": "20"
      },
      "t_contract(IKlerosCore)31754": {
        "encoding": "inplace",
        "label": "contract IKlerosCore",
        "numberOfBytes": "20"
      }
    }
  }
}