{
  "address": "0x369DA458B054CfF85F148FC3936baB74D6941c56",
  "abi": [
    {
      "inputs": [],
      "stateMutability": "nonpayable",
      "type": "constructor"
    },
    {
      "inputs": [],
      "name": "AlreadyInitialized",
      "type": "error"
    },
    {
      "inputs": [],
      "name": "AppealFeesNotEnough",
      "type": "error"
    },
    {
      "inputs": [],
      "name": "AppealPeriodNotPassed",
      "type": "error"
    },
    {
      "inputs": [],
      "name": "ArbitrableNotWhitelisted",
      "type": "error"
    },
    {
      "inputs": [],
      "name": "ArbitrationFeesNotEnough",
      "type": "error"
    },
    {
      "inputs": [],
      "name": "CannotDisableClassicDK",
      "type": "error"
    },
    {
      "inputs": [],
      "name": "CommitPeriodNotPassed",
      "type": "error"
    },
    {
      "inputs": [],
      "name": "DisputeKitNotSupportedByCourt",
      "type": "error"
    },
    {
      "inputs": [],
      "name": "DisputeKitOnly",
      "type": "error"
    },
    {
      "inputs": [],
      "name": "DisputeNotAppealable",
      "type": "error"
    },
    {
      "inputs": [],
      "name": "DisputePeriodIsFinal",
      "type": "error"
    },
    {
      "inputs": [],
      "name": "DisputeStillDrawing",
      "type": "error"
    },
    {
      "inputs": [],
      "name": "EvidenceNotPassedAndNotAppeal",
      "type": "error"
    },
    {
      "inputs": [],
      "name": "FailedDelegateCall",
      "type": "error"
    },
    {
      "inputs": [],
      "name": "GuardianOrOwnerOnly",
      "type": "error"
    },
    {
      "inputs": [],
      "name": "InvalidDisputeKitParent",
      "type": "error"
    },
    {
      "inputs": [],
      "name": "InvalidForkingCourtAsParent",
      "type": "error"
    },
    {
      "inputs": [
        {
          "internalType": "address",
          "name": "implementation",
          "type": "address"
        }
      ],
      "name": "InvalidImplementation",
      "type": "error"
    },
    {
      "inputs": [
        {
          "internalType": "uint256",
          "name": "_childCourtID",
          "type": "uint256"
        }
      ],
      "name": "MinStakeHigherThanChildCourt",
      "type": "error"
    },
    {
      "inputs": [],
      "name": "MinStakeLowerThanParentCourt",
      "type": "error"
    },
    {
      "inputs": [],
      "name": "MustSupportDisputeKitClassic",
      "type": "error"
    },
    {
      "inputs": [],
      "name": "NotEligibleForStaking",
      "type": "error"
    },
    {
      "inputs": [],
      "name": "NotEvidencePeriod",
      "type": "error"
    },
    {
      "inputs": [],
      "name": "NotExecutionPeriod",
      "type": "error"
    },
    {
      "inputs": [],
      "name": "NotInitializing",
      "type": "error"
    },
    {
      "inputs": [],
      "name": "OwnerOnly",
      "type": "error"
    },
    {
      "inputs": [],
      "name": "RulingAlreadyExecuted",
      "type": "error"
    },
    {
      "inputs": [],
      "name": "SortitionModuleOnly",
      "type": "error"
    },
    {
      "inputs": [],
      "name": "StakingInTooManyCourts",
      "type": "error"
    },
    {
      "inputs": [],
      "name": "StakingLessThanCourtMinStake",
      "type": "error"
    },
    {
      "inputs": [],
      "name": "StakingMoreThanMaxStakePerJuror",
      "type": "error"
    },
    {
      "inputs": [],
      "name": "StakingMoreThanMaxTotalStaked",
      "type": "error"
    },
    {
      "inputs": [],
      "name": "StakingNotPossibleInThisCourt",
      "type": "error"
    },
    {
      "inputs": [],
      "name": "StakingTransferFailed",
      "type": "error"
    },
    {
      "inputs": [],
      "name": "StakingZeroWhenNoStake",
      "type": "error"
    },
    {
      "inputs": [],
      "name": "TokenNotAccepted",
      "type": "error"
    },
    {
      "inputs": [],
      "name": "TransferFailed",
      "type": "error"
    },
    {
      "inputs": [],
      "name": "UUPSUnauthorizedCallContext",
      "type": "error"
    },
    {
      "inputs": [
        {
          "internalType": "bytes32",
          "name": "slot",
          "type": "bytes32"
        }
      ],
      "name": "UUPSUnsupportedProxiableUUID",
      "type": "error"
    },
    {
      "inputs": [],
      "name": "UnstakingTransferFailed",
      "type": "error"
    },
    {
      "inputs": [],
      "name": "UnsuccessfulCall",
      "type": "error"
    },
    {
      "inputs": [],
      "name": "UnsupportedDisputeKit",
      "type": "error"
    },
    {
      "inputs": [],
      "name": "VotePeriodNotPassed",
      "type": "error"
    },
    {
      "inputs": [],
      "name": "WhenNotPausedOnly",
      "type": "error"
    },
    {
      "inputs": [],
      "name": "WhenPausedOnly",
      "type": "error"
    },
    {
      "inputs": [],
      "name": "WrongDisputeKitIndex",
      "type": "error"
    },
    {
      "anonymous": false,
      "inputs": [
        {
          "indexed": true,
          "internalType": "contract IERC20",
          "name": "_token",
          "type": "address"
        },
        {
          "indexed": true,
          "internalType": "bool",
          "name": "_accepted",
          "type": "bool"
        }
      ],
      "name": "AcceptedFeeToken",
      "type": "event"
    },
    {
      "anonymous": false,
      "inputs": [
        {
          "indexed": true,
          "internalType": "uint256",
          "name": "_disputeID",
          "type": "uint256"
        },
        {
          "indexed": true,
          "internalType": "contract IArbitrableV2",
          "name": "_arbitrable",
          "type": "address"
        }
      ],
      "name": "AppealDecision",
      "type": "event"
    },
    {
      "anonymous": false,
      "inputs": [
        {
          "indexed": true,
          "internalType": "uint256",
          "name": "_disputeID",
          "type": "uint256"
        },
        {
          "indexed": true,
          "internalType": "contract IArbitrableV2",
          "name": "_arbitrable",
          "type": "address"
        }
      ],
      "name": "AppealPossible",
      "type": "event"
    },
    {
      "anonymous": false,
      "inputs": [
        {
          "indexed": true,
          "internalType": "uint96",
          "name": "_courtID",
          "type": "uint96"
        },
        {
          "indexed": true,
          "internalType": "uint96",
          "name": "_parent",
          "type": "uint96"
        },
        {
          "indexed": false,
          "internalType": "bool",
          "name": "_hiddenVotes",
          "type": "bool"
        },
        {
          "indexed": false,
          "internalType": "uint256",
          "name": "_minStake",
          "type": "uint256"
        },
        {
          "indexed": false,
          "internalType": "uint256",
          "name": "_alpha",
          "type": "uint256"
        },
        {
          "indexed": false,
          "internalType": "uint256",
          "name": "_feeForJuror",
          "type": "uint256"
        },
        {
          "indexed": false,
          "internalType": "uint256",
          "name": "_jurorsForCourtJump",
          "type": "uint256"
        },
        {
          "indexed": false,
          "internalType": "uint256[4]",
          "name": "_timesPerPeriod",
          "type": "uint256[4]"
        },
        {
          "indexed": false,
          "internalType": "uint256[]",
          "name": "_supportedDisputeKits",
          "type": "uint256[]"
        }
      ],
      "name": "CourtCreated",
      "type": "event"
    },
    {
      "anonymous": false,
      "inputs": [
        {
          "indexed": true,
          "internalType": "uint256",
          "name": "_disputeID",
          "type": "uint256"
        },
        {
          "indexed": true,
          "internalType": "uint256",
          "name": "_roundID",
          "type": "uint256"
        },
        {
          "indexed": true,
          "internalType": "uint96",
          "name": "_fromCourtID",
          "type": "uint96"
        },
        {
          "indexed": false,
          "internalType": "uint96",
          "name": "_toCourtID",
          "type": "uint96"
        }
      ],
      "name": "CourtJump",
      "type": "event"
    },
    {
      "anonymous": false,
      "inputs": [
        {
          "indexed": true,
          "internalType": "uint96",
          "name": "_courtID",
          "type": "uint96"
        },
        {
          "indexed": false,
          "internalType": "bool",
          "name": "_hiddenVotes",
          "type": "bool"
        },
        {
          "indexed": false,
          "internalType": "uint256",
          "name": "_minStake",
          "type": "uint256"
        },
        {
          "indexed": false,
          "internalType": "uint256",
          "name": "_alpha",
          "type": "uint256"
        },
        {
          "indexed": false,
          "internalType": "uint256",
          "name": "_feeForJuror",
          "type": "uint256"
        },
        {
          "indexed": false,
          "internalType": "uint256",
          "name": "_jurorsForCourtJump",
          "type": "uint256"
        },
        {
          "indexed": false,
          "internalType": "uint256[4]",
          "name": "_timesPerPeriod",
          "type": "uint256[4]"
        }
      ],
      "name": "CourtModified",
      "type": "event"
    },
    {
      "anonymous": false,
      "inputs": [
        {
          "indexed": true,
          "internalType": "uint256",
          "name": "_disputeID",
          "type": "uint256"
        },
        {
          "indexed": true,
          "internalType": "contract IArbitrableV2",
          "name": "_arbitrable",
          "type": "address"
        }
      ],
      "name": "DisputeCreation",
      "type": "event"
    },
    {
      "anonymous": false,
      "inputs": [
        {
          "indexed": true,
          "internalType": "uint256",
          "name": "_disputeKitID",
          "type": "uint256"
        },
        {
          "indexed": true,
          "internalType": "contract IDisputeKit",
          "name": "_disputeKitAddress",
          "type": "address"
        }
      ],
      "name": "DisputeKitCreated",
      "type": "event"
    },
    {
      "anonymous": false,
      "inputs": [
        {
          "indexed": true,
          "internalType": "uint96",
          "name": "_courtID",
          "type": "uint96"
        },
        {
          "indexed": true,
          "internalType": "uint256",
          "name": "_disputeKitID",
          "type": "uint256"
        },
        {
          "indexed": true,
          "internalType": "bool",
          "name": "_enable",
          "type": "bool"
        }
      ],
      "name": "DisputeKitEnabled",
      "type": "event"
    },
    {
      "anonymous": false,
      "inputs": [
        {
          "indexed": true,
          "internalType": "uint256",
          "name": "_disputeID",
          "type": "uint256"
        },
        {
          "indexed": true,
          "internalType": "uint256",
          "name": "_roundID",
          "type": "uint256"
        },
        {
          "indexed": true,
          "internalType": "uint256",
          "name": "_fromDisputeKitID",
          "type": "uint256"
        },
        {
          "indexed": false,
          "internalType": "uint256",
          "name": "_toDisputeKitID",
          "type": "uint256"
        }
      ],
      "name": "DisputeKitJump",
      "type": "event"
    },
    {
      "anonymous": false,
      "inputs": [
        {
          "indexed": true,
          "internalType": "address",
          "name": "_address",
          "type": "address"
        },
        {
          "indexed": true,
          "internalType": "uint256",
          "name": "_disputeID",
          "type": "uint256"
        },
        {
          "indexed": false,
          "internalType": "uint256",
          "name": "_roundID",
          "type": "uint256"
        },
        {
          "indexed": false,
          "internalType": "uint256",
          "name": "_voteID",
          "type": "uint256"
        }
      ],
      "name": "Draw",
      "type": "event"
    },
    {
      "anonymous": false,
      "inputs": [
        {
          "indexed": false,
          "internalType": "uint64",
          "name": "version",
          "type": "uint64"
        }
      ],
      "name": "Initialized",
      "type": "event"
    },
    {
      "anonymous": false,
      "inputs": [
        {
          "indexed": true,
          "internalType": "address",
          "name": "_account",
          "type": "address"
        },
        {
          "indexed": true,
          "internalType": "uint256",
          "name": "_disputeID",
          "type": "uint256"
        },
        {
          "indexed": true,
          "internalType": "uint256",
          "name": "_roundID",
          "type": "uint256"
        },
        {
          "indexed": false,
          "internalType": "uint256",
          "name": "_degreeOfCoherencyPnk",
          "type": "uint256"
        },
        {
          "indexed": false,
          "internalType": "uint256",
          "name": "_degreeOfCoherencyFee",
          "type": "uint256"
        },
        {
          "indexed": false,
          "internalType": "int256",
          "name": "_amountPnk",
          "type": "int256"
        },
        {
          "indexed": false,
          "internalType": "int256",
          "name": "_amountFee",
          "type": "int256"
        },
        {
          "indexed": false,
          "internalType": "contract IERC20",
          "name": "_feeToken",
          "type": "address"
        }
      ],
      "name": "JurorRewardPenalty",
      "type": "event"
    },
    {
      "anonymous": false,
      "inputs": [
        {
          "indexed": true,
          "internalType": "uint256",
          "name": "_disputeID",
          "type": "uint256"
        },
        {
          "indexed": true,
          "internalType": "uint256",
          "name": "_roundID",
          "type": "uint256"
        },
        {
          "indexed": false,
          "internalType": "uint256",
          "name": "_amountPnk",
          "type": "uint256"
        },
        {
          "indexed": false,
          "internalType": "uint256",
          "name": "_amountFee",
          "type": "uint256"
        },
        {
          "indexed": false,
          "internalType": "contract IERC20",
          "name": "_feeToken",
          "type": "address"
        }
      ],
      "name": "LeftoverRewardSent",
      "type": "event"
    },
    {
      "anonymous": false,
      "inputs": [
        {
          "indexed": true,
          "internalType": "contract IERC20",
          "name": "_feeToken",
          "type": "address"
        },
        {
          "indexed": false,
          "internalType": "uint64",
          "name": "_rateInEth",
          "type": "uint64"
        },
        {
          "indexed": false,
          "internalType": "uint8",
          "name": "_rateDecimals",
          "type": "uint8"
        }
      ],
      "name": "NewCurrencyRate",
      "type": "event"
    },
    {
      "anonymous": false,
      "inputs": [
        {
          "indexed": true,
          "internalType": "uint256",
          "name": "_disputeID",
          "type": "uint256"
        },
        {
          "indexed": false,
          "internalType": "enum KlerosCore.Period",
          "name": "_period",
          "type": "uint8"
        }
      ],
      "name": "NewPeriod",
      "type": "event"
    },
    {
      "anonymous": false,
      "inputs": [],
      "name": "Paused",
      "type": "event"
    },
    {
      "anonymous": false,
      "inputs": [
        {
          "indexed": true,
          "internalType": "contract IArbitrableV2",
          "name": "_arbitrable",
          "type": "address"
        },
        {
          "indexed": true,
          "internalType": "uint256",
          "name": "_disputeID",
          "type": "uint256"
        },
        {
          "indexed": false,
          "internalType": "uint256",
          "name": "_ruling",
          "type": "uint256"
        }
      ],
      "name": "Ruling",
      "type": "event"
    },
    {
      "anonymous": false,
      "inputs": [],
      "name": "Unpaused",
      "type": "event"
    },
    {
      "anonymous": false,
      "inputs": [
        {
          "indexed": true,
          "internalType": "address",
          "name": "newImplementation",
          "type": "address"
        }
      ],
      "name": "Upgraded",
      "type": "event"
    },
    {
      "inputs": [
        {
          "internalType": "contract IDisputeKit",
          "name": "_disputeKitAddress",
          "type": "address"
        }
      ],
      "name": "addNewDisputeKit",
      "outputs": [],
      "stateMutability": "nonpayable",
      "type": "function"
    },
    {
      "inputs": [
        {
          "internalType": "uint256",
          "name": "_disputeID",
          "type": "uint256"
        },
        {
          "internalType": "uint256",
          "name": "_numberOfChoices",
          "type": "uint256"
        },
        {
          "internalType": "bytes",
          "name": "_extraData",
          "type": "bytes"
        }
      ],
      "name": "appeal",
      "outputs": [],
      "stateMutability": "payable",
      "type": "function"
    },
    {
      "inputs": [
        {
          "internalType": "uint256",
          "name": "_disputeID",
          "type": "uint256"
        }
      ],
      "name": "appealCost",
      "outputs": [
        {
          "internalType": "uint256",
          "name": "",
          "type": "uint256"
        }
      ],
      "stateMutability": "view",
      "type": "function"
    },
    {
      "inputs": [
        {
          "internalType": "uint256",
          "name": "_disputeID",
          "type": "uint256"
        }
      ],
      "name": "appealPeriod",
      "outputs": [
        {
          "internalType": "uint256",
          "name": "start",
          "type": "uint256"
        },
        {
          "internalType": "uint256",
          "name": "end",
          "type": "uint256"
        }
      ],
      "stateMutability": "view",
      "type": "function"
    },
    {
      "inputs": [
        {
          "internalType": "address",
          "name": "",
          "type": "address"
        }
      ],
      "name": "arbitrableWhitelist",
      "outputs": [
        {
          "internalType": "bool",
          "name": "",
          "type": "bool"
        }
      ],
      "stateMutability": "view",
      "type": "function"
    },
    {
      "inputs": [],
      "name": "arbitrableWhitelistEnabled",
      "outputs": [
        {
          "internalType": "bool",
          "name": "",
          "type": "bool"
        }
      ],
      "stateMutability": "view",
      "type": "function"
    },
    {
      "inputs": [
        {
          "internalType": "bytes",
          "name": "_extraData",
          "type": "bytes"
        },
        {
          "internalType": "contract IERC20",
          "name": "_feeToken",
          "type": "address"
        }
      ],
      "name": "arbitrationCost",
      "outputs": [
        {
          "internalType": "uint256",
          "name": "cost",
          "type": "uint256"
        }
      ],
      "stateMutability": "view",
      "type": "function"
    },
    {
      "inputs": [
        {
          "internalType": "bytes",
          "name": "_extraData",
          "type": "bytes"
        }
      ],
      "name": "arbitrationCost",
      "outputs": [
        {
          "internalType": "uint256",
          "name": "cost",
          "type": "uint256"
        }
      ],
      "stateMutability": "view",
      "type": "function"
    },
    {
      "inputs": [
        {
          "internalType": "contract IERC20",
          "name": "_feeToken",
          "type": "address"
        },
        {
          "internalType": "bool",
          "name": "_accepted",
          "type": "bool"
        }
      ],
      "name": "changeAcceptedFeeTokens",
      "outputs": [],
      "stateMutability": "nonpayable",
      "type": "function"
    },
    {
      "inputs": [
        {
          "internalType": "address",
          "name": "_arbitrable",
          "type": "address"
        },
        {
          "internalType": "bool",
          "name": "_allowed",
          "type": "bool"
        }
      ],
      "name": "changeArbitrableWhitelist",
      "outputs": [],
      "stateMutability": "nonpayable",
      "type": "function"
    },
    {
      "inputs": [
        {
          "internalType": "bool",
          "name": "_enabled",
          "type": "bool"
        }
      ],
      "name": "changeArbitrableWhitelistEnabled",
      "outputs": [],
      "stateMutability": "nonpayable",
      "type": "function"
    },
    {
      "inputs": [
        {
          "internalType": "uint96",
          "name": "_courtID",
          "type": "uint96"
        },
        {
          "internalType": "bool",
          "name": "_hiddenVotes",
          "type": "bool"
        },
        {
          "internalType": "uint256",
          "name": "_minStake",
          "type": "uint256"
        },
        {
          "internalType": "uint256",
          "name": "_alpha",
          "type": "uint256"
        },
        {
          "internalType": "uint256",
          "name": "_feeForJuror",
          "type": "uint256"
        },
        {
          "internalType": "uint256",
          "name": "_jurorsForCourtJump",
          "type": "uint256"
        },
        {
          "internalType": "uint256[4]",
          "name": "_timesPerPeriod",
          "type": "uint256[4]"
        }
      ],
      "name": "changeCourtParameters",
      "outputs": [],
      "stateMutability": "nonpayable",
      "type": "function"
    },
    {
      "inputs": [
        {
          "internalType": "contract IERC20",
          "name": "_feeToken",
          "type": "address"
        },
        {
          "internalType": "uint64",
          "name": "_rateInEth",
          "type": "uint64"
        },
        {
          "internalType": "uint8",
          "name": "_rateDecimals",
          "type": "uint8"
        }
      ],
      "name": "changeCurrencyRates",
      "outputs": [],
      "stateMutability": "nonpayable",
      "type": "function"
    },
    {
      "inputs": [
        {
          "internalType": "address",
          "name": "_guardian",
          "type": "address"
        }
      ],
      "name": "changeGuardian",
      "outputs": [],
      "stateMutability": "nonpayable",
      "type": "function"
    },
    {
      "inputs": [
        {
          "internalType": "contract IERC721",
          "name": "_jurorNft",
          "type": "address"
        }
      ],
      "name": "changeJurorNft",
      "outputs": [],
      "stateMutability": "nonpayable",
      "type": "function"
    },
    {
      "inputs": [
        {
          "internalType": "address",
          "name": "_jurorProsecutionModule",
          "type": "address"
        }
      ],
      "name": "changeJurorProsecutionModule",
      "outputs": [],
      "stateMutability": "nonpayable",
      "type": "function"
    },
    {
      "inputs": [
        {
          "internalType": "address payable",
          "name": "_owner",
          "type": "address"
        }
      ],
      "name": "changeOwner",
      "outputs": [],
      "stateMutability": "nonpayable",
      "type": "function"
    },
    {
      "inputs": [
        {
          "internalType": "contract IERC20",
          "name": "_pinakion",
          "type": "address"
        }
      ],
      "name": "changePinakion",
      "outputs": [],
      "stateMutability": "nonpayable",
      "type": "function"
    },
    {
      "inputs": [
        {
          "internalType": "contract ISortitionModule",
          "name": "_sortitionModule",
          "type": "address"
        }
      ],
      "name": "changeSortitionModule",
      "outputs": [],
      "stateMutability": "nonpayable",
      "type": "function"
    },
    {
      "inputs": [
        {
          "internalType": "contract IERC20",
          "name": "_toToken",
          "type": "address"
        },
        {
          "internalType": "uint256",
          "name": "_amountInEth",
          "type": "uint256"
        }
      ],
      "name": "convertEthToTokenAmount",
      "outputs": [
        {
          "internalType": "uint256",
          "name": "",
          "type": "uint256"
        }
      ],
      "stateMutability": "view",
      "type": "function"
    },
    {
      "inputs": [
        {
          "internalType": "uint256",
          "name": "",
          "type": "uint256"
        }
      ],
      "name": "courts",
      "outputs": [
        {
          "internalType": "uint96",
          "name": "parent",
          "type": "uint96"
        },
        {
          "internalType": "bool",
          "name": "hiddenVotes",
          "type": "bool"
        },
        {
          "internalType": "uint256",
          "name": "minStake",
          "type": "uint256"
        },
        {
          "internalType": "uint256",
          "name": "alpha",
          "type": "uint256"
        },
        {
          "internalType": "uint256",
          "name": "feeForJuror",
          "type": "uint256"
        },
        {
          "internalType": "uint256",
          "name": "jurorsForCourtJump",
          "type": "uint256"
        }
      ],
      "stateMutability": "view",
      "type": "function"
    },
    {
      "inputs": [
        {
          "internalType": "uint96",
          "name": "_parent",
          "type": "uint96"
        },
        {
          "internalType": "bool",
          "name": "_hiddenVotes",
          "type": "bool"
        },
        {
          "internalType": "uint256",
          "name": "_minStake",
          "type": "uint256"
        },
        {
          "internalType": "uint256",
          "name": "_alpha",
          "type": "uint256"
        },
        {
          "internalType": "uint256",
          "name": "_feeForJuror",
          "type": "uint256"
        },
        {
          "internalType": "uint256",
          "name": "_jurorsForCourtJump",
          "type": "uint256"
        },
        {
          "internalType": "uint256[4]",
          "name": "_timesPerPeriod",
          "type": "uint256[4]"
        },
        {
          "internalType": "bytes",
          "name": "_sortitionExtraData",
          "type": "bytes"
        },
        {
          "internalType": "uint256[]",
          "name": "_supportedDisputeKits",
          "type": "uint256[]"
        }
      ],
      "name": "createCourt",
      "outputs": [],
      "stateMutability": "nonpayable",
      "type": "function"
    },
    {
      "inputs": [
        {
          "internalType": "uint256",
          "name": "_numberOfChoices",
          "type": "uint256"
        },
        {
          "internalType": "bytes",
          "name": "_extraData",
          "type": "bytes"
        }
      ],
      "name": "createDispute",
      "outputs": [
        {
          "internalType": "uint256",
          "name": "disputeID",
          "type": "uint256"
        }
      ],
      "stateMutability": "payable",
      "type": "function"
    },
    {
      "inputs": [
        {
          "internalType": "uint256",
          "name": "_numberOfChoices",
          "type": "uint256"
        },
        {
          "internalType": "bytes",
          "name": "_extraData",
          "type": "bytes"
        },
        {
          "internalType": "contract IERC20",
          "name": "_feeToken",
          "type": "address"
        },
        {
          "internalType": "uint256",
          "name": "_feeAmount",
          "type": "uint256"
        }
      ],
      "name": "createDispute",
      "outputs": [
        {
          "internalType": "uint256",
          "name": "disputeID",
          "type": "uint256"
        }
      ],
      "stateMutability": "nonpayable",
      "type": "function"
    },
    {
      "inputs": [
        {
          "internalType": "contract IERC20",
          "name": "",
          "type": "address"
        }
      ],
      "name": "currencyRates",
      "outputs": [
        {
          "internalType": "bool",
          "name": "feePaymentAccepted",
          "type": "bool"
        },
        {
          "internalType": "uint64",
          "name": "rateInEth",
          "type": "uint64"
        },
        {
          "internalType": "uint8",
          "name": "rateDecimals",
          "type": "uint8"
        }
      ],
      "stateMutability": "view",
      "type": "function"
    },
    {
      "inputs": [
        {
          "internalType": "uint256",
          "name": "_disputeID",
          "type": "uint256"
        }
      ],
      "name": "currentRuling",
      "outputs": [
        {
          "internalType": "uint256",
          "name": "ruling",
          "type": "uint256"
        },
        {
          "internalType": "bool",
          "name": "tied",
          "type": "bool"
        },
        {
          "internalType": "bool",
          "name": "overridden",
          "type": "bool"
        }
      ],
      "stateMutability": "view",
      "type": "function"
    },
    {
      "inputs": [
        {
          "internalType": "uint256",
          "name": "",
          "type": "uint256"
        }
      ],
      "name": "disputeKits",
      "outputs": [
        {
          "internalType": "contract IDisputeKit",
          "name": "",
          "type": "address"
        }
      ],
      "stateMutability": "view",
      "type": "function"
    },
    {
      "inputs": [
        {
          "internalType": "uint256",
          "name": "",
          "type": "uint256"
        }
      ],
      "name": "disputes",
      "outputs": [
        {
          "internalType": "uint96",
          "name": "courtID",
          "type": "uint96"
        },
        {
          "internalType": "contract IArbitrableV2",
          "name": "arbitrated",
          "type": "address"
        },
        {
          "internalType": "enum KlerosCore.Period",
          "name": "period",
          "type": "uint8"
        },
        {
          "internalType": "bool",
          "name": "ruled",
          "type": "bool"
        },
        {
          "internalType": "uint256",
          "name": "lastPeriodChange",
          "type": "uint256"
        }
      ],
      "stateMutability": "view",
      "type": "function"
    },
    {
      "inputs": [
        {
          "internalType": "uint256",
          "name": "_disputeID",
          "type": "uint256"
        },
        {
          "internalType": "uint256",
          "name": "_iterations",
          "type": "uint256"
        }
      ],
      "name": "draw",
      "outputs": [
        {
          "internalType": "uint256",
          "name": "nbDrawnJurors",
          "type": "uint256"
        }
      ],
      "stateMutability": "nonpayable",
      "type": "function"
    },
    {
      "inputs": [
        {
          "internalType": "uint96",
          "name": "_courtID",
          "type": "uint96"
        },
        {
          "internalType": "uint256[]",
          "name": "_disputeKitIDs",
          "type": "uint256[]"
        },
        {
          "internalType": "bool",
          "name": "_enable",
          "type": "bool"
        }
      ],
      "name": "enableDisputeKits",
      "outputs": [],
      "stateMutability": "nonpayable",
      "type": "function"
    },
    {
      "inputs": [
        {
          "internalType": "uint256",
          "name": "_disputeID",
          "type": "uint256"
        },
        {
          "internalType": "uint256",
          "name": "_round",
          "type": "uint256"
        },
        {
          "internalType": "uint256",
          "name": "_iterations",
          "type": "uint256"
        }
      ],
      "name": "execute",
      "outputs": [],
      "stateMutability": "nonpayable",
      "type": "function"
    },
    {
      "inputs": [
        {
          "internalType": "address",
          "name": "_destination",
          "type": "address"
        },
        {
          "internalType": "uint256",
          "name": "_amount",
          "type": "uint256"
        },
        {
          "internalType": "bytes",
          "name": "_data",
          "type": "bytes"
        }
      ],
      "name": "executeOwnerProposal",
      "outputs": [],
      "stateMutability": "nonpayable",
      "type": "function"
    },
    {
      "inputs": [
        {
          "internalType": "uint256",
          "name": "_disputeID",
          "type": "uint256"
        }
      ],
      "name": "executeRuling",
      "outputs": [],
      "stateMutability": "nonpayable",
      "type": "function"
    },
    {
      "inputs": [
        {
          "internalType": "uint256",
          "name": "_disputeID",
          "type": "uint256"
        }
      ],
      "name": "getCourtAndDisputeKitJumps",
      "outputs": [
        {
          "internalType": "uint96",
          "name": "newCourtID",
          "type": "uint96"
        },
        {
          "internalType": "uint256",
          "name": "newDisputeKitID",
          "type": "uint256"
        },
        {
          "internalType": "uint256",
          "name": "newRoundNbVotes",
          "type": "uint256"
        },
        {
          "internalType": "bool",
          "name": "courtJump",
          "type": "bool"
        },
        {
          "internalType": "bool",
          "name": "disputeKitJump",
          "type": "bool"
        }
      ],
      "stateMutability": "view",
      "type": "function"
    },
    {
      "inputs": [],
      "name": "getDisputeKitsLength",
      "outputs": [
        {
          "internalType": "uint256",
          "name": "",
          "type": "uint256"
        }
      ],
      "stateMutability": "view",
      "type": "function"
    },
    {
      "inputs": [
        {
          "internalType": "uint256",
          "name": "_disputeID",
          "type": "uint256"
        }
      ],
      "name": "getNumberOfRounds",
      "outputs": [
        {
          "internalType": "uint256",
          "name": "",
          "type": "uint256"
        }
      ],
      "stateMutability": "view",
      "type": "function"
    },
    {
      "inputs": [
        {
          "internalType": "uint256",
          "name": "_disputeID",
          "type": "uint256"
        }
      ],
      "name": "getNumberOfVotes",
      "outputs": [
        {
          "internalType": "uint256",
          "name": "",
          "type": "uint256"
        }
      ],
      "stateMutability": "view",
      "type": "function"
    },
    {
      "inputs": [
        {
          "internalType": "uint256",
          "name": "_disputeID",
          "type": "uint256"
        },
        {
          "internalType": "uint256",
          "name": "_round",
          "type": "uint256"
        }
      ],
      "name": "getPnkAtStakePerJuror",
      "outputs": [
        {
          "internalType": "uint256",
          "name": "",
          "type": "uint256"
        }
      ],
      "stateMutability": "view",
      "type": "function"
    },
    {
      "inputs": [
        {
          "internalType": "uint256",
          "name": "_disputeID",
          "type": "uint256"
        },
        {
          "internalType": "uint256",
          "name": "_round",
          "type": "uint256"
        }
      ],
      "name": "getRoundInfo",
      "outputs": [
        {
          "components": [
            {
              "internalType": "uint256",
              "name": "disputeKitID",
              "type": "uint256"
            },
            {
              "internalType": "uint256",
              "name": "pnkAtStakePerJuror",
              "type": "uint256"
            },
            {
              "internalType": "uint256",
              "name": "totalFeesForJurors",
              "type": "uint256"
            },
            {
              "internalType": "uint256",
              "name": "nbVotes",
              "type": "uint256"
            },
            {
              "internalType": "uint256",
              "name": "repartitions",
              "type": "uint256"
            },
            {
              "internalType": "uint256",
              "name": "pnkPenalties",
              "type": "uint256"
            },
            {
              "internalType": "address[]",
              "name": "drawnJurors",
              "type": "address[]"
            },
            {
              "internalType": "uint96[]",
              "name": "drawnJurorFromCourtIDs",
              "type": "uint96[]"
            },
            {
              "internalType": "uint256",
              "name": "sumFeeRewardPaid",
              "type": "uint256"
            },
            {
              "internalType": "uint256",
              "name": "sumPnkRewardPaid",
              "type": "uint256"
            },
            {
              "internalType": "contract IERC20",
              "name": "feeToken",
              "type": "address"
            },
            {
              "internalType": "uint256",
              "name": "drawIterations",
              "type": "uint256"
            },
            {
              "internalType": "uint256[10]",
              "name": "__gap",
              "type": "uint256[10]"
            }
          ],
          "internalType": "struct KlerosCore.Round",
          "name": "",
          "type": "tuple"
        }
      ],
      "stateMutability": "view",
      "type": "function"
    },
    {
      "inputs": [
        {
          "internalType": "uint96",
          "name": "_courtID",
          "type": "uint96"
        }
      ],
      "name": "getTimesPerPeriod",
      "outputs": [
        {
          "internalType": "uint256[4]",
          "name": "timesPerPeriod",
          "type": "uint256[4]"
        }
      ],
      "stateMutability": "view",
      "type": "function"
    },
    {
      "inputs": [],
      "name": "guardian",
      "outputs": [
        {
          "internalType": "address",
          "name": "",
          "type": "address"
        }
      ],
      "stateMutability": "view",
      "type": "function"
    },
    {
      "inputs": [
        {
          "internalType": "address",
          "name": "_owner",
          "type": "address"
        },
        {
          "internalType": "address",
          "name": "_guardian",
          "type": "address"
        },
        {
          "internalType": "contract IERC20",
          "name": "_pinakion",
          "type": "address"
        },
        {
          "internalType": "address",
          "name": "_jurorProsecutionModule",
          "type": "address"
        },
        {
          "internalType": "contract IDisputeKit",
          "name": "_disputeKit",
          "type": "address"
        },
        {
          "internalType": "bool",
          "name": "_hiddenVotes",
          "type": "bool"
        },
        {
          "internalType": "uint256[4]",
          "name": "_courtParameters",
          "type": "uint256[4]"
        },
        {
          "internalType": "uint256[4]",
          "name": "_timesPerPeriod",
          "type": "uint256[4]"
        },
        {
          "internalType": "bytes",
          "name": "_sortitionExtraData",
          "type": "bytes"
        },
        {
          "internalType": "contract ISortitionModule",
          "name": "_sortitionModuleAddress",
          "type": "address"
        },
        {
          "internalType": "address",
          "name": "_wNative",
          "type": "address"
        },
        {
          "internalType": "contract IERC721",
          "name": "_jurorNft",
          "type": "address"
        }
      ],
      "name": "initialize",
      "outputs": [],
      "stateMutability": "nonpayable",
      "type": "function"
    },
    {
      "inputs": [
        {
          "internalType": "uint96",
          "name": "_courtID",
          "type": "uint96"
        },
        {
          "internalType": "uint256",
          "name": "_disputeKitID",
          "type": "uint256"
        }
      ],
      "name": "isSupported",
      "outputs": [
        {
          "internalType": "bool",
          "name": "",
          "type": "bool"
        }
      ],
      "stateMutability": "view",
      "type": "function"
    },
    {
      "inputs": [],
      "name": "jurorNft",
      "outputs": [
        {
          "internalType": "contract IERC721",
          "name": "",
          "type": "address"
        }
      ],
      "stateMutability": "view",
      "type": "function"
    },
    {
      "inputs": [],
      "name": "jurorProsecutionModule",
      "outputs": [
        {
          "internalType": "address",
          "name": "",
          "type": "address"
        }
      ],
      "stateMutability": "view",
      "type": "function"
    },
    {
      "inputs": [],
      "name": "owner",
      "outputs": [
        {
          "internalType": "address",
          "name": "",
          "type": "address"
        }
      ],
      "stateMutability": "view",
      "type": "function"
    },
    {
      "inputs": [
        {
          "internalType": "uint256",
          "name": "_disputeID",
          "type": "uint256"
        }
      ],
      "name": "passPeriod",
      "outputs": [],
      "stateMutability": "nonpayable",
      "type": "function"
    },
    {
      "inputs": [],
      "name": "pause",
      "outputs": [],
      "stateMutability": "nonpayable",
      "type": "function"
    },
    {
      "inputs": [],
      "name": "paused",
      "outputs": [
        {
          "internalType": "bool",
          "name": "",
          "type": "bool"
        }
      ],
      "stateMutability": "view",
      "type": "function"
    },
    {
      "inputs": [],
      "name": "pinakion",
      "outputs": [
        {
          "internalType": "contract IERC20",
          "name": "",
          "type": "address"
        }
      ],
      "stateMutability": "view",
      "type": "function"
    },
    {
      "inputs": [],
      "name": "proxiableUUID",
      "outputs": [
        {
          "internalType": "bytes32",
          "name": "",
          "type": "bytes32"
        }
      ],
      "stateMutability": "view",
      "type": "function"
    },
    {
      "inputs": [
        {
          "internalType": "uint96",
          "name": "_courtID",
          "type": "uint96"
        },
        {
          "internalType": "uint256",
          "name": "_newStake",
          "type": "uint256"
        }
      ],
      "name": "setStake",
      "outputs": [],
      "stateMutability": "nonpayable",
      "type": "function"
    },
    {
      "inputs": [
        {
          "internalType": "address",
          "name": "_account",
          "type": "address"
        },
        {
          "internalType": "uint96",
          "name": "_courtID",
          "type": "uint96"
        },
        {
          "internalType": "uint256",
          "name": "_newStake",
          "type": "uint256"
        }
      ],
      "name": "setStakeBySortitionModule",
      "outputs": [
        {
          "internalType": "bool",
          "name": "",
          "type": "bool"
        }
      ],
      "stateMutability": "nonpayable",
      "type": "function"
    },
    {
      "inputs": [],
      "name": "sortitionModule",
      "outputs": [
        {
          "internalType": "contract ISortitionModule",
          "name": "",
          "type": "address"
        }
      ],
      "stateMutability": "view",
      "type": "function"
    },
    {
      "inputs": [
        {
          "internalType": "address",
          "name": "_account",
          "type": "address"
        },
        {
          "internalType": "uint256",
          "name": "_amount",
          "type": "uint256"
        }
      ],
      "name": "transferBySortitionModule",
      "outputs": [],
      "stateMutability": "nonpayable",
      "type": "function"
    },
    {
      "inputs": [],
      "name": "unpause",
      "outputs": [],
      "stateMutability": "nonpayable",
      "type": "function"
    },
    {
      "inputs": [
        {
          "internalType": "address",
          "name": "newImplementation",
          "type": "address"
        },
        {
          "internalType": "bytes",
          "name": "data",
          "type": "bytes"
        }
      ],
      "name": "upgradeToAndCall",
      "outputs": [],
      "stateMutability": "payable",
      "type": "function"
    },
    {
      "inputs": [],
      "name": "version",
      "outputs": [
        {
          "internalType": "string",
          "name": "",
          "type": "string"
        }
      ],
      "stateMutability": "view",
      "type": "function"
    },
    {
      "inputs": [],
      "name": "wNative",
      "outputs": [
        {
          "internalType": "address",
          "name": "",
          "type": "address"
        }
      ],
      "stateMutability": "view",
      "type": "function"
    }
  ],
  "transactionHash": "0xb40c80e438e862aea7bbb2d6ecdbc8f092b141d660f87aea406d127c86be2ed5",
  "args": [],
  "numDeployments": 1,
  "solcInputHash": "7120e939c323b678aae40a88db815cc2",
  "bytecode": "0x60a080604052346100c157306080525f5160206160945f395f51905f525460ff8160401c166100b3576002600160401b03196001600160401b03821601610060575b604051615fce90816100c6823960805181818161157801526117a70152f35b6001600160401b0319166001600160401b039081175f5160206160945f395f51905f525581527fc7f505b2f371ae2175ee4913f4499e1f2633a7b5936321eed1cdaeb6115181d290602090a15f80610041565b62dc149f60e41b5f5260045ffd5b5f80fdfe60806040526004361015610011575f80fd5b5f3560e01c8062f5822c146103c35780630219da79146103be5780630761c14d146103b95780630b7414bc146103b4578063115d5376146103af5780631860592b146103aa5780631b0416e9146103a55780631c3db16d146103a05780631d7e68921461039b5780631f5a0dd2146103965780632d29a47b146103915780632d68efc91461038c5780632e1daf2f146103875780632e2e936a146103825780632fcb4f041461037d5780633cfd1184146103785780633f4ba83a146103735780634159ad881461036e57806342c37fa314610369578063452a9320146103645780634f1ef2861461035f57806352d1902d1461035a57806354fd4d5014610355578063564a565d1461035057806359ec827e1461034b5780635c975abb146103465780636a8c9194146103415780637717a6e81461033c5780637934c0be1461033757806382d02237146103325780638456cb591461032d57806386541b241461032857806386cdecef146103235780638a9bb02a1461031e5780638bb04875146103195780638da5cb5b14610314578063a072b86c1461030f578063a6f9dae11461030a578063acdbf51d14610305578063afe15cfb14610300578063b0049637146102fb578063b2995659146102f6578063b44d573c146102f1578063c13517e1146102ec578063c258bb19146102e7578063c3569902146102e2578063c71f4253146102dd578063cf0c38f8146102d8578063d07368bd146102d3578063d2b8035a146102ce578063d4d1d76a146102c9578063d98493f6146102c4578063f6506db4146102bf578063f7434ea9146102ba578063fbf405b0146102b5578063fc6f8f16146102b0578063fca31d6d146102ab578063fe4037e6146102a65763fe524c39146102a1575f80fd5b613412565b6133a6565b6132f3565b6132c5565b61329f565b613269565b613156565b6130f9565b6130ae565b612d88565b612d1d565b612cf7565b612cbc565b6128e8565b61289c565b6125c9565b612588565b612566565b61251a565b612489565b612430565b6123b7565b612329565b612304565b6121b8565b61210a565b611f6c565b611dbf565b611c95565b611ba9565b611b1a565b611a1f565b611989565b611967565b611949565b6118c6565b61181b565b61178d565b61152e565b611498565b611451565b6113b7565b611335565b6112ba565b611237565b61120e565b6111e8565b6111bf565b610f35565b610eb5565b610e1d565b610de8565b610da6565b610d73565b610788565b610652565b6104d1565b610451565b6103dd565b6001600160a01b038116036103d957565b5f80fd5b346103d95760203660031901126103d9576004356103fa816103c8565b6001600160a01b035f54163303610429576001600160a01b03166001600160a01b031960025416176002555f80f35b7f596dcdb8000000000000000000000000000000000000000000000000000000005f5260045ffd5b346103d95760203660031901126103d9576001600160a01b03600435610476816103c8565b165f526008602052606060405f205460ff604051918181161515835267ffffffffffffffff8160081c16602084015260481c166040820152f35b61020435906104be826103c8565b565b6001600160601b038116036103d957565b346103d95760603660031901126103d9576004356104ee816103c8565b6024356104fa816104c0565b604435906001600160a01b0360045416330361052657610519926145f0565b6040519015158152602090f35b7f9d6cab99000000000000000000000000000000000000000000000000000000005f5260045ffd5b634e487b7160e01b5f52604160045260245ffd5b6101a0810190811067ffffffffffffffff82111761057f57604052565b61054e565b90601f8019910116810190811067ffffffffffffffff82111761057f57604052565b604051906104be61010083610584565b604051906104be6101a083610584565b67ffffffffffffffff811161057f5760051b60200190565b9080601f830112156103d95781356105f5816105c6565b926106036040519485610584565b81845260208085019260051b8201019283116103d957602001905b82821061062b5750505090565b813581526020918201910161061e565b801515036103d957565b60a435906104be8261063b565b346103d95760603660031901126103d95760043561066f816104c0565b60243567ffffffffffffffff81116103d95761068f9036906004016105de565b6044359061069c8261063b565b6001600160a01b035f54163303610429575f5b8151811015610786576106c28183613466565b51158015610770575b6107485782156106f257806106ec6106e560019385613466565b5186614a94565b016106af565b60016106fe8284613466565b5114610720578061071b61071460019385613466565b5186614a43565b6106ec565b7fada223fa000000000000000000000000000000000000000000000000000000005f5260045ffd5b7f7ab15312000000000000000000000000000000000000000000000000000000005f5260045ffd5b5061077b8183613466565b5160065411156106cb565b005b346103d95760203660031901126103d9576004356107a58161187a565b506107bf6107ba82546001600160601b031690565b610e94565b509060038101916107da6107d3845461348e565b80946134b9565b5060018301936107eb855460ff1690565b6107f4816118aa565b80610910575015806108ce575b6108a657600360068201549101540361087e57547f4e6f5cf43b95303e86aee81683df63992061723a829ee012db21dad388756b919261086f926108639260601c60ff16156108745761085660015b83613501565b6002429101555460ff1690565b60405191829182613519565b0390a2005b6108566002610850565b7f9e4486b0000000000000000000000000000000000000000000000000000000005f5260045ffd5b7f3e9727df000000000000000000000000000000000000000000000000000000005f5260045ffd5b506108dd6002840154426134ac565b61090a6109006108ee875460ff1690565b6108f7816118aa565b600686016134d2565b90549060031b1c90565b11610801565b9050610921819594959392936118aa565b60018103610a88575061095c61090061093e6002870154426134ac565b92600661094c875460ff1690565b91610956836118aa565b016134d2565b1190816109cb575b506109a357805460ff191660021781557f4e6f5cf43b95303e86aee81683df63992061723a829ee012db21dad388756b919161086f9161086391610856565b7f9bf4af0a000000000000000000000000000000000000000000000000000000005f5260045ffd5b6109fc91506109dd6109f09154612403565b90546001600160a01b039160031b1c1690565b6001600160a01b031690565b602060405180927f0baa64d10000000000000000000000000000000000000000000000000000000082528180610a3a89600483019190602083019252565b03915afa908115610a83575f91610a54575b50155f610964565b610a76915060203d602011610a7c575b610a6e8183610584565b8101906134e1565b5f610a4c565b503d610a64565b6134f6565b610a91816118aa565b60028103610bdf5750610aae61090061093e6002870154426134ac565b119081610b56575b50610b2e57805460ff191660031781557f4e6f5cf43b95303e86aee81683df63992061723a829ee012db21dad388756b919161086f91610863916001600160a01b03610b03825460601c90565b16867fa5d41b970d849372be1da1481ffd78d162bfe57a7aa2fe4e5fb73481fa5ac24f5f80a3610856565b7fcc46f568000000000000000000000000000000000000000000000000000000005f5260045ffd5b610b6891506109dd6109f09154612403565b602060405180927f6d4cd8ea0000000000000000000000000000000000000000000000000000000082528180610ba689600483019190602083019252565b03915afa908115610a83575f91610bc0575b50155f610ab6565b610bd9915060203d602011610a7c57610a6e8183610584565b5f610bb8565b610be8816118aa565b60038103610d0957610900610c11916006610c076002890154426134ac565b94610956836118aa565b119081610c80575b50610c5857805460ff191660041781557f4e6f5cf43b95303e86aee81683df63992061723a829ee012db21dad388756b919161086f9161086391610856565b7f2f4dfd87000000000000000000000000000000000000000000000000000000005f5260045ffd5b610c9291506109dd6109f09154612403565b602060405180927f0855bbe90000000000000000000000000000000000000000000000000000000082528180610cd089600483019190602083019252565b03915afa908115610a83575f91610cea575b50155f610c19565b610d03915060203d602011610a7c57610a6e8183610584565b5f610ce2565b905060049150610d18816118aa565b14610d4b5761086361086f917f4e6f5cf43b95303e86aee81683df63992061723a829ee012db21dad388756b9193610856565b7f0fe7191e000000000000000000000000000000000000000000000000000000005f5260045ffd5b346103d95760403660031901126103d9576020610d9e600435610d95816103c8565b60243590613575565b604051908152f35b346103d95760203660031901126103d957600435610dc38161063b565b6001600160a01b035f541633036104295760ff8019600b54169115151617600b555f80f35b346103d95760203660031901126103d9576060610e066004356135f7565b906040519283521515602083015215156040820152f35b346103d95760403660031901126103d957600435610e3a816103c8565b602435610e468161063b565b6001600160a01b035f54163303610429576001600160a01b0361078692165f52600a60205260405f209060ff801983541691151516179055565b634e487b7160e01b5f52603260045260245ffd5b600554811015610eb05760055f52601560205f20910201905f90565b610e80565b346103d95760203660031901126103d9576004356005548110156103d957610edc90610e94565b508054600282015460038301546004840154600590940154604080516001600160601b0386168152606095861c60ff16151560208201529081019390935292820152608081019290925260a08201528060c081015b0390f35b346103d95760603660031901126103d9576004356024356044359060ff6009541661118d57610f638361187a565b506004610f74600183015460ff1690565b610f7d816118aa565b0361116557816003610f8f92016134b9565b50906004820193610fa2855494856136df565b926005810194855496600683015490610fbf826002860154613566565b92610fd56109f06109dd60018801549754612403565b6040517fda3beb8c00000000000000000000000000000000000000000000000000000000815260048101889052602481018990529290602090849060449082905afa928315610a83575f93611134575b5082611105578389116110fc575b9780979695949392985b55965b8688106110565789898181540361105357005b55005b9091929394959698828a105f146110b6576110a76001916110756105a6565b908882528960208301528460408301528560608301528660808301528760a083015260c08201528b60e08201526150ef565b995b0196959493929190611040565b986001906110f76110c56105a6565b8881528960208201528460408201528560608201528660808201528760a08201528c60c08201528260e0820152614b56565b6110a9565b97508297611033565b61110e84613529565b8911611123575b97809796959493929861103d565b975061112e83613529565b97611115565b61115791935060203d60201161115e575b61114f8183610584565b8101906136ec565b915f611025565b503d611145565b7f8794ce4b000000000000000000000000000000000000000000000000000000005f5260045ffd5b7f6f1dac1d000000000000000000000000000000000000000000000000000000005f5260045ffd5b5f9103126103d957565b346103d9575f3660031901126103d95760206001600160a01b0360095460081c16604051908152f35b346103d9575f3660031901126103d95760206001600160a01b0360045416604051908152f35b346103d9575f3660031901126103d95760206001600160a01b03600b5460081c16604051908152f35b346103d95760203660031901126103d957600435611254816103c8565b6001600160a01b035f54163303610429576001600160a01b03166001600160a01b031960015416176001555f80f35b905f905b6004821061129457505050565b6020806001928551815201930191019091611287565b6080810192916104be9190611283565b346103d95760203660031901126103d9576112f16004356112da816104c0565b60806040516112e98282610584565b369037610e94565b50604051906006015f825b6004821061131f57610f3184611313608082610584565b604051918291826112aa565b60016020819285548152019301910190916112fc565b346103d9575f3660031901126103d9576001600160a01b035f541633036104295760095460ff81161561138f5760ff19166009557fa45f47fdea8a1efdd9029a5691c7f759c32b7c698632b563573e155625d169335f80a1005b7fb4143dc7000000000000000000000000000000000000000000000000000000005f5260045ffd5b346103d95760203660031901126103d9576004356113d48161187a565b506003810180545f1981019190821161144c57611413916113f4916134b9565b50926001600160601b03835416928461140c85610e94565b50916156c3565b9354604080516001600160601b03909416808552602085018490529084019590955293909214156060820152911415608082015260a090f35b61347a565b346103d95760403660031901126103d95760043561146e816103c8565b6024356001600160a01b0360045416330361052657610786916001600160a01b036002541661586e565b346103d9575f3660031901126103d95760206001600160a01b0360015416604051908152f35b67ffffffffffffffff811161057f57601f01601f191660200190565b9291926114e6826114be565b916114f46040519384610584565b8294818452818301116103d9578281602093845f960137010152565b9080601f830112156103d95781602061152b933591016114da565b90565b60403660031901126103d957600435611546816103c8565b60243567ffffffffffffffff81116103d957611566903690600401611510565b61156e6158ea565b6001600160a01b037f000000000000000000000000000000000000000000000000000000000000000016803014908115611752575b5061172a576001600160a01b0382166040517f52d1902d000000000000000000000000000000000000000000000000000000008152602081600481855afa5f9181611709575b50611624577f0c760937000000000000000000000000000000000000000000000000000000005f526001600160a01b03841660045260245b5ffd5b7f360894a13ba1a3210667c828492db98dca3e2076cc3735a920a3ca505d382bbc81036116de5750827f360894a13ba1a3210667c828492db98dca3e2076cc3735a920a3ca505d382bbc557fbc7cd75a20ee27fd9adebab32041f755214dbc6bffa90cc0225b39da2e5c2d3b5f80a280518061169c57005b5f926020849301905af46116ae6136fb565b50156116b657005b7f736436ba000000000000000000000000000000000000000000000000000000005f5260045ffd5b7faa1d49a4000000000000000000000000000000000000000000000000000000005f5260045260245ffd5b61172391925060203d60201161115e5761114f8183610584565b905f6115e9565b7fe07c8dba000000000000000000000000000000000000000000000000000000005f5260045ffd5b90506117857f360894a13ba1a3210667c828492db98dca3e2076cc3735a920a3ca505d382bbc546001600160a01b031690565b14155f6115a3565b346103d9575f3660031901126103d9576001600160a01b037f000000000000000000000000000000000000000000000000000000000000000016300361172a5760206040517f360894a13ba1a3210667c828492db98dca3e2076cc3735a920a3ca505d382bbc8152f35b805180835260209291819084018484015e5f828201840152601f01601f1916010190565b346103d9575f3660031901126103d957610f3160405161183c604082610584565b600581527f322e302e3000000000000000000000000000000000000000000000000000000060208201526040519182916020835260208301906117f7565b600754811015610eb05760075f52600e60205f20910201905f90565b634e487b7160e01b5f52602160045260245ffd5b600511156118b457565b611896565b9060058210156118b45752565b346103d95760203660031901126103d9576004356007548110156103d9576118ef60ff9161187a565b508054600260018301549201546040519384936001600160a01b0360a08601946001600160601b0380821616875260601c166020860152611935604086018383166118b9565b60081c161515606084015260808301520390f35b346103d95760203660031901126103d9576020610d9e60043561372a565b346103d9575f3660031901126103d957602060ff600954166040519015158152f35b346103d95760603660031901126103d9576004356119a6816103c8565b60243560443567ffffffffffffffff81116103d9576119c9903690600401611510565b6001600160a01b035f54163303610429575f928392602083519301915af16119ef6136fb565b50156119f757005b7f44125e5e000000000000000000000000000000000000000000000000000000005f5260045ffd5b346103d95760403660031901126103d957600435611a3c816104c0565b60243560ff6009541661118d57600b54611a619060081c6001600160a01b03166109f0565b6001600160a01b03811615159081611aab575b50611a8357610786913361487e565b7f4d6aa3ca000000000000000000000000000000000000000000000000000000005f5260045ffd5b6040517f70a082310000000000000000000000000000000000000000000000000000000081523360048201529150602090829060249082905afa908115610a83575f91611afb575b50155f611a74565b611b14915060203d60201161115e5761114f8183610584565b5f611af3565b346103d95760403660031901126103d957600435611b37816103c8565b60243590611b448261063b565b6001600160a01b035f54163303610429576001600160a01b031690815f526008602052611b808160405f209060ff801983541691151516179055565b1515907f541615e167511d757a7067a700eb54431b256bb458dfdce0ac58bf2ed0aefd445f80a3005b346103d95760603660031901126103d957600435611bc6816103c8565b6024359067ffffffffffffffff821682036103d95760443560ff811681036103d9576001600160a01b035f54163303610429576001600160a01b03919091165f81815260086020818152604092839020805469ffffffffffffffffff0019169287901b68ffffffffffffffff001692909217604886901b69ff0000000000000000001617909155815167ffffffffffffffff909516855260ff90931692840192909252917fe6996b7f03e9bd02228b99d3d946932e3197f505f60542c4cfbc919441d8a4e6918190810161086f565b346103d9575f3660031901126103d9576001600160a01b036001541633141580611d21575b611cf95760095460ff811661118d5760ff19166001176009557f9e87fac88ff661f02d44f95383c817fece4bce600a3dab7a54406878b965e7525f80a1005b7f36832b42000000000000000000000000000000000000000000000000000000005f5260045ffd5b50336001600160a01b035f54161415611cba565b8060e312156103d95760405190611d4d608083610584565b8190610144116103d95760c4905b6101448210611d6957505090565b8135815260209182019101611d5b565b8061016312156103d95760405190611d92608083610584565b81906101c4116103d957610144905b6101c48210611daf57505090565b8135815260209182019101611da1565b346103d9576101403660031901126103d957600435611ddd816104c0565b60243590611dea8261063b565b6044356064359260843560a43590611e0136611d35565b956001600160a01b035f54163303610429576001600160601b03611e2487610e94565b50961695600187141580611f4b575b611f23575f600182018054915b828110611ec5575050509161086f9391611eb9896006868a60027f709b1f5fda58af9a4f52dacd1ec404840a8148455700cce155a2bd8cf127ef1a9d9e990155611ea18a829060ff60601b825491151560601b169060ff60601b1916179055565b846003820155856004820155866005820155016137f1565b60405196879687613815565b886002611ed86107ba610900858761241b565b50015410611ee857600101611e40565b610900611ef8916116219361241b565b7f34507c1c000000000000000000000000000000000000000000000000000000005f52600452602490565b7f97170789000000000000000000000000000000000000000000000000000000005f5260045ffd5b50856002611f636107ba84546001600160601b031690565b50015411611e33565b346103d95760403660031901126103d95760206001611f9b6024356003611f9460043561187a565b50016134b9565b500154604051908152f35b90602080835192838152019201905f5b818110611fc35750505090565b82516001600160a01b0316845260209384019390920191600101611fb6565b90602080835192838152019201905f5b818110611fff5750505090565b82516001600160601b0316845260209384019390920191600101611ff2565b905f905b600a821061202f57505050565b6020806001928551815201930191019091612022565b61152b906020815282516020820152602083015160408201526040830151606082015260608301516080820152608083015160a082015260a083015160c08201526101a06101806120c16120aa60c08701516102c060e08701526102e0860190611fa6565b60e0870151858203601f1901610100870152611fe2565b946101008101516101208501526101208101516101408501526120f66101408201516101608601906001600160a01b03169052565b61016081015182850152015191019061201e565b346103d95760403660031901126103d957610f316121ac6121a66004356003611f946024359260405161213c81610562565b5f81525f60208201525f60408201525f60608201525f60808201525f60a0820152606060c0820152606060e08201525f6101008201525f6101208201525f6101408201525f610160820152610180610140916040519261219c8185610584565b368437015261187a565b50613992565b60405191829182612045565b346103d95760203660031901126103d9576004356121d58161187a565b50906001820191825460046121ea8260ff1690565b6121f3816118aa565b036111655760081c60ff166122dc5761222e61227391612227612215856135f7565b5050865461ff00191661010017909655565b5460601c90565b60405184815283906001600160a01b038316907f394027a5fa6e098a1191094d1719d6929b9abc535fcc0c8f448d6a4e7562227690602090a36001600160a01b031690565b91823b156103d9576040517f311a6c5600000000000000000000000000000000000000000000000000000000815260048101929092526024820152905f908290604490829084905af18015610a83576122c857005b806122d65f61078693610584565b806111b5565b7fc977f8d3000000000000000000000000000000000000000000000000000000005f5260045ffd5b346103d9575f3660031901126103d95760206001600160a01b035f5416604051908152f35b346103d9576101803660031901126103d957600435612347816104c0565b602435906123548261063b565b60443560643560a43560843561236936611d35565b926101443567ffffffffffffffff81116103d95761238b903690600401611510565b94610164359767ffffffffffffffff89116103d9576123b16107869936906004016105de565b97613a50565b346103d95760203660031901126103d9576004356123d4816103c8565b5f5490336001600160a01b03831603610429576001600160a01b036001600160a01b031991169116175f555f80f35b600654811015610eb05760065f5260205f2001905f90565b8054821015610eb0575f5260205f2001905f90565b346103d95760203660031901126103d9576004356006548110156103d9576001600160a01b0360209160065f527ff652222313e28459528d920b65115c16c04f3efc82aaedc97be59f3f377c0d3f015416604051908152f35b346103d95760203660031901126103d9576124a560043561187a565b5060ff60018201541660058110156118b457600303612504576124f16124eb61090060066124e16001600160601b036002870154965416610e94565b5001600301905f90565b826136df565b905b604080519182526020820192909252f35b505f806124f3565b6101e435906104be826103c8565b346103d95760203660031901126103d957600435612537816103c8565b6001600160a01b035f54163303610429576001600160a01b03166001600160a01b031960045416176004555f80f35b346103d9575f3660031901126103d957602060ff600b54166040519015158152f35b346103d95760203660031901126103d9576001600160a01b036004356125ad816103c8565b165f52600a602052602060ff60405f2054166040519015158152f35b60403660031901126103d95760043560243567ffffffffffffffff81116103d9576125f8903690600401611510565b9061260282614046565b341061287457600b5460ff168061284d575b6128255761262182615bec565b905061265461265061264983600a61263a879897610e94565b5001905f5260205260405f2090565b5460ff1690565b1590565b6127fd57600754926127075f600a61266a6158fd565b503360601b6bffffffffffffffffffffffff19166001600160601b0386161781554260028201556126e06126b660036126ae6126a86109dd8b612403565b98610e94565b509301613ebf565b50916126c6600482015434613566565b976003840198895583556003600282015491015490615b7e565b600182015534600282015501906001600160a01b03166001600160a01b0319825416179055565b61271c6109f06004546001600160a01b031690565b90813b156103d95760405163d09f392d60e01b8152600481018690525f6024820181905290928390604490829084905af1918215610a83576001600160a01b03926127e9575b5016905490803b156103d957612793945f809460405197889586948593635e34282960e01b85528a6004860161592f565b03925af1918215610a83576020926127d5575b5033817f141dfc18aa6a56fc816f44f0e9e2f1ebc92b15ab167770e17db5b084c10ed9955f80a3604051908152f35b806122d65f6127e393610584565b5f6127a6565b806122d65f6127f793610584565b5f612762565b7fb34eb75d000000000000000000000000000000000000000000000000000000005f5260045ffd5b7f203b0c18000000000000000000000000000000000000000000000000000000005f5260045ffd5b5061286f612650612649336001600160a01b03165f52600a60205260405f2090565b612614565b7f38cd83c4000000000000000000000000000000000000000000000000000000005f5260045ffd5b346103d95760203660031901126103d9576004356128b9816103c8565b6001600160a01b035f54163303610429576001600160a01b03166001600160a01b031960035416176003555f80f35b60603660031901126103d95760043560243560443567ffffffffffffffff81116103d95761291a903690600401611510565b906129248361372a565b3410612c94576129338361187a565b509160018301906003612947835460ff1690565b612950816118aa565b03612c6c57600384019161296d612967845461348e565b846134b9565b506129816109f06109f06109dd8454612403565b3303612c445783612994612a1095613ebf565b50612a1b896129a3845461348e565b9788968b6129c7846129bc83546001600160601b031690565b928a61140c85610e94565b509990946001600160601b0383166001600160601b03871603612c01575b50508c546bffffffffffffffffffffffff19166001600160601b038516178d5550805460ff19169055565b4260028b0155610e94565b5093612a46612a2e600487015434613566565b95600384019687556003600282015491015490615b7e565b60018301553460028301558155612a686109f06004546001600160a01b031690565b803b156103d95760405163d09f392d60e01b8152600481018b905260248101889052905f908290604490829084905af18015610a8357612bed575b5054915490818303612b1c575b887f4e6f5cf43b95303e86aee81683df63992061723a829ee012db21dad388756b916001600160a01b03612ae58b5460601c90565b1660405190837f9c9b64db9e130f48381bf697abf638e73117dbfbfd7a4484f2da3ba188f4187d5f80a35f8152806020810161086f565b612b64926109f092612b316109dd935461348e565b6040518381528c907fcbe7939a71f0b369c7471d760a0a99b60b7bb010ee0406cba8a46679d1ea775690602090a4612403565b905493813b156103d9575f8094612b9260405197889687958694635e34282960e01b86528d60048701613ee0565b03925af18015610a83577f4e6f5cf43b95303e86aee81683df63992061723a829ee012db21dad388756b91926001600160a01b0392612ae592612bd9575b81948180612ab0565b806122d65f612be793610584565b5f612bd0565b806122d65f612bfb93610584565b5f612aa3565b6040516001600160601b03878116825293909316927f736e3f52761298c8c0823e1ebf482ed3c5ecb304f743d2d91a7c006e8e8d7a1f90602090a45f8a8e6129e5565b7f065f245f000000000000000000000000000000000000000000000000000000005f5260045ffd5b7fdf37bf2c000000000000000000000000000000000000000000000000000000005f5260045ffd5b7f3191f8f1000000000000000000000000000000000000000000000000000000005f5260045ffd5b346103d95760203660031901126103d9576003612cda60043561187a565b500180545f19810190811161144c57611f9b6003916020936134b9565b346103d9575f3660031901126103d95760206001600160a01b0360035416604051908152f35b346103d95760203660031901126103d957600435612d3a816103c8565b6001600160a01b035f54163303610429576001600160a01b0360065491612d6081613f0e565b16907f44063d258760b98116d53815adbc906a56b3563e540148cc0fc2457f83b5eeb25f80a3005b346103d95760403660031901126103d957602435600435612da88161187a565b50906003820191612dbc6107d3845461348e565b50600182015460ff16612dce816118aa565b61308657612ddf6109dd8254612403565b94600b82018054936001600160a01b035f9816600385019560018601936007600688019701955b808c108061307b575b1561305857612e27612e208d613f76565b9c846136df565b8954604080517fbc7a679d000000000000000000000000000000000000000000000000000000008152600481018e905260248101939093526044830191909152816064815f895af1908115610a83575f905f92613027575b506001600160a01b03811690811561301f57612ea66109f06004546001600160a01b031690565b91895492803b156103d9576040517f21e1625e0000000000000000000000000000000000000000000000000000000081526001600160a01b038416600482015260248101949094525f908490604490829084905af1908115610a83578f8f92908e612f4b967f6119cf536152c11e0a9a6c22f3953ce4ecc93ee54fa72ffa326ffabded21509b9361300b575b505460408051928352602083019190915290a38a613fa9565b6001600160601b03811615612ff157612f65905b8861400b565b8754895403612e0657612f836109f06004546001600160a01b031690565b803b156103d9576040517f5d2d7846000000000000000000000000000000000000000000000000000000008152600481018c9052602481018d9052905f908290604490829084905af18015610a8357612fdd575b50612e06565b806122d65f612feb93610584565b5f612fd7565b50612f6561300686546001600160601b031690565b612f5f565b806122d65f61301993610584565b5f612f32565b505050612e06565b905061304a915060403d8111613051575b6130428183610584565b810190613f84565b905f612e7f565b503d613038565b610f3188836130688f82546136df565b9055546040519081529081906020820190565b508754895411612e0f565b7f8285c4ef000000000000000000000000000000000000000000000000000000005f5260045ffd5b346103d9575f3660031901126103d9576020600654604051908152f35b9181601f840112156103d95782359167ffffffffffffffff83116103d957602083818601950101116103d957565b346103d95760403660031901126103d95760043567ffffffffffffffff81116103d957610d9e61314b61315061313560209436906004016130cb565b929060243593613144856103c8565b36916114da565b614046565b90613575565b346103d95760803660031901126103d95760043560243567ffffffffffffffff81116103d95761318a9036906004016130cb565b91604435613197816103c8565b606435916001600160a01b0382165f5260086020526131bd61265060405f205460ff1690565b613241576131d86131d261314b3688886114da565b83613575565b8310612874576131ed61265084303386615b8f565b6132195761320361320994610f319636916114da565b90615957565b6040519081529081906020820190565b7f90b8ec18000000000000000000000000000000000000000000000000000000005f5260045ffd5b7fe51cf7bf000000000000000000000000000000000000000000000000000000005f5260045ffd5b346103d95760203660031901126103d95760043567ffffffffffffffff81116103d957610d9e61314b6020923690600401611510565b346103d9575f3660031901126103d95760206001600160a01b0360025416604051908152f35b346103d95760203660031901126103d95760206003611f9b60043561187a565b61022435906104be826103c8565b346103d9576102403660031901126103d957600435613311816103c8565b6024359061331e826103c8565b6044359161332b836103c8565b60643592613338846103c8565b60843593613345856103c8565b61334d610645565b61335636611d35565b61335f36611d79565b916101c4359767ffffffffffffffff89116103d957613385610786993690600401611510565b9461338e61250c565b966133976104b0565b986133a06132e5565b9a61405f565b346103d95760203660031901126103d9576004356133c3816103c8565b6001600160a01b035f5416330361042957600b5474ffffffffffffffffffffffffffffffffffffffff00191660089190911b74ffffffffffffffffffffffffffffffffffffffff001617600b55005b346103d95760403660031901126103d957600a600435613431816104c0565b61343d60243591610e94565b50905f5201602052602060ff60405f2054166040519015158152f35b805115610eb05760200190565b8051821015610eb05760209160051b010190565b634e487b7160e01b5f52601160045260245ffd5b5f1981019190821161144c57565b6127100390612710821161144c57565b9190820391821161144c57565b8054821015610eb0575f52601660205f20910201905f90565b6004821015610eb05701905f90565b908160209103126103d9575161152b8161063b565b6040513d5f823e3d90fd5b9060058110156118b45760ff80198354169116179055565b6020810192916104be91906118b9565b908160011b918083046002149015171561144c57565b8181029291811591840414171561144c57565b634e487b7160e01b5f52601260045260245ffd5b8115613570570490565b613552565b6001600160a01b031690815f52600860205260ff60405f205460481c1690604d821161144c576135a891600a0a9061353f565b905f52600860205267ffffffffffffffff60405f205460081c16908115613570570490565b908160609103126103d957805191604060208301516135eb8161063b565b92015161152b8161063b565b60036136028261187a565b500180545f1981019290831161144c5761364a6001600160a01b0361363661362f613683966060966134b9565b5054612403565b90549060031b1c166001600160a01b031690565b60405180809581947f1c3db16d000000000000000000000000000000000000000000000000000000008352600483019190602083019252565b03915afa908115610a83575f915f915f9161369f575b50909192565b9150506136c4915060603d6060116136ca575b6136bc8183610584565b8101906135cd565b5f613699565b503d6136b2565b906001820180921161144c57565b9190820180921161144c57565b908160209103126103d9575190565b3d15613725573d9061370c826114be565b9161371a6040519384610584565b82523d5f602084013e565b606090565b6001600160601b0361373b8261187a565b509161377061375760038501613751815461348e565b906134b9565b5091838554169461376786610e94565b509384916156c3565b9391949050166001600160601b038416918183146137df57506001141590816137d5575b506137bf5750507f7fffffffffffffffffffffffffffffffffffffffffffffffffffffffffffffff90565b60046137cd61152b93610e94565b50015461353f565b905015155f613794565b905061152b935060049150015461353f565b905f5b6004811061380157505050565b6001906020835193019281850155016137f4565b919360a0936104be96929897956101208501991515855260208501526040840152606083015260808201520190611283565b90604051918281549182825260208201905f5260205f20925f5b8181106138765750506104be92500383610584565b84546001600160a01b0316835260019485019487945060209093019201613861565b604051815480825290929183906138b660208301915f5260205f2090565b925f905b806001830110613911576104be9454918181106138f7575b106138e0575b500383610584565b60601c6001600160601b031681526020015f6138d8565b6001600160601b03831684529260019060200193016138d2565b916002919350604060019161394f875461393c836001600160601b0383166001600160601b03169052565b60601c6001600160601b03166020830152565b0194019201859293916138ba565b60405191905f835b600a821061397c575050506104be61014083610584565b6001602081928554815201930191019091613965565b90613a48600c6139a06105b6565b938054855260018101546020860152600281015460408601526003810154606086015260048101546080860152600581015460a08601526139e360068201613847565b60c08601526139f460078201613898565b60e086015260088101546101008601526009810154610120860152613a37613a26600a8301546001600160a01b031690565b6001600160a01b0316610140870152565b600b8101546101608601520161395d565b610180830152565b90919297969398956001600160a01b035f5416330361042957836002613a7584610e94565b50015411611f2357875115613cb9576001600160601b038216958615613c91576005546001600160601b03169a613aaa613ce1565b509a5f5b8b51811015613b0357613ac1818d613466565b51158015613aed575b6107485780613ae78f613ae08f94600195613466565b5190614a94565b01613aae565b50613af8818d613466565b516006541115613aca565b509091929395979a9b999496989b613b2c612650612649600a840160015f5260205260405f2090565b613c695780546bffffffffffffffffffffffff19166001600160601b038816178155613baa908590600690613b6b613b62613d13565b60018301613d50565b80546cff00000000000000000000000019168b151560601b60ff60601b161781558b6002820155846003820155856004820155866005820155016137f1565b613bbf6109f06004546001600160a01b031690565b803b156103d957613bea995f918c83604051809e8195829463169d7d0760e31b845260048401613dfd565b03925af1958615610a835760019a6001600160601b03613c38613c44937f550ff678017abc294b4786a99a046628d5a1eac07be0f1ea7e89543f13576ee69d613c509b613c55575b50610e94565b5091169b8c9101613e1d565b60405197889788613e51565b0390a3565b806122d65f613c6393610584565b5f613c32565b7f31a8d9e8000000000000000000000000000000000000000000000000000000005f5260045ffd5b7f1ef4f649000000000000000000000000000000000000000000000000000000005f5260045ffd5b7f402585f5000000000000000000000000000000000000000000000000000000005f5260045ffd5b600554600160401b81101561057f5760018101600555600554811015610eb05760055f52601560205f20910201905f90565b60405190613d22602083610584565b5f808352366020840137565b60408051909190613d3f8382610584565b6001815291601f1901366020840137565b81519167ffffffffffffffff831161057f57600160401b831161057f578154838355808410613da8575b50602001905f5260205f205f5b838110613d945750505050565b600190602084519401938184015501613d87565b825f528360205f2091820191015b818110613dc35750613d7a565b5f8155600101613db6565b90604061152b925f815281602082015201906117f7565b90604061152b926001815281602082015201906117f7565b6040906001600160601b0361152b949316815281602082015201906117f7565b8054600160401b81101561057f57613e3a9160018201815561241b565b819291549060031b91821b915f19901b1916179055565b929461016094602096613e8894989398610140870199151587528887015260408601526060850152608084015260a0830190611283565b6101406101208201528451809452019201905f5b818110613ea95750505090565b8251845260209384019390920191600101613e9c565b8054600160401b81101561057f57613edc916001820181556134b9565b9091565b9594939092613f099260809488526020880152604087015260a0606087015260a08601906117f7565b930152565b60065490600160401b82101561057f5760018201600655600654821015610eb05760065f527ff652222313e28459528d920b65115c16c04f3efc82aaedc97be59f3f377c0d3f90910180546001600160a01b0319166001600160a01b03909216919091179055565b5f19811461144c5760010190565b91908260409103126103d95760208251613f9d816103c8565b92015161152b816104c0565b90815491600160401b83101561057f5782613fcc9160016104be9501815561241b565b9091906001600160a01b038084549260031b9316831b921b1916179055565b9190918054831015610eb0575f52600c600160205f2084821c0193160290565b8054600160401b81101561057f5761402891600182018155613feb565b6001600160601b0380839493549260031b9316831b921b1916179055565b6137cd600461405761152b93615bec565b509290610e94565b999795939160ff9b99979593916140ae6140a07ff0c57e16840df040f15088dc2f81fe391c3923bec73e23a9662efc9c229c6a0e549e8f60401c1615151590565b9d67ffffffffffffffff1690565b8d80614247575b15908161421f575b50614211576141279b8d61411e600167ffffffffffffffff197ff0c57e16840df040f15088dc2f81fe391c3923bec73e23a9662efc9c229c6a0e5416177ff0c57e16840df040f15088dc2f81fe391c3923bec73e23a9662efc9c229c6a0e55565b6141b157614289565b61412d57565b61418268ff0000000000000000197ff0c57e16840df040f15088dc2f81fe391c3923bec73e23a9662efc9c229c6a0e54167ff0c57e16840df040f15088dc2f81fe391c3923bec73e23a9662efc9c229c6a0e55565b604051600181527fc7f505b2f371ae2175ee4913f4499e1f2633a7b5936321eed1cdaeb6115181d290602090a1565b61420c600160401b68ff0000000000000000197ff0c57e16840df040f15088dc2f81fe391c3923bec73e23a9662efc9c229c6a0e5416177ff0c57e16840df040f15088dc2f81fe391c3923bec73e23a9662efc9c229c6a0e55565b614289565b62dc149f60e41b5f5260045ffd5b303b15915081614232575b50155f6140bd565b6001915067ffffffffffffffff16145f61422a565b50600167ffffffffffffffff8216106140b5565b600654600160401b81101561057f5760018101600655600654811015610eb05760065f5260205f2001905f90565b9861432061437a946143046001600160a01b039a9d956143b8999f989a9d61433c966142cc6142e8926001600160a01b03166001600160a01b03195f5416175f55565b6001600160a01b03166001600160a01b03196001541617600155565b6001600160a01b03166001600160a01b03196002541617600255565b6001600160a01b03166001600160a01b03196003541617600355565b6001600160a01b03166001600160a01b03196004541617600455565b60095474ffffffffffffffffffffffffffffffffffffffff00191660089190911b74ffffffffffffffffffffffffffffffffffffffff001617600955565b600b5474ffffffffffffffffffffffffffffffffffffffff00191660089190911b74ffffffffffffffffffffffffffffffffffffffff001617600b55565b6143c061425b565b50506143cb81613f0e565b1660017f44063d258760b98116d53815adbc906a56b3563e540148cc0fc2457f83b5eeb25f80a36143fa613ce1565b50506144116109f06004546001600160a01b031690565b803b156103d9575f604051809263169d7d0760e31b82528183816144388860048301613dce565b03925af18015610a83576145ae575b50614450613ce1565b5080546bffffffffffffffffffffffff1916815591614479614470613d13565b60018501613d50565b82546cff000000000000000000000000191685151560601b60ff60601b161783558051600284015560208101805160038501556040820180516004860155936060830195865160058301556144d181600684016137f1565b6144e66109f06004546001600160a01b031690565b803b156103d9576145115f9691879260405198898094819363169d7d0760e31b835260048301613de5565b03925af1928315610a83576001977f550ff678017abc294b4786a99a046628d5a1eac07be0f1ea7e89543f13576ee6976001600160601b039761458f9661459a575b5061457861455f613d2e565b958b61456a88613459565b52546001600160601b031690565b965192519051915192604051988998169b88613e51565b0390a36104be614ae8565b806122d65f6145a893610584565b5f614553565b806122d65f6145bc93610584565b5f614447565b908160609103126103d95780519160406020830151920151600a8110156103d95790565b600a11156118b457565b9190916001600160601b0383168015908115614871575b50614864578115158061484e575b6148415761462e6109f06004546001600160a01b031690565b60405163c70ba3b960e01b81526001600160a01b03831660048201526001600160601b038516602482015260448101849052600160648201529390606090859060849082905f905af1928315610a83575f915f955f95614809575b50614693856145e6565b841515806147f5575b156146b557505050506146b191506001615cfd565b5f90565b90919293806146c56001926145e6565b146147eb57826147b6575b84614783575b6146eb6109f06004546001600160a01b031690565b91823b156103d9576040517faac03ad20000000000000000000000000000000000000000000000000000000081526001600160a01b0390951660048601526001600160601b039091166024850152604484019290925260648301939093526084820152905f90829081838160a4810103925af18015610a835761476f575b50600190565b806122d65f61477d93610584565b5f614769565b6147a2612650868661479d6002546001600160a01b031690565b61586e565b156146d65750505050506146b16001615cdd565b6147d7612650846147cf6002546001600160a01b031690565b873091615b8f565b156146d05750505050506146b16001615cbd565b5050505050600190565b506147ff856145e6565b600185141561469c565b9195509350614830915060603d60601161483a575b6148288183610584565b8101906145c2565b949094935f614689565b503d61481e565b5050506146b16001615c9d565b50600261485a84610e94565b5001548210614615565b5050506146b16001615c7d565b905060055411155f614607565b9190916001600160601b0383168015908115614a36575b50614a2a5781151580614a14575b614a08576148bc6109f06004546001600160a01b031690565b60405163c70ba3b960e01b81526001600160a01b03831660048201526001600160601b0385166024820152604481018490525f60648201819052909491606091869160849183915af1928315610a83575f915f955f956149e0575b50614921856145e6565b841515806149cc575b1561493e57505050506146b191505f615cfd565b909192938061494e6001926145e6565b146147eb57826149a0575b84614973576146eb6109f06004546001600160a01b031690565b61498d612650868661479d6002546001600160a01b031690565b156146d65750505050506146b15f615cdd565b6149b9612650846147cf6002546001600160a01b031690565b156149595750505050506146b15f615cbd565b506149d6856145e6565b600185141561492a565b91955093506149fe915060603d60601161483a576148288183610584565b949094935f614917565b5050506146b15f615c9d565b506002614a2084610e94565b50015482106148a3565b5050506146b15f615c7d565b905060055411155f614895565b906001600160601b035f92600a614a5982610e94565b508486520160205260408420805460ff19169055167fb47629acdf64971062d40984f77d3dee212d735b11e3e8c7a4222d9f0572cc798380a4565b906001600160601b03600192600a614aab82610e94565b50845f520160205260405f208460ff19825416179055167fb47629acdf64971062d40984f77d3dee212d735b11e3e8c7a4222d9f0572cc795f80a4565b600a614af46001610e94565b5060015f520160205260405f20600160ff19825416179055600180807fb47629acdf64971062d40984f77d3dee212d735b11e3e8c7a4222d9f0572cc795f80a4565b8115613570570690565b91908260409103126103d9576020825192015190565b614b60815161187a565b50614b7460208301916003835191016134b9565b5091614b836109dd8454612403565b60e08201805191614b9a6060850193845190614b36565b9160408386519388516001600160a01b0360808a015196614c0d60a08c01518751998a97889687957f9d61ab6e000000000000000000000000000000000000000000000000000000008752600487019192608093969594919660a084019784526020840152604083015260608201520152565b0392165afa938415610a83575f925f9561508d575b508294612710819411615083575b61271010615079575b614c496109dd8560068b0161241b565b93614c588660018b0154615b7e565b614c6d6109f06004546001600160a01b031690565b803b156103d95760405163965af6c760e01b81526001600160a01b038816600482015260248101929092525f908290604490829084905af18015610a8357615065575b5060c087019289898551988060408c019a8b51614ccc91613566565b90614cd691615b7e565b986009840199808b5490614ce9916136df565b8b5589600286019c8d549051614cfe91613566565b90614d0891615b7e565b918d600887019b848d5490614d1c916136df565b8d5584151580615038575b84159081159b8c614f23575b5090614d629a999897969594939291614d679c91614f1b575b50614e92575b5050505050505050519251613529565b61348e565b14614d76575b50505050505050565b614d9192614d8791519054906134ac565b92549054906134ac565b90801580158091614e89575b614da8575b80614d6d565b614df0600a7f6cecfd3ec56289ccb16e30eb194f9a87dfdc12630b9abbc31fc69af5a0b0eaf495614e1893614e5c575b85614e26575b5196519701546001600160a01b031690565b604051938493849160409194936001600160a01b039160608501968552602085015216910152565b0390a35f8080808080614da2565b614e5786614e3d848c01546001600160a01b031690565b614e516109f05f546001600160a01b031690565b90615e77565b614dde565b614e8385614e726002546001600160a01b031690565b5f546001600160a01b03169061586e565b50614dd8565b50821515614d9d565b7fa90d30adac7f21a7def444f0fe0a60bdf16d7e8415973dd09bf869db8f94d58e946001600160a01b0394614ed8600a614f0b95519a519b01546001600160a01b031690565b60408051998a5260208a01949094529288015260608701526001600160a01b0316608086015291169290819060a0820190565b0390a48a8a5f8080808e81614d52565b90505f614d4c565b90859b9a99989796959493929160078b0190614f3e91613feb565b905460039190911b1c6001600160601b031660045487906001600160a01b03166001600160a01b0316916040519e8f9283927f664bffc30000000000000000000000000000000000000000000000000000000084526004840192614fc4936001600160601b036040929594936001600160a01b0360608401971683521660208201520152565b03815a6020945f91f19c8d15610a8357614d679d614d629d5f91615019575b5015614ffc575b9c50909192939495969798999a614d33565b615013878761479d6002546001600160a01b031690565b50614fea565b615032915060203d602011610a7c57610a6e8183610584565b5f614fe3565b61506086615050600a8c01546001600160a01b031690565b6001600160a01b03871690615e77565b614d27565b806122d65f61507393610584565b5f614cb0565b6127109250614c39565b6127109550614c30565b9094506150b391925060403d6040116150bd575b6150ab8183610584565b810190614b40565b919091935f614c22565b503d6150a1565b908160609103126103d9578051916040602083015192015190565b600160ff1b811461144c575f0390565b6150f9815161187a565b509061510e60208201926003845191016134b9565b5061511f6109f06109dd8354612403565b8251845160e085018051608087015160a08801516040516252697760e61b8152600481019690965260248601949094526044850191909152606484015260848301919091529194919060208160a481895afa908115610a83575f91615680575b506127108111615677575b6151ac6151a4600186015461519e8461349c565b9061353f565b612710900490565b906151be6109dd84516006880161241b565b966151d46109f06004546001600160a01b031690565b91823b156103d95760405163965af6c760e01b81526001600160a01b038a16600482015260248101859052925f908490604490829084905af1928315610a83576152b693615663575b506060615244615231875160078b01613feb565b90546001600160601b039160031b1c1690565b9461525a6109f06004546001600160a01b031690565b865f8d604051988995869485937f771a27cb000000000000000000000000000000000000000000000000000000008552600485016001600160601b036040929594936001600160a01b0360608401971683521660208201520152565b03925af18015610a8357865f925f955f93615629575b508a8a8d85615585575b50505050505015908115615501575b501561544e5750506153026109f06004546001600160a01b031690565b803b156103d9576040517faa9ebfb70000000000000000000000000000000000000000000000000000000081526001600160a01b039690961660048701525f908690602490829084905af1948515610a835760c09561543a575b505b5161536c606085015161348e565b148061542e575b61537f575b5050015190565b7f6cecfd3ec56289ccb16e30eb194f9a87dfdc12630b9abbc31fc69af5a0b0eaf4600a83016153d96153b882546001600160a01b031690565b60026153ce6109f05f546001600160a01b031690565b960195865491615e77565b6002546001600160a01b0316936154076153fa5f546001600160a01b031690565b958888019687519161586e565b50615424614df0875195519651925493546001600160a01b031690565b0390a35f80615378565b50604083015115615373565b806122d65f61544893610584565b5f61535c565b600261545b839893610e94565b5001541161546e575b5060c0945061535e565b6154836109f06004546001600160a01b031690565b95863b156103d9576040517f9d5608670000000000000000000000000000000000000000000000000000000081526001600160a01b039290921660048301526001600160601b03166024820152945f908690604490829084905af1948515610a835760c0951561546457806122d65f6154fb93610584565b5f615464565b8751865186516040517fba66fde70000000000000000000000000000000000000000000000000000000081526004810193909352602483019190915260448201529150602090829060649082905afa908115610a83575f91615566575b50155f6152e5565b61557f915060203d602011610a7c57610a6e8183610584565b5f61555e565b61561b6001600160a01b03926155e4600a6155d58760c07fa90d30adac7f21a7def444f0fe0a60bdf16d7e8415973dd09bf869db8f94d58e99016155ca8d82516136df565b90525199519a6150df565b9201546001600160a01b031690565b906040519485941696849160809194936001600160a01b039160a085019685525f602086015260408501525f606085015216910152565b0390a45f86818a8a8d6152d6565b9193509450615650915060603d60601161565c575b6156488183610584565b8101906150c4565b9491929094915f6152cc565b503d61563e565b806122d65f61567193610584565b5f61521d565b5061271061518a565b615699915060203d60201161115e5761114f8183610584565b5f61517f565b908160609103126103d95780516156b5816104c0565b916040602083015192015190565b9390919260608354946156ec6156de6109f06109dd89612403565b97546001600160601b031690565b96876003600561570385546001600160601b031690565b9401549701546040517fdb918bb400000000000000000000000000000000000000000000000000000000815260048101969096526001600160601b0391821660248701529216604485015260648401959095526084830186905260a483018190529193849060c49082905afa938415610a83575f955f945f96615833575b50859480966001600160601b038916918215928315615826575b50821561581d575b8215615810575b508115615807575b506157ed575b50506157cf61265061264986600a61263a8a610e94565b6157d65750565b9250905061152b6157e8600193613529565b6136d1565b9550935091506157ff6157e883613529565b915f806157b8565b9050155f6157b2565b600654111591505f6157aa565b801592506157a3565b600554111592505f61579b565b919650945061585b91935060603d606011615867575b6158538183610584565b81019061569f565b9391959093945f615781565b503d615849565b60405163a9059cbb60e01b602082019081526001600160a01b0393841660248301526044808301959095529381525f93849390918491906158b0606482610584565b5193165af16158bd6136fb565b816158c6575090565b80518015925082156158d757505090565b61152b92506020809183010191016134e1565b6001600160a01b035f5416330361042957565b600754600160401b81101561057f5760018101600755600754811015610eb05760075f52600e60205f20910201905f90565b949392608092613f099287525f6020880152604087015260a0606087015260a08601906117f7565b9091939293615968600b5460ff1690565b80615b57575b6128255761597b83615bec565b92905061599361265061264985600a61263a87610e94565b6127fd57615a5590600a600754986159a96158fd565b503360601b6bffffffffffffffffffffffff19166001600160601b03871617815542600282015590615a2f6159f660036159ee6159e86109dd8c612403565b99610e94565b509401613ebf565b50926001600160a01b038616615b4157615a1560048201545b84613566565b9860038501998a5584556003600282015491015490615b7e565b6001830155600282015501906001600160a01b03166001600160a01b0319825416179055565b615a6a6109f06004546001600160a01b031690565b90813b156103d95760405163d09f392d60e01b8152600481018890525f6024820181905290928390604490829084905af1918215610a83576001600160a01b0392615b2d575b5016905490803b156103d957615ae1935f809460405196879586948593635e34282960e01b85528c6004860161592f565b03925af18015610a8357615b19575b5033827f141dfc18aa6a56fc816f44f0e9e2f1ebc92b15ab167770e17db5b084c10ed9955f80a3565b806122d65f615b2793610584565b5f615af0565b806122d65f615b3b93610584565b5f615ab0565b615a15615b52600483015488613575565b615a0f565b50615b79612650612649336001600160a01b03165f52600a60205260405f2090565b61596e565b61271091615b8b9161353f565b0490565b905f6001600160a01b03819594829582604051928160208501977f23b872dd0000000000000000000000000000000000000000000000000000000089521660248501521660448301526064820152606481526158b0608482610584565b8051604011615c675760208101519160606040830151920151906001600160601b0384168015908115615c5a575b50615c51575b8215615c48575b81158015615c3c575b615c3657565b60019150565b50600654821015615c30565b60039250615c27565b60019350615c20565b905060055411155f615c1a565b50600190600390600190565b600211156118b457565b600190615c8981615c73565b146104be57637c84af5160e01b5f5260045ffd5b600190615ca981615c73565b146104be57630caac6b360e31b5f5260045ffd5b600190615cc981615c73565b146104be57630f323ed960e11b5f5260045ffd5b600190615ce981615c73565b146104be5763e45e13a360e01b5f5260045ffd5b600190615d0981615c73565b14615e7457615d17816145e6565b60028114615e6557615d28816145e6565b60038114615e5657615d39816145e6565b60048114615e2e57615d4a816145e6565b60058114615e1f57615d5b816145e6565b60068114615e1057615d6c816145e6565b60098114615de857615d7d816145e6565b60078114615dc05780615d916008926145e6565b14615d9857565b7f58859f1d000000000000000000000000000000000000000000000000000000005f5260045ffd5b7f6590e915000000000000000000000000000000000000000000000000000000005f5260045ffd5b7ff95e58bc000000000000000000000000000000000000000000000000000000005f5260045ffd5b630caac6b360e31b5f5260045ffd5b637c84af5160e01b5f5260045ffd5b7fec8e8768000000000000000000000000000000000000000000000000000000005f5260045ffd5b63e45e13a360e01b5f5260045ffd5b630f323ed960e11b5f5260045ffd5b50565b9091906001600160a01b038116615ea35750906104be916001600160a01b0360095460081c1691615eb6565b6001600160a01b03615e7493169061586e565b9091825f8115615f8f575b5f80809381936001600160a01b03881690f1615f8a576001600160a01b031691823b156103d9576040517fd0e30db00000000000000000000000000000000000000000000000000000000081525f8160048185885af18015610a8357615f76575b50823b156103d95760405163a9059cbb60e01b81526001600160a01b039290921660048301526024820152905f908290604490829084905af18015610a8357615f685750565b806122d65f6104be93610584565b806122d65f615f8493610584565b5f615f22565b505050565b506108fc615ec156fea2646970667358221220416bb54cb1b10255c8ac982ad1cab73f288e6bb42657c2de4faabd9c37d6e05164736f6c634300081e0033f0c57e16840df040f15088dc2f81fe391c3923bec73e23a9662efc9c229c6a0e",
  "devdoc": {
    "details": "This contract trusts the PNK token, the dispute kits and the sortition module contracts.",
    "errors": {
      "AlreadyInitialized()": [
        {
          "details": "The contract is already initialized."
        }
      ],
      "NotInitializing()": [
        {
          "details": "The contract is not initializing."
        }
      ]
    },
    "events": {
      "AcceptedFeeToken(address,bool)": {
        "params": {
          "_accepted": "Whether the token is accepted or not.",
          "_token": "The ERC20 token."
        }
      },
      "AppealDecision(uint256,address)": {
        "params": {
          "_arbitrable": "The arbitrable contract.",
          "_disputeID": "ID of the related dispute."
        }
      },
      "AppealPossible(uint256,address)": {
        "params": {
          "_arbitrable": "The arbitrable contract.",
          "_disputeID": "ID of the related dispute."
        }
      },
      "CourtCreated(uint96,uint96,bool,uint256,uint256,uint256,uint256,uint256[4],uint256[])": {
        "params": {
          "_alpha": "The `alpha` property value of the court.",
          "_courtID": "ID of the new court.",
          "_feeForJuror": "The `feeForJuror` property value of the court.",
          "_hiddenVotes": "Whether the court has hidden votes or not.",
          "_jurorsForCourtJump": "The `jurorsForCourtJump` property value of the court.",
          "_minStake": "The `minStake` property value of the court.",
          "_parent": "ID of the parent court.",
          "_supportedDisputeKits": "Indexes of dispute kits that this court will support.",
          "_timesPerPeriod": "The `timesPerPeriod` property value of the court."
        }
      },
      "CourtJump(uint256,uint256,uint96,uint96)": {
        "params": {
          "_disputeID": "ID of the dispute.",
          "_fromCourtID": "ID of the previous court.",
          "_roundID": "ID of the round.",
          "_toCourtID": "ID of the new court."
        }
      },
      "CourtModified(uint96,bool,uint256,uint256,uint256,uint256,uint256[4])": {
        "params": {
          "_alpha": "The `alpha` property value of the court.",
          "_courtID": "ID of the court.",
          "_feeForJuror": "The `feeForJuror` property value of the court.",
          "_hiddenVotes": "Whether the court has hidden votes or not.",
          "_jurorsForCourtJump": "The `jurorsForCourtJump` property value of the court.",
          "_minStake": "The `minStake` property value of the court.",
          "_timesPerPeriod": "The `timesPerPeriod` property value of the court."
        }
      },
      "DisputeCreation(uint256,address)": {
        "params": {
          "_arbitrable": "The contract which created the dispute.",
          "_disputeID": "The identifier of the dispute in the Arbitrator contract."
        }
      },
      "DisputeKitCreated(uint256,address)": {
        "params": {
          "_disputeKitAddress": "Address of the new dispute kit.",
          "_disputeKitID": "ID of the new dispute kit."
        }
      },
      "DisputeKitEnabled(uint96,uint256,bool)": {
        "params": {
          "_courtID": "ID of the related court.",
          "_disputeKitID": "ID of the dispute kit.",
          "_enable": "Whether the dispute kit has been enabled or disabled."
        }
      },
      "DisputeKitJump(uint256,uint256,uint256,uint256)": {
        "params": {
          "_disputeID": "ID of the dispute.",
          "_fromDisputeKitID": "ID of the previous dispute kit.",
          "_roundID": "ID of the round.",
          "_toDisputeKitID": "ID of the new dispute kit."
        }
      },
      "Draw(address,uint256,uint256,uint256)": {
        "params": {
          "_address": "The drawn address.",
          "_disputeID": "ID of the related dispute.",
          "_roundID": "ID of the related round.",
          "_voteID": "ID of the vote given to the drawn juror."
        }
      },
      "Initialized(uint64)": {
        "details": "Triggered when the contract has been initialized or reinitialized."
      },
      "JurorRewardPenalty(address,uint256,uint256,uint256,uint256,int256,int256,address)": {
        "params": {
          "_account": "Juror's address.",
          "_amountFee": "Amount of fee shifted.",
          "_amountPnk": "Amount of PNK shifted.",
          "_degreeOfCoherencyFee": "Juror's degree of coherency in this round applied to the dispute fee.",
          "_degreeOfCoherencyPnk": "Juror's degree of coherency in this round applied to PNK.",
          "_disputeID": "ID of the dispute.",
          "_feeToken": "Address of the fee token.",
          "_roundID": "ID of the round."
        }
      },
      "LeftoverRewardSent(uint256,uint256,uint256,uint256,address)": {
        "params": {
          "_amountFee": "Amount of fee sent.",
          "_amountPnk": "Amount of PNK sent.",
          "_disputeID": "ID of the dispute.",
          "_feeToken": "Address of the fee token.",
          "_roundID": "ID of the round."
        }
      },
      "NewCurrencyRate(address,uint64,uint8)": {
        "params": {
          "_feeToken": "The ERC20 token.",
          "_rateDecimals": "The new decimals of the fee token rate.",
          "_rateInEth": "The new rate of the fee token in ETH."
        }
      },
      "NewPeriod(uint256,uint8)": {
        "params": {
          "_disputeID": "ID of the related dispute.",
          "_period": "The new period."
        }
      },
      "Ruling(address,uint256,uint256)": {
        "params": {
          "_arbitrable": "The arbitrable receiving the ruling.",
          "_disputeID": "The identifier of the dispute in the Arbitrator contract.",
          "_ruling": "The ruling which was given."
        }
      },
      "Upgraded(address)": {
        "params": {
          "newImplementation": "Address of the new implementation the proxy is now forwarding calls to."
        }
      }
    },
    "kind": "dev",
    "methods": {
      "addNewDisputeKit(address)": {
        "params": {
          "_disputeKitAddress": "The address of the dispute kit contract."
        }
      },
      "appeal(uint256,uint256,bytes)": {
        "details": "Access restricted to the Dispute Kit for this `_disputeID`.",
        "params": {
          "_disputeID": "The ID of the dispute.",
          "_extraData": "Extradata for the dispute. Can be required during court jump.",
          "_numberOfChoices": "Number of choices for the dispute. Can be required during court jump."
        }
      },
      "appealCost(uint256)": {
        "params": {
          "_disputeID": "The ID of the dispute."
        },
        "returns": {
          "_0": "The appeal cost."
        }
      },
      "appealPeriod(uint256)": {
        "params": {
          "_disputeID": "The ID of the dispute."
        },
        "returns": {
          "end": "The end of the appeal period.",
          "start": "The start of the appeal period."
        }
      },
      "arbitrationCost(bytes)": {
        "details": "It is recommended not to increase it often, as it can be highly time and gas consuming for the arbitrated contracts to cope with fee augmentation.",
        "params": {
          "_extraData": "Additional info about the dispute. We use it to pass the ID of the dispute's court (first 32 bytes), the minimum number of jurors required (next 32 bytes) and the ID of the specific dispute kit (last 32 bytes)."
        },
        "returns": {
          "cost": "The arbitration cost in ETH."
        }
      },
      "arbitrationCost(bytes,address)": {
        "details": "It is recommended not to increase it often, as it can be highly time and gas consuming for the arbitrated contracts to cope with fee augmentation.",
        "params": {
          "_extraData": "Additional info about the dispute. We use it to pass the ID of the dispute's court (first 32 bytes), the minimum number of jurors required (next 32 bytes) and the ID of the specific dispute kit (last 32 bytes).",
          "_feeToken": "The ERC20 token used to pay fees."
        },
        "returns": {
          "cost": "The arbitration cost in `_feeToken`."
        }
      },
      "changeAcceptedFeeTokens(address,bool)": {
        "params": {
          "_accepted": "Whether the token is supported or not as a method of fee payment.",
          "_feeToken": "The fee token."
        }
      },
      "changeArbitrableWhitelist(address,bool)": {
        "params": {
          "_allowed": "Whether add or remove permission.",
          "_arbitrable": "Arbitrable address."
        }
      },
      "changeCourtParameters(uint96,bool,uint256,uint256,uint256,uint256,uint256[4])": {
        "params": {
          "_alpha": "The `alpha` property value of the court.",
          "_courtID": "ID of the court.",
          "_feeForJuror": "The `feeForJuror` property value of the court.",
          "_hiddenVotes": "The `hiddenVotes` property value of the court.",
          "_jurorsForCourtJump": "The `jurorsForCourtJump` property value of the court.",
          "_minStake": "The `minStake` property value of the court.",
          "_timesPerPeriod": "The `timesPerPeriod` property value of the court."
        }
      },
      "changeCurrencyRates(address,uint64,uint8)": {
        "params": {
          "_feeToken": "The fee token.",
          "_rateDecimals": "The new decimals of the fee token rate.",
          "_rateInEth": "The new rate of the fee token in ETH."
        }
      },
      "changeGuardian(address)": {
        "params": {
          "_guardian": "The new value for the `guardian` storage variable."
        }
      },
      "changeJurorNft(address)": {
        "params": {
          "_jurorNft": "The new value for the `jurorNft` storage variable."
        }
      },
      "changeJurorProsecutionModule(address)": {
        "params": {
          "_jurorProsecutionModule": "The new value for the `jurorProsecutionModule` storage variable."
        }
      },
      "changeOwner(address)": {
        "params": {
          "_owner": "The new value for the `owner` storage variable."
        }
      },
      "changePinakion(address)": {
        "params": {
          "_pinakion": "The new value for the `pinakion` storage variable."
        }
      },
      "changeSortitionModule(address)": {
        "params": {
          "_sortitionModule": "The new value for the `sortitionModule` storage variable."
        }
      },
      "constructor": {
        "custom:oz-upgrades-unsafe-allow": "constructor"
      },
      "convertEthToTokenAmount(address,uint256)": {
        "params": {
          "_amountInEth": "ETH amount.",
          "_toToken": "The token to convert ETH into."
        },
        "returns": {
          "_0": "Amount of tokens."
        }
      },
      "createCourt(uint96,bool,uint256,uint256,uint256,uint256,uint256[4],bytes,uint256[])": {
        "params": {
          "_alpha": "The `alpha` property value of the court.",
          "_feeForJuror": "The `feeForJuror` property value of the court.",
          "_hiddenVotes": "The `hiddenVotes` property value of the court.",
          "_jurorsForCourtJump": "The `jurorsForCourtJump` property value of the court.",
          "_minStake": "The `minStake` property value of the court.",
          "_parent": "The `parent` property value of the court.",
          "_sortitionExtraData": "Extra data for sortition module.",
          "_supportedDisputeKits": "Indexes of dispute kits that this court will support.",
          "_timesPerPeriod": "The `timesPerPeriod` property value of the court."
        }
      },
      "createDispute(uint256,bytes)": {
        "details": "Must be called by the arbitrable contract and pay at least `arbitrationCost(_extraData)` in ETH.",
        "params": {
          "_extraData": "Additional info about the dispute. We use it to pass the ID of the dispute's court (first 32 bytes), the minimum number of jurors required (next 32 bytes) and the ID of the specific dispute kit (last 32 bytes).",
          "_numberOfChoices": "The number of choices the arbitrator can choose from in this dispute."
        },
        "returns": {
          "disputeID": "The identifier of the dispute created."
        }
      },
      "createDispute(uint256,bytes,address,uint256)": {
        "details": "Must be called by the arbitrable contract and pay at least `arbitrationCost(_extraData, _feeToken)` in the supported ERC20 token.",
        "params": {
          "_extraData": "Additional info about the dispute. We use it to pass the ID of the dispute's court (first 32 bytes), the minimum number of jurors required (next 32 bytes) and the ID of the specific dispute kit (last 32 bytes).",
          "_feeAmount": "Amount of the ERC20 token used to pay fees.",
          "_feeToken": "The ERC20 token used to pay fees.",
          "_numberOfChoices": "The number of choices the arbitrator can choose from in this dispute."
        },
        "returns": {
          "disputeID": "The identifier of the dispute created."
        }
      },
      "currentRuling(uint256)": {
        "params": {
          "_disputeID": "The ID of the dispute."
        },
        "returns": {
          "overridden": "Whether the ruling was overridden by appeal funding or not.",
          "ruling": "The current ruling.",
          "tied": "Whether it's a tie or not."
        }
      },
      "draw(uint256,uint256)": {
        "params": {
          "_disputeID": "The ID of the dispute.",
          "_iterations": "The number of iterations to run."
        },
        "returns": {
          "nbDrawnJurors": "The total number of jurors drawn in the round."
        }
      },
      "enableDisputeKits(uint96,uint256[],bool)": {
        "params": {
          "_courtID": "The ID of the court.",
          "_disputeKitIDs": "The IDs of dispute kits which support should be added/removed.",
          "_enable": "Whether add or remove the dispute kits from the court."
        }
      },
      "execute(uint256,uint256,uint256)": {
        "details": "Reward distributions are forbidden during pause.",
        "params": {
          "_disputeID": "The ID of the dispute.",
          "_iterations": "The number of iterations to run.",
          "_round": "The appeal round."
        }
      },
      "executeOwnerProposal(address,uint256,bytes)": {
        "params": {
          "_amount": "The value sent with the call.",
          "_data": "The data sent with the call.",
          "_destination": "The destination of the call."
        }
      },
      "executeRuling(uint256)": {
        "params": {
          "_disputeID": "The ID of the dispute."
        }
      },
      "getCourtAndDisputeKitJumps(uint256)": {
        "params": {
          "_disputeID": "Dispute ID."
        },
        "returns": {
          "courtJump": "Whether the dispute jumps to a new court or not.",
          "disputeKitJump": "Whether the dispute jumps to a new dispute kit or not.",
          "newCourtID": "Court ID after jump.",
          "newDisputeKitID": "Dispute kit ID after jump.",
          "newRoundNbVotes": "The number of votes in the new round."
        }
      },
      "getDisputeKitsLength()": {
        "returns": {
          "_0": "disputeKits length."
        }
      },
      "getNumberOfRounds(uint256)": {
        "params": {
          "_disputeID": "The ID of the dispute."
        },
        "returns": {
          "_0": "The number of rounds."
        }
      },
      "getNumberOfVotes(uint256)": {
        "params": {
          "_disputeID": "The ID of the dispute."
        }
      },
      "getPnkAtStakePerJuror(uint256,uint256)": {
        "params": {
          "_disputeID": "The ID of the dispute.",
          "_round": "The round to get the info for."
        },
        "returns": {
          "_0": "pnkAtStakePerJuror The PNK at stake per juror."
        }
      },
      "getRoundInfo(uint256,uint256)": {
        "details": "This function must not be called from a non-view function because it returns a dynamic array which might be very large, theoretically exceeding the block gas limit.",
        "params": {
          "_disputeID": "The ID of the dispute.",
          "_round": "The round to get the info for."
        },
        "returns": {
          "_0": "round The round info."
        }
      },
      "getTimesPerPeriod(uint96)": {
        "params": {
          "_courtID": "The ID of the court to get the times from."
        },
        "returns": {
          "timesPerPeriod": "The timesPerPeriod array for the given court."
        }
      },
      "initialize(address,address,address,address,address,bool,uint256[4],uint256[4],bytes,address,address,address)": {
        "params": {
          "_courtParameters": "Numeric parameters of General court (minStake, alpha, feeForJuror and jurorsForCourtJump respectively).",
          "_disputeKit": "The address of the default dispute kit.",
          "_guardian": "The guardian's address.",
          "_hiddenVotes": "The `hiddenVotes` property value of the general court.",
          "_jurorNft": "NFT contract to vet the jurors.",
          "_jurorProsecutionModule": "The address of the juror prosecution module.",
          "_owner": "The owner's address.",
          "_pinakion": "The address of the token contract.",
          "_sortitionExtraData": "The extra data for sortition module.",
          "_sortitionModuleAddress": "The sortition module responsible for sortition of the jurors.",
          "_timesPerPeriod": "The `timesPerPeriod` property value of the general court.",
          "_wNative": "The wrapped native token address, typically wETH."
        }
      },
      "isSupported(uint96,uint256)": {
        "params": {
          "_courtID": "The ID of the court to check the support for.",
          "_disputeKitID": "The ID of the dispute kit to check the support for."
        },
        "returns": {
          "_0": "Whether the dispute kit is supported or not."
        }
      },
      "passPeriod(uint256)": {
        "params": {
          "_disputeID": "The ID of the dispute."
        }
      },
      "proxiableUUID()": {
        "details": "IMPORTANT: A proxy pointing at a proxiable contract should not be considered proxiable itself, because this risks bricking a proxy that upgrades to it, by delegating to itself until out of gas. Thus it is critical that this function revert if invoked through a proxy. This is guaranteed by the if statement."
      },
      "setStake(uint96,uint256)": {
        "params": {
          "_courtID": "The ID of the court.",
          "_newStake": "The new stake. Note that the existing delayed stake will be nullified as non-relevant."
        }
      },
      "setStakeBySortitionModule(address,uint96,uint256)": {
        "params": {
          "_account": "The account whose stake is being set.",
          "_courtID": "The ID of the court.",
          "_newStake": "The new stake."
        },
        "returns": {
          "_0": "True if the stake was set successfully."
        }
      },
      "transferBySortitionModule(address,uint256)": {
        "params": {
          "_account": "The account of the juror whose PNK to transfer.",
          "_amount": "The amount to transfer."
        }
      },
      "upgradeToAndCall(address,bytes)": {
        "details": "Reverts if the execution is not performed via delegatecall or the execution context is not of a proxy with an ERC1967-compliant implementation pointing to self.",
        "params": {
          "data": "Data used in a delegate call to `newImplementation` if non-empty. This will typically be an encoded function call, and allows initializing the storage of the proxy like a Solidity constructor.",
          "newImplementation": "Address of the new implementation contract."
        }
      }
    },
    "stateVariables": {
      "version": {
        "return": "Version string.",
        "returns": {
          "_0": "Version string."
        }
      }
    },
    "title": "KlerosCore",
    "version": 1
  },
  "userdoc": {
    "errors": {
      "FailedDelegateCall()": [
        {
          "notice": "Failed Delegated call"
        }
      ],
      "InvalidImplementation(address)": [
        {
          "notice": "The `implementation` is not UUPS-compliant"
        }
      ],
      "UUPSUnauthorizedCallContext()": [
        {
          "notice": "The call is from an unauthorized context."
        }
      ],
      "UUPSUnsupportedProxiableUUID(bytes32)": [
        {
          "notice": "The storage `slot` is unsupported as a UUID."
        }
      ]
    },
    "events": {
      "AcceptedFeeToken(address,bool)": {
        "notice": "To be emitted when an ERC20 token is added or removed as a method to pay fees."
      },
      "AppealDecision(uint256,address)": {
        "notice": "Emitted when the dispute is successfully appealed."
      },
      "AppealPossible(uint256,address)": {
        "notice": "Emitted when appeal period starts."
      },
      "CourtCreated(uint96,uint96,bool,uint256,uint256,uint256,uint256,uint256[4],uint256[])": {
        "notice": "Emitted when a new court is created."
      },
      "CourtJump(uint256,uint256,uint96,uint96)": {
        "notice": "Emitted when a dispute jumps to a new court."
      },
      "CourtModified(uint96,bool,uint256,uint256,uint256,uint256,uint256[4])": {
        "notice": "Emitted when court's parameters are changed."
      },
      "DisputeCreation(uint256,address)": {
        "notice": "To be emitted when a dispute is created."
      },
      "DisputeKitCreated(uint256,address)": {
        "notice": "Emitted when a dispute kit is created."
      },
      "DisputeKitEnabled(uint96,uint256,bool)": {
        "notice": "Emitted when a dispute kit is enabled/disabled in a court."
      },
      "DisputeKitJump(uint256,uint256,uint256,uint256)": {
        "notice": "Emitted when a dispute jumps to a new dispute kit."
      },
      "Draw(address,uint256,uint256,uint256)": {
        "notice": "Emitted when an address is successfully drawn."
      },
      "JurorRewardPenalty(address,uint256,uint256,uint256,uint256,int256,int256,address)": {
        "notice": "Emitted when juror's balance shifts after penalties/rewards has been processed."
      },
      "LeftoverRewardSent(uint256,uint256,uint256,uint256,address)": {
        "notice": "Emitted when leftover reward sent to owner."
      },
      "NewCurrencyRate(address,uint64,uint8)": {
        "notice": "To be emitted when the fee for a particular ERC20 token is updated."
      },
      "NewPeriod(uint256,uint8)": {
        "notice": "Emitted when period is passed."
      },
      "Paused()": {
        "notice": "Emitted when this contract is paused."
      },
      "Ruling(address,uint256,uint256)": {
        "notice": "To be raised when a ruling is given."
      },
      "Unpaused()": {
        "notice": "Emitted when this contract is unpaused."
      },
      "Upgraded(address)": {
        "notice": "Emitted when the `implementation` has been successfully upgraded."
      }
    },
    "kind": "user",
    "methods": {
      "addNewDisputeKit(address)": {
        "notice": "Add a new supported dispute kit, without enabling it. Use `enableDisputeKits()` to enable the dispute kit for a specific court."
      },
      "appeal(uint256,uint256,bytes)": {
        "notice": "Appeals the ruling of a specified dispute."
      },
      "appealCost(uint256)": {
        "notice": "Gets the cost of appealing a specified dispute."
      },
      "appealPeriod(uint256)": {
        "notice": "Gets the start and the end of a specified dispute's current appeal period."
      },
      "arbitrationCost(bytes)": {
        "notice": "Compute the cost of arbitration denominated in the native currency, typically ETH."
      },
      "arbitrationCost(bytes,address)": {
        "notice": "Compute the cost of arbitration denominated in `_feeToken`."
      },
      "changeAcceptedFeeTokens(address,bool)": {
        "notice": "Changes the supported fee tokens."
      },
      "changeArbitrableWhitelist(address,bool)": {
        "notice": "Adds or removes an arbitrable from whitelist."
      },
      "changeArbitrableWhitelistEnabled(bool)": {
        "notice": "Enables or disables the arbitrable whitelist."
      },
      "changeCourtParameters(uint96,bool,uint256,uint256,uint256,uint256,uint256[4])": {
        "notice": "Changes the parameters of the court."
      },
      "changeCurrencyRates(address,uint64,uint8)": {
        "notice": "Changes the currency rate of a fee token."
      },
      "changeGuardian(address)": {
        "notice": "Changes the `guardian` storage variable."
      },
      "changeJurorNft(address)": {
        "notice": "Changes the `jurorNft` storage variable."
      },
      "changeJurorProsecutionModule(address)": {
        "notice": "Changes the `jurorProsecutionModule` storage variable."
      },
      "changeOwner(address)": {
        "notice": "Changes the `owner` storage variable."
      },
      "changePinakion(address)": {
        "notice": "Changes the `pinakion` storage variable."
      },
      "changeSortitionModule(address)": {
        "notice": "Changes the `_sortitionModule` storage variable. Note that the new module should be initialized for all courts."
      },
      "convertEthToTokenAmount(address,uint256)": {
        "notice": "Converts ETH into tokens."
      },
      "createCourt(uint96,bool,uint256,uint256,uint256,uint256,uint256[4],bytes,uint256[])": {
        "notice": "Creates a court under a specified parent court."
      },
      "createDispute(uint256,bytes)": {
        "notice": "Create a dispute and pay for the fees in the native currency, typically ETH."
      },
      "createDispute(uint256,bytes,address,uint256)": {
        "notice": "Create a dispute and pay for the fees in a supported ERC20 token."
      },
      "currentRuling(uint256)": {
        "notice": "Gets the current ruling of a specified dispute."
      },
      "draw(uint256,uint256)": {
        "notice": "Draws jurors for the dispute. Can be called in parts."
      },
      "enableDisputeKits(uint96,uint256[],bool)": {
        "notice": "Adds/removes court's support for specified dispute kits."
      },
      "execute(uint256,uint256,uint256)": {
        "notice": "Distribute the PNKs at stake and the dispute fees for the specific round of the dispute. Can be called in parts."
      },
      "executeOwnerProposal(address,uint256,bytes)": {
        "notice": "Allows the owner to call anything on behalf of the contract."
      },
      "executeRuling(uint256)": {
        "notice": "Executes a specified dispute's ruling."
      },
      "getCourtAndDisputeKitJumps(uint256)": {
        "notice": "Checks whether a dispute will jump to new court/DK and enforces a compatibility check."
      },
      "getDisputeKitsLength()": {
        "notice": "Returns the length of disputeKits array."
      },
      "getNumberOfRounds(uint256)": {
        "notice": "Gets the number of rounds for a specified dispute."
      },
      "getNumberOfVotes(uint256)": {
        "notice": "Gets the number of votes permitted for the specified dispute in the latest round."
      },
      "getPnkAtStakePerJuror(uint256,uint256)": {
        "notice": "Gets the PNK at stake per juror for a specified dispute and round."
      },
      "getRoundInfo(uint256,uint256)": {
        "notice": "Gets the round info for a specified dispute and round."
      },
      "getTimesPerPeriod(uint96)": {
        "notice": "Gets the timesPerPeriod array for a given court."
      },
      "initialize(address,address,address,address,address,bool,uint256[4],uint256[4],bytes,address,address,address)": {
        "notice": "Initializer (constructor equivalent for upgradable contracts)."
      },
      "isSupported(uint96,uint256)": {
        "notice": "Checks if a given dispute kit is supported by a given court."
      },
      "passPeriod(uint256)": {
        "notice": "Passes the period of a specified dispute."
      },
      "pause()": {
        "notice": "Pause staking and reward execution. Can only be done by guardian or owner."
      },
      "proxiableUUID()": {
        "notice": "Implementation of the ERC1822 `proxiableUUID` function. This returns the storage slot used by the implementation. It is used to validate the implementation's compatibility when performing an upgrade."
      },
      "setStake(uint96,uint256)": {
        "notice": "Sets the caller's stake in a court."
      },
      "setStakeBySortitionModule(address,uint96,uint256)": {
        "notice": "Sets the stake of a specified account in a court without delaying stake changes, typically to apply a delayed stake or unstake inactive jurors."
      },
      "transferBySortitionModule(address,uint256)": {
        "notice": "Transfers PNK to the juror by SortitionModule."
      },
      "unpause()": {
        "notice": "Unpause staking and reward execution. Can only be done by owner."
      },
      "upgradeToAndCall(address,bytes)": {
        "notice": "Upgrade mechanism including access control and UUPS-compliance."
      },
      "version()": {
        "notice": "Returns the version of the implementation."
      }
    },
    "notice": "Core arbitrator contract for Kleros v2.",
    "version": 1
  },
  "storageLayout": {
    "storage": [
      {
        "astId": 12476,
        "contract": "src/arbitration/KlerosCore.sol:KlerosCore",
        "label": "owner",
        "offset": 0,
        "slot": "0",
        "type": "t_address"
      },
      {
        "astId": 12478,
        "contract": "src/arbitration/KlerosCore.sol:KlerosCore",
        "label": "guardian",
        "offset": 0,
        "slot": "1",
        "type": "t_address"
      },
      {
        "astId": 12481,
        "contract": "src/arbitration/KlerosCore.sol:KlerosCore",
        "label": "pinakion",
        "offset": 0,
        "slot": "2",
        "type": "t_contract(IERC20)3021"
      },
      {
        "astId": 12483,
        "contract": "src/arbitration/KlerosCore.sol:KlerosCore",
        "label": "jurorProsecutionModule",
        "offset": 0,
        "slot": "3",
        "type": "t_address"
      },
      {
        "astId": 12486,
        "contract": "src/arbitration/KlerosCore.sol:KlerosCore",
        "label": "sortitionModule",
        "offset": 0,
        "slot": "4",
        "type": "t_contract(ISortitionModule)26983"
      },
      {
        "astId": 12490,
        "contract": "src/arbitration/KlerosCore.sol:KlerosCore",
        "label": "courts",
        "offset": 0,
        "slot": "5",
        "type": "t_array(t_struct(Court)12387_storage)dyn_storage"
      },
      {
        "astId": 12494,
        "contract": "src/arbitration/KlerosCore.sol:KlerosCore",
        "label": "disputeKits",
        "offset": 0,
        "slot": "6",
        "type": "t_array(t_contract(IDisputeKit)26742)dyn_storage"
      },
      {
        "astId": 12498,
        "contract": "src/arbitration/KlerosCore.sol:KlerosCore",
        "label": "disputes",
        "offset": 0,
        "slot": "7",
        "type": "t_array(t_struct(Dispute)12408_storage)dyn_storage"
      },
      {
        "astId": 12504,
        "contract": "src/arbitration/KlerosCore.sol:KlerosCore",
        "label": "currencyRates",
        "offset": 0,
        "slot": "8",
        "type": "t_mapping(t_contract(IERC20)3021,t_struct(CurrencyRate)12464_storage)"
      },
      {
        "astId": 12506,
        "contract": "src/arbitration/KlerosCore.sol:KlerosCore",
        "label": "paused",
        "offset": 0,
        "slot": "9",
        "type": "t_bool"
      },
      {
        "astId": 12508,
        "contract": "src/arbitration/KlerosCore.sol:KlerosCore",
        "label": "wNative",
        "offset": 1,
        "slot": "9",
        "type": "t_address"
      },
      {
        "astId": 12512,
        "contract": "src/arbitration/KlerosCore.sol:KlerosCore",
        "label": "arbitrableWhitelist",
        "offset": 0,
        "slot": "10",
        "type": "t_mapping(t_address,t_bool)"
      },
      {
        "astId": 12514,
        "contract": "src/arbitration/KlerosCore.sol:KlerosCore",
        "label": "arbitrableWhitelistEnabled",
        "offset": 0,
        "slot": "11",
        "type": "t_bool"
      },
      {
        "astId": 12517,
        "contract": "src/arbitration/KlerosCore.sol:KlerosCore",
        "label": "jurorNft",
        "offset": 1,
        "slot": "11",
        "type": "t_contract(IERC721)4167"
      }
    ],
    "types": {
      "t_address": {
        "encoding": "inplace",
        "label": "address",
        "numberOfBytes": "20"
      },
      "t_array(t_address)dyn_storage": {
        "base": "t_address",
        "encoding": "dynamic_array",
        "label": "address[]",
        "numberOfBytes": "32"
      },
      "t_array(t_contract(IDisputeKit)26742)dyn_storage": {
        "base": "t_contract(IDisputeKit)26742",
        "encoding": "dynamic_array",
        "label": "contract IDisputeKit[]",
        "numberOfBytes": "32"
      },
      "t_array(t_struct(Court)12387_storage)dyn_storage": {
        "base": "t_struct(Court)12387_storage",
        "encoding": "dynamic_array",
        "label": "struct KlerosCore.Court[]",
        "numberOfBytes": "32"
      },
      "t_array(t_struct(Dispute)12408_storage)dyn_storage": {
        "base": "t_struct(Dispute)12408_storage",
        "encoding": "dynamic_array",
        "label": "struct KlerosCore.Dispute[]",
        "numberOfBytes": "32"
      },
      "t_array(t_struct(Round)12440_storage)dyn_storage": {
        "base": "t_struct(Round)12440_storage",
        "encoding": "dynamic_array",
        "label": "struct KlerosCore.Round[]",
        "numberOfBytes": "32"
      },
      "t_array(t_uint256)10_storage": {
        "base": "t_uint256",
        "encoding": "inplace",
        "label": "uint256[10]",
        "numberOfBytes": "320"
      },
      "t_array(t_uint256)4_storage": {
        "base": "t_uint256",
        "encoding": "inplace",
        "label": "uint256[4]",
        "numberOfBytes": "128"
      },
      "t_array(t_uint256)dyn_storage": {
        "base": "t_uint256",
        "encoding": "dynamic_array",
        "label": "uint256[]",
        "numberOfBytes": "32"
      },
      "t_array(t_uint96)dyn_storage": {
        "base": "t_uint96",
        "encoding": "dynamic_array",
        "label": "uint96[]",
        "numberOfBytes": "32"
      },
      "t_bool": {
        "encoding": "inplace",
        "label": "bool",
        "numberOfBytes": "1"
      },
      "t_contract(IArbitrableV2)26440": {
        "encoding": "inplace",
        "label": "contract IArbitrableV2",
        "numberOfBytes": "20"
      },
      "t_contract(IDisputeKit)26742": {
        "encoding": "inplace",
        "label": "contract IDisputeKit",
        "numberOfBytes": "20"
      },
      "t_contract(IERC20)3021": {
        "encoding": "inplace",
        "label": "contract IERC20",
        "numberOfBytes": "20"
      },
      "t_contract(IERC721)4167": {
        "encoding": "inplace",
        "label": "contract IERC721",
        "numberOfBytes": "20"
      },
      "t_contract(ISortitionModule)26983": {
        "encoding": "inplace",
        "label": "contract ISortitionModule",
        "numberOfBytes": "20"
      },
      "t_enum(Period)12359": {
        "encoding": "inplace",
        "label": "enum KlerosCore.Period",
        "numberOfBytes": "1"
      },
      "t_mapping(t_address,t_bool)": {
        "encoding": "mapping",
        "key": "t_address",
        "label": "mapping(address => bool)",
        "numberOfBytes": "32",
        "value": "t_bool"
      },
      "t_mapping(t_contract(IERC20)3021,t_struct(CurrencyRate)12464_storage)": {
        "encoding": "mapping",
        "key": "t_contract(IERC20)3021",
        "label": "mapping(contract IERC20 => struct KlerosCore.CurrencyRate)",
        "numberOfBytes": "32",
        "value": "t_struct(CurrencyRate)12464_storage"
      },
      "t_mapping(t_uint256,t_bool)": {
        "encoding": "mapping",
        "key": "t_uint256",
        "label": "mapping(uint256 => bool)",
        "numberOfBytes": "32",
        "value": "t_bool"
      },
      "t_struct(Court)12387_storage": {
        "encoding": "inplace",
        "label": "struct KlerosCore.Court",
        "members": [
          {
            "astId": 12361,
            "contract": "src/arbitration/KlerosCore.sol:KlerosCore",
            "label": "parent",
            "offset": 0,
            "slot": "0",
            "type": "t_uint96"
          },
          {
            "astId": 12363,
            "contract": "src/arbitration/KlerosCore.sol:KlerosCore",
            "label": "hiddenVotes",
            "offset": 12,
            "slot": "0",
            "type": "t_bool"
          },
          {
            "astId": 12366,
            "contract": "src/arbitration/KlerosCore.sol:KlerosCore",
            "label": "children",
            "offset": 0,
            "slot": "1",
            "type": "t_array(t_uint256)dyn_storage"
          },
          {
            "astId": 12368,
            "contract": "src/arbitration/KlerosCore.sol:KlerosCore",
            "label": "minStake",
            "offset": 0,
            "slot": "2",
            "type": "t_uint256"
          },
          {
            "astId": 12370,
            "contract": "src/arbitration/KlerosCore.sol:KlerosCore",
            "label": "alpha",
            "offset": 0,
            "slot": "3",
            "type": "t_uint256"
          },
          {
            "astId": 12372,
            "contract": "src/arbitration/KlerosCore.sol:KlerosCore",
            "label": "feeForJuror",
            "offset": 0,
            "slot": "4",
            "type": "t_uint256"
          },
          {
            "astId": 12374,
            "contract": "src/arbitration/KlerosCore.sol:KlerosCore",
            "label": "jurorsForCourtJump",
            "offset": 0,
            "slot": "5",
            "type": "t_uint256"
          },
          {
            "astId": 12378,
            "contract": "src/arbitration/KlerosCore.sol:KlerosCore",
            "label": "timesPerPeriod",
            "offset": 0,
            "slot": "6",
            "type": "t_array(t_uint256)4_storage"
          },
          {
            "astId": 12382,
            "contract": "src/arbitration/KlerosCore.sol:KlerosCore",
            "label": "supportedDisputeKits",
            "offset": 0,
            "slot": "10",
            "type": "t_mapping(t_uint256,t_bool)"
          },
          {
            "astId": 12386,
            "contract": "src/arbitration/KlerosCore.sol:KlerosCore",
            "label": "__gap",
            "offset": 0,
            "slot": "11",
            "type": "t_array(t_uint256)10_storage"
          }
        ],
        "numberOfBytes": "672"
      },
      "t_struct(CurrencyRate)12464_storage": {
        "encoding": "inplace",
        "label": "struct KlerosCore.CurrencyRate",
        "members": [
          {
            "astId": 12459,
            "contract": "src/arbitration/KlerosCore.sol:KlerosCore",
            "label": "feePaymentAccepted",
            "offset": 0,
            "slot": "0",
            "type": "t_bool"
          },
          {
            "astId": 12461,
            "contract": "src/arbitration/KlerosCore.sol:KlerosCore",
            "label": "rateInEth",
            "offset": 1,
            "slot": "0",
            "type": "t_uint64"
          },
          {
            "astId": 12463,
            "contract": "src/arbitration/KlerosCore.sol:KlerosCore",
            "label": "rateDecimals",
            "offset": 9,
            "slot": "0",
            "type": "t_uint8"
          }
        ],
        "numberOfBytes": "32"
      },
      "t_struct(Dispute)12408_storage": {
        "encoding": "inplace",
        "label": "struct KlerosCore.Dispute",
        "members": [
          {
            "astId": 12389,
            "contract": "src/arbitration/KlerosCore.sol:KlerosCore",
            "label": "courtID",
            "offset": 0,
            "slot": "0",
            "type": "t_uint96"
          },
          {
            "astId": 12392,
            "contract": "src/arbitration/KlerosCore.sol:KlerosCore",
            "label": "arbitrated",
            "offset": 12,
            "slot": "0",
            "type": "t_contract(IArbitrableV2)26440"
          },
          {
            "astId": 12395,
            "contract": "src/arbitration/KlerosCore.sol:KlerosCore",
            "label": "period",
            "offset": 0,
            "slot": "1",
            "type": "t_enum(Period)12359"
          },
          {
            "astId": 12397,
            "contract": "src/arbitration/KlerosCore.sol:KlerosCore",
            "label": "ruled",
            "offset": 1,
            "slot": "1",
            "type": "t_bool"
          },
          {
            "astId": 12399,
            "contract": "src/arbitration/KlerosCore.sol:KlerosCore",
            "label": "lastPeriodChange",
            "offset": 0,
            "slot": "2",
            "type": "t_uint256"
          },
          {
            "astId": 12403,
            "contract": "src/arbitration/KlerosCore.sol:KlerosCore",
            "label": "rounds",
            "offset": 0,
            "slot": "3",
            "type": "t_array(t_struct(Round)12440_storage)dyn_storage"
          },
          {
            "astId": 12407,
            "contract": "src/arbitration/KlerosCore.sol:KlerosCore",
            "label": "__gap",
            "offset": 0,
            "slot": "4",
            "type": "t_array(t_uint256)10_storage"
          }
        ],
        "numberOfBytes": "448"
      },
      "t_struct(Round)12440_storage": {
        "encoding": "inplace",
        "label": "struct KlerosCore.Round",
        "members": [
          {
            "astId": 12410,
            "contract": "src/arbitration/KlerosCore.sol:KlerosCore",
            "label": "disputeKitID",
            "offset": 0,
            "slot": "0",
            "type": "t_uint256"
          },
          {
            "astId": 12412,
            "contract": "src/arbitration/KlerosCore.sol:KlerosCore",
            "label": "pnkAtStakePerJuror",
            "offset": 0,
            "slot": "1",
            "type": "t_uint256"
          },
          {
            "astId": 12414,
            "contract": "src/arbitration/KlerosCore.sol:KlerosCore",
            "label": "totalFeesForJurors",
            "offset": 0,
            "slot": "2",
            "type": "t_uint256"
          },
          {
            "astId": 12416,
            "contract": "src/arbitration/KlerosCore.sol:KlerosCore",
            "label": "nbVotes",
            "offset": 0,
            "slot": "3",
            "type": "t_uint256"
          },
          {
            "astId": 12418,
            "contract": "src/arbitration/KlerosCore.sol:KlerosCore",
            "label": "repartitions",
            "offset": 0,
            "slot": "4",
            "type": "t_uint256"
          },
          {
            "astId": 12420,
            "contract": "src/arbitration/KlerosCore.sol:KlerosCore",
            "label": "pnkPenalties",
            "offset": 0,
            "slot": "5",
            "type": "t_uint256"
          },
          {
            "astId": 12423,
            "contract": "src/arbitration/KlerosCore.sol:KlerosCore",
            "label": "drawnJurors",
            "offset": 0,
            "slot": "6",
            "type": "t_array(t_address)dyn_storage"
          },
          {
            "astId": 12426,
            "contract": "src/arbitration/KlerosCore.sol:KlerosCore",
            "label": "drawnJurorFromCourtIDs",
            "offset": 0,
            "slot": "7",
            "type": "t_array(t_uint96)dyn_storage"
          },
          {
            "astId": 12428,
            "contract": "src/arbitration/KlerosCore.sol:KlerosCore",
            "label": "sumFeeRewardPaid",
            "offset": 0,
            "slot": "8",
            "type": "t_uint256"
          },
          {
            "astId": 12430,
            "contract": "src/arbitration/KlerosCore.sol:KlerosCore",
            "label": "sumPnkRewardPaid",
            "offset": 0,
            "slot": "9",
            "type": "t_uint256"
          },
          {
            "astId": 12433,
            "contract": "src/arbitration/KlerosCore.sol:KlerosCore",
            "label": "feeToken",
            "offset": 0,
            "slot": "10",
            "type": "t_contract(IERC20)3021"
          },
          {
            "astId": 12435,
            "contract": "src/arbitration/KlerosCore.sol:KlerosCore",
            "label": "drawIterations",
            "offset": 0,
            "slot": "11",
            "type": "t_uint256"
          },
          {
            "astId": 12439,
            "contract": "src/arbitration/KlerosCore.sol:KlerosCore",
            "label": "__gap",
            "offset": 0,
            "slot": "12",
            "type": "t_array(t_uint256)10_storage"
          }
        ],
        "numberOfBytes": "704"
      },
      "t_uint256": {
        "encoding": "inplace",
        "label": "uint256",
        "numberOfBytes": "32"
      },
      "t_uint64": {
        "encoding": "inplace",
        "label": "uint64",
        "numberOfBytes": "8"
      },
      "t_uint8": {
        "encoding": "inplace",
        "label": "uint8",
        "numberOfBytes": "1"
      },
      "t_uint96": {
        "encoding": "inplace",
        "label": "uint96",
        "numberOfBytes": "12"
      }
    }
  }
}