{
  "address": "0xb75b0cc01af4aD0D65D50082ae0717004D479Aa0",
  "abi": [
    {
      "inputs": [],
      "stateMutability": "nonpayable",
      "type": "constructor"
    },
    {
      "inputs": [],
      "name": "AllJurorsDrawn",
      "type": "error"
    },
    {
      "inputs": [],
      "name": "AlreadyInitialized",
      "type": "error"
    },
    {
      "inputs": [],
      "name": "AppealFeesNotEnough",
      "type": "error"
    },
    {
      "inputs": [],
      "name": "AppealPeriodNotPassed",
      "type": "error"
    },
    {
      "inputs": [],
      "name": "ArbitrationFeesNotEnough",
      "type": "error"
    },
    {
      "inputs": [],
      "name": "CannotDisableClassicDK",
      "type": "error"
    },
    {
      "inputs": [],
      "name": "CommitPeriodNotPassed",
      "type": "error"
    },
    {
      "inputs": [],
      "name": "DisputeKitNotSupportedByCourt",
      "type": "error"
    },
    {
      "inputs": [],
      "name": "DisputeKitOnly",
      "type": "error"
    },
    {
      "inputs": [],
      "name": "DisputeNotAppealable",
      "type": "error"
    },
    {
      "inputs": [],
      "name": "DisputePeriodIsFinal",
      "type": "error"
    },
    {
      "inputs": [],
      "name": "DisputeStillDrawing",
      "type": "error"
    },
    {
      "inputs": [],
      "name": "EvidenceNotPassedAndNotAppeal",
      "type": "error"
    },
    {
      "inputs": [],
      "name": "FailedDelegateCall",
      "type": "error"
    },
    {
      "inputs": [],
      "name": "InstructorOnly",
      "type": "error"
    },
    {
      "inputs": [],
      "name": "InvalidDisputKitParent",
      "type": "error"
    },
    {
      "inputs": [],
      "name": "InvalidForkingCourtAsParent",
      "type": "error"
    },
    {
      "inputs": [
        {
          "internalType": "address",
          "name": "implementation",
          "type": "address"
        }
      ],
      "name": "InvalidImplementation",
      "type": "error"
    },
    {
      "inputs": [],
      "name": "MinStakeLowerThanParentCourt",
      "type": "error"
    },
    {
      "inputs": [],
      "name": "MustSupportDisputeKitClassic",
      "type": "error"
    },
    {
      "inputs": [],
      "name": "NoJurorDrawn",
      "type": "error"
    },
    {
      "inputs": [],
      "name": "NotEvidencePeriod",
      "type": "error"
    },
    {
      "inputs": [],
      "name": "NotExecutionPeriod",
      "type": "error"
    },
    {
      "inputs": [],
      "name": "NotInitializing",
      "type": "error"
    },
    {
      "inputs": [],
      "name": "OwnerOnly",
      "type": "error"
    },
    {
      "inputs": [],
      "name": "OwnerOrInstructorOnly",
      "type": "error"
    },
    {
      "inputs": [],
      "name": "RulingAlreadyExecuted",
      "type": "error"
    },
    {
      "inputs": [],
      "name": "SortitionModuleOnly",
      "type": "error"
    },
    {
      "inputs": [],
      "name": "StakingInTooManyCourts",
      "type": "error"
    },
    {
      "inputs": [],
      "name": "StakingLessThanCourtMinStake",
      "type": "error"
    },
    {
      "inputs": [],
      "name": "StakingNotPossibleInThisCourt",
      "type": "error"
    },
    {
      "inputs": [],
      "name": "StakingTransferFailed",
      "type": "error"
    },
    {
      "inputs": [],
      "name": "StakingZeroWhenNoStake",
      "type": "error"
    },
    {
      "inputs": [],
      "name": "TokenNotAccepted",
      "type": "error"
    },
    {
      "inputs": [],
      "name": "TransferFailed",
      "type": "error"
    },
    {
      "inputs": [],
      "name": "UUPSUnauthorizedCallContext",
      "type": "error"
    },
    {
      "inputs": [
        {
          "internalType": "bytes32",
          "name": "slot",
          "type": "bytes32"
        }
      ],
      "name": "UUPSUnsupportedProxiableUUID",
      "type": "error"
    },
    {
      "inputs": [],
      "name": "UnstakingTransferFailed",
      "type": "error"
    },
    {
      "inputs": [],
      "name": "UnsuccessfulCall",
      "type": "error"
    },
    {
      "inputs": [],
      "name": "UnsupportedDisputeKit",
      "type": "error"
    },
    {
      "inputs": [],
      "name": "VotePeriodNotPassed",
      "type": "error"
    },
    {
      "inputs": [],
      "name": "WrongDisputeKitIndex",
      "type": "error"
    },
    {
      "anonymous": false,
      "inputs": [
        {
          "indexed": true,
          "internalType": "contract IERC20",
          "name": "_token",
          "type": "address"
        },
        {
          "indexed": true,
          "internalType": "bool",
          "name": "_accepted",
          "type": "bool"
        }
      ],
      "name": "AcceptedFeeToken",
      "type": "event"
    },
    {
      "anonymous": false,
      "inputs": [
        {
          "indexed": true,
          "internalType": "uint256",
          "name": "_disputeID",
          "type": "uint256"
        },
        {
          "indexed": true,
          "internalType": "contract IArbitrableV2",
          "name": "_arbitrable",
          "type": "address"
        }
      ],
      "name": "AppealDecision",
      "type": "event"
    },
    {
      "anonymous": false,
      "inputs": [
        {
          "indexed": true,
          "internalType": "uint256",
          "name": "_disputeID",
          "type": "uint256"
        },
        {
          "indexed": true,
          "internalType": "contract IArbitrableV2",
          "name": "_arbitrable",
          "type": "address"
        }
      ],
      "name": "AppealPossible",
      "type": "event"
    },
    {
      "anonymous": false,
      "inputs": [
        {
          "indexed": true,
          "internalType": "uint96",
          "name": "_courtID",
          "type": "uint96"
        },
        {
          "indexed": true,
          "internalType": "uint96",
          "name": "_parent",
          "type": "uint96"
        },
        {
          "indexed": false,
          "internalType": "bool",
          "name": "_hiddenVotes",
          "type": "bool"
        },
        {
          "indexed": false,
          "internalType": "uint256",
          "name": "_minStake",
          "type": "uint256"
        },
        {
          "indexed": false,
          "internalType": "uint256",
          "name": "_alpha",
          "type": "uint256"
        },
        {
          "indexed": false,
          "internalType": "uint256",
          "name": "_feeForJuror",
          "type": "uint256"
        },
        {
          "indexed": false,
          "internalType": "uint256",
          "name": "_jurorsForCourtJump",
          "type": "uint256"
        },
        {
          "indexed": false,
          "internalType": "uint256[4]",
          "name": "_timesPerPeriod",
          "type": "uint256[4]"
        },
        {
          "indexed": false,
          "internalType": "uint256[]",
          "name": "_supportedDisputeKits",
          "type": "uint256[]"
        }
      ],
      "name": "CourtCreated",
      "type": "event"
    },
    {
      "anonymous": false,
      "inputs": [
        {
          "indexed": true,
          "internalType": "uint256",
          "name": "_disputeID",
          "type": "uint256"
        },
        {
          "indexed": true,
          "internalType": "uint256",
          "name": "_roundID",
          "type": "uint256"
        },
        {
          "indexed": true,
          "internalType": "uint96",
          "name": "_fromCourtID",
          "type": "uint96"
        },
        {
          "indexed": false,
          "internalType": "uint96",
          "name": "_toCourtID",
          "type": "uint96"
        }
      ],
      "name": "CourtJump",
      "type": "event"
    },
    {
      "anonymous": false,
      "inputs": [
        {
          "indexed": true,
          "internalType": "uint96",
          "name": "_courtID",
          "type": "uint96"
        },
        {
          "indexed": false,
          "internalType": "bool",
          "name": "_hiddenVotes",
          "type": "bool"
        },
        {
          "indexed": false,
          "internalType": "uint256",
          "name": "_minStake",
          "type": "uint256"
        },
        {
          "indexed": false,
          "internalType": "uint256",
          "name": "_alpha",
          "type": "uint256"
        },
        {
          "indexed": false,
          "internalType": "uint256",
          "name": "_feeForJuror",
          "type": "uint256"
        },
        {
          "indexed": false,
          "internalType": "uint256",
          "name": "_jurorsForCourtJump",
          "type": "uint256"
        },
        {
          "indexed": false,
          "internalType": "uint256[4]",
          "name": "_timesPerPeriod",
          "type": "uint256[4]"
        }
      ],
      "name": "CourtModified",
      "type": "event"
    },
    {
      "anonymous": false,
      "inputs": [
        {
          "indexed": true,
          "internalType": "uint256",
          "name": "_disputeID",
          "type": "uint256"
        },
        {
          "indexed": true,
          "internalType": "contract IArbitrableV2",
          "name": "_arbitrable",
          "type": "address"
        }
      ],
      "name": "DisputeCreation",
      "type": "event"
    },
    {
      "anonymous": false,
      "inputs": [
        {
          "indexed": true,
          "internalType": "uint256",
          "name": "_disputeKitID",
          "type": "uint256"
        },
        {
          "indexed": true,
          "internalType": "contract IDisputeKit",
          "name": "_disputeKitAddress",
          "type": "address"
        }
      ],
      "name": "DisputeKitCreated",
      "type": "event"
    },
    {
      "anonymous": false,
      "inputs": [
        {
          "indexed": true,
          "internalType": "uint96",
          "name": "_courtID",
          "type": "uint96"
        },
        {
          "indexed": true,
          "internalType": "uint256",
          "name": "_disputeKitID",
          "type": "uint256"
        },
        {
          "indexed": true,
          "internalType": "bool",
          "name": "_enable",
          "type": "bool"
        }
      ],
      "name": "DisputeKitEnabled",
      "type": "event"
    },
    {
      "anonymous": false,
      "inputs": [
        {
          "indexed": true,
          "internalType": "uint256",
          "name": "_disputeID",
          "type": "uint256"
        },
        {
          "indexed": true,
          "internalType": "uint256",
          "name": "_roundID",
          "type": "uint256"
        },
        {
          "indexed": true,
          "internalType": "uint256",
          "name": "_fromDisputeKitID",
          "type": "uint256"
        },
        {
          "indexed": false,
          "internalType": "uint256",
          "name": "_toDisputeKitID",
          "type": "uint256"
        }
      ],
      "name": "DisputeKitJump",
      "type": "event"
    },
    {
      "anonymous": false,
      "inputs": [
        {
          "indexed": true,
          "internalType": "address",
          "name": "_address",
          "type": "address"
        },
        {
          "indexed": true,
          "internalType": "uint256",
          "name": "_disputeID",
          "type": "uint256"
        },
        {
          "indexed": false,
          "internalType": "uint256",
          "name": "_roundID",
          "type": "uint256"
        },
        {
          "indexed": false,
          "internalType": "uint256",
          "name": "_voteID",
          "type": "uint256"
        }
      ],
      "name": "Draw",
      "type": "event"
    },
    {
      "anonymous": false,
      "inputs": [
        {
          "indexed": false,
          "internalType": "uint64",
          "name": "version",
          "type": "uint64"
        }
      ],
      "name": "Initialized",
      "type": "event"
    },
    {
      "anonymous": false,
      "inputs": [
        {
          "indexed": true,
          "internalType": "address",
          "name": "_account",
          "type": "address"
        },
        {
          "indexed": true,
          "internalType": "uint256",
          "name": "_disputeID",
          "type": "uint256"
        },
        {
          "indexed": true,
          "internalType": "uint256",
          "name": "_roundID",
          "type": "uint256"
        },
        {
          "indexed": false,
          "internalType": "uint256",
          "name": "_degreeOfCoherencyPnk",
          "type": "uint256"
        },
        {
          "indexed": false,
          "internalType": "uint256",
          "name": "_degreeOfCoherencyFee",
          "type": "uint256"
        },
        {
          "indexed": false,
          "internalType": "int256",
          "name": "_amountPnk",
          "type": "int256"
        },
        {
          "indexed": false,
          "internalType": "int256",
          "name": "_amountFee",
          "type": "int256"
        },
        {
          "indexed": false,
          "internalType": "contract IERC20",
          "name": "_feeToken",
          "type": "address"
        }
      ],
      "name": "JurorRewardPenalty",
      "type": "event"
    },
    {
      "anonymous": false,
      "inputs": [
        {
          "indexed": true,
          "internalType": "uint256",
          "name": "_disputeID",
          "type": "uint256"
        },
        {
          "indexed": true,
          "internalType": "uint256",
          "name": "_roundID",
          "type": "uint256"
        },
        {
          "indexed": false,
          "internalType": "uint256",
          "name": "_amountPnk",
          "type": "uint256"
        },
        {
          "indexed": false,
          "internalType": "uint256",
          "name": "_amountFee",
          "type": "uint256"
        },
        {
          "indexed": false,
          "internalType": "contract IERC20",
          "name": "_feeToken",
          "type": "address"
        }
      ],
      "name": "LeftoverRewardSent",
      "type": "event"
    },
    {
      "anonymous": false,
      "inputs": [
        {
          "indexed": true,
          "internalType": "contract IERC20",
          "name": "_feeToken",
          "type": "address"
        },
        {
          "indexed": false,
          "internalType": "uint64",
          "name": "_rateInEth",
          "type": "uint64"
        },
        {
          "indexed": false,
          "internalType": "uint8",
          "name": "_rateDecimals",
          "type": "uint8"
        }
      ],
      "name": "NewCurrencyRate",
      "type": "event"
    },
    {
      "anonymous": false,
      "inputs": [
        {
          "indexed": true,
          "internalType": "uint256",
          "name": "_disputeID",
          "type": "uint256"
        },
        {
          "indexed": false,
          "internalType": "enum KlerosCoreUniversity.Period",
          "name": "_period",
          "type": "uint8"
        }
      ],
      "name": "NewPeriod",
      "type": "event"
    },
    {
      "anonymous": false,
      "inputs": [
        {
          "indexed": true,
          "internalType": "contract IArbitrableV2",
          "name": "_arbitrable",
          "type": "address"
        },
        {
          "indexed": true,
          "internalType": "uint256",
          "name": "_disputeID",
          "type": "uint256"
        },
        {
          "indexed": false,
          "internalType": "uint256",
          "name": "_ruling",
          "type": "uint256"
        }
      ],
      "name": "Ruling",
      "type": "event"
    },
    {
      "anonymous": false,
      "inputs": [
        {
          "indexed": true,
          "internalType": "address",
          "name": "newImplementation",
          "type": "address"
        }
      ],
      "name": "Upgraded",
      "type": "event"
    },
    {
      "inputs": [
        {
          "internalType": "contract IDisputeKit",
          "name": "_disputeKitAddress",
          "type": "address"
        }
      ],
      "name": "addNewDisputeKit",
      "outputs": [],
      "stateMutability": "nonpayable",
      "type": "function"
    },
    {
      "inputs": [
        {
          "internalType": "uint256",
          "name": "_disputeID",
          "type": "uint256"
        },
        {
          "internalType": "uint256",
          "name": "_numberOfChoices",
          "type": "uint256"
        },
        {
          "internalType": "bytes",
          "name": "_extraData",
          "type": "bytes"
        }
      ],
      "name": "appeal",
      "outputs": [],
      "stateMutability": "payable",
      "type": "function"
    },
    {
      "inputs": [
        {
          "internalType": "uint256",
          "name": "_disputeID",
          "type": "uint256"
        }
      ],
      "name": "appealCost",
      "outputs": [
        {
          "internalType": "uint256",
          "name": "cost",
          "type": "uint256"
        }
      ],
      "stateMutability": "view",
      "type": "function"
    },
    {
      "inputs": [
        {
          "internalType": "uint256",
          "name": "_disputeID",
          "type": "uint256"
        }
      ],
      "name": "appealPeriod",
      "outputs": [
        {
          "internalType": "uint256",
          "name": "start",
          "type": "uint256"
        },
        {
          "internalType": "uint256",
          "name": "end",
          "type": "uint256"
        }
      ],
      "stateMutability": "view",
      "type": "function"
    },
    {
      "inputs": [
        {
          "internalType": "bytes",
          "name": "_extraData",
          "type": "bytes"
        },
        {
          "internalType": "contract IERC20",
          "name": "_feeToken",
          "type": "address"
        }
      ],
      "name": "arbitrationCost",
      "outputs": [
        {
          "internalType": "uint256",
          "name": "cost",
          "type": "uint256"
        }
      ],
      "stateMutability": "view",
      "type": "function"
    },
    {
      "inputs": [
        {
          "internalType": "bytes",
          "name": "_extraData",
          "type": "bytes"
        }
      ],
      "name": "arbitrationCost",
      "outputs": [
        {
          "internalType": "uint256",
          "name": "cost",
          "type": "uint256"
        }
      ],
      "stateMutability": "view",
      "type": "function"
    },
    {
      "inputs": [
        {
          "internalType": "contract IERC20",
          "name": "_feeToken",
          "type": "address"
        },
        {
          "internalType": "bool",
          "name": "_accepted",
          "type": "bool"
        }
      ],
      "name": "changeAcceptedFeeTokens",
      "outputs": [],
      "stateMutability": "nonpayable",
      "type": "function"
    },
    {
      "inputs": [
        {
          "internalType": "uint96",
          "name": "_courtID",
          "type": "uint96"
        },
        {
          "internalType": "bool",
          "name": "_hiddenVotes",
          "type": "bool"
        },
        {
          "internalType": "uint256",
          "name": "_minStake",
          "type": "uint256"
        },
        {
          "internalType": "uint256",
          "name": "_alpha",
          "type": "uint256"
        },
        {
          "internalType": "uint256",
          "name": "_feeForJuror",
          "type": "uint256"
        },
        {
          "internalType": "uint256",
          "name": "_jurorsForCourtJump",
          "type": "uint256"
        },
        {
          "internalType": "uint256[4]",
          "name": "_timesPerPeriod",
          "type": "uint256[4]"
        }
      ],
      "name": "changeCourtParameters",
      "outputs": [],
      "stateMutability": "nonpayable",
      "type": "function"
    },
    {
      "inputs": [
        {
          "internalType": "contract IERC20",
          "name": "_feeToken",
          "type": "address"
        },
        {
          "internalType": "uint64",
          "name": "_rateInEth",
          "type": "uint64"
        },
        {
          "internalType": "uint8",
          "name": "_rateDecimals",
          "type": "uint8"
        }
      ],
      "name": "changeCurrencyRates",
      "outputs": [],
      "stateMutability": "nonpayable",
      "type": "function"
    },
    {
      "inputs": [
        {
          "internalType": "address",
          "name": "_instructor",
          "type": "address"
        }
      ],
      "name": "changeInstructor",
      "outputs": [],
      "stateMutability": "nonpayable",
      "type": "function"
    },
    {
      "inputs": [
        {
          "internalType": "address",
          "name": "_jurorProsecutionModule",
          "type": "address"
        }
      ],
      "name": "changeJurorProsecutionModule",
      "outputs": [],
      "stateMutability": "nonpayable",
      "type": "function"
    },
    {
      "inputs": [
        {
          "internalType": "address payable",
          "name": "_owner",
          "type": "address"
        }
      ],
      "name": "changeOwner",
      "outputs": [],
      "stateMutability": "nonpayable",
      "type": "function"
    },
    {
      "inputs": [
        {
          "internalType": "contract IERC20",
          "name": "_pinakion",
          "type": "address"
        }
      ],
      "name": "changePinakion",
      "outputs": [],
      "stateMutability": "nonpayable",
      "type": "function"
    },
    {
      "inputs": [
        {
          "internalType": "contract ISortitionModuleUniversity",
          "name": "_sortitionModule",
          "type": "address"
        }
      ],
      "name": "changeSortitionModule",
      "outputs": [],
      "stateMutability": "nonpayable",
      "type": "function"
    },
    {
      "inputs": [
        {
          "internalType": "contract IERC20",
          "name": "_toToken",
          "type": "address"
        },
        {
          "internalType": "uint256",
          "name": "_amountInEth",
          "type": "uint256"
        }
      ],
      "name": "convertEthToTokenAmount",
      "outputs": [
        {
          "internalType": "uint256",
          "name": "",
          "type": "uint256"
        }
      ],
      "stateMutability": "view",
      "type": "function"
    },
    {
      "inputs": [
        {
          "internalType": "uint256",
          "name": "",
          "type": "uint256"
        }
      ],
      "name": "courts",
      "outputs": [
        {
          "internalType": "uint96",
          "name": "parent",
          "type": "uint96"
        },
        {
          "internalType": "bool",
          "name": "hiddenVotes",
          "type": "bool"
        },
        {
          "internalType": "uint256",
          "name": "minStake",
          "type": "uint256"
        },
        {
          "internalType": "uint256",
          "name": "alpha",
          "type": "uint256"
        },
        {
          "internalType": "uint256",
          "name": "feeForJuror",
          "type": "uint256"
        },
        {
          "internalType": "uint256",
          "name": "jurorsForCourtJump",
          "type": "uint256"
        }
      ],
      "stateMutability": "view",
      "type": "function"
    },
    {
      "inputs": [
        {
          "internalType": "uint96",
          "name": "_parent",
          "type": "uint96"
        },
        {
          "internalType": "bool",
          "name": "_hiddenVotes",
          "type": "bool"
        },
        {
          "internalType": "uint256",
          "name": "_minStake",
          "type": "uint256"
        },
        {
          "internalType": "uint256",
          "name": "_alpha",
          "type": "uint256"
        },
        {
          "internalType": "uint256",
          "name": "_feeForJuror",
          "type": "uint256"
        },
        {
          "internalType": "uint256",
          "name": "_jurorsForCourtJump",
          "type": "uint256"
        },
        {
          "internalType": "uint256[4]",
          "name": "_timesPerPeriod",
          "type": "uint256[4]"
        },
        {
          "internalType": "uint256[]",
          "name": "_supportedDisputeKits",
          "type": "uint256[]"
        }
      ],
      "name": "createCourt",
      "outputs": [],
      "stateMutability": "nonpayable",
      "type": "function"
    },
    {
      "inputs": [
        {
          "internalType": "uint256",
          "name": "_numberOfChoices",
          "type": "uint256"
        },
        {
          "internalType": "bytes",
          "name": "_extraData",
          "type": "bytes"
        }
      ],
      "name": "createDispute",
      "outputs": [
        {
          "internalType": "uint256",
          "name": "disputeID",
          "type": "uint256"
        }
      ],
      "stateMutability": "payable",
      "type": "function"
    },
    {
      "inputs": [
        {
          "internalType": "uint256",
          "name": "_numberOfChoices",
          "type": "uint256"
        },
        {
          "internalType": "bytes",
          "name": "_extraData",
          "type": "bytes"
        },
        {
          "internalType": "contract IERC20",
          "name": "_feeToken",
          "type": "address"
        },
        {
          "internalType": "uint256",
          "name": "_feeAmount",
          "type": "uint256"
        }
      ],
      "name": "createDispute",
      "outputs": [
        {
          "internalType": "uint256",
          "name": "disputeID",
          "type": "uint256"
        }
      ],
      "stateMutability": "nonpayable",
      "type": "function"
    },
    {
      "inputs": [
        {
          "internalType": "contract IERC20",
          "name": "",
          "type": "address"
        }
      ],
      "name": "currencyRates",
      "outputs": [
        {
          "internalType": "bool",
          "name": "feePaymentAccepted",
          "type": "bool"
        },
        {
          "internalType": "uint64",
          "name": "rateInEth",
          "type": "uint64"
        },
        {
          "internalType": "uint8",
          "name": "rateDecimals",
          "type": "uint8"
        }
      ],
      "stateMutability": "view",
      "type": "function"
    },
    {
      "inputs": [
        {
          "internalType": "uint256",
          "name": "_disputeID",
          "type": "uint256"
        }
      ],
      "name": "currentRuling",
      "outputs": [
        {
          "internalType": "uint256",
          "name": "ruling",
          "type": "uint256"
        },
        {
          "internalType": "bool",
          "name": "tied",
          "type": "bool"
        },
        {
          "internalType": "bool",
          "name": "overridden",
          "type": "bool"
        }
      ],
      "stateMutability": "view",
      "type": "function"
    },
    {
      "inputs": [
        {
          "internalType": "uint256",
          "name": "",
          "type": "uint256"
        }
      ],
      "name": "disputeKits",
      "outputs": [
        {
          "internalType": "contract IDisputeKit",
          "name": "",
          "type": "address"
        }
      ],
      "stateMutability": "view",
      "type": "function"
    },
    {
      "inputs": [
        {
          "internalType": "uint256",
          "name": "",
          "type": "uint256"
        }
      ],
      "name": "disputes",
      "outputs": [
        {
          "internalType": "uint96",
          "name": "courtID",
          "type": "uint96"
        },
        {
          "internalType": "contract IArbitrableV2",
          "name": "arbitrated",
          "type": "address"
        },
        {
          "internalType": "enum KlerosCoreUniversity.Period",
          "name": "period",
          "type": "uint8"
        },
        {
          "internalType": "bool",
          "name": "ruled",
          "type": "bool"
        },
        {
          "internalType": "uint256",
          "name": "lastPeriodChange",
          "type": "uint256"
        }
      ],
      "stateMutability": "view",
      "type": "function"
    },
    {
      "inputs": [
        {
          "internalType": "uint256",
          "name": "_disputeID",
          "type": "uint256"
        },
        {
          "internalType": "address",
          "name": "_juror",
          "type": "address"
        }
      ],
      "name": "draw",
      "outputs": [],
      "stateMutability": "nonpayable",
      "type": "function"
    },
    {
      "inputs": [
        {
          "internalType": "uint96",
          "name": "_courtID",
          "type": "uint96"
        },
        {
          "internalType": "uint256[]",
          "name": "_disputeKitIDs",
          "type": "uint256[]"
        },
        {
          "internalType": "bool",
          "name": "_enable",
          "type": "bool"
        }
      ],
      "name": "enableDisputeKits",
      "outputs": [],
      "stateMutability": "nonpayable",
      "type": "function"
    },
    {
      "inputs": [
        {
          "internalType": "uint256",
          "name": "_disputeID",
          "type": "uint256"
        },
        {
          "internalType": "uint256",
          "name": "_round",
          "type": "uint256"
        },
        {
          "internalType": "uint256",
          "name": "_iterations",
          "type": "uint256"
        }
      ],
      "name": "execute",
      "outputs": [],
      "stateMutability": "nonpayable",
      "type": "function"
    },
    {
      "inputs": [
        {
          "internalType": "address",
          "name": "_destination",
          "type": "address"
        },
        {
          "internalType": "uint256",
          "name": "_amount",
          "type": "uint256"
        },
        {
          "internalType": "bytes",
          "name": "_data",
          "type": "bytes"
        }
      ],
      "name": "executeOwnerProposal",
      "outputs": [],
      "stateMutability": "nonpayable",
      "type": "function"
    },
    {
      "inputs": [
        {
          "internalType": "uint256",
          "name": "_disputeID",
          "type": "uint256"
        }
      ],
      "name": "executeRuling",
      "outputs": [],
      "stateMutability": "nonpayable",
      "type": "function"
    },
    {
      "inputs": [],
      "name": "getDisputeKitsLength",
      "outputs": [
        {
          "internalType": "uint256",
          "name": "",
          "type": "uint256"
        }
      ],
      "stateMutability": "view",
      "type": "function"
    },
    {
      "inputs": [
        {
          "internalType": "uint256",
          "name": "_disputeID",
          "type": "uint256"
        }
      ],
      "name": "getNumberOfRounds",
      "outputs": [
        {
          "internalType": "uint256",
          "name": "",
          "type": "uint256"
        }
      ],
      "stateMutability": "view",
      "type": "function"
    },
    {
      "inputs": [
        {
          "internalType": "uint256",
          "name": "_disputeID",
          "type": "uint256"
        }
      ],
      "name": "getNumberOfVotes",
      "outputs": [
        {
          "internalType": "uint256",
          "name": "",
          "type": "uint256"
        }
      ],
      "stateMutability": "view",
      "type": "function"
    },
    {
      "inputs": [
        {
          "internalType": "uint256",
          "name": "_disputeID",
          "type": "uint256"
        },
        {
          "internalType": "uint256",
          "name": "_round",
          "type": "uint256"
        }
      ],
      "name": "getPnkAtStakePerJuror",
      "outputs": [
        {
          "internalType": "uint256",
          "name": "",
          "type": "uint256"
        }
      ],
      "stateMutability": "view",
      "type": "function"
    },
    {
      "inputs": [
        {
          "internalType": "uint256",
          "name": "_disputeID",
          "type": "uint256"
        },
        {
          "internalType": "uint256",
          "name": "_round",
          "type": "uint256"
        }
      ],
      "name": "getRoundInfo",
      "outputs": [
        {
          "components": [
            {
              "internalType": "uint256",
              "name": "disputeKitID",
              "type": "uint256"
            },
            {
              "internalType": "uint256",
              "name": "pnkAtStakePerJuror",
              "type": "uint256"
            },
            {
              "internalType": "uint256",
              "name": "totalFeesForJurors",
              "type": "uint256"
            },
            {
              "internalType": "uint256",
              "name": "nbVotes",
              "type": "uint256"
            },
            {
              "internalType": "uint256",
              "name": "repartitions",
              "type": "uint256"
            },
            {
              "internalType": "uint256",
              "name": "pnkPenalties",
              "type": "uint256"
            },
            {
              "internalType": "address[]",
              "name": "drawnJurors",
              "type": "address[]"
            },
            {
              "internalType": "uint96[]",
              "name": "drawnJurorFromCourtIDs",
              "type": "uint96[]"
            },
            {
              "internalType": "uint256",
              "name": "sumFeeRewardPaid",
              "type": "uint256"
            },
            {
              "internalType": "uint256",
              "name": "sumPnkRewardPaid",
              "type": "uint256"
            },
            {
              "internalType": "contract IERC20",
              "name": "feeToken",
              "type": "address"
            },
            {
              "internalType": "uint256",
              "name": "drawIterations",
              "type": "uint256"
            },
            {
              "internalType": "uint256[10]",
              "name": "__gap",
              "type": "uint256[10]"
            }
          ],
          "internalType": "struct KlerosCoreUniversity.Round",
          "name": "",
          "type": "tuple"
        }
      ],
      "stateMutability": "view",
      "type": "function"
    },
    {
      "inputs": [
        {
          "internalType": "uint96",
          "name": "_courtID",
          "type": "uint96"
        }
      ],
      "name": "getTimesPerPeriod",
      "outputs": [
        {
          "internalType": "uint256[4]",
          "name": "timesPerPeriod",
          "type": "uint256[4]"
        }
      ],
      "stateMutability": "view",
      "type": "function"
    },
    {
      "inputs": [
        {
          "internalType": "address",
          "name": "_owner",
          "type": "address"
        },
        {
          "internalType": "address",
          "name": "_instructor",
          "type": "address"
        },
        {
          "internalType": "contract IERC20",
          "name": "_pinakion",
          "type": "address"
        },
        {
          "internalType": "address",
          "name": "_jurorProsecutionModule",
          "type": "address"
        },
        {
          "internalType": "contract IDisputeKit",
          "name": "_disputeKit",
          "type": "address"
        },
        {
          "internalType": "bool",
          "name": "_hiddenVotes",
          "type": "bool"
        },
        {
          "internalType": "uint256[4]",
          "name": "_courtParameters",
          "type": "uint256[4]"
        },
        {
          "internalType": "uint256[4]",
          "name": "_timesPerPeriod",
          "type": "uint256[4]"
        },
        {
          "internalType": "contract ISortitionModuleUniversity",
          "name": "_sortitionModuleAddress",
          "type": "address"
        }
      ],
      "name": "initialize",
      "outputs": [],
      "stateMutability": "nonpayable",
      "type": "function"
    },
    {
      "inputs": [],
      "name": "instructor",
      "outputs": [
        {
          "internalType": "address",
          "name": "",
          "type": "address"
        }
      ],
      "stateMutability": "view",
      "type": "function"
    },
    {
      "inputs": [
        {
          "internalType": "uint256",
          "name": "_disputeID",
          "type": "uint256"
        }
      ],
      "name": "isDisputeKitJumping",
      "outputs": [
        {
          "internalType": "bool",
          "name": "",
          "type": "bool"
        }
      ],
      "stateMutability": "view",
      "type": "function"
    },
    {
      "inputs": [
        {
          "internalType": "uint96",
          "name": "_courtID",
          "type": "uint96"
        },
        {
          "internalType": "uint256",
          "name": "_disputeKitID",
          "type": "uint256"
        }
      ],
      "name": "isSupported",
      "outputs": [
        {
          "internalType": "bool",
          "name": "",
          "type": "bool"
        }
      ],
      "stateMutability": "view",
      "type": "function"
    },
    {
      "inputs": [],
      "name": "jurorProsecutionModule",
      "outputs": [
        {
          "internalType": "address",
          "name": "",
          "type": "address"
        }
      ],
      "stateMutability": "view",
      "type": "function"
    },
    {
      "inputs": [],
      "name": "owner",
      "outputs": [
        {
          "internalType": "address",
          "name": "",
          "type": "address"
        }
      ],
      "stateMutability": "view",
      "type": "function"
    },
    {
      "inputs": [
        {
          "internalType": "uint256",
          "name": "_disputeID",
          "type": "uint256"
        }
      ],
      "name": "passPeriod",
      "outputs": [],
      "stateMutability": "nonpayable",
      "type": "function"
    },
    {
      "inputs": [],
      "name": "pinakion",
      "outputs": [
        {
          "internalType": "contract IERC20",
          "name": "",
          "type": "address"
        }
      ],
      "stateMutability": "view",
      "type": "function"
    },
    {
      "inputs": [],
      "name": "proxiableUUID",
      "outputs": [
        {
          "internalType": "bytes32",
          "name": "",
          "type": "bytes32"
        }
      ],
      "stateMutability": "view",
      "type": "function"
    },
    {
      "inputs": [
        {
          "internalType": "uint96",
          "name": "_courtID",
          "type": "uint96"
        },
        {
          "internalType": "uint256",
          "name": "_newStake",
          "type": "uint256"
        }
      ],
      "name": "setStake",
      "outputs": [],
      "stateMutability": "nonpayable",
      "type": "function"
    },
    {
      "inputs": [
        {
          "internalType": "address",
          "name": "_account",
          "type": "address"
        },
        {
          "internalType": "uint96",
          "name": "_courtID",
          "type": "uint96"
        },
        {
          "internalType": "uint256",
          "name": "_newStake",
          "type": "uint256"
        }
      ],
      "name": "setStakeBySortitionModule",
      "outputs": [],
      "stateMutability": "nonpayable",
      "type": "function"
    },
    {
      "inputs": [],
      "name": "sortitionModule",
      "outputs": [
        {
          "internalType": "contract ISortitionModuleUniversity",
          "name": "",
          "type": "address"
        }
      ],
      "stateMutability": "view",
      "type": "function"
    },
    {
      "inputs": [
        {
          "internalType": "address",
          "name": "_account",
          "type": "address"
        },
        {
          "internalType": "uint256",
          "name": "_amount",
          "type": "uint256"
        }
      ],
      "name": "transferBySortitionModule",
      "outputs": [],
      "stateMutability": "nonpayable",
      "type": "function"
    },
    {
      "inputs": [
        {
          "internalType": "address",
          "name": "newImplementation",
          "type": "address"
        },
        {
          "internalType": "bytes",
          "name": "data",
          "type": "bytes"
        }
      ],
      "name": "upgradeToAndCall",
      "outputs": [],
      "stateMutability": "payable",
      "type": "function"
    },
    {
      "inputs": [],
      "name": "version",
      "outputs": [
        {
          "internalType": "string",
          "name": "",
          "type": "string"
        }
      ],
      "stateMutability": "view",
      "type": "function"
    }
  ],
  "transactionHash": "0x6733cea855fc3ea83280d8dd2bc1de31a95423f55539cb924ed683d4444bf016",
  "args": [],
  "numDeployments": 1,
  "solcInputHash": "d547d738900bce1310e91a5d1adfc179",
  "bytecode": "0x60a080604052346100c157306080525f5160206156465f395f51905f525460ff8160401c166100b3576002600160401b03196001600160401b03821601610060575b60405161558090816100c682396080518181816112b001526114de0152f35b6001600160401b0319166001600160401b039081175f5160206156465f395f51905f525581527fc7f505b2f371ae2175ee4913f4499e1f2633a7b5936321eed1cdaeb6115181d290602090a15f80610041565b62dc149f60e41b5f5260045ffd5b5f80fdfe60806040526004361015610011575f80fd5b5f3560e01c8062f5822c146103235780630219da791461031e5780630761c14d1461031957806309cfdc9c146103145780630b7414bc1461030f578063115d53761461030a5780631860592b1461030557806319b81529146103005780631c3db16d146102fb5780631f5a0dd2146102f65780632d29a47b146102f15780632e1daf2f146102ec5780633cfd1184146102e757806342c37fa3146102e25780634f1ef286146102dd57806352d1902d146102d857806354fd4d50146102d3578063564a565d146102ce57806359ec827e146102c95780636a8c9194146102c457806371ae413d146102bf5780637717a6e8146102ba5780637934c0be146102b557806382d02237146102b057806386541b24146102ab57806386cdecef146102a65780638a9bb02a146102a15780638bb048751461029c5780638da5cb5b14610297578063a6f9dae114610292578063acdbf51d1461028d578063afe15cfb14610288578063b004963714610283578063b702a8791461027e578063c13517e114610279578063c258bb1914610274578063c35699021461026f578063c71f42531461026a578063cf0c38f814610265578063d07368bd14610260578063d4d1d76a1461025b578063d874514b14610256578063d98493f614610251578063e399d29b1461024c578063f6506db414610247578063f7434ea914610242578063fbf405b01461023d578063fc6f8f16146102385763fe524c3914610233575f80fd5b6131a5565b613185565b61315f565b613129565b613016565b612f55565b612ef8565b612c27565b612c0a565b612b9f565b612b79565b612b39565b6126f9565b6126ad565b61242e565b612017565b611fcb565b611f48565b611eef565b611e76565b611e51565b611d02565b611c54565b611ab6565b61193d565b61180d565b611784565b61175a565b611734565b61169e565b611680565b6115fd565b611552565b6114c4565b611266565b6111af565b611134565b6110d7565b610e80565b610e00565b610d96565b610d6e565b610d3b565b610750565b61061c565b610493565b610421565b6103b1565b61033d565b6001600160a01b0381160361033957565b5f80fd5b346103395760203660031901126103395760043561035a81610328565b6001600160a01b035f54163303610389576001600160a01b03166001600160a01b031960025416176002555f80f35b7f596dcdb8000000000000000000000000000000000000000000000000000000005f5260045ffd5b34610339576020366003190112610339576001600160a01b036004356103d681610328565b165f526008602052606060405f205460ff604051918181161515835267ffffffffffffffff8160081c16602084015260481c166040820152f35b6001600160601b0381160361033957565b346103395760603660031901126103395760043561043e81610328565b60243561044a81610410565b604435906001600160a01b0360045416330361046b5761046992613fb0565b005b7f9d6cab99000000000000000000000000000000000000000000000000000000005f5260045ffd5b34610339576020366003190112610339576004356104b081610328565b6001600160a01b035f54163314158061050e575b6104e6576001600160a01b03166001600160a01b031960015416176001555f80f35b7ff10d23b5000000000000000000000000000000000000000000000000000000005f5260045ffd5b506001600160a01b03600154163314156104c4565b634e487b7160e01b5f52604160045260245ffd5b6101a0810190811067ffffffffffffffff82111761055457604052565b610523565b90601f8019910116810190811067ffffffffffffffff82111761055457604052565b6040519061058b61010083610559565b565b6040519061058b6101a083610559565b67ffffffffffffffff81116105545760051b60200190565b9080601f830112156103395781356105cc8161059d565b926105da6040519485610559565b81845260208085019260051b82010192831161033957602001905b8282106106025750505090565b81358152602091820191016105f5565b8015150361033957565b346103395760603660031901126103395760043561063981610410565b60243567ffffffffffffffff8111610339576106599036906004016105b5565b6044359061066682610612565b6001600160a01b035f54163303610389575f5b81518110156104695782156106fa5761069281836131ec565b511580156106e4575b6106bc57806106b66106af600193856131ec565b51866143e8565b01610679565b7f7ab15312000000000000000000000000000000000000000000000000000000005f5260045ffd5b506106ef81836131ec565b51600654111561069b565b600161070682846131ec565b5114610728578061072361071c600193856131ec565b5186614397565b6106b6565b7fada223fa000000000000000000000000000000000000000000000000000000005f5260045ffd5b346103395760203660031901126103395760043561076d816115b1565b5061078761078282546001600160601b031690565b610ddf565b509060038101916107a261079b8454613214565b809461323f565b5060018301936107b3855460ff1690565b6107bc816115e1565b806108d857501580610896575b61086e57600360068201549101540361084657547f4e6f5cf43b95303e86aee81683df63992061723a829ee012db21dad388756b91926108379261082b9260601c60ff161561083c5761081e60015b83613287565b6002429101555460ff1690565b6040519182918261329f565b0390a2005b61081e6002610818565b7f9e4486b0000000000000000000000000000000000000000000000000000000005f5260045ffd5b7f3e9727df000000000000000000000000000000000000000000000000000000005f5260045ffd5b506108a5600284015442613232565b6108d26108c86108b6875460ff1690565b6108bf816115e1565b60068601613258565b90549060031b1c90565b116107c9565b90506108e9819594959392936115e1565b60018103610a5057506109246108c8610906600287015442613232565b926006610914875460ff1690565b9161091e836115e1565b01613258565b119081610993575b5061096b57805460ff191660021781557f4e6f5cf43b95303e86aee81683df63992061723a829ee012db21dad388756b91916108379161082b9161081e565b7f9bf4af0a000000000000000000000000000000000000000000000000000000005f5260045ffd5b6109c491506109a56109b89154611ec2565b90546001600160a01b039160031b1c1690565b6001600160a01b031690565b602060405180927f0baa64d10000000000000000000000000000000000000000000000000000000082528180610a0289600483019190602083019252565b03915afa908115610a4b575f91610a1c575b50155f61092c565b610a3e915060203d602011610a44575b610a368183610559565b810190613267565b5f610a14565b503d610a2c565b61327c565b610a59816115e1565b60028103610ba75750610a766108c8610906600287015442613232565b119081610b1e575b50610af657805460ff191660031781557f4e6f5cf43b95303e86aee81683df63992061723a829ee012db21dad388756b91916108379161082b916001600160a01b03610acb825460601c90565b16867fa5d41b970d849372be1da1481ffd78d162bfe57a7aa2fe4e5fb73481fa5ac24f5f80a361081e565b7fcc46f568000000000000000000000000000000000000000000000000000000005f5260045ffd5b610b3091506109a56109b89154611ec2565b602060405180927f6d4cd8ea0000000000000000000000000000000000000000000000000000000082528180610b6e89600483019190602083019252565b03915afa908115610a4b575f91610b88575b50155f610a7e565b610ba1915060203d602011610a4457610a368183610559565b5f610b80565b610bb0816115e1565b60038103610cd1576108c8610bd9916006610bcf600289015442613232565b9461091e836115e1565b119081610c48575b50610c2057805460ff191660041781557f4e6f5cf43b95303e86aee81683df63992061723a829ee012db21dad388756b91916108379161082b9161081e565b7f2f4dfd87000000000000000000000000000000000000000000000000000000005f5260045ffd5b610c5a91506109a56109b89154611ec2565b602060405180927f0855bbe90000000000000000000000000000000000000000000000000000000082528180610c9889600483019190602083019252565b03915afa908115610a4b575f91610cb2575b50155f610be1565b610ccb915060203d602011610a4457610a368183610559565b5f610caa565b905060049150610ce0816115e1565b14610d135761082b610837917f4e6f5cf43b95303e86aee81683df63992061723a829ee012db21dad388756b919361081e565b7f0fe7191e000000000000000000000000000000000000000000000000000000005f5260045ffd5b34610339576040366003190112610339576020610d66600435610d5d81610328565b602435906132fb565b604051908152f35b34610339576020366003190112610339576020610d8c600435613353565b6040519015158152f35b34610339576020366003190112610339576060610db46004356133f9565b906040519283521515602083015215156040820152f35b634e487b7160e01b5f52603260045260245ffd5b600554811015610dfb5760055f52601560205f20910201905f90565b610dcb565b346103395760203660031901126103395760043560055481101561033957610e2790610ddf565b508054600282015460038301546004840154600590940154604080516001600160601b0386168152606095861c60ff16151560208201529081019390935292820152608081019290925260a08201528060c081015b0390f35b3461033957606036600319011261033957600435604435602435610ea3836115b1565b506004610eb4600183015460ff1690565b610ebd816115e1565b036110a557816003610ecf920161323f565b50906004820193610ee2855494856134e1565b926005810194855496600683015490610eff8260028601546132ec565b92610f156109b86109a560018801549754611ec2565b6040517fda3beb8c00000000000000000000000000000000000000000000000000000000815260048101889052602481018990529290602090849060449082905afa928315610a4b575f93611074575b50826110455783891161103c575b9780979695949392985b55965b868810610f9657898981815403610f9357005b55005b9091929394959698828a105f14610ff657610fe7600191610fb561057b565b908882528960208301528460408301528560608301528660808301528760a083015260c08201528b60e0820152614a40565b995b0196959493929190610f80565b9860019061103761100561057b565b8881528960208201528460408201528560608201528660808201528760a08201528c60c08201528260e08201526144aa565b610fe9565b97508297610f73565b61104e846132af565b8911611063575b978097969594939298610f7d565b975061106e836132af565b97611055565b61109791935060203d60201161109e575b61108f8183610559565b8101906134ee565b915f610f65565b503d611085565b7f8794ce4b000000000000000000000000000000000000000000000000000000005f5260045ffd5b5f91031261033957565b34610339575f3660031901126103395760206001600160a01b0360045416604051908152f35b905f905b6004821061110e57505050565b6020806001928551815201930191019091611101565b60808101929161058b91906110fd565b346103395760203660031901126103395761116b60043561115481610410565b60806040516111638282610559565b369037610ddf565b50604051906006015f825b6004821061119957610e7c8461118d608082610559565b60405191829182611124565b6001602081928554815201930191019091611176565b34610339576040366003190112610339576004356111cc81610328565b6024356001600160a01b0360045416330361046b57610469916001600160a01b036002541661500d565b67ffffffffffffffff811161055457601f01601f191660200190565b92919261121e826111f6565b9161122c6040519384610559565b829481845281830111610339578281602093845f960137010152565b9080601f830112156103395781602061126393359101611212565b90565b60403660031901126103395760043561127e81610328565b60243567ffffffffffffffff81116103395761129e903690600401611248565b6112a66150a2565b6001600160a01b037f000000000000000000000000000000000000000000000000000000000000000016803014908115611489575b50611461576001600160a01b0382166040517f52d1902d000000000000000000000000000000000000000000000000000000008152602081600481855afa5f9181611440575b5061135b577f0c760937000000000000000000000000000000000000000000000000000000005f526001600160a01b03841660045260245ffd5b7f360894a13ba1a3210667c828492db98dca3e2076cc3735a920a3ca505d382bbc81036114155750827f360894a13ba1a3210667c828492db98dca3e2076cc3735a920a3ca505d382bbc557fbc7cd75a20ee27fd9adebab32041f755214dbc6bffa90cc0225b39da2e5c2d3b5f80a28051806113d357005b5f926020849301905af46113e56134fd565b50156113ed57005b7f736436ba000000000000000000000000000000000000000000000000000000005f5260045ffd5b7faa1d49a4000000000000000000000000000000000000000000000000000000005f5260045260245ffd5b61145a91925060203d60201161109e5761108f8183610559565b905f611321565b7fe07c8dba000000000000000000000000000000000000000000000000000000005f5260045ffd5b90506114bc7f360894a13ba1a3210667c828492db98dca3e2076cc3735a920a3ca505d382bbc546001600160a01b031690565b14155f6112db565b34610339575f366003190112610339576001600160a01b037f00000000000000000000000000000000000000000000000000000000000000001630036114615760206040517f360894a13ba1a3210667c828492db98dca3e2076cc3735a920a3ca505d382bbc8152f35b805180835260209291819084018484015e5f828201840152601f01601f1916010190565b34610339575f36600319011261033957610e7c604051611573604082610559565b600581527f322e302e30000000000000000000000000000000000000000000000000000000602082015260405191829160208352602083019061152e565b600754811015610dfb5760075f52600e60205f20910201905f90565b634e487b7160e01b5f52602160045260245ffd5b600511156115eb57565b6115cd565b9060058210156115eb5752565b34610339576020366003190112610339576004356007548110156103395761162660ff916115b1565b508054600260018301549201546040519384936001600160a01b0360a08601946001600160601b0380821616875260601c16602086015261166c604086018383166115f0565b60081c161515606084015260808301520390f35b34610339576020366003190112610339576020610d6660043561352c565b34610339576060366003190112610339576004356116bb81610328565b60243560443567ffffffffffffffff8111610339576116de903690600401611248565b6001600160a01b035f54163303610389575f928392602083519301915af16117046134fd565b501561170c57005b7f44125e5e000000000000000000000000000000000000000000000000000000005f5260045ffd5b34610339575f3660031901126103395760206001600160a01b0360015416604051908152f35b346103395760403660031901126103395761046960043561177a81610410565b6024359033614203565b34610339576040366003190112610339576004356117a181610328565b602435906117ae82610612565b6001600160a01b035f54163303610389576001600160a01b031690815f52600860205260405f2060ff1981541660ff831515161790551515907f541615e167511d757a7067a700eb54431b256bb458dfdce0ac58bf2ed0aefd445f80a3005b346103395760603660031901126103395760043561182a81610328565b6024359067ffffffffffffffff821682036103395760443560ff81168103610339576001600160a01b035f54163303610389576001600160a01b03919091165f81815260086020818152604092839020805469ffffffffffffffffff0019169287901b68ffffffffffffffff001692909217604886901b69ff0000000000000000001617909155815167ffffffffffffffff909516855260ff90931692840192909252917fe6996b7f03e9bd02228b99d3d946932e3197f505f60542c4cfbc919441d8a4e69181908101610837565b8060e312156103395760405190611911608083610559565b8190610144116103395760c4905b610144821061192d57505090565b813581526020918201910161191f565b34610339576101403660031901126103395760043561195b81610410565b60243561196781610612565b6044359060643560a43560843561197d366118f9565b926001600160a01b035f54163303610389576001600160601b036119a088610ddf565b50971696600188141580611a95575b611a6d575f600182018054915b828110611a4a57600284018a905583546cff000000000000000000000000191689151560601b6cff000000000000000000000000161784558a7f709b1f5fda58af9a4f52dacd1ec404840a8148455700cce155a2bd8cf127ef1a8b8b6108378c8c8c8c611a3e8460068f846003820155856004820155866005820155016135fa565b6040519687968761361e565b896002611a5d6107826108c88587611eda565b50015410611a6d576001016119bc565b7f97170789000000000000000000000000000000000000000000000000000000005f5260045ffd5b50866002611aad61078284546001600160601b031690565b500154116119af565b346103395760403660031901126103395760206001611ae56024356003611ade6004356115b1565b500161323f565b500154604051908152f35b90602080835192838152019201905f5b818110611b0d5750505090565b82516001600160a01b0316845260209384019390920191600101611b00565b90602080835192838152019201905f5b818110611b495750505090565b82516001600160601b0316845260209384019390920191600101611b3c565b905f905b600a8210611b7957505050565b6020806001928551815201930191019091611b6c565b611263906020815282516020820152602083015160408201526040830151606082015260608301516080820152608083015160a082015260a083015160c08201526101a0610180611c0b611bf460c08701516102c060e08701526102e0860190611af0565b60e0870151858203601f1901610100870152611b2c565b94610100810151610120850152610120810151610140850152611c406101408201516101608601906001600160a01b03169052565b610160810151828501520151910190611b68565b3461033957604036600319011261033957610e7c611cf6611cf06004356003611ade60243592604051611c8681610537565b5f81525f60208201525f60408201525f60608201525f60808201525f60a0820152606060c0820152606060e08201525f6101008201525f6101208201525f6101408201525f6101608201526101806101409160405192611ce68185610559565b36843701526115b1565b5061379b565b60405191829182611b8f565b3461033957602036600319011261033957600435611d1f816115b1565b5090600182019182546004611d348260ff1690565b611d3d816115e1565b036110a55760081c60ff16611e2957611d78611dbd91611d71611d5f856133f9565b5050865461ff00191661010017909655565b5460601c90565b60405184815283906001600160a01b038316907f394027a5fa6e098a1191094d1719d6929b9abc535fcc0c8f448d6a4e7562227690602090a36001600160a01b031690565b91823b15610339576040517f311a6c5600000000000000000000000000000000000000000000000000000000815260048101929092526024820152905f908290818381604481015b03925af18015610a4b57611e1557005b80611e235f61046993610559565b806110cd565b7fc977f8d3000000000000000000000000000000000000000000000000000000005f5260045ffd5b34610339575f3660031901126103395760206001600160a01b035f5416604051908152f35b3461033957602036600319011261033957600435611e9381610328565b5f5490336001600160a01b03831603610389576001600160a01b036001600160a01b031991169116175f555f80f35b600654811015610dfb5760065f5260205f2001905f90565b8054821015610dfb575f5260205f2001905f90565b3461033957602036600319011261033957600435600654811015610339576001600160a01b0360209160065f527ff652222313e28459528d920b65115c16c04f3efc82aaedc97be59f3f377c0d3f015416604051908152f35b3461033957602036600319011261033957611f646004356115b1565b5060ff60018201541660058110156115eb57600303611fc357611fb0611faa6108c86006611fa06001600160601b036002870154965416610ddf565b5001600301905f90565b826134e1565b905b604080519182526020820192909252f35b505f80611fb2565b3461033957602036600319011261033957600435611fe881610328565b6001600160a01b035f54163303610389576001600160a01b03166001600160a01b031960045416176004555f80f35b346103395760403660031901126103395760243560043561203782610328565b6001600160a01b035f541633141580612419575b6104e657612058816115b1565b5090600382019061207361206c8354613214565b809361323f565b5093612083600185015460ff1690565b61208c816115e1565b6123f157600685018054916003870192835411156123c9576120b96109b86004546001600160a01b031690565b803b1561033957604051633c694c4160e21b81526001600160a01b039290921660048301525f908290602490829084905af18015610a4b576123b5575b506121666121076109a58854611ec2565b96600b810196604061211989546134d3565b809a885f6001600160a01b0385518099819682957fd2b8035a0000000000000000000000000000000000000000000000000000000084526004840160209093929193604081019481520152565b0393165af18015610a4b575f935f91612380575b506001600160a01b038416918215612358576121a16109b86004546001600160a01b031690565b600185015490803b15610339576040517f21e1625e0000000000000000000000000000000000000000000000000000000081526001600160a01b038816600482015260248101929092525f908290604490829084905af1958615610a4b578960079561224b9361226399612344575b508954604080518f815260208101929092527f6119cf536152c11e0a9a6c22f3953ce4ecc93ee54fa72ffa326ffabded21509b91a38761387e565b6001600160601b038216156123325750915b016138e0565b549054146122af575b5050556122846109b86004546001600160a01b031690565b803b15610339575f6040518092633c694c4160e21b8252818381611e0560048201905f602083019252565b6122c46109b86004546001600160a01b031690565b91823b15610339576040517f5d2d784600000000000000000000000000000000000000000000000000000000815260048101929092526024820152905f908290604490829084905af18015610a4b5761231e575b8061226c565b80611e235f61232c93610559565b5f612318565b546001600160601b031690509161225d565b80611e235f61235293610559565b5f612210565b7f5c7171ee000000000000000000000000000000000000000000000000000000005f5260045ffd5b90506123a591935060403d6040116123ae575b61239d8183610559565b810190613859565b9290925f61217a565b503d612393565b80611e235f6123c393610559565b5f6120f6565b7f4df06de3000000000000000000000000000000000000000000000000000000005f5260045ffd5b7f8285c4ef000000000000000000000000000000000000000000000000000000005f5260045ffd5b506001600160a01b036001541633141561204b565b60403660031901126103395760043560243567ffffffffffffffff81116103395761245d903690600401611248565b9061246782613f61565b34106126855761247682615331565b90506124a96124a561249e83600a61248f879897610ddf565b5001905f5260205260405f2090565b5460ff1690565b1590565b61265d57600754926125675f600a6124bf6150b5565b503360601b6bffffffffffffffffffffffff19166001600160601b03861617815542600282015561254061253861250e60036125066125006109a58c611ec2565b99610ddf565b50940161391b565b509261251e6004820154346132ec565b9860038501998a55845560036002820154910154906132c5565b612710900490565b600182015534600282015501906001600160a01b03166001600160a01b0319825416179055565b61257c6109b86004546001600160a01b031690565b90813b156103395760405163d09f392d60e01b8152600481018690525f6024820181905290928390604490829084905af1918215610a4b576001600160a01b0392612649575b5016905490803b15610339576125f3945f8094604051978895869485936302dbb79560e61b85528a6004860161393c565b03925af1918215610a4b57602092612635575b5033817f141dfc18aa6a56fc816f44f0e9e2f1ebc92b15ab167770e17db5b084c10ed9955f80a3604051908152f35b80611e235f61264393610559565b5f612606565b80611e235f61265793610559565b5f6125c2565b7fb34eb75d000000000000000000000000000000000000000000000000000000005f5260045ffd5b7f38cd83c4000000000000000000000000000000000000000000000000000000005f5260045ffd5b34610339576020366003190112610339576004356126ca81610328565b6001600160a01b035f54163303610389576001600160a01b03166001600160a01b031960035416176003555f80f35b60603660031901126103395760043560243560443567ffffffffffffffff81116103395761272b903690600401611248565b6127348361352c565b3410612b1157612743836115b1565b5091600183016003612756825460ff1690565b61275f816115e1565b03612ae9576003840161277b6127758254613214565b8261323f565b509081546127916109b86109b86109a584611ec2565b3303612ac15786546001600160601b031681946127ad8461391b565b5092600386015460056127bf85610ddf565b50015411156129fa575b5088546bffffffffffffffffffffffff19166001600160601b03831617895561280691906127fb90805460ff19169055565b4260028a0155610ddf565b509361283461253861281c6004880154346132ec565b966003850197885560036002820154910154906132c5565b600183015534600283015581556128566109b86004546001600160a01b031690565b6128608354613214565b90803b156103395760405163d09f392d60e01b8152600481018b905260248101929092525f908290604490829084905af18015610a4b576129e6575b5054915490818303612915575b877f4e6f5cf43b95303e86aee81683df63992061723a829ee012db21dad388756b916001600160a01b036128de8a5460601c90565b1660405190837f9c9b64db9e130f48381bf697abf638e73117dbfbfd7a4484f2da3ba188f4187d5f80a35f81528060208101610837565b61295d926109b89261292a6109a59354613214565b6040518381528b907fcbe7939a71f0b369c7471d760a0a99b60b7bb010ee0406cba8a46679d1ea775690602090a4611ec2565b905490803b156103395761298c935f8094604051968795869485936302dbb79560e61b85528c6004860161393c565b03925af18015610a4b577f4e6f5cf43b95303e86aee81683df63992061723a829ee012db21dad388756b91926001600160a01b03926128de926129d2575b8194816128a9565b80611e235f6129e093610559565b5f6129ca565b80611e235f6129f493610559565b5f61289c565b916124a561249e612a1e612a10612a2a94610ddf565b50546001600160601b031690565b94600a61248f87610ddf565b612ab8575b906127fb61280692612a488b546001600160601b031690565b6001600160601b0381166001600160601b03851603612a6b575b509192506127c9565b612a758754613214565b6040516001600160601b03868116825292909216918e907f736e3f52761298c8c0823e1ebf482ed3c5ecb304f743d2d91a7c006e8e8d7a1f90602090a45f612a62565b60019550612a2f565b7f065f245f000000000000000000000000000000000000000000000000000000005f5260045ffd5b7fdf37bf2c000000000000000000000000000000000000000000000000000000005f5260045ffd5b7f3191f8f1000000000000000000000000000000000000000000000000000000005f5260045ffd5b34610339576020366003190112610339576003612b576004356115b1565b500180545f198101908111612b7457611ae560039160209361323f565b613200565b34610339575f3660031901126103395760206001600160a01b0360035416604051908152f35b3461033957602036600319011261033957600435612bbc81610328565b6001600160a01b035f54163303610389576001600160a01b0360065491612be281613963565b16907f44063d258760b98116d53815adbc906a56b3563e540148cc0fc2457f83b5eeb25f80a3005b34610339575f366003190112610339576020600654604051908152f35b346103395761016036600319011261033957600435612c4581610410565b602435612c5181610612565b604435606435906084359260a43591612c69366118f9565b956101443567ffffffffffffffff811161033957612c8b9036906004016105b5565b966001600160a01b035f5416330361038957826002612ca984610ddf565b50015411611a6d57875115612ea2576001600160601b038216948515612e7a5760059796975491612cd86139cb565b50915f98600a8401995b8c51811015612d54578c81612cf781836131ec565b5115918215612d3d575b50506106bc5780612d37612d2a8f612d1d8f91956001966131ec565b515f5260205260405f2090565b805460ff19166001179055565b01612ce2565b612d4792506131ec565b516006541115818e612d01565b50908b92918b612d726124a561249e8e60015f5260205260405f2090565b612e52577f550ff678017abc294b4786a99a046628d5a1eac07be0f1ea7e89543f13576ee698612e3f886001612e388c8f8a6001600160601b039f8e612e4d9f61078294612ddb600694612e1a93906001600160601b03166001600160601b0319825416179055565b612dee612de66139fd565b8a8501613a18565b82546cff000000000000000000000000191690151560601b6cff00000000000000000000000016178255565b8960028201558a60038201558b60048201558c6005820155016135fa565b5001613a96565b604051988998169a88613aca565b0390a3005b7f31a8d9e8000000000000000000000000000000000000000000000000000000005f5260045ffd5b7f1ef4f649000000000000000000000000000000000000000000000000000000005f5260045ffd5b7f402585f5000000000000000000000000000000000000000000000000000000005f5260045ffd5b9181601f840112156103395782359167ffffffffffffffff8311610339576020838186019501011161033957565b346103395760403660031901126103395760043567ffffffffffffffff811161033957610d66612f4a612f4f612f346020943690600401612eca565b929060243593612f4385610328565b3691611212565b613f61565b906132fb565b34610339576101e036600319011261033957600435612f7381610328565b60243590612f8082610328565b604435612f8c81610328565b606435612f9881610328565b608435612fa481610328565b60a43590612fb182610612565b612fba366118f9565b923661016312156103395760405194612fd4608087610559565b8597366101c41161033957610144985b6101c48a10613006575061046998506101c4359761300189610328565b613b38565b893581526020998a019901612fe4565b346103395760803660031901126103395760043560243567ffffffffffffffff81116103395761304a903690600401612eca565b9160443561305781610328565b606435916001600160a01b0382165f52600860205261307d6124a560405f205460ff1690565b61310157613098613092612f4a368888611212565b836132fb565b8310612685576130ad6124a5843033866152d4565b6130d9576130c36130c994610e7c963691611212565b906150e7565b6040519081529081906020820190565b7f90b8ec18000000000000000000000000000000000000000000000000000000005f5260045ffd5b7fe51cf7bf000000000000000000000000000000000000000000000000000000005f5260045ffd5b346103395760203660031901126103395760043567ffffffffffffffff811161033957610d66612f4a6020923690600401611248565b34610339575f3660031901126103395760206001600160a01b0360025416604051908152f35b346103395760203660031901126103395760206003611ae56004356115b1565b3461033957604036600319011261033957600a6004356131c481610410565b6131d060243591610ddf565b50905f5201602052602060ff60405f2054166040519015158152f35b8051821015610dfb5760209160051b010190565b634e487b7160e01b5f52601160045260245ffd5b5f19810191908211612b7457565b61271003906127108211612b7457565b91908203918211612b7457565b8054821015610dfb575f52601660205f20910201905f90565b6004821015610dfb5701905f90565b90816020910312610339575161126381610612565b6040513d5f823e3d90fd5b9060058110156115eb5760ff80198354169116179055565b60208101929161058b91906115f0565b908160011b9180830460021490151715612b7457565b81810292918115918404141715612b7457565b634e487b7160e01b5f52601260045260245ffd5b81156132f6570490565b6132d8565b6001600160a01b031690815f52600860205260ff60405f205460481c1690604d8211612b745761332e91600a0a906132c5565b905f52600860205267ffffffffffffffff60405f205460081c169081156132f6570490565b61335c906115b1565b506003810180545f198101908111612b74576133836001600160601b039161338c9361323f565b50925416610ddf565b509060038101546005830154116133c9576133b26001600160601b03600a935416610ddf565b5090545f520160205260ff60405f20541615151590565b50505f90565b9081606091031261033957805191604060208301516133ed81610612565b92015161126381610612565b6003613404826115b1565b500180545f19810192908311612b745761344c6001600160a01b036134386134316134859660609661323f565b5054611ec2565b90549060031b1c166001600160a01b031690565b60405180809581947f1c3db16d000000000000000000000000000000000000000000000000000000008352600483019190602083019252565b03915afa908115610a4b575f915f915f916134a1575b50909192565b9150506134c6915060603d6060116134cc575b6134be8183610559565b8101906133cf565b5f61349b565b503d6134b4565b9060018201809211612b7457565b91908201809211612b7457565b90816020910312610339575190565b3d15613527573d9061350e826111f6565b9161351c6040519384610559565b82523d5f602084013e565b606090565b613535906115b1565b5061355f6135506003830161354a8154613214565b9061323f565b5091546001600160601b031690565b600361356a82610ddf565b50920154600583015490919082106135e5576001600160601b03166001036135b25750507f7fffffffffffffffffffffffffffffffffffffffffffffffffffffffffffffff90565b6135df6135da60046135d161078261126396546001600160601b031690565b500154926132af565b6134d3565b906132c5565b506135df6135da6004611263940154926132af565b905f5b6004811061360a57505050565b6001906020835193019281850155016135fd565b919360a09361058b969298979561012085019915158552602085015260408401526060830152608082015201906110fd565b90604051918281549182825260208201905f5260205f20925f5b81811061367f57505061058b92500383610559565b84546001600160a01b031683526001948501948794506020909301920161366a565b604051815480825290929183906136bf60208301915f5260205f2090565b925f905b80600183011061371a5761058b945491818110613700575b106136e9575b500383610559565b60601c6001600160601b031681526020015f6136e1565b6001600160601b03831684529260019060200193016136db565b91600291935060406001916137588754613745836001600160601b0383166001600160601b03169052565b60601c6001600160601b03166020830152565b0194019201859293916136c3565b60405191905f835b600a82106137855750505061058b61014083610559565b600160208192855481520193019101909161376e565b90613851600c6137a961058d565b938054855260018101546020860152600281015460408601526003810154606086015260048101546080860152600581015460a08601526137ec60068201613650565b60c08601526137fd600782016136a1565b60e08601526008810154610100860152600981015461012086015261384061382f600a8301546001600160a01b031690565b6001600160a01b0316610140870152565b600b81015461016086015201613766565b610180830152565b9190826040910312610339576020825161387281610328565b92015161126381610410565b90815491600160401b83101561055457826138a191600161058b95018155611eda565b9091906001600160a01b038084549260031b9316831b921b1916179055565b9190918054831015610dfb575f52600c600160205f2084821c0193160290565b8054600160401b811015610554576138fd916001820181556138c0565b6001600160601b0380839493549260031b9316831b921b1916179055565b8054600160401b811015610554576139389160018201815561323f565b9091565b94939260609261395e928752602087015260806040870152608086019061152e565b930152565b60065490600160401b8210156105545760018201600655600654821015610dfb5760065f527ff652222313e28459528d920b65115c16c04f3efc82aaedc97be59f3f377c0d3f90910180546001600160a01b0319166001600160a01b03909216919091179055565b600554600160401b8110156105545760018101600555600554811015610dfb5760055f52601560205f20910201905f90565b60405190613a0c602083610559565b5f808352366020840137565b81519167ffffffffffffffff831161055457600160401b8311610554578154838355808410613a70575b50602001905f5260205f205f5b838110613a5c5750505050565b600190602084519401938184015501613a4f565b825f528360205f2091820191015b818110613a8b5750613a42565b5f8155600101613a7e565b8054600160401b81101561055457613ab391600182018155611eda565b819291549060031b91821b915f19901b1916179055565b929461016094602096613b0194989398610140870199151587528887015260408601526060850152608084015260a08301906110fd565b6101406101208201528451809452019201905f5b818110613b225750505090565b8251845260209384019390920191600101613b15565b96949290979593917ff0c57e16840df040f15088dc2f81fe391c3923bec73e23a9662efc9c229c6a0e5498613b84613b7660ff8c60401c1615151590565b9a67ffffffffffffffff1690565b8a80613d37575b159081613d0f575b50613ce757613bfd988a613bf4600167ffffffffffffffff197ff0c57e16840df040f15088dc2f81fe391c3923bec73e23a9662efc9c229c6a0e5416177ff0c57e16840df040f15088dc2f81fe391c3923bec73e23a9662efc9c229c6a0e55565b613c8757613d79565b613c0357565b613c5868ff0000000000000000197ff0c57e16840df040f15088dc2f81fe391c3923bec73e23a9662efc9c229c6a0e54167ff0c57e16840df040f15088dc2f81fe391c3923bec73e23a9662efc9c229c6a0e55565b604051600181527fc7f505b2f371ae2175ee4913f4499e1f2633a7b5936321eed1cdaeb6115181d290602090a1565b613ce2600160401b68ff0000000000000000197ff0c57e16840df040f15088dc2f81fe391c3923bec73e23a9662efc9c229c6a0e5416177ff0c57e16840df040f15088dc2f81fe391c3923bec73e23a9662efc9c229c6a0e55565b613d79565b7f0dc149f0000000000000000000000000000000000000000000000000000000005f5260045ffd5b303b15915081613d22575b50155f613b93565b6001915067ffffffffffffffff16145f613d1a565b50600167ffffffffffffffff821610613b8b565b600654600160401b8110156105545760018101600655600654811015610dfb5760065f5260205f2001905f90565b93613e516001600160601b039699613e35613f5696613e1960019c97613dfd6001600160a01b0398613de17f550ff678017abc294b4786a99a046628d5a1eac07be0f1ea7e89543f13576ee69f9d6001600160a01b03166001600160a01b03195f5416175f55565b6001600160a01b03166001600160a01b03196001541617600155565b6001600160a01b03166001600160a01b03196002541617600255565b6001600160a01b03166001600160a01b03196003541617600355565b6001600160a01b03166001600160a01b03196004541617600455565b613e59613d4b565b5050613e6481613963565b16867f44063d258760b98116d53815adbc906a56b3563e540148cc0fc2457f83b5eeb25f80a3613e926139cb565b5050613e9c6139cb565b5080546bffffffffffffffffffffffff1916815590613ec4613ebc6139fd565b888401613a18565b81546cff000000000000000000000000191688151560601b6cff0000000000000000000000001617825583516002830155602084018051600384015591604085018051600483015590613f36606087019182516005820155613f2985600683016135fa565b546001600160601b031690565b955193519151905191613f476139fd565b94604051988998169b88613aca565b0390a361058b61443c565b613f7a6004613f7261126393615331565b509290610ddf565b5001546132c5565b908160609103126103395780519160406020830151920151600a8110156103395790565b600a11156115eb57565b906001600160601b03811680159081156141f6575b506141e957821515806141d3575b6141c657613fec6109b86004546001600160a01b031690565b60405163c70ba3b960e01b81526001600160a01b03841660048201526001600160601b038316602482015260448101859052600160648201529390606090859060849082905f905af1918215610a4b575f925f955f9161418d575b5061405181613fa6565b8061417c575082614147575b84614110575b6140786109b86004546001600160a01b031690565b91823b15610339576040517faac03ad20000000000000000000000000000000000000000000000000000000081526001600160a01b0390951660048601526001600160601b039091166024850152604484019290925260648301939093526084820152905f90829081838160a4810103925af18015610a4b576140fc575b50600190565b80611e235f61410a93610559565b5f6140f6565b61412f6124a5868661412a6002546001600160a01b031690565b61500d565b156140635750505050506141436001615422565b5f90565b6141686124a5846141606002546001600160a01b031690565b8730916152d4565b1561405d5750505050506141436001615402565b935050505061414391506001615442565b919350506141b491945060603d6060116141bf575b6141ac8183610559565b810190613f82565b94919290945f614047565b503d6141a2565b50505061414360016153e2565b5060026141df82610ddf565b5001548310613fd3565b50505061414360016153c2565b905060055411155f613fc5565b906001600160601b038116801590811561438a575b5061437e5782151580614368575b61435c5761423f6109b86004546001600160a01b031690565b60405163c70ba3b960e01b81526001600160a01b03841660048201526001600160601b0383166024820152604481018590525f60648201819052909491606091869160849183915af1918215610a4b575f925f955f91614333575b506142a481613fa6565b806143235750826142f7575b846142ca576140786109b86004546001600160a01b031690565b6142e46124a5868661412a6002546001600160a01b031690565b156140635750505050506141435f615422565b6143106124a5846141606002546001600160a01b031690565b156142b05750505050506141435f615402565b935050505061414391505f615442565b9193505061435191945060603d6060116141bf576141ac8183610559565b94919290945f61429a565b5050506141435f6153e2565b50600261437482610ddf565b5001548310614226565b5050506141435f6153c2565b905060055411155f614218565b906001600160601b035f92600a6143ad82610ddf565b508486520160205260408420805460ff19169055167fb47629acdf64971062d40984f77d3dee212d735b11e3e8c7a4222d9f0572cc798380a4565b906001600160601b03600192600a6143ff82610ddf565b50845f520160205260405f208460ff19825416179055167fb47629acdf64971062d40984f77d3dee212d735b11e3e8c7a4222d9f0572cc795f80a4565b600a6144486001610ddf565b5060015f520160205260405f20600160ff19825416179055600180807fb47629acdf64971062d40984f77d3dee212d735b11e3e8c7a4222d9f0572cc795f80a4565b81156132f6570690565b9190826040910312610339576020825192015190565b6144b481516115b1565b50906144c760208201516003840161323f565b50916144d96109b86109a58554611ec2565b9060408351926020850151906144f860e087015160608801519061448a565b608087015160a088015185517f9d61ab6e00000000000000000000000000000000000000000000000000000000815260048101989098526024880194909452604487019190915260648601526084850191909152839060a49082905afa8015610a4b575f925f916149c4575b50918261271082116149ba575b612710106149b0575b61459c6109a561459360e087015160608801519061448a565b60068801611eda565b926145ae6125388360018901546132c5565b936145c46109b86004546001600160a01b031690565b803b156103395760405163965af6c760e01b81526001600160a01b038316600482015260248101969096525f908690604490829084905af1908115610a4b576002956147279261499c575b5060208861465f6125388661463a8c61463f6125388c61463a604060c08601519501948551906132ec565b6132c5565b9c866146508f6009819a01546134e1565b600982015501549051906132ec565b9661466e8860088d01546134e1565b60088c0155600a8b01546001600160a01b031688858261498d575090505f8115614984575b5f80809381936001600160a01b038a1690f1505b6146cd6146bf6109b86004546001600160a01b031690565b91546001600160601b031690565b5f6040518097819582947f664bffc300000000000000000000000000000000000000000000000000000000845289600485016001600160601b036040929594936001600160a01b0360608401971683521660208201520152565b03925af1918215610a4b577fa90d30adac7f21a7def444f0fe0a60bdf16d7e8415973dd09bf869db8f94d58e936001600160a01b03936147bf925f91614965575b5015614948575b88519660208a01519861478c600a8d01546001600160a01b031690565b60408051998a5260208a01949094529288015260608701526001600160a01b0316608086015291169290819060a0820190565b0390a460e08101516147dc6147d760608401516132af565b613214565b146147e5575050565b6147f860c0820151600984015490613232565b61480b6002840154600885015490613232565b8115918215809361493f575b614823575b5050505050565b7f6cecfd3ec56289ccb16e30eb194f9a87dfdc12630b9abbc31fc69af5a0b0eaf492614913575b81801580156148a9575b505061489c614874600a602087519701519701546001600160a01b031690565b604051938493849160409194936001600160a01b039160608501968552602085015216910152565b0390a35f8080808061481c565b600a8701546001600160a01b0316806148f557505f80809381936148da6109b86109b885546001600160a01b031690565b9083906148ec575bf1505b815f614854565b506108fc6148e2565b5f5461490d9392506001600160a01b03165b9061500d565b506148e5565b614939816149296002546001600160a01b031690565b5f546001600160a01b0316614907565b5061484a565b50811515614817565b61495f888461412a6002546001600160a01b031690565b5061476f565b61497e915060203d602011610a4457610a368183610559565b5f614768565b506108fc614693565b6149969261500d565b506146a7565b80611e235f6149aa93610559565b5f61460f565b612710925061457a565b6127109150614571565b90506149e991925060403d6040116149f2575b6149e18183610559565b810190614494565b9190915f614564565b503d6149d7565b90816060910312610339578051916040602083015192015190565b7f80000000000000000000000000000000000000000000000000000000000000008114612b74575f0390565b614a4a81516115b1565b50614a5e602083019160038351910161323f565b5090614a706109b86109a58454611ec2565b8351825160e086018051608088015160a08901516040517f149a5dc0000000000000000000000000000000000000000000000000000000008152600481019690965260248601949094526044850191909152606484015260848301919091529094919060208660a481855afa958615610a4b575f96614fec575b506127108611614fe2575b614b0961253860018701546135df89613222565b614b1a6109a5835160068901611eda565b614b2f6109b86004546001600160a01b031690565b803b156103395760405163965af6c760e01b81526001600160a01b038316600482015260248101849052905f908290604490829084905af18015610a4b57614fce575b505f6060614c0e614b9d614b8a875160078d016138c0565b90546001600160601b039160031b1c1690565b94614bb36109b86004546001600160a01b031690565b906040519485809481937f771a27cb0000000000000000000000000000000000000000000000000000000083528a8a600485016001600160601b036040929594936001600160a01b0360608401971683521660208201520152565b03925af1948515610a4b5788955f905f935f91614f97575b508960c08a019c8d614c398482516134e1565b90527fa90d30adac7f21a7def444f0fe0a60bdf16d7e8415973dd09bf869db8f94d58e600a614c6b8d51945195614a14565b9b019a614c7f8c546001600160a01b031690565b6040805185815260208101959095528401919091525f60608401526001600160a01b03908116608084015288169160a090a415908115614f13575b5015614e6357509050614cd86109b86004546001600160a01b031690565b803b15610339576040517faa9ebfb70000000000000000000000000000000000000000000000000000000081526001600160a01b039290921660048301525f908290602490829084905af18015610a4b57614e4f575b505b51614d3e6060840151613214565b1480614e43575b614d52575b505050505190565b7f6cecfd3ec56289ccb16e30eb194f9a87dfdc12630b9abbc31fc69af5a0b0eaf491614d8582546001600160a01b031690565b6001600160a01b038116614e1d57505f808080614daf6109b86109b883546001600160a01b031690565b60028a015490828215614e14575bf1505b614de8614dd56002546001600160a01b031690565b5f546001600160a01b031688519161500d565b5051925193614e086148746002885193015493546001600160a01b031690565b0390a35f808080614d4a565b506108fc614dbd565b614e3d90614e325f546001600160a01b031690565b60028801549161500d565b50614dc0565b50604082015115614d45565b80611e235f614e5d93610559565b5f614d2e565b6002614e6e84610ddf565b50015411614e7e575b5050614d30565b614e936109b86004546001600160a01b031690565b91823b15610339576040517f9d5608670000000000000000000000000000000000000000000000000000000081526001600160a01b039290921660048301526001600160601b03166024820152905f908290604490829084905af18015610a4b57614eff575b80614e77565b80611e235f614f0d93610559565b5f614ef9565b8751895187516040517fba66fde70000000000000000000000000000000000000000000000000000000081526004810193909352602483019190915260448201529150602090829060649082905afa908115610a4b575f91614f78575b50155f614cba565b614f91915060203d602011610a4457610a368183610559565b5f614f70565b915050614fbd91925060603d606011614fc7575b614fb58183610559565b8101906149f9565b929190925f614c26565b503d614fab565b80611e235f614fdc93610559565b5f614b72565b6127109550614af5565b61500691965060203d60201161109e5761108f8183610559565b945f614aea565b6040517fa9059cbb00000000000000000000000000000000000000000000000000000000602082019081526001600160a01b0393841660248301526044808301959095529381525f9384939091849190615068606482610559565b5193165af16150756134fd565b8161507e575090565b805180159250821561508f57505090565b6112639250602080918301019101613267565b6001600160a01b035f5416330361038957565b600754600160401b8110156105545760018101600755600754811015610dfb5760075f52600e60205f20910201905f90565b90919392936150f583615331565b92905061510d6124a561249e85600a61248f87610ddf565b61265d576151d290600a600754986151236150b5565b503360601b6bffffffffffffffffffffffff19166001600160601b038716178155426002820155906151ac612538615173600361516b6151656109a58d611ec2565b9a610ddf565b50950161391b565b50936001600160a01b0387166152be5761519260048201545b856132ec565b99600386019a8b55855560036002820154910154906132c5565b6001830155600282015501906001600160a01b03166001600160a01b0319825416179055565b6151e76109b86004546001600160a01b031690565b90813b156103395760405163d09f392d60e01b8152600481018890525f6024820181905290928390604490829084905af1918215610a4b576001600160a01b03926152aa575b5016905490803b156103395761525e935f8094604051968795869485936302dbb79560e61b85528c6004860161393c565b03925af18015610a4b57615296575b5033827f141dfc18aa6a56fc816f44f0e9e2f1ebc92b15ab167770e17db5b084c10ed9955f80a3565b80611e235f6152a493610559565b5f61526d565b80611e235f6152b893610559565b5f61522d565b6151926152cf6004830154896132fb565b61518c565b905f6001600160a01b03819594829582604051928160208501977f23b872dd000000000000000000000000000000000000000000000000000000008952166024850152166044830152606482015260648152615068608482610559565b80516040116153ac5760208101519160606040830151920151906001600160601b038416801590811561539f575b50615396575b821561538d575b81158015615381575b61537b57565b60019150565b50600654821015615375565b6003925061536c565b60019350615365565b905060055411155f61535f565b50600190600390600190565b600211156115eb57565b6001906153ce816153b8565b1461058b57637c84af5160e01b5f5260045ffd5b6001906153ee816153b8565b1461058b57630caac6b360e31b5f5260045ffd5b60019061540e816153b8565b1461058b57630f323ed960e11b5f5260045ffd5b60019061542e816153b8565b1461058b5763e45e13a360e01b5f5260045ffd5b60019061544e816153b8565b146155475761545c81613fa6565b600281146155385761546d81613fa6565b600381146155295761547e81613fa6565b600481146155015761548f81613fa6565b600581146154f2576154a081613fa6565b600681146154e357806154b4600992613fa6565b146154bb57565b7ff95e58bc000000000000000000000000000000000000000000000000000000005f5260045ffd5b630caac6b360e31b5f5260045ffd5b637c84af5160e01b5f5260045ffd5b7fec8e8768000000000000000000000000000000000000000000000000000000005f5260045ffd5b63e45e13a360e01b5f5260045ffd5b630f323ed960e11b5f5260045ffd5b5056fea26469706673582212209d8693ceca011df52e9dd63f6056bbcd764f392dc1976d1654c7a6599b67d72c64736f6c634300081e0033f0c57e16840df040f15088dc2f81fe391c3923bec73e23a9662efc9c229c6a0e",
  "devdoc": {
    "errors": {
      "AlreadyInitialized()": [
        {
          "details": "The contract is already initialized."
        }
      ],
      "NotInitializing()": [
        {
          "details": "The contract is not initializing."
        }
      ]
    },
    "events": {
      "AcceptedFeeToken(address,bool)": {
        "params": {
          "_accepted": "Whether the token is accepted or not.",
          "_token": "The ERC20 token."
        }
      },
      "DisputeCreation(uint256,address)": {
        "params": {
          "_arbitrable": "The contract which created the dispute.",
          "_disputeID": "The identifier of the dispute in the Arbitrator contract."
        }
      },
      "Initialized(uint64)": {
        "details": "Triggered when the contract has been initialized or reinitialized."
      },
      "NewCurrencyRate(address,uint64,uint8)": {
        "params": {
          "_feeToken": "The ERC20 token.",
          "_rateDecimals": "The new decimals of the fee token rate.",
          "_rateInEth": "The new rate of the fee token in ETH."
        }
      },
      "Ruling(address,uint256,uint256)": {
        "params": {
          "_arbitrable": "The arbitrable receiving the ruling.",
          "_disputeID": "The identifier of the dispute in the Arbitrator contract.",
          "_ruling": "The ruling which was given."
        }
      },
      "Upgraded(address)": {
        "params": {
          "newImplementation": "Address of the new implementation the proxy is now forwarding calls to."
        }
      }
    },
    "kind": "dev",
    "methods": {
      "addNewDisputeKit(address)": {
        "params": {
          "_disputeKitAddress": "The address of the dispute kit contract."
        }
      },
      "appeal(uint256,uint256,bytes)": {
        "details": "Access restricted to the Dispute Kit for this `disputeID`.",
        "params": {
          "_disputeID": "The ID of the dispute.",
          "_extraData": "Extradata for the dispute. Can be required during court jump.",
          "_numberOfChoices": "Number of choices for the dispute. Can be required during court jump."
        }
      },
      "appealCost(uint256)": {
        "params": {
          "_disputeID": "The ID of the dispute."
        },
        "returns": {
          "cost": "The appeal cost."
        }
      },
      "appealPeriod(uint256)": {
        "params": {
          "_disputeID": "The ID of the dispute."
        },
        "returns": {
          "end": "The end of the appeal period.",
          "start": "The start of the appeal period."
        }
      },
      "arbitrationCost(bytes)": {
        "details": "It is recommended not to increase it often, as it can be highly time and gas consuming for the arbitrated contracts to cope with fee augmentation.",
        "params": {
          "_extraData": "Additional info about the dispute. We use it to pass the ID of the dispute's court (first 32 bytes), the minimum number of jurors required (next 32 bytes) and the ID of the specific dispute kit (last 32 bytes)."
        },
        "returns": {
          "cost": "The arbitration cost in ETH."
        }
      },
      "arbitrationCost(bytes,address)": {
        "details": "It is recommended not to increase it often, as it can be highly time and gas consuming for the arbitrated contracts to cope with fee augmentation.",
        "params": {
          "_extraData": "Additional info about the dispute. We use it to pass the ID of the dispute's court (first 32 bytes), the minimum number of jurors required (next 32 bytes) and the ID of the specific dispute kit (last 32 bytes).",
          "_feeToken": "The ERC20 token used to pay fees."
        },
        "returns": {
          "cost": "The arbitration cost in `_feeToken`."
        }
      },
      "changeAcceptedFeeTokens(address,bool)": {
        "params": {
          "_accepted": "Whether the token is supported or not as a method of fee payment.",
          "_feeToken": "The fee token."
        }
      },
      "changeCurrencyRates(address,uint64,uint8)": {
        "params": {
          "_feeToken": "The fee token.",
          "_rateDecimals": "The new decimals of the fee token rate.",
          "_rateInEth": "The new rate of the fee token in ETH."
        }
      },
      "changeInstructor(address)": {
        "params": {
          "_instructor": "The new value for the `instructor` storage variable."
        }
      },
      "changeJurorProsecutionModule(address)": {
        "params": {
          "_jurorProsecutionModule": "The new value for the `jurorProsecutionModule` storage variable."
        }
      },
      "changeOwner(address)": {
        "params": {
          "_owner": "The new value for the `owner` storage variable."
        }
      },
      "changePinakion(address)": {
        "params": {
          "_pinakion": "The new value for the `pinakion` storage variable."
        }
      },
      "changeSortitionModule(address)": {
        "params": {
          "_sortitionModule": "The new value for the `sortitionModule` storage variable."
        }
      },
      "constructor": {
        "custom:oz-upgrades-unsafe-allow": "constructor"
      },
      "createCourt(uint96,bool,uint256,uint256,uint256,uint256,uint256[4],uint256[])": {
        "params": {
          "_alpha": "The `alpha` property value of the court.",
          "_feeForJuror": "The `feeForJuror` property value of the court.",
          "_hiddenVotes": "The `hiddenVotes` property value of the court.",
          "_jurorsForCourtJump": "The `jurorsForCourtJump` property value of the court.",
          "_minStake": "The `minStake` property value of the court.",
          "_parent": "The `parent` property value of the court.",
          "_supportedDisputeKits": "Indexes of dispute kits that this court will support.",
          "_timesPerPeriod": "The `timesPerPeriod` property value of the court."
        }
      },
      "createDispute(uint256,bytes)": {
        "details": "Must be called by the arbitrable contract and pay at least `arbitrationCost(_extraData)` in ETH.",
        "params": {
          "_extraData": "Additional info about the dispute. We use it to pass the ID of the dispute's court (first 32 bytes), the minimum number of jurors required (next 32 bytes) and the ID of the specific dispute kit (last 32 bytes).",
          "_numberOfChoices": "The number of choices the arbitrator can choose from in this dispute."
        },
        "returns": {
          "disputeID": "The identifier of the dispute created."
        }
      },
      "createDispute(uint256,bytes,address,uint256)": {
        "details": "Must be called by the arbitrable contract and pay at least `arbitrationCost(_extraData)` in the supported ERC20 token.",
        "params": {
          "_extraData": "Additional info about the dispute. We use it to pass the ID of the dispute's court (first 32 bytes), the minimum number of jurors required (next 32 bytes) and the ID of the specific dispute kit (last 32 bytes).",
          "_feeAmount": "Amount of the ERC20 token used to pay fees.",
          "_feeToken": "The ERC20 token used to pay fees.",
          "_numberOfChoices": "The number of choices the arbitrator can choose from in this dispute."
        },
        "returns": {
          "disputeID": "The identifier of the dispute created."
        }
      },
      "currentRuling(uint256)": {
        "params": {
          "_disputeID": "The ID of the dispute."
        },
        "returns": {
          "overridden": "Whether the ruling was overridden by appeal funding or not.",
          "ruling": "The current ruling.",
          "tied": "Whether it's a tie or not."
        }
      },
      "draw(uint256,address)": {
        "params": {
          "_disputeID": "The ID of the dispute.",
          "_juror": "The address of the juror to draw."
        }
      },
      "enableDisputeKits(uint96,uint256[],bool)": {
        "params": {
          "_courtID": "The ID of the court.",
          "_disputeKitIDs": "The IDs of dispute kits which support should be added/removed.",
          "_enable": "Whether add or remove the dispute kits from the court."
        }
      },
      "execute(uint256,uint256,uint256)": {
        "params": {
          "_disputeID": "The ID of the dispute.",
          "_iterations": "The number of iterations to run.",
          "_round": "The appeal round."
        }
      },
      "executeOwnerProposal(address,uint256,bytes)": {
        "params": {
          "_amount": "The value sent with the call.",
          "_data": "The data sent with the call.",
          "_destination": "The destination of the call."
        }
      },
      "executeRuling(uint256)": {
        "params": {
          "_disputeID": "The ID of the dispute."
        }
      },
      "getNumberOfRounds(uint256)": {
        "params": {
          "_disputeID": "The ID of the dispute."
        },
        "returns": {
          "_0": "The number of rounds."
        }
      },
      "getNumberOfVotes(uint256)": {
        "params": {
          "_disputeID": "The ID of the dispute."
        }
      },
      "getPnkAtStakePerJuror(uint256,uint256)": {
        "params": {
          "_disputeID": "The ID of the dispute.",
          "_round": "The round to get the info for."
        },
        "returns": {
          "_0": "pnkAtStakePerJuror The PNK at stake per juror."
        }
      },
      "getRoundInfo(uint256,uint256)": {
        "details": "This function must not be called from a non-view function because it returns a dynamic array which might be very large, theoretically exceeding the block gas limit.",
        "params": {
          "_disputeID": "The ID of the dispute.",
          "_round": "The round to get the info for."
        },
        "returns": {
          "_0": "round The round info."
        }
      },
      "getTimesPerPeriod(uint96)": {
        "params": {
          "_courtID": "The ID of the court to get the times from."
        },
        "returns": {
          "timesPerPeriod": "The timesPerPeriod array for the given court."
        }
      },
      "initialize(address,address,address,address,address,bool,uint256[4],uint256[4],address)": {
        "params": {
          "_courtParameters": "Numeric parameters of General court (minStake, alpha, feeForJuror and jurorsForCourtJump respectively).",
          "_disputeKit": "The address of the default dispute kit.",
          "_hiddenVotes": "The `hiddenVotes` property value of the general court.",
          "_instructor": "The address of the instructor.",
          "_jurorProsecutionModule": "The address of the juror prosecution module.",
          "_owner": "The owner's address.",
          "_pinakion": "The address of the token contract.",
          "_sortitionModuleAddress": "The sortition module responsible for sortition of the jurors.",
          "_timesPerPeriod": "The `timesPerPeriod` property value of the general court."
        }
      },
      "isDisputeKitJumping(uint256)": {
        "params": {
          "_disputeID": "The ID of the dispute."
        },
        "returns": {
          "_0": "Whether DK will be switched or not."
        }
      },
      "isSupported(uint96,uint256)": {
        "params": {
          "_courtID": "The ID of the court to check the support for.",
          "_disputeKitID": "The ID of the dispute kit to check the support for."
        },
        "returns": {
          "_0": "Whether the dispute kit is supported or not."
        }
      },
      "passPeriod(uint256)": {
        "params": {
          "_disputeID": "The ID of the dispute."
        }
      },
      "proxiableUUID()": {
        "details": "IMPORTANT: A proxy pointing at a proxiable contract should not be considered proxiable itself, because this risks bricking a proxy that upgrades to it, by delegating to itself until out of gas. Thus it is critical that this function revert if invoked through a proxy. This is guaranteed by the if statement."
      },
      "setStake(uint96,uint256)": {
        "params": {
          "_courtID": "The ID of the court.",
          "_newStake": "The new stake. Note that the existing delayed stake will be nullified as non-relevant."
        }
      },
      "setStakeBySortitionModule(address,uint96,uint256)": {
        "params": {
          "_account": "The account whose stake is being set.",
          "_courtID": "The ID of the court.",
          "_newStake": "The new stake."
        }
      },
      "transferBySortitionModule(address,uint256)": {
        "params": {
          "_account": "The account of the juror whose PNK to transfer.",
          "_amount": "The amount to transfer."
        }
      },
      "upgradeToAndCall(address,bytes)": {
        "details": "Reverts if the execution is not performed via delegatecall or the execution context is not of a proxy with an ERC1967-compliant implementation pointing to self.",
        "params": {
          "data": "Data used in a delegate call to `newImplementation` if non-empty. This will typically be an encoded function call, and allows initializing the storage of the proxy like a Solidity constructor.",
          "newImplementation": "Address of the new implementation contract."
        }
      }
    },
    "stateVariables": {
      "version": {
        "return": "Version string.",
        "returns": {
          "_0": "Version string."
        }
      }
    },
    "title": "KlerosCoreUniversity",
    "version": 1
  },
  "userdoc": {
    "errors": {
      "FailedDelegateCall()": [
        {
          "notice": "Failed Delegated call"
        }
      ],
      "InvalidImplementation(address)": [
        {
          "notice": "The `implementation` is not UUPS-compliant"
        }
      ],
      "UUPSUnauthorizedCallContext()": [
        {
          "notice": "The call is from an unauthorized context."
        }
      ],
      "UUPSUnsupportedProxiableUUID(bytes32)": [
        {
          "notice": "The storage `slot` is unsupported as a UUID."
        }
      ]
    },
    "events": {
      "AcceptedFeeToken(address,bool)": {
        "notice": "To be emitted when an ERC20 token is added or removed as a method to pay fees."
      },
      "DisputeCreation(uint256,address)": {
        "notice": "To be emitted when a dispute is created."
      },
      "NewCurrencyRate(address,uint64,uint8)": {
        "notice": "To be emitted when the fee for a particular ERC20 token is updated."
      },
      "Ruling(address,uint256,uint256)": {
        "notice": "To be raised when a ruling is given."
      },
      "Upgraded(address)": {
        "notice": "Emitted when the `implementation` has been successfully upgraded."
      }
    },
    "kind": "user",
    "methods": {
      "addNewDisputeKit(address)": {
        "notice": "Add a new supported dispute kit module to the court."
      },
      "appeal(uint256,uint256,bytes)": {
        "notice": "Appeals the ruling of a specified dispute."
      },
      "appealCost(uint256)": {
        "notice": "Gets the cost of appealing a specified dispute."
      },
      "appealPeriod(uint256)": {
        "notice": "Gets the start and the end of a specified dispute's current appeal period."
      },
      "arbitrationCost(bytes)": {
        "notice": "Compute the cost of arbitration denominated in the native currency, typically ETH."
      },
      "arbitrationCost(bytes,address)": {
        "notice": "Compute the cost of arbitration denominated in `_feeToken`."
      },
      "changeAcceptedFeeTokens(address,bool)": {
        "notice": "Changes the supported fee tokens."
      },
      "changeCurrencyRates(address,uint64,uint8)": {
        "notice": "Changes the currency rate of a fee token."
      },
      "changeInstructor(address)": {
        "notice": "Changes the `instructor` storage variable."
      },
      "changeJurorProsecutionModule(address)": {
        "notice": "Changes the `jurorProsecutionModule` storage variable."
      },
      "changeOwner(address)": {
        "notice": "Changes the `owner` storage variable."
      },
      "changePinakion(address)": {
        "notice": "Changes the `pinakion` storage variable."
      },
      "changeSortitionModule(address)": {
        "notice": "Changes the `_sortitionModule` storage variable. Note that the new module should be initialized for all courts."
      },
      "createCourt(uint96,bool,uint256,uint256,uint256,uint256,uint256[4],uint256[])": {
        "notice": "Creates a court under a specified parent court."
      },
      "createDispute(uint256,bytes)": {
        "notice": "Create a dispute and pay for the fees in the native currency, typically ETH."
      },
      "createDispute(uint256,bytes,address,uint256)": {
        "notice": "Create a dispute and pay for the fees in a supported ERC20 token."
      },
      "currentRuling(uint256)": {
        "notice": "Gets the current ruling of a specified dispute."
      },
      "draw(uint256,address)": {
        "notice": "Draws one juror for the dispute until the number votes paid for is reached."
      },
      "enableDisputeKits(uint96,uint256[],bool)": {
        "notice": "Adds/removes court's support for specified dispute kits."
      },
      "execute(uint256,uint256,uint256)": {
        "notice": "Distribute the PNKs at stake and the dispute fees for the specific round of the dispute. Can be called in parts."
      },
      "executeOwnerProposal(address,uint256,bytes)": {
        "notice": "Allows the owner to call anything on behalf of the contract."
      },
      "executeRuling(uint256)": {
        "notice": "Executes a specified dispute's ruling."
      },
      "getNumberOfRounds(uint256)": {
        "notice": "Gets the number of rounds for a specified dispute."
      },
      "getNumberOfVotes(uint256)": {
        "notice": "Gets the number of votes permitted for the specified dispute in the latest round."
      },
      "getPnkAtStakePerJuror(uint256,uint256)": {
        "notice": "Gets the PNK at stake per juror for a specified dispute and round."
      },
      "getRoundInfo(uint256,uint256)": {
        "notice": "Gets the round info for a specified dispute and round."
      },
      "getTimesPerPeriod(uint96)": {
        "notice": "Gets the timesPerPeriod array for a given court."
      },
      "initialize(address,address,address,address,address,bool,uint256[4],uint256[4],address)": {
        "notice": "Initializer (constructor equivalent for upgradable contracts)."
      },
      "isDisputeKitJumping(uint256)": {
        "notice": "Returns true if the dispute kit will be switched to a parent DK."
      },
      "isSupported(uint96,uint256)": {
        "notice": "Checks if a given dispute kit is supported by a given court."
      },
      "passPeriod(uint256)": {
        "notice": "Passes the period of a specified dispute."
      },
      "proxiableUUID()": {
        "notice": "Implementation of the ERC1822 `proxiableUUID` function. This returns the storage slot used by the implementation. It is used to validate the implementation's compatibility when performing an upgrade."
      },
      "setStake(uint96,uint256)": {
        "notice": "Sets the caller's stake in a court."
      },
      "setStakeBySortitionModule(address,uint96,uint256)": {
        "notice": "Sets the stake of a specified account in a court, typically to apply a delayed stake or unstake inactive jurors."
      },
      "transferBySortitionModule(address,uint256)": {
        "notice": "Transfers PNK to the juror by SortitionModule."
      },
      "upgradeToAndCall(address,bytes)": {
        "notice": "Upgrade mechanism including access control and UUPS-compliance."
      },
      "version()": {
        "notice": "Returns the version of the implementation."
      }
    },
    "notice": "Core arbitrator contract for educational purposes.",
    "version": 1
  },
  "storageLayout": {
    "storage": [
      {
        "astId": 26659,
        "contract": "src/arbitration/university/KlerosCoreUniversity.sol:KlerosCoreUniversity",
        "label": "owner",
        "offset": 0,
        "slot": "0",
        "type": "t_address"
      },
      {
        "astId": 26661,
        "contract": "src/arbitration/university/KlerosCoreUniversity.sol:KlerosCoreUniversity",
        "label": "instructor",
        "offset": 0,
        "slot": "1",
        "type": "t_address"
      },
      {
        "astId": 26664,
        "contract": "src/arbitration/university/KlerosCoreUniversity.sol:KlerosCoreUniversity",
        "label": "pinakion",
        "offset": 0,
        "slot": "2",
        "type": "t_contract(IERC20)3021"
      },
      {
        "astId": 26666,
        "contract": "src/arbitration/university/KlerosCoreUniversity.sol:KlerosCoreUniversity",
        "label": "jurorProsecutionModule",
        "offset": 0,
        "slot": "3",
        "type": "t_address"
      },
      {
        "astId": 26669,
        "contract": "src/arbitration/university/KlerosCoreUniversity.sol:KlerosCoreUniversity",
        "label": "sortitionModule",
        "offset": 0,
        "slot": "4",
        "type": "t_contract(ISortitionModuleUniversity)26504"
      },
      {
        "astId": 26673,
        "contract": "src/arbitration/university/KlerosCoreUniversity.sol:KlerosCoreUniversity",
        "label": "courts",
        "offset": 0,
        "slot": "5",
        "type": "t_array(t_struct(Court)26570_storage)dyn_storage"
      },
      {
        "astId": 26677,
        "contract": "src/arbitration/university/KlerosCoreUniversity.sol:KlerosCoreUniversity",
        "label": "disputeKits",
        "offset": 0,
        "slot": "6",
        "type": "t_array(t_contract(IDisputeKit)26251)dyn_storage"
      },
      {
        "astId": 26681,
        "contract": "src/arbitration/university/KlerosCoreUniversity.sol:KlerosCoreUniversity",
        "label": "disputes",
        "offset": 0,
        "slot": "7",
        "type": "t_array(t_struct(Dispute)26591_storage)dyn_storage"
      },
      {
        "astId": 26687,
        "contract": "src/arbitration/university/KlerosCoreUniversity.sol:KlerosCoreUniversity",
        "label": "currencyRates",
        "offset": 0,
        "slot": "8",
        "type": "t_mapping(t_contract(IERC20)3021,t_struct(CurrencyRate)26647_storage)"
      }
    ],
    "types": {
      "t_address": {
        "encoding": "inplace",
        "label": "address",
        "numberOfBytes": "20"
      },
      "t_array(t_address)dyn_storage": {
        "base": "t_address",
        "encoding": "dynamic_array",
        "label": "address[]",
        "numberOfBytes": "32"
      },
      "t_array(t_contract(IDisputeKit)26251)dyn_storage": {
        "base": "t_contract(IDisputeKit)26251",
        "encoding": "dynamic_array",
        "label": "contract IDisputeKit[]",
        "numberOfBytes": "32"
      },
      "t_array(t_struct(Court)26570_storage)dyn_storage": {
        "base": "t_struct(Court)26570_storage",
        "encoding": "dynamic_array",
        "label": "struct KlerosCoreUniversity.Court[]",
        "numberOfBytes": "32"
      },
      "t_array(t_struct(Dispute)26591_storage)dyn_storage": {
        "base": "t_struct(Dispute)26591_storage",
        "encoding": "dynamic_array",
        "label": "struct KlerosCoreUniversity.Dispute[]",
        "numberOfBytes": "32"
      },
      "t_array(t_struct(Round)26623_storage)dyn_storage": {
        "base": "t_struct(Round)26623_storage",
        "encoding": "dynamic_array",
        "label": "struct KlerosCoreUniversity.Round[]",
        "numberOfBytes": "32"
      },
      "t_array(t_uint256)10_storage": {
        "base": "t_uint256",
        "encoding": "inplace",
        "label": "uint256[10]",
        "numberOfBytes": "320"
      },
      "t_array(t_uint256)4_storage": {
        "base": "t_uint256",
        "encoding": "inplace",
        "label": "uint256[4]",
        "numberOfBytes": "128"
      },
      "t_array(t_uint256)dyn_storage": {
        "base": "t_uint256",
        "encoding": "dynamic_array",
        "label": "uint256[]",
        "numberOfBytes": "32"
      },
      "t_array(t_uint96)dyn_storage": {
        "base": "t_uint96",
        "encoding": "dynamic_array",
        "label": "uint96[]",
        "numberOfBytes": "32"
      },
      "t_bool": {
        "encoding": "inplace",
        "label": "bool",
        "numberOfBytes": "1"
      },
      "t_contract(IArbitrableV2)25953": {
        "encoding": "inplace",
        "label": "contract IArbitrableV2",
        "numberOfBytes": "20"
      },
      "t_contract(IDisputeKit)26251": {
        "encoding": "inplace",
        "label": "contract IDisputeKit",
        "numberOfBytes": "20"
      },
      "t_contract(IERC20)3021": {
        "encoding": "inplace",
        "label": "contract IERC20",
        "numberOfBytes": "20"
      },
      "t_contract(ISortitionModuleUniversity)26504": {
        "encoding": "inplace",
        "label": "contract ISortitionModuleUniversity",
        "numberOfBytes": "20"
      },
      "t_enum(Period)26542": {
        "encoding": "inplace",
        "label": "enum KlerosCoreUniversity.Period",
        "numberOfBytes": "1"
      },
      "t_mapping(t_contract(IERC20)3021,t_struct(CurrencyRate)26647_storage)": {
        "encoding": "mapping",
        "key": "t_contract(IERC20)3021",
        "label": "mapping(contract IERC20 => struct KlerosCoreUniversity.CurrencyRate)",
        "numberOfBytes": "32",
        "value": "t_struct(CurrencyRate)26647_storage"
      },
      "t_mapping(t_uint256,t_bool)": {
        "encoding": "mapping",
        "key": "t_uint256",
        "label": "mapping(uint256 => bool)",
        "numberOfBytes": "32",
        "value": "t_bool"
      },
      "t_struct(Court)26570_storage": {
        "encoding": "inplace",
        "label": "struct KlerosCoreUniversity.Court",
        "members": [
          {
            "astId": 26544,
            "contract": "src/arbitration/university/KlerosCoreUniversity.sol:KlerosCoreUniversity",
            "label": "parent",
            "offset": 0,
            "slot": "0",
            "type": "t_uint96"
          },
          {
            "astId": 26546,
            "contract": "src/arbitration/university/KlerosCoreUniversity.sol:KlerosCoreUniversity",
            "label": "hiddenVotes",
            "offset": 12,
            "slot": "0",
            "type": "t_bool"
          },
          {
            "astId": 26549,
            "contract": "src/arbitration/university/KlerosCoreUniversity.sol:KlerosCoreUniversity",
            "label": "children",
            "offset": 0,
            "slot": "1",
            "type": "t_array(t_uint256)dyn_storage"
          },
          {
            "astId": 26551,
            "contract": "src/arbitration/university/KlerosCoreUniversity.sol:KlerosCoreUniversity",
            "label": "minStake",
            "offset": 0,
            "slot": "2",
            "type": "t_uint256"
          },
          {
            "astId": 26553,
            "contract": "src/arbitration/university/KlerosCoreUniversity.sol:KlerosCoreUniversity",
            "label": "alpha",
            "offset": 0,
            "slot": "3",
            "type": "t_uint256"
          },
          {
            "astId": 26555,
            "contract": "src/arbitration/university/KlerosCoreUniversity.sol:KlerosCoreUniversity",
            "label": "feeForJuror",
            "offset": 0,
            "slot": "4",
            "type": "t_uint256"
          },
          {
            "astId": 26557,
            "contract": "src/arbitration/university/KlerosCoreUniversity.sol:KlerosCoreUniversity",
            "label": "jurorsForCourtJump",
            "offset": 0,
            "slot": "5",
            "type": "t_uint256"
          },
          {
            "astId": 26561,
            "contract": "src/arbitration/university/KlerosCoreUniversity.sol:KlerosCoreUniversity",
            "label": "timesPerPeriod",
            "offset": 0,
            "slot": "6",
            "type": "t_array(t_uint256)4_storage"
          },
          {
            "astId": 26565,
            "contract": "src/arbitration/university/KlerosCoreUniversity.sol:KlerosCoreUniversity",
            "label": "supportedDisputeKits",
            "offset": 0,
            "slot": "10",
            "type": "t_mapping(t_uint256,t_bool)"
          },
          {
            "astId": 26569,
            "contract": "src/arbitration/university/KlerosCoreUniversity.sol:KlerosCoreUniversity",
            "label": "__gap",
            "offset": 0,
            "slot": "11",
            "type": "t_array(t_uint256)10_storage"
          }
        ],
        "numberOfBytes": "672"
      },
      "t_struct(CurrencyRate)26647_storage": {
        "encoding": "inplace",
        "label": "struct KlerosCoreUniversity.CurrencyRate",
        "members": [
          {
            "astId": 26642,
            "contract": "src/arbitration/university/KlerosCoreUniversity.sol:KlerosCoreUniversity",
            "label": "feePaymentAccepted",
            "offset": 0,
            "slot": "0",
            "type": "t_bool"
          },
          {
            "astId": 26644,
            "contract": "src/arbitration/university/KlerosCoreUniversity.sol:KlerosCoreUniversity",
            "label": "rateInEth",
            "offset": 1,
            "slot": "0",
            "type": "t_uint64"
          },
          {
            "astId": 26646,
            "contract": "src/arbitration/university/KlerosCoreUniversity.sol:KlerosCoreUniversity",
            "label": "rateDecimals",
            "offset": 9,
            "slot": "0",
            "type": "t_uint8"
          }
        ],
        "numberOfBytes": "32"
      },
      "t_struct(Dispute)26591_storage": {
        "encoding": "inplace",
        "label": "struct KlerosCoreUniversity.Dispute",
        "members": [
          {
            "astId": 26572,
            "contract": "src/arbitration/university/KlerosCoreUniversity.sol:KlerosCoreUniversity",
            "label": "courtID",
            "offset": 0,
            "slot": "0",
            "type": "t_uint96"
          },
          {
            "astId": 26575,
            "contract": "src/arbitration/university/KlerosCoreUniversity.sol:KlerosCoreUniversity",
            "label": "arbitrated",
            "offset": 12,
            "slot": "0",
            "type": "t_contract(IArbitrableV2)25953"
          },
          {
            "astId": 26578,
            "contract": "src/arbitration/university/KlerosCoreUniversity.sol:KlerosCoreUniversity",
            "label": "period",
            "offset": 0,
            "slot": "1",
            "type": "t_enum(Period)26542"
          },
          {
            "astId": 26580,
            "contract": "src/arbitration/university/KlerosCoreUniversity.sol:KlerosCoreUniversity",
            "label": "ruled",
            "offset": 1,
            "slot": "1",
            "type": "t_bool"
          },
          {
            "astId": 26582,
            "contract": "src/arbitration/university/KlerosCoreUniversity.sol:KlerosCoreUniversity",
            "label": "lastPeriodChange",
            "offset": 0,
            "slot": "2",
            "type": "t_uint256"
          },
          {
            "astId": 26586,
            "contract": "src/arbitration/university/KlerosCoreUniversity.sol:KlerosCoreUniversity",
            "label": "rounds",
            "offset": 0,
            "slot": "3",
            "type": "t_array(t_struct(Round)26623_storage)dyn_storage"
          },
          {
            "astId": 26590,
            "contract": "src/arbitration/university/KlerosCoreUniversity.sol:KlerosCoreUniversity",
            "label": "__gap",
            "offset": 0,
            "slot": "4",
            "type": "t_array(t_uint256)10_storage"
          }
        ],
        "numberOfBytes": "448"
      },
      "t_struct(Round)26623_storage": {
        "encoding": "inplace",
        "label": "struct KlerosCoreUniversity.Round",
        "members": [
          {
            "astId": 26593,
            "contract": "src/arbitration/university/KlerosCoreUniversity.sol:KlerosCoreUniversity",
            "label": "disputeKitID",
            "offset": 0,
            "slot": "0",
            "type": "t_uint256"
          },
          {
            "astId": 26595,
            "contract": "src/arbitration/university/KlerosCoreUniversity.sol:KlerosCoreUniversity",
            "label": "pnkAtStakePerJuror",
            "offset": 0,
            "slot": "1",
            "type": "t_uint256"
          },
          {
            "astId": 26597,
            "contract": "src/arbitration/university/KlerosCoreUniversity.sol:KlerosCoreUniversity",
            "label": "totalFeesForJurors",
            "offset": 0,
            "slot": "2",
            "type": "t_uint256"
          },
          {
            "astId": 26599,
            "contract": "src/arbitration/university/KlerosCoreUniversity.sol:KlerosCoreUniversity",
            "label": "nbVotes",
            "offset": 0,
            "slot": "3",
            "type": "t_uint256"
          },
          {
            "astId": 26601,
            "contract": "src/arbitration/university/KlerosCoreUniversity.sol:KlerosCoreUniversity",
            "label": "repartitions",
            "offset": 0,
            "slot": "4",
            "type": "t_uint256"
          },
          {
            "astId": 26603,
            "contract": "src/arbitration/university/KlerosCoreUniversity.sol:KlerosCoreUniversity",
            "label": "pnkPenalties",
            "offset": 0,
            "slot": "5",
            "type": "t_uint256"
          },
          {
            "astId": 26606,
            "contract": "src/arbitration/university/KlerosCoreUniversity.sol:KlerosCoreUniversity",
            "label": "drawnJurors",
            "offset": 0,
            "slot": "6",
            "type": "t_array(t_address)dyn_storage"
          },
          {
            "astId": 26609,
            "contract": "src/arbitration/university/KlerosCoreUniversity.sol:KlerosCoreUniversity",
            "label": "drawnJurorFromCourtIDs",
            "offset": 0,
            "slot": "7",
            "type": "t_array(t_uint96)dyn_storage"
          },
          {
            "astId": 26611,
            "contract": "src/arbitration/university/KlerosCoreUniversity.sol:KlerosCoreUniversity",
            "label": "sumFeeRewardPaid",
            "offset": 0,
            "slot": "8",
            "type": "t_uint256"
          },
          {
            "astId": 26613,
            "contract": "src/arbitration/university/KlerosCoreUniversity.sol:KlerosCoreUniversity",
            "label": "sumPnkRewardPaid",
            "offset": 0,
            "slot": "9",
            "type": "t_uint256"
          },
          {
            "astId": 26616,
            "contract": "src/arbitration/university/KlerosCoreUniversity.sol:KlerosCoreUniversity",
            "label": "feeToken",
            "offset": 0,
            "slot": "10",
            "type": "t_contract(IERC20)3021"
          },
          {
            "astId": 26618,
            "contract": "src/arbitration/university/KlerosCoreUniversity.sol:KlerosCoreUniversity",
            "label": "drawIterations",
            "offset": 0,
            "slot": "11",
            "type": "t_uint256"
          },
          {
            "astId": 26622,
            "contract": "src/arbitration/university/KlerosCoreUniversity.sol:KlerosCoreUniversity",
            "label": "__gap",
            "offset": 0,
            "slot": "12",
            "type": "t_array(t_uint256)10_storage"
          }
        ],
        "numberOfBytes": "704"
      },
      "t_uint256": {
        "encoding": "inplace",
        "label": "uint256",
        "numberOfBytes": "32"
      },
      "t_uint64": {
        "encoding": "inplace",
        "label": "uint64",
        "numberOfBytes": "8"
      },
      "t_uint8": {
        "encoding": "inplace",
        "label": "uint8",
        "numberOfBytes": "1"
      },
      "t_uint96": {
        "encoding": "inplace",
        "label": "uint96",
        "numberOfBytes": "12"
      }
    }
  }
}