{
  "address": "0xb8bF3A32730cEc3B0a8516b87246ceE24ca2eaCF",
  "abi": [
    {
      "inputs": [],
      "stateMutability": "nonpayable",
      "type": "constructor"
    },
    {
      "inputs": [],
      "name": "AlreadyInitialized",
      "type": "error"
    },
    {
      "inputs": [],
      "name": "AppealFeesNotEnough",
      "type": "error"
    },
    {
      "inputs": [],
      "name": "ArbitrationFeesNotEnough",
      "type": "error"
    },
    {
      "inputs": [],
      "name": "DisputeNotAppealable",
      "type": "error"
    },
    {
      "inputs": [],
      "name": "FailedDelegateCall",
      "type": "error"
    },
    {
      "inputs": [],
      "name": "GovernorOnly",
      "type": "error"
    },
    {
      "inputs": [],
      "name": "GovernorOrInstructorOnly",
      "type": "error"
    },
    {
      "inputs": [],
      "name": "InvalidForkingCourtAsParent",
      "type": "error"
    },
    {
      "inputs": [
        {
          "internalType": "address",
          "name": "implementation",
          "type": "address"
        }
      ],
      "name": "InvalidImplementation",
      "type": "error"
    },
    {
      "inputs": [],
      "name": "NoRulerSet",
      "type": "error"
    },
    {
      "inputs": [],
      "name": "NotInitializing",
      "type": "error"
    },
    {
      "inputs": [],
      "name": "RulerOnly",
      "type": "error"
    },
    {
      "inputs": [],
      "name": "RulingAlreadyExecuted",
      "type": "error"
    },
    {
      "inputs": [],
      "name": "RulingModeNotSet",
      "type": "error"
    },
    {
      "inputs": [],
      "name": "TokenNotAccepted",
      "type": "error"
    },
    {
      "inputs": [],
      "name": "TransferFailed",
      "type": "error"
    },
    {
      "inputs": [],
      "name": "UUPSUnauthorizedCallContext",
      "type": "error"
    },
    {
      "inputs": [
        {
          "internalType": "bytes32",
          "name": "slot",
          "type": "bytes32"
        }
      ],
      "name": "UUPSUnsupportedProxiableUUID",
      "type": "error"
    },
    {
      "inputs": [],
      "name": "UnsuccessfulCall",
      "type": "error"
    },
    {
      "anonymous": false,
      "inputs": [
        {
          "indexed": true,
          "internalType": "contract IERC20",
          "name": "_token",
          "type": "address"
        },
        {
          "indexed": true,
          "internalType": "bool",
          "name": "_accepted",
          "type": "bool"
        }
      ],
      "name": "AcceptedFeeToken",
      "type": "event"
    },
    {
      "anonymous": false,
      "inputs": [
        {
          "indexed": true,
          "internalType": "uint256",
          "name": "_disputeID",
          "type": "uint256"
        },
        {
          "indexed": true,
          "internalType": "contract IArbitrableV2",
          "name": "_arbitrable",
          "type": "address"
        }
      ],
      "name": "AppealDecision",
      "type": "event"
    },
    {
      "anonymous": false,
      "inputs": [
        {
          "indexed": true,
          "internalType": "uint256",
          "name": "_disputeID",
          "type": "uint256"
        },
        {
          "indexed": true,
          "internalType": "contract IArbitrableV2",
          "name": "_arbitrable",
          "type": "address"
        }
      ],
      "name": "AppealPossible",
      "type": "event"
    },
    {
      "anonymous": false,
      "inputs": [
        {
          "indexed": true,
          "internalType": "contract IArbitrableV2",
          "name": "_arbitrable",
          "type": "address"
        },
        {
          "indexed": true,
          "internalType": "enum KlerosCoreRuler.RulingMode",
          "name": "mode",
          "type": "uint8"
        },
        {
          "indexed": true,
          "internalType": "uint256",
          "name": "_disputeID",
          "type": "uint256"
        },
        {
          "indexed": false,
          "internalType": "uint256",
          "name": "_ruling",
          "type": "uint256"
        },
        {
          "indexed": false,
          "internalType": "bool",
          "name": "tied",
          "type": "bool"
        },
        {
          "indexed": false,
          "internalType": "bool",
          "name": "overridden",
          "type": "bool"
        }
      ],
      "name": "AutoRuled",
      "type": "event"
    },
    {
      "anonymous": false,
      "inputs": [
        {
          "indexed": true,
          "internalType": "uint256",
          "name": "_courtID",
          "type": "uint256"
        },
        {
          "indexed": true,
          "internalType": "uint96",
          "name": "_parent",
          "type": "uint96"
        },
        {
          "indexed": false,
          "internalType": "bool",
          "name": "_hiddenVotes",
          "type": "bool"
        },
        {
          "indexed": false,
          "internalType": "uint256",
          "name": "_minStake",
          "type": "uint256"
        },
        {
          "indexed": false,
          "internalType": "uint256",
          "name": "_alpha",
          "type": "uint256"
        },
        {
          "indexed": false,
          "internalType": "uint256",
          "name": "_feeForJuror",
          "type": "uint256"
        },
        {
          "indexed": false,
          "internalType": "uint256",
          "name": "_jurorsForCourtJump",
          "type": "uint256"
        },
        {
          "indexed": false,
          "internalType": "uint256[4]",
          "name": "_timesPerPeriod",
          "type": "uint256[4]"
        }
      ],
      "name": "CourtCreated",
      "type": "event"
    },
    {
      "anonymous": false,
      "inputs": [
        {
          "indexed": true,
          "internalType": "uint256",
          "name": "_disputeID",
          "type": "uint256"
        },
        {
          "indexed": true,
          "internalType": "uint256",
          "name": "_roundID",
          "type": "uint256"
        },
        {
          "indexed": true,
          "internalType": "uint96",
          "name": "_fromCourtID",
          "type": "uint96"
        },
        {
          "indexed": false,
          "internalType": "uint96",
          "name": "_toCourtID",
          "type": "uint96"
        }
      ],
      "name": "CourtJump",
      "type": "event"
    },
    {
      "anonymous": false,
      "inputs": [
        {
          "indexed": true,
          "internalType": "uint96",
          "name": "_courtID",
          "type": "uint96"
        },
        {
          "indexed": false,
          "internalType": "bool",
          "name": "_hiddenVotes",
          "type": "bool"
        },
        {
          "indexed": false,
          "internalType": "uint256",
          "name": "_minStake",
          "type": "uint256"
        },
        {
          "indexed": false,
          "internalType": "uint256",
          "name": "_alpha",
          "type": "uint256"
        },
        {
          "indexed": false,
          "internalType": "uint256",
          "name": "_feeForJuror",
          "type": "uint256"
        },
        {
          "indexed": false,
          "internalType": "uint256",
          "name": "_jurorsForCourtJump",
          "type": "uint256"
        },
        {
          "indexed": false,
          "internalType": "uint256[4]",
          "name": "_timesPerPeriod",
          "type": "uint256[4]"
        }
      ],
      "name": "CourtModified",
      "type": "event"
    },
    {
      "anonymous": false,
      "inputs": [
        {
          "indexed": true,
          "internalType": "uint256",
          "name": "_disputeID",
          "type": "uint256"
        },
        {
          "indexed": true,
          "internalType": "contract IArbitrableV2",
          "name": "_arbitrable",
          "type": "address"
        }
      ],
      "name": "DisputeCreation",
      "type": "event"
    },
    {
      "anonymous": false,
      "inputs": [
        {
          "indexed": false,
          "internalType": "uint64",
          "name": "version",
          "type": "uint64"
        }
      ],
      "name": "Initialized",
      "type": "event"
    },
    {
      "anonymous": false,
      "inputs": [
        {
          "indexed": true,
          "internalType": "uint256",
          "name": "_disputeID",
          "type": "uint256"
        },
        {
          "indexed": true,
          "internalType": "uint256",
          "name": "_roundID",
          "type": "uint256"
        },
        {
          "indexed": false,
          "internalType": "uint256",
          "name": "_pnkAmount",
          "type": "uint256"
        },
        {
          "indexed": false,
          "internalType": "uint256",
          "name": "_feeAmount",
          "type": "uint256"
        },
        {
          "indexed": false,
          "internalType": "contract IERC20",
          "name": "_feeToken",
          "type": "address"
        }
      ],
      "name": "LeftoverRewardSent",
      "type": "event"
    },
    {
      "anonymous": false,
      "inputs": [
        {
          "indexed": true,
          "internalType": "contract IERC20",
          "name": "_feeToken",
          "type": "address"
        },
        {
          "indexed": false,
          "internalType": "uint64",
          "name": "_rateInEth",
          "type": "uint64"
        },
        {
          "indexed": false,
          "internalType": "uint8",
          "name": "_rateDecimals",
          "type": "uint8"
        }
      ],
      "name": "NewCurrencyRate",
      "type": "event"
    },
    {
      "anonymous": false,
      "inputs": [
        {
          "indexed": true,
          "internalType": "uint256",
          "name": "_disputeID",
          "type": "uint256"
        },
        {
          "indexed": false,
          "internalType": "enum KlerosCoreRuler.Period",
          "name": "_period",
          "type": "uint8"
        }
      ],
      "name": "NewPeriod",
      "type": "event"
    },
    {
      "anonymous": false,
      "inputs": [
        {
          "indexed": true,
          "internalType": "contract IArbitrableV2",
          "name": "_arbitrable",
          "type": "address"
        },
        {
          "indexed": true,
          "internalType": "address",
          "name": "_oldRuler",
          "type": "address"
        },
        {
          "indexed": true,
          "internalType": "address",
          "name": "_newRuler",
          "type": "address"
        }
      ],
      "name": "RulerChanged",
      "type": "event"
    },
    {
      "anonymous": false,
      "inputs": [
        {
          "indexed": true,
          "internalType": "contract IArbitrableV2",
          "name": "_arbitrable",
          "type": "address"
        },
        {
          "components": [
            {
              "internalType": "enum KlerosCoreRuler.RulingMode",
              "name": "rulingMode",
              "type": "uint8"
            },
            {
              "internalType": "uint256",
              "name": "presetRuling",
              "type": "uint256"
            },
            {
              "internalType": "bool",
              "name": "presetTied",
              "type": "bool"
            },
            {
              "internalType": "bool",
              "name": "presetOverridden",
              "type": "bool"
            }
          ],
          "indexed": false,
          "internalType": "struct KlerosCoreRuler.RulerSettings",
          "name": "_settings",
          "type": "tuple"
        }
      ],
      "name": "RulerSettingsChanged",
      "type": "event"
    },
    {
      "anonymous": false,
      "inputs": [
        {
          "indexed": true,
          "internalType": "contract IArbitrableV2",
          "name": "_arbitrable",
          "type": "address"
        },
        {
          "indexed": true,
          "internalType": "uint256",
          "name": "_disputeID",
          "type": "uint256"
        },
        {
          "indexed": false,
          "internalType": "uint256",
          "name": "_ruling",
          "type": "uint256"
        }
      ],
      "name": "Ruling",
      "type": "event"
    },
    {
      "anonymous": false,
      "inputs": [
        {
          "indexed": true,
          "internalType": "address",
          "name": "_account",
          "type": "address"
        },
        {
          "indexed": true,
          "internalType": "uint256",
          "name": "_disputeID",
          "type": "uint256"
        },
        {
          "indexed": true,
          "internalType": "uint256",
          "name": "_roundID",
          "type": "uint256"
        },
        {
          "indexed": false,
          "internalType": "uint256",
          "name": "_degreeOfCoherency",
          "type": "uint256"
        },
        {
          "indexed": false,
          "internalType": "int256",
          "name": "_pnkAmount",
          "type": "int256"
        },
        {
          "indexed": false,
          "internalType": "int256",
          "name": "_feeAmount",
          "type": "int256"
        },
        {
          "indexed": false,
          "internalType": "contract IERC20",
          "name": "_feeToken",
          "type": "address"
        }
      ],
      "name": "TokenAndETHShift",
      "type": "event"
    },
    {
      "anonymous": false,
      "inputs": [
        {
          "indexed": true,
          "internalType": "address",
          "name": "newImplementation",
          "type": "address"
        }
      ],
      "name": "Upgraded",
      "type": "event"
    },
    {
      "inputs": [
        {
          "internalType": "uint256",
          "name": "_disputeID",
          "type": "uint256"
        },
        {
          "internalType": "uint256",
          "name": "_numberOfChoices",
          "type": "uint256"
        },
        {
          "internalType": "bytes",
          "name": "",
          "type": "bytes"
        },
        {
          "internalType": "bool",
          "name": "_jump",
          "type": "bool"
        }
      ],
      "name": "appeal",
      "outputs": [],
      "stateMutability": "payable",
      "type": "function"
    },
    {
      "inputs": [
        {
          "internalType": "uint256",
          "name": "_disputeID",
          "type": "uint256"
        },
        {
          "internalType": "bool",
          "name": "_jump",
          "type": "bool"
        }
      ],
      "name": "appealCost",
      "outputs": [
        {
          "internalType": "uint256",
          "name": "cost",
          "type": "uint256"
        }
      ],
      "stateMutability": "view",
      "type": "function"
    },
    {
      "inputs": [
        {
          "internalType": "bytes",
          "name": "_extraData",
          "type": "bytes"
        },
        {
          "internalType": "contract IERC20",
          "name": "_feeToken",
          "type": "address"
        }
      ],
      "name": "arbitrationCost",
      "outputs": [
        {
          "internalType": "uint256",
          "name": "cost",
          "type": "uint256"
        }
      ],
      "stateMutability": "view",
      "type": "function"
    },
    {
      "inputs": [
        {
          "internalType": "bytes",
          "name": "_extraData",
          "type": "bytes"
        }
      ],
      "name": "arbitrationCost",
      "outputs": [
        {
          "internalType": "uint256",
          "name": "cost",
          "type": "uint256"
        }
      ],
      "stateMutability": "view",
      "type": "function"
    },
    {
      "inputs": [
        {
          "internalType": "contract IERC20",
          "name": "_feeToken",
          "type": "address"
        },
        {
          "internalType": "bool",
          "name": "_accepted",
          "type": "bool"
        }
      ],
      "name": "changeAcceptedFeeTokens",
      "outputs": [],
      "stateMutability": "nonpayable",
      "type": "function"
    },
    {
      "inputs": [
        {
          "internalType": "uint96",
          "name": "_courtID",
          "type": "uint96"
        },
        {
          "internalType": "bool",
          "name": "_hiddenVotes",
          "type": "bool"
        },
        {
          "internalType": "uint256",
          "name": "_minStake",
          "type": "uint256"
        },
        {
          "internalType": "uint256",
          "name": "_alpha",
          "type": "uint256"
        },
        {
          "internalType": "uint256",
          "name": "_feeForJuror",
          "type": "uint256"
        },
        {
          "internalType": "uint256",
          "name": "_jurorsForCourtJump",
          "type": "uint256"
        },
        {
          "internalType": "uint256[4]",
          "name": "_timesPerPeriod",
          "type": "uint256[4]"
        }
      ],
      "name": "changeCourtParameters",
      "outputs": [],
      "stateMutability": "nonpayable",
      "type": "function"
    },
    {
      "inputs": [
        {
          "internalType": "contract IERC20",
          "name": "_feeToken",
          "type": "address"
        },
        {
          "internalType": "uint64",
          "name": "_rateInEth",
          "type": "uint64"
        },
        {
          "internalType": "uint8",
          "name": "_rateDecimals",
          "type": "uint8"
        }
      ],
      "name": "changeCurrencyRates",
      "outputs": [],
      "stateMutability": "nonpayable",
      "type": "function"
    },
    {
      "inputs": [
        {
          "internalType": "address payable",
          "name": "_governor",
          "type": "address"
        }
      ],
      "name": "changeGovernor",
      "outputs": [],
      "stateMutability": "nonpayable",
      "type": "function"
    },
    {
      "inputs": [
        {
          "internalType": "contract IERC20",
          "name": "_pinakion",
          "type": "address"
        }
      ],
      "name": "changePinakion",
      "outputs": [],
      "stateMutability": "nonpayable",
      "type": "function"
    },
    {
      "inputs": [
        {
          "internalType": "contract IArbitrableV2",
          "name": "_arbitrable",
          "type": "address"
        },
        {
          "internalType": "address",
          "name": "_newRuler",
          "type": "address"
        }
      ],
      "name": "changeRuler",
      "outputs": [],
      "stateMutability": "nonpayable",
      "type": "function"
    },
    {
      "inputs": [
        {
          "internalType": "contract IArbitrableV2",
          "name": "_arbitrable",
          "type": "address"
        },
        {
          "internalType": "uint256",
          "name": "_presetRuling",
          "type": "uint256"
        },
        {
          "internalType": "bool",
          "name": "_presetTied",
          "type": "bool"
        },
        {
          "internalType": "bool",
          "name": "_presetOverridden",
          "type": "bool"
        }
      ],
      "name": "changeRulingModeToAutomaticPreset",
      "outputs": [],
      "stateMutability": "nonpayable",
      "type": "function"
    },
    {
      "inputs": [
        {
          "internalType": "contract IArbitrableV2",
          "name": "_arbitrable",
          "type": "address"
        }
      ],
      "name": "changeRulingModeToAutomaticRandom",
      "outputs": [],
      "stateMutability": "nonpayable",
      "type": "function"
    },
    {
      "inputs": [
        {
          "internalType": "contract IArbitrableV2",
          "name": "_arbitrable",
          "type": "address"
        }
      ],
      "name": "changeRulingModeToManual",
      "outputs": [],
      "stateMutability": "nonpayable",
      "type": "function"
    },
    {
      "inputs": [
        {
          "internalType": "contract IERC20",
          "name": "_toToken",
          "type": "address"
        },
        {
          "internalType": "uint256",
          "name": "_amountInEth",
          "type": "uint256"
        }
      ],
      "name": "convertEthToTokenAmount",
      "outputs": [
        {
          "internalType": "uint256",
          "name": "",
          "type": "uint256"
        }
      ],
      "stateMutability": "view",
      "type": "function"
    },
    {
      "inputs": [
        {
          "internalType": "uint256",
          "name": "",
          "type": "uint256"
        }
      ],
      "name": "courts",
      "outputs": [
        {
          "internalType": "uint96",
          "name": "parent",
          "type": "uint96"
        },
        {
          "internalType": "bool",
          "name": "hiddenVotes",
          "type": "bool"
        },
        {
          "internalType": "uint256",
          "name": "minStake",
          "type": "uint256"
        },
        {
          "internalType": "uint256",
          "name": "alpha",
          "type": "uint256"
        },
        {
          "internalType": "uint256",
          "name": "feeForJuror",
          "type": "uint256"
        },
        {
          "internalType": "uint256",
          "name": "jurorsForCourtJump",
          "type": "uint256"
        },
        {
          "internalType": "bool",
          "name": "disabled",
          "type": "bool"
        }
      ],
      "stateMutability": "view",
      "type": "function"
    },
    {
      "inputs": [
        {
          "internalType": "uint96",
          "name": "_parent",
          "type": "uint96"
        },
        {
          "internalType": "bool",
          "name": "_hiddenVotes",
          "type": "bool"
        },
        {
          "internalType": "uint256",
          "name": "_minStake",
          "type": "uint256"
        },
        {
          "internalType": "uint256",
          "name": "_alpha",
          "type": "uint256"
        },
        {
          "internalType": "uint256",
          "name": "_feeForJuror",
          "type": "uint256"
        },
        {
          "internalType": "uint256",
          "name": "_jurorsForCourtJump",
          "type": "uint256"
        },
        {
          "internalType": "uint256[4]",
          "name": "_timesPerPeriod",
          "type": "uint256[4]"
        }
      ],
      "name": "createCourt",
      "outputs": [],
      "stateMutability": "nonpayable",
      "type": "function"
    },
    {
      "inputs": [
        {
          "internalType": "uint256",
          "name": "_numberOfChoices",
          "type": "uint256"
        },
        {
          "internalType": "bytes",
          "name": "_extraData",
          "type": "bytes"
        }
      ],
      "name": "createDispute",
      "outputs": [
        {
          "internalType": "uint256",
          "name": "disputeID",
          "type": "uint256"
        }
      ],
      "stateMutability": "payable",
      "type": "function"
    },
    {
      "inputs": [
        {
          "internalType": "uint256",
          "name": "_numberOfChoices",
          "type": "uint256"
        },
        {
          "internalType": "bytes",
          "name": "_extraData",
          "type": "bytes"
        },
        {
          "internalType": "contract IERC20",
          "name": "_feeToken",
          "type": "address"
        },
        {
          "internalType": "uint256",
          "name": "_feeAmount",
          "type": "uint256"
        }
      ],
      "name": "createDispute",
      "outputs": [
        {
          "internalType": "uint256",
          "name": "disputeID",
          "type": "uint256"
        }
      ],
      "stateMutability": "nonpayable",
      "type": "function"
    },
    {
      "inputs": [
        {
          "internalType": "contract IERC20",
          "name": "",
          "type": "address"
        }
      ],
      "name": "currencyRates",
      "outputs": [
        {
          "internalType": "bool",
          "name": "feePaymentAccepted",
          "type": "bool"
        },
        {
          "internalType": "uint64",
          "name": "rateInEth",
          "type": "uint64"
        },
        {
          "internalType": "uint8",
          "name": "rateDecimals",
          "type": "uint8"
        }
      ],
      "stateMutability": "view",
      "type": "function"
    },
    {
      "inputs": [
        {
          "internalType": "uint256",
          "name": "_disputeID",
          "type": "uint256"
        }
      ],
      "name": "currentRuling",
      "outputs": [
        {
          "internalType": "uint256",
          "name": "ruling",
          "type": "uint256"
        },
        {
          "internalType": "bool",
          "name": "tied",
          "type": "bool"
        },
        {
          "internalType": "bool",
          "name": "overridden",
          "type": "bool"
        }
      ],
      "stateMutability": "view",
      "type": "function"
    },
    {
      "inputs": [
        {
          "internalType": "uint256",
          "name": "",
          "type": "uint256"
        }
      ],
      "name": "disputes",
      "outputs": [
        {
          "internalType": "uint96",
          "name": "courtID",
          "type": "uint96"
        },
        {
          "internalType": "contract IArbitrableV2",
          "name": "arbitrated",
          "type": "address"
        },
        {
          "internalType": "enum KlerosCoreRuler.Period",
          "name": "period",
          "type": "uint8"
        },
        {
          "internalType": "bool",
          "name": "ruled",
          "type": "bool"
        }
      ],
      "stateMutability": "view",
      "type": "function"
    },
    {
      "inputs": [
        {
          "internalType": "uint256",
          "name": "_disputeID",
          "type": "uint256"
        },
        {
          "internalType": "uint256",
          "name": "_round",
          "type": "uint256"
        }
      ],
      "name": "execute",
      "outputs": [],
      "stateMutability": "nonpayable",
      "type": "function"
    },
    {
      "inputs": [
        {
          "internalType": "address",
          "name": "_destination",
          "type": "address"
        },
        {
          "internalType": "uint256",
          "name": "_amount",
          "type": "uint256"
        },
        {
          "internalType": "bytes",
          "name": "_data",
          "type": "bytes"
        }
      ],
      "name": "executeGovernorProposal",
      "outputs": [],
      "stateMutability": "nonpayable",
      "type": "function"
    },
    {
      "inputs": [
        {
          "internalType": "uint256",
          "name": "_disputeID",
          "type": "uint256"
        },
        {
          "internalType": "uint256",
          "name": "_ruling",
          "type": "uint256"
        },
        {
          "internalType": "bool",
          "name": "tied",
          "type": "bool"
        },
        {
          "internalType": "bool",
          "name": "overridden",
          "type": "bool"
        }
      ],
      "name": "executeRuling",
      "outputs": [],
      "stateMutability": "nonpayable",
      "type": "function"
    },
    {
      "inputs": [],
      "name": "getNextDisputeID",
      "outputs": [
        {
          "internalType": "uint256",
          "name": "",
          "type": "uint256"
        }
      ],
      "stateMutability": "view",
      "type": "function"
    },
    {
      "inputs": [
        {
          "internalType": "uint256",
          "name": "_disputeID",
          "type": "uint256"
        }
      ],
      "name": "getNumberOfRounds",
      "outputs": [
        {
          "internalType": "uint256",
          "name": "",
          "type": "uint256"
        }
      ],
      "stateMutability": "view",
      "type": "function"
    },
    {
      "inputs": [
        {
          "internalType": "uint256",
          "name": "_disputeID",
          "type": "uint256"
        }
      ],
      "name": "getNumberOfVotes",
      "outputs": [
        {
          "internalType": "uint256",
          "name": "",
          "type": "uint256"
        }
      ],
      "stateMutability": "view",
      "type": "function"
    },
    {
      "inputs": [
        {
          "internalType": "uint256",
          "name": "_disputeID",
          "type": "uint256"
        },
        {
          "internalType": "uint256",
          "name": "_round",
          "type": "uint256"
        }
      ],
      "name": "getRoundInfo",
      "outputs": [
        {
          "components": [
            {
              "internalType": "uint256",
              "name": "totalFeesForJurors",
              "type": "uint256"
            },
            {
              "internalType": "uint256",
              "name": "sumFeeRewardPaid",
              "type": "uint256"
            },
            {
              "internalType": "contract IERC20",
              "name": "feeToken",
              "type": "address"
            }
          ],
          "internalType": "struct KlerosCoreRuler.Round",
          "name": "",
          "type": "tuple"
        }
      ],
      "stateMutability": "view",
      "type": "function"
    },
    {
      "inputs": [
        {
          "internalType": "uint96",
          "name": "_courtID",
          "type": "uint96"
        }
      ],
      "name": "getTimesPerPeriod",
      "outputs": [
        {
          "internalType": "uint256[4]",
          "name": "timesPerPeriod",
          "type": "uint256[4]"
        }
      ],
      "stateMutability": "view",
      "type": "function"
    },
    {
      "inputs": [],
      "name": "governor",
      "outputs": [
        {
          "internalType": "address",
          "name": "",
          "type": "address"
        }
      ],
      "stateMutability": "view",
      "type": "function"
    },
    {
      "inputs": [
        {
          "internalType": "address",
          "name": "_governor",
          "type": "address"
        },
        {
          "internalType": "contract IERC20",
          "name": "_pinakion",
          "type": "address"
        },
        {
          "internalType": "uint256[4]",
          "name": "_courtParameters",
          "type": "uint256[4]"
        }
      ],
      "name": "initialize",
      "outputs": [],
      "stateMutability": "nonpayable",
      "type": "function"
    },
    {
      "inputs": [],
      "name": "initialize2",
      "outputs": [],
      "stateMutability": "nonpayable",
      "type": "function"
    },
    {
      "inputs": [],
      "name": "pinakion",
      "outputs": [
        {
          "internalType": "contract IERC20",
          "name": "",
          "type": "address"
        }
      ],
      "stateMutability": "view",
      "type": "function"
    },
    {
      "inputs": [],
      "name": "proxiableUUID",
      "outputs": [
        {
          "internalType": "bytes32",
          "name": "",
          "type": "bytes32"
        }
      ],
      "stateMutability": "view",
      "type": "function"
    },
    {
      "inputs": [
        {
          "internalType": "contract IArbitrableV2",
          "name": "arbitrable",
          "type": "address"
        }
      ],
      "name": "rulers",
      "outputs": [
        {
          "internalType": "address",
          "name": "ruler",
          "type": "address"
        }
      ],
      "stateMutability": "view",
      "type": "function"
    },
    {
      "inputs": [
        {
          "internalType": "uint256",
          "name": "disputeID",
          "type": "uint256"
        }
      ],
      "name": "rulingResults",
      "outputs": [
        {
          "internalType": "uint256",
          "name": "ruling",
          "type": "uint256"
        },
        {
          "internalType": "bool",
          "name": "tied",
          "type": "bool"
        },
        {
          "internalType": "bool",
          "name": "overridden",
          "type": "bool"
        }
      ],
      "stateMutability": "view",
      "type": "function"
    },
    {
      "inputs": [
        {
          "internalType": "contract IArbitrableV2",
          "name": "arbitrable",
          "type": "address"
        }
      ],
      "name": "settings",
      "outputs": [
        {
          "internalType": "enum KlerosCoreRuler.RulingMode",
          "name": "rulingMode",
          "type": "uint8"
        },
        {
          "internalType": "uint256",
          "name": "presetRuling",
          "type": "uint256"
        },
        {
          "internalType": "bool",
          "name": "presetTied",
          "type": "bool"
        },
        {
          "internalType": "bool",
          "name": "presetOverridden",
          "type": "bool"
        }
      ],
      "stateMutability": "view",
      "type": "function"
    },
    {
      "inputs": [
        {
          "internalType": "address",
          "name": "newImplementation",
          "type": "address"
        },
        {
          "internalType": "bytes",
          "name": "data",
          "type": "bytes"
        }
      ],
      "name": "upgradeToAndCall",
      "outputs": [],
      "stateMutability": "payable",
      "type": "function"
    },
    {
      "inputs": [],
      "name": "version",
      "outputs": [
        {
          "internalType": "string",
          "name": "",
          "type": "string"
        }
      ],
      "stateMutability": "view",
      "type": "function"
    }
  ],
  "transactionHash": "0x839a753ac2abfc5ab785467340ba05842cdc78e8904b2e5a73b33ca81dd02df5",
  "args": [],
  "numDeployments": 1,
  "solcInputHash": "3f11dda26fe559c44d21b324a34af1b7",
  "bytecode": "0x60a06040523060805234801561001457600080fd5b5061001d610022565b6100d3565b7ff0c57e16840df040f15088dc2f81fe391c3923bec73e23a9662efc9c229c6a0e805468010000000000000000900460ff16156100715760405162dc149f60e41b815260040160405180910390fd5b80546001600160401b03908116146100d05780546001600160401b0319166001600160401b0390811782556040519081527fc7f505b2f371ae2175ee4913f4499e1f2633a7b5936321eed1cdaeb6115181d29060200160405180910390a15b50565b6080516134fc6100fc60003960008181611485015281816114ae01526116ab01526134fc6000f3fe60806040526004361061021f5760003560e01c80635601eaea1161012e578063d98493f6116100ab578063e6d49cdf1161006f578063e6d49cdf146107b0578063f6506db4146107f0578063f7434ea914610810578063fbf405b014610830578063fc6f8f161461085057600080fd5b8063d98493f6146106ee578063d9ee095f1461070e578063db8a173b14610721578063e2373ab314610736578063e4c0aaf41461079057600080fd5b806382d02237116100f257806382d022371461063057806386541b24146106505780638a9bb02a14610670578063c13517e1146106bb578063c71f4253146106ce57600080fd5b80635601eaea14610580578063564a565d146105a05780636736b70c146105d0578063751accd0146105f05780637934c0be1461061057600080fd5b80632177470c116101bc578063472abf6811610180578063472abf68146104e557806347cdcc1d146104fa5780634f1ef2861461051a57806352d1902d1461052d57806354fd4d501461054257600080fd5b80632177470c14610422578063379f0a17146104425780633cfd118414610478578063405d51ae146104a557806343818d66146104c557600080fd5b8062f5822c1461022457806301fcf74d146102465780630219da791461027957806305d3177d146102ec5780630c340a241461030c5780630e3993a4146103445780631860592b146103645780631c3db16d146103845780631f5a0dd2146103c1575b600080fd5b34801561023057600080fd5b5061024461023f366004612a50565b610870565b005b34801561025257600080fd5b50610266610261366004612a82565b6108bd565b6040519081526020015b60405180910390f35b34801561028557600080fd5b506102c4610294366004612a50565b60046020526000908152604090205460ff808216916001600160401b0361010082041691600160481b9091041683565b6040805193151584526001600160401b03909216602084015260ff1690820152606001610270565b3480156102f857600080fd5b50610244610307366004612b35565b610a19565b34801561031857600080fd5b5060005461032c906001600160a01b031681565b6040516001600160a01b039091168152602001610270565b34801561035057600080fd5b5061024461035f366004612a50565b610c72565b34801561037057600080fd5b5061026661037f366004612b7d565b610d7d565b34801561039057600080fd5b506103a461039f366004612ba9565b610dd7565b604080519384529115156020840152151590820152606001610270565b3480156103cd57600080fd5b506103e16103dc366004612ba9565b610e01565b604080516001600160601b0390981688529515156020880152948601939093526060850191909152608084015260a0830152151560c082015260e001610270565b34801561042e57600080fd5b5061024461043d366004612bc2565b610e60565b34801561044e57600080fd5b5061032c61045d366004612a50565b6005602052600090815260409020546001600160a01b031681565b34801561048457600080fd5b50610498610493366004612c28565b611028565b6040516102709190612c66565b3480156104b157600080fd5b506102446104c0366004612c74565b611092565b3480156104d157600080fd5b506102446104e0366004612a50565b611252565b3480156104f157600080fd5b50610244611317565b34801561050657600080fd5b50610244610515366004612ce2565b6113de565b610244610528366004612d9d565b611471565b34801561053957600080fd5b5061026661169e565b34801561054e57600080fd5b50610573604051806040016040528060058152602001640302e382e360dc1b81525081565b6040516102709190612e10565b34801561058c57600080fd5b5061024461059b366004612e43565b6116fc565b3480156105ac57600080fd5b506105c06105bb366004612ba9565b61186e565b6040516102709493929190612e8f565b3480156105dc57600080fd5b506102446105eb366004612ecc565b6118c3565b3480156105fc57600080fd5b5061024461060b366004612f04565b6119d4565b34801561061c57600080fd5b5061024461062b366004612f5c565b611a7e565b34801561063c57600080fd5b5061024461064b366004612f8a565b611afd565b34801561065c57600080fd5b5061024461066b366004612c74565b611bba565b34801561067c57600080fd5b5061069061068b366004612e43565b611cae565b604080518251815260208084015190820152918101516001600160a01b031690820152606001610270565b6102666106c9366004612fe7565b611d5b565b3480156106da57600080fd5b506102666106e9366004612ba9565b611d93565b3480156106fa57600080fd5b5061026661070936600461305f565b611e3d565b61024461071c3660046130aa565b611e82565b34801561072d57600080fd5b50600354610266565b34801561074257600080fd5b50610780610751366004612a50565b60066020526000908152604090208054600182015460029092015460ff91821692918181169161010090041684565b6040516102709493929190613111565b34801561079c57600080fd5b506102446107ab366004612a50565b6120cf565b3480156107bc57600080fd5b506103a46107cb366004612ba9565b6007602052600090815260409020805460019091015460ff8082169161010090041683565b3480156107fc57600080fd5b5061026661080b36600461313c565b61211c565b34801561081c57600080fd5b5061026661082b3660046131a2565b612200565b34801561083c57600080fd5b5060015461032c906001600160a01b031681565b34801561085c57600080fd5b5061026661086b366004612ba9565b61224c565b6000546001600160a01b0316331461089b5760405163c383977560e01b815260040160405180910390fd5b600180546001600160a01b0319166001600160a01b0392909216919091179055565b600080600384815481106108d3576108d36131d6565b60009182526020822060026003909202019081018054919350906108f990600190613202565b81548110610909576109096131d6565b6000918252602082208454600280546003909402909201945090916001600160601b0390911690811061093e5761093e6131d6565b90600052602060002090600b02019050600081600401548360000154610964919061322b565b905085156109e75783546001600160601b03166000190161098e576001600160ff1b039450610a0f565b61099981600261323f565b6109a4906001613256565b82546002805490916001600160601b03169081106109c4576109c46131d6565b90600052602060002090600b0201600401546109e0919061323f565b9450610a0f565b6109f281600261323f565b6109fd906001613256565b8260040154610a0c919061323f565b94505b5050505092915050565b7ff0c57e16840df040f15088dc2f81fe391c3923bec73e23a9662efc9c229c6a0e805460019190600160401b900460ff1680610a62575080546001600160401b03808416911610155b15610a7f5760405162dc149f60e41b815260040160405180910390fd5b805468ffffffffffffffffff19166001600160401b03831617600160401b178155600080546001600160a01b038088166001600160a01b0319928316178355600180549188169190921617815560028054818452808201909155600b9101027f405787fa12a823e0f2b7631cc41b3ba8828b3321ca811111fa75cd3aa3bb5ace0180546001600160601b031916815590604051908082528060200260200182016040528015610b38578160200160208202803683370190505b508051610b4f91600184019160209091019061295d565b50805460ff60601b19168155835160028201556020808501516003830155604080860151600480850191909155606080880151600586015582516080810184526000808252948101859052928301849052820192909252610bb5916006840191906129a8565b50805484516020860151604080880151606089015191516001600160601b038616956001957f0c907a651f88974ed0d9423aacc8b998c40eedf39920e2c3bdae0adcc486a76195610c1b95600160601b90930460ff1694919390929060068b0190613269565b60405180910390a350805460ff60401b191681556040516001600160401b03831681527fc7f505b2f371ae2175ee4913f4499e1f2633a7b5936321eed1cdaeb6115181d29060200160405180910390a15050505050565b6001600160a01b0381811660009081526005602052604090205416610cba576001600160a01b038116600090815260056020526040902080546001600160a01b031916331790555b6001600160a01b03818116600090815260056020526040902054163314610cf4576040516301627e2760e61b815260040160405180910390fd5b6001600160a01b0381166000908152600660205260408120805460ff191680825560018083019390935560028201805461ffff19169055909190829082805b0217905550816001600160a01b03167ffe3754ab712090753cf700ac7b99f8a5e0f9c69b698312c2cfd0236b852f83f482604051610d7191906132c4565b60405180910390a25050565b6001600160a01b03821660009081526004602052604081205461010081046001600160401b031690610dba90600160481b900460ff16600a6133f0565b610dc4908461323f565b610dce919061322b565b90505b92915050565b6000818152600760205260409020805460019091015460ff808216916101009004165b9193909250565b60028181548110610e1157600080fd5b60009182526020909120600b9091020180546002820154600383015460048401546005850154600a909501546001600160601b038516965060ff600160601b9095048516959394929391921687565b600060038581548110610e7557610e756131d6565b906000526020600020906003020190508060010160019054906101000a900460ff1615610eb55760405163c977f8d360e01b815260040160405180910390fd5b8054600160601b90046001600160a01b03908116600090815260056020526040902054163314801590610ee85750333014155b15610f06576040516301627e2760e61b815260040160405180910390fd5b60408051606081018252858152841515602080830191825285151583850190815260008a815260079092529084902092518355905160019283018054925161ffff1990931691151561ff001990811692909217610100931515840217905591840180549092161790558154905163188d362b60e11b81526004810187905260248101869052600160601b9091046001600160a01b03169063311a6c5690604401600060405180830381600087803b158015610fc057600080fd5b505af1158015610fd4573d6000803e3d6000fd5b50508254604051878152889350600160601b9091046001600160a01b031691507f394027a5fa6e098a1191094d1719d6929b9abc535fcc0c8f448d6a4e756222769060200160405180910390a35050505050565b6110306129db565b6002826001600160601b03168154811061104c5761104c6131d6565b6000918252602090912060408051608081019182905292600b029091016006019060049082845b8154815260200190600101908083116110735750505050509050919050565b6000546001600160a01b031633146110bd5760405163c383977560e01b815260040160405180910390fd5b6001600160601b0387166110e457604051631ef4f64960e01b815260040160405180910390fd5b6002805460018101825560009182527f405787fa12a823e0f2b7631cc41b3ba8828b3321ca811111fa75cd3aa3bb5ace600b82020180546001600160601b0319166001600160601b038b16178155909160405190808252806020026020018201604052801561115d578160200160208202803683370190505b50805161117491600184019160209091019061295d565b50805460ff60601b1916600160601b8915150217815560028101879055600381018690556004808201869055600582018590556111b790600683019085906129f9565b506002896001600160601b0316815481106111d4576111d46131d6565b600091825260208083206001600b909302018201805492830181558352909120018290556040516001600160601b038a169083907f0c907a651f88974ed0d9423aacc8b998c40eedf39920e2c3bdae0adcc486a7619061123f908c908c908c908c908c908c906133ff565b60405180910390a3505050505050505050565b6001600160a01b038181166000908152600560205260409020541661129a576001600160a01b038116600090815260056020526040902080546001600160a01b031916331790555b6001600160a01b038181166000908152600560205260409020541633146112d4576040516301627e2760e61b815260040160405180910390fd5b6001600160a01b0381166000908152600660205260408120805460ff19168082556001808301939093556002808301805461ffff19169055919283919083610d33565b7ff0c57e16840df040f15088dc2f81fe391c3923bec73e23a9662efc9c229c6a0e805460029190600160401b900460ff1680611360575080546001600160401b03808416911610155b1561137d5760405162dc149f60e41b815260040160405180910390fd5b805468ffffffffffffffffff19166001600160401b038316908117600160401b1760ff60401b191682556040519081527fc7f505b2f371ae2175ee4913f4499e1f2633a7b5936321eed1cdaeb6115181d29060200160405180910390a15050565b6001600160a01b03828116600090815260056020526040902054163314611418576040516301627e2760e61b815260040160405180910390fd5b6001600160a01b0382811660008181526005602052604080822080546001600160a01b0319169486169485179055513392917ff512a4524e61d860055823df1f2a5f33de24eb2a03dc3de501015ad501d4e36f91a45050565b61147a8261227b565b306001600160a01b037f00000000000000000000000000000000000000000000000000000000000000001614806114f857507f00000000000000000000000000000000000000000000000000000000000000006001600160a01b03166114ec6000805160206134a78339815191525490565b6001600160a01b031614155b156115165760405163703e46dd60e11b815260040160405180910390fd5b816001600160a01b03166352d1902d6040518163ffffffff1660e01b8152600401602060405180830381865afa925050508015611570575060408051601f3d908101601f1916820190925261156d91810190613432565b60015b61159d57604051630c76093760e01b81526001600160a01b03831660048201526024015b60405180910390fd5b6000805160206134a783398151915281146115ce57604051632a87526960e21b815260048101829052602401611594565b6000805160206134a78339815191528390556040516001600160a01b038416907fbc7cd75a20ee27fd9adebab32041f755214dbc6bffa90cc0225b39da2e5c2d3b90600090a2815115611699576000836001600160a01b031683604051611635919061344b565b600060405180830381855af49150503d8060008114611670576040519150601f19603f3d011682016040523d82523d6000602084013e611675565b606091505b5050905080611697576040516339b21b5d60e11b815260040160405180910390fd5b505b505050565b6000306001600160a01b037f000000000000000000000000000000000000000000000000000000000000000016146116e95760405163703e46dd60e11b815260040160405180910390fd5b506000805160206134a783398151915290565b600060038381548110611711576117116131d6565b60009182526020808320600390920290910180546001600160a01b03600160601b90910481168452600590925260409092205491925016806117665760405163f4612fe560e01b815260040160405180910390fd5b600082600201848154811061177d5761177d6131d6565b90600052602060002090600302019050600081600001549050808260010160008282546117aa9190613256565b909155505060028201546001600160a01b03166117ec576040516001600160a01b0384169082156108fc029083906000818181858888f1935050505050611807565b6002820154611805906001600160a01b031684836122a9565b505b60028201546040805160018152600060208201529081018390526001600160a01b03918216606082015286918891908616907f8975b837fe0d18616c65abb8b843726a32b552ee4feca009944fa658bbb282e79060800160405180910390a4505050505050565b6003818154811061187e57600080fd5b6000918252602090912060039091020180546001909101546001600160601b0382169250600160601b9091046001600160a01b03169060ff8082169161010090041684565b6001600160a01b038481166000908152600560205260409020541661190b576001600160a01b038416600090815260056020526040902080546001600160a01b031916331790555b6001600160a01b03848116600090815260056020526040902054163314611945576040516301627e2760e61b815260040160405180910390fd5b6001600160a01b03841660008181526006602052604090819020805460028201805460ff1990921660031783556001830188905561ffff1990911686151561ff001916176101008615150217905590519091907ffe3754ab712090753cf700ac7b99f8a5e0f9c69b698312c2cfd0236b852f83f4906119c59084906132c4565b60405180910390a25050505050565b6000546001600160a01b031633146119ff5760405163c383977560e01b815260040160405180910390fd5b6000836001600160a01b03168383604051611a1a919061344b565b60006040518083038185875af1925050503d8060008114611a57576040519150601f19603f3d011682016040523d82523d6000602084013e611a5c565b606091505b5050905080611697576040516322092f2f60e11b815260040160405180910390fd5b6000546001600160a01b03163314611aa95760405163c383977560e01b815260040160405180910390fd5b6001600160a01b038216600081815260046020526040808220805460ff191685151590811790915590519092917f541615e167511d757a7067a700eb54431b256bb458dfdce0ac58bf2ed0aefd4491a35050565b6000546001600160a01b03163314611b285760405163c383977560e01b815260040160405180910390fd5b6001600160a01b038316600081815260046020908152604091829020805469ffffffffffffffffff0019166101006001600160401b03881690810260ff60481b191691909117600160481b60ff8816908102919091179092558351908152918201527fe6996b7f03e9bd02228b99d3d946932e3197f505f60542c4cfbc919441d8a4e6910160405180910390a2505050565b6000546001600160a01b03163314611be55760405163c383977560e01b815260040160405180910390fd5b60006002886001600160601b031681548110611c0357611c036131d6565b60009182526020909120600b9091020160028101879055805460ff60601b1916600160601b8915150217815560038101869055600480820186905560058201859055909150611c5890600683019084906129f9565b50876001600160601b03167f709b1f5fda58af9a4f52dacd1ec404840a8148455700cce155a2bd8cf127ef1a888888888888604051611c9c969594939291906133ff565b60405180910390a25050505050505050565b611cdb6040518060600160405280600081526020016000815260200160006001600160a01b031681525090565b60038381548110611cee57611cee6131d6565b90600052602060002090600302016002018281548110611d1057611d106131d6565b6000918252602091829020604080516060810182526003909302909101805483526001810154938301939093526002909201546001600160a01b031691810191909152905092915050565b6000611d6682612200565b341015611d8657604051630e3360f160e21b815260040160405180910390fd5b610dce8383600034612372565b60008060038381548110611da957611da96131d6565b600091825260208220600390910201805460028054929450916001600160601b03909116908110611ddc57611ddc6131d6565b90600052602060002090600b0201905080600401548260020160018460020180549050611e099190613202565b81548110611e1957611e196131d6565b906000526020600020906003020160000154611e35919061322b565b949350505050565b6000611e358261037f86868080601f01602080910402602001604051908101604052809392919081815260200183838082843760009201919091525061220092505050565b611e8c84826108bd565b341015611eac57604051633191f8f160e01b815260040160405180910390fd5b600060038581548110611ec157611ec16131d6565b6000918252602080832060039092029091018054600160601b90046001600160a01b0390811684526005909252604090922054919250163314611f17576040516301627e2760e61b815260040160405180910390fd5b6003600182015460ff166004811115611f3257611f32612e65565b14611f50576040516337cdefcb60e21b815260040160405180910390fd5b80546001600160601b03168215612002576002816001600160601b031681548110611f7d57611f7d6131d6565b60009182526020909120600b909102015482546001600160601b03918216925016811461200257815460028301546001600160601b0390911690611fc390600190613202565b6040516001600160601b038416815288907f736e3f52761298c8c0823e1ebf482ed3c5ecb304f743d2d91a7c006e8e8d7a1f9060200160405180910390a45b81546001600160601b0319166001600160601b0382161782556001808301805460ff191690556002830180549182018155600090815260208120346003909302019182558354604051600160601b9091046001600160a01b03169189917f9c9b64db9e130f48381bf697abf638e73117dbfbfd7a4484f2da3ba188f4187d9190a3867f4e6f5cf43b95303e86aee81683df63992061723a829ee012db21dad388756b9160006040516120b49190613467565b60405180910390a26120c68787612467565b50505050505050565b6000546001600160a01b031633146120fa5760405163c383977560e01b815260040160405180910390fd5b600080546001600160a01b0319166001600160a01b0392909216919091179055565b6001600160a01b03821660009081526004602052604081205460ff166121555760405163e51cf7bf60e01b815260040160405180910390fd5b612160858585611e3d565b82101561218057604051630e3360f160e21b815260040160405180910390fd5b6121956001600160a01b03841633308561280c565b6121b2576040516312171d8360e31b815260040160405180910390fd5b6121f68686868080601f0160208091040260200160405190810160405280939291908181526020018383808284376000920191909152508892508791506123729050565b9695505050505050565b600080600061220e846128e8565b5091509150806002836001600160601b031681548110612230576122306131d6565b90600052602060002090600b020160040154611e35919061323f565b600060038281548110612261576122616131d6565b600091825260209091206002600390920201015492915050565b6000546001600160a01b031633146122a65760405163c383977560e01b815260040160405180910390fd5b50565b6040516001600160a01b03838116602483015260448201839052600091829182919087169060640160408051601f198184030181529181526020820180516001600160e01b031663a9059cbb60e01b17905251612306919061344b565b6000604051808303816000865af19150503d8060008114612343576040519150601f19603f3d011682016040523d82523d6000602084013e612348565b606091505b50915091508180156121f65750805115806121f65750808060200190518101906121f69190613475565b60008061237e856128e8565b505060038054600180820183556001600160601b03841633600160601b02177fc2575a0e9e593c00f959f8c92f12db2869c3395a3b0502d05e2516446f71f85b8385029081019182557fc2575a0e9e593c00f959f8c92f12db2869c3395a3b0502d05e2516446f71f85d018054928301815560009081526020902091909302018681556002810180546001600160a01b0319166001600160a01b038a161790559094509192509061242f8489612467565b604051339085907f141dfc18aa6a56fc816f44f0e9e2f1ebc92b15ab167770e17db5b084c10ed99590600090a3505050949350505050565b60006003838154811061247c5761247c6131d6565b906000526020600020906003020190506000600182600201805490506124a29190613202565b8254600160601b90046001600160a01b03166000908152600660205260408120919250815460ff1660038111156124db576124db612e65565b036124f95760405163d8f2465160e01b815260040160405180910390fd5b6001815460ff16600381111561251157612511612e65565b14612805576003815460ff16600381111561252e5761252e612e65565b0361267d578460038454600184015460028501546040805192835260ff80831615156020850152610100909204909116151590820152600160601b9091046001600160a01b0316907f45c27c7ea7135714f09b069efa7497d57c38017d4e919c5535ba31dbd5b597e69060600160405180910390a46001810154600282015460405163085dd1c360e21b815260048101889052602481019290925260ff8082161515604484015261010090910416151560648201523090632177470c90608401600060405180830381600087803b15801561260857600080fd5b505af115801561261c573d6000803e3d6000fd5b5050604051632b00f57560e11b81526004810188905260248101859052309250635601eaea9150604401600060405180830381600087803b15801561266057600080fd5b505af1158015612674573d6000803e3d6000fd5b50505050612805565b6002815460ff16600381111561269557612695612e65565b03612805576000846126a8600143613202565b6040805191406020830152016040516020818303038152906040528051906020012060001c6126d79190613492565b90506004811615600280831615908890875460408051878152861515602082015285151591810191909152600160601b9091046001600160a01b0316907f45c27c7ea7135714f09b069efa7497d57c38017d4e919c5535ba31dbd5b597e69060600160405180910390a460405163085dd1c360e21b81526004810189905260248101849052821515604482015281151560648201523090632177470c90608401600060405180830381600087803b15801561279157600080fd5b505af11580156127a5573d6000803e3d6000fd5b5050604051632b00f57560e11b8152600481018b905260248101889052309250635601eaea9150604401600060405180830381600087803b1580156127e957600080fd5b505af11580156127fd573d6000803e3d6000fd5b505050505050505b5050505050565b6040516001600160a01b038481166024830152838116604483015260648201839052600091829182919088169060840160408051601f198184030181529181526020820180516001600160e01b03166323b872dd60e01b17905251612871919061344b565b6000604051808303816000865af19150503d80600081146128ae576040519150601f19603f3d011682016040523d82523d6000602084013e6128b3565b606091505b50915091508180156128dd5750805115806128dd5750808060200190518101906128dd9190613475565b979650505050505050565b6000806000604084511061294e575050506020810151604082015160608301516001600160601b038316158061292957506002546001600160601b03841610155b1561293357600192505b8160000361294057600391505b80612949575060015b610dfa565b50600193600393508492509050565b828054828255906000526020600020908101928215612998579160200282015b8281111561299857825182559160200191906001019061297d565b506129a4929150612a26565b5090565b8260048101928215612998579160200282015b82811115612998578251829060ff169055916020019190600101906129bb565b60405180608001604052806004906020820280368337509192915050565b8260048101928215612998579160200282018281111561299857825182559160200191906001019061297d565b5b808211156129a45760008155600101612a27565b6001600160a01b03811681146122a657600080fd5b600060208284031215612a6257600080fd5b8135612a6d81612a3b565b9392505050565b80151581146122a657600080fd5b60008060408385031215612a9557600080fd5b823591506020830135612aa781612a74565b809150509250929050565b634e487b7160e01b600052604160045260246000fd5b600082601f830112612ad957600080fd5b604051608081016001600160401b0381118282101715612afb57612afb612ab2565b604052806080840185811115612b1057600080fd5b845b81811015612b2a578035835260209283019201612b12565b509195945050505050565b600080600060c08486031215612b4a57600080fd5b8335612b5581612a3b565b92506020840135612b6581612a3b565b9150612b748560408601612ac8565b90509250925092565b60008060408385031215612b9057600080fd5b8235612b9b81612a3b565b946020939093013593505050565b600060208284031215612bbb57600080fd5b5035919050565b60008060008060808587031215612bd857600080fd5b84359350602085013592506040850135612bf181612a74565b91506060850135612c0181612a74565b939692955090935050565b80356001600160601b0381168114612c2357600080fd5b919050565b600060208284031215612c3a57600080fd5b610dce82612c0c565b8060005b6004811015611697578151845260209384019390910190600101612c47565b60808101610dd18284612c43565b6000806000806000806000610140888a031215612c9057600080fd5b612c9988612c0c565b96506020880135612ca981612a74565b955060408801359450606088013593506080880135925060a08801359150612cd48960c08a01612ac8565b905092959891949750929550565b60008060408385031215612cf557600080fd5b8235612d0081612a3b565b91506020830135612aa781612a3b565b600082601f830112612d2157600080fd5b81356001600160401b03811115612d3a57612d3a612ab2565b604051601f8201601f19908116603f011681016001600160401b0381118282101715612d6857612d68612ab2565b604052818152838201602001851015612d8057600080fd5b816020850160208301376000918101602001919091529392505050565b60008060408385031215612db057600080fd5b8235612dbb81612a3b565b915060208301356001600160401b03811115612dd657600080fd5b612de285828601612d10565b9150509250929050565b60005b83811015612e07578181015183820152602001612def565b50506000910152565b6020815260008251806020840152612e2f816040850160208701612dec565b601f01601f19169190910160400192915050565b60008060408385031215612e5657600080fd5b50508035926020909101359150565b634e487b7160e01b600052602160045260246000fd5b60058110612e8b57612e8b612e65565b9052565b6001600160601b03851681526001600160a01b038416602082015260808101612ebb6040830185612e7b565b821515606083015295945050505050565b60008060008060808587031215612ee257600080fd5b8435612eed81612a3b565b9350602085013592506040850135612bf181612a74565b600080600060608486031215612f1957600080fd5b8335612f2481612a3b565b92506020840135915060408401356001600160401b03811115612f4657600080fd5b612f5286828701612d10565b9150509250925092565b60008060408385031215612f6f57600080fd5b8235612f7a81612a3b565b91506020830135612aa781612a74565b600080600060608486031215612f9f57600080fd5b8335612faa81612a3b565b925060208401356001600160401b0381168114612fc657600080fd5b9150604084013560ff81168114612fdc57600080fd5b809150509250925092565b60008060408385031215612ffa57600080fd5b8235915060208301356001600160401b03811115612dd657600080fd5b60008083601f84011261302957600080fd5b5081356001600160401b0381111561304057600080fd5b60208301915083602082850101111561305857600080fd5b9250929050565b60008060006040848603121561307457600080fd5b83356001600160401b0381111561308a57600080fd5b61309686828701613017565b9094509250506020840135612fdc81612a3b565b600080600080608085870312156130c057600080fd5b843593506020850135925060408501356001600160401b038111156130e457600080fd5b6130f087828801612d10565b9250506060850135612c0181612a74565b60048110612e8b57612e8b612e65565b6080810161311f8287613101565b602082019490945291151560408301521515606090910152919050565b60008060008060006080868803121561315457600080fd5b8535945060208601356001600160401b0381111561317157600080fd5b61317d88828901613017565b909550935050604086013561319181612a3b565b949793965091946060013592915050565b6000602082840312156131b457600080fd5b81356001600160401b038111156131ca57600080fd5b611e3584828501612d10565b634e487b7160e01b600052603260045260246000fd5b634e487b7160e01b600052601160045260246000fd5b81810381811115610dd157610dd16131ec565b634e487b7160e01b600052601260045260246000fd5b60008261323a5761323a613215565b500490565b8082028115828204841417610dd157610dd16131ec565b80820180821115610dd157610dd16131ec565b600061012082019050871515825286602083015285604083015284606083015283608083015260a082018360005b60048110156132b6578154835260209092019160019182019101613297565b505050979650505050505050565b60006080820190506132da8260ff855416613101565b60018301546020830152600283015460ff81161515604084015260ff8160081c16151560608401525092915050565b6001815b600184111561334457808504811115613328576133286131ec565b600184161561333657908102905b60019390931c92800261330d565b935093915050565b60008261335b57506001610dd1565b8161336857506000610dd1565b816001811461337e5760028114613388576133a4565b6001915050610dd1565b60ff841115613399576133996131ec565b50506001821b610dd1565b5060208310610133831016604e8410600b84101617156133c7575081810a610dd1565b6133d46000198484613309565b80600019048211156133e8576133e86131ec565b029392505050565b6000610dce60ff84168361334c565b60006101208201905087151582528660208301528560408301528460608301528360808301526128dd60a0830184612c43565b60006020828403121561344457600080fd5b5051919050565b6000825161345d818460208701612dec565b9190910192915050565b60208101610dd18284612e7b565b60006020828403121561348757600080fd5b8151612a6d81612a74565b6000826134a1576134a1613215565b50069056fe360894a13ba1a3210667c828492db98dca3e2076cc3735a920a3ca505d382bbca264697066735822122052b3e255d0667dd5efed0f8be242f6164addb8fe52dfaf92a532eb62e35b66f364736f6c634300081c0033",
  "devdoc": {
    "errors": {
      "AlreadyInitialized()": [
        {
          "details": "The contract is already initialized."
        }
      ],
      "InvalidImplementation(address)": [
        {
          "details": "The `implementation` is not UUPS-compliant"
        }
      ],
      "NotInitializing()": [
        {
          "details": "The contract is not initializing."
        }
      ],
      "UUPSUnauthorizedCallContext()": [
        {
          "details": "The call is from an unauthorized context."
        }
      ],
      "UUPSUnsupportedProxiableUUID(bytes32)": [
        {
          "details": "The storage `slot` is unsupported as a UUID."
        }
      ]
    },
    "events": {
      "AcceptedFeeToken(address,bool)": {
        "details": "To be emitted when an ERC20 token is added or removed as a method to pay fees.",
        "params": {
          "_accepted": "Whether the token is accepted or not.",
          "_token": "The ERC20 token."
        }
      },
      "DisputeCreation(uint256,address)": {
        "details": "To be emitted when a dispute is created.",
        "params": {
          "_arbitrable": "The contract which created the dispute.",
          "_disputeID": "The identifier of the dispute in the Arbitrator contract."
        }
      },
      "Initialized(uint64)": {
        "details": "Triggered when the contract has been initialized or reinitialized."
      },
      "NewCurrencyRate(address,uint64,uint8)": {
        "details": "To be emitted when the fee for a particular ERC20 token is updated.",
        "params": {
          "_feeToken": "The ERC20 token.",
          "_rateDecimals": "The new decimals of the fee token rate.",
          "_rateInEth": "The new rate of the fee token in ETH."
        }
      },
      "Ruling(address,uint256,uint256)": {
        "details": "To be raised when a ruling is given.",
        "params": {
          "_arbitrable": "The arbitrable receiving the ruling.",
          "_disputeID": "The identifier of the dispute in the Arbitrator contract.",
          "_ruling": "The ruling which was given."
        }
      },
      "Upgraded(address)": {
        "details": "Emitted when the `implementation` has been successfully upgraded.",
        "params": {
          "newImplementation": "Address of the new implementation the proxy is now forwarding calls to."
        }
      }
    },
    "kind": "dev",
    "methods": {
      "appeal(uint256,uint256,bytes,bool)": {
        "details": "Appeals the ruling of a specified dispute.",
        "params": {
          "_disputeID": "The ID of the dispute.",
          "_jump": "Whether to jump to the parent court or not."
        }
      },
      "appealCost(uint256,bool)": {
        "details": "Gets the cost of appealing a specified dispute.",
        "params": {
          "_disputeID": "The ID of the dispute.",
          "_jump": "Whether to jump to the parent court or not."
        },
        "returns": {
          "cost": "The appeal cost."
        }
      },
      "arbitrationCost(bytes)": {
        "details": "Compute the cost of arbitration denominated in ETH.      It is recommended not to increase it often, as it can be highly time and gas consuming for the arbitrated contracts to cope with fee augmentation.",
        "params": {
          "_extraData": "Additional info about the dispute. We use it to pass the ID of the dispute's court (first 32 bytes), the minimum number of jurors required (next 32 bytes) and the ID of the specific dispute kit (last 32 bytes)."
        },
        "returns": {
          "cost": "The arbitration cost in ETH."
        }
      },
      "arbitrationCost(bytes,address)": {
        "details": "Compute the cost of arbitration denominated in `_feeToken`.      It is recommended not to increase it often, as it can be highly time and gas consuming for the arbitrated contracts to cope with fee augmentation.",
        "params": {
          "_extraData": "Additional info about the dispute. We use it to pass the ID of the dispute's court (first 32 bytes), the minimum number of jurors required (next 32 bytes) and the ID of the specific dispute kit (last 32 bytes).",
          "_feeToken": "The ERC20 token used to pay fees."
        },
        "returns": {
          "cost": "The arbitration cost in `_feeToken`."
        }
      },
      "changeAcceptedFeeTokens(address,bool)": {
        "details": "Changes the supported fee tokens.",
        "params": {
          "_accepted": "Whether the token is supported or not as a method of fee payment.",
          "_feeToken": "The fee token."
        }
      },
      "changeCurrencyRates(address,uint64,uint8)": {
        "details": "Changes the currency rate of a fee token.",
        "params": {
          "_feeToken": "The fee token.",
          "_rateDecimals": "The new decimals of the fee token rate.",
          "_rateInEth": "The new rate of the fee token in ETH."
        }
      },
      "changeGovernor(address)": {
        "details": "Changes the `governor` storage variable.",
        "params": {
          "_governor": "The new value for the `governor` storage variable."
        }
      },
      "changePinakion(address)": {
        "details": "Changes the `pinakion` storage variable.",
        "params": {
          "_pinakion": "The new value for the `pinakion` storage variable."
        }
      },
      "constructor": {
        "custom:oz-upgrades-unsafe-allow": "constructor"
      },
      "createCourt(uint96,bool,uint256,uint256,uint256,uint256,uint256[4])": {
        "details": "Creates a court under a specified parent court.",
        "params": {
          "_alpha": "The `alpha` property value of the court.",
          "_feeForJuror": "The `feeForJuror` property value of the court.",
          "_hiddenVotes": "The `hiddenVotes` property value of the court.",
          "_jurorsForCourtJump": "The `jurorsForCourtJump` property value of the court.",
          "_minStake": "The `minStake` property value of the court.",
          "_parent": "The `parent` property value of the court.",
          "_timesPerPeriod": "The `timesPerPeriod` property value of the court."
        }
      },
      "createDispute(uint256,bytes)": {
        "details": "Create a dispute and pay for the fees in the native currency, typically ETH.      Must be called by the arbitrable contract.      Must pay at least arbitrationCost(_extraData).",
        "params": {
          "_extraData": "Additional info about the dispute. We use it to pass the ID of the dispute's court (first 32 bytes), the minimum number of jurors required (next 32 bytes) and the ID of the specific dispute kit (last 32 bytes).",
          "_numberOfChoices": "The number of choices the arbitrator can choose from in this dispute."
        },
        "returns": {
          "disputeID": "The identifier of the dispute created."
        }
      },
      "createDispute(uint256,bytes,address,uint256)": {
        "details": "Create a dispute and pay for the fees in a supported ERC20 token.      Must be called by the arbitrable contract.      Must pay at least arbitrationCost(_extraData).",
        "params": {
          "_extraData": "Additional info about the dispute. We use it to pass the ID of the dispute's court (first 32 bytes), the minimum number of jurors required (next 32 bytes) and the ID of the specific dispute kit (last 32 bytes).",
          "_feeAmount": "Amount of the ERC20 token used to pay fees.",
          "_feeToken": "The ERC20 token used to pay fees.",
          "_numberOfChoices": "The number of choices the arbitrator can choose from in this dispute."
        },
        "returns": {
          "disputeID": "The identifier of the dispute created."
        }
      },
      "currentRuling(uint256)": {
        "details": "Gets the current ruling of a specified dispute.",
        "params": {
          "_disputeID": "The ID of the dispute."
        },
        "returns": {
          "overridden": "Whether the ruling was overridden by appeal funding or not.",
          "ruling": "The current ruling.",
          "tied": "Whether it's a tie or not."
        }
      },
      "execute(uint256,uint256)": {
        "details": "Distribute the PNKs at stake and the dispute fees for the specific round of the dispute. Can be called in parts.",
        "params": {
          "_disputeID": "The ID of the dispute.",
          "_round": "The appeal round."
        }
      },
      "executeGovernorProposal(address,uint256,bytes)": {
        "details": "Allows the governor to call anything on behalf of the contract.",
        "params": {
          "_amount": "The value sent with the call.",
          "_data": "The data sent with the call.",
          "_destination": "The destination of the call."
        }
      },
      "executeRuling(uint256,uint256,bool,bool)": {
        "details": "Executes a specified dispute's ruling.",
        "params": {
          "_disputeID": "The ID of the dispute."
        }
      },
      "getNumberOfVotes(uint256)": {
        "details": "Gets the number of votes permitted for the specified dispute in the latest round.",
        "params": {
          "_disputeID": "The ID of the dispute."
        }
      },
      "initialize(address,address,uint256[4])": {
        "details": "Initializer (constructor equivalent for upgradable contracts).",
        "params": {
          "_courtParameters": "Numeric parameters of General court (minStake, alpha, feeForJuror and jurorsForCourtJump respectively).",
          "_governor": "The governor's address.",
          "_pinakion": "The address of the token contract."
        }
      },
      "proxiableUUID()": {
        "details": "Implementation of the ERC1822 `proxiableUUID` function. This returns the storage slot used by the implementation. It is used to validate the implementation's compatibility when performing an upgrade. IMPORTANT: A proxy pointing at a proxiable contract should not be considered proxiable itself, because this risks bricking a proxy that upgrades to it, by delegating to itself until out of gas. Thus it is critical that this function revert if invoked through a proxy. This is guaranteed by the if statement."
      },
      "upgradeToAndCall(address,bytes)": {
        "details": "Upgrade mechanism including access control and UUPS-compliance.Reverts if the execution is not performed via delegatecall or the execution context is not of a proxy with an ERC1967-compliant implementation pointing to self.",
        "params": {
          "data": "Data used in a delegate call to `newImplementation` if non-empty. This will typically be an encoded function call, and allows initializing the storage of the proxy like a Solidity constructor.",
          "newImplementation": "Address of the new implementation contract."
        }
      }
    },
    "stateVariables": {
      "version": {
        "details": "Returns the version of the implementation.",
        "return": "Version string.",
        "returns": {
          "_0": "Version string."
        }
      }
    },
    "title": "KlerosCoreRuler Core arbitrator contract for development and testing purposes.",
    "version": 1
  },
  "userdoc": {
    "errors": {
      "FailedDelegateCall()": [
        {
          "notice": "Failed Delegated call"
        }
      ]
    },
    "kind": "user",
    "methods": {},
    "version": 1
  },
  "storageLayout": {
    "storage": [
      {
        "astId": 19622,
        "contract": "src/arbitration/devtools/KlerosCoreRuler.sol:KlerosCoreRuler",
        "label": "governor",
        "offset": 0,
        "slot": "0",
        "type": "t_address"
      },
      {
        "astId": 19625,
        "contract": "src/arbitration/devtools/KlerosCoreRuler.sol:KlerosCoreRuler",
        "label": "pinakion",
        "offset": 0,
        "slot": "1",
        "type": "t_contract(IERC20)2923"
      },
      {
        "astId": 19629,
        "contract": "src/arbitration/devtools/KlerosCoreRuler.sol:KlerosCoreRuler",
        "label": "courts",
        "offset": 0,
        "slot": "2",
        "type": "t_array(t_struct(Court)19573_storage)dyn_storage"
      },
      {
        "astId": 19633,
        "contract": "src/arbitration/devtools/KlerosCoreRuler.sol:KlerosCoreRuler",
        "label": "disputes",
        "offset": 0,
        "slot": "3",
        "type": "t_array(t_struct(Dispute)19588_storage)dyn_storage"
      },
      {
        "astId": 19639,
        "contract": "src/arbitration/devtools/KlerosCoreRuler.sol:KlerosCoreRuler",
        "label": "currencyRates",
        "offset": 0,
        "slot": "4",
        "type": "t_mapping(t_contract(IERC20)2923,t_struct(CurrencyRate)19603_storage)"
      },
      {
        "astId": 19644,
        "contract": "src/arbitration/devtools/KlerosCoreRuler.sol:KlerosCoreRuler",
        "label": "rulers",
        "offset": 0,
        "slot": "5",
        "type": "t_mapping(t_contract(IArbitrableV2)25870,t_address)"
      },
      {
        "astId": 19650,
        "contract": "src/arbitration/devtools/KlerosCoreRuler.sol:KlerosCoreRuler",
        "label": "settings",
        "offset": 0,
        "slot": "6",
        "type": "t_mapping(t_contract(IArbitrableV2)25870,t_struct(RulerSettings)19551_storage)"
      },
      {
        "astId": 19655,
        "contract": "src/arbitration/devtools/KlerosCoreRuler.sol:KlerosCoreRuler",
        "label": "rulingResults",
        "offset": 0,
        "slot": "7",
        "type": "t_mapping(t_uint256,t_struct(RulingResult)19610_storage)"
      }
    ],
    "types": {
      "t_address": {
        "encoding": "inplace",
        "label": "address",
        "numberOfBytes": "20"
      },
      "t_array(t_struct(Court)19573_storage)dyn_storage": {
        "base": "t_struct(Court)19573_storage",
        "encoding": "dynamic_array",
        "label": "struct KlerosCoreRuler.Court[]",
        "numberOfBytes": "32"
      },
      "t_array(t_struct(Dispute)19588_storage)dyn_storage": {
        "base": "t_struct(Dispute)19588_storage",
        "encoding": "dynamic_array",
        "label": "struct KlerosCoreRuler.Dispute[]",
        "numberOfBytes": "32"
      },
      "t_array(t_struct(Round)19596_storage)dyn_storage": {
        "base": "t_struct(Round)19596_storage",
        "encoding": "dynamic_array",
        "label": "struct KlerosCoreRuler.Round[]",
        "numberOfBytes": "32"
      },
      "t_array(t_uint256)4_storage": {
        "base": "t_uint256",
        "encoding": "inplace",
        "label": "uint256[4]",
        "numberOfBytes": "128"
      },
      "t_array(t_uint256)dyn_storage": {
        "base": "t_uint256",
        "encoding": "dynamic_array",
        "label": "uint256[]",
        "numberOfBytes": "32"
      },
      "t_bool": {
        "encoding": "inplace",
        "label": "bool",
        "numberOfBytes": "1"
      },
      "t_contract(IArbitrableV2)25870": {
        "encoding": "inplace",
        "label": "contract IArbitrableV2",
        "numberOfBytes": "20"
      },
      "t_contract(IERC20)2923": {
        "encoding": "inplace",
        "label": "contract IERC20",
        "numberOfBytes": "20"
      },
      "t_enum(Period)19541": {
        "encoding": "inplace",
        "label": "enum KlerosCoreRuler.Period",
        "numberOfBytes": "1"
      },
      "t_enum(RulingMode)19535": {
        "encoding": "inplace",
        "label": "enum KlerosCoreRuler.RulingMode",
        "numberOfBytes": "1"
      },
      "t_mapping(t_contract(IArbitrableV2)25870,t_address)": {
        "encoding": "mapping",
        "key": "t_contract(IArbitrableV2)25870",
        "label": "mapping(contract IArbitrableV2 => address)",
        "numberOfBytes": "32",
        "value": "t_address"
      },
      "t_mapping(t_contract(IArbitrableV2)25870,t_struct(RulerSettings)19551_storage)": {
        "encoding": "mapping",
        "key": "t_contract(IArbitrableV2)25870",
        "label": "mapping(contract IArbitrableV2 => struct KlerosCoreRuler.RulerSettings)",
        "numberOfBytes": "32",
        "value": "t_struct(RulerSettings)19551_storage"
      },
      "t_mapping(t_contract(IERC20)2923,t_struct(CurrencyRate)19603_storage)": {
        "encoding": "mapping",
        "key": "t_contract(IERC20)2923",
        "label": "mapping(contract IERC20 => struct KlerosCoreRuler.CurrencyRate)",
        "numberOfBytes": "32",
        "value": "t_struct(CurrencyRate)19603_storage"
      },
      "t_mapping(t_uint256,t_struct(RulingResult)19610_storage)": {
        "encoding": "mapping",
        "key": "t_uint256",
        "label": "mapping(uint256 => struct KlerosCoreRuler.RulingResult)",
        "numberOfBytes": "32",
        "value": "t_struct(RulingResult)19610_storage"
      },
      "t_struct(Court)19573_storage": {
        "encoding": "inplace",
        "label": "struct KlerosCoreRuler.Court",
        "members": [
          {
            "astId": 19553,
            "contract": "src/arbitration/devtools/KlerosCoreRuler.sol:KlerosCoreRuler",
            "label": "parent",
            "offset": 0,
            "slot": "0",
            "type": "t_uint96"
          },
          {
            "astId": 19555,
            "contract": "src/arbitration/devtools/KlerosCoreRuler.sol:KlerosCoreRuler",
            "label": "hiddenVotes",
            "offset": 12,
            "slot": "0",
            "type": "t_bool"
          },
          {
            "astId": 19558,
            "contract": "src/arbitration/devtools/KlerosCoreRuler.sol:KlerosCoreRuler",
            "label": "children",
            "offset": 0,
            "slot": "1",
            "type": "t_array(t_uint256)dyn_storage"
          },
          {
            "astId": 19560,
            "contract": "src/arbitration/devtools/KlerosCoreRuler.sol:KlerosCoreRuler",
            "label": "minStake",
            "offset": 0,
            "slot": "2",
            "type": "t_uint256"
          },
          {
            "astId": 19562,
            "contract": "src/arbitration/devtools/KlerosCoreRuler.sol:KlerosCoreRuler",
            "label": "alpha",
            "offset": 0,
            "slot": "3",
            "type": "t_uint256"
          },
          {
            "astId": 19564,
            "contract": "src/arbitration/devtools/KlerosCoreRuler.sol:KlerosCoreRuler",
            "label": "feeForJuror",
            "offset": 0,
            "slot": "4",
            "type": "t_uint256"
          },
          {
            "astId": 19566,
            "contract": "src/arbitration/devtools/KlerosCoreRuler.sol:KlerosCoreRuler",
            "label": "jurorsForCourtJump",
            "offset": 0,
            "slot": "5",
            "type": "t_uint256"
          },
          {
            "astId": 19570,
            "contract": "src/arbitration/devtools/KlerosCoreRuler.sol:KlerosCoreRuler",
            "label": "timesPerPeriod",
            "offset": 0,
            "slot": "6",
            "type": "t_array(t_uint256)4_storage"
          },
          {
            "astId": 19572,
            "contract": "src/arbitration/devtools/KlerosCoreRuler.sol:KlerosCoreRuler",
            "label": "disabled",
            "offset": 0,
            "slot": "10",
            "type": "t_bool"
          }
        ],
        "numberOfBytes": "352"
      },
      "t_struct(CurrencyRate)19603_storage": {
        "encoding": "inplace",
        "label": "struct KlerosCoreRuler.CurrencyRate",
        "members": [
          {
            "astId": 19598,
            "contract": "src/arbitration/devtools/KlerosCoreRuler.sol:KlerosCoreRuler",
            "label": "feePaymentAccepted",
            "offset": 0,
            "slot": "0",
            "type": "t_bool"
          },
          {
            "astId": 19600,
            "contract": "src/arbitration/devtools/KlerosCoreRuler.sol:KlerosCoreRuler",
            "label": "rateInEth",
            "offset": 1,
            "slot": "0",
            "type": "t_uint64"
          },
          {
            "astId": 19602,
            "contract": "src/arbitration/devtools/KlerosCoreRuler.sol:KlerosCoreRuler",
            "label": "rateDecimals",
            "offset": 9,
            "slot": "0",
            "type": "t_uint8"
          }
        ],
        "numberOfBytes": "32"
      },
      "t_struct(Dispute)19588_storage": {
        "encoding": "inplace",
        "label": "struct KlerosCoreRuler.Dispute",
        "members": [
          {
            "astId": 19575,
            "contract": "src/arbitration/devtools/KlerosCoreRuler.sol:KlerosCoreRuler",
            "label": "courtID",
            "offset": 0,
            "slot": "0",
            "type": "t_uint96"
          },
          {
            "astId": 19578,
            "contract": "src/arbitration/devtools/KlerosCoreRuler.sol:KlerosCoreRuler",
            "label": "arbitrated",
            "offset": 12,
            "slot": "0",
            "type": "t_contract(IArbitrableV2)25870"
          },
          {
            "astId": 19581,
            "contract": "src/arbitration/devtools/KlerosCoreRuler.sol:KlerosCoreRuler",
            "label": "period",
            "offset": 0,
            "slot": "1",
            "type": "t_enum(Period)19541"
          },
          {
            "astId": 19583,
            "contract": "src/arbitration/devtools/KlerosCoreRuler.sol:KlerosCoreRuler",
            "label": "ruled",
            "offset": 1,
            "slot": "1",
            "type": "t_bool"
          },
          {
            "astId": 19587,
            "contract": "src/arbitration/devtools/KlerosCoreRuler.sol:KlerosCoreRuler",
            "label": "rounds",
            "offset": 0,
            "slot": "2",
            "type": "t_array(t_struct(Round)19596_storage)dyn_storage"
          }
        ],
        "numberOfBytes": "96"
      },
      "t_struct(Round)19596_storage": {
        "encoding": "inplace",
        "label": "struct KlerosCoreRuler.Round",
        "members": [
          {
            "astId": 19590,
            "contract": "src/arbitration/devtools/KlerosCoreRuler.sol:KlerosCoreRuler",
            "label": "totalFeesForJurors",
            "offset": 0,
            "slot": "0",
            "type": "t_uint256"
          },
          {
            "astId": 19592,
            "contract": "src/arbitration/devtools/KlerosCoreRuler.sol:KlerosCoreRuler",
            "label": "sumFeeRewardPaid",
            "offset": 0,
            "slot": "1",
            "type": "t_uint256"
          },
          {
            "astId": 19595,
            "contract": "src/arbitration/devtools/KlerosCoreRuler.sol:KlerosCoreRuler",
            "label": "feeToken",
            "offset": 0,
            "slot": "2",
            "type": "t_contract(IERC20)2923"
          }
        ],
        "numberOfBytes": "96"
      },
      "t_struct(RulerSettings)19551_storage": {
        "encoding": "inplace",
        "label": "struct KlerosCoreRuler.RulerSettings",
        "members": [
          {
            "astId": 19544,
            "contract": "src/arbitration/devtools/KlerosCoreRuler.sol:KlerosCoreRuler",
            "label": "rulingMode",
            "offset": 0,
            "slot": "0",
            "type": "t_enum(RulingMode)19535"
          },
          {
            "astId": 19546,
            "contract": "src/arbitration/devtools/KlerosCoreRuler.sol:KlerosCoreRuler",
            "label": "presetRuling",
            "offset": 0,
            "slot": "1",
            "type": "t_uint256"
          },
          {
            "astId": 19548,
            "contract": "src/arbitration/devtools/KlerosCoreRuler.sol:KlerosCoreRuler",
            "label": "presetTied",
            "offset": 0,
            "slot": "2",
            "type": "t_bool"
          },
          {
            "astId": 19550,
            "contract": "src/arbitration/devtools/KlerosCoreRuler.sol:KlerosCoreRuler",
            "label": "presetOverridden",
            "offset": 1,
            "slot": "2",
            "type": "t_bool"
          }
        ],
        "numberOfBytes": "96"
      },
      "t_struct(RulingResult)19610_storage": {
        "encoding": "inplace",
        "label": "struct KlerosCoreRuler.RulingResult",
        "members": [
          {
            "astId": 19605,
            "contract": "src/arbitration/devtools/KlerosCoreRuler.sol:KlerosCoreRuler",
            "label": "ruling",
            "offset": 0,
            "slot": "0",
            "type": "t_uint256"
          },
          {
            "astId": 19607,
            "contract": "src/arbitration/devtools/KlerosCoreRuler.sol:KlerosCoreRuler",
            "label": "tied",
            "offset": 0,
            "slot": "1",
            "type": "t_bool"
          },
          {
            "astId": 19609,
            "contract": "src/arbitration/devtools/KlerosCoreRuler.sol:KlerosCoreRuler",
            "label": "overridden",
            "offset": 1,
            "slot": "1",
            "type": "t_bool"
          }
        ],
        "numberOfBytes": "64"
      },
      "t_uint256": {
        "encoding": "inplace",
        "label": "uint256",
        "numberOfBytes": "32"
      },
      "t_uint64": {
        "encoding": "inplace",
        "label": "uint64",
        "numberOfBytes": "8"
      },
      "t_uint8": {
        "encoding": "inplace",
        "label": "uint8",
        "numberOfBytes": "1"
      },
      "t_uint96": {
        "encoding": "inplace",
        "label": "uint96",
        "numberOfBytes": "12"
      }
    }
  }
}