{
  "address": "0xF74DaBfC5F5dbdBD07636637204d9C35326D2906",
  "abi": [
    {
      "inputs": [],
      "stateMutability": "nonpayable",
      "type": "constructor"
    },
    {
      "inputs": [],
      "name": "AllJurorsDrawn",
      "type": "error"
    },
    {
      "inputs": [],
      "name": "AlreadyInitialized",
      "type": "error"
    },
    {
      "inputs": [],
      "name": "AppealFeesNotEnough",
      "type": "error"
    },
    {
      "inputs": [],
      "name": "AppealPeriodNotPassed",
      "type": "error"
    },
    {
      "inputs": [],
      "name": "ArbitrationFeesNotEnough",
      "type": "error"
    },
    {
      "inputs": [],
      "name": "ArraysLengthMismatch",
      "type": "error"
    },
    {
      "inputs": [],
      "name": "CannotDisableClassicDK",
      "type": "error"
    },
    {
      "inputs": [],
      "name": "CommitPeriodNotPassed",
      "type": "error"
    },
    {
      "inputs": [],
      "name": "DepthLevelMax",
      "type": "error"
    },
    {
      "inputs": [],
      "name": "DisputeKitNotSupportedByCourt",
      "type": "error"
    },
    {
      "inputs": [],
      "name": "DisputeKitOnly",
      "type": "error"
    },
    {
      "inputs": [],
      "name": "DisputeNotAppealable",
      "type": "error"
    },
    {
      "inputs": [],
      "name": "DisputePeriodIsFinal",
      "type": "error"
    },
    {
      "inputs": [],
      "name": "DisputeStillDrawing",
      "type": "error"
    },
    {
      "inputs": [],
      "name": "EvidenceNotPassedAndNotAppeal",
      "type": "error"
    },
    {
      "inputs": [],
      "name": "FailedDelegateCall",
      "type": "error"
    },
    {
      "inputs": [],
      "name": "GovernorOnly",
      "type": "error"
    },
    {
      "inputs": [],
      "name": "GovernorOrInstructorOnly",
      "type": "error"
    },
    {
      "inputs": [],
      "name": "InstructorOnly",
      "type": "error"
    },
    {
      "inputs": [],
      "name": "InvalidDisputKitParent",
      "type": "error"
    },
    {
      "inputs": [],
      "name": "InvalidForkingCourtAsParent",
      "type": "error"
    },
    {
      "inputs": [
        {
          "internalType": "address",
          "name": "implementation",
          "type": "address"
        }
      ],
      "name": "InvalidImplementation",
      "type": "error"
    },
    {
      "inputs": [],
      "name": "MinStakeLowerThanParentCourt",
      "type": "error"
    },
    {
      "inputs": [],
      "name": "MustSupportDisputeKitClassic",
      "type": "error"
    },
    {
      "inputs": [],
      "name": "NoJurorDrawn",
      "type": "error"
    },
    {
      "inputs": [],
      "name": "NotEvidencePeriod",
      "type": "error"
    },
    {
      "inputs": [],
      "name": "NotExecutionPeriod",
      "type": "error"
    },
    {
      "inputs": [],
      "name": "NotInitializing",
      "type": "error"
    },
    {
      "inputs": [],
      "name": "RulingAlreadyExecuted",
      "type": "error"
    },
    {
      "inputs": [],
      "name": "SortitionModuleOnly",
      "type": "error"
    },
    {
      "inputs": [],
      "name": "StakingInTooManyCourts",
      "type": "error"
    },
    {
      "inputs": [],
      "name": "StakingLessThanCourtMinStake",
      "type": "error"
    },
    {
      "inputs": [],
      "name": "StakingNotPossibeInThisCourt",
      "type": "error"
    },
    {
      "inputs": [],
      "name": "StakingTransferFailed",
      "type": "error"
    },
    {
      "inputs": [],
      "name": "TokenNotAccepted",
      "type": "error"
    },
    {
      "inputs": [],
      "name": "TransferFailed",
      "type": "error"
    },
    {
      "inputs": [],
      "name": "UUPSUnauthorizedCallContext",
      "type": "error"
    },
    {
      "inputs": [
        {
          "internalType": "bytes32",
          "name": "slot",
          "type": "bytes32"
        }
      ],
      "name": "UUPSUnsupportedProxiableUUID",
      "type": "error"
    },
    {
      "inputs": [],
      "name": "UnstakingTransferFailed",
      "type": "error"
    },
    {
      "inputs": [],
      "name": "UnsuccessfulCall",
      "type": "error"
    },
    {
      "inputs": [],
      "name": "UnsupportedDisputeKit",
      "type": "error"
    },
    {
      "inputs": [],
      "name": "VotePeriodNotPassed",
      "type": "error"
    },
    {
      "inputs": [],
      "name": "WrongDisputeKitIndex",
      "type": "error"
    },
    {
      "anonymous": false,
      "inputs": [
        {
          "indexed": true,
          "internalType": "contract IERC20",
          "name": "_token",
          "type": "address"
        },
        {
          "indexed": true,
          "internalType": "bool",
          "name": "_accepted",
          "type": "bool"
        }
      ],
      "name": "AcceptedFeeToken",
      "type": "event"
    },
    {
      "anonymous": false,
      "inputs": [
        {
          "indexed": true,
          "internalType": "uint256",
          "name": "_disputeID",
          "type": "uint256"
        },
        {
          "indexed": true,
          "internalType": "contract IArbitrableV2",
          "name": "_arbitrable",
          "type": "address"
        }
      ],
      "name": "AppealDecision",
      "type": "event"
    },
    {
      "anonymous": false,
      "inputs": [
        {
          "indexed": true,
          "internalType": "uint256",
          "name": "_disputeID",
          "type": "uint256"
        },
        {
          "indexed": true,
          "internalType": "contract IArbitrableV2",
          "name": "_arbitrable",
          "type": "address"
        }
      ],
      "name": "AppealPossible",
      "type": "event"
    },
    {
      "anonymous": false,
      "inputs": [
        {
          "indexed": true,
          "internalType": "uint256",
          "name": "_courtID",
          "type": "uint256"
        },
        {
          "indexed": true,
          "internalType": "uint96",
          "name": "_parent",
          "type": "uint96"
        },
        {
          "indexed": false,
          "internalType": "bool",
          "name": "_hiddenVotes",
          "type": "bool"
        },
        {
          "indexed": false,
          "internalType": "uint256",
          "name": "_minStake",
          "type": "uint256"
        },
        {
          "indexed": false,
          "internalType": "uint256",
          "name": "_alpha",
          "type": "uint256"
        },
        {
          "indexed": false,
          "internalType": "uint256",
          "name": "_feeForJuror",
          "type": "uint256"
        },
        {
          "indexed": false,
          "internalType": "uint256",
          "name": "_jurorsForCourtJump",
          "type": "uint256"
        },
        {
          "indexed": false,
          "internalType": "uint256[4]",
          "name": "_timesPerPeriod",
          "type": "uint256[4]"
        },
        {
          "indexed": false,
          "internalType": "uint256[]",
          "name": "_supportedDisputeKits",
          "type": "uint256[]"
        }
      ],
      "name": "CourtCreated",
      "type": "event"
    },
    {
      "anonymous": false,
      "inputs": [
        {
          "indexed": true,
          "internalType": "uint256",
          "name": "_disputeID",
          "type": "uint256"
        },
        {
          "indexed": true,
          "internalType": "uint256",
          "name": "_roundID",
          "type": "uint256"
        },
        {
          "indexed": true,
          "internalType": "uint96",
          "name": "_fromCourtID",
          "type": "uint96"
        },
        {
          "indexed": false,
          "internalType": "uint96",
          "name": "_toCourtID",
          "type": "uint96"
        }
      ],
      "name": "CourtJump",
      "type": "event"
    },
    {
      "anonymous": false,
      "inputs": [
        {
          "indexed": true,
          "internalType": "uint96",
          "name": "_courtID",
          "type": "uint96"
        },
        {
          "indexed": false,
          "internalType": "bool",
          "name": "_hiddenVotes",
          "type": "bool"
        },
        {
          "indexed": false,
          "internalType": "uint256",
          "name": "_minStake",
          "type": "uint256"
        },
        {
          "indexed": false,
          "internalType": "uint256",
          "name": "_alpha",
          "type": "uint256"
        },
        {
          "indexed": false,
          "internalType": "uint256",
          "name": "_feeForJuror",
          "type": "uint256"
        },
        {
          "indexed": false,
          "internalType": "uint256",
          "name": "_jurorsForCourtJump",
          "type": "uint256"
        },
        {
          "indexed": false,
          "internalType": "uint256[4]",
          "name": "_timesPerPeriod",
          "type": "uint256[4]"
        }
      ],
      "name": "CourtModified",
      "type": "event"
    },
    {
      "anonymous": false,
      "inputs": [
        {
          "indexed": true,
          "internalType": "uint256",
          "name": "_disputeID",
          "type": "uint256"
        },
        {
          "indexed": true,
          "internalType": "contract IArbitrableV2",
          "name": "_arbitrable",
          "type": "address"
        }
      ],
      "name": "DisputeCreation",
      "type": "event"
    },
    {
      "anonymous": false,
      "inputs": [
        {
          "indexed": true,
          "internalType": "uint256",
          "name": "_disputeKitID",
          "type": "uint256"
        },
        {
          "indexed": true,
          "internalType": "contract IDisputeKit",
          "name": "_disputeKitAddress",
          "type": "address"
        }
      ],
      "name": "DisputeKitCreated",
      "type": "event"
    },
    {
      "anonymous": false,
      "inputs": [
        {
          "indexed": true,
          "internalType": "uint96",
          "name": "_courtID",
          "type": "uint96"
        },
        {
          "indexed": true,
          "internalType": "uint256",
          "name": "_disputeKitID",
          "type": "uint256"
        },
        {
          "indexed": true,
          "internalType": "bool",
          "name": "_enable",
          "type": "bool"
        }
      ],
      "name": "DisputeKitEnabled",
      "type": "event"
    },
    {
      "anonymous": false,
      "inputs": [
        {
          "indexed": true,
          "internalType": "uint256",
          "name": "_disputeID",
          "type": "uint256"
        },
        {
          "indexed": true,
          "internalType": "uint256",
          "name": "_roundID",
          "type": "uint256"
        },
        {
          "indexed": true,
          "internalType": "uint256",
          "name": "_fromDisputeKitID",
          "type": "uint256"
        },
        {
          "indexed": false,
          "internalType": "uint256",
          "name": "_toDisputeKitID",
          "type": "uint256"
        }
      ],
      "name": "DisputeKitJump",
      "type": "event"
    },
    {
      "anonymous": false,
      "inputs": [
        {
          "indexed": true,
          "internalType": "address",
          "name": "_address",
          "type": "address"
        },
        {
          "indexed": true,
          "internalType": "uint256",
          "name": "_disputeID",
          "type": "uint256"
        },
        {
          "indexed": false,
          "internalType": "uint256",
          "name": "_roundID",
          "type": "uint256"
        },
        {
          "indexed": false,
          "internalType": "uint256",
          "name": "_voteID",
          "type": "uint256"
        }
      ],
      "name": "Draw",
      "type": "event"
    },
    {
      "anonymous": false,
      "inputs": [
        {
          "indexed": false,
          "internalType": "uint64",
          "name": "version",
          "type": "uint64"
        }
      ],
      "name": "Initialized",
      "type": "event"
    },
    {
      "anonymous": false,
      "inputs": [
        {
          "indexed": true,
          "internalType": "uint256",
          "name": "_disputeID",
          "type": "uint256"
        },
        {
          "indexed": true,
          "internalType": "uint256",
          "name": "_roundID",
          "type": "uint256"
        },
        {
          "indexed": false,
          "internalType": "uint256",
          "name": "_pnkAmount",
          "type": "uint256"
        },
        {
          "indexed": false,
          "internalType": "uint256",
          "name": "_feeAmount",
          "type": "uint256"
        },
        {
          "indexed": false,
          "internalType": "contract IERC20",
          "name": "_feeToken",
          "type": "address"
        }
      ],
      "name": "LeftoverRewardSent",
      "type": "event"
    },
    {
      "anonymous": false,
      "inputs": [
        {
          "indexed": true,
          "internalType": "contract IERC20",
          "name": "_feeToken",
          "type": "address"
        },
        {
          "indexed": false,
          "internalType": "uint64",
          "name": "_rateInEth",
          "type": "uint64"
        },
        {
          "indexed": false,
          "internalType": "uint8",
          "name": "_rateDecimals",
          "type": "uint8"
        }
      ],
      "name": "NewCurrencyRate",
      "type": "event"
    },
    {
      "anonymous": false,
      "inputs": [
        {
          "indexed": true,
          "internalType": "uint256",
          "name": "_disputeID",
          "type": "uint256"
        },
        {
          "indexed": false,
          "internalType": "enum KlerosCoreUniversity.Period",
          "name": "_period",
          "type": "uint8"
        }
      ],
      "name": "NewPeriod",
      "type": "event"
    },
    {
      "anonymous": false,
      "inputs": [
        {
          "indexed": true,
          "internalType": "contract IArbitrableV2",
          "name": "_arbitrable",
          "type": "address"
        },
        {
          "indexed": true,
          "internalType": "uint256",
          "name": "_disputeID",
          "type": "uint256"
        },
        {
          "indexed": false,
          "internalType": "uint256",
          "name": "_ruling",
          "type": "uint256"
        }
      ],
      "name": "Ruling",
      "type": "event"
    },
    {
      "anonymous": false,
      "inputs": [
        {
          "indexed": true,
          "internalType": "address",
          "name": "_account",
          "type": "address"
        },
        {
          "indexed": true,
          "internalType": "uint256",
          "name": "_disputeID",
          "type": "uint256"
        },
        {
          "indexed": true,
          "internalType": "uint256",
          "name": "_roundID",
          "type": "uint256"
        },
        {
          "indexed": false,
          "internalType": "uint256",
          "name": "_degreeOfCoherency",
          "type": "uint256"
        },
        {
          "indexed": false,
          "internalType": "int256",
          "name": "_pnkAmount",
          "type": "int256"
        },
        {
          "indexed": false,
          "internalType": "int256",
          "name": "_feeAmount",
          "type": "int256"
        },
        {
          "indexed": false,
          "internalType": "contract IERC20",
          "name": "_feeToken",
          "type": "address"
        }
      ],
      "name": "TokenAndETHShift",
      "type": "event"
    },
    {
      "anonymous": false,
      "inputs": [
        {
          "indexed": true,
          "internalType": "address",
          "name": "newImplementation",
          "type": "address"
        }
      ],
      "name": "Upgraded",
      "type": "event"
    },
    {
      "inputs": [
        {
          "internalType": "contract IDisputeKit",
          "name": "_disputeKitAddress",
          "type": "address"
        }
      ],
      "name": "addNewDisputeKit",
      "outputs": [],
      "stateMutability": "nonpayable",
      "type": "function"
    },
    {
      "inputs": [
        {
          "internalType": "uint256",
          "name": "_disputeID",
          "type": "uint256"
        },
        {
          "internalType": "uint256",
          "name": "_numberOfChoices",
          "type": "uint256"
        },
        {
          "internalType": "bytes",
          "name": "_extraData",
          "type": "bytes"
        }
      ],
      "name": "appeal",
      "outputs": [],
      "stateMutability": "payable",
      "type": "function"
    },
    {
      "inputs": [
        {
          "internalType": "uint256",
          "name": "_disputeID",
          "type": "uint256"
        }
      ],
      "name": "appealCost",
      "outputs": [
        {
          "internalType": "uint256",
          "name": "cost",
          "type": "uint256"
        }
      ],
      "stateMutability": "view",
      "type": "function"
    },
    {
      "inputs": [
        {
          "internalType": "uint256",
          "name": "_disputeID",
          "type": "uint256"
        }
      ],
      "name": "appealPeriod",
      "outputs": [
        {
          "internalType": "uint256",
          "name": "start",
          "type": "uint256"
        },
        {
          "internalType": "uint256",
          "name": "end",
          "type": "uint256"
        }
      ],
      "stateMutability": "view",
      "type": "function"
    },
    {
      "inputs": [
        {
          "internalType": "bytes",
          "name": "_extraData",
          "type": "bytes"
        },
        {
          "internalType": "contract IERC20",
          "name": "_feeToken",
          "type": "address"
        }
      ],
      "name": "arbitrationCost",
      "outputs": [
        {
          "internalType": "uint256",
          "name": "cost",
          "type": "uint256"
        }
      ],
      "stateMutability": "view",
      "type": "function"
    },
    {
      "inputs": [
        {
          "internalType": "bytes",
          "name": "_extraData",
          "type": "bytes"
        }
      ],
      "name": "arbitrationCost",
      "outputs": [
        {
          "internalType": "uint256",
          "name": "cost",
          "type": "uint256"
        }
      ],
      "stateMutability": "view",
      "type": "function"
    },
    {
      "inputs": [
        {
          "internalType": "contract IERC20",
          "name": "_feeToken",
          "type": "address"
        },
        {
          "internalType": "bool",
          "name": "_accepted",
          "type": "bool"
        }
      ],
      "name": "changeAcceptedFeeTokens",
      "outputs": [],
      "stateMutability": "nonpayable",
      "type": "function"
    },
    {
      "inputs": [
        {
          "internalType": "uint96",
          "name": "_courtID",
          "type": "uint96"
        },
        {
          "internalType": "bool",
          "name": "_hiddenVotes",
          "type": "bool"
        },
        {
          "internalType": "uint256",
          "name": "_minStake",
          "type": "uint256"
        },
        {
          "internalType": "uint256",
          "name": "_alpha",
          "type": "uint256"
        },
        {
          "internalType": "uint256",
          "name": "_feeForJuror",
          "type": "uint256"
        },
        {
          "internalType": "uint256",
          "name": "_jurorsForCourtJump",
          "type": "uint256"
        },
        {
          "internalType": "uint256[4]",
          "name": "_timesPerPeriod",
          "type": "uint256[4]"
        }
      ],
      "name": "changeCourtParameters",
      "outputs": [],
      "stateMutability": "nonpayable",
      "type": "function"
    },
    {
      "inputs": [
        {
          "internalType": "contract IERC20",
          "name": "_feeToken",
          "type": "address"
        },
        {
          "internalType": "uint64",
          "name": "_rateInEth",
          "type": "uint64"
        },
        {
          "internalType": "uint8",
          "name": "_rateDecimals",
          "type": "uint8"
        }
      ],
      "name": "changeCurrencyRates",
      "outputs": [],
      "stateMutability": "nonpayable",
      "type": "function"
    },
    {
      "inputs": [
        {
          "internalType": "address payable",
          "name": "_governor",
          "type": "address"
        }
      ],
      "name": "changeGovernor",
      "outputs": [],
      "stateMutability": "nonpayable",
      "type": "function"
    },
    {
      "inputs": [
        {
          "internalType": "address",
          "name": "_instructor",
          "type": "address"
        }
      ],
      "name": "changeInstructor",
      "outputs": [],
      "stateMutability": "nonpayable",
      "type": "function"
    },
    {
      "inputs": [
        {
          "internalType": "address",
          "name": "_jurorProsecutionModule",
          "type": "address"
        }
      ],
      "name": "changeJurorProsecutionModule",
      "outputs": [],
      "stateMutability": "nonpayable",
      "type": "function"
    },
    {
      "inputs": [
        {
          "internalType": "contract IERC20",
          "name": "_pinakion",
          "type": "address"
        }
      ],
      "name": "changePinakion",
      "outputs": [],
      "stateMutability": "nonpayable",
      "type": "function"
    },
    {
      "inputs": [
        {
          "internalType": "contract ISortitionModuleUniversity",
          "name": "_sortitionModule",
          "type": "address"
        }
      ],
      "name": "changeSortitionModule",
      "outputs": [],
      "stateMutability": "nonpayable",
      "type": "function"
    },
    {
      "inputs": [
        {
          "internalType": "contract IERC20",
          "name": "_toToken",
          "type": "address"
        },
        {
          "internalType": "uint256",
          "name": "_amountInEth",
          "type": "uint256"
        }
      ],
      "name": "convertEthToTokenAmount",
      "outputs": [
        {
          "internalType": "uint256",
          "name": "",
          "type": "uint256"
        }
      ],
      "stateMutability": "view",
      "type": "function"
    },
    {
      "inputs": [
        {
          "internalType": "uint256",
          "name": "",
          "type": "uint256"
        }
      ],
      "name": "courts",
      "outputs": [
        {
          "internalType": "uint96",
          "name": "parent",
          "type": "uint96"
        },
        {
          "internalType": "bool",
          "name": "hiddenVotes",
          "type": "bool"
        },
        {
          "internalType": "uint256",
          "name": "minStake",
          "type": "uint256"
        },
        {
          "internalType": "uint256",
          "name": "alpha",
          "type": "uint256"
        },
        {
          "internalType": "uint256",
          "name": "feeForJuror",
          "type": "uint256"
        },
        {
          "internalType": "uint256",
          "name": "jurorsForCourtJump",
          "type": "uint256"
        },
        {
          "internalType": "bool",
          "name": "disabled",
          "type": "bool"
        }
      ],
      "stateMutability": "view",
      "type": "function"
    },
    {
      "inputs": [
        {
          "internalType": "uint96",
          "name": "_parent",
          "type": "uint96"
        },
        {
          "internalType": "bool",
          "name": "_hiddenVotes",
          "type": "bool"
        },
        {
          "internalType": "uint256",
          "name": "_minStake",
          "type": "uint256"
        },
        {
          "internalType": "uint256",
          "name": "_alpha",
          "type": "uint256"
        },
        {
          "internalType": "uint256",
          "name": "_feeForJuror",
          "type": "uint256"
        },
        {
          "internalType": "uint256",
          "name": "_jurorsForCourtJump",
          "type": "uint256"
        },
        {
          "internalType": "uint256[4]",
          "name": "_timesPerPeriod",
          "type": "uint256[4]"
        },
        {
          "internalType": "uint256[]",
          "name": "_supportedDisputeKits",
          "type": "uint256[]"
        }
      ],
      "name": "createCourt",
      "outputs": [],
      "stateMutability": "nonpayable",
      "type": "function"
    },
    {
      "inputs": [
        {
          "internalType": "uint256",
          "name": "_numberOfChoices",
          "type": "uint256"
        },
        {
          "internalType": "bytes",
          "name": "_extraData",
          "type": "bytes"
        }
      ],
      "name": "createDispute",
      "outputs": [
        {
          "internalType": "uint256",
          "name": "disputeID",
          "type": "uint256"
        }
      ],
      "stateMutability": "payable",
      "type": "function"
    },
    {
      "inputs": [
        {
          "internalType": "uint256",
          "name": "_numberOfChoices",
          "type": "uint256"
        },
        {
          "internalType": "bytes",
          "name": "_extraData",
          "type": "bytes"
        },
        {
          "internalType": "contract IERC20",
          "name": "_feeToken",
          "type": "address"
        },
        {
          "internalType": "uint256",
          "name": "_feeAmount",
          "type": "uint256"
        }
      ],
      "name": "createDispute",
      "outputs": [
        {
          "internalType": "uint256",
          "name": "disputeID",
          "type": "uint256"
        }
      ],
      "stateMutability": "nonpayable",
      "type": "function"
    },
    {
      "inputs": [
        {
          "internalType": "contract IERC20",
          "name": "",
          "type": "address"
        }
      ],
      "name": "currencyRates",
      "outputs": [
        {
          "internalType": "bool",
          "name": "feePaymentAccepted",
          "type": "bool"
        },
        {
          "internalType": "uint64",
          "name": "rateInEth",
          "type": "uint64"
        },
        {
          "internalType": "uint8",
          "name": "rateDecimals",
          "type": "uint8"
        }
      ],
      "stateMutability": "view",
      "type": "function"
    },
    {
      "inputs": [
        {
          "internalType": "uint256",
          "name": "_disputeID",
          "type": "uint256"
        }
      ],
      "name": "currentRuling",
      "outputs": [
        {
          "internalType": "uint256",
          "name": "ruling",
          "type": "uint256"
        },
        {
          "internalType": "bool",
          "name": "tied",
          "type": "bool"
        },
        {
          "internalType": "bool",
          "name": "overridden",
          "type": "bool"
        }
      ],
      "stateMutability": "view",
      "type": "function"
    },
    {
      "inputs": [
        {
          "internalType": "uint256",
          "name": "",
          "type": "uint256"
        }
      ],
      "name": "disputeKits",
      "outputs": [
        {
          "internalType": "contract IDisputeKit",
          "name": "",
          "type": "address"
        }
      ],
      "stateMutability": "view",
      "type": "function"
    },
    {
      "inputs": [
        {
          "internalType": "uint256",
          "name": "",
          "type": "uint256"
        }
      ],
      "name": "disputes",
      "outputs": [
        {
          "internalType": "uint96",
          "name": "courtID",
          "type": "uint96"
        },
        {
          "internalType": "contract IArbitrableV2",
          "name": "arbitrated",
          "type": "address"
        },
        {
          "internalType": "enum KlerosCoreUniversity.Period",
          "name": "period",
          "type": "uint8"
        },
        {
          "internalType": "bool",
          "name": "ruled",
          "type": "bool"
        },
        {
          "internalType": "uint256",
          "name": "lastPeriodChange",
          "type": "uint256"
        }
      ],
      "stateMutability": "view",
      "type": "function"
    },
    {
      "inputs": [
        {
          "internalType": "uint256",
          "name": "_disputeID",
          "type": "uint256"
        },
        {
          "internalType": "address",
          "name": "_juror",
          "type": "address"
        }
      ],
      "name": "draw",
      "outputs": [],
      "stateMutability": "nonpayable",
      "type": "function"
    },
    {
      "inputs": [
        {
          "internalType": "uint96",
          "name": "_courtID",
          "type": "uint96"
        },
        {
          "internalType": "uint256[]",
          "name": "_disputeKitIDs",
          "type": "uint256[]"
        },
        {
          "internalType": "bool",
          "name": "_enable",
          "type": "bool"
        }
      ],
      "name": "enableDisputeKits",
      "outputs": [],
      "stateMutability": "nonpayable",
      "type": "function"
    },
    {
      "inputs": [
        {
          "internalType": "uint256",
          "name": "_disputeID",
          "type": "uint256"
        },
        {
          "internalType": "uint256",
          "name": "_round",
          "type": "uint256"
        },
        {
          "internalType": "uint256",
          "name": "_iterations",
          "type": "uint256"
        }
      ],
      "name": "execute",
      "outputs": [],
      "stateMutability": "nonpayable",
      "type": "function"
    },
    {
      "inputs": [
        {
          "internalType": "address",
          "name": "_destination",
          "type": "address"
        },
        {
          "internalType": "uint256",
          "name": "_amount",
          "type": "uint256"
        },
        {
          "internalType": "bytes",
          "name": "_data",
          "type": "bytes"
        }
      ],
      "name": "executeGovernorProposal",
      "outputs": [],
      "stateMutability": "nonpayable",
      "type": "function"
    },
    {
      "inputs": [
        {
          "internalType": "uint256",
          "name": "_disputeID",
          "type": "uint256"
        }
      ],
      "name": "executeRuling",
      "outputs": [],
      "stateMutability": "nonpayable",
      "type": "function"
    },
    {
      "inputs": [],
      "name": "getDisputeKitsLength",
      "outputs": [
        {
          "internalType": "uint256",
          "name": "",
          "type": "uint256"
        }
      ],
      "stateMutability": "view",
      "type": "function"
    },
    {
      "inputs": [
        {
          "internalType": "uint256",
          "name": "_disputeID",
          "type": "uint256"
        }
      ],
      "name": "getNumberOfRounds",
      "outputs": [
        {
          "internalType": "uint256",
          "name": "",
          "type": "uint256"
        }
      ],
      "stateMutability": "view",
      "type": "function"
    },
    {
      "inputs": [
        {
          "internalType": "uint256",
          "name": "_disputeID",
          "type": "uint256"
        }
      ],
      "name": "getNumberOfVotes",
      "outputs": [
        {
          "internalType": "uint256",
          "name": "",
          "type": "uint256"
        }
      ],
      "stateMutability": "view",
      "type": "function"
    },
    {
      "inputs": [
        {
          "internalType": "uint256",
          "name": "_disputeID",
          "type": "uint256"
        },
        {
          "internalType": "uint256",
          "name": "_round",
          "type": "uint256"
        }
      ],
      "name": "getRoundInfo",
      "outputs": [
        {
          "components": [
            {
              "internalType": "uint256",
              "name": "disputeKitID",
              "type": "uint256"
            },
            {
              "internalType": "uint256",
              "name": "pnkAtStakePerJuror",
              "type": "uint256"
            },
            {
              "internalType": "uint256",
              "name": "totalFeesForJurors",
              "type": "uint256"
            },
            {
              "internalType": "uint256",
              "name": "nbVotes",
              "type": "uint256"
            },
            {
              "internalType": "uint256",
              "name": "repartitions",
              "type": "uint256"
            },
            {
              "internalType": "uint256",
              "name": "pnkPenalties",
              "type": "uint256"
            },
            {
              "internalType": "address[]",
              "name": "drawnJurors",
              "type": "address[]"
            },
            {
              "internalType": "uint256",
              "name": "sumFeeRewardPaid",
              "type": "uint256"
            },
            {
              "internalType": "uint256",
              "name": "sumPnkRewardPaid",
              "type": "uint256"
            },
            {
              "internalType": "contract IERC20",
              "name": "feeToken",
              "type": "address"
            },
            {
              "internalType": "uint256",
              "name": "drawIterations",
              "type": "uint256"
            }
          ],
          "internalType": "struct KlerosCoreUniversity.Round",
          "name": "",
          "type": "tuple"
        }
      ],
      "stateMutability": "view",
      "type": "function"
    },
    {
      "inputs": [
        {
          "internalType": "uint96",
          "name": "_courtID",
          "type": "uint96"
        }
      ],
      "name": "getTimesPerPeriod",
      "outputs": [
        {
          "internalType": "uint256[4]",
          "name": "timesPerPeriod",
          "type": "uint256[4]"
        }
      ],
      "stateMutability": "view",
      "type": "function"
    },
    {
      "inputs": [],
      "name": "governor",
      "outputs": [
        {
          "internalType": "address",
          "name": "",
          "type": "address"
        }
      ],
      "stateMutability": "view",
      "type": "function"
    },
    {
      "inputs": [
        {
          "internalType": "address",
          "name": "_governor",
          "type": "address"
        },
        {
          "internalType": "address",
          "name": "_instructor",
          "type": "address"
        },
        {
          "internalType": "contract IERC20",
          "name": "_pinakion",
          "type": "address"
        },
        {
          "internalType": "address",
          "name": "_jurorProsecutionModule",
          "type": "address"
        },
        {
          "internalType": "contract IDisputeKit",
          "name": "_disputeKit",
          "type": "address"
        },
        {
          "internalType": "bool",
          "name": "_hiddenVotes",
          "type": "bool"
        },
        {
          "internalType": "uint256[4]",
          "name": "_courtParameters",
          "type": "uint256[4]"
        },
        {
          "internalType": "uint256[4]",
          "name": "_timesPerPeriod",
          "type": "uint256[4]"
        },
        {
          "internalType": "contract ISortitionModuleUniversity",
          "name": "_sortitionModuleAddress",
          "type": "address"
        }
      ],
      "name": "initialize",
      "outputs": [],
      "stateMutability": "nonpayable",
      "type": "function"
    },
    {
      "inputs": [],
      "name": "instructor",
      "outputs": [
        {
          "internalType": "address",
          "name": "",
          "type": "address"
        }
      ],
      "stateMutability": "view",
      "type": "function"
    },
    {
      "inputs": [
        {
          "internalType": "uint256",
          "name": "_disputeID",
          "type": "uint256"
        }
      ],
      "name": "isDisputeKitJumping",
      "outputs": [
        {
          "internalType": "bool",
          "name": "",
          "type": "bool"
        }
      ],
      "stateMutability": "view",
      "type": "function"
    },
    {
      "inputs": [
        {
          "internalType": "uint96",
          "name": "_courtID",
          "type": "uint96"
        },
        {
          "internalType": "uint256",
          "name": "_disputeKitID",
          "type": "uint256"
        }
      ],
      "name": "isSupported",
      "outputs": [
        {
          "internalType": "bool",
          "name": "",
          "type": "bool"
        }
      ],
      "stateMutability": "view",
      "type": "function"
    },
    {
      "inputs": [],
      "name": "jurorProsecutionModule",
      "outputs": [
        {
          "internalType": "address",
          "name": "",
          "type": "address"
        }
      ],
      "stateMutability": "view",
      "type": "function"
    },
    {
      "inputs": [
        {
          "internalType": "uint256",
          "name": "_disputeID",
          "type": "uint256"
        }
      ],
      "name": "passPeriod",
      "outputs": [],
      "stateMutability": "nonpayable",
      "type": "function"
    },
    {
      "inputs": [],
      "name": "pinakion",
      "outputs": [
        {
          "internalType": "contract IERC20",
          "name": "",
          "type": "address"
        }
      ],
      "stateMutability": "view",
      "type": "function"
    },
    {
      "inputs": [],
      "name": "proxiableUUID",
      "outputs": [
        {
          "internalType": "bytes32",
          "name": "",
          "type": "bytes32"
        }
      ],
      "stateMutability": "view",
      "type": "function"
    },
    {
      "inputs": [
        {
          "internalType": "uint96",
          "name": "_courtID",
          "type": "uint96"
        },
        {
          "internalType": "uint256",
          "name": "_newStake",
          "type": "uint256"
        }
      ],
      "name": "setStake",
      "outputs": [],
      "stateMutability": "nonpayable",
      "type": "function"
    },
    {
      "inputs": [
        {
          "internalType": "address",
          "name": "_account",
          "type": "address"
        },
        {
          "internalType": "uint96",
          "name": "_courtID",
          "type": "uint96"
        },
        {
          "internalType": "uint256",
          "name": "_newStake",
          "type": "uint256"
        },
        {
          "internalType": "bool",
          "name": "_alreadyTransferred",
          "type": "bool"
        }
      ],
      "name": "setStakeBySortitionModule",
      "outputs": [],
      "stateMutability": "nonpayable",
      "type": "function"
    },
    {
      "inputs": [],
      "name": "sortitionModule",
      "outputs": [
        {
          "internalType": "contract ISortitionModuleUniversity",
          "name": "",
          "type": "address"
        }
      ],
      "stateMutability": "view",
      "type": "function"
    },
    {
      "inputs": [
        {
          "internalType": "address",
          "name": "newImplementation",
          "type": "address"
        },
        {
          "internalType": "bytes",
          "name": "data",
          "type": "bytes"
        }
      ],
      "name": "upgradeToAndCall",
      "outputs": [],
      "stateMutability": "payable",
      "type": "function"
    }
  ],
  "transactionHash": "0xf99e544be3b28ba3d5d7dc89481e4698807522d7dd1d431faf2305c6cbb9265f",
  "args": [],
  "numDeployments": 1,
  "solcInputHash": "a5602534c00c2f67ca4b6a1cab8c717e",
  "bytecode": "0x60a0604052306080523480156200001557600080fd5b506200002062000026565b620000d9565b7ff0c57e16840df040f15088dc2f81fe391c3923bec73e23a9662efc9c229c6a0e805468010000000000000000900460ff1615620000765760405162dc149f60e41b815260040160405180910390fd5b80546001600160401b0390811614620000d65780546001600160401b0319166001600160401b0390811782556040519081527fc7f505b2f371ae2175ee4913f4499e1f2633a7b5936321eed1cdaeb6115181d29060200160405180910390a15b50565b60805161566962000103600039600081816115e10152818161160a015261180101526156696000f3fe60806040526004361061027c5760003560e01c80638a9bb02a1161014f578063d07368bd116100c1578063f6506db41161007a578063f6506db414610867578063f7434ea914610887578063fbb519e7146108a7578063fbf405b0146108c7578063fc6f8f16146108e7578063fe524c391461090757600080fd5b8063d07368bd146107b2578063d4d1d76a146107d2578063d874514b146107e7578063d98493f614610807578063e399d29b14610827578063e4c0aaf41461084757600080fd5b8063b702a87911610113578063b702a8791461070c578063c13517e11461072c578063c258bb191461073f578063c35699021461075f578063c71f425314610772578063cf0c38f81461079257600080fd5b80638a9bb02a1461064a5780638bb0487514610677578063acdbf51d14610697578063afe15cfb146106b7578063b0049637146106ec57600080fd5b80632e1daf2f116101f357806371ae413d116101ac57806371ae413d1461058a578063751accd0146105aa5780637717a6e8146105ca5780637934c0be146105ea57806382d022371461060a57806386541b241461062a57600080fd5b80632e1daf2f146104c45780633cfd1184146104e45780634f1ef2861461051157806352d1902d14610524578063564a565d1461053957806359ec827e1461056a57600080fd5b8063115d537611610245578063115d5376146103885780631860592b146103a857806319b81529146103d65780631c3db16d146104065780631f5a0dd2146104435780632d29a47b146104a457600080fd5b8062f5822c146102815780630219da79146102a357806309cfdc9c1461031b5780630b7414bc1461033b5780630c340a241461035b575b600080fd5b34801561028d57600080fd5b506102a161029c366004614846565b610927565b005b3480156102af57600080fd5b506102ee6102be366004614846565b60086020526000908152604090205460ff808216916001600160401b0361010082041691600160481b9091041683565b6040805193151584526001600160401b03909216602084015260ff16908201526060015b60405180910390f35b34801561032757600080fd5b506102a1610336366004614846565b610974565b34801561034757600080fd5b506102a161035636600461494e565b6109da565b34801561036757600080fd5b5060005461037b906001600160a01b031681565b60405161031291906149af565b34801561039457600080fd5b506102a16103a33660046149c3565b610b11565b3480156103b457600080fd5b506103c86103c33660046149dc565b611048565b604051908152602001610312565b3480156103e257600080fd5b506103f66103f13660046149c3565b6110a2565b6040519015158152602001610312565b34801561041257600080fd5b506104266104213660046149c3565b61119b565b604080519384529115156020840152151590820152606001610312565b34801561044f57600080fd5b5061046361045e3660046149c3565b61129c565b604080516001600160601b0390981688529515156020880152948601939093526060850191909152608084015260a0830152151560c082015260e001610312565b3480156104b057600080fd5b506102a16104bf366004614a08565b6112fb565b3480156104d057600080fd5b5060045461037b906001600160a01b031681565b3480156104f057600080fd5b506105046104ff366004614a34565b611563565b6040516103129190614a72565b6102a161051f366004614aef565b6115cd565b34801561053057600080fd5b506103c86117f4565b34801561054557600080fd5b506105596105543660046149c3565b611852565b604051610312959493929190614b76565b34801561057657600080fd5b506103c86105853660046149c3565b6118ae565b34801561059657600080fd5b5060015461037b906001600160a01b031681565b3480156105b657600080fd5b506102a16105c5366004614bb5565b611a03565b3480156105d657600080fd5b506102a16105e5366004614c0d565b611aad565b3480156105f657600080fd5b506102a1610605366004614c29565b611abb565b34801561061657600080fd5b506102a1610625366004614c62565b611b3a565b34801561063657600080fd5b506102a1610645366004614d21565b611bf7565b34801561065657600080fd5b5061066a610665366004614d8f565b611dd4565b6040516103129190614df6565b34801561068357600080fd5b506102a16106923660046149c3565b611f60565b3480156106a357600080fd5b5061037b6106b23660046149c3565b6120c4565b3480156106c357600080fd5b506106d76106d23660046149c3565b6120ee565b60408051928352602083019190915201610312565b3480156106f857600080fd5b506102a1610707366004614846565b61219a565b34801561071857600080fd5b506102a1610727366004614e9b565b6121e7565b6103c861073a366004614ec0565b6125fa565b34801561074b57600080fd5b506102a161075a366004614846565b612632565b6102a161076d366004614ef0565b61267f565b34801561077e57600080fd5b506103c861078d3660046149c3565b612b53565b34801561079e57600080fd5b5060035461037b906001600160a01b031681565b3480156107be57600080fd5b506102a16107cd366004614846565b612bbb565b3480156107de57600080fd5b506006546103c8565b3480156107f357600080fd5b506102a1610802366004614f29565b612c64565b34801561081357600080fd5b506103c861082236600461500a565b612f62565b34801561083357600080fd5b506102a1610842366004615055565b612faf565b34801561085357600080fd5b506102a1610862366004614846565b61329f565b34801561087357600080fd5b506103c8610882366004615110565b6132ec565b34801561089357600080fd5b506103c86108a2366004615176565b6133d2565b3480156108b357600080fd5b506102a16108c23660046151aa565b61341e565b3480156108d357600080fd5b5060025461037b906001600160a01b031681565b3480156108f357600080fd5b506103c86109023660046149c3565b61345e565b34801561091357600080fd5b506103f6610922366004614c0d565b61348d565b6000546001600160a01b031633146109525760405163c383977560e01b815260040160405180910390fd5b600280546001600160a01b0319166001600160a01b0392909216919091179055565b6000546001600160a01b0316331480159061099a57506001546001600160a01b03163314155b156109b857604051633244d29960e21b815260040160405180910390fd5b600180546001600160a01b0319166001600160a01b0392909216919091179055565b6000546001600160a01b03163314610a055760405163c383977560e01b815260040160405180910390fd5b60005b8251811015610b0b578115610aa457828181518110610a2957610a296151fb565b602002602001015160001480610a5c57506006548351849083908110610a5157610a516151fb565b602002602001015110155b15610a7a57604051633d58a98960e11b815260040160405180910390fd5b610a9f84848381518110610a9057610a906151fb565b602002602001015160016134d5565b610b03565b6001838281518110610ab857610ab86151fb565b602002602001015103610ade576040516356d111fd60e11b815260040160405180910390fd5b610b0384848381518110610af457610af46151fb565b602002602001015160006134d5565b600101610a08565b50505050565b600060078281548110610b2657610b266151fb565b600091825260208220600490910201805460058054929450916001600160601b03909116908110610b5957610b596151fb565b6000918252602082206003850154600c909202019250610b7b90600190615227565b90506000836003018281548110610b9457610b946151fb565b600091825260208220600b909102019150600185015460ff166004811115610bbe57610bbe614b3e565b03610c995781158015610c0d57506001840154600684019060ff166004811115610bea57610bea614b3e565b60048110610bfa57610bfa6151fb565b01546002850154610c0b9042615227565b105b15610c2b57604051633e9727df60e01b815260040160405180910390fd5b6003810154600682015414610c53576040516309e4486b60e41b815260040160405180910390fd5b8254600160601b900460ff16610c6a576002610c6d565b60015b60018086018054909160ff1990911690836004811115610c8f57610c8f614b3e565b0217905550610ffa565b60018085015460ff166004811115610cb357610cb3614b3e565b03610dc3576001840154600684019060ff166004811115610cd657610cd6614b3e565b60048110610ce657610ce66151fb565b01546002850154610cf79042615227565b108015610d8e57506006816000015481548110610d1657610d166151fb565b600091825260209091200154604051630baa64d160e01b8152600481018790526001600160a01b0390911690630baa64d190602401602060405180830381865afa158015610d68573d6000803e3d6000fd5b505050506040513d601f19601f82011682018060405250810190610d8c919061523a565b155b15610dac57604051634dfa578560e11b815260040160405180910390fd5b6001808501805460029260ff199091169083610c8f565b6002600185015460ff166004811115610dde57610dde614b3e565b03610f2c576001840154600684019060ff166004811115610e0157610e01614b3e565b60048110610e1157610e116151fb565b01546002850154610e229042615227565b108015610eb957506006816000015481548110610e4157610e416151fb565b6000918252602090912001546040516336a66c7560e11b8152600481018790526001600160a01b0390911690636d4cd8ea90602401602060405180830381865afa158015610e93573d6000803e3d6000fd5b505050506040513d601f19601f82011682018060405250810190610eb7919061523a565b155b15610ed757604051631988dead60e31b815260040160405180910390fd5b600184018054600360ff199091161790558354604051600160601b9091046001600160a01b03169086907fa5d41b970d849372be1da1481ffd78d162bfe57a7aa2fe4e5fb73481fa5ac24f90600090a3610ffa565b6003600185015460ff166004811115610f4757610f47614b3e565b03610fc1576001840154600684019060ff166004811115610f6a57610f6a614b3e565b60048110610f7a57610f7a6151fb565b01546002850154610f8b9042615227565b1015610faa57604051632f4dfd8760e01b815260040160405180910390fd5b6001808501805460049260ff199091169083610c8f565b6004600185015460ff166004811115610fdc57610fdc614b3e565b03610ffa576040516307f38c8f60e11b815260040160405180910390fd5b426002850155600184015460405186917f4e6f5cf43b95303e86aee81683df63992061723a829ee012db21dad388756b91916110399160ff1690615257565b60405180910390a25050505050565b6001600160a01b03821660009081526008602052604081205461010081046001600160401b03169061108590600160481b900460ff16600a615349565b61108f9084615358565b6110999190615385565b90505b92915050565b600080600783815481106110b8576110b86151fb565b60009182526020822060036004909202019081018054919350906110de90600190615227565b815481106110ee576110ee6151fb565b600091825260208220845460058054600b909402909201945090916001600160601b03909116908110611123576111236151fb565b90600052602060002090600c0201905080600501548260030154101561114e57506000949350505050565b80546005805490916001600160601b031690811061116e5761116e6151fb565b6000918252602080832094548352600a600c9092029094010190925250604090205460ff16159392505050565b600080600080600785815481106111b4576111b46151fb565b60009182526020822060036004909202019081018054919350906111da90600190615227565b815481106111ea576111ea6151fb565b90600052602060002090600b0201905060006006826000015481548110611213576112136151fb565b600091825260209091200154604051631c3db16d60e01b8152600481018990526001600160a01b0390911691508190631c3db16d90602401606060405180830381865afa158015611268573d6000803e3d6000fd5b505050506040513d601f19601f8201168201806040525081019061128c9190615399565b9199909850909650945050505050565b600581815481106112ac57600080fd5b60009182526020909120600c9091020180546002820154600383015460048401546005850154600b909501546001600160601b038516965060ff600160601b9095048516959394929391921687565b60008060078581548110611311576113116151fb565b600091825260209091206004918202019150600182015460ff16600481111561133c5761133c614b3e565b1461135a57604051638794ce4b60e01b815260040160405180910390fd5b80600301848154811061136f5761136f6151fb565b6000918252602082206004600b9092020190810154909350915061139384836153d1565b60058401546006850154600286015492935090916000906113b5908390615385565b905060008660010154905060008060068960000154815481106113da576113da6151fb565b60009182526020909120015460405163368efae360e21b8152600481018e9052602481018d90526001600160a01b039091169150819063da3beb8c90604401602060405180830381865afa158015611436573d6000803e3d6000fd5b505050506040513d601f19601f8201168201806040525081019061145a91906153e4565b915050806000036114765783861115611471578395505b611496565b611481846002615358565b86111561149657611493846002615358565b95505b60048801869055865b8681101561154257848110156114f8576114f16040518061010001604052808e81526020018d81526020018481526020018781526020018681526020018581526020018881526020018381525061355d565b955061153a565b61153a6040518061010001604052808e81526020018d815260200184815260200187815260200186815260200185815260200188815260200183815250613a2e565b60010161149f565b508488600501541461155657600588018590555b5050505050505050505050565b61156b614786565b6005826001600160601b031681548110611587576115876151fb565b6000918252602090912060408051608081019182905292600c029091016006019060049082845b8154815260200190600101908083116115ae5750505050509050919050565b6115d682613f70565b306001600160a01b037f000000000000000000000000000000000000000000000000000000000000000016148061165457507f00000000000000000000000000000000000000000000000000000000000000006001600160a01b03166116486000805160206156148339815191525490565b6001600160a01b031614155b156116725760405163703e46dd60e11b815260040160405180910390fd5b816001600160a01b03166352d1902d6040518163ffffffff1660e01b8152600401602060405180830381865afa9250505080156116cc575060408051601f3d908101601f191682019092526116c9918101906153e4565b60015b6116f45781604051630c76093760e01b81526004016116eb91906149af565b60405180910390fd5b600080516020615614833981519152811461172557604051632a87526960e21b8152600481018290526024016116eb565b6000805160206156148339815191528390556040516001600160a01b038416907fbc7cd75a20ee27fd9adebab32041f755214dbc6bffa90cc0225b39da2e5c2d3b90600090a28151156117ee576000836001600160a01b03168360405161178c9190615421565b600060405180830381855af49150503d80600081146117c7576040519150601f19603f3d011682016040523d82523d6000602084013e6117cc565b606091505b5050905080610b0b576040516339b21b5d60e11b815260040160405180910390fd5b505b5050565b6000306001600160a01b037f0000000000000000000000000000000000000000000000000000000000000000161461183f5760405163703e46dd60e11b815260040160405180910390fd5b5060008051602061561483398151915290565b6007818154811061186257600080fd5b60009182526020909120600490910201805460018201546002909201546001600160601b0382169350600160601b9091046001600160a01b03169160ff80821692610100909204169085565b600080600783815481106118c4576118c46151fb565b60009182526020822060036004909202019081018054919350906118ea90600190615227565b815481106118fa576118fa6151fb565b600091825260208220845460058054600b909402909201945090916001600160601b0390911690811061192f5761192f6151fb565b90600052602060002090600c0201905080600501548260030154106119ce5782546001600160601b031660001901611970576001600160ff1b0393506119fb565b6003820154611980906002615358565b61198b9060016153d1565b81546005805490916001600160601b03169081106119ab576119ab6151fb565b90600052602060002090600c0201600401546119c79190615358565b93506119fb565b60038201546119de906002615358565b6119e99060016153d1565b81600401546119f89190615358565b93505b505050919050565b6000546001600160a01b03163314611a2e5760405163c383977560e01b815260040160405180910390fd5b6000836001600160a01b03168383604051611a499190615421565b60006040518083038185875af1925050503d8060008114611a86576040519150601f19603f3d011682016040523d82523d6000602084013e611a8b565b606091505b5050905080610b0b576040516322092f2f60e11b815260040160405180910390fd5b6117ee338383600080613f9e565b6000546001600160a01b03163314611ae65760405163c383977560e01b815260040160405180910390fd5b6001600160a01b038216600081815260086020526040808220805460ff191685151590811790915590519092917f541615e167511d757a7067a700eb54431b256bb458dfdce0ac58bf2ed0aefd4491a35050565b6000546001600160a01b03163314611b655760405163c383977560e01b815260040160405180910390fd5b6001600160a01b038316600081815260086020908152604091829020805469ffffffffffffffffff0019166101006001600160401b03881690810260ff60481b191691909117600160481b60ff8816908102919091179092558351908152918201527fe6996b7f03e9bd02228b99d3d946932e3197f505f60542c4cfbc919441d8a4e6910160405180910390a2505050565b6000546001600160a01b03163314611c225760405163c383977560e01b815260040160405180910390fd5b60006005886001600160601b031681548110611c4057611c406151fb565b90600052602060002090600c0201905060016001600160601b0316886001600160601b031614158015611ca2575080546005805488926001600160601b0316908110611c8e57611c8e6151fb565b90600052602060002090600c020160020154115b15611cc057604051639717078960e01b815260040160405180910390fd5b60005b6001820154811015611d3b57866005836001018381548110611ce757611ce76151fb565b906000526020600020015481548110611d0257611d026151fb565b90600052602060002090600c0201600201541015611d3357604051639717078960e01b815260040160405180910390fd5b600101611cc3565b5060028101869055805460ff60601b1916600160601b8815150217815560038101859055600480820185905560058201849055611d7e90600683019084906147a4565b50876001600160601b03167f709b1f5fda58af9a4f52dacd1ec404840a8148455700cce155a2bd8cf127ef1a888888888888604051611dc29695949392919061543d565b60405180910390a25050505050505050565b611e3a60405180610160016040528060008152602001600081526020016000815260200160008152602001600081526020016000815260200160608152602001600081526020016000815260200160006001600160a01b03168152602001600081525090565b60078381548110611e4d57611e4d6151fb565b90600052602060002090600402016003018281548110611e6f57611e6f6151fb565b90600052602060002090600b02016040518061016001604052908160008201548152602001600182015481526020016002820154815260200160038201548152602001600482015481526020016005820154815260200160068201805480602002602001604051908101604052809291908181526020018280548015611f1e57602002820191906000526020600020905b81546001600160a01b03168152600190910190602001808311611f00575b5050509183525050600782015460208201526008820154604082015260098201546001600160a01b03166060820152600a909101546080909101529392505050565b600060078281548110611f7557611f756151fb565b600091825260209091206004918202019150600182015460ff166004811115611fa057611fa0614b3e565b14611fbe57604051638794ce4b60e01b815260040160405180910390fd5b6001810154610100900460ff1615611fe95760405163c977f8d360e01b815260040160405180910390fd5b6000611ff48361119b565b505060018301805461010061ff001990911617905582546040518281529192508491600160601b9091046001600160a01b0316907f394027a5fa6e098a1191094d1719d6929b9abc535fcc0c8f448d6a4e756222769060200160405180910390a3815460405163188d362b60e11b81526004810185905260248101839052600160601b9091046001600160a01b03169063311a6c5690604401600060405180830381600087803b1580156120a757600080fd5b505af11580156120bb573d6000803e3d6000fd5b50505050505050565b600681815481106120d457600080fd5b6000918252602090912001546001600160a01b0316905081565b600080600060078481548110612106576121066151fb565b6000918252602090912060049091020190506003600182015460ff16600481111561213357612133614b3e565b0361218b576002810154815460058054929550916001600160601b03909116908110612161576121616151fb565b600091825260209091206009600c909202010154600282015461218491906153d1565b9150612194565b60009250600091505b50915091565b6000546001600160a01b031633146121c55760405163c383977560e01b815260040160405180910390fd5b600480546001600160a01b0319166001600160a01b0392909216919091179055565b6000546001600160a01b0316331480159061220d57506001546001600160a01b03163314155b1561222b57604051633244d29960e21b815260040160405180910390fd5b600060078381548110612240576122406151fb565b906000526020600020906004020190506000600182600301805490506122669190615227565b9050600082600301828154811061227f5761227f6151fb565b600091825260208220600b909102019150600184015460ff1660048111156122a9576122a9614b3e565b146122c757604051638285c4ef60e01b815260040160405180910390fd5b60038101546006820154106122ef57604051634df06de360e01b815260040160405180910390fd5b60048054604051633c694c4160e21b81526001600160a01b039091169163f1a531049161231e918891016149af565b600060405180830381600087803b15801561233857600080fd5b505af115801561234c573d6000803e3d6000fd5b5050505060006006826000015481548110612369576123696151fb565b6000918252602082200154600a8401546001600160a01b0390911692506123919060016153d1565b60405163695c01ad60e11b815260048101899052602481018290529091506000906001600160a01b0384169063d2b8035a906044016020604051808303816000875af11580156123e5573d6000803e3d6000fd5b505050506040513d601f19601f820116820180604052508101906124099190615470565b90506001600160a01b03811661243257604051632e38b8f760e11b815260040160405180910390fd5b6004805460018601546040516310f0b12f60e11b81526001600160a01b03909216926321e1625e9261246892869290910161548d565b600060405180830381600087803b15801561248257600080fd5b505af1158015612496573d6000803e3d6000fd5b50505060068501546040518a92506001600160a01b038416917f6119cf536152c11e0a9a6c22f3953ce4ecc93ee54fa72ffa326ffabded21509b916124e3918a8252602082015260400190565b60405180910390a36006840180546001810182556000828152602090200180546001600160a01b0319166001600160a01b038416179055600385015490540361258a5760048054604051632e96bc2360e11b81529182018a9052602482018790526001600160a01b031690635d2d784690604401600060405180830381600087803b15801561257157600080fd5b505af1158015612585573d6000803e3d6000fd5b505050505b50600a8301555060048054604051633c694c4160e21b81526001600160a01b039091169163f1a53104916125c191600091016149af565b600060405180830381600087803b1580156125db57600080fd5b505af11580156125ef573d6000803e3d6000fd5b505050505050505050565b6000612605826133d2565b34101561262557604051630e3360f160e21b815260040160405180910390fd5b6110998383600034614158565b6000546001600160a01b0316331461265d5760405163c383977560e01b815260040160405180910390fd5b600380546001600160a01b0319166001600160a01b0392909216919091179055565b612688836118ae565b3410156126a857604051633191f8f160e01b815260040160405180910390fd5b6000600784815481106126bd576126bd6151fb565b6000918252602090912060049091020190506003600182015460ff1660048111156126ea576126ea614b3e565b14612708576040516337cdefcb60e21b815260040160405180910390fd5b6003810180546000919061271e90600190615227565b8154811061272e5761272e6151fb565b90600052602060002090600b020190506006816000015481548110612755576127556151fb565b6000918252602090912001546001600160a01b031633146127895760405163065f245f60e01b815260040160405180910390fd5b8154815460038401805460018101825560009182526020909120600580546001600160601b0390951694600b90930290910191849081106127cc576127cc6151fb565b90600052602060002090600c0201600501548460030154106128d5576005836001600160601b031681548110612804576128046151fb565b60009182526020909120600c9091020154600580546001600160601b0390921694509084908110612837576128376151fb565b60009182526020808320858452600a600c90930201919091019052604090205460ff1661286357600191505b84546001600160601b038481169116146128d557845460038601546001600160601b039091169061289690600190615227565b6040516001600160601b03861681528a907f736e3f52761298c8c0823e1ebf482ed3c5ecb304f743d2d91a7c006e8e8d7a1f9060200160405180910390a45b84546001600160601b0319166001600160601b038416908117865560018601805460ff1916905542600287015560058054600092908110612918576129186151fb565b90600052602060002090600c020190508060040154346129389190615385565b8260030181905550612710816003015482600201546129579190615358565b6129619190615385565b60018084019190915534600284015583835560045460038801546001600160a01b039091169163d09f392d918c9161299891615227565b6040516001600160e01b031960e085901b16815260048101929092526024820152604401600060405180830381600087803b1580156129d657600080fd5b505af11580156129ea573d6000803e3d6000fd5b505086548454149150612ad090505784546003870154612a0c90600190615227565b83546040519081528b907fcbe7939a71f0b369c7471d760a0a99b60b7bb010ee0406cba8a46679d1ea77569060200160405180910390a46006826000015481548110612a5a57612a5a6151fb565b60009182526020909120015460038301546040516302dbb79560e61b81526001600160a01b039092169163b6ede54091612a9d918d918d918d91906004016154a6565b600060405180830381600087803b158015612ab757600080fd5b505af1158015612acb573d6000803e3d6000fd5b505050505b8554604051600160601b9091046001600160a01b0316908a907f9c9b64db9e130f48381bf697abf638e73117dbfbfd7a4484f2da3ba188f4187d90600090a3887f4e6f5cf43b95303e86aee81683df63992061723a829ee012db21dad388756b916000604051612b409190615257565b60405180910390a2505050505050505050565b60008060078381548110612b6957612b696151fb565b906000526020600020906004020190508060030160018260030180549050612b919190615227565b81548110612ba157612ba16151fb565b90600052602060002090600b020160030154915050919050565b6000546001600160a01b03163314612be65760405163c383977560e01b815260040160405180910390fd5b6006805460018101825560009182527ff652222313e28459528d920b65115c16c04f3efc82aaedc97be59f3f377c0d3f810180546001600160a01b0319166001600160a01b0385169081179091556040519192909183917f44063d258760b98116d53815adbc906a56b3563e540148cc0fc2457f83b5eeb291a35050565b6000546001600160a01b03163314612c8f5760405163c383977560e01b815260040160405180910390fd5b856005896001600160601b031681548110612cac57612cac6151fb565b90600052602060002090600c0201600201541115612cdd57604051639717078960e01b815260040160405180910390fd5b8051600003612cff5760405163402585f560e01b815260040160405180910390fd5b6001600160601b038816612d2657604051631ef4f64960e01b815260040160405180910390fd5b60058054600181018255600091825290600c82027f036b6384b5eca791c62761152d0c79bb0604c104a5fb6f4eb0703f3154bb3db001905b8351811015612e1557838181518110612d7957612d796151fb565b602002602001015160001480612dac57506006548451859083908110612da157612da16151fb565b602002602001015110155b15612dca57604051633d58a98960e11b815260040160405180910390fd5b600182600a016000868481518110612de457612de46151fb565b6020908102919091018101518252810191909152604001600020805460ff1916911515919091179055600101612d5e565b5060016000908152600a8201602052604090205460ff16612e49576040516306351b3d60e31b815260040160405180910390fd5b80546001600160601b0319166001600160601b038b161781556040805160008152602081019182905251612e819160018401916147e2565b50805460ff60601b1916600160601b8a1515021781556002810188905560038101879055600480820187905560058201869055612ec490600683019086906147a4565b5060058a6001600160601b031681548110612ee157612ee16151fb565b600091825260208083206001600c909302018201805492830181558352909120018290556040516001600160601b038b169083907f3475f0ed7216dd7d453db663a1c3024e4f36cc925521d54edb9d13e022cbee3d90612f4e908d908d908d908d908d908d908d906154ef565b60405180910390a350505050505050505050565b6000612fa7826103c386868080601f0160208091040260200160405190810160405280939291908181526020018383808284376000920191909152506133d292505050565b949350505050565b7ff0c57e16840df040f15088dc2f81fe391c3923bec73e23a9662efc9c229c6a0e805460019190600160401b900460ff1680612ff8575080546001600160401b03808416911610155b156130155760405162dc149f60e41b815260040160405180910390fd5b805468ffffffffffffffffff19166001600160401b03831617600160401b178155600080546001600160a01b03808e166001600160a01b0319928316178355600180548e8316908416178155600280548e8416908516178155600380548e8516908616179055600480548985169086161790556006805481875291820190557ff652222313e28459528d920b65115c16c04f3efc82aaedc97be59f3f377c0d40018054928c1692909316821790925560405190927f44063d258760b98116d53815adbc906a56b3563e540148cc0fc2457f83b5eeb291a360058054600082815260028201909255600c6001909101027f036b6384b5eca791c62761152d0c79bb0604c104a5fb6f4eb0703f3154bb3db0810180546001600160601b031916815560408051938452602084019081905292519092613174927f036b6384b5eca791c62761152d0c79bb0604c104a5fb6f4eb0703f3154bb3db101916147e2565b50805460ff60601b1916600160601b8815150217815585516002820155602086015160038201556040860151600480830191909155606087015160058301556131c390600683019087906147a4565b50805486516020808901516040808b015160608c0151825160008082529581019093526001600160601b03909616956001957f3475f0ed7216dd7d453db663a1c3024e4f36cc925521d54edb9d13e022cbee3d958f959194919392918e915060405161323597969594939291906154ef565b60405180910390a361324a60018060016134d5565b50805460ff60401b191681556040516001600160401b03831681527fc7f505b2f371ae2175ee4913f4499e1f2633a7b5936321eed1cdaeb6115181d29060200160405180910390a15050505050505050505050565b6000546001600160a01b031633146132ca5760405163c383977560e01b815260040160405180910390fd5b600080546001600160a01b0319166001600160a01b0392909216919091179055565b6001600160a01b03821660009081526008602052604081205460ff166133255760405163e51cf7bf60e01b815260040160405180910390fd5b613330858585612f62565b82101561335057604051630e3360f160e21b815260040160405180910390fd5b6133656001600160a01b03841633308561443f565b613382576040516312171d8360e31b815260040160405180910390fd5b6133c68686868080601f0160208091040260200160405190810160405280939291908181526020018383808284376000920191909152508892508791506141589050565b90505b95945050505050565b60008060006133e08461451b565b5091509150806005836001600160601b031681548110613402576134026151fb565b90600052602060002090600c020160040154612fa79190615358565b6004546001600160a01b0316331461344957604051639d6cab9960e01b815260040160405180910390fd5b613457848484846001613f9e565b5050505050565b600060078281548110613473576134736151fb565b600091825260209091206003600490920201015492915050565b60006005836001600160601b0316815481106134ab576134ab6151fb565b60009182526020808320948352600c91909102909301600a0190925250604090205460ff16919050565b806005846001600160601b0316815481106134f2576134f26151fb565b60009182526020808320868452600c92909202909101600a0190526040808220805460ff19169315159390931790925590518215159184916001600160601b038716917fb47629acdf64971062d40984f77d3dee212d735b11e3e8c7a4222d9f0572cc7991a4505050565b6000806007836000015181548110613577576135776151fb565b906000526020600020906004020190506000816003018460200151815481106135a2576135a26151fb565b90600052602060002090600b02019050600060068260000154815481106135cb576135cb6151fb565b60009182526020808320919091015487519188015160e089015160808a015160a08b01516040516333ac937b60e11b8152600481019690965260248601939093526044850191909152606484015260848301526001600160a01b03169250829063675926f69060a401602060405180830381865afa158015613651573d6000803e3d6000fd5b505050506040513d601f19601f8201168201806040525081019061367591906153e4565b905061271081111561368657506127105b60006127106136958382615227565b85600101546136a49190615358565b6136ae9190615385565b9050808760c0018181516136c291906153d1565b90525060e08701516006850180546000929081106136e2576136e26151fb565b6000918252602090912001546004805460405163965af6c760e01b81526001600160a01b03938416945092169163965af6c79161372391859187910161548d565b600060405180830381600087803b15801561373d57600080fd5b505af1158015613751573d6000803e3d6000fd5b505060048054604051633c85b79360e21b81526001600160a01b03909116935063f216de4c925061378691859187910161548d565b600060405180830381600087803b1580156137a057600080fd5b505af11580156137b4573d6000803e3d6000fd5b50505050602088015188516001600160a01b0383167f8975b837fe0d18616c65abb8b843726a32b552ee4feca009944fa658bbb282e7866137f48761556e565b60098b01546040516138169392916000916001600160a01b039091169061558a565b60405180910390a48751602089015160e08a015160405163ba66fde760e01b81526004810193909352602483019190915260448201526001600160a01b0385169063ba66fde790606401602060405180830381865afa15801561387d573d6000803e3d6000fd5b505050506040513d601f19601f820116820180604052508101906138a1919061523a565b613907576004805460405163b5d69e9960e01b81526001600160a01b039091169163b5d69e99916138d4918591016149af565b600060405180830381600087803b1580156138ee57600080fd5b505af1158015613902573d6000803e3d6000fd5b505050505b600188606001516139189190615227565b8860e0015114801561392c57506040880151155b15613a1d5760098501546001600160a01b0316613975576000805460028701546040516001600160a01b039092169281156108fc029290818181858888f193505050505061399c565b6000546002860154600987015461399a926001600160a01b03918216929116906145a2565b505b60005460c08901516002546139bf926001600160a01b03918216929116906145a2565b506020880151885160c08a0151600288015460098901546040517f6cecfd3ec56289ccb16e30eb194f9a87dfdc12630b9abbc31fc69af5a0b0eaf493613a1493909290916001600160a01b03909116906155ae565b60405180910390a35b50505060c090940151949350505050565b60006007826000015181548110613a4757613a476151fb565b90600052602060002090600402019050600081600301836020015181548110613a7257613a726151fb565b90600052602060002090600b0201905060006006826000015481548110613a9b57613a9b6151fb565b6000918252602080832090910154865191870151606088015160e08901516001600160a01b039093169550859363675926f693909291613ada916155cd565b60808a015160a08b01516040516001600160e01b031960e088901b1681526004810195909552602485019390935260448401919091526064830152608482015260a401602060405180830381865afa158015613b3a573d6000803e3d6000fd5b505050506040513d601f19601f82011682018060405250810190613b5e91906153e4565b9050612710811115613b6f57506127105b60008360060186606001518760e00151613b8991906155cd565b81548110613b9957613b996151fb565b600091825260208220015460018601546001600160a01b03909116925061271090613bc5908590615358565b613bcf9190615385565b6004805460405163965af6c760e01b81529293506001600160a01b03169163965af6c791613c0191869186910161548d565b600060405180830381600087803b158015613c1b57600080fd5b505af1158015613c2f573d6000803e3d6000fd5b505060048054604051636624192f60e01b81526001600160a01b039091169350636624192f9250613c62918691016149af565b602060405180830381865afa158015613c7f573d6000803e3d6000fd5b505050506040513d601f19601f82011682018060405250810190613ca3919061523a565b613cc057600254613cbe906001600160a01b031683836145a2565b505b60006127108489604001518a60c00151613cda9190615385565b613ce49190615358565b613cee9190615385565b905080866008016000828254613d0491906153d1565b925050819055506000612710858a604001518960020154613d259190615385565b613d2f9190615358565b613d399190615385565b905080876007016000828254613d4f91906153d1565b9091555050600254613d6b906001600160a01b031685846145a2565b5060098701546001600160a01b0316613da9576040516001600160a01b0385169082156108fc029083906000818181858888f1935050505050613dc4565b6009870154613dc2906001600160a01b031685836145a2565b505b6020890151895160098901546040516001600160a01b03888116927f8975b837fe0d18616c65abb8b843726a32b552ee4feca009944fa658bbb282e792613e14928c928a928a929091169061558a565b60405180910390a4600189606001516002613e2f9190615358565b613e399190615227565b8960e00151036125ef57600087600801548a60c00151613e599190615227565b9050600088600701548960020154613e719190615227565b905081151580613e8057508015155b15611556578115613eaa57600054600254613ea8916001600160a01b039182169116846145a2565b505b8015613f115760098901546001600160a01b0316613ef057600080546040516001600160a01b039091169183156108fc02918491818181858888f1935050505050613f11565b60005460098a0154613f0f916001600160a01b039182169116836145a2565b505b60208b01518b5160098b01546040517f6cecfd3ec56289ccb16e30eb194f9a87dfdc12630b9abbc31fc69af5a0b0eaf491613f5b91879187916001600160a01b03909116906155ae565b60405180910390a35050505050505050505050565b6000546001600160a01b03163314613f9b5760405163c383977560e01b815260040160405180910390fd5b50565b60006001600160601b0385161580613fc057506005546001600160601b038616115b15613fd857613fd082600461466f565b5060006133c9565b831580159061401357506005856001600160601b031681548110613ffe57613ffe6151fb565b90600052602060002090600c02016002015484105b1561402357613fd082600561466f565b60048054604051630a5861b960e41b81526001600160a01b03898116938201939093526001600160601b03881660248201526044810187905285151560648201526000928392839291169063a5861b90906084016060604051808303816000875af1158015614096573d6000803e3d6000fd5b505050506040513d601f19601f820116820180604052508101906140ba91906155e1565b9194509250905060008160078111156140d5576140d5614b3e565b146140f0576140e4858261466f565b600093505050506133c9565b821561411d5760025461410e906001600160a01b03168a308661443f565b61411d576140e485600161466f565b81156141495760025461413a906001600160a01b03168a846145a2565b614149576140e485600261466f565b50600198975050505050505050565b60008060006141668661451b565b92505091506005826001600160601b031681548110614187576141876151fb565b60009182526020808320848452600a600c90930201919091019052604090205460ff166141c75760405163b34eb75d60e01b815260040160405180910390fd5b600780546001810182556000918252600160601b33026001600160601b03851617600482027fa66cc928b5edb82af9bd49922954155ab7b0942694bea4ce44661d9a8736c6888101918255427fa66cc928b5edb82af9bd49922954155ab7b0942694bea4ce44661d9a8736c68a909101556006805492965090929184908110614252576142526151fb565b6000918252602082200154600580546001600160a01b039092169350906001600160601b038716908110614288576142886151fb565b60009182526020808320600387018054600181018255908552918420600c909302019350600b0201906001600160a01b038a16156142d3576142ce8a8460040154611048565b6142d9565b82600401545b90506142e5818a615385565b60038084019190915586835583015460028401546127109161430691615358565b6143109190615385565b6001830155600282018990556009820180546001600160a01b0319166001600160a01b038c8116919091179091556004805460405163d09f392d60e01b81529182018b9052600060248301529091169063d09f392d90604401600060405180830381600087803b15801561438357600080fd5b505af1158015614397573d6000803e3d6000fd5b50505050836001600160a01b031663b6ede540898e8e86600301546040518563ffffffff1660e01b81526004016143d194939291906154a6565b600060405180830381600087803b1580156143eb57600080fd5b505af11580156143ff573d6000803e3d6000fd5b50506040513392508a91507f141dfc18aa6a56fc816f44f0e9e2f1ebc92b15ab167770e17db5b084c10ed99590600090a350505050505050949350505050565b6040516001600160a01b038481166024830152838116604483015260648201839052600091829182919088169060840160408051601f198184030181529181526020820180516001600160e01b03166323b872dd60e01b179052516144a49190615421565b6000604051808303816000865af19150503d80600081146144e1576040519150601f19603f3d011682016040523d82523d6000602084013e6144e6565b606091505b5091509150818015614510575080511580614510575080806020019051810190614510919061523a565b979650505050505050565b60008060006040845110614590575050506020810151604082015160608301516001600160601b038316158061455c57506005546001600160601b03841610155b1561456657600192505b8160000361457357600391505b80158061458257506006548110155b1561458b575060015b61459b565b506001915060039050815b9193909250565b6000806000856001600160a01b031685856040516024016145c492919061548d565b60408051601f198184030181529181526020820180516001600160e01b031663a9059cbb60e01b179052516145f99190615421565b6000604051808303816000865af19150503d8060008114614636576040519150601f19603f3d011682016040523d82523d6000602084013e61463b565b606091505b5091509150818015614665575080511580614665575080806020019051810190614665919061523a565b9695505050505050565b600182600181111561468357614683614b3e565b0361468c575050565b60018160078111156146a0576146a0614b3e565b036146be57604051630f323ed960e11b815260040160405180910390fd5b60028160078111156146d2576146d2614b3e565b036146f05760405163e45e13a360e01b815260040160405180910390fd5b600381600781111561470457614704614b3e565b0361472257604051631d91d0ed60e31b815260040160405180910390fd5b600481600781111561473657614736614b3e565b03614754576040516321f1774b60e11b815260040160405180910390fd5b600581600781111561476857614768614b3e565b036117f057604051630caac6b360e31b815260040160405180910390fd5b60405180608001604052806004906020820280368337509192915050565b82600481019282156147d2579160200282015b828111156147d25782518255916020019190600101906147b7565b506147de92915061481c565b5090565b8280548282559060005260206000209081019282156147d257916020028201828111156147d25782518255916020019190600101906147b7565b5b808211156147de576000815560010161481d565b6001600160a01b0381168114613f9b57600080fd5b60006020828403121561485857600080fd5b813561486381614831565b9392505050565b80356001600160601b038116811461488157600080fd5b919050565b634e487b7160e01b600052604160045260246000fd5b604051601f8201601f191681016001600160401b03811182821017156148c4576148c4614886565b604052919050565b600082601f8301126148dd57600080fd5b813560206001600160401b038211156148f8576148f8614886565b8160051b61490782820161489c565b928352848101820192828101908785111561492157600080fd5b83870192505b8483101561451057823582529183019190830190614927565b8015158114613f9b57600080fd5b60008060006060848603121561496357600080fd5b61496c8461486a565b925060208401356001600160401b0381111561498757600080fd5b614993868287016148cc565b92505060408401356149a481614940565b809150509250925092565b6001600160a01b0391909116815260200190565b6000602082840312156149d557600080fd5b5035919050565b600080604083850312156149ef57600080fd5b82356149fa81614831565b946020939093013593505050565b600080600060608486031215614a1d57600080fd5b505081359360208301359350604090920135919050565b600060208284031215614a4657600080fd5b6110998261486a565b8060005b6004811015610b0b578151845260209384019390910190600101614a53565b6080810161109c8284614a4f565b600082601f830112614a9157600080fd5b81356001600160401b03811115614aaa57614aaa614886565b614abd601f8201601f191660200161489c565b818152846020838601011115614ad257600080fd5b816020850160208301376000918101602001919091529392505050565b60008060408385031215614b0257600080fd5b8235614b0d81614831565b915060208301356001600160401b03811115614b2857600080fd5b614b3485828601614a80565b9150509250929050565b634e487b7160e01b600052602160045260246000fd5b60058110614b7257634e487b7160e01b600052602160045260246000fd5b9052565b6001600160601b03861681526001600160a01b038516602082015260a08101614ba26040830186614b54565b9215156060820152608001529392505050565b600080600060608486031215614bca57600080fd5b8335614bd581614831565b92506020840135915060408401356001600160401b03811115614bf757600080fd5b614c0386828701614a80565b9150509250925092565b60008060408385031215614c2057600080fd5b6149fa8361486a565b60008060408385031215614c3c57600080fd5b8235614c4781614831565b91506020830135614c5781614940565b809150509250929050565b600080600060608486031215614c7757600080fd5b8335614c8281614831565b925060208401356001600160401b0381168114614c9e57600080fd5b9150604084013560ff811681146149a457600080fd5b600082601f830112614cc557600080fd5b604051608081018181106001600160401b0382111715614ce757614ce7614886565b604052806080840185811115614cfc57600080fd5b845b81811015614d16578035835260209283019201614cfe565b509195945050505050565b6000806000806000806000610140888a031215614d3d57600080fd5b614d468861486a565b96506020880135614d5681614940565b955060408801359450606088013593506080880135925060a08801359150614d818960c08a01614cb4565b905092959891949750929550565b60008060408385031215614da257600080fd5b50508035926020909101359150565b60008151808452602080850194506020840160005b83811015614deb5781516001600160a01b031687529582019590820190600101614dc6565b509495945050505050565b6020815281516020820152602082015160408201526040820151606082015260608201516080820152608082015160a082015260a082015160c0820152600060c08301516101608060e0850152614e51610180850183614db1565b60e08601516101008681019190915286015161012080870191909152860151909250610140614e8a818701836001600160a01b03169052565b959095015193019290925250919050565b60008060408385031215614eae57600080fd5b823591506020830135614c5781614831565b60008060408385031215614ed357600080fd5b8235915060208301356001600160401b03811115614b2857600080fd5b600080600060608486031215614f0557600080fd5b833592506020840135915060408401356001600160401b03811115614bf757600080fd5b600080600080600080600080610160898b031215614f4657600080fd5b614f4f8961486a565b97506020890135614f5f81614940565b965060408901359550606089013594506080890135935060a08901359250614f8a8a60c08b01614cb4565b91506101408901356001600160401b03811115614fa657600080fd5b614fb28b828c016148cc565b9150509295985092959890939650565b60008083601f840112614fd457600080fd5b5081356001600160401b03811115614feb57600080fd5b60208301915083602082850101111561500357600080fd5b9250929050565b60008060006040848603121561501f57600080fd5b83356001600160401b0381111561503557600080fd5b61504186828701614fc2565b90945092505060208401356149a481614831565b60008060008060008060008060006101e08a8c03121561507457600080fd5b893561507f81614831565b985060208a013561508f81614831565b975060408a013561509f81614831565b965060608a01356150af81614831565b955060808a01356150bf81614831565b945060a08a01356150cf81614940565b93506150de8b60c08c01614cb4565b92506150ee8b6101408c01614cb4565b91506101c08a01356150ff81614831565b809150509295985092959850929598565b60008060008060006080868803121561512857600080fd5b8535945060208601356001600160401b0381111561514557600080fd5b61515188828901614fc2565b909550935050604086013561516581614831565b949793965091946060013592915050565b60006020828403121561518857600080fd5b81356001600160401b0381111561519e57600080fd5b612fa784828501614a80565b600080600080608085870312156151c057600080fd5b84356151cb81614831565b93506151d96020860161486a565b92506040850135915060608501356151f081614940565b939692955090935050565b634e487b7160e01b600052603260045260246000fd5b634e487b7160e01b600052601160045260246000fd5b8181038181111561109c5761109c615211565b60006020828403121561524c57600080fd5b815161486381614940565b6020810161109c8284614b54565b600181815b808511156152a057816000190482111561528657615286615211565b8085161561529357918102915b93841c939080029061526a565b509250929050565b6000826152b75750600161109c565b816152c45750600061109c565b81600181146152da57600281146152e457615300565b600191505061109c565b60ff8411156152f5576152f5615211565b50506001821b61109c565b5060208310610133831016604e8410600b8410161715615323575081810a61109c565b61532d8383615265565b806000190482111561534157615341615211565b029392505050565b600061109960ff8416836152a8565b808202811582820484141761109c5761109c615211565b634e487b7160e01b600052601260045260246000fd5b6000826153945761539461536f565b500490565b6000806000606084860312156153ae57600080fd5b8351925060208401516153c081614940565b60408501519092506149a481614940565b8082018082111561109c5761109c615211565b6000602082840312156153f657600080fd5b5051919050565b60005b83811015615418578181015183820152602001615400565b50506000910152565b600082516154338184602087016153fd565b9190910192915050565b600061012082019050871515825286602083015285604083015284606083015283608083015261451060a0830184614a4f565b60006020828403121561548257600080fd5b815161486381614831565b6001600160a01b03929092168252602082015260400190565b84815283602082015260806040820152600083518060808401526154d18160a08501602088016153fd565b606083019390935250601f91909101601f19160160a0019392505050565b60006101408083018a1515845260208a602086015289604086015288606086015287608086015261552360a0860188614a4f565b610120850192909252845190819052610160840191602086019160005b8181101561555c57835185529382019392820192600101615540565b50929c9b505050505050505050505050565b6000600160ff1b820161558357615583615211565b5060000390565b938452602084019290925260408301526001600160a01b0316606082015260800190565b92835260208301919091526001600160a01b0316604082015260600190565b6000826155dc576155dc61536f565b500690565b6000806000606084860312156155f657600080fd5b83519250602084015191506040840151600881106149a457600080fdfe360894a13ba1a3210667c828492db98dca3e2076cc3735a920a3ca505d382bbca264697066735822122088332e4bd463fd5a2a31ab980f2b2ead694ff8b8a10a33684171a45128537f0a64736f6c63430008180033",
  "devdoc": {
    "errors": {
      "AlreadyInitialized()": [
        {
          "details": "The contract is already initialized."
        }
      ],
      "NotInitializing()": [
        {
          "details": "The contract is not initializing."
        }
      ],
      "UUPSUnauthorizedCallContext()": [
        {
          "details": "The call is from an unauthorized context."
        }
      ],
      "UUPSUnsupportedProxiableUUID(bytes32)": [
        {
          "details": "The storage `slot` is unsupported as a UUID."
        }
      ]
    },
    "events": {
      "AcceptedFeeToken(address,bool)": {
        "details": "To be emitted when an ERC20 token is added or removed as a method to pay fees.",
        "params": {
          "_accepted": "Whether the token is accepted or not.",
          "_token": "The ERC20 token."
        }
      },
      "DisputeCreation(uint256,address)": {
        "details": "To be emitted when a dispute is created.",
        "params": {
          "_arbitrable": "The contract which created the dispute.",
          "_disputeID": "The identifier of the dispute in the Arbitrator contract."
        }
      },
      "Initialized(uint64)": {
        "details": "Triggered when the contract has been initialized or reinitialized."
      },
      "NewCurrencyRate(address,uint64,uint8)": {
        "details": "To be emitted when the fee for a particular ERC20 token is updated.",
        "params": {
          "_feeToken": "The ERC20 token.",
          "_rateDecimals": "The new decimals of the fee token rate.",
          "_rateInEth": "The new rate of the fee token in ETH."
        }
      },
      "Ruling(address,uint256,uint256)": {
        "details": "To be raised when a ruling is given.",
        "params": {
          "_arbitrable": "The arbitrable receiving the ruling.",
          "_disputeID": "The identifier of the dispute in the Arbitrator contract.",
          "_ruling": "The ruling which was given."
        }
      },
      "Upgraded(address)": {
        "params": {
          "newImplementation": "Address of the new implementation the proxy is now forwarding calls to."
        }
      }
    },
    "kind": "dev",
    "methods": {
      "addNewDisputeKit(address)": {
        "details": "Add a new supported dispute kit module to the court.",
        "params": {
          "_disputeKitAddress": "The address of the dispute kit contract."
        }
      },
      "appeal(uint256,uint256,bytes)": {
        "details": "Appeals the ruling of a specified dispute. Note: Access restricted to the Dispute Kit for this `disputeID`.",
        "params": {
          "_disputeID": "The ID of the dispute.",
          "_extraData": "Extradata for the dispute. Can be required during court jump.",
          "_numberOfChoices": "Number of choices for the dispute. Can be required during court jump."
        }
      },
      "appealCost(uint256)": {
        "details": "Gets the cost of appealing a specified dispute.",
        "params": {
          "_disputeID": "The ID of the dispute."
        },
        "returns": {
          "cost": "The appeal cost."
        }
      },
      "appealPeriod(uint256)": {
        "details": "Gets the start and the end of a specified dispute's current appeal period.",
        "params": {
          "_disputeID": "The ID of the dispute."
        },
        "returns": {
          "end": "The end of the appeal period.",
          "start": "The start of the appeal period."
        }
      },
      "arbitrationCost(bytes)": {
        "details": "Compute the cost of arbitration denominated in ETH.      It is recommended not to increase it often, as it can be highly time and gas consuming for the arbitrated contracts to cope with fee augmentation.",
        "params": {
          "_extraData": "Additional info about the dispute. We use it to pass the ID of the dispute's court (first 32 bytes), the minimum number of jurors required (next 32 bytes) and the ID of the specific dispute kit (last 32 bytes)."
        },
        "returns": {
          "cost": "The arbitration cost in ETH."
        }
      },
      "arbitrationCost(bytes,address)": {
        "details": "Compute the cost of arbitration denominated in `_feeToken`.      It is recommended not to increase it often, as it can be highly time and gas consuming for the arbitrated contracts to cope with fee augmentation.",
        "params": {
          "_extraData": "Additional info about the dispute. We use it to pass the ID of the dispute's court (first 32 bytes), the minimum number of jurors required (next 32 bytes) and the ID of the specific dispute kit (last 32 bytes).",
          "_feeToken": "The ERC20 token used to pay fees."
        },
        "returns": {
          "cost": "The arbitration cost in `_feeToken`."
        }
      },
      "changeAcceptedFeeTokens(address,bool)": {
        "details": "Changes the supported fee tokens.",
        "params": {
          "_accepted": "Whether the token is supported or not as a method of fee payment.",
          "_feeToken": "The fee token."
        }
      },
      "changeCurrencyRates(address,uint64,uint8)": {
        "details": "Changes the currency rate of a fee token.",
        "params": {
          "_feeToken": "The fee token.",
          "_rateDecimals": "The new decimals of the fee token rate.",
          "_rateInEth": "The new rate of the fee token in ETH."
        }
      },
      "changeGovernor(address)": {
        "details": "Changes the `governor` storage variable.",
        "params": {
          "_governor": "The new value for the `governor` storage variable."
        }
      },
      "changeInstructor(address)": {
        "details": "Changes the `instructor` storage variable.",
        "params": {
          "_instructor": "The new value for the `instructor` storage variable."
        }
      },
      "changeJurorProsecutionModule(address)": {
        "details": "Changes the `jurorProsecutionModule` storage variable.",
        "params": {
          "_jurorProsecutionModule": "The new value for the `jurorProsecutionModule` storage variable."
        }
      },
      "changePinakion(address)": {
        "details": "Changes the `pinakion` storage variable.",
        "params": {
          "_pinakion": "The new value for the `pinakion` storage variable."
        }
      },
      "changeSortitionModule(address)": {
        "details": "Changes the `_sortitionModule` storage variable. Note that the new module should be initialized for all courts.",
        "params": {
          "_sortitionModule": "The new value for the `sortitionModule` storage variable."
        }
      },
      "constructor": {
        "details": "Constructor, initializing the implementation to reduce attack surface."
      },
      "createCourt(uint96,bool,uint256,uint256,uint256,uint256,uint256[4],uint256[])": {
        "details": "Creates a court under a specified parent court.",
        "params": {
          "_alpha": "The `alpha` property value of the court.",
          "_feeForJuror": "The `feeForJuror` property value of the court.",
          "_hiddenVotes": "The `hiddenVotes` property value of the court.",
          "_jurorsForCourtJump": "The `jurorsForCourtJump` property value of the court.",
          "_minStake": "The `minStake` property value of the court.",
          "_parent": "The `parent` property value of the court.",
          "_supportedDisputeKits": "Indexes of dispute kits that this court will support.",
          "_timesPerPeriod": "The `timesPerPeriod` property value of the court."
        }
      },
      "createDispute(uint256,bytes)": {
        "details": "Create a dispute and pay for the fees in the native currency, typically ETH.      Must be called by the arbitrable contract.      Must pay at least arbitrationCost(_extraData).",
        "params": {
          "_extraData": "Additional info about the dispute. We use it to pass the ID of the dispute's court (first 32 bytes), the minimum number of jurors required (next 32 bytes) and the ID of the specific dispute kit (last 32 bytes).",
          "_numberOfChoices": "The number of choices the arbitrator can choose from in this dispute."
        },
        "returns": {
          "disputeID": "The identifier of the dispute created."
        }
      },
      "createDispute(uint256,bytes,address,uint256)": {
        "details": "Create a dispute and pay for the fees in a supported ERC20 token.      Must be called by the arbitrable contract.      Must pay at least arbitrationCost(_extraData).",
        "params": {
          "_extraData": "Additional info about the dispute. We use it to pass the ID of the dispute's court (first 32 bytes), the minimum number of jurors required (next 32 bytes) and the ID of the specific dispute kit (last 32 bytes).",
          "_feeAmount": "Amount of the ERC20 token used to pay fees.",
          "_feeToken": "The ERC20 token used to pay fees.",
          "_numberOfChoices": "The number of choices the arbitrator can choose from in this dispute."
        },
        "returns": {
          "disputeID": "The identifier of the dispute created."
        }
      },
      "currentRuling(uint256)": {
        "details": "Gets the current ruling of a specified dispute.",
        "params": {
          "_disputeID": "The ID of the dispute."
        },
        "returns": {
          "overridden": "Whether the ruling was overridden by appeal funding or not.",
          "ruling": "The current ruling.",
          "tied": "Whether it's a tie or not."
        }
      },
      "draw(uint256,address)": {
        "details": "Draws one juror for the dispute until the number votes paid for is reached.",
        "params": {
          "_disputeID": "The ID of the dispute.",
          "_juror": "The address of the juror to draw."
        }
      },
      "enableDisputeKits(uint96,uint256[],bool)": {
        "details": "Adds/removes court's support for specified dispute kits.",
        "params": {
          "_courtID": "The ID of the court.",
          "_disputeKitIDs": "The IDs of dispute kits which support should be added/removed.",
          "_enable": "Whether add or remove the dispute kits from the court."
        }
      },
      "execute(uint256,uint256,uint256)": {
        "details": "Distribute the PNKs at stake and the dispute fees for the specific round of the dispute. Can be called in parts.",
        "params": {
          "_disputeID": "The ID of the dispute.",
          "_iterations": "The number of iterations to run.",
          "_round": "The appeal round."
        }
      },
      "executeGovernorProposal(address,uint256,bytes)": {
        "details": "Allows the governor to call anything on behalf of the contract.",
        "params": {
          "_amount": "The value sent with the call.",
          "_data": "The data sent with the call.",
          "_destination": "The destination of the call."
        }
      },
      "executeRuling(uint256)": {
        "details": "Executes a specified dispute's ruling.",
        "params": {
          "_disputeID": "The ID of the dispute."
        }
      },
      "getNumberOfVotes(uint256)": {
        "details": "Gets the number of votes permitted for the specified dispute in the latest round.",
        "params": {
          "_disputeID": "The ID of the dispute."
        }
      },
      "getTimesPerPeriod(uint96)": {
        "details": "Gets the timesPerPeriod array for a given court.",
        "params": {
          "_courtID": "The ID of the court to get the times from."
        },
        "returns": {
          "timesPerPeriod": "The timesPerPeriod array for the given court."
        }
      },
      "initialize(address,address,address,address,address,bool,uint256[4],uint256[4],address)": {
        "details": "Initializer (constructor equivalent for upgradable contracts).",
        "params": {
          "_courtParameters": "Numeric parameters of General court (minStake, alpha, feeForJuror and jurorsForCourtJump respectively).",
          "_disputeKit": "The address of the default dispute kit.",
          "_governor": "The governor's address.",
          "_hiddenVotes": "The `hiddenVotes` property value of the general court.",
          "_instructor": "The address of the instructor.",
          "_jurorProsecutionModule": "The address of the juror prosecution module.",
          "_pinakion": "The address of the token contract.",
          "_sortitionModuleAddress": "The sortition module responsible for sortition of the jurors.",
          "_timesPerPeriod": "The `timesPerPeriod` property value of the general court."
        }
      },
      "isDisputeKitJumping(uint256)": {
        "details": "Returns true if the dispute kit will be switched to a parent DK.",
        "params": {
          "_disputeID": "The ID of the dispute."
        },
        "returns": {
          "_0": "Whether DK will be switched or not."
        }
      },
      "passPeriod(uint256)": {
        "details": "Passes the period of a specified dispute.",
        "params": {
          "_disputeID": "The ID of the dispute."
        }
      },
      "proxiableUUID()": {
        "details": "Implementation of the ERC1822 `proxiableUUID` function. This returns the storage slot used by the implementation. It is used to validate the implementation's compatibility when performing an upgrade. IMPORTANT: A proxy pointing at a proxiable contract should not be considered proxiable itself, because this risks bricking a proxy that upgrades to it, by delegating to itself until out of gas. Thus it is critical that this function revert if invoked through a proxy. This is guaranteed by the if statement."
      },
      "setStake(uint96,uint256)": {
        "details": "Sets the caller's stake in a court.",
        "params": {
          "_courtID": "The ID of the court.",
          "_newStake": "The new stake. Note that the existing delayed stake will be nullified as non-relevant."
        }
      },
      "setStakeBySortitionModule(address,uint96,uint256,bool)": {
        "details": "Sets the stake of a specified account in a court, typically to apply a delayed stake or unstake inactive jurors.",
        "params": {
          "_account": "The account whose stake is being set.",
          "_alreadyTransferred": "Whether the PNKs have already been transferred to the contract.",
          "_courtID": "The ID of the court.",
          "_newStake": "The new stake."
        }
      },
      "upgradeToAndCall(address,bytes)": {
        "details": "Upgrade mechanism including access control and UUPS-compliance.Reverts if the execution is not performed via delegatecall or the execution context is not of a proxy with an ERC1967-compliant implementation pointing to self.",
        "params": {
          "data": "Data used in a delegate call to `newImplementation` if non-empty. This will typically be an encoded function call, and allows initializing the storage of the proxy like a Solidity constructor.",
          "newImplementation": "Address of the new implementation contract."
        }
      }
    },
    "title": "KlerosCoreUniversity Core arbitrator contract for educational purposes.",
    "version": 1
  },
  "userdoc": {
    "errors": {
      "FailedDelegateCall()": [
        {
          "notice": "Failed Delegated call"
        }
      ],
      "InvalidImplementation(address)": [
        {
          "notice": "The `implementation` is not UUPS-compliant"
        }
      ]
    },
    "events": {
      "Upgraded(address)": {
        "notice": "Emitted when the `implementation` has been successfully upgraded."
      }
    },
    "kind": "user",
    "methods": {},
    "version": 1
  },
  "storageLayout": {
    "storage": [
      {
        "astId": 23505,
        "contract": "src/arbitration/university/KlerosCoreUniversity.sol:KlerosCoreUniversity",
        "label": "governor",
        "offset": 0,
        "slot": "0",
        "type": "t_address"
      },
      {
        "astId": 23507,
        "contract": "src/arbitration/university/KlerosCoreUniversity.sol:KlerosCoreUniversity",
        "label": "instructor",
        "offset": 0,
        "slot": "1",
        "type": "t_address"
      },
      {
        "astId": 23510,
        "contract": "src/arbitration/university/KlerosCoreUniversity.sol:KlerosCoreUniversity",
        "label": "pinakion",
        "offset": 0,
        "slot": "2",
        "type": "t_contract(IERC20)1229"
      },
      {
        "astId": 23512,
        "contract": "src/arbitration/university/KlerosCoreUniversity.sol:KlerosCoreUniversity",
        "label": "jurorProsecutionModule",
        "offset": 0,
        "slot": "3",
        "type": "t_address"
      },
      {
        "astId": 23515,
        "contract": "src/arbitration/university/KlerosCoreUniversity.sol:KlerosCoreUniversity",
        "label": "sortitionModule",
        "offset": 0,
        "slot": "4",
        "type": "t_contract(ISortitionModuleUniversity)23364"
      },
      {
        "astId": 23519,
        "contract": "src/arbitration/university/KlerosCoreUniversity.sol:KlerosCoreUniversity",
        "label": "courts",
        "offset": 0,
        "slot": "5",
        "type": "t_array(t_struct(Court)23424_storage)dyn_storage"
      },
      {
        "astId": 23523,
        "contract": "src/arbitration/university/KlerosCoreUniversity.sol:KlerosCoreUniversity",
        "label": "disputeKits",
        "offset": 0,
        "slot": "6",
        "type": "t_array(t_contract(IDisputeKit)23189)dyn_storage"
      },
      {
        "astId": 23527,
        "contract": "src/arbitration/university/KlerosCoreUniversity.sol:KlerosCoreUniversity",
        "label": "disputes",
        "offset": 0,
        "slot": "7",
        "type": "t_array(t_struct(Dispute)23441_storage)dyn_storage"
      },
      {
        "astId": 23533,
        "contract": "src/arbitration/university/KlerosCoreUniversity.sol:KlerosCoreUniversity",
        "label": "currencyRates",
        "offset": 0,
        "slot": "8",
        "type": "t_mapping(t_contract(IERC20)1229,t_struct(CurrencyRate)23490_storage)"
      }
    ],
    "types": {
      "t_address": {
        "encoding": "inplace",
        "label": "address",
        "numberOfBytes": "20"
      },
      "t_array(t_address)dyn_storage": {
        "base": "t_address",
        "encoding": "dynamic_array",
        "label": "address[]",
        "numberOfBytes": "32"
      },
      "t_array(t_contract(IDisputeKit)23189)dyn_storage": {
        "base": "t_contract(IDisputeKit)23189",
        "encoding": "dynamic_array",
        "label": "contract IDisputeKit[]",
        "numberOfBytes": "32"
      },
      "t_array(t_struct(Court)23424_storage)dyn_storage": {
        "base": "t_struct(Court)23424_storage",
        "encoding": "dynamic_array",
        "label": "struct KlerosCoreUniversity.Court[]",
        "numberOfBytes": "32"
      },
      "t_array(t_struct(Dispute)23441_storage)dyn_storage": {
        "base": "t_struct(Dispute)23441_storage",
        "encoding": "dynamic_array",
        "label": "struct KlerosCoreUniversity.Dispute[]",
        "numberOfBytes": "32"
      },
      "t_array(t_struct(Round)23466_storage)dyn_storage": {
        "base": "t_struct(Round)23466_storage",
        "encoding": "dynamic_array",
        "label": "struct KlerosCoreUniversity.Round[]",
        "numberOfBytes": "32"
      },
      "t_array(t_uint256)4_storage": {
        "base": "t_uint256",
        "encoding": "inplace",
        "label": "uint256[4]",
        "numberOfBytes": "128"
      },
      "t_array(t_uint256)dyn_storage": {
        "base": "t_uint256",
        "encoding": "dynamic_array",
        "label": "uint256[]",
        "numberOfBytes": "32"
      },
      "t_bool": {
        "encoding": "inplace",
        "label": "bool",
        "numberOfBytes": "1"
      },
      "t_contract(IArbitrableV2)22946": {
        "encoding": "inplace",
        "label": "contract IArbitrableV2",
        "numberOfBytes": "20"
      },
      "t_contract(IDisputeKit)23189": {
        "encoding": "inplace",
        "label": "contract IDisputeKit",
        "numberOfBytes": "20"
      },
      "t_contract(IERC20)1229": {
        "encoding": "inplace",
        "label": "contract IERC20",
        "numberOfBytes": "20"
      },
      "t_contract(ISortitionModuleUniversity)23364": {
        "encoding": "inplace",
        "label": "contract ISortitionModuleUniversity",
        "numberOfBytes": "20"
      },
      "t_enum(Period)23398": {
        "encoding": "inplace",
        "label": "enum KlerosCoreUniversity.Period",
        "numberOfBytes": "1"
      },
      "t_mapping(t_contract(IERC20)1229,t_struct(CurrencyRate)23490_storage)": {
        "encoding": "mapping",
        "key": "t_contract(IERC20)1229",
        "label": "mapping(contract IERC20 => struct KlerosCoreUniversity.CurrencyRate)",
        "numberOfBytes": "32",
        "value": "t_struct(CurrencyRate)23490_storage"
      },
      "t_mapping(t_uint256,t_bool)": {
        "encoding": "mapping",
        "key": "t_uint256",
        "label": "mapping(uint256 => bool)",
        "numberOfBytes": "32",
        "value": "t_bool"
      },
      "t_struct(Court)23424_storage": {
        "encoding": "inplace",
        "label": "struct KlerosCoreUniversity.Court",
        "members": [
          {
            "astId": 23400,
            "contract": "src/arbitration/university/KlerosCoreUniversity.sol:KlerosCoreUniversity",
            "label": "parent",
            "offset": 0,
            "slot": "0",
            "type": "t_uint96"
          },
          {
            "astId": 23402,
            "contract": "src/arbitration/university/KlerosCoreUniversity.sol:KlerosCoreUniversity",
            "label": "hiddenVotes",
            "offset": 12,
            "slot": "0",
            "type": "t_bool"
          },
          {
            "astId": 23405,
            "contract": "src/arbitration/university/KlerosCoreUniversity.sol:KlerosCoreUniversity",
            "label": "children",
            "offset": 0,
            "slot": "1",
            "type": "t_array(t_uint256)dyn_storage"
          },
          {
            "astId": 23407,
            "contract": "src/arbitration/university/KlerosCoreUniversity.sol:KlerosCoreUniversity",
            "label": "minStake",
            "offset": 0,
            "slot": "2",
            "type": "t_uint256"
          },
          {
            "astId": 23409,
            "contract": "src/arbitration/university/KlerosCoreUniversity.sol:KlerosCoreUniversity",
            "label": "alpha",
            "offset": 0,
            "slot": "3",
            "type": "t_uint256"
          },
          {
            "astId": 23411,
            "contract": "src/arbitration/university/KlerosCoreUniversity.sol:KlerosCoreUniversity",
            "label": "feeForJuror",
            "offset": 0,
            "slot": "4",
            "type": "t_uint256"
          },
          {
            "astId": 23413,
            "contract": "src/arbitration/university/KlerosCoreUniversity.sol:KlerosCoreUniversity",
            "label": "jurorsForCourtJump",
            "offset": 0,
            "slot": "5",
            "type": "t_uint256"
          },
          {
            "astId": 23417,
            "contract": "src/arbitration/university/KlerosCoreUniversity.sol:KlerosCoreUniversity",
            "label": "timesPerPeriod",
            "offset": 0,
            "slot": "6",
            "type": "t_array(t_uint256)4_storage"
          },
          {
            "astId": 23421,
            "contract": "src/arbitration/university/KlerosCoreUniversity.sol:KlerosCoreUniversity",
            "label": "supportedDisputeKits",
            "offset": 0,
            "slot": "10",
            "type": "t_mapping(t_uint256,t_bool)"
          },
          {
            "astId": 23423,
            "contract": "src/arbitration/university/KlerosCoreUniversity.sol:KlerosCoreUniversity",
            "label": "disabled",
            "offset": 0,
            "slot": "11",
            "type": "t_bool"
          }
        ],
        "numberOfBytes": "384"
      },
      "t_struct(CurrencyRate)23490_storage": {
        "encoding": "inplace",
        "label": "struct KlerosCoreUniversity.CurrencyRate",
        "members": [
          {
            "astId": 23485,
            "contract": "src/arbitration/university/KlerosCoreUniversity.sol:KlerosCoreUniversity",
            "label": "feePaymentAccepted",
            "offset": 0,
            "slot": "0",
            "type": "t_bool"
          },
          {
            "astId": 23487,
            "contract": "src/arbitration/university/KlerosCoreUniversity.sol:KlerosCoreUniversity",
            "label": "rateInEth",
            "offset": 1,
            "slot": "0",
            "type": "t_uint64"
          },
          {
            "astId": 23489,
            "contract": "src/arbitration/university/KlerosCoreUniversity.sol:KlerosCoreUniversity",
            "label": "rateDecimals",
            "offset": 9,
            "slot": "0",
            "type": "t_uint8"
          }
        ],
        "numberOfBytes": "32"
      },
      "t_struct(Dispute)23441_storage": {
        "encoding": "inplace",
        "label": "struct KlerosCoreUniversity.Dispute",
        "members": [
          {
            "astId": 23426,
            "contract": "src/arbitration/university/KlerosCoreUniversity.sol:KlerosCoreUniversity",
            "label": "courtID",
            "offset": 0,
            "slot": "0",
            "type": "t_uint96"
          },
          {
            "astId": 23429,
            "contract": "src/arbitration/university/KlerosCoreUniversity.sol:KlerosCoreUniversity",
            "label": "arbitrated",
            "offset": 12,
            "slot": "0",
            "type": "t_contract(IArbitrableV2)22946"
          },
          {
            "astId": 23432,
            "contract": "src/arbitration/university/KlerosCoreUniversity.sol:KlerosCoreUniversity",
            "label": "period",
            "offset": 0,
            "slot": "1",
            "type": "t_enum(Period)23398"
          },
          {
            "astId": 23434,
            "contract": "src/arbitration/university/KlerosCoreUniversity.sol:KlerosCoreUniversity",
            "label": "ruled",
            "offset": 1,
            "slot": "1",
            "type": "t_bool"
          },
          {
            "astId": 23436,
            "contract": "src/arbitration/university/KlerosCoreUniversity.sol:KlerosCoreUniversity",
            "label": "lastPeriodChange",
            "offset": 0,
            "slot": "2",
            "type": "t_uint256"
          },
          {
            "astId": 23440,
            "contract": "src/arbitration/university/KlerosCoreUniversity.sol:KlerosCoreUniversity",
            "label": "rounds",
            "offset": 0,
            "slot": "3",
            "type": "t_array(t_struct(Round)23466_storage)dyn_storage"
          }
        ],
        "numberOfBytes": "128"
      },
      "t_struct(Round)23466_storage": {
        "encoding": "inplace",
        "label": "struct KlerosCoreUniversity.Round",
        "members": [
          {
            "astId": 23443,
            "contract": "src/arbitration/university/KlerosCoreUniversity.sol:KlerosCoreUniversity",
            "label": "disputeKitID",
            "offset": 0,
            "slot": "0",
            "type": "t_uint256"
          },
          {
            "astId": 23445,
            "contract": "src/arbitration/university/KlerosCoreUniversity.sol:KlerosCoreUniversity",
            "label": "pnkAtStakePerJuror",
            "offset": 0,
            "slot": "1",
            "type": "t_uint256"
          },
          {
            "astId": 23447,
            "contract": "src/arbitration/university/KlerosCoreUniversity.sol:KlerosCoreUniversity",
            "label": "totalFeesForJurors",
            "offset": 0,
            "slot": "2",
            "type": "t_uint256"
          },
          {
            "astId": 23449,
            "contract": "src/arbitration/university/KlerosCoreUniversity.sol:KlerosCoreUniversity",
            "label": "nbVotes",
            "offset": 0,
            "slot": "3",
            "type": "t_uint256"
          },
          {
            "astId": 23451,
            "contract": "src/arbitration/university/KlerosCoreUniversity.sol:KlerosCoreUniversity",
            "label": "repartitions",
            "offset": 0,
            "slot": "4",
            "type": "t_uint256"
          },
          {
            "astId": 23453,
            "contract": "src/arbitration/university/KlerosCoreUniversity.sol:KlerosCoreUniversity",
            "label": "pnkPenalties",
            "offset": 0,
            "slot": "5",
            "type": "t_uint256"
          },
          {
            "astId": 23456,
            "contract": "src/arbitration/university/KlerosCoreUniversity.sol:KlerosCoreUniversity",
            "label": "drawnJurors",
            "offset": 0,
            "slot": "6",
            "type": "t_array(t_address)dyn_storage"
          },
          {
            "astId": 23458,
            "contract": "src/arbitration/university/KlerosCoreUniversity.sol:KlerosCoreUniversity",
            "label": "sumFeeRewardPaid",
            "offset": 0,
            "slot": "7",
            "type": "t_uint256"
          },
          {
            "astId": 23460,
            "contract": "src/arbitration/university/KlerosCoreUniversity.sol:KlerosCoreUniversity",
            "label": "sumPnkRewardPaid",
            "offset": 0,
            "slot": "8",
            "type": "t_uint256"
          },
          {
            "astId": 23463,
            "contract": "src/arbitration/university/KlerosCoreUniversity.sol:KlerosCoreUniversity",
            "label": "feeToken",
            "offset": 0,
            "slot": "9",
            "type": "t_contract(IERC20)1229"
          },
          {
            "astId": 23465,
            "contract": "src/arbitration/university/KlerosCoreUniversity.sol:KlerosCoreUniversity",
            "label": "drawIterations",
            "offset": 0,
            "slot": "10",
            "type": "t_uint256"
          }
        ],
        "numberOfBytes": "352"
      },
      "t_uint256": {
        "encoding": "inplace",
        "label": "uint256",
        "numberOfBytes": "32"
      },
      "t_uint64": {
        "encoding": "inplace",
        "label": "uint64",
        "numberOfBytes": "8"
      },
      "t_uint8": {
        "encoding": "inplace",
        "label": "uint8",
        "numberOfBytes": "1"
      },
      "t_uint96": {
        "encoding": "inplace",
        "label": "uint96",
        "numberOfBytes": "12"
      }
    }
  }
}