{
  "address": "0x91a373BBdE0532F86410682F362e2Cf685e95085",
  "abi": [
    {
      "inputs": [],
      "stateMutability": "nonpayable",
      "type": "constructor"
    },
    {
      "inputs": [],
      "name": "AlreadyInitialized",
      "type": "error"
    },
    {
      "inputs": [],
      "name": "AppealFeesNotEnough",
      "type": "error"
    },
    {
      "inputs": [],
      "name": "AppealPeriodNotPassed",
      "type": "error"
    },
    {
      "inputs": [],
      "name": "ArbitrationFeesNotEnough",
      "type": "error"
    },
    {
      "inputs": [],
      "name": "ArraysLengthMismatch",
      "type": "error"
    },
    {
      "inputs": [],
      "name": "CannotDisableClassicDK",
      "type": "error"
    },
    {
      "inputs": [],
      "name": "CommitPeriodNotPassed",
      "type": "error"
    },
    {
      "inputs": [],
      "name": "DepthLevelMax",
      "type": "error"
    },
    {
      "inputs": [],
      "name": "DisputeKitNotSupportedByCourt",
      "type": "error"
    },
    {
      "inputs": [],
      "name": "DisputeKitOnly",
      "type": "error"
    },
    {
      "inputs": [],
      "name": "DisputeNotAppealable",
      "type": "error"
    },
    {
      "inputs": [],
      "name": "DisputePeriodIsFinal",
      "type": "error"
    },
    {
      "inputs": [],
      "name": "DisputeStillDrawing",
      "type": "error"
    },
    {
      "inputs": [],
      "name": "EvidenceNotPassedAndNotAppeal",
      "type": "error"
    },
    {
      "inputs": [],
      "name": "FailedDelegateCall",
      "type": "error"
    },
    {
      "inputs": [],
      "name": "GovernorOnly",
      "type": "error"
    },
    {
      "inputs": [],
      "name": "InvalidDisputKitParent",
      "type": "error"
    },
    {
      "inputs": [],
      "name": "InvalidForkingCourtAsParent",
      "type": "error"
    },
    {
      "inputs": [
        {
          "internalType": "address",
          "name": "implementation",
          "type": "address"
        }
      ],
      "name": "InvalidImplementation",
      "type": "error"
    },
    {
      "inputs": [],
      "name": "MinStakeLowerThanParentCourt",
      "type": "error"
    },
    {
      "inputs": [],
      "name": "MustSupportDisputeKitClassic",
      "type": "error"
    },
    {
      "inputs": [],
      "name": "NotEvidencePeriod",
      "type": "error"
    },
    {
      "inputs": [],
      "name": "NotExecutionPeriod",
      "type": "error"
    },
    {
      "inputs": [],
      "name": "NotInitializing",
      "type": "error"
    },
    {
      "inputs": [],
      "name": "RulingAlreadyExecuted",
      "type": "error"
    },
    {
      "inputs": [],
      "name": "SortitionModuleOnly",
      "type": "error"
    },
    {
      "inputs": [],
      "name": "StakingFailed",
      "type": "error"
    },
    {
      "inputs": [],
      "name": "TokenNotAccepted",
      "type": "error"
    },
    {
      "inputs": [],
      "name": "TransferFailed",
      "type": "error"
    },
    {
      "inputs": [],
      "name": "UUPSUnauthorizedCallContext",
      "type": "error"
    },
    {
      "inputs": [
        {
          "internalType": "bytes32",
          "name": "slot",
          "type": "bytes32"
        }
      ],
      "name": "UUPSUnsupportedProxiableUUID",
      "type": "error"
    },
    {
      "inputs": [],
      "name": "UnsuccessfulCall",
      "type": "error"
    },
    {
      "inputs": [],
      "name": "UnsupportedDisputeKit",
      "type": "error"
    },
    {
      "inputs": [],
      "name": "VotePeriodNotPassed",
      "type": "error"
    },
    {
      "inputs": [],
      "name": "WrongDisputeKitIndex",
      "type": "error"
    },
    {
      "anonymous": false,
      "inputs": [
        {
          "indexed": true,
          "internalType": "contract IERC20",
          "name": "_token",
          "type": "address"
        },
        {
          "indexed": true,
          "internalType": "bool",
          "name": "_accepted",
          "type": "bool"
        }
      ],
      "name": "AcceptedFeeToken",
      "type": "event"
    },
    {
      "anonymous": false,
      "inputs": [
        {
          "indexed": true,
          "internalType": "uint256",
          "name": "_disputeID",
          "type": "uint256"
        },
        {
          "indexed": true,
          "internalType": "contract IArbitrableV2",
          "name": "_arbitrable",
          "type": "address"
        }
      ],
      "name": "AppealDecision",
      "type": "event"
    },
    {
      "anonymous": false,
      "inputs": [
        {
          "indexed": true,
          "internalType": "uint256",
          "name": "_disputeID",
          "type": "uint256"
        },
        {
          "indexed": true,
          "internalType": "contract IArbitrableV2",
          "name": "_arbitrable",
          "type": "address"
        }
      ],
      "name": "AppealPossible",
      "type": "event"
    },
    {
      "anonymous": false,
      "inputs": [
        {
          "indexed": true,
          "internalType": "uint256",
          "name": "_courtID",
          "type": "uint256"
        },
        {
          "indexed": true,
          "internalType": "uint96",
          "name": "_parent",
          "type": "uint96"
        },
        {
          "indexed": false,
          "internalType": "bool",
          "name": "_hiddenVotes",
          "type": "bool"
        },
        {
          "indexed": false,
          "internalType": "uint256",
          "name": "_minStake",
          "type": "uint256"
        },
        {
          "indexed": false,
          "internalType": "uint256",
          "name": "_alpha",
          "type": "uint256"
        },
        {
          "indexed": false,
          "internalType": "uint256",
          "name": "_feeForJuror",
          "type": "uint256"
        },
        {
          "indexed": false,
          "internalType": "uint256",
          "name": "_jurorsForCourtJump",
          "type": "uint256"
        },
        {
          "indexed": false,
          "internalType": "uint256[4]",
          "name": "_timesPerPeriod",
          "type": "uint256[4]"
        },
        {
          "indexed": false,
          "internalType": "uint256[]",
          "name": "_supportedDisputeKits",
          "type": "uint256[]"
        }
      ],
      "name": "CourtCreated",
      "type": "event"
    },
    {
      "anonymous": false,
      "inputs": [
        {
          "indexed": true,
          "internalType": "uint256",
          "name": "_disputeID",
          "type": "uint256"
        },
        {
          "indexed": true,
          "internalType": "uint256",
          "name": "_roundID",
          "type": "uint256"
        },
        {
          "indexed": true,
          "internalType": "uint96",
          "name": "_fromCourtID",
          "type": "uint96"
        },
        {
          "indexed": false,
          "internalType": "uint96",
          "name": "_toCourtID",
          "type": "uint96"
        }
      ],
      "name": "CourtJump",
      "type": "event"
    },
    {
      "anonymous": false,
      "inputs": [
        {
          "indexed": true,
          "internalType": "uint96",
          "name": "_courtID",
          "type": "uint96"
        },
        {
          "indexed": false,
          "internalType": "bool",
          "name": "_hiddenVotes",
          "type": "bool"
        },
        {
          "indexed": false,
          "internalType": "uint256",
          "name": "_minStake",
          "type": "uint256"
        },
        {
          "indexed": false,
          "internalType": "uint256",
          "name": "_alpha",
          "type": "uint256"
        },
        {
          "indexed": false,
          "internalType": "uint256",
          "name": "_feeForJuror",
          "type": "uint256"
        },
        {
          "indexed": false,
          "internalType": "uint256",
          "name": "_jurorsForCourtJump",
          "type": "uint256"
        },
        {
          "indexed": false,
          "internalType": "uint256[4]",
          "name": "_timesPerPeriod",
          "type": "uint256[4]"
        }
      ],
      "name": "CourtModified",
      "type": "event"
    },
    {
      "anonymous": false,
      "inputs": [
        {
          "indexed": true,
          "internalType": "uint256",
          "name": "_disputeID",
          "type": "uint256"
        },
        {
          "indexed": true,
          "internalType": "contract IArbitrableV2",
          "name": "_arbitrable",
          "type": "address"
        }
      ],
      "name": "DisputeCreation",
      "type": "event"
    },
    {
      "anonymous": false,
      "inputs": [
        {
          "indexed": true,
          "internalType": "uint256",
          "name": "_disputeKitID",
          "type": "uint256"
        },
        {
          "indexed": true,
          "internalType": "contract IDisputeKit",
          "name": "_disputeKitAddress",
          "type": "address"
        }
      ],
      "name": "DisputeKitCreated",
      "type": "event"
    },
    {
      "anonymous": false,
      "inputs": [
        {
          "indexed": true,
          "internalType": "uint96",
          "name": "_courtID",
          "type": "uint96"
        },
        {
          "indexed": true,
          "internalType": "uint256",
          "name": "_disputeKitID",
          "type": "uint256"
        },
        {
          "indexed": true,
          "internalType": "bool",
          "name": "_enable",
          "type": "bool"
        }
      ],
      "name": "DisputeKitEnabled",
      "type": "event"
    },
    {
      "anonymous": false,
      "inputs": [
        {
          "indexed": true,
          "internalType": "uint256",
          "name": "_disputeID",
          "type": "uint256"
        },
        {
          "indexed": true,
          "internalType": "uint256",
          "name": "_roundID",
          "type": "uint256"
        },
        {
          "indexed": true,
          "internalType": "uint256",
          "name": "_fromDisputeKitID",
          "type": "uint256"
        },
        {
          "indexed": false,
          "internalType": "uint256",
          "name": "_toDisputeKitID",
          "type": "uint256"
        }
      ],
      "name": "DisputeKitJump",
      "type": "event"
    },
    {
      "anonymous": false,
      "inputs": [
        {
          "indexed": true,
          "internalType": "address",
          "name": "_address",
          "type": "address"
        },
        {
          "indexed": true,
          "internalType": "uint256",
          "name": "_disputeID",
          "type": "uint256"
        },
        {
          "indexed": false,
          "internalType": "uint256",
          "name": "_roundID",
          "type": "uint256"
        },
        {
          "indexed": false,
          "internalType": "uint256",
          "name": "_voteID",
          "type": "uint256"
        }
      ],
      "name": "Draw",
      "type": "event"
    },
    {
      "anonymous": false,
      "inputs": [
        {
          "indexed": false,
          "internalType": "uint64",
          "name": "version",
          "type": "uint64"
        }
      ],
      "name": "Initialized",
      "type": "event"
    },
    {
      "anonymous": false,
      "inputs": [
        {
          "indexed": true,
          "internalType": "uint256",
          "name": "_disputeID",
          "type": "uint256"
        },
        {
          "indexed": true,
          "internalType": "uint256",
          "name": "_roundID",
          "type": "uint256"
        },
        {
          "indexed": false,
          "internalType": "uint256",
          "name": "_pnkAmount",
          "type": "uint256"
        },
        {
          "indexed": false,
          "internalType": "uint256",
          "name": "_feeAmount",
          "type": "uint256"
        },
        {
          "indexed": false,
          "internalType": "contract IERC20",
          "name": "_feeToken",
          "type": "address"
        }
      ],
      "name": "LeftoverRewardSent",
      "type": "event"
    },
    {
      "anonymous": false,
      "inputs": [
        {
          "indexed": true,
          "internalType": "contract IERC20",
          "name": "_feeToken",
          "type": "address"
        },
        {
          "indexed": false,
          "internalType": "uint64",
          "name": "_rateInEth",
          "type": "uint64"
        },
        {
          "indexed": false,
          "internalType": "uint8",
          "name": "_rateDecimals",
          "type": "uint8"
        }
      ],
      "name": "NewCurrencyRate",
      "type": "event"
    },
    {
      "anonymous": false,
      "inputs": [
        {
          "indexed": true,
          "internalType": "uint256",
          "name": "_disputeID",
          "type": "uint256"
        },
        {
          "indexed": false,
          "internalType": "enum KlerosCore.Period",
          "name": "_period",
          "type": "uint8"
        }
      ],
      "name": "NewPeriod",
      "type": "event"
    },
    {
      "anonymous": false,
      "inputs": [
        {
          "indexed": true,
          "internalType": "contract IArbitrableV2",
          "name": "_arbitrable",
          "type": "address"
        },
        {
          "indexed": true,
          "internalType": "uint256",
          "name": "_disputeID",
          "type": "uint256"
        },
        {
          "indexed": false,
          "internalType": "uint256",
          "name": "_ruling",
          "type": "uint256"
        }
      ],
      "name": "Ruling",
      "type": "event"
    },
    {
      "anonymous": false,
      "inputs": [
        {
          "indexed": true,
          "internalType": "address",
          "name": "_account",
          "type": "address"
        },
        {
          "indexed": true,
          "internalType": "uint256",
          "name": "_disputeID",
          "type": "uint256"
        },
        {
          "indexed": true,
          "internalType": "uint256",
          "name": "_roundID",
          "type": "uint256"
        },
        {
          "indexed": false,
          "internalType": "uint256",
          "name": "_degreeOfCoherency",
          "type": "uint256"
        },
        {
          "indexed": false,
          "internalType": "int256",
          "name": "_pnkAmount",
          "type": "int256"
        },
        {
          "indexed": false,
          "internalType": "int256",
          "name": "_feeAmount",
          "type": "int256"
        },
        {
          "indexed": false,
          "internalType": "contract IERC20",
          "name": "_feeToken",
          "type": "address"
        }
      ],
      "name": "TokenAndETHShift",
      "type": "event"
    },
    {
      "anonymous": false,
      "inputs": [
        {
          "indexed": true,
          "internalType": "address",
          "name": "newImplementation",
          "type": "address"
        }
      ],
      "name": "Upgraded",
      "type": "event"
    },
    {
      "inputs": [
        {
          "internalType": "contract IDisputeKit",
          "name": "_disputeKitAddress",
          "type": "address"
        }
      ],
      "name": "addNewDisputeKit",
      "outputs": [],
      "stateMutability": "nonpayable",
      "type": "function"
    },
    {
      "inputs": [
        {
          "internalType": "uint256",
          "name": "_disputeID",
          "type": "uint256"
        },
        {
          "internalType": "uint256",
          "name": "_numberOfChoices",
          "type": "uint256"
        },
        {
          "internalType": "bytes",
          "name": "_extraData",
          "type": "bytes"
        }
      ],
      "name": "appeal",
      "outputs": [],
      "stateMutability": "payable",
      "type": "function"
    },
    {
      "inputs": [
        {
          "internalType": "uint256",
          "name": "_disputeID",
          "type": "uint256"
        }
      ],
      "name": "appealCost",
      "outputs": [
        {
          "internalType": "uint256",
          "name": "cost",
          "type": "uint256"
        }
      ],
      "stateMutability": "view",
      "type": "function"
    },
    {
      "inputs": [
        {
          "internalType": "uint256",
          "name": "_disputeID",
          "type": "uint256"
        }
      ],
      "name": "appealPeriod",
      "outputs": [
        {
          "internalType": "uint256",
          "name": "start",
          "type": "uint256"
        },
        {
          "internalType": "uint256",
          "name": "end",
          "type": "uint256"
        }
      ],
      "stateMutability": "view",
      "type": "function"
    },
    {
      "inputs": [
        {
          "internalType": "bytes",
          "name": "_extraData",
          "type": "bytes"
        },
        {
          "internalType": "contract IERC20",
          "name": "_feeToken",
          "type": "address"
        }
      ],
      "name": "arbitrationCost",
      "outputs": [
        {
          "internalType": "uint256",
          "name": "cost",
          "type": "uint256"
        }
      ],
      "stateMutability": "view",
      "type": "function"
    },
    {
      "inputs": [
        {
          "internalType": "bytes",
          "name": "_extraData",
          "type": "bytes"
        }
      ],
      "name": "arbitrationCost",
      "outputs": [
        {
          "internalType": "uint256",
          "name": "cost",
          "type": "uint256"
        }
      ],
      "stateMutability": "view",
      "type": "function"
    },
    {
      "inputs": [
        {
          "internalType": "contract IERC20",
          "name": "_feeToken",
          "type": "address"
        },
        {
          "internalType": "bool",
          "name": "_accepted",
          "type": "bool"
        }
      ],
      "name": "changeAcceptedFeeTokens",
      "outputs": [],
      "stateMutability": "nonpayable",
      "type": "function"
    },
    {
      "inputs": [
        {
          "internalType": "uint96",
          "name": "_courtID",
          "type": "uint96"
        },
        {
          "internalType": "bool",
          "name": "_hiddenVotes",
          "type": "bool"
        },
        {
          "internalType": "uint256",
          "name": "_minStake",
          "type": "uint256"
        },
        {
          "internalType": "uint256",
          "name": "_alpha",
          "type": "uint256"
        },
        {
          "internalType": "uint256",
          "name": "_feeForJuror",
          "type": "uint256"
        },
        {
          "internalType": "uint256",
          "name": "_jurorsForCourtJump",
          "type": "uint256"
        },
        {
          "internalType": "uint256[4]",
          "name": "_timesPerPeriod",
          "type": "uint256[4]"
        }
      ],
      "name": "changeCourtParameters",
      "outputs": [],
      "stateMutability": "nonpayable",
      "type": "function"
    },
    {
      "inputs": [
        {
          "internalType": "contract IERC20",
          "name": "_feeToken",
          "type": "address"
        },
        {
          "internalType": "uint64",
          "name": "_rateInEth",
          "type": "uint64"
        },
        {
          "internalType": "uint8",
          "name": "_rateDecimals",
          "type": "uint8"
        }
      ],
      "name": "changeCurrencyRates",
      "outputs": [],
      "stateMutability": "nonpayable",
      "type": "function"
    },
    {
      "inputs": [
        {
          "internalType": "address payable",
          "name": "_governor",
          "type": "address"
        }
      ],
      "name": "changeGovernor",
      "outputs": [],
      "stateMutability": "nonpayable",
      "type": "function"
    },
    {
      "inputs": [
        {
          "internalType": "address",
          "name": "_jurorProsecutionModule",
          "type": "address"
        }
      ],
      "name": "changeJurorProsecutionModule",
      "outputs": [],
      "stateMutability": "nonpayable",
      "type": "function"
    },
    {
      "inputs": [
        {
          "internalType": "contract IERC20",
          "name": "_pinakion",
          "type": "address"
        }
      ],
      "name": "changePinakion",
      "outputs": [],
      "stateMutability": "nonpayable",
      "type": "function"
    },
    {
      "inputs": [
        {
          "internalType": "contract ISortitionModule",
          "name": "_sortitionModule",
          "type": "address"
        }
      ],
      "name": "changeSortitionModule",
      "outputs": [],
      "stateMutability": "nonpayable",
      "type": "function"
    },
    {
      "inputs": [
        {
          "internalType": "contract IERC20",
          "name": "_toToken",
          "type": "address"
        },
        {
          "internalType": "uint256",
          "name": "_amountInEth",
          "type": "uint256"
        }
      ],
      "name": "convertEthToTokenAmount",
      "outputs": [
        {
          "internalType": "uint256",
          "name": "",
          "type": "uint256"
        }
      ],
      "stateMutability": "view",
      "type": "function"
    },
    {
      "inputs": [
        {
          "internalType": "uint256",
          "name": "",
          "type": "uint256"
        }
      ],
      "name": "courts",
      "outputs": [
        {
          "internalType": "uint96",
          "name": "parent",
          "type": "uint96"
        },
        {
          "internalType": "bool",
          "name": "hiddenVotes",
          "type": "bool"
        },
        {
          "internalType": "uint256",
          "name": "minStake",
          "type": "uint256"
        },
        {
          "internalType": "uint256",
          "name": "alpha",
          "type": "uint256"
        },
        {
          "internalType": "uint256",
          "name": "feeForJuror",
          "type": "uint256"
        },
        {
          "internalType": "uint256",
          "name": "jurorsForCourtJump",
          "type": "uint256"
        },
        {
          "internalType": "bool",
          "name": "disabled",
          "type": "bool"
        }
      ],
      "stateMutability": "view",
      "type": "function"
    },
    {
      "inputs": [
        {
          "internalType": "uint96",
          "name": "_parent",
          "type": "uint96"
        },
        {
          "internalType": "bool",
          "name": "_hiddenVotes",
          "type": "bool"
        },
        {
          "internalType": "uint256",
          "name": "_minStake",
          "type": "uint256"
        },
        {
          "internalType": "uint256",
          "name": "_alpha",
          "type": "uint256"
        },
        {
          "internalType": "uint256",
          "name": "_feeForJuror",
          "type": "uint256"
        },
        {
          "internalType": "uint256",
          "name": "_jurorsForCourtJump",
          "type": "uint256"
        },
        {
          "internalType": "uint256[4]",
          "name": "_timesPerPeriod",
          "type": "uint256[4]"
        },
        {
          "internalType": "bytes",
          "name": "_sortitionExtraData",
          "type": "bytes"
        },
        {
          "internalType": "uint256[]",
          "name": "_supportedDisputeKits",
          "type": "uint256[]"
        }
      ],
      "name": "createCourt",
      "outputs": [],
      "stateMutability": "nonpayable",
      "type": "function"
    },
    {
      "inputs": [
        {
          "internalType": "uint256",
          "name": "_numberOfChoices",
          "type": "uint256"
        },
        {
          "internalType": "bytes",
          "name": "_extraData",
          "type": "bytes"
        }
      ],
      "name": "createDispute",
      "outputs": [
        {
          "internalType": "uint256",
          "name": "disputeID",
          "type": "uint256"
        }
      ],
      "stateMutability": "payable",
      "type": "function"
    },
    {
      "inputs": [
        {
          "internalType": "uint256",
          "name": "_numberOfChoices",
          "type": "uint256"
        },
        {
          "internalType": "bytes",
          "name": "_extraData",
          "type": "bytes"
        },
        {
          "internalType": "contract IERC20",
          "name": "_feeToken",
          "type": "address"
        },
        {
          "internalType": "uint256",
          "name": "_feeAmount",
          "type": "uint256"
        }
      ],
      "name": "createDispute",
      "outputs": [
        {
          "internalType": "uint256",
          "name": "disputeID",
          "type": "uint256"
        }
      ],
      "stateMutability": "nonpayable",
      "type": "function"
    },
    {
      "inputs": [
        {
          "internalType": "contract IERC20",
          "name": "",
          "type": "address"
        }
      ],
      "name": "currencyRates",
      "outputs": [
        {
          "internalType": "bool",
          "name": "feePaymentAccepted",
          "type": "bool"
        },
        {
          "internalType": "uint64",
          "name": "rateInEth",
          "type": "uint64"
        },
        {
          "internalType": "uint8",
          "name": "rateDecimals",
          "type": "uint8"
        }
      ],
      "stateMutability": "view",
      "type": "function"
    },
    {
      "inputs": [
        {
          "internalType": "uint256",
          "name": "_disputeID",
          "type": "uint256"
        }
      ],
      "name": "currentRuling",
      "outputs": [
        {
          "internalType": "uint256",
          "name": "ruling",
          "type": "uint256"
        },
        {
          "internalType": "bool",
          "name": "tied",
          "type": "bool"
        },
        {
          "internalType": "bool",
          "name": "overridden",
          "type": "bool"
        }
      ],
      "stateMutability": "view",
      "type": "function"
    },
    {
      "inputs": [
        {
          "internalType": "uint256",
          "name": "",
          "type": "uint256"
        }
      ],
      "name": "disputeKits",
      "outputs": [
        {
          "internalType": "contract IDisputeKit",
          "name": "",
          "type": "address"
        }
      ],
      "stateMutability": "view",
      "type": "function"
    },
    {
      "inputs": [
        {
          "internalType": "uint256",
          "name": "",
          "type": "uint256"
        }
      ],
      "name": "disputes",
      "outputs": [
        {
          "internalType": "uint96",
          "name": "courtID",
          "type": "uint96"
        },
        {
          "internalType": "contract IArbitrableV2",
          "name": "arbitrated",
          "type": "address"
        },
        {
          "internalType": "enum KlerosCore.Period",
          "name": "period",
          "type": "uint8"
        },
        {
          "internalType": "bool",
          "name": "ruled",
          "type": "bool"
        },
        {
          "internalType": "uint256",
          "name": "lastPeriodChange",
          "type": "uint256"
        }
      ],
      "stateMutability": "view",
      "type": "function"
    },
    {
      "inputs": [
        {
          "internalType": "uint256",
          "name": "_disputeID",
          "type": "uint256"
        },
        {
          "internalType": "uint256",
          "name": "_iterations",
          "type": "uint256"
        }
      ],
      "name": "draw",
      "outputs": [],
      "stateMutability": "nonpayable",
      "type": "function"
    },
    {
      "inputs": [
        {
          "internalType": "uint96",
          "name": "_courtID",
          "type": "uint96"
        },
        {
          "internalType": "uint256[]",
          "name": "_disputeKitIDs",
          "type": "uint256[]"
        },
        {
          "internalType": "bool",
          "name": "_enable",
          "type": "bool"
        }
      ],
      "name": "enableDisputeKits",
      "outputs": [],
      "stateMutability": "nonpayable",
      "type": "function"
    },
    {
      "inputs": [
        {
          "internalType": "uint256",
          "name": "_disputeID",
          "type": "uint256"
        },
        {
          "internalType": "uint256",
          "name": "_round",
          "type": "uint256"
        },
        {
          "internalType": "uint256",
          "name": "_iterations",
          "type": "uint256"
        }
      ],
      "name": "execute",
      "outputs": [],
      "stateMutability": "nonpayable",
      "type": "function"
    },
    {
      "inputs": [
        {
          "internalType": "address",
          "name": "_destination",
          "type": "address"
        },
        {
          "internalType": "uint256",
          "name": "_amount",
          "type": "uint256"
        },
        {
          "internalType": "bytes",
          "name": "_data",
          "type": "bytes"
        }
      ],
      "name": "executeGovernorProposal",
      "outputs": [],
      "stateMutability": "nonpayable",
      "type": "function"
    },
    {
      "inputs": [
        {
          "internalType": "uint256",
          "name": "_disputeID",
          "type": "uint256"
        }
      ],
      "name": "executeRuling",
      "outputs": [],
      "stateMutability": "nonpayable",
      "type": "function"
    },
    {
      "inputs": [],
      "name": "getDisputeKitsLength",
      "outputs": [
        {
          "internalType": "uint256",
          "name": "",
          "type": "uint256"
        }
      ],
      "stateMutability": "view",
      "type": "function"
    },
    {
      "inputs": [
        {
          "internalType": "uint256",
          "name": "_disputeID",
          "type": "uint256"
        }
      ],
      "name": "getNumberOfRounds",
      "outputs": [
        {
          "internalType": "uint256",
          "name": "",
          "type": "uint256"
        }
      ],
      "stateMutability": "view",
      "type": "function"
    },
    {
      "inputs": [
        {
          "internalType": "uint256",
          "name": "_disputeID",
          "type": "uint256"
        }
      ],
      "name": "getNumberOfVotes",
      "outputs": [
        {
          "internalType": "uint256",
          "name": "",
          "type": "uint256"
        }
      ],
      "stateMutability": "view",
      "type": "function"
    },
    {
      "inputs": [
        {
          "internalType": "uint256",
          "name": "_disputeID",
          "type": "uint256"
        },
        {
          "internalType": "uint256",
          "name": "_round",
          "type": "uint256"
        }
      ],
      "name": "getRoundInfo",
      "outputs": [
        {
          "components": [
            {
              "internalType": "uint256",
              "name": "disputeKitID",
              "type": "uint256"
            },
            {
              "internalType": "uint256",
              "name": "pnkAtStakePerJuror",
              "type": "uint256"
            },
            {
              "internalType": "uint256",
              "name": "totalFeesForJurors",
              "type": "uint256"
            },
            {
              "internalType": "uint256",
              "name": "nbVotes",
              "type": "uint256"
            },
            {
              "internalType": "uint256",
              "name": "repartitions",
              "type": "uint256"
            },
            {
              "internalType": "uint256",
              "name": "pnkPenalties",
              "type": "uint256"
            },
            {
              "internalType": "address[]",
              "name": "drawnJurors",
              "type": "address[]"
            },
            {
              "internalType": "uint256",
              "name": "sumFeeRewardPaid",
              "type": "uint256"
            },
            {
              "internalType": "uint256",
              "name": "sumPnkRewardPaid",
              "type": "uint256"
            },
            {
              "internalType": "contract IERC20",
              "name": "feeToken",
              "type": "address"
            },
            {
              "internalType": "uint256",
              "name": "drawIterations",
              "type": "uint256"
            }
          ],
          "internalType": "struct KlerosCore.Round",
          "name": "",
          "type": "tuple"
        }
      ],
      "stateMutability": "view",
      "type": "function"
    },
    {
      "inputs": [
        {
          "internalType": "uint96",
          "name": "_courtID",
          "type": "uint96"
        }
      ],
      "name": "getTimesPerPeriod",
      "outputs": [
        {
          "internalType": "uint256[4]",
          "name": "timesPerPeriod",
          "type": "uint256[4]"
        }
      ],
      "stateMutability": "view",
      "type": "function"
    },
    {
      "inputs": [],
      "name": "governor",
      "outputs": [
        {
          "internalType": "address",
          "name": "",
          "type": "address"
        }
      ],
      "stateMutability": "view",
      "type": "function"
    },
    {
      "inputs": [
        {
          "internalType": "address",
          "name": "_governor",
          "type": "address"
        },
        {
          "internalType": "contract IERC20",
          "name": "_pinakion",
          "type": "address"
        },
        {
          "internalType": "address",
          "name": "_jurorProsecutionModule",
          "type": "address"
        },
        {
          "internalType": "contract IDisputeKit",
          "name": "_disputeKit",
          "type": "address"
        },
        {
          "internalType": "bool",
          "name": "_hiddenVotes",
          "type": "bool"
        },
        {
          "internalType": "uint256[4]",
          "name": "_courtParameters",
          "type": "uint256[4]"
        },
        {
          "internalType": "uint256[4]",
          "name": "_timesPerPeriod",
          "type": "uint256[4]"
        },
        {
          "internalType": "bytes",
          "name": "_sortitionExtraData",
          "type": "bytes"
        },
        {
          "internalType": "contract ISortitionModule",
          "name": "_sortitionModuleAddress",
          "type": "address"
        }
      ],
      "name": "initialize",
      "outputs": [],
      "stateMutability": "nonpayable",
      "type": "function"
    },
    {
      "inputs": [
        {
          "internalType": "uint256",
          "name": "_disputeID",
          "type": "uint256"
        }
      ],
      "name": "isDisputeKitJumping",
      "outputs": [
        {
          "internalType": "bool",
          "name": "",
          "type": "bool"
        }
      ],
      "stateMutability": "view",
      "type": "function"
    },
    {
      "inputs": [
        {
          "internalType": "uint96",
          "name": "_courtID",
          "type": "uint96"
        },
        {
          "internalType": "uint256",
          "name": "_disputeKitID",
          "type": "uint256"
        }
      ],
      "name": "isSupported",
      "outputs": [
        {
          "internalType": "bool",
          "name": "",
          "type": "bool"
        }
      ],
      "stateMutability": "view",
      "type": "function"
    },
    {
      "inputs": [],
      "name": "jurorProsecutionModule",
      "outputs": [
        {
          "internalType": "address",
          "name": "",
          "type": "address"
        }
      ],
      "stateMutability": "view",
      "type": "function"
    },
    {
      "inputs": [
        {
          "internalType": "uint256",
          "name": "_disputeID",
          "type": "uint256"
        }
      ],
      "name": "passPeriod",
      "outputs": [],
      "stateMutability": "nonpayable",
      "type": "function"
    },
    {
      "inputs": [],
      "name": "pinakion",
      "outputs": [
        {
          "internalType": "contract IERC20",
          "name": "",
          "type": "address"
        }
      ],
      "stateMutability": "view",
      "type": "function"
    },
    {
      "inputs": [],
      "name": "proxiableUUID",
      "outputs": [
        {
          "internalType": "bytes32",
          "name": "",
          "type": "bytes32"
        }
      ],
      "stateMutability": "view",
      "type": "function"
    },
    {
      "inputs": [
        {
          "internalType": "uint96",
          "name": "_courtID",
          "type": "uint96"
        },
        {
          "internalType": "uint256",
          "name": "_newStake",
          "type": "uint256"
        }
      ],
      "name": "setStake",
      "outputs": [],
      "stateMutability": "nonpayable",
      "type": "function"
    },
    {
      "inputs": [
        {
          "internalType": "address",
          "name": "_account",
          "type": "address"
        },
        {
          "internalType": "uint96",
          "name": "_courtID",
          "type": "uint96"
        },
        {
          "internalType": "uint256",
          "name": "_newStake",
          "type": "uint256"
        },
        {
          "internalType": "bool",
          "name": "_alreadyTransferred",
          "type": "bool"
        }
      ],
      "name": "setStakeBySortitionModule",
      "outputs": [],
      "stateMutability": "nonpayable",
      "type": "function"
    },
    {
      "inputs": [],
      "name": "sortitionModule",
      "outputs": [
        {
          "internalType": "contract ISortitionModule",
          "name": "",
          "type": "address"
        }
      ],
      "stateMutability": "view",
      "type": "function"
    },
    {
      "inputs": [
        {
          "internalType": "address",
          "name": "newImplementation",
          "type": "address"
        },
        {
          "internalType": "bytes",
          "name": "data",
          "type": "bytes"
        }
      ],
      "name": "upgradeToAndCall",
      "outputs": [],
      "stateMutability": "payable",
      "type": "function"
    }
  ],
  "transactionHash": "0xbcf62d7f5849f5bc03a6fe8ba8de81929f3ef14ac6d00553bd968ddd89bf3a4c",
  "args": [],
  "numDeployments": 1,
  "solcInputHash": "4ee8a1f2013c130bec1668c5304bc76a",
  "bytecode": "0x60a0604052306080523480156200001557600080fd5b506200002062000026565b620000d9565b7ff0c57e16840df040f15088dc2f81fe391c3923bec73e23a9662efc9c229c6a0e805468010000000000000000900460ff1615620000765760405162dc149f60e41b815260040160405180910390fd5b80546001600160401b0390811614620000d65780546001600160401b0319166001600160401b0390811782556040519081527fc7f505b2f371ae2175ee4913f4499e1f2633a7b5936321eed1cdaeb6115181d29060200160405180910390a15b50565b6080516154fb62000103600039600081816115020152818161152b015261172101526154fb6000f3fe6080604052600436106102665760003560e01c80638bb0487511610144578063d07368bd116100b6578063f6506db41161007a578063f6506db414610811578063f7434ea914610831578063fbb519e714610851578063fbf405b014610871578063fc6f8f1614610891578063fe524c39146108b157600080fd5b8063d07368bd1461077c578063d2b8035a1461079c578063d4d1d76a146107bc578063d98493f6146107d1578063e4c0aaf4146107f157600080fd5b8063b004963711610108578063b0049637146106d6578063c13517e1146106f6578063c258bb1914610709578063c356990214610729578063c71f42531461073c578063cf0c38f81461075c57600080fd5b80638bb0487514610621578063994b27af14610641578063a072b86c14610661578063acdbf51d14610681578063afe15cfb146106a157600080fd5b80633cfd1184116101dd578063751accd0116101a1578063751accd0146105545780637717a6e8146105745780637934c0be1461059457806382d02237146105b457806386541b24146105d45780638a9bb02a146105f457600080fd5b80633cfd1184146104ae5780634f1ef286146104db57806352d1902d146104ee578063564a565d1461050357806359ec827e1461053457600080fd5b80631860592b1161022f5780631860592b1461037257806319b81529146103a05780631c3db16d146103d05780631f5a0dd21461040d5780632d29a47b1461046e5780632e1daf2f1461048e57600080fd5b8062f5822c1461026b5780630219da791461028d5780630b7414bc146103055780630c340a2414610325578063115d537614610352575b600080fd5b34801561027757600080fd5b5061028b61028636600461467f565b6108d1565b005b34801561029957600080fd5b506102d86102a836600461467f565b60076020526000908152604090205460ff808216916001600160401b0361010082041691600160481b9091041683565b6040805193151584526001600160401b03909216602084015260ff16908201526060015b60405180910390f35b34801561031157600080fd5b5061028b610320366004614787565b61091e565b34801561033157600080fd5b50600054610345906001600160a01b031681565b6040516102fc91906147e8565b34801561035e57600080fd5b5061028b61036d3660046147fc565b610a5f565b34801561037e57600080fd5b5061039261038d366004614815565b610f91565b6040519081526020016102fc565b3480156103ac57600080fd5b506103c06103bb3660046147fc565b610feb565b60405190151581526020016102fc565b3480156103dc57600080fd5b506103f06103eb3660046147fc565b6110e4565b6040805193845291151560208401521515908201526060016102fc565b34801561041957600080fd5b5061042d6104283660046147fc565b6111e5565b604080516001600160601b0390981688529515156020880152948601939093526060850191909152608084015260a0830152151560c082015260e0016102fc565b34801561047a57600080fd5b5061028b610489366004614841565b611244565b34801561049a57600080fd5b50600354610345906001600160a01b031681565b3480156104ba57600080fd5b506104ce6104c936600461486d565b611484565b6040516102fc91906148ab565b61028b6104e9366004614928565b6114ee565b3480156104fa57600080fd5b50610392611714565b34801561050f57600080fd5b5061052361051e3660046147fc565b611772565b6040516102fc9594939291906149af565b34801561054057600080fd5b5061039261054f3660046147fc565b6117ce565b34801561056057600080fd5b5061028b61056f3660046149ee565b611923565b34801561058057600080fd5b5061028b61058f366004614a46565b6119cd565b3480156105a057600080fd5b5061028b6105af366004614a62565b6119db565b3480156105c057600080fd5b5061028b6105cf366004614a9b565b611a5a565b3480156105e057600080fd5b5061028b6105ef366004614b5a565b611b17565b34801561060057600080fd5b5061061461060f366004614bc8565b611cfe565b6040516102fc9190614c2e565b34801561062d57600080fd5b5061028b61063c3660046147fc565b611e8a565b34801561064d57600080fd5b5061028b61065c366004614cd3565b611fee565b34801561066d57600080fd5b5061028b61067c366004614da7565b6123a8565b34801561068d57600080fd5b5061034561069c3660046147fc565b61271a565b3480156106ad57600080fd5b506106c16106bc3660046147fc565b612744565b604080519283526020830191909152016102fc565b3480156106e257600080fd5b5061028b6106f136600461467f565b6127f0565b610392610704366004614e67565b61283d565b34801561071557600080fd5b5061028b61072436600461467f565b612875565b61028b610737366004614e97565b6128c2565b34801561074857600080fd5b506103926107573660046147fc565b612d96565b34801561076857600080fd5b50600254610345906001600160a01b031681565b34801561078857600080fd5b5061028b61079736600461467f565b612dfe565b3480156107a857600080fd5b5061028b6107b7366004614bc8565b612ea7565b3480156107c857600080fd5b50600554610392565b3480156107dd57600080fd5b506103926107ec366004614f18565b6131be565b3480156107fd57600080fd5b5061028b61080c36600461467f565b61320b565b34801561081d57600080fd5b5061039261082c366004614f63565b613258565b34801561083d57600080fd5b5061039261084c366004614fc9565b61333e565b34801561085d57600080fd5b5061028b61086c366004614ffd565b61338a565b34801561087d57600080fd5b50600154610345906001600160a01b031681565b34801561089d57600080fd5b506103926108ac3660046147fc565b6133ca565b3480156108bd57600080fd5b506103c06108cc366004614a46565b6133f9565b6000546001600160a01b031633146108fc5760405163c383977560e01b815260040160405180910390fd5b600180546001600160a01b0319166001600160a01b0392909216919091179055565b6000546001600160a01b031633146109495760405163c383977560e01b815260040160405180910390fd5b60005b8251811015610a595781156109e85782818151811061096d5761096d61504e565b6020026020010151600014806109a0575060055483518490839081106109955761099561504e565b602002602001015110155b156109be57604051633d58a98960e11b815260040160405180910390fd5b6109e3848483815181106109d4576109d461504e565b60200260200101516001613441565b610a47565b60018382815181106109fc576109fc61504e565b602002602001015103610a22576040516356d111fd60e11b815260040160405180910390fd5b610a4784848381518110610a3857610a3861504e565b60200260200101516000613441565b80610a518161507a565b91505061094c565b50505050565b600060068281548110610a7457610a7461504e565b600091825260208220600491820201805482549194506001600160601b0316908110610aa257610aa261504e565b6000918252602082206003850154600c909202019250610ac490600190615093565b90506000836003018281548110610add57610add61504e565b600091825260208220600b909102019150600185015460ff166004811115610b0757610b07614977565b03610be25781158015610b5657506001840154600684019060ff166004811115610b3357610b33614977565b60048110610b4357610b4361504e565b01546002850154610b549042615093565b105b15610b7457604051633e9727df60e01b815260040160405180910390fd5b6003810154600682015414610b9c576040516309e4486b60e41b815260040160405180910390fd5b8254600160601b900460ff16610bb3576002610bb6565b60015b60018086018054909160ff1990911690836004811115610bd857610bd8614977565b0217905550610f43565b60018085015460ff166004811115610bfc57610bfc614977565b03610d0c576001840154600684019060ff166004811115610c1f57610c1f614977565b60048110610c2f57610c2f61504e565b01546002850154610c409042615093565b108015610cd757506005816000015481548110610c5f57610c5f61504e565b600091825260209091200154604051630baa64d160e01b8152600481018790526001600160a01b0390911690630baa64d190602401602060405180830381865afa158015610cb1573d6000803e3d6000fd5b505050506040513d601f19601f82011682018060405250810190610cd591906150a6565b155b15610cf557604051634dfa578560e11b815260040160405180910390fd5b6001808501805460029260ff199091169083610bd8565b6002600185015460ff166004811115610d2757610d27614977565b03610e75576001840154600684019060ff166004811115610d4a57610d4a614977565b60048110610d5a57610d5a61504e565b01546002850154610d6b9042615093565b108015610e0257506005816000015481548110610d8a57610d8a61504e565b6000918252602090912001546040516336a66c7560e11b8152600481018790526001600160a01b0390911690636d4cd8ea90602401602060405180830381865afa158015610ddc573d6000803e3d6000fd5b505050506040513d601f19601f82011682018060405250810190610e0091906150a6565b155b15610e2057604051631988dead60e31b815260040160405180910390fd5b600184018054600360ff199091161790558354604051600160601b9091046001600160a01b03169086907fa5d41b970d849372be1da1481ffd78d162bfe57a7aa2fe4e5fb73481fa5ac24f90600090a3610f43565b6003600185015460ff166004811115610e9057610e90614977565b03610f0a576001840154600684019060ff166004811115610eb357610eb3614977565b60048110610ec357610ec361504e565b01546002850154610ed49042615093565b1015610ef357604051632f4dfd8760e01b815260040160405180910390fd5b6001808501805460049260ff199091169083610bd8565b6004600185015460ff166004811115610f2557610f25614977565b03610f43576040516307f38c8f60e11b815260040160405180910390fd5b426002850155600184015460405186917f4e6f5cf43b95303e86aee81683df63992061723a829ee012db21dad388756b9191610f829160ff16906150c3565b60405180910390a25050505050565b6001600160a01b03821660009081526007602052604081205461010081046001600160401b031690610fce90600160481b900460ff16600a6151b5565b610fd890846151c4565b610fe291906151f1565b90505b92915050565b600080600683815481106110015761100161504e565b600091825260208220600360049092020190810180549193509061102790600190615093565b815481106110375761103761504e565b600091825260208220845460048054600b909402909201945090916001600160601b0390911690811061106c5761106c61504e565b90600052602060002090600c0201905080600501548260030154101561109757506000949350505050565b80546004805490916001600160601b03169081106110b7576110b761504e565b6000918252602080832094548352600a600c9092029094010190925250604090205460ff16159392505050565b600080600080600685815481106110fd576110fd61504e565b600091825260208220600360049092020190810180549193509061112390600190615093565b815481106111335761113361504e565b90600052602060002090600b020190506000600582600001548154811061115c5761115c61504e565b600091825260209091200154604051631c3db16d60e01b8152600481018990526001600160a01b0390911691508190631c3db16d90602401606060405180830381865afa1580156111b1573d6000803e3d6000fd5b505050506040513d601f19601f820116820180604052508101906111d59190615205565b9199909850909650945050505050565b600481815481106111f557600080fd5b60009182526020909120600c9091020180546002820154600383015460048401546005850154600b909501546001600160601b038516965060ff600160601b9095048516959394929391921687565b6000600684815481106112595761125961504e565b600091825260209091206004918202019150600182015460ff16600481111561128457611284614977565b146112a257604051638794ce4b60e01b815260040160405180910390fd5b60008160030184815481106112b9576112b961504e565b90600052602060002090600b02019050600060058260000154815481106112e2576112e261504e565b600091825260208220015460048401546001600160a01b0390911692509061130a868361523d565b6005850154600686015460405163368efae360e21b8152600481018c9052602481018b905292935090916000906001600160a01b0387169063da3beb8c90604401602060405180830381865afa158015611368573d6000803e3d6000fd5b505050506040513d601f19601f8201168201806040525081019061138c9190615250565b9050806000036113a757818411156113a2578193505b6113c7565b6113b28260026151c4565b8411156113c7576113c48260026151c4565b93505b60048701849055845b84811015611463578281101561141c576114156040518060c001604052808e81526020018d8152602001848152602001858152602001868152602001838152506134c9565b9350611451565b6114516040518060c001604052808e81526020018d815260200184815260200185815260200186815260200183815250613986565b8061145b8161507a565b9150506113d0565b508287600501541461147757600587018390555b5050505050505050505050565b61148c6145bf565b6004826001600160601b0316815481106114a8576114a861504e565b6000918252602090912060408051608081019182905292600c029091016006019060049082845b8154815260200190600101908083116114cf5750505050509050919050565b6114f782613ea9565b306001600160a01b037f000000000000000000000000000000000000000000000000000000000000000016148061157557507f00000000000000000000000000000000000000000000000000000000000000006001600160a01b03166115696000805160206154a68339815191525490565b6001600160a01b031614155b156115935760405163703e46dd60e11b815260040160405180910390fd5b816001600160a01b03166352d1902d6040518163ffffffff1660e01b8152600401602060405180830381865afa9250505080156115ed575060408051601f3d908101601f191682019092526115ea91810190615250565b60015b6116155781604051630c76093760e01b815260040161160c91906147e8565b60405180910390fd5b6000805160206154a6833981519152811461164657604051632a87526960e21b81526004810182905260240161160c565b6000805160206154a68339815191528390556040516001600160a01b038416907fbc7cd75a20ee27fd9adebab32041f755214dbc6bffa90cc0225b39da2e5c2d3b90600090a281511561170f576000836001600160a01b0316836040516116ad919061528d565b600060405180830381855af49150503d80600081146116e8576040519150601f19603f3d011682016040523d82523d6000602084013e6116ed565b606091505b5050905080610a59576040516339b21b5d60e11b815260040160405180910390fd5b505050565b6000306001600160a01b037f0000000000000000000000000000000000000000000000000000000000000000161461175f5760405163703e46dd60e11b815260040160405180910390fd5b506000805160206154a683398151915290565b6006818154811061178257600080fd5b60009182526020909120600490910201805460018201546002909201546001600160601b0382169350600160601b9091046001600160a01b03169160ff80821692610100909204169085565b600080600683815481106117e4576117e461504e565b600091825260208220600360049092020190810180549193509061180a90600190615093565b8154811061181a5761181a61504e565b600091825260208220845460048054600b909402909201945090916001600160601b0390911690811061184f5761184f61504e565b90600052602060002090600c0201905080600501548260030154106118ee5782546001600160601b031660001901611890576001600160ff1b03935061191b565b60038201546118a09060026151c4565b6118ab90600161523d565b81546004805490916001600160601b03169081106118cb576118cb61504e565b90600052602060002090600c0201600401546118e791906151c4565b935061191b565b60038201546118fe9060026151c4565b61190990600161523d565b816004015461191891906151c4565b93505b505050919050565b6000546001600160a01b0316331461194e5760405163c383977560e01b815260040160405180910390fd5b6000836001600160a01b03168383604051611969919061528d565b60006040518083038185875af1925050503d80600081146119a6576040519150601f19603f3d011682016040523d82523d6000602084013e6119ab565b606091505b5050905080610a59576040516322092f2f60e11b815260040160405180910390fd5b61170f338383600080613ed7565b6000546001600160a01b03163314611a065760405163c383977560e01b815260040160405180910390fd5b6001600160a01b038216600081815260076020526040808220805460ff191685151590811790915590519092917f541615e167511d757a7067a700eb54431b256bb458dfdce0ac58bf2ed0aefd4491a35050565b6000546001600160a01b03163314611a855760405163c383977560e01b815260040160405180910390fd5b6001600160a01b038316600081815260076020908152604091829020805469ffffffffffffffffff0019166101006001600160401b03881690810260ff60481b191691909117600160481b60ff8816908102919091179092558351908152918201527fe6996b7f03e9bd02228b99d3d946932e3197f505f60542c4cfbc919441d8a4e6910160405180910390a2505050565b6000546001600160a01b03163314611b425760405163c383977560e01b815260040160405180910390fd5b60006004886001600160601b031681548110611b6057611b6061504e565b90600052602060002090600c0201905060016001600160601b0316886001600160601b031614158015611bc2575080546004805488926001600160601b0316908110611bae57611bae61504e565b90600052602060002090600c020160020154115b15611be057604051639717078960e01b815260040160405180910390fd5b60005b6001820154811015611c6557866004836001018381548110611c0757611c0761504e565b906000526020600020015481548110611c2257611c2261504e565b90600052602060002090600c0201600201541015611c5357604051639717078960e01b815260040160405180910390fd5b80611c5d8161507a565b915050611be3565b5060028101869055805460ff60601b1916600160601b8815150217815560038101859055600480820185905560058201849055611ca890600683019084906145dd565b50876001600160601b03167f709b1f5fda58af9a4f52dacd1ec404840a8148455700cce155a2bd8cf127ef1a888888888888604051611cec969594939291906152a9565b60405180910390a25050505050505050565b611d6460405180610160016040528060008152602001600081526020016000815260200160008152602001600081526020016000815260200160608152602001600081526020016000815260200160006001600160a01b03168152602001600081525090565b60068381548110611d7757611d7761504e565b90600052602060002090600402016003018281548110611d9957611d9961504e565b90600052602060002090600b02016040518061016001604052908160008201548152602001600182015481526020016002820154815260200160038201548152602001600482015481526020016005820154815260200160068201805480602002602001604051908101604052809291908181526020018280548015611e4857602002820191906000526020600020905b81546001600160a01b03168152600190910190602001808311611e2a575b5050509183525050600782015460208201526008820154604082015260098201546001600160a01b03166060820152600a909101546080909101529392505050565b600060068281548110611e9f57611e9f61504e565b600091825260209091206004918202019150600182015460ff166004811115611eca57611eca614977565b14611ee857604051638794ce4b60e01b815260040160405180910390fd5b6001810154610100900460ff1615611f135760405163c977f8d360e01b815260040160405180910390fd5b6000611f1e836110e4565b505060018301805461010061ff001990911617905582546040518281529192508491600160601b9091046001600160a01b0316907f394027a5fa6e098a1191094d1719d6929b9abc535fcc0c8f448d6a4e756222769060200160405180910390a3815460405163188d362b60e11b81526004810185905260248101839052600160601b9091046001600160a01b03169063311a6c5690604401600060405180830381600087803b158015611fd157600080fd5b505af1158015611fe5573d6000803e3d6000fd5b50505050505050565b7ff0c57e16840df040f15088dc2f81fe391c3923bec73e23a9662efc9c229c6a0e805460019190600160401b900460ff1680612037575080546001600160401b03808416911610155b156120545760405162dc149f60e41b815260040160405180910390fd5b805468ffffffffffffffffff19166001600160401b03831617600160401b178155600080546001600160a01b03808e166001600160a01b0319928316178355600180548e8316908416178155600280548e8416908516178155600380548985169086161790556005805481875291820190557f036b6384b5eca791c62761152d0c79bb0604c104a5fb6f4eb0703f3154bb3db1018054928d1692909316821790925560405190927f44063d258760b98116d53815adbc906a56b3563e540148cc0fc2457f83b5eeb291a360048054600101815560008181526003546040516311de995760e21b81526001600160a01b039091169263477a655c9261215c929091899101615308565b600060405180830381600087803b15801561217657600080fd5b505af115801561218a573d6000803e3d6000fd5b5050600480546001810182556000918252600c027f8a35acfbc15ff81a39ae7d344fd709f28e8600b4aa8c65c6b64bfe7fe36bd19b0180546001600160601b0319168155604080518381526020810190915290935091505080516121f891600184019160209091019061461b565b50805460ff60601b1916600160601b89151502178155865160028201556020870151600382015560408701516004808301919091556060880151600583015561224790600683019088906145dd565b506003546040516311de995760e21b81526001600160a01b039091169063477a655c9061227b906001908990600401615308565b600060405180830381600087803b15801561229557600080fd5b505af11580156122a9573d6000803e3d6000fd5b505082546001600160601b03169150600190507f3475f0ed7216dd7d453db663a1c3024e4f36cc925521d54edb9d13e022cbee3d8a8a600060200201518b600160200201518c600260200201518d600360200201518d600060405190808252806020026020018201604052801561232a578160200160208202803683370190505b5060405161233e9796959493929190615321565b60405180910390a36123536001806001613441565b50805460ff60401b191681556040516001600160401b03831681527fc7f505b2f371ae2175ee4913f4499e1f2633a7b5936321eed1cdaeb6115181d29060200160405180910390a15050505050505050505050565b6000546001600160a01b031633146123d35760405163c383977560e01b815260040160405180910390fd5b8660048a6001600160601b0316815481106123f0576123f061504e565b90600052602060002090600c020160020154111561242157604051639717078960e01b815260040160405180910390fd5b80516000036124435760405163402585f560e01b815260040160405180910390fd5b6001600160601b03891661246a57604051631ef4f64960e01b815260040160405180910390fd5b60048054600181018255600091825290600c82027f8a35acfbc15ff81a39ae7d344fd709f28e8600b4aa8c65c6b64bfe7fe36bd19b01905b8351811015612568578381815181106124bd576124bd61504e565b6020026020010151600014806124f0575060055484518590839081106124e5576124e561504e565b602002602001015110155b1561250e57604051633d58a98960e11b815260040160405180910390fd5b600182600a0160008684815181106125285761252861504e565b6020026020010151815260200190815260200160002060006101000a81548160ff02191690831515021790555080806125609061507a565b9150506124a2565b5060016000908152600a8201602052604090205460ff1661259c576040516306351b3d60e31b815260040160405180910390fd5b80546001600160601b0319166001600160601b038c1617815560408051600081526020810191829052516125d491600184019161461b565b50805460ff60601b1916600160601b8b151502178155600281018990556003810188905560048082018890556005820187905561261790600683019087906145dd565b506003546040516311de995760e21b81526001600160a01b039091169063477a655c9061264a9085908890600401615308565b600060405180830381600087803b15801561266457600080fd5b505af1158015612678573d6000803e3d6000fd5b5050505060048b6001600160601b0316815481106126985761269861504e565b600091825260208083206001600c909302018201805492830181558352909120018290556040516001600160601b038c169083907f3475f0ed7216dd7d453db663a1c3024e4f36cc925521d54edb9d13e022cbee3d90612705908e908e908e908e908e908e908d90615321565b60405180910390a35050505050505050505050565b6005818154811061272a57600080fd5b6000918252602090912001546001600160a01b0316905081565b60008060006006848154811061275c5761275c61504e565b6000918252602090912060049091020190506003600182015460ff16600481111561278957612789614977565b036127e1576002810154815460048054929550916001600160601b039091169081106127b7576127b761504e565b600091825260209091206009600c90920201015460028201546127da919061523d565b91506127ea565b60009250600091505b50915091565b6000546001600160a01b0316331461281b5760405163c383977560e01b815260040160405180910390fd5b600380546001600160a01b0319166001600160a01b0392909216919091179055565b60006128488261333e565b34101561286857604051630e3360f160e21b815260040160405180910390fd5b610fe28383600034614071565b6000546001600160a01b031633146128a05760405163c383977560e01b815260040160405180910390fd5b600280546001600160a01b0319166001600160a01b0392909216919091179055565b6128cb836117ce565b3410156128eb57604051633191f8f160e01b815260040160405180910390fd5b6000600684815481106129005761290061504e565b6000918252602090912060049091020190506003600182015460ff16600481111561292d5761292d614977565b1461294b576040516337cdefcb60e21b815260040160405180910390fd5b6003810180546000919061296190600190615093565b815481106129715761297161504e565b90600052602060002090600b0201905060058160000154815481106129985761299861504e565b6000918252602090912001546001600160a01b031633146129cc5760405163065f245f60e01b815260040160405180910390fd5b8154815460038401805460018101825560009182526020909120600480546001600160601b0390951694600b9093029091019184908110612a0f57612a0f61504e565b90600052602060002090600c020160050154846003015410612b18576004836001600160601b031681548110612a4757612a4761504e565b60009182526020909120600c9091020154600480546001600160601b0390921694509084908110612a7a57612a7a61504e565b60009182526020808320858452600a600c90930201919091019052604090205460ff16612aa657600191505b84546001600160601b03848116911614612b1857845460038601546001600160601b0390911690612ad990600190615093565b6040516001600160601b03861681528a907f736e3f52761298c8c0823e1ebf482ed3c5ecb304f743d2d91a7c006e8e8d7a1f9060200160405180910390a45b84546001600160601b0319166001600160601b038416908117865560018601805460ff1916905542600287015560048054600092908110612b5b57612b5b61504e565b90600052602060002090600c02019050806004015434612b7b91906151f1565b826003018190555061271081600301548260020154612b9a91906151c4565b612ba491906151f1565b60018084019190915534600284015583835560038054908801546001600160a01b039091169163d09f392d918c91612bdb91615093565b6040516001600160e01b031960e085901b16815260048101929092526024820152604401600060405180830381600087803b158015612c1957600080fd5b505af1158015612c2d573d6000803e3d6000fd5b505086548454149150612d1390505784546003870154612c4f90600190615093565b83546040519081528b907fcbe7939a71f0b369c7471d760a0a99b60b7bb010ee0406cba8a46679d1ea77569060200160405180910390a46005826000015481548110612c9d57612c9d61504e565b60009182526020909120015460038301546040516302dbb79560e61b81526001600160a01b039092169163b6ede54091612ce0918d918d918d919060040161539e565b600060405180830381600087803b158015612cfa57600080fd5b505af1158015612d0e573d6000803e3d6000fd5b505050505b8554604051600160601b9091046001600160a01b0316908a907f9c9b64db9e130f48381bf697abf638e73117dbfbfd7a4484f2da3ba188f4187d90600090a3887f4e6f5cf43b95303e86aee81683df63992061723a829ee012db21dad388756b916000604051612d8391906150c3565b60405180910390a2505050505050505050565b60008060068381548110612dac57612dac61504e565b906000526020600020906004020190508060030160018260030180549050612dd49190615093565b81548110612de457612de461504e565b90600052602060002090600b020160030154915050919050565b6000546001600160a01b03163314612e295760405163c383977560e01b815260040160405180910390fd5b6005805460018101825560009182527f036b6384b5eca791c62761152d0c79bb0604c104a5fb6f4eb0703f3154bb3db0810180546001600160a01b0319166001600160a01b0385169081179091556040519192909183917f44063d258760b98116d53815adbc906a56b3563e540148cc0fc2457f83b5eeb291a35050565b600060068381548110612ebc57612ebc61504e565b90600052602060002090600402019050600060018260030180549050612ee29190615093565b90506000826003018281548110612efb57612efb61504e565b600091825260208220600b909102019150600184015460ff166004811115612f2557612f25614977565b14612f4357604051638285c4ef60e01b815260040160405180910390fd5b60006005826000015481548110612f5c57612f5c61504e565b6000918252602082200154600a8401546001600160a01b039091169250905b8681108015612f91575060038401546006850154105b1561319b5760006001600160a01b03841663d2b8035a8a84612fb28161507a565b9550612fbe908761523d565b6040516001600160e01b031960e085901b168152600481019290925260248201526044016020604051808303816000875af1158015613001573d6000803e3d6000fd5b505050506040513d601f19601f8201168201806040525081019061302591906153ce565b90506001600160a01b03811661303b5750612f7b565b60035460018601546040516310f0b12f60e11b81526001600160a01b03909216916321e1625e91613071918591906004016153eb565b600060405180830381600087803b15801561308b57600080fd5b505af115801561309f573d6000803e3d6000fd5b50505060068601546040518b92506001600160a01b038416917f6119cf536152c11e0a9a6c22f3953ce4ecc93ee54fa72ffa326ffabded21509b916130ec918b8252602082015260400190565b60405180910390a36006850180546001810182556000828152602090200180546001600160a01b0319166001600160a01b038416179055600386015490540361319557600354604051632e96bc2360e11b8152600481018b9052602481018890526001600160a01b0390911690635d2d784690604401600060405180830381600087803b15801561317c57600080fd5b505af1158015613190573d6000803e3d6000fd5b505050505b50612f7b565b8084600a0160008282546131af919061523d565b90915550505050505050505050565b60006132038261038d86868080601f01602080910402602001604051908101604052809392919081815260200183838082843760009201919091525061333e92505050565b949350505050565b6000546001600160a01b031633146132365760405163c383977560e01b815260040160405180910390fd5b600080546001600160a01b0319166001600160a01b0392909216919091179055565b6001600160a01b03821660009081526007602052604081205460ff166132915760405163e51cf7bf60e01b815260040160405180910390fd5b61329c8585856131be565b8210156132bc57604051630e3360f160e21b815260040160405180910390fd5b6132d16001600160a01b03841633308561435a565b6132ee576040516312171d8360e31b815260040160405180910390fd5b6133328686868080601f0160208091040260200160405190810160405280939291908181526020018383808284376000920191909152508892508791506140719050565b90505b95945050505050565b600080600061334c84614436565b5091509150806004836001600160601b03168154811061336e5761336e61504e565b90600052602060002090600c02016004015461320391906151c4565b6003546001600160a01b031633146133b557604051639d6cab9960e01b815260040160405180910390fd5b6133c3848484846001613ed7565b5050505050565b6000600682815481106133df576133df61504e565b600091825260209091206003600490920201015492915050565b60006004836001600160601b0316815481106134175761341761504e565b60009182526020808320948352600c91909102909301600a0190925250604090205460ff16919050565b806004846001600160601b03168154811061345e5761345e61504e565b60009182526020808320868452600c92909202909101600a0190526040808220805460ff19169315159390931790925590518215159184916001600160601b038716917fb47629acdf64971062d40984f77d3dee212d735b11e3e8c7a4222d9f0572cc7991a4505050565b60008060068360000151815481106134e3576134e361504e565b9060005260206000209060040201905060008160030184602001518154811061350e5761350e61504e565b90600052602060002090600b02019050600060058260000154815481106135375761353761504e565b60009182526020808320919091015487519188015160a0890151604051634fe264fb60e01b81526004810194909452602484019190915260448301526001600160a01b031692508290634fe264fb90606401602060405180830381865afa1580156135a6573d6000803e3d6000fd5b505050506040513d601f19601f820116820180604052508101906135ca9190615250565b90506127108111156135db57506127105b60006127106135ea8382615093565b85600101546135f991906151c4565b61360391906151f1565b90508087608001818151613617919061523d565b90525060a08701516006850180546000929081106136375761363761504e565b60009182526020909120015460035460405163965af6c760e01b81526001600160a01b03928316935091169063965af6c79061367990849086906004016153eb565b600060405180830381600087803b15801561369357600080fd5b505af11580156136a7573d6000803e3d6000fd5b5050600354604051633c85b79360e21b81526001600160a01b03909116925063f216de4c91506136dd90849086906004016153eb565b600060405180830381600087803b1580156136f757600080fd5b505af115801561370b573d6000803e3d6000fd5b50505050602088015188516001600160a01b0383167f8975b837fe0d18616c65abb8b843726a32b552ee4feca009944fa658bbb282e78661374b87615404565b60098b015460405161376d9392916000916001600160a01b0390911690615420565b60405180910390a48751602089015160a08a015160405163ba66fde760e01b81526004810193909352602483019190915260448201526001600160a01b0385169063ba66fde790606401602060405180830381865afa1580156137d4573d6000803e3d6000fd5b505050506040513d601f19601f820116820180604052508101906137f891906150a6565b61385f5760035460405163b5d69e9960e01b81526001600160a01b039091169063b5d69e999061382c9084906004016147e8565b600060405180830381600087803b15801561384657600080fd5b505af115801561385a573d6000803e3d6000fd5b505050505b600188606001516138709190615093565b8860a0015114801561388457506040880151155b156139755760098501546001600160a01b03166138cd576000805460028701546040516001600160a01b039092169281156108fc029290818181858888f19350505050506138f4565b600054600286015460098701546138f2926001600160a01b03918216929116906144bd565b505b6000546080890151600154613917926001600160a01b03918216929116906144bd565b506020880151885160808a0151600288015460098901546040517f6cecfd3ec56289ccb16e30eb194f9a87dfdc12630b9abbc31fc69af5a0b0eaf49361396c93909290916001600160a01b0390911690615444565b60405180910390a35b505050608090940151949350505050565b6000600682600001518154811061399f5761399f61504e565b906000526020600020906004020190506000816003018360200151815481106139ca576139ca61504e565b90600052602060002090600b02019050600060058260000154815481106139f3576139f361504e565b6000918252602080832090910154865191870151606088015160a08901516001600160a01b0390931695508593634fe264fb93909291613a3291615463565b6040516001600160e01b031960e086901b168152600481019390935260248301919091526044820152606401602060405180830381865afa158015613a7b573d6000803e3d6000fd5b505050506040513d601f19601f82011682018060405250810190613a9f9190615250565b9050612710811115613ab057506127105b60008360060186606001518760a00151613aca9190615463565b81548110613ada57613ada61504e565b600091825260208220015460018601546001600160a01b03909116925061271090613b069085906151c4565b613b1091906151f1565b60035460405163965af6c760e01b81529192506001600160a01b03169063965af6c790613b4390859085906004016153eb565b600060405180830381600087803b158015613b5d57600080fd5b505af1158015613b71573d6000803e3d6000fd5b5050600354604051636624192f60e01b81526001600160a01b039091169250636624192f9150613ba59085906004016147e8565b602060405180830381865afa158015613bc2573d6000803e3d6000fd5b505050506040513d601f19601f82011682018060405250810190613be691906150a6565b613c0357600154613c01906001600160a01b031683836144bd565b505b60006127108489604001518a60800151613c1d91906151f1565b613c2791906151c4565b613c3191906151f1565b905080866008016000828254613c47919061523d565b925050819055506000612710858a604001518960020154613c6891906151f1565b613c7291906151c4565b613c7c91906151f1565b905080876007016000828254613c92919061523d565b9091555050600154613cae906001600160a01b031685846144bd565b5060098701546001600160a01b0316613cec576040516001600160a01b0385169082156108fc029083906000818181858888f1935050505050613d07565b6009870154613d05906001600160a01b031685836144bd565b505b6020890151895160098901546040516001600160a01b03888116927f8975b837fe0d18616c65abb8b843726a32b552ee4feca009944fa658bbb282e792613d57928c928a928a9290911690615420565b60405180910390a4600189606001516002613d7291906151c4565b613d7c9190615093565b8960a0015103613e9e57600087600801548a60800151613d9c9190615093565b9050600088600701548960020154613db49190615093565b905081151580613dc357508015155b15611477578115613ded57600054600154613deb916001600160a01b039182169116846144bd565b505b8015613e545760098901546001600160a01b0316613e3357600080546040516001600160a01b039091169183156108fc02918491818181858888f1935050505050613e54565b60005460098a0154613e52916001600160a01b039182169116836144bd565b505b60208b01518b5160098b01546040517f6cecfd3ec56289ccb16e30eb194f9a87dfdc12630b9abbc31fc69af5a0b0eaf49161270591879187916001600160a01b0390911690615444565b505050505050505050565b6000546001600160a01b03163314613ed45760405163c383977560e01b815260040160405180910390fd5b50565b60006001600160601b0385161580613ef957506004546001600160601b038616115b15613f0f57613f078261458a565b506000613335565b8315801590613f4a57506004856001600160601b031681548110613f3557613f3561504e565b90600052602060002090600c02016002015484105b15613f5857613f078261458a565b600354604051630a5861b960e41b81526001600160a01b0388811660048301526001600160601b0388166024830152604482018790528515156064830152600092839283929091169063a5861b90906084016060604051808303816000875af1158015613fc9573d6000803e3d6000fd5b505050506040513d601f19601f82011682018060405250810190613fed9190615477565b9250925092508061400d576140018561458a565b60009350505050613335565b82156140385760015461402b906001600160a01b03168a308661435a565b614038576140018561458a565b811561406257600154614055906001600160a01b03168a846144bd565b614062576140018561458a565b50600198975050505050505050565b600080600061407f86614436565b92505091506004826001600160601b0316815481106140a0576140a061504e565b60009182526020808320848452600a600c90930201919091019052604090205460ff166140e05760405163b34eb75d60e01b815260040160405180910390fd5b600680546001810182556000918252600160601b33026001600160601b03851617600482027ff652222313e28459528d920b65115c16c04f3efc82aaedc97be59f3f377c0d3f8101918255427ff652222313e28459528d920b65115c16c04f3efc82aaedc97be59f3f377c0d4190910155600580549296509092918490811061416b5761416b61504e565b60009182526020822001548354600480546001600160a01b039093169450916001600160601b039091169081106141a4576141a461504e565b60009182526020808320600387018054600181018255908552918420600c909302019350600b0201906001600160a01b038a16156141ef576141ea8a8460040154610f91565b6141f5565b82600401545b9050614201818a6151f1565b600380840191909155868355830154600284015461271091614222916151c4565b61422c91906151f1565b6001830155600282018990556009820180546001600160a01b0319166001600160a01b038c81169190911790915560035460405163d09f392d60e01b8152600481018b90526000602482015291169063d09f392d90604401600060405180830381600087803b15801561429e57600080fd5b505af11580156142b2573d6000803e3d6000fd5b50505050836001600160a01b031663b6ede540898e8e86600301546040518563ffffffff1660e01b81526004016142ec949392919061539e565b600060405180830381600087803b15801561430657600080fd5b505af115801561431a573d6000803e3d6000fd5b50506040513392508a91507f141dfc18aa6a56fc816f44f0e9e2f1ebc92b15ab167770e17db5b084c10ed99590600090a350505050505050949350505050565b6040516001600160a01b038481166024830152838116604483015260648201839052600091829182919088169060840160408051601f198184030181529181526020820180516001600160e01b03166323b872dd60e01b179052516143bf919061528d565b6000604051808303816000865af19150503d80600081146143fc576040519150601f19603f3d011682016040523d82523d6000602084013e614401565b606091505b509150915081801561442b57508051158061442b57508080602001905181019061442b91906150a6565b979650505050505050565b600080600060408451106144ab575050506020810151604082015160608301516001600160601b038316158061447757506004546001600160601b03841610155b1561448157600192505b8160000361448e57600391505b80158061449d57506005548110155b156144a6575060015b6144b6565b506001915060039050815b9193909250565b6000806000856001600160a01b031685856040516024016144df9291906153eb565b60408051601f198184030181529181526020820180516001600160e01b031663a9059cbb60e01b17905251614514919061528d565b6000604051808303816000865af19150503d8060008114614551576040519150601f19603f3d011682016040523d82523d6000602084013e614556565b606091505b509150915081801561458057508051158061458057508080602001905181019061458091906150a6565b9695505050505050565b600181600181111561459e5761459e614977565b036145a65750565b60405163a437293760e01b815260040160405180910390fd5b60405180608001604052806004906020820280368337509192915050565b826004810192821561460b579160200282015b8281111561460b5782518255916020019190600101906145f0565b50614617929150614655565b5090565b82805482825590600052602060002090810192821561460b579160200282018281111561460b5782518255916020019190600101906145f0565b5b808211156146175760008155600101614656565b6001600160a01b0381168114613ed457600080fd5b60006020828403121561469157600080fd5b813561469c8161466a565b9392505050565b80356001600160601b03811681146146ba57600080fd5b919050565b634e487b7160e01b600052604160045260246000fd5b604051601f8201601f191681016001600160401b03811182821017156146fd576146fd6146bf565b604052919050565b600082601f83011261471657600080fd5b813560206001600160401b03821115614731576147316146bf565b8160051b6147408282016146d5565b928352848101820192828101908785111561475a57600080fd5b83870192505b8483101561442b57823582529183019190830190614760565b8015158114613ed457600080fd5b60008060006060848603121561479c57600080fd5b6147a5846146a3565b925060208401356001600160401b038111156147c057600080fd5b6147cc86828701614705565b92505060408401356147dd81614779565b809150509250925092565b6001600160a01b0391909116815260200190565b60006020828403121561480e57600080fd5b5035919050565b6000806040838503121561482857600080fd5b82356148338161466a565b946020939093013593505050565b60008060006060848603121561485657600080fd5b505081359360208301359350604090920135919050565b60006020828403121561487f57600080fd5b610fe2826146a3565b8060005b6004811015610a5957815184526020938401939091019060010161488c565b60808101610fe58284614888565b600082601f8301126148ca57600080fd5b81356001600160401b038111156148e3576148e36146bf565b6148f6601f8201601f19166020016146d5565b81815284602083860101111561490b57600080fd5b816020850160208301376000918101602001919091529392505050565b6000806040838503121561493b57600080fd5b82356149468161466a565b915060208301356001600160401b0381111561496157600080fd5b61496d858286016148b9565b9150509250929050565b634e487b7160e01b600052602160045260246000fd5b600581106149ab57634e487b7160e01b600052602160045260246000fd5b9052565b6001600160601b03861681526001600160a01b038516602082015260a081016149db604083018661498d565b9215156060820152608001529392505050565b600080600060608486031215614a0357600080fd5b8335614a0e8161466a565b92506020840135915060408401356001600160401b03811115614a3057600080fd5b614a3c868287016148b9565b9150509250925092565b60008060408385031215614a5957600080fd5b614833836146a3565b60008060408385031215614a7557600080fd5b8235614a808161466a565b91506020830135614a9081614779565b809150509250929050565b600080600060608486031215614ab057600080fd5b8335614abb8161466a565b925060208401356001600160401b0381168114614ad757600080fd5b9150604084013560ff811681146147dd57600080fd5b600082601f830112614afe57600080fd5b604051608081018181106001600160401b0382111715614b2057614b206146bf565b604052806080840185811115614b3557600080fd5b845b81811015614b4f578035835260209283019201614b37565b509195945050505050565b6000806000806000806000610140888a031215614b7657600080fd5b614b7f886146a3565b96506020880135614b8f81614779565b955060408801359450606088013593506080880135925060a08801359150614bba8960c08a01614aed565b905092959891949750929550565b60008060408385031215614bdb57600080fd5b50508035926020909101359150565b600081518084526020808501945080840160005b83811015614c235781516001600160a01b031687529582019590820190600101614bfe565b509495945050505050565b6020815281516020820152602082015160408201526040820151606082015260608201516080820152608082015160a082015260a082015160c0820152600060c08301516101608060e0850152614c89610180850183614bea565b60e08601516101008681019190915286015161012080870191909152860151909250610140614cc2818701836001600160a01b03169052565b959095015193019290925250919050565b60008060008060008060008060006101e08a8c031215614cf257600080fd5b8935614cfd8161466a565b985060208a0135614d0d8161466a565b975060408a0135614d1d8161466a565b965060608a0135614d2d8161466a565b955060808a0135614d3d81614779565b9450614d4c8b60a08c01614aed565b9350614d5c8b6101208c01614aed565b92506101a08a01356001600160401b03811115614d7857600080fd5b614d848c828d016148b9565b9250506101c08a0135614d968161466a565b809150509295985092959850929598565b60008060008060008060008060006101808a8c031215614dc657600080fd5b614dcf8a6146a3565b985060208a0135614ddf81614779565b975060408a0135965060608a0135955060808a0135945060a08a01359350614e0a8b60c08c01614aed565b92506101408a01356001600160401b0380821115614e2757600080fd5b614e338d838e016148b9565b93506101608c0135915080821115614e4a57600080fd5b50614e578c828d01614705565b9150509295985092959850929598565b60008060408385031215614e7a57600080fd5b8235915060208301356001600160401b0381111561496157600080fd5b600080600060608486031215614eac57600080fd5b833592506020840135915060408401356001600160401b03811115614a3057600080fd5b60008083601f840112614ee257600080fd5b5081356001600160401b03811115614ef957600080fd5b602083019150836020828501011115614f1157600080fd5b9250929050565b600080600060408486031215614f2d57600080fd5b83356001600160401b03811115614f4357600080fd5b614f4f86828701614ed0565b90945092505060208401356147dd8161466a565b600080600080600060808688031215614f7b57600080fd5b8535945060208601356001600160401b03811115614f9857600080fd5b614fa488828901614ed0565b9095509350506040860135614fb88161466a565b949793965091946060013592915050565b600060208284031215614fdb57600080fd5b81356001600160401b03811115614ff157600080fd5b613203848285016148b9565b6000806000806080858703121561501357600080fd5b843561501e8161466a565b935061502c602086016146a3565b925060408501359150606085013561504381614779565b939692955090935050565b634e487b7160e01b600052603260045260246000fd5b634e487b7160e01b600052601160045260246000fd5b60006001820161508c5761508c615064565b5060010190565b81810381811115610fe557610fe5615064565b6000602082840312156150b857600080fd5b815161469c81614779565b60208101610fe5828461498d565b600181815b8085111561510c5781600019048211156150f2576150f2615064565b808516156150ff57918102915b93841c93908002906150d6565b509250929050565b60008261512357506001610fe5565b8161513057506000610fe5565b816001811461514657600281146151505761516c565b6001915050610fe5565b60ff84111561516157615161615064565b50506001821b610fe5565b5060208310610133831016604e8410600b841016171561518f575081810a610fe5565b61519983836150d1565b80600019048211156151ad576151ad615064565b029392505050565b6000610fe260ff841683615114565b8082028115828204841417610fe557610fe5615064565b634e487b7160e01b600052601260045260246000fd5b600082615200576152006151db565b500490565b60008060006060848603121561521a57600080fd5b83519250602084015161522c81614779565b60408501519092506147dd81614779565b80820180821115610fe557610fe5615064565b60006020828403121561526257600080fd5b5051919050565b60005b8381101561528457818101518382015260200161526c565b50506000910152565b6000825161529f818460208701615269565b9190910192915050565b600061012082019050871515825286602083015285604083015284606083015283608083015261442b60a0830184614888565b600081518084526152f4816020860160208601615269565b601f01601f19169290920160200192915050565b82815260406020820152600061320360408301846152dc565b60006101408083018a1515845260208a8186015289604086015288606086015287608086015261535460a0860188614888565b6101208501929092528451908190526101608401918086019160005b8181101561538c57835185529382019392820192600101615370565b50929c9b505050505050505050505050565b8481528360208201526080604082015260006153bd60808301856152dc565b905082606083015295945050505050565b6000602082840312156153e057600080fd5b815161469c8161466a565b6001600160a01b03929092168252602082015260400190565b6000600160ff1b820161541957615419615064565b5060000390565b938452602084019290925260408301526001600160a01b0316606082015260800190565b92835260208301919091526001600160a01b0316604082015260600190565b600082615472576154726151db565b500690565b60008060006060848603121561548c57600080fd5b835192506020840151915060408401516147dd8161477956fe360894a13ba1a3210667c828492db98dca3e2076cc3735a920a3ca505d382bbca264697066735822122058616b04888240cc8d37ba1cf4119a0c7b9f8bb808137ebdb313ab46eaa623ad64736f6c63430008120033",
  "devdoc": {
    "errors": {
      "AlreadyInitialized()": [
        {
          "details": "The contract is already initialized."
        }
      ],
      "NotInitializing()": [
        {
          "details": "The contract is not initializing."
        }
      ],
      "UUPSUnauthorizedCallContext()": [
        {
          "details": "The call is from an unauthorized context."
        }
      ],
      "UUPSUnsupportedProxiableUUID(bytes32)": [
        {
          "details": "The storage `slot` is unsupported as a UUID."
        }
      ]
    },
    "events": {
      "AcceptedFeeToken(address,bool)": {
        "details": "To be emitted when an ERC20 token is added or removed as a method to pay fees.",
        "params": {
          "_accepted": "Whether the token is accepted or not.",
          "_token": "The ERC20 token."
        }
      },
      "DisputeCreation(uint256,address)": {
        "details": "To be emitted when a dispute is created.",
        "params": {
          "_arbitrable": "The contract which created the dispute.",
          "_disputeID": "The identifier of the dispute in the Arbitrator contract."
        }
      },
      "Initialized(uint64)": {
        "details": "Triggered when the contract has been initialized or reinitialized."
      },
      "NewCurrencyRate(address,uint64,uint8)": {
        "details": "To be emitted when the fee for a particular ERC20 token is updated.",
        "params": {
          "_feeToken": "The ERC20 token.",
          "_rateDecimals": "The new decimals of the fee token rate.",
          "_rateInEth": "The new rate of the fee token in ETH."
        }
      },
      "Ruling(address,uint256,uint256)": {
        "details": "To be raised when a ruling is given.",
        "params": {
          "_arbitrable": "The arbitrable receiving the ruling.",
          "_disputeID": "The identifier of the dispute in the Arbitrator contract.",
          "_ruling": "The ruling which was given."
        }
      },
      "Upgraded(address)": {
        "params": {
          "newImplementation": "Address of the new implementation the proxy is now forwarding calls to."
        }
      }
    },
    "kind": "dev",
    "methods": {
      "addNewDisputeKit(address)": {
        "details": "Add a new supported dispute kit module to the court.",
        "params": {
          "_disputeKitAddress": "The address of the dispute kit contract."
        }
      },
      "appeal(uint256,uint256,bytes)": {
        "details": "Appeals the ruling of a specified dispute. Note: Access restricted to the Dispute Kit for this `disputeID`.",
        "params": {
          "_disputeID": "The ID of the dispute.",
          "_extraData": "Extradata for the dispute. Can be required during court jump.",
          "_numberOfChoices": "Number of choices for the dispute. Can be required during court jump."
        }
      },
      "appealCost(uint256)": {
        "details": "Gets the cost of appealing a specified dispute.",
        "params": {
          "_disputeID": "The ID of the dispute."
        },
        "returns": {
          "cost": "The appeal cost."
        }
      },
      "appealPeriod(uint256)": {
        "details": "Gets the start and the end of a specified dispute's current appeal period.",
        "params": {
          "_disputeID": "The ID of the dispute."
        },
        "returns": {
          "end": "The end of the appeal period.",
          "start": "The start of the appeal period."
        }
      },
      "arbitrationCost(bytes)": {
        "details": "Compute the cost of arbitration denominated in ETH.      It is recommended not to increase it often, as it can be highly time and gas consuming for the arbitrated contracts to cope with fee augmentation.",
        "params": {
          "_extraData": "Additional info about the dispute. We use it to pass the ID of the dispute's court (first 32 bytes), the minimum number of jurors required (next 32 bytes) and the ID of the specific dispute kit (last 32 bytes)."
        },
        "returns": {
          "cost": "The arbitration cost in ETH."
        }
      },
      "arbitrationCost(bytes,address)": {
        "details": "Compute the cost of arbitration denominated in `_feeToken`.      It is recommended not to increase it often, as it can be highly time and gas consuming for the arbitrated contracts to cope with fee augmentation.",
        "params": {
          "_extraData": "Additional info about the dispute. We use it to pass the ID of the dispute's court (first 32 bytes), the minimum number of jurors required (next 32 bytes) and the ID of the specific dispute kit (last 32 bytes).",
          "_feeToken": "The ERC20 token used to pay fees."
        },
        "returns": {
          "cost": "The arbitration cost in `_feeToken`."
        }
      },
      "changeAcceptedFeeTokens(address,bool)": {
        "details": "Changes the supported fee tokens.",
        "params": {
          "_accepted": "Whether the token is supported or not as a method of fee payment.",
          "_feeToken": "The fee token."
        }
      },
      "changeCurrencyRates(address,uint64,uint8)": {
        "details": "Changes the currency rate of a fee token.",
        "params": {
          "_feeToken": "The fee token.",
          "_rateDecimals": "The new decimals of the fee token rate.",
          "_rateInEth": "The new rate of the fee token in ETH."
        }
      },
      "changeGovernor(address)": {
        "details": "Changes the `governor` storage variable.",
        "params": {
          "_governor": "The new value for the `governor` storage variable."
        }
      },
      "changeJurorProsecutionModule(address)": {
        "details": "Changes the `jurorProsecutionModule` storage variable.",
        "params": {
          "_jurorProsecutionModule": "The new value for the `jurorProsecutionModule` storage variable."
        }
      },
      "changePinakion(address)": {
        "details": "Changes the `pinakion` storage variable.",
        "params": {
          "_pinakion": "The new value for the `pinakion` storage variable."
        }
      },
      "changeSortitionModule(address)": {
        "details": "Changes the `_sortitionModule` storage variable. Note that the new module should be initialized for all courts.",
        "params": {
          "_sortitionModule": "The new value for the `sortitionModule` storage variable."
        }
      },
      "constructor": {
        "details": "Constructor, initializing the implementation to reduce attack surface."
      },
      "createCourt(uint96,bool,uint256,uint256,uint256,uint256,uint256[4],bytes,uint256[])": {
        "details": "Creates a court under a specified parent court.",
        "params": {
          "_alpha": "The `alpha` property value of the court.",
          "_feeForJuror": "The `feeForJuror` property value of the court.",
          "_hiddenVotes": "The `hiddenVotes` property value of the court.",
          "_jurorsForCourtJump": "The `jurorsForCourtJump` property value of the court.",
          "_minStake": "The `minStake` property value of the court.",
          "_parent": "The `parent` property value of the court.",
          "_sortitionExtraData": "Extra data for sortition module.",
          "_supportedDisputeKits": "Indexes of dispute kits that this court will support.",
          "_timesPerPeriod": "The `timesPerPeriod` property value of the court."
        }
      },
      "createDispute(uint256,bytes)": {
        "details": "Create a dispute and pay for the fees in the native currency, typically ETH.      Must be called by the arbitrable contract.      Must pay at least arbitrationCost(_extraData).",
        "params": {
          "_extraData": "Additional info about the dispute. We use it to pass the ID of the dispute's court (first 32 bytes), the minimum number of jurors required (next 32 bytes) and the ID of the specific dispute kit (last 32 bytes).",
          "_numberOfChoices": "The number of choices the arbitrator can choose from in this dispute."
        },
        "returns": {
          "disputeID": "The identifier of the dispute created."
        }
      },
      "createDispute(uint256,bytes,address,uint256)": {
        "details": "Create a dispute and pay for the fees in a supported ERC20 token.      Must be called by the arbitrable contract.      Must pay at least arbitrationCost(_extraData).",
        "params": {
          "_extraData": "Additional info about the dispute. We use it to pass the ID of the dispute's court (first 32 bytes), the minimum number of jurors required (next 32 bytes) and the ID of the specific dispute kit (last 32 bytes).",
          "_feeAmount": "Amount of the ERC20 token used to pay fees.",
          "_feeToken": "The ERC20 token used to pay fees.",
          "_numberOfChoices": "The number of choices the arbitrator can choose from in this dispute."
        },
        "returns": {
          "disputeID": "The identifier of the dispute created."
        }
      },
      "currentRuling(uint256)": {
        "details": "Gets the current ruling of a specified dispute.",
        "params": {
          "_disputeID": "The ID of the dispute."
        },
        "returns": {
          "overridden": "Whether the ruling was overridden by appeal funding or not.",
          "ruling": "The current ruling.",
          "tied": "Whether it's a tie or not."
        }
      },
      "draw(uint256,uint256)": {
        "details": "Draws jurors for the dispute. Can be called in parts.",
        "params": {
          "_disputeID": "The ID of the dispute.",
          "_iterations": "The number of iterations to run."
        }
      },
      "enableDisputeKits(uint96,uint256[],bool)": {
        "details": "Adds/removes court's support for specified dispute kits.",
        "params": {
          "_courtID": "The ID of the court.",
          "_disputeKitIDs": "The IDs of dispute kits which support should be added/removed.",
          "_enable": "Whether add or remove the dispute kits from the court."
        }
      },
      "execute(uint256,uint256,uint256)": {
        "details": "Distribute the PNKs at stake and the dispute fees for the specific round of the dispute. Can be called in parts.",
        "params": {
          "_disputeID": "The ID of the dispute.",
          "_iterations": "The number of iterations to run.",
          "_round": "The appeal round."
        }
      },
      "executeGovernorProposal(address,uint256,bytes)": {
        "details": "Allows the governor to call anything on behalf of the contract.",
        "params": {
          "_amount": "The value sent with the call.",
          "_data": "The data sent with the call.",
          "_destination": "The destination of the call."
        }
      },
      "executeRuling(uint256)": {
        "details": "Executes a specified dispute's ruling.",
        "params": {
          "_disputeID": "The ID of the dispute."
        }
      },
      "getNumberOfVotes(uint256)": {
        "details": "Gets the number of votes permitted for the specified dispute in the latest round.",
        "params": {
          "_disputeID": "The ID of the dispute."
        }
      },
      "getTimesPerPeriod(uint96)": {
        "details": "Gets the timesPerPeriod array for a given court.",
        "params": {
          "_courtID": "The ID of the court to get the times from."
        },
        "returns": {
          "timesPerPeriod": "The timesPerPeriod array for the given court."
        }
      },
      "initialize(address,address,address,address,bool,uint256[4],uint256[4],bytes,address)": {
        "details": "Initializer (constructor equivalent for upgradable contracts).",
        "params": {
          "_courtParameters": "Numeric parameters of General court (minStake, alpha, feeForJuror and jurorsForCourtJump respectively).",
          "_disputeKit": "The address of the default dispute kit.",
          "_governor": "The governor's address.",
          "_hiddenVotes": "The `hiddenVotes` property value of the general court.",
          "_jurorProsecutionModule": "The address of the juror prosecution module.",
          "_pinakion": "The address of the token contract.",
          "_sortitionExtraData": "The extra data for sortition module.",
          "_sortitionModuleAddress": "The sortition module responsible for sortition of the jurors.",
          "_timesPerPeriod": "The `timesPerPeriod` property value of the general court."
        }
      },
      "isDisputeKitJumping(uint256)": {
        "details": "Returns true if the dispute kit will be switched to a parent DK.",
        "params": {
          "_disputeID": "The ID of the dispute."
        },
        "returns": {
          "_0": "Whether DK will be switched or not."
        }
      },
      "passPeriod(uint256)": {
        "details": "Passes the period of a specified dispute.",
        "params": {
          "_disputeID": "The ID of the dispute."
        }
      },
      "proxiableUUID()": {
        "details": "Implementation of the ERC1822 `proxiableUUID` function. This returns the storage slot used by the implementation. It is used to validate the implementation's compatibility when performing an upgrade. IMPORTANT: A proxy pointing at a proxiable contract should not be considered proxiable itself, because this risks bricking a proxy that upgrades to it, by delegating to itself until out of gas. Thus it is critical that this function revert if invoked through a proxy. This is guaranteed by the if statement."
      },
      "setStake(uint96,uint256)": {
        "details": "Sets the caller's stake in a court.",
        "params": {
          "_courtID": "The ID of the court.",
          "_newStake": "The new stake. Note that the existing delayed stake will be nullified as non-relevant."
        }
      },
      "setStakeBySortitionModule(address,uint96,uint256,bool)": {
        "details": "Sets the stake of a specified account in a court, typically to apply a delayed stake or unstake inactive jurors.",
        "params": {
          "_account": "The account whose stake is being set.",
          "_alreadyTransferred": "Whether the PNKs have already been transferred to the contract.",
          "_courtID": "The ID of the court.",
          "_newStake": "The new stake."
        }
      },
      "upgradeToAndCall(address,bytes)": {
        "details": "Upgrade mechanism including access control and UUPS-compliance.Reverts if the execution is not performed via delegatecall or the execution context is not of a proxy with an ERC1967-compliant implementation pointing to self.",
        "params": {
          "data": "Data used in a delegate call to `newImplementation` if non-empty. This will typically be an encoded function call, and allows initializing the storage of the proxy like a Solidity constructor.",
          "newImplementation": "Address of the new implementation contract."
        }
      }
    },
    "title": "KlerosCore Core arbitrator contract for Kleros v2. Note that this contract trusts the PNK token, the dispute kit and the sortition module contracts.",
    "version": 1
  },
  "userdoc": {
    "errors": {
      "FailedDelegateCall()": [
        {
          "notice": "Failed Delegated call"
        }
      ],
      "InvalidImplementation(address)": [
        {
          "notice": "The `implementation` is not UUPS-compliant"
        }
      ]
    },
    "events": {
      "Upgraded(address)": {
        "notice": "Emitted when the `implementation` has been successfully upgraded."
      }
    },
    "kind": "user",
    "methods": {},
    "version": 1
  },
  "storageLayout": {
    "storage": [
      {
        "astId": 3081,
        "contract": "src/arbitration/KlerosCore.sol:KlerosCore",
        "label": "governor",
        "offset": 0,
        "slot": "0",
        "type": "t_address"
      },
      {
        "astId": 3084,
        "contract": "src/arbitration/KlerosCore.sol:KlerosCore",
        "label": "pinakion",
        "offset": 0,
        "slot": "1",
        "type": "t_contract(IERC20)1042"
      },
      {
        "astId": 3086,
        "contract": "src/arbitration/KlerosCore.sol:KlerosCore",
        "label": "jurorProsecutionModule",
        "offset": 0,
        "slot": "2",
        "type": "t_address"
      },
      {
        "astId": 3089,
        "contract": "src/arbitration/KlerosCore.sol:KlerosCore",
        "label": "sortitionModule",
        "offset": 0,
        "slot": "3",
        "type": "t_contract(ISortitionModule)17351"
      },
      {
        "astId": 3093,
        "contract": "src/arbitration/KlerosCore.sol:KlerosCore",
        "label": "courts",
        "offset": 0,
        "slot": "4",
        "type": "t_array(t_struct(Court)3004_storage)dyn_storage"
      },
      {
        "astId": 3097,
        "contract": "src/arbitration/KlerosCore.sol:KlerosCore",
        "label": "disputeKits",
        "offset": 0,
        "slot": "5",
        "type": "t_array(t_contract(IDisputeKit)17190)dyn_storage"
      },
      {
        "astId": 3101,
        "contract": "src/arbitration/KlerosCore.sol:KlerosCore",
        "label": "disputes",
        "offset": 0,
        "slot": "6",
        "type": "t_array(t_struct(Dispute)3021_storage)dyn_storage"
      },
      {
        "astId": 3107,
        "contract": "src/arbitration/KlerosCore.sol:KlerosCore",
        "label": "currencyRates",
        "offset": 0,
        "slot": "7",
        "type": "t_mapping(t_contract(IERC20)1042,t_struct(CurrencyRate)3066_storage)"
      }
    ],
    "types": {
      "t_address": {
        "encoding": "inplace",
        "label": "address",
        "numberOfBytes": "20"
      },
      "t_array(t_address)dyn_storage": {
        "base": "t_address",
        "encoding": "dynamic_array",
        "label": "address[]",
        "numberOfBytes": "32"
      },
      "t_array(t_contract(IDisputeKit)17190)dyn_storage": {
        "base": "t_contract(IDisputeKit)17190",
        "encoding": "dynamic_array",
        "label": "contract IDisputeKit[]",
        "numberOfBytes": "32"
      },
      "t_array(t_struct(Court)3004_storage)dyn_storage": {
        "base": "t_struct(Court)3004_storage",
        "encoding": "dynamic_array",
        "label": "struct KlerosCore.Court[]",
        "numberOfBytes": "32"
      },
      "t_array(t_struct(Dispute)3021_storage)dyn_storage": {
        "base": "t_struct(Dispute)3021_storage",
        "encoding": "dynamic_array",
        "label": "struct KlerosCore.Dispute[]",
        "numberOfBytes": "32"
      },
      "t_array(t_struct(Round)3046_storage)dyn_storage": {
        "base": "t_struct(Round)3046_storage",
        "encoding": "dynamic_array",
        "label": "struct KlerosCore.Round[]",
        "numberOfBytes": "32"
      },
      "t_array(t_uint256)4_storage": {
        "base": "t_uint256",
        "encoding": "inplace",
        "label": "uint256[4]",
        "numberOfBytes": "128"
      },
      "t_array(t_uint256)dyn_storage": {
        "base": "t_uint256",
        "encoding": "dynamic_array",
        "label": "uint256[]",
        "numberOfBytes": "32"
      },
      "t_bool": {
        "encoding": "inplace",
        "label": "bool",
        "numberOfBytes": "1"
      },
      "t_contract(IArbitrableV2)16951": {
        "encoding": "inplace",
        "label": "contract IArbitrableV2",
        "numberOfBytes": "20"
      },
      "t_contract(IDisputeKit)17190": {
        "encoding": "inplace",
        "label": "contract IDisputeKit",
        "numberOfBytes": "20"
      },
      "t_contract(IERC20)1042": {
        "encoding": "inplace",
        "label": "contract IERC20",
        "numberOfBytes": "20"
      },
      "t_contract(ISortitionModule)17351": {
        "encoding": "inplace",
        "label": "contract ISortitionModule",
        "numberOfBytes": "20"
      },
      "t_enum(Period)2978": {
        "encoding": "inplace",
        "label": "enum KlerosCore.Period",
        "numberOfBytes": "1"
      },
      "t_mapping(t_contract(IERC20)1042,t_struct(CurrencyRate)3066_storage)": {
        "encoding": "mapping",
        "key": "t_contract(IERC20)1042",
        "label": "mapping(contract IERC20 => struct KlerosCore.CurrencyRate)",
        "numberOfBytes": "32",
        "value": "t_struct(CurrencyRate)3066_storage"
      },
      "t_mapping(t_uint256,t_bool)": {
        "encoding": "mapping",
        "key": "t_uint256",
        "label": "mapping(uint256 => bool)",
        "numberOfBytes": "32",
        "value": "t_bool"
      },
      "t_struct(Court)3004_storage": {
        "encoding": "inplace",
        "label": "struct KlerosCore.Court",
        "members": [
          {
            "astId": 2980,
            "contract": "src/arbitration/KlerosCore.sol:KlerosCore",
            "label": "parent",
            "offset": 0,
            "slot": "0",
            "type": "t_uint96"
          },
          {
            "astId": 2982,
            "contract": "src/arbitration/KlerosCore.sol:KlerosCore",
            "label": "hiddenVotes",
            "offset": 12,
            "slot": "0",
            "type": "t_bool"
          },
          {
            "astId": 2985,
            "contract": "src/arbitration/KlerosCore.sol:KlerosCore",
            "label": "children",
            "offset": 0,
            "slot": "1",
            "type": "t_array(t_uint256)dyn_storage"
          },
          {
            "astId": 2987,
            "contract": "src/arbitration/KlerosCore.sol:KlerosCore",
            "label": "minStake",
            "offset": 0,
            "slot": "2",
            "type": "t_uint256"
          },
          {
            "astId": 2989,
            "contract": "src/arbitration/KlerosCore.sol:KlerosCore",
            "label": "alpha",
            "offset": 0,
            "slot": "3",
            "type": "t_uint256"
          },
          {
            "astId": 2991,
            "contract": "src/arbitration/KlerosCore.sol:KlerosCore",
            "label": "feeForJuror",
            "offset": 0,
            "slot": "4",
            "type": "t_uint256"
          },
          {
            "astId": 2993,
            "contract": "src/arbitration/KlerosCore.sol:KlerosCore",
            "label": "jurorsForCourtJump",
            "offset": 0,
            "slot": "5",
            "type": "t_uint256"
          },
          {
            "astId": 2997,
            "contract": "src/arbitration/KlerosCore.sol:KlerosCore",
            "label": "timesPerPeriod",
            "offset": 0,
            "slot": "6",
            "type": "t_array(t_uint256)4_storage"
          },
          {
            "astId": 3001,
            "contract": "src/arbitration/KlerosCore.sol:KlerosCore",
            "label": "supportedDisputeKits",
            "offset": 0,
            "slot": "10",
            "type": "t_mapping(t_uint256,t_bool)"
          },
          {
            "astId": 3003,
            "contract": "src/arbitration/KlerosCore.sol:KlerosCore",
            "label": "disabled",
            "offset": 0,
            "slot": "11",
            "type": "t_bool"
          }
        ],
        "numberOfBytes": "384"
      },
      "t_struct(CurrencyRate)3066_storage": {
        "encoding": "inplace",
        "label": "struct KlerosCore.CurrencyRate",
        "members": [
          {
            "astId": 3061,
            "contract": "src/arbitration/KlerosCore.sol:KlerosCore",
            "label": "feePaymentAccepted",
            "offset": 0,
            "slot": "0",
            "type": "t_bool"
          },
          {
            "astId": 3063,
            "contract": "src/arbitration/KlerosCore.sol:KlerosCore",
            "label": "rateInEth",
            "offset": 1,
            "slot": "0",
            "type": "t_uint64"
          },
          {
            "astId": 3065,
            "contract": "src/arbitration/KlerosCore.sol:KlerosCore",
            "label": "rateDecimals",
            "offset": 9,
            "slot": "0",
            "type": "t_uint8"
          }
        ],
        "numberOfBytes": "32"
      },
      "t_struct(Dispute)3021_storage": {
        "encoding": "inplace",
        "label": "struct KlerosCore.Dispute",
        "members": [
          {
            "astId": 3006,
            "contract": "src/arbitration/KlerosCore.sol:KlerosCore",
            "label": "courtID",
            "offset": 0,
            "slot": "0",
            "type": "t_uint96"
          },
          {
            "astId": 3009,
            "contract": "src/arbitration/KlerosCore.sol:KlerosCore",
            "label": "arbitrated",
            "offset": 12,
            "slot": "0",
            "type": "t_contract(IArbitrableV2)16951"
          },
          {
            "astId": 3012,
            "contract": "src/arbitration/KlerosCore.sol:KlerosCore",
            "label": "period",
            "offset": 0,
            "slot": "1",
            "type": "t_enum(Period)2978"
          },
          {
            "astId": 3014,
            "contract": "src/arbitration/KlerosCore.sol:KlerosCore",
            "label": "ruled",
            "offset": 1,
            "slot": "1",
            "type": "t_bool"
          },
          {
            "astId": 3016,
            "contract": "src/arbitration/KlerosCore.sol:KlerosCore",
            "label": "lastPeriodChange",
            "offset": 0,
            "slot": "2",
            "type": "t_uint256"
          },
          {
            "astId": 3020,
            "contract": "src/arbitration/KlerosCore.sol:KlerosCore",
            "label": "rounds",
            "offset": 0,
            "slot": "3",
            "type": "t_array(t_struct(Round)3046_storage)dyn_storage"
          }
        ],
        "numberOfBytes": "128"
      },
      "t_struct(Round)3046_storage": {
        "encoding": "inplace",
        "label": "struct KlerosCore.Round",
        "members": [
          {
            "astId": 3023,
            "contract": "src/arbitration/KlerosCore.sol:KlerosCore",
            "label": "disputeKitID",
            "offset": 0,
            "slot": "0",
            "type": "t_uint256"
          },
          {
            "astId": 3025,
            "contract": "src/arbitration/KlerosCore.sol:KlerosCore",
            "label": "pnkAtStakePerJuror",
            "offset": 0,
            "slot": "1",
            "type": "t_uint256"
          },
          {
            "astId": 3027,
            "contract": "src/arbitration/KlerosCore.sol:KlerosCore",
            "label": "totalFeesForJurors",
            "offset": 0,
            "slot": "2",
            "type": "t_uint256"
          },
          {
            "astId": 3029,
            "contract": "src/arbitration/KlerosCore.sol:KlerosCore",
            "label": "nbVotes",
            "offset": 0,
            "slot": "3",
            "type": "t_uint256"
          },
          {
            "astId": 3031,
            "contract": "src/arbitration/KlerosCore.sol:KlerosCore",
            "label": "repartitions",
            "offset": 0,
            "slot": "4",
            "type": "t_uint256"
          },
          {
            "astId": 3033,
            "contract": "src/arbitration/KlerosCore.sol:KlerosCore",
            "label": "pnkPenalties",
            "offset": 0,
            "slot": "5",
            "type": "t_uint256"
          },
          {
            "astId": 3036,
            "contract": "src/arbitration/KlerosCore.sol:KlerosCore",
            "label": "drawnJurors",
            "offset": 0,
            "slot": "6",
            "type": "t_array(t_address)dyn_storage"
          },
          {
            "astId": 3038,
            "contract": "src/arbitration/KlerosCore.sol:KlerosCore",
            "label": "sumFeeRewardPaid",
            "offset": 0,
            "slot": "7",
            "type": "t_uint256"
          },
          {
            "astId": 3040,
            "contract": "src/arbitration/KlerosCore.sol:KlerosCore",
            "label": "sumPnkRewardPaid",
            "offset": 0,
            "slot": "8",
            "type": "t_uint256"
          },
          {
            "astId": 3043,
            "contract": "src/arbitration/KlerosCore.sol:KlerosCore",
            "label": "feeToken",
            "offset": 0,
            "slot": "9",
            "type": "t_contract(IERC20)1042"
          },
          {
            "astId": 3045,
            "contract": "src/arbitration/KlerosCore.sol:KlerosCore",
            "label": "drawIterations",
            "offset": 0,
            "slot": "10",
            "type": "t_uint256"
          }
        ],
        "numberOfBytes": "352"
      },
      "t_uint256": {
        "encoding": "inplace",
        "label": "uint256",
        "numberOfBytes": "32"
      },
      "t_uint64": {
        "encoding": "inplace",
        "label": "uint64",
        "numberOfBytes": "8"
      },
      "t_uint8": {
        "encoding": "inplace",
        "label": "uint8",
        "numberOfBytes": "1"
      },
      "t_uint96": {
        "encoding": "inplace",
        "label": "uint96",
        "numberOfBytes": "12"
      }
    }
  }
}