{
  "address": "0xEff34d5b37F0bb4d32C563E21C9C56E971f420Bd",
  "abi": [
    {
      "inputs": [],
      "stateMutability": "nonpayable",
      "type": "constructor"
    },
    {
      "inputs": [],
      "name": "AlreadyInitialized",
      "type": "error"
    },
    {
      "inputs": [],
      "name": "AppealFeesNotEnough",
      "type": "error"
    },
    {
      "inputs": [],
      "name": "AppealPeriodNotPassed",
      "type": "error"
    },
    {
      "inputs": [],
      "name": "ArbitrationFeesNotEnough",
      "type": "error"
    },
    {
      "inputs": [],
      "name": "CannotDisableClassicDK",
      "type": "error"
    },
    {
      "inputs": [],
      "name": "CommitPeriodNotPassed",
      "type": "error"
    },
    {
      "inputs": [],
      "name": "DisputeKitNotSupportedByCourt",
      "type": "error"
    },
    {
      "inputs": [],
      "name": "DisputeKitOnly",
      "type": "error"
    },
    {
      "inputs": [],
      "name": "DisputeNotAppealable",
      "type": "error"
    },
    {
      "inputs": [],
      "name": "DisputePeriodIsFinal",
      "type": "error"
    },
    {
      "inputs": [],
      "name": "DisputeStillDrawing",
      "type": "error"
    },
    {
      "inputs": [],
      "name": "EvidenceNotPassedAndNotAppeal",
      "type": "error"
    },
    {
      "inputs": [],
      "name": "FailedDelegateCall",
      "type": "error"
    },
    {
      "inputs": [],
      "name": "GovernorOnly",
      "type": "error"
    },
    {
      "inputs": [],
      "name": "GuardianOrGovernorOnly",
      "type": "error"
    },
    {
      "inputs": [],
      "name": "InvalidDisputKitParent",
      "type": "error"
    },
    {
      "inputs": [],
      "name": "InvalidForkingCourtAsParent",
      "type": "error"
    },
    {
      "inputs": [
        {
          "internalType": "address",
          "name": "implementation",
          "type": "address"
        }
      ],
      "name": "InvalidImplementation",
      "type": "error"
    },
    {
      "inputs": [],
      "name": "MinStakeLowerThanParentCourt",
      "type": "error"
    },
    {
      "inputs": [],
      "name": "MustSupportDisputeKitClassic",
      "type": "error"
    },
    {
      "inputs": [],
      "name": "NotEvidencePeriod",
      "type": "error"
    },
    {
      "inputs": [],
      "name": "NotExecutionPeriod",
      "type": "error"
    },
    {
      "inputs": [],
      "name": "NotInitializing",
      "type": "error"
    },
    {
      "inputs": [],
      "name": "RulingAlreadyExecuted",
      "type": "error"
    },
    {
      "inputs": [],
      "name": "SortitionModuleOnly",
      "type": "error"
    },
    {
      "inputs": [],
      "name": "StakingInTooManyCourts",
      "type": "error"
    },
    {
      "inputs": [],
      "name": "StakingLessThanCourtMinStake",
      "type": "error"
    },
    {
      "inputs": [],
      "name": "StakingNotPossibleInThisCourt",
      "type": "error"
    },
    {
      "inputs": [],
      "name": "StakingTransferFailed",
      "type": "error"
    },
    {
      "inputs": [],
      "name": "StakingZeroWhenNoStake",
      "type": "error"
    },
    {
      "inputs": [],
      "name": "TokenNotAccepted",
      "type": "error"
    },
    {
      "inputs": [],
      "name": "TransferFailed",
      "type": "error"
    },
    {
      "inputs": [],
      "name": "UUPSUnauthorizedCallContext",
      "type": "error"
    },
    {
      "inputs": [
        {
          "internalType": "bytes32",
          "name": "slot",
          "type": "bytes32"
        }
      ],
      "name": "UUPSUnsupportedProxiableUUID",
      "type": "error"
    },
    {
      "inputs": [],
      "name": "UnstakingTransferFailed",
      "type": "error"
    },
    {
      "inputs": [],
      "name": "UnsuccessfulCall",
      "type": "error"
    },
    {
      "inputs": [],
      "name": "UnsupportedDisputeKit",
      "type": "error"
    },
    {
      "inputs": [],
      "name": "VotePeriodNotPassed",
      "type": "error"
    },
    {
      "inputs": [],
      "name": "WhenNotPausedOnly",
      "type": "error"
    },
    {
      "inputs": [],
      "name": "WhenPausedOnly",
      "type": "error"
    },
    {
      "inputs": [],
      "name": "WrongDisputeKitIndex",
      "type": "error"
    },
    {
      "anonymous": false,
      "inputs": [
        {
          "indexed": true,
          "internalType": "contract IERC20",
          "name": "_token",
          "type": "address"
        },
        {
          "indexed": true,
          "internalType": "bool",
          "name": "_accepted",
          "type": "bool"
        }
      ],
      "name": "AcceptedFeeToken",
      "type": "event"
    },
    {
      "anonymous": false,
      "inputs": [
        {
          "indexed": true,
          "internalType": "uint256",
          "name": "_disputeID",
          "type": "uint256"
        },
        {
          "indexed": true,
          "internalType": "contract IArbitrableV2",
          "name": "_arbitrable",
          "type": "address"
        }
      ],
      "name": "AppealDecision",
      "type": "event"
    },
    {
      "anonymous": false,
      "inputs": [
        {
          "indexed": true,
          "internalType": "uint256",
          "name": "_disputeID",
          "type": "uint256"
        },
        {
          "indexed": true,
          "internalType": "contract IArbitrableV2",
          "name": "_arbitrable",
          "type": "address"
        }
      ],
      "name": "AppealPossible",
      "type": "event"
    },
    {
      "anonymous": false,
      "inputs": [
        {
          "indexed": true,
          "internalType": "uint96",
          "name": "_courtID",
          "type": "uint96"
        },
        {
          "indexed": true,
          "internalType": "uint96",
          "name": "_parent",
          "type": "uint96"
        },
        {
          "indexed": false,
          "internalType": "bool",
          "name": "_hiddenVotes",
          "type": "bool"
        },
        {
          "indexed": false,
          "internalType": "uint256",
          "name": "_minStake",
          "type": "uint256"
        },
        {
          "indexed": false,
          "internalType": "uint256",
          "name": "_alpha",
          "type": "uint256"
        },
        {
          "indexed": false,
          "internalType": "uint256",
          "name": "_feeForJuror",
          "type": "uint256"
        },
        {
          "indexed": false,
          "internalType": "uint256",
          "name": "_jurorsForCourtJump",
          "type": "uint256"
        },
        {
          "indexed": false,
          "internalType": "uint256[4]",
          "name": "_timesPerPeriod",
          "type": "uint256[4]"
        },
        {
          "indexed": false,
          "internalType": "uint256[]",
          "name": "_supportedDisputeKits",
          "type": "uint256[]"
        }
      ],
      "name": "CourtCreated",
      "type": "event"
    },
    {
      "anonymous": false,
      "inputs": [
        {
          "indexed": true,
          "internalType": "uint256",
          "name": "_disputeID",
          "type": "uint256"
        },
        {
          "indexed": true,
          "internalType": "uint256",
          "name": "_roundID",
          "type": "uint256"
        },
        {
          "indexed": true,
          "internalType": "uint96",
          "name": "_fromCourtID",
          "type": "uint96"
        },
        {
          "indexed": false,
          "internalType": "uint96",
          "name": "_toCourtID",
          "type": "uint96"
        }
      ],
      "name": "CourtJump",
      "type": "event"
    },
    {
      "anonymous": false,
      "inputs": [
        {
          "indexed": true,
          "internalType": "uint96",
          "name": "_courtID",
          "type": "uint96"
        },
        {
          "indexed": false,
          "internalType": "bool",
          "name": "_hiddenVotes",
          "type": "bool"
        },
        {
          "indexed": false,
          "internalType": "uint256",
          "name": "_minStake",
          "type": "uint256"
        },
        {
          "indexed": false,
          "internalType": "uint256",
          "name": "_alpha",
          "type": "uint256"
        },
        {
          "indexed": false,
          "internalType": "uint256",
          "name": "_feeForJuror",
          "type": "uint256"
        },
        {
          "indexed": false,
          "internalType": "uint256",
          "name": "_jurorsForCourtJump",
          "type": "uint256"
        },
        {
          "indexed": false,
          "internalType": "uint256[4]",
          "name": "_timesPerPeriod",
          "type": "uint256[4]"
        }
      ],
      "name": "CourtModified",
      "type": "event"
    },
    {
      "anonymous": false,
      "inputs": [
        {
          "indexed": true,
          "internalType": "uint256",
          "name": "_disputeID",
          "type": "uint256"
        },
        {
          "indexed": true,
          "internalType": "contract IArbitrableV2",
          "name": "_arbitrable",
          "type": "address"
        }
      ],
      "name": "DisputeCreation",
      "type": "event"
    },
    {
      "anonymous": false,
      "inputs": [
        {
          "indexed": true,
          "internalType": "uint256",
          "name": "_disputeKitID",
          "type": "uint256"
        },
        {
          "indexed": true,
          "internalType": "contract IDisputeKit",
          "name": "_disputeKitAddress",
          "type": "address"
        }
      ],
      "name": "DisputeKitCreated",
      "type": "event"
    },
    {
      "anonymous": false,
      "inputs": [
        {
          "indexed": true,
          "internalType": "uint96",
          "name": "_courtID",
          "type": "uint96"
        },
        {
          "indexed": true,
          "internalType": "uint256",
          "name": "_disputeKitID",
          "type": "uint256"
        },
        {
          "indexed": true,
          "internalType": "bool",
          "name": "_enable",
          "type": "bool"
        }
      ],
      "name": "DisputeKitEnabled",
      "type": "event"
    },
    {
      "anonymous": false,
      "inputs": [
        {
          "indexed": true,
          "internalType": "uint256",
          "name": "_disputeID",
          "type": "uint256"
        },
        {
          "indexed": true,
          "internalType": "uint256",
          "name": "_roundID",
          "type": "uint256"
        },
        {
          "indexed": true,
          "internalType": "uint256",
          "name": "_fromDisputeKitID",
          "type": "uint256"
        },
        {
          "indexed": false,
          "internalType": "uint256",
          "name": "_toDisputeKitID",
          "type": "uint256"
        }
      ],
      "name": "DisputeKitJump",
      "type": "event"
    },
    {
      "anonymous": false,
      "inputs": [
        {
          "indexed": true,
          "internalType": "address",
          "name": "_address",
          "type": "address"
        },
        {
          "indexed": true,
          "internalType": "uint256",
          "name": "_disputeID",
          "type": "uint256"
        },
        {
          "indexed": false,
          "internalType": "uint256",
          "name": "_roundID",
          "type": "uint256"
        },
        {
          "indexed": false,
          "internalType": "uint256",
          "name": "_voteID",
          "type": "uint256"
        }
      ],
      "name": "Draw",
      "type": "event"
    },
    {
      "anonymous": false,
      "inputs": [
        {
          "indexed": false,
          "internalType": "uint64",
          "name": "version",
          "type": "uint64"
        }
      ],
      "name": "Initialized",
      "type": "event"
    },
    {
      "anonymous": false,
      "inputs": [
        {
          "indexed": true,
          "internalType": "uint256",
          "name": "_disputeID",
          "type": "uint256"
        },
        {
          "indexed": true,
          "internalType": "uint256",
          "name": "_roundID",
          "type": "uint256"
        },
        {
          "indexed": false,
          "internalType": "uint256",
          "name": "_pnkAmount",
          "type": "uint256"
        },
        {
          "indexed": false,
          "internalType": "uint256",
          "name": "_feeAmount",
          "type": "uint256"
        },
        {
          "indexed": false,
          "internalType": "contract IERC20",
          "name": "_feeToken",
          "type": "address"
        }
      ],
      "name": "LeftoverRewardSent",
      "type": "event"
    },
    {
      "anonymous": false,
      "inputs": [
        {
          "indexed": true,
          "internalType": "contract IERC20",
          "name": "_feeToken",
          "type": "address"
        },
        {
          "indexed": false,
          "internalType": "uint64",
          "name": "_rateInEth",
          "type": "uint64"
        },
        {
          "indexed": false,
          "internalType": "uint8",
          "name": "_rateDecimals",
          "type": "uint8"
        }
      ],
      "name": "NewCurrencyRate",
      "type": "event"
    },
    {
      "anonymous": false,
      "inputs": [
        {
          "indexed": true,
          "internalType": "uint256",
          "name": "_disputeID",
          "type": "uint256"
        },
        {
          "indexed": false,
          "internalType": "enum KlerosCoreBase.Period",
          "name": "_period",
          "type": "uint8"
        }
      ],
      "name": "NewPeriod",
      "type": "event"
    },
    {
      "anonymous": false,
      "inputs": [],
      "name": "Paused",
      "type": "event"
    },
    {
      "anonymous": false,
      "inputs": [
        {
          "indexed": true,
          "internalType": "contract IArbitrableV2",
          "name": "_arbitrable",
          "type": "address"
        },
        {
          "indexed": true,
          "internalType": "uint256",
          "name": "_disputeID",
          "type": "uint256"
        },
        {
          "indexed": false,
          "internalType": "uint256",
          "name": "_ruling",
          "type": "uint256"
        }
      ],
      "name": "Ruling",
      "type": "event"
    },
    {
      "anonymous": false,
      "inputs": [
        {
          "indexed": true,
          "internalType": "address",
          "name": "_account",
          "type": "address"
        },
        {
          "indexed": true,
          "internalType": "uint256",
          "name": "_disputeID",
          "type": "uint256"
        },
        {
          "indexed": true,
          "internalType": "uint256",
          "name": "_roundID",
          "type": "uint256"
        },
        {
          "indexed": false,
          "internalType": "uint256",
          "name": "_degreeOfCoherency",
          "type": "uint256"
        },
        {
          "indexed": false,
          "internalType": "int256",
          "name": "_pnkAmount",
          "type": "int256"
        },
        {
          "indexed": false,
          "internalType": "int256",
          "name": "_feeAmount",
          "type": "int256"
        },
        {
          "indexed": false,
          "internalType": "contract IERC20",
          "name": "_feeToken",
          "type": "address"
        }
      ],
      "name": "TokenAndETHShift",
      "type": "event"
    },
    {
      "anonymous": false,
      "inputs": [],
      "name": "Unpaused",
      "type": "event"
    },
    {
      "anonymous": false,
      "inputs": [
        {
          "indexed": true,
          "internalType": "address",
          "name": "newImplementation",
          "type": "address"
        }
      ],
      "name": "Upgraded",
      "type": "event"
    },
    {
      "inputs": [
        {
          "internalType": "contract IDisputeKit",
          "name": "_disputeKitAddress",
          "type": "address"
        }
      ],
      "name": "addNewDisputeKit",
      "outputs": [],
      "stateMutability": "nonpayable",
      "type": "function"
    },
    {
      "inputs": [
        {
          "internalType": "uint256",
          "name": "_disputeID",
          "type": "uint256"
        },
        {
          "internalType": "uint256",
          "name": "_numberOfChoices",
          "type": "uint256"
        },
        {
          "internalType": "bytes",
          "name": "_extraData",
          "type": "bytes"
        }
      ],
      "name": "appeal",
      "outputs": [],
      "stateMutability": "payable",
      "type": "function"
    },
    {
      "inputs": [
        {
          "internalType": "uint256",
          "name": "_disputeID",
          "type": "uint256"
        }
      ],
      "name": "appealCost",
      "outputs": [
        {
          "internalType": "uint256",
          "name": "cost",
          "type": "uint256"
        }
      ],
      "stateMutability": "view",
      "type": "function"
    },
    {
      "inputs": [
        {
          "internalType": "uint256",
          "name": "_disputeID",
          "type": "uint256"
        }
      ],
      "name": "appealPeriod",
      "outputs": [
        {
          "internalType": "uint256",
          "name": "start",
          "type": "uint256"
        },
        {
          "internalType": "uint256",
          "name": "end",
          "type": "uint256"
        }
      ],
      "stateMutability": "view",
      "type": "function"
    },
    {
      "inputs": [
        {
          "internalType": "bytes",
          "name": "_extraData",
          "type": "bytes"
        },
        {
          "internalType": "contract IERC20",
          "name": "_feeToken",
          "type": "address"
        }
      ],
      "name": "arbitrationCost",
      "outputs": [
        {
          "internalType": "uint256",
          "name": "cost",
          "type": "uint256"
        }
      ],
      "stateMutability": "view",
      "type": "function"
    },
    {
      "inputs": [
        {
          "internalType": "bytes",
          "name": "_extraData",
          "type": "bytes"
        }
      ],
      "name": "arbitrationCost",
      "outputs": [
        {
          "internalType": "uint256",
          "name": "cost",
          "type": "uint256"
        }
      ],
      "stateMutability": "view",
      "type": "function"
    },
    {
      "inputs": [
        {
          "internalType": "contract IERC20",
          "name": "_feeToken",
          "type": "address"
        },
        {
          "internalType": "bool",
          "name": "_accepted",
          "type": "bool"
        }
      ],
      "name": "changeAcceptedFeeTokens",
      "outputs": [],
      "stateMutability": "nonpayable",
      "type": "function"
    },
    {
      "inputs": [
        {
          "internalType": "uint96",
          "name": "_courtID",
          "type": "uint96"
        },
        {
          "internalType": "bool",
          "name": "_hiddenVotes",
          "type": "bool"
        },
        {
          "internalType": "uint256",
          "name": "_minStake",
          "type": "uint256"
        },
        {
          "internalType": "uint256",
          "name": "_alpha",
          "type": "uint256"
        },
        {
          "internalType": "uint256",
          "name": "_feeForJuror",
          "type": "uint256"
        },
        {
          "internalType": "uint256",
          "name": "_jurorsForCourtJump",
          "type": "uint256"
        },
        {
          "internalType": "uint256[4]",
          "name": "_timesPerPeriod",
          "type": "uint256[4]"
        }
      ],
      "name": "changeCourtParameters",
      "outputs": [],
      "stateMutability": "nonpayable",
      "type": "function"
    },
    {
      "inputs": [
        {
          "internalType": "contract IERC20",
          "name": "_feeToken",
          "type": "address"
        },
        {
          "internalType": "uint64",
          "name": "_rateInEth",
          "type": "uint64"
        },
        {
          "internalType": "uint8",
          "name": "_rateDecimals",
          "type": "uint8"
        }
      ],
      "name": "changeCurrencyRates",
      "outputs": [],
      "stateMutability": "nonpayable",
      "type": "function"
    },
    {
      "inputs": [
        {
          "internalType": "address payable",
          "name": "_governor",
          "type": "address"
        }
      ],
      "name": "changeGovernor",
      "outputs": [],
      "stateMutability": "nonpayable",
      "type": "function"
    },
    {
      "inputs": [
        {
          "internalType": "address",
          "name": "_guardian",
          "type": "address"
        }
      ],
      "name": "changeGuardian",
      "outputs": [],
      "stateMutability": "nonpayable",
      "type": "function"
    },
    {
      "inputs": [
        {
          "internalType": "address",
          "name": "_jurorProsecutionModule",
          "type": "address"
        }
      ],
      "name": "changeJurorProsecutionModule",
      "outputs": [],
      "stateMutability": "nonpayable",
      "type": "function"
    },
    {
      "inputs": [
        {
          "internalType": "contract IERC20",
          "name": "_pinakion",
          "type": "address"
        }
      ],
      "name": "changePinakion",
      "outputs": [],
      "stateMutability": "nonpayable",
      "type": "function"
    },
    {
      "inputs": [
        {
          "internalType": "contract ISortitionModule",
          "name": "_sortitionModule",
          "type": "address"
        }
      ],
      "name": "changeSortitionModule",
      "outputs": [],
      "stateMutability": "nonpayable",
      "type": "function"
    },
    {
      "inputs": [
        {
          "internalType": "contract IERC20",
          "name": "_toToken",
          "type": "address"
        },
        {
          "internalType": "uint256",
          "name": "_amountInEth",
          "type": "uint256"
        }
      ],
      "name": "convertEthToTokenAmount",
      "outputs": [
        {
          "internalType": "uint256",
          "name": "",
          "type": "uint256"
        }
      ],
      "stateMutability": "view",
      "type": "function"
    },
    {
      "inputs": [
        {
          "internalType": "uint256",
          "name": "",
          "type": "uint256"
        }
      ],
      "name": "courts",
      "outputs": [
        {
          "internalType": "uint96",
          "name": "parent",
          "type": "uint96"
        },
        {
          "internalType": "bool",
          "name": "hiddenVotes",
          "type": "bool"
        },
        {
          "internalType": "uint256",
          "name": "minStake",
          "type": "uint256"
        },
        {
          "internalType": "uint256",
          "name": "alpha",
          "type": "uint256"
        },
        {
          "internalType": "uint256",
          "name": "feeForJuror",
          "type": "uint256"
        },
        {
          "internalType": "uint256",
          "name": "jurorsForCourtJump",
          "type": "uint256"
        },
        {
          "internalType": "bool",
          "name": "disabled",
          "type": "bool"
        }
      ],
      "stateMutability": "view",
      "type": "function"
    },
    {
      "inputs": [
        {
          "internalType": "uint96",
          "name": "_parent",
          "type": "uint96"
        },
        {
          "internalType": "bool",
          "name": "_hiddenVotes",
          "type": "bool"
        },
        {
          "internalType": "uint256",
          "name": "_minStake",
          "type": "uint256"
        },
        {
          "internalType": "uint256",
          "name": "_alpha",
          "type": "uint256"
        },
        {
          "internalType": "uint256",
          "name": "_feeForJuror",
          "type": "uint256"
        },
        {
          "internalType": "uint256",
          "name": "_jurorsForCourtJump",
          "type": "uint256"
        },
        {
          "internalType": "uint256[4]",
          "name": "_timesPerPeriod",
          "type": "uint256[4]"
        },
        {
          "internalType": "bytes",
          "name": "_sortitionExtraData",
          "type": "bytes"
        },
        {
          "internalType": "uint256[]",
          "name": "_supportedDisputeKits",
          "type": "uint256[]"
        }
      ],
      "name": "createCourt",
      "outputs": [],
      "stateMutability": "nonpayable",
      "type": "function"
    },
    {
      "inputs": [
        {
          "internalType": "uint256",
          "name": "_numberOfChoices",
          "type": "uint256"
        },
        {
          "internalType": "bytes",
          "name": "_extraData",
          "type": "bytes"
        }
      ],
      "name": "createDispute",
      "outputs": [
        {
          "internalType": "uint256",
          "name": "disputeID",
          "type": "uint256"
        }
      ],
      "stateMutability": "payable",
      "type": "function"
    },
    {
      "inputs": [
        {
          "internalType": "uint256",
          "name": "_numberOfChoices",
          "type": "uint256"
        },
        {
          "internalType": "bytes",
          "name": "_extraData",
          "type": "bytes"
        },
        {
          "internalType": "contract IERC20",
          "name": "_feeToken",
          "type": "address"
        },
        {
          "internalType": "uint256",
          "name": "_feeAmount",
          "type": "uint256"
        }
      ],
      "name": "createDispute",
      "outputs": [
        {
          "internalType": "uint256",
          "name": "disputeID",
          "type": "uint256"
        }
      ],
      "stateMutability": "nonpayable",
      "type": "function"
    },
    {
      "inputs": [
        {
          "internalType": "contract IERC20",
          "name": "",
          "type": "address"
        }
      ],
      "name": "currencyRates",
      "outputs": [
        {
          "internalType": "bool",
          "name": "feePaymentAccepted",
          "type": "bool"
        },
        {
          "internalType": "uint64",
          "name": "rateInEth",
          "type": "uint64"
        },
        {
          "internalType": "uint8",
          "name": "rateDecimals",
          "type": "uint8"
        }
      ],
      "stateMutability": "view",
      "type": "function"
    },
    {
      "inputs": [
        {
          "internalType": "uint256",
          "name": "_disputeID",
          "type": "uint256"
        }
      ],
      "name": "currentRuling",
      "outputs": [
        {
          "internalType": "uint256",
          "name": "ruling",
          "type": "uint256"
        },
        {
          "internalType": "bool",
          "name": "tied",
          "type": "bool"
        },
        {
          "internalType": "bool",
          "name": "overridden",
          "type": "bool"
        }
      ],
      "stateMutability": "view",
      "type": "function"
    },
    {
      "inputs": [
        {
          "internalType": "uint256",
          "name": "",
          "type": "uint256"
        }
      ],
      "name": "disputeKits",
      "outputs": [
        {
          "internalType": "contract IDisputeKit",
          "name": "",
          "type": "address"
        }
      ],
      "stateMutability": "view",
      "type": "function"
    },
    {
      "inputs": [
        {
          "internalType": "uint256",
          "name": "",
          "type": "uint256"
        }
      ],
      "name": "disputes",
      "outputs": [
        {
          "internalType": "uint96",
          "name": "courtID",
          "type": "uint96"
        },
        {
          "internalType": "contract IArbitrableV2",
          "name": "arbitrated",
          "type": "address"
        },
        {
          "internalType": "enum KlerosCoreBase.Period",
          "name": "period",
          "type": "uint8"
        },
        {
          "internalType": "bool",
          "name": "ruled",
          "type": "bool"
        },
        {
          "internalType": "uint256",
          "name": "lastPeriodChange",
          "type": "uint256"
        }
      ],
      "stateMutability": "view",
      "type": "function"
    },
    {
      "inputs": [
        {
          "internalType": "uint256",
          "name": "_disputeID",
          "type": "uint256"
        },
        {
          "internalType": "uint256",
          "name": "_iterations",
          "type": "uint256"
        }
      ],
      "name": "draw",
      "outputs": [],
      "stateMutability": "nonpayable",
      "type": "function"
    },
    {
      "inputs": [
        {
          "internalType": "uint96",
          "name": "_courtID",
          "type": "uint96"
        },
        {
          "internalType": "uint256[]",
          "name": "_disputeKitIDs",
          "type": "uint256[]"
        },
        {
          "internalType": "bool",
          "name": "_enable",
          "type": "bool"
        }
      ],
      "name": "enableDisputeKits",
      "outputs": [],
      "stateMutability": "nonpayable",
      "type": "function"
    },
    {
      "inputs": [
        {
          "internalType": "uint256",
          "name": "_disputeID",
          "type": "uint256"
        },
        {
          "internalType": "uint256",
          "name": "_round",
          "type": "uint256"
        },
        {
          "internalType": "uint256",
          "name": "_iterations",
          "type": "uint256"
        }
      ],
      "name": "execute",
      "outputs": [],
      "stateMutability": "nonpayable",
      "type": "function"
    },
    {
      "inputs": [
        {
          "internalType": "address",
          "name": "_destination",
          "type": "address"
        },
        {
          "internalType": "uint256",
          "name": "_amount",
          "type": "uint256"
        },
        {
          "internalType": "bytes",
          "name": "_data",
          "type": "bytes"
        }
      ],
      "name": "executeGovernorProposal",
      "outputs": [],
      "stateMutability": "nonpayable",
      "type": "function"
    },
    {
      "inputs": [
        {
          "internalType": "uint256",
          "name": "_disputeID",
          "type": "uint256"
        }
      ],
      "name": "executeRuling",
      "outputs": [],
      "stateMutability": "nonpayable",
      "type": "function"
    },
    {
      "inputs": [],
      "name": "getDisputeKitsLength",
      "outputs": [
        {
          "internalType": "uint256",
          "name": "",
          "type": "uint256"
        }
      ],
      "stateMutability": "view",
      "type": "function"
    },
    {
      "inputs": [
        {
          "internalType": "uint256",
          "name": "_disputeID",
          "type": "uint256"
        }
      ],
      "name": "getNumberOfRounds",
      "outputs": [
        {
          "internalType": "uint256",
          "name": "",
          "type": "uint256"
        }
      ],
      "stateMutability": "view",
      "type": "function"
    },
    {
      "inputs": [
        {
          "internalType": "uint256",
          "name": "_disputeID",
          "type": "uint256"
        }
      ],
      "name": "getNumberOfVotes",
      "outputs": [
        {
          "internalType": "uint256",
          "name": "",
          "type": "uint256"
        }
      ],
      "stateMutability": "view",
      "type": "function"
    },
    {
      "inputs": [
        {
          "internalType": "uint256",
          "name": "_disputeID",
          "type": "uint256"
        },
        {
          "internalType": "uint256",
          "name": "_round",
          "type": "uint256"
        }
      ],
      "name": "getPnkAtStakePerJuror",
      "outputs": [
        {
          "internalType": "uint256",
          "name": "",
          "type": "uint256"
        }
      ],
      "stateMutability": "view",
      "type": "function"
    },
    {
      "inputs": [
        {
          "internalType": "uint256",
          "name": "_disputeID",
          "type": "uint256"
        },
        {
          "internalType": "uint256",
          "name": "_round",
          "type": "uint256"
        }
      ],
      "name": "getRoundInfo",
      "outputs": [
        {
          "components": [
            {
              "internalType": "uint256",
              "name": "disputeKitID",
              "type": "uint256"
            },
            {
              "internalType": "uint256",
              "name": "pnkAtStakePerJuror",
              "type": "uint256"
            },
            {
              "internalType": "uint256",
              "name": "totalFeesForJurors",
              "type": "uint256"
            },
            {
              "internalType": "uint256",
              "name": "nbVotes",
              "type": "uint256"
            },
            {
              "internalType": "uint256",
              "name": "repartitions",
              "type": "uint256"
            },
            {
              "internalType": "uint256",
              "name": "pnkPenalties",
              "type": "uint256"
            },
            {
              "internalType": "address[]",
              "name": "drawnJurors",
              "type": "address[]"
            },
            {
              "internalType": "uint256",
              "name": "sumFeeRewardPaid",
              "type": "uint256"
            },
            {
              "internalType": "uint256",
              "name": "sumPnkRewardPaid",
              "type": "uint256"
            },
            {
              "internalType": "contract IERC20",
              "name": "feeToken",
              "type": "address"
            },
            {
              "internalType": "uint256",
              "name": "drawIterations",
              "type": "uint256"
            }
          ],
          "internalType": "struct KlerosCoreBase.Round",
          "name": "",
          "type": "tuple"
        }
      ],
      "stateMutability": "view",
      "type": "function"
    },
    {
      "inputs": [
        {
          "internalType": "uint96",
          "name": "_courtID",
          "type": "uint96"
        }
      ],
      "name": "getTimesPerPeriod",
      "outputs": [
        {
          "internalType": "uint256[4]",
          "name": "timesPerPeriod",
          "type": "uint256[4]"
        }
      ],
      "stateMutability": "view",
      "type": "function"
    },
    {
      "inputs": [],
      "name": "governor",
      "outputs": [
        {
          "internalType": "address",
          "name": "",
          "type": "address"
        }
      ],
      "stateMutability": "view",
      "type": "function"
    },
    {
      "inputs": [],
      "name": "guardian",
      "outputs": [
        {
          "internalType": "address",
          "name": "",
          "type": "address"
        }
      ],
      "stateMutability": "view",
      "type": "function"
    },
    {
      "inputs": [
        {
          "internalType": "address",
          "name": "_governor",
          "type": "address"
        },
        {
          "internalType": "address",
          "name": "_guardian",
          "type": "address"
        },
        {
          "internalType": "contract IERC20",
          "name": "_pinakion",
          "type": "address"
        },
        {
          "internalType": "address",
          "name": "_jurorProsecutionModule",
          "type": "address"
        },
        {
          "internalType": "contract IDisputeKit",
          "name": "_disputeKit",
          "type": "address"
        },
        {
          "internalType": "bool",
          "name": "_hiddenVotes",
          "type": "bool"
        },
        {
          "internalType": "uint256[4]",
          "name": "_courtParameters",
          "type": "uint256[4]"
        },
        {
          "internalType": "uint256[4]",
          "name": "_timesPerPeriod",
          "type": "uint256[4]"
        },
        {
          "internalType": "bytes",
          "name": "_sortitionExtraData",
          "type": "bytes"
        },
        {
          "internalType": "contract ISortitionModule",
          "name": "_sortitionModuleAddress",
          "type": "address"
        }
      ],
      "name": "initialize",
      "outputs": [],
      "stateMutability": "nonpayable",
      "type": "function"
    },
    {
      "inputs": [],
      "name": "initialize4",
      "outputs": [],
      "stateMutability": "nonpayable",
      "type": "function"
    },
    {
      "inputs": [
        {
          "internalType": "uint256",
          "name": "_disputeID",
          "type": "uint256"
        }
      ],
      "name": "isDisputeKitJumping",
      "outputs": [
        {
          "internalType": "bool",
          "name": "",
          "type": "bool"
        }
      ],
      "stateMutability": "view",
      "type": "function"
    },
    {
      "inputs": [
        {
          "internalType": "uint96",
          "name": "_courtID",
          "type": "uint96"
        },
        {
          "internalType": "uint256",
          "name": "_disputeKitID",
          "type": "uint256"
        }
      ],
      "name": "isSupported",
      "outputs": [
        {
          "internalType": "bool",
          "name": "",
          "type": "bool"
        }
      ],
      "stateMutability": "view",
      "type": "function"
    },
    {
      "inputs": [],
      "name": "jurorProsecutionModule",
      "outputs": [
        {
          "internalType": "address",
          "name": "",
          "type": "address"
        }
      ],
      "stateMutability": "view",
      "type": "function"
    },
    {
      "inputs": [
        {
          "internalType": "uint256",
          "name": "_disputeID",
          "type": "uint256"
        }
      ],
      "name": "passPeriod",
      "outputs": [],
      "stateMutability": "nonpayable",
      "type": "function"
    },
    {
      "inputs": [],
      "name": "pause",
      "outputs": [],
      "stateMutability": "nonpayable",
      "type": "function"
    },
    {
      "inputs": [],
      "name": "paused",
      "outputs": [
        {
          "internalType": "bool",
          "name": "",
          "type": "bool"
        }
      ],
      "stateMutability": "view",
      "type": "function"
    },
    {
      "inputs": [],
      "name": "pinakion",
      "outputs": [
        {
          "internalType": "contract IERC20",
          "name": "",
          "type": "address"
        }
      ],
      "stateMutability": "view",
      "type": "function"
    },
    {
      "inputs": [],
      "name": "proxiableUUID",
      "outputs": [
        {
          "internalType": "bytes32",
          "name": "",
          "type": "bytes32"
        }
      ],
      "stateMutability": "view",
      "type": "function"
    },
    {
      "inputs": [
        {
          "internalType": "uint96",
          "name": "_courtID",
          "type": "uint96"
        },
        {
          "internalType": "uint256",
          "name": "_newStake",
          "type": "uint256"
        }
      ],
      "name": "setStake",
      "outputs": [],
      "stateMutability": "nonpayable",
      "type": "function"
    },
    {
      "inputs": [
        {
          "internalType": "address",
          "name": "_account",
          "type": "address"
        },
        {
          "internalType": "uint96",
          "name": "_courtID",
          "type": "uint96"
        },
        {
          "internalType": "uint256",
          "name": "_newStake",
          "type": "uint256"
        },
        {
          "internalType": "bool",
          "name": "_alreadyTransferred",
          "type": "bool"
        }
      ],
      "name": "setStakeBySortitionModule",
      "outputs": [],
      "stateMutability": "nonpayable",
      "type": "function"
    },
    {
      "inputs": [],
      "name": "sortitionModule",
      "outputs": [
        {
          "internalType": "contract ISortitionModule",
          "name": "",
          "type": "address"
        }
      ],
      "stateMutability": "view",
      "type": "function"
    },
    {
      "inputs": [],
      "name": "unpause",
      "outputs": [],
      "stateMutability": "nonpayable",
      "type": "function"
    },
    {
      "inputs": [
        {
          "internalType": "address",
          "name": "newImplementation",
          "type": "address"
        },
        {
          "internalType": "bytes",
          "name": "data",
          "type": "bytes"
        }
      ],
      "name": "upgradeToAndCall",
      "outputs": [],
      "stateMutability": "payable",
      "type": "function"
    },
    {
      "inputs": [],
      "name": "version",
      "outputs": [
        {
          "internalType": "string",
          "name": "",
          "type": "string"
        }
      ],
      "stateMutability": "view",
      "type": "function"
    }
  ],
  "transactionHash": "0x9fc4100088f089d196fa996bba33d684e9743ad24afc014a4f60a1b5c0d9d832",
  "args": [],
  "numDeployments": 2,
  "solcInputHash": "6a5b8672db02870393b5e607b3a9b729",
  "bytecode": "0x60a0604052306080523480156200001557600080fd5b506200002062000026565b620000d9565b7ff0c57e16840df040f15088dc2f81fe391c3923bec73e23a9662efc9c229c6a0e805468010000000000000000900460ff1615620000765760405162dc149f60e41b815260040160405180910390fd5b80546001600160401b0390811614620000d65780546001600160401b0319166001600160401b0390811782556040519081527fc7f505b2f371ae2175ee4913f4499e1f2633a7b5936321eed1cdaeb6115181d29060200160405180910390a15b50565b608051615bb462000103600039600081816117fe015281816118270152611a1e0152615bb46000f3fe6080604052600436106102be5760003560e01c80638456cb5911610170578063caeb50ed116100cc578063e4c0aaf411610085578063e4c0aaf414610940578063f6506db414610960578063f7434ea914610980578063fbb519e7146109a0578063fbf405b0146109c0578063fc6f8f16146109e0578063fe524c3914610a0057600080fd5b8063caeb50ed14610896578063cf0c38f8146108ab578063d07368bd146108cb578063d2b8035a146108eb578063d4d1d76a1461090b578063d98493f61461092057600080fd5b8063acdbf51d11610129578063acdbf51d146107bb578063afe15cfb146107db578063b004963714610810578063c13517e114610830578063c258bb1914610843578063c356990214610863578063c71f42531461087657600080fd5b80638456cb59146106f957806386541b241461070e57806386cdecef1461072e5780638a9bb02a1461074e5780638bb048751461077b578063a072b86c1461079b57600080fd5b80633f4ba83a1161021f57806359ec827e116101d857806359ec827e1461061f5780635c975abb1461063f578063751accd0146106595780637717a6e8146106795780637934c0be146106995780637b4f3cc5146106b957806382d02237146106d957600080fd5b80633f4ba83a14610553578063452a9320146105685780634f1ef2861461058857806352d1902d1461059b57806354fd4d50146105b0578063564a565d146105ee57600080fd5b806319b815291161027c57806319b81529146103f85780631c3db16d146104285780631f5a0dd2146104655780632d29a47b146104c65780632e1daf2f146104e65780632fcb4f04146105065780633cfd11841461052657600080fd5b8062f5822c146102c35780630219da79146102e55780630b7414bc1461035d5780630c340a241461037d578063115d5376146103aa5780631860592b146103ca575b600080fd5b3480156102cf57600080fd5b506102e36102de366004614cfb565b610a20565b005b3480156102f157600080fd5b50610330610300366004614cfb565b60086020526000908152604090205460ff808216916001600160401b0361010082041691600160481b9091041683565b6040805193151584526001600160401b03909216602084015260ff16908201526060015b60405180910390f35b34801561036957600080fd5b506102e3610378366004614e0e565b610a6d565b34801561038957600080fd5b5060005461039d906001600160a01b031681565b6040516103549190614e6f565b3480156103b657600080fd5b506102e36103c5366004614e83565b610ba4565b3480156103d657600080fd5b506103ea6103e5366004614e9c565b611171565b604051908152602001610354565b34801561040457600080fd5b50610418610413366004614e83565b6111cb565b6040519015158152602001610354565b34801561043457600080fd5b50610448610443366004614e83565b6112c4565b604080519384529115156020840152151590820152606001610354565b34801561047157600080fd5b50610485610480366004614e83565b6113c5565b604080516001600160601b0390981688529515156020880152948601939093526060850191909152608084015260a0830152151560c082015260e001610354565b3480156104d257600080fd5b506102e36104e1366004614ec8565b611424565b3480156104f257600080fd5b5060045461039d906001600160a01b031681565b34801561051257600080fd5b506102e3610521366004614cfb565b6116b0565b34801561053257600080fd5b50610546610541366004614eff565b6116fd565b6040516103549190614f3d565b34801561055f57600080fd5b506102e3611767565b34801561057457600080fd5b5060015461039d906001600160a01b031681565b6102e3610596366004614fba565b6117ea565b3480156105a757600080fd5b506103ea611a11565b3480156105bc57600080fd5b506105e160405180604001604052806005815260200164302e392e3360d81b81525081565b6040516103549190615059565b3480156105fa57600080fd5b5061060e610609366004614e83565b611a6f565b6040516103549594939291906150a4565b34801561062b57600080fd5b506103ea61063a366004614e83565b611acb565b34801561064b57600080fd5b506009546104189060ff1681565b34801561066557600080fd5b506102e36106743660046150e3565b611c20565b34801561068557600080fd5b506102e361069436600461513b565b611cca565b3480156106a557600080fd5b506102e36106b4366004615157565b611cfc565b3480156106c557600080fd5b506102e36106d43660046151fd565b611d7b565b3480156106e557600080fd5b506102e36106f43660046152de565b611e53565b34801561070557600080fd5b506102e3611f10565b34801561071a57600080fd5b506102e3610729366004615330565b611fb0565b34801561073a57600080fd5b506103ea61074936600461539e565b61218d565b34801561075a57600080fd5b5061076e61076936600461539e565b6121de565b6040516103549190615405565b34801561078757600080fd5b506102e3610796366004614e83565b61236a565b3480156107a757600080fd5b506102e36107b63660046154aa565b6124ce565b3480156107c757600080fd5b5061039d6107d6366004614e83565b612806565b3480156107e757600080fd5b506107fb6107f6366004614e83565b612830565b60408051928352602083019190915201610354565b34801561081c57600080fd5b506102e361082b366004614cfb565b6128dc565b6103ea61083e36600461556a565b612929565b34801561084f57600080fd5b506102e361085e366004614cfb565b612961565b6102e361087136600461559a565b6129ae565b34801561088257600080fd5b506103ea610891366004614e83565b612e82565b3480156108a257600080fd5b506102e3612eea565b3480156108b757600080fd5b5060035461039d906001600160a01b031681565b3480156108d757600080fd5b506102e36108e6366004614cfb565b612f9b565b3480156108f757600080fd5b506102e361090636600461539e565b613044565b34801561091757600080fd5b506006546103ea565b34801561092c57600080fd5b506103ea61093b36600461561b565b613359565b34801561094c57600080fd5b506102e361095b366004614cfb565b6133a6565b34801561096c57600080fd5b506103ea61097b366004615666565b6133f3565b34801561098c57600080fd5b506103ea61099b3660046156cc565b6134d9565b3480156109ac57600080fd5b506102e36109bb366004615700565b613525565b3480156109cc57600080fd5b5060025461039d906001600160a01b031681565b3480156109ec57600080fd5b506103ea6109fb366004614e83565b613565565b348015610a0c57600080fd5b50610418610a1b36600461513b565b613594565b6000546001600160a01b03163314610a4b5760405163c383977560e01b815260040160405180910390fd5b600280546001600160a01b0319166001600160a01b0392909216919091179055565b6000546001600160a01b03163314610a985760405163c383977560e01b815260040160405180910390fd5b60005b8251811015610b9e578115610b3757828181518110610abc57610abc615751565b602002602001015160001480610aef57506006548351849083908110610ae457610ae4615751565b602002602001015110155b15610b0d57604051633d58a98960e11b815260040160405180910390fd5b610b3284848381518110610b2357610b23615751565b602002602001015160016135dc565b610b96565b6001838281518110610b4b57610b4b615751565b602002602001015103610b71576040516356d111fd60e11b815260040160405180910390fd5b610b9684848381518110610b8757610b87615751565b602002602001015160006135dc565b600101610a9b565b50505050565b600060078281548110610bb957610bb9615751565b600091825260208220600490910201805460058054929450916001600160601b03909116908110610bec57610bec615751565b6000918252602082206003850154600c909202019250610c0e9060019061577d565b90506000836003018281548110610c2757610c27615751565b600091825260208220600b909102019150600185015460ff166004811115610c5157610c5161506c565b03610d2c5781158015610ca057506001840154600684019060ff166004811115610c7d57610c7d61506c565b60048110610c8d57610c8d615751565b01546002850154610c9e904261577d565b105b15610cbe57604051633e9727df60e01b815260040160405180910390fd5b6003810154600682015414610ce6576040516309e4486b60e41b815260040160405180910390fd5b8254600160601b900460ff16610cfd576002610d00565b60015b60018086018054909160ff1990911690836004811115610d2257610d2261506c565b0217905550611123565b60018085015460ff166004811115610d4657610d4661506c565b03610e56576001840154600684019060ff166004811115610d6957610d6961506c565b60048110610d7957610d79615751565b01546002850154610d8a904261577d565b108015610e2157506006816000015481548110610da957610da9615751565b600091825260209091200154604051630baa64d160e01b8152600481018790526001600160a01b0390911690630baa64d190602401602060405180830381865afa158015610dfb573d6000803e3d6000fd5b505050506040513d601f19601f82011682018060405250810190610e1f9190615790565b155b15610e3f57604051634dfa578560e11b815260040160405180910390fd5b6001808501805460029260ff199091169083610d22565b6002600185015460ff166004811115610e7157610e7161506c565b03610fbf576001840154600684019060ff166004811115610e9457610e9461506c565b60048110610ea457610ea4615751565b01546002850154610eb5904261577d565b108015610f4c57506006816000015481548110610ed457610ed4615751565b6000918252602090912001546040516336a66c7560e11b8152600481018790526001600160a01b0390911690636d4cd8ea90602401602060405180830381865afa158015610f26573d6000803e3d6000fd5b505050506040513d601f19601f82011682018060405250810190610f4a9190615790565b155b15610f6a57604051631988dead60e31b815260040160405180910390fd5b600184018054600360ff199091161790558354604051600160601b9091046001600160a01b03169086907fa5d41b970d849372be1da1481ffd78d162bfe57a7aa2fe4e5fb73481fa5ac24f90600090a3611123565b6003600185015460ff166004811115610fda57610fda61506c565b036110ea576001840154600684019060ff166004811115610ffd57610ffd61506c565b6004811061100d5761100d615751565b0154600285015461101e904261577d565b1080156110b55750600681600001548154811061103d5761103d615751565b600091825260209091200154604051630855bbe960e01b8152600481018790526001600160a01b0390911690630855bbe990602401602060405180830381865afa15801561108f573d6000803e3d6000fd5b505050506040513d601f19601f820116820180604052508101906110b39190615790565b155b156110d357604051632f4dfd8760e01b815260040160405180910390fd5b6001808501805460049260ff199091169083610d22565b6004600185015460ff1660048111156111055761110561506c565b03611123576040516307f38c8f60e11b815260040160405180910390fd5b426002850155600184015460405186917f4e6f5cf43b95303e86aee81683df63992061723a829ee012db21dad388756b91916111629160ff16906157ad565b60405180910390a25050505050565b6001600160a01b03821660009081526008602052604081205461010081046001600160401b0316906111ae90600160481b900460ff16600a61589f565b6111b890846158ae565b6111c291906158db565b90505b92915050565b600080600783815481106111e1576111e1615751565b60009182526020822060036004909202019081018054919350906112079060019061577d565b8154811061121757611217615751565b600091825260208220845460058054600b909402909201945090916001600160601b0390911690811061124c5761124c615751565b90600052602060002090600c0201905080600501548260030154101561127757506000949350505050565b80546005805490916001600160601b031690811061129757611297615751565b6000918252602080832094548352600a600c9092029094010190925250604090205460ff16159392505050565b600080600080600785815481106112dd576112dd615751565b60009182526020822060036004909202019081018054919350906113039060019061577d565b8154811061131357611313615751565b90600052602060002090600b020190506000600682600001548154811061133c5761133c615751565b600091825260209091200154604051631c3db16d60e01b8152600481018990526001600160a01b0390911691508190631c3db16d90602401606060405180830381865afa158015611391573d6000803e3d6000fd5b505050506040513d601f19601f820116820180604052508101906113b591906158ef565b9199909850909650945050505050565b600581815481106113d557600080fd5b60009182526020909120600c9091020180546002820154600383015460048401546005850154600b909501546001600160601b038516965060ff600160601b9095048516959394929391921687565b60095460ff161561144857604051636f1dac1d60e01b815260040160405180910390fd5b6000806007858154811061145e5761145e615751565b600091825260209091206004918202019150600182015460ff1660048111156114895761148961506c565b146114a757604051638794ce4b60e01b815260040160405180910390fd5b8060030184815481106114bc576114bc615751565b6000918252602082206004600b909202019081015490935091506114e08483615927565b60058401546006850154600286015492935090916000906115029083906158db565b9050600086600101549050600080600689600001548154811061152757611527615751565b60009182526020909120015460405163368efae360e21b8152600481018e9052602481018d90526001600160a01b039091169150819063da3beb8c90604401602060405180830381865afa158015611583573d6000803e3d6000fd5b505050506040513d601f19601f820116820180604052508101906115a7919061593a565b915050806000036115c357838611156115be578395505b6115e3565b6115ce8460026158ae565b8611156115e3576115e08460026158ae565b95505b60048801869055865b8681101561168f57848110156116455761163e6040518061010001604052808e81526020018d815260200184815260200187815260200186815260200185815260200188815260200183815250613664565b9550611687565b6116876040518061010001604052808e81526020018d815260200184815260200187815260200186815260200185815260200188815260200183815250613b35565b6001016115ec565b50848860050154146116a357600588018590555b5050505050505050505050565b6000546001600160a01b031633146116db5760405163c383977560e01b815260040160405180910390fd5b600180546001600160a01b0319166001600160a01b0392909216919091179055565b611705614c3b565b6005826001600160601b03168154811061172157611721615751565b6000918252602090912060408051608081019182905292600c029091016006019060049082845b8154815260200190600101908083116117485750505050509050919050565b6000546001600160a01b031633146117925760405163c383977560e01b815260040160405180910390fd5b60095460ff166117b55760405163b4143dc760e01b815260040160405180910390fd5b6009805460ff191690556040517fa45f47fdea8a1efdd9029a5691c7f759c32b7c698632b563573e155625d1693390600090a1565b6117f38261406d565b306001600160a01b037f000000000000000000000000000000000000000000000000000000000000000016148061187157507f00000000000000000000000000000000000000000000000000000000000000006001600160a01b0316611865600080516020615b5f8339815191525490565b6001600160a01b031614155b1561188f5760405163703e46dd60e11b815260040160405180910390fd5b816001600160a01b03166352d1902d6040518163ffffffff1660e01b8152600401602060405180830381865afa9250505080156118e9575060408051601f3d908101601f191682019092526118e69181019061593a565b60015b6119115781604051630c76093760e01b81526004016119089190614e6f565b60405180910390fd5b600080516020615b5f833981519152811461194257604051632a87526960e21b815260048101829052602401611908565b600080516020615b5f8339815191528390556040516001600160a01b038416907fbc7cd75a20ee27fd9adebab32041f755214dbc6bffa90cc0225b39da2e5c2d3b90600090a2815115611a0b576000836001600160a01b0316836040516119a99190615953565b600060405180830381855af49150503d80600081146119e4576040519150601f19603f3d011682016040523d82523d6000602084013e6119e9565b606091505b5050905080610b9e576040516339b21b5d60e11b815260040160405180910390fd5b505b5050565b6000306001600160a01b037f00000000000000000000000000000000000000000000000000000000000000001614611a5c5760405163703e46dd60e11b815260040160405180910390fd5b50600080516020615b5f83398151915290565b60078181548110611a7f57600080fd5b60009182526020909120600490910201805460018201546002909201546001600160601b0382169350600160601b9091046001600160a01b03169160ff80821692610100909204169085565b60008060078381548110611ae157611ae1615751565b6000918252602082206003600490920201908101805491935090611b079060019061577d565b81548110611b1757611b17615751565b600091825260208220845460058054600b909402909201945090916001600160601b03909116908110611b4c57611b4c615751565b90600052602060002090600c020190508060050154826003015410611beb5782546001600160601b031660001901611b8d576001600160ff1b039350611c18565b6003820154611b9d9060026158ae565b611ba8906001615927565b81546005805490916001600160601b0316908110611bc857611bc8615751565b90600052602060002090600c020160040154611be491906158ae565b9350611c18565b6003820154611bfb9060026158ae565b611c06906001615927565b8160040154611c1591906158ae565b93505b505050919050565b6000546001600160a01b03163314611c4b5760405163c383977560e01b815260040160405180910390fd5b6000836001600160a01b03168383604051611c669190615953565b60006040518083038185875af1925050503d8060008114611ca3576040519150601f19603f3d011682016040523d82523d6000602084013e611ca8565b606091505b5050905080610b9e576040516322092f2f60e11b815260040160405180910390fd5b60095460ff1615611cee57604051636f1dac1d60e01b815260040160405180910390fd5b611a0b33838360008061409b565b6000546001600160a01b03163314611d275760405163c383977560e01b815260040160405180910390fd5b6001600160a01b038216600081815260086020526040808220805460ff191685151590811790915590519092917f541615e167511d757a7067a700eb54431b256bb458dfdce0ac58bf2ed0aefd4491a35050565b60016000611d87614256565b8054909150600160401b900460ff1680611dae575080546001600160401b03808416911610155b15611dcb5760405162dc149f60e41b815260040160405180910390fd5b805468ffffffffffffffffff19166001600160401b03831617600160401b178155611dfe8c8c8c8c8c8c8c8c8c8c61427a565b805460ff60401b191681556040516001600160401b03831681527fc7f505b2f371ae2175ee4913f4499e1f2633a7b5936321eed1cdaeb6115181d29060200160405180910390a1505050505050505050505050565b6000546001600160a01b03163314611e7e5760405163c383977560e01b815260040160405180910390fd5b6001600160a01b038316600081815260086020908152604091829020805469ffffffffffffffffff0019166101006001600160401b03881690810260ff60481b191691909117600160481b60ff8816908102919091179092558351908152918201527fe6996b7f03e9bd02228b99d3d946932e3197f505f60542c4cfbc919441d8a4e6910160405180910390a2505050565b6001546001600160a01b03163314801590611f3657506000546001600160a01b03163314155b15611f5457604051636b29334f60e01b815260040160405180910390fd5b60095460ff1615611f7857604051636f1dac1d60e01b815260040160405180910390fd5b6009805460ff191660011790556040517f9e87fac88ff661f02d44f95383c817fece4bce600a3dab7a54406878b965e75290600090a1565b6000546001600160a01b03163314611fdb5760405163c383977560e01b815260040160405180910390fd5b60006005886001600160601b031681548110611ff957611ff9615751565b90600052602060002090600c0201905060016001600160601b0316886001600160601b03161415801561205b575080546005805488926001600160601b031690811061204757612047615751565b90600052602060002090600c020160020154115b1561207957604051639717078960e01b815260040160405180910390fd5b60005b60018201548110156120f4578660058360010183815481106120a0576120a0615751565b9060005260206000200154815481106120bb576120bb615751565b90600052602060002090600c02016002015410156120ec57604051639717078960e01b815260040160405180910390fd5b60010161207c565b5060028101869055805460ff60601b1916600160601b88151502178155600381018590556004808201859055600582018490556121379060068301908490614c59565b50876001600160601b03167f709b1f5fda58af9a4f52dacd1ec404840a8148455700cce155a2bd8cf127ef1a88888888888860405161217b9695949392919061596f565b60405180910390a25050505050505050565b6000600783815481106121a2576121a2615751565b906000526020600020906004020160030182815481106121c4576121c4615751565b90600052602060002090600b020160010154905092915050565b61224460405180610160016040528060008152602001600081526020016000815260200160008152602001600081526020016000815260200160608152602001600081526020016000815260200160006001600160a01b03168152602001600081525090565b6007838154811061225757612257615751565b9060005260206000209060040201600301828154811061227957612279615751565b90600052602060002090600b0201604051806101600160405290816000820154815260200160018201548152602001600282015481526020016003820154815260200160048201548152602001600582015481526020016006820180548060200260200160405190810160405280929190818152602001828054801561232857602002820191906000526020600020905b81546001600160a01b0316815260019091019060200180831161230a575b5050509183525050600782015460208201526008820154604082015260098201546001600160a01b03166060820152600a909101546080909101529392505050565b60006007828154811061237f5761237f615751565b600091825260209091206004918202019150600182015460ff1660048111156123aa576123aa61506c565b146123c857604051638794ce4b60e01b815260040160405180910390fd5b6001810154610100900460ff16156123f35760405163c977f8d360e01b815260040160405180910390fd5b60006123fe836112c4565b505060018301805461010061ff001990911617905582546040518281529192508491600160601b9091046001600160a01b0316907f394027a5fa6e098a1191094d1719d6929b9abc535fcc0c8f448d6a4e756222769060200160405180910390a3815460405163188d362b60e11b81526004810185905260248101839052600160601b9091046001600160a01b03169063311a6c5690604401600060405180830381600087803b1580156124b157600080fd5b505af11580156124c5573d6000803e3d6000fd5b50505050505050565b6000546001600160a01b031633146124f95760405163c383977560e01b815260040160405180910390fd5b8660058a6001600160601b03168154811061251657612516615751565b90600052602060002090600c020160020154111561254757604051639717078960e01b815260040160405180910390fd5b80516000036125695760405163402585f560e01b815260040160405180910390fd5b6001600160601b03891661259057604051631ef4f64960e01b815260040160405180910390fd5b60058054600181018255600091825290600c82027f036b6384b5eca791c62761152d0c79bb0604c104a5fb6f4eb0703f3154bb3db001905b8351811015612652578381815181106125e3576125e3615751565b6020026020010151600014806126165750600654845185908390811061260b5761260b615751565b602002602001015110155b1561263457604051633d58a98960e11b815260040160405180910390fd5b61264a83858381518110610b2357610b23615751565b6001016125c8565b5060016000908152600a8201602052604090205460ff16612686576040516306351b3d60e31b815260040160405180910390fd5b80546001600160601b0319166001600160601b038c1617815560408051600081526020810191829052516126be916001840191614c97565b50805460ff60601b1916600160601b8b15150217815560028101899055600381018890556004808201889055600582018790556127019060068301908790614c59565b50600480546040516311de995760e21b81526001600160a01b039091169163477a655c916127339186918991016159a2565b600060405180830381600087803b15801561274d57600080fd5b505af1158015612761573d6000803e3d6000fd5b5050505060058b6001600160601b03168154811061278157612781615751565b600091825260208083206001600c909302018201805492830181558352909120018290556040516001600160601b03808d1691908416907f550ff678017abc294b4786a99a046628d5a1eac07be0f1ea7e89543f13576ee6906127f1908e908e908e908e908e908e908d906159bb565b60405180910390a35050505050505050505050565b6006818154811061281657600080fd5b6000918252602090912001546001600160a01b0316905081565b60008060006007848154811061284857612848615751565b6000918252602090912060049091020190506003600182015460ff1660048111156128755761287561506c565b036128cd576002810154815460058054929550916001600160601b039091169081106128a3576128a3615751565b600091825260209091206009600c90920201015460028201546128c69190615927565b91506128d6565b60009250600091505b50915091565b6000546001600160a01b031633146129075760405163c383977560e01b815260040160405180910390fd5b600480546001600160a01b0319166001600160a01b0392909216919091179055565b6000612934826134d9565b34101561295457604051630e3360f160e21b815260040160405180910390fd5b6111c2838360003461459a565b6000546001600160a01b0316331461298c5760405163c383977560e01b815260040160405180910390fd5b600380546001600160a01b0319166001600160a01b0392909216919091179055565b6129b783611acb565b3410156129d757604051633191f8f160e01b815260040160405180910390fd5b6000600784815481106129ec576129ec615751565b6000918252602090912060049091020190506003600182015460ff166004811115612a1957612a1961506c565b14612a37576040516337cdefcb60e21b815260040160405180910390fd5b60038101805460009190612a4d9060019061577d565b81548110612a5d57612a5d615751565b90600052602060002090600b020190506006816000015481548110612a8457612a84615751565b6000918252602090912001546001600160a01b03163314612ab85760405163065f245f60e01b815260040160405180910390fd5b8154815460038401805460018101825560009182526020909120600580546001600160601b0390951694600b9093029091019184908110612afb57612afb615751565b90600052602060002090600c020160050154846003015410612c04576005836001600160601b031681548110612b3357612b33615751565b60009182526020909120600c9091020154600580546001600160601b0390921694509084908110612b6657612b66615751565b60009182526020808320858452600a600c90930201919091019052604090205460ff16612b9257600191505b84546001600160601b03848116911614612c0457845460038601546001600160601b0390911690612bc59060019061577d565b6040516001600160601b03861681528a907f736e3f52761298c8c0823e1ebf482ed3c5ecb304f743d2d91a7c006e8e8d7a1f9060200160405180910390a45b84546001600160601b0319166001600160601b038416908117865560018601805460ff1916905542600287015560058054600092908110612c4757612c47615751565b90600052602060002090600c02019050806004015434612c6791906158db565b826003018190555061271081600301548260020154612c8691906158ae565b612c9091906158db565b60018084019190915534600284015583835560045460038801546001600160a01b039091169163d09f392d918c91612cc79161577d565b6040516001600160e01b031960e085901b16815260048101929092526024820152604401600060405180830381600087803b158015612d0557600080fd5b505af1158015612d19573d6000803e3d6000fd5b505086548454149150612dff90505784546003870154612d3b9060019061577d565b83546040519081528b907fcbe7939a71f0b369c7471d760a0a99b60b7bb010ee0406cba8a46679d1ea77569060200160405180910390a46006826000015481548110612d8957612d89615751565b60009182526020909120015460038301546040516302dbb79560e61b81526001600160a01b039092169163b6ede54091612dcc918d918d918d9190600401615a3a565b600060405180830381600087803b158015612de657600080fd5b505af1158015612dfa573d6000803e3d6000fd5b505050505b8554604051600160601b9091046001600160a01b0316908a907f9c9b64db9e130f48381bf697abf638e73117dbfbfd7a4484f2da3ba188f4187d90600090a3887f4e6f5cf43b95303e86aee81683df63992061723a829ee012db21dad388756b916000604051612e6f91906157ad565b60405180910390a2505050505050505050565b60008060078381548110612e9857612e98615751565b906000526020600020906004020190508060030160018260030180549050612ec0919061577d565b81548110612ed057612ed0615751565b90600052602060002090600b020160030154915050919050565b60046000612ef6614256565b8054909150600160401b900460ff1680612f1d575080546001600160401b03808416911610155b15612f3a5760405162dc149f60e41b815260040160405180910390fd5b805468ffffffffffffffffff19166001600160401b038316908117600160401b1760ff60401b191682556040519081527fc7f505b2f371ae2175ee4913f4499e1f2633a7b5936321eed1cdaeb6115181d29060200160405180910390a15050565b6000546001600160a01b03163314612fc65760405163c383977560e01b815260040160405180910390fd5b6006805460018101825560009182527ff652222313e28459528d920b65115c16c04f3efc82aaedc97be59f3f377c0d3f810180546001600160a01b0319166001600160a01b0385169081179091556040519192909183917f44063d258760b98116d53815adbc906a56b3563e540148cc0fc2457f83b5eeb291a35050565b60006007838154811061305957613059615751565b9060005260206000209060040201905060006001826003018054905061307f919061577d565b9050600082600301828154811061309857613098615751565b600091825260208220600b909102019150600184015460ff1660048111156130c2576130c261506c565b146130e057604051638285c4ef60e01b815260040160405180910390fd5b600060068260000154815481106130f9576130f9615751565b6000918252602082200154600a8401546001600160a01b039091169250905b868110801561312e575060038401546006850154105b156133365760006001600160a01b03841663d2b8035a8a8461314f81615a6a565b955061315b9087615927565b6040516001600160e01b031960e085901b168152600481019290925260248201526044016020604051808303816000875af115801561319e573d6000803e3d6000fd5b505050506040513d601f19601f820116820180604052508101906131c29190615a83565b90506001600160a01b0381166131d85750613118565b6004805460018701546040516310f0b12f60e11b81526001600160a01b03909216926321e1625e9261320e928692909101615aa0565b600060405180830381600087803b15801561322857600080fd5b505af115801561323c573d6000803e3d6000fd5b50505060068601546040518b92506001600160a01b038416917f6119cf536152c11e0a9a6c22f3953ce4ecc93ee54fa72ffa326ffabded21509b91613289918b8252602082015260400190565b60405180910390a36006850180546001810182556000828152602090200180546001600160a01b0319166001600160a01b03841617905560038601549054036133305760048054604051632e96bc2360e11b81529182018b9052602482018890526001600160a01b031690635d2d784690604401600060405180830381600087803b15801561331757600080fd5b505af115801561332b573d6000803e3d6000fd5b505050505b50613118565b8084600a01600082825461334a9190615927565b90915550505050505050505050565b600061339e826103e586868080601f0160208091040260200160405190810160405280939291908181526020018383808284376000920191909152506134d992505050565b949350505050565b6000546001600160a01b031633146133d15760405163c383977560e01b815260040160405180910390fd5b600080546001600160a01b0319166001600160a01b0392909216919091179055565b6001600160a01b03821660009081526008602052604081205460ff1661342c5760405163e51cf7bf60e01b815260040160405180910390fd5b613437858585613359565b82101561345757604051630e3360f160e21b815260040160405180910390fd5b61346c6001600160a01b038416333085614881565b613489576040516312171d8360e31b815260040160405180910390fd5b6134cd8686868080601f01602080910402602001604051908101604052809392919081815260200183838082843760009201919091525088925087915061459a9050565b90505b95945050505050565b60008060006134e78461495d565b5091509150806005836001600160601b03168154811061350957613509615751565b90600052602060002090600c02016004015461339e91906158ae565b6004546001600160a01b0316331461355057604051639d6cab9960e01b815260040160405180910390fd5b61355e84848484600161409b565b5050505050565b60006007828154811061357a5761357a615751565b600091825260209091206003600490920201015492915050565b60006005836001600160601b0316815481106135b2576135b2615751565b60009182526020808320948352600c91909102909301600a0190925250604090205460ff16919050565b806005846001600160601b0316815481106135f9576135f9615751565b60009182526020808320868452600c92909202909101600a0190526040808220805460ff19169315159390931790925590518215159184916001600160601b038716917fb47629acdf64971062d40984f77d3dee212d735b11e3e8c7a4222d9f0572cc7991a4505050565b600080600783600001518154811061367e5761367e615751565b906000526020600020906004020190506000816003018460200151815481106136a9576136a9615751565b90600052602060002090600b02019050600060068260000154815481106136d2576136d2615751565b60009182526020808320919091015487519188015160e089015160808a015160a08b01516040516333ac937b60e11b8152600481019690965260248601939093526044850191909152606484015260848301526001600160a01b03169250829063675926f69060a401602060405180830381865afa158015613758573d6000803e3d6000fd5b505050506040513d601f19601f8201168201806040525081019061377c919061593a565b905061271081111561378d57506127105b600061271061379c838261577d565b85600101546137ab91906158ae565b6137b591906158db565b9050808760c0018181516137c99190615927565b90525060e08701516006850180546000929081106137e9576137e9615751565b6000918252602090912001546004805460405163965af6c760e01b81526001600160a01b03938416945092169163965af6c79161382a918591879101615aa0565b600060405180830381600087803b15801561384457600080fd5b505af1158015613858573d6000803e3d6000fd5b505060048054604051633c85b79360e21b81526001600160a01b03909116935063f216de4c925061388d918591879101615aa0565b600060405180830381600087803b1580156138a757600080fd5b505af11580156138bb573d6000803e3d6000fd5b50505050602088015188516001600160a01b0383167f8975b837fe0d18616c65abb8b843726a32b552ee4feca009944fa658bbb282e7866138fb87615ab9565b60098b015460405161391d9392916000916001600160a01b0390911690615ad5565b60405180910390a48751602089015160e08a015160405163ba66fde760e01b81526004810193909352602483019190915260448201526001600160a01b0385169063ba66fde790606401602060405180830381865afa158015613984573d6000803e3d6000fd5b505050506040513d601f19601f820116820180604052508101906139a89190615790565b613a0e576004805460405163b5d69e9960e01b81526001600160a01b039091169163b5d69e99916139db91859101614e6f565b600060405180830381600087803b1580156139f557600080fd5b505af1158015613a09573d6000803e3d6000fd5b505050505b60018860600151613a1f919061577d565b8860e00151148015613a3357506040880151155b15613b245760098501546001600160a01b0316613a7c576000805460028701546040516001600160a01b039092169281156108fc029290818181858888f1935050505050613aa3565b60005460028601546009870154613aa1926001600160a01b03918216929116906149e4565b505b60005460c0890151600254613ac6926001600160a01b03918216929116906149e4565b506020880151885160c08a0151600288015460098901546040517f6cecfd3ec56289ccb16e30eb194f9a87dfdc12630b9abbc31fc69af5a0b0eaf493613b1b93909290916001600160a01b0390911690615af9565b60405180910390a35b50505060c090940151949350505050565b60006007826000015181548110613b4e57613b4e615751565b90600052602060002090600402019050600081600301836020015181548110613b7957613b79615751565b90600052602060002090600b0201905060006006826000015481548110613ba257613ba2615751565b6000918252602080832090910154865191870151606088015160e08901516001600160a01b039093169550859363675926f693909291613be191615b18565b60808a015160a08b01516040516001600160e01b031960e088901b1681526004810195909552602485019390935260448401919091526064830152608482015260a401602060405180830381865afa158015613c41573d6000803e3d6000fd5b505050506040513d601f19601f82011682018060405250810190613c65919061593a565b9050612710811115613c7657506127105b60008360060186606001518760e00151613c909190615b18565b81548110613ca057613ca0615751565b600091825260208220015460018601546001600160a01b03909116925061271090613ccc9085906158ae565b613cd691906158db565b6004805460405163965af6c760e01b81529293506001600160a01b03169163965af6c791613d08918691869101615aa0565b600060405180830381600087803b158015613d2257600080fd5b505af1158015613d36573d6000803e3d6000fd5b505060048054604051636624192f60e01b81526001600160a01b039091169350636624192f9250613d6991869101614e6f565b602060405180830381865afa158015613d86573d6000803e3d6000fd5b505050506040513d601f19601f82011682018060405250810190613daa9190615790565b613dc757600254613dc5906001600160a01b031683836149e4565b505b60006127108489604001518a60c00151613de191906158db565b613deb91906158ae565b613df591906158db565b905080866008016000828254613e0b9190615927565b925050819055506000612710858a604001518960020154613e2c91906158db565b613e3691906158ae565b613e4091906158db565b905080876007016000828254613e569190615927565b9091555050600254613e72906001600160a01b031685846149e4565b5060098701546001600160a01b0316613eb0576040516001600160a01b0385169082156108fc029083906000818181858888f1935050505050613ecb565b6009870154613ec9906001600160a01b031685836149e4565b505b6020890151895160098901546040516001600160a01b03888116927f8975b837fe0d18616c65abb8b843726a32b552ee4feca009944fa658bbb282e792613f1b928c928a928a9290911690615ad5565b60405180910390a4600189606001516002613f3691906158ae565b613f40919061577d565b8960e001510361406257600087600801548a60c00151613f60919061577d565b9050600088600701548960020154613f78919061577d565b905081151580613f8757508015155b156116a3578115613fb157600054600254613faf916001600160a01b039182169116846149e4565b505b80156140185760098901546001600160a01b0316613ff757600080546040516001600160a01b039091169183156108fc02918491818181858888f1935050505050614018565b60005460098a0154614016916001600160a01b039182169116836149e4565b505b60208b01518b5160098b01546040517f6cecfd3ec56289ccb16e30eb194f9a87dfdc12630b9abbc31fc69af5a0b0eaf4916127f191879187916001600160a01b0390911690615af9565b505050505050505050565b6000546001600160a01b031633146140985760405163c383977560e01b815260040160405180910390fd5b50565b60006001600160601b03851615806140be57506005546001600160601b03861610155b156140d6576140ce826004614ab1565b5060006134d0565b831580159061411157506005856001600160601b0316815481106140fc576140fc615751565b90600052602060002090600c02016002015484105b15614121576140ce826005614ab1565b60048054604051630a5861b960e41b81526001600160a01b03898116938201939093526001600160601b03881660248201526044810187905285151560648201526000928392839291169063a5861b90906084016060604051808303816000875af1158015614194573d6000803e3d6000fd5b505050506040513d601f19601f820116820180604052508101906141b89190615b2c565b9194509250905060008160088111156141d3576141d361506c565b146141ee576141e28582614ab1565b600093505050506134d0565b821561421b5760025461420c906001600160a01b03168a3086614881565b61421b576141e2856001614ab1565b811561424757600254614238906001600160a01b03168a846149e4565b614247576141e2856002614ab1565b50600198975050505050505050565b7ff0c57e16840df040f15088dc2f81fe391c3923bec73e23a9662efc9c229c6a0e90565b614282614bfa565b600080546001600160a01b03199081166001600160a01b038d81169190911783556001805483168d83161781556002805484168d84161781556003805485168d85161790556004805485168785161790556006805481875291820190557ff652222313e28459528d920b65115c16c04f3efc82aaedc97be59f3f377c0d40018054909316918a1691821790925560405190927f44063d258760b98116d53815adbc906a56b3563e540148cc0fc2457f83b5eeb291a36005805460010181556000908152600480546040516311de995760e21b81526001600160a01b039091169263477a655c92614374928791016159a2565b600060405180830381600087803b15801561438e57600080fd5b505af11580156143a2573d6000803e3d6000fd5b5050600580546001810182556000918252600c027f036b6384b5eca791c62761152d0c79bb0604c104a5fb6f4eb0703f3154bb3db00180546001600160601b031916815560408051838152602081019091529093509150508051614410916001840191602090910190614c97565b50805460ff60601b1916600160601b87151502178155845160028201556020850151600382015560408501516004808301919091556060860151600583015561445f9060068301908690614c59565b50600480546040516311de995760e21b81526001600160a01b039091169163477a655c91614492916001918891016159a2565b600060405180830381600087803b1580156144ac57600080fd5b505af11580156144c0573d6000803e3d6000fd5b5060009250600191506144d09050565b6040519080825280602002602001820160405280156144f9578160200160208202803683370190505b50905060018160008151811061451157614511615751565b60209081029190910181019190915282548751918801516040808a015160608b015191516001600160601b03909416946001947f550ff678017abc294b4786a99a046628d5a1eac07be0f1ea7e89543f13576ee694614577948f9491928e908b906159bb565b60405180910390a361458c60018060016135dc565b505050505050505050505050565b60008060006145a88661495d565b92505091506005826001600160601b0316815481106145c9576145c9615751565b60009182526020808320848452600a600c90930201919091019052604090205460ff166146095760405163b34eb75d60e01b815260040160405180910390fd5b600780546001810182556000918252600160601b33026001600160601b03851617600482027fa66cc928b5edb82af9bd49922954155ab7b0942694bea4ce44661d9a8736c6888101918255427fa66cc928b5edb82af9bd49922954155ab7b0942694bea4ce44661d9a8736c68a90910155600680549296509092918490811061469457614694615751565b6000918252602082200154600580546001600160a01b039092169350906001600160601b0387169081106146ca576146ca615751565b60009182526020808320600387018054600181018255908552918420600c909302019350600b0201906001600160a01b038a1615614715576147108a8460040154611171565b61471b565b82600401545b9050614727818a6158db565b600380840191909155868355830154600284015461271091614748916158ae565b61475291906158db565b6001830155600282018990556009820180546001600160a01b0319166001600160a01b038c8116919091179091556004805460405163d09f392d60e01b81529182018b9052600060248301529091169063d09f392d90604401600060405180830381600087803b1580156147c557600080fd5b505af11580156147d9573d6000803e3d6000fd5b50505050836001600160a01b031663b6ede540898e8e86600301546040518563ffffffff1660e01b81526004016148139493929190615a3a565b600060405180830381600087803b15801561482d57600080fd5b505af1158015614841573d6000803e3d6000fd5b50506040513392508a91507f141dfc18aa6a56fc816f44f0e9e2f1ebc92b15ab167770e17db5b084c10ed99590600090a350505050505050949350505050565b6040516001600160a01b038481166024830152838116604483015260648201839052600091829182919088169060840160408051601f198184030181529181526020820180516001600160e01b03166323b872dd60e01b179052516148e69190615953565b6000604051808303816000865af19150503d8060008114614923576040519150601f19603f3d011682016040523d82523d6000602084013e614928565b606091505b50915091508180156149525750805115806149525750808060200190518101906149529190615790565b979650505050505050565b600080600060408451106149d2575050506020810151604082015160608301516001600160601b038316158061499e57506005546001600160601b03841610155b156149a857600192505b816000036149b557600391505b8015806149c457506006548110155b156149cd575060015b6149dd565b506001915060039050815b9193909250565b6000806000856001600160a01b03168585604051602401614a06929190615aa0565b60408051601f198184030181529181526020820180516001600160e01b031663a9059cbb60e01b17905251614a3b9190615953565b6000604051808303816000865af19150503d8060008114614a78576040519150601f19603f3d011682016040523d82523d6000602084013e614a7d565b606091505b5091509150818015614aa7575080511580614aa7575080806020019051810190614aa79190615790565b9695505050505050565b6001826001811115614ac557614ac561506c565b03614ace575050565b6001816008811115614ae257614ae261506c565b03614b0057604051630f323ed960e11b815260040160405180910390fd5b6002816008811115614b1457614b1461506c565b03614b325760405163e45e13a360e01b815260040160405180910390fd5b6003816008811115614b4657614b4661506c565b03614b6457604051631d91d0ed60e31b815260040160405180910390fd5b6004816008811115614b7857614b7861506c565b03614b9657604051637c84af5160e01b815260040160405180910390fd5b6005816008811115614baa57614baa61506c565b03614bc857604051630caac6b360e31b815260040160405180910390fd5b6008816008811115614bdc57614bdc61506c565b03611a0d57604051633e57962f60e21b815260040160405180910390fd5b614c02614c21565b614c1f57604051631afcd79f60e31b815260040160405180910390fd5b565b6000614c2b614256565b54600160401b900460ff16919050565b60405180608001604052806004906020820280368337509192915050565b8260048101928215614c87579160200282015b82811115614c87578251825591602001919060010190614c6c565b50614c93929150614cd1565b5090565b828054828255906000526020600020908101928215614c875791602002820182811115614c87578251825591602001919060010190614c6c565b5b80821115614c935760008155600101614cd2565b6001600160a01b038116811461409857600080fd5b600060208284031215614d0d57600080fd5b8135614d1881614ce6565b9392505050565b80356001600160601b0381168114614d3657600080fd5b919050565b634e487b7160e01b600052604160045260246000fd5b604051601f8201601f191681016001600160401b0381118282101715614d7957614d79614d3b565b604052919050565b600082601f830112614d9257600080fd5b813560206001600160401b03821115614dad57614dad614d3b565b8160051b614dbc828201614d51565b9283528481018201928281019087851115614dd657600080fd5b83870192505b8483101561495257823582529183019190830190614ddc565b801515811461409857600080fd5b8035614d3681614df5565b600080600060608486031215614e2357600080fd5b614e2c84614d1f565b925060208401356001600160401b03811115614e4757600080fd5b614e5386828701614d81565b9250506040840135614e6481614df5565b809150509250925092565b6001600160a01b0391909116815260200190565b600060208284031215614e9557600080fd5b5035919050565b60008060408385031215614eaf57600080fd5b8235614eba81614ce6565b946020939093013593505050565b600080600060608486031215614edd57600080fd5b505081359360208301359350604090920135919050565b8035614d3681614ce6565b600060208284031215614f1157600080fd5b6111c282614d1f565b8060005b6004811015610b9e578151845260209384019390910190600101614f1e565b608081016111c58284614f1a565b600082601f830112614f5c57600080fd5b81356001600160401b03811115614f7557614f75614d3b565b614f88601f8201601f1916602001614d51565b818152846020838601011115614f9d57600080fd5b816020850160208301376000918101602001919091529392505050565b60008060408385031215614fcd57600080fd5b8235614fd881614ce6565b915060208301356001600160401b03811115614ff357600080fd5b614fff85828601614f4b565b9150509250929050565b60005b8381101561502457818101518382015260200161500c565b50506000910152565b60008151808452615045816020860160208601615009565b601f01601f19169290920160200192915050565b6020815260006111c2602083018461502d565b634e487b7160e01b600052602160045260246000fd5b600581106150a057634e487b7160e01b600052602160045260246000fd5b9052565b6001600160601b03861681526001600160a01b038516602082015260a081016150d06040830186615082565b9215156060820152608001529392505050565b6000806000606084860312156150f857600080fd5b833561510381614ce6565b92506020840135915060408401356001600160401b0381111561512557600080fd5b61513186828701614f4b565b9150509250925092565b6000806040838503121561514e57600080fd5b614eba83614d1f565b6000806040838503121561516a57600080fd5b823561517581614ce6565b9150602083013561518581614df5565b809150509250929050565b600082601f8301126151a157600080fd5b604051608081018181106001600160401b03821117156151c3576151c3614d3b565b6040528060808401858111156151d857600080fd5b845b818110156151f25780358352602092830192016151da565b509195945050505050565b6000806000806000806000806000806102008b8d03121561521d57600080fd5b8a3561522881614ce6565b995060208b013561523881614ce6565b985060408b013561524881614ce6565b975060608b013561525881614ce6565b965060808b013561526881614ce6565b955061527660a08c01614e03565b94506152858c60c08d01615190565b93506152958c6101408d01615190565b92506101c08b01356001600160401b038111156152b157600080fd5b6152bd8d828e01614f4b565b9250506152cd6101e08c01614ef4565b90509295989b9194979a5092959850565b6000806000606084860312156152f357600080fd5b83356152fe81614ce6565b925060208401356001600160401b038116811461531a57600080fd5b9150604084013560ff81168114614e6457600080fd5b6000806000806000806000610140888a03121561534c57600080fd5b61535588614d1f565b9650602088013561536581614df5565b955060408801359450606088013593506080880135925060a088013591506153908960c08a01615190565b905092959891949750929550565b600080604083850312156153b157600080fd5b50508035926020909101359150565b60008151808452602080850194506020840160005b838110156153fa5781516001600160a01b0316875295820195908201906001016153d5565b509495945050505050565b6020815281516020820152602082015160408201526040820151606082015260608201516080820152608082015160a082015260a082015160c0820152600060c08301516101608060e08501526154606101808501836153c0565b60e08601516101008681019190915286015161012080870191909152860151909250610140615499818701836001600160a01b03169052565b959095015193019290925250919050565b60008060008060008060008060006101808a8c0312156154c957600080fd5b6154d28a614d1f565b985060208a01356154e281614df5565b975060408a0135965060608a0135955060808a0135945060a08a0135935061550d8b60c08c01615190565b92506101408a01356001600160401b038082111561552a57600080fd5b6155368d838e01614f4b565b93506101608c013591508082111561554d57600080fd5b5061555a8c828d01614d81565b9150509295985092959850929598565b6000806040838503121561557d57600080fd5b8235915060208301356001600160401b03811115614ff357600080fd5b6000806000606084860312156155af57600080fd5b833592506020840135915060408401356001600160401b0381111561512557600080fd5b60008083601f8401126155e557600080fd5b5081356001600160401b038111156155fc57600080fd5b60208301915083602082850101111561561457600080fd5b9250929050565b60008060006040848603121561563057600080fd5b83356001600160401b0381111561564657600080fd5b615652868287016155d3565b9094509250506020840135614e6481614ce6565b60008060008060006080868803121561567e57600080fd5b8535945060208601356001600160401b0381111561569b57600080fd5b6156a7888289016155d3565b90955093505060408601356156bb81614ce6565b949793965091946060013592915050565b6000602082840312156156de57600080fd5b81356001600160401b038111156156f457600080fd5b61339e84828501614f4b565b6000806000806080858703121561571657600080fd5b843561572181614ce6565b935061572f60208601614d1f565b925060408501359150606085013561574681614df5565b939692955090935050565b634e487b7160e01b600052603260045260246000fd5b634e487b7160e01b600052601160045260246000fd5b818103818111156111c5576111c5615767565b6000602082840312156157a257600080fd5b8151614d1881614df5565b602081016111c58284615082565b600181815b808511156157f65781600019048211156157dc576157dc615767565b808516156157e957918102915b93841c93908002906157c0565b509250929050565b60008261580d575060016111c5565b8161581a575060006111c5565b8160018114615830576002811461583a57615856565b60019150506111c5565b60ff84111561584b5761584b615767565b50506001821b6111c5565b5060208310610133831016604e8410600b8410161715615879575081810a6111c5565b61588383836157bb565b806000190482111561589757615897615767565b029392505050565b60006111c260ff8416836157fe565b80820281158282048414176111c5576111c5615767565b634e487b7160e01b600052601260045260246000fd5b6000826158ea576158ea6158c5565b500490565b60008060006060848603121561590457600080fd5b83519250602084015161591681614df5565b6040850151909250614e6481614df5565b808201808211156111c5576111c5615767565b60006020828403121561594c57600080fd5b5051919050565b60008251615965818460208701615009565b9190910192915050565b600061012082019050871515825286602083015285604083015284606083015283608083015261495260a0830184614f1a565b82815260406020820152600061339e604083018461502d565b60006101408083018a1515845260208a60208601528960408601528860608601528760808601526159ef60a0860188614f1a565b610120850192909252845190819052610160840191602086019160005b81811015615a2857835185529382019392820192600101615a0c565b50929c9b505050505050505050505050565b848152836020820152608060408201526000615a59608083018561502d565b905082606083015295945050505050565b600060018201615a7c57615a7c615767565b5060010190565b600060208284031215615a9557600080fd5b8151614d1881614ce6565b6001600160a01b03929092168252602082015260400190565b6000600160ff1b8201615ace57615ace615767565b5060000390565b938452602084019290925260408301526001600160a01b0316606082015260800190565b92835260208301919091526001600160a01b0316604082015260600190565b600082615b2757615b276158c5565b500690565b600080600060608486031215615b4157600080fd5b8351925060208401519150604084015160098110614e6457600080fdfe360894a13ba1a3210667c828492db98dca3e2076cc3735a920a3ca505d382bbca2646970667358221220b2cd81b864081682acd498947c9c288206d75946d208564299f22d89c50c3a5e64736f6c63430008180033",
  "devdoc": {
    "errors": {
      "AlreadyInitialized()": [
        {
          "details": "The contract is already initialized."
        }
      ],
      "InvalidImplementation(address)": [
        {
          "details": "The `implementation` is not UUPS-compliant"
        }
      ],
      "NotInitializing()": [
        {
          "details": "The contract is not initializing."
        }
      ],
      "UUPSUnauthorizedCallContext()": [
        {
          "details": "The call is from an unauthorized context."
        }
      ],
      "UUPSUnsupportedProxiableUUID(bytes32)": [
        {
          "details": "The storage `slot` is unsupported as a UUID."
        }
      ]
    },
    "events": {
      "AcceptedFeeToken(address,bool)": {
        "details": "To be emitted when an ERC20 token is added or removed as a method to pay fees.",
        "params": {
          "_accepted": "Whether the token is accepted or not.",
          "_token": "The ERC20 token."
        }
      },
      "DisputeCreation(uint256,address)": {
        "details": "To be emitted when a dispute is created.",
        "params": {
          "_arbitrable": "The contract which created the dispute.",
          "_disputeID": "The identifier of the dispute in the Arbitrator contract."
        }
      },
      "Initialized(uint64)": {
        "details": "Triggered when the contract has been initialized or reinitialized."
      },
      "NewCurrencyRate(address,uint64,uint8)": {
        "details": "To be emitted when the fee for a particular ERC20 token is updated.",
        "params": {
          "_feeToken": "The ERC20 token.",
          "_rateDecimals": "The new decimals of the fee token rate.",
          "_rateInEth": "The new rate of the fee token in ETH."
        }
      },
      "Ruling(address,uint256,uint256)": {
        "details": "To be raised when a ruling is given.",
        "params": {
          "_arbitrable": "The arbitrable receiving the ruling.",
          "_disputeID": "The identifier of the dispute in the Arbitrator contract.",
          "_ruling": "The ruling which was given."
        }
      },
      "Upgraded(address)": {
        "details": "Emitted when the `implementation` has been successfully upgraded.",
        "params": {
          "newImplementation": "Address of the new implementation the proxy is now forwarding calls to."
        }
      }
    },
    "kind": "dev",
    "methods": {
      "addNewDisputeKit(address)": {
        "details": "Add a new supported dispute kit module to the court.",
        "params": {
          "_disputeKitAddress": "The address of the dispute kit contract."
        }
      },
      "appeal(uint256,uint256,bytes)": {
        "details": "Appeals the ruling of a specified dispute. Note: Access restricted to the Dispute Kit for this `disputeID`.",
        "params": {
          "_disputeID": "The ID of the dispute.",
          "_extraData": "Extradata for the dispute. Can be required during court jump.",
          "_numberOfChoices": "Number of choices for the dispute. Can be required during court jump."
        }
      },
      "appealCost(uint256)": {
        "details": "Gets the cost of appealing a specified dispute.",
        "params": {
          "_disputeID": "The ID of the dispute."
        },
        "returns": {
          "cost": "The appeal cost."
        }
      },
      "appealPeriod(uint256)": {
        "details": "Gets the start and the end of a specified dispute's current appeal period.",
        "params": {
          "_disputeID": "The ID of the dispute."
        },
        "returns": {
          "end": "The end of the appeal period.",
          "start": "The start of the appeal period."
        }
      },
      "arbitrationCost(bytes)": {
        "details": "Compute the cost of arbitration denominated in ETH.      It is recommended not to increase it often, as it can be highly time and gas consuming for the arbitrated contracts to cope with fee augmentation.",
        "params": {
          "_extraData": "Additional info about the dispute. We use it to pass the ID of the dispute's court (first 32 bytes), the minimum number of jurors required (next 32 bytes) and the ID of the specific dispute kit (last 32 bytes)."
        },
        "returns": {
          "cost": "The arbitration cost in ETH."
        }
      },
      "arbitrationCost(bytes,address)": {
        "details": "Compute the cost of arbitration denominated in `_feeToken`.      It is recommended not to increase it often, as it can be highly time and gas consuming for the arbitrated contracts to cope with fee augmentation.",
        "params": {
          "_extraData": "Additional info about the dispute. We use it to pass the ID of the dispute's court (first 32 bytes), the minimum number of jurors required (next 32 bytes) and the ID of the specific dispute kit (last 32 bytes).",
          "_feeToken": "The ERC20 token used to pay fees."
        },
        "returns": {
          "cost": "The arbitration cost in `_feeToken`."
        }
      },
      "changeAcceptedFeeTokens(address,bool)": {
        "details": "Changes the supported fee tokens.",
        "params": {
          "_accepted": "Whether the token is supported or not as a method of fee payment.",
          "_feeToken": "The fee token."
        }
      },
      "changeCurrencyRates(address,uint64,uint8)": {
        "details": "Changes the currency rate of a fee token.",
        "params": {
          "_feeToken": "The fee token.",
          "_rateDecimals": "The new decimals of the fee token rate.",
          "_rateInEth": "The new rate of the fee token in ETH."
        }
      },
      "changeGovernor(address)": {
        "details": "Changes the `governor` storage variable.",
        "params": {
          "_governor": "The new value for the `governor` storage variable."
        }
      },
      "changeGuardian(address)": {
        "details": "Changes the `guardian` storage variable.",
        "params": {
          "_guardian": "The new value for the `guardian` storage variable."
        }
      },
      "changeJurorProsecutionModule(address)": {
        "details": "Changes the `jurorProsecutionModule` storage variable.",
        "params": {
          "_jurorProsecutionModule": "The new value for the `jurorProsecutionModule` storage variable."
        }
      },
      "changePinakion(address)": {
        "details": "Changes the `pinakion` storage variable.",
        "params": {
          "_pinakion": "The new value for the `pinakion` storage variable."
        }
      },
      "changeSortitionModule(address)": {
        "details": "Changes the `_sortitionModule` storage variable. Note that the new module should be initialized for all courts.",
        "params": {
          "_sortitionModule": "The new value for the `sortitionModule` storage variable."
        }
      },
      "constructor": {
        "custom:oz-upgrades-unsafe-allow": "constructor"
      },
      "createCourt(uint96,bool,uint256,uint256,uint256,uint256,uint256[4],bytes,uint256[])": {
        "details": "Creates a court under a specified parent court.",
        "params": {
          "_alpha": "The `alpha` property value of the court.",
          "_feeForJuror": "The `feeForJuror` property value of the court.",
          "_hiddenVotes": "The `hiddenVotes` property value of the court.",
          "_jurorsForCourtJump": "The `jurorsForCourtJump` property value of the court.",
          "_minStake": "The `minStake` property value of the court.",
          "_parent": "The `parent` property value of the court.",
          "_sortitionExtraData": "Extra data for sortition module.",
          "_supportedDisputeKits": "Indexes of dispute kits that this court will support.",
          "_timesPerPeriod": "The `timesPerPeriod` property value of the court."
        }
      },
      "createDispute(uint256,bytes)": {
        "details": "Create a dispute and pay for the fees in the native currency, typically ETH.      Must be called by the arbitrable contract.      Must pay at least arbitrationCost(_extraData).",
        "params": {
          "_extraData": "Additional info about the dispute. We use it to pass the ID of the dispute's court (first 32 bytes), the minimum number of jurors required (next 32 bytes) and the ID of the specific dispute kit (last 32 bytes).",
          "_numberOfChoices": "The number of choices the arbitrator can choose from in this dispute."
        },
        "returns": {
          "disputeID": "The identifier of the dispute created."
        }
      },
      "createDispute(uint256,bytes,address,uint256)": {
        "details": "Create a dispute and pay for the fees in a supported ERC20 token.      Must be called by the arbitrable contract.      Must pay at least arbitrationCost(_extraData).",
        "params": {
          "_extraData": "Additional info about the dispute. We use it to pass the ID of the dispute's court (first 32 bytes), the minimum number of jurors required (next 32 bytes) and the ID of the specific dispute kit (last 32 bytes).",
          "_feeAmount": "Amount of the ERC20 token used to pay fees.",
          "_feeToken": "The ERC20 token used to pay fees.",
          "_numberOfChoices": "The number of choices the arbitrator can choose from in this dispute."
        },
        "returns": {
          "disputeID": "The identifier of the dispute created."
        }
      },
      "currentRuling(uint256)": {
        "details": "Gets the current ruling of a specified dispute.",
        "params": {
          "_disputeID": "The ID of the dispute."
        },
        "returns": {
          "overridden": "Whether the ruling was overridden by appeal funding or not.",
          "ruling": "The current ruling.",
          "tied": "Whether it's a tie or not."
        }
      },
      "draw(uint256,uint256)": {
        "details": "Draws jurors for the dispute. Can be called in parts.",
        "params": {
          "_disputeID": "The ID of the dispute.",
          "_iterations": "The number of iterations to run."
        }
      },
      "enableDisputeKits(uint96,uint256[],bool)": {
        "details": "Adds/removes court's support for specified dispute kits.",
        "params": {
          "_courtID": "The ID of the court.",
          "_disputeKitIDs": "The IDs of dispute kits which support should be added/removed.",
          "_enable": "Whether add or remove the dispute kits from the court."
        }
      },
      "execute(uint256,uint256,uint256)": {
        "details": "Distribute the PNKs at stake and the dispute fees for the specific round of the dispute. Can be called in parts. Note: Reward distributions are forbidden during pause.",
        "params": {
          "_disputeID": "The ID of the dispute.",
          "_iterations": "The number of iterations to run.",
          "_round": "The appeal round."
        }
      },
      "executeGovernorProposal(address,uint256,bytes)": {
        "details": "Allows the governor to call anything on behalf of the contract.",
        "params": {
          "_amount": "The value sent with the call.",
          "_data": "The data sent with the call.",
          "_destination": "The destination of the call."
        }
      },
      "executeRuling(uint256)": {
        "details": "Executes a specified dispute's ruling.",
        "params": {
          "_disputeID": "The ID of the dispute."
        }
      },
      "getNumberOfVotes(uint256)": {
        "details": "Gets the number of votes permitted for the specified dispute in the latest round.",
        "params": {
          "_disputeID": "The ID of the dispute."
        }
      },
      "getTimesPerPeriod(uint96)": {
        "details": "Gets the timesPerPeriod array for a given court.",
        "params": {
          "_courtID": "The ID of the court to get the times from."
        },
        "returns": {
          "timesPerPeriod": "The timesPerPeriod array for the given court."
        }
      },
      "initialize(address,address,address,address,address,bool,uint256[4],uint256[4],bytes,address)": {
        "details": "Initializer (constructor equivalent for upgradable contracts).",
        "params": {
          "_courtParameters": "Numeric parameters of General court (minStake, alpha, feeForJuror and jurorsForCourtJump respectively).",
          "_disputeKit": "The address of the default dispute kit.",
          "_governor": "The governor's address.",
          "_guardian": "The guardian's address.",
          "_hiddenVotes": "The `hiddenVotes` property value of the general court.",
          "_jurorProsecutionModule": "The address of the juror prosecution module.",
          "_pinakion": "The address of the token contract.",
          "_sortitionExtraData": "The extra data for sortition module.",
          "_sortitionModuleAddress": "The sortition module responsible for sortition of the jurors.",
          "_timesPerPeriod": "The `timesPerPeriod` property value of the general court."
        }
      },
      "isDisputeKitJumping(uint256)": {
        "details": "Returns true if the dispute kit will be switched to a parent DK.",
        "params": {
          "_disputeID": "The ID of the dispute."
        },
        "returns": {
          "_0": "Whether DK will be switched or not."
        }
      },
      "passPeriod(uint256)": {
        "details": "Passes the period of a specified dispute.",
        "params": {
          "_disputeID": "The ID of the dispute."
        }
      },
      "pause()": {
        "details": "Pause staking and reward execution. Can only be done by guardian or governor."
      },
      "proxiableUUID()": {
        "details": "Implementation of the ERC1822 `proxiableUUID` function. This returns the storage slot used by the implementation. It is used to validate the implementation's compatibility when performing an upgrade. IMPORTANT: A proxy pointing at a proxiable contract should not be considered proxiable itself, because this risks bricking a proxy that upgrades to it, by delegating to itself until out of gas. Thus it is critical that this function revert if invoked through a proxy. This is guaranteed by the if statement."
      },
      "setStake(uint96,uint256)": {
        "details": "Sets the caller's stake in a court.",
        "params": {
          "_courtID": "The ID of the court.",
          "_newStake": "The new stake. Note that the existing delayed stake will be nullified as non-relevant."
        }
      },
      "setStakeBySortitionModule(address,uint96,uint256,bool)": {
        "details": "Sets the stake of a specified account in a court, typically to apply a delayed stake or unstake inactive jurors.",
        "params": {
          "_account": "The account whose stake is being set.",
          "_alreadyTransferred": "Whether the PNKs have already been transferred to the contract.",
          "_courtID": "The ID of the court.",
          "_newStake": "The new stake."
        }
      },
      "unpause()": {
        "details": "Unpause staking and reward execution. Can only be done by governor."
      },
      "upgradeToAndCall(address,bytes)": {
        "details": "Upgrade mechanism including access control and UUPS-compliance.Reverts if the execution is not performed via delegatecall or the execution context is not of a proxy with an ERC1967-compliant implementation pointing to self.",
        "params": {
          "data": "Data used in a delegate call to `newImplementation` if non-empty. This will typically be an encoded function call, and allows initializing the storage of the proxy like a Solidity constructor.",
          "newImplementation": "Address of the new implementation contract."
        }
      }
    },
    "stateVariables": {
      "version": {
        "details": "Returns the version of the implementation.",
        "return": "Version string.",
        "returns": {
          "_0": "Version string."
        }
      }
    },
    "title": "KlerosCore Core arbitrator contract for Kleros v2. Note that this contract trusts the PNK token, the dispute kit and the sortition module contracts.",
    "version": 1
  },
  "userdoc": {
    "errors": {
      "FailedDelegateCall()": [
        {
          "notice": "Failed Delegated call"
        }
      ]
    },
    "kind": "user",
    "methods": {},
    "version": 1
  },
  "storageLayout": {
    "storage": [
      {
        "astId": 306,
        "contract": "src/arbitration/KlerosCore.sol:KlerosCore",
        "label": "governor",
        "offset": 0,
        "slot": "0",
        "type": "t_address"
      },
      {
        "astId": 308,
        "contract": "src/arbitration/KlerosCore.sol:KlerosCore",
        "label": "guardian",
        "offset": 0,
        "slot": "1",
        "type": "t_address"
      },
      {
        "astId": 311,
        "contract": "src/arbitration/KlerosCore.sol:KlerosCore",
        "label": "pinakion",
        "offset": 0,
        "slot": "2",
        "type": "t_contract(IERC20)77"
      },
      {
        "astId": 313,
        "contract": "src/arbitration/KlerosCore.sol:KlerosCore",
        "label": "jurorProsecutionModule",
        "offset": 0,
        "slot": "3",
        "type": "t_address"
      },
      {
        "astId": 316,
        "contract": "src/arbitration/KlerosCore.sol:KlerosCore",
        "label": "sortitionModule",
        "offset": 0,
        "slot": "4",
        "type": "t_contract(ISortitionModule)8891"
      },
      {
        "astId": 320,
        "contract": "src/arbitration/KlerosCore.sol:KlerosCore",
        "label": "courts",
        "offset": 0,
        "slot": "5",
        "type": "t_array(t_struct(Court)225_storage)dyn_storage"
      },
      {
        "astId": 324,
        "contract": "src/arbitration/KlerosCore.sol:KlerosCore",
        "label": "disputeKits",
        "offset": 0,
        "slot": "6",
        "type": "t_array(t_contract(IDisputeKit)8767)dyn_storage"
      },
      {
        "astId": 328,
        "contract": "src/arbitration/KlerosCore.sol:KlerosCore",
        "label": "disputes",
        "offset": 0,
        "slot": "7",
        "type": "t_array(t_struct(Dispute)242_storage)dyn_storage"
      },
      {
        "astId": 334,
        "contract": "src/arbitration/KlerosCore.sol:KlerosCore",
        "label": "currencyRates",
        "offset": 0,
        "slot": "8",
        "type": "t_mapping(t_contract(IERC20)77,t_struct(CurrencyRate)291_storage)"
      },
      {
        "astId": 336,
        "contract": "src/arbitration/KlerosCore.sol:KlerosCore",
        "label": "paused",
        "offset": 0,
        "slot": "9",
        "type": "t_bool"
      }
    ],
    "types": {
      "t_address": {
        "encoding": "inplace",
        "label": "address",
        "numberOfBytes": "20"
      },
      "t_array(t_address)dyn_storage": {
        "base": "t_address",
        "encoding": "dynamic_array",
        "label": "address[]",
        "numberOfBytes": "32"
      },
      "t_array(t_contract(IDisputeKit)8767)dyn_storage": {
        "base": "t_contract(IDisputeKit)8767",
        "encoding": "dynamic_array",
        "label": "contract IDisputeKit[]",
        "numberOfBytes": "32"
      },
      "t_array(t_struct(Court)225_storage)dyn_storage": {
        "base": "t_struct(Court)225_storage",
        "encoding": "dynamic_array",
        "label": "struct KlerosCoreBase.Court[]",
        "numberOfBytes": "32"
      },
      "t_array(t_struct(Dispute)242_storage)dyn_storage": {
        "base": "t_struct(Dispute)242_storage",
        "encoding": "dynamic_array",
        "label": "struct KlerosCoreBase.Dispute[]",
        "numberOfBytes": "32"
      },
      "t_array(t_struct(Round)267_storage)dyn_storage": {
        "base": "t_struct(Round)267_storage",
        "encoding": "dynamic_array",
        "label": "struct KlerosCoreBase.Round[]",
        "numberOfBytes": "32"
      },
      "t_array(t_uint256)4_storage": {
        "base": "t_uint256",
        "encoding": "inplace",
        "label": "uint256[4]",
        "numberOfBytes": "128"
      },
      "t_array(t_uint256)dyn_storage": {
        "base": "t_uint256",
        "encoding": "dynamic_array",
        "label": "uint256[]",
        "numberOfBytes": "32"
      },
      "t_bool": {
        "encoding": "inplace",
        "label": "bool",
        "numberOfBytes": "1"
      },
      "t_contract(IArbitrableV2)8516": {
        "encoding": "inplace",
        "label": "contract IArbitrableV2",
        "numberOfBytes": "20"
      },
      "t_contract(IDisputeKit)8767": {
        "encoding": "inplace",
        "label": "contract IDisputeKit",
        "numberOfBytes": "20"
      },
      "t_contract(IERC20)77": {
        "encoding": "inplace",
        "label": "contract IERC20",
        "numberOfBytes": "20"
      },
      "t_contract(ISortitionModule)8891": {
        "encoding": "inplace",
        "label": "contract ISortitionModule",
        "numberOfBytes": "20"
      },
      "t_enum(Period)199": {
        "encoding": "inplace",
        "label": "enum KlerosCoreBase.Period",
        "numberOfBytes": "1"
      },
      "t_mapping(t_contract(IERC20)77,t_struct(CurrencyRate)291_storage)": {
        "encoding": "mapping",
        "key": "t_contract(IERC20)77",
        "label": "mapping(contract IERC20 => struct KlerosCoreBase.CurrencyRate)",
        "numberOfBytes": "32",
        "value": "t_struct(CurrencyRate)291_storage"
      },
      "t_mapping(t_uint256,t_bool)": {
        "encoding": "mapping",
        "key": "t_uint256",
        "label": "mapping(uint256 => bool)",
        "numberOfBytes": "32",
        "value": "t_bool"
      },
      "t_struct(Court)225_storage": {
        "encoding": "inplace",
        "label": "struct KlerosCoreBase.Court",
        "members": [
          {
            "astId": 201,
            "contract": "src/arbitration/KlerosCore.sol:KlerosCore",
            "label": "parent",
            "offset": 0,
            "slot": "0",
            "type": "t_uint96"
          },
          {
            "astId": 203,
            "contract": "src/arbitration/KlerosCore.sol:KlerosCore",
            "label": "hiddenVotes",
            "offset": 12,
            "slot": "0",
            "type": "t_bool"
          },
          {
            "astId": 206,
            "contract": "src/arbitration/KlerosCore.sol:KlerosCore",
            "label": "children",
            "offset": 0,
            "slot": "1",
            "type": "t_array(t_uint256)dyn_storage"
          },
          {
            "astId": 208,
            "contract": "src/arbitration/KlerosCore.sol:KlerosCore",
            "label": "minStake",
            "offset": 0,
            "slot": "2",
            "type": "t_uint256"
          },
          {
            "astId": 210,
            "contract": "src/arbitration/KlerosCore.sol:KlerosCore",
            "label": "alpha",
            "offset": 0,
            "slot": "3",
            "type": "t_uint256"
          },
          {
            "astId": 212,
            "contract": "src/arbitration/KlerosCore.sol:KlerosCore",
            "label": "feeForJuror",
            "offset": 0,
            "slot": "4",
            "type": "t_uint256"
          },
          {
            "astId": 214,
            "contract": "src/arbitration/KlerosCore.sol:KlerosCore",
            "label": "jurorsForCourtJump",
            "offset": 0,
            "slot": "5",
            "type": "t_uint256"
          },
          {
            "astId": 218,
            "contract": "src/arbitration/KlerosCore.sol:KlerosCore",
            "label": "timesPerPeriod",
            "offset": 0,
            "slot": "6",
            "type": "t_array(t_uint256)4_storage"
          },
          {
            "astId": 222,
            "contract": "src/arbitration/KlerosCore.sol:KlerosCore",
            "label": "supportedDisputeKits",
            "offset": 0,
            "slot": "10",
            "type": "t_mapping(t_uint256,t_bool)"
          },
          {
            "astId": 224,
            "contract": "src/arbitration/KlerosCore.sol:KlerosCore",
            "label": "disabled",
            "offset": 0,
            "slot": "11",
            "type": "t_bool"
          }
        ],
        "numberOfBytes": "384"
      },
      "t_struct(CurrencyRate)291_storage": {
        "encoding": "inplace",
        "label": "struct KlerosCoreBase.CurrencyRate",
        "members": [
          {
            "astId": 286,
            "contract": "src/arbitration/KlerosCore.sol:KlerosCore",
            "label": "feePaymentAccepted",
            "offset": 0,
            "slot": "0",
            "type": "t_bool"
          },
          {
            "astId": 288,
            "contract": "src/arbitration/KlerosCore.sol:KlerosCore",
            "label": "rateInEth",
            "offset": 1,
            "slot": "0",
            "type": "t_uint64"
          },
          {
            "astId": 290,
            "contract": "src/arbitration/KlerosCore.sol:KlerosCore",
            "label": "rateDecimals",
            "offset": 9,
            "slot": "0",
            "type": "t_uint8"
          }
        ],
        "numberOfBytes": "32"
      },
      "t_struct(Dispute)242_storage": {
        "encoding": "inplace",
        "label": "struct KlerosCoreBase.Dispute",
        "members": [
          {
            "astId": 227,
            "contract": "src/arbitration/KlerosCore.sol:KlerosCore",
            "label": "courtID",
            "offset": 0,
            "slot": "0",
            "type": "t_uint96"
          },
          {
            "astId": 230,
            "contract": "src/arbitration/KlerosCore.sol:KlerosCore",
            "label": "arbitrated",
            "offset": 12,
            "slot": "0",
            "type": "t_contract(IArbitrableV2)8516"
          },
          {
            "astId": 233,
            "contract": "src/arbitration/KlerosCore.sol:KlerosCore",
            "label": "period",
            "offset": 0,
            "slot": "1",
            "type": "t_enum(Period)199"
          },
          {
            "astId": 235,
            "contract": "src/arbitration/KlerosCore.sol:KlerosCore",
            "label": "ruled",
            "offset": 1,
            "slot": "1",
            "type": "t_bool"
          },
          {
            "astId": 237,
            "contract": "src/arbitration/KlerosCore.sol:KlerosCore",
            "label": "lastPeriodChange",
            "offset": 0,
            "slot": "2",
            "type": "t_uint256"
          },
          {
            "astId": 241,
            "contract": "src/arbitration/KlerosCore.sol:KlerosCore",
            "label": "rounds",
            "offset": 0,
            "slot": "3",
            "type": "t_array(t_struct(Round)267_storage)dyn_storage"
          }
        ],
        "numberOfBytes": "128"
      },
      "t_struct(Round)267_storage": {
        "encoding": "inplace",
        "label": "struct KlerosCoreBase.Round",
        "members": [
          {
            "astId": 244,
            "contract": "src/arbitration/KlerosCore.sol:KlerosCore",
            "label": "disputeKitID",
            "offset": 0,
            "slot": "0",
            "type": "t_uint256"
          },
          {
            "astId": 246,
            "contract": "src/arbitration/KlerosCore.sol:KlerosCore",
            "label": "pnkAtStakePerJuror",
            "offset": 0,
            "slot": "1",
            "type": "t_uint256"
          },
          {
            "astId": 248,
            "contract": "src/arbitration/KlerosCore.sol:KlerosCore",
            "label": "totalFeesForJurors",
            "offset": 0,
            "slot": "2",
            "type": "t_uint256"
          },
          {
            "astId": 250,
            "contract": "src/arbitration/KlerosCore.sol:KlerosCore",
            "label": "nbVotes",
            "offset": 0,
            "slot": "3",
            "type": "t_uint256"
          },
          {
            "astId": 252,
            "contract": "src/arbitration/KlerosCore.sol:KlerosCore",
            "label": "repartitions",
            "offset": 0,
            "slot": "4",
            "type": "t_uint256"
          },
          {
            "astId": 254,
            "contract": "src/arbitration/KlerosCore.sol:KlerosCore",
            "label": "pnkPenalties",
            "offset": 0,
            "slot": "5",
            "type": "t_uint256"
          },
          {
            "astId": 257,
            "contract": "src/arbitration/KlerosCore.sol:KlerosCore",
            "label": "drawnJurors",
            "offset": 0,
            "slot": "6",
            "type": "t_array(t_address)dyn_storage"
          },
          {
            "astId": 259,
            "contract": "src/arbitration/KlerosCore.sol:KlerosCore",
            "label": "sumFeeRewardPaid",
            "offset": 0,
            "slot": "7",
            "type": "t_uint256"
          },
          {
            "astId": 261,
            "contract": "src/arbitration/KlerosCore.sol:KlerosCore",
            "label": "sumPnkRewardPaid",
            "offset": 0,
            "slot": "8",
            "type": "t_uint256"
          },
          {
            "astId": 264,
            "contract": "src/arbitration/KlerosCore.sol:KlerosCore",
            "label": "feeToken",
            "offset": 0,
            "slot": "9",
            "type": "t_contract(IERC20)77"
          },
          {
            "astId": 266,
            "contract": "src/arbitration/KlerosCore.sol:KlerosCore",
            "label": "drawIterations",
            "offset": 0,
            "slot": "10",
            "type": "t_uint256"
          }
        ],
        "numberOfBytes": "352"
      },
      "t_uint256": {
        "encoding": "inplace",
        "label": "uint256",
        "numberOfBytes": "32"
      },
      "t_uint64": {
        "encoding": "inplace",
        "label": "uint64",
        "numberOfBytes": "8"
      },
      "t_uint8": {
        "encoding": "inplace",
        "label": "uint8",
        "numberOfBytes": "1"
      },
      "t_uint96": {
        "encoding": "inplace",
        "label": "uint96",
        "numberOfBytes": "12"
      }
    }
  }
}