{
  "address": "0x4e3146Af220595Ed3c30E5485673eE27927Ad8F4",
  "abi": [
    {
      "inputs": [],
      "stateMutability": "nonpayable",
      "type": "constructor"
    },
    {
      "inputs": [],
      "name": "AlreadyInitialized",
      "type": "error"
    },
    {
      "inputs": [],
      "name": "FailedDelegateCall",
      "type": "error"
    },
    {
      "inputs": [
        {
          "internalType": "address",
          "name": "implementation",
          "type": "address"
        }
      ],
      "name": "InvalidImplementation",
      "type": "error"
    },
    {
      "inputs": [],
      "name": "NotInitializing",
      "type": "error"
    },
    {
      "inputs": [],
      "name": "OwnerOnly",
      "type": "error"
    },
    {
      "inputs": [],
      "name": "UUPSUnauthorizedCallContext",
      "type": "error"
    },
    {
      "inputs": [
        {
          "internalType": "bytes32",
          "name": "slot",
          "type": "bytes32"
        }
      ],
      "name": "UUPSUnsupportedProxiableUUID",
      "type": "error"
    },
    {
      "anonymous": false,
      "inputs": [
        {
          "indexed": false,
          "internalType": "uint64",
          "name": "version",
          "type": "uint64"
        }
      ],
      "name": "Initialized",
      "type": "event"
    },
    {
      "anonymous": false,
      "inputs": [
        {
          "indexed": true,
          "internalType": "uint256",
          "name": "_courtID",
          "type": "uint256"
        },
        {
          "indexed": false,
          "internalType": "string",
          "name": "_courtName",
          "type": "string"
        },
        {
          "indexed": false,
          "internalType": "string",
          "name": "_policy",
          "type": "string"
        }
      ],
      "name": "PolicyUpdate",
      "type": "event"
    },
    {
      "anonymous": false,
      "inputs": [
        {
          "indexed": true,
          "internalType": "address",
          "name": "newImplementation",
          "type": "address"
        }
      ],
      "name": "Upgraded",
      "type": "event"
    },
    {
      "inputs": [
        {
          "internalType": "address",
          "name": "_owner",
          "type": "address"
        }
      ],
      "name": "changeOwner",
      "outputs": [],
      "stateMutability": "nonpayable",
      "type": "function"
    },
    {
      "inputs": [
        {
          "internalType": "address",
          "name": "_owner",
          "type": "address"
        }
      ],
      "name": "initialize",
      "outputs": [],
      "stateMutability": "nonpayable",
      "type": "function"
    },
    {
      "inputs": [],
      "name": "owner",
      "outputs": [
        {
          "internalType": "address",
          "name": "",
          "type": "address"
        }
      ],
      "stateMutability": "view",
      "type": "function"
    },
    {
      "inputs": [
        {
          "internalType": "uint256",
          "name": "",
          "type": "uint256"
        }
      ],
      "name": "policies",
      "outputs": [
        {
          "internalType": "string",
          "name": "",
          "type": "string"
        }
      ],
      "stateMutability": "view",
      "type": "function"
    },
    {
      "inputs": [],
      "name": "proxiableUUID",
      "outputs": [
        {
          "internalType": "bytes32",
          "name": "",
          "type": "bytes32"
        }
      ],
      "stateMutability": "view",
      "type": "function"
    },
    {
      "inputs": [
        {
          "internalType": "uint256",
          "name": "_courtID",
          "type": "uint256"
        },
        {
          "internalType": "string",
          "name": "_courtName",
          "type": "string"
        },
        {
          "internalType": "string",
          "name": "_policy",
          "type": "string"
        }
      ],
      "name": "setPolicy",
      "outputs": [],
      "stateMutability": "nonpayable",
      "type": "function"
    },
    {
      "inputs": [
        {
          "internalType": "address",
          "name": "newImplementation",
          "type": "address"
        },
        {
          "internalType": "bytes",
          "name": "data",
          "type": "bytes"
        }
      ],
      "name": "upgradeToAndCall",
      "outputs": [],
      "stateMutability": "payable",
      "type": "function"
    },
    {
      "inputs": [],
      "name": "version",
      "outputs": [
        {
          "internalType": "string",
          "name": "",
          "type": "string"
        }
      ],
      "stateMutability": "view",
      "type": "function"
    }
  ],
  "transactionHash": "0x1cfe037f65626d7c32af8e9ae1aaf18d290bb71dd108db08090d69112abe5923",
  "args": [],
  "numDeployments": 1,
  "solcInputHash": "7120e939c323b678aae40a88db815cc2",
  "bytecode": "0x60a080604052346100c157306080525f516020610bce5f395f51905f525460ff8160401c166100b3576002600160401b03196001600160401b03821601610060575b604051610b0890816100c682396080518181816106d801526107dc0152f35b6001600160401b0319166001600160401b039081175f516020610bce5f395f51905f525581527fc7f505b2f371ae2175ee4913f4499e1f2633a7b5936321eed1cdaeb6115181d290602090a15f80610041565b62dc149f60e41b5f5260045ffd5b5f80fdfe60806040526004361015610011575f80fd5b5f3560e01c80634f1ef2861461075057806352d1902d146106be57806354fd4d50146106675780638da5cb5b14610642578063a6f9dae1146105ed578063bdf73780146102fe578063c4d66de8146101455763d3e8948314610071575f80fd5b34610141576020366003190112610141576004355f52600160205260405f20604051905f908054906100a282610a9a565b808552916001811690811561011a57506001146100da575b6100d6846100ca81860382610a04565b60405191829182610a42565b0390f35b5f90815260208120939250905b808210610100575090915081016020016100ca826100ba565b9192600181602092548385880101520191019092916100e7565b60ff191660208087019190915292151560051b850190920192506100ca91508390506100ba565b5f80fd5b346101415760203660031901126101415761015e6109ee565b7ff0c57e16840df040f15088dc2f81fe391c3923bec73e23a9662efc9c229c6a0e5460ff8160401c16159167ffffffffffffffff821683806102f4575b1590816102d6575b506102c85767ffffffffffffffff1982166001177ff0c57e16840df040f15088dc2f81fe391c3923bec73e23a9662efc9c229c6a0e556001600160a01b039183610289575b501673ffffffffffffffffffffffffffffffffffffffff195f5416175f5561020c57005b68ff0000000000000000197ff0c57e16840df040f15088dc2f81fe391c3923bec73e23a9662efc9c229c6a0e54167ff0c57e16840df040f15088dc2f81fe391c3923bec73e23a9662efc9c229c6a0e557fc7f505b2f371ae2175ee4913f4499e1f2633a7b5936321eed1cdaeb6115181d2602060405160018152a1005b68ffffffffffffffffff191668010000000000000001177ff0c57e16840df040f15088dc2f81fe391c3923bec73e23a9662efc9c229c6a0e55836101e8565b62dc149f60e41b5f5260045ffd5b303b159150816102e9575b5015846101a3565b6001915014846102e1565b506001811061019b565b346101415760603660031901126101415760043560243567ffffffffffffffff811161014157610332903690600401610a6c565b60443567ffffffffffffffff811161014157610352903690600401610a6c565b6001600160a01b035f541633036105c557845f52600160205260405f209167ffffffffffffffff82116105b157819061038b8454610a9a565b601f8111610561575b505f90601f83116001146104fa575f926104ef575b50508160011b915f199060031b1c19161790555b825f52600160205260405f209080604051936040855281604086015260608501375f60608285010152601f801991011682019060608383030160208401525f9181549161040983610a9a565b928360608401526001811690815f146104a8575060011461044e575b857f61f7110245e82eddd3b134d1e1607420d4a4dcdab30f5abdbbc9c3485b5dd2a486860387a2005b909192505f5260205f20915f925b81841061049157505001608001817f61f7110245e82eddd3b134d1e1607420d4a4dcdab30f5abdbbc9c3485b5dd2a485610425565b80548484016080015260209093019260010161045c565b60ff191660808085019190915293151560051b90920190920192508391507f61f7110245e82eddd3b134d1e1607420d4a4dcdab30f5abdbbc9c3485b5dd2a4905085610425565b0135905086806103a9565b909150601f19831691845f5260205f20925f5b8181106105495750908460019594939210610530575b505050811b0190556103bd565b01355f19600384901b60f8161c19169055868080610523565b9193602060018192878701358155019501920161050d565b909150835f5260205f20601f840160051c810191602085106105a7575b90601f859493920160051c01905b8181106105995750610394565b5f815584935060010161058c565b909150819061057e565b634e487b7160e01b5f52604160045260245ffd5b7f596dcdb8000000000000000000000000000000000000000000000000000000005f5260045ffd5b34610141576020366003190112610141576106066109ee565b5f5490336001600160a01b038316036105c5576001600160a01b0373ffffffffffffffffffffffffffffffffffffffff1991169116175f555f80f35b34610141575f3660031901126101415760206001600160a01b035f5416604051908152f35b34610141575f366003190112610141576100d6604051610688604082610a04565b600581527f322e302e30000000000000000000000000000000000000000000000000000000602082015260405191829182610a42565b34610141575f366003190112610141576001600160a01b037f00000000000000000000000000000000000000000000000000000000000000001630036107285760206040517f360894a13ba1a3210667c828492db98dca3e2076cc3735a920a3ca505d382bbc8152f35b7fe07c8dba000000000000000000000000000000000000000000000000000000005f5260045ffd5b6040366003190112610141576107646109ee565b60243567ffffffffffffffff811161014157366023820112156101415780600401359161079083610a26565b9261079e6040519485610a04565b8084526020840192366024838301011161014157815f926024602093018637850101526001600160a01b035f541633036105c5576001600160a01b037f0000000000000000000000000000000000000000000000000000000000000000168030149081156109b9575b50610728576001600160a01b038116926040517f52d1902d000000000000000000000000000000000000000000000000000000008152602081600481885afa5f9181610985575b5061087f57847f0c760937000000000000000000000000000000000000000000000000000000005f5260045260245ffd5b807f360894a13ba1a3210667c828492db98dca3e2076cc3735a920a3ca505d382bbc86920361095a5750827f360894a13ba1a3210667c828492db98dca3e2076cc3735a920a3ca505d382bbc557fbc7cd75a20ee27fd9adebab32041f755214dbc6bffa90cc0225b39da2e5c2d3b5f80a251806108f857005b5f9283925af43d15610955573d61090e81610a26565b9061091c6040519283610a04565b81525f60203d92013e5b1561092d57005b7f736436ba000000000000000000000000000000000000000000000000000000005f5260045ffd5b610926565b7faa1d49a4000000000000000000000000000000000000000000000000000000005f5260045260245ffd5b9091506020813d6020116109b1575b816109a160209383610a04565b810103126101415751908661084e565b3d9150610994565b90506001600160a01b037f360894a13ba1a3210667c828492db98dca3e2076cc3735a920a3ca505d382bbc5416141584610807565b600435906001600160a01b038216820361014157565b90601f8019910116810190811067ffffffffffffffff8211176105b157604052565b67ffffffffffffffff81116105b157601f01601f191660200190565b602060409281835280519182918282860152018484015e5f828201840152601f01601f1916010190565b9181601f840112156101415782359167ffffffffffffffff8311610141576020838186019501011161014157565b90600182811c92168015610ac8575b6020831014610ab457565b634e487b7160e01b5f52602260045260245ffd5b91607f1691610aa956fea264697066735822122080398cb30213dd43fa3d82633a796e686ef7cc4c08d27571fb261d0bb945a48e64736f6c634300081e0033f0c57e16840df040f15088dc2f81fe391c3923bec73e23a9662efc9c229c6a0e",
  "devdoc": {
    "errors": {
      "AlreadyInitialized()": [
        {
          "details": "The contract is already initialized."
        }
      ],
      "NotInitializing()": [
        {
          "details": "The contract is not initializing."
        }
      ]
    },
    "events": {
      "Initialized(uint64)": {
        "details": "Triggered when the contract has been initialized or reinitialized."
      },
      "PolicyUpdate(uint256,string,string)": {
        "params": {
          "_courtID": "The ID of the policy's court.",
          "_courtName": "The name of the policy's court.",
          "_policy": "The URI of the policy JSON."
        }
      },
      "Upgraded(address)": {
        "params": {
          "newImplementation": "Address of the new implementation the proxy is now forwarding calls to."
        }
      }
    },
    "kind": "dev",
    "methods": {
      "changeOwner(address)": {
        "params": {
          "_owner": "The new value for the `owner` storage variable."
        }
      },
      "constructor": {
        "custom:oz-upgrades-unsafe-allow": "constructor"
      },
      "initialize(address)": {
        "params": {
          "_owner": "The owner's address."
        }
      },
      "proxiableUUID()": {
        "details": "IMPORTANT: A proxy pointing at a proxiable contract should not be considered proxiable itself, because this risks bricking a proxy that upgrades to it, by delegating to itself until out of gas. Thus it is critical that this function revert if invoked through a proxy. This is guaranteed by the if statement."
      },
      "setPolicy(uint256,string,string)": {
        "params": {
          "_courtID": "The ID of the specified court.",
          "_courtName": "The name of the specified court.",
          "_policy": "The URI of the policy JSON."
        }
      },
      "upgradeToAndCall(address,bytes)": {
        "details": "Reverts if the execution is not performed via delegatecall or the execution context is not of a proxy with an ERC1967-compliant implementation pointing to self.",
        "params": {
          "data": "Data used in a delegate call to `newImplementation` if non-empty. This will typically be an encoded function call, and allows initializing the storage of the proxy like a Solidity constructor.",
          "newImplementation": "Address of the new implementation contract."
        }
      }
    },
    "stateVariables": {
      "version": {
        "return": "Version string.",
        "returns": {
          "_0": "Version string."
        }
      }
    },
    "title": "PolicyRegistry",
    "version": 1
  },
  "userdoc": {
    "errors": {
      "FailedDelegateCall()": [
        {
          "notice": "Failed Delegated call"
        }
      ],
      "InvalidImplementation(address)": [
        {
          "notice": "The `implementation` is not UUPS-compliant"
        }
      ],
      "UUPSUnauthorizedCallContext()": [
        {
          "notice": "The call is from an unauthorized context."
        }
      ],
      "UUPSUnsupportedProxiableUUID(bytes32)": [
        {
          "notice": "The storage `slot` is unsupported as a UUID."
        }
      ]
    },
    "events": {
      "PolicyUpdate(uint256,string,string)": {
        "notice": "Emitted when a policy is updated."
      },
      "Upgraded(address)": {
        "notice": "Emitted when the `implementation` has been successfully upgraded."
      }
    },
    "kind": "user",
    "methods": {
      "changeOwner(address)": {
        "notice": "Changes the `owner` storage variable."
      },
      "initialize(address)": {
        "notice": "Constructs the `PolicyRegistry` contract."
      },
      "proxiableUUID()": {
        "notice": "Implementation of the ERC1822 `proxiableUUID` function. This returns the storage slot used by the implementation. It is used to validate the implementation's compatibility when performing an upgrade."
      },
      "setPolicy(uint256,string,string)": {
        "notice": "Sets the policy for the specified court."
      },
      "upgradeToAndCall(address,bytes)": {
        "notice": "Upgrade mechanism including access control and UUPS-compliance."
      },
      "version()": {
        "notice": "Returns the version of the implementation."
      }
    },
    "notice": "A contract to maintain a policy for each court.",
    "version": 1
  },
  "storageLayout": {
    "storage": [
      {
        "astId": 16421,
        "contract": "src/arbitration/PolicyRegistry.sol:PolicyRegistry",
        "label": "owner",
        "offset": 0,
        "slot": "0",
        "type": "t_address"
      },
      {
        "astId": 16425,
        "contract": "src/arbitration/PolicyRegistry.sol:PolicyRegistry",
        "label": "policies",
        "offset": 0,
        "slot": "1",
        "type": "t_mapping(t_uint256,t_string_storage)"
      }
    ],
    "types": {
      "t_address": {
        "encoding": "inplace",
        "label": "address",
        "numberOfBytes": "20"
      },
      "t_mapping(t_uint256,t_string_storage)": {
        "encoding": "mapping",
        "key": "t_uint256",
        "label": "mapping(uint256 => string)",
        "numberOfBytes": "32",
        "value": "t_string_storage"
      },
      "t_string_storage": {
        "encoding": "bytes",
        "label": "string",
        "numberOfBytes": "32"
      },
      "t_uint256": {
        "encoding": "inplace",
        "label": "uint256",
        "numberOfBytes": "32"
      }
    }
  }
}