{
  "address": "0xda6Da4CCb1EA9aD670A1380De84c5dD4aef87adf",
  "abi": [
    {
      "inputs": [],
      "stateMutability": "nonpayable",
      "type": "constructor"
    },
    {
      "inputs": [],
      "name": "AlreadyInitialized",
      "type": "error"
    },
    {
      "inputs": [],
      "name": "FailedDelegateCall",
      "type": "error"
    },
    {
      "inputs": [
        {
          "internalType": "address",
          "name": "implementation",
          "type": "address"
        }
      ],
      "name": "InvalidImplementation",
      "type": "error"
    },
    {
      "inputs": [],
      "name": "NotInitializing",
      "type": "error"
    },
    {
      "inputs": [],
      "name": "UUPSUnauthorizedCallContext",
      "type": "error"
    },
    {
      "inputs": [
        {
          "internalType": "bytes32",
          "name": "slot",
          "type": "bytes32"
        }
      ],
      "name": "UUPSUnsupportedProxiableUUID",
      "type": "error"
    },
    {
      "anonymous": false,
      "inputs": [
        {
          "indexed": false,
          "internalType": "uint64",
          "name": "version",
          "type": "uint64"
        }
      ],
      "name": "Initialized",
      "type": "event"
    },
    {
      "anonymous": false,
      "inputs": [
        {
          "indexed": true,
          "internalType": "uint256",
          "name": "_courtID",
          "type": "uint256"
        },
        {
          "indexed": false,
          "internalType": "string",
          "name": "_courtName",
          "type": "string"
        },
        {
          "indexed": false,
          "internalType": "string",
          "name": "_policy",
          "type": "string"
        }
      ],
      "name": "PolicyUpdate",
      "type": "event"
    },
    {
      "anonymous": false,
      "inputs": [
        {
          "indexed": true,
          "internalType": "address",
          "name": "newImplementation",
          "type": "address"
        }
      ],
      "name": "Upgraded",
      "type": "event"
    },
    {
      "inputs": [
        {
          "internalType": "address",
          "name": "_governor",
          "type": "address"
        }
      ],
      "name": "changeGovernor",
      "outputs": [],
      "stateMutability": "nonpayable",
      "type": "function"
    },
    {
      "inputs": [],
      "name": "governor",
      "outputs": [
        {
          "internalType": "address",
          "name": "",
          "type": "address"
        }
      ],
      "stateMutability": "view",
      "type": "function"
    },
    {
      "inputs": [
        {
          "internalType": "address",
          "name": "_governor",
          "type": "address"
        }
      ],
      "name": "initialize",
      "outputs": [],
      "stateMutability": "nonpayable",
      "type": "function"
    },
    {
      "inputs": [],
      "name": "initialize2",
      "outputs": [],
      "stateMutability": "nonpayable",
      "type": "function"
    },
    {
      "inputs": [
        {
          "internalType": "uint256",
          "name": "",
          "type": "uint256"
        }
      ],
      "name": "policies",
      "outputs": [
        {
          "internalType": "string",
          "name": "",
          "type": "string"
        }
      ],
      "stateMutability": "view",
      "type": "function"
    },
    {
      "inputs": [],
      "name": "proxiableUUID",
      "outputs": [
        {
          "internalType": "bytes32",
          "name": "",
          "type": "bytes32"
        }
      ],
      "stateMutability": "view",
      "type": "function"
    },
    {
      "inputs": [
        {
          "internalType": "uint256",
          "name": "_courtID",
          "type": "uint256"
        },
        {
          "internalType": "string",
          "name": "_courtName",
          "type": "string"
        },
        {
          "internalType": "string",
          "name": "_policy",
          "type": "string"
        }
      ],
      "name": "setPolicy",
      "outputs": [],
      "stateMutability": "nonpayable",
      "type": "function"
    },
    {
      "inputs": [
        {
          "internalType": "address",
          "name": "newImplementation",
          "type": "address"
        },
        {
          "internalType": "bytes",
          "name": "data",
          "type": "bytes"
        }
      ],
      "name": "upgradeToAndCall",
      "outputs": [],
      "stateMutability": "payable",
      "type": "function"
    },
    {
      "inputs": [],
      "name": "version",
      "outputs": [
        {
          "internalType": "string",
          "name": "",
          "type": "string"
        }
      ],
      "stateMutability": "view",
      "type": "function"
    }
  ],
  "transactionHash": "0x3dd223be8d1474c4936ad70c762f9eb31db332674f590bdac13dcf50df3ac755",
  "args": [],
  "numDeployments": 2,
  "solcInputHash": "acb39436d8539d1379a47e045a065e54",
  "bytecode": "0x60a06040523060805234801561001457600080fd5b5061001d610022565b6100d3565b7ff0c57e16840df040f15088dc2f81fe391c3923bec73e23a9662efc9c229c6a0e805468010000000000000000900460ff16156100715760405162dc149f60e41b815260040160405180910390fd5b80546001600160401b03908116146100d05780546001600160401b0319166001600160401b0390811782556040519081527fc7f505b2f371ae2175ee4913f4499e1f2633a7b5936321eed1cdaeb6115181d29060200160405180910390a15b50565b608051610cb66100fc6000396000818161029e015281816102c701526104c40152610cb66000f3fe6080604052600436106100765760003560e01c80630c340a241461007b578063472abf68146100b85780634f1ef286146100cf57806352d1902d146100e257806354fd4d5014610105578063bdf7378014610143578063c4d66de814610163578063d3e8948314610183578063e4c0aaf4146101a3575b600080fd5b34801561008757600080fd5b5060005461009b906001600160a01b031681565b6040516001600160a01b0390911681526020015b60405180910390f35b3480156100c457600080fd5b506100cd6101c3565b005b6100cd6100dd3660046107db565b61028a565b3480156100ee57600080fd5b506100f76104b7565b6040519081526020016100af565b34801561011157600080fd5b50610136604051806040016040528060058152602001640302e382e360dc1b81525081565b6040516100af91906108c0565b34801561014f57600080fd5b506100cd61015e36600461093b565b610515565b34801561016f57600080fd5b506100cd61017e3660046109b4565b6105ae565b34801561018f57600080fd5b5061013661019e3660046109d6565b610696565b3480156101af57600080fd5b506100cd6101be3660046109b4565b610730565b7ff0c57e16840df040f15088dc2f81fe391c3923bec73e23a9662efc9c229c6a0e805460029190600160401b900460ff168061020c575080546001600160401b03808416911610155b156102295760405162dc149f60e41b815260040160405180910390fd5b805468ffffffffffffffffff19166001600160401b038316908117600160401b1760ff60401b191682556040519081527fc7f505b2f371ae2175ee4913f4499e1f2633a7b5936321eed1cdaeb6115181d29060200160405180910390a15050565b6102938261077c565b306001600160a01b037f000000000000000000000000000000000000000000000000000000000000000016148061031157507f00000000000000000000000000000000000000000000000000000000000000006001600160a01b0316610305600080516020610c618339815191525490565b6001600160a01b031614155b1561032f5760405163703e46dd60e11b815260040160405180910390fd5b816001600160a01b03166352d1902d6040518163ffffffff1660e01b8152600401602060405180830381865afa925050508015610389575060408051601f3d908101601f19168201909252610386918101906109ef565b60015b6103b657604051630c76093760e01b81526001600160a01b03831660048201526024015b60405180910390fd5b600080516020610c6183398151915281146103e757604051632a87526960e21b8152600481018290526024016103ad565b600080516020610c618339815191528390556040516001600160a01b038416907fbc7cd75a20ee27fd9adebab32041f755214dbc6bffa90cc0225b39da2e5c2d3b90600090a28151156104b2576000836001600160a01b03168360405161044e9190610a08565b600060405180830381855af49150503d8060008114610489576040519150601f19603f3d011682016040523d82523d6000602084013e61048e565b606091505b50509050806104b0576040516339b21b5d60e11b815260040160405180910390fd5b505b505050565b6000306001600160a01b037f000000000000000000000000000000000000000000000000000000000000000016146105025760405163703e46dd60e11b815260040160405180910390fd5b50600080516020610c6183398151915290565b6000546001600160a01b0316331461053f5760405162461bcd60e51b81526004016103ad90610a24565b6000858152600160205260409020610558828483610ae1565b50847f61f7110245e82eddd3b134d1e1607420d4a4dcdab30f5abdbbc9c3485b5dd2a48585600160008a815260200190815260200160002060405161059f93929190610ba1565b60405180910390a25050505050565b7ff0c57e16840df040f15088dc2f81fe391c3923bec73e23a9662efc9c229c6a0e805460019190600160401b900460ff16806105f7575080546001600160401b03808416911610155b156106145760405162dc149f60e41b815260040160405180910390fd5b8054600160401b6001600160401b03841668ffffffffffffffffff199092168217178255600080546001600160a01b0319166001600160a01b038616179055815460ff60401b191682556040519081527fc7f505b2f371ae2175ee4913f4499e1f2633a7b5936321eed1cdaeb6115181d29060200160405180910390a1505050565b600160205260009081526040902080546106af90610a57565b80601f01602080910402602001604051908101604052809291908181526020018280546106db90610a57565b80156107285780601f106106fd57610100808354040283529160200191610728565b820191906000526020600020905b81548152906001019060200180831161070b57829003601f168201915b505050505081565b6000546001600160a01b0316331461075a5760405162461bcd60e51b81526004016103ad90610a24565b600080546001600160a01b0319166001600160a01b0392909216919091179055565b6000546001600160a01b031633146107a65760405162461bcd60e51b81526004016103ad90610a24565b50565b80356001600160a01b03811681146107c057600080fd5b919050565b634e487b7160e01b600052604160045260246000fd5b600080604083850312156107ee57600080fd5b6107f7836107a9565b915060208301356001600160401b038082111561081357600080fd5b818501915085601f83011261082757600080fd5b813581811115610839576108396107c5565b604051601f8201601f19908116603f01168101908382118183101715610861576108616107c5565b8160405282815288602084870101111561087a57600080fd5b8260208601602083013760006020848301015280955050505050509250929050565b60005b838110156108b757818101518382015260200161089f565b50506000910152565b60208152600082518060208401526108df81604085016020870161089c565b601f01601f19169190910160400192915050565b60008083601f84011261090557600080fd5b5081356001600160401b0381111561091c57600080fd5b60208301915083602082850101111561093457600080fd5b9250929050565b60008060008060006060868803121561095357600080fd5b8535945060208601356001600160401b038082111561097157600080fd5b61097d89838a016108f3565b9096509450604088013591508082111561099657600080fd5b506109a3888289016108f3565b969995985093965092949392505050565b6000602082840312156109c657600080fd5b6109cf826107a9565b9392505050565b6000602082840312156109e857600080fd5b5035919050565b600060208284031215610a0157600080fd5b5051919050565b60008251610a1a81846020870161089c565b9190910192915050565b6020808252601990820152784e6f20616c6c6f7765643a20676f7665726e6f72206f6e6c7960381b604082015260600190565b600181811c90821680610a6b57607f821691505b602082108103610a8b57634e487b7160e01b600052602260045260246000fd5b50919050565b601f8211156104b2576000816000526020600020601f850160051c81016020861015610aba5750805b601f850160051c820191505b81811015610ad957828155600101610ac6565b505050505050565b6001600160401b03831115610af857610af86107c5565b610b0c83610b068354610a57565b83610a91565b6000601f841160018114610b405760008515610b285750838201355b600019600387901b1c1916600186901b178355610b9a565b600083815260209020601f19861690835b82811015610b715786850135825560209485019460019092019101610b51565b5086821015610b8e5760001960f88860031b161c19848701351681555b505060018560011b0183555b5050505050565b60408152826040820152828460608301376000606084830101526000601f19601f85011682016020606084830301602085015260008554610be181610a57565b8060608601526080600180841660008114610c035760018114610c1f57610c4f565b60ff1985166080890152608084151560051b8901019550610c4f565b8a600052602060002060005b85811015610c465781548a8201860152908301908801610c2b565b89016080019650505b50939b9a505050505050505050505056fe360894a13ba1a3210667c828492db98dca3e2076cc3735a920a3ca505d382bbca2646970667358221220daf17c4b96da6ae73cf27c808d549557e5bcc5ff14feeae77520de70bd7269c864736f6c63430008180033",
  "devdoc": {
    "details": "A contract to maintain a policy for each court.",
    "errors": {
      "AlreadyInitialized()": [
        {
          "details": "The contract is already initialized."
        }
      ],
      "InvalidImplementation(address)": [
        {
          "details": "The `implementation` is not UUPS-compliant"
        }
      ],
      "NotInitializing()": [
        {
          "details": "The contract is not initializing."
        }
      ],
      "UUPSUnauthorizedCallContext()": [
        {
          "details": "The call is from an unauthorized context."
        }
      ],
      "UUPSUnsupportedProxiableUUID(bytes32)": [
        {
          "details": "The storage `slot` is unsupported as a UUID."
        }
      ]
    },
    "events": {
      "Initialized(uint64)": {
        "details": "Triggered when the contract has been initialized or reinitialized."
      },
      "PolicyUpdate(uint256,string,string)": {
        "details": "Emitted when a policy is updated.",
        "params": {
          "_courtID": "The ID of the policy's court.",
          "_courtName": "The name of the policy's court.",
          "_policy": "The URI of the policy JSON."
        }
      },
      "Upgraded(address)": {
        "details": "Emitted when the `implementation` has been successfully upgraded.",
        "params": {
          "newImplementation": "Address of the new implementation the proxy is now forwarding calls to."
        }
      }
    },
    "kind": "dev",
    "methods": {
      "changeGovernor(address)": {
        "details": "Changes the `governor` storage variable.",
        "params": {
          "_governor": "The new value for the `governor` storage variable."
        }
      },
      "constructor": {
        "custom:oz-upgrades-unsafe-allow": "constructor"
      },
      "initialize(address)": {
        "details": "Constructs the `PolicyRegistry` contract.",
        "params": {
          "_governor": "The governor's address."
        }
      },
      "proxiableUUID()": {
        "details": "Implementation of the ERC1822 `proxiableUUID` function. This returns the storage slot used by the implementation. It is used to validate the implementation's compatibility when performing an upgrade. IMPORTANT: A proxy pointing at a proxiable contract should not be considered proxiable itself, because this risks bricking a proxy that upgrades to it, by delegating to itself until out of gas. Thus it is critical that this function revert if invoked through a proxy. This is guaranteed by the if statement."
      },
      "setPolicy(uint256,string,string)": {
        "details": "Sets the policy for the specified court.",
        "params": {
          "_courtID": "The ID of the specified court.",
          "_courtName": "The name of the specified court.",
          "_policy": "The URI of the policy JSON."
        }
      },
      "upgradeToAndCall(address,bytes)": {
        "details": "Upgrade mechanism including access control and UUPS-compliance.Reverts if the execution is not performed via delegatecall or the execution context is not of a proxy with an ERC1967-compliant implementation pointing to self.",
        "params": {
          "data": "Data used in a delegate call to `newImplementation` if non-empty. This will typically be an encoded function call, and allows initializing the storage of the proxy like a Solidity constructor.",
          "newImplementation": "Address of the new implementation contract."
        }
      }
    },
    "stateVariables": {
      "version": {
        "details": "Returns the version of the implementation.",
        "return": "Version string.",
        "returns": {
          "_0": "Version string."
        }
      }
    },
    "title": "PolicyRegistry",
    "version": 1
  },
  "userdoc": {
    "errors": {
      "FailedDelegateCall()": [
        {
          "notice": "Failed Delegated call"
        }
      ]
    },
    "kind": "user",
    "methods": {},
    "version": 1
  },
  "storageLayout": {
    "storage": [
      {
        "astId": 13671,
        "contract": "src/arbitration/PolicyRegistry.sol:PolicyRegistry",
        "label": "governor",
        "offset": 0,
        "slot": "0",
        "type": "t_address"
      },
      {
        "astId": 13675,
        "contract": "src/arbitration/PolicyRegistry.sol:PolicyRegistry",
        "label": "policies",
        "offset": 0,
        "slot": "1",
        "type": "t_mapping(t_uint256,t_string_storage)"
      }
    ],
    "types": {
      "t_address": {
        "encoding": "inplace",
        "label": "address",
        "numberOfBytes": "20"
      },
      "t_mapping(t_uint256,t_string_storage)": {
        "encoding": "mapping",
        "key": "t_uint256",
        "label": "mapping(uint256 => string)",
        "numberOfBytes": "32",
        "value": "t_string_storage"
      },
      "t_string_storage": {
        "encoding": "bytes",
        "label": "string",
        "numberOfBytes": "32"
      },
      "t_uint256": {
        "encoding": "inplace",
        "label": "uint256",
        "numberOfBytes": "32"
      }
    }
  }
}