{
  "address": "0xBe984dc03B4A8d5135BCc07b46fdB867e02BA1F3",
  "abi": [
    {
      "inputs": [],
      "stateMutability": "nonpayable",
      "type": "constructor"
    },
    {
      "inputs": [],
      "name": "AlreadyInitialized",
      "type": "error"
    },
    {
      "inputs": [],
      "name": "FailedDelegateCall",
      "type": "error"
    },
    {
      "inputs": [
        {
          "internalType": "address",
          "name": "implementation",
          "type": "address"
        }
      ],
      "name": "InvalidImplementation",
      "type": "error"
    },
    {
      "inputs": [],
      "name": "NotInitializing",
      "type": "error"
    },
    {
      "inputs": [],
      "name": "UUPSUnauthorizedCallContext",
      "type": "error"
    },
    {
      "inputs": [
        {
          "internalType": "bytes32",
          "name": "slot",
          "type": "bytes32"
        }
      ],
      "name": "UUPSUnsupportedProxiableUUID",
      "type": "error"
    },
    {
      "anonymous": false,
      "inputs": [
        {
          "indexed": false,
          "internalType": "uint64",
          "name": "version",
          "type": "uint64"
        }
      ],
      "name": "Initialized",
      "type": "event"
    },
    {
      "anonymous": false,
      "inputs": [
        {
          "indexed": true,
          "internalType": "address",
          "name": "_account",
          "type": "address"
        },
        {
          "indexed": false,
          "internalType": "uint256",
          "name": "_amount",
          "type": "uint256"
        }
      ],
      "name": "LeftoverPNK",
      "type": "event"
    },
    {
      "anonymous": false,
      "inputs": [
        {
          "indexed": true,
          "internalType": "address",
          "name": "_account",
          "type": "address"
        },
        {
          "indexed": false,
          "internalType": "uint256",
          "name": "_amount",
          "type": "uint256"
        }
      ],
      "name": "LeftoverPNKWithdrawn",
      "type": "event"
    },
    {
      "anonymous": false,
      "inputs": [
        {
          "indexed": false,
          "internalType": "enum ISortitionModule.Phase",
          "name": "_phase",
          "type": "uint8"
        }
      ],
      "name": "NewPhase",
      "type": "event"
    },
    {
      "anonymous": false,
      "inputs": [
        {
          "indexed": true,
          "internalType": "address",
          "name": "_address",
          "type": "address"
        },
        {
          "indexed": true,
          "internalType": "uint96",
          "name": "_courtID",
          "type": "uint96"
        },
        {
          "indexed": false,
          "internalType": "uint256",
          "name": "_amount",
          "type": "uint256"
        }
      ],
      "name": "StakeDelayed",
      "type": "event"
    },
    {
      "anonymous": false,
      "inputs": [
        {
          "indexed": true,
          "internalType": "address",
          "name": "_address",
          "type": "address"
        },
        {
          "indexed": false,
          "internalType": "uint256",
          "name": "_relativeAmount",
          "type": "uint256"
        },
        {
          "indexed": false,
          "internalType": "bool",
          "name": "_unlock",
          "type": "bool"
        }
      ],
      "name": "StakeLocked",
      "type": "event"
    },
    {
      "anonymous": false,
      "inputs": [
        {
          "indexed": true,
          "internalType": "address",
          "name": "_address",
          "type": "address"
        },
        {
          "indexed": false,
          "internalType": "uint256",
          "name": "_courtID",
          "type": "uint256"
        },
        {
          "indexed": false,
          "internalType": "uint256",
          "name": "_amount",
          "type": "uint256"
        },
        {
          "indexed": false,
          "internalType": "uint256",
          "name": "_amountAllCourts",
          "type": "uint256"
        }
      ],
      "name": "StakeSet",
      "type": "event"
    },
    {
      "anonymous": false,
      "inputs": [
        {
          "indexed": true,
          "internalType": "address",
          "name": "newImplementation",
          "type": "address"
        }
      ],
      "name": "Upgraded",
      "type": "event"
    },
    {
      "inputs": [
        {
          "internalType": "address",
          "name": "_governor",
          "type": "address"
        }
      ],
      "name": "changeGovernor",
      "outputs": [],
      "stateMutability": "nonpayable",
      "type": "function"
    },
    {
      "inputs": [
        {
          "internalType": "uint256",
          "name": "_maxDrawingTime",
          "type": "uint256"
        }
      ],
      "name": "changeMaxDrawingTime",
      "outputs": [],
      "stateMutability": "nonpayable",
      "type": "function"
    },
    {
      "inputs": [
        {
          "internalType": "uint256",
          "name": "_minStakingTime",
          "type": "uint256"
        }
      ],
      "name": "changeMinStakingTime",
      "outputs": [],
      "stateMutability": "nonpayable",
      "type": "function"
    },
    {
      "inputs": [
        {
          "internalType": "contract RNG",
          "name": "_rng",
          "type": "address"
        },
        {
          "internalType": "uint256",
          "name": "_rngLookahead",
          "type": "uint256"
        }
      ],
      "name": "changeRandomNumberGenerator",
      "outputs": [],
      "stateMutability": "nonpayable",
      "type": "function"
    },
    {
      "inputs": [],
      "name": "core",
      "outputs": [
        {
          "internalType": "contract KlerosCore",
          "name": "",
          "type": "address"
        }
      ],
      "stateMutability": "view",
      "type": "function"
    },
    {
      "inputs": [
        {
          "internalType": "uint256",
          "name": "",
          "type": "uint256"
        },
        {
          "internalType": "uint256",
          "name": "",
          "type": "uint256"
        }
      ],
      "name": "createDisputeHook",
      "outputs": [],
      "stateMutability": "nonpayable",
      "type": "function"
    },
    {
      "inputs": [
        {
          "internalType": "bytes32",
          "name": "_key",
          "type": "bytes32"
        },
        {
          "internalType": "bytes",
          "name": "_extraData",
          "type": "bytes"
        }
      ],
      "name": "createTree",
      "outputs": [],
      "stateMutability": "nonpayable",
      "type": "function"
    },
    {
      "inputs": [],
      "name": "delayedStakeReadIndex",
      "outputs": [
        {
          "internalType": "uint256",
          "name": "",
          "type": "uint256"
        }
      ],
      "stateMutability": "view",
      "type": "function"
    },
    {
      "inputs": [],
      "name": "delayedStakeWriteIndex",
      "outputs": [
        {
          "internalType": "uint256",
          "name": "",
          "type": "uint256"
        }
      ],
      "stateMutability": "view",
      "type": "function"
    },
    {
      "inputs": [
        {
          "internalType": "uint256",
          "name": "",
          "type": "uint256"
        }
      ],
      "name": "delayedStakes",
      "outputs": [
        {
          "internalType": "address",
          "name": "account",
          "type": "address"
        },
        {
          "internalType": "uint96",
          "name": "courtID",
          "type": "uint96"
        },
        {
          "internalType": "uint256",
          "name": "stake",
          "type": "uint256"
        },
        {
          "internalType": "bool",
          "name": "alreadyTransferred",
          "type": "bool"
        }
      ],
      "stateMutability": "view",
      "type": "function"
    },
    {
      "inputs": [],
      "name": "disputesWithoutJurors",
      "outputs": [
        {
          "internalType": "uint256",
          "name": "",
          "type": "uint256"
        }
      ],
      "stateMutability": "view",
      "type": "function"
    },
    {
      "inputs": [
        {
          "internalType": "bytes32",
          "name": "_key",
          "type": "bytes32"
        },
        {
          "internalType": "uint256",
          "name": "_coreDisputeID",
          "type": "uint256"
        },
        {
          "internalType": "uint256",
          "name": "_nonce",
          "type": "uint256"
        }
      ],
      "name": "draw",
      "outputs": [
        {
          "internalType": "address",
          "name": "drawnAddress",
          "type": "address"
        }
      ],
      "stateMutability": "view",
      "type": "function"
    },
    {
      "inputs": [
        {
          "internalType": "uint256",
          "name": "_iterations",
          "type": "uint256"
        }
      ],
      "name": "executeDelayedStakes",
      "outputs": [],
      "stateMutability": "nonpayable",
      "type": "function"
    },
    {
      "inputs": [
        {
          "internalType": "address",
          "name": "_juror",
          "type": "address"
        },
        {
          "internalType": "uint96",
          "name": "_courtID",
          "type": "uint96"
        }
      ],
      "name": "getJurorBalance",
      "outputs": [
        {
          "internalType": "uint256",
          "name": "totalStaked",
          "type": "uint256"
        },
        {
          "internalType": "uint256",
          "name": "totalLocked",
          "type": "uint256"
        },
        {
          "internalType": "uint256",
          "name": "stakedInCourt",
          "type": "uint256"
        },
        {
          "internalType": "uint256",
          "name": "nbCourts",
          "type": "uint256"
        }
      ],
      "stateMutability": "view",
      "type": "function"
    },
    {
      "inputs": [
        {
          "internalType": "address",
          "name": "_juror",
          "type": "address"
        }
      ],
      "name": "getJurorCourtIDs",
      "outputs": [
        {
          "internalType": "uint96[]",
          "name": "",
          "type": "uint96[]"
        }
      ],
      "stateMutability": "view",
      "type": "function"
    },
    {
      "inputs": [
        {
          "internalType": "address",
          "name": "_juror",
          "type": "address"
        }
      ],
      "name": "getJurorLeftoverPNK",
      "outputs": [
        {
          "internalType": "uint256",
          "name": "",
          "type": "uint256"
        }
      ],
      "stateMutability": "view",
      "type": "function"
    },
    {
      "inputs": [],
      "name": "governor",
      "outputs": [
        {
          "internalType": "address",
          "name": "",
          "type": "address"
        }
      ],
      "stateMutability": "view",
      "type": "function"
    },
    {
      "inputs": [
        {
          "internalType": "address",
          "name": "_governor",
          "type": "address"
        },
        {
          "internalType": "contract KlerosCore",
          "name": "_core",
          "type": "address"
        },
        {
          "internalType": "uint256",
          "name": "_minStakingTime",
          "type": "uint256"
        },
        {
          "internalType": "uint256",
          "name": "_maxDrawingTime",
          "type": "uint256"
        },
        {
          "internalType": "contract RNG",
          "name": "_rng",
          "type": "address"
        },
        {
          "internalType": "uint256",
          "name": "_rngLookahead",
          "type": "uint256"
        }
      ],
      "name": "initialize",
      "outputs": [],
      "stateMutability": "nonpayable",
      "type": "function"
    },
    {
      "inputs": [],
      "name": "initialize3",
      "outputs": [],
      "stateMutability": "nonpayable",
      "type": "function"
    },
    {
      "inputs": [
        {
          "internalType": "address",
          "name": "_juror",
          "type": "address"
        }
      ],
      "name": "isJurorStaked",
      "outputs": [
        {
          "internalType": "bool",
          "name": "",
          "type": "bool"
        }
      ],
      "stateMutability": "view",
      "type": "function"
    },
    {
      "inputs": [
        {
          "internalType": "address",
          "name": "account",
          "type": "address"
        }
      ],
      "name": "jurors",
      "outputs": [
        {
          "internalType": "uint256",
          "name": "stakedPnk",
          "type": "uint256"
        },
        {
          "internalType": "uint256",
          "name": "lockedPnk",
          "type": "uint256"
        }
      ],
      "stateMutability": "view",
      "type": "function"
    },
    {
      "inputs": [],
      "name": "lastPhaseChange",
      "outputs": [
        {
          "internalType": "uint256",
          "name": "",
          "type": "uint256"
        }
      ],
      "stateMutability": "view",
      "type": "function"
    },
    {
      "inputs": [
        {
          "internalType": "address",
          "name": "jurorAccount",
          "type": "address"
        },
        {
          "internalType": "uint96",
          "name": "courtId",
          "type": "uint96"
        }
      ],
      "name": "latestDelayedStakeIndex",
      "outputs": [
        {
          "internalType": "uint256",
          "name": "",
          "type": "uint256"
        }
      ],
      "stateMutability": "view",
      "type": "function"
    },
    {
      "inputs": [
        {
          "internalType": "address",
          "name": "_account",
          "type": "address"
        },
        {
          "internalType": "uint256",
          "name": "_relativeAmount",
          "type": "uint256"
        }
      ],
      "name": "lockStake",
      "outputs": [],
      "stateMutability": "nonpayable",
      "type": "function"
    },
    {
      "inputs": [],
      "name": "maxDrawingTime",
      "outputs": [
        {
          "internalType": "uint256",
          "name": "",
          "type": "uint256"
        }
      ],
      "stateMutability": "view",
      "type": "function"
    },
    {
      "inputs": [],
      "name": "minStakingTime",
      "outputs": [
        {
          "internalType": "uint256",
          "name": "",
          "type": "uint256"
        }
      ],
      "stateMutability": "view",
      "type": "function"
    },
    {
      "inputs": [
        {
          "internalType": "uint256",
          "name": "_randomNumber",
          "type": "uint256"
        }
      ],
      "name": "notifyRandomNumber",
      "outputs": [],
      "stateMutability": "nonpayable",
      "type": "function"
    },
    {
      "inputs": [],
      "name": "passPhase",
      "outputs": [],
      "stateMutability": "nonpayable",
      "type": "function"
    },
    {
      "inputs": [
        {
          "internalType": "address",
          "name": "_account",
          "type": "address"
        },
        {
          "internalType": "uint256",
          "name": "_relativeAmount",
          "type": "uint256"
        }
      ],
      "name": "penalizeStake",
      "outputs": [
        {
          "internalType": "uint256",
          "name": "pnkBalance",
          "type": "uint256"
        },
        {
          "internalType": "uint256",
          "name": "availablePenalty",
          "type": "uint256"
        }
      ],
      "stateMutability": "nonpayable",
      "type": "function"
    },
    {
      "inputs": [],
      "name": "phase",
      "outputs": [
        {
          "internalType": "enum ISortitionModule.Phase",
          "name": "",
          "type": "uint8"
        }
      ],
      "stateMutability": "view",
      "type": "function"
    },
    {
      "inputs": [
        {
          "internalType": "uint256",
          "name": "",
          "type": "uint256"
        },
        {
          "internalType": "uint256",
          "name": "",
          "type": "uint256"
        }
      ],
      "name": "postDrawHook",
      "outputs": [],
      "stateMutability": "nonpayable",
      "type": "function"
    },
    {
      "inputs": [],
      "name": "proxiableUUID",
      "outputs": [
        {
          "internalType": "bytes32",
          "name": "",
          "type": "bytes32"
        }
      ],
      "stateMutability": "view",
      "type": "function"
    },
    {
      "inputs": [],
      "name": "randomNumber",
      "outputs": [
        {
          "internalType": "uint256",
          "name": "",
          "type": "uint256"
        }
      ],
      "stateMutability": "view",
      "type": "function"
    },
    {
      "inputs": [],
      "name": "randomNumberRequestBlock",
      "outputs": [
        {
          "internalType": "uint256",
          "name": "",
          "type": "uint256"
        }
      ],
      "stateMutability": "view",
      "type": "function"
    },
    {
      "inputs": [],
      "name": "rng",
      "outputs": [
        {
          "internalType": "contract RNG",
          "name": "",
          "type": "address"
        }
      ],
      "stateMutability": "view",
      "type": "function"
    },
    {
      "inputs": [],
      "name": "rngLookahead",
      "outputs": [
        {
          "internalType": "uint256",
          "name": "",
          "type": "uint256"
        }
      ],
      "stateMutability": "view",
      "type": "function"
    },
    {
      "inputs": [
        {
          "internalType": "address",
          "name": "_account",
          "type": "address"
        }
      ],
      "name": "setJurorInactive",
      "outputs": [],
      "stateMutability": "nonpayable",
      "type": "function"
    },
    {
      "inputs": [
        {
          "internalType": "address",
          "name": "_account",
          "type": "address"
        },
        {
          "internalType": "uint96",
          "name": "_courtID",
          "type": "uint96"
        },
        {
          "internalType": "uint256",
          "name": "_pnkDeposit",
          "type": "uint256"
        },
        {
          "internalType": "uint256",
          "name": "_pnkWithdrawal",
          "type": "uint256"
        },
        {
          "internalType": "uint256",
          "name": "_newStake",
          "type": "uint256"
        }
      ],
      "name": "setStake",
      "outputs": [],
      "stateMutability": "nonpayable",
      "type": "function"
    },
    {
      "inputs": [
        {
          "internalType": "bytes32",
          "name": "_key",
          "type": "bytes32"
        },
        {
          "internalType": "bytes32",
          "name": "_ID",
          "type": "bytes32"
        }
      ],
      "name": "stakeOf",
      "outputs": [
        {
          "internalType": "uint256",
          "name": "",
          "type": "uint256"
        }
      ],
      "stateMutability": "view",
      "type": "function"
    },
    {
      "inputs": [
        {
          "internalType": "address",
          "name": "_juror",
          "type": "address"
        },
        {
          "internalType": "uint96",
          "name": "_courtID",
          "type": "uint96"
        }
      ],
      "name": "stakeOf",
      "outputs": [
        {
          "internalType": "uint256",
          "name": "",
          "type": "uint256"
        }
      ],
      "stateMutability": "view",
      "type": "function"
    },
    {
      "inputs": [
        {
          "internalType": "address",
          "name": "_account",
          "type": "address"
        },
        {
          "internalType": "uint256",
          "name": "_relativeAmount",
          "type": "uint256"
        }
      ],
      "name": "unlockStake",
      "outputs": [],
      "stateMutability": "nonpayable",
      "type": "function"
    },
    {
      "inputs": [
        {
          "internalType": "address",
          "name": "newImplementation",
          "type": "address"
        },
        {
          "internalType": "bytes",
          "name": "data",
          "type": "bytes"
        }
      ],
      "name": "upgradeToAndCall",
      "outputs": [],
      "stateMutability": "payable",
      "type": "function"
    },
    {
      "inputs": [
        {
          "internalType": "address",
          "name": "_account",
          "type": "address"
        },
        {
          "internalType": "uint96",
          "name": "_courtID",
          "type": "uint96"
        },
        {
          "internalType": "uint256",
          "name": "_newStake",
          "type": "uint256"
        }
      ],
      "name": "validateStake",
      "outputs": [
        {
          "internalType": "uint256",
          "name": "pnkDeposit",
          "type": "uint256"
        },
        {
          "internalType": "uint256",
          "name": "pnkWithdrawal",
          "type": "uint256"
        },
        {
          "internalType": "enum StakingResult",
          "name": "stakingResult",
          "type": "uint8"
        }
      ],
      "stateMutability": "nonpayable",
      "type": "function"
    },
    {
      "inputs": [],
      "name": "version",
      "outputs": [
        {
          "internalType": "string",
          "name": "",
          "type": "string"
        }
      ],
      "stateMutability": "view",
      "type": "function"
    },
    {
      "inputs": [
        {
          "internalType": "address",
          "name": "_account",
          "type": "address"
        }
      ],
      "name": "withdrawLeftoverPNK",
      "outputs": [],
      "stateMutability": "nonpayable",
      "type": "function"
    }
  ],
  "transactionHash": "0xec36c08f8c19a0f723fa02a6d7655a227db820ea82db497b13c2e523ed21d4d4",
  "args": [],
  "numDeployments": 1,
  "solcInputHash": "3f11dda26fe559c44d21b324a34af1b7",
  "bytecode": "0x60a06040523060805234801561001457600080fd5b5061001d610022565b6100d3565b7ff0c57e16840df040f15088dc2f81fe391c3923bec73e23a9662efc9c229c6a0e805468010000000000000000900460ff16156100715760405162dc149f60e41b815260040160405180910390fd5b80546001600160401b03908116146100d05780546001600160401b0319166001600160401b0390811782556040519081527fc7f505b2f371ae2175ee4913f4499e1f2633a7b5936321eed1cdaeb6115181d29060200160405180910390a15b50565b608051612f3f6100fc60003960008181611389015281816113b201526115aa0152612f3f6000f3fe6080604052600436106102725760003560e01c80637dc38f141161014f578063ccbac9f5116100c1578063e4c0aaf41161007a578063e4c0aaf4146107c4578063e534710d146107e4578063ec918b651461081c578063f216de4c14610831578063f2f4eb2614610851578063f6b4d82d1461087157600080fd5b8063ccbac9f5146106c2578063d09f392d146106d8578063d1c1df48146106f8578063d605787b14610738578063dca5f6b014610758578063dd5e5cb5146107a457600080fd5b8063aac03ad211610113578063aac03ad214610612578063b1c9fe6e14610632578063b5d69e9914610660578063b888adfa14610680578063c057eca714610696578063c1572618146106ac57600080fd5b80637dc38f141461057c578063823cfd7014610592578063965af6c7146105b25780639fbb56f1146105d2578063a2473cc1146105f257600080fd5b80634dbbebbc116101e857806354fd4d50116101ac57806354fd4d501461047d57806356acb050146104bb5780635d2d7846146104d15780636624192f146104f157806369f458771461053c57806376fa9fc51461055c57600080fd5b80634dbbebbc146103e85780634f1ef2861461040857806352d1902d1461041b578063543f8a361461043057806354812d171461045d57600080fd5b80631ecacab81161023a5780631ecacab81461031b57806321e1625e1461034a57806321ea9b3f1461036a57806335975f4a14610388578063477a655c146103a85780634c70a0d6146103c857600080fd5b806303432744146102775780630b274f2e146102a05780630c340a24146102b75780630e083ec9146102ef5780631b92bbbe14610305575b600080fd5b34801561028357600080fd5b5061028d60065481565b6040519081526020015b60405180910390f35b3480156102ac57600080fd5b506102b56108ff565b005b3480156102c357600080fd5b506000546102d7906001600160a01b031681565b6040516001600160a01b039091168152602001610297565b3480156102fb57600080fd5b5061028d600a5481565b34801561031157600080fd5b5061028d60035481565b34801561032757600080fd5b5061033b610336366004612896565b610cd7565b604051610297939291906128ed565b34801561035657600080fd5b506102b5610365366004612919565b610d22565b34801561037657600080fd5b506102b5610385366004612945565b50565b34801561039457600080fd5b506102b56103a3366004612945565b610dc5565b3480156103b457600080fd5b506102b56103c3366004612a01565b610fb1565b3480156103d457600080fd5b506102d76103e3366004612a47565b6110a8565b3480156103f457600080fd5b506102b5610403366004612919565b61128c565b6102b5610416366004612a73565b611375565b34801561042757600080fd5b5061028d61159d565b34801561043c57600080fd5b5061045061044b366004612aac565b6115fb565b6040516102979190612ac9565b34801561046957600080fd5b506102b5610478366004612b15565b611699565b34801561048957600080fd5b506104ae604051806040016040528060058152602001640302e382e360dc1b81525081565b6040516102979190612ba0565b3480156104c757600080fd5b5061028d600b5481565b3480156104dd57600080fd5b506102b56104ec366004612bd3565b611769565b3480156104fd57600080fd5b5061052c61050c366004612aac565b6001600160a01b03166000908152600d6020526040902060010154151590565b6040519015158152602001610297565b34801561054857600080fd5b506102b5610557366004612aac565b6117ac565b34801561056857600080fd5b5061028d610577366004612bd3565b6118c3565b34801561058857600080fd5b5061028d60095481565b34801561059e57600080fd5b506102b56105ad366004612945565b61191e565b3480156105be57600080fd5b506102b56105cd366004612919565b61194d565b3480156105de57600080fd5b5061028d6105ed366004612aac565b611a49565b3480156105fe57600080fd5b5061028d61060d366004612bf5565b611a8a565b34801561061e57600080fd5b506102b561062d366004612c2e565b611ab4565b34801561063e57600080fd5b5060015461065390600160a01b900460ff1681565b6040516102979190612c7f565b34801561066c57600080fd5b506102b561067b366004612aac565b611af2565b34801561068c57600080fd5b5061028d60045481565b3480156106a257600080fd5b5061028d60025481565b3480156106b857600080fd5b5061028d60055481565b3480156106ce57600080fd5b5061028d60085481565b3480156106e457600080fd5b506102b56106f3366004612bd3565b611bd2565b34801561070457600080fd5b50610718610713366004612bf5565b611c0c565b604080519485526020850193909352918301526060820152608001610297565b34801561074457600080fd5b506007546102d7906001600160a01b031681565b34801561076457600080fd5b5061078f610773366004612aac565b600d602052600090815260409020600181015460029091015482565b60408051928352602083019190915201610297565b3480156107b057600080fd5b506102b56107bf366004612945565b611c4b565b3480156107d057600080fd5b506102b56107df366004612aac565b611c7a565b3480156107f057600080fd5b5061028d6107ff366004612bf5565b600f60209081526000928352604080842090915290825290205481565b34801561082857600080fd5b506102b5611cc6565b34801561083d57600080fd5b5061078f61084c366004612919565b611d77565b34801561085d57600080fd5b506001546102d7906001600160a01b031681565b34801561087d57600080fd5b506108cb61088c366004612945565b600e602052600090815260409020805460018201546002909201546001600160a01b03821692600160a01b9092046001600160601b0316919060ff1684565b604080516001600160a01b0390951685526001600160601b0390931660208501529183015215156060820152608001610297565b6000600154600160a01b900460ff16600281111561091f5761091f6128d7565b03610a92576002546004546109349042612caf565b101561099c5760405162461bcd60e51b815260206004820152602c60248201527f546865206d696e696d756d207374616b696e672074696d6520686173206e6f7460448201526b103830b9b9b2b2103cb2ba1760a11b60648201526084015b60405180910390fd5b6000600654116109fe5760405162461bcd60e51b815260206004820152602760248201527f546865726520617265206e6f2064697370757465732074686174206e65656420604482015266353ab937b9399760c91b6064820152608401610993565b6007546009546001600160a01b0390911690637363ae1f90610a209043612cc2565b6040518263ffffffff1660e01b8152600401610a3e91815260200190565b600060405180830381600087803b158015610a5857600080fd5b505af1158015610a6c573d6000803e3d6000fd5b505043600555505060018054819060ff60a01b1916600160a01b825b0217905550610c8c565b60018054600160a01b900460ff166002811115610ab157610ab16128d7565b03610ba9576007546009546005546001600160a01b03909216916313cf905491610ada91612cc2565b6040518263ffffffff1660e01b8152600401610af891815260200190565b6020604051808303816000875af1158015610b17573d6000803e3d6000fd5b505050506040513d601f19601f82011682018060405250810190610b3b9190612cd5565b6008819055600003610b8f5760405162461bcd60e51b815260206004820152601e60248201527f52616e646f6d206e756d626572206973206e6f742072656164792079657400006044820152606401610993565b600180546002919060ff60a01b1916600160a01b83610a88565b6002600154600160a01b900460ff166002811115610bc957610bc96128d7565b03610c8c576006541580610beb5750600354600454610be89042612caf565b10155b610c7e5760405162461bcd60e51b815260206004820152605860248201527f546865726520617265207374696c6c20646973707574657320776974686f757460448201527f206a75726f727320616e6420746865206d6178696d756d2064726177696e67206064820152773a34b6b2903430b9903737ba103830b9b9b2b2103cb2ba1760411b608482015260a401610993565b6001805460ff60a01b191690555b426004556001546040517f31f72b44f546d9e7eaec13f65636997665e15f134a81c82924f568f5c0d07b9391610ccd91600160a01b90910460ff1690612c7f565b60405180910390a1565b600154600090819081906001600160a01b03163314610d085760405162461bcd60e51b815260040161099390612cee565b610d13868686611e05565b91989097509095509350505050565b6001546001600160a01b03163314610d4c5760405162461bcd60e51b815260040161099390612cee565b6001600160a01b0382166000908152600d602052604081206002018054839290610d77908490612cc2565b909155505060408051828152600060208201526001600160a01b038416917f7a81a4ef419d50dbb5deb116fb983bf6ca7716bcbc84cd1cd2be81ccea9078b091015b60405180910390a25050565b6000600154600160a01b900460ff166002811115610de557610de56128d7565b14610e325760405162461bcd60e51b815260206004820152601b60248201527f53686f756c6420626520696e205374616b696e672070686173652e00000000006044820152606401610993565b600b54600a541015610e865760405162461bcd60e51b815260206004820152601c60248201527f4e6f2064656c61796564207374616b6520746f20657865637574652e000000006044820152606401610993565b6000600a54600183600b54610e9b9190612cc2565b610ea59190612caf565b11610eb05781610ecb565b600b54600a54610ec09190612caf565b610ecb906001612cc2565b9050600081600b54610edd9190612cc2565b600b549091505b81811015610fa9576000818152600e602052604090819020600180548254918301549351630761c14d60e01b815292936001600160a01b0391821693630761c14d93610f4793811692600160a01b9091046001600160601b031691600401612d32565b600060405180830381600087803b158015610f6157600080fd5b505af1158015610f75573d6000803e3d6000fd5b5050506000838152600e60205260408120818155600180820192909255600201805460ff191690559092019150610ee49050565b50600b555050565b6001546001600160a01b03163314610fdb5760405162461bcd60e51b815260040161099390612cee565b6000828152600c6020526040812090610ff383611fa8565b82549091501561103c5760405162461bcd60e51b81526020600482015260146024820152732a3932b29030b63932b0b23c9032bc34b9ba399760611b6044820152606401610993565b6001811161108c5760405162461bcd60e51b815260206004820152601b60248201527f4b206d7573742062652067726561746572207468616e206f6e652e00000000006044820152606401610993565b8155600201805460018101825560009182526020822001555050565b60006002600154600160a01b900460ff1660028111156110ca576110ca6128d7565b146111065760405162461bcd60e51b815260206004820152600c60248201526b2bb937b73390383430b9b29760a11b6044820152606401610993565b6000848152600c602052604081206002810180549192909161112a5761112a612d5c565b9060005260206000200154600003611146576000915050611285565b60008160020160008154811061115e5761115e612d5c565b90600052602060002001546008548686604051602001611191939291909283526020830191909152604082015260600190565b6040516020818303038152906040528051906020012060001c6111b49190612d88565b905060005b600283015483546111cb908390612d9c565b6111d6906001612cc2565b10156112655760015b8354811161125f576000818386600001546111fa9190612d9c565b6112049190612cc2565b9050600085600201828154811061121d5761121d612d5c565b906000526020600020015490508085106112425761123b8186612caf565b945061124a565b50915061125f565b5050808061125790612db3565b9150506111df565b506111b9565b600081815260048401602052604090205461127f90611fc4565b93505050505b9392505050565b6000546001600160a01b031633146112b65760405162461bcd60e51b815260040161099390612dcc565b600780546001600160a01b0319166001600160a01b038416179055600981905560018054600160a01b900460ff1660028111156112f5576112f56128d7565b03611371576007546009546001600160a01b0390911690637363ae1f9061131c9043612cc2565b6040518263ffffffff1660e01b815260040161133a91815260200190565b600060405180830381600087803b15801561135457600080fd5b505af1158015611368573d6000803e3d6000fd5b50504360055550505b5050565b61137e82611fef565b306001600160a01b037f00000000000000000000000000000000000000000000000000000000000000001614806113fc57507f00000000000000000000000000000000000000000000000000000000000000006001600160a01b03166113f0600080516020612eea8339815191525490565b6001600160a01b031614155b1561141a5760405163703e46dd60e11b815260040160405180910390fd5b816001600160a01b03166352d1902d6040518163ffffffff1660e01b8152600401602060405180830381865afa925050508015611474575060408051601f3d908101601f1916820190925261147191810190612cd5565b60015b61149c57604051630c76093760e01b81526001600160a01b0383166004820152602401610993565b600080516020612eea83398151915281146114cd57604051632a87526960e21b815260048101829052602401610993565b600080516020612eea8339815191528390556040516001600160a01b038416907fbc7cd75a20ee27fd9adebab32041f755214dbc6bffa90cc0225b39da2e5c2d3b90600090a2815115611598576000836001600160a01b0316836040516115349190612e0e565b600060405180830381855af49150503d806000811461156f576040519150601f19603f3d011682016040523d82523d6000602084013e611574565b606091505b5050905080611596576040516339b21b5d60e11b815260040160405180910390fd5b505b505050565b6000306001600160a01b037f000000000000000000000000000000000000000000000000000000000000000016146115e85760405163703e46dd60e11b815260040160405180910390fd5b50600080516020612eea83398151915290565b6001600160a01b0381166000908152600d602090815260409182902080548351818402810184019094528084526060939283018282801561168d57602002820191906000526020600020906000905b82829054906101000a90046001600160601b03166001600160601b0316815260200190600c0190602082600b0104928301926001038202915080841161164a5790505b50505050509050919050565b600160006116a5612019565b8054909150600160401b900460ff16806116cc575080546001600160401b03808416911610155b156116e95760405162dc149f60e41b815260040160405180910390fd5b805468ffffffffffffffffff19166001600160401b03831617600160401b17815561171888888888888861203d565b805460ff60401b191681556040516001600160401b03831681527fc7f505b2f371ae2175ee4913f4499e1f2633a7b5936321eed1cdaeb6115181d29060200160405180910390a15050505050505050565b6001546001600160a01b031633146117935760405162461bcd60e51b815260040161099390612cee565b600680549060006117a383612e2a565b91905055505050565b60006117b782611a49565b9050600081116118095760405162461bcd60e51b815260206004820152601c60248201527f4e6f7420656c696769626c6520666f72207769746864726177616c2e000000006044820152606401610993565b6001600160a01b038281166000818152600d6020526040808220600190810192909255905490516342c37fa360e01b8152600481019290925260248201849052909116906342c37fa390604401600060405180830381600087803b15801561187057600080fd5b505af1158015611884573d6000803e3d6000fd5b50505050816001600160a01b03167f71bb1b604559acc3db697ccf2aa4228d727cd5b133d6ffa419518d51c117c95c82604051610db991815260200190565b6000828152600c60209081526040808320848452600381019092528220548083036118f357600092505050611918565b81600201818154811061190857611908612d5c565b9060005260206000200154925050505b92915050565b6000546001600160a01b031633146119485760405162461bcd60e51b815260040161099390612dcc565b600255565b6001546001600160a01b031633146119775760405162461bcd60e51b815260040161099390612cee565b6001600160a01b0382166000908152600d60205260408120600281018054919284926119a4908490612caf565b909155505060408051838152600160208201526001600160a01b038516917f7a81a4ef419d50dbb5deb116fb983bf6ca7716bcbc84cd1cd2be81ccea9078b0910160405180910390a260006119f884611a49565b9050801561159657836001600160a01b03167f819a3744490c627e221b71743857691f9c23bf56a1ecc5351f886cfd4c3187d982604051611a3b91815260200190565b60405180910390a250505050565b6001600160a01b0381166000908152600d602052604081208054158015611a7257506002810154155b15611a81576001015492915050565b50600092915050565b600080611a97848461209d565b9050611aac6001600160601b038416826118c3565b949350505050565b6001546001600160a01b03163314611ade5760405162461bcd60e51b815260040161099390612cee565b611aeb85858585856120e5565b5050505050565b6001546001600160a01b03163314611b1c5760405162461bcd60e51b815260040161099390612cee565b6000611b27826115fb565b80519091505b801561159857600180546001600160a01b031690630761c14d9085908590611b559086612caf565b81518110611b6557611b65612d5c565b602002602001015160006040518463ffffffff1660e01b8152600401611b8d93929190612d32565b600060405180830381600087803b158015611ba757600080fd5b505af1158015611bbb573d6000803e3d6000fd5b505050508080611bca90612e2a565b915050611b2d565b6001546001600160a01b03163314611bfc5760405162461bcd60e51b815260040161099390612cee565b600680549060006117a383612db3565b6001600160a01b0382166000908152600d6020526040812060018101546002820154909290918190611c3e8787611a8a565b9054949793965094505050565b6000546001600160a01b03163314611c755760405162461bcd60e51b815260040161099390612dcc565b600355565b6000546001600160a01b03163314611ca45760405162461bcd60e51b815260040161099390612dcc565b600080546001600160a01b0319166001600160a01b0392909216919091179055565b60036000611cd2612019565b8054909150600160401b900460ff1680611cf9575080546001600160401b03808416911610155b15611d165760405162dc149f60e41b815260040160405180910390fd5b805468ffffffffffffffffff19166001600160401b038316908117600160401b1760ff60401b191682556040519081527fc7f505b2f371ae2175ee4913f4499e1f2633a7b5936321eed1cdaeb6115181d29060200160405180910390a15050565b60015460009081906001600160a01b03163314611da65760405162461bcd60e51b815260040161099390612cee565b6001600160a01b0384166000908152600d602052604090206001810154848110611dec5784925084826001016000828254611de19190612caf565b90915550611df79050565b600060018301559150815b506001015491509250929050565b6001600160a01b0383166000908152600d602052604081208190819081611e2c8888611a8a565b825490915081158015611e40575060048110155b15611e58576000806004955095509550505050611f9f565b81158015611e64575086155b15611e7c576000806009955095509550505050611f9f565b6000600154600160a01b900460ff166002811115611e9c57611e9c6128d7565b14611f37576000600e6000600a60008154611eb690612db3565b9182905550815260208082019290925260409081016000206001600160601b038c16600160a01b81026001600160a01b038f169081178355600183018d905592518c8152919450927fa59837f9df3fb816613d84e8fefe31ec8d6e67ff43df6533e3f793a3f53aade9910160405180910390a35060019350611f9f92505050565b818710611f4f57611f488288612caf565b9550611f97565b611f598783612caf565b945060008360020154846001015411611f73576000611f87565b83600201548460010154611f879190612caf565b905080861115611f95578095505b505b506000925050505b93509350939050565b60006020825110611fbb57506020015190565b5060065b919050565b600060405160005b6014811015611fe75783811a81600c84010153600101611fcc565b505192915050565b6000546001600160a01b031633146103855760405162461bcd60e51b815260040161099390612dcc565b7ff0c57e16840df040f15088dc2f81fe391c3923bec73e23a9662efc9c229c6a0e90565b61204561241b565b600080546001600160a01b03199081166001600160a01b039889161790915560018054821696881696909617865560029490945560039290925542600455600780549093169416939093179055600991909155600b55565b600060405160005b60148110156120c0578481600c011a818301536001016120a5565b5060145b60208110156120dc5783811a818301536001016120c4565b50519392505050565b6001600160a01b0385166000908152600d60205260409020831561217457600061210f8787611a8a565b905080600003612154578154600180820184556000848152602090206002830401805491909216600c026101000a6001600160601b0381810219909216918916021790555b848260010160008282546121689190612cc2565b909155506122eb915050565b828160010160008282546121889190612caf565b909155505060008290036122eb5780545b80156122e9576001600160601b038616826121b5600184612caf565b815481106121c5576121c5612d5c565b600091825260209091206002820401546001909116600c026101000a90046001600160601b0316036122d7578154829061220190600190612caf565b8154811061221157612211612d5c565b600091825260209091206002820401546001918216600c026101000a90046001600160601b03169083906122459084612caf565b8154811061225557612255612d5c565b9060005260206000209060029182820401919006600c026101000a8154816001600160601b0302191690836001600160601b03160217905550816000018054806122a1576122a1612e41565b60008281526020902060026000199092019182040180546001600160601b03600c60018516026101000a021916905590556122e9565b806122e181612e2a565b915050612199565b505b60006122f7878761209d565b90506000865b816123b5576123166001600160601b0382168685612442565b6000196001600160601b0382160161233157600191506122fd565b600154604051630fad06e960e11b81526001600160601b03831660048201526001600160a01b0390911690631f5a0dd29060240160e060405180830381865afa158015612382573d6000803e3d6000fd5b505050506040513d601f19601f820116820180604052508101906123a69190612e67565b509495506122fd945050505050565b6001840154604080516001600160601b038b16815260208101889052908101919091526001600160a01b038a16907f70ca4ec64687bf265f39041896f3dbf10b9f650503cb38f2b3569fdce7489c369060600160405180910390a2505050505050505050565b612423612795565b61244057604051631afcd79f60e31b815260040160405180910390fd5b565b6000838152600c6020908152604080832084845260038101909252822054909181900361260f57831561260a57600182015460000361255d5750600281018054600180820183556000928352602090922081018590559081148015906124bc575081546124b0600183612caf565b6124ba9190612d88565b155b156125585781546000906124d09083612ed5565b60008181526004850160205260408120549192506124ef846001612cc2565b90508460020185600201848154811061250a5761250a612d5c565b60009182526020808320909101548354600181018555938352818320909301929092559384526004860180825260408086208690558486526003880183528086208490559285529052909120555b6125d8565b60018083018054909161256f91612caf565b8154811061257f5761257f612d5c565b906000526020600020015490508160010180548061259f5761259f612e41565b60019003818190600052602060002001600090559055838260020182815481106125cb576125cb612d5c565b6000918252602090912001555b6000838152600383016020908152604080832084905583835260048501909152902083905561260a85826001876127af565b611aeb565b836000036126ad57600082600201828154811061262e5761262e612d5c565b90600052602060002001549050600083600201838154811061265257612652612d5c565b60009182526020808320909101929092556001808601805491820181558252828220018490558581526003850182526040808220829055848252600486019092529081208190556126a79087908490846127af565b50611aeb565b8160020181815481106126c2576126c2612d5c565b90600052602060002001548414611aeb576000848360020183815481106126eb576126eb612d5c565b906000526020600020015411159050600081612731578584600201848154811061271757612717612d5c565b906000526020600020015461272c9190612caf565b61275c565b83600201838154811061274657612746612d5c565b90600052602060002001548661275c9190612caf565b90508584600201848154811061277457612774612d5c565b60009182526020909120015561278c878484846127af565b50505050505050565b600061279f612019565b54600160401b900460ff16919050565b6000848152600c60205260409020835b80156128645781546127d2600183612caf565b6127dc9190612ed5565b90508361281357828260020182815481106127f9576127f9612d5c565b906000526020600020015461280e9190612caf565b61283e565b8282600201828154811061282957612829612d5c565b906000526020600020015461283e9190612cc2565b82600201828154811061285357612853612d5c565b6000918252602090912001556127bf565b505050505050565b6001600160a01b038116811461038557600080fd5b6001600160601b038116811461038557600080fd5b6000806000606084860312156128ab57600080fd5b83356128b68161286c565b925060208401356128c681612881565b929592945050506040919091013590565b634e487b7160e01b600052602160045260246000fd5b8381526020810183905260608101600a831061290b5761290b6128d7565b826040830152949350505050565b6000806040838503121561292c57600080fd5b82356129378161286c565b946020939093013593505050565b60006020828403121561295757600080fd5b5035919050565b634e487b7160e01b600052604160045260246000fd5b600082601f83011261298557600080fd5b81356001600160401b0381111561299e5761299e61295e565b604051601f8201601f19908116603f011681016001600160401b03811182821017156129cc576129cc61295e565b6040528181528382016020018510156129e457600080fd5b816020850160208301376000918101602001919091529392505050565b60008060408385031215612a1457600080fd5b8235915060208301356001600160401b03811115612a3157600080fd5b612a3d85828601612974565b9150509250929050565b600080600060608486031215612a5c57600080fd5b505081359360208301359350604090920135919050565b60008060408385031215612a8657600080fd5b8235612a918161286c565b915060208301356001600160401b03811115612a3157600080fd5b600060208284031215612abe57600080fd5b81356112858161286c565b602080825282518282018190526000918401906040840190835b81811015612b0a5783516001600160601b0316835260209384019390920191600101612ae3565b509095945050505050565b60008060008060008060c08789031215612b2e57600080fd5b8635612b398161286c565b95506020870135612b498161286c565b945060408701359350606087013592506080870135612b678161286c565b9598949750929591949360a090920135925050565b60005b83811015612b97578181015183820152602001612b7f565b50506000910152565b6020815260008251806020840152612bbf816040850160208701612b7c565b601f01601f19169190910160400192915050565b60008060408385031215612be657600080fd5b50508035926020909101359150565b60008060408385031215612c0857600080fd5b8235612c138161286c565b91506020830135612c2381612881565b809150509250929050565b600080600080600060a08688031215612c4657600080fd5b8535612c518161286c565b94506020860135612c6181612881565b94979496505050506040830135926060810135926080909101359150565b6020810160038310612c9357612c936128d7565b91905290565b634e487b7160e01b600052601160045260246000fd5b8181038181111561191857611918612c99565b8082018082111561191857611918612c99565b600060208284031215612ce757600080fd5b5051919050565b60208082526024908201527f416363657373206e6f7420616c6c6f7765643a204b6c65726f73436f7265206f60408201526337363c9760e11b606082015260800190565b6001600160a01b039390931683526001600160601b03919091166020830152604082015260600190565b634e487b7160e01b600052603260045260246000fd5b634e487b7160e01b600052601260045260246000fd5b600082612d9757612d97612d72565b500690565b808202811582820484141761191857611918612c99565b600060018201612dc557612dc5612c99565b5060010190565b60208082526022908201527f416363657373206e6f7420616c6c6f7765643a20476f7665726e6f72206f6e6c6040820152613c9760f11b606082015260800190565b60008251612e20818460208701612b7c565b9190910192915050565b600081612e3957612e39612c99565b506000190190565b634e487b7160e01b600052603160045260246000fd5b80518015158114611fbf57600080fd5b600080600080600080600060e0888a031215612e8257600080fd5b8751612e8d81612881565b9650612e9b60208901612e57565b604089015160608a015160808b015160a08c0151939950919750955093509150612ec760c08901612e57565b905092959891949750929550565b600082612ee457612ee4612d72565b50049056fe360894a13ba1a3210667c828492db98dca3e2076cc3735a920a3ca505d382bbca2646970667358221220052678a83c86d9ec2b0b75b0a752af9ac1cb26b5a46b6f49f82c9ce180f8800364736f6c634300081c0033",
  "devdoc": {
    "details": "A factory of trees that keeps track of staked values for sortition.",
    "errors": {
      "AlreadyInitialized()": [
        {
          "details": "The contract is already initialized."
        }
      ],
      "InvalidImplementation(address)": [
        {
          "details": "The `implementation` is not UUPS-compliant"
        }
      ],
      "NotInitializing()": [
        {
          "details": "The contract is not initializing."
        }
      ],
      "UUPSUnauthorizedCallContext()": [
        {
          "details": "The call is from an unauthorized context."
        }
      ],
      "UUPSUnsupportedProxiableUUID(bytes32)": [
        {
          "details": "The storage `slot` is unsupported as a UUID."
        }
      ]
    },
    "events": {
      "Initialized(uint64)": {
        "details": "Triggered when the contract has been initialized or reinitialized."
      },
      "LeftoverPNK(address,uint256)": {
        "details": "Emitted when leftover PNK is available.",
        "params": {
          "_account": "The account of the juror.",
          "_amount": "The amount of PNK available."
        }
      },
      "LeftoverPNKWithdrawn(address,uint256)": {
        "details": "Emitted when leftover PNK is withdrawn.",
        "params": {
          "_account": "The account of the juror withdrawing PNK.",
          "_amount": "The amount of PNK withdrawn."
        }
      },
      "StakeDelayed(address,uint96,uint256)": {
        "params": {
          "_address": "The address of the juror.",
          "_amount": "The amount of tokens staked in the court.",
          "_courtID": "The ID of the court."
        }
      },
      "StakeLocked(address,uint256,bool)": {
        "params": {
          "_address": "The address of the juror.",
          "_relativeAmount": "The amount of tokens locked.",
          "_unlock": "Whether the stake is locked or unlocked."
        }
      },
      "StakeSet(address,uint256,uint256,uint256)": {
        "params": {
          "_address": "The address of the juror.",
          "_amount": "The amount of tokens staked in the court.",
          "_amountAllCourts": "The amount of tokens staked in all courts.",
          "_courtID": "The ID of the court."
        }
      },
      "Upgraded(address)": {
        "details": "Emitted when the `implementation` has been successfully upgraded.",
        "params": {
          "newImplementation": "Address of the new implementation the proxy is now forwarding calls to."
        }
      }
    },
    "kind": "dev",
    "methods": {
      "changeGovernor(address)": {
        "details": "Changes the governor of the contract.",
        "params": {
          "_governor": "The new governor."
        }
      },
      "changeMaxDrawingTime(uint256)": {
        "details": "Changes the `maxDrawingTime` storage variable.",
        "params": {
          "_maxDrawingTime": "The new value for the `maxDrawingTime` storage variable."
        }
      },
      "changeMinStakingTime(uint256)": {
        "details": "Changes the `minStakingTime` storage variable.",
        "params": {
          "_minStakingTime": "The new value for the `minStakingTime` storage variable."
        }
      },
      "changeRandomNumberGenerator(address,uint256)": {
        "details": "Changes the `_rng` and `_rngLookahead` storage variables.",
        "params": {
          "_rng": "The new value for the `RNGenerator` storage variable.",
          "_rngLookahead": "The new value for the `rngLookahead` storage variable."
        }
      },
      "constructor": {
        "custom:oz-upgrades-unsafe-allow": "constructor"
      },
      "createTree(bytes32,bytes)": {
        "details": "Create a sortition sum tree at the specified key.",
        "params": {
          "_extraData": "Extra data that contains the number of children each node in the tree should have.",
          "_key": "The key of the new tree."
        }
      },
      "draw(bytes32,uint256,uint256)": {
        "details": "Draw an ID from a tree using a number. Note that this function reverts if the sum of all values in the tree is 0.",
        "params": {
          "_coreDisputeID": "Index of the dispute in Kleros Core.",
          "_key": "The key of the tree.",
          "_nonce": "Nonce to hash with random number."
        },
        "returns": {
          "drawnAddress": "The drawn address. `O(k * log_k(n))` where `k` is the maximum number of children per node in the tree,  and `n` is the maximum number of nodes ever appended."
        }
      },
      "executeDelayedStakes(uint256)": {
        "details": "Executes the next delayed stakes.",
        "params": {
          "_iterations": "The number of delayed stakes to execute."
        }
      },
      "getJurorCourtIDs(address)": {
        "details": "Gets the court identifiers where a specific `_juror` has staked.",
        "params": {
          "_juror": "The address of the juror."
        }
      },
      "initialize(address,address,uint256,uint256,address,uint256)": {
        "details": "Initializer (constructor equivalent for upgradable contracts).",
        "params": {
          "_core": "The KlerosCore.",
          "_governor": "The governor.",
          "_maxDrawingTime": "Time after which the drawing phase can be switched",
          "_minStakingTime": "Minimal time to stake",
          "_rng": "The random number generator.",
          "_rngLookahead": "Lookahead value for rng."
        }
      },
      "notifyRandomNumber(uint256)": {
        "details": "Saves the random number to use it in sortition. Not used by this contract because the storing of the number is inlined in passPhase().",
        "params": {
          "_randomNumber": "Random number returned by RNG contract."
        }
      },
      "proxiableUUID()": {
        "details": "Implementation of the ERC1822 `proxiableUUID` function. This returns the storage slot used by the implementation. It is used to validate the implementation's compatibility when performing an upgrade. IMPORTANT: A proxy pointing at a proxiable contract should not be considered proxiable itself, because this risks bricking a proxy that upgrades to it, by delegating to itself until out of gas. Thus it is critical that this function revert if invoked through a proxy. This is guaranteed by the if statement."
      },
      "setJurorInactive(address)": {
        "details": "Unstakes the inactive juror from all courts. `O(n * (p * log_k(j)) )` where `n` is the number of courts the juror has staked in, `p` is the depth of the court tree, `k` is the minimum number of children per node of one of these courts' sortition sum tree, and `j` is the maximum number of jurors that ever staked in one of these courts simultaneously.",
        "params": {
          "_account": "The juror to unstake."
        }
      },
      "setStake(address,uint96,uint256,uint256,uint256)": {
        "details": "Update the state of the stakes, called by KC at the end of setStake flow. `O(n + p * log_k(j))` where `n` is the number of courts the juror has staked in, `p` is the depth of the court tree, `k` is the minimum number of children per node of one of these courts' sortition sum tree, and `j` is the maximum number of jurors that ever staked in one of these courts simultaneously.",
        "params": {
          "_account": "The address of the juror.",
          "_courtID": "The ID of the court.",
          "_newStake": "The new stake.",
          "_pnkDeposit": "The amount of PNK to be deposited.",
          "_pnkWithdrawal": "The amount of PNK to be withdrawn."
        }
      },
      "stakeOf(address,uint96)": {
        "details": "Get the stake of a juror in a court.",
        "params": {
          "_courtID": "The ID of the court.",
          "_juror": "The address of the juror."
        },
        "returns": {
          "_0": "value The stake of the juror in the court."
        }
      },
      "stakeOf(bytes32,bytes32)": {
        "details": "Get the stake of a juror in a court.",
        "params": {
          "_ID": "The stake path ID, corresponding to a juror.",
          "_key": "The key of the tree, corresponding to a court."
        },
        "returns": {
          "_0": "The stake of the juror in the court."
        }
      },
      "upgradeToAndCall(address,bytes)": {
        "details": "Upgrade mechanism including access control and UUPS-compliance.Reverts if the execution is not performed via delegatecall or the execution context is not of a proxy with an ERC1967-compliant implementation pointing to self.",
        "params": {
          "data": "Data used in a delegate call to `newImplementation` if non-empty. This will typically be an encoded function call, and allows initializing the storage of the proxy like a Solidity constructor.",
          "newImplementation": "Address of the new implementation contract."
        }
      },
      "validateStake(address,uint96,uint256)": {
        "details": "Validate the specified juror's new stake for a court. Note: no state changes should be made when returning stakingResult != Successful, otherwise delayed stakes might break invariants.",
        "params": {
          "_account": "The address of the juror.",
          "_courtID": "The ID of the court.",
          "_newStake": "The new stake."
        },
        "returns": {
          "pnkDeposit": "The amount of PNK to be deposited.",
          "pnkWithdrawal": "The amount of PNK to be withdrawn.",
          "stakingResult": "The result of the staking operation."
        }
      },
      "withdrawLeftoverPNK(address)": {
        "details": "Gives back the locked PNKs in case the juror fully unstaked earlier. Note that since locked and staked PNK are async it is possible for the juror to have positive staked PNK balance while having 0 stake in courts and 0 locked tokens (eg. when the juror fully unstaked during dispute and later got his tokens unlocked). In this case the juror can use this function to withdraw the leftover tokens. Also note that if the juror has some leftover PNK while not fully unstaked he'll have to manually unstake from all courts to trigger this function.",
        "params": {
          "_account": "The juror whose PNK to withdraw."
        }
      }
    },
    "stateVariables": {
      "version": {
        "details": "Returns the version of the implementation.",
        "return": "Version string.",
        "returns": {
          "_0": "Version string."
        }
      }
    },
    "title": "SortitionModule",
    "version": 1
  },
  "userdoc": {
    "errors": {
      "FailedDelegateCall()": [
        {
          "notice": "Failed Delegated call"
        }
      ]
    },
    "events": {
      "StakeDelayed(address,uint96,uint256)": {
        "notice": "Emitted when a juror's stake is delayed."
      },
      "StakeLocked(address,uint256,bool)": {
        "notice": "Emitted when a juror's stake is locked."
      },
      "StakeSet(address,uint256,uint256,uint256)": {
        "notice": "Emitted when a juror stakes in a court."
      }
    },
    "kind": "user",
    "methods": {},
    "version": 1
  },
  "storageLayout": {
    "storage": [
      {
        "astId": 16617,
        "contract": "src/arbitration/SortitionModule.sol:SortitionModule",
        "label": "governor",
        "offset": 0,
        "slot": "0",
        "type": "t_address"
      },
      {
        "astId": 16620,
        "contract": "src/arbitration/SortitionModule.sol:SortitionModule",
        "label": "core",
        "offset": 0,
        "slot": "1",
        "type": "t_contract(KlerosCore)11124"
      },
      {
        "astId": 16623,
        "contract": "src/arbitration/SortitionModule.sol:SortitionModule",
        "label": "phase",
        "offset": 20,
        "slot": "1",
        "type": "t_enum(Phase)26167"
      },
      {
        "astId": 16625,
        "contract": "src/arbitration/SortitionModule.sol:SortitionModule",
        "label": "minStakingTime",
        "offset": 0,
        "slot": "2",
        "type": "t_uint256"
      },
      {
        "astId": 16627,
        "contract": "src/arbitration/SortitionModule.sol:SortitionModule",
        "label": "maxDrawingTime",
        "offset": 0,
        "slot": "3",
        "type": "t_uint256"
      },
      {
        "astId": 16629,
        "contract": "src/arbitration/SortitionModule.sol:SortitionModule",
        "label": "lastPhaseChange",
        "offset": 0,
        "slot": "4",
        "type": "t_uint256"
      },
      {
        "astId": 16631,
        "contract": "src/arbitration/SortitionModule.sol:SortitionModule",
        "label": "randomNumberRequestBlock",
        "offset": 0,
        "slot": "5",
        "type": "t_uint256"
      },
      {
        "astId": 16633,
        "contract": "src/arbitration/SortitionModule.sol:SortitionModule",
        "label": "disputesWithoutJurors",
        "offset": 0,
        "slot": "6",
        "type": "t_uint256"
      },
      {
        "astId": 16636,
        "contract": "src/arbitration/SortitionModule.sol:SortitionModule",
        "label": "rng",
        "offset": 0,
        "slot": "7",
        "type": "t_contract(RNG)35269"
      },
      {
        "astId": 16638,
        "contract": "src/arbitration/SortitionModule.sol:SortitionModule",
        "label": "randomNumber",
        "offset": 0,
        "slot": "8",
        "type": "t_uint256"
      },
      {
        "astId": 16640,
        "contract": "src/arbitration/SortitionModule.sol:SortitionModule",
        "label": "rngLookahead",
        "offset": 0,
        "slot": "9",
        "type": "t_uint256"
      },
      {
        "astId": 16642,
        "contract": "src/arbitration/SortitionModule.sol:SortitionModule",
        "label": "delayedStakeWriteIndex",
        "offset": 0,
        "slot": "10",
        "type": "t_uint256"
      },
      {
        "astId": 16644,
        "contract": "src/arbitration/SortitionModule.sol:SortitionModule",
        "label": "delayedStakeReadIndex",
        "offset": 0,
        "slot": "11",
        "type": "t_uint256"
      },
      {
        "astId": 16649,
        "contract": "src/arbitration/SortitionModule.sol:SortitionModule",
        "label": "sortitionSumTrees",
        "offset": 0,
        "slot": "12",
        "type": "t_mapping(t_bytes32,t_struct(SortitionSumTree)16598_storage)"
      },
      {
        "astId": 16654,
        "contract": "src/arbitration/SortitionModule.sol:SortitionModule",
        "label": "jurors",
        "offset": 0,
        "slot": "13",
        "type": "t_mapping(t_address,t_struct(Juror)16615_storage)"
      },
      {
        "astId": 16659,
        "contract": "src/arbitration/SortitionModule.sol:SortitionModule",
        "label": "delayedStakes",
        "offset": 0,
        "slot": "14",
        "type": "t_mapping(t_uint256,t_struct(DelayedStake)16607_storage)"
      },
      {
        "astId": 16665,
        "contract": "src/arbitration/SortitionModule.sol:SortitionModule",
        "label": "latestDelayedStakeIndex",
        "offset": 0,
        "slot": "15",
        "type": "t_mapping(t_address,t_mapping(t_uint96,t_uint256))"
      }
    ],
    "types": {
      "t_address": {
        "encoding": "inplace",
        "label": "address",
        "numberOfBytes": "20"
      },
      "t_array(t_uint256)dyn_storage": {
        "base": "t_uint256",
        "encoding": "dynamic_array",
        "label": "uint256[]",
        "numberOfBytes": "32"
      },
      "t_array(t_uint96)dyn_storage": {
        "base": "t_uint96",
        "encoding": "dynamic_array",
        "label": "uint96[]",
        "numberOfBytes": "32"
      },
      "t_bool": {
        "encoding": "inplace",
        "label": "bool",
        "numberOfBytes": "1"
      },
      "t_bytes32": {
        "encoding": "inplace",
        "label": "bytes32",
        "numberOfBytes": "32"
      },
      "t_contract(KlerosCore)11124": {
        "encoding": "inplace",
        "label": "contract KlerosCore",
        "numberOfBytes": "20"
      },
      "t_contract(RNG)35269": {
        "encoding": "inplace",
        "label": "contract RNG",
        "numberOfBytes": "20"
      },
      "t_enum(Phase)26167": {
        "encoding": "inplace",
        "label": "enum ISortitionModule.Phase",
        "numberOfBytes": "1"
      },
      "t_mapping(t_address,t_mapping(t_uint96,t_uint256))": {
        "encoding": "mapping",
        "key": "t_address",
        "label": "mapping(address => mapping(uint96 => uint256))",
        "numberOfBytes": "32",
        "value": "t_mapping(t_uint96,t_uint256)"
      },
      "t_mapping(t_address,t_struct(Juror)16615_storage)": {
        "encoding": "mapping",
        "key": "t_address",
        "label": "mapping(address => struct SortitionModuleBase.Juror)",
        "numberOfBytes": "32",
        "value": "t_struct(Juror)16615_storage"
      },
      "t_mapping(t_bytes32,t_struct(SortitionSumTree)16598_storage)": {
        "encoding": "mapping",
        "key": "t_bytes32",
        "label": "mapping(bytes32 => struct SortitionModuleBase.SortitionSumTree)",
        "numberOfBytes": "32",
        "value": "t_struct(SortitionSumTree)16598_storage"
      },
      "t_mapping(t_bytes32,t_uint256)": {
        "encoding": "mapping",
        "key": "t_bytes32",
        "label": "mapping(bytes32 => uint256)",
        "numberOfBytes": "32",
        "value": "t_uint256"
      },
      "t_mapping(t_uint256,t_bytes32)": {
        "encoding": "mapping",
        "key": "t_uint256",
        "label": "mapping(uint256 => bytes32)",
        "numberOfBytes": "32",
        "value": "t_bytes32"
      },
      "t_mapping(t_uint256,t_struct(DelayedStake)16607_storage)": {
        "encoding": "mapping",
        "key": "t_uint256",
        "label": "mapping(uint256 => struct SortitionModuleBase.DelayedStake)",
        "numberOfBytes": "32",
        "value": "t_struct(DelayedStake)16607_storage"
      },
      "t_mapping(t_uint96,t_uint256)": {
        "encoding": "mapping",
        "key": "t_uint96",
        "label": "mapping(uint96 => uint256)",
        "numberOfBytes": "32",
        "value": "t_uint256"
      },
      "t_struct(DelayedStake)16607_storage": {
        "encoding": "inplace",
        "label": "struct SortitionModuleBase.DelayedStake",
        "members": [
          {
            "astId": 16600,
            "contract": "src/arbitration/SortitionModule.sol:SortitionModule",
            "label": "account",
            "offset": 0,
            "slot": "0",
            "type": "t_address"
          },
          {
            "astId": 16602,
            "contract": "src/arbitration/SortitionModule.sol:SortitionModule",
            "label": "courtID",
            "offset": 20,
            "slot": "0",
            "type": "t_uint96"
          },
          {
            "astId": 16604,
            "contract": "src/arbitration/SortitionModule.sol:SortitionModule",
            "label": "stake",
            "offset": 0,
            "slot": "1",
            "type": "t_uint256"
          },
          {
            "astId": 16606,
            "contract": "src/arbitration/SortitionModule.sol:SortitionModule",
            "label": "alreadyTransferred",
            "offset": 0,
            "slot": "2",
            "type": "t_bool"
          }
        ],
        "numberOfBytes": "96"
      },
      "t_struct(Juror)16615_storage": {
        "encoding": "inplace",
        "label": "struct SortitionModuleBase.Juror",
        "members": [
          {
            "astId": 16610,
            "contract": "src/arbitration/SortitionModule.sol:SortitionModule",
            "label": "courtIDs",
            "offset": 0,
            "slot": "0",
            "type": "t_array(t_uint96)dyn_storage"
          },
          {
            "astId": 16612,
            "contract": "src/arbitration/SortitionModule.sol:SortitionModule",
            "label": "stakedPnk",
            "offset": 0,
            "slot": "1",
            "type": "t_uint256"
          },
          {
            "astId": 16614,
            "contract": "src/arbitration/SortitionModule.sol:SortitionModule",
            "label": "lockedPnk",
            "offset": 0,
            "slot": "2",
            "type": "t_uint256"
          }
        ],
        "numberOfBytes": "96"
      },
      "t_struct(SortitionSumTree)16598_storage": {
        "encoding": "inplace",
        "label": "struct SortitionModuleBase.SortitionSumTree",
        "members": [
          {
            "astId": 16583,
            "contract": "src/arbitration/SortitionModule.sol:SortitionModule",
            "label": "K",
            "offset": 0,
            "slot": "0",
            "type": "t_uint256"
          },
          {
            "astId": 16586,
            "contract": "src/arbitration/SortitionModule.sol:SortitionModule",
            "label": "stack",
            "offset": 0,
            "slot": "1",
            "type": "t_array(t_uint256)dyn_storage"
          },
          {
            "astId": 16589,
            "contract": "src/arbitration/SortitionModule.sol:SortitionModule",
            "label": "nodes",
            "offset": 0,
            "slot": "2",
            "type": "t_array(t_uint256)dyn_storage"
          },
          {
            "astId": 16593,
            "contract": "src/arbitration/SortitionModule.sol:SortitionModule",
            "label": "IDsToNodeIndexes",
            "offset": 0,
            "slot": "3",
            "type": "t_mapping(t_bytes32,t_uint256)"
          },
          {
            "astId": 16597,
            "contract": "src/arbitration/SortitionModule.sol:SortitionModule",
            "label": "nodeIndexesToIDs",
            "offset": 0,
            "slot": "4",
            "type": "t_mapping(t_uint256,t_bytes32)"
          }
        ],
        "numberOfBytes": "160"
      },
      "t_uint256": {
        "encoding": "inplace",
        "label": "uint256",
        "numberOfBytes": "32"
      },
      "t_uint96": {
        "encoding": "inplace",
        "label": "uint96",
        "numberOfBytes": "12"
      }
    }
  }
}