{
  "address": "0xd15138319C9589d85aC94e8587a832df3895a48C",
  "abi": [
    {
      "inputs": [],
      "stateMutability": "nonpayable",
      "type": "constructor"
    },
    {
      "inputs": [],
      "name": "AlreadyInitialized",
      "type": "error"
    },
    {
      "inputs": [],
      "name": "DisputesWithoutJurorsAndMaxDrawingTimeNotPassed",
      "type": "error"
    },
    {
      "inputs": [],
      "name": "FailedDelegateCall",
      "type": "error"
    },
    {
      "inputs": [
        {
          "internalType": "address",
          "name": "implementation",
          "type": "address"
        }
      ],
      "name": "InvalidImplementation",
      "type": "error"
    },
    {
      "inputs": [],
      "name": "KMustBeGreaterThanOne",
      "type": "error"
    },
    {
      "inputs": [],
      "name": "KlerosCoreOnly",
      "type": "error"
    },
    {
      "inputs": [],
      "name": "MinStakingTimeNotPassed",
      "type": "error"
    },
    {
      "inputs": [],
      "name": "NoDelayedStakeToExecute",
      "type": "error"
    },
    {
      "inputs": [],
      "name": "NoDisputesThatNeedJurors",
      "type": "error"
    },
    {
      "inputs": [],
      "name": "NotDrawingPhase",
      "type": "error"
    },
    {
      "inputs": [],
      "name": "NotEligibleForWithdrawal",
      "type": "error"
    },
    {
      "inputs": [],
      "name": "NotInitializing",
      "type": "error"
    },
    {
      "inputs": [],
      "name": "NotStakingPhase",
      "type": "error"
    },
    {
      "inputs": [],
      "name": "OwnerOnly",
      "type": "error"
    },
    {
      "inputs": [],
      "name": "RandomNumberNotReady",
      "type": "error"
    },
    {
      "inputs": [],
      "name": "TreeAlreadyExists",
      "type": "error"
    },
    {
      "inputs": [],
      "name": "UUPSUnauthorizedCallContext",
      "type": "error"
    },
    {
      "inputs": [
        {
          "internalType": "bytes32",
          "name": "slot",
          "type": "bytes32"
        }
      ],
      "name": "UUPSUnsupportedProxiableUUID",
      "type": "error"
    },
    {
      "anonymous": false,
      "inputs": [
        {
          "indexed": false,
          "internalType": "uint64",
          "name": "version",
          "type": "uint64"
        }
      ],
      "name": "Initialized",
      "type": "event"
    },
    {
      "anonymous": false,
      "inputs": [
        {
          "indexed": true,
          "internalType": "address",
          "name": "_account",
          "type": "address"
        },
        {
          "indexed": false,
          "internalType": "uint256",
          "name": "_amount",
          "type": "uint256"
        }
      ],
      "name": "LeftoverPNK",
      "type": "event"
    },
    {
      "anonymous": false,
      "inputs": [
        {
          "indexed": true,
          "internalType": "address",
          "name": "_account",
          "type": "address"
        },
        {
          "indexed": false,
          "internalType": "uint256",
          "name": "_amount",
          "type": "uint256"
        }
      ],
      "name": "LeftoverPNKWithdrawn",
      "type": "event"
    },
    {
      "anonymous": false,
      "inputs": [
        {
          "indexed": false,
          "internalType": "enum ISortitionModule.Phase",
          "name": "_phase",
          "type": "uint8"
        }
      ],
      "name": "NewPhase",
      "type": "event"
    },
    {
      "anonymous": false,
      "inputs": [
        {
          "indexed": true,
          "internalType": "address",
          "name": "_address",
          "type": "address"
        },
        {
          "indexed": true,
          "internalType": "uint96",
          "name": "_courtID",
          "type": "uint96"
        },
        {
          "indexed": false,
          "internalType": "uint256",
          "name": "_amount",
          "type": "uint256"
        }
      ],
      "name": "StakeDelayed",
      "type": "event"
    },
    {
      "anonymous": false,
      "inputs": [
        {
          "indexed": true,
          "internalType": "address",
          "name": "_address",
          "type": "address"
        },
        {
          "indexed": true,
          "internalType": "uint96",
          "name": "_courtID",
          "type": "uint96"
        },
        {
          "indexed": false,
          "internalType": "uint256",
          "name": "_amount",
          "type": "uint256"
        }
      ],
      "name": "StakeDelayedExecutionFailed",
      "type": "event"
    },
    {
      "anonymous": false,
      "inputs": [
        {
          "indexed": true,
          "internalType": "address",
          "name": "_address",
          "type": "address"
        },
        {
          "indexed": false,
          "internalType": "uint256",
          "name": "_relativeAmount",
          "type": "uint256"
        },
        {
          "indexed": false,
          "internalType": "bool",
          "name": "_unlock",
          "type": "bool"
        }
      ],
      "name": "StakeLocked",
      "type": "event"
    },
    {
      "anonymous": false,
      "inputs": [
        {
          "indexed": true,
          "internalType": "address",
          "name": "_address",
          "type": "address"
        },
        {
          "indexed": false,
          "internalType": "uint256",
          "name": "_courtID",
          "type": "uint256"
        },
        {
          "indexed": false,
          "internalType": "uint256",
          "name": "_amount",
          "type": "uint256"
        },
        {
          "indexed": false,
          "internalType": "uint256",
          "name": "_amountAllCourts",
          "type": "uint256"
        }
      ],
      "name": "StakeSet",
      "type": "event"
    },
    {
      "anonymous": false,
      "inputs": [
        {
          "indexed": true,
          "internalType": "address",
          "name": "newImplementation",
          "type": "address"
        }
      ],
      "name": "Upgraded",
      "type": "event"
    },
    {
      "inputs": [
        {
          "internalType": "uint256",
          "name": "_maxDrawingTime",
          "type": "uint256"
        }
      ],
      "name": "changeMaxDrawingTime",
      "outputs": [],
      "stateMutability": "nonpayable",
      "type": "function"
    },
    {
      "inputs": [
        {
          "internalType": "uint256",
          "name": "_maxStakePerJuror",
          "type": "uint256"
        }
      ],
      "name": "changeMaxStakePerJuror",
      "outputs": [],
      "stateMutability": "nonpayable",
      "type": "function"
    },
    {
      "inputs": [
        {
          "internalType": "uint256",
          "name": "_maxTotalStaked",
          "type": "uint256"
        }
      ],
      "name": "changeMaxTotalStaked",
      "outputs": [],
      "stateMutability": "nonpayable",
      "type": "function"
    },
    {
      "inputs": [
        {
          "internalType": "uint256",
          "name": "_minStakingTime",
          "type": "uint256"
        }
      ],
      "name": "changeMinStakingTime",
      "outputs": [],
      "stateMutability": "nonpayable",
      "type": "function"
    },
    {
      "inputs": [
        {
          "internalType": "address",
          "name": "_owner",
          "type": "address"
        }
      ],
      "name": "changeOwner",
      "outputs": [],
      "stateMutability": "nonpayable",
      "type": "function"
    },
    {
      "inputs": [
        {
          "internalType": "contract IRNG",
          "name": "_rng",
          "type": "address"
        }
      ],
      "name": "changeRandomNumberGenerator",
      "outputs": [],
      "stateMutability": "nonpayable",
      "type": "function"
    },
    {
      "inputs": [],
      "name": "core",
      "outputs": [
        {
          "internalType": "contract KlerosCore",
          "name": "",
          "type": "address"
        }
      ],
      "stateMutability": "view",
      "type": "function"
    },
    {
      "inputs": [
        {
          "internalType": "uint256",
          "name": "",
          "type": "uint256"
        },
        {
          "internalType": "uint256",
          "name": "",
          "type": "uint256"
        }
      ],
      "name": "createDisputeHook",
      "outputs": [],
      "stateMutability": "nonpayable",
      "type": "function"
    },
    {
      "inputs": [
        {
          "internalType": "uint96",
          "name": "_courtID",
          "type": "uint96"
        },
        {
          "internalType": "bytes",
          "name": "_extraData",
          "type": "bytes"
        }
      ],
      "name": "createTree",
      "outputs": [],
      "stateMutability": "nonpayable",
      "type": "function"
    },
    {
      "inputs": [],
      "name": "delayedStakeReadIndex",
      "outputs": [
        {
          "internalType": "uint256",
          "name": "",
          "type": "uint256"
        }
      ],
      "stateMutability": "view",
      "type": "function"
    },
    {
      "inputs": [],
      "name": "delayedStakeWriteIndex",
      "outputs": [
        {
          "internalType": "uint256",
          "name": "",
          "type": "uint256"
        }
      ],
      "stateMutability": "view",
      "type": "function"
    },
    {
      "inputs": [
        {
          "internalType": "uint256",
          "name": "",
          "type": "uint256"
        }
      ],
      "name": "delayedStakes",
      "outputs": [
        {
          "internalType": "address",
          "name": "account",
          "type": "address"
        },
        {
          "internalType": "uint96",
          "name": "courtID",
          "type": "uint96"
        },
        {
          "internalType": "uint256",
          "name": "stake",
          "type": "uint256"
        }
      ],
      "stateMutability": "view",
      "type": "function"
    },
    {
      "inputs": [],
      "name": "disputesWithoutJurors",
      "outputs": [
        {
          "internalType": "uint256",
          "name": "",
          "type": "uint256"
        }
      ],
      "stateMutability": "view",
      "type": "function"
    },
    {
      "inputs": [
        {
          "internalType": "uint96",
          "name": "_courtID",
          "type": "uint96"
        },
        {
          "internalType": "uint256",
          "name": "_coreDisputeID",
          "type": "uint256"
        },
        {
          "internalType": "uint256",
          "name": "_nonce",
          "type": "uint256"
        }
      ],
      "name": "draw",
      "outputs": [
        {
          "internalType": "address",
          "name": "drawnAddress",
          "type": "address"
        },
        {
          "internalType": "uint96",
          "name": "fromSubcourtID",
          "type": "uint96"
        }
      ],
      "stateMutability": "view",
      "type": "function"
    },
    {
      "inputs": [
        {
          "internalType": "uint256",
          "name": "_iterations",
          "type": "uint256"
        }
      ],
      "name": "executeDelayedStakes",
      "outputs": [],
      "stateMutability": "nonpayable",
      "type": "function"
    },
    {
      "inputs": [
        {
          "internalType": "address",
          "name": "_account",
          "type": "address"
        },
        {
          "internalType": "uint96",
          "name": "_courtID",
          "type": "uint96"
        }
      ],
      "name": "forcedUnstake",
      "outputs": [],
      "stateMutability": "nonpayable",
      "type": "function"
    },
    {
      "inputs": [
        {
          "internalType": "address",
          "name": "_account",
          "type": "address"
        }
      ],
      "name": "forcedUnstakeAllCourts",
      "outputs": [],
      "stateMutability": "nonpayable",
      "type": "function"
    },
    {
      "inputs": [
        {
          "internalType": "address",
          "name": "_juror",
          "type": "address"
        },
        {
          "internalType": "uint96",
          "name": "_courtID",
          "type": "uint96"
        }
      ],
      "name": "getJurorBalance",
      "outputs": [
        {
          "internalType": "uint256",
          "name": "totalStakedPnk",
          "type": "uint256"
        },
        {
          "internalType": "uint256",
          "name": "totalLocked",
          "type": "uint256"
        },
        {
          "internalType": "uint256",
          "name": "stakedInCourt",
          "type": "uint256"
        },
        {
          "internalType": "uint256",
          "name": "nbCourts",
          "type": "uint256"
        }
      ],
      "stateMutability": "view",
      "type": "function"
    },
    {
      "inputs": [
        {
          "internalType": "address",
          "name": "_juror",
          "type": "address"
        }
      ],
      "name": "getJurorCourtIDs",
      "outputs": [
        {
          "internalType": "uint96[]",
          "name": "",
          "type": "uint96[]"
        }
      ],
      "stateMutability": "view",
      "type": "function"
    },
    {
      "inputs": [
        {
          "internalType": "address",
          "name": "_juror",
          "type": "address"
        }
      ],
      "name": "getJurorLeftoverPNK",
      "outputs": [
        {
          "internalType": "uint256",
          "name": "",
          "type": "uint256"
        }
      ],
      "stateMutability": "view",
      "type": "function"
    },
    {
      "inputs": [
        {
          "internalType": "address",
          "name": "_owner",
          "type": "address"
        },
        {
          "internalType": "contract KlerosCore",
          "name": "_core",
          "type": "address"
        },
        {
          "internalType": "uint256",
          "name": "_minStakingTime",
          "type": "uint256"
        },
        {
          "internalType": "uint256",
          "name": "_maxDrawingTime",
          "type": "uint256"
        },
        {
          "internalType": "contract IRNG",
          "name": "_rng",
          "type": "address"
        },
        {
          "internalType": "uint256",
          "name": "_maxStakePerJuror",
          "type": "uint256"
        },
        {
          "internalType": "uint256",
          "name": "_maxTotalStaked",
          "type": "uint256"
        }
      ],
      "name": "initialize",
      "outputs": [],
      "stateMutability": "nonpayable",
      "type": "function"
    },
    {
      "inputs": [
        {
          "internalType": "address",
          "name": "_juror",
          "type": "address"
        }
      ],
      "name": "isJurorStaked",
      "outputs": [
        {
          "internalType": "bool",
          "name": "",
          "type": "bool"
        }
      ],
      "stateMutability": "view",
      "type": "function"
    },
    {
      "inputs": [
        {
          "internalType": "address",
          "name": "account",
          "type": "address"
        }
      ],
      "name": "jurors",
      "outputs": [
        {
          "internalType": "uint256",
          "name": "stakedPnk",
          "type": "uint256"
        },
        {
          "internalType": "uint256",
          "name": "lockedPnk",
          "type": "uint256"
        }
      ],
      "stateMutability": "view",
      "type": "function"
    },
    {
      "inputs": [],
      "name": "lastPhaseChange",
      "outputs": [
        {
          "internalType": "uint256",
          "name": "",
          "type": "uint256"
        }
      ],
      "stateMutability": "view",
      "type": "function"
    },
    {
      "inputs": [
        {
          "internalType": "address",
          "name": "_account",
          "type": "address"
        },
        {
          "internalType": "uint256",
          "name": "_relativeAmount",
          "type": "uint256"
        }
      ],
      "name": "lockStake",
      "outputs": [],
      "stateMutability": "nonpayable",
      "type": "function"
    },
    {
      "inputs": [],
      "name": "maxDrawingTime",
      "outputs": [
        {
          "internalType": "uint256",
          "name": "",
          "type": "uint256"
        }
      ],
      "stateMutability": "view",
      "type": "function"
    },
    {
      "inputs": [],
      "name": "maxStakePerJuror",
      "outputs": [
        {
          "internalType": "uint256",
          "name": "",
          "type": "uint256"
        }
      ],
      "stateMutability": "view",
      "type": "function"
    },
    {
      "inputs": [],
      "name": "maxTotalStaked",
      "outputs": [
        {
          "internalType": "uint256",
          "name": "",
          "type": "uint256"
        }
      ],
      "stateMutability": "view",
      "type": "function"
    },
    {
      "inputs": [],
      "name": "minStakingTime",
      "outputs": [
        {
          "internalType": "uint256",
          "name": "",
          "type": "uint256"
        }
      ],
      "stateMutability": "view",
      "type": "function"
    },
    {
      "inputs": [],
      "name": "owner",
      "outputs": [
        {
          "internalType": "address",
          "name": "",
          "type": "address"
        }
      ],
      "stateMutability": "view",
      "type": "function"
    },
    {
      "inputs": [],
      "name": "passPhase",
      "outputs": [],
      "stateMutability": "nonpayable",
      "type": "function"
    },
    {
      "inputs": [],
      "name": "phase",
      "outputs": [
        {
          "internalType": "enum ISortitionModule.Phase",
          "name": "",
          "type": "uint8"
        }
      ],
      "stateMutability": "view",
      "type": "function"
    },
    {
      "inputs": [
        {
          "internalType": "uint256",
          "name": "",
          "type": "uint256"
        },
        {
          "internalType": "uint256",
          "name": "",
          "type": "uint256"
        }
      ],
      "name": "postDrawHook",
      "outputs": [],
      "stateMutability": "nonpayable",
      "type": "function"
    },
    {
      "inputs": [],
      "name": "proxiableUUID",
      "outputs": [
        {
          "internalType": "bytes32",
          "name": "",
          "type": "bytes32"
        }
      ],
      "stateMutability": "view",
      "type": "function"
    },
    {
      "inputs": [],
      "name": "randomNumber",
      "outputs": [
        {
          "internalType": "uint256",
          "name": "",
          "type": "uint256"
        }
      ],
      "stateMutability": "view",
      "type": "function"
    },
    {
      "inputs": [],
      "name": "rng",
      "outputs": [
        {
          "internalType": "contract IRNG",
          "name": "",
          "type": "address"
        }
      ],
      "stateMutability": "view",
      "type": "function"
    },
    {
      "inputs": [
        {
          "internalType": "address",
          "name": "_account",
          "type": "address"
        },
        {
          "internalType": "uint96",
          "name": "_courtID",
          "type": "uint96"
        },
        {
          "internalType": "uint256",
          "name": "_pnkDeposit",
          "type": "uint256"
        },
        {
          "internalType": "uint256",
          "name": "_pnkWithdrawal",
          "type": "uint256"
        },
        {
          "internalType": "uint256",
          "name": "_newStake",
          "type": "uint256"
        }
      ],
      "name": "setStake",
      "outputs": [],
      "stateMutability": "nonpayable",
      "type": "function"
    },
    {
      "inputs": [
        {
          "internalType": "address",
          "name": "_account",
          "type": "address"
        },
        {
          "internalType": "uint96",
          "name": "_courtID",
          "type": "uint96"
        },
        {
          "internalType": "uint256",
          "name": "_penalty",
          "type": "uint256"
        }
      ],
      "name": "setStakePenalty",
      "outputs": [
        {
          "internalType": "uint256",
          "name": "pnkBalance",
          "type": "uint256"
        },
        {
          "internalType": "uint256",
          "name": "newCourtStake",
          "type": "uint256"
        },
        {
          "internalType": "uint256",
          "name": "availablePenalty",
          "type": "uint256"
        }
      ],
      "stateMutability": "nonpayable",
      "type": "function"
    },
    {
      "inputs": [
        {
          "internalType": "address",
          "name": "_account",
          "type": "address"
        },
        {
          "internalType": "uint96",
          "name": "_courtID",
          "type": "uint96"
        },
        {
          "internalType": "uint256",
          "name": "_reward",
          "type": "uint256"
        }
      ],
      "name": "setStakeReward",
      "outputs": [
        {
          "internalType": "bool",
          "name": "success",
          "type": "bool"
        }
      ],
      "stateMutability": "nonpayable",
      "type": "function"
    },
    {
      "inputs": [],
      "name": "totalStaked",
      "outputs": [
        {
          "internalType": "uint256",
          "name": "",
          "type": "uint256"
        }
      ],
      "stateMutability": "view",
      "type": "function"
    },
    {
      "inputs": [
        {
          "internalType": "address",
          "name": "_account",
          "type": "address"
        },
        {
          "internalType": "uint256",
          "name": "_relativeAmount",
          "type": "uint256"
        }
      ],
      "name": "unlockStake",
      "outputs": [],
      "stateMutability": "nonpayable",
      "type": "function"
    },
    {
      "inputs": [
        {
          "internalType": "address",
          "name": "newImplementation",
          "type": "address"
        },
        {
          "internalType": "bytes",
          "name": "data",
          "type": "bytes"
        }
      ],
      "name": "upgradeToAndCall",
      "outputs": [],
      "stateMutability": "payable",
      "type": "function"
    },
    {
      "inputs": [
        {
          "internalType": "address",
          "name": "_account",
          "type": "address"
        },
        {
          "internalType": "uint96",
          "name": "_courtID",
          "type": "uint96"
        },
        {
          "internalType": "uint256",
          "name": "_newStake",
          "type": "uint256"
        },
        {
          "internalType": "bool",
          "name": "_noDelay",
          "type": "bool"
        }
      ],
      "name": "validateStake",
      "outputs": [
        {
          "internalType": "uint256",
          "name": "pnkDeposit",
          "type": "uint256"
        },
        {
          "internalType": "uint256",
          "name": "pnkWithdrawal",
          "type": "uint256"
        },
        {
          "internalType": "enum StakingResult",
          "name": "stakingResult",
          "type": "uint8"
        }
      ],
      "stateMutability": "nonpayable",
      "type": "function"
    },
    {
      "inputs": [],
      "name": "version",
      "outputs": [
        {
          "internalType": "string",
          "name": "",
          "type": "string"
        }
      ],
      "stateMutability": "view",
      "type": "function"
    },
    {
      "inputs": [
        {
          "internalType": "address",
          "name": "_account",
          "type": "address"
        }
      ],
      "name": "withdrawLeftoverPNK",
      "outputs": [],
      "stateMutability": "nonpayable",
      "type": "function"
    }
  ],
  "transactionHash": "0x5884d2e6ecb6d9a3c8c4a7caa096b51639c2cc8c1b35a075d27d8f8b76330c31",
  "args": [],
  "numDeployments": 1,
  "solcInputHash": "7120e939c323b678aae40a88db815cc2",
  "bytecode": "0x60a080604052346100c157306080525f516020612fbf5f395f51905f525460ff8160401c166100b3576002600160401b03196001600160401b03821601610060575b604051612ef990816100c68239608051818181610a770152610ca50152f35b6001600160401b0319166001600160401b039081175f516020612fbf5f395f51905f525581527fc7f505b2f371ae2175ee4913f4499e1f2633a7b5936321eed1cdaeb6115181d290602090a15f80610041565b62dc149f60e41b5f5260045ffd5b5f80fdfe60806040526004361015610011575f80fd5b5f3560e01c806303432744146102e457806306dfc967146102df5780630b274f2e146102da5780630e083ec9146102d55780631b92bbbe146102d057806321e1625e146102cb57806323f61de4146102c657806335975f4a146102c15780634f1ef286146102bc57806352d1902d146102b7578063543f8a36146102b257806354fd4d50146102ad57806356acb050146102a85780635a68c154146102a35780635d2d78461461029e5780636624192f14610299578063664bffc31461029457806369f458771461028f578063771a27cb1461028a5780637eab309e14610285578063817b1cd214610280578063823cfd701461027b5780638d3771bb146102765780638da5cb5b14610271578063965af6c71461026c5780639d560867146102675780639fbb56f114610262578063a6f9dae11461025d578063aa9ebfb714610258578063aac03ad214610253578063b1c9fe6e1461024e578063b4ebe83814610249578063b888adfa14610244578063c057eca71461023f578063c41bda611461023a578063c70ba3b914610235578063ccbac9f514610230578063d045e0021461022b578063d09f392d14610226578063d1c1df4814610221578063d605787b1461021c578063dca5f6b014610217578063dd5e5cb514610212578063f2f4eb261461020d5763f6b4d82d14610208575f80fd5b611f9d565b611f6a565b611f40565b611ef8565b611ed2565b611e7e565b611e50565b611da4565b611d87565b611d0d565b611c4e565b611c31565b611c14565b611b22565b611afa565b6117ef565b6116d6565b61168c565b61165d565b6115d4565b6114dd565b6114b8565b61148e565b611464565b611447565b61115a565b611118565b610fdd565b610fa4565b610f26565b610ef3565b610ed6565b610eb9565b610e43565b610d37565b610c8b565b610a2d565b610750565b610733565b610693565b610665565b610648565b610366565b610314565b6102f7565b5f9103126102f357565b5f80fd5b346102f3575f3660031901126102f3576020600554604051908152f35b346102f35760203660031901126102f3576004356001600160a01b035f5416330361033e57600d55005b7f596dcdb8000000000000000000000000000000000000000000000000000000005f5260045ffd5b346102f3575f3660031901126102f35760015460a01c60ff1661038881611ad8565b806104dc575061039a60045442612026565b600254116104b4576005541561048c576103cb6103bf6006546001600160a01b031690565b6001600160a01b031690565b803b156102f3575f809160046040518094819363f8413b0760e01b83525af180156104875761046d575b5061041f7401000000000000000000000000000000000000000060ff60a01b196001541617600155565b61042842600455565b7f31f72b44f546d9e7eaec13f65636997665e15f134a81c82924f568f5c0d07b9361046861045c60015460ff9060a01c1690565b60405191829182611ae7565b0390a1005b8061047b5f610481936109a4565b806102e9565b5f6103f5565b612042565b7f1a937bfc000000000000000000000000000000000000000000000000000000005f5260045ffd5b7fbc26f968000000000000000000000000000000000000000000000000000000005f5260045ffd5b6104e581611ad8565b600181036105d857505f60206105066103bf6006546001600160a01b031690565b6004604051809481937f910f03a60000000000000000000000000000000000000000000000000000000083525af180156104875761054b915f916105a9575b50600755565b600754156105815761057c7402000000000000000000000000000000000000000060ff60a01b196001541617600155565b61041f565b7fcba65b92000000000000000000000000000000000000000000000000000000005f5260045ffd5b6105cb915060203d6020116105d1575b6105c381836109a4565b810190612033565b5f610545565b503d6105b9565b806105e4600292611ad8565b0361041f57600554151580610632575b61060a5761057c60ff60a01b1960015416600155565b7f6b249f2f000000000000000000000000000000000000000000000000000000005f5260045ffd5b5061063f60045442612026565b600354116105f4565b346102f3575f3660031901126102f3576020600854604051908152f35b346102f3575f3660031901126102f3576020600354604051908152f35b6001600160a01b038116036102f357565b346102f35760403660031901126102f3576004356106b081610682565b602435906001600160a01b03600154163303610725576001600160a01b031690815f52600b602052600260405f2001805491808301809311610720577f7a81a4ef419d50dbb5deb116fb983bf6ca7716bcbc84cd1cd2be81ccea9078b0926040925581519081525f6020820152a2005b612004565b628448c760e31b5f5260045ffd5b346102f3575f3660031901126102f3576020600d54604051908152f35b346102f35760203660031901126102f35760043560015460a01c60ff1661077681611ad8565b61096857600854600954918282106109405781816107c0936107a161079c87958661205b565b612018565b111561093857506107ba916107b591612026565b61204d565b8261205b565b905b8181106107d4576107d282600955565b005b806107ea610868925f52600c60205260405f2090565b6107ff6103bf6001546001600160a01b031690565b906020815461081e610817826001600160a01b031690565b9160a01c90565b9360018401945f865493604051998a9586948593630761c14d60e01b8552600485016001600160601b036040929594936001600160a01b0360608401971683521660208201520152565b03925af18015610487576001945f9161090a575b50156108ab575b50506108a561089a825f52600c60205260405f2090565b60015f918281550155565b016107c2565b54907fb588834590b84623e5ca8f8a3a808b981214a1f0cba52ddd7fd3bbb6d10c7fe46001600160601b036108ea6001600160a01b0385169460a01c90565b92546040519081529216926001600160a01b031691602090a35f80610883565b61092b915060203d8111610931575b61092381836109a4565b810190612068565b5f61087c565b503d610919565b9150506107ba565b7f3a946f67000000000000000000000000000000000000000000000000000000005f5260045ffd5b7f4d269093000000000000000000000000000000000000000000000000000000005f5260045ffd5b634e487b7160e01b5f52604160045260245ffd5b90601f8019910116810190811067ffffffffffffffff8211176109c657604052565b610990565b67ffffffffffffffff81116109c657601f01601f191660200190565b81601f820112156102f3578035906109fe826109cb565b92610a0c60405194856109a4565b828452602083830101116102f357815f926020809301838601378301015290565b60403660031901126102f357600435610a4581610682565b60243567ffffffffffffffff81116102f357610a659036906004016109e7565b610a6d612593565b6001600160a01b037f000000000000000000000000000000000000000000000000000000000000000016803014908115610c50575b50610c28576001600160a01b0382166040517f52d1902d000000000000000000000000000000000000000000000000000000008152602081600481855afa5f9181610c07575b50610b22577f0c760937000000000000000000000000000000000000000000000000000000005f526001600160a01b03841660045260245ffd5b7f360894a13ba1a3210667c828492db98dca3e2076cc3735a920a3ca505d382bbc8103610bdc5750827f360894a13ba1a3210667c828492db98dca3e2076cc3735a920a3ca505d382bbc557fbc7cd75a20ee27fd9adebab32041f755214dbc6bffa90cc0225b39da2e5c2d3b5f80a2805180610b9a57005b5f926020849301905af4610bac61209a565b5015610bb457005b7f736436ba000000000000000000000000000000000000000000000000000000005f5260045ffd5b7faa1d49a4000000000000000000000000000000000000000000000000000000005f5260045260245ffd5b610c2191925060203d6020116105d1576105c381836109a4565b905f610ae8565b7fe07c8dba000000000000000000000000000000000000000000000000000000005f5260045ffd5b9050610c837f360894a13ba1a3210667c828492db98dca3e2076cc3735a920a3ca505d382bbc546001600160a01b031690565b14155f610aa2565b346102f3575f3660031901126102f3576001600160a01b037f0000000000000000000000000000000000000000000000000000000000000000163003610c285760206040517f360894a13ba1a3210667c828492db98dca3e2076cc3735a920a3ca505d382bbc8152f35b60206040818301928281528451809452019201905f5b818110610d185750505090565b82516001600160601b0316845260209384019390920191600101610d0b565b346102f35760203660031901126102f3576001600160a01b03600435610d5c81610682565b165f52600b60205260405f20604051908190610d8b610d818254809560209181520190565b915f5260205f2090565b925f935b816001860110610dfd5791610dc8948492610dbc945491818110610de3575b10610dcc575b5003826109a4565b60405191829182610cf5565b0390f35b60601c6001600160601b031681526020015f610db4565b6001600160601b0383168452926001906020019301610dae565b9160016040600292610e388654610e25836001600160601b0383166001600160601b03169052565b60601c6001600160601b03166020830152565b019301940193610d8f565b346102f3575f3660031901126102f3576040805190610e6281836109a4565b6005825260208201917f322e302e3000000000000000000000000000000000000000000000000000000083528151928391602083525180918160208501528484015e5f828201840152601f01601f19168101030190f35b346102f3575f3660031901126102f3576020600954604051908152f35b346102f3575f3660031901126102f3576020600e54604051908152f35b346102f35760403660031901126102f3576001600160a01b0360015416330361072557610f21600554612178565b600555005b346102f35760203660031901126102f3576001600160a01b03600435610f4b81610682565b165f52600b6020526020600160405f2001541515604051908152f35b6001600160601b038116036102f357565b60609060031901126102f357600435610f9081610682565b90602435610f9d81610f67565b9060443590565b346102f357610fb236610f78565b6001600160a01b0360019392935416330361072557602092610fd392612184565b6040519015158152f35b346102f35760203660031901126102f357600435610ffa81610682565b6110038161251e565b9081156110f0575f6001611028836001600160a01b03165f52600b60205260405f2090565b015561103f6103bf6001546001600160a01b031690565b90813b156102f3576040517f42c37fa30000000000000000000000000000000000000000000000000000000081526001600160a01b038216600482015260248101849052915f908390604490829084905af1908115610487577f71bb1b604559acc3db697ccf2aa4228d727cd5b133d6ffa419518d51c117c95c926001600160a01b03926110dc575b50604051938452169180602081015b0390a2005b8061047b5f6110ea936109a4565b5f6110c8565b7fdc604fd1000000000000000000000000000000000000000000000000000000005f5260045ffd5b346102f35761112636610f78565b6001600160a01b0360019392935416330361072557606092611147926122f7565b9060405192835260208301526040820152f35b346102f35760e03660031901126102f35760043561117781610682565b6024359061118482610682565b60443560643560843561119681610682565b60a4359160c435937ff0c57e16840df040f15088dc2f81fe391c3923bec73e23a9662efc9c229c6a0e54966111e76111d96111d58a60ff9060401c1690565b1590565b9867ffffffffffffffff1690565b8880611433575b15908161140b575b506113fd576112b59688611257600167ffffffffffffffff197ff0c57e16840df040f15088dc2f81fe391c3923bec73e23a9662efc9c229c6a0e5416177ff0c57e16840df040f15088dc2f81fe391c3923bec73e23a9662efc9c229c6a0e55565b611343576001600160a01b0394939291858092166001600160a01b03195f5416175f55166001600160a01b0319600154161760015560025560035542600455166001600160a01b03196006541617600655600d55600e556001600955565b6112bb57005b61131068ff0000000000000000197ff0c57e16840df040f15088dc2f81fe391c3923bec73e23a9662efc9c229c6a0e54167ff0c57e16840df040f15088dc2f81fe391c3923bec73e23a9662efc9c229c6a0e55565b604051600181527fc7f505b2f371ae2175ee4913f4499e1f2633a7b5936321eed1cdaeb6115181d2908060208101610468565b6113a36801000000000000000068ff0000000000000000197ff0c57e16840df040f15088dc2f81fe391c3923bec73e23a9662efc9c229c6a0e5416177ff0c57e16840df040f15088dc2f81fe391c3923bec73e23a9662efc9c229c6a0e55565b6001600160a01b0394939291858092166001600160a01b03195f5416175f55166001600160a01b0319600154161760015560025560035542600455166001600160a01b03196006541617600655600d55600e556001600955565b62dc149f60e41b5f5260045ffd5b303b1591508161141e575b50155f6111f6565b6001915067ffffffffffffffff16145f611416565b50600167ffffffffffffffff8216106111ee565b346102f3575f3660031901126102f3576020600f54604051908152f35b346102f35760203660031901126102f3576004356001600160a01b035f5416330361033e57600255005b346102f35760203660031901126102f3576004356001600160a01b035f5416330361033e57600e55005b346102f3575f3660031901126102f35760206001600160a01b035f5416604051908152f35b346102f35760403660031901126102f3576004356114fa81610682565b6024356001600160a01b03600154163303610725576001600160a01b03821691825f52600b602052600260405f200191825481810390811161072057604085927f7a81a4ef419d50dbb5deb116fb983bf6ca7716bcbc84cd1cd2be81ccea9078b0926115739655815190815260016020820152a261251e565b8061157a57005b6040519081527f819a3744490c627e221b71743857691f9c23bf56a1ecc5351f886cfd4c3187d99080602081016110d7565b60409060031901126102f3576004356115c481610682565b906024356115d181610f67565b90565b346102f3576115e2366115ac565b906001600160a01b03600154169133830361072557604051630761c14d60e01b81526001600160a01b039290921660048301526001600160601b031660248201525f604482018190529091602091839160649183915af180156104875761164557005b6107d29060203d6020116109315761092381836109a4565b346102f35760203660031901126102f357602061168460043561167f81610682565b61251e565b604051908152f35b346102f35760203660031901126102f3576004356116a981610682565b6001600160a01b035f5416330361033e576001600160a01b03166001600160a01b03195f5416175f555f80f35b346102f35760203660031901126102f3576004356116f381610682565b6001600160a01b0360015416330361072557611728611723826001600160a01b03165f52600b60205260405f2090565b6120c9565b8051805b61173257005b5f9060206117b161174e6103bf6001546001600160a01b031690565b61177061176361175d86612018565b8861256c565b516001600160601b031690565b604051958680948193630761c14d60e01b83528b600484016040906001600160601b035f9395946001600160a01b0360608401971683521660208201520152565b03925af1918215610487576117cb926117d1575b50612178565b8061172c565b6117e89060203d81116109315761092381836109a4565b505f6117c5565b346102f35760a03660031901126102f35760043561180c81610682565b6024359061181982610f67565b604435606435608435916001600160a01b0360015416330361072557611850846001600160a01b03165f52600b60205260405f2090565b9181156119e4575061186285856125a6565b156119d5575b6118776001830191825461205b565b90555b83606084901b81175f5b80156118e4576001840154604080516001600160601b038a16815260208101889052908101919091526001600160a01b038716907f70ca4ec64687bf265f39041896f3dbf10b9f650503cb38f2b3569fdce7489c369080606081016110d7565b60016001600160601b03841661191c8488611917611909855b6001600160601b031690565b5f52600a60205260405f2090565b612b54565b0361192957506001611884565b9160c0611989916119456103bf6001546001600160a01b031690565b60405180809581947f1f5a0dd2000000000000000000000000000000000000000000000000000000008352600483019190916001600160601b036020820193169052565b03915afa908115610487575f916119a2575b5091611884565b6119c3915060c03d81116119ce575b6119bb81836109a4565b810190612656565b50505050505f61199b565b503d6119b1565b6119df858361262e565b611868565b90506119f560018301918254612026565b90558161187a579190825492836001600160601b038616945b611a1d575b509091925061187a565b846001600160601b03611a4e611a3b611a3585612018565b866125c9565b90546001600160601b039160031b1c1690565b1614611a6357611a5d90612178565b80611a0e565b8192939450611a93611a8d611a87611a3b611a81611ab29654612018565b876125c9565b92612018565b846125c9565b9091906001600160601b038084549260031b9316831b921b1916179055565b611abb816125fd565b9082915f611a13565b634e487b7160e01b5f52602160045260245ffd5b60031115611ae257565b611ac4565b919060208301926003821015611ae25752565b346102f3575f3660031901126102f357610dc860ff60015460a01c1660405191829182611ae7565b346102f35760403660031901126102f357600435611b3f81610f67565b60243567ffffffffffffffff81116102f357611b5f9036906004016109e7565b6001600160a01b03600154163303610725578051602011611c035760206001600160601b03910151915b165f52600a60205260405f20908154611bdb576001811115611bb35781556107d2906002016126bd565b7f081fb0a9000000000000000000000000000000000000000000000000000000005f5260045ffd5b7fdb73328b000000000000000000000000000000000000000000000000000000005f5260045ffd5b506001600160601b03600691611b89565b346102f3575f3660031901126102f3576020600454604051908152f35b346102f3575f3660031901126102f3576020600254604051908152f35b346102f35760203660031901126102f357600435611c6b81610682565b6001600160a01b035f5416330361033e576001600160a01b03166001600160a01b03196006541617806006556001611ca8815460ff9060a01c1690565b611cb181611ad8565b14611cb857005b611cca906001600160a01b03166103bf565b803b156102f3575f809160046040518094819363f8413b0760e01b83525af1801561048757611cf557005b8061047b5f6107d2936109a4565b801515036102f357565b346102f35760803660031901126102f357600435611d2a81610682565b602435611d3681610f67565b60443560643591611d4683611d03565b6001600160a01b0360015416330361072557611d619361272c565b909160405192606084019184526020840152600a821015611ae257829160408301520390f35b346102f3575f3660031901126102f3576020600754604051908152f35b346102f35760603660031901126102f357600435611dc181610f67565b60243560443560ff60015460a01c166003811015611ae257600203611e28576001600160601b03611e0293165f52600a60205260405f2091600754926129c0565b604080516001600160a01b039390931683526001600160601b0391909116602083015290f35b7f0c3d002f000000000000000000000000000000000000000000000000000000005f5260045ffd5b346102f35760403660031901126102f3576001600160a01b0360015416330361072557610f21600554612585565b346102f3576080611e8e366115ac565b906001600160a01b0381165f52600b60205260405f20611eb86001820154936002830154936125a6565b905491604051938452602084015260408301526060820152f35b346102f3575f3660031901126102f35760206001600160a01b0360065416604051908152f35b346102f35760203660031901126102f3576001600160a01b03600435611f1d81610682565b165f52600b6020526040805f206002600182015491015482519182526020820152f35b346102f35760203660031901126102f3576004356001600160a01b035f5416330361033e57600355005b346102f3575f3660031901126102f35760206001600160a01b0360015416604051908152f35b905f5260205260405f2090565b346102f35760203660031901126102f3576004355f52600c60205260405f206001815491015490610dc860405192826001600160a01b03859460a01c9116846001600160601b036040929594936001600160a01b0360608401971683521660208201520152565b634e487b7160e01b5f52601160045260245ffd5b5f1981019190821161072057565b9190820391821161072057565b908160209103126102f3575190565b6040513d5f823e3d90fd5b906001820180921161072057565b9190820180921161072057565b908160209103126102f357516115d181611d03565b916120969183549060031b91821b915f19901b19161790565b9055565b3d156120c4573d906120ab826109cb565b916120b960405193846109a4565b82523d5f602084013e565b606090565b604051815480825290929183906120e260208301610d81565b925f905b80600183011061213f5761210c945491818110612125575b1061210e575b5003836109a4565b565b60601c6001600160601b031681526020015f612104565b6001600160601b03831684529260019060200193016120fe565b916002919350604060019161216a8754610e25836001600160601b0383166001600160601b03169052565b0194019201859293916120e6565b8015610720575f190190565b909180156122ef5761219683836125a6565b9081156122e757808201809211610720576121e060016121c7856001600160a01b03165f52600b60205260405f2090565b6121d187876125a6565b156122d8575b0191825461205b565b815583606084901b81175f5b8015612256575050509161224e6001600160a01b03927f70ca4ec64687bf265f39041896f3dbf10b9f650503cb38f2b3569fdce7489c369454906040519485941696846040919493926001600160601b03606083019616825260208201520152565b0390a2600190565b60016001600160601b0384166122738488611917611909856118fd565b03612280575060016121ec565b9160c061229c916119456103bf6001546001600160a01b031690565b03915afa908115610487575f916122b5575b50916121ec565b6122cd915060c03d81116119ce576119bb81836109a4565b50505050505f6122ae565b6122e2878261262e565b6121d7565b505050505f90565b505050600190565b9192906001600160a01b03831693845f52600b60205260405f20948192600161232082886125a6565b9701928354908110612516575b841561250a57505f96848110156124f6575b5061235b866001600160a01b03165f52600b60205260405f2090565b600181019061236b868354612026565b82558815612471575b50818892939495969760601b175f9084915b80156123e457505050916123dc7f70ca4ec64687bf265f39041896f3dbf10b9f650503cb38f2b3569fdce7489c369354604051938493846040919493926001600160601b03606083019616825260208201520152565b0390a2549291565b929350909160016001600160601b038416612406848d611917611909856118fd565b03612419575060015b9089939291612386565b9160c0612435916119456103bf6001546001600160a01b031690565b03915afa908115610487575f9161244e575b509161240f565b612466915060c03d81116119ce576119bb81836109a4565b50505050505f612447565b96875497886001600160601b038516995b61248f575b505096612374565b896001600160601b036124a7611a3b611a3585612018565b16146124bc576124b690612178565b80612482565b84959697989950906124e46124e992611a93611a8d611a87611a3b611a81879b9a9b54612018565b6125fd565b879695949392915f612487565b90965083810390811161072057955f61233f565b9695505f949350505050565b93508361232d565b6001600160a01b03165f52600b60205260405f208054158061254c575b15612547576001015490565b505f90565b5060028101541561253b565b634e487b7160e01b5f52603260045260245ffd5b80518210156125805760209160051b010190565b612558565b5f1981146107205760010190565b6001600160a01b035f5416330361033e57565b906115d1916001600160601b0382165f52600a60205260601b1760405f20612afc565b9190918054831015612580575f52600c600160205f2084821c0193160290565b634e487b7160e01b5f52603160045260245ffd5b80548015612629575f19019061261382826125c9565b6001600160601b0382549160031b1b1916905555565b6125e9565b90815491680100000000000000008310156109c65782611a9391600161210c950181556125c9565b91908260c09103126102f357815161266d81610f67565b91602081015161267c81611d03565b9160408201519160608101519160a0608083015192015190565b805415612580575f5260205f20905f90565b8054821015612580575f5260205f2001905f90565b8054680100000000000000008110156109c6576126df916001820181556126a8565b8154905f199060031b1b19169055565b805490680100000000000000008210156109c65781612716916001612096940181556126a8565b819391549060031b91821b915f19901b19161790565b93929190915f905f95612750816001600160a01b03165f52600b60205260405f2090565b9361275b86836125a6565b9586821193841561297a576127708884612026565b975b875481158091819261296e575b506129595780612951575b61293d57856128c5575b5060015460a01c60ff166127a781611ad8565b151590816128bc575b5061282c575050505f146127da5750506127d46127cf82600f5461205b565b600f55565b91905f90565b918091945093600260018201549101548082115f14612822576127fc91612026565b80915b1161281a575b506128156127cf84600f54612026565b6127d4565b92505f612805565b50505f80916127ff565b90809496506001600160601b039295507fa59837f9df3fb816613d84e8fefe31ec8d6e67ff43df6533e3f793a3f53aade99350600161288661286f600854612585565b61287881600855565b5f52600c60205260405f2090565b60a084901b6001600160a01b0319166001600160a01b039890981697881781550155604051938452169291602090a39190600190565b9050155f6127b0565b6128d38960018a015461205b565b89600d54809211928315612929575b505050612916576128f588600f5461205b565b600e5410612903575f612794565b505050505050505090505f905f90600890565b505050505050505090505f905f90600790565b61293492935061205b565b115f89816128e2565b50505050505050505090505f905f90600990565b50831561278a565b5050505050505050505090505f905f90600490565b6004915010155f61277f565b6129848389612026565b97612772565b634e487b7160e01b5f52601260045260245ffd5b81156129a8570690565b61298a565b8181029291811591840414171561072057565b919392909360028301946129e06129d687612696565b90549060031b1c90565b15612af05790612a20612a359392612a1260405193849260208401968791606093918352602083015260408201520190565b03601f1981018352826109a4565b519020612a2f6129d686612696565b9061299e565b905f928454915b805483612a4c6107b588846129ad565b1015612aba576001905b80821115612a66575b5050612a3c565b9094612a7b86612a7689856129ad565b61205b565b90612a896129d6838b6126a8565b91828210612aab5750612aa591612a9f91612026565b95612585565b90612a56565b93975095505050935f80612a5f565b506004919550612ad99350612aec94925001905f5260205260405f2090565b54906001600160601b038260601c921690565b9091565b5050505090505f905f90565b905f526003810160205260405f20548015612b1d5760026129d692016126a8565b50505f90565b80548015612629575f190190612b3982826126a8565b8154905f199060031b1b1916905555565b81156129a8570490565b6003810190612b6b8483905f5260205260405f2090565b5480612cbf575082612b7e575b50505050565b612bdd9360018201805480155f14612c8357505060028201612bc78282549583612ba98989966126ef565b600185141580612c68575b612be6575b50905f5260205260405f2090565b555f838152600483016020526040902055612def565b5f808080612b78565b612c61612bf4885487612b4a565b91600489015f612c3f612c0f8684905f5260205260405f2090565b5495612c31612c1d8c61204d565b95612c2b6129d684836126a8565b906126ef565b83905f5260205260405f2090565b5581612c538587905f5260205260405f2090565b55905f5260205260405f2090565b555f612bb9565b50612c7d612c7586612018565b88549061299e565b15612bb4565b82612ca895612ca06129d6612c9a612bc795612018565b866126a8565b968794612b23565b611f9088612cb98660028a016126a8565b9061207d565b919280949194155f14612d185750925f612d0261210c956002840195612cf56126df87612cef6129d6828c6126a8565b996126a8565b611f9086600187016126ef565b555f828152600482016020526040812055612d97565b919250506002830191612d2e6129d682856126a8565b8203612d3a5750505050565b612bdd93612d7883612d4f6129d685886126a8565b1180159490612d7d57612cb984612d72612d6c6129d6838b6126a8565b84612026565b976126a8565b612e47565b612cb984612d7283612d926129d6848c6126a8565b612026565b90805b612da357505050565b5f1981019081116107205781549081156129a85704612dc581600284016126a8565b90549060031b1c838103908111610720578190612de861271683600287016126a8565b9055612d9a565b90805b612dfb57505050565b5f1981019081116107205781549081156129a85704612e1d81600284016126a8565b90549060031b1c838101809111610720578190612e4061271683600287016126a8565b9055612df2565b919290805b612e565750505050565b5f1981019081116107205782549081156129a857048315612e9b5780612e96612e8984612a766129d68560028a016126a8565b612cb983600288016126a8565b612e4c565b612ea881600285016126a8565b90549060031b1c82810390811161072057612e968291612e8956fea26469706673582212208562e9e79f11663fdc9822346c2e7b88efbf452848b2ae21b5632abe13d17a2864736f6c634300081e0033f0c57e16840df040f15088dc2f81fe391c3923bec73e23a9662efc9c229c6a0e",
  "devdoc": {
    "errors": {
      "AlreadyInitialized()": [
        {
          "details": "The contract is already initialized."
        }
      ],
      "NotInitializing()": [
        {
          "details": "The contract is not initializing."
        }
      ]
    },
    "events": {
      "Initialized(uint64)": {
        "details": "Triggered when the contract has been initialized or reinitialized."
      },
      "LeftoverPNK(address,uint256)": {
        "params": {
          "_account": "The account of the juror.",
          "_amount": "The amount of PNK available."
        }
      },
      "LeftoverPNKWithdrawn(address,uint256)": {
        "params": {
          "_account": "The account of the juror withdrawing PNK.",
          "_amount": "The amount of PNK withdrawn."
        }
      },
      "NewPhase(uint8)": {
        "params": {
          "_phase": "The new phase."
        }
      },
      "StakeDelayed(address,uint96,uint256)": {
        "params": {
          "_address": "The address of the juror.",
          "_amount": "The amount of tokens staked in the court.",
          "_courtID": "The ID of the court."
        }
      },
      "StakeDelayedExecutionFailed(address,uint96,uint256)": {
        "params": {
          "_address": "The address of the juror.",
          "_amount": "The amount of tokens staked in the court.",
          "_courtID": "The ID of the court."
        }
      },
      "StakeLocked(address,uint256,bool)": {
        "params": {
          "_address": "The address of the juror.",
          "_relativeAmount": "The amount of tokens locked.",
          "_unlock": "Whether the stake is locked or unlocked."
        }
      },
      "StakeSet(address,uint256,uint256,uint256)": {
        "params": {
          "_address": "The address of the juror.",
          "_amount": "The amount of tokens staked in the court.",
          "_amountAllCourts": "The amount of tokens staked in all courts.",
          "_courtID": "The ID of the court."
        }
      },
      "Upgraded(address)": {
        "params": {
          "newImplementation": "Address of the new implementation the proxy is now forwarding calls to."
        }
      }
    },
    "kind": "dev",
    "methods": {
      "changeMaxDrawingTime(uint256)": {
        "params": {
          "_maxDrawingTime": "The new value for the `maxDrawingTime` storage variable."
        }
      },
      "changeMaxStakePerJuror(uint256)": {
        "params": {
          "_maxStakePerJuror": "The new `maxStakePerJuror` storage variable."
        }
      },
      "changeMaxTotalStaked(uint256)": {
        "params": {
          "_maxTotalStaked": "The new `maxTotalStaked` storage variable."
        }
      },
      "changeMinStakingTime(uint256)": {
        "params": {
          "_minStakingTime": "The new value for the `minStakingTime` storage variable."
        }
      },
      "changeOwner(address)": {
        "params": {
          "_owner": "The new owner."
        }
      },
      "changeRandomNumberGenerator(address)": {
        "params": {
          "_rng": "The new random number generator."
        }
      },
      "constructor": {
        "custom:oz-upgrades-unsafe-allow": "constructor"
      },
      "createDisputeHook(uint256,uint256)": {
        "params": {
          "_disputeID": "The ID of the dispute.",
          "_roundID": "The ID of the round."
        }
      },
      "createTree(uint96,bytes)": {
        "params": {
          "_courtID": "The ID of the court.",
          "_extraData": "Extra data that contains the number of children each node in the tree should have."
        }
      },
      "draw(uint96,uint256,uint256)": {
        "details": "that this function reverts if the sum of all values in the tree is 0. `O(k * log_k(n))` where `k` is the maximum number of children per node in the tree,  and `n` is the maximum number of nodes ever appended.",
        "params": {
          "_coreDisputeID": "Index of the dispute in Kleros Core.",
          "_courtID": "The ID of the court.",
          "_nonce": "Nonce to hash with random number."
        },
        "returns": {
          "drawnAddress": "The drawn address."
        }
      },
      "executeDelayedStakes(uint256)": {
        "params": {
          "_iterations": "The number of delayed stakes to execute."
        }
      },
      "forcedUnstake(address,uint96)": {
        "details": "`O(n * (p * log_k(j)) )` where `n` is the number of courts the juror has staked in, `p` is the depth of the court tree, `k` is the minimum number of children per node of one of these courts' sortition sum tree, and `j` is the maximum number of jurors that ever staked in one of these courts simultaneously.",
        "params": {
          "_account": "The juror to unstake.",
          "_courtID": "The ID of the court."
        }
      },
      "forcedUnstakeAllCourts(address)": {
        "details": "`O(n * (p * log_k(j)) )` where `O(n * (p * log_k(j)) )` where `n` is the number of courts the juror has staked in, `p` is the depth of the court tree, `k` is the minimum number of children per node of one of these courts' sortition sum tree, and `j` is the maximum number of jurors that ever staked in one of these courts simultaneously.",
        "params": {
          "_account": "The juror to unstake."
        }
      },
      "getJurorBalance(address,uint96)": {
        "params": {
          "_courtID": "The ID of the court.",
          "_juror": "The address of the juror."
        },
        "returns": {
          "nbCourts": "The number of courts the juror has directly staked in.",
          "stakedInCourt": "The amount of tokens staked in the specified court including locked tokens and penalty deductions.",
          "totalLocked": "The total amount of tokens locked in disputes.",
          "totalStakedPnk": "The total amount of tokens staked including locked tokens and penalty deductions. Equivalent to the effective stake in the General court."
        }
      },
      "getJurorCourtIDs(address)": {
        "params": {
          "_juror": "The address of the juror."
        }
      },
      "getJurorLeftoverPNK(address)": {
        "params": {
          "_juror": "The address of the juror."
        },
        "returns": {
          "_0": "Whether the juror has leftover PNK."
        }
      },
      "initialize(address,address,uint256,uint256,address,uint256,uint256)": {
        "params": {
          "_core": "The KlerosCore.",
          "_maxDrawingTime": "Time after which the drawing phase can be switched",
          "_maxStakePerJuror": "The maximum amount of PNK a juror can stake across the courts.",
          "_maxTotalStaked": "The maximum amount of PNK that all the jurors can stake across the courts.",
          "_minStakingTime": "Minimal time to stake",
          "_owner": "The owner.",
          "_rng": "The random number generator."
        }
      },
      "isJurorStaked(address)": {
        "params": {
          "_juror": "The address of the juror."
        },
        "returns": {
          "_0": "Whether the juror is staked or not."
        }
      },
      "lockStake(address,uint256)": {
        "params": {
          "_account": "The address of the juror.",
          "_relativeAmount": "The amount to lock."
        }
      },
      "postDrawHook(uint256,uint256)": {
        "params": {
          "_disputeID": "The ID of the dispute.",
          "_roundID": "The ID of the round."
        }
      },
      "proxiableUUID()": {
        "details": "IMPORTANT: A proxy pointing at a proxiable contract should not be considered proxiable itself, because this risks bricking a proxy that upgrades to it, by delegating to itself until out of gas. Thus it is critical that this function revert if invoked through a proxy. This is guaranteed by the if statement."
      },
      "setStake(address,uint96,uint256,uint256,uint256)": {
        "details": "`O(n + p * log_k(j))` where `n` is the number of courts the juror has staked in, `p` is the depth of the court tree, `k` is the minimum number of children per node of one of these courts' sortition sum tree, and `j` is the maximum number of jurors that ever staked in one of these courts simultaneously.",
        "params": {
          "_account": "The address of the juror.",
          "_courtID": "The ID of the court.",
          "_newStake": "The new stake.",
          "_pnkDeposit": "The amount of PNK to be deposited.",
          "_pnkWithdrawal": "The amount of PNK to be withdrawn."
        }
      },
      "setStakePenalty(address,uint96,uint256)": {
        "details": "`O(n + p * log_k(j))` where `n` is the number of courts the juror has staked in, `p` is the depth of the court tree, `k` is the minimum number of children per node of one of these courts' sortition sum tree, and `j` is the maximum number of jurors that ever staked in one of these courts simultaneously.",
        "params": {
          "_account": "The address of the juror.",
          "_courtID": "The ID of the court.",
          "_penalty": "The amount of PNK to be deducted."
        },
        "returns": {
          "availablePenalty": "The amount of PNK that was actually deducted.",
          "newCourtStake": "The updated stake of the juror in the court.",
          "pnkBalance": "The updated total PNK balance of the juror, including the penalty."
        }
      },
      "setStakeReward(address,uint96,uint256)": {
        "details": "`O(n + p * log_k(j))` where `O(n + p * log_k(j))` where `n` is the number of courts the juror has staked in, `p` is the depth of the court tree, `k` is the minimum number of children per node of one of these courts' sortition sum tree, and `j` is the maximum number of jurors that ever staked in one of these courts simultaneously.",
        "params": {
          "_account": "The address of the juror.",
          "_courtID": "The ID of the court.",
          "_reward": "The amount of PNK to be deposited as a reward."
        },
        "returns": {
          "success": "True if the reward was added successfully."
        }
      },
      "unlockStake(address,uint256)": {
        "params": {
          "_account": "The address of the juror.",
          "_relativeAmount": "The amount to unlock."
        }
      },
      "upgradeToAndCall(address,bytes)": {
        "details": "Reverts if the execution is not performed via delegatecall or the execution context is not of a proxy with an ERC1967-compliant implementation pointing to self.",
        "params": {
          "data": "Data used in a delegate call to `newImplementation` if non-empty. This will typically be an encoded function call, and allows initializing the storage of the proxy like a Solidity constructor.",
          "newImplementation": "Address of the new implementation contract."
        }
      },
      "validateStake(address,uint96,uint256,bool)": {
        "details": "No state changes should be made when returning stakingResult != Successful, otherwise delayed stakes might break invariants.",
        "params": {
          "_account": "The address of the juror.",
          "_courtID": "The ID of the court.",
          "_newStake": "The new stake.",
          "_noDelay": "True if the stake change should not be delayed."
        },
        "returns": {
          "pnkDeposit": "The amount of PNK to be deposited.",
          "pnkWithdrawal": "The amount of PNK to be withdrawn.",
          "stakingResult": "The result of the staking operation."
        }
      },
      "withdrawLeftoverPNK(address)": {
        "details": "that since locked and staked PNK are async it is possible for the juror to have positive staked PNK balance while having 0 stake in courts and 0 locked tokens (eg. when the juror fully unstaked during dispute and later got his tokens unlocked). In this case the juror can use this function to withdraw the leftover tokens. Also note that if the juror has some leftover PNK while not fully unstaked he'll have to manually unstake from all courts to trigger this function.",
        "params": {
          "_account": "The juror whose PNK to withdraw."
        }
      }
    },
    "stateVariables": {
      "version": {
        "return": "Version string.",
        "returns": {
          "_0": "Version string."
        }
      }
    },
    "title": "SortitionModule",
    "version": 1
  },
  "userdoc": {
    "errors": {
      "FailedDelegateCall()": [
        {
          "notice": "Failed Delegated call"
        }
      ],
      "InvalidImplementation(address)": [
        {
          "notice": "The `implementation` is not UUPS-compliant"
        }
      ],
      "UUPSUnauthorizedCallContext()": [
        {
          "notice": "The call is from an unauthorized context."
        }
      ],
      "UUPSUnsupportedProxiableUUID(bytes32)": [
        {
          "notice": "The storage `slot` is unsupported as a UUID."
        }
      ]
    },
    "events": {
      "LeftoverPNK(address,uint256)": {
        "notice": "Emitted when leftover PNK is available."
      },
      "LeftoverPNKWithdrawn(address,uint256)": {
        "notice": "Emitted when leftover PNK is withdrawn."
      },
      "NewPhase(uint8)": {
        "notice": "Emitted when the phase is changed."
      },
      "StakeDelayed(address,uint96,uint256)": {
        "notice": "Emitted when a juror's stake is delayed."
      },
      "StakeDelayedExecutionFailed(address,uint96,uint256)": {
        "notice": "Emitted when a juror's stake is delayed execution fails."
      },
      "StakeLocked(address,uint256,bool)": {
        "notice": "Emitted when a juror's stake is locked."
      },
      "StakeSet(address,uint256,uint256,uint256)": {
        "notice": "Emitted when a juror stakes in a court."
      },
      "Upgraded(address)": {
        "notice": "Emitted when the `implementation` has been successfully upgraded."
      }
    },
    "kind": "user",
    "methods": {
      "changeMaxDrawingTime(uint256)": {
        "notice": "Changes the `maxDrawingTime` storage variable."
      },
      "changeMaxStakePerJuror(uint256)": {
        "notice": "Changes the `maxStakePerJuror` storage variable."
      },
      "changeMaxTotalStaked(uint256)": {
        "notice": "Changes the `maxTotalStaked` storage variable."
      },
      "changeMinStakingTime(uint256)": {
        "notice": "Changes the `minStakingTime` storage variable."
      },
      "changeOwner(address)": {
        "notice": "Changes the owner of the contract."
      },
      "changeRandomNumberGenerator(address)": {
        "notice": "Changes the `rng` storage variable."
      },
      "createDisputeHook(uint256,uint256)": {
        "notice": "Triggers the state changes after dispute creation."
      },
      "createTree(uint96,bytes)": {
        "notice": "Create a sortition sum tree at the specified key."
      },
      "draw(uint96,uint256,uint256)": {
        "notice": "Draw an ID from a tree using a number."
      },
      "executeDelayedStakes(uint256)": {
        "notice": "Executes the next delayed stakes."
      },
      "forcedUnstake(address,uint96)": {
        "notice": "Unstakes the inactive juror from a specific court."
      },
      "forcedUnstakeAllCourts(address)": {
        "notice": "Unstakes the inactive juror from all courts."
      },
      "getJurorBalance(address,uint96)": {
        "notice": "Gets the balance of a juror in a court."
      },
      "getJurorCourtIDs(address)": {
        "notice": "Gets the court identifiers where a specific `_juror` has staked."
      },
      "getJurorLeftoverPNK(address)": {
        "notice": "Checks if the juror has any leftover PNK in the contract."
      },
      "initialize(address,address,uint256,uint256,address,uint256,uint256)": {
        "notice": "Initializer (constructor equivalent for upgradable contracts)."
      },
      "isJurorStaked(address)": {
        "notice": "Checks if the juror is staked in any court."
      },
      "lockStake(address,uint256)": {
        "notice": "Locks the tokens of the drawn juror."
      },
      "passPhase()": {
        "notice": "Passes the phase."
      },
      "postDrawHook(uint256,uint256)": {
        "notice": "Triggers the state changes after drawing."
      },
      "proxiableUUID()": {
        "notice": "Implementation of the ERC1822 `proxiableUUID` function. This returns the storage slot used by the implementation. It is used to validate the implementation's compatibility when performing an upgrade."
      },
      "setStake(address,uint96,uint256,uint256,uint256)": {
        "notice": "Update the state of the stakes, called by KC at the end of setStake flow."
      },
      "setStakePenalty(address,uint96,uint256)": {
        "notice": "Update the state of the stakes with a PNK penalty, called by KC during rewards execution."
      },
      "setStakeReward(address,uint96,uint256)": {
        "notice": "Update the state of the stakes with a PNK reward deposit, called by KC during rewards execution."
      },
      "unlockStake(address,uint256)": {
        "notice": "Unlocks the tokens of the drawn juror."
      },
      "upgradeToAndCall(address,bytes)": {
        "notice": "Upgrade mechanism including access control and UUPS-compliance."
      },
      "validateStake(address,uint96,uint256,bool)": {
        "notice": "Validate the specified juror's new stake for a court."
      },
      "version()": {
        "notice": "Returns the version of the implementation."
      },
      "withdrawLeftoverPNK(address)": {
        "notice": "Gives back the locked PNKs in case the juror fully unstaked earlier."
      }
    },
    "notice": "A factory of trees that keeps track of staked values for sortition.",
    "version": 1
  },
  "storageLayout": {
    "storage": [
      {
        "astId": 16568,
        "contract": "src/arbitration/SortitionModule.sol:SortitionModule",
        "label": "owner",
        "offset": 0,
        "slot": "0",
        "type": "t_address"
      },
      {
        "astId": 16571,
        "contract": "src/arbitration/SortitionModule.sol:SortitionModule",
        "label": "core",
        "offset": 0,
        "slot": "1",
        "type": "t_contract(KlerosCore)16395"
      },
      {
        "astId": 16574,
        "contract": "src/arbitration/SortitionModule.sol:SortitionModule",
        "label": "phase",
        "offset": 20,
        "slot": "1",
        "type": "t_enum(Phase)26790"
      },
      {
        "astId": 16576,
        "contract": "src/arbitration/SortitionModule.sol:SortitionModule",
        "label": "minStakingTime",
        "offset": 0,
        "slot": "2",
        "type": "t_uint256"
      },
      {
        "astId": 16578,
        "contract": "src/arbitration/SortitionModule.sol:SortitionModule",
        "label": "maxDrawingTime",
        "offset": 0,
        "slot": "3",
        "type": "t_uint256"
      },
      {
        "astId": 16580,
        "contract": "src/arbitration/SortitionModule.sol:SortitionModule",
        "label": "lastPhaseChange",
        "offset": 0,
        "slot": "4",
        "type": "t_uint256"
      },
      {
        "astId": 16582,
        "contract": "src/arbitration/SortitionModule.sol:SortitionModule",
        "label": "disputesWithoutJurors",
        "offset": 0,
        "slot": "5",
        "type": "t_uint256"
      },
      {
        "astId": 16585,
        "contract": "src/arbitration/SortitionModule.sol:SortitionModule",
        "label": "rng",
        "offset": 0,
        "slot": "6",
        "type": "t_contract(IRNG)40220"
      },
      {
        "astId": 16587,
        "contract": "src/arbitration/SortitionModule.sol:SortitionModule",
        "label": "randomNumber",
        "offset": 0,
        "slot": "7",
        "type": "t_uint256"
      },
      {
        "astId": 16589,
        "contract": "src/arbitration/SortitionModule.sol:SortitionModule",
        "label": "delayedStakeWriteIndex",
        "offset": 0,
        "slot": "8",
        "type": "t_uint256"
      },
      {
        "astId": 16591,
        "contract": "src/arbitration/SortitionModule.sol:SortitionModule",
        "label": "delayedStakeReadIndex",
        "offset": 0,
        "slot": "9",
        "type": "t_uint256"
      },
      {
        "astId": 16597,
        "contract": "src/arbitration/SortitionModule.sol:SortitionModule",
        "label": "sortitionSumTrees",
        "offset": 0,
        "slot": "10",
        "type": "t_mapping(t_userDefinedValueType(TreeKey)37762,t_struct(Tree)37785_storage)"
      },
      {
        "astId": 16602,
        "contract": "src/arbitration/SortitionModule.sol:SortitionModule",
        "label": "jurors",
        "offset": 0,
        "slot": "11",
        "type": "t_mapping(t_address,t_struct(Juror)16566_storage)"
      },
      {
        "astId": 16607,
        "contract": "src/arbitration/SortitionModule.sol:SortitionModule",
        "label": "delayedStakes",
        "offset": 0,
        "slot": "12",
        "type": "t_mapping(t_uint256,t_struct(DelayedStake)16558_storage)"
      },
      {
        "astId": 16609,
        "contract": "src/arbitration/SortitionModule.sol:SortitionModule",
        "label": "maxStakePerJuror",
        "offset": 0,
        "slot": "13",
        "type": "t_uint256"
      },
      {
        "astId": 16611,
        "contract": "src/arbitration/SortitionModule.sol:SortitionModule",
        "label": "maxTotalStaked",
        "offset": 0,
        "slot": "14",
        "type": "t_uint256"
      },
      {
        "astId": 16613,
        "contract": "src/arbitration/SortitionModule.sol:SortitionModule",
        "label": "totalStaked",
        "offset": 0,
        "slot": "15",
        "type": "t_uint256"
      }
    ],
    "types": {
      "t_address": {
        "encoding": "inplace",
        "label": "address",
        "numberOfBytes": "20"
      },
      "t_array(t_uint256)dyn_storage": {
        "base": "t_uint256",
        "encoding": "dynamic_array",
        "label": "uint256[]",
        "numberOfBytes": "32"
      },
      "t_array(t_uint96)dyn_storage": {
        "base": "t_uint96",
        "encoding": "dynamic_array",
        "label": "uint96[]",
        "numberOfBytes": "32"
      },
      "t_bytes32": {
        "encoding": "inplace",
        "label": "bytes32",
        "numberOfBytes": "32"
      },
      "t_contract(IRNG)40220": {
        "encoding": "inplace",
        "label": "contract IRNG",
        "numberOfBytes": "20"
      },
      "t_contract(KlerosCore)16395": {
        "encoding": "inplace",
        "label": "contract KlerosCore",
        "numberOfBytes": "20"
      },
      "t_enum(Phase)26790": {
        "encoding": "inplace",
        "label": "enum ISortitionModule.Phase",
        "numberOfBytes": "1"
      },
      "t_mapping(t_address,t_struct(Juror)16566_storage)": {
        "encoding": "mapping",
        "key": "t_address",
        "label": "mapping(address => struct SortitionModule.Juror)",
        "numberOfBytes": "32",
        "value": "t_struct(Juror)16566_storage"
      },
      "t_mapping(t_bytes32,t_uint256)": {
        "encoding": "mapping",
        "key": "t_bytes32",
        "label": "mapping(bytes32 => uint256)",
        "numberOfBytes": "32",
        "value": "t_uint256"
      },
      "t_mapping(t_uint256,t_bytes32)": {
        "encoding": "mapping",
        "key": "t_uint256",
        "label": "mapping(uint256 => bytes32)",
        "numberOfBytes": "32",
        "value": "t_bytes32"
      },
      "t_mapping(t_uint256,t_struct(DelayedStake)16558_storage)": {
        "encoding": "mapping",
        "key": "t_uint256",
        "label": "mapping(uint256 => struct SortitionModule.DelayedStake)",
        "numberOfBytes": "32",
        "value": "t_struct(DelayedStake)16558_storage"
      },
      "t_mapping(t_userDefinedValueType(TreeKey)37762,t_struct(Tree)37785_storage)": {
        "encoding": "mapping",
        "key": "t_userDefinedValueType(TreeKey)37762",
        "label": "mapping(TreeKey => struct SortitionTrees.Tree)",
        "numberOfBytes": "32",
        "value": "t_struct(Tree)37785_storage"
      },
      "t_struct(DelayedStake)16558_storage": {
        "encoding": "inplace",
        "label": "struct SortitionModule.DelayedStake",
        "members": [
          {
            "astId": 16553,
            "contract": "src/arbitration/SortitionModule.sol:SortitionModule",
            "label": "account",
            "offset": 0,
            "slot": "0",
            "type": "t_address"
          },
          {
            "astId": 16555,
            "contract": "src/arbitration/SortitionModule.sol:SortitionModule",
            "label": "courtID",
            "offset": 20,
            "slot": "0",
            "type": "t_uint96"
          },
          {
            "astId": 16557,
            "contract": "src/arbitration/SortitionModule.sol:SortitionModule",
            "label": "stake",
            "offset": 0,
            "slot": "1",
            "type": "t_uint256"
          }
        ],
        "numberOfBytes": "64"
      },
      "t_struct(Juror)16566_storage": {
        "encoding": "inplace",
        "label": "struct SortitionModule.Juror",
        "members": [
          {
            "astId": 16561,
            "contract": "src/arbitration/SortitionModule.sol:SortitionModule",
            "label": "courtIDs",
            "offset": 0,
            "slot": "0",
            "type": "t_array(t_uint96)dyn_storage"
          },
          {
            "astId": 16563,
            "contract": "src/arbitration/SortitionModule.sol:SortitionModule",
            "label": "stakedPnk",
            "offset": 0,
            "slot": "1",
            "type": "t_uint256"
          },
          {
            "astId": 16565,
            "contract": "src/arbitration/SortitionModule.sol:SortitionModule",
            "label": "lockedPnk",
            "offset": 0,
            "slot": "2",
            "type": "t_uint256"
          }
        ],
        "numberOfBytes": "96"
      },
      "t_struct(Tree)37785_storage": {
        "encoding": "inplace",
        "label": "struct SortitionTrees.Tree",
        "members": [
          {
            "astId": 37770,
            "contract": "src/arbitration/SortitionModule.sol:SortitionModule",
            "label": "K",
            "offset": 0,
            "slot": "0",
            "type": "t_uint256"
          },
          {
            "astId": 37773,
            "contract": "src/arbitration/SortitionModule.sol:SortitionModule",
            "label": "stack",
            "offset": 0,
            "slot": "1",
            "type": "t_array(t_uint256)dyn_storage"
          },
          {
            "astId": 37776,
            "contract": "src/arbitration/SortitionModule.sol:SortitionModule",
            "label": "nodes",
            "offset": 0,
            "slot": "2",
            "type": "t_array(t_uint256)dyn_storage"
          },
          {
            "astId": 37780,
            "contract": "src/arbitration/SortitionModule.sol:SortitionModule",
            "label": "IDsToNodeIndexes",
            "offset": 0,
            "slot": "3",
            "type": "t_mapping(t_bytes32,t_uint256)"
          },
          {
            "astId": 37784,
            "contract": "src/arbitration/SortitionModule.sol:SortitionModule",
            "label": "nodeIndexesToIDs",
            "offset": 0,
            "slot": "4",
            "type": "t_mapping(t_uint256,t_bytes32)"
          }
        ],
        "numberOfBytes": "160"
      },
      "t_uint256": {
        "encoding": "inplace",
        "label": "uint256",
        "numberOfBytes": "32"
      },
      "t_uint96": {
        "encoding": "inplace",
        "label": "uint96",
        "numberOfBytes": "12"
      },
      "t_userDefinedValueType(TreeKey)37762": {
        "encoding": "inplace",
        "label": "TreeKey",
        "numberOfBytes": "32"
      }
    }
  }
}