{
  "address": "0x5CAD621D69E0535422aCFaCC0017bC32beC7A486",
  "abi": [
    {
      "inputs": [],
      "stateMutability": "nonpayable",
      "type": "constructor"
    },
    {
      "inputs": [],
      "name": "AlreadyInitialized",
      "type": "error"
    },
    {
      "inputs": [],
      "name": "FailedDelegateCall",
      "type": "error"
    },
    {
      "inputs": [
        {
          "internalType": "address",
          "name": "implementation",
          "type": "address"
        }
      ],
      "name": "InvalidImplementation",
      "type": "error"
    },
    {
      "inputs": [],
      "name": "NotInitializing",
      "type": "error"
    },
    {
      "inputs": [],
      "name": "UUPSUnauthorizedCallContext",
      "type": "error"
    },
    {
      "inputs": [
        {
          "internalType": "bytes32",
          "name": "slot",
          "type": "bytes32"
        }
      ],
      "name": "UUPSUnsupportedProxiableUUID",
      "type": "error"
    },
    {
      "anonymous": false,
      "inputs": [
        {
          "indexed": false,
          "internalType": "uint64",
          "name": "version",
          "type": "uint64"
        }
      ],
      "name": "Initialized",
      "type": "event"
    },
    {
      "anonymous": false,
      "inputs": [
        {
          "indexed": false,
          "internalType": "enum ISortitionModule.Phase",
          "name": "_phase",
          "type": "uint8"
        }
      ],
      "name": "NewPhase",
      "type": "event"
    },
    {
      "anonymous": false,
      "inputs": [
        {
          "indexed": true,
          "internalType": "address",
          "name": "_address",
          "type": "address"
        },
        {
          "indexed": false,
          "internalType": "uint256",
          "name": "_relativeAmount",
          "type": "uint256"
        },
        {
          "indexed": false,
          "internalType": "bool",
          "name": "_unlock",
          "type": "bool"
        }
      ],
      "name": "StakeLocked",
      "type": "event"
    },
    {
      "anonymous": false,
      "inputs": [
        {
          "indexed": true,
          "internalType": "address",
          "name": "_address",
          "type": "address"
        },
        {
          "indexed": false,
          "internalType": "uint256",
          "name": "_courtID",
          "type": "uint256"
        },
        {
          "indexed": false,
          "internalType": "uint256",
          "name": "_amount",
          "type": "uint256"
        }
      ],
      "name": "StakeSet",
      "type": "event"
    },
    {
      "anonymous": false,
      "inputs": [
        {
          "indexed": true,
          "internalType": "address",
          "name": "newImplementation",
          "type": "address"
        }
      ],
      "name": "Upgraded",
      "type": "event"
    },
    {
      "inputs": [],
      "name": "core",
      "outputs": [
        {
          "internalType": "contract KlerosCoreUniversity",
          "name": "",
          "type": "address"
        }
      ],
      "stateMutability": "view",
      "type": "function"
    },
    {
      "inputs": [
        {
          "internalType": "uint256",
          "name": "",
          "type": "uint256"
        },
        {
          "internalType": "uint256",
          "name": "",
          "type": "uint256"
        }
      ],
      "name": "createDisputeHook",
      "outputs": [],
      "stateMutability": "nonpayable",
      "type": "function"
    },
    {
      "inputs": [
        {
          "internalType": "bytes32",
          "name": "_key",
          "type": "bytes32"
        },
        {
          "internalType": "bytes",
          "name": "_extraData",
          "type": "bytes"
        }
      ],
      "name": "createTree",
      "outputs": [],
      "stateMutability": "nonpayable",
      "type": "function"
    },
    {
      "inputs": [],
      "name": "disputesWithoutJurors",
      "outputs": [
        {
          "internalType": "uint256",
          "name": "",
          "type": "uint256"
        }
      ],
      "stateMutability": "view",
      "type": "function"
    },
    {
      "inputs": [
        {
          "internalType": "bytes32",
          "name": "",
          "type": "bytes32"
        },
        {
          "internalType": "uint256",
          "name": "",
          "type": "uint256"
        },
        {
          "internalType": "uint256",
          "name": "",
          "type": "uint256"
        }
      ],
      "name": "draw",
      "outputs": [
        {
          "internalType": "address",
          "name": "drawnAddress",
          "type": "address"
        }
      ],
      "stateMutability": "view",
      "type": "function"
    },
    {
      "inputs": [
        {
          "internalType": "address",
          "name": "_juror",
          "type": "address"
        },
        {
          "internalType": "uint96",
          "name": "_courtID",
          "type": "uint96"
        }
      ],
      "name": "getJurorBalance",
      "outputs": [
        {
          "internalType": "uint256",
          "name": "totalStaked",
          "type": "uint256"
        },
        {
          "internalType": "uint256",
          "name": "totalLocked",
          "type": "uint256"
        },
        {
          "internalType": "uint256",
          "name": "stakedInCourt",
          "type": "uint256"
        },
        {
          "internalType": "uint256",
          "name": "nbCourts",
          "type": "uint256"
        }
      ],
      "stateMutability": "view",
      "type": "function"
    },
    {
      "inputs": [
        {
          "internalType": "address",
          "name": "_juror",
          "type": "address"
        }
      ],
      "name": "getJurorCourtIDs",
      "outputs": [
        {
          "internalType": "uint96[]",
          "name": "",
          "type": "uint96[]"
        }
      ],
      "stateMutability": "view",
      "type": "function"
    },
    {
      "inputs": [],
      "name": "governor",
      "outputs": [
        {
          "internalType": "address",
          "name": "",
          "type": "address"
        }
      ],
      "stateMutability": "view",
      "type": "function"
    },
    {
      "inputs": [
        {
          "internalType": "address",
          "name": "_governor",
          "type": "address"
        },
        {
          "internalType": "contract KlerosCoreUniversity",
          "name": "_core",
          "type": "address"
        }
      ],
      "name": "initialize",
      "outputs": [],
      "stateMutability": "nonpayable",
      "type": "function"
    },
    {
      "inputs": [
        {
          "internalType": "address",
          "name": "_juror",
          "type": "address"
        }
      ],
      "name": "isJurorStaked",
      "outputs": [
        {
          "internalType": "bool",
          "name": "",
          "type": "bool"
        }
      ],
      "stateMutability": "view",
      "type": "function"
    },
    {
      "inputs": [
        {
          "internalType": "address",
          "name": "account",
          "type": "address"
        }
      ],
      "name": "jurors",
      "outputs": [
        {
          "internalType": "uint256",
          "name": "stakedPnk",
          "type": "uint256"
        },
        {
          "internalType": "uint256",
          "name": "lockedPnk",
          "type": "uint256"
        }
      ],
      "stateMutability": "view",
      "type": "function"
    },
    {
      "inputs": [
        {
          "internalType": "address",
          "name": "_account",
          "type": "address"
        },
        {
          "internalType": "uint256",
          "name": "_relativeAmount",
          "type": "uint256"
        }
      ],
      "name": "lockStake",
      "outputs": [],
      "stateMutability": "nonpayable",
      "type": "function"
    },
    {
      "inputs": [
        {
          "internalType": "uint256",
          "name": "_randomNumber",
          "type": "uint256"
        }
      ],
      "name": "notifyRandomNumber",
      "outputs": [],
      "stateMutability": "nonpayable",
      "type": "function"
    },
    {
      "inputs": [
        {
          "internalType": "address",
          "name": "_account",
          "type": "address"
        },
        {
          "internalType": "uint256",
          "name": "_relativeAmount",
          "type": "uint256"
        }
      ],
      "name": "penalizeStake",
      "outputs": [],
      "stateMutability": "nonpayable",
      "type": "function"
    },
    {
      "inputs": [
        {
          "internalType": "uint256",
          "name": "",
          "type": "uint256"
        },
        {
          "internalType": "uint256",
          "name": "",
          "type": "uint256"
        }
      ],
      "name": "postDrawHook",
      "outputs": [],
      "stateMutability": "nonpayable",
      "type": "function"
    },
    {
      "inputs": [],
      "name": "proxiableUUID",
      "outputs": [
        {
          "internalType": "bytes32",
          "name": "",
          "type": "bytes32"
        }
      ],
      "stateMutability": "view",
      "type": "function"
    },
    {
      "inputs": [
        {
          "internalType": "address",
          "name": "_account",
          "type": "address"
        }
      ],
      "name": "setJurorInactive",
      "outputs": [],
      "stateMutability": "nonpayable",
      "type": "function"
    },
    {
      "inputs": [
        {
          "internalType": "address",
          "name": "_account",
          "type": "address"
        },
        {
          "internalType": "uint96",
          "name": "_courtID",
          "type": "uint96"
        },
        {
          "internalType": "uint256",
          "name": "_newStake",
          "type": "uint256"
        },
        {
          "internalType": "bool",
          "name": "_alreadyTransferred",
          "type": "bool"
        }
      ],
      "name": "setStake",
      "outputs": [
        {
          "internalType": "uint256",
          "name": "pnkDeposit",
          "type": "uint256"
        },
        {
          "internalType": "uint256",
          "name": "pnkWithdrawal",
          "type": "uint256"
        },
        {
          "internalType": "enum StakingResult",
          "name": "stakingResult",
          "type": "uint8"
        }
      ],
      "stateMutability": "nonpayable",
      "type": "function"
    },
    {
      "inputs": [
        {
          "internalType": "address",
          "name": "_juror",
          "type": "address"
        }
      ],
      "name": "setTransientJuror",
      "outputs": [],
      "stateMutability": "nonpayable",
      "type": "function"
    },
    {
      "inputs": [
        {
          "internalType": "address",
          "name": "_account",
          "type": "address"
        },
        {
          "internalType": "uint256",
          "name": "_relativeAmount",
          "type": "uint256"
        }
      ],
      "name": "unlockStake",
      "outputs": [],
      "stateMutability": "nonpayable",
      "type": "function"
    },
    {
      "inputs": [
        {
          "internalType": "address",
          "name": "newImplementation",
          "type": "address"
        },
        {
          "internalType": "bytes",
          "name": "data",
          "type": "bytes"
        }
      ],
      "name": "upgradeToAndCall",
      "outputs": [],
      "stateMutability": "payable",
      "type": "function"
    }
  ],
  "transactionHash": "0x204b96d9a80952f3d7f84a74ce0fe11b7a03ce93187949d2da7e793d56552c61",
  "args": [],
  "numDeployments": 1,
  "solcInputHash": "a5602534c00c2f67ca4b6a1cab8c717e",
  "bytecode": "0x60a06040523060805234801561001457600080fd5b5061001d610022565b6100d3565b7ff0c57e16840df040f15088dc2f81fe391c3923bec73e23a9662efc9c229c6a0e805468010000000000000000900460ff16156100715760405162dc149f60e41b815260040160405180910390fd5b80546001600160401b03908116146100d05780546001600160401b0319166001600160401b0390811782556040519081527fc7f505b2f371ae2175ee4913f4499e1f2633a7b5936321eed1cdaeb6115181d29060200160405180910390a15b50565b60805161183f6100fc60003960008181610637015281816106600152610858015261183f6000f3fe60806040526004361061012a5760003560e01c80635d2d7846116100ab578063d09f392d1161006f578063d09f392d1461036c578063d1c1df481461038c578063dca5f6b0146103cc578063f1a5310414610418578063f216de4c14610438578063f2f4eb261461045857600080fd5b80635d2d7846146102925780636624192f146102b2578063965af6c7146102fd578063a5861b901461031d578063b5d69e991461034c57600080fd5b8063485cc955116100f2578063485cc955146101ef5780634c70a0d61461020f5780634f1ef2861461023d57806352d1902d14610250578063543f8a361461026557600080fd5b8063034327441461012f5780630c340a241461015857806321e1625e1461019057806321ea9b3f146101b2578063477a655c146101d0575b600080fd5b34801561013b57600080fd5b5061014560025481565b6040519081526020015b60405180910390f35b34801561016457600080fd5b50600054610178906001600160a01b031681565b6040516001600160a01b03909116815260200161014f565b34801561019c57600080fd5b506101b06101ab36600461130b565b610478565b005b3480156101be57600080fd5b506101b06101cd366004611337565b50565b3480156101dc57600080fd5b506101b06101eb3660046113f3565b5050565b3480156101fb57600080fd5b506101b061020a36600461143a565b610524565b34801561021b57600080fd5b5061017861022a366004611473565b50506004546001600160a01b0316919050565b6101b061024b36600461149f565b610623565b34801561025c57600080fd5b5061014561084b565b34801561027157600080fd5b506102856102803660046114d9565b6108a9565b60405161014f91906114fd565b34801561029e57600080fd5b506101b06102ad36600461154a565b61094a565b3480156102be57600080fd5b506102ed6102cd3660046114d9565b6001600160a01b0316600090815260036020526040902060020154151590565b604051901515815260200161014f565b34801561030957600080fd5b506101b061031836600461130b565b61098d565b34801561032957600080fd5b5061033d61033836600461158f565b610a28565b60405161014f939291906115e2565b34801561035857600080fd5b506101b06103673660046114d9565b610c4f565b34801561037857600080fd5b506101b061038736600461154a565b610d55565b34801561039857600080fd5b506103ac6103a736600461161c565b610d8f565b60408051948552602085019390935291830152606082015260800161014f565b3480156103d857600080fd5b506104036103e73660046114d9565b6003602081905260009182526040909120600281015491015482565b6040805192835260208301919091520161014f565b34801561042457600080fd5b506101b06104333660046114d9565b610e45565b34801561044457600080fd5b506101b061045336600461130b565b610e91565b34801561046457600080fd5b50600154610178906001600160a01b031681565b6001546001600160a01b031633146104ab5760405162461bcd60e51b81526004016104a29061164a565b60405180910390fd5b6001600160a01b038216600090815260036020819052604082200180548392906104d69084906116a4565b909155505060408051828152600060208201526001600160a01b038416917f7a81a4ef419d50dbb5deb116fb983bf6ca7716bcbc84cd1cd2be81ccea9078b091015b60405180910390a25050565b7ff0c57e16840df040f15088dc2f81fe391c3923bec73e23a9662efc9c229c6a0e805460019190600160401b900460ff168061056e5750805467ffffffffffffffff808416911610155b1561058b5760405162dc149f60e41b815260040160405180910390fd5b805468ffffffffffffffffff191667ffffffffffffffff8316908117600160401b178255600080546001600160a01b038781166001600160a01b0319928316179092556001805492871692909116919091179055815460ff60401b191682556040519081527fc7f505b2f371ae2175ee4913f4499e1f2633a7b5936321eed1cdaeb6115181d29060200160405180910390a150505050565b61062c82610f09565b306001600160a01b037f00000000000000000000000000000000000000000000000000000000000000001614806106aa57507f00000000000000000000000000000000000000000000000000000000000000006001600160a01b031661069e6000805160206117ea8339815191525490565b6001600160a01b031614155b156106c85760405163703e46dd60e11b815260040160405180910390fd5b816001600160a01b03166352d1902d6040518163ffffffff1660e01b8152600401602060405180830381865afa925050508015610722575060408051601f3d908101601f1916820190925261071f918101906116bd565b60015b61074a57604051630c76093760e01b81526001600160a01b03831660048201526024016104a2565b6000805160206117ea833981519152811461077b57604051632a87526960e21b8152600481018290526024016104a2565b6000805160206117ea8339815191528390556040516001600160a01b038416907fbc7cd75a20ee27fd9adebab32041f755214dbc6bffa90cc0225b39da2e5c2d3b90600090a2815115610846576000836001600160a01b0316836040516107e291906116d6565b600060405180830381855af49150503d806000811461081d576040519150601f19603f3d011682016040523d82523d6000602084013e610822565b606091505b5050905080610844576040516339b21b5d60e11b815260040160405180910390fd5b505b505050565b6000306001600160a01b037f000000000000000000000000000000000000000000000000000000000000000016146108965760405163703e46dd60e11b815260040160405180910390fd5b506000805160206117ea83398151915290565b6001600160a01b03811660009081526003602090815260409182902060010180548351818402810184019094528084526060939283018282801561093e57602002820191906000526020600020906000905b82829054906101000a90046001600160601b03166001600160601b0316815260200190600c0190602082600b010492830192600103820291508084116108fb5790505b50505050509050919050565b6001546001600160a01b031633146109745760405162461bcd60e51b81526004016104a29061164a565b6002805490600061098483611705565b91905055505050565b6001546001600160a01b031633146109b75760405162461bcd60e51b81526004016104a29061164a565b6001600160a01b038216600090815260036020819052604082200180548392906109e290849061171c565b909155505060408051828152600160208201526001600160a01b038416917f7a81a4ef419d50dbb5deb116fb983bf6ca7716bcbc84cd1cd2be81ccea9078b09101610518565b600154600090819081906001600160a01b03163314610a595760405162461bcd60e51b81526004016104a29061164a565b6001600160a01b038716600090815260036020526040812090610a7c8989610f6e565b600183015490915087158015610a9b5750600481101580610a9b575081155b15610ab3576000806003955095509550505050610c45565b818810610ad35786610ace57610acb838a8a8561100f565b95505b610aec565b610adf838a8a856110f3565b610ae990866116a4565b94505b6000895b81610bee576001600160601b038116600090815260208690526040812080548c9290610b1d9084906116a4565b90915550506001600160601b03811660009081526020869052604081208054869290610b4a90849061171c565b90915550506000196001600160601b03821601610b6a5760019150610af0565b600154604051630fad06e960e11b81526001600160601b03831660048201526001600160a01b0390911690631f5a0dd29060240160e060405180830381865afa158015610bbb573d6000803e3d6000fd5b505050506040513d601f19601f82011682018060405250810190610bdf919061172f565b50949550610af0945050505050565b604080516001600160601b038d168152602081018c90526001600160a01b038e16917f4732545d01e38980276a17e6d394f01577ba63f2fea5eba41af0757d9c060c5c910160405180910390a25060009450505050505b9450945094915050565b6001546001600160a01b03163314610c795760405162461bcd60e51b81526004016104a29061164a565b6000610c84826108a9565b80519091505b801561084657600180546001600160a01b03169063fbb519e79085908590610cb2908661171c565b81518110610cc257610cc26117a4565b60209081029190910101516040516001600160e01b031960e085901b1681526001600160a01b0390921660048301526001600160601b031660248201526000604482018190526064820152608401600060405180830381600087803b158015610d2a57600080fd5b505af1158015610d3e573d6000803e3d6000fd5b505050508080610d4d90611705565b915050610c8a565b6001546001600160a01b03163314610d7f5760405162461bcd60e51b81526004016104a29061164a565b60028054906000610984836117ba565b6001600160a01b038216600090815260036020819052604082206002810154918101546001820154929390929091825b82811015610e3a57866001600160601b0316826001018281548110610de657610de66117a4565b600091825260209091206002820401546001909116600c026101000a90046001600160601b031603610e32576001600160601b0387166000908152602083905260409020549350610e3a565b600101610dbf565b505092959194509250565b6001546001600160a01b03163314610e6f5760405162461bcd60e51b81526004016104a29061164a565b600480546001600160a01b0319166001600160a01b0392909216919091179055565b6001546001600160a01b03163314610ebb5760405162461bcd60e51b81526004016104a29061164a565b6001600160a01b038216600090815260036020526040902060028101548211610efd5781816002016000828254610ef2919061171c565b909155506108469050565b60006002820155505050565b6000546001600160a01b031633146101cd5760405162461bcd60e51b815260206004820152602260248201527f416363657373206e6f7420616c6c6f7765643a20476f7665726e6f72206f6e6c6044820152613c9760f11b60648201526084016104a2565b6001600160a01b0382166000908152600360205260408120815b600182015481101561100757836001600160601b0316826001018281548110610fb357610fb36117a4565b600091825260209091206002820401546001909116600c026101000a90046001600160601b031603610fff576001600160601b0384166000908152602083905260409020549250611007565b600101610f88565b505092915050565b60008085600201548660030154101561102957600061103d565b8560020154866003015461103d919061171c565b905061104981846116a4565b84101561105757600061106c565b80611062848661171c565b61106c919061171c565b9150826000036110b557600186810180548083018255600091825260209091206002820401805491909216600c026101000a6001600160601b0381810219909216918816021790555b82866002015410156110c757836110e2565b838387600201546110d8919061171c565b6110e291906116a4565b866002018190555050949350505050565b6003840154600090611105848461171c565b61110f91906116a4565b85600201541061112a57611123838361171c565b9050611150565b8460030154856002015410611150578460030154856002015461114d919061171c565b90505b826000036112b95760018501545b80156112b757846001600160601b03168660010160018361117f919061171c565b8154811061118f5761118f6117a4565b600091825260209091206002820401546001909116600c026101000a90046001600160601b0316036112a5576001808701805490916111cd9161171c565b815481106111dd576111dd6117a4565b600091825260209091206002820401546001918216600c026101000a90046001600160601b03169087810190611213908461171c565b81548110611223576112236117a4565b9060005260206000209060029182820401919006600c026101000a8154816001600160601b0302191690836001600160601b031602179055508560010180548061126f5761126f6117d3565b60008281526020902060026000199092019182040180546001600160601b03600c60018516026101000a021916905590556112b7565b806112af81611705565b91505061115e565b505b81856002015410156112cb57826112e6565b828286600201546112dc919061171c565b6112e691906116a4565b8560020181905550949350505050565b6001600160a01b03811681146101cd57600080fd5b6000806040838503121561131e57600080fd5b8235611329816112f6565b946020939093013593505050565b60006020828403121561134957600080fd5b5035919050565b634e487b7160e01b600052604160045260246000fd5b600082601f83011261137757600080fd5b813567ffffffffffffffff8082111561139257611392611350565b604051601f8301601f19908116603f011681019082821181831017156113ba576113ba611350565b816040528381528660208588010111156113d357600080fd5b836020870160208301376000602085830101528094505050505092915050565b6000806040838503121561140657600080fd5b82359150602083013567ffffffffffffffff81111561142457600080fd5b61143085828601611366565b9150509250929050565b6000806040838503121561144d57600080fd5b8235611458816112f6565b91506020830135611468816112f6565b809150509250929050565b60008060006060848603121561148857600080fd5b505081359360208301359350604090920135919050565b600080604083850312156114b257600080fd5b82356114bd816112f6565b9150602083013567ffffffffffffffff81111561142457600080fd5b6000602082840312156114eb57600080fd5b81356114f6816112f6565b9392505050565b6020808252825182820181905260009190848201906040850190845b8181101561153e5783516001600160601b031683529284019291840191600101611519565b50909695505050505050565b6000806040838503121561155d57600080fd5b50508035926020909101359150565b6001600160601b03811681146101cd57600080fd5b80151581146101cd57600080fd5b600080600080608085870312156115a557600080fd5b84356115b0816112f6565b935060208501356115c08161156c565b92506040850135915060608501356115d781611581565b939692955090935050565b83815260208101839052606081016008831061160e57634e487b7160e01b600052602160045260246000fd5b826040830152949350505050565b6000806040838503121561162f57600080fd5b823561163a816112f6565b915060208301356114688161156c565b60208082526024908201527f416363657373206e6f7420616c6c6f7765643a204b6c65726f73436f7265206f60408201526337363c9760e11b606082015260800190565b634e487b7160e01b600052601160045260246000fd5b808201808211156116b7576116b761168e565b92915050565b6000602082840312156116cf57600080fd5b5051919050565b6000825160005b818110156116f757602081860181015185830152016116dd565b506000920191825250919050565b6000816117145761171461168e565b506000190190565b818103818111156116b7576116b761168e565b600080600080600080600060e0888a03121561174a57600080fd5b87516117558161156c565b602089015190975061176681611581565b8096505060408801519450606088015193506080880151925060a0880151915060c088015161179481611581565b8091505092959891949750929550565b634e487b7160e01b600052603260045260246000fd5b6000600182016117cc576117cc61168e565b5060010190565b634e487b7160e01b600052603160045260246000fdfe360894a13ba1a3210667c828492db98dca3e2076cc3735a920a3ca505d382bbca26469706673582212200166151e57cedd4332854be3f1b542627de717718d9832e670b79904c4b162d864736f6c63430008180033",
  "devdoc": {
    "details": "An adapted version of the SortitionModule contract for educational purposes.",
    "errors": {
      "AlreadyInitialized()": [
        {
          "details": "The contract is already initialized."
        }
      ],
      "NotInitializing()": [
        {
          "details": "The contract is not initializing."
        }
      ],
      "UUPSUnauthorizedCallContext()": [
        {
          "details": "The call is from an unauthorized context."
        }
      ],
      "UUPSUnsupportedProxiableUUID(bytes32)": [
        {
          "details": "The storage `slot` is unsupported as a UUID."
        }
      ]
    },
    "events": {
      "Initialized(uint64)": {
        "details": "Triggered when the contract has been initialized or reinitialized."
      },
      "Upgraded(address)": {
        "params": {
          "newImplementation": "Address of the new implementation the proxy is now forwarding calls to."
        }
      }
    },
    "kind": "dev",
    "methods": {
      "constructor": {
        "details": "Constructor, initializing the implementation to reduce attack surface."
      },
      "draw(bytes32,uint256,uint256)": {
        "details": "Draw an ID from a tree using a number. Note that this function reverts if the sum of all values in the tree is 0.",
        "returns": {
          "drawnAddress": "The drawn address. `O(k * log_k(n))` where `k` is the maximum number of children per node in the tree,  and `n` is the maximum number of nodes ever appended."
        }
      },
      "getJurorBalance(address,uint96)": {
        "details": "Gets the stake of a juror in a court. Warning: `O(n)` complexity where `n` is the number of courts the juror has staked in but acceptable for this educational implementation.",
        "params": {
          "_courtID": "The ID of the court.",
          "_juror": "The address of the juror."
        },
        "returns": {
          "nbCourts": "The number of courts the juror has staked in.",
          "stakedInCourt": "The amount of tokens staked by the juror in the court.",
          "totalLocked": "The total amount of tokens locked by the juror in the court.",
          "totalStaked": "The total amount of tokens staked by the juror in the court."
        }
      },
      "getJurorCourtIDs(address)": {
        "details": "Gets the court identifiers where a specific `_juror` has staked.",
        "params": {
          "_juror": "The address of the juror."
        }
      },
      "initialize(address,address)": {
        "details": "Initializer (constructor equivalent for upgradable contracts).",
        "params": {
          "_core": "The KlerosCore."
        }
      },
      "notifyRandomNumber(uint256)": {
        "details": "Saves the random number to use it in sortition. Not used by this contract because the storing of the number is inlined in passPhase().",
        "params": {
          "_randomNumber": "Random number returned by RNG contract."
        }
      },
      "proxiableUUID()": {
        "details": "Implementation of the ERC1822 `proxiableUUID` function. This returns the storage slot used by the implementation. It is used to validate the implementation's compatibility when performing an upgrade. IMPORTANT: A proxy pointing at a proxiable contract should not be considered proxiable itself, because this risks bricking a proxy that upgrades to it, by delegating to itself until out of gas. Thus it is critical that this function revert if invoked through a proxy. This is guaranteed by the if statement."
      },
      "setJurorInactive(address)": {
        "details": "Unstakes the inactive juror from all courts. `O(n * (p * log_k(j)) )` where `n` is the number of courts the juror has staked in, `p` is the depth of the court tree, `k` is the minimum number of children per node of one of these courts' sortition sum tree, and `j` is the maximum number of jurors that ever staked in one of these courts simultaneously.",
        "params": {
          "_account": "The juror to unstake."
        }
      },
      "setStake(address,uint96,uint256,bool)": {
        "details": "Sets the specified juror's stake in a court. `O(n + p * log_k(j))` where `n` is the number of courts the juror has staked in, `p` is the depth of the court tree, `k` is the minimum number of children per node of one of these courts' sortition sum tree, and `j` is the maximum number of jurors that ever staked in one of these courts simultaneously.",
        "params": {
          "_account": "The address of the juror.",
          "_alreadyTransferred": "True if the tokens were already transferred from juror. Only relevant for delayed stakes.",
          "_courtID": "The ID of the court.",
          "_newStake": "The new stake."
        },
        "returns": {
          "pnkDeposit": "The amount of PNK to be deposited.",
          "pnkWithdrawal": "The amount of PNK to be withdrawn.",
          "stakingResult": "The result of the staking operation."
        }
      },
      "upgradeToAndCall(address,bytes)": {
        "details": "Upgrade mechanism including access control and UUPS-compliance.Reverts if the execution is not performed via delegatecall or the execution context is not of a proxy with an ERC1967-compliant implementation pointing to self.",
        "params": {
          "data": "Data used in a delegate call to `newImplementation` if non-empty. This will typically be an encoded function call, and allows initializing the storage of the proxy like a Solidity constructor.",
          "newImplementation": "Address of the new implementation contract."
        }
      }
    },
    "title": "SortitionModuleUniversity",
    "version": 1
  },
  "userdoc": {
    "errors": {
      "FailedDelegateCall()": [
        {
          "notice": "Failed Delegated call"
        }
      ],
      "InvalidImplementation(address)": [
        {
          "notice": "The `implementation` is not UUPS-compliant"
        }
      ]
    },
    "events": {
      "Upgraded(address)": {
        "notice": "Emitted when the `implementation` has been successfully upgraded."
      }
    },
    "kind": "user",
    "methods": {},
    "version": 1
  },
  "storageLayout": {
    "storage": [
      {
        "astId": 26933,
        "contract": "src/arbitration/university/SortitionModuleUniversity.sol:SortitionModuleUniversity",
        "label": "governor",
        "offset": 0,
        "slot": "0",
        "type": "t_address"
      },
      {
        "astId": 26936,
        "contract": "src/arbitration/university/SortitionModuleUniversity.sol:SortitionModuleUniversity",
        "label": "core",
        "offset": 0,
        "slot": "1",
        "type": "t_contract(KlerosCoreUniversity)26904"
      },
      {
        "astId": 26938,
        "contract": "src/arbitration/university/SortitionModuleUniversity.sol:SortitionModuleUniversity",
        "label": "disputesWithoutJurors",
        "offset": 0,
        "slot": "2",
        "type": "t_uint256"
      },
      {
        "astId": 26943,
        "contract": "src/arbitration/university/SortitionModuleUniversity.sol:SortitionModuleUniversity",
        "label": "jurors",
        "offset": 0,
        "slot": "3",
        "type": "t_mapping(t_address,t_struct(Juror)26931_storage)"
      },
      {
        "astId": 26945,
        "contract": "src/arbitration/university/SortitionModuleUniversity.sol:SortitionModuleUniversity",
        "label": "transientJuror",
        "offset": 0,
        "slot": "4",
        "type": "t_address"
      }
    ],
    "types": {
      "t_address": {
        "encoding": "inplace",
        "label": "address",
        "numberOfBytes": "20"
      },
      "t_array(t_uint96)dyn_storage": {
        "base": "t_uint96",
        "encoding": "dynamic_array",
        "label": "uint96[]",
        "numberOfBytes": "32"
      },
      "t_contract(KlerosCoreUniversity)26904": {
        "encoding": "inplace",
        "label": "contract KlerosCoreUniversity",
        "numberOfBytes": "20"
      },
      "t_mapping(t_address,t_struct(Juror)26931_storage)": {
        "encoding": "mapping",
        "key": "t_address",
        "label": "mapping(address => struct SortitionModuleUniversity.Juror)",
        "numberOfBytes": "32",
        "value": "t_struct(Juror)26931_storage"
      },
      "t_mapping(t_uint96,t_uint256)": {
        "encoding": "mapping",
        "key": "t_uint96",
        "label": "mapping(uint96 => uint256)",
        "numberOfBytes": "32",
        "value": "t_uint256"
      },
      "t_struct(Juror)26931_storage": {
        "encoding": "inplace",
        "label": "struct SortitionModuleUniversity.Juror",
        "members": [
          {
            "astId": 26923,
            "contract": "src/arbitration/university/SortitionModuleUniversity.sol:SortitionModuleUniversity",
            "label": "stakesByCourtID",
            "offset": 0,
            "slot": "0",
            "type": "t_mapping(t_uint96,t_uint256)"
          },
          {
            "astId": 26926,
            "contract": "src/arbitration/university/SortitionModuleUniversity.sol:SortitionModuleUniversity",
            "label": "courtIDs",
            "offset": 0,
            "slot": "1",
            "type": "t_array(t_uint96)dyn_storage"
          },
          {
            "astId": 26928,
            "contract": "src/arbitration/university/SortitionModuleUniversity.sol:SortitionModuleUniversity",
            "label": "stakedPnk",
            "offset": 0,
            "slot": "2",
            "type": "t_uint256"
          },
          {
            "astId": 26930,
            "contract": "src/arbitration/university/SortitionModuleUniversity.sol:SortitionModuleUniversity",
            "label": "lockedPnk",
            "offset": 0,
            "slot": "3",
            "type": "t_uint256"
          }
        ],
        "numberOfBytes": "128"
      },
      "t_uint256": {
        "encoding": "inplace",
        "label": "uint256",
        "numberOfBytes": "32"
      },
      "t_uint96": {
        "encoding": "inplace",
        "label": "uint96",
        "numberOfBytes": "12"
      }
    }
  }
}