{
  "address": "0x35f93986950804ac1F93519BF68C2a7Dd776db0E",
  "abi": [
    {
      "inputs": [
        {
          "internalType": "address[]",
          "name": "targets",
          "type": "address[]"
        },
        {
          "internalType": "uint256[]",
          "name": "values",
          "type": "uint256[]"
        },
        {
          "internalType": "bytes[]",
          "name": "datas",
          "type": "bytes[]"
        }
      ],
      "name": "batchSend",
      "outputs": [],
      "stateMutability": "payable",
      "type": "function"
    },
    {
      "inputs": [
        {
          "internalType": "address[]",
          "name": "targets",
          "type": "address[]"
        },
        {
          "internalType": "uint256[]",
          "name": "values",
          "type": "uint256[]"
        },
        {
          "internalType": "bytes[]",
          "name": "datas",
          "type": "bytes[]"
        }
      ],
      "name": "batchSendUnchecked",
      "outputs": [],
      "stateMutability": "payable",
      "type": "function"
    }
  ],
  "transactionHash": "0x3c4a6f233fda3dc940b9aba1e04ee5993b515e4834b73365c4cd613718db46b2",
  "args": [],
  "numDeployments": 1,
  "solcInputHash": "036e2ca71d8ebdd78fd6317e15ba1f3c",
  "bytecode": "0x608060405234801561000f575f80fd5b506105238061001d5f395ff3fe608060405260043610610028575f3560e01c8063a8f0802e1461002c578063cef591aa14610041575b5f80fd5b61003f61003a3660046103c4565b610054565b005b61003f61004f3660046103c4565b61015c565b5f5b8351811015610156575f848281518110610072576100726104ad565b60200260200101516001600160a01b0316848381518110610095576100956104ad565b60200260200101518484815181106100af576100af6104ad565b60200260200101516040516100c491906104c1565b5f6040518083038185875af1925050503d805f81146100fe576040519150601f19603f3d011682016040523d82523d5f602084013e610103565b606091505b505090508061014d5760405162461bcd60e51b81526020600482015260126024820152711d1c985b9cd858dd1a5bdb8819985a5b195960721b604482015260640160405180910390fd5b50600101610056565b50505050565b5f5b835181101561015657838181518110610179576101796104ad565b60200260200101516001600160a01b031683828151811061019c5761019c6104ad565b60200260200101518383815181106101b6576101b66104ad565b60200260200101516040516101cb91906104c1565b5f6040518083038185875af1925050503d805f8114610205576040519150601f19603f3d011682016040523d82523d5f602084013e61020a565b606091505b50505060010161015e565b634e487b7160e01b5f52604160045260245ffd5b604051601f8201601f1916810167ffffffffffffffff8111828210171561025257610252610215565b604052919050565b5f67ffffffffffffffff82111561027357610273610215565b5060051b60200190565b5f82601f83011261028c575f80fd5b813560206102a161029c8361025a565b610229565b8083825260208201915060208460051b8701019350868411156102c2575f80fd5b602086015b848110156102de57803583529183019183016102c7565b509695505050505050565b5f601f83601f8401126102fa575f80fd5b8235602061030a61029c8361025a565b82815260059290921b85018101918181019087841115610328575f80fd5b8287015b848110156103b857803567ffffffffffffffff8082111561034b575f80fd5b818a0191508a603f83011261035e575f80fd5b8582013560408282111561037457610374610215565b610385828b01601f19168901610229565b92508183528c8183860101111561039a575f80fd5b8181850189850137505f90820187015284525091830191830161032c565b50979650505050505050565b5f805f606084860312156103d6575f80fd5b833567ffffffffffffffff808211156103ed575f80fd5b818601915086601f830112610400575f80fd5b8135602061041061029c8361025a565b82815260059290921b8401810191818101908a84111561042e575f80fd5b948201945b838610156104605785356001600160a01b0381168114610451575f80fd5b82529482019490820190610433565b97505087013592505080821115610475575f80fd5b6104818783880161027d565b93506040860135915080821115610496575f80fd5b506104a3868287016102e9565b9150509250925092565b634e487b7160e01b5f52603260045260245ffd5b5f82515f5b818110156104e057602081860181015185830152016104c6565b505f92019182525091905056fea264697066735822122089797200888ad757484ded7bc0ffbb0769e9e974d73188d61385b7f6675e9f2064736f6c63430008180033",
  "devdoc": {
    "kind": "dev",
    "methods": {},
    "version": 1
  },
  "userdoc": {
    "kind": "user",
    "methods": {},
    "version": 1
  },
  "storageLayout": {
    "storage": [],
    "types": null
  }
}