{
  "address": "0x16f20604a51Ac1e68c9aAd1C0E53e951B62CC1Cb",
  "abi": [
    {
      "inputs": [
        {
          "internalType": "contract IArbitratorV2",
          "name": "_arbitrator",
          "type": "address"
        },
        {
          "internalType": "contract IDisputeTemplateRegistry",
          "name": "_templateRegistry",
          "type": "address"
        }
      ],
      "stateMutability": "nonpayable",
      "type": "constructor"
    },
    {
      "anonymous": false,
      "inputs": [
        {
          "indexed": true,
          "internalType": "contract IArbitratorV2",
          "name": "_arbitrator",
          "type": "address"
        },
        {
          "indexed": true,
          "internalType": "uint256",
          "name": "_arbitrableDisputeID",
          "type": "uint256"
        },
        {
          "indexed": false,
          "internalType": "uint256",
          "name": "_externalDisputeID",
          "type": "uint256"
        },
        {
          "indexed": false,
          "internalType": "uint256",
          "name": "_templateId",
          "type": "uint256"
        },
        {
          "indexed": false,
          "internalType": "string",
          "name": "_templateUri",
          "type": "string"
        }
      ],
      "name": "DisputeRequest",
      "type": "event"
    },
    {
      "anonymous": false,
      "inputs": [
        {
          "indexed": true,
          "internalType": "contract IArbitratorV2",
          "name": "_arbitrator",
          "type": "address"
        },
        {
          "indexed": true,
          "internalType": "uint256",
          "name": "_disputeID",
          "type": "uint256"
        },
        {
          "indexed": false,
          "internalType": "uint256",
          "name": "_ruling",
          "type": "uint256"
        }
      ],
      "name": "Ruling",
      "type": "event"
    },
    {
      "inputs": [],
      "name": "arbitrator",
      "outputs": [
        {
          "internalType": "contract IArbitratorV2",
          "name": "",
          "type": "address"
        }
      ],
      "stateMutability": "view",
      "type": "function"
    },
    {
      "inputs": [
        {
          "internalType": "uint256",
          "name": "",
          "type": "uint256"
        }
      ],
      "name": "arbitratorDisputeIDToLocalID",
      "outputs": [
        {
          "internalType": "uint256",
          "name": "",
          "type": "uint256"
        }
      ],
      "stateMutability": "view",
      "type": "function"
    },
    {
      "inputs": [
        {
          "internalType": "contract IArbitratorV2",
          "name": "_arbitrator",
          "type": "address"
        }
      ],
      "name": "changeArbitrator",
      "outputs": [],
      "stateMutability": "nonpayable",
      "type": "function"
    },
    {
      "inputs": [
        {
          "internalType": "address",
          "name": "_governor",
          "type": "address"
        }
      ],
      "name": "changeGovernor",
      "outputs": [],
      "stateMutability": "nonpayable",
      "type": "function"
    },
    {
      "inputs": [
        {
          "internalType": "contract IDisputeTemplateRegistry",
          "name": "_templateRegistry",
          "type": "address"
        }
      ],
      "name": "changeTemplateRegistry",
      "outputs": [],
      "stateMutability": "nonpayable",
      "type": "function"
    },
    {
      "inputs": [
        {
          "internalType": "bytes",
          "name": "_arbitratorExtraData",
          "type": "bytes"
        },
        {
          "internalType": "string",
          "name": "_disputeTemplate",
          "type": "string"
        },
        {
          "internalType": "string",
          "name": "_disputeTemplateDataMappings",
          "type": "string"
        },
        {
          "internalType": "uint256",
          "name": "_numberOfRulingOptions",
          "type": "uint256"
        }
      ],
      "name": "createDisputeForTemplate",
      "outputs": [
        {
          "internalType": "uint256",
          "name": "disputeID",
          "type": "uint256"
        }
      ],
      "stateMutability": "payable",
      "type": "function"
    },
    {
      "inputs": [
        {
          "internalType": "bytes",
          "name": "_arbitratorExtraData",
          "type": "bytes"
        },
        {
          "internalType": "string",
          "name": "_disputeTemplateUri",
          "type": "string"
        },
        {
          "internalType": "uint256",
          "name": "_numberOfRulingOptions",
          "type": "uint256"
        }
      ],
      "name": "createDisputeForTemplateUri",
      "outputs": [
        {
          "internalType": "uint256",
          "name": "disputeID",
          "type": "uint256"
        }
      ],
      "stateMutability": "payable",
      "type": "function"
    },
    {
      "inputs": [
        {
          "internalType": "uint256",
          "name": "",
          "type": "uint256"
        }
      ],
      "name": "disputes",
      "outputs": [
        {
          "internalType": "bytes",
          "name": "arbitratorExtraData",
          "type": "bytes"
        },
        {
          "internalType": "bool",
          "name": "isRuled",
          "type": "bool"
        },
        {
          "internalType": "uint256",
          "name": "ruling",
          "type": "uint256"
        },
        {
          "internalType": "uint256",
          "name": "numberOfRulingOptions",
          "type": "uint256"
        }
      ],
      "stateMutability": "view",
      "type": "function"
    },
    {
      "inputs": [],
      "name": "governor",
      "outputs": [
        {
          "internalType": "address",
          "name": "",
          "type": "address"
        }
      ],
      "stateMutability": "view",
      "type": "function"
    },
    {
      "inputs": [
        {
          "internalType": "uint256",
          "name": "_externalDisputeID",
          "type": "uint256"
        },
        {
          "internalType": "uint256",
          "name": "_ruling",
          "type": "uint256"
        }
      ],
      "name": "rule",
      "outputs": [],
      "stateMutability": "nonpayable",
      "type": "function"
    },
    {
      "inputs": [],
      "name": "templateRegistry",
      "outputs": [
        {
          "internalType": "contract IDisputeTemplateRegistry",
          "name": "",
          "type": "address"
        }
      ],
      "stateMutability": "view",
      "type": "function"
    }
  ],
  "transactionHash": "0x7615e3a6ad32fb17c784c627aa6aea53567ad1d1ef8c4856f8ffcf1b1b369e5b",
  "args": [
    "0x83F393F2aE68FA6A6701D7c65CBbFf3225f3fDf9",
    "0x96E49552669ea81B8E9cE8694F7E4A55D8bFb957"
  ],
  "numDeployments": 2,
  "solcInputHash": "4a879192e8bde2273db37e489aeff250",
  "bytecode": "0x608060405234801561001057600080fd5b50604051610ed5380380610ed583398101604081905261002f91610083565b600080546001600160a01b03199081163317909155600180546001600160a01b03948516908316179055600280549290931691161790556100bd565b6001600160a01b038116811461008057600080fd5b50565b6000806040838503121561009657600080fd5b82516100a18161006b565b60208401519092506100b28161006b565b809150509250929050565b610e09806100cc6000396000f3fe60806040526004361061009c5760003560e01c8063908bb29511610064578063908bb29514610170578063a0af81f014610191578063dc653511146101b1578063e09997d9146101c4578063e4c0aaf4146101f1578063fc548f081461021157600080fd5b80630c340a24146100a1578063311a6c56146100de5780634660ebbe14610100578063564a565d146101205780636cc6cde114610150575b600080fd5b3480156100ad57600080fd5b506000546100c1906001600160a01b031681565b6040516001600160a01b0390911681526020015b60405180910390f35b3480156100ea57600080fd5b506100fe6100f93660046108bb565b610231565b005b34801561010c57600080fd5b506100fe61011b3660046108f5565b6103d1565b34801561012c57600080fd5b5061014061013b366004610919565b61041d565b6040516100d59493929190610978565b34801561015c57600080fd5b506001546100c1906001600160a01b031681565b61018361017e3660046109f0565b6104eb565b6040519081526020016100d5565b34801561019d57600080fd5b506002546100c1906001600160a01b031681565b6101836101bf366004610a7a565b61055a565b3480156101d057600080fd5b506101836101df366004610919565b60046020526000908152604090205481565b3480156101fd57600080fd5b506100fe61020c3660046108f5565b6105b9565b34801561021d57600080fd5b506100fe61022c3660046108f5565b610605565b600082815260046020526040812054600380549192918390811061025757610257610b88565b6000918252602090912060015460049092020191506001600160a01b031633146102d65760405162461bcd60e51b815260206004820152602560248201527f4f6e6c79207468652061726269747261746f722063616e2065786563757465206044820152643a3434b99760d91b60648201526084015b60405180910390fd5b806003015483111561031c5760405162461bcd60e51b815260206004820152600f60248201526e24b73b30b634b210393ab634b7339760891b60448201526064016102cd565b600181015460ff161561037d5760405162461bcd60e51b8152602060048201526024808201527f54686973206469737075746520686173206265656e2072756c656420616c726560448201526330b23c9760e11b60648201526084016102cd565b6001818101805460ff1916909117905560028101839055604051838152849033907f394027a5fa6e098a1191094d1719d6929b9abc535fcc0c8f448d6a4e756222769060200160405180910390a350505050565b6000546001600160a01b031633146103fb5760405162461bcd60e51b81526004016102cd90610b9e565b600280546001600160a01b0319166001600160a01b0392909216919091179055565b6003818154811061042d57600080fd5b906000526020600020906004020160009150905080600001805461045090610be0565b80601f016020809104026020016040519081016040528092919081815260200182805461047c90610be0565b80156104c95780601f1061049e576101008083540402835291602001916104c9565b820191906000526020600020905b8154815290600101906020018083116104ac57829003601f168201915b5050505060018301546002840154600390940154929360ff9091169290915084565b60006105508686604051806020016040528060008152506040518060200160405280600081525088888080601f0160208091040260200160405190810160405280939291908181526020018383808284376000920191909152508a9250610651915050565b9695505050505050565b60006105ae878787878080601f016020809104026020016040519081016040528093929190818152602001838380828437600092018290525060408051602081019091529081528a93509150889050610651565b979650505050505050565b6000546001600160a01b031633146105e35760405162461bcd60e51b81526004016102cd90610b9e565b600080546001600160a01b0319166001600160a01b0392909216919091179055565b6000546001600160a01b0316331461062f5760405162461bcd60e51b81526004016102cd90610b9e565b600180546001600160a01b0319166001600160a01b0392909216919091179055565b6000600182116106af5760405162461bcd60e51b8152602060048201526024808201527f53686f756c64206265206174206c6561737420322072756c696e67206f70746960448201526337b7399760e11b60648201526084016102cd565b60015460405163c13517e160e01b81526001600160a01b039091169063c13517e19034906106e59086908c908c90600401610c1a565b60206040518083038185885af1158015610703573d6000803e3d6000fd5b50505050506040513d601f19601f820116820180604052508101906107289190610c50565b600380546040805160a06020601f8d018190040282018101909252608081018b8152949550919382918c908c90819085018382808284376000920182905250938552505050602080830182905260408301829052606090920187905283546001810185559381522081519192600402019081906107a59082610cb8565b5060208281015160018301805460ff19169115159190911790556040808401516002808501919091556060909401516003909301929092556000858152600491829052828120859055925491516312a6505d60e21b81526001600160a01b0390921691634a9941749161081c918b918b9101610d78565b6020604051808303816000875af115801561083b573d6000803e3d6000fd5b505050506040513d601f19601f8201168201806040525081019061085f9190610c50565b60015460405191925084916001600160a01b03909116907f8bd32f430ff060e6bd204709b3790c9807987263d3230c580dc80b5f89e27186906108a790869086908b90610db4565b60405180910390a350509695505050505050565b600080604083850312156108ce57600080fd5b50508035926020909101359150565b6001600160a01b03811681146108f257600080fd5b50565b60006020828403121561090757600080fd5b8135610912816108dd565b9392505050565b60006020828403121561092b57600080fd5b5035919050565b6000815180845260005b818110156109585760208185018101518683018201520161093c565b506000602082860101526020601f19601f83011685010191505092915050565b60808152600061098b6080830187610932565b9415156020830152506040810192909252606090910152919050565b60008083601f8401126109b957600080fd5b50813567ffffffffffffffff8111156109d157600080fd5b6020830191508360208285010111156109e957600080fd5b9250929050565b600080600080600060608688031215610a0857600080fd5b853567ffffffffffffffff80821115610a2057600080fd5b610a2c89838a016109a7565b90975095506020880135915080821115610a4557600080fd5b50610a52888289016109a7565b96999598509660400135949350505050565b634e487b7160e01b600052604160045260246000fd5b60008060008060008060808789031215610a9357600080fd5b863567ffffffffffffffff80821115610aab57600080fd5b610ab78a838b016109a7565b90985096506020890135915080821115610ad057600080fd5b610adc8a838b016109a7565b90965094506040890135915080821115610af557600080fd5b818901915089601f830112610b0957600080fd5b813581811115610b1b57610b1b610a64565b604051601f8201601f19908116603f01168101908382118183101715610b4357610b43610a64565b816040528281528c6020848701011115610b5c57600080fd5b826020860160208301376000602084830101528096505050505050606087013590509295509295509295565b634e487b7160e01b600052603260045260246000fd5b60208082526022908201527f416363657373206e6f7420616c6c6f7765643a20476f7665726e6f72206f6e6c6040820152613c9760f11b606082015260800190565b600181811c90821680610bf457607f821691505b602082108103610c1457634e487b7160e01b600052602260045260246000fd5b50919050565b83815260406020820152816040820152818360608301376000818301606090810191909152601f909201601f1916010192915050565b600060208284031215610c6257600080fd5b5051919050565b601f821115610cb357600081815260208120601f850160051c81016020861015610c905750805b601f850160051c820191505b81811015610caf57828155600101610c9c565b5050505b505050565b815167ffffffffffffffff811115610cd257610cd2610a64565b610ce681610ce08454610be0565b84610c69565b602080601f831160018114610d1b5760008415610d035750858301515b600019600386901b1c1916600185901b178555610caf565b600085815260208120601f198616915b82811015610d4a57888601518255948401946001909101908401610d2b565b5085821015610d685787850151600019600388901b60f8161c191681555b5050505050600190811b01905550565b6060815260006060820152608060208201526000610d996080830185610932565b8281036040840152610dab8185610932565b95945050505050565b838152826020820152606060408201526000610dab606083018461093256fea2646970667358221220c324d7140e9a3d1af3d79e61c385889111fcf915450df6674ffa003e40949e0964736f6c63430008120033",
  "devdoc": {
    "events": {
      "DisputeRequest(address,uint256,uint256,uint256,string)": {
        "details": "To be emitted when a dispute is created to link the correct meta-evidence to the disputeID.",
        "params": {
          "_arbitrableDisputeID": "The identifier of the dispute in the Arbitrable contract.",
          "_arbitrator": "The arbitrator of the contract.",
          "_externalDisputeID": "An identifier created outside Kleros by the protocol requesting arbitration.",
          "_templateId": "The identifier of the dispute template. Should not be used with _templateUri.",
          "_templateUri": "The URI to the dispute template. For example on IPFS: starting with '/ipfs/'. Should not be used with _templateId."
        }
      },
      "Ruling(address,uint256,uint256)": {
        "details": "To be raised when a ruling is given.",
        "params": {
          "_arbitrator": "The arbitrator giving the ruling.",
          "_disputeID": "The identifier of the dispute in the Arbitrator contract.",
          "_ruling": "The ruling which was given."
        }
      }
    },
    "kind": "dev",
    "methods": {
      "changeGovernor(address)": {
        "details": "Changes the governor.",
        "params": {
          "_governor": "The address of the new governor."
        }
      },
      "constructor": {
        "details": "Constructor",
        "params": {
          "_arbitrator": "Target global arbitrator for any disputes."
        }
      },
      "createDisputeForTemplate(bytes,string,string,uint256)": {
        "details": "Calls createDispute function of the specified arbitrator to create a dispute. Note that we dont need to check that msg.value is enough to pay arbitration fees as its the responsibility of the arbitrator contract.",
        "params": {
          "_arbitratorExtraData": "Extra data for the arbitrator of the dispute.",
          "_disputeTemplate": "Dispute template.",
          "_disputeTemplateDataMappings": "The data mappings.",
          "_numberOfRulingOptions": "Number of ruling options."
        },
        "returns": {
          "disputeID": "Dispute id (on arbitrator side) of the created dispute."
        }
      },
      "createDisputeForTemplateUri(bytes,string,uint256)": {
        "details": "Calls createDispute function of the specified arbitrator to create a dispute. Note that we dont need to check that msg.value is enough to pay arbitration fees as its the responsibility of the arbitrator contract.",
        "params": {
          "_arbitratorExtraData": "Extra data for the arbitrator of the dispute.",
          "_disputeTemplateUri": "The URI to the dispute template. For example on IPFS: starting with '/ipfs/'.",
          "_numberOfRulingOptions": "Number of ruling options."
        },
        "returns": {
          "disputeID": "Dispute id (on arbitrator side) of the created dispute."
        }
      },
      "rule(uint256,uint256)": {
        "details": "To be called by the arbitrator of the dispute, to declare the winning ruling.",
        "params": {
          "_externalDisputeID": "ID of the dispute in arbitrator contract.",
          "_ruling": "The ruling choice of the arbitration."
        }
      }
    },
    "title": "DisputeResolver DisputeResolver contract adapted for V2 from https://github.com/kleros/arbitrable-proxy-contracts/blob/master/contracts/ArbitrableProxy.sol.",
    "version": 1
  },
  "userdoc": {
    "kind": "user",
    "methods": {},
    "version": 1
  },
  "storageLayout": {
    "storage": [
      {
        "astId": 9861,
        "contract": "src/arbitration/arbitrables/DisputeResolver.sol:DisputeResolver",
        "label": "governor",
        "offset": 0,
        "slot": "0",
        "type": "t_address"
      },
      {
        "astId": 9864,
        "contract": "src/arbitration/arbitrables/DisputeResolver.sol:DisputeResolver",
        "label": "arbitrator",
        "offset": 0,
        "slot": "1",
        "type": "t_contract(IArbitratorV2)15461"
      },
      {
        "astId": 9867,
        "contract": "src/arbitration/arbitrables/DisputeResolver.sol:DisputeResolver",
        "label": "templateRegistry",
        "offset": 0,
        "slot": "2",
        "type": "t_contract(IDisputeTemplateRegistry)15627"
      },
      {
        "astId": 9871,
        "contract": "src/arbitration/arbitrables/DisputeResolver.sol:DisputeResolver",
        "label": "disputes",
        "offset": 0,
        "slot": "3",
        "type": "t_array(t_struct(DisputeStruct)9859_storage)dyn_storage"
      },
      {
        "astId": 9875,
        "contract": "src/arbitration/arbitrables/DisputeResolver.sol:DisputeResolver",
        "label": "arbitratorDisputeIDToLocalID",
        "offset": 0,
        "slot": "4",
        "type": "t_mapping(t_uint256,t_uint256)"
      }
    ],
    "types": {
      "t_address": {
        "encoding": "inplace",
        "label": "address",
        "numberOfBytes": "20"
      },
      "t_array(t_struct(DisputeStruct)9859_storage)dyn_storage": {
        "base": "t_struct(DisputeStruct)9859_storage",
        "encoding": "dynamic_array",
        "label": "struct DisputeResolver.DisputeStruct[]",
        "numberOfBytes": "32"
      },
      "t_bool": {
        "encoding": "inplace",
        "label": "bool",
        "numberOfBytes": "1"
      },
      "t_bytes_storage": {
        "encoding": "bytes",
        "label": "bytes",
        "numberOfBytes": "32"
      },
      "t_contract(IArbitratorV2)15461": {
        "encoding": "inplace",
        "label": "contract IArbitratorV2",
        "numberOfBytes": "20"
      },
      "t_contract(IDisputeTemplateRegistry)15627": {
        "encoding": "inplace",
        "label": "contract IDisputeTemplateRegistry",
        "numberOfBytes": "20"
      },
      "t_mapping(t_uint256,t_uint256)": {
        "encoding": "mapping",
        "key": "t_uint256",
        "label": "mapping(uint256 => uint256)",
        "numberOfBytes": "32",
        "value": "t_uint256"
      },
      "t_struct(DisputeStruct)9859_storage": {
        "encoding": "inplace",
        "label": "struct DisputeResolver.DisputeStruct",
        "members": [
          {
            "astId": 9852,
            "contract": "src/arbitration/arbitrables/DisputeResolver.sol:DisputeResolver",
            "label": "arbitratorExtraData",
            "offset": 0,
            "slot": "0",
            "type": "t_bytes_storage"
          },
          {
            "astId": 9854,
            "contract": "src/arbitration/arbitrables/DisputeResolver.sol:DisputeResolver",
            "label": "isRuled",
            "offset": 0,
            "slot": "1",
            "type": "t_bool"
          },
          {
            "astId": 9856,
            "contract": "src/arbitration/arbitrables/DisputeResolver.sol:DisputeResolver",
            "label": "ruling",
            "offset": 0,
            "slot": "2",
            "type": "t_uint256"
          },
          {
            "astId": 9858,
            "contract": "src/arbitration/arbitrables/DisputeResolver.sol:DisputeResolver",
            "label": "numberOfRulingOptions",
            "offset": 0,
            "slot": "3",
            "type": "t_uint256"
          }
        ],
        "numberOfBytes": "128"
      },
      "t_uint256": {
        "encoding": "inplace",
        "label": "uint256",
        "numberOfBytes": "32"
      }
    }
  }
}