{
  "address": "0x96E49552669ea81B8E9cE8694F7E4A55D8bFb957",
  "abi": [
    {
      "anonymous": false,
      "inputs": [
        {
          "indexed": true,
          "internalType": "uint256",
          "name": "_templateId",
          "type": "uint256"
        },
        {
          "indexed": true,
          "internalType": "string",
          "name": "_templateTag",
          "type": "string"
        },
        {
          "indexed": false,
          "internalType": "string",
          "name": "_templateData",
          "type": "string"
        },
        {
          "indexed": false,
          "internalType": "string",
          "name": "_templateDataMappings",
          "type": "string"
        }
      ],
      "name": "DisputeTemplate",
      "type": "event"
    },
    {
      "inputs": [
        {
          "internalType": "string",
          "name": "_templateTag",
          "type": "string"
        },
        {
          "internalType": "string",
          "name": "_templateData",
          "type": "string"
        },
        {
          "internalType": "string",
          "name": "_templateDataMappings",
          "type": "string"
        }
      ],
      "name": "setDisputeTemplate",
      "outputs": [
        {
          "internalType": "uint256",
          "name": "templateId",
          "type": "uint256"
        }
      ],
      "stateMutability": "nonpayable",
      "type": "function"
    },
    {
      "inputs": [],
      "name": "templates",
      "outputs": [
        {
          "internalType": "uint256",
          "name": "",
          "type": "uint256"
        }
      ],
      "stateMutability": "view",
      "type": "function"
    }
  ],
  "transactionHash": "0x043c67386392003bc857ccfd218e1c4fef7470c085c30373136eb3735805c069",
  "args": [],
  "numDeployments": 1,
  "solcInputHash": "356abb1cf2a2e12b481e44f0376af297",
  "bytecode": "0x608060405234801561001057600080fd5b506102f1806100206000396000f3fe608060405234801561001057600080fd5b50600436106100365760003560e01c80633a283d7d1461003b5780634a99417414610056575b600080fd5b61004460005481565b60405190815260200160405180910390f35b610044610064366004610172565b600080548180610073836101fa565b919050559050836040516100879190610245565b6040518091039020817ef7cd7255d1073b4e136dd477c38ea0020c051ab17110cc5bfab0c840ff992485856040516100c092919061028d565b60405180910390a39392505050565b634e487b7160e01b600052604160045260246000fd5b600082601f8301126100f657600080fd5b813567ffffffffffffffff80821115610111576101116100cf565b604051601f8301601f19908116603f01168101908282118183101715610139576101396100cf565b8160405283815286602085880101111561015257600080fd5b836020870160208301376000602085830101528094505050505092915050565b60008060006060848603121561018757600080fd5b833567ffffffffffffffff8082111561019f57600080fd5b6101ab878388016100e5565b945060208601359150808211156101c157600080fd5b6101cd878388016100e5565b935060408601359150808211156101e357600080fd5b506101f0868287016100e5565b9150509250925092565b60006001820161021a57634e487b7160e01b600052601160045260246000fd5b5060010190565b60005b8381101561023c578181015183820152602001610224565b50506000910152565b60008251610257818460208701610221565b9190910192915050565b60008151808452610279816020860160208601610221565b601f01601f19169290920160200192915050565b6040815260006102a06040830185610261565b82810360208401526102b28185610261565b9594505050505056fea26469706673582212208e28c2a1ac6bf992487f46d3bb5b26e186ac986099d0d98440c6107f111f92ab64736f6c63430008120033",
  "devdoc": {
    "details": "A contract to maintain a registry of dispute templates.",
    "events": {
      "DisputeTemplate(uint256,string,string,string)": {
        "details": "To be emitted when a new dispute template is created.",
        "params": {
          "_templateData": "The template data.",
          "_templateDataMappings": "The data mappings.",
          "_templateId": "The identifier of the dispute template.",
          "_templateTag": "An optional tag for the dispute template, such as \"registration\" or \"removal\"."
        }
      }
    },
    "kind": "dev",
    "methods": {},
    "title": "Dispute Template Registry",
    "version": 1
  },
  "userdoc": {
    "kind": "user",
    "methods": {},
    "version": 1
  },
  "storageLayout": {
    "storage": [
      {
        "astId": 85,
        "contract": "src/arbitration/DisputeTemplateRegistry.sol:DisputeTemplateRegistry",
        "label": "templates",
        "offset": 0,
        "slot": "0",
        "type": "t_uint256"
      }
    ],
    "types": {
      "t_uint256": {
        "encoding": "inplace",
        "label": "uint256",
        "numberOfBytes": "32"
      }
    }
  }
}