{
  "address": "0x144041583291AD96Bff693E28D3eACFe12cb0a03",
  "abi": [
    {
      "inputs": [
        {
          "internalType": "address",
          "name": "_governor",
          "type": "address"
        },
        {
          "internalType": "contract IERC20",
          "name": "_pinakion",
          "type": "address"
        },
        {
          "internalType": "address",
          "name": "_jurorProsecutionModule",
          "type": "address"
        },
        {
          "internalType": "contract IDisputeKit",
          "name": "_disputeKit",
          "type": "address"
        },
        {
          "internalType": "bool",
          "name": "_hiddenVotes",
          "type": "bool"
        },
        {
          "internalType": "uint256[4]",
          "name": "_courtParameters",
          "type": "uint256[4]"
        },
        {
          "internalType": "uint256[4]",
          "name": "_timesPerPeriod",
          "type": "uint256[4]"
        },
        {
          "internalType": "bytes",
          "name": "_sortitionExtraData",
          "type": "bytes"
        },
        {
          "internalType": "contract ISortitionModule",
          "name": "_sortitionModuleAddress",
          "type": "address"
        }
      ],
      "stateMutability": "nonpayable",
      "type": "constructor"
    },
    {
      "inputs": [],
      "name": "AppealFeesNotEnough",
      "type": "error"
    },
    {
      "inputs": [],
      "name": "AppealPeriodNotPassed",
      "type": "error"
    },
    {
      "inputs": [],
      "name": "ArbitrationFeesNotEnough",
      "type": "error"
    },
    {
      "inputs": [],
      "name": "ArraysLengthMismatch",
      "type": "error"
    },
    {
      "inputs": [],
      "name": "CannotDisableRootDKInGeneral",
      "type": "error"
    },
    {
      "inputs": [],
      "name": "CommitPeriodNotPassed",
      "type": "error"
    },
    {
      "inputs": [],
      "name": "DepthLevelMax",
      "type": "error"
    },
    {
      "inputs": [],
      "name": "DisputeKitNotSupportedByCourt",
      "type": "error"
    },
    {
      "inputs": [],
      "name": "DisputeKitOnly",
      "type": "error"
    },
    {
      "inputs": [],
      "name": "DisputeNotAppealable",
      "type": "error"
    },
    {
      "inputs": [],
      "name": "DisputePeriodIsFinal",
      "type": "error"
    },
    {
      "inputs": [],
      "name": "DisputeStillDrawing",
      "type": "error"
    },
    {
      "inputs": [],
      "name": "EvidenceNotPassedAndNotAppeal",
      "type": "error"
    },
    {
      "inputs": [],
      "name": "GovernorOnly",
      "type": "error"
    },
    {
      "inputs": [],
      "name": "InvalidDisputKitParent",
      "type": "error"
    },
    {
      "inputs": [],
      "name": "InvalidForkingCourtAsParent",
      "type": "error"
    },
    {
      "inputs": [],
      "name": "MinStakeLowerThanParentCourt",
      "type": "error"
    },
    {
      "inputs": [],
      "name": "NotEvidencePeriod",
      "type": "error"
    },
    {
      "inputs": [],
      "name": "NotExecutionPeriod",
      "type": "error"
    },
    {
      "inputs": [],
      "name": "RulingAlreadyExecuted",
      "type": "error"
    },
    {
      "inputs": [],
      "name": "StakingFailed",
      "type": "error"
    },
    {
      "inputs": [],
      "name": "TokenNotAccepted",
      "type": "error"
    },
    {
      "inputs": [],
      "name": "UnsuccessfulCall",
      "type": "error"
    },
    {
      "inputs": [],
      "name": "UnsupportedDisputeKit",
      "type": "error"
    },
    {
      "inputs": [],
      "name": "VotePeriodNotPassed",
      "type": "error"
    },
    {
      "inputs": [],
      "name": "WrongCaller",
      "type": "error"
    },
    {
      "inputs": [],
      "name": "WrongDisputeKitIndex",
      "type": "error"
    },
    {
      "anonymous": false,
      "inputs": [
        {
          "indexed": true,
          "internalType": "contract IERC20",
          "name": "_token",
          "type": "address"
        },
        {
          "indexed": true,
          "internalType": "bool",
          "name": "_accepted",
          "type": "bool"
        }
      ],
      "name": "AcceptedFeeToken",
      "type": "event"
    },
    {
      "anonymous": false,
      "inputs": [
        {
          "indexed": true,
          "internalType": "uint256",
          "name": "_disputeID",
          "type": "uint256"
        },
        {
          "indexed": true,
          "internalType": "contract IArbitrableV2",
          "name": "_arbitrable",
          "type": "address"
        }
      ],
      "name": "AppealDecision",
      "type": "event"
    },
    {
      "anonymous": false,
      "inputs": [
        {
          "indexed": true,
          "internalType": "uint256",
          "name": "_disputeID",
          "type": "uint256"
        },
        {
          "indexed": true,
          "internalType": "contract IArbitrableV2",
          "name": "_arbitrable",
          "type": "address"
        }
      ],
      "name": "AppealPossible",
      "type": "event"
    },
    {
      "anonymous": false,
      "inputs": [
        {
          "indexed": true,
          "internalType": "uint256",
          "name": "_courtID",
          "type": "uint256"
        },
        {
          "indexed": true,
          "internalType": "uint96",
          "name": "_parent",
          "type": "uint96"
        },
        {
          "indexed": false,
          "internalType": "bool",
          "name": "_hiddenVotes",
          "type": "bool"
        },
        {
          "indexed": false,
          "internalType": "uint256",
          "name": "_minStake",
          "type": "uint256"
        },
        {
          "indexed": false,
          "internalType": "uint256",
          "name": "_alpha",
          "type": "uint256"
        },
        {
          "indexed": false,
          "internalType": "uint256",
          "name": "_feeForJuror",
          "type": "uint256"
        },
        {
          "indexed": false,
          "internalType": "uint256",
          "name": "_jurorsForCourtJump",
          "type": "uint256"
        },
        {
          "indexed": false,
          "internalType": "uint256[4]",
          "name": "_timesPerPeriod",
          "type": "uint256[4]"
        },
        {
          "indexed": false,
          "internalType": "uint256[]",
          "name": "_supportedDisputeKits",
          "type": "uint256[]"
        }
      ],
      "name": "CourtCreated",
      "type": "event"
    },
    {
      "anonymous": false,
      "inputs": [
        {
          "indexed": true,
          "internalType": "uint256",
          "name": "_disputeID",
          "type": "uint256"
        },
        {
          "indexed": true,
          "internalType": "uint256",
          "name": "_roundID",
          "type": "uint256"
        },
        {
          "indexed": true,
          "internalType": "uint96",
          "name": "_fromCourtID",
          "type": "uint96"
        },
        {
          "indexed": false,
          "internalType": "uint96",
          "name": "_toCourtID",
          "type": "uint96"
        }
      ],
      "name": "CourtJump",
      "type": "event"
    },
    {
      "anonymous": false,
      "inputs": [
        {
          "indexed": true,
          "internalType": "uint96",
          "name": "_courtID",
          "type": "uint96"
        },
        {
          "indexed": false,
          "internalType": "bool",
          "name": "_hiddenVotes",
          "type": "bool"
        },
        {
          "indexed": false,
          "internalType": "uint256",
          "name": "_minStake",
          "type": "uint256"
        },
        {
          "indexed": false,
          "internalType": "uint256",
          "name": "_alpha",
          "type": "uint256"
        },
        {
          "indexed": false,
          "internalType": "uint256",
          "name": "_feeForJuror",
          "type": "uint256"
        },
        {
          "indexed": false,
          "internalType": "uint256",
          "name": "_jurorsForCourtJump",
          "type": "uint256"
        },
        {
          "indexed": false,
          "internalType": "uint256[4]",
          "name": "_timesPerPeriod",
          "type": "uint256[4]"
        }
      ],
      "name": "CourtModified",
      "type": "event"
    },
    {
      "anonymous": false,
      "inputs": [
        {
          "indexed": true,
          "internalType": "uint256",
          "name": "_disputeID",
          "type": "uint256"
        },
        {
          "indexed": true,
          "internalType": "contract IArbitrableV2",
          "name": "_arbitrable",
          "type": "address"
        }
      ],
      "name": "DisputeCreation",
      "type": "event"
    },
    {
      "anonymous": false,
      "inputs": [
        {
          "indexed": true,
          "internalType": "uint256",
          "name": "_disputeKitID",
          "type": "uint256"
        },
        {
          "indexed": true,
          "internalType": "contract IDisputeKit",
          "name": "_disputeKitAddress",
          "type": "address"
        },
        {
          "indexed": true,
          "internalType": "uint256",
          "name": "_parent",
          "type": "uint256"
        }
      ],
      "name": "DisputeKitCreated",
      "type": "event"
    },
    {
      "anonymous": false,
      "inputs": [
        {
          "indexed": true,
          "internalType": "uint96",
          "name": "_courtID",
          "type": "uint96"
        },
        {
          "indexed": true,
          "internalType": "uint256",
          "name": "_disputeKitID",
          "type": "uint256"
        },
        {
          "indexed": true,
          "internalType": "bool",
          "name": "_enable",
          "type": "bool"
        }
      ],
      "name": "DisputeKitEnabled",
      "type": "event"
    },
    {
      "anonymous": false,
      "inputs": [
        {
          "indexed": true,
          "internalType": "uint256",
          "name": "_disputeID",
          "type": "uint256"
        },
        {
          "indexed": true,
          "internalType": "uint256",
          "name": "_roundID",
          "type": "uint256"
        },
        {
          "indexed": true,
          "internalType": "uint256",
          "name": "_fromDisputeKitID",
          "type": "uint256"
        },
        {
          "indexed": false,
          "internalType": "uint256",
          "name": "_toDisputeKitID",
          "type": "uint256"
        }
      ],
      "name": "DisputeKitJump",
      "type": "event"
    },
    {
      "anonymous": false,
      "inputs": [
        {
          "indexed": true,
          "internalType": "address",
          "name": "_address",
          "type": "address"
        },
        {
          "indexed": true,
          "internalType": "uint256",
          "name": "_disputeID",
          "type": "uint256"
        },
        {
          "indexed": false,
          "internalType": "uint256",
          "name": "_roundID",
          "type": "uint256"
        },
        {
          "indexed": false,
          "internalType": "uint256",
          "name": "_voteID",
          "type": "uint256"
        }
      ],
      "name": "Draw",
      "type": "event"
    },
    {
      "anonymous": false,
      "inputs": [
        {
          "indexed": true,
          "internalType": "uint256",
          "name": "_disputeID",
          "type": "uint256"
        },
        {
          "indexed": true,
          "internalType": "uint256",
          "name": "_roundID",
          "type": "uint256"
        },
        {
          "indexed": false,
          "internalType": "uint256",
          "name": "_pnkAmount",
          "type": "uint256"
        },
        {
          "indexed": false,
          "internalType": "uint256",
          "name": "_feeAmount",
          "type": "uint256"
        },
        {
          "indexed": false,
          "internalType": "contract IERC20",
          "name": "_feeToken",
          "type": "address"
        }
      ],
      "name": "LeftoverRewardSent",
      "type": "event"
    },
    {
      "anonymous": false,
      "inputs": [
        {
          "indexed": true,
          "internalType": "uint256",
          "name": "_disputeID",
          "type": "uint256"
        },
        {
          "indexed": false,
          "internalType": "enum KlerosCore.Period",
          "name": "_period",
          "type": "uint8"
        }
      ],
      "name": "NewPeriod",
      "type": "event"
    },
    {
      "anonymous": false,
      "inputs": [
        {
          "indexed": true,
          "internalType": "contract IArbitrableV2",
          "name": "_arbitrable",
          "type": "address"
        },
        {
          "indexed": true,
          "internalType": "uint256",
          "name": "_disputeID",
          "type": "uint256"
        },
        {
          "indexed": false,
          "internalType": "uint256",
          "name": "_ruling",
          "type": "uint256"
        }
      ],
      "name": "Ruling",
      "type": "event"
    },
    {
      "anonymous": false,
      "inputs": [
        {
          "indexed": true,
          "internalType": "address",
          "name": "_address",
          "type": "address"
        },
        {
          "indexed": false,
          "internalType": "uint256",
          "name": "_courtID",
          "type": "uint256"
        },
        {
          "indexed": false,
          "internalType": "uint256",
          "name": "_amount",
          "type": "uint256"
        },
        {
          "indexed": false,
          "internalType": "uint256",
          "name": "_penalty",
          "type": "uint256"
        }
      ],
      "name": "StakeDelayed",
      "type": "event"
    },
    {
      "anonymous": false,
      "inputs": [
        {
          "indexed": true,
          "internalType": "address",
          "name": "_address",
          "type": "address"
        },
        {
          "indexed": false,
          "internalType": "uint256",
          "name": "_courtID",
          "type": "uint256"
        },
        {
          "indexed": false,
          "internalType": "uint256",
          "name": "_amount",
          "type": "uint256"
        }
      ],
      "name": "StakeSet",
      "type": "event"
    },
    {
      "anonymous": false,
      "inputs": [
        {
          "indexed": true,
          "internalType": "address",
          "name": "_account",
          "type": "address"
        },
        {
          "indexed": true,
          "internalType": "uint256",
          "name": "_disputeID",
          "type": "uint256"
        },
        {
          "indexed": true,
          "internalType": "uint256",
          "name": "_roundID",
          "type": "uint256"
        },
        {
          "indexed": false,
          "internalType": "uint256",
          "name": "_degreeOfCoherency",
          "type": "uint256"
        },
        {
          "indexed": false,
          "internalType": "int256",
          "name": "_pnkAmount",
          "type": "int256"
        },
        {
          "indexed": false,
          "internalType": "int256",
          "name": "_feeAmount",
          "type": "int256"
        },
        {
          "indexed": false,
          "internalType": "contract IERC20",
          "name": "_feeToken",
          "type": "address"
        }
      ],
      "name": "TokenAndETHShift",
      "type": "event"
    },
    {
      "inputs": [],
      "name": "ALPHA_DIVISOR",
      "outputs": [
        {
          "internalType": "uint256",
          "name": "",
          "type": "uint256"
        }
      ],
      "stateMutability": "view",
      "type": "function"
    },
    {
      "inputs": [],
      "name": "DEFAULT_NB_OF_JURORS",
      "outputs": [
        {
          "internalType": "uint256",
          "name": "",
          "type": "uint256"
        }
      ],
      "stateMutability": "view",
      "type": "function"
    },
    {
      "inputs": [],
      "name": "DISPUTE_KIT_CLASSIC",
      "outputs": [
        {
          "internalType": "uint256",
          "name": "",
          "type": "uint256"
        }
      ],
      "stateMutability": "view",
      "type": "function"
    },
    {
      "inputs": [],
      "name": "FORKING_COURT",
      "outputs": [
        {
          "internalType": "uint96",
          "name": "",
          "type": "uint96"
        }
      ],
      "stateMutability": "view",
      "type": "function"
    },
    {
      "inputs": [],
      "name": "GENERAL_COURT",
      "outputs": [
        {
          "internalType": "uint96",
          "name": "",
          "type": "uint96"
        }
      ],
      "stateMutability": "view",
      "type": "function"
    },
    {
      "inputs": [],
      "name": "NATIVE_CURRENCY",
      "outputs": [
        {
          "internalType": "contract IERC20",
          "name": "",
          "type": "address"
        }
      ],
      "stateMutability": "view",
      "type": "function"
    },
    {
      "inputs": [],
      "name": "NON_PAYABLE_AMOUNT",
      "outputs": [
        {
          "internalType": "uint256",
          "name": "",
          "type": "uint256"
        }
      ],
      "stateMutability": "view",
      "type": "function"
    },
    {
      "inputs": [],
      "name": "NULL_DISPUTE_KIT",
      "outputs": [
        {
          "internalType": "uint256",
          "name": "",
          "type": "uint256"
        }
      ],
      "stateMutability": "view",
      "type": "function"
    },
    {
      "inputs": [],
      "name": "SEARCH_ITERATIONS",
      "outputs": [
        {
          "internalType": "uint256",
          "name": "",
          "type": "uint256"
        }
      ],
      "stateMutability": "view",
      "type": "function"
    },
    {
      "inputs": [
        {
          "internalType": "contract IDisputeKit",
          "name": "_disputeKitAddress",
          "type": "address"
        },
        {
          "internalType": "uint256",
          "name": "_parent",
          "type": "uint256"
        }
      ],
      "name": "addNewDisputeKit",
      "outputs": [],
      "stateMutability": "nonpayable",
      "type": "function"
    },
    {
      "inputs": [
        {
          "internalType": "uint256",
          "name": "_disputeID",
          "type": "uint256"
        },
        {
          "internalType": "uint256",
          "name": "_numberOfChoices",
          "type": "uint256"
        },
        {
          "internalType": "bytes",
          "name": "_extraData",
          "type": "bytes"
        }
      ],
      "name": "appeal",
      "outputs": [],
      "stateMutability": "payable",
      "type": "function"
    },
    {
      "inputs": [
        {
          "internalType": "uint256",
          "name": "_disputeID",
          "type": "uint256"
        }
      ],
      "name": "appealCost",
      "outputs": [
        {
          "internalType": "uint256",
          "name": "cost",
          "type": "uint256"
        }
      ],
      "stateMutability": "view",
      "type": "function"
    },
    {
      "inputs": [
        {
          "internalType": "uint256",
          "name": "_disputeID",
          "type": "uint256"
        }
      ],
      "name": "appealPeriod",
      "outputs": [
        {
          "internalType": "uint256",
          "name": "start",
          "type": "uint256"
        },
        {
          "internalType": "uint256",
          "name": "end",
          "type": "uint256"
        }
      ],
      "stateMutability": "view",
      "type": "function"
    },
    {
      "inputs": [
        {
          "internalType": "bytes",
          "name": "_extraData",
          "type": "bytes"
        },
        {
          "internalType": "contract IERC20",
          "name": "_feeToken",
          "type": "address"
        }
      ],
      "name": "arbitrationCost",
      "outputs": [
        {
          "internalType": "uint256",
          "name": "cost",
          "type": "uint256"
        }
      ],
      "stateMutability": "view",
      "type": "function"
    },
    {
      "inputs": [
        {
          "internalType": "bytes",
          "name": "_extraData",
          "type": "bytes"
        }
      ],
      "name": "arbitrationCost",
      "outputs": [
        {
          "internalType": "uint256",
          "name": "cost",
          "type": "uint256"
        }
      ],
      "stateMutability": "view",
      "type": "function"
    },
    {
      "inputs": [
        {
          "internalType": "contract IERC20",
          "name": "_feeToken",
          "type": "address"
        },
        {
          "internalType": "bool",
          "name": "_accepted",
          "type": "bool"
        }
      ],
      "name": "changeAcceptedFeeTokens",
      "outputs": [],
      "stateMutability": "nonpayable",
      "type": "function"
    },
    {
      "inputs": [
        {
          "internalType": "uint96",
          "name": "_courtID",
          "type": "uint96"
        },
        {
          "internalType": "bool",
          "name": "_hiddenVotes",
          "type": "bool"
        },
        {
          "internalType": "uint256",
          "name": "_minStake",
          "type": "uint256"
        },
        {
          "internalType": "uint256",
          "name": "_alpha",
          "type": "uint256"
        },
        {
          "internalType": "uint256",
          "name": "_feeForJuror",
          "type": "uint256"
        },
        {
          "internalType": "uint256",
          "name": "_jurorsForCourtJump",
          "type": "uint256"
        },
        {
          "internalType": "uint256[4]",
          "name": "_timesPerPeriod",
          "type": "uint256[4]"
        }
      ],
      "name": "changeCourtParameters",
      "outputs": [],
      "stateMutability": "nonpayable",
      "type": "function"
    },
    {
      "inputs": [
        {
          "internalType": "contract IERC20",
          "name": "_feeToken",
          "type": "address"
        },
        {
          "internalType": "uint64",
          "name": "_rateInEth",
          "type": "uint64"
        },
        {
          "internalType": "uint8",
          "name": "_rateDecimals",
          "type": "uint8"
        }
      ],
      "name": "changeCurrencyRates",
      "outputs": [],
      "stateMutability": "nonpayable",
      "type": "function"
    },
    {
      "inputs": [
        {
          "internalType": "address payable",
          "name": "_governor",
          "type": "address"
        }
      ],
      "name": "changeGovernor",
      "outputs": [],
      "stateMutability": "nonpayable",
      "type": "function"
    },
    {
      "inputs": [
        {
          "internalType": "address",
          "name": "_jurorProsecutionModule",
          "type": "address"
        }
      ],
      "name": "changeJurorProsecutionModule",
      "outputs": [],
      "stateMutability": "nonpayable",
      "type": "function"
    },
    {
      "inputs": [
        {
          "internalType": "contract IERC20",
          "name": "_pinakion",
          "type": "address"
        }
      ],
      "name": "changePinakion",
      "outputs": [],
      "stateMutability": "nonpayable",
      "type": "function"
    },
    {
      "inputs": [
        {
          "internalType": "contract ISortitionModule",
          "name": "_sortitionModule",
          "type": "address"
        }
      ],
      "name": "changeSortitionModule",
      "outputs": [],
      "stateMutability": "nonpayable",
      "type": "function"
    },
    {
      "inputs": [
        {
          "internalType": "contract IERC20",
          "name": "_toToken",
          "type": "address"
        },
        {
          "internalType": "uint256",
          "name": "_amountInEth",
          "type": "uint256"
        }
      ],
      "name": "convertEthToTokenAmount",
      "outputs": [
        {
          "internalType": "uint256",
          "name": "",
          "type": "uint256"
        }
      ],
      "stateMutability": "view",
      "type": "function"
    },
    {
      "inputs": [
        {
          "internalType": "uint256",
          "name": "",
          "type": "uint256"
        }
      ],
      "name": "courts",
      "outputs": [
        {
          "internalType": "uint96",
          "name": "parent",
          "type": "uint96"
        },
        {
          "internalType": "bool",
          "name": "hiddenVotes",
          "type": "bool"
        },
        {
          "internalType": "uint256",
          "name": "minStake",
          "type": "uint256"
        },
        {
          "internalType": "uint256",
          "name": "alpha",
          "type": "uint256"
        },
        {
          "internalType": "uint256",
          "name": "feeForJuror",
          "type": "uint256"
        },
        {
          "internalType": "uint256",
          "name": "jurorsForCourtJump",
          "type": "uint256"
        },
        {
          "internalType": "bool",
          "name": "disabled",
          "type": "bool"
        }
      ],
      "stateMutability": "view",
      "type": "function"
    },
    {
      "inputs": [
        {
          "internalType": "uint96",
          "name": "_parent",
          "type": "uint96"
        },
        {
          "internalType": "bool",
          "name": "_hiddenVotes",
          "type": "bool"
        },
        {
          "internalType": "uint256",
          "name": "_minStake",
          "type": "uint256"
        },
        {
          "internalType": "uint256",
          "name": "_alpha",
          "type": "uint256"
        },
        {
          "internalType": "uint256",
          "name": "_feeForJuror",
          "type": "uint256"
        },
        {
          "internalType": "uint256",
          "name": "_jurorsForCourtJump",
          "type": "uint256"
        },
        {
          "internalType": "uint256[4]",
          "name": "_timesPerPeriod",
          "type": "uint256[4]"
        },
        {
          "internalType": "bytes",
          "name": "_sortitionExtraData",
          "type": "bytes"
        },
        {
          "internalType": "uint256[]",
          "name": "_supportedDisputeKits",
          "type": "uint256[]"
        }
      ],
      "name": "createCourt",
      "outputs": [],
      "stateMutability": "nonpayable",
      "type": "function"
    },
    {
      "inputs": [
        {
          "internalType": "uint256",
          "name": "_numberOfChoices",
          "type": "uint256"
        },
        {
          "internalType": "bytes",
          "name": "_extraData",
          "type": "bytes"
        }
      ],
      "name": "createDispute",
      "outputs": [
        {
          "internalType": "uint256",
          "name": "disputeID",
          "type": "uint256"
        }
      ],
      "stateMutability": "payable",
      "type": "function"
    },
    {
      "inputs": [
        {
          "internalType": "uint256",
          "name": "_numberOfChoices",
          "type": "uint256"
        },
        {
          "internalType": "bytes",
          "name": "_extraData",
          "type": "bytes"
        },
        {
          "internalType": "contract IERC20",
          "name": "_feeToken",
          "type": "address"
        },
        {
          "internalType": "uint256",
          "name": "_feeAmount",
          "type": "uint256"
        }
      ],
      "name": "createDispute",
      "outputs": [
        {
          "internalType": "uint256",
          "name": "disputeID",
          "type": "uint256"
        }
      ],
      "stateMutability": "nonpayable",
      "type": "function"
    },
    {
      "inputs": [
        {
          "internalType": "contract IERC20",
          "name": "",
          "type": "address"
        }
      ],
      "name": "currencyRates",
      "outputs": [
        {
          "internalType": "bool",
          "name": "feePaymentAccepted",
          "type": "bool"
        },
        {
          "internalType": "uint64",
          "name": "rateInEth",
          "type": "uint64"
        },
        {
          "internalType": "uint8",
          "name": "rateDecimals",
          "type": "uint8"
        }
      ],
      "stateMutability": "view",
      "type": "function"
    },
    {
      "inputs": [
        {
          "internalType": "uint256",
          "name": "_disputeID",
          "type": "uint256"
        }
      ],
      "name": "currentRuling",
      "outputs": [
        {
          "internalType": "uint256",
          "name": "ruling",
          "type": "uint256"
        },
        {
          "internalType": "bool",
          "name": "tied",
          "type": "bool"
        },
        {
          "internalType": "bool",
          "name": "overridden",
          "type": "bool"
        }
      ],
      "stateMutability": "view",
      "type": "function"
    },
    {
      "inputs": [
        {
          "internalType": "uint256",
          "name": "",
          "type": "uint256"
        }
      ],
      "name": "disputeKitNodes",
      "outputs": [
        {
          "internalType": "uint256",
          "name": "parent",
          "type": "uint256"
        },
        {
          "internalType": "contract IDisputeKit",
          "name": "disputeKit",
          "type": "address"
        },
        {
          "internalType": "uint256",
          "name": "depthLevel",
          "type": "uint256"
        },
        {
          "internalType": "bool",
          "name": "disabled",
          "type": "bool"
        }
      ],
      "stateMutability": "view",
      "type": "function"
    },
    {
      "inputs": [
        {
          "internalType": "uint256",
          "name": "",
          "type": "uint256"
        }
      ],
      "name": "disputes",
      "outputs": [
        {
          "internalType": "uint96",
          "name": "courtID",
          "type": "uint96"
        },
        {
          "internalType": "contract IArbitrableV2",
          "name": "arbitrated",
          "type": "address"
        },
        {
          "internalType": "enum KlerosCore.Period",
          "name": "period",
          "type": "uint8"
        },
        {
          "internalType": "bool",
          "name": "ruled",
          "type": "bool"
        },
        {
          "internalType": "uint256",
          "name": "lastPeriodChange",
          "type": "uint256"
        }
      ],
      "stateMutability": "view",
      "type": "function"
    },
    {
      "inputs": [
        {
          "internalType": "uint256",
          "name": "_disputeID",
          "type": "uint256"
        },
        {
          "internalType": "uint256",
          "name": "_iterations",
          "type": "uint256"
        }
      ],
      "name": "draw",
      "outputs": [],
      "stateMutability": "nonpayable",
      "type": "function"
    },
    {
      "inputs": [
        {
          "internalType": "uint96",
          "name": "_courtID",
          "type": "uint96"
        },
        {
          "internalType": "uint256[]",
          "name": "_disputeKitIDs",
          "type": "uint256[]"
        },
        {
          "internalType": "bool",
          "name": "_enable",
          "type": "bool"
        }
      ],
      "name": "enableDisputeKits",
      "outputs": [],
      "stateMutability": "nonpayable",
      "type": "function"
    },
    {
      "inputs": [
        {
          "internalType": "uint256",
          "name": "_disputeID",
          "type": "uint256"
        },
        {
          "internalType": "uint256",
          "name": "_round",
          "type": "uint256"
        },
        {
          "internalType": "uint256",
          "name": "_iterations",
          "type": "uint256"
        }
      ],
      "name": "execute",
      "outputs": [],
      "stateMutability": "nonpayable",
      "type": "function"
    },
    {
      "inputs": [
        {
          "internalType": "address",
          "name": "_destination",
          "type": "address"
        },
        {
          "internalType": "uint256",
          "name": "_amount",
          "type": "uint256"
        },
        {
          "internalType": "bytes",
          "name": "_data",
          "type": "bytes"
        }
      ],
      "name": "executeGovernorProposal",
      "outputs": [],
      "stateMutability": "nonpayable",
      "type": "function"
    },
    {
      "inputs": [
        {
          "internalType": "uint256",
          "name": "_disputeID",
          "type": "uint256"
        }
      ],
      "name": "executeRuling",
      "outputs": [],
      "stateMutability": "nonpayable",
      "type": "function"
    },
    {
      "inputs": [
        {
          "internalType": "uint256",
          "name": "_disputeKitID",
          "type": "uint256"
        }
      ],
      "name": "getDisputeKit",
      "outputs": [
        {
          "internalType": "contract IDisputeKit",
          "name": "",
          "type": "address"
        }
      ],
      "stateMutability": "view",
      "type": "function"
    },
    {
      "inputs": [
        {
          "internalType": "uint256",
          "name": "_disputeKitID",
          "type": "uint256"
        }
      ],
      "name": "getDisputeKitChildren",
      "outputs": [
        {
          "internalType": "uint256[]",
          "name": "",
          "type": "uint256[]"
        }
      ],
      "stateMutability": "view",
      "type": "function"
    },
    {
      "inputs": [],
      "name": "getDisputeKitNodesLength",
      "outputs": [
        {
          "internalType": "uint256",
          "name": "",
          "type": "uint256"
        }
      ],
      "stateMutability": "view",
      "type": "function"
    },
    {
      "inputs": [
        {
          "internalType": "address",
          "name": "_juror",
          "type": "address"
        },
        {
          "internalType": "uint96",
          "name": "_courtID",
          "type": "uint96"
        }
      ],
      "name": "getJurorBalance",
      "outputs": [
        {
          "internalType": "uint256",
          "name": "staked",
          "type": "uint256"
        },
        {
          "internalType": "uint256",
          "name": "locked",
          "type": "uint256"
        },
        {
          "internalType": "uint256",
          "name": "nbCourts",
          "type": "uint256"
        }
      ],
      "stateMutability": "view",
      "type": "function"
    },
    {
      "inputs": [
        {
          "internalType": "address",
          "name": "_juror",
          "type": "address"
        }
      ],
      "name": "getJurorCourtIDs",
      "outputs": [
        {
          "internalType": "uint96[]",
          "name": "",
          "type": "uint96[]"
        }
      ],
      "stateMutability": "view",
      "type": "function"
    },
    {
      "inputs": [
        {
          "internalType": "uint256",
          "name": "_disputeID",
          "type": "uint256"
        }
      ],
      "name": "getNumberOfRounds",
      "outputs": [
        {
          "internalType": "uint256",
          "name": "",
          "type": "uint256"
        }
      ],
      "stateMutability": "view",
      "type": "function"
    },
    {
      "inputs": [
        {
          "internalType": "uint256",
          "name": "_disputeID",
          "type": "uint256"
        }
      ],
      "name": "getNumberOfVotes",
      "outputs": [
        {
          "internalType": "uint256",
          "name": "",
          "type": "uint256"
        }
      ],
      "stateMutability": "view",
      "type": "function"
    },
    {
      "inputs": [
        {
          "internalType": "uint256",
          "name": "_disputeID",
          "type": "uint256"
        },
        {
          "internalType": "uint256",
          "name": "_round",
          "type": "uint256"
        }
      ],
      "name": "getRoundInfo",
      "outputs": [
        {
          "internalType": "uint256",
          "name": "disputeKitID",
          "type": "uint256"
        },
        {
          "internalType": "uint256",
          "name": "pnkAtStakePerJuror",
          "type": "uint256"
        },
        {
          "internalType": "uint256",
          "name": "totalFeesForJurors",
          "type": "uint256"
        },
        {
          "internalType": "uint256",
          "name": "nbVotes",
          "type": "uint256"
        },
        {
          "internalType": "uint256",
          "name": "repartitions",
          "type": "uint256"
        },
        {
          "internalType": "uint256",
          "name": "pnkPenalties",
          "type": "uint256"
        },
        {
          "internalType": "address[]",
          "name": "drawnJurors",
          "type": "address[]"
        },
        {
          "internalType": "uint256",
          "name": "sumFeeRewardPaid",
          "type": "uint256"
        },
        {
          "internalType": "uint256",
          "name": "sumPnkRewardPaid",
          "type": "uint256"
        },
        {
          "internalType": "contract IERC20",
          "name": "feeToken",
          "type": "address"
        }
      ],
      "stateMutability": "view",
      "type": "function"
    },
    {
      "inputs": [
        {
          "internalType": "uint96",
          "name": "_courtID",
          "type": "uint96"
        }
      ],
      "name": "getTimesPerPeriod",
      "outputs": [
        {
          "internalType": "uint256[4]",
          "name": "timesPerPeriod",
          "type": "uint256[4]"
        }
      ],
      "stateMutability": "view",
      "type": "function"
    },
    {
      "inputs": [],
      "name": "governor",
      "outputs": [
        {
          "internalType": "address",
          "name": "",
          "type": "address"
        }
      ],
      "stateMutability": "view",
      "type": "function"
    },
    {
      "inputs": [
        {
          "internalType": "uint256",
          "name": "_disputeID",
          "type": "uint256"
        }
      ],
      "name": "isDisputeKitJumping",
      "outputs": [
        {
          "internalType": "bool",
          "name": "",
          "type": "bool"
        }
      ],
      "stateMutability": "view",
      "type": "function"
    },
    {
      "inputs": [
        {
          "internalType": "uint96",
          "name": "_courtID",
          "type": "uint96"
        },
        {
          "internalType": "uint256",
          "name": "_disputeKitID",
          "type": "uint256"
        }
      ],
      "name": "isSupported",
      "outputs": [
        {
          "internalType": "bool",
          "name": "",
          "type": "bool"
        }
      ],
      "stateMutability": "view",
      "type": "function"
    },
    {
      "inputs": [],
      "name": "jurorProsecutionModule",
      "outputs": [
        {
          "internalType": "address",
          "name": "",
          "type": "address"
        }
      ],
      "stateMutability": "view",
      "type": "function"
    },
    {
      "inputs": [
        {
          "internalType": "uint256",
          "name": "_disputeID",
          "type": "uint256"
        }
      ],
      "name": "passPeriod",
      "outputs": [],
      "stateMutability": "nonpayable",
      "type": "function"
    },
    {
      "inputs": [],
      "name": "pinakion",
      "outputs": [
        {
          "internalType": "contract IERC20",
          "name": "",
          "type": "address"
        }
      ],
      "stateMutability": "view",
      "type": "function"
    },
    {
      "inputs": [
        {
          "internalType": "uint96",
          "name": "_courtID",
          "type": "uint96"
        },
        {
          "internalType": "uint256",
          "name": "_stake",
          "type": "uint256"
        }
      ],
      "name": "setStake",
      "outputs": [],
      "stateMutability": "nonpayable",
      "type": "function"
    },
    {
      "inputs": [
        {
          "internalType": "address",
          "name": "_account",
          "type": "address"
        },
        {
          "internalType": "uint96",
          "name": "_courtID",
          "type": "uint96"
        },
        {
          "internalType": "uint256",
          "name": "_stake",
          "type": "uint256"
        },
        {
          "internalType": "uint256",
          "name": "_penalty",
          "type": "uint256"
        }
      ],
      "name": "setStakeBySortitionModule",
      "outputs": [],
      "stateMutability": "nonpayable",
      "type": "function"
    },
    {
      "inputs": [],
      "name": "sortitionModule",
      "outputs": [
        {
          "internalType": "contract ISortitionModule",
          "name": "",
          "type": "address"
        }
      ],
      "stateMutability": "view",
      "type": "function"
    }
  ],
  "transactionHash": "0xcbd3d13099d5b4bea433079b8806624e623f6b428a088bb4f14d1acf492fca4e",
  "args": [
    "0xF50E77f2A2B6138D16c6c7511562E5C33c4B15A3",
    "0xdfea19B51cDe76Aa659bB72401AC14FFCFe42Cde",
    "0x0000000000000000000000000000000000000000",
    "0xC89312e08C792445B87714A3938BE0b43d0D929a",
    false,
    [
      "200000000000000000000",
      10000,
      "100000000000000000",
      256
    ],
    [
      0,
      0,
      0,
      10
    ],
    250,
    "0x34caAa0f31fF13Fb9732500D97dFc5D8c6343eDc"
  ],
  "numDeployments": 2,
  "solcInputHash": "fe07200c735c64193f7ea4ef7b39453f",
  "bytecode": "0x60806040523480156200001157600080fd5b50604051620060eb380380620060eb83398101604081905262000034916200065f565b600080546001600160a01b038b81166001600160a01b0319928316178355600180548c8316908416178155600280548c841690851617815560038054878516951694909417909355600580546040805160a081018252878152815188815260208082018452808301918252968f1692820192909252606081018890526080810188905295820183559582905284519201027f036b6384b5eca791c62761152d0c79bb0604c104a5fb6f4eb0703f3154bb3db08101918255935180519394919362000128937f036b6384b5eca791c62761152d0c79bb0604c104a5fb6f4eb0703f3154bb3db19093019291909101906200045c565b506040828101516002830180546001600160a01b0319166001600160a01b03928316179055606084015160038401556080909301516004909201805460ff191692151592909217909155516000918816906001907f7921860794ac14fda09ee75f7160a5a3d266e3352f7954d0401606a92a26c498908490a460048054600101815560008181526003546040516311de995760e21b81526001600160a01b039091169263477a655c92620001e19290918791016200074c565b600060405180830381600087803b158015620001fc57600080fd5b505af115801562000211573d6000803e3d6000fd5b5050600480546001810182556000918252600c027f8a35acfbc15ff81a39ae7d344fd709f28e8600b4aa8c65c6b64bfe7fe36bd19b0180546001600160601b031916815560408051838152602081019091529093509150508051620002819160018401916020909101906200045c565b50805460ff60601b19166c01000000000000000000000000871515021781558451600282015560208501516003820155604085015160048083019190915560608601516005830155620002db9060068301908690620004ac565b506003546040516311de995760e21b81526001600160a01b039091169063477a655c90620003119060019087906004016200074c565b600060405180830381600087803b1580156200032c57600080fd5b505af115801562000341573d6000803e3d6000fd5b5050825487516020808a01516040808c015160608d0151825160008152948501928390526001600160601b039096169750600196507f3475f0ed7216dd7d453db663a1c3024e4f36cc925521d54edb9d13e022cbee3d95620003ab958f959094938e91906200079e565b60405180910390a3620003c160018080620003d1565b505050505050505050506200083a565b806004846001600160601b031681548110620003f157620003f162000788565b60009182526020808320868452600c92909202909101600a0190526040808220805460ff19169315159390931790925590518215159184916001600160601b038716917fb47629acdf64971062d40984f77d3dee212d735b11e3e8c7a4222d9f0572cc7991a4505050565b8280548282559060005260206000209081019282156200049a579160200282015b828111156200049a5782518255916020019190600101906200047d565b50620004a8929150620004dc565b5090565b82600481019282156200049a57916020028201828111156200049a5782518255916020019190600101906200047d565b5b80821115620004a85760008155600101620004dd565b6001600160a01b03811681146200050957600080fd5b50565b634e487b7160e01b600052604160045260246000fd5b600082601f8301126200053457600080fd5b604051608081016001600160401b03811182821017156200055957620005596200050c565b6040528060808401858111156200056f57600080fd5b845b818110156200058b57805183526020928301920162000571565b509195945050505050565b60005b83811015620005b357818101518382015260200162000599565b50506000910152565b600082601f830112620005ce57600080fd5b81516001600160401b0380821115620005eb57620005eb6200050c565b604051601f8301601f19908116603f011681019082821181831017156200061657620006166200050c565b816040528381528660208588010111156200063057600080fd5b6200064384602083016020890162000596565b9695505050505050565b80516200065a81620004f3565b919050565b60008060008060008060008060006101e08a8c0312156200067f57600080fd5b89516200068c81620004f3565b60208b01519099506200069f81620004f3565b60408b0151909850620006b281620004f3565b60608b0151909750620006c581620004f3565b60808b01519096508015158114620006dc57600080fd5b9450620006ed8b60a08c0162000522565b9350620006ff8b6101208c0162000522565b6101a08b01519093506001600160401b038111156200071d57600080fd5b6200072b8c828d01620005bc565b9250506200073d6101c08b016200064d565b90509295985092959850929598565b82815260406020820152600082518060408401526200077381606085016020870162000596565b601f01601f1916919091016060019392505050565b634e487b7160e01b600052603260045260246000fd5b60006101408083018a1515845260208a8186015289604086015288606086015287608086015260a085018760005b6004811015620007eb57815183529183019190830190600101620007cc565b5050506101208501929092528451908190526101608401918086019160005b8181101562000828578351855293820193928201926001016200080a565b50929c9b505050505050505050505050565b6158a1806200084a6000396000f3fe6080604052600436106102d45760003560e01c80637717a6e81161017b578063c3569902116100d7578063f12ada8b11610085578063f12ada8b14610a25578063f56f072514610a45578063f6506db414610a65578063f7434ea914610a85578063fbf405b014610aa5578063fc6f8f1614610ac5578063fe524c3914610ae557600080fd5b8063c3569902146108f8578063c71f42531461090b578063cf0c38f81461092b578063d1c1df481461094b578063d2b8035a146109c5578063d98493f6146109e5578063e4c0aaf414610a0557600080fd5b80638bb04875116101345780638bb048751461081b578063a072b86c1461083b578063afe15cfb1461085b578063b004963714610890578063bcb1a166146108b0578063c13517e1146108c5578063c258bb19146108d857600080fd5b80637717a6e81461074a5780637934c0be1461076a57806382d022371461078a578063840bc19c146107aa57806386541b24146107c55780638a9bb02a146107e557600080fd5b80632d29a47b11610235578063543f8a36116101e3578063543f8a361461066d578063564a565d1461069a57806359ec827e146106cb5780635ea5c038146106eb5780636235593f146107005780636c1eb1b914610715578063751accd01461072a57600080fd5b80632d29a47b146105935780632e1daf2f146105b35780632ea7b4d0146105d357806334d5fb31146105e95780633cfd1184146105fe57806343d4137f1461062b57806349f426501461065857600080fd5b8063115d537611610292578063115d5376146104385780631860592b146104585780631956b1f91461047857806319b81529146104985780631c3db16d146104c85780631f5a0dd21461050557806327e6ec8a1461056657600080fd5b8062f5822c146102d95780630219da79146102fb5780630b7414bc146103735780630c340a24146103935780630d1b9d1a146103cb5780630d83b94014610415575b600080fd5b3480156102e557600080fd5b506102f96102f4366004614b1c565b610b05565b005b34801561030757600080fd5b50610346610316366004614b1c565b60086020526000908152604090205460ff808216916001600160401b0361010082041691600160481b9091041683565b6040805193151584526001600160401b03909216602084015260ff16908201526060015b60405180910390f35b34801561037f57600080fd5b506102f961038e366004614c1d565b610b52565b34801561039f57600080fd5b506000546103b3906001600160a01b031681565b6040516001600160a01b03909116815260200161036a565b3480156103d757600080fd5b506103eb6103e6366004614c7e565b610ccd565b604080519485526001600160a01b039093166020850152918301521515606082015260800161036a565b34801561042157600080fd5b5061042a600181565b60405190815260200161036a565b34801561044457600080fd5b506102f9610453366004614c7e565b610d13565b34801561046457600080fd5b5061042a610473366004614c97565b611255565b34801561048457600080fd5b506103b3610493366004614c7e565b6112b1565b3480156104a457600080fd5b506104b86104b3366004614c7e565b6112e9565b604051901515815260200161036a565b3480156104d457600080fd5b506104e86104e3366004614c7e565b6113e2565b60408051938452911515602084015215159082015260600161036a565b34801561051157600080fd5b50610525610520366004614c7e565b6114eb565b604080516001600160601b0390981688529515156020880152948601939093526060850191909152608084015260a0830152151560c082015260e00161036a565b34801561057257600080fd5b5061057b600081565b6040516001600160601b03909116815260200161036a565b34801561059f57600080fd5b506102f96105ae366004614cc3565b61154a565b3480156105bf57600080fd5b506003546103b3906001600160a01b031681565b3480156105df57600080fd5b5061042a61271081565b3480156105f557600080fd5b5061057b600181565b34801561060a57600080fd5b5061061e610619366004614cef565b611792565b60405161036a9190614d2d565b34801561063757600080fd5b5061064b610646366004614c7e565b611803565b60405161036a9190614d76565b34801561066457600080fd5b506103b3600081565b34801561067957600080fd5b5061068d610688366004614b1c565b61187f565b60405161036a9190614d89565b3480156106a657600080fd5b506106ba6106b5366004614c7e565b61191b565b60405161036a959493929190614e0e565b3480156106d757600080fd5b5061042a6106e6366004614c7e565b611977565b3480156106f757600080fd5b5060055461042a565b34801561070c57600080fd5b5061042a600081565b34801561072157600080fd5b5061042a600a81565b34801561073657600080fd5b506102f9610745366004614ebc565b611acc565b34801561075657600080fd5b506102f9610765366004614f14565b611b76565b34801561077657600080fd5b506102f9610785366004614f30565b611ba4565b34801561079657600080fd5b506102f96107a5366004614f69565b611c23565b3480156107b657600080fd5b5061042a6001600160ff1b0381565b3480156107d157600080fd5b506102f96107e0366004615028565b611ca5565b3480156107f157600080fd5b50610805610800366004615096565b611fda565b60405161036a9a999897969594939291906150b8565b34801561082757600080fd5b506102f9610836366004614c7e565b6120f4565b34801561084757600080fd5b506102f9610856366004615155565b612258565b34801561086757600080fd5b5061087b610876366004614c7e565b612597565b6040805192835260208301919091520161036a565b34801561089c57600080fd5b506102f96108ab366004614b1c565b612643565b3480156108bc57600080fd5b5061042a600381565b61042a6108d3366004615215565b612690565b3480156108e457600080fd5b506102f96108f3366004614b1c565b6126cf565b6102f961090636600461525b565b61271c565b34801561091757600080fd5b5061042a610926366004614c7e565b612d04565b34801561093757600080fd5b506002546103b3906001600160a01b031681565b34801561095757600080fd5b506109aa610966366004615294565b6001600160a01b0390911660009081526007602090815260408083206001600160601b03909416835260018401825280832054600285019092529091205491549092565b6040805193845260208401929092529082015260600161036a565b3480156109d157600080fd5b506102f96109e0366004615096565b612d6c565b3480156109f157600080fd5b5061042a610a00366004615311565b613051565b348015610a1157600080fd5b506102f9610a20366004614b1c565b61309e565b348015610a3157600080fd5b506102f9610a40366004614c97565b6130eb565b348015610a5157600080fd5b506102f9610a6036600461535c565b61330e565b348015610a7157600080fd5b5061042a610a803660046153a0565b61334c565b348015610a9157600080fd5b5061042a610aa0366004615406565b613455565b348015610ab157600080fd5b506001546103b3906001600160a01b031681565b348015610ad157600080fd5b5061042a610ae0366004614c7e565b6134a1565b348015610af157600080fd5b506104b8610b00366004614f14565b6134d0565b6000546001600160a01b03163314610b305760405163c383977560e01b815260040160405180910390fd5b600180546001600160a01b0319166001600160a01b0392909216919091179055565b6000546001600160a01b03163314610b7d5760405163c383977560e01b815260040160405180910390fd5b60005b8251811015610cc7578115610c1c57828181518110610ba157610ba161543a565b602002602001015160001480610bd457506005548351849083908110610bc957610bc961543a565b602002602001015110155b15610bf257604051633d58a98960e11b815260040160405180910390fd5b610c1784848381518110610c0857610c0861543a565b60200260200101516001613518565b610cb5565b6001600160601b0384166001148015610c72575060006005848381518110610c4657610c4661543a565b602002602001015181548110610c5e57610c5e61543a565b906000526020600020906005020160000154145b15610c9057604051630c6e81c960e11b815260040160405180910390fd5b610cb584848381518110610ca657610ca661543a565b60200260200101516000613518565b80610cbf81615466565b915050610b80565b50505050565b60058181548110610cdd57600080fd5b600091825260209091206005909102018054600282015460038301546004909301549193506001600160a01b0316919060ff1684565b600060068281548110610d2857610d2861543a565b600091825260208220600491820201805482549194506001600160601b0316908110610d5657610d5661543a565b6000918252602082206003850154600c909202019250610d789060019061547f565b90506000836003018281548110610d9157610d9161543a565b600091825260208220600a909102019150600185015460ff166004811115610dbb57610dbb614dd6565b03610e965781158015610e0a57506001840154600684019060ff166004811115610de757610de7614dd6565b60048110610df757610df761543a565b01546002850154610e08904261547f565b105b15610e2857604051633e9727df60e01b815260040160405180910390fd5b6003810154600682015414610e50576040516309e4486b60e41b815260040160405180910390fd5b8254600160601b900460ff16610e67576002610e6a565b60015b60018086018054909160ff1990911690836004811115610e8c57610e8c614dd6565b0217905550611207565b60018085015460ff166004811115610eb057610eb0614dd6565b03610fc8576001840154600684019060ff166004811115610ed357610ed3614dd6565b60048110610ee357610ee361543a565b01546002850154610ef4904261547f565b108015610f9357506005816000015481548110610f1357610f1361543a565b6000918252602090912060059091020160020154604051630baa64d160e01b8152600481018790526001600160a01b0390911690630baa64d190602401602060405180830381865afa158015610f6d573d6000803e3d6000fd5b505050506040513d601f19601f82011682018060405250810190610f919190615492565b155b15610fb157604051634dfa578560e11b815260040160405180910390fd5b6001808501805460029260ff199091169083610e8c565b6002600185015460ff166004811115610fe357610fe3614dd6565b03611139576001840154600684019060ff16600481111561100657611006614dd6565b600481106110165761101661543a565b01546002850154611027904261547f565b1080156110c6575060058160000154815481106110465761104661543a565b60009182526020909120600590910201600201546040516336a66c7560e11b8152600481018790526001600160a01b0390911690636d4cd8ea90602401602060405180830381865afa1580156110a0573d6000803e3d6000fd5b505050506040513d601f19601f820116820180604052508101906110c49190615492565b155b156110e457604051631988dead60e31b815260040160405180910390fd5b600184018054600360ff199091161790558354604051600160601b9091046001600160a01b03169086907fa5d41b970d849372be1da1481ffd78d162bfe57a7aa2fe4e5fb73481fa5ac24f90600090a3611207565b6003600185015460ff16600481111561115457611154614dd6565b036111ce576001840154600684019060ff16600481111561117757611177614dd6565b600481106111875761118761543a565b01546002850154611198904261547f565b10156111b757604051632f4dfd8760e01b815260040160405180910390fd5b6001808501805460049260ff199091169083610e8c565b6004600185015460ff1660048111156111e9576111e9614dd6565b03611207576040516307f38c8f60e11b815260040160405180910390fd5b426002850155600184015460405186917f4e6f5cf43b95303e86aee81683df63992061723a829ee012db21dad388756b91916112469160ff16906154af565b60405180910390a25050505050565b6001600160a01b0382166000908152600860205260408120805461010081046001600160401b03169061129390600160481b900460ff16600a6155a1565b61129d90856155b0565b6112a791906155dd565b9150505b92915050565b6000600582815481106112c6576112c661543a565b60009182526020909120600260059092020101546001600160a01b031692915050565b600080600683815481106112ff576112ff61543a565b60009182526020822060036004909202019081018054919350906113259060019061547f565b815481106113355761133561543a565b600091825260208220845460048054600a909402909201945090916001600160601b0390911690811061136a5761136a61543a565b90600052602060002090600c0201905080600501548260030154101561139557506000949350505050565b80546004805490916001600160601b03169081106113b5576113b561543a565b6000918252602080832094548352600a600c9092029094010190925250604090205460ff16159392505050565b600080600080600685815481106113fb576113fb61543a565b60009182526020822060036004909202019081018054919350906114219060019061547f565b815481106114315761143161543a565b90600052602060002090600a020190506000600582600001548154811061145a5761145a61543a565b6000918252602090912060059091020160020154604051631c3db16d60e01b8152600481018990526001600160a01b0390911691508190631c3db16d90602401606060405180830381865afa1580156114b7573d6000803e3d6000fd5b505050506040513d601f19601f820116820180604052508101906114db91906155f1565b9199909850909650945050505050565b600481815481106114fb57600080fd5b60009182526020909120600c9091020180546002820154600383015460048401546005850154600b909501546001600160601b038516965060ff600160601b9095048516959394929391921687565b60006006848154811061155f5761155f61543a565b600091825260209091206004918202019150600182015460ff16600481111561158a5761158a614dd6565b146115a857604051638794ce4b60e01b815260040160405180910390fd5b60008160030184815481106115bf576115bf61543a565b90600052602060002090600a02019050600060058260000154815481106115e8576115e861543a565b6000918252602082206002600590920201015460048401546001600160a01b039091169250906116188683615629565b6005850154600686015460405163368efae360e21b8152600481018c9052602481018b905292935090916000906001600160a01b0387169063da3beb8c90604401602060405180830381865afa158015611676573d6000803e3d6000fd5b505050506040513d601f19601f8201168201806040525081019061169a919061563c565b9050806000036116b557818411156116b0578193505b6116d5565b6116c08260026155b0565b8411156116d5576116d28260026155b0565b93505b60048701849055845b84811015611771578281101561172a576117236040518060c001604052808e81526020018d8152602001848152602001858152602001868152602001838152506135a0565b935061175f565b61175f6040518060c001604052808e81526020018d815260200184815260200185815260200186815260200183815250613afd565b8061176981615466565b9150506116de565b508287600501541461178557600587018390555b5050505050505050505050565b61179a614a59565b60006004836001600160601b0316815481106117b8576117b861543a565b60009182526020909120604080516080810191829052600c9093029091019250600683019060049082845b8154815260200190600101908083116117e3575050505050915050919050565b6060600582815481106118185761181861543a565b906000526020600020906005020160010180548060200260200160405190810160405280929190818152602001828054801561187357602002820191906000526020600020905b81548152602001906001019080831161185f575b50505050509050919050565b6001600160a01b03811660009081526007602090815260409182902080548351818402810184019094528084526060939283018282801561187357602002820191906000526020600020906000905b82829054906101000a90046001600160601b03166001600160601b0316815260200190600c0190602082600b010492830192600103820291508084116118ce575094979650505050505050565b6006818154811061192b57600080fd5b60009182526020909120600490910201805460018201546002909201546001600160601b0382169350600160601b9091046001600160a01b03169160ff80821692610100909204169085565b6000806006838154811061198d5761198d61543a565b60009182526020822060036004909202019081018054919350906119b39060019061547f565b815481106119c3576119c361543a565b600091825260208220845460048054600a909402909201945090916001600160601b039091169081106119f8576119f861543a565b90600052602060002090600c020190508060050154826003015410611a975782546001600160601b031660001901611a39576001600160ff1b039350611ac4565b6003820154611a499060026155b0565b611a54906001615629565b81546004805490916001600160601b0316908110611a7457611a7461543a565b90600052602060002090600c020160040154611a9091906155b0565b9350611ac4565b6003820154611aa79060026155b0565b611ab2906001615629565b8160040154611ac191906155b0565b93505b505050919050565b6000546001600160a01b03163314611af75760405163c383977560e01b815260040160405180910390fd5b6000836001600160a01b03168383604051611b129190615679565b60006040518083038185875af1925050503d8060008114611b4f576040519150601f19603f3d011682016040523d82523d6000602084013e611b54565b606091505b5050905080610cc7576040516322092f2f60e11b815260040160405180910390fd5b611b833383836000613fd3565b611ba05760405163a437293760e01b815260040160405180910390fd5b5050565b6000546001600160a01b03163314611bcf5760405163c383977560e01b815260040160405180910390fd5b6001600160a01b038216600081815260086020526040808220805460ff191685151590811790915590519092917f541615e167511d757a7067a700eb54431b256bb458dfdce0ac58bf2ed0aefd4491a35050565b6000546001600160a01b03163314611c4e5760405163c383977560e01b815260040160405180910390fd5b6001600160a01b039092166000908152600860205260409020805460ff909316600160481b0260ff60481b196001600160401b03909316610100029290921669ffffffffffffffffff001990931692909217179055565b6000546001600160a01b03163314611cd05760405163c383977560e01b815260040160405180910390fd5b6001600160601b038716600114801590611d44575084600480896001600160601b031681548110611d0357611d0361543a565b60009182526020909120600c909102015481546001600160601b03909116908110611d3057611d3061543a565b90600052602060002090600c020160020154115b15611d6257604051639717078960e01b815260040160405180910390fd5b60005b6004886001600160601b031681548110611d8157611d8161543a565b90600052602060002090600c020160010180549050811015611e3b57856004808a6001600160601b031681548110611dbb57611dbb61543a565b90600052602060002090600c02016001018381548110611ddd57611ddd61543a565b906000526020600020015481548110611df857611df861543a565b90600052602060002090600c0201600201541015611e2957604051639717078960e01b815260040160405180910390fd5b80611e3381615466565b915050611d65565b50846004886001600160601b031681548110611e5957611e5961543a565b90600052602060002090600c020160020181905550856004886001600160601b031681548110611e8b57611e8b61543a565b90600052602060002090600c0201600001600c6101000a81548160ff021916908315150217905550836004886001600160601b031681548110611ed057611ed061543a565b90600052602060002090600c020160030181905550826004886001600160601b031681548110611f0257611f0261543a565b90600052602060002090600c020160040181905550816004886001600160601b031681548110611f3457611f3461543a565b90600052602060002090600c020160050181905550806004886001600160601b031681548110611f6657611f6661543a565b90600052602060002090600c0201600601906004611f85929190614a77565b50866001600160601b03167f709b1f5fda58af9a4f52dacd1ec404840a8148455700cce155a2bd8cf127ef1a878787878787604051611fc996959493929190615695565b60405180910390a250505050505050565b600080600080600080606060008060008060068d81548110611ffe57611ffe61543a565b90600052602060002090600402016003018c815481106120205761202061543a565b90600052602060002090600a0201905080600001548160010154826002015483600301548460040154856005015486600601876007015488600801548960090160009054906101000a90046001600160a01b0316838054806020026020016040519081016040528092919081815260200182805480156120c957602002820191906000526020600020905b81546001600160a01b031681526001909101906020018083116120ab575b505050505093509a509a509a509a509a509a509a509a509a509a50509295989b9194979a5092959850565b6000600682815481106121095761210961543a565b600091825260209091206004918202019150600182015460ff16600481111561213457612134614dd6565b1461215257604051638794ce4b60e01b815260040160405180910390fd5b6001810154610100900460ff161561217d5760405163c977f8d360e01b815260040160405180910390fd5b6000612188836113e2565b505060018301805461010061ff001990911617905582546040518281529192508491600160601b9091046001600160a01b0316907f394027a5fa6e098a1191094d1719d6929b9abc535fcc0c8f448d6a4e756222769060200160405180910390a3815460405163188d362b60e11b81526004810185905260248101839052600160601b9091046001600160a01b03169063311a6c5690604401600060405180830381600087803b15801561223b57600080fd5b505af115801561224f573d6000803e3d6000fd5b50505050505050565b6000546001600160a01b031633146122835760405163c383977560e01b815260040160405180910390fd5b8660048a6001600160601b0316815481106122a0576122a061543a565b90600052602060002090600c02016002015411156122d157604051639717078960e01b815260040160405180910390fd5b80516000036122f35760405163402585f560e01b815260040160405180910390fd5b6001600160601b03891661231a57604051631ef4f64960e01b815260040160405180910390fd5b60048054600181018255600091825290600c82027f8a35acfbc15ff81a39ae7d344fd709f28e8600b4aa8c65c6b64bfe7fe36bd19b01905b83518110156124185783818151811061236d5761236d61543a565b6020026020010151600014806123a0575060055484518590839081106123955761239561543a565b602002602001015110155b156123be57604051633d58a98960e11b815260040160405180910390fd5b600182600a0160008684815181106123d8576123d861543a565b6020026020010151815260200190815260200160002060006101000a81548160ff021916908315150217905550808061241090615466565b915050612352565b5080546001600160601b0319166001600160601b038c161781556040805160008152602081019182905251612451916001840191614ab5565b50805460ff60601b1916600160601b8b15150217815560028101899055600381018890556004808201889055600582018790556124949060068301908790614a77565b506003546040516311de995760e21b81526001600160a01b039091169063477a655c906124c790859088906004016156f4565b600060405180830381600087803b1580156124e157600080fd5b505af11580156124f5573d6000803e3d6000fd5b5050505060048b6001600160601b0316815481106125155761251561543a565b600091825260208083206001600c909302018201805492830181558352909120018290556040516001600160601b038c169083907f3475f0ed7216dd7d453db663a1c3024e4f36cc925521d54edb9d13e022cbee3d90612582908e908e908e908e908e908e908d9061570d565b60405180910390a35050505050505050505050565b6000806000600684815481106125af576125af61543a565b6000918252602090912060049091020190506003600182015460ff1660048111156125dc576125dc614dd6565b03612634576002810154815460048054929550916001600160601b0390911690811061260a5761260a61543a565b600091825260209091206009600c909202010154600282015461262d9190615629565b915061263d565b60009250600091505b50915091565b6000546001600160a01b0316331461266e5760405163c383977560e01b815260040160405180910390fd5b600380546001600160a01b0319166001600160a01b0392909216919091179055565b600061269b82613455565b3410156126bb57604051630e3360f160e21b815260040160405180910390fd5b6126c8838360003461453c565b9392505050565b6000546001600160a01b031633146126fa5760405163c383977560e01b815260040160405180910390fd5b600280546001600160a01b0319166001600160a01b0392909216919091179055565b61272583611977565b34101561274557604051633191f8f160e01b815260040160405180910390fd5b60006006848154811061275a5761275a61543a565b6000918252602090912060049091020190506003600182015460ff16600481111561278757612787614dd6565b146127a5576040516337cdefcb60e21b815260040160405180910390fd5b600381018054600091906127bb9060019061547f565b815481106127cb576127cb61543a565b90600052602060002090600a0201905060058160000154815481106127f2576127f261543a565b60009182526020909120600590910201600201546001600160a01b0316331461282e5760405163065f245f60e01b815260040160405180910390fd5b8154815460038401805460018101825560009182526020909120600480546001600160601b0390951694600a90930290910191849081106128715761287161543a565b90600052602060002090600c020160050154846003015410612a6f576004836001600160601b0316815481106128a9576128a961543a565b600091825260208220600c90910201546001600160601b031693505b600a8110156129b4576004846001600160601b0316815481106128ea576128ea61543a565b60009182526020808320868452600a600c90930201919091019052604090205460ff166129b4576000600584815481106129265761292661543a565b9060005260206000209060050201600001541461296957600583815481106129505761295061543a565b90600052602060002090600502016000015492506129a2565b6004846001600160601b0316815481106129855761298561543a565b60009182526020909120600c90910201546001600160601b031693505b806129ac81615466565b9150506128c5565b506004836001600160601b0316815481106129d1576129d161543a565b60009182526020808320858452600a600c90930201919091019052604090205460ff166129fd57600192505b84546001600160601b03848116911614612a6f57845460038601546001600160601b0390911690612a309060019061547f565b6040516001600160601b03861681528a907f736e3f52761298c8c0823e1ebf482ed3c5ecb304f743d2d91a7c006e8e8d7a1f9060200160405180910390a45b84546001600160601b0319166001600160601b038416908117865560018601805460ff1916905542600287015560048054600092908110612ab257612ab261543a565b90600052602060002090600c02019050806004015434612ad291906155dd565b826003018190555061271081600301548260020154612af191906155b0565b612afb91906155dd565b60018084019190915534600284015583835560038054908801546001600160a01b039091169163d09f392d918c91612b329161547f565b6040516001600160e01b031960e085901b16815260048101929092526024820152604401600060405180830381600087803b158015612b7057600080fd5b505af1158015612b84573d6000803e3d6000fd5b505086548454149150612c8190505760006005836000015481548110612bac57612bac61543a565b6000918252602090912060026005909202010154865460038901546001600160a01b03909216925090612be19060019061547f565b84546040519081528c907fcbe7939a71f0b369c7471d760a0a99b60b7bb010ee0406cba8a46679d1ea77569060200160405180910390a460038301546040516302dbb79560e61b81526001600160a01b0383169163b6ede54091612c4d918e918e918e9160040161575d565b600060405180830381600087803b158015612c6757600080fd5b505af1158015612c7b573d6000803e3d6000fd5b50505050505b8554604051600160601b9091046001600160a01b0316908a907f9c9b64db9e130f48381bf697abf638e73117dbfbfd7a4484f2da3ba188f4187d90600090a3887f4e6f5cf43b95303e86aee81683df63992061723a829ee012db21dad388756b916000604051612cf191906154af565b60405180910390a2505050505050505050565b60008060068381548110612d1a57612d1a61543a565b906000526020600020906004020190508060030160018260030180549050612d42919061547f565b81548110612d5257612d5261543a565b90600052602060002090600a020160030154915050919050565b600060068381548110612d8157612d8161543a565b90600052602060002090600402019050600060018260030180549050612da7919061547f565b90506000826003018281548110612dc057612dc061543a565b600091825260208220600a909102019150600184015460ff166004811115612dea57612dea614dd6565b14612e0857604051638285c4ef60e01b815260040160405180910390fd5b60006005826000015481548110612e2157612e2161543a565b60009182526020822060026005909202010154600684015460038501546001600160a01b0390921693509190612e578884615629565b1115612e67578360030154612e71565b612e718783615629565b9050815b8181101561304657604051633b30414760e01b8152600481018a90526000906001600160a01b03861690633b304147906024016020604051808303816000875af1158015612ec7573d6000803e3d6000fd5b505050506040513d601f19601f82011682018060405250810190612eeb919061578d565b90506001600160a01b038116156130335760018601546001600160a01b03821660009081526007602090815260408083208c546001600160601b0316845260020190915281208054909190612f41908490615629565b909155505060068601546040805189815260208101929092528b916001600160a01b038416917f6119cf536152c11e0a9a6c22f3953ce4ecc93ee54fa72ffa326ffabded21509b910160405180910390a36006860180546001810182556000828152602090200180546001600160a01b0319166001600160a01b038416179055600387015490540361303357600354604051632e96bc2360e11b8152600481018c9052602481018990526001600160a01b0390911690635d2d784690604401600060405180830381600087803b15801561301a57600080fd5b505af115801561302e573d6000803e3d6000fd5b505050505b508061303e81615466565b915050612e75565b505050505050505050565b60006130968261047386868080601f01602080910402602001604051908101604052809392919081815260200183838082843760009201919091525061345592505050565b949350505050565b6000546001600160a01b031633146130c95760405163c383977560e01b815260040160405180910390fd5b600080546001600160a01b0319166001600160a01b0392909216919091179055565b6000546001600160a01b031633146131165760405163c383977560e01b815260040160405180910390fd5b60055480821061313957604051630becfec560e01b815260040160405180910390fd5b6000821561319457600583815481106131545761315461543a565b90600052602060002090600502016003015460016131729190615629565b9050600a8110613194576040516210d62560e51b815260040160405180910390fd5b6040805160a08101825284815281516000808252602080830185528084019283526001600160a01b0389169484019490945260608301859052608083018190526005805460018101825591819052835191027f036b6384b5eca791c62761152d0c79bb0604c104a5fb6f4eb0703f3154bb3db081019182559151805193949193613245937f036b6384b5eca791c62761152d0c79bb0604c104a5fb6f4eb0703f3154bb3db101929190910190614ab5565b5060408201516002820180546001600160a01b0319166001600160a01b03909216919091179055606082015160038201556080909101516004909101805460ff191691151591909117905560058054849081106132a4576132a461543a565b600091825260208083206001600590930201820180549283018155835282200183905560405184916001600160a01b0387169185917f7921860794ac14fda09ee75f7160a5a3d266e3352f7954d0401606a92a26c49891a482610cc757610cc76001836001613518565b6003546001600160a01b031633146133395760405163068690bf60e11b815260040160405180910390fd5b61334584848484613fd3565b5050505050565b6001600160a01b03821660009081526008602052604081205460ff166133855760405163e51cf7bf60e01b815260040160405180910390fd5b613390858585613051565b8210156133b057604051630e3360f160e21b815260040160405180910390fd5b6133c56001600160a01b03841633308561482d565b6134075760405162461bcd60e51b815260206004820152600f60248201526e151c985b9cd9995c8819985a5b1959608a1b604482015260640160405180910390fd5b61344b8686868080601f01602080910402602001604051908101604052809392919081815260200183838082843760009201919091525088925087915061453c9050565b9695505050505050565b600080600061346384614909565b5091509150806004836001600160601b0316815481106134855761348561543a565b90600052602060002090600c02016004015461309691906155b0565b6000600682815481106134b6576134b661543a565b600091825260209091206003600490920201015492915050565b60006004836001600160601b0316815481106134ee576134ee61543a565b60009182526020808320948352600c91909102909301600a0190925250604090205460ff16919050565b806004846001600160601b0316815481106135355761353561543a565b60009182526020808320868452600c92909202909101600a0190526040808220805460ff19169315159390931790925590518215159184916001600160601b038716917fb47629acdf64971062d40984f77d3dee212d735b11e3e8c7a4222d9f0572cc7991a4505050565b60008060068360000151815481106135ba576135ba61543a565b906000526020600020906004020190506000816003018460200151815481106135e5576135e561543a565b90600052602060002090600a020190506000600582600001548154811061360e5761360e61543a565b600091825260208083206005929092029091016002015487519188015160a0890151604051634fe264fb60e01b81526004810194909452602484019190915260448301526001600160a01b031692508290634fe264fb90606401602060405180830381865afa158015613685573d6000803e3d6000fd5b505050506040513d601f19601f820116820180604052508101906136a9919061563c565b90506127108111156136ba57506127105b60006127106136c9838261547f565b85600101546136d891906155b0565b6136e291906155dd565b905080876080018181516136f69190615629565b90525060a08701516006850180546000929081106137165761371661543a565b60009182526020808320909101546001600160a01b03168083526007825260408084208a546001600160601b0316855260020190925290822080549193508492909161376390849061547f565b909155505085546004805484926001600160601b03169081106137885761378861543a565b90600052602060002090600c0201600201546137a49190615629565b6001600160a01b03821660009081526007602090815260408083208a546001600160601b0316845260010190915290205410613838576001600160a01b038116600090815260076020908152604080832089546001600160601b0316845260010190915281205461381690849061547f565b87549091506138319083906001600160601b03168386613fd3565b5050613889565b6001600160a01b038116600090815260076020908152604080832089546001600160601b03168452600101909152902054156138895785546138879082906001600160601b0316600085613fd3565b505b602088015188516001600160a01b0383167f8975b837fe0d18616c65abb8b843726a32b552ee4feca009944fa658bbb282e7866138c5876157aa565b60098b01546040516138e79392916000916001600160a01b03909116906157c6565b60405180910390a48751602089015160a08a015160405163ba66fde760e01b81526004810193909352602483019190915260448201526001600160a01b0385169063ba66fde790606401602060405180830381865afa15801561394e573d6000803e3d6000fd5b505050506040513d601f19601f820116820180604052508101906139729190615492565b6139d65760035460405163b5d69e9960e01b81526001600160a01b0383811660048301529091169063b5d69e9990602401600060405180830381600087803b1580156139bd57600080fd5b505af11580156139d1573d6000803e3d6000fd5b505050505b600188606001516139e7919061547f565b8860a001511480156139fb57506040880151155b15613aec5760098501546001600160a01b0316613a44576000805460028701546040516001600160a01b039092169281156108fc029290818181858888f1935050505050613a6b565b60005460028601546009870154613a69926001600160a01b0391821692911690614990565b505b6000546080890151600154613a8e926001600160a01b0391821692911690614990565b506020880151885160808a0151600288015460098901546040517f6cecfd3ec56289ccb16e30eb194f9a87dfdc12630b9abbc31fc69af5a0b0eaf493613ae393909290916001600160a01b03909116906157ea565b60405180910390a35b505050608090940151949350505050565b60006006826000015181548110613b1657613b1661543a565b90600052602060002090600402019050600081600301836020015181548110613b4157613b4161543a565b90600052602060002090600a0201905060006005826000015481548110613b6a57613b6a61543a565b906000526020600020906005020160020160009054906101000a90046001600160a01b031690506000816001600160a01b0316634fe264fb8660000151876020015188606001518960a00151613bc09190615809565b6040516001600160e01b031960e086901b168152600481019390935260248301919091526044820152606401602060405180830381865afa158015613c09573d6000803e3d6000fd5b505050506040513d601f19601f82011682018060405250810190613c2d919061563c565b9050612710811115613c3e57506127105b60008360060186606001518760a00151613c589190615809565b81548110613c6857613c6861543a565b600091825260208220015460018601546001600160a01b03909116925061271090613c949085906155b0565b613c9e91906155dd565b6001600160a01b03831660009081526007602090815260408083208a546001600160601b03168452600201909152812080549293508392909190613ce390849061547f565b90915550506001600160a01b038216600090815260076020908152604080832089546001600160601b031684526001019091528120549003613d3857600154613d36906001600160a01b03168383614990565b505b60006127108489604001518a60800151613d5291906155dd565b613d5c91906155b0565b613d6691906155dd565b905080866008016000828254613d7c9190615629565b925050819055506000612710858a604001518960020154613d9d91906155dd565b613da791906155b0565b613db191906155dd565b905080876007016000828254613dc79190615629565b9091555050600154613de3906001600160a01b03168584614990565b5060098701546001600160a01b0316613e21576040516001600160a01b0385169082156108fc029083906000818181858888f1935050505050613e3c565b6009870154613e3a906001600160a01b03168583614990565b505b6020890151895160098901546040516001600160a01b03888116927f8975b837fe0d18616c65abb8b843726a32b552ee4feca009944fa658bbb282e792613e8c928c928a928a92909116906157c6565b60405180910390a4600189606001516002613ea791906155b0565b613eb1919061547f565b8960a001510361304657600087600801548a60800151613ed1919061547f565b9050600088600701548960020154613ee9919061547f565b905081151580613ef857508015155b15611785578115613f2257600054600154613f20916001600160a01b03918216911684614990565b505b8015613f895760098901546001600160a01b0316613f6857600080546040516001600160a01b039091169183156108fc02918491818181858888f1935050505050613f89565b60005460098a0154613f87916001600160a01b03918216911683614990565b505b60208b01518b5160098b01546040517f6cecfd3ec56289ccb16e30eb194f9a87dfdc12630b9abbc31fc69af5a0b0eaf49161258291879187916001600160a01b03909116906157ea565b60006001600160601b0384161580613ff557506004546001600160601b038516115b1561400257506000613096565b6001600160a01b03851660009081526007602090815260408083206001600160601b03881684526001810190925290912054841561409e576004866001600160601b0316815481106140565761405661543a565b90600052602060002090600c02016002015485108061408e57506001600160601b038616600090815260028301602052604090205485105b1561409e57600092505050613096565b600354604051632099a71760e11b81526001600160a01b0389811660048301526001600160601b0389166024830152604482018890526064820187905260009216906341334e2e906084016020604051808303816000875af1158015614108573d6000803e3d6000fd5b505050506040513d601f19601f8201168201806040525081019061412c919061581d565b9050600281600281111561414257614142614dd6565b036141535760009350505050613096565b600181600281111561416757614167614dd6565b036141cd57604080516001600160601b0389168152602081018890529081018690526001600160a01b038916907f11ae3b4b2755c1ae163e5d571ab5070da164ce1280ad3375a227271ef58bf9389060600160405180910390a260019350505050613096565b600082871061425a576141e0838861547f565b9050801561424857600154614200906001600160a01b03168a308461482d565b1561424d5782600003614248578354600180820186556000868152602090206002830401805491909216600c026101000a6001600160601b0381810219909216918b16021790555b614455565b6000945050505050613096565b86600003614410576001600160601b03881660009081526002850160205260409020548690614289908561547f565b614293919061547f565b90508015614248576001546142b2906001600160a01b03168a83614990565b1561424d5783545b801561440a576001600160601b038916856142d660018461547f565b815481106142e6576142e661543a565b600091825260209091206002820401546001909116600c026101000a90046001600160601b0316036143f857845485906143229060019061547f565b815481106143325761433261543a565b600091825260209091206002820401546001918216600c026101000a90046001600160601b0316908690614366908461547f565b815481106143765761437661543a565b9060005260206000209060029182820401919006600c026101000a8154816001600160601b0302191690836001600160601b03160217905550846000018054806143c2576143c261583e565b60008281526020902060026000199092019182040180546001600160601b03600c60018516026101000a0219169055905561440a565b8061440281615854565b9150506142ba565b50614455565b8561441b888561547f565b614425919061547f565b9050801561445557600154614444906001600160a01b03168a83614990565b614455576000945050505050613096565b6001600160601b0388166000818152600186016020526040908190208990556003549051631166238b60e21b81526001600160a01b038c811660048301526024820193909352604481018a90529116906345988e2c90606401600060405180830381600087803b1580156144c857600080fd5b505af11580156144dc573d6000803e3d6000fd5b5050604080516001600160601b038c168152602081018b90526001600160a01b038d1693507f4732545d01e38980276a17e6d394f01577ba63f2fea5eba41af0757d9c060c5c92500160405180910390a250600198975050505050505050565b600080600061454a86614909565b92505091506004826001600160601b03168154811061456b5761456b61543a565b60009182526020808320848452600a600c90930201919091019052604090205460ff166145ab5760405163b34eb75d60e01b815260040160405180910390fd5b600680546001810182556000918252600160601b33026001600160601b03851617600482027ff652222313e28459528d920b65115c16c04f3efc82aaedc97be59f3f377c0d3f8101918255427ff652222313e28459528d920b65115c16c04f3efc82aaedc97be59f3f377c0d419091015560058054929650909291849081106146365761463661543a565b600091825260208220600260059092020101548354600480546001600160a01b039093169450916001600160601b039091169081106146775761467761543a565b60009182526020808320600387018054600181018255908552918420600c909302019350600a0201906001600160a01b038a16156146c2576146bd8a8460040154611255565b6146c8565b82600401545b90506146d4818a6155dd565b6003808401919091558683558301546002840154612710916146f5916155b0565b6146ff91906155dd565b6001830155600282018990556009820180546001600160a01b0319166001600160a01b038c81169190911790915560035460405163d09f392d60e01b8152600481018b90526000602482015291169063d09f392d90604401600060405180830381600087803b15801561477157600080fd5b505af1158015614785573d6000803e3d6000fd5b50505050836001600160a01b031663b6ede540898e8e86600301546040518563ffffffff1660e01b81526004016147bf949392919061575d565b600060405180830381600087803b1580156147d957600080fd5b505af11580156147ed573d6000803e3d6000fd5b50506040513392508a91507f141dfc18aa6a56fc816f44f0e9e2f1ebc92b15ab167770e17db5b084c10ed99590600090a350505050505050949350505050565b6040516001600160a01b038481166024830152838116604483015260648201839052600091829182919088169060840160408051601f198184030181529181526020820180516001600160e01b03166323b872dd60e01b179052516148929190615679565b6000604051808303816000865af19150503d80600081146148cf576040519150601f19603f3d011682016040523d82523d6000602084013e6148d4565b606091505b50915091508180156148fe5750805115806148fe5750808060200190518101906148fe9190615492565b979650505050505050565b6000806000604084511061497e575050506020810151604082015160608301516001600160601b038316158061494a57506004546001600160601b03841610155b1561495457600192505b8160000361496157600391505b80158061497057506005548110155b15614979575060015b614989565b506001915060039050815b9193909250565b6040516001600160a01b03838116602483015260448201839052600091829182919087169060640160408051601f198184030181529181526020820180516001600160e01b031663a9059cbb60e01b179052516149ed9190615679565b6000604051808303816000865af19150503d8060008114614a2a576040519150601f19603f3d011682016040523d82523d6000602084013e614a2f565b606091505b509150915081801561344b57508051158061344b57508080602001905181019061344b9190615492565b60405180608001604052806004906020820280368337509192915050565b8260048101928215614aa5579160200282015b82811115614aa5578251825591602001919060010190614a8a565b50614ab1929150614aef565b5090565b828054828255906000526020600020908101928215614aa55791602002820182811115614aa5578251825591602001919060010190614a8a565b5b80821115614ab15760008155600101614af0565b6001600160a01b0381168114614b1957600080fd5b50565b600060208284031215614b2e57600080fd5b81356126c881614b04565b80356001600160601b0381168114614b5057600080fd5b919050565b634e487b7160e01b600052604160045260246000fd5b604051601f8201601f191681016001600160401b0381118282101715614b9357614b93614b55565b604052919050565b600082601f830112614bac57600080fd5b813560206001600160401b03821115614bc757614bc7614b55565b8160051b614bd6828201614b6b565b9283528481018201928281019087851115614bf057600080fd5b83870192505b848310156148fe57823582529183019190830190614bf6565b8015158114614b1957600080fd5b600080600060608486031215614c3257600080fd5b614c3b84614b39565b925060208401356001600160401b03811115614c5657600080fd5b614c6286828701614b9b565b9250506040840135614c7381614c0f565b809150509250925092565b600060208284031215614c9057600080fd5b5035919050565b60008060408385031215614caa57600080fd5b8235614cb581614b04565b946020939093013593505050565b600080600060608486031215614cd857600080fd5b505081359360208301359350604090920135919050565b600060208284031215614d0157600080fd5b6126c882614b39565b8060005b6004811015610cc7578151845260209384019390910190600101614d0e565b608081016112ab8284614d0a565b600081518084526020808501945080840160005b83811015614d6b57815187529582019590820190600101614d4f565b509495945050505050565b6020815260006126c86020830184614d3b565b6020808252825182820181905260009190848201906040850190845b81811015614dca5783516001600160601b031683529284019291840191600101614da5565b50909695505050505050565b634e487b7160e01b600052602160045260246000fd5b60058110614e0a57634e487b7160e01b600052602160045260246000fd5b9052565b6001600160601b03861681526001600160a01b038516602082015260a08101614e3a6040830186614dec565b9215156060820152608001529392505050565b600082601f830112614e5e57600080fd5b81356001600160401b03811115614e7757614e77614b55565b614e8a601f8201601f1916602001614b6b565b818152846020838601011115614e9f57600080fd5b816020850160208301376000918101602001919091529392505050565b600080600060608486031215614ed157600080fd5b8335614edc81614b04565b92506020840135915060408401356001600160401b03811115614efe57600080fd5b614f0a86828701614e4d565b9150509250925092565b60008060408385031215614f2757600080fd5b614cb583614b39565b60008060408385031215614f4357600080fd5b8235614f4e81614b04565b91506020830135614f5e81614c0f565b809150509250929050565b600080600060608486031215614f7e57600080fd5b8335614f8981614b04565b925060208401356001600160401b0381168114614fa557600080fd5b9150604084013560ff81168114614c7357600080fd5b600082601f830112614fcc57600080fd5b604051608081018181106001600160401b0382111715614fee57614fee614b55565b60405280608084018581111561500357600080fd5b845b8181101561501d578035835260209283019201615005565b509195945050505050565b6000806000806000806000610140888a03121561504457600080fd5b61504d88614b39565b9650602088013561505d81614c0f565b955060408801359450606088013593506080880135925060a088013591506150888960c08a01614fbb565b905092959891949750929550565b600080604083850312156150a957600080fd5b50508035926020909101359150565b60006101408083018d845260208d818601528c60408601528b60608601528a60808601528960a08601528260c0860152819250885180835261016086019350818a01925060005b818110156151245783516001600160a01b0316855293820193928201926001016150ff565b5050505060e0830195909552506101008101929092526001600160a01b031661012090910152979650505050505050565b60008060008060008060008060006101808a8c03121561517457600080fd5b61517d8a614b39565b985060208a013561518d81614c0f565b975060408a0135965060608a0135955060808a0135945060a08a013593506151b88b60c08c01614fbb565b92506101408a01356001600160401b03808211156151d557600080fd5b6151e18d838e01614e4d565b93506101608c01359150808211156151f857600080fd5b506152058c828d01614b9b565b9150509295985092959850929598565b6000806040838503121561522857600080fd5b8235915060208301356001600160401b0381111561524557600080fd5b61525185828601614e4d565b9150509250929050565b60008060006060848603121561527057600080fd5b833592506020840135915060408401356001600160401b03811115614efe57600080fd5b600080604083850312156152a757600080fd5b82356152b281614b04565b91506152c060208401614b39565b90509250929050565b60008083601f8401126152db57600080fd5b5081356001600160401b038111156152f257600080fd5b60208301915083602082850101111561530a57600080fd5b9250929050565b60008060006040848603121561532657600080fd5b83356001600160401b0381111561533c57600080fd5b615348868287016152c9565b9094509250506020840135614c7381614b04565b6000806000806080858703121561537257600080fd5b843561537d81614b04565b935061538b60208601614b39565b93969395505050506040820135916060013590565b6000806000806000608086880312156153b857600080fd5b8535945060208601356001600160401b038111156153d557600080fd5b6153e1888289016152c9565b90955093505060408601356153f581614b04565b949793965091946060013592915050565b60006020828403121561541857600080fd5b81356001600160401b0381111561542e57600080fd5b6112a784828501614e4d565b634e487b7160e01b600052603260045260246000fd5b634e487b7160e01b600052601160045260246000fd5b60006001820161547857615478615450565b5060010190565b818103818111156112ab576112ab615450565b6000602082840312156154a457600080fd5b81516126c881614c0f565b602081016112ab8284614dec565b600181815b808511156154f85781600019048211156154de576154de615450565b808516156154eb57918102915b93841c93908002906154c2565b509250929050565b60008261550f575060016112ab565b8161551c575060006112ab565b8160018114615532576002811461553c57615558565b60019150506112ab565b60ff84111561554d5761554d615450565b50506001821b6112ab565b5060208310610133831016604e8410600b841016171561557b575081810a6112ab565b61558583836154bd565b806000190482111561559957615599615450565b029392505050565b60006126c860ff841683615500565b80820281158282048414176112ab576112ab615450565b634e487b7160e01b600052601260045260246000fd5b6000826155ec576155ec6155c7565b500490565b60008060006060848603121561560657600080fd5b83519250602084015161561881614c0f565b6040850151909250614c7381614c0f565b808201808211156112ab576112ab615450565b60006020828403121561564e57600080fd5b5051919050565b60005b83811015615670578181015183820152602001615658565b50506000910152565b6000825161568b818460208701615655565b9190910192915050565b60006101208201905087151582528660208301528560408301528460608301528360808301526148fe60a0830184614d0a565b600081518084526156e0816020860160208601615655565b601f01601f19169290920160200192915050565b82815260406020820152600061309660408301846156c8565b6000610140891515835288602084015287604084015286606084015285608084015261573c60a0840186614d0a565b8061012084015261574f81840185614d3b565b9a9950505050505050505050565b84815283602082015260806040820152600061577c60808301856156c8565b905082606083015295945050505050565b60006020828403121561579f57600080fd5b81516126c881614b04565b6000600160ff1b82016157bf576157bf615450565b5060000390565b938452602084019290925260408301526001600160a01b0316606082015260800190565b92835260208301919091526001600160a01b0316604082015260600190565b600082615818576158186155c7565b500690565b60006020828403121561582f57600080fd5b8151600381106126c857600080fd5b634e487b7160e01b600052603160045260246000fd5b60008161586357615863615450565b50600019019056fea26469706673582212206b49530eb173da7556a31b5d3e47e8c5216df43eb2a3544aad0c92be2bc4fe3864736f6c63430008120033",
  "devdoc": {
    "events": {
      "AcceptedFeeToken(address,bool)": {
        "details": "To be emitted when an ERC20 token is added or removed as a method to pay fees.",
        "params": {
          "_accepted": "Whether the token is accepted or not.",
          "_token": "The ERC20 token."
        }
      },
      "DisputeCreation(uint256,address)": {
        "details": "To be emitted when a dispute is created.",
        "params": {
          "_arbitrable": "The contract which created the dispute.",
          "_disputeID": "The identifier of the dispute in the Arbitrator contract."
        }
      },
      "Ruling(address,uint256,uint256)": {
        "details": "To be raised when a ruling is given.",
        "params": {
          "_arbitrable": "The arbitrable receiving the ruling.",
          "_disputeID": "The identifier of the dispute in the Arbitrator contract.",
          "_ruling": "The ruling which was given."
        }
      }
    },
    "kind": "dev",
    "methods": {
      "addNewDisputeKit(address,uint256)": {
        "details": "Add a new supported dispute kit module to the court.",
        "params": {
          "_disputeKitAddress": "The address of the dispute kit contract.",
          "_parent": "The ID of the parent dispute kit. It is left empty when root DK is created. Note that the root DK must be supported by the general court."
        }
      },
      "appeal(uint256,uint256,bytes)": {
        "details": "Appeals the ruling of a specified dispute. Note: Access restricted to the Dispute Kit for this `disputeID`.",
        "params": {
          "_disputeID": "The ID of the dispute.",
          "_extraData": "Extradata for the dispute. Can be required during court jump.",
          "_numberOfChoices": "Number of choices for the dispute. Can be required during court jump."
        }
      },
      "appealCost(uint256)": {
        "details": "Gets the cost of appealing a specified dispute.",
        "params": {
          "_disputeID": "The ID of the dispute."
        },
        "returns": {
          "cost": "The appeal cost."
        }
      },
      "appealPeriod(uint256)": {
        "details": "Gets the start and the end of a specified dispute's current appeal period.",
        "params": {
          "_disputeID": "The ID of the dispute."
        },
        "returns": {
          "end": "The end of the appeal period.",
          "start": "The start of the appeal period."
        }
      },
      "arbitrationCost(bytes)": {
        "details": "Compute the cost of arbitration denominated in ETH.      It is recommended not to increase it often, as it can be highly time and gas consuming for the arbitrated contracts to cope with fee augmentation.",
        "params": {
          "_extraData": "Additional info about the dispute. We use it to pass the ID of the dispute's court (first 32 bytes), the minimum number of jurors required (next 32 bytes) and the ID of the specific dispute kit (last 32 bytes)."
        },
        "returns": {
          "cost": "The arbitration cost in ETH."
        }
      },
      "arbitrationCost(bytes,address)": {
        "details": "Compute the cost of arbitration denominated in `_feeToken`.      It is recommended not to increase it often, as it can be highly time and gas consuming for the arbitrated contracts to cope with fee augmentation.",
        "params": {
          "_extraData": "Additional info about the dispute. We use it to pass the ID of the dispute's court (first 32 bytes), the minimum number of jurors required (next 32 bytes) and the ID of the specific dispute kit (last 32 bytes).",
          "_feeToken": "The ERC20 token used to pay fees."
        },
        "returns": {
          "cost": "The arbitration cost in `_feeToken`."
        }
      },
      "changeAcceptedFeeTokens(address,bool)": {
        "details": "Changes the supported fee tokens.",
        "params": {
          "_accepted": "Whether the token is supported or not as a method of fee payment.",
          "_feeToken": "The fee token."
        }
      },
      "changeCurrencyRates(address,uint64,uint8)": {
        "details": "Changes the currency rate of a fee token.",
        "params": {
          "_feeToken": "The fee token.",
          "_rateDecimals": "The new decimals of the fee token rate.",
          "_rateInEth": "The new rate of the fee token in ETH."
        }
      },
      "changeGovernor(address)": {
        "details": "Changes the `governor` storage variable.",
        "params": {
          "_governor": "The new value for the `governor` storage variable."
        }
      },
      "changeJurorProsecutionModule(address)": {
        "details": "Changes the `jurorProsecutionModule` storage variable.",
        "params": {
          "_jurorProsecutionModule": "The new value for the `jurorProsecutionModule` storage variable."
        }
      },
      "changePinakion(address)": {
        "details": "Changes the `pinakion` storage variable.",
        "params": {
          "_pinakion": "The new value for the `pinakion` storage variable."
        }
      },
      "changeSortitionModule(address)": {
        "details": "Changes the `_sortitionModule` storage variable. Note that the new module should be initialized for all courts.",
        "params": {
          "_sortitionModule": "The new value for the `sortitionModule` storage variable."
        }
      },
      "constructor": {
        "details": "Constructor.",
        "params": {
          "_courtParameters": "Numeric parameters of General court (minStake, alpha, feeForJuror and jurorsForCourtJump respectively).",
          "_disputeKit": "The address of the default dispute kit.",
          "_governor": "The governor's address.",
          "_hiddenVotes": "The `hiddenVotes` property value of the general court.",
          "_jurorProsecutionModule": "The address of the juror prosecution module.",
          "_pinakion": "The address of the token contract.",
          "_sortitionExtraData": "The extra data for sortition module.",
          "_sortitionModuleAddress": "The sortition module responsible for sortition of the jurors.",
          "_timesPerPeriod": "The `timesPerPeriod` property value of the general court."
        }
      },
      "createCourt(uint96,bool,uint256,uint256,uint256,uint256,uint256[4],bytes,uint256[])": {
        "details": "Creates a court under a specified parent court.",
        "params": {
          "_alpha": "The `alpha` property value of the court.",
          "_feeForJuror": "The `feeForJuror` property value of the court.",
          "_hiddenVotes": "The `hiddenVotes` property value of the court.",
          "_jurorsForCourtJump": "The `jurorsForCourtJump` property value of the court.",
          "_minStake": "The `minStake` property value of the court.",
          "_parent": "The `parent` property value of the court.",
          "_sortitionExtraData": "Extra data for sortition module.",
          "_supportedDisputeKits": "Indexes of dispute kits that this court will support.",
          "_timesPerPeriod": "The `timesPerPeriod` property value of the court."
        }
      },
      "createDispute(uint256,bytes)": {
        "details": "Create a dispute and pay for the fees in the native currency, typically ETH.      Must be called by the arbitrable contract.      Must pay at least arbitrationCost(_extraData).",
        "params": {
          "_extraData": "Additional info about the dispute. We use it to pass the ID of the dispute's court (first 32 bytes), the minimum number of jurors required (next 32 bytes) and the ID of the specific dispute kit (last 32 bytes).",
          "_numberOfChoices": "The number of choices the arbitrator can choose from in this dispute."
        },
        "returns": {
          "disputeID": "The identifier of the dispute created."
        }
      },
      "createDispute(uint256,bytes,address,uint256)": {
        "details": "Create a dispute and pay for the fees in a supported ERC20 token.      Must be called by the arbitrable contract.      Must pay at least arbitrationCost(_extraData).",
        "params": {
          "_extraData": "Additional info about the dispute. We use it to pass the ID of the dispute's court (first 32 bytes), the minimum number of jurors required (next 32 bytes) and the ID of the specific dispute kit (last 32 bytes).",
          "_feeAmount": "Amount of the ERC20 token used to pay fees.",
          "_feeToken": "The ERC20 token used to pay fees.",
          "_numberOfChoices": "The number of choices the arbitrator can choose from in this dispute."
        },
        "returns": {
          "disputeID": "The identifier of the dispute created."
        }
      },
      "currentRuling(uint256)": {
        "details": "Gets the current ruling of a specified dispute.",
        "params": {
          "_disputeID": "The ID of the dispute."
        },
        "returns": {
          "overridden": "Whether the ruling was overridden by appeal funding or not.",
          "ruling": "The current ruling.",
          "tied": "Whether it's a tie or not."
        }
      },
      "draw(uint256,uint256)": {
        "details": "Draws jurors for the dispute. Can be called in parts.",
        "params": {
          "_disputeID": "The ID of the dispute.",
          "_iterations": "The number of iterations to run."
        }
      },
      "enableDisputeKits(uint96,uint256[],bool)": {
        "details": "Adds/removes court's support for specified dispute kits.",
        "params": {
          "_courtID": "The ID of the court.",
          "_disputeKitIDs": "The IDs of dispute kits which support should be added/removed.",
          "_enable": "Whether add or remove the dispute kits from the court."
        }
      },
      "execute(uint256,uint256,uint256)": {
        "details": "Distribute the PNKs at stake and the dispute fees for the specific round of the dispute. Can be called in parts.",
        "params": {
          "_disputeID": "The ID of the dispute.",
          "_iterations": "The number of iterations to run.",
          "_round": "The appeal round."
        }
      },
      "executeGovernorProposal(address,uint256,bytes)": {
        "details": "Allows the governor to call anything on behalf of the contract.",
        "params": {
          "_amount": "The value sent with the call.",
          "_data": "The data sent with the call.",
          "_destination": "The destination of the call."
        }
      },
      "executeRuling(uint256)": {
        "details": "Executes a specified dispute's ruling.",
        "params": {
          "_disputeID": "The ID of the dispute."
        }
      },
      "getDisputeKit(uint256)": {
        "details": "Gets the dispute kit for a specific `_disputeKitID`.",
        "params": {
          "_disputeKitID": "The ID of the dispute kit."
        }
      },
      "getDisputeKitChildren(uint256)": {
        "details": "Gets non-primitive properties of a specified dispute kit node.",
        "params": {
          "_disputeKitID": "The ID of the dispute kit."
        },
        "returns": {
          "_0": "children Indexes of children of this DK."
        }
      },
      "getJurorCourtIDs(address)": {
        "details": "Gets the court identifiers where a specific `_juror` has staked.",
        "params": {
          "_juror": "The address of the juror."
        }
      },
      "getNumberOfVotes(uint256)": {
        "details": "Gets the number of votes permitted for the specified dispute in the latest round.",
        "params": {
          "_disputeID": "The ID of the dispute."
        }
      },
      "getTimesPerPeriod(uint96)": {
        "details": "Gets the timesPerPeriod array for a given court.",
        "params": {
          "_courtID": "The ID of the court to get the times from."
        },
        "returns": {
          "timesPerPeriod": "The timesPerPeriod array for the given court."
        }
      },
      "isDisputeKitJumping(uint256)": {
        "details": "Returns true if the dispute kit will be switched to a parent DK.",
        "params": {
          "_disputeID": "The ID of the dispute."
        },
        "returns": {
          "_0": "Whether DK will be switched or not."
        }
      },
      "passPeriod(uint256)": {
        "details": "Passes the period of a specified dispute.",
        "params": {
          "_disputeID": "The ID of the dispute."
        }
      },
      "setStake(uint96,uint256)": {
        "details": "Sets the caller's stake in a court.",
        "params": {
          "_courtID": "The ID of the court.",
          "_stake": "The new stake."
        }
      }
    },
    "title": "KlerosCore Core arbitrator contract for Kleros v2. Note that this contract trusts the PNK token, the dispute kit and the sortition module contracts.",
    "version": 1
  },
  "userdoc": {
    "kind": "user",
    "methods": {},
    "version": 1
  },
  "storageLayout": {
    "storage": [
      {
        "astId": 251,
        "contract": "src/arbitration/KlerosCore.sol:KlerosCore",
        "label": "governor",
        "offset": 0,
        "slot": "0",
        "type": "t_address"
      },
      {
        "astId": 254,
        "contract": "src/arbitration/KlerosCore.sol:KlerosCore",
        "label": "pinakion",
        "offset": 0,
        "slot": "1",
        "type": "t_contract(IERC20)77"
      },
      {
        "astId": 256,
        "contract": "src/arbitration/KlerosCore.sol:KlerosCore",
        "label": "jurorProsecutionModule",
        "offset": 0,
        "slot": "2",
        "type": "t_address"
      },
      {
        "astId": 259,
        "contract": "src/arbitration/KlerosCore.sol:KlerosCore",
        "label": "sortitionModule",
        "offset": 0,
        "slot": "3",
        "type": "t_contract(ISortitionModule)9384"
      },
      {
        "astId": 263,
        "contract": "src/arbitration/KlerosCore.sol:KlerosCore",
        "label": "courts",
        "offset": 0,
        "slot": "4",
        "type": "t_array(t_struct(Court)124_storage)dyn_storage"
      },
      {
        "astId": 267,
        "contract": "src/arbitration/KlerosCore.sol:KlerosCore",
        "label": "disputeKitNodes",
        "offset": 0,
        "slot": "5",
        "type": "t_array(t_struct(DisputeKitNode)189_storage)dyn_storage"
      },
      {
        "astId": 271,
        "contract": "src/arbitration/KlerosCore.sol:KlerosCore",
        "label": "disputes",
        "offset": 0,
        "slot": "6",
        "type": "t_array(t_struct(Dispute)141_storage)dyn_storage"
      },
      {
        "astId": 276,
        "contract": "src/arbitration/KlerosCore.sol:KlerosCore",
        "label": "jurors",
        "offset": 0,
        "slot": "7",
        "type": "t_mapping(t_address,t_struct(Juror)176_storage)"
      },
      {
        "astId": 282,
        "contract": "src/arbitration/KlerosCore.sol:KlerosCore",
        "label": "currencyRates",
        "offset": 0,
        "slot": "8",
        "type": "t_mapping(t_contract(IERC20)77,t_struct(CurrencyRate)209_storage)"
      }
    ],
    "types": {
      "t_address": {
        "encoding": "inplace",
        "label": "address",
        "numberOfBytes": "20"
      },
      "t_array(t_address)dyn_storage": {
        "base": "t_address",
        "encoding": "dynamic_array",
        "label": "address[]",
        "numberOfBytes": "32"
      },
      "t_array(t_struct(Court)124_storage)dyn_storage": {
        "base": "t_struct(Court)124_storage",
        "encoding": "dynamic_array",
        "label": "struct KlerosCore.Court[]",
        "numberOfBytes": "32"
      },
      "t_array(t_struct(Dispute)141_storage)dyn_storage": {
        "base": "t_struct(Dispute)141_storage",
        "encoding": "dynamic_array",
        "label": "struct KlerosCore.Dispute[]",
        "numberOfBytes": "32"
      },
      "t_array(t_struct(DisputeKitNode)189_storage)dyn_storage": {
        "base": "t_struct(DisputeKitNode)189_storage",
        "encoding": "dynamic_array",
        "label": "struct KlerosCore.DisputeKitNode[]",
        "numberOfBytes": "32"
      },
      "t_array(t_struct(Round)164_storage)dyn_storage": {
        "base": "t_struct(Round)164_storage",
        "encoding": "dynamic_array",
        "label": "struct KlerosCore.Round[]",
        "numberOfBytes": "32"
      },
      "t_array(t_uint256)4_storage": {
        "base": "t_uint256",
        "encoding": "inplace",
        "label": "uint256[4]",
        "numberOfBytes": "128"
      },
      "t_array(t_uint256)dyn_storage": {
        "base": "t_uint256",
        "encoding": "dynamic_array",
        "label": "uint256[]",
        "numberOfBytes": "32"
      },
      "t_array(t_uint96)dyn_storage": {
        "base": "t_uint96",
        "encoding": "dynamic_array",
        "label": "uint96[]",
        "numberOfBytes": "32"
      },
      "t_bool": {
        "encoding": "inplace",
        "label": "bool",
        "numberOfBytes": "1"
      },
      "t_contract(IArbitrableV2)9066": {
        "encoding": "inplace",
        "label": "contract IArbitrableV2",
        "numberOfBytes": "20"
      },
      "t_contract(IDisputeKit)9290": {
        "encoding": "inplace",
        "label": "contract IDisputeKit",
        "numberOfBytes": "20"
      },
      "t_contract(IERC20)77": {
        "encoding": "inplace",
        "label": "contract IERC20",
        "numberOfBytes": "20"
      },
      "t_contract(ISortitionModule)9384": {
        "encoding": "inplace",
        "label": "contract ISortitionModule",
        "numberOfBytes": "20"
      },
      "t_enum(Period)98": {
        "encoding": "inplace",
        "label": "enum KlerosCore.Period",
        "numberOfBytes": "1"
      },
      "t_mapping(t_address,t_struct(Juror)176_storage)": {
        "encoding": "mapping",
        "key": "t_address",
        "label": "mapping(address => struct KlerosCore.Juror)",
        "numberOfBytes": "32",
        "value": "t_struct(Juror)176_storage"
      },
      "t_mapping(t_contract(IERC20)77,t_struct(CurrencyRate)209_storage)": {
        "encoding": "mapping",
        "key": "t_contract(IERC20)77",
        "label": "mapping(contract IERC20 => struct KlerosCore.CurrencyRate)",
        "numberOfBytes": "32",
        "value": "t_struct(CurrencyRate)209_storage"
      },
      "t_mapping(t_uint256,t_bool)": {
        "encoding": "mapping",
        "key": "t_uint256",
        "label": "mapping(uint256 => bool)",
        "numberOfBytes": "32",
        "value": "t_bool"
      },
      "t_mapping(t_uint96,t_uint256)": {
        "encoding": "mapping",
        "key": "t_uint96",
        "label": "mapping(uint96 => uint256)",
        "numberOfBytes": "32",
        "value": "t_uint256"
      },
      "t_struct(Court)124_storage": {
        "encoding": "inplace",
        "label": "struct KlerosCore.Court",
        "members": [
          {
            "astId": 100,
            "contract": "src/arbitration/KlerosCore.sol:KlerosCore",
            "label": "parent",
            "offset": 0,
            "slot": "0",
            "type": "t_uint96"
          },
          {
            "astId": 102,
            "contract": "src/arbitration/KlerosCore.sol:KlerosCore",
            "label": "hiddenVotes",
            "offset": 12,
            "slot": "0",
            "type": "t_bool"
          },
          {
            "astId": 105,
            "contract": "src/arbitration/KlerosCore.sol:KlerosCore",
            "label": "children",
            "offset": 0,
            "slot": "1",
            "type": "t_array(t_uint256)dyn_storage"
          },
          {
            "astId": 107,
            "contract": "src/arbitration/KlerosCore.sol:KlerosCore",
            "label": "minStake",
            "offset": 0,
            "slot": "2",
            "type": "t_uint256"
          },
          {
            "astId": 109,
            "contract": "src/arbitration/KlerosCore.sol:KlerosCore",
            "label": "alpha",
            "offset": 0,
            "slot": "3",
            "type": "t_uint256"
          },
          {
            "astId": 111,
            "contract": "src/arbitration/KlerosCore.sol:KlerosCore",
            "label": "feeForJuror",
            "offset": 0,
            "slot": "4",
            "type": "t_uint256"
          },
          {
            "astId": 113,
            "contract": "src/arbitration/KlerosCore.sol:KlerosCore",
            "label": "jurorsForCourtJump",
            "offset": 0,
            "slot": "5",
            "type": "t_uint256"
          },
          {
            "astId": 117,
            "contract": "src/arbitration/KlerosCore.sol:KlerosCore",
            "label": "timesPerPeriod",
            "offset": 0,
            "slot": "6",
            "type": "t_array(t_uint256)4_storage"
          },
          {
            "astId": 121,
            "contract": "src/arbitration/KlerosCore.sol:KlerosCore",
            "label": "supportedDisputeKits",
            "offset": 0,
            "slot": "10",
            "type": "t_mapping(t_uint256,t_bool)"
          },
          {
            "astId": 123,
            "contract": "src/arbitration/KlerosCore.sol:KlerosCore",
            "label": "disabled",
            "offset": 0,
            "slot": "11",
            "type": "t_bool"
          }
        ],
        "numberOfBytes": "384"
      },
      "t_struct(CurrencyRate)209_storage": {
        "encoding": "inplace",
        "label": "struct KlerosCore.CurrencyRate",
        "members": [
          {
            "astId": 204,
            "contract": "src/arbitration/KlerosCore.sol:KlerosCore",
            "label": "feePaymentAccepted",
            "offset": 0,
            "slot": "0",
            "type": "t_bool"
          },
          {
            "astId": 206,
            "contract": "src/arbitration/KlerosCore.sol:KlerosCore",
            "label": "rateInEth",
            "offset": 1,
            "slot": "0",
            "type": "t_uint64"
          },
          {
            "astId": 208,
            "contract": "src/arbitration/KlerosCore.sol:KlerosCore",
            "label": "rateDecimals",
            "offset": 9,
            "slot": "0",
            "type": "t_uint8"
          }
        ],
        "numberOfBytes": "32"
      },
      "t_struct(Dispute)141_storage": {
        "encoding": "inplace",
        "label": "struct KlerosCore.Dispute",
        "members": [
          {
            "astId": 126,
            "contract": "src/arbitration/KlerosCore.sol:KlerosCore",
            "label": "courtID",
            "offset": 0,
            "slot": "0",
            "type": "t_uint96"
          },
          {
            "astId": 129,
            "contract": "src/arbitration/KlerosCore.sol:KlerosCore",
            "label": "arbitrated",
            "offset": 12,
            "slot": "0",
            "type": "t_contract(IArbitrableV2)9066"
          },
          {
            "astId": 132,
            "contract": "src/arbitration/KlerosCore.sol:KlerosCore",
            "label": "period",
            "offset": 0,
            "slot": "1",
            "type": "t_enum(Period)98"
          },
          {
            "astId": 134,
            "contract": "src/arbitration/KlerosCore.sol:KlerosCore",
            "label": "ruled",
            "offset": 1,
            "slot": "1",
            "type": "t_bool"
          },
          {
            "astId": 136,
            "contract": "src/arbitration/KlerosCore.sol:KlerosCore",
            "label": "lastPeriodChange",
            "offset": 0,
            "slot": "2",
            "type": "t_uint256"
          },
          {
            "astId": 140,
            "contract": "src/arbitration/KlerosCore.sol:KlerosCore",
            "label": "rounds",
            "offset": 0,
            "slot": "3",
            "type": "t_array(t_struct(Round)164_storage)dyn_storage"
          }
        ],
        "numberOfBytes": "128"
      },
      "t_struct(DisputeKitNode)189_storage": {
        "encoding": "inplace",
        "label": "struct KlerosCore.DisputeKitNode",
        "members": [
          {
            "astId": 178,
            "contract": "src/arbitration/KlerosCore.sol:KlerosCore",
            "label": "parent",
            "offset": 0,
            "slot": "0",
            "type": "t_uint256"
          },
          {
            "astId": 181,
            "contract": "src/arbitration/KlerosCore.sol:KlerosCore",
            "label": "children",
            "offset": 0,
            "slot": "1",
            "type": "t_array(t_uint256)dyn_storage"
          },
          {
            "astId": 184,
            "contract": "src/arbitration/KlerosCore.sol:KlerosCore",
            "label": "disputeKit",
            "offset": 0,
            "slot": "2",
            "type": "t_contract(IDisputeKit)9290"
          },
          {
            "astId": 186,
            "contract": "src/arbitration/KlerosCore.sol:KlerosCore",
            "label": "depthLevel",
            "offset": 0,
            "slot": "3",
            "type": "t_uint256"
          },
          {
            "astId": 188,
            "contract": "src/arbitration/KlerosCore.sol:KlerosCore",
            "label": "disabled",
            "offset": 0,
            "slot": "4",
            "type": "t_bool"
          }
        ],
        "numberOfBytes": "160"
      },
      "t_struct(Juror)176_storage": {
        "encoding": "inplace",
        "label": "struct KlerosCore.Juror",
        "members": [
          {
            "astId": 167,
            "contract": "src/arbitration/KlerosCore.sol:KlerosCore",
            "label": "courtIDs",
            "offset": 0,
            "slot": "0",
            "type": "t_array(t_uint96)dyn_storage"
          },
          {
            "astId": 171,
            "contract": "src/arbitration/KlerosCore.sol:KlerosCore",
            "label": "stakedPnk",
            "offset": 0,
            "slot": "1",
            "type": "t_mapping(t_uint96,t_uint256)"
          },
          {
            "astId": 175,
            "contract": "src/arbitration/KlerosCore.sol:KlerosCore",
            "label": "lockedPnk",
            "offset": 0,
            "slot": "2",
            "type": "t_mapping(t_uint96,t_uint256)"
          }
        ],
        "numberOfBytes": "96"
      },
      "t_struct(Round)164_storage": {
        "encoding": "inplace",
        "label": "struct KlerosCore.Round",
        "members": [
          {
            "astId": 143,
            "contract": "src/arbitration/KlerosCore.sol:KlerosCore",
            "label": "disputeKitID",
            "offset": 0,
            "slot": "0",
            "type": "t_uint256"
          },
          {
            "astId": 145,
            "contract": "src/arbitration/KlerosCore.sol:KlerosCore",
            "label": "pnkAtStakePerJuror",
            "offset": 0,
            "slot": "1",
            "type": "t_uint256"
          },
          {
            "astId": 147,
            "contract": "src/arbitration/KlerosCore.sol:KlerosCore",
            "label": "totalFeesForJurors",
            "offset": 0,
            "slot": "2",
            "type": "t_uint256"
          },
          {
            "astId": 149,
            "contract": "src/arbitration/KlerosCore.sol:KlerosCore",
            "label": "nbVotes",
            "offset": 0,
            "slot": "3",
            "type": "t_uint256"
          },
          {
            "astId": 151,
            "contract": "src/arbitration/KlerosCore.sol:KlerosCore",
            "label": "repartitions",
            "offset": 0,
            "slot": "4",
            "type": "t_uint256"
          },
          {
            "astId": 153,
            "contract": "src/arbitration/KlerosCore.sol:KlerosCore",
            "label": "pnkPenalties",
            "offset": 0,
            "slot": "5",
            "type": "t_uint256"
          },
          {
            "astId": 156,
            "contract": "src/arbitration/KlerosCore.sol:KlerosCore",
            "label": "drawnJurors",
            "offset": 0,
            "slot": "6",
            "type": "t_array(t_address)dyn_storage"
          },
          {
            "astId": 158,
            "contract": "src/arbitration/KlerosCore.sol:KlerosCore",
            "label": "sumFeeRewardPaid",
            "offset": 0,
            "slot": "7",
            "type": "t_uint256"
          },
          {
            "astId": 160,
            "contract": "src/arbitration/KlerosCore.sol:KlerosCore",
            "label": "sumPnkRewardPaid",
            "offset": 0,
            "slot": "8",
            "type": "t_uint256"
          },
          {
            "astId": 163,
            "contract": "src/arbitration/KlerosCore.sol:KlerosCore",
            "label": "feeToken",
            "offset": 0,
            "slot": "9",
            "type": "t_contract(IERC20)77"
          }
        ],
        "numberOfBytes": "320"
      },
      "t_uint256": {
        "encoding": "inplace",
        "label": "uint256",
        "numberOfBytes": "32"
      },
      "t_uint64": {
        "encoding": "inplace",
        "label": "uint64",
        "numberOfBytes": "8"
      },
      "t_uint8": {
        "encoding": "inplace",
        "label": "uint8",
        "numberOfBytes": "1"
      },
      "t_uint96": {
        "encoding": "inplace",
        "label": "uint96",
        "numberOfBytes": "12"
      }
    }
  }
}