{
  "address": "0x4d18b9792e0D8F5aF696E71dBEDff8fcBEed6e8C",
  "abi": [
    {
      "inputs": [
        {
          "internalType": "address",
          "name": "_to",
          "type": "address"
        },
        {
          "internalType": "uint256",
          "name": "_amount",
          "type": "uint256"
        }
      ],
      "name": "clientWithdrawTo",
      "outputs": [],
      "stateMutability": "nonpayable",
      "type": "function"
    },
    {
      "inputs": [
        {
          "internalType": "contract RandomizerRNG",
          "name": "_rng",
          "type": "address"
        },
        {
          "internalType": "uint256",
          "name": "_id",
          "type": "uint256"
        },
        {
          "internalType": "bytes32",
          "name": "_value",
          "type": "bytes32"
        }
      ],
      "name": "relay",
      "outputs": [],
      "stateMutability": "nonpayable",
      "type": "function"
    },
    {
      "inputs": [
        {
          "internalType": "uint256",
          "name": "callbackGasLimit",
          "type": "uint256"
        }
      ],
      "name": "request",
      "outputs": [
        {
          "internalType": "uint256",
          "name": "",
          "type": "uint256"
        }
      ],
      "stateMutability": "nonpayable",
      "type": "function"
    }
  ],
  "transactionHash": "0x14d623250b36f218b3e6b2c8715a1d232a9bf41c51d1d0805f7fd3616639cee0",
  "args": [],
  "numDeployments": 1,
  "solcInputHash": "961befc2fb36daa22c7c449f4b260d32",
  "bytecode": "0x608060405234801561001057600080fd5b5061023f806100206000396000f3fe608060405234801561001057600080fd5b50600436106100415760003560e01c80632465f8f5146100465780638e9601031461005b578063d845a4b31461006e575b600080fd5b610059610054366004610168565b610093565b005b610059610069366004610194565b6100d1565b61008161007c3660046101c9565b610137565b60405190815260200160405180910390f35b60405162461bcd60e51b815260206004820152600f60248201526e139bdd08125b5c1b195b595b9d1959608a1b604482015260640160405180910390fd5b60405163ebe93caf60e01b815260048101839052602481018290526001600160a01b0384169063ebe93caf90604401600060405180830381600087803b15801561011a57600080fd5b505af115801561012e573d6000803e3d6000fd5b50505050505050565b600080548180610146836101e2565b9091555092915050565b6001600160a01b038116811461016557600080fd5b50565b6000806040838503121561017b57600080fd5b823561018681610150565b946020939093013593505050565b6000806000606084860312156101a957600080fd5b83356101b481610150565b95602085013595506040909401359392505050565b6000602082840312156101db57600080fd5b5035919050565b60006001820161020257634e487b7160e01b600052601160045260246000fd5b506001019056fea26469706673582212205de0a009572c0182b928fe164397d24cb08405230beaae6bad1f1ab54c709efe64736f6c63430008120033",
  "devdoc": {
    "kind": "dev",
    "methods": {},
    "version": 1
  },
  "userdoc": {
    "kind": "user",
    "methods": {},
    "version": 1
  },
  "storageLayout": {
    "storage": [
      {
        "astId": 21566,
        "contract": "src/rng/mock/RandomizerMock.sol:RandomizerMock",
        "label": "id",
        "offset": 0,
        "slot": "0",
        "type": "t_uint256"
      }
    ],
    "types": {
      "t_uint256": {
        "encoding": "inplace",
        "label": "uint256",
        "numberOfBytes": "32"
      }
    }
  }
}