{
  "address": "0x848DB6FBE64b06d58cD9D58820a4FB2F70537F2b",
  "abi": [
    {
      "inputs": [
        {
          "internalType": "address",
          "name": "_governor",
          "type": "address"
        },
        {
          "internalType": "contract KlerosCore",
          "name": "_core",
          "type": "address"
        }
      ],
      "stateMutability": "nonpayable",
      "type": "constructor"
    },
    {
      "anonymous": false,
      "inputs": [
        {
          "indexed": true,
          "internalType": "uint256",
          "name": "_coreDisputeID",
          "type": "uint256"
        },
        {
          "indexed": true,
          "internalType": "uint256",
          "name": "_coreRoundID",
          "type": "uint256"
        },
        {
          "indexed": true,
          "internalType": "uint256",
          "name": "_choice",
          "type": "uint256"
        }
      ],
      "name": "ChoiceFunded",
      "type": "event"
    },
    {
      "anonymous": false,
      "inputs": [
        {
          "indexed": true,
          "internalType": "uint256",
          "name": "_coreDisputeID",
          "type": "uint256"
        },
        {
          "indexed": true,
          "internalType": "address",
          "name": "_juror",
          "type": "address"
        },
        {
          "indexed": false,
          "internalType": "uint256[]",
          "name": "_voteIDs",
          "type": "uint256[]"
        },
        {
          "indexed": false,
          "internalType": "bytes32",
          "name": "_commit",
          "type": "bytes32"
        }
      ],
      "name": "CommitCast",
      "type": "event"
    },
    {
      "anonymous": false,
      "inputs": [
        {
          "indexed": true,
          "internalType": "uint256",
          "name": "_coreDisputeID",
          "type": "uint256"
        },
        {
          "indexed": true,
          "internalType": "uint256",
          "name": "_coreRoundID",
          "type": "uint256"
        },
        {
          "indexed": false,
          "internalType": "uint256",
          "name": "_choice",
          "type": "uint256"
        },
        {
          "indexed": true,
          "internalType": "address",
          "name": "_contributor",
          "type": "address"
        },
        {
          "indexed": false,
          "internalType": "uint256",
          "name": "_amount",
          "type": "uint256"
        }
      ],
      "name": "Contribution",
      "type": "event"
    },
    {
      "anonymous": false,
      "inputs": [
        {
          "indexed": true,
          "internalType": "uint256",
          "name": "_coreDisputeID",
          "type": "uint256"
        },
        {
          "indexed": false,
          "internalType": "uint256",
          "name": "_numberOfChoices",
          "type": "uint256"
        },
        {
          "indexed": false,
          "internalType": "bytes",
          "name": "_extraData",
          "type": "bytes"
        }
      ],
      "name": "DisputeCreation",
      "type": "event"
    },
    {
      "anonymous": false,
      "inputs": [
        {
          "indexed": true,
          "internalType": "uint256",
          "name": "_externalDisputeID",
          "type": "uint256"
        },
        {
          "indexed": true,
          "internalType": "address",
          "name": "_party",
          "type": "address"
        },
        {
          "indexed": false,
          "internalType": "string",
          "name": "_evidence",
          "type": "string"
        }
      ],
      "name": "Evidence",
      "type": "event"
    },
    {
      "anonymous": false,
      "inputs": [
        {
          "indexed": true,
          "internalType": "uint256",
          "name": "_coreDisputeID",
          "type": "uint256"
        },
        {
          "indexed": true,
          "internalType": "address",
          "name": "_juror",
          "type": "address"
        },
        {
          "indexed": false,
          "internalType": "uint256[]",
          "name": "_voteIDs",
          "type": "uint256[]"
        },
        {
          "indexed": true,
          "internalType": "uint256",
          "name": "_choice",
          "type": "uint256"
        },
        {
          "indexed": false,
          "internalType": "string",
          "name": "_justification",
          "type": "string"
        }
      ],
      "name": "VoteCast",
      "type": "event"
    },
    {
      "anonymous": false,
      "inputs": [
        {
          "indexed": true,
          "internalType": "uint256",
          "name": "_coreDisputeID",
          "type": "uint256"
        },
        {
          "indexed": true,
          "internalType": "uint256",
          "name": "_coreRoundID",
          "type": "uint256"
        },
        {
          "indexed": false,
          "internalType": "uint256",
          "name": "_choice",
          "type": "uint256"
        },
        {
          "indexed": true,
          "internalType": "address",
          "name": "_contributor",
          "type": "address"
        },
        {
          "indexed": false,
          "internalType": "uint256",
          "name": "_amount",
          "type": "uint256"
        }
      ],
      "name": "Withdrawal",
      "type": "event"
    },
    {
      "inputs": [],
      "name": "LOSER_APPEAL_PERIOD_MULTIPLIER",
      "outputs": [
        {
          "internalType": "uint256",
          "name": "",
          "type": "uint256"
        }
      ],
      "stateMutability": "view",
      "type": "function"
    },
    {
      "inputs": [],
      "name": "LOSER_STAKE_MULTIPLIER",
      "outputs": [
        {
          "internalType": "uint256",
          "name": "",
          "type": "uint256"
        }
      ],
      "stateMutability": "view",
      "type": "function"
    },
    {
      "inputs": [],
      "name": "ONE_BASIS_POINT",
      "outputs": [
        {
          "internalType": "uint256",
          "name": "",
          "type": "uint256"
        }
      ],
      "stateMutability": "view",
      "type": "function"
    },
    {
      "inputs": [],
      "name": "WINNER_STAKE_MULTIPLIER",
      "outputs": [
        {
          "internalType": "uint256",
          "name": "",
          "type": "uint256"
        }
      ],
      "stateMutability": "view",
      "type": "function"
    },
    {
      "inputs": [
        {
          "internalType": "uint256",
          "name": "_coreDisputeID",
          "type": "uint256"
        }
      ],
      "name": "areCommitsAllCast",
      "outputs": [
        {
          "internalType": "bool",
          "name": "",
          "type": "bool"
        }
      ],
      "stateMutability": "view",
      "type": "function"
    },
    {
      "inputs": [
        {
          "internalType": "uint256",
          "name": "_coreDisputeID",
          "type": "uint256"
        }
      ],
      "name": "areVotesAllCast",
      "outputs": [
        {
          "internalType": "bool",
          "name": "",
          "type": "bool"
        }
      ],
      "stateMutability": "view",
      "type": "function"
    },
    {
      "inputs": [
        {
          "internalType": "uint256",
          "name": "_coreDisputeID",
          "type": "uint256"
        },
        {
          "internalType": "uint256[]",
          "name": "_voteIDs",
          "type": "uint256[]"
        },
        {
          "internalType": "bytes32",
          "name": "_commit",
          "type": "bytes32"
        }
      ],
      "name": "castCommit",
      "outputs": [],
      "stateMutability": "nonpayable",
      "type": "function"
    },
    {
      "inputs": [
        {
          "internalType": "uint256",
          "name": "_coreDisputeID",
          "type": "uint256"
        },
        {
          "internalType": "uint256[]",
          "name": "_voteIDs",
          "type": "uint256[]"
        },
        {
          "internalType": "uint256",
          "name": "_choice",
          "type": "uint256"
        },
        {
          "internalType": "uint256",
          "name": "_salt",
          "type": "uint256"
        },
        {
          "internalType": "string",
          "name": "_justification",
          "type": "string"
        }
      ],
      "name": "castVote",
      "outputs": [],
      "stateMutability": "nonpayable",
      "type": "function"
    },
    {
      "inputs": [
        {
          "internalType": "address",
          "name": "_core",
          "type": "address"
        }
      ],
      "name": "changeCore",
      "outputs": [],
      "stateMutability": "nonpayable",
      "type": "function"
    },
    {
      "inputs": [
        {
          "internalType": "address payable",
          "name": "_governor",
          "type": "address"
        }
      ],
      "name": "changeGovernor",
      "outputs": [],
      "stateMutability": "nonpayable",
      "type": "function"
    },
    {
      "inputs": [],
      "name": "core",
      "outputs": [
        {
          "internalType": "contract KlerosCore",
          "name": "",
          "type": "address"
        }
      ],
      "stateMutability": "view",
      "type": "function"
    },
    {
      "inputs": [
        {
          "internalType": "uint256",
          "name": "",
          "type": "uint256"
        }
      ],
      "name": "coreDisputeIDToLocal",
      "outputs": [
        {
          "internalType": "uint256",
          "name": "",
          "type": "uint256"
        }
      ],
      "stateMutability": "view",
      "type": "function"
    },
    {
      "inputs": [
        {
          "internalType": "uint256",
          "name": "_coreDisputeID",
          "type": "uint256"
        },
        {
          "internalType": "uint256",
          "name": "_numberOfChoices",
          "type": "uint256"
        },
        {
          "internalType": "bytes",
          "name": "_extraData",
          "type": "bytes"
        },
        {
          "internalType": "uint256",
          "name": "_nbVotes",
          "type": "uint256"
        }
      ],
      "name": "createDispute",
      "outputs": [],
      "stateMutability": "nonpayable",
      "type": "function"
    },
    {
      "inputs": [
        {
          "internalType": "uint256",
          "name": "_coreDisputeID",
          "type": "uint256"
        }
      ],
      "name": "currentRuling",
      "outputs": [
        {
          "internalType": "uint256",
          "name": "ruling",
          "type": "uint256"
        },
        {
          "internalType": "bool",
          "name": "tied",
          "type": "bool"
        },
        {
          "internalType": "bool",
          "name": "overridden",
          "type": "bool"
        }
      ],
      "stateMutability": "view",
      "type": "function"
    },
    {
      "inputs": [
        {
          "internalType": "uint256",
          "name": "",
          "type": "uint256"
        }
      ],
      "name": "disputes",
      "outputs": [
        {
          "internalType": "uint256",
          "name": "numberOfChoices",
          "type": "uint256"
        },
        {
          "internalType": "bool",
          "name": "jumped",
          "type": "bool"
        },
        {
          "internalType": "bytes",
          "name": "extraData",
          "type": "bytes"
        }
      ],
      "stateMutability": "view",
      "type": "function"
    },
    {
      "inputs": [
        {
          "internalType": "uint256",
          "name": "_coreDisputeID",
          "type": "uint256"
        },
        {
          "internalType": "uint256",
          "name": "_nonce",
          "type": "uint256"
        }
      ],
      "name": "draw",
      "outputs": [
        {
          "internalType": "address",
          "name": "drawnAddress",
          "type": "address"
        }
      ],
      "stateMutability": "nonpayable",
      "type": "function"
    },
    {
      "inputs": [
        {
          "internalType": "address",
          "name": "_destination",
          "type": "address"
        },
        {
          "internalType": "uint256",
          "name": "_amount",
          "type": "uint256"
        },
        {
          "internalType": "bytes",
          "name": "_data",
          "type": "bytes"
        }
      ],
      "name": "executeGovernorProposal",
      "outputs": [],
      "stateMutability": "nonpayable",
      "type": "function"
    },
    {
      "inputs": [
        {
          "internalType": "uint256",
          "name": "_coreDisputeID",
          "type": "uint256"
        },
        {
          "internalType": "uint256",
          "name": "_choice",
          "type": "uint256"
        }
      ],
      "name": "fundAppeal",
      "outputs": [],
      "stateMutability": "payable",
      "type": "function"
    },
    {
      "inputs": [
        {
          "internalType": "uint256",
          "name": "_coreDisputeID",
          "type": "uint256"
        },
        {
          "internalType": "uint256",
          "name": "_coreRoundID",
          "type": "uint256"
        }
      ],
      "name": "getCoherentCount",
      "outputs": [
        {
          "internalType": "uint256",
          "name": "",
          "type": "uint256"
        }
      ],
      "stateMutability": "view",
      "type": "function"
    },
    {
      "inputs": [
        {
          "internalType": "uint256",
          "name": "_coreDisputeID",
          "type": "uint256"
        },
        {
          "internalType": "uint256",
          "name": "_coreRoundID",
          "type": "uint256"
        },
        {
          "internalType": "uint256",
          "name": "_voteID",
          "type": "uint256"
        }
      ],
      "name": "getDegreeOfCoherence",
      "outputs": [
        {
          "internalType": "uint256",
          "name": "",
          "type": "uint256"
        }
      ],
      "stateMutability": "view",
      "type": "function"
    },
    {
      "inputs": [
        {
          "internalType": "uint256",
          "name": "_coreDisputeID",
          "type": "uint256"
        }
      ],
      "name": "getFundedChoices",
      "outputs": [
        {
          "internalType": "uint256[]",
          "name": "fundedChoices",
          "type": "uint256[]"
        }
      ],
      "stateMutability": "view",
      "type": "function"
    },
    {
      "inputs": [
        {
          "internalType": "uint256",
          "name": "_coreDisputeID",
          "type": "uint256"
        },
        {
          "internalType": "uint256",
          "name": "_coreRoundID",
          "type": "uint256"
        },
        {
          "internalType": "uint256",
          "name": "_choice",
          "type": "uint256"
        }
      ],
      "name": "getRoundInfo",
      "outputs": [
        {
          "internalType": "uint256",
          "name": "winningChoice",
          "type": "uint256"
        },
        {
          "internalType": "bool",
          "name": "tied",
          "type": "bool"
        },
        {
          "internalType": "uint256",
          "name": "totalVoted",
          "type": "uint256"
        },
        {
          "internalType": "uint256",
          "name": "totalCommited",
          "type": "uint256"
        },
        {
          "internalType": "uint256",
          "name": "nbVoters",
          "type": "uint256"
        },
        {
          "internalType": "uint256",
          "name": "choiceCount",
          "type": "uint256"
        }
      ],
      "stateMutability": "view",
      "type": "function"
    },
    {
      "inputs": [
        {
          "internalType": "uint256",
          "name": "_coreDisputeID",
          "type": "uint256"
        },
        {
          "internalType": "uint256",
          "name": "_coreRoundID",
          "type": "uint256"
        },
        {
          "internalType": "uint256",
          "name": "_voteID",
          "type": "uint256"
        }
      ],
      "name": "getVoteInfo",
      "outputs": [
        {
          "internalType": "address",
          "name": "account",
          "type": "address"
        },
        {
          "internalType": "bytes32",
          "name": "commit",
          "type": "bytes32"
        },
        {
          "internalType": "uint256",
          "name": "choice",
          "type": "uint256"
        },
        {
          "internalType": "bool",
          "name": "voted",
          "type": "bool"
        }
      ],
      "stateMutability": "view",
      "type": "function"
    },
    {
      "inputs": [],
      "name": "governor",
      "outputs": [
        {
          "internalType": "address",
          "name": "",
          "type": "address"
        }
      ],
      "stateMutability": "view",
      "type": "function"
    },
    {
      "inputs": [
        {
          "internalType": "uint256",
          "name": "_coreDisputeID",
          "type": "uint256"
        },
        {
          "internalType": "uint256",
          "name": "_coreRoundID",
          "type": "uint256"
        },
        {
          "internalType": "uint256",
          "name": "_voteID",
          "type": "uint256"
        }
      ],
      "name": "isVoteActive",
      "outputs": [
        {
          "internalType": "bool",
          "name": "",
          "type": "bool"
        }
      ],
      "stateMutability": "view",
      "type": "function"
    },
    {
      "inputs": [
        {
          "internalType": "uint256",
          "name": "_externalDisputeID",
          "type": "uint256"
        },
        {
          "internalType": "string",
          "name": "_evidence",
          "type": "string"
        }
      ],
      "name": "submitEvidence",
      "outputs": [],
      "stateMutability": "nonpayable",
      "type": "function"
    },
    {
      "inputs": [
        {
          "internalType": "uint256",
          "name": "_coreDisputeID",
          "type": "uint256"
        },
        {
          "internalType": "address payable",
          "name": "_beneficiary",
          "type": "address"
        },
        {
          "internalType": "uint256",
          "name": "_coreRoundID",
          "type": "uint256"
        },
        {
          "internalType": "uint256",
          "name": "_choice",
          "type": "uint256"
        }
      ],
      "name": "withdrawFeesAndRewards",
      "outputs": [
        {
          "internalType": "uint256",
          "name": "amount",
          "type": "uint256"
        }
      ],
      "stateMutability": "nonpayable",
      "type": "function"
    }
  ],
  "transactionHash": "0x6228986e1c4c7c93fa4406c5f17dbe0279671890ff01cff1d8fd9cf92026149b",
  "args": [
    "0xF50E77f2A2B6138D16c6c7511562E5C33c4B15A3",
    "0x0000000000000000000000000000000000000000"
  ],
  "numDeployments": 2,
  "solcInputHash": "7b7733e7f1a8859e8b5512131ec1d587",
  "bytecode": "0x60806040523480156200001157600080fd5b5060405162003abc38038062003abc83398101604081905262000034916200007f565b600080546001600160a01b039384166001600160a01b03199182161790915560018054929093169116179055620000be565b6001600160a01b03811681146200007c57600080fd5b50565b600080604083850312156200009357600080fd5b8251620000a08162000066565b6020840151909250620000b38162000066565b809150509250929050565b6139ee80620000ce6000396000f3fe60806040526004361061016c5760003560e01c8063796490f9116100cc578063ba66fde71161007a578063ba66fde7146104ac578063be467604146104cc578063d2b8035a146104e2578063da3beb8c14610502578063e349ad30146103b4578063e4c0aaf414610522578063f2f4eb261461054257600080fd5b8063796490f9146103b45780637c04034e146103ca5780638e426460146103ea578063a6a7f0eb1461040a578063a7cc08fe1461042a578063b34bfaa814610476578063b6ede5401461048c57600080fd5b80634fe264fb116101295780634fe264fb1461028b578063564a565d146102ab5780635c92e2f6146102da57806365540b96146102fa57806369f3f041146103275780636d4cd8ea14610374578063751accd01461039457600080fd5b80630baa64d1146101715780630c340a24146101a65780631200aabc146101de5780631c3db16d14610219578063362c3479146102565780634b2f0ea014610276575b600080fd5b34801561017d57600080fd5b5061019161018c366004612cbd565b610562565b60405190151581526020015b60405180910390f35b3480156101b257600080fd5b506000546101c6906001600160a01b031681565b6040516001600160a01b03909116815260200161019d565b3480156101ea57600080fd5b5061020b6101f9366004612cbd565b60036020526000908152604090205481565b60405190815260200161019d565b34801561022557600080fd5b50610239610234366004612cbd565b6105d9565b60408051938452911515602084015215159082015260600161019d565b34801561026257600080fd5b5061020b610271366004612cee565b610747565b610289610284366004612d2b565b610b1d565b005b34801561029757600080fd5b5061020b6102a6366004612d4d565b611384565b3480156102b757600080fd5b506102cb6102c6366004612cbd565b6114c7565b60405161019d93929190612dc9565b3480156102e657600080fd5b506102896102f5366004612e3e565b61158d565b34801561030657600080fd5b5061031a610315366004612cbd565b61189a565b60405161019d9190612e90565b34801561033357600080fd5b50610347610342366004612d4d565b61195e565b604080519687529415156020870152938501929092526060840152608083015260a082015260c00161019d565b34801561038057600080fd5b5061019161038f366004612cbd565b611a16565b3480156103a057600080fd5b506102896103af366004612f9a565b611a8d565b3480156103c057600080fd5b5061020b61271081565b3480156103d657600080fd5b506102896103e5366004613006565b611b5f565b3480156103f657600080fd5b5061028961040536600461309e565b61223b565b34801561041657600080fd5b506102896104253660046130fc565b612287565b34801561043657600080fd5b5061044a610445366004612d4d565b6122d0565b604080516001600160a01b0390951685526020850193909352918301521515606082015260800161019d565b34801561048257600080fd5b5061020b614e2081565b34801561049857600080fd5b506102896104a7366004613147565b612396565b3480156104b857600080fd5b506101916104c7366004612d4d565b61256b565b3480156104d857600080fd5b5061020b61138881565b3480156104ee57600080fd5b506101c66104fd366004612d2b565b612606565b34801561050e57600080fd5b5061020b61051d366004612d2b565b61290f565b34801561052e57600080fd5b5061028961053d36600461309e565b612a62565b34801561054e57600080fd5b506001546101c6906001600160a01b031681565b600081815260036020526040812054600280548392908110610586576105866131a1565b600091825260208220600590910201805490925082906105a8906001906131cd565b815481106105b8576105b86131a1565b60009182526020909120600c90910201805460059091015414949350505050565b6000806000806002600360008781526020019081526020016000205481548110610605576106056131a1565b60009182526020822060059091020180549092508290610627906001906131cd565b81548110610637576106376131a1565b60009182526020909120600c90910201600381015460ff169450905083610662578060010154610665565b60005b60015460405163564a565d60e01b8152600481018990529196506000916001600160a01b039091169063564a565d9060240160a060405180830381865afa1580156106b4573d6000803e3d6000fd5b505050506040513d601f19601f820116820180604052508101906106d8919061320c565b50909350600492506106e8915050565b8160048111156106fa576106fa613273565b0361073d57600061070a8861189a565b9050805160010361073b5780600081518110610728576107286131a1565b6020026020010151965060009550600194505b505b5050509193909250565b60015460405163564a565d60e01b81526004810186905260009182916001600160a01b039091169063564a565d9060240160a060405180830381865afa158015610795573d6000803e3d6000fd5b505050506040513d601f19601f820116820180604052508101906107b9919061320c565b509350505050806108115760405162461bcd60e51b815260206004820152601b60248201527f446973707574652073686f756c64206265207265736f6c7665642e000000000060448201526064015b60405180910390fd5b600086815260036020526040812054600280549091908110610835576108356131a1565b60009182526020808320888452600360059093020191820190526040822054815491935083918110610869576108696131a1565b600091825260208220600154604051631c3db16d60e01b8152600481018d9052600c9390930290910193506001600160a01b031690631c3db16d90602401606060405180830381865afa1580156108c4573d6000803e3d6000fd5b505050506040513d601f19601f820116820180604052508101906108e89190613289565b5050600087815260078401602052604090205490915060ff16610932576001600160a01b038816600090815260088301602090815260408083208984529091529020549450610a77565b8086036109a75760008681526006830160205260409020546109555760006109a0565b600086815260068301602090815260408083205460098601546001600160a01b038d1685526008870184528285208b865290935292205461099691906132c5565b6109a091906132dc565b9450610a77565b600081815260078301602052604090205460ff16610a775781600601600083600a016001815481106109db576109db6131a1565b906000526020600020015481526020019081526020016000205482600601600084600a01600081548110610a1157610a116131a1565b9060005260206000200154815260200190815260200160002054610a3591906132fe565b60098301546001600160a01b038a16600090815260088501602090815260408083208b8452909152902054610a6a91906132c5565b610a7491906132dc565b94505b6001600160a01b038816600090815260088301602090815260408083208984529091528120558415610b11576040516001600160a01b0389169086156108fc029087906000818181858888f15050604080518a8152602081018a90526001600160a01b038d1694508b93508d92507f54b3cab3cb5c4aca3209db1151caff092e878011202e43a36782d4ebe0b963ae910160405180910390a45b50505050949350505050565b600082815260036020526040902054600280548492908110610b4157610b416131a1565b600091825260209091206002600590920201015460ff1615610b755760405162461bcd60e51b815260040161080890613311565b600083815260036020526040812054600280549091908110610b9957610b996131a1565b906000526020600020906005020190508060010154831115610bfd5760405162461bcd60e51b815260206004820181905260248201527f5468657265206973206e6f20737563682072756c696e6720746f2066756e642e6044820152606401610808565b60015460405163afe15cfb60e01b81526004810186905260009182916001600160a01b039091169063afe15cfb906024016040805180830381865afa158015610c4a573d6000803e3d6000fd5b505050506040513d601f19601f82011682018060405250810190610c6e9190613348565b91509150814210158015610c8157508042105b610cc65760405162461bcd60e51b815260206004820152601660248201527520b83832b0b6103832b934b7b21034b99037bb32b91760511b6044820152606401610808565b604051631c3db16d60e01b81526004810187905260009081903090631c3db16d90602401606060405180830381865afa158015610d07573d6000803e3d6000fd5b505050506040513d601f19601f82011682018060405250810190610d2b9190613289565b50509050868103610d40576127109150610dc1565b612710611388610d5086866131cd565b610d5a91906132c5565b610d6491906132dc565b610d6e85426131cd565b10610dbb5760405162461bcd60e51b815260206004820152601f60248201527f41707065616c20706572696f64206973206f76657220666f72206c6f736572006044820152606401610808565b614e2091505b84546000908690610dd4906001906131cd565b81548110610de457610de46131a1565b60009182526020822060018054604051637e37c78b60e11b8152600481018f9052600c949094029092019450916001600160a01b039091169063fc6f8f1690602401602060405180830381865afa158015610e43573d6000803e3d6000fd5b505050506040513d601f19601f82011682018060405250810190610e67919061336c565b610e7191906131cd565b60008a815260078401602052604090205490915060ff1615610ed55760405162461bcd60e51b815260206004820152601b60248201527f41707065616c2066656520697320616c726561647920706169642e00000000006044820152606401610808565b600154604051632cf6413f60e11b8152600481018c90526000916001600160a01b0316906359ec827e90602401602060405180830381865afa158015610f1f573d6000803e3d6000fd5b505050506040513d601f19601f82011682018060405250810190610f43919061336c565b90506000612710610f5487846132c5565b610f5e91906132dc565b610f6890836132fe565b60008c8152600686016020526040812054919250908211156110195760008c81526006860160205260409020543490610fa190846131cd565b11610fc65760008c8152600686016020526040902054610fc190836131cd565b610fc8565b345b9050336001600160a01b0316848e7fcae597f39a3ad75c2e10d46b031f023c5c2babcd58ca0491b122acda3968d4c08f85604051611010929190918252602082015260400190565b60405180910390a45b33600090815260088601602090815260408083208f8452909152812080548392906110459084906132fe565b909155505060008c81526006860160205260408120805483929061106a9084906132fe565b909155505060008c8152600686016020526040902054821161113c5760008c8152600686016020526040812054600987018054919290916110ac9084906132fe565b9250508190555084600a018c908060018154018082558091505060019003906000526020600020016000909190919091505560018560070160008e815260200190815260200160002060006101000a81548160ff0219169083151502179055508b848e7fed764996238e4c1c873ae3af7ae2f00f1f6f4f10b9ac7d4bbea4a764c5dea00960405160405180910390a45b600a850154600110156113475782856009015461115991906131cd565b60098601556001546040516319b8152960e01b8152600481018f90526001600160a01b03909116906319b8152990602401602060405180830381865afa1580156111a7573d6000803e3d6000fd5b505050506040513d601f19601f820116820180604052508101906111cb9190613385565b156111e45760028a01805460ff191660011790556112c7565b895460038b0160006111f78760016132fe565b81526020019081526020016000208190555060008a6000016001816001815401808255809150500390600052602060002090600c02019050600160009054906101000a90046001600160a01b03166001600160a01b031663c71f42538f6040518263ffffffff1660e01b815260040161127291815260200190565b602060405180830381865afa15801561128f573d6000803e3d6000fd5b505050506040513d601f19601f820116820180604052508101906112b3919061336c565b600b820155600301805460ff191660011790555b600160009054906101000a90046001600160a01b03166001600160a01b031663c3569902848f8d600101548e6004016040518563ffffffff1660e01b8152600401611314939291906133da565b6000604051808303818588803b15801561132d57600080fd5b505af1158015611341573d6000803e3d6000fd5b50505050505b8034111561137557336108fc61135d83346131cd565b6040518115909202916000818181858888f150505050505b50505050505050505050505050565b6000838152600360205260408120546002805483929081106113a8576113a86131a1565b600091825260208083208784526003600590930201918201905260408220548154919350839181106113dc576113dc6131a1565b90600052602060002090600c020160000184815481106113fe576113fe6131a1565b600091825260208220600154604051631c3db16d60e01b815260048082018c905293909302909101935082916001600160a01b0390911690631c3db16d90602401606060405180830381865afa15801561145c573d6000803e3d6000fd5b505050506040513d601f19601f820116820180604052508101906114809190613289565b506003850154919350915060ff1680156114a4575081836002015414806114a45750805b156114b7576127109450505050506114c0565b60009450505050505b9392505050565b600281815481106114d757600080fd5b600091825260209091206005909102016001810154600282015460048301805492945060ff909116929161150a906133a0565b80601f0160208091040260200160405190810160405280929190818152602001828054611536906133a0565b80156115835780601f1061155857610100808354040283529160200191611583565b820191906000526020600020905b81548152906001019060200180831161156657829003601f168201915b5050505050905083565b6000848152600360205260409020546002805486929081106115b1576115b16131a1565b600091825260209091206002600590920201015460ff16156115e55760405162461bcd60e51b815260040161080890613311565b60015460405163564a565d60e01b8152600481018790526000916001600160a01b03169063564a565d9060240160a060405180830381865afa15801561162f573d6000803e3d6000fd5b505050506040513d601f19601f82011682018060405250810190611653919061320c565b5090935060019250611663915050565b81600481111561167557611675613273565b146116d25760405162461bcd60e51b815260206004820152602760248201527f54686520646973707574652073686f756c6420626520696e20436f6d6d6974206044820152663832b934b7b21760c91b6064820152608401610808565b8261170f5760405162461bcd60e51b815260206004820152600d60248201526c22b6b83a3c9031b7b6b6b4ba1760991b6044820152606401610808565b600086815260036020526040812054600280549091908110611733576117336131a1565b60009182526020822060059091020180549092508290611755906001906131cd565b81548110611765576117656131a1565b90600052602060002090600c0201905060005b86811015611833573382898984818110611794576117946131a1565b90506020020135815481106117ab576117ab6131a1565b60009182526020909120600490910201546001600160a01b0316146117e25760405162461bcd60e51b815260040161080890613474565b85828989848181106117f6576117f66131a1565b905060200201358154811061180d5761180d6131a1565b60009182526020909120600160049092020101558061182b816134ab565b915050611778565b508686905081600501600082825461184b91906132fe565b9091555050604051339089907f05cc2f1c94966f1c961b410a50f3d3ffb64501346753a258177097ea23707f0890611888908b908b908b906134f6565b60405180910390a35050505050505050565b60008181526003602052604081205460028054606093929081106118c0576118c06131a1565b600091825260208220600590910201805490925082906118e2906001906131cd565b815481106118f2576118f26131a1565b90600052602060002090600c0201905080600a0180548060200260200160405190810160405280929190818152602001828054801561195057602002820191906000526020600020905b81548152602001906001019080831161193c575b505050505092505050919050565b60008060008060008060006002600360008c8152602001908152602001600020548154811061198f5761198f6131a1565b600091825260208083208c84526003600590930201918201905260408220548154919350839181106119c3576119c36131a1565b600091825260208083206001600c909302019182015460038301546004840154600585015485549f87526002909501909352604090942054909f60ff9094169e50909c50909a9950975095505050505050565b600081815260036020526040812054600280548392908110611a3a57611a3a6131a1565b60009182526020822060059091020180549092508290611a5c906001906131cd565b81548110611a6c57611a6c6131a1565b60009182526020909120600c90910201805460049091015414949350505050565b6000546001600160a01b03163314611ab75760405162461bcd60e51b81526004016108089061351a565b6000836001600160a01b03168383604051611ad2919061355c565b60006040518083038185875af1925050503d8060008114611b0f576040519150601f19603f3d011682016040523d82523d6000602084013e611b14565b606091505b5050905080611b595760405162461bcd60e51b8152602060048201526011602482015270155b9cdd58d8d95cdcd99d5b0818d85b1b607a1b6044820152606401610808565b50505050565b600086815260036020526040902054600280548892908110611b8357611b836131a1565b600091825260209091206002600590920201015460ff1615611bb75760405162461bcd60e51b815260040161080890613311565b60015460405163564a565d60e01b8152600481018990526000916001600160a01b03169063564a565d9060240160a060405180830381865afa158015611c01573d6000803e3d6000fd5b505050506040513d601f19601f82011682018060405250810190611c25919061320c565b5090935060029250611c35915050565b816004811115611c4757611c47613273565b14611ca25760405162461bcd60e51b815260206004820152602560248201527f54686520646973707574652073686f756c6420626520696e20566f74652070656044820152643934b7b21760d91b6064820152608401610808565b85611ce45760405162461bcd60e51b8152602060048201526012602482015271139bc81d9bdd195251081c1c9bdd9a59195960721b6044820152606401610808565b600088815260036020526040812054600280549091908110611d0857611d086131a1565b906000526020600020906005020190508060010154861115611d635760405162461bcd60e51b815260206004820152601460248201527343686f696365206f7574206f6620626f756e647360601b6044820152606401610808565b80546000908290611d76906001906131cd565b81548110611d8657611d866131a1565b60009182526020822060015460405163564a565d60e01b8152600481018f9052600c9390930290910193506001600160a01b03169063564a565d9060240160a060405180830381865afa158015611de1573d6000803e3d6000fd5b505050506040513d601f19601f82011682018060405250810190611e05919061320c565b5050600154604051630fad06e960e11b81526001600160601b03851660048201529394506000936001600160a01b039091169250631f5a0dd2915060240160e060405180830381865afa158015611e60573d6000803e3d6000fd5b505050506040513d601f19601f82011682018060405250810190611e849190613578565b505050505091505060005b8a8110156121015733848d8d84818110611eab57611eab6131a1565b9050602002013581548110611ec257611ec26131a1565b60009182526020909120600490910201546001600160a01b031614611ef95760405162461bcd60e51b815260040161080890613474565b811580611f6d575089888a604051602001611f16939291906135e2565b60405160208183030381529060405280519060200120846000018d8d84818110611f4257611f426131a1565b9050602002013581548110611f5957611f596131a1565b906000526020600020906004020160010154145b611fdf5760405162461bcd60e51b815260206004820152603d60248201527f54686520636f6d6d6974206d757374206d61746368207468652063686f69636560448201527f20696e20636f7572747320776974682068696464656e20766f7465732e0000006064820152608401610808565b838c8c83818110611ff257611ff26131a1565b9050602002013581548110612009576120096131a1565b600091825260209091206003600490920201015460ff16156120625760405162461bcd60e51b81526020600482015260126024820152712b37ba329030b63932b0b23c9031b0b9ba1760711b6044820152606401610808565b89848d8d84818110612076576120766131a1565b905060200201358154811061208d5761208d6131a1565b60009182526020909120600260049092020101556001848d8d848181106120b6576120b66131a1565b90506020020135815481106120cd576120cd6131a1565b60009182526020909120600490910201600301805460ff1916911515919091179055806120f9816134ab565b915050611e8f565b508a8a905083600401600082825461211991906132fe565b90915550506000898152600284016020526040812080548c929061213e9084906132fe565b90915550506001830154890361216d57600383015460ff16156121685760038301805460ff191690555b6121e6565b60018301546000908152600284016020526040808220548b8352912054036121af57600383015460ff166121685760038301805460ff191660011790556121e6565b60018301546000908152600284016020526040808220548b835291205411156121e6576001830189905560038301805460ff191690555b88336001600160a01b03168d7fa000893c71384499023d2d7b21234f7b9e80c78e0330f357dcd667ff578bd3a48e8e8c6040516122259392919061360f565b60405180910390a4505050505050505050505050565b6000546001600160a01b031633146122655760405162461bcd60e51b81526004016108089061351a565b600180546001600160a01b0319166001600160a01b0392909216919091179055565b336001600160a01b0316837f39935cf45244bc296a03d6aef1cf17779033ee27090ce9c68d432367ce10699684846040516122c3929190613668565b60405180910390a3505050565b60008060008060006002600360008a815260200190815260200160002054815481106122fe576122fe6131a1565b600091825260208083208a8452600360059093020191820190526040822054815491935083918110612332576123326131a1565b90600052602060002090600c02016000018781548110612354576123546131a1565b600091825260209091206004909102018054600182015460028301546003909301546001600160a01b039092169c909b5091995060ff16975095505050505050565b6001546001600160a01b031633146123c05760405162461bcd60e51b815260040161080890613684565b60028054600181018255600091909152600581027f405787fa12a823e0f2b7631cc41b3ba8828b3321ca811111fa75cd3aa3bb5acf81018690557f405787fa12a823e0f2b7631cc41b3ba8828b3321ca811111fa75cd3aa3bb5ace8101907f405787fa12a823e0f2b7631cc41b3ba8828b3321ca811111fa75cd3aa3bb5ad20161244b858783613717565b50805460018054604051637e37c78b60e11b8152600481018b9052600385019260009290916001600160a01b039091169063fc6f8f1690602401602060405180830381865afa1580156124a2573d6000803e3d6000fd5b505050506040513d601f19601f820116820180604052508101906124c6919061336c565b6124d091906131cd565b81526020808201929092526040908101600090812093909355835460018181018655858552838520600b600c909302019182018890556003808301805460ff19169092179091558b855290925291829020849055905188907fd3106f74c2d30a4b9230e756a3e78bde53865d40f6af4c479bb010ebaab5810890612559908a908a908a906137d7565b60405180910390a25050505050505050565b60008381526003602052604081205460028054839290811061258f5761258f6131a1565b600091825260208083208784526003600590930201918201905260408220548154919350839181106125c3576125c36131a1565b90600052602060002090600c020160000184815481106125e5576125e56131a1565b600091825260209091206004909102016003015460ff169695505050505050565b6001546000906001600160a01b031633146126335760405162461bcd60e51b815260040161080890613684565b600083815260036020526040902054600280548592908110612657576126576131a1565b600091825260209091206002600590920201015460ff161561268b5760405162461bcd60e51b815260040161080890613311565b6000848152600360205260408120546002805490919081106126af576126af6131a1565b600091825260208220600590910201805490925082906126d1906001906131cd565b815481106126e1576126e16131a1565b90600052602060002090600c020190506000600160009054906101000a90046001600160a01b03166001600160a01b0316632e1daf2f6040518163ffffffff1660e01b8152600401602060405180830381865afa158015612746573d6000803e3d6000fd5b505050506040513d601f19601f8201168201806040525081019061276a91906137f1565b60015460405163564a565d60e01b8152600481018a90529192506000916001600160a01b039091169063564a565d9060240160a060405180830381865afa1580156127b9573d6000803e3d6000fd5b505050506040513d601f19601f820116820180604052508101906127dd919061320c565b5050604051632638506b60e11b81526001600160601b03841660048201819052602482018d9052604482018c90529394506001600160a01b0386169250634c70a0d69150606401602060405180830381865afa158015612841573d6000803e3d6000fd5b505050506040513d601f19601f8201168201806040525081019061286591906137f1565b96506128718988612aae565b156128fe57604080516080810182526001600160a01b03898116825260006020808401828152948401828152606085018381528a5460018082018d558c8652939094209551600490940290950180546001600160a01b0319169390941692909217835593519382019390935591516002830155516003909101805460ff1916911515919091179055612903565b600096505b50505050505092915050565b600082815260036020526040812054600280548392908110612933576129336131a1565b60009182526020808320868452600360059093020191820190526040822054815491935083918110612967576129676131a1565b600091825260208220600154604051631c3db16d60e01b8152600481018a9052600c93909302909101935082916001600160a01b0390911690631c3db16d90602401606060405180830381865afa1580156129c6573d6000803e3d6000fd5b505050506040513d601f19601f820116820180604052508101906129ea9190613289565b5091509150826004015460001480612a19575080158015612a1957506000828152600284016020526040902054155b15612a2b576000945050505050612a5c565b8015612a40575050600401549150612a5c9050565b506000908152600290910160205260409020549150612a5c9050565b92915050565b6000546001600160a01b03163314612a8c5760405162461bcd60e51b81526004016108089061351a565b600080546001600160a01b0319166001600160a01b0392909216919091179055565b60015460405163564a565d60e01b81526004810184905260009182916001600160a01b039091169063564a565d9060240160a060405180830381865afa158015612afc573d6000803e3d6000fd5b505050506040513d601f19601f82011682018060405250810190612b20919061320c565b505060018054604051637e37c78b60e11b8152600481018a90529495506000946001600160a01b039091169350638a9bb02a9250889190849063fc6f8f1690602401602060405180830381865afa158015612b7f573d6000803e3d6000fd5b505050506040513d601f19601f82011682018060405250810190612ba3919061336c565b612bad91906131cd565b6040516001600160e01b031960e085901b16815260048101929092526024820152604401600060405180830381865afa158015612bee573d6000803e3d6000fd5b505050506040513d6000823e601f3d908101601f19168201604052612c1691908101906138a1565b60200151600154604051631a383be960e31b81526001600160a01b0387811660048301526001600160601b03861660248301529293506000928392169063d1c1df4890604401608060405180830381865afa158015612c79573d6000803e3d6000fd5b505050506040513d601f19601f82011682018060405250810190612c9d9190613982565b5050915091508281612caf91906132fe565b909110159695505050505050565b600060208284031215612ccf57600080fd5b5035919050565b6001600160a01b0381168114612ceb57600080fd5b50565b60008060008060808587031215612d0457600080fd5b843593506020850135612d1681612cd6565b93969395505050506040820135916060013590565b60008060408385031215612d3e57600080fd5b50508035926020909101359150565b600080600060608486031215612d6257600080fd5b505081359360208301359350604090920135919050565b60005b83811015612d94578181015183820152602001612d7c565b50506000910152565b60008151808452612db5816020860160208601612d79565b601f01601f19169290920160200192915050565b8381528215156020820152606060408201526000612dea6060830184612d9d565b95945050505050565b60008083601f840112612e0557600080fd5b5081356001600160401b03811115612e1c57600080fd5b6020830191508360208260051b8501011115612e3757600080fd5b9250929050565b60008060008060608587031215612e5457600080fd5b8435935060208501356001600160401b03811115612e7157600080fd5b612e7d87828801612df3565b9598909750949560400135949350505050565b6020808252825182820181905260009190848201906040850190845b81811015612ec857835183529284019291840191600101612eac565b50909695505050505050565b634e487b7160e01b600052604160045260246000fd5b60405161016081016001600160401b0381118282101715612f0d57612f0d612ed4565b60405290565b604051601f8201601f191681016001600160401b0381118282101715612f3b57612f3b612ed4565b604052919050565b60006001600160401b03831115612f5c57612f5c612ed4565b612f6f601f8401601f1916602001612f13565b9050828152838383011115612f8357600080fd5b828260208301376000602084830101529392505050565b600080600060608486031215612faf57600080fd5b8335612fba81612cd6565b92506020840135915060408401356001600160401b03811115612fdc57600080fd5b8401601f81018613612fed57600080fd5b612ffc86823560208401612f43565b9150509250925092565b60008060008060008060a0878903121561301f57600080fd5b8635955060208701356001600160401b038082111561303d57600080fd5b6130498a838b01612df3565b90975095506040890135945060608901359350608089013591508082111561307057600080fd5b508701601f8101891361308257600080fd5b61309189823560208401612f43565b9150509295509295509295565b6000602082840312156130b057600080fd5b81356114c081612cd6565b60008083601f8401126130cd57600080fd5b5081356001600160401b038111156130e457600080fd5b602083019150836020828501011115612e3757600080fd5b60008060006040848603121561311157600080fd5b8335925060208401356001600160401b0381111561312e57600080fd5b61313a868287016130bb565b9497909650939450505050565b60008060008060006080868803121561315f57600080fd5b853594506020860135935060408601356001600160401b0381111561318357600080fd5b61318f888289016130bb565b96999598509660600135949350505050565b634e487b7160e01b600052603260045260246000fd5b634e487b7160e01b600052601160045260246000fd5b81810381811115612a5c57612a5c6131b7565b80516001600160601b03811681146131f757600080fd5b919050565b805180151581146131f757600080fd5b600080600080600060a0868803121561322457600080fd5b61322d866131e0565b9450602086015161323d81612cd6565b60408701519094506005811061325257600080fd5b9250613260606087016131fc565b9150608086015190509295509295909350565b634e487b7160e01b600052602160045260246000fd5b60008060006060848603121561329e57600080fd5b835192506132ae602085016131fc565b91506132bc604085016131fc565b90509250925092565b8082028115828204841417612a5c57612a5c6131b7565b6000826132f957634e487b7160e01b600052601260045260246000fd5b500490565b80820180821115612a5c57612a5c6131b7565b6020808252601e908201527f44697370757465206a756d70656420746f206120706172656e7420444b210000604082015260600190565b6000806040838503121561335b57600080fd5b505080516020909101519092909150565b60006020828403121561337e57600080fd5b5051919050565b60006020828403121561339757600080fd5b6114c0826131fc565b600181811c908216806133b457607f821691505b6020821081036133d457634e487b7160e01b600052602260045260246000fd5b50919050565b83815260006020848184015260606040840152600084546133fa816133a0565b806060870152608060018084166000811461341c576001811461343657613464565b60ff1985168984015283151560051b890183019550613464565b896000528660002060005b8581101561345c5781548b8201860152908301908801613441565b8a0184019650505b50939a9950505050505050505050565b6020808252601f908201527f5468652063616c6c65722068617320746f206f776e2074686520766f74652e00604082015260600190565b6000600182016134bd576134bd6131b7565b5060010190565b81835260006001600160fb1b038311156134dd57600080fd5b8260051b80836020870137939093016020019392505050565b60408152600061350a6040830185876134c4565b9050826020830152949350505050565b60208082526022908201527f416363657373206e6f7420616c6c6f7765643a20476f7665726e6f72206f6e6c6040820152613c9760f11b606082015260800190565b6000825161356e818460208701612d79565b9190910192915050565b600080600080600080600060e0888a03121561359357600080fd5b61359c886131e0565b96506135aa602089016131fc565b955060408801519450606088015193506080880151925060a088015191506135d460c089016131fc565b905092959891949750929550565b838152600083516135fa816020850160208801612d79565b60209201918201929092526040019392505050565b6040815260006136236040830185876134c4565b82810360208401526136358185612d9d565b9695505050505050565b81835281816020850137506000828201602090810191909152601f909101601f19169091010190565b60208152600061367c60208301848661363f565b949350505050565b60208082526024908201527f416363657373206e6f7420616c6c6f7765643a204b6c65726f73436f7265206f60408201526337363c9760e11b606082015260800190565b601f82111561371257600081815260208120601f850160051c810160208610156136ef5750805b601f850160051c820191505b8181101561370e578281556001016136fb565b5050505b505050565b6001600160401b0383111561372e5761372e612ed4565b6137428361373c83546133a0565b836136c8565b6000601f841160018114613776576000851561375e5750838201355b600019600387901b1c1916600186901b1783556137d0565b600083815260209020601f19861690835b828110156137a75786850135825560209485019460019092019101613787565b50868210156137c45760001960f88860031b161c19848701351681555b505060018560011b0183555b5050505050565b838152604060208201526000612dea60408301848661363f565b60006020828403121561380357600080fd5b81516114c081612cd6565b600082601f83011261381f57600080fd5b815160206001600160401b0382111561383a5761383a612ed4565b8160051b613849828201612f13565b928352848101820192828101908785111561386357600080fd5b83870192505b8483101561388b57825161387c81612cd6565b82529183019190830190613869565b979650505050505050565b80516131f781612cd6565b6000602082840312156138b357600080fd5b81516001600160401b03808211156138ca57600080fd5b9083019061016082860312156138df57600080fd5b6138e7612eea565b825181526020830151602082015260408301516040820152606083015160608201526080830151608082015260a083015160a082015260c08301518281111561392f57600080fd5b61393b8782860161380e565b60c08301525060e0838101519082015261010080840151908201526101209150613966828401613896565b9181019190915261014091820151918101919091529392505050565b6000806000806080858703121561399857600080fd5b50508251602084015160408501516060909501519196909550909250905056fea2646970667358221220f038a011ed6599f97ebefd5fc379a24f22d334c34c2c7b6283848b77233ef58864736f6c63430008120033",
  "devdoc": {
    "events": {
      "ChoiceFunded(uint256,uint256,uint256)": {
        "details": "To be emitted when a choice is fully funded for an appeal.",
        "params": {
          "_choice": "The choice that is being funded.",
          "_coreDisputeID": "The identifier of the dispute in the Arbitrator contract.",
          "_coreRoundID": "The identifier of the round in the Arbitrator contract."
        }
      },
      "CommitCast(uint256,address,uint256[],bytes32)": {
        "details": "To be emitted when a vote commitment is cast.",
        "params": {
          "_commit": "The commitment of the juror.",
          "_coreDisputeID": "The identifier of the dispute in the Arbitrator contract.",
          "_juror": "The address of the juror casting the vote commitment.",
          "_voteIDs": "The identifiers of the votes in the dispute."
        }
      },
      "Contribution(uint256,uint256,uint256,address,uint256)": {
        "details": "To be emitted when a funding contribution is made.",
        "params": {
          "_amount": "The amount contributed.",
          "_choice": "The choice that is being funded.",
          "_contributor": "The address of the contributor.",
          "_coreDisputeID": "The identifier of the dispute in the Arbitrator contract.",
          "_coreRoundID": "The identifier of the round in the Arbitrator contract."
        }
      },
      "DisputeCreation(uint256,uint256,bytes)": {
        "details": "To be emitted when a dispute is created.",
        "params": {
          "_coreDisputeID": "The identifier of the dispute in the Arbitrator contract.",
          "_extraData": "The extra data for the dispute.",
          "_numberOfChoices": "The number of choices available in the dispute."
        }
      },
      "Evidence(uint256,address,string)": {
        "details": "To be raised when evidence is submitted. Should point to the resource (evidences are not to be stored on chain due to gas considerations).",
        "params": {
          "_evidence": "IPFS path to evidence, example: '/ipfs/Qmarwkf7C9RuzDEJNnarT3WZ7kem5bk8DZAzx78acJjMFH/evidence.json'",
          "_externalDisputeID": "Unique identifier for this dispute outside Kleros. It's the submitter responsability to submit the right external dispute ID.",
          "_party": "The address of the party submiting the evidence. Note that 0x0 refers to evidence not submitted by any party."
        }
      },
      "VoteCast(uint256,address,uint256[],uint256,string)": {
        "details": "Emitted when casting a vote to provide the justification of juror's choice.",
        "params": {
          "_choice": "The choice juror voted for.",
          "_coreDisputeID": "The identifier of the dispute in the Arbitrator contract.",
          "_juror": "Address of the juror.",
          "_justification": "Justification of the choice.",
          "_voteIDs": "The identifiers of the votes in the dispute."
        }
      },
      "Withdrawal(uint256,uint256,uint256,address,uint256)": {
        "details": "To be emitted when the contributed funds are withdrawn.",
        "params": {
          "_amount": "The amount withdrawn.",
          "_choice": "The choice that is being funded.",
          "_contributor": "The address of the contributor.",
          "_coreDisputeID": "The identifier of the dispute in the Arbitrator contract.",
          "_coreRoundID": "The identifier of the round in the Arbitrator contract."
        }
      }
    },
    "kind": "dev",
    "methods": {
      "areCommitsAllCast(uint256)": {
        "details": "Returns true if all of the jurors have cast their commits for the last round.",
        "params": {
          "_coreDisputeID": "The ID of the dispute in Kleros Core."
        },
        "returns": {
          "_0": "Whether all of the jurors have cast their commits for the last round."
        }
      },
      "areVotesAllCast(uint256)": {
        "details": "Returns true if all of the jurors have cast their votes for the last round.",
        "params": {
          "_coreDisputeID": "The ID of the dispute in Kleros Core."
        },
        "returns": {
          "_0": "Whether all of the jurors have cast their votes for the last round."
        }
      },
      "castCommit(uint256,uint256[],bytes32)": {
        "details": "Sets the caller's commit for the specified votes. It can be called multiple times during the commit period, each call overrides the commits of the previous one. `O(n)` where `n` is the number of votes.",
        "params": {
          "_commit": "The commit. Note that justification string is a part of the commit.",
          "_coreDisputeID": "The ID of the dispute in Kleros Core.",
          "_voteIDs": "The IDs of the votes."
        }
      },
      "castVote(uint256,uint256[],uint256,uint256,string)": {
        "details": "Sets the caller's choices for the specified votes. `O(n)` where `n` is the number of votes.",
        "params": {
          "_choice": "The choice.",
          "_coreDisputeID": "The ID of the dispute in Kleros Core.",
          "_justification": "Justification of the choice.",
          "_salt": "The salt for the commit if the votes were hidden.",
          "_voteIDs": "The IDs of the votes."
        }
      },
      "changeCore(address)": {
        "details": "Changes the `core` storage variable.",
        "params": {
          "_core": "The new value for the `core` storage variable."
        }
      },
      "changeGovernor(address)": {
        "details": "Changes the `governor` storage variable.",
        "params": {
          "_governor": "The new value for the `governor` storage variable."
        }
      },
      "constructor": {
        "details": "Constructor.",
        "params": {
          "_core": "The KlerosCore arbitrator.",
          "_governor": "The governor's address."
        }
      },
      "createDispute(uint256,uint256,bytes,uint256)": {
        "details": "Creates a local dispute and maps it to the dispute ID in the Core contract. Note: Access restricted to Kleros Core only.",
        "params": {
          "_coreDisputeID": "The ID of the dispute in Kleros Core.",
          "_extraData": "Additional info about the dispute, for possible use in future dispute kits.",
          "_nbVotes": "Number of votes for this dispute.",
          "_numberOfChoices": "Number of choices of the dispute"
        }
      },
      "currentRuling(uint256)": {
        "details": "Gets the current ruling of a specified dispute.",
        "params": {
          "_coreDisputeID": "The ID of the dispute in Kleros Core."
        },
        "returns": {
          "overridden": "Whether the ruling was overridden by appeal funding or not.",
          "ruling": "The current ruling.",
          "tied": "Whether it's a tie or not."
        }
      },
      "draw(uint256,uint256)": {
        "details": "Draws the juror from the sortition tree. The drawn address is picked up by Kleros Core. Note: Access restricted to Kleros Core only.",
        "params": {
          "_coreDisputeID": "The ID of the dispute in Kleros Core.",
          "_nonce": "Nonce of the drawing iteration."
        },
        "returns": {
          "drawnAddress": "The drawn address."
        }
      },
      "executeGovernorProposal(address,uint256,bytes)": {
        "details": "Allows the governor to call anything on behalf of the contract.",
        "params": {
          "_amount": "The value sent with the call.",
          "_data": "The data sent with the call.",
          "_destination": "The destination of the call."
        }
      },
      "fundAppeal(uint256,uint256)": {
        "details": "Manages contributions, and appeals a dispute if at least two choices are fully funded. Note that the surplus deposit will be reimbursed.",
        "params": {
          "_choice": "A choice that receives funding.",
          "_coreDisputeID": "Index of the dispute in Kleros Core."
        }
      },
      "getCoherentCount(uint256,uint256)": {
        "details": "Gets the number of jurors who are eligible to a reward in this round.",
        "params": {
          "_coreDisputeID": "The ID of the dispute in Kleros Core, not in the Dispute Kit.",
          "_coreRoundID": "The ID of the round in Kleros Core, not in the Dispute Kit."
        },
        "returns": {
          "_0": "The number of coherent jurors."
        }
      },
      "getDegreeOfCoherence(uint256,uint256,uint256)": {
        "details": "Gets the degree of coherence of a particular voter. This function is called by Kleros Core in order to determine the amount of the reward.",
        "params": {
          "_coreDisputeID": "The ID of the dispute in Kleros Core, not in the Dispute Kit.",
          "_coreRoundID": "The ID of the round in Kleros Core, not in the Dispute Kit.",
          "_voteID": "The ID of the vote."
        },
        "returns": {
          "_0": "The degree of coherence in basis points."
        }
      },
      "isVoteActive(uint256,uint256,uint256)": {
        "details": "Returns true if the specified voter was active in this round.",
        "params": {
          "_coreDisputeID": "The ID of the dispute in Kleros Core, not in the Dispute Kit.",
          "_coreRoundID": "The ID of the round in Kleros Core, not in the Dispute Kit.",
          "_voteID": "The ID of the voter."
        },
        "returns": {
          "_0": "Whether the voter was active or not."
        }
      },
      "submitEvidence(uint256,string)": {
        "details": "Submits evidence for a dispute.",
        "params": {
          "_evidence": "IPFS path to evidence, example: '/ipfs/Qmarwkf7C9RuzDEJNnarT3WZ7kem5bk8DZAzx78acJjMFH/evidence.json'.",
          "_externalDisputeID": "Unique identifier for this dispute outside Kleros. It's the submitter responsability to submit the right evidence group ID."
        }
      },
      "withdrawFeesAndRewards(uint256,address,uint256,uint256)": {
        "details": "Allows those contributors who attempted to fund an appeal round to withdraw any reimbursable fees or rewards after the dispute gets resolved.",
        "params": {
          "_beneficiary": "The address whose rewards to withdraw.",
          "_choice": "The ruling option that the caller wants to withdraw from.",
          "_coreDisputeID": "Index of the dispute in Kleros Core contract.",
          "_coreRoundID": "The round in the Kleros Core contract the caller wants to withdraw from."
        },
        "returns": {
          "amount": "The withdrawn amount."
        }
      }
    },
    "title": "DisputeKitClassic Dispute kit implementation of the Kleros v1 features including: - a drawing system: proportional to staked PNK, - a vote aggregation system: plurality, - an incentive system: equal split between coherent votes, - an appeal system: fund 2 choices only, vote on any choice.",
    "version": 1
  },
  "userdoc": {
    "kind": "user",
    "methods": {},
    "version": 1
  },
  "storageLayout": {
    "storage": [
      {
        "astId": 10107,
        "contract": "src/arbitration/dispute-kits/DisputeKitClassic.sol:DisputeKitClassic",
        "label": "governor",
        "offset": 0,
        "slot": "0",
        "type": "t_address"
      },
      {
        "astId": 10110,
        "contract": "src/arbitration/dispute-kits/DisputeKitClassic.sol:DisputeKitClassic",
        "label": "core",
        "offset": 0,
        "slot": "1",
        "type": "t_contract(KlerosCore)6744"
      },
      {
        "astId": 10280,
        "contract": "src/arbitration/dispute-kits/DisputeKitClassic.sol:DisputeKitClassic",
        "label": "disputes",
        "offset": 0,
        "slot": "2",
        "type": "t_array(t_struct(Dispute)10217_storage)dyn_storage"
      },
      {
        "astId": 10284,
        "contract": "src/arbitration/dispute-kits/DisputeKitClassic.sol:DisputeKitClassic",
        "label": "coreDisputeIDToLocal",
        "offset": 0,
        "slot": "3",
        "type": "t_mapping(t_uint256,t_uint256)"
      }
    ],
    "types": {
      "t_address": {
        "encoding": "inplace",
        "label": "address",
        "numberOfBytes": "20"
      },
      "t_array(t_struct(Dispute)10217_storage)dyn_storage": {
        "base": "t_struct(Dispute)10217_storage",
        "encoding": "dynamic_array",
        "label": "struct DisputeKitClassic.Dispute[]",
        "numberOfBytes": "32"
      },
      "t_array(t_struct(Round)10255_storage)dyn_storage": {
        "base": "t_struct(Round)10255_storage",
        "encoding": "dynamic_array",
        "label": "struct DisputeKitClassic.Round[]",
        "numberOfBytes": "32"
      },
      "t_array(t_struct(Vote)10264_storage)dyn_storage": {
        "base": "t_struct(Vote)10264_storage",
        "encoding": "dynamic_array",
        "label": "struct DisputeKitClassic.Vote[]",
        "numberOfBytes": "32"
      },
      "t_array(t_uint256)dyn_storage": {
        "base": "t_uint256",
        "encoding": "dynamic_array",
        "label": "uint256[]",
        "numberOfBytes": "32"
      },
      "t_bool": {
        "encoding": "inplace",
        "label": "bool",
        "numberOfBytes": "1"
      },
      "t_bytes32": {
        "encoding": "inplace",
        "label": "bytes32",
        "numberOfBytes": "32"
      },
      "t_bytes_storage": {
        "encoding": "bytes",
        "label": "bytes",
        "numberOfBytes": "32"
      },
      "t_contract(KlerosCore)6744": {
        "encoding": "inplace",
        "label": "contract KlerosCore",
        "numberOfBytes": "20"
      },
      "t_mapping(t_address,t_mapping(t_uint256,t_uint256))": {
        "encoding": "mapping",
        "key": "t_address",
        "label": "mapping(address => mapping(uint256 => uint256))",
        "numberOfBytes": "32",
        "value": "t_mapping(t_uint256,t_uint256)"
      },
      "t_mapping(t_uint256,t_bool)": {
        "encoding": "mapping",
        "key": "t_uint256",
        "label": "mapping(uint256 => bool)",
        "numberOfBytes": "32",
        "value": "t_bool"
      },
      "t_mapping(t_uint256,t_uint256)": {
        "encoding": "mapping",
        "key": "t_uint256",
        "label": "mapping(uint256 => uint256)",
        "numberOfBytes": "32",
        "value": "t_uint256"
      },
      "t_struct(Dispute)10217_storage": {
        "encoding": "inplace",
        "label": "struct DisputeKitClassic.Dispute",
        "members": [
          {
            "astId": 10206,
            "contract": "src/arbitration/dispute-kits/DisputeKitClassic.sol:DisputeKitClassic",
            "label": "rounds",
            "offset": 0,
            "slot": "0",
            "type": "t_array(t_struct(Round)10255_storage)dyn_storage"
          },
          {
            "astId": 10208,
            "contract": "src/arbitration/dispute-kits/DisputeKitClassic.sol:DisputeKitClassic",
            "label": "numberOfChoices",
            "offset": 0,
            "slot": "1",
            "type": "t_uint256"
          },
          {
            "astId": 10210,
            "contract": "src/arbitration/dispute-kits/DisputeKitClassic.sol:DisputeKitClassic",
            "label": "jumped",
            "offset": 0,
            "slot": "2",
            "type": "t_bool"
          },
          {
            "astId": 10214,
            "contract": "src/arbitration/dispute-kits/DisputeKitClassic.sol:DisputeKitClassic",
            "label": "coreRoundIDToLocal",
            "offset": 0,
            "slot": "3",
            "type": "t_mapping(t_uint256,t_uint256)"
          },
          {
            "astId": 10216,
            "contract": "src/arbitration/dispute-kits/DisputeKitClassic.sol:DisputeKitClassic",
            "label": "extraData",
            "offset": 0,
            "slot": "4",
            "type": "t_bytes_storage"
          }
        ],
        "numberOfBytes": "160"
      },
      "t_struct(Round)10255_storage": {
        "encoding": "inplace",
        "label": "struct DisputeKitClassic.Round",
        "members": [
          {
            "astId": 10221,
            "contract": "src/arbitration/dispute-kits/DisputeKitClassic.sol:DisputeKitClassic",
            "label": "votes",
            "offset": 0,
            "slot": "0",
            "type": "t_array(t_struct(Vote)10264_storage)dyn_storage"
          },
          {
            "astId": 10223,
            "contract": "src/arbitration/dispute-kits/DisputeKitClassic.sol:DisputeKitClassic",
            "label": "winningChoice",
            "offset": 0,
            "slot": "1",
            "type": "t_uint256"
          },
          {
            "astId": 10227,
            "contract": "src/arbitration/dispute-kits/DisputeKitClassic.sol:DisputeKitClassic",
            "label": "counts",
            "offset": 0,
            "slot": "2",
            "type": "t_mapping(t_uint256,t_uint256)"
          },
          {
            "astId": 10229,
            "contract": "src/arbitration/dispute-kits/DisputeKitClassic.sol:DisputeKitClassic",
            "label": "tied",
            "offset": 0,
            "slot": "3",
            "type": "t_bool"
          },
          {
            "astId": 10231,
            "contract": "src/arbitration/dispute-kits/DisputeKitClassic.sol:DisputeKitClassic",
            "label": "totalVoted",
            "offset": 0,
            "slot": "4",
            "type": "t_uint256"
          },
          {
            "astId": 10233,
            "contract": "src/arbitration/dispute-kits/DisputeKitClassic.sol:DisputeKitClassic",
            "label": "totalCommitted",
            "offset": 0,
            "slot": "5",
            "type": "t_uint256"
          },
          {
            "astId": 10237,
            "contract": "src/arbitration/dispute-kits/DisputeKitClassic.sol:DisputeKitClassic",
            "label": "paidFees",
            "offset": 0,
            "slot": "6",
            "type": "t_mapping(t_uint256,t_uint256)"
          },
          {
            "astId": 10241,
            "contract": "src/arbitration/dispute-kits/DisputeKitClassic.sol:DisputeKitClassic",
            "label": "hasPaid",
            "offset": 0,
            "slot": "7",
            "type": "t_mapping(t_uint256,t_bool)"
          },
          {
            "astId": 10247,
            "contract": "src/arbitration/dispute-kits/DisputeKitClassic.sol:DisputeKitClassic",
            "label": "contributions",
            "offset": 0,
            "slot": "8",
            "type": "t_mapping(t_address,t_mapping(t_uint256,t_uint256))"
          },
          {
            "astId": 10249,
            "contract": "src/arbitration/dispute-kits/DisputeKitClassic.sol:DisputeKitClassic",
            "label": "feeRewards",
            "offset": 0,
            "slot": "9",
            "type": "t_uint256"
          },
          {
            "astId": 10252,
            "contract": "src/arbitration/dispute-kits/DisputeKitClassic.sol:DisputeKitClassic",
            "label": "fundedChoices",
            "offset": 0,
            "slot": "10",
            "type": "t_array(t_uint256)dyn_storage"
          },
          {
            "astId": 10254,
            "contract": "src/arbitration/dispute-kits/DisputeKitClassic.sol:DisputeKitClassic",
            "label": "nbVotes",
            "offset": 0,
            "slot": "11",
            "type": "t_uint256"
          }
        ],
        "numberOfBytes": "384"
      },
      "t_struct(Vote)10264_storage": {
        "encoding": "inplace",
        "label": "struct DisputeKitClassic.Vote",
        "members": [
          {
            "astId": 10257,
            "contract": "src/arbitration/dispute-kits/DisputeKitClassic.sol:DisputeKitClassic",
            "label": "account",
            "offset": 0,
            "slot": "0",
            "type": "t_address"
          },
          {
            "astId": 10259,
            "contract": "src/arbitration/dispute-kits/DisputeKitClassic.sol:DisputeKitClassic",
            "label": "commit",
            "offset": 0,
            "slot": "1",
            "type": "t_bytes32"
          },
          {
            "astId": 10261,
            "contract": "src/arbitration/dispute-kits/DisputeKitClassic.sol:DisputeKitClassic",
            "label": "choice",
            "offset": 0,
            "slot": "2",
            "type": "t_uint256"
          },
          {
            "astId": 10263,
            "contract": "src/arbitration/dispute-kits/DisputeKitClassic.sol:DisputeKitClassic",
            "label": "voted",
            "offset": 0,
            "slot": "3",
            "type": "t_bool"
          }
        ],
        "numberOfBytes": "128"
      },
      "t_uint256": {
        "encoding": "inplace",
        "label": "uint256",
        "numberOfBytes": "32"
      }
    }
  }
}