{
  "address": "0xEE08d6427F4f23E602C4114B8F2B7f6d6D3F4206",
  "abi": [
    {
      "inputs": [],
      "stateMutability": "nonpayable",
      "type": "constructor"
    },
    {
      "inputs": [],
      "name": "AlreadyInitialized",
      "type": "error"
    },
    {
      "inputs": [],
      "name": "AppealFeesNotEnough",
      "type": "error"
    },
    {
      "inputs": [],
      "name": "AppealPeriodNotPassed",
      "type": "error"
    },
    {
      "inputs": [],
      "name": "ArbitrationFeesNotEnough",
      "type": "error"
    },
    {
      "inputs": [],
      "name": "ArraysLengthMismatch",
      "type": "error"
    },
    {
      "inputs": [],
      "name": "CannotDisableRootDKInGeneral",
      "type": "error"
    },
    {
      "inputs": [],
      "name": "CommitPeriodNotPassed",
      "type": "error"
    },
    {
      "inputs": [],
      "name": "DepthLevelMax",
      "type": "error"
    },
    {
      "inputs": [],
      "name": "DisputeKitNotSupportedByCourt",
      "type": "error"
    },
    {
      "inputs": [],
      "name": "DisputeKitOnly",
      "type": "error"
    },
    {
      "inputs": [],
      "name": "DisputeNotAppealable",
      "type": "error"
    },
    {
      "inputs": [],
      "name": "DisputePeriodIsFinal",
      "type": "error"
    },
    {
      "inputs": [],
      "name": "DisputeStillDrawing",
      "type": "error"
    },
    {
      "inputs": [],
      "name": "EvidenceNotPassedAndNotAppeal",
      "type": "error"
    },
    {
      "inputs": [],
      "name": "FailedDelegateCall",
      "type": "error"
    },
    {
      "inputs": [],
      "name": "GovernorOnly",
      "type": "error"
    },
    {
      "inputs": [],
      "name": "InvalidDisputKitParent",
      "type": "error"
    },
    {
      "inputs": [],
      "name": "InvalidForkingCourtAsParent",
      "type": "error"
    },
    {
      "inputs": [
        {
          "internalType": "address",
          "name": "implementation",
          "type": "address"
        }
      ],
      "name": "InvalidImplementation",
      "type": "error"
    },
    {
      "inputs": [],
      "name": "MinStakeLowerThanParentCourt",
      "type": "error"
    },
    {
      "inputs": [],
      "name": "NotEvidencePeriod",
      "type": "error"
    },
    {
      "inputs": [],
      "name": "NotExecutionPeriod",
      "type": "error"
    },
    {
      "inputs": [],
      "name": "NotInitializing",
      "type": "error"
    },
    {
      "inputs": [],
      "name": "RulingAlreadyExecuted",
      "type": "error"
    },
    {
      "inputs": [],
      "name": "StakingFailed",
      "type": "error"
    },
    {
      "inputs": [],
      "name": "TokenNotAccepted",
      "type": "error"
    },
    {
      "inputs": [],
      "name": "TransferFailed",
      "type": "error"
    },
    {
      "inputs": [],
      "name": "UUPSUnauthorizedCallContext",
      "type": "error"
    },
    {
      "inputs": [
        {
          "internalType": "bytes32",
          "name": "slot",
          "type": "bytes32"
        }
      ],
      "name": "UUPSUnsupportedProxiableUUID",
      "type": "error"
    },
    {
      "inputs": [],
      "name": "UnsuccessfulCall",
      "type": "error"
    },
    {
      "inputs": [],
      "name": "UnsupportedDisputeKit",
      "type": "error"
    },
    {
      "inputs": [],
      "name": "VotePeriodNotPassed",
      "type": "error"
    },
    {
      "inputs": [],
      "name": "WrongCaller",
      "type": "error"
    },
    {
      "inputs": [],
      "name": "WrongDisputeKitIndex",
      "type": "error"
    },
    {
      "anonymous": false,
      "inputs": [
        {
          "indexed": true,
          "internalType": "contract IERC20",
          "name": "_token",
          "type": "address"
        },
        {
          "indexed": true,
          "internalType": "bool",
          "name": "_accepted",
          "type": "bool"
        }
      ],
      "name": "AcceptedFeeToken",
      "type": "event"
    },
    {
      "anonymous": false,
      "inputs": [
        {
          "indexed": true,
          "internalType": "uint256",
          "name": "_disputeID",
          "type": "uint256"
        },
        {
          "indexed": true,
          "internalType": "contract IArbitrableV2",
          "name": "_arbitrable",
          "type": "address"
        }
      ],
      "name": "AppealDecision",
      "type": "event"
    },
    {
      "anonymous": false,
      "inputs": [
        {
          "indexed": true,
          "internalType": "uint256",
          "name": "_disputeID",
          "type": "uint256"
        },
        {
          "indexed": true,
          "internalType": "contract IArbitrableV2",
          "name": "_arbitrable",
          "type": "address"
        }
      ],
      "name": "AppealPossible",
      "type": "event"
    },
    {
      "anonymous": false,
      "inputs": [
        {
          "indexed": true,
          "internalType": "uint256",
          "name": "_courtID",
          "type": "uint256"
        },
        {
          "indexed": true,
          "internalType": "uint96",
          "name": "_parent",
          "type": "uint96"
        },
        {
          "indexed": false,
          "internalType": "bool",
          "name": "_hiddenVotes",
          "type": "bool"
        },
        {
          "indexed": false,
          "internalType": "uint256",
          "name": "_minStake",
          "type": "uint256"
        },
        {
          "indexed": false,
          "internalType": "uint256",
          "name": "_alpha",
          "type": "uint256"
        },
        {
          "indexed": false,
          "internalType": "uint256",
          "name": "_feeForJuror",
          "type": "uint256"
        },
        {
          "indexed": false,
          "internalType": "uint256",
          "name": "_jurorsForCourtJump",
          "type": "uint256"
        },
        {
          "indexed": false,
          "internalType": "uint256[4]",
          "name": "_timesPerPeriod",
          "type": "uint256[4]"
        },
        {
          "indexed": false,
          "internalType": "uint256[]",
          "name": "_supportedDisputeKits",
          "type": "uint256[]"
        }
      ],
      "name": "CourtCreated",
      "type": "event"
    },
    {
      "anonymous": false,
      "inputs": [
        {
          "indexed": true,
          "internalType": "uint256",
          "name": "_disputeID",
          "type": "uint256"
        },
        {
          "indexed": true,
          "internalType": "uint256",
          "name": "_roundID",
          "type": "uint256"
        },
        {
          "indexed": true,
          "internalType": "uint96",
          "name": "_fromCourtID",
          "type": "uint96"
        },
        {
          "indexed": false,
          "internalType": "uint96",
          "name": "_toCourtID",
          "type": "uint96"
        }
      ],
      "name": "CourtJump",
      "type": "event"
    },
    {
      "anonymous": false,
      "inputs": [
        {
          "indexed": true,
          "internalType": "uint96",
          "name": "_courtID",
          "type": "uint96"
        },
        {
          "indexed": false,
          "internalType": "bool",
          "name": "_hiddenVotes",
          "type": "bool"
        },
        {
          "indexed": false,
          "internalType": "uint256",
          "name": "_minStake",
          "type": "uint256"
        },
        {
          "indexed": false,
          "internalType": "uint256",
          "name": "_alpha",
          "type": "uint256"
        },
        {
          "indexed": false,
          "internalType": "uint256",
          "name": "_feeForJuror",
          "type": "uint256"
        },
        {
          "indexed": false,
          "internalType": "uint256",
          "name": "_jurorsForCourtJump",
          "type": "uint256"
        },
        {
          "indexed": false,
          "internalType": "uint256[4]",
          "name": "_timesPerPeriod",
          "type": "uint256[4]"
        }
      ],
      "name": "CourtModified",
      "type": "event"
    },
    {
      "anonymous": false,
      "inputs": [
        {
          "indexed": true,
          "internalType": "uint256",
          "name": "_disputeID",
          "type": "uint256"
        },
        {
          "indexed": true,
          "internalType": "contract IArbitrableV2",
          "name": "_arbitrable",
          "type": "address"
        }
      ],
      "name": "DisputeCreation",
      "type": "event"
    },
    {
      "anonymous": false,
      "inputs": [
        {
          "indexed": true,
          "internalType": "uint256",
          "name": "_disputeKitID",
          "type": "uint256"
        },
        {
          "indexed": true,
          "internalType": "contract IDisputeKit",
          "name": "_disputeKitAddress",
          "type": "address"
        },
        {
          "indexed": true,
          "internalType": "uint256",
          "name": "_parent",
          "type": "uint256"
        }
      ],
      "name": "DisputeKitCreated",
      "type": "event"
    },
    {
      "anonymous": false,
      "inputs": [
        {
          "indexed": true,
          "internalType": "uint96",
          "name": "_courtID",
          "type": "uint96"
        },
        {
          "indexed": true,
          "internalType": "uint256",
          "name": "_disputeKitID",
          "type": "uint256"
        },
        {
          "indexed": true,
          "internalType": "bool",
          "name": "_enable",
          "type": "bool"
        }
      ],
      "name": "DisputeKitEnabled",
      "type": "event"
    },
    {
      "anonymous": false,
      "inputs": [
        {
          "indexed": true,
          "internalType": "uint256",
          "name": "_disputeID",
          "type": "uint256"
        },
        {
          "indexed": true,
          "internalType": "uint256",
          "name": "_roundID",
          "type": "uint256"
        },
        {
          "indexed": true,
          "internalType": "uint256",
          "name": "_fromDisputeKitID",
          "type": "uint256"
        },
        {
          "indexed": false,
          "internalType": "uint256",
          "name": "_toDisputeKitID",
          "type": "uint256"
        }
      ],
      "name": "DisputeKitJump",
      "type": "event"
    },
    {
      "anonymous": false,
      "inputs": [
        {
          "indexed": true,
          "internalType": "address",
          "name": "_address",
          "type": "address"
        },
        {
          "indexed": true,
          "internalType": "uint256",
          "name": "_disputeID",
          "type": "uint256"
        },
        {
          "indexed": false,
          "internalType": "uint256",
          "name": "_roundID",
          "type": "uint256"
        },
        {
          "indexed": false,
          "internalType": "uint256",
          "name": "_voteID",
          "type": "uint256"
        }
      ],
      "name": "Draw",
      "type": "event"
    },
    {
      "anonymous": false,
      "inputs": [
        {
          "indexed": false,
          "internalType": "uint64",
          "name": "version",
          "type": "uint64"
        }
      ],
      "name": "Initialized",
      "type": "event"
    },
    {
      "anonymous": false,
      "inputs": [
        {
          "indexed": true,
          "internalType": "uint256",
          "name": "_disputeID",
          "type": "uint256"
        },
        {
          "indexed": true,
          "internalType": "uint256",
          "name": "_roundID",
          "type": "uint256"
        },
        {
          "indexed": false,
          "internalType": "uint256",
          "name": "_pnkAmount",
          "type": "uint256"
        },
        {
          "indexed": false,
          "internalType": "uint256",
          "name": "_feeAmount",
          "type": "uint256"
        },
        {
          "indexed": false,
          "internalType": "contract IERC20",
          "name": "_feeToken",
          "type": "address"
        }
      ],
      "name": "LeftoverRewardSent",
      "type": "event"
    },
    {
      "anonymous": false,
      "inputs": [
        {
          "indexed": true,
          "internalType": "contract IERC20",
          "name": "_feeToken",
          "type": "address"
        },
        {
          "indexed": false,
          "internalType": "uint64",
          "name": "_rateInEth",
          "type": "uint64"
        },
        {
          "indexed": false,
          "internalType": "uint8",
          "name": "_rateDecimals",
          "type": "uint8"
        }
      ],
      "name": "NewCurrencyRate",
      "type": "event"
    },
    {
      "anonymous": false,
      "inputs": [
        {
          "indexed": true,
          "internalType": "uint256",
          "name": "_disputeID",
          "type": "uint256"
        },
        {
          "indexed": false,
          "internalType": "enum KlerosCore.Period",
          "name": "_period",
          "type": "uint8"
        }
      ],
      "name": "NewPeriod",
      "type": "event"
    },
    {
      "anonymous": false,
      "inputs": [
        {
          "indexed": true,
          "internalType": "contract IArbitrableV2",
          "name": "_arbitrable",
          "type": "address"
        },
        {
          "indexed": true,
          "internalType": "uint256",
          "name": "_disputeID",
          "type": "uint256"
        },
        {
          "indexed": false,
          "internalType": "uint256",
          "name": "_ruling",
          "type": "uint256"
        }
      ],
      "name": "Ruling",
      "type": "event"
    },
    {
      "anonymous": false,
      "inputs": [
        {
          "indexed": true,
          "internalType": "address",
          "name": "_address",
          "type": "address"
        },
        {
          "indexed": false,
          "internalType": "uint256",
          "name": "_courtID",
          "type": "uint256"
        },
        {
          "indexed": false,
          "internalType": "uint256",
          "name": "_amount",
          "type": "uint256"
        }
      ],
      "name": "StakeDelayed",
      "type": "event"
    },
    {
      "anonymous": false,
      "inputs": [
        {
          "indexed": true,
          "internalType": "address",
          "name": "_address",
          "type": "address"
        },
        {
          "indexed": false,
          "internalType": "uint256",
          "name": "_courtID",
          "type": "uint256"
        },
        {
          "indexed": false,
          "internalType": "uint256",
          "name": "_amount",
          "type": "uint256"
        }
      ],
      "name": "StakeSet",
      "type": "event"
    },
    {
      "anonymous": false,
      "inputs": [
        {
          "indexed": true,
          "internalType": "address",
          "name": "_account",
          "type": "address"
        },
        {
          "indexed": true,
          "internalType": "uint256",
          "name": "_disputeID",
          "type": "uint256"
        },
        {
          "indexed": true,
          "internalType": "uint256",
          "name": "_roundID",
          "type": "uint256"
        },
        {
          "indexed": false,
          "internalType": "uint256",
          "name": "_degreeOfCoherency",
          "type": "uint256"
        },
        {
          "indexed": false,
          "internalType": "int256",
          "name": "_pnkAmount",
          "type": "int256"
        },
        {
          "indexed": false,
          "internalType": "int256",
          "name": "_feeAmount",
          "type": "int256"
        },
        {
          "indexed": false,
          "internalType": "contract IERC20",
          "name": "_feeToken",
          "type": "address"
        }
      ],
      "name": "TokenAndETHShift",
      "type": "event"
    },
    {
      "anonymous": false,
      "inputs": [
        {
          "indexed": true,
          "internalType": "address",
          "name": "newImplementation",
          "type": "address"
        }
      ],
      "name": "Upgraded",
      "type": "event"
    },
    {
      "inputs": [
        {
          "internalType": "contract IDisputeKit",
          "name": "_disputeKitAddress",
          "type": "address"
        },
        {
          "internalType": "uint256",
          "name": "_parent",
          "type": "uint256"
        }
      ],
      "name": "addNewDisputeKit",
      "outputs": [],
      "stateMutability": "nonpayable",
      "type": "function"
    },
    {
      "inputs": [
        {
          "internalType": "uint256",
          "name": "_disputeID",
          "type": "uint256"
        },
        {
          "internalType": "uint256",
          "name": "_numberOfChoices",
          "type": "uint256"
        },
        {
          "internalType": "bytes",
          "name": "_extraData",
          "type": "bytes"
        }
      ],
      "name": "appeal",
      "outputs": [],
      "stateMutability": "payable",
      "type": "function"
    },
    {
      "inputs": [
        {
          "internalType": "uint256",
          "name": "_disputeID",
          "type": "uint256"
        }
      ],
      "name": "appealCost",
      "outputs": [
        {
          "internalType": "uint256",
          "name": "cost",
          "type": "uint256"
        }
      ],
      "stateMutability": "view",
      "type": "function"
    },
    {
      "inputs": [
        {
          "internalType": "uint256",
          "name": "_disputeID",
          "type": "uint256"
        }
      ],
      "name": "appealPeriod",
      "outputs": [
        {
          "internalType": "uint256",
          "name": "start",
          "type": "uint256"
        },
        {
          "internalType": "uint256",
          "name": "end",
          "type": "uint256"
        }
      ],
      "stateMutability": "view",
      "type": "function"
    },
    {
      "inputs": [
        {
          "internalType": "bytes",
          "name": "_extraData",
          "type": "bytes"
        },
        {
          "internalType": "contract IERC20",
          "name": "_feeToken",
          "type": "address"
        }
      ],
      "name": "arbitrationCost",
      "outputs": [
        {
          "internalType": "uint256",
          "name": "cost",
          "type": "uint256"
        }
      ],
      "stateMutability": "view",
      "type": "function"
    },
    {
      "inputs": [
        {
          "internalType": "bytes",
          "name": "_extraData",
          "type": "bytes"
        }
      ],
      "name": "arbitrationCost",
      "outputs": [
        {
          "internalType": "uint256",
          "name": "cost",
          "type": "uint256"
        }
      ],
      "stateMutability": "view",
      "type": "function"
    },
    {
      "inputs": [
        {
          "internalType": "contract IERC20",
          "name": "_feeToken",
          "type": "address"
        },
        {
          "internalType": "bool",
          "name": "_accepted",
          "type": "bool"
        }
      ],
      "name": "changeAcceptedFeeTokens",
      "outputs": [],
      "stateMutability": "nonpayable",
      "type": "function"
    },
    {
      "inputs": [
        {
          "internalType": "uint96",
          "name": "_courtID",
          "type": "uint96"
        },
        {
          "internalType": "bool",
          "name": "_hiddenVotes",
          "type": "bool"
        },
        {
          "internalType": "uint256",
          "name": "_minStake",
          "type": "uint256"
        },
        {
          "internalType": "uint256",
          "name": "_alpha",
          "type": "uint256"
        },
        {
          "internalType": "uint256",
          "name": "_feeForJuror",
          "type": "uint256"
        },
        {
          "internalType": "uint256",
          "name": "_jurorsForCourtJump",
          "type": "uint256"
        },
        {
          "internalType": "uint256[4]",
          "name": "_timesPerPeriod",
          "type": "uint256[4]"
        }
      ],
      "name": "changeCourtParameters",
      "outputs": [],
      "stateMutability": "nonpayable",
      "type": "function"
    },
    {
      "inputs": [
        {
          "internalType": "contract IERC20",
          "name": "_feeToken",
          "type": "address"
        },
        {
          "internalType": "uint64",
          "name": "_rateInEth",
          "type": "uint64"
        },
        {
          "internalType": "uint8",
          "name": "_rateDecimals",
          "type": "uint8"
        }
      ],
      "name": "changeCurrencyRates",
      "outputs": [],
      "stateMutability": "nonpayable",
      "type": "function"
    },
    {
      "inputs": [
        {
          "internalType": "address payable",
          "name": "_governor",
          "type": "address"
        }
      ],
      "name": "changeGovernor",
      "outputs": [],
      "stateMutability": "nonpayable",
      "type": "function"
    },
    {
      "inputs": [
        {
          "internalType": "address",
          "name": "_jurorProsecutionModule",
          "type": "address"
        }
      ],
      "name": "changeJurorProsecutionModule",
      "outputs": [],
      "stateMutability": "nonpayable",
      "type": "function"
    },
    {
      "inputs": [
        {
          "internalType": "contract IERC20",
          "name": "_pinakion",
          "type": "address"
        }
      ],
      "name": "changePinakion",
      "outputs": [],
      "stateMutability": "nonpayable",
      "type": "function"
    },
    {
      "inputs": [
        {
          "internalType": "contract ISortitionModule",
          "name": "_sortitionModule",
          "type": "address"
        }
      ],
      "name": "changeSortitionModule",
      "outputs": [],
      "stateMutability": "nonpayable",
      "type": "function"
    },
    {
      "inputs": [
        {
          "internalType": "contract IERC20",
          "name": "_toToken",
          "type": "address"
        },
        {
          "internalType": "uint256",
          "name": "_amountInEth",
          "type": "uint256"
        }
      ],
      "name": "convertEthToTokenAmount",
      "outputs": [
        {
          "internalType": "uint256",
          "name": "",
          "type": "uint256"
        }
      ],
      "stateMutability": "view",
      "type": "function"
    },
    {
      "inputs": [
        {
          "internalType": "uint256",
          "name": "",
          "type": "uint256"
        }
      ],
      "name": "courts",
      "outputs": [
        {
          "internalType": "uint96",
          "name": "parent",
          "type": "uint96"
        },
        {
          "internalType": "bool",
          "name": "hiddenVotes",
          "type": "bool"
        },
        {
          "internalType": "uint256",
          "name": "minStake",
          "type": "uint256"
        },
        {
          "internalType": "uint256",
          "name": "alpha",
          "type": "uint256"
        },
        {
          "internalType": "uint256",
          "name": "feeForJuror",
          "type": "uint256"
        },
        {
          "internalType": "uint256",
          "name": "jurorsForCourtJump",
          "type": "uint256"
        },
        {
          "internalType": "bool",
          "name": "disabled",
          "type": "bool"
        }
      ],
      "stateMutability": "view",
      "type": "function"
    },
    {
      "inputs": [
        {
          "internalType": "uint96",
          "name": "_parent",
          "type": "uint96"
        },
        {
          "internalType": "bool",
          "name": "_hiddenVotes",
          "type": "bool"
        },
        {
          "internalType": "uint256",
          "name": "_minStake",
          "type": "uint256"
        },
        {
          "internalType": "uint256",
          "name": "_alpha",
          "type": "uint256"
        },
        {
          "internalType": "uint256",
          "name": "_feeForJuror",
          "type": "uint256"
        },
        {
          "internalType": "uint256",
          "name": "_jurorsForCourtJump",
          "type": "uint256"
        },
        {
          "internalType": "uint256[4]",
          "name": "_timesPerPeriod",
          "type": "uint256[4]"
        },
        {
          "internalType": "bytes",
          "name": "_sortitionExtraData",
          "type": "bytes"
        },
        {
          "internalType": "uint256[]",
          "name": "_supportedDisputeKits",
          "type": "uint256[]"
        }
      ],
      "name": "createCourt",
      "outputs": [],
      "stateMutability": "nonpayable",
      "type": "function"
    },
    {
      "inputs": [
        {
          "internalType": "uint256",
          "name": "_numberOfChoices",
          "type": "uint256"
        },
        {
          "internalType": "bytes",
          "name": "_extraData",
          "type": "bytes"
        }
      ],
      "name": "createDispute",
      "outputs": [
        {
          "internalType": "uint256",
          "name": "disputeID",
          "type": "uint256"
        }
      ],
      "stateMutability": "payable",
      "type": "function"
    },
    {
      "inputs": [
        {
          "internalType": "uint256",
          "name": "_numberOfChoices",
          "type": "uint256"
        },
        {
          "internalType": "bytes",
          "name": "_extraData",
          "type": "bytes"
        },
        {
          "internalType": "contract IERC20",
          "name": "_feeToken",
          "type": "address"
        },
        {
          "internalType": "uint256",
          "name": "_feeAmount",
          "type": "uint256"
        }
      ],
      "name": "createDispute",
      "outputs": [
        {
          "internalType": "uint256",
          "name": "disputeID",
          "type": "uint256"
        }
      ],
      "stateMutability": "nonpayable",
      "type": "function"
    },
    {
      "inputs": [
        {
          "internalType": "contract IERC20",
          "name": "",
          "type": "address"
        }
      ],
      "name": "currencyRates",
      "outputs": [
        {
          "internalType": "bool",
          "name": "feePaymentAccepted",
          "type": "bool"
        },
        {
          "internalType": "uint64",
          "name": "rateInEth",
          "type": "uint64"
        },
        {
          "internalType": "uint8",
          "name": "rateDecimals",
          "type": "uint8"
        }
      ],
      "stateMutability": "view",
      "type": "function"
    },
    {
      "inputs": [
        {
          "internalType": "uint256",
          "name": "_disputeID",
          "type": "uint256"
        }
      ],
      "name": "currentRuling",
      "outputs": [
        {
          "internalType": "uint256",
          "name": "ruling",
          "type": "uint256"
        },
        {
          "internalType": "bool",
          "name": "tied",
          "type": "bool"
        },
        {
          "internalType": "bool",
          "name": "overridden",
          "type": "bool"
        }
      ],
      "stateMutability": "view",
      "type": "function"
    },
    {
      "inputs": [
        {
          "internalType": "uint256",
          "name": "",
          "type": "uint256"
        }
      ],
      "name": "disputeKitNodes",
      "outputs": [
        {
          "internalType": "uint256",
          "name": "parent",
          "type": "uint256"
        },
        {
          "internalType": "contract IDisputeKit",
          "name": "disputeKit",
          "type": "address"
        },
        {
          "internalType": "uint256",
          "name": "depthLevel",
          "type": "uint256"
        },
        {
          "internalType": "bool",
          "name": "disabled",
          "type": "bool"
        }
      ],
      "stateMutability": "view",
      "type": "function"
    },
    {
      "inputs": [
        {
          "internalType": "uint256",
          "name": "",
          "type": "uint256"
        }
      ],
      "name": "disputes",
      "outputs": [
        {
          "internalType": "uint96",
          "name": "courtID",
          "type": "uint96"
        },
        {
          "internalType": "contract IArbitrableV2",
          "name": "arbitrated",
          "type": "address"
        },
        {
          "internalType": "enum KlerosCore.Period",
          "name": "period",
          "type": "uint8"
        },
        {
          "internalType": "bool",
          "name": "ruled",
          "type": "bool"
        },
        {
          "internalType": "uint256",
          "name": "lastPeriodChange",
          "type": "uint256"
        }
      ],
      "stateMutability": "view",
      "type": "function"
    },
    {
      "inputs": [
        {
          "internalType": "uint256",
          "name": "_disputeID",
          "type": "uint256"
        },
        {
          "internalType": "uint256",
          "name": "_iterations",
          "type": "uint256"
        }
      ],
      "name": "draw",
      "outputs": [],
      "stateMutability": "nonpayable",
      "type": "function"
    },
    {
      "inputs": [
        {
          "internalType": "uint96",
          "name": "_courtID",
          "type": "uint96"
        },
        {
          "internalType": "uint256[]",
          "name": "_disputeKitIDs",
          "type": "uint256[]"
        },
        {
          "internalType": "bool",
          "name": "_enable",
          "type": "bool"
        }
      ],
      "name": "enableDisputeKits",
      "outputs": [],
      "stateMutability": "nonpayable",
      "type": "function"
    },
    {
      "inputs": [
        {
          "internalType": "uint256",
          "name": "_disputeID",
          "type": "uint256"
        },
        {
          "internalType": "uint256",
          "name": "_round",
          "type": "uint256"
        },
        {
          "internalType": "uint256",
          "name": "_iterations",
          "type": "uint256"
        }
      ],
      "name": "execute",
      "outputs": [],
      "stateMutability": "nonpayable",
      "type": "function"
    },
    {
      "inputs": [
        {
          "internalType": "address",
          "name": "_destination",
          "type": "address"
        },
        {
          "internalType": "uint256",
          "name": "_amount",
          "type": "uint256"
        },
        {
          "internalType": "bytes",
          "name": "_data",
          "type": "bytes"
        }
      ],
      "name": "executeGovernorProposal",
      "outputs": [],
      "stateMutability": "nonpayable",
      "type": "function"
    },
    {
      "inputs": [
        {
          "internalType": "uint256",
          "name": "_disputeID",
          "type": "uint256"
        }
      ],
      "name": "executeRuling",
      "outputs": [],
      "stateMutability": "nonpayable",
      "type": "function"
    },
    {
      "inputs": [
        {
          "internalType": "uint256",
          "name": "_disputeKitID",
          "type": "uint256"
        }
      ],
      "name": "getDisputeKit",
      "outputs": [
        {
          "internalType": "contract IDisputeKit",
          "name": "",
          "type": "address"
        }
      ],
      "stateMutability": "view",
      "type": "function"
    },
    {
      "inputs": [
        {
          "internalType": "uint256",
          "name": "_disputeKitID",
          "type": "uint256"
        }
      ],
      "name": "getDisputeKitChildren",
      "outputs": [
        {
          "internalType": "uint256[]",
          "name": "",
          "type": "uint256[]"
        }
      ],
      "stateMutability": "view",
      "type": "function"
    },
    {
      "inputs": [],
      "name": "getDisputeKitNodesLength",
      "outputs": [
        {
          "internalType": "uint256",
          "name": "",
          "type": "uint256"
        }
      ],
      "stateMutability": "view",
      "type": "function"
    },
    {
      "inputs": [
        {
          "internalType": "address",
          "name": "_juror",
          "type": "address"
        },
        {
          "internalType": "uint96",
          "name": "_courtID",
          "type": "uint96"
        }
      ],
      "name": "getJurorBalance",
      "outputs": [
        {
          "internalType": "uint256",
          "name": "totalStaked",
          "type": "uint256"
        },
        {
          "internalType": "uint256",
          "name": "totalLocked",
          "type": "uint256"
        },
        {
          "internalType": "uint256",
          "name": "stakedInCourt",
          "type": "uint256"
        },
        {
          "internalType": "uint256",
          "name": "nbCourts",
          "type": "uint256"
        }
      ],
      "stateMutability": "view",
      "type": "function"
    },
    {
      "inputs": [
        {
          "internalType": "address",
          "name": "_juror",
          "type": "address"
        }
      ],
      "name": "getJurorCourtIDs",
      "outputs": [
        {
          "internalType": "uint96[]",
          "name": "",
          "type": "uint96[]"
        }
      ],
      "stateMutability": "view",
      "type": "function"
    },
    {
      "inputs": [
        {
          "internalType": "uint256",
          "name": "_disputeID",
          "type": "uint256"
        }
      ],
      "name": "getNumberOfRounds",
      "outputs": [
        {
          "internalType": "uint256",
          "name": "",
          "type": "uint256"
        }
      ],
      "stateMutability": "view",
      "type": "function"
    },
    {
      "inputs": [
        {
          "internalType": "uint256",
          "name": "_disputeID",
          "type": "uint256"
        }
      ],
      "name": "getNumberOfVotes",
      "outputs": [
        {
          "internalType": "uint256",
          "name": "",
          "type": "uint256"
        }
      ],
      "stateMutability": "view",
      "type": "function"
    },
    {
      "inputs": [
        {
          "internalType": "uint256",
          "name": "_disputeID",
          "type": "uint256"
        },
        {
          "internalType": "uint256",
          "name": "_round",
          "type": "uint256"
        }
      ],
      "name": "getRoundInfo",
      "outputs": [
        {
          "components": [
            {
              "internalType": "uint256",
              "name": "disputeKitID",
              "type": "uint256"
            },
            {
              "internalType": "uint256",
              "name": "pnkAtStakePerJuror",
              "type": "uint256"
            },
            {
              "internalType": "uint256",
              "name": "totalFeesForJurors",
              "type": "uint256"
            },
            {
              "internalType": "uint256",
              "name": "nbVotes",
              "type": "uint256"
            },
            {
              "internalType": "uint256",
              "name": "repartitions",
              "type": "uint256"
            },
            {
              "internalType": "uint256",
              "name": "pnkPenalties",
              "type": "uint256"
            },
            {
              "internalType": "address[]",
              "name": "drawnJurors",
              "type": "address[]"
            },
            {
              "internalType": "uint256",
              "name": "sumFeeRewardPaid",
              "type": "uint256"
            },
            {
              "internalType": "uint256",
              "name": "sumPnkRewardPaid",
              "type": "uint256"
            },
            {
              "internalType": "contract IERC20",
              "name": "feeToken",
              "type": "address"
            },
            {
              "internalType": "uint256",
              "name": "drawIterations",
              "type": "uint256"
            }
          ],
          "internalType": "struct KlerosCore.Round",
          "name": "",
          "type": "tuple"
        }
      ],
      "stateMutability": "view",
      "type": "function"
    },
    {
      "inputs": [
        {
          "internalType": "uint96",
          "name": "_courtID",
          "type": "uint96"
        }
      ],
      "name": "getTimesPerPeriod",
      "outputs": [
        {
          "internalType": "uint256[4]",
          "name": "timesPerPeriod",
          "type": "uint256[4]"
        }
      ],
      "stateMutability": "view",
      "type": "function"
    },
    {
      "inputs": [],
      "name": "governor",
      "outputs": [
        {
          "internalType": "address",
          "name": "",
          "type": "address"
        }
      ],
      "stateMutability": "view",
      "type": "function"
    },
    {
      "inputs": [
        {
          "internalType": "address",
          "name": "_governor",
          "type": "address"
        },
        {
          "internalType": "contract IERC20",
          "name": "_pinakion",
          "type": "address"
        },
        {
          "internalType": "address",
          "name": "_jurorProsecutionModule",
          "type": "address"
        },
        {
          "internalType": "contract IDisputeKit",
          "name": "_disputeKit",
          "type": "address"
        },
        {
          "internalType": "bool",
          "name": "_hiddenVotes",
          "type": "bool"
        },
        {
          "internalType": "uint256[4]",
          "name": "_courtParameters",
          "type": "uint256[4]"
        },
        {
          "internalType": "uint256[4]",
          "name": "_timesPerPeriod",
          "type": "uint256[4]"
        },
        {
          "internalType": "bytes",
          "name": "_sortitionExtraData",
          "type": "bytes"
        },
        {
          "internalType": "contract ISortitionModule",
          "name": "_sortitionModuleAddress",
          "type": "address"
        }
      ],
      "name": "initialize",
      "outputs": [],
      "stateMutability": "nonpayable",
      "type": "function"
    },
    {
      "inputs": [
        {
          "internalType": "uint256",
          "name": "_disputeID",
          "type": "uint256"
        }
      ],
      "name": "isDisputeKitJumping",
      "outputs": [
        {
          "internalType": "bool",
          "name": "",
          "type": "bool"
        }
      ],
      "stateMutability": "view",
      "type": "function"
    },
    {
      "inputs": [
        {
          "internalType": "uint96",
          "name": "_courtID",
          "type": "uint96"
        },
        {
          "internalType": "uint256",
          "name": "_disputeKitID",
          "type": "uint256"
        }
      ],
      "name": "isSupported",
      "outputs": [
        {
          "internalType": "bool",
          "name": "",
          "type": "bool"
        }
      ],
      "stateMutability": "view",
      "type": "function"
    },
    {
      "inputs": [],
      "name": "jurorProsecutionModule",
      "outputs": [
        {
          "internalType": "address",
          "name": "",
          "type": "address"
        }
      ],
      "stateMutability": "view",
      "type": "function"
    },
    {
      "inputs": [
        {
          "internalType": "uint256",
          "name": "_disputeID",
          "type": "uint256"
        }
      ],
      "name": "passPeriod",
      "outputs": [],
      "stateMutability": "nonpayable",
      "type": "function"
    },
    {
      "inputs": [],
      "name": "pinakion",
      "outputs": [
        {
          "internalType": "contract IERC20",
          "name": "",
          "type": "address"
        }
      ],
      "stateMutability": "view",
      "type": "function"
    },
    {
      "inputs": [],
      "name": "proxiableUUID",
      "outputs": [
        {
          "internalType": "bytes32",
          "name": "",
          "type": "bytes32"
        }
      ],
      "stateMutability": "view",
      "type": "function"
    },
    {
      "inputs": [
        {
          "internalType": "uint96",
          "name": "_courtID",
          "type": "uint96"
        },
        {
          "internalType": "uint256",
          "name": "_newStake",
          "type": "uint256"
        }
      ],
      "name": "setStake",
      "outputs": [],
      "stateMutability": "nonpayable",
      "type": "function"
    },
    {
      "inputs": [
        {
          "internalType": "address",
          "name": "_account",
          "type": "address"
        },
        {
          "internalType": "uint96",
          "name": "_courtID",
          "type": "uint96"
        },
        {
          "internalType": "uint256",
          "name": "_newStake",
          "type": "uint256"
        }
      ],
      "name": "setStakeBySortitionModule",
      "outputs": [],
      "stateMutability": "nonpayable",
      "type": "function"
    },
    {
      "inputs": [],
      "name": "sortitionModule",
      "outputs": [
        {
          "internalType": "contract ISortitionModule",
          "name": "",
          "type": "address"
        }
      ],
      "stateMutability": "view",
      "type": "function"
    },
    {
      "inputs": [
        {
          "internalType": "address",
          "name": "newImplementation",
          "type": "address"
        },
        {
          "internalType": "bytes",
          "name": "data",
          "type": "bytes"
        }
      ],
      "name": "upgradeToAndCall",
      "outputs": [],
      "stateMutability": "payable",
      "type": "function"
    }
  ],
  "transactionHash": "0x35655a3781f52eb135258161e27fb6e032ad5ad9953af3068a8bf48148ac3a14",
  "args": [],
  "numDeployments": 1,
  "solcInputHash": "f16a94d75c83e5f4618a2f6097a17dcc",
  "bytecode": "0x60a0604052306080523480156200001557600080fd5b506200002062000026565b620000d9565b7ff0c57e16840df040f15088dc2f81fe391c3923bec73e23a9662efc9c229c6a0e805468010000000000000000900460ff1615620000765760405162dc149f60e41b815260040160405180910390fd5b80546001600160401b0390811614620000d65780546001600160401b0319166001600160401b0390811782556040519081527fc7f505b2f371ae2175ee4913f4499e1f2633a7b5936321eed1cdaeb6115181d29060200160405180910390a15b50565b608051615f1262000103600039600081816117d90152818161180201526119f90152615f126000f3fe6080604052600436106102925760003560e01c80637934c0be1161015a578063c71f4253116100c1578063f12ada8b1161007a578063f12ada8b1461095f578063f6506db41461097f578063f7434ea91461099f578063fbf405b0146109bf578063fc6f8f16146109df578063fe524c39146109ff57600080fd5b8063c71f425314610841578063cf0c38f814610861578063d1c1df4814610881578063d2b8035a146108ff578063d98493f61461091f578063e4c0aaf41461093f57600080fd5b8063a072b86c11610113578063a072b86c14610786578063afe15cfb146107a6578063b0049637146107db578063c13517e1146107fb578063c258bb191461080e578063c35699021461082e57600080fd5b80637934c0be146106b957806382d02237146106d957806386541b24146106f95780638a9bb02a146107195780638bb0487514610746578063994b27af1461076657600080fd5b80632d29a47b116101fe578063543f8a36116101b7578063543f8a36146105e6578063564a565d1461061357806359ec827e146106445780635ea5c03814610664578063751accd0146106795780637717a6e81461069957600080fd5b80632d29a47b146105245780632e1daf2f146105445780633cfd11841461056457806343d4137f146105915780634f1ef286146105be57806352d1902d146105d157600080fd5b8063115d537611610250578063115d5376146103e85780631860592b146104085780631956b1f91461043657806319b81529146104565780631c3db16d146104865780631f5a0dd2146104c357600080fd5b8062f5822c146102975780630219da79146102b95780630761c14d146103315780630b7414bc146103515780630c340a24146103715780630d1b9d1a1461039e575b600080fd5b3480156102a357600080fd5b506102b76102b2366004614fe7565b610a1f565b005b3480156102c557600080fd5b506103046102d4366004614fe7565b60086020526000908152604090205460ff808216916001600160401b0361010082041691600160481b9091041683565b6040805193151584526001600160401b03909216602084015260ff16908201526060015b60405180910390f35b34801561033d57600080fd5b506102b761034c366004615020565b610a6c565b34801561035d57600080fd5b506102b761036c366004615126565b610aa8565b34801561037d57600080fd5b50600054610391906001600160a01b031681565b6040516103289190615187565b3480156103aa57600080fd5b506103be6103b936600461519b565b610c1d565b604080519485526001600160a01b0390931660208501529183015215156060820152608001610328565b3480156103f457600080fd5b506102b761040336600461519b565b610c63565b34801561041457600080fd5b506104286104233660046151b4565b6111a5565b604051908152602001610328565b34801561044257600080fd5b5061039161045136600461519b565b6111ff565b34801561046257600080fd5b5061047661047136600461519b565b611237565b6040519015158152602001610328565b34801561049257600080fd5b506104a66104a136600461519b565b611330565b604080519384529115156020840152151590820152606001610328565b3480156104cf57600080fd5b506104e36104de36600461519b565b611439565b604080516001600160601b0390981688529515156020880152948601939093526060850191909152608084015260a0830152151560c082015260e001610328565b34801561053057600080fd5b506102b761053f3660046151e0565b611498565b34801561055057600080fd5b50600354610391906001600160a01b031681565b34801561057057600080fd5b5061058461057f36600461520c565b6116e0565b604051610328919061524a565b34801561059d57600080fd5b506105b16105ac36600461519b565b61174b565b6040516103289190615293565b6102b76105cc366004615315565b6117c5565b3480156105dd57600080fd5b506104286119ec565b3480156105f257600080fd5b50610606610601366004614fe7565b611a4a565b6040516103289190615364565b34801561061f57600080fd5b5061063361062e36600461519b565b611ae6565b6040516103289594939291906153e9565b34801561065057600080fd5b5061042861065f36600461519b565b611b42565b34801561067057600080fd5b50600554610428565b34801561068557600080fd5b506102b7610694366004615428565b611c97565b3480156106a557600080fd5b506102b76106b4366004615480565b611d41565b3480156106c557600080fd5b506102b76106d436600461549c565b611d69565b3480156106e557600080fd5b506102b76106f43660046154d5565b611de8565b34801561070557600080fd5b506102b7610714366004615594565b611ea5565b34801561072557600080fd5b50610739610734366004615602565b61208c565b604051610328919061565d565b34801561075257600080fd5b506102b761076136600461519b565b612218565b34801561077257600080fd5b506102b7610781366004615702565b61237c565b34801561079257600080fd5b506102b76107a13660046157d6565b61280c565b3480156107b257600080fd5b506107c66107c136600461519b565b612b4b565b60408051928352602083019190915201610328565b3480156107e757600080fd5b506102b76107f6366004614fe7565b612bf7565b610428610809366004615896565b612c44565b34801561081a57600080fd5b506102b7610829366004614fe7565b612c7c565b6102b761083c3660046158c6565b612cc9565b34801561084d57600080fd5b5061042861085c36600461519b565b6132a2565b34801561086d57600080fd5b50600254610391906001600160a01b031681565b34801561088d57600080fd5b506108df61089c3660046158ff565b6001600160a01b039091166000908152600760209081526040808320600181015460028201546001600160601b0390961685526003820190935292205491549093565b604080519485526020850193909352918301526060820152608001610328565b34801561090b57600080fd5b506102b761091a366004615602565b61330a565b34801561092b57600080fd5b5061042861093a36600461597c565b6135f1565b34801561094b57600080fd5b506102b761095a366004614fe7565b61363e565b34801561096b57600080fd5b506102b761097a3660046151b4565b61368b565b34801561098b57600080fd5b5061042861099a3660046159c7565b6138ae565b3480156109ab57600080fd5b506104286109ba366004615a2d565b613992565b3480156109cb57600080fd5b50600154610391906001600160a01b031681565b3480156109eb57600080fd5b506104286109fa36600461519b565b6139de565b348015610a0b57600080fd5b50610476610a1a366004615480565b613a0d565b6000546001600160a01b03163314610a4a5760405163c383977560e01b815260040160405180910390fd5b600180546001600160a01b0319166001600160a01b0392909216919091179055565b6003546001600160a01b03163314610a975760405163068690bf60e11b815260040160405180910390fd5b610aa2838383613a55565b50505050565b6000546001600160a01b03163314610ad35760405163c383977560e01b815260040160405180910390fd5b60005b8251811015610aa2578115610b7257828181518110610af757610af7615a61565b602002602001015160001480610b2a57506005548351849083908110610b1f57610b1f615a61565b602002602001015110155b15610b4857604051633d58a98960e11b815260040160405180910390fd5b610b6d84848381518110610b5e57610b5e615a61565b60200260200101516001613ffc565b610c0b565b6001600160601b0384166001148015610bc8575060006005848381518110610b9c57610b9c615a61565b602002602001015181548110610bb457610bb4615a61565b906000526020600020906005020160000154145b15610be657604051630c6e81c960e11b815260040160405180910390fd5b610c0b84848381518110610bfc57610bfc615a61565b60200260200101516000613ffc565b80610c1581615a8d565b915050610ad6565b60058181548110610c2d57600080fd5b600091825260209091206005909102018054600282015460038301546004909301549193506001600160a01b0316919060ff1684565b600060068281548110610c7857610c78615a61565b600091825260208220600491820201805482549194506001600160601b0316908110610ca657610ca6615a61565b6000918252602082206003850154600c909202019250610cc890600190615aa6565b90506000836003018281548110610ce157610ce1615a61565b600091825260208220600b909102019150600185015460ff166004811115610d0b57610d0b6153b1565b03610de65781158015610d5a57506001840154600684019060ff166004811115610d3757610d376153b1565b60048110610d4757610d47615a61565b01546002850154610d589042615aa6565b105b15610d7857604051633e9727df60e01b815260040160405180910390fd5b6003810154600682015414610da0576040516309e4486b60e41b815260040160405180910390fd5b8254600160601b900460ff16610db7576002610dba565b60015b60018086018054909160ff1990911690836004811115610ddc57610ddc6153b1565b0217905550611157565b60018085015460ff166004811115610e0057610e006153b1565b03610f18576001840154600684019060ff166004811115610e2357610e236153b1565b60048110610e3357610e33615a61565b01546002850154610e449042615aa6565b108015610ee357506005816000015481548110610e6357610e63615a61565b6000918252602090912060059091020160020154604051630baa64d160e01b8152600481018790526001600160a01b0390911690630baa64d190602401602060405180830381865afa158015610ebd573d6000803e3d6000fd5b505050506040513d601f19601f82011682018060405250810190610ee19190615ab9565b155b15610f0157604051634dfa578560e11b815260040160405180910390fd5b6001808501805460029260ff199091169083610ddc565b6002600185015460ff166004811115610f3357610f336153b1565b03611089576001840154600684019060ff166004811115610f5657610f566153b1565b60048110610f6657610f66615a61565b01546002850154610f779042615aa6565b10801561101657506005816000015481548110610f9657610f96615a61565b60009182526020909120600590910201600201546040516336a66c7560e11b8152600481018790526001600160a01b0390911690636d4cd8ea90602401602060405180830381865afa158015610ff0573d6000803e3d6000fd5b505050506040513d601f19601f820116820180604052508101906110149190615ab9565b155b1561103457604051631988dead60e31b815260040160405180910390fd5b600184018054600360ff199091161790558354604051600160601b9091046001600160a01b03169086907fa5d41b970d849372be1da1481ffd78d162bfe57a7aa2fe4e5fb73481fa5ac24f90600090a3611157565b6003600185015460ff1660048111156110a4576110a46153b1565b0361111e576001840154600684019060ff1660048111156110c7576110c76153b1565b600481106110d7576110d7615a61565b015460028501546110e89042615aa6565b101561110757604051632f4dfd8760e01b815260040160405180910390fd5b6001808501805460049260ff199091169083610ddc565b6004600185015460ff166004811115611139576111396153b1565b03611157576040516307f38c8f60e11b815260040160405180910390fd5b426002850155600184015460405186917f4e6f5cf43b95303e86aee81683df63992061723a829ee012db21dad388756b91916111969160ff1690615ad6565b60405180910390a25050505050565b6001600160a01b03821660009081526008602052604081205461010081046001600160401b0316906111e290600160481b900460ff16600a615bc8565b6111ec9084615bd7565b6111f69190615c04565b90505b92915050565b60006005828154811061121457611214615a61565b60009182526020909120600260059092020101546001600160a01b031692915050565b6000806006838154811061124d5761124d615a61565b600091825260208220600360049092020190810180549193509061127390600190615aa6565b8154811061128357611283615a61565b600091825260208220845460048054600b909402909201945090916001600160601b039091169081106112b8576112b8615a61565b90600052602060002090600c020190508060050154826003015410156112e357506000949350505050565b80546004805490916001600160601b031690811061130357611303615a61565b6000918252602080832094548352600a600c9092029094010190925250604090205460ff16159392505050565b6000806000806006858154811061134957611349615a61565b600091825260208220600360049092020190810180549193509061136f90600190615aa6565b8154811061137f5761137f615a61565b90600052602060002090600b02019050600060058260000154815481106113a8576113a8615a61565b6000918252602090912060059091020160020154604051631c3db16d60e01b8152600481018990526001600160a01b0390911691508190631c3db16d90602401606060405180830381865afa158015611405573d6000803e3d6000fd5b505050506040513d601f19601f820116820180604052508101906114299190615c18565b9199909850909650945050505050565b6004818154811061144957600080fd5b60009182526020909120600c9091020180546002820154600383015460048401546005850154600b909501546001600160601b038516965060ff600160601b9095048516959394929391921687565b6000600684815481106114ad576114ad615a61565b600091825260209091206004918202019150600182015460ff1660048111156114d8576114d86153b1565b146114f657604051638794ce4b60e01b815260040160405180910390fd5b600081600301848154811061150d5761150d615a61565b90600052602060002090600b020190506000600582600001548154811061153657611536615a61565b6000918252602082206002600590920201015460048401546001600160a01b039091169250906115668683615c50565b6005850154600686015460405163368efae360e21b8152600481018c9052602481018b905292935090916000906001600160a01b0387169063da3beb8c90604401602060405180830381865afa1580156115c4573d6000803e3d6000fd5b505050506040513d601f19601f820116820180604052508101906115e89190615c63565b90508060000361160357818411156115fe578193505b611623565b61160e826002615bd7565b84111561162357611620826002615bd7565b93505b60048701849055845b848110156116bf5782811015611678576116716040518060c001604052808e81526020018d815260200184815260200185815260200186815260200183815250614084565b93506116ad565b6116ad6040518060c001604052808e81526020018d815260200184815260200185815260200186815260200183815250614525565b806116b781615a8d565b91505061162c565b50828760050154146116d357600587018390555b5050505050505050505050565b6116e8614f27565b6004826001600160601b03168154811061170457611704615a61565b6000918252602090912060408051608081019182905292600c029091016006019060049082845b81548152602001906001019080831161172b575b50505050509050919050565b60606005828154811061176057611760615a61565b906000526020600020906005020160010180548060200260200160405190810160405280929190818152602001828054801561173f576020028201919060005260206000209081548152602001906001019080831161172b5750505050509050919050565b6117ce826149dc565b306001600160a01b037f000000000000000000000000000000000000000000000000000000000000000016148061184c57507f00000000000000000000000000000000000000000000000000000000000000006001600160a01b0316611840600080516020615ebd8339815191525490565b6001600160a01b031614155b1561186a5760405163703e46dd60e11b815260040160405180910390fd5b816001600160a01b03166352d1902d6040518163ffffffff1660e01b8152600401602060405180830381865afa9250505080156118c4575060408051601f3d908101601f191682019092526118c191810190615c63565b60015b6118ec5781604051630c76093760e01b81526004016118e39190615187565b60405180910390fd5b600080516020615ebd833981519152811461191d57604051632a87526960e21b8152600481018290526024016118e3565b600080516020615ebd8339815191528390556040516001600160a01b038416907fbc7cd75a20ee27fd9adebab32041f755214dbc6bffa90cc0225b39da2e5c2d3b90600090a28151156119e6576000836001600160a01b0316836040516119849190615ca0565b600060405180830381855af49150503d80600081146119bf576040519150601f19603f3d011682016040523d82523d6000602084013e6119c4565b606091505b5050905080610aa2576040516339b21b5d60e11b815260040160405180910390fd5b505b5050565b6000306001600160a01b037f00000000000000000000000000000000000000000000000000000000000000001614611a375760405163703e46dd60e11b815260040160405180910390fd5b50600080516020615ebd83398151915290565b6001600160a01b03811660009081526007602090815260409182902080548351818402810184019094528084526060939283018282801561173f57602002820191906000526020600020906000905b82829054906101000a90046001600160601b03166001600160601b0316815260200190600c0190602082600b01049283019260010382029150808411611a99575094979650505050505050565b60068181548110611af657600080fd5b60009182526020909120600490910201805460018201546002909201546001600160601b0382169350600160601b9091046001600160a01b03169160ff80821692610100909204169085565b60008060068381548110611b5857611b58615a61565b6000918252602082206003600490920201908101805491935090611b7e90600190615aa6565b81548110611b8e57611b8e615a61565b600091825260208220845460048054600b909402909201945090916001600160601b03909116908110611bc357611bc3615a61565b90600052602060002090600c020190508060050154826003015410611c625782546001600160601b031660001901611c04576001600160ff1b039350611c8f565b6003820154611c14906002615bd7565b611c1f906001615c50565b81546004805490916001600160601b0316908110611c3f57611c3f615a61565b90600052602060002090600c020160040154611c5b9190615bd7565b9350611c8f565b6003820154611c72906002615bd7565b611c7d906001615c50565b8160040154611c8c9190615bd7565b93505b505050919050565b6000546001600160a01b03163314611cc25760405163c383977560e01b815260040160405180910390fd5b6000836001600160a01b03168383604051611cdd9190615ca0565b60006040518083038185875af1925050503d8060008114611d1a576040519150601f19603f3d011682016040523d82523d6000602084013e611d1f565b606091505b5050905080610aa2576040516322092f2f60e11b815260040160405180910390fd5b611d4c338383613a55565b6119e85760405163a437293760e01b815260040160405180910390fd5b6000546001600160a01b03163314611d945760405163c383977560e01b815260040160405180910390fd5b6001600160a01b038216600081815260086020526040808220805460ff191685151590811790915590519092917f541615e167511d757a7067a700eb54431b256bb458dfdce0ac58bf2ed0aefd4491a35050565b6000546001600160a01b03163314611e135760405163c383977560e01b815260040160405180910390fd5b6001600160a01b038316600081815260086020908152604091829020805469ffffffffffffffffff0019166101006001600160401b03881690810260ff60481b191691909117600160481b60ff8816908102919091179092558351908152918201527fe6996b7f03e9bd02228b99d3d946932e3197f505f60542c4cfbc919441d8a4e6910160405180910390a2505050565b6000546001600160a01b03163314611ed05760405163c383977560e01b815260040160405180910390fd5b60006004886001600160601b031681548110611eee57611eee615a61565b90600052602060002090600c0201905060016001600160601b0316886001600160601b031614158015611f50575080546004805488926001600160601b0316908110611f3c57611f3c615a61565b90600052602060002090600c020160020154115b15611f6e57604051639717078960e01b815260040160405180910390fd5b60005b6001820154811015611ff357866004836001018381548110611f9557611f95615a61565b906000526020600020015481548110611fb057611fb0615a61565b90600052602060002090600c0201600201541015611fe157604051639717078960e01b815260040160405180910390fd5b80611feb81615a8d565b915050611f71565b5060028101869055805460ff60601b1916600160601b88151502178155600381018590556004808201859055600582018490556120369060068301908490614f45565b50876001600160601b03167f709b1f5fda58af9a4f52dacd1ec404840a8148455700cce155a2bd8cf127ef1a88888888888860405161207a96959493929190615cbc565b60405180910390a25050505050505050565b6120f260405180610160016040528060008152602001600081526020016000815260200160008152602001600081526020016000815260200160608152602001600081526020016000815260200160006001600160a01b03168152602001600081525090565b6006838154811061210557612105615a61565b9060005260206000209060040201600301828154811061212757612127615a61565b90600052602060002090600b020160405180610160016040529081600082015481526020016001820154815260200160028201548152602001600382015481526020016004820154815260200160058201548152602001600682018054806020026020016040519081016040528092919081815260200182805480156121d657602002820191906000526020600020905b81546001600160a01b031681526001909101906020018083116121b8575b5050509183525050600782015460208201526008820154604082015260098201546001600160a01b03166060820152600a909101546080909101529392505050565b60006006828154811061222d5761222d615a61565b600091825260209091206004918202019150600182015460ff166004811115612258576122586153b1565b1461227657604051638794ce4b60e01b815260040160405180910390fd5b6001810154610100900460ff16156122a15760405163c977f8d360e01b815260040160405180910390fd5b60006122ac83611330565b505060018301805461010061ff001990911617905582546040518281529192508491600160601b9091046001600160a01b0316907f394027a5fa6e098a1191094d1719d6929b9abc535fcc0c8f448d6a4e756222769060200160405180910390a3815460405163188d362b60e11b81526004810185905260248101839052600160601b9091046001600160a01b03169063311a6c5690604401600060405180830381600087803b15801561235f57600080fd5b505af1158015612373573d6000803e3d6000fd5b50505050505050565b7ff0c57e16840df040f15088dc2f81fe391c3923bec73e23a9662efc9c229c6a0e8054600160401b810460ff1615906001600160401b03168180156123ca57506001816001600160401b0316105b1580156123ec5750303b1580156123ea5750806001600160401b03166001145b155b156124095760405162dc149f60e41b815260040160405180910390fd5b825467ffffffffffffffff19166001178355811561243357825460ff60401b1916600160401b1783555b600080546001600160a01b03199081166001600160a01b038f81169190911783556001805483168f83161781556002805484168f841617905560038054909316918816919091179091556005805490910181558082526040805160a081018252838152815184815260208181019093529293909291830191905081526001600160a01b038c16602080830191909152600060408301819052606090920182905283546001818101865594835291819020835160059093020191825582810151805193949293612509938501929190910190614f83565b506040828101516002830180546001600160a01b0319166001600160a01b03928316179055606084015160038401556080909301516004909201805460ff191692151592909217909155516000918b16906001907f7921860794ac14fda09ee75f7160a5a3d266e3352f7954d0401606a92a26c498908490a460048054600101815560008181526003546040516311de995760e21b81526001600160a01b039091169263477a655c926125c09290918a9101615d1b565b600060405180830381600087803b1580156125da57600080fd5b505af11580156125ee573d6000803e3d6000fd5b5050600480546001810182556000918252600c027f8a35acfbc15ff81a39ae7d344fd709f28e8600b4aa8c65c6b64bfe7fe36bd19b0180546001600160601b03191681556040805183815260208101909152909350915050805161265c916001840191602090910190614f83565b50805460ff60601b1916600160601b8a15150217815587516002820155602088015160038201556040880151600480830191909155606089015160058301556126ab9060068301908990614f45565b506003546040516311de995760e21b81526001600160a01b039091169063477a655c906126df906001908a90600401615d1b565b600060405180830381600087803b1580156126f957600080fd5b505af115801561270d573d6000803e3d6000fd5b505082546001600160601b03169150600190507f3475f0ed7216dd7d453db663a1c3024e4f36cc925521d54edb9d13e022cbee3d8b8b600060200201518c600160200201518d600260200201518e600360200201518e600060405190808252806020026020018201604052801561278e578160200160208202803683370190505b506040516127a29796959493929190615d34565b60405180910390a36127b76001806001613ffc565b5081156127fe57825460ff60401b19168355604051600181527fc7f505b2f371ae2175ee4913f4499e1f2633a7b5936321eed1cdaeb6115181d29060200160405180910390a15b505050505050505050505050565b6000546001600160a01b031633146128375760405163c383977560e01b815260040160405180910390fd5b8660048a6001600160601b03168154811061285457612854615a61565b90600052602060002090600c020160020154111561288557604051639717078960e01b815260040160405180910390fd5b80516000036128a75760405163402585f560e01b815260040160405180910390fd5b6001600160601b0389166128ce57604051631ef4f64960e01b815260040160405180910390fd5b60048054600181018255600091825290600c82027f8a35acfbc15ff81a39ae7d344fd709f28e8600b4aa8c65c6b64bfe7fe36bd19b01905b83518110156129cc5783818151811061292157612921615a61565b6020026020010151600014806129545750600554845185908390811061294957612949615a61565b602002602001015110155b1561297257604051633d58a98960e11b815260040160405180910390fd5b600182600a01600086848151811061298c5761298c615a61565b6020026020010151815260200190815260200160002060006101000a81548160ff02191690831515021790555080806129c490615a8d565b915050612906565b5080546001600160601b0319166001600160601b038c161781556040805160008152602081019182905251612a05916001840191614f83565b50805460ff60601b1916600160601b8b1515021781556002810189905560038101889055600480820188905560058201879055612a489060068301908790614f45565b506003546040516311de995760e21b81526001600160a01b039091169063477a655c90612a7b9085908890600401615d1b565b600060405180830381600087803b158015612a9557600080fd5b505af1158015612aa9573d6000803e3d6000fd5b5050505060048b6001600160601b031681548110612ac957612ac9615a61565b600091825260208083206001600c909302018201805492830181558352909120018290556040516001600160601b038c169083907f3475f0ed7216dd7d453db663a1c3024e4f36cc925521d54edb9d13e022cbee3d90612b36908e908e908e908e908e908e908d90615d34565b60405180910390a35050505050505050505050565b600080600060068481548110612b6357612b63615a61565b6000918252602090912060049091020190506003600182015460ff166004811115612b9057612b906153b1565b03612be8576002810154815460048054929550916001600160601b03909116908110612bbe57612bbe615a61565b600091825260209091206009600c9092020101546002820154612be19190615c50565b9150612bf1565b60009250600091505b50915091565b6000546001600160a01b03163314612c225760405163c383977560e01b815260040160405180910390fd5b600380546001600160a01b0319166001600160a01b0392909216919091179055565b6000612c4f82613992565b341015612c6f57604051630e3360f160e21b815260040160405180910390fd5b6111f68383600034614a0a565b6000546001600160a01b03163314612ca75760405163c383977560e01b815260040160405180910390fd5b600280546001600160a01b0319166001600160a01b0392909216919091179055565b612cd283611b42565b341015612cf257604051633191f8f160e01b815260040160405180910390fd5b600060068481548110612d0757612d07615a61565b6000918252602090912060049091020190506003600182015460ff166004811115612d3457612d346153b1565b14612d52576040516337cdefcb60e21b815260040160405180910390fd5b60038101805460009190612d6890600190615aa6565b81548110612d7857612d78615a61565b90600052602060002090600b020190506005816000015481548110612d9f57612d9f615a61565b60009182526020909120600590910201600201546001600160a01b03163314612ddb5760405163065f245f60e01b815260040160405180910390fd5b8154815460038401805460018101825560009182526020909120600480546001600160601b0390951694600b9093029091019184908110612e1e57612e1e615a61565b90600052602060002090600c02016005015484600301541061301c576004836001600160601b031681548110612e5657612e56615a61565b600091825260208220600c90910201546001600160601b031693505b600a811015612f61576004846001600160601b031681548110612e9757612e97615a61565b60009182526020808320868452600a600c90930201919091019052604090205460ff16612f6157600060058481548110612ed357612ed3615a61565b90600052602060002090600502016000015414612f165760058381548110612efd57612efd615a61565b9060005260206000209060050201600001549250612f4f565b6004846001600160601b031681548110612f3257612f32615a61565b60009182526020909120600c90910201546001600160601b031693505b80612f5981615a8d565b915050612e72565b506004836001600160601b031681548110612f7e57612f7e615a61565b60009182526020808320858452600a600c90930201919091019052604090205460ff16612faa57600192505b84546001600160601b0384811691161461301c57845460038601546001600160601b0390911690612fdd90600190615aa6565b6040516001600160601b03861681528a907f736e3f52761298c8c0823e1ebf482ed3c5ecb304f743d2d91a7c006e8e8d7a1f9060200160405180910390a45b84546001600160601b0319166001600160601b038416908117865560018601805460ff191690554260028701556004805460009290811061305f5761305f615a61565b90600052602060002090600c0201905080600401543461307f9190615c04565b82600301819055506127108160030154826002015461309e9190615bd7565b6130a89190615c04565b60018084019190915534600284015583835560038054908801546001600160a01b039091169163d09f392d918c916130df91615aa6565b6040516001600160e01b031960e085901b16815260048101929092526024820152604401600060405180830381600087803b15801561311d57600080fd5b505af1158015613131573d6000803e3d6000fd5b50508654845414915061321f9050578454600387015461315390600190615aa6565b83546040519081528b907fcbe7939a71f0b369c7471d760a0a99b60b7bb010ee0406cba8a46679d1ea77569060200160405180910390a460058260000154815481106131a1576131a1615a61565b600091825260209091206002600590920201015460038301546040516302dbb79560e61b81526001600160a01b039092169163b6ede540916131ec918d918d918d9190600401615d84565b600060405180830381600087803b15801561320657600080fd5b505af115801561321a573d6000803e3d6000fd5b505050505b8554604051600160601b9091046001600160a01b0316908a907f9c9b64db9e130f48381bf697abf638e73117dbfbfd7a4484f2da3ba188f4187d90600090a3887f4e6f5cf43b95303e86aee81683df63992061723a829ee012db21dad388756b91600060405161328f9190615ad6565b60405180910390a2505050505050505050565b600080600683815481106132b8576132b8615a61565b9060005260206000209060040201905080600301600182600301805490506132e09190615aa6565b815481106132f0576132f0615a61565b90600052602060002090600b020160030154915050919050565b60006006838154811061331f5761331f615a61565b906000526020600020906004020190506000600182600301805490506133459190615aa6565b9050600082600301828154811061335e5761335e615a61565b600091825260208220600b909102019150600184015460ff166004811115613388576133886153b1565b146133a657604051638285c4ef60e01b815260040160405180910390fd5b600060058260000154815481106133bf576133bf615a61565b60009182526020822060026005909202010154600a8401546001600160a01b039091169250905b86811080156133fc575060038401546006850154105b156135ce5760006001600160a01b03841663d2b8035a8a8461341d81615a8d565b95506134299087615c50565b6040516001600160e01b031960e085901b168152600481019290925260248201526044016020604051808303816000875af115801561346c573d6000803e3d6000fd5b505050506040513d601f19601f820116820180604052508101906134909190615db4565b90506001600160a01b0381166134a657506133e6565b60018501546001600160a01b038216600090815260076020526040812060020180549091906134d6908490615c50565b909155505060068501546040805188815260208101929092528a916001600160a01b038416917f6119cf536152c11e0a9a6c22f3953ce4ecc93ee54fa72ffa326ffabded21509b910160405180910390a36006850180546001810182556000828152602090200180546001600160a01b0319166001600160a01b03841617905560038601549054036135c857600354604051632e96bc2360e11b8152600481018b9052602481018890526001600160a01b0390911690635d2d784690604401600060405180830381600087803b1580156135af57600080fd5b505af11580156135c3573d6000803e3d6000fd5b505050505b506133e6565b8084600a0160008282546135e29190615c50565b90915550505050505050505050565b60006136368261042386868080601f01602080910402602001604051908101604052809392919081815260200183838082843760009201919091525061399292505050565b949350505050565b6000546001600160a01b031633146136695760405163c383977560e01b815260040160405180910390fd5b600080546001600160a01b0319166001600160a01b0392909216919091179055565b6000546001600160a01b031633146136b65760405163c383977560e01b815260040160405180910390fd5b6005548082106136d957604051630becfec560e01b815260040160405180910390fd5b6000821561373457600583815481106136f4576136f4615a61565b90600052602060002090600502016003015460016137129190615c50565b9050600a8110613734576040516210d62560e51b815260040160405180910390fd5b6040805160a08101825284815281516000808252602080830185528084019283526001600160a01b0389169484019490945260608301859052608083018190526005805460018101825591819052835191027f036b6384b5eca791c62761152d0c79bb0604c104a5fb6f4eb0703f3154bb3db0810191825591518051939491936137e5937f036b6384b5eca791c62761152d0c79bb0604c104a5fb6f4eb0703f3154bb3db101929190910190614f83565b5060408201516002820180546001600160a01b0319166001600160a01b03909216919091179055606082015160038201556080909101516004909101805460ff1916911515919091179055600580548490811061384457613844615a61565b600091825260208083206001600590930201820180549283018155835282200183905560405184916001600160a01b0387169185917f7921860794ac14fda09ee75f7160a5a3d266e3352f7954d0401606a92a26c49891a482610aa257610aa26001836001613ffc565b6001600160a01b03821660009081526008602052604081205460ff166138e75760405163e51cf7bf60e01b815260040160405180910390fd5b6138f28585856135f1565b82101561391257604051630e3360f160e21b815260040160405180910390fd5b6139276001600160a01b038416333085614cfb565b613944576040516312171d8360e31b815260040160405180910390fd5b6139888686868080601f016020809104026020016040519081016040528093929190818152602001838380828437600092019190915250889250879150614a0a9050565b9695505050505050565b60008060006139a084614dd7565b5091509150806004836001600160601b0316815481106139c2576139c2615a61565b90600052602060002090600c0201600401546136369190615bd7565b6000600682815481106139f3576139f3615a61565b600091825260209091206003600490920201015492915050565b60006004836001600160601b031681548110613a2b57613a2b615a61565b60009182526020808320948352600c91909102909301600a0190925250604090205460ff16919050565b60006001600160601b0383161580613a7757506004546001600160601b038416115b15613a8457506000613ff5565b6001600160a01b03841660009081526007602090815260408083206001600160601b038716845260038101909252909120548315613b01576004856001600160601b031681548110613ad857613ad8615a61565b90600052602060002090600c020160020154841015613afc57600092505050613ff5565b613b14565b80600003613b1457600092505050613ff5565b60035460405163684fbf5f60e01b81526000916001600160a01b03169063684fbf5f90613b49908a908a908a90600401615dd1565b6020604051808303816000875af1158015613b68573d6000803e3d6000fd5b505050506040513d601f19601f82011682018060405250810190613b8c9190615dfb565b90506002816002811115613ba257613ba26153b1565b03613bb35760009350505050613ff5565b6001816002811115613bc757613bc76153b1565b03613c2557604080516001600160601b0388168152602081018790526001600160a01b038916917f64c1aa6f3a1b4d72ebddff4e415cd05929dd5af5d670f06dce76627211b49911910160405180910390a260019350505050613ff5565b6000828610613d05576000846001015485600201541015613c47576000613c5b565b84600101548560020154613c5b9190615aa6565b9050613c678185615c50565b871015613c75576000613c8a565b80613c808589615aa6565b613c8a9190615aa6565b91508115613cbc57600154613caa906001600160a01b03168a3085614cfb565b613cbc57600095505050505050613ff5565b83600003613cff578454600180820187556000878152602090206002830401805491909216600c026101000a6001600160601b0381810219909216918b16021790555b50613eea565b6002840154613d148785615aa6565b613d1e9190615c50565b846001015410613d3957613d328684615aa6565b9050613d5f565b8360020154846001015410613d5f5783600201548460010154613d5c9190615aa6565b90505b8015613d8d57600154613d7c906001600160a01b03168983614e5e565b613d8d576000945050505050613ff5565b85600003613eea5783545b8015613ee8576001600160601b03881685613db4600184615aa6565b81548110613dc457613dc4615a61565b600091825260209091206002820401546001909116600c026101000a90046001600160601b031603613ed65784548590613e0090600190615aa6565b81548110613e1057613e10615a61565b600091825260209091206002820401546001918216600c026101000a90046001600160601b0316908690613e449084615aa6565b81548110613e5457613e54615a61565b9060005260206000209060029182820401919006600c026101000a8154816001600160601b0302191690836001600160601b0316021790555084600001805480613ea057613ea0615e1c565b60008281526020902060026000199092019182040180546001600160601b03600c60018516026101000a02191690559055613ee8565b80613ee081615e32565b915050613d98565b505b8284600101541015613efc5785613f17565b85838560010154613f0d9190615aa6565b613f179190615c50565b60018501556001600160601b03871660009081526003808601602052604091829020889055549051631166238b60e21b81526001600160a01b03909116906345988e2c90613f6d908b908b908b90600401615dd1565b600060405180830381600087803b158015613f8757600080fd5b505af1158015613f9b573d6000803e3d6000fd5b5050604080516001600160601b038b168152602081018a90526001600160a01b038c1693507f4732545d01e38980276a17e6d394f01577ba63f2fea5eba41af0757d9c060c5c92500160405180910390a260019450505050505b9392505050565b806004846001600160601b03168154811061401957614019615a61565b60009182526020808320868452600c92909202909101600a0190526040808220805460ff19169315159390931790925590518215159184916001600160601b038716917fb47629acdf64971062d40984f77d3dee212d735b11e3e8c7a4222d9f0572cc7991a4505050565b600080600683600001518154811061409e5761409e615a61565b906000526020600020906004020190506000816003018460200151815481106140c9576140c9615a61565b90600052602060002090600b02019050600060058260000154815481106140f2576140f2615a61565b600091825260208083206005929092029091016002015487519188015160a0890151604051634fe264fb60e01b81526004810194909452602484019190915260448301526001600160a01b031692508290634fe264fb90606401602060405180830381865afa158015614169573d6000803e3d6000fd5b505050506040513d601f19601f8201168201806040525081019061418d9190615c63565b905061271081111561419e57506127105b60006127106141ad8382615aa6565b85600101546141bc9190615bd7565b6141c69190615c04565b905080876080018181516141da9190615c50565b90525060a08701516006850180546000929081106141fa576141fa615a61565b60009182526020808320909101546001600160a01b0316808352600790915260408220600201805491935084929091614234908490615aa6565b90915550506001600160a01b0381166000908152600760205260409020600101548211614291576001600160a01b03811660009081526007602052604081206001018054849290614286908490615aa6565b909155506142ae9050565b6001600160a01b0381166000908152600760205260408120600101555b602088015188516001600160a01b0383167f8975b837fe0d18616c65abb8b843726a32b552ee4feca009944fa658bbb282e7866142ea87615e49565b60098b015460405161430c9392916000916001600160a01b0390911690615e65565b60405180910390a48751602089015160a08a015160405163ba66fde760e01b81526004810193909352602483019190915260448201526001600160a01b0385169063ba66fde790606401602060405180830381865afa158015614373573d6000803e3d6000fd5b505050506040513d601f19601f820116820180604052508101906143979190615ab9565b6143fe5760035460405163b5d69e9960e01b81526001600160a01b039091169063b5d69e99906143cb908490600401615187565b600060405180830381600087803b1580156143e557600080fd5b505af11580156143f9573d6000803e3d6000fd5b505050505b6001886060015161440f9190615aa6565b8860a0015114801561442357506040880151155b156145145760098501546001600160a01b031661446c576000805460028701546040516001600160a01b039092169281156108fc029290818181858888f1935050505050614493565b60005460028601546009870154614491926001600160a01b0391821692911690614e5e565b505b60005460808901516001546144b6926001600160a01b0391821692911690614e5e565b506020880151885160808a0151600288015460098901546040517f6cecfd3ec56289ccb16e30eb194f9a87dfdc12630b9abbc31fc69af5a0b0eaf49361450b93909290916001600160a01b0390911690615e89565b60405180910390a35b505050608090940151949350505050565b6000600682600001518154811061453e5761453e615a61565b9060005260206000209060040201905060008160030183602001518154811061456957614569615a61565b90600052602060002090600b020190506000600582600001548154811061459257614592615a61565b906000526020600020906005020160020160009054906101000a90046001600160a01b031690506000816001600160a01b0316634fe264fb8660000151876020015188606001518960a001516145e89190615ea8565b6040516001600160e01b031960e086901b168152600481019390935260248301919091526044820152606401602060405180830381865afa158015614631573d6000803e3d6000fd5b505050506040513d601f19601f820116820180604052508101906146559190615c63565b905061271081111561466657506127105b60008360060186606001518760a001516146809190615ea8565b8154811061469057614690615a61565b600091825260208220015460018601546001600160a01b039091169250612710906146bc908590615bd7565b6146c69190615c04565b6001600160a01b0383166000908152600760205260408120600201805492935083929091906146f6908490615aa6565b90915550506001600160a01b038216600090815260076020526040812060010154900361473657600154614734906001600160a01b03168383614e5e565b505b60006127108489604001518a608001516147509190615c04565b61475a9190615bd7565b6147649190615c04565b90508086600801600082825461477a9190615c50565b925050819055506000612710858a60400151896002015461479b9190615c04565b6147a59190615bd7565b6147af9190615c04565b9050808760070160008282546147c59190615c50565b90915550506001546147e1906001600160a01b03168584614e5e565b5060098701546001600160a01b031661481f576040516001600160a01b0385169082156108fc029083906000818181858888f193505050505061483a565b6009870154614838906001600160a01b03168583614e5e565b505b6020890151895160098901546040516001600160a01b03888116927f8975b837fe0d18616c65abb8b843726a32b552ee4feca009944fa658bbb282e79261488a928c928a928a9290911690615e65565b60405180910390a46001896060015160026148a59190615bd7565b6148af9190615aa6565b8960a00151036149d157600087600801548a608001516148cf9190615aa6565b90506000886007015489600201546148e79190615aa6565b9050811515806148f657508015155b156116d35781156149205760005460015461491e916001600160a01b03918216911684614e5e565b505b80156149875760098901546001600160a01b031661496657600080546040516001600160a01b039091169183156108fc02918491818181858888f1935050505050614987565b60005460098a0154614985916001600160a01b03918216911683614e5e565b505b60208b01518b5160098b01546040517f6cecfd3ec56289ccb16e30eb194f9a87dfdc12630b9abbc31fc69af5a0b0eaf491612b3691879187916001600160a01b0390911690615e89565b505050505050505050565b6000546001600160a01b03163314614a075760405163c383977560e01b815260040160405180910390fd5b50565b6000806000614a1886614dd7565b92505091506004826001600160601b031681548110614a3957614a39615a61565b60009182526020808320848452600a600c90930201919091019052604090205460ff16614a795760405163b34eb75d60e01b815260040160405180910390fd5b600680546001810182556000918252600160601b33026001600160601b03851617600482027ff652222313e28459528d920b65115c16c04f3efc82aaedc97be59f3f377c0d3f8101918255427ff652222313e28459528d920b65115c16c04f3efc82aaedc97be59f3f377c0d41909101556005805492965090929184908110614b0457614b04615a61565b600091825260208220600260059092020101548354600480546001600160a01b039093169450916001600160601b03909116908110614b4557614b45615a61565b60009182526020808320600387018054600181018255908552918420600c909302019350600b0201906001600160a01b038a1615614b9057614b8b8a84600401546111a5565b614b96565b82600401545b9050614ba2818a615c04565b600380840191909155868355830154600284015461271091614bc391615bd7565b614bcd9190615c04565b6001830155600282018990556009820180546001600160a01b0319166001600160a01b038c81169190911790915560035460405163d09f392d60e01b8152600481018b90526000602482015291169063d09f392d90604401600060405180830381600087803b158015614c3f57600080fd5b505af1158015614c53573d6000803e3d6000fd5b50505050836001600160a01b031663b6ede540898e8e86600301546040518563ffffffff1660e01b8152600401614c8d9493929190615d84565b600060405180830381600087803b158015614ca757600080fd5b505af1158015614cbb573d6000803e3d6000fd5b50506040513392508a91507f141dfc18aa6a56fc816f44f0e9e2f1ebc92b15ab167770e17db5b084c10ed99590600090a350505050505050949350505050565b6040516001600160a01b038481166024830152838116604483015260648201839052600091829182919088169060840160408051601f198184030181529181526020820180516001600160e01b03166323b872dd60e01b17905251614d609190615ca0565b6000604051808303816000865af19150503d8060008114614d9d576040519150601f19603f3d011682016040523d82523d6000602084013e614da2565b606091505b5091509150818015614dcc575080511580614dcc575080806020019051810190614dcc9190615ab9565b979650505050505050565b60008060006040845110614e4c575050506020810151604082015160608301516001600160601b0383161580614e1857506004546001600160601b03841610155b15614e2257600192505b81600003614e2f57600391505b801580614e3e57506005548110155b15614e47575060015b614e57565b506001915060039050815b9193909250565b6040516001600160a01b03838116602483015260448201839052600091829182919087169060640160408051601f198184030181529181526020820180516001600160e01b031663a9059cbb60e01b17905251614ebb9190615ca0565b6000604051808303816000865af19150503d8060008114614ef8576040519150601f19603f3d011682016040523d82523d6000602084013e614efd565b606091505b50915091508180156139885750805115806139885750808060200190518101906139889190615ab9565b60405180608001604052806004906020820280368337509192915050565b8260048101928215614f73579160200282015b82811115614f73578251825591602001919060010190614f58565b50614f7f929150614fbd565b5090565b828054828255906000526020600020908101928215614f735791602002820182811115614f73578251825591602001919060010190614f58565b5b80821115614f7f5760008155600101614fbe565b6001600160a01b0381168114614a0757600080fd5b600060208284031215614ff957600080fd5b8135613ff581614fd2565b80356001600160601b038116811461501b57600080fd5b919050565b60008060006060848603121561503557600080fd5b833561504081614fd2565b925061504e60208501615004565b9150604084013590509250925092565b634e487b7160e01b600052604160045260246000fd5b604051601f8201601f191681016001600160401b038111828210171561509c5761509c61505e565b604052919050565b600082601f8301126150b557600080fd5b813560206001600160401b038211156150d0576150d061505e565b8160051b6150df828201615074565b92835284810182019282810190878511156150f957600080fd5b83870192505b84831015614dcc578235825291830191908301906150ff565b8015158114614a0757600080fd5b60008060006060848603121561513b57600080fd5b61514484615004565b925060208401356001600160401b0381111561515f57600080fd5b61516b868287016150a4565b925050604084013561517c81615118565b809150509250925092565b6001600160a01b0391909116815260200190565b6000602082840312156151ad57600080fd5b5035919050565b600080604083850312156151c757600080fd5b82356151d281614fd2565b946020939093013593505050565b6000806000606084860312156151f557600080fd5b505081359360208301359350604090920135919050565b60006020828403121561521e57600080fd5b6111f682615004565b8060005b6004811015610aa257815184526020938401939091019060010161522b565b608081016111f98284615227565b600081518084526020808501945080840160005b838110156152885781518752958201959082019060010161526c565b509495945050505050565b6020815260006111f66020830184615258565b600082601f8301126152b757600080fd5b81356001600160401b038111156152d0576152d061505e565b6152e3601f8201601f1916602001615074565b8181528460208386010111156152f857600080fd5b816020850160208301376000918101602001919091529392505050565b6000806040838503121561532857600080fd5b823561533381614fd2565b915060208301356001600160401b0381111561534e57600080fd5b61535a858286016152a6565b9150509250929050565b6020808252825182820181905260009190848201906040850190845b818110156153a55783516001600160601b031683529284019291840191600101615380565b50909695505050505050565b634e487b7160e01b600052602160045260246000fd5b600581106153e557634e487b7160e01b600052602160045260246000fd5b9052565b6001600160601b03861681526001600160a01b038516602082015260a0810161541560408301866153c7565b9215156060820152608001529392505050565b60008060006060848603121561543d57600080fd5b833561544881614fd2565b92506020840135915060408401356001600160401b0381111561546a57600080fd5b615476868287016152a6565b9150509250925092565b6000806040838503121561549357600080fd5b6151d283615004565b600080604083850312156154af57600080fd5b82356154ba81614fd2565b915060208301356154ca81615118565b809150509250929050565b6000806000606084860312156154ea57600080fd5b83356154f581614fd2565b925060208401356001600160401b038116811461551157600080fd5b9150604084013560ff8116811461517c57600080fd5b600082601f83011261553857600080fd5b604051608081018181106001600160401b038211171561555a5761555a61505e565b60405280608084018581111561556f57600080fd5b845b81811015615589578035835260209283019201615571565b509195945050505050565b6000806000806000806000610140888a0312156155b057600080fd5b6155b988615004565b965060208801356155c981615118565b955060408801359450606088013593506080880135925060a088013591506155f48960c08a01615527565b905092959891949750929550565b6000806040838503121561561557600080fd5b50508035926020909101359150565b600081518084526020808501945080840160005b838110156152885781516001600160a01b031687529582019590820190600101615638565b6020815281516020820152602082015160408201526040820151606082015260608201516080820152608082015160a082015260a082015160c0820152600060c08301516101608060e08501526156b8610180850183615624565b60e086015161010086810191909152860151610120808701919091528601519092506101406156f1818701836001600160a01b03169052565b959095015193019290925250919050565b60008060008060008060008060006101e08a8c03121561572157600080fd5b893561572c81614fd2565b985060208a013561573c81614fd2565b975060408a013561574c81614fd2565b965060608a013561575c81614fd2565b955060808a013561576c81615118565b945061577b8b60a08c01615527565b935061578b8b6101208c01615527565b92506101a08a01356001600160401b038111156157a757600080fd5b6157b38c828d016152a6565b9250506101c08a01356157c581614fd2565b809150509295985092959850929598565b60008060008060008060008060006101808a8c0312156157f557600080fd5b6157fe8a615004565b985060208a013561580e81615118565b975060408a0135965060608a0135955060808a0135945060a08a013593506158398b60c08c01615527565b92506101408a01356001600160401b038082111561585657600080fd5b6158628d838e016152a6565b93506101608c013591508082111561587957600080fd5b506158868c828d016150a4565b9150509295985092959850929598565b600080604083850312156158a957600080fd5b8235915060208301356001600160401b0381111561534e57600080fd5b6000806000606084860312156158db57600080fd5b833592506020840135915060408401356001600160401b0381111561546a57600080fd5b6000806040838503121561591257600080fd5b823561591d81614fd2565b915061592b60208401615004565b90509250929050565b60008083601f84011261594657600080fd5b5081356001600160401b0381111561595d57600080fd5b60208301915083602082850101111561597557600080fd5b9250929050565b60008060006040848603121561599157600080fd5b83356001600160401b038111156159a757600080fd5b6159b386828701615934565b909450925050602084013561517c81614fd2565b6000806000806000608086880312156159df57600080fd5b8535945060208601356001600160401b038111156159fc57600080fd5b615a0888828901615934565b9095509350506040860135615a1c81614fd2565b949793965091946060013592915050565b600060208284031215615a3f57600080fd5b81356001600160401b03811115615a5557600080fd5b613636848285016152a6565b634e487b7160e01b600052603260045260246000fd5b634e487b7160e01b600052601160045260246000fd5b600060018201615a9f57615a9f615a77565b5060010190565b818103818111156111f9576111f9615a77565b600060208284031215615acb57600080fd5b8151613ff581615118565b602081016111f982846153c7565b600181815b80851115615b1f578160001904821115615b0557615b05615a77565b80851615615b1257918102915b93841c9390800290615ae9565b509250929050565b600082615b36575060016111f9565b81615b43575060006111f9565b8160018114615b595760028114615b6357615b7f565b60019150506111f9565b60ff841115615b7457615b74615a77565b50506001821b6111f9565b5060208310610133831016604e8410600b8410161715615ba2575081810a6111f9565b615bac8383615ae4565b8060001904821115615bc057615bc0615a77565b029392505050565b60006111f660ff841683615b27565b80820281158282048414176111f9576111f9615a77565b634e487b7160e01b600052601260045260246000fd5b600082615c1357615c13615bee565b500490565b600080600060608486031215615c2d57600080fd5b835192506020840151615c3f81615118565b604085015190925061517c81615118565b808201808211156111f9576111f9615a77565b600060208284031215615c7557600080fd5b5051919050565b60005b83811015615c97578181015183820152602001615c7f565b50506000910152565b60008251615cb2818460208701615c7c565b9190910192915050565b6000610120820190508715158252866020830152856040830152846060830152836080830152614dcc60a0830184615227565b60008151808452615d07816020860160208601615c7c565b601f01601f19169290920160200192915050565b8281526040602082015260006136366040830184615cef565b60006101408915158352886020840152876040840152866060840152856080840152615d6360a0840186615227565b80610120840152615d7681840185615258565b9a9950505050505050505050565b848152836020820152608060408201526000615da36080830185615cef565b905082606083015295945050505050565b600060208284031215615dc657600080fd5b8151613ff581614fd2565b6001600160a01b039390931683526001600160601b03919091166020830152604082015260600190565b600060208284031215615e0d57600080fd5b815160038110613ff557600080fd5b634e487b7160e01b600052603160045260246000fd5b600081615e4157615e41615a77565b506000190190565b6000600160ff1b8201615e5e57615e5e615a77565b5060000390565b938452602084019290925260408301526001600160a01b0316606082015260800190565b92835260208301919091526001600160a01b0316604082015260600190565b600082615eb757615eb7615bee565b50069056fe360894a13ba1a3210667c828492db98dca3e2076cc3735a920a3ca505d382bbca26469706673582212203d85178189de7f92100ad796e1019b44ed5644447b36f0d926a5b377a5afa13e64736f6c63430008120033",
  "devdoc": {
    "errors": {
      "AlreadyInitialized()": [
        {
          "details": "The contract is already initialized."
        }
      ],
      "NotInitializing()": [
        {
          "details": "The contract is not initializing."
        }
      ],
      "UUPSUnauthorizedCallContext()": [
        {
          "details": "The call is from an unauthorized context."
        }
      ],
      "UUPSUnsupportedProxiableUUID(bytes32)": [
        {
          "details": "The storage `slot` is unsupported as a UUID."
        }
      ]
    },
    "events": {
      "AcceptedFeeToken(address,bool)": {
        "details": "To be emitted when an ERC20 token is added or removed as a method to pay fees.",
        "params": {
          "_accepted": "Whether the token is accepted or not.",
          "_token": "The ERC20 token."
        }
      },
      "DisputeCreation(uint256,address)": {
        "details": "To be emitted when a dispute is created.",
        "params": {
          "_arbitrable": "The contract which created the dispute.",
          "_disputeID": "The identifier of the dispute in the Arbitrator contract."
        }
      },
      "Initialized(uint64)": {
        "details": "Triggered when the contract has been initialized or reinitialized."
      },
      "NewCurrencyRate(address,uint64,uint8)": {
        "details": "To be emitted when the fee for a particular ERC20 token is updated.",
        "params": {
          "_feeToken": "The ERC20 token.",
          "_rateDecimals": "The new decimals of the fee token rate.",
          "_rateInEth": "The new rate of the fee token in ETH."
        }
      },
      "Ruling(address,uint256,uint256)": {
        "details": "To be raised when a ruling is given.",
        "params": {
          "_arbitrable": "The arbitrable receiving the ruling.",
          "_disputeID": "The identifier of the dispute in the Arbitrator contract.",
          "_ruling": "The ruling which was given."
        }
      },
      "Upgraded(address)": {
        "params": {
          "newImplementation": "Address of the new implementation the proxy is now forwarding calls to."
        }
      }
    },
    "kind": "dev",
    "methods": {
      "addNewDisputeKit(address,uint256)": {
        "details": "Add a new supported dispute kit module to the court.",
        "params": {
          "_disputeKitAddress": "The address of the dispute kit contract.",
          "_parent": "The ID of the parent dispute kit. It is left empty when root DK is created. Note that the root DK must be supported by the general court."
        }
      },
      "appeal(uint256,uint256,bytes)": {
        "details": "Appeals the ruling of a specified dispute. Note: Access restricted to the Dispute Kit for this `disputeID`.",
        "params": {
          "_disputeID": "The ID of the dispute.",
          "_extraData": "Extradata for the dispute. Can be required during court jump.",
          "_numberOfChoices": "Number of choices for the dispute. Can be required during court jump."
        }
      },
      "appealCost(uint256)": {
        "details": "Gets the cost of appealing a specified dispute.",
        "params": {
          "_disputeID": "The ID of the dispute."
        },
        "returns": {
          "cost": "The appeal cost."
        }
      },
      "appealPeriod(uint256)": {
        "details": "Gets the start and the end of a specified dispute's current appeal period.",
        "params": {
          "_disputeID": "The ID of the dispute."
        },
        "returns": {
          "end": "The end of the appeal period.",
          "start": "The start of the appeal period."
        }
      },
      "arbitrationCost(bytes)": {
        "details": "Compute the cost of arbitration denominated in ETH.      It is recommended not to increase it often, as it can be highly time and gas consuming for the arbitrated contracts to cope with fee augmentation.",
        "params": {
          "_extraData": "Additional info about the dispute. We use it to pass the ID of the dispute's court (first 32 bytes), the minimum number of jurors required (next 32 bytes) and the ID of the specific dispute kit (last 32 bytes)."
        },
        "returns": {
          "cost": "The arbitration cost in ETH."
        }
      },
      "arbitrationCost(bytes,address)": {
        "details": "Compute the cost of arbitration denominated in `_feeToken`.      It is recommended not to increase it often, as it can be highly time and gas consuming for the arbitrated contracts to cope with fee augmentation.",
        "params": {
          "_extraData": "Additional info about the dispute. We use it to pass the ID of the dispute's court (first 32 bytes), the minimum number of jurors required (next 32 bytes) and the ID of the specific dispute kit (last 32 bytes).",
          "_feeToken": "The ERC20 token used to pay fees."
        },
        "returns": {
          "cost": "The arbitration cost in `_feeToken`."
        }
      },
      "changeAcceptedFeeTokens(address,bool)": {
        "details": "Changes the supported fee tokens.",
        "params": {
          "_accepted": "Whether the token is supported or not as a method of fee payment.",
          "_feeToken": "The fee token."
        }
      },
      "changeCurrencyRates(address,uint64,uint8)": {
        "details": "Changes the currency rate of a fee token.",
        "params": {
          "_feeToken": "The fee token.",
          "_rateDecimals": "The new decimals of the fee token rate.",
          "_rateInEth": "The new rate of the fee token in ETH."
        }
      },
      "changeGovernor(address)": {
        "details": "Changes the `governor` storage variable.",
        "params": {
          "_governor": "The new value for the `governor` storage variable."
        }
      },
      "changeJurorProsecutionModule(address)": {
        "details": "Changes the `jurorProsecutionModule` storage variable.",
        "params": {
          "_jurorProsecutionModule": "The new value for the `jurorProsecutionModule` storage variable."
        }
      },
      "changePinakion(address)": {
        "details": "Changes the `pinakion` storage variable.",
        "params": {
          "_pinakion": "The new value for the `pinakion` storage variable."
        }
      },
      "changeSortitionModule(address)": {
        "details": "Changes the `_sortitionModule` storage variable. Note that the new module should be initialized for all courts.",
        "params": {
          "_sortitionModule": "The new value for the `sortitionModule` storage variable."
        }
      },
      "constructor": {
        "details": "Constructor, initializing the implementation to reduce attack surface."
      },
      "createCourt(uint96,bool,uint256,uint256,uint256,uint256,uint256[4],bytes,uint256[])": {
        "details": "Creates a court under a specified parent court.",
        "params": {
          "_alpha": "The `alpha` property value of the court.",
          "_feeForJuror": "The `feeForJuror` property value of the court.",
          "_hiddenVotes": "The `hiddenVotes` property value of the court.",
          "_jurorsForCourtJump": "The `jurorsForCourtJump` property value of the court.",
          "_minStake": "The `minStake` property value of the court.",
          "_parent": "The `parent` property value of the court.",
          "_sortitionExtraData": "Extra data for sortition module.",
          "_supportedDisputeKits": "Indexes of dispute kits that this court will support.",
          "_timesPerPeriod": "The `timesPerPeriod` property value of the court."
        }
      },
      "createDispute(uint256,bytes)": {
        "details": "Create a dispute and pay for the fees in the native currency, typically ETH.      Must be called by the arbitrable contract.      Must pay at least arbitrationCost(_extraData).",
        "params": {
          "_extraData": "Additional info about the dispute. We use it to pass the ID of the dispute's court (first 32 bytes), the minimum number of jurors required (next 32 bytes) and the ID of the specific dispute kit (last 32 bytes).",
          "_numberOfChoices": "The number of choices the arbitrator can choose from in this dispute."
        },
        "returns": {
          "disputeID": "The identifier of the dispute created."
        }
      },
      "createDispute(uint256,bytes,address,uint256)": {
        "details": "Create a dispute and pay for the fees in a supported ERC20 token.      Must be called by the arbitrable contract.      Must pay at least arbitrationCost(_extraData).",
        "params": {
          "_extraData": "Additional info about the dispute. We use it to pass the ID of the dispute's court (first 32 bytes), the minimum number of jurors required (next 32 bytes) and the ID of the specific dispute kit (last 32 bytes).",
          "_feeAmount": "Amount of the ERC20 token used to pay fees.",
          "_feeToken": "The ERC20 token used to pay fees.",
          "_numberOfChoices": "The number of choices the arbitrator can choose from in this dispute."
        },
        "returns": {
          "disputeID": "The identifier of the dispute created."
        }
      },
      "currentRuling(uint256)": {
        "details": "Gets the current ruling of a specified dispute.",
        "params": {
          "_disputeID": "The ID of the dispute."
        },
        "returns": {
          "overridden": "Whether the ruling was overridden by appeal funding or not.",
          "ruling": "The current ruling.",
          "tied": "Whether it's a tie or not."
        }
      },
      "draw(uint256,uint256)": {
        "details": "Draws jurors for the dispute. Can be called in parts.",
        "params": {
          "_disputeID": "The ID of the dispute.",
          "_iterations": "The number of iterations to run."
        }
      },
      "enableDisputeKits(uint96,uint256[],bool)": {
        "details": "Adds/removes court's support for specified dispute kits.",
        "params": {
          "_courtID": "The ID of the court.",
          "_disputeKitIDs": "The IDs of dispute kits which support should be added/removed.",
          "_enable": "Whether add or remove the dispute kits from the court."
        }
      },
      "execute(uint256,uint256,uint256)": {
        "details": "Distribute the PNKs at stake and the dispute fees for the specific round of the dispute. Can be called in parts.",
        "params": {
          "_disputeID": "The ID of the dispute.",
          "_iterations": "The number of iterations to run.",
          "_round": "The appeal round."
        }
      },
      "executeGovernorProposal(address,uint256,bytes)": {
        "details": "Allows the governor to call anything on behalf of the contract.",
        "params": {
          "_amount": "The value sent with the call.",
          "_data": "The data sent with the call.",
          "_destination": "The destination of the call."
        }
      },
      "executeRuling(uint256)": {
        "details": "Executes a specified dispute's ruling.",
        "params": {
          "_disputeID": "The ID of the dispute."
        }
      },
      "getDisputeKit(uint256)": {
        "details": "Gets the dispute kit for a specific `_disputeKitID`.",
        "params": {
          "_disputeKitID": "The ID of the dispute kit."
        }
      },
      "getDisputeKitChildren(uint256)": {
        "details": "Gets non-primitive properties of a specified dispute kit node.",
        "params": {
          "_disputeKitID": "The ID of the dispute kit."
        },
        "returns": {
          "_0": "children Indexes of children of this DK."
        }
      },
      "getJurorCourtIDs(address)": {
        "details": "Gets the court identifiers where a specific `_juror` has staked.",
        "params": {
          "_juror": "The address of the juror."
        }
      },
      "getNumberOfVotes(uint256)": {
        "details": "Gets the number of votes permitted for the specified dispute in the latest round.",
        "params": {
          "_disputeID": "The ID of the dispute."
        }
      },
      "getTimesPerPeriod(uint96)": {
        "details": "Gets the timesPerPeriod array for a given court.",
        "params": {
          "_courtID": "The ID of the court to get the times from."
        },
        "returns": {
          "timesPerPeriod": "The timesPerPeriod array for the given court."
        }
      },
      "initialize(address,address,address,address,bool,uint256[4],uint256[4],bytes,address)": {
        "details": "Initializer (constructor equivalent for upgradable contracts).",
        "params": {
          "_courtParameters": "Numeric parameters of General court (minStake, alpha, feeForJuror and jurorsForCourtJump respectively).",
          "_disputeKit": "The address of the default dispute kit.",
          "_governor": "The governor's address.",
          "_hiddenVotes": "The `hiddenVotes` property value of the general court.",
          "_jurorProsecutionModule": "The address of the juror prosecution module.",
          "_pinakion": "The address of the token contract.",
          "_sortitionExtraData": "The extra data for sortition module.",
          "_sortitionModuleAddress": "The sortition module responsible for sortition of the jurors.",
          "_timesPerPeriod": "The `timesPerPeriod` property value of the general court."
        }
      },
      "isDisputeKitJumping(uint256)": {
        "details": "Returns true if the dispute kit will be switched to a parent DK.",
        "params": {
          "_disputeID": "The ID of the dispute."
        },
        "returns": {
          "_0": "Whether DK will be switched or not."
        }
      },
      "passPeriod(uint256)": {
        "details": "Passes the period of a specified dispute.",
        "params": {
          "_disputeID": "The ID of the dispute."
        }
      },
      "proxiableUUID()": {
        "details": "Implementation of the ERC1822 `proxiableUUID` function. This returns the storage slot used by the implementation. It is used to validate the implementation's compatibility when performing an upgrade. IMPORTANT: A proxy pointing at a proxiable contract should not be considered proxiable itself, because this risks bricking a proxy that upgrades to it, by delegating to itself until out of gas. Thus it is critical that this function revert if invoked through a proxy. This is guaranteed by the if statement."
      },
      "setStake(uint96,uint256)": {
        "details": "Sets the caller's stake in a court.",
        "params": {
          "_courtID": "The ID of the court.",
          "_newStake": "The new stake."
        }
      },
      "upgradeToAndCall(address,bytes)": {
        "details": "Upgrade mechanism including access control and UUPS-compliance.Reverts if the execution is not performed via delegatecall or the execution context is not of a proxy with an ERC1967-compliant implementation pointing to self.",
        "params": {
          "data": "Data used in a delegate call to `newImplementation` if non-empty. This will typically be an encoded function call, and allows initializing the storage of the proxy like a Solidity constructor.",
          "newImplementation": "Address of the new implementation contract."
        }
      }
    },
    "title": "KlerosCore Core arbitrator contract for Kleros v2. Note that this contract trusts the PNK token, the dispute kit and the sortition module contracts.",
    "version": 1
  },
  "userdoc": {
    "errors": {
      "FailedDelegateCall()": [
        {
          "notice": "Failed Delegated call"
        }
      ],
      "InvalidImplementation(address)": [
        {
          "notice": "The `implementation` is not UUPS-compliant"
        }
      ]
    },
    "events": {
      "Upgraded(address)": {
        "notice": "Emitted when the `implementation` has been successfully upgraded."
      }
    },
    "kind": "user",
    "methods": {},
    "version": 1
  },
  "storageLayout": {
    "storage": [
      {
        "astId": 245,
        "contract": "src/arbitration/KlerosCore.sol:KlerosCore",
        "label": "governor",
        "offset": 0,
        "slot": "0",
        "type": "t_address"
      },
      {
        "astId": 248,
        "contract": "src/arbitration/KlerosCore.sol:KlerosCore",
        "label": "pinakion",
        "offset": 0,
        "slot": "1",
        "type": "t_contract(IERC20)77"
      },
      {
        "astId": 250,
        "contract": "src/arbitration/KlerosCore.sol:KlerosCore",
        "label": "jurorProsecutionModule",
        "offset": 0,
        "slot": "2",
        "type": "t_address"
      },
      {
        "astId": 253,
        "contract": "src/arbitration/KlerosCore.sol:KlerosCore",
        "label": "sortitionModule",
        "offset": 0,
        "slot": "3",
        "type": "t_contract(ISortitionModule)9478"
      },
      {
        "astId": 257,
        "contract": "src/arbitration/KlerosCore.sol:KlerosCore",
        "label": "courts",
        "offset": 0,
        "slot": "4",
        "type": "t_array(t_struct(Court)131_storage)dyn_storage"
      },
      {
        "astId": 261,
        "contract": "src/arbitration/KlerosCore.sol:KlerosCore",
        "label": "disputeKitNodes",
        "offset": 0,
        "slot": "5",
        "type": "t_array(t_struct(DisputeKitNode)198_storage)dyn_storage"
      },
      {
        "astId": 265,
        "contract": "src/arbitration/KlerosCore.sol:KlerosCore",
        "label": "disputes",
        "offset": 0,
        "slot": "6",
        "type": "t_array(t_struct(Dispute)148_storage)dyn_storage"
      },
      {
        "astId": 270,
        "contract": "src/arbitration/KlerosCore.sol:KlerosCore",
        "label": "jurors",
        "offset": 0,
        "slot": "7",
        "type": "t_mapping(t_address,t_struct(Juror)185_storage)"
      },
      {
        "astId": 276,
        "contract": "src/arbitration/KlerosCore.sol:KlerosCore",
        "label": "currencyRates",
        "offset": 0,
        "slot": "8",
        "type": "t_mapping(t_contract(IERC20)77,t_struct(CurrencyRate)218_storage)"
      }
    ],
    "types": {
      "t_address": {
        "encoding": "inplace",
        "label": "address",
        "numberOfBytes": "20"
      },
      "t_array(t_address)dyn_storage": {
        "base": "t_address",
        "encoding": "dynamic_array",
        "label": "address[]",
        "numberOfBytes": "32"
      },
      "t_array(t_struct(Court)131_storage)dyn_storage": {
        "base": "t_struct(Court)131_storage",
        "encoding": "dynamic_array",
        "label": "struct KlerosCore.Court[]",
        "numberOfBytes": "32"
      },
      "t_array(t_struct(Dispute)148_storage)dyn_storage": {
        "base": "t_struct(Dispute)148_storage",
        "encoding": "dynamic_array",
        "label": "struct KlerosCore.Dispute[]",
        "numberOfBytes": "32"
      },
      "t_array(t_struct(DisputeKitNode)198_storage)dyn_storage": {
        "base": "t_struct(DisputeKitNode)198_storage",
        "encoding": "dynamic_array",
        "label": "struct KlerosCore.DisputeKitNode[]",
        "numberOfBytes": "32"
      },
      "t_array(t_struct(Round)173_storage)dyn_storage": {
        "base": "t_struct(Round)173_storage",
        "encoding": "dynamic_array",
        "label": "struct KlerosCore.Round[]",
        "numberOfBytes": "32"
      },
      "t_array(t_uint256)4_storage": {
        "base": "t_uint256",
        "encoding": "inplace",
        "label": "uint256[4]",
        "numberOfBytes": "128"
      },
      "t_array(t_uint256)dyn_storage": {
        "base": "t_uint256",
        "encoding": "dynamic_array",
        "label": "uint256[]",
        "numberOfBytes": "32"
      },
      "t_array(t_uint96)dyn_storage": {
        "base": "t_uint96",
        "encoding": "dynamic_array",
        "label": "uint96[]",
        "numberOfBytes": "32"
      },
      "t_bool": {
        "encoding": "inplace",
        "label": "bool",
        "numberOfBytes": "1"
      },
      "t_contract(IArbitrableV2)9147": {
        "encoding": "inplace",
        "label": "contract IArbitrableV2",
        "numberOfBytes": "20"
      },
      "t_contract(IDisputeKit)9386": {
        "encoding": "inplace",
        "label": "contract IDisputeKit",
        "numberOfBytes": "20"
      },
      "t_contract(IERC20)77": {
        "encoding": "inplace",
        "label": "contract IERC20",
        "numberOfBytes": "20"
      },
      "t_contract(ISortitionModule)9478": {
        "encoding": "inplace",
        "label": "contract ISortitionModule",
        "numberOfBytes": "20"
      },
      "t_enum(Period)105": {
        "encoding": "inplace",
        "label": "enum KlerosCore.Period",
        "numberOfBytes": "1"
      },
      "t_mapping(t_address,t_struct(Juror)185_storage)": {
        "encoding": "mapping",
        "key": "t_address",
        "label": "mapping(address => struct KlerosCore.Juror)",
        "numberOfBytes": "32",
        "value": "t_struct(Juror)185_storage"
      },
      "t_mapping(t_contract(IERC20)77,t_struct(CurrencyRate)218_storage)": {
        "encoding": "mapping",
        "key": "t_contract(IERC20)77",
        "label": "mapping(contract IERC20 => struct KlerosCore.CurrencyRate)",
        "numberOfBytes": "32",
        "value": "t_struct(CurrencyRate)218_storage"
      },
      "t_mapping(t_uint256,t_bool)": {
        "encoding": "mapping",
        "key": "t_uint256",
        "label": "mapping(uint256 => bool)",
        "numberOfBytes": "32",
        "value": "t_bool"
      },
      "t_mapping(t_uint96,t_uint256)": {
        "encoding": "mapping",
        "key": "t_uint96",
        "label": "mapping(uint96 => uint256)",
        "numberOfBytes": "32",
        "value": "t_uint256"
      },
      "t_struct(Court)131_storage": {
        "encoding": "inplace",
        "label": "struct KlerosCore.Court",
        "members": [
          {
            "astId": 107,
            "contract": "src/arbitration/KlerosCore.sol:KlerosCore",
            "label": "parent",
            "offset": 0,
            "slot": "0",
            "type": "t_uint96"
          },
          {
            "astId": 109,
            "contract": "src/arbitration/KlerosCore.sol:KlerosCore",
            "label": "hiddenVotes",
            "offset": 12,
            "slot": "0",
            "type": "t_bool"
          },
          {
            "astId": 112,
            "contract": "src/arbitration/KlerosCore.sol:KlerosCore",
            "label": "children",
            "offset": 0,
            "slot": "1",
            "type": "t_array(t_uint256)dyn_storage"
          },
          {
            "astId": 114,
            "contract": "src/arbitration/KlerosCore.sol:KlerosCore",
            "label": "minStake",
            "offset": 0,
            "slot": "2",
            "type": "t_uint256"
          },
          {
            "astId": 116,
            "contract": "src/arbitration/KlerosCore.sol:KlerosCore",
            "label": "alpha",
            "offset": 0,
            "slot": "3",
            "type": "t_uint256"
          },
          {
            "astId": 118,
            "contract": "src/arbitration/KlerosCore.sol:KlerosCore",
            "label": "feeForJuror",
            "offset": 0,
            "slot": "4",
            "type": "t_uint256"
          },
          {
            "astId": 120,
            "contract": "src/arbitration/KlerosCore.sol:KlerosCore",
            "label": "jurorsForCourtJump",
            "offset": 0,
            "slot": "5",
            "type": "t_uint256"
          },
          {
            "astId": 124,
            "contract": "src/arbitration/KlerosCore.sol:KlerosCore",
            "label": "timesPerPeriod",
            "offset": 0,
            "slot": "6",
            "type": "t_array(t_uint256)4_storage"
          },
          {
            "astId": 128,
            "contract": "src/arbitration/KlerosCore.sol:KlerosCore",
            "label": "supportedDisputeKits",
            "offset": 0,
            "slot": "10",
            "type": "t_mapping(t_uint256,t_bool)"
          },
          {
            "astId": 130,
            "contract": "src/arbitration/KlerosCore.sol:KlerosCore",
            "label": "disabled",
            "offset": 0,
            "slot": "11",
            "type": "t_bool"
          }
        ],
        "numberOfBytes": "384"
      },
      "t_struct(CurrencyRate)218_storage": {
        "encoding": "inplace",
        "label": "struct KlerosCore.CurrencyRate",
        "members": [
          {
            "astId": 213,
            "contract": "src/arbitration/KlerosCore.sol:KlerosCore",
            "label": "feePaymentAccepted",
            "offset": 0,
            "slot": "0",
            "type": "t_bool"
          },
          {
            "astId": 215,
            "contract": "src/arbitration/KlerosCore.sol:KlerosCore",
            "label": "rateInEth",
            "offset": 1,
            "slot": "0",
            "type": "t_uint64"
          },
          {
            "astId": 217,
            "contract": "src/arbitration/KlerosCore.sol:KlerosCore",
            "label": "rateDecimals",
            "offset": 9,
            "slot": "0",
            "type": "t_uint8"
          }
        ],
        "numberOfBytes": "32"
      },
      "t_struct(Dispute)148_storage": {
        "encoding": "inplace",
        "label": "struct KlerosCore.Dispute",
        "members": [
          {
            "astId": 133,
            "contract": "src/arbitration/KlerosCore.sol:KlerosCore",
            "label": "courtID",
            "offset": 0,
            "slot": "0",
            "type": "t_uint96"
          },
          {
            "astId": 136,
            "contract": "src/arbitration/KlerosCore.sol:KlerosCore",
            "label": "arbitrated",
            "offset": 12,
            "slot": "0",
            "type": "t_contract(IArbitrableV2)9147"
          },
          {
            "astId": 139,
            "contract": "src/arbitration/KlerosCore.sol:KlerosCore",
            "label": "period",
            "offset": 0,
            "slot": "1",
            "type": "t_enum(Period)105"
          },
          {
            "astId": 141,
            "contract": "src/arbitration/KlerosCore.sol:KlerosCore",
            "label": "ruled",
            "offset": 1,
            "slot": "1",
            "type": "t_bool"
          },
          {
            "astId": 143,
            "contract": "src/arbitration/KlerosCore.sol:KlerosCore",
            "label": "lastPeriodChange",
            "offset": 0,
            "slot": "2",
            "type": "t_uint256"
          },
          {
            "astId": 147,
            "contract": "src/arbitration/KlerosCore.sol:KlerosCore",
            "label": "rounds",
            "offset": 0,
            "slot": "3",
            "type": "t_array(t_struct(Round)173_storage)dyn_storage"
          }
        ],
        "numberOfBytes": "128"
      },
      "t_struct(DisputeKitNode)198_storage": {
        "encoding": "inplace",
        "label": "struct KlerosCore.DisputeKitNode",
        "members": [
          {
            "astId": 187,
            "contract": "src/arbitration/KlerosCore.sol:KlerosCore",
            "label": "parent",
            "offset": 0,
            "slot": "0",
            "type": "t_uint256"
          },
          {
            "astId": 190,
            "contract": "src/arbitration/KlerosCore.sol:KlerosCore",
            "label": "children",
            "offset": 0,
            "slot": "1",
            "type": "t_array(t_uint256)dyn_storage"
          },
          {
            "astId": 193,
            "contract": "src/arbitration/KlerosCore.sol:KlerosCore",
            "label": "disputeKit",
            "offset": 0,
            "slot": "2",
            "type": "t_contract(IDisputeKit)9386"
          },
          {
            "astId": 195,
            "contract": "src/arbitration/KlerosCore.sol:KlerosCore",
            "label": "depthLevel",
            "offset": 0,
            "slot": "3",
            "type": "t_uint256"
          },
          {
            "astId": 197,
            "contract": "src/arbitration/KlerosCore.sol:KlerosCore",
            "label": "disabled",
            "offset": 0,
            "slot": "4",
            "type": "t_bool"
          }
        ],
        "numberOfBytes": "160"
      },
      "t_struct(Juror)185_storage": {
        "encoding": "inplace",
        "label": "struct KlerosCore.Juror",
        "members": [
          {
            "astId": 176,
            "contract": "src/arbitration/KlerosCore.sol:KlerosCore",
            "label": "courtIDs",
            "offset": 0,
            "slot": "0",
            "type": "t_array(t_uint96)dyn_storage"
          },
          {
            "astId": 178,
            "contract": "src/arbitration/KlerosCore.sol:KlerosCore",
            "label": "stakedPnk",
            "offset": 0,
            "slot": "1",
            "type": "t_uint256"
          },
          {
            "astId": 180,
            "contract": "src/arbitration/KlerosCore.sol:KlerosCore",
            "label": "lockedPnk",
            "offset": 0,
            "slot": "2",
            "type": "t_uint256"
          },
          {
            "astId": 184,
            "contract": "src/arbitration/KlerosCore.sol:KlerosCore",
            "label": "stakedPnkByCourt",
            "offset": 0,
            "slot": "3",
            "type": "t_mapping(t_uint96,t_uint256)"
          }
        ],
        "numberOfBytes": "128"
      },
      "t_struct(Round)173_storage": {
        "encoding": "inplace",
        "label": "struct KlerosCore.Round",
        "members": [
          {
            "astId": 150,
            "contract": "src/arbitration/KlerosCore.sol:KlerosCore",
            "label": "disputeKitID",
            "offset": 0,
            "slot": "0",
            "type": "t_uint256"
          },
          {
            "astId": 152,
            "contract": "src/arbitration/KlerosCore.sol:KlerosCore",
            "label": "pnkAtStakePerJuror",
            "offset": 0,
            "slot": "1",
            "type": "t_uint256"
          },
          {
            "astId": 154,
            "contract": "src/arbitration/KlerosCore.sol:KlerosCore",
            "label": "totalFeesForJurors",
            "offset": 0,
            "slot": "2",
            "type": "t_uint256"
          },
          {
            "astId": 156,
            "contract": "src/arbitration/KlerosCore.sol:KlerosCore",
            "label": "nbVotes",
            "offset": 0,
            "slot": "3",
            "type": "t_uint256"
          },
          {
            "astId": 158,
            "contract": "src/arbitration/KlerosCore.sol:KlerosCore",
            "label": "repartitions",
            "offset": 0,
            "slot": "4",
            "type": "t_uint256"
          },
          {
            "astId": 160,
            "contract": "src/arbitration/KlerosCore.sol:KlerosCore",
            "label": "pnkPenalties",
            "offset": 0,
            "slot": "5",
            "type": "t_uint256"
          },
          {
            "astId": 163,
            "contract": "src/arbitration/KlerosCore.sol:KlerosCore",
            "label": "drawnJurors",
            "offset": 0,
            "slot": "6",
            "type": "t_array(t_address)dyn_storage"
          },
          {
            "astId": 165,
            "contract": "src/arbitration/KlerosCore.sol:KlerosCore",
            "label": "sumFeeRewardPaid",
            "offset": 0,
            "slot": "7",
            "type": "t_uint256"
          },
          {
            "astId": 167,
            "contract": "src/arbitration/KlerosCore.sol:KlerosCore",
            "label": "sumPnkRewardPaid",
            "offset": 0,
            "slot": "8",
            "type": "t_uint256"
          },
          {
            "astId": 170,
            "contract": "src/arbitration/KlerosCore.sol:KlerosCore",
            "label": "feeToken",
            "offset": 0,
            "slot": "9",
            "type": "t_contract(IERC20)77"
          },
          {
            "astId": 172,
            "contract": "src/arbitration/KlerosCore.sol:KlerosCore",
            "label": "drawIterations",
            "offset": 0,
            "slot": "10",
            "type": "t_uint256"
          }
        ],
        "numberOfBytes": "352"
      },
      "t_uint256": {
        "encoding": "inplace",
        "label": "uint256",
        "numberOfBytes": "32"
      },
      "t_uint64": {
        "encoding": "inplace",
        "label": "uint64",
        "numberOfBytes": "8"
      },
      "t_uint8": {
        "encoding": "inplace",
        "label": "uint8",
        "numberOfBytes": "1"
      },
      "t_uint96": {
        "encoding": "inplace",
        "label": "uint96",
        "numberOfBytes": "12"
      }
    }
  }
}