{
  "address": "0xAbE6106f9f051af72eE2dB752061e2a0f081c10B",
  "abi": [
    {
      "inputs": [
        {
          "internalType": "address",
          "name": "_governor",
          "type": "address"
        },
        {
          "internalType": "contract IERC20",
          "name": "_pinakion",
          "type": "address"
        },
        {
          "internalType": "address",
          "name": "_jurorProsecutionModule",
          "type": "address"
        },
        {
          "internalType": "contract IDisputeKit",
          "name": "_disputeKit",
          "type": "address"
        },
        {
          "internalType": "bool",
          "name": "_hiddenVotes",
          "type": "bool"
        },
        {
          "internalType": "uint256[4]",
          "name": "_courtParameters",
          "type": "uint256[4]"
        },
        {
          "internalType": "uint256[4]",
          "name": "_timesPerPeriod",
          "type": "uint256[4]"
        },
        {
          "internalType": "bytes",
          "name": "_sortitionExtraData",
          "type": "bytes"
        },
        {
          "internalType": "contract ISortitionModule",
          "name": "_sortitionModuleAddress",
          "type": "address"
        }
      ],
      "stateMutability": "nonpayable",
      "type": "constructor"
    },
    {
      "inputs": [],
      "name": "AppealFeesNotEnough",
      "type": "error"
    },
    {
      "inputs": [],
      "name": "AppealPeriodNotPassed",
      "type": "error"
    },
    {
      "inputs": [],
      "name": "ArbitrationFeesNotEnough",
      "type": "error"
    },
    {
      "inputs": [],
      "name": "ArraysLengthMismatch",
      "type": "error"
    },
    {
      "inputs": [],
      "name": "CannotDisableRootDKInGeneral",
      "type": "error"
    },
    {
      "inputs": [],
      "name": "CommitPeriodNotPassed",
      "type": "error"
    },
    {
      "inputs": [],
      "name": "DepthLevelMax",
      "type": "error"
    },
    {
      "inputs": [],
      "name": "DisputeKitNotSupportedByCourt",
      "type": "error"
    },
    {
      "inputs": [],
      "name": "DisputeKitOnly",
      "type": "error"
    },
    {
      "inputs": [],
      "name": "DisputeNotAppealable",
      "type": "error"
    },
    {
      "inputs": [],
      "name": "DisputePeriodIsFinal",
      "type": "error"
    },
    {
      "inputs": [],
      "name": "DisputeStillDrawing",
      "type": "error"
    },
    {
      "inputs": [],
      "name": "EvidenceNotPassedAndNotAppeal",
      "type": "error"
    },
    {
      "inputs": [],
      "name": "GovernorOnly",
      "type": "error"
    },
    {
      "inputs": [],
      "name": "InvalidDisputKitParent",
      "type": "error"
    },
    {
      "inputs": [],
      "name": "InvalidForkingCourtAsParent",
      "type": "error"
    },
    {
      "inputs": [],
      "name": "MinStakeLowerThanParentCourt",
      "type": "error"
    },
    {
      "inputs": [],
      "name": "NotEvidencePeriod",
      "type": "error"
    },
    {
      "inputs": [],
      "name": "NotExecutionPeriod",
      "type": "error"
    },
    {
      "inputs": [],
      "name": "RulingAlreadyExecuted",
      "type": "error"
    },
    {
      "inputs": [],
      "name": "StakingFailed",
      "type": "error"
    },
    {
      "inputs": [],
      "name": "TokenNotAccepted",
      "type": "error"
    },
    {
      "inputs": [],
      "name": "UnsuccessfulCall",
      "type": "error"
    },
    {
      "inputs": [],
      "name": "UnsupportedDisputeKit",
      "type": "error"
    },
    {
      "inputs": [],
      "name": "VotePeriodNotPassed",
      "type": "error"
    },
    {
      "inputs": [],
      "name": "WrongCaller",
      "type": "error"
    },
    {
      "inputs": [],
      "name": "WrongDisputeKitIndex",
      "type": "error"
    },
    {
      "anonymous": false,
      "inputs": [
        {
          "indexed": true,
          "internalType": "contract IERC20",
          "name": "_token",
          "type": "address"
        },
        {
          "indexed": true,
          "internalType": "bool",
          "name": "_accepted",
          "type": "bool"
        }
      ],
      "name": "AcceptedFeeToken",
      "type": "event"
    },
    {
      "anonymous": false,
      "inputs": [
        {
          "indexed": true,
          "internalType": "uint256",
          "name": "_disputeID",
          "type": "uint256"
        },
        {
          "indexed": true,
          "internalType": "contract IArbitrableV2",
          "name": "_arbitrable",
          "type": "address"
        }
      ],
      "name": "AppealDecision",
      "type": "event"
    },
    {
      "anonymous": false,
      "inputs": [
        {
          "indexed": true,
          "internalType": "uint256",
          "name": "_disputeID",
          "type": "uint256"
        },
        {
          "indexed": true,
          "internalType": "contract IArbitrableV2",
          "name": "_arbitrable",
          "type": "address"
        }
      ],
      "name": "AppealPossible",
      "type": "event"
    },
    {
      "anonymous": false,
      "inputs": [
        {
          "indexed": true,
          "internalType": "uint256",
          "name": "_courtID",
          "type": "uint256"
        },
        {
          "indexed": true,
          "internalType": "uint96",
          "name": "_parent",
          "type": "uint96"
        },
        {
          "indexed": false,
          "internalType": "bool",
          "name": "_hiddenVotes",
          "type": "bool"
        },
        {
          "indexed": false,
          "internalType": "uint256",
          "name": "_minStake",
          "type": "uint256"
        },
        {
          "indexed": false,
          "internalType": "uint256",
          "name": "_alpha",
          "type": "uint256"
        },
        {
          "indexed": false,
          "internalType": "uint256",
          "name": "_feeForJuror",
          "type": "uint256"
        },
        {
          "indexed": false,
          "internalType": "uint256",
          "name": "_jurorsForCourtJump",
          "type": "uint256"
        },
        {
          "indexed": false,
          "internalType": "uint256[4]",
          "name": "_timesPerPeriod",
          "type": "uint256[4]"
        },
        {
          "indexed": false,
          "internalType": "uint256[]",
          "name": "_supportedDisputeKits",
          "type": "uint256[]"
        }
      ],
      "name": "CourtCreated",
      "type": "event"
    },
    {
      "anonymous": false,
      "inputs": [
        {
          "indexed": true,
          "internalType": "uint256",
          "name": "_disputeID",
          "type": "uint256"
        },
        {
          "indexed": true,
          "internalType": "uint256",
          "name": "_roundID",
          "type": "uint256"
        },
        {
          "indexed": true,
          "internalType": "uint96",
          "name": "_fromCourtID",
          "type": "uint96"
        },
        {
          "indexed": false,
          "internalType": "uint96",
          "name": "_toCourtID",
          "type": "uint96"
        }
      ],
      "name": "CourtJump",
      "type": "event"
    },
    {
      "anonymous": false,
      "inputs": [
        {
          "indexed": true,
          "internalType": "uint96",
          "name": "_courtID",
          "type": "uint96"
        },
        {
          "indexed": false,
          "internalType": "bool",
          "name": "_hiddenVotes",
          "type": "bool"
        },
        {
          "indexed": false,
          "internalType": "uint256",
          "name": "_minStake",
          "type": "uint256"
        },
        {
          "indexed": false,
          "internalType": "uint256",
          "name": "_alpha",
          "type": "uint256"
        },
        {
          "indexed": false,
          "internalType": "uint256",
          "name": "_feeForJuror",
          "type": "uint256"
        },
        {
          "indexed": false,
          "internalType": "uint256",
          "name": "_jurorsForCourtJump",
          "type": "uint256"
        },
        {
          "indexed": false,
          "internalType": "uint256[4]",
          "name": "_timesPerPeriod",
          "type": "uint256[4]"
        }
      ],
      "name": "CourtModified",
      "type": "event"
    },
    {
      "anonymous": false,
      "inputs": [
        {
          "indexed": true,
          "internalType": "uint256",
          "name": "_disputeID",
          "type": "uint256"
        },
        {
          "indexed": true,
          "internalType": "contract IArbitrableV2",
          "name": "_arbitrable",
          "type": "address"
        }
      ],
      "name": "DisputeCreation",
      "type": "event"
    },
    {
      "anonymous": false,
      "inputs": [
        {
          "indexed": true,
          "internalType": "uint256",
          "name": "_disputeKitID",
          "type": "uint256"
        },
        {
          "indexed": true,
          "internalType": "contract IDisputeKit",
          "name": "_disputeKitAddress",
          "type": "address"
        },
        {
          "indexed": true,
          "internalType": "uint256",
          "name": "_parent",
          "type": "uint256"
        }
      ],
      "name": "DisputeKitCreated",
      "type": "event"
    },
    {
      "anonymous": false,
      "inputs": [
        {
          "indexed": true,
          "internalType": "uint96",
          "name": "_courtID",
          "type": "uint96"
        },
        {
          "indexed": true,
          "internalType": "uint256",
          "name": "_disputeKitID",
          "type": "uint256"
        },
        {
          "indexed": true,
          "internalType": "bool",
          "name": "_enable",
          "type": "bool"
        }
      ],
      "name": "DisputeKitEnabled",
      "type": "event"
    },
    {
      "anonymous": false,
      "inputs": [
        {
          "indexed": true,
          "internalType": "uint256",
          "name": "_disputeID",
          "type": "uint256"
        },
        {
          "indexed": true,
          "internalType": "uint256",
          "name": "_roundID",
          "type": "uint256"
        },
        {
          "indexed": true,
          "internalType": "uint256",
          "name": "_fromDisputeKitID",
          "type": "uint256"
        },
        {
          "indexed": false,
          "internalType": "uint256",
          "name": "_toDisputeKitID",
          "type": "uint256"
        }
      ],
      "name": "DisputeKitJump",
      "type": "event"
    },
    {
      "anonymous": false,
      "inputs": [
        {
          "indexed": true,
          "internalType": "address",
          "name": "_address",
          "type": "address"
        },
        {
          "indexed": true,
          "internalType": "uint256",
          "name": "_disputeID",
          "type": "uint256"
        },
        {
          "indexed": false,
          "internalType": "uint256",
          "name": "_roundID",
          "type": "uint256"
        },
        {
          "indexed": false,
          "internalType": "uint256",
          "name": "_voteID",
          "type": "uint256"
        }
      ],
      "name": "Draw",
      "type": "event"
    },
    {
      "anonymous": false,
      "inputs": [
        {
          "indexed": true,
          "internalType": "uint256",
          "name": "_disputeID",
          "type": "uint256"
        },
        {
          "indexed": true,
          "internalType": "uint256",
          "name": "_roundID",
          "type": "uint256"
        },
        {
          "indexed": false,
          "internalType": "uint256",
          "name": "_pnkAmount",
          "type": "uint256"
        },
        {
          "indexed": false,
          "internalType": "uint256",
          "name": "_feeAmount",
          "type": "uint256"
        },
        {
          "indexed": false,
          "internalType": "contract IERC20",
          "name": "_feeToken",
          "type": "address"
        }
      ],
      "name": "LeftoverRewardSent",
      "type": "event"
    },
    {
      "anonymous": false,
      "inputs": [
        {
          "indexed": true,
          "internalType": "contract IERC20",
          "name": "_feeToken",
          "type": "address"
        },
        {
          "indexed": false,
          "internalType": "uint64",
          "name": "_rateInEth",
          "type": "uint64"
        },
        {
          "indexed": false,
          "internalType": "uint8",
          "name": "_rateDecimals",
          "type": "uint8"
        }
      ],
      "name": "NewCurrencyRate",
      "type": "event"
    },
    {
      "anonymous": false,
      "inputs": [
        {
          "indexed": true,
          "internalType": "uint256",
          "name": "_disputeID",
          "type": "uint256"
        },
        {
          "indexed": false,
          "internalType": "enum KlerosCore.Period",
          "name": "_period",
          "type": "uint8"
        }
      ],
      "name": "NewPeriod",
      "type": "event"
    },
    {
      "anonymous": false,
      "inputs": [
        {
          "indexed": true,
          "internalType": "contract IArbitrableV2",
          "name": "_arbitrable",
          "type": "address"
        },
        {
          "indexed": true,
          "internalType": "uint256",
          "name": "_disputeID",
          "type": "uint256"
        },
        {
          "indexed": false,
          "internalType": "uint256",
          "name": "_ruling",
          "type": "uint256"
        }
      ],
      "name": "Ruling",
      "type": "event"
    },
    {
      "anonymous": false,
      "inputs": [
        {
          "indexed": true,
          "internalType": "address",
          "name": "_address",
          "type": "address"
        },
        {
          "indexed": false,
          "internalType": "uint256",
          "name": "_courtID",
          "type": "uint256"
        },
        {
          "indexed": false,
          "internalType": "uint256",
          "name": "_amount",
          "type": "uint256"
        }
      ],
      "name": "StakeDelayed",
      "type": "event"
    },
    {
      "anonymous": false,
      "inputs": [
        {
          "indexed": true,
          "internalType": "address",
          "name": "_address",
          "type": "address"
        },
        {
          "indexed": false,
          "internalType": "uint256",
          "name": "_courtID",
          "type": "uint256"
        },
        {
          "indexed": false,
          "internalType": "uint256",
          "name": "_amount",
          "type": "uint256"
        }
      ],
      "name": "StakeSet",
      "type": "event"
    },
    {
      "anonymous": false,
      "inputs": [
        {
          "indexed": true,
          "internalType": "address",
          "name": "_account",
          "type": "address"
        },
        {
          "indexed": true,
          "internalType": "uint256",
          "name": "_disputeID",
          "type": "uint256"
        },
        {
          "indexed": true,
          "internalType": "uint256",
          "name": "_roundID",
          "type": "uint256"
        },
        {
          "indexed": false,
          "internalType": "uint256",
          "name": "_degreeOfCoherency",
          "type": "uint256"
        },
        {
          "indexed": false,
          "internalType": "int256",
          "name": "_pnkAmount",
          "type": "int256"
        },
        {
          "indexed": false,
          "internalType": "int256",
          "name": "_feeAmount",
          "type": "int256"
        },
        {
          "indexed": false,
          "internalType": "contract IERC20",
          "name": "_feeToken",
          "type": "address"
        }
      ],
      "name": "TokenAndETHShift",
      "type": "event"
    },
    {
      "inputs": [],
      "name": "ALPHA_DIVISOR",
      "outputs": [
        {
          "internalType": "uint256",
          "name": "",
          "type": "uint256"
        }
      ],
      "stateMutability": "view",
      "type": "function"
    },
    {
      "inputs": [],
      "name": "DEFAULT_NB_OF_JURORS",
      "outputs": [
        {
          "internalType": "uint256",
          "name": "",
          "type": "uint256"
        }
      ],
      "stateMutability": "view",
      "type": "function"
    },
    {
      "inputs": [],
      "name": "DISPUTE_KIT_CLASSIC",
      "outputs": [
        {
          "internalType": "uint256",
          "name": "",
          "type": "uint256"
        }
      ],
      "stateMutability": "view",
      "type": "function"
    },
    {
      "inputs": [],
      "name": "FORKING_COURT",
      "outputs": [
        {
          "internalType": "uint96",
          "name": "",
          "type": "uint96"
        }
      ],
      "stateMutability": "view",
      "type": "function"
    },
    {
      "inputs": [],
      "name": "GENERAL_COURT",
      "outputs": [
        {
          "internalType": "uint96",
          "name": "",
          "type": "uint96"
        }
      ],
      "stateMutability": "view",
      "type": "function"
    },
    {
      "inputs": [],
      "name": "NATIVE_CURRENCY",
      "outputs": [
        {
          "internalType": "contract IERC20",
          "name": "",
          "type": "address"
        }
      ],
      "stateMutability": "view",
      "type": "function"
    },
    {
      "inputs": [],
      "name": "NON_PAYABLE_AMOUNT",
      "outputs": [
        {
          "internalType": "uint256",
          "name": "",
          "type": "uint256"
        }
      ],
      "stateMutability": "view",
      "type": "function"
    },
    {
      "inputs": [],
      "name": "NULL_DISPUTE_KIT",
      "outputs": [
        {
          "internalType": "uint256",
          "name": "",
          "type": "uint256"
        }
      ],
      "stateMutability": "view",
      "type": "function"
    },
    {
      "inputs": [],
      "name": "SEARCH_ITERATIONS",
      "outputs": [
        {
          "internalType": "uint256",
          "name": "",
          "type": "uint256"
        }
      ],
      "stateMutability": "view",
      "type": "function"
    },
    {
      "inputs": [
        {
          "internalType": "contract IDisputeKit",
          "name": "_disputeKitAddress",
          "type": "address"
        },
        {
          "internalType": "uint256",
          "name": "_parent",
          "type": "uint256"
        }
      ],
      "name": "addNewDisputeKit",
      "outputs": [],
      "stateMutability": "nonpayable",
      "type": "function"
    },
    {
      "inputs": [
        {
          "internalType": "uint256",
          "name": "_disputeID",
          "type": "uint256"
        },
        {
          "internalType": "uint256",
          "name": "_numberOfChoices",
          "type": "uint256"
        },
        {
          "internalType": "bytes",
          "name": "_extraData",
          "type": "bytes"
        }
      ],
      "name": "appeal",
      "outputs": [],
      "stateMutability": "payable",
      "type": "function"
    },
    {
      "inputs": [
        {
          "internalType": "uint256",
          "name": "_disputeID",
          "type": "uint256"
        }
      ],
      "name": "appealCost",
      "outputs": [
        {
          "internalType": "uint256",
          "name": "cost",
          "type": "uint256"
        }
      ],
      "stateMutability": "view",
      "type": "function"
    },
    {
      "inputs": [
        {
          "internalType": "uint256",
          "name": "_disputeID",
          "type": "uint256"
        }
      ],
      "name": "appealPeriod",
      "outputs": [
        {
          "internalType": "uint256",
          "name": "start",
          "type": "uint256"
        },
        {
          "internalType": "uint256",
          "name": "end",
          "type": "uint256"
        }
      ],
      "stateMutability": "view",
      "type": "function"
    },
    {
      "inputs": [
        {
          "internalType": "bytes",
          "name": "_extraData",
          "type": "bytes"
        },
        {
          "internalType": "contract IERC20",
          "name": "_feeToken",
          "type": "address"
        }
      ],
      "name": "arbitrationCost",
      "outputs": [
        {
          "internalType": "uint256",
          "name": "cost",
          "type": "uint256"
        }
      ],
      "stateMutability": "view",
      "type": "function"
    },
    {
      "inputs": [
        {
          "internalType": "bytes",
          "name": "_extraData",
          "type": "bytes"
        }
      ],
      "name": "arbitrationCost",
      "outputs": [
        {
          "internalType": "uint256",
          "name": "cost",
          "type": "uint256"
        }
      ],
      "stateMutability": "view",
      "type": "function"
    },
    {
      "inputs": [
        {
          "internalType": "contract IERC20",
          "name": "_feeToken",
          "type": "address"
        },
        {
          "internalType": "bool",
          "name": "_accepted",
          "type": "bool"
        }
      ],
      "name": "changeAcceptedFeeTokens",
      "outputs": [],
      "stateMutability": "nonpayable",
      "type": "function"
    },
    {
      "inputs": [
        {
          "internalType": "uint96",
          "name": "_courtID",
          "type": "uint96"
        },
        {
          "internalType": "bool",
          "name": "_hiddenVotes",
          "type": "bool"
        },
        {
          "internalType": "uint256",
          "name": "_minStake",
          "type": "uint256"
        },
        {
          "internalType": "uint256",
          "name": "_alpha",
          "type": "uint256"
        },
        {
          "internalType": "uint256",
          "name": "_feeForJuror",
          "type": "uint256"
        },
        {
          "internalType": "uint256",
          "name": "_jurorsForCourtJump",
          "type": "uint256"
        },
        {
          "internalType": "uint256[4]",
          "name": "_timesPerPeriod",
          "type": "uint256[4]"
        }
      ],
      "name": "changeCourtParameters",
      "outputs": [],
      "stateMutability": "nonpayable",
      "type": "function"
    },
    {
      "inputs": [
        {
          "internalType": "contract IERC20",
          "name": "_feeToken",
          "type": "address"
        },
        {
          "internalType": "uint64",
          "name": "_rateInEth",
          "type": "uint64"
        },
        {
          "internalType": "uint8",
          "name": "_rateDecimals",
          "type": "uint8"
        }
      ],
      "name": "changeCurrencyRates",
      "outputs": [],
      "stateMutability": "nonpayable",
      "type": "function"
    },
    {
      "inputs": [
        {
          "internalType": "address payable",
          "name": "_governor",
          "type": "address"
        }
      ],
      "name": "changeGovernor",
      "outputs": [],
      "stateMutability": "nonpayable",
      "type": "function"
    },
    {
      "inputs": [
        {
          "internalType": "address",
          "name": "_jurorProsecutionModule",
          "type": "address"
        }
      ],
      "name": "changeJurorProsecutionModule",
      "outputs": [],
      "stateMutability": "nonpayable",
      "type": "function"
    },
    {
      "inputs": [
        {
          "internalType": "contract IERC20",
          "name": "_pinakion",
          "type": "address"
        }
      ],
      "name": "changePinakion",
      "outputs": [],
      "stateMutability": "nonpayable",
      "type": "function"
    },
    {
      "inputs": [
        {
          "internalType": "contract ISortitionModule",
          "name": "_sortitionModule",
          "type": "address"
        }
      ],
      "name": "changeSortitionModule",
      "outputs": [],
      "stateMutability": "nonpayable",
      "type": "function"
    },
    {
      "inputs": [
        {
          "internalType": "contract IERC20",
          "name": "_toToken",
          "type": "address"
        },
        {
          "internalType": "uint256",
          "name": "_amountInEth",
          "type": "uint256"
        }
      ],
      "name": "convertEthToTokenAmount",
      "outputs": [
        {
          "internalType": "uint256",
          "name": "",
          "type": "uint256"
        }
      ],
      "stateMutability": "view",
      "type": "function"
    },
    {
      "inputs": [
        {
          "internalType": "uint256",
          "name": "",
          "type": "uint256"
        }
      ],
      "name": "courts",
      "outputs": [
        {
          "internalType": "uint96",
          "name": "parent",
          "type": "uint96"
        },
        {
          "internalType": "bool",
          "name": "hiddenVotes",
          "type": "bool"
        },
        {
          "internalType": "uint256",
          "name": "minStake",
          "type": "uint256"
        },
        {
          "internalType": "uint256",
          "name": "alpha",
          "type": "uint256"
        },
        {
          "internalType": "uint256",
          "name": "feeForJuror",
          "type": "uint256"
        },
        {
          "internalType": "uint256",
          "name": "jurorsForCourtJump",
          "type": "uint256"
        },
        {
          "internalType": "bool",
          "name": "disabled",
          "type": "bool"
        }
      ],
      "stateMutability": "view",
      "type": "function"
    },
    {
      "inputs": [
        {
          "internalType": "uint96",
          "name": "_parent",
          "type": "uint96"
        },
        {
          "internalType": "bool",
          "name": "_hiddenVotes",
          "type": "bool"
        },
        {
          "internalType": "uint256",
          "name": "_minStake",
          "type": "uint256"
        },
        {
          "internalType": "uint256",
          "name": "_alpha",
          "type": "uint256"
        },
        {
          "internalType": "uint256",
          "name": "_feeForJuror",
          "type": "uint256"
        },
        {
          "internalType": "uint256",
          "name": "_jurorsForCourtJump",
          "type": "uint256"
        },
        {
          "internalType": "uint256[4]",
          "name": "_timesPerPeriod",
          "type": "uint256[4]"
        },
        {
          "internalType": "bytes",
          "name": "_sortitionExtraData",
          "type": "bytes"
        },
        {
          "internalType": "uint256[]",
          "name": "_supportedDisputeKits",
          "type": "uint256[]"
        }
      ],
      "name": "createCourt",
      "outputs": [],
      "stateMutability": "nonpayable",
      "type": "function"
    },
    {
      "inputs": [
        {
          "internalType": "uint256",
          "name": "_numberOfChoices",
          "type": "uint256"
        },
        {
          "internalType": "bytes",
          "name": "_extraData",
          "type": "bytes"
        }
      ],
      "name": "createDispute",
      "outputs": [
        {
          "internalType": "uint256",
          "name": "disputeID",
          "type": "uint256"
        }
      ],
      "stateMutability": "payable",
      "type": "function"
    },
    {
      "inputs": [
        {
          "internalType": "uint256",
          "name": "_numberOfChoices",
          "type": "uint256"
        },
        {
          "internalType": "bytes",
          "name": "_extraData",
          "type": "bytes"
        },
        {
          "internalType": "contract IERC20",
          "name": "_feeToken",
          "type": "address"
        },
        {
          "internalType": "uint256",
          "name": "_feeAmount",
          "type": "uint256"
        }
      ],
      "name": "createDispute",
      "outputs": [
        {
          "internalType": "uint256",
          "name": "disputeID",
          "type": "uint256"
        }
      ],
      "stateMutability": "nonpayable",
      "type": "function"
    },
    {
      "inputs": [
        {
          "internalType": "contract IERC20",
          "name": "",
          "type": "address"
        }
      ],
      "name": "currencyRates",
      "outputs": [
        {
          "internalType": "bool",
          "name": "feePaymentAccepted",
          "type": "bool"
        },
        {
          "internalType": "uint64",
          "name": "rateInEth",
          "type": "uint64"
        },
        {
          "internalType": "uint8",
          "name": "rateDecimals",
          "type": "uint8"
        }
      ],
      "stateMutability": "view",
      "type": "function"
    },
    {
      "inputs": [
        {
          "internalType": "uint256",
          "name": "_disputeID",
          "type": "uint256"
        }
      ],
      "name": "currentRuling",
      "outputs": [
        {
          "internalType": "uint256",
          "name": "ruling",
          "type": "uint256"
        },
        {
          "internalType": "bool",
          "name": "tied",
          "type": "bool"
        },
        {
          "internalType": "bool",
          "name": "overridden",
          "type": "bool"
        }
      ],
      "stateMutability": "view",
      "type": "function"
    },
    {
      "inputs": [
        {
          "internalType": "uint256",
          "name": "",
          "type": "uint256"
        }
      ],
      "name": "disputeKitNodes",
      "outputs": [
        {
          "internalType": "uint256",
          "name": "parent",
          "type": "uint256"
        },
        {
          "internalType": "contract IDisputeKit",
          "name": "disputeKit",
          "type": "address"
        },
        {
          "internalType": "uint256",
          "name": "depthLevel",
          "type": "uint256"
        },
        {
          "internalType": "bool",
          "name": "disabled",
          "type": "bool"
        }
      ],
      "stateMutability": "view",
      "type": "function"
    },
    {
      "inputs": [
        {
          "internalType": "uint256",
          "name": "",
          "type": "uint256"
        }
      ],
      "name": "disputes",
      "outputs": [
        {
          "internalType": "uint96",
          "name": "courtID",
          "type": "uint96"
        },
        {
          "internalType": "contract IArbitrableV2",
          "name": "arbitrated",
          "type": "address"
        },
        {
          "internalType": "enum KlerosCore.Period",
          "name": "period",
          "type": "uint8"
        },
        {
          "internalType": "bool",
          "name": "ruled",
          "type": "bool"
        },
        {
          "internalType": "uint256",
          "name": "lastPeriodChange",
          "type": "uint256"
        }
      ],
      "stateMutability": "view",
      "type": "function"
    },
    {
      "inputs": [
        {
          "internalType": "uint256",
          "name": "_disputeID",
          "type": "uint256"
        },
        {
          "internalType": "uint256",
          "name": "_iterations",
          "type": "uint256"
        }
      ],
      "name": "draw",
      "outputs": [],
      "stateMutability": "nonpayable",
      "type": "function"
    },
    {
      "inputs": [
        {
          "internalType": "uint96",
          "name": "_courtID",
          "type": "uint96"
        },
        {
          "internalType": "uint256[]",
          "name": "_disputeKitIDs",
          "type": "uint256[]"
        },
        {
          "internalType": "bool",
          "name": "_enable",
          "type": "bool"
        }
      ],
      "name": "enableDisputeKits",
      "outputs": [],
      "stateMutability": "nonpayable",
      "type": "function"
    },
    {
      "inputs": [
        {
          "internalType": "uint256",
          "name": "_disputeID",
          "type": "uint256"
        },
        {
          "internalType": "uint256",
          "name": "_round",
          "type": "uint256"
        },
        {
          "internalType": "uint256",
          "name": "_iterations",
          "type": "uint256"
        }
      ],
      "name": "execute",
      "outputs": [],
      "stateMutability": "nonpayable",
      "type": "function"
    },
    {
      "inputs": [
        {
          "internalType": "address",
          "name": "_destination",
          "type": "address"
        },
        {
          "internalType": "uint256",
          "name": "_amount",
          "type": "uint256"
        },
        {
          "internalType": "bytes",
          "name": "_data",
          "type": "bytes"
        }
      ],
      "name": "executeGovernorProposal",
      "outputs": [],
      "stateMutability": "nonpayable",
      "type": "function"
    },
    {
      "inputs": [
        {
          "internalType": "uint256",
          "name": "_disputeID",
          "type": "uint256"
        }
      ],
      "name": "executeRuling",
      "outputs": [],
      "stateMutability": "nonpayable",
      "type": "function"
    },
    {
      "inputs": [
        {
          "internalType": "uint256",
          "name": "_disputeKitID",
          "type": "uint256"
        }
      ],
      "name": "getDisputeKit",
      "outputs": [
        {
          "internalType": "contract IDisputeKit",
          "name": "",
          "type": "address"
        }
      ],
      "stateMutability": "view",
      "type": "function"
    },
    {
      "inputs": [
        {
          "internalType": "uint256",
          "name": "_disputeKitID",
          "type": "uint256"
        }
      ],
      "name": "getDisputeKitChildren",
      "outputs": [
        {
          "internalType": "uint256[]",
          "name": "",
          "type": "uint256[]"
        }
      ],
      "stateMutability": "view",
      "type": "function"
    },
    {
      "inputs": [],
      "name": "getDisputeKitNodesLength",
      "outputs": [
        {
          "internalType": "uint256",
          "name": "",
          "type": "uint256"
        }
      ],
      "stateMutability": "view",
      "type": "function"
    },
    {
      "inputs": [
        {
          "internalType": "address",
          "name": "_juror",
          "type": "address"
        },
        {
          "internalType": "uint96",
          "name": "_courtID",
          "type": "uint96"
        }
      ],
      "name": "getJurorBalance",
      "outputs": [
        {
          "internalType": "uint256",
          "name": "totalStaked",
          "type": "uint256"
        },
        {
          "internalType": "uint256",
          "name": "totalLocked",
          "type": "uint256"
        },
        {
          "internalType": "uint256",
          "name": "stakedInCourt",
          "type": "uint256"
        },
        {
          "internalType": "uint256",
          "name": "nbCourts",
          "type": "uint256"
        }
      ],
      "stateMutability": "view",
      "type": "function"
    },
    {
      "inputs": [
        {
          "internalType": "address",
          "name": "_juror",
          "type": "address"
        }
      ],
      "name": "getJurorCourtIDs",
      "outputs": [
        {
          "internalType": "uint96[]",
          "name": "",
          "type": "uint96[]"
        }
      ],
      "stateMutability": "view",
      "type": "function"
    },
    {
      "inputs": [
        {
          "internalType": "uint256",
          "name": "_disputeID",
          "type": "uint256"
        }
      ],
      "name": "getNumberOfRounds",
      "outputs": [
        {
          "internalType": "uint256",
          "name": "",
          "type": "uint256"
        }
      ],
      "stateMutability": "view",
      "type": "function"
    },
    {
      "inputs": [
        {
          "internalType": "uint256",
          "name": "_disputeID",
          "type": "uint256"
        }
      ],
      "name": "getNumberOfVotes",
      "outputs": [
        {
          "internalType": "uint256",
          "name": "",
          "type": "uint256"
        }
      ],
      "stateMutability": "view",
      "type": "function"
    },
    {
      "inputs": [
        {
          "internalType": "uint256",
          "name": "_disputeID",
          "type": "uint256"
        },
        {
          "internalType": "uint256",
          "name": "_round",
          "type": "uint256"
        }
      ],
      "name": "getRoundInfo",
      "outputs": [
        {
          "components": [
            {
              "internalType": "uint256",
              "name": "disputeKitID",
              "type": "uint256"
            },
            {
              "internalType": "uint256",
              "name": "pnkAtStakePerJuror",
              "type": "uint256"
            },
            {
              "internalType": "uint256",
              "name": "totalFeesForJurors",
              "type": "uint256"
            },
            {
              "internalType": "uint256",
              "name": "nbVotes",
              "type": "uint256"
            },
            {
              "internalType": "uint256",
              "name": "repartitions",
              "type": "uint256"
            },
            {
              "internalType": "uint256",
              "name": "pnkPenalties",
              "type": "uint256"
            },
            {
              "internalType": "address[]",
              "name": "drawnJurors",
              "type": "address[]"
            },
            {
              "internalType": "uint256",
              "name": "sumFeeRewardPaid",
              "type": "uint256"
            },
            {
              "internalType": "uint256",
              "name": "sumPnkRewardPaid",
              "type": "uint256"
            },
            {
              "internalType": "contract IERC20",
              "name": "feeToken",
              "type": "address"
            },
            {
              "internalType": "uint256",
              "name": "drawIterations",
              "type": "uint256"
            }
          ],
          "internalType": "struct KlerosCore.Round",
          "name": "",
          "type": "tuple"
        }
      ],
      "stateMutability": "view",
      "type": "function"
    },
    {
      "inputs": [
        {
          "internalType": "uint96",
          "name": "_courtID",
          "type": "uint96"
        }
      ],
      "name": "getTimesPerPeriod",
      "outputs": [
        {
          "internalType": "uint256[4]",
          "name": "timesPerPeriod",
          "type": "uint256[4]"
        }
      ],
      "stateMutability": "view",
      "type": "function"
    },
    {
      "inputs": [],
      "name": "governor",
      "outputs": [
        {
          "internalType": "address",
          "name": "",
          "type": "address"
        }
      ],
      "stateMutability": "view",
      "type": "function"
    },
    {
      "inputs": [
        {
          "internalType": "uint256",
          "name": "_disputeID",
          "type": "uint256"
        }
      ],
      "name": "isDisputeKitJumping",
      "outputs": [
        {
          "internalType": "bool",
          "name": "",
          "type": "bool"
        }
      ],
      "stateMutability": "view",
      "type": "function"
    },
    {
      "inputs": [
        {
          "internalType": "uint96",
          "name": "_courtID",
          "type": "uint96"
        },
        {
          "internalType": "uint256",
          "name": "_disputeKitID",
          "type": "uint256"
        }
      ],
      "name": "isSupported",
      "outputs": [
        {
          "internalType": "bool",
          "name": "",
          "type": "bool"
        }
      ],
      "stateMutability": "view",
      "type": "function"
    },
    {
      "inputs": [],
      "name": "jurorProsecutionModule",
      "outputs": [
        {
          "internalType": "address",
          "name": "",
          "type": "address"
        }
      ],
      "stateMutability": "view",
      "type": "function"
    },
    {
      "inputs": [
        {
          "internalType": "uint256",
          "name": "_disputeID",
          "type": "uint256"
        }
      ],
      "name": "passPeriod",
      "outputs": [],
      "stateMutability": "nonpayable",
      "type": "function"
    },
    {
      "inputs": [],
      "name": "pinakion",
      "outputs": [
        {
          "internalType": "contract IERC20",
          "name": "",
          "type": "address"
        }
      ],
      "stateMutability": "view",
      "type": "function"
    },
    {
      "inputs": [
        {
          "internalType": "uint96",
          "name": "_courtID",
          "type": "uint96"
        },
        {
          "internalType": "uint256",
          "name": "_newStake",
          "type": "uint256"
        }
      ],
      "name": "setStake",
      "outputs": [],
      "stateMutability": "nonpayable",
      "type": "function"
    },
    {
      "inputs": [
        {
          "internalType": "address",
          "name": "_account",
          "type": "address"
        },
        {
          "internalType": "uint96",
          "name": "_courtID",
          "type": "uint96"
        },
        {
          "internalType": "uint256",
          "name": "_newStake",
          "type": "uint256"
        }
      ],
      "name": "setStakeBySortitionModule",
      "outputs": [],
      "stateMutability": "nonpayable",
      "type": "function"
    },
    {
      "inputs": [],
      "name": "sortitionModule",
      "outputs": [
        {
          "internalType": "contract ISortitionModule",
          "name": "",
          "type": "address"
        }
      ],
      "stateMutability": "view",
      "type": "function"
    }
  ],
  "transactionHash": "0xce92ae764134214f2b4fb42102c71940358d89e5065e90471818110b44a872df",
  "args": [
    "0xF50E77f2A2B6138D16c6c7511562E5C33c4B15A3",
    "0x3483FA1b87792cd5BE4100822C4eCEC8D3E531ee",
    "0x0000000000000000000000000000000000000000",
    "0x848DB6FBE64b06d58cD9D58820a4FB2F70537F2b",
    false,
    [
      "200000000000000000000",
      10000,
      "100000000000000000",
      256
    ],
    [
      0,
      0,
      0,
      10
    ],
    "0x05",
    "0x6f3b3c8d72Af21102088C8b3F07Ee97b166a21b2"
  ],
  "numDeployments": 4,
  "solcInputHash": "7b7733e7f1a8859e8b5512131ec1d587",
  "bytecode": "0x60806040523480156200001157600080fd5b50604051620061533803806200615383398101604081905262000034916200065f565b600080546001600160a01b038b81166001600160a01b0319928316178355600180548c8316908416178155600280548c841690851617815560038054878516951694909417909355600580546040805160a081018252878152815188815260208082018452808301918252968f1692820192909252606081018890526080810188905295820183559582905284519201027f036b6384b5eca791c62761152d0c79bb0604c104a5fb6f4eb0703f3154bb3db08101918255935180519394919362000128937f036b6384b5eca791c62761152d0c79bb0604c104a5fb6f4eb0703f3154bb3db19093019291909101906200045c565b506040828101516002830180546001600160a01b0319166001600160a01b03928316179055606084015160038401556080909301516004909201805460ff191692151592909217909155516000918816906001907f7921860794ac14fda09ee75f7160a5a3d266e3352f7954d0401606a92a26c498908490a460048054600101815560008181526003546040516311de995760e21b81526001600160a01b039091169263477a655c92620001e19290918791016200074c565b600060405180830381600087803b158015620001fc57600080fd5b505af115801562000211573d6000803e3d6000fd5b5050600480546001810182556000918252600c027f8a35acfbc15ff81a39ae7d344fd709f28e8600b4aa8c65c6b64bfe7fe36bd19b0180546001600160601b031916815560408051838152602081019091529093509150508051620002819160018401916020909101906200045c565b50805460ff60601b19166c01000000000000000000000000871515021781558451600282015560208501516003820155604085015160048083019190915560608601516005830155620002db9060068301908690620004ac565b506003546040516311de995760e21b81526001600160a01b039091169063477a655c90620003119060019087906004016200074c565b600060405180830381600087803b1580156200032c57600080fd5b505af115801562000341573d6000803e3d6000fd5b5050825487516020808a01516040808c015160608d0151825160008152948501928390526001600160601b039096169750600196507f3475f0ed7216dd7d453db663a1c3024e4f36cc925521d54edb9d13e022cbee3d95620003ab958f959094938e91906200079e565b60405180910390a3620003c160018080620003d1565b505050505050505050506200083a565b806004846001600160601b031681548110620003f157620003f162000788565b60009182526020808320868452600c92909202909101600a0190526040808220805460ff19169315159390931790925590518215159184916001600160601b038716917fb47629acdf64971062d40984f77d3dee212d735b11e3e8c7a4222d9f0572cc7991a4505050565b8280548282559060005260206000209081019282156200049a579160200282015b828111156200049a5782518255916020019190600101906200047d565b50620004a8929150620004dc565b5090565b82600481019282156200049a57916020028201828111156200049a5782518255916020019190600101906200047d565b5b80821115620004a85760008155600101620004dd565b6001600160a01b03811681146200050957600080fd5b50565b634e487b7160e01b600052604160045260246000fd5b600082601f8301126200053457600080fd5b604051608081016001600160401b03811182821017156200055957620005596200050c565b6040528060808401858111156200056f57600080fd5b845b818110156200058b57805183526020928301920162000571565b509195945050505050565b60005b83811015620005b357818101518382015260200162000599565b50506000910152565b600082601f830112620005ce57600080fd5b81516001600160401b0380821115620005eb57620005eb6200050c565b604051601f8301601f19908116603f011681019082821181831017156200061657620006166200050c565b816040528381528660208588010111156200063057600080fd5b6200064384602083016020890162000596565b9695505050505050565b80516200065a81620004f3565b919050565b60008060008060008060008060006101e08a8c0312156200067f57600080fd5b89516200068c81620004f3565b60208b01519099506200069f81620004f3565b60408b0151909850620006b281620004f3565b60608b0151909750620006c581620004f3565b60808b01519096508015158114620006dc57600080fd5b9450620006ed8b60a08c0162000522565b9350620006ff8b6101208c0162000522565b6101a08b01519093506001600160401b038111156200071d57600080fd5b6200072b8c828d01620005bc565b9250506200073d6101c08b016200064d565b90509295985092959850929598565b82815260406020820152600082518060408401526200077381606085016020870162000596565b601f01601f1916919091016060019392505050565b634e487b7160e01b600052603260045260246000fd5b60006101408083018a1515845260208a8186015289604086015288606086015287608086015260a085018760005b6004811015620007eb57815183529183019190830190600101620007cc565b5050506101208501929092528451908190526101608401918086019160005b8181101562000828578351855293820193928201926001016200080a565b50929c9b505050505050505050505050565b615909806200084a6000396000f3fe6080604052600436106102d45760003560e01c8063751accd01161017b578063c258bb19116100d7578063e4c0aaf411610085578063e4c0aaf414610a20578063f12ada8b14610a40578063f6506db414610a60578063f7434ea914610a80578063fbf405b014610aa0578063fc6f8f1614610ac0578063fe524c3914610ae057600080fd5b8063c258bb19146108ef578063c35699021461090f578063c71f425314610922578063cf0c38f814610942578063d1c1df4814610962578063d2b8035a146109e0578063d98493f614610a0057600080fd5b80638a9bb02a116101345780638a9bb02a146108055780638bb0487514610832578063a072b86c14610852578063afe15cfb14610872578063b0049637146108a7578063bcb1a166146108c7578063c13517e1146108dc57600080fd5b8063751accd01461074a5780637717a6e81461076a5780637934c0be1461078a57806382d02237146107aa578063840bc19c146107ca57806386541b24146107e557600080fd5b806327e6ec8a1161023557806349f42650116101e357806349f4265014610678578063543f8a361461068d578063564a565d146106ba57806359ec827e146106eb5780635ea5c0381461070b5780636235593f146107205780636c1eb1b91461073557600080fd5b806327e6ec8a146105865780632d29a47b146105b35780632e1daf2f146105d35780632ea7b4d0146105f357806334d5fb31146106095780633cfd11841461061e57806343d4137f1461064b57600080fd5b80630d83b940116102925780630d83b94014610435578063115d5376146104585780631860592b146104785780631956b1f91461049857806319b81529146104b85780631c3db16d146104e85780631f5a0dd21461052557600080fd5b8062f5822c146102d95780630219da79146102fb5780630761c14d146103735780630b7414bc146103935780630c340a24146103b35780630d1b9d1a146103eb575b600080fd5b3480156102e557600080fd5b506102f96102f4366004614b1f565b610b00565b005b34801561030757600080fd5b50610346610316366004614b1f565b60086020526000908152604090205460ff808216916001600160401b0361010082041691600160481b9091041683565b6040805193151584526001600160401b03909216602084015260ff16908201526060015b60405180910390f35b34801561037f57600080fd5b506102f961038e366004614b58565b610b4d565b34801561039f57600080fd5b506102f96103ae366004614c5e565b610b89565b3480156103bf57600080fd5b506000546103d3906001600160a01b031681565b6040516001600160a01b03909116815260200161036a565b3480156103f757600080fd5b5061040b610406366004614cbf565b610cfe565b604080519485526001600160a01b039093166020850152918301521515606082015260800161036a565b34801561044157600080fd5b5061044a600181565b60405190815260200161036a565b34801561046457600080fd5b506102f9610473366004614cbf565b610d44565b34801561048457600080fd5b5061044a610493366004614cd8565b611286565b3480156104a457600080fd5b506103d36104b3366004614cbf565b6112e2565b3480156104c457600080fd5b506104d86104d3366004614cbf565b61131a565b604051901515815260200161036a565b3480156104f457600080fd5b50610508610503366004614cbf565b611413565b60408051938452911515602084015215159082015260600161036a565b34801561053157600080fd5b50610545610540366004614cbf565b61151c565b604080516001600160601b0390981688529515156020880152948601939093526060850191909152608084015260a0830152151560c082015260e00161036a565b34801561059257600080fd5b5061059b600081565b6040516001600160601b03909116815260200161036a565b3480156105bf57600080fd5b506102f96105ce366004614d04565b61157b565b3480156105df57600080fd5b506003546103d3906001600160a01b031681565b3480156105ff57600080fd5b5061044a61271081565b34801561061557600080fd5b5061059b600181565b34801561062a57600080fd5b5061063e610639366004614d30565b6117c3565b60405161036a9190614d6e565b34801561065757600080fd5b5061066b610666366004614cbf565b611834565b60405161036a9190614db7565b34801561068457600080fd5b506103d3600081565b34801561069957600080fd5b506106ad6106a8366004614b1f565b6118b0565b60405161036a9190614dca565b3480156106c657600080fd5b506106da6106d5366004614cbf565b61194c565b60405161036a959493929190614e4f565b3480156106f757600080fd5b5061044a610706366004614cbf565b6119a8565b34801561071757600080fd5b5060055461044a565b34801561072c57600080fd5b5061044a600081565b34801561074157600080fd5b5061044a600a81565b34801561075657600080fd5b506102f9610765366004614efd565b611afd565b34801561077657600080fd5b506102f9610785366004614f55565b611ba7565b34801561079657600080fd5b506102f96107a5366004614f71565b611bd3565b3480156107b657600080fd5b506102f96107c5366004614faa565b611c52565b3480156107d657600080fd5b5061044a6001600160ff1b0381565b3480156107f157600080fd5b506102f9610800366004615069565b611d14565b34801561081157600080fd5b506108256108203660046150d7565b612049565b60405161036a9190615132565b34801561083e57600080fd5b506102f961084d366004614cbf565b6121d5565b34801561085e57600080fd5b506102f961086d3660046151d7565b612339565b34801561087e57600080fd5b5061089261088d366004614cbf565b612678565b6040805192835260208301919091520161036a565b3480156108b357600080fd5b506102f96108c2366004614b1f565b612724565b3480156108d357600080fd5b5061044a600381565b61044a6108ea366004615297565b612771565b3480156108fb57600080fd5b506102f961090a366004614b1f565b6127b0565b6102f961091d3660046152dd565b6127fd565b34801561092e57600080fd5b5061044a61093d366004614cbf565b612de5565b34801561094e57600080fd5b506002546103d3906001600160a01b031681565b34801561096e57600080fd5b506109c061097d366004615316565b6001600160a01b039091166000908152600760209081526040808320600181015460028201546001600160601b0390961685526003820190935292205491549093565b60408051948552602085019390935291830152606082015260800161036a565b3480156109ec57600080fd5b506102f96109fb3660046150d7565b612e4d565b348015610a0c57600080fd5b5061044a610a1b366004615393565b613134565b348015610a2c57600080fd5b506102f9610a3b366004614b1f565b613181565b348015610a4c57600080fd5b506102f9610a5b366004614cd8565b6131ce565b348015610a6c57600080fd5b5061044a610a7b3660046153de565b6133f1565b348015610a8c57600080fd5b5061044a610a9b366004615444565b6134fa565b348015610aac57600080fd5b506001546103d3906001600160a01b031681565b348015610acc57600080fd5b5061044a610adb366004614cbf565b613546565b348015610aec57600080fd5b506104d8610afb366004614f55565b613575565b6000546001600160a01b03163314610b2b5760405163c383977560e01b815260040160405180910390fd5b600180546001600160a01b0319166001600160a01b0392909216919091179055565b6003546001600160a01b03163314610b785760405163068690bf60e11b815260040160405180910390fd5b610b838383836135bd565b50505050565b6000546001600160a01b03163314610bb45760405163c383977560e01b815260040160405180910390fd5b60005b8251811015610b83578115610c5357828181518110610bd857610bd8615478565b602002602001015160001480610c0b57506005548351849083908110610c0057610c00615478565b602002602001015110155b15610c2957604051633d58a98960e11b815260040160405180910390fd5b610c4e84848381518110610c3f57610c3f615478565b60200260200101516001613b62565b610cec565b6001600160601b0384166001148015610ca9575060006005848381518110610c7d57610c7d615478565b602002602001015181548110610c9557610c95615478565b906000526020600020906005020160000154145b15610cc757604051630c6e81c960e11b815260040160405180910390fd5b610cec84848381518110610cdd57610cdd615478565b60200260200101516000613b62565b80610cf6816154a4565b915050610bb7565b60058181548110610d0e57600080fd5b600091825260209091206005909102018054600282015460038301546004909301549193506001600160a01b0316919060ff1684565b600060068281548110610d5957610d59615478565b600091825260208220600491820201805482549194506001600160601b0316908110610d8757610d87615478565b6000918252602082206003850154600c909202019250610da9906001906154bd565b90506000836003018281548110610dc257610dc2615478565b600091825260208220600b909102019150600185015460ff166004811115610dec57610dec614e17565b03610ec75781158015610e3b57506001840154600684019060ff166004811115610e1857610e18614e17565b60048110610e2857610e28615478565b01546002850154610e3990426154bd565b105b15610e5957604051633e9727df60e01b815260040160405180910390fd5b6003810154600682015414610e81576040516309e4486b60e41b815260040160405180910390fd5b8254600160601b900460ff16610e98576002610e9b565b60015b60018086018054909160ff1990911690836004811115610ebd57610ebd614e17565b0217905550611238565b60018085015460ff166004811115610ee157610ee1614e17565b03610ff9576001840154600684019060ff166004811115610f0457610f04614e17565b60048110610f1457610f14615478565b01546002850154610f2590426154bd565b108015610fc457506005816000015481548110610f4457610f44615478565b6000918252602090912060059091020160020154604051630baa64d160e01b8152600481018790526001600160a01b0390911690630baa64d190602401602060405180830381865afa158015610f9e573d6000803e3d6000fd5b505050506040513d601f19601f82011682018060405250810190610fc291906154d0565b155b15610fe257604051634dfa578560e11b815260040160405180910390fd5b6001808501805460029260ff199091169083610ebd565b6002600185015460ff16600481111561101457611014614e17565b0361116a576001840154600684019060ff16600481111561103757611037614e17565b6004811061104757611047615478565b0154600285015461105890426154bd565b1080156110f75750600581600001548154811061107757611077615478565b60009182526020909120600590910201600201546040516336a66c7560e11b8152600481018790526001600160a01b0390911690636d4cd8ea90602401602060405180830381865afa1580156110d1573d6000803e3d6000fd5b505050506040513d601f19601f820116820180604052508101906110f591906154d0565b155b1561111557604051631988dead60e31b815260040160405180910390fd5b600184018054600360ff199091161790558354604051600160601b9091046001600160a01b03169086907fa5d41b970d849372be1da1481ffd78d162bfe57a7aa2fe4e5fb73481fa5ac24f90600090a3611238565b6003600185015460ff16600481111561118557611185614e17565b036111ff576001840154600684019060ff1660048111156111a8576111a8614e17565b600481106111b8576111b8615478565b015460028501546111c990426154bd565b10156111e857604051632f4dfd8760e01b815260040160405180910390fd5b6001808501805460049260ff199091169083610ebd565b6004600185015460ff16600481111561121a5761121a614e17565b03611238576040516307f38c8f60e11b815260040160405180910390fd5b426002850155600184015460405186917f4e6f5cf43b95303e86aee81683df63992061723a829ee012db21dad388756b91916112779160ff16906154ed565b60405180910390a25050505050565b6001600160a01b0382166000908152600860205260408120805461010081046001600160401b0316906112c490600160481b900460ff16600a6155df565b6112ce90856155ee565b6112d8919061561b565b9150505b92915050565b6000600582815481106112f7576112f7615478565b60009182526020909120600260059092020101546001600160a01b031692915050565b6000806006838154811061133057611330615478565b6000918252602082206003600490920201908101805491935090611356906001906154bd565b8154811061136657611366615478565b600091825260208220845460048054600b909402909201945090916001600160601b0390911690811061139b5761139b615478565b90600052602060002090600c020190508060050154826003015410156113c657506000949350505050565b80546004805490916001600160601b03169081106113e6576113e6615478565b6000918252602080832094548352600a600c9092029094010190925250604090205460ff16159392505050565b6000806000806006858154811061142c5761142c615478565b6000918252602082206003600490920201908101805491935090611452906001906154bd565b8154811061146257611462615478565b90600052602060002090600b020190506000600582600001548154811061148b5761148b615478565b6000918252602090912060059091020160020154604051631c3db16d60e01b8152600481018990526001600160a01b0390911691508190631c3db16d90602401606060405180830381865afa1580156114e8573d6000803e3d6000fd5b505050506040513d601f19601f8201168201806040525081019061150c919061562f565b9199909850909650945050505050565b6004818154811061152c57600080fd5b60009182526020909120600c9091020180546002820154600383015460048401546005850154600b909501546001600160601b038516965060ff600160601b9095048516959394929391921687565b60006006848154811061159057611590615478565b600091825260209091206004918202019150600182015460ff1660048111156115bb576115bb614e17565b146115d957604051638794ce4b60e01b815260040160405180910390fd5b60008160030184815481106115f0576115f0615478565b90600052602060002090600b020190506000600582600001548154811061161957611619615478565b6000918252602082206002600590920201015460048401546001600160a01b039091169250906116498683615667565b6005850154600686015460405163368efae360e21b8152600481018c9052602481018b905292935090916000906001600160a01b0387169063da3beb8c90604401602060405180830381865afa1580156116a7573d6000803e3d6000fd5b505050506040513d601f19601f820116820180604052508101906116cb919061567a565b9050806000036116e657818411156116e1578193505b611706565b6116f18260026155ee565b841115611706576117038260026155ee565b93505b60048701849055845b848110156117a2578281101561175b576117546040518060c001604052808e81526020018d815260200184815260200185815260200186815260200183815250613bea565b9350611790565b6117906040518060c001604052808e81526020018d815260200184815260200185815260200186815260200183815250614088565b8061179a816154a4565b91505061170f565b50828760050154146117b657600587018390555b5050505050505050505050565b6117cb614a5c565b60006004836001600160601b0316815481106117e9576117e9615478565b60009182526020909120604080516080810191829052600c9093029091019250600683019060049082845b815481526020019060010190808311611814575050505050915050919050565b60606005828154811061184957611849615478565b90600052602060002090600502016001018054806020026020016040519081016040528092919081815260200182805480156118a457602002820191906000526020600020905b815481526020019060010190808311611890575b50505050509050919050565b6001600160a01b0381166000908152600760209081526040918290208054835181840281018401909452808452606093928301828280156118a457602002820191906000526020600020906000905b82829054906101000a90046001600160601b03166001600160601b0316815260200190600c0190602082600b010492830192600103820291508084116118ff575094979650505050505050565b6006818154811061195c57600080fd5b60009182526020909120600490910201805460018201546002909201546001600160601b0382169350600160601b9091046001600160a01b03169160ff80821692610100909204169085565b600080600683815481106119be576119be615478565b60009182526020822060036004909202019081018054919350906119e4906001906154bd565b815481106119f4576119f4615478565b600091825260208220845460048054600b909402909201945090916001600160601b03909116908110611a2957611a29615478565b90600052602060002090600c020190508060050154826003015410611ac85782546001600160601b031660001901611a6a576001600160ff1b039350611af5565b6003820154611a7a9060026155ee565b611a85906001615667565b81546004805490916001600160601b0316908110611aa557611aa5615478565b90600052602060002090600c020160040154611ac191906155ee565b9350611af5565b6003820154611ad89060026155ee565b611ae3906001615667565b8160040154611af291906155ee565b93505b505050919050565b6000546001600160a01b03163314611b285760405163c383977560e01b815260040160405180910390fd5b6000836001600160a01b03168383604051611b4391906156b7565b60006040518083038185875af1925050503d8060008114611b80576040519150601f19603f3d011682016040523d82523d6000602084013e611b85565b606091505b5050905080610b83576040516322092f2f60e11b815260040160405180910390fd5b611bb23383836135bd565b611bcf5760405163a437293760e01b815260040160405180910390fd5b5050565b6000546001600160a01b03163314611bfe5760405163c383977560e01b815260040160405180910390fd5b6001600160a01b038216600081815260086020526040808220805460ff191685151590811790915590519092917f541615e167511d757a7067a700eb54431b256bb458dfdce0ac58bf2ed0aefd4491a35050565b6000546001600160a01b03163314611c7d5760405163c383977560e01b815260040160405180910390fd5b6001600160a01b038316600081815260086020908152604091829020805469ffffffffffffffffff0019166101006001600160401b03881690810260ff60481b191691909117600160481b60ff881690810291909117835584519182529281019290925292917fe6996b7f03e9bd02228b99d3d946932e3197f505f60542c4cfbc919441d8a4e6910160405180910390a250505050565b6000546001600160a01b03163314611d3f5760405163c383977560e01b815260040160405180910390fd5b6001600160601b038716600114801590611db3575084600480896001600160601b031681548110611d7257611d72615478565b60009182526020909120600c909102015481546001600160601b03909116908110611d9f57611d9f615478565b90600052602060002090600c020160020154115b15611dd157604051639717078960e01b815260040160405180910390fd5b60005b6004886001600160601b031681548110611df057611df0615478565b90600052602060002090600c020160010180549050811015611eaa57856004808a6001600160601b031681548110611e2a57611e2a615478565b90600052602060002090600c02016001018381548110611e4c57611e4c615478565b906000526020600020015481548110611e6757611e67615478565b90600052602060002090600c0201600201541015611e9857604051639717078960e01b815260040160405180910390fd5b80611ea2816154a4565b915050611dd4565b50846004886001600160601b031681548110611ec857611ec8615478565b90600052602060002090600c020160020181905550856004886001600160601b031681548110611efa57611efa615478565b90600052602060002090600c0201600001600c6101000a81548160ff021916908315150217905550836004886001600160601b031681548110611f3f57611f3f615478565b90600052602060002090600c020160030181905550826004886001600160601b031681548110611f7157611f71615478565b90600052602060002090600c020160040181905550816004886001600160601b031681548110611fa357611fa3615478565b90600052602060002090600c020160050181905550806004886001600160601b031681548110611fd557611fd5615478565b90600052602060002090600c0201600601906004611ff4929190614a7a565b50866001600160601b03167f709b1f5fda58af9a4f52dacd1ec404840a8148455700cce155a2bd8cf127ef1a878787878787604051612038969594939291906156d3565b60405180910390a250505050505050565b6120af60405180610160016040528060008152602001600081526020016000815260200160008152602001600081526020016000815260200160608152602001600081526020016000815260200160006001600160a01b03168152602001600081525090565b600683815481106120c2576120c2615478565b906000526020600020906004020160030182815481106120e4576120e4615478565b90600052602060002090600b0201604051806101600160405290816000820154815260200160018201548152602001600282015481526020016003820154815260200160048201548152602001600582015481526020016006820180548060200260200160405190810160405280929190818152602001828054801561219357602002820191906000526020600020905b81546001600160a01b03168152600190910190602001808311612175575b5050509183525050600782015460208201526008820154604082015260098201546001600160a01b03166060820152600a909101546080909101529392505050565b6000600682815481106121ea576121ea615478565b600091825260209091206004918202019150600182015460ff16600481111561221557612215614e17565b1461223357604051638794ce4b60e01b815260040160405180910390fd5b6001810154610100900460ff161561225e5760405163c977f8d360e01b815260040160405180910390fd5b600061226983611413565b505060018301805461010061ff001990911617905582546040518281529192508491600160601b9091046001600160a01b0316907f394027a5fa6e098a1191094d1719d6929b9abc535fcc0c8f448d6a4e756222769060200160405180910390a3815460405163188d362b60e11b81526004810185905260248101839052600160601b9091046001600160a01b03169063311a6c5690604401600060405180830381600087803b15801561231c57600080fd5b505af1158015612330573d6000803e3d6000fd5b50505050505050565b6000546001600160a01b031633146123645760405163c383977560e01b815260040160405180910390fd5b8660048a6001600160601b03168154811061238157612381615478565b90600052602060002090600c02016002015411156123b257604051639717078960e01b815260040160405180910390fd5b80516000036123d45760405163402585f560e01b815260040160405180910390fd5b6001600160601b0389166123fb57604051631ef4f64960e01b815260040160405180910390fd5b60048054600181018255600091825290600c82027f8a35acfbc15ff81a39ae7d344fd709f28e8600b4aa8c65c6b64bfe7fe36bd19b01905b83518110156124f95783818151811061244e5761244e615478565b6020026020010151600014806124815750600554845185908390811061247657612476615478565b602002602001015110155b1561249f57604051633d58a98960e11b815260040160405180910390fd5b600182600a0160008684815181106124b9576124b9615478565b6020026020010151815260200190815260200160002060006101000a81548160ff02191690831515021790555080806124f1906154a4565b915050612433565b5080546001600160601b0319166001600160601b038c161781556040805160008152602081019182905251612532916001840191614ab8565b50805460ff60601b1916600160601b8b15150217815560028101899055600381018890556004808201889055600582018790556125759060068301908790614a7a565b506003546040516311de995760e21b81526001600160a01b039091169063477a655c906125a89085908890600401615732565b600060405180830381600087803b1580156125c257600080fd5b505af11580156125d6573d6000803e3d6000fd5b5050505060048b6001600160601b0316815481106125f6576125f6615478565b600091825260208083206001600c909302018201805492830181558352909120018290556040516001600160601b038c169083907f3475f0ed7216dd7d453db663a1c3024e4f36cc925521d54edb9d13e022cbee3d90612663908e908e908e908e908e908e908d9061574b565b60405180910390a35050505050505050505050565b60008060006006848154811061269057612690615478565b6000918252602090912060049091020190506003600182015460ff1660048111156126bd576126bd614e17565b03612715576002810154815460048054929550916001600160601b039091169081106126eb576126eb615478565b600091825260209091206009600c909202010154600282015461270e9190615667565b915061271e565b60009250600091505b50915091565b6000546001600160a01b0316331461274f5760405163c383977560e01b815260040160405180910390fd5b600380546001600160a01b0319166001600160a01b0392909216919091179055565b600061277c826134fa565b34101561279c57604051630e3360f160e21b815260040160405180910390fd5b6127a9838360003461453f565b9392505050565b6000546001600160a01b031633146127db5760405163c383977560e01b815260040160405180910390fd5b600280546001600160a01b0319166001600160a01b0392909216919091179055565b612806836119a8565b34101561282657604051633191f8f160e01b815260040160405180910390fd5b60006006848154811061283b5761283b615478565b6000918252602090912060049091020190506003600182015460ff16600481111561286857612868614e17565b14612886576040516337cdefcb60e21b815260040160405180910390fd5b6003810180546000919061289c906001906154bd565b815481106128ac576128ac615478565b90600052602060002090600b0201905060058160000154815481106128d3576128d3615478565b60009182526020909120600590910201600201546001600160a01b0316331461290f5760405163065f245f60e01b815260040160405180910390fd5b8154815460038401805460018101825560009182526020909120600480546001600160601b0390951694600b909302909101918490811061295257612952615478565b90600052602060002090600c020160050154846003015410612b50576004836001600160601b03168154811061298a5761298a615478565b600091825260208220600c90910201546001600160601b031693505b600a811015612a95576004846001600160601b0316815481106129cb576129cb615478565b60009182526020808320868452600a600c90930201919091019052604090205460ff16612a9557600060058481548110612a0757612a07615478565b90600052602060002090600502016000015414612a4a5760058381548110612a3157612a31615478565b9060005260206000209060050201600001549250612a83565b6004846001600160601b031681548110612a6657612a66615478565b60009182526020909120600c90910201546001600160601b031693505b80612a8d816154a4565b9150506129a6565b506004836001600160601b031681548110612ab257612ab2615478565b60009182526020808320858452600a600c90930201919091019052604090205460ff16612ade57600192505b84546001600160601b03848116911614612b5057845460038601546001600160601b0390911690612b11906001906154bd565b6040516001600160601b03861681528a907f736e3f52761298c8c0823e1ebf482ed3c5ecb304f743d2d91a7c006e8e8d7a1f9060200160405180910390a45b84546001600160601b0319166001600160601b038416908117865560018601805460ff1916905542600287015560048054600092908110612b9357612b93615478565b90600052602060002090600c02019050806004015434612bb3919061561b565b826003018190555061271081600301548260020154612bd291906155ee565b612bdc919061561b565b60018084019190915534600284015583835560038054908801546001600160a01b039091169163d09f392d918c91612c13916154bd565b6040516001600160e01b031960e085901b16815260048101929092526024820152604401600060405180830381600087803b158015612c5157600080fd5b505af1158015612c65573d6000803e3d6000fd5b505086548454149150612d6290505760006005836000015481548110612c8d57612c8d615478565b6000918252602090912060026005909202010154865460038901546001600160a01b03909216925090612cc2906001906154bd565b84546040519081528c907fcbe7939a71f0b369c7471d760a0a99b60b7bb010ee0406cba8a46679d1ea77569060200160405180910390a460038301546040516302dbb79560e61b81526001600160a01b0383169163b6ede54091612d2e918e918e918e9160040161579b565b600060405180830381600087803b158015612d4857600080fd5b505af1158015612d5c573d6000803e3d6000fd5b50505050505b8554604051600160601b9091046001600160a01b0316908a907f9c9b64db9e130f48381bf697abf638e73117dbfbfd7a4484f2da3ba188f4187d90600090a3887f4e6f5cf43b95303e86aee81683df63992061723a829ee012db21dad388756b916000604051612dd291906154ed565b60405180910390a2505050505050505050565b60008060068381548110612dfb57612dfb615478565b906000526020600020906004020190508060030160018260030180549050612e2391906154bd565b81548110612e3357612e33615478565b90600052602060002090600b020160030154915050919050565b600060068381548110612e6257612e62615478565b90600052602060002090600402019050600060018260030180549050612e8891906154bd565b90506000826003018281548110612ea157612ea1615478565b600091825260208220600b909102019150600184015460ff166004811115612ecb57612ecb614e17565b14612ee957604051638285c4ef60e01b815260040160405180910390fd5b60006005826000015481548110612f0257612f02615478565b60009182526020822060026005909202010154600a8401546001600160a01b039091169250905b8681108015612f3f575060038401546006850154105b156131115760006001600160a01b03841663d2b8035a8a84612f60816154a4565b9550612f6c9087615667565b6040516001600160e01b031960e085901b168152600481019290925260248201526044016020604051808303816000875af1158015612faf573d6000803e3d6000fd5b505050506040513d601f19601f82011682018060405250810190612fd391906157cb565b90506001600160a01b038116612fe95750612f29565b60018501546001600160a01b03821660009081526007602052604081206002018054909190613019908490615667565b909155505060068501546040805188815260208101929092528a916001600160a01b038416917f6119cf536152c11e0a9a6c22f3953ce4ecc93ee54fa72ffa326ffabded21509b910160405180910390a36006850180546001810182556000828152602090200180546001600160a01b0319166001600160a01b038416179055600386015490540361310b57600354604051632e96bc2360e11b8152600481018b9052602481018890526001600160a01b0390911690635d2d784690604401600060405180830381600087803b1580156130f257600080fd5b505af1158015613106573d6000803e3d6000fd5b505050505b50612f29565b8084600a0160008282546131259190615667565b90915550505050505050505050565b60006131798261049386868080601f0160208091040260200160405190810160405280939291908181526020018383808284376000920191909152506134fa92505050565b949350505050565b6000546001600160a01b031633146131ac5760405163c383977560e01b815260040160405180910390fd5b600080546001600160a01b0319166001600160a01b0392909216919091179055565b6000546001600160a01b031633146131f95760405163c383977560e01b815260040160405180910390fd5b60055480821061321c57604051630becfec560e01b815260040160405180910390fd5b60008215613277576005838154811061323757613237615478565b90600052602060002090600502016003015460016132559190615667565b9050600a8110613277576040516210d62560e51b815260040160405180910390fd5b6040805160a08101825284815281516000808252602080830185528084019283526001600160a01b0389169484019490945260608301859052608083018190526005805460018101825591819052835191027f036b6384b5eca791c62761152d0c79bb0604c104a5fb6f4eb0703f3154bb3db081019182559151805193949193613328937f036b6384b5eca791c62761152d0c79bb0604c104a5fb6f4eb0703f3154bb3db101929190910190614ab8565b5060408201516002820180546001600160a01b0319166001600160a01b03909216919091179055606082015160038201556080909101516004909101805460ff1916911515919091179055600580548490811061338757613387615478565b600091825260208083206001600590930201820180549283018155835282200183905560405184916001600160a01b0387169185917f7921860794ac14fda09ee75f7160a5a3d266e3352f7954d0401606a92a26c49891a482610b8357610b836001836001613b62565b6001600160a01b03821660009081526008602052604081205460ff1661342a5760405163e51cf7bf60e01b815260040160405180910390fd5b613435858585613134565b82101561345557604051630e3360f160e21b815260040160405180910390fd5b61346a6001600160a01b038416333085614830565b6134ac5760405162461bcd60e51b815260206004820152600f60248201526e151c985b9cd9995c8819985a5b1959608a1b604482015260640160405180910390fd5b6134f08686868080601f01602080910402602001604051908101604052809392919081815260200183838082843760009201919091525088925087915061453f9050565b9695505050505050565b60008060006135088461490c565b5091509150806004836001600160601b03168154811061352a5761352a615478565b90600052602060002090600c02016004015461317991906155ee565b60006006828154811061355b5761355b615478565b600091825260209091206003600490920201015492915050565b60006004836001600160601b03168154811061359357613593615478565b60009182526020808320948352600c91909102909301600a0190925250604090205460ff16919050565b60006001600160601b03831615806135df57506004546001600160601b038416115b156135ec575060006127a9565b6001600160a01b03841660009081526007602090815260408083206001600160601b038716845260038101909252909120548315613669576004856001600160601b03168154811061364057613640615478565b90600052602060002090600c020160020154841015613664576000925050506127a9565b61367c565b8060000361367c576000925050506127a9565b60035460405163684fbf5f60e01b81526000916001600160a01b03169063684fbf5f906136b1908a908a908a906004016157e8565b6020604051808303816000875af11580156136d0573d6000803e3d6000fd5b505050506040513d601f19601f820116820180604052508101906136f49190615812565b9050600281600281111561370a5761370a614e17565b0361371b57600093505050506127a9565b600181600281111561372f5761372f614e17565b0361378d57604080516001600160601b0388168152602081018790526001600160a01b038916917f64c1aa6f3a1b4d72ebddff4e415cd05929dd5af5d670f06dce76627211b49911910160405180910390a2600193505050506127a9565b600082861061386d5760008460010154856002015410156137af5760006137c3565b846001015485600201546137c391906154bd565b90506137cf8185615667565b8710156137dd5760006137f2565b806137e885896154bd565b6137f291906154bd565b9150811561382457600154613812906001600160a01b03168a3085614830565b613824576000955050505050506127a9565b83600003613867578454600180820187556000878152602090206002830401805491909216600c026101000a6001600160601b0381810219909216918b16021790555b50613a52565b600284015461387c87856154bd565b6138869190615667565b8460010154106138a15761389a86846154bd565b90506138c7565b83600201548460010154106138c757836002015484600101546138c491906154bd565b90505b80156138f5576001546138e4906001600160a01b03168983614993565b6138f55760009450505050506127a9565b85600003613a525783545b8015613a50576001600160601b0388168561391c6001846154bd565b8154811061392c5761392c615478565b600091825260209091206002820401546001909116600c026101000a90046001600160601b031603613a3e5784548590613968906001906154bd565b8154811061397857613978615478565b600091825260209091206002820401546001918216600c026101000a90046001600160601b03169086906139ac90846154bd565b815481106139bc576139bc615478565b9060005260206000209060029182820401919006600c026101000a8154816001600160601b0302191690836001600160601b0316021790555084600001805480613a0857613a08615833565b60008281526020902060026000199092019182040180546001600160601b03600c60018516026101000a02191690559055613a50565b80613a4881615849565b915050613900565b505b8284600101541015613a645785613a7f565b85838560010154613a7591906154bd565b613a7f9190615667565b60018501556001600160601b03871660009081526003808601602052604091829020889055549051631166238b60e21b81526001600160a01b03909116906345988e2c90613ad5908b908b908b906004016157e8565b600060405180830381600087803b158015613aef57600080fd5b505af1158015613b03573d6000803e3d6000fd5b5050604080516001600160601b038b168152602081018a90526001600160a01b038c1693507f4732545d01e38980276a17e6d394f01577ba63f2fea5eba41af0757d9c060c5c92500160405180910390a2506001979650505050505050565b806004846001600160601b031681548110613b7f57613b7f615478565b60009182526020808320868452600c92909202909101600a0190526040808220805460ff19169315159390931790925590518215159184916001600160601b038716917fb47629acdf64971062d40984f77d3dee212d735b11e3e8c7a4222d9f0572cc7991a4505050565b6000806006836000015181548110613c0457613c04615478565b90600052602060002090600402019050600081600301846020015181548110613c2f57613c2f615478565b90600052602060002090600b0201905060006005826000015481548110613c5857613c58615478565b600091825260208083206005929092029091016002015487519188015160a0890151604051634fe264fb60e01b81526004810194909452602484019190915260448301526001600160a01b031692508290634fe264fb90606401602060405180830381865afa158015613ccf573d6000803e3d6000fd5b505050506040513d601f19601f82011682018060405250810190613cf3919061567a565b9050612710811115613d0457506127105b6000612710613d1383826154bd565b8560010154613d2291906155ee565b613d2c919061561b565b90508087608001818151613d409190615667565b90525060a0870151600685018054600092908110613d6057613d60615478565b60009182526020808320909101546001600160a01b0316808352600790915260408220600201805491935084929091613d9a9084906154bd565b90915550506001600160a01b0381166000908152600760205260409020600101548211613df7576001600160a01b03811660009081526007602052604081206001018054849290613dec9084906154bd565b90915550613e149050565b6001600160a01b0381166000908152600760205260408120600101555b602088015188516001600160a01b0383167f8975b837fe0d18616c65abb8b843726a32b552ee4feca009944fa658bbb282e786613e5087615860565b60098b0154604051613e729392916000916001600160a01b039091169061587c565b60405180910390a48751602089015160a08a015160405163ba66fde760e01b81526004810193909352602483019190915260448201526001600160a01b0385169063ba66fde790606401602060405180830381865afa158015613ed9573d6000803e3d6000fd5b505050506040513d601f19601f82011682018060405250810190613efd91906154d0565b613f615760035460405163b5d69e9960e01b81526001600160a01b0383811660048301529091169063b5d69e9990602401600060405180830381600087803b158015613f4857600080fd5b505af1158015613f5c573d6000803e3d6000fd5b505050505b60018860600151613f7291906154bd565b8860a00151148015613f8657506040880151155b156140775760098501546001600160a01b0316613fcf576000805460028701546040516001600160a01b039092169281156108fc029290818181858888f1935050505050613ff6565b60005460028601546009870154613ff4926001600160a01b0391821692911690614993565b505b6000546080890151600154614019926001600160a01b0391821692911690614993565b506020880151885160808a0151600288015460098901546040517f6cecfd3ec56289ccb16e30eb194f9a87dfdc12630b9abbc31fc69af5a0b0eaf49361406e93909290916001600160a01b03909116906158a0565b60405180910390a35b505050608090940151949350505050565b600060068260000151815481106140a1576140a1615478565b906000526020600020906004020190506000816003018360200151815481106140cc576140cc615478565b90600052602060002090600b02019050600060058260000154815481106140f5576140f5615478565b906000526020600020906005020160020160009054906101000a90046001600160a01b031690506000816001600160a01b0316634fe264fb8660000151876020015188606001518960a0015161414b91906158bf565b6040516001600160e01b031960e086901b168152600481019390935260248301919091526044820152606401602060405180830381865afa158015614194573d6000803e3d6000fd5b505050506040513d601f19601f820116820180604052508101906141b8919061567a565b90506127108111156141c957506127105b60008360060186606001518760a001516141e391906158bf565b815481106141f3576141f3615478565b600091825260208220015460018601546001600160a01b0390911692506127109061421f9085906155ee565b614229919061561b565b6001600160a01b0383166000908152600760205260408120600201805492935083929091906142599084906154bd565b90915550506001600160a01b038216600090815260076020526040812060010154900361429957600154614297906001600160a01b03168383614993565b505b60006127108489604001518a608001516142b3919061561b565b6142bd91906155ee565b6142c7919061561b565b9050808660080160008282546142dd9190615667565b925050819055506000612710858a6040015189600201546142fe919061561b565b61430891906155ee565b614312919061561b565b9050808760070160008282546143289190615667565b9091555050600154614344906001600160a01b03168584614993565b5060098701546001600160a01b0316614382576040516001600160a01b0385169082156108fc029083906000818181858888f193505050505061439d565b600987015461439b906001600160a01b03168583614993565b505b6020890151895160098901546040516001600160a01b03888116927f8975b837fe0d18616c65abb8b843726a32b552ee4feca009944fa658bbb282e7926143ed928c928a928a929091169061587c565b60405180910390a460018960600151600261440891906155ee565b61441291906154bd565b8960a001510361453457600087600801548a6080015161443291906154bd565b905060008860070154896002015461444a91906154bd565b90508115158061445957508015155b156117b657811561448357600054600154614481916001600160a01b03918216911684614993565b505b80156144ea5760098901546001600160a01b03166144c957600080546040516001600160a01b039091169183156108fc02918491818181858888f19350505050506144ea565b60005460098a01546144e8916001600160a01b03918216911683614993565b505b60208b01518b5160098b01546040517f6cecfd3ec56289ccb16e30eb194f9a87dfdc12630b9abbc31fc69af5a0b0eaf49161266391879187916001600160a01b03909116906158a0565b505050505050505050565b600080600061454d8661490c565b92505091506004826001600160601b03168154811061456e5761456e615478565b60009182526020808320848452600a600c90930201919091019052604090205460ff166145ae5760405163b34eb75d60e01b815260040160405180910390fd5b600680546001810182556000918252600160601b33026001600160601b03851617600482027ff652222313e28459528d920b65115c16c04f3efc82aaedc97be59f3f377c0d3f8101918255427ff652222313e28459528d920b65115c16c04f3efc82aaedc97be59f3f377c0d4190910155600580549296509092918490811061463957614639615478565b600091825260208220600260059092020101548354600480546001600160a01b039093169450916001600160601b0390911690811061467a5761467a615478565b60009182526020808320600387018054600181018255908552918420600c909302019350600b0201906001600160a01b038a16156146c5576146c08a8460040154611286565b6146cb565b82600401545b90506146d7818a61561b565b6003808401919091558683558301546002840154612710916146f8916155ee565b614702919061561b565b6001830155600282018990556009820180546001600160a01b0319166001600160a01b038c81169190911790915560035460405163d09f392d60e01b8152600481018b90526000602482015291169063d09f392d90604401600060405180830381600087803b15801561477457600080fd5b505af1158015614788573d6000803e3d6000fd5b50505050836001600160a01b031663b6ede540898e8e86600301546040518563ffffffff1660e01b81526004016147c2949392919061579b565b600060405180830381600087803b1580156147dc57600080fd5b505af11580156147f0573d6000803e3d6000fd5b50506040513392508a91507f141dfc18aa6a56fc816f44f0e9e2f1ebc92b15ab167770e17db5b084c10ed99590600090a350505050505050949350505050565b6040516001600160a01b038481166024830152838116604483015260648201839052600091829182919088169060840160408051601f198184030181529181526020820180516001600160e01b03166323b872dd60e01b1790525161489591906156b7565b6000604051808303816000865af19150503d80600081146148d2576040519150601f19603f3d011682016040523d82523d6000602084013e6148d7565b606091505b509150915081801561490157508051158061490157508080602001905181019061490191906154d0565b979650505050505050565b60008060006040845110614981575050506020810151604082015160608301516001600160601b038316158061494d57506004546001600160601b03841610155b1561495757600192505b8160000361496457600391505b80158061497357506005548110155b1561497c575060015b61498c565b506001915060039050815b9193909250565b6040516001600160a01b03838116602483015260448201839052600091829182919087169060640160408051601f198184030181529181526020820180516001600160e01b031663a9059cbb60e01b179052516149f091906156b7565b6000604051808303816000865af19150503d8060008114614a2d576040519150601f19603f3d011682016040523d82523d6000602084013e614a32565b606091505b50915091508180156134f05750805115806134f05750808060200190518101906134f091906154d0565b60405180608001604052806004906020820280368337509192915050565b8260048101928215614aa8579160200282015b82811115614aa8578251825591602001919060010190614a8d565b50614ab4929150614af2565b5090565b828054828255906000526020600020908101928215614aa85791602002820182811115614aa8578251825591602001919060010190614a8d565b5b80821115614ab45760008155600101614af3565b6001600160a01b0381168114614b1c57600080fd5b50565b600060208284031215614b3157600080fd5b81356127a981614b07565b80356001600160601b0381168114614b5357600080fd5b919050565b600080600060608486031215614b6d57600080fd5b8335614b7881614b07565b9250614b8660208501614b3c565b9150604084013590509250925092565b634e487b7160e01b600052604160045260246000fd5b604051601f8201601f191681016001600160401b0381118282101715614bd457614bd4614b96565b604052919050565b600082601f830112614bed57600080fd5b813560206001600160401b03821115614c0857614c08614b96565b8160051b614c17828201614bac565b9283528481018201928281019087851115614c3157600080fd5b83870192505b8483101561490157823582529183019190830190614c37565b8015158114614b1c57600080fd5b600080600060608486031215614c7357600080fd5b614c7c84614b3c565b925060208401356001600160401b03811115614c9757600080fd5b614ca386828701614bdc565b9250506040840135614cb481614c50565b809150509250925092565b600060208284031215614cd157600080fd5b5035919050565b60008060408385031215614ceb57600080fd5b8235614cf681614b07565b946020939093013593505050565b600080600060608486031215614d1957600080fd5b505081359360208301359350604090920135919050565b600060208284031215614d4257600080fd5b6127a982614b3c565b8060005b6004811015610b83578151845260209384019390910190600101614d4f565b608081016112dc8284614d4b565b600081518084526020808501945080840160005b83811015614dac57815187529582019590820190600101614d90565b509495945050505050565b6020815260006127a96020830184614d7c565b6020808252825182820181905260009190848201906040850190845b81811015614e0b5783516001600160601b031683529284019291840191600101614de6565b50909695505050505050565b634e487b7160e01b600052602160045260246000fd5b60058110614e4b57634e487b7160e01b600052602160045260246000fd5b9052565b6001600160601b03861681526001600160a01b038516602082015260a08101614e7b6040830186614e2d565b9215156060820152608001529392505050565b600082601f830112614e9f57600080fd5b81356001600160401b03811115614eb857614eb8614b96565b614ecb601f8201601f1916602001614bac565b818152846020838601011115614ee057600080fd5b816020850160208301376000918101602001919091529392505050565b600080600060608486031215614f1257600080fd5b8335614f1d81614b07565b92506020840135915060408401356001600160401b03811115614f3f57600080fd5b614f4b86828701614e8e565b9150509250925092565b60008060408385031215614f6857600080fd5b614cf683614b3c565b60008060408385031215614f8457600080fd5b8235614f8f81614b07565b91506020830135614f9f81614c50565b809150509250929050565b600080600060608486031215614fbf57600080fd5b8335614fca81614b07565b925060208401356001600160401b0381168114614fe657600080fd5b9150604084013560ff81168114614cb457600080fd5b600082601f83011261500d57600080fd5b604051608081018181106001600160401b038211171561502f5761502f614b96565b60405280608084018581111561504457600080fd5b845b8181101561505e578035835260209283019201615046565b509195945050505050565b6000806000806000806000610140888a03121561508557600080fd5b61508e88614b3c565b9650602088013561509e81614c50565b955060408801359450606088013593506080880135925060a088013591506150c98960c08a01614ffc565b905092959891949750929550565b600080604083850312156150ea57600080fd5b50508035926020909101359150565b600081518084526020808501945080840160005b83811015614dac5781516001600160a01b03168752958201959082019060010161510d565b6020815281516020820152602082015160408201526040820151606082015260608201516080820152608082015160a082015260a082015160c0820152600060c08301516101608060e085015261518d6101808501836150f9565b60e086015161010086810191909152860151610120808701919091528601519092506101406151c6818701836001600160a01b03169052565b959095015193019290925250919050565b60008060008060008060008060006101808a8c0312156151f657600080fd5b6151ff8a614b3c565b985060208a013561520f81614c50565b975060408a0135965060608a0135955060808a0135945060a08a0135935061523a8b60c08c01614ffc565b92506101408a01356001600160401b038082111561525757600080fd5b6152638d838e01614e8e565b93506101608c013591508082111561527a57600080fd5b506152878c828d01614bdc565b9150509295985092959850929598565b600080604083850312156152aa57600080fd5b8235915060208301356001600160401b038111156152c757600080fd5b6152d385828601614e8e565b9150509250929050565b6000806000606084860312156152f257600080fd5b833592506020840135915060408401356001600160401b03811115614f3f57600080fd5b6000806040838503121561532957600080fd5b823561533481614b07565b915061534260208401614b3c565b90509250929050565b60008083601f84011261535d57600080fd5b5081356001600160401b0381111561537457600080fd5b60208301915083602082850101111561538c57600080fd5b9250929050565b6000806000604084860312156153a857600080fd5b83356001600160401b038111156153be57600080fd5b6153ca8682870161534b565b9094509250506020840135614cb481614b07565b6000806000806000608086880312156153f657600080fd5b8535945060208601356001600160401b0381111561541357600080fd5b61541f8882890161534b565b909550935050604086013561543381614b07565b949793965091946060013592915050565b60006020828403121561545657600080fd5b81356001600160401b0381111561546c57600080fd5b6112d884828501614e8e565b634e487b7160e01b600052603260045260246000fd5b634e487b7160e01b600052601160045260246000fd5b6000600182016154b6576154b661548e565b5060010190565b818103818111156112dc576112dc61548e565b6000602082840312156154e257600080fd5b81516127a981614c50565b602081016112dc8284614e2d565b600181815b8085111561553657816000190482111561551c5761551c61548e565b8085161561552957918102915b93841c9390800290615500565b509250929050565b60008261554d575060016112dc565b8161555a575060006112dc565b8160018114615570576002811461557a57615596565b60019150506112dc565b60ff84111561558b5761558b61548e565b50506001821b6112dc565b5060208310610133831016604e8410600b84101617156155b9575081810a6112dc565b6155c383836154fb565b80600019048211156155d7576155d761548e565b029392505050565b60006127a960ff84168361553e565b80820281158282048414176112dc576112dc61548e565b634e487b7160e01b600052601260045260246000fd5b60008261562a5761562a615605565b500490565b60008060006060848603121561564457600080fd5b83519250602084015161565681614c50565b6040850151909250614cb481614c50565b808201808211156112dc576112dc61548e565b60006020828403121561568c57600080fd5b5051919050565b60005b838110156156ae578181015183820152602001615696565b50506000910152565b600082516156c9818460208701615693565b9190910192915050565b600061012082019050871515825286602083015285604083015284606083015283608083015261490160a0830184614d4b565b6000815180845261571e816020860160208601615693565b601f01601f19169290920160200192915050565b8281526040602082015260006131796040830184615706565b6000610140891515835288602084015287604084015286606084015285608084015261577a60a0840186614d4b565b8061012084015261578d81840185614d7c565b9a9950505050505050505050565b8481528360208201526080604082015260006157ba6080830185615706565b905082606083015295945050505050565b6000602082840312156157dd57600080fd5b81516127a981614b07565b6001600160a01b039390931683526001600160601b03919091166020830152604082015260600190565b60006020828403121561582457600080fd5b8151600381106127a957600080fd5b634e487b7160e01b600052603160045260246000fd5b6000816158585761585861548e565b506000190190565b6000600160ff1b82016158755761587561548e565b5060000390565b938452602084019290925260408301526001600160a01b0316606082015260800190565b92835260208301919091526001600160a01b0316604082015260600190565b6000826158ce576158ce615605565b50069056fea2646970667358221220a1b7e777a928415490dfa579be6d77a94db9f9647aced4e284a65f692843b1d764736f6c63430008120033",
  "devdoc": {
    "events": {
      "AcceptedFeeToken(address,bool)": {
        "details": "To be emitted when an ERC20 token is added or removed as a method to pay fees.",
        "params": {
          "_accepted": "Whether the token is accepted or not.",
          "_token": "The ERC20 token."
        }
      },
      "DisputeCreation(uint256,address)": {
        "details": "To be emitted when a dispute is created.",
        "params": {
          "_arbitrable": "The contract which created the dispute.",
          "_disputeID": "The identifier of the dispute in the Arbitrator contract."
        }
      },
      "NewCurrencyRate(address,uint64,uint8)": {
        "details": "To be emitted when the fee for a particular ERC20 token is updated.",
        "params": {
          "_feeToken": "The ERC20 token.",
          "_rateDecimals": "The new decimals of the fee token rate.",
          "_rateInEth": "The new rate of the fee token in ETH."
        }
      },
      "Ruling(address,uint256,uint256)": {
        "details": "To be raised when a ruling is given.",
        "params": {
          "_arbitrable": "The arbitrable receiving the ruling.",
          "_disputeID": "The identifier of the dispute in the Arbitrator contract.",
          "_ruling": "The ruling which was given."
        }
      }
    },
    "kind": "dev",
    "methods": {
      "addNewDisputeKit(address,uint256)": {
        "details": "Add a new supported dispute kit module to the court.",
        "params": {
          "_disputeKitAddress": "The address of the dispute kit contract.",
          "_parent": "The ID of the parent dispute kit. It is left empty when root DK is created. Note that the root DK must be supported by the general court."
        }
      },
      "appeal(uint256,uint256,bytes)": {
        "details": "Appeals the ruling of a specified dispute. Note: Access restricted to the Dispute Kit for this `disputeID`.",
        "params": {
          "_disputeID": "The ID of the dispute.",
          "_extraData": "Extradata for the dispute. Can be required during court jump.",
          "_numberOfChoices": "Number of choices for the dispute. Can be required during court jump."
        }
      },
      "appealCost(uint256)": {
        "details": "Gets the cost of appealing a specified dispute.",
        "params": {
          "_disputeID": "The ID of the dispute."
        },
        "returns": {
          "cost": "The appeal cost."
        }
      },
      "appealPeriod(uint256)": {
        "details": "Gets the start and the end of a specified dispute's current appeal period.",
        "params": {
          "_disputeID": "The ID of the dispute."
        },
        "returns": {
          "end": "The end of the appeal period.",
          "start": "The start of the appeal period."
        }
      },
      "arbitrationCost(bytes)": {
        "details": "Compute the cost of arbitration denominated in ETH.      It is recommended not to increase it often, as it can be highly time and gas consuming for the arbitrated contracts to cope with fee augmentation.",
        "params": {
          "_extraData": "Additional info about the dispute. We use it to pass the ID of the dispute's court (first 32 bytes), the minimum number of jurors required (next 32 bytes) and the ID of the specific dispute kit (last 32 bytes)."
        },
        "returns": {
          "cost": "The arbitration cost in ETH."
        }
      },
      "arbitrationCost(bytes,address)": {
        "details": "Compute the cost of arbitration denominated in `_feeToken`.      It is recommended not to increase it often, as it can be highly time and gas consuming for the arbitrated contracts to cope with fee augmentation.",
        "params": {
          "_extraData": "Additional info about the dispute. We use it to pass the ID of the dispute's court (first 32 bytes), the minimum number of jurors required (next 32 bytes) and the ID of the specific dispute kit (last 32 bytes).",
          "_feeToken": "The ERC20 token used to pay fees."
        },
        "returns": {
          "cost": "The arbitration cost in `_feeToken`."
        }
      },
      "changeAcceptedFeeTokens(address,bool)": {
        "details": "Changes the supported fee tokens.",
        "params": {
          "_accepted": "Whether the token is supported or not as a method of fee payment.",
          "_feeToken": "The fee token."
        }
      },
      "changeCurrencyRates(address,uint64,uint8)": {
        "details": "Changes the currency rate of a fee token.",
        "params": {
          "_feeToken": "The fee token.",
          "_rateDecimals": "The new decimals of the fee token rate.",
          "_rateInEth": "The new rate of the fee token in ETH."
        }
      },
      "changeGovernor(address)": {
        "details": "Changes the `governor` storage variable.",
        "params": {
          "_governor": "The new value for the `governor` storage variable."
        }
      },
      "changeJurorProsecutionModule(address)": {
        "details": "Changes the `jurorProsecutionModule` storage variable.",
        "params": {
          "_jurorProsecutionModule": "The new value for the `jurorProsecutionModule` storage variable."
        }
      },
      "changePinakion(address)": {
        "details": "Changes the `pinakion` storage variable.",
        "params": {
          "_pinakion": "The new value for the `pinakion` storage variable."
        }
      },
      "changeSortitionModule(address)": {
        "details": "Changes the `_sortitionModule` storage variable. Note that the new module should be initialized for all courts.",
        "params": {
          "_sortitionModule": "The new value for the `sortitionModule` storage variable."
        }
      },
      "constructor": {
        "details": "Constructor.",
        "params": {
          "_courtParameters": "Numeric parameters of General court (minStake, alpha, feeForJuror and jurorsForCourtJump respectively).",
          "_disputeKit": "The address of the default dispute kit.",
          "_governor": "The governor's address.",
          "_hiddenVotes": "The `hiddenVotes` property value of the general court.",
          "_jurorProsecutionModule": "The address of the juror prosecution module.",
          "_pinakion": "The address of the token contract.",
          "_sortitionExtraData": "The extra data for sortition module.",
          "_sortitionModuleAddress": "The sortition module responsible for sortition of the jurors.",
          "_timesPerPeriod": "The `timesPerPeriod` property value of the general court."
        }
      },
      "createCourt(uint96,bool,uint256,uint256,uint256,uint256,uint256[4],bytes,uint256[])": {
        "details": "Creates a court under a specified parent court.",
        "params": {
          "_alpha": "The `alpha` property value of the court.",
          "_feeForJuror": "The `feeForJuror` property value of the court.",
          "_hiddenVotes": "The `hiddenVotes` property value of the court.",
          "_jurorsForCourtJump": "The `jurorsForCourtJump` property value of the court.",
          "_minStake": "The `minStake` property value of the court.",
          "_parent": "The `parent` property value of the court.",
          "_sortitionExtraData": "Extra data for sortition module.",
          "_supportedDisputeKits": "Indexes of dispute kits that this court will support.",
          "_timesPerPeriod": "The `timesPerPeriod` property value of the court."
        }
      },
      "createDispute(uint256,bytes)": {
        "details": "Create a dispute and pay for the fees in the native currency, typically ETH.      Must be called by the arbitrable contract.      Must pay at least arbitrationCost(_extraData).",
        "params": {
          "_extraData": "Additional info about the dispute. We use it to pass the ID of the dispute's court (first 32 bytes), the minimum number of jurors required (next 32 bytes) and the ID of the specific dispute kit (last 32 bytes).",
          "_numberOfChoices": "The number of choices the arbitrator can choose from in this dispute."
        },
        "returns": {
          "disputeID": "The identifier of the dispute created."
        }
      },
      "createDispute(uint256,bytes,address,uint256)": {
        "details": "Create a dispute and pay for the fees in a supported ERC20 token.      Must be called by the arbitrable contract.      Must pay at least arbitrationCost(_extraData).",
        "params": {
          "_extraData": "Additional info about the dispute. We use it to pass the ID of the dispute's court (first 32 bytes), the minimum number of jurors required (next 32 bytes) and the ID of the specific dispute kit (last 32 bytes).",
          "_feeAmount": "Amount of the ERC20 token used to pay fees.",
          "_feeToken": "The ERC20 token used to pay fees.",
          "_numberOfChoices": "The number of choices the arbitrator can choose from in this dispute."
        },
        "returns": {
          "disputeID": "The identifier of the dispute created."
        }
      },
      "currentRuling(uint256)": {
        "details": "Gets the current ruling of a specified dispute.",
        "params": {
          "_disputeID": "The ID of the dispute."
        },
        "returns": {
          "overridden": "Whether the ruling was overridden by appeal funding or not.",
          "ruling": "The current ruling.",
          "tied": "Whether it's a tie or not."
        }
      },
      "draw(uint256,uint256)": {
        "details": "Draws jurors for the dispute. Can be called in parts.",
        "params": {
          "_disputeID": "The ID of the dispute.",
          "_iterations": "The number of iterations to run."
        }
      },
      "enableDisputeKits(uint96,uint256[],bool)": {
        "details": "Adds/removes court's support for specified dispute kits.",
        "params": {
          "_courtID": "The ID of the court.",
          "_disputeKitIDs": "The IDs of dispute kits which support should be added/removed.",
          "_enable": "Whether add or remove the dispute kits from the court."
        }
      },
      "execute(uint256,uint256,uint256)": {
        "details": "Distribute the PNKs at stake and the dispute fees for the specific round of the dispute. Can be called in parts.",
        "params": {
          "_disputeID": "The ID of the dispute.",
          "_iterations": "The number of iterations to run.",
          "_round": "The appeal round."
        }
      },
      "executeGovernorProposal(address,uint256,bytes)": {
        "details": "Allows the governor to call anything on behalf of the contract.",
        "params": {
          "_amount": "The value sent with the call.",
          "_data": "The data sent with the call.",
          "_destination": "The destination of the call."
        }
      },
      "executeRuling(uint256)": {
        "details": "Executes a specified dispute's ruling.",
        "params": {
          "_disputeID": "The ID of the dispute."
        }
      },
      "getDisputeKit(uint256)": {
        "details": "Gets the dispute kit for a specific `_disputeKitID`.",
        "params": {
          "_disputeKitID": "The ID of the dispute kit."
        }
      },
      "getDisputeKitChildren(uint256)": {
        "details": "Gets non-primitive properties of a specified dispute kit node.",
        "params": {
          "_disputeKitID": "The ID of the dispute kit."
        },
        "returns": {
          "_0": "children Indexes of children of this DK."
        }
      },
      "getJurorCourtIDs(address)": {
        "details": "Gets the court identifiers where a specific `_juror` has staked.",
        "params": {
          "_juror": "The address of the juror."
        }
      },
      "getNumberOfVotes(uint256)": {
        "details": "Gets the number of votes permitted for the specified dispute in the latest round.",
        "params": {
          "_disputeID": "The ID of the dispute."
        }
      },
      "getTimesPerPeriod(uint96)": {
        "details": "Gets the timesPerPeriod array for a given court.",
        "params": {
          "_courtID": "The ID of the court to get the times from."
        },
        "returns": {
          "timesPerPeriod": "The timesPerPeriod array for the given court."
        }
      },
      "isDisputeKitJumping(uint256)": {
        "details": "Returns true if the dispute kit will be switched to a parent DK.",
        "params": {
          "_disputeID": "The ID of the dispute."
        },
        "returns": {
          "_0": "Whether DK will be switched or not."
        }
      },
      "passPeriod(uint256)": {
        "details": "Passes the period of a specified dispute.",
        "params": {
          "_disputeID": "The ID of the dispute."
        }
      },
      "setStake(uint96,uint256)": {
        "details": "Sets the caller's stake in a court.",
        "params": {
          "_courtID": "The ID of the court.",
          "_newStake": "The new stake."
        }
      }
    },
    "title": "KlerosCore Core arbitrator contract for Kleros v2. Note that this contract trusts the PNK token, the dispute kit and the sortition module contracts.",
    "version": 1
  },
  "userdoc": {
    "kind": "user",
    "methods": {},
    "version": 1
  },
  "storageLayout": {
    "storage": [
      {
        "astId": 3043,
        "contract": "src/arbitration/KlerosCore.sol:KlerosCore",
        "label": "governor",
        "offset": 0,
        "slot": "0",
        "type": "t_address"
      },
      {
        "astId": 3046,
        "contract": "src/arbitration/KlerosCore.sol:KlerosCore",
        "label": "pinakion",
        "offset": 0,
        "slot": "1",
        "type": "t_contract(IERC20)1042"
      },
      {
        "astId": 3048,
        "contract": "src/arbitration/KlerosCore.sol:KlerosCore",
        "label": "jurorProsecutionModule",
        "offset": 0,
        "slot": "2",
        "type": "t_address"
      },
      {
        "astId": 3051,
        "contract": "src/arbitration/KlerosCore.sol:KlerosCore",
        "label": "sortitionModule",
        "offset": 0,
        "slot": "3",
        "type": "t_contract(ISortitionModule)15653"
      },
      {
        "astId": 3055,
        "contract": "src/arbitration/KlerosCore.sol:KlerosCore",
        "label": "courts",
        "offset": 0,
        "slot": "4",
        "type": "t_array(t_struct(Court)2914_storage)dyn_storage"
      },
      {
        "astId": 3059,
        "contract": "src/arbitration/KlerosCore.sol:KlerosCore",
        "label": "disputeKitNodes",
        "offset": 0,
        "slot": "5",
        "type": "t_array(t_struct(DisputeKitNode)2981_storage)dyn_storage"
      },
      {
        "astId": 3063,
        "contract": "src/arbitration/KlerosCore.sol:KlerosCore",
        "label": "disputes",
        "offset": 0,
        "slot": "6",
        "type": "t_array(t_struct(Dispute)2931_storage)dyn_storage"
      },
      {
        "astId": 3068,
        "contract": "src/arbitration/KlerosCore.sol:KlerosCore",
        "label": "jurors",
        "offset": 0,
        "slot": "7",
        "type": "t_mapping(t_address,t_struct(Juror)2968_storage)"
      },
      {
        "astId": 3074,
        "contract": "src/arbitration/KlerosCore.sol:KlerosCore",
        "label": "currencyRates",
        "offset": 0,
        "slot": "8",
        "type": "t_mapping(t_contract(IERC20)1042,t_struct(CurrencyRate)3001_storage)"
      }
    ],
    "types": {
      "t_address": {
        "encoding": "inplace",
        "label": "address",
        "numberOfBytes": "20"
      },
      "t_array(t_address)dyn_storage": {
        "base": "t_address",
        "encoding": "dynamic_array",
        "label": "address[]",
        "numberOfBytes": "32"
      },
      "t_array(t_struct(Court)2914_storage)dyn_storage": {
        "base": "t_struct(Court)2914_storage",
        "encoding": "dynamic_array",
        "label": "struct KlerosCore.Court[]",
        "numberOfBytes": "32"
      },
      "t_array(t_struct(Dispute)2931_storage)dyn_storage": {
        "base": "t_struct(Dispute)2931_storage",
        "encoding": "dynamic_array",
        "label": "struct KlerosCore.Dispute[]",
        "numberOfBytes": "32"
      },
      "t_array(t_struct(DisputeKitNode)2981_storage)dyn_storage": {
        "base": "t_struct(DisputeKitNode)2981_storage",
        "encoding": "dynamic_array",
        "label": "struct KlerosCore.DisputeKitNode[]",
        "numberOfBytes": "32"
      },
      "t_array(t_struct(Round)2956_storage)dyn_storage": {
        "base": "t_struct(Round)2956_storage",
        "encoding": "dynamic_array",
        "label": "struct KlerosCore.Round[]",
        "numberOfBytes": "32"
      },
      "t_array(t_uint256)4_storage": {
        "base": "t_uint256",
        "encoding": "inplace",
        "label": "uint256[4]",
        "numberOfBytes": "128"
      },
      "t_array(t_uint256)dyn_storage": {
        "base": "t_uint256",
        "encoding": "dynamic_array",
        "label": "uint256[]",
        "numberOfBytes": "32"
      },
      "t_array(t_uint96)dyn_storage": {
        "base": "t_uint96",
        "encoding": "dynamic_array",
        "label": "uint96[]",
        "numberOfBytes": "32"
      },
      "t_bool": {
        "encoding": "inplace",
        "label": "bool",
        "numberOfBytes": "1"
      },
      "t_contract(IArbitrableV2)15295": {
        "encoding": "inplace",
        "label": "contract IArbitrableV2",
        "numberOfBytes": "20"
      },
      "t_contract(IDisputeKit)15534": {
        "encoding": "inplace",
        "label": "contract IDisputeKit",
        "numberOfBytes": "20"
      },
      "t_contract(IERC20)1042": {
        "encoding": "inplace",
        "label": "contract IERC20",
        "numberOfBytes": "20"
      },
      "t_contract(ISortitionModule)15653": {
        "encoding": "inplace",
        "label": "contract ISortitionModule",
        "numberOfBytes": "20"
      },
      "t_enum(Period)2888": {
        "encoding": "inplace",
        "label": "enum KlerosCore.Period",
        "numberOfBytes": "1"
      },
      "t_mapping(t_address,t_struct(Juror)2968_storage)": {
        "encoding": "mapping",
        "key": "t_address",
        "label": "mapping(address => struct KlerosCore.Juror)",
        "numberOfBytes": "32",
        "value": "t_struct(Juror)2968_storage"
      },
      "t_mapping(t_contract(IERC20)1042,t_struct(CurrencyRate)3001_storage)": {
        "encoding": "mapping",
        "key": "t_contract(IERC20)1042",
        "label": "mapping(contract IERC20 => struct KlerosCore.CurrencyRate)",
        "numberOfBytes": "32",
        "value": "t_struct(CurrencyRate)3001_storage"
      },
      "t_mapping(t_uint256,t_bool)": {
        "encoding": "mapping",
        "key": "t_uint256",
        "label": "mapping(uint256 => bool)",
        "numberOfBytes": "32",
        "value": "t_bool"
      },
      "t_mapping(t_uint96,t_uint256)": {
        "encoding": "mapping",
        "key": "t_uint96",
        "label": "mapping(uint96 => uint256)",
        "numberOfBytes": "32",
        "value": "t_uint256"
      },
      "t_struct(Court)2914_storage": {
        "encoding": "inplace",
        "label": "struct KlerosCore.Court",
        "members": [
          {
            "astId": 2890,
            "contract": "src/arbitration/KlerosCore.sol:KlerosCore",
            "label": "parent",
            "offset": 0,
            "slot": "0",
            "type": "t_uint96"
          },
          {
            "astId": 2892,
            "contract": "src/arbitration/KlerosCore.sol:KlerosCore",
            "label": "hiddenVotes",
            "offset": 12,
            "slot": "0",
            "type": "t_bool"
          },
          {
            "astId": 2895,
            "contract": "src/arbitration/KlerosCore.sol:KlerosCore",
            "label": "children",
            "offset": 0,
            "slot": "1",
            "type": "t_array(t_uint256)dyn_storage"
          },
          {
            "astId": 2897,
            "contract": "src/arbitration/KlerosCore.sol:KlerosCore",
            "label": "minStake",
            "offset": 0,
            "slot": "2",
            "type": "t_uint256"
          },
          {
            "astId": 2899,
            "contract": "src/arbitration/KlerosCore.sol:KlerosCore",
            "label": "alpha",
            "offset": 0,
            "slot": "3",
            "type": "t_uint256"
          },
          {
            "astId": 2901,
            "contract": "src/arbitration/KlerosCore.sol:KlerosCore",
            "label": "feeForJuror",
            "offset": 0,
            "slot": "4",
            "type": "t_uint256"
          },
          {
            "astId": 2903,
            "contract": "src/arbitration/KlerosCore.sol:KlerosCore",
            "label": "jurorsForCourtJump",
            "offset": 0,
            "slot": "5",
            "type": "t_uint256"
          },
          {
            "astId": 2907,
            "contract": "src/arbitration/KlerosCore.sol:KlerosCore",
            "label": "timesPerPeriod",
            "offset": 0,
            "slot": "6",
            "type": "t_array(t_uint256)4_storage"
          },
          {
            "astId": 2911,
            "contract": "src/arbitration/KlerosCore.sol:KlerosCore",
            "label": "supportedDisputeKits",
            "offset": 0,
            "slot": "10",
            "type": "t_mapping(t_uint256,t_bool)"
          },
          {
            "astId": 2913,
            "contract": "src/arbitration/KlerosCore.sol:KlerosCore",
            "label": "disabled",
            "offset": 0,
            "slot": "11",
            "type": "t_bool"
          }
        ],
        "numberOfBytes": "384"
      },
      "t_struct(CurrencyRate)3001_storage": {
        "encoding": "inplace",
        "label": "struct KlerosCore.CurrencyRate",
        "members": [
          {
            "astId": 2996,
            "contract": "src/arbitration/KlerosCore.sol:KlerosCore",
            "label": "feePaymentAccepted",
            "offset": 0,
            "slot": "0",
            "type": "t_bool"
          },
          {
            "astId": 2998,
            "contract": "src/arbitration/KlerosCore.sol:KlerosCore",
            "label": "rateInEth",
            "offset": 1,
            "slot": "0",
            "type": "t_uint64"
          },
          {
            "astId": 3000,
            "contract": "src/arbitration/KlerosCore.sol:KlerosCore",
            "label": "rateDecimals",
            "offset": 9,
            "slot": "0",
            "type": "t_uint8"
          }
        ],
        "numberOfBytes": "32"
      },
      "t_struct(Dispute)2931_storage": {
        "encoding": "inplace",
        "label": "struct KlerosCore.Dispute",
        "members": [
          {
            "astId": 2916,
            "contract": "src/arbitration/KlerosCore.sol:KlerosCore",
            "label": "courtID",
            "offset": 0,
            "slot": "0",
            "type": "t_uint96"
          },
          {
            "astId": 2919,
            "contract": "src/arbitration/KlerosCore.sol:KlerosCore",
            "label": "arbitrated",
            "offset": 12,
            "slot": "0",
            "type": "t_contract(IArbitrableV2)15295"
          },
          {
            "astId": 2922,
            "contract": "src/arbitration/KlerosCore.sol:KlerosCore",
            "label": "period",
            "offset": 0,
            "slot": "1",
            "type": "t_enum(Period)2888"
          },
          {
            "astId": 2924,
            "contract": "src/arbitration/KlerosCore.sol:KlerosCore",
            "label": "ruled",
            "offset": 1,
            "slot": "1",
            "type": "t_bool"
          },
          {
            "astId": 2926,
            "contract": "src/arbitration/KlerosCore.sol:KlerosCore",
            "label": "lastPeriodChange",
            "offset": 0,
            "slot": "2",
            "type": "t_uint256"
          },
          {
            "astId": 2930,
            "contract": "src/arbitration/KlerosCore.sol:KlerosCore",
            "label": "rounds",
            "offset": 0,
            "slot": "3",
            "type": "t_array(t_struct(Round)2956_storage)dyn_storage"
          }
        ],
        "numberOfBytes": "128"
      },
      "t_struct(DisputeKitNode)2981_storage": {
        "encoding": "inplace",
        "label": "struct KlerosCore.DisputeKitNode",
        "members": [
          {
            "astId": 2970,
            "contract": "src/arbitration/KlerosCore.sol:KlerosCore",
            "label": "parent",
            "offset": 0,
            "slot": "0",
            "type": "t_uint256"
          },
          {
            "astId": 2973,
            "contract": "src/arbitration/KlerosCore.sol:KlerosCore",
            "label": "children",
            "offset": 0,
            "slot": "1",
            "type": "t_array(t_uint256)dyn_storage"
          },
          {
            "astId": 2976,
            "contract": "src/arbitration/KlerosCore.sol:KlerosCore",
            "label": "disputeKit",
            "offset": 0,
            "slot": "2",
            "type": "t_contract(IDisputeKit)15534"
          },
          {
            "astId": 2978,
            "contract": "src/arbitration/KlerosCore.sol:KlerosCore",
            "label": "depthLevel",
            "offset": 0,
            "slot": "3",
            "type": "t_uint256"
          },
          {
            "astId": 2980,
            "contract": "src/arbitration/KlerosCore.sol:KlerosCore",
            "label": "disabled",
            "offset": 0,
            "slot": "4",
            "type": "t_bool"
          }
        ],
        "numberOfBytes": "160"
      },
      "t_struct(Juror)2968_storage": {
        "encoding": "inplace",
        "label": "struct KlerosCore.Juror",
        "members": [
          {
            "astId": 2959,
            "contract": "src/arbitration/KlerosCore.sol:KlerosCore",
            "label": "courtIDs",
            "offset": 0,
            "slot": "0",
            "type": "t_array(t_uint96)dyn_storage"
          },
          {
            "astId": 2961,
            "contract": "src/arbitration/KlerosCore.sol:KlerosCore",
            "label": "stakedPnk",
            "offset": 0,
            "slot": "1",
            "type": "t_uint256"
          },
          {
            "astId": 2963,
            "contract": "src/arbitration/KlerosCore.sol:KlerosCore",
            "label": "lockedPnk",
            "offset": 0,
            "slot": "2",
            "type": "t_uint256"
          },
          {
            "astId": 2967,
            "contract": "src/arbitration/KlerosCore.sol:KlerosCore",
            "label": "stakedPnkByCourt",
            "offset": 0,
            "slot": "3",
            "type": "t_mapping(t_uint96,t_uint256)"
          }
        ],
        "numberOfBytes": "128"
      },
      "t_struct(Round)2956_storage": {
        "encoding": "inplace",
        "label": "struct KlerosCore.Round",
        "members": [
          {
            "astId": 2933,
            "contract": "src/arbitration/KlerosCore.sol:KlerosCore",
            "label": "disputeKitID",
            "offset": 0,
            "slot": "0",
            "type": "t_uint256"
          },
          {
            "astId": 2935,
            "contract": "src/arbitration/KlerosCore.sol:KlerosCore",
            "label": "pnkAtStakePerJuror",
            "offset": 0,
            "slot": "1",
            "type": "t_uint256"
          },
          {
            "astId": 2937,
            "contract": "src/arbitration/KlerosCore.sol:KlerosCore",
            "label": "totalFeesForJurors",
            "offset": 0,
            "slot": "2",
            "type": "t_uint256"
          },
          {
            "astId": 2939,
            "contract": "src/arbitration/KlerosCore.sol:KlerosCore",
            "label": "nbVotes",
            "offset": 0,
            "slot": "3",
            "type": "t_uint256"
          },
          {
            "astId": 2941,
            "contract": "src/arbitration/KlerosCore.sol:KlerosCore",
            "label": "repartitions",
            "offset": 0,
            "slot": "4",
            "type": "t_uint256"
          },
          {
            "astId": 2943,
            "contract": "src/arbitration/KlerosCore.sol:KlerosCore",
            "label": "pnkPenalties",
            "offset": 0,
            "slot": "5",
            "type": "t_uint256"
          },
          {
            "astId": 2946,
            "contract": "src/arbitration/KlerosCore.sol:KlerosCore",
            "label": "drawnJurors",
            "offset": 0,
            "slot": "6",
            "type": "t_array(t_address)dyn_storage"
          },
          {
            "astId": 2948,
            "contract": "src/arbitration/KlerosCore.sol:KlerosCore",
            "label": "sumFeeRewardPaid",
            "offset": 0,
            "slot": "7",
            "type": "t_uint256"
          },
          {
            "astId": 2950,
            "contract": "src/arbitration/KlerosCore.sol:KlerosCore",
            "label": "sumPnkRewardPaid",
            "offset": 0,
            "slot": "8",
            "type": "t_uint256"
          },
          {
            "astId": 2953,
            "contract": "src/arbitration/KlerosCore.sol:KlerosCore",
            "label": "feeToken",
            "offset": 0,
            "slot": "9",
            "type": "t_contract(IERC20)1042"
          },
          {
            "astId": 2955,
            "contract": "src/arbitration/KlerosCore.sol:KlerosCore",
            "label": "drawIterations",
            "offset": 0,
            "slot": "10",
            "type": "t_uint256"
          }
        ],
        "numberOfBytes": "352"
      },
      "t_uint256": {
        "encoding": "inplace",
        "label": "uint256",
        "numberOfBytes": "32"
      },
      "t_uint64": {
        "encoding": "inplace",
        "label": "uint64",
        "numberOfBytes": "8"
      },
      "t_uint8": {
        "encoding": "inplace",
        "label": "uint8",
        "numberOfBytes": "1"
      },
      "t_uint96": {
        "encoding": "inplace",
        "label": "uint96",
        "numberOfBytes": "12"
      }
    }
  }
}