{
  "address": "0x07F064F474336C31f22101E2C848e9a00a6Fd0c6",
  "abi": [
    {
      "inputs": [
        {
          "internalType": "address",
          "name": "_governor",
          "type": "address"
        },
        {
          "internalType": "contract KlerosCore",
          "name": "_core",
          "type": "address"
        },
        {
          "internalType": "uint256",
          "name": "_minStakingTime",
          "type": "uint256"
        },
        {
          "internalType": "uint256",
          "name": "_maxDrawingTime",
          "type": "uint256"
        },
        {
          "internalType": "contract RNG",
          "name": "_rng",
          "type": "address"
        },
        {
          "internalType": "uint256",
          "name": "_rngLookahead",
          "type": "uint256"
        }
      ],
      "stateMutability": "nonpayable",
      "type": "constructor"
    },
    {
      "anonymous": false,
      "inputs": [
        {
          "indexed": false,
          "internalType": "enum ISortitionModule.Phase",
          "name": "_phase",
          "type": "uint8"
        }
      ],
      "name": "NewPhase",
      "type": "event"
    },
    {
      "inputs": [],
      "name": "DEFAULT_K",
      "outputs": [
        {
          "internalType": "uint256",
          "name": "",
          "type": "uint256"
        }
      ],
      "stateMutability": "view",
      "type": "function"
    },
    {
      "inputs": [],
      "name": "MAX_STAKE_PATHS",
      "outputs": [
        {
          "internalType": "uint256",
          "name": "",
          "type": "uint256"
        }
      ],
      "stateMutability": "view",
      "type": "function"
    },
    {
      "inputs": [
        {
          "internalType": "uint256",
          "name": "_maxDrawingTime",
          "type": "uint256"
        }
      ],
      "name": "changeMaxDrawingTime",
      "outputs": [],
      "stateMutability": "nonpayable",
      "type": "function"
    },
    {
      "inputs": [
        {
          "internalType": "uint256",
          "name": "_minStakingTime",
          "type": "uint256"
        }
      ],
      "name": "changeMinStakingTime",
      "outputs": [],
      "stateMutability": "nonpayable",
      "type": "function"
    },
    {
      "inputs": [
        {
          "internalType": "contract RNG",
          "name": "_rng",
          "type": "address"
        },
        {
          "internalType": "uint256",
          "name": "_rngLookahead",
          "type": "uint256"
        }
      ],
      "name": "changeRandomNumberGenerator",
      "outputs": [],
      "stateMutability": "nonpayable",
      "type": "function"
    },
    {
      "inputs": [],
      "name": "core",
      "outputs": [
        {
          "internalType": "contract KlerosCore",
          "name": "",
          "type": "address"
        }
      ],
      "stateMutability": "view",
      "type": "function"
    },
    {
      "inputs": [
        {
          "internalType": "uint256",
          "name": "",
          "type": "uint256"
        },
        {
          "internalType": "uint256",
          "name": "",
          "type": "uint256"
        }
      ],
      "name": "createDisputeHook",
      "outputs": [],
      "stateMutability": "nonpayable",
      "type": "function"
    },
    {
      "inputs": [
        {
          "internalType": "bytes32",
          "name": "_key",
          "type": "bytes32"
        },
        {
          "internalType": "bytes",
          "name": "_extraData",
          "type": "bytes"
        }
      ],
      "name": "createTree",
      "outputs": [],
      "stateMutability": "nonpayable",
      "type": "function"
    },
    {
      "inputs": [],
      "name": "delayedStakeReadIndex",
      "outputs": [
        {
          "internalType": "uint256",
          "name": "",
          "type": "uint256"
        }
      ],
      "stateMutability": "view",
      "type": "function"
    },
    {
      "inputs": [],
      "name": "delayedStakeWriteIndex",
      "outputs": [
        {
          "internalType": "uint256",
          "name": "",
          "type": "uint256"
        }
      ],
      "stateMutability": "view",
      "type": "function"
    },
    {
      "inputs": [
        {
          "internalType": "uint256",
          "name": "",
          "type": "uint256"
        }
      ],
      "name": "delayedStakes",
      "outputs": [
        {
          "internalType": "address",
          "name": "account",
          "type": "address"
        },
        {
          "internalType": "uint96",
          "name": "courtID",
          "type": "uint96"
        },
        {
          "internalType": "uint256",
          "name": "stake",
          "type": "uint256"
        },
        {
          "internalType": "uint256",
          "name": "penalty",
          "type": "uint256"
        }
      ],
      "stateMutability": "view",
      "type": "function"
    },
    {
      "inputs": [],
      "name": "disputesWithoutJurors",
      "outputs": [
        {
          "internalType": "uint256",
          "name": "",
          "type": "uint256"
        }
      ],
      "stateMutability": "view",
      "type": "function"
    },
    {
      "inputs": [
        {
          "internalType": "bytes32",
          "name": "_key",
          "type": "bytes32"
        },
        {
          "internalType": "uint256",
          "name": "_coreDisputeID",
          "type": "uint256"
        },
        {
          "internalType": "uint256",
          "name": "_voteID",
          "type": "uint256"
        }
      ],
      "name": "draw",
      "outputs": [
        {
          "internalType": "address",
          "name": "drawnAddress",
          "type": "address"
        }
      ],
      "stateMutability": "view",
      "type": "function"
    },
    {
      "inputs": [
        {
          "internalType": "uint256",
          "name": "_iterations",
          "type": "uint256"
        }
      ],
      "name": "executeDelayedStakes",
      "outputs": [],
      "stateMutability": "nonpayable",
      "type": "function"
    },
    {
      "inputs": [],
      "name": "governor",
      "outputs": [
        {
          "internalType": "address",
          "name": "",
          "type": "address"
        }
      ],
      "stateMutability": "view",
      "type": "function"
    },
    {
      "inputs": [],
      "name": "lastPhaseChange",
      "outputs": [
        {
          "internalType": "uint256",
          "name": "",
          "type": "uint256"
        }
      ],
      "stateMutability": "view",
      "type": "function"
    },
    {
      "inputs": [],
      "name": "maxDrawingTime",
      "outputs": [
        {
          "internalType": "uint256",
          "name": "",
          "type": "uint256"
        }
      ],
      "stateMutability": "view",
      "type": "function"
    },
    {
      "inputs": [],
      "name": "minStakingTime",
      "outputs": [
        {
          "internalType": "uint256",
          "name": "",
          "type": "uint256"
        }
      ],
      "stateMutability": "view",
      "type": "function"
    },
    {
      "inputs": [
        {
          "internalType": "uint256",
          "name": "_randomNumber",
          "type": "uint256"
        }
      ],
      "name": "notifyRandomNumber",
      "outputs": [],
      "stateMutability": "nonpayable",
      "type": "function"
    },
    {
      "inputs": [],
      "name": "passPhase",
      "outputs": [],
      "stateMutability": "nonpayable",
      "type": "function"
    },
    {
      "inputs": [],
      "name": "phase",
      "outputs": [
        {
          "internalType": "enum ISortitionModule.Phase",
          "name": "",
          "type": "uint8"
        }
      ],
      "stateMutability": "view",
      "type": "function"
    },
    {
      "inputs": [
        {
          "internalType": "uint256",
          "name": "",
          "type": "uint256"
        },
        {
          "internalType": "uint256",
          "name": "",
          "type": "uint256"
        }
      ],
      "name": "postDrawHook",
      "outputs": [],
      "stateMutability": "nonpayable",
      "type": "function"
    },
    {
      "inputs": [
        {
          "internalType": "address",
          "name": "_account",
          "type": "address"
        },
        {
          "internalType": "uint96",
          "name": "_courtID",
          "type": "uint96"
        },
        {
          "internalType": "uint256",
          "name": "_stake",
          "type": "uint256"
        },
        {
          "internalType": "uint256",
          "name": "_penalty",
          "type": "uint256"
        }
      ],
      "name": "preStakeHook",
      "outputs": [
        {
          "internalType": "enum ISortitionModule.preStakeHookResult",
          "name": "",
          "type": "uint8"
        }
      ],
      "stateMutability": "nonpayable",
      "type": "function"
    },
    {
      "inputs": [],
      "name": "randomNumber",
      "outputs": [
        {
          "internalType": "uint256",
          "name": "",
          "type": "uint256"
        }
      ],
      "stateMutability": "view",
      "type": "function"
    },
    {
      "inputs": [],
      "name": "randomNumberRequestBlock",
      "outputs": [
        {
          "internalType": "uint256",
          "name": "",
          "type": "uint256"
        }
      ],
      "stateMutability": "view",
      "type": "function"
    },
    {
      "inputs": [],
      "name": "rng",
      "outputs": [
        {
          "internalType": "contract RNG",
          "name": "",
          "type": "address"
        }
      ],
      "stateMutability": "view",
      "type": "function"
    },
    {
      "inputs": [],
      "name": "rngLookahead",
      "outputs": [
        {
          "internalType": "uint256",
          "name": "",
          "type": "uint256"
        }
      ],
      "stateMutability": "view",
      "type": "function"
    },
    {
      "inputs": [
        {
          "internalType": "address",
          "name": "_account",
          "type": "address"
        }
      ],
      "name": "setJurorInactive",
      "outputs": [],
      "stateMutability": "nonpayable",
      "type": "function"
    },
    {
      "inputs": [
        {
          "internalType": "address",
          "name": "_account",
          "type": "address"
        },
        {
          "internalType": "uint96",
          "name": "_courtID",
          "type": "uint96"
        },
        {
          "internalType": "uint256",
          "name": "_value",
          "type": "uint256"
        }
      ],
      "name": "setStake",
      "outputs": [],
      "stateMutability": "nonpayable",
      "type": "function"
    }
  ],
  "transactionHash": "0xe82553e5f9111e0c4e1b48b7de82d86b13f57f756de8960e3be68a57d9e17237",
  "args": [
    "0xF50E77f2A2B6138D16c6c7511562E5C33c4B15A3",
    "0xAa641414e786d0cBe80f4eE716248588E13B4343",
    1800,
    1800,
    "0x0FE3869EA01Febb895Bc76DaB143858F84C67024",
    20
  ],
  "numDeployments": 2,
  "solcInputHash": "fd61600fd663df29806d398dd28b09df",
  "bytecode": "0x60806040526001600b553480156200001657600080fd5b5060405162001ddf38038062001ddf8339810160408190526200003991620000a9565b600080546001600160a01b03199081166001600160a01b039889161790915560018054821696881696909617909555600293909355600391909155426004556007805490931693169290921790556009556200011a565b6001600160a01b0381168114620000a657600080fd5b50565b60008060008060008060c08789031215620000c357600080fd5b8651620000d08162000090565b6020880151909650620000e38162000090565b8095505060408701519350606087015192506080870151620001058162000090565b8092505060a087015190509295509295509295565b611cb5806200012a6000396000f3fe608060405234801561001057600080fd5b506004361061018f5760003560e01c80635d2d7846116100e4578063c057eca711610092578063c057eca7146102ff578063c157261814610308578063ccbac9f514610311578063d09f392d1461031a578063d605787b1461032d578063dd5e5cb514610340578063f2f4eb2614610353578063f6b4d82d1461036657600080fd5b80635d2d7846146102985780637dc38f14146102ab578063823cfd70146102b4578063b1c9fe6e146102c7578063b4a61608146102db578063b5d69e99146102e3578063b888adfa146102f657600080fd5b806335975f4a1161014157806335975f4a1461021057806341334e2e1461022357806345988e2c14610243578063477a655c146102565780634c70a0d6146102695780634dbbebbc1461027c57806356acb0501461028f57600080fd5b806303432744146101945780630b274f2e146101b05780630b51806d146101ba5780630c340a24146101c25780630e083ec9146101ed5780631b92bbbe146101f657806321ea9b3f146101ff575b600080fd5b61019d60065481565b6040519081526020015b60405180910390f35b6101b86103c0565b005b61019d600681565b6000546101d5906001600160a01b031681565b6040516001600160a01b0390911681526020016101a7565b61019d600a5481565b61019d60035481565b6101b861020d3660046116b0565b50565b6101b861021e3660046116b0565b610798565b6102366102313660046116f3565b610937565b6040516101a7919061176d565b6101b8610251366004611780565b610ae5565b6101b8610264366004611808565b610c5e565b6101d56102773660046118a7565b610d55565b6101b861028a3660046118d3565b610f05565b61019d600b5481565b6101b86102a63660046118ff565b610fee565b61019d60095481565b6101b86102c23660046116b0565b611031565b60015461023690600160a01b900460ff1681565b61019d600481565b6101b86102f1366004611921565b611060565b61019d60045481565b61019d60025481565b61019d60055481565b61019d60085481565b6101b86103283660046118ff565b6111af565b6007546101d5906001600160a01b031681565b6101b861034e3660046116b0565b6111e9565b6001546101d5906001600160a01b031681565b6103b06103743660046116b0565b600d602052600090815260409020805460018201546002909201546001600160a01b03821692600160a01b9092046001600160601b0316919084565b6040516101a79493929190611945565b6000600154600160a01b900460ff1660028111156103e0576103e0611739565b03610553576002546004546103f5904261198a565b101561045d5760405162461bcd60e51b815260206004820152602c60248201527f546865206d696e696d756d207374616b696e672074696d6520686173206e6f7460448201526b103830b9b9b2b2103cb2ba1760a11b60648201526084015b60405180910390fd5b6000600654116104bf5760405162461bcd60e51b815260206004820152602760248201527f546865726520617265206e6f2064697370757465732074686174206e65656420604482015266353ab937b9399760c91b6064820152608401610454565b6007546009546001600160a01b0390911690637363ae1f906104e190436119a3565b6040518263ffffffff1660e01b81526004016104ff91815260200190565b600060405180830381600087803b15801561051957600080fd5b505af115801561052d573d6000803e3d6000fd5b505043600555505060018054819060ff60a01b1916600160a01b825b021790555061074d565b60018054600160a01b900460ff16600281111561057257610572611739565b0361066a576007546009546005546001600160a01b03909216916313cf90549161059b916119a3565b6040518263ffffffff1660e01b81526004016105b991815260200190565b6020604051808303816000875af11580156105d8573d6000803e3d6000fd5b505050506040513d601f19601f820116820180604052508101906105fc91906119b6565b60088190556000036106505760405162461bcd60e51b815260206004820152601e60248201527f52616e646f6d206e756d626572206973206e6f742072656164792079657400006044820152606401610454565b600180546002919060ff60a01b1916600160a01b83610549565b6002600154600160a01b900460ff16600281111561068a5761068a611739565b0361074d5760065415806106ac57506003546004546106a9904261198a565b10155b61073f5760405162461bcd60e51b815260206004820152605860248201527f546865726520617265207374696c6c20646973707574657320776974686f757460448201527f206a75726f727320616e6420746865206d6178696d756d2064726177696e67206064820152773a34b6b2903430b9903737ba103830b9b9b2b2103cb2ba1760411b608482015260a401610454565b6001805460ff60a01b191690555b426004556001546040517f31f72b44f546d9e7eaec13f65636997665e15f134a81c82924f568f5c0d07b939161078e91600160a01b90910460ff169061176d565b60405180910390a1565b6000600154600160a01b900460ff1660028111156107b8576107b8611739565b146108055760405162461bcd60e51b815260206004820152601b60248201527f53686f756c6420626520696e205374616b696e672070686173652e00000000006044820152606401610454565b6000600a54600183600b5461081a91906119a3565b610824919061198a565b1161082f578161084a565b600b54600a5461083f919061198a565b61084a9060016119a3565b9050600081600b5461085c91906119a3565b600b549091505b8181101561092f576000818152600d602052604090819020600180548254918301546002840154945163f56f072560e01b815293946001600160a01b039283169463f56f0725946108cd94811693600160a01b9091046001600160601b0316929091600401611945565b600060405180830381600087803b1580156108e757600080fd5b505af11580156108fb573d6000803e3d6000fd5b5050506000838152600d60205260408120818155600181018290556002015550819050610927816119cf565b915050610863565b50600b555050565b6001546000906001600160a01b031633146109645760405162461bcd60e51b8152600401610454906119e8565b600154604051631a383be960e31b81526001600160a01b0387811660048301526001600160601b0387166024830152600092839291169063d1c1df4890604401606060405180830381865afa1580156109c1573d6000803e3d6000fd5b505050506040513d601f19601f820116820180604052508101906109e59190611a2c565b92505091508160001480156109fb575060048110155b15610a0b57600292505050610add565b6000600154600160a01b900460ff166002811115610a2b57610a2b611739565b14610ad6576040518060800160405280886001600160a01b03168152602001876001600160601b0316815260200186815260200185815250600d6000600a60008154610a76906119cf565b9182905550815260208082019290925260409081016000208351928401516001600160601b0316600160a01b026001600160a01b039093169290921782558201516001808301919091556060909201516002909101559250610add915050565b6000925050505b949350505050565b6001546001600160a01b03163314610b0f5760405162461bcd60e51b8152600401610454906119e8565b6000610b1b8484611218565b90506000835b81610c5657610b3a6001600160601b0382168585611260565b600160009054906101000a90046001600160a01b03166001600160a01b03166334d5fb316040518163ffffffff1660e01b8152600401602060405180830381865afa158015610b8d573d6000803e3d6000fd5b505050506040513d601f19601f82011682018060405250810190610bb19190611a5a565b6001600160601b0316816001600160601b031603610bd25760019150610b21565b600154604051630fad06e960e11b81526001600160601b03831660048201526001600160a01b0390911690631f5a0dd29060240160e060405180830381865afa158015610c23573d6000803e3d6000fd5b505050506040513d601f19601f82011682018060405250810190610c479190611a87565b50949550610b21945050505050565b505050505050565b6001546001600160a01b03163314610c885760405162461bcd60e51b8152600401610454906119e8565b6000828152600c6020526040812090610ca0836115b4565b825490915015610ce95760405162461bcd60e51b81526020600482015260146024820152732a3932b29030b63932b0b23c9032bc34b9ba399760611b6044820152606401610454565b60018111610d395760405162461bcd60e51b815260206004820152601b60248201527f4b206d7573742062652067726561746572207468616e206f6e652e00000000006044820152606401610454565b8155600201805460018101825560009182526020822001555050565b60006002600154600160a01b900460ff166002811115610d7757610d77611739565b14610db35760405162461bcd60e51b815260206004820152600c60248201526b2bb937b73390383430b9b29760a11b6044820152606401610454565b6000848152600c602052604081206002810180549192918291908290610ddb57610ddb611af3565b90600052602060002001546008548787604051602001610e0e939291909283526020830191909152604082015260600190565b6040516020818303038152906040528051906020012060001c610e319190611b1f565b90505b60028301548354610e46908490611b33565b610e519060016119a3565b1015610ee05760015b83548111610eda57600081848660000154610e759190611b33565b610e7f91906119a3565b90506000856002018281548110610e9857610e98611af3565b90600052602060002001549050808410610ebd57610eb6818561198a565b9350610ec5565b509250610eda565b50508080610ed2906119cf565b915050610e5a565b50610e34565b6000828152600484016020526040902054610efa906115d0565b979650505050505050565b6000546001600160a01b03163314610f2f5760405162461bcd60e51b815260040161045490611b4a565b600780546001600160a01b0319166001600160a01b038416179055600981905560018054600160a01b900460ff166002811115610f6e57610f6e611739565b03610fea576007546009546001600160a01b0390911690637363ae1f90610f9590436119a3565b6040518263ffffffff1660e01b8152600401610fb391815260200190565b600060405180830381600087803b158015610fcd57600080fd5b505af1158015610fe1573d6000803e3d6000fd5b50504360055550505b5050565b6001546001600160a01b031633146110185760405162461bcd60e51b8152600401610454906119e8565b6006805490600061102883611b8c565b91905055505050565b6000546001600160a01b0316331461105b5760405162461bcd60e51b815260040161045490611b4a565b600255565b6001546001600160a01b0316331461108a5760405162461bcd60e51b8152600401610454906119e8565b600154604051632a1fc51b60e11b81526001600160a01b038381166004830152600092169063543f8a3690602401600060405180830381865afa1580156110d5573d6000803e3d6000fd5b505050506040513d6000823e601f3d908101601f191682016040526110fd9190810190611ba3565b80519091505b80156111aa57600180546001600160a01b03169063f56f0725908590859061112b908661198a565b8151811061113b5761113b611af3565b60200260200101516000806040518563ffffffff1660e01b81526004016111659493929190611945565b600060405180830381600087803b15801561117f57600080fd5b505af1158015611193573d6000803e3d6000fd5b5050505080806111a290611b8c565b915050611103565b505050565b6001546001600160a01b031633146111d95760405162461bcd60e51b8152600401610454906119e8565b60068054906000611028836119cf565b6000546001600160a01b031633146112135760405162461bcd60e51b815260040161045490611b4a565b600355565b600060405160005b601481101561123b578481600c011a81830153600101611220565b5060145b60208110156112575783811a8183015360010161123f565b50519392505050565b6000838152600c6020908152604080832084845260038101909252822054909181900361142d57831561142857600182015460000361137b5750600281018054600180820183556000928352602090922081018590559081148015906112da575081546112ce60018361198a565b6112d89190611b1f565b155b156113765781546000906112ee9083611c55565b600081815260048501602052604081205491925061130d8460016119a3565b90508460020185600201848154811061132857611328611af3565b60009182526020808320909101548354600181018555938352818320909301929092559384526004860180825260408086208690558486526003880183528086208490559285529052909120555b6113f6565b60018083018054909161138d9161198a565b8154811061139d5761139d611af3565b90600052602060002001549050816001018054806113bd576113bd611c69565b60019003818190600052602060002001600090559055838260020182815481106113e9576113e9611af3565b6000918252602090912001555b6000838152600383016020908152604080832084905583835260048501909152902083905561142885826001876115fb565b6115ad565b836000036114cb57600082600201828154811061144c5761144c611af3565b90600052602060002001549050600083600201838154811061147057611470611af3565b60009182526020808320909101929092556001808601805491820181558252828220018490558581526003850182526040808220829055848252600486019092529081208190556114c59087908490846115fb565b506115ad565b8160020181815481106114e0576114e0611af3565b906000526020600020015484146115ad5760008483600201838154811061150957611509611af3565b90600052602060002001541115905060008161154f578584600201848154811061153557611535611af3565b906000526020600020015461154a919061198a565b61157a565b83600201838154811061156457611564611af3565b90600052602060002001548661157a919061198a565b90508584600201848154811061159257611592611af3565b6000918252602090912001556115aa878484846115fb565b50505b5050505050565b600060208251106115c757506020015190565b5060065b919050565b600060405160005b60148110156115f35783811a81600c840101536001016115d8565b505192915050565b6000848152600c60205260409020835b8015610c5657815461161e60018361198a565b6116289190611c55565b90508361165f578282600201828154811061164557611645611af3565b906000526020600020015461165a919061198a565b61168a565b8282600201828154811061167557611675611af3565b906000526020600020015461168a91906119a3565b82600201828154811061169f5761169f611af3565b60009182526020909120015561160b565b6000602082840312156116c257600080fd5b5035919050565b6001600160a01b038116811461020d57600080fd5b6001600160601b038116811461020d57600080fd5b6000806000806080858703121561170957600080fd5b8435611714816116c9565b93506020850135611724816116de565b93969395505050506040820135916060013590565b634e487b7160e01b600052602160045260246000fd5b6003811061020d57634e487b7160e01b600052602160045260246000fd5b6020810161177a8361174f565b91905290565b60008060006060848603121561179557600080fd5b83356117a0816116c9565b925060208401356117b0816116de565b929592945050506040919091013590565b634e487b7160e01b600052604160045260246000fd5b604051601f8201601f1916810167ffffffffffffffff81118282101715611800576118006117c1565b604052919050565b6000806040838503121561181b57600080fd5b8235915060208084013567ffffffffffffffff8082111561183b57600080fd5b818601915086601f83011261184f57600080fd5b813581811115611861576118616117c1565b611873601f8201601f191685016117d7565b9150808252878482850101111561188957600080fd5b80848401858401376000848284010152508093505050509250929050565b6000806000606084860312156118bc57600080fd5b505081359360208301359350604090920135919050565b600080604083850312156118e657600080fd5b82356118f1816116c9565b946020939093013593505050565b6000806040838503121561191257600080fd5b50508035926020909101359150565b60006020828403121561193357600080fd5b813561193e816116c9565b9392505050565b6001600160a01b039490941684526001600160601b039290921660208401526040830152606082015260800190565b634e487b7160e01b600052601160045260246000fd5b8181038181111561199d5761199d611974565b92915050565b8082018082111561199d5761199d611974565b6000602082840312156119c857600080fd5b5051919050565b6000600182016119e1576119e1611974565b5060010190565b60208082526024908201527f416363657373206e6f7420616c6c6f7765643a204b6c65726f73436f7265206f60408201526337363c9760e11b606082015260800190565b600080600060608486031215611a4157600080fd5b8351925060208401519150604084015190509250925092565b600060208284031215611a6c57600080fd5b815161193e816116de565b805180151581146115cb57600080fd5b600080600080600080600060e0888a031215611aa257600080fd5b8751611aad816116de565b9650611abb60208901611a77565b955060408801519450606088015193506080880151925060a08801519150611ae560c08901611a77565b905092959891949750929550565b634e487b7160e01b600052603260045260246000fd5b634e487b7160e01b600052601260045260246000fd5b600082611b2e57611b2e611b09565b500690565b808202811582820484141761199d5761199d611974565b60208082526022908201527f416363657373206e6f7420616c6c6f7765643a20476f7665726e6f72206f6e6c6040820152613c9760f11b606082015260800190565b600081611b9b57611b9b611974565b506000190190565b60006020808385031215611bb657600080fd5b825167ffffffffffffffff80821115611bce57600080fd5b818501915085601f830112611be257600080fd5b815181811115611bf457611bf46117c1565b8060051b9150611c058483016117d7565b8181529183018401918481019088841115611c1f57600080fd5b938501935b83851015611c495784519250611c39836116de565b8282529385019390850190611c24565b98975050505050505050565b600082611c6457611c64611b09565b500490565b634e487b7160e01b600052603160045260246000fdfea2646970667358221220567154084b9fd1226ff383d7ad652e8e605229e522725ee44607280c6937d71164736f6c63430008120033",
  "devdoc": {
    "details": "A factory of trees that keeps track of staked values for sortition.",
    "kind": "dev",
    "methods": {
      "changeMaxDrawingTime(uint256)": {
        "details": "Changes the `maxDrawingTime` storage variable.",
        "params": {
          "_maxDrawingTime": "The new value for the `maxDrawingTime` storage variable."
        }
      },
      "changeMinStakingTime(uint256)": {
        "details": "Changes the `minStakingTime` storage variable.",
        "params": {
          "_minStakingTime": "The new value for the `minStakingTime` storage variable."
        }
      },
      "changeRandomNumberGenerator(address,uint256)": {
        "details": "Changes the `_rng` and `_rngLookahead` storage variables.",
        "params": {
          "_rng": "The new value for the `RNGenerator` storage variable.",
          "_rngLookahead": "The new value for the `rngLookahead` storage variable."
        }
      },
      "constructor": {
        "details": "Constructor.",
        "params": {
          "_core": "The KlerosCore.",
          "_maxDrawingTime": "Time after which the drawing phase can be switched",
          "_minStakingTime": "Minimal time to stake",
          "_rng": "The random number generator.",
          "_rngLookahead": "Lookahead value for rng."
        }
      },
      "createTree(bytes32,bytes)": {
        "details": "Create a sortition sum tree at the specified key.",
        "params": {
          "_extraData": "Extra data that contains the number of children each node in the tree should have.",
          "_key": "The key of the new tree."
        }
      },
      "draw(bytes32,uint256,uint256)": {
        "details": "Draw an ID from a tree using a number. Note that this function reverts if the sum of all values in the tree is 0.",
        "params": {
          "_coreDisputeID": "Index of the dispute in Kleros Core.",
          "_key": "The key of the tree.",
          "_voteID": "ID of the voter."
        },
        "returns": {
          "drawnAddress": "The drawn address. `O(k * log_k(n))` where `k` is the maximum number of children per node in the tree,  and `n` is the maximum number of nodes ever appended."
        }
      },
      "executeDelayedStakes(uint256)": {
        "details": "Executes the next delayed stakes.",
        "params": {
          "_iterations": "The number of delayed stakes to execute."
        }
      },
      "notifyRandomNumber(uint256)": {
        "details": "Saves the random number to use it in sortition. Not used by this contract because the storing of the number is inlined in passPhase().",
        "params": {
          "_randomNumber": "Random number returned by RNG contract."
        }
      },
      "setJurorInactive(address)": {
        "details": "Unstakes the inactive juror from all courts. `O(n * (p * log_k(j)) )` where `n` is the number of courts the juror has staked in, `p` is the depth of the court tree, `k` is the minimum number of children per node of one of these courts' sortition sum tree, and `j` is the maximum number of jurors that ever staked in one of these courts simultaneously.",
        "params": {
          "_account": "The juror to unstake."
        }
      },
      "setStake(address,uint96,uint256)": {
        "details": "Sets the value for a particular court and its parent courts.",
        "params": {
          "_account": "Address of the juror. `O(log_k(n))` where `k` is the maximum number of children per node in the tree,  and `n` is the maximum number of nodes ever appended.",
          "_courtID": "ID of the court.",
          "_value": "The new value."
        }
      }
    },
    "title": "SortitionModule",
    "version": 1
  },
  "userdoc": {
    "kind": "user",
    "methods": {},
    "version": 1
  },
  "storageLayout": {
    "storage": [
      {
        "astId": 8147,
        "contract": "src/arbitration/SortitionModule.sol:SortitionModule",
        "label": "governor",
        "offset": 0,
        "slot": "0",
        "type": "t_address"
      },
      {
        "astId": 8150,
        "contract": "src/arbitration/SortitionModule.sol:SortitionModule",
        "label": "core",
        "offset": 0,
        "slot": "1",
        "type": "t_contract(KlerosCore)6640"
      },
      {
        "astId": 8153,
        "contract": "src/arbitration/SortitionModule.sol:SortitionModule",
        "label": "phase",
        "offset": 20,
        "slot": "1",
        "type": "t_enum(Phase)15489"
      },
      {
        "astId": 8155,
        "contract": "src/arbitration/SortitionModule.sol:SortitionModule",
        "label": "minStakingTime",
        "offset": 0,
        "slot": "2",
        "type": "t_uint256"
      },
      {
        "astId": 8157,
        "contract": "src/arbitration/SortitionModule.sol:SortitionModule",
        "label": "maxDrawingTime",
        "offset": 0,
        "slot": "3",
        "type": "t_uint256"
      },
      {
        "astId": 8159,
        "contract": "src/arbitration/SortitionModule.sol:SortitionModule",
        "label": "lastPhaseChange",
        "offset": 0,
        "slot": "4",
        "type": "t_uint256"
      },
      {
        "astId": 8161,
        "contract": "src/arbitration/SortitionModule.sol:SortitionModule",
        "label": "randomNumberRequestBlock",
        "offset": 0,
        "slot": "5",
        "type": "t_uint256"
      },
      {
        "astId": 8163,
        "contract": "src/arbitration/SortitionModule.sol:SortitionModule",
        "label": "disputesWithoutJurors",
        "offset": 0,
        "slot": "6",
        "type": "t_uint256"
      },
      {
        "astId": 8166,
        "contract": "src/arbitration/SortitionModule.sol:SortitionModule",
        "label": "rng",
        "offset": 0,
        "slot": "7",
        "type": "t_contract(RNG)21557"
      },
      {
        "astId": 8168,
        "contract": "src/arbitration/SortitionModule.sol:SortitionModule",
        "label": "randomNumber",
        "offset": 0,
        "slot": "8",
        "type": "t_uint256"
      },
      {
        "astId": 8170,
        "contract": "src/arbitration/SortitionModule.sol:SortitionModule",
        "label": "rngLookahead",
        "offset": 0,
        "slot": "9",
        "type": "t_uint256"
      },
      {
        "astId": 8172,
        "contract": "src/arbitration/SortitionModule.sol:SortitionModule",
        "label": "delayedStakeWriteIndex",
        "offset": 0,
        "slot": "10",
        "type": "t_uint256"
      },
      {
        "astId": 8175,
        "contract": "src/arbitration/SortitionModule.sol:SortitionModule",
        "label": "delayedStakeReadIndex",
        "offset": 0,
        "slot": "11",
        "type": "t_uint256"
      },
      {
        "astId": 8180,
        "contract": "src/arbitration/SortitionModule.sol:SortitionModule",
        "label": "sortitionSumTrees",
        "offset": 0,
        "slot": "12",
        "type": "t_mapping(t_bytes32,t_struct(SortitionSumTree)8130_storage)"
      },
      {
        "astId": 8185,
        "contract": "src/arbitration/SortitionModule.sol:SortitionModule",
        "label": "delayedStakes",
        "offset": 0,
        "slot": "13",
        "type": "t_mapping(t_uint256,t_struct(DelayedStake)8139_storage)"
      }
    ],
    "types": {
      "t_address": {
        "encoding": "inplace",
        "label": "address",
        "numberOfBytes": "20"
      },
      "t_array(t_uint256)dyn_storage": {
        "base": "t_uint256",
        "encoding": "dynamic_array",
        "label": "uint256[]",
        "numberOfBytes": "32"
      },
      "t_bytes32": {
        "encoding": "inplace",
        "label": "bytes32",
        "numberOfBytes": "32"
      },
      "t_contract(KlerosCore)6640": {
        "encoding": "inplace",
        "label": "contract KlerosCore",
        "numberOfBytes": "20"
      },
      "t_contract(RNG)21557": {
        "encoding": "inplace",
        "label": "contract RNG",
        "numberOfBytes": "20"
      },
      "t_enum(Phase)15489": {
        "encoding": "inplace",
        "label": "enum ISortitionModule.Phase",
        "numberOfBytes": "1"
      },
      "t_mapping(t_bytes32,t_struct(SortitionSumTree)8130_storage)": {
        "encoding": "mapping",
        "key": "t_bytes32",
        "label": "mapping(bytes32 => struct SortitionModule.SortitionSumTree)",
        "numberOfBytes": "32",
        "value": "t_struct(SortitionSumTree)8130_storage"
      },
      "t_mapping(t_bytes32,t_uint256)": {
        "encoding": "mapping",
        "key": "t_bytes32",
        "label": "mapping(bytes32 => uint256)",
        "numberOfBytes": "32",
        "value": "t_uint256"
      },
      "t_mapping(t_uint256,t_bytes32)": {
        "encoding": "mapping",
        "key": "t_uint256",
        "label": "mapping(uint256 => bytes32)",
        "numberOfBytes": "32",
        "value": "t_bytes32"
      },
      "t_mapping(t_uint256,t_struct(DelayedStake)8139_storage)": {
        "encoding": "mapping",
        "key": "t_uint256",
        "label": "mapping(uint256 => struct SortitionModule.DelayedStake)",
        "numberOfBytes": "32",
        "value": "t_struct(DelayedStake)8139_storage"
      },
      "t_struct(DelayedStake)8139_storage": {
        "encoding": "inplace",
        "label": "struct SortitionModule.DelayedStake",
        "members": [
          {
            "astId": 8132,
            "contract": "src/arbitration/SortitionModule.sol:SortitionModule",
            "label": "account",
            "offset": 0,
            "slot": "0",
            "type": "t_address"
          },
          {
            "astId": 8134,
            "contract": "src/arbitration/SortitionModule.sol:SortitionModule",
            "label": "courtID",
            "offset": 20,
            "slot": "0",
            "type": "t_uint96"
          },
          {
            "astId": 8136,
            "contract": "src/arbitration/SortitionModule.sol:SortitionModule",
            "label": "stake",
            "offset": 0,
            "slot": "1",
            "type": "t_uint256"
          },
          {
            "astId": 8138,
            "contract": "src/arbitration/SortitionModule.sol:SortitionModule",
            "label": "penalty",
            "offset": 0,
            "slot": "2",
            "type": "t_uint256"
          }
        ],
        "numberOfBytes": "96"
      },
      "t_struct(SortitionSumTree)8130_storage": {
        "encoding": "inplace",
        "label": "struct SortitionModule.SortitionSumTree",
        "members": [
          {
            "astId": 8115,
            "contract": "src/arbitration/SortitionModule.sol:SortitionModule",
            "label": "K",
            "offset": 0,
            "slot": "0",
            "type": "t_uint256"
          },
          {
            "astId": 8118,
            "contract": "src/arbitration/SortitionModule.sol:SortitionModule",
            "label": "stack",
            "offset": 0,
            "slot": "1",
            "type": "t_array(t_uint256)dyn_storage"
          },
          {
            "astId": 8121,
            "contract": "src/arbitration/SortitionModule.sol:SortitionModule",
            "label": "nodes",
            "offset": 0,
            "slot": "2",
            "type": "t_array(t_uint256)dyn_storage"
          },
          {
            "astId": 8125,
            "contract": "src/arbitration/SortitionModule.sol:SortitionModule",
            "label": "IDsToNodeIndexes",
            "offset": 0,
            "slot": "3",
            "type": "t_mapping(t_bytes32,t_uint256)"
          },
          {
            "astId": 8129,
            "contract": "src/arbitration/SortitionModule.sol:SortitionModule",
            "label": "nodeIndexesToIDs",
            "offset": 0,
            "slot": "4",
            "type": "t_mapping(t_uint256,t_bytes32)"
          }
        ],
        "numberOfBytes": "160"
      },
      "t_uint256": {
        "encoding": "inplace",
        "label": "uint256",
        "numberOfBytes": "32"
      },
      "t_uint96": {
        "encoding": "inplace",
        "label": "uint96",
        "numberOfBytes": "12"
      }
    }
  }
}