{
  "address": "0xA472Dfb104696E5CE82E46148c33Cd5FeE2C3b7d",
  "abi": [
    {
      "inputs": [],
      "stateMutability": "nonpayable",
      "type": "constructor"
    },
    {
      "inputs": [],
      "name": "AlreadyInitialized",
      "type": "error"
    },
    {
      "inputs": [],
      "name": "FailedDelegateCall",
      "type": "error"
    },
    {
      "inputs": [
        {
          "internalType": "address",
          "name": "implementation",
          "type": "address"
        }
      ],
      "name": "InvalidImplementation",
      "type": "error"
    },
    {
      "inputs": [],
      "name": "NotInitializing",
      "type": "error"
    },
    {
      "inputs": [],
      "name": "UUPSUnauthorizedCallContext",
      "type": "error"
    },
    {
      "inputs": [
        {
          "internalType": "bytes32",
          "name": "slot",
          "type": "bytes32"
        }
      ],
      "name": "UUPSUnsupportedProxiableUUID",
      "type": "error"
    },
    {
      "anonymous": false,
      "inputs": [
        {
          "indexed": false,
          "internalType": "uint64",
          "name": "version",
          "type": "uint64"
        }
      ],
      "name": "Initialized",
      "type": "event"
    },
    {
      "anonymous": false,
      "inputs": [
        {
          "indexed": false,
          "internalType": "enum ISortitionModule.Phase",
          "name": "_phase",
          "type": "uint8"
        }
      ],
      "name": "NewPhase",
      "type": "event"
    },
    {
      "anonymous": false,
      "inputs": [
        {
          "indexed": true,
          "internalType": "address",
          "name": "newImplementation",
          "type": "address"
        }
      ],
      "name": "Upgraded",
      "type": "event"
    },
    {
      "inputs": [],
      "name": "DEFAULT_K",
      "outputs": [
        {
          "internalType": "uint256",
          "name": "",
          "type": "uint256"
        }
      ],
      "stateMutability": "view",
      "type": "function"
    },
    {
      "inputs": [],
      "name": "MAX_STAKE_PATHS",
      "outputs": [
        {
          "internalType": "uint256",
          "name": "",
          "type": "uint256"
        }
      ],
      "stateMutability": "view",
      "type": "function"
    },
    {
      "inputs": [
        {
          "internalType": "uint256",
          "name": "_maxDrawingTime",
          "type": "uint256"
        }
      ],
      "name": "changeMaxDrawingTime",
      "outputs": [],
      "stateMutability": "nonpayable",
      "type": "function"
    },
    {
      "inputs": [
        {
          "internalType": "uint256",
          "name": "_minStakingTime",
          "type": "uint256"
        }
      ],
      "name": "changeMinStakingTime",
      "outputs": [],
      "stateMutability": "nonpayable",
      "type": "function"
    },
    {
      "inputs": [
        {
          "internalType": "contract RNG",
          "name": "_rng",
          "type": "address"
        },
        {
          "internalType": "uint256",
          "name": "_rngLookahead",
          "type": "uint256"
        }
      ],
      "name": "changeRandomNumberGenerator",
      "outputs": [],
      "stateMutability": "nonpayable",
      "type": "function"
    },
    {
      "inputs": [],
      "name": "core",
      "outputs": [
        {
          "internalType": "contract KlerosCore",
          "name": "",
          "type": "address"
        }
      ],
      "stateMutability": "view",
      "type": "function"
    },
    {
      "inputs": [
        {
          "internalType": "uint256",
          "name": "",
          "type": "uint256"
        },
        {
          "internalType": "uint256",
          "name": "",
          "type": "uint256"
        }
      ],
      "name": "createDisputeHook",
      "outputs": [],
      "stateMutability": "nonpayable",
      "type": "function"
    },
    {
      "inputs": [
        {
          "internalType": "bytes32",
          "name": "_key",
          "type": "bytes32"
        },
        {
          "internalType": "bytes",
          "name": "_extraData",
          "type": "bytes"
        }
      ],
      "name": "createTree",
      "outputs": [],
      "stateMutability": "nonpayable",
      "type": "function"
    },
    {
      "inputs": [],
      "name": "delayedStakeReadIndex",
      "outputs": [
        {
          "internalType": "uint256",
          "name": "",
          "type": "uint256"
        }
      ],
      "stateMutability": "view",
      "type": "function"
    },
    {
      "inputs": [],
      "name": "delayedStakeWriteIndex",
      "outputs": [
        {
          "internalType": "uint256",
          "name": "",
          "type": "uint256"
        }
      ],
      "stateMutability": "view",
      "type": "function"
    },
    {
      "inputs": [
        {
          "internalType": "uint256",
          "name": "",
          "type": "uint256"
        }
      ],
      "name": "delayedStakes",
      "outputs": [
        {
          "internalType": "address",
          "name": "account",
          "type": "address"
        },
        {
          "internalType": "uint96",
          "name": "courtID",
          "type": "uint96"
        },
        {
          "internalType": "uint256",
          "name": "stake",
          "type": "uint256"
        }
      ],
      "stateMutability": "view",
      "type": "function"
    },
    {
      "inputs": [],
      "name": "disputesWithoutJurors",
      "outputs": [
        {
          "internalType": "uint256",
          "name": "",
          "type": "uint256"
        }
      ],
      "stateMutability": "view",
      "type": "function"
    },
    {
      "inputs": [
        {
          "internalType": "bytes32",
          "name": "_key",
          "type": "bytes32"
        },
        {
          "internalType": "uint256",
          "name": "_coreDisputeID",
          "type": "uint256"
        },
        {
          "internalType": "uint256",
          "name": "_nonce",
          "type": "uint256"
        }
      ],
      "name": "draw",
      "outputs": [
        {
          "internalType": "address",
          "name": "drawnAddress",
          "type": "address"
        }
      ],
      "stateMutability": "view",
      "type": "function"
    },
    {
      "inputs": [
        {
          "internalType": "uint256",
          "name": "_iterations",
          "type": "uint256"
        }
      ],
      "name": "executeDelayedStakes",
      "outputs": [],
      "stateMutability": "nonpayable",
      "type": "function"
    },
    {
      "inputs": [],
      "name": "governor",
      "outputs": [
        {
          "internalType": "address",
          "name": "",
          "type": "address"
        }
      ],
      "stateMutability": "view",
      "type": "function"
    },
    {
      "inputs": [
        {
          "internalType": "address",
          "name": "_governor",
          "type": "address"
        },
        {
          "internalType": "contract KlerosCore",
          "name": "_core",
          "type": "address"
        },
        {
          "internalType": "uint256",
          "name": "_minStakingTime",
          "type": "uint256"
        },
        {
          "internalType": "uint256",
          "name": "_maxDrawingTime",
          "type": "uint256"
        },
        {
          "internalType": "contract RNG",
          "name": "_rng",
          "type": "address"
        },
        {
          "internalType": "uint256",
          "name": "_rngLookahead",
          "type": "uint256"
        }
      ],
      "name": "initialize",
      "outputs": [],
      "stateMutability": "nonpayable",
      "type": "function"
    },
    {
      "inputs": [],
      "name": "lastPhaseChange",
      "outputs": [
        {
          "internalType": "uint256",
          "name": "",
          "type": "uint256"
        }
      ],
      "stateMutability": "view",
      "type": "function"
    },
    {
      "inputs": [],
      "name": "maxDrawingTime",
      "outputs": [
        {
          "internalType": "uint256",
          "name": "",
          "type": "uint256"
        }
      ],
      "stateMutability": "view",
      "type": "function"
    },
    {
      "inputs": [],
      "name": "minStakingTime",
      "outputs": [
        {
          "internalType": "uint256",
          "name": "",
          "type": "uint256"
        }
      ],
      "stateMutability": "view",
      "type": "function"
    },
    {
      "inputs": [
        {
          "internalType": "uint256",
          "name": "_randomNumber",
          "type": "uint256"
        }
      ],
      "name": "notifyRandomNumber",
      "outputs": [],
      "stateMutability": "nonpayable",
      "type": "function"
    },
    {
      "inputs": [],
      "name": "passPhase",
      "outputs": [],
      "stateMutability": "nonpayable",
      "type": "function"
    },
    {
      "inputs": [],
      "name": "phase",
      "outputs": [
        {
          "internalType": "enum ISortitionModule.Phase",
          "name": "",
          "type": "uint8"
        }
      ],
      "stateMutability": "view",
      "type": "function"
    },
    {
      "inputs": [
        {
          "internalType": "uint256",
          "name": "",
          "type": "uint256"
        },
        {
          "internalType": "uint256",
          "name": "",
          "type": "uint256"
        }
      ],
      "name": "postDrawHook",
      "outputs": [],
      "stateMutability": "nonpayable",
      "type": "function"
    },
    {
      "inputs": [
        {
          "internalType": "address",
          "name": "_account",
          "type": "address"
        },
        {
          "internalType": "uint96",
          "name": "_courtID",
          "type": "uint96"
        },
        {
          "internalType": "uint256",
          "name": "_stake",
          "type": "uint256"
        }
      ],
      "name": "preStakeHook",
      "outputs": [
        {
          "internalType": "enum ISortitionModule.preStakeHookResult",
          "name": "",
          "type": "uint8"
        }
      ],
      "stateMutability": "nonpayable",
      "type": "function"
    },
    {
      "inputs": [],
      "name": "proxiableUUID",
      "outputs": [
        {
          "internalType": "bytes32",
          "name": "",
          "type": "bytes32"
        }
      ],
      "stateMutability": "view",
      "type": "function"
    },
    {
      "inputs": [],
      "name": "randomNumber",
      "outputs": [
        {
          "internalType": "uint256",
          "name": "",
          "type": "uint256"
        }
      ],
      "stateMutability": "view",
      "type": "function"
    },
    {
      "inputs": [],
      "name": "randomNumberRequestBlock",
      "outputs": [
        {
          "internalType": "uint256",
          "name": "",
          "type": "uint256"
        }
      ],
      "stateMutability": "view",
      "type": "function"
    },
    {
      "inputs": [],
      "name": "rng",
      "outputs": [
        {
          "internalType": "contract RNG",
          "name": "",
          "type": "address"
        }
      ],
      "stateMutability": "view",
      "type": "function"
    },
    {
      "inputs": [],
      "name": "rngLookahead",
      "outputs": [
        {
          "internalType": "uint256",
          "name": "",
          "type": "uint256"
        }
      ],
      "stateMutability": "view",
      "type": "function"
    },
    {
      "inputs": [
        {
          "internalType": "address",
          "name": "_account",
          "type": "address"
        }
      ],
      "name": "setJurorInactive",
      "outputs": [],
      "stateMutability": "nonpayable",
      "type": "function"
    },
    {
      "inputs": [
        {
          "internalType": "address",
          "name": "_account",
          "type": "address"
        },
        {
          "internalType": "uint96",
          "name": "_courtID",
          "type": "uint96"
        },
        {
          "internalType": "uint256",
          "name": "_value",
          "type": "uint256"
        }
      ],
      "name": "setStake",
      "outputs": [],
      "stateMutability": "nonpayable",
      "type": "function"
    },
    {
      "inputs": [
        {
          "internalType": "address",
          "name": "newImplementation",
          "type": "address"
        },
        {
          "internalType": "bytes",
          "name": "data",
          "type": "bytes"
        }
      ],
      "name": "upgradeToAndCall",
      "outputs": [],
      "stateMutability": "payable",
      "type": "function"
    }
  ],
  "transactionHash": "0x90af960c874ae55e41cf26b230c13b241e9a0e06fd36f1a38ca161428e46fc0e",
  "args": [],
  "numDeployments": 1,
  "solcInputHash": "f16a94d75c83e5f4618a2f6097a17dcc",
  "bytecode": "0x60a06040523060805234801561001457600080fd5b5061001d610022565b6100d3565b7ff0c57e16840df040f15088dc2f81fe391c3923bec73e23a9662efc9c229c6a0e805468010000000000000000900460ff16156100715760405162dc149f60e41b815260040160405180910390fd5b80546001600160401b03908116146100d05780546001600160401b0319166001600160401b0390811782556040519081527fc7f505b2f371ae2175ee4913f4499e1f2633a7b5936321eed1cdaeb6115181d29060200160405180910390a15b50565b608051612282620000fd60003960008181610fbf01528181610fe801526111d701526122826000f3fe6080604052600436106101a35760003560e01c80635d2d7846116100e2578063c057eca711610085578063c057eca714610461578063c157261814610477578063ccbac9f51461048d578063d09f392d146104a3578063d605787b146104c3578063dd5e5cb5146104e3578063f2f4eb2614610503578063f6b4d82d1461052357600080fd5b80635d2d784614610372578063684fbf5f146103925780637dc38f14146103bf578063823cfd70146103d5578063b1c9fe6e146103f5578063b4a6160814610416578063b5d69e991461042b578063b888adfa1461044b57600080fd5b806345988e2c1161014a57806345988e2c14610294578063477a655c146102b45780634c70a0d6146102d45780634dbbebbc146102f45780634f1ef2861461031457806352d1902d1461032757806354812d171461033c57806356acb0501461035c57600080fd5b806303432744146101a85780630b274f2e146101d15780630b51806d146101e85780630c340a24146101fd5780630e083ec91461022a5780631b92bbbe1461024057806321ea9b3f1461025657806335975f4a14610274575b600080fd5b3480156101b457600080fd5b506101be60065481565b6040519081526020015b60405180910390f35b3480156101dd57600080fd5b506101e6610582565b005b3480156101f457600080fd5b506101be600681565b34801561020957600080fd5b5060005461021d906001600160a01b031681565b6040516101c89190611bcd565b34801561023657600080fd5b506101be600a5481565b34801561024c57600080fd5b506101be60035481565b34801561026257600080fd5b506101e6610271366004611be1565b50565b34801561028057600080fd5b506101e661028f366004611be1565b61095a565b3480156102a057600080fd5b506101e66102af366004611c24565b610aeb565b3480156102c057600080fd5b506101e66102cf366004611d1a565b610be7565b3480156102e057600080fd5b5061021d6102ef366004611d60565b610cde565b34801561030057600080fd5b506101e661030f366004611d8c565b610ec2565b6101e6610322366004611db8565b610fab565b34801561033357600080fd5b506101be6111ca565b34801561034857600080fd5b506101e6610357366004611df1565b611228565b34801561036857600080fd5b506101be600b5481565b34801561037e57600080fd5b506101e661038d366004611e58565b61134c565b34801561039e57600080fd5b506103b26103ad366004611c24565b61138f565b6040516101c89190611eae565b3480156103cb57600080fd5b506101be60095481565b3480156103e157600080fd5b506101e66103f0366004611be1565b611528565b34801561040157600080fd5b506001546103b290600160a01b900460ff1681565b34801561042257600080fd5b506101be600481565b34801561043757600080fd5b506101e6610446366004611ec1565b611557565b34801561045757600080fd5b506101be60045481565b34801561046d57600080fd5b506101be60025481565b34801561048357600080fd5b506101be60055481565b34801561049957600080fd5b506101be60085481565b3480156104af57600080fd5b506101e66104be366004611e58565b6116a2565b3480156104cf57600080fd5b5060075461021d906001600160a01b031681565b3480156104ef57600080fd5b506101e66104fe366004611be1565b6116dc565b34801561050f57600080fd5b5060015461021d906001600160a01b031681565b34801561052f57600080fd5b5061057361053e366004611be1565b600d60205260009081526040902080546001909101546001600160a01b03821691600160a01b90046001600160601b03169083565b6040516101c893929190611ede565b6000600154600160a01b900460ff1660028111156105a2576105a2611e7a565b03610715576002546004546105b79042611f1e565b101561061f5760405162461bcd60e51b815260206004820152602c60248201527f546865206d696e696d756d207374616b696e672074696d6520686173206e6f7460448201526b103830b9b9b2b2103cb2ba1760a11b60648201526084015b60405180910390fd5b6000600654116106815760405162461bcd60e51b815260206004820152602760248201527f546865726520617265206e6f2064697370757465732074686174206e65656420604482015266353ab937b9399760c91b6064820152608401610616565b6007546009546001600160a01b0390911690637363ae1f906106a39043611f37565b6040518263ffffffff1660e01b81526004016106c191815260200190565b600060405180830381600087803b1580156106db57600080fd5b505af11580156106ef573d6000803e3d6000fd5b505043600555505060018054819060ff60a01b1916600160a01b825b021790555061090f565b60018054600160a01b900460ff16600281111561073457610734611e7a565b0361082c576007546009546005546001600160a01b03909216916313cf90549161075d91611f37565b6040518263ffffffff1660e01b815260040161077b91815260200190565b6020604051808303816000875af115801561079a573d6000803e3d6000fd5b505050506040513d601f19601f820116820180604052508101906107be9190611f4a565b60088190556000036108125760405162461bcd60e51b815260206004820152601e60248201527f52616e646f6d206e756d626572206973206e6f742072656164792079657400006044820152606401610616565b600180546002919060ff60a01b1916600160a01b8361070b565b6002600154600160a01b900460ff16600281111561084c5761084c611e7a565b0361090f57600654158061086e575060035460045461086b9042611f1e565b10155b6109015760405162461bcd60e51b815260206004820152605860248201527f546865726520617265207374696c6c20646973707574657320776974686f757460448201527f206a75726f727320616e6420746865206d6178696d756d2064726177696e67206064820152773a34b6b2903430b9903737ba103830b9b9b2b2103cb2ba1760411b608482015260a401610616565b6001805460ff60a01b191690555b426004556001546040517f31f72b44f546d9e7eaec13f65636997665e15f134a81c82924f568f5c0d07b939161095091600160a01b90910460ff1690611eae565b60405180910390a1565b6000600154600160a01b900460ff16600281111561097a5761097a611e7a565b146109c75760405162461bcd60e51b815260206004820152601b60248201527f53686f756c6420626520696e205374616b696e672070686173652e00000000006044820152606401610616565b6000600a54600183600b546109dc9190611f37565b6109e69190611f1e565b116109f15781610a0c565b600b54600a54610a019190611f1e565b610a0c906001611f37565b9050600081600b54610a1e9190611f37565b600b549091505b81811015610ae3576000818152600d602052604090819020600180548254918301549351630761c14d60e01b815292936001600160a01b0391821693630761c14d93610a8893811692600160a01b9091046001600160601b031691600401611ede565b600060405180830381600087803b158015610aa257600080fd5b505af1158015610ab6573d6000803e3d6000fd5b5050506000838152600d602052604081208181556001015550819050610adb81611f63565b915050610a25565b50600b555050565b6001546001600160a01b03163314610b155760405162461bcd60e51b815260040161061690611f7c565b6000610b21848461170b565b90506000835b81610bdf57610b406001600160601b0382168585611753565b6000196001600160601b03821601610b5b5760019150610b27565b600154604051630fad06e960e11b81526001600160601b03831660048201526001600160a01b0390911690631f5a0dd29060240160e060405180830381865afa158015610bac573d6000803e3d6000fd5b505050506040513d601f19601f82011682018060405250810190610bd09190611fd0565b50949550610b27945050505050565b505050505050565b6001546001600160a01b03163314610c115760405162461bcd60e51b815260040161061690611f7c565b6000828152600c6020526040812090610c2983611aa7565b825490915015610c725760405162461bcd60e51b81526020600482015260146024820152732a3932b29030b63932b0b23c9032bc34b9ba399760611b6044820152606401610616565b60018111610cc25760405162461bcd60e51b815260206004820152601b60248201527f4b206d7573742062652067726561746572207468616e206f6e652e00000000006044820152606401610616565b8155600201805460018101825560009182526020822001555050565b60006002600154600160a01b900460ff166002811115610d0057610d00611e7a565b14610d3c5760405162461bcd60e51b815260206004820152600c60248201526b2bb937b73390383430b9b29760a11b6044820152606401610616565b6000848152600c6020526040812060028101805491929091610d6057610d6061203c565b9060005260206000200154600003610d7c576000915050610ebb565b600081600201600081548110610d9457610d9461203c565b90600052602060002001546008548686604051602001610dc7939291909283526020830191909152604082015260600190565b6040516020818303038152906040528051906020012060001c610dea9190612068565b905060005b60028301548354610e0190839061207c565b610e0c906001611f37565b1015610e9b5760015b83548111610e9557600081838660000154610e30919061207c565b610e3a9190611f37565b90506000856002018281548110610e5357610e5361203c565b90600052602060002001549050808510610e7857610e718186611f1e565b9450610e80565b509150610e95565b50508080610e8d90611f63565b915050610e15565b50610def565b6000818152600484016020526040902054610eb590611ac3565b93505050505b9392505050565b6000546001600160a01b03163314610eec5760405162461bcd60e51b815260040161061690612093565b600780546001600160a01b0319166001600160a01b038416179055600981905560018054600160a01b900460ff166002811115610f2b57610f2b611e7a565b03610fa7576007546009546001600160a01b0390911690637363ae1f90610f529043611f37565b6040518263ffffffff1660e01b8152600401610f7091815260200190565b600060405180830381600087803b158015610f8a57600080fd5b505af1158015610f9e573d6000803e3d6000fd5b50504360055550505b5050565b610fb482611aee565b306001600160a01b037f000000000000000000000000000000000000000000000000000000000000000016148061103257507f00000000000000000000000000000000000000000000000000000000000000006001600160a01b031661102660008051602061222d8339815191525490565b6001600160a01b031614155b156110505760405163703e46dd60e11b815260040160405180910390fd5b816001600160a01b03166352d1902d6040518163ffffffff1660e01b8152600401602060405180830381865afa9250505080156110aa575060408051601f3d908101601f191682019092526110a791810190611f4a565b60015b6110c95781604051630c76093760e01b81526004016106169190611bcd565b60008051602061222d83398151915281146110fa57604051632a87526960e21b815260048101829052602401610616565b60008051602061222d8339815191528390556040516001600160a01b038416907fbc7cd75a20ee27fd9adebab32041f755214dbc6bffa90cc0225b39da2e5c2d3b90600090a28151156111c5576000836001600160a01b03168360405161116191906120d5565b600060405180830381855af49150503d806000811461119c576040519150601f19603f3d011682016040523d82523d6000602084013e6111a1565b606091505b50509050806111c3576040516339b21b5d60e11b815260040160405180910390fd5b505b505050565b6000306001600160a01b037f000000000000000000000000000000000000000000000000000000000000000016146112155760405163703e46dd60e11b815260040160405180910390fd5b5060008051602061222d83398151915290565b7ff0c57e16840df040f15088dc2f81fe391c3923bec73e23a9662efc9c229c6a0e805460019190600160401b900460ff1680611271575080546001600160401b03808416911610155b1561128e5760405162dc149f60e41b815260040160405180910390fd5b805468ffffffffffffffffff19166001600160401b038316908117600160401b178255600080546001600160a01b038b81166001600160a01b031992831617909255600180548b841690831617815560028a905560038990554260045560078054938916939092169290921790556009859055600b55815460ff60401b191682556040519081527fc7f505b2f371ae2175ee4913f4499e1f2633a7b5936321eed1cdaeb6115181d29060200160405180910390a15050505050505050565b6001546001600160a01b031633146113765760405162461bcd60e51b815260040161061690611f7c565b6006805490600061138683612104565b91905055505050565b6001546000906001600160a01b031633146113bc5760405162461bcd60e51b815260040161061690611f7c565b600154604051631a383be960e31b81526001600160a01b0386811660048301526001600160601b0386166024830152600092839291169063d1c1df4890604401608060405180830381865afa158015611419573d6000803e3d6000fd5b505050506040513d601f19601f8201168201806040525081019061143d919061211b565b935093505050816000148015611454575060048110155b1561146457600292505050610ebb565b6000600154600160a01b900460ff16600281111561148457611484611e7a565b1461151c576040518060600160405280876001600160a01b03168152602001866001600160601b0316815260200185815250600d6000600a600081546114c990611f63565b9182905550815260208082019290925260409081016000208351928401516001600160601b0316600160a01b026001600160a01b0390931692909217825591909101516001918201559250610ebb915050565b50600095945050505050565b6000546001600160a01b031633146115525760405162461bcd60e51b815260040161061690612093565b600255565b6001546001600160a01b031633146115815760405162461bcd60e51b815260040161061690611f7c565b600154604051632a1fc51b60e11b81526000916001600160a01b03169063543f8a36906115b2908590600401611bcd565b600060405180830381865afa1580156115cf573d6000803e3d6000fd5b505050506040513d6000823e601f3d908101601f191682016040526115f79190810190612151565b80519091505b80156111c557600180546001600160a01b031690630761c14d90859085906116259086611f1e565b815181106116355761163561203c565b602002602001015160006040518463ffffffff1660e01b815260040161165d93929190611ede565b600060405180830381600087803b15801561167757600080fd5b505af115801561168b573d6000803e3d6000fd5b50505050808061169a90612104565b9150506115fd565b6001546001600160a01b031633146116cc5760405162461bcd60e51b815260040161061690611f7c565b6006805490600061138683611f63565b6000546001600160a01b031633146117065760405162461bcd60e51b815260040161061690612093565b600355565b600060405160005b601481101561172e578481600c011a81830153600101611713565b5060145b602081101561174a5783811a81830153600101611732565b50519392505050565b6000838152600c6020908152604080832084845260038101909252822054909181900361192057831561191b57600182015460000361186e5750600281018054600180820183556000928352602090922081018590559081148015906117cd575081546117c1600183611f1e565b6117cb9190612068565b155b156118695781546000906117e19083612202565b6000818152600485016020526040812054919250611800846001611f37565b90508460020185600201848154811061181b5761181b61203c565b60009182526020808320909101548354600181018555938352818320909301929092559384526004860180825260408086208690558486526003880183528086208490559285529052909120555b6118e9565b60018083018054909161188091611f1e565b815481106118905761189061203c565b90600052602060002001549050816001018054806118b0576118b0612216565b60019003818190600052602060002001600090559055838260020182815481106118dc576118dc61203c565b6000918252602090912001555b6000838152600383016020908152604080832084905583835260048501909152902083905561191b8582600187611b18565b611aa0565b836000036119be57600082600201828154811061193f5761193f61203c565b9060005260206000200154905060008360020183815481106119635761196361203c565b60009182526020808320909101929092556001808601805491820181558252828220018490558581526003850182526040808220829055848252600486019092529081208190556119b8908790849084611b18565b50611aa0565b8160020181815481106119d3576119d361203c565b90600052602060002001548414611aa0576000848360020183815481106119fc576119fc61203c565b906000526020600020015411159050600081611a425785846002018481548110611a2857611a2861203c565b9060005260206000200154611a3d9190611f1e565b611a6d565b836002018381548110611a5757611a5761203c565b906000526020600020015486611a6d9190611f1e565b905085846002018481548110611a8557611a8561203c565b600091825260209091200155611a9d87848484611b18565b50505b5050505050565b60006020825110611aba57506020015190565b5060065b919050565b600060405160005b6014811015611ae65783811a81600c84010153600101611acb565b505192915050565b6000546001600160a01b031633146102715760405162461bcd60e51b815260040161061690612093565b6000848152600c60205260409020835b8015610bdf578154611b3b600183611f1e565b611b459190612202565b905083611b7c5782826002018281548110611b6257611b6261203c565b9060005260206000200154611b779190611f1e565b611ba7565b82826002018281548110611b9257611b9261203c565b9060005260206000200154611ba79190611f37565b826002018281548110611bbc57611bbc61203c565b600091825260209091200155611b28565b6001600160a01b0391909116815260200190565b600060208284031215611bf357600080fd5b5035919050565b6001600160a01b038116811461027157600080fd5b6001600160601b038116811461027157600080fd5b600080600060608486031215611c3957600080fd5b8335611c4481611bfa565b92506020840135611c5481611c0f565b929592945050506040919091013590565b634e487b7160e01b600052604160045260246000fd5b604051601f8201601f191681016001600160401b0381118282101715611ca357611ca3611c65565b604052919050565b600082601f830112611cbc57600080fd5b81356001600160401b03811115611cd557611cd5611c65565b611ce8601f8201601f1916602001611c7b565b818152846020838601011115611cfd57600080fd5b816020850160208301376000918101602001919091529392505050565b60008060408385031215611d2d57600080fd5b8235915060208301356001600160401b03811115611d4a57600080fd5b611d5685828601611cab565b9150509250929050565b600080600060608486031215611d7557600080fd5b505081359360208301359350604090920135919050565b60008060408385031215611d9f57600080fd5b8235611daa81611bfa565b946020939093013593505050565b60008060408385031215611dcb57600080fd5b8235611dd681611bfa565b915060208301356001600160401b03811115611d4a57600080fd5b60008060008060008060c08789031215611e0a57600080fd5b8635611e1581611bfa565b95506020870135611e2581611bfa565b945060408701359350606087013592506080870135611e4381611bfa565b8092505060a087013590509295509295509295565b60008060408385031215611e6b57600080fd5b50508035926020909101359150565b634e487b7160e01b600052602160045260246000fd5b6003811061027157634e487b7160e01b600052602160045260246000fd5b60208101611ebb83611e90565b91905290565b600060208284031215611ed357600080fd5b8135610ebb81611bfa565b6001600160a01b039390931683526001600160601b03919091166020830152604082015260600190565b634e487b7160e01b600052601160045260246000fd5b81810381811115611f3157611f31611f08565b92915050565b80820180821115611f3157611f31611f08565b600060208284031215611f5c57600080fd5b5051919050565b600060018201611f7557611f75611f08565b5060010190565b60208082526024908201527f416363657373206e6f7420616c6c6f7765643a204b6c65726f73436f7265206f60408201526337363c9760e11b606082015260800190565b80518015158114611abe57600080fd5b600080600080600080600060e0888a031215611feb57600080fd5b8751611ff681611c0f565b965061200460208901611fc0565b955060408801519450606088015193506080880151925060a0880151915061202e60c08901611fc0565b905092959891949750929550565b634e487b7160e01b600052603260045260246000fd5b634e487b7160e01b600052601260045260246000fd5b60008261207757612077612052565b500690565b8082028115828204841417611f3157611f31611f08565b60208082526022908201527f416363657373206e6f7420616c6c6f7765643a20476f7665726e6f72206f6e6c6040820152613c9760f11b606082015260800190565b6000825160005b818110156120f657602081860181015185830152016120dc565b506000920191825250919050565b60008161211357612113611f08565b506000190190565b6000806000806080858703121561213157600080fd5b505082516020840151604085015160609095015191969095509092509050565b6000602080838503121561216457600080fd5b82516001600160401b038082111561217b57600080fd5b818501915085601f83011261218f57600080fd5b8151818111156121a1576121a1611c65565b8060051b91506121b2848301611c7b565b81815291830184019184810190888411156121cc57600080fd5b938501935b838510156121f657845192506121e683611c0f565b82825293850193908501906121d1565b98975050505050505050565b60008261221157612211612052565b500490565b634e487b7160e01b600052603160045260246000fdfe360894a13ba1a3210667c828492db98dca3e2076cc3735a920a3ca505d382bbca26469706673582212207293f4a627465507c1f94d546ad4325f98872cbaa6255a769c6f7dfafe527b1564736f6c63430008120033",
  "devdoc": {
    "details": "A factory of trees that keeps track of staked values for sortition.",
    "errors": {
      "AlreadyInitialized()": [
        {
          "details": "The contract is already initialized."
        }
      ],
      "NotInitializing()": [
        {
          "details": "The contract is not initializing."
        }
      ],
      "UUPSUnauthorizedCallContext()": [
        {
          "details": "The call is from an unauthorized context."
        }
      ],
      "UUPSUnsupportedProxiableUUID(bytes32)": [
        {
          "details": "The storage `slot` is unsupported as a UUID."
        }
      ]
    },
    "events": {
      "Initialized(uint64)": {
        "details": "Triggered when the contract has been initialized or reinitialized."
      },
      "Upgraded(address)": {
        "params": {
          "newImplementation": "Address of the new implementation the proxy is now forwarding calls to."
        }
      }
    },
    "kind": "dev",
    "methods": {
      "changeMaxDrawingTime(uint256)": {
        "details": "Changes the `maxDrawingTime` storage variable.",
        "params": {
          "_maxDrawingTime": "The new value for the `maxDrawingTime` storage variable."
        }
      },
      "changeMinStakingTime(uint256)": {
        "details": "Changes the `minStakingTime` storage variable.",
        "params": {
          "_minStakingTime": "The new value for the `minStakingTime` storage variable."
        }
      },
      "changeRandomNumberGenerator(address,uint256)": {
        "details": "Changes the `_rng` and `_rngLookahead` storage variables.",
        "params": {
          "_rng": "The new value for the `RNGenerator` storage variable.",
          "_rngLookahead": "The new value for the `rngLookahead` storage variable."
        }
      },
      "constructor": {
        "details": "Constructor, initializing the implementation to reduce attack surface."
      },
      "createTree(bytes32,bytes)": {
        "details": "Create a sortition sum tree at the specified key.",
        "params": {
          "_extraData": "Extra data that contains the number of children each node in the tree should have.",
          "_key": "The key of the new tree."
        }
      },
      "draw(bytes32,uint256,uint256)": {
        "details": "Draw an ID from a tree using a number. Note that this function reverts if the sum of all values in the tree is 0.",
        "params": {
          "_coreDisputeID": "Index of the dispute in Kleros Core.",
          "_key": "The key of the tree.",
          "_nonce": "Nonce to hash with random number."
        },
        "returns": {
          "drawnAddress": "The drawn address. `O(k * log_k(n))` where `k` is the maximum number of children per node in the tree,  and `n` is the maximum number of nodes ever appended."
        }
      },
      "executeDelayedStakes(uint256)": {
        "details": "Executes the next delayed stakes.",
        "params": {
          "_iterations": "The number of delayed stakes to execute."
        }
      },
      "initialize(address,address,uint256,uint256,address,uint256)": {
        "details": "Initializer (constructor equivalent for upgradable contracts).",
        "params": {
          "_core": "The KlerosCore.",
          "_maxDrawingTime": "Time after which the drawing phase can be switched",
          "_minStakingTime": "Minimal time to stake",
          "_rng": "The random number generator.",
          "_rngLookahead": "Lookahead value for rng."
        }
      },
      "notifyRandomNumber(uint256)": {
        "details": "Saves the random number to use it in sortition. Not used by this contract because the storing of the number is inlined in passPhase().",
        "params": {
          "_randomNumber": "Random number returned by RNG contract."
        }
      },
      "proxiableUUID()": {
        "details": "Implementation of the ERC1822 `proxiableUUID` function. This returns the storage slot used by the implementation. It is used to validate the implementation's compatibility when performing an upgrade. IMPORTANT: A proxy pointing at a proxiable contract should not be considered proxiable itself, because this risks bricking a proxy that upgrades to it, by delegating to itself until out of gas. Thus it is critical that this function revert if invoked through a proxy. This is guaranteed by the if statement."
      },
      "setJurorInactive(address)": {
        "details": "Unstakes the inactive juror from all courts. `O(n * (p * log_k(j)) )` where `n` is the number of courts the juror has staked in, `p` is the depth of the court tree, `k` is the minimum number of children per node of one of these courts' sortition sum tree, and `j` is the maximum number of jurors that ever staked in one of these courts simultaneously.",
        "params": {
          "_account": "The juror to unstake."
        }
      },
      "setStake(address,uint96,uint256)": {
        "details": "Sets the value for a particular court and its parent courts.",
        "params": {
          "_account": "Address of the juror. `O(log_k(n))` where `k` is the maximum number of children per node in the tree,  and `n` is the maximum number of nodes ever appended.",
          "_courtID": "ID of the court.",
          "_value": "The new value."
        }
      },
      "upgradeToAndCall(address,bytes)": {
        "details": "Upgrade mechanism including access control and UUPS-compliance.Reverts if the execution is not performed via delegatecall or the execution context is not of a proxy with an ERC1967-compliant implementation pointing to self.",
        "params": {
          "data": "Data used in a delegate call to `newImplementation` if non-empty. This will typically be an encoded function call, and allows initializing the storage of the proxy like a Solidity constructor.",
          "newImplementation": "Address of the new implementation contract."
        }
      }
    },
    "title": "SortitionModule",
    "version": 1
  },
  "userdoc": {
    "errors": {
      "FailedDelegateCall()": [
        {
          "notice": "Failed Delegated call"
        }
      ],
      "InvalidImplementation(address)": [
        {
          "notice": "The `implementation` is not UUPS-compliant"
        }
      ]
    },
    "events": {
      "Upgraded(address)": {
        "notice": "Emitted when the `implementation` has been successfully upgraded."
      }
    },
    "kind": "user",
    "methods": {},
    "version": 1
  },
  "storageLayout": {
    "storage": [
      {
        "astId": 4039,
        "contract": "src/arbitration/SortitionModule.sol:SortitionModule",
        "label": "governor",
        "offset": 0,
        "slot": "0",
        "type": "t_address"
      },
      {
        "astId": 4042,
        "contract": "src/arbitration/SortitionModule.sol:SortitionModule",
        "label": "core",
        "offset": 0,
        "slot": "1",
        "type": "t_contract(KlerosCore)3971"
      },
      {
        "astId": 4045,
        "contract": "src/arbitration/SortitionModule.sol:SortitionModule",
        "label": "phase",
        "offset": 20,
        "slot": "1",
        "type": "t_enum(Phase)9405"
      },
      {
        "astId": 4047,
        "contract": "src/arbitration/SortitionModule.sol:SortitionModule",
        "label": "minStakingTime",
        "offset": 0,
        "slot": "2",
        "type": "t_uint256"
      },
      {
        "astId": 4049,
        "contract": "src/arbitration/SortitionModule.sol:SortitionModule",
        "label": "maxDrawingTime",
        "offset": 0,
        "slot": "3",
        "type": "t_uint256"
      },
      {
        "astId": 4051,
        "contract": "src/arbitration/SortitionModule.sol:SortitionModule",
        "label": "lastPhaseChange",
        "offset": 0,
        "slot": "4",
        "type": "t_uint256"
      },
      {
        "astId": 4053,
        "contract": "src/arbitration/SortitionModule.sol:SortitionModule",
        "label": "randomNumberRequestBlock",
        "offset": 0,
        "slot": "5",
        "type": "t_uint256"
      },
      {
        "astId": 4055,
        "contract": "src/arbitration/SortitionModule.sol:SortitionModule",
        "label": "disputesWithoutJurors",
        "offset": 0,
        "slot": "6",
        "type": "t_uint256"
      },
      {
        "astId": 4058,
        "contract": "src/arbitration/SortitionModule.sol:SortitionModule",
        "label": "rng",
        "offset": 0,
        "slot": "7",
        "type": "t_contract(RNG)10050"
      },
      {
        "astId": 4060,
        "contract": "src/arbitration/SortitionModule.sol:SortitionModule",
        "label": "randomNumber",
        "offset": 0,
        "slot": "8",
        "type": "t_uint256"
      },
      {
        "astId": 4062,
        "contract": "src/arbitration/SortitionModule.sol:SortitionModule",
        "label": "rngLookahead",
        "offset": 0,
        "slot": "9",
        "type": "t_uint256"
      },
      {
        "astId": 4064,
        "contract": "src/arbitration/SortitionModule.sol:SortitionModule",
        "label": "delayedStakeWriteIndex",
        "offset": 0,
        "slot": "10",
        "type": "t_uint256"
      },
      {
        "astId": 4066,
        "contract": "src/arbitration/SortitionModule.sol:SortitionModule",
        "label": "delayedStakeReadIndex",
        "offset": 0,
        "slot": "11",
        "type": "t_uint256"
      },
      {
        "astId": 4071,
        "contract": "src/arbitration/SortitionModule.sol:SortitionModule",
        "label": "sortitionSumTrees",
        "offset": 0,
        "slot": "12",
        "type": "t_mapping(t_bytes32,t_struct(SortitionSumTree)4024_storage)"
      },
      {
        "astId": 4076,
        "contract": "src/arbitration/SortitionModule.sol:SortitionModule",
        "label": "delayedStakes",
        "offset": 0,
        "slot": "13",
        "type": "t_mapping(t_uint256,t_struct(DelayedStake)4031_storage)"
      }
    ],
    "types": {
      "t_address": {
        "encoding": "inplace",
        "label": "address",
        "numberOfBytes": "20"
      },
      "t_array(t_uint256)dyn_storage": {
        "base": "t_uint256",
        "encoding": "dynamic_array",
        "label": "uint256[]",
        "numberOfBytes": "32"
      },
      "t_bytes32": {
        "encoding": "inplace",
        "label": "bytes32",
        "numberOfBytes": "32"
      },
      "t_contract(KlerosCore)3971": {
        "encoding": "inplace",
        "label": "contract KlerosCore",
        "numberOfBytes": "20"
      },
      "t_contract(RNG)10050": {
        "encoding": "inplace",
        "label": "contract RNG",
        "numberOfBytes": "20"
      },
      "t_enum(Phase)9405": {
        "encoding": "inplace",
        "label": "enum ISortitionModule.Phase",
        "numberOfBytes": "1"
      },
      "t_mapping(t_bytes32,t_struct(SortitionSumTree)4024_storage)": {
        "encoding": "mapping",
        "key": "t_bytes32",
        "label": "mapping(bytes32 => struct SortitionModule.SortitionSumTree)",
        "numberOfBytes": "32",
        "value": "t_struct(SortitionSumTree)4024_storage"
      },
      "t_mapping(t_bytes32,t_uint256)": {
        "encoding": "mapping",
        "key": "t_bytes32",
        "label": "mapping(bytes32 => uint256)",
        "numberOfBytes": "32",
        "value": "t_uint256"
      },
      "t_mapping(t_uint256,t_bytes32)": {
        "encoding": "mapping",
        "key": "t_uint256",
        "label": "mapping(uint256 => bytes32)",
        "numberOfBytes": "32",
        "value": "t_bytes32"
      },
      "t_mapping(t_uint256,t_struct(DelayedStake)4031_storage)": {
        "encoding": "mapping",
        "key": "t_uint256",
        "label": "mapping(uint256 => struct SortitionModule.DelayedStake)",
        "numberOfBytes": "32",
        "value": "t_struct(DelayedStake)4031_storage"
      },
      "t_struct(DelayedStake)4031_storage": {
        "encoding": "inplace",
        "label": "struct SortitionModule.DelayedStake",
        "members": [
          {
            "astId": 4026,
            "contract": "src/arbitration/SortitionModule.sol:SortitionModule",
            "label": "account",
            "offset": 0,
            "slot": "0",
            "type": "t_address"
          },
          {
            "astId": 4028,
            "contract": "src/arbitration/SortitionModule.sol:SortitionModule",
            "label": "courtID",
            "offset": 20,
            "slot": "0",
            "type": "t_uint96"
          },
          {
            "astId": 4030,
            "contract": "src/arbitration/SortitionModule.sol:SortitionModule",
            "label": "stake",
            "offset": 0,
            "slot": "1",
            "type": "t_uint256"
          }
        ],
        "numberOfBytes": "64"
      },
      "t_struct(SortitionSumTree)4024_storage": {
        "encoding": "inplace",
        "label": "struct SortitionModule.SortitionSumTree",
        "members": [
          {
            "astId": 4009,
            "contract": "src/arbitration/SortitionModule.sol:SortitionModule",
            "label": "K",
            "offset": 0,
            "slot": "0",
            "type": "t_uint256"
          },
          {
            "astId": 4012,
            "contract": "src/arbitration/SortitionModule.sol:SortitionModule",
            "label": "stack",
            "offset": 0,
            "slot": "1",
            "type": "t_array(t_uint256)dyn_storage"
          },
          {
            "astId": 4015,
            "contract": "src/arbitration/SortitionModule.sol:SortitionModule",
            "label": "nodes",
            "offset": 0,
            "slot": "2",
            "type": "t_array(t_uint256)dyn_storage"
          },
          {
            "astId": 4019,
            "contract": "src/arbitration/SortitionModule.sol:SortitionModule",
            "label": "IDsToNodeIndexes",
            "offset": 0,
            "slot": "3",
            "type": "t_mapping(t_bytes32,t_uint256)"
          },
          {
            "astId": 4023,
            "contract": "src/arbitration/SortitionModule.sol:SortitionModule",
            "label": "nodeIndexesToIDs",
            "offset": 0,
            "slot": "4",
            "type": "t_mapping(t_uint256,t_bytes32)"
          }
        ],
        "numberOfBytes": "160"
      },
      "t_uint256": {
        "encoding": "inplace",
        "label": "uint256",
        "numberOfBytes": "32"
      },
      "t_uint96": {
        "encoding": "inplace",
        "label": "uint96",
        "numberOfBytes": "12"
      }
    }
  }
}